112609000112609               112609               170213BQ     1400+00000+BQ0000005259+0000005259+000000000+000000738+0000005990+0000000007+I20000000000+0000005990+Z
112609001112609251-000070     112609006003000451777PROTECTION-PADS BLK ADH0000003000+00001753+00000+0001T   00001753+0000000848          1400 MM9810               2BZ
112610000112610               112610               170213BQ     1400+00000+BQ0000001051+0000001051+000000000+000000148+0000001190+0000000009+I20000000000+0000001190+Z
112610001112610079-009702-D   112610008427973059354PAPER SIRIO A2 RED COL 0000001000+00001051+00000+0001T   00001051+0000000850          1400 MM9130               2BZ
112611000112611               112611               170213BQ     1400+00000+BQ0000004385+0000004385+000000000+000000614+0000004990+0000000009+I20000000000+0000004990+Z
112611001112611082-000105     112611006003000360369READING GLS STRNGHT:1.50000001000+00004385+00000+0001T   00004385+0000000917          1400 MM9160               2BZ
112612000112612               112612               170213BQ     1400+00000+BQ0000000613+0000000613+000000000+000000086+0000000690+0000000009+I20000000000+0000000690+Z
112612001112612304-001011     112612006001023806727FLWR ROSE RED W/BEAR   0000001000+00000613+00000+0001T   00000788+0006470933          1400 MM9510               2BZ
112613000112613               112613               170213BQ     1400+00000+BQ0000015796+0000015796+000000000+000002225+0000018020+0000000001+I20000000000+0000018020+Z
112613001112613007-000723     112613006003000226078MEMO BOOK W/PEN 100SHTS0000002000+00001753+00000+0001T   00001753+0000000951          1400 MM9130               2BZ
112613002112613112-116038     112613006009681820246TCS CARRIER BAG MIDI   0000001000+00000035+00000+0001T   00000035+0000000951          1400 MM9090               2BZ
112613003112613016-006516     112613006003000351503S/JAR GLS CHECK 150ML  0000002000+00001490+00000+0001T   00001490+0000000951          1400 MM9300               2BZ
112613004112613018-000170     112613006001023775528MUG OCC. LOVE 2PC MINI 0000001000+00002192+00000+0001T   00002192+0000000951          1400 MM9515               2BZ
112613005112613080-000133-A   112613006003000647019MINI VALENTINES CARD   0000003000+00000437+00000+0001T   00000437+0000000951          1400 MM9112               2BZ
112613006112613903-000183     112613006003000451043SWT LB HEART LOLLY     0000008000+00000393+00000+0001T   00000393+0000000951          1400 MM9150               2BZ
112613007112613903-000482     112613006001704001397SWT SOFT-MINTS 60G     0000002000+00000876+00000+0001T   00000876+0000000951          1400 MM9150               2BZ
112613008112613903-000503     112613006001704006118SWT VAMPIRE FANGS 60G  0000001000+00000876+00000+0001T   00000876+0000000951          1400 MM9150               2BZ
112614000112614               112614               170213BQ     1400+00000+BQ0000003506+0000003506+000000000+000000492+0000003990+0000000008+I20000000000+0000003990+Z
112614001112614466-008889     112614006001023835376WHISTLE SPORTS+STRING  0000002000+00001753+00000+0001T   00001753+0000001000          1400 MM9785               2BZ
112615000112615               112615               170213BQ     1400+00000+BQ0000012472+0000012472+000000000+000001753+0000014225+0000000000+I40000014225+0000000000+Z
112615001112615018-000129     112615006001023403353MUG OCC. LOVE V-SHAPE  0000001000+00002630+00000+0001T   00002630+0000001033          1400 MM9515               2BZ
112615002112615112-116038     112615006009681820246TCS CARRIER BAG MIDI   0000001000+00000035+00000+0001T   00000035+0000001033          1400 MM9090               2BZ
112615003112615903-000844     112615005010478432567SWT CANDY DL LUV HEARTS0000001000+00001314+00000+0001T   00001314+0000001033          1400 MM9150               2BZ
112615004112615903-000619     112615006003000672455SWT LOLLY STR/BRRY 140G0000001000+00001753+00000+0001T   00001753+0000001033          1400 MM9150               2BZ
112615005112615903-000613     112615006003000617173SWT LIPS DUMMY 10G     0000001000+00001490+00000+0001T   00001490+0000001033          1400 MM9150               2BZ
112615006112615903-000155     112615006009803374435SWT LOLLY I LUV U HEART0000010000+00000525+00000+0001T   00000525+0000001033          1400 MM9150               2BZ
112616000112616               112616               170213BQ     1400+00000+BQ0000009208+0000009208+000000000+000001290+0000010498+0000000000+I40000010498+0000000000+Z
112616001112616486-002315     112616006001023740526WALL-CLOCK ROUND 20CM  0000001000+00007016+00000+0001T   00007016+0000001050          1400 MM9510               2BZ
112616002112616046-000012-A   112616006003000208296BATTERIES H/POWER SZ:AA0000001000+00002192+00000+0001T   00002192+0000001050          1400 MM9312               2BZ
112617000112617               112617               170213BQ     1400+00000+BQ0000001753+0000001753+000000000+000000246+0000001990+0000000009+I20000000000+0000001990+Z
112617001112617012-000001     112617006003000331048MICRO PLATE-COVER 26X6 0000001000+00001753+00000+0001T   00002192+0008191055          1400 MM9300               2BZ
112618000112618               112618               170213BQ     1400+00000+BQ0000002190+0000002190+000000000+000000307+0000002490+0000000007+I20000000000+0000002490+Z
112618001112618078-000025     112618008887013700064SUPERGLUE 3g 1PCE CARD 0000001000+00000876+00000+0001T   00000876+0000001056          1400 MM9810               2BZ
112618002112618903-004950     112618006002580020304SWT APRICOT SURPRISE   0000001000+00001314+00000+0001T   00001314+0000001056          1400 MM9150               2BZ
112619000112619               112619               170213BQ     1400+00000+BQ0000021339+0000021339+000000000+000002992+0000024331+0000000000+I40000024331+0000000000+Z
112619001112619112-116038     112619006009681820246TCS CARRIER BAG MIDI   0000001000+00000035+00000+0001T   00000035+0000001059          1400 MM9090               2BZ
112619002112619037-000004     112619006001023763679ASHTRAY PL TUB 8X11CM  0000001000+00001753+00000+0001T   00002192+0008191059          1400 MM9515               2BZ
112619003112619159-000038     112619006003000393954HOOKS HANGER S/S 2PCE  0000001000+00002630+00000+0001T   00002630+0000001059          1400 MM9200               2BZ
112619004112619036-000501     112619006003000417407HOOK HANGER CHROME     0000001000+00004385+00000+0001T   00004385+0000001059          1400 MM9212               2BZ
112619005112619159-000038     112619006003000393954HOOKS HANGER S/S 2PCE  0000001000+00002630+00000+0001T   00002630+0000001059          1400 MM9200               2BZ
112619006112619155-001304     112619006001023606488TAPE STEEL 5mx19mm     0000001000+00003507+00000+0001T   00003507+0000001059          1400 MM9840               2BZ
112619007112619200-003026     112619006003000276448REFUSE BAGS 10PCE GREEN0000001000+00001753+00000+0001T   00001753+0000001059          1400 MM9214               2BZ
112619008112619200-003024     112619006001023657299REFUSE BAGS 20PCE BLACK0000001000+00001753+00000+0001T   00001753+0000001059          1400 MM9214               2BZ
112619009112619036-000151     112619006001023810588COATHANGERS    PACK-10 0000001000+00002893+00000+0001T   00002893+0000001059          1400 MM9212               2BZ
112620000112620               112620               170213BQ     1400+00000+BQ0000007892+0000007892+000000000+000001106+0000008990+0000000008+I20000000000+0000008990+Z
112620001112620124-001300     112620006003000486861STORAGE TIN WASHING    0000001000+00006139+00000+0001T   00006139+0000001110          1400 MM9300               2BZ
112620002112620362-003009     112620006003000295647HAIR BAND SET ASSORTED 0000001000+00001753+00000+0001T   00001753+0000001110          1400 MM9160               2BZ
112621000112621               112621               170213BQ     1400+00000+BQ0000000035+0000000035+000000000+000000005+0000000040+0000000000+I20000000000+0000000040+Z
112621001112621112-116038     112621006009681820246TCS CARRIER BAG MIDI   0000001000+00000035+00000+0001T   00000035+0000001111          1400 MM9090               2BZ
112622000112622               112622               170213BQ     1400+00000+BQ0000021927+0000021927+000000000+000003071+0000024998+0000000000+I40000024998+0000000000+Z
112622001112622072-020243     112622006003000519583PET MAT QUILTED 80x58cm0000001000+00019297+00000+0001T   00019297+0000001112          1400 MM9870               2BZ
112622002112622072-020354     112622006001023649980DOG/CAT-BOWL LARGE     0000001000+00002630+00000+0001T   00002630+0000001112          1400 MM9870               2BZ
112623000112623               112623               170213BQ     1400+00000+BQ0000002192+0000002192+000000000+000000307+0000002490+0000000009+I20000000000+0000002490+Z
112623001112623567-010393     112623006002242053442GENERIC AFRIKAANS READE0000001000+00002192+00000+0001T   00002192+0000001113          1400 MM9757               2BZ
112624000112624               112624               170213BQ     1400+00000+BQ0000010961+0000010961+000000000+000001536+0000012497+0000000000+I40000012497+0000000000+Z
112624001112624306-000989     112624006003000559954FIRSTAID PLASTER 30PC  0000001000+00001753+00000+0001T   00001753+0000001119          1400 MM9200               2BZ
112624002112624566-000321     112624006003000423019STICKER R/DEC BALLERINA0000001000+00005262+00000+0001T   00005262+0000001119          1400 MM9130               2BZ
112624003112624566-000358     112624006003000582587STICKER ROOM DECOR WORD0000001000+00003946+00000+0001T   00003946+0000001119          1400 MM9130               2BZ
112625000112625               112625               170213BQ     1400+00000+BQ0000003506+0000003506+000000000+000000492+0000003990+0000000008+I20000000000+0000003990+Z
112625001112625560-000703     112625006003000332403INSECTS 9PC ASSTD      0000001000+00001753+00000+0001T   00001753+0000001134          1400 MM9745               2BZ
112625002112625079-003000     112625006003000448838A/TUBE 75ML WHITE      0000001000+00001753+00000+0001T   00001753+0000001134          1400 MM9130               2BZ
112626000112626               112626               170213BQ     1400+00000+BQ0000003506+0000003506+000000000+000000492+0000003990+0000000008+I20000000000+0000003990+Z
112626001112626071-005669     112626006003000153268STAPLER MINI W/STAPLES 0000001000+00002630+00000+0001T   00002630+0000001140          1400 MM9130               2BZ
112626002112626007-000045     112626006009608640438DISPLAY-POCKETS A4 10PC0000001000+00000876+00000+0001T   00000876+0000001140          1400 MM9130               2BZ
112627000112627               112627               170213BQ     1400+00000+BQ0000004207+0000004207+000000000+000000589+0000004790+0000000006+I20000000000+0000004790+Z
112627001112627564-000012     112627006001023130075BUBBLE BOTTLE MAGIC    0000001000+00000700+00000+0001T   00000700+0000001147          1400 MM9131               2BZ
112627002112627263-000154     112627006001023790385VEHICLE CAR DUNE 3PC   0000001000+00003507+00000+0001T   00003507+0000001147          1400 MM9710               2BZ
112628000112628               112628               170213BQ     1400+00000+BQ0000004385+0000004385+000000000+000000614+0000004999+0000000000+I40000004999+0000000000+Z
112628001112628082-007586     112628006003000654291SUNGLASS DESIGNER ASST 0000001000+00004385+00000+0001T   00004385+0000001157          1400 MM9160               2BZ
112629000112629               112629               170213BQ     1400+00000+BQ0000002630+0000002630+000000000+000000369+0000002999+0000000000+I40000002999+0000000000+Z
112629001112629056-065302     112629006001023759566CAR SUN-SHIELD ALM-FOIL0000001000+00002630+00000+0001T   00002630+0000001159          1400 MM9860               2BZ
112630000112630               112630               170213BQ     1400+00000+BQ0000006187+0000006187+000000000+000000867+0000007050+0000000004+I20000000000+0000007050+Z
112630001112630486-000010     112630006001023544254WALL-CLOCK ROUND 25cm  0000001000+00006139+00000+0001T   00006139+0000001202          1400 MM9510               2BZ
112630002112630112-116069     112630006009681820277TCS CARRIER BAG JUMBO  0000001000+00000048+00000+0001T   00000048+0000001202          1400 MM9090               2BZ
112631000112631               112631               170213BQ     1400+00000+BQ0000007012+0000007012+000000000+000000984+0000007996+0000000000+I40000007996+0000000000+Z
112631001112631031-006534     112631006001023995896P/FRAME AUTO 10x15cm   0000001000+00001753+00000+0001T   00001753+0000001204          1400 MM9510               2BZ
112631002112631264-000921     112631000090159150442MAISTO CAR 3" FRESH    0000003000+00001753+00000+0001T   00001753+0000001204          1400 MM9710               2BZ
112632000112632               112632               170213BQ     1400+00000+BQ0000102698+0000102698+000000000+000014382+0000117080+0000000000+I40000117080+0000000000+Z
112632001112632112-116038     112632006009681820246TCS CARRIER BAG MIDI   0000001000+00000035+00000+0001T   00000035+0000001214          1400 MM9090               2BZ
112632002112632024-000118     112632006001023422316N/STICK C/PAN HEART    0000003000+00004385+00000+0001T   00004385+0000001214          1400 MM9300               2BZ
112632003112632024-000165-B   112632006003000674190N/STICK ROUND PIE PAN  0000006000+00005262+00000+0001T   00005262+0000001214          1400 MM9300               2BZ
112632004112632024-000107     112632006001023422071MUFFIN-PAN 12-CUP      0000005000+00009648+00000+0001T   00009648+0000001214          1400 MM9300               2BZ
112632005112632112-116069     112632006009681820277TCS CARRIER BAG JUMBO  0000001000+00000048+00000+0001T   00000048+0000001214          1400 MM9090               2BZ
112632006112632024-000107     112632006001023422071MUFFIN-PAN 12-CUP      0000001000+00009648+00000+0001T   00009648+0000001214          1400 MM9300               2BZ
112633000112633               112633               170213BQ     1400+00000+BQ0000003944+0000003944+000000000+000000553+0000004490+0000000007+I20000000000+0000004490+Z
112633001112633566-000451     112633000721129023472STICKERS GLITTER ASSTD 0000001000+00001314+00000+0001T   00001753+0008151216          1400 MM9130               2BZ
112633002112633566-000203     112633006003000443925STCKRS VELVET PUFFY ASS0000001000+00002630+00000+0001T   00002630+0000001216          1400 MM9130               2BZ
112634000112634               112634               170213BQ     1400+00000+BQ0000005644+0000005644+000000000+000000792+0000006436+0000000000+I40000006436+0000000000+Z
112634001112634002-012271     112634006001023849120TONGS 23cm RUBBER-GRIP 0000001000+00003507+00000+0001T   00003507+0000001217          1400 MM9300               2BZ
112634002112634039-000024     112634006003000286300C/TAPERED 25CM M/WHITE 0000002000+00001051+00000+0001T   00001051+0000001217          1400 MM9510               2BZ
112634003112634112-116038     112634006009681820246TCS CARRIER BAG MIDI   0000001000+00000035+00000+0001T   00000035+0000001217          1400 MM9090               2BZ
112635000112635               112635               170213BQ     1400+00000+BQ0000003507+0000003507+000000000+000000491+0000003990+0000000008+I20000000000+0000003990+Z
112635001112635018-005009     112635006001023725608MUG W/PLUSH-BEAR LOVE  0000001000+00003507+00000+0001T   00003507+0000001217          1400 MM9515               2BZ
112636000112636               112636               170213BQ     1400+00000+BQ0000007013+0000007013+000000000+000000983+0000007996+0000000000+I40000007996+0000000000+Z
112636001112636089-060027     112636006003000245871KEY-CHAIN HEART 6X6cm  0000001000+00003069+00000+0001T   00003069+0000001219          1400 MM9205               2BZ
112636002112636204-000004     112636006003000416318MEMO HOLDERS ASSTD 7PCE0000001000+00002630+00000+0001T   00002630+0000001219          1400 MM9300               2BZ
112636003112636089-000098     112636006003000677443KEY CHAIN OPENER ASSTD 0000001000+00001314+00000+0001T   00001314+0000001219          1400 MM9205               2BZ
112637000112637               112637               170213BQ     1400+00000+BQ0000005378+0000005378+000000000+000000756+0000006134+0000000000+I40000006134+0000000000+Z
112637001112637903-000710     112637006002099007056SWT REFRESHERS MINT    0000001000+00001139+00000+0001T   00001139+0000001221          1400 MM9150               2BZ
112637002112637089-000099     112637006003000677566KEY CHAIN MTL SPORT AST0000001000+00000876+00000+0001T   00000876+0000001221          1400 MM9205               2BZ
112637003112637204-000020     112637006003000573264MEMO HOLDER WINE BOTTLS0000001000+00001578+00000+0001T   00001578+0000001221          1400 MM9300               2BZ
112637004112637083-000049     112637004891035200024CIG-LIGHTER DISPOSABLE 0000002000+00000437+00000+0001T   00000437+0000001221          1400 MM9315               2BZ
112637005112637204-000019     112637006003000677474MEMO HOLDERS THERMOMETE0000001000+00000876+00000+0001T   00000876+0000001221          1400 MM9300               2BZ
112637006112637112-116038     112637006009681820246TCS CARRIER BAG MIDI   0000001000+00000035+00000+0001T   00000035+0000001221          1400 MM9090               2BZ
112638000112638               112638               170213BQ     1400+00000+BQ0000010961+0000010961+000000000+000001536+0000012490+0000000007+I20000000000+0000012490+Z
112638001112638206-000250     112638006003000632060PEELER POTATOE-MAN     0000001000+00002630+00000+0001T   00002630+0000001222          1400 MM9321               2BZ
112638002112638030-004025     112638006003000416912WALL DEC KEY-RACK      0000001000+00006139+00000+0001T   00006139+0000001222          1400 MM9505               2BZ
112638003112638077-000914     112638006003000413454G/WRAP 700mmx2m ANIMAL 0000001000+00002192+00000+0001T   00002192+0000001222          1400 MM9112               2BZ
112639000112639               112639               170213BQ     1400+00000+BQ0000004383+0000004383+000000000+000000615+0000004998+0000000000+I40000004998+0000000000+Z
112639001112639024-007000-B   112639006002580008487BISCUIT-BARREL ASSORTED0000001000+00001753+00000+0001T   00001753+0000001224          1400 MM9300               2BZ
112639002112639306-001125-A   112639006003000359127FIRSTAID SUPPORT KNEE  0000001000+00002630+00000+0001T   00002630+0000001224          1400 MM9200               2BZ
112640000112640               112640               170213BQ     1400+00000+BQ0000002192+0000002192+000000000+000000307+0000002490+0000000009+I20000000000+0000002490+Z
112640001112640301-006010     112640006001023861245ORN BEAR POLY W/JERSEY 0000001000+00002192+00000+0001T   00002192+0000001224          1400 MM9505               2BZ
112641000112641               112641               170213BQ     1400+00000+BQ0000009643+0000009643+000000000+000001353+0000010996+0000000000+I40000010996+0000000000+Z
112641001112641079-013105     112641006001023863997ART+CRAFT DIY HAND PUPP0000003000+00002630+00000+0001T   00002630+0000001230          1400 MM9130               2BZ
112641002112641079-013114     112641006003000068418DIY FINGER PUPPETS FELT0000001000+00001753+00000+0001T   00001753+0000001230          1400 MM9130               2BZ
112642000112642               112642               170213BQ     1400+00000+BQ0000011837+0000011837+000000000+000001677+0000013514+0000000000+I40000013514+0000000000+Z
112642001112642903-000183     112642006003000451043SWT LB HEART LOLLY     0000020000+00000393+00000+0001T   00000393+0000001234          1400 MM9150               2BZ
112642002112642112-116038     112642006009681820246TCS CARRIER BAG MIDI   0000001000+00000035+00000+0001T   00000035+0000001234          1400 MM90901IC            2BZ
112642003112642903-000194     112642006009826020616SWT CHOC RP LOLLY 25G  0000003000+00001314+00000+0001T   00001314+0000001234          1400 MM9150               2BZ
112643000112643               112643               170213BQ     1400+00000+BQ0000007487+0000007487+000000000+000001050+0000008530+0000000007+I20000000000+0000008530+Z
112643001112643112-116038     112643006009681820246TCS CARRIER BAG MIDI   0000001000+00000035+00000+0001T   00000035+0000001236          1400 MM9090               2BZ
112643002112643301-085008     112643006003000673933ORN OCC.LOVE TINSEL HRT0000001000+00003069+00000+0001T   00003069+0000001236          1400 MM9505               2BZ
112643003112643006-000804     112643006003000574445STREAMERS 6-ROLLS 2.5cm0000001000+00001753+00000+0001T   00001753+0000001236          1400 MM9131               2BZ
112643004112643006-000111     112643006003000519385BALLOONS LARGE 12PCE   0000001000+00002630+00000+0001T   00002630+0000001236          1400 MM9131               2BZ
112644000112644               112644               170213BQ     1400+00000+BQ0000001753+0000001753+000000000+000000246+0000001990+0000000009+I20000000000+0000001990+Z
112644001112644563-000318-F   112644006003000404247SERVIETTES 33cm ORANGE 0000001000+00001753+00000+0001T   00001753+0000001259          1400 MM9214               2BZ
112645000112645               112645               170213BQ     1400+00000+BQ0000008771+0000008771+000000000+000001228+0000009990+0000000009+I20000000000+0000009990+Z
112645001112645031-086302-C   112645006001023910332P/FRAME COLL. PL 3-HOLE0000001000+00008771+00000+0001T   00008771+0000001303          1400 MM9510               2BZ
112646000112646               112646               170213BQ     1400+00000+BQ0000013156+0000013156+000000000+000001842+0000014998+0000000000+I40000014998+0000000000+Z
112646001112646001-091415     112646006003000329113W/GLS OCC. LOVE 2PC 2800000001000+00008771+00000+0001T   00009648+0006471306          1400 MM9515               2BZ
112646002112646001-000175     112646006001023788108B/MUG GLS LOVE 380ML   0000001000+00004385+00000+0001T   00004385+0000001306          1400 MM9515               2BZ
112647000112647               112647               170213BQ     1400+00000+BQ0000010083+0000010083+000000000+000001413+0000011496+0000000000+I40000011496+0000000000+Z
112647001112647002-000117     112647006001023110879EGG POACHERS 2PC       0000002000+00003069+00000+0001T   00003069+0000001331          1400 MM9300               2BZ
112647002112647159-000887     112647006001023730817HOOKS PL SUCTION 9PCE  0000001000+00002192+00000+0001T   00002192+0000001331          1400 MM9200               2BZ
112647003112647903-000211     112647006002099001238SWT GS MALLOW ICE CREAM0000001000+00001753+00000+0001T   00001753+0000001331          1400 MM9150               2BZ
112648000112648               112648               170213BQ     1400+00000+BQ0000001313+0000001313+000000000+000000185+0000001490+0000000008+I20000000000+0000001490+Z
112648001112648080-000133-A   112648006003000647019MINI VALENTINES CARD   0000001000+00000437+00000+0001T   00000437+0000001332          1400 MM9112               2BZ
112648002112648077-000408     112648006003000145218G/BAG PP 15X21X7CM     0000001000+00000876+00000+0001T   00000876+0000001332          1400 MM9112               2BZ
112649000112649               112649               170213BQ     1400+00000+BQ0000007102+0000007102+000000000+000000995+0000008097+0000000000+I40000008097+0000000000+Z
112649001112649903-000087     112649006001704000161SWT SPECKLED-EGGS 50G  0000001000+00001139+00000+0001T   00001139+0000001336          1400 MM9150               2BZ
112649002112649030-000031-A   112649006003000457588PLAQUE W/WORDS ASSTD   0000001000+00004385+00000+0001T   00004823+0006471336          1400 MM9505               2BZ
112649003112649077-000303     112649006001023593757GIFT-BAG PAPER MED     0000001000+00001578+00000+0001T   00001578+0000001336          1400 MM9112               2BZ
112650000112650               112650               170213BQ     1400+00000+BQ0000007099+0000007099+000000000+000000995+0000008094+0000000000+I40000008094+0000000000+Z
112650001112650077-000303     112650006001023593757GIFT-BAG PAPER MED     0000001000+00001578+00000+0001T   00001578+0000001338          1400 MM9112               2BZ
112650002112650077-000312     112650006001023608697GIFT-BAG 10X35CM GLOSS 0000001000+00001314+00000+0001T   00001314+0000001338          1400 MM9112               2BZ
112650003112650077-000011-D   112650006001023808554TISSUE-WRAP WHITE 10PCE0000001000+00000876+00000+0001T   00000876+0000001338          1400 MM9112               2BZ
112650004112650089-000027     112650006003000254071KEY CHAIN MOM/DAD ASSTD0000001000+00001753+00000+0001T   00001753+0000001338          1400 MM9205               2BZ
112650005112650018-000127     112650006001023380289MUG OCC STRAIGHT LOVE  0000001000+00001578+00000+0001T   00001753+0006471338          1400 MM9515               2BZ
112651000112651               112651               170213BQ     1400+00000+BQ0000020815+0000020815+000000000+000002917+0000023732+0000000000+I40000023732+0000000000+Z
112651001112651006-000191-2   112651006003000685899BALLOONS SILVER NR 2   0000002000+00002630+00000+0001T   00002630+0000001350          1400 MM9131               2BZ
112651002112651566-000317     112651006003000524204STICKER TAPE 2PCS      0000001000+00003507+00000+0001T   00003507+0000001350          1400 MM9130               2BZ
112651003112651028-000796     112651006001023812094SKEWERS 25cm 50PCE 4mm 0000001000+00001490+00000+0001T   00001490+0000001350          1400 MM9305               2BZ
112651004112651002-220004     112651006001023467614F/COVER HEXAGONAL 70cm 0000001000+00003069+00000+0001T   00003069+0000001350          1400 MM9300               2BZ
112651005112651002-220006     112651006001023670342FOOD COVER 43CM ASSTD  0000001000+00003069+00000+0001T   00003069+0000001350          1400 MM9300               2BZ
112651006112651112-116038     112651006009681820246TCS CARRIER BAG MIDI   0000001000+00000035+00000+0001T   00000035+0000001350          1400 MM9090               2BZ
112651007112651366-000401     112651006003000242047DRESS UP PRINCESS SET  0000001000+00004385+00000+0001T   00004385+0000001350          1400 MM9131               2BZ
112652000112652               112652               170213BQ     1400+00000+BQ0000001753+0000001753+000000000+000000246+0000001990+0000000009+I20000000000+0000001990+Z
112652001112652006-000120     112652006001023346889BALLOONS 10PC MIX COL  0000001000+00001753+00000+0001T   00001753+0000001351          1400 MM9131               2BZ
112653000112653               112653               170213BQ     1400+00000+BQ0000002310+0000002310+000000000+000000325+0000002630+0000000005+I20000000000+0000002630+Z
112653001112653007-000145     112653006009635833087BK EXERCISE 72PG A4    0000003000+00000525+00000+0001T   00000525+0000001355          1400 MM9130               2BZ
112653002112653112-116038     112653006009681820246TCS CARRIER BAG MIDI   0000001000+00000035+00000+0001T   00000035+0000001355          1400 MM9090               2BZ
112653003112653903-000159     112653006003000417629SWT LB SMALL DUMMIE    0000002000+00000350+00000+0001T   00000350+0000001355          1400 MM9150               2BZ
112654000112654               112654               170213BQ     1400+00000+BQ0000006697+0000006697+000000000+000000939+0000007630+0000000006+I20000000000+0000007630+Z
112654001112654112-116038     112654006009681820246TCS CARRIER BAG MIDI   0000001000+00000035+00000+0001T   00000035+0000001357          1400 MM9090               2BZ
112654002112654903-000155     112654006009803374435SWT LOLLY I LUV U HEART0000001000+00000525+00000+0001T   00000525+0000001357          1400 MM9150               2BZ
112654003112654089-000006     112654006003000094929KEY CHAIN HAND-BAG MTL 0000001000+00003507+00000+0001T   00003507+0000001357          1400 MM9205               2BZ
112654004112654204-000015     112654006001023998859M/HLDER DOG & CAT POLY 0000001000+00002630+00000+0001T   00002630+0000001357          1400 MM9300               2BZ
112655000112655               112655               170213BQ     1400+00000+BQ0000001753+0000001753+000000000+000000246+0000001990+0000000009+I20000000000+0000001990+Z
112655001112655046-002032-PK2 112655004897006175063BATTERIES CR-2032  2PCE0000001000+00001753+00000+0001T   00001753+0000001407          1400 MM9312               2BZ
112656000112656               112656               170213BQ     1400+00000+BQ0000003856+0000003856+000000000+000000541+0000004390+0000000007+I20000000000+0000004390+Z
112656001112656903-000494     112656006001704009911SWT GUMMY TEENY TEDDIES0000002000+00000876+00000+0001T   00000876+0000001407          1400 MM9150               2BZ
112656002112656903-000095     112656006001704011495SWT SPECKLED-EGGS 100G 0000001000+00002104+00000+0001T   00002104+0000001407          1400 MM9150               2BZ
112657000112657               112657               170213BQ     1400+00000+BQ0000003625+0000003625+000000000+000000511+0000004130+0000000006+I20000000000+0000004130+Z
112657001112657112-116038     112657006009681820246TCS CARRIER BAG MIDI   0000001000+00000035+00000+0001T   00000035+0000001412          1400 MM9090               2BZ
112657002112657903-000183     112657006003000451043SWT LB HEART LOLLY     0000002000+00000393+00000+0001T   00000393+0000001412          1400 MM9150               2BZ
112657003112657301-085002     112657006003000420704ORN OCC. LOVE BELL ASST0000001000+00001753+00000+0001T   00002630+0008121412          1400 MM9505               2BZ
112657004112657903-002850     112657000000087108262MENTOS ROLL FRUIT      0000001000+00001051+00000+0001T   00001051+0000001412          1400 MM9150               2BZ
112658000112658               112658               170213BQ     1400+00000+BQ0000001753+0000001753+000000000+000000246+0000001990+0000000009+I20000000000+0000001990+Z
112658001112658200-003024     112658006001023657299REFUSE BAGS 20PCE BLACK0000001000+00001753+00000+0001T   00001753+0000001421          1400 MM9214               2BZ
112659000112659               112659               170213BQ     1400+00000+BQ0000005262+0000005262+000000000+000000737+0000005999+0000000000+I40000005999+0000000000+Z
112659001112659263-000623     112659006001023905697VEHICLE HELICOPTER 30cm0000001000+00005262+00000+0001T   00005262+0000001422          1400 MM9710               2BZ
112660000112660               112660               170213BQ     1400+00000+BQ0000004432+0000004432+000000000+000000621+0000005050+0000000003+I20000000000+0000005050+Z
112660001112660112-116069     112660006009681820277TCS CARRIER BAG JUMBO  0000001000+00000048+00000+0001T   00000048+0000001423          1400 MM9090               2BZ
112660002112660080-000127     112660006003000424351VALENTINES DAY 36x24CM 0000002000+00002192+00000+0001T   00002192+0000001423          1400 MM9112               2BZ
112661000112661               112661               170213BQ     1400+00000+BQ0000007893+0000007893+000000000+000001106+0000008990+0000000009+I20000000000+0000008990+Z
112661001112661071-002884     112661006003000639229CALCULATOR 12 DIGIT    0000001000+00007893+00000+0001T   00007893+0000001425          1400 MM9130               2BZ
112662000112662               112662               170213BQ     1400+00000+BQ0000003023+0000003023+000000000+000000425+0000003440+0000000008+I20000000000+0000003440+Z
112662001112662018-000129     112662006001023403353MUG OCC. LOVE V-SHAPE  0000001000+00002630+00000+0001T   00002630+0000001430          1400 MM9515               2BZ
112662002112662903-000183     112662006003000451043SWT LB HEART LOLLY     0000001000+00000393+00000+0001T   00000393+0000001430          1400 MM9150               2BZ
112663000112663               112663               170213BQ     1400+00000+BQ0000000735+0000000735+000000000+000000103+0000000830+0000000008+I20000000000+0000000830+Z
112663001112663903-000120     112663006002099001665SWEET GS ZILLIONS 50g  0000001000+00000700+00000+0001T   00000700+0000001431          1400 MM9150               2BZ
112663002112663112-116038     112663006009681820246TCS CARRIER BAG MIDI   0000001000+00000035+00000+0001T   00000035+0000001431          1400 MM9090               2BZ
112664000112664               112664               170213BQ     1400+00000+BQ0000018764+0000018764+000000000+000002629+0000021390+0000000003+I20000000000+0000021390+Z
112664001112664304-001011     112664006001023806727FLWR ROSE RED W/BEAR   0000001000+00000613+00000+0001T   00000788+0006471440          1400 MM9510               2BZ
112664002112664018-050000     112664006003000412679MUG OCC LOVE TWIN BEAR 0000001000+00006139+00000+0001T   00006139+0000001440          1400 MM9515               2BZ
112664003112664204-000007     112664006003000427062M/HOLDER MAGN POLY LOVE0000001000+00002630+00000+0001T   00003507+0008131440          1400 MM9300               2BZ
112664004112664162-010771     112664006001492107714#TAG LDS SETS ASST     0000001000+00004385+00000+0001T   00004385+0000001440          1400 MM9160               2BZ
112664005112664077-000299     112664006003000395576G/BAG 32x25cm LRG LOVE 0000001000+00001490+00000+0001T   00001490+0000001440          1400 MM9112               2BZ
112664006112664031-000872-B   112664006001023798749P/FRAME PL BRONZA 13X180000001000+00003507+00000+0001T   00003507+0000001440          1400 MM9510               2BZ
112665000112665               112665               170213BQ     1400+00000+BQ0000002630+0000002630+000000000+000000369+0000002990+0000000009+I20000000000+0000002990+Z
112665001112665306-001805     112665006003000275908HAND SANITIZER 2PCE    0000001000+00002630+00000+0001T   00002630+0000001441          1400 MM9200               2BZ
112666000112666               112666               170213BQ     1400+00000+BQ0000002630+0000002630+000000000+000000369+0000002999+0000000000+I40000002999+0000000000+Z
112666001112666162-092928     112666006001492929286#TAG BLK&GOLD BANGLE   0000001000+00002630+00000+0001T   00005262+0008161442          1400 MM9160               2BZ
112667000112667               112667               170213BQ     1400+00000+BQ0000009207+0000009207+000000000+000001290+0000010497+0000000000+I40000010497+0000000000+Z
112667001112667018-000129     112667006001023403353MUG OCC. LOVE V-SHAPE  0000001000+00002630+00000+0001T   00002630+0000001444          1400 MM9515               2BZ
112667002112667031-080508     112667006001023802415P/FRAME PL 22X11CM LOVE0000001000+00004385+00000+0001T   00004385+0000001444          1400 MM9510               2BZ
112667003112667077-000309-A   112667006003000671007GIFT-BAG HOLOGRAM JMB  0000001000+00002192+00000+0001T   00002192+0000001444          1400 MM9112               2BZ
112668000112668               112668               170213BQ     1400+00000+BQ0000015785+0000015785+000000000+000002211+0000017996+0000000000+I40000017996+0000000000+Z
112668001112668077-000270     112668006003000395453GIFT-BAG PPR JMB 33X45 0000001000+00002630+00000+0001T   00002630+0000001447          1400 MM9112               2BZ
112668002112668368-000049     112668006003000536955PLUSH BEAR 15cm LOVE   0000001000+00004385+00000+0001T   00004385+0000001447          1400 MM9745               2BZ
112668003112668030-000031-A   112668006003000457588PLAQUE W/WORDS ASSTD   0000001000+00004385+00000+0001T   00004823+0006471447          1400 MM9505               2BZ
112668004112668031-080508     112668006001023802415P/FRAME PL 22X11CM LOVE0000001000+00004385+00000+0001T   00004385+0000001447          1400 MM9510               2BZ
112669000112669               112669               170213BQ     1400+00000+BQ0000008155+0000008155+000000000+000001143+0000009290+0000000008+I20000000000+0000009290+Z
112669001112669016-006511     112669006003000673995S/JAR GLS CHALK W/LID  0000001000+00007016+00000+0001T   00007016+0000001447          1400 MM9300               2BZ
112669002112669903-000087     112669006001704000161SWT SPECKLED-EGGS 50G  0000001000+00001139+00000+0001T   00001139+0000001447          1400 MM9150               2BZ
112670000112670               112670               170213BQ     1400+00000+BQ0000000613+0000000613+000000000+000000086+0000000690+0000000009+I20000000000+0000000690+Z
112670001112670903-000848     112670008692806080076SWT SNACK BISCUIT 70g  0000001000+00000613+00000+0001T   00000613+0000001453          1400 MM9150               2BZ
112671000112671               112671               170213BQ     1400+00000+BQ0000017661+0000017661+000000000+000002474+0000020135+0000000000+I40000020135+0000000000+Z
112671001112671080-000139     112671006003000611690CARD & ENV MINI SET 6PC0000001000+00002192+00000+0001T   00002192+0000001457          1400 MM9112               2BZ
112671002112671077-000303     112671006001023593757GIFT-BAG PAPER MED     0000002000+00001578+00000+0001T   00001578+0000001457          1400 MM9112               2BZ
112671003112671368-000175     112671006003000270316PLUSH BEAR 4 ASSTD 18CM0000002000+00006139+00000+0001T   00006139+0000001457          1400 MM9745               2BZ
112671004112671112-116038     112671006009681820246TCS CARRIER BAG MIDI   0000001000+00000035+00000+0001T   00000035+0000001457          1400 MM9090               2BZ
112672000112672               112672               170213BQ     1400+00000+BQ0000000613+0000000613+000000000+000000086+0000000699+0000000000+I40000000699+0000000000+Z
112672001112672903-000849     112672008692806080083SWT SNACK BISCUIT 70g  0000001000+00000613+00000+0001T   00000613+0000001459          1400 MM9150               2BZ
112673000112673               112673               170213BQ     1400+00000+BQ0000004908+0000004908+000000000+000000688+0000005590+0000000006+I20000000000+0000005590+Z
112673001112673018-000127     112673006001023380289MUG OCC STRAIGHT LOVE  0000002000+00001578+00000+0001T   00001753+0006471502          1400 MM9515               2BZ
112673002112673903-000897     112673008692806325207SWT CHOC DBL MINI ROLL 0000002000+00000876+00000+0001T   00000876+0000001502          1400 MM9150               2BZ
112674000112674               112674               170213BQ     1400+00000+BQ0000016526+0000016526+000000000+000002318+0000018844+0000000000+I40000018844+0000000000+Z
112674001112674018-005009     112674006001023725608MUG W/PLUSH-BEAR LOVE  0000001000+00003507+00000+0001T   00003507+0000001509          1400 MM9515               2BZ
112674002112674031-086302-C   112674006001023910332P/FRAME COLL. PL 3-HOLE0000001000+00008771+00000+0001T   00008771+0000001509          1400 MM9510               2BZ
112674003112674903-000155     112674006009803374435SWT LOLLY I LUV U HEART0000008000+00000525+00000+0001T   00000525+0000001509          1400 MM9150               2BZ
112674004112674112-116069     112674006009681820277TCS CARRIER BAG JUMBO  0000001000+00000048+00000+0001T   00000048+0000001509          1400 MM9090               2BZ
112675000112675               112675               170213BQ     1400+00000+BQ0000004822+0000004822+000000000+000000676+0000005490+0000000008+I20000000000+0000005490+Z
112675001112675204-000007     112675006003000427062M/HOLDER MAGN POLY LOVE0000001000+00002630+00000+0001T   00003507+0008131510          1400 MM9300               2BZ
112675002112675080-000127     112675006003000424351VALENTINES DAY 36x24CM 0000001000+00002192+00000+0001T   00002192+0000001510          1400 MM9112               2BZ
112676000112676               112676               170213BQ     1400+00000+BQ0000003542+0000003542+000000000+000000496+0000004030+0000000008+I20000000000+0000004030+Z
112676001112676301-085004     112676006003000420469ORN LOVE PLAQUE 21X10CM0000001000+00003507+00000+0001T   00003946+0006471511          1400 MM9505               2BZ
112676002112676112-116038     112676006009681820246TCS CARRIER BAG MIDI   0000001000+00000035+00000+0001T   00000035+0000001511          1400 MM9090               2BZ
112677000112677               112677               170213BQ     1400+00000+BQ0000011658+0000011658+000000000+000001635+0000013293+0000000000+I40000013293+0000000000+Z
112677001112677565-000040     112677006008766115635NOVELTY ICON BEANIE    0000001000+00002630+00000+0001T   00002630+0000001514          1400 MM9745               2BZ
112677002112677301-085006     112677006001023502940ORN LOVE MSG TUBE W/HRT0000001000+00001753+00000+0001T   00001753+0000001514          1400 MM9505               2BZ
112677003112677077-000303     112677006001023593757GIFT-BAG PAPER MED     0000001000+00001578+00000+0001T   00001578+0000001514          1400 MM9112               2BZ
112677004112677108-003023     112677006003000665471TUMBLER W/STRAW 550ml  0000001000+00002630+00000+0001T   00002630+0000001514          1400 MM9210               2BZ
112677005112677903-000843     112677008693029031067SWT GUMMY JELAXY 80G   0000001000+00000964+00000+0001T   00000964+0000001514          1400 MM9150               2BZ
112677006112677903-000155     112677006009803374435SWT LOLLY I LUV U HEART0000001000+00000525+00000+0001T   00000525+0000001514          1400 MM9150               2BZ
112677007112677077-000303     112677006001023593757GIFT-BAG PAPER MED     0000001000+00001578+00000+0001T   00001578+0000001514          1400 MM9112               2BZ
112678000112678               112678               170213BQ     1400+00000+BQ0000013505+0000013505+000000000+000001892+0000015397+0000000000+I40000015397+0000000000+Z
112678001112678368-000637     112678006001023874092PLUSH BEAR SLEEPING LOV0000001000+00011402+00000+0001T   00012279+0006471515          1400 MM9745               2BZ
112678002112678903-000220     112678006001704007368SWT JELLY BEANS 60G    0000001000+00000876+00000+0001T   00000876+0000001515          1400 MM9150               2BZ
112678003112678903-000498     112678006001704013048SWT CHOC MIGHTY MALTS  0000001000+00001227+00000+0001T   00001227+0000001515          1400 MM9150               2BZ
112679000112679               112679               170213BQ     1400+00000+BQ0000009032+0000009032+000000000+000001265+0000010297+0000000000+I40000010297+0000000000+Z
112679001112679089-060027     112679006003000245871KEY-CHAIN HEART 6X6cm  0000001000+00003069+00000+0001T   00003069+0000001519          1400 MM9205               2BZ
112679002112679018-000127     112679006001023380289MUG OCC STRAIGHT LOVE  0000001000+00001578+00000+0001T   00001753+0006471519          1400 MM9515               2BZ
112679003112679368-000049     112679006003000536955PLUSH BEAR 15cm LOVE   0000001000+00004385+00000+0001T   00004385+0000001519          1400 MM9745               2BZ
112680000112680               112680               170213BQ     1400+00000+BQ0000000035+0000000035+000000000+000000005+0000000040+0000000000+I20000000000+0000000040+Z
112680001112680112-116038     112680006009681820246TCS CARRIER BAG MIDI   0000001000+00000035+00000+0001T   00000035+0000001520          1400 MM9090               2BZ
112681000112681               112681               170213BQ     1400+00000+BQ0000004940+0000004940+000000000+000000695+0000005635+0000000000+I40000005635+0000000000+Z
112681001112681080-000133-A   112681006003000647019MINI VALENTINES CARD   0000002000+00000437+00000+0001T   00000437+0000001522          1400 MM9112               2BZ
112681002112681903-000087     112681006001704000161SWT SPECKLED-EGGS 50G  0000001000+00001139+00000+0001T   00001139+0000001522          1400 MM9150               2BZ
112681003112681903-000709     112681006002099007070SWT QUENCHERS FRUIT    0000001000+00001139+00000+0001T   00001139+0000001522          1400 MM9150               2BZ
112681004112681563-000317-K   112681006003000697885SERVIETTE 2PLY 33cm    0000001000+00001753+00000+0001T   00001753+0000001522          1400 MM9214               2BZ
112681005112681112-116038     112681006009681820246TCS CARRIER BAG MIDI   0000001000+00000035+00000+0001T   00000035+0000001522          1400 MM9090               2BZ
112682000112682               112682               170213BQ     1400+00000+BQ0000015026+0000015026+000000000+000002114+0000017140+0000000000+I40000017140+0000000000+Z
112682001112682112-116069     112682006009681820277TCS CARRIER BAG JUMBO  0000001000+00000048+00000+0001T   00000048+0000001524          1400 MM9090               2BZ
112682002112682036-000151     112682006001023810588COATHANGERS    PACK-10 0000001000+00002893+00000+0001T   00002893+0000001524          1400 MM9212               2BZ
112682003112682362-004000     112682000613153000225DISNEY T/BELL TRINKETS 0000001000+00000700+00000+0001T   00000876+0008181524          1400 MM9160               2BZ
112682004112682033-000013     112682006001023567215PILL-REMINDER PL       0000001000+00001227+00000+0001T   00001227+0000001524          1400 MM9200               2BZ
112682005112682030-000030-A   112682006003000249305PLAQUE GLASS LOVE      0000001000+00003069+00000+0001T   00003069+0000001524          1400 MM9505               2BZ
112682006112682566-000031     112682006003000283910STICKER BK TEACHER STIC0000001000+00002192+00000+0001T   00002192+0000001524          1400 MM9130               2BZ
112682007112682566-000007     112682006001023761187S/BOOK SUPER VALUE     0000001000+00001753+00000+0001T   00001753+0000001524          1400 MM9130               2BZ
112682008112682903-000183     112682006003000451043SWT LB HEART LOLLY     0000008000+00000393+00000+0001T   00000393+0000001524          1400 MM9150               2BZ
112683000112683               112683               170213BQ     1400+00000+BQ0000000876+0000000876+000000000+000000123+0000000990+0000000009+I20000000000+0000000990+Z
112683001112683089-000192-A   112683006001023901774KEY-CHAIN ACRYLIC      0000001000+00000876+00000+0001T   00000876+0000001525          1400 MM9205               2BZ
112684000112684               112684               170213BQ     1400+00000+BQ0000002059+0000002059+000000000+000000289+0000002340+0000000008+I20000000000+0000002340+Z
112684001112684566-000007     112684006001023761187S/BOOK SUPER VALUE     0000001000+00001753+00000+0001T   00001753+0000001528          1400 MM9130               2BZ
112684002112684007-000123     112684006003000533879BOOK COVER 450mmx1.5m  0000001000+00000306+00000+0001T   00000306+0000001528          1400 MM9130               2BZ
112685000112685               112685               170213BQ     1400+00000+BQ0000012833+0000012833+000000000+000001803+0000014636+0000000000+I40000014636+0000000000+Z
112685001112685016-006425     112685006001023998170S/JAR GLS CLIP W/RIBBON0000001000+00002630+00000+0001T   00002630+0000001534          1400 MM9300               2BZ
112685002112685077-000315     112685006003000181186GIFT-BAG 20x28cm MATT  0000001000+00001578+00000+0001T   00001578+0000001534          1400 MM9112               2BZ
112685003112685903-000155     112685006009803374435SWT LOLLY I LUV U HEART0000004000+00000525+00000+0001T   00000525+0000001534          1400 MM9150               2BZ
112685004112685903-000844     112685005010478432567SWT CANDY DL LUV HEARTS0000001000+00001314+00000+0001T   00001314+0000001534          1400 MM9150               2BZ
112685005112685903-000123     112685006925925909280SWEET GS MINI MALLOWS  0000001000+00000876+00000+0001T   00000876+0000001534          1400 MM9150               2BZ
112685006112685903-000155     112685006009803374435SWT LOLLY I LUV U HEART0000001000+00000525+00000+0001T   00000525+0000001534          1400 MM9150               2BZ
112685007112685903-000183     112685006003000451043SWT LB HEART LOLLY     0000001000+00000393+00000+0001T   00000393+0000001534          1400 MM9150               2BZ
112685008112685903-000087     112685006001704000161SWT SPECKLED-EGGS 50G  0000003000+00001139+00000+0001T   00001139+0000001534          1400 MM9150               2BZ
112686000112686               112686               170213BQ     1400+00000+BQ0000002630+0000002630+000000000+000000369+0000002990+0000000009+I20000000000+0000002990+Z
112686002112686077-000270     112686006003000395453GIFT-BAG PPR JMB 33X45 0000001000+00002630+00000+0001T   00002630+0000001536          1400 MM9112               2BZ
112687000112687               112687               170213BQ     1400+00000+BQ0000004994+0000004994+000000000+000000701+0000005690+0000000005+I20000000000+0000005690+Z
112687001112687368-000100     112687006001023474742PLUSH MD BEAR 12cm     0000001000+00002630+00000+0001T   00002630+0000001537          1400 MM9745               2BZ
112687002112687077-000470     112687006003000330171G-BAG DESGN SML 11X14CM0000001000+00001314+00000+0001T   00001314+0000001537          1400 MM9112               2BZ
112687003112687903-000155     112687006009803374435SWT LOLLY I LUV U HEART0000002000+00000525+00000+0001T   00000525+0000001537          1400 MM9150               2BZ
112688000112688               112688               170213BQ     1400+00000+BQ0000037312+0000037312+000000000+000005225+0000042530+0000000007+I20000000000+0000042530+Z
112688001112688112-116069     112688006009681820277TCS CARRIER BAG JUMBO  0000001000+00000048+00000+0001T   00000048+0000001544          1400 MM9090               2BZ
112688002112688560-000703     112688006003000332403INSECTS 9PC ASSTD      0000001000+00001753+00000+0001T   00001753+0000001544          1400 MM9745               2BZ
112688003112688304-001117     112688006001023786630FLOWER CROSS 50CM      0000002000+00004385+00000+0001T   00004385+0000001544          1400 MM9510               2BZ
112688004112688304-001167     112688006001023846099FLOWER LOTUS FLOATING  0000001000+00002192+00000+0001T   00002192+0000001544          1400 MM9510               2BZ
112688005112688560-000101     112688006001023548740ANIMALS OCEAN-IN-TUBE  0000001000+00003507+00000+0001T   00003507+0000001544          1400 MM9745               2BZ
112688006112688560-000102     112688006001023746979ANIMALS FARM IN-TUBE   0000002000+00003507+00000+0001T   00003507+0000001544          1400 MM9745               2BZ
112688007112688560-000104     112688006001023747037ANIMALS WILD IN-TUBE   0000002000+00003507+00000+0001T   00003507+0000001544          1400 MM9745               2BZ
112688008112688560-000101     112688006001023548740ANIMALS OCEAN-IN-TUBE  0000001000+00003507+00000+0001T   00003507+0000001544          1400 MM9745               2BZ
112688009112688560-000104     112688006001023747037ANIMALS WILD IN-TUBE   0000001000+00003507+00000+0001T   00003507+0000001544          1400 MM9745               2BZ
112689000112689               112689               170213BQ     1400+00000+BQ0000004381+0000004381+000000000+000000615+0000004996+0000000000+I40000004996+0000000000+Z
112689001112689105-001010     112689006002580007329LUNCH-BOX 1L  ASSTD    0000001000+00000876+00000+0001T   00000876+0000001546          1400 MM9210               2BZ
112689002112689903-000087     112689006001704000161SWT SPECKLED-EGGS 50G  0000002000+00001139+00000+0001T   00001139+0000001546          1400 MM9150               2BZ
112689003112689903-000499     112689006001704012492SWT CHOC MALLOWS 50g   0000001000+00001227+00000+0001T   00001227+0000001546          1400 MM9150               2BZ
112690000112690               112690               170213BQ     1400+00000+BQ0000005963+0000005963+000000000+000000835+0000006790+0000000008+I20000000000+0000006790+Z
112690001112690077-000303     112690006001023593757GIFT-BAG PAPER MED     0000001000+00001578+00000+0001T   00001578+0000001548          1400 MM9112               2BZ
112690002112690368-000001     112690006003000097982Plush Bear 25cm        0000001000+00004385+00000+0001T   00004385+0000001548          1400 MM9745               2BZ
112691000112691               112691               170213BQ     1400+00000+BQ0000003507+0000003507+000000000+000000491+0000003990+0000000008+I20000000000+0000003990+Z
112691001112691560-000102     112691006001023746979ANIMALS FARM IN-TUBE   0000001000+00003507+00000+0001T   00003507+0000001559          1400 MM9745               2BZ
112692000112692               112692               170213BQ     1400+00000+BQ0000001926+0000001926+000000000+000000270+0000002190+0000000006+I20000000000+0000002190+Z
112692001112692200-000065     112692006001023323675DRINKING-STRAWS 38PCE  0000002000+00000613+00000+0001T   00000613+0000001601          1400 MM9214               2BZ
112692002112692362-004000     112692000613153000225DISNEY T/BELL TRINKETS 0000001000+00000700+00000+0001T   00000876+0008181601          1400 MM9160               2BZ
112693000112693               112693               170213BQ     1400+00000+BQ0000004734+0000004734+000000000+000000663+0000005390+0000000007+I20000000000+0000005390+Z
112693001112693083-000054     112693006001023729071LIGHTER REFILLABLE LED 0000003000+00001578+00000+0001T   00001578+0000001602          1400 MM9315               2BZ
112694000112694               112694               170213BQ     1400+00000+BQ0000005641+0000005641+000000000+000000793+0000006430+0000000004+I20000000000+0000006430+Z
112694001112694565-000888     112694006003000607846NOVELTY MESH BALL      0000002000+00001753+00000+0001T   00001753+0000001608          1400 MM9745               2BZ
112694002112694903-000155     112694006009803374435SWT LOLLY I LUV U HEART0000004000+00000525+00000+0001T   00000525+0000001608          1400 MM9150               2BZ
112694003112694112-116038     112694006009681820246TCS CARRIER BAG MIDI   0000001000+00000035+00000+0001T   00000035+0000001608          1400 MM9090               2BZ
112695000112695               112695               170213BQ     1400+00000+BQ0000021152+0000021152+000000000+000002966+0000024118+0000000000+I40000024118+0000000000+Z
112695001112695112-116038     112695006009681820246TCS CARRIER BAG MIDI   0000001000+00000035+00000+0001T   00000035+0000001611          1400 MM9090               2BZ
112695002112695362-003000     112695006003000295258GIRL HEART NOTEBOOK    0000002000+00001753+00000+0001T   00002630+0008191611          1400 MM9160               2BZ
112695003112695018-000177     112695006001023797513MUG MINI LOVE ASSTD    0000003000+00000700+00000+0001T   00000700+0000001611          1400 MM9515               2BZ
112695004112695362-003000     112695006003000295258GIRL HEART NOTEBOOK    0000001000+00001753+00000+0001T   00002630+0008191611          1400 MM9160               2BZ
112695005112695077-000470     112695006003000330171G-BAG DESGN SML 11X14CM0000004000+00001314+00000+0001T   00001314+0000001611          1400 MM9112               2BZ
112695006112695089-060027     112695006003000245871KEY-CHAIN HEART 6X6cm  0000001000+00003069+00000+0001T   00003069+0000001611          1400 MM9205               2BZ
112695007112695903-000918     112695006009802868522SWEET GUM TAPE H/KITTY 0000001000+00001753+00000+0001T   00001753+0000001611          1400 MM9150               2BZ
112695008112695903-000912     112695006009802868461SWT GUM TAPE HOT WHEELS0000001000+00001753+00000+0001T   00001753+0000001611          1400 MM9150               2BZ
112695009112695903-002892     112695008935001721338MENTOS JUICEBLAST BERRY0000001000+00001051+00000+0001T   00001051+0000001611          1400 MM9150               2BZ
112695010112695903-000897     112695008692806325207SWT CHOC DBL MINI ROLL 0000001000+00000876+00000+0001T   00000876+0000001611          1400 MM9150               2BZ
112696000112696               112696               170213BQ     1400+00000+BQ0000008503+0000008503+000000000+000001193+0000009696+0000000000+I40000009696+0000000000+Z
112696001112696079-130100     112696006003000542635A&C DIY COLOUR EYES 24P0000001000+00001490+00000+0001T   00001490+0000001613          1400 MM9130               2BZ
112696002112696079-014153     112696006003000253166ART+CRAFT DRAGON PK6   0000002000+00002630+00000+0001T   00002630+0000001613          1400 MM9130               2BZ
112696003112696565-000888     112696006003000607846NOVELTY MESH BALL      0000001000+00001753+00000+0001T   00001753+0000001613          1400 MM9745               2BZ
112697000112697               112697               170213BQ     1400+00000+BQ0000002100+0000002100+000000000+000000296+0000002390+0000000006+I20000000000+0000002390+Z
112697001112697903-000155     112697006009803374435SWT LOLLY I LUV U HEART0000003000+00000525+00000+0001T   00000525+0000001621          1400 MM9150               2BZ
112697002112697903-000151     112697006009803374411SWT SML RND R/BOW LOLLY0000001000+00000525+00000+0001T   00000525+0000001621          1400 MM9150               2BZ
112698000112698               112698               170213BQ     1400+00000+BQ0000003069+0000003069+000000000+000000430+0000003490+0000000009+I20000000000+0000003490+Z
112698001112698301-085008     112698006003000673933ORN OCC.LOVE TINSEL HRT0000001000+00003069+00000+0001T   00003069+0000001637          1400 MM9505               2BZ
112699000112699               112699               170213BQ     1400+00000+BQ0000004725+0000004725+000000000+000000666+0000005390+0000000001+I20000000000+0000005390+Z
112699001112699903-000155     112699006009803374435SWT LOLLY I LUV U HEART0000009000+00000525+00000+0001T   00000525+0000001640          1400 MM9150               2BZ
112700000112700               112700               170213BQ     1400+00000+BQ0000007014+0000007014+000000000+000000982+0000007990+0000000006+I20000000000+0000007990+Z
112700001112700018-000136     112700006001023659026MUG OCC LOVE W/PLUSH   0000002000+00003507+00000+0001T   00003507+0000001641          1400 MM9515               2BZ
112701000112701               112701               170213BQ     1400+00000+BQ0000003539+0000003539+000000000+000000497+0000004036+0000000000+I40000004036+0000000000+Z
112701001112701031-000878-A   112701006001023798985P/FRAME 10x15cm PL-SLID0000004000+00000876+00000+0001T   00000876+0000001648          1400 MM9510               2BZ
112701002112701112-116038     112701006009681820246TCS CARRIER BAG MIDI   0000001000+00000035+00000+0001T   00000035+0000001648          1400 MM9090               2BZ
112702000112702               112702               170213BQ     1400+00000+BQ0000011311+0000011311+000000000+000001585+0000012896+0000000000+I40000012896+0000000000+Z
112702001112702301-085007     112702006003000673698ORN OCC. LOVE S/PLAQUE 0000001000+00007893+00000+0001T   00007893+0000001653          1400 MM9505               2BZ
112702002112702077-000407     112702006003000145096G/BAG PP 19X26X8CM     0000001000+00001314+00000+0001T   00001314+0000001653          1400 MM9112               2BZ
112702003112702903-000095     112702006001704011495SWT SPECKLED-EGGS 100G 0000001000+00002104+00000+0001T   00002104+0000001653          1400 MM9150               2BZ
112703000112703               112703               170213BQ     1400+00000+BQ0000003537+0000003537+000000000+000000504+0000004040+0000000001+I20000000000+0000004040+Z
112703001112703903-000183     112703006003000451043SWT LB HEART LOLLY     0000009000+00000393+00000+0001T   00000393+0000001656          1400 MM9150               2BZ
112704000112704               112704               170213BQ     1400+00000+BQ0000001753+0000001753+000000000+000000246+0000001999+0000000000+I40000001999+0000000000+Z
112704001112704046-002013-PK6 112704004897006174851BATTERY BUTTON AG13 6PC0000001000+00001753+00000+0001T   00001753+0000001658          1400 MM9312               2BZ
112705000112705               112705               170213BQ     1400+00000+BQ0000003153+0000003153+000000000+000000444+0000003597+0000000000+I40000003597+0000000000+Z
112705001112705039-000026     112705006001023551610C/TAPERED 25CM M/RED   0000002000+00001051+00000+0001T   00001051+0000001702          1400 MM9510               2BZ
112705002112705039-000024     112705006003000286300C/TAPERED 25CM M/WHITE 0000001000+00001051+00000+0001T   00001051+0000001702          1400 MM9510               2BZ
112706000112706               112706               170213BQ     1400+00000+BQ0000007750+0000007750+000000000+000001086+0000008830+0000000006+I20000000000+0000008830+Z
112706001112706112-116038     112706006009681820246TCS CARRIER BAG MIDI   0000001000+00000035+00000+0001T   00000035+0000001703          1400 MM9090               2BZ
112706002112706001-000175     112706006001023788108B/MUG GLS LOVE 380ML   0000001000+00004385+00000+0001T   00004385+0000001703          1400 MM9515               2BZ
112706003112706077-000303     112706006001023593757GIFT-BAG PAPER MED     0000001000+00001578+00000+0001T   00001578+0000001703          1400 MM9112               2BZ
112706004112706903-000503     112706006001704006118SWT VAMPIRE FANGS 60G  0000001000+00000876+00000+0001T   00000876+0000001703          1400 MM9150               2BZ
112706005112706903-000494     112706006001704009911SWT GUMMY TEENY TEDDIES0000001000+00000876+00000+0001T   00000876+0000001703          1400 MM9150               2BZ
112707000112707               112707               170213BQ     1400+00000+BQ0000004420+0000004420+000000000+000000619+0000005030+0000000009+I20000000000+0000005030+Z
112707001112707365-003048     112707006001023589354PLAY BEAUTY COSMETIC   0000001000+00004385+00000+0001T   00004385+0000001704          1400 MM9725               2BZ
112707002112707112-116038     112707006009681820246TCS CARRIER BAG MIDI   0000001000+00000035+00000+0001T   00000035+0000001704          1400 MM9090               2BZ
112708000112708               112708               170213BQ     1400+00000+BQ0000008329+0000008329+000000000+000001167+0000009490+0000000006+I20000000000+0000009490+Z
112708001112708071-030012     112708006003000283842PEN NVLTY GLITTER 6PC  0000001000+00002630+00000+0001T   00002630+0000001704          1400 MM9130               2BZ
112708002112708071-001346     112708006001023912985HIGHLIGHTERS 4PCE CARD 0000001000+00002192+00000+0001T   00002192+0000001704          1400 MM9130               2BZ
112708003112708560-000102     112708006001023746979ANIMALS FARM IN-TUBE   0000001000+00003507+00000+0001T   00003507+0000001704          1400 MM9745               2BZ
112709000112709               112709               170213BQ     1400+00000+BQ0000000393+0000000393+000000000+000000056+0000000440+0000000009+I20000000000+0000000440+Z
112709001112709903-000183     112709006003000451043SWT LB HEART LOLLY     0000001000+00000393+00000+0001T   00000393+0000001705          1400 MM9150               2BZ
112710000112710               112710               170213BQ     1400+00000+BQ0000005524+0000005524+000000000+000000774+0000006290+0000000008+I20000000000+0000006290+Z
112710001112710565-004005     112710006003000109081NOVELTY BUG VIEWER     0000001000+00004385+00000+0001T   00004385+0000001706          1400 MM9745               2BZ
112710002112710903-000087     112710006001704000161SWT SPECKLED-EGGS 50G  0000001000+00001139+00000+0001T   00001139+0000001706          1400 MM9150               2BZ
112711000112711               112711               170213BQ     1400+00000+BQ0000001487+0000001487+000000000+000000210+0000001690+0000000007+I20000000000+0000001690+Z
112711001112711080-000133-A   112711006003000647019MINI VALENTINES CARD   0000001000+00000437+00000+0001T   00000437+0000001707          1400 MM9112               2BZ
112711002112711903-000155     112711006009803374435SWT LOLLY I LUV U HEART0000002000+00000525+00000+0001T   00000525+0000001707          1400 MM9150               2BZ
112712000112712               112712               170213BQ     1400+00000+BQ0000015383+0000015383+000000000+000002158+0000017540+0000000001+I20000000000+0000017540+Z
112712001112712112-116069     112712006009681820277TCS CARRIER BAG JUMBO  0000001000+00000048+00000+0001T   00000048+0000001710          1400 MM9090               2BZ
112712002112712012-000001     112712006003000331048MICRO PLATE-COVER 26X6 0000002000+00001753+00000+0001T   00002192+0008191710          1400 MM9300               2BZ
112712003112712304-001204     112712006001023737984FLOWER OCC. TEDDY/ROSES0000002000+00001402+00000+0001T   00001490+0006471710          1400 MM9510               2BZ
112712004112712903-000843     112712008693029031067SWT GUMMY JELAXY 80G   0000002000+00000964+00000+0001T   00000964+0000001710          1400 MM9150               2BZ
112712005112712565-000041     112712006008766115642NOVELTY BALL ICON 5.5cm0000001000+00002630+00000+0001T   00002630+0000001710          1400 MM9745               2BZ
112712006112712903-000155     112712006009803374435SWT LOLLY I LUV U HEART0000001000+00000525+00000+0001T   00000525+0000001710          1400 MM9150               2BZ
112712007112712903-000844     112712005010478432567SWT CANDY DL LUV HEARTS0000003000+00001314+00000+0001T   00001314+0000001710          1400 MM9150               2BZ
112713000112713               112713               170213BQ     1400+00000+BQ0000001402+0000001402+000000000+000000197+0000001590+0000000009+I20000000000+0000001590+Z
112713001112713304-001204     112713006001023737984FLOWER OCC. TEDDY/ROSES0000001000+00001402+00000+0001T   00001490+0006471711          1400 MM9510               2BZ
112714000112714               112714               170213BQ     1400+00000+BQ0000001839+0000001839+000000000+000000258+0000002090+0000000007+I20000000000+0000002090+Z
112714001112714362-004001     112714000613153010385PRINCESS ASSTD TRINKETS0000001000+00000700+00000+0001T   00000876+0008181712          1400 MM9160               2BZ
112714002112714027-078343     112714006008766078343SCRUB-BRUSH IRON-SHAPE 0000001000+00001139+00000+0001T   00001578+0008191712          1400 MM9212               2BZ
112715000112715               112715               170213BQ     1400+00000+BQ0000006139+0000006139+000000000+000000860+0000006990+0000000009+I20000000000+0000006990+Z
112715001112715368-000265     112715006001023750914PLUSH BEAR 23CM ASSTD C0000001000+00006139+00000+0001T   00006139+0000001713          1400 MM9745               2BZ
112716000112716               112716               170213BQ     1400+00000+BQ0000008329+0000008329+000000000+000001167+0000009490+0000000006+I20000000000+0000009490+Z
112716001112716077-000270     112716006003000395453GIFT-BAG PPR JMB 33X45 0000001000+00002630+00000+0001T   00002630+0000001723          1400 MM9112               2BZ
112716002112716018-005009     112716006001023725608MUG W/PLUSH-BEAR LOVE  0000001000+00003507+00000+0001T   00003507+0000001723          1400 MM9515               2BZ
112716003112716080-000127     112716006003000424351VALENTINES DAY 36x24CM 0000001000+00002192+00000+0001T   00002192+0000001723          1400 MM9112               2BZ
112717000112717               112717               170213BQ     1400+00000+BQ0000001664+0000001664+000000000+000000233+0000001890+0000000007+I20000000000+0000001890+Z
112717001112717903-000843     112717008693029031067SWT GUMMY JELAXY 80G   0000001000+00000964+00000+0001T   00000964+0000001725          1400 MM9150               2BZ
112717002112717018-000177     112717006001023797513MUG MINI LOVE ASSTD    0000001000+00000700+00000+0001T   00000700+0000001725          1400 MM9515               2BZ
112718000112718               112718               170213BQ     1400+00000+BQ0000002629+0000002629+000000000+000000369+0000002990+0000000008+I20000000000+0000002990+Z
112718001112718566-000200     112718006003000384174STICKER PUFFY NEON     0000001000+00000876+00000+0001T   00000876+0000001726          1400 MM9130               2BZ
112718002112718566-000535     112718006003000284719STICKER SPARKLE EMBOSS 0000001000+00001753+00000+0001T   00001753+0000001726          1400 MM9130               2BZ
112719000112719               112719               170213BQ     1400+00000+BQ0000006138+0000006138+000000000+000000860+0000006998+0000000000+I40000006998+0000000000+Z
112719001112719001-000175     112719006001023788108B/MUG GLS LOVE 380ML   0000001000+00004385+00000+0001T   00004385+0000001730          1400 MM9515               2BZ
112719002112719264-000921     112719000090159150442MAISTO CAR 3" FRESH    0000001000+00001753+00000+0001T   00001753+0000001730          1400 MM9710               2BZ
A17021300                                          10124158BQSLAVE 2                       MM92IC
A17021301                                          10125714BQSLAVE 2                       MM92IC
B11264200                                          170213BQ112-116038     12332195SLAVE 2     MM91IC0000020000+0000001000+0000000000000+
C11268600                                          170213BQ031-000924     15360376SLAVE 2     MM92IC0000000000+0000000000+0010000001000+
M17021391                              CASH        BQSLAVE 2                       Z-REPORT No.   620TOTAL (Sales - Refunds)           9437.17       CASH TO BE BANKED                 3857.00       DEBIT CARDS                          0.00       CREDIT CARDS                         0.00       Z-READING                         9437.17       AIRTIME DEBIT CARD SALES             0.00       AIRTIME CARD SALES                   0.00       OVERS/UNDERS                      5580.17-      AIRTIME CASH SALES                   0.00       GIFT CARDS                           0.00       GIFT CARD CASH SALES                 0.00       T O T A L  CASH PAYOUTS              0.00                                                                                                                                                                                                                                                                                                                                                      Z
M17021392                              CASH        BQABSENT                                                                                                                                                                                          ANNUAL LEAVE                                                                                                                                                                                    DAY OFF                                                                                                                                                                                         COMMENTS                                                                                                                                                                                                                                                                                                                                                                                       Z
Y17021300                                          BQ00000000828073+000111
ZBQ17021319223 SLAVE 2      SALES DATA                     NEXT INVOICE NO.  112720 0620
X BQ Slave 2 First invoice 112609 170213 Last invoice 112719 170213 Next invoice 112720 Total number of records 000000415 clbackup completed 19:22:04
