112967000112967               112967               170213A1     1400+00000+A10000001753+0000001753+000000000+000000246+0000001990+0000000009+I20000000000+0000001990+Z
112967001112967046-002025-PK2 112967004897006174868BATTERIES CR-2025  2PCE0000001000+00001753+00000+0001T   00001753+0000000904          1400 DI3312               1BZ
112968000112968               112968               170213A1     1400+00000+A10000001753+0000001753+000000000+000000246+0000001990+0000000009+I20000000000+0000001990+Z
112968001112968200-003024     112968006001023657299REFUSE BAGS 20PCE BLACK0000001000+00001753+00000+0001T   00001753+0000000908          1400 DI3214               1AZ
112969000112969               112969               170213A1     1400+00000+A10000001745-0000001745-000000000+000000245-0000001990-0000000000+I20000000000+0000001990-Z
112969001112969001-999907     112969000000000999907CLEANING-MATERIALS     0000001000-00001745+00000+0001T   00000000+0000000909          1400 DI39071IC            1 Z
112970000112970               112970               170213A1     1400+00000+A10000002540+0000002540+000000000+000000357+0000002890+0000000007+I20000000000+0000002890+Z
112970001112970071-001019     112970006001023474513MARKER BLACK NAME-PEN  0000001000+00000876+00000+0001T   00000876+0000000911          1400 DI3130               1AZ
112970002112970071-081101-A   112970006003000326549GLUE-STICK 25g BLISTER 0000001000+00000788+00000+0001T   00000788+0000000911          1400 DI3130               1AZ
112970003112970071-005213     112970006001023690371CELLOTAPE 12mmx33m     0000001000+00000876+00000+0001T   00000876+0000000911          1400 DI3130               1AZ
112971000112971               112971               170213A1     1400+00000+A10000002535-0000002535-000000000+000000355-0000002890-0000000000+I20000000000+0000002890-Z
112971001112971001-999906     112971000000000999906STATIONERY(PHOTOCOPIES)0000001000-00002535+00000+0001T   00000000+0000000911          1400 DI39061IC            1 Z
112972000112972               112972               170213A1     1400+00000+A10000009646+0000009646+000000000+000001352+0000010998+0000000000+I40000010998+0000000000+Z
112972001112972301-085001     112972006003000297610ORN WATERBALL LOVE ASST0000002000+00004823+00000+0001T   00004823+0000000918          1400 DI3505               1BZ
112973000112973               112973               170213A1     1400+00000+A10000003507+0000003507+000000000+000000491+0000003990+0000000008+I20000000000+0000003990+Z
112973001112973567-075490     112973009780799361254BK NOVEL ROMANCE AFR   0000001000+00003507+00000+0001T   00003507+0000000928          1400 DI3757               1BZ
112974000112974               112974               170213A1     1400+00000+A10000008816+0000008816+000000000+000001235+0000010051+0000000000+I40000010051+0000000000+Z
112974001112974015-000110     112974006001023854889WHITEWARE MUG 350ML    0000004000+00002192+00000+0001T   00002192+0000000954          1400 DI3515               1BZ
112974002112974112-116069     112974006009681820277TCS CARRIER BAG JUMBO  0000001000+00000048+00000+0001T   00000048+0000000954          1400 DI3090               1BZ
112975000112975               112975               170213A1     1400+00000+A10000003069+0000003069+000000000+000000430+0000003490+0000000009+I20000000000+0000003490+Z
112975001112975024-000040     112975006001023332509MEASURING-JUG 2.00L    0000001000+00003069+00000+0001T   00003069+0000000955          1400 DI3300               1BZ
112976000112976               112976               170213A1     1400+00000+A10000004857+0000004857+000000000+000000681+0000005530+0000000008+I20000000000+0000005530+Z
112976001112976024-000018     112976006001023610232CAKE-DEC S/S NOZZLE    0000001000+00003946+00000+0001T   00003946+0000001024          1400 DI3300               1BZ
112976002112976039-000319-3   112976006003000442621B/CANDLES LRG NUMBER-3 0000001000+00000876+00000+0001T   00000876+0000001024          1400 DI3510               1BZ
112976003112976112-116038     112976006009681820246TCS CARRIER BAG MIDI   0000001000+00000035+00000+0001T   00000035+0000001024          1400 DI3090               1BZ
112977000112977               112977               170213A1     1400+00000+A10000005260+0000005260+000000000+000000738+0000005998+0000000000+I40000005998+0000000000+Z
112977001112977206-000390     112977006003000631438STRAW PL BUILD A STRAW 0000002000+00002630+00000+0001T   00002630+0000001026          1400 DI3321               1BZ
112978000112978               112978               170213A1     1400+00000+A10000002240+0000002240+000000000+000000314+0000002550+0000000004+I20000000000+0000002550+Z
112978001112978080-000127     112978006003000424351VALENTINES DAY 36x24CM 0000001000+00002192+00000+0001T   00002192+0000001031          1400 DI3112               1BZ
112978002112978112-116069     112978006009681820277TCS CARRIER BAG JUMBO  0000001000+00000048+00000+0001T   00000048+0000001031          1400 DI3090               1BZ
112979000112979               112979               170213A1     1400+00000+A10000002980+0000002980+000000000+000000418+0000003390+0000000008+I20000000000+0000003390+Z
112979001112979036-000605     112979006001023158611WASHING-PEGS WDN PCK-240000002000+00001490+00000+0001T   00001490+0000001032          1400 DI3212               1BZ
112980000112980               112980               170213A1     1400+00000+A10000010917+0000010917+000000000+000001532+0000012440+0000000009+I20000000000+0000012440+Z
112980001112980112-116069     112980006009681820277TCS CARRIER BAG JUMBO  0000001000+00000048+00000+0001T   00000048+0000001104          1400 DI3090               1BZ
112980002112980019-071606     112980006003000678891PEBBLES 500G 3MM WHITE.0000001000+00001490+00000+0001T   00001490+0000001104          1400 DI3510               1BZ
112980003112980016-006518     112980006003000351749S/JAR GLS CHECK 350ML  0000001000+00001753+00000+0001T   00001753+0000001104          1400 DI3300               1BZ
112980004112980019-071611     112980006003000513642PEBBLES W/GEM 10g CLEAR0000001000+00001490+00000+0001T   00001490+0000001104          1400 DI3510               1BZ
112980005112980039-001023     112980006003000466337CANDLE TEA-LITE METALIC0000001000+00001753+00000+0001T   00001753+0000001104          1400 DI3510               1BZ
112980006112980031-005820     112980006001023667816P/FRAME-CLIP 15X20CM   0000001000+00001753+00000+0001T   00001753+0000001104          1400 DI3510               1BZ
112980007112980031-005821     112980006001023667786P/FRAME-GLS CLIP 21X30 0000001000+00002630+00000+0001T   00002630+0000001104          1400 DI3510               1BZ
112981000112981               112981               170213A1     1400+00000+A10000000876+0000000876+000000000+000000123+0000000990+0000000009+I20000000000+0000000990+Z
112981001112981007-000127     112981006009685853431BOOK H/COVER MEMO 144PG0000001000+00000876+00000+0001T   00000876+0000001105          1400 DI3130               1BZ
112982000112982               112982               170213A1     1400+00000+A10000013636+0000013636+000000000+000001911+0000015547+0000000000+I40000015547+0000000000+Z
112982001112982368-000049     112982006003000536955PLUSH BEAR 15cm LOVE   0000001000+00004385+00000+0001T   00004385+0000001133          1400 DI3745               1BZ
112982002112982018-000130     112982006001023867537MUG OCC LOVE MINI+HEART0000001000+00003507+00000+0001T   00003507+0000001133          1400 DI3515               1BZ
112982003112982304-001204     112982006001023737984FLOWER OCC. TEDDY/ROSES0000002000+00001402+00000+0001T   00001490+0006471133          1400 DI3510               1BZ
112982004112982077-000310     112982006001023608635GIFT-BAG 18X23CM GLOSS 0000001000+00001314+00000+0001T   00001314+0000001133          1400 DI3112               1BZ
112982005112982112-116069     112982006009681820277TCS CARRIER BAG JUMBO  0000001000+00000048+00000+0001T   00000048+0000001133          1400 DI3090               1BZ
112982006112982077-000303     112982006001023593757GIFT-BAG PAPER MED     0000001000+00001578+00000+0001T   00001578+0000001133          1400 DI3112               1BZ
112983000112983               112983               170213A1     1400+00000+A10000004032+0000004032+000000000+000000565+0000004597+0000000000+I40000004597+0000000000+Z
112983001112983266-001308     112983006001023686978MARBLES 45PC L/E       0000002000+00001227+00000+0001T   00001227+0000001149          1400 DI3710               1BZ
112983002112983266-001309     112983006001023686992BOYS MARBLES 16mm 50PC 0000001000+00001578+00000+0001T   00001578+0000001149          1400 DI3710               1BZ
112984000112984               112984               170213A1     1400+00000+A10000007892+0000007892+000000000+000001106+0000008998+0000000000+I40000008998+0000000000+Z
112984001112984007-010500     112984006003000455034WIPE & CHALK 30X20CM   0000001000+00006139+00000+0001T   00006139+0000001214          1400 DI3130               1BZ
112984002112984079-000012     112984006001023655332P/CRAYONS 12-COL LONG  0000001000+00001753+00000+0001T   00001753+0000001214          1400 DI3130               1BZ
112985000112985               112985               170213A1     1400+00000+A10000003680+0000003680+000000000+000000517+0000004190+0000000007+I20000000000+0000004190+Z
112985001112985903-000155     112985006009803374435SWT LOLLY I LUV U HEART0000002000+00000525+00000+0001T   00000525+0000001220          1400 DI3150               1BZ
112985002112985077-000235     112985006003000160211GIFT-RIBBON ROLL METALC0000001000+00002630+00000+0001T   00002630+0000001220          1400 DI3112               1BZ
112986000112986               112986               170213A1     1400+00000+A10000004731+0000004731+000000000+000000664+0000005390+0000000005+I20000000000+0000005390+Z
112986001112986007-000206     112986006009635830215X/PAD 80-SHEETS PUNCHED0000003000+00001227+00000+0001T   00001227+0000001221          1400 DI3130               1BZ
112986002112986903-000155     112986006009803374435SWT LOLLY I LUV U HEART0000002000+00000525+00000+0001T   00000525+0000001221          1400 DI3150               1BZ
112987000112987               112987               170213A1     1400+00000+A10000003331+0000003331+000000000+000000467+0000003790+0000000008+I20000000000+0000003790+Z
112987001112987080-000124     112987006003000297733CARD & ENV VALENTINES  0000001000+00001578+00000+0001T   00001578+0000001222          1400 DI3112               1BZ
112987002112987077-000309     112987006001023608604GIFT-BAG 25X32CM GLOSS 0000001000+00001753+00000+0001T   00001753+0000001222          1400 DI3112               1BZ
112988000112988               112988               170213A1     1400+00000+A10000004385+0000004385+000000000+000000614+0000004990+0000000009+I20000000000+0000004990+Z
112988001112988082-000100     112988006003000360246READING GLS STRENGHT:1 0000001000+00004385+00000+0001T   00004385+0000001244          1400 DI3160               1BZ
112989000112989               112989               170213A1     1400+00000+A10000001753+0000001753+000000000+000000246+0000001990+0000000009+I20000000000+0000001990+Z
112989001112989089-000030     112989006003000575671K/CHAIN LOVE MTL ASSTD 0000001000+00001753+00000+0001T   00001753+0000001244          1400 DI3205               1BZ
112990000112990               112990               170213A1     1400+00000+A10000002630+0000002630+000000000+000000369+0000002990+0000000009+I20000000000+0000002990+Z
112990001112990903-000594     112990006003000564057SWT SWORD 18cm J/BEAN  0000001000+00002630+00000+0001T   00002630+0000001245          1400 DI3150               1BZ
112991000112991               112991               170213A1     1400+00000+A10000005346+0000005346+000000000+000000750+0000006096+0000000000+I40000006096+0000000000+Z
112991001112991071-001015     112991006001023910387MARKERS PERMANENT 3PK  0000001000+00001753+00000+0001T   00001753+0000001247          1400 DI3130               1BZ
112991002112991200-000065     112991006001023323675DRINKING-STRAWS 38PCE  0000001000+00000613+00000+0001T   00000613+0000001247          1400 DI3214               1BZ
112991003112991200-000107     112991006003000638499PICNIC CUPS PAPER 250ml0000001000+00001753+00000+0001T   00001753+0000001247          1400 DI3214               1BZ
112991004112991200-000092     112991006003000576739PICNIC PAPER PLATES 23c0000001000+00001227+00000+0001T   00001227+0000001247          1400 DI3214               1BZ
112992000112992               112992               170213A1     1400+00000+A10000002630+0000002630+000000000+000000369+0000002990+0000000009+I20000000000+0000002990+Z
112992001112992563-000317-A   112992006001023776167SERVIETTES 20PK PATTERN0000001000+00002630+00000+0001T   00002630+0000001247          1400 DI3214               1BZ
112993000112993               112993               170213A1     1400+00000+A10000001753+0000001753+000000000+000000246+0000001990+0000000009+I20000000000+0000001990+Z
112993001112993046-002025-PK2 112993004897006174868BATTERIES CR-2025  2PCE0000001000+00001753+00000+0001T   00001753+0000001304          1400 DI3312               1BZ
112994000112994               112994               170213A1     1400+00000+A10000003453+0000003453+000000000+000000485+0000003938+0000000000+I40000003938+0000000000+Z
112994001112994046-000014-A   112994004897006177708BATTERIES SIZE:AAA 8PCE0000001000+00001753+00000+0001T   00001753+0000001313          1400 DI3312               1BZ
112994002112994047-000504-H   112994006001023589958PLUG EURODAPTOR 2PIN HH0000001000+00001665+00000+0001T   00001665+0000001313          1400 DI3880               1BZ
112994003112994112-116038     112994006009681820246TCS CARRIER BAG MIDI   0000001000+00000035+00000+0001T   00000035+0000001313          1400 DI3090               1BZ
112995000112995               112995               170213A1     1400+00000+A10000002227+0000002227+000000000+000000312+0000002530+0000000009+I20000000000+0000002530+Z
112995001112995018-000170     112995006001023775528MUG OCC. LOVE 2PC MINI 0000001000+00002192+00000+0001T   00002192+0000001315          1400 DI3515               1BZ
112995002112995112-116038     112995006009681820246TCS CARRIER BAG MIDI   0000001000+00000035+00000+0001T   00000035+0000001315          1400 DI3090               1BZ
112996000112996               112996               170213A1     1400+00000+A10000003980+0000003980+000000000+000000558+0000004530+0000000008+I20000000000+0000004530+Z
112996001112996006-000090     112996006001023538505BANNER HAPPY-BIRTHDAY  0000001000+00002192+00000+0001T   00002192+0000001316          1400 DI3131               1BZ
112996002112996006-000124     112996006003000625888BALLOONS 10PC MIX COL  0000001000+00001753+00000+0001T   00001753+0000001316          1400 DI3131               1BZ
112996003112996112-116038     112996006009681820246TCS CARRIER BAG MIDI   0000001000+00000035+00000+0001T   00000035+0000001316          1400 DI3090               1BZ
112997000112997               112997               170213A1     1400+00000+A10000007937+0000007937+000000000+000001113+0000009050+0000000000+I20000000000+0000009050+Z
112997001112997368-000049     112997006003000536955PLUSH BEAR 15cm LOVE   0000001000+00004385+00000+0001T   00004385+0000001317          1400 DI3745               1BZ
112997002112997304-001204     112997006001023737984FLOWER OCC. TEDDY/ROSES0000002000+00001402+00000+0001T   00001490+0006471317          1400 DI3510               1BZ
112997003112997112-116069     112997006009681820277TCS CARRIER BAG JUMBO  0000001000+00000048+00000+0001T   00000048+0000001317          1400 DI3090               1BZ
112997004112997018-000177     112997006001023797513MUG MINI LOVE ASSTD    0000001000+00000700+00000+0001T   00000700+0000001317          1400 DI3515               1BZ
112998000112998               112998               170213A1     1400+00000+A10000008362+0000008362+000000000+000001172+0000009530+0000000004+I20000000000+0000009530+Z
112998001112998077-000310     112998006001023608635GIFT-BAG 18X23CM GLOSS 0000001000+00001314+00000+0001T   00001314+0000001319          1400 DI3112               1BZ
112998002112998077-000011-C   112998006001023808523TISSUE 10xSHTS RED     0000001000+00000876+00000+0001T   00000876+0000001319          1400 DI3112               1BZ
112998003112998018-005009     112998006001023725608MUG W/PLUSH-BEAR LOVE  0000001000+00003507+00000+0001T   00003507+0000001319          1400 DI3515               1BZ
112998004112998077-000235     112998006003000160211GIFT-RIBBON ROLL METALC0000001000+00002630+00000+0001T   00002630+0000001319          1400 DI3112               1BZ
112998005112998112-116038     112998006009681820246TCS CARRIER BAG MIDI   0000001000+00000035+00000+0001T   00000035+0000001319          1400 DI3090               1BZ
112999000112999               112999               170213A1     1400+00000+A10000007013+0000007013+000000000+000000982+0000007990+0000000005+I20000000000+0000007990+Z
112999001112999018-005009     112999006001023725608MUG W/PLUSH-BEAR LOVE  0000001000+00003507+00000+0001T   00003507+0000001321          1400 DI3515               1BZ
112999002112999077-000309-A   112999006003000671007GIFT-BAG HOLOGRAM JMB  0000001000+00002192+00000+0001T   00002192+0000001321          1400 DI3112               1BZ
112999003112999077-000310     112999006001023608635GIFT-BAG 18X23CM GLOSS 0000001000+00001314+00000+0001T   00001314+0000001321          1400 DI3112               1BZ
113000000113000               113000               170213A1     1400+00000+A10000005260+0000005260+000000000+000000737+0000005990+0000000007+I20000000000+0000005990+Z
113000001113000206-000135     113000006003000680450T/BAG HLDR SILICONE    0000001000+00001753+00000+0001T   00001753+0000001321          1400 DI3321               1BZ
113000002113000018-005009     113000006001023725608MUG W/PLUSH-BEAR LOVE  0000001000+00003507+00000+0001T   00003507+0000001321          1400 DI3515               1BZ
113001000113001               113001               170213A1     1400+00000+A10000001753+0000001753+000000000+000000246+0000001990+0000000009+I20000000000+0000001990+Z
113001001113001080-000116     113001006003000253555CARD&ENVELOPE-HANDMADE 0000001000+00001753+00000+0001T   00001753+0000001325          1400 DI3112               1BZ
113002000113002               113002               170213A1     1400+00000+A10000002192+0000002192+000000000+000000307+0000002490+0000000009+I20000000000+0000002490+Z
113002001113002077-000922     113002006003000413935G/WRAP 700mmx2m FLOWER 0000001000+00002192+00000+0001T   00002192+0000001326          1400 DI3112               1BZ
113003000113003               113003               170213A1     1400+00000+A10000008770+0000008770+000000000+000001228+0000009998+0000000000+I40000009998+0000000000+Z
113003001113003001-000175     113003006001023788108B/MUG GLS LOVE 380ML   0000001000+00004385+00000+0001T   00004385+0000001328          1400 DI3515               1BZ
113003002113003030-000031-A   113003006003000457588PLAQUE W/WORDS ASSTD   0000001000+00004385+00000+0001T   00004823+0006471328          1400 DI3505               1BZ
113004000113004               113004               170213A1     1400+00000+A10000001753+0000001753+000000000+000000246+0000001990+0000000009+I20000000000+0000001990+Z
113004001113004080-000115     113004006003000237333CARD&ENVELOPE - BLANKS 0000001000+00001753+00000+0001T   00001753+0000001332          1400 DI3112               1BZ
113005000113005               113005               170213A1     1400+00000+A10000001753+0000001753+000000000+000000246+0000001990+0000000009+I20000000000+0000001990+Z
113005001113005078-000026     113005006936198407090SUPERGLUE 3,0g GEL     0000001000+00001753+00000+0001T   00001753+0000001336          1400 DI3810               1BZ
113006000113006               113006               170213A1     1400+00000+A10000000788+0000000788+000000000+000000111+0000000890+0000000009+I20000000000+0000000890+Z
113006001113006903-000119     113006006001704007337SWT COCONUT-WHEEL      0000001000+00000788+00000+0001T   00000788+0000001337          1400 DI3150               1BZ
113007000113007               113007               170213A1     1400+00000+A10000002628+0000002628+000000000+000000368+0000002996+0000000000+I40000002996+0000000000+Z
113007001113007077-000310     113007006001023608635GIFT-BAG 18X23CM GLOSS 0000001000+00001314+00000+0001T   00001314+0000001341          1400 DI3112               1BZ
113007002113007903-000844     113007005010478432567SWT CANDY DL LUV HEARTS0000001000+00001314+00000+0001T   00001314+0000001341          1400 DI3150               1BZ
113008000113008               113008               170213A1     1400+00000+A10000001962+0000001962+000000000+000000275+0000002237+0000000000+I40000002237+0000000000+Z
113008001113008903-000518     113008006001704012782SWT STRAWS S/BERRY 100g0000001000+00001227+00000+0001T   00001227+0000001346          1400 DI3150               1BZ
113008002113008018-000177     113008006001023797513MUG MINI LOVE ASSTD    0000001000+00000700+00000+0001T   00000700+0000001346          1400 DI3515               1BZ
113008003113008112-116038     113008006009681820246TCS CARRIER BAG MIDI   0000001000+00000035+00000+0001T   00000035+0000001346          1400 DI3090               1BZ
113009000113009               113009               170213A1     1400+00000+A10000002540+0000002540+000000000+000000357+0000002890+0000000007+I20000000000+0000002890+Z
113009001113009077-000151     113009006008766114676GIFT-WRAP C/PHANE ASSTD0000001000+00000876+00000+0001T   00000876+0000001347          1400 DI3112               1BZ
113009002113009077-000245     113009006001023759214GIFT-RIBBON METALLICx2 0000001000+00001227+00000+0001T   00001227+0000001347          1400 DI3112               1BZ
113009003113009080-000133-A   113009006003000647019MINI VALENTINES CARD   0000001000+00000437+00000+0001T   00000437+0000001347          1400 DI3112               1BZ
113010000113010               113010               170213A1     1400+00000+A10000007013+0000007013+000000000+000000983+0000007990+0000000006+I20000000000+0000007990+Z
113010001113010567-011422     113010006003000641222BK COLOURING THERAPY   0000001000+00003507+00000+0001T   00003507+0000001348          1400 DI3757               1BZ
113010002113010079-000206     113010006003000639700PENCIL CRAYONS THERAPY 0000001000+00001753+00000+0001T   00001753+0000001348          1400 DI3130               1BZ
113010003113010306-000024-A   113010006003000577309COTTON-WOOL-PADS 80PC  0000001000+00001753+00000+0001T   00001753+0000001348          1400 DI3200               1BZ
113011000113011               113011               170213A1     1400+00000+A10000001753+0000001753+000000000+000000246+0000001990+0000000009+I20000000000+0000001990+Z
113011001113011036-000063     113011006009654960436COATHANGERS VIRGIN 5PCE0000001000+00001753+00000+0001T   00001753+0000001353          1400 DI3212               1BZ
113012000113012               113012               170213A1     1400+00000+A10000003102+0000003102+000000000+000000435+0000003537+0000000000+I40000003537+0000000000+Z
113012001113012080-000113     113012006003000237449CARD&ENVLPE - LOVE     0000001000+00001753+00000+0001T   00001753+0000001355          1400 DI3112               1BZ
113012002113012077-000310     113012006001023608635GIFT-BAG 18X23CM GLOSS 0000001000+00001314+00000+0001T   00001314+0000001355          1400 DI3112               1BZ
113012003113012112-116038     113012006009681820246TCS CARRIER BAG MIDI   0000001000+00000035+00000+0001T   00000035+0000001355          1400 DI3090               1BZ
113013000113013               113013               170213A1     1400+00000+A10000001226+0000001226+000000000+000000172+0000001390+0000000008+I20000000000+0000001390+Z
113013001113013083-000055     113013006003000003853LIGHTER ELCTRNC REFILBL0000002000+00000613+00000+0001T   00000613+0000001358          1400 DI3315               1BZ
113014000113014               113014               170213A1     1400+00000+A10000016663+0000016663+000000000+000002334+0000018997+0000000000+I40000018997+0000000000+Z
113014001113014368-000175     113014006003000270316PLUSH BEAR 4 ASSTD 18CM0000002000+00006139+00000+0001T   00006139+0000001400          1400 DI3745               1BZ
113014002113014079-130010     113014006003000496624ART+CRAFT FOAM DOLLS   0000001000+00004385+00000+0001T   00004385+0000001400          1400 DI3130               1BZ
113015000113015               113015               170213A1     1400+00000+A10000010216+0000010216+000000000+000001433+0000011649+0000000000+I40000011649+0000000000+Z
113015001113015019-071596     113015006001023733078PEBBLES GLS 250g ASSTD.0000004000+00001753+00000+0001T   00001753+0000001402          1400 DI3510               1BZ
113015002113015016-006515-A   113015006003000461707S/JAR GLS W/HANDLE 500 0000002000+00001578+00000+0001T   00001753+0008191402          1400 DI3300               1BZ
113015003113015112-116069     113015006009681820277TCS CARRIER BAG JUMBO  0000001000+00000048+00000+0001T   00000048+0000001402          1400 DI3090               1BZ
113016000113016               113016               170213A1     1400+00000+A10000005260+0000005260+000000000+000000737+0000005997+0000000000+I40000005997+0000000000+Z
113016001113016133-000012     113016006001023561084CLEANING-CLOTH GREEN   0000001000+00001753+00000+0001T   00001753+0000001505          1400 DI3212               1BZ
113016002113016133-000017     113016006003000525171CLEANING-CLOTHS 5PCE   0000001000+00003507+00000+0001T   00003507+0000001505          1400 DI3212               1BZ
113017000113017               113017               170213A1     1400+00000+A10000006136+0000006136+000000000+000000861+0000006990+0000000007+I20000000000+0000006990+Z
113017001113017077-000151     113017006008766114676GIFT-WRAP C/PHANE ASSTD0000001000+00000876+00000+0001T   00000876+0000001507          1400 DI3112               1BZ
113017002113017077-000235     113017006003000160211GIFT-RIBBON ROLL METALC0000002000+00002630+00000+0001T   00002630+0000001507          1400 DI3112               1BZ
113018000113018               113018               170213A1     1400+00000+A10000015820+0000015820+000000000+000002216+0000018036+0000000000+I40000018036+0000000000+Z
113018001113018050-004107-Z   113018006001023812629PADLOCK DISCUS S/S 70mm0000001000+00007893+00000+0001T   00007893+0000001510          1400 DI3855               1BZ
113018002113018004-078993     113018006001023716569EARPHONES W/1.1m CORD  0000001000+00004385+00000+0001T   00004385+0000001510          1400 DI3310               1BZ
113018003113018004-071204     113018006003000624904USB IN-CAR CHARGER 2.1A0000001000+00003507+00000+0001T   00003507+0000001510          1400 DI3310               1BZ
113018004113018112-116038     113018006009681820246TCS CARRIER BAG MIDI   0000001000+00000035+00000+0001T   00000035+0000001510          1400 DI3090               1BZ
113019000113019               113019               170213A1     1400+00000+A10000002192+0000002192+000000000+000000307+0000002490+0000000009+I20000000000+0000002490+Z
113019001113019566-000068     113019006003000418046POP UP LOVE 2 ASSTD    0000001000+00002192+00000+0001T   00002192+0000001512          1400 DI3130               1BZ
113020000113020               113020               170213A1     1400+00000+A10000001753+0000001753+000000000+000000246+0000001990+0000000009+I20000000000+0000001990+Z
113020001113020006-000120     113020006001023346889BALLOONS 10PC MIX COL  0000001000+00001753+00000+0001T   00001753+0000001517          1400 DI3131               1BZ
113021000113021               113021               170213A1     1400+00000+A10000006697+0000006697+000000000+000000939+0000007636+0000000000+I40000007636+0000000000+Z
113021001113021566-000068     113021006003000418046POP UP LOVE 2 ASSTD    0000001000+00002192+00000+0001T   00002192+0000001519          1400 DI3130               1BZ
113021002113021018-000170     113021006001023775528MUG OCC. LOVE 2PC MINI 0000001000+00002192+00000+0001T   00002192+0000001519          1400 DI3515               1BZ
113021003113021565-000071     113021006003000643387NOVELTY WIND UP CHATTER0000002000+00001139+00000+0001T   00001139+0000001519          1400 DI3745               1BZ
113021004113021112-116038     113021006009681820246TCS CARRIER BAG MIDI   0000001000+00000035+00000+0001T   00000035+0000001519          1400 DI3090               1BZ
113022000113022               113022               170213A1     1400+00000+A10000006611+0000006611+000000000+000000926+0000007530+0000000007+I20000000000+0000007530+Z
113022001113022366-000255     113022006001023918413DRESS UP TIARA CROWN   0000001000+00003069+00000+0001T   00003069+0000001520          1400 DI3131               1BZ
113022002113022362-002447     113022006001023793188GIRL NECKLACE+HAIRCLIP 0000001000+00003507+00000+0001T   00003507+0000001520          1400 DI3160               1BZ
113022003113022112-116038     113022006009681820246TCS CARRIER BAG MIDI   0000001000+00000035+00000+0001T   00000035+0000001520          1400 DI3090               1BZ
113023000113023               113023               170213A1     1400+00000+A10000001837+0000001837+000000000+000000258+0000002090+0000000005+I20000000000+0000002090+Z
113023002113023018-000177     113023006001023797513MUG MINI LOVE ASSTD    0000002000+00000700+00000+0001T   00000700+0000001521          1400 DI3515               1BZ
113023003113023080-000133     113023006003000535613CARD&ENV MINI ASTD DSGN0000001000+00000437+00000+0001T   00000437+0000001521          1400 DI3112               1BZ
113024000113024               113024               170213A1     1400+00000+A10000001971+0000001971+000000000+000000277+0000002240+0000000008+I20000000000+0000002240+Z
113024001113024903-000183     113024006003000451043SWT LB HEART LOLLY     0000001000+00000393+00000+0001T   00000393+0000001523          1400 DI3150               1BZ
113024002113024018-000127     113024006001023380289MUG OCC STRAIGHT LOVE  0000001000+00001578+00000+0001T   00001753+0006471523          1400 DI3515               1BZ
113025000113025               113025               170213A1     1400+00000+A10000001227+0000001227+000000000+000000172+0000001390+0000000009+I20000000000+0000001390+Z
113025001113025077-000245     113025006001023759214GIFT-RIBBON METALLICx2 0000001000+00001227+00000+0001T   00001227+0000001524          1400 DI3112               1BZ
113026000113026               113026               170213A1     1400+00000+A10000007573+0000007573+000000000+000001061+0000008634+0000000000+I40000008634+0000000000+Z
113026001113026112-116038     113026006009681820246TCS CARRIER BAG MIDI   0000001000+00000035+00000+0001T   00000035+0000001528          1400 DI3090               1BZ
113026002113026018-000170     113026006001023775528MUG OCC. LOVE 2PC MINI 0000001000+00002192+00000+0001T   00002192+0000001528          1400 DI3515               1BZ
113026003113026565-000071     113026006003000643387NOVELTY WIND UP CHATTER0000001000+00001139+00000+0001T   00001139+0000001528          1400 DI3745               1BZ
113026004113026018-000130     113026006001023867537MUG OCC LOVE MINI+HEART0000001000+00003507+00000+0001T   00003507+0000001528          1400 DI3515               1BZ
113026005113026018-000177     113026006001023797513MUG MINI LOVE ASSTD    0000001000+00000700+00000+0001T   00000700+0000001528          1400 DI3515               1BZ
113027000113027               113027               170213A1     1400+00000+A10000014072+0000014072+000000000+000001975+0000016047+0000000000+I40000016047+0000000000+Z
113027001113027012-000001     113027006003000331048MICRO PLATE-COVER 26X6 0000008000+00001753+00000+0001T   00002192+0008191530          1400 DI3300               1BZ
113027002113027112-116069     113027006009681820277TCS CARRIER BAG JUMBO  0000001000+00000048+00000+0001T   00000048+0000001530          1400 DI3090               1BZ
113028000113028               113028               170213A1     1400+00000+A10000001490+0000001490+000000000+000000209+0000001690+0000000009+I20000000000+0000001690+Z
113028001113028077-000399     113028006003000139514GIFT BAG 18X23CM E/DAY 0000001000+00001490+00000+0001T   00001490+0000001531          1400 DI3112               1BZ
113029000113029               113029               170213A1     1400+00000+A10000004680+0000004680+000000000+000000656+0000005336+0000000000+I40000005336+0000000000+Z
113029001113029080-000124     113029006003000297733CARD & ENV VALENTINES  0000001000+00001578+00000+0001T   00001578+0000001536          1400 DI3112               1BZ
113029002113029306-000002     113029006003000365852NAIL BRUSHES 3PC ASTD  0000001000+00001753+00000+0001T   00001753+0000001536          1400 DI3200               1BZ
113029003113029034-000329     113029006001023564290BOTTLE-BRUSHES WHT 2PCE0000001000+00001314+00000+0001T   00001314+0000001536          1400 DI3215               1BZ
113029004113029112-116038     113029006009681820246TCS CARRIER BAG MIDI   0000001000+00000035+00000+0001T   00000035+0000001536          1400 DI3090               1BZ
113030000113030               113030               170213A1     1400+00000+A10000003067+0000003067+000000000+000000430+0000003490+0000000007+I20000000000+0000003490+Z
113030001113030077-000310     113030006001023608635GIFT-BAG 18X23CM GLOSS 0000001000+00001314+00000+0001T   00001314+0000001537          1400 DI3112               1BZ
113030002113030016-006509     113030006003000567355S/JAR GLS MINI LABEL   0000001000+00001753+00000+0001T   00002192+0008191537          1400 DI3300               1BZ
113031000113031               113031               170213A1     1400+00000+A10000003418+0000003418+000000000+000000480+0000003898+0000000000+I40000003898+0000000000+Z
113031001113031018-000129     113031006001023403353MUG OCC. LOVE V-SHAPE  0000001000+00002630+00000+0001T   00002630+0000001554          1400 DI3515               1BZ
113031002113031903-000137     113031006002099004130SWEET GS JELLY BEAN 60G0000001000+00000788+00000+0001T   00000788+0000001554          1400 DI3150               1BZ
113032000113032               113032               170213A1     1400+00000+A10000017234+0000017234+000000000+000002415+0000019649+0000000000+I40000019649+0000000000+Z
113032001113032112-116069     113032006009681820277TCS CARRIER BAG JUMBO  0000001000+00000048+00000+0001T   00000048+0000001555          1400 DI3090               1BZ
113032002113032174-000305     113032006003000105502TRAVEL NECK-PILLOW     0000001000+00007016+00000+0001T   00007016+0000001555          1400 DI3205               1BZ
113032003113032048-071505     113032006001023714626TOUCH-LIGHTS 8cm  SET-20000001000+00004385+00000+0001T   00004385+0000001555          1400 DI3305               1BZ
113032004113032046-000014     113032006001023725387BATTERIES SIZE:AAA 4PCE0000002000+00001139+00000+0001T   00001139+0000001555          1400 DI3312               1BZ
113032005113032071-000306     113032006001023715371STENCILS ART FUN SET   0000001000+00003507+00000+0001T   00003507+0000001555          1400 DI3130               1BZ
113033000113033               113033               170213A1     1400+00000+A10000002924+0000002924+000000000+000000411+0000003330+0000000005+I20000000000+0000003330+Z
113033001113033306-000021     113033006001023169433EARBUDS 100PCE IN BAG  0000004000+00000613+00000+0001T   00000613+0000001556          1400 DI3200               1BZ
113033002113033080-000133     113033006003000535613CARD&ENV MINI ASTD DSGN0000001000+00000437+00000+0001T   00000437+0000001556          1400 DI3112               1BZ
113033003113033112-116038     113033006009681820246TCS CARRIER BAG MIDI   0000001000+00000035+00000+0001T   00000035+0000001556          1400 DI3090               1BZ
113034000113034               113034               170213A1     1400+00000+A10000007012+0000007012+000000000+000000984+0000007990+0000000006+I20000000000+0000007990+Z
113034001113034046-002032-PK2 113034004897006175063BATTERIES CR-2032  2PCE0000001000+00001753+00000+0001T   00001753+0000001557          1400 DI3312               1BZ
113034002113034046-002016-PK2 113034004897006175056BATTERIES CR-2016  2PCE0000003000+00001753+00000+0001T   00001753+0000001557          1400 DI3312               1BZ
113035000113035               113035               170213A1     1400+00000+A10000001314+0000001314+000000000+000000184+0000001498+0000000000+I40000001498+0000000000+Z
113035001113035077-000310     113035006001023608635GIFT-BAG 18X23CM GLOSS 0000001000+00001314+00000+0001T   00001314+0000001600          1400 DI3112               1BZ
113036000113036               113036               170213A1     1400+00000+A10000018972+0000018972+000000000+000002665+0000021637+0000000000+I40000021637+0000000000+Z
113036001113036077-000310     113036006001023608635GIFT-BAG 18X23CM GLOSS 0000003000+00001314+00000+0001T   00001314+0000001604          1400 DI3112               1BZ
113036002113036018-000129     113036006001023403353MUG OCC. LOVE V-SHAPE  0000002000+00002630+00000+0001T   00002630+0000001604          1400 DI3515               1BZ
113036003113036018-000127     113036006001023380289MUG OCC STRAIGHT LOVE  0000003000+00001578+00000+0001T   00001753+0006471604          1400 DI3515               1BZ
113036004113036903-000594     113036006003000564057SWT SWORD 18cm J/BEAN  0000001000+00002630+00000+0001T   00002630+0000001604          1400 DI3150               1BZ
113036005113036112-116069     113036006009681820277TCS CARRIER BAG JUMBO  0000001000+00000048+00000+0001T   00000048+0000001604          1400 DI3090               1BZ
113036006113036903-000183     113036006003000451043SWT LB HEART LOLLY     0000006000+00000393+00000+0001T   00000393+0000001604          1400 DI3150               1BZ
113037000113037               113037               170213A1     1400+00000+A10000001753+0000001753+000000000+000000246+0000001990+0000000009+I20000000000+0000001990+Z
113037001113037006-000120     113037006001023346889BALLOONS 10PC MIX COL  0000001000+00001753+00000+0001T   00001753+0000001605          1400 DI3131               1BZ
113038000113038               113038               170213A1     1400+00000+A10000001753+0000001753+000000000+000000246+0000001999+0000000000+I40000001999+0000000000+Z
113038001113038077-000239     113038006003000160419GIFT-RIBBON ROLL PEARL 0000001000+00001753+00000+0001T   00001753+0000001611          1400 DI3112               1BZ
113039000113039               113039               170213A1     1400+00000+A10000004385+0000004385+000000000+000000614+0000004999+0000000000+I40000004999+0000000000+Z
113039001113039082-000110     113039006003000360482READING GLS STRENGHT:2 0000001000+00004385+00000+0001T   00004385+0000001616          1400 DI3160               1BZ
113040000113040               113040               170213A1     1400+00000+A10000006187+0000006187+000000000+000000867+0000007054+0000000000+I40000007054+0000000000+Z
113040001113040266-001002     113040006001023914163PLAYSET SWORD & WEAPON 0000001000+00006139+00000+0001T   00006139+0000001620          1400 DI3710               1BZ
113040002113040112-116069     113040006009681820277TCS CARRIER BAG JUMBO  0000001000+00000048+00000+0001T   00000048+0000001620          1400 DI3090               1BZ
113041000113041               113041               170213A1     1400+00000+A10000001314+0000001314+000000000+000000184+0000001498+0000000000+I40000001498+0000000000+Z
113041001113041077-000312     113041006001023608697GIFT-BAG 10X35CM GLOSS 0000001000+00001314+00000+0001T   00001314+0000001622          1400 DI3112               1BZ
113042000113042               113042               170213A1     1400+00000+A10000003506+0000003506+000000000+000000492+0000003998+0000000000+I40000003998+0000000000+Z
113042001113042366-006104     113042006003000616930DRESS UP FACE PAINT    0000002000+00001753+00000+0001T   00001753+0000001625          1400 DI3131               1BZ
113043000113043               113043               170213A1     1400+00000+A10000004500+0000004500+000000000+000000631+0000005130+0000000001+I20000000000+0000005130+Z
113043001113043566-002000     113043000721129013206STICKERS CRYSTAL ASSTD 0000003000+00000700+00000+0001T   00000700+0000001628          1400 DI3130               1BZ
113043002113043079-006496     113043006003000160105GLITTER SHAKERS        0000001000+00001753+00000+0001T   00001753+0000001628          1400 DI3130               1BZ
113043003113043079-009700-M   113043006003000634101PAPER SIRIO A4 PINK COL0000002000+00000306+00000+0001T   00000306+0000001628          1400 DI3130               1BZ
113043004113043112-116038     113043006009681820246TCS CARRIER BAG MIDI   0000001000+00000035+00000+0001T   00000035+0000001628          1400 DI3090               1BZ
113044000113044               113044               170213A1     1400+00000+A10000003507+0000003507+000000000+000000491+0000003998+0000000000+I40000003998+0000000000+Z
113044001113044018-000136     113044006001023659026MUG OCC LOVE W/PLUSH   0000001000+00003507+00000+0001T   00003507+0000001629          1400 DI3515               1BZ
113045000113045               113045               170213A1     1400+00000+A10000001578+0000001578+000000000+000000221+0000001790+0000000009+I20000000000+0000001790+Z
113045001113045080-000124     113045006003000297733CARD & ENV VALENTINES  0000001000+00001578+00000+0001T   00001578+0000001633          1400 DI3112               1BZ
113046000113046               113046               170213A1     1400+00000+A10000056537+0000056537+000000000+000007923+0000064460+0000000000+I40000064460+0000000000+Z
113046001113046112-116053     113046006006438002399TCS CARRIER BAG 38L    0000001000+00000069+00000+0001T   00000069+0000001635          1400 DI3090               1BZ
113046002113046466-000006     113046006003000098545PLAY-TENT PL POP-UP BOY0000001000+00021928+00000+0001T   00021928+0000001635          1400 DI3785               1BZ
113046003113046019-071610     113046006001023904560PEBBLES WATER GEMS 10g 0000007000+00001490+00000+0001T   00001490+0000001635          1400 DI3510               1BZ
113046004113046019-071597     113046006008766071597PEBBLES 250g CLEAR  BAG0000005000+00002192+00000+0001T   00002192+0000001635          1400 DI3510               1BZ
113046005113046019-071594     113046006003000505579PEBBLES GLS 250g RED   0000005000+00002630+00000+0001T   00002630+0000001635          1400 DI3510               1BZ
113047000113047               113047               170213A1     1400+00000+A10000001753+0000001753+000000000+000000246+0000001990+0000000009+I20000000000+0000001990+Z
113047001113047301-086008     113047006003000426829ORN MUM MESSAGE W/ACC. 0000001000+00001753+00000+0001T   00001753+0000001636          1400 DI3505               1BZ
113048000113048               113048               170213A1     1400+00000+A10000004385+0000004385+000000000+000000614+0000004999+0000000000+I40000004999+0000000000+Z
113048001113048368-000049     113048006003000536955PLUSH BEAR 15cm LOVE   0000001000+00004385+00000+0001T   00004385+0000001637          1400 DI3745               1BZ
113049000113049               113049               170213A1     1400+00000+A10000003507+0000003507+000000000+000000491+0000003990+0000000008+I20000000000+0000003990+Z
113049001113049018-000136     113049006001023659026MUG OCC LOVE W/PLUSH   0000001000+00003507+00000+0001T   00003507+0000001637          1400 DI3515               1BZ
113050000113050               113050               170213A1     1400+00000+A10000009678+0000009678+000000000+000001356+0000011030+0000000004+I20000000000+0000011030+Z
113050001113050368-000049     113050006003000536955PLUSH BEAR 15cm LOVE   0000001000+00004385+00000+0001T   00004385+0000001639          1400 DI3745               1BZ
113050002113050903-000194     113050006009826020616SWT CHOC RP LOLLY 25G  0000001000+00001314+00000+0001T   00001314+0000001639          1400 DI3150               1BZ
113050003113050077-000310     113050006001023608635GIFT-BAG 18X23CM GLOSS 0000001000+00001314+00000+0001T   00001314+0000001639          1400 DI3112               1BZ
113050004113050018-000129     113050006001023403353MUG OCC. LOVE V-SHAPE  0000001000+00002630+00000+0001T   00002630+0000001639          1400 DI3515               1BZ
113050005113050112-116038     113050006009681820246TCS CARRIER BAG MIDI   0000001000+00000035+00000+0001T   00000035+0000001639          1400 DI3090               1BZ
113051000113051               113051               170213A1     1400+00000+A10000000393+0000000393+000000000+000000056+0000000440+0000000009+I20000000000+0000000440+Z
113051001113051903-000183     113051006003000451043SWT LB HEART LOLLY     0000001000+00000393+00000+0001T   00000393+0000001641          1400 DI3150               1BZ
113052000113052               113052               170213A1     1400+00000+A10000004383+0000004383+000000000+000000615+0000004990+0000000008+I20000000000+0000004990+Z
113052001113052306-000024-A   113052006003000577309COTTON-WOOL-PADS 80PC  0000001000+00001753+00000+0001T   00001753+0000001645          1400 DI3200               1BZ
113052002113052306-000977     113052006003000559596FIRSTAID PLASTER 75PC  0000001000+00002630+00000+0001T   00002630+0000001645          1400 DI3200               1BZ
113053000113053               113053               170213A1     1400+00000+A10000003856+0000003856+000000000+000000540+0000004390+0000000006+I20000000000+0000004390+Z
113053001113053174-008024     113053006009654960368TRAVEL BOTTLES 2-PACK  0000002000+00001928+00000+0001T   00001928+0000001647          1400 DI3205               1BZ
113054000113054               113054               170213A1     1400+00000+A10000000437+0000000437+000000000+000000062+0000000490+0000000009+I20000000000+0000000490+Z
113054001113054080-000133-A   113054006003000647019MINI VALENTINES CARD   0000001000+00000437+00000+0001T   00000437+0000001649          1400 DI3112               1BZ
113055000113055               113055               170213A1     1400+00000+A10000003328+0000003328+000000000+000000468+0000003796+0000000000+I40000003796+0000000000+Z
113055001113055077-000011-L   113055006001023808585P/TISSUE BRIGHT 10SHEET0000001000+00000876+00000+0001T   00000876+0000001651          1400 DI3112               1BZ
113055002113055077-000010-D   113055006001023123886CREPE-PAPER WHITE      0000002000+00000788+00000+0001T   00000788+0000001651          1400 DI3112               1BZ
113055003113055077-000011-L   113055006001023808585P/TISSUE BRIGHT 10SHEET0000001000+00000876+00000+0001T   00000876+0000001651          1400 DI3112               1BZ
113056000113056               113056               170213A1     1400+00000+A10000013364+0000013364+000000000+000001872+0000015236+0000000000+I40000015236+0000000000+Z
113056001113056140-001004     113056006001023880932FLY-RIBBONS 4PCE PL    0000001000+00001490+00000+0001T   00001490+0000001653          1400 DI3830               1BZ
113056002113056031-000864-A   113056006001023798350P/FRAME MAHOGANY 10X15 0000001000+00003069+00000+0001T   00003069+0000001653          1400 DI3510               1BZ
113056003113056018-030000     113056006003000421060MUG OCCASIONS LOVE 2PCE0000001000+00004385+00000+0001T   00004385+0000001653          1400 DI3515               1BZ
113056004113056112-116038     113056006009681820246TCS CARRIER BAG MIDI   0000001000+00000035+00000+0001T   00000035+0000001653          1400 DI3090               1BZ
113056005113056018-030000     113056006003000421060MUG OCCASIONS LOVE 2PCE0000001000+00004385+00000+0001T   00004385+0000001653          1400 DI3515               1BZ
113057000113057               113057               170213A1     1400+00000+A10000008805+0000008805+000000000+000001233+0000010038+0000000000+I40000010038+0000000000+Z
113057001113057206-000180     113057006003000631223TEA INFUSER TEAMAN     0000002000+00004385+00000+0001T   00004385+0000001656          1400 DI3321               1BZ
113057002113057112-116038     113057006009681820246TCS CARRIER BAG MIDI   0000001000+00000035+00000+0001T   00000035+0000001656          1400 DI3090               1BZ
113058000113058               113058               170213A1     1400+00000+A10000005872+0000005872+000000000+000000824+0000006690+0000000006+I20000000000+0000006690+Z
113058001113058002-000878     113058006001023770967STRAINER TEA WIRE 7cm  0000001000+00001490+00000+0001T   00001490+0000001656          1400 DI3300               1BZ
113058002113058024-006874     113058006001023769978PASTRY-BRUSH SQ WHITE  0000001000+00001753+00000+0001T   00001753+0000001656          1400 DI3300               1BZ
113058003113058133-000012     113058006001023561084CLEANING-CLOTH GREEN   0000001000+00001753+00000+0001T   00001753+0000001656          1400 DI3212               1BZ
113058004113058077-000011-D   113058006001023808554TISSUE-WRAP WHITE 10PCE0000001000+00000876+00000+0001T   00000876+0000001656          1400 DI3112               1BZ
113059000113059               113059               170213A1     1400+00000+A10000000874+0000000874+000000000+000000124+0000000990+0000000008+I20000000000+0000000990+Z
113059001113059080-000133     113059006003000535613CARD&ENV MINI ASTD DSGN0000002000+00000437+00000+0001T   00000437+0000001657          1400 DI3112               1BZ
113060000113060               113060               170213A1     1400+00000+A10000003506+0000003506+000000000+000000492+0000003998+0000000000+I40000003998+0000000000+Z
113060001113060039-001023     113060006003000466337CANDLE TEA-LITE METALIC0000002000+00001753+00000+0001T   00001753+0000001659          1400 DI3510               1BZ
113061000113061               113061               170213A1     1400+00000+A10000001314+0000001314+000000000+000000184+0000001490+0000000008+I20000000000+0000001490+Z
113061001113061034-000329     113061006001023564290BOTTLE-BRUSHES WHT 2PCE0000001000+00001314+00000+0001T   00001314+0000001701          1400 DI3215               1BZ
113062000113062               113062               170213A1     1400+00000+A10000008806+0000008806+000000000+000001233+0000010030+0000000009+I20000000000+0000010030+Z
113062001113062001-091415     113062006003000329113W/GLS OCC. LOVE 2PC 2800000001000+00008771+00000+0001T   00009648+0006471702          1400 DI3515               1BZ
113062002113062112-116038     113062006009681820246TCS CARRIER BAG MIDI   0000001000+00000035+00000+0001T   00000035+0000001702          1400 DI3090               1BZ
113063000113063               113063               170213A1     1400+00000+A10000001214+0000001214+000000000+000000173+0000001380+0000000007+I20000000000+0000001380+Z
113063001113063903-000183     113063006003000451043SWT LB HEART LOLLY     0000003000+00000393+00000+0001T   00000393+0000001702          1400 DI3150               1BZ
113063002113063112-116038     113063006009681820246TCS CARRIER BAG MIDI   0000001000+00000035+00000+0001T   00000035+0000001702          1400 DI3090               1BZ
113064000113064               113064               170213A1     1400+00000+A10000007893+0000007893+000000000+000001106+0000008999+0000000000+I40000008999+0000000000+Z
113064001113064082-007583     113064006003000465842SUNGLASSES POLARIZE    0000001000+00007893+00000+0001T   00007893+0000001705          1400 DI3160               1BZ
113065000113065               113065               170213A1     1400+00000+A10000001753+0000001753+000000000+000000246+0000001999+0000000000+I40000001999+0000000000+Z
113065001113065006-000120     113065006001023346889BALLOONS 10PC MIX COL  0000001000+00001753+00000+0001T   00001753+0000001707          1400 DI3131               1BZ
113066000113066               113066               170213A1     1400+00000+A10000003542+0000003542+000000000+000000496+0000004038+0000000000+I40000004038+0000000000+Z
113066001113066567-011906     113066006003000676286BK PROMO CLEARANCE     0000001000+00003507+00000+0001T   00004385+0008141708          1400 DI3757               1BZ
113066002113066112-116038     113066006009681820246TCS CARRIER BAG MIDI   0000001000+00000035+00000+0001T   00000035+0000001708          1400 DI3090               1BZ
113067000113067               113067               170213A1     1400+00000+A10000002104+0000002104+000000000+000000295+0000002390+0000000009+I20000000000+0000002390+Z
113067001113067903-000095     113067006001704011495SWT SPECKLED-EGGS 100G 0000001000+00002104+00000+0001T   00002104+0000001709          1400 DI3150               1BZ
113068000113068               113068               170213A1     1400+00000+A10000001182+0000001182+000000000+000000166+0000001340+0000000008+I20000000000+0000001340+Z
113068001113068077-000011-D   113068006001023808554TISSUE-WRAP WHITE 10PCE0000001000+00000876+00000+0001T   00000876+0000001711          1400 DI3112               1BZ
113068002113068079-009700-B   113068006003000547661PAPER SIRIO A4 WHITE   0000001000+00000306+00000+0001T   00000306+0000001711          1400 DI3130               1BZ
113069000113069               113069               170213A1     1400+00000+A10000004417+0000004417+000000000+000000620+0000005037+0000000000+I40000005037+0000000000+Z
113069001113069019-000130     113069006003000456130PLANTER T/PLATE W/HNDL 0000002000+00001753+00000+0001T   00001753+0000001736          1400 DI3510               1BZ
113069002113069077-000150-D   113069006003000054343GIFT-WRAP CELLPHANE CLR0000001000+00000876+00000+0001T   00000876+0000001736          1400 DI3112               1BZ
113069003113069112-116038     113069006009681820246TCS CARRIER BAG MIDI   0000001000+00000035+00000+0001T   00000035+0000001736          1400 DI3090               1BZ
113070000113070               113070               170213A1     1400+00000+A10000002630+0000002630+000000000+000000369+0000002990+0000000009+I20000000000+0000002990+Z
113070001113070467-000038     113070006003000654864BEACH-SET PL TRUCK 5PC 0000001000+00002630+00000+0001T   00002630+0000001738          1400 DI3785               1BZ
C11302300                                          170213A1080-000100     15212432SLAVE 1     DI31IC0000000000+0000000000+0010000001000+
C11303100                                          170213A1304-001204     15490377SLAVE 1     DI32IC0000000000+0000000000+0010000001000+
M17021391                              CASH        A1SLAVE 1                       Z-REPORT No.   664TOTAL (Sales - Refunds)           6057.01       CASH TO BE BANKED                 2306.70       DEBIT CARDS                          0.00       CREDIT CARDS                      3701.51       Z-READING                         6008.21       AIRTIME DEBIT CARD SALES             0.00       AIRTIME CARD SALES                   0.00       OVERS/UNDERS                         0.00       AIRTIME CASH SALES                   0.00       GIFT CARDS                           0.00       GIFT CARD CASH SALES                 0.00       CLEANING-MATERIALS                  19.90       STATIONERY(PHOTOCOPIES)             28.90       T O T A L  CASH PAYOUTS             48.80                                                                                                                                                                                                                                                      Z
M17021392                              CASH        A1ABSENT                                                                                                                                                                                          ANNUAL LEAVE                                                                                                                                                                                    DAY OFF                                                                                                                                                                                         COMMENTS                                                                                                                                                                                                                                                                                                                                                                                       Z
Y17021300                                          A100000000531633+000102
ZA117021321223 SLAVE 1      SALES DATA                     NEXT INVOICE NO.  113071 0664
F094822304-001011         1702100934350000202ICSLAVE 1
X A1 Slave 1 First invoice 112967 170213 Last invoice 113070 170213 Next invoice 113071 Total number of records 000000331 clbackup completed 21:22:42
