127420000127420               127420               170213A1     1400+00000+A10000001314+0000001314+000000000+000000184+0000001490+0000000008+I20000000000+0000001490+Z
127420001127420563-000317-B   127420006001023776174SERVIETTES PLN WHT PK400000001000+00001314+00000+0001T   00001314+0000000958          1400 LO3214               2AZ
127421000127421               127421               170213A1     1400+00000+A10000001752+0000001752+000000000+000000246+0000001998+0000000000+I40000001998+0000000000+Z
127421001127421007-000127     127421006009685853431BOOK H/COVER MEMO 144PG0000002000+00000876+00000+0001T   00000876+0000000959          1400 LO3130               2AZ
127422000127422               127422               170213A1     1400+00000+A10000001753-0000001753-000000000+000000246-0000002000-0000000001+I20000000000+0000002000-Z
127422001127422080-000111     127422006003000252695CARD&ENVELPE - MUSICAL 0000001000-00001753+00000+0001T   00001753+0000001001          1400 LO31122IC            2 Z
127423000127423               127423               170213A1     1400+00000+A10000004505+0000004505+000000000+000000632+0000005130+0000000007+I20000000000+0000005130+Z
127423001127423024-000036     127423006001023477002MEASURING-JUG 500ml    0000001000+00001578+00000+0001T   00001578+0000001008          1400 LO3300               2AZ
127423002127423033-001363     127423006001023802057HAIR-CLIPS 50mm 48PCE  0000001000+00001139+00000+0001T   00001139+0000001008          1400 LO3200               2AZ
127423003127423306-000973     127423006003000559473FIRSTAID PLASTER 30PC  0000001000+00001753+00000+0001T   00001753+0000001008          1400 LO3200               2AZ
127423004127423112-116038     127423006009681820246TCS CARRIER BAG MIDI   0000001000+00000035+00000+0001T   00000035+0000001008          1400 LO3090               2AZ
127424000127424               127424               170213A1     1400+00000+A10000003790-0000000000+000000000+000000000+0000003790-0000000000+I20000000000+0000003790-Z
127424001127424001-999909     127424000000000999909STAFF-REFRESHMENTS     0000001000-00003790+00000+0001X   00000000+0000001011          0000 LO39092IC            2 Z
127425000127425               127425               170213A1     1400+00000+A10000006139+0000006139+000000000+000000860+0000006990+0000000009+I20000000000+0000006990+Z
127425001127425035-000001     127425006002596010566UMBRELLA LADIES W/MINI 0000001000+00006139+00000+0001T   00006139+0000001011          1400 LO3205               2AZ
127426000127426               127426               170213A1     1400+00000+A10000010259+0000010259+000000000+000001438+0000011697+0000000000+I40000011697+0000000000+Z
127426001127426079-006494     127426006003000159864GLITTER GLUE 5PCE 11cm 0000001000+00001490+00000+0001T   00001490+0000001012          1400 LO3130               2AZ
127426002127426079-000282     127426006001023493309PAINT TUBS POSTER 12COL0000001000+00002630+00000+0001T   00002630+0000001012          1400 LO3130               2AZ
127426003127426007-000323     127426006009697791042PAPER A4 80GSM 100'S   0000001000+00006139+00000+0001T   00006139+0000001012          1400 LO3130               2AZ
127427000127427               127427               170213A1     1400+00000+A10000000874+0000000874+000000000+000000124+0000000990+0000000008+I20000000000+0000000990+Z
127427001127427083-000049     127427004891035200024CIG-LIGHTER DISPOSABLE 0000002000+00000437+00000+0001T   00000437+0000001015          1400 LO3315               2AZ
127428000127428               127428               170213A1     1400+00000+A10000006752+0000006752+000000000+000000946+0000007690+0000000008+I20000000000+0000007690+Z
127428001127428018-019000     127428006003000557288MUG OCC. LOVE JUMBO    0000001000+00005262+00000+0001T   00005262+0000001016          1400 LO3515               2AZ
127428002127428077-000299     127428006003000395576G/BAG 32x25cm LRG LOVE 0000001000+00001490+00000+0001T   00001490+0000001016          1400 LO3112               2AZ
127429000127429               127429               170213A1     1400+00000+A10000003942+0000003942+000000000+000000552+0000004490+0000000004+I20000000000+0000004490+Z
127429001127429903-000194     127429006009826020616SWT CHOC RP LOLLY 25G  0000003000+00001314+00000+0001T   00001314+0000001016          1400 LO3150               2AZ
127430000127430               127430               170213A1     1400+00000+A10000002628+0000002628+000000000+000000368+0000002990+0000000006+I20000000000+0000002990+Z
127430001127430903-000194     127430006009826020616SWT CHOC RP LOLLY 25G  0000002000+00001314+00000+0001T   00001314+0000001017          1400 LO3150               2AZ
127431000127431               127431               170213A1     1400+00000+A10000007890+0000007890+000000000+000001106+0000008996+0000000000+I40000008996+0000000000+Z
127431001127431027-783000     127431006001023874641SCOURERS RAINBOW 5PCE  0000001000+00001753+00000+0001T   00001753+0000001044          1400 LO3212               2AZ
127431002127431072-020310     127431006001023701015PET TOY MINI TENNIS BAL0000001000+00003507+00000+0001T   00003507+0000001044          1400 LO3870               2AZ
127431003127431072-020312     127431006003000605330PET TOY PUP STARTER PCK0000001000+00002630+00000+0001T   00002630+0000001044          1400 LO3870               2AZ
127432000127432               127432               170213A1     1400+00000+A10000001753+0000001753+000000000+000000246+0000001990+0000000009+I20000000000+0000001990+Z
127432001127432079-003001     127432006003000448951A/TUBE 75ML BLACK      0000001000+00001753+00000+0001T   00001753+0000001128          1400 LO3130               2AZ
127433000127433               127433               170213A1     1400+00000+A10000002364+0000002364+000000000+000000333+0000002690+0000000007+I20000000000+0000002690+Z
127433001127433903-000200     127433006009826020234SWT CHOC RP CHOCO 23G  0000003000+00000788+00000+0001T   00000788+0000001134          1400 LO3150               2AZ
127434000127434               127434               170213A1     1400+00000+A10000008771+0000008771+000000000+000001228+0000009999+0000000000+I40000009999+0000000000+Z
127434001127434486-002307     127434006003000443086W/CLOCK QTZ PL ANTIQUE 0000001000+00008771+00000+0001T   00008771+0000001143          1400 LO3510               2AZ
127435000127435               127435               170213A1     1400+00000+A10000003505+0000003505+000000000+000000492+0000003990+0000000007+I20000000000+0000003990+Z
127435001127435252-000013     127435006001023488107CURTN-HOOK R6 ACETYLx500000002000+00000876+00000+0001T   00000876+0000001145          1400 LO3810               2AZ
127435002127435104-000010     127435006001023507822BASKET 30x23cm RECT.   0000001000+00001753+00000+0001T   00001753+0000001145          1400 LO3210               2AZ
127436000127436               127436               170213A1     1400+00000+A10000001753+0000001753+000000000+000000246+0000001990+0000000009+I20000000000+0000001990+Z
127436001127436079-006496     127436006003000160105GLITTER SHAKERS        0000001000+00001753+00000+0001T   00001753+0000001145          1400 LO3130               2AZ
127437000127437               127437               170213A1     1400+00000+A10000008274+0000008274+000000000+000001160+0000009434+0000000000+I40000009434+0000000000+Z
127437001127437206-000630     127437006003000631919SPECTACLE CLEANING BRUS0000001000+00001227+00000+0001T   00001227+0000001148          1400 LO3321               2AZ
127437002127437206-000360     127437006003000631193CITRUS SPRAYER 3PC     0000001000+00001753+00000+0001T   00001753+0000001148          1400 LO3321               2AZ
127437003127437004-072001     127437006003000452378CABLE-TIDY REUSE COL-C 0000001000+00001753+00000+0001T   00001753+0000001148          1400 LO3310               2AZ
127437004127437002-000651     127437006003000467778TOASTER TONGS MAGNETIC 0000001000+00001314+00000+0001T   00001314+0000001148          1400 LO3300               2AZ
127437005127437024-000042     127437006002580009255M/CUP MINI 30ML H/HOUSE0000001000+00002192+00000+0001T   00002192+0000001148          1400 LO3300               2AZ
127437006127437112-116038     127437006009681820246TCS CARRIER BAG MIDI   0000001000+00000035+00000+0001T   00000035+0000001148          1400 LO3090               2AZ
127438000127438               127438               170213A1     1400+00000+A10000031568+0000031568+000000000+000004424+0000035992+0000000000+I40000035992+0000000000+Z
127438001127438047-000514-H   127438006001023427502EXT-CORD 10m DBL-J  H&H0000001000+00012279+00000+0001T   00012279+0000001149          1400 LO3880               2AZ
127438002127438107-004505     127438006003000677177STEP STOOL FOLDABLE    0000001000+00008771+00000+0001T   00008771+0000001149          1400 LO3210               2AZ
127438003127438466-000200     127438006001023621665HULA-HOOP     ASSTD    0000006000+00001753+00000+0001T   00001753+0000001149          1400 LO3785               2AZ
127439000127439               127439               170213A1     1400+00000+A10000001753+0000001753+000000000+000000246+0000001990+0000000009+I20000000000+0000001990+Z
127439001127439200-003024     127439006001023657299REFUSE BAGS 20PCE BLACK0000001000+00001753+00000+0001T   00001753+0000001152          1400 LO3214               2AZ
127440000127440               127440               170213A1     1400+00000+A10000005262+0000005262+000000000+000000737+0000005990+0000000009+I20000000000+0000005990+Z
127440001127440002-009894     127440006001023796646CUTTING-BOARD 30x40cm  0000001000+00005262+00000+0001T   00005262+0000001154          1400 LO3300               2AZ
127441000127441               127441               170213A1     1400+00000+A10000015853+0000015853+000000000+000002222+0000018070+0000000005+I20000000000+0000018070+Z
127441001127441266-000606     127441006003000657216BOYS PLAYSET ROCKET    0000002000+00006139+00000+0001T   00006139+0000001155          1400 LO3710               2AZ
127441002127441565-000002     127441006003000308071NOVELTY GROWING ANIMALS0000002000+00001753+00000+0001T   00001753+0000001155          1400 LO3745               2AZ
127441003127441112-116053     127441006006438002399TCS CARRIER BAG 38L    0000001000+00000069+00000+0001T   00000069+0000001155          1400 LO3090               2AZ
127442000127442               127442               170213A1     1400+00000+A10000004857+0000004857+000000000+000000681+0000005538+0000000000+I40000005538+0000000000+Z
127442001127442368-000049     127442006003000536955PLUSH BEAR 15cm LOVE   0000001000+00004385+00000+0001T   00004385+0000001203          1400 LO3745               2AZ
127442002127442080-000133-A   127442006003000647019MINI VALENTINES CARD   0000001000+00000437+00000+0001T   00000437+0000001203          1400 LO3112               2AZ
127442003127442112-116038     127442006009681820246TCS CARRIER BAG MIDI   0000001000+00000035+00000+0001T   00000035+0000001203          1400 LO3090               2AZ
127443000127443               127443               170213A1     1400+00000+A10000001753+0000001753+000000000+000000246+0000001990+0000000009+I20000000000+0000001990+Z
127443001127443566-000066     127443006003000283675STICKERS GLITTER 25PCS 0000001000+00001753+00000+0001T   00001753+0000001205          1400 LO3130               2AZ
127444000127444               127444               170213A1     1400+00000+A10000001314+0000001314+000000000+000000184+0000001490+0000000008+I20000000000+0000001490+Z
127444001127444077-000310     127444006001023608635GIFT-BAG 18X23CM GLOSS 0000001000+00001314+00000+0001T   00001314+0000001211          1400 LO3112               2AZ
127445000127445               127445               170213A1     1400+00000+A10000018617+0000018617+000000000+000002618+0000021235+0000000000+I40000021235+0000000000+Z
127445001127445031-000868-A   127445006001023798534P/FRAME PL BLCK 10X15CM0000003000+00002192+00000+0001T   00002192+0000001214          1400 LO3510               2AZ
127445002127445006-000124     127445006003000625888BALLOONS 10PC MIX COL  0000002000+00001753+00000+0001T   00001753+0000001214          1400 LO3131               2AZ
127445003127445006-000092     127445006001023739650BANNER BIRTHDAY PAPER  0000001000+00001753+00000+0001T   00001753+0000001214          1400 LO3131               2AZ
127445004127445112-116069     127445006009681820277TCS CARRIER BAG JUMBO  0000001000+00000048+00000+0001T   00000048+0000001214          1400 LO3090               2AZ
127445005127445903-000077     127445006939873501687SWT GS MAGIC ROCK FRUIT0000007000+00000525+00000+0001T   00000525+0000001214          1400 LO3150               2AZ
127445006127445903-000094     127445006923431501622SWT GS CANDY NECKLACE  0000007000+00000437+00000+0001T   00000437+0000001214          1400 LO3150               2AZ
127446000127446               127446               170213A1     1400+00000+A10000001753+0000001753+000000000+000000246+0000001990+0000000009+I20000000000+0000001990+Z
127446001127446200-003024     127446006001023657299REFUSE BAGS 20PCE BLACK0000001000+00001753+00000+0001T   00001753+0000001216          1400 LO3214               2AZ
127447000127447               127447               170213A1     1400+00000+A10000006868+0000006868+000000000+000000965+0000007830+0000000003+I20000000000+0000007830+Z
127447001127447306-000002     127447006003000365852NAIL BRUSHES 3PC ASTD  0000001000+00001753+00000+0001T   00001753+0000001218          1400 LO3200               2AZ
127447002127447007-000555     127447006001023848239MEMO-PAD MINI LOVE     0000002000+00000613+00000+0001T   00000613+0000001218          1400 LO3130               2AZ
127447003127447007-000566     127447006003000640898NOVELTY PHONE NOTE-PAD 0000002000+00001490+00000+0001T   00001490+0000001218          1400 LO3130               2AZ
127447004127447112-116038     127447006009681820246TCS CARRIER BAG MIDI   0000001000+00000035+00000+0001T   00000035+0000001218          1400 LO3090               2AZ
127447005127447080-000133-A   127447006003000647019MINI VALENTINES CARD   0000002000+00000437+00000+0001T   00000437+0000001218          1400 LO3112               2AZ
127448000127448               127448               170213A1     1400+00000+A10000006744+0000006744+000000000+000000948+0000007692+0000000000+I40000007692+0000000000+Z
127448001127448903-002850     127448000000087108262MENTOS ROLL FRUIT      0000001000+00001051+00000+0001T   00001051+0000001219          1400 LO3150               2AZ
127448002127448077-000322     127448006001023677532GIFT-BAG 18X23CM E/D FL0000002000+00001227+00000+0001T   00001227+0000001219          1400 LO3112               2AZ
127448003127448077-000011-D   127448006001023808554TISSUE-WRAP WHITE 10PCE0000001000+00000876+00000+0001T   00000876+0000001219          1400 LO3112               2AZ
127448004127448077-000010-C   127448006001023123879CREPE-PAPER RED        0000001000+00000788+00000+0001T   00000788+0000001219          1400 LO3112               2AZ
127448005127448903-000155     127448006009803374435SWT LOLLY I LUV U HEART0000003000+00000525+00000+0001T   00000525+0000001219          1400 LO3150               2AZ
127449000127449               127449               170213A1     1400+00000+A10000001227+0000001227+000000000+000000172+0000001390+0000000009+I20000000000+0000001390+Z
127449001127449077-000319     127449006001023609779GIFT-BAG 18X23CM BIRTHD0000001000+00001227+00000+0001T   00001227+0000001228          1400 LO3112               2AZ
127450000127450               127450               170213A1     1400+00000+A10000001227+0000001227+000000000+000000172+0000001390+0000000009+I20000000000+0000001390+Z
127450001127450077-000318     127450006001023609755GIFT-BAG 18X23CM E/D AN0000001000+00001227+00000+0001T   00001227+0000001238          1400 LO3112               2AZ
127451000127451               127451               170213A1     1400+00000+A10000002630+0000002630+000000000+000000369+0000002990+0000000009+I20000000000+0000002990+Z
127451001127451018-000022     127451006001023648082MUG N/BONE 320ML BARREL0000001000+00002630+00000+0001T   00002630+0000001253          1400 LO3515               2AZ
127452000127452               127452               170213A1     1400+00000+A10000006165+0000006165+000000000+000000865+0000007030+0000000000+I20000000000+0000007030+Z
127452001127452200-000065     127452006001023323675DRINKING-STRAWS 38PCE  0000001000+00000613+00000+0001T   00000613+0000001254          1400 LO3214               2AZ
127452002127452903-000155     127452006009803374435SWT LOLLY I LUV U HEART0000003000+00000525+00000+0001T   00000525+0000001254          1400 LO3150               2AZ
127452003127452903-000194     127452006009826020616SWT CHOC RP LOLLY 25G  0000003000+00001314+00000+0001T   00001314+0000001254          1400 LO3150               2AZ
127452004127452112-116038     127452006009681820246TCS CARRIER BAG MIDI   0000001000+00000035+00000+0001T   00000035+0000001254          1400 LO3090               2AZ
127453000127453               127453               170213A1     1400+00000+A10000005734+0000005734+000000000+000000803+0000006530+0000000007+I20000000000+0000006530+Z
127453001127453077-000310     127453006001023608635GIFT-BAG 18X23CM GLOSS 0000001000+00001314+00000+0001T   00001314+0000001256          1400 LO3112               2AZ
127453002127453001-000175     127453006001023788108B/MUG GLS LOVE 380ML   0000001000+00004385+00000+0001T   00004385+0000001256          1400 LO3515               2AZ
127453003127453112-116038     127453006009681820246TCS CARRIER BAG MIDI   0000001000+00000035+00000+0001T   00000035+0000001256          1400 LO3090               2AZ
127454000127454               127454               170213A1     1400+00000+A10000004856+0000004856+000000000+000000680+0000005530+0000000006+I20000000000+0000005530+Z
127454001127454903-000194     127454006009826020616SWT CHOC RP LOLLY 25G  0000001000+00001314+00000+0001T   00001314+0000001257          1400 LO3150               2AZ
127454002127454031-005853     127454006003000442416P/FRAME WDN TWIN HEARTS0000001000+00003507+00000+0001T   00003507+0000001257          1400 LO3510               2AZ
127454003127454112-116038     127454006009681820246TCS CARRIER BAG MIDI   0000001000+00000035+00000+0001T   00000035+0000001257          1400 LO3090               2AZ
127455000127455               127455               170213A1     1400+00000+A10000012761+0000012761+000000000+000001788+0000014549+0000000000+I40000014549+0000000000+Z
127455001127455105-007000-B   127455006002580007374CONTAINER 3L ASSORTED  0000001000+00002192+00000+0001T   00002192+0000001402          1400 LO3210               2AZ
127455002127455133-000017     127455006003000525171CLEANING-CLOTHS 5PCE   0000001000+00003507+00000+0001T   00003507+0000001402          1400 LO3212               2AZ
127455003127455306-000993     127455006003000560110FIRSTAID PLASTER 75PC  0000001000+00002630+00000+0001T   00002630+0000001402          1400 LO3200               2AZ
127455004127455002-000684     127455006001023693778K/TOOL TURNER H/HOUSE  0000001000+00002192+00000+0001T   00002192+0000001402          1400 LO3300               2AZ
127455005127455002-000681     127455006001023693747K/TOOL NYL SOLID-SPOON 0000001000+00002192+00000+0001T   00002192+0000001402          1400 LO3300               2AZ
127455006127455112-116069     127455006009681820277TCS CARRIER BAG JUMBO  0000001000+00000048+00000+0001T   00000048+0000001402          1400 LO3090               2AZ
127456000127456               127456               170213A1     1400+00000+A10000003942+0000003942+000000000+000000552+0000004494+0000000000+I40000004494+0000000000+Z
127456001127456903-000194     127456006009826020616SWT CHOC RP LOLLY 25G  0000002000+00001314+00000+0001T   00001314+0000001403          1400 LO3150               2AZ
127456002127456018-000119     127456006003000336074MUG DAILY STRAIGHT     0000001000+00001314+00000+0001T   00001753+0008171403          1400 LO3515               2AZ
127457000127457               127457               170213A1     1400+00000+A10000001050+0000001050+000000000+000000148+0000001190+0000000008+I20000000000+0000001190+Z
127457001127457903-000155     127457006009803374435SWT LOLLY I LUV U HEART0000002000+00000525+00000+0001T   00000525+0000001404          1400 LO3150               2AZ
127458000127458               127458               170213A1     1400+00000+A10000004645+0000004645+000000000+000000651+0000005290+0000000006+I20000000000+0000005290+Z
127458001127458077-000303     127458006001023593757GIFT-BAG PAPER MED     0000001000+00001578+00000+0001T   00001578+0000001405          1400 LO3112               2AZ
127458002127458077-000310     127458006001023608635GIFT-BAG 18X23CM GLOSS 0000001000+00001314+00000+0001T   00001314+0000001405          1400 LO3112               2AZ
127458003127458077-000316     127458006001023609731GIFT-BAG 25X32CM MATT  0000001000+00001753+00000+0001T   00001753+0000001405          1400 LO3112               2AZ
127459000127459               127459               170213A1     1400+00000+A10000005082+0000005082+000000000+000000713+0000005795+0000000000+I40000005795+0000000000+Z
127459001127459366-007600     127459006001023902184MASK THEATRICAL GLITTER0000002000+00001753+00000+0001T   00001753+0000001410          1400 LO3131               2AZ
127459002127459566-002000     127459000721129013206STICKERS CRYSTAL ASSTD 0000001000+00000700+00000+0001T   00000700+0000001410          1400 LO3130               2AZ
127459003127459077-000011-D   127459006001023808554TISSUE-WRAP WHITE 10PCE0000001000+00000876+00000+0001T   00000876+0000001410          1400 LO3112               2AZ
127460000127460               127460               170213A1     1400+00000+A10000001227+0000001227+000000000+000000172+0000001399+0000000000+I40000001399+0000000000+Z
127460001127460200-000092     127460006003000576739PICNIC PAPER PLATES 23c0000001000+00001227+00000+0001T   00001227+0000001411          1400 LO3214               2AZ
127461000127461               127461               170213A1     1400+00000+A10000002630+0000002630+000000000+000000369+0000002990+0000000009+I20000000000+0000002990+Z
127461001127461039-081008     127461006008766081008CANDLES 9PCE SCENTED   0000001000+00002630+00000+0001T   00002630+0000001419          1400 LO3510               2AZ
127462000127462               127462               170213A1     1400+00000+A10000002665+0000002665+000000000+000000374+0000003030+0000000009+I20000000000+0000003030+Z
127462001127462079-008998     127462006003000339686ART+CRAFT  CANVAS      0000001000+00002630+00000+0001T   00002630+0000001421          1400 LO3130               2AZ
127462002127462112-116038     127462006009681820246TCS CARRIER BAG MIDI   0000001000+00000035+00000+0001T   00000035+0000001421          1400 LO3090               2AZ
127463000127463               127463               170213A1     1400+00000+A10000000918+0000000918+000000000+000000129+0000001040+0000000007+I20000000000+0000001040+Z
127463001127463306-000020     127463006001023743145POCKET-TISSUES 10PCE   0000003000+00000306+00000+0001T   00000306+0000001423          1400 LO3200               2AZ
127464000127464               127464               170213A1     1400+00000+A10000003156+0000003156+000000000+000000442+0000003590+0000000008+I20000000000+0000003590+Z
127464001127464018-000127     127464006001023380289MUG OCC STRAIGHT LOVE  0000001000+00001578+00000+0001T   00001753+0006471424          1400 LO3515               2AZ
127464002127464077-000303     127464006001023593757GIFT-BAG PAPER MED     0000001000+00001578+00000+0001T   00001578+0000001424          1400 LO3112               2AZ
127465000127465               127465               170213A1     1400+00000+A10000007890+0000007890+000000000+000001106+0000008990+0000000006+I20000000000+0000008990+Z
127465001127465077-000918     127465006003000413690G/WRAP 700mmx2m PATTERN0000002000+00002192+00000+0001T   00002192+0000001426          1400 LO3112               2AZ
127465002127465077-000301     127465008010410010188BAG LRG 25X32CM B/DAY  0000002000+00001753+00000+0001T   00001753+0000001426          1400 LO3112               2AZ
127466000127466               127466               170213A1     1400+00000+A10000001748+0000001748+000000000+000000248+0000001990+0000000006+I20000000000+0000001990+Z
127466001127466080-000133-A   127466006003000647019MINI VALENTINES CARD   0000004000+00000437+00000+0001T   00000437+0000001428          1400 LO3112               2AZ
127467000127467               127467               170213A1     1400+00000+A10000004910+0000004910+000000000+000000688+0000005598+0000000000+I40000005598+0000000000+Z
127467001127467903-000077     127467006939873501687SWT GS MAGIC ROCK FRUIT0000001000+00000525+00000+0001T   00000525+0000001430          1400 LO3150               2AZ
127467002127467469-000801     127467006003000652402BUILDING BLOCKS AGE BAG0000001000+00004385+00000+0001T   00004385+0000001430          1400 LO3755               2AZ
127468000127468               127468               170213A1     1400+00000+A10000009116+0000009116+000000000+000001279+0000010395+0000000000+I40000010395+0000000000+Z
127468001127468071-000006     127468006001023732613PENCIL REFILLABLE 6PK  0000001000+00001753+00000+0001T   00001753+0000001439          1400 LO3130               2AZ
127468002127468079-006496     127468006003000160105GLITTER SHAKERS        0000001000+00001753+00000+0001T   00001753+0000001439          1400 LO3130               2AZ
127468003127468565-000002     127468006003000308071NOVELTY GROWING ANIMALS0000001000+00001753+00000+0001T   00001753+0000001439          1400 LO3745               2AZ
127468004127468560-000703     127468006003000332403INSECTS 9PC ASSTD      0000001000+00001753+00000+0001T   00001753+0000001439          1400 LO3745               2AZ
127468005127468903-000090     127468006009826020821SWT GS CHOCO COINS 60g 0000001000+00002104+00000+0001T   00002104+0000001439          1400 LO3150               2AZ
127469000127469               127469               170213A1     1400+00000+A10000002366+0000002366+000000000+000000332+0000002690+0000000008+I20000000000+0000002690+Z
127469001127469077-000311     127469006001023608666GIFT-BAG 11X14CM GLOSS 0000001000+00000613+00000+0001T   00000613+0000001443          1400 LO3112               2AZ
127469002127469077-000316     127469006001023609731GIFT-BAG 25X32CM MATT  0000001000+00001753+00000+0001T   00001753+0000001443          1400 LO3112               2AZ
127470000127470               127470               170213A1     1400+00000+A10000003542+0000003542+000000000+000000496+0000004030+0000000008+I20000000000+0000004030+Z
127470001127470079-006498     127470006001023836151GLITTER SET 10PCE      0000001000+00003507+00000+0001T   00003507+0000001450          1400 LO3130               2AZ
127470002127470112-116038     127470006009681820246TCS CARRIER BAG MIDI   0000001000+00000035+00000+0001T   00000035+0000001450          1400 LO3090               2AZ
127471000127471               127471               170213A1     1400+00000+A10000002630+0000002630+000000000+000000369+0000002990+0000000009+I20000000000+0000002990+Z
127471001127471565-000602     127471006003000643790NOVELTY NINJA'S 3PACK  0000001000+00002630+00000+0001T   00002630+0000001451          1400 LO3745               2AZ
127472000127472               127472               170213A1     1400+00000+A10000001753+0000001753+000000000+000000246+0000001990+0000000009+I20000000000+0000001990+Z
127472001127472006-000120     127472006001023346889BALLOONS 10PC MIX COL  0000001000+00001753+00000+0001T   00001753+0000001451          1400 LO3131               2AZ
127473000127473               127473               170213A1     1400+00000+A10000001314+0000001314+000000000+000000184+0000001490+0000000008+I20000000000+0000001490+Z
127473001127473077-000310     127473006001023608635GIFT-BAG 18X23CM GLOSS 0000001000+00001314+00000+0001T   00001314+0000001451          1400 LO3112               2AZ
127474000127474               127474               170213A1     1400+00000+A10000006749+0000006749+000000000+000000947+0000007690+0000000006+I20000000000+0000007690+Z
127474001127474564-000036     127474006001023708694BUBBLE W/PUZZLE        0000001000+00001490+00000+0001T   00001490+0000001453          1400 LO3131               2AZ
127474002127474565-000888     127474006003000607846NOVELTY MESH BALL      0000002000+00001753+00000+0001T   00001753+0000001453          1400 LO3745               2AZ
127474003127474006-000120     127474006001023346889BALLOONS 10PC MIX COL  0000001000+00001753+00000+0001T   00001753+0000001453          1400 LO3131               2AZ
127475000127475               127475               170213A1     1400+00000+A10000000035+0000000035+000000000+000000005+0000000040+0000000000+I20000000000+0000000040+Z
127475001127475112-116038     127475006009681820246TCS CARRIER BAG MIDI   0000001000+00000035+00000+0001T   00000035+0000001454          1400 LO3090               2AZ
127476000127476               127476               170213A1     1400+00000+A10000004383+0000004383+000000000+000000615+0000004990+0000000008+I20000000000+0000004990+Z
127476001127476903-000911     127476006009802868454SWT ST GUM TAPE BARBIE 0000001000+00001753+00000+0001T   00001753+0000001456          1400 LO3150               2AZ
127476002127476903-000592     127476006003000563777SWT CELLPHONE 12cm     0000001000+00002630+00000+0001T   00002630+0000001456          1400 LO3150               2AZ
127477000127477               127477               170213A1     1400+00000+A10000001753+0000001753+000000000+000000246+0000001990+0000000009+I20000000000+0000001990+Z
127477001127477903-000912     127477006009802868461SWT GUM TAPE HOT WHEELS0000001000+00001753+00000+0001T   00001753+0000001459          1400 LO3150               2AZ
127478000127478               127478               170213A1     1400+00000+A10000004383+0000004383+000000000+000000615+0000004990+0000000008+I20000000000+0000004990+Z
127478001127478903-000911     127478006009802868454SWT ST GUM TAPE BARBIE 0000001000+00001753+00000+0001T   00001753+0000001500          1400 LO3150               2AZ
127478002127478903-000592     127478006003000563777SWT CELLPHONE 12cm     0000001000+00002630+00000+0001T   00002630+0000001500          1400 LO3150               2AZ
127479000127479               127479               170213A1     1400+00000+A10000001753+0000001753+000000000+000000246+0000001990+0000000009+I20000000000+0000001990+Z
127479001127479566-000066     127479006003000283675STICKERS GLITTER 25PCS 0000001000+00001753+00000+0001T   00001753+0000001501          1400 LO3130               2AZ
127480000127480               127480               170213A1     1400+00000+A10000002192+0000002192+000000000+000000307+0000002490+0000000009+I20000000000+0000002490+Z
127480001127480018-000170     127480006001023775528MUG OCC. LOVE 2PC MINI 0000001000+00002192+00000+0001T   00002192+0000001502          1400 LO3515               2AZ
127481000127481               127481               170213A1     1400+00000+A10000008195+0000008195+000000000+000001151+0000009346+0000000000+I40000009346+0000000000+Z
127481001127481001-000168     127481008992787110268TUMBLER 340ml ZOMBI    0000002000+00000876+00000+0001T   00000876+0000001505          1400 LO3515               2AZ
127481002127481002-000801     127481006003000555994PEELER PL/MTL Y-SHAPE  0000001000+00001139+00000+0001T   00001139+0000001505          1400 LO3300               2AZ
127481003127481001-000168     127481008992787110268TUMBLER 340ml ZOMBI    0000006000+00000876+00000+0001T   00000876+0000001505          1400 LO3515               2AZ
127481004127481112-116069     127481006009681820277TCS CARRIER BAG JUMBO  0000001000+00000048+00000+0001T   00000048+0000001505          1400 LO3090               2AZ
127482000127482               127482               170213A1     1400+00000+A10000006138+0000006138+000000000+000000860+0000006990+0000000008+I20000000000+0000006990+Z
127482001127482466-000072     127482006003000668922BALL FOOTBALL PVC 22cm 0000001000+00004385+00000+0001T   00004385+0000001506          1400 LO3785               2AZ
127482002127482565-000043     127482006003000109562NOVELTY BALL FUNNY FACE0000001000+00001753+00000+0001T   00001753+0000001506          1400 LO3745               2AZ
127483000127483               127483               170213A1     1400+00000+A10000008771+0000008771+000000000+000001228+0000009990+0000000009+I20000000000+0000009990+Z
127483001127483001-091415     127483006003000329113W/GLS OCC. LOVE 2PC 2800000001000+00008771+00000+0001T   00009648+0006471509          1400 LO3515               2AZ
127484000127484               127484               170213A1     1400+00000+A10000002663+0000002663+000000000+000000374+0000003030+0000000007+I20000000000+0000003030+Z
127484001127484036-000011     127484006003000675890LINT REMOVER REFILL    0000003000+00000876+00000+0001T   00000876+0000001530          1400 LO3212               2AZ
127484002127484112-116038     127484006009681820246TCS CARRIER BAG MIDI   0000001000+00000035+00000+0001T   00000035+0000001530          1400 LO3090               2AZ
127485000127485               127485               170213A1     1400+00000+A10000001753+0000001753+000000000+000000246+0000001990+0000000009+I20000000000+0000001990+Z
127485001127485301-085006     127485006001023502940ORN LOVE MSG TUBE W/HRT0000001000+00001753+00000+0001T   00001753+0000001531          1400 LO3505               2AZ
127486000127486               127486               170213A1     1400+00000+A10000026382+0000026382+000000000+000003694+0000030070+0000000006+I20000000000+0000030070+Z
127486001127486019-000076     127486006001023757159V/GLASS 25CM C/DESIGN  0000003000+00008771+00000+0001T   00008771+0000001720          1400 LO3510               2AZ
127486002127486112-116053     127486006006438002399TCS CARRIER BAG 38L    0000001000+00000069+00000+0001T   00000069+0000001720          1400 LO3090               2AZ
127487000127487               127487               170213A1     1400+00000+A10000005262+0000005262+000000000+000000737+0000005990+0000000009+I20000000000+0000005990+Z
127487001127487018-019000     127487006003000557288MUG OCC. LOVE JUMBO    0000001000+00005262+00000+0001T   00005262+0000001720          1400 LO3515               2AZ
127488000127488               127488               170213A1     1400+00000+A10000005767+0000005767+000000000+000000809+0000006570+0000000006+I20000000000+0000006570+Z
127488001127488080-000115     127488006003000237333CARD&ENVELOPE - BLANKS 0000001000+00001753+00000+0001T   00001753+0000001723          1400 LO3112               2AZ
127488002127488080-000103     127488006003000236961CARD&ENVLOPE BDAY-MALE 0000001000+00001753+00000+0001T   00001753+0000001723          1400 LO3112               2AZ
127488003127488080-000127     127488006003000424351VALENTINES DAY 36x24CM 0000001000+00002192+00000+0001T   00002192+0000001723          1400 LO3112               2AZ
127488004127488112-116053     127488006006438002399TCS CARRIER BAG 38L    0000001000+00000069+00000+0001T   00000069+0000001723          1400 LO3090               2AZ
127489000127489               127489               170213A1     1400+00000+A10000003507+0000003507+000000000+000000491+0000003990+0000000008+I20000000000+0000003990+Z
127489001127489028-002101     127489006002580009507CHAIR JUNIOR    ASSTD  0000001000+00003507+00000+0001T   00003507+0000001724          1400 LO3305               2AZ
127490000127490               127490               170213A1     1400+00000+A10000020374+0000020374+000000000+000002865+0000023230+0000000009+I20000000000+0000023230+Z
127490001127490079-009702-D   127490008427973059354PAPER SIRIO A2 RED COL 0000005000+00001051+00000+0001T   00001051+0000001729          1400 LO3130               2AZ
127490002127490079-009702-B   127490008427973059491PAPER SIRIO A2 WHITE   0000006000+00001051+00000+0001T   00001051+0000001729          1400 LO3130               2AZ
127490003127490306-000498     127490006003000519392TOOTHBRUSH 3PC ASTD    0000005000+00001753+00000+0001T   00001753+0000001729          1400 LO3200               2AZ
127490004127490112-116069     127490006009681820277TCS CARRIER BAG JUMBO  0000001000+00000048+00000+0001T   00000048+0000001729          1400 LO3090               2AZ
127491000127491               127491               170213A1     1400+00000+A10000001839+0000001839+000000000+000000258+0000002090+0000000007+I20000000000+0000002090+Z
127491001127491077-000311     127491006001023608666GIFT-BAG 11X14CM GLOSS 0000003000+00000613+00000+0001T   00000613+0000001730          1400 LO3112               2AZ
127492000127492               127492               170213A1     1400+00000+A10000001227+0000001227+000000000+000000172+0000001390+0000000009+I20000000000+0000001390+Z
127492001127492077-000319     127492006001023609779GIFT-BAG 18X23CM BIRTHD0000001000+00001227+00000+0001T   00001227+0000001732          1400 LO3112               2AZ
127493000127493               127493               170213A1     1400+00000+A10000001578+0000001578+000000000+000000221+0000001790+0000000009+I20000000000+0000001790+Z
127493001127493077-000303     127493006001023593757GIFT-BAG PAPER MED     0000001000+00001578+00000+0001T   00001578+0000001733          1400 LO3112               2AZ
127494000127494               127494               170213A1     1400+00000+A10000014080+0000014080+000000000+000001973+0000016053+0000000000+I40000016053+0000000000+Z
127494001127494369-000989     127494006003000127481BABY EDU MUSICAL PHONE 0000001000+00011402+00000+0001T   00011402+0000001735          1400 LO3745               2AZ
127494002127494046-000011-A   127494006003000438891BATTERIES SIZE:AA  4PCE0000001000+00002630+00000+0001T   00002630+0000001735          1400 LO3312               2AZ
127494003127494112-116069     127494006009681820277TCS CARRIER BAG JUMBO  0000001000+00000048+00000+0001T   00000048+0000001735          1400 LO3090               2AZ
127495000127495               127495               170213A1     1400+00000+A10000001753+0000001753+000000000+000000246+0000001990+0000000009+I20000000000+0000001990+Z
127495001127495009-001300     127495006003000135059MELAMINE MUG 250ml     0000001000+00001753+00000+0001T   00001753+0000001736          1400 LO3210               2AZ
127496000127496               127496               170213A1     1400+00000+A10000005524+0000005524+000000000+000000774+0000006298+0000000000+I40000006298+0000000000+Z
127496001127496268-000057     127496006001023865717KITE DUAL 71x71cm      0000001000+00004385+00000+0001T   00004385+0000001738          1400 LO3785               2AZ
127496002127496046-000014     127496006001023725387BATTERIES SIZE:AAA 4PCE0000001000+00001139+00000+0001T   00001139+0000001738          1400 LO3312               2AZ
127497000127497               127497               170213A1     1400+00000+A10000017172+0000017172+000000000+000002405+0000019577+0000000000+I40000019577+0000000000+Z
127497001127497369-001016     127497006003000536306BATH DUCK TOY          0000001000+00014911+00000+0001T   00014911+0000001740          1400 LO3745               2AZ
127497002127497112-116053     127497006006438002399TCS CARRIER BAG 38L    0000001000+00000069+00000+0001T   00000069+0000001740          1400 LO3090               2AZ
127497003127497077-000914     127497006003000413454G/WRAP 700mmx2m ANIMAL 0000001000+00002192+00000+0001T   00002192+0000001740          1400 LO3112               2AZ
127498000127498               127498               170213A1     1400+00000+A10000008806+0000008806+000000000+000001233+0000010030+0000000009+I20000000000+0000010030+Z
127498001127498001-091415     127498006003000329113W/GLS OCC. LOVE 2PC 2800000001000+00008771+00000+0001T   00009648+0006471740          1400 LO3515               2AZ
127498002127498112-116038     127498006009681820246TCS CARRIER BAG MIDI   0000001000+00000035+00000+0001T   00000035+0000001740          1400 LO3090               2AZ
127499000127499               127499               170213A1     1400+00000+A10000001753+0000001753+000000000+000000246+0000001990+0000000009+I20000000000+0000001990+Z
127499001127499047-000507     127499006001023684479PLUG-ADAPTOR EURO TWIN 0000001000+00001753+00000+0001T   00001753+0000001741          1400 LO3880               2AZ
127500000127500               127500               170213A1     1400+00000+A10000002697+0000002697+000000000+000000378+0000003070+0000000005+I20000000000+0000003070+Z
127500001127500107-004105     127500006002923010504BUCKET 9L OPEN         0000002000+00001314+00000+0001T   00001314+0000001742          1400 LO3210               2AZ
127500002127500112-116053     127500006006438002399TCS CARRIER BAG 38L    0000001000+00000069+00000+0001T   00000069+0000001742          1400 LO3090               2AZ
127501000127501               127501               170213A1     1400+00000+A10000006524+0000006524+000000000+000000914+0000007438+0000000000+I40000007438+0000000000+Z
127501001127501077-000322     127501006001023677532GIFT-BAG 18X23CM E/D FL0000001000+00001227+00000+0001T   00001227+0000001744          1400 LO3112               2AZ
127501002127501018-019000     127501006003000557288MUG OCC. LOVE JUMBO    0000001000+00005262+00000+0001T   00005262+0000001744          1400 LO3515               2AZ
127501003127501112-116038     127501006009681820246TCS CARRIER BAG MIDI   0000001000+00000035+00000+0001T   00000035+0000001744          1400 LO3090               2AZ
127502000127502               127502               170213A1     1400+00000+A10000002192+0000002192+000000000+000000307+0000002490+0000000009+I20000000000+0000002490+Z
127502001127502077-000309-A   127502006003000671007GIFT-BAG HOLOGRAM JMB  0000001000+00002192+00000+0001T   00002192+0000001746          1400 LO3112               2AZ
127503000127503               127503               170213A1     1400+00000+A10000022804+0000022804+000000000+000003194+0000025998+0000000000+I40000025998+0000000000+Z
127503001127503105-009015     127503006002923000031STORAGE BOX 32L FROSTED0000002000+00011402+00000+0001T   00011402+0000001755          1400 LO3210               2AZ
127504000127504               127504               170213A1     1400+00000+A10000001490+0000001490+000000000+000000209+0000001690+0000000009+I20000000000+0000001690+Z
127504001127504077-000299     127504006003000395576G/BAG 32x25cm LRG LOVE 0000001000+00001490+00000+0001T   00001490+0000001756          1400 LO3112               2AZ
127505000127505               127505               170213A1     1400+00000+A10000001314+0000001314+000000000+000000184+0000001490+0000000008+I20000000000+0000001490+Z
127505001127505107-004105     127505006009703860984BUCKET 9L OPEN         0000001000+00001314+00000+0001T   00001314+0000001759          1400 LO3210               2AZ
127506000127506               127506               170213A1     1400+00000+A10000001572+0000001572+000000000+000000224+0000001790+0000000006+I20000000000+0000001790+Z
127506001127506903-000183     127506006003000451043SWT LB HEART LOLLY     0000004000+00000393+00000+0001T   00000393+0000001800          1400 LO3150               2AZ
M17021391                              CASH        A1SLAVE 2                       Z-REPORT No.   661TOTAL (Sales - Refunds)           5293.01       CASH TO BE BANKED                 2359.90       DEBIT CARDS                          0.00       CREDIT CARDS                      2395.21       Z-READING                         5255.11       AIRTIME DEBIT CARD SALES             0.00       AIRTIME CARD SALES                   0.00       OVERS/UNDERS                       500.00-      AIRTIME CASH SALES                   0.00       GIFT CARDS                           0.00       GIFT CARD CASH SALES                 0.00       STAFF-REFRESHMENTS                  37.90       T O T A L  CASH PAYOUTS             37.90                                                                                                                                                                                                                                                                                                      Z
M17021392                              CASH        A1ABSENT                                                                                                                                                                                          ANNUAL LEAVE                                                                                                                                                                                    DAY OFF                                                                                                                                                                                         COMMENTS                                                                                                                                                                                                                                                                                                                                                                                       Z
Y17021300                                          A100000000466386+000085
ZA117021321223 SLAVE 2      SALES DATA                     NEXT INVOICE NO.  127507 0661
F094822304-001011         1702100933120000202ICSLAVE 2
X A1 Slave 2 First invoice 127420 170213 Last invoice 127506 170213 Next invoice 127507 Total number of records 000000264 clbackup completed 21:22:43
