166149000166149               166149               170213A2     1400+00000+A20000005295+0000005295+000000000+000000743+0000006030+0000000008+I20000000000+0000006030+Z
166149001166149112-116038     166149006009681820246TCS CARRIER BAG MIDI   0000001000+00000035+00000+0001T   00000035+0000000901          1400 BJ8090               1AZ
166149002166149079-000282     166149006001023493309PAINT TUBS POSTER 12COL0000002000+00002630+00000+0001T   00002630+0000000901          1400 BJ8130               1AZ
166150000166150               166150               170213A2     1400+00000+A20000024754+0000024754+000000000+000003468+0000028220+0000000002+I20000000000+0000028220+Z
166150001166150112-116038     166150006009681820246TCS CARRIER BAG MIDI   0000001000+00000035+00000+0001T   00000035+0000000926          1400 BJ8090               1AZ
166150002166150567-075490     166150009780799371260BK NOVEL ROMANCE AFR   0000001000+00003507+00000+0001T   00003507+0000000926          1400 BJ8757               1AZ
166150003166150567-075490     166150009780799376456BK NOVEL ROMANCE AFR   0000001000+00003507+00000+0001T   00003507+0000000926          1400 BJ8757               1AZ
166150004166150567-010161     166150009780000008516BOOK TOP ASSTD MILLS   0000001000+00005262+00000+0001T   00005262+0000000926          1400 BJ8757               1AZ
166150005166150903-000499     166150006001704012492SWT CHOC MALLOWS 50g   0000005000+00001227+00000+0001T   00001227+0000000926          1400 BJ8150               1AZ
166150006166150903-004950     166150006002580020304SWT APRICOT SURPRISE   0000002000+00001314+00000+0001T   00001314+0000000926          1400 BJ8150               1AZ
166150007166150903-000499     166150006001704012492SWT CHOC MALLOWS 50g   0000001000+00001227+00000+0001T   00001227+0000000926          1400 BJ8150               1AZ
166150008166150046-000014     166150006001023725387BATTERIES SIZE:AAA 4PCE0000001000+00001139+00000+0001T   00001139+0000000926          1400 BJ8312               1AZ
166150009166150046-000012     166150006904708013062BATTERIES AA  CARD-OF-40000001000+00001314+00000+0001T   00001314+0000000926          1400 BJ8312               1AZ
166151000166151               166151               170213A2     1400+00000+A20000004381+0000004381+000000000+000000614+0000004990+0000000005+I20000000000+0000004990+Z
166151001166151016-006514     166151006003000295432S/JAR EMBOSSED 500ML   0000001000+00001753+00000+0001T   00001753+0000000942          1400 BJ8300               1AZ
166151002166151903-005007     166151006002580020311SWT MALLOW BEAR M/SHAKE0000002000+00001314+00000+0001T   00001314+0000000942          1400 BJ8150               1AZ
166152000166152               166152               170213A2     1400+00000+A20000005262+0000005262+000000000+000000737+0000005990+0000000009+I20000000000+0000005990+Z
166152001166152263-000504     166152006001023790590TRACTOR+TRAILER 30cm   0000001000+00005262+00000+0001T   00005262+0000000955          1400 BJ8710               1AZ
166153000166153               166153               170213A2     1400+00000+A20000004168+0000004168+000000000+000000585+0000004750+0000000003+I20000000000+0000004750+Z
166153001166153112-116069     166153006009681820277TCS CARRIER BAG JUMBO  0000001000+00000048+00000+0001T   00000048+0000000956          1400 BJ8090               1AZ
166153002166153206-000290     166153006003000632541BOTTLE OPENER SILICONE 0000001000+00002630+00000+0001T   00002630+0000000956          1400 BJ8321               1AZ
166153003166153077-000304     166153006001023483232GIFT-BAG 25X32CM E/DAY 0000001000+00001490+00000+0001T   00001490+0000000956          1400 BJ8112               1AZ
166154000166154               166154               170213A2     1400+00000+A20000038862+0000038862+000000000+000005452+0000044314+0000000000+I10000019314+0000025000+Z
166154001166154112-116038     166154006009681820246TCS CARRIER BAG MIDI   0000001000+00000035+00000+0001T   00000035+0000001027          1400 BJ8090               1AZ
166154002166154301-085000     166154006003000674299 ORN OCC. LOVE HEARTS  0000001000+00002192+00000+0001T   00002192+0000001027          1400 BJ8505               1AZ
166154003166154079-014153     166154006003000253166ART+CRAFT DRAGON PK6   0000002000+00002630+00000+0001T   00002630+0000001027          1400 BJ8130               1AZ
166154004166154007-000555     166154006001023848239MEMO-PAD MINI LOVE     0000008000+00000613+00000+0001T   00000613+0000001027          1400 BJ8130               1AZ
166154005166154006-006018     166154006001023735256PARTY-SPRAY HAIR ASSORT0000001000+00002630+00000+0001T   00002630+0000001027          1400 BJ8131               1AZ
166154006166154006-006019     166154006001023908193PARTY-SPRAY GLITTER    0000001000+00002630+00000+0001T   00002630+0000001027          1400 BJ8131               1AZ
166154007166154006-006018     166154006001023735256PARTY-SPRAY HAIR ASSORT0000001000+00002630+00000+0001T   00002630+0000001027          1400 BJ8131               1AZ
166154008166154088-000055     166154006003000623068TOILET FRESHENER CISTER0000001000+00001753+00000+0001T   00001753+0000001027          1400 BJ8212               1AZ
166154009166154084-009411     166154006001023629968SCISSORS 17cm PL-HANDLE0000002000+00001753+00000+0001T   00001753+0000001027          1400 BJ8200               1AZ
166154010166154903-000155     166154006009803374435SWT LOLLY I LUV U HEART0000007000+00000525+00000+0001T   00000525+0000001027          1400 BJ8150               1AZ
166154011166154082-000122-C   166154006003000403714READING GLS STRENGTH:2 0000001000+00005262+00000+0001T   00005262+0000001027          1400 BJ8160               1AZ
166154012166154082-000110     166154006003000360482READING GLS STRENGHT:2 0000001000+00004385+00000+0001T   00004385+0000001027          1400 BJ8160               1AZ
166155000166155               166155               170213A2     1400+00000+A20000004382+0000004382+000000000+000000615+0000004990+0000000007+I20000000000+0000004990+Z
166155001166155264-000921     166155000090159150442MAISTO CAR 3" FRESH    0000002000+00001753+00000+0001T   00001753+0000001048          1400 BJ8710               1AZ
166155002166155903-000123     166155006925925909280SWEET GS MINI MALLOWS  0000001000+00000876+00000+0001T   00000876+0000001048          1400 BJ8150               1AZ
166156000166156               166156               170213A2     1400+00000+A20000002364+0000002364+000000000+000000333+0000002690+0000000007+I20000000000+0000002690+Z
166156001166156903-000200     166156006009826020234SWT CHOC RP CHOCO 23G  0000003000+00000788+00000+0001T   00000788+0000001115          1400 BJ8150               1AZ
166157000166157               166157               170213A2     1400+00000+A20000002927+0000002927+000000000+000000410+0000003337+0000000000+I40000003337+0000000000+Z
166157001166157018-000127     166157006001023380289MUG OCC STRAIGHT LOVE  0000001000+00001578+00000+0001T   00001753+0006471122          1400 BJ8515               1AZ
166157002166157903-000194     166157006009826020616SWT CHOC RP LOLLY 25G  0000001000+00001314+00000+0001T   00001314+0000001122          1400 BJ8150               1AZ
166157003166157112-116038     166157006009681820246TCS CARRIER BAG MIDI   0000001000+00000035+00000+0001T   00000035+0000001122          1400 BJ8090               1AZ
166158000166158               166158               170213A2     1400+00000+A20000002630+0000002630+000000000+000000369+0000002999+0000000000+I40000002999+0000000000+Z
166158001166158072-020300     166158006008632000430DOG-TOY TUG-A-BALL SML 0000001000+00002630+00000+0001T   00002630+0000001140          1400 BJ8870               1AZ
166159000166159               166159               170213A2     1400+00000+A20000000350+0000000350+000000000+000000049+0000000390+0000000009+I20000000000+0000000390+Z
166159001166159007-000167     166159006009685857347SPIRAL NOTES A7 72PG   0000001000+00000350+00000+0001T   00000350+0000001237          1400 BJ8130               1AZ
166160000166160               166160               170213A2     1400+00000+A20000000262+0000000262+000000000+000000037+0000000290+0000000009+I20000000000+0000000290+Z
166160001166160903-000216     166160006925925900966SWT MALLOW TWIST ERKO  0000001000+00000262+00000+0001T   00000262+0000001240          1400 BJ8150               1AZ
166161000166161               166161               170213A2     1400+00000+A20000002665+0000002665+000000000+000000374+0000003030+0000000009+I20000000000+0000003030+Z
166161001166161112-116038     166161006009681820246TCS CARRIER BAG MIDI   0000001000+00000035+00000+0001T   00000035+0000001249          1400 BJ8090               1AZ
166161002166161105-003025     166161006001023594662CONTAINER RECT 28x19cm 0000001000+00002630+00000+0001T   00002630+0000001249          1400 BJ8210               1AZ
166162000166162               166162               170213A2     1400+00000+A20000016695+0000016695+000000000+000002338+0000019033+0000000000+I40000019033+0000000000+Z
166162001166162112-116038     166162006009681820246TCS CARRIER BAG MIDI   0000001000+00000035+00000+0001T   00000035+0000001415          1400 BJ8090               1AZ
166162002166162903-000194     166162006009826020616SWT CHOC RP LOLLY 25G  0000001000+00001314+00000+0001T   00001314+0000001415          1400 BJ8150               1AZ
166162003166162001-091415     166162006003000329113W/GLS OCC. LOVE 2PC 2800000001000+00008771+00000+0001T   00009648+0006471415          1400 BJ8515               1AZ
166162004166162028-085274     166162006001023641571BBQ LIGHTER         H&L0000001000+00002192+00000+0001T   00002192+0000001415          1400 BJ8305               1AZ
166162005166162033-000601     166162006003000365210HAIR-BRUSH 24CM BLK&WHT0000001000+00003507+00000+0001T   00003507+0000001415          1400 BJ8200               1AZ
166162006166162903-000503     166162006001704006118SWT VAMPIRE FANGS 60G  0000001000+00000876+00000+0001T   00000876+0000001415          1400 BJ8150               1AZ
166163000166163               166163               170213A2     1400+00000+A20000008819+0000008819+000000000+000001235+0000010054+0000000000+I40000010054+0000000000+Z
166163001166163031-000924     166163006001023669964P/FRAME COLLAGE PL     0000001000+00008771+00000+0001T   00008771+0000001417          1400 BJ8510               1AZ
166163002166163112-116069     166163006009681820277TCS CARRIER BAG JUMBO  0000001000+00000048+00000+0001T   00000048+0000001417          1400 BJ8090               1AZ
166164000166164               166164               170213A2     1400+00000+A20000000525+0000000525+000000000+000000074+0000000590+0000000009+I20000000000+0000000590+Z
166164001166164903-000155     166164006009803374435SWT LOLLY I LUV U HEART0000001000+00000525+00000+0001T   00000525+0000001417          1400 BJ8150               1AZ
166165000166165               166165               170213A2     1400+00000+A20000006522+0000006522+000000000+000000915+0000007437+0000000000+I40000007437+0000000000+Z
166165001166165112-116038     166165006009681820246TCS CARRIER BAG MIDI   0000001000+00000035+00000+0001T   00000035+0000001421          1400 BJ8090               1AZ
166165002166165206-000620     166165006003000631797BACK SCRATCHER EXTEND  0000001000+00002630+00000+0001T   00002630+0000001421          1400 BJ8321               1AZ
166165003166165206-000370     166165006003000631315STRAW P/DRINKING GLASS 0000001000+00001753+00000+0001T   00001753+0000001421          1400 BJ8321               1AZ
166165004166165903-000090     166165006009826020821SWT GS CHOCO COINS 60g 0000001000+00002104+00000+0001T   00002104+0000001421          1400 BJ8150               1AZ
166166000166166               166166               170213A2     1400+00000+A20000015069+0000015069+000000000+000002113+0000017182+0000000000+I40000017182+0000000000+Z
166166001166166112-116038     166166006009681820246TCS CARRIER BAG MIDI   0000001000+00000035+00000+0001T   00000035+0000001458          1400 BJ8090               1AZ
166166002166166368-000265     166166006001023750914PLUSH BEAR 23CM ASSTD C0000001000+00006139+00000+0001T   00006139+0000001458          1400 BJ8745               1AZ
166166003166166089-000192-A   166166006001023901774KEY-CHAIN ACRYLIC      0000001000+00000876+00000+0001T   00000876+0000001458          1400 BJ8205               1AZ
166166004166166162-093279     166166006001492932798#TAG 2PK DROP SET      0000001000+00003507+00000+0001T   00003507+0000001458          1400 BJ8160               1AZ
166166005166166369-001138-D   166166006003000097623BABY BATH VINYL THEMED 0000001000+00002630+00000+0001T   00002630+0000001458          1400 BJ8745               1AZ
166166006166166083-000055     166166006003000003853LIGHTER ELCTRNC REFILBL0000001000+00000613+00000+0001T   00000613+0000001458          1400 BJ8315               1AZ
166166007166166083-000295     166166006001023898562LIGHTER-GAS BUTANE 18ml0000001000+00000876+00000+0001T   00000876+0000001458          1400 BJ8315               1AZ
166166008166166903-000183     166166006003000451043SWT LB HEART LOLLY     0000001000+00000393+00000+0001T   00000393+0000001458          1400 BJ8150               1AZ
166167000166167               166167               170213A2     1400+00000+A20000002851+0000002851+000000000+000000401+0000003250+0000000002+I20000000000+0000003250+Z
166167001166167077-000011-D   166167006001023808554TISSUE-WRAP WHITE 10PCE0000001000+00000876+00000+0001T   00000876+0000001510          1400 BJ8112               1AZ
166167002166167077-000304     166167006001023483232GIFT-BAG 25X32CM E/DAY 0000001000+00001490+00000+0001T   00001490+0000001510          1400 BJ8112               1AZ
166167003166167112-116069     166167006009681820277TCS CARRIER BAG JUMBO  0000001000+00000048+00000+0001T   00000048+0000001510          1400 BJ8090               1AZ
166167004166167080-000133     166167006003000535613CARD&ENV MINI ASTD DSGN0000001000+00000437+00000+0001T   00000437+0000001510          1400 BJ8112               1AZ
166168000166168               166168               170213A2     1400+00000+A20000001227+0000001227+000000000+000000172+0000001390+0000000009+I20000000000+0000001390+Z
166168001166168251-000040     166168006001023515865SEALTAPE CLEAR 48mmx50m0000001000+00001227+00000+0001T   00001227+0000001511          1400 BJ8810               1AZ
166169000166169               166169               170213A2     1400+00000+A20000003507+0000003507+000000000+000000491+0000003990+0000000008+I20000000000+0000003990+Z
166169001166169301-085004     166169006003000420469ORN LOVE PLAQUE 21X10CM0000001000+00003507+00000+0001T   00003946+0006471534          1400 BJ8505               1AZ
166170000166170               166170               170213A2     1400+00000+A20000001753+0000001753+000000000+000000246+0000001990+0000000009+I20000000000+0000001990+Z
166170001166170031-005820     166170006001023667816P/FRAME-CLIP 15X20CM   0000001000+00001753+00000+0001T   00001753+0000001538          1400 BJ8510               1AZ
166171000166171               166171               170213A2     1400+00000+A20000017540+0000017540+000000000+000002457+0000019997+0000000000+I40000019997+0000000000+Z
166171001166171368-000637     166171006001023874092PLUSH BEAR SLEEPING LOV0000001000+00011402+00000+0001T   00012279+0006471558          1400 BJ8745               1AZ
166171002166171077-000308     166171006001023595812GIFT-BAG 33X45CM E/DAY 0000001000+00001753+00000+0001T   00001753+0000001558          1400 BJ8112               1AZ
166171003166171018-030000     166171006003000421060MUG OCCASIONS LOVE 2PCE0000001000+00004385+00000+0001T   00004385+0000001558          1400 BJ8515               1AZ
166172000166172               166172               170213A2     1400+00000+A20000131619+0000131619+000000000+000018506+0000150120+0000000005+I20000000000+0000150120+Z
166172001166172304-001011     166172006001023806727FLWR ROSE RED W/BEAR   0000077000+00000613+00000+0001T   00000788+0006471628          1400 BJ8510               1AZ
166172002166172903-000200     166172006009826020234SWT CHOC RP CHOCO 23G  0000096000+00000788+00000+0001T   00000788+0000001628          1400 BJ8150               1AZ
166172003166172006-000190     166172006003000685530BALLOONS LOVE 81x91cm  0000002000+00004385+00000+0001T   00004385+0000001628          1400 BJ8131               1AZ
166173000166173               166173               170213A2     1400+00000+A20000013157-0000013157-000000000+000001842-0000015000-0000000001+I20000000000+0000015000-Z
166173001166173031-007010     166173006003000467945P/FRAME WDN CERTIFICATE0000002000-00008771+00000+0001T   00008771+0000001636          1400 BJ85101IC            1 Z
166173002166173031-000868-D   166173006003000580330P/FRAME PL BLCK CERT.  0000001000+00004385+00000+0001T   00004385+0000001636          1400 BJ8510               1 Z
166174000166174               166174               170213A2     1400+00000+A20000008771-0000008771-000000000+000001228-0000010000-0000000001+I20000000000+0000010000-Z
166174001166174001-999902     166174000000000999902MAINTENANCE+REPAIR-EQP 0000001000-00008771+00000+0001T   00000000+0000001646          1400 BJ89022IC            1 Z
166175000166175               166175               170213A2     1400+00000+A20000000654+0000000654+000000000+000000093+0000000740+0000000007+I20000000000+0000000740+Z
166175001166175006-000173-B   166175006003000636358BALLOONS HELIUM 1PC WHT0000001000+00000218+00000+0001T   00000218+0000001711          1400 BJ8131               1AZ
166175002166175006-000171-H   166175006003000609574BALLOONS 1PC RED PRINT 0000002000+00000218+00000+0001T   00000218+0000001711          1400 BJ8131               1AZ
166176000166176               166176               170213A2     1400+00000+A20000000874+0000000874+000000000+000000124+0000000990+0000000008+I20000000000+0000000990+Z
166176001166176080-000133-A   166176006003000647019MINI VALENTINES CARD   0000002000+00000437+00000+0001T   00000437+0000001716          1400 BJ8112               1AZ
A17021300                                          09451333A2SLAVE 1                       BJ82IC
A17021301                                          10021472A2SLAVE 1                       BJ82IC
A17021302                                          10285286A2SLAVE 1                       BJ82IC
A17021303                                          10432273A2SLAVE 1                       BJ82IC
C16617300                                          170213A2031-007010     16353844SLAVE 1     BJ81IC0000000000+0000000000+0010000001000-
C16617500                                          170213A2006-000172-A   17095310SLAVE 1     BJ82IC0000000000+0000000000+0030000001000+
C16617501                                          170213A2006-000181     17095978SLAVE 1     BJ82IC0000000000+0000000000+0020000001000+
C16617502                                          170213A2006-000172-H   17100818SLAVE 1     BJ82IC0000000000+0000000000+0010000001000+
M17021301                              IT          A2LAST TILL SLIP NUMBER:166176                                                                    THANKS                                          A2
M17021302                              SHIEHAAM    A2Z/READING:3337.83                               C/BANKING:2244.30                               C/CARDS:993.53                                  P/OUTS:100.00                                   MAINTENANCE AND REPAIR                          CASHIER:BARBARA JAANSE                          THANKS                                          A2
M17021391                              CASH        A2SLAVE 1                       Z-REPORT No.   605TOTAL (Sales - Refunds)           3337.83       CASH TO BE BANKED                 2244.30       DEBIT CARDS                          0.00       CREDIT CARDS                       993.53       Z-READING                         3237.83       AIRTIME DEBIT CARD SALES             0.00       AIRTIME CARD SALES                   0.00       OVERS/UNDERS                         0.00       AIRTIME CASH SALES                   0.00       GIFT CARDS                           0.00       GIFT CARD CASH SALES                 0.00       MAINTENANCE+REPAIR-EQP              99.99       ROUNDING                             0.01       T O T A L  CASH PAYOUTS            100.00                                                                                                                                                                                                                                                      Z
M17021392                              CASH        A2ABSENT                                                                                                                                                                                          ANNUAL LEAVE                                                                                                                                                                                    DAY OFF                                                                                                                                                                                         COMMENTS                                                                                                                                                                                                                                                                                                                                                                                       Z
Y17021300                                          A200000000310342+000027
ZA217021321033 SLAVE 1      SALES DATA                     NEXT INVOICE NO.  166177 0605
X A2 Slave 1 First invoice 166149 170213 Last invoice 166176 170213 Next invoice 166177 Total number of records 000000122 clbackup completed 21:03:55
