172582000172582               172582               170213A2     1400+00000+A20000001490+0000001490+000000000+000000209+0000001690+0000000009+I20000000000+0000001690+Z
172582001172582031-000878-B   172582006001023799012P/FRAME 13x18cm PL-SLID0000001000+00001490+00000+0001T   00001490+0000001042          1400 KU6510               2AZ
172583000172583               172583               170213A2     1400+00000+A20000000437+0000000437+000000000+000000062+0000000490+0000000009+I20000000000+0000000490+Z
172583001172583080-000133-A   172583006003000647019MINI VALENTINES CARD   0000001000+00000437+00000+0001T   00000437+0000001043          1400 KU6112               2AZ
172584000172584               172584               170213A2     1400+00000+A20000003507+0000003507+000000000+000000491+0000003990+0000000008+I20000000000+0000003990+Z
172584001172584567-011485     172584006003000663538BK COLOURING 96P BATMAN0000001000+00003507+00000+0001T   00003507+0000001221          1400 KU6757               2AZ
172585000172585               172585               170213A2     1400+00000+A20000003541+0000003541+000000000+000000497+0000004038+0000000000+I40000004038+0000000000+Z
172585001172585018-000129     172585006001023403353MUG OCC. LOVE V-SHAPE  0000001000+00002630+00000+0001T   00002630+0000001234          1400 KU6515               2AZ
172585002172585077-000302     172585008010410010195GIFT-BAG 18X23CM E/D   0000001000+00000876+00000+0001T   00000876+0000001234          1400 KU6112               2AZ
172585003172585112-116038     172585006009681820246TCS CARRIER BAG MIDI   0000001000+00000035+00000+0001T   00000035+0000001234          1400 KU6090               2AZ
172586000172586               172586               170213A2     1400+00000+A20000004418+0000004418+000000000+000000619+0000005030+0000000007+I20000000000+0000005030+Z
172586001172586018-000130     172586006001023867537MUG OCC LOVE MINI+HEART0000001000+00003507+00000+0001T   00003507+0000001243          1400 KU6515               2AZ
172586002172586077-000302     172586008010410010195GIFT-BAG 18X23CM E/D   0000001000+00000876+00000+0001T   00000876+0000001243          1400 KU6112               2AZ
172586003172586112-116038     172586006009681820246TCS CARRIER BAG MIDI   0000001000+00000035+00000+0001T   00000035+0000001243          1400 KU6090               2AZ
172587000172587               172587               170213A2     1400+00000+A20000000306+0000000306+000000000+000000043+0000000340+0000000009+I20000000000+0000000340+Z
172587001172587306-000020     172587006001023743145POCKET-TISSUES 10PCE   0000001000+00000306+00000+0001T   00000306+0000001318          1400 KU6200               2AZ
172588000172588               172588               170213A2     1400+00000+A20000012326+0000012326+000000000+000001727+0000014053+0000000000+I40000014053+0000000000+Z
172588001172588028-000026     172588006001023810847COOLER-BAG+POCKET NYLON0000001000+00009648+00000+0001T   00009648+0000001332          1400 KU6305               2AZ
172588002172588903-000590     172588006003000563494SWT TOY REVOLVER 22cm  0000001000+00002630+00000+0001T   00002630+0000001332          1400 KU6150               2AZ
172588003172588112-116069     172588006009681820277TCS CARRIER BAG JUMBO  0000001000+00000048+00000+0001T   00000048+0000001332          1400 KU6090               2AZ
172589000172589               172589               170213A2     1400+00000+A20000005864+0000005864+000000000+000000825+0000006680+0000000009+I20000000000+0000006680+Z
172589001172589566-000068     172589006003000418046POP UP LOVE 2 ASSTD    0000001000+00002192+00000+0001T   00002192+0000001347          1400 KU6130               2AZ
172589002172589018-000177     172589006001023797513MUG MINI LOVE ASSTD    0000003000+00000700+00000+0001T   00000700+0000001347          1400 KU6515               2AZ
172589003172589903-000183     172589006003000451043SWT LB HEART LOLLY     0000004000+00000393+00000+0001T   00000393+0000001347          1400 KU6150               2AZ
172590000172590               172590               170213A2     1400+00000+A20000003891+0000003891+000000000+000000546+0000004430+0000000007+I20000000000+0000004430+Z
172590001172590031-000864-A   172590006001023798350P/FRAME MAHOGANY 10X15 0000001000+00003069+00000+0001T   00003069+0000001353          1400 KU6510               2AZ
172590002172590903-000151     172590006009803374411SWT SML RND R/BOW LOLLY0000001000+00000525+00000+0001T   00000525+0000001353          1400 KU6150               2AZ
172590003172590112-116038     172590006009681820246TCS CARRIER BAG MIDI   0000001000+00000035+00000+0001T   00000035+0000001353          1400 KU6090               2AZ
172590004172590903-000099     172590006923431501646SWT CANDY GS WTCH B/LET0000001000+00000262+00000+0001T   00000262+0000001353          1400 KU6150               2AZ
172591000172591               172591               170213A2     1400+00000+A20000004120+0000004120+000000000+000000578+0000004690+0000000008+I20000000000+0000004690+Z
172591001172591071-005214     172591006003000152544CELLOTAPE SUPER REFILL 0000001000+00001490+00000+0001T   00001490+0000001517          1400 KU6130               2AZ
172591002172591362-019285     172591006001023869456HAIR BAND SET ASS. CARD0000001000+00002630+00000+0001T   00002630+0000001517          1400 KU6160               2AZ
172592000172592               172592               170213A2     1400+00000+A20000011401+0000011401+000000000+000001597+0000012998+0000000000+I40000012998+0000000000+Z
172592001172592077-000270     172592006003000395453GIFT-BAG PPR JMB 33X45 0000001000+00002630+00000+0001T   00002630+0000001525          1400 KU6112               2AZ
172592002172592368-000012     172592006003000610464PLUSH BEAR 30cm SITTING0000001000+00008771+00000+0001T   00008771+0000001525          1400 KU6745               2AZ
172593000172593               172593               170213A2     1400+00000+A20000007924+0000007924+000000000+000001112+0000009030+0000000006+I20000000000+0000009030+Z
172593001172593080-000113     172593006003000237449CARD&ENVLPE - LOVE     0000001000+00001753+00000+0001T   00001753+0000001539          1400 KU6112               2AZ
172593002172593080-000133-A   172593006003000647019MINI VALENTINES CARD   0000001000+00000437+00000+0001T   00000437+0000001539          1400 KU6112               2AZ
172593003172593089-060027     172593006003000245871KEY-CHAIN HEART 6X6cm  0000001000+00003069+00000+0001T   00003069+0000001539          1400 KU6205               2AZ
172593004172593030-000007     172593006001023527325PLAQUE WDN B/BOARD ASST0000001000+00002630+00000+0001T   00002630+0000001539          1400 KU6505               2AZ
172593005172593112-116038     172593006009681820246TCS CARRIER BAG MIDI   0000001000+00000035+00000+0001T   00000035+0000001539          1400 KU6090               2AZ
172594000172594               172594               170213A2     1400+00000+A20000002630+0000002630+000000000+000000369+0000002999+0000000000+I40000002999+0000000000+Z
172594001172594083-000058     172594006003000400331LIGHTER JET CIGAR REFIL0000001000+00002630+00000+0001T   00002630+0000001543          1400 KU6315               2AZ
172595000172595               172595               170213A2     1400+00000+A20000002630+0000002630+000000000+000000369+0000002990+0000000009+I20000000000+0000002990+Z
172595001172595566-000004     172595006003000062270STICKER BOOK ABC/BORDER0000001000+00002630+00000+0001T   00002630+0000001544          1400 KU6130               2AZ
172596000172596               172596               170213A2     1400+00000+A20000005295+0000005295+000000000+000000742+0000006030+0000000007+I20000000000+0000006030+Z
172596001172596018-005009     172596006001023725608MUG W/PLUSH-BEAR LOVE  0000001000+00003507+00000+0001T   00003507+0000001546          1400 KU6515               2AZ
172596002172596903-000215     172596006002099001214SWT GS MALLOW TWIST PAC0000001000+00001753+00000+0001T   00001753+0000001546          1400 KU6150               2AZ
172596003172596112-116038     172596006009681820246TCS CARRIER BAG MIDI   0000001000+00000035+00000+0001T   00000035+0000001546          1400 KU6090               2AZ
172597000172597               172597               170213A2     1400+00000+A20000008806+0000008806+000000000+000001233+0000010030+0000000009+I20000000000+0000010030+Z
172597001172597001-091415     172597006003000329113W/GLS OCC. LOVE 2PC 2800000001000+00008771+00000+0001T   00009648+0006471549          1400 KU6515               2AZ
172597002172597112-116038     172597006009681820246TCS CARRIER BAG MIDI   0000001000+00000035+00000+0001T   00000035+0000001549          1400 KU6090               2AZ
172598000172598               172598               170213A2     1400+00000+A20000012263+0000012263+000000000+000001726+0000013989+0000000000+I40000013989+0000000000+Z
172598001172598079-009702-D   172598008427973059354PAPER SIRIO A2 RED COL 0000005000+00001051+00000+0001T   00001051+0000001600          1400 KU6130               2AZ
172598002172598079-009702-B   172598008427973059491PAPER SIRIO A2 WHITE   0000005000+00001051+00000+0001T   00001051+0000001600          1400 KU6130               2AZ
172598003172598071-001015     172598006001023910387MARKERS PERMANENT 3PK  0000001000+00001753+00000+0001T   00001753+0000001600          1400 KU6130               2AZ
172599000172599               172599               170213A2     1400+00000+A20000002630+0000002630+000000000+000000369+0000002990+0000000009+I20000000000+0000002990+Z
172599001172599018-000129     172599006001023403353MUG OCC. LOVE V-SHAPE  0000001000+00002630+00000+0001T   00002630+0000001607          1400 KU6515               2AZ
172600000172600               172600               170213A2     1400+00000+A20000003069+0000003069+000000000+000000430+0000003499+0000000000+I40000003499+0000000000+Z
172600001172600365-003056     172600006009635021453KIDDIES WOODEN BROOM   0000001000+00003069+00000+0001T   00003069+0000001611          1400 KU6725               2AZ
172601000172601               172601               170213A2     1400+00000+A20000001753+0000001753+000000000+000000246+0000001990+0000000009+I20000000000+0000001990+Z
172601001172601108-005005     172601006003000667451TRAY PL 29x21cm RECT   0000001000+00001753+00000+0001T   00001753+0000001620          1400 KU6210               2AZ
172602000172602               172602               170213A2     1400+00000+A20000002455+0000002455+000000000+000000344+0000002790+0000000009+I20000000000+0000002790+Z
172602001172602200-000060     172602006001023625762STRAWS 18cm FLEX 200PCE0000001000+00002455+00000+0001T   00002455+0000001623          1400 KU6214               2AZ
172603000172603               172603               170213A2     1400+00000+A20000001753+0000001753+000000000+000000246+0000001990+0000000009+I20000000000+0000001990+Z
172603001172603200-003024     172603006001023657299REFUSE BAGS 20PCE BLACK0000001000+00001753+00000+0001T   00001753+0000001624          1400 KU6214               2AZ
172604000172604               172604               170213A2     1400+00000+A20000018076+0000018076+000000000+000002538+0000020610+0000000004+I20000000000+0000020610+Z
172604001172604566-000068     172604006003000418046POP UP LOVE 2 ASSTD    0000001000+00002192+00000+0001T   00002192+0000001634          1400 KU6130               2AZ
172604002172604077-000380     172604006003000247585GIFT-BAG 33X45CM S/COL 0000001000+00002455+00000+0001T   00002455+0000001634          1400 KU6112               2AZ
172604003172604080-000133-A   172604006003000647019MINI VALENTINES CARD   0000003000+00000437+00000+0001T   00000437+0000001634          1400 KU6112               2AZ
172604004172604071-081101-A   172604006003000326549GLUE-STICK 25g BLISTER 0000001000+00000788+00000+0001T   00000788+0000001634          1400 KU6130               2AZ
172604005172604007-000324     17260400600968585864125 SHEETS BRIGHTS MARLI0000001000+00003507+00000+0001T   00003507+0000001634          1400 KU6130               2AZ
172604006172604077-000310     172604006001023608635GIFT-BAG 18X23CM GLOSS 0000001000+00001314+00000+0001T   00001314+0000001634          1400 KU6112               2AZ
172604007172604077-000302     172604008010410010195GIFT-BAG 18X23CM E/D   0000001000+00000876+00000+0001T   00000876+0000001634          1400 KU6112               2AZ
172604008172604368-000049     172604006003000536955PLUSH BEAR 15cm LOVE   0000001000+00004385+00000+0001T   00004385+0000001634          1400 KU6745               2AZ
172604009172604903-000183     172604006003000451043SWT LB HEART LOLLY     0000003000+00000393+00000+0001T   00000393+0000001634          1400 KU6150               2AZ
172604010172604112-116053     172604006006438002399TCS CARRIER BAG 38L    0000001000+00000069+00000+0001T   00000069+0000001634          1400 KU6090               2AZ
172605000172605               172605               170213A2     1400+00000+A20000012314+0000012314+000000000+000001725+0000014030+0000000009+I20000000000+0000014030+Z
172605001172605047-000514-H   172605006001023427502EXT-CORD 10m DBL-J  H&H0000001000+00012279+00000+0001T   00012279+0000001640          1400 KU6880               2AZ
172605002172605112-116038     172605006009681820246TCS CARRIER BAG MIDI   0000001000+00000035+00000+0001T   00000035+0000001640          1400 KU6090               2AZ
172606000172606               172606               170213A2     1400+00000+A20000011401+0000011401+000000000+000001597+0000012990+0000000008+I20000000000+0000012990+Z
172606001172606368-000614     172606006001023705808PLUSH LOVE 30cm        0000001000+00008771+00000+0001T   00008771+0000001651          1400 KU6745               2AZ
172606002172606368-000100     172606006001023474742PLUSH MD BEAR 12cm     0000001000+00002630+00000+0001T   00002630+0000001651          1400 KU6745               2AZ
172607000172607               172607               170213A2     1400+00000+A20000000918+0000000918+000000000+000000129+0000001040+0000000007+I20000000000+0000001040+Z
172607001172607079-009700-D   172607006003000545711PAPER SIRIO A4 RED COL.0000002000+00000306+00000+0001T   00000306+0000001655          1400 KU6130               2AZ
172607002172607079-009700-B   172607006003000547661PAPER SIRIO A4 WHITE   0000001000+00000306+00000+0001T   00000306+0000001655          1400 KU6130               2AZ
172608000172608               172608               170213A2     1400+00000+A20000003965+0000003965+000000000+000000565+0000004530+0000000000+I20000000000+0000004530+Z
172608001172608903-000183     172608006003000451043SWT LB HEART LOLLY     0000010000+00000393+00000+0001T   00000393+0000001702          1400 KU6150               2AZ
172608002172608112-116038     172608006009681820246TCS CARRIER BAG MIDI   0000001000+00000035+00000+0001T   00000035+0000001702          1400 KU6090               2AZ
172609000172609               172609               170213A2     1400+00000+A20000003329+0000003329+000000000+000000467+0000003796+0000000000+I40000003796+0000000000+Z
172609001172609071-081091     172609006001151010287STAED/GENKEM ALL-STICK 0000002000+00001227+00000+0001T   00001227+0000001722          1400 KU6130               2AZ
172609002172609903-000216     172609006925925900966SWT MALLOW TWIST ERKO  0000001000+00000262+00000+0001T   00000262+0000001722          1400 KU6150               2AZ
172609003172609077-000311     172609006001023608666GIFT-BAG 11X14CM GLOSS 0000001000+00000613+00000+0001T   00000613+0000001722          1400 KU6112               2AZ
172610000172610               172610               170213A2     1400+00000+A20000004385+0000004385+000000000+000000614+0000004990+0000000009+I20000000000+0000004990+Z
172610001172610368-000049     172610006003000536955PLUSH BEAR 15cm LOVE   0000001000+00004385+00000+0001T   00004385+0000001724          1400 KU6745               2AZ
172611000172611               172611               170213A2     1400+00000+A20000003069+0000003069+000000000+000000430+0000003499+0000000000+I40000003499+0000000000+Z
172611001172611106-005120     172611006001023897336ICE-LOLLY-MAKER 6PCE   0000001000+00003069+00000+0001T   00003069+0000001726          1400 KU6210               2AZ
172612000172612               172612               170213A2     1400+00000+A20000005260+0000005260+000000000+000000738+0000005998+0000000000+I40000005998+0000000000+Z
172612001172612565-000040     172612006008766115635NOVELTY ICON BEANIE    0000002000+00002630+00000+0001T   00002630+0000001729          1400 KU6745               2AZ
172613000172613               172613               170213A2     1400+00000+A20000003590-0000000000+000000000+000000000+0000003590-0000000000+I20000000000+0000003590-Z
172613001172613001-999909     172613000000000999909STAFF-REFRESHMENTS     0000001000-00003590+00000+0001X   00000000+0000001735          0000 KU69091IC            2 Z
A17021300                                          15012935A2SLAVE 2                       KU62IC
A17021301                                          17332525A2SLAVE 2                       KU61IC
C17261200                                          170213A2565-000014     17285113SLAVE 2     KU62IC0000000000+0000000000+0020000001000+
M17021301                              IT          A2LAST TILL SLIP NUMBER                                                                           172613                                                                                          THANKS                                          A2
M17021302                              SHIEHAAM    A2Z-READING:1882.39                               C/BANKING:1197.80                               CR/CARDS:648.69                                 P/OUT:R35.90=STAFF-REFRESHMENTS                                                                 CASHIER:ADLEY                                                                                   THANKS                                          A2
M17021391                              CASH        A2SLAVE 2                       Z-REPORT No.   595TOTAL (Sales - Refunds)           1882.39       CASH TO BE BANKED                 1197.80       DEBIT CARDS                          0.00       CREDIT CARDS                       648.69       Z-READING                         1846.49       AIRTIME DEBIT CARD SALES             0.00       AIRTIME CARD SALES                   0.00       OVERS/UNDERS                         0.00       AIRTIME CASH SALES                   0.00       GIFT CARDS                           0.00       GIFT CARD CASH SALES                 0.00       STAFF-REFRESHMENTS                  35.90       T O T A L  CASH PAYOUTS             35.90                                                                                                                                                                                                                                                                                                      Z
M17021392                              CASH        A2ABSENT                                                                                                                                                                                          ANNUAL LEAVE                                                                                                                                                                                    DAY OFF                                                                                                                                                                                         COMMENTS                                                                                                                                                                                                                                                                                                                                                                                       Z
Y17021300                                          A200000000165226+000031
ZA217021321033 SLAVE 2      SALES DATA                     NEXT INVOICE NO.  172614 0595
X A2 Slave 2 First invoice 172582 170213 Last invoice 172613 170213 Next invoice 172614 Total number of records 000000110 clbackup completed 21:03:56
