158218000158218               158218               170213A3     1400+00000+A30000007893+0000007893+000000000+000001106+0000008990+0000000009+I20000000000+0000008990+Z
158218001158218586-098612     158218006001492986128WATCH KIDS RUBBER ASSTD0000001000+00007893+00000+0001T   00007893+0000001012          1400 CK7160               1AZ
158219000158219               158219               170213A3     1400+00000+A30000001752+0000001752+000000000+000000246+0000001990+0000000008+I20000000000+0000001990+Z
158219001158219089-000192-A   158219006001023901774KEY-CHAIN ACRYLIC      0000002000+00000876+00000+0001T   00000876+0000001013          1400 CK7205               1AZ
158220000158220               158220               170213A3     1400+00000+A30000008440+0000008440+000000000+000001190+0000009630+0000000000+I20000000000+0000009630+Z
158220001158220112-116038     158220006009681820246TCS CARRIER BAG MIDI   0000001000+00000035+00000+0001T   00000035+0000001014          1400 CK7090               1AZ
158220002158220903-000183     158220006003000451043SWT LB HEART LOLLY     0000008000+00000393+00000+0001T   00000393+0000001014          1400 CK7150               1AZ
158220003158220077-000011-D   158220006001023808554TISSUE-WRAP WHITE 10PCE0000001000+00000876+00000+0001T   00000876+0000001014          1400 CK7112               1AZ
158220004158220368-000049     158220006003000536955PLUSH BEAR 15cm LOVE   0000001000+00004385+00000+0001T   00004385+0000001014          1400 CK7745               1AZ
158221000158221               158221               170213A3     1400+00000+A30000001314+0000001314+000000000+000000184+0000001490+0000000008+I20000000000+0000001490+Z
158221001158221046-000012     158221006904708013062BATTERIES AA  CARD-OF-40000001000+00001314+00000+0001T   00001314+0000001016          1400 CK7312               1AZ
158222000158222               158222               170213A3     1400+00000+A30000033330+0000033330+000000000+000004668+0000037998+0000000000+I40000037998+0000000000+Z
158222001158222105-007525     158222006003000487707STORAGE BOX CLEAR 21L  0000002000+00016665+00000+0001T   00016665+0000001017          1400 CK7210               1AZ
158223000158223               158223               170213A3     1400+00000+A30000011183+0000011183+000000000+000001567+0000012750+0000000000+I20000000000+0000012750+Z
158223001158223112-116069     158223006009681820277TCS CARRIER BAG JUMBO  0000001000+00000048+00000+0001T   00000048+0000001018          1400 CK7090               1AZ
158223002158223076-000017     158223006001811010022TWINE COTTON 50g-BALL  0000001000+00000876+00000+0001T   00000876+0000001018          1400 CK7810               1AZ
158223003158223089-000141-H   158223006001023416568KEY-CHAINS 6PCE     H&H0000001000+00001490+00000+0001T   00001490+0000001018          1400 CK7205               1AZ
158223004158223058-000062     158223006001023622976HOBBY-KNIFE+BLADE 15cm 0000001000+00003507+00000+0001T   00003507+0000001018          1400 CK7840               1AZ
158223005158223056-065300     158223006001023625854CAR SUNSHIELD ALUM FOIL0000001000+00005262+00000+0001L   00005262+0000001018          1400 CK7860               1AZ
158224000158224               158224               170213A3     1400+00000+A30000002630+0000002630+000000000+000000369+0000002999+0000000000+I40000002999+0000000000+Z
158224001158224206-000600     158224006003000631551TOILET PAPER SUDUKO    0000001000+00002630+00000+0001T   00002630+0000001020          1400 CK7321               1AZ
158225000158225               158225               170213A3     1400+00000+A30000001490+0000001490+000000000+000000209+0000001690+0000000009+I20000000000+0000001690+Z
158225001158225079-000807     158225006003000670277ART+CRAFT WOODEN STICKS0000001000+00001490+00000+0001T   00001490+0000001021          1400 CK7130               1AZ
158226000158226               158226               170213A3     1400+00000+A30000001578+0000001578+000000000+000000221+0000001790+0000000009+I20000000000+0000001790+Z
158226001158226016-006515-A   158226006003000461707S/JAR GLS W/HANDLE 500 0000001000+00001578+00000+0001T   00001753+0008191021          1400 CK7300               1AZ
158227000158227               158227               170213A3     1400+00000+A30000004383+0000004383+000000000+000000617+0000005000+0000000000+I40000005000+0000000000+Z
158227001158227112-116069     158227006009681820277TCS CARRIER BAG JUMBO  0000001000+00000048+00000+0001T   00000048+0000001029          1400 CK7090               1AZ
158227002158227083-000295     158227000644002201821LIGHTER-GAS BUTANE 18ml0000001000+00000876+00000+0001T   00000876+0000001029          1400 CK7315               1AZ
158227003158227083-000049     158227004891035200024CIG-LIGHTER DISPOSABLE 0000001000+00000437+00000+0001T   00000437+0000001029          1400 CK7315               1AZ
158227004158227036-000063     158227006009654960436COATHANGERS VIRGIN 5PCE0000001000+00001753+00000+0001T   00001753+0000001029          1400 CK7212               1AZ
158227005158227077-000011-C   158227006001023808523TISSUE 10xSHTS RED     0000001000+00000876+00000+0001T   00000876+0000001029          1400 CK7112               1AZ
158227006158227903-000183     158227006003000451043SWT LB HEART LOLLY     0000001000+00000393+00000+0001T   00000393+0000001029          1400 CK7150               1AZ
158228000158228               158228               170213A3     1400+00000+A30000004385+0000004385+000000000+000000614+0000004999+0000000000+I40000004999+0000000000+Z
158228001158228079-130010     158228006003000496624ART+CRAFT FOAM DOLLS   0000001000+00004385+00000+0001T   00004385+0000001204          1400 CK7130               1AZ
158229000158229               158229               170213A3     1400+00000+A30000000876+0000000876+000000000+000000123+0000000990+0000000009+I20000000000+0000000990+Z
158229001158229027-783006     158229006003000060719SCOURERS SPONGE        0000001000+00000876+00000+0001T   00000876+0000001205          1400 CK7212               1AZ
158230000158230               158230               170213A3     1400+00000+A30000011476+0000011476+000000000+000001614+0000013090+0000000000+I40000013090+0000000000+Z
158230001158230077-000011-C   158230006001023808523TISSUE 10xSHTS RED     0000001000+00000876+00000+0001T   00000876+0000001208          1400 CK7112               1AZ
158230002158230079-009702-D   158230008427973059354PAPER SIRIO A2 RED COL 0000008000+00001051+00000+0001T   00001051+0000001208          1400 CK7130               1AZ
158230003158230566-000068     158230006003000418046POP UP LOVE 2 ASSTD    0000001000+00002192+00000+0001T   00002192+0000001208          1400 CK7130               1AZ
158231000158231               158231               170213A3     1400+00000+A30000035084+0000035084+000000000+000004912+0000039996+0000000000+I40000039996+0000000000+Z
158231001158231072-020244     158231000694202207840PET BED COTTON 90x70cm 0000002000+00017542+00000+0001T   00017542+0000001220          1400 CK7870               1AZ
158232000158232               158232               170213A3     1400+00000+A30000001227+0000001227+000000000+000000172+0000001390+0000000009+I20000000000+0000001390+Z
158232001158232251-000040     158232006001023515865SEALTAPE CLEAR 48mmx50m0000001000+00001227+00000+0001T   00001227+0000001220          1400 CK7810               1AZ
158233000158233               158233               170213A3     1400+00000+A30000001927+0000001927+000000000+000000270+0000002190+0000000007+I20000000000+0000002190+Z
158233001158233047-000001-BB  158233006001023723536INS-TAPE BLACK 18mmx10m0000001000+00000613+00000+0001T   00000613+0000001225          1400 CK7880               1AZ
158233002158233078-009100     158233006008741002349ALL-CLEAR GLUE 25ml CRD0000001000+00001314+00000+0001T   00001314+0000001225          1400 CK7810               1AZ
158234000158234               158234               170213A3     1400+00000+A30000002630+0000002630+000000000+000000369+0000002999+0000000000+I40000002999+0000000000+Z
158234001158234072-020309     158234006001023700995DOG-TOY DUMBELL F/BALL 0000001000+00002630+00000+0001T   00002630+0000001227          1400 CK7870               1AZ
158235000158235               158235               170213A3     1400+00000+A30000001314+0000001314+000000000+000000184+0000001490+0000000008+I20000000000+0000001490+Z
158235001158235107-004105     158235006002923010504BUCKET 9L OPEN         0000001000+00001314+00000+0001T   00001314+0000001227          1400 CK7210               1AZ
158236000158236               158236               170213A3     1400+00000+A30000004385+0000004385+000000000+000000614+0000004990+0000000009+I20000000000+0000004990+Z
158236001158236004-071270     158236006001023802156CD-DISCS WRITABLE 10PCE0000001000+00004385+00000+0001T   00004385+0000001228          1400 CK7310               1AZ
158237000158237               158237               170213A3     1400+00000+A30000006174+0000006174+000000000+000000865+0000007030+0000000009+I20000000000+0000007030+Z
158237001158237018-050000     158237006003000412679MUG OCC LOVE TWIN BEAR 0000001000+00006139+00000+0001T   00006139+0000001232          1400 CK7515               1AZ
158237002158237112-116038     158237006009681820246TCS CARRIER BAG MIDI   0000001000+00000035+00000+0001T   00000035+0000001232          1400 CK7090               1AZ
158238000158238               158238               170213A3     1400+00000+A30000004383+0000004383+000000000+000000614+0000004997+0000000000+I40000004997+0000000000+Z
158238001158238566-000317     158238006003000524204STICKER TAPE 2PCS      0000001000+00003507+00000+0001T   00003507+0000001234          1400 CK7130               1AZ
158238002158238077-000011-L   158238006001023808585P/TISSUE BRIGHT 10SHEET0000001000+00000876+00000+0001T   00000876+0000001234          1400 CK7112               1AZ
158239000158239               158239               170213A3     1400+00000+A30000000048+0000000048+000000000+000000007+0000000050+0000000005+I20000000000+0000000050+Z
158239001158239112-116069     158239006009681820277TCS CARRIER BAG JUMBO  0000001000+00000048+00000+0001T   00000048+0000001236          1400 CK7090               1AZ
158240000158240               158240               170213A3     1400+00000+A30000004385+0000004385+000000000+000000614+0000004990+0000000009+I20000000000+0000004990+Z
158240001158240027-008815     158240006003000439799DUSTER 62cm RUBBER-GRIP0000001000+00004385+00000+0001T   00004385+0000001236          1400 CK7212               1AZ
158241000158241               158241               170213A3     1400+00000+A30000001314+0000001314+000000000+000000184+0000001490+0000000008+I20000000000+0000001490+Z
158241001158241565-000892-A   158241006003000690725NOVELTY FUN BALL       0000001000+00001314+00000+0001T   00001753+0008141237          1400 CK7745               1AZ
158242000158242               158242               170213A3     1400+00000+A30000020212+0000020212+000000000+000002833+0000023040+0000000005+I20000000000+0000023040+Z
158242001158242112-116069     158242006009681820277TCS CARRIER BAG JUMBO  0000001000+00000048+00000+0001T   00000048+0000001244          1400 CK7090               1AZ
158242002158242033-000124     158242006009654960597COMBS HANDLE + TAIL 2PC0000001000+00001051+00000+0001T   00001051+0000001244          1400 CK7200               1AZ
158242003158242565-000002     158242006003000308071NOVELTY GROWING ANIMALS0000001000+00001753+00000+0001T   00001753+0000001244          1400 CK7745               1AZ
158242004158242073-000158     158242006003000683352COSMETIC BAG 18x10x3   0000001000+00002192+00000+0001T   00002192+0000001244          1400 CK7200               1AZ
158242005158242159-000637     158242006001023735058BATH PUMICE STONE      0000001000+00000700+00000+0001T   00000700+0000001244          1400 CK7200               1AZ
158242006158242036-000063     158242006009654960436COATHANGERS VIRGIN 5PCE0000001000+00001753+00000+0001T   00001753+0000001244          1400 CK7212               1AZ
158242007158242106-001109     158242006003000666355W/BOTTLE 650ml         0000001000+00002630+00000+0001T   00002630+0000001244          1400 CK7210               1AZ
158242008158242486-002307     158242006003000443086W/CLOCK QTZ PL ANTIQUE 0000001000+00008771+00000+0001T   00008771+0000001244          1400 CK7510               1AZ
158242009158242046-000012     158242006904708013062BATTERIES AA  CARD-OF-40000001000+00001314+00000+0001T   00001314+0000001244          1400 CK7312               1AZ
158243000158243               158243               170213A3     1400+00000+A30000007831+0000007831+000000000+000001100+0000008930+0000000001+I20000000000+0000008930+Z
158243001158243033-005991     158243006001023678546NEEDLES H/HOLD-REPAIR  0000001000+00000788+00000+0001T   00000788+0000001246          1400 CK7200               1AZ
158243002158243033-005931     158243006001023678447PINS ON-WHEEL PEARLIZED0000008000+00000876+00000+0001T   00000876+0000001246          1400 CK7200               1AZ
158243003158243112-116038     158243006009681820246TCS CARRIER BAG MIDI   0000001000+00000035+00000+0001T   00000035+0000001246          1400 CK7090               1AZ
158244000158244               158244               170213A3     1400+00000+A30000000786+0000000786+000000000+000000112+0000000890+0000000008+I20000000000+0000000890+Z
158244001158244903-000183     158244006003000451043SWT LB HEART LOLLY     0000002000+00000393+00000+0001T   00000393+0000001248          1400 CK7150               1AZ
158245000158245               158245               170213A3     1400+00000+A30000011749+0000011749+000000000+000001646+0000013390+0000000005+I20000000000+0000013390+Z
158245001158245301-085000     158245006003000674299 ORN OCC. LOVE HEARTS  0000002000+00002192+00000+0001T   00002192+0000001258          1400 CK7505               1AZ
158245002158245301-085008     158245006003000673933ORN OCC.LOVE TINSEL HRT0000002000+00003069+00000+0001T   00003069+0000001258          1400 CK7505               1AZ
158245003158245077-000245     158245006001023759214GIFT-RIBBON METALLICx2 0000001000+00001227+00000+0001T   00001227+0000001258          1400 CK7112               1AZ
158246000158246               158246               170213A3     1400+00000+A30000001752+0000001752+000000000+000000246+0000001990+0000000008+I20000000000+0000001990+Z
158246001158246083-000295     158246000644002201821LIGHTER-GAS BUTANE 18ml0000002000+00000876+00000+0001T   00000876+0000001516          1400 CK7315               1AZ
158247000158247               158247               170213A3     1400+00000+A30000004420+0000004420+000000000+000000619+0000005030+0000000009+I20000000000+0000005030+Z
158247001158247368-000001     158247006003000097982Plush Bear 25cm        0000001000+00004385+00000+0001T   00004385+0000001517          1400 CK7745               1AZ
158247002158247112-116038     158247006009681820246TCS CARRIER BAG MIDI   0000001000+00000035+00000+0001T   00000035+0000001517          1400 CK7090               1AZ
158248000158248               158248               170213A3     1400+00000+A30000004868+0000004868+000000000+000000683+0000005550+0000000001+I20000000000+0000005550+Z
158248001158248047-000507     158248006001023684479PLUG-ADAPTOR EURO TWIN 0000001000+00001753+00000+0001T   00001753+0000001519          1400 CK7880               1AZ
158248002158248159-000445     158248006001023669728SOAP-BOX PL OVAL       0000001000+00001139+00000+0001T   00001139+0000001519          1400 CK7200               1AZ
158248003158248105-001078     158248000700371637750CONTAINER 1,1L CLIP LOC0000001000+00001928+00000+0001T   00001928+0000001519          1400 CK7210               1AZ
158248004158248112-116069     158248006009681820277TCS CARRIER BAG JUMBO  0000001000+00000048+00000+0001T   00000048+0000001519          1400 CK7090               1AZ
158249000158249               158249               170213A3     1400+00000+A30000004910+0000004910+000000000+000000688+0000005590+0000000008+I20000000000+0000005590+Z
158249001158249105-001079     158249000700371655921CONTAINER 2.2L CLIP LOC0000002000+00002455+00000+0001T   00002455+0000001520          1400 CK7210               1AZ
158250000158250               158250               170213A3     1400+00000+A30000001227+0000001227+000000000+000000172+0000001390+0000000009+I20000000000+0000001390+Z
158250001158250903-000111     158250006001704006378SWT LIQUORICE-TWISTS   0000001000+00001227+00000+0001T   00001227+0000001521          1400 CK7150               1AZ
158251000158251               158251               170213A3     1400+00000+A30000000878-0000000878-000000000+000000123-0000001010-0000000009+I20000000000+0000001010-Z
158251001158251368-000001     158251006003000097982Plush Bear 25cm        0000001000-00004385+00000+0001T   00004385+0000001523          1400 CK77452IC            1 Z
158251002158251018-000136     158251006001023659026MUG OCC LOVE W/PLUSH   0000001000+00003507+00000+0001T   00003507+0000001523          1400 CK7515               1 Z
158252000158252               158252               170213A3     1400+00000+A30000002630+0000002630+000000000+000000369+0000002990+0000000009+I20000000000+0000002990+Z
158252001158252006-006018     158252006001023735256PARTY-SPRAY HAIR ASSORT0000001000+00002630+00000+0001T   00002630+0000001525          1400 CK7131               1AZ
158253000158253               158253               170213A3     1400+00000+A30000001753+0000001753+000000000+000000246+0000001990+0000000009+I20000000000+0000001990+Z
158253001158253200-003024     158253006001023657299REFUSE BAGS 20PCE BLACK0000001000+00001753+00000+0001T   00001753+0000001526          1400 CK7214               1AZ
158254000158254               158254               170213A3     1400+00000+A30000001706+0000001706+000000000+000000241+0000001940+0000000007+I20000000000+0000001940+Z
158254001158254903-000155     158254006009803374435SWT LOLLY I LUV U HEART0000001000+00000525+00000+0001T   00000525+0000001528          1400 CK7150               1AZ
158254002158254903-000200     158254006009826020234SWT CHOC RP CHOCO 23G  0000001000+00000788+00000+0001T   00000788+0000001528          1400 CK7150               1AZ
158254003158254903-000183     158254006003000451043SWT LB HEART LOLLY     0000001000+00000393+00000+0001T   00000393+0000001528          1400 CK7150               1AZ
158255000158255               158255               170213A3     1400+00000+A30000001402+0000001402+000000000+000000197+0000001590+0000000009+I20000000000+0000001590+Z
158255001158255304-001204     158255006001023737984FLOWER OCC. TEDDY/ROSES0000001000+00001402+00000+0001T   00001490+0006471529          1400 CK7510               1AZ
158256000158256               158256               170213A3     1400+00000+A30000310514+0000310514+000000000+000043500+0000354014+0000000000+I40000354014+0000000000+Z
158256001158256028-002101     158256006002580009507CHAIR JUNIOR    ASSTD  0000005000+00003507+00000+0001T   00003507+0000001609          1400 CK7305               1AZ
158256002158256368-000024     158256006003000672387PLUSH ANIMAL 32cm ASSTD0000002000+00007893+00000+0001T   00007893+0000001609          1400 CK7745               1AZ
158256003158256361-000113     158256006001023680204DOLL 30cm RAG          0000002000+00005262+00000+0001T   00005262+0000001609          1400 CK7725               1AZ
158256004158256368-000021     158256006003000672141PLUSH DINOSAUR 27cm    0000001000+00007016+00000+0001T   00007016+0000001609          1400 CK7745               1AZ
158256005158256369-000035     158256006001023795885EDU STACKING-SET ASSTD 0000001000+00003507+00000+0001T   00003507+0000001609          1400 CK7745               1AZ
158256006158256369-061024     158256006008766061024SOFT BALLS W/BELL 4PC  0000001000+00010525+00000+0001T   00010525+0000001609          1400 CK7745               1AZ
158256007158256071-000012     158256006001177101006CHALK COLOUR 12PCE     0000002000+00000481+00000+0001T   00000481+0000001609          1400 CK7130               1AZ
158256008158256369-001032     158256006001023796158BABY RATTLE SET 6PCE   0000001000+00004385+00000+0001T   00004385+0000001609          1400 CK7745               1AZ
158256009158256267-000903     158256006003000636013PUZZLE WOOD JIGSAW 3PGS0000001000+00005262+00000+0001T   00005262+0000001609          1400 CK7755               1AZ
158256010158256562-000743     158256006001023712318EDU BLOCKS SHAPE PL    0000001000+00004385+00000+0001T   00004385+0000001609          1400 CK7755               1AZ
158256011158256369-001032     158256006001023796158BABY RATTLE SET 6PCE   0000001000+00004385+00000+0001T   00004385+0000001609          1400 CK7745               1AZ
158256012158256562-000211     158256006001023851536PUSH-IN BOARD ALPHABET 0000001000+00005262+00000+0001T   00005262+0000001609          1400 CK7755               1AZ
158256013158256562-000002     158256006001023491015COUNTING-FRAME 30x20cm 0000001000+00007016+00000+0001T   00007016+0000001609          1400 CK7755               1AZ
158256014158256562-000212     158256006001023851567PUSH-IN BOARD NUMBERS  0000001000+00004385+00000+0001T   00004385+0000001609          1400 CK7755               1AZ
158256015158256079-000510     158256006001023509079CRAYONS WAX 12-COLOUR  0000002000+00002455+00000+0001T   00002455+0000001609          1400 CK7130               1AZ
158256016158256567-011428     158256009780799352559BK READER BEGIN LEES   0000001000+00003507+00000+0001T   00004823+0008141609          1400 CK7757               1AZ
158256017158256567-011427     158256009780799352511BK READER BEGIN LEES   0000001000+00003507+00000+0001T   00004823+0008141609          1400 CK7757               1AZ
158256018158256567-011429     158256009780799352610BK READER BEGIN LEES   0000001000+00003507+00000+0001T   00004823+0008141609          1400 CK7757               1AZ
158256019158256567-011429     158256009780799352603BK READER BEGIN LEES   0000001000+00003507+00000+0001T   00004823+0008141609          1400 CK7757               1AZ
158256020158256562-000002     158256006001023491015COUNTING-FRAME 30x20cm 0000002000+00007016+00000+0001T   00007016+0000001609          1400 CK7755               1AZ
158256021158256562-088335     158256006003000425372EVA PUZZLE MAT MINI    0000005000+00001753+00000+0001T   00001753+0000001609          1400 CK7755               1AZ
158256022158256567-014132     158256006003000560028BOOK COLOURING 24 PAGE 0000006000+00000876+00000+0001T   00000876+0000001609          1400 CK7757               1AZ
158256023158256562-000212     158256006001023851567PUSH-IN BOARD NUMBERS  0000002000+00004385+00000+0001T   00004385+0000001609          1400 CK7755               1AZ
158256024158256562-000743     158256006001023712318EDU BLOCKS SHAPE PL    0000001000+00004385+00000+0001T   00004385+0000001609          1400 CK7755               1AZ
158256025158256369-000042     158256006001023993854BABY BEAR RATTLE ASSTD 0000001000+00004385+00000+0001T   00004385+0000001609          1400 CK7745               1AZ
158256026158256469-006602     158256006003000390328B/BLOCKS 26PC BACKPACK 0000002000+00005262+00000+0001T   00005262+0000001609          1400 CK7755               1AZ
158256027158256369-000035     158256006001023795885EDU STACKING-SET ASSTD 0000001000+00003507+00000+0001T   00003507+0000001609          1400 CK7745               1AZ
158256028158256369-061024     158256006008766061024SOFT BALLS W/BELL 4PC  0000001000+00010525+00000+0001T   00010525+0000001609          1400 CK7745               1AZ
158256029158256369-000042     158256006001023993854BABY BEAR RATTLE ASSTD 0000002000+00004385+00000+0001T   00004385+0000001609          1400 CK7745               1AZ
158256030158256079-000512     158256006001023635853CRAYONS WAX 12-COLOUR  0000001000+00001490+00000+0001T   00001490+0000001609          1400 CK7130               1AZ
158256031158256369-000042     158256006001023993854BABY BEAR RATTLE ASSTD 0000001000+00004385+00000+0001T   00004385+0000001609          1400 CK7745               1AZ
158256032158256079-000512     158256006001023635853CRAYONS WAX 12-COLOUR  0000001000+00001490+00000+0001T   00001490+0000001609          1400 CK7130               1AZ
158256033158256469-000302     158256006003000128204B/BLOCKS 58PC MY TOWN  0000001000+00019297+00000+0001T   00019297+0000001609          1400 CK7755               1AZ
158256034158256267-000903     158256006003000636013PUZZLE WOOD JIGSAW 3PGS0000001000+00005262+00000+0001T   00005262+0000001609          1400 CK7755               1AZ
158256035158256267-000311     158256006003000610730PUZZLE WOOD TRAY ASSTD 0000002000+00003507+00000+0001T   00003507+0000001609          1400 CK7755               1AZ
158256036158256562-000211     158256006001023851536PUSH-IN BOARD ALPHABET 0000002000+00005262+00000+0001T   00005262+0000001609          1400 CK7755               1AZ
158256037158256562-088354     158256006001023735980EVA MAT 26PC 30x30cm   0000001000+00016665+00000+0001T   00016665+0000001609          1400 CK7755               1AZ
158256038158256562-088357     158256006001023873392EVA CARPET 56x56x0.9cm 0000001000+00012279+00000+0001T   00012279+0000001609          1400 CK7755               1AZ
158256039158256007-010504     158256006002923014960BLACKBOARD EASEL       0000002000+00007893+00000+0001T   00007893+0000001609          1400 CK7130               1AZ
158256040158256903-000211     158256006002099001238SWT GS MALLOW ICE CREAM0000010000+00001753+00000+0001T   00001753+0000001609          1400 CK7150               1AZ
158257000158257               158257               170213A3     1400+00000+A30000013155+0000013155+000000000+000001842+0000014997+0000000000+I40000014997+0000000000+Z
158257001158257028-002101     158257006002580009507CHAIR JUNIOR    ASSTD  0000001000+00003507+00000+0001T   00003507+0000001610          1400 CK7305               1AZ
158257002158257028-000026     158257006001023810847COOLER-BAG+POCKET NYLON0000001000+00009648+00000+0001T   00009648+0000001610          1400 CK7305               1AZ
158258000158258               158258               170213A3     1400+00000+A30000006433+0000006433+000000000+000000903+0000007336+0000000000+I40000007336+0000000000+Z
158258001158258903-000200     158258006009826020234SWT CHOC RP CHOCO 23G  0000001000+00000788+00000+0001T   00000788+0000001642          1400 1IC150               1BZ
158258002158258080-000113     158258006003000237449CARD&ENVLPE - LOVE     0000001000+00001753+00000+0001T   00001753+0000001642          1400 1IC112               1BZ
158258003158258018-000129     158258006001023403353MUG OCC. LOVE V-SHAPE  0000001000+00002630+00000+0001T   00002630+0000001642          1400 1IC515               1BZ
158258004158258112-116038     158258006009681820246TCS CARRIER BAG MIDI   0000001000+00000035+00000+0001T   00000035+0000001642          1400 1IC090               1BZ
158258005158258077-000322     158258006001023677532GIFT-BAG 18X23CM E/D FL0000001000+00001227+00000+0001T   00001227+0000001642          1400 1IC112               1BZ
158259000158259               158259               170213A3     1400+00000+A30000004330+0000004330+000000000+000000607+0000004930+0000000007+I20000000000+0000004930+Z
158259001158259903-000200     158259006009826020234SWT CHOC RP CHOCO 23G  0000001000+00000788+00000+0001T   00000788+0000001643          1400 1IC150               1BZ
158259002158259018-005009     158259006001023725608MUG W/PLUSH-BEAR LOVE  0000001000+00003507+00000+0001T   00003507+0000001643          1400 1IC515               1BZ
158259003158259112-116038     158259006009681820246TCS CARRIER BAG MIDI   0000001000+00000035+00000+0001T   00000035+0000001643          1400 1IC090               1BZ
158260000158260               158260               170213A3     1400+00000+A30000004822+0000004822+000000000+000000676+0000005498+0000000000+I40000005498+0000000000+Z
158260001158260006-000190     158260006003000685530BALLOONS LOVE 81x91cm  0000001000+00004385+00000+0001T   00004385+0000001649          1400 1IC131               1BZ
158260002158260080-000133-A   158260006003000647019MINI VALENTINES CARD   0000001000+00000437+00000+0001T   00000437+0000001649          1400 1IC112               1BZ
158261000158261               158261               170213A3     1400+00000+A30000001753+0000001753+000000000+000000246+0000001999+0000000000+I40000001999+0000000000+Z
158261001158261038-000205     158261006001926001205PLACE-MATS PVC ASSTD-C 0000001000+00001753+00000+0001T   00001753+0000001650          1400 1IC300               1BZ
158262000158262               158262               170213A3     1400+00000+A30000003507+0000003507+000000000+000000491+0000003990+0000000008+I20000000000+0000003990+Z
158262001158262562-000020     158262006003000600861EDU PLAY DOUGH 60g 4PC 0000001000+00003507+00000+0001T   00003507+0000001704          1400 1IC755               1BZ
158263000158263               158263               170213A3     1400+00000+A30000011350+0000011350+000000000+000001591+0000012941+0000000000+I40000012941+0000000000+Z
158263001158263079-009700-D   158263006003000545711PAPER SIRIO A4 RED COL.0000003000+00000306+00000+0001T   00000306+0000001724          1400 CK7130               1AZ
158263003158263018-005009     158263006001023725608MUG W/PLUSH-BEAR LOVE  0000001000+00003507+00000+0001T   00003507+0000001724          1400 CK7515               1AZ
158263004158263206-000350     158263006003000633265EGG MOULD SUNRISE      0000001000+00002630+00000+0001T   00002630+0000001724          1400 CK7321               1AZ
158263005158263089-060027     158263006003000245871KEY-CHAIN HEART 6X6cm  0000001000+00003069+00000+0001T   00003069+0000001724          1400 CK7205               1AZ
158263006158263304-001011     158263006001023806727FLWR ROSE RED W/BEAR   0000002000+00000613+00000+0001T   00000788+0006471724          1400 CK7510               1AZ
158264000158264               158264               170213A3     1400+00000+A30000007050+0000007050+000000000+000000988+0000008030+0000000008+I20000000000+0000008030+Z
158264001158264112-116038     158264006009681820246TCS CARRIER BAG MIDI   0000001000+00000035+00000+0001T   00000035+0000001726          1400 CK7090               1AZ
158264002158264206-000620     158264006003000631797BACK SCRATCHER EXTEND  0000001000+00002630+00000+0001T   00002630+0000001726          1400 CK7321               1AZ
158264003158264001-000175     158264006001023788108B/MUG GLS LOVE 380ML   0000001000+00004385+00000+0001T   00004385+0000001726          1400 CK7515               1AZ
158265000158265               158265               170213A3     1400+00000+A30000006576+0000006576+000000000+000000921+0000007497+0000000000+I40000007497+0000000000+Z
158265001158265140-005093     158265006003000331338INSECT-KILL RAQT-SHAPED0000001000+00005262+00000+0001T   00005262+0000001734          1400 CK7830               1AZ
158265002158265046-000012     158265006904708013062BATTERIES AA  CARD-OF-40000001000+00001314+00000+0001T   00001314+0000001734          1400 CK7312               1AZ
158266000158266               158266               170213A3     1400+00000+A30000008066+0000008066+000000000+000001130+0000009196+0000000000+I40000009196+0000000000+Z
158266001158266077-000245     158266006001023759214GIFT-RIBBON METALLICx2 0000001000+00001227+00000+0001T   00001227+0000001736          1400 CK7112               1AZ
158266002158266368-000175     158266006003000270316PLUSH BEAR 4 ASSTD 18CM0000001000+00006139+00000+0001T   00006139+0000001736          1400 CK7745               1AZ
158266003158266564-000012     158266006001023130075BUBBLE BOTTLE MAGIC    0000001000+00000700+00000+0001T   00000700+0000001736          1400 CK7131               1AZ
158267000158267               158267               170213A3     1400+00000+A30000007015+0000007015+000000000+000000983+0000007998+0000000000+I40000007998+0000000000+Z
158267001158267077-000301     158267008010410010188BAG LRG 25X32CM B/DAY  0000001000+00001753+00000+0001T   00001753+0000001740          1400 CK7112               1AZ
158267002158267267-000250     158267006001023892386PUZZLE 500pc LANDSCAPE 0000001000+00005262+00000+0001T   00005262+0000001740          1400 CK7755               1AZ
158268000158268               158268               170213A3     1400+00000+A30000008771+0000008771+000000000+000001228+0000009999+0000000000+I40000009999+0000000000+Z
158268001158268001-091415     158268006003000329113W/GLS OCC. LOVE 2PC 2800000001000+00008771+00000+0001T   00009648+0006471747          1400 CK7515               1AZ
158269000158269               158269               170213A3     1400+00000+A30000009679+0000009679+000000000+000001356+0000011035+0000000000+I40000011035+0000000000+Z
158269001158269018-005009     158269006001023725608MUG W/PLUSH-BEAR LOVE  0000001000+00003507+00000+0001T   00003507+0000001754          1400 CK7515               1AZ
158269002158269301-085001     158269006003000297610ORN WATERBALL LOVE ASST0000001000+00004823+00000+0001T   00004823+0000001754          1400 CK7505               1AZ
158269003158269077-000310     158269006001023608635GIFT-BAG 18X23CM GLOSS 0000001000+00001314+00000+0001T   00001314+0000001754          1400 CK7112               1AZ
158269004158269112-116038     158269006009681820246TCS CARRIER BAG MIDI   0000001000+00000035+00000+0001T   00000035+0000001754          1400 CK7090               1AZ
158270000158270               158270               170213A3     1400+00000+A30000007924+0000007924+000000000+000001111+0000009030+0000000005+I20000000000+0000009030+Z
158270001158270039-001023     158270006003000466337CANDLE TEA-LITE METALIC0000001000+00001753+00000+0001T   00001753+0000001801          1400 CK7510               1AZ
158270002158270030-000010     158270006003000084395P/DOOR HANGER 2-ASSTD  0000001000+00001314+00000+0001T   00001490+0008181801          1400 CK7505               1AZ
158270003158270006-000190     158270006003000685530BALLOONS LOVE 81x91cm  0000001000+00004385+00000+0001T   00004385+0000001801          1400 CK7131               1AZ
158270004158270112-116038     158270006009681820246TCS CARRIER BAG MIDI   0000001000+00000035+00000+0001T   00000035+0000001801          1400 CK7090               1AZ
158270005158270080-000133     158270006003000535613CARD&ENV MINI ASTD DSGN0000001000+00000437+00000+0001T   00000437+0000001801          1400 CK7112               1AZ
158271000158271               158271               170213A3     1400+00000+A30000006233+0000006233+000000000+000000874+0000007107+0000000000+I40000007107+0000000000+Z
158271001158271466-001017     158271006003000590544CRICKET-BAT PL W/BALL  0000001000+00003507+00000+0001T   00003507+0000001805          1400 CK7785               1AZ
158271002158271263-000130     158271006003000305742MOTORBIKE B/BACK 11CM  0000001000+00002630+00000+0001T   00002630+0000001805          1400 CK7710               1AZ
158271003158271112-116069     158271006009681820277TCS CARRIER BAG JUMBO  0000002000+00000048+00000+0001T   00000048+0000001805          1400 CK7090               1AZ
C15826300                                          170213A3903-000194     17224685SLAVE 1     CK71IC0000000000+0000000000+0020000001000+
M17021391                              CASH        A3SLAVE 1                       Z-REPORT No.   672TOTAL (Sales - Refunds)           7239.15       CASH TO BE BANKED                 1622.20       DEBIT CARDS                          0.00       CREDIT CARDS                      5616.95       Z-READING                         7239.15       AIRTIME DEBIT CARD SALES             0.00       AIRTIME CARD SALES                   0.00       OVERS/UNDERS                         0.00       AIRTIME CASH SALES                   0.00       GIFT CARDS                           0.00       GIFT CARD CASH SALES                 0.00       T O T A L  CASH PAYOUTS              0.00                                                                                                                                                                                                                                                                                                                                                      Z
M17021392                              CASH        A3ABSENT                                                                                                                                                                                          ANNUAL LEAVE                                                                                                                                                                                    DAY OFF                                                                                                                                                                                         COMMENTS          Z /READING   7239.15                                                                                                                                                                                                                                                                                                                                                         Z
Y17021300                                          A300000000639532+000054
ZA317021319173 SLAVE 1      SALES DATA                     NEXT INVOICE NO.  158272 0672
F093683496-058484         1701111412280000101ICSLAVE 1
F093827496-028142         1701111412320000021ICSLAVE 1
X A3 Slave 1 First invoice 158218 170213 Last invoice 158271 170213 Next invoice 158272 Total number of records 000000217 clbackup completed 19:17:12
