164627000164627               164627               170213A3     1400+00000+A30000006174+0000006174+000000000+000000865+0000007039+0000000000+I40000007039+0000000000+Z
164627001164627018-050000     164627006003000412679MUG OCC LOVE TWIN BEAR 0000001000+00006139+00000+0001T   00006139+0000000844          1400 FT6515               2AZ
164627002164627112-116038     164627006009681820246TCS CARRIER BAG MIDI   0000001000+00000035+00000+0001T   00000035+0000000844          1400 FT6090               2AZ
164628000164628               164628               170213A3     1400+00000+A30000015739+0000015739+000000000+000002208+0000017947+0000000000+I40000017947+0000000000+Z
164628001164628150-000776     164628006001023839756UTILITY/TOOL-BOX PL    0000001000+00003507+00000+0001T   00003507+0000000915          1400 FT6810               2AZ
164628002164628133-000062     164628006001023822086FACE-CLOTH PLAIN ASSTD 0000001000+00001753+00000+0001T   00001753+0000000915          1400 FT6212               2AZ
164628003164628159-000445     164628006001023669728SOAP-BOX PL OVAL       0000001000+00001139+00000+0001T   00001139+0000000915          1400 FT6200               2AZ
164628004164628073-000157     164628006003000571734COSMETIC QUILTED BAG   0000001000+00002630+00000+0001T   00002630+0000000915          1400 FT6200               2AZ
164628005164628306-000021-A   164628006001023891358EARBUDS COTTON 100PCE  0000001000+00000876+00000+0001T   00000876+0000000915          1400 FT6200               2AZ
164628006164628036-000151     164628006001023810588COATHANGERS    PACK-10 0000002000+00002893+00000+0001T   00002893+0000000915          1400 FT6212               2AZ
164628007164628112-116069     164628006009681820277TCS CARRIER BAG JUMBO  0000001000+00000048+00000+0001T   00000048+0000000915          1400 FT6090               2AZ
164629000164629               164629               170213A3     1400+00000+A30000002927+0000002927+000000000+000000410+0000003337+0000000000+I40000003337+0000000000+Z
164629001164629903-000194     164629006009826020616SWT CHOC RP LOLLY 25G  0000001000+00001314+00000+0001T   00001314+0000000918          1400 FT6150               2AZ
164629002164629080-000124     164629006003000297733CARD & ENV VALENTINES  0000001000+00001578+00000+0001T   00001578+0000000918          1400 FT6112               2AZ
164629003164629112-116038     164629006009681820246TCS CARRIER BAG MIDI   0000001000+00000035+00000+0001T   00000035+0000000918          1400 FT6090               2AZ
164630000164630               164630               170213A3     1400+00000+A30000007399+0000007399+000000000+000001037+0000008430+0000000006+I20000000000+0000008430+Z
164630001164630079-003002     164630006003000447886A/TUBE 75ML RED        0000001000+00001753+00000+0001T   00001753+0000000922          1400 FT6130               2AZ
164630002164630368-000049     164630006003000536955PLUSH BEAR 15cm LOVE   0000001000+00004385+00000+0001T   00004385+0000000922          1400 FT6745               2AZ
164630003164630304-001011     164630006001023806727FLWR ROSE RED W/BEAR   0000001000+00000613+00000+0001T   00000788+0006470922          1400 FT6510               2AZ
164630004164630083-000055     164630006003000003853LIGHTER ELCTRNC REFILBL0000001000+00000613+00000+0001T   00000613+0000000922          1400 FT6315               2AZ
164630005164630112-116038     164630006009681820246TCS CARRIER BAG MIDI   0000001000+00000035+00000+0001T   00000035+0000000922          1400 FT6090               2AZ
164631000164631               164631               170213A3     1400+00000+A30000001753+0000001753+000000000+000000246+0000001990+0000000009+I20000000000+0000001990+Z
164631001164631466-064834     164631006008766064834BALL W/SPIKES 20cm     0000001000+00001753+00000+0001T   00001753+0000000931          1400 FT6785               2AZ
164632000164632               164632               170213A3     1400+00000+A30000007016+0000007016+000000000+000000983+0000007990+0000000009+I20000000000+0000007990+Z
164632001164632366-002006     164632006001023902696DRESS UP WIGS PARTY ASS0000001000+00007016+00000+0001T   00007016+0000001039          1400 FT6131               2AZ
164633000164633               164633               170213A3     1400+00000+A30000002278+0000002278+000000000+000000320+0000002590+0000000008+I20000000000+0000002590+Z
164633001164633046-000014     164633006001023725387BATTERIES SIZE:AAA 4PCE0000002000+00001139+00000+0001T   00001139+0000001108          1400 FT6312               2AZ
164634000164634               164634               170213A3     1400+00000+A30000006577+0000006577+000000000+000000921+0000007490+0000000008+I20000000000+0000007490+Z
164634001164634369-001032     164634006001023796158BABY RATTLE SET 6PCE   0000001000+00004385+00000+0001T   00004385+0000001109          1400 FT6745               2AZ
164634002164634369-001010     164634006001023864222BATH VINYL DUCK 4PC    0000001000+00002192+00000+0001T   00002192+0000001109          1400 FT6745               2AZ
164635000164635               164635               170213A3     1400+00000+A30000001965+0000001965+000000000+000000280+0000002240+0000000005+I20000000000+0000002240+Z
164635001164635903-000183     164635006003000451043SWT LB HEART LOLLY     0000005000+00000393+00000+0001T   00000393+0000001121          1400 FT6150               2AZ
164636000164636               164636               170213A3     1400+00000+A30000001753+0000001753+000000000+000000246+0000001990+0000000009+I20000000000+0000001990+Z
164636001164636366-006104     164636006003000616930DRESS UP FACE PAINT    0000001000+00001753+00000+0001T   00001753+0000001124          1400 FT6131               2AZ
164637000164637               164637               170213A3     1400+00000+A30000005260+0000005260+000000000+000000737+0000005990+0000000007+I20000000000+0000005990+Z
164637001164637007-000205     164637006002324000432FILE BINDER 2-RING A4  0000001000+00001753+00000+0001T   00001753+0000001128          1400 FT6130               2AZ
164637002164637007-000199     164637006002324001200FILE RING-BINDER A4    0000001000+00003507+00000+0001T   00003507+0000001128          1400 FT6130               2AZ
164638000164638               164638               170213A3     1400+00000+A30000029237+0000029237+000000000+000004127+0000033360+0000000004+I20000000000+0000033360+Z
164638001164638301-085008     164638006003000673933ORN OCC.LOVE TINSEL HRT0000002000+00003069+00000+0001T   00003069+0000001138          1400 FT6505               2AZ
164638002164638301-085000     164638006003000674299 ORN OCC. LOVE HEARTS  0000001000+00002192+00000+0001T   00002192+0000001138          1400 FT6505               2AZ
164638003164638563-000317-B   164638006001023776174SERVIETTES PLN WHT PK400000001000+00001314+00000+0001T   00001314+0000001138          1400 FT6214               2AZ
164638004164638563-000318-L   164638006003000407088SERVIETTES 33cm RED    0000003000+00002192+00000+0001T   00002192+0000001138          1400 FT6214               2AZ
164638005164638903-000183     164638006003000451043SWT LB HEART LOLLY     0000033000+00000393+00000+0001T   00000393+0000001138          1400 FT6150               2AZ
164638006164638112-116069     164638006009681820277TCS CARRIER BAG JUMBO  0000001000+00000048+00000+0001T   00000048+0000001138          1400 FT60902IC            2AZ
164639000164639               164639               170213A3     1400+00000+A30000002628+0000002628+000000000+000000369+0000002990+0000000007+I20000000000+0000002990+Z
164639001164639001-000168     164639008992787110268TUMBLER 340ml ZOMBI    0000003000+00000876+00000+0001T   00000876+0000001139          1400 FT6515               2AZ
164640000164640               164640               170213A3     1400+00000+A30000006137+0000006137+000000000+000000860+0000006990+0000000007+I20000000000+0000006990+Z
164640001164640369-000035     164640006001023795885EDU STACKING-SET ASSTD 0000001000+00003507+00000+0001T   00003507+0000001154          1400 FT6745               2AZ
164640002164640034-078810     164640006001023856838DIAPER DISPOSE-BAGSx1000000001000+00002630+00000+0001T   00002630+0000001154          1400 FT6215               2AZ
164641000164641               164641               170213A3     1400+00000+A30000000876+0000000876+000000000+000000123+0000000990+0000000009+I20000000000+0000000990+Z
164641001164641077-000011-D   164641006001023808554TISSUE-WRAP WHITE 10PCE0000001000+00000876+00000+0001T   00000876+0000001155          1400 FT6112               2AZ
164642000164642               164642               170213A3     1400+00000+A30000002192+0000002192+000000000+000000307+0000002499+0000000000+I40000002499+0000000000+Z
164642001164642051-002400     164642006001023616180TRIGGER-SPRAYER 900ml  0000001000+00002192+00000+0001T   00002192+0000001159          1400 FT6820               2AZ
164643000164643               164643               170213A3     1400+00000+A30000009682+0000009682+000000000+000001356+0000011038+0000000000+I40000011038+0000000000+Z
164643001164643036-000518     164643006003000419326HOOK HANGER CHROME     0000001000+00005262+00000+0001T   00005262+0000001200          1400 FT6212               2AZ
164643002164643036-000501     164643006003000417407HOOK HANGER CHROME     0000001000+00004385+00000+0001T   00004385+0000001200          1400 FT6212               2AZ
164643003164643112-116038     164643006009681820246TCS CARRIER BAG MIDI   0000001000+00000035+00000+0001T   00000035+0000001200          1400 FT6090               2AZ
164644000164644               164644               170213A3     1400+00000+A30000006139+0000006139+000000000+000000860+0000006990+0000000009+I20000000000+0000006990+Z
164644001164644039-000798     164644006001023617774CANDLES TEALITE BOX-50 0000001000+00006139+00000+0001T   00006139+0000001303          1400 FT6510               2AZ
164645000164645               164645               170213A3     1400+00000+A30000001182+0000001182+000000000+000000166+0000001340+0000000008+I20000000000+0000001340+Z
164645001164645077-000302     164645008010410010195GIFT-BAG 18X23CM E/D   0000001000+00000876+00000+0001T   00000876+0000001304          1400 FT6112               2AZ
164645002164645079-009700-D   164645006003000545711PAPER SIRIO A4 RED COL.0000001000+00000306+00000+0001T   00000306+0000001304          1400 FT6130               2AZ
164646000164646               164646               170213A3     1400+00000+A30000030296+0000030296+000000000+000004242+0000034530+0000000008+I20000000000+0000034530+Z
164646001164646200-000091     164646006003000499762PICNIC PLATES PL 12PCE 0000008000+00003507+00000+0001T   00003507+0000001307          1400 FT6214               2AZ
164646002164646200-000067     164646006003000330683STRAWS DRINKING 100PC  0000001000+00002192+00000+0001T   00002192+0000001307          1400 FT6214               2AZ
164646003164646112-116069     164646006009681820277TCS CARRIER BAG JUMBO  0000001000+00000048+00000+0001T   00000048+0000001307          1400 FT6090               2AZ
164647000164647               164647               170213A3     1400+00000+A30000005609+0000005609+000000000+000000786+0000006395+0000000000+I40000006395+0000000000+Z
164647001164647903-000200     164647006009826020234SWT CHOC RP CHOCO 23G  0000001000+00000788+00000+0001T   00000788+0000001309          1400 FT6150               2AZ
164647002164647018-000130     164647006001023867537MUG OCC LOVE MINI+HEART0000001000+00003507+00000+0001T   00003507+0000001309          1400 FT6515               2AZ
164647003164647903-004950     164647006002580020304SWT APRICOT SURPRISE   0000001000+00001314+00000+0001T   00001314+0000001309          1400 FT6150               2AZ
164648000164648               164648               170213A3     1400+00000+A30000003507+0000003507+000000000+000000491+0000003990+0000000008+I20000000000+0000003990+Z
164648001164648018-005009     164648006001023725608MUG W/PLUSH-BEAR LOVE  0000001000+00003507+00000+0001T   00003507+0000001310          1400 FT6515               2AZ
164649000164649               164649               170213A3     1400+00000+A30000021088+0000021088+000000000+000002957+0000024045+0000000000+I40000024045+0000000000+Z
164649001164649560-000102     164649006001023746979ANIMALS FARM IN-TUBE   0000001000+00003507+00000+0001T   00003507+0000001319          1400 FT6745               2AZ
164649002164649079-000012     164649006001023655332P/CRAYONS 12-COL LONG  0000001000+00001753+00000+0001T   00001753+0000001319          1400 FT6130               2AZ
164649003164649562-000010     164649006001023762528KID'S PLAY DOUGH       0000001000+00002630+00000+0001T   00002630+0000001319          1400 FT6755               2AZ
164649004164649263-000506     164649006001023790231CAR SET 3PK CONSTRUCT  0000001000+00003507+00000+0001T   00003507+0000001319          1400 FT6710               2AZ
164649005164649369-000200     164649006001023856982BABY EDU CUP STACKING  0000001000+00002630+00000+0001T   00002630+0000001319          1400 FT6745               2AZ
164649006164649361-003009     164649006003000210442DOLL BABY BENDABLE 3PCE0000001000+00002630+00000+0001T   00002630+0000001319          1400 FT6725               2AZ
164649007164649562-000010     164649006001023762528KID'S PLAY DOUGH       0000001000+00002630+00000+0001T   00002630+0000001319          1400 FT6755               2AZ
164649008164649466-064838     164649006001023835031BALLS MASSAGE 8cm SET-30000001000+00001753+00000+0001T   00001753+0000001319          1400 FT6785               2AZ
164649009164649112-116069     164649006009681820277TCS CARRIER BAG JUMBO  0000001000+00000048+00000+0001T   00000048+0000001319          1400 FT6090               2AZ
164650000164650               164650               170213A3     1400+00000+A30000011620+0000011620+000000000+000001628+0000013248+0000000000+I40000013248+0000000000+Z
164650001164650018-005009     164650006001023725608MUG W/PLUSH-BEAR LOVE  0000001000+00003507+00000+0001T   00003507+0000001328          1400 FT6515               2AZ
164650002164650018-000130     164650006001023867537MUG OCC LOVE MINI+HEART0000001000+00003507+00000+0001T   00003507+0000001328          1400 FT6515               2AZ
164650003164650031-000868-A   164650006001023798534P/FRAME PL BLCK 10X15CM0000001000+00002192+00000+0001T   00002192+0000001328          1400 FT6510               2AZ
164650004164650304-001011     164650006001023806727FLWR ROSE RED W/BEAR   0000001000+00000613+00000+0001T   00000788+0006471328          1400 FT6510               2AZ
164650005164650077-000324     164650006001023677594GIFT-BAG 33X45CM E/D FL0000001000+00001753+00000+0001T   00001753+0000001328          1400 FT6112               2AZ
164650006164650112-116069     164650006009681820277TCS CARRIER BAG JUMBO  0000001000+00000048+00000+0001T   00000048+0000001328          1400 FT6090               2AZ
164651000164651               164651               170213A3     1400+00000+A30000001578+0000001578+000000000+000000221+0000001790+0000000009+I20000000000+0000001790+Z
164651001164651016-006515-A   164651006003000461707S/JAR GLS W/HANDLE 500 0000001000+00001578+00000+0001T   00001753+0008191332          1400 FT6300               2AZ
164652000164652               164652               170213A3     1400+00000+A30000005910+0000005910+000000000+000000828+0000006730+0000000008+I20000000000+0000006730+Z
164652001164652079-000512     164652006001023635853CRAYONS WAX 12-COLOUR  0000001000+00001490+00000+0001T   00001490+0000001336          1400 FT6130               2AZ
164652002164652024-000003     164652006001023462206S/BURNER COVERS ASSTD  0000001000+00004385+00000+0001T   00004385+0000001336          1400 FT6300               2AZ
164652003164652112-116038     164652006009681820246TCS CARRIER BAG MIDI   0000001000+00000035+00000+0001T   00000035+0000001336          1400 FT6090               2AZ
164653000164653               164653               170213A3     1400+00000+A30000001753+0000001753+000000000+000000246+0000001999+0000000000+I40000001999+0000000000+Z
164653001164653200-003024     164653006001023657299REFUSE BAGS 20PCE BLACK0000001000+00001753+00000+0001T   00001753+0000001337          1400 FT6214               2AZ
164654000164654               164654               170213A3     1400+00000+A30000005130+0000005130+000000000+000000721+0000005851+0000000000+I40000005851+0000000000+Z
164654001164654903-000200     164654006009826020234SWT CHOC RP CHOCO 23G  0000002000+00000788+00000+0001T   00000788+0000001340          1400 FT6150               2AZ
164654002164654077-000471     164654006003000330096G-BAG DESGN MED 18X23CM0000001000+00001753+00000+0001T   00001753+0000001340          1400 FT6112               2AZ
164654003164654077-000378     164654006003000507955G/BAG LRG 25x32cm MOM  0000001000+00001753+00000+0001T   00001753+0000001340          1400 FT6112               2AZ
164654004164654112-116069     164654006009681820277TCS CARRIER BAG JUMBO  0000001000+00000048+00000+0001T   00000048+0000001340          1400 FT6090               2AZ
164655000164655               164655               170213A3     1400+00000+A30000004381+0000004381+000000000+000000615+0000004996+0000000000+I40000004996+0000000000+Z
164655001164655162-093279     164655006001492932798#TAG 2PK DROP SET      0000001000+00003507+00000+0001T   00003507+0000001342          1400 FT6160               2AZ
164655002164655080-000133-A   164655006003000647019MINI VALENTINES CARD   0000002000+00000437+00000+0001T   00000437+0000001342          1400 FT6112               2AZ
164656000164656               164656               170213A3     1400+00000+A30000006173+0000006173+000000000+000000865+0000007030+0000000008+I20000000000+0000007030+Z
164656001164656007-000653     164656006001023784469NOTE-BOOK SET+PEN+BAG  0000001000+00004385+00000+0001T   00004385+0000001346          1400 FT6130               2AZ
164656002164656162-084902     164656006001492849027SS 3PK PEARL STUD      0000001000+00001753+00000+0001T   00001753+0000001346          1400 FT6160               2AZ
164656003164656112-116038     164656006009681820246TCS CARRIER BAG MIDI   0000001000+00000035+00000+0001T   00000035+0000001346          1400 FT6090               2AZ
164657000164657               164657               170213A3     1400+00000+A30000002630+0000002630+000000000+000000369+0000002990+0000000009+I20000000000+0000002990+Z
164657001164657077-000005-B   164657006003000326617PAPER TISSUE PATTERN   0000001000+00002630+00000+0001T   00002630+0000001348          1400 FT6112               2AZ
164658000164658               164658               170213A3     1400+00000+A30000000878-0000000878-000000000+000000123-0000001010-0000000009+I20000000000+0000001010-Z
164658001164658077-000005-B   164658006003000326617PAPER TISSUE PATTERN   0000001000-00002630+00000+0001T   00002630+0000001353          1400 FT61122IC            2 Z
164658002164658077-000011-D   164658006001023808554TISSUE-WRAP WHITE 10PCE0000001000+00000876+00000+0001T   00000876+0000001353          1400 FT6112               2 Z
164658003164658077-000011-C   164658006001023808523TISSUE 10xSHTS RED     0000001000+00000876+00000+0001T   00000876+0000001353          1400 FT6112               2 Z
164659000164659               164659               170213A3     1400+00000+A30000003504+0000003504+000000000+000000491+0000003995+0000000000+I40000003995+0000000000+Z
164659001164659366-007601     164659006003000655472DRESS UP MASK THEATRICA0000001000+00000876+00000+0001T   00000876+0000001357          1400 FT6131               2AZ
164659002164659903-000194     164659006009826020616SWT CHOC RP LOLLY 25G  0000002000+00001314+00000+0001T   00001314+0000001357          1400 FT6150               2AZ
164660000164660               164660               170213A3     1400+00000+A30000004868+0000004868+000000000+000000682+0000005550+0000000000+I20000000000+0000005550+Z
164660001164660304-001011     164660006001023806727FLWR ROSE RED W/BEAR   0000001000+00000613+00000+0001T   00000788+0006471358          1400 FT6510               2AZ
164660002164660018-000177     164660006001023797513MUG MINI LOVE ASSTD    0000001000+00000700+00000+0001T   00000700+0000001358          1400 FT6515               2AZ
164660003164660018-005009     164660006001023725608MUG W/PLUSH-BEAR LOVE  0000001000+00003507+00000+0001T   00003507+0000001358          1400 FT6515               2AZ
164660004164660112-116069     164660006009681820277TCS CARRIER BAG JUMBO  0000001000+00000048+00000+0001T   00000048+0000001358          1400 FT6090               2AZ
164661000164661               164661               170213A3     1400+00000+A30000006399+0000006399+000000000+000000897+0000007296+0000000000+I40000007296+0000000000+Z
164661001164661046-000012-A   164661006003000208296BATTERIES H/POWER SZ:AA0000001000+00002192+00000+0001T   00002192+0000001403          1400 FT6312               2AZ
164661002164661089-000030     164661006003000575671K/CHAIN LOVE MTL ASSTD 0000001000+00001753+00000+0001T   00001753+0000001403          1400 FT6205               2AZ
164661003164661903-000220     164661006001704007368SWT JELLY BEANS 60G    0000001000+00000876+00000+0001T   00000876+0000001403          1400 FT6150               2AZ
164661004164661083-000054     164661006001023729071LIGHTER REFILLABLE LED 0000001000+00001578+00000+0001T   00001578+0000001403          1400 FT6315               2AZ
164662000164662               164662               170213A3     1400+00000+A30000004419+0000004419+000000000+000000619+0000005030+0000000008+I20000000000+0000005030+Z
164662001164662563-000318-L   164662006003000407088SERVIETTES 33cm RED    0000002000+00002192+00000+0001T   00002192+0000001407          1400 FT6214               2AZ
164662002164662112-116038     164662006009681820246TCS CARRIER BAG MIDI   0000001000+00000035+00000+0001T   00000035+0000001407          1400 FT6090               2AZ
164663000164663               164663               170213A3     1400+00000+A30000005261+0000005261+000000000+000000737+0000005998+0000000000+I40000005998+0000000000+Z
164663001164663071-005213     164663006001023690371CELLOTAPE 12mmx33m     0000001000+00000876+00000+0001T   00000876+0000001412          1400 FT6130               2AZ
164663002164663368-000049     164663006003000536955PLUSH BEAR 15cm LOVE   0000001000+00004385+00000+0001T   00004385+0000001412          1400 FT6745               2AZ
164664000164664               164664               170213A3     1400+00000+A30000001578+0000001578+000000000+000000221+0000001799+0000000000+I40000001799+0000000000+Z
164664001164664266-010101     164664006001023331885MARBLES 16mm 90 PC     0000001000+00001578+00000+0001T   00001578+0000001414          1400 FT6710               2AZ
164665000164665               164665               170213A3     1400+00000+A30000008771+0000008771+000000000+000001228+0000009999+0000000000+I40000009999+0000000000+Z
164665001164665027-000230     164665006001023606198MOP COMPLETE WONDERMOP 0000001000+00008771+00000+0001T   00008771+0000001418          1400 FT6212               2AZ
164666000164666               164666               170213A3     1400+00000+A30000009063+0000009063+000000000+000001271+0000010334+0000000000+I40000010334+0000000000+Z
164666001164666065-006041     164666006001023712974TAMBOURINE 15cm P/BAND 0000001000+00001753+00000+0001T   00001753+0000001436          1400 FT6745               2AZ
164666002164666065-006042     164666006001023712998MARACAS 2PCE CHA-CHA   0000001000+00001753+00000+0001T   00001753+0000001436          1400 FT6745               2AZ
164666003164666565-000041     164666006008766115642NOVELTY BALL ICON 5.5cm0000001000+00002630+00000+0001T   00002630+0000001436          1400 FT6745               2AZ
164666004164666565-000015     164666006003000672035NOVELTY SLIME ANIMAL   0000001000+00002192+00000+0001T   00002192+0000001436          1400 FT6745               2AZ
164666005164666112-116038     164666006009681820246TCS CARRIER BAG MIDI   0000001000+00000035+00000+0001T   00000035+0000001436          1400 FT6090               2AZ
164666006164666903-000120     164666006002099001665SWEET GS ZILLIONS 50g  0000001000+00000700+00000+0001T   00000700+0000001436          1400 FT6150               2AZ
164667000164667               164667               170213A3     1400+00000+A30000008769+0000008769+000000000+000001229+0000009990+0000000008+I20000000000+0000009990+Z
164667001164667039-000100     16466700600300060614625CM WHITE CANDLE 6PC  0000001000+00002630+00000+0001T   00002630+0000001438          1400 FT6510               2AZ
164667002164667039-080945     164667006001023772053C/PILLAR ROUND WHITE   0000001000+00006139+00000+0001T   00006139+0000001438          1400 FT6510               2AZ
164668000164668               164668               170213A3     1400+00000+A30000005822+0000005822+000000000+000000816+0000006630+0000000008+I20000000000+0000006630+Z
164668001164668304-001204     164668006001023737984FLOWER OCC. TEDDY/ROSES0000001000+00001402+00000+0001T   00001490+0006471445          1400 FT6510               2AZ
164668002164668368-000049     164668006003000536955PLUSH BEAR 15cm LOVE   0000001000+00004385+00000+0001T   00004385+0000001445          1400 FT6745               2AZ
164668003164668112-116038     164668006009681820246TCS CARRIER BAG MIDI   0000001000+00000035+00000+0001T   00000035+0000001445          1400 FT6090               2AZ
164669000164669               164669               170213A3     1400+00000+A30000002192+0000002192+000000000+000000307+0000002499+0000000000+I40000002499+0000000000+Z
164669001164669016-006517     164669006003000351626S/JAR GLS CHECK 650ML  0000001000+00002192+00000+0001T   00002192+0000001447          1400 FT6300               2AZ
164670000164670               164670               170213A3     1400+00000+A30000001490+0000001490+000000000+000000209+0000001690+0000000009+I20000000000+0000001690+Z
164670001164670079-000512     164670006001023635853CRAYONS WAX 12-COLOUR  0000001000+00001490+00000+0001T   00001490+0000001449          1400 FT6130               2AZ
164671000164671               164671               170213A3     1400+00000+A30000007716+0000007716+000000000+000001081+0000008790+0000000007+I20000000000+0000008790+Z
164671001164671077-000381     164671006003000247707GIFT-BAG 25X32CM S/COL 0000001000+00001753+00000+0001T   00001753+0000001451          1400 FT6112               2AZ
164671002164671018-000127     164671006001023380289MUG OCC STRAIGHT LOVE  0000001000+00001578+00000+0001T   00001753+0006471451          1400 FT6515               2AZ
164671003164671368-000049     164671006003000536955PLUSH BEAR 15cm LOVE   0000001000+00004385+00000+0001T   00004385+0000001451          1400 FT6745               2AZ
164672000164672               164672               170213A3     1400+00000+A30000006486+0000006486+000000000+000000910+0000007396+0000000000+I40000007396+0000000000+Z
164672001164672031-000878-B   164672006001023799012P/FRAME 13x18cm PL-SLID0000002000+00001490+00000+0001T   00001490+0000001458          1400 FT6510               2AZ
164672002164672016-006515     164672006003000295555S/JAR GLS EMBOSS. 250ML0000001000+00001753+00000+0001T   00001753+0000001458          1400 FT6300               2AZ
164672003164672566-001501     164672006003000658398STICKER PAPER EMOTION  0000001000+00001753+00000+0001T   00001753+0000001458          1400 FT6130               2AZ
164673000164673               164673               170213A3     1400+00000+A30000003507+0000003507+000000000+000000491+0000003990+0000000008+I20000000000+0000003990+Z
164673001164673004-078990     164673006001023994431EARPHONES MINI 1.2m    0000001000+00003507+00000+0001T   00003507+0000001504          1400 FT6310               2AZ
164674000164674               164674               170213A3     1400+00000+A30000003069+0000003069+000000000+000000430+0000003490+0000000009+I20000000000+0000003490+Z
164674001164674031-000864-A   164674006001023798350P/FRAME MAHOGANY 10X15 0000001000+00003069+00000+0001T   00003069+0000001506          1400 FT6510               2AZ
164675000164675               164675               170213A3     1400+00000+A30000001227+0000001227+000000000+000000172+0000001390+0000000009+I20000000000+0000001390+Z
164675001164675077-000245     164675006001023759214GIFT-RIBBON METALLICx2 0000001000+00001227+00000+0001T   00001227+0000001511          1400 FT6112               2AZ
164676000164676               164676               170213A3     1400+00000+A30000002630+0000002630+000000000+000000369+0000002990+0000000009+I20000000000+0000002990+Z
164676001164676006-006018     164676006001023735256PARTY-SPRAY HAIR ASSORT0000001000+00002630+00000+0001T   00002630+0000001524          1400 FT6131               2AZ
164677000164677               164677               170213A3     1400+00000+A30000003453+0000003453+000000000+000000485+0000003938+0000000000+I40000003938+0000000000+Z
164677001164677903-000200     164677006009826020234SWT CHOC RP CHOCO 23G  0000001000+00000788+00000+0001T   00000788+0000001531          1400 FT6150               2AZ
164677002164677200-000208     164677006003000293728BAKING ALUM FOIL 5PCE  0000001000+00002630+00000+0001T   00002630+0000001531          1400 FT6214               2AZ
164677003164677112-116038     164677006009681820246TCS CARRIER BAG MIDI   0000001000+00000035+00000+0001T   00000035+0000001531          1400 FT6090               2AZ
164678000164678               164678               170213A3     1400+00000+A30000001753+0000001753+000000000+000000246+0000001990+0000000009+I20000000000+0000001990+Z
164678001164678051-002402     164678006001023518347TRIGGER-SPRAYER  500ml 0000001000+00001753+00000+0001T   00001753+0000001531          1400 FT6820               2AZ
164679000164679               164679               170213A3     1400+00000+A30000002630+0000002630+000000000+000000369+0000002999+0000000000+I40000002999+0000000000+Z
164679001164679077-000115-B   164679006003000181025GIFT-WRAP PPR 700MMX2M 0000001000+00002630+00000+0001T   00002630+0000001537          1400 FT6112               2AZ
164680000164680               164680               170213A3     1400+00000+A30000007049+0000007049+000000000+000000987+0000008030+0000000006+I20000000000+0000008030+Z
164680001164680018-005009     164680006001023725608MUG W/PLUSH-BEAR LOVE  0000002000+00003507+00000+0001T   00003507+0000001541          1400 FT6515               2AZ
164680002164680112-116038     164680006009681820246TCS CARRIER BAG MIDI   0000001000+00000035+00000+0001T   00000035+0000001541          1400 FT6090               2AZ
164681000164681               164681               170213A3     1400+00000+A30000012892+0000012892+000000000+000001806+0000014698+0000000000+I40000014698+0000000000+Z
164681001164681368-000113     164681006001023780874PLUSH BLINGED LOVE 30cm0000001000+00012279+00000+0001T   00012279+0000001543          1400 FT6745               2AZ
164681002164681304-001011     164681006001023806727FLWR ROSE RED W/BEAR   0000001000+00000613+00000+0001T   00000788+0006471543          1400 FT6510               2AZ
164682000164682               164682               170213A3     1400+00000+A30000002192+0000002192+000000000+000000307+0000002490+0000000009+I20000000000+0000002490+Z
164682001164682200-000002     164682006925406821049BAG FLIP TOP 80PCE     0000001000+00002192+00000+0001T   00002192+0000001543          1400 FT6214               2AZ
164683000164683               164683               170213A3     1400+00000+A30000008331+0000008331+000000000+000001167+0000009498+0000000000+I40000009498+0000000000+Z
164683001164683078-000030     164683006003000151141YAMAYO SUPERGLUE 8g    0000001000+00001753+00000+0001T   00001753+0000001551          1400 FT6810               2AZ
164683002164683047-000512-H   164683006001023657473EXT-CORD 3m DBL-J   H&H0000001000+00006578+00000+0001T   00006578+0000001551          1400 FT6880               2AZ
164684000164684               164684               170213A3     1400+00000+A30000002629+0000002629+000000000+000000369+0000002990+0000000008+I20000000000+0000002990+Z
164684001164684903-000619     164684006003000672455SWT LOLLY STR/BRRY 140G0000001000+00001753+00000+0001T   00001753+0000001553          1400 FT6150               2AZ
164684002164684366-007601     164684006003000655472DRESS UP MASK THEATRICA0000001000+00000876+00000+0001T   00000876+0000001553          1400 FT6131               2AZ
164685000164685               164685               170213A3     1400+00000+A30000004821+0000004821+000000000+000000675+0000005496+0000000000+I40000005496+0000000000+Z
164685001164685301-085004     164685006003000420469ORN LOVE PLAQUE 21X10CM0000001000+00003507+00000+0001T   00003946+0006471554          1400 FT6505               2AZ
164685002164685903-000194     164685006009826020616SWT CHOC RP LOLLY 25G  0000001000+00001314+00000+0001T   00001314+0000001554          1400 FT6150               2AZ
164686000164686               164686               170213A3     1400+00000+A30000001837+0000001837+000000000+000000259+0000002090+0000000006+I20000000000+0000002090+Z
164686001164686903-000481     164686006001704007481SWT MOO MILK-SHAKES 60G0000001000+00000876+00000+0001T   00000876+0000001555          1400 FT6150               2AZ
164686002164686903-000077     164686006939873501687SWT GS MAGIC ROCK FRUIT0000001000+00000525+00000+0001T   00000525+0000001555          1400 FT6150               2AZ
164686003164686903-000670     164686006009803358008SWT SHERBET RED LIPS   0000001000+00000218+00000+0001T   00000218+0000001555          1400 FT6150               2AZ
164686004164686903-000671     164686006009803358015SWT SHERBET BLUE LIPS  0000001000+00000218+00000+0001T   00000218+0000001555          1400 FT6150               2AZ
164687000164687               164687               170213A3     1400+00000+A30000010169+0000010169+000000000+000001426+0000011595+0000000000+I40000011595+0000000000+Z
164687001164687903-000211     164687006002099001238SWT GS MALLOW ICE CREAM0000001000+00001753+00000+0001T   00001753+0000001559          1400 FT6150               2AZ
164687002164687366-000125     164687006003000006786DRESSUP WINGS/WAND/BAND0000001000+00005262+00000+0001T   00005262+0000001559          1400 FT6131               2AZ
164687003164687560-000700     164687006001023865830GROWING ANIMALS ASSTD  0000001000+00001578+00000+0001T   00001578+0000001559          1400 FT6745               2AZ
164687004164687903-000200     164687006009826020234SWT CHOC RP CHOCO 23G  0000002000+00000788+00000+0001T   00000788+0000001559          1400 FT6150               2AZ
164688000164688               164688               170213A3     1400+00000+A30000003507+0000003507+000000000+000000491+0000003990+0000000008+I20000000000+0000003990+Z
164688001164688018-000136     164688006001023659026MUG OCC LOVE W/PLUSH   0000001000+00003507+00000+0001T   00003507+0000001559          1400 FT6515               2AZ
164689000164689               164689               170213A3     1400+00000+A30000000876+0000000876+000000000+000000123+0000000990+0000000009+I20000000000+0000000990+Z
164689001164689078-000025     164689008887013700064SUPERGLUE 3g 1PCE CARD 0000001000+00000876+00000+0001T   00000876+0000001600          1400 FT6810               2AZ
164690000164690               164690               170213A3     1400+00000+A30000004646+0000004646+000000000+000000651+0000005290+0000000007+I20000000000+0000005290+Z
164690001164690027-078343     164690006008766078343SCRUB-BRUSH IRON-SHAPE 0000001000+00001139+00000+0001T   00001578+0008191604          1400 FT6212               2AZ
164690002164690028-002101     164690006002580009507CHAIR JUNIOR    ASSTD  0000001000+00003507+00000+0001T   00003507+0000001604          1400 FT6305               2AZ
164691000164691               164691               170213A3     1400+00000+A30000022230+0000022230+000000000+000003117+0000025347+0000000000+I40000025347+0000000000+Z
164691001164691366-002101     164691006003000617715DRESS UP MASK LIGHT UP 0000001000+00002630+00000+0001T   00002630+0000001612          1400 FT6131               2AZ
164691002164691079-014152     164691006003000253074ART+CRAFT PK50 ASSTD   0000001000+00003069+00000+0001T   00003069+0000001612          1400 FT6130               2AZ
164691003164691079-000590     164691006003000543236SKETCH PAD & PAINT SET 0000001000+00007016+00000+0001T   00007016+0000001612          1400 FT6130               2AZ
164691004164691206-000630     164691006003000631919SPECTACLE CLEANING BRUS0000001000+00001227+00000+0001T   00001227+0000001612          1400 FT6321               2AZ
164691005164691108-003021     164691006003000343911MUG SUPER SIPPER 450ml 0000001000+00002630+00000+0001T   00002630+0000001612          1400 FT6210               2AZ
164691006164691007-000566     164691006003000640898NOVELTY PHONE NOTE-PAD 0000002000+00001490+00000+0001T   00001490+0000001612          1400 FT6130               2AZ
164691007164691079-000254     164691006002923016407ART APRON ASSTD        0000001000+00002630+00000+0001T   00002630+0000001612          1400 FT6130               2AZ
164691008164691112-116069     164691006009681820277TCS CARRIER BAG JUMBO  0000001000+00000048+00000+0001T   00000048+0000001612          1400 FT6090               2AZ
164692000164692               164692               170213A3     1400+00000+A30000020960+0000020960+000000000+000002936+0000023896+0000000000+I40000023896+0000000000+Z
164692001164692007-000602     164692006003000541270BOOK COVER 2M SOLID COL0000001000+00002630+00000+0001T   00002630+0000001616          1400 FT6130               2AZ
164692002164692031-001005     164692006003000334520P/FRAME COLL WDN 35X35C0000001000+00017542+00000+0001T   00017542+0000001616          1400 FT6510               2AZ
164692003164692903-000200     164692006009826020234SWT CHOC RP CHOCO 23G  0000001000+00000788+00000+0001T   00000788+0000001616          1400 FT6150               2AZ
164693000164693               164693               170213A3     1400+00000+A30000014597+0000014597+000000000+000002046+0000016643+0000000000+I40000016643+0000000000+Z
164693001164693301-085000     164693006003000674299 ORN OCC. LOVE HEARTS  0000001000+00002192+00000+0001T   00002192+0000001622          1400 FT6505               2AZ
164693002164693077-000150-D   164693006003000054343GIFT-WRAP CELLPHANE CLR0000004000+00000876+00000+0001T   00000876+0000001622          1400 FT6112               2AZ
164693003164693077-000245     164693006001023759214GIFT-RIBBON METALLICx2 0000001000+00001227+00000+0001T   00001227+0000001622          1400 FT6112               2AZ
164693004164693018-000127     164693006001023380289MUG OCC STRAIGHT LOVE  0000004000+00001578+00000+0001T   00001753+0006471622          1400 FT6515               2AZ
164693005164693112-116069     164693006009681820277TCS CARRIER BAG JUMBO  0000001000+00000048+00000+0001T   00000048+0000001622          1400 FT6090               2AZ
164693006164693903-000194     164693006009826020616SWT CHOC RP LOLLY 25G  0000001000+00001314+00000+0001T   00001314+0000001622          1400 FT6150               2AZ
164694000164694               164694               170213A3     1400+00000+A30000006139+0000006139+000000000+000000860+0000006990+0000000009+I20000000000+0000006990+Z
164694001164694133-003245     164694006003000419074IRON BRD COVER 122x38cm0000001000+00006139+00000+0001T   00006139+0000001623          1400 FT6212               2AZ
164695000164695               164695               170213A3     1400+00000+A30000001400+0000001400+000000000+000000196+0000001590+0000000006+I20000000000+0000001590+Z
164695001164695903-000070     164695006001704001106SWT TOFFEE CREAMY 35g  0000002000+00000700+00000+0001T   00000700+0000001623          1400 FT6150               2AZ
164696000164696               164696               170213A3     1400+00000+A30000002278+0000002278+000000000+000000320+0000002590+0000000008+I20000000000+0000002590+Z
164696001164696033-005919     164696006003000154883SEWING THREAD 24cm ASST0000001000+00001490+00000+0001T   00001490+0000001628          1400 FT6200               2AZ
164696002164696033-005991     164696006001023678546NEEDLES H/HOLD-REPAIR  0000001000+00000788+00000+0001T   00000788+0000001628          1400 FT6200               2AZ
164697000164697               164697               170213A3     1400+00000+A30000002927+0000002927+000000000+000000411+0000003338+0000000000+I40000003338+0000000000+Z
164697001164697016-006515     164697006003000295555S/JAR GLS EMBOSS. 250ML0000001000+00001753+00000+0001T   00001753+0000001632          1400 FT6300               2AZ
164697002164697251-000030     164697006001023515803MASKING-TAPE 18mmx40m  0000001000+00001139+00000+0001T   00001139+0000001632          1400 FT6810               2AZ
164697003164697112-116038     164697006009681820246TCS CARRIER BAG MIDI   0000001000+00000035+00000+0001T   00000035+0000001632          1400 FT6090               2AZ
164698000164698               164698               170213A3     1400+00000+A30000001400+0000001400+000000000+000000196+0000001590+0000000006+I20000000000+0000001590+Z
164698001164698464-000121     164698006003000640492PLAYING CARDS MINI     0000002000+00000700+00000+0001T   00000700+0000001632          1400 FT6785               2AZ
164699000164699               164699               170213A3     1400+00000+A30000003507+0000003507+000000000+000000491+0000003990+0000000008+I20000000000+0000003990+Z
164699001164699019-000124     164699006003000329502PLANTER GALV ROUND SML 0000001000+00003507+00000+0001T   00004385+0008171633          1400 FT6510               2AZ
164700000164700               164700               170213A3     1400+00000+A30000000876+0000000876+000000000+000000123+0000000990+0000000009+I20000000000+0000000990+Z
164700001164700077-000302     164700008010410010195GIFT-BAG 18X23CM E/D   0000001000+00000876+00000+0001T   00000876+0000001633          1400 FT6112               2AZ
164701000164701               164701               170213A3     1400+00000+A30000005172+0000005172+000000000+000000725+0000005890+0000000007+I20000000000+0000005890+Z
164701001164701006-000090     164701006001023538505BANNER HAPPY-BIRTHDAY  0000001000+00002192+00000+0001T   00002192+0000001634          1400 FT6131               2AZ
164701002164701028-000400     164701006001023421661PLATE-HOLDERS 4PCE     0000002000+00001490+00000+0001T   00001490+0000001634          1400 FT6305               2AZ
164702000164702               164702               170213A3     1400+00000+A30000007050+0000007050+000000000+000000988+0000008038+0000000000+I40000008038+0000000000+Z
164702001164702077-000302     164702008010410010195GIFT-BAG 18X23CM E/D   0000001000+00000876+00000+0001T   00000876+0000001637          1400 FT6112               2AZ
164702002164702368-000104     164702006001023751348PLUSH BEAR RUFFLED-LOOK0000001000+00006139+00000+0001T   00006139+0000001637          1400 FT6745               2AZ
164702003164702112-116038     164702006009681820246TCS CARRIER BAG MIDI   0000001000+00000035+00000+0001T   00000035+0000001637          1400 FT6090               2AZ
164703000164703               164703               170213A3     1400+00000+A30000000613+0000000613+000000000+000000086+0000000699+0000000000+I40000000699+0000000000+Z
164703001164703304-001011     164703006001023806727FLWR ROSE RED W/BEAR   0000001000+00000613+00000+0001T   00000788+0006471638          1400 FT6510               2AZ
164704000164704               164704               170213A3     1400+00000+A30000000832+0000000832+000000000+000000117+0000000949+0000000000+I40000000949+0000000000+Z
164704001164704159-000150-B   164704006005387002009SOAP-BOX PL ASSORTED   0000001000+00000832+00000+0001T   00000832+0000001640          1400 FT6200               2AZ
164705000164705               164705               170213A3     1400+00000+A30000002630+0000002630+000000000+000000369+0000002990+0000000009+I20000000000+0000002990+Z
164705001164705077-000456     164705006003000285549G/BAG METALLIC JMB EMB 0000001000+00002630+00000+0001T   00002630+0000001641          1400 FT6112               2AZ
164706000164706               164706               170213A3     1400+00000+A30000001139+0000001139+000000000+000000160+0000001290+0000000009+I20000000000+0000001290+Z
164706001164706046-000014     164706006001023725387BATTERIES SIZE:AAA 4PCE0000001000+00001139+00000+0001T   00001139+0000001641          1400 FT6312               2AZ
164707000164707               164707               170213A3     1400+00000+A30000005609+0000005609+000000000+000000786+0000006390+0000000005+I20000000000+0000006390+Z
164707001164707018-005009     164707006001023725608MUG W/PLUSH-BEAR LOVE  0000001000+00003507+00000+0001T   00003507+0000001643          1400 FT6515               2AZ
164707003164707903-000200     164707006009826020234SWT CHOC RP CHOCO 23G  0000001000+00000788+00000+0001T   00000788+0000001643          1400 FT6150               2AZ
164707004164707077-000310     164707006001023608635GIFT-BAG 18X23CM GLOSS 0000001000+00001314+00000+0001T   00001314+0000001643          1400 FT6112               2AZ
164708000164708               164708               170213A3     1400+00000+A30000004384+0000004384+000000000+000000614+0000004990+0000000008+I20000000000+0000004990+Z
164708001164708041-007001-A   164708006003000636860H/GLOW LIQUID CHERY    0000001000+00002192+00000+0001T   00002192+0000001644          1400 FT62001IC            2AZ
164708002164708041-007001-B   164708006003000636983H/GLOW LIQUID LAVENDER 0000001000+00002192+00000+0001T   00002192+0000001644          1400 FT6200               2AZ
164709000164709               164709               170213A3     1400+00000+A30000012279+0000012279+000000000+000001720+0000013999+0000000000+I40000013999+0000000000+Z
164709001164709368-000113     164709006001023780874PLUSH BLINGED LOVE 30cm0000001000+00012279+00000+0001T   00012279+0000001646          1400 FT6745               2AZ
164710000164710               164710               170213A3     1400+00000+A30000003856+0000003856+000000000+000000541+0000004390+0000000007+I20000000000+0000004390+Z
164710001164710018-000170     164710006001023775528MUG OCC. LOVE 2PC MINI 0000001000+00002192+00000+0001T   00002192+0000001647          1400 FT6515               2AZ
164710002164710903-000200     164710006009826020234SWT CHOC RP CHOCO 23G  0000001000+00000788+00000+0001T   00000788+0000001647          1400 FT6150               2AZ
164710003164710077-000302     164710008010410010195GIFT-BAG 18X23CM E/D   0000001000+00000876+00000+0001T   00000876+0000001647          1400 FT6112               2AZ
164711000164711               164711               170213A3     1400+00000+A30000000876+0000000876+000000000+000000123+0000000990+0000000009+I20000000000+0000000990+Z
164711001164711071-001012     164711006001023474445MARKERS BLACK ROUND    0000001000+00000876+00000+0001T   00000876+0000001647          1400 FT6130               2AZ
164712000164712               164712               170213A3     1400+00000+A30000005260+0000005260+000000000+000000737+0000005990+0000000007+I20000000000+0000005990+Z
164712001164712077-000382     164712006003000247820GIFT-BAG MED 18X23CM   0000001000+00001753+00000+0001T   00001753+0000001654          1400 FT6112               2AZ
164712002164712018-005009     164712006001023725608MUG W/PLUSH-BEAR LOVE  0000001000+00003507+00000+0001T   00003507+0000001654          1400 FT6515               2AZ
164713000164713               164713               170213A3     1400+00000+A30000000613+0000000613+000000000+000000086+0000000690+0000000009+I20000000000+0000000690+Z
164713001164713077-000311     164713006001023608666GIFT-BAG 11X14CM GLOSS 0000001000+00000613+00000+0001T   00000613+0000001654          1400 FT6112               2AZ
164714000164714               164714               170213A3     1400+00000+A30000001753+0000001753+000000000+000000246+0000001990+0000000009+I20000000000+0000001990+Z
164714001164714366-006104     164714006003000616930DRESS UP FACE PAINT    0000001000+00001753+00000+0001T   00001753+0000001659          1400 FT6131               2AZ
164715000164715               164715               170213A3     1400+00000+A30000011886+0000011886+000000000+000001665+0000013550+0000000001+I20000000000+0000013550+Z
164715001164715002-000746     164715006003000463305GRATER 3-ASSTD COLOURS 0000001000+00001753+00000+0001T   00001753+0000001700          1400 FT6300               2AZ
164715002164715903-004950     164715006002580020304SWT APRICOT SURPRISE   0000001000+00001314+00000+0001T   00001314+0000001700          1400 FT6150               2AZ
164715003164715028-000027     164715006003000275816C/BAG+POCKET 27x18x23cm0000001000+00008771+00000+0001T   00008771+0000001700          1400 FT6305               2AZ
164715004164715112-116069     164715006009681820277TCS CARRIER BAG JUMBO  0000001000+00000048+00000+0001T   00000048+0000001700          1400 FT6090               2AZ
164716000164716               164716               170213A3     1400+00000+A30000009864+0000009864+000000000+000001384+0000011248+0000000000+I40000011248+0000000000+Z
164716001164716012-000001     164716006003000331048MICRO PLATE-COVER 26X6 0000001000+00001753+00000+0001T   00002192+0008191706          1400 FT6300               2AZ
164716002164716080-000109     164716006003000237203CARD&ENVLPE BDAY-BRIGHT0000001000+00001753+00000+0001T   00001753+0000001706          1400 FT6112               2AZ
164716003164716006-000789     164716006001023148612CROWN BOY              0000001000+00002192+00000+0001T   00002192+0000001706          1400 FT6131               2AZ
164716004164716077-000319     164716006001023609779GIFT-BAG 18X23CM BIRTHD0000001000+00001227+00000+0001T   00001227+0000001706          1400 FT6112               2AZ
164716005164716039-000319-2   164716006003000442508B/CANDLES LRG NUMBER-2 0000002000+00000876+00000+0001T   00000876+0000001706          1400 FT6510               2AZ
164716006164716039-000322     164716006001023524157B/CANDLES W/HOLDERS 24 0000001000+00001139+00000+0001T   00001139+0000001706          1400 FT6510               2AZ
164716007164716112-116069     164716006009681820277TCS CARRIER BAG JUMBO  0000001000+00000048+00000+0001T   00000048+0000001706          1400 FT6090               2AZ
164717000164717               164717               170213A3     1400+00000+A30000004426+0000004426+000000000+000000621+0000005047+0000000000+I40000005047+0000000000+Z
164717001164717079-013098     164717006003000197040ART+CRAFT SET DIY      0000001000+00003069+00000+0001T   00003069+0000001711          1400 FT6130               2AZ
164717002164717079-009702-G   164717008427973060787PAPER SIRIO A2 FUSHIA  0000001000+00001051+00000+0001T   00001051+0000001711          1400 FT6130               2AZ
164717003164717079-009700-E   164717006003000545797PAPER SIRIO A4 GREY    0000001000+00000306+00000+0001T   00000306+0000001711          1400 FT6130               2AZ
164718000164718               164718               170213A3     1400+00000+A30000008357+0000008357+000000000+000001175+0000009532+0000000000+I40000009532+0000000000+Z
164718001164718077-000381     164718006003000247707GIFT-BAG 25X32CM S/COL 0000001000+00001753+00000+0001T   00001753+0000001713          1400 FT6112               2AZ
164718002164718903-000200     164718006009826020234SWT CHOC RP CHOCO 23G  0000005000+00000788+00000+0001T   00000788+0000001713          1400 FT6150               2AZ
164718003164718077-000381     164718006003000247707GIFT-BAG 25X32CM S/COL 0000001000+00001753+00000+0001T   00001753+0000001713          1400 FT6112               2AZ
164718004164718077-000011-F   164718006001023808431TISSUE-WRAP BLUE/LILAC 0000001000+00000876+00000+0001T   00000876+0000001713          1400 FT6112               2AZ
164718005164718112-116038     164718006009681820246TCS CARRIER BAG MIDI   0000001000+00000035+00000+0001T   00000035+0000001713          1400 FT6090               2AZ
164719000164719               164719               170213A3     1400+00000+A30000006347+0000006347+000000000+000000889+0000007230+0000000006+I20000000000+0000007230+Z
164719001164719018-000130     164719006001023867537MUG OCC LOVE MINI+HEART0000001000+00003507+00000+0001T   00003507+0000001718          1400 FT6515               2AZ
164719002164719566-000068     164719006003000418046POP UP LOVE 2 ASSTD    0000001000+00002192+00000+0001T   00002192+0000001718          1400 FT6130               2AZ
164719003164719304-001011     164719006001023806727FLWR ROSE RED W/BEAR   0000001000+00000613+00000+0001T   00000788+0006471718          1400 FT6510               2AZ
164719004164719112-116038     164719006009681820246TCS CARRIER BAG MIDI   0000001000+00000035+00000+0001T   00000035+0000001718          1400 FT6090               2AZ
164720000164720               164720               170213A3     1400+00000+A30000007050+0000007050+000000000+000000988+0000008030+0000000008+I20000000000+0000008030+Z
164720001164720001-000175     164720006001023788108B/MUG GLS LOVE 380ML   0000001000+00004385+00000+0001T   00004385+0000001727          1400 FT6515               2AZ
164720002164720206-000290     164720006003000632541BOTTLE OPENER SILICONE 0000001000+00002630+00000+0001T   00002630+0000001727          1400 FT6321               2AZ
164720003164720112-116038     164720006009681820246TCS CARRIER BAG MIDI   0000001000+00000035+00000+0001T   00000035+0000001727          1400 FT6090               2AZ
164721000164721               164721               170213A3     1400+00000+A30000001227+0000001227+000000000+000000172+0000001390+0000000009+I20000000000+0000001390+Z
164721001164721077-000245     164721006001023759214GIFT-RIBBON METALLICx2 0000001000+00001227+00000+0001T   00001227+0000001728          1400 FT6112               2AZ
164722000164722               164722               170213A3     1400+00000+A30000003770+0000003770+000000000+000000530+0000004300+0000000000+I40000004300+0000000000+Z
164722001164722304-001204     164722006001023737984FLOWER OCC. TEDDY/ROSES0000001000+00001402+00000+0001T   00001490+0006471733          1400 FT6510               2AZ
164722002164722304-001011     164722006001023806727FLWR ROSE RED W/BEAR   0000001000+00000613+00000+0001T   00000788+0006471733          1400 FT6510               2AZ
164722003164722903-000194     164722006009826020616SWT CHOC RP LOLLY 25G  0000001000+00001314+00000+0001T   00001314+0000001733          1400 FT6150               2AZ
164722004164722903-000183     164722006003000451043SWT LB HEART LOLLY     0000001000+00000393+00000+0001T   00000393+0000001733          1400 FT6150               2AZ
164722005164722112-116069     164722006009681820277TCS CARRIER BAG JUMBO  0000001000+00000048+00000+0001T   00000048+0000001733          1400 FT6090               2AZ
164723000164723               164723               170213A3     1400+00000+A30000001753+0000001753+000000000+000000246+0000001990+0000000009+I20000000000+0000001990+Z
164723001164723104-000020     164723006916920023026BASKET 25x14x10cm      0000001000+00001753+00000+0001T   00001753+0000001734          1400 FT6210               2AZ
164724000164724               164724               170213A3     1400+00000+A30000008005+0000008005+000000000+000001126+0000009130+0000000001+I20000000000+0000009130+Z
164724001164724079-009702-B   164724008427973059491PAPER SIRIO A2 WHITE   0000001000+00001051+00000+0001T   00001051+0000001736          1400 FT6130               2AZ
164724002164724079-009702-D   164724008427973059354PAPER SIRIO A2 RED COL 0000001000+00001051+00000+0001T   00001051+0000001736          1400 FT6130               2AZ
164724003164724077-000010-C   164724006001023123879CREPE-PAPER RED        0000003000+00000788+00000+0001T   00000788+0000001736          1400 FT6112               2AZ
164724004164724077-000011-D   164724006001023808554TISSUE-WRAP WHITE 10PCE0000003000+00000876+00000+0001T   00000876+0000001736          1400 FT6112               2AZ
164724005164724028-000797     164724006001023812124SKEWERS 15cm 100PCE    0000001000+00000876+00000+0001T   00000876+0000001736          1400 FT6305               2AZ
164724006164724112-116038     164724006009681820246TCS CARRIER BAG MIDI   0000001000+00000035+00000+0001T   00000035+0000001736          1400 FT6090               2AZ
164725000164725               164725               170213A3     1400+00000+A30000003506+0000003506+000000000+000000492+0000003990+0000000008+I20000000000+0000003990+Z
164725001164725078-000480     164725006008741002332BOSTIK SHOE-REPAIR 25ml0000001000+00001753+00000+0001T   00001753+0000001741          1400 FT6810               2AZ
164725002164725089-000030     164725006003000575671K/CHAIN LOVE MTL ASSTD 0000001000+00001753+00000+0001T   00001753+0000001741          1400 FT6205               2AZ
B16463800                                          170213A3112-116069     11375157SLAVE 2     FT62IC0000033000+0000001000+0000000000000+
B16470800                                          170213A3041-007001-A   16442517SLAVE 2     FT61IC0000002000+0000001000+0000000000000+
C16470700                                          170213A3077-000314     16423733SLAVE 2     FT61IC0000000000+0000000000+0020000001000+
M17021391                              CASH        A3SLAVE 2                       Z-REPORT No.   665TOTAL (Sales - Refunds)           6424.40       CASH TO BE BANKED                 3234.70       DEBIT CARDS                          0.00       CREDIT CARDS                      3189.70       Z-READING                         6424.40       AIRTIME DEBIT CARD SALES             0.00       AIRTIME CARD SALES                   0.00       OVERS/UNDERS                         0.00       AIRTIME CASH SALES                   0.00       GIFT CARDS                           0.00       GIFT CARD CASH SALES                 0.00       T O T A L  CASH PAYOUTS              0.00                                                                                                                                                                                                                                                                                                                                                      Z
M17021392                              CASH        A3ABSENT                                                                                                                                                                                          ANNUAL LEAVE                                                                                                                                                                                    DAY OFF                                                                                                                                                                                         COMMENTS          6424.40                                                                                                                                                                                                                                                                                                                                                                      Z
Y17021300                                          A300000000566468+000099
ZA317021319173 SLAVE 2      SALES DATA                     NEXT INVOICE NO.  164726 0665
F093683496-058484         1701111412030000101ICSLAVE 2
F093827496-028142         1701111412070000021ICSLAVE 2
X A3 Slave 2 First invoice 164627 170213 Last invoice 164725 170213 Next invoice 164726 Total number of records 000000349 clbackup completed 19:17:12
