120790000120790               120790               170213A4     1400+00000+A40000001578+0000001578+000000000+000000221+0000001790+0000000009+I20000000000+0000001790+Z
120790001120790018-000127     120790006001023380289MUG OCC STRAIGHT LOVE  0000001000+00001578+00000+0001T   00001753+0006470827          1400 2IC515               2AZ
120791000120791               120791               170213A4     1400+00000+A40000003069+0000003069+000000000+000000430+0000003490+0000000009+I20000000000+0000003490+Z
120791001120791072-020352     120791006003000561667DOG/CAT BOWL PL 19cm   0000001000+00003069+00000+0001T   00003069+0000000834          1400 2IC870               2AZ
120792000120792               120792               170213A4     1400+00000+A40000002630+0000002630+000000000+000000369+0000002990+0000000009+I20000000000+0000002990+Z
120792001120792466-000515     120792006001023477408BALLS TENNIS BAG-OF-3  0000001000+00002630+00000+0001T   00002630+0000000923          1400 2IC785               2AZ
120793000120793               120793               170213A4     1400+00000+A40000003417+0000003417+000000000+000000480+0000003890+0000000007+I20000000000+0000003890+Z
120793001120793903-000087     120793006001704000161SWT SPECKLED-EGGS 50G  0000003000+00001139+00000+0001T   00001139+0000000923          1400 2IC150               2AZ
120794000120794               120794               170213A4     1400+00000+A40000018520+0000018520+000000000+000002595+0000021115+0000000000+I40000021115+0000000000+Z
120794001120794046-000015     120794006001023680839BATTERIES SIZE:D   2PCE0000003000+00002367+00000+0001T   00002367+0000000926          1400 2IC312               2AZ
120794002120794018-000170     120794006001023775528MUG OCC. LOVE 2PC MINI 0000002000+00002192+00000+0001T   00002192+0000000926          1400 2IC515               2AZ
120794003120794018-000177     120794006001023797513MUG MINI LOVE ASSTD    0000010000+00000700+00000+0001T   00000700+0000000926          1400 2IC515               2AZ
120794004120794112-116038     120794006009681820246TCS CARRIER BAG MIDI   0000001000+00000035+00000+0001T   00000035+0000000926          1400 2IC090               2AZ
120795000120795               120795               170213A4     1400+00000+A40000002015+0000002015+000000000+000000283+0000002290+0000000008+I20000000000+0000002290+Z
120795001120795200-003024     120795006001023657299REFUSE BAGS 20PCE BLACK0000001000+00001753+00000+0001T   00001753+0000000937          1400 2IC214               2AZ
120795002120795007-000405     120795006009635830369EXERCISE-BOOK A5 72PAGE0000001000+00000262+00000+0001T   00000262+0000000937          1400 2IC130               2AZ
120796000120796               120796               170213A4     1400+00000+A40000008768+0000008768+000000000+000001229+0000009990+0000000007+I20000000000+0000009990+Z
120796001120796027-009025     120796006003962000747DUSTPAN-SET PL         0000001000+00002630+00000+0001T   00002630+0000000956          1400 2IC212               2AZ
120796002120796162-092940     120796006001492929408#TAG LDS 2PK HEADBANDS 0000001000+00001753+00000+0001T   00002630+0008160956          1400 2IC160               2AZ
120796003120796133-000011     120796006001023905246CLOTH FIBRE 4-PACK BOX 0000001000+00004385+00000+0001T   00004385+0000000956          1400 2IC212               2AZ
120797000120797               120797               170213A4     1400+00000+A40000001753+0000001753+000000000+000000246+0000001990+0000000009+I20000000000+0000001990+Z
120797001120797220-009101     120797006001023706829ROSE TEASPOONS 4PCE    0000001000+00001753+00000+0001T   00001753+0000001028          1400 2IC300               2AZ
120798000120798               120798               170213A4     1400+00000+A40000003418+0000003418+000000000+000000480+0000003890+0000000008+I20000000000+0000003890+Z
120798001120798077-000010-C   120798006001023123879CREPE-PAPER RED        0000001000+00000788+00000+0001T   00000788+0000001058          1400 2IC112               2AZ
120798002120798006-000158     120798006003000653911BALLOONS 8PC HEART SHAP0000001000+00002630+00000+0001T   00002630+0000001058          1400 2IC131               2AZ
120799000120799               120799               170213A4     1400+00000+A40000015785+0000015785+000000000+000002211+0000017990+0000000006+I20000000000+0000017990+Z
120799001120799368-000265     120799006001023750914PLUSH BEAR 23CM ASSTD C0000001000+00006139+00000+0001T   00006139+0000001110          1400 2IC745               2AZ
120799002120799018-050000     120799006003000412679MUG OCC LOVE TWIN BEAR 0000001000+00006139+00000+0001T   00006139+0000001110          1400 2IC515               2AZ
120799003120799301-085004     120799006003000420469ORN LOVE PLAQUE 21X10CM0000001000+00003507+00000+0001T   00003946+0006471110          1400 2IC505               2AZ
120800000120800               120800               170213A4     1400+00000+A40000013224+0000013224+000000000+000001852+0000015070+0000000006+I20000000000+0000015070+Z
120800001120800051-600636     120800006003000400324PLANTER WALL MOUNT PL  0000003000+00004385+00000+0001T   00004385+0000001111          1400 2IC820               2AZ
120800002120800112-116053     120800006006438002399TCS CARRIER BAG 38L    0000001000+00000069+00000+0001T   00000069+0000001111          1400 2IC090               2AZ
120801000120801               120801               170213A4     1400+00000+A40000000048+0000000048+000000000+000000007+0000000050+0000000005+I20000000000+0000000050+Z
120801001120801112-116069     120801006009681820277TCS CARRIER BAG JUMBO  0000001000+00000048+00000+0001T   00000048+0000001112          1400 2IC090               2AZ
120802000120802               120802               170213A4     1400+00000+A40000008181+0000008181+000000000+000001148+0000009320+0000000009+I20000000000+0000009320+Z
120802001120802079-003002     120802006003000447886A/TUBE 75ML RED        0000001000+00001753+00000+0001T   00001753+0000001114          1400 2IC130               2AZ
120802002120802566-000068     120802006003000418046POP UP LOVE 2 ASSTD    0000001000+00002192+00000+0001T   00002192+0000001114          1400 2IC130               2AZ
120802003120802079-000275     120802006003000160488PAINT-BRUSHES 6PCE PRO 0000001000+00001753+00000+0001T   00001753+0000001114          1400 2IC130               2AZ
120802004120802112-116038     120802006009681820246TCS CARRIER BAG MIDI   0000001000+00000035+00000+0001T   00000035+0000001114          1400 2IC090               2AZ
120802005120802079-009700-D   120802006003000545711PAPER SIRIO A4 RED COL.0000008000+00000306+00000+0001T   00000306+0000001114          1400 2IC130               2AZ
120803000120803               120803               170213A4     1400+00000+A40000002628+0000002628+000000000+000000368+0000002990+0000000006+I20000000000+0000002990+Z
120803001120803046-000012     120803006904708013062BATTERIES AA  CARD-OF-40000002000+00001314+00000+0001T   00001314+0000001153          1400 2IC312               2AZ
120804000120804               120804               170213A4     1400+00000+A40000007838+0000007838+000000000+000001099+0000008930+0000000007+I20000000000+0000008930+Z
120804001120804007-000890-17  120804006003000645671CALENDAR 2017 ASSTD    0000001000+00006139+00000+0001T   00006139+0000001207          1400 2IC130               2AZ
120804002120804077-000010-C   120804006001023123879CREPE-PAPER RED        0000001000+00000788+00000+0001T   00000788+0000001207          1400 2IC112               2AZ
120804003120804077-000150-D   120804006003000054343GIFT-WRAP CELLPHANE CLR0000001000+00000876+00000+0001T   00000876+0000001207          1400 2IC112               2AZ
120804004120804112-116038     120804006009681820246TCS CARRIER BAG MIDI   0000001000+00000035+00000+0001T   00000035+0000001207          1400 2IC090               2AZ
120805000120805               120805               170213A4     1400+00000+A40000001578+0000001578+000000000+000000221+0000001790+0000000009+I20000000000+0000001790+Z
120805001120805028-000799     120805006001023812186SKEWERS BAMBOO 100PCE  0000001000+00001578+00000+0001T   00001578+0000001208          1400 2IC305               2AZ
120806000120806               120806               170213A4     1400+00000+A40000014537+0000014537+000000000+000002037+0000016570+0000000004+I20000000000+0000016570+Z
120806001120806112-116053     120806006006438002399TCS CARRIER BAG 38L    0000001000+00000069+00000+0001T   00000069+0000001210          1400 2IC090               2AZ
120806002120806033-000782     120806006001023905482COSMETIC SPONGES 12PC  0000001000+00002192+00000+0001T   00002192+0000001210          1400 2IC200               2AZ
120806003120806038-001805     120806006003000466405DOILIES PAPER 60PC 3ASS0000001000+00003069+00000+0001T   00003069+0000001210          1400 2IC300               2AZ
120806004120806024-007001     120806006002580007688CAKE/BISCUIT-SERVER    0000003000+00003069+00000+0001T   00003069+0000001210          1400 2IC300               2AZ
120807000120807               120807               170213A4     1400+00000+A40000002665+0000002665+000000000+000000374+0000003030+0000000009+I20000000000+0000003030+Z
120807001120807076-000030-H   120807006001023429544WASHING-LINE 30m    H&H0000001000+00002630+00000+0001T   00002630+0000001210          1400 2IC810               2AZ
120807002120807112-116038     120807006009681820246TCS CARRIER BAG MIDI   0000001000+00000035+00000+0001T   00000035+0000001210          1400 2IC090               2AZ
120808000120808               120808               170213A4     1400+00000+A40000004820+0000004820+000000000+000000676+0000005490+0000000006+I20000000000+0000005490+Z
120808001120808306-000021-A   120808006001023891358EARBUDS COTTON 100PCE  0000001000+00000876+00000+0001T   00000876+0000001212          1400 2IC200               2AZ
120808002120808018-000127     120808006001023380289MUG OCC STRAIGHT LOVE  0000001000+00001578+00000+0001T   00001753+0006471212          1400 2IC515               2AZ
120808003120808304-001011     120808006001023806727FLWR ROSE RED W/BEAR   0000001000+00000613+00000+0001T   00000788+0006471212          1400 2IC510               2AZ
120808004120808077-000309     120808006001023608604GIFT-BAG 25X32CM GLOSS 0000001000+00001753+00000+0001T   00001753+0000001212          1400 2IC112               2AZ
120809000120809               120809               170213A4     1400+00000+A40000019090+0000019090+000000000+000002674+0000021764+0000000000+I40000021764+0000000000+Z
120809001120809112-116053     120809006006438002399TCS CARRIER BAG 38L    0000001000+00000069+00000+0001T   00000069+0000001214          1400 2IC090               2AZ
120809002120809046-000012     120809006904708013062BATTERIES AA  CARD-OF-40000001000+00001314+00000+0001T   00001314+0000001214          1400 2IC312               2AZ
120809003120809486-000010     120809006001023544254WALL-CLOCK ROUND 25cm  0000001000+00006139+00000+0001T   00006139+0000001214          1400 2IC510               2AZ
120809004120809200-000100     120809006001023764003CUPS 25PCE DISPOSABLE  0000006000+00001928+00000+0001T   00001928+0000001214          1400 2IC214               2AZ
120810000120810               120810               170213A4     1400+00000+A40000001788+0000001788+000000000+000000251+0000002039+0000000000+I40000002039+0000000000+Z
120810001120810306-000006     120810006001023776440DENTAL FLOSS PICKS 50PC0000001000+00001753+00000+0001T   00001753+0000001216          1400 2IC200               2AZ
120810002120810112-116038     120810006009681820246TCS CARRIER BAG MIDI   0000001000+00000035+00000+0001T   00000035+0000001216          1400 2IC090               2AZ
120811000120811               120811               170213A4     1400+00000+A40000001753+0000001753+000000000+000000246+0000001990+0000000009+I20000000000+0000001990+Z
120811001120811077-000472     120811006003000330133G-BAG DESGNR LRG 25X32 0000001000+00001753+00000+0001T   00001753+0000001237          1400 2IC112               2AZ
120812000120812               120812               170213A4     1400+00000+A40000000876+0000000876+000000000+000000123+0000000990+0000000009+I20000000000+0000000990+Z
120812001120812039-000319-5   120812006003000442867B/CANDLES LRG NUMBER-5 0000001000+00000876+00000+0001T   00000876+0000001240          1400 2IC510               2AZ
120813000120813               120813               170213A4     1400+00000+A40000001314+0000001314+000000000+000000184+0000001490+0000000008+I20000000000+0000001490+Z
120813001120813107-004105     120813006009703860984BUCKET 9L OPEN         0000001000+00001314+00000+0001T   00001314+0000001256          1400 2IC210               2AZ
120814000120814               120814               170213A4     1400+00000+A40000001753+0000001753+000000000+000000246+0000001990+0000000009+I20000000000+0000001990+Z
120814001120814080-000113     120814006003000237449CARD&ENVLPE - LOVE     0000001000+00001753+00000+0001T   00001753+0000001350          1400 2IC112               2AZ
120815000120815               120815               170213A4     1400+00000+A40000002628+0000002628+000000000+000000369+0000002990+0000000007+I20000000000+0000002990+Z
120815001120815028-000797     120815006001023812124SKEWERS 15cm 100PCE    0000003000+00000876+00000+0001T   00000876+0000001445          1400 2IC305               2AZ
120816000120816               120816               170213A4     1400+00000+A40000002630+0000002630+000000000+000000369+0000002990+0000000009+I20000000000+0000002990+Z
120816001120816563-000317-C   120816006001023776204SERVIETTES 20PK  FLOWER0000001000+00002630+00000+0001T   00002630+0000001449          1400 2IC214               2AZ
120817000120817               120817               170213A4     1400+00000+A40000000035+0000000035+000000000+000000005+0000000040+0000000000+I20000000000+0000000040+Z
120817001120817112-116038     120817006009681820246TCS CARRIER BAG MIDI   0000001000+00000035+00000+0001T   00000035+0000001450          1400 2IC090               2AZ
120818000120818               120818               170213A4     1400+00000+A40000004385+0000004385+000000000+000000614+0000004999+0000000000+I40000004999+0000000000+Z
120818001120818072-020346     120818006003000453047PET DRY TOWEL M/FIBRE  0000001000+00004385+00000+0001T   00004385+0000001523          1400 2IC870               2AZ
120819000120819               120819               170213A4     1400+00000+A40000004119+0000004119+000000000+000000577+0000004690+0000000006+I20000000000+0000004690+Z
120819001120819077-000470     120819006003000330171G-BAG DESGN SML 11X14CM0000001000+00001314+00000+0001T   00001314+0000001530          1400 2IC112               2AZ
120819002120819077-000321     120819006001023677501GIFT-BAG 11X14CM E/D FL0000001000+00000613+00000+0001T   00000613+0000001530          1400 2IC112               2AZ
120819003120819077-000509     120819006003000082582GIFT-BAG SML 6PCE ORG P0000001000+00002192+00000+0001T   00002192+0000001530          1400 2IC112               2AZ
120820000120820               120820               170213A4     1400+00000+A40000000953+0000000953+000000000+000000134+0000001080+0000000007+I20000000000+0000001080+Z
120820001120820079-009700-D   120820006003000545711PAPER SIRIO A4 RED COL.0000003000+00000306+00000+0001T   00000306+0000001544          1400 2IC130               2AZ
120820002120820112-116038     120820006009681820246TCS CARRIER BAG MIDI   0000001000+00000035+00000+0001T   00000035+0000001544          1400 2IC090               2AZ
120821000120821               120821               170213A4     1400+00000+A40000001443+0000001443+000000000+000000204+0000001640+0000000007+I20000000000+0000001640+Z
120821001120821903-000155     120821006009803374435SWT LOLLY I LUV U HEART0000002000+00000525+00000+0001T   00000525+0000001545          1400 2IC150               2AZ
120821002120821903-000183     120821006003000451043SWT LB HEART LOLLY     0000001000+00000393+00000+0001T   00000393+0000001545          1400 2IC150               2AZ
120822000120822               120822               170213A4     1400+00000+A40000001836+0000001836+000000000+000000260+0000002090+0000000006+I20000000000+0000002090+Z
120822001120822903-000155     120822006009803374435SWT LOLLY I LUV U HEART0000002000+00000525+00000+0001T   00000525+0000001547          1400 2IC150               2AZ
120822002120822903-000183     120822006003000451043SWT LB HEART LOLLY     0000002000+00000393+00000+0001T   00000393+0000001547          1400 2IC150               2AZ
120823000120823               120823               170213A4     1400+00000+A40000007892+0000007892+000000000+000001106+0000008990+0000000008+I20000000000+0000008990+Z
120823001120823018-050000     120823006003000412679MUG OCC LOVE TWIN BEAR 0000001000+00006139+00000+0001T   00006139+0000001547          1400 2IC515               2AZ
120823002120823077-000309     120823006001023608604GIFT-BAG 25X32CM GLOSS 0000001000+00001753+00000+0001T   00001753+0000001547          1400 2IC112               2AZ
120824000120824               120824               170213A4     1400+00000+A40000003541+0000003541+000000000+000000497+0000004038+0000000000+I40000004038+0000000000+Z
120824001120824563-000317-J   120824006001023776419SERVIETTE 2PLY 33cm    0000001000+00001753+00000+0001T   00001753+0000001549          1400 2IC214               2AZ
120824002120824006-000093     120824006003000539932PARTY BANNER FLAGS ASST0000001000+00001753+00000+0001T   00001753+0000001549          1400 2IC131               2AZ
120824003120824112-116038     120824006009681820246TCS CARRIER BAG MIDI   0000001000+00000035+00000+0001T   00000035+0000001549          1400 2IC090               2AZ
120825000120825               120825               170213A4     1400+00000+A40000011401+0000011401+000000000+000001597+0000012998+0000000000+I40000012998+0000000000+Z
120825001120825019-000076     120825006001023757159V/GLASS 25CM C/DESIGN  0000001000+00008771+00000+0001T   00008771+0000001554          1400 2IC510               2AZ
120825002120825019-071594     120825006003000505579PEBBLES GLS 250g RED   0000001000+00002630+00000+0001T   00002630+0000001554          1400 2IC510               2AZ
120826000120826               120826               170213A4     1400+00000+A40000001753+0000001753+000000000+000000246+0000001990+0000000009+I20000000000+0000001990+Z
120826001120826080-000100     120826006003000236114CARD & ENVELOPE BDAY   0000001000+00001753+00000+0001T   00001753+0000001558          1400 2IC112               2AZ
120827000120827               120827               170213A4     1400+00000+A40000018190+0000018190+000000000+000002549+0000020730+0000000009+I20000000000+0000020730+Z
120827001120827024-000165-A   120827006003000674077N/STICK B/WARE RND PAN 0000002000+00005262+00000+0001T   00005262+0000001606          1400 2IC300               2AZ
120827002120827077-000354     120827006003000139224GIFT-BAG 25X32CM H/MADE0000001000+00001753+00000+0001T   00001753+0000001606          1400 2IC112               2AZ
120827003120827903-000481     120827006001704007481SWT MOO MILK-SHAKES 60G0000001000+00000876+00000+0001T   00000876+0000001606          1400 2IC150               2AZ
120827004120827077-000934     120827006003000409921G/WRAP 700mmx5m BIRTHDA0000001000+00003507+00000+0001T   00003507+0000001606          1400 2IC112               2AZ
120827005120827079-009700-G   120827006003000545957PAPER SIRIO A4 LIME COL0000001000+00000306+00000+0001T   00000306+0000001606          1400 2IC130               2AZ
120827006120827079-009700-L   120827006003000546350PAPER SIRIO A4 YELLOW  0000001000+00000306+00000+0001T   00000306+0000001606          1400 2IC130               2AZ
120827007120827079-009700-F   120827006003000545872PAPER SIRIO A4 TURQ COL0000001000+00000306+00000+0001T   00000306+0000001606          1400 2IC130               2AZ
120827008120827079-009700-H   120827006003000546039PAPER SIRIO A4 EARTH   0000001000+00000306+00000+0001T   00000306+0000001606          1400 2IC130               2AZ
120827009120827079-009700-J   120827006003000546190PAPER SIRIO A4 BLUE    0000001000+00000306+00000+0001T   00000306+0000001606          1400 2IC130               2AZ
120828000120828               120828               170213A4     1400+00000+A40000011690+0000011690+000000000+000001641+0000013330+0000000001+I20000000000+0000013330+Z
120828001120828018-000170     120828006001023775528MUG OCC. LOVE 2PC MINI 0000002000+00002192+00000+0001T   00002192+0000001609          1400 2IC515               2AZ
120828002120828566-000359     120828006003000582709STICKER BOOK LOVE SPARK0000001000+00002192+00000+0001T   00002192+0000001609          1400 2IC130               2AZ
120828003120828018-000136     120828006001023659026MUG OCC LOVE W/PLUSH   0000001000+00003507+00000+0001T   00003507+0000001609          1400 2IC515               2AZ
120828004120828112-116038     120828006009681820246TCS CARRIER BAG MIDI   0000001000+00000035+00000+0001T   00000035+0000001609          1400 2IC090               2AZ
120828005120828903-000183     120828006003000451043SWT LB HEART LOLLY     0000004000+00000393+00000+0001T   00000393+0000001609          1400 2IC150               2AZ
120829000120829               120829               170213A4     1400+00000+A40000001314+0000001314+000000000+000000184+0000001490+0000000008+I20000000000+0000001490+Z
120829001120829077-000310     120829006001023608635GIFT-BAG 18X23CM GLOSS 0000001000+00001314+00000+0001T   00001314+0000001610          1400 2IC112               2AZ
120830000120830               120830               170213A4     1400+00000+A40000014034+0000014034+000000000+000001965+0000015999+0000000000+I40000015999+0000000000+Z
120830001120830028-002102     120830006002580009514TABLE KIDDIES          0000001000+00014034+00000+0001T   00014034+0000001615          1400 2IC305               2AZ
120831000120831               120831               170213A4     1400+00000+A40000001050+0000001050+000000000+000000148+0000001190+0000000008+I20000000000+0000001190+Z
120831001120831903-000155     120831006009803374435SWT LOLLY I LUV U HEART0000002000+00000525+00000+0001T   00000525+0000001618          1400 2IC150               2AZ
120832000120832               120832               170213A4     1400+00000+A40000000876+0000000876+000000000+000000123+0000000990+0000000009+I20000000000+0000000990+Z
120832001120832077-000314     120832006003000181148GIFT-BAG 11X14CM MATT  0000001000+00000876+00000+0001T   00000876+0000001622          1400 2IC112               2AZ
120833000120833               120833               170213A4     1400+00000+A40000003504+0000003504+000000000+000000492+0000003990+0000000006+I20000000000+0000003990+Z
120833001120833077-000302     120833008010410010195GIFT-BAG 18X23CM E/D   0000004000+00000876+00000+0001T   00000876+0000001623          1400 2IC112               2AZ
120834000120834               120834               170213A4     1400+00000+A40000004815+0000004815+000000000+000000677+0000005490+0000000002+I20000000000+0000005490+Z
120834001120834007-000235     120834006003000134434LABELS RECTANGULAR 60pc0000001000+00000876+00000+0001T   00000876+0000001626          1400 2IC130               2AZ
120834002120834006-000120     120834006001023346889BALLOONS 10PC MIX COL  0000001000+00001753+00000+0001T   00001753+0000001626          1400 2IC131               2AZ
120834003120834903-000120     120834006002099001665SWEET GS ZILLIONS 50g  0000002000+00000700+00000+0001T   00000700+0000001626          1400 2IC150               2AZ
120834004120834903-000183     120834006003000451043SWT LB HEART LOLLY     0000002000+00000393+00000+0001T   00000393+0000001626          1400 2IC150               2AZ
120835000120835               120835               170213A4     1400+00000+A40000001753+0000001753+000000000+000000246+0000001990+0000000009+I20000000000+0000001990+Z
120835001120835080-000120     120835006003000236473CARD & ENVELOPE WEDDING0000001000+00001753+00000+0001T   00001753+0000001628          1400 2IC112               2AZ
120836000120836               120836               170213A4     1400+00000+A40000001753+0000001753+000000000+000000246+0000001990+0000000009+I20000000000+0000001990+Z
120836001120836903-000211     120836006002099001238SWT GS MALLOW ICE CREAM0000001000+00001753+00000+0001T   00001753+0000001628          1400 2IC150               2AZ
120837000120837               120837               170213A4     1400+00000+A40000003068+0000003068+000000000+000000430+0000003490+0000000008+I20000000000+0000003490+Z
120837001120837018-000170     120837006001023775528MUG OCC. LOVE 2PC MINI 0000001000+00002192+00000+0001T   00002192+0000001633          1400 2IC515               2AZ
120837002120837077-000314     120837006003000181148GIFT-BAG 11X14CM MATT  0000001000+00000876+00000+0001T   00000876+0000001633          1400 2IC112               2AZ
120838000120838               120838               170213A4     1400+00000+A40000004820+0000004820+000000000+000000675+0000005490+0000000005+I20000000000+0000005490+Z
120838001120838566-000359     120838006003000582709STICKER BOOK LOVE SPARK0000001000+00002192+00000+0001T   00002192+0000001636          1400 2IC130               2AZ
120838002120838903-000844     120838005010478432567SWT CANDY DL LUV HEARTS0000002000+00001314+00000+0001T   00001314+0000001636          1400 2IC150               2AZ
120839000120839               120839               170213A4     1400+00000+A40000013154+0000013154+000000000+000001843+0000014997+0000000000+I40000014997+0000000000+Z
120839001120839077-000309     120839006001023608604GIFT-BAG 25X32CM GLOSS 0000001000+00001753+00000+0001T   00001753+0000001638          1400 2IC112               2AZ
120839002120839368-000614     120839006001023705808PLUSH LOVE 30cm        0000001000+00008771+00000+0001T   00008771+0000001638          1400 2IC745               2AZ
120839003120839018-000129     120839006001023403353MUG OCC. LOVE V-SHAPE  0000001000+00002630+00000+0001T   00002630+0000001638          1400 2IC515               2AZ
120840000120840               120840               170213A4     1400+00000+A40000001753+0000001753+000000000+000000246+0000001990+0000000009+I20000000000+0000001990+Z
120840001120840080-000113     120840006003000237449CARD&ENVLPE - LOVE     0000001000+00001753+00000+0001T   00001753+0000001638          1400 2IC112               2AZ
120841000120841               120841               170213A4     1400+00000+A40000003767+0000003767+000000000+000000528+0000004290+0000000005+I20000000000+0000004290+Z
120841001120841903-000844     120841005010478432567SWT CANDY DL LUV HEARTS0000002000+00001314+00000+0001T   00001314+0000001638          1400 2IC150               2AZ
120841002120841565-000071     120841006003000643387NOVELTY WIND UP CHATTER0000001000+00001139+00000+0001T   00001139+0000001638          1400 2IC745               2AZ
120842000120842               120842               170213A4     1400+00000+A40000007305+0000007305+000000000+000001028+0000008330+0000000003+I20000000000+0000008330+Z
120842001120842903-000183     120842006003000451043SWT LB HEART LOLLY     0000004000+00000393+00000+0001T   00000393+0000001643          1400 2IC150               2AZ
120842002120842006-000120     120842006001023346889BALLOONS 10PC MIX COL  0000002000+00001753+00000+0001T   00001753+0000001643          1400 2IC131               2AZ
120842003120842566-000359     120842006003000582709STICKER BOOK LOVE SPARK0000001000+00002192+00000+0001T   00002192+0000001643          1400 2IC130               2AZ
120842004120842112-116038     120842006009681820246TCS CARRIER BAG MIDI   0000001000+00000035+00000+0001T   00000035+0000001643          1400 2IC090               2AZ
120843000120843               120843               170213A4     1400+00000+A40000004119+0000004119+000000000+000000577+0000004690+0000000006+I20000000000+0000004690+Z
120843001120843301-085000     120843006003000674299 ORN OCC. LOVE HEARTS  0000001000+00002192+00000+0001T   00002192+0000001644          1400 2IC505               2AZ
120843002120843903-000194     120843006009826020616SWT CHOC RP LOLLY 25G  0000001000+00001314+00000+0001T   00001314+0000001644          1400 2IC150               2AZ
120843003120843304-001011     120843006001023806727FLWR ROSE RED W/BEAR   0000001000+00000613+00000+0001T   00000788+0006471644          1400 2IC510               2AZ
120844000120844               120844               170213A4     1400+00000+A40000000035+0000000035+000000000+000000005+0000000040+0000000000+I20000000000+0000000040+Z
120844001120844112-116038     120844006009681820246TCS CARRIER BAG MIDI   0000001000+00000035+00000+0001T   00000035+0000001645          1400 2IC090               2AZ
120845000120845               120845               170213A4     1400+00000+A40000005295+0000005295+000000000+000000742+0000006030+0000000007+I20000000000+0000006030+Z
120845001120845039-001023     120845006003000466337CANDLE TEA-LITE METALIC0000001000+00001753+00000+0001T   00001753+0000001653          1400 2IC510               2AZ
120845002120845038-000215     120845006003000269143PLACE-MAT RECT 30x40cm 0000001000+00003507+00000+0001T   00003507+0000001653          1400 2IC300               2AZ
120845003120845112-116038     120845006009681820246TCS CARRIER BAG MIDI   0000001000+00000035+00000+0001T   00000035+0000001653          1400 2IC090               2AZ
120846000120846               120846               170213A4     1400+00000+A40000001753+0000001753+000000000+000000246+0000001990+0000000009+I20000000000+0000001990+Z
120846001120846077-000354     120846006003000139224GIFT-BAG 25X32CM H/MADE0000001000+00001753+00000+0001T   00001753+0000001654          1400 2IC112               2AZ
120847000120847               120847               170213A4     1400+00000+A40000001490+0000001490+000000000+000000209+0000001699+0000000000+I40000001699+0000000000+Z
120847001120847077-000305     120847006003000395422GIFT-BAG WINE 10X35CM  0000001000+00001490+00000+0001T   00001490+0000001658          1400 2IC112               2AZ
120848000120848               120848               170213A4     1400+00000+A40000005259+0000005259+000000000+000000738+0000005990+0000000007+I20000000000+0000005990+Z
120848001120848251-000012     120848006001023597915TAPE DUCT GREY 48mmx5m 0000001000+00002630+00000+0001T   00002630+0000001702          1400 2IC810               2AZ
120848002120848039-000319-8   120848006003000443222B/CANDLES LRG NUMBER-8 0000001000+00000876+00000+0001T   00000876+0000001702          1400 2IC510               2AZ
120848003120848080-000111     120848006003000252695CARD&ENVELPE - MUSICAL 0000001000+00001753+00000+0001T   00001753+0000001702          1400 2IC112               2AZ
120849000120849               120849               170213A4     1400+00000+A40000002665+0000002665+000000000+000000374+0000003030+0000000009+I20000000000+0000003030+Z
120849001120849018-000129     120849006001023403353MUG OCC. LOVE V-SHAPE  0000001000+00002630+00000+0001T   00002630+0000001704          1400 2IC515               2AZ
120849002120849112-116038     120849006009681820246TCS CARRIER BAG MIDI   0000001000+00000035+00000+0001T   00000035+0000001704          1400 2IC090               2AZ
120850000120850               120850               170213A4     1400+00000+A40000001753+0000001753+000000000+000000246+0000001990+0000000009+I20000000000+0000001990+Z
120850001120850566-000362     120850006003000583065STICKER LETTER & NUMBER0000001000+00001753+00000+0001T   00001753+0000001707          1400 2IC130               2AZ
120851000120851               120851               170213A4     1400+00000+A40000012220+0000012220+000000000+000001713+0000013933+0000000000+I40000013933+0000000000+Z
120851001120851112-116038     120851006009681820246TCS CARRIER BAG MIDI   0000001000+00000035+00000+0001T   00000035+0000001709          1400 2IC090               2AZ
120851002120851200-000032     120851006001023815521WAX-PAPER 30cmx15m-ROLL0000001000+00002630+00000+0001T   00002630+0000001709          1400 2IC214               2AZ
120851003120851024-000109     120851006001023902337MINI-CUP PAN 12CUP     0000001000+00007016+00000+0001T   00007016+0000001709          1400 2IC300               2AZ
120851004120851566-002000     120851000721129013206STICKERS CRYSTAL ASSTD 0000002000+00000700+00000+0001T   00000700+0000001709          1400 2IC130               2AZ
120851005120851903-000087     120851006001704000161SWT SPECKLED-EGGS 50G  0000001000+00001139+00000+0001T   00001139+0000001709          1400 2IC150               2AZ
120852000120852               120852               170213A4     1400+00000+A40000003069+0000003069+000000000+000000430+0000003490+0000000009+I20000000000+0000003490+Z
120852001120852084-009417     120852006001023783493SCISSORS 21+14cm 2PCE  0000001000+00003069+00000+0001T   00003069+0000001710          1400 2IC200               2AZ
120853000120853               120853               170213A4     1400+00000+A40000014321+0000014321+000000000+000002010+0000016330+0000000001+I20000000000+0000016330+Z
120853001120853040-000170     120853006001023774613C/HOLDER GLASS CUP 6CM 0000002000+00002630+00000+0001T   00002630+0000001711          1400 2IC510               2AZ
120853002120853016-006516     120853006003000351503S/JAR GLS CHECK 150ML  0000003000+00001490+00000+0001T   00001490+0000001711          1400 2IC300               2AZ
120853003120853112-116038     120853006009681820246TCS CARRIER BAG MIDI   0000001000+00000035+00000+0001T   00000035+0000001711          1400 2IC090               2AZ
120853004120853903-000709     120853006002099007070SWT QUENCHERS FRUIT    0000002000+00001139+00000+0001T   00001139+0000001711          1400 2IC150               2AZ
120853005120853903-000710     120853006002099007056SWT REFRESHERS MINT    0000002000+00001139+00000+0001T   00001139+0000001711          1400 2IC150               2AZ
120854000120854               120854               170213A4     1400+00000+A40000005260+0000005260+000000000+000000738+0000005990+0000000008+I20000000000+0000005990+Z
120854001120854031-005919     120854006003000580576P/FRAME PL PLAIN 13X18 0000002000+00002630+00000+0001T   00002630+0000001712          1400 2IC510               2AZ
120855000120855               120855               170213A4     1400+00000+A40000024597+0000024597+000000000+000003444+0000028040+0000000001+I20000000000+0000028040+Z
120855001120855031-005923     120855006003000040322P/FRAME CERT PL 21x29.70000007000+00003507+00000+0001T   00003507+0000001713          1400 2IC510               2AZ
120855002120855112-116069     120855006009681820277TCS CARRIER BAG JUMBO  0000001000+00000048+00000+0001T   00000048+0000001713          1400 2IC090               2AZ
120856000120856               120856               170213A4     1400+00000+A40000000876+0000000876+000000000+000000123+0000000990+0000000009+I20000000000+0000000990+Z
120856001120856306-000023     120856006001023606976COTTON-WOOL-BALLS 50PCE0000001000+00000876+00000+0001T   00000876+0000001724          1400 2IC200               2AZ
120857000120857               120857               170213A4     1400+00000+A40000003935+0000003935+000000000+000000552+0000004480+0000000007+I20000000000+0000004480+Z
120857001120857018-000136     120857006001023659026MUG OCC LOVE W/PLUSH   0000001000+00003507+00000+0001T   00003507+0000001725          1400 2IC515               2AZ
120857002120857903-000183     120857006003000451043SWT LB HEART LOLLY     0000001000+00000393+00000+0001T   00000393+0000001725          1400 2IC150               2AZ
120857003120857112-116038     120857006009681820246TCS CARRIER BAG MIDI   0000001000+00000035+00000+0001T   00000035+0000001725          1400 2IC090               2AZ
120858000120858               120858               170213A4     1400+00000+A40000002455+0000002455+000000000+000000344+0000002790+0000000009+I20000000000+0000002790+Z
120858001120858077-000380     120858006003000247585GIFT-BAG 33X45CM S/COL 0000001000+00002455+00000+0001T   00002455+0000001727          1400 2IC112               2AZ
120859000120859               120859               170213A4     1400+00000+A40000013155+0000013155+000000000+000001843+0000014990+0000000008+I20000000000+0000014990+Z
120859001120859368-000637     120859006001023874092PLUSH BEAR SLEEPING LOV0000001000+00011402+00000+0001T   00012279+0006471739          1400 2IC745               2AZ
120859002120859077-000457     120859006003000285662G/BAG METALLIC JMB SOL 0000001000+00001753+00000+0001T   00001753+0000001739          1400 2IC112               2AZ
120860000120860               120860               170213A4     1400+00000+A40000001400+0000001400+000000000+000000196+0000001590+0000000006+I20000000000+0000001590+Z
120860001120860018-000177     120860006001023797513MUG MINI LOVE ASSTD    0000002000+00000700+00000+0001T   00000700+0000001743          1400 2IC515               2AZ
120861000120861               120861               170213A4     1400+00000+A40000001753+0000001753+000000000+000000246+0000001990+0000000009+I20000000000+0000001990+Z
120861001120861566-000065     120861006003000217915STICKERS GLITTER ASSTD 0000001000+00001753+00000+0001T   00001753+0000001745          1400 2IC130               2AZ
M17021391                              CASH        A4SLAVE 2                       Z-REPORT No.   639TOTAL (Sales - Refunds)           4373.11       CASH TO BE BANKED                 3237.30       DEBIT CARDS                          0.00       CREDIT CARDS                      1135.81       Z-READING                         4373.11       AIRTIME DEBIT CARD SALES             0.00       AIRTIME CARD SALES                   0.00       OVERS/UNDERS                         0.00       AIRTIME CASH SALES                   0.00       GIFT CARDS                           0.00       GIFT CARD CASH SALES                 0.00       T O T A L  CASH PAYOUTS              0.00                                                                                                                                                                                                                                                                                                                                                      Z
M17021392                              CASH        A4ABSENT                                                                                                                                                                                          ANNUAL LEAVE                                                                                                                                                                                    DAY OFF                                                                                                                                                                                         COMMENTS                                                                                                                                                                                                                                                                                                                                                                                       Z
Y17021300                                          A400007200383918+000072
ZA417021321043 SLAVE 2      SALES DATA                     NEXT INVOICE NO.  120862 0639
X A4 Slave 2 First invoice 120790 170213 Last invoice 120861 170213 Next invoice 120862 Total number of records 000000227 clbackup completed 21:04:01
