201062000201062               201062               170213A5     1400+00000+A50000011871+0000011871+000000000+000001663+0000013534+0000000000+I40000013534+0000000000+Z
201062001201062562-000020     201062006003000600861EDU PLAY DOUGH 60g 4PC 0000002000+00003507+00000+0001T   00003507+0000000847          1400 MD1755               1BZ
201062002201062105-007410     201062006003000629671CONTAINER MINI 300ml   0000001000+00002630+00000+0001T   00003507+0008170847          1400 MD1210               1BZ
201062003201062077-000920     201062006003000413812G/WRAP 700mmx2m BIRTHDA0000001000+00002192+00000+0001T   00002192+0000000847          1400 MD1112               1BZ
201062004201062112-116038     201062006009681820246TCS CARRIER BAG MIDI   0000001000+00000035+00000+0001T   00000035+0000000847          1400 MD1090               1BZ
201063000201063               201063               170213A5     1400+00000+A50000001261+0000001261+000000000+000000177+0000001430+0000000008+I20000000000+0000001430+Z
201063001201063200-000130     201063006001023645067DESSERT-SPOONS 10PCE   0000002000+00000613+00000+0001T   00000613+0000000932          1400 MD1214               1BZ
201063002201063112-116038     201063006009681820246TCS CARRIER BAG MIDI   0000001000+00000035+00000+0001T   00000035+0000000932          1400 MD1090               1BZ
201064000201064               201064               170213A5     1400+00000+A50000008797+0000008797+000000000+000001235+0000010030+0000000002+I20000000000+0000010030+Z
201064001201064077-000011-F   201064006001023808431TISSUE-WRAP BLUE/LILAC 0000001000+00000876+00000+0001T   00000876+0000001005          1400 MD1112               1BZ
201064002201064077-000011-X   201064006001023809827TISSUE-WRAP SILVER 10PC0000001000+00001753+00000+0001T   00001753+0000001005          1400 MD1112               1BZ
201064003201064077-000011-F   201064006001023808431TISSUE-WRAP BLUE/LILAC 0000001000+00000876+00000+0001T   00000876+0000001005          1400 MD1112               1BZ
201064004201064077-000011-D   201064006001023808554TISSUE-WRAP WHITE 10PCE0000002000+00000876+00000+0001T   00000876+0000001005          1400 MD1112               1BZ
201064005201064077-000011-Y   201064006001023809858TISSUE-WRAP GOLD 10PCE 0000001000+00001753+00000+0001T   00001753+0000001005          1400 MD1112               1BZ
201064006201064077-000011-R   201064006001023808462P/TISSUE DARK 10-SHEETS0000001000+00000876+00000+0001T   00000876+0000001005          1400 MD1112               1BZ
201064007201064077-000011-C   201064006001023808523TISSUE 10xSHTS RED     0000001000+00000876+00000+0001T   00000876+0000001005          1400 MD1112               1BZ
201064008201064112-116038     201064006009681820246TCS CARRIER BAG MIDI   0000001000+00000035+00000+0001T   00000035+0000001005          1400 MD1090               1BZ
201065000201065               201065               170213A5     1400+00000+A50000001008-0000001008-000000000+000000142-0000001150-0000000000+I20000000000+0000001150-Z
201065001201065001-999906     201065000000000999906STATIONERY(PHOTOCOPIES)0000001000-00001008+00000+0001T   00000000+0000001051          1400 MD19062IC            1 Z
201066000201066               201066               170213A5     1400+00000+A50000001227+0000001227+000000000+000000172+0000001390+0000000009+I20000000000+0000001390+Z
201066001201066200-000092     201066006003000576739PICNIC PAPER PLATES 23c0000001000+00001227+00000+0001T   00001227+0000001128          1400 MD1214               1BZ
201067000201067               201067               170213A5     1400+00000+A50000011886+0000011886+000000000+000001666+0000013552+0000000000+I40000013552+0000000000+Z
201067001201067159-090920     201067006001023629364TOILET SOFT-SEAT LARGE 0000001000+00011402+00000+0001T   00011402+0000001136          1400 MD1200               1BZ
201067002201067112-116069     201067006009681820277TCS CARRIER BAG JUMBO  0000001000+00000048+00000+0001T   00000048+0000001136          1400 MD1090               1BZ
201067003201067903-000670     201067006009803358008SWT SHERBET RED LIPS   0000002000+00000218+00000+0001T   00000218+0000001136          1400 MD1150               1BZ
201068000201068               201068               170213A5     1400+00000+A50000003069+0000003069+000000000+000000430+0000003490+0000000009+I20000000000+0000003490+Z
201068001201068089-060027     201068006003000245871KEY-CHAIN HEART 6X6cm  0000001000+00003069+00000+0001T   00003069+0000001138          1400 MD1205               1BZ
201069000201069               201069               170213A5     1400+00000+A50000003507+0000003507+000000000+000000491+0000003998+0000000000+I40000003998+0000000000+Z
201069001201069018-000136     201069006001023659026MUG OCC LOVE W/PLUSH   0000001000+00003507+00000+0001T   00003507+0000001139          1400 MD1515               1BZ
201070000201070               201070               170213A5     1400+00000+A50000007574+0000007574+000000000+000001062+0000008636+0000000000+I40000008636+0000000000+Z
201070001201070306-000993     201070006003000560110FIRSTAID PLASTER 75PC  0000001000+00002630+00000+0001T   00002630+0000001141          1400 MD1200               1BZ
201070002201070058-000062     201070006001023622976HOBBY-KNIFE+BLADE 15cm 0000001000+00003507+00000+0001T   00003507+0000001141          1400 MD1840               1BZ
201070003201070027-009030     201070006002814400100DUSTPAN PL             0000001000+00001402+00000+0001T   00001402+0000001141          1400 MD1212               1BZ
201070004201070112-116038     201070006009681820246TCS CARRIER BAG MIDI   0000001000+00000035+00000+0001T   00000035+0000001141          1400 MD1090               1BZ
201071000201071               201071               170213A5     1400+00000+A50000008403+0000008403+000000000+000001179+0000009582+0000000000+I40000009582+0000000000+Z
201071001201071112-116038     201071006009681820246TCS CARRIER BAG MIDI   0000001000+00000035+00000+0001T   00000035+0000001150          1400 MD1090               1BZ
201071002201071903-000194     201071006009826020616SWT CHOC RP LOLLY 25G  0000001000+00001314+00000+0001T   00001314+0000001150          1400 MD1150               1BZ
201071003201071019-000124     201071006003000329502PLANTER GALV ROUND SML 0000001000+00003507+00000+0001T   00004385+0008171150          1400 MD1510               1BZ
201071004201071077-000150-D   201071006003000054343GIFT-WRAP CELLPHANE CLR0000001000+00000876+00000+0001T   00000876+0000001150          1400 MD1112               1BZ
201071005201071105-000750     201071006003000190270CONTAINERS 4xMINI 150ml0000001000+00001402+00000+0001T   00001402+0000001150          1400 MD1210               1BZ
201071006201071077-000011-E   201071006001023808646TISSUE-WRAP PINK 10PCE 0000001000+00000876+00000+0001T   00000876+0000001150          1400 MD1112               1BZ
201071007201071903-000183     201071006003000451043SWT LB HEART LOLLY     0000001000+00000393+00000+0001T   00000393+0000001150          1400 MD1150               1BZ
201072000201072               201072               170213A5     1400+00000+A50000001753+0000001753+000000000+000000246+0000001999+0000000000+I40000001999+0000000000+Z
201072001201072466-000103     201072006001023642134BALL 20cm ASSTD        0000001000+00001753+00000+0001T   00001753+0000001156          1400 MD1785               1BZ
201073000201073               201073               170213A5     1400+00000+A50000003507+0000003507+000000000+000000491+0000003990+0000000008+I20000000000+0000003990+Z
201073001201073058-000062     201073006001023622976HOBBY-KNIFE+BLADE 15cm 0000001000+00003507+00000+0001T   00003507+0000001158          1400 MD1840               1BZ
201074000201074               201074               170213A5     1400+00000+A50000001753+0000001753+000000000+000000246+0000001990+0000000009+I20000000000+0000001990+Z
201074001201074080-000113     201074006003000237449CARD&ENVLPE - LOVE     0000001000+00001753+00000+0001T   00001753+0000001159          1400 MD1112               1BZ
201075000201075               201075               170213A5     1400+00000+A50000001490+0000001490+000000000+000000209+0000001690+0000000009+I20000000000+0000001690+Z
201075001201075564-000036     201075006001023708694BUBBLE W/PUZZLE        0000001000+00001490+00000+0001T   00001490+0000001215          1400 MD1131               1BZ
201076000201076               201076               170213A5     1400+00000+A50000006137+0000006137+000000000+000000860+0000006997+0000000000+I40000006997+0000000000+Z
201076001201076018-000130     201076006001023867537MUG OCC LOVE MINI+HEART0000001000+00003507+00000+0001T   00003507+0000001221          1400 MD1515               1BZ
201076002201076039-081008     201076006008766081008CANDLES 9PCE SCENTED   0000001000+00002630+00000+0001T   00002630+0000001221          1400 MD1510               1BZ
201077000201077               201077               170213A5     1400+00000+A50000001227+0000001227+000000000+000000172+0000001390+0000000009+I20000000000+0000001390+Z
201077001201077077-000245     201077006001023759214GIFT-RIBBON METALLICx2 0000001000+00001227+00000+0001T   00001227+0000001222          1400 MD1112               1BZ
201078000201078               201078               170213A5     1400+00000+A50000000786+0000000786+000000000+000000112+0000000890+0000000008+I20000000000+0000000890+Z
201078001201078903-000183     201078006003000451043SWT LB HEART LOLLY     0000002000+00000393+00000+0001T   00000393+0000001231          1400 MD1150               1BZ
201079000201079               201079               170213A5     1400+00000+A50000026087+0000026087+000000000+000003660+0000029747+0000000000+I40000029747+0000000000+Z
201079001201079903-000183     201079006003000451043SWT LB HEART LOLLY     0000006000+00000393+00000+0001T   00000393+0000001233          1400 MD1150               1BZ
201079002201079368-000637     201079006001023874092PLUSH BEAR SLEEPING LOV0000001000+00011402+00000+0001T   00012279+0006471233          1400 MD1745               1BZ
201079003201079368-000111     201079006001023780812PLUSH BEAR/DOG 29CM    0000001000+00012279+00000+0001T   00012279+0000001233          1400 MD1745               1BZ
201079004201079112-116069     201079006009681820277TCS CARRIER BAG JUMBO  0000001000+00000048+00000+0001T   00000048+0000001233          1400 MD1090               1BZ
201080000201080               201080               170213A5     1400+00000+A50000000874+0000000874+000000000+000000124+0000000990+0000000008+I20000000000+0000000990+Z
201080001201080080-000133-A   201080006003000647019MINI VALENTINES CARD   0000002000+00000437+00000+0001T   00000437+0000001234          1400 MD1112               1BZ
201081000201081               201081               170213A5     1400+00000+A50000001927+0000001927+000000000+000000270+0000002190+0000000007+I20000000000+0000002190+Z
201081001201081077-000245     201081006001023759214GIFT-RIBBON METALLICx2 0000001000+00001227+00000+0001T   00001227+0000001240          1400 MD1112               1BZ
201081002201081007-000104     201081006009685854865BK COVER BRWN KRFT ROLL0000002000+00000350+00000+0001T   00000350+0000001240          1400 MD1130               1BZ
201082000201082               201082               170213A5     1400+00000+A50000001314+0000001314+000000000+000000184+0000001498+0000000000+I40000001498+0000000000+Z
201082001201082077-000310     201082006001023608635GIFT-BAG 18X23CM GLOSS 0000001000+00001314+00000+0001T   00001314+0000001243          1400 MD1112               1BZ
201083000201083               201083               170213A5     1400+00000+A50000009469+0000009469+000000000+000001327+0000010790+0000000006+I20000000000+0000010790+Z
201083001201083566-001234     201083006003000217793STICKERS LASER ASSTD   0000001000+00001578+00000+0001T   00001578+0000001248          1400 MD1130               1BZ
201083002201083089-060027     201083006003000245871KEY-CHAIN HEART 6X6cm  0000001000+00003069+00000+0001T   00003069+0000001248          1400 MD1205               1BZ
201083003201083566-000359     201083006003000582709STICKER BOOK LOVE SPARK0000001000+00002192+00000+0001T   00002192+0000001248          1400 MD1130               1BZ
201083004201083566-000006     201083006001023671189STICKER-BOOK DRESS-UP  0000001000+00002630+00000+0001T   00002630+0000001248          1400 MD1130               1BZ
201084000201084               201084               170213A5     1400+00000+A50000065396+0000065396+000000000+000009164+0000074560+0000000000+I40000074560+0000000000+Z
201084001201084112-116053     201084006006438002399TCS CARRIER BAG 38L    0000001000+00000069+00000+0001T   00000069+0000001252          1400 MD1090               1BZ
201084002201084567-011908     201084006003000676361BK PROMO CLEARANCE ASST0000002000+00007016+00000+0001T   00007016+0000001252          1400 MD1757               1BZ
201084003201084567-014132     201084006003000560028BOOK COLOURING 24 PAGE 0000002000+00000876+00000+0001T   00000876+0000001252          1400 MD1757               1BZ
201084004201084567-011358     201084009780709721697BK EDU ABC WITH POSTER 0000001000+00004385+00000+0001T   00006139+0008141252          1400 MD1757               1BZ
201084005201084464-009009     201084006003000647552FISHING DUCKS MAGNETIC 0000001000+00003069+00000+0001T   00003069+0000001252          1400 MD1785               1BZ
201084006201084065-006040     201084006003000118984BELL WDN HANDLE 19cm   0000001000+00003507+00000+0001T   00003507+0000001252          1400 MD1745               1BZ
201084007201084065-001008     201084006001023673190XYLOPHONE 8-KEYS SHAPES0000001000+00004385+00000+0001T   00004385+0000001252          1400 MD1745               1BZ
201084008201084200-003024     201084006001023657299REFUSE BAGS 20PCE BLACK0000001000+00001753+00000+0001T   00001753+0000001252          1400 MD1214               1BZ
201084009201084200-003026     201084006003000276448REFUSE BAGS 10PCE GREEN0000001000+00001753+00000+0001T   00001753+0000001252          1400 MD1214               1BZ
201084010201084024-000107     201084006001023422071MUFFIN-PAN 12-CUP      0000001000+00009648+00000+0001T   00009648+0000001252          1400 MD1300               1BZ
201084011201084464-000111     201084006001023114624GAME SKITTLES WOODEN   0000001000+00006139+00000+0001T   00006139+0000001252          1400 MD1785               1BZ
201084012201084031-000864-A   201084006001023798350P/FRAME MAHOGANY 10X15 0000001000+00003069+00000+0001T   00003069+0000001252          1400 MD1510               1BZ
201084013201084079-013032     201084006003000389209SET LETTERS 2 ASSTD    0000001000+00001753+00000+0001T   00001753+0000001252          1400 MD1130               1BZ
201084014201084206-000110     201084006003000628186CHOPSTICKS PLASTIC KIDS0000003000+00002630+00000+0001T   00002630+0000001252          1400 MD1321               1BZ
201084015201084206-000150     201084006003000628667SLICER CUCUMBER        0000001000+00002192+00000+0001T   00002192+0000001252          1400 MD1321               1BZ
201085000201085               201085               170213A5     1400+00000+A50000010430+0000010430+000000000+000001463+0000011893+0000000000+I40000011893+0000000000+Z
201085001201085019-071611     201085006003000513642PEBBLES W/GEM 10g CLEAR0000007000+00001490+00000+0001T   00001490+0000001253          1400 MD1510               1BZ
201086000201086               201086               170213A5     1400+00000+A50000001753+0000001753+000000000+000000246+0000001990+0000000009+I20000000000+0000001990+Z
201086001201086006-000120     201086006001023346889BALLOONS 10PC MIX COL  0000001000+00001753+00000+0001T   00001753+0000001303          1400 MD1131               1BZ
201087000201087               201087               170213A5     1400+00000+A50000001753+0000001753+000000000+000000246+0000001990+0000000009+I20000000000+0000001990+Z
201087001201087566-000070     201087006003000283798STICKERS POP UP ASSTD  0000001000+00001753+00000+0001T   00001753+0000001419          1400 MD1130               1BZ
201088000201088               201088               170213A5     1400+00000+A50000009646+0000009646+000000000+000001352+0000010998+0000000000+I40000010998+0000000000+Z
201088001201088301-085001     201088006003000297610ORN WATERBALL LOVE ASST0000002000+00004823+00000+0001T   00004823+0000001425          1400 MD1505               1BZ
201089000201089               201089               170213A5     1400+00000+A50000001664+0000001664+000000000+000000234+0000001898+0000000000+I40000001898+0000000000+Z
201089001201089903-000137     201089006002099004130SWEET GS JELLY BEAN 60G0000001000+00000788+00000+0001T   00000788+0000001427          1400 MD1150               1BZ
201089002201089077-000302     201089008010410010195GIFT-BAG 18X23CM E/D   0000001000+00000876+00000+0001T   00000876+0000001427          1400 MD1112               1BZ
201090000201090               201090               170213A5     1400+00000+A50000001753+0000001753+000000000+000000246+0000001990+0000000009+I20000000000+0000001990+Z
201090001201090565-000888     201090006003000607846NOVELTY MESH BALL      0000001000+00001753+00000+0001T   00001753+0000001428          1400 MD1745               1BZ
201091000201091               201091               170213A5     1400+00000+A50000004384+0000004384+000000000+000000614+0000004990+0000000008+I20000000000+0000004990+Z
201091001201091566-000359     201091006003000582709STICKER BOOK LOVE SPARK0000001000+00002192+00000+0001T   00002192+0000001429          1400 MD1130               1BZ
201091002201091566-000068     201091006003000418046POP UP LOVE 2 ASSTD    0000001000+00002192+00000+0001T   00002192+0000001429          1400 MD1130               1BZ
201092000201092               201092               170213A5     1400+00000+A50000004821+0000004821+000000000+000000675+0000005496+0000000000+I40000005496+0000000000+Z
201092001201092018-000136     201092006001023659026MUG OCC LOVE W/PLUSH   0000001000+00003507+00000+0001T   00003507+0000001434          1400 MD1515               1BZ
201092002201092077-000310     201092006001023608635GIFT-BAG 18X23CM GLOSS 0000001000+00001314+00000+0001T   00001314+0000001434          1400 MD1112               1BZ
201093000201093               201093               170213A5     1400+00000+A50000002630+0000002630+000000000+000000369+0000002990+0000000009+I20000000000+0000002990+Z
201093001201093002-000016     201093006001023760173CAPPUCCINO-FROTHER B/O 0000001000+00002630+00000+0001T   00002630+0000001434          1400 MD1300               1BZ
201094000201094               201094               170213A5     1400+00000+A50000017137+0000017137+000000000+000002400+0000019537+0000000000+I40000019537+0000000000+Z
201094001201094112-116038     201094006009681820246TCS CARRIER BAG MIDI   0000001000+00000035+00000+0001T   00000035+0000001436          1400 MD1090               1BZ
201094002201094002-250030     201094006003000268641K/SCALE DIGITAL 5kg    0000001000+00015788+00000+0001T   00015788+0000001436          1400 MD1300               1BZ
201094003201094903-004952     201094006002580020052SWT FREAKY FACES 100G  0000001000+00001314+00000+0001T   00001314+0000001436          1400 MD1150               1BZ
201095000201095               201095               170213A5     1400+00000+A50000006076+0000006076+000000000+000000852+0000006920+0000000008+I20000000000+0000006920+Z
201095001201095112-116038     201095006009681820246TCS CARRIER BAG MIDI   0000001000+00000035+00000+0001T   00000035+0000001443          1400 MD1090               1BZ
201095002201095903-000119     201095006001704007337SWT COCONUT-WHEEL      0000001000+00000788+00000+0001T   00000788+0000001443          1400 MD1150               1BZ
201095003201095903-000211     201095006002099001238SWT GS MALLOW ICE CREAM0000001000+00001753+00000+0001T   00001753+0000001443          1400 MD1150               1BZ
201095004201095018-000177     201095006001023797513MUG MINI LOVE ASSTD    0000005000+00000700+00000+0001T   00000700+0000001443          1400 MD1515               1BZ
201096000201096               201096               170213A5     1400+00000+A50000001314+0000001314+000000000+000000184+0000001490+0000000008+I20000000000+0000001490+Z
201096001201096033-005906-B   201096006001023727848S/LACES RND 90cm ASSTD 0000001000+00001314+00000+0001T   00001314+0000001449          1400 MD1200               1BZ
201097000201097               201097               170213A5     1400+00000+A50000000613+0000000613+000000000+000000086+0000000690+0000000009+I20000000000+0000000690+Z
201097001201097304-001011     201097006001023806727FLWR ROSE RED W/BEAR   0000001000+00000613+00000+0001T   00000788+0006471450          1400 MD1510               1BZ
201098000201098               201098               170213A5     1400+00000+A50000002541+0000002541+000000000+000000357+0000002890+0000000008+I20000000000+0000002890+Z
201098001201098566-000858     201098006001023760975STCKRS G/OUTLINE ASSTD 0000001000+00000788+00000+0001T   00000788+0000001500          1400 MD1130               1BZ
201098002201098566-020150     201098006001023889126STICKERS FOAM 3D ASSTD 0000001000+00001753+00000+0001T   00001753+0000001500          1400 MD1130               1BZ
201099000201099               201099               170213A5     1400+00000+A50000007890+0000007890+000000000+000001107+0000008997+0000000000+I40000008997+0000000000+Z
201099001201099200-000035     201099006001023768810FOOD-BOWL-COVERS 5PCE  0000001000+00002630+00000+0001T   00002630+0000001502          1400 MD1214               1BZ
201099002201099200-000042     201099006001023868886BAG-SEALERS 10PCE      0000001000+00002630+00000+0001T   00002630+0000001502          1400 MD1214               1BZ
201099003201099071-001362     201099006003000589258HIGHLIGHTER 4 PACK     0000001000+00002630+00000+0001T   00002630+0000001502          1400 MD1130               1BZ
201100000201100               201100               170213A5     1400+00000+A50000001578+0000001578+000000000+000000221+0000001790+0000000009+I20000000000+0000001790+Z
201100001201100566-001234     201100006003000217793STICKERS LASER ASSTD   0000001000+00001578+00000+0001T   00001578+0000001503          1400 MD1130               1BZ
201101000201101               201101               170213A5     1400+00000+A50000003981+0000003981+000000000+000000558+0000004539+0000000000+I40000004539+0000000000+Z
201101001201101024-000002     201101006001023741899S/BURNER-COVER SILV/BLK0000001000+00003946+00000+0001T   00004385+0008191513          1400 MD1300               1BZ
201101002201101112-116038     201101006009681820246TCS CARRIER BAG MIDI   0000001000+00000035+00000+0001T   00000035+0000001513          1400 MD1090               1BZ
201102000201102               201102               170213A5     1400+00000+A50000011872+0000011872+000000000+000001664+0000013530+0000000006+I20000000000+0000013530+Z
201102001201102018-000170     201102006001023775528MUG OCC. LOVE 2PC MINI 0000001000+00002192+00000+0001T   00002192+0000001518          1400 MD1515               1BZ
201102002201102006-000190     201102006003000685530BALLOONS LOVE 81x91cm  0000001000+00004385+00000+0001T   00004385+0000001518          1400 MD1131               1BZ
201102003201102089-000029     201102006003000092321K/CHAIN MOM POLY       0000002000+00002630+00000+0001T   00003507+0008121518          1400 MD1205               1BZ
201102004201102112-116038     201102006009681820246TCS CARRIER BAG MIDI   0000001000+00000035+00000+0001T   00000035+0000001518          1400 MD1090               1BZ
201103000201103               201103               170213A5     1400+00000+A50000001227+0000001227+000000000+000000172+0000001390+0000000009+I20000000000+0000001390+Z
201103001201103077-000322     201103006001023677532GIFT-BAG 18X23CM E/D FL0000001000+00001227+00000+0001T   00001227+0000001523          1400 MD1112               1BZ
201104000201104               201104               170213A5     1400+00000+A50000004823+0000004823+000000000+000000676+0000005490+0000000009+I20000000000+0000005490+Z
201104001201104301-085001     201104006003000297610ORN WATERBALL LOVE ASST0000001000+00004823+00000+0001T   00004823+0000001527          1400 MD1505               1BZ
201105000201105               201105               170213A5     1400+00000+A50000014764+0000014764+000000000+000002069+0000016833+0000000000+I40000016833+0000000000+Z
201105001201105112-116038     201105006009681820246TCS CARRIER BAG MIDI   0000001000+00000035+00000+0001T   00000035+0000001532          1400 MD1090               1BZ
201105002201105089-000191     201105006003000430185KEY CHAIN BEAR 10CM    0000002000+00002630+00000+0001T   00002630+0000001532          1400 MD1205               1BZ
201105003201105030-000010     201105006003000084395P/DOOR HANGER 2-ASSTD  0000001000+00001314+00000+0001T   00001490+0008181532          1400 MD1505               1BZ
201105004201105088-000107     201105006001023555823DIFFUSER SET FLOWER    0000001000+00004385+00000+0001T   00004385+0000001532          1400 MD1212               1BZ
201105005201105080-000124     201105006003000297733CARD & ENV VALENTINES  0000001000+00001578+00000+0001T   00001578+0000001532          1400 MD1112               1BZ
201105006201105566-000359     201105006003000582709STICKER BOOK LOVE SPARK0000001000+00002192+00000+0001T   00002192+0000001532          1400 MD1130               1BZ
201106000201106               201106               170213A5     1400+00000+A50000023389+0000023389+000000000+000003278+0000026667+0000000000+I40000026667+0000000000+Z
201106001201106112-116053     201106006006438002399TCS CARRIER BAG 38L    0000001000+00000069+00000+0001T   00000069+0000001539          1400 MD1090               1BZ
201106002201106366-000105     201106006001023866103DRESSUP WINGS AND SKIRT0000001000+00007016+00000+0001T   00007016+0000001539          1400 MD1131               1BZ
201106003201106566-001234     201106006003000217793STICKERS LASER ASSTD   0000001000+00001578+00000+0001T   00001578+0000001539          1400 MD1130               1BZ
201106004201106903-000211     201106006002099001238SWT GS MALLOW ICE CREAM0000001000+00001753+00000+0001T   00001753+0000001539          1400 MD1150               1BZ
201106005201106903-004952     201106006002580020052SWT FREAKY FACES 100G  0000001000+00001314+00000+0001T   00001314+0000001539          1400 MD1150               1BZ
201106006201106903-000095     201106006001704011495SWT SPECKLED-EGGS 100G 0000001000+00002104+00000+0001T   00002104+0000001539          1400 MD1150               1BZ
201106007201106903-004950     201106006002580020304SWT APRICOT SURPRISE   0000001000+00001314+00000+0001T   00001314+0000001539          1400 MD1150               1BZ
201106008201106903-005007     201106006002580020311SWT MALLOW BEAR M/SHAKE0000001000+00001314+00000+0001T   00001314+0000001539          1400 MD1150               1BZ
201106009201106903-000119     201106006001704007337SWT COCONUT-WHEEL      0000001000+00000788+00000+0001T   00000788+0000001539          1400 MD1150               1BZ
201106010201106560-000229     201106006003000469468ANIMALS BIG EYES ASSTD 0000001000+00006139+00000+0001T   00006139+0000001539          1400 MD1745               1BZ
201107000201107               201107               170213A5     1400+00000+A50000003507+0000003507+000000000+000000491+0000003990+0000000008+I20000000000+0000003990+Z
201107001201107903-000616     201107006003000644827SWT HS SWORD 60cm      0000001000+00003507+00000+0001T   00003507+0000001545          1400 MD1150               1BZ
201108000201108               201108               170213A5     1400+00000+A50000006521+0000006521+000000000+000000915+0000007430+0000000006+I20000000000+0000007430+Z
201108001201108112-116038     201108006009681820246TCS CARRIER BAG MIDI   0000001000+00000035+00000+0001T   00000035+0000001546          1400 MD1090               1BZ
201108002201108028-000014     201108006001334001316ICE-BRICK SOLID MEDIUM 0000003000+00001753+00000+0001T   00001753+0000001546          1400 MD1305               1BZ
201108003201108077-000245     201108006001023759214GIFT-RIBBON METALLICx2 0000001000+00001227+00000+0001T   00001227+0000001546          1400 MD1112               1BZ
201109000201109               201109               170213A5     1400+00000+A50000002630+0000002630+000000000+000000369+0000002990+0000000009+I20000000000+0000002990+Z
201109001201109079-006495     201109006003000159987GLITTER SHAKERS 6PK    0000001000+00002630+00000+0001T   00002630+0000001546          1400 MD1130               1BZ
201110000201110               201110               170213A5     1400+00000+A50000001753+0000001753+000000000+000000246+0000001990+0000000009+I20000000000+0000001990+Z
201110001201110077-000351     201110006003000139033GIFT-BAG 18X23CM E/D P 0000001000+00001753+00000+0001T   00001753+0000001551          1400 MD1112               1BZ
201111000201111               201111               170213A5     1400+00000+A50000001753+0000001753+000000000+000000246+0000001990+0000000009+I20000000000+0000001990+Z
201111001201111200-003024     201111006001023657299REFUSE BAGS 20PCE BLACK0000001000+00001753+00000+0001T   00001753+0000001554          1400 MD1214               1BZ
201112000201112               201112               170213A5     1400+00000+A50000009064+0000009064+000000000+000001270+0000010334+0000000000+I40000010334+0000000000+Z
201112001201112030-000040     201112006003000396375PLAQUE WDN HANGING HRTS0000001000+00003069+00000+0001T   00003069+0000001557          1400 MD1505               1BZ
201112002201112112-116038     201112006009681820246TCS CARRIER BAG MIDI   0000001000+00000035+00000+0001T   00000035+0000001557          1400 MD1090               1BZ
201112003201112563-000318-L   201112006003000407088SERVIETTES 33cm RED    0000001000+00002192+00000+0001T   00002192+0000001557          1400 MD1214               1BZ
201112004201112563-000317-B   201112006001023776174SERVIETTES PLN WHT PK400000001000+00001314+00000+0001T   00001314+0000001557          1400 MD1214               1BZ
201112005201112071-001019     201112006001023474513MARKER BLACK NAME-PEN  0000001000+00000876+00000+0001T   00000876+0000001557          1400 MD1130               1BZ
201112006201112566-001234     201112006003000217793STICKERS LASER ASSTD   0000001000+00001578+00000+0001T   00001578+0000001557          1400 MD1130               1BZ
201113000201113               201113               170213A5     1400+00000+A50000008771+0000008771+000000000+000001228+0000009990+0000000009+I20000000000+0000009990+Z
201113001201113368-000614     201113006001023705808PLUSH LOVE 30cm        0000001000+00008771+00000+0001T   00008771+0000001600          1400 MD1745               1BZ
201114000201114               201114               170213A5     1400+00000+A50000009208+0000009208+000000000+000001290+0000010490+0000000008+I20000000000+0000010490+Z
201114001201114368-000614     201114006001023705808PLUSH LOVE 30cm        0000001000+00008771+00000+0001T   00008771+0000001607          1400 MD1745               1BZ
201114002201114080-000133-A   201114006003000647019MINI VALENTINES CARD   0000001000+00000437+00000+0001T   00000437+0000001607          1400 MD1112               1BZ
201115000201115               201115               170213A5     1400+00000+A50000001402+0000001402+000000000+000000197+0000001590+0000000009+I20000000000+0000001590+Z
201115001201115105-001005     201115006001023858214CONTAINERS MINI 6PCE   0000001000+00001402+00000+0001T   00001402+0000001612          1400 MD1210               1BZ
201116000201116               201116               170213A5     1400+00000+A50000001753+0000001753+000000000+000000246+0000001990+0000000009+I20000000000+0000001990+Z
201116001201116077-000381     201116006003000247707GIFT-BAG 25X32CM S/COL 0000001000+00001753+00000+0001T   00001753+0000001619          1400 MD1112               1BZ
201117000201117               201117               170213A5     1400+00000+A50000005296+0000005296+000000000+000000742+0000006030+0000000008+I20000000000+0000006030+Z
201117001201117089-000192-A   201117006001023901774KEY-CHAIN ACRYLIC      0000001000+00000876+00000+0001T   00000876+0000001623          1400 MD1205               1BZ
201117002201117082-007586     201117006003000654291SUNGLASS DESIGNER ASST 0000001000+00004385+00000+0001T   00004385+0000001623          1400 MD1160               1BZ
201117003201117112-116038     201117006009681820246TCS CARRIER BAG MIDI   0000001000+00000035+00000+0001T   00000035+0000001623          1400 MD1090               1BZ
201118000201118               201118               170213A5     1400+00000+A50000001578+0000001578+000000000+000000221+0000001790+0000000009+I20000000000+0000001790+Z
201118001201118018-000127     201118006001023380289MUG OCC STRAIGHT LOVE  0000001000+00001578+00000+0001T   00001753+0006471633          1400 MD1515               1BZ
201119000201119               201119               170213A5     1400+00000+A50000004733+0000004733+000000000+000000663+0000005390+0000000006+I20000000000+0000005390+Z
201119001201119567-011422     201119006003000641222BK COLOURING THERAPY   0000001000+00003507+00000+0001T   00003507+0000001634          1400 MD1757               1BZ
201119002201119304-001011     201119006001023806727FLWR ROSE RED W/BEAR   0000002000+00000613+00000+0001T   00000788+0006471634          1400 MD1510               1BZ
201120000201120               201120               170213A5     1400+00000+A50000000437+0000000437+000000000+000000062+0000000490+0000000009+I20000000000+0000000490+Z
201120001201120080-000133-A   201120006003000647019MINI VALENTINES CARD   0000001000+00000437+00000+0001T   00000437+0000001637          1400 MD1112               1BZ
201121000201121               201121               170213A5     1400+00000+A50000005261+0000005261+000000000+000000737+0000005998+0000000000+I40000005998+0000000000+Z
201121001201121082-007586     201121006003000654291SUNGLASS DESIGNER ASST 0000001000+00004385+00000+0001T   00004385+0000001648          1400 MD1160               1BZ
201121002201121077-000302     201121008010410010195GIFT-BAG 18X23CM E/D   0000001000+00000876+00000+0001T   00000876+0000001648          1400 MD1112               1BZ
201122000201122               201122               170213A5     1400+00000+A50000006139+0000006139+000000000+000000860+0000006990+0000000009+I20000000000+0000006990+Z
201122001201122039-000798     201122006001023617774CANDLES TEALITE BOX-50 0000001000+00006139+00000+0001T   00006139+0000001655          1400 MD1510               1BZ
201123000201123               201123               170213A5     1400+00000+A50000012535+0000012535+000000000+000001757+0000014292+0000000000+I40000014292+0000000000+Z
201123001201123301-085001     201123006003000297610ORN WATERBALL LOVE ASST0000001000+00004823+00000+0001T   00004823+0000001700          1400 MD1505               1BZ
201123002201123903-000911     201123006009802868454SWT ST GUM TAPE BARBIE 0000001000+00001753+00000+0001T   00001753+0000001700          1400 MD1150               1BZ
201123003201123903-000087     201123006001704000161SWT SPECKLED-EGGS 50G  0000001000+00001139+00000+0001T   00001139+0000001700          1400 MD1150               1BZ
201123004201123566-000068     201123006003000418046POP UP LOVE 2 ASSTD    0000001000+00002192+00000+0001T   00002192+0000001700          1400 MD1130               1BZ
201123005201123077-000310     201123006001023608635GIFT-BAG 18X23CM GLOSS 0000002000+00001314+00000+0001T   00001314+0000001700          1400 MD1112               1BZ
201124000201124               201124               170213A5     1400+00000+A50000003366+0000003366+000000000+000000472+0000003830+0000000008+I20000000000+0000003830+Z
201124001201124018-000127     201124006001023380289MUG OCC STRAIGHT LOVE  0000001000+00001578+00000+0001T   00001753+0006471701          1400 MD1515               1BZ
201124002201124200-003024     201124006001023657299REFUSE BAGS 20PCE BLACK0000001000+00001753+00000+0001T   00001753+0000001701          1400 MD1214               1BZ
201124003201124112-116038     201124006009681820246TCS CARRIER BAG MIDI   0000001000+00000035+00000+0001T   00000035+0000001701          1400 MD1090               1BZ
201125000201125               201125               170213A5     1400+00000+A50000001753+0000001753+000000000+000000246+0000001990+0000000009+I20000000000+0000001990+Z
201125001201125466-000109     201125006003000612345BALL RAINBOW DESIGN    0000001000+00001753+00000+0001T   00001753+0000001701          1400 MD1785               1BZ
201126000201126               201126               170213A5     1400+00000+A50000004419+0000004419+000000000+000000619+0000005030+0000000008+I20000000000+0000005030+Z
201126001201126018-000170     201126006001023775528MUG OCC. LOVE 2PC MINI 0000002000+00002192+00000+0001T   00002192+0000001702          1400 MD1515               1BZ
201126002201126112-116038     201126006009681820246TCS CARRIER BAG MIDI   0000001000+00000035+00000+0001T   00000035+0000001702          1400 MD1090               1BZ
201127000201127               201127               170213A5     1400+00000+A50000003331+0000003331+000000000+000000467+0000003798+0000000000+I40000003798+0000000000+Z
201127001201127566-001234     201127006003000217793STICKERS LASER ASSTD   0000001000+00001578+00000+0001T   00001578+0000001710          1400 MD1130               1BZ
201127002201127366-006104     201127006003000616930DRESS UP FACE PAINT    0000001000+00001753+00000+0001T   00001753+0000001710          1400 MD1131               1BZ
201128000201128               201128               170213A5     1400+00000+A50000001753+0000001753+000000000+000000246+0000001990+0000000009+I20000000000+0000001990+Z
201128001201128080-000113     201128006003000237449CARD&ENVLPE - LOVE     0000001000+00001753+00000+0001T   00001753+0000001711          1400 MD1112               1BZ
201129000201129               201129               170213A5     1400+00000+A50000004909+0000004909+000000000+000000689+0000005598+0000000000+I40000005598+0000000000+Z
201129001201129027-009025     201129006003962000747DUSTPAN-SET PL         0000001000+00002630+00000+0001T   00002630+0000001712          1400 MD1212               1BZ
201129002201129027-001020     201129006001246602519BROOM FLOOR W/HANDLE   0000001000+00002279+00000+0001T   00002279+0000001712          1400 MD1212               1BZ
201130000201130               201130               170213A5     1400+00000+A50000000876+0000000876+000000000+000000123+0000000990+0000000009+I20000000000+0000000990+Z
201130001201130108-004035     201130006001023669469PLATE PS 20cm-DIAMETER 0000001000+00000876+00000+0001T   00000876+0000001713          1400 MD1210               1BZ
201131000201131               201131               170213A5     1400+00000+A50000003507+0000003507+000000000+000000491+0000003990+0000000008+I20000000000+0000003990+Z
201131001201131200-000205     201131006008766127027BAKEPANS 36PCE (PIE)   0000001000+00003507+00000+0001T   00003507+0000001715          1400 MD1214               1BZ
201132000201132               201132               170213A5     1400+00000+A50000007760+0000007760+000000000+000001090+0000008850+0000000000+I20000000000+0000008850+Z
201132001201132112-116069     201132006009681820277TCS CARRIER BAG JUMBO  0000001000+00000048+00000+0001T   00000048+0000001719          1400 MD1090               1BZ
201132002201132077-000010-C   201132006001023123879CREPE-PAPER RED        0000001000+00000788+00000+0001T   00000788+0000001719          1400 MD1112               1BZ
201132003201132077-000010-U   201132006001023168863CREPE-PAPER CERISE-PINK0000001000+00000788+00000+0001T   00000788+0000001719          1400 MD1112               1BZ
201132004201132077-000011-E   201132006001023808646TISSUE-WRAP PINK 10PCE 0000001000+00000876+00000+0001T   00000876+0000001719          1400 MD1112               1BZ
201132005201132566-000367     201132006003000645558STICKER WINDOW DECOR   0000002000+00002630+00000+0001T   00002630+0000001719          1400 MD1130               1BZ
201133000201133               201133               170213A5     1400+00000+A50000001050+0000001050+000000000+000000148+0000001190+0000000008+I20000000000+0000001190+Z
201133001201133077-000321     201133006001023677501GIFT-BAG 11X14CM E/D FL0000001000+00000613+00000+0001T   00000613+0000001726          1400 MD1112               1BZ
201133002201133080-000133     201133006003000535613CARD&ENV MINI ASTD DSGN0000001000+00000437+00000+0001T   00000437+0000001726          1400 MD1112               1BZ
201134000201134               201134               170213A5     1400+00000+A50000004857+0000004857+000000000+000000681+0000005538+0000000000+I40000005538+0000000000+Z
201134001201134564-000011     201134006001023865892BUBBLE REFILL 350ml    0000001000+00002630+00000+0001T   00002630+0000001727          1400 MD1131               1BZ
201134002201134493-059050     201134000078257590506BEACH-BALL 61cm LIVELY 0000001000+00002192+00000+0001T   00002192+0000001727          1400 MD1787               1BZ
201134003201134112-116038     201134006009681820246TCS CARRIER BAG MIDI   0000001000+00000035+00000+0001T   00000035+0000001727          1400 MD1090               1BZ
201135000201135               201135               170213A5     1400+00000+A50000013156+0000013156+000000000+000001842+0000014990+0000000008+I20000000000+0000014990+Z
201135001201135368-000614     201135006001023705808PLUSH LOVE 30cm        0000001000+00008771+00000+0001T   00008771+0000001731          1400 MD1745               1BZ
201135002201135368-000049     201135006003000536955PLUSH BEAR 15cm LOVE   0000001000+00004385+00000+0001T   00004385+0000001731          1400 MD1745               1BZ
201136000201136               201136               170213A5     1400+00000+A50000003067+0000003067+000000000+000000430+0000003497+0000000000+I40000003497+0000000000+Z
201136001201136077-000312     201136006001023608697GIFT-BAG 10X35CM GLOSS 0000001000+00001314+00000+0001T   00001314+0000001737          1400 MD1112               1BZ
201136002201136077-000382     201136006003000247820GIFT-BAG MED 18X23CM   0000001000+00001753+00000+0001T   00001753+0000001737          1400 MD1112               1BZ
201137000201137               201137               170213A5     1400+00000+A50000008769+0000008769+000000000+000001229+0000009998+0000000000+I40000009998+0000000000+Z
201137001201137079-011520     201137006003000160549ART+CRAFT SET SAND BOTL0000001000+00007016+00000+0001T   00007893+0008191740          1400 MD1130               1BZ
201137002201137077-000354     201137006003000139224GIFT-BAG 25X32CM H/MADE0000001000+00001753+00000+0001T   00001753+0000001740          1400 MD1112               1BZ
201138000201138               201138               170213A5     1400+00000+A50000008713+0000008713+000000000+000001222+0000009935+0000000000+I40000009935+0000000000+Z
201138001201138077-000399     201138006003000139514GIFT BAG 18X23CM E/DAY 0000003000+00001490+00000+0001T   00001490+0000001741          1400 MD1112               1BZ
201138002201138903-000095     201138006001704011495SWT SPECKLED-EGGS 100G 0000002000+00002104+00000+0001T   00002104+0000001741          1400 MD1150               1BZ
201138003201138112-116038     201138006009681820246TCS CARRIER BAG MIDI   0000001000+00000035+00000+0001T   00000035+0000001741          1400 MD1090               1BZ
201139000201139               201139               170213A5     1400+00000+A50000005908+0000005908+000000000+000000828+0000006730+0000000006+I20000000000+0000006730+Z
201139001201139018-000136     201139006001023659026MUG OCC LOVE W/PLUSH   0000001000+00003507+00000+0001T   00003507+0000001751          1400 MD1515               1BZ
201139002201139112-116038     201139006009681820246TCS CARRIER BAG MIDI   0000001000+00000035+00000+0001T   00000035+0000001751          1400 MD1090               1BZ
201139003201139903-000613     201139006003000617173SWT LIPS DUMMY 10G     0000001000+00001490+00000+0001T   00001490+0000001751          1400 MD1150               1BZ
201139004201139366-007601     201139006003000655472DRESS UP MASK THEATRICA0000001000+00000876+00000+0001T   00000876+0000001751          1400 MD1131               1BZ
201140000201140               201140               170213A5     1400+00000+A50000007891+0000007891+000000000+000001106+0000008990+0000000007+I20000000000+0000008990+Z
201140001201140368-000049     201140006003000536955PLUSH BEAR 15cm LOVE   0000001000+00004385+00000+0001T   00004385+0000001756          1400 MD1745               1BZ
201140002201140566-002004     201140006001023672421STICKERS CRYSTAL SHAPES0000001000+00001753+00000+0001T   00001753+0000001756          1400 MD1130               1BZ
201140003201140566-000362     201140006003000583065STICKER LETTER & NUMBER0000001000+00001753+00000+0001T   00001753+0000001756          1400 MD1130               1BZ
201141000201141               201141               170213A5     1400+00000+A50000005331+0000005331+000000000+000000747+0000006070+0000000008+I20000000000+0000006070+Z
201141001201141366-000125     201141006003000006786DRESSUP WINGS/WAND/BAND0000001000+00005262+00000+0001T   00005262+0000001800          1400 MD1131               1BZ
201141002201141112-116053     201141006006438002399TCS CARRIER BAG 38L    0000001000+00000069+00000+0001T   00000069+0000001800          1400 MD1090               1BZ
201142000201142               201142               170213A5     1400+00000+A50000000700+0000000700+000000000+000000098+0000000790+0000000008+I20000000000+0000000790+Z
201142001201142018-000177     201142006001023797513MUG MINI LOVE ASSTD    0000001000+00000700+00000+0001T   00000700+0000001800          1400 MD1515               1BZ
201143000201143               201143               170213A5     1400+00000+A50000007717+0000007717+000000000+000001081+0000008790+0000000008+I20000000000+0000008790+Z
201143001201143018-050000     201143006003000412679MUG OCC LOVE TWIN BEAR 0000001000+00006139+00000+0001T   00006139+0000001803          1400 MD1515               1BZ
201143002201143077-000315     201143006003000181186GIFT-BAG 20x28cm MATT  0000001000+00001578+00000+0001T   00001578+0000001803          1400 MD1112               1BZ
201144000201144               201144               170213A5     1400+00000+A50000004385+0000004385+000000000+000000614+0000004999+0000000000+I40000004999+0000000000+Z
201144001201144368-000049     201144006003000536955PLUSH BEAR 15cm LOVE   0000001000+00004385+00000+0001T   00004385+0000001805          1400 MD1745               1BZ
201145000201145               201145               170213A5     1400+00000+A50000001314+0000001314+000000000+000000184+0000001490+0000000008+I20000000000+0000001490+Z
201145001201145077-000310     201145006001023608635GIFT-BAG 18X23CM GLOSS 0000001000+00001314+00000+0001T   00001314+0000001805          1400 MD1112               1BZ
201146000201146               201146               170213A5     1400+00000+A50000006139+0000006139+000000000+000000860+0000006999+0000000000+I40000006999+0000000000+Z
201146001201146368-000104     201146006001023751348PLUSH BEAR RUFFLED-LOOK0000001000+00006139+00000+0001T   00006139+0000001807          1400 MD1745               1BZ
201147000201147               201147               170213A5     1400+00000+A50000000437+0000000437+000000000+000000062+0000000490+0000000009+I20000000000+0000000490+Z
201147001201147080-000133     201147006003000535613CARD&ENV MINI ASTD DSGN0000001000+00000437+00000+0001T   00000437+0000001811          1400 MD1112               1BZ
201148000201148               201148               170213A5     1400+00000+A50000002630+0000002630+000000000+000000369+0000002990+0000000009+I20000000000+0000002990+Z
201148001201148206-000620     201148006003000631797BACK SCRATCHER EXTEND  0000001000+00002630+00000+0001T   00002630+0000001812          1400 MD1321               1BZ
201149000201149               201149               170213A5     1400+00000+A50000004416+0000004416+000000000+000000620+0000005030+0000000006+I20000000000+0000005030+Z
201149001201149018-000136     201149006001023659026MUG OCC LOVE W/PLUSH   0000001000+00003507+00000+0001T   00003507+0000001813          1400 MD1515               1BZ
201149002201149080-000133-A   201149006003000647019MINI VALENTINES CARD   0000002000+00000437+00000+0001T   00000437+0000001813          1400 MD1112               1BZ
201149003201149112-116038     201149006009681820246TCS CARRIER BAG MIDI   0000001000+00000035+00000+0001T   00000035+0000001813          1400 MD1090               1BZ
201150000201150               201150               170213A5     1400+00000+A50000006174+0000006174+000000000+000000865+0000007030+0000000009+I20000000000+0000007030+Z
201150001201150018-050000     201150006003000412679MUG OCC LOVE TWIN BEAR 0000001000+00006139+00000+0001T   00006139+0000001813          1400 MD1515               1BZ
201150002201150112-116038     201150006009681820246TCS CARRIER BAG MIDI   0000001000+00000035+00000+0001T   00000035+0000001813          1400 MD1090               1BZ
201151000201151               201151               170213A5     1400+00000+A50000004857+0000004857+000000000+000000681+0000005538+0000000000+I40000005538+0000000000+Z
201151001201151001-000175     201151006001023788108B/MUG GLS LOVE 380ML   0000001000+00004385+00000+0001T   00004385+0000001816          1400 MD1515               1BZ
201151002201151080-000133-A   201151006003000647019MINI VALENTINES CARD   0000001000+00000437+00000+0001T   00000437+0000001816          1400 MD1112               1BZ
201151003201151112-116038     201151006009681820246TCS CARRIER BAG MIDI   0000001000+00000035+00000+0001T   00000035+0000001816          1400 MD1090               1BZ
201152000201152               201152               170213A5     1400+00000+A50000015113+0000015113+000000000+000002118+0000017231+0000000000+I40000017231+0000000000+Z
201152001201152112-116038     201152006009681820246TCS CARRIER BAG MIDI   0000001000+00000035+00000+0001T   00000035+0000001819          1400 MD1090               1BZ
201152002201152368-000049     201152006003000536955PLUSH BEAR 15cm LOVE   0000002000+00004385+00000+0001T   00004385+0000001819          1400 MD1745               1BZ
201152003201152082-026204     201152006001023816443R/GLASSES STRINGS 2PCE 0000001000+00000876+00000+0001T   00000876+0000001819          1400 MD1160               1BZ
201152004201152304-001011     201152006001023806727FLWR ROSE RED W/BEAR   0000001000+00000613+00000+0001T   00000788+0006471819          1400 MD1510               1BZ
201152005201152566-002000     201152000721129013206STICKERS CRYSTAL ASSTD 0000001000+00000700+00000+0001T   00000700+0000001819          1400 MD1130               1BZ
201152006201152304-001011     201152006001023806727FLWR ROSE RED W/BEAR   0000001000+00000613+00000+0001T   00000788+0006471819          1400 MD1510               1BZ
201152007201152903-000619     201152006003000672455SWT LOLLY STR/BRRY 140G0000002000+00001753+00000+0001T   00001753+0000001819          1400 MD1150               1BZ
201153000201153               201153               170213A5     1400+00000+A50000020779+0000020779+000000000+000002914+0000023693+0000000000+I40000023693+0000000000+Z
201153001201153566-001234     201153006003000217793STICKERS LASER ASSTD   0000001000+00001578+00000+0001T   00001578+0000001822          1400 MD1130               1BZ
201153002201153002-000650     201153006001023473578M/SPOON WDN 40cm H/HOUS0000001000+00002630+00000+0001T   00002630+0000001822          1400 MD1300               1BZ
201153003201153206-000480     201153006003000620227MOP SHOES CHENILLE 2PC 0000001000+00007893+00000+0001T   00007893+0000001822          1400 MD1321               1BZ
201153004201153106-001118     201153006009654960320WATER BOTTLE PL 500ml  0000003000+00002016+00000+0001T   00002016+0000001822          1400 MD1210               1BZ
201153005201153206-000570     201153006003000633463DOOR STOPPER SILI/LEAF 0000001000+00002630+00000+0001T   00002630+0000001822          1400 MD1321               1BZ
201154000201154               201154               170213A5     1400+00000+A50000001753+0000001753+000000000+000000246+0000001990+0000000009+I20000000000+0000001990+Z
201154001201154077-000316     201154006001023609731GIFT-BAG 25X32CM MATT  0000001000+00001753+00000+0001T   00001753+0000001822          1400 MD1112               1BZ
201155000201155               201155               170213A5     1400+00000+A50000000874+0000000874+000000000+000000124+0000000990+0000000008+I20000000000+0000000990+Z
201155001201155080-000133-A   201155006003000647019MINI VALENTINES CARD   0000002000+00000437+00000+0001T   00000437+0000001825          1400 MD1112               1BZ
201156000201156               201156               170213A5     1400+00000+A50000000437+0000000437+000000000+000000062+0000000490+0000000009+I20000000000+0000000490+Z
201156001201156080-000133     201156006003000535613CARD&ENV MINI ASTD DSGN0000001000+00000437+00000+0001T   00000437+0000001826          1400 MD1112               1BZ
201157000201157               201157               170213A5     1400+00000+A50000013154+0000013154+000000000+000001843+0000014990+0000000007+I20000000000+0000014990+Z
201157001201157039-000500     201157006001023816450C/VOTIVE 8PC RAINBOW   0000002000+00005262+00000+0001T   00005262+0000001831          1400 MD1510               1BZ
201157002201157039-081008     201157006008766081008CANDLES 9PCE SCENTED   0000001000+00002630+00000+0001T   00002630+0000001831          1400 MD1510               1BZ
201158000201158               201158               170213A5     1400+00000+A50000007016+0000007016+000000000+000000983+0000007990+0000000009+I20000000000+0000007990+Z
201158001201158105-002013     201158006002580008494CONTAINER SET 18PCE    0000001000+00007016+00000+0001T   00007016+0000001832          1400 MD1210               1BZ
201159000201159               201159               170213A5     1400+00000+A50000001314+0000001314+000000000+000000184+0000001498+0000000000+I40000001498+0000000000+Z
201159001201159077-000310     201159006001023608635GIFT-BAG 18X23CM GLOSS 0000001000+00001314+00000+0001T   00001314+0000001834          1400 MD1112               1BZ
A17021300                                          10132536A5SLAVE 1                       MD12IC
A17021301                                          10170849A5SLAVE 1                       MD12IC
A17021302                                          10211445A5SLAVE 1                       MD12IC
A17021303                                          17273377A5SLAVE 1                       MD12IC
C20106300                                          170213A5080-000133-A   08482596SLAVE 1     MD12IC0000000000+0000000000+0010000001000+
M17021391                              CASH        A5SLAVE 1                       Z-REPORT No.   520TOTAL (Sales - Refunds)           6691.47       CASH TO BE BANKED                 2681.10       DEBIT CARDS                          0.00       CREDIT CARDS                      3999.07       Z-READING                         6679.97       AIRTIME DEBIT CARD SALES             0.00       AIRTIME CARD SALES                   0.00       OVERS/UNDERS                         0.20       AIRTIME CASH SALES                   0.00       GIFT CARDS                           0.00       GIFT CARD CASH SALES                 0.00       STATIONERY(PHOTOCOPIES)             11.50       T O T A L  CASH PAYOUTS             11.50                                                                                                                                                                                                                                                                                                      Z
M17021392                              CASH        A5ABSENT                                                                                                                                                                                          ANNUAL LEAVE                                                                                                                                                                                    DAY OFF                                                                                                                                                                                         COMMENTS                                                                                                                                                                                                                                                                                                                                                                                       Z
Y17021300                                          A500000000587320+000097
ZA517021319173 SLAVE 1      SALES DATA                     NEXT INVOICE NO.  201160 0520
F093684496-058484         1701160851460000072ICSLAVE 1
F094003496-028272         1701160851500000012ICSLAVE 1
F094038496-028120         1701131258140000002ICSLAVE 1
T094743040-000208                                          1702131617000000032ICSLAVE 1
X A5 Slave 1 First invoice 201062 170213 Last invoice 201159 170213 Next invoice 201160 Total number of records 000000338 clbackup completed 19:17:13
