302352000302352               302352               170213A5     1400+00000+A50000002630+0000002630+000000000+000000369+0000002990+0000000009+I20000000000+0000002990+Z
302352001302352566-000367     302352006003000645558STICKER WINDOW DECOR   0000001000+00002630+00000+0001T   00002630+0000000852          1400 AS8130               2BZ
302353000302353               302353               170213A5     1400+00000+A50000017541+0000017541+000000000+000002457+0000019998+0000000000+I40000019998+0000000000+Z
302353001302353072-000232     302353006003000236060DOG-COL REFLCTV 35-51cm0000001000+00001753+00000+0001T   00001753+0000000908          1400 AS8870               2BZ
302353002302353469-004001     302353006003000241927B/BLOCKS 66PC POLICE   0000001000+00015788+00000+0001T   00015788+0000000908          1400 AS8755               2BZ
302354000302354               302354               170213A5     1400+00000+A50000005291+0000005291+000000000+000000741+0000006032+0000000000+I40000006032+0000000000+Z
302354001302354112-116038     302354006009681820246TCS CARRIER BAG MIDI   0000001000+00000035+00000+0001T   00000035+0000000914          1400 AS8090               2BZ
302354003302354903-000194     302354006009826020616SWT CHOC RP LOLLY 25G  0000004000+00001314+00000+0001T   00001314+0000000914          1400 AS8150               2BZ
302355000302355               302355               170213A5     1400+00000+A50000001578+0000001578+000000000+000000221+0000001790+0000000009+I20000000000+0000001790+Z
302355001302355077-000323     302355006001023677563G/BAG 25X32CM E/DAY FLO0000001000+00001578+00000+0001T   00001578+0000000918          1400 AS8112               2BZ
302356000302356               302356               170213A5     1400+00000+A50000001227+0000001227+000000000+000000172+0000001390+0000000009+I20000000000+0000001390+Z
302356001302356251-000041     302356006001023515889SEAL-TAPE BUFF 48mmx50m0000001000+00001227+00000+0001T   00001227+0000000957          1400 AS8810               2BZ
302357000302357               302357               170213A5     1400+00000+A50000002630+0000002630+000000000+000000369+0000002990+0000000009+I20000000000+0000002990+Z
302357001302357560-000202     302357006003000322008SNAKE PVC ASSTD        0000001000+00002630+00000+0001T   00002630+0000001006          1400 AS8745               2BZ
302358000302358               302358               170213A5     1400+00000+A50000009207+0000009207+000000000+000001290+0000010497+0000000000+I40000010497+0000000000+Z
302358001302358082-098787     302358006001492987873SUNGLASS KIDS FOIL     0000001000+00003946+00000+0001T   00003946+0000001045          1400 AS8160               2BZ
302358002302358362-001105     302358006003000635917JEWELLERY BRACELETS    0000001000+00000876+00000+0001T   00000876+0000001045          1400 AS8160               2BZ
302358003302358162-092943     302358006001492929439#TAG SWEETY NK & WR SET0000001000+00004385+00000+0001T   00004385+0000001045          1400 AS8160               2BZ
302359000302359               302359               170213A5     1400+00000+A50000006139+0000006139+000000000+000000860+0000006990+0000000009+I20000000000+0000006990+Z
302359001302359007-000890-17  302359006003000645671CALENDAR 2017 ASSTD    0000001000+00006139+00000+0001T   00006139+0000001046          1400 AS8130               2BZ
302360000302360               302360               170213A5     1400+00000+A50000006673+0000006673+000000000+000000935+0000007608+0000000000+I40000007608+0000000000+Z
302360001302360030-000031-A   302360006003000457588PLAQUE W/WORDS ASSTD   0000001000+00004385+00000+0001T   00004823+0006471059          1400 AS8505               2BZ
302360002302360080-000127     302360006003000424351VALENTINES DAY 36x24CM 0000001000+00002192+00000+0001T   00002192+0000001059          1400 AS8112               2BZ
302360003302360112-116069     302360006009681820277TCS CARRIER BAG JUMBO  0000002000+00000048+00000+0001T   00000048+0000001059          1400 AS8090               2BZ
302361000302361               302361               170213A5     1400+00000+A50000002630+0000002630+000000000+000000369+0000002999+0000000000+I40000002999+0000000000+Z
302361001302361206-000220     302361006003000631704EGG TIMER COLOUR-CHANGE0000001000+00002630+00000+0001T   00002630+0000001109          1400 AS8321               2BZ
302362000302362               302362               170213A5     1400+00000+A50000019015+0000019015+000000000+000002669+0000021680+0000000004+I20000000000+0000021680+Z
302362001302362566-000309     302362006003000523283STICKER CHALK-BOARD    0000002000+00001753+00000+0001T   00001753+0000001113          1400 AS8130               2BZ
302362002302362566-000299     302362006003000682386STICKER LABEL C/BOARD  0000001000+00001753+00000+0001T   00001753+0000001113          1400 AS8130               2BZ
302362003302362027-009025     302362006003962000747DUSTPAN-SET PL         0000001000+00002630+00000+0001T   00002630+0000001113          1400 AS8212               2BZ
302362004302362108-003007     302362006002923006590MUG PL 375ml           0000007000+00000262+00000+0001T   00000262+0000001113          1400 AS8210               2BZ
302362005302362072-000012     302362006001023602510PET DOG/CAT BRUSH 23cm 0000001000+00003069+00000+0001T   00003069+0000001113          1400 AS8870               2BZ
302362006302362072-020308     302362006001023700971DOG-TOY FOOTBALL 11,5cm0000001000+00001753+00000+0001T   00001753+0000001113          1400 AS8870               2BZ
302362007302362007-000566     302362006003000640898NOVELTY PHONE NOTE-PAD 0000003000+00001490+00000+0001T   00001490+0000001113          1400 AS8130               2BZ
302363000302363               302363               170213A5     1400+00000+A50000008186+0000008186+000000000+000001149+0000009335+0000000000+I40000009335+0000000000+Z
302363001302363903-000615     302363006003000617456SWT JET PLANE J/B 5G   0000002000+00001753+00000+0001T   00001753+0000001115          1400 AS8150               2BZ
302363002302363566-000028     302363006003000265541STICKER BK ASSTD 250PCE0000002000+00001753+00000+0001T   00001753+0000001115          1400 AS8130               2BZ
302363003302363903-000087     302363006001704000161SWT SPECKLED-EGGS 50G  0000001000+00001139+00000+0001T   00001139+0000001115          1400 AS8150               2BZ
302363004302363112-116038     302363006009681820246TCS CARRIER BAG MIDI   0000001000+00000035+00000+0001T   00000035+0000001115          1400 AS8090               2BZ
302364000302364               302364               170213A5     1400+00000+A50000004822+0000004822+000000000+000000676+0000005490+0000000008+I20000000000+0000005490+Z
302364001302364079-013099     302364006003000081875ART+CRAFT EYES ASSTD   0000001000+00001753+00000+0001T   00001753+0000001127          1400 AS8130               2BZ
302364002302364079-000358     302364006003000591046ART+CRAFT FELT-TIP PENS0000001000+00003069+00000+0001T   00003069+0000001127          1400 AS8130               2BZ
302365000302365               302365               170213A5     1400+00000+A50000002628+0000002628+000000000+000000368+0000002990+0000000006+I20000000000+0000002990+Z
302365001302365903-000194     302365006009826020616SWT CHOC RP LOLLY 25G  0000002000+00001314+00000+0001T   00001314+0000001128          1400 AS8150               2BZ
302366000302366               302366               170213A5     1400+00000+A50000003681+0000003681+000000000+000000517+0000004190+0000000008+I20000000000+0000004190+Z
302366001302366007-000119     302366006002324004126BOOK COVER PL          0000001000+00001051+00000+0001T   00001051+0000001140          1400 JS1130               2BZ
302366002302366046-000011-A   302366006003000438891BATTERIES SIZE:AA  4PCE0000001000+00002630+00000+0001T   00002630+0000001140          1400 JS1312               2BZ
302367000302367               302367               170213A5     1400+00000+A50000014581+0000014581+000000000+000002044+0000016625+0000000000+I40000016625+0000000000+Z
302367001302367007-000127     302367006009685853431BOOK H/COVER MEMO 144PG0000004000+00000876+00000+0001T   00000876+0000001142          1400 JS1130               2BZ
302367002302367007-000166     302367006009685857316SPIRAL NOTES A6 100PG  0000002000+00000700+00000+0001T   00000700+0000001142          1400 JS1130               2BZ
302367003302367112-116038     302367006009681820246TCS CARRIER BAG MIDI   0000001000+00000035+00000+0001T   00000035+0000001142          1400 JS1090               2BZ
302367004302367071-001002     302367006003000217540PENCIL-SHARPNER DOUBLE 0000004000+00001578+00000+0001T   00001578+0000001142          1400 JS1130               2BZ
302367005302367007-000166     302367006009685857316SPIRAL NOTES A6 100PG  0000001000+00000700+00000+0001T   00000700+0000001142          1400 JS1130               2BZ
302367006302367007-000588     302367006001023810090NOTES SHOPPING-LIST+RIB0000001000+00002630+00000+0001T   00002630+0000001142          1400 JS1130               2BZ
302368000302368               302368               170213A5     1400+00000+A50000007085+0000007085+000000000+000000993+0000008070+0000000008+I20000000000+0000008070+Z
302368001302368031-000017     302368006003000411436P/FRAME COLLAGE 3-HOLE 0000001000+00007016+00000+0001T   00007016+0000001145          1400 JS1510               2BZ
302368002302368112-116053     302368006006438002399TCS CARRIER BAG 38L    0000001000+00000069+00000+0001T   00000069+0000001145          1400 JS1090               2BZ
302369000302369               302369               170213A5     1400+00000+A50000005260+0000005260+000000000+000000738+0000005990+0000000008+I20000000000+0000005990+Z
302369001302369034-078810     302369006001023856838DIAPER DISPOSE-BAGSx1000000002000+00002630+00000+0001T   00002630+0000001145          1400 JS1215               2BZ
302370000302370               302370               170213A5     1400+00000+A50000001139+0000001139+000000000+000000160+0000001290+0000000009+I20000000000+0000001290+Z
302370001302370903-000087     302370006001704000161SWT SPECKLED-EGGS 50G  0000001000+00001139+00000+0001T   00001139+0000001216          1400 AS8150               2BZ
302371000302371               302371               170213A5     1400+00000+A50000006724+0000006724+000000000+000000953+0000007677+0000000000+I40000007677+0000000000+Z
302371001302371112-116038     302371006009681820246TCS CARRIER BAG MIDI   0000001000+00000035+00000+0001T   00000035+0000001220          1400 AS8090               2BZ
302371002302371903-000183     302371006003000451043SWT LB HEART LOLLY     0000011000+00000393+00000+0001T   00000393+0000001220          1400 AS8150               2BZ
302371003302371080-000113     302371006003000237449CARD&ENVLPE - LOVE     0000001000+00001753+00000+0001T   00001753+0000001220          1400 AS8112               2BZ
302371004302371304-001011     302371006001023806727FLWR ROSE RED W/BEAR   0000001000+00000613+00000+0001T   00000788+0006471220          1400 AS8510               2BZ
302372000302372               302372               170213A5     1400+00000+A50000003856+0000003856+000000000+000000541+0000004390+0000000007+I20000000000+0000004390+Z
302372001302372200-003026     302372006003000276448REFUSE BAGS 10PCE GREEN0000001000+00001753+00000+0001T   00001753+0000001252          1400 AS8214               2BZ
302372002302372039-000108     302372006001023524034TEA-LITE CANDLES 8PCE  0000001000+00001490+00000+0001T   00001490+0000001252          1400 AS8510               2BZ
302372003302372047-000001-BB  302372006001023723536INS-TAPE BLACK 18mmx10m0000001000+00000613+00000+0001T   00000613+0000001252          1400 AS8880               2BZ
302373000302373               302373               170213A5     1400+00000+A50000007014+0000007014+000000000+000000982+0000007990+0000000006+I20000000000+0000007990+Z
302373001302373018-000136     302373006001023659026MUG OCC LOVE W/PLUSH   0000002000+00003507+00000+0001T   00003507+0000001304          1400 AS8515               2BZ
302374000302374               302374               170213A5     1400+00000+A50000007454+0000007454+000000000+000001044+0000008498+0000000000+I40000008498+0000000000+Z
302374001302374024-000019     302374006001023822277HILLHOUSE ICING-SET    0000001000+00005262+00000+0001T   00005262+0000001306          1400 AS8300               2BZ
302374002302374024-091103     302374006003453014307BAKING-CUP MUFFIN 50PCE0000001000+00002192+00000+0001T   00002192+0000001306          1400 AS8300               2BZ
302375000302375               302375               170213A5     1400+00000+A50000005994+0000005994+000000000+000000840+0000006830+0000000004+I20000000000+0000006830+Z
302375001302375080-000113     302375006003000237449CARD&ENVLPE - LOVE     0000001000+00001753+00000+0001T   00001753+0000001307          1400 AS8112               2BZ
302375002302375077-000310     302375006001023608635GIFT-BAG 18X23CM GLOSS 0000001000+00001314+00000+0001T   00001314+0000001307          1400 AS8112               2BZ
302375003302375018-000127     302375006001023380289MUG OCC STRAIGHT LOVE  0000001000+00001578+00000+0001T   00001753+0006471307          1400 AS8515               2BZ
302375004302375030-000010     302375006003000084395P/DOOR HANGER 2-ASSTD  0000001000+00001314+00000+0001T   00001490+0008181307          1400 AS8505               2BZ
302375005302375112-116038     302375006009681820246TCS CARRIER BAG MIDI   0000001000+00000035+00000+0001T   00000035+0000001307          1400 AS8090               2BZ
302376000302376               302376               170213A5     1400+00000+A50000001752+0000001752+000000000+000000246+0000001998+0000000000+I40000001998+0000000000+Z
302376001302376077-000011-D   302376006001023808554TISSUE-WRAP WHITE 10PCE0000001000+00000876+00000+0001T   00000876+0000001311          1400 AS8112               2BZ
302376002302376077-000011-R   302376006001023808462P/TISSUE DARK 10-SHEETS0000001000+00000876+00000+0001T   00000876+0000001311          1400 AS8112               2BZ
302377000302377               302377               170213A5     1400+00000+A50000006610+0000006610+000000000+000000926+0000007536+0000000000+I40000007536+0000000000+Z
302377001302377079-006494     302377006003000159864GLITTER GLUE 5PCE 11cm 0000001000+00001490+00000+0001T   00001490+0000001316          1400 AS8130               2BZ
302377002302377566-001234     302377006003000217793STICKERS LASER ASSTD   0000001000+00001578+00000+0001T   00001578+0000001316          1400 AS8130               2BZ
302377003302377007-000324     30237700600968585864125 SHEETS BRIGHTS MARLI0000001000+00003507+00000+0001T   00003507+0000001316          1400 AS8130               2BZ
302377004302377112-116038     302377006009681820246TCS CARRIER BAG MIDI   0000001000+00000035+00000+0001T   00000035+0000001316          1400 AS8090               2BZ
302378000302378               302378               170213A5     1400+00000+A50000008769+0000008769+000000000+000001228+0000009997+0000000000+I40000009997+0000000000+Z
302378001302378079-000334     302378006003000670437THERAPY P/CRAYONS 18   0000001000+00005262+00000+0001T   00005262+0000001317          1400 AS8130               2BZ
302378002302378567-011344     302378006003000630714BK COLOURING THERAPY 640000001000+00003507+00000+0001T   00003507+0000001317          1400 AS8757               2BZ
302379000302379               302379               170213A5     1400+00000+A50000007016+0000007016+000000000+000000983+0000007990+0000000009+I20000000000+0000007990+Z
302379001302379562-000002     302379006001023491015COUNTING-FRAME 30x20cm 0000001000+00007016+00000+0001T   00007016+0000001318          1400 AS8755               2BZ
302380000302380               302380               170213A5     1400+00000+A50000001314+0000001314+000000000+000000184+0000001490+0000000008+I20000000000+0000001490+Z
302380001302380030-000010     302380006003000084395P/DOOR HANGER 2-ASSTD  0000001000+00001314+00000+0001T   00001490+0008181320          1400 AS8505               2BZ
302381000302381               302381               170213A5     1400+00000+A50000005295+0000005295+000000000+000000742+0000006030+0000000007+I20000000000+0000006030+Z
302381001302381112-116038     302381006009681820246TCS CARRIER BAG MIDI   0000001000+00000035+00000+0001T   00000035+0000001321          1400 AS8090               2BZ
302381002302381018-000136     302381006001023659026MUG OCC LOVE W/PLUSH   0000001000+00003507+00000+0001T   00003507+0000001321          1400 AS8515               2BZ
302381003302381106-007125     302381006003000057689MILK-SACHET-JUG 1,0L   0000001000+00001753+00000+0001T   00001753+0000001321          1400 AS8210               2BZ
302382000302382               302382               170213A5     1400+00000+A50000001753+0000001753+000000000+000000246+0000001999+0000000000+I40000001999+0000000000+Z
302382001302382031-005820     302382006001023667816P/FRAME-CLIP 15X20CM   0000001000+00001753+00000+0001T   00001753+0000001322          1400 AS8510               2BZ
302383000302383               302383               170213A5     1400+00000+A50000001752+0000001752+000000000+000000246+0000001998+0000000000+I40000001998+0000000000+Z
302383001302383084-000362     302383006001023773166PEDICURE-SET 5PCE      0000001000+00000876+00000+0001T   00000876+0000001324          1400 AS8200               2BZ
302383002302383306-000021-A   302383006001023891358EARBUDS COTTON 100PCE  0000001000+00000876+00000+0001T   00000876+0000001324          1400 AS8200               2BZ
302384000302384               302384               170213A5     1400+00000+A50000007890+0000007890+000000000+000001107+0000008990+0000000007+I20000000000+0000008990+Z
302384001302384077-000512     302384006003000590223GIFT-BAG DESIGNER LRG  0000003000+00002630+00000+0001T   00002630+0000001325          1400 AS8112               2BZ
302385000302385               302385               170213A5     1400+00000+A50000003542+0000003542+000000000+000000496+0000004030+0000000008+I20000000000+0000004030+Z
302385001302385112-116038     302385006009681820246TCS CARRIER BAG MIDI   0000001000+00000035+00000+0001T   00000035+0000001327          1400 AS8090               2BZ
302385002302385463-000128     302385006003000109500SWIM CAP SILICONE ASSTD0000001000+00003507+00000+0001T   00003507+0000001327          1400 AS8785               2BZ
302386000302386               302386               170213A5     1400+00000+A50000001753+0000001753+000000000+000000246+0000001990+0000000009+I20000000000+0000001990+Z
302386001302386077-000316     302386006001023609731GIFT-BAG 25X32CM MATT  0000001000+00001753+00000+0001T   00001753+0000001328          1400 AS8112               2BZ
302387000302387               302387               170213A5     1400+00000+A50000011837+0000011837+000000000+000001659+0000013496+0000000000+I40000013496+0000000000+Z
302387001302387206-000160     302387006003000628780CORN KERNELER          0000001000+00004385+00000+0001T   00004385+0000001331          1400 AS8321               2BZ
302387002302387206-000150     302387006003000628667SLICER CUCUMBER        0000001000+00002192+00000+0001T   00002192+0000001331          1400 AS8321               2BZ
302387003302387206-000190     302387006003000631346PEELER FINGER 2PC      0000001000+00002630+00000+0001T   00003069+0008171331          1400 AS8321               2BZ
302387004302387206-000250     302387006003000632060PEELER POTATOE-MAN     0000001000+00002630+00000+0001T   00002630+0000001331          1400 AS8321               2BZ
302388000302388               302388               170213A5     1400+00000+A50000002489+0000002489+000000000+000000349+0000002830+0000000008+I20000000000+0000002830+Z
302388001302388162-087876     302388006001492878768#TAG 2PK HEADBANDS     0000001000+00000876+00000+0001T   00001753+0008161332          1400 AS8160               2BZ
302388002302388080-000124     302388006003000297733CARD & ENV VALENTINES  0000001000+00001578+00000+0001T   00001578+0000001332          1400 AS8112               2BZ
302388003302388112-116038     302388006009681820246TCS CARRIER BAG MIDI   0000001000+00000035+00000+0001T   00000035+0000001332          1400 AS8090               2BZ
302389000302389               302389               170213A5     1400+00000+A50000001227+0000001227+000000000+000000172+0000001390+0000000009+I20000000000+0000001390+Z
302389001302389266-001304     302389006001023560711MARBLES MILKY BAG OF 450000001000+00001227+00000+0001T   00001227+0000001332          1400 AS8710               2BZ
302390000302390               302390               170213A5     1400+00000+A50000005206+0000005206+000000000+000000731+0000005930+0000000007+I20000000000+0000005930+Z
302390001302390903-000137     302390006002099004130SWEET GS JELLY BEAN 60G0000001000+00000788+00000+0001T   00000788+0000001341          1400 AS8150               2BZ
302390002302390200-003024     302390006001023657299REFUSE BAGS 20PCE BLACK0000001000+00001753+00000+0001T   00001753+0000001341          1400 AS8214               2BZ
302390003302390027-785010     302390006003000628995CLEANING WIPES 40-PACK 0000001000+00002630+00000+0001T   00002630+0000001341          1400 AS8212               2BZ
302390004302390112-116038     302390006009681820246TCS CARRIER BAG MIDI   0000001000+00000035+00000+0001T   00000035+0000001341          1400 AS8090               2BZ
302391000302391               302391               170213A5     1400+00000+A50000008623+0000008623+000000000+000001211+0000009830+0000000004+I20000000000+0000009830+Z
302391001302391112-116038     302391006009681820246TCS CARRIER BAG MIDI   0000001000+00000035+00000+0001T   00000035+0000001344          1400 AS8090               2BZ
302391002302391903-000155     302391006009803374435SWT LOLLY I LUV U HEART0000003000+00000525+00000+0001T   00000525+0000001344          1400 AS8150               2BZ
302391003302391077-000005-B   302391006003000326617PAPER TISSUE PATTERN   0000001000+00002630+00000+0001T   00002630+0000001344          1400 AS8112               2BZ
302391004302391077-000382     302391006003000247820GIFT-BAG MED 18X23CM   0000001000+00001753+00000+0001T   00001753+0000001344          1400 AS8112               2BZ
302391005302391080-000142     302391006003000662456CARD & ENV GIANT AFRI  0000001000+00002630+00000+0001T   00002630+0000001344          1400 AS8112               2BZ
302392000302392               302392               170213A5     1400+00000+A50000010520+0000010520+000000000+000001476+0000011996+0000000000+I40000011996+0000000000+Z
302392001302392077-000235     302392006003000160211GIFT-RIBBON ROLL METALC0000004000+00002630+00000+0001T   00002630+0000001353          1400 AS8112               2BZ
302393000302393               302393               170213A5     1400+00000+A50000005296+0000005296+000000000+000000742+0000006030+0000000008+I20000000000+0000006030+Z
302393001302393112-116038     302393006009681820246TCS CARRIER BAG MIDI   0000001000+00000035+00000+0001T   00000035+0000001356          1400 AS8090               2BZ
302393002302393084-010311     302393006001023601926CUTICLE CLIPPERS 12cm  0000001000+00004385+00000+0001T   00004385+0000001356          1400 AS8200               2BZ
302393003302393084-070005     302393006001023627902NAIL FILES 6PCE H/GLOW 0000001000+00000876+00000+0001T   00000876+0000001356          1400 AS8200               2BZ
302394000302394               302394               170213A5     1400+00000+A50000002192+0000002192+000000000+000000307+0000002499+0000000000+I40000002499+0000000000+Z
302394001302394080-000127     302394006003000424351VALENTINES DAY 36x24CM 0000001000+00002192+00000+0001T   00002192+0000001413          1400 AS8112               2BZ
302395000302395               302395               170213A5     1400+00000+A50000006139+0000006139+000000000+000000860+0000006990+0000000009+I20000000000+0000006990+Z
302395001302395368-000175     302395006003000270316PLUSH BEAR 4 ASSTD 18CM0000001000+00006139+00000+0001T   00006139+0000001449          1400 JS1745               2BZ
302396000302396               302396               170213A5     1400+00000+A50000006139+0000006139+000000000+000000860+0000006999+0000000000+I40000006999+0000000000+Z
302396001302396368-000175     302396006003000270316PLUSH BEAR 4 ASSTD 18CM0000001000+00006139+00000+0001T   00006139+0000001501          1400 JS1745               2BZ
302397000302397               302397               170213A5     1400+00000+A50000005734+0000005734+000000000+000000803+0000006537+0000000000+I40000006537+0000000000+Z
302397001302397031-080508     302397006001023802415P/FRAME PL 22X11CM LOVE0000001000+00004385+00000+0001T   00004385+0000001502          1400 JS1510               2BZ
302397002302397903-000194     302397006009826020616SWT CHOC RP LOLLY 25G  0000001000+00001314+00000+0001T   00001314+0000001502          1400 JS1150               2BZ
302397003302397112-116038     302397006009681820246TCS CARRIER BAG MIDI   0000001000+00000035+00000+0001T   00000035+0000001502          1400 JS1090               2BZ
302398000302398               302398               170213A5     1400+00000+A50000001753+0000001753+000000000+000000246+0000001990+0000000009+I20000000000+0000001990+Z
302398001302398028-000796-A   302398006001023897152SKEWERS BAMBOO 100P 4mm0000001000+00001753+00000+0001T   00001753+0000001512          1400 JS1305               2BZ
302399000302399               302399               170213A5     1400+00000+A50000002192+0000002192+000000000+000000307+0000002499+0000000000+I40000002499+0000000000+Z
302399001302399080-000127     302399006003000424351VALENTINES DAY 36x24CM 0000001000+00002192+00000+0001T   00002192+0000001514          1400 JS1112               2BZ
302400000302400               302400               170213A5     1400+00000+A50000008395+0000008395+000000000+000001176+0000009571+0000000000+I40000009571+0000000000+Z
302400001302400030-000010     302400006003000084395P/DOOR HANGER 2-ASSTD  0000003000+00001314+00000+0001T   00001490+0008181516          1400 JS1505               2BZ
302400002302400080-000127     302400006003000424351VALENTINES DAY 36x24CM 0000002000+00002192+00000+0001T   00002192+0000001516          1400 JS1112               2BZ
302400003302400112-116053     302400006006438002399TCS CARRIER BAG 38L    0000001000+00000069+00000+0001T   00000069+0000001516          1400 JS1090               2BZ
302401000302401               302401               170213A5     1400+00000+A50000002192+0000002192+000000000+000000307+0000002490+0000000009+I20000000000+0000002490+Z
302401001302401018-000170     302401006001023775528MUG OCC. LOVE 2PC MINI 0000001000+00002192+00000+0001T   00002192+0000001525          1400 JS1515               2BZ
302402000302402               302402               170213A5     1400+00000+A50000007046+0000007046+000000000+000000989+0000008030+0000000005+I20000000000+0000008030+Z
302402001302402206-000590     302402006003000633708BAG CLIPS LIPS 2PC     0000002000+00001753+00000+0001T   00001753+0000001538          1400 JS1321               2BZ
302402002302402077-000011-D   302402006001023808554TISSUE-WRAP WHITE 10PCE0000001000+00000876+00000+0001T   00000876+0000001538          1400 JS1112               2BZ
302402003302402077-000011-C   302402006001023808523TISSUE 10xSHTS RED     0000001000+00000876+00000+0001T   00000876+0000001538          1400 JS1112               2BZ
302402004302402112-116038     302402006009681820246TCS CARRIER BAG MIDI   0000001000+00000035+00000+0001T   00000035+0000001538          1400 JS1090               2BZ
302402005302402206-000590     302402006003000633708BAG CLIPS LIPS 2PC     0000001000+00001753+00000+0001T   00001753+0000001538          1400 JS1321               2BZ
302403000302403               302403               170213A5     1400+00000+A50000001400+0000001400+000000000+000000196+0000001590+0000000006+I20000000000+0000001590+Z
302403001302403903-000159     302403006003000417629SWT LB SMALL DUMMIE    0000004000+00000350+00000+0001T   00000350+0000001552          1400 JS1150               2BZ
302404000302404               302404               170213A5     1400+00000+A50000003507+0000003507+000000000+000000491+0000003998+0000000000+I40000003998+0000000000+Z
302404001302404263-000177     302404006001023826824RACER PULL BACK        0000001000+00003507+00000+0001T   00003507+0000001608          1400 AS8710               2BZ
302405000302405               302405               170213A5     1400+00000+A50000001788+0000001788+000000000+000000251+0000002030+0000000009+I20000000000+0000002030+Z
302405001302405036-000063     302405006009654960436COATHANGERS VIRGIN 5PCE0000001000+00001753+00000+0001T   00001753+0000001615          1400 AS8212               2BZ
302405002302405112-116038     302405006009681820246TCS CARRIER BAG MIDI   0000001000+00000035+00000+0001T   00000035+0000001615          1400 AS8090               2BZ
302406000302406               302406               170213A5     1400+00000+A50000000874+0000000874+000000000+000000124+0000000990+0000000008+I20000000000+0000000990+Z
302406001302406080-000133-A   302406006003000647019MINI VALENTINES CARD   0000002000+00000437+00000+0001T   00000437+0000001639          1400 AS8112               2BZ
302407000302407               302407               170213A5     1400+00000+A50000000874+0000000874+000000000+000000124+0000000990+0000000008+I20000000000+0000000990+Z
302407001302407080-000133-A   302407006003000647019MINI VALENTINES CARD   0000002000+00000437+00000+0001T   00000437+0000001640          1400 AS8112               2BZ
302408000302408               302408               170213A5     1400+00000+A50000002541+0000002541+000000000+000000357+0000002890+0000000008+I20000000000+0000002890+Z
302408001302408200-003024     302408006001023657299REFUSE BAGS 20PCE BLACK0000001000+00001753+00000+0001T   00001753+0000001657          1400 AS8214               2BZ
302408002302408903-000119     302408006001704007337SWT COCONUT-WHEEL      0000001000+00000788+00000+0001T   00000788+0000001657          1400 AS8150               2BZ
302409000302409               302409               170213A5     1400+00000+A50000003503+0000003503+000000000+000000493+0000003996+0000000000+I40000003996+0000000000+Z
302409001302409140-005093     302409006003000331338INSECT-KILL RAQT-SHAPED0000001000-00005262+00000+0001T   00005262+0000001700          1400 AS88302IC            2 Z
302409002302409565-000055     302409006003000028252NOVELTY B/O FINGR-BEAMS0000004000+00001753+00000+0001T   00001753+0000001700          1400 AS8745               2BZ
302409003302409046-002013-PK6 302409004897006174851BATTERY BUTTON AG13 6PC0000001000+00001753+00000+0001T   00001753+0000001700          1400 AS8312               2BZ
302410000302410               302410               170213A5     1400+00000+A50000007016+0000007016+000000000+000000983+0000007999+0000000000+I40000007999+0000000000+Z
302410001302410368-000023     302410006003000672264PLUSH BEAR 21.5cm      0000001000+00007016+00000+0001T   00007016+0000001702          1400 AS8745               2BZ
A17021300                                          10130556A5SLAVE 2                       AS82IC
A17021301                                          10513775A5SLAVE 2                       AS82IC
A17021302                                          12173631A5SLAVE 2                       AS82IC
C30235400                                          170213A5007-000324     09130863SLAVE 2     AS82IC0000000000+0000000000+0020000001000+
C30236600                                          170213A5112-116038     11402230SLAVE 2     JS12IC0000000000+0000000000+0030000001000+
M17021391                              CASH        A5SLAVE 2                       Z-REPORT No.   519TOTAL (Sales - Refunds)           3519.67       CASH TO BE BANKED                 1695.80       DEBIT CARDS                          0.00       CREDIT CARDS                      1823.87       Z-READING                         3519.67       AIRTIME DEBIT CARD SALES             0.00       AIRTIME CARD SALES                   0.00       OVERS/UNDERS                         0.00       AIRTIME CASH SALES                   0.00       GIFT CARDS                           0.00       GIFT CARD CASH SALES                 0.00       T O T A L  CASH PAYOUTS              0.00                                                                                                                                                                                                                                                                                                                                                      Z
M17021392                              CASH        A5ABSENT                                                                                                                                                                                          ANNUAL LEAVE                                                                                                                                                                                    DAY OFF                                                                                                                                                                                         COMMENTS                                                                                                                                                                                                                                                                                                                                                                                       Z
Y17021300                                          A500000000314176+000059
ZA517021319173 SLAVE 2      SALES DATA                     NEXT INVOICE NO.  302411 0520
F093684496-058484         1701160852180000072ICSLAVE 2
F094003496-028272         1701160852220000012ICSLAVE 2
F094038496-028120         1701131350180000002ICSLAVE 2
T094743040-000208                                          1702131617370000032ICSLAVE 2
X A5 Slave 2 First invoice 302352 170213 Last invoice 302410 170213 Next invoice 302411 Total number of records 000000199 clbackup completed 19:17:13
