201348000201348               201348               170213A6     1400+00000+A60000004384+0000004384+000000000+000000614+0000004990+0000000008+I20000000000+0000004990+Z
201348001201348051-002400     201348006001023616180TRIGGER-SPRAYER 900ml  0000002000+00002192+00000+0001T   00002192+0000000915          1400 NS8820               1AZ
201349000201349               201349               170213A6     1400+00000+A60000002103+0000002103+000000000+000000295+0000002398+0000000000+I40000002398+0000000000+Z
201349001201349006-000788     201349006001023990228CROWN HAPPY BIRTHDAY   0000001000+00001490+00000+0001T   00001490+0000000920          1400 NS8131               1AZ
201349002201349077-000321     201349006001023677501GIFT-BAG 11X14CM E/D FL0000001000+00000613+00000+0001T   00000613+0000000920          1400 NS8112               1AZ
201350000201350               201350               170213A6     1400+00000+A60000004384+0000004384+000000000+000000614+0000004998+0000000000+I40000004998+0000000000+Z
201350001201350018-000170     201350006001023775528MUG OCC. LOVE 2PC MINI 0000001000+00002192+00000+0001T   00002192+0000000926          1400 NS8515               1AZ
201350002201350080-000127     201350006003000424351VALENTINES DAY 36x24CM 0000001000+00002192+00000+0001T   00002192+0000000926          1400 NS8112               1AZ
201351000201351               201351               170213A6     1400+00000+A60000003680+0000003680+000000000+000000517+0000004197+0000000000+I40000004197+0000000000+Z
201351001201351080-000124     201351006003000297733CARD & ENV VALENTINES  0000001000+00001578+00000+0001T   00001578+0000000938          1400 NS8112               1AZ
201351002201351903-002851     201351000000087108538MENTOS ROLL STRAWBERRY 0000001000+00001051+00000+0001T   00001051+0000000938          1400 NS8150               1AZ
201351003201351903-002850     201351000000087108262MENTOS ROLL FRUIT      0000001000+00001051+00000+0001T   00001051+0000000938          1400 NS8150               1AZ
201352000201352               201352               170213A6     1400+00000+A60000007486+0000007486+000000000+000001050+0000008536+0000000000+I40000008536+0000000000+Z
201352001201352016-006517     201352006003000351626S/JAR GLS CHECK 650ML  0000001000+00002192+00000+0001T   00002192+0000001021          1400 NS8300               1AZ
201352002201352016-006518     201352006003000351749S/JAR GLS CHECK 350ML  0000003000+00001753+00000+0001T   00001753+0000001021          1400 NS8300               1AZ
201352003201352112-116038     201352006009681820246TCS CARRIER BAG MIDI   0000001000+00000035+00000+0001T   00000035+0000001021          1400 NS8090               1AZ
201353000201353               201353               170213A6     1400+00000+A60000001402+0000001402+000000000+000000197+0000001590+0000000009+I20000000000+0000001590+Z
201353001201353105-001005     201353006001023858214CONTAINERS MINI 6PCE   0000001000+00001402+00000+0001T   00001402+0000001046          1400 NS8210               1AZ
201354000201354               201354               170213A6     1400+00000+A60000002452+0000002452+000000000+000000345+0000002790+0000000007+I20000000000+0000002790+Z
201354001201354080-000133-A   201354006003000647019MINI VALENTINES CARD   0000002000+00000437+00000+0001T   00000437+0000001110          1400 NS8112               1AZ
201354002201354080-000124     201354006003000297733CARD & ENV VALENTINES  0000001000+00001578+00000+0001T   00001578+0000001110          1400 NS8112               1AZ
201355000201355               201355               170213A6     1400+00000+A60000010572+0000010572+000000000+000001481+0000012053+0000000000+I40000012053+0000000000+Z
201355001201355369-001015     201355006003000536580BATH VINYL 5PC DUCKS   0000002000+00005262+00000+0001T   00005262+0000001128          1400 NS8745               1AZ
201355002201355112-116069     201355006009681820277TCS CARRIER BAG JUMBO  0000001000+00000048+00000+0001T   00000048+0000001128          1400 NS8090               1AZ
201356000201356               201356               170213A6     1400+00000+A60000008012+0000008012+000000000+000001123+0000009130+0000000005+I20000000000+0000009130+Z
201356001201356077-000011-C   201356006001023808523TISSUE 10xSHTS RED     0000001000+00000876+00000+0001T   00000876+0000001130          1400 NS8112               1AZ
201356002201356304-001204     201356006001023737984FLOWER OCC. TEDDY/ROSES0000001000+00001402+00000+0001T   00001490+0006471130          1400 NS8510               1AZ
201356003201356031-005853     201356006003000442416P/FRAME WDN TWIN HEARTS0000001000+00003507+00000+0001T   00003507+0000001130          1400 NS8510               1AZ
201356004201356301-085000     201356006003000674299 ORN OCC. LOVE HEARTS  0000001000+00002192+00000+0001T   00002192+0000001130          1400 NS8505               1AZ
201356005201356112-116038     201356006009681820246TCS CARRIER BAG MIDI   0000001000+00000035+00000+0001T   00000035+0000001130          1400 NS8090               1AZ
201357000201357               201357               170213A6     1400+00000+A60000002630+0000002630+000000000+000000369+0000002990+0000000009+I20000000000+0000002990+Z
201357001201357206-000620     201357006003000631797BACK SCRATCHER EXTEND  0000001000+00002630+00000+0001T   00002630+0000001139          1400 NS8321               1AZ
201358000201358               201358               170213A6     1400+00000+A60000005260+0000005260+000000000+000000738+0000005990+0000000008+I20000000000+0000005990+Z
201358001201358560-000202     201358006003000322008SNAKE PVC ASSTD        0000002000+00002630+00000+0001T   00002630+0000001141          1400 NS8745               1AZ
201359000201359               201359               170213A6     1400+00000+A60000001928+0000001928+000000000+000000270+0000002190+0000000008+I20000000000+0000002190+Z
201359001201359200-000100     201359006001023764003CUPS 25PCE DISPOSABLE  0000001000+00001928+00000+0001T   00001928+0000001143          1400 NS8214               1AZ
201360000201360               201360               170213A6     1400+00000+A60000047436+0000047436+000000000+000006648+0000054084+0000000000+I40000054084+0000000000+Z
201360001201360368-000049     201360006003000536955PLUSH BEAR 15cm LOVE   0000003000+00004385+00000+0001T   00004385+0000001158          1400 NS8745               1AZ
201360002201360301-085001     201360006003000297610ORN WATERBALL LOVE ASST0000001000+00004823+00000+0001T   00004823+0000001158          1400 NS8505               1AZ
201360003201360368-000156     201360006003000167241PLUSH BUG 20cm ASST-COL0000004000+00007016+00000+0001T   00007016+0000001158          1400 NS8745               1AZ
201360004201360080-000133-A   201360006003000647019MINI VALENTINES CARD   0000003000+00000437+00000+0001T   00000437+0000001158          1400 NS8112               1AZ
201360005201360112-116069     201360006009681820277TCS CARRIER BAG JUMBO  0000001000+00000048+00000+0001T   00000048+0000001158          1400 NS8090               1AZ
201360006201360112-116038     201360006009681820246TCS CARRIER BAG MIDI   0000001000+00000035+00000+0001T   00000035+0000001158          1400 NS8090               1AZ
201361000201361               201361               170213A6     1400+00000+A60000003977+0000003977+000000000+000000557+0000004534+0000000000+I40000004534+0000000000+Z
201361001201361903-000194     201361006009826020616SWT CHOC RP LOLLY 25G  0000003000+00001314+00000+0001T   00001314+0000001200          1400 NS8150               1AZ
201361002201361112-116038     201361006009681820246TCS CARRIER BAG MIDI   0000001000+00000035+00000+0001T   00000035+0000001200          1400 NS8090               1AZ
201362000201362               201362               170213A6     1400+00000+A60000012605+0000012605+000000000+000001768+0000014373+0000000000+I40000014373+0000000000+Z
201362001201362112-116053     201362006006438002399TCS CARRIER BAG 38L    0000001000+00000069+00000+0001T   00000069+0000001202          1400 NS8090               1AZ
201362002201362002-220004     201362006001023467614F/COVER HEXAGONAL 70cm 0000001000+00003069+00000+0001T   00003069+0000001202          1400 NS8300               1AZ
201362003201362036-000063     201362006009654960436COATHANGERS VIRGIN 5PCE0000002000+00001753+00000+0001T   00001753+0000001202          1400 NS8212               1AZ
201362004201362002-000717     201362006001023775184CHOPPING-MATS FLEX 2PCE0000001000+00002630+00000+0001T   00002630+0000001202          1400 NS8300               1AZ
201362005201362006-000120     201362006001023346889BALLOONS 10PC MIX COL  0000001000+00001753+00000+0001T   00001753+0000001202          1400 NS8131               1AZ
201362006201362020-000016     201362006001023399182KITCHEN-SCISSORS       0000001000+00001578+00000+0001T   00001578+0000001202          1400 NS8300               1AZ
201363000201363               201363               170213A6     1400+00000+A60000001590-0000000000+000000000+000000000+0000001590-0000000000+I20000000000+0000001590-Z
201363001201363001-999909     201363000000000999909STAFF-REFRESHMENTS     0000001000-00001590+00000+0001X   00000000+0000001308          0000 NS89091IC            1 Z
201364000201364               201364               170213A6     1400+00000+A60000001753+0000001753+000000000+000000246+0000001990+0000000009+I20000000000+0000001990+Z
201364001201364072-000228     201364006003000235940DOG-COL REFLCTV 25-40cm0000001000+00001753+00000+0001T   00001753+0000001328          1400 NS8870               1AZ
201365000201365               201365               170213A6     1400+00000+A60000017136+0000017136+000000000+000002401+0000019537+0000000000+I40000019537+0000000000+Z
201365001201365562-000010     201365006001023762528KID'S PLAY DOUGH       0000001000+00002630+00000+0001T   00002630+0000001343          1400 NS8755               1AZ
201365002201365036-000400     201365006001023886132CLOTHES-DRYER PL 8-PEG 0000001000+00002192+00000+0001T   00002192+0000001343          1400 NS8212               1AZ
201365003201365562-088357     201365006001023873392EVA CARPET 56x56x0.9cm 0000001000+00012279+00000+0001T   00012279+0000001343          1400 NS8755               1AZ
201365004201365112-116038     201365006009681820246TCS CARRIER BAG MIDI   0000001000+00000035+00000+0001T   00000035+0000001343          1400 NS8090               1AZ
201366000201366               201366               170213A6     1400+00000+A60000003330+0000003330+000000000+000000467+0000003790+0000000007+I20000000000+0000003790+Z
201366001201366903-000518     201366006001704012782SWT STRAWS S/BERRY 100g0000001000+00001227+00000+0001T   00001227+0000001349          1400 NS8150               1AZ
201366002201366903-000510     201366006001704012621SWEET MS ZBDZ S/BERRY  0000001000+00001227+00000+0001T   00001227+0000001349          1400 NS8150               1AZ
201366003201366903-000861     201366005010478430822SWT LOVE HEARTS SML    0000001000+00000876+00000+0001T   00000876+0000001349          1400 NS8150               1AZ
201367000201367               201367               170213A6     1400+00000+A60000012716+0000012716+000000000+000001781+0000014490+0000000007+I20000000000+0000014490+Z
201367001201367018-019000     201367006003000557288MUG OCC. LOVE JUMBO    0000002000+00005262+00000+0001T   00005262+0000001357          1400 NS8515               1AZ
201367002201367080-000127     201367006003000424351VALENTINES DAY 36x24CM 0000001000+00002192+00000+0001T   00002192+0000001357          1400 NS8112               1AZ
201368000201368               201368               170213A6     1400+00000+A60000001314+0000001314+000000000+000000184+0000001490+0000000008+I20000000000+0000001490+Z
201368001201368046-000012     201368006904708013062BATTERIES AA  CARD-OF-40000001000+00001314+00000+0001T   00001314+0000001405          1400 NS8312               1AZ
201369000201369               201369               170213A6     1400+00000+A60000000176+0000000176+000000000+000000025+0000000200+0000000001+I20000000000+0000000200+Z
201369001201369046-000012     201369006904708013062BATTERIES AA  CARD-OF-40000001000-00001314+00000+0001T   00001314+0000001407          1400 NS83121IC            1 Z
201369002201369046-000004     201369006001023606525BATTERY 9VOLT H/POWER  0000001000+00001490+00000+0001T   00001490+0000001407          1400 NS8312               1AZ
201370000201370               201370               170213A6     1400+00000+A60000010521+0000010521+000000000+000001474+0000011990+0000000005+I20000000000+0000011990+Z
201370001201370077-000354     201370006003000139224GIFT-BAG 25X32CM H/MADE0000001000+00001753+00000+0001T   00001753+0000001415          1400 NS8112               1AZ
201370002201370039-000319-4   201370006003000442744B/CANDLES LRG NUMBER-4 0000001000+00000876+00000+0001T   00000876+0000001415          1400 NS8510               1AZ
201370003201370567-010160     201370006003000484966BOOK TOP ASSTD CHILDREN0000001000+00006578+00000+0001T   00006578+0000001415          1400 NS8757               1AZ
201370004201370903-000598     201370006003000607990SWEET CRAYON 15cm J/B  0000001000+00001314+00000+0001T   00001314+0000001415          1400 NS8150               1AZ
201371000201371               201371               170213A6     1400+00000+A60000004385+0000004385+000000000+000000614+0000004990+0000000009+I20000000000+0000004990+Z
201371001201371006-000190     201371006003000685530BALLOONS LOVE 81x91cm  0000001000+00004385+00000+0001T   00004385+0000001416          1400 NS8131               1AZ
201372000201372               201372               170213A6     1400+00000+A60000004383+0000004383+000000000+000000615+0000004998+0000000000+I40000004998+0000000000+Z
201372001201372036-000151     201372006001023810588COATHANGERS    PACK-10 0000001000+00002893+00000+0001T   00002893+0000001433          1400 NS8212               1AZ
201372002201372002-021064     201372006001023822246TOOTHPICKS IN-HOLDER   0000001000+00001490+00000+0001T   00001490+0000001433          1400 NS8300               1AZ
201373000201373               201373               170213A6     1400+00000+A60000002628+0000002628+000000000+000000369+0000002990+0000000007+I20000000000+0000002990+Z
201373001201373903-000861     201373005010478430822SWT LOVE HEARTS SML    0000003000+00000876+00000+0001T   00000876+0000001434          1400 NS8150               1AZ
201374000201374               201374               170213A6     1400+00000+A60000000437+0000000437+000000000+000000062+0000000490+0000000009+I20000000000+0000000490+Z
201374001201374080-000133-A   201374006003000647019MINI VALENTINES CARD   0000001000+00000437+00000+0001T   00000437+0000001434          1400 NS8112               1AZ
201375000201375               201375               170213A6     1400+00000+A60000001314+0000001314+000000000+000000184+0000001490+0000000008+I20000000000+0000001490+Z
201375001201375077-000310     201375006001023608635GIFT-BAG 18X23CM GLOSS 0000001000+00001314+00000+0001T   00001314+0000001447          1400 NS8112               1AZ
201376000201376               201376               170213A6     1400+00000+A60000016555+0000016555+000000000+000002319+0000018870+0000000004+I20000000000+0000018870+Z
201376001201376365-000072     201376006003000012664PLAY-SET PL B/O MICROPH0000001000+00002630+00000+0001T   00003507+0008191452          1400 NS8725               1AZ
201376002201376018-000127     201376006001023380289MUG OCC STRAIGHT LOVE  0000001000+00001578+00000+0001T   00001753+0006471452          1400 NS8515               1AZ
201376003201376206-000260     201376006003000632183ICE TRAY BUILDING BLOCK0000001000+00003507+00000+0001T   00003507+0000001452          1400 NS8321               1AZ
201376004201376261-003906     201376006003000472376RIFLE 57cm +ACCESS 8PCE0000001000+00008771+00000+0001T   00008771+0000001452          1400 NS8710               1AZ
201376005201376112-116053     201376006006438002399TCS CARRIER BAG 38L    0000001000+00000069+00000+0001T   00000069+0000001452          1400 NS8090               1AZ
201377000201377               201377               170213A6     1400+00000+A60000016862+0000016862+000000000+000002365+0000019227+0000000000+I40000019227+0000000000+Z
201377001201377112-116038     201377006009681820246TCS CARRIER BAG MIDI   0000001000+00000035+00000+0001T   00000035+0000001501          1400 NS8090               1AZ
201377002201377007-000566     201377006003000640898NOVELTY PHONE NOTE-PAD 0000001000+00001490+00000+0001T   00001490+0000001501          1400 NS8130               1AZ
201377003201377071-003850     201377006001023893253PENCIL 5PCE RAINBOW WDN0000001000+00002630+00000+0001T   00002630+0000001501          1400 NS8130               1AZ
201377004201377079-013032-I   201377006003000542550ART+CRAFT DIY EVA FOAM 0000005000+00001753+00000+0001T   00001753+0000001501          1400 NS8130               1AZ
201377005201377567-011401     201377009781453000564BK COLOURING BABY ANIMA0000001000+00001314+00000+0001T   00001314+0000001501          1400 NS8757               1AZ
201377006201377567-011401     201377009781453000557BK COLOURING BABY ANIMA0000001000+00001314+00000+0001T   00001314+0000001501          1400 NS8757               1AZ
201377007201377567-011401     201377009781453000571BK COLOURING BABY ANIMA0000001000+00001314+00000+0001T   00001314+0000001501          1400 NS8757               1AZ
201378000201378               201378               170213A6     1400+00000+A60000007481+0000007481+000000000+000001052+0000008533+0000000000+I40000008533+0000000000+Z
201378001201378089-060027     201378006003000245871KEY-CHAIN HEART 6X6cm  0000001000+00003069+00000+0001T   00003069+0000001510          1400 NS8205               1AZ
201378002201378018-000170     201378006001023775528MUG OCC. LOVE 2PC MINI 0000001000+00002192+00000+0001T   00002192+0000001510          1400 NS8515               1AZ
201378003201378112-116038     201378006009681820246TCS CARRIER BAG MIDI   0000001000+00000035+00000+0001T   00000035+0000001510          1400 NS8090               1AZ
201378004201378080-000133-A   201378006003000647019MINI VALENTINES CARD   0000005000+00000437+00000+0001T   00000437+0000001510          1400 NS8112               1AZ
201379000201379               201379               170213A6     1400+00000+A60000007893+0000007893+000000000+000001106+0000008990+0000000009+I20000000000+0000008990+Z
201379001201379082-000126     201379006003000646517READING GLASS TWIN 2.5 0000001000+00007893+00000+0001T   00007893+0000001545          1400 NS8160               1AZ
201380000201380               201380               170213A6     1400+00000+A60000004731+0000004731+000000000+000000664+0000005390+0000000005+I20000000000+0000005390+Z
201380001201380077-000245     201380006001023759214GIFT-RIBBON METALLICx2 0000001000+00001227+00000+0001T   00001227+0000001546          1400 NS8112               1AZ
201380002201380077-000151     201380006008766114676GIFT-WRAP C/PHANE ASSTD0000002000+00000876+00000+0001T   00000876+0000001546          1400 NS8112               1AZ
201380003201380077-000150-D   201380006003000054343GIFT-WRAP CELLPHANE CLR0000002000+00000876+00000+0001T   00000876+0000001546          1400 NS8112               1AZ
201381000201381               201381               170213A6     1400+00000+A60000005262+0000005262+000000000+000000737+0000005990+0000000009+I20000000000+0000005990+Z
201381001201381560-000100     201381006001023834904DRAGON 15cm            0000001000+00005262+00000+0001T   00005262+0000001555          1400 NS8745               1AZ
201382000201382               201382               170213A6     1400+00000+A60000001752+0000001752+000000000+000000246+0000001990+0000000008+I20000000000+0000001990+Z
201382001201382077-000011-D   201382006001023808554TISSUE-WRAP WHITE 10PCE0000002000+00000876+00000+0001T   00000876+0000001604          1400 NS8112               1AZ
201383000201383               201383               170213A6     1400+00000+A60000001752+0000001752+000000000+000000246+0000001990+0000000008+I20000000000+0000001990+Z
201383001201383077-000011-L   201383006001023808585P/TISSUE BRIGHT 10SHEET0000001000+00000876+00000+0001T   00000876+0000001605          1400 NS8112               1AZ
201383002201383077-000011-E   201383006001023808646TISSUE-WRAP PINK 10PCE 0000001000+00000876+00000+0001T   00000876+0000001605          1400 NS8112               1AZ
201384000201384               201384               170213A6     1400+00000+A60000011169+0000011169+000000000+000001565+0000012734+0000000000+I40000012734+0000000000+Z
201384001201384071-005213     201384006001023690371CELLOTAPE 12mmx33m     0000002000+00000876+00000+0001T   00000876+0000001613          1400 NS8130               1AZ
201384002201384200-000067     201384006003000330683STRAWS DRINKING 100PC  0000001000+00002192+00000+0001T   00002192+0000001613          1400 NS8214               1AZ
201384003201384200-000100     201384006001023764003CUPS 25PCE DISPOSABLE  0000001000+00001928+00000+0001T   00001928+0000001613          1400 NS8214               1AZ
201384004201384112-116038     201384006009681820246TCS CARRIER BAG MIDI   0000001000+00000035+00000+0001T   00000035+0000001613          1400 NS8090               1AZ
201384005201384018-017000     201384006003000541850MUG OCC. MOM JUMBO ASST0000001000+00005262+00000+0001T   00005262+0000001613          1400 NS8515               1AZ
201385000201385               201385               170213A6     1400+00000+A60000004420+0000004420+000000000+000000619+0000005030+0000000009+I20000000000+0000005030+Z
201385001201385031-080508     201385006001023802415P/FRAME PL 22X11CM LOVE0000001000+00004385+00000+0001T   00004385+0000001617          1400 NS8510               1AZ
201385002201385112-116038     201385006009681820246TCS CARRIER BAG MIDI   0000001000+00000035+00000+0001T   00000035+0000001617          1400 NS8090               1AZ
201386000201386               201386               170213A6     1400+00000+A60000000437+0000000437+000000000+000000062+0000000499+0000000000+I40000000499+0000000000+Z
201386001201386080-000133-A   201386006003000647019MINI VALENTINES CARD   0000001000+00000437+00000+0001T   00000437+0000001629          1400 NS8112               1AZ
201387000201387               201387               170213A6     1400+00000+A60000002192+0000002192+000000000+000000307+0000002499+0000000000+I40000002499+0000000000+Z
201387001201387080-000127     201387006003000424351VALENTINES DAY 36x24CM 0000001000+00002192+00000+0001T   00002192+0000001631          1400 NS8112               1AZ
201388000201388               201388               170213A6     1400+00000+A60000007082+0000007082+000000000+000000994+0000008076+0000000000+I40000008076+0000000000+Z
201388001201388565-000071     201388006003000643387NOVELTY WIND UP CHATTER0000001000+00001139+00000+0001T   00001139+0000001642          1400 NS8745               1AZ
201388002201388079-000351     201388006001023836090FELT-TIP PENS 8PCE     0000001000+00003244+00000+0001T   00003244+0000001642          1400 NS8130               1AZ
201388003201388079-000282     201388006001023493309PAINT TUBS POSTER 12COL0000001000+00002630+00000+0001T   00002630+0000001642          1400 NS8130               1AZ
201388004201388112-116053     201388006006438002399TCS CARRIER BAG 38L    0000001000+00000069+00000+0001T   00000069+0000001642          1400 NS8090               1AZ
201389000201389               201389               170213A6     1400+00000+A60000001578+0000001578+000000000+000000221+0000001799+0000000000+I40000001799+0000000000+Z
201389001201389080-000124     201389006003000297733CARD & ENV VALENTINES  0000001000+00001578+00000+0001T   00001578+0000001704          1400 NS8112               1AZ
201390000201390               201390               170213A6     1400+00000+A60000015392+0000015392+000000000+000002157+0000017549+0000000000+I40000017549+0000000000+Z
201390001201390368-000637     201390006001023874092PLUSH BEAR SLEEPING LOV0000001000+00011402+00000+0001T   00012279+0006471731          1400 NS8745               1AZ
201390002201390903-000151     201390006009803374411SWT SML RND R/BOW LOLLY0000002000+00000525+00000+0001T   00000525+0000001731          1400 NS8150               1AZ
201390003201390566-000068     201390006003000418046POP UP LOVE 2 ASSTD    0000001000+00002192+00000+0001T   00002192+0000001731          1400 NS8130               1AZ
201390004201390018-000177     201390006001023797513MUG MINI LOVE ASSTD    0000001000+00000700+00000+0001T   00000700+0000001731          1400 NS8515               1AZ
201390005201390112-116069     201390006009681820277TCS CARRIER BAG JUMBO  0000001000+00000048+00000+0001T   00000048+0000001731          1400 NS8090               1AZ
201391000201391               201391               170213A6     1400+00000+A60000003507+0000003507+000000000+000000491+0000003998+0000000000+I40000003998+0000000000+Z
201391001201391051-600601     201391006003000266357GARDENING KNEE PAD ASST0000001000+00003507+00000+0001T   00003507+0000001738          1400 NS8820               1AZ
201392000201392               201392               170213A6     1400+00000+A60000016883+0000016883+000000000+000002366+0000019240+0000000009+I20000000000+0000019240+Z
201392001201392903-004952     201392006002580020052SWT FREAKY FACES 100G  0000001000+00001314+00000+0001T   00001314+0000001740          1400 NS8150               1AZ
201392002201392903-000138     201392006002099004314SWT GS WINE GUMS 60G   0000001000+00000788+00000+0001T   00000788+0000001740          1400 NS8150               1AZ
201392003201392077-000472     201392006003000330133G-BAG DESGNR LRG 25X32 0000001000+00001753+00000+0001T   00001753+0000001740          1400 NS8112               1AZ
201392004201392368-000637     201392006001023874092PLUSH BEAR SLEEPING LOV0000001000+00011402+00000+0001T   00012279+0006471740          1400 NS8745               1AZ
201392005201392080-000124     201392006003000297733CARD & ENV VALENTINES  0000001000+00001578+00000+0001T   00001578+0000001740          1400 NS8112               1AZ
201392006201392112-116069     201392006009681820277TCS CARRIER BAG JUMBO  0000001000+00000048+00000+0001T   00000048+0000001740          1400 NS8090               1AZ
201393000201393               201393               170213A6     1400+00000+A60000007016+0000007016+000000000+000000983+0000007999+0000000000+I40000007999+0000000000+Z
201393001201393368-000021     201393006003000672141PLUSH DINOSAUR 27cm    0000001000+00007016+00000+0001T   00007016+0000001746          1400 NS8745               1AZ
201394000201394               201394               170213A6     1400+00000+A60000004383+0000004383+000000000+000000615+0000004998+0000000000+I40000004998+0000000000+Z
201394001201394369-001138-C   201394006003000587520BABY BATH VINYL G/MAN  0000001000+00002630+00000+0001T   00002630+0000001748          1400 NS8745               1AZ
201394002201394077-000351     201394006003000139033GIFT-BAG 18X23CM E/D P 0000001000+00001753+00000+0001T   00001753+0000001748          1400 NS8112               1AZ
201395000201395               201395               170213A6     1400+00000+A60000002359-0000002359-000000000+000000331-0000002690-0000000000+I20000000000+0000002690-Z
201395001201395001-999907     201395000000000999907CLEANING-MATERIALS     0000001000-00002359+00000+0001T   00000000+0000001749          1400 NS89071IC            1 Z
201396000201396               201396               170213A6     1400+00000+A60000008803+0000008803+000000000+000001233+0000010036+0000000000+I40000010036+0000000000+Z
201396001201396016-006517     201396006003000351626S/JAR GLS CHECK 650ML  0000003000+00002192+00000+0001T   00002192+0000001800          1400 NS8300               1AZ
201396002201396566-000068     201396006003000418046POP UP LOVE 2 ASSTD    0000001000+00002192+00000+0001T   00002192+0000001800          1400 NS8130               1AZ
201396003201396112-116038     201396006009681820246TCS CARRIER BAG MIDI   0000001000+00000035+00000+0001T   00000035+0000001800          1400 NS8090               1AZ
201397000201397               201397               170213A6     1400+00000+A60000005520+0000005520+000000000+000000773+0000006293+0000000000+I40000006293+0000000000+Z
201397001201397903-000194     201397006009826020616SWT CHOC RP LOLLY 25G  0000003000+00001314+00000+0001T   00001314+0000001803          1400 NS8150               1AZ
201397002201397080-000124     201397006003000297733CARD & ENV VALENTINES  0000001000+00001578+00000+0001T   00001578+0000001803          1400 NS8112               1AZ
M17021391                              CASH        A6SLAVE 1                       Z-REPORT No.   355TOTAL (Sales - Refunds)           3750.18       CASH TO BE BANKED                 1367.90       DEBIT CARDS                          0.00       CREDIT CARDS                      2339.48       Z-READING                         3707.38       AIRTIME DEBIT CARD SALES             0.00       AIRTIME CARD SALES                   0.00       OVERS/UNDERS                         0.00       AIRTIME CASH SALES                   0.00       GIFT CARDS                           0.00       GIFT CARD CASH SALES                 0.00       STAFF-REFRESHMENTS                  15.90       CLEANING-MATERIALS                  26.90       T O T A L  CASH PAYOUTS             42.80                                                                                                                                                                                                                                                      Z
M17021392                              CASH        A6ABSENT                                                                                                                                                                                          ANNUAL LEAVE                                                                                                                                                                                    DAY OFF                                                                                                                                                                                         COMMENTS                                                                                                                                                                                                                                                                                                                                                                                       Z
Y17021300                                          A600000000330388+000048
ZA617021319173 SLAVE 1      SALES DATA                     NEXT INVOICE NO.  201398 0355
X A6 Slave 1 First invoice 201348 170213 Last invoice 201397 170213 Next invoice 201398 Total number of records 000000175 clbackup completed 19:17:13
