307594000307594               307594               170213A6     1400+00000+A60000015426+0000015426+000000000+000002164+0000017590+0000000000+I40000017590+0000000000+Z
307594001307594036-000063     307594006009654960436COATHANGERS VIRGIN 5PCE0000003000+00001753+00000+0001T   00001753+0000001204          1400 MA8212               2AZ
307594002307594105-001024-A   307594006009654960986CONTAINERS CLEAR 3PCE  0000001000+00001928+00000+0001T   00001928+0000001204          1400 MA8210               2AZ
307594003307594468-040010     307594006003000085187STICKER HANDMADE ASSTD 0000002000+00001753+00000+0001T   00001753+0000001204          1400 MA8110               2AZ
307594004307594566-000065     307594006003000217915STICKERS GLITTER ASSTD 0000001000+00001753+00000+0001T   00001753+0000001204          1400 MA8130               2AZ
307594005307594007-000555     307594006001023848239MEMO-PAD MINI LOVE     0000001000+00000613+00000+0001T   00000613+0000001204          1400 MA8130               2AZ
307594006307594150-000775     307594006001023129253UTILITY-BOX LARGE      0000001000+00002367+00000+0001T   00002367+0000001204          1400 MA8810               2AZ
307595000307595               307595               170213A6     1400+00000+A60000001578+0000001578+000000000+000000221+0000001790+0000000009+I20000000000+0000001790+Z
307595001307595018-000127     307595006001023380289MUG OCC STRAIGHT LOVE  0000001000+00001578+00000+0001T   00001753+0006471212          1400 MA8515               2AZ
307596000307596               307596               170213A6     1400+00000+A60000000035+0000000035+000000000+000000005+0000000040+0000000000+I20000000000+0000000040+Z
307596001307596112-116038     307596006009681820246TCS CARRIER BAG MIDI   0000001000+00000035+00000+0001T   00000035+0000001213          1400 MA8090               2AZ
307597000307597               307597               170213A6     1400+00000+A60000003681+0000003681+000000000+000000516+0000004197+0000000000+I40000004197+0000000000+Z
307597001307597903-000517     307597006001704012768SWT STRAWS FIZZY CHERRY0000001000+00001227+00000+0001T   00001227+0000001223          1400 MA8150               2AZ
307597002307597903-000518     307597006001704012782SWT STRAWS S/BERRY 100g0000001000+00001227+00000+0001T   00001227+0000001223          1400 MA8150               2AZ
307597003307597903-000510     307597006001704012621SWEET MS ZBDZ S/BERRY  0000001000+00001227+00000+0001T   00001227+0000001223          1400 MA8150               2AZ
307598000307598               307598               170213A6     1400+00000+A60000011398+0000011398+000000000+000001598+0000012996+0000000000+I40000012996+0000000000+Z
307598001307598105-001180     307598006003000666522CONTAINER SET LITE 3PC 0000001000+00003069+00000+0001T   00003069+0000001225          1400 MA8210               2AZ
307598002307598105-001150     307598006003000666287CONTAINER SET LITE 3PC 0000002000+00002630+00000+0001T   00002630+0000001225          1400 MA8210               2AZ
307598003307598105-001180     307598006003000666522CONTAINER SET LITE 3PC 0000001000+00003069+00000+0001T   00003069+0000001225          1400 MA8210               2AZ
307599000307599               307599               170213A6     1400+00000+A60000002630+0000002630+000000000+000000369+0000002990+0000000009+I20000000000+0000002990+Z
307599001307599056-065302     307599006001023759566CAR SUN-SHIELD ALM-FOIL0000001000+00002630+00000+0001T   00002630+0000001241          1400 MA8860               2AZ
307600000307600               307600               170213A6     1400+00000+A60000009253+0000009253+000000000+000001296+0000010540+0000000009+I20000000000+0000010540+Z
307600001307600903-000194     307600006009826020616SWT CHOC RP LOLLY 25G  0000002000+00001314+00000+0001T   00001314+0000001245          1400 MA8150               2AZ
307600002307600030-000031-A   307600006003000457588PLAQUE W/WORDS ASSTD   0000001000+00004385+00000+0001T   00004823+0006471245          1400 MA8505               2AZ
307600003307600080-000127     307600006003000424351VALENTINES DAY 36x24CM 0000001000+00002192+00000+0001T   00002192+0000001245          1400 MA8112               2AZ
307600004307600112-116069     307600006009681820277TCS CARRIER BAG JUMBO  0000001000+00000048+00000+0001T   00000048+0000001245          1400 MA8090               2AZ
307601000307601               307601               170213A6     1400+00000+A60000003507+0000003507+000000000+000000491+0000003990+0000000008+I20000000000+0000003990+Z
307601001307601004-071204     307601006003000624904USB IN-CAR CHARGER 2.1A0000001000+00003507+00000+0001T   00003507+0000001245          1400 MA8310               2AZ
307602000307602               307602               170213A6     1400+00000+A60000008377+0000008377+000000000+000001175+0000009552+0000000000+I40000009552+0000000000+Z
307602001307602486-000010     307602006001023544254WALL-CLOCK ROUND 25cm  0000001000+00006139+00000+0001T   00006139+0000001248          1400 MA8510               2AZ
307602002307602046-000011     307602004897006172994BATTERIES SIZE:AA  2PCE0000001000+00001402+00000+0001T   00001402+0000001248          1400 MA8312               2AZ
307602003307602033-005991     307602006001023678546NEEDLES H/HOLD-REPAIR  0000001000+00000788+00000+0001T   00000788+0000001248          1400 MA8200               2AZ
307602004307602112-116069     307602006009681820277TCS CARRIER BAG JUMBO  0000001000+00000048+00000+0001T   00000048+0000001248          1400 MA8090               2AZ
307603000307603               307603               170213A6     1400+00000+A60000003243+0000003243+000000000+000000455+0000003698+0000000000+I40000003698+0000000000+Z
307603001307603071-001346     307603006001023912985HIGHLIGHTERS 4PCE CARD 0000001000+00002192+00000+0001T   00002192+0000001353          1400 MA8130               2AZ
307603002307603903-002852     307603000000087108040MENTOS ROLL SPEARMINT  0000001000+00001051+00000+0001T   00001051+0000001353          1400 MA8150               2AZ
307604000307604               307604               170213A6     1400+00000+A60000015825+0000015825+000000000+000002221+0000018040+0000000006+I20000000000+0000018040+Z
307604001307604051-002402     307604006001023518347TRIGGER-SPRAYER  500ml 0000009000+00001753+00000+0001T   00001753+0000001418          1400 MA8820               2AZ
307604002307604112-116069     307604006009681820277TCS CARRIER BAG JUMBO  0000001000+00000048+00000+0001T   00000048+0000001418          1400 MA8090               2AZ
307605000307605               307605               170213A6     1400+00000+A60000003857+0000003857+000000000+000000541+0000004398+0000000000+I40000004398+0000000000+Z
307605001307605077-000245     307605006001023759214GIFT-RIBBON METALLICx2 0000001000+00001227+00000+0001T   00001227+0000001420          1400 MA8112               2AZ
307605002307605567-011914     307605009780799375497BK VOORSPRONG WISKUNDE 0000001000+00002630+00000+0001T   00002630+0000001420          1400 MA8757               2AZ
307606000307606               307606               170213A6     1400+00000+A60000001314+0000001314+000000000+000000184+0000001490+0000000008+I20000000000+0000001490+Z
307606001307606903-000194     307606006009826020616SWT CHOC RP LOLLY 25G  0000001000+00001314+00000+0001T   00001314+0000001434          1400 MA8150               2AZ
307607000307607               307607               170213A6     1400+00000+A60000003067+0000003067+000000000+000000430+0000003490+0000000007+I20000000000+0000003490+Z
307607001307607077-000310     307607006001023608635GIFT-BAG 18X23CM GLOSS 0000001000+00001314+00000+0001T   00001314+0000001443          1400 MA8112               2AZ
307607002307607078-000480     307607006008741002332BOSTIK SHOE-REPAIR 25ml0000001000+00001753+00000+0001T   00001753+0000001443          1400 MA8810               2AZ
307608000307608               307608               170213A6     1400+00000+A60000002192+0000002192+000000000+000000307+0000002490+0000000009+I20000000000+0000002490+Z
307608001307608566-000359     307608006003000582709STICKER BOOK LOVE SPARK0000001000+00002192+00000+0001T   00002192+0000001501          1400 MA8130               2AZ
307609000307609               307609               170213A6     1400+00000+A60000003069+0000003069+000000000+000000430+0000003490+0000000009+I20000000000+0000003490+Z
307609001307609079-013098     307609006003000197040ART+CRAFT SET DIY      0000001000+00003069+00000+0001T   00003069+0000001513          1400 MA8130               2AZ
307610000307610               307610               170213A6     1400+00000+A60000004384+0000004384+000000000+000000614+0000004990+0000000008+I20000000000+0000004990+Z
307610001307610080-000127     307610006003000424351VALENTINES DAY 36x24CM 0000002000+00002192+00000+0001T   00002192+0000001516          1400 MA8112               2AZ
307611000307611               307611               170213A6     1400+00000+A60000013198+0000013198+000000000+000001850+0000015048+0000000000+I40000015048+0000000000+Z
307611001307611079-013032-G   307611006003000496389FOAM BUTTERFLIES       0000001000+00002192+00000+0001T   00002192+0000001600          1400 MA8130               2AZ
307611002307611079-013032     307611006003000389209SET LETTERS 2 ASSTD    0000001000+00001753+00000+0001T   00001753+0000001600          1400 MA8130               2AZ
307611003307611079-006498     307611006001023836151GLITTER SET 10PCE      0000001000+00003507+00000+0001T   00003507+0000001600          1400 MA8130               2AZ
307611004307611079-000341     307611006920705495519FELT-TIP PENS 12PCE    0000001000+00001753+00000+0001T   00001753+0000001600          1400 MA8130               2AZ
307611005307611566-000028     307611006003000265541STICKER BK ASSTD 250PCE0000001000+00001753+00000+0001T   00001753+0000001600          1400 MA8130               2AZ
307611006307611566-000359     307611006003000582709STICKER BOOK LOVE SPARK0000001000+00002192+00000+0001T   00002192+0000001600          1400 MA8130               2AZ
307611007307611112-116069     307611006009681820277TCS CARRIER BAG JUMBO  0000001000+00000048+00000+0001T   00000048+0000001600          1400 MA8090               2AZ
307612000307612               307612               170213A6     1400+00000+A60000000437+0000000437+000000000+000000062+0000000490+0000000009+I20000000000+0000000490+Z
307612001307612080-000133-A   307612006003000647019MINI VALENTINES CARD   0000001000+00000437+00000+0001T   00000437+0000001604          1400 MA8112               2AZ
307613000307613               307613               170213A6     1400+00000+A60000002192+0000002192+000000000+000000307+0000002499+0000000000+I40000002499+0000000000+Z
307613001307613080-000127     307613006003000424351VALENTINES DAY 36x24CM 0000001000+00002192+00000+0001T   00002192+0000001606          1400 MA8112               2AZ
307614000307614               307614               170213A6     1400+00000+A60000001400+0000001400+000000000+000000196+0000001596+0000000000+I40000001596+0000000000+Z
307614001307614018-000177     307614006001023797513MUG MINI LOVE ASSTD    0000002000+00000700+00000+0001T   00000700+0000001611          1400 MA8515               2AZ
307615000307615               307615               170213A6     1400+00000+A60000001839+0000001839+000000000+000000258+0000002097+0000000000+I40000002097+0000000000+Z
307615001307615903-000087     307615006001704000161SWT SPECKLED-EGGS 50G  0000001000+00001139+00000+0001T   00001139+0000001612          1400 MA8150               2AZ
307615002307615018-000177     307615006001023797513MUG MINI LOVE ASSTD    0000001000+00000700+00000+0001T   00000700+0000001612          1400 MA8515               2AZ
307616000307616               307616               170213A6     1400+00000+A60000008415+0000008415+000000000+000001179+0000009594+0000000000+I40000009594+0000000000+Z
307616001307616362-004001     307616000613153010385PRINCESS ASSTD TRINKETS0000001000+00000700+00000+0001T   00000876+0008181614          1400 MA8160               2AZ
307616002307616362-004000     307616000613153000225DISNEY T/BELL TRINKETS 0000001000+00000700+00000+0001T   00000876+0008181614          1400 MA8160               2AZ
307616003307616264-000915     307616000090159151074MAISTO FRESH PAINT     0000001000+00004385+00000+0001T   00004385+0000001614          1400 MA8710               2AZ
307616004307616362-001052     307616006001023915078NAIL TEEN ART SET 5PCE 0000001000+00002630+00000+0001T   00002630+0000001614          1400 MA8160               2AZ
307617000307617               307617               170213A6     1400+00000+A60000004384+0000004384+000000000+000000614+0000004998+0000000000+I40000004998+0000000000+Z
307617001307617566-000359     307617006003000582709STICKER BOOK LOVE SPARK0000002000+00002192+00000+0001T   00002192+0000001617          1400 MA8130               2AZ
307618000307618               307618               170213A6     1400+00000+A60000008408+0000008408+000000000+000001178+0000009580+0000000006+I20000000000+0000009580+Z
307618001307618071-000012     307618006001177101006CHALK COLOUR 12PCE     0000001000+00000481+00000+0001T   00000481+0000001639          1400 MA8130               2AZ
307618002307618006-000190     307618006003000685530BALLOONS LOVE 81x91cm  0000001000+00004385+00000+0001T   00004385+0000001639          1400 MA8131               2AZ
307618003307618567-011422     307618006003000641222BK COLOURING THERAPY   0000001000+00003507+00000+0001T   00003507+0000001639          1400 MA8757               2AZ
307618004307618112-116038     307618006009681820246TCS CARRIER BAG MIDI   0000001000+00000035+00000+0001T   00000035+0000001639          1400 MA8090               2AZ
307619000307619               307619               170213A6     1400+00000+A60000003945+0000003945+000000000+000000553+0000004490+0000000008+I20000000000+0000004490+Z
307619001307619159-000887     307619006001023730817HOOKS PL SUCTION 9PCE  0000001000+00002192+00000+0001T   00002192+0000001640          1400 MA8200               2AZ
307619002307619301-085002     307619006003000420704ORN OCC. LOVE BELL ASST0000001000+00001753+00000+0001T   00002630+0008121640          1400 MA8505               2AZ
307620000307620               307620               170213A6     1400+00000+A60000012327+0000012327+000000000+000001727+0000014050+0000000004+I20000000000+0000014050+Z
307620001307620368-000113     307620006001023780874PLUSH BLINGED LOVE 30cm0000001000+00012279+00000+0001T   00012279+0000001641          1400 MA8745               2AZ
307620002307620112-116069     307620006009681820277TCS CARRIER BAG JUMBO  0000001000+00000048+00000+0001T   00000048+0000001641          1400 MA8090               2AZ
307621000307621               307621               170213A6     1400+00000+A60000000437+0000000437+000000000+000000062+0000000490+0000000009+I20000000000+0000000490+Z
307621001307621080-000133-A   307621006003000647019MINI VALENTINES CARD   0000001000+00000437+00000+0001T   00000437+0000001642          1400 MA8112               2AZ
307622000307622               307622               170213A6     1400+00000+A60000006172+0000006172+000000000+000000865+0000007037+0000000000+I40000007037+0000000000+Z
307622001307622019-071596     307622006001023733078PEBBLES GLS 250g ASSTD.0000001000+00001753+00000+0001T   00001753+0000001709          1400 MA8510               2AZ
307622002307622019-071597     307622006008766071597PEBBLES 250g CLEAR  BAG0000002000+00002192+00000+0001T   00002192+0000001709          1400 MA8510               2AZ
307622003307622112-116038     307622006009681820246TCS CARRIER BAG MIDI   0000001000+00000035+00000+0001T   00000035+0000001709          1400 MA8090               2AZ
307623000307623               307623               170213A6     1400+00000+A60000003067+0000003067+000000000+000000431+0000003498+0000000000+I40000003498+0000000000+Z
307623001307623162-093351     307623006001492933511#TAG PASTEL COTTON ER  0000001000+00002630+00000+0001T   00004385+0008161711          1400 MA8160               2AZ
307623002307623080-000133-A   307623006003000647019MINI VALENTINES CARD   0000001000+00000437+00000+0001T   00000437+0000001711          1400 MA8112               2AZ
307624000307624               307624               170213A6     1400+00000+A60000017542+0000017542+000000000+000002456+0000019998+0000000000+I40000019998+0000000000+Z
307624001307624264-015055     307624000090159150558ALL-STARS ELITE TRNS   0000001000+00017542+00000+0001T   00017542+0000001712          1400 MA8710               2AZ
307625000307625               307625               170213A6     1400+00000+A60000000964+0000000964+000000000+000000135+0000001090+0000000009+I20000000000+0000001090+Z
307625001307625007-000204     307625006009635835272EXAM-PAD 60SHT PUNCHED 0000001000+00000964+00000+0001T   00000964+0000001715          1400 MA8130               2AZ
307626000307626               307626               170213A6     1400+00000+A60000001927+0000001927+000000000+000000270+0000002190+0000000007+I20000000000+0000002190+Z
307626001307626077-000470     307626006003000330171G-BAG DESGN SML 11X14CM0000001000+00001314+00000+0001T   00001314+0000001717          1400 MA8112               2AZ
307626002307626077-000321     307626006001023677501GIFT-BAG 11X14CM E/D FL0000001000+00000613+00000+0001T   00000613+0000001717          1400 MA8112               2AZ
307627000307627               307627               170213A6     1400+00000+A60000039949+0000039949+000000000+000005596+0000045545+0000000000+I40000045545+0000000000+Z
307627001307627018-030000     307627006003000421060MUG OCCASIONS LOVE 2PCE0000002000+00004385+00000+0001T   00004385+0000001733          1400 MA8515               2AZ
307627002307627018-019000     307627006003000557288MUG OCC. LOVE JUMBO    0000001000+00005262+00000+0001T   00005262+0000001733          1400 MA8515               2AZ
307627003307627301-085001     307627006003000297610ORN WATERBALL LOVE ASST0000001000+00004823+00000+0001T   00004823+0000001733          1400 MA8505               2AZ
307627004307627463-000119     307627006003000308002SWIM CAP & GOGGLE SET  0000003000+00004385+00000+0001T   00004385+0000001733          1400 MA8785               2AZ
307627005307627264-000922     307627000090159250012MAISTO CAR PULL-BACK   0000001000+00006139+00000+0001T   00007016+0008191733          1400 MA8710               2AZ
307627006307627112-116069     307627006009681820277TCS CARRIER BAG JUMBO  0000001000+00000048+00000+0001T   00000048+0000001733          1400 MA8090               2AZ
307627007307627903-000220     307627006001704007368SWT JELLY BEANS 60G    0000002000+00000876+00000+0001T   00000876+0000001733          1400 MA8150               2AZ
307628000307628               307628               170213A6     1400+00000+A60000002630+0000002630+000000000+000000369+0000002990+0000000009+I20000000000+0000002990+Z
307628001307628018-000129     307628006001023403353MUG OCC. LOVE V-SHAPE  0000001000+00002630+00000+0001T   00002630+0000001733          1400 MA8515               2AZ
M17021391                              CASH        A6SLAVE 2                       Z-REPORT No.   355TOTAL (Sales - Refunds)           2530.51       CASH TO BE BANKED                  887.10       DEBIT CARDS                          0.00       CREDIT CARDS                      1643.41       Z-READING                         2530.51       AIRTIME DEBIT CARD SALES             0.00       AIRTIME CARD SALES                   0.00       OVERS/UNDERS                         0.00       AIRTIME CASH SALES                   0.00       GIFT CARDS                           0.00       GIFT CARD CASH SALES                 0.00       T O T A L  CASH PAYOUTS              0.00                                                                                                                                                                                                                                                                                                                                                      Z
M17021392                              CASH        A6ABSENT                                                                                                                                                                                          ANNUAL LEAVE                                                                                                                                                                                    DAY OFF                                                                                                                                                                                         COMMENTS                                                                                                                                                                                                                                                                                                                                                                                       Z
Y17021300                                          A600000000222069+000035
ZA617021408223 SLAVE 2      SALES DATA                     NEXT INVOICE NO.  307629 0355
X A6 Slave 2 First invoice 307594 170213 Last invoice 307628 170213 Next invoice 307629 Total number of records 000000118 clbackup completed 08:22:47
