151326000151326               151326               170213A7     1400+00000+A70000005735+0000005735+000000000+000000803+0000006530+0000000008+I20000000000+0000006530+Z
151326001151326031-000922     151326006003000095100P/FRAME BIRDCAGE 9X12CM0000001000+00005700+00000+0001T   00005700+0000000952          1400 JY8510               1AZ
151326002151326112-116038     151326006009681820246TCS CARRIER BAG MIDI   0000001000+00000035+00000+0001T   00000035+0000000952          1400 JY8090               1AZ
151327000151327               151327               170213A7     1400+00000+A70000008539+0000008539+000000000+000001196+0000009735+0000000000+I40000009735+0000000000+Z
151327001151327006-000805     151327000013994092418STREAMERS 10-ROLLS     0000001000+00001490+00000+0001T   00001490+0000001113          1400 JY8131               1AZ
151327002151327031-000923     151327006001023669933P/FRAME BLK W/WORDS    0000002000+00003507+00000+0001T   00003507+0000001113          1400 JY8510               1AZ
151327003151327112-116038     151327006009681820246TCS CARRIER BAG MIDI   0000001000+00000035+00000+0001T   00000035+0000001113          1400 JY8090               1AZ
151328000151328               151328               170213A7     1400+00000+A70000002454+0000002454+000000000+000000344+0000002790+0000000008+I20000000000+0000002790+Z
151328001151328903-000111     151328006001704006378SWT LIQUORICE-TWISTS   0000002000+00001227+00000+0001T   00001227+0000001113          1400 JY8150               1AZ
151329000151329               151329               170213A7     1400+00000+A70000001753+0000001753+000000000+000000246+0000001990+0000000009+I20000000000+0000001990+Z
151329001151329078-000026     151329006936198407090SUPERGLUE 3,0g GEL     0000001000+00001753+00000+0001T   00001753+0000001114          1400 JY8810               1AZ
151330000151330               151330               170213A7     1400+00000+A70000001753+0000001753+000000000+000000246+0000001990+0000000009+I20000000000+0000001990+Z
151330001151330080-000106     151330006003000237098CARD&ENVLPE BDAY GIRL  0000001000+00001753+00000+0001T   00001753+0000001115          1400 JY8112               1AZ
151331000151331               151331               170213A7     1400+00000+A70000002630+0000002630+000000000+000000369+0000002990+0000000009+I20000000000+0000002990+Z
151331001151331560-000202     151331006003000322008SNAKE PVC ASSTD        0000001000+00002630+00000+0001T   00002630+0000001134          1400 JY8745               1AZ
151332000151332               151332               170213A7     1400+00000+A70000015383+0000015383+000000000+000002154+0000017537+0000000000+I40000017537+0000000000+Z
151332001151332047-002042-H   151332006003000625291P/ADPT 1x16A 2x5A 2xUSB0000001000+00011841+00000+0001T   00011841+0000001157          1400 JY8880               1AZ
151332002151332047-000014-A   151332006001023904072ADAPTOR 16AX5ARNDX5A2PN0000001000+00003507+00000+0001T   00003507+0000001157          1400 JY8880               1AZ
151332003151332112-116038     151332006009681820246TCS CARRIER BAG MIDI   0000001000+00000035+00000+0001T   00000035+0000001157          1400 JY8090               1AZ
151333000151333               151333               170213A7     1400+00000+A70000005901+0000005901+000000000+000000829+0000006730+0000000000+I40000006730+0000000000+Z
151333001151333007-000555     151333006001023848239MEMO-PAD MINI LOVE     0000002000+00000613+00000+0001T   00000613+0000001200          1400 JY8130               1AZ
151333002151333304-001011     151333006001023806727FLWR ROSE RED W/BEAR   0000002000+00000613+00000+0001T   00000788+0006471200          1400 JY8510               1AZ
151333003151333077-000310     151333006001023608635GIFT-BAG 18X23CM GLOSS 0000002000+00001314+00000+0001T   00001314+0000001200          1400 JY8112               1AZ
151333004151333903-000183     151333006003000451043SWT LB HEART LOLLY     0000002000+00000393+00000+0001T   00000393+0000001200          1400 JY8150               1AZ
151333005151333112-116038     151333006009681820246TCS CARRIER BAG MIDI   0000001000+00000035+00000+0001T   00000035+0000001200          1400 JY8090               1AZ
151334000151334               151334               170213A7     1400+00000+A70000000788+0000000788+000000000+000000111+0000000890+0000000009+I20000000000+0000000890+Z
151334001151334903-000138     151334006002099004314SWT GS WINE GUMS 60G   0000001000+00000788+00000+0001T   00000788+0000001200          1400 JY8150               1AZ
151335000151335               151335               170213A7     1400+00000+A70000000613+0000000613+000000000+000000086+0000000690+0000000009+I20000000000+0000000690+Z
151335001151335304-001011     151335006001023806727FLWR ROSE RED W/BEAR   0000001000+00000613+00000+0001T   00000788+0006471208          1400 JY8510               1AZ
151336000151336               151336               170213A7     1400+00000+A70000005256+0000005256+000000000+000000736+0000005990+0000000002+I20000000000+0000005990+Z
151336001151336107-004105     151336006009703860984BUCKET 9L OPEN         0000004000+00001314+00000+0001T   00001314+0000001208          1400 JY8210               1AZ
151337000151337               151337               170213A7     1400+00000+A70000003506+0000003506+000000000+000000492+0000003990+0000000008+I20000000000+0000003990+Z
151337001151337200-003024     151337006001023657299REFUSE BAGS 20PCE BLACK0000002000+00001753+00000+0001T   00001753+0000001221          1400 JY8214               1AZ
151338000151338               151338               170213A7     1400+00000+A70000004418+0000004418+000000000+000000620+0000005038+0000000000+I40000005038+0000000000+Z
151338001151338036-000615     151338006003000218769WASH-PEGS PL PCK-24    0000001000+00001753+00000+0001T   00001753+0000001241          1400 JY8212               1AZ
151338002151338072-020300     151338006008638000434DOG-TOY TUG-A-BALL SML 0000001000+00002630+00000+0001T   00002630+0000001241          1400 JY8870               1AZ
151338003151338112-116038     151338006009681820246TCS CARRIER BAG MIDI   0000001000+00000035+00000+0001T   00000035+0000001241          1400 JY8090               1AZ
151339000151339               151339               170213A7     1400+00000+A70000000876+0000000876+000000000+000000123+0000000990+0000000009+I20000000000+0000000990+Z
151339001151339903-000861     151339005010478430822SWT LOVE HEARTS SML    0000001000+00000876+00000+0001T   00000876+0000001253          1400 JY8150               1AZ
151340000151340               151340               170213A7     1400+00000+A70000009694+0000009694+000000000+000001359+0000011050+0000000003+I20000000000+0000011050+Z
151340001151340366-000105     151340006001023866103DRESSUP WINGS AND SKIRT0000001000+00007016+00000+0001T   00007016+0000001255          1400 JY8131               1AZ
151340002151340266-003012     151340006001023786128BOYS P/SET ARCHERY 4pc 0000001000+00002630+00000+0001T   00002630+0000001255          1400 JY8710               1AZ
151340003151340112-116069     151340006009681820277TCS CARRIER BAG JUMBO  0000001000+00000048+00000+0001T   00000048+0000001255          1400 JY8090               1AZ
151341000151341               151341               170213A7     1400+00000+A70000001314+0000001314+000000000+000000184+0000001498+0000000000+I40000001498+0000000000+Z
151341001151341077-000310     151341006001023608635GIFT-BAG 18X23CM GLOSS 0000001000+00001314+00000+0001T   00001314+0000001257          1400 JY8112               1AZ
151342000151342               151342               170213A7     1400+00000+A70000007712+0000007712+000000000+000001082+0000008794+0000000000+I40000008794+0000000000+Z
151342001151342562-000216     151342006003000113880EDU PUSH-IN WDN BOARD  0000002000+00001753+00000+0001T   00001753+0000001300          1400 JY8755               1AZ
151342002151342566-001228     151342006003000284153STICKERS CRYSTAL ASSTD 0000001000+00001753+00000+0001T   00001753+0000001300          1400 JY8130               1AZ
151342003151342566-002000     151342000721129013206STICKERS CRYSTAL ASSTD 0000001000+00000700+00000+0001T   00000700+0000001300          1400 JY8130               1AZ
151342004151342566-000065     151342006003000217915STICKERS GLITTER ASSTD 0000001000+00001753+00000+0001T   00001753+0000001300          1400 JY8130               1AZ
151343000151343               151343               170213A7     1400+00000+A70000002453+0000002453+000000000+000000344+0000002790+0000000007+I20000000000+0000002790+Z
151343001151343079-006522     151343006001023149442ART+CRAFT GLUE ASSORTED0000001000+00001753+00000+0001T   00001753+0000001300          1400 JY8130               1AZ
151343002151343564-000012     151343006001023130075BUBBLE BOTTLE MAGIC    0000001000+00000700+00000+0001T   00000700+0000001300          1400 JY8131               1AZ
151344000151344               151344               170213A7     1400+00000+A70000001752+0000001752+000000000+000000246+0000001990+0000000008+I20000000000+0000001990+Z
151344001151344039-000319-9   151344006003000443345B/CANDLES LRG NUMBER-9 0000001000+00000876+00000+0001T   00000876+0000001410          1400 JY8510               1AZ
151344002151344039-000319-2   151344006003000442508B/CANDLES LRG NUMBER-2 0000001000+00000876+00000+0001T   00000876+0000001410          1400 JY8510               1AZ
151345000151345               151345               170213A7     1400+00000+A70000005515+0000005515+000000000+000000778+0000006293+0000000000+I40000006293+0000000000+Z
151345001151345200-003024     151345006001023657299REFUSE BAGS 20PCE BLACK0000001000+00001753+00000+0001T   00001753+0000001414          1400 JY8214               1AZ
151345002151345200-003026     151345006003000276448REFUSE BAGS 10PCE GREEN0000001000+00001753+00000+0001T   00001753+0000001414          1400 JY8214               1AZ
151345003151345903-000183     151345006003000451043SWT LB HEART LOLLY     0000004000+00000393+00000+0001T   00000393+0000001414          1400 JY8150               1AZ
151345004151345080-000133-A   151345006003000647019MINI VALENTINES CARD   0000001000+00000437+00000+0001T   00000437+0000001414          1400 JY8112               1AZ
151346000151346               151346               170213A7     1400+00000+A70000003053+0000003053+000000000+000000431+0000003480+0000000004+I20000000000+0000003480+Z
151346001151346304-001011     151346006001023806727FLWR ROSE RED W/BEAR   0000003000+00000613+00000+0001T   00000788+0006471418          1400 JY8510               1AZ
151346002151346903-000183     151346006003000451043SWT LB HEART LOLLY     0000003000+00000393+00000+0001T   00000393+0000001418          1400 JY8150               1AZ
151346003151346112-116038     151346006009681820246TCS CARRIER BAG MIDI   0000001000+00000035+00000+0001T   00000035+0000001418          1400 JY8090               1AZ
151347000151347               151347               170213A7     1400+00000+A70000005262+0000005262+000000000+000000737+0000005999+0000000000+I40000005999+0000000000+Z
151347001151347175-000803     151347000772078200421HOTWATER BOTTLE RUBBER 0000001000+00005262+00000+0001T   00005262+0000001420          1400 JY8520               1AZ
151348000151348               151348               170213A7     1400+00000+A70000004385+0000004385+000000000+000000614+0000004999+0000000000+I40000004999+0000000000+Z
151348001151348050-000887-Z   151348006001023821966PADLOCK COMB 10-DIGIT  0000001000+00004385+00000+0001T   00004385+0000001426          1400 JY8855               1AZ
151349000151349               151349               170213A7     1400+00000+A70000001928+0000001928+000000000+000000270+0000002190+0000000008+I20000000000+0000002190+Z
151349001151349159-000649     151349006001023803931BATH-SPONGE RND        0000001000+00001928+00000+0001T   00001928+0000001432          1400 JY8200               1AZ
151350000151350               151350               170213A7     1400+00000+A70000001753+0000001753+000000000+000000246+0000001990+0000000009+I20000000000+0000001990+Z
151350001151350077-000382     151350006003000247820GIFT-BAG MED 18X23CM   0000001000+00001753+00000+0001T   00001753+0000001439          1400 JY8112               1AZ
151351000151351               151351               170213A7     1400+00000+A70000022357+0000022357+000000000+000003132+0000025480+0000000009+I20000000000+0000025480+Z
151351001151351567-011306     151351006003000598434BOOK ACTIVITY TRACE    0000001000+00003069+00000+0001T   00003069+0000001449          1400 JY8757               1AZ
151351002151351567-011348     151351009780709717638BK STICKER ANIMAL WORLD0000001000+00003507+00000+0001T   00003507+0000001449          1400 JY8757               1AZ
151351003151351206-000400     151351006003000619269MEAT CLAWS 2PC         0000001000+00003507+00000+0001T   00004385+0008171449          1400 JY8321               1AZ
151351004151351567-011312     151351006003000593842BOOK READER PLAKKERPRET0000002000+00003507+00000+0001T   00004385+0008141449          1400 JY8757               1AZ
151351005151351567-011388     151351009781405374156BK RELIGIOUS STICKER   0000002000+00002630+00000+0001T   00003507+0008141449          1400 JY8757               1AZ
151352000151352               151352               170213A7     1400+00000+A70000004821+0000004821+000000000+000000676+0000005490+0000000007+I20000000000+0000005490+Z
151352001151352565-004101     151352006003000548033BALL BOUNCING EGG      0000001000+00001490+00000+0001T   00001490+0000001459          1400 JY8745               1AZ
151352002151352077-000309     151352006001023608604GIFT-BAG 25X32CM GLOSS 0000001000+00001753+00000+0001T   00001753+0000001459          1400 JY8112               1AZ
151352003151352077-000315     151352006003000181186GIFT-BAG 20x28cm MATT  0000001000+00001578+00000+0001T   00001578+0000001459          1400 JY8112               1AZ
151353000151353               151353               170213A7     1400+00000+A70000002980+0000002980+000000000+000000418+0000003390+0000000008+I20000000000+0000003390+Z
151353001151353007-000551     151353006001023848079NOTE-PAD SHOP-LIST ASST0000001000+00001753+00000+0001T   00001753+0000001500          1400 JY8130               1AZ
151353002151353903-000498     151353006001704013048SWT CHOC MIGHTY MALTS  0000001000+00001227+00000+0001T   00001227+0000001500          1400 JY8150               1AZ
151354000151354               151354               170213A7     1400+00000+A70000002630+0000002630+000000000+000000369+0000002990+0000000009+I20000000000+0000002990+Z
151354001151354079-000123     151354006003000589746ART+CRAFT ENGRAVING ART0000001000+00002630+00000+0001T   00002630+0000001507          1400 JY8130               1AZ
151355000151355               151355               170213A7     1400+00000+A70000007627+0000007627+000000000+000001069+0000008690+0000000006+I20000000000+0000008690+Z
151355001151355162-087900     151355006001492879000SS GLAMOUR NK & ER SET 0000001000+00004385+00000+0001T   00004385+0000001508          1400 JY8160               1AZ
151355002151355077-000300     151355006001023483249GIFT BOX OCCASIONS HEXG0000001000+00002192+00000+0001T   00002192+0000001508          1400 JY8112               1AZ
151355003151355304-001011     151355006001023806727FLWR ROSE RED W/BEAR   0000001000+00000613+00000+0001T   00000788+0006471508          1400 JY8510               1AZ
151355004151355080-000133     151355006003000535613CARD&ENV MINI ASTD DSGN0000001000+00000437+00000+0001T   00000437+0000001508          1400 JY8112               1AZ
151356000151356               151356               170213A7     1400+00000+A70000001314+0000001314+000000000+000000184+0000001490+0000000008+I20000000000+0000001490+Z
151356001151356077-000310     151356006001023608635GIFT-BAG 18X23CM GLOSS 0000001000+00001314+00000+0001T   00001314+0000001522          1400 JY8112               1AZ
151357000151357               151357               170213A7     1400+00000+A70000010348+0000010348+000000000+000001449+0000011790+0000000007+I20000000000+0000011790+Z
151357001151357368-000049     151357006003000536955PLUSH BEAR 15cm LOVE   0000001000+00004385+00000+0001T   00004385+0000001546          1400 JY8745               1AZ
151357002151357006-000190     151357006003000685530BALLOONS LOVE 81x91cm  0000001000+00004385+00000+0001T   00004385+0000001546          1400 JY8131               1AZ
151357003151357080-000124     151357006003000297733CARD & ENV VALENTINES  0000001000+00001578+00000+0001T   00001578+0000001546          1400 JY8112               1AZ
151358000151358               151358               170213A7     1400+00000+A70000002630+0000002630+000000000+000000369+0000002990+0000000009+I20000000000+0000002990+Z
151358001151358206-000620     151358006003000631797BACK SCRATCHER EXTEND  0000001000+00002630+00000+0001T   00002630+0000001553          1400 JY8321               1AZ
151359000151359               151359               170213A7     1400+00000+A70000000700+0000000700+000000000+000000098+0000000790+0000000008+I20000000000+0000000790+Z
151359001151359018-000177     151359006001023797513MUG MINI LOVE ASSTD    0000001000+00000700+00000+0001T   00000700+0000001556          1400 JY8515               1AZ
151360000151360               151360               170213A7     1400+00000+A70000002190+0000002190+000000000+000000307+0000002490+0000000007+I20000000000+0000002490+Z
151360001151360565-004101     151360006003000548033BALL BOUNCING EGG      0000001000+00001490+00000+0001T   00001490+0000001558          1400 JY8745               1AZ
151360002151360565-000256     151360006003000609826NOVELTY GLOW SLIME     0000001000+00000700+00000+0001T   00000700+0000001558          1400 JY8745               1AZ
151361000151361               151361               170213A7     1400+00000+A70000002630+0000002630+000000000+000000369+0000002990+0000000009+I20000000000+0000002990+Z
151361001151361056-065303     151361006001023821041SUN-SHIELD 2PCE ANIMAL 0000001000+00002630+00000+0001T   00002630+0000001559          1400 JY8860               1AZ
151362000151362               151362               170213A7     1400+00000+A70000007050+0000007050+000000000+000000988+0000008038+0000000000+I40000008038+0000000000+Z
151362001151362368-000049     151362006003000536955PLUSH BEAR 15cm LOVE   0000001000+00004385+00000+0001T   00004385+0000001625          1400 JY8745               1AZ
151362002151362079-008998     151362006003000339686ART+CRAFT  CANVAS      0000001000+00002630+00000+0001T   00002630+0000001625          1400 JY8130               1AZ
151362003151362112-116038     151362006009681820246TCS CARRIER BAG MIDI   0000001000+00000035+00000+0001T   00000035+0000001625          1400 JY8090               1AZ
151363000151363               151363               170213A7     1400+00000+A70000001490+0000001490+000000000+000000209+0000001690+0000000009+I20000000000+0000001690+Z
151363001151363077-000399     151363006003000139514GIFT BAG 18X23CM E/DAY 0000001000+00001490+00000+0001T   00001490+0000001652          1400 JY8112               1AZ
151364000151364               151364               170213A7     1400+00000+A70000008329+0000008329+000000000+000001167+0000009496+0000000000+I40000009496+0000000000+Z
151364001151364072-020310     151364006001023701015PET TOY MINI TENNIS BAL0000001000+00003507+00000+0001T   00003507+0000001654          1400 JY8870               1AZ
151364002151364072-020298     151364006003000561629DOG-TOY TUG-ROPE ASSTD 0000001000+00003069+00000+0001T   00003069+0000001654          1400 JY8870               1AZ
151364003151364206-000370     151364006003000631315STRAW P/DRINKING GLASS 0000001000+00001753+00000+0001T   00001753+0000001654          1400 JY8321               1AZ
151365000151365               151365               170213A7     1400+00000+A70000000876+0000000876+000000000+000000123+0000000990+0000000009+I20000000000+0000000990+Z
151365001151365006-000223     151365006001023891327PARTY EYE-MASK 6PCE    0000001000+00000876+00000+0001T   00000876+0000001659          1400 JY8131               1AZ
151366000151366               151366               170213A7     1400+00000+A70000003541+0000003541+000000000+000000497+0000004030+0000000008+I20000000000+0000004030+Z
151366001151366016-006509     151366006003000567355S/JAR GLS MINI LABEL   0000002000+00001753+00000+0001T   00002192+0008191703          1400 JY8300               1AZ
151366002151366112-116038     151366006009681820246TCS CARRIER BAG MIDI   0000001000+00000035+00000+0001T   00000035+0000001703          1400 JY8090               1AZ
151367000151367               151367               170213A7     1400+00000+A70000005524+0000005524+000000000+000000774+0000006290+0000000008+I20000000000+0000006290+Z
151367001151367004-078993     151367006001023716569EARPHONES W/1.1m CORD  0000001000+00004385+00000+0001T   00004385+0000001705          1400 JY8310               1AZ
151367002151367903-000087     151367006001704000161SWT SPECKLED-EGGS 50G  0000001000+00001139+00000+0001T   00001139+0000001705          1400 JY8150               1AZ
151368000151368               151368               170213A7     1400+00000+A70000001613+0000001613+000000000+000000226+0000001839+0000000000+I40000001839+0000000000+Z
151368001151368018-000127     151368006001023380289MUG OCC STRAIGHT LOVE  0000001000+00001578+00000+0001T   00001753+0006471708          1400 JY8515               1AZ
151368002151368112-116038     151368006009681820246TCS CARRIER BAG MIDI   0000001000+00000035+00000+0001T   00000035+0000001708          1400 JY8090               1AZ
151369000151369               151369               170213A7     1400+00000+A70000008800+0000008800+000000000+000001234+0000010030+0000000004+I20000000000+0000010030+Z
151369001151369001-000175     151369006001023788108B/MUG GLS LOVE 380ML   0000001000+00004385+00000+0001T   00004385+0000001715          1400 JY8515               1AZ
151369002151369077-000382     151369006003000247820GIFT-BAG MED 18X23CM   0000001000+00001753+00000+0001T   00001753+0000001715          1400 JY8112               1AZ
151369003151369903-000123     151369006925925909280SWEET GS MINI MALLOWS  0000001000+00000876+00000+0001T   00000876+0000001715          1400 JY8150               1AZ
151369004151369903-004950     151369006002580020304SWT APRICOT SURPRISE   0000001000+00001314+00000+0001T   00001314+0000001715          1400 JY8150               1AZ
151369005151369080-000133-A   151369006003000647019MINI VALENTINES CARD   0000001000+00000437+00000+0001T   00000437+0000001715          1400 JY8112               1AZ
151369006151369112-116038     151369006009681820246TCS CARRIER BAG MIDI   0000001000+00000035+00000+0001T   00000035+0000001715          1400 JY8090               1AZ
151370000151370               151370               170213A7     1400+00000+A70000001613+0000001613+000000000+000000226+0000001830+0000000009+I20000000000+0000001830+Z
151370001151370018-000127     151370006001023380289MUG OCC STRAIGHT LOVE  0000001000+00001578+00000+0001T   00001753+0006471729          1400 JY8515               1AZ
151370002151370112-116038     151370006009681820246TCS CARRIER BAG MIDI   0000001000+00000035+00000+0001T   00000035+0000001729          1400 JY8090               1AZ
151371000151371               151371               170213A7     1400+00000+A70000001753+0000001753+000000000+000000246+0000001990+0000000009+I20000000000+0000001990+Z
151371001151371024-000038     151371006001023477026MEASURING-JUG 1L (4CUP)0000001000+00001753+00000+0001T   00001753+0000001743          1400 JY8300               1AZ
151372000151372               151372               170213A7     1400+00000+A70000005259+0000005259+000000000+000000738+0000005990+0000000007+I20000000000+0000005990+Z
151372001151372071-010481     151372006001023417220MAGNIFYING-GLASS 90mm-D0000003000+00001753+00000+0001T   00001753+0000001750          1400 JY8130               1AZ
151373000151373               151373               170213A7     1400+00000+A70000001314+0000001314+000000000+000000184+0000001490+0000000008+I20000000000+0000001490+Z
151373001151373077-000310     151373006001023608635GIFT-BAG 18X23CM GLOSS 0000001000+00001314+00000+0001T   00001314+0000001751          1400 JY8112               1AZ
151374000151374               151374               170213A7     1400+00000+A70000000613+0000000613+000000000+000000086+0000000690+0000000009+I20000000000+0000000690+Z
151374001151374007-000555     151374006001023848239MEMO-PAD MINI LOVE     0000001000+00000613+00000+0001T   00000613+0000001754          1400 JY8130               1AZ
151375000151375               151375               170213A7     1400+00000+A70000007541+0000007541+000000000+000001056+0000008590+0000000007+I20000000000+0000008590+Z
151375001151375016-006515-A   151375006003000461707S/JAR GLS W/HANDLE 500 0000002000+00001578+00000+0001T   00001753+0008191757          1400 JY8300               1AZ
151375002151375082-000110     151375006003000360482READING GLS STRENGHT:2 0000001000+00004385+00000+0001T   00004385+0000001757          1400 JY8160               1AZ
151376000151376               151376               170213A7     1400+00000+A70000005998+0000005998+000000000+000000840+0000006830+0000000008+I20000000000+0000006830+Z
151376001151376112-116038     151376006009681820246TCS CARRIER BAG MIDI   0000001000+00000035+00000+0001T   00000035+0000001759          1400 JY8090               1AZ
151376002151376080-000124     151376006003000297733CARD & ENV VALENTINES  0000001000+00001578+00000+0001T   00001578+0000001759          1400 JY8112               1AZ
151376003151376031-000848     151376006001023851901P/FRAME COLLAGE 2ASSTD 0000001000+00004385+00000+0001T   00004385+0000001759          1400 JY8510               1AZ
151377000151377               151377               170213A7     1400+00000+A70000001578+0000001578+000000000+000000221+0000001790+0000000009+I20000000000+0000001790+Z
151377001151377018-000127     151377006001023380289MUG OCC STRAIGHT LOVE  0000001000+00001578+00000+0001T   00001753+0006471803          1400 JY8515               1AZ
151378000151378               151378               170213A7     1400+00000+A70000008802+0000008802+000000000+000001234+0000010036+0000000000+I40000010036+0000000000+Z
151378001151378464-000122     151378006003000638987PLAYING CARDS POKER 2PK0000001000+00001753+00000+0001T   00001753+0000001804          1400 JY8785               1AZ
151378002151378079-006495     151378006003000159987GLITTER SHAKERS 6PK    0000001000+00002630+00000+0001T   00002630+0000001804          1400 JY8130               1AZ
151378003151378566-000068     151378006003000418046POP UP LOVE 2 ASSTD    0000001000+00002192+00000+0001T   00002192+0000001804          1400 JY8130               1AZ
151378004151378080-000127     151378006003000424351VALENTINES DAY 36x24CM 0000001000+00002192+00000+0001T   00002192+0000001804          1400 JY8112               1AZ
151378005151378112-116038     151378006009681820246TCS CARRIER BAG MIDI   0000001000+00000035+00000+0001T   00000035+0000001804          1400 JY8090               1AZ
151379000151379               151379               170213A7     1400+00000+A70000002804+0000002804+000000000+000000394+0000003190+0000000008+I20000000000+0000003190+Z
151379002151379369-001137     151379006003000555062VINYL 5.7cm THEMED DUCK0000001000+00001753+00000+0001T   00001753+0000001810          1400 JY8745               1AZ
151379003151379903-002892     151379008935001721338MENTOS JUICEBLAST BERRY0000001000+00001051+00000+0001T   00001051+0000001810          1400 JY8150               1AZ
A17021300                                          09013614A7SLAVE 1                       1IC2IC
A17021301                                          09222188A7SLAVE 1                       JY81IC
A17021302                                          09233898A7SLAVE 1                       JY82IC
A17021303                                          09414528A7SLAVE 1                       JY82IC
A17021304                                          10044167A7SLAVE 1                       JY82IC
A17021305                                          11040681A7SLAVE 1                       JY81IC
C15137400                                          170213A7080-000124     17522740SLAVE 1     JY81IC0000000000+0000000000+0010000001000+
C15137401                                          170213A7031-000848     17523257SLAVE 1     JY81IC0000000000+0000000000+0020000001000+
C15137402                                          170213A7112-116038     17524047SLAVE 1     JY81IC0000000000+0000000000+0030000001000+
C15137900                                          170213A7368-000040     18101144SLAVE 1     JY81IC0000000000+0000000000+0010000001000+
M17021391                              CASH        A7SLAVE 1                       Z-REPORT No.   261TOTAL (Sales - Refunds)           2723.62       CASH TO BE BANKED                 1763.30       DEBIT CARDS                          0.00       CREDIT CARDS                       960.32       Z-READING                         2723.62       AIRTIME DEBIT CARD SALES             0.00       AIRTIME CARD SALES                   0.00       OVERS/UNDERS                         0.00       AIRTIME CASH SALES                   0.00       GIFT CARDS                           0.00       GIFT CARD CASH SALES                 0.00       T O T A L  CASH PAYOUTS              0.00                                                                                                                                                                                                                                                                                                                                                      Z
M17021392                              CASH        A7ABSENT                                                                                                                                                                                          ANNUAL LEAVE                                                                                                                                                                                    DAY OFF                                                                                                           BALANCE                                                                       COMMENTS                                                                                                                                                                                                                                                                                                                                                                                       Z
Y17021300                                          A700000000239151+000054
ZA717021321033 SLAVE 1      SALES DATA                     NEXT INVOICE NO.  151380 0261
X A7 Slave 1 First invoice 151326 170213 Last invoice 151379 170213 Next invoice 151380 Total number of records 000000179 clbackup completed 21:03:57
