166262000166262               166262               170213A7     1400+00000+A70000000700+0000000700+000000000+000000098+0000000790+0000000008+I20000000000+0000000790+Z
166262001166262566-002000     166262000721129013206STICKERS CRYSTAL ASSTD 0000001000+00000700+00000+0001T   00000700+0000000917          1400 2IC130               2AZ
166263000166263               166263               170213A7     1400+00000+A70000001753+0000001753+000000000+000000246+0000001990+0000000009+I20000000000+0000001990+Z
166263001166263200-003026     166263006003000276448REFUSE BAGS 10PCE GREEN0000001000+00001753+00000+0001T   00001753+0000000918          1400 2IC214               2AZ
166264000166264               166264               170213A7     1400+00000+A70000004383+0000004383+000000000+000000614+0000004997+0000000000+I40000004997+0000000000+Z
166264001166264077-000314     166264006003000181148GIFT-BAG 11X14CM MATT  0000001000+00000876+00000+0001T   00000876+0000000938          1400 JY8112               2AZ
166264002166264089-000006     166264006003000094929KEY CHAIN HAND-BAG MTL 0000001000+00003507+00000+0001T   00003507+0000000938          1400 JY8205               2AZ
166265000166265               166265               170213A7     1400+00000+A70000005295+0000005295+000000000+000000743+0000006030+0000000008+I20000000000+0000006030+Z
166265001166265072-020302     166265006001023858818PET-DOG STICK/RING 24cm0000002000+00002630+00000+0001T   00002630+0000001029          1400 2IC870               2AZ
166265002166265112-116038     166265006009681820246TCS CARRIER BAG MIDI   0000001000+00000035+00000+0001T   00000035+0000001029          1400 2IC090               2AZ
166266000166266               166266               170213A7     1400+00000+A70000003507+0000003507+000000000+000000491+0000003990+0000000008+I20000000000+0000003990+Z
166266001166266567-011449     166266009780857260284BOOK STICKER TRAVEL    0000001000+00003507+00000+0001T   00003507+0000001030          1400 2IC757               2AZ
166267000166267               166267               170213A7     1400+00000+A70000006623+0000006623+000000000+000000929+0000007552+0000000000+I40000007552+0000000000+Z
166267001166267079-013099     166267006003000081875ART+CRAFT EYES ASSTD   0000001000+00001753+00000+0001T   00001753+0000001039          1400 2IC130               2AZ
166267002166267079-013102     166267006003000019601ART+CRAFT DIY PIPE-CLNR0000001000+00002192+00000+0001T   00002192+0000001039          1400 2IC130               2AZ
166267003166267566-000367     166267006003000645558STICKER WINDOW DECOR   0000001000+00002630+00000+0001T   00002630+0000001039          1400 2IC130               2AZ
166267004166267112-116069     166267006009681820277TCS CARRIER BAG JUMBO  0000001000+00000048+00000+0001T   00000048+0000001039          1400 2IC090               2AZ
166268000166268               166268               170213A7     1400+00000+A70000004908+0000004908+000000000+000000688+0000005590+0000000006+I20000000000+0000005590+Z
166268001166268251-000040     166268006001023515865SEALTAPE CLEAR 48mmx50m0000001000+00001227+00000+0001T   00001227+0000001040          1400 2IC810               2AZ
166268002166268251-000041     166268006001023515889SEAL-TAPE BUFF 48mmx50m0000001000+00001227+00000+0001T   00001227+0000001040          1400 2IC810               2AZ
166268003166268251-000040     166268006001023515865SEALTAPE CLEAR 48mmx50m0000002000+00001227+00000+0001T   00001227+0000001040          1400 2IC810               2AZ
166269000166269               166269               170213A7     1400+00000+A70000001973-0000001973-000000000+000000277-0000002250-0000000000+I20000000000+0000002250-Z
166269001166269001-999906     166269000000000999906STATIONERY(PHOTOCOPIES)0000001000-00001973+00000+0001T   00000000+0000001125          1400 2IC9061IC            2 Z
166270000166270               166270               170213A7     1400+00000+A70000012188+0000012188+000000000+000001708+0000013896+0000000000+I40000013896+0000000000+Z
166270001166270077-000010-R   166270006001023123916CREPE-PAPER CANARY-YELL0000001000+00000788+00000+0001T   00000788+0000001150          1400 2IC112               2AZ
166270002166270077-000009     166270006003000152377PAPER CREPE ALUM COL   0000002000+00003069+00000+0001T   00003069+0000001150          1400 2IC112               2AZ
166270003166270024-000165-E   166270006003000674558N/STICK BAKING TRAY    0000001000+00005262+00000+0001T   00005262+0000001150          1400 2IC300               2AZ
166271000166271               166271               170213A7     1400+00000+A70000002192+0000002192+000000000+000000307+0000002499+0000000000+I40000002499+0000000000+Z
166271001166271080-000127     166271006003000424351VALENTINES DAY 36x24CM 0000001000+00002192+00000+0001T   00002192+0000001305          1400 2IC112               2AZ
166272000166272               166272               170213A7     1400+00000+A70000002240+0000002240+000000000+000000314+0000002554+0000000000+I40000002554+0000000000+Z
166272001166272080-000127     166272006003000424351VALENTINES DAY 36x24CM 0000001000+00002192+00000+0001T   00002192+0000001319          1400 2IC112               2AZ
166272002166272112-116069     166272006009681820277TCS CARRIER BAG JUMBO  0000001000+00000048+00000+0001T   00000048+0000001319          1400 2IC090               2AZ
166273000166273               166273               170213A7     1400+00000+A70000001226+0000001226+000000000+000000172+0000001390+0000000008+I20000000000+0000001390+Z
166273001166273304-001011     166273006001023806727FLWR ROSE RED W/BEAR   0000002000+00000613+00000+0001T   00000788+0006471326          1400 2IC510               2AZ
166274000166274               166274               170213A7     1400+00000+A70000006709+0000006709+000000000+000000941+0000007650+0000000000+I40000007650+0000000000+Z
166274001166274304-001011     166274006001023806727FLWR ROSE RED W/BEAR   0000003000+00000613+00000+0001T   00000788+0006471329          1400 2IC510               2AZ
166274002166274464-000110     166274006001023868824PLAYING-CARDS JUMBO    0000001000+00002630+00000+0001T   00002630+0000001329          1400 2IC785               2AZ
166274003166274006-000789     166274006001023148612CROWN BOY              0000001000+00002192+00000+0001T   00002192+0000001329          1400 2IC131               2AZ
166274004166274112-116069     166274006009681820277TCS CARRIER BAG JUMBO  0000001000+00000048+00000+0001T   00000048+0000001329          1400 2IC090               2AZ
166275000166275               166275               170213A7     1400+00000+A70000003507+0000003507+000000000+000000491+0000003998+0000000000+I40000003998+0000000000+Z
166275001166275051-600601     166275006003000266357GARDENING KNEE PAD ASST0000001000+00003507+00000+0001T   00003507+0000001330          1400 2IC820               2AZ
166276000166276               166276               170213A7     1400+00000+A70000001753+0000001753+000000000+000000246+0000001990+0000000009+I20000000000+0000001990+Z
166276001166276903-000619     166276006003000672455SWT LOLLY STR/BRRY 140G0000001000+00001753+00000+0001T   00001753+0000001331          1400 2IC150               2AZ
166277000166277               166277               170213A7     1400+00000+A70000004385+0000004385+000000000+000000614+0000004990+0000000009+I20000000000+0000004990+Z
166277001166277001-000175     166277006001023788108B/MUG GLS LOVE 380ML   0000001000+00004385+00000+0001T   00004385+0000001336          1400 2IC515               2AZ
166278000166278               166278               170213A7     1400+00000+A70000008770+0000008770+000000000+000001228+0000009990+0000000008+I20000000000+0000009990+Z
166278001166278368-000049     166278006003000536955PLUSH BEAR 15cm LOVE   0000002000+00004385+00000+0001T   00004385+0000001348          1400 2IC745               2AZ
166279000166279               166279               170213A7     1400+00000+A70000001753+0000001753+000000000+000000246+0000001990+0000000009+I20000000000+0000001990+Z
166279001166279080-000109     166279006003000237203CARD&ENVLPE BDAY-BRIGHT0000001000+00001753+00000+0001T   00001753+0000001353          1400 2IC112               2AZ
166280000166280               166280               170213A7     1400+00000+A70000013156+0000013156+000000000+000001842+0000014998+0000000000+I40000014998+0000000000+Z
166280001166280469-000801     166280006003000652402BUILDING BLOCKS AGE BAG0000001000+00004385+00000+0001T   00004385+0000001401          1400 2IC755               2AZ
166280002166280001-091415     166280006003000329113W/GLS OCC. LOVE 2PC 2800000001000+00008771+00000+0001T   00009648+0006471401          1400 2IC515               2AZ
166281000166281               166281               170213A7     1400+00000+A70000003506+0000003506+000000000+000000492+0000003990+0000000008+I20000000000+0000003990+Z
166281001166281077-000382     166281006003000247820GIFT-BAG MED 18X23CM   0000002000+00001753+00000+0001T   00001753+0000001447          1400 2IC112               2AZ
166282000166282               166282               170213A7     1400+00000+A70000003943+0000003943+000000000+000000553+0000004490+0000000006+I20000000000+0000004490+Z
166282001166282077-000316-A   166282006003000681457GIFT-BAG METALLIC PPR  0000001000+00002630+00000+0001T   00002630+0000001451          1400 2IC112               2AZ
166282002166282304-001011     166282006001023806727FLWR ROSE RED W/BEAR   0000001000+00000613+00000+0001T   00000788+0006471451          1400 2IC510               2AZ
166282003166282903-000121     166282006002099001689SWT GS ZILLIONS SOURS  0000001000+00000700+00000+0001T   00000700+0000001451          1400 2IC150               2AZ
166283000166283               166283               170213A7     1400+00000+A70000000393+0000000393+000000000+000000056+0000000440+0000000009+I20000000000+0000000440+Z
166283001166283903-000183     166283006003000451043SWT LB HEART LOLLY     0000001000+00000393+00000+0001T   00000393+0000001518          1400 2IC150               2AZ
166284000166284               166284               170213A7     1400+00000+A70000015815+0000015815+000000000+000002217+0000018032+0000000000+I40000018032+0000000000+Z
166284001166284566-000031     166284006003000283910STICKER BK TEACHER STIC0000003000+00002192+00000+0001T   00002192+0000001523          1400 2IC130               2AZ
166284002166284019-000129     166284006003000456017T/PLATE W/SWING HANDLE 0000003000+00002630+00000+0001T   00002630+0000001523          1400 2IC510               2AZ
166284003166284071-003866     166284006003000590018PENCIL NOVELTY RULER   0000001000+00001314+00000+0001T   00001314+0000001523          1400 2IC130               2AZ
166284004166284112-116038     166284006009681820246TCS CARRIER BAG MIDI   0000001000+00000035+00000+0001T   00000035+0000001523          1400 2IC090               2AZ
166285000166285               166285               170213A7     1400+00000+A70000002978+0000002978+000000000+000000419+0000003390+0000000007+I20000000000+0000003390+Z
166285001166285018-000170     166285006001023775528MUG OCC. LOVE 2PC MINI 0000001000+00002192+00000+0001T   00002192+0000001524          1400 2IC515               2AZ
166285002166285903-000183     166285006003000451043SWT LB HEART LOLLY     0000002000+00000393+00000+0001T   00000393+0000001524          1400 2IC150               2AZ
166286000166286               166286               170213A7     1400+00000+A70000029868+0000029868+000000000+000004183+0000034050+0000000001+I20000000000+0000034050+Z
166286001166286030-004015     166286006003000467624PLAQUE WDN SIGN 30X20CM0000001000+00009648+00000+0001T   00009648+0000001526          1400 2IC505               2AZ
166286002166286077-000011-D   166286006001023808554TISSUE-WRAP WHITE 10PCE0000001000+00000876+00000+0001T   00000876+0000001526          1400 2IC112               2AZ
166286003166286040-001013     166286006003000327966C/HOLDER SET 3PC W/TRAY0000001000+00014911+00000+0001T   00014911+0000001526          1400 2IC510               2AZ
166286004166286112-116069     166286006009681820277TCS CARRIER BAG JUMBO  0000001000+00000048+00000+0001T   00000048+0000001526          1400 2IC090               2AZ
166286005166286162-010775     166286006001492107752#TAG LDS WRISTWEAR     0000001000+00004385+00000+0001T   00004385+0000001526          1400 2IC160               2AZ
166287000166287               166287               170213A7     1400+00000+A70000005259+0000005259+000000000+000000738+0000005990+0000000007+I20000000000+0000005990+Z
166287001166287251-000071     166287006003000451890PROTECTION-PADS BLK ADH0000003000+00001753+00000+0001T   00001753+0000001602          1400 2IC810               2AZ
166288000166288               166288               170213A7     1400+00000+A70000003100+0000003100+000000000+000000435+0000003530+0000000005+I20000000000+0000003530+Z
166288001166288200-000130     166288006001023645067DESSERT-SPOONS 10PCE   0000005000+00000613+00000+0001T   00000613+0000001605          1400 2IC214               2AZ
166288002166288112-116038     166288006009681820246TCS CARRIER BAG MIDI   0000001000+00000035+00000+0001T   00000035+0000001605          1400 2IC090               2AZ
166289000166289               166289               170213A7     1400+00000+A70000000788+0000000788+000000000+000000111+0000000890+0000000009+I20000000000+0000000890+Z
166289001166289071-081101-A   166289006003000326549GLUE-STICK 25g BLISTER 0000001000+00000788+00000+0001T   00000788+0000001607          1400 2IC130               2AZ
166290000166290               166290               170213A7     1400+00000+A70000006960+0000006960+000000000+000000976+0000007930+0000000006+I20000000000+0000007930+Z
166290001166290903-000123     166290006925925909280SWEET GS MINI MALLOWS  0000001000+00000876+00000+0001T   00000876+0000001608          1400 2IC150               2AZ
166290002166290903-004951     166290006002580020328SWT MALLOW MINI M/SHAKE0000001000+00001227+00000+0001T   00001227+0000001608          1400 2IC150               2AZ
166290003166290903-000619     166290006003000672455SWT LOLLY STR/BRRY 140G0000001000+00001753+00000+0001T   00001753+0000001608          1400 2IC150               2AZ
166290004166290016-000826     166290006001023774675BOTTLE GLS W/LID ASSTD 0000001000+00003069+00000+0001T   00003069+0000001608          1400 2IC300               2AZ
166290005166290112-116038     166290006009681820246TCS CARRIER BAG MIDI   0000001000+00000035+00000+0001T   00000035+0000001608          1400 2IC090               2AZ
166291000166291               166291               170213A7     1400+00000+A70000002630+0000002630+000000000+000000369+0000002990+0000000009+I20000000000+0000002990+Z
166291001166291306-001714     166291006003000061341FACIAL MAKE-UP WIPES 480000001000+00002630+00000+0001T   00002630+0000001609          1400 2IC200               2AZ
166292000166292               166292               170213A7     1400+00000+A70000001753+0000001753+000000000+000000246+0000001999+0000000000+I40000001999+0000000000+Z
166292001166292264-000921     166292000090159150442MAISTO CAR 3" FRESH    0000001000+00001753+00000+0001T   00001753+0000001611          1400 2IC710               2AZ
166293000166293               166293               170213A7     1400+00000+A70000006048+0000006048+000000000+000000849+0000006890+0000000007+I20000000000+0000006890+Z
166293001166293079-000123     166293006003000589746ART+CRAFT ENGRAVING ART0000001000+00002630+00000+0001T   00002630+0000001620          1400 2IC130               2AZ
166293002166293565-000040     166293006008766115635NOVELTY ICON BEANIE    0000001000+00002630+00000+0001T   00002630+0000001620          1400 2IC745               2AZ
166293003166293903-000200     166293006009826020234SWT CHOC RP CHOCO 23G  0000001000+00000788+00000+0001T   00000788+0000001620          1400 2IC150               2AZ
166294000166294               166294               170213A7     1400+00000+A70000003505+0000003505+000000000+000000491+0000003990+0000000006+I20000000000+0000003990+Z
166294001166294077-000310     166294006001023608635GIFT-BAG 18X23CM GLOSS 0000001000+00001314+00000+0001T   00001314+0000001648          1400 2IC112               2AZ
166294002166294080-000124     166294006003000297733CARD & ENV VALENTINES  0000001000+00001578+00000+0001T   00001578+0000001648          1400 2IC112               2AZ
166294003166294304-001011     166294006001023806727FLWR ROSE RED W/BEAR   0000001000+00000613+00000+0001T   00000788+0006471648          1400 2IC510               2AZ
166295000166295               166295               170213A7     1400+00000+A70000003243+0000003243+000000000+000000455+0000003698+0000000000+I40000003698+0000000000+Z
166295001166295039-081008     166295006008766081008CANDLES 9PCE SCENTED   0000001000+00002630+00000+0001T   00002630+0000001650          1400 2IC510               2AZ
166295002166295304-001011     166295006001023806727FLWR ROSE RED W/BEAR   0000001000+00000613+00000+0001T   00000788+0006471650          1400 2IC510               2AZ
166296000166296               166296               170213A7     1400+00000+A70000004385+0000004385+000000000+000000614+0000004990+0000000009+I20000000000+0000004990+Z
166296001166296368-000049     166296006003000536955PLUSH BEAR 15cm LOVE   0000001000+00004385+00000+0001T   00004385+0000001650          1400 2IC745               2AZ
A17021300                                          09360494A7SLAVE 2                       JY82IC
A17021301                                          09410084A7SLAVE 2                       JY82IC
A17021302                                          10051599A7SLAVE 2                       JY82IC
A17021303                                          11043610A7SLAVE 2                       2IC1IC
A17021304                                          15472648A7SLAVE 2                       1IC2IC
C16626900                                          170213A7001-999907     11252870SLAVE 2     2IC1IC0000000000+0000000000+0010000001000-
M17021301                              ATT.BRAIN   A7ATT.BRAIN                                                                                       SLAVE 1 AND 2 WAS USED TODAY.                                                                   THANKS                                          NOORDHOEK A7
M17021302                              ATT.BRAIN   A7ATT.BRAIN                                                                                       SLAVE 1 LOUISA:                                 LAST TILLSLIP NO:  151379                                                                       SLAVE 2 KIM:                                    LAST TILLSLIP NO:166296                                                                                                                         THANKS                                          NOORDHOEK A7
M17021303                              ATT.SHIEHAAMA7ATT.SHIEHAAM                                                                                    SLAVE 1 LOUISA:                                 C/BANKING  :R 1763.30                           C/CARDS    :R   960.32                          PAYOUTS    :R 0.00                              SHORT/OVER :R 0.00                              Z/READING  :R  2723.62                                                                          SLAVE 2 KIM:                                    C/BANKING  :R1200.50                            C/CARDS    :R818.73                             PAYOUTS    :R22.50  STATIONARY                  SHORT/OVER :BALANCE                             Z/READING  ;R2041.73                                                                            THANKS                                          NOORDHOEK A7
M17021391                              CASH        A7SLAVE 2                       Z-REPORT No.   258TOTAL (Sales - Refunds)           2041.73       CASH TO BE BANKED                 1200.50       DEBIT CARDS                          0.00       CREDIT CARDS                       818.73       Z-READING                         2019.23       AIRTIME DEBIT CARD SALES             0.00       AIRTIME CARD SALES                   0.00       OVERS/UNDERS                         0.00       AIRTIME CASH SALES                   0.00       GIFT CARDS                           0.00       GIFT CARD CASH SALES                 0.00       STATIONERY(PHOTOCOPIES)             22.50       T O T A L  CASH PAYOUTS             22.50                                                                                                                                                                                                                                                                                                      Z
M17021392                              CASH        A7ABSENT                                                                                                                                                                                          ANNUAL LEAVE                                                                                                                                                                                    DAY OFF                                                                                                                                                                                         COMMENTS          BALANCE                                                                                                                                                                                                                                                                                                                                                                      Z
Y17021300                                          A700000000179222+000034
ZA717021321033 SLAVE 2      SALES DATA                     NEXT INVOICE NO.  166297 0258
F093687496-058484         1701150950110000082ICSLAVE 2
F093704496-028122         1701150950400000022ICSLAVE 2
F093790496-028202         1701150951210000022ICSLAVE 2
F093989496-028142         1701150951380000022ICSLAVE 2
F094005496-028272         1701150951530000012ICSLAVE 2
X A7 Slave 2 First invoice 166262 170213 Last invoice 166296 170213 Next invoice 166297 Total number of records 000000122 clbackup completed 21:03:58
