308891000308891               308891               170213A8     1400+00000+A80000001753+0000001753+000000000+000000246+0000001990+0000000009+I20000000000+0000001990+Z
308891001308891002-000805     308891006001023575982PEELER PL Y-SHAPE 3-ASS0000001000+00001753+00000+0001T   00001753+0000000923          1400 MU3300               1BZ
308892000308892               308892               170213A8     1400+00000+A80000003104+0000003104+000000000+000000435+0000003539+0000000000+I40000003539+0000000000+Z
308892001308892016-006513     308892006003000295739S/JAR GLS EMBOSS. 950ML0000001000+00003069+00000+0001T   00003069+0000000933          1400 MU3300               1BZ
308892002308892112-116038     308892006009681820246TCS CARRIER BAG MIDI   0000001000+00000035+00000+0001T   00000035+0000000933          1400 MU3090               1BZ
308893000308893               308893               170213A8     1400+00000+A80000005962+0000005962+000000000+000000835+0000006797+0000000000+I40000006797+0000000000+Z
308893001308893903-000120     308893006002099001665SWEET GS ZILLIONS 50g  0000001000+00000700+00000+0001T   00000700+0000000935          1400 MU3150               1BZ
308893002308893266-008047     308893006001023792013COMBAT VEH&ACC IN B/PCK0000001000+00005262+00000+0001T   00005262+0000000935          1400 MU3710               1BZ
308894000308894               308894               170213A8     1400+00000+A80000011010+0000011010+000000000+000001542+0000012552+0000000000+I40000012552+0000000000+Z
308894001308894112-116069     308894006009681820277TCS CARRIER BAG JUMBO  0000001000+00000048+00000+0001T   00000048+0000000936          1400 MU3090               1BZ
308894002308894174-000141     308894006003000367573STORAGE ORGANISER 30X100000001000+00005262+00000+0001T   00005262+0000000936          1400 MU3205               1BZ
308894003308894174-000140     308894006003000367450STORAGE ORGANISER 30X300000001000+00005700+00000+0001T   00005700+0000000936          1400 MU3205               1BZ
308895000308895               308895               170213A8     1400+00000+A80000004870+0000004870+000000000+000000683+0000005553+0000000000+I40000005553+0000000000+Z
308895001308895080-000137     308895006003000589159CARD & ENV GIANT FEMALE0000001000+00002630+00000+0001T   00002630+0000001007          1400 MU3112               1BZ
308895002308895080-000127     308895006003000424351VALENTINES DAY 36x24CM 0000001000+00002192+00000+0001T   00002192+0000001007          1400 MU3112               1BZ
308895003308895112-116069     308895006009681820277TCS CARRIER BAG JUMBO  0000001000+00000048+00000+0001T   00000048+0000001007          1400 MU3090               1BZ
308896000308896               308896               170213A8     1400+00000+A80000001314+0000001314+000000000+000000184+0000001490+0000000008+I20000000000+0000001490+Z
308896001308896903-005007     308896006002580020311SWT MALLOW BEAR M/SHAKE0000001000+00001314+00000+0001T   00001314+0000001010          1400 MU3150               1BZ
308897000308897               308897               170213A8     1400+00000+A80000001578+0000001578+000000000+000000221+0000001790+0000000009+I20000000000+0000001790+Z
308897001308897566-001234     308897006003000217793STICKERS LASER ASSTD   0000001000+00001578+00000+0001T   00001578+0000001106          1400 MU3130               1BZ
308898000308898               308898               170213A8     1400+00000+A80000001753+0000001753+000000000+000000246+0000001990+0000000009+I20000000000+0000001990+Z
308898001308898078-000480     308898006008741002332BOSTIK SHOE-REPAIR 25ml0000001000+00001753+00000+0001T   00001753+0000001106          1400 MU3810               1BZ
308899000308899               308899               170213A8     1400+00000+A80000003542+0000003542+000000000+000000496+0000004030+0000000008+I20000000000+0000004030+Z
308899001308899051-500112     308899006003000399925GARDEN KID WTR-CAN 0.6L0000001000+00003507+00000+0001T   00003507+0000001126          1400 MU3820               1BZ
308899002308899112-116038     308899006009681820246TCS CARRIER BAG MIDI   0000001000+00000035+00000+0001T   00000035+0000001126          1400 MU3090               1BZ
308900000308900               308900               170213A8     1400+00000+A80000003943+0000003943+000000000+000000554+0000004490+0000000007+I20000000000+0000004490+Z
308900001308900080-000133-A   308900006003000647019MINI VALENTINES CARD   0000001000+00000437+00000+0001T   00000437+0000001130          1400 MU3112               1BZ
308900002308900080-000120     308900006003000236473CARD & ENVELOPE WEDDING0000001000+00001753+00000+0001T   00001753+0000001130          1400 MU3112               1BZ
308900003308900080-000100     308900006003000236114CARD & ENVELOPE BDAY   0000001000+00001753+00000+0001T   00001753+0000001130          1400 MU3112               1BZ
308901000308901               308901               170213A8     1400+00000+A80000005698+0000005698+000000000+000000799+0000006497+0000000000+I40000006497+0000000000+Z
308901001308901368-000049     308901006003000536955PLUSH BEAR 15cm LOVE   0000001000+00004385+00000+0001T   00004385+0000001137          1400 MU3745               1BZ
308901002308901080-000133-A   308901006003000647019MINI VALENTINES CARD   0000001000+00000437+00000+0001T   00000437+0000001137          1400 MU3112               1BZ
308901003308901077-000314     308901006003000181148GIFT-BAG 11X14CM MATT  0000001000+00000876+00000+0001T   00000876+0000001137          1400 MU3112               1BZ
308902000308902               308902               170213A8     1400+00000+A80000005699+0000005699+000000000+000000799+0000006490+0000000008+I20000000000+0000006490+Z
308902001308902024-000002     308902006001023741899S/BURNER-COVER SILV/BLK0000001000+00003946+00000+0001T   00004385+0008191225          1400 MU3300               1BZ
308902002308902306-001130-A   308902006003000359271FIRSTAID SUPPORT ANKLE 0000001000+00001753+00000+0001T   00001753+0000001225          1400 MU3200               1BZ
308903000308903               308903               170213A8     1400+00000+A80000003942+0000003942+000000000+000000552+0000004494+0000000000+I40000004494+0000000000+Z
308903001308903903-000194     308903006009826020616SWT CHOC RP LOLLY 25G  0000003000+00001314+00000+0001T   00001314+0000001228          1400 MU3150               1BZ
308904000308904               308904               170213A8     1400+00000+A80000000700+0000000700+000000000+000000098+0000000790+0000000008+I20000000000+0000000790+Z
308904001308904018-000177     308904006001023797513MUG MINI LOVE ASSTD    0000001000+00000700+00000+0001T   00000700+0000001309          1400 MU3515               1BZ
308905000308905               308905               170213A8     1400+00000+A80000001752+0000001752+000000000+000000246+0000001990+0000000008+I20000000000+0000001990+Z
308905001308905077-000314     308905006003000181148GIFT-BAG 11X14CM MATT  0000002000+00000876+00000+0001T   00000876+0000001335          1400 MU3112               1BZ
308906000308906               308906               170213A8     1400+00000+A80000004067+0000004067+000000000+000000571+0000004630+0000000008+I20000000000+0000004630+Z
308906001308906003-009202     308906006003000405725ORN STONE FLOWERPOT    0000001000+00002630+00000+0001T   00002630+0000001337          1400 MU3505               1BZ
308906002308906105-000750     308906006003000190270CONTAINERS 4xMINI 150ml0000001000+00001402+00000+0001T   00001402+0000001337          1400 MU3210               1BZ
308906003308906112-116038     308906006009681820246TCS CARRIER BAG MIDI   0000001000+00000035+00000+0001T   00000035+0000001337          1400 MU3090               1BZ
308907000308907               308907               170213A8     1400+00000+A80000004240+0000004240+000000000+000000596+0000004836+0000000000+I40000004836+0000000000+Z
308907001308907080-000133-A   308907006003000647019MINI VALENTINES CARD   0000001000+00000437+00000+0001T   00000437+0000001339          1400 MU3112               1BZ
308907002308907040-000210     308907006003000657810CANDLE+HOLDER GLS 6cm  0000002000+00001139+00000+0001T   00001139+0000001339          1400 MU3510               1BZ
308907003308907039-000108     308907006001023524034TEA-LITE CANDLES 8PCE  0000001000+00001490+00000+0001T   00001490+0000001339          1400 MU3510               1BZ
308907004308907112-116038     308907006009681820246TCS CARRIER BAG MIDI   0000001000+00000035+00000+0001T   00000035+0000001339          1400 MU3090               1BZ
308908000308908               308908               170213A8     1400+00000+A80000007486+0000007486+000000000+000001049+0000008530+0000000005+I20000000000+0000008530+Z
308908001308908080-000133-A   308908006003000647019MINI VALENTINES CARD   0000001000+00000437+00000+0001T   00000437+0000001343          1400 MU3112               1AZ
308908002308908089-000018     308908006003000176724KEY CHAIN INSPIRATION  0000001000+00003507+00000+0001T   00003507+0000001343          1400 MU3205               1AZ
308908003308908567-011448     308908009781847506863BK STICKER ANIMALS     0000001000+00003507+00000+0001T   00003507+0000001343          1400 MU3757               1AZ
308908004308908112-116038     308908006009681820246TCS CARRIER BAG MIDI   0000001000+00000035+00000+0001T   00000035+0000001343          1400 MU3090               1AZ
308909000308909               308909               170213A8     1400+00000+A80000003716+0000003716+000000000+000000521+0000004237+0000000000+I40000004237+0000000000+Z
308909001308909077-000011-D   308909006001023808554TISSUE-WRAP WHITE 10PCE0000001000+00000876+00000+0001T   00000876+0000001349          1400 MU3112               1BZ
308909002308909566-001234     308909006003000217793STICKERS LASER ASSTD   0000001000+00001578+00000+0001T   00001578+0000001349          1400 MU3130               1BZ
308909003308909007-000206     308909006009635830215X/PAD 80-SHEETS PUNCHED0000001000+00001227+00000+0001T   00001227+0000001349          1400 MU3130               1BZ
308909004308909112-116038     308909006009681820246TCS CARRIER BAG MIDI   0000001000+00000035+00000+0001T   00000035+0000001349          1400 MU3090               1BZ
308910000308910               308910               170213A8     1400+00000+A80000014062+0000014062+000000000+000001972+0000016034+0000000000+I40000016034+0000000000+Z
308910001308910018-019000     308910006003000557288MUG OCC. LOVE JUMBO    0000001000+00005262+00000+0001T   00005262+0000001351          1400 MU3515               1BZ
308910002308910159-000653     308910006001023688859BATH-SPONGE MESH W/ROPE0000003000+00001753+00000+0001T   00001753+0000001351          1400 MU3200               1BZ
308910003308910565-000888     308910006003000607846NOVELTY MESH BALL      0000002000+00001753+00000+0001T   00001753+0000001351          1400 MU3745               1BZ
308910004308910112-116038     308910006009681820246TCS CARRIER BAG MIDI   0000001000+00000035+00000+0001T   00000035+0000001351          1400 MU3090               1BZ
308911000308911               308911               170213A8     1400+00000+A80000010960+0000010960+000000000+000001535+0000012490+0000000005+I20000000000+0000012490+Z
308911001308911078-000025     308911008887013700064SUPERGLUE 3g 1PCE CARD 0000001000+00000876+00000+0001T   00000876+0000001356          1400 MU3810               1BZ
308911002308911563-000317-B   308911006001023776174SERVIETTES PLN WHT PK400000001000+00001314+00000+0001T   00001314+0000001356          1400 MU3214               1BZ
308911003308911036-000501     308911006003000417407HOOK HANGER CHROME     0000002000+00004385+00000+0001T   00004385+0000001356          1400 MU3212               1BZ
308912000308912               308912               170213A8     1400+00000+A80000003277+0000003277+000000000+000000460+0000003730+0000000007+I20000000000+0000003730+Z
308912001308912077-000314     308912006003000181148GIFT-BAG 11X14CM MATT  0000001000+00000876+00000+0001T   00000876+0000001358          1400 MU3112               1BZ
308912002308912077-000010-F   308912006003453000461CREPE-PAPER BLUE       0000001000+00000788+00000+0001T   00000788+0000001358          1400 MU3112               1BZ
308912003308912077-000315     308912006003000181186GIFT-BAG 20x28cm MATT  0000001000+00001578+00000+0001T   00001578+0000001358          1400 MU3112               1BZ
308912004308912112-116038     308912006009681820246TCS CARRIER BAG MIDI   0000001000+00000035+00000+0001T   00000035+0000001358          1400 MU3090               1BZ
308913000308913               308913               170213A8     1400+00000+A80000002192+0000002192+000000000+000000307+0000002490+0000000009+I20000000000+0000002490+Z
308913001308913566-000068     308913006003000418046POP UP LOVE 2 ASSTD    0000001000+00002192+00000+0001T   00002192+0000001400          1400 MU3130               1AZ
308914000308914               308914               170213A8     1400+00000+A80000002102+0000002102+000000000+000000295+0000002390+0000000007+I20000000000+0000002390+Z
308914001308914077-000310     308914006001023608635GIFT-BAG 18X23CM GLOSS 0000001000+00001314+00000+0001T   00001314+0000001405          1400 MU3112               1BZ
308914002308914903-000200     308914006009826020234SWT CHOC RP CHOCO 23G  0000001000+00000788+00000+0001T   00000788+0000001405          1400 MU3150               1BZ
308915000308915               308915               170213A8     1400+00000+A80000003015+0000003015+000000000+000000423+0000003430+0000000008+I20000000000+0000003430+Z
308915001308915071-003012     308915006001023802996PEN CLICK 10PK BLUE    0000001000+00001753+00000+0001T   00001753+0000001414          1400 MU3130               1BZ
308915002308915007-000206     308915006009635830215X/PAD 80-SHEETS PUNCHED0000001000+00001227+00000+0001T   00001227+0000001414          1400 MU3130               1BZ
308915003308915112-116038     308915006009681820246TCS CARRIER BAG MIDI   0000001000+00000035+00000+0001T   00000035+0000001414          1400 MU3090               1BZ
308916000308916               308916               170213A8     1400+00000+A80000003507+0000003507+000000000+000000491+0000003990+0000000008+I20000000000+0000003990+Z
308916001308916466-000106     308916006003000128112BALL PL 20CM BASKETBALL0000001000+00003507+00000+0001T   00003507+0000001424          1400 MU3785               1BZ
308917000308917               308917               170213A8     1400+00000+A80000010593+0000010593+000000000+000001484+0000012077+0000000000+I40000012077+0000000000+Z
308917001308917566-001501     308917006003000658398STICKER PAPER EMOTION  0000001000+00001753+00000+0001T   00001753+0000001426          1400 MU3130               1BZ
308917002308917007-010501     308917006003000455157WIPE & CHALK 45X35CM   0000001000+00008771+00000+0001T   00008771+0000001426          1400 MU3130               1BZ
308917003308917112-116053     308917006006438002399TCS CARRIER BAG 38L    0000001000+00000069+00000+0001T   00000069+0000001426          1400 MU3090               1BZ
308918000308918               308918               170213A8     1400+00000+A80000000876+0000000876+000000000+000000123+0000000990+0000000009+I20000000000+0000000990+Z
308918001308918077-000314     308918006003000181148GIFT-BAG 11X14CM MATT  0000001000+00000876+00000+0001T   00000876+0000001427          1400 MU3112               1BZ
308919000308919               308919               170213A8     1400+00000+A80000003506+0000003506+000000000+000000492+0000003990+0000000008+I20000000000+0000003990+Z
308919001308919038-000205     308919006001926001205PLACE-MATS PVC ASSTD-C 0000002000+00001753+00000+0001T   00001753+0000001452          1400 MU3300               1BZ
308920000308920               308920               170213A8     1400+00000+A80000000876+0000000876+000000000+000000123+0000000990+0000000009+I20000000000+0000000990+Z
308920001308920007-000045     308920006009608640438DISPLAY-POCKETS A4 10PC0000001000+00000876+00000+0001T   00000876+0000001453          1400 MU3130               1BZ
308921000308921               308921               170213A8     1400+00000+A80000017399+0000017399+000000000+000002437+0000019836+0000000000+I40000019836+0000000000+Z
308921001308921105-007016     308921006003000685059CONTAINER ROUND CLR    0000002000+00002192+00000+0001T   00002192+0000001500          1400 MU3210               1BZ
308921002308921028-000799     308921006001023812186SKEWERS BAMBOO 100PCE  0000001000+00001578+00000+0001T   00001578+0000001500          1400 MU3305               1BZ
308921003308921112-116038     308921006009681820246TCS CARRIER BAG MIDI   0000001000+00000035+00000+0001T   00000035+0000001500          1400 MU3090               1BZ
308921004308921104-000140     308921006002923019835WASTEPAPER BIN FLIP 24L0000001000+00011402+00000+0001T   00011402+0000001500          1400 MU3210               1BZ
308922000308922               308922               170213A8     1400+00000+A80000015433+0000015433+000000000+000002163+0000017596+0000000000+I40000017596+0000000000+Z
308922001308922027-009025     308922006003962000747DUSTPAN-SET PL         0000001000+00002630+00000+0001T   00002630+0000001504          1400 MU3212               1BZ
308922002308922158-000167     308922006003000569588WASTEPAPER-BASKET 26cm 0000001000+00005262+00000+0001T   00005262+0000001504          1400 MU3300               1BZ
308922003308922486-000010     308922006001023544254WALL-CLOCK ROUND 25cm  0000001000+00006139+00000+0001T   00006139+0000001504          1400 MU3510               1BZ
308922004308922046-000011     308922004897006172994BATTERIES SIZE:AA  2PCE0000001000+00001402+00000+0001T   00001402+0000001504          1400 MU3312               1BZ
308923000308923               308923               170213A8     1400+00000+A80000001490+0000001490+000000000+000000209+0000001690+0000000009+I20000000000+0000001690+Z
308923001308923079-006494     308923006003000159864GLITTER GLUE 5PCE 11cm 0000001000+00001490+00000+0001T   00001490+0000001505          1400 MU3130               1BZ
308924000308924               308924               170213A8     1400+00000+A80000005699+0000005699+000000000+000000798+0000006497+0000000000+I40000006497+0000000000+Z
308924001308924368-000049     308924006003000536955PLUSH BEAR 15cm LOVE   0000001000+00004385+00000+0001T   00004385+0000001509          1400 MU3745               1BZ
308924002308924107-004105     308924006009703860984BUCKET 9L OPEN         0000001000+00001314+00000+0001T   00001314+0000001509          1400 MU3210               1BZ
308925000308925               308925               170213A8     1400+00000+A80000001578+0000001578+000000000+000000221+0000001790+0000000009+I20000000000+0000001790+Z
308925001308925566-001234     308925006003000217793STICKERS LASER ASSTD   0000001000+00001578+00000+0001T   00001578+0000001510          1400 MU3130               1BZ
308926000308926               308926               170213A8     1400+00000+A80000017141+0000017141+000000000+000002402+0000019543+0000000000+I40000019543+0000000000+Z
308926001308926018-000130     308926006001023867537MUG OCC LOVE MINI+HEART0000002000+00003507+00000+0001T   00003507+0000001519          1400 MU3515               1BZ
308926002308926018-000170     308926006001023775528MUG OCC. LOVE 2PC MINI 0000001000+00002192+00000+0001T   00002192+0000001519          1400 MU3515               1BZ
308926003308926565-000735     308926006003000615674NOVELTY PUTTY BOUNCING 0000001000+00000700+00000+0001T   00000700+0000001519          1400 MU3745               1BZ
308926004308926077-000318     308926006001023609755GIFT-BAG 18X23CM E/D AN0000001000+00001227+00000+0001T   00001227+0000001519          1400 MU3112               1BZ
308926005308926565-000014     308926006003000671915NOVELTY AIR BALLOON    0000001000+00002630+00000+0001T   00002630+0000001519          1400 MU3745               1BZ
308926006308926079-000601     308926006003000640379ART+CRAFT SHEETS METAL 0000001000+00002630+00000+0001T   00002630+0000001519          1400 MU3130               1BZ
308926007308926565-000256     308926006003000609826NOVELTY GLOW SLIME     0000001000+00000700+00000+0001T   00000700+0000001519          1400 MU3745               1BZ
308926008308926112-116069     308926006009681820277TCS CARRIER BAG JUMBO  0000001000+00000048+00000+0001T   00000048+0000001519          1400 MU3090               1BZ
308927000308927               308927               170213A8     1400+00000+A80000006138+0000006138+000000000+000000860+0000006998+0000000000+I40000006998+0000000000+Z
308927001308927077-000309     308927006001023608604GIFT-BAG 25X32CM GLOSS 0000001000+00001753+00000+0001T   00001753+0000001523          1400 MU3112               1BZ
308927002308927001-000175     308927006001023788108B/MUG GLS LOVE 380ML   0000001000+00004385+00000+0001T   00004385+0000001523          1400 MU3515               1BZ
308928000308928               308928               170213A8     1400+00000+A80000004821+0000004821+000000000+000000676+0000005490+0000000007+I20000000000+0000005490+Z
308928001308928079-006494     308928006003000159864GLITTER GLUE 5PCE 11cm 0000001000+00001490+00000+0001T   00001490+0000001526          1400 MU3130               1BZ
308928002308928079-013032     308928006003000389209SET LETTERS 2 ASSTD    0000001000+00001753+00000+0001T   00001753+0000001526          1400 MU3130               1BZ
308928003308928566-001234     308928006003000217793STICKERS LASER ASSTD   0000001000+00001578+00000+0001T   00001578+0000001526          1400 MU3130               1BZ
308929000308929               308929               170213A8     1400+00000+A80000012278+0000012278+000000000+000001719+0000013997+0000000000+I40000013997+0000000000+Z
308929001308929301-085004     308929006003000420469ORN LOVE PLAQUE 21X10CM0000001000+00003507+00000+0001T   00003946+0006471532          1400 MU3505               1BZ
308929002308929001-091415     308929006003000329113W/GLS OCC. LOVE 2PC 2800000001000+00008771+00000+0001T   00009648+0006471532          1400 MU3515               1BZ
308930000308930               308930               170213A8     1400+00000+A80000003506+0000003506+000000000+000000492+0000003990+0000000008+I20000000000+0000003990+Z
308930001308930366-007601     308930006003000655472DRESS UP MASK THEATRICA0000001000+00000876+00000+0001T   00000876+0000001656          1400 MU3131               1BZ
308930002308930006-006019     308930006001023908193PARTY-SPRAY GLITTER    0000001000+00002630+00000+0001T   00002630+0000001656          1400 MU3131               1BZ
308931000308931               308931               170213A8     1400+00000+A80000002366+0000002366+000000000+000000332+0000002690+0000000008+I20000000000+0000002690+Z
308931001308931566-001234     308931006003000217793STICKERS LASER ASSTD   0000001000+00001578+00000+0001T   00001578+0000001657          1400 MU3130               1BZ
308931002308931903-000200     308931006009826020234SWT CHOC RP CHOCO 23G  0000001000+00000788+00000+0001T   00000788+0000001657          1400 MU3150               1BZ
308932000308932               308932               170213A8     1400+00000+A80000001314+0000001314+000000000+000000184+0000001490+0000000008+I20000000000+0000001490+Z
308932001308932251-000001     308932006001023487681TAPE DBL-SIDE 18x1000mm0000001000+00001314+00000+0001T   00001314+0000001659          1400 MU3810               1BZ
308933000308933               308933               170213A8     1400+00000+A80000004821+0000004821+000000000+000000676+0000005490+0000000007+I20000000000+0000005490+Z
308933001308933566-001234     308933006003000217793STICKERS LASER ASSTD   0000001000+00001578+00000+0001T   00001578+0000001700          1400 MU3130               1BZ
308933002308933079-000807     308933006003000670277ART+CRAFT WOODEN STICKS0000001000+00001490+00000+0001T   00001490+0000001700          1400 MU3130               1BZ
308933003308933079-006522     308933006001023149442ART+CRAFT GLUE ASSORTED0000001000+00001753+00000+0001T   00001753+0000001700          1400 MU3130               1BZ
308934000308934               308934               170213A8     1400+00000+A80000002980+0000002980+000000000+000000418+0000003398+0000000000+I40000003398+0000000000+Z
308934001308934077-000351     308934006003000139033GIFT-BAG 18X23CM E/D P 0000001000+00001753+00000+0001T   00001753+0000001702          1400 MU3112               1BZ
308934002308934077-000245     308934006001023759214GIFT-RIBBON METALLICx2 0000001000+00001227+00000+0001T   00001227+0000001702          1400 MU3112               1BZ
308935000308935               308935               170213A8     1400+00000+A80000004995+0000004995+000000000+000000701+0000005696+0000000000+I40000005696+0000000000+Z
308935001308935077-000010-D   308935006001023123886CREPE-PAPER WHITE      0000001000+00000788+00000+0001T   00000788+0000001705          1400 MU3112               1BZ
308935002308935077-000315     308935006003000181186GIFT-BAG 20x28cm MATT  0000001000+00001578+00000+0001T   00001578+0000001705          1400 MU3112               1BZ
308935003308935077-000351     308935006003000139033GIFT-BAG 18X23CM E/D P 0000001000+00001753+00000+0001T   00001753+0000001705          1400 MU3112               1BZ
308935004308935077-000314     308935006003000181148GIFT-BAG 11X14CM MATT  0000001000+00000876+00000+0001T   00000876+0000001705          1400 MU3112               1BZ
308936000308936               308936               170213A8     1400+00000+A80000007011+0000007011+000000000+000000984+0000007995+0000000000+I40000007995+0000000000+Z
308936001308936206-000590     308936006003000633708BAG CLIPS LIPS 2PC     0000001000+00001753+00000+0001T   00001753+0000001707          1400 MU3321               1BZ
308936002308936206-000620     308936006003000631797BACK SCRATCHER EXTEND  0000001000+00002630+00000+0001T   00002630+0000001707          1400 MU3321               1BZ
308936003308936077-000302     308936008010410010195GIFT-BAG 18X23CM E/D   0000003000+00000876+00000+0001T   00000876+0000001707          1400 MU3112               1BZ
308937000308937               308937               170213A8     1400+00000+A80000001788+0000001788+000000000+000000251+0000002030+0000000009+I20000000000+0000002030+Z
308937001308937088-000084     308937006001023798060P/POURRI 120G ASSTD    0000001000+00001753+00000+0001T   00001753+0000001707          1400 MU3212               1BZ
308937002308937112-116038     308937006009681820246TCS CARRIER BAG MIDI   0000001000+00000035+00000+0001T   00000035+0000001707          1400 MU3090               1BZ
308938000308938               308938               170213A8     1400+00000+A80000000613+0000000613+000000000+000000086+0000000699+0000000000+I40000000699+0000000000+Z
308938001308938304-001011     308938006001023806727FLWR ROSE RED W/BEAR   0000001000+00000613+00000+0001T   00000788+0006471710          1400 MU3510               1BZ
308939000308939               308939               170213A8     1400+00000+A80000012327+0000012327+000000000+000001727+0000014054+0000000000+I40000014054+0000000000+Z
308939001308939368-000111     308939006001023780812PLUSH BEAR/DOG 29CM    0000001000+00012279+00000+0001T   00012279+0000001714          1400 MU3745               1BZ
308939002308939112-116069     308939006009681820277TCS CARRIER BAG JUMBO  0000001000+00000048+00000+0001T   00000048+0000001714          1400 MU3090               1BZ
308940000308940               308940               170213A8     1400+00000+A80000001785+0000001785+000000000+000000251+0000002030+0000000006+I20000000000+0000002030+Z
308940001308940018-000177     308940006001023797513MUG MINI LOVE ASSTD    0000001000+00000700+00000+0001T   00000700+0000001724          1400 MU3515               1BZ
308940002308940304-001011     308940006001023806727FLWR ROSE RED W/BEAR   0000001000+00000613+00000+0001T   00000788+0006471724          1400 MU3510               1BZ
308940003308940112-116038     308940006009681820246TCS CARRIER BAG MIDI   0000001000+00000035+00000+0001T   00000035+0000001724          1400 MU3090               1BZ
308940004308940080-000133-A   308940006003000647019MINI VALENTINES CARD   0000001000+00000437+00000+0001T   00000437+0000001724          1400 MU3112               1BZ
308941000308941               308941               170213A8     1400+00000+A80000004645+0000004645+000000000+000000651+0000005296+0000000000+I40000005296+0000000000+Z
308941001308941251-000071     308941006003000451890PROTECTION-PADS BLK ADH0000001000+00001753+00000+0001T   00001753+0000001725          1400 MU3810               1BZ
308941002308941566-000068     308941006003000418046POP UP LOVE 2 ASSTD    0000001000+00002192+00000+0001T   00002192+0000001725          1400 MU3130               1BZ
308941003308941566-002000     308941000721129013206STICKERS CRYSTAL ASSTD 0000001000+00000700+00000+0001T   00000700+0000001725          1400 MU3130               1BZ
308942000308942               308942               170213A8     1400+00000+A80000001050+0000001050+000000000+000000148+0000001198+0000000000+I40000001198+0000000000+Z
308942001308942304-001011     308942006001023806727FLWR ROSE RED W/BEAR   0000001000+00000613+00000+0001T   00000788+0006471727          1400 MU3510               1BZ
308942002308942080-000133-A   308942006003000647019MINI VALENTINES CARD   0000001000+00000437+00000+0001T   00000437+0000001727          1400 MU3112               1BZ
308943000308943               308943               170213A8     1400+00000+A80000020631+0000020631+000000000+000002891+0000023522+0000000000+I40000023522+0000000000+Z
308943001308943566-000068     308943006003000418046POP UP LOVE 2 ASSTD    0000001000+00002192+00000+0001T   00002192+0000001729          1400 MU3130               1BZ
308943002308943071-005060     308943006003000152186CELLOTAPE 2PACK INVSBLE0000001000+00003507+00000+0001T   00003507+0000001729          1400 MU3130               1BZ
308943003308943903-000861     308943005010478430822SWT LOVE HEARTS SML    0000006000+00000876+00000+0001T   00000876+0000001729          1400 MU3150               1BZ
308943004308943903-000194     308943006009826020616SWT CHOC RP LOLLY 25G  0000003000+00001314+00000+0001T   00001314+0000001729          1400 MU3150               1BZ
308943005308943566-000068     308943006003000418046POP UP LOVE 2 ASSTD    0000001000+00002192+00000+0001T   00002192+0000001729          1400 MU3130               1BZ
308943006308943007-000325     308943006009698066514PAPER A4 160GSM 25SHTS 0000001000+00003507+00000+0001T   00003507+0000001729          1400 MU3130               1BZ
308943007308943112-116038     308943006009681820246TCS CARRIER BAG MIDI   0000001000+00000035+00000+0001T   00000035+0000001729          1400 MU3090               1BZ
308944000308944               308944               170213A8     1400+00000+A80000002278+0000002278+000000000+000000320+0000002590+0000000008+I20000000000+0000002590+Z
308944001308944039-000322     308944006001023524157B/CANDLES W/HOLDERS 24 0000001000+00001139+00000+0001T   00001139+0000001731          1400 MU3510               1BZ
308944002308944206-000530     308944006003000620821BIRTHDAY CANDLES 6PC   0000001000+00001139+00000+0001T   00001753+0008181731          1400 MU3321               1BZ
308945000308945               308945               170213A8     1400+00000+A80000004556+0000004556+000000000+000000640+0000005190+0000000006+I20000000000+0000005190+Z
308945001308945903-000087     308945006001704000161SWT SPECKLED-EGGS 50G  0000004000+00001139+00000+0001T   00001139+0000001732          1400 MU3150               1BZ
308946000308946               308946               170213A8     1400+00000+A80000003979+0000003979+000000000+000000558+0000004530+0000000007+I20000000000+0000004530+Z
308946001308946080-000133-A   308946006003000647019MINI VALENTINES CARD   0000001000+00000437+00000+0001T   00000437+0000001733          1400 MU3112               1BZ
308946002308946018-000136     308946006001023659026MUG OCC LOVE W/PLUSH   0000001000+00003507+00000+0001T   00003507+0000001733          1400 MU3515               1BZ
308946003308946112-116038     308946006009681820246TCS CARRIER BAG MIDI   0000001000+00000035+00000+0001T   00000035+0000001733          1400 MU3090               1BZ
308947000308947               308947               170213A8     1400+00000+A80000000700+0000000700+000000000+000000098+0000000790+0000000008+I20000000000+0000000790+Z
308947001308947566-002000     308947000721129013206STICKERS CRYSTAL ASSTD 0000001000+00000700+00000+0001T   00000700+0000001747          1400 MU3130               1BZ
308948000308948               308948               170213A8     1400+00000+A80000003069+0000003069+000000000+000000430+0000003490+0000000009+I20000000000+0000003490+Z
308948001308948174-008026     308948006009654960429TRAVEL BOTTLES 2-PACK  0000001000+00003069+00000+0001T   00003069+0000001749          1400 MU3205               1BZ
308949000308949               308949               170213A8     1400+00000+A80000003944+0000003944+000000000+000000553+0000004497+0000000000+I40000004497+0000000000+Z
308949001308949072-020254     308949006001023775962PET DOG CHEW BALL 6cm  0000001000+00003507+00000+0001T   00003507+0000001753          1400 MU3870               1BZ
308949002308949080-000133-A   308949006003000647019MINI VALENTINES CARD   0000001000+00000437+00000+0001T   00000437+0000001753          1400 MU3112               1BZ
308950000308950               308950               170213A8     1400+00000+A80000013538+0000013538+000000000+000001897+0000015430+0000000005+I20000000000+0000015430+Z
308950001308950301-085001     308950006003000297610ORN WATERBALL LOVE ASST0000001000+00004823+00000+0001T   00004823+0000001756          1400 MU3505               1BZ
308950002308950018-000130     308950006001023867537MUG OCC LOVE MINI+HEART0000001000+00003507+00000+0001T   00003507+0000001756          1400 MU3515               1BZ
308950003308950001-000175     308950006001023788108B/MUG GLS LOVE 380ML   0000001000+00004385+00000+0001T   00004385+0000001756          1400 MU3515               1BZ
308950004308950903-000200     308950006009826020234SWT CHOC RP CHOCO 23G  0000001000+00000788+00000+0001T   00000788+0000001756          1400 MU3150               1BZ
308950005308950112-116038     308950006009681820246TCS CARRIER BAG MIDI   0000001000+00000035+00000+0001T   00000035+0000001756          1400 MU3090               1BZ
308951000308951               308951               170213A8     1400+00000+A80000002278+0000002278+000000000+000000320+0000002590+0000000008+I20000000000+0000002590+Z
308951001308951903-000087     308951006001704000161SWT SPECKLED-EGGS 50G  0000002000+00001139+00000+0001T   00001139+0000001757          1400 MU3150               1BZ
308952000308952               308952               170213A8     1400+00000+A80000008801+0000008801+000000000+000001234+0000010030+0000000005+I20000000000+0000010030+Z
308952001308952040-000209     308952006003000673872C/HOLDER GLS CLEAR 6.5 0000004000+00000876+00000+0001T   00000876+0000001805          1400 MU3510               1AZ
308952002308952039-082106     308952006001023847348C/VOTIVE 8PC VANILLA   0000001000+00005262+00000+0001T   00005262+0000001805          1400 MU3510               1AZ
308952003308952112-116038     308952006009681820246TCS CARRIER BAG MIDI   0000001000+00000035+00000+0001T   00000035+0000001805          1400 MU3090               1AZ
308953000308953               308953               170213A8     1400+00000+A80000007893+0000007893+000000000+000001106+0000008990+0000000009+I20000000000+0000008990+Z
308953001308953301-085007     308953006003000673698ORN OCC. LOVE S/PLAQUE 0000001000+00007893+00000+0001T   00007893+0000001808          1400 MU3505               1BZ
308954000308954               308954               170213A8     1400+00000+A80000000613+0000000613+000000000+000000086+0000000690+0000000009+I20000000000+0000000690+Z
308954001308954304-001011     308954006001023806727FLWR ROSE RED W/BEAR   0000001000+00000613+00000+0001T   00000788+0006471810          1400 MU3510               1BZ
308955000308955               308955               170213A8     1400+00000+A80000013152+0000013152+000000000+000001842+0000014990+0000000004+I20000000000+0000014990+Z
308955001308955200-000020     308955006925406841030BAG ZIPPERSEAL 25PC    0000006000+00002192+00000+0001T   00002192+0000001812          1400 MU3214               1DZ
A17021300                                          17124665A8SLAVE 1                       MU31IC
M17021391                              CASH        A8SLAVE 1                       Z-REPORT No.   231TOTAL (Sales - Refunds)           3961.38       CASH TO BE BANKED                 1687.00       DEBIT CARDS                          0.00       CREDIT CARDS                      2274.38       Z-READING                         3961.38       AIRTIME DEBIT CARD SALES             0.00       AIRTIME CARD SALES                   0.00       OVERS/UNDERS                         0.00       AIRTIME CASH SALES                   0.00       GIFT CARDS                           0.00       GIFT CARD CASH SALES                 0.00       T O T A L  CASH PAYOUTS              0.00                                                                                                                                                                                                                                                                                                                                                      Z
M17021392                              CASH        A8ABSENT                                                                                                                                                                                          ANNUAL LEAVE                                                                                                                                                                                    DAY OFF                                                                                                                                                                                         COMMENTS                                                                                                                                                                                                                                                                                                                                                                                       Z
Y17021300                                          A800000000347705+000065
ZA817021319173 SLAVE 1      SALES DATA                     NEXT INVOICE NO.  308956 0231
F093707496-028122         1701190904440000021ICSLAVE 1
F093993496-028142         1701190906160000011ICSLAVE 1
X A8 Slave 1 First invoice 308891 170213 Last invoice 308955 170213 Next invoice 308956 Total number of records 000000225 clbackup completed 19:17:25
