409030000409030               409030               170213A8     1400+00000+A80000006135+0000006135+000000000+000000860+0000006990+0000000005+I20000000000+0000006990+Z
409030001409030007-000325     409030006009698066514PAPER A4 160GSM 25SHTS 0000001000+00003507+00000+0001T   00003507+0000000811          1400 TE5130               2AZ
409030002409030007-000045     409030006009608640438DISPLAY-POCKETS A4 10PC0000003000+00000876+00000+0001T   00000876+0000000811          1400 TE5130               2AZ
409031000409031               409031               170213A8     1400+00000+A80000011401+0000011401+000000000+000001597+0000012998+0000000000+I40000012998+0000000000+Z
409031001409031072-020350     409031006001023598035PET DOG/CAT BOWL DOUBLE0000001000+00002630+00000+0001T   00002630+0000000955          1400 TE5870               2AZ
409031002409031072-020242     409031006003000053728PET BED COTTON TEXTILE 0000001000+00008771+00000+0001T   00008771+0000000955          1400 TE5870               2AZ
409032000409032               409032               170213A8     1400+00000+A80000005297+0000005297+000000000+000000742+0000006030+0000000009+I20000000000+0000006030+Z
409032001409032112-116038     409032006009681820246TCS CARRIER BAG MIDI   0000001000+00000035+00000+0001T   00000035+0000001029          1400 TE5090               2AZ
409032002409032024-000165-B   409032006003000674190N/STICK ROUND PIE PAN  0000001000+00005262+00000+0001T   00005262+0000001029          1400 TE5300               2AZ
409033000409033               409033               170213A8     1400+00000+A80000002455+0000002455+000000000+000000344+0000002790+0000000009+I20000000000+0000002790+Z
409033001409033105-001079     409033000700371655921CONTAINER 2.2L CLIP LOC0000001000+00002455+00000+0001T   00002455+0000001031          1400 TE5210               2AZ
409034000409034               409034               170213A8     1400+00000+A80000000876+0000000876+000000000+000000123+0000000990+0000000009+I20000000000+0000000990+Z
409034001409034078-000025     409034008887013700064SUPERGLUE 3g 1PCE CARD 0000001000+00000876+00000+0001T   00000876+0000001042          1400 TE5810               2AZ
409035000409035               409035               170213A8     1400+00000+A80000005259+0000005259+000000000+000000738+0000005990+0000000007+I20000000000+0000005990+Z
409035001409035903-000619     409035006003000672455SWT LOLLY STR/BRRY 140G0000001000+00001753+00000+0001T   00001753+0000001047          1400 TE5150               2AZ
409035002409035903-000618     409035006003000672370SWT LOLLY RAINBOW GIANT0000002000+00001753+00000+0001T   00001753+0000001047          1400 TE5150               2AZ
409036000409036               409036               170213A8     1400+00000+A80000000788+0000000788+000000000+000000111+0000000890+0000000009+I20000000000+0000000890+Z
409036001409036903-000200     409036006009826020234SWT CHOC RP CHOCO 23G  0000001000+00000788+00000+0001T   00000788+0000001048          1400 TE5150               2AZ
409037000409037               409037               170213A8     1400+00000+A80000007925+0000007925+000000000+000001110+0000009035+0000000000+I40000009035+0000000000+Z
409037001409037112-116038     409037006009681820246TCS CARRIER BAG MIDI   0000001000+00000035+00000+0001T   00000035+0000001205          1400 TE5090               2AZ
409037002409037018-000127     409037006001023380289MUG OCC STRAIGHT LOVE  0000005000+00001578+00000+0001T   00001753+0006471205          1400 TE5515               2AZ
409038000409038               409038               170213A8     1400+00000+A80000006488+0000006488+000000000+000000909+0000007397+0000000000+I40000007397+0000000000+Z
409038001409038264-000915     409038000090159151074MAISTO FRESH PAINT     0000001000+00004385+00000+0001T   00004385+0000001246          1400 TE5710               2AZ
409038002409038077-000011-C   409038006001023808523TISSUE 10xSHTS RED     0000001000+00000876+00000+0001T   00000876+0000001246          1400 TE5112               2AZ
409038003409038077-000245     409038006001023759214GIFT-RIBBON METALLICx2 0000001000+00001227+00000+0001T   00001227+0000001246          1400 TE5112               2AZ
409039000409039               409039               170213A8     1400+00000+A80000002630+0000002630+000000000+000000369+0000002990+0000000009+I20000000000+0000002990+Z
409039001409039018-000129     409039006001023403353MUG OCC. LOVE V-SHAPE  0000001000+00002630+00000+0001T   00002630+0000001258          1400 TE5515               2AZ
409040000409040               409040               170213A8     1400+00000+A80000018480+0000018480+000000000+000002590+0000021070+0000000000+I40000021070+0000000000+Z
409040001409040112-116053     409040006006438002399TCS CARRIER BAG 38L    0000001000+00000069+00000+0001T   00000069+0000001425          1400 TE5090               2AZ
409040002409040466-001017     409040006003000590544CRICKET-BAT PL W/BALL  0000002000+00003507+00000+0001T   00003507+0000001425          1400 TE5785               2AZ
409040003409040567-011448     409040009781847506863BK STICKER ANIMALS     0000001000+00003507+00000+0001T   00003507+0000001425          1400 TE5757               2AZ
409040004409040567-011388     409040009781405374156BK RELIGIOUS STICKER   0000001000+00002630+00000+0001T   00003507+0008141425          1400 TE5757               2AZ
409040005409040567-011387     409040009781405374125BK RELIGIOUS STICKER   0000001000+00002630+00000+0001T   00003507+0008141425          1400 TE5757               2AZ
409040006409040567-011386     409040009781405374132BK RELIGIOUS STICKER   0000001000+00002630+00000+0001T   00003507+0008141425          1400 TE5757               2AZ
409041000409041               409041               170213A8     1400+00000+A80000004382+0000004382+000000000+000000615+0000004990+0000000007+I20000000000+0000004990+Z
409041001409041077-000316-A   409041006003000681457GIFT-BAG METALLIC PPR  0000001000+00002630+00000+0001T   00002630+0000001426          1400 TE5112               2AZ
409041002409041077-000011-D   409041006001023808554TISSUE-WRAP WHITE 10PCE0000001000+00000876+00000+0001T   00000876+0000001426          1400 TE5112               2AZ
409041003409041077-000011-R   409041006001023808462P/TISSUE DARK 10-SHEETS0000001000+00000876+00000+0001T   00000876+0000001426          1400 TE5112               2AZ
409042000409042               409042               170213A8     1400+00000+A80000008771+0000008771+000000000+000001228+0000009999+0000000000+I40000009999+0000000000+Z
409042001409042031-000924     409042006001023669964P/FRAME COLLAGE PL     0000001000+00008771+00000+0001T   00008771+0000001442          1400 TE5510               2AZ
409043000409043               409043               170213A8     1400+00000+A80000004385+0000004385+000000000+000000614+0000004999+0000000000+I40000004999+0000000000+Z
409043001409043368-000049     409043006003000536955PLUSH BEAR 15cm LOVE   0000001000+00004385+00000+0001T   00004385+0000001443          1400 TE5745               2AZ
409044000409044               409044               170213A8     1400+00000+A80000003713+0000003713+000000000+000000521+0000004234+0000000000+I40000004234+0000000000+Z
409044001409044112-116038     409044006009681820246TCS CARRIER BAG MIDI   0000001000+00000035+00000+0001T   00000035+0000001451          1400 TE5090               2AZ
409044002409044304-001011     409044006001023806727FLWR ROSE RED W/BEAR   0000006000+00000613+00000+0001T   00000788+0006471451          1400 TE5510               2AZ
409045000409045               409045               170213A8     1400+00000+A80000000613+0000000613+000000000+000000086+0000000690+0000000009+I20000000000+0000000690+Z
409045001409045304-001011     409045006001023806727FLWR ROSE RED W/BEAR   0000001000+00000613+00000+0001T   00000788+0006471454          1400 TE5510               2AZ
409046000409046               409046               170213A8     1400+00000+A80000014021+0000014021+000000000+000001965+0000015980+0000000006+I20000000000+0000015980+Z
409046001409046077-000351     409046006003000139033GIFT-BAG 18X23CM E/D P 0000001000+00001753+00000+0001T   00001753+0000001458          1400 TE5112               2AZ
409046002409046368-000001     409046006003000097982Plush Bear 25cm        0000001000+00004385+00000+0001T   00004385+0000001458          1400 TE5745               2AZ
409046003409046080-000133-A   409046006003000647019MINI VALENTINES CARD   0000001000+00000437+00000+0001T   00000437+0000001458          1400 TE5112               2AZ
409046004409046903-000194     409046006009826020616SWT CHOC RP LOLLY 25G  0000005000+00001314+00000+0001T   00001314+0000001458          1400 TE5150               2AZ
409046005409046077-000011-C   409046006001023808523TISSUE 10xSHTS RED     0000001000+00000876+00000+0001T   00000876+0000001458          1400 TE5112               2AZ
409047000409047               409047               170213A8     1400+00000+A80000000788+0000000788+000000000+000000111+0000000890+0000000009+I20000000000+0000000890+Z
409047001409047903-000200     409047006009826020234SWT CHOC RP CHOCO 23G  0000001000+00000788+00000+0001T   00000788+0000001503          1400 TE5150               2AZ
409048000409048               409048               170213A8     1400+00000+A80000004383+0000004383+000000000+000000615+0000004990+0000000008+I20000000000+0000004990+Z
409048001409048037-000006     409048006003000171996ASHTRAY PL TUB GIANT   0000001000+00002630+00000+0001T   00003069+0008191504          1400 TE5515               2AZ
409048002409048362-000299     409048006003000654758HAIR CLIPS METAL WORDS 0000001000+00001753+00000+0001T   00001753+0000001504          1400 TE5160               2AZ
409049000409049               409049               170213A8     1400+00000+A80000006136+0000006136+000000000+000000861+0000006990+0000000007+I20000000000+0000006990+Z
409049001409049038-092232     409049006001023625830TABLE-MAT N/SLIP 32x55 0000002000+00001753+00000+0001T   00001753+0000001505          1400 TE5300               2AZ
409049002409049034-078810     409049006001023856838DIAPER DISPOSE-BAGSx1000000001000+00002630+00000+0001T   00002630+0000001505          1400 TE5215               2AZ
409050000409050               409050               170213A8     1400+00000+A80000005295+0000005295+000000000+000000743+0000006030+0000000008+I20000000000+0000006030+Z
409050001409050112-116038     409050006009681820246TCS CARRIER BAG MIDI   0000001000+00000035+00000+0001T   00000035+0000001529          1400 TE5090               2AZ
409050002409050027-000090     409050006001023588265WINDOW-CLEANER LONG-HND0000001000+00002630+00000+0001T   00002630+0000001529          1400 TE5212               2AZ
409050003409050079-000201     409050006003000161430P/CRAYONS THERAPY 10PCE0000001000+00002630+00000+0001T   00002630+0000001529          1400 TE5130               2AZ
409051000409051               409051               170213A8     1400+00000+A80000000613+0000000613+000000000+000000086+0000000690+0000000009+I20000000000+0000000690+Z
409051001409051304-001011     409051006001023806727FLWR ROSE RED W/BEAR   0000001000+00000613+00000+0001T   00000788+0006471531          1400 TE5510               2AZ
409052000409052               409052               170213A8     1400+00000+A80000004997+0000004997+000000000+000000700+0000005697+0000000000+I40000005697+0000000000+Z
409052001409052012-000002     409052006003000331079MICRO PLATE-COVER 26X9 0000001000+00003507+00000+0001T   00003507+0000001537          1400 TE5300               2AZ
409052002409052089-000141-H   409052006001023416568KEY-CHAINS 6PCE     H&H0000001000+00001490+00000+0001T   00001490+0000001537          1400 TE5205               2AZ
409053000409053               409053               170213A8     1400+00000+A80000003892+0000003892+000000000+000000546+0000004438+0000000000+I40000004438+0000000000+Z
409053001409053112-116038     409053006009681820246TCS CARRIER BAG MIDI   0000001000+00000035+00000+0001T   00000035+0000001538          1400 TE5090               2AZ
409053002409053071-081091     409053006001151010287STAED/GENKEM ALL-STICK 0000001000+00001227+00000+0001T   00001227+0000001538          1400 TE5130               2AZ
409053003409053079-013101     409053006001023863706CRAFT SET DIY PIPE-CLNR0000001000+00002630+00000+0001T   00002630+0000001538          1400 TE5130               2AZ
409054000409054               409054               170213A8     1400+00000+A80000001051+0000001051+000000000+000000148+0000001190+0000000009+I20000000000+0000001190+Z
409054001409054903-002891     409054008935001721376MENTOS GUM WINTERGREEN 0000001000+00001051+00000+0001T   00001051+0000001539          1400 TE5150               2AZ
409055000409055               409055               170213A8     1400+00000+A80000000437+0000000437+000000000+000000062+0000000499+0000000000+I40000000499+0000000000+Z
409055001409055080-000133-A   409055006003000647019MINI VALENTINES CARD   0000001000+00000437+00000+0001T   00000437+0000001540          1400 TE5112               2AZ
409056000409056               409056               170213A8     1400+00000+A80000003944+0000003944+000000000+000000553+0000004490+0000000007+I20000000000+0000004490+Z
409056001409056089-000018     409056006003000176724KEY CHAIN INSPIRATION  0000001000+00003507+00000+0001T   00003507+0000001541          1400 TE5205               2AZ
409056002409056080-000133-A   409056006003000647019MINI VALENTINES CARD   0000001000+00000437+00000+0001T   00000437+0000001541          1400 TE5112               2AZ
409057000409057               409057               170213A8     1400+00000+A80000004206+0000004206+000000000+000000589+0000004795+0000000000+I40000004795+0000000000+Z
409057001409057903-000194     409057006009826020616SWT CHOC RP LOLLY 25G  0000002000+00001314+00000+0001T   00001314+0000001556          1400 TE5150               2AZ
409057002409057566-001234     409057006003000217793STICKERS LASER ASSTD   0000001000+00001578+00000+0001T   00001578+0000001556          1400 TE5130               2AZ
409058000409058               409058               170213A8     1400+00000+A80000000437+0000000437+000000000+000000062+0000000490+0000000009+I20000000000+0000000490+Z
409058001409058080-000133-A   409058006003000647019MINI VALENTINES CARD   0000001000+00000437+00000+0001T   00000437+0000001610          1400 TE5112               2AZ
409059000409059               409059               170213A8     1400+00000+A80000035086+0000035086+000000000+000004913+0000039999+0000000000+I40000039999+0000000000+Z
409059001409059022-010590     409059006003000624515ROASTER ENAMEL 30cm OVL0000001000+00035086+00000+0001T   00035086+0000001612          1400 TE5305               2AZ
409060000409060               409060               170213A8     1400+00000+A80000001578+0000001578+000000000+000000221+0000001790+0000000009+I20000000000+0000001790+Z
409060001409060080-000124     409060006003000297733CARD & ENV VALENTINES  0000001000+00001578+00000+0001T   00001578+0000001612          1400 TE5112               2AZ
409061000409061               409061               170213A8     1400+00000+A80000000613+0000000613+000000000+000000086+0000000690+0000000009+I20000000000+0000000690+Z
409061001409061304-001011     409061006001023806727FLWR ROSE RED W/BEAR   0000001000+00000613+00000+0001T   00000788+0006471613          1400 TE5510               2AZ
409062000409062               409062               170213A8     1400+00000+A80000008010+0000008010+000000000+000001124+0000009134+0000000000+I40000009134+0000000000+Z
409062001409062112-116038     409062006009681820246TCS CARRIER BAG MIDI   0000001000+00000035+00000+0001T   00000035+0000001620          1400 TE5090               2AZ
409062002409062018-019000     409062006003000557288MUG OCC. LOVE JUMBO    0000001000+00005262+00000+0001T   00005262+0000001620          1400 TE5515               2AZ
409062003409062903-000200     409062006009826020234SWT CHOC RP CHOCO 23G  0000002000+00000788+00000+0001T   00000788+0000001620          1400 TE5150               2AZ
409062004409062018-000177     409062006001023797513MUG MINI LOVE ASSTD    0000001000+00000700+00000+0001T   00000700+0000001620          1400 TE5515               2AZ
409062005409062080-000133-A   409062006003000647019MINI VALENTINES CARD   0000001000+00000437+00000+0001T   00000437+0000001620          1400 TE5112               2AZ
409063000409063               409063               170213A8     1400+00000+A80000017542+0000017542+000000000+000002456+0000019998+0000000000+I40000019998+0000000000+Z
409063001409063031-007010     409063006003000467945P/FRAME WDN CERTIFICATE0000002000+00008771+00000+0001T   00008771+0000001621          1400 TE5510               2AZ
409064000409064               409064               170213A8     1400+00000+A80000000613+0000000613+000000000+000000086+0000000690+0000000009+I20000000000+0000000690+Z
409064001409064077-000311     409064006001023608666GIFT-BAG 11X14CM GLOSS 0000001000+00000613+00000+0001T   00000613+0000001625          1400 TE5112               2AZ
409065000409065               409065               170213A8     1400+00000+A80000001402+0000001402+000000000+000000197+0000001590+0000000009+I20000000000+0000001590+Z
409065001409065105-000750     409065006003000190270CONTAINERS 4xMINI 150ml0000001000+00001402+00000+0001T   00001402+0000001632          1400 TE5210               2AZ
409066000409066               409066               170213A8     1400+00000+A80000001578+0000001578+000000000+000000221+0000001790+0000000009+I20000000000+0000001790+Z
409066001409066018-000127     409066006001023380289MUG OCC STRAIGHT LOVE  0000001000+00001578+00000+0001T   00001753+0006471633          1400 TE5515               2AZ
409067000409067               409067               170213A8     1400+00000+A80000001801+0000001801+000000000+000000253+0000002050+0000000004+I20000000000+0000002050+Z
409067001409067112-116069     409067006009681820277TCS CARRIER BAG JUMBO  0000001000+00000048+00000+0001T   00000048+0000001635          1400 TE5090               2AZ
409067002409067077-000472     409067006003000330133G-BAG DESGNR LRG 25X32 0000001000+00001753+00000+0001T   00001753+0000001635          1400 TE5112               2AZ
409068000409068               409068               170213A8     1400+00000+A80000002364+0000002364+000000000+000000333+0000002690+0000000007+I20000000000+0000002690+Z
409068001409068903-000200     409068006009826020234SWT CHOC RP CHOCO 23G  0000003000+00000788+00000+0001T   00000788+0000001647          1400 TE5150               2AZ
409069000409069               409069               170213A8     1400+00000+A80000006663+0000006663+000000000+000000933+0000007590+0000000006+I20000000000+0000007590+Z
409069001409069031-005853     409069006003000442416P/FRAME WDN TWIN HEARTS0000001000+00003507+00000+0001T   00003507+0000001651          1400 TE5510               2AZ
409069002409069018-000127     409069006001023380289MUG OCC STRAIGHT LOVE  0000001000+00001578+00000+0001T   00001753+0006471651          1400 TE5515               2AZ
409069003409069077-000323     409069006001023677563G/BAG 25X32CM E/DAY FLO0000001000+00001578+00000+0001T   00001578+0000001651          1400 TE5112               2AZ
409070000409070               409070               170213A8     1400+00000+A80000002630+0000002630+000000000+000000369+0000002999+0000000000+I40000002999+0000000000+Z
409070001409070403-000502-A   409070006003000467099M/BANK TIN 8x12.5cm    0000001000+00002630+00000+0001T   00002630+0000001656          1400 TE5510               2AZ
M17021391                              CASH        A8SLAVE 2                       Z-REPORT No.   232TOTAL (Sales - Refunds)           2502.61       CASH TO BE BANKED                  929.70       DEBIT CARDS                          0.00       CREDIT CARDS                      1572.91       Z-READING                         2502.61       AIRTIME DEBIT CARD SALES             0.00       AIRTIME CARD SALES                   0.00       OVERS/UNDERS                         0.00       AIRTIME CASH SALES                   0.00       GIFT CARDS                           0.00       GIFT CARD CASH SALES                 0.00       T O T A L  CASH PAYOUTS              0.00                                                                                                                                                                                                                                                                                                                                                      Z
M17021392                              CASH        A8ABSENT                                                                                                                                                                                          ANNUAL LEAVE                                                                                                                                                                                    DAY OFF                                                                                                                                                                                         COMMENTS                                                                                                                                                                                                                                                                                                                                                                                       Z
Y17021300                                          A800000000219678+000041
ZA817021319173 SLAVE 2      SALES DATA                     NEXT INVOICE NO.  409071 0232
F093707496-028122         1701190906540000021ICSLAVE 2
F093993496-028142         1701190907300000011ICSLAVE 2
