204856000204856               204856               170213A9     1400+00000+A90000000001-0000000001-000000000+000000001-0000000010-0000000008+I20000000000+0000000010-Z
204856001204856368-000111     204856006001023780812PLUSH BEAR/DOG 29CM    0000001000-00012279+00000+0001T   00012279+0000000925          1400 2IC7451IC            1 Z
204856002204856079-000116     204856006001023907592ART PAINT-BY-NUMB 12PCE0000001000+00003507+00000+0001T   00003507+0000000925          1400 2IC130               1 Z
204856003204856079-000198     204856006003000542475ART+CRAFT SET 66PCE    0000001000+00008771+00000+0001T   00008771+0000000925          1400 2IC130               1 Z
204857000204857               204857               170213A9     1400+00000+A90000009152+0000009152+000000000+000001283+0000010430+0000000005+I20000000000+0000010430+Z
204857001204857083-000058     204857006003000400331LIGHTER JET CIGAR REFIL0000001000+00002630+00000+0001T   00002630+0000001145          1400 2IC315               1AZ
204857002204857080-000124     204857006003000297733CARD & ENV VALENTINES  0000003000+00001578+00000+0001T   00001578+0000001145          1400 2IC112               1AZ
204857003204857112-116038     204857006009681820246TCS CARRIER BAG MIDI   0000001000+00000035+00000+0001T   00000035+0000001145          1400 2IC090               1AZ
204857004204857077-000116     204857006003000240777GIFT-WRAP 700mmx2m COL 0000001000+00001753+00000+0001T   00001753+0000001145          1400 2IC112               1AZ
204858000204858               204858               170213A9     1400+00000+A90000000262+0000000262+000000000+000000037+0000000290+0000000009+I20000000000+0000000290+Z
204858001204858007-000405     204858006009635830369EXERCISE-BOOK A5 72PAGE0000001000+00000262+00000+0001T   00000262+0000001150          1400 2IC130               1AZ
204859000204859               204859               170213A9     1400+00000+A90000003331+0000003331+000000000+000000467+0000003790+0000000008+I20000000000+0000003790+Z
204859001204859566-001234     204859006003000217793STICKERS LASER ASSTD   0000001000+00001578+00000+0001T   00001578+0000001155          1400 2IC130               1AZ
204859002204859566-000065     204859006003000217915STICKERS GLITTER ASSTD 0000001000+00001753+00000+0001T   00001753+0000001155          1400 2IC130               1AZ
204860000204860               204860               170213A9     1400+00000+A90000007450+0000007450+000000000+000001045+0000008490+0000000005+I20000000000+0000008490+Z
204860001204860150-001222     204860006001023495334PLATE-STAND TRANSPARENT0000005000+00001490+00000+0001T   00001490+0000001202          1400 2IC810               1AZ
204861000204861               204861               170213A9     1400+00000+A90000003977+0000003977+000000000+000000558+0000004535+0000000000+I40000004535+0000000000+Z
204861001204861031-000878-A   204861006001023798985P/FRAME 10x15cm PL-SLID0000003000+00000876+00000+0001T   00000876+0000001215          1400 2IC510               1AZ
204861002204861112-116038     204861006009681820246TCS CARRIER BAG MIDI   0000001000+00000035+00000+0001T   00000035+0000001215          1400 2IC090               1AZ
204861003204861903-000194     204861006009826020616SWT CHOC RP LOLLY 25G  0000001000+00001314+00000+0001T   00001314+0000001215          1400 2IC150               1AZ
204862000204862               204862               170213A9     1400+00000+A90000019116+0000019116+000000000+000002678+0000021794+0000000000+I40000021794+0000000000+Z
204862001204862200-003024     204862006001023657299REFUSE BAGS 20PCE BLACK0000001000+00001753+00000+0001T   00001753+0000001216          1400 2IC214               1AZ
204862002204862564-000012     204862006001023130075BUBBLE BOTTLE MAGIC    0000001000+00000700+00000+0001T   00000700+0000001216          1400 2IC131               1AZ
204862003204862464-000106     204862006001023171153PLAYING-CARDS (SINGLE) 0000001000+00001490+00000+0001T   00001490+0000001216          1400 2IC785               1AZ
204862004204862046-000014     204862006001023725387BATTERIES SIZE:AAA 4PCE0000001000+00001139+00000+0001T   00001139+0000001216          1400 2IC312               1AZ
204862005204862496-057105     204862000078257571055INTEX POOL BABY GIRAFFE0000001000+00014034+00000+0001T   00014034+0000001216          1400 2IC787               1AZ
204863000204863               204863               170213A9     1400+00000+A90000001402+0000001402+000000000+000000197+0000001590+0000000009+I20000000000+0000001590+Z
204863001204863105-000750     204863006003000190270CONTAINERS 4xMINI 150ml0000001000+00001402+00000+0001T   00001402+0000001218          1400 2IC210               1AZ
204864000204864               204864               170213A9     1400+00000+A90000006139+0000006139+000000000+000000860+0000006999+0000000000+I40000006999+0000000000+Z
204864001204864007-000323     204864006009697791042PAPER A4 80GSM 100'S   0000001000+00006139+00000+0001T   00006139+0000001226          1400 2IC130               1AZ
204865000204865               204865               170213A9     1400+00000+A90000001753+0000001753+000000000+000000246+0000001990+0000000009+I20000000000+0000001990+Z
204865001204865467-000002     204865006001023354518BEACH-SET PL 2PCE      0000001000+00001753+00000+0001T   00001753+0000001228          1400 2IC785               1AZ
204866000204866               204866               170213A9     1400+00000+A90000002452+0000002452+000000000+000000344+0000002796+0000000000+I40000002796+0000000000+Z
204866001204866304-001011     204866006001023806727FLWR ROSE RED W/BEAR   0000004000+00000613+00000+0001T   00000788+0006471231          1400 2IC510               1AZ
204867000204867               204867               170213A9     1400+00000+A90000007656+0000007656+000000000+000001075+0000008731+0000000000+I40000008731+0000000000+Z
204867001204867565-000085     204867006003000643332NOVELTY BEEDZ 10g      0000001000+00002455+00000+0001T   00002455+0000001247          1400 2IC745               1AZ
204867002204867565-000735     204867006003000615674NOVELTY PUTTY BOUNCING 0000001000+00000700+00000+0001T   00000700+0000001247          1400 2IC745               1AZ
204867003204867903-000844     204867005010478432567SWT CANDY DL LUV HEARTS0000001000+00001314+00000+0001T   00001314+0000001247          1400 2IC150               1AZ
204867004204867903-000200     204867006009826020234SWT CHOC RP CHOCO 23G  0000004000+00000788+00000+0001T   00000788+0000001247          1400 2IC150               1AZ
204867005204867112-116038     204867006009681820246TCS CARRIER BAG MIDI   0000001000+00000035+00000+0001T   00000035+0000001247          1400 2IC090               1AZ
204868000204868               204868               170213A9     1400+00000+A90000001489+0000001489+000000000+000000209+0000001698+0000000000+I40000001698+0000000000+Z
204868001204868306-000021     204868006001023169433EARBUDS 100PCE IN BAG  0000001000+00000613+00000+0001T   00000613+0000001301          1400 2IC200               1AZ
204868002204868084-070005     204868006001023627902NAIL FILES 6PCE H/GLOW 0000001000+00000876+00000+0001T   00000876+0000001301          1400 2IC200               1AZ
204869000204869               204869               170213A9     1400+00000+A90000010375+0000010375+000000000+000001455+0000011830+0000000000+I40000011830+0000000000+Z
204869001204869105-001025     204869006009654960771CONTAINERS CLEAR 4PCE  0000001000+00003069+00000+0001T   00003069+0000001309          1400 2IC210               1AZ
204869002204869903-000077     204869006939873501687SWT GS MAGIC ROCK FRUIT0000002000+00000525+00000+0001T   00000525+0000001309          1400 2IC150               1AZ
204869003204869903-002900     204869005996071650648QUICK MILK 5 CHOCO 5PC 0000001000+00001578+00000+0001T   00001578+0000001309          1400 2IC150               1AZ
204869004204869903-004952     204869006002580020052SWT FREAKY FACES 100G  0000001000+00001314+00000+0001T   00001314+0000001309          1400 2IC150               1AZ
204869005204869903-004950     204869006002580020304SWT APRICOT SURPRISE   0000001000+00001314+00000+0001T   00001314+0000001309          1400 2IC150               1AZ
204869006204869903-000517     204869006001704012768SWT STRAWS FIZZY CHERRY0000001000+00001227+00000+0001T   00001227+0000001309          1400 2IC150               1AZ
204869007204869903-000138     204869006002099004314SWT GS WINE GUMS 60G   0000001000+00000788+00000+0001T   00000788+0000001309          1400 2IC150               1AZ
204869008204869112-116038     204869006009681820246TCS CARRIER BAG MIDI   0000001000+00000035+00000+0001T   00000035+0000001309          1400 2IC090               1AZ
204870000204870               204870               170213A9     1400+00000+A90000001753+0000001753+000000000+000000246+0000001990+0000000009+I20000000000+0000001990+Z
204870001204870079-003000     204870006003000448838A/TUBE 75ML WHITE      0000001000+00001753+00000+0001T   00001753+0000001426          1400 2IC130               1AZ
204871000204871               204871               170213A9     1400+00000+A90000000700+0000000700+000000000+000000098+0000000790+0000000008+I20000000000+0000000790+Z
204871001204871018-000177     204871006001023797513MUG MINI LOVE ASSTD    0000001000+00000700+00000+0001T   00000700+0000001428          1400 2IC515               1AZ
204872000204872               204872               170213A9     1400+00000+A90000008709+0000008709+000000000+000001221+0000009930+0000000000+I20000000000+0000009930+Z
204872001204872268-000058     204872006001023865748KITE 72x102cm SINGLE   0000001000+00002630+00000+0001T   00002630+0000001446          1400 2IC785               1AZ
204872002204872362-004001     204872000613153010385PRINCESS ASSTD TRINKETS0000001000+00000700+00000+0001T   00000876+0008181446          1400 2IC160               1AZ
204872003204872362-004000     204872000613153000225DISNEY T/BELL TRINKETS 0000002000+00000700+00000+0001T   00000876+0008181446          1400 2IC160               1AZ
204872004204872079-000300     204872006001023902245PAINTSET LEARN TO PAINT0000001000+00002630+00000+0001T   00002630+0000001446          1400 2IC130               1AZ
204872005204872903-000194     204872006009826020616SWT CHOC RP LOLLY 25G  0000001000+00001314+00000+0001T   00001314+0000001446          1400 2IC150               1AZ
204872006204872112-116038     204872006009681820246TCS CARRIER BAG MIDI   0000001000+00000035+00000+0001T   00000035+0000001446          1400 2IC090               1AZ
204873000204873               204873               170213A9     1400+00000+A90000000437+0000000437+000000000+000000062+0000000490+0000000009+I20000000000+0000000490+Z
204873001204873007-000203     204873006009685850409FILE DISPLAY FLDR ASSTD0000001000+00000437+00000+0001T   00000437+0000001457          1400 2IC130               1AZ
204874000204874               204874               170213A9     1400+00000+A90000004030+0000004030+000000000+000000565+0000004590+0000000005+I20000000000+0000004590+Z
204874001204874007-000537     204874000651728791017NOTE-PAD RND SMILE-FACE0000002000+00000700+00000+0001T   00000700+0000001505          1400 2IC130               1AZ
204874002204874174-000025     204874006008766071603SUIT-BAG PL ZIPPERED   0000001000+00002630+00000+0001T   00002630+0000001505          1400 2IC205               1AZ
204875000204875               204875               170213A9     1400+00000+A90000003541+0000003541+000000000+000000497+0000004030+0000000008+I20000000000+0000004030+Z
204875001204875467-000002     204875006001023354518BEACH-SET PL 2PCE      0000001000+00001753+00000+0001T   00001753+0000001507          1400 2IC785               1AZ
204875002204875491-059640     204875000078257596409INTEX:ARMBAND 3-6YRS   0000001000+00001753+00000+0001T   00001753+0000001507          1400 2IC787               1AZ
204875003204875112-116038     204875006009681820246TCS CARRIER BAG MIDI   0000001000+00000035+00000+0001T   00000035+0000001507          1400 2IC090               1AZ
204876000204876               204876               170213A9     1400+00000+A90000011346+0000011346+000000000+000001590+0000012936+0000000000+I40000012936+0000000000+Z
204876001204876080-000113     204876006003000237449CARD&ENVLPE - LOVE     0000001000+00001753+00000+0001T   00001753+0000001525          1400 2IC112               1AZ
204876002204876082-000110     204876006003000360482READING GLS STRENGHT:2 0000002000+00004385+00000+0001T   00004385+0000001525          1400 2IC160               1AZ
204876003204876903-000200     204876006009826020234SWT CHOC RP CHOCO 23G  0000001000+00000788+00000+0001T   00000788+0000001525          1400 2IC150               1AZ
204876004204876112-116038     204876006009681820246TCS CARRIER BAG MIDI   0000001000+00000035+00000+0001T   00000035+0000001525          1400 2IC090               1AZ
204877000204877               204877               170213A9     1400+00000+A90000004119+0000004119+000000000+000000578+0000004690+0000000007+I20000000000+0000004690+Z
204877001204877077-000309     204877006001023608604GIFT-BAG 25X32CM GLOSS 0000001000+00001753+00000+0001T   00001753+0000001526          1400 2IC112               1AZ
204877002204877304-001011     204877006001023806727FLWR ROSE RED W/BEAR   0000001000+00000613+00000+0001T   00000788+0006471526          1400 2IC510               1AZ
204877003204877089-000030     204877006003000575671K/CHAIN LOVE MTL ASSTD 0000001000+00001753+00000+0001T   00001753+0000001526          1400 2IC205               1AZ
204878000204878               204878               170213A9     1400+00000+A90000001227+0000001227+000000000+000000172+0000001390+0000000009+I20000000000+0000001390+Z
204878001204878077-000245     204878006001023759214GIFT-RIBBON METALLICx2 0000001000+00001227+00000+0001T   00001227+0000001529          1400 2IC112               1AZ
204879000204879               204879               170213A9     1400+00000+A90000001753+0000001753+000000000+000000246+0000001990+0000000009+I20000000000+0000001990+Z
204879001204879046-002013-PK6 204879004897006174851BATTERY BUTTON AG13 6PC0000001000+00001753+00000+0001T   00001753+0000001530          1400 2IC312               1AZ
204880000204880               204880               170213A9     1400+00000+A90000008847+0000008847+000000000+000001244+0000010090+0000000001+I20000000000+0000010090+Z
204880001204880903-000077     204880006939873501687SWT GS MAGIC ROCK FRUIT0000002000+00000525+00000+0001T   00000525+0000001532          1400 2IC150               1AZ
204880002204880564-001028     204880006001023708663BUBBLE CELEBRATION 6ml 0000001000+00003069+00000+0001T   00003069+0000001532          1400 2IC131               1AZ
204880003204880903-000200     204880006009826020234SWT CHOC RP CHOCO 23G  0000006000+00000788+00000+0001T   00000788+0000001532          1400 2IC150               1AZ
204881000204881               204881               170213A9     1400+00000+A90000019671+0000019671+000000000+000002758+0000022429+0000000000+I40000022429+0000000000+Z
204881001204881007-000551     204881006001023848079NOTE-PAD SHOP-LIST ASST0000001000+00001753+00000+0001T   00001753+0000001534          1400 2IC130               1AZ
204881002204881077-000011-R   204881006001023808462P/TISSUE DARK 10-SHEETS0000001000+00000876+00000+0001T   00000876+0000001534          1400 2IC112               1AZ
204881003204881077-000011-D   204881006001023808554TISSUE-WRAP WHITE 10PCE0000001000+00000876+00000+0001T   00000876+0000001534          1400 2IC112               1AZ
204881004204881077-000011-R   204881006001023808462P/TISSUE DARK 10-SHEETS0000001000+00000876+00000+0001T   00000876+0000001534          1400 2IC112               1AZ
204881005204881567-010160     204881006003000484966BOOK TOP ASSTD CHILDREN0000001000+00006578+00000+0001T   00006578+0000001534          1400 2IC757               1AZ
204881006204881007-000046     204881006009635831366DISPLAY-BOOK PL A4 30PG0000001000+00002192+00000+0001T   00002192+0000001534          1400 2IC130               1AZ
204881007204881077-000311     204881006001023608666GIFT-BAG 11X14CM GLOSS 0000001000+00000613+00000+0001T   00000613+0000001534          1400 2IC112               1AZ
204881008204881903-000095     204881006001704011495SWT SPECKLED-EGGS 100G 0000002000+00002104+00000+0001T   00002104+0000001534          1400 2IC150               1AZ
204881009204881903-000138     204881006002099004314SWT GS WINE GUMS 60G   0000001000+00000788+00000+0001T   00000788+0000001534          1400 2IC150               1AZ
204881010204881903-000481     204881006001704007481SWT MOO MILK-SHAKES 60G0000001000+00000876+00000+0001T   00000876+0000001534          1400 2IC150               1AZ
204881011204881112-116038     204881006009681820246TCS CARRIER BAG MIDI   0000001000+00000035+00000+0001T   00000035+0000001534          1400 2IC090               1AZ
204882000204882               204882               170213A9     1400+00000+A90000012405+0000012405+000000000+000001741+0000014146+0000000000+I40000014146+0000000000+Z
204882001204882006-000788     204882006001023990228CROWN HAPPY BIRTHDAY   0000001000+00001490+00000+0001T   00001490+0000001543          1400 2IC131               1AZ
204882002204882039-000320     204882006001023816153BIRTHDAY-CANDLES 13PCE 0000001000+00002630+00000+0001T   00002630+0000001543          1400 2IC510               1AZ
204882003204882006-000090     204882006001023538505BANNER HAPPY-BIRTHDAY  0000001000+00002192+00000+0001T   00002192+0000001543          1400 2IC131               1AZ
204882005204882903-000200     204882006009826020234SWT CHOC RP CHOCO 23G  0000001000+00000788+00000+0001T   00000788+0000001543          1400 2IC150               1AZ
204882006204882001-000175     204882006001023788108B/MUG GLS LOVE 380ML   0000001000+00004385+00000+0001T   00004385+0000001543          1400 2IC515               1AZ
204882007204882006-000171-K   204882006003000609697BALLOONS 1PC PURPLE PRN0000002000+00000218+00000+0001T   00000218+0000001543          1400 2IC131               1AZ
204882008204882006-000171-A   204882006003000608935BALLOONS 1PC PINK PRNT 0000002000+00000218+00000+0001T   00000218+0000001543          1400 2IC131               1AZ
204882009204882112-116069     204882006009681820277TCS CARRIER BAG JUMBO  0000001000+00000048+00000+0001T   00000048+0000001543          1400 2IC090               1AZ
204883000204883               204883               170213A9     1400+00000+A90000018809+0000018809+000000000+000002637+0000021446+0000000000+I40000021446+0000000000+Z
204883001204883077-000009     204883006003000152377PAPER CREPE ALUM COL   0000001000+00003069+00000+0001T   00003069+0000001631          1400 2IC112               1AZ
204883002204883006-000788     204883006001023990228CROWN HAPPY BIRTHDAY   0000001000+00001490+00000+0001T   00001490+0000001631          1400 2IC131               1AZ
204883003204883079-006494     204883006003000159864GLITTER GLUE 5PCE 11cm 0000002000+00001490+00000+0001T   00001490+0000001631          1400 2IC130               1AZ
204883004204883071-081101-A   204883006003000326549GLUE-STICK 25g BLISTER 0000001000+00000788+00000+0001T   00000788+0000001631          1400 2IC130               1AZ
204883005204883006-000788     204883006001023990228CROWN HAPPY BIRTHDAY   0000001000+00001490+00000+0001T   00001490+0000001631          1400 2IC131               1AZ
204883006204883566-000352     204883006001023809261STICKERS LASER ASSTD   0000001000+00002192+00000+0001T   00002192+0000001631          1400 2IC130               1AZ
204883007204883112-116069     204883006009681820277TCS CARRIER BAG JUMBO  0000001000+00000048+00000+0001T   00000048+0000001631          1400 2IC090               1AZ
204883008204883366-001100     204883006003000031443DRESS UP HAT PIRATE    0000001000+00005262+00000+0001T   00005262+0000001631          1400 2IC131               1AZ
204883009204883006-000788     204883006001023990228CROWN HAPPY BIRTHDAY   0000001000+00001490+00000+0001T   00001490+0000001631          1400 2IC131               1AZ
204884000204884               204884               170213A9     1400+00000+A90000010524+0000010524+000000000+000001474+0000011998+0000000000+I40000011998+0000000000+Z
204884001204884077-000309     204884006001023608604GIFT-BAG 25X32CM GLOSS 0000001000+00001753+00000+0001T   00001753+0000001634          1400 2IC112               1AZ
204884002204884001-091415     204884006003000329113W/GLS OCC. LOVE 2PC 2800000001000+00008771+00000+0001T   00009648+0006471634          1400 2IC515               1AZ
204885000204885               204885               170213A9     1400+00000+A90000009722+0000009722+000000000+000001362+0000011084+0000000000+I40000011084+0000000000+Z
204885001204885903-000216     204885006925925900966SWT MALLOW TWIST ERKO  0000002000+00000262+00000+0001T   00000262+0000001639          1400 2IC1501IC            1AZ
204885002204885903-000844     204885005010478432567SWT CANDY DL LUV HEARTS0000007000+00001314+00000+0001T   00001314+0000001639          1400 2IC150               1AZ
204886000204886               204886               170213A9     1400+00000+A90000002016+0000002016+000000000+000000283+0000002290+0000000009+I20000000000+0000002290+Z
204886001204886050-000362-Z   204886006001023475275PADLOCK IRON 25mm CARD 0000001000+00002016+00000+0001T   00002016+0000001640          1400 2IC855               1AZ
204887000204887               204887               170213A9     1400+00000+A90000015815+0000015815+000000000+000002219+0000018034+0000000000+I40000018034+0000000000+Z
204887001204887560-000202     204887006003000322008SNAKE PVC ASSTD        0000006000+00002630+00000+0001T   00002630+0000001642          1400 2IC745               1AZ
204887002204887112-116038     204887006009681820246TCS CARRIER BAG MIDI   0000001000+00000035+00000+0001T   00000035+0000001642          1400 2IC090               1AZ
204888000204888               204888               170213A9     1400+00000+A90000005085+0000005085+000000000+000000712+0000005790+0000000007+I20000000000+0000005790+Z
204888001204888018-000136     204888006001023659026MUG OCC LOVE W/PLUSH   0000001000+00003507+00000+0001T   00003507+0000001648          1400 2IC515               1AZ
204888002204888077-000315     204888006003000181186GIFT-BAG 20x28cm MATT  0000001000+00001578+00000+0001T   00001578+0000001648          1400 2IC112               1AZ
204889000204889               204889               170213A9     1400+00000+A90000004856+0000004856+000000000+000000680+0000005530+0000000006+I20000000000+0000005530+Z
204889001204889018-005009     204889006001023725608MUG W/PLUSH-BEAR LOVE  0000001000+00003507+00000+0001T   00003507+0000001655          1400 2IC515               1AZ
204889002204889903-000194     204889006009826020616SWT CHOC RP LOLLY 25G  0000001000+00001314+00000+0001T   00001314+0000001655          1400 2IC150               1AZ
204889003204889112-116038     204889006009681820246TCS CARRIER BAG MIDI   0000001000+00000035+00000+0001T   00000035+0000001655          1400 2IC090               1AZ
204890000204890               204890               170213A9     1400+00000+A90000002192+0000002192+000000000+000000307+0000002490+0000000009+I20000000000+0000002490+Z
204890001204890050-000363-Z   204890006001023475282PADLOCK IRON 32mm CARD 0000001000+00002192+00000+0001T   00002192+0000001656          1400 2IC855               1AZ
204891000204891               204891               170213A9     1400+00000+A90000001662+0000001662+000000000+000000235+0000001890+0000000007+I20000000000+0000001890+Z
204891001204891071-000212     204891006009608641190CHALK WHITE 12PCE      0000002000+00000437+00000+0001T   00000437+0000001708          1400 2IC130               1AZ
204891002204891903-000200     204891006009826020234SWT CHOC RP CHOCO 23G  0000001000+00000788+00000+0001T   00000788+0000001708          1400 2IC150               1AZ
204892000204892               204892               170213A9     1400+00000+A90000074607+0000074607+000000000+000010446+0000085053+0000000000+I40000085053+0000000000+Z
204892001204892496-056475     204892000078257564750INTEX POOL: 229x229x66 0000001000+00061402+00000+0001T   00061402+0000001710          1400 2IC787               1AZ
204892002204892497-068615     204892000078257686155H/PUMP HIGH-O/PUT 48cm 0000001000+00013157+00000+0001T   00013157+0000001710          1400 2IC787               1AZ
204892003204892112-116069     204892006009681820277TCS CARRIER BAG JUMBO  0000001000+00000048+00000+0001T   00000048+0000001710          1400 2IC090               1AZ
204893000204893               204893               170213A9     1400+00000+A90000001314+0000001314+000000000+000000184+0000001498+0000000000+I40000001498+0000000000+Z
204893001204893496-059631     204893000078257596317REPAIR-PATCHES   CARDED0000001000+00001314+00000+0001T   00001314+0000001714          1400 2IC787               1AZ
204894000204894               204894               170213A9     1400+00000+A90000015557+0000015557+000000000+000002180+0000017737+0000000000+I40000017737+0000000000+Z
204894001204894019-071610     204894006001023904560PEBBLES WATER GEMS 10g 0000001000+00001490+00000+0001T   00001490+0000001725          1400 2IC510               1AZ
204894002204894006-000120     204894006001023346889BALLOONS 10PC MIX COL  0000001000+00001753+00000+0001T   00001753+0000001725          1400 2IC131               1AZ
204894003204894019-000079     204894006001023775726VASE 30cm CRACK-DESIGN 0000001000+00012279+00000+0001T   00012279+0000001725          1400 2IC510               1AZ
204894004204894112-116038     204894006009681820246TCS CARRIER BAG MIDI   0000001000+00000035+00000+0001T   00000035+0000001725          1400 2IC090               1AZ
204895000204895               204895               170213A9     1400+00000+A90000004420+0000004420+000000000+000000619+0000005039+0000000000+I40000005039+0000000000+Z
204895001204895368-000049     204895006003000536955PLUSH BEAR 15cm LOVE   0000001000+00004385+00000+0001T   00004385+0000001742          1400 2IC745               1AZ
204895002204895112-116038     204895006009681820246TCS CARRIER BAG MIDI   0000001000+00000035+00000+0001T   00000035+0000001742          1400 2IC090               1AZ
204896000204896               204896               170213A9     1400+00000+A90000001753+0000001753+000000000+000000246+0000001990+0000000009+I20000000000+0000001990+Z
204896001204896464-000114     204896006003000027057DICE 16MM CARD-OF-6    0000001000+00001753+00000+0001T   00001753+0000001749          1400 2IC785               1AZ
204897000204897               204897               170213A9     1400+00000+A90000006752+0000006752+000000000+000000946+0000007690+0000000008+I20000000000+0000007690+Z
204897001204897018-050000     204897006003000412679MUG OCC LOVE TWIN BEAR 0000001000+00006139+00000+0001T   00006139+0000001754          1400 2IC515               1AZ
204897002204897304-001011     204897006001023806727FLWR ROSE RED W/BEAR   0000001000+00000613+00000+0001T   00000788+0006471754          1400 2IC510               1AZ
204898000204898               204898               170213A9     1400+00000+A90000008377+0000008377+000000000+000001174+0000009551+0000000000+I40000009551+0000000000+Z
204898001204898112-116069     204898006009681820277TCS CARRIER BAG JUMBO  0000001000+00000048+00000+0001T   00000048+0000001759          1400 2IC090               1AZ
204898002204898133-000010-A   204898006001023997647CLEANING CLOTH ROLL 30 0000001000+00003507+00000+0001T   00003507+0000001759          1400 2IC212               1AZ
204898003204898002-000684     204898006001023693778K/TOOL TURNER H/HOUSE  0000001000+00002192+00000+0001T   00002192+0000001759          1400 2IC300               1AZ
204898004204898002-000717     204898006001023775184CHOPPING-MATS FLEX 2PCE0000001000+00002630+00000+0001T   00002630+0000001759          1400 2IC300               1AZ
204899000204899               204899               170213A9     1400+00000+A90000038103+0000038103+000000000+000005339+0000043442+0000000000+I40000043442+0000000000+Z
204899001204899051-600601     204899006003000266357GARDENING KNEE PAD ASST0000001000+00003507+00000+0001T   00003507+0000001801          1400 2IC820               1AZ
204899002204899567-075699     204899006003000641277BK NOVEL CATEGORY A    0000001000+00002630+00000+0001T   00003069+0008191801          1400 2IC757               1AZ
204899003204899040-000103     204899000694202201862C/HOLDER-SET 5PC W/TRAY0000001000+00011402+00000+0001T   00013157+0008191801          1400 2IC510               1AZ
204899004204899112-116069     204899006009681820277TCS CARRIER BAG JUMBO  0000001000+00000048+00000+0001T   00000048+0000001801          1400 2IC090               1AZ
204899005204899362-004000     204899000613153000225DISNEY T/BELL TRINKETS 0000001000+00000700+00000+0001T   00000876+0008181801          1400 2IC160               1AZ
204899006204899903-000095     204899006001704011495SWT SPECKLED-EGGS 100G 0000001000+00002104+00000+0001T   00002104+0000001801          1400 2IC150               1AZ
204899007204899903-000211     204899006002099001238SWT GS MALLOW ICE CREAM0000001000+00001753+00000+0001T   00001753+0000001801          1400 2IC150               1AZ
204899008204899174-000010     204899006001023462381W/MACHINE-BAG 25x40cm  0000001000+00001753+00000+0001T   00001753+0000001801          1400 2IC205               1AZ
204899009204899159-000114     204899006001023507945SHOWER CAP PVC ASSTD   0000001000+00001490+00000+0001T   00001490+0000001801          1400 2IC200               1AZ
204899010204899078-000030     204899006003000151141YAMAYO SUPERGLUE 8g    0000001000+00001753+00000+0001T   00001753+0000001801          1400 2IC810               1AZ
204899011204899056-005719     204899006001023820983CAR AIR-FRESHENER ASSTD0000001000+00002192+00000+0001T   00002192+0000001801          1400 2IC860               1AZ
204899012204899567-010162     204899006003000485123BOOK TOP ASSTD NOVELS  0000001000+00008771+00000+0001T   00008771+0000001801          1400 2IC757               1AZ
A17021300                                          08240267A9SLAVE 1                       TS82IC
A17021301                                          09070519A9SLAVE 1                       TS82IC
A17021302                                          09351343A9SLAVE 1                       2IC1IC
B20488500                                          170213A9903-000216     16383720SLAVE 1     2IC1IC0000003000+0000002000+0000000000000+
B20488501                                          170213A9903-000844     16384411SLAVE 1     2IC1IC0000003000+0000002000+0000000000000+
C20488200                                          170213A9077-000315     15424483SLAVE 1     2IC1IC0000000000+0000000000+0040000001000+
M17021391                              CASH        A9SLAVE 1                       Z-REPORT No.   113TOTAL (Sales - Refunds)           4269.96       CASH TO BE BANKED                  942.20       DEBIT CARDS                          0.00       CREDIT CARDS                      3327.76       Z-READING                         4269.96       AIRTIME DEBIT CARD SALES             0.00       AIRTIME CARD SALES                   0.00       OVERS/UNDERS                         0.00       AIRTIME CASH SALES                   0.00       GIFT CARDS                           0.00       GIFT CARD CASH SALES                 0.00       T O T A L  CASH PAYOUTS              0.00                                                                                                                                                                                                                                                                                                                                                      Z
M17021392                              CASH        A9ABSENT                                                                                                                                                                                          ANNUAL LEAVE                                                                                                                                                                                    DAY OFF                                                                                                                                                                                         COMMENTS                                                                                                                                                                                                                                                                                                                                                                                       Z
Y17021300                                          A900000000386934+000044
ZA917021319173 SLAVE 1      SALES DATA                     NEXT INVOICE NO.  204900 0113
X A9 Slave 1 First invoice 204856 170213 Last invoice 204899 170213 Next invoice 204900 Total number of records 000000190 clbackup completed 19:17:26
