304968000304968               304968               170213A9     1400+00000+A90000011861+0000011861+000000000+000001661+0000013520+0000000002+I20000000000+0000013520+Z
304968001304968903-000194     304968006009826020616SWT CHOC RP LOLLY 25G  0000001000+00001314+00000+0001T   00001314+0000000904          1400 TS8150               2AZ
304968002304968112-116038     304968006009681820246TCS CARRIER BAG MIDI   0000001000+00000035+00000+0001T   00000035+0000000904          1400 TS8090               2AZ
304968003304968903-000194     304968006009826020616SWT CHOC RP LOLLY 25G  0000008000+00001314+00000+0001T   00001314+0000000904          1400 TS8150               2AZ
304969000304969               304969               170213A9     1400+00000+A90000005262+0000005262+000000000+000000737+0000005990+0000000009+I20000000000+0000005990+Z
304969001304969362-001045     304969006001023843449MAKE-UP TEEN GIFT SET  0000001000+00005262+00000+0001T   00005262+0000000910          1400 TS8160               2AZ
304970000304970               304970               170213A9     1400+00000+A90000001578+0000001578+000000000+000000221+0000001790+0000000009+I20000000000+0000001790+Z
304970001304970080-000124     304970006003000297733CARD & ENV VALENTINES  0000001000+00001578+00000+0001T   00001578+0000000930          1400 TS8112               2AZ
304971000304971               304971               170213A9     1400+00000+A90000001227+0000001227+000000000+000000172+0000001390+0000000009+I20000000000+0000001390+Z
304971001304971903-000518     304971006001704012782SWT STRAWS S/BERRY 100g0000001000+00001227+00000+0001T   00001227+0000000941          1400 TS8150               2AZ
304972000304972               304972               170213A9     1400+00000+A90000024061+0000024061+000000000+000003374+0000027435+0000000000+I40000027435+0000000000+Z
304972001304972466-064834     304972006008766064834BALL W/SPIKES 20cm     0000001000+00001753+00000+0001T   00001753+0000000949          1400 TS8785               2AZ
304972002304972903-000090     304972006009826020821SWT GS CHOCO COINS 60g 0000001000+00002104+00000+0001T   00002104+0000000949          1400 TS8150               2AZ
304972003304972082-098797     304972006001492987972SUNGLASS KIDS BOYS MASK0000001000+00003946+00000+0001T   00003946+0000000949          1400 TS8160               2AZ
304972004304972006-000203-A   304972006003453010965SNACK BOX 6PCE ASSTD   0000001000+00002630+00000+0001T   00002630+0000000949          1400 TS8131               2AZ
304972005304972564-000011     304972006001023865892BUBBLE REFILL 350ml    0000001000+00002630+00000+0001T   00002630+0000000949          1400 TS8131               2AZ
304972006304972564-000030     304972006001023897022BUBBLE NOVELTY BOTTLE  0000005000+00000876+00000+0001T   00000876+0000000949          1400 TS8131               2AZ
304972007304972565-000892-A   304972006003000690725NOVELTY FUN BALL       0000005000+00001314+00000+0001T   00001753+0008140949          1400 TS8745               2AZ
304972008304972112-116069     304972006009681820277TCS CARRIER BAG JUMBO  0000001000+00000048+00000+0001T   00000048+0000000949          1400 TS8090               2AZ
304973000304973               304973               170213A9     1400+00000+A90000002192+0000002192+000000000+000000307+0000002499+0000000000+I40000002499+0000000000+Z
304973001304973566-000359     304973006003000582709STICKER BOOK LOVE SPARK0000001000+00002192+00000+0001T   00002192+0000000952          1400 TS8130               2AZ
304974000304974               304974               170213A9     1400+00000+A90000002630+0000002630+000000000+000000369+0000002990+0000000009+I20000000000+0000002990+Z
304974001304974369-001138-D   304974006003000097623BABY BATH VINYL THEMED 0000001000+00002630+00000+0001T   00002630+0000000959          1400 TS8745               2AZ
304975000304975               304975               170213A9     1400+00000+A90000001314+0000001314+000000000+000000184+0000001490+0000000008+I20000000000+0000001490+Z
304975001304975077-000310     304975006001023608635GIFT-BAG 18X23CM GLOSS 0000001000+00001314+00000+0001T   00001314+0000001009          1400 TS8112               2AZ
304976000304976               304976               170213A9     1400+00000+A90000006135+0000006135+000000000+000000860+0000006995+0000000000+I40000006995+0000000000+Z
304976001304976077-000245     304976006001023759214GIFT-RIBBON METALLICx2 0000005000+00001227+00000+0001T   00001227+0000001031          1400 TS8112               2AZ
304977000304977               304977               170213A9     1400+00000+A90000011836+0000011836+000000000+000001659+0000013495+0000000000+I40000013495+0000000000+Z
304977001304977105-001033     304977000700371696641CONTAINER FOODSAVER 1.60000003000+00002192+00000+0001T   00002192+0000001036          1400 TS8210               2AZ
304977002304977105-003025     304977006001023594662CONTAINER RECT 28x19cm 0000002000+00002630+00000+0001T   00002630+0000001036          1400 TS8210               2AZ
304978000304978               304978               170213A9     1400+00000+A90000002453+0000002453+000000000+000000344+0000002790+0000000007+I20000000000+0000002790+Z
304978001304978903-000071     304978006001704001120SWT TOFFEE LIQURICE 35g0000001000+00000700+00000+0001T   00000700+0000001036          1400 TS8150               2AZ
304978002304978206-000120     304978006003000628308PEELER CARROT SHARPENER0000001000+00001753+00000+0001T   00001753+0000001036          1400 TS8321               2AZ
304979000304979               304979               170213A9     1400+00000+A90000014513+0000014513+000000000+000002036+0000016540+0000000009+I20000000000+0000016540+Z
304979001304979466-009006     304979006003000639335BALL FOR BEACH BAT 52mm0000001000+00002630+00000+0001T   00002630+0000001041          1400 TS8785               2AZ
304979002304979019-071595     304979006001023756428PEBBLES 250g SKY-BLUE  0000001000+00001753+00000+0001T   00001753+0000001041          1400 TS8510               2AZ
304979003304979019-071597     304979006008766071597PEBBLES 250g CLEAR  BAG0000001000+00002192+00000+0001T   00002192+0000001041          1400 TS8510               2AZ
304979004304979019-071600     304979006001023771971RIVER-STONES 1kg MIXED 0000003000+00002630+00000+0001T   00002630+0000001041          1400 TS8510               2AZ
304979005304979112-116069     304979006009681820277TCS CARRIER BAG JUMBO  0000001000+00000048+00000+0001T   00000048+0000001041          1400 TS8090               2AZ
304980000304980               304980               170213A9     1400+00000+A90000007893+0000007893+000000000+000001106+0000008990+0000000009+I20000000000+0000008990+Z
304980001304980562-000019     304980006001023800305EDU PLAY DOUGH BOXED   0000001000+00007893+00000+0001T   00008771+0008191114          1400 TS8755               2AZ
304981000304981               304981               170213A9     1400+00000+A90000003942+0000003942+000000000+000000554+0000004490+0000000006+I20000000000+0000004490+Z
304981001304981080-000124     304981006003000297733CARD & ENV VALENTINES  0000001000+00001578+00000+0001T   00001578+0000001118          1400 TS8112               2AZ
304981002304981903-000200     304981006009826020234SWT CHOC RP CHOCO 23G  0000003000+00000788+00000+0001T   00000788+0000001118          1400 TS8150               2AZ
304982000304982               304982               170213A9     1400+00000+A90000006139-0000006139-000000000+000000860-0000006999-0000000000+I40000006999-0000000000+Z
304982001304982497-068614     304982000078257686148H/PUMP HIGH-O/PUT 36cm 0000001000-00006139+00000+0001T   00006139+0000001129          1400 TS87872IC            2 Z
304983000304983               304983               170213A9     1400+00000+A90000013115+0000013115+000000000+000001838+0000014953+0000000000+I40000014953+0000000000+Z
304983001304983368-000111     304983006001023780812PLUSH BEAR/DOG 29CM    0000001000+00012279+00000+0001T   00012279+0000001131          1400 TS8745               2AZ
304983002304983112-116069     304983006009681820277TCS CARRIER BAG JUMBO  0000001000+00000048+00000+0001T   00000048+0000001131          1400 TS8090               2AZ
304983003304983903-000200     304983006009826020234SWT CHOC RP CHOCO 23G  0000001000+00000788+00000+0001T   00000788+0000001131          1400 TS8150               2AZ
304984000304984               304984               170213A9     1400+00000+A90000002192+0000002192+000000000+000000307+0000002499+0000000000+I40000002499+0000000000+Z
304984001304984018-000170     304984006001023775528MUG OCC. LOVE 2PC MINI 0000001000+00002192+00000+0001T   00002192+0000001144          1400 TS8515               2AZ
304985000304985               304985               170213A9     1400+00000+A90000000525+0000000525+000000000+000000074+0000000590+0000000009+I20000000000+0000000590+Z
304985001304985903-000077     304985006939873501687SWT GS MAGIC ROCK FRUIT0000001000+00000525+00000+0001T   00000525+0000001149          1400 TS8150               2AZ
304986000304986               304986               170213A9     1400+00000+A90000007890+0000007890+000000000+000001107+0000008997+0000000000+I40000008997+0000000000+Z
304986001304986056-065303     304986006001023821041SUN-SHIELD 2PCE ANIMAL 0000002000+00002630+00000+0001T   00002630+0000001151          1400 TS8860               2AZ
304986002304986079-001002     304986006003000448715CANVAS A4 WOOD MOUNTED 0000001000+00002630+00000+0001T   00002630+0000001151          1400 TS8130               2AZ
304987000304987               304987               170213A9     1400+00000+A90000018058+0000018058+000000000+000002532+0000020590+0000000000+I40000020590+0000000000+Z
304987001304987466-000074     304987006003000669202BALL RUGBY MESH 21.5cm 0000001000+00004385+00000+0001T   00004385+0000001155          1400 TS8785               2AZ
304987002304987079-000510     304987006001023509079CRAYONS WAX 12-COLOUR  0000001000+00002455+00000+0001T   00002455+0000001155          1400 TS8130               2AZ
304987003304987366-006104     304987006003000616930DRESS UP FACE PAINT    0000001000+00001753+00000+0001T   00001753+0000001155          1400 TS8131               2AZ
304987004304987564-000025     304987006003000617104BUBBLE NOVELTY         0000002000+00001753+00000+0001T   00001753+0000001155          1400 TS8131               2AZ
304987005304987466-000109     304987006003000612345BALL RAINBOW DESIGN    0000001000+00001753+00000+0001T   00001753+0000001155          1400 TS8785               2AZ
304987006304987565-000071     304987006003000643387NOVELTY WIND UP CHATTER0000001000+00001139+00000+0001T   00001139+0000001155          1400 TS8745               2AZ
304987007304987566-000535     304987006003000284719STICKER SPARKLE EMBOSS 0000001000+00001753+00000+0001T   00001753+0000001155          1400 TS8130               2AZ
304987008304987566-000992     304987006001023600639STICKERS GLOW-IN-DARK  0000001000+00001314+00000+0001T   00001314+0000001155          1400 TS8130               2AZ
304988000304988               304988               170213A9     1400+00000+A90000026350+0000026350+000000000+000003693+0000030040+0000000003+I20000000000+0000030040+Z
304988001304988031-000868-A   304988006001023798534P/FRAME PL BLCK 10X15CM0000001000+00002192+00000+0001T   00002192+0000001200          1400 TS8510               2AZ
304988002304988031-000868-B   304988006001023798565P/FRAME PL BLCK 13X18CM0000001000+00002630+00000+0001T   00002630+0000001200          1400 TS8510               2AZ
304988003304988031-000868-A   304988006001023798534P/FRAME PL BLCK 10X15CM0000003000+00002192+00000+0001T   00002192+0000001200          1400 TS8510               2AZ
304988004304988031-000868-B   304988006001023798565P/FRAME PL BLCK 13X18CM0000003000+00002630+00000+0001T   00002630+0000001200          1400 TS8510               2AZ
304988005304988031-000868-C   304988006001023798596P/FRAME PL BLCK 20X25CM0000002000+00003507+00000+0001T   00003507+0000001200          1400 TS8510               2AZ
304988006304988112-116069     304988006009681820277TCS CARRIER BAG JUMBO  0000001000+00000048+00000+0001T   00000048+0000001200          1400 TS8090               2AZ
304989000304989               304989               170213A9     1400+00000+A90000001753+0000001753+000000000+000000246+0000001990+0000000009+I20000000000+0000001990+Z
304989001304989077-000005-D   304989006003000414567PAPER TISSUE 50x70cm   0000001000+00001753+00000+0001T   00001753+0000001201          1400 TS81122IC            2AZ
304990000304990               304990               170213A9     1400+00000+A90000004383+0000004383+000000000+000000614+0000004997+0000000000+I40000004997+0000000000+Z
304990001304990306-000023     304990006001023606976COTTON-WOOL-BALLS 50PCE0000001000+00000876+00000+0001T   00000876+0000001317          1400 TS8200               2AZ
304990002304990366-006105     304990006003000617050DRESS UP FACE PAINT    0000001000+00003507+00000+0001T   00003507+0000001317          1400 TS8131               2AZ
304991000304991               304991               170213A9     1400+00000+A90000002664+0000002664+000000000+000000374+0000003038+0000000000+I40000003038+0000000000+Z
304991001304991027-783006     304991006003000060719SCOURERS SPONGE        0000001000+00000876+00000+0001T   00000876+0000001319          1400 TS8212               2AZ
304991002304991027-000917     304991006001023367433DUSTPAN-SET MINI 21x16 0000001000+00001753+00000+0001T   00001753+0000001319          1400 TS8212               2AZ
304991003304991112-116038     304991006009681820246TCS CARRIER BAG MIDI   0000001000+00000035+00000+0001T   00000035+0000001319          1400 TS8090               2AZ
304992000304992               304992               170213A9     1400+00000+A90000000613+0000000613+000000000+000000086+0000000690+0000000009+I20000000000+0000000690+Z
304992001304992083-000055     304992006003000003853LIGHTER ELCTRNC REFILBL0000001000+00000613+00000+0001T   00000613+0000001320          1400 TS8315               2AZ
304993000304993               304993               170213A9     1400+00000+A90000001753+0000001753+000000000+000000246+0000001990+0000000009+I20000000000+0000001990+Z
304993001304993077-000005-D   304993006003000414567PAPER TISSUE 50x70cm   0000001000+00001753+00000+0001T   00001753+0000001332          1400 TS8112               2AZ
304994000304994               304994               170213A9     1400+00000+A90000006172+0000006172+000000000+000000865+0000007030+0000000007+I20000000000+0000007030+Z
304994001304994048-000865     304994006003000371433TORCH KEY CHAIN 5LED   0000001000+00002630+00000+0001T   00002630+0000001337          1400 TS8305               2AZ
304994002304994089-000010     304994006003000106523KEY CHAIN REFLECTOR 2PC0000001000+00003507+00000+0001T   00003507+0000001337          1400 TS8205               2AZ
304994003304994112-116038     304994006009681820246TCS CARRIER BAG MIDI   0000001000+00000035+00000+0001T   00000035+0000001337          1400 TS8090               2AZ
304995000304995               304995               170213A9     1400+00000+A90000014028+0000014028+000000000+000001964+0000015992+0000000000+I40000015992+0000000000+Z
304995001304995567-011354     304995006003000638161BK STICKER PRINCESS    0000001000+00003507+00000+0001T   00003507+0000001345          1400 TS8757               2AZ
304995002304995366-002803     304995006003000531875DRESS UP POMPOM 2PC SET0000003000+00003507+00000+0001T   00003507+0000001345          1400 TS8131               2AZ
304996000304996               304996               170213A9     1400+00000+A90000002190+0000002190+000000000+000000307+0000002490+0000000007+I20000000000+0000002490+Z
304996001304996039-000108     304996006001023524034TEA-LITE CANDLES 8PCE  0000001000+00001490+00000+0001T   00001490+0000001349          1400 TS8510               2AZ
304996002304996564-000012     304996006001023130075BUBBLE BOTTLE MAGIC    0000001000+00000700+00000+0001T   00000700+0000001349          1400 TS8131               2AZ
304997000304997               304997               170213A9     1400+00000+A90000002630+0000002630+000000000+000000369+0000002990+0000000009+I20000000000+0000002990+Z
304997001304997251-000012     304997006001023597915TAPE DUCT GREY 48mmx5m 0000001000+00002630+00000+0001T   00002630+0000001402          1400 TS8810               2AZ
304998000304998               304998               170213A9     1400+00000+A90000004384+0000004384+000000000+000000614+0000004990+0000000008+I20000000000+0000004990+Z
304998001304998056-005719     304998006001023820983CAR AIR-FRESHENER ASSTD0000002000+00002192+00000+0001T   00002192+0000001403          1400 TS8860               2AZ
304999000304999               304999               170213A9     1400+00000+A90000003940+0000003940+000000000+000000555+0000004490+0000000005+I20000000000+0000004490+Z
304999001304999077-000010-D   304999006001023123886CREPE-PAPER WHITE      0000001000+00000788+00000+0001T   00000788+0000001405          1400 TS8112               2AZ
304999002304999903-000200     304999006009826020234SWT CHOC RP CHOCO 23G  0000004000+00000788+00000+0001T   00000788+0000001405          1400 TS8150               2AZ
305000000305000               305000               170213A9     1400+00000+A90000003542+0000003542+000000000+000000496+0000004030+0000000008+I20000000000+0000004030+Z
305000001305000018-000136     305000006001023659026MUG OCC LOVE W/PLUSH   0000001000+00003507+00000+0001T   00003507+0000001413          1400 TS8515               2AZ
305000002305000112-116038     305000006009681820246TCS CARRIER BAG MIDI   0000001000+00000035+00000+0001T   00000035+0000001413          1400 TS8090               2AZ
305001000305001               305001               170213A9     1400+00000+A90000007016+0000007016+000000000+000000983+0000007999+0000000000+I40000007999+0000000000+Z
305001001305001040-001001     305001006003000323371C/HLDR-SET 3PC P+STAND 0000001000+00007016+00000+0001T   00008771+0008171419          1400 TS8510               2AZ
305002000305002               305002               170213A9     1400+00000+A90000002628+0000002628+000000000+000000368+0000002990+0000000006+I20000000000+0000002990+Z
305002001305002903-000844     305002005010478432567SWT CANDY DL LUV HEARTS0000002000+00001314+00000+0001T   00001314+0000001419          1400 TS8150               2AZ
305003000305003               305003               170213A9     1400+00000+A90000012273+0000012273+000000000+000001722+0000013990+0000000005+I20000000000+0000013990+Z
305003001305003077-000011-Y   305003006001023809858TISSUE-WRAP GOLD 10PCE 0000001000+00001753+00000+0001T   00001753+0000001430          1400 TS8112               2AZ
305003002305003077-000316-A   305003006003000681457GIFT-BAG METALLIC PPR  0000004000+00002630+00000+0001T   00002630+0000001430          1400 TS8112               2AZ
305004000305004               305004               170213A9     1400+00000+A90000002630+0000002630+000000000+000000369+0000002999+0000000000+I40000002999+0000000000+Z
305004001305004108-003023     305004006003000665471TUMBLER W/STRAW 550ml  0000001000+00002630+00000+0001T   00002630+0000001450          1400 TS8210               2AZ
305005000305005               305005               170213A9     1400+00000+A90000005262+0000005262+000000000+000000737+0000005990+0000000009+I20000000000+0000005990+Z
305005001305005158-000167     305005006003000569588WASTEPAPER-BASKET 26cm 0000001000+00005262+00000+0001T   00005262+0000001451          1400 TS8300               2AZ
305006000305006               305006               170213A9     1400+00000+A90000007099+0000007099+000000000+000000994+0000008093+0000000000+I40000008093+0000000000+Z
305006001305006566-000359     305006006003000582709STICKER BOOK LOVE SPARK0000001000+00002192+00000+0001T   00002192+0000001454          1400 TS8130               2AZ
305006002305006200-000011     305006006003000613489DISPOSABLE BAG ZIPER   0000001000+00003507+00000+0001T   00003507+0000001454          1400 TS8214               2AZ
305006003305006018-000177     305006006001023797513MUG MINI LOVE ASSTD    0000002000+00000700+00000+0001T   00000700+0000001454          1400 TS8515               2AZ
305007000305007               305007               170213A9     1400+00000+A90000014954+0000014954+000000000+000002096+0000017050+0000000000+I40000017050+0000000000+Z
305007001305007112-116069     305007006009681820277TCS CARRIER BAG JUMBO  0000001000+00000048+00000+0001T   00000048+0000001457          1400 TS8090               2AZ
305007002305007206-000210     305007006003000631582TOOTHPICK HOLDER FLOWER0000001000+00003069+00000+0001T   00003069+0000001457          1400 TS8321               2AZ
305007003305007466-072725     305007006001023622532YO-YO PL               0000001000+00002630+00000+0001T   00002630+0000001457          1400 TS8785               2AZ
305007004305007056-005751     305007006003000102877CAR AIR-FRESH SHOE ASST0000001000+00001753+00000+0001T   00001753+0000001457          1400 TS8860               2AZ
305007005305007028-000272     305007006001023465283EGG-RINGS 2PCE      H&L0000001000+00003069+00000+0001T   00003069+0000001457          1400 TS8305               2AZ
305007006305007206-000180     305007006003000631223TEA INFUSER TEAMAN     0000001000+00004385+00000+0001T   00004385+0000001457          1400 TS8321               2AZ
305008000305008               305008               170213A9     1400+00000+A90000020214+0000020214+000000000+000002833+0000023040+0000000007+I20000000000+0000023040+Z
305008001305008369-000823     305008006001023796035BABY PULL ALONG S/SORT 0000001000+00006139+00000+0001T   00006139+0000001505          1400 TS8745               2AZ
305008002305008466-002096     305008006001023800398CATCHBALL VELCRO W/BALL0000001000+00005262+00000+0001T   00005262+0000001505          1400 TS8785               2AZ
305008003305008047-000507     305008006001023684479PLUG-ADAPTOR EURO TWIN 0000001000+00001753+00000+0001T   00001753+0000001505          1400 TS8880               2AZ
305008004305008112-116069     305008006009681820277TCS CARRIER BAG JUMBO  0000001000+00000048+00000+0001T   00000048+0000001505          1400 TS8090               2AZ
305008005305008565-000892-A   305008006003000690725NOVELTY FUN BALL       0000001000+00001314+00000+0001T   00001753+0008141505          1400 TS8745               2AZ
305008006305008264-000921     305008000090159150442MAISTO CAR 3" FRESH    0000001000+00001753+00000+0001T   00001753+0000001505          1400 TS8710               2AZ
305008007305008565-000080     305008006003000643424NOVELTY BENDY          0000001000+00002192+00000+0001T   00002192+0000001505          1400 TS8745               2AZ
305008008305008467-000002     305008006001023354518BEACH-SET PL 2PCE      0000001000+00001753+00000+0001T   00001753+0000001505          1400 TS8785               2AZ
305009000305009               305009               170213A9     1400+00000+A90000002192+0000002192+000000000+000000307+0000002490+0000000009+I20000000000+0000002490+Z
305009001305009567-004957     305009009780636049086TYB G02 ENGLISH        0000001000+00002192+00000+0001T   00002192+0000001506          1400 TS8757               2AZ
305010000305010               305010               170213A9     1400+00000+A90000001578+0000001578+000000000+000000221+0000001790+0000000009+I20000000000+0000001790+Z
305010001305010077-000323     305010006001023677563G/BAG 25X32CM E/DAY FLO0000001000+00001578+00000+0001T   00001578+0000001510          1400 TS8112               2AZ
305011000305011               305011               170213A9     1400+00000+A90000000700+0000000700+000000000+000000098+0000000790+0000000008+I20000000000+0000000790+Z
305011001305011007-000166     305011006009685857316SPIRAL NOTES A6 100PG  0000001000+00000700+00000+0001T   00000700+0000001511          1400 TS8130               2AZ
305012000305012               305012               170213A9     1400+00000+A90000003507+0000003507+000000000+000000491+0000003990+0000000008+I20000000000+0000003990+Z
305012001305012087-000102     305012006003000137466HAIR TRIMMER SET       0000001000+00003507+00000+0001T   00003507+0000001514          1400 TS8200               2AZ
305013000305013               305013               170213A9     1400+00000+A90000014471+0000014471+000000000+000002027+0000016490+0000000008+I20000000000+0000016490+Z
305013001305013263-000419     305013006003000599349LOOP TRACK RACER P/SET 0000001000+00012279+00000+0001T   00012279+0000001515          1400 TS8710               2AZ
305013002305013565-000887     305013006003000412334NOVELTY SILICONE TOY   0000001000+00002192+00000+0001T   00002192+0000001515          1400 TS8745               2AZ
305014000305014               305014               170213A9     1400+00000+A90000002104+0000002104+000000000+000000295+0000002390+0000000009+I20000000000+0000002390+Z
305014001305014903-000090     305014006009826020821SWT GS CHOCO COINS 60g 0000001000+00002104+00000+0001T   00002104+0000001516          1400 TS8150               2AZ
305015000305015               305015               170213A9     1400+00000+A90000006783+0000006783+000000000+000000952+0000007735+0000000000+I40000007735+0000000000+Z
305015001305015040-000213     305015006001023617736CANDLE-HOLDER DAISY    0000002000+00001227+00000+0001T   00001227+0000001521          1400 TS8510               2AZ
305015002305015039-000026     305015006001023551610C/TAPERED 25CM M/RED   0000002000+00001051+00000+0001T   00001051+0000001521          1400 TS8510               2AZ
305015003305015563-000318-L   305015006003000407088SERVIETTES 33cm RED    0000001000+00002192+00000+0001T   00002192+0000001521          1400 TS8214               2AZ
305015004305015112-116038     305015006009681820246TCS CARRIER BAG MIDI   0000001000+00000035+00000+0001T   00000035+0000001521          1400 TS8090               2AZ
305016000305016               305016               170213A9     1400+00000+A90000001753+0000001753+000000000+000000246+0000001990+0000000009+I20000000000+0000001990+Z
305016001305016046-002013-PK6 305016004897006174851BATTERY BUTTON AG13 6PC0000001000+00001753+00000+0001T   00001753+0000001521          1400 TS8312               2AZ
305017000305017               305017               170213A9     1400+00000+A90000001227+0000001227+000000000+000000172+0000001390+0000000009+I20000000000+0000001390+Z
305017001305017206-000630     305017006003000631919SPECTACLE CLEANING BRUS0000001000+00001227+00000+0001T   00001227+0000001522          1400 TS8321               2AZ
305018000305018               305018               170213A9     1400+00000+A90000007892+0000007892+000000000+000001105+0000008990+0000000007+I20000000000+0000008990+Z
305018001305018206-000610     305018006003000631674BOMB SHOTS PL 10PC     0000001000+00003507+00000+0001T   00003507+0000001523          1400 TS8321               2AZ
305018002305018001-000175     305018006001023788108B/MUG GLS LOVE 380ML   0000001000+00004385+00000+0001T   00004385+0000001523          1400 TS8515               2AZ
305019000305019               305019               170213A9     1400+00000+A90000000218+0000000218+000000000+000000031+0000000240+0000000009+I20000000000+0000000240+Z
305019001305019006-000171-E   305019006003000609406BALLOONS 1PC BLUE PRNT 0000001000+00000218+00000+0001T   00000218+0000001525          1400 TS8131               2AZ
305020000305020               305020               170213A9     1400+00000+A90000004119+0000004119+000000000+000000578+0000004690+0000000007+I20000000000+0000004690+Z
305020001305020077-000309     305020006001023608604GIFT-BAG 25X32CM GLOSS 0000001000+00001753+00000+0001T   00001753+0000001525          1400 TS8112               2AZ
305020002305020089-000030     305020006003000575671K/CHAIN LOVE MTL ASSTD 0000001000+00001753+00000+0001T   00001753+0000001525          1400 TS8205               2AZ
305020003305020304-001011     305020006001023806727FLWR ROSE RED W/BEAR   0000001000+00000613+00000+0001T   00000788+0006471525          1400 TS8510               2AZ
305021000305021               305021               170213A9     1400+00000+A90000000048+0000000048+000000000+000000007+0000000050+0000000005+I20000000000+0000000050+Z
305021001305021112-116069     305021006009681820277TCS CARRIER BAG JUMBO  0000001000+00000048+00000+0001T   00000048+0000001526          1400 TS8090               2AZ
305022000305022               305022               170213A9     1400+00000+A90000005700+0000005700+000000000+000000798+0000006490+0000000008+I20000000000+0000006490+Z
305022001305022046-002023-C   305022006001023698254BATTERIES ALKALN CARD-50000001000+00005700+00000+0001T   00005700+0000001532          1400 TS8312               2AZ
305023000305023               305023               170213A9     1400+00000+A90000003243+0000003243+000000000+000000455+0000003698+0000000000+I40000003698+0000000000+Z
305023001305023051-002401     305023006001023523570TRIGGER-SPRAYER   300ml0000001000+00001490+00000+0001T   00001490+0000001547          1400 TS8820               2AZ
305023002305023200-003026     305023006003000276448REFUSE BAGS 10PCE GREEN0000001000+00001753+00000+0001T   00001753+0000001547          1400 TS8214               2AZ
305024000305024               305024               170213A9     1400+00000+A90000001523+0000001523+000000000+000000214+0000001730+0000000007+I20000000000+0000001730+Z
305024001305024903-000200     305024006009826020234SWT CHOC RP CHOCO 23G  0000001000+00000788+00000+0001T   00000788+0000001548          1400 TS8150               2AZ
305024002305024018-000177     305024006001023797513MUG MINI LOVE ASSTD    0000001000+00000700+00000+0001T   00000700+0000001548          1400 TS8515               2AZ
305024003305024112-116038     305024006009681820246TCS CARRIER BAG MIDI   0000001000+00000035+00000+0001T   00000035+0000001548          1400 TS8090               2AZ
305025000305025               305025               170213A9     1400+00000+A90000007893+0000007893+000000000+000001106+0000008990+0000000009+I20000000000+0000008990+Z
305025001305025082-000126     305025006003000646517READING GLASS TWIN 2.5 0000001000+00007893+00000+0001T   00007893+0000001550          1400 TS8160               2AZ
305026000305026               305026               170213A9     1400+00000+A90000005698+0000005698+000000000+000000799+0000006497+0000000000+I40000006497+0000000000+Z
305026001305026077-000926     305026006003000414178G/WRAP 700mmx2m LOVE   0000001000+00002192+00000+0001T   00002192+0000001553          1400 TS8112               2AZ
305026002305026039-000320     305026006001023816153BIRTHDAY-CANDLES 13PCE 0000001000+00002630+00000+0001T   00002630+0000001553          1400 TS8510               2AZ
305026003305026007-000235     305026006003000134434LABELS RECTANGULAR 60pc0000001000+00000876+00000+0001T   00000876+0000001553          1400 TS8130               2AZ
305027000305027               305027               170213A9     1400+00000+A90000000613+0000000613+000000000+000000086+0000000690+0000000009+I20000000000+0000000690+Z
305027001305027304-001011     305027006001023806727FLWR ROSE RED W/BEAR   0000001000+00000613+00000+0001T   00000788+0006471554          1400 TS8510               2AZ
305028000305028               305028               170213A9     1400+00000+A90000001753+0000001753+000000000+000000246+0000001990+0000000009+I20000000000+0000001990+Z
305028001305028306-000002     305028006003000365852NAIL BRUSHES 3PC ASTD  0000001000+00001753+00000+0001T   00001753+0000001558          1400 TS8200               2AZ
305029000305029               305029               170213A9     1400+00000+A90000001227+0000001227+000000000+000000172+0000001390+0000000009+I20000000000+0000001390+Z
305029001305029007-000160     305029006009685857286NOTE-BOOK A5 SHORTHAND 0000001000+00001227+00000+0001T   00001227+0000001607          1400 TS8130               2AZ
305030000305030               305030               170213A9     1400+00000+A90000010083+0000010083+000000000+000001413+0000011496+0000000000+I40000011496+0000000000+Z
305030001305030019-000070     305030006003000297474VASE GLS CLEAR BOTTLE  0000001000+00004385+00000+0001T   00004385+0000001615          1400 TS8510               2AZ
305030002305030019-071597     305030006008766071597PEBBLES 250g CLEAR  BAG0000001000+00002192+00000+0001T   00002192+0000001615          1400 TS8510               2AZ
305030003305030019-071595     305030006001023756428PEBBLES 250g SKY-BLUE  0000002000+00001753+00000+0001T   00001753+0000001615          1400 TS8510               2AZ
305031000305031               305031               170213A9     1400+00000+A90000005960+0000005960+000000000+000000836+0000006796+0000000000+I40000006796+0000000000+Z
305031001305031903-000200     305031006009826020234SWT CHOC RP CHOCO 23G  0000002000+00000788+00000+0001T   00000788+0000001617          1400 TS8150               2AZ
305031002305031080-000127     305031006003000424351VALENTINES DAY 36x24CM 0000002000+00002192+00000+0001T   00002192+0000001617          1400 TS8112               2AZ
305032000305032               305032               170213A9     1400+00000+A90000016665+0000016665+000000000+000002334+0000018999+0000000000+I40000018999+0000000000+Z
305032001305032365-003115     305032006003000157525PLAY-SET IRON+BOARD+ACC0000001000+00016665+00000+0001T   00016665+0000001630          1400 TS8725               2AZ
305033000305033               305033               170213A9     1400+00000+A90000024099+0000024099+000000000+000003380+0000027479+0000000000+I40000027479+0000000000+Z
305033001305033079-001002     305033006003000448715CANVAS A4 WOOD MOUNTED 0000002000+00002630+00000+0001T   00002630+0000001711          1400 TS8130               2AZ
305033002305033565-000014     305033006003000671915NOVELTY AIR BALLOON    0000001000+00002630+00000+0001T   00002630+0000001711          1400 TS8745               2AZ
305033003305033079-013099     305033006003000081875ART+CRAFT EYES ASSTD   0000001000+00001753+00000+0001T   00001753+0000001711          1400 TS8130               2AZ
305033004305033071-001012     305033006001023474445MARKERS BLACK ROUND    0000001000+00000876+00000+0001T   00000876+0000001711          1400 TS8130               2AZ
305033005305033077-000151     305033006008766114676GIFT-WRAP C/PHANE ASSTD0000002000+00000876+00000+0001T   00000876+0000001711          1400 TS8112               2AZ
305033006305033033-000128     305033006009654960214HAIR COMB PLASTIC 2PC  0000001000+00000876+00000+0001T   00000876+0000001711          1400 TS8200               2AZ
305033007305033071-005214     305033006003000152544CELLOTAPE SUPER REFILL 0000001000+00001490+00000+0001T   00001490+0000001711          1400 TS8130               2AZ
305033008305033903-000844     305033005010478432567SWT CANDY DL LUV HEARTS0000002000+00001314+00000+0001T   00001314+0000001711          1400 TS8150               2AZ
305033009305033565-000071     305033006003000643387NOVELTY WIND UP CHATTER0000002000+00001139+00000+0001T   00001139+0000001711          1400 TS8745               2AZ
305033010305033369-001137-B   305033006003000626373BABY BATH VINYL DUCK   0000002000+00001578+00000+0001T   00001578+0000001711          1400 TS8745               2AZ
305033011305033903-000920     305033000041396002155SWT CANDY STICK/TATT   0000002000+00000700+00000+0001T   00000700+0000001711          1400 TS8150               2AZ
305034000305034               305034               170213A9     1400+00000+A90000001311+0000001311+000000000+000000186+0000001490+0000000007+I20000000000+0000001490+Z
305034001305034080-000133-A   305034006003000647019MINI VALENTINES CARD   0000003000+00000437+00000+0001T   00000437+0000001718          1400 TS8112               2AZ
305035000305035               305035               170213A9     1400+00000+A90000003507+0000003507+000000000+000000491+0000003990+0000000008+I20000000000+0000003990+Z
305035001305035018-005009     305035006001023725608MUG W/PLUSH-BEAR LOVE  0000001000+00003507+00000+0001T   00003507+0000001739          1400 TS8515               2AZ
A17021300                                          08242012A9SLAVE 2                       TS82IC
A17021301                                          09055593A9SLAVE 2                       TS82IC
B30498900                                          170213A9077-000005-D   12013303SLAVE 2     TS82IC0000002000+0000001000+0000000000000+
M17021391                              CASH        A9SLAVE 2                       Z-REPORT No.   115TOTAL (Sales - Refunds)           4726.92       CASH TO BE BANKED                 2393.60       DEBIT CARDS                          0.00       CREDIT CARDS                      2333.32       Z-READING                         4726.92       AIRTIME DEBIT CARD SALES             0.00       AIRTIME CARD SALES                   0.00       OVERS/UNDERS                         0.00       AIRTIME CASH SALES                   0.00       GIFT CARDS                           0.00       GIFT CARD CASH SALES                 0.00       T O T A L  CASH PAYOUTS              0.00                                                                                                                                                                                                                                                                                                                                                      Z
M17021392                              CASH        A9ABSENT                                                                                                                                                                                          ANNUAL LEAVE                                                                                                                                                                                    DAY OFF                                                                                                                                                                                         COMMENTS                                                                                                                                                                                                                                                                                                                                                                                       Z
Y17021300                                          A900000000421022+000067
ZA917021319173 SLAVE 2      SALES DATA                     NEXT INVOICE NO.  305036 0115
X A9 Slave 2 First invoice 304968 170213 Last invoice 305035 170213 Next invoice 305036 Total number of records 000000223 clbackup completed 19:17:27
