103773000103773               103773               170213AA     1400+00000+AA0000005260+0000005260+000000000+000000738+0000005990+0000000008+I20000000000+0000005990+Z
103773001103773567-075699     103773006003000641277BK NOVEL CATEGORY A    0000002000+00002630+00000+0001T   00003069+0008190907          1400 ZD5757               1AZ
103774000103774               103774               170213AA     1400+00000+AA0000001753+0000001753+000000000+000000246+0000001990+0000000009+I20000000000+0000001990+Z
103774001103774306-000007     103774006001023905093DENTAL FLOSS METHOL    0000001000+00001753+00000+0001T   00001753+0000000923          1400 ZD5200               1AZ
103775000103775               103775               170213AA     1400+00000+AA0000001578+0000001578+000000000+000000221+0000001790+0000000009+I20000000000+0000001790+Z
103775001103775077-000303     103775006001023593757GIFT-BAG PAPER MED     0000001000+00001578+00000+0001T   00001578+0000001009          1400 ZD5112               1AZ
103776000103776               103776               170213AA     1400+00000+AA0000010085+0000010085+000000000+000001412+0000011490+0000000007+I20000000000+0000011490+Z
103776001103776024-000208     103776006001023414991COOKIE-CUTTER 3PC      0000001000+00001314+00000+0001T   00002630+0008121032          1400 ZD5300               1AZ
103776002103776024-000135     103776006001023902450QUICHE PAN 26x2.5cm    0000001000+00008771+00000+0001T   00008771+0000001032          1400 ZD5300               1AZ
103777000103777               103777               170213AA     1400+00000+AA0000001578+0000001578+000000000+000000221+0000001790+0000000009+I20000000000+0000001790+Z
103777001103777077-000303     103777006001023593757GIFT-BAG PAPER MED     0000001000+00001578+00000+0001T   00001578+0000001038          1400 ZD5112               1AZ
103778000103778               103778               170213AA     1400+00000+AA0000003069+0000003069+000000000+000000430+0000003490+0000000009+I20000000000+0000003490+Z
103778001103778024-000212     103778006001023858030COOKIE-CUTTERS PL SMALL0000001000+00003069+00000+0001T   00003069+0000001045          1400 ZD5300               1AZ
103779000103779               103779               170213AA     1400+00000+AA0000007046+0000007046+000000000+000000988+0000008030+0000000004+I20000000000+0000008030+Z
103779001103779004-071280     103779006003000129959WRITABLE-CD SINGLE     0000002000+00001314+00000+0001T   00001314+0000001049          1400 ZD5310               1AZ
103779002103779306-000498     103779006003000519392TOOTHBRUSH 3PC ASTD    0000001000+00001753+00000+0001T   00001753+0000001049          1400 ZD5200               1AZ
103779003103779206-000220     103779006003000631704EGG TIMER COLOUR-CHANGE0000001000+00002630+00000+0001T   00002630+0000001049          1400 ZD5321               1AZ
103779004103779112-116038     103779006009681820246TCS CARRIER BAG MIDI   0000001000+00000035+00000+0001T   00000035+0000001049          1400 ZD5090               1AZ
103780000103780               103780               170213AA     1400+00000+AA0000003156+0000003156+000000000+000000442+0000003590+0000000008+I20000000000+0000003590+Z
103780001103780018-000127     103780006001023380289MUG OCC STRAIGHT LOVE  0000002000+00001578+00000+0001T   00001753+0006471106          1400 ZD5515               1AZ
103781000103781               103781               170213AA     1400+00000+AA0000002352+0000002352+000000000+000000331+0000002680+0000000003+I20000000000+0000002680+Z
103781001103781362-004001     103781000613153010385PRINCESS ASSTD TRINKETS0000001000+00000700+00000+0001T   00000876+0008181117          1400 ZD5160               1AZ
103781002103781362-004000     103781000613153000225DISNEY T/BELL TRINKETS 0000001000+00000700+00000+0001T   00000876+0008181117          1400 ZD5160               1AZ
103781003103781007-000405     103781006009635830369EXERCISE-BOOK A5 72PAGE0000001000+00000262+00000+0001T   00000262+0000001117          1400 ZD5130               1AZ
103781004103781007-000193     103781006009635831731BK JOTTER A4 72-PG F/M 0000001000+00000437+00000+0001T   00000437+0000001117          1400 ZD5130               1AZ
103781005103781006-000173-C   103781006003000636518BALLOONS 1PC PINK      0000001000+00000218+00000+0001T   00000218+0000001117          1400 ZD5131               1AZ
103781006103781112-116038     103781006009681820246TCS CARRIER BAG MIDI   0000001000+00000035+00000+0001T   00000035+0000001117          1400 ZD5090               1AZ
103782000103782               103782               170213AA     1400+00000+AA0000000876+0000000876+000000000+000000123+0000000990+0000000009+I20000000000+0000000990+Z
103782001103782039-000319-7   103782006003000443109B/CANDLES LRG NUMBER-7 0000001000+00000876+00000+0001T   00000876+0000001122          1400 ZD5510               1AZ
103783000103783               103783               170213AA     1400+00000+AA0000002454+0000002454+000000000+000000344+0000002790+0000000008+I20000000000+0000002790+Z
103783001103783077-000011-C   103783006001023808523TISSUE 10xSHTS RED     0000001000+00000876+00000+0001T   00000876+0000001124          1400 ZD5112               1AZ
103783002103783077-000303     103783006001023593757GIFT-BAG PAPER MED     0000001000+00001578+00000+0001T   00001578+0000001124          1400 ZD5112               1AZ
103784000103784               103784               170213AA     1400+00000+AA0000001753+0000001753+000000000+000000246+0000001999+0000000000+I40000001999+0000000000+Z
103784001103784077-000472     103784006003000330133G-BAG DESGNR LRG 25X32 0000001000+00001753+00000+0001T   00001753+0000001144          1400 ZD5112               1AZ
103785000103785               103785               170213AA     1400+00000+AA0000008713+0000008713+000000000+000001222+0000009930+0000000005+I20000000000+0000009930+Z
103785001103785002-000970     103785006001023770578FUNNELS 3PCE WHITE     0000001000+00001227+00000+0001T   00001227+0000001148          1400 ZD5300               1AZ
103785002103785469-006641     103785006003000542048B/BLOCK 4 PC FIGURINES 0000001000+00001753+00000+0001T   00001753+0000001148          1400 ZD5755               1AZ
103785003103785469-000184     103785006001023744821BUILDING BLOCKS        0000001000+00004385+00000+0001T   00004385+0000001148          1400 ZD5755               1AZ
103785004103785080-000133-A   103785006003000647019MINI VALENTINES CARD   0000001000+00000437+00000+0001T   00000437+0000001148          1400 ZD5112               1AZ
103785005103785112-116038     103785006009681820246TCS CARRIER BAG MIDI   0000001000+00000035+00000+0001T   00000035+0000001148          1400 ZD5090               1AZ
103785006103785077-000314     103785006003000181148GIFT-BAG 11X14CM MATT  0000001000+00000876+00000+0001T   00000876+0000001148          1400 ZD5112               1AZ
103786000103786               103786               170213AA     1400+00000+AA0000007471+0000007471+000000000+000001057+0000008520+0000000008+I20000000000+0000008520+Z
103786001103786200-000107     103786006003000638499PICNIC CUPS PAPER 250ml0000002000+00001753+00000+0001T   00001753+0000001149          1400 ZD5214               1AZ
103786002103786903-000183     103786006003000451043SWT LB HEART LOLLY     0000010000+00000393+00000+0001T   00000393+0000001149          1400 ZD5150               1AZ
103786003103786112-116038     103786006009681820246TCS CARRIER BAG MIDI   0000001000+00000035+00000+0001T   00000035+0000001149          1400 ZD5090               1AZ
103787000103787               103787               170213AA     1400+00000+AA0000003329+0000003329+000000000+000000468+0000003790+0000000007+I20000000000+0000003790+Z
103787001103787903-000200     103787006009826020234SWT CHOC RP CHOCO 23G  0000002000+00000788+00000+0001T   00000788+0000001150          1400 ZD5150               1AZ
103787002103787264-000921     103787000090159150442MAISTO CAR 3" FRESH    0000001000+00001753+00000+0001T   00001753+0000001150          1400 ZD5710               1AZ
103788000103788               103788               170213AA     1400+00000+AA0000030559+0000030559+000000000+000004279+0000034838+0000000000+I40000034838+0000000000+Z
103788001103788007-000324     10378800600968585864125 SHEETS BRIGHTS MARLI0000002000+00003507+00000+0001T   00003507+0000001153          1400 ZD5130               1AZ
103788002103788079-000802     103788006001023528902ART+CRAFT STICKS 100PCE0000001000+00002455+00000+0001T   00002455+0000001153          1400 ZD5130               1AZ
103788003103788567-013439     103788009781775785798EK KAN LEES ASSTD      0000001000+00003507+00000+0001T   00003507+0000001153          1400 ZD5757               1AZ
103788004103788567-013439     103788009781775785767EK KAN LEES ASSTD      0000001000+00003507+00000+0001T   00003507+0000001153          1400 ZD5757               1AZ
103788005103788567-011313     103788006003000593965DIERESTORIES AFR ASSTD 0000004000+00003507+00000+0001T   00003507+0000001153          1400 ZD5757               1AZ
103788006103788112-116069     103788006009681820277TCS CARRIER BAG JUMBO  0000001000+00000048+00000+0001T   00000048+0000001153          1400 ZD5090               1AZ
103789000103789               103789               170213AA     1400+00000+AA0000040731+0000040731+000000000+000005708+0000046439+0000000000+I40000046439+0000000000+Z
103789001103789072-020242     103789006003000053728PET BED COTTON TEXTILE 0000001000+00008771+00000+0001T   00008771+0000001203          1400 ZD5870               1AZ
103789002103789174-000305     103789006003000105502TRAVEL NECK-PILLOW     0000001000+00007016+00000+0001T   00007016+0000001203          1400 ZD5205               1AZ
103789003103789088-000104     103789006001023765444INCENSE SET ASSTD FRAG 0000001000+00002192+00000+0001T   00002192+0000001203          1400 ZD5212               1AZ
103789004103789088-000082     103789006001023798008P/POURRI SACHETS 5x10ml0000001000+00002630+00000+0001T   00002630+0000001203          1400 ZD5212               1AZ
103789005103789088-000103     103789006008766127102INCENSE 20PCE ASSTD    0000002000+00000700+00000+0001T   00000700+0000001203          1400 ZD5212               1AZ
103789006103789112-116069     103789006009681820277TCS CARRIER BAG JUMBO  0000001000+00000048+00000+0001T   00000048+0000001203          1400 ZD5090               1AZ
103789007103789200-000023     103789006003000399413BAG SLIDE LOCK 10PC    0000001000+00002630+00000+0001T   00002630+0000001203          1400 ZD5214               1AZ
103789008103789088-000108     103789006001023765536POTPOURRI-OIL 10ml ASST0000002000+00001753+00000+0001T   00001753+0000001203          1400 ZD5212               1AZ
103789009103789088-000103     103789006008766127102INCENSE 20PCE ASSTD    0000001000+00000700+00000+0001T   00000700+0000001203          1400 ZD5212               1AZ
103789010103789200-000003     103789006003000532360DISPOSABLE BAG 100PC   0000001000+00002630+00000+0001T   00002630+0000001203          1400 ZD5214               1AZ
103789011103789028-000272     103789006001023465283EGG-RINGS 2PCE      H&L0000001000+00003069+00000+0001T   00003069+0000001203          1400 ZD5305               1AZ
103789012103789007-000898     103789006001023871947BOOK JOURNAL           0000001000+00006139+00000+0001T   00006139+0000001203          1400 ZD5130               1AZ
103790000103790               103790               170213AA     1400+00000+AA0000016665+0000016665+000000000+000002334+0000018990+0000000009+I20000000000+0000018990+Z
103790001103790105-007525     103790006003000487707STORAGE BOX CLEAR 21L  0000001000+00016665+00000+0001T   00016665+0000001307          1400 ZD5210               1AZ
103791000103791               103791               170213AA     1400+00000+AA0000016663+0000016663+000000000+000002334+0000018997+0000000000+I40000018997+0000000000+Z
103791001103791301-000013     103791006001023781604ORN SENTIMENT STONE 4-A0000001000+00006139+00000+0001T   00006139+0000001318          1400 ZD5505               1AZ
103791002103791088-000107     103791006001023555823DIFFUSER SET FLOWER    0000001000+00004385+00000+0001T   00004385+0000001318          1400 ZD5212               1AZ
103791003103791031-080509     103791006001023802446P/FRAME COLLAGE 10X15CM0000001000+00006139+00000+0001T   00006139+0000001318          1400 ZD5510               1AZ
103792000103792               103792               170213AA     1400+00000+AA0000005963+0000005963+000000000+000000835+0000006790+0000000008+I20000000000+0000006790+Z
103792001103792368-000002     103792006003000098101PLUSH ANIMALS 23cm     0000001000+00004385+00000+0001T   00004385+0000001339          1400 ZD5745               1AZ
103792002103792077-000303     103792006001023593757GIFT-BAG PAPER MED     0000001000+00001578+00000+0001T   00001578+0000001339          1400 ZD5112               1AZ
103793000103793               103793               170213AA     1400+00000+AA0000000000+0000000000+000000000+000000000+0000000000+0000000000+I20000000000+0000000000+Z
103793001103793368-000002     103793006003000098101PLUSH ANIMALS 23cm     0000001000-00004385+00000+0001T   00004385+0000001342          1400 ZD57452IC            1 Z
103793002103793368-000001     103793006003000097982Plush Bear 25cm        0000001000+00004385+00000+0001T   00004385+0000001342          1400 ZD5745               1 Z
103794000103794               103794               170213AA     1400+00000+AA0000003765+0000003765+000000000+000000530+0000004290+0000000005+I20000000000+0000004290+Z
103794001103794206-000630     103794006003000631919SPECTACLE CLEANING BRUS0000002000+00001227+00000+0001T   00001227+0000001349          1400 ZD5321               1AZ
103794002103794903-000155     103794006009803374435SWT LOLLY I LUV U HEART0000001000+00000525+00000+0001T   00000525+0000001349          1400 ZD5150               1AZ
103794003103794903-000183     103794006003000451043SWT LB HEART LOLLY     0000002000+00000393+00000+0001T   00000393+0000001349          1400 ZD5150               1AZ
103795000103795               103795               170213AA     1400+00000+AA0000002192+0000002192+000000000+000000307+0000002490+0000000009+I20000000000+0000002490+Z
103795001103795046-000012-A   103795006003000208296BATTERIES H/POWER SZ:AA0000001000+00002192+00000+0001T   00002192+0000001350          1400 ZD5312               1AZ
103796000103796               103796               170213AA     1400+00000+AA0000007061+0000007061+000000000+000000991+0000008052+0000000000+I40000008052+0000000000+Z
103796001103796071-001015     103796006001023910387MARKERS PERMANENT 3PK  0000001000+00001753+00000+0001T   00001753+0000001404          1400 ZD5130               1AZ
103796002103796079-000282     103796006001023493309PAINT TUBS POSTER 12COL0000001000+00002630+00000+0001T   00002630+0000001404          1400 ZD5130               1AZ
103796003103796103-000060     103796006001023795489BAMBOO BASKET RECT     0000001000+00002630+00000+0001T   00002630+0000001404          1400 ZD5300               1AZ
103796004103796112-116069     103796006009681820277TCS CARRIER BAG JUMBO  0000001000+00000048+00000+0001T   00000048+0000001404          1400 ZD5090               1AZ
103797000103797               103797               170213AA     1400+00000+AA0000039067+0000039067+000000000+000005474+0000044541+0000000000+I40000044541+0000000000+Z
103797001103797077-000303     103797006001023593757GIFT-BAG PAPER MED     0000005000+00001578+00000+0001T   00001578+0000001409          1400 ZD5112               1AZ
103797002103797206-000150     103797006003000628667SLICER CUCUMBER        0000002000+00002192+00000+0001T   00002192+0000001409          1400 ZD5321               1AZ
103797003103797206-000210     103797006003000631582TOOTHPICK HOLDER FLOWER0000001000+00003069+00000+0001T   00003069+0000001409          1400 ZD5321               1AZ
103797004103797206-000350     103797006003000633265EGG MOULD SUNRISE      0000002000+00002630+00000+0001T   00002630+0000001409          1400 ZD5321               1AZ
103797005103797206-000420     103797006003000619504MUG NOVELTY GOLF       0000002000+00008771+00000+0001T   00008771+0000001409          1400 ZD5321               1AZ
103797006103797112-116069     103797006009681820277TCS CARRIER BAG JUMBO  0000001000+00000048+00000+0001T   00000048+0000001409          1400 ZD5090               1AZ
103797007103797080-000133     103797006003000535613CARD&ENV MINI ASTD DSGN0000002000+00000437+00000+0001T   00000437+0000001409          1400 ZD5112               1AZ
103798000103798               103798               170213AA     1400+00000+AA0000003506+0000003506+000000000+000000492+0000003990+0000000008+I20000000000+0000003990+Z
103798001103798083-000058     103798006003000400331LIGHTER JET CIGAR REFIL0000001000+00002630+00000+0001T   00002630+0000001409          1400 ZD5315               1AZ
103798002103798083-000295     103798006001023898562LIGHTER-GAS BUTANE 18ml0000001000+00000876+00000+0001T   00000876+0000001409          1400 ZD5315               1AZ
103799000103799               103799               170213AA     1400+00000+AA0000004117+0000004117+000000000+000000577+0000004690+0000000004+I20000000000+0000004690+Z
103799001103799006-000180     103799006003000610402BALLOONS BIRTHDAY ASSTD0000001000+00000876+00000+0001T   00000876+0000001417          1400 ZD5131               1AZ
103799002103799006-001000     103799006003000093779HELIUM BALLOON FILL    0000001000+00000613+00000+0001T   00000613+0000001417          1400 ZD5131               1AZ
103799003103799566-000460     103799000721129024011STICKERS RUB-ON TRANSFR0000002000+00001314+00000+0001T   00001753+0008151417          1400 ZD5130               1AZ
103800000103800               103800               170213AA     1400+00000+AA0000001839+0000001839+000000000+000000258+0000002090+0000000007+I20000000000+0000002090+Z
103800001103800006-001000     103800006003000093779HELIUM BALLOON FILL    0000003000+00000613+00000+0001T   00000613+0000001426          1400 ZD5131               1AZ
103801000103801               103801               170213AA     1400+00000+AA0000001752+0000001752+000000000+000000246+0000001990+0000000008+I20000000000+0000001990+Z
103801001103801903-000843     103801008693029031067SWT GUMMY JELAXY 80G   0000001000+00000964+00000+0001T   00000964+0000001432          1400 ZD5150               1AZ
103801002103801903-000200     103801006009826020234SWT CHOC RP CHOCO 23G  0000001000+00000788+00000+0001T   00000788+0000001432          1400 ZD5150               1AZ
103802000103802               103802               170213AA     1400+00000+AA0000002629+0000002629+000000000+000000369+0000002990+0000000008+I20000000000+0000002990+Z
103802001103802089-000192-A   103802006001023901774KEY-CHAIN ACRYLIC      0000001000+00000876+00000+0001T   00000876+0000001445          1400 ZD5205               1AZ
103802002103802039-000114     103802006001023524058CANDLE T/LITE RED 3.5CM0000001000+00001753+00000+0001T   00001753+0000001445          1400 ZD5510               1AZ
103803000103803               103803               170213AA     1400+00000+AA0000028580+0000028580+000000000+000004004+0000032584+0000000000+I40000032584+0000000000+Z
103803001103803200-000011     103803006003000613489DISPOSABLE BAG ZIPER   0000002000+00003507+00000+0001T   00003507+0000001455          1400 ZD5214               1AZ
103803002103803105-009015     103803006002923000009STORAGE BOX 32L FROSTED0000001000+00011402+00000+0001T   00011402+0000001455          1400 ZD5210               1AZ
103803003103803903-000012     103803006002099007308SWT MALLOW S/BERRY     0000002000+00000437+00000+0001T   00000437+0000001455          1400 ZD5150               1AZ
103803004103803903-000194     103803006009826020616SWT CHOC RP LOLLY 25G  0000002000+00001314+00000+0001T   00001314+0000001455          1400 ZD5150               1AZ
103803005103803105-007805     103803006002923018920STORAGE BOX CLEAR 9.5L 0000001000+00005262+00000+0001T   00005262+0000001455          1400 ZD5210               1AZ
103803006103803018-000177     103803006001023797513MUG MINI LOVE ASSTD    0000002000+00000700+00000+0001T   00000700+0000001455          1400 ZD5515               1AZ
103804000103804               103804               170213AA     1400+00000+AA0000002192+0000002192+000000000+000000307+0000002490+0000000009+I20000000000+0000002490+Z
103804001103804006-005909     103804006003000081301PARTY FAVOUR STAR WAND 0000001000+00002192+00000+0001T   00002192+0000001503          1400 ZD5131               1AZ
103805000103805               103805               170213AA     1400+00000+AA0000006961+0000006961+000000000+000000976+0000007937+0000000000+I40000007937+0000000000+Z
103805001103805077-000382     103805006003000247820GIFT-BAG MED 18X23CM   0000001000+00001753+00000+0001T   00001753+0000001506          1400 ZD5112               1AZ
103805002103805903-000095     103805006001704011495SWT SPECKLED-EGGS 100G 0000001000+00002104+00000+0001T   00002104+0000001506          1400 ZD5150               1AZ
103805003103805106-000899     103805006003000653287WTR BOTTLE 2L W/HANDLE 0000001000+00003069+00000+0001T   00003507+0008191506          1400 ZD5210               1AZ
103805004103805112-116038     103805006009681820246TCS CARRIER BAG MIDI   0000001000+00000035+00000+0001T   00000035+0000001506          1400 ZD5090               1AZ
103806000103806               103806               170213AA     1400+00000+AA0000015639+0000015639+000000000+000002193+0000017832+0000000000+I40000017832+0000000000+Z
103806001103806903-000095     103806006001704011495SWT SPECKLED-EGGS 100G 0000001000+00002104+00000+0001T   00002104+0000001510          1400 ZD5150               1AZ
103806002103806903-000499     103806006001704012492SWT CHOC MALLOWS 50g   0000001000+00001227+00000+0001T   00001227+0000001510          1400 ZD5150               1AZ
103806003103806566-000009     103806006003000180943STICKER-BOOK HOLOGRAM  0000003000+00001753+00000+0001T   00001753+0000001510          1400 ZD5130               1AZ
103806004103806566-000006     103806006001023671189STICKER-BOOK DRESS-UP  0000001000+00002630+00000+0001T   00002630+0000001510          1400 ZD5130               1AZ
103806005103806566-000352     103806006001023809261STICKERS LASER ASSTD   0000002000+00002192+00000+0001T   00002192+0000001510          1400 ZD5130               1AZ
103806006103806112-116038     103806006009681820246TCS CARRIER BAG MIDI   0000001000+00000035+00000+0001T   00000035+0000001510          1400 ZD5090               1AZ
103807000103807               103807               170213AA     1400+00000+AA0000045196+0000045196+000000000+000006335+0000051531+0000000000+I40000051531+0000000000+Z
103807001103807365-064009     103807006003000242634PLAY-SET CARRY BOX&PET 0000001000+00017542+00000+0001T   00017542+0000001516          1400 ZD5725               1AZ
103807002103807077-000327     103807006001023677686GIFT-BAG 25X32CM E/D BA0000001000+00001490+00000+0001T   00001490+0000001516          1400 ZD5112               1AZ
103807003103807262-000625     103807006003000119585CAR MDC JEEP & TRAILER 0000001000+00002630+00000+0001T   00002630+0000001516          1400 ZD5710               1AZ
103807004103807361-000114     103807006001023744074DOLL SML 15cm BENDABLE 0000001000+00001753+00000+0001T   00001753+0000001516          1400 ZD5725               1AZ
103807005103807567-011422     103807006003000641222BK COLOURING THERAPY   0000001000+00003507+00000+0001T   00003507+0000001516          1400 ZD5757               1AZ
103807006103807079-000334     103807006003000670437THERAPY P/CRAYONS 18   0000001000+00005262+00000+0001T   00005262+0000001516          1400 ZD5130               1AZ
103807007103807267-000310     103807006003000163090PUZZLE WOOD TRAY ASSTD 0000001000+00001753+00000+0001T   00001753+0000001516          1400 ZD5755               1AZ
103807008103807266-001304     103807006001023560711MARBLES MILKY BAG OF 450000001000+00001227+00000+0001T   00001227+0000001516          1400 ZD5710               1AZ
103807009103807564-000012     103807006001023130075BUBBLE BOTTLE MAGIC    0000002000+00000700+00000+0001T   00000700+0000001516          1400 ZD5131               1AZ
103807010103807362-001103     103807006001023793515JWLRY GRL ASS 2PC ASSTD0000001000+00001753+00000+0001T   00001753+0000001516          1400 ZD5160               1AZ
103807011103807362-003013     103807006003000307364GIRL ACCESS BAG SEQUIN 0000001000+00001753+00000+0001T   00001753+0000001516          1400 ZD5160               1AZ
103807012103807078-000025     103807008887013700064SUPERGLUE 3g 1PCE CARD 0000001000+00000876+00000+0001T   00000876+0000001516          1400 ZD5810               1AZ
103807013103807077-000115-B   103807006003000181025GIFT-WRAP PPR 700MMX2M 0000001000+00002630+00000+0001T   00002630+0000001516          1400 ZD5112               1AZ
103807014103807903-000216     103807006925925900966SWT MALLOW TWIST ERKO  0000006000+00000262+00000+0001T   00000262+0000001516          1400 ZD5150               1AZ
103807015103807112-116069     103807006009681820277TCS CARRIER BAG JUMBO  0000001000+00000048+00000+0001T   00000048+0000001516          1400 ZD5090               1AZ
103808000103808               103808               170213AA     1400+00000+AA0000025437-0000025437-000000000+000003562-0000029000-0000000001+I20000000000+0000029000-Z
103808001103808105-007590     103808006003000486274STORAGE BOX CLEAR 19L  0000002000-00014034+00000+0001T   00014034+0000001532          1400 ZD52101IC            1 Z
103808002103808105-007525     103808006003000487707STORAGE BOX CLEAR 21L  0000001000-00016665+00000+0001T   00016665+0000001532          1400 ZD52101IC            1 Z
103808003103808105-007555     103808006003000485796STORAGE BOX CLEAR NICHE0000002000+00009648+00000+0001T   00009648+0000001532          1400 ZD5210               1 Z
103809000103809               103809               170213AA     1400+00000+AA0000001490+0000001490+000000000+000000209+0000001690+0000000009+I20000000000+0000001690+Z
103809001103809077-000299     103809006003000395576G/BAG 32x25cm LRG LOVE 0000001000+00001490+00000+0001T   00001490+0000001539          1400 ZD5112               1AZ
103810000103810               103810               170213AA     1400+00000+AA0000002629+0000002629+000000000+000000369+0000002990+0000000008+I20000000000+0000002990+Z
103810001103810071-081112     103810006936198404945CORRECTION TAPE 10mx5mm0000001000+00001753+00000+0001T   00001753+0000001556          1400 ZD5130               1AZ
103810002103810071-003004     103810006003000662821PEN BALL POINT 3PC BLUE0000001000+00000876+00000+0001T   00000876+0000001556          1400 ZD5130               1AZ
103811000103811               103811               170213AA     1400+00000+AA0000008066+0000008066+000000000+000001130+0000009196+0000000000+I40000009196+0000000000+Z
103811001103811031-000923     103811006001023669933P/FRAME BLK W/WORDS    0000001000+00003507+00000+0001T   00003507+0000001634          1400 ZD5510               1AZ
103811002103811077-000299     103811006003000395576G/BAG 32x25cm LRG LOVE 0000001000+00001490+00000+0001T   00001490+0000001634          1400 ZD5112               1AZ
103811003103811040-000051     103811006001023799494C/HOLDER GLASS LANTERN 0000001000+00003069+00000+0001T   00003069+0000001634          1400 ZD5510               1AZ
103812000103812               103812               170213AA     1400+00000+AA0000000788+0000000788+000000000+000000111+0000000890+0000000009+I20000000000+0000000890+Z
103812001103812903-000138     103812006002099004314SWT GS WINE GUMS 60G   0000001000+00000788+00000+0001T   00000788+0000001654          1400 ZD5150               1AZ
103813000103813               103813               170213AA     1400+00000+AA0000001578+0000001578+000000000+000000221+0000001790+0000000009+I20000000000+0000001790+Z
103813001103813077-000303     103813006001023593757GIFT-BAG PAPER MED     0000001000+00001578+00000+0001T   00001578+0000001656          1400 ZD5112               1AZ
103814000103814               103814               170213AA     1400+00000+AA0000009585+0000009585+000000000+000001346+0000010930+0000000001+I20000000000+0000010930+Z
103814001103814903-000123     103814006925925909280SWEET GS MINI MALLOWS  0000001000+00000876+00000+0001T   00000876+0000001658          1400 ZD5150               1AZ
103814002103814903-000087     103814006001704000161SWT SPECKLED-EGGS 50G  0000001000+00001139+00000+0001T   00001139+0000001658          1400 ZD5150               1AZ
103814003103814903-000297     103814006001704002950SWT MS WILD BERRY 50G  0000001000+00000876+00000+0001T   00000876+0000001658          1400 ZD5150               1AZ
103814004103814903-000200     103814006009826020234SWT CHOC RP CHOCO 23G  0000002000+00000788+00000+0001T   00000788+0000001658          1400 ZD5150               1AZ
103814005103814112-116038     103814006009681820246TCS CARRIER BAG MIDI   0000001000+00000035+00000+0001T   00000035+0000001658          1400 ZD5090               1AZ
103814006103814016-006521-A   103814006003000602230STORAGE-JAR CHECK 10cm 0000001000+00001753+00000+0001T   00001753+0000001658          1400 ZD5300               1AZ
103814007103814016-006425     103814006001023998170S/JAR GLS CLIP W/RIBBON0000001000+00002630+00000+0001T   00002630+0000001658          1400 ZD5300               1AZ
103814008103814903-000121     103814006002099001689SWT GS ZILLIONS SOURS  0000001000+00000700+00000+0001T   00000700+0000001658          1400 ZD5150               1AZ
103815000103815               103815               170213AA     1400+00000+AA0000001753+0000001753+000000000+000000246+0000001990+0000000009+I20000000000+0000001990+Z
103815001103815200-003024     103815006001023657299REFUSE BAGS 20PCE BLACK0000001000+00001753+00000+0001T   00001753+0000001658          1400 ZD5214               1AZ
103816000103816               103816               170213AA     1400+00000+AA0000002628+0000002628+000000000+000000368+0000002990+0000000006+I20000000000+0000002990+Z
103816001103816007-000209     103816006001023582102NOTE STICKY FILE MARKER0000002000+00001314+00000+0001T   00001314+0000001658          1400 ZD5130               1AZ
B10380800                                          170213AA105-007590     15312432SLAVE 1     ZD51IC0000052000+0000002000+0000000000000+
B10380801                                          170213AA105-007555     15314850SLAVE 1     ZD51IC0000052000+0000002000+0000000000000+
M17021301                              SHIEHAAM    AACASH BANKING==1119.30                           CRDS==2739.46                                   Z-READING==3858.76                              BALANCE                                         THANKS MARY
M17021302                              GLADWYN     AALAST TILL SLIP NR:103816                        THANKS MARY
M17021391                              CASH        AASLAVE 1                       Z-REPORT No.   577TOTAL (Sales - Refunds)           3858.76       CASH TO BE BANKED                 1119.30       DEBIT CARDS                          0.00       CREDIT CARDS                      2739.46       Z-READING                         3858.76       AIRTIME DEBIT CARD SALES             0.00       AIRTIME CARD SALES                   0.00       OVERS/UNDERS                         0.00       AIRTIME CASH SALES                   0.00       GIFT CARDS                           0.00       GIFT CARD CASH SALES                 0.00       T O T A L  CASH PAYOUTS              0.00                                                                                                                                                                                                                                                                                                                                                      Z
M17021392                              CASH        AAABSENT                                                                                                                                                                                          ANNUAL LEAVE                                                                                                                                                                                    DAY OFF                                                                                                                                                                                         COMMENTS                                                                                                                                                                                                                                                                                                                                                                                       Z
Y17021300                                          AA00000000387748+000044
ZAA17021319173 SLAVE 1      SALES DATA                     NEXT INVOICE NO.  103817 0577
F094567028-000040         1701280831170000012ICSLAVE 1
F094788203-008282         1702090918160000082ICSLAVE 1
T094852463-000501                                          1702131215040000062ICSLAVE 1
T094852562-000080                                          1702131215040000012ICSLAVE 1
X AA Slave 1 First invoice 103773 170213 Last invoice 103816 170213 Next invoice 103817 Total number of records 000000193 clbackup completed 19:17:25
