204142000204142               204142               170213AA     1400+00000+AA0000000876+0000000876+000000000+000000123+0000000990+0000000009+I20000000000+0000000990+Z
204142001204142007-000045     204142006009608640438DISPLAY-POCKETS A4 10PC0000001000+00000876+00000+0001T   00000876+0000001203          1400 DP5130               2AZ
204143000204143               204143               170213AA     1400+00000+AA0000001928+0000001928+000000000+000000270+0000002190+0000000008+I20000000000+0000002190+Z
204143001204143200-000100     204143006001023764003CUPS 25PCE DISPOSABLE  0000001000+00001928+00000+0001T   00001928+0000001223          1400 DP5214               2BZ
204144000204144               204144               170213AA     1400+00000+AA0000058310+0000058310+000000000+000008167+0000066477+0000000000+I40000066477+0000000000+Z
204144001204144105-007800     204144006002923018913STORAGE BOX CLEAR 5.5L 0000003000+00003507+00000+0001T   00003507+0000001231          1400 DP5210               2BZ
204144002204144206-000260     204144006003000632183ICE TRAY BUILDING BLOCK0000002000+00003507+00000+0001T   00003507+0000001231          1400 DP5321               2BZ
204144003204144072-000350     204144006003000304882PET CAT TOY PLUSH W/BEL0000001000+00003069+00000+0001T   00003069+0000001231          1400 DP5870               2BZ
204144004204144206-000200     204144006003000631469EGG SEPARATOR SILICONE 0000001000+00002630+00000+0001T   00002630+0000001231          1400 DP5321               2BZ
204144005204144206-000210     204144006003000631582TOOTHPICK HOLDER FLOWER0000004000+00003069+00000+0001T   00003069+0000001231          1400 DP5321               2BZ
204144006204144024-000180     204144006003000120888SILICONE LOAF-PAN      0000001000+00008771+00000+0001T   00008771+0000001231          1400 DP5300               2BZ
204144007204144024-000168-A   204144006003000674794TINPLATE LOAF PAN      0000002000+00003507+00000+0001T   00003507+0000001231          1400 DP5300               2BZ
204144008204144206-000620     204144006003000631797BACK SCRATCHER EXTEND  0000001000+00002630+00000+0001T   00002630+0000001231          1400 DP5321               2BZ
204144009204144072-020297     204144006001023700919PET CAT SCRATCH PAD    0000001000+00004385+00000+0001T   00004385+0000001231          1400 DP5870               2BZ
204145000204145               204145               170213AA     1400+00000+AA0000002454+0000002454+000000000+000000344+0000002790+0000000008+I20000000000+0000002790+Z
204145001204145903-000519     204145006001704012805SWT MS LIQ-O-GHETTI    0000002000+00001227+00000+0001T   00001227+0000001231          1400 DP5150               2BZ
204146000204146               204146               170213AA     1400+00000+AA0000004383+0000004383+000000000+000000615+0000004998+0000000000+I40000004998+0000000000+Z
204146001204146133-000381     204146006001023713674TABLE-CLOTH 132x178cm  0000001000+00001753+00000+0001T   00001753+0000001234          1400 DP5212               2BZ
204146002204146105-001026     204146006001023803399CONTAINERS 3PCE        0000001000+00002630+00000+0001T   00002630+0000001234          1400 DP5210               2BZ
204147000204147               204147               170213AA     1400+00000+AA0000010120+0000010120+000000000+000001418+0000011538+0000000000+I40000011538+0000000000+Z
204147001204147301-085007     204147006003000673698ORN OCC. LOVE S/PLAQUE 0000001000+00007893+00000+0001T   00007893+0000001239          1400 DP5505               2BZ
204147002204147112-116038     204147006009681820246TCS CARRIER BAG MIDI   0000001000+00000035+00000+0001T   00000035+0000001239          1400 DP5090               2BZ
204147003204147565-000080     204147006003000643424NOVELTY BENDY          0000001000+00002192+00000+0001T   00002192+0000001239          1400 DP5745               2BZ
204148000204148               204148               170213AA     1400+00000+AA0000001753+0000001753+000000000+000000246+0000001990+0000000009+I20000000000+0000001990+Z
204148001204148491-059640     204148000078257596409INTEX:ARMBAND 3-6YRS   0000001000+00001753+00000+0001T   00001753+0000001258          1400 DP5787               2AZ
204149000204149               204149               170213AA     1400+00000+AA0000000700+0000000700+000000000+000000098+0000000790+0000000008+I20000000000+0000000790+Z
204149001204149903-000121     204149006002099001689SWT GS ZILLIONS SOURS  0000001000+00000700+00000+0001T   00000700+0000001259          1400 DP5150               2AZ
204150000204150               204150               170213AA     1400+00000+AA0000001753+0000001753+000000000+000000246+0000001990+0000000009+I20000000000+0000001990+Z
204150001204150046-002032-PK2 204150004897006175063BATTERIES CR-2032  2PCE0000001000+00001753+00000+0001T   00001753+0000001259          1400 DP5312               2AZ
204151000204151               204151               170213AA     1400+00000+AA0000005746+0000005746+000000000+000000805+0000006550+0000000001+I20000000000+0000006550+Z
204151001204151077-000303     204151006001023593757GIFT-BAG PAPER MED     0000001000+00001578+00000+0001T   00001578+0000001301          1400 DP5112               2AZ
204151002204151304-001011     204151006001023806727FLWR ROSE RED W/BEAR   0000001000+00000613+00000+0001T   00000788+0006471301          1400 DP5510               2AZ
204151003204151018-005009     204151006001023725608MUG W/PLUSH-BEAR LOVE  0000001000+00003507+00000+0001T   00003507+0000001301          1400 DP5515               2AZ
204151004204151112-116069     204151006009681820277TCS CARRIER BAG JUMBO  0000001000+00000048+00000+0001T   00000048+0000001301          1400 DP5090               2AZ
204152000204152               204152               170213AA     1400+00000+AA0000004385+0000004385+000000000+000000614+0000004990+0000000009+I20000000000+0000004990+Z
204152001204152082-000120     204152006003000360727READING GLS STRENGTH:3 0000001000+00004385+00000+0001T   00004385+0000001451          1400 DP5160               2AZ
204153000204153               204153               170213AA     1400+00000+AA0000002015+0000002015+000000000+000000283+0000002290+0000000008+I20000000000+0000002290+Z
204153001204153080-000133-A   204153006003000647019MINI VALENTINES CARD   0000001000+00000437+00000+0001T   00000437+0000001605          1400 DP5112               2AZ
204153002204153077-000303     204153006001023593757GIFT-BAG PAPER MED     0000001000+00001578+00000+0001T   00001578+0000001605          1400 DP5112               2AZ
204154000204154               204154               170213AA     1400+00000+AA0000015766+0000015766+000000000+000002212+0000017978+0000000000+I40000017978+0000000000+Z
204154001204154006-000120     204154006001023346889BALLOONS 10PC MIX COL  0000002000+00001753+00000+0001T   00001753+0000001611          1400 DP5131               2AZ
204154002204154006-001000     204154006003000093779HELIUM BALLOON FILL    0000020000+00000613+00000+0001T   00000613+0000001611          1400 DP5131               2AZ
204155000204155               204155               170213AA     1400+00000+AA0000004385+0000004385+000000000+000000614+0000004990+0000000009+I20000000000+0000004990+Z
204155001204155162-010775     204155006001492107752#TAG LDS WRISTWEAR     0000001000+00004385+00000+0001T   00004385+0000001612          1400 DP5160               2AZ
204156000204156               204156               170213AA     1400+00000+AA0000001753+0000001753+000000000+000000246+0000001990+0000000009+I20000000000+0000001990+Z
204156001204156051-002406     204156006003000139415SPRAY PL TRIGGER 700ml 0000001000+00001753+00000+0001T   00001753+0000001613          1400 DP5820               2AZ
204157000204157               204157               170213AA     1400+00000+AA0000001402+0000001402+000000000+000000197+0000001590+0000000009+I20000000000+0000001590+Z
204157001204157046-000011     204157004897006172994BATTERIES SIZE:AA  2PCE0000001000+00001402+00000+0001T   00001402+0000001614          1400 DP5312               2AZ
204158000204158               204158               170213AA     1400+00000+AA0000004208+0000004208+000000000+000000590+0000004790+0000000008+I20000000000+0000004790+Z
204158001204158018-000129     204158006001023403353MUG OCC. LOVE V-SHAPE  0000001000+00002630+00000+0001T   00002630+0000001619          1400 DP5515               2AZ
204158002204158077-000303     204158006001023593757GIFT-BAG PAPER MED     0000001000+00001578+00000+0001T   00001578+0000001619          1400 DP5112               2AZ
204159000204159               204159               170213AA     1400+00000+AA0000003204+0000003204+000000000+000000449+0000003650+0000000003+I20000000000+0000003650+Z
204159001204159018-000127     204159006001023380289MUG OCC STRAIGHT LOVE  0000001000+00001578+00000+0001T   00001753+0006471620          1400 DP5515               2AZ
204159002204159077-000303     204159006001023593757GIFT-BAG PAPER MED     0000001000+00001578+00000+0001T   00001578+0000001620          1400 DP5112               2AZ
204159003204159112-116069     204159006009681820277TCS CARRIER BAG JUMBO  0000001000+00000048+00000+0001T   00000048+0000001620          1400 DP5090               2AZ
204160000204160               204160               170213AA     1400+00000+AA0000001314+0000001314+000000000+000000184+0000001490+0000000008+I20000000000+0000001490+Z
204160001204160566-000451     204160006001023788443STICKERS GLITTER ASSTD 0000001000+00001314+00000+0001T   00001753+0008151622          1400 DP5130               2AZ
204161000204161               204161               170213AA     1400+00000+AA0000005259+0000005259+000000000+000000738+0000005990+0000000007+I20000000000+0000005990+Z
204161001204161080-000113     204161006003000237449CARD&ENVLPE - LOVE     0000001000+00001753+00000+0001T   00001753+0000001648          1400 DP5112               2BZ
204161002204161080-000100     204161006003000236114CARD & ENVELOPE BDAY   0000001000+00001753+00000+0001T   00001753+0000001648          1400 DP5112               2BZ
204161003204161077-000373     204161006003000395217G/BAG MED 18X23CM DESGN0000001000+00001753+00000+0001T   00001753+0000001648          1400 DP5112               2BZ
204162000204162               204162               170213AA     1400+00000+AA0000003506+0000003506+000000000+000000492+0000003990+0000000008+I20000000000+0000003990+Z
204162001204162566-001118     204162006003000682171STICKERS CELL PHONE    0000002000+00001753+00000+0001T   00001753+0000001650          1400 DP5130               2BZ
204163000204163               204163               170213AA     1400+00000+AA0000001139+0000001139+000000000+000000160+0000001290+0000000009+I20000000000+0000001290+Z
204163001204163903-000087     204163006001704000161SWT SPECKLED-EGGS 50G  0000001000+00001139+00000+0001T   00001139+0000001704          1400 DP5150               2AZ
204164000204164               204164               170213AA     1400+00000+AA0000009206+0000009206+000000000+000001290+0000010496+0000000000+I40000010496+0000000000+Z
204164001204164368-000265     204164006001023750914PLUSH BEAR 23CM ASSTD C0000001000+00006139+00000+0001T   00006139+0000001705          1400 DP5745               2AZ
204164002204164903-000194     204164006009826020616SWT CHOC RP LOLLY 25G  0000001000+00001314+00000+0001T   00001314+0000001705          1400 DP5150               2AZ
204164003204164077-000299-A   204164006003000670888GIFT-BAG PAPER JMB LOVE0000001000+00001753+00000+0001T   00001753+0000001705          1400 DP5112               2AZ
204165000204165               204165               170213AA     1400+00000+AA0000025949+0000025949+000000000+000003639+0000029588+0000000000+I40000029588+0000000000+Z
204165001204165304-000720     204165006001023843050F/BUNCH ROSE 6-HEAD AST0000006000+00002630+00000+0001T   00002630+0000001719          1400 DP5510               2AZ
204165002204165019-000104     204165006003000658176VASE GLASSBUD 16CM     0000001000+00003507+00000+0001T   00003507+0000001719          1400 DP5510               2AZ
204165003204165018-000136     204165006001023659026MUG OCC LOVE W/PLUSH   0000001000+00003507+00000+0001T   00003507+0000001719          1400 DP5515               2AZ
204165004204165077-000270     204165006003000395453GIFT-BAG PPR JMB 33X45 0000001000+00002630+00000+0001T   00002630+0000001719          1400 DP5112               2AZ
204165005204165903-000155     204165006009803374435SWT LOLLY I LUV U HEART0000001000+00000525+00000+0001T   00000525+0000001719          1400 DP5150               2AZ
204166000204166               204166               170213AA     1400+00000+AA0000019426+0000019426+000000000+000002722+0000022148+0000000000+I40000022148+0000000000+Z
204166001204166106-000899     204166006003000653287WTR BOTTLE 2L W/HANDLE 0000002000+00003069+00000+0001T   00003507+0008191733          1400 DP5210               2AZ
204166002204166486-001012     204166006001023820907CLOCK ALARM SQR 10X12CM0000001000+00004385+00000+0001T   00004385+0000001733          1400 DP5510               2AZ
204166003204166046-000011     204166004897006172994BATTERIES SIZE:AA  2PCE0000001000+00001402+00000+0001T   00001402+0000001733          1400 DP5312               2AZ
204166004204166903-000194     204166006009826020616SWT CHOC RP LOLLY 25G  0000001000+00001314+00000+0001T   00001314+0000001733          1400 DP5150               2AZ
204166005204166112-116069     204166006009681820277TCS CARRIER BAG JUMBO  0000001000+00000048+00000+0001T   00000048+0000001733          1400 DP5090               2AZ
204166006204166162-010770     204166006001492107707#TAG NECKLACE&EARRINGS 0000001000+00006139+00000+0001T   00006139+0000001733          1400 DP5160               2AZ
204167000204167               204167               170213AA     1400+00000+AA0000003028+0000003028+000000000+000000425+0000003450+0000000003+I20000000000+0000003450+Z
204167001204167016-006509     204167006003000567355S/JAR GLS MINI LABEL   0000001000+00001753+00000+0001T   00002192+0008191734          1400 DP5300               2AZ
204167002204167903-000519     204167006001704012805SWT MS LIQ-O-GHETTI    0000001000+00001227+00000+0001T   00001227+0000001734          1400 DP5150               2AZ
204167003204167112-116069     204167006009681820277TCS CARRIER BAG JUMBO  0000001000+00000048+00000+0001T   00000048+0000001734          1400 DP5090               2AZ
204168000204168               204168               170213AA     1400+00000+AA0000002192+0000002192+000000000+000000307+0000002490+0000000009+I20000000000+0000002490+Z
204168001204168566-000068     204168006003000418046POP UP LOVE 2 ASSTD    0000001000+00002192+00000+0001T   00002192+0000001800          1400 MD4130               2BZ
A17021300                                          18003763AASLAVE 2                       MD41IC
M17021301                              SHIEHAAM    AACASH BANKING==602.80                            CARDS==1632.23                                  Z-READING==2235.03                              BALANCE                                         THANKS MARY
M17021302                              GLADWYN     AALAST TILL SLIP NR:204168                        THANKS MARY
M17021391                              CASH        AASLAVE 2                       Z-REPORT No.   634TOTAL (Sales - Refunds)           2235.03       CASH TO BE BANKED                  602.80       DEBIT CARDS                          0.00       CREDIT CARDS                      1632.23       Z-READING                         2235.03       AIRTIME DEBIT CARD SALES             0.00       AIRTIME CARD SALES                   0.00       OVERS/UNDERS                         0.00       AIRTIME CASH SALES                   0.00       GIFT CARDS                           0.00       GIFT CARD CASH SALES                 0.00       T O T A L  CASH PAYOUTS              0.00                                                                                                                                                                                                                                                                                                                                                      Z
M17021392                              CASH        AAABSENT                                                                                                                                                                                          ANNUAL LEAVE                                                                                                                                                                                    DAY OFF                                                                                                                                                                                         COMMENTS                                                                                                                                                                                                                                                                                                                                                                                       Z
Y17021300                                          AA00000000196160+000027
ZAA17021319173 SLAVE 2      SALES DATA                     NEXT INVOICE NO.  204169 0634
F094567028-000040         1701280830450000012ICSLAVE 2
F094788203-008282         1702090917430000082ICSLAVE 2
T094852463-000501                                          1702131214390000062ICSLAVE 2
T094852562-000080                                          1702131214390000012ICSLAVE 2
X AA Slave 2 First invoice 204142 170213 Last invoice 204168 170213 Next invoice 204169 Total number of records 000000099 clbackup completed 19:17:27
