145235000145235               145235               170213AB     1400+00000+AB0000011170+0000011170+000000000+000001565+0000012730+0000000005+I20000000000+0000012730+Z
145235001145235031-000002-A   145235006003000247103P/FRAME LOVE 7.5X7.5CM 0000001000+00003507+00000+0001T   00003507+0000000937          1400 FJ6510               1AZ
145235002145235080-000100     145235006003000236114CARD & ENVELOPE BDAY   0000001000+00001753+00000+0001T   00001753+0000000937          1400 FJ6112               1AZ
145235003145235077-000299     145235006003000395576G/BAG 32x25cm LRG LOVE 0000001000+00001490+00000+0001T   00001490+0000000937          1400 FJ6112               1AZ
145235004145235162-010776     145235006001492107769#TAG LDS EARRINGS      0000001000+00004385+00000+0001T   00004385+0000000937          1400 FJ6160               1AZ
145235005145235112-116038     145235006009681820246TCS CARRIER BAG MIDI   0000001000+00000035+00000+0001T   00000035+0000000937          1400 FJ6090               1AZ
145236000145236               145236               170213AB     1400+00000+AB0000001314+0000001314+000000000+000000184+0000001490+0000000008+I20000000000+0000001490+Z
145236001145236078-009100     145236006008741002349ALL-CLEAR GLUE 25ml CRD0000001000+00001314+00000+0001T   00001314+0000000941          1400 FJ6810               1AZ
145237000145237               145237               170213AB     1400+00000+AB0000005262+0000005262+000000000+000000737+0000005990+0000000009+I20000000000+0000005990+Z
145237001145237082-000122-C   145237006003000403714READING GLS STRENGTH:2 0000001000+00005262+00000+0001T   00005262+0000000945          1400 FJ6160               1AZ
145238000145238               145238               170213AB     1400+00000+AB0000005876+0000005876+000000000+000000823+0000006690+0000000009+I20000000000+0000006690+Z
145238001145238050-000264-Z   145238006001023777072PADLOCK BRS 38mm CARDED0000001000+00005876+00000+0001T   00005876+0000000954          1400 FJ6855               1AZ
145239000145239               145239               170213AB     1400+00000+AB0000003506+0000003506+000000000+000000492+0000003990+0000000008+I20000000000+0000003990+Z
145239001145239006-000120     145239006001023346889BALLOONS 10PC MIX COL  0000002000+00001753+00000+0001T   00001753+0000000957          1400 FJ6131               1AZ
145240000145240               145240               170213AB     1400+00000+AB0000017539+0000017539+000000000+000002457+0000019990+0000000006+I20000000000+0000019990+Z
145240001145240368-000637     145240006001023874092PLUSH BEAR SLEEPING LOV0000001000+00011402+00000+0001T   00012279+0006471002          1400 FJ6745               1AZ
145240002145240018-000136     145240006001023659026MUG OCC LOVE W/PLUSH   0000001000+00003507+00000+0001T   00003507+0000001002          1400 FJ6515               1AZ
145240003145240077-000270     145240006003000395453GIFT-BAG PPR JMB 33X45 0000001000+00002630+00000+0001T   00002630+0000001002          1400 FJ6112               1AZ
145241000145241               145241               170213AB     1400+00000+AB0000005215+0000005215+000000000+000000732+0000005940+0000000007+I20000000000+0000005940+Z
145241001145241001-000175     145241006001023788108B/MUG GLS LOVE 380ML   0000001000+00004385+00000+0001T   00004385+0000001003          1400 FJ6515               1AZ
145241002145241903-000183     145241006003000451043SWT LB HEART LOLLY     0000001000+00000393+00000+0001T   00000393+0000001003          1400 FJ6150               1AZ
145241003145241080-000133-A   145241006003000647019MINI VALENTINES CARD   0000001000+00000437+00000+0001T   00000437+0000001003          1400 FJ6112               1AZ
145242000145242               145242               170213AB     1400+00000+AB0000005260+0000005260+000000000+000000737+0000005997+0000000000+I40000005997+0000000000+Z
145242001145242027-008817     145242006003000666393DUSTER MICROFIBRE      0000001000+00003507+00000+0001T   00003507+0000001013          1400 FJ6212               1AZ
145242002145242200-003024     145242006001023657299REFUSE BAGS 20PCE BLACK0000001000+00001753+00000+0001T   00001753+0000001013          1400 FJ6214               1AZ
145243000145243               145243               170213AB     1400+00000+AB0000003945+0000003945+000000000+000000553+0000004498+0000000000+I40000004498+0000000000+Z
145243001145243566-000028     145243006003000265541STICKER BK ASSTD 250PCE0000001000+00001753+00000+0001T   00001753+0000001021          1400 FJ6130               1AZ
145243002145243566-000352     145243006001023809261STICKERS LASER ASSTD   0000001000+00002192+00000+0001T   00002192+0000001021          1400 FJ6130               1AZ
145244000145244               145244               170213AB     1400+00000+AB0000000437+0000000437+000000000+000000062+0000000490+0000000009+I20000000000+0000000490+Z
145244001145244080-000133-A   145244006003000647019MINI VALENTINES CARD   0000001000+00000437+00000+0001T   00000437+0000001026          1400 FJ6112               1AZ
145245000145245               145245               170213AB     1400+00000+AB0000000964+0000000964+000000000+000000135+0000001090+0000000009+I20000000000+0000001090+Z
145245001145245039-000336     145245006001023169129B'DAY-CANDLES MAGIC 10P0000001000+00000964+00000+0001T   00000964+0000001034          1400 FJ6510               1AZ
145246000145246               145246               170213AB     1400+00000+AB0000004383+0000004383+000000000+000000615+0000004990+0000000008+I20000000000+0000004990+Z
145246001145246007-000723     145246006003000226078MEMO BOOK W/PEN 100SHTS0000001000+00001753+00000+0001T   00001753+0000001034          1400 FJ6130               1AZ
145246002145246079-006525     145246006003000681938MASKING FABRIC 10PC    0000001000+00002630+00000+0001T   00002630+0000001034          1400 FJ6130               1AZ
145247000145247               145247               170213AB     1400+00000+AB0000000035+0000000035+000000000+000000005+0000000040+0000000000+I20000000000+0000000040+Z
145247001145247112-116038     145247006009681820246TCS CARRIER BAG MIDI   0000001000+00000035+00000+0001T   00000035+0000001035          1400 FJ6090               1AZ
145248000145248               145248               170213AB     1400+00000+AB0000010560+0000010560+000000000+000001483+0000012043+0000000000+I40000012043+0000000000+Z
145248001145248112-116069     145248006009681820277TCS CARRIER BAG JUMBO  0000001000+00000048+00000+0001T   00000048+0000001110          1400 FJ6090               1AZ
145248002145248001-000167     145248006001023679659TUMBLER 340ml WILLY    0000012000+00000876+00000+0001T   00000876+0000001110          1400 FJ6515               1AZ
145249000145249               145249               170213AB     1400+00000+AB0000001575+0000001575+000000000+000000222+0000001790+0000000007+I20000000000+0000001790+Z
145249001145249903-000155     145249006009803374435SWT LOLLY I LUV U HEART0000003000+00000525+00000+0001T   00000525+0000001111          1400 FJ6150               1AZ
145250000145250               145250               170213AB     1400+00000+AB0000002630+0000002630+000000000+000000369+0000002990+0000000009+I20000000000+0000002990+Z
145250001145250004-071192     145250006003000528813USB CABLE 1.0m         0000001000+00002630+00000+0001T   00002630+0000001114          1400 FJ6310               1AZ
145251000145251               145251               170213AB     1400+00000+AB0000011401+0000011401+000000000+000001597+0000012998+0000000000+I40000012998+0000000000+Z
145251001145251368-000049     145251006003000536955PLUSH BEAR 15cm LOVE   0000001000+00004385+00000+0001T   00004385+0000001120          1400 FJ6745               1AZ
145251002145251368-000021     145251006003000672141PLUSH DINOSAUR 27cm    0000001000+00007016+00000+0001T   00007016+0000001120          1400 FJ6745               1AZ
145252000145252               145252               170213AB     1400+00000+AB0000001314+0000001314+000000000+000000184+0000001498+0000000000+I40000001498+0000000000+Z
145252001145252078-009100     145252006008741002349ALL-CLEAR GLUE 25ml CRD0000001000+00001314+00000+0001T   00001314+0000001131          1400 FJ6810               1AZ
145253000145253               145253               170213AB     1400+00000+AB0000005696+0000005696+000000000+000000800+0000006490+0000000006+I20000000000+0000006490+Z
145253001145253200-003024     145253006001023657299REFUSE BAGS 20PCE BLACK0000003000+00001753+00000+0001T   00001753+0000001132          1400 FJ6214               1AZ
145253002145253080-000133     145253006003000535613CARD&ENV MINI ASTD DSGN0000001000+00000437+00000+0001T   00000437+0000001132          1400 FJ6112               1AZ
145254000145254               145254               170213AB     1400+00000+AB0000001490+0000001490+000000000+000000209+0000001699+0000000000+I40000001699+0000000000+Z
145254001145254046-000004     145254006001023606525BATTERY 9VOLT H/POWER  0000001000+00001490+00000+0001T   00001490+0000001133          1400 FJ6312               1AZ
145255000145255               145255               170213AB     1400+00000+AB0000001753+0000001753+000000000+000000246+0000001990+0000000009+I20000000000+0000001990+Z
145255001145255007-000094     145255006003000659289ENVELOPES WHT 5PK C4   0000001000+00001753+00000+0001T   00001753+0000001134          1400 FJ6130               1AZ
145256000145256               145256               170213AB     1400+00000+AB0000008805+0000008805+000000000+000001233+0000010030+0000000008+I20000000000+0000010030+Z
145256001145256266-000750     145256006003000301461TOOL SET 23cm HELMET   0000002000+00004385+00000+0001T   00004385+0000001305          1400 FJ6710               1AZ
145256002145256112-116038     145256006009681820246TCS CARRIER BAG MIDI   0000001000+00000035+00000+0001T   00000035+0000001305          1400 FJ6090               1AZ
145257000145257               145257               170213AB     1400+00000+AB0000003069+0000003069+000000000+000000430+0000003490+0000000009+I20000000000+0000003490+Z
145257001145257089-060027     145257006003000245871KEY-CHAIN HEART 6X6cm  0000001000+00003069+00000+0001T   00003069+0000001308          1400 FJ6205               1AZ
145258000145258               145258               170213AB     1400+00000+AB0000002630+0000002630+000000000+000000369+0000002990+0000000009+I20000000000+0000002990+Z
145258001145258071-001124     145258006001023802873MARKERS WHITEBOARD 3PCE0000001000+00002630+00000+0001T   00002630+0000001309          1400 FJ6130               1AZ
145259000145259               145259               170213AB     1400+00000+AB0000000876+0000000876+000000000+000000123+0000000990+0000000009+I20000000000+0000000990+Z
145259001145259071-003000     145259006003000543229PEN BALL PEN 3PCE MULTI0000001000+00000876+00000+0001T   00000876+0000001313          1400 FJ6130               1AZ
145260000145260               145260               170213AB     1400+00000+AB0000005260+0000005260+000000000+000000737+0000005990+0000000007+I20000000000+0000005990+Z
145260001145260018-000136     145260006001023659026MUG OCC LOVE W/PLUSH   0000001000+00003507+00000+0001T   00003507+0000001315          1400 FJ6515               1AZ
145260002145260077-000289     145260006001023901996GIFT BOX 20x25x11cm    0000001000+00001753+00000+0001T   00001753+0000001315          1400 FJ6112               1AZ
145261000145261               145261               170213AB     1400+00000+AB0000006138+0000006138+000000000+000000860+0000006998+0000000000+I40000006998+0000000000+Z
145261001145261001-000175     145261006001023788108B/MUG GLS LOVE 380ML   0000001000+00004385+00000+0001T   00004385+0000001317          1400 FJ6515               1AZ
145261002145261077-000289     145261006001023901996GIFT BOX 20x25x11cm    0000001000+00001753+00000+0001T   00001753+0000001317          1400 FJ6112               1AZ
145262000145262               145262               170213AB     1400+00000+AB0000006610+0000006610+000000000+000000926+0000007536+0000000000+I40000007536+0000000000+Z
145262001145262007-000127     145262006009685853431BOOK H/COVER MEMO 144PG0000001000+00000876+00000+0001T   00000876+0000001318          1400 FJ6130               1AZ
145262002145262031-000868-A   145262006001023798534P/FRAME PL BLCK 10X15CM0000001000+00002192+00000+0001T   00002192+0000001318          1400 FJ6510               1AZ
145262003145262031-000868-C   145262006001023798596P/FRAME PL BLCK 20X25CM0000001000+00003507+00000+0001T   00003507+0000001318          1400 FJ6510               1AZ
145262004145262112-116038     145262006009681820246TCS CARRIER BAG MIDI   0000001000+00000035+00000+0001T   00000035+0000001318          1400 FJ6090               1AZ
145263000145263               145263               170213AB     1400+00000+AB0000003993+0000003993+000000000+000000560+0000004553+0000000000+I40000004553+0000000000+Z
145263001145263077-000289     145263006001023901996GIFT BOX 20x25x11cm    0000001000+00001753+00000+0001T   00001753+0000001334          1400 FJ6112               1AZ
145263002145263080-000127     145263006003000424351VALENTINES DAY 36x24CM 0000001000+00002192+00000+0001T   00002192+0000001334          1400 FJ6112               1AZ
145263003145263112-116069     145263006009681820277TCS CARRIER BAG JUMBO  0000001000+00000048+00000+0001T   00000048+0000001334          1400 FJ6090               1AZ
145264000145264               145264               170213AB     1400+00000+AB0000010524+0000010524+000000000+000001474+0000011990+0000000008+I20000000000+0000011990+Z
145264001145264007-000322     145264006009685858634PAPER A4 80GSM 100'S   0000002000+00005262+00000+0001T   00005262+0000001338          1400 FJ6130               1AZ
145265000145265               145265               170213AB     1400+00000+AB0000003506+0000003506+000000000+000000492+0000003990+0000000008+I20000000000+0000003990+Z
145265001145265007-000598     145265006009608642333MARLIN FILE DIVIDER 10 0000002000+00001753+00000+0001T   00001753+0000001350          1400 FJ6130               1AZ
145266000145266               145266               170213AB     1400+00000+AB0000006868+0000006868+000000000+000000963+0000007830+0000000001+I20000000000+0000007830+Z
145266001145266079-009700-D   145266006003000545711PAPER SIRIO A4 RED COL.0000008000+00000306+00000+0001T   00000306+0000001356          1400 FJ6130               1AZ
145266002145266366-000356     145266006003000006908DRESS UP WINGS FAIRY   0000001000+00004385+00000+0001T   00004385+0000001356          1400 FJ6131               1AZ
145266003145266112-116038     145266006009681820246TCS CARRIER BAG MIDI   0000001000+00000035+00000+0001T   00000035+0000001356          1400 FJ6090               1AZ
145267000145267               145267               170213AB     1400+00000+AB0000003507+0000003507+000000000+000000491+0000003990+0000000008+I20000000000+0000003990+Z
145267001145267030-004070     145267006003000674381P/WDN SIGN 12X20CM ASS 0000001000+00003507+00000+0001T   00003507+0000001359          1400 FJ6505               1AZ
145268000145268               145268               170213AB     1400+00000+AB0000004241+0000004241+000000000+000000596+0000004830+0000000007+I20000000000+0000004830+Z
145268001145268018-000129     145268006001023403353MUG OCC. LOVE V-SHAPE  0000001000+00002630+00000+0001T   00002630+0000001402          1400 FJ6515               1AZ
145268002145268903-000200     145268006009826020234SWT CHOC RP CHOCO 23G  0000002000+00000788+00000+0001T   00000788+0000001402          1400 FJ6150               1AZ
145268003145268112-116038     145268006009681820246TCS CARRIER BAG MIDI   0000001000+00000035+00000+0001T   00000035+0000001402          1400 FJ6090               1AZ
145269000145269               145269               170213AB     1400+00000+AB0000002103+0000002103+000000000+000000295+0000002398+0000000000+I40000002398+0000000000+Z
145269001145269076-000017     145269006001811010022TWINE COTTON 50g-BALL  0000001000+00000876+00000+0001T   00000876+0000001404          1400 FJ6810               1AZ
145269002145269002-021042     145269006001023621801TOOTHPICKS 250PCE      0000001000+00001227+00000+0001T   00001227+0000001404          1400 FJ6300               1AZ
145270000145270               145270               170213AB     1400+00000+AB0000004820+0000004820+000000000+000000676+0000005490+0000000006+I20000000000+0000005490+Z
145270001145270251-000001     145270006001023487681TAPE DBL-SIDE 18x1000mm0000001000+00001314+00000+0001T   00001314+0000001418          1400 FJ6810               1AZ
145270002145270036-000615     145270006003000218769WASH-PEGS PL PCK-24    0000001000+00001753+00000+0001T   00001753+0000001418          1400 FJ6212               1AZ
145270003145270051-002402     145270006001023518347TRIGGER-SPRAYER  500ml 0000001000+00001753+00000+0001T   00001753+0000001418          1400 FJ6820               1AZ
145271000145271               145271               170213AB     1400+00000+AB0000001753+0000001753+000000000+000000246+0000001990+0000000009+I20000000000+0000001990+Z
145271001145271036-000615     145271006003000218769WASH-PEGS PL PCK-24    0000001000+00001753+00000+0001T   00001753+0000001418          1400 FJ6212               1AZ
145272000145272               145272               170213AB     1400+00000+AB0000001314+0000001314+000000000+000000184+0000001490+0000000008+I20000000000+0000001490+Z
145272001145272046-000012     145272006904708013062BATTERIES AA  CARD-OF-40000001000+00001314+00000+0001T   00001314+0000001419          1400 FJ6312               1AZ
145273000145273               145273               170213AB     1400+00000+AB0000001753+0000001753+000000000+000000246+0000001990+0000000009+I20000000000+0000001990+Z
145273001145273007-000205     145273006002324000432FILE BINDER 2-RING A4  0000001000+00001753+00000+0001T   00001753+0000001434          1400 FJ6130               1AZ
145274000145274               145274               170213AB     1400+00000+AB0000007060+0000007060+000000000+000000991+0000008050+0000000001+I20000000000+0000008050+Z
145274001145274003-002257     145274006001023730442ORN BIRD 10CM W/COLOUR 0000002000+00001753+00000+0001T   00001753+0000001444          1400 FJ6505               1AZ
145274002145274112-116069     145274006009681820277TCS CARRIER BAG JUMBO  0000001000+00000048+00000+0001T   00000048+0000001444          1400 FJ6090               1AZ
145274003145274036-000063     145274006009654960436COATHANGERS VIRGIN 5PCE0000002000+00001753+00000+0001T   00001753+0000001444          1400 FJ6212               1AZ
145275000145275               145275               170213AB     1400+00000+AB0000010571+0000010571+000000000+000001481+0000012052+0000000000+I40000012052+0000000000+Z
145275001145275072-020266     145275006003000400591PET PUPPY TRAINING PAD 0000001000+00003507+00000+0001T   00003507+0000001447          1400 FJ6870               1AZ
145275002145275024-000111     145275006001023504197ROASTER NON-STICK OBLNG0000001000+00007016+00000+0001T   00007016+0000001447          1400 FJ6300               1AZ
145275003145275112-116069     145275006009681820277TCS CARRIER BAG JUMBO  0000001000+00000048+00000+0001T   00000048+0000001447          1400 FJ6090               1AZ
145276000145276               145276               170213AB     1400+00000+AB0000000876+0000000876+000000000+000000123+0000000990+0000000009+I20000000000+0000000990+Z
145276001145276036-000606     145276006003000322213WASHING PEGS PACK 20   0000001000+00000876+00000+0001T   00001314+0008191448          1400 FJ6212               1AZ
145277000145277               145277               170213AB     1400+00000+AB0000001051+0000001051+000000000+000000148+0000001190+0000000009+I20000000000+0000001190+Z
145277001145277079-009702-C   145277008427973059309PAPER SIRIO A2 VIOLET  0000001000+00001051+00000+0001T   00001051+0000001448          1400 FJ6130               1AZ
145278000145278               145278               170213AB     1400+00000+AB0000003069+0000003069+000000000+000000430+0000003490+0000000009+I20000000000+0000003490+Z
145278001145278072-000012     145278006001023602510PET DOG/CAT BRUSH 23cm 0000001000+00003069+00000+0001T   00003069+0000001454          1400 FJ6870               1AZ
145279000145279               145279               170213AB     1400+00000+AB0000001489+0000001489+000000000+000000209+0000001690+0000000008+I20000000000+0000001690+Z
145279001145279077-000311     145279006001023608666GIFT-BAG 11X14CM GLOSS 0000001000+00000613+00000+0001T   00000613+0000001506          1400 FJ6112               1AZ
145279002145279077-000408     145279006003000145218G/BAG PP 15X21X7CM     0000001000+00000876+00000+0001T   00000876+0000001506          1400 FJ6112               1AZ
145280000145280               145280               170213AB     1400+00000+AB0000000953+0000000953+000000000+000000134+0000001080+0000000007+I20000000000+0000001080+Z
145280001145280007-000234     145280006009685850638LABELS 24PK            0000003000+00000306+00000+0001T   00000306+0000001511          1400 FJ6130               1AZ
145280002145280112-116038     145280006009681820246TCS CARRIER BAG MIDI   0000001000+00000035+00000+0001T   00000035+0000001511          1400 FJ6090               1AZ
145281000145281               145281               170213AB     1400+00000+AB0000001752+0000001752+000000000+000000246+0000001990+0000000008+I20000000000+0000001990+Z
145281001145281077-000011-C   145281006001023808523TISSUE 10xSHTS RED     0000002000+00000876+00000+0001T   00000876+0000001514          1400 FJ6112               1AZ
145282000145282               145282               170213AB     1400+00000+AB0000003067+0000003067+000000000+000000430+0000003490+0000000007+I20000000000+0000003490+Z
145282001145282046-000012     145282006904708013062BATTERIES AA  CARD-OF-40000001000+00001314+00000+0001T   00001314+0000001528          1400 FJ6312               1AZ
145282002145282078-000470     145282006007347000018SHOE-CEMENT 70ml-TIN   0000001000+00001753+00000+0001T   00001753+0000001528          1400 FJ6810               1AZ
145283000145283               145283               170213AB     1400+00000+AB0000014030+0000014030+000000000+000001965+0000015990+0000000005+I20000000000+0000015990+Z
145283001145283368-000021     145283006003000672141PLUSH DINOSAUR 27cm    0000001000+00007016+00000+0001T   00007016+0000001535          1400 FJ6745               1AZ
145283003145283567-011445     145283009781847509772BK COLOURING DINOSAUR  0000001000+00003507+00000+0001T   00003507+0000001535          1400 FJ6757               1AZ
145283004145283077-000465     145283006003000681570GIFT-BAG MTLC GLIT LRG 0000001000+00003507+00000+0001T   00003507+0000001535          1400 FJ6112               1AZ
145284000145284               145284               170213AB     1400+00000+AB0000012232+0000012232+000000000+000001714+0000013946+0000000000+I40000013946+0000000000+Z
145284001145284369-000201     145284006003000636655BABY TOY PLAY/LEARN    0000001000+00008771+00000+0001T   00008771+0000001536          1400 FJ6745               1AZ
145284002145284071-000012     145284006001177101006CHALK COLOUR 12PCE     0000001000+00000481+00000+0001T   00000481+0000001536          1400 FJ6130               1AZ
145284003145284071-081104-A   145284006003000326662GLUE-STICK 8g CRD-OF-3 0000001000+00001227+00000+0001T   00001227+0000001536          1400 FJ6130               1AZ
145284004145284079-013032-I   145284006003000542550ART+CRAFT DIY EVA FOAM 0000001000+00001753+00000+0001T   00001753+0000001536          1400 FJ6130               1AZ
145285000145285               145285               170213AB     1400+00000+AB0000002804+0000002804+000000000+000000394+0000003190+0000000008+I20000000000+0000003190+Z
145285001145285566-000070     145285006003000283798STICKERS POP UP ASSTD  0000001000+00001753+00000+0001T   00001753+0000001541          1400 FJ6130               1AZ
145285002145285079-009702-G   145285008427973060787PAPER SIRIO A2 FUSHIA  0000001000+00001051+00000+0001T   00001051+0000001541          1400 FJ6130               1AZ
145286000145286               145286               170213AB     1400+00000+AB0000003507+0000003507+000000000+000000491+0000003998+0000000000+I40000003998+0000000000+Z
145286001145286079-000801     145286006003000539642ART+CRAFT COLOUR       0000001000+00003507+00000+0001T   00003507+0000001543          1400 FJ6130               1AZ
145287000145287               145287               170213AB     1400+00000+AB0000002192+0000002192+000000000+000000307+0000002490+0000000009+I20000000000+0000002490+Z
145287001145287080-000127     145287006003000424351VALENTINES DAY 36x24CM 0000001000+00002192+00000+0001T   00002192+0000001544          1400 FJ6112               1AZ
145288000145288               145288               170213AB     1400+00000+AB0000004060+0000004060+000000000+000000569+0000004620+0000000009+I20000000000+0000004620+Z
145288001145288007-000406     145288006009635830659NATURE-STUDY-BOOK 72PG 0000001000+00000700+00000+0001T   00000700+0000001546          1400 FJ6130               1AZ
145288002145288112-116038     145288006009681820246TCS CARRIER BAG MIDI   0000001000+00000035+00000+0001T   00000035+0000001546          1400 FJ6090               1AZ
145288003145288007-000406     145288006009635830659NATURE-STUDY-BOOK 72PG 0000004000+00000700+00000+0001T   00000700+0000001546          1400 FJ6130               1AZ
145288004145288007-000145     145288006009635833087BK EXERCISE 72PG A4    0000001000+00000525+00000+0001T   00000525+0000001546          1400 FJ6130               1AZ
145289000145289               145289               170213AB     1400+00000+AB0000003507+0000003507+000000000+000000491+0000003990+0000000008+I20000000000+0000003990+Z
145289001145289018-000136     145289006001023659026MUG OCC LOVE W/PLUSH   0000001000+00003507+00000+0001T   00003507+0000001547          1400 FJ6515               1AZ
145290000145290               145290               170213AB     1400+00000+AB0000010572+0000010572+000000000+000001481+0000012050+0000000003+I20000000000+0000012050+Z
145290001145290077-000908     145290006003000410927G/WRAP 700mmx1m FLOWER 0000001000+00001753+00000+0001T   00001753+0000001550          1400 FJ6112               1AZ
145290002145290031-000902-D   145290006003000462957P/FRAME PL INNER-RIDGES0000001000+00008771+00000+0001T   00008771+0000001550          1400 FJ6510               1AZ
145290003145290112-116069     145290006009681820277TCS CARRIER BAG JUMBO  0000001000+00000048+00000+0001T   00000048+0000001550          1400 FJ6090               1AZ
145291000145291               145291               170213AB     1400+00000+AB0000001753+0000001753+000000000+000000246+0000001990+0000000009+I20000000000+0000001990+Z
145291001145291903-000617     145291006003000644261SWT HS CANDY CANE 19cm 0000001000+00001753+00000+0001T   00001753+0000001550          1400 FJ6150               1AZ
145292000145292               145292               170213AB     1400+00000+AB0000002630+0000002630+000000000+000000369+0000002990+0000000009+I20000000000+0000002990+Z
145292001145292079-006495     145292006003000159987GLITTER SHAKERS 6PK    0000001000+00002630+00000+0001T   00002630+0000001551          1400 FJ6130               1AZ
145293000145293               145293               170213AB     1400+00000+AB0000002006+0000002006+000000000+000000282+0000002280+0000000008+I20000000000+0000002280+Z
145293001145293903-000183     145293006003000451043SWT LB HEART LOLLY     0000001000+00000393+00000+0001T   00000393+0000001556          1400 FJ6150               1AZ
145293002145293018-000127     145293006001023380289MUG OCC STRAIGHT LOVE  0000001000+00001578+00000+0001T   00001753+0006471556          1400 FJ6515               1AZ
145293003145293112-116038     145293006009681820246TCS CARRIER BAG MIDI   0000001000+00000035+00000+0001T   00000035+0000001556          1400 FJ6090               1AZ
145294000145294               145294               170213AB     1400+00000+AB0000008766+0000008766+000000000+000001229+0000009995+0000000000+I40000009995+0000000000+Z
145294001145294560-000101     145294006001023548740ANIMALS OCEAN-IN-TUBE  0000001000+00003507+00000+0001T   00003507+0000001601          1400 FJ6745               1AZ
145294002145294565-000893     145294006003000643516NOVELTY FLASHING BALL  0000001000+00002630+00000+0001T   00002630+0000001601          1400 FJ6745               1AZ
145294003145294565-004101     145294006003000548033BALL BOUNCING EGG      0000001000+00001490+00000+0001T   00001490+0000001601          1400 FJ6745               1AZ
145294004145294565-000071     145294006003000643387NOVELTY WIND UP CHATTER0000001000+00001139+00000+0001T   00001139+0000001601          1400 FJ6745               1AZ
145295000145295               145295               170213AB     1400+00000+AB0000000700+0000000700+000000000+000000098+0000000798+0000000000+I40000000798+0000000000+Z
145295001145295007-000166     145295006009685857316SPIRAL NOTES A6 100PG  0000001000+00000700+00000+0001T   00000700+0000001602          1400 FJ6130               1AZ
145296000145296               145296               170213AB     1400+00000+AB0000011400+0000011400+000000000+000001597+0000012997+0000000000+I40000012997+0000000000+Z
145296001145296263-000215     145296006003000398843CAR 22cm RACING 4 WHEEL0000001000+00007893+00000+0001T   00007893+0000001608          1400 FJ6710               1AZ
145296002145296028-002101     145296006002580009507CHAIR JUNIOR    ASSTD  0000001000+00003507+00000+0001T   00003507+0000001608          1400 FJ6305               1AZ
145297000145297               145297               170213AB     1400+00000+AB0000001227+0000001227+000000000+000000172+0000001390+0000000009+I20000000000+0000001390+Z
145297001145297251-000041     145297006001023515889SEAL-TAPE BUFF 48mmx50m0000001000+00001227+00000+0001T   00001227+0000001609          1400 FJ6810               1AZ
145298000145298               145298               170213AB     1400+00000+AB0000032055+0000032055+000000000+000004491+0000036546+0000000000+I40000036546+0000000000+Z
145298001145298003-002362     145298006001023737311ORN MOSAIC TURTLE/SNAIL0000001000+00003507+00000+0001T   00003507+0000001612          1400 FJ6505               1AZ
145298002145298003-009212     145298006003000461974O/WELCOME STONE RND    0000001000+00007016+00000+0001T   00007016+0000001612          1400 FJ6505               1AZ
145298003145298301-000555     145298006003000456666ORN ANIMAL DOG WELCOME 0000001000+00006139+00000+0001T   00006139+0000001612          1400 FJ6505               1AZ
145298004145298072-020250     145298006003000188864PET BLANKET BUDGET     0000004000+00003069+00000+0001T   00003069+0000001612          1400 FJ6870               1AZ
145298005145298027-009032     145298006001246775107DUSTPAN JUMBO          0000001000+00003069+00000+0001T   00003069+0000001612          1400 FJ6212               1AZ
145298006145298112-116069     145298006009681820277TCS CARRIER BAG JUMBO  0000001000+00000048+00000+0001T   00000048+0000001612          1400 FJ6090               1AZ
145299000145299               145299               170213AB     1400+00000+AB0000004385+0000004385+000000000+000000614+0000004999+0000000000+I40000004999+0000000000+Z
145299001145299001-000175     145299006001023788108B/MUG GLS LOVE 380ML   0000001000+00004385+00000+0001T   00004385+0000001613          1400 FJ6515               1AZ
145300000145300               145300               170213AB     1400+00000+AB0000017539+0000017539+000000000+000002457+0000019996+0000000000+I40000019996+0000000000+Z
145300001145300018-005009     145300006001023725608MUG W/PLUSH-BEAR LOVE  0000001000+00003507+00000+0001T   00003507+0000001615          1400 FJ6515               1AZ
145300002145300077-000270     145300006003000395453GIFT-BAG PPR JMB 33X45 0000001000+00002630+00000+0001T   00002630+0000001615          1400 FJ6112               1AZ
145300003145300368-000637     145300006001023874092PLUSH BEAR SLEEPING LOV0000001000+00011402+00000+0001T   00012279+0006471615          1400 FJ6745               1AZ
145301000145301               145301               170213AB     1400+00000+AB0000007893+0000007893+000000000+000001106+0000008990+0000000009+I20000000000+0000008990+Z
145301001145301466-000607     145301006003000027620BALL VOLLEYBALL 19cm   0000001000+00007893+00000+0001T   00007893+0000001616          1400 FJ6785               1AZ
145302000145302               145302               170213AB     1400+00000+AB0000003330+0000003330+000000000+000000467+0000003797+0000000000+I40000003797+0000000000+Z
145302001145302566-000006     145302006001023671189STICKER-BOOK DRESS-UP  0000001000+00002630+00000+0001T   00002630+0000001618          1400 FJ6130               1AZ
145302002145302566-000062     145302006001023689641S/BOOK STICKER GLITTER 0000001000+00000700+00000+0001T   00000876+0008151618          1400 FJ6130               1AZ
145303000145303               145303               170213AB     1400+00000+AB0000010116+0000010116+000000000+000001417+0000011533+0000000000+I40000011533+0000000000+Z
145303001145303306-000021-C   145303006003000567294EARBUDS 300PCE IN TUB  0000001000+00001753+00000+0001T   00001753+0000001622          1400 FJ6200               1AZ
145303002145303113-000001     145303006003000088690TRAVEL MUG 400ml S/S   0000001000+00003507+00000+0001T   00003507+0000001622          1400 FJ6305               1AZ
145303003145303046-000012     145303006904708013062BATTERIES AA  CARD-OF-40000001000+00001314+00000+0001T   00001314+0000001622          1400 FJ6312               1AZ
145303004145303159-000102     145303006001023552891SHOWER-CADDY 48cm      0000001000+00003507+00000+0001T   00003507+0000001622          1400 FJ6200               1AZ
145303005145303112-116038     145303006009681820246TCS CARRIER BAG MIDI   0000001000+00000035+00000+0001T   00000035+0000001622          1400 FJ6090               1AZ
145304000145304               145304               170213AB     1400+00000+AB0000005733+0000005733+000000000+000000804+0000006530+0000000007+I20000000000+0000006530+Z
145304001145304079-006494     145304006003000159864GLITTER GLUE 5PCE 11cm 0000001000+00001490+00000+0001T   00001490+0000001625          1400 FJ6130               1AZ
145304002145304079-000289     145304006001023493217PAINT WTR COL CAKE 6COL0000001000+00001578+00000+0001T   00001578+0000001625          1400 FJ6130               1AZ
145304003145304566-100009     145304006003000102914WED STIK EMBOSSED FOIL 0000001000+00002630+00000+0001T   00002630+0000001625          1400 FJ6130               1AZ
145304004145304112-116038     145304006009681820246TCS CARRIER BAG MIDI   0000001000+00000035+00000+0001T   00000035+0000001625          1400 FJ6090               1AZ
145305000145305               145305               170213AB     1400+00000+AB0000003067+0000003067+000000000+000000430+0000003490+0000000007+I20000000000+0000003490+Z
145305001145305903-005001     145305006002580020014SWT CT MALLOW MICE 120g0000001000+00001314+00000+0001T   00001314+0000001632          1400 FJ6150               1AZ
145305002145305466-000109     145305006003000612345BALL RAINBOW DESIGN    0000001000+00001753+00000+0001T   00001753+0000001632          1400 FJ6785               1AZ
145306000145306               145306               170213AB     1400+00000+AB0000003542+0000003542+000000000+000000496+0000004030+0000000008+I20000000000+0000004030+Z
145306001145306007-000542     145306006001023847874NOTE-BOOK H/C SKETCHPAD0000001000+00003507+00000+0001T   00003507+0000001640          1400 FJ6130               1AZ
145306002145306112-116038     145306006009681820246TCS CARRIER BAG MIDI   0000001000+00000035+00000+0001T   00000035+0000001640          1400 FJ6090               1AZ
145307000145307               145307               170213AB     1400+00000+AB0000004646+0000004646+000000000+000000652+0000005290+0000000008+I20000000000+0000005290+Z
145307001145307079-105310     145307006003000588947ART+CRAFT PAINT PALETTE0000001000+00002630+00000+0001T   00002630+0000001642          1400 FJ6130               1AZ
145307002145307174-008025     145307006009654960399TRAVEL TUBS 4-PACK 30ml0000001000+00002016+00000+0001T   00002016+0000001642          1400 FJ6205               1AZ
145308000145308               145308               170213AB     1400+00000+AB0000005120+0000005120+000000000+000000717+0000005830+0000000007+I20000000000+0000005830+Z
145308001145308018-000136     145308006001023659026MUG OCC LOVE W/PLUSH   0000001000+00003507+00000+0001T   00003507+0000001644          1400 FJ6515               1AZ
145308002145308080-000124     145308006003000297733CARD & ENV VALENTINES  0000001000+00001578+00000+0001T   00001578+0000001644          1400 FJ6112               1AZ
145308003145308112-116038     145308006009681820246TCS CARRIER BAG MIDI   0000001000+00000035+00000+0001T   00000035+0000001644          1400 FJ6090               1AZ
145309000145309               145309               170213AB     1400+00000+AB0000002628+0000002628+000000000+000000368+0000002996+0000000000+I40000002996+0000000000+Z
145309001145309107-004105     145309006009703860984BUCKET 9L OPEN         0000002000+00001314+00000+0001T   00001314+0000001646          1400 FJ6210               1AZ
145310000145310               145310               170213AB     1400+00000+AB0000004383+0000004383+000000000+000000614+0000004990+0000000007+I20000000000+0000004990+Z
145310001145310301-085004     145310006003000420469ORN LOVE PLAQUE 21X10CM0000001000+00003507+00000+0001T   00003946+0006471648          1400 FJ6505               1AZ
145310002145310077-000302     145310008010410010195GIFT-BAG 18X23CM E/D   0000001000+00000876+00000+0001T   00000876+0000001648          1400 FJ6112               1AZ
145311000145311               145311               170213AB     1400+00000+AB0000005085+0000005085+000000000+000000712+0000005790+0000000007+I20000000000+0000005790+Z
145311001145311018-000136     145311006001023659026MUG OCC LOVE W/PLUSH   0000001000+00003507+00000+0001T   00003507+0000001650          1400 FJ6515               1AZ
145311002145311077-000303     145311006001023593757GIFT-BAG PAPER MED     0000001000+00001578+00000+0001T   00001578+0000001650          1400 FJ6112               1AZ
145312000145312               145312               170213AB     1400+00000+AB0000005262+0000005262+000000000+000000737+0000005990+0000000009+I20000000000+0000005990+Z
145312001145312159-000107     145312006001023640406SHOWER-CURTAIN 180cm   0000001000+00005262+00000+0001T   00006139+0008191652          1400 FJ6200               1AZ
145313000145313               145313               170213AB     1400+00000+AB0000001402+0000001402+000000000+000000197+0000001599+0000000000+I40000001599+0000000000+Z
145313001145313304-001204     145313006001023737984FLOWER OCC. TEDDY/ROSES0000001000+00001402+00000+0001T   00001490+0006471653          1400 FJ6510               1AZ
145314000145314               145314               170213AB     1400+00000+AB0000001928+0000001928+000000000+000000270+0000002190+0000000008+I20000000000+0000002190+Z
145314001145314106-001115     145314006009654960313WATER-BOTTLE PL 750ml  0000001000+00001928+00000+0001T   00001928+0000001654          1400 FJ6210               1AZ
145315000145315               145315               170213AB     1400+00000+AB0000001179+0000001179+000000000+000000168+0000001340+0000000007+I20000000000+0000001340+Z
145315001145315903-000183     145315006003000451043SWT LB HEART LOLLY     0000003000+00000393+00000+0001T   00000393+0000001700          1400 FJ6150               1AZ
145316000145316               145316               170213AB     1400+00000+AB0000001753+0000001753+000000000+000000246+0000001990+0000000009+I20000000000+0000001990+Z
145316001145316051-002402     145316006001023518347TRIGGER-SPRAYER  500ml 0000001000+00001753+00000+0001T   00001753+0000001708          1400 FJ6820               1AZ
145317000145317               145317               170213AB     1400+00000+AB0000001139+0000001139+000000000+000000160+0000001290+0000000009+I20000000000+0000001290+Z
145317001145317007-000302     145317006009635830000BOOK H/COVER A4 96-PAGE0000001000+00001139+00000+0001T   00001139+0000001715          1400 FJ6130               1AZ
145318000145318               145318               170213AB     1400+00000+AB0000002454+0000002454+000000000+000000344+0000002790+0000000008+I20000000000+0000002790+Z
145318001145318251-000041     145318006001023515889SEAL-TAPE BUFF 48mmx50m0000002000+00001227+00000+0001T   00001227+0000001718          1400 FJ6810               1AZ
145319000145319               145319               170213AB     1400+00000+AB0000001139+0000001139+000000000+000000160+0000001290+0000000009+I20000000000+0000001290+Z
145319001145319007-000302     145319006009635830000BOOK H/COVER A4 96-PAGE0000001000+00001139+00000+0001T   00001139+0000001721          1400 FJ6130               1AZ
145320000145320               145320               170213AB     1400+00000+AB0000002192+0000002192+000000000+000000307+0000002490+0000000009+I20000000000+0000002490+Z
145320001145320071-001346     145320006001023912985HIGHLIGHTERS 4PCE CARD 0000001000+00002192+00000+0001T   00002192+0000001725          1400 FJ6130               1AZ
145321000145321               145321               170213AB     1400+00000+AB0000019729+0000019729+000000000+000002764+0000022493+0000000000+I40000022493+0000000000+Z
145321001145321077-000270     145321006003000395453GIFT-BAG PPR JMB 33X45 0000001000+00002630+00000+0001T   00002630+0000001729          1400 FJ6112               1AZ
145321002145321301-085007     145321006003000673698ORN OCC. LOVE S/PLAQUE 0000001000+00007893+00000+0001T   00007893+0000001729          1400 FJ6505               1AZ
145321003145321106-005105     145321006003000667154WATER BOTTLE 1,6L      0000001000+00003507+00000+0001T   00003507+0000001729          1400 FJ6210               1AZ
145321004145321007-000542     145321006001023847874NOTE-BOOK H/C SKETCHPAD0000001000+00003507+00000+0001T   00003507+0000001729          1400 FJ6130               1AZ
145321005145321080-000127     145321006003000424351VALENTINES DAY 36x24CM 0000001000+00002192+00000+0001T   00002192+0000001729          1400 FJ6112               1AZ
145322000145322               145322               170213AB     1400+00000+AB0000003506+0000003506+000000000+000000492+0000003998+0000000000+I40000003998+0000000000+Z
145322001145322089-000004     145322006003000137749KEY CHAIN MTL CHARMS   0000002000+00001753+00000+0001T   00001753+0000001732          1400 FJ6205               1AZ
145323000145323               145323               170213AB     1400+00000+AB0000002102+0000002102+000000000+000000296+0000002398+0000000000+I40000002398+0000000000+Z
145323001145323007-000119     145323006002324004126BOOK COVER PL          0000002000+00001051+00000+0001T   00001051+0000001741          1400 FJ6130               1AZ
145324000145324               145324               170213AB     1400+00000+AB0000002145+0000002145+000000000+000000301+0000002440+0000000006+I20000000000+0000002440+Z
145324001145324079-009700-B   145324006003000547661PAPER SIRIO A4 WHITE   0000003000+00000306+00000+0001T   00000306+0000001742          1400 FJ6130               1AZ
145324002145324077-000245     145324006001023759214GIFT-RIBBON METALLICx2 0000001000+00001227+00000+0001T   00001227+0000001742          1400 FJ6112               1AZ
145325000145325               145325               170213AB     1400+00000+AB0000011786+0000011786+000000000+000001651+0000013430+0000000007+I20000000000+0000013430+Z
145325001145325001-091415     145325006003000329113W/GLS OCC. LOVE 2PC 2800000001000+00008771+00000+0001T   00009648+0006471745          1400 FJ6515               1AZ
145325002145325080-000127     145325006003000424351VALENTINES DAY 36x24CM 0000001000+00002192+00000+0001T   00002192+0000001745          1400 FJ6112               1AZ
145325003145325112-116038     145325006009681820246TCS CARRIER BAG MIDI   0000001000+00000035+00000+0001T   00000035+0000001745          1400 FJ6090               1AZ
145325004145325903-000200     145325006009826020234SWT CHOC RP CHOCO 23G  0000001000+00000788+00000+0001T   00000788+0000001745          1400 FJ6150               1AZ
145326000145326               145326               170213AB     1400+00000+AB0000005206+0000005206+000000000+000000731+0000005930+0000000007+I20000000000+0000005930+Z
145326001145326007-000208     145326006001023582096NOTE-PAD S/STICK 100'S 0000001000+00001490+00000+0001T   00001490+0000001748          1400 FJ6130               1AZ
145326002145326079-009702-D   145326008427973059354PAPER SIRIO A2 RED COL 0000001000+00001051+00000+0001T   00001051+0000001748          1400 FJ6130               1AZ
145326003145326566-000006     145326006001023671189STICKER-BOOK DRESS-UP  0000001000+00002630+00000+0001T   00002630+0000001748          1400 FJ6130               1AZ
145326004145326112-116038     145326006009681820246TCS CARRIER BAG MIDI   0000001000+00000035+00000+0001T   00000035+0000001748          1400 FJ6090               1AZ
145327000145327               145327               170213AB     1400+00000+AB0000001753+0000001753+000000000+000000246+0000001999+0000000000+I40000001999+0000000000+Z
145327001145327466-000200     145327006001023621665HULA-HOOP     ASSTD    0000001000+00001753+00000+0001T   00001753+0000001749          1400 FJ6785               1AZ
145328000145328               145328               170213AB     1400+00000+AB0000001314+0000001314+000000000+000000184+0000001490+0000000008+I20000000000+0000001490+Z
145328001145328903-000923     145328008714786126428SWT TURTLE DUO SPRAY   0000001000+00001314+00000+0001T   00001753+0008191752          1400 FJ6150               1AZ
145329000145329               145329               170213AB     1400+00000+AB0000002454+0000002454+000000000+000000344+0000002790+0000000008+I20000000000+0000002790+Z
145329001145329903-000499     145329006001704012492SWT CHOC MALLOWS 50g   0000001000+00001227+00000+0001T   00001227+0000001759          1400 FJ6150               1AZ
145329002145329903-000111     145329006001704006378SWT LIQUORICE-TWISTS   0000001000+00001227+00000+0001T   00001227+0000001759          1400 FJ6150               1AZ
145330000145330               145330               170213AB     1400+00000+AB0000003945+0000003945+000000000+000000553+0000004490+0000000008+I20000000000+0000004490+Z
145330001145330007-000043     145330006009635831496DISPLAY-BOOK PL A4 20PG0000001000+00001753+00000+0001T   00001753+0000001759          1400 FJ6130               1AZ
145330002145330007-000046     145330006009635831366DISPLAY-BOOK PL A4 30PG0000001000+00002192+00000+0001T   00002192+0000001759          1400 FJ6130               1AZ
145331000145331               145331               170213AB     1400+00000+AB0000007751+0000007751+000000000+000001086+0000008830+0000000007+I20000000000+0000008830+Z
145331001145331089-000030     145331006003000575671K/CHAIN LOVE MTL ASSTD 0000001000+00001753+00000+0001T   00001753+0000001800          1400 FJ6205               1AZ
145331002145331024-000118     145331006001023422316N/STICK C/PAN HEART    0000001000+00004385+00000+0001T   00004385+0000001800          1400 FJ6300               1AZ
145331003145331018-000127     145331006001023380289MUG OCC STRAIGHT LOVE  0000001000+00001578+00000+0001T   00001753+0006471800          1400 FJ6515               1AZ
145331004145331112-116038     145331006009681820246TCS CARRIER BAG MIDI   0000001000+00000035+00000+0001T   00000035+0000001800          1400 FJ6090               1AZ
145332000145332               145332               170213AB     1400+00000+AB0000002192+0000002192+000000000+000000307+0000002490+0000000009+I20000000000+0000002490+Z
145332001145332080-000127     145332006003000424351VALENTINES DAY 36x24CM 0000001000+00002192+00000+0001T   00002192+0000001802          1400 FJ6112               1AZ
145333000145333               145333               170213AB     1400+00000+AB0000018418+0000018418+000000000+000002579+0000020997+0000000000+I40000020997+0000000000+Z
145333001145333203-000120     145333006003000566976BAR ACC. SET 5PC       0000001000+00017542+00000+0001T   00017542+0000001806          1400 FJ6300               1AZ
145333002145333036-000606     145333006003000322213WASHING PEGS PACK 20   0000001000+00000876+00000+0001T   00001314+0008191806          1400 FJ6212               1AZ
A17021300                                          09550968ABSLAVE 1                       FJ61IC
C14528300                                          170213AB079-000510     15343006SLAVE 1     FJ63IC0000000000+0000000000+0020000001000+
M17021391                              CASH        ABSLAVE 1                       Z-REPORT No.   646TOTAL (Sales - Refunds)           5702.75       CASH TO BE BANKED                 3229.20       DEBIT CARDS                          0.00       CREDIT CARDS                      2473.55       Z-READING                         5702.75       AIRTIME DEBIT CARD SALES             0.00       AIRTIME CARD SALES                   0.00       OVERS/UNDERS                         0.00       AIRTIME CASH SALES                   0.00       GIFT CARDS                           0.00       GIFT CARD CASH SALES                 0.00       T O T A L  CASH PAYOUTS              0.00                                                                                                                                                                                                                                                                                                                                                      Z
M17021392                              CASH        ABABSENT                                                                                                                                                                                          ANNUAL LEAVE                                                                                                                                                                                    DAY OFF                                                                                                                                                                                         COMMENTS                                                                                                                                                                                                                                                                                                                                                                                       Z
Y17021300                                          AB00000000500640+000099
ZAB17021319183 SLAVE 1      SALES DATA                     NEXT INVOICE NO.  145334 0646
F093691496-028120         1701110857540000021ICSLAVE 1
F093691496-056475         1701110857540000021ICSLAVE 1
F093720496-028122         1701110857590000021ICSLAVE 1
F093783496-057489         1701110858040000031ICSLAVE 1
F093798496-028272         1701110858170000021ICSLAVE 1
F093832496-028202         1701110858230000021ICSLAVE 1
F093960493-059010         1701130956340000101ICSLAVE 1
F094114463-000501         1701130956390000061ICSLAVE 1
F094834031-000873-B       1702100912190000031ICSLAVE 1
F094834031-000873-C       1702100912190000041ICSLAVE 1
X AB Slave 1 First invoice 145235 170213 Last invoice 145333 170213 Next invoice 145334 Total number of records 000000306 clbackup completed 19:18:11
