156411000156411               156411               170213AB     1400+00000+AB0000001753+0000001753+000000000+000000246+0000001999+0000000000+I40000001999+0000000000+Z
156411001156411080-000116     156411006003000253555CARD&ENVELOPE-HANDMADE 0000001000+00001753+00000+0001T   00001753+0000000920          1400 JU4112               2AZ
156412000156412               156412               170213AB     1400+00000+AB0000005260+0000005260+000000000+000000738+0000005990+0000000008+I20000000000+0000005990+Z
156412001156412088-000113     156412006001023858399DEHUMIDIFIER SCENTED   0000002000+00002630+00000+0001T   00002630+0000000924          1400 JU4212               2AZ
156413000156413               156413               170213AB     1400+00000+AB0000004909+0000004909+000000000+000000688+0000005590+0000000007+I20000000000+0000005590+Z
156413001156413304-001204     156413006001023737984FLOWER OCC. TEDDY/ROSES0000001000+00001402+00000+0001T   00001490+0006470926          1400 JU4510               2AZ
156413002156413018-000130     156413006001023867537MUG OCC LOVE MINI+HEART0000001000+00003507+00000+0001T   00003507+0000000926          1400 JU4515               2AZ
156414000156414               156414               170213AB     1400+00000+AB0000003156+0000003156+000000000+000000442+0000003590+0000000008+I20000000000+0000003590+Z
156414001156414018-000127     156414006001023380289MUG OCC STRAIGHT LOVE  0000002000+00001578+00000+0001T   00001753+0006471205          1400 JU4515               2AZ
156415000156415               156415               170213AB     1400+00000+AB0000002455+0000002455+000000000+000000344+0000002790+0000000009+I20000000000+0000002790+Z
156415001156415562-000009     156415006001023460134PLAY MODELLING CARDED  0000001000+00002455+00000+0001T   00002455+0000001211          1400 JU4755               2AZ
156416000156416               156416               170213AB     1400+00000+AB0000010903+0000010903+000000000+000001529+0000012430+0000000002+I20000000000+0000012430+Z
156416001156416112-116038     156416006009681820246TCS CARRIER BAG MIDI   0000001000+00000035+00000+0001T   00000035+0000001213          1400 JU4090               2AZ
156416002156416301-085004     156416006003000420469ORN LOVE PLAQUE 21X10CM0000001000+00003507+00000+0001T   00003946+0006471213          1400 JU4505               2AZ
156416003156416077-000299     156416006003000395576G/BAG 32x25cm LRG LOVE 0000001000+00001490+00000+0001T   00001490+0000001213          1400 JU4112               2AZ
156416004156416018-000136     156416006001023659026MUG OCC LOVE W/PLUSH   0000001000+00003507+00000+0001T   00003507+0000001213          1400 JU4515               2AZ
156416005156416903-000200     156416006009826020234SWT CHOC RP CHOCO 23G  0000003000+00000788+00000+0001T   00000788+0000001213          1400 JU4150               2AZ
156417000156417               156417               170213AB     1400+00000+AB0000005961+0000005961+000000000+000000835+0000006790+0000000006+I20000000000+0000006790+Z
156417001156417077-000932     156417006003000409808G/WRAP 700mmx5m PATTERN0000001000+00003507+00000+0001T   00003507+0000001216          1400 JU4112               2AZ
156417002156417251-000040     156417006001023515865SEALTAPE CLEAR 48mmx50m0000002000+00001227+00000+0001T   00001227+0000001216          1400 JU4810               2AZ
156418000156418               156418               170213AB     1400+00000+AB0000013501+0000013501+000000000+000001893+0000015394+0000000000+I40000015394+0000000000+Z
156418001156418200-003026     156418006003000276448REFUSE BAGS 10PCE GREEN0000002000+00001753+00000+0001T   00001753+0000001219          1400 JU4214               2AZ
156418002156418006-000805     156418000013994092418STREAMERS 10-ROLLS     0000002000+00001490+00000+0001T   00001490+0000001219          1400 JU4131               2AZ
156418003156418366-000900     156418006003000006960DRESS UP WINGS BUG     0000001000+00006139+00000+0001T   00006139+0000001219          1400 JU4131               2AZ
156418004156418366-007601     156418006003000655472DRESS UP MASK THEATRICA0000001000+00000876+00000+0001T   00000876+0000001219          1400 JU4131               2AZ
156419000156419               156419               170213AB     1400+00000+AB0000003944+0000003944+000000000+000000553+0000004490+0000000007+I20000000000+0000004490+Z
156419001156419027-009025     156419006003962000747DUSTPAN-SET PL         0000001000+00002630+00000+0001T   00002630+0000001225          1400 JU4212               2AZ
156419002156419107-004105     156419006002923010504BUCKET 9L OPEN         0000001000+00001314+00000+0001T   00001314+0000001225          1400 JU4210               2AZ
156420000156420               156420               170213AB     1400+00000+AB0000006138+0000006138+000000000+000000860+0000006998+0000000000+I40000006998+0000000000+Z
156420001156420024-000097     156420006001023770035MEASURING-SET 11PCE WHT0000001000+00002192+00000+0001T   00002192+0000001241          1400 JU4300               2AZ
156420002156420002-012268     156420006001023555526TONGS NYLON 26CM LNG   0000001000+00003946+00000+0001T   00003946+0000001241          1400 JU4300               2AZ
156421000156421               156421               170213AB     1400+00000+AB0000002192+0000002192+000000000+000000307+0000002490+0000000009+I20000000000+0000002490+Z
156421001156421050-000363-Z   156421006001023475282PADLOCK IRON 32mm CARD 0000001000+00002192+00000+0001T   00002192+0000001241          1400 JU4855               2AZ
156422000156422               156422               170213AB     1400+00000+AB0000019286+0000019286+000000000+000002704+0000021990+0000000000+I40000021990+0000000000+Z
156422001156422251-000052     156422006001023627933PROTECT-PAD FELT 16PCE 0000002000+00001753+00000+0001T   00001753+0000001249          1400 JU4810               2AZ
156422002156422071-000001-A   156422006003000129607PENCIL LEAD 0.5mm  2PK 0000001000+00000788+00000+0001T   00000788+0000001249          1400 JU4130               2AZ
156422003156422024-000059     156422006003000054015ROLLING-PIN WDN 43cm   0000001000+00004385+00000+0001T   00004385+0000001249          1400 JU4300               2AZ
156422004156422200-000100     156422006001023764003CUPS 25PCE DISPOSABLE  0000001000+00001928+00000+0001T   00001928+0000001249          1400 JU4214               2AZ
156422005156422200-000092     156422006003000576739PICNIC PAPER PLATES 23c0000001000+00001227+00000+0001T   00001227+0000001249          1400 JU4214               2AZ
156422006156422200-000230     156422006008766126990BAKEPANS 5PC RND 23x3cm0000001000+00002630+00000+0001T   00002630+0000001249          1400 JU4214               2AZ
156422007156422200-000200     156422006008766091144BAKING ALUM FOIL 2PCE  0000001000+00002192+00000+0001T   00002192+0000001249          1400 JU4214               2AZ
156422008156422036-000402     156422006003000572250CLOTHES DRYER WITH PEGS0000001000+00002630+00000+0001T   00002630+0000001249          1400 JU4212               2AZ
156423000156423               156423               170213AB     1400+00000+AB0000005262+0000005262+000000000+000000737+0000005999+0000000000+I40000005999+0000000000+Z
156423001156423159-003625     156423006001023902061TOILET-BRUSH W/STD 40cm0000001000+00005262+00000+0001T   00005262+0000001253          1400 JU4200               2AZ
156424000156424               156424               170213AB     1400+00000+AB0000002192+0000002192+000000000+000000307+0000002499+0000000000+I40000002499+0000000000+Z
156424001156424080-000127     156424006003000424351VALENTINES DAY 36x24CM 0000001000+00002192+00000+0001T   00002192+0000001425          1400 JU4112               2AZ
156425000156425               156425               170213AB     1400+00000+AB0000001578+0000001578+000000000+000000221+0000001799+0000000000+I40000001799+0000000000+Z
156425001156425080-000124     156425006003000297733CARD & ENV VALENTINES  0000001000+00001578+00000+0001T   00001578+0000001428          1400 JU4112               2AZ
156426000156426               156426               170213AB     1400+00000+AB0000001753+0000001753+000000000+000000246+0000001999+0000000000+I40000001999+0000000000+Z
156426001156426077-000289     156426006001023901996GIFT BOX 20x25x11cm    0000001000+00001753+00000+0001T   00001753+0000001429          1400 JU4112               2AZ
156427000156427               156427               170213AB     1400+00000+AB0000005039+0000005039+000000000+000000707+0000005746+0000000000+I40000005746+0000000000+Z
156427001156427903-000183     156427006003000451043SWT LB HEART LOLLY     0000001000+00000393+00000+0001T   00000393+0000001502          1400 JU4150               2AZ
156427002156427903-000087     156427006001704000161SWT SPECKLED-EGGS 50G  0000001000+00001139+00000+0001T   00001139+0000001502          1400 JU4150               2AZ
156427003156427018-005009     156427006001023725608MUG W/PLUSH-BEAR LOVE  0000001000+00003507+00000+0001T   00003507+0000001502          1400 JU4515               2AZ
156428000156428               156428               170213AB     1400+00000+AB0000005085+0000005085+000000000+000000712+0000005797+0000000000+I40000005797+0000000000+Z
156428001156428018-000136     156428006001023659026MUG OCC LOVE W/PLUSH   0000001000+00003507+00000+0001T   00003507+0000001518          1400 JU4515               2AZ
156428002156428077-000303     156428006001023593757GIFT-BAG PAPER MED     0000001000+00001578+00000+0001T   00001578+0000001518          1400 JU4112               2AZ
156429000156429               156429               170213AB     1400+00000+AB0000004769+0000004769+000000000+000000668+0000005437+0000000000+I40000005437+0000000000+Z
156429001156429077-000303     156429006001023593757GIFT-BAG PAPER MED     0000001000+00001578+00000+0001T   00001578+0000001536          1400 JU4112               2AZ
156429002156429018-000127     156429006001023380289MUG OCC STRAIGHT LOVE  0000002000+00001578+00000+0001T   00001753+0006471536          1400 JU4515               2AZ
156429003156429112-116038     156429006009681820246TCS CARRIER BAG MIDI   0000001000+00000035+00000+0001T   00000035+0000001536          1400 JU4090               2AZ
156430000156430               156430               170213AB     1400+00000+AB0000002800+0000002800+000000000+000000394+0000003194+0000000000+I40000003194+0000000000+Z
156430001156430903-000200     156430006009826020234SWT CHOC RP CHOCO 23G  0000002000+00000788+00000+0001T   00000788+0000001538          1400 JU4150               2AZ
156430002156430079-009700-D   156430006003000545711PAPER SIRIO A4 RED COL.0000002000+00000306+00000+0001T   00000306+0000001538          1400 JU4130               2AZ
156430003156430079-009700-B   156430006003000547661PAPER SIRIO A4 WHITE   0000002000+00000306+00000+0001T   00000306+0000001538          1400 JU4130               2AZ
156431000156431               156431               170213AB     1400+00000+AB0000012715+0000012715+000000000+000001782+0000014497+0000000000+I40000014497+0000000000+Z
156431001156431002-220004     156431006001023467614F/COVER HEXAGONAL 70cm 0000001000+00003069+00000+0001T   00003069+0000001544          1400 JU4300               2AZ
156431002156431306-001622     156431006003000450091INNER SOLES 1-PAIR     0000001000+00002630+00000+0001T   00002630+0000001544          1400 JU4200               2AZ
156431003156431079-001000     156431006003000448470CANVAS A2 WOOD MOUNTED 0000001000+00007016+00000+0001T   00007016+0000001544          1400 JU4130               2AZ
156432000156432               156432               170213AB     1400+00000+AB0000007015+0000007015+000000000+000000983+0000007990+0000000008+I20000000000+0000007990+Z
156432001156432162-093351     156432006001492933511#TAG PASTEL COTTON ER  0000001000+00002630+00000+0001T   00004385+0008161549          1400 JU4160               2AZ
156432002156432162-010772     156432006001492107721#TAG LDS WRISTWEAR TURQ0000001000+00004385+00000+0001T   00004385+0000001549          1400 JU4160               2AZ
156433000156433               156433               170213AB     1400+00000+AB0000003507+0000003507+000000000+000000491+0000003990+0000000008+I20000000000+0000003990+Z
156433001156433004-071206     156433006003000605156USB CABLE CHARGER      0000001000+00003507+00000+0001T   00003507+0000001550          1400 JU4310               2AZ
156434000156434               156434               170213AB     1400+00000+AB0000007628+0000007628+000000000+000001069+0000008690+0000000007+I20000000000+0000008690+Z
156434001156434140-001004     156434006001023880932FLY-RIBBONS 4PCE PL    0000001000+00001490+00000+0001T   00001490+0000001551          1400 JU4830               2AZ
156434002156434203-000004     156434006003000455829COASTER MDF SENTIMENT  0000002000+00003069+00000+0001T   00003069+0000001551          1400 JU4300               2AZ
156435000156435               156435               170213AB     1400+00000+AB0000003331+0000003331+000000000+000000467+0000003798+0000000000+I40000003798+0000000000+Z
156435001156435076-000017     156435006001811010022TWINE COTTON 50g-BALL  0000001000+00000876+00000+0001T   00000876+0000001601          1400 JU4810               2AZ
156435002156435079-000802     156435006001023528902ART+CRAFT STICKS 100PCE0000001000+00002455+00000+0001T   00002455+0000001601          1400 JU4130               2AZ
156436000156436               156436               170213AB     1400+00000+AB0000001578+0000001578+000000000+000000221+0000001790+0000000009+I20000000000+0000001790+Z
156436001156436077-000315     156436006003000181186GIFT-BAG 20x28cm MATT  0000001000+00001578+00000+0001T   00001578+0000001602          1400 JU4112               2AZ
156437000156437               156437               170213AB     1400+00000+AB0000014956+0000014956+000000000+000002095+0000017051+0000000000+I40000017051+0000000000+Z
156437001156437077-000270     156437006003000395453GIFT-BAG PPR JMB 33X45 0000001000+00002630+00000+0001T   00002630+0000001605          1400 JU4112               2AZ
156437002156437018-000136     156437006001023659026MUG OCC LOVE W/PLUSH   0000001000+00003507+00000+0001T   00003507+0000001605          1400 JU4515               2AZ
156437003156437368-000614     156437006001023705808PLUSH LOVE 30cm        0000001000+00008771+00000+0001T   00008771+0000001605          1400 JU4745               2AZ
156437004156437112-116069     156437006009681820277TCS CARRIER BAG JUMBO  0000001000+00000048+00000+0001T   00000048+0000001605          1400 JU4090               2AZ
156438000156438               156438               170213AB     1400+00000+AB0000003068+0000003068+000000000+000000430+0000003490+0000000008+I20000000000+0000003490+Z
156438001156438200-000020     156438006925406841030BAG ZIPPERSEAL 25PC    0000001000+00002192+00000+0001T   00002192+0000001607          1400 JU4214               2AZ
156438002156438006-000812     156438006001023902832HAT CONE WITH TINSEL   0000001000+00000876+00000+0001T   00000876+0000001607          1400 JU4131               2AZ
156439000156439               156439               170213AB     1400+00000+AB0000001839+0000001839+000000000+000000258+0000002097+0000000000+I40000002097+0000000000+Z
156439001156439077-000311     156439006001023608666GIFT-BAG 11X14CM GLOSS 0000003000+00000613+00000+0001T   00000613+0000001645          1400 JU4112               2AZ
156440000156440               156440               170213AB     1400+00000+AB0000002628+0000002628+000000000+000000369+0000002990+0000000007+I20000000000+0000002990+Z
156440001156440077-000150-D   156440006003000054343GIFT-WRAP CELLPHANE CLR0000003000+00000876+00000+0001T   00000876+0000001714          1400 JU4112               2AZ
156441000156441               156441               170213AB     1400+00000+AB0000006576+0000006576+000000000+000000921+0000007490+0000000007+I20000000000+0000007490+Z
156441001156441080-000127     156441006003000424351VALENTINES DAY 36x24CM 0000001000+00002192+00000+0001T   00002192+0000001732          1400 JU4112               2AZ
156441002156441018-000170     156441006001023775528MUG OCC. LOVE 2PC MINI 0000002000+00002192+00000+0001T   00002192+0000001732          1400 JU4515               2AZ
A17021300                                          09003336ABSLAVE 2                       JU41IC
A17021301                                          12440352ABSLAVE 2                       JU41IC
A17021302                                          15144136ABSLAVE 2                       JU43IC
M17021391                              CASH        ABSLAVE 2                       Z-REPORT No.   610TOTAL (Sales - Refunds)           1968.84       CASH TO BE BANKED                  806.00       DEBIT CARDS                          0.00       CREDIT CARDS                      1162.94       Z-READING                         1968.84       AIRTIME DEBIT CARD SALES             0.00       AIRTIME CARD SALES                   0.00       OVERS/UNDERS                         0.10       AIRTIME CASH SALES                   0.00       GIFT CARDS                           0.00       GIFT CARD CASH SALES                 0.00       T O T A L  CASH PAYOUTS              0.00                                                                                                                                                                                                                                                                                                                                                      Z
M17021392                              CASH        ABABSENT                                                                                                                                                                                          ANNUAL LEAVE                                                                                                                                                                                    DAY OFF                                                                                                                                                                                         COMMENTS                                                                                                                                                                                                                                                                                                                                                                                       Z
Y17021300                                          AB00000000172777+000031
ZAB17021319183 SLAVE 2      SALES DATA                     NEXT INVOICE NO.  156442 0610
F093691496-028120         1701110933010000021ICSLAVE 2
F093691496-056475         1701110933010000021ICSLAVE 2
F093720496-028122         1701110933050000021ICSLAVE 2
F093783496-057489         1701110933290000031ICSLAVE 2
F093798496-028272         1701110933440000021ICSLAVE 2
F093832496-028202         1701110933470000021ICSLAVE 2
F093960493-059010         1701130955250000101ICSLAVE 2
F094114463-000501         1701130955270000061ICSLAVE 2
F094834031-000873-B       1702100912510000031ICSLAVE 2
F094834031-000873-C       1702100912510000041ICSLAVE 2
X AB Slave 2 First invoice 156411 170213 Last invoice 156441 170213 Next invoice 156442 Total number of records 000000114 clbackup completed 19:18:13
