121168000121168               121168               170213AC     1400+00000+AC0000008504+0000008504+000000000+000001191+0000009695+0000000000+I40000009695+0000000000+Z
121168001121168562-000020     121168006003000600861EDU PLAY DOUGH 60g 4PC 0000001000+00003507+00000+0001T   00003507+0000000914          1400 AU4755               2AZ
121168002121168079-000512     121168006001023635853CRAYONS WAX 12-COLOUR  0000001000+00001490+00000+0001T   00001490+0000000914          1400 AU4130               2AZ
121168003121168560-000300     121168006001023714879DINOSAURS 12PC         0000001000+00003507+00000+0001T   00003507+0000000914          1400 AU4745               2AZ
121169000121169               121169               170213AC     1400+00000+AC0000004329+0000004329+000000000+000000607+0000004936+0000000000+I40000004936+0000000000+Z
121169001121169200-000062     121169006003000519514STRAWS DRINKING PL 4PC 0000002000+00001490+00000+0001T   00001490+0000001044          1400 AU4214               2AZ
121169002121169200-000066     121169006003000365975STRAWS 12PCE W/UMBRELLA0000001000+00001314+00000+0001T   00001314+0000001044          1400 AU4214               2AZ
121169003121169112-116038     121169006003000534906TCS CARRIER BAG MIDI   0000001000+00000035+00000+0001T   00000035+0000001044          1400 AU4090               2AZ
121170000121170               121170               170213AC     1400+00000+AC0000005259+0000005259+000000000+000000738+0000005997+0000000000+I40000005997+0000000000+Z
121170001121170200-000107     121170006003000638499PICNIC CUPS PAPER 250ml0000002000+00001753+00000+0001T   00001753+0000001045          1400 AU4214               2AZ
121170002121170038-001804     121170006001023766618DOILIES 27cm RND PKT-100000001000+00001753+00000+0001T   00001753+0000001045          1400 AU4300               2AZ
121171000121171               121171               170213AC     1400+00000+AC0000023053+0000023053+000000000+000003230+0000026280+0000000003+I20000000000+0000026280+Z
121171001121171903-000194     121171006009826020616SWT CHOC RP LOLLY 25G  0000002000+00001314+00000+0001T   00001314+0000001051          1400 AU4150               2AZ
121171002121171031-086301-C   121171006001023910240P/FRAME PL BRONZE 20X250000001000+00007016+00000+0001T   00007016+0000001051          1400 AU4510               2AZ
121171003121171031-005920     121171006003000580699P/FRAME PL PLAIN 20X25 0000001000+00003507+00000+0001T   00003507+0000001051          1400 AU4510               2AZ
121171004121171031-005830     121171009320760100040P/FRAME-CLIP 24X30CM   0000001000+00003069+00000+0001T   00003069+0000001051          1400 AU4510               2AZ
121171005121171031-005840     121171006001023481412P/FRAME-CLIP 30X40CM   0000001000+00004385+00000+0001T   00004385+0000001051          1400 AU4510               2AZ
121171006121171079-009700-D   121171006003000545711PAPER SIRIO A4 RED COL.0000004000+00000306+00000+0001T   00000306+0000001051          1400 AU4130               2AZ
121171007121171079-009700-J   121171006003000546190PAPER SIRIO A4 BLUE    0000004000+00000306+00000+0001T   00000306+0000001051          1400 AU4130               2AZ
121172000121172               121172               170213AC     1400+00000+AC0000017535+0000017535+000000000+000002457+0000019992+0000000000+I40000019992+0000000000+Z
121172001121172006-000120     121172006001023346889BALLOONS 10PC MIX COL  0000001000+00001753+00000+0001T   00001753+0000001054          1400 AU4131               2AZ
121172002121172079-013032-J   121172006003000542710A&C DIY COLOUR P/FLOWER0000001000+00001753+00000+0001T   00001753+0000001054          1400 AU4130               2AZ
121172003121172079-014152     121172006003000253074ART+CRAFT PK50 ASSTD   0000001000+00003069+00000+0001T   00003069+0000001054          1400 AU4130               2AZ
121172004121172566-000359     121172006003000582709STICKER BOOK LOVE SPARK0000002000+00002192+00000+0001T   00002192+0000001054          1400 AU4130               2AZ
121172005121172080-000127     121172006003000424351VALENTINES DAY 36x24CM 0000003000+00002192+00000+0001T   00002192+0000001054          1400 AU4112               2AZ
121173000121173               121173               170213AC     1400+00000+AC0000000876+0000000876+000000000+000000123+0000000990+0000000009+I20000000000+0000000990+Z
121173001121173077-000011-C   121173006001023808523TISSUE 10xSHTS RED     0000001000+00000876+00000+0001T   00000876+0000001054          1400 AU4112               2AZ
121174000121174               121174               170213AC     1400+00000+AC0000000035+0000000035+000000000+000000005+0000000040+0000000000+I20000000000+0000000040+Z
121174001121174112-116038     121174006003000534906TCS CARRIER BAG MIDI   0000001000+00000035+00000+0001T   00000035+0000001055          1400 AU4090               2AZ
121175000121175               121175               170213AC     1400+00000+AC0000001753+0000001753+000000000+000000246+0000001990+0000000009+I20000000000+0000001990+Z
121175001121175080-000111     121175006003000252695CARD&ENVELPE - MUSICAL 0000001000+00001753+00000+0001T   00001753+0000001104          1400 AU4112               2AZ
121176000121176               121176               170213AC     1400+00000+AC0000005084+0000005084+000000000+000000712+0000005796+0000000000+I40000005796+0000000000+Z
121176001121176079-000289     121176006001023493217PAINT WTR COL CAKE 6COL0000001000+00001578+00000+0001T   00001578+0000001115          1400 AU4130               2AZ
121176002121176566-000991     121176000721129013121STICKERS GLOW-IN-DARK  0000001000+00002192+00000+0001T   00002192+0000001115          1400 AU4130               2AZ
121176003121176566-000992     121176006001023600639STICKERS GLOW-IN-DARK  0000001000+00001314+00000+0001T   00001314+0000001115          1400 AU4130               2AZ
121177000121177               121177               170213AC     1400+00000+AC0000002192+0000002192+000000000+000000307+0000002490+0000000009+I20000000000+0000002490+Z
121177001121177077-000926     121177006003000414178G/WRAP 700mmx2m LOVE   0000001000+00002192+00000+0001T   00002192+0000001116          1400 AU4112               2AZ
121178000121178               121178               170213AC     1400+00000+AC0000010521+0000010521+000000000+000001473+0000011994+0000000000+I40000011994+0000000000+Z
121178001121178048-000870     121178006003000525287LANTERN B/LIGHT MINI   0000003000+00003507+00000+0001T   00003507+0000001121          1400 AU4305               2AZ
121179000121179               121179               170213AC     1400+00000+AC0000000788+0000000788+000000000+000000111+0000000890+0000000009+I20000000000+0000000890+Z
121179001121179077-000010-Z   121179006001023157874CREPE-PAPER BLK/ORG/PUR0000001000+00000788+00000+0001T   00000788+0000001153          1400 AU4112               2AZ
121180000121180               121180               170213AC     1400+00000+AC0000001753+0000001753+000000000+000000246+0000001990+0000000009+I20000000000+0000001990+Z
121180001121180077-000316     121180006001023609731GIFT-BAG 25X32CM MATT  0000001000+00001753+00000+0001T   00001753+0000001205          1400 AU4112               2AZ
121181000121181               121181               170213AC     1400+00000+AC0000008770+0000008770+000000000+000001228+0000009990+0000000008+I20000000000+0000009990+Z
121181001121181463-000119     121181006003000308002SWIM CAP & GOGGLE SET  0000002000+00004385+00000+0001T   00004385+0000001231          1400 AU4785               2AZ
121182000121182               121182               170213AC     1400+00000+AC0000006171+0000006171+000000000+000000866+0000007037+0000000000+I40000007037+0000000000+Z
121182001121182007-000602     121182006003000541270BOOK COVER 2M SOLID COL0000001000+00002630+00000+0001T   00002630+0000001234          1400 AU4130               2AZ
121182002121182566-000299     121182006003000682386STICKER LABEL C/BOARD  0000001000+00001753+00000+0001T   00001753+0000001234          1400 AU4130               2AZ
121182003121182112-116038     121182006003000534906TCS CARRIER BAG MIDI   0000001000+00000035+00000+0001T   00000035+0000001234          1400 AU4090               2AZ
121182004121182565-000043     121182006003000109562NOVELTY BALL FUNNY FACE0000001000+00001753+00000+0001T   00001753+0000001234          1400 AU4745               2AZ
121183000121183               121183               170213AC     1400+00000+AC0000005435+0000005435+000000000+000000762+0000006197+0000000000+I40000006197+0000000000+Z
121183001121183006-000230     121183006003000573998STRAW PARTY MOUSTACHE  0000001000+00002630+00000+0001T   00002630+0000001235          1400 AU4131               2AZ
121183002121183560-000700     121183006001023865830GROWING ANIMALS ASSTD  0000001000+00001578+00000+0001T   00001578+0000001235          1400 AU4745               2AZ
121183003121183077-000319     121183006001023609779GIFT-BAG 18X23CM BIRTHD0000001000+00001227+00000+0001T   00001227+0000001235          1400 AU4112               2AZ
121184000121184               121184               170213AC     1400+00000+AC0000004207+0000004207+000000000+000000590+0000004797+0000000000+I40000004797+0000000000+Z
121184001121184077-000303     121184006001023593757GIFT-BAG PAPER MED     0000001000+00001578+00000+0001T   00001578+0000001329          1400 AU4112               2AZ
121184002121184077-000011-C   121184006001023808523TISSUE 10xSHTS RED     0000001000+00000876+00000+0001T   00000876+0000001329          1400 AU4112               2AZ
121184003121184077-000316     121184006001023609731GIFT-BAG 25X32CM MATT  0000001000+00001753+00000+0001T   00001753+0000001329          1400 AU4112               2AZ
121185000121185               121185               170213AC     1400+00000+AC0000006174+0000006174+000000000+000000865+0000007039+0000000000+I40000007039+0000000000+Z
121185001121185039-000798     121185006001023617774CANDLES TEALITE BOX-50 0000001000+00006139+00000+0001T   00006139+0000001330          1400 AU4510               2AZ
121185002121185112-116038     121185006003000534906TCS CARRIER BAG MIDI   0000001000+00000035+00000+0001T   00000035+0000001330          1400 AU4090               2AZ
121186000121186               121186               170213AC     1400+00000+AC0000002454+0000002454+000000000+000000344+0000002790+0000000008+I20000000000+0000002790+Z
121186001121186007-000160     121186006009685857286NOTE-BOOK A5 SHORTHAND 0000002000+00001227+00000+0001T   00001227+0000001330          1400 AU4130               2AZ
121187000121187               121187               170213AC     1400+00000+AC0000003804+0000003804+000000000+000000533+0000004330+0000000007+I20000000000+0000004330+Z
121187001121187304-001011     121187006001023806727FLWR ROSE RED W/BEAR   0000001000+00000613+00000+0001T   00000788+0006471332          1400 AU4510               2AZ
121187002121187018-000127     121187006001023380289MUG OCC STRAIGHT LOVE  0000002000+00001578+00000+0001T   00001753+0006471332          1400 AU4515               2AZ
121187003121187112-116038     121187006003000534906TCS CARRIER BAG MIDI   0000001000+00000035+00000+0001T   00000035+0000001332          1400 AU4090               2AZ
121188000121188               121188               170213AC     1400+00000+AC0000000876+0000000876+000000000+000000123+0000000990+0000000009+I20000000000+0000000990+Z
121188001121188077-000151     121188006008766114676GIFT-WRAP C/PHANE ASSTD0000001000+00000876+00000+0001T   00000876+0000001340          1400 AU4112               2AZ
121189000121189               121189               170213AC     1400+00000+AC0000011399+0000011399+000000000+000001597+0000012996+0000000000+I40000012996+0000000000+Z
121189001121189088-000080     121189006003000622863DRAWER LINERS SCENTED  0000001000+00005262+00000+0001T   00005262+0000001418          1400 AU4212               2AZ
121189002121189466-000594     121189006001023831613BALLS 3PCE BSKT+RUG+SOC0000001000+00003507+00000+0001T   00003507+0000001418          1400 AU4785               2AZ
121189003121189009-001710     121189006001023807793MELAMINE TRAY 36x25cm  0000001000+00002630+00000+0001T   00002630+0000001418          1400 AU4210               2AZ
121190000121190               121190               170213AC     1400+00000+AC0000006139+0000006139+000000000+000000860+0000006999+0000000000+I40000006999+0000000000+Z
121190001121190073-000527     121190006003000594122TOILETRY BAG MENS      0000001000+00006139+00000+0001T   00006139+0000001418          1400 AU4200               2AZ
121191000121191               121191               170213AC     1400+00000+AC0000005730+0000005730+000000000+000000805+0000006535+0000000000+I40000006535+0000000000+Z
121191001121191007-010192     121191006009635830536BOOK H/COVER A5 192PAGE0000005000+00001139+00000+0001T   00001139+0000001431          1400 AU4130               2AZ
121191002121191112-116038     121191006003000534906TCS CARRIER BAG MIDI   0000001000+00000035+00000+0001T   00000035+0000001431          1400 AU4090               2AZ
121192000121192               121192               170213AC     1400+00000+AC0000026352+0000026352+000000000+000003695+0000030047+0000000000+I40000030047+0000000000+Z
121192001121192565-000859     121192006001023691361SUNGLASSES GIANT       0000003000+00001753+00000+0001T   00001753+0000001538          1400 AU4745               2AZ
121192002121192261-009924     121192006001023622204WATER-PISTOL SQUIRTER  0000004000+00002630+00000+0001T   00002630+0000001538          1400 AU4710               2AZ
121192003121192112-116069     121192006003000535064TCS CARRIER BAG JUMBO  0000001000+00000048+00000+0001T   00000048+0000001538          1400 AU4090               2AZ
121192004121192028-003601     121192006001023361387BEACH-UMBRELLA 170cm   0000001000+00010525+00000+0001T   00010525+0000001538          1400 AU4305               2AZ
121193000121193               121193               170213AC     1400+00000+AC0000006744+0000006744+000000000+000000946+0000007690+0000000000+I40000007690+0000000000+Z
121193001121193006-001000     121193006003000093779HELIUM BALLOON FILL    0000009000+00000613+00000+0001T   00000613+0000001544          1400 AU4131               2AZ
121193002121193077-000245     121193006001023759214GIFT-RIBBON METALLICx2 0000001000+00001227+00000+0001T   00001227+0000001544          1400 AU4112               2AZ
121194000121194               121194               170213AC     1400+00000+AC0000007710+0000007710+000000000+000001083+0000008793+0000000000+I40000008793+0000000000+Z
121194001121194016-006513     121194006003000295739S/JAR GLS EMBOSS. 950ML0000001000+00003069+00000+0001T   00003069+0000001547          1400 AU4300               2AZ
121194002121194903-000094     121194006923431501622SWT GS CANDY NECKLACE  0000003000+00000437+00000+0001T   00000437+0000001547          1400 AU4150               2AZ
121194003121194903-000844     121194005010478432567SWT CANDY DL LUV HEARTS0000001000+00001314+00000+0001T   00001314+0000001547          1400 AU4150               2AZ
121194004121194903-000921     121194006939495519107SWT NOVELTY SLUSH PUPPY0000001000+00002016+00000+0001T   00002016+0000001547          1400 AU4150               2AZ
121195000121195               121195               170213AC     1400+00000+AC0000015345+0000015345+000000000+000002150+0000017495+0000000000+I40000017495+0000000000+Z
121195001121195079-000358     121195006003000591046ART+CRAFT FELT-TIP PENS0000005000+00003069+00000+0001T   00003069+0000001549          1400 AU4130               2AZ
121196000121196               121196               170213AC     1400+00000+AC0000003507+0000003507+000000000+000000491+0000003990+0000000008+I20000000000+0000003990+Z
121196001121196031-000902-A   121196006001023726254P/FRAME WDN OAK 6X9CM  0000001000+00003507+00000+0001T   00003507+0000001551          1400 AU4510               2AZ
121197000121197               121197               170213AC     1400+00000+AC0000002192+0000002192+000000000+000000307+0000002499+0000000000+I40000002499+0000000000+Z
121197001121197080-000127     121197006003000424351VALENTINES DAY 36x24CM 0000001000+00002192+00000+0001T   00002192+0000001553          1400 AU4112               2AZ
121198000121198               121198               170213AC     1400+00000+AC0000000048+0000000048+000000000+000000007+0000000050+0000000005+I20000000000+0000000050+Z
121198001121198112-116069     121198006003000535064TCS CARRIER BAG JUMBO  0000001000+00000048+00000+0001T   00000048+0000001553          1400 AU4090               2AZ
121199000121199               121199               170213AC     1400+00000+AC0000003945+0000003945+000000000+000000553+0000004490+0000000008+I20000000000+0000004490+Z
121199001121199077-000922     121199006003000413935G/WRAP 700mmx2m FLOWER 0000001000+00002192+00000+0001T   00002192+0000001558          1400 AU4112               2AZ
121199002121199566-000028     121199006003000265541STICKER BK ASSTD 250PCE0000001000+00001753+00000+0001T   00001753+0000001558          1400 AU4130               2AZ
121200000121200               121200               170213AC     1400+00000+AC0000003507-0000003507-000000000+000000491-0000004000-0000000002+I20000000000+0000004000-Z
121200001121200031-000902-A   121200006001023726254P/FRAME WDN OAK 6X9CM  0000001000-00003507+00000+0001T   00003507+0000001601          1400 AU45101IC            2 Z
121201000121201               121201               170213AC     1400+00000+AC0000003946+0000003946+000000000+000000553+0000004499+0000000000+I40000004499+0000000000+Z
121201001121201036-000013     121201006001246500860LINT REMOVER REFILLS   0000001000+00003946+00000+0001T   00003946+0000001605          1400 AU4212               2AZ
121202000121202               121202               170213AC     1400+00000+AC0000004155+0000004155+000000000+000000585+0000004740+0000000000+I20000000000+0000004740+Z
121202001121202006-000171-A   121202006003000608935BALLOONS 1PC PINK PRNT 0000001000+00000218+00000+0001T   00000218+0000001607          1400 AU4131               2AZ
121202002121202006-000171-G   121202006003000609529BALLOONS 1PC YELLOW PRN0000001000+00000218+00000+0001T   00000218+0000001607          1400 AU4131               2AZ
121202003121202006-000171-D   121202006003000609291BALLOONS 1PC ORANGE PRN0000001000+00000218+00000+0001T   00000218+0000001607          1400 AU4131               2AZ
121202004121202006-000171-E   121202006003000609406BALLOONS 1PC BLUE PRNT 0000001000+00000218+00000+0001T   00000218+0000001607          1400 AU4131               2AZ
121202005121202006-000171-K   121202006003000609697BALLOONS 1PC PURPLE PRN0000001000+00000218+00000+0001T   00000218+0000001607          1400 AU4131               2AZ
121202006121202006-001000     121202006003000093779HELIUM BALLOON FILL    0000005000+00000613+00000+0001T   00000613+0000001607          1400 AU4131               2AZ
121203000121203               121203               170213AC     1400+00000+AC0000012271+0000012271+000000000+000001722+0000013990+0000000003+I20000000000+0000013990+Z
121203001121203565-000859     121203006001023691361SUNGLASSES GIANT       0000007000+00001753+00000+0001T   00001753+0000001613          1400 AU4745               2AZ
121204000121204               121204               170213AC     1400+00000+AC0000013623+0000013623+000000000+000001909+0000015532+0000000000+I40000015532+0000000000+Z
121204001121204001-000175     121204006001023788108B/MUG GLS LOVE 380ML   0000001000+00004385+00000+0001T   00004385+0000001616          1400 AU4515               2AZ
121204002121204206-000150     121204006003000628667SLICER CUCUMBER        0000001000+00002192+00000+0001T   00002192+0000001616          1400 AU4321               2AZ
121204003121204206-000620     121204006003000631797BACK SCRATCHER EXTEND  0000001000+00002630+00000+0001T   00002630+0000001616          1400 AU4321               2AZ
121204004121204204-000001     121204006003000575558M/HOLD BOTTLE OPENER   0000001000+00001753+00000+0001T   00001753+0000001616          1400 AU4300               2AZ
121204005121204030-000010     121204006003000084395P/DOOR HANGER 2-ASSTD  0000001000+00001314+00000+0001T   00001490+0008181616          1400 AU4505               2AZ
121204006121204903-000844     121204005010478432567SWT CANDY DL LUV HEARTS0000001000+00001314+00000+0001T   00001314+0000001616          1400 AU4150               2AZ
121204007121204112-116038     121204006003000534906TCS CARRIER BAG MIDI   0000001000+00000035+00000+0001T   00000035+0000001616          1400 AU4090               2AZ
121205000121205               121205               170213AC     1400+00000+AC0000028064+0000028064+000000000+000003932+0000031996+0000000000+I40000031996+0000000000+Z
121205001121205031-086219-C   121205006001023808905P/FRAME WDN A4 30X40CM 0000004000+00007016+00000+0001T   00007016+0000001618          1400 AU4510               2AZ
121206000121206               121206               170213AC     1400+00000+AC0000009691+0000009691+000000000+000001359+0000011050+0000000000+I20000000000+0000011050+Z
121206001121206038-047250     121206006001023816009PLACE MAT ASSORTED     0000001000+00001753+00000+0001T   00001753+0000001619          1400 AU4300               2AZ
121206002121206047-005126     121206006001023451255CABLETIES 100/150/200mm0000001000+00002192+00000+0001T   00002192+0000001619          1400 AU4880               2AZ
121206003121206047-005127     121206006003000093861CABLETIES 100/150/200mm0000001000+00002192+00000+0001T   00002192+0000001619          1400 AU4880               2AZ
121206004121206903-000211     121206006002099001238SWT GS MALLOW ICE CREAM0000002000+00001753+00000+0001T   00001753+0000001619          1400 AU4150               2AZ
121206005121206112-116069     121206006009681820277TCS CARRIER BAG JUMBO  0000001000+00000048+00000+0001T   00000048+0000001619          1400 AU4090               2AZ
121207000121207               121207               170213AC     1400+00000+AC0000004433+0000004433+000000000+000000621+0000005054+0000000000+I40000005054+0000000000+Z
121207001121207001-000175     121207006001023788108B/MUG GLS LOVE 380ML   0000001000+00004385+00000+0001T   00004385+0000001620          1400 AU4515               2AZ
121207002121207112-116069     121207006003000535064TCS CARRIER BAG JUMBO  0000001000+00000048+00000+0001T   00000048+0000001620          1400 AU4090               2AZ
121208000121208               121208               170213AC     1400+00000+AC0000001490+0000001490+000000000+000000209+0000001690+0000000009+I20000000000+0000001690+Z
121208001121208077-000304     121208006001023483232GIFT-BAG 25X32CM E/DAY 0000001000+00001490+00000+0001T   00001490+0000001621          1400 AU4112               2AZ
121209000121209               121209               170213AC     1400+00000+AC0000000525+0000000525+000000000+000000074+0000000590+0000000009+I20000000000+0000000590+Z
121209001121209903-000155     121209006009803374435SWT LOLLY I LUV U HEART0000001000+00000525+00000+0001T   00000525+0000001622          1400 AU4150               2AZ
121210000121210               121210               170213AC     1400+00000+AC0000015786+0000015786+000000000+000002211+0000017997+0000000000+I40000017997+0000000000+Z
121210001121210464-003002     121210006003000328550GAME THINK:CHESS KIDS  0000001000+00012279+00000+0001T   00012279+0000001704          1400 AU4785               2AZ
121210002121210903-000596     121210006003000607754SWEET MONEYBOX 12cm J/B0000001000+00003507+00000+0001T   00003507+0000001704          1400 AU4150               2AZ
121211000121211               121211               170213AC     1400+00000+AC0000017583+0000017583+000000000+000002465+0000020048+0000000000+I40000020048+0000000000+Z
121211001121211071-003011     121211006001023762825PEN STICKBALL X10 ASSTD0000001000+00001753+00000+0001T   00001753+0000001707          1400 AU4130               2AZ
121211002121211072-020354     121211006001023649980DOG/CAT-BOWL LARGE     0000002000+00002630+00000+0001T   00002630+0000001707          1400 AU4870               2AZ
121211003121211072-000626     121211006003000691609DOG-LEAD REFLECTIVE    0000001000+00002630+00000+0001T   00002630+0000001707          1400 AU4870               2AZ
121211004121211004-071267     121211006001023907875LCD CLEANING KIT+CLOTH 0000001000+00003507+00000+0001T   00003507+0000001707          1400 AU4310               2AZ
121211005121211082-000100     121211006003000360246READING GLS STRENGHT:1 0000001000+00004385+00000+0001T   00004385+0000001707          1400 AU4160               2AZ
121211006121211112-116069     121211006009681820277TCS CARRIER BAG JUMBO  0000001000+00000048+00000+0001T   00000048+0000001707          1400 AU4090               2AZ
121212000121212               121212               170213AC     1400+00000+AC0000003682+0000003682+000000000+000000516+0000004190+0000000008+I20000000000+0000004190+Z
121212001121212089-060027     121212006003000245871KEY-CHAIN HEART 6X6cm  0000001000+00003069+00000+0001T   00003069+0000001708          1400 AU4205               2AZ
121212002121212304-001011     121212006001023806727FLWR ROSE RED W/BEAR   0000001000+00000613+00000+0001T   00000788+0006471708          1400 AU4510               2AZ
A17021300                                          17253344ACSLAVE 2                       AU41IC
M17021391                              CASH        ACSLAVE 2                       Z-REPORT No.   548TOTAL (Sales - Refunds)           3652.10       CASH TO BE BANKED                  935.50       DEBIT CARDS                          0.00       CREDIT CARDS                      2716.60       Z-READING                         3652.10       AIRTIME DEBIT CARD SALES             0.00       AIRTIME CARD SALES                   0.00       OVERS/UNDERS                         0.00       AIRTIME CASH SALES                   0.00       GIFT CARDS                           0.00       GIFT CARD CASH SALES                 0.00       T O T A L  CASH PAYOUTS              0.00                                                                                                                                                                                                                                                                                                                                                      Z
M17021392                              CASH        ACABSENT                                                                                                                                                                                          ANNUAL LEAVE                                                                                                                                                                                    DAY OFF                                                                                                                                                                                         COMMENTS                                                                                                                                                                                                                                                                                                                                                                                       Z
Y17021300                                          AC00000000323933+000044
ZAC17021319183 SLAVE 2      SALES DATA                     NEXT INVOICE NO.  121213 0548
X AC Slave 2 First invoice 121168 170213 Last invoice 121212 170213 Next invoice 121213 Total number of records 000000156 clbackup completed 19:18:03
