140500000140500               140500               170213AC     1400+00000+AC0000095504+0000095504+000000000+000013378+0000108882+           I90000000000+0000000000+Z
140500001140500366-000105     140500006001023866103DRESSUP WINGS AND SKIRT0000001000+00007016+00000+0001T032878280000                    1400 1IC1311ICV             Z
140500002140500304-001116     140500006003000426164F/BUNCH ROSES 12-HEAD  0000001000+00005262+00000+0001T032878280000                    1400 1IC5101ICV             Z
140500003140500466-000602     140500006001023508010BALL SOCCER 2-PLY NEON 0000002000+00008771+00000+0001T032878280000                    1400 1IC7851ICV             Z
140500005140500112-116069     140500006009681820277TCS CARRIER BAG JUMBO  0000002000+00000048+00000+0001T032878280000                    1400 1IC0901ICV             Z
140500006140500002-220002     140500006001023677877F/COVER SQ 31cm WHT    0000001000+00002630+00000+0001T032878280000                    1400 1IC3001ICV             Z
140500007140500006-000166-C   140500006003000516377BALLOONS LRG 6PC PINK  0000001000+00001314+00000+0001T032878280000                    1400 1IC1311ICV             Z
140500008140500006-000166-G   140500006003000607976BALLOONS HELIUM 6PC BLK0000001000+00001314+00000+0001T032878280000                    1400 1IC1311ICV             Z
140500009140500006-000167-E   140500006003000517213BALLOONS GOLD METALLIC 0000001000+00001314+00000+0001T032878280000                    1400 1IC1311ICV             Z
140500010140500016-006456     140500006001023907851STORAGE-JAR COFFEE/TEA 0000002000+00008771+00000+0001T032878280000                    1400 1IC3001ICV             Z
140500011140500079-000335     140500006003000670550THERAPY P/CRAYONS 30   0000001000+00007016+00000+0001T032878280000                    1400 1IC1301ICV             Z
140500012140500486-002307     140500006003000443086W/CLOCK QTZ PL ANTIQUE 0000001000+00008771+00000+0001T032878280000                    1400 1IC5101ICV             Z
140500013140500466-064834     140500006008766064834BALL W/SPIKES 20cm     0000001000+00001753+00000+0001T032878280000                    1400 1IC7851ICV             Z
140500014140500567-011422     140500006003000641222BK COLOURING THERAPY   0000001000+00003507+00000+0001T032878280000                    1400 1IC7571ICV             Z
140500015140500565-000888     140500006003000607846NOVELTY MESH BALL      0000002000+00001753+00000+0001T032878280000                    1400 1IC7451ICV             Z
140500016140500027-000090     140500006001023588265WINDOW-CLEANER LONG-HND0000001000+00002630+00000+0001T032878280000                    1400 1IC2121ICV             Z
140500017140500466-000616     140500006003000661862BALL-PUMP NEEDLES 3PC  0000001000+00001578+00000+0001T032878280000                    1400 1IC7851ICV             Z
140500018140500466-000615     140500006003000535828BALL SOC MINI HOLOGRAM 0000001000+00005262+00000+0001T032878280000                    1400 1IC7851ICV             Z
140500019140500155-001304     140500006001023606488TAPE STEEL 5mx19mm     0000001000+00003507+00000+0001T032878280000                    1400 1IC8401ICV             Z
140500020140500016-002000     140500006003000674404S/BOTTLE GLS W/PL CAP  0000001000+00002630+00000+0001T032878280000                    1400 1IC3001ICV             Z
140500021140500105-001031     140500000700371696627FOODSAVER 800ml        0000001000+00001314+00000+0001T032878280000                    1400 1IC2101ICV             Z
140501000140501               140501               170213AC     1400+00000+AC0000006139+0000006139+000000000+000000860+0000006999+           I90000000000+0000000000+Z
140501001140501018-040000     140501006003000421183MUG OCCASIONS DAD 2PCE 0000001000+00006139+00000+0001T032878280000                    1400 1IC5151ICV             Z
140502000140502               140502               170213AC     1400+00000+AC0000037221+0000037221+000000000+000005218+0000042439+           I00000000000+0000000000+Z
140502001140502301-000016     140502006001023817556ORN SENTIMENT HEART ASS0000004000+00002630+00000+0001T                                1400 1IC5051ICD             Z
140502002140502015-000110     140502006001023854889WHITEWARE MUG 350ML    0000001000+00002192+00000+0001T                                1400 1IC5151ICD             Z
140502003140502903-000155     140502006009803374435SWT LOLLY I LUV U HEART0000001000+00000525+00000+0001T                                1400 1IC1501ICD             Z
140502004140502903-000618     140502006003000672370SWT LOLLY RAINBOW GIANT0000001000+00001753+00000+0001T                                1400 1IC1501ICD             Z
140502005140502007-000167     140502006009685857347SPIRAL NOTES A7 72PG   0000001000+00000350+00000+0001T                                1400 1IC1301ICD             Z
140502006140502031-000866-C   140502006001023798503P/FRAME WDN SEASIDE    0000001000+00008771+00000+0001T                                1400 1IC5101ICD             Z
140502007140502006-001000     140502006003000093779HELIUM BALLOON FILL    0000001000+00000613+00000+0001T                                1400 1IC1311ICD             Z
140502008140502006-000171-E   140502006003000609406BALLOONS 1PC BLUE PRNT 0000001000+00000218+00000+0001T                                1400 1IC1311ICD             Z
140502009140502105-007555     140502006003000485796STORAGE BOX CLEAR NICHE0000001000+00009648+00000+0001T                                1400 1IC2101ICD             Z
140502010140502031-005919     140502006003000580576P/FRAME PL PLAIN 13X18 0000001000+00002630+00000+0001T                                1400 1IC5101ICD             Z
140502011140502125-000006     140502006003000649983RIBBON-HELIUM BALLOON  0000001000+00000001+00000+0001T                                1400 1IC0911ICD             Z
M17021391                              CASH        ACSLAVE 4                       Z-REPORT No.   519TOTAL (Sales - Refunds)              0.00       CASH TO BE BANKED                    0.00       DEBIT CARDS                          0.00       CREDIT CARDS                         0.00       Z-READING                            0.00       AIRTIME DEBIT CARD SALES             0.00       AIRTIME CARD SALES                   0.00       OVERS/UNDERS                         0.00       AIRTIME CASH SALES                   0.00       GIFT CARDS                           0.00       GIFT CARD CASH SALES                 0.00       T O T A L  CASH PAYOUTS              0.00                                                                                                                                                                                                                                                                                                                                                      Z
M17021392                              CASH        ACABSENT                                                                                                                                                                                          ANNUAL LEAVE                                                                                                                                                                                    DAY OFF                                                                                                                                                                                         COMMENTS                                                                                                                                                                                                                                                                                                                                                                                       Z
Y17021300                                          AC00000000000000+000000
ZAC17021319183 SLAVE 4      SALES DATA                     NEXT INVOICE NO.  140503 0519
L54573800337558-001-001       AC1701311157051ICLEE FORD                                                                                                                                                                                                                                                                                                                                                                                                                                                                                                                                                                                                                                                                                                                                                                                                                                                                                                                                                                                             Z
L55768800357262-001-001       AC1702091231201ICLEE FORD                                                                                                                                                                                                                                                                                                                                                                                                                                                                                                                                                                                                                                                                                                                                                                                                                                                                                                                                                                                             Z
V54573800000262-001-001       AC1702091231201ICLEE                000000000000000170131000000   SLAVE 4     000000000000337558               01
V55768800000262-001-001       AC1702091231201ICLEE                000000000000000170209000000   SLAVE 4     000000000000357262               01
X AC Slave 4 First invoice 140500 170213 Last invoice 140502 170213 Next invoice 140503 Total number of records 000000043 clbackup completed 19:18:08
