121666000121666               121666               170213AD     1400+00000+AD0000001927+0000001927+000000000+000000270+0000002190+0000000007+I20000000000+0000002190+Z
121666001121666077-000321     121666006001023677501GIFT-BAG 11X14CM E/D FL0000001000+00000613+00000+0001T   00000613+0000000935          1400 DO5112               2BZ
121666002121666077-000312     121666006001023608697GIFT-BAG 10X35CM GLOSS 0000001000+00001314+00000+0001T   00001314+0000000935          1400 DO5112               2BZ
121667000121667               121667               170213AD     1400+00000+AD0000000437+0000000437+000000000+000000062+0000000490+0000000009+I20000000000+0000000490+Z
121667001121667080-000133-A   121667006003000647019MINI VALENTINES CARD   0000001000+00000437+00000+0001T   00000437+0000000945          1400 DO5112               2BZ
121668000121668               121668               170213AD     1400+00000+AD0000015815+0000015815+000000000+000002219+0000018030+0000000004+I20000000000+0000018030+Z
121668001121668020-000620     121668006001023629722UTILITY-KNIFE 12cm-BLDE0000006000+00002630+00000+0001T   00002630+0000001015          1400 DO5300               2BZ
121668002121668112-116038     121668006009681820246TCS CARRIER BAG MIDI   0000001000+00000035+00000+0001T   00000035+0000001015          1400 DO5090               2BZ
121669000121669               121669               170213AD     1400+00000+AD0000000876+0000000876+000000000+000000123+0000000990+0000000009+I20000000000+0000000990+Z
121669001121669903-000482     121669006001704001397SWT SOFT-MINTS 60G     0000001000+00000876+00000+0001T   00000876+0000001015          1400 DO5150               2BZ
121670000121670               121670               170213AD     1400+00000+AD0000005296+0000005296+000000000+000000742+0000006030+0000000008+I20000000000+0000006030+Z
121670001121670301-085000     121670006003000674299 ORN OCC. LOVE HEARTS  0000001000+00002192+00000+0001T   00002192+0000001022          1400 DO5505               2BZ
121670002121670301-085008     121670006003000673933ORN OCC.LOVE TINSEL HRT0000001000+00003069+00000+0001T   00003069+0000001022          1400 DO5505               2BZ
121670003121670112-116038     121670006009681820246TCS CARRIER BAG MIDI   0000001000+00000035+00000+0001T   00000035+0000001022          1400 DO5090               2BZ
121671000121671               121671               170213AD     1400+00000+AD0000002630+0000002630+000000000+000000369+0000002990+0000000009+I20000000000+0000002990+Z
121671001121671304-001605     121671006001023842497FLWR LILY SPRAY 53CM   0000001000+00002630+00000+0001T   00002630+0000001032          1400 DO5510               2BZ
121672000121672               121672               170213AD     1400+00000+AD0000007362+0000007362+000000000+000001032+0000008394+0000000000+I40000008394+0000000000+Z
121672001121672089-000098     121672006003000677443KEY CHAIN OPENER ASSTD 0000001000+00001314+00000+0001T   00001314+0000001038          1400 DO5205               2BZ
121672002121672080-000133-A   121672006003000647019MINI VALENTINES CARD   0000001000+00000437+00000+0001T   00000437+0000001038          1400 DO5112               2BZ
121672003121672006-000190     121672006003000685530BALLOONS LOVE 81x91cm  0000001000+00004385+00000+0001T   00004385+0000001038          1400 DO5131               2BZ
121672004121672006-001000     121672006003000093779HELIUM BALLOON FILL    0000002000+00000613+00000+0001T   00000613+0000001038          1400 DO5131               2BZ
121673000121673               121673               170213AD     1400+00000+AD0000009207+0000009207+000000000+000001290+0000010490+0000000007+I20000000000+0000010490+Z
121673001121673038-092233     121673006003000328925TABLE-MAT N/SLIP ASST  0000003000+00003069+00000+0001T   00003507+0008191104          1400 DO5300               2BZ
121674000121674               121674               170213AD     1400+00000+AD0000013156+0000013156+000000000+000001842+0000014990+0000000008+I20000000000+0000014990+Z
121674001121674030-000031-A   121674006003000457588PLAQUE W/WORDS ASSTD   0000001000+00004385+00000+0001T   00004823+0006471111          1400 DO5505               2BZ
121674002121674368-000614     121674006001023705808PLUSH LOVE 30cm        0000001000+00008771+00000+0001T   00008771+0000001111          1400 DO5745               2BZ
121675000121675               121675               170213AD     1400+00000+AD0000005297+0000005297+000000000+000000742+0000006030+0000000009+I20000000000+0000006030+Z
121675001121675263-000623     121675006001023905697VEHICLE HELICOPTER 30cm0000001000+00005262+00000+0001T   00005262+0000001120          1400 DO5710               2BZ
121675002121675112-116038     121675006009681820246TCS CARRIER BAG MIDI   0000001000+00000035+00000+0001T   00000035+0000001120          1400 DO5090               2BZ
121676000121676               121676               170213AD     1400+00000+AD0000001753+0000001753+000000000+000000246+0000001990+0000000009+I20000000000+0000001990+Z
121676001121676142-000815     121676006001023183903GLOVES RUBBER LARGE    0000001000+00001753+00000+0001T   00001753+0000001136          1400 DO5810               2BZ
121677000121677               121677               170213AD     1400+00000+AD0000003544+0000003544+000000000+000000499+0000004040+0000000003+I20000000000+0000004040+Z
121677001121677006-000172-J   121677006003000610280BALLOONS METALLIC BLACK0000003000+00000218+00000+0001T   00000218+0000001138          1400 DO5131               2BZ
121677002121677006-001000     121677006003000093779HELIUM BALLOON FILL    0000003000+00000613+00000+0001T   00000613+0000001138          1400 DO5131               2BZ
121677003121677903-002850     121677000000087108262MENTOS ROLL FRUIT      0000001000+00001051+00000+0001T   00001051+0000001138          1400 DO5150               2BZ
121678000121678               121678               170213AD     1400+00000+AD0000012739+0000012739+000000000+000001790+0000014520+0000000009+I20000000000+0000014520+Z
121678001121678565-000886     121678006003000337057CRITTERS PUFFER BALLS  0000001000+00004385+00000+0001T   00004385+0000001145          1400 DO5745               2BZ
121678002121678903-000183     121678006003000451043SWT LB HEART LOLLY     0000002000+00000393+00000+0001T   00000393+0000001145          1400 DO5150               2BZ
121678003121678903-000200     121678006009826020234SWT CHOC RP CHOCO 23G  0000004000+00000788+00000+0001T   00000788+0000001145          1400 DO5150               2BZ
121678004121678007-000589     121678006001023810120NOTES DIARY+KEY 50PG   0000001000+00003507+00000+0001T   00003507+0000001145          1400 DO5130               2BZ
121678005121678112-116038     121678006009681820246TCS CARRIER BAG MIDI   0000001000+00000035+00000+0001T   00000035+0000001145          1400 DO5090               2BZ
121678006121678080-000133-A   121678006003000647019MINI VALENTINES CARD   0000002000+00000437+00000+0001T   00000437+0000001145          1400 DO5112               2BZ
121679000121679               121679               170213AD     1400+00000+AD0000000877+0000000877+000000000+000000123+0000001000+0000000000+I40000001000+0000000000+Z
121679001121679263-000193     121679006003000299126CAR TRACK PUSH & LOOP  0000001000-00004385+00000+0001T   00004385+0000001150          1400 DO57101IC            2 Z
121679002121679263-000509     121679006001023790620DIY ASSEMBLY VEHICLE   0000001000+00005262+00000+0001T   00005262+0000001150          1400 DO5710               2BZ
121680000121680               121680               170213AD     1400+00000+AD0000008094+0000008094+000000000+000001136+0000009230+0000000000+I20000000000+0000009230+Z
121680001121680079-000275     121680006003000160488PAINT-BRUSHES 6PCE PRO 0000001000+00001753+00000+0001T   00001753+0000001152          1400 DO5130               2BZ
121680002121680903-004963     121680008410525221873SWT GUMMY SOUR COLA 50g0000002000+00000964+00000+0001T   00000964+0000001152          1400 DO5150               2BZ
121680003121680903-000123     121680006925925909280SWEET GS MINI MALLOWS  0000001000+00000876+00000+0001T   00000876+0000001152          1400 DO5150               2BZ
121680004121680903-004961     121680008410525221866SWT GUMMY FINI WILD 50g0000001000+00000964+00000+0001T   00000964+0000001152          1400 DO5150               2BZ
121680005121680903-004962     121680008410525221880SWT FINI BLCK/RED 50g  0000001000+00000964+00000+0001T   00000964+0000001152          1400 DO5150               2BZ
121680006121680903-000077     121680006939873501687SWT GS MAGIC ROCK FRUIT0000002000+00000525+00000+0001T   00000525+0000001152          1400 DO5150               2BZ
121680007121680903-000099     121680006923431501646SWT CANDY GS WTCH B/LET0000002000+00000262+00000+0001T   00000262+0000001152          1400 DO5150               2BZ
121680008121680112-116038     121680006009681820246TCS CARRIER BAG MIDI   0000001000+00000035+00000+0001T   00000035+0000001152          1400 DO5090               2BZ
121681000121681               121681               170213AD     1400+00000+AD0000001753+0000001753+000000000+000000246+0000001990+0000000009+I20000000000+0000001990+Z
121681001121681200-003024     121681006001023657299REFUSE BAGS 20PCE BLACK0000001000+00001753+00000+0001T   00001753+0000001219          1400 DO5214               2BZ
121682000121682               121682               170213AD     1400+00000+AD0000037937+0000037937+000000000+000005313+0000043250+0000000000+I40000043250+0000000000+Z
121682001121682365-000008     121682006003000166183P/SET DOCTOR SET W/CASE0000001000+00007893+00000+0001T   00007893+0000001236          1400 DO5725               2BZ
121682002121682265-001652     121682006003000508723BATTERY CAR 12x20cm    0000001000+00021928+00000+0001T   00021928+0000001236          1400 DO5710               2BZ
121682003121682046-000011-VP  121682006003000537839BATTERIES SIZE:AA 12PCE0000001000+00006578+00000+0001T   00006578+0000001236          1400 DO5312               2BZ
121682004121682112-116069     121682006009681820277TCS CARRIER BAG JUMBO  0000001000+00000048+00000+0001T   00000048+0000001236          1400 DO5090               2BZ
121682005121682046-000010     121682004897006172987BATTERIES AAA ALKLN 2PC0000001000+00001490+00000+0001T   00001490+0000001236          1400 DO5312               2BZ
121683000121683               121683               170213AD     1400+00000+AD0000042565+0000042565+000000000+000005964+0000048529+0000000000+I40000048529+0000000000+Z
121683001121683469-004001     121683006003000241927B/BLOCKS 66PC POLICE   0000001000+00015788+00000+0001T   00015788+0000001258          1400 DO5755               2BZ
121683002121683567-010555     121683009780799363142TIPPIE READERS ASSORTED0000007000+00003069+00000+0001T   00003069+0000001258          1400 DO5757               2BZ
121683003121683088-000051     121683006001023760289T/FRESHENER RIM-BLOCK  0000001000+00001753+00000+0001T   00001753+0000001258          1400 DO5212               2BZ
121683004121683466-000109     121683006003000612345BALL RAINBOW DESIGN    0000001000+00001753+00000+0001T   00001753+0000001258          1400 DO5785               2BZ
121683005121683088-000051     121683006001023760289T/FRESHENER RIM-BLOCK  0000001000+00001753+00000+0001T   00001753+0000001258          1400 DO5212               2BZ
121683006121683112-116038     121683006009681820246TCS CARRIER BAG MIDI   0000001000+00000035+00000+0001T   00000035+0000001258          1400 DO5090               2BZ
121684000121684               121684               170213AD     1400+00000+AD0000003888+0000003888+000000000+000000545+0000004430+0000000003+I20000000000+0000004430+Z
121684001121684261-000121     121684006001023341600GUN-CAPS 8-SHOT CARD-9 0000003000+00000700+00000+0001T   00000700+0000001259          1400 DO5710               2BZ
121684002121684261-002267     121684006001023665126GUN 8-SHOT SUPER-CAP   0000001000+00001753+00000+0001T   00001753+0000001259          1400 DO5710               2BZ
121684003121684112-116038     121684006009681820246TCS CARRIER BAG MIDI   0000001000+00000035+00000+0001T   00000035+0000001259          1400 DO5090               2BZ
121685000121685               121685               170213AD     1400+00000+AD0000004383+0000004383+000000000+000000615+0000004990+0000000008+I20000000000+0000004990+Z
121685001121685002-000883     121685006001023770394CAN-OPENER             0000001000+00001753+00000+0001T   00001753+0000001300          1400 DO5300               2BZ
121685002121685046-000011-A   121685006003000438891BATTERIES SIZE:AA  4PCE0000001000+00002630+00000+0001T   00002630+0000001300          1400 DO5312               2BZ
121686000121686               121686               170213AD     1400+00000+AD0000006575+0000006575+000000000+000000921+0000007490+0000000006+I20000000000+0000007490+Z
121686001121686903-000194     121686006009826020616SWT CHOC RP LOLLY 25G  0000001000+00001314+00000+0001T   00001314+0000001309          1400 DO5150               2BZ
121686002121686077-000011-C   121686006001023808523TISSUE 10xSHTS RED     0000001000+00000876+00000+0001T   00000876+0000001309          1400 DO5112               2BZ
121686003121686031-080508     121686006001023802415P/FRAME PL 22X11CM LOVE0000001000+00004385+00000+0001T   00004385+0000001309          1400 DO5510               2BZ
121687000121687               121687               170213AD     1400+00000+AD0000003242+0000003242+000000000+000000455+0000003697+0000000000+I40000003697+0000000000+Z
121687001121687080-000133-A   121687006003000647019MINI VALENTINES CARD   0000001000+00000437+00000+0001T   00000437+0000001417          1400 DO5112               2BZ
121687002121687039-000635     121687006001023774521CANDLE VTV 4PC WHITE   0000001000+00002192+00000+0001T   00002192+0000001417          1400 DO5510               2BZ
121687003121687077-000311     121687006001023608666GIFT-BAG 11X14CM GLOSS 0000001000+00000613+00000+0001T   00000613+0000001417          1400 DO5112               2BZ
121688000121688               121688               170213AD     1400+00000+AD0000040785+0000040785+000000000+000005711+0000046496+0000000000+I40000046496+0000000000+Z
121688001121688072-020250     121688006003000188864PET BLANKET BUDGET     0000001000+00003069+00000+0001T   00003069+0000001427          1400 DO5870               2BZ
121688002121688072-020251     121688000694202207376PET-BLANKET ULTRA-SOFT 0000001000+00011402+00000+0001T   00011402+0000001427          1400 DO5870               2BZ
121688003121688072-020246     121688000694202309155PET BED MEMORY FOAM LRG0000001000+00026314+00000+0001T   00026314+0000001427          1400 DO5870               2BZ
121689000121689               121689               170213AD     1400+00000+AD0000008329+0000008329+000000000+000001168+0000009490+0000000007+I20000000000+0000009490+Z
121689001121689018-050000     121689006003000412679MUG OCC LOVE TWIN BEAR 0000001000+00006139+00000+0001T   00006139+0000001435          1400 DO5515               2BZ
121689002121689077-000289     121689006001023901996GIFT BOX 20x25x11cm    0000001000+00001753+00000+0001T   00001753+0000001435          1400 DO5112               2BZ
121689003121689080-000133-A   121689006003000647019MINI VALENTINES CARD   0000001000+00000437+00000+0001T   00000437+0000001435          1400 DO5112               2BZ
121690000121690               121690               170213AD     1400+00000+AD0000022232+0000022232+000000000+000003116+0000025340+0000000008+I20000000000+0000025340+Z
121690001121690301-085000     121690006003000674299 ORN OCC. LOVE HEARTS  0000001000+00002192+00000+0001T   00002192+0000001450          1400 DO5505               2BZ
121690002121690088-000055     121690006003000623068TOILET FRESHENER CISTER0000001000+00001753+00000+0001T   00001753+0000001450          1400 DO5212               2BZ
121690003121690031-080508     121690006001023802415P/FRAME PL 22X11CM LOVE0000001000+00004385+00000+0001T   00004385+0000001450          1400 DO5510               2BZ
121690004121690301-085007     121690006003000673698ORN OCC. LOVE S/PLAQUE 0000001000+00007893+00000+0001T   00007893+0000001450          1400 DO5505               2BZ
121690005121690108-001028     121690006009654960733TUMBLERS PL SET-OF-6   0000001000+00001753+00000+0001T   00002630+0008171450          1400 DO5210               2BZ
121690006121690018-000127     121690006001023380289MUG OCC STRAIGHT LOVE  0000001000+00001578+00000+0001T   00001753+0006471450          1400 DO5515               2BZ
121690007121690018-000129     121690006001023403353MUG OCC. LOVE V-SHAPE  0000001000+00002630+00000+0001T   00002630+0000001450          1400 DO5515               2BZ
121690008121690112-116069     121690006009681820277TCS CARRIER BAG JUMBO  0000001000+00000048+00000+0001T   00000048+0000001450          1400 DO5090               2BZ
121691000121691               121691               170213AD     1400+00000+AD0000004385-0000004385-000000000+000000614-0000005000-0000000001+I20000000000+0000005000-Z
121691001121691366-000401     121691006003000242047DRESS UP PRINCESS SET  0000001000-00004385+00000+0001T   00004385+0000001453          1400 DO51312IC            2 Z
121692000121692               121692               170213AD     1400+00000+AD0000006138+0000006138+000000000+000000860+0000006990+0000000008+I20000000000+0000006990+Z
121692001121692038-092233     121692006003000328925TABLE-MAT N/SLIP ASST  0000001000+00003069+00000+0001T   00003507+0008191507          1400 DO5300               2BZ
121692002121692089-000205     121692006003000485963KEY CHAIN LEATHER W/ZIP0000001000+00003069+00000+0001T   00003069+0000001507          1400 DO5205               2BZ
121693000121693               121693               170213AD     1400+00000+AD0000003506+0000003506+000000000+000000492+0000003990+0000000008+I20000000000+0000003990+Z
121693001121693006-000120     121693006001023346889BALLOONS 10PC MIX COL  0000002000+00001753+00000+0001T   00001753+0000001509          1400 DO5131               2BZ
121694000121694               121694               170213AD     1400+00000+AD0000003507+0000003507+000000000+000000491+0000003990+0000000008+I20000000000+0000003990+Z
121694001121694366-006105     121694006003000617050DRESS UP FACE PAINT    0000001000+00003507+00000+0001T   00003507+0000001513          1400 DO5131               2BZ
121695000121695               121695               170213AD     1400+00000+AD0000001753+0000001753+000000000+000000246+0000001990+0000000009+I20000000000+0000001990+Z
121695001121695200-003026     121695006003000276448REFUSE BAGS 10PCE GREEN0000001000+00001753+00000+0001T   00001753+0000001513          1400 DO5214               2BZ
121696000121696               121696               170213AD     1400+00000+AD0000001227+0000001227+000000000+000000172+0000001390+0000000009+I20000000000+0000001390+Z
121696001121696077-000245     121696006001023759214GIFT-RIBBON METALLICx2 0000001000+00001227+00000+0001T   00001227+0000001514          1400 DO5112               2BZ
121697000121697               121697               170213AD     1400+00000+AD0000009637+0000009637+000000000+000001351+0000010980+0000000008+I20000000000+0000010980+Z
121697001121697006-001000     121697006003000093779HELIUM BALLOON FILL    0000010000+00000613+00000+0001T   00000613+0000001526          1400 DO5131               2BZ
121697002121697071-005667     121697006003000153060STAPLER SET MTL W/STPLS0000001000+00003507+00000+0001T   00003507+0000001526          1400 DO5130               2BZ
121698000121698               121698               170213AD     1400+00000+AD0000001753+0000001753+000000000+000000246+0000001990+0000000009+I20000000000+0000001990+Z
121698001121698089-000030     121698006003000575671K/CHAIN LOVE MTL ASSTD 0000001000+00001753+00000+0001T   00001753+0000001527          1400 DO5205               2BZ
121699000121699               121699               170213AD     1400+00000+AD0000004370+0000004370+000000000+000000620+0000004990+0000000000+I20000000000+0000004990+Z
121699001121699080-000133-A   121699006003000647019MINI VALENTINES CARD   0000006000+00000437+00000+0001T   00000437+0000001529          1400 DO5112               2BZ
121699002121699080-000133     121699006003000535613CARD&ENV MINI ASTD DSGN0000002000+00000437+00000+0001T   00000437+0000001529          1400 DO5112               2BZ
121699003121699080-000133-A   121699006003000647019MINI VALENTINES CARD   0000002000+00000437+00000+0001T   00000437+0000001529          1400 DO5112               2BZ
121700000121700               121700               170213AD     1400+00000+AD0000002192+0000002192+000000000+000000307+0000002490+0000000009+I20000000000+0000002490+Z
121700001121700002-000740     121700006001023763945GRATER 4-WAY WHITE     0000001000+00002192+00000+0001T   00002192+0000001534          1400 DO5300               2BZ
121701000121701               121701               170213AD     1400+00000+AD0000000048+0000000048+000000000+000000007+0000000050+0000000005+I20000000000+0000000050+Z
121701001121701112-116069     121701006009681820277TCS CARRIER BAG JUMBO  0000001000+00000048+00000+0001T   00000048+0000001535          1400 DO5090               2BZ
121702000121702               121702               170213AD     1400+00000+AD0000003507+0000003507+000000000+000000491+0000003990+0000000008+I20000000000+0000003990+Z
121702001121702018-000136     121702006001023659026MUG OCC LOVE W/PLUSH   0000001000+00003507+00000+0001T   00003507+0000001536          1400 DO5515               2BZ
121703000121703               121703               170213AD     1400+00000+AD0000003945+0000003945+000000000+000000553+0000004490+0000000008+I20000000000+0000004490+Z
121703001121703084-091590     121703006003000092864FOOT FILE 17cm         0000001000+00001753+00000+0001T   00001753+0000001542          1400 DO5200               2BZ
121703002121703200-000020     121703006925406841030BAG ZIPPERSEAL 25PC    0000001000+00002192+00000+0001T   00002192+0000001542          1400 DO5214               2BZ
121704000121704               121704               170213AD     1400+00000+AD0000001314+0000001314+000000000+000000184+0000001490+0000000008+I20000000000+0000001490+Z
121704001121704903-000194     121704006009826020616SWT CHOC RP LOLLY 25G  0000001000+00001314+00000+0001T   00001314+0000001542          1400 DO5150               2BZ
121705000121705               121705               170213AD     1400+00000+AD0000000876+0000000876+000000000+000000123+0000000999+0000000000+I40000000999+0000000000+Z
121705001121705903-000295     121705006001704002899SWT MS FRUITY RASCALS  0000001000+00000876+00000+0001T   00000876+0000001549          1400 DO5150               2BZ
121706000121706               121706               170213AD     1400+00000+AD0000000876+0000000876+000000000+000000123+0000000000+0000000000+ 00000000000+0000000000+Z
121706001121706903-000482     121706006001704001397SWT SOFT-MINTS 60G     0000001000+00000876+00000+0001T   00000876+000000              1400 DO51502IC            2 Z
121707000121707               121707               170213AD     1400+00000+AD0000005700+0000005700+000000000+000000798+0000006490+0000000008+I20000000000+0000006490+Z
121707001121707046-002023-C   121707006001023698254BATTERIES ALKALN CARD-50000001000+00005700+00000+0001T   00005700+0000001554          1400 DO5312               2BZ
121708000121708               121708               170213AD     1400+00000+AD0000007892+0000007892+000000000+000001106+0000008990+0000000008+I20000000000+0000008990+Z
121708001121708082-000122-E   121708006003000405473R/GLASS STRENGTH:3     0000001000+00005262+00000+0001T   00005262+0000001609          1400 DO5160               2BZ
121708002121708567-075699     121708006003000641277BK NOVEL CATEGORY A    0000001000+00002630+00000+0001T   00003069+0008191609          1400 DO5757               2BZ
121709000121709               121709               170213AD     1400+00000+AD0000000613+0000000613+000000000+000000086+0000000690+0000000009+I20000000000+0000000690+Z
121709001121709304-001011     121709006001023806727FLWR ROSE RED W/BEAR   0000001000+00000613+00000+0001T   00000788+0006471631          1400 DO5510               2BZ
121710000121710               121710               170213AD     1400+00000+AD0000003507+0000003507+000000000+000000491+0000003990+0000000008+I20000000000+0000003990+Z
121710001121710024-000072     121710006001023849502EGG-WHISK SET-OF-3     0000001000+00003507+00000+0001T   00003507+0000001631          1400 DO5300               2BZ
121711000121711               121711               170213AD     1400+00000+AD0000001226+0000001226+000000000+000000172+0000001390+0000000008+I20000000000+0000001390+Z
121711001121711006-001000     121711006003000093779HELIUM BALLOON FILL    0000002000+00000613+00000+0001T   00000613+0000001632          1400 DO5131               2BZ
121712000121712               121712               170213AD     1400+00000+AD0000010380+0000010380+000000000+000001455+0000011830+0000000005+I20000000000+0000011830+Z
121712001121712079-105611     121712006003000249596ART+CRAFT INK PAD 1CLR 0000001000+00002630+00000+0001T   00002630+0000001633          1400 DO5130               2BZ
121712002121712079-105603     121712006003000230907ART+CRAFT STAMP ROUND  0000001000+00001578+00000+0001T   00001578+0000001633          1400 DO5130               2BZ
121712003121712071-030014     121712006003000284085PEN NVLTY METALLIC 6PC 0000001000+00002630+00000+0001T   00002630+0000001633          1400 DO5130               2BZ
121712004121712071-003023     121712006001023836120BALLPENS 10PCE MINI GEL0000001000+00003507+00000+0001T   00003507+0000001633          1400 DO5130               2BZ
121712005121712112-116038     121712006009681820246TCS CARRIER BAG MIDI   0000001000+00000035+00000+0001T   00000035+0000001633          1400 DO5090               2BZ
121713000121713               121713               170213AD     1400+00000+AD0000001490+0000001490+000000000+000000209+0000001690+0000000009+I20000000000+0000001690+Z
121713001121713002-021062     121713006001023437884T/PICKS 5OPCE SA-FLAG  0000001000+00001490+00000+0001T   00001490+0000001633          1400 DO5300               2BZ
121714000121714               121714               170213AD     1400+00000+AD0000003507+0000003507+000000000+000000491+0000003990+0000000008+I20000000000+0000003990+Z
121714001121714051-500112     121714006003000399925GARDEN KID WTR-CAN 0.6L0000001000+00003507+00000+0001T   00003507+0000001640          1400 DO5820               2BZ
121715000121715               121715               170213AD     1400+00000+AD0000009383+0000009383+000000000+000001315+0000010690+0000000008+I20000000000+0000010690+Z
121715001121715368-000180     121715006003000667932PLUSH DUCK 19cm ASSTD  0000001000+00007893+00000+0001T   00007893+0000001644          1400 DO5745               2BZ
121715002121715077-000305     121715006003000395422GIFT-BAG WINE 10X35CM  0000001000+00001490+00000+0001T   00001490+0000001644          1400 DO5112               2BZ
121716000121716               121716               170213AD     1400+00000+AD0000007453+0000007453+000000000+000001044+0000008490+0000000007+I20000000000+0000008490+Z
121716001121716077-000407     121716006003000145096G/BAG PP 19X26X8CM     0000001000+00001314+00000+0001T   00001314+0000001646          1400 DO5112               2BZ
121716002121716368-000265     121716006001023750914PLUSH BEAR 23CM ASSTD C0000001000+00006139+00000+0001T   00006139+0000001646          1400 DO5745               2BZ
121717000121717               121717               170213AD     1400+00000+AD0000001490-0000000000+000000000+000000000+0000001490-0000000000+I20000000000+0000001490-Z
121717001121717001-999909     121717000000000999909STAFF-REFRESHMENTS     0000001000-00001490+00000+0001X   00000000+0000001713          0000 DO59091IC            2 Z
121718000121718               121718               170213AD     1400+00000+AD0000002892+0000002892+000000000+000000405+0000003297+0000000000+I40000003297+0000000000+Z
121718001121718018-000127     121718006001023380289MUG OCC STRAIGHT LOVE  0000001000+00001578+00000+0001T   00001753+0006471716          1400 DO5515               2BZ
121718002121718077-000310     121718006001023608635GIFT-BAG 18X23CM GLOSS 0000001000+00001314+00000+0001T   00001314+0000001716          1400 DO5112               2BZ
121719000121719               121719               170213AD     1400+00000+AD0000001706+0000001706+000000000+000000240+0000001946+0000000000+I40000001946+0000000000+Z
121719001121719018-000177     121719006001023797513MUG MINI LOVE ASSTD    0000001000+00000700+00000+0001T   00000700+0000001719          1400 DO5515               2BZ
121719002121719077-000311     121719006001023608666GIFT-BAG 11X14CM GLOSS 0000001000+00000613+00000+0001T   00000613+0000001719          1400 DO5112               2BZ
121719003121719903-000183     121719006003000451043SWT LB HEART LOLLY     0000001000+00000393+00000+0001T   00000393+0000001719          1400 DO5150               2BZ
121720000121720               121720               170213AD     1400+00000+AD0000004121-0000004121-000000000+000000577-0000004700-0000000002+I20000000000+0000004700-Z
121720001121720001-999906     121720000000000999906STATIONERY(PHOTOCOPIES)0000001000-00004121+00000+0001T   00000000+0000001720          1400 DO59061IC            2 Z
M17021391                              CASH        ADSLAVE 2                       Z-REPORT No.   311TOTAL (Sales - Refunds)           4054.08       CASH TO BE BANKED                 2416.10       DEBIT CARDS                          0.00       CREDIT CARDS                      1576.08       Z-READING                         3992.18       AIRTIME DEBIT CARD SALES             0.00       AIRTIME CARD SALES                   0.00       OVERS/UNDERS                         0.00       AIRTIME CASH SALES                   0.00       GIFT CARDS                           0.00       GIFT CARD CASH SALES                 0.00       STAFF-REFRESHMENTS                  14.90       STATIONERY(PHOTOCOPIES)             46.98       ROUNDING                             0.02       T O T A L  CASH PAYOUTS             61.90                                                                                                                                                                                                      Z
M17021392                              CASH        ADABSENT                                                                                                                                                                                          ANNUAL LEAVE                                                                                                                                                                                    DAY OFF                                                                                                                                                                                         COMMENTS                                                                                                                                                                                                                                                                                                                                                                                       Z
Y17021300                                          AD00000000364606+000051
ZAD17021319183 SLAVE 2      SALES DATA                     NEXT INVOICE NO.  121721 0311
X AD Slave 2 First invoice 121666 170213 Last invoice 121720 170213 Next invoice 121721 Total number of records 000000180 clbackup completed 19:18:57
