130284000130284               130284               170213AD     1400+00000+AD0000133096+0000133096+000000000+000018652+0000151748+           I90000000000+0000000000+Z
130284001130284903-000510     130284006001704012621SWEET MS ZBDZ S/BERRY  0000004000+00001227+00000+0001T072958720000                    1400 1IC1501ICV             Z
130284002130284903-005000     130284006002580020007SWT CT MALLOW FISH 120g0000011000+00001314+00000+0001T072958720000                    1400 1IC1501ICV             Z
130284003130284903-000499     130284006001704012492SWT CHOC MALLOWS 50g   0000006000+00001227+00000+0001T072958720000                    1400 1IC1501ICV             Z
130284004130284903-000221     130284006001704007382SWT EENY-MEENY-MOS 60G 0000007000+00000876+00000+0001T072958720000                    1400 1IC1501ICV             Z
130284005130284903-004951     130284006002580020328SWT MALLOW MINI M/SHAKE0000011000+00001227+00000+0001T072958720000                    1400 1IC1501ICV             Z
130284006130284903-000504     130284006001704012416SWT CHOC JELLY BEANS   0000025000+00001227+00000+0001T072958720000                    1400 1IC1501ICV             Z
130284007130284903-005001     130284006002580020014SWT CT MALLOW MICE 120g0000013000+00001314+00000+0001T072958720000                    1400 1IC1501ICV             Z
130284008130284903-000482     130284006001704001397SWT SOFT-MINTS 60G     0000006000+00000876+00000+0001T072958720000                    1400 1IC1501ICV             Z
130284009130284903-005003     130284006002580020106SWT DINKY DUMMIES 5PK  0000005000+00001490+00000+0001T072958720000                    1400 1IC1501ICV             Z
130284010130284903-004952     130284006002580020052SWT FREAKY FACES 100G  0000020000+00001314+00000+0001T072958720000                    1400 1IC1501ICV             Z
130285000130285               130285               170213AD     1400+00000+AD0000126464+0000126464+000000000+000017714+0000144178+           I90000000000+0000000000+Z
130285001130285263-000193     130285006003000299126CAR TRACK PUSH & LOOP  0000001000+00004385+00000+0001T032958730000                    1400 1IC7101ICV             Z
130285002130285104-000120     130285006003000010363STORAGE UNIT 3xDRAWERS 0000001000+00008771+00000+0001T032958730000                    1400 1IC2101ICV             Z
130285003130285466-000103     130285000681070950312BALL 20cm ASSTD        0000001000+00001753+00000+0001T032958730000                    1400 1IC7851ICV             Z
130285004130285027-000027     130285006003000439355DUSTPAN SET ASSTD      0000001000+00006139+00000+0001T032958730000                    1400 1IC2121ICV             Z
130285005130285002-000097     130285006001023489784CAN-OPENER             0000001000+00006139+00000+0001T032958730000                    1400 1IC3001ICV             Z
130285006130285586-098620     130285006001492986203WATCH MENS BASIC BLK   0000001000+00012279+00000+0001T032958730000                    1400 1IC1601ICV             Z
130285007130285104-000010     130285006001023507822BASKET 30x23cm RECT.   0000001000+00001753+00000+0001T032958730000                    1400 1IC2101ICV             Z
130285008130285065-005337     130285006001023619303KEYBOARD B/O 32-KEYS   0000001000+00013157+00000+0001T032958730000                    1400 1IC7451ICV             Z
130285009130285368-000614     130285006001023705808PLUSH LOVE 30cm        0000001000+00008771+00000+0001T032958730000                    1400 1IC7451ICV             Z
130285010130285466-001021     130285005014294062007CRICKET-SET SIZE 1     0000001000+00010525+00000+0001T032958730000                    1400 1IC7851ICV             Z
130285011130285027-009025     130285006003962000747DUSTPAN-SET PL         0000001000+00002630+00000+0001T032958730000                    1400 1IC2121ICV             Z
130285012130285466-000605     130285003427000901125BALL SOC 2-PLY PANEL   0000001000+00007893+00000+0001T032958730000                    1400 1IC7851ICV             Z
130285013130285466-000560     130285006003000515448BALL RUGBY SZ-5 RUBBER 0000001000+00012279+00000+0001T032958730000                    1400 1IC7851ICV             Z
130285014130285031-000878-B   130285006001023799012P/FRAME 13x18cm PL-SLID0000001000+00001490+00000+0001T032958730000                    1400 1IC5101ICV             Z
130285015130285018-019000     130285006003000557288MUG OCC. LOVE JUMBO    0000003000+00005262+00000+0001T032958730000                    1400 1IC5151ICV             Z
130285016130285018-017000     130285006003000541850MUG OCC. MOM JUMBO ASST0000001000+00005262+00000+0001T032958730000                    1400 1IC5151ICV             Z
130285017130285903-000912     130285006009802868461SWT GUM TAPE HOT WHEELS0000001000+00001753+00000+0001T032958730000                    1400 1IC1501ICV             Z
130285018130285104-000130     130285006001023846440WASTEPAPER-BASKET  25cm0000001000+00002192+00000+0001T032958730000                    1400 1IC2101ICV             Z
130285019130285104-000180     130285006001023765758CUTLERY-TRAY PL        0000001000+00003507+00000+0001T032958730000                    1400 1IC2101ICV             Z
130286000130286               130286               170213AD     1400+00000+AD0000050978+0000050978+000000000+000007149+0000058127+           I90000000000+0000000000+Z
130286001130286006-000170-B   130286006003000608300BALLOONS 1PC L/GREEN   0000002000+00000218+00000+0001T032958740000                    1400 1IC1311ICV             Z
130286002130286006-000170-F   130286006003000608669BALLOONS 1PC WHITE     0000001000+00000218+00000+0001T032958740000                    1400 1IC1311ICV             Z
130286003130286006-000172-J   130286006003000610280BALLOONS METALLIC BLACK0000001000+00000218+00000+0001T032958740000                    1400 1IC1311ICV             Z
130286004130286006-000171-E   130286006003000609406BALLOONS 1PC BLUE PRNT 0000001000+00000218+00000+0001T032958740000                    1400 1IC1311ICV             Z
130286005130286006-000180     130286006003000610402BALLOONS BIRTHDAY ASSTD0000001000+00000876+00000+0001T032958740000                    1400 1IC1311ICV             Z
130286006130286903-000183     130286006003000451043SWT LB HEART LOLLY     0000001000+00000393+00000+0001T032958740000                    1400 1IC1501ICV             Z
130286007130286586-098616     130286006001492986166WATCH TEEN CHARM HRT   0000001000+00011402+00000+0001T032958740000                    1400 1IC1601ICV             Z
130286008130286564-000012     130286006001023130075BUBBLE BOTTLE MAGIC    0000001000+00000700+00000+0001T032958740000                    1400 1IC1311ICV             Z
130286009130286486-000001     130286006001023507969ALARM-CLOCK SQ ASS     0000001000+00002630+00000+0001T032958740000                    1400 1IC5101ICV             Z
130286010130286018-000129     130286006001023403353MUG OCC. LOVE V-SHAPE  0000001000+00002630+00000+0001T032958740000                    1400 1IC5151ICV             Z
130286011130286565-000886     130286006003000337057CRITTERS PUFFER BALLS  0000001000+00004385+00000+0001T032958740000                    1400 1IC7451ICV             Z
130286012130286105-009010     130286006002923011518STORAGE BOX 16L GLIDER 0000001000+00007893+00000+0001T032958740000                    1400 1IC2101ICV             Z
130286013130286079-009700-G   130286006003000545957PAPER SIRIO A4 LIME COL0000001000+00000306+00000+0001T032958740000                    1400 1IC1301ICV             Z
130286014130286071-003049     130286006003000589623PEN NOVELTY BALLS      0000001000+00001490+00000+0001T032958740000                    1400 1IC1301ICV             Z
130286015130286004-078900     130286006003000061655MICROPHONE O/F SWT 21cm0000001000+00004385+00000+0001T032958740000                    1400 1IC3101ICV             Z
130286016130286466-000517     130286006001023752017BALL TENNIS RED CRICKET0000002000+00001139+00000+0001T032958740000                    1400 1IC7851ICV             Z
130286017130286466-000513     130286006003000515561BALL CRICKET RUBBER    0000002000+00002630+00000+0001T032958740000                    1400 1IC7851ICV             Z
130286018130286565-000041     130286006008766115642NOVELTY BALL ICON 5.5cm0000001000+00002630+00000+0001T032958740000                    1400 1IC7451ICV             Z
130286019130286304-001601     130286006001023842374BRANCH CURVED 20PC 1.3m0000001000+00002630+00000+0001T032958740000                    1400 1IC5101ICV             Z
130287000130287               130287               170213AD     1400+00000+AD0000007672+0000007672+000000000+000001075+0000008747+           I90000000000+0000000000+Z
130287001130287174-000015     130287006003000559060LAUNDRY BAG LARGE 68x520000001000+00003069+00000+0001T032958750000                    1400 1IC2051ICV             Z
130287002130287366-000401     130287006003000242047DRESS UP PRINCESS SET  0000001000+00004385+00000+0001T032958750000                    1400 1IC1311ICV             Z
130287003130287006-000171-E   130287006003000609406BALLOONS 1PC BLUE PRNT 0000001000+00000218+00000+0001T032958750000                    1400 1IC1311ICV             Z
130288000130288               130288               170213AD     1400+00000+AD0000009022+0000009022+000000000+000001267+0000010289+           I00000000000+0000000000+Z
130288001130288016-006601     130288006001023446121S/JAR GLS MINI W/CLIP  0000001000+00001490+00000+0001T                                1400 1IC3001ICD             Z
130288002130288125-000006     130288006003000649983RIBBON-HELIUM BALLOON  0000001000+00000001+00000+0001T                                1400 1IC0911ICD             Z
130288003130288001-000169     130288006005231103302TUMBLER 240ml HI-BALL  0000001000+00000788+00000+0001T                                1400 1IC5151ICD             Z
130288004130288006-001000     130288006003000093779HELIUM BALLOON FILL    0000011000+00000613+00000+0001T                                1400 1IC1311ICD             Z
M17021391                              CASH        ADSLAVE 3                       Z-REPORT No.   298TOTAL (Sales - Refunds)              0.00       CASH TO BE BANKED                    0.00       DEBIT CARDS                          0.00       CREDIT CARDS                         0.00       Z-READING                            0.00       AIRTIME DEBIT CARD SALES             0.00       AIRTIME CARD SALES                   0.00       OVERS/UNDERS                         0.00       AIRTIME CASH SALES                   0.00       GIFT CARDS                           0.00       GIFT CARD CASH SALES                 0.00       T O T A L  CASH PAYOUTS              0.00                                                                                                                                                                                                                                                                                                                                                      Z
M17021392                              CASH        ADABSENT                                                                                                                                                                                          ANNUAL LEAVE                                                                                                                                                                                    DAY OFF                                                                                                                                                                                         COMMENTS                                                                                                                                                                                                                                                                                                                                                                                       Z
Y17021300                                          AD00000000000000+000000
ZAD17021319183 SLAVE 3      SALES DATA                     NEXT INVOICE NO.  130289 0298
F093795496-028142         1702030757140000021ICSLAVE 3
X AD Slave 3 First invoice 130284 170213 Last invoice 130288 170213 Next invoice 130289 Total number of records 000000065 clbackup completed 19:18:59
