150843000150843               150843               170213AE     1400+00000+AE0000001753+0000001753+000000000+000000246+0000001990+0000000009+I20000000000+0000001990+Z
150843001150843200-003024     150843006001023657299REFUSE BAGS 20PCE BLACK0000001000+00001753+00000+0001T   00001753+0000000907          1400 HT2214               1AZ
150844000150844               150844               170213AE     1400+00000+AE0000008806+0000008806+000000000+000001233+0000010039+0000000000+I40000010039+0000000000+Z
150844001150844567-010162     150844006003000485123BOOK TOP ASSTD NOVELS  0000001000+00008771+00000+0001T   00008771+0000000908          1400 HT2757               1AZ
150844002150844112-116038     150844006009681820246TCS CARRIER BAG MIDI   0000001000+00000035+00000+0001T   00000035+0000000908          1400 HT2090               1AZ
150845000150845               150845               170213AE     1400+00000+AE0000003507+0000003507+000000000+000000491+0000003998+0000000000+I40000003998+0000000000+Z
150845001150845031-006228     150845006003000142293P/FRAME+PLAQUE 10X15CM 0000001000+00003507+00000+0001T   00003507+0000000910          1400 HT2510               1AZ
150846000150846               150846               170213AE     1400+00000+AE0000013326+0000013326+000000000+000001868+0000015194+0000000000+I40000015194+0000000000+Z
150846001150846036-000160     150846006001023559562COATHANGERS 12PCE      0000001000+00003507+00000+0001T   00003507+0000000919          1400 HT2212               1AZ
150846002150846105-001039-B   150846006003000632596CONTAINER W/VENT 12x16 0000001000+00001753+00000+0001T   00002630+0008160919          1400 HT2210               1AZ
150846003150846072-000600     150846006003000148431PET DOG HARNESS NYLON  0000001000+00005262+00000+0001T   00005262+0000000919          1400 HT2870               1AZ
150846004150846107-002100     150846006002638001354BASIN PL 36cm          0000002000+00001402+00000+0001T   00001402+0000000919          1400 HT2210               1AZ
150847000150847               150847               170213AE     1400+00000+AE0000004385+0000004385+000000000+000000614+0000004990+0000000009+I20000000000+0000004990+Z
150847001150847089-000017     150847006003000331147KEYCHAIN MOM POLY BOX  0000001000+00004385+00000+0001T   00004385+0000000930          1400 HT2205               1AZ
150848000150848               150848               170213AE     1400+00000+AE0000018621+0000018621+000000000+000002609+0000021230+0000000000+I40000021230+0000000000+Z
150848001150848903-000897     150848008692806325207SWT CHOC DBL MINI ROLL 0000004000+00000876+00000+0001T   00000876+0000000935          1400 HT2150               1AZ
150848002150848018-000127     150848006001023380289MUG OCC STRAIGHT LOVE  0000001000+00001578+00000+0001T   00001753+0006470935          1400 HT2515               1AZ
150848003150848368-000049     150848006003000536955PLUSH BEAR 15cm LOVE   0000002000+00004385+00000+0001T   00004385+0000000935          1400 HT2745               1AZ
150848004150848077-000303     150848006001023593757GIFT-BAG PAPER MED     0000003000+00001578+00000+0001T   00001578+0000000935          1400 HT2112               1AZ
150848005150848112-116038     150848006009681820246TCS CARRIER BAG MIDI   0000001000+00000035+00000+0001T   00000035+0000000935          1400 HT2090               1AZ
150849000150849               150849               170213AE     1400+00000+AE0000001753+0000001753+000000000+000000246+0000001990+0000000009+I20000000000+0000001990+Z
150849001150849046-002032-PK2 150849004897006175063BATTERIES CR-2032  2PCE0000001000+00001753+00000+0001T   00001753+0000000946          1400 HT2312               1AZ
150850000150850               150850               170213AE     1400+00000+AE0000007011+0000007011+000000000+000000984+0000007990+0000000005+I20000000000+0000007990+Z
150850001150850903-002853     150850000000087108019MENTOS ROLL MINT       0000001000+00001051+00000+0001T   00001051+0000000955          1400 HT2150               1AZ
150850002150850903-000126     150850006002099003591SWT ZILLIONS MINT 50G  0000001000+00000700+00000+0001T   00000700+0000000955          1400 HT2150               1AZ
150850003150850306-001618     150850006003000571574INNER SOLES 2-PAIR KIDS0000001000+00002630+00000+0001T   00002630+0000000955          1400 HT2200               1AZ
150850004150850306-001622     150850006003000450091INNER SOLES 1-PAIR     0000001000+00002630+00000+0001T   00002630+0000000955          1400 HT2200               1AZ
150851000150851               150851               170213AE     1400+00000+AE0000001753+0000001753+000000000+000000246+0000001990+0000000009+I20000000000+0000001990+Z
150851001150851077-000381     150851006003000247707GIFT-BAG 25X32CM S/COL 0000001000+00001753+00000+0001T   00001753+0000000955          1400 HT2112               1AZ
150852000150852               150852               170213AE     1400+00000+AE0000003506+0000003506+000000000+000000492+0000003990+0000000008+I20000000000+0000003990+Z
150852001150852080-000119     150852006003000237432CARD & ENVELOPE-BABY   0000001000+00001753+00000+0001T   00001753+0000001002          1400 HT2112               1AZ
150852002150852077-000330     150852006001023745408GIFT-BAG 18X23CM WEDGE 0000001000+00001753+00000+0001T   00001753+0000001002          1400 HT2112               1AZ
150853000150853               150853               170213AE     1400+00000+AE0000001753+0000001753+000000000+000000246+0000001990+0000000009+I20000000000+0000001990+Z
150853001150853159-000677     150853006001023729729BATH SPONGE RND 11CM   0000001000+00001753+00000+0001T   00001753+0000001014          1400 HT2200               1AZ
150854000150854               150854               170213AE     1400+00000+AE0000022405+0000022405+000000000+000003139+0000025544+0000000000+I40000025544+0000000000+Z
150854001150854566-000041     150854006003000265701SCRAPBOOK ALBUM 10PCKTS0000001000+00007893+00000+0001T   00007893+0000001019          1400 HT2130               1AZ
150854002150854079-003020     150854006003000662944PAINT ACRYLIC SET TUBE 0000001000+00005262+00000+0001T   00005262+0000001019          1400 HT2130               1AZ
150854003150854566-000052     150854006003000275656SCRAPBOOK SLEEVE 10PCE 0000001000+00001753+00000+0001T   00001753+0000001019          1400 HT2130               1AZ
150854004150854566-000317     150854006003000524204STICKER TAPE 2PCS      0000001000+00003507+00000+0001T   00003507+0000001019          1400 HT2130               1AZ
150854005150854566-000013     150854006001023888952S/BOOK CORNERS GLITTER 0000003000+00001314+00000+0001T   00001753+0008151019          1400 HT2130               1AZ
150854006150854112-116069     150854006009681820277TCS CARRIER BAG JUMBO  0000001000+00000048+00000+0001T   00000048+0000001019          1400 HT2090               1AZ
150855000150855               150855               170213AE     1400+00000+AE0000000876+0000000876+000000000+000000123+0000000990+0000000009+I20000000000+0000000990+Z
150855001150855903-000123     150855006925925909280SWEET GS MINI MALLOWS  0000001000+00000876+00000+0001T   00000876+0000001019          1400 HT2150               1AZ
150856000150856               150856               170213AE     1400+00000+AE0000013203+0000013203+000000000+000001849+0000015052+0000000000+I40000015052+0000000000+Z
150856001150856463-000147     150856006003000660094WATER BLASTER TUBE ASTD0000001000+00004385+00000+0001T   00004385+0000001022          1400 HT2785               1AZ
150856002150856036-000405     150856006001023630247CLOTHES DRYER PL 18-PEG0000002000+00004385+00000+0001T   00004385+0000001022          1400 HT2212               1AZ
150856003150856112-116069     150856006009681820277TCS CARRIER BAG JUMBO  0000001000+00000048+00000+0001T   00000048+0000001022          1400 HT2090               1AZ
150857000150857               150857               170213AE     1400+00000+AE0000000437+0000000437+000000000+000000062+0000000490+0000000009+I20000000000+0000000490+Z
150857001150857083-000049     150857004891035200024CIG-LIGHTER DISPOSABLE 0000001000+00000437+00000+0001T   00000437+0000001022          1400 HT2315               1AZ
150858000150858               150858               170213AE     1400+00000+AE0000007927+0000007927+000000000+000001110+0000009030+0000000007+I20000000000+0000009030+Z
150858001150858039-080944     150858006001023758897C/PILLAR RND WHT 12X7CM0000001000+00004385+00000+0001T   00004385+0000001025          1400 HT2510               1AZ
150858002150858040-100010     150858006001023681676C/HOLDER VINTAGE ROUND 0000001000+00003507+00000+0001T   00003507+0000001025          1400 HT2510               1AZ
150858003150858112-116038     150858006009681820246TCS CARRIER BAG MIDI   0000001000+00000035+00000+0001T   00000035+0000001025          1400 HT2090               1AZ
150859000150859               150859               170213AE     1400+00000+AE0000006840+0000006840+000000000+000000958+0000007790+0000000008+I20000000000+0000007790+Z
150859001150859104-000052     150859006003000450787BASKET PL 23x8x13cm    0000001000+00002455+00000+0001T   00002455+0000001047          1400 HT2210               1AZ
150859002150859107-003102     150859006002580007657BASIN  34X48X16cm OVAL 0000001000+00004385+00000+0001T   00004385+0000001047          1400 HT2210               1AZ
150860000150860               150860               170213AE     1400+00000+AE0000001578+0000001578+000000000+000000221+0000001790+0000000009+I20000000000+0000001790+Z
150860001150860080-000124     150860006003000297733CARD & ENV VALENTINES  0000001000+00001578+00000+0001T   00001578+0000001055          1400 HT2112               1AZ
150861000150861               150861               170213AE     1400+00000+AE0000003554+0000003554+000000000+000000499+0000004050+0000000003+I20000000000+0000004050+Z
150861001150861077-000290     150861006001023902023GIFT BOX 26x32x13cm    0000001000+00001753+00000+0001T   00001753+0000001059          1400 HT2112               1AZ
150861002150861080-000119     150861006003000237432CARD & ENVELOPE-BABY   0000001000+00001753+00000+0001T   00001753+0000001059          1400 HT2112               1AZ
150861003150861112-116069     150861006009681820277TCS CARRIER BAG JUMBO  0000001000+00000048+00000+0001T   00000048+0000001059          1400 HT2090               1AZ
150862000150862               150862               170213AE     1400+00000+AE0000002630+0000002630+000000000+000000369+0000002990+0000000009+I20000000000+0000002990+Z
150862001150862105-007014     150862006003000593606CONTAINER CLEAR 1L     0000001000+00002630+00000+0001T   00003507+0008171120          1400 HT2210               1AZ
150863000150863               150863               170213AE     1400+00000+AE0000000788+0000000788+000000000+000000111+0000000890+0000000009+I20000000000+0000000890+Z
150863001150863903-000137     150863006002099004130SWEET GS JELLY BEAN 60G0000001000+00000788+00000+0001T   00000788+0000001132          1400 HT2150               1AZ
150864000150864               150864               170213AE     1400+00000+AE0000007188+0000007188+000000000+000001008+0000008190+0000000006+I20000000000+0000008190+Z
150864001150864903-000843     150864008693029031067SWT GUMMY JELAXY 80G   0000002000+00000964+00000+0001T   00000964+0000001136          1400 HT2150               1AZ
150864002150864466-000584     150864006001023628787SKIPPING-ROPE          0000002000+00002630+00000+0001T   00002630+0000001136          1400 HT2785               1AZ
150865000150865               150865               170213AE     1400+00000+AE0000001753+0000001753+000000000+000000246+0000001990+0000000009+I20000000000+0000001990+Z
150865001150865133-000012     150865006001023561084CLEANING-CLOTH GREEN   0000001000+00001753+00000+0001T   00001753+0000001137          1400 HT2212               1AZ
150866000150866               150866               170213AE     1400+00000+AE0000013590+0000013590+000000000+000001905+0000015490+0000000005+I20000000000+0000015490+Z
150866001150866037-000012     150866006003000556526ASHTRAY ROUND S/STEEL  0000003000+00002630+00000+0001T   00002630+0000001141          1400 HT2515               1AZ
150866002150866002-000653     150866006003000569960M/SPOONS WDN 25+31+35cm0000001000+00005700+00000+0001T   00005700+0000001141          1400 HT2300               1AZ
150867000150867               150867               170213AE     1400+00000+AE0000004385+0000004385+000000000+000000614+0000004990+0000000009+I20000000000+0000004990+Z
150867001150867103-000460     150867006003000630240BAMBOO FLOWER BASKET   0000001000+00004385+00000+0001T   00004385+0000001151          1400 HT2300               1AZ
150868000150868               150868               170213AE     1400+00000+AE0000020037+0000020037+000000000+000002809+0000022846+0000000000+I40000022846+0000000000+Z
150868001150868023-003000     150868006003000142910F/PAN ALUM 20X3.9 H/H  0000001000+00007893+00000+0001T   00010525+0008121156          1400 HT2300               1AZ
150868002150868491-059642     150868000078257596423INTEX ARMBAND 6-12YRS  0000001000+00001753+00000+0001T   00001753+0000001156          1400 HT2787               1AZ
150868003150868079-011526     150868006003000408375GLITTER & SAND ART     0000001000+00003507+00000+0001T   00003507+0000001156          1400 HT2130               1AZ
150868004150868564-000012     150868006001023130075BUBBLE BOTTLE MAGIC    0000001000+00000700+00000+0001T   00000700+0000001156          1400 HT2131               1AZ
150868005150868002-000652     150868006001023553188M/SPOON WDN 3PC H/HOUSE0000001000+00003069+00000+0001T   00003069+0000001156          1400 HT2300               1AZ
150868006150868463-000366     150868006001023789136SWIM W/NOODLE 150cm    0000001000+00002630+00000+0001T   00002630+0000001156          1400 HT2785               1AZ
150868007150868112-116069     150868006009681820277TCS CARRIER BAG JUMBO  0000001000+00000048+00000+0001T   00000048+0000001156          1400 HT2090               1AZ
150868008150868083-000049     150868004891035200024CIG-LIGHTER DISPOSABLE 0000001000+00000437+00000+0001T   00000437+0000001156          1400 HT2315               1AZ
150869000150869               150869               170213AE     1400+00000+AE0000003506+0000003506+000000000+000000492+0000003990+0000000008+I20000000000+0000003990+Z
150869001150869565-000888     150869006003000607846NOVELTY MESH BALL      0000002000+00001753+00000+0001T   00001753+0000001157          1400 HT2745               1AZ
150870000150870               150870               170213AE     1400+00000+AE0000000002-0000000002-000000000+000000000+0000000010-0000000008+I20000000000+0000000010-Z
150870001150870103-000460     150870006003000630240BAMBOO FLOWER BASKET   0000001000-00004385+00000+0001T   00004385+0000001159          1400 HT23002IC            1 Z
150870002150870103-000472     150870006003000631049FLOWER BASKET W/HANDLE 0000001000+00003507+00000+0001T   00003507+0000001159          1400 HT2300               1 Z
150870003150870077-000151     150870006008766114676GIFT-WRAP C/PHANE ASSTD0000001000+00000876+00000+0001T   00000876+0000001159          1400 HT2112               1 Z
150871000150871               150871               170213AE     1400+00000+AE0000004419+0000004419+000000000+000000619+0000005030+0000000008+I20000000000+0000005030+Z
150871001150871018-000170     150871006001023775528MUG OCC. LOVE 2PC MINI 0000001000+00002192+00000+0001T   00002192+0000001201          1400 HT2515               1AZ
150871002150871566-000359     150871006003000582709STICKER BOOK LOVE SPARK0000001000+00002192+00000+0001T   00002192+0000001201          1400 HT2130               1AZ
150871003150871112-116038     150871006009681820246TCS CARRIER BAG MIDI   0000001000+00000035+00000+0001T   00000035+0000001201          1400 HT2090               1AZ
150872000150872               150872               170213AE     1400+00000+AE0000005260+0000005260+000000000+000000737+0000005997+0000000000+I40000005997+0000000000+Z
150872001150872036-000160     150872006001023559562COATHANGERS 12PCE      0000001000+00003507+00000+0001T   00003507+0000001204          1400 HT2212               1AZ
150872002150872036-000063     150872006009654960436COATHANGERS VIRGIN 5PCE0000001000+00001753+00000+0001T   00001753+0000001204          1400 HT2212               1AZ
150873000150873               150873               170213AE     1400+00000+AE0000004418+0000004418+000000000+000000619+0000005030+0000000007+I20000000000+0000005030+Z
150873001150873089-060027     150873006003000245871KEY-CHAIN HEART 6X6cm  0000001000+00003069+00000+0001T   00003069+0000001205          1400 HT2205               1AZ
150873002150873903-000194     150873006009826020616SWT CHOC RP LOLLY 25G  0000001000+00001314+00000+0001T   00001314+0000001205          1400 HT2150               1AZ
150873003150873112-116038     150873006009681820246TCS CARRIER BAG MIDI   0000001000+00000035+00000+0001T   00000035+0000001205          1400 HT2090               1AZ
150874000150874               150874               170213AE     1400+00000+AE0000001227+0000001227+000000000+000000172+0000001390+0000000009+I20000000000+0000001390+Z
150874001150874077-000322     150874006001023677532GIFT-BAG 18X23CM E/D FL0000001000+00001227+00000+0001T   00001227+0000001209          1400 HT2112               1AZ
150875000150875               150875               170213AE     1400+00000+AE0000003069+0000003069+000000000+000000430+0000003490+0000000009+I20000000000+0000003490+Z
150875001150875089-000005     150875006003000094806KEY CHAIN CARDS MTL    0000001000+00003069+00000+0001T   00003069+0000001345          1400 HT2205               1AZ
150876000150876               150876               170213AE     1400+00000+AE0000001578+0000001578+000000000+000000221+0000001790+0000000009+I20000000000+0000001790+Z
150876001150876018-000127     150876006001023380289MUG OCC STRAIGHT LOVE  0000001000+00001578+00000+0001T   00001753+0006471354          1400 HT2515               1AZ
150877000150877               150877               170213AE     1400+00000+AE0000000788+0000000788+000000000+000000111+0000000890+0000000009+I20000000000+0000000890+Z
150877001150877903-000200     150877006009826020234SWT CHOC RP CHOCO 23G  0000001000+00000788+00000+0001T   00000788+0000001355          1400 HT2150               1AZ
150878000150878               150878               170213AE     1400+00000+AE0000003153+0000003153+000000000+000000444+0000003597+0000000000+I40000003597+0000000000+Z
150878001150878079-009702-D   150878008427973059354PAPER SIRIO A2 RED COL 0000002000+00001051+00000+0001T   00001051+0000001357          1400 HT2130               1AZ
150878002150878079-009702-B   150878008427973059491PAPER SIRIO A2 WHITE   0000001000+00001051+00000+0001T   00001051+0000001357          1400 HT2130               1AZ
150879000150879               150879               170213AE     1400+00000+AE0000001753+0000001753+000000000+000000246+0000001999+0000000000+I40000001999+0000000000+Z
150879001150879007-000551     150879006001023848079NOTE-PAD SHOP-LIST ASST0000001000+00001753+00000+0001T   00001753+0000001359          1400 HT2130               1AZ
150880000150880               150880               170213AE     1400+00000+AE0000001314+0000001314+000000000+000000184+0000001490+0000000008+I20000000000+0000001490+Z
150880001150880107-004105     150880006009703860984BUCKET 9L OPEN         0000001000+00001314+00000+0001T   00001314+0000001403          1400 HT2210               1AZ
150881000150881               150881               170213AE     1400+00000+AE0000003155+0000003155+000000000+000000443+0000003590+0000000008+I20000000000+0000003590+Z
150881001150881304-001204     150881006001023737984FLOWER OCC. TEDDY/ROSES0000001000+00001402+00000+0001T   00001490+0006471408          1400 HT2510               1AZ
150881002150881039-001023     150881006003000466337CANDLE TEA-LITE METALIC0000001000+00001753+00000+0001T   00001753+0000001408          1400 HT2510               1AZ
150882000150882               150882               170213AE     1400+00000+AE0000002628+0000002628+000000000+000000368+0000002990+0000000006+I20000000000+0000002990+Z
150882001150882107-004105     150882006009703860984BUCKET 9L OPEN         0000002000+00001314+00000+0001T   00001314+0000001415          1400 HT2210               1AZ
150883000150883               150883               170213AE     1400+00000+AE0000017014+0000017014+000000000+000002389+0000019403+0000000000+I40000019403+0000000000+Z
150883001150883079-000807     150883006003000670277ART+CRAFT WOODEN STICKS0000001000+00001490+00000+0001T   00001490+0000001420          1400 HT2130               1AZ
150883002150883105-006955     150883006003000685325CONTAINER CLEAR BASE 8L0000001000+00003507+00000+0001T   00003507+0000001420          1400 HT2210               1AZ
150883003150883079-009700-F   150883006003000545872PAPER SIRIO A4 TURQ COL0000013000+00000306+00000+0001T   00000306+0000001420          1400 HT2130               1AZ
150883004150883079-009700-H   150883006003000546039PAPER SIRIO A4 EARTH   0000013000+00000306+00000+0001T   00000306+0000001420          1400 HT2130               1AZ
150883005150883079-009700-G   150883006003000545957PAPER SIRIO A4 LIME COL0000013000+00000306+00000+0001T   00000306+0000001420          1400 HT2130               1AZ
150883006150883112-116069     150883006009681820277TCS CARRIER BAG JUMBO  0000001000+00000048+00000+0001T   00000048+0000001420          1400 HT2090               1AZ
150883007150883112-116038     150883006009681820246TCS CARRIER BAG MIDI   0000001000+00000035+00000+0001T   00000035+0000001420          1400 HT2090               1AZ
150884000150884               150884               170213AE     1400+00000+AE0000004207+0000004207+000000000+000000590+0000004790+0000000007+I20000000000+0000004790+Z
150884001150884077-000299     150884006003000395576G/BAG 32x25cm LRG LOVE 0000002000+00001490+00000+0001T   00001490+0000001421          1400 HT2112               1AZ
150884002150884903-000519     150884006001704012805SWT MS LIQ-O-GHETTI    0000001000+00001227+00000+0001T   00001227+0000001421          1400 HT2150               1AZ
150885000150885               150885               170213AE     1400+00000+AE0000002663+0000002663+000000000+000000373+0000003036+0000000000+I40000003036+0000000000+Z
150885001150885584-002041     150885006003000241934ASSORTED CARTOON DVD   0000002000+00001314+00000+0001T   00001314+0000001432          1400 HT2310               1AZ
150885002150885112-116038     150885006009681820246TCS CARRIER BAG MIDI   0000001000+00000035+00000+0001T   00000035+0000001432          1400 HT2090               1AZ
150886000150886               150886               170213AE     1400+00000+AE0000002192+0000002192+000000000+000000307+0000002499+0000000000+I40000002499+0000000000+Z
150886001150886080-000139     150886006003000611690CARD & ENV MINI SET 6PC0000001000+00002192+00000+0001T   00002192+0000001433          1400 HT2112               1AZ
150887000150887               150887               170213AE     1400+00000+AE0000004385+0000004385+000000000+000000614+0000004999+0000000000+I40000004999+0000000000+Z
150887001150887368-000049     150887006003000536955PLUSH BEAR 15cm LOVE   0000001000+00004385+00000+0001T   00004385+0000001437          1400 HT2745               1AZ
150888000150888               150888               170213AE     1400+00000+AE0000005262+0000005262+000000000+000000737+0000005999+0000000000+I40000005999+0000000000+Z
150888001150888158-000167     150888006003000569588WASTEPAPER-BASKET 26cm 0000001000+00005262+00000+0001T   00005262+0000001439          1400 HT2300               1AZ
150889000150889               150889               170213AE     1400+00000+AE0000004675+0000004675+000000000+000000656+0000005330+0000000001+I20000000000+0000005330+Z
150889001150889563-000318-L   150889006003000407088SERVIETTES 33cm RED    0000001000+00002192+00000+0001T   00002192+0000001440          1400 HT2214               1AZ
150889002150889079-009700-D   150889006003000545711PAPER SIRIO A4 RED COL.0000008000+00000306+00000+0001T   00000306+0000001440          1400 HT2130               1AZ
150889003150889112-116038     150889006009681820246TCS CARRIER BAG MIDI   0000001000+00000035+00000+0001T   00000035+0000001440          1400 HT2090               1AZ
150890000150890               150890               170213AE     1400+00000+AE0000004384+0000004384+000000000+000000614+0000004998+0000000000+I40000004998+0000000000+Z
150890001150890080-000127     150890006003000424351VALENTINES DAY 36x24CM 0000002000+00002192+00000+0001T   00002192+0000001454          1400 HT2112               1AZ
150891000150891               150891               170213AE     1400+00000+AE0000003507+0000003507+000000000+000000491+0000003998+0000000000+I40000003998+0000000000+Z
150891001150891031-000844     150891006001023851789P/FRAME WDN WORDS 2ASS 0000001000+00003507+00000+0001T   00003507+0000001457          1400 HT2510               1AZ
150892000150892               150892               170213AE     1400+00000+AE0000003417+0000003417+000000000+000000480+0000003897+0000000000+I40000003897+0000000000+Z
150892001150892903-000518     150892006001704012782SWT STRAWS S/BERRY 100g0000001000+00001227+00000+0001T   00001227+0000001501          1400 HT2150               1AZ
150892002150892903-000094     150892006923431501622SWT GS CANDY NECKLACE  0000001000+00000437+00000+0001T   00000437+0000001501          1400 HT2150               1AZ
150892003150892565-000888     150892006003000607846NOVELTY MESH BALL      0000001000+00001753+00000+0001T   00001753+0000001501          1400 HT2745               1AZ
150893000150893               150893               170213AE     1400+00000+AE0000001435+0000001435+000000000+000000201+0000001630+0000000006+I20000000000+0000001630+Z
150893001150893018-000177     150893006001023797513MUG MINI LOVE ASSTD    0000002000+00000700+00000+0001T   00000700+0000001502          1400 HT2515               1AZ
150893002150893112-116038     150893006009681820246TCS CARRIER BAG MIDI   0000001000+00000035+00000+0001T   00000035+0000001502          1400 HT2090               1AZ
150894000150894               150894               170213AE     1400+00000+AE0000009680+0000009680+000000000+000001357+0000011037+0000000000+I40000011037+0000000000+Z
150894001150894080-000113     150894006003000237449CARD&ENVLPE - LOVE     0000001000+00001753+00000+0001T   00001753+0000001504          1400 HT2112               1AZ
150894002150894368-000265     150894006001023750914PLUSH BEAR 23CM ASSTD C0000001000+00006139+00000+0001T   00006139+0000001504          1400 HT2745               1AZ
150894003150894077-000309     150894006001023608604GIFT-BAG 25X32CM GLOSS 0000001000+00001753+00000+0001T   00001753+0000001504          1400 HT2112               1AZ
150894004150894112-116038     150894006009681820246TCS CARRIER BAG MIDI   0000001000+00000035+00000+0001T   00000035+0000001504          1400 HT2090               1AZ
150895000150895               150895               170213AE     1400+00000+AE0000008770+0000008770+000000000+000001228+0000009990+0000000008+I20000000000+0000009990+Z
150895001150895368-000049     150895006003000536955PLUSH BEAR 15cm LOVE   0000001000+00004385+00000+0001T   00004385+0000001505          1400 HT2745               1AZ
150895002150895162-097710     150895006001492977102#TAG NECKLACE 2PK      0000001000+00004385+00000+0001T   00004385+0000001505          1400 HT2160               1AZ
150896000150896               150896               170213AE     1400+00000+AE0000007015+0000007015+000000000+000000983+0000007990+0000000008+I20000000000+0000007990+Z
150896002150896565-000888     150896006003000607846NOVELTY MESH BALL      0000001000+00001753+00000+0001T   00001753+0000001507          1400 HT2745               1AZ
150896003150896368-000053     150896006003000633449PLUSH BEAR 15.5cm MUM  0000001000+00005262+00000+0001T   00005262+0000001507          1400 HT2745               1AZ
150897000150897               150897               170213AE     1400+00000+AE0000001314+0000001314+000000000+000000184+0000001490+0000000008+I20000000000+0000001490+Z
150897001150897903-000194     150897006009826020616SWT CHOC RP LOLLY 25G  0000001000+00001314+00000+0001T   00001314+0000001508          1400 HT2150               1AZ
150898000150898               150898               170213AE     1400+00000+AE0000005259+0000005259+000000000+000000738+0000005990+0000000007+I20000000000+0000005990+Z
150898001150898004-071308     150898006001023640833HOLDER DISC ASSTC-C PK50000003000+00001753+00000+0001T   00002630+0008191510          1400 HT2310               1AZ
150899000150899               150899               170213AE     1400+00000+AE0000010559+0000010559+000000000+000001479+0000012038+0000000000+I40000012038+0000000000+Z
150899001150899001-091415     150899006003000329113W/GLS OCC. LOVE 2PC 2800000001000+00008771+00000+0001T   00009648+0006471514          1400 HT2515               1AZ
150899002150899089-000027     150899006003000254071KEY CHAIN MOM/DAD ASSTD0000001000+00001753+00000+0001T   00001753+0000001514          1400 HT2205               1AZ
150899003150899112-116038     150899006009681820246TCS CARRIER BAG MIDI   0000001000+00000035+00000+0001T   00000035+0000001514          1400 HT2090               1AZ
150900000150900               150900               170213AE     1400+00000+AE0000002664+0000002664+000000000+000000374+0000003038+0000000000+I40000003038+0000000000+Z
150900001150900077-000381     150900006003000247707GIFT-BAG 25X32CM S/COL 0000001000+00001753+00000+0001T   00001753+0000001516          1400 HT2112               1AZ
150900002150900077-000011-D   150900006001023808554TISSUE-WRAP WHITE 10PCE0000001000+00000876+00000+0001T   00000876+0000001516          1400 HT2112               1AZ
150900003150900112-116038     150900006009681820246TCS CARRIER BAG MIDI   0000001000+00000035+00000+0001T   00000035+0000001516          1400 HT2090               1AZ
150901000150901               150901               170213AE     1400+00000+AE0000005555+0000005555+000000000+000000780+0000006330+0000000005+I20000000000+0000006330+Z
150901001150901903-000591     150901006003000563616SWEET ANIMAL 24cm      0000001000+00002630+00000+0001T   00002630+0000001518          1400 HT2150               1AZ
150901002150901903-000094     150901006923431501622SWT GS CANDY NECKLACE  0000001000+00000437+00000+0001T   00000437+0000001518          1400 HT2150               1AZ
150901003150901903-000159     150901006003000417629SWT LB SMALL DUMMIE    0000001000+00000350+00000+0001T   00000350+0000001518          1400 HT2150               1AZ
150901004150901018-000127     150901006001023380289MUG OCC STRAIGHT LOVE  0000001000+00001578+00000+0001T   00001753+0006471518          1400 HT2515               1AZ
150901005150901112-116038     150901006009681820246TCS CARRIER BAG MIDI   0000001000+00000035+00000+0001T   00000035+0000001518          1400 HT2090               1AZ
150901006150901903-000151     150901006009803374411SWT SML RND R/BOW LOLLY0000001000+00000525+00000+0001T   00000525+0000001518          1400 HT2150               1AZ
150902000150902               150902               170213AE     1400+00000+AE0000002630+0000002630+000000000+000000369+0000002990+0000000009+I20000000000+0000002990+Z
150902001150902361-003009     150902006003000210442DOLL BABY BENDABLE 3PCE0000001000+00002630+00000+0001T   00002630+0000001519          1400 HT2725               1AZ
150903000150903               150903               170213AE     1400+00000+AE0000002630+0000002630+000000000+000000369+0000002990+0000000009+I20000000000+0000002990+Z
150903001150903077-000270     150903006003000395453GIFT-BAG PPR JMB 33X45 0000001000+00002630+00000+0001T   00002630+0000001524          1400 HT2112               1AZ
150904000150904               150904               170213AE     1400+00000+AE0000001578+0000001578+000000000+000000221+0000001790+0000000009+I20000000000+0000001790+Z
150904001150904018-000127     150904006001023380289MUG OCC STRAIGHT LOVE  0000001000+00001578+00000+0001T   00001753+0006471528          1400 HT2515               1AZ
150905000150905               150905               170213AE     1400+00000+AE0000001578+0000001578+000000000+000000221+0000001790+0000000009+I20000000000+0000001790+Z
150905001150905077-000303     150905006001023593757GIFT-BAG PAPER MED     0000001000+00001578+00000+0001T   00001578+0000001528          1400 HT2112               1AZ
150906000150906               150906               170213AE     1400+00000+AE0000001753+0000001753+000000000+000000246+0000001990+0000000009+I20000000000+0000001990+Z
150906001150906051-002406     150906006003000139415SPRAY PL TRIGGER 700ml 0000001000+00001753+00000+0001T   00001753+0000001529          1400 HT2820               1AZ
150907000150907               150907               170213AE     1400+00000+AE0000001753+0000001753+000000000+000000246+0000001990+0000000009+I20000000000+0000001990+Z
150907001150907080-000113     150907006003000237449CARD&ENVLPE - LOVE     0000001000+00001753+00000+0001T   00001753+0000001533          1400 HT2112               1AZ
150908000150908               150908               170213AE     1400+00000+AE0000005872+0000005872+000000000+000000824+0000006696+0000000000+I40000006696+0000000000+Z
150908001150908079-009702-G   150908008427973060787PAPER SIRIO A2 FUSHIA  0000001000+00001051+00000+0001T   00001051+0000001536          1400 HT2130               1AZ
150908002150908027-783002     150908006001023874658SCOURERS FOAM PACK OF 30000001000+00001490+00000+0001T   00001490+0000001536          1400 HT2212               1AZ
150908003150908079-013032-J   150908006003000542710A&C DIY COLOUR P/FLOWER0000001000+00001753+00000+0001T   00001753+0000001536          1400 HT2130               1AZ
150908004150908079-013032-C   150908006003000389520POLY SHAPES            0000001000+00001578+00000+0001T   00001578+0000001536          1400 HT2130               1AZ
150909000150909               150909               170213AE     1400+00000+AE0000005262+0000005262+000000000+000000737+0000005990+0000000009+I20000000000+0000005990+Z
150909001150909031-000870-B   150909006001023798657P/FRAME WOOD WHITE-PINE0000001000+00005262+00000+0001T   00005262+0000001536          1400 HT2510               1AZ
150910000150910               150910               170213AE     1400+00000+AE0000001578+0000001578+000000000+000000221+0000001790+0000000009+I20000000000+0000001790+Z
150910001150910077-000303     150910006001023593757GIFT-BAG PAPER MED     0000001000+00001578+00000+0001T   00001578+0000001537          1400 HT2112               1AZ
150911000150911               150911               170213AE     1400+00000+AE0000010525+0000010525+000000000+000001474+0000011999+0000000000+I40000011999+0000000000+Z
150911001150911486-001003     150911006003000100798CLOCK WALL ROUND 32CM  0000001000+00010525+00000+0001T   00010525+0000001538          1400 HT2510               1AZ
150912000150912               150912               170213AE     1400+00000+AE0000002630+0000002630+000000000+000000369+0000002990+0000000009+I20000000000+0000002990+Z
150912001150912080-000137     150912006003000589159CARD & ENV GIANT FEMALE0000001000+00002630+00000+0001T   00002630+0000001539          1400 HT2112               1AZ
150913000150913               150913               170213AE     1400+00000+AE0000011006+0000011006+000000000+000001544+0000012550+0000000000+I40000012550+0000000000+Z
150913001150913028-000899     150913006001023509932BBQ-GRILL-CLEANER LONG 0000001000+00002630+00000+0001T   00002630+0000001541          1400 HT2305               1AZ
150913002150913028-000907     150913006001023459626BBQ GRILL-CLEANER      0000001000+00002192+00000+0001T   00002192+0000001541          1400 HT2305               1AZ
150913003150913251-000074     150913006003000452255PROTECTION-PADS BLK ADH0000001000+00001753+00000+0001T   00001753+0000001541          1400 HT2810               1AZ
150913004150913159-000040     150913006001023767691HOOK-HANGER 4PC S/S    0000001000+00002630+00000+0001T   00002630+0000001541          1400 HT2200               1AZ
150913005150913251-000070     150913006003000451777PROTECTION-PADS BLK ADH0000001000+00001753+00000+0001T   00001753+0000001541          1400 HT2810               1AZ
150913006150913112-116069     150913006009681820277TCS CARRIER BAG JUMBO  0000001000+00000048+00000+0001T   00000048+0000001541          1400 HT2090               1AZ
150914000150914               150914               170213AE     1400+00000+AE0000002980+0000002980+000000000+000000418+0000003390+0000000008+I20000000000+0000003390+Z
150914001150914077-000299     150914006003000395576G/BAG 32x25cm LRG LOVE 0000002000+00001490+00000+0001T   00001490+0000001547          1400 HT2112               1AZ
150915000150915               150915               170213AE     1400+00000+AE0000003980+0000003980+000000000+000000558+0000004538+0000000000+I40000004538+0000000000+Z
150915001150915200-000020     150915006925406841030BAG ZIPPERSEAL 25PC    0000001000+00002192+00000+0001T   00002192+0000001548          1400 HT2214               1AZ
150915002150915200-000305     150915006003000622467FOOD OVEN ROASTING BAGS0000001000+00001753+00000+0001T   00002630+0008171548          1400 HT2214               1AZ
150915003150915112-116038     150915006009681820246TCS CARRIER BAG MIDI   0000001000+00000035+00000+0001T   00000035+0000001548          1400 HT2090               1AZ
150916000150916               150916               170213AE     1400+00000+AE0000004031+0000004031+000000000+000000565+0000004590+0000000006+I20000000000+0000004590+Z
150916001150916562-000011     150916006003000600984PLAY DOUGH NEON TUBE   0000001000+00003507+00000+0001T   00003507+0000001549          1400 HT2755               1AZ
150916002150916903-000099     150916006923431501646SWT CANDY GS WTCH B/LET0000002000+00000262+00000+0001T   00000262+0000001549          1400 HT2150               1AZ
150917000150917               150917               170213AE     1400+00000+AE0000014468+0000014468+000000000+000002027+0000016495+0000000000+I40000016495+0000000000+Z
150917001150917031-000864-A   150917006001023798350P/FRAME MAHOGANY 10X15 0000001000+00003069+00000+0001T   00003069+0000001551          1400 HT2510               1AZ
150917002150917017-000200     150917006003000238965PRINTED ASSTD 100-PHOTO0000001000+00003507+00000+0001T   00003507+0000001551          1400 HT2510               1AZ
150917003150917031-000864-C   150917006001023798411P/FRAME MAHOGANY 20X25 0000001000+00005262+00000+0001T   00005262+0000001551          1400 HT2510               1AZ
150917004150917077-000388     150917006003000421671G/BAG 25X32CM VALUE PCK0000001000+00002630+00000+0001T   00002630+0000001551          1400 HT2112               1AZ
150918000150918               150918               170213AE     1400+00000+AE0000002191+0000002191+000000000+000000307+0000002490+0000000008+I20000000000+0000002490+Z
150918001150918077-000317     150918006001023609748GIFT-BAG 11X14CM E/D AN0000001000+00000613+00000+0001T   00000613+0000001553          1400 HT2112               1AZ
150918002150918077-000303     150918006001023593757GIFT-BAG PAPER MED     0000001000+00001578+00000+0001T   00001578+0000001553          1400 HT2112               1AZ
150919000150919               150919               170213AE     1400+00000+AE0000001753+0000001753+000000000+000000246+0000001990+0000000009+I20000000000+0000001990+Z
150919001150919080-000111     150919006003000252695CARD&ENVELPE - MUSICAL 0000001000+00001753+00000+0001T   00001753+0000001625          1400 HT2112               1AZ
150920000150920               150920               170213AE     1400+00000+AE0000001400+0000001400+000000000+000000196+0000001590+0000000006+I20000000000+0000001590+Z
150920001150920018-000177     150920006001023797513MUG MINI LOVE ASSTD    0000002000+00000700+00000+0001T   00000700+0000001626          1400 HT2515               1AZ
150921000150921               150921               170213AE     1400+00000+AE0000003243+0000003243+000000000+000000455+0000003690+0000000008+I20000000000+0000003690+Z
150921001150921055-009254     150921006001023527073PICTURE-HOOK+PINS 5PCE 0000001000+00001490+00000+0001T   00001490+0000001643          1400 HT2810               1AZ
150921002150921080-000113     150921006003000237449CARD&ENVLPE - LOVE     0000001000+00001753+00000+0001T   00001753+0000001643          1400 HT2112               1AZ
150922000150922               150922               170213AE     1400+00000+AE0000019600+0000019600+000000000+000002747+0000022347+0000000000+I40000022347+0000000000+Z
150922001150922162-093291     150922006001492932910#TAG GOLD METAL NK     0000001000+00006139+00000+0001T   00006139+0000001648          1400 HT2160               1AZ
150922002150922366-002460     150922006003000166794S/FASION CROCHET 1.9m  0000001000+00001753+00000+0001T   00001753+0000001648          1400 HT2131               1AZ
150922003150922566-000064     150922006001023689702STICKERS GLITTER BORDER0000001000+00003507+00000+0001T   00003507+0000001648          1400 HT2130               1AZ
150922004150922006-000789     150922006001023148612CROWN BOY              0000001000+00002192+00000+0001T   00002192+0000001648          1400 HT2131               1AZ
150922005150922561-000098     150922009780710511904BK COLOURING DINOSAUR  0000001000+00001578+00000+0001T   00001578+0000001648          1400 HT2757               1AZ
150922006150922565-000602     150922006003000643790NOVELTY NINJA'S 3PACK  0000001000+00002630+00000+0001T   00002630+0000001648          1400 HT2745               1AZ
150922007150922565-000888     150922006003000607846NOVELTY MESH BALL      0000001000+00001753+00000+0001T   00001753+0000001648          1400 HT2745               1AZ
150922008150922112-116069     150922006009681820277TCS CARRIER BAG JUMBO  0000001000+00000048+00000+0001T   00000048+0000001648          1400 HT2090               1AZ
A17021300                                          15290021AESLAVE 1                       HT22IC
C15086400                                          170213AE082-098794     11330517SLAVE 1     HT21IC0000000000+0000000000+0010000001000+
C15089600                                          170213AE565-000041     15071594SLAVE 1     HT22IC0000000000+0000000000+0010000001000+
C15091400                                          170213AE077-000303     15464918SLAVE 1     HT21IC0000000000+0000000000+0010000002000+
M17021391                              CASH        AESLAVE 1                       Z-REPORT No.   301TOTAL (Sales - Refunds)           4739.33       CASH TO BE BANKED                 1988.70       DEBIT CARDS                          0.00       CREDIT CARDS                      2750.63       Z-READING                         4739.33       AIRTIME DEBIT CARD SALES             0.00       AIRTIME CARD SALES                   0.00       OVERS/UNDERS                         0.00       AIRTIME CASH SALES                   0.00       GIFT CARDS                           0.00       GIFT CARD CASH SALES                 0.00       T O T A L  CASH PAYOUTS              0.00                                                                                                                                                                                                                                                                                                                                                      Z
M17021392                              CASH        AEABSENT                                                                                                                                                                                          ANNUAL LEAVE                                                                                                                                                                                    DAY OFF                                                                                                                                                                                         COMMENTS                                                                                                                                                                                                                                                                                                                                                                                       Z
Y17021300                                          AE00000000420414+000080
ZAE17021319193 SLAVE 1      SALES DATA                     NEXT INVOICE NO.  150923 0301
X AE Slave 1 First invoice 150843 170213 Last invoice 150922 170213 Next invoice 150923 Total number of records 000000260 clbackup completed 19:19:06
