168748000168748               168748               170213AE     1400+00000+AE0000000964+0000000964+000000000+000000135+0000001090+0000000009+I20000000000+0000001090+Z
168748001168748903-000843     168748008693029031067SWT GUMMY JELAXY 80G   0000001000+00000964+00000+0001T   00000964+0000001108          1400 NY5150               2DZ
168749000168749               168749               170213AE     1400+00000+AE0000002102+0000002102+000000000+000000295+0000002390+0000000007+I20000000000+0000002390+Z
168749001168749903-000200     168749006009826020234SWT CHOC RP CHOCO 23G  0000001000+00000788+00000+0001T   00000788+0000001115          1400 NY5150               2DZ
168749002168749903-000194     168749006009826020616SWT CHOC RP LOLLY 25G  0000001000+00001314+00000+0001T   00001314+0000001115          1400 NY5150               2DZ
168750000168750               168750               170213AE     1400+00000+AE0000001753+0000001753+000000000+000000246+0000001990+0000000009+I20000000000+0000001990+Z
168750001168750077-000240     168750006003000326259G/RIBBON 4PC PEARLIZED 0000001000+00001753+00000+0001T   00001753+0000001156          1400 NY5112               2DZ
168751000168751               168751               170213AE     1400+00000+AE0000013889+0000013889+000000000+000001947+0000015836+0000000000+I40000015836+0000000000+Z
168751001168751024-000034     168751006001023495235MEASURING-JUG 1-CUP    0000001000+00001578+00000+0001T   00001578+0000001159          1400 NY5300               2DZ
168751002168751112-116038     168751006009681820246TCS CARRIER BAG MIDI   0000001000+00000035+00000+0001T   00000035+0000001159          1400 NY5090               2DZ
168751003168751023-003000     168751006003000142910F/PAN ALUM 20X3.9 H/H  0000001000+00007893+00000+0001T   00010525+0008121159          1400 NY5300               2DZ
168751004168751020-000620     168751006001023629722UTILITY-KNIFE 12cm-BLDE0000001000+00002630+00000+0001T   00002630+0000001159          1400 NY5300               2DZ
168751005168751027-056191     168751006916920933134DISH-BRUSH+HOOK RECT   0000001000+00001753+00000+0001T   00001753+0000001159          1400 NY5212               2DZ
168752000168752               168752               170213AE     1400+00000+AE0000005344+0000005344+000000000+000000750+0000006090+0000000004+I20000000000+0000006090+Z
168752001168752200-003024     168752006001023657299REFUSE BAGS 20PCE BLACK0000001000+00001753+00000+0001T   00001753+0000001241          1400 NY5214               2DZ
168752002168752033-001364     168752006001023802088HAIR-CLIPS 65mm 24PCE  0000001000+00000876+00000+0001T   00000876+0000001241          1400 NY5200               2DZ
168752003168752084-070005     168752006001023627902NAIL FILES 6PCE H/GLOW 0000001000+00000876+00000+0001T   00000876+0000001241          1400 NY5200               2DZ
168752004168752306-000023-A   168752006003000110148COTTON WOOL BALLS 50PCE0000001000+00000700+00000+0001T   00001314+0008171241          1400 NY5200               2DZ
168752005168752027-000081     168752006001023760371SCOURING PADS 10PCE    0000001000+00001139+00000+0001T   00001139+0000001241          1400 NY5212               2DZ
168753000168753               168753               170213AE     1400+00000+AE0000003506+0000003506+000000000+000000492+0000003990+0000000008+I20000000000+0000003990+Z
168753001168753366-002799     168753006003000648238DRESSUP S/ADH FACE HAIR0000001000+00001753+00000+0001T   00001753+0000001244          1400 NY5131               2DZ
168753002168753071-010481     168753006001023417220MAGNIFYING-GLASS 90mm-D0000001000+00001753+00000+0001T   00001753+0000001244          1400 NY5130               2DZ
168754000168754               168754               170213AE     1400+00000+AE0000004206+0000004206+000000000+000000589+0000004790+0000000005+I20000000000+0000004790+Z
168754001168754028-000799     168754006001023812186SKEWERS BAMBOO 100PCE  0000001000+00001578+00000+0001T   00001578+0000001248          1400 NY5305               2DZ
168754002168754903-000194     168754006009826020616SWT CHOC RP LOLLY 25G  0000002000+00001314+00000+0001T   00001314+0000001248          1400 NY5150               2DZ
168755000168755               168755               170213AE     1400+00000+AE0000002628+0000002628+000000000+000000368+0000002990+0000000006+I20000000000+0000002990+Z
168755001168755903-000194     168755006009826020616SWT CHOC RP LOLLY 25G  0000002000+00001314+00000+0001T   00001314+0000001248          1400 NY5150               2DZ
168756000168756               168756               170213AE     1400+00000+AE0000008025+0000008025+000000000+000001126+0000009150+0000000001+I20000000000+0000009150+Z
168756001168756071-002999-A   168756006003000611577PEN STICKBALL 10PCE ASS0000001000+00001753+00000+0001T   00001753+0000001253          1400 NY5130               2DZ
168756002168756007-000610     168756006009685851017DIARY HOMEWORK UNDATED 0000001000+00001402+00000+0001T   00001402+0000001253          1400 NY5130               2DZ
168756003168756079-000341     168756006920705495519FELT-TIP PENS 12PCE    0000001000+00001753+00000+0001T   00001753+0000001253          1400 NY5130               2DZ
168756004168756267-000202     168756006003000339808PUZZLE 48pc DINOSAUR   0000001000+00003069+00000+0001T   00003069+0000001253          1400 NY5755               2DZ
168756005168756112-116069     168756006009681820277TCS CARRIER BAG JUMBO  0000001000+00000048+00000+0001T   00000048+0000001253          1400 NY5090               2DZ
168757000168757               168757               170213AE     1400+00000+AE0000007892+0000007892+000000000+000001105+0000008990+0000000007+I20000000000+0000008990+Z
168757001168757072-020254     168757006001023775962PET DOG CHEW BALL 6cm  0000001000+00003507+00000+0001T   00003507+0000001254          1400 NY5870               2DZ
168757002168757072-000620     168757006001023604415PET DOG LEAD 15mmx1.2M 0000001000+00004385+00000+0001L   00004385+0000001254          1400 NY5870               2DZ
168758000168758               168758               170213AE     1400+00000+AE0000002630+0000002630+000000000+000000369+0000002990+0000000009+I20000000000+0000002990+Z
168758001168758004-071207     168758006003000648917USB CABLE CHARGER FLAT 0000001000+00002630+00000+0001T   00002630+0000001255          1400 NY5310               2DZ
168759000168759               168759               170213AE     1400+00000+AE0000011355+0000011355+000000000+000001592+0000012947+0000000000+I40000012947+0000000000+Z
168759001168759304-001114     168759006001023738219FLWR BUNCH ROSES/LILY  0000001000+00007893+00000+0001T   00007893+0000001258          1400 NY5510               2DZ
168759002168759903-000183     168759006003000451043SWT LB HEART LOLLY     0000001000+00000393+00000+0001T   00000393+0000001258          1400 NY5150               2DZ
168759003168759301-085008     168759006003000673933ORN OCC.LOVE TINSEL HRT0000001000+00003069+00000+0001T   00003069+0000001258          1400 NY5505               2DZ
168760000168760               168760               170213AE     1400+00000+AE0000005961+0000005961+000000000+000000836+0000006797+0000000000+I40000006797+0000000000+Z
168760001168760024-000118     168760006001023422316N/STICK C/PAN HEART    0000001000+00004385+00000+0001T   00004385+0000001300          1400 NY5300               2DZ
168760002168760903-000200     168760006009826020234SWT CHOC RP CHOCO 23G  0000002000+00000788+00000+0001T   00000788+0000001300          1400 NY5150               2DZ
168761000168761               168761               170213AE     1400+00000+AE0000001578+0000001578+000000000+000000221+0000001799+0000000000+I40000001799+0000000000+Z
168761001168761018-000127     168761006001023380289MUG OCC STRAIGHT LOVE  0000001000+00001578+00000+0001T   00001753+0006471301          1400 NY5515               2DZ
168762000168762               168762               170213AE     1400+00000+AE0000004385+0000004385+000000000+000000614+0000004990+0000000009+I20000000000+0000004990+Z
168762001168762264-000916     168762000090159151012MAISTO BURNING KEY CARS0000001000+00004385+00000+0001T   00004385+0000001301          1400 NY5710               2DZ
168763000168763               168763               170213AE     1400+00000+AE0000002240+0000002240+000000000+000000314+0000002554+0000000000+I40000002554+0000000000+Z
168763001168763080-000127     168763006003000424351VALENTINES DAY 36x24CM 0000001000+00002192+00000+0001T   00002192+0000001303          1400 NY5112               2DZ
168763002168763112-116069     168763006009681820277TCS CARRIER BAG JUMBO  0000001000+00000048+00000+0001T   00000048+0000001303          1400 NY5090               2DZ
168764000168764               168764               170213AE     1400+00000+AE0000017492+0000017492+000000000+000002452+0000019944+0000000000+I40000019944+0000000000+Z
168764001168764079-003005     168764006003000448241A/TUBE 75ML BLUE       0000001000+00001753+00000+0001T   00001753+0000001316          1400 NY5130               2DZ
168764002168764079-003000     168764006003000448838A/TUBE 75ML WHITE      0000001000+00001753+00000+0001T   00001753+0000001316          1400 NY5130               2DZ
168764003168764018-000127     168764006001023380289MUG OCC STRAIGHT LOVE  0000002000+00001578+00000+0001T   00001753+0006471316          1400 NY5515               2DZ
168764004168764564-000012     168764006001023130075BUBBLE BOTTLE MAGIC    0000001000+00000700+00000+0001T   00000700+0000001316          1400 NY5131               2DZ
168764005168764031-006228     168764006003000142293P/FRAME+PLAQUE 10X15CM 0000001000+00003507+00000+0001T   00003507+0000001316          1400 NY5510               2DZ
168764006168764031-000864-A   168764006001023798350P/FRAME MAHOGANY 10X15 0000001000+00003069+00000+0001T   00003069+0000001316          1400 NY5510               2DZ
168764007168764566-000028     168764006003000265541STICKER BK ASSTD 250PCE0000001000+00001753+00000+0001T   00001753+0000001316          1400 NY5130               2DZ
168764008168764566-002004     168764006001023672421STICKERS CRYSTAL SHAPES0000001000+00001753+00000+0001T   00001753+0000001316          1400 NY5130               2DZ
168764009168764112-116069     168764006009681820277TCS CARRIER BAG JUMBO  0000001000+00000048+00000+0001T   00000048+0000001316          1400 NY5090               2DZ
168765000168765               168765               170213AE     1400+00000+AE0000007015+0000007015+000000000+000000983+0000007998+0000000000+I40000007998+0000000000+Z
168765001168765077-000299-A   168765006003000670888GIFT-BAG PAPER JMB LOVE0000001000+00001753+00000+0001T   00001753+0000001325          1400 NY5112               2DZ
168765002168765071-002877     168765006003000143726LASER POINTER PEN      0000001000+00005262+00000+0001T   00005262+0000001325          1400 NY5130               2DZ
168766000168766               168766               170213AE     1400+00000+AE0000004385+0000004385+000000000+000000614+0000004999+0000000000+I40000004999+0000000000+Z
168766001168766566-000051     168766006003000085422SCRAPBOOK PRNT CVR ASTD0000001000+00004385+00000+0001T   00004385+0000001327          1400 NY5130               2DZ
168767000168767               168767               170213AE     1400+00000+AE0000021077+0000021077+000000000+000002955+0000024032+0000000000+I40000024032+0000000000+Z
168767001168767469-000801     168767006003000652402BUILDING BLOCKS AGE BAG0000001000+00004385+00000+0001T   00004385+0000001333          1400 NY5755               2DZ
168767002168767079-013032     168767006003000389209SET LETTERS 2 ASSTD    0000001000+00001753+00000+0001T   00001753+0000001333          1400 NY5130               2DZ
168767003168767079-003009     168767006003000448722A/TUBE 75ML NATURAL    0000001000+00001753+00000+0001T   00001753+0000001333          1400 NY5130               2DZ
168767004168767464-000326     168767006003000531356GAME 4UP/CHESS/CHECKERS0000001000+00005262+00000+0001T   00005262+0000001333          1400 NY5785               2DZ
168767005168767079-013032     168767006003000389209SET LETTERS 2 ASSTD    0000001000+00001753+00000+0001T   00001753+0000001333          1400 NY5130               2DZ
168767006168767112-116038     168767006009681820246TCS CARRIER BAG MIDI   0000001000+00000035+00000+0001T   00000035+0000001333          1400 NY5090               2DZ
168767007168767108-003024     168767006003000667284TUMBLER W/STRAW 450ML  0000001000+00002630+00000+0001T   00002630+0000001333          1400 NY5210               2DZ
168767008168767016-002020     168767006003000674565S/BOTTLE GLS W/STRAW   0000001000+00002630+00000+0001T   00002630+0000001333          1400 NY5300               2DZ
168767009168767903-000521     168767006001704009652SWT GUMMY SOFT GUMS    0000001000+00000876+00000+0001T   00000876+0000001333          1400 NY5150               2DZ
168768000168768               168768               170213AE     1400+00000+AE0000009644+0000009644+000000000+000001352+0000010996+0000000000+I40000010996+0000000000+Z
168768001168768368-000049     168768006003000536955PLUSH BEAR 15cm LOVE   0000001000+00004385+00000+0001T   00004385+0000001335          1400 NY5745               2DZ
168768002168768079-013032     168768006003000389209SET LETTERS 2 ASSTD    0000003000+00001753+00000+0001T   00001753+0000001335          1400 NY5130               2DZ
168769000168769               168769               170213AE     1400+00000+AE0000003156+0000003156+000000000+000000442+0000003590+0000000008+I20000000000+0000003590+Z
168769001168769077-000303     168769006001023593757GIFT-BAG PAPER MED     0000002000+00001578+00000+0001T   00001578+0000001337          1400 NY5112               2DZ
168770000168770               168770               170213AE     1400+00000+AE0000012278+0000012278+000000000+000001720+0000013998+0000000000+I40000013998+0000000000+Z
168770001168770030-005000     168770006003000455874P/WDN SIGN 23X23CM 4-AS0000001000+00007893+00000+0001T   00007893+0000001340          1400 NY5505               2DZ
168770002168770039-091784     168770006003000275311CANDLE LED CLR CHANGE  0000001000+00004385+00000+0001T   00004385+0000001340          1400 NY5510               2DZ
168771000168771               168771               170213AE     1400+00000+AE0000001314+0000001314+000000000+000000184+0000001490+0000000008+I20000000000+0000001490+Z
168771001168771077-000310     168771006001023608635GIFT-BAG 18X23CM GLOSS 0000001000+00001314+00000+0001T   00001314+0000001341          1400 NY5112               2DZ
168772000168772               168772               170213AE     1400+00000+AE0000026313+0000026313+000000000+000003685+0000029990+0000000008+I20000000000+0000029990+Z
168772001168772263-000504     168772006001023790590TRACTOR+TRAILER 30cm   0000001000+00005262+00000+0001T   00005262+0000001345          1400 NY5710               2DZ
168772002168772265-000216     168772006001023681423CAR B/O RACING-SET 36PC0000001000+00021051+00000+0001T   00021051+0000001345          1400 NY5710               2DZ
168773000168773               168773               170213AE     1400+00000+AE0000003682+0000003682+000000000+000000516+0000004190+0000000008+I20000000000+0000004190+Z
168773001168773002-021064     168773006001023822246TOOTHPICKS IN-HOLDER   0000001000+00001490+00000+0001T   00001490+0000001440          1400 NY5300               2DZ
168773002168773200-000067     168773006003000330683STRAWS DRINKING 100PC  0000001000+00002192+00000+0001T   00002192+0000001440          1400 NY5214               2DZ
168774000168774               168774               170213AE     1400+00000+AE0000003946+0000003946+000000000+000000553+0000004490+0000000009+I20000000000+0000004490+Z
168774001168774007-000047     168774006009635833698FILE DISPLAY-BK A4 50PG0000001000+00003946+00000+0001T   00003946+0000001440          1400 NY5130               2DZ
168775000168775               168775               170213AE     1400+00000+AE0000014816+0000014816+000000000+000002075+0000016891+0000000000+I40000016891+0000000000+Z
168775001168775368-000049     168775006003000536955PLUSH BEAR 15cm LOVE   0000002000+00004385+00000+0001T   00004385+0000001447          1400 NY5745               2DZ
168775002168775077-000310     168775006001023608635GIFT-BAG 18X23CM GLOSS 0000002000+00001314+00000+0001T   00001314+0000001447          1400 NY5112               2DZ
168775003168775018-000170     168775006001023775528MUG OCC. LOVE 2PC MINI 0000001000+00002192+00000+0001T   00002192+0000001447          1400 NY5515               2DZ
168775004168775007-000555     168775006001023848239MEMO-PAD MINI LOVE     0000002000+00000613+00000+0001T   00000613+0000001447          1400 NY5130               2DZ
168776000168776               168776               170213AE     1400+00000+AE0000002453+0000002453+000000000+000000344+0000002790+0000000007+I20000000000+0000002790+Z
168776001168776080-000115     168776006003000237333CARD&ENVELOPE - BLANKS 0000001000+00001753+00000+0001T   00001753+0000001600          1400 NY5112               2DZ
168776002168776018-000177     168776006001023797513MUG MINI LOVE ASSTD    0000001000+00000700+00000+0001T   00000700+0000001600          1400 NY5515               2DZ
168777000168777               168777               170213AE     1400+00000+AE0000005873+0000005873+000000000+000000823+0000006696+0000000000+I40000006696+0000000000+Z
168777001168777105-001078     168777000700371637750CONTAINER 1,1L CLIP LOC0000001000+00001928+00000+0001T   00001928+0000001602          1400 NY5210               2DZ
168777002168777077-000382     168777006003000247820GIFT-BAG MED 18X23CM   0000001000+00001753+00000+0001T   00001753+0000001602          1400 NY5112               2DZ
168777003168777077-000509     168777006003000082582GIFT-BAG SML 6PCE ORG P0000001000+00002192+00000+0001T   00002192+0000001602          1400 NY5112               2DZ
168778000168778               168778               170213AE     1400+00000+AE0000012278+0000012278+000000000+000001719+0000013997+0000000000+I40000013997+0000000000+Z
168778001168778001-091415     168778006003000329113W/GLS OCC. LOVE 2PC 2800000001000+00008771+00000+0001T   00009648+0006471603          1400 NY5515               2DZ
168778002168778018-005009     168778006001023725608MUG W/PLUSH-BEAR LOVE  0000001000+00003507+00000+0001T   00003507+0000001603          1400 NY5515               2DZ
168779000168779               168779               170213AE     1400+00000+AE0000003554+0000003554+000000000+000000499+0000004050+0000000003+I20000000000+0000004050+Z
168779001168779036-000063     168779006009654960436COATHANGERS VIRGIN 5PCE0000002000+00001753+00000+0001T   00001753+0000001604          1400 NY5212               2DZ
168779002168779112-116069     168779006009681820277TCS CARRIER BAG JUMBO  0000001000+00000048+00000+0001T   00000048+0000001604          1400 NY5090               2DZ
168780000168780               168780               170213AE     1400+00000+AE0000002663+0000002663+000000000+000000373+0000003030+0000000006+I20000000000+0000003030+Z
168780001168780108-009020-B   168780006005387000067SALAD SML W/LID ASSTD-C0000002000+00001314+00000+0001T   00001314+0000001605          1400 NY5210               2DZ
168780002168780112-116038     168780006009681820246TCS CARRIER BAG MIDI   0000001000+00000035+00000+0001T   00000035+0000001605          1400 NY5090               2DZ
168781000168781               168781               170213AE     1400+00000+AE0000002630+0000002630+000000000+000000369+0000002990+0000000009+I20000000000+0000002990+Z
168781001168781018-000129     168781006001023403353MUG OCC. LOVE V-SHAPE  0000001000+00002630+00000+0001T   00002630+0000001610          1400 NY5515               2DZ
168782000168782               168782               170213AE     1400+00000+AE0000013157+0000013157+000000000+000001842+0000014999+0000000000+I40000014999+0000000000+Z
168782001168782002-050018     168782004008562301005MORTAR & PESTLE MARBLE 0000001000+00013157+00000+0001T   00013157+0000001614          1400 NY5300               2DZ
168783000168783               168783               170213AE     1400+00000+AE0000004385+0000004385+000000000+000000614+0000004990+0000000009+I20000000000+0000004990+Z
168783001168783261-004007     168783006001023707512GUNS DOUBLE WILD-WEST  0000001000+00004385+00000+0001T   00004385+0000001619          1400 NY5710               2DZ
168784000168784               168784               170213AE     1400+00000+AE0000001753+0000001753+000000000+000000246+0000001990+0000000009+I20000000000+0000001990+Z
168784001168784039-000114     168784006001023524058CANDLE T/LITE RED 3.5CM0000001000+00001753+00000+0001T   00001753+0000001620          1400 NY5510               2DZ
168785000168785               168785               170213AE     1400+00000+AE0000001578+0000001578+000000000+000000221+0000001790+0000000009+I20000000000+0000001790+Z
168785001168785018-000127     168785006001023380289MUG OCC STRAIGHT LOVE  0000001000+00001578+00000+0001T   00001753+0006471620          1400 NY5515               2DZ
168786000168786               168786               170213AE     1400+00000+AE0000000035+0000000035+000000000+000000005+0000000040+0000000000+I20000000000+0000000040+Z
168786001168786112-116038     168786006009681820246TCS CARRIER BAG MIDI   0000001000+00000035+00000+0001T   00000035+0000001621          1400 NY5090               2DZ
168787000168787               168787               170213AE     1400+00000+AE0000002192+0000002192+000000000+000000307+0000002490+0000000009+I20000000000+0000002490+Z
168787001168787566-000359     168787006003000582709STICKER BOOK LOVE SPARK0000001000+00002192+00000+0001T   00002192+0000001623          1400 NY5130               2DZ
168788000168788               168788               170213AE     1400+00000+AE0000015819+0000015819+000000000+000002217+0000018036+0000000000+I40000018036+0000000000+Z
168788001168788206-000480     168788006003000620227MOP SHOES CHENILLE 2PC 0000001000+00007893+00000+0001T   00007893+0000001626          1400 NY5321               2DZ
168788002168788206-000160     168788006003000628780CORN KERNELER          0000001000+00004385+00000+0001T   00004385+0000001626          1400 NY5321               2DZ
168788003168788206-000370     168788006003000631315STRAW P/DRINKING GLASS 0000001000+00001753+00000+0001T   00001753+0000001626          1400 NY5321               2DZ
168788004168788112-116038     168788006009681820246TCS CARRIER BAG MIDI   0000001000+00000035+00000+0001T   00000035+0000001626          1400 NY5090               2DZ
168788005168788079-105601     168788006003000231171ART+CRAFT STAMP ASSTD  0000001000+00001753+00000+0001T   00001753+0000001626          1400 NY5130               2DZ
168789000168789               168789               170213AE     1400+00000+AE0000001314+0000001314+000000000+000000184+0000001490+0000000008+I20000000000+0000001490+Z
168789001168789077-000310     168789006001023608635GIFT-BAG 18X23CM GLOSS 0000001000+00001314+00000+0001T   00001314+0000001628          1400 NY5112               2DZ
168790000168790               168790               170213AE     1400+00000+AE0000002192+0000002192+000000000+000000307+0000002490+0000000009+I20000000000+0000002490+Z
168790001168790046-000012-A   168790006003000208296BATTERIES H/POWER SZ:AA0000001000+00002192+00000+0001T   00002192+0000001629          1400 NY5312               2DZ
168791000168791               168791               170213AE     1400+00000+AE0000015818+0000015818+000000000+000002216+0000018030+0000000004+I20000000000+0000018030+Z
168791001168791133-000010-A   168791006001023997647CLEANING CLOTH ROLL 30 0000001000+00003507+00000+0001T   00003507+0000001631          1400 NY5212               2DZ
168791002168791088-000107     168791006001023555823DIFFUSER SET FLOWER    0000002000+00004385+00000+0001T   00004385+0000001631          1400 NY5212               2DZ
168791003168791088-000108     168791006001023765536POTPOURRI-OIL 10ml ASST0000002000+00001753+00000+0001T   00001753+0000001631          1400 NY5212               2DZ
168791004168791112-116038     168791006009681820246TCS CARRIER BAG MIDI   0000001000+00000035+00000+0001T   00000035+0000001631          1400 NY5090               2DZ
168792000168792               168792               170213AE     1400+00000+AE0000003157+0000003157+000000000+000000442+0000003590+0000000009+I20000000000+0000003590+Z
168792001168792047-002041     168792006002521079170PLUG-ADAPTOR 2x16A 2x5A0000001000+00003157+00000+0001T   00003157+0000001633          1400 NY5880               2DZ
168793000168793               168793               170213AE     1400+00000+AE0000002630+0000002630+000000000+000000369+0000002990+0000000009+I20000000000+0000002990+Z
168793001168793018-000129     168793006001023403353MUG OCC. LOVE V-SHAPE  0000001000+00002630+00000+0001T   00002630+0000001637          1400 NY5515               2DZ
168794000168794               168794               170213AE     1400+00000+AE0000010572+0000010572+000000000+000001481+0000012053+0000000000+I40000012053+0000000000+Z
168794001168794077-000902     168794006003000410569G/WRAP 700mmx1m BBY/KID0000001000+00001753+00000+0001T   00001753+0000001639          1400 NY5112               2DZ
168794002168794031-006542     168794006003000222698P/FRAME WDN.THICK 20X250000001000+00008771+00000+0001T   00008771+0000001639          1400 NY5510               2DZ
168794003168794112-116069     168794006009681820277TCS CARRIER BAG JUMBO  0000001000+00000048+00000+0001T   00000048+0000001639          1400 NY5090               2DZ
168795000168795               168795               170213AE     1400+00000+AE0000002630+0000002630+000000000+000000369+0000002990+0000000009+I20000000000+0000002990+Z
168795001168795200-000040     168795006001023729620BAG SEALERS 5PC CLIPS  0000001000+00002630+00000+0001T   00002630+0000001639          1400 NY5214               2DZ
168796000168796               168796               170213AE     1400+00000+AE0000001578+0000001578+000000000+000000221+0000001790+0000000009+I20000000000+0000001790+Z
168796001168796079-013032-C   168796006003000389520POLY SHAPES            0000001000+00001578+00000+0001T   00001578+0000001640          1400 NY5130               2DZ
168797000168797               168797               170213AE     1400+00000+AE0000008358+0000008358+000000000+000001171+0000009529+0000000000+I40000009529+0000000000+Z
168797001168797077-000311     168797006001023608666GIFT-BAG 11X14CM GLOSS 0000001000+00000613+00000+0001T   00000613+0000001645          1400 NY5112               2DZ
168797002168797903-000194     168797006009826020616SWT CHOC RP LOLLY 25G  0000004000+00001314+00000+0001T   00001314+0000001645          1400 NY5150               2DZ
168797003168797903-000498     168797006001704013048SWT CHOC MIGHTY MALTS  0000001000+00001227+00000+0001T   00001227+0000001645          1400 NY5150               2DZ
168797004168797903-000504     168797006001704012416SWT CHOC JELLY BEANS   0000001000+00001227+00000+0001T   00001227+0000001645          1400 NY5150               2DZ
168797005168797112-116038     168797006009681820246TCS CARRIER BAG MIDI   0000001000+00000035+00000+0001T   00000035+0000001645          1400 NY5090               2DZ
168798000168798               168798               170213AE     1400+00000+AE0000000876+0000000876+000000000+000000123+0000000990+0000000009+I20000000000+0000000990+Z
168798001168798007-000235     168798006003000134434LABELS RECTANGULAR 60pc0000001000+00000876+00000+0001T   00000876+0000001653          1400 NY5130               2DZ
168799000168799               168799               170213AE     1400+00000+AE0000002393+0000002393+000000000+000000338+0000002730+0000000001+I20000000000+0000002730+Z
168799001168799903-000099     168799006923431501646SWT CANDY GS WTCH B/LET0000009000+00000262+00000+0001T   00000262+0000001654          1400 NY5150               2DZ
168799002168799112-116038     168799006009681820246TCS CARRIER BAG MIDI   0000001000+00000035+00000+0001T   00000035+0000001654          1400 NY5090               2DZ
168800000168800               168800               170213AE     1400+00000+AE0000001051+0000001051+000000000+000000148+0000001190+0000000009+I20000000000+0000001190+Z
168800001168800903-002850     168800000000087108262MENTOS ROLL FRUIT      0000001000+00001051+00000+0001T   00001051+0000001700          1400 NY5150               2DZ
168801000168801               168801               170213AE     1400+00000+AE0000010524+0000010524+000000000+000001474+0000011990+0000000008+I20000000000+0000011990+Z
168801001168801018-019000     168801006003000557288MUG OCC. LOVE JUMBO    0000001000+00005262+00000+0001T   00005262+0000001706          1400 NY5515               2DZ
168801002168801071-003201     168801006003000274673STATION SET PEN/PENCIL 0000001000+00005262+00000+0001T   00005262+0000001706          1400 NY5130               2DZ
168802000168802               168802               170213AE     1400+00000+AE0000002104+0000002104+000000000+000000295+0000002390+0000000009+I20000000000+0000002390+Z
168802001168802903-000095     168802006001704011495SWT SPECKLED-EGGS 100G 0000001000+00002104+00000+0001T   00002104+0000001710          1400 NY5150               2AZ
168803000168803               168803               170213AE     1400+00000+AE0000000876+0000000876+000000000+000000123+0000000990+0000000009+I20000000000+0000000990+Z
168803001168803077-000314     168803006003000181148GIFT-BAG 11X14CM MATT  0000001000+00000876+00000+0001T   00000876+0000001714          1400 NY5112               2DZ
168804000168804               168804               170213AE     1400+00000+AE0000008377+0000008377+000000000+000001174+0000009551+0000000000+I40000009551+0000000000+Z
168804001168804301-085004     168804006003000420469ORN LOVE PLAQUE 21X10CM0000001000+00003507+00000+0001T   00003946+0006471719          1400 NY5505               2DZ
168804002168804080-000127     168804006003000424351VALENTINES DAY 36x24CM 0000001000+00002192+00000+0001T   00002192+0000001719          1400 NY5112               2DZ
168804003168804077-000270     168804006003000395453GIFT-BAG PPR JMB 33X45 0000001000+00002630+00000+0001T   00002630+0000001719          1400 NY5112               2DZ
168804004168804112-116069     168804006009681820277TCS CARRIER BAG JUMBO  0000001000+00000048+00000+0001T   00000048+0000001719          1400 NY5090               2DZ
168805000168805               168805               170213AE     1400+00000+AE0000006173+0000006173+000000000+000000865+0000007030+0000000008+I20000000000+0000007030+Z
168805001168805079-014152     168805006003000253074ART+CRAFT PK50 ASSTD   0000002000+00003069+00000+0001T   00003069+0000001720          1400 NY5130               2DZ
168805002168805112-116038     168805006009681820246TCS CARRIER BAG MIDI   0000001000+00000035+00000+0001T   00000035+0000001720          1400 NY5090               2DZ
168806000168806               168806               170213AE     1400+00000+AE0000027230+0000027230+000000000+000003815+0000031045+0000000000+I40000031045+0000000000+Z
168806001168806466-000109     168806006003000612345BALL RAINBOW DESIGN    0000001000+00001753+00000+0001T   00001753+0000001722          1400 NY5785               2DZ
168806002168806034-091339     168806006003000568253BABY BIB 33x39cm 4ASSTD0000002000+00003507+00000+0001T   00003507+0000001722          1400 NY5215               2DZ
168806003168806560-000245     168806006001023622716RUBBER ANIMALS 10PC ASS0000001000+00007016+00000+0001T   00007016+0000001722          1400 NY5745               2DZ
168806004168806562-058911     168806006001023705778EDU MAGNETIC UPPER CASE0000001000+00003507+00000+0001T   00003507+0000001722          1400 NY5755               2DZ
168806005168806369-001000     168806006003000551446SQUEEZE CARS 2PC VINYL 0000001000+00002630+00000+0001T   00002630+0000001722          1400 NY5745               2DZ
168806006168806112-116069     168806006009681820277TCS CARRIER BAG JUMBO  0000001000+00000048+00000+0001T   00000048+0000001722          1400 NY5090               2DZ
168806007168806469-006602     168806006003000390328B/BLOCKS 26PC BACKPACK 0000001000+00005262+00000+0001T   00005262+0000001722          1400 NY5755               2DZ
168807000168807               168807               170213AE     1400+00000+AE0000000869-0000000869-000000000+000000122-0000001000-0000000009+I20000000000+0000001000-Z
168807001168807080-000137     168807006003000589159CARD & ENV GIANT FEMALE0000001000-00002622+00000+0001T   00002630+0000001723          1400 NY51122IC            2 Z
168807002168807080-000111     168807006003000252695CARD&ENVELPE - MUSICAL 0000001000+00001753+00000+0001T   00001753+0000001723          1400 NY5112               2 Z
168808000168808               168808               170213AE     1400+00000+AE0000003946+0000003946+000000000+000000553+0000004499+0000000000+I40000004499+0000000000+Z
168808001168808031-000874-A   168808006001023798800P/FRAME WDN P/BOX 10X150000001000+00003946+00000+0001T   00003946+0000001725          1400 NY5510               2DZ
168809000168809               168809               170213AE     1400+00000+AE0000009684+0000009684+000000000+000001359+0000011043+0000000000+I40000011043+0000000000+Z
168809001168809564-000012     168809006001023130075BUBBLE BOTTLE MAGIC    0000001000+00000700+00000+0001T   00000700+0000001726          1400 NY5131               2DZ
168809002168809206-000600     168809006003000631551TOILET PAPER SUDUKO    0000001000+00002630+00000+0001T   00002630+0000001726          1400 NY5321               2DZ
168809003168809077-000358     168809006003000329977GIFT-BAG KIDS 25X32CM  0000001000+00001753+00000+0001T   00001753+0000001726          1400 NY5112               2DZ
168809004168809903-000671     168809006009803358015SWT SHERBET BLUE LIPS  0000001000+00000218+00000+0001T   00000218+0000001726          1400 NY5150               2DZ
168809005168809077-000005-D   168809006003000414567PAPER TISSUE 50x70cm   0000001000+00001753+00000+0001T   00001753+0000001726          1400 NY5112               2DZ
168809006168809566-000004     168809006003000062270STICKER BOOK ABC/BORDER0000001000+00002630+00000+0001T   00002630+0000001726          1400 NY5130               2DZ
168810000168810               168810               170213AE     1400+00000+AE0000030960+0000030960+000000000+000004336+0000035296+0000000000+I40000035296+0000000000+Z
168810001168810486-001014     168810006001023847386WALL-CLOCK PL 30CM     0000001000+00010525+00000+0001T   00010525+0000001728          1400 NY5510               2DZ
168810002168810469-004001     168810006003000241927B/BLOCKS 66PC POLICE   0000001000+00015788+00000+0001T   00015788+0000001728          1400 NY5755               2DZ
168810003168810267-000202     168810006003000339808PUZZLE 48pc DINOSAUR   0000001000+00003069+00000+0001T   00003069+0000001728          1400 NY5755               2DZ
168810004168810028-000799     168810006001023812186SKEWERS BAMBOO 100PCE  0000001000+00001578+00000+0001T   00001578+0000001728          1400 NY5305               2DZ
168811000168811               168811               170213AE     1400+00000+AE0000001314+0000001314+000000000+000000184+0000001490+0000000008+I20000000000+0000001490+Z
168811001168811903-000194     168811006009826020616SWT CHOC RP LOLLY 25G  0000001000+00001314+00000+0001T   00001314+0000001728          1400 NY5150               2DZ
168812000168812               168812               170213AE     1400+00000+AE0000001751+0000001751+000000000+000000246+0000001990+0000000007+I20000000000+0000001990+Z
168812001168812077-000310     168812006001023608635GIFT-BAG 18X23CM GLOSS 0000001000+00001314+00000+0001T   00001314+0000001729          1400 NY5112               2DZ
168812002168812080-000133-A   168812006003000647019MINI VALENTINES CARD   0000001000+00000437+00000+0001T   00000437+0000001729          1400 NY5112               2DZ
168813000168813               168813               170213AE     1400+00000+AE0000007576+0000007576+000000000+000001061+0000008637+0000000000+I40000008637+0000000000+Z
168813001168813080-000124     168813006003000297733CARD & ENV VALENTINES  0000001000+00001578+00000+0001T   00001578+0000001731          1400 NY5112               2DZ
168813002168813077-000303     168813006001023593757GIFT-BAG PAPER MED     0000001000+00001578+00000+0001T   00001578+0000001731          1400 NY5112               2DZ
168813003168813368-000049     168813006003000536955PLUSH BEAR 15cm LOVE   0000001000+00004385+00000+0001T   00004385+0000001731          1400 NY5745               2DZ
168813004168813112-116038     168813006009681820246TCS CARRIER BAG MIDI   0000001000+00000035+00000+0001T   00000035+0000001731          1400 NY5090               2DZ
168814000168814               168814               170213AE     1400+00000+AE0000001753+0000001753+000000000+000000246+0000001990+0000000009+I20000000000+0000001990+Z
168814001168814007-000205     168814006002324000432FILE BINDER 2-RING A4  0000001000+00001753+00000+0001T   00001753+0000001731          1400 NY5130               2DZ
168815000168815               168815               170213AE     1400+00000+AE0000005262+0000005262+000000000+000000737+0000005999+0000000000+I40000005999+0000000000+Z
168815001168815266-001025     168815006003000108756BOYS TOYS SWORD 75cm   0000001000+00005262+00000+0001T   00005262+0000001732          1400 NY5710               2DZ
168816000168816               168816               170213AE     1400+00000+AE0000006750+0000006750+000000000+000000946+0000007690+0000000006+I20000000000+0000007690+Z
168816001168816105-001310     168816006003000572731CONTAINER COLOUR SQUARE0000001000+00003507+00000+0001T   00003507+0000001733          1400 NY5210               2DZ
168816002168816105-001066     168816006003000630912CONTAINER CLIP LOCK    0000001000+00001490+00000+0001T   00001490+0000001733          1400 NY5210               2DZ
168816003168816105-001077     168816006003000532872CONTAINER CLIP LOCK 1L 0000001000+00001753+00000+0001T   00002279+0008161733          1400 NY5210               2DZ
168817000168817               168817               170213AE     1400+00000+AE0000014603+0000014603+000000000+000002047+0000016650+0000000000+I20000000000+0000016650+Z
168817001168817077-000299     168817006003000395576G/BAG 32x25cm LRG LOVE 0000003000+00001490+00000+0001T   00001490+0000001736          1400 NY5112               2DZ
168817002168817301-085001     168817006003000297610ORN WATERBALL LOVE ASST0000001000+00004823+00000+0001T   00004823+0000001736          1400 NY5505               2DZ
168817003168817018-019000     168817006003000557288MUG OCC. LOVE JUMBO    0000001000+00005262+00000+0001T   00005262+0000001736          1400 NY5515               2DZ
168817004168817112-116069     168817006009681820277TCS CARRIER BAG JUMBO  0000001000+00000048+00000+0001T   00000048+0000001736          1400 NY5090               2DZ
168818000168818               168818               170213AE     1400+00000+AE0000001752+0000001752+000000000+000000246+0000001990+0000000008+I20000000000+0000001990+Z
168818001168818033-010720     168818006001023678645SAFETY-PINS 50PCE SMALL0000002000+00000876+00000+0001T   00000876+0000001737          1400 NY5200               2DZ
168819000168819               168819               170213AE     1400+00000+AE0000001314+0000001314+000000000+000000184+0000001490+0000000008+I20000000000+0000001490+Z
168819001168819077-000310     168819006001023608635GIFT-BAG 18X23CM GLOSS 0000001000+00001314+00000+0001T   00001314+0000001738          1400 NY5112               2DZ
168820000168820               168820               170213AE     1400+00000+AE0000006136+0000006136+000000000+000000861+0000006990+0000000007+I20000000000+0000006990+Z
168820001168820006-000802     168820006003000653553STREAMERS 5-ROLLS 2.5cm0000001000+00001753+00000+0001T   00001753+0000001742          1400 NY5131               2DZ
168820002168820039-000320     168820006001023816153BIRTHDAY-CANDLES 13PCE 0000001000+00002630+00000+0001T   00002630+0000001742          1400 NY5510               2DZ
168820003168820563-000317-K   168820006003000697885SERVIETTE 2PLY 33cm    0000001000+00001753+00000+0001T   00001753+0000001742          1400 NY5214               2DZ
168821000168821               168821               170213AE     1400+00000+AE0000010117+0000010117+000000000+000001419+0000011536+0000000000+I40000011536+0000000000+Z
168821001168821072-020305     168821006003000024261PET DOG ASST CANVAS TOY0000001000+00002630+00000+0001T   00002630+0000001747          1400 NY5870               2DZ
168821002168821072-020314     168821006003000605453PET TOY PUP VINYL CHICK0000001000+00003069+00000+0001T   00003069+0000001747          1400 NY5870               2DZ
168821003168821142-000816     168821006001023477163GLOVES DISPOSE PACK-50 0000001000+00002630+00000+0001T   00002630+0000001747          1400 NY5810               2DZ
168821004168821078-000020     168821008887013700071YAMAYO CONTACT-CEMENT  0000001000+00001753+00000+0001T   00001753+0000001747          1400 NY5810               2DZ
168821005168821112-116038     168821006009681820246TCS CARRIER BAG MIDI   0000001000+00000035+00000+0001T   00000035+0000001747          1400 NY5090               2DZ
168822000168822               168822               170213AE     1400+00000+AE0000007925+0000007925+000000000+000001112+0000009037+0000000000+I40000009037+0000000000+Z
168822001168822019-000404     168822006001023845955PLANTER STONE 17X14X13M0000001000+00002630+00000+0001T   00003069+0008171749          1400 NY5510               2DZ
168822002168822565-000041     168822006008766115642NOVELTY BALL ICON 5.5cm0000002000+00002630+00000+0001T   00002630+0000001749          1400 NY5745               2DZ
168822003168822112-116038     168822006009681820246TCS CARRIER BAG MIDI   0000001000+00000035+00000+0001T   00000035+0000001749          1400 NY5090               2DZ
168823000168823               168823               170213AE     1400+00000+AE0000014501+0000014501+000000000+000002033+0000016534+0000000000+I40000016534+0000000000+Z
168823001168823112-116038     168823006009681820246TCS CARRIER BAG MIDI   0000001000+00000035+00000+0001T   00000035+0000001751          1400 NY5090               2DZ
168823002168823565-000859     168823006001023691361SUNGLASSES GIANT       0000001000+00001753+00000+0001T   00001753+0000001751          1400 NY5745               2DZ
168823003168823079-013032-B   168823006003000389445MIXED SHAPES           0000001000+00001753+00000+0001T   00001753+0000001751          1400 NY5130               2DZ
168823004168823079-013106     168823006003000081998ART+CRAFT PIPE-CLEANERS0000001000+00003069+00000+0001T   00003069+0000001751          1400 NY5130               2DZ
168823005168823566-000031     168823006003000283910STICKER BK TEACHER STIC0000001000+00002192+00000+0001T   00002192+0000001751          1400 NY5130               2DZ
168823006168823079-000601     168823006003000640379ART+CRAFT SHEETS METAL 0000001000+00002630+00000+0001T   00002630+0000001751          1400 NY5130               2DZ
168823007168823366-007932     168823006003000238057ACCESS CLOWN BOWTIE    0000001000+00003069+00000+0001T   00003069+0000001751          1400 NY5131               2DZ
168824000168824               168824               170213AE     1400+00000+AE0000011179+0000011179+000000000+000001568+0000012747+0000000000+I40000012747+0000000000+Z
168824001168824108-002020     168824006009654960245WINE GLS STYRENE 220ml 0000002000+00001402+00000+0001T   00001402+0000001752          1400 NY5210               2DZ
168824002168824037-000002     168824006001023994745ASHTRAY SPIN METAL 9cm 0000001000+00003507+00000+0001T   00003507+0000001752          1400 NY5515               2DZ
168824003168824077-000310     168824006001023608635GIFT-BAG 18X23CM GLOSS 0000001000+00001314+00000+0001T   00001314+0000001752          1400 NY5112               2DZ
168824004168824108-005005     168824006003000667451TRAY PL 29x21cm RECT   0000002000+00001753+00000+0001T   00001753+0000001752          1400 NY5210               2DZ
168824005168824112-116069     168824006009681820277TCS CARRIER BAG JUMBO  0000001000+00000048+00000+0001T   00000048+0000001752          1400 NY5090               2DZ
168825000168825               168825               170213AE     1400+00000+AE0000003069+0000003069+000000000+000000430+0000003499+0000000000+I40000003499+0000000000+Z
168825001168825024-000212     168825006001023858030COOKIE-CUTTERS PL SMALL0000001000+00003069+00000+0001T   00003069+0000001753          1400 NY5300               2DZ
168826000168826               168826               170213AE     1400+00000+AE0000002278+0000002278+000000000+000000320+0000002590+0000000008+I20000000000+0000002590+Z
168826001168826903-000099     168826006923431501646SWT CANDY GS WTCH B/LET0000001000+00000262+00000+0001T   00000262+0000001755          1400 NY5150               2DZ
168826002168826903-000010     168826006002099008091SWT CHOC WONKA BAR     0000001000+00002016+00000+0001T   00002016+0000001755          1400 NY5150               2DZ
168827000168827               168827               170213AE     1400+00000+AE0000003156+0000003156+000000000+000000442+0000003590+0000000008+I20000000000+0000003590+Z
168827001168827077-000303     168827006001023593757GIFT-BAG PAPER MED     0000002000+00001578+00000+0001T   00001578+0000001756          1400 NY5112               2DZ
168828000168828               168828               170213AE     1400+00000+AE0000007399+0000007399+000000000+000001037+0000008436+0000000000+I40000008436+0000000000+Z
168828001168828007-000555     168828006001023848239MEMO-PAD MINI LOVE     0000001000+00000613+00000+0001T   00000613+0000001757          1400 NY5130               2DZ
168828002168828567-011512     168828009781445430461BK FOOD PAR 100 RECIPES0000001000+00003244+00000+0001T   00003244+0000001757          1400 NY5757               2DZ
168828003168828567-011432     168828009780600621324BOOK HAMLYN 200 LOW CAL0000001000+00003507+00000+0001T   00003507+0000001757          1400 NY5757               2DZ
168828004168828112-116038     168828006009681820246TCS CARRIER BAG MIDI   0000001000+00000035+00000+0001T   00000035+0000001757          1400 NY5090               2DZ
168829000168829               168829               170213AE     1400+00000+AE0000006344+0000006344+000000000+000000890+0000007230+0000000004+I20000000000+0000007230+Z
168829001168829112-116038     168829006009681820246TCS CARRIER BAG MIDI   0000001000+00000035+00000+0001T   00000035+0000001758          1400 NY5090               2DZ
168829002168829304-001204     168829006001023737984FLOWER OCC. TEDDY/ROSES0000001000+00001402+00000+0001T   00001490+0006471758          1400 NY5510               2DZ
168829003168829903-004961     168829008410525221866SWT GUMMY FINI WILD 50g0000001000+00000964+00000+0001T   00000964+0000001758          1400 NY5150               2DZ
168829004168829903-004960     168829008410525221842SWT GUMMY STR/BERRY 50G0000001000+00000964+00000+0001T   00000964+0000001758          1400 NY5150               2DZ
168829005168829261-002266     168829006001023186218CAP-GUN ROLL-CAP 15cm  0000001000+00001753+00000+0001T   00001753+0000001758          1400 NY5710               2DZ
168829006168829007-000555     168829006001023848239MEMO-PAD MINI LOVE     0000002000+00000613+00000+0001T   00000613+0000001758          1400 NY5130               2DZ
168830000168830               168830               170213AE     1400+00000+AE0000004385+0000004385+000000000+000000614+0000004990+0000000009+I20000000000+0000004990+Z
168830001168830261-003342     168830006001023484895GUN RIFLE ACTION-TEAM  0000001000+00004385+00000+0001T   00004385+0000001758          1400 NY5710               2DZ
168831000168831               168831               170213AE     1400+00000+AE0000001227+0000001227+000000000+000000172+0000001390+0000000009+I20000000000+0000001390+Z
168831001168831077-000245     168831006001023759214GIFT-RIBBON METALLICx2 0000001000+00001227+00000+0001T   00001227+0000001758          1400 NY5112               2DZ
168832000168832               168832               170213AE     1400+00000+AE0000011437+0000011437+000000000+000001602+0000013039+0000000000+I40000013039+0000000000+Z
168832001168832368-000181     168832006003000668052PLUSH BUNNY 27cm       0000001000+00011402+00000+0001T   00011402+0000001800          1400 NY5745               2DZ
168832002168832112-116038     168832006009681820246TCS CARRIER BAG MIDI   0000001000+00000035+00000+0001T   00000035+0000001800          1400 NY5090               2DZ
168833000168833               168833               170213AE     1400+00000+AE0000005206+0000005206+000000000+000000731+0000005937+0000000000+I40000005937+0000000000+Z
168833001168833206-000620     168833006003000631797BACK SCRATCHER EXTEND  0000001000+00002630+00000+0001T   00002630+0000001801          1400 NY5321               2DZ
168833002168833077-000382     168833006003000247820GIFT-BAG MED 18X23CM   0000001000+00001753+00000+0001T   00001753+0000001801          1400 NY5112               2DZ
168833003168833077-000010-Z   168833006001023157874CREPE-PAPER BLK/ORG/PUR0000001000+00000788+00000+0001T   00000788+0000001801          1400 NY5112               2DZ
168833004168833112-116038     168833006009681820246TCS CARRIER BAG MIDI   0000001000+00000035+00000+0001T   00000035+0000001801          1400 NY5090               2DZ
168834000168834               168834               170213AE     1400+00000+AE0000006139+0000006139+000000000+000000860+0000006999+0000000000+I40000006999+0000000000+Z
168834001168834004-071272     168834006001023855343DVD-DISC WRITABLE DR-100000001000+00006139+00000+0001T   00006139+0000001802          1400 NY5310               2DZ
168835000168835               168835               170213AE     1400+00000+AE0000001314+0000001314+000000000+000000184+0000001490+0000000008+I20000000000+0000001490+Z
168835001168835903-000194     168835006009826020616SWT CHOC RP LOLLY 25G  0000001000+00001314+00000+0001T   00001314+0000001802          1400 NY5150               2DZ
168836000168836               168836               170213AE     1400+00000+AE0000001051+0000001051+000000000+000000148+0000001190+0000000009+I20000000000+0000001190+Z
168836001168836903-002850     168836000000087108262MENTOS ROLL FRUIT      0000001000+00001051+00000+0001T   00001051+0000001803          1400 NY5150               2DZ
168837000168837               168837               170213AE     1400+00000+AE0000011135+0000011135+000000000+000001560+0000012695+0000000000+I40000012695+0000000000+Z
168837001168837018-019000     168837006003000557288MUG OCC. LOVE JUMBO    0000001000+00005262+00000+0001T   00005262+0000001804          1400 NY5515               2DZ
168837002168837007-000555     168837006001023848239MEMO-PAD MINI LOVE     0000001000+00000613+00000+0001T   00000613+0000001804          1400 NY5130               2DZ
168837003168837567-011344     168837006003000630714BK COLOURING THERAPY 640000001000+00003507+00000+0001T   00003507+0000001804          1400 NY5757               2DZ
168837004168837079-000206     168837006003000639700PENCIL CRAYONS THERAPY 0000001000+00001753+00000+0001T   00001753+0000001804          1400 NY5130               2DZ
168838000168838               168838               170213AE     1400+00000+AE0000001314+0000001314+000000000+000000184+0000001490+0000000008+I20000000000+0000001490+Z
168838001168838077-000310     168838006001023608635GIFT-BAG 18X23CM GLOSS 0000001000+00001314+00000+0001T   00001314+0000001805          1400 NY5112               2DZ
168839000168839               168839               170213AE     1400+00000+AE0000004418+0000004418+000000000+000000620+0000005038+0000000000+I40000005038+0000000000+Z
168839001168839200-000040     168839006001023729620BAG SEALERS 5PC CLIPS  0000001000+00002630+00000+0001T   00002630+0000001807          1400 NY5214               2DZ
168839002168839142-000814     168839006001023183910GLOVES RUBBER  MEDIUM  0000001000+00001753+00000+0001T   00001753+0000001807          1400 NY5810               2DZ
168839003168839112-116038     168839006009681820246TCS CARRIER BAG MIDI   0000001000+00000035+00000+0001T   00000035+0000001807          1400 NY5090               2DZ
168840000168840               168840               170213AE     1400+00000+AE0000001751+0000001751+000000000+000000246+0000001990+0000000007+I20000000000+0000001990+Z
168840001168840018-000177     168840006001023797513MUG MINI LOVE ASSTD    0000001000+00000700+00000+0001T   00000700+0000001808          1400 NY5515               2DZ
168840002168840079-009702-D   168840008427973059354PAPER SIRIO A2 RED COL 0000001000+00001051+00000+0001T   00001051+0000001808          1400 NY5130               2DZ
168841000168841               168841               170213AE     1400+00000+AE0000004385+0000004385+000000000+000000614+0000004990+0000000009+I20000000000+0000004990+Z
168841001168841368-000049     168841006003000536955PLUSH BEAR 15cm LOVE   0000001000+00004385+00000+0001T   00004385+0000001808          1400 NY5745               2DZ
168842000168842               168842               170213AE     1400+00000+AE0000003243+0000003243+000000000+000000455+0000003690+0000000008+I20000000000+0000003690+Z
168842001168842006-000120     168842006001023346889BALLOONS 10PC MIX COL  0000001000+00001753+00000+0001T   00001753+0000001809          1400 NY5131               2DZ
168842002168842039-000108     168842006001023524034TEA-LITE CANDLES 8PCE  0000001000+00001490+00000+0001T   00001490+0000001809          1400 NY5510               2DZ
168843000168843               168843               170213AE     1400+00000+AE0000009254+0000009254+000000000+000001298+0000010552+0000000000+I40000010552+0000000000+Z
168843001168843080-000133-A   168843006003000647019MINI VALENTINES CARD   0000001000+00000437+00000+0001T   00000437+0000001811          1400 NY5112               2DZ
168843002168843018-050000     168843006003000412679MUG OCC LOVE TWIN BEAR 0000001000+00006139+00000+0001T   00006139+0000001811          1400 NY5515               2DZ
168843003168843077-000270     168843006003000395453GIFT-BAG PPR JMB 33X45 0000001000+00002630+00000+0001T   00002630+0000001811          1400 NY5112               2DZ
168843004168843112-116069     168843006009681820277TCS CARRIER BAG JUMBO  0000001000+00000048+00000+0001T   00000048+0000001811          1400 NY5090               2DZ
168844000168844               168844               170213AE     1400+00000+AE0000004821+0000004821+000000000+000000675+0000005496+0000000000+I40000005496+0000000000+Z
168844001168844903-000194     168844006009826020616SWT CHOC RP LOLLY 25G  0000001000+00001314+00000+0001T   00001314+0000001813          1400 NY5150               2DZ
168844002168844301-085004     168844006003000420469ORN LOVE PLAQUE 21X10CM0000001000+00003507+00000+0001T   00003946+0006471813          1400 NY5505               2DZ
168845000168845               168845               170213AE     1400+00000+AE0000000876+0000000876+000000000+000000123+0000000990+0000000009+I20000000000+0000000990+Z
168845001168845077-000314     168845006003000181148GIFT-BAG 11X14CM MATT  0000001000+00000876+00000+0001T   00000876+0000001813          1400 NY5112               2DZ
168846000168846               168846               170213AE     1400+00000+AE0000002804+0000002804+000000000+000000394+0000003190+0000000008+I20000000000+0000003190+Z
168846001168846304-001204     168846006001023737984FLOWER OCC. TEDDY/ROSES0000002000+00001402+00000+0001T   00001490+0006471814          1400 NY5510               2DZ
168847000168847               168847               170213AE     1400+00000+AE0000007940+0000007940+000000000+000001113+0000009050+0000000003+I20000000000+0000009050+Z
168847001168847018-050000     168847006003000412679MUG OCC LOVE TWIN BEAR 0000001000+00006139+00000+0001T   00006139+0000001815          1400 NY5515               2DZ
168847002168847077-000299-A   168847006003000670888GIFT-BAG PAPER JMB LOVE0000001000+00001753+00000+0001T   00001753+0000001815          1400 NY5112               2DZ
168847003168847112-116069     168847006009681820277TCS CARRIER BAG JUMBO  0000001000+00000048+00000+0001T   00000048+0000001815          1400 NY5090               2DZ
168848000168848               168848               170213AE     1400+00000+AE0000001314+0000001314+000000000+000000184+0000001490+0000000008+I20000000000+0000001490+Z
168848001168848077-000310     168848006001023608635GIFT-BAG 18X23CM GLOSS 0000001000+00001314+00000+0001T   00001314+0000001818          1400 NY5112               2DZ
168849000168849               168849               170213AE     1400+00000+AE0000003366+0000003366+000000000+000000472+0000003830+0000000008+I20000000000+0000003830+Z
168849001168849080-000101     168849006003000236732CARD&ENVLPE FEMALE     0000001000+00001753+00000+0001T   00001753+0000001820          1400 NY5112               2DZ
168849002168849018-000127     168849006001023380289MUG OCC STRAIGHT LOVE  0000001000+00001578+00000+0001T   00001753+0006471820          1400 NY5515               2DZ
168849003168849112-116038     168849006009681820246TCS CARRIER BAG MIDI   0000001000+00000035+00000+0001T   00000035+0000001820          1400 NY5090               2DZ
168850000168850               168850               170213AE     1400+00000+AE0000038622+0000038622+000000000+000005411+0000044033+0000000000+I40000044033+0000000000+Z
168850001168850019-000103     168850006003000280957VASE GLASS BUD 14CM ASS0000006000+00001753+00000+0001T   00001753+0000001823          1400 NY5510               2DZ
168850002168850103-000090     168850006001023795786WOVEN HEART SHAPED     0000008000+00003507+00000+0001T   00003507+0000001823          1400 NY5300               2DZ
168850003168850112-116069     168850006009681820277TCS CARRIER BAG JUMBO  0000001000+00000048+00000+0001T   00000048+0000001823          1400 NY5090               2DZ
168851000168851               168851               170213AE     1400+00000+AE0000012803+0000012803+000000000+000001794+0000014597+0000000000+I40000014597+0000000000+Z
168851001168851019-000300     168851006001023845139VASE CER. ASST         0000001000+00007016+00000+0001T   00007016+0000001826          1400 NY5510               2DZ
168851002168851903-000077     168851006939873501687SWT GS MAGIC ROCK FRUIT0000001000+00000525+00000+0001T   00000525+0000001826          1400 NY5150               2DZ
168851003168851304-001116     168851006003000426164F/BUNCH ROSES 12-HEAD  0000001000+00005262+00000+0001T   00005262+0000001826          1400 NY5510               2DZ
168852000168852               168852               170213AE     1400+00000+AE0000001578+0000001578+000000000+000000221+0000001799+0000000000+I40000001799+0000000000+Z
168852001168852369-001137-B   168852006003000626373BABY BATH VINYL DUCK   0000001000+00001578+00000+0001T   00001578+0000001828          1400 NY5745               2DZ
168853000168853               168853               170213AE     1400+00000+AE0000002630+0000002630+000000000+000000369+0000002990+0000000009+I20000000000+0000002990+Z
168853001168853562-000504     168853006001023619327EDU CUBE RUBIX         0000001000+00002630+00000+0001T   00002630+0000001834          1400 NY5755               2DZ
168854000168854               168854               170213AE     1400+00000+AE0000005787+0000005787+000000000+000000811+0000006590+0000000008+I20000000000+0000006590+Z
168854001168854368-000049     168854006003000536955PLUSH BEAR 15cm LOVE   0000001000+00004385+00000+0001T   00004385+0000001835          1400 NY5745               2DZ
168854002168854304-001204     168854006001023737984FLOWER OCC. TEDDY/ROSES0000001000+00001402+00000+0001T   00001490+0006471835          1400 NY5510               2DZ
168855000168855               168855               170213AE     1400+00000+AE0000000647+0000000647+000000000+000000091+0000000738+0000000000+I40000000738+0000000000+Z
168855001168855079-009700-B   168855006003000547661PAPER SIRIO A4 WHITE   0000002000+00000306+00000+0001T   00000306+0000001837          1400 NY5130               2DZ
168855002168855112-116038     168855006009681820246TCS CARRIER BAG MIDI   0000001000+00000035+00000+0001T   00000035+0000001837          1400 NY5090               2DZ
168856000168856               168856               170213AE     1400+00000+AE0000002630+0000002630+000000000+000000369+0000002990+0000000009+I20000000000+0000002990+Z
168856001168856077-000235     168856006003000160211GIFT-RIBBON ROLL METALC0000001000+00002630+00000+0001T   00002630+0000001838          1400 NY5112               2DZ
168857000168857               168857               170213AE     1400+00000+AE0000002804+0000002804+000000000+000000394+0000003198+0000000000+I40000003198+0000000000+Z
168857001168857077-000299-A   168857006003000670888GIFT-BAG PAPER JMB LOVE0000001000+00001753+00000+0001T   00001753+0000001847          1400 NY5112               2DZ
168857002168857079-009702-B   168857008427973059491PAPER SIRIO A2 WHITE   0000001000+00001051+00000+0001T   00001051+0000001847          1400 NY5130               2DZ
168858000168858               168858               170213AE     1400+00000+AE0000006139+0000006139+000000000+000000860+0000006999+0000000000+I40000006999+0000000000+Z
168858001168858368-000265     168858006001023750914PLUSH BEAR 23CM ASSTD C0000001000+00006139+00000+0001T   00006139+0000001848          1400 NY5745               2DZ
168859000168859               168859               170213AE     1400+00000+AE0000001753+0000001753+000000000+000000246+0000001999+0000000000+I40000001999+0000000000+Z
168859001168859077-000115     168859006001023834225WRAP METALLIC 700mmx1m 0000001000+00001753+00000+0001T   00001753+0000001851          1400 NY5112               2DZ
168860000168860               168860               170213AE     1400+00000+AE0000023900+0000023900+000000000+000003347+0000027247+0000000000+I40000027247+0000000000+Z
168860001168860206-000410     168860006003000619382SOUP LADLE SEAMONSTER  0000001000+00004385+00000+0001T   00004385+0000001853          1400 NY5321               2DZ
168860002168860002-000681     168860006001023693747K/TOOL NYL SOLID-SPOON 0000001000+00002192+00000+0001T   00002192+0000001853          1400 NY5300               2DZ
168860003168860002-012271     168860006001023849120TONGS 23cm RUBBER-GRIP 0000001000+00003507+00000+0001T   00003507+0000001853          1400 NY5300               2DZ
168860004168860039-000108     168860006001023524034TEA-LITE CANDLES 8PCE  0000001000+00001490+00000+0001T   00001490+0000001853          1400 NY5510               2DZ
168860005168860105-001246     168860006003000621194CONTAINER RECTANGULAR  0000001000+00003507+00000+0001T   00003507+0000001853          1400 NY5210               2DZ
168860006168860019-000076     168860006001023757159V/GLASS 25CM C/DESIGN  0000001000+00008771+00000+0001T   00008771+0000001853          1400 NY5510               2DZ
168860007168860112-116069     168860006009681820277TCS CARRIER BAG JUMBO  0000001000+00000048+00000+0001T   00000048+0000001853          1400 NY5090               2DZ
168861000168861               168861               170213AE     1400+00000+AE0000005260+0000005260+000000000+000000738+0000005990+0000000008+I20000000000+0000005990+Z
168861001168861108-003024     168861006003000667284TUMBLER W/STRAW 450ML  0000002000+00002630+00000+0001T   00002630+0000001854          1400 NY5210               2DZ
168862000168862               168862               170213AE     1400+00000+AE0000003069+0000003069+000000000+000000430+0000003490+0000000009+I20000000000+0000003490+Z
168862001168862072-020322     168862006003000603701PET DOG TOY TUG-ROPE   0000001000+00003069+00000+0001T   00003069+0000001856          1400 NY5870               2DZ
168863000168863               168863               170213AE     1400+00000+AE0000000306+0000000306+000000000+000000043+0000000340+0000000009+I20000000000+0000000340+Z
168863001168863079-009700-I   168863006003000546114PAPER SIRIO A4 LILAC   0000001000+00000306+00000+0001T   00000306+0000001856          1400 NY5130               2DZ
168864000168864               168864               170213AE     1400+00000+AE0000001753+0000001753+000000000+000000246+0000001999+0000000000+I40000001999+0000000000+Z
168864001168864206-000370     168864006003000631315STRAW P/DRINKING GLASS 0000001000+00001753+00000+0001T   00001753+0000001858          1400 NY5321               2DZ
168865000168865               168865               170213AE     1400+00000+AE0000003243+0000003243+000000000+000000455+0000003690+0000000008+I20000000000+0000003690+Z
168865001168865077-000311     168865006001023608666GIFT-BAG 11X14CM GLOSS 0000001000+00000613+00000+0001T   00000613+0000001902          1400 NY5112               2DZ
168865002168865007-000581     168865006001023710154NOTE-BOOK SET ASSTD    0000001000+00002630+00000+0001T   00002630+0000001902          1400 NY5130               2DZ
168866000168866               168866               170213AE     1400+00000+AE0000004207+0000004207+000000000+000000589+0000004790+0000000006+I20000000000+0000004790+Z
168866001168866261-000035     168866006003000550258GUN 4PC POLICE SET     0000001000+00003507+00000+0001T   00003507+0000001903          1400 NY5710               2DZ
168866002168866261-000121     168866006001023341600GUN-CAPS 8-SHOT CARD-9 0000001000+00000700+00000+0001T   00000700+0000001903          1400 NY5710               2DZ
168867000168867               168867               170213AE     1400+00000+AE0000003542+0000003542+000000000+000000496+0000004030+0000000008+I20000000000+0000004030+Z
168867001168867112-116038     168867006009681820246TCS CARRIER BAG MIDI   0000001000+00000035+00000+0001T   00000035+0000001904          1400 NY5090               2DZ
168867002168867018-005009     168867006001023725608MUG W/PLUSH-BEAR LOVE  0000001000+00003507+00000+0001T   00003507+0000001904          1400 NY5515               2DZ
A17021300                                          12471048AESLAVE 2                       NY52IC
A17021301                                          18422966AESLAVE 2                       NY52IC
A17021302                                          19011384AESLAVE 2                       NY52IC
C16882600                                          170213AE304-001204     17544724SLAVE 2     NY52IC0000000000+0000000000+0010000001000+
C16882601                                          170213AE903-004960     17545453SLAVE 2     NY52IC0000000000+0000000000+0020000001000+
C16882602                                          170213AE261-002266     17550060SLAVE 2     NY52IC0000000000+0000000000+0030000001000+
C16882603                                          170213AE007-000555     17551210SLAVE 2     NY52IC0000000000+0000000000+0040000002000+
C16882604                                          170213AE903-004961     17552587SLAVE 2     NY52IC0000000000+0000000000+0050000001000+
M17021391                              CASH        AESLAVE 2                       Z-REPORT No.   293TOTAL (Sales - Refunds)           8497.25       CASH TO BE BANKED                 3054.00       DEBIT CARDS                          0.00       CREDIT CARDS                      5443.25       Z-READING                         8497.25       AIRTIME DEBIT CARD SALES             0.00       AIRTIME CARD SALES                   0.00       OVERS/UNDERS                         0.00       AIRTIME CASH SALES                   0.00       GIFT CARDS                           0.00       GIFT CARD CASH SALES                 0.00       T O T A L  CASH PAYOUTS              0.00                                                                                                                                                                                                                                                                                                                                                      Z
M17021392                              CASH        AEABSENT                                                                                                                                                                                          ANNUAL LEAVE                                                                                                                                                                                    DAY OFF                                                                                                                                                                                         COMMENTS                                                                                                                                                                                                                                                                                                                                                                                       Z
Y17021300                                          AE00000000748374+000120
ZAE17021319193 SLAVE 2      SALES DATA                     NEXT INVOICE NO.  168868 0293
X AE Slave 2 First invoice 168748 170213 Last invoice 168867 170213 Next invoice 168868 Total number of records 000000407 clbackup completed 19:19:09
