119440000119440               119440               170213BA     1400+00000+BA0000005697+0000005697+000000000+000000799+0000006490+0000000006+I20000000000+0000006490+Z
119440001119440077-000239     119440006003000160419GIFT-RIBBON ROLL PEARL 0000001000+00001753+00000+0001T   00001753+0000000959          1400 BV7112               1AZ
119440002119440261-008349     119440006001023787590CAP-GUN 8-SHOT         0000001000+00002192+00000+0001T   00002192+0000000959          1400 BV7710               1AZ
119440003119440077-000011-C   119440006001023808523TISSUE 10xSHTS RED     0000001000+00000876+00000+0001T   00000876+0000000959          1400 BV7112               1AZ
119440004119440077-000151     119440006008766114676GIFT-WRAP C/PHANE ASSTD0000001000+00000876+00000+0001T   00000876+0000000959          1400 BV7112               1AZ
119441000119441               119441               170213BA     1400+00000+BA0000001753+0000001753+000000000+000000246+0000001990+0000000009+I20000000000+0000001990+Z
119441001119441264-000921     119441000090159150442MAISTO CAR 3" FRESH    0000001000+00001753+00000+0001T   00001753+0000001002          1400 BV7710               1AZ
119442000119442               119442               170213BA     1400+00000+BA0000001139+0000001139+000000000+000000160+0000001290+0000000009+I20000000000+0000001290+Z
119442001119442071-004202     119442006001023417176SCISSORS-SCHOOL PL/MTL 0000001000+00001139+00000+0001T   00001139+0000001003          1400 BV7130               1AZ
119443000119443               119443               170213BA     1400+00000+BA0000008771+0000008771+000000000+000001228+0000009990+0000000009+I20000000000+0000009990+Z
119443001119443020-000751     119443006003000308446KNIFE+LIFTER 25-30CM   0000001000+00008771+00000+0001T   00008771+0000001004          1400 BV7300               1AZ
119444000119444               119444               170213BA     1400+00000+BA0000001753+0000001753+000000000+000000246+0000001999+0000000000+I40000001999+0000000000+Z
119444001119444080-000108     119444006003000237210CARD&ENVLPE BDAY-BOY   0000001000+00001753+00000+0001T   00001753+0000001008          1400 BV7112               1AZ
119445000119445               119445               170213BA     1400+00000+BA0000002628+0000002628+000000000+000000368+0000002990+0000000006+I20000000000+0000002990+Z
119445001119445903-000194     119445006009826020616SWT CHOC RP LOLLY 25G  0000002000+00001314+00000+0001T   00001314+0000001009          1400 BV7150               1AZ
119446000119446               119446               170213BA     1400+00000+BA0000004382+0000004382+000000000+000000615+0000004997+0000000000+I40000004997+0000000000+Z
119446002119446031-000868-B   119446006001023798565P/FRAME PL BLCK 13X18CM0000001000+00002630+00000+0001T   00002630+0000001022          1400 BV7510               1AZ
119446003119446031-000878-A   119446006001023798985P/FRAME 10x15cm PL-SLID0000002000+00000876+00000+0001T   00000876+0000001022          1400 BV7510               1AZ
119447000119447               119447               170213BA     1400+00000+BA0000008817+0000008817+000000000+000001236+0000010053+0000000000+I40000010053+0000000000+Z
119447001119447306-000021-C   119447006003000567294EARBUDS 300PCE IN TUB  0000001000+00001753+00000+0001T   00001753+0000001025          1400 BV7200               1AZ
119447002119447174-000305     119447006003000105502TRAVEL NECK-PILLOW     0000001000+00007016+00000+0001T   00007016+0000001025          1400 BV7205               1AZ
119447003119447112-116069     119447006009681820277TCS CARRIER BAG JUMBO  0000001000+00000048+00000+0001T   00000048+0000001025          1400 BV7090               1AZ
119448000119448               119448               170213BA     1400+00000+BA0000004383+0000004383+000000000+000000615+0000004990+0000000008+I20000000000+0000004990+Z
119448001119448027-008813     119448006001023552334DUSTER RETRCTABLE 122cm0000001000+00002630+00000+0001T   00002630+0000001026          1400 BV7212               1AZ
119448002119448072-000232     119448006003000236060DOG-COL REFLCTV 35-51cm0000001000+00001753+00000+0001T   00001753+0000001026          1400 BV7870               1AZ
119449000119449               119449               170213BA     1400+00000+BA0000006573+0000006573+000000000+000000922+0000007490+0000000005+I20000000000+0000007490+Z
119449001119449903-004950     119449006002580020304SWT APRICOT SURPRISE   0000001000+00001314+00000+0001T   00001314+0000001033          1400 BV7150               1AZ
119449002119449200-003024     119449006001023657299REFUSE BAGS 20PCE BLACK0000001000+00001753+00000+0001T   00001753+0000001033          1400 BV7214               1AZ
119449003119449106-007125     119449006003000057689MILK-SACHET-JUG 1,0L   0000002000+00001753+00000+0001T   00001753+0000001033          1400 BV7210               1AZ
119450000119450               119450               170213BA     1400+00000+BA0000003506+0000003506+000000000+000000492+0000003990+0000000008+I20000000000+0000003990+Z
119450001119450565-000050     119450006001023906199SLIME BOMB DISPLAY BOX 0000001000+00001753+00000+0001T   00001753+0000001036          1400 BV7745               1AZ
119450002119450200-003024     119450006001023657299REFUSE BAGS 20PCE BLACK0000001000+00001753+00000+0001T   00001753+0000001036          1400 BV7214               1AZ
119451000119451               119451               170213BA     1400+00000+BA0000003027+0000003027+000000000+000000425+0000003452+0000000000+I40000003452+0000000000+Z
119451001119451018-000127     119451006001023380289MUG OCC STRAIGHT LOVE  0000001000+00001578+00000+0001T   00001753+0006471039          1400 BV7515               1AZ
119451002119451071-003004     119451006003000662821PEN BALL POINT 3PC BLUE0000001000+00000876+00000+0001T   00000876+0000001039          1400 BV7130               1AZ
119451003119451007-000402     119451006009635830864EXERCISE-BOOK A4 72PGE 0000001000+00000525+00000+0001T   00000525+0000001039          1400 BV7130               1AZ
119451004119451112-116069     119451006009681820277TCS CARRIER BAG JUMBO  0000001000+00000048+00000+0001T   00000048+0000001039          1400 BV7090               1AZ
119452000119452               119452               170213BA     1400+00000+BA0000001927+0000001927+000000000+000000270+0000002190+0000000007+I20000000000+0000002190+Z
119452001119452903-000194     119452006009826020616SWT CHOC RP LOLLY 25G  0000001000+00001314+00000+0001T   00001314+0000001040          1400 BV7150               1AZ
119452002119452077-000311     119452006001023608666GIFT-BAG 11X14CM GLOSS 0000001000+00000613+00000+0001T   00000613+0000001040          1400 BV7112               1AZ
119453000119453               119453               170213BA     1400+00000+BA0000013196+0000013196+000000000+000001850+0000015040+0000000006+I20000000000+0000015040+Z
119453001119453366-007600     119453006001023902184MASK THEATRICAL GLITTER0000001000+00001753+00000+0001T   00001753+0000001046          1400 BV7131               1AZ
119453002119453366-007601     119453006003000655472DRESS UP MASK THEATRICA0000002000+00000876+00000+0001T   00000876+0000001046          1400 BV7131               1AZ
119453003119453006-000166-D   119453006003000516490BALLOONS LRG 6PC RED   0000002000+00001314+00000+0001T   00001314+0000001046          1400 BV7131               1AZ
119453004119453006-000802     119453006003000653553STREAMERS 5-ROLLS 2.5cm0000001000+00001753+00000+0001T   00001753+0000001046          1400 BV7131               1AZ
119453005119453112-116069     119453006009681820277TCS CARRIER BAG JUMBO  0000001000+00000048+00000+0001T   00000048+0000001046          1400 BV7090               1AZ
119453006119453366-001100     119453006003000031443DRESS UP HAT PIRATE    0000001000+00005262+00000+0001T   00005262+0000001046          1400 BV7131               1AZ
119454000119454               119454               170213BA     1400+00000+BA0000001139+0000001139+000000000+000000160+0000001290+0000000009+I20000000000+0000001290+Z
119454001119454027-000081     119454006001023760371SCOURING PADS 10PCE    0000001000+00001139+00000+0001T   00001139+0000001047          1400 BV7212               1AZ
119455000119455               119455               170213BA     1400+00000+BA0000000613+0000000613+000000000+000000086+0000000690+0000000009+I20000000000+0000000690+Z
119455001119455200-000065     119455006001023323675DRINKING-STRAWS 38PCE  0000001000+00000613+00000+0001T   00000613+0000001054          1400 BV7214               1AZ
119456000119456               119456               170213BA     1400+00000+BA0000003329+0000003329+000000000+000000468+0000003790+0000000007+I20000000000+0000003790+Z
119456001119456077-000010-D   119456006001023123886CREPE-PAPER WHITE      0000001000+00000788+00000+0001T   00000788+0000001216          1400 BV7112               1AZ
119456002119456077-000010-C   119456006001023123879CREPE-PAPER RED        0000001000+00000788+00000+0001T   00000788+0000001216          1400 BV7112               1AZ
119456003119456077-000351     119456006003000139033GIFT-BAG 18X23CM E/D P 0000001000+00001753+00000+0001T   00001753+0000001216          1400 BV7112               1AZ
119457000119457               119457               170213BA     1400+00000+BA0000001139+0000001139+000000000+000000160+0000001290+0000000009+I20000000000+0000001290+Z
119457001119457159-000445     119457006001023669728SOAP-BOX PL OVAL       0000001000+00001139+00000+0001T   00001139+0000001217          1400 BV7200               1AZ
119458000119458               119458               170213BA     1400+00000+BA0000004383+0000004383+000000000+000000615+0000004990+0000000008+I20000000000+0000004990+Z
119458001119458079-000275     119458006003000160488PAINT-BRUSHES 6PCE PRO 0000001000+00001753+00000+0001T   00001753+0000001228          1400 BV7130               1AZ
119458002119458079-000282     119458006001023493309PAINT TUBS POSTER 12COL0000001000+00002630+00000+0001T   00002630+0000001228          1400 BV7130               1AZ
119459000119459               119459               170213BA     1400+00000+BA0000000964+0000000964+000000000+000000135+0000001090+0000000009+I20000000000+0000001090+Z
119459001119459903-000843     119459008693029031067SWT GUMMY JELAXY 80G   0000001000+00000964+00000+0001T   00000964+0000001231          1400 BV7150               1AZ
119460000119460               119460               170213BA     1400+00000+BA0000002630+0000002630+000000000+000000369+0000002990+0000000009+I20000000000+0000002990+Z
119460001119460567-011912     119460009780799375459BK EDU VOORSPRONG AFR  0000001000+00002630+00000+0001T   00002630+0000001234          1400 BV7757               1AZ
119461000119461               119461               170213BA     1400+00000+BA0000000964+0000000964+000000000+000000135+0000001090+0000000009+I20000000000+0000001090+Z
119461001119461903-000843     119461008693029031067SWT GUMMY JELAXY 80G   0000001000+00000964+00000+0001T   00000964+0000001235          1400 BV7150               1AZ
119462000119462               119462               170213BA     1400+00000+BA0000003981+0000003981+000000000+000000558+0000004530+0000000009+I20000000000+0000004530+Z
119462001119462017-000251     119462006003000242689P/ALBUM 36-PHOTO PLAIN 0000001000+00003946+00000+0001T   00003946+0000001237          1400 BV7510               1AZ
119462002119462112-116038     119462006009681820246TCS CARRIER BAG MIDI   0000001000+00000035+00000+0001T   00000035+0000001237          1400 BV7090               1AZ
119463000119463               119463               170213BA     1400+00000+BA0000001753+0000001753+000000000+000000246+0000001990+0000000009+I20000000000+0000001990+Z
119463001119463080-000113     119463006003000237449CARD&ENVLPE - LOVE     0000001000+00001753+00000+0001T   00001753+0000001238          1400 BV7112               1AZ
119464000119464               119464               170213BA     1400+00000+BA0000001753+0000001753+000000000+000000246+0000001990+0000000009+I20000000000+0000001990+Z
119464001119464080-000113     119464006003000237449CARD&ENVLPE - LOVE     0000001000+00001753+00000+0001T   00001753+0000001238          1400 BV7112               1AZ
119465000119465               119465               170213BA     1400+00000+BA0000002892+0000002892+000000000+000000406+0000003290+0000000008+I20000000000+0000003290+Z
119465001119465903-000087     119465006001704000161SWT SPECKLED-EGGS 50G  0000001000+00001139+00000+0001T   00001139+0000001243          1400 BV7150               1AZ
119465002119465306-000024-A   119465006003000577309COTTON-WOOL-PADS 80PC  0000001000+00001753+00000+0001T   00001753+0000001243          1400 BV7200               1AZ
119466000119466               119466               170213BA     1400+00000+BA0000014431+0000014431+000000000+000002021+0000016452+0000000000+I40000016452+0000000000+Z
119466001119466048-000700     119466006001023849731HEAD-LAMP 10xLED (3xAAA0000001000+00004385+00000+0001T   00004385+0000001246          1400 BV7305               1AZ
119466002119466040-000213     119466006001023617736CANDLE-HOLDER DAISY    0000001000+00001227+00000+0001T   00001227+0000001246          1400 BV7510               1AZ
119466003119466039-000799     119466006001023692382CANDLES TEALITE 100PCE 0000001000+00008771+00000+0001T   00008771+0000001246          1400 BV7510               1AZ
119466004119466112-116069     119466006009681820277TCS CARRIER BAG JUMBO  0000001000+00000048+00000+0001T   00000048+0000001246          1400 BV7090               1AZ
119467000119467               119467               170213BA     1400+00000+BA0000024162+0000024162+000000000+000003385+0000027547+0000000000+I40000027547+0000000000+Z
119467001119467004-071206     119467006003000605156USB CABLE CHARGER      0000001000+00003507+00000+0001T   00003507+0000001249          1400 BV7310               1AZ
119467002119467206-000320     119467006003000632909BOTTLE STOPPER+MARKERS 0000001000+00005262+00000+0001T   00005262+0000001249          1400 BV7321               1AZ
119467003119467903-004952     119467006002580020052SWT FREAKY FACES 100G  0000001000+00001314+00000+0001T   00001314+0000001249          1400 BV7150               1AZ
119467004119467206-000250     119467006003000632060PEELER POTATOE-MAN     0000001000+00002630+00000+0001T   00002630+0000001249          1400 BV7321               1AZ
119467005119467206-000600     119467006003000631551TOILET PAPER SUDUKO    0000001000+00002630+00000+0001T   00002630+0000001249          1400 BV7321               1AZ
119467006119467206-000420     119467006003000619504MUG NOVELTY GOLF       0000001000+00008771+00000+0001T   00008771+0000001249          1400 BV7321               1AZ
119467007119467112-116069     119467006009681820277TCS CARRIER BAG JUMBO  0000001000+00000048+00000+0001T   00000048+0000001249          1400 BV7090               1AZ
119468000119468               119468               170213BA     1400+00000+BA0000008025+0000008025+000000000+000001126+0000009150+0000000001+I20000000000+0000009150+Z
119468001119468030-000030-A   119468006003000249305PLAQUE GLASS LOVE      0000001000+00003069+00000+0001T   00003069+0000001253          1400 BV7505               1AZ
119468002119468080-000113     119468006003000237449CARD&ENVLPE - LOVE     0000001000+00001753+00000+0001T   00001753+0000001253          1400 BV7112               1AZ
119468003119468077-000472     119468006003000330133G-BAG DESGNR LRG 25X32 0000001000+00001753+00000+0001T   00001753+0000001253          1400 BV7112               1AZ
119468004119468112-116069     119468006009681820277TCS CARRIER BAG JUMBO  0000001000+00000048+00000+0001T   00000048+0000001253          1400 BV7090               1AZ
119468005119468304-001204     119468006001023737984FLOWER OCC. TEDDY/ROSES0000001000+00001402+00000+0001T   00001490+0006471253          1400 BV7510               1AZ
119469000119469               119469               170213BA     1400+00000+BA0000004957+0000004957+000000000+000000695+0000005650+0000000002+I20000000000+0000005650+Z
119469001119469304-001204     119469006001023737984FLOWER OCC. TEDDY/ROSES0000001000+00001402+00000+0001T   00001490+0006471255          1400 BV7510               1AZ
119469002119469018-005009     119469006001023725608MUG W/PLUSH-BEAR LOVE  0000001000+00003507+00000+0001T   00003507+0000001255          1400 BV7515               1AZ
119469003119469112-116069     119469006009681820277TCS CARRIER BAG JUMBO  0000001000+00000048+00000+0001T   00000048+0000001255          1400 BV7090               1AZ
119470000119470               119470               170213BA     1400+00000+BA0000022501+0000022501+000000000+000003152+0000025650+0000000003+I20000000000+0000025650+Z
119470001119470495-058857     119470000078257588572INTEX LOUNGER 155x97cm 0000001000+00021051+00000+0001T   00021051+0000001324          1400 BV7787               1AZ
119470002119470304-001204     119470006001023737984FLOWER OCC. TEDDY/ROSES0000001000+00001402+00000+0001T   00001490+0006471324          1400 BV7510               1AZ
119470003119470112-116069     119470006009681820277TCS CARRIER BAG JUMBO  0000001000+00000048+00000+0001T   00000048+0000001324          1400 BV7090               1AZ
119471000119471               119471               170213BA     1400+00000+BA0000002630+0000002630+000000000+000000369+0000002990+0000000009+I20000000000+0000002990+Z
119471001119471056-005748     119471006003000491797CAR AIR-FRESH HATS ASST0000001000+00002630+00000+0001T   00002630+0000001324          1400 BV7860               1AZ
119472000119472               119472               170213BA     1400+00000+BA0000001753+0000001753+000000000+000000246+0000001990+0000000009+I20000000000+0000001990+Z
119472001119472369-001137     119472006003000555062VINYL 5.7cm THEMED DUCK0000001000+00001753+00000+0001T   00001753+0000001326          1400 BV7745               1AZ
119473000119473               119473               170213BA     1400+00000+BA0000002980+0000002980+000000000+000000418+0000003390+0000000008+I20000000000+0000003390+Z
119473001119473140-001004     119473006001023880932FLY-RIBBONS 4PCE PL    0000002000+00001490+00000+0001T   00001490+0000001331          1400 BV7830               1AZ
119474000119474               119474               170213BA     1400+00000+BA0000001753+0000001753+000000000+000000246+0000001990+0000000009+I20000000000+0000001990+Z
119474001119474080-000113     119474006003000237449CARD&ENVLPE - LOVE     0000001000+00001753+00000+0001T   00001753+0000001333          1400 BV7112               1AZ
119475000119475               119475               170213BA     1400+00000+BA0000001753+0000001753+000000000+000000246+0000001990+0000000009+I20000000000+0000001990+Z
119475001119475077-000455     119475006003000285389G/BAG METALLIC LRG SOL 0000001000+00001753+00000+0001T   00001753+0000001335          1400 BV7112               1AZ
119476000119476               119476               170213BA     1400+00000+BA0000008767+0000008767+000000000+000001229+0000009990+0000000006+I20000000000+0000009990+Z
119476001119476018-005009     119476006001023725608MUG W/PLUSH-BEAR LOVE  0000001000+00003507+00000+0001T   00003507+0000001339          1400 BV7515               1AZ
119476002119476018-000129     119476006001023403353MUG OCC. LOVE V-SHAPE  0000001000+00002630+00000+0001T   00002630+0000001339          1400 BV7515               1AZ
119476003119476077-000270     119476006003000395453GIFT-BAG PPR JMB 33X45 0000001000+00002630+00000+0001T   00002630+0000001339          1400 BV7112               1AZ
119477000119477               119477               170213BA     1400+00000+BA0000013639+0000013639+000000000+000001912+0000015550+0000000001+I20000000000+0000015550+Z
119477001119477018-050000     119477006003000412679MUG OCC LOVE TWIN BEAR 0000001000+00006139+00000+0001T   00006139+0000001345          1400 BV7515               1AZ
119477002119477301-085008     119477006003000673933ORN OCC.LOVE TINSEL HRT0000001000+00003069+00000+0001T   00003069+0000001345          1400 BV7505               1AZ
119477003119477206-000590     119477006003000633708BAG CLIPS LIPS 2PC     0000001000+00001753+00000+0001T   00001753+0000001345          1400 BV7321               1AZ
119477004119477304-000720     119477006001023843050F/BUNCH ROSE 6-HEAD AST0000001000+00002630+00000+0001T   00002630+0000001345          1400 BV7510               1AZ
119477005119477112-116069     119477006009681820277TCS CARRIER BAG JUMBO  0000001000+00000048+00000+0001T   00000048+0000001345          1400 BV7090               1AZ
119478000119478               119478               170213BA     1400+00000+BA0000005260+0000005260+000000000+000000738+0000005990+0000000008+I20000000000+0000005990+Z
119478001119478079-001002     119478006003000448715CANVAS A4 WOOD MOUNTED 0000002000+00002630+00000+0001T   00002630+0000001347          1400 BV7130               1AZ
119479000119479               119479               170213BA     1400+00000+BA0000006186+0000006186+000000000+000000867+0000007050+0000000003+I20000000000+0000007050+Z
119479001119479024-000002     119479006001023741899S/BURNER-COVER SILV/BLK0000001000+00003946+00000+0001T   00004385+0008191349          1400 BV7300               1AZ
119479002119479002-000684     119479006001023693778K/TOOL TURNER H/HOUSE  0000001000+00002192+00000+0001T   00002192+0000001349          1400 BV7300               1AZ
119479003119479112-116069     119479006009681820277TCS CARRIER BAG JUMBO  0000001000+00000048+00000+0001T   00000048+0000001349          1400 BV7090               1AZ
119480000119480               119480               170213BA     1400+00000+BA0000002629+0000002629+000000000+000000369+0000002990+0000000008+I20000000000+0000002990+Z
119480001119480007-000050     119480006001023528285DISPLAY-ENVELOPE A4    0000001000+00001753+00000+0001T   00001753+0000001354          1400 BV7130               1AZ
119480002119480007-000045     119480006009608640438DISPLAY-POCKETS A4 10PC0000001000+00000876+00000+0001T   00000876+0000001354          1400 BV7130               1AZ
119481000119481               119481               170213BA     1400+00000+BA0000002629+0000002629+000000000+000000369+0000002990+0000000008+I20000000000+0000002990+Z
119481001119481079-013099     119481006003000081875ART+CRAFT EYES ASSTD   0000001000+00001753+00000+0001T   00001753+0000001358          1400 BV7130               1AZ
119481002119481566-000200     119481006003000384174STICKER PUFFY NEON     0000001000+00000876+00000+0001T   00000876+0000001358          1400 BV7130               1AZ
119482000119482               119482               170213BA     1400+00000+BA0000013157+0000013157+000000000+000001842+0000014990+0000000009+I20000000000+0000014990+Z
119482001119482079-001004     119482006003000590827PAINT PALLET CANVAS    0000001000+00013157+00000+0001T   00013157+0000001402          1400 BV7130               1AZ
119483000119483               119483               170213BA     1400+00000+BA0000009112+0000009112+000000000+000001277+0000010389+0000000000+I40000010389+0000000000+Z
119483001119483903-000123     119483006925925909280SWEET GS MINI MALLOWS  0000001000+00000876+00000+0001T   00000876+0000001407          1400 BV7150               1AZ
119483002119483566-000068     119483006003000418046POP UP LOVE 2 ASSTD    0000001000+00002192+00000+0001T   00002192+0000001407          1400 BV7130               1AZ
119483003119483566-000200     119483006003000384174STICKER PUFFY NEON     0000001000+00000876+00000+0001T   00000876+0000001407          1400 BV7130               1AZ
119483004119483566-002000     119483000721129013206STICKERS CRYSTAL ASSTD 0000003000+00000700+00000+0001T   00000700+0000001407          1400 BV7130               1AZ
119483005119483566-000200     119483006003000384174STICKER PUFFY NEON     0000001000+00000876+00000+0001T   00000876+0000001407          1400 BV7130               1AZ
119483006119483563-000318-L   119483006003000407088SERVIETTES 33cm RED    0000001000+00002192+00000+0001T   00002192+0000001407          1400 BV7214               1AZ
119484000119484               119484               170213BA     1400+00000+BA0000001753+0000001753+000000000+000000246+0000001990+0000000009+I20000000000+0000001990+Z
119484001119484079-006500     119484006001023557186GLUE GLITTER 6/10 PCE  0000001000+00001753+00000+0001T   00001753+0000001410          1400 BV7130               1AZ
119485000119485               119485               170213BA     1400+00000+BA0000007366+0000007366+000000000+000001032+0000008398+0000000000+I40000008398+0000000000+Z
119485001119485047-000522-H   119485006003000465262EXT-CORD 3m 1x16A+1xSHK0000001000+00006578+00000+0001T   00006578+0000001414          1400 BV7880               1AZ
119485002119485903-000138     119485006002099004314SWT GS WINE GUMS 60G   0000001000+00000788+00000+0001T   00000788+0000001414          1400 BV7150               1AZ
119486000119486               119486               170213BA     1400+00000+BA0000001753+0000001753+000000000+000000246+0000001990+0000000009+I20000000000+0000001990+Z
119486001119486046-000014-A   119486004897006177708BATTERIES SIZE:AAA 8PCE0000001000+00001753+00000+0001T   00001753+0000001415          1400 BV7312               1AZ
119487000119487               119487               170213BA     1400+00000+BA0000011220+0000011220+000000000+000001572+0000012790+0000000002+I20000000000+0000012790+Z
119487001119487466-001017     119487006003000590544CRICKET-BAT PL W/BALL  0000001000+00003507+00000+0001T   00003507+0000001418          1400 BV7785               1AZ
119487002119487006-000851     119487006007151000273PARTY LUCKY-PACKET BOY 0000001000+00003946+00000+0001T   00003946+0000001418          1400 BV7131               1AZ
119487003119487564-000012     119487006001023130075BUBBLE BOTTLE MAGIC    0000001000+00000700+00000+0001T   00000700+0000001418          1400 BV7131               1AZ
119487004119487006-000120     119487006001023346889BALLOONS 10PC MIX COL  0000001000+00001753+00000+0001T   00001753+0000001418          1400 BV7131               1AZ
119487005119487903-000674     119487006009803358220SWT SHERBET W/LOLLY 4PK0000001000+00001314+00000+0001T   00001314+0000001418          1400 BV7150               1AZ
119488000119488               119488               170213BA     1400+00000+BA0000005600+0000005600+000000000+000000789+0000006380+0000000009+I20000000000+0000006380+Z
119488001119488077-000011-D   119488006001023808554TISSUE-WRAP WHITE 10PCE0000001000+00000876+00000+0001T   00000876+0000001620          1400 BV7112               1AZ
119488002119488077-000245     119488006001023759214GIFT-RIBBON METALLICx2 0000001000+00001227+00000+0001T   00001227+0000001620          1400 BV7112               1AZ
119488003119488077-000316     119488006001023609731GIFT-BAG 25X32CM MATT  0000001000+00001753+00000+0001T   00001753+0000001620          1400 BV7112               1AZ
119488004119488006-000172-A   119488006003000609765BALLOONS METALLIC PINK 0000008000+00000218+00000+0001T   00000218+0000001620          1400 BV7131               1AZ
119489000119489               119489               170213BA     1400+00000+BA0000003507+0000003507+000000000+000000491+0000003990+0000000008+I20000000000+0000003990+Z
119489001119489007-000324     11948900600968585864125 SHEETS BRIGHTS MARLI0000001000+00003507+00000+0001T   00003507+0000001621          1400 BV7130               1AZ
119490000119490               119490               170213BA     1400+00000+BA0000001576+0000001576+000000000+000000222+0000001790+0000000008+I20000000000+0000001790+Z
119490001119490077-000010-D   119490006001023123886CREPE-PAPER WHITE      0000001000+00000788+00000+0001T   00000788+0000001621          1400 BV7112               1AZ
119490002119490077-000010-U   119490006001023168863CREPE-PAPER CERISE-PINK0000001000+00000788+00000+0001T   00000788+0000001621          1400 BV7112               1AZ
119491000119491               119491               170213BA     1400+00000+BA0000001578+0000001578+000000000+000000221+0000001790+0000000009+I20000000000+0000001790+Z
119491001119491077-000303     119491006001023593757GIFT-BAG PAPER MED     0000001000+00001578+00000+0001T   00001578+0000001623          1400 BV7112               1AZ
119492000119492               119492               170213BA     1400+00000+BA0000003507+0000003507+000000000+000000491+0000003990+0000000008+I20000000000+0000003990+Z
119492001119492018-005009     119492006001023725608MUG W/PLUSH-BEAR LOVE  0000001000+00003507+00000+0001T   00003507+0000001625          1400 BV7515               1AZ
119493000119493               119493               170213BA     1400+00000+BA0000013899+0000013899+000000000+000001949+0000015848+0000000000+I40000015848+0000000000+Z
119493001119493018-050000     119493006003000412679MUG OCC LOVE TWIN BEAR 0000001000+00006139+00000+0001T   00006139+0000001639          1400 BV7515               1AZ
119493002119493903-000095     119493006001704011495SWT SPECKLED-EGGS 100G 0000002000+00002104+00000+0001T   00002104+0000001639          1400 BV7150               1AZ
119493003119493903-000897     119493008692806325207SWT CHOC DBL MINI ROLL 0000004000+00000876+00000+0001T   00000876+0000001639          1400 BV7150               1AZ
119493004119493112-116069     119493006009681820277TCS CARRIER BAG JUMBO  0000001000+00000048+00000+0001T   00000048+0000001639          1400 BV7090               1AZ
119494000119494               119494               170213BA     1400+00000+BA0000010219+0000010219+000000000+000001433+0000011652+0000000000+I40000011652+0000000000+Z
119494001119494304-001204     119494006001023737984FLOWER OCC. TEDDY/ROSES0000001000+00001402+00000+0001T   00001490+0006471641          1400 BV7510               1AZ
119494002119494077-000270     119494006003000395453GIFT-BAG PPR JMB 33X45 0000001000+00002630+00000+0001T   00002630+0000001641          1400 BV7112               1AZ
119494003119494018-050000     119494006003000412679MUG OCC LOVE TWIN BEAR 0000001000+00006139+00000+0001T   00006139+0000001641          1400 BV7515               1AZ
119494004119494112-116069     119494006009681820277TCS CARRIER BAG JUMBO  0000001000+00000048+00000+0001T   00000048+0000001641          1400 BV7090               1AZ
119495000119495               119495               170213BA     1400+00000+BA0000011090+0000011090+000000000+000001556+0000012640+0000000006+I20000000000+0000012640+Z
119495001119495200-000040     119495006001023729620BAG SEALERS 5PC CLIPS  0000001000+00002630+00000+0001T   00002630+0000001644          1400 BV7214               1AZ
119495002119495050-000263-Z   119495006001023777041PADLOCK BRS 32mm CARDED0000001000+00003507+00000+0001T   00003507+0000001644          1400 BV7855               1AZ
119495003119495564-000012     119495006001023130075BUBBLE BOTTLE MAGIC    0000001000+00000700+00000+0001T   00000700+0000001644          1400 BV7131               1AZ
119495004119495036-005010     119495006002580008739COATHANGER KIDDIES PL  0000001000+00002630+00000+0001T   00002630+0000001644          1400 BV7212               1AZ
119495005119495007-000127     119495006009685853431BOOK H/COVER MEMO 144PG0000001000+00000876+00000+0001T   00000876+0000001644          1400 BV7130               1AZ
119495006119495007-000407     119495006009635831717BK JOTTER A5 48-PG F/M 0000001000+00000174+00000+0001T   00000174+0000001644          1400 BV7130               1AZ
119495007119495007-000402     119495006009635830864EXERCISE-BOOK A4 72PGE 0000001000+00000525+00000+0001T   00000525+0000001644          1400 BV7130               1AZ
119495008119495112-116069     119495006009681820277TCS CARRIER BAG JUMBO  0000001000+00000048+00000+0001T   00000048+0000001644          1400 BV7090               1AZ
119496000119496               119496               170213BA     1400+00000+BA0000006534+0000006534+000000000+000000917+0000007450+0000000001+I20000000000+0000007450+Z
119496001119496076-000017     119496006001811010022TWINE COTTON 50g-BALL  0000001000+00000876+00000+0001T   00000876+0000001646          1400 BV7810               1AZ
119496002119496002-021042     119496006001023621801TOOTHPICKS 250PCE      0000001000+00001227+00000+0001T   00001227+0000001646          1400 BV7300               1AZ
119496003119496079-000282     119496006001023493309PAINT TUBS POSTER 12COL0000001000+00002630+00000+0001T   00002630+0000001646          1400 BV7130               1AZ
119496004119496079-003001     119496006003000448951A/TUBE 75ML BLACK      0000001000+00001753+00000+0001T   00001753+0000001646          1400 BV7130               1AZ
119496005119496112-116069     119496006009681820277TCS CARRIER BAG JUMBO  0000001000+00000048+00000+0001T   00000048+0000001646          1400 BV7090               1AZ
119497000119497               119497               170213BA     1400+00000+BA0000003507+0000003507+000000000+000000491+0000003990+0000000008+I20000000000+0000003990+Z
119497001119497018-005009     119497006001023725608MUG W/PLUSH-BEAR LOVE  0000001000+00003507+00000+0001T   00003507+0000001647          1400 BV7515               1AZ
119498000119498               119498               170213BA     1400+00000+BA0000001402+0000001402+000000000+000000197+0000001590+0000000009+I20000000000+0000001590+Z
119498001119498304-001204     119498006001023737984FLOWER OCC. TEDDY/ROSES0000001000+00001402+00000+0001T   00001490+0006471648          1400 BV7510               1AZ
119499000119499               119499               170213BA     1400+00000+BA0000001753+0000001753+000000000+000000246+0000001990+0000000009+I20000000000+0000001990+Z
119499001119499024-091100     119499006001023914224BAKING-CUPS PAPER 100PC0000001000+00001753+00000+0001T   00001753+0000001648          1400 BV7300               1AZ
119500000119500               119500               170213BA     1400+00000+BA0000012324+0000012324+000000000+000001727+0000014050+0000000001+I20000000000+0000014050+Z
119500001119500039-080959     119500006003000048922CANDLE PILLAR BALL 8CM 0000004000+00003069+00000+0001T   00003069+0000001650          1400 BV7510               1AZ
119500002119500112-116069     119500006009681820277TCS CARRIER BAG JUMBO  0000001000+00000048+00000+0001T   00000048+0000001650          1400 BV7090               1AZ
119501000119501               119501               170213BA     1400+00000+BA0000019738+0000019738+000000000+000002765+0000022503+0000000000+I40000022503+0000000000+Z
119501001119501564-000012     119501006001023130075BUBBLE BOTTLE MAGIC    0000025000+00000700+00000+0001T   00000700+0000001657          1400 BV7131               1AZ
119501002119501112-116069     119501006009681820277TCS CARRIER BAG JUMBO  0000001000+00000048+00000+0001T   00000048+0000001657          1400 BV7090               1AZ
119501003119501007-000230     119501006001023995315LABELS STICK-ON STARS  0000001000+00001753+00000+0001T   00001753+0000001657          1400 BV7130               1AZ
119501004119501080-000133-A   119501006003000647019MINI VALENTINES CARD   0000001000+00000437+00000+0001T   00000437+0000001657          1400 BV7112               1AZ
119502000119502               119502               170213BA     1400+00000+BA0000005297+0000005297+000000000+000000742+0000006039+0000000000+I40000006039+0000000000+Z
119502001119502366-002195     119502006001023990549DRESS UP WINGS FEATHER 0000001000+00005262+00000+0001T   00005262+0000001659          1400 BV7131               1AZ
119502002119502112-116038     119502006009681820246TCS CARRIER BAG MIDI   0000001000+00000035+00000+0001T   00000035+0000001659          1400 BV7090               1AZ
119503000119503               119503               170213BA     1400+00000+BA0000004385+0000004385+000000000+000000614+0000004990+0000000009+I20000000000+0000004990+Z
119503001119503368-000049     119503006003000536955PLUSH BEAR 15cm LOVE   0000001000+00004385+00000+0001T   00004385+0000001700          1400 BV7745               1AZ
119504000119504               119504               170213BA     1400+00000+BA0000000964+0000000964+000000000+000000135+0000001090+0000000009+I20000000000+0000001090+Z
119504001119504039-000336     119504006001023169129B'DAY-CANDLES MAGIC 10P0000001000+00000964+00000+0001T   00000964+0000001702          1400 BV7510               1AZ
119505000119505               119505               170213BA     1400+00000+BA0000002630+0000002630+000000000+000000369+0000002990+0000000009+I20000000000+0000002990+Z
119505001119505262-000651     119505006001023754561DIE CAST SET 5PC RACER 0000001000+00002630+00000+0001T   00002630+0000001704          1400 BV7710               1AZ
119506000119506               119506               170213BA     1400+00000+BA0000003506+0000003506+000000000+000000492+0000003990+0000000008+I20000000000+0000003990+Z
119506001119506006-000120     119506006001023346889BALLOONS 10PC MIX COL  0000001000+00001753+00000+0001T   00001753+0000001711          1400 BV7131               1AZ
119506002119506366-007600     119506006001023902184MASK THEATRICAL GLITTER0000001000+00001753+00000+0001T   00001753+0000001711          1400 BV7131               1AZ
119507000119507               119507               170213BA     1400+00000+BA0000001051+0000001051+000000000+000000148+0000001190+0000000009+I20000000000+0000001190+Z
119507001119507079-009702-C   119507008427973059309PAPER SIRIO A2 VIOLET  0000001000+00001051+00000+0001T   00001051+0000001713          1400 BV7130               1AZ
119508000119508               119508               170213BA     1400+00000+BA0000008771+0000008771+000000000+000001228+0000009990+0000000009+I20000000000+0000009990+Z
119508001119508368-000012     119508006003000610464PLUSH BEAR 30cm SITTING0000001000+00008771+00000+0001T   00008771+0000001717          1400 BV7745               1AZ
119509000119509               119509               170213BA     1400+00000+BA0000003542+0000003542+000000000+000000496+0000004038+0000000000+I40000004038+0000000000+Z
119509001119509018-000136     119509006001023659026MUG OCC LOVE W/PLUSH   0000001000+00003507+00000+0001T   00003507+0000001719          1400 BV7515               1AZ
119509002119509112-116038     119509006009681820246TCS CARRIER BAG MIDI   0000001000+00000035+00000+0001T   00000035+0000001719          1400 BV7090               1AZ
119510000119510               119510               170213BA     1400+00000+BA0000007893+0000007893+000000000+000001106+0000008990+0000000009+I20000000000+0000008990+Z
119510001119510566-000041     119510006003000265701SCRAPBOOK ALBUM 10PCKTS0000001000+00007893+00000+0001T   00007893+0000001720          1400 BV7130               1AZ
119511000119511               119511               170213BA     1400+00000+BA0000013023+0000013023+000000000+000001825+0000014840+0000000008+I20000000000+0000014840+Z
119511001119511018-005009     119511006001023725608MUG W/PLUSH-BEAR LOVE  0000001000+00003507+00000+0001T   00003507+0000001721          1400 BV7515               1AZ
119511002119511903-000499     119511006001704012492SWT CHOC MALLOWS 50g   0000001000+00001227+00000+0001T   00001227+0000001721          1400 BV7150               1AZ
119511003119511903-000194     119511006009826020616SWT CHOC RP LOLLY 25G  0000001000+00001314+00000+0001T   00001314+0000001721          1400 BV7150               1AZ
119511004119511903-000095     119511006001704011495SWT SPECKLED-EGGS 100G 0000001000+00002104+00000+0001T   00002104+0000001721          1400 BV7150               1AZ
119511005119511103-000250     119511006003000571673BASKET WOVEN 29x23x6cm 0000001000+00004823+00000+0001T   00004823+0000001721          1400 BV7300               1AZ
119511006119511112-116069     119511006009681820277TCS CARRIER BAG JUMBO  0000001000+00000048+00000+0001T   00000048+0000001721          1400 BV7090               1AZ
119512000119512               119512               170213BA     1400+00000+BA0000000613+0000000613+000000000+000000086+0000000690+0000000009+I20000000000+0000000690+Z
119512001119512077-000311     119512006001023608666GIFT-BAG 11X14CM GLOSS 0000001000+00000613+00000+0001T   00000613+0000001722          1400 BV7112               1AZ
119513000119513               119513               170213BA     1400+00000+BA0000013203+0000013203+000000000+000001850+0000015050+0000000003+I20000000000+0000015050+Z
119513001119513368-000021     119513006003000672141PLUSH DINOSAUR 27cm    0000001000+00007016+00000+0001T   00007016+0000001723          1400 BV7745               1AZ
119513002119513301-000013     119513006001023781604ORN SENTIMENT STONE 4-A0000001000+00006139+00000+0001T   00006139+0000001723          1400 BV7505               1AZ
119513003119513112-116069     119513006009681820277TCS CARRIER BAG JUMBO  0000001000+00000048+00000+0001T   00000048+0000001723          1400 BV7090               1AZ
119514000119514               119514               170213BA     1400+00000+BA0000002892+0000002892+000000000+000000406+0000003290+0000000008+I20000000000+0000003290+Z
119514001119514565-000071     119514006003000643387NOVELTY WIND UP CHATTER0000001000+00001139+00000+0001T   00001139+0000001724          1400 BV7745               1AZ
119514002119514077-000358     119514006003000329977GIFT-BAG KIDS 25X32CM  0000001000+00001753+00000+0001T   00001753+0000001724          1400 BV7112               1AZ
119515000119515               119515               170213BA     1400+00000+BA0000000876+0000000876+000000000+000000123+0000000990+0000000009+I20000000000+0000000990+Z
119515001119515077-000150-D   119515006003000054343GIFT-WRAP CELLPHANE CLR0000001000+00000876+00000+0001T   00000876+0000001724          1400 BV7112               1AZ
119516000119516               119516               170213BA     1400+00000+BA0000002192+0000002192+000000000+000000307+0000002490+0000000009+I20000000000+0000002490+Z
119516001119516203-005505     119516006003000441570S/GLS PL 3PC LIQUEUR   0000001000+00002192+00000+0001T   00002192+0000001725          1400 BV7300               1AZ
119517000119517               119517               170213BA     1400+00000+BA0000002192+0000002192+000000000+000000307+0000002490+0000000009+I20000000000+0000002490+Z
119517001119517203-005505     119517006003000441570S/GLS PL 3PC LIQUEUR   0000001000+00002192+00000+0001T   00002192+0000001726          1400 BV7300               1AZ
119518000119518               119518               170213BA     1400+00000+BA0000004029+0000004029+000000000+000000566+0000004590+0000000005+I20000000000+0000004590+Z
119518001119518006-000120     119518006001023346889BALLOONS 10PC MIX COL  0000001000+00001753+00000+0001T   00001753+0000001728          1400 BV7131               1AZ
119518002119518006-001000     119518006003000093779HELIUM BALLOON FILL    0000003000+00000613+00000+0001T   00000613+0000001728          1400 BV7131               1AZ
119518003119518080-000133     119518006003000535613CARD&ENV MINI ASTD DSGN0000001000+00000437+00000+0001T   00000437+0000001728          1400 BV7112               1AZ
119519000119519               119519               170213BA     1400+00000+BA0000003856+0000003856+000000000+000000540+0000004390+0000000006+I20000000000+0000004390+Z
119519001119519200-000100     119519006001023764003CUPS 25PCE DISPOSABLE  0000002000+00001928+00000+0001T   00001928+0000001729          1400 BV7214               1AZ
119520000119520               119520               170213BA     1400+00000+BA0000007892+0000007892+000000000+000001106+0000008990+0000000008+I20000000000+0000008990+Z
119520001119520018-050000     119520006003000412679MUG OCC LOVE TWIN BEAR 0000001000+00006139+00000+0001T   00006139+0000001730          1400 BV7515               1AZ
119520002119520077-000316     119520006001023609731GIFT-BAG 25X32CM MATT  0000001000+00001753+00000+0001T   00001753+0000001730          1400 BV7112               1AZ
119521000119521               119521               170213BA     1400+00000+BA0000001139+0000001139+000000000+000000160+0000001290+0000000009+I20000000000+0000001290+Z
119521001119521903-000087     119521006001704000161SWT SPECKLED-EGGS 50G  0000001000+00001139+00000+0001T   00001139+0000001731          1400 BV7150               1AZ
119522000119522               119522               170213BA     1400+00000+BA0000006831+0000006831+000000000+000000959+0000007790+0000000000+I40000007790+0000000000+Z
119522001119522903-000885     119522008690997017147SWT L/BIRD CHOC BISCUIT0000001000+00000437+00000+0001T   00000437+0000001737          1400 BV7150               1AZ
119522002119522903-000216     119522006925925900966SWT MALLOW TWIST ERKO  0000001000+00000262+00000+0001T   00000262+0000001737          1400 BV7150               1AZ
119522003119522077-000314     119522006003000181148GIFT-BAG 11X14CM MATT  0000001000+00000876+00000+0001T   00000876+0000001737          1400 BV7112               1AZ
119522004119522077-000312     119522006001023608697GIFT-BAG 10X35CM GLOSS 0000001000+00001314+00000+0001T   00001314+0000001737          1400 BV7112               1AZ
119522005119522077-000311     119522006001023608666GIFT-BAG 11X14CM GLOSS 0000001000+00000613+00000+0001T   00000613+0000001737          1400 BV7112               1AZ
119522006119522077-000312     119522006001023608697GIFT-BAG 10X35CM GLOSS 0000001000+00001314+00000+0001T   00001314+0000001737          1400 BV7112               1AZ
119522007119522903-000885     119522008690997017147SWT L/BIRD CHOC BISCUIT0000001000+00000437+00000+0001T   00000437+0000001737          1400 BV7150               1AZ
119522008119522018-000127     119522006001023380289MUG OCC STRAIGHT LOVE  0000001000+00001578+00000+0001T   00001753+0006471737          1400 BV7515               1AZ
119523000119523               119523               170213BA     1400+00000+BA0000005260+0000005260+000000000+000000737+0000005990+0000000007+I20000000000+0000005990+Z
119523001119523369-001138     119523006003000555185VINYL 8.5cm THEMED DUCK0000001000+00001753+00000+0001T   00002630+0008141738          1400 BV7745               1AZ
119523002119523903-000616     119523006003000644827SWT HS SWORD 60cm      0000001000+00003507+00000+0001T   00003507+0000001738          1400 BV7150               1AZ
119524000119524               119524               170213BA     1400+00000+BA0000003191+0000003191+000000000+000000447+0000003638+0000000000+I40000003638+0000000000+Z
119524001119524018-000127     119524006001023380289MUG OCC STRAIGHT LOVE  0000002000+00001578+00000+0001T   00001753+0006471741          1400 BV7515               1AZ
119524002119524112-116038     119524006009681820246TCS CARRIER BAG MIDI   0000001000+00000035+00000+0001T   00000035+0000001741          1400 BV7090               1AZ
119525000119525               119525               170213BA     1400+00000+BA0000010379+0000010379+000000000+000001456+0000011830+0000000005+I20000000000+0000011830+Z
119525001119525077-000349-B   119525006001023908315G/RIBBON 3ROLLS 12BOWS 0000002000+00002630+00000+0001T   00002630+0000001816          1400 BV7112               1AZ
119525002119525077-000245     119525006001023759214GIFT-RIBBON METALLICx2 0000002000+00001227+00000+0001T   00001227+0000001816          1400 BV7112               1AZ
119525003119525024-091102-B   119525006003000111725BAKING-CUP MUFFIN 40PCE0000001000+00002630+00000+0001T   00002630+0000001816          1400 BV7300               1AZ
119525004119525112-116038     119525006009681820246TCS CARRIER BAG MIDI   0000001000+00000035+00000+0001T   00000035+0000001816          1400 BV7090               1AZ
119526000119526               119526               170213BA     1400+00000+BA0000003946+0000003946+000000000+000000553+0000004499+0000000000+I40000004499+0000000000+Z
119526001119526032-000333     119526006003000220236MIRROR WALL 4PC SET    0000001000+00003946+00000+0001T   00003946+0000001820          1400 BV7510               1AZ
119527000119527               119527               170213BA     1400+00000+BA0000007890+0000007890+000000000+000001107+0000008990+0000000007+I20000000000+0000008990+Z
119527001119527077-000270     119527006003000395453GIFT-BAG PPR JMB 33X45 0000003000+00002630+00000+0001T   00002630+0000001835          1400 BV7112               1AZ
C11944600                                          170213BA031-005815     10204550SLAVE 1     BV72IC0000000000+0000000000+0010000002000+
M17021391                              CASH        BASLAVE 1                       Z-REPORT No.   669TOTAL (Sales - Refunds)           5526.74       CASH TO BE BANKED                 3933.80       DEBIT CARDS                          0.00       CREDIT CARDS                      1592.94       Z-READING                         5526.74       AIRTIME DEBIT CARD SALES             0.00       AIRTIME CARD SALES                   0.00       OVERS/UNDERS                         0.00       AIRTIME CASH SALES                   0.00       GIFT CARDS                           0.00       GIFT CARD CASH SALES                 0.00       T O T A L  CASH PAYOUTS              0.00                                                                                                                                                                                                                                                                                                                                                      Z
M17021392                              CASH        BAABSENT                                                                                                                                                                                          ANNUAL LEAVE                                                                                                                                                                                    DAY OFF                                                                                                                                                                                         COMMENTS                                                                                                                                                                                                                                                                                                                                                                                       Z
Y17021300                                          BA00000000485185+000088
ZBA17021319193 SLAVE 1      SALES DATA                     NEXT INVOICE NO.  119528 0669
F093699496-028120         1701271352180000041ICSLAVE 1
F093699496-058484         1701271352180000241ICSLAVE 1
F093702496-056475         1701271352330000051ICSLAVE 1
X BA Slave 1 First invoice 119440 170213 Last invoice 119527 170213 Next invoice 119528 Total number of records 000000296 clbackup completed 19:19:08
