126813000126813               126813               170213BA     1400+00000+BA0000001227+0000001227+000000000+000000172+0000001390+0000000009+I20000000000+0000001390+Z
126813001126813200-000092     126813006003000576739PICNIC PAPER PLATES 23c0000001000+00001227+00000+0001T   00001227+0000000914          1400 AC4214               2BZ
126814000126814               126814               170213BA     1400+00000+BA0000000876+0000000876+000000000+000000123+0000000990+0000000009+I20000000000+0000000990+Z
126814001126814077-000011-C   126814006001023808523TISSUE 10xSHTS RED     0000001000+00000876+00000+0001T   00000876+0000000921          1400 AC4112               2BZ
126815000126815               126815               170213BA     1400+00000+BA0000001314+0000001314+000000000+000000184+0000001490+0000000008+I20000000000+0000001490+Z
126815001126815046-000012     126815006904708013062BATTERIES AA  CARD-OF-40000001000+00001314+00000+0001T   00001314+0000000943          1400 AC4312               2BZ
126816000126816               126816               170213BA     1400+00000+BA0000001226+0000001226+000000000+000000172+0000001390+0000000008+I20000000000+0000001390+Z
126816001126816304-001011     126816006001023806727FLWR ROSE RED W/BEAR   0000002000+00000613+00000+0001T   00000788+0006470945          1400 AC4510               2BZ
126817000126817               126817               170213BA     1400+00000+BA0000001753+0000001753+000000000+000000246+0000001990+0000000009+I20000000000+0000001990+Z
126817001126817142-000814     126817006001023183910GLOVES RUBBER  MEDIUM  0000001000+00001753+00000+0001T   00001753+0000000949          1400 AC4810               2BZ
126818000126818               126818               170213BA     1400+00000+BA0000001753+0000001753+000000000+000000246+0000001990+0000000009+I20000000000+0000001990+Z
126818001126818200-003024     126818006001023657299REFUSE BAGS 20PCE BLACK0000001000+00001753+00000+0001T   00001753+0000000956          1400 BV7214               2AZ
126819000126819               126819               170213BA     1400+00000+BA0000007016+0000007016+000000000+000000983+0000007999+0000000000+I40000007999+0000000000+Z
126819001126819361-009104     126819006001023619365DOLL ACCESSORY STROLLER0000001000+00007016+00000+0001T   00007016+0000001047          1400 AC4725               2BZ
126820000126820               126820               170213BA     1400+00000+BA0000011327+0000011327+000000000+000001591+0000012918+0000000000+I40000012918+0000000000+Z
126820001126820903-000216     126820006925925900966SWT MALLOW TWIST ERKO  0000002000+00000262+00000+0001T   00000262+0000001051          1400 AC4150               2BZ
126820002126820903-000151     126820006009803374411SWT SML RND R/BOW LOLLY0000002000+00000525+00000+0001T   00000525+0000001051          1400 AC4150               2BZ
126820003126820565-000735     126820006003000615674NOVELTY PUTTY BOUNCING 0000002000+00000700+00000+0001T   00000700+0000001051          1400 AC4745               2BZ
126820004126820903-000077     126820006939873501687SWT GS MAGIC ROCK FRUIT0000002000+00000525+00000+0001T   00000525+0000001051          1400 AC4150               2BZ
126820005126820566-000847     126820006001023761033STICKERS G/OUTLINE ASTD0000002000+00000350+00000+0001T   00000350+0000001051          1400 AC4130               2BZ
126820006126820079-000512     126820006001023635853CRAYONS WAX 12-COLOUR  0000002000+00001490+00000+0001T   00001490+0000001051          1400 AC4130               2BZ
126820007126820564-000012     126820006001023130075BUBBLE BOTTLE MAGIC    0000002000+00000700+00000+0001T   00000700+0000001051          1400 AC4131               2BZ
126820008126820567-014132     126820006003000560028BOOK COLOURING 24 PAGE 0000002000+00000876+00000+0001T   00000876+0000001051          1400 AC4757               2BZ
126820009126820112-116038     126820006009681820246TCS CARRIER BAG MIDI   0000001000+00000035+00000+0001T   00000035+0000001051          1400 AC4090               2BZ
126820010126820006-000172-A   126820006003000609765BALLOONS METALLIC PINK 0000002000+00000218+00000+0001T   00000218+0000001051          1400 AC4131               2BZ
126821000126821               126821               170213BA     1400+00000+BA0000005260+0000005260+000000000+000000737+0000005990+0000000007+I20000000000+0000005990+Z
126821001126821079-000012     126821006001023655332P/CRAYONS 12-COL LONG  0000001000+00001753+00000+0001T   00001753+0000001052          1400 AC4130               2BZ
126821002126821007-000589     126821006001023810120NOTES DIARY+KEY 50PG   0000001000+00003507+00000+0001T   00003507+0000001052          1400 AC4130               2BZ
126822000126822               126822               170213BA     1400+00000+BA0000004206+0000004206+000000000+000000591+0000004797+0000000000+I40000004797+0000000000+Z
126822001126822304-001204     126822006001023737984FLOWER OCC. TEDDY/ROSES0000003000+00001402+00000+0001T   00001490+0006471105          1400 AC4510               2BZ
126823000126823               126823               170213BA     1400+00000+BA0000002630+0000002630+000000000+000000369+0000002999+0000000000+I40000002999+0000000000+Z
126823001126823306-000001     126823006003000450152NAIL BRUSH SET 7/9/14cm0000001000+00002630+00000+0001T   00002630+0000001207          1400 AC4200               2BZ
126824000126824               126824               170213BA     1400+00000+BA0000003855+0000003855+000000000+000000541+0000004390+0000000006+I20000000000+0000004390+Z
126824001126824903-000220     126824006001704007368SWT JELLY BEANS 60G    0000003000+00000876+00000+0001T   00000876+0000001208          1400 AC4150               2BZ
126824002126824079-000010     126824006001023173409P/CRAYONS 12-COL SHORT 0000001000+00001227+00000+0001T   00001227+0000001208          1400 AC4130               2BZ
126825000126825               126825               170213BA     1400+00000+BA0000008100+0000008100+000000000+000001136+0000009236+0000000000+I40000009236+0000000000+Z
126825001126825083-000049     126825004891035200024CIG-LIGHTER DISPOSABLE 0000001000+00000437+00000+0001T   00000437+0000001211          1400 AC4315               2BZ
126825002126825039-000108     126825006001023524034TEA-LITE CANDLES 8PCE  0000001000+00001490+00000+0001T   00001490+0000001211          1400 AC4510               2BZ
126825003126825039-001023     126825006003000466337CANDLE TEA-LITE METALIC0000001000+00001753+00000+0001T   00001753+0000001211          1400 AC4510               2BZ
126825004126825019-000070     126825006003000297474VASE GLS CLEAR BOTTLE  0000001000+00004385+00000+0001T   00004385+0000001211          1400 AC4510               2BZ
126825005126825112-116038     126825006009681820246TCS CARRIER BAG MIDI   0000001000+00000035+00000+0001T   00000035+0000001211          1400 AC4090               2BZ
126826000126826               126826               170213BA     1400+00000+BA0000003507+0000003507+000000000+000000491+0000003998+0000000000+I40000003998+0000000000+Z
126826001126826162-097718     126826006001492977188#TAG CHARM BRACELET    0000001000+00003507+00000+0001T   00003507+0000001213          1400 AC4160               2BZ
126827000126827               126827               170213BA     1400+00000+BA0000014060+0000014060+000000000+000001973+0000016033+0000000000+I40000016033+0000000000+Z
126827001126827019-071594     126827006003000505579PEBBLES GLS 250g RED   0000002000+00002630+00000+0001T   00002630+0000001215          1400 AC4510               2BZ
126827002126827019-071598     126827006001023693228PEBBLES GLS 250g WHITE 0000005000+00001753+00000+0001T   00001753+0000001215          1400 AC4510               2BZ
126827003126827112-116038     126827006009681820246TCS CARRIER BAG MIDI   0000001000+00000035+00000+0001T   00000035+0000001215          1400 AC4090               2BZ
126828000126828               126828               170213BA     1400+00000+BA0000001751+0000001751+000000000+000000246+0000001990+0000000007+I20000000000+0000001990+Z
126828001126828903-000194     126828006009826020616SWT CHOC RP LOLLY 25G  0000001000+00001314+00000+0001T   00001314+0000001217          1400 AC4150               2BZ
126828002126828080-000133-A   126828006003000647019MINI VALENTINES CARD   0000001000+00000437+00000+0001T   00000437+0000001217          1400 AC4112               2BZ
126829000126829               126829               170213BA     1400+00000+BA0000012305+0000012305+000000000+000001727+0000014030+0000000002+I20000000000+0000014030+Z
126829001126829027-009025     126829006003962000747DUSTPAN-SET PL         0000001000+00002630+00000+0001T   00002630+0000001220          1400 AC4212               2BZ
126829002126829150-004032-H   126829006003000645367BASIN-PLUG 2PCE BLACK  0000001000+00000876+00000+0001T   00000876+0000001220          1400 AC4810               2BZ
126829003126829903-000518     126829006001704012782SWT STRAWS S/BERRY 100g0000001000+00001227+00000+0001T   00001227+0000001220          1400 AC4150               2BZ
126829004126829903-000138     126829006002099004314SWT GS WINE GUMS 60G   0000001000+00000788+00000+0001T   00000788+0000001220          1400 AC4150               2BZ
126829005126829039-000108     126829006001023524034TEA-LITE CANDLES 8PCE  0000001000+00001490+00000+0001T   00001490+0000001220          1400 AC4510               2BZ
126829006126829080-000117     126829006003000236350CARD & ENVELOPE THANK U0000002000+00001753+00000+0001T   00001753+0000001220          1400 AC4112               2BZ
126829007126829040-000181     126829006001023870575C/HOLDER GLS ROUND     0000001000+00001753+00000+0001T   00001753+0000001220          1400 AC4510               2BZ
126829008126829112-116038     126829006009681820246TCS CARRIER BAG MIDI   0000001000+00000035+00000+0001T   00000035+0000001220          1400 AC4090               2BZ
126830000126830               126830               170213BA     1400+00000+BA0000005907+0000005907+000000000+000000829+0000006736+0000000000+I40000006736+0000000000+Z
126830001126830077-000311     126830006001023608666GIFT-BAG 11X14CM GLOSS 0000001000+00000613+00000+0001T   00000613+0000001222          1400 AC4112               2BZ
126830002126830077-000467     126830006003000329991GIFT-BAG STAMP 18X23CM 0000001000+00001753+00000+0001T   00001753+0000001222          1400 AC4112               2BZ
126830003126830264-000921     126830000090159150442MAISTO CAR 3" FRESH    0000001000+00001753+00000+0001T   00001753+0000001222          1400 AC4710               2BZ
126830004126830200-003024     126830006001023657299REFUSE BAGS 20PCE BLACK0000001000+00001753+00000+0001T   00001753+0000001222          1400 AC4214               2BZ
126830005126830112-116038     126830006009681820246TCS CARRIER BAG MIDI   0000001000+00000035+00000+0001T   00000035+0000001222          1400 AC4090               2BZ
126831000126831               126831               170213BA     1400+00000+BA0000002192+0000002192+000000000+000000307+0000002490+0000000009+I20000000000+0000002490+Z
126831001126831006-000090     126831006001023538505BANNER HAPPY-BIRTHDAY  0000001000+00002192+00000+0001T   00002192+0000001223          1400 AC4131               2BZ
126832000126832               126832               170213BA     1400+00000+BA0000002630+0000002630+000000000+000000369+0000002990+0000000009+I20000000000+0000002990+Z
126832001126832056-065302     126832006001023759566CAR SUN-SHIELD ALM-FOIL0000001000+00002630+00000+0001T   00002630+0000001224          1400 AC4860               2BZ
126833000126833               126833               170213BA     1400+00000+BA0000005260+0000005260+000000000+000000738+0000005998+0000000000+I40000005998+0000000000+Z
126833001126833077-000270     126833006003000395453GIFT-BAG PPR JMB 33X45 0000002000+00002630+00000+0001T   00002630+0000001227          1400 AC4112               2BZ
126834000126834               126834               170213BA     1400+00000+BA0000011434+0000011434+000000000+000001603+0000013037+0000000000+I40000013037+0000000000+Z
126834001126834080-000113     126834006003000237449CARD&ENVLPE - LOVE     0000001000+00001753+00000+0001T   00001753+0000001354          1400 AC4112               2BZ
126834002126834031-000850     126834006001023851963P/FRAME PL 10X15CM ASST0000001000+00007893+00000+0001T   00007893+0000001354          1400 AC4510               2BZ
126834003126834077-000301     126834008010410010188BAG LRG 25X32CM B/DAY  0000001000+00001753+00000+0001T   00001753+0000001354          1400 AC4112               2BZ
126834004126834112-116038     126834006009681820246TCS CARRIER BAG MIDI   0000001000+00000035+00000+0001T   00000035+0000001354          1400 AC4090               2BZ
126835000126835               126835               170213BA     1400+00000+BA0000018357+0000018357+000000000+000002576+0000020930+0000000003+I20000000000+0000020930+Z
126835001126835036-000151     126835006001023810588COATHANGERS    PACK-10 0000003000+00002893+00000+0001T   00002893+0000001357          1400 AC4212               2BZ
126835002126835078-000026     126835006936198407090SUPERGLUE 3,0g GEL     0000001000+00001753+00000+0001T   00001753+0000001357          1400 AC4810               2BZ
126835003126835112-116038     126835006009681820246TCS CARRIER BAG MIDI   0000001000+00000035+00000+0001T   00000035+0000001357          1400 AC4090               2BZ
126835004126835077-000115-B   126835006003000181025GIFT-WRAP PPR 700MMX2M 0000002000+00002630+00000+0001T   00002630+0000001357          1400 AC4112               2BZ
126835005126835077-000349-B   126835006001023908315G/RIBBON 3ROLLS 12BOWS 0000001000+00002630+00000+0001T   00002630+0000001357          1400 AC4112               2BZ
126836000126836               126836               170213BA     1400+00000+BA0000004594+0000004594+000000000+000000644+0000005230+0000000008+I20000000000+0000005230+Z
126836001126836031-005830     126836009320760100040P/FRAME-CLIP 24X30CM   0000001000+00003069+00000+0001T   00003069+0000001447          1400 AC4510               2BZ
126836002126836016-006505     126836006001023617576S/JAR GLS MINI CLIP    0000001000+00001490+00000+0001T   00001490+0000001447          1400 AC4300               2BZ
126836003126836112-116038     126836006009681820246TCS CARRIER BAG MIDI   0000001000+00000035+00000+0001T   00000035+0000001447          1400 AC4090               2BZ
126837000126837               126837               170213BA     1400+00000+BA0000001314+0000001314+000000000+000000184+0000001490+0000000008+I20000000000+0000001490+Z
126837001126837077-000312     126837006001023608697GIFT-BAG 10X35CM GLOSS 0000001000+00001314+00000+0001T   00001314+0000001448          1400 AC4112               2BZ
126838000126838               126838               170213BA     1400+00000+BA0000003067+0000003067+000000000+000000430+0000003490+0000000007+I20000000000+0000003490+Z
126838001126838089-000030     126838006003000575671K/CHAIN LOVE MTL ASSTD 0000001000+00001753+00000+0001T   00001753+0000001503          1400 AC4205               2BZ
126838002126838077-000407     126838006003000145096G/BAG PP 19X26X8CM     0000001000+00001314+00000+0001T   00001314+0000001503          1400 AC4112               2BZ
126839000126839               126839               170213BA     1400+00000+BA0000005308+0000005308+000000000+000000745+0000006050+0000000003+I20000000000+0000006050+Z
126839001126839077-000456     126839006003000285549G/BAG METALLIC JMB EMB 0000002000+00002630+00000+0001T   00002630+0000001504          1400 AC4112               2BZ
126839002126839112-116069     126839006009681820277TCS CARRIER BAG JUMBO  0000001000+00000048+00000+0001T   00000048+0000001504          1400 AC4090               2BZ
126840000126840               126840               170213BA     1400+00000+BA0000004208+0000004208+000000000+000000590+0000004798+0000000000+I40000004798+0000000000+Z
126840001126840077-000303     126840006001023593757GIFT-BAG PAPER MED     0000001000+00001578+00000+0001T   00001578+0000001514          1400 AC4112               2BZ
126840002126840565-000040     126840006008766115635NOVELTY ICON BEANIE    0000001000+00002630+00000+0001T   00002630+0000001514          1400 AC4745               2BZ
126841000126841               126841               170213BA     1400+00000+BA0000000876+0000000876+000000000+000000123+0000000990+0000000009+I20000000000+0000000990+Z
126841001126841903-000520     126841006001704009898SWT GUMMY MINI SOUR 60g0000001000+00000876+00000+0001T   00000876+0000001516          1400 AC4150               2BZ
126842000126842               126842               170213BA     1400+00000+BA0000002103+0000002103+000000000+000000295+0000002398+0000000000+I40000002398+0000000000+Z
126842001126842301-000600     126842006003000597024O/TURTLE DANGLING FEET 0000001000+00001490+00000+0001T   00001490+0000001541          1400 AC4505               2BZ
126842002126842077-000311     126842006001023608666GIFT-BAG 11X14CM GLOSS 0000001000+00000613+00000+0001T   00000613+0000001541          1400 AC4112               2BZ
126843000126843               126843               170213BA     1400+00000+BA0000017832+0000017832+000000000+000002499+0000020331+0000000000+I40000020331+0000000000+Z
126843001126843051-002401     126843006001023523570TRIGGER-SPRAYER   300ml0000001000+00001490+00000+0001T   00001490+0000001600          1400 AC4820               2BZ
126843002126843159-000114     126843006001023507945SHOWER CAP PVC ASSTD   0000002000+00001490+00000+0001T   00001490+0000001600          1400 AC4200               2BZ
126843003126843106-008105     126843006009654960566S/DRESSING BOTTLE 500ml0000001000+00001490+00000+0001T   00001490+0000001600          1400 AC4210               2BZ
126843004126843018-019000     126843006003000557288MUG OCC. LOVE JUMBO    0000001000+00005262+00000+0001T   00005262+0000001600          1400 AC4515               2BZ
126843005126843046-000012     126843006904708013062BATTERIES AA  CARD-OF-40000001000+00001314+00000+0001T   00001314+0000001600          1400 AC4312               2BZ
126843006126843077-000151     126843006008766114676GIFT-WRAP C/PHANE ASSTD0000001000+00000876+00000+0001T   00000876+0000001600          1400 AC4112               2BZ
126843007126843112-116038     126843006009681820246TCS CARRIER BAG MIDI   0000001000+00000035+00000+0001T   00000035+0000001600          1400 AC4090               2BZ
126843008126843004-078993     126843006001023716569EARPHONES W/1.1m CORD  0000001000+00004385+00000+0001T   00004385+0000001600          1400 AC4310               2BZ
126844000126844               126844               170213BA     1400+00000+BA0000001314+0000001314+000000000+000000184+0000001498+0000000000+I40000001498+0000000000+Z
126844001126844903-000194     126844006009826020616SWT CHOC RP LOLLY 25G  0000001000+00001314+00000+0001T   00001314+0000001602          1400 AC4150               2BZ
126845000126845               126845               170213BA     1400+00000+BA0000007050+0000007050+000000000+000000988+0000008038+0000000000+I40000008038+0000000000+Z
126845001126845047-002036-H   126845006001023724120ADAPTOR 3x16A WAVY+SRGE0000001000+00005262+00000+0001T   00005262+0000001603          1400 AC4880               2BZ
126845002126845076-000710-H   126845006001023426482SKI-ROPE 7mmx10m       0000001000+00001753+00000+0001T   00001753+0000001603          1400 AC4810               2BZ
126845003126845112-116038     126845006009681820246TCS CARRIER BAG MIDI   0000001000+00000035+00000+0001T   00000035+0000001603          1400 AC4090               2BZ
126846000126846               126846               170213BA     1400+00000+BA0000002628+0000002628+000000000+000000368+0000002990+0000000006+I20000000000+0000002990+Z
126846001126846903-000194     126846006009826020616SWT CHOC RP LOLLY 25G  0000002000+00001314+00000+0001T   00001314+0000001606          1400 AC4150               2BZ
126847000126847               126847               170213BA     1400+00000+BA0000001402+0000001402+000000000+000000197+0000001590+0000000009+I20000000000+0000001590+Z
126847001126847027-009030     126847006002814400100DUSTPAN PL             0000001000+00001402+00000+0001T   00001402+0000001607          1400 AC4212               2BZ
126848000126848               126848               170213BA     1400+00000+BA0000013205+0000013205+000000000+000001849+0000015054+0000000000+I40000015054+0000000000+Z
126848001126848031-000009     126848006003000306381P/FRAME COLLAGE HEARTS 0000001000+00013157+00000+0001T   00013157+0000001612          1400 AC4510               2BZ
126848002126848112-116069     126848006009681820277TCS CARRIER BAG JUMBO  0000001000+00000048+00000+0001T   00000048+0000001612          1400 AC4090               2BZ
126849000126849               126849               170213BA     1400+00000+BA0000002453+0000002453+000000000+000000344+0000002790+0000000007+I20000000000+0000002790+Z
126849001126849566-002000     126849000721129013206STICKERS CRYSTAL ASSTD 0000001000+00000700+00000+0001T   00000700+0000001613          1400 AC4130               2BZ
126849002126849006-000800     126849006001023902801HAT CABARET 14x18cm    0000001000+00001753+00000+0001T   00001753+0000001613          1400 AC4131               2BZ
126850000126850               126850               170213BA     1400+00000+BA0000021691+0000021691+000000000+000003040+0000024731+0000000000+I40000024731+0000000000+Z
126850001126850077-000305     126850006003000395422GIFT-BAG WINE 10X35CM  0000001000+00001490+00000+0001T   00001490+0000001616          1400 AC4112               2BZ
126850002126850007-000561     126850006003000589128NOVELTY NOTEBOOK       0000001000+00003507+00000+0001T   00003507+0000001616          1400 AC4130               2BZ
126850003126850301-085001     126850006003000297610ORN WATERBALL LOVE ASST0000001000+00004823+00000+0001T   00004823+0000001616          1400 AC4505               2BZ
126850004126850089-060027     126850006003000245871KEY-CHAIN HEART 6X6cm  0000001000+00003069+00000+0001T   00003069+0000001616          1400 AC4205               2BZ
126850005126850077-000475     126850006003000640775GIFT-BAG DESIGNER MED  0000001000+00002630+00000+0001T   00002630+0000001616          1400 AC4112               2BZ
126850006126850566-000028     126850006003000265541STICKER BK ASSTD 250PCE0000001000+00001753+00000+0001T   00001753+0000001616          1400 AC4130               2BZ
126850007126850080-000127     126850006003000424351VALENTINES DAY 36x24CM 0000002000+00002192+00000+0001T   00002192+0000001616          1400 AC4112               2BZ
126850008126850112-116038     126850006009681820246TCS CARRIER BAG MIDI   0000001000+00000035+00000+0001T   00000035+0000001616          1400 AC4090               2BZ
126851000126851               126851               170213BA     1400+00000+BA0000002630+0000002630+000000000+000000369+0000002990+0000000009+I20000000000+0000002990+Z
126851003126851031-086219     126851006001023761729P/FRAME 9x13cm CURVED  0000001000+00002630+00000+0001T   00002630+0000001621          1400 AC4510               2BZ
126852000126852               126852               170213BA     1400+00000+BA0000001402+0000001402+000000000+000000197+0000001590+0000000009+I20000000000+0000001590+Z
126852001126852304-001204     126852006001023737984FLOWER OCC. TEDDY/ROSES0000001000+00001402+00000+0001T   00001490+0006471621          1400 AC4510               2BZ
126853000126853               126853               170213BA     1400+00000+BA0000002192+0000002192+000000000+000000307+0000002490+0000000009+I20000000000+0000002490+Z
126853001126853006-000789     126853006001023148612CROWN BOY              0000001000+00002192+00000+0001T   00002192+0000001625          1400 AC4131               2BZ
126854000126854               126854               170213BA     1400+00000+BA0000007927+0000007927+000000000+000001111+0000009038+0000000000+I40000009038+0000000000+Z
126854001126854018-050000     126854006003000412679MUG OCC LOVE TWIN BEAR 0000001000+00006139+00000+0001T   00006139+0000001627          1400 AC4515               2BZ
126854002126854036-000610     126854006001023627230WASHING-PEGS PL PACK-240000001000+00001753+00000+0001T   00001753+0000001627          1400 AC4212               2BZ
126854003126854112-116038     126854006009681820246TCS CARRIER BAG MIDI   0000001000+00000035+00000+0001T   00000035+0000001627          1400 AC4090               2BZ
126855000126855               126855               170213BA     1400+00000+BA0000001788+0000001788+000000000+000000251+0000002030+0000000009+I20000000000+0000002030+Z
126855001126855051-002406     126855006003000139415SPRAY PL TRIGGER 700ml 0000001000+00001753+00000+0001T   00001753+0000001628          1400 AC4820               2BZ
126855002126855112-116038     126855006009681820246TCS CARRIER BAG MIDI   0000001000+00000035+00000+0001T   00000035+0000001628          1400 AC4090               2BZ
126856000126856               126856               170213BA     1400+00000+BA0000003507+0000003507+000000000+000000491+0000003990+0000000008+I20000000000+0000003990+Z
126856001126856018-005009     126856006001023725608MUG W/PLUSH-BEAR LOVE  0000001000+00003507+00000+0001T   00003507+0000001630          1400 AC4515               2BZ
126857000126857               126857               170213BA     1400+00000+BA0000021928+0000021928+000000000+000003070+0000024998+0000000000+I40000024998+0000000000+Z
126857001126857264-000925-211 126857006003000595426BURAGO LA FERRARI 1:24 0000001000+00021928+00000+0001T   00026314+0008131632          1400 AC4710               2BZ
126858000126858               126858               170213BA     1400+00000+BA0000001788+0000001788+000000000+000000251+0000002030+0000000009+I20000000000+0000002030+Z
126858001126858306-007302     126858006001023730954BACK-SCRATCH+MASSAGE-WH0000001000+00001753+00000+0001T   00001753+0000001633          1400 AC4200               2BZ
126858002126858112-116038     126858006009681820246TCS CARRIER BAG MIDI   0000001000+00000035+00000+0001T   00000035+0000001633          1400 AC4090               2BZ
126859000126859               126859               170213BA     1400+00000+BA0000004643+0000004643+000000000+000000652+0000005290+0000000005+I20000000000+0000005290+Z
126859001126859200-000125     126859006001023459749CUTLERY-SET 10PCE   H&L0000004000+00000876+00000+0001T   00000876+0000001634          1400 AC4214               2BZ
126859002126859903-000087     126859006001704000161SWT SPECKLED-EGGS 50G  0000001000+00001139+00000+0001T   00001139+0000001634          1400 AC4150               2BZ
126860000126860               126860               170213BA     1400+00000+BA0000028091+0000028091+000000000+000003933+0000032024+0000000000+I40000032024+0000000000+Z
126860001126860112-116038     126860006009681820246TCS CARRIER BAG MIDI   0000001000+00000035+00000+0001T   00000035+0000001638          1400 AC4090               2BZ
126860002126860018-005009     126860006001023725608MUG W/PLUSH-BEAR LOVE  0000008000+00003507+00000+0001T   00003507+0000001638          1400 AC4515               2BZ
126861000126861               126861               170213BA     1400+00000+BA0000007573+0000007573+000000000+000001062+0000008630+0000000005+I20000000000+0000008630+Z
126861001126861040-000213     126861006001023617736CANDLE-HOLDER DAISY    0000004000+00001227+00000+0001T   00001227+0000001639          1400 AC4510               2BZ
126861002126861039-000100     12686100600300060614625CM WHITE CANDLE 6PC  0000001000+00002630+00000+0001T   00002630+0000001639          1400 AC4510               2BZ
126861003126861112-116038     126861006009681820246TCS CARRIER BAG MIDI   0000001000+00000035+00000+0001T   00000035+0000001639          1400 AC4090               2BZ
126862000126862               126862               170213BA     1400+00000+BA0000000876+0000000876+000000000+000000123+0000000990+0000000009+I20000000000+0000000990+Z
126862001126862903-000297     126862006001704002950SWT MS WILD BERRY 50G  0000001000+00000876+00000+0001T   00000876+0000001640          1400 AC4150               2BZ
126863000126863               126863               170213BA     1400+00000+BA0000004944+0000004944+000000000+000000693+0000005630+0000000007+I20000000000+0000005630+Z
126863001126863018-005009     126863006001023725608MUG W/PLUSH-BEAR LOVE  0000001000+00003507+00000+0001T   00003507+0000001640          1400 AC4515               2BZ
126863002126863304-001204     126863006001023737984FLOWER OCC. TEDDY/ROSES0000001000+00001402+00000+0001T   00001490+0006471640          1400 AC4510               2BZ
126863003126863112-116038     126863006009681820246TCS CARRIER BAG MIDI   0000001000+00000035+00000+0001T   00000035+0000001640          1400 AC4090               2BZ
C12681500                                          170213BA006-000111     09374618SLAVE 2     AC42IC0000000000+0000000000+0010000001000+
C12685100                                          170213BA304-001204     16195009SLAVE 2     AC42IC0000000000+0000000000+0010000001000+
C12685101                                          170213BA301-085003     16195653SLAVE 2     AC42IC0000000000+0000000000+0020000001000+
M17021391                              CASH        BASLAVE 2                       Z-REPORT No.   676TOTAL (Sales - Refunds)           3489.89       CASH TO BE BANKED                 1223.30       DEBIT CARDS                          0.00       CREDIT CARDS                      2266.59       Z-READING                         3489.89       AIRTIME DEBIT CARD SALES             0.00       AIRTIME CARD SALES                   0.00       OVERS/UNDERS                         0.00       AIRTIME CASH SALES                   0.00       GIFT CARDS                           0.00       GIFT CARD CASH SALES                 0.00       T O T A L  CASH PAYOUTS              0.00                                                                                                                                                                                                                                                                                                                                                      Z
M17021392                              CASH        BAABSENT                                                                                                                                                                                          ANNUAL LEAVE                                                                                                                                                                                    DAY OFF                                                                                                                                                                                         COMMENTS                                                                                                                                                                                                                                                                                                                                                                                       Z
Y17021300                                          BA00000000306280+000051
ZBA17021319193 SLAVE 2      SALES DATA                     NEXT INVOICE NO.  126864 0676
F093699496-028120         1701271353390000041ICSLAVE 2
F093699496-058484         1701271353390000241ICSLAVE 2
F093702496-056475         1701271353580000051ICSLAVE 2
X BA Slave 2 First invoice 126813 170213 Last invoice 126863 170213 Next invoice 126864 Total number of records 000000182 clbackup completed 19:19:10
