141061000141061               141061               170213BA     1400+00000+BA0000004385+0000004385+000000000+000000614+0000004999+           I90000000000+0000000000+Z
141061001141061403-000033     141061006003000674053JEWELLERY HOLDER MTL   0000001000+00004385+00000+0001T023507490000                    1400 2IC5102ICV             Z
M17021391                              CASH        BASLAVE 4                       Z-REPORT No.   614TOTAL (Sales - Refunds)              0.00       CASH TO BE BANKED                    0.00       DEBIT CARDS                          0.00       CREDIT CARDS                         0.00       Z-READING                            0.00       AIRTIME DEBIT CARD SALES             0.00       AIRTIME CARD SALES                   0.00       OVERS/UNDERS                         0.00       AIRTIME CASH SALES                   0.00       GIFT CARDS                           0.00       GIFT CARD CASH SALES                 0.00       T O T A L  CASH PAYOUTS              0.00                                                                                                                                                                                                                                                                                                                                                      Z
M17021392                              CASH        BAABSENT                                                                                                                                                                                          ANNUAL LEAVE                                                                                                                                                                                    DAY OFF                                                                                                                                                                                         COMMENTS                                                                                                                                                                                                                                                                                                                                                                                       Z
Y17021300                                          BA00000000000000+000000
ZBA17021319193 SLAVE 4      SALES DATA                     NEXT INVOICE NO.  141062 0614
L53679900348698-001-004       BA1702081305021ICYOLANDA CLAASEN                                                                                                                                                                                                                                                                                                                                                                                                                                                                                                                                                                                                                                                                                                                                                                                                                                                                                                                                                                                      Z
L53679900348698-002-004       BA1702081303491ICYOLANDA CLAASEN                                                                                                                                                                                                                                                                                                                                                                                                                                                                                                                                                                                                                                                                                                                                                                                                                                                                                                                                                                                      Z
L53679900348698-003-004       BA1702081305351ICYOLANDA CLAASEN                                                                                                                                                                                                                                                                                                                                                                                                                                                                                                                                                                                                                                                                                                                                                                                                                                                                                                                                                                                      Z
L53679900348698-004-004       BA1702081303131ICYOLANDA CLAASEN                                                                                                                                                                                                                                                                                                                                                                                                                                                                                                                                                                                                                                                                                                                                                                                                                                                                                                                                                                                      Z
L53778300348618-001-005       BA1702131228222ICJO-ANN JOSEPH                                                                                                                                                                                                                                                                                                                                                                                                                                                                                                                                                                                                                                                                                                                                                                                                                                                                                                                                                                                        Z
L53778300348618-002-005       BA1702131241122ICJO-ANN JOSEPH                                                                                                                                                                                                                                                                                                                                                                                                                                                                                                                                                                                                                                                                                                                                                                                                                                                                                                                                                                                        Z
L53778300348618-003-005       BA1702131241482ICJO-ANN JOSEPH                                                                                                                                                                                                                                                                                                                                                                                                                                                                                                                                                                                                                                                                                                                                                                                                                                                                                                                                                                                        Z
L53778300348618-004-005       BA1702131228492ICJO-ANN JOSEPH                                                                                                                                                                                                                                                                                                                                                                                                                                                                                                                                                                                                                                                                                                                                                                                                                                                                                                                                                                                        Z
L53778300348618-005-005       BA1702131229242ICJO-ANN JOSEPH                                                                                                                                                                                                                                                                                                                                                                                                                                                                                                                                                                                                                                                                                                                                                                                                                                                                                                                                                                                        Z
L54237600361667-001-003       BA1702131233182ICJO-ANN JOSEPH                                                                                                                                                                                                                                                                                                                                                                                                                                                                                                                                                                                                                                                                                                                                                                                                                                                                                                                                                                                        Z
L54237600361667-002-003       BA1702131232532ICJO-ANN JOSEPH                                                                                                                                                                                                                                                                                                                                                                                                                                                                                                                                                                                                                                                                                                                                                                                                                                                                                                                                                                                        Z
L54237600361667-003-003       BA1702131232322ICJO-ANN JOSEPH                                                                                                                                                                                                                                                                                                                                                                                                                                                                                                                                                                                                                                                                                                                                                                                                                                                                                                                                                                                        Z
L54451000358499-001-011       BA1702131244372ICJO-ANN JOSEPH                                                                                                                                                                                                                                                                                                                                                                                                                                                                                                                                                                                                                                                                                                                                                                                                                                                                                                                                                                                        Z
L54451000358499-002-011       BA1702131250082ICJO-ANN JOSEPH                                                                                                                                                                                                                                                                                                                                                                                                                                                                                                                                                                                                                                                                                                                                                                                                                                                                                                                                                                                        Z
L54451000358499-003-011       BA1702131248192ICJO-ANN JOSEPH                                                                                                                                                                                                                                                                                                                                                                                                                                                                                                                                                                                                                                                                                                                                                                                                                                                                                                                                                                                        Z
L54451000358499-004-011       BA1702131242482ICJO-ANN JOSEPH                                                                                                                                                                                                                                                                                                                                                                                                                                                                                                                                                                                                                                                                                                                                                                                                                                                                                                                                                                                        Z
L54451000358499-005-011       BA1702131244132ICJO-ANN JOSEPH                                                                                                                                                                                                                                                                                                                                                                                                                                                                                                                                                                                                                                                                                                                                                                                                                                                                                                                                                                                        Z
L54451000358499-006-011       BA1702131243092ICJO-ANN JOSEPH                                                                                                                                                                                                                                                                                                                                                                                                                                                                                                                                                                                                                                                                                                                                                                                                                                                                                                                                                                                        Z
L54451000358499-007-011       BA1702131245182ICJO-ANN JOSEPH                                                                                                                                                                                                                                                                                                                                                                                                                                                                                                                                                                                                                                                                                                                                                                                                                                                                                                                                                                                        Z
L54451000358499-008-011       BA1702131247132ICJO-ANN JOSEPH                                                                                                                                                                                                                                                                                                                                                                                                                                                                                                                                                                                                                                                                                                                                                                                                                                                                                                                                                                                        Z
L54451000358499-009-011       BA1702131246492ICJO-ANN JOSEPH                                                                                                                                                                                                                                                                                                                                                                                                                                                                                                                                                                                                                                                                                                                                                                                                                                                                                                                                                                                        Z
L54451000358499-010-011       BA1702131245502ICJO-ANN JOSEPH                                                                                                                                                                                                                                                                                                                                                                                                                                                                                                                                                                                                                                                                                                                                                                                                                                                                                                                                                                                        Z
L54451000358499-011-011       BA1702131246142ICJO-ANN JOSEPH                                                                                                                                                                                                                                                                                                                                                                                                                                                                                                                                                                                                                                                                                                                                                                                                                                                                                                                                                                                        Z
L55744900355778-001-004       BA1702131224142ICJO-ANN JOSEPH                                                                                                                                                                                                                                                                                                                                                                                                                                                                                                                                                                                                                                                                                                                                                                                                                                                                                                                                                                                        Z
L55744900355778-002-004       BA1702131223442ICJO-ANN JOSEPH                                                                                                                                                                                                                                                                                                                                                                                                                                                                                                                                                                                                                                                                                                                                                                                                                                                                                                                                                                                        Z
L55744900355778-003-004       BA1702131222302ICJO-ANN JOSEPH                                                                                                                                                                                                                                                                                                                                                                                                                                                                                                                                                                                                                                                                                                                                                                                                                                                                                                                                                                                        Z
L55744900355778-004-004       BA1702131223182ICJO-ANN JOSEPH                                                                                                                                                                                                                                                                                                                                                                                                                                                                                                                                                                                                                                                                                                                                                                                                                                                                                                                                                                                        Z
L55769100357257-001-001       BA1702131224452ICJO-ANN JOSEPH                                                                                                                                                                                                                                                                                                                                                                                                                                                                                                                                                                                                                                                                                                                                                                                                                                                                                                                                                                                        Z
L56023300361072-001-001       BA1702131225132ICJO-ANN JOSEPH                                                                                                                                                                                                                                                                                                                                                                                                                                                                                                                                                                                                                                                                                                                                                                                                                                                                                                                                                                                        Z
L56255400357509-001-001       BA1702131225382ICJO-ANN JOSEPH                                                                                                                                                                                                                                                                                                                                                                                                                                                                                                                                                                                                                                                                                                                                                                                                                                                                                                                                                                                        Z
L56449600355792-001-002       BA1702081320001ICYOLANDA CLAASEN                                                                                                                                                                                                                                                                                                                                                                                                                                                                                                                                                                                                                                                                                                                                                                                                                                                                                                                                                                                      Z
L56449600355792-002-002       BA1702081320411ICYOLANDA CLAASEN                                                                                                                                                                                                                                                                                                                                                                                                                                                                                                                                                                                                                                                                                                                                                                                                                                                                                                                                                                                      Z
L56474500351744-001-002       BA1702131238102ICJO-ANN JOSEPH                                                                                                                                                                                                                                                                                                                                                                                                                                                                                                                                                                                                                                                                                                                                                                                                                                                                                                                                                                                        Z
L56474500351744-002-002       BA1702131233502ICJO-ANN JOSEPH                                                                                                                                                                                                                                                                                                                                                                                                                                                                                                                                                                                                                                                                                                                                                                                                                                                                                                                                                                                        Z
L56627600357645-001-002       BA1702131236592ICJO-ANN JOSEPH                                                                                                                                                                                                                                                                                                                                                                                                                                                                                                                                                                                                                                                                                                                                                                                                                                                                                                                                                                                        Z
L56627600357645-002-002       BA1702131237232ICJO-ANN JOSEPH                                                                                                                                                                                                                                                                                                                                                                                                                                                                                                                                                                                                                                                                                                                                                                                                                                                                                                                                                                                        Z
L56908900355760-001-003       BA1702131231412ICJO-ANN JOSEPH                                                                                                                                                                                                                                                                                                                                                                                                                                                                                                                                                                                                                                                                                                                                                                                                                                                                                                                                                                                        Z
L56908900355760-002-003       BA1702131231222ICJO-ANN JOSEPH                                                                                                                                                                                                                                                                                                                                                                                                                                                                                                                                                                                                                                                                                                                                                                                                                                                                                                                                                                                        Z
L56908900355760-003-003       BA1702131232012ICJO-ANN JOSEPH                                                                                                                                                                                                                                                                                                                                                                                                                                                                                                                                                                                                                                                                                                                                                                                                                                                                                                                                                                                        Z
L57119800350831-001-007       BA1702081314361ICYOLANDA CLAASEN                                                                                                                                                                                                                                                                                                                                                                                                                                                                                                                                                                                                                                                                                                                                                                                                                                                                                                                                                                                      Z
L57119800350831-002-007       BA1702081312221ICYOLANDA CLAASEN                                                                                                                                                                                                                                                                                                                                                                                                                                                                                                                                                                                                                                                                                                                                                                                                                                                                                                                                                                                      Z
L57119800350831-003-007       BA1702081312481ICYOLANDA CLAASEN                                                                                                                                                                                                                                                                                                                                                                                                                                                                                                                                                                                                                                                                                                                                                                                                                                                                                                                                                                                      Z
L57119800350831-004-007       BA1702081313541ICYOLANDA CLAASEN                                                                                                                                                                                                                                                                                                                                                                                                                                                                                                                                                                                                                                                                                                                                                                                                                                                                                                                                                                                      Z
L57119800350831-005-007       BA1702081315251ICYOLANDA CLAASEN                                                                                                                                                                                                                                                                                                                                                                                                                                                                                                                                                                                                                                                                                                                                                                                                                                                                                                                                                                                      Z
L57119800350831-006-007       BA1702081315321ICYOLANDA CLAASEN                                                                                                                                                                                                                                                                                                                                                                                                                                                                                                                                                                                                                                                                                                                                                                                                                                                                                                                                                                                      Z
L57119800350831-007-007       BA1702081313271ICYOLANDA CLAASEN                                                                                                                                                                                                                                                                                                                                                                                                                                                                                                                                                                                                                                                                                                                                                                                                                                                                                                                                                                                      Z
L57176400361615-001-006       BA1702131234162ICJO-ANN JOSEPH                                                                                                                                                                                                                                                                                                                                                                                                                                                                                                                                                                                                                                                                                                                                                                                                                                                                                                                                                                                        Z
L57176400361615-002-006       BA1702131235082ICJO-ANN JOSEPH                                                                                                                                                                                                                                                                                                                                                                                                                                                                                                                                                                                                                                                                                                                                                                                                                                                                                                                                                                                        Z
L57176400361615-003-006       BA1702131235272ICJO-ANN JOSEPH                                                                                                                                                                                                                                                                                                                                                                                                                                                                                                                                                                                                                                                                                                                                                                                                                                                                                                                                                                                        Z
L57176400361615-004-006       BA1702131250362ICJO-ANN JOSEPH                                                                                                                                                                                                                                                                                                                                                                                                                                                                                                                                                                                                                                                                                                                                                                                                                                                                                                                                                                                        Z
L57176400361615-005-006       BA1702131251212ICJO-ANN JOSEPH                                                                                                                                                                                                                                                                                                                                                                                                                                                                                                                                                                                                                                                                                                                                                                                                                                                                                                                                                                                        Z
L57176400361615-006-006       BA1702131251122ICJO-ANN JOSEPH                                                                                                                                                                                                                                                                                                                                                                                                                                                                                                                                                                                                                                                                                                                                                                                                                                                                                                                                                                                        Z
L57193300353604-001-002       BA1702081306361ICYOLANDA CLAASEN                                                                                                                                                                                                                                                                                                                                                                                                                                                                                                                                                                                                                                                                                                                                                                                                                                                                                                                                                                                      Z
L57193300353604-002-002       BA1702081306041ICYOLANDA CLAASEN                                                                                                                                                                                                                                                                                                                                                                                                                                                                                                                                                                                                                                                                                                                                                                                                                                                                                                                                                                                      Z
L57197200359611-001-004       BA1702131230082ICJO-ANN JOSEPH                                                                                                                                                                                                                                                                                                                                                                                                                                                                                                                                                                                                                                                                                                                                                                                                                                                                                                                                                                                        Z
L57197200359611-002-004       BA1702131229472ICJO-ANN JOSEPH                                                                                                                                                                                                                                                                                                                                                                                                                                                                                                                                                                                                                                                                                                                                                                                                                                                                                                                                                                                        Z
L57197200359611-003-004       BA1702131230272ICJO-ANN JOSEPH                                                                                                                                                                                                                                                                                                                                                                                                                                                                                                                                                                                                                                                                                                                                                                                                                                                                                                                                                                                        Z
L57197200359611-004-004       BA1702131230522ICJO-ANN JOSEPH                                                                                                                                                                                                                                                                                                                                                                                                                                                                                                                                                                                                                                                                                                                                                                                                                                                                                                                                                                                        Z
L57198400347722-001-001       BA1702081317171ICYOLANDA CLAASEN                                                                                                                                                                                                                                                                                                                                                                                                                                                                                                                                                                                                                                                                                                                                                                                                                                                                                                                                                                                      Z
L57315000354616-001-003       BA1702081308151ICYOLANDA CLAASEN                                                                                                                                                                                                                                                                                                                                                                                                                                                                                                                                                                                                                                                                                                                                                                                                                                                                                                                                                                                      Z
L57315000354616-002-003       BA1702081307301ICYOLANDA CLAASEN                                                                                                                                                                                                                                                                                                                                                                                                                                                                                                                                                                                                                                                                                                                                                                                                                                                                                                                                                                                      Z
L57315000354616-003-003       BA1702081308441ICYOLANDA CLAASEN                                                                                                                                                                                                                                                                                                                                                                                                                                                                                                                                                                                                                                                                                                                                                                                                                                                                                                                                                                                      Z
L57435700352773-001-002       BA1702081311111ICYOLANDA CLAASEN                                                                                                                                                                                                                                                                                                                                                                                                                                                                                                                                                                                                                                                                                                                                                                                                                                                                                                                                                                                      Z
L57435700352773-002-002       BA1702081311421ICYOLANDA CLAASEN                                                                                                                                                                                                                                                                                                                                                                                                                                                                                                                                                                                                                                                                                                                                                                                                                                                                                                                                                                                      Z
L57579400357523-001-003       BA1702131226232ICJO-ANN JOSEPH                                                                                                                                                                                                                                                                                                                                                                                                                                                                                                                                                                                                                                                                                                                                                                                                                                                                                                                                                                                        Z
L57579400357523-002-003       BA1702131226432ICJO-ANN JOSEPH                                                                                                                                                                                                                                                                                                                                                                                                                                                                                                                                                                                                                                                                                                                                                                                                                                                                                                                                                                                        Z
L57579400357523-003-003       BA1702131252192ICJO-ANN JOSEPH                                                                                                                                                                                                                                                                                                                                                                                                                                                                                                                                                                                                                                                                                                                                                                                                                                                                                                                                                                                        Z
L57582500353676-001-001       BA1702081316481ICYOLANDA CLAASEN                                                                                                                                                                                                                                                                                                                                                                                                                                                                                                                                                                                                                                                                                                                                                                                                                                                                                                                                                                                      Z
L57588700353272-001-003       BA1702081310181ICYOLANDA CLAASEN                                                                                                                                                                                                                                                                                                                                                                                                                                                                                                                                                                                                                                                                                                                                                                                                                                                                                                                                                                                      Z
L57588700353272-002-003       BA1702081309201ICYOLANDA CLAASEN                                                                                                                                                                                                                                                                                                                                                                                                                                                                                                                                                                                                                                                                                                                                                                                                                                                                                                                                                                                      Z
L57588700353272-003-003       BA1702081310231ICYOLANDA CLAASEN                                                                                                                                                                                                                                                                                                                                                                                                                                                                                                                                                                                                                                                                                                                                                                                                                                                                                                                                                                                      Z
L57736000348727-001-002       BA1702081317451ICYOLANDA CLAASEN                                                                                                                                                                                                                                                                                                                                                                                                                                                                                                                                                                                                                                                                                                                                                                                                                                                                                                                                                                                      Z
L57736000348727-002-002       BA1702081320371ICYOLANDA CLAASEN                                                                                                                                                                                                                                                                                                                                                                                                                                                                                                                                                                                                                                                                                                                                                                                                                                                                                                                                                                                      Z
L57739200352525-001-001       BA1702081316241ICYOLANDA CLAASEN                                                                                                                                                                                                                                                                                                                                                                                                                                                                                                                                                                                                                                                                                                                                                                                                                                                                                                                                                                                      Z
L57908000356654-001-003       BA1702131227502ICJO-ANN JOSEPH                                                                                                                                                                                                                                                                                                                                                                                                                                                                                                                                                                                                                                                                                                                                                                                                                                                                                                                                                                                        Z
L57908000356654-002-003       BA1702131227282ICJO-ANN JOSEPH                                                                                                                                                                                                                                                                                                                                                                                                                                                                                                                                                                                                                                                                                                                                                                                                                                                                                                                                                                                        Z
L57908000356654-003-003       BA1702131227042ICJO-ANN JOSEPH                                                                                                                                                                                                                                                                                                                                                                                                                                                                                                                                                                                                                                                                                                                                                                                                                                                                                                                                                                                        Z
L57911800350749-001-004       BA1702081318111ICYOLANDA CLAASEN                                                                                                                                                                                                                                                                                                                                                                                                                                                                                                                                                                                                                                                                                                                                                                                                                                                                                                                                                                                      Z
L57911800350749-002-004       BA1702081319031ICYOLANDA CLAASEN                                                                                                                                                                                                                                                                                                                                                                                                                                                                                                                                                                                                                                                                                                                                                                                                                                                                                                                                                                                      Z
L57911800350749-003-004       BA1702081318341ICYOLANDA CLAASEN                                                                                                                                                                                                                                                                                                                                                                                                                                                                                                                                                                                                                                                                                                                                                                                                                                                                                                                                                                                      Z
L57911800350749-004-004       BA1702081319331ICYOLANDA CLAASEN                                                                                                                                                                                                                                                                                                                                                                                                                                                                                                                                                                                                                                                                                                                                                                                                                                                                                                                                                                                      Z
L58195600358868-001-002       BA1702131242172ICJO-ANN JOSEPH                                                                                                                                                                                                                                                                                                                                                                                                                                                                                                                                                                                                                                                                                                                                                                                                                                                                                                                                                                                        Z
L58195600358868-002-002       BA1702131239072ICJO-ANN JOSEPH                                                                                                                                                                                                                                                                                                                                                                                                                                                                                                                                                                                                                                                                                                                                                                                                                                                                                                                                                                                        Z
L58203000358712-001-001       BA1702131226012ICJO-ANN JOSEPH                                                                                                                                                                                                                                                                                                                                                                                                                                                                                                                                                                                                                                                                                                                                                                                                                                                                                                                                                                                        Z
L58357600358470-001-002       BA1702131235542ICJO-ANN JOSEPH                                                                                                                                                                                                                                                                                                                                                                                                                                                                                                                                                                                                                                                                                                                                                                                                                                                                                                                                                                                        Z
L58357600358470-002-002       BA1702131236222ICJO-ANN JOSEPH                                                                                                                                                                                                                                                                                                                                                                                                                                                                                                                                                                                                                                                                                                                                                                                                                                                                                                                                                                                        Z
L58361800361336-001-001       BA1702131233472ICJO-ANN JOSEPH                                                                                                                                                                                                                                                                                                                                                                                                                                                                                                                                                                                                                                                                                                                                                                                                                                                                                                                                                                                        Z
F093698496-057190         1702080946410000001ICSLAVE 4
F093699496-028120         1701111718240000041ICSLAVE 4
F093699496-058484         1701111718240000241ICSLAVE 4
F093702496-056475         1701111718370000051ICSLAVE 4
F093733496-028122         1702080947580000011ICSLAVE 4
T094882564-001029                                          1702131121390000282ICSLAVE 4
T094884564-001029                                          1702131121460000112ICSLAVE 4
V5367990000001029                                                 0000000000000001702080000002ICSLAVE 4     170213182322348698N              04
V5377830000001029                                                 000000000000000170213000000   SLAVE 4     000000000000348618               05
V5423760000001029                                                 000000000000000170213000000   SLAVE 4     000000000000361667               03
V5445100000001029                                                 000000000000000170213000000   SLAVE 4     000000000000358499               11
V5574490000001029                                                 000000000000000170213000000   SLAVE 4     000000000000355778               04
V5576910000001029                                                 000000000000000170213000000   SLAVE 4     000000000000357257               01
V5602330000001029                                                 000000000000000170213000000   SLAVE 4     000000000000361072               01
V5625540000001029                                                 000000000000000170213000000   SLAVE 4     000000000000357509               01
V5644960000001029                                                 0000000000000001702080000002ICSLAVE 4     170213182435355792N              02
V5647450000001029                                                 000000000000000170213000000   SLAVE 4     000000000000351744               02
V5662760000001029                                                 000000000000000170213000000   SLAVE 4     000000000000357645               02
V5690890000001029                                                 000000000000000170213000000   SLAVE 4     000000000000355760               03
V5711980000001029                                                 000000000000000170208000000   SLAVE 4     000000000000350831               07
V5717640000001029                                                 000000000000000170213000000   SLAVE 4     000000000000361615               06
V5719330000001029                                                 0000000000000001702080000002ICSLAVE 4     170213182401353604N              02
V5719720000001029                                                 000000000000000170213000000   SLAVE 4     000000000000359611               04
V5719840000001029                                                 0000000000000001702080000002ICSLAVE 4     170213182534347722N              01
V5731500000001029                                                 000000000000000170208000000   SLAVE 4     000000000000354616               03
V5743570000001029                                                 000000000000000170208000000   SLAVE 4     000000000000352773               02
V5757940000001029                                                 000000000000000170213000000   SLAVE 4     000000000000357523               03
V5758250000001029                                                 0000000000000001702080000002ICSLAVE 4     170213182451353676N              01
V5758870000001029                                                 000000000000000170208000000   SLAVE 4     000000000000353272               03
V5773600000001029                                                 0000000000000001702080000002ICSLAVE 4     170213182740348727N              02
V5773920000001029                                                 0000000000000001702080000002ICSLAVE 4     170213182518352525N              01
V5790800000001029                                                 000000000000000170213000000   SLAVE 4     000000000000356654               03
V5791180000001029                                                 0000000000000001702080000002ICSLAVE 4     170213182554350749Y              04
V5819560000001029                                                 000000000000000170213000000   SLAVE 4     000000000000358868               02
V5820300000001029                                                 000000000000000170213000000   SLAVE 4     000000000000358712               01
V5835760000001029                                                 000000000000000170213000000   SLAVE 4     000000000000358470               02
V5836180000001029                                                 000000000000000170213000000   SLAVE 4     000000000000361336               01
X BA Slave 4 First invoice 141061 170213 Last invoice 141061 170213 Next invoice 141062 Total number of records 000000130 clbackup completed 19:19:12
