105834000105834               105834               170213BC     1400+00000+BC0000001753+0000001753+000000000+000000246+0000001990+0000000009+I20000000000+0000001990+Z
105834001105834200-003026     105834006003000276448REFUSE BAGS 10PCE GREEN0000001000+00001753+00000+0001T   00001753+0000000928          1400 FL8214               1BZ
105835000105835               105835               170213BC     1400+00000+BC0000001578+0000001578+000000000+000000221+0000001790+0000000009+I20000000000+0000001790+Z
105835001105835077-000386     105835006003000275489G/BAG POP UP 18x23CM   0000001000+00001578+00000+0001T   00001578+0000000928          1400 FL8112               1BZ
105836000105836               105836               170213BC     1400+00000+BC0000000876+0000000876+000000000+000000123+0000000990+0000000009+I20000000000+0000000990+Z
105836001105836071-005213     105836006001023690371CELLOTAPE 12mmx33m     0000001000+00000876+00000+0001T   00000876+0000000937          1400 FL8130               1BZ
105837000105837               105837               170213BC     1400+00000+BC0000001227+0000001227+000000000+000000172+0000001390+0000000009+I20000000000+0000001390+Z
105837001105837077-000318     105837006001023609755GIFT-BAG 18X23CM E/D AN0000001000+00001227+00000+0001T   00001227+0000000938          1400 FL8112               1BZ
105838000105838               105838               170213BC     1400+00000+BC0000001227+0000001227+000000000+000000172+0000001390+0000000009+I20000000000+0000001390+Z
105838001105838077-000245     105838006001023759214GIFT-RIBBON METALLICx2 0000001000+00001227+00000+0001T   00001227+0000000952          1400 FL8112               1BZ
105839000105839               105839               170213BC     1400+00000+BC0000001490+0000001490+000000000+000000209+0000001690+0000000009+I20000000000+0000001690+Z
105839001105839150-003733     105839006003000561735SINK STRAINER S/S 1PCE 0000001000+00001490+00000+0001T   00001490+0000000953          1400 FL8810               1BZ
105840000105840               105840               170213BC     1400+00000+BC0000009644+0000009644+000000000+000001351+0000010990+0000000005+I20000000000+0000010990+Z
105840001105840051-600655     105840006003000422067PLANTER W/TRAY 20x20x160000001000+00002630+00000+0001T   00002630+0000000956          1400 FL8820               1BZ
105840002105840051-600656     105840006003000422227PLANTER W/TRAY 20x20x160000002000+00003507+00000+0001T   00003507+0000000956          1400 FL8820               1BZ
105841000105841               105841               170213BC     1400+00000+BC0000001227+0000001227+000000000+000000172+0000001390+0000000009+I20000000000+0000001390+Z
105841001105841071-081091     105841006001151010287STAED/GENKEM ALL-STICK 0000001000+00001227+00000+0001T   00001227+0000000957          1400 FL8130               1BZ
105842000105842               105842               170213BC     1400+00000+BC0000013152+0000013152+000000000+000001842+0000014990+0000000004+I20000000000+0000014990+Z
105842001105842024-000165-C   105842006003000674312N/STICK B/WARE LOAF PAN0000002000+00005262+00000+0001T   00005262+0000001000          1400 FL8300               1BZ
105842002105842903-000844     105842005010478432567SWT CANDY DL LUV HEARTS0000002000+00001314+00000+0001T   00001314+0000001000          1400 FL8150               1BZ
105843000105843               105843               170213BC     1400+00000+BC0000003152+0000003152+000000000+000000444+0000003590+0000000006+I20000000000+0000003590+Z
105843001105843077-000010-D   105843006001023123886CREPE-PAPER WHITE      0000004000+00000788+00000+0001T   00000788+0000001005          1400 FL8112               1BZ
105844000105844               105844               170213BC     1400+00000+BC0000001753+0000001753+000000000+000000246+0000001990+0000000009+I20000000000+0000001990+Z
105844001105844071-001102     105844006003000274598MARKER PERM MED 2PCE   0000001000+00001753+00000+0001T   00001753+0000001020          1400 FL8130               1BZ
105845000105845               105845               170213BC     1400+00000+BC0000002367+0000002367+000000000+000000332+0000002690+0000000009+I20000000000+0000002690+Z
105845001105845108-001105-B   105845006005387000258MIXING-BOWL PLTNM/BLUE 0000001000+00002367+00000+0001T   00002367+0000001025          1400 FL8210               1BZ
105846000105846               105846               170213BC     1400+00000+BC0000002191+0000002191+000000000+000000307+0000002498+0000000000+I40000002498+0000000000+Z
105846001105846200-000065     105846006001023323675DRINKING-STRAWS 38PCE  0000001000+00000613+00000+0001T   00000613+0000001030          1400 FL8214               1BZ
105846002105846566-001234     105846006003000217793STICKERS LASER ASSTD   0000001000+00001578+00000+0001T   00001578+0000001030          1400 FL8130               1BZ
105847000105847               105847               170213BC     1400+00000+BC0000005699+0000005699+000000000+000000798+0000006497+0000000000+I40000006497+0000000000+Z
105847001105847077-000916     105847006003000413577G/WRAP 700mmx2m BBY/KID0000001000+00002192+00000+0001T   00002192+0000001031          1400 FL8112               1BZ
105847002105847089-000018     105847006003000176724KEY CHAIN INSPIRATION  0000001000+00003507+00000+0001T   00003507+0000001031          1400 FL8205               1BZ
105848000105848               105848               170213BC     1400+00000+BC0000001314+0000001314+000000000+000000184+0000001490+0000000008+I20000000000+0000001490+Z
105848001105848007-000044     105848006009635831489DISPLAY-BOOK A4 10-PAGE0000001000+00001314+00000+0001T   00001314+0000001032          1400 FL8130               1BZ
105849000105849               105849               170213BC     1400+00000+BC0000014032+0000014032+000000000+000001966+0000015998+0000000000+I40000015998+0000000000+Z
105849001105849174-000305     105849006003000105502TRAVEL NECK-PILLOW     0000002000+00007016+00000+0001T   00007016+0000001044          1400 FL8205               1BZ
105850000105850               105850               170213BC     1400+00000+BC0000016707+0000016707+000000000+000002342+0000019049+0000000000+I40000019049+0000000000+Z
105850001105850112-116069     105850006009681820277TCS CARRIER BAG JUMBO  0000001000+00000048+00000+0001T   00000048+0000001048          1400 FL8090               1BZ
105850002105850366-006102     105850006003000648474DRESSUP S/ADH FACE STIK0000001000+00001753+00000+0001T   00001753+0000001048          1400 FL8131               1BZ
105850003105850366-006103     105850006001023786944DRESS UP FACE PAINT SET0000001000+00002630+00000+0001T   00002630+0000001048          1400 FL8131               1BZ
105850004105850565-000876     105850006003000305759NOVELTY FUNKY SUNGLASS 0000001000+00003507+00000+0001T   00003507+0000001048          1400 FL8745               1BZ
105850005105850366-002006     105850006001023902696DRESS UP WIGS PARTY ASS0000001000+00007016+00000+0001T   00007016+0000001048          1400 FL8131               1BZ
105850006105850466-064838     105850006001023835031BALLS MASSAGE 8cm SET-30000001000+00001753+00000+0001T   00001753+0000001048          1400 FL8785               1BZ
105851000105851               105851               170213BC     1400+00000+BC0000012714+0000012714+000000000+000001781+0000014495+0000000000+I40000014495+0000000000+Z
105851001105851077-000315     105851006003000181186GIFT-BAG 20x28cm MATT  0000001000+00001578+00000+0001T   00001578+0000001051          1400 FL8112               1BZ
105851002105851105-007505     105851006003000487301STORAGE BOX CLEAR 2L   0000001000+00004385+00000+0001T   00004385+0000001051          1400 FL8210               1BZ
105851003105851077-000010-D   105851006001023123886CREPE-PAPER WHITE      0000001000+00000788+00000+0001T   00000788+0000001051          1400 FL8112               1BZ
105851004105851105-007505     105851006003000487301STORAGE BOX CLEAR 2L   0000001000+00004385+00000+0001T   00004385+0000001051          1400 FL8210               1BZ
105851005105851077-000315     105851006003000181186GIFT-BAG 20x28cm MATT  0000001000+00001578+00000+0001T   00001578+0000001051          1400 FL8112               1BZ
105852000105852               105852               170213BC     1400+00000+BC0000007485+0000007485+000000000+000001050+0000008530+0000000005+I20000000000+0000008530+Z
105852001105852089-000141-H   105852006001023416568KEY-CHAINS 6PCE     H&H0000005000+00001490+00000+0001T   00001490+0000001103          1400 FL8205               1BZ
105852002105852112-116038     105852006009681820246TCS CARRIER BAG MIDI   0000001000+00000035+00000+0001T   00000035+0000001103          1400 FL8090               1BZ
105853000105853               105853               170213BC     1400+00000+BC0000003507+0000003507+000000000+000000491+0000003990+0000000008+I20000000000+0000003990+Z
105853001105853018-000136     105853006001023659026MUG OCC LOVE W/PLUSH   0000001000+00003507+00000+0001T   00003507+0000001345          1400 FL8515               1BZ
105854000105854               105854               170213BC     1400+00000+BC0000050907+0000050907+000000000+000007133+0000058040+0000000000+I40000058040+0000000000+Z
105854001105854018-005009     105854006001023725608MUG W/PLUSH-BEAR LOVE  0000001000+00003507+00000+0001T   00003507+0000001349          1400 FL8515               1BZ
105854002105854031-005853     105854006003000442416P/FRAME WDN TWIN HEARTS0000001000+00003507+00000+0001T   00003507+0000001349          1400 FL8510               1BZ
105854003105854001-091415     105854006003000329113W/GLS OCC. LOVE 2PC 2800000001000+00008771+00000+0001T   00009648+0006471349          1400 FL8515               1BZ
105854004105854039-809558     105854006003000344376CANDLE PILLAR 12CM 4AST0000001000+00006139+00000+0001T   00006139+0000001349          1400 FL8510               1BZ
105854005105854562-000809     105854006001023589712EDU PEG BOARD          0000001000+00007893+00000+0001T   00007893+0000001349          1400 FL8755               1BZ
105854006105854080-000133     105854006003000535613CARD&ENV MINI ASTD DSGN0000001000+00000437+00000+0001T   00000437+0000001349          1400 FL8112               1BZ
105854007105854018-000129     105854006001023403353MUG OCC. LOVE V-SHAPE  0000001000+00002630+00000+0001T   00002630+0000001349          1400 FL8515               1BZ
105854008105854080-000133     105854006003000535613CARD&ENV MINI ASTD DSGN0000001000+00000437+00000+0001T   00000437+0000001349          1400 FL8112               1BZ
105854009105854464-000340     105854006003000469451GAME TOPPLE TABLE      0000001000+00010525+00000+0001T   00010525+0000001349          1400 FL8785               1BZ
105854010105854112-116069     105854006009681820277TCS CARRIER BAG JUMBO  0000001000+00000048+00000+0001T   00000048+0000001349          1400 FL8090               1BZ
105854011105854037-000004     105854006001023763679ASHTRAY PL TUB 8X11CM  0000002000+00001753+00000+0001T   00002192+0008191349          1400 FL8515               1BZ
105854012105854077-000934     105854006003000409921G/WRAP 700mmx5m BIRTHDA0000001000+00003507+00000+0001T   00003507+0000001349          1400 FL8112               1BZ
105855000105855               105855               170213BC     1400+00000+BC0000003856+0000003856+000000000+000000541+0000004390+0000000007+I20000000000+0000004390+Z
105855001105855077-000151     105855006008766114676GIFT-WRAP C/PHANE ASSTD0000001000+00000876+00000+0001T   00000876+0000001350          1400 FL8112               1BZ
105855002105855159-080352     105855006916920733314HOOKS 3PCE             0000002000+00001490+00000+0001T   00001490+0000001350          1400 FL8200               1BZ
105856000105856               105856               170213BC     1400+00000+BC0000009471+0000009471+000000000+000001327+0000010798+0000000000+I40000010798+0000000000+Z
105856001105856077-000303     105856006001023593757GIFT-BAG PAPER MED     0000001000+00001578+00000+0001T   00001578+0000001354          1400 FL8112               1BZ
105856002105856301-085007     105856006003000673698ORN OCC. LOVE S/PLAQUE 0000001000+00007893+00000+0001T   00007893+0000001354          1400 FL8505               1BZ
105857000105857               105857               170213BC     1400+00000+BC0000003244+0000003244+000000000+000000455+0000003690+0000000009+I20000000000+0000003690+Z
105857001105857046-000400     105857006001023804983BATT ALKALINE 1.5Vx30PC0000001000+00003244+00000+0001T   00003244+0000001354          1400 FL8312               1BZ
105858000105858               105858               170213BC     1400+00000+BC0000000877-0000000877-000000000+000000122-0000001000-0000000001+I20000000000+0000001000-Z
105858001105858007-000199     105858006002324001200FILE RING-BINDER A4    0000001000-00003507+00000+0001T   00003507+0000001358          1400 FL81301IC            1 Z
105858002105858007-000196     105858006002324002375FILE LEVER ARCH A4     0000001000+00002630+00000+0001T   00002630+0000001358          1400 FL8130               1 Z
105859000105859               105859               170213BC     1400+00000+BC0000011402+0000011402+000000000+000001597+0000012999+0000000000+I40000012999+0000000000+Z
105859001105859368-000637     105859006001023874092PLUSH BEAR SLEEPING LOV0000001000+00011402+00000+0001T   00012279+0006471412          1400 FL8745               1BZ
105860000105860               105860               170213BC     1400+00000+BC0000002539+0000002539+000000000+000000357+0000002890+0000000006+I20000000000+0000002890+Z
105860001105860903-000216     105860006925925900966SWT MALLOW TWIST ERKO  0000003000+00000262+00000+0001T   00000262+0000001435          1400 FL8150               1BZ
105860002105860077-000902     105860006003000410569G/WRAP 700mmx1m BBY/KID0000001000+00001753+00000+0001T   00001753+0000001435          1400 FL8112               1BZ
105861000105861               105861               170213BC     1400+00000+BC0000006046+0000006046+000000000+000000849+0000006895+0000000000+I40000006895+0000000000+Z
105861001105861077-000305     105861006003000395422GIFT-BAG WINE 10X35CM  0000001000+00001490+00000+0001T   00001490+0000001437          1400 FL8112               1BZ
105861002105861040-000213     105861006001023617736CANDLE-HOLDER DAISY    0000002000+00001227+00000+0001T   00001227+0000001437          1400 FL8510               1BZ
105861003105861039-000029     105861006003000286829C/TAPERED 25CM M/PINK  0000002000+00001051+00000+0001T   00001051+0000001437          1400 FL8510               1BZ
105862000105862               105862               170213BC     1400+00000+BC0000009646+0000009646+000000000+000001352+0000010990+0000000008+I20000000000+0000010990+Z
105862001105862486-001002     105862006001023800008A/CLOCK QUARTZ 13x11cm 0000001000+00007016+00000+0001T   00007016+0000001438          1400 FL8510               1BZ
105862002105862046-000011-A   105862006003000438891BATTERIES SIZE:AA  4PCE0000001000+00002630+00000+0001T   00002630+0000001438          1400 FL8312               1BZ
105863000105863               105863               170213BC     1400+00000+BC0000004385+0000004385+000000000+000000614+0000004990+0000000009+I20000000000+0000004990+Z
105863001105863266-000207     105863006001023708823GLIDER JET LAUNCHER    0000001000+00004385+00000+0001T   00004385+0000001440          1400 FL8710               1BZ
105864000105864               105864               170213BC     1400+00000+BC0000003506+0000003506+000000000+000000492+0000003990+0000000008+I20000000000+0000003990+Z
105864001105864002-000975     105864006003000658053KITCHEN-GADGET FUNNEL  0000001000+00001753+00000+0001T   00001753+0000001440          1400 FL8300               1BZ
105864002105864088-000108     105864006001023765536POTPOURRI-OIL 10ml ASST0000001000+00001753+00000+0001T   00001753+0000001440          1400 FL8212               1BZ
105865000105865               105865               170213BC     1400+00000+BC0000021973+0000021973+000000000+000003078+0000025051+0000000000+I40000025051+0000000000+Z
105865001105865019-000132     105865006003000456376VASE GLASS W/ROPE 10X120000001000+00006578+00000+0001T   00006578+0000001444          1400 FL8510               1BZ
105865002105865301-000555     105865006003000456666ORN ANIMAL DOG WELCOME 0000001000+00006139+00000+0001T   00006139+0000001444          1400 FL8505               1BZ
105865003105865301-000826     105865006001023784131ORN FAIRY KID W/HOOD   0000001000+00006139+00000+0001T   00006139+0000001444          1400 FL8505               1BZ
105865004105865124-001000     105865006003000683734STORAGE TIN SEWING DESN0000001000+00003069+00000+0001T   00003069+0000001444          1400 FL8300               1BZ
105865005105865112-116069     105865006009681820277TCS CARRIER BAG JUMBO  0000001000+00000048+00000+0001T   00000048+0000001444          1400 FL8090               1BZ
105866000105866               105866               170213BC     1400+00000+BC0000001490+0000001490+000000000+000000209+0000001690+0000000009+I20000000000+0000001690+Z
105866001105866140-001004     105866006001023880932FLY-RIBBONS 4PCE PL    0000001000+00001490+00000+0001T   00001490+0000001445          1400 FL8830               1BZ
105867000105867               105867               170213BC     1400+00000+BC0000004243+0000004243+000000000+000000595+0000004838+0000000000+I40000004838+0000000000+Z
105867001105867071-001124     105867006001023802873MARKERS WHITEBOARD 3PCE0000001000+00002630+00000+0001T   00002630+0000001447          1400 FL8130               1BZ
105867002105867071-001028     105867008887013700385MARKER WHT-RND YM-500  0000001000+00001578+00000+0001T   00001578+0000001447          1400 FL8130               1BZ
105867003105867112-116038     105867006009681820246TCS CARRIER BAG MIDI   0000001000+00000035+00000+0001T   00000035+0000001447          1400 FL8090               1BZ
105868000105868               105868               170213BC     1400+00000+BC0000002453+0000002453+000000000+000000344+0000002797+0000000000+I40000002797+0000000000+Z
105868001105868080-000500     105868006001023846211CARD&ENV 6PK GLITTER   0000001000+00001753+00000+0001T   00001753+0000001452          1400 FL8112               1BZ
105868002105868566-002000     105868000721129013206STICKERS CRYSTAL ASSTD 0000001000+00000700+00000+0001T   00000700+0000001452          1400 FL8130               1BZ
105869000105869               105869               170213BC     1400+00000+BC0000001578+0000001578+000000000+000000221+0000001790+0000000009+I20000000000+0000001790+Z
105869001105869077-000303     105869006001023593757GIFT-BAG PAPER MED     0000001000+00001578+00000+0001T   00001578+0000001454          1400 FL8112               1BZ
105870000105870               105870               170213BC     1400+00000+BC0000001227+0000001227+000000000+000000172+0000001390+0000000009+I20000000000+0000001390+Z
105870001105870077-000318     105870006001023609755GIFT-BAG 18X23CM E/D AN0000001000+00001227+00000+0001T   00001227+0000001455          1400 FL8112               1BZ
105871000105871               105871               170213BC     1400+00000+BC0000008771+0000008771+000000000+000001228+0000009990+0000000009+I20000000000+0000009990+Z
105871001105871001-091415     105871006003000329113W/GLS OCC. LOVE 2PC 2800000001000+00008771+00000+0001T   00009648+0006471455          1400 FL8515               1BZ
105872000105872               105872               170213BC     1400+00000+BC0000020218+0000020218+000000000+000002833+0000023051+0000000000+I40000023051+0000000000+Z
105872001105872039-082852     105872006008766082852C/SET 4PC MINI PILLARS 0000001000+00005262+00000+0001T   00005262+0000001459          1400 FL8510               1BZ
105872002105872077-000115     105872006001023834225WRAP METALLIC 700mmx1m 0000002000+00001753+00000+0001T   00001753+0000001459          1400 FL8112               1BZ
105872003105872112-116069     105872006009681820277TCS CARRIER BAG JUMBO  0000001000+00000048+00000+0001T   00000048+0000001459          1400 FL8090               1BZ
105872004105872040-000103     105872000694202201862C/HOLDER-SET 5PC W/TRAY0000001000+00011402+00000+0001T   00013157+0008191459          1400 FL8510               1BZ
105873000105873               105873               170213BC     1400+00000+BC0000001314+0000001314+000000000+000000184+0000001498+0000000000+I40000001498+0000000000+Z
105873001105873077-000312     105873006001023608697GIFT-BAG 10X35CM GLOSS 0000001000+00001314+00000+0001T   00001314+0000001701          1400 FL8112               1BZ
105874000105874               105874               170213BC     1400+00000+BC0000001227+0000001227+000000000+000000172+0000001390+0000000009+I20000000000+0000001390+Z
105874001105874200-000092     105874006003000576739PICNIC PAPER PLATES 23c0000001000+00001227+00000+0001T   00001227+0000001702          1400 FL8214               1BZ
105875000105875               105875               170213BC     1400+00000+BC0000006137+0000006137+000000000+000000860+0000006997+0000000000+I40000006997+0000000000+Z
105875001105875466-006134     105875006001023647658GOLF-SET PL 3PCE       0000001000+00002630+00000+0001T   00002630+0000001703          1400 FL8785               1BZ
105875002105875466-006156     105875006003000537204GOLF-SET PUTTER W/BALL 0000001000+00003507+00000+0001T   00003507+0000001703          1400 FL8785               1BZ
105876000105876               105876               170213BC     1400+00000+BC0000002225+0000002225+000000000+000000313+0000002538+0000000000+I40000002538+0000000000+Z
105876001105876080-000133-A   105876006003000647019MINI VALENTINES CARD   0000001000+00000437+00000+0001T   00000437+0000001705          1400 FL8112               1BZ
105876002105876206-000120     105876006003000628308PEELER CARROT SHARPENER0000001000+00001753+00000+0001T   00001753+0000001705          1400 FL8321               1BZ
105876003105876112-116038     105876006009681820246TCS CARRIER BAG MIDI   0000001000+00000035+00000+0001T   00000035+0000001705          1400 FL8090               1BZ
105877000105877               105877               170213BC     1400+00000+BC0000003507+0000003507+000000000+000000491+0000003990+0000000008+I20000000000+0000003990+Z
105877001105877031-086224     105877006001023900623P/FRAME WDN GRAIN 13X180000001000+00003507+00000+0001T   00003507+0000001705          1400 FL8510               1BZ
105878000105878               105878               170213BC     1400+00000+BC0000004417+0000004417+000000000+000000620+0000005037+0000000000+I40000005037+0000000000+Z
105878001105878903-000710     105878006002099007056SWT REFRESHERS MINT    0000002000+00001139+00000+0001T   00001139+0000001707          1400 FL8150               1BZ
105878002105878903-000095     105878006001704011495SWT SPECKLED-EGGS 100G 0000001000+00002104+00000+0001T   00002104+0000001707          1400 FL8150               1BZ
105878003105878112-116038     105878006009681820246TCS CARRIER BAG MIDI   0000001000+00000035+00000+0001T   00000035+0000001707          1400 FL8090               1BZ
105879000105879               105879               170213BC     1400+00000+BC0000003980+0000003980+000000000+000000558+0000004538+0000000000+I40000004538+0000000000+Z
105879001105879024-000214     105879006001023587855COOKIE-CUTTERS PL 6PC  0000001000+00001753+00000+0001T   00001753+0000001709          1400 FL8300               1BZ
105879002105879566-000068     105879006003000418046POP UP LOVE 2 ASSTD    0000001000+00002192+00000+0001T   00002192+0000001709          1400 FL8130               1BZ
105879003105879112-116038     105879006009681820246TCS CARRIER BAG MIDI   0000001000+00000035+00000+0001T   00000035+0000001709          1400 FL8090               1BZ
105880000105880               105880               170213BC     1400+00000+BC0000001314+0000001314+000000000+000000184+0000001498+0000000000+I40000001498+0000000000+Z
105880001105880004-071280     105880006003000129959WRITABLE-CD SINGLE     0000001000+00001314+00000+0001T   00001314+0000001712          1400 FL8310               1BZ
105881000105881               105881               170213BC     1400+00000+BC0000001753+0000001753+000000000+000000246+0000001990+0000000009+I20000000000+0000001990+Z
105881001105881077-000309     105881006001023608604GIFT-BAG 25X32CM GLOSS 0000001000+00001753+00000+0001T   00001753+0000001712          1400 FL8112               1BZ
105882000105882               105882               170213BC     1400+00000+BC0000012234+0000012234+000000000+000001716+0000013950+0000000000+I40000013950+0000000000+Z
105882001105882112-116069     105882006009681820277TCS CARRIER BAG JUMBO  0000001000+00000048+00000+0001T   00000048+0000001714          1400 FL8090               1BZ
105882002105882077-000010-D   105882006001023123886CREPE-PAPER WHITE      0000001000+00000788+00000+0001T   00000788+0000001714          1400 FL8112               1BZ
105882003105882031-000902-B   105882006001023726285P/FRAME WDN OAK 10X15CM0000001000+00003946+00000+0001T   00003946+0000001714          1400 FL8510               1BZ
105882004105882031-000902-C   105882006001023726315P/FRAME WDN OAK 13X18CM0000001000+00005262+00000+0001T   00005262+0000001714          1400 FL8510               1BZ
105882005105882080-000133-A   105882006003000647019MINI VALENTINES CARD   0000001000+00000437+00000+0001T   00000437+0000001714          1400 FL8112               1BZ
105882006105882077-000316     105882006001023609731GIFT-BAG 25X32CM MATT  0000001000+00001753+00000+0001T   00001753+0000001714          1400 FL8112               1BZ
105883000105883               105883               170213BC     1400+00000+BC0000003506+0000003506+000000000+000000492+0000003998+0000000000+I40000003998+0000000000+Z
105883001105883080-000133-A   105883006003000647019MINI VALENTINES CARD   0000001000+00000437+00000+0001T   00000437+0000001716          1400 FL8112               1BZ
105883002105883105-002005     105883006001023803108LUNCH BOX SQUARE 12x7cm0000001000+00003069+00000+0001T   00003069+0000001716          1400 FL8210               1BZ
105884000105884               105884               170213BC     1400+00000+BC0000001314+0000001314+000000000+000000184+0000001490+0000000008+I20000000000+0000001490+Z
105884001105884107-004105     105884006009703860984BUCKET 9L OPEN         0000001000+00001314+00000+0001T   00001314+0000001717          1400 FL8210               1BZ
105885000105885               105885               170213BC     1400+00000+BC0000008771+0000008771+000000000+000001228+0000009990+0000000009+I20000000000+0000009990+Z
105885001105885031-007004     105885006003000463077P/FRAME A3 CERTIFICATE 0000001000+00008771+00000+0001T   00008771+0000001718          1400 FL8510               1BZ
105886000105886               105886               170213BC     1400+00000+BC0000003769+0000003769+000000000+000000529+0000004298+0000000000+I40000004298+0000000000+Z
105886001105886105-006004     105886006002580007763CANNISTER 3PCE    250ml0000001000+00002630+00000+0001T   00002630+0000001720          1400 FL8210               1BZ
105886002105886046-000014     105886006001023725387BATTERIES SIZE:AAA 4PCE0000001000+00001139+00000+0001T   00001139+0000001720          1400 FL8312               1BZ
105887000105887               105887               170213BC     1400+00000+BC0000007061+0000007061+000000000+000000991+0000008052+0000000000+I40000008052+0000000000+Z
105887001105887077-000299     105887006003000395576G/BAG 32x25cm LRG LOVE 0000001000+00001490+00000+0001T   00001490+0000001722          1400 FL8112               1BZ
105887002105887036-000151     105887006001023810588COATHANGERS    PACK-10 0000001000+00002893+00000+0001T   00002893+0000001722          1400 FL8212               1BZ
105887003105887076-000030-H   105887006001023429544WASHING-LINE 30m    H&H0000001000+00002630+00000+0001T   00002630+0000001722          1400 FL8810               1BZ
105887004105887112-116069     105887006009681820277TCS CARRIER BAG JUMBO  0000001000+00000048+00000+0001T   00000048+0000001722          1400 FL8090               1BZ
105888000105888               105888               170213BC     1400+00000+BC0000003976+0000003976+000000000+000000559+0000004530+0000000005+I20000000000+0000004530+Z
105888001105888077-000011-D   105888006001023808554TISSUE-WRAP WHITE 10PCE0000001000+00000876+00000+0001T   00000876+0000001723          1400 FL8112               1BZ
105888002105888077-000011-C   105888006001023808523TISSUE 10xSHTS RED     0000001000+00000876+00000+0001T   00000876+0000001723          1400 FL8112               1BZ
105888003105888077-000011-E   105888006001023808646TISSUE-WRAP PINK 10PCE 0000001000+00000876+00000+0001T   00000876+0000001723          1400 FL8112               1BZ
105888004105888077-000011-R   105888006001023808462P/TISSUE DARK 10-SHEETS0000001000+00000876+00000+0001T   00000876+0000001723          1400 FL8112               1BZ
105888005105888080-000133     105888006003000535613CARD&ENV MINI ASTD DSGN0000001000+00000437+00000+0001T   00000437+0000001723          1400 FL8112               1BZ
105888006105888112-116038     105888006009681820246TCS CARRIER BAG MIDI   0000001000+00000035+00000+0001T   00000035+0000001723          1400 FL8090               1BZ
105889000105889               105889               170213BC     1400+00000+BC0000004292+0000004292+000000000+000000603+0000004890+0000000005+I20000000000+0000004890+Z
105889001105889565-000071     105889006003000643387NOVELTY WIND UP CHATTER0000001000+00001139+00000+0001T   00001139+0000001724          1400 FL8745               1BZ
105889002105889903-000099     105889006923431501646SWT CANDY GS WTCH B/LET0000001000+00000262+00000+0001T   00000262+0000001724          1400 FL8150               1BZ
105889003105889903-000077     105889006939873501687SWT GS MAGIC ROCK FRUIT0000001000+00000525+00000+0001T   00000525+0000001724          1400 FL8150               1BZ
105889004105889077-000311     105889006001023608666GIFT-BAG 11X14CM GLOSS 0000001000+00000613+00000+0001T   00000613+0000001724          1400 FL8112               1BZ
105889005105889077-000309     105889006001023608604GIFT-BAG 25X32CM GLOSS 0000001000+00001753+00000+0001T   00001753+0000001724          1400 FL8112               1BZ
105890000105890               105890               170213BC     1400+00000+BC0000004031+0000004031+000000000+000000566+0000004590+0000000007+I20000000000+0000004590+Z
105890001105890079-009702-D   105890008427973059354PAPER SIRIO A2 RED COL 0000001000+00001051+00000+0001T   00001051+0000001725          1400 FL8130               1BZ
105890002105890077-000245     105890006001023759214GIFT-RIBBON METALLICx2 0000001000+00001227+00000+0001T   00001227+0000001725          1400 FL8112               1BZ
105890003105890071-001102     105890006003000274598MARKER PERM MED 2PCE   0000001000+00001753+00000+0001T   00001753+0000001725          1400 FL8130               1BZ
105891000105891               105891               170213BC     1400+00000+BC0000003191+0000003191+000000000+000000447+0000003630+0000000008+I20000000000+0000003630+Z
105891001105891077-000303     105891006001023593757GIFT-BAG PAPER MED     0000001000+00001578+00000+0001T   00001578+0000001727          1400 FL8112               1BZ
105891002105891018-000127     105891006001023380289MUG OCC STRAIGHT LOVE  0000001000+00001578+00000+0001T   00001753+0006471727          1400 FL8515               1BZ
105891003105891112-116038     105891006009681820246TCS CARRIER BAG MIDI   0000001000+00000035+00000+0001T   00000035+0000001727          1400 FL8090               1BZ
105892000105892               105892               170213BC     1400+00000+BC0000008623+0000008623+000000000+000001211+0000009834+0000000000+I40000009834+0000000000+Z
105892001105892903-000892     105892008693029700420SWT NOVELTY CHOCO CREAM0000001000+00000788+00000+0001T   00000788+0000001729          1400 FL8150               1BZ
105892002105892903-000077     105892006939873501687SWT GS MAGIC ROCK FRUIT0000001000+00000525+00000+0001T   00000525+0000001729          1400 FL8150               1BZ
105892003105892304-001204     105892006001023737984FLOWER OCC. TEDDY/ROSES0000001000+00001402+00000+0001T   00001490+0006471729          1400 FL8510               1BZ
105892004105892002-000094     105892006001023489753PIZZA-CUTTER           0000001000+00002630+00000+0001T   00002630+0000001729          1400 FL8300               1BZ
105892005105892089-000501     105892006003000622900KEY CHAIN LIGHT LASER  0000001000+00002192+00000+0001T   00002192+0000001729          1400 FL8205               1BZ
105892006105892039-000026     105892006001023551610C/TAPERED 25CM M/RED   0000001000+00001051+00000+0001T   00001051+0000001729          1400 FL8510               1BZ
105892007105892112-116038     105892006009681820246TCS CARRIER BAG MIDI   0000001000+00000035+00000+0001T   00000035+0000001729          1400 FL8090               1BZ
105893000105893               105893               170213BC     1400+00000+BC0000007015+0000007015+000000000+000000983+0000007990+0000000008+I20000000000+0000007990+Z
105893001105893071-001012     105893006001023474445MARKERS BLACK ROUND    0000001000+00000876+00000+0001T   00000876+0000001730          1400 FL8130               1BZ
105893002105893039-000798     105893006001023617774CANDLES TEALITE BOX-50 0000001000+00006139+00000+0001T   00006139+0000001730          1400 FL8510               1BZ
105894000105894               105894               170213BC     1400+00000+BC0000001753+0000001753+000000000+000000246+0000001999+0000000000+I40000001999+0000000000+Z
105894001105894301-085006     105894006001023502940ORN LOVE MSG TUBE W/HRT0000001000+00001753+00000+0001T   00001753+0000001732          1400 FL8505               1BZ
105895000105895               105895               170213BC     1400+00000+BC0000007886+0000007886+000000000+000001108+0000008994+0000000000+I40000008994+0000000000+Z
105895001105895903-000625     105895006003000659739SWT CHOC RP SLAB 60g   0000003000+00001753+00000+0001T   00001753+0000001737          1400 FL8150               1BZ
105895002105895077-000316     105895006001023609731GIFT-BAG 25X32CM MATT  0000001000+00001753+00000+0001T   00001753+0000001737          1400 FL8112               1BZ
105895003105895080-000133-A   105895006003000647019MINI VALENTINES CARD   0000001000+00000437+00000+0001T   00000437+0000001737          1400 FL8112               1BZ
105895004105895080-000133     105895006003000535613CARD&ENV MINI ASTD DSGN0000001000+00000437+00000+0001T   00000437+0000001737          1400 FL8112               1BZ
105896000105896               105896               170213BC     1400+00000+BC0000007016+0000007016+000000000+000000983+0000007999+0000000000+I40000007999+0000000000+Z
105896001105896562-000070     105896006003000600748EDU PLAY DOUGH 50g 8pc 0000001000+00007016+00000+0001T   00007016+0000001740          1400 FL8755               1BZ
105897000105897               105897               170213BC     1400+00000+BC0000001801+0000001801+000000000+000000253+0000002050+0000000004+I20000000000+0000002050+Z
105897001105897077-000316     105897006001023609731GIFT-BAG 25X32CM MATT  0000001000+00001753+00000+0001T   00001753+0000001740          1400 FL8112               1BZ
105897002105897112-116069     105897006009681820277TCS CARRIER BAG JUMBO  0000001000+00000048+00000+0001T   00000048+0000001740          1400 FL8090               1BZ
105898000105898               105898               170213BC     1400+00000+BC0000000874+0000000874+000000000+000000124+0000000990+0000000008+I20000000000+0000000990+Z
105898001105898080-000133-A   105898006003000647019MINI VALENTINES CARD   0000002000+00000437+00000+0001T   00000437+0000001741          1400 FL8112               1BZ
105899000105899               105899               170213BC     1400+00000+BC0000006663+0000006663+000000000+000000934+0000007597+0000000000+I40000007597+0000000000+Z
105899001105899018-030000     105899006003000421060MUG OCCASIONS LOVE 2PCE0000001000+00004385+00000+0001T   00004385+0000001743          1400 FL8515               1BZ
105899002105899903-000087     105899006001704000161SWT SPECKLED-EGGS 50G  0000002000+00001139+00000+0001T   00001139+0000001743          1400 FL8150               1BZ
105900000105900               105900               170213BC     1400+00000+BC0000003944+0000003944+000000000+000000553+0000004490+0000000007+I20000000000+0000004490+Z
105900001105900466-072725     105900006001023622532YO-YO PL               0000001000+00002630+00000+0001T   00002630+0000001743          1400 FL8785               1BZ
105900002105900046-000012     105900006904708013062BATTERIES AA  CARD-OF-40000001000+00001314+00000+0001T   00001314+0000001743          1400 FL8312               1BZ
105901000105901               105901               170213BC     1400+00000+BC0000003945+0000003945+000000000+000000553+0000004498+0000000000+I40000004498+0000000000+Z
105901001105901206-000590     105901006003000633708BAG CLIPS LIPS 2PC     0000001000+00001753+00000+0001T   00001753+0000001745          1400 FL8321               1BZ
105901002105901080-000127     105901006003000424351VALENTINES DAY 36x24CM 0000001000+00002192+00000+0001T   00002192+0000001745          1400 FL8112               1BZ
105902000105902               105902               170213BC     1400+00000+BC0000001314+0000001314+000000000+000000184+0000001490+0000000008+I20000000000+0000001490+Z
105902001105902903-000194     105902006009826020616SWT CHOC RP LOLLY 25G  0000001000+00001314+00000+0001T   00001314+0000001746          1400 FL8150               1BZ
105903000105903               105903               170213BC     1400+00000+BC0000000525+0000000525+000000000+000000074+0000000590+0000000009+I20000000000+0000000590+Z
105903001105903903-000151     105903006009803374411SWT SML RND R/BOW LOLLY0000001000+00000525+00000+0001T   00000525+0000001746          1400 FL8150               1BZ
105904000105904               105904               170213BC     1400+00000+BC0000000613+0000000613+000000000+000000086+0000000690+0000000009+I20000000000+0000000690+Z
105904001105904077-000311     105904006001023608666GIFT-BAG 11X14CM GLOSS 0000001000+00000613+00000+0001T   00000613+0000001748          1400 FL8112               1BZ
105905000105905               105905               170213BC     1400+00000+BC0000001753+0000001753+000000000+000000246+0000001999+0000000000+I40000001999+0000000000+Z
105905001105905024-000214     105905006001023587855COOKIE-CUTTERS PL 6PC  0000001000+00001753+00000+0001T   00001753+0000001749          1400 FL8300               1BZ
105906000105906               105906               170213BC     1400+00000+BC0000003506+0000003506+000000000+000000492+0000003990+0000000008+I20000000000+0000003990+Z
105906001105906046-002032-PK2 105906004897006175063BATTERIES CR-2032  2PCE0000001000+00001753+00000+0001T   00001753+0000001750          1400 FL8312               1BZ
105906002105906046-000014-A   105906004897006177708BATTERIES SIZE:AAA 8PCE0000001000+00001753+00000+0001T   00001753+0000001750          1400 FL8312               1BZ
105907000105907               105907               170213BC     1400+00000+BC0000010390+0000010390+000000000+000001458+0000011848+0000000000+I40000011848+0000000000+Z
105907001105907112-116069     105907006009681820277TCS CARRIER BAG JUMBO  0000001000+00000048+00000+0001T   00000048+0000001752          1400 FL8090               1BZ
105907002105907027-000231     105907006001023749598MOP-REFILL   WONDERGRIP0000001000+00002630+00000+0001T   00002630+0000001752          1400 FL8212               1BZ
105907003105907027-056186     105907006003000638215DISH BRUSH DUCK DESIGN 0000001000+00002630+00000+0001T   00002630+0000001752          1400 FL8212               1BZ
105907004105907306-000021     105907006001023169433EARBUDS 100PCE IN BAG  0000001000+00000613+00000+0001T   00000613+0000001752          1400 FL8200               1BZ
105907005105907080-000133     105907006003000535613CARD&ENV MINI ASTD DSGN0000001000+00000437+00000+0001T   00000437+0000001752          1400 FL8112               1BZ
105907006105907079-000195     105907006003000161485P/CRAYONS RETRCTBLEx10 0000001000+00003507+00000+0001T   00003507+0000001752          1400 FL8130               1BZ
105907007105907007-000402     105907006009635830864EXERCISE-BOOK A4 72PGE 0000001000+00000525+00000+0001T   00000525+0000001752          1400 FL8130               1BZ
105908000105908               105908               170213BC     1400+00000+BC0000007136+0000007136+000000000+000001000+0000008130+0000000006+I20000000000+0000008130+Z
105908001105908903-000616     105908006003000644827SWT HS SWORD 60cm      0000001000+00003507+00000+0001T   00003507+0000001755          1400 FL8150               1BZ
105908002105908903-004961     105908008410525221866SWT GUMMY FINI WILD 50g0000001000+00000964+00000+0001T   00000964+0000001755          1400 FL8150               1BZ
105908003105908018-000129     105908006001023403353MUG OCC. LOVE V-SHAPE  0000001000+00002630+00000+0001T   00002630+0000001755          1400 FL8515               1BZ
105908004105908112-116038     105908006009681820246TCS CARRIER BAG MIDI   0000001000+00000035+00000+0001T   00000035+0000001755          1400 FL8090               1BZ
105909000105909               105909               170213BC     1400+00000+BC0000000437+0000000437+000000000+000000062+0000000490+0000000009+I20000000000+0000000490+Z
105909001105909080-000133     105909006003000535613CARD&ENV MINI ASTD DSGN0000001000+00000437+00000+0001T   00000437+0000001755          1400 FL8112               1BZ
105910000105910               105910               170213BC     1400+00000+BC0000004383+0000004383+000000000+000000614+0000004990+0000000007+I20000000000+0000004990+Z
105910001105910018-000136     105910006001023659026MUG OCC LOVE W/PLUSH   0000001000+00003507+00000+0001T   00003507+0000001756          1400 FL8515               1BZ
105910002105910076-000017     105910006001811010022TWINE COTTON 50g-BALL  0000001000+00000876+00000+0001T   00000876+0000001756          1400 FL8810               1BZ
105911000105911               105911               170213BC     1400+00000+BC0000001753+0000001753+000000000+000000246+0000001990+0000000009+I20000000000+0000001990+Z
105911001105911077-000324     105911006001023677594GIFT-BAG 33X45CM E/D FL0000001000+00001753+00000+0001T   00001753+0000001758          1400 FL8112               1BZ
105912000105912               105912               170213BC     1400+00000+BC0000001753+0000001753+000000000+000000246+0000001990+0000000009+I20000000000+0000001990+Z
105912001105912024-000214     105912006001023587855COOKIE-CUTTERS PL 6PC  0000001000+00001753+00000+0001T   00001753+0000001758          1400 FL8300               1BZ
105913000105913               105913               170213BC     1400+00000+BC0000008715+0000008715+000000000+000001222+0000009930+0000000007+I20000000000+0000009930+Z
105913001105913041-093000     105913006003000320882B/GIFT SET 4PC B/RANGE 0000001000+00007016+00000+0001T   00007016+0000001759          1400 FL8200               1BZ
105913002105913903-000137     105913006002099004130SWEET GS JELLY BEAN 60G0000001000+00000788+00000+0001T   00000788+0000001759          1400 FL8150               1BZ
105913003105913903-000840     105913009243178623690SWT CANDY TIPSEE BERRY 0000001000+00000876+00000+0001T   00000876+0000001759          1400 FL8150               1BZ
105913004105913112-116038     105913006009681820246TCS CARRIER BAG MIDI   0000001000+00000035+00000+0001T   00000035+0000001759          1400 FL8090               1BZ
105914000105914               105914               170213BC     1400+00000+BC0000004732+0000004732+000000000+000000664+0000005390+0000000006+I20000000000+0000005390+Z
105914001105914077-000010-C   105914006001023123879CREPE-PAPER RED        0000001000+00000788+00000+0001T   00000788+0000001801          1400 FL8112               1BZ
105914002105914080-000133     105914006003000535613CARD&ENV MINI ASTD DSGN0000001000+00000437+00000+0001T   00000437+0000001801          1400 FL8112               1BZ
105914003105914103-000090     105914006001023795786WOVEN HEART SHAPED     0000001000+00003507+00000+0001T   00003507+0000001801          1400 FL8300               1BZ
105915000105915               105915               170213BC     1400+00000+BC0000000035+0000000035+000000000+000000005+0000000040+0000000000+I20000000000+0000000040+Z
105915001105915112-116038     105915006009681820246TCS CARRIER BAG MIDI   0000001000+00000035+00000+0001T   00000035+0000001802          1400 FL8090               1BZ
105916000105916               105916               170213BC     1400+00000+BC0000002628+0000002628+000000000+000000368+0000002990+0000000006+I20000000000+0000002990+Z
105916001105916584-002041     105916006003000241934ASSORTED CARTOON DVD   0000001000+00001314+00000+0001T   00001314+0000001802          1400 FL8310               1BZ
105916002105916567-011000     105916009780603566011BOOK CHILDREN'S READER 0000001000+00001314+00000+0001T   00001753+0008131802          1400 FL8757               1BZ
105917000105917               105917               170213BC     1400+00000+BC0000000035+0000000035+000000000+000000005+0000000040+0000000000+I20000000000+0000000040+Z
105917001105917112-116038     105917006009681820246TCS CARRIER BAG MIDI   0000001000+00000035+00000+0001T   00000035+0000001803          1400 FL8090               1BZ
105918000105918               105918               170213BC     1400+00000+BC0000003944+0000003944+000000000+000000553+0000004497+0000000000+I40000004497+0000000000+Z
105918001105918301-085004     105918006003000420469ORN LOVE PLAQUE 21X10CM0000001000+00003507+00000+0001T   00003946+0006471811          1400 FL8505               1BZ
105918002105918080-000133     105918006003000535613CARD&ENV MINI ASTD DSGN0000001000+00000437+00000+0001T   00000437+0000001811          1400 FL8112               1BZ
105919000105919               105919               170213BC     1400+00000+BC0000001753+0000001753+000000000+000000246+0000001990+0000000009+I20000000000+0000001990+Z
105919001105919142-000814     105919006001023183910GLOVES RUBBER  MEDIUM  0000001000+00001753+00000+0001T   00001753+0000001812          1400 FL8810               1BZ
105920000105920               105920               170213BC     1400+00000+BC0000002664+0000002664+000000000+000000374+0000003030+0000000008+I20000000000+0000003030+Z
105920001105920039-000319-3   105920006003000442621B/CANDLES LRG NUMBER-3 0000001000+00000876+00000+0001T   00000876+0000001813          1400 FL8510               1BZ
105920002105920566-000070     105920006003000283798STICKERS POP UP ASSTD  0000001000+00001753+00000+0001T   00001753+0000001813          1400 FL8130               1BZ
105920003105920112-116038     105920006009681820246TCS CARRIER BAG MIDI   0000001000+00000035+00000+0001T   00000035+0000001813          1400 FL8090               1BZ
105921000105921               105921               170213BC     1400+00000+BC0000004385-0000004385-000000000+000000614-0000005000-0000000001+I20000000000+0000005000-Z
105921001105921018-030000     105921006003000421060MUG OCCASIONS LOVE 2PCE0000001000-00004385+00000+0001T   00004385+0000001823          1400 FL85151IC            1 Z
105922000105922               105922               170213BC     1400+00000+BC0000003507+0000003507+000000000+000000491+0000003990+0000000008+I20000000000+0000003990+Z
105922001105922567-010565     105922006003000572472BOOK AFRIKAANS CAT 2   0000001000+00003507+00000+0001T   00003507+0000001823          1400 FL8757               1BZ
105923000105923               105923               170213BC     1400+00000+BC0000008241+0000008241+000000000+000001155+0000009396+0000000000+I40000009396+0000000000+Z
105923001105923301-085006     105923006001023502940ORN LOVE MSG TUBE W/HRT0000001000+00001753+00000+0001T   00001753+0000001825          1400 FL8505               1BZ
105923002105923301-000163     105923006001023716262ORN SENTIMENT P/FRAME  0000001000+00004385+00000+0001T   00004385+0000001825          1400 FL8505               1BZ
105923003105923077-000311     105923006001023608666GIFT-BAG 11X14CM GLOSS 0000001000+00000613+00000+0001T   00000613+0000001825          1400 FL8112               1BZ
105923004105923089-001021     105923006003000112319KEY CHAIN MINI BIBLE   0000001000+00001490+00000+0001T   00001490+0000001825          1400 FL8205               1BZ
105924000105924               105924               170213BC     1400+00000+BC0000000035+0000000035+000000000+000000005+0000000040+0000000000+I20000000000+0000000040+Z
105924001105924112-116038     105924006009681820246TCS CARRIER BAG MIDI   0000001000+00000035+00000+0001T   00000035+0000001825          1400 FL8090               1BZ
105925000105925               105925               170213BC     1400+00000+BC0000001227+0000001227+000000000+000000172+0000001390+0000000009+I20000000000+0000001390+Z
105925001105925077-000245     105925006001023759214GIFT-RIBBON METALLICx2 0000001000+00001227+00000+0001T   00001227+0000001826          1400 FL8112               1BZ
105926000105926               105926               170213BC     1400+00000+BC0000018665+0000018665+000000000+000002621+0000021286+0000000000+I40000021286+0000000000+Z
105926001105926082-098778     105926006001492987781SUNGLASS KIDS OVAL     0000001000+00003507+00000+0001T   00003507+0000001829          1400 FL8160               1BZ
105926002105926030-000031-A   105926006003000457588PLAQUE W/WORDS ASSTD   0000001000+00004385+00000+0001T   00004823+0006471829          1400 FL8505               1BZ
105926003105926077-000351     105926006003000139033GIFT-BAG 18X23CM E/D P 0000001000+00001753+00000+0001T   00001753+0000001829          1400 FL8112               1BZ
105926004105926077-000010-C   105926006001023123879CREPE-PAPER RED        0000002000+00000788+00000+0001T   00000788+0000001829          1400 FL8112               1BZ
105926005105926077-000351     105926006003000139033GIFT-BAG 18X23CM E/D P 0000003000+00001753+00000+0001T   00001753+0000001829          1400 FL8112               1BZ
105926006105926080-000133-A   105926006003000647019MINI VALENTINES CARD   0000005000+00000437+00000+0001T   00000437+0000001829          1400 FL8112               1BZ
105927000105927               105927               170213BC     1400+00000+BC0000012301+0000012301+000000000+000001728+0000014020+0000000009+I20000000000+0000014020+Z
105927001105927112-116038     105927006009681820246TCS CARRIER BAG MIDI   0000001000+00000035+00000+0001T   00000035+0000001831          1400 FL8090               1BZ
105927002105927903-000482     105927006001704001397SWT SOFT-MINTS 60G     0000001000+00000876+00000+0001T   00000876+0000001831          1400 FL8150               1BZ
105927003105927903-000087     105927006001704000161SWT SPECKLED-EGGS 50G  0000002000+00001139+00000+0001T   00001139+0000001831          1400 FL8150               1BZ
105927004105927903-004950     105927006002580020304SWT APRICOT SURPRISE   0000001000+00001314+00000+0001T   00001314+0000001831          1400 FL8150               1BZ
105927005105927159-000677     105927006001023729729BATH SPONGE RND 11CM   0000002000+00001753+00000+0001T   00001753+0000001831          1400 FL8200               1BZ
105927006105927077-000010-C   105927006001023123879CREPE-PAPER RED        0000001000+00000788+00000+0001T   00000788+0000001831          1400 FL8112               1BZ
105927007105927050-000889     105927006001023821102PADLOCK COMB RESETABLE 0000001000+00002630+00000+0001T   00002630+0000001831          1400 FL8855               1BZ
105927008105927080-000133     105927006003000535613CARD&ENV MINI ASTD DSGN0000001000+00000437+00000+0001T   00000437+0000001831          1400 FL8112               1BZ
105927009105927080-000133-A   105927006003000647019MINI VALENTINES CARD   0000001000+00000437+00000+0001T   00000437+0000001831          1400 FL8112               1BZ
105928000105928               105928               170213BC     1400+00000+BC0000008771+0000008771+000000000+000001228+0000009990+0000000009+I20000000000+0000009990+Z
105928001105928001-091415     105928006003000329113W/GLS OCC. LOVE 2PC 2800000001000+00008771+00000+0001T   00009648+0006471851          1400 FL8515               1BZ
105929000105929               105929               170213BC     1400+00000+BC0000001753+0000001753+000000000+000000246+0000001990+0000000009+I20000000000+0000001990+Z
105929001105929077-000454     105929006003000285266G/BAG METALLIC LRG EMB 0000001000+00001753+00000+0001T   00001753+0000001852          1400 FL8112               1BZ
105930000105930               105930               170213BC     1400+00000+BC0000001402+0000001402+000000000+000000197+0000001590+0000000009+I20000000000+0000001590+Z
105930001105930304-001204     105930006001023737984FLOWER OCC. TEDDY/ROSES0000001000+00001402+00000+0001T   00001490+0006471909          1400 FL8510               1BZ
105931000105931               105931               170213BC     1400+00000+BC0000006137+0000006137+000000000+000000860+0000006990+0000000007+I20000000000+0000006990+Z
105931001105931018-000136     105931006001023659026MUG OCC LOVE W/PLUSH   0000001000+00003507+00000+0001T   00003507+0000001910          1400 FL8515               1BZ
105931002105931077-000270     105931006003000395453GIFT-BAG PPR JMB 33X45 0000001000+00002630+00000+0001T   00002630+0000001910          1400 FL8112               1BZ
105932000105932               105932               170213BC     1400+00000+BC0000002015+0000002015+000000000+000000283+0000002290+0000000008+I20000000000+0000002290+Z
105932001105932077-000315     105932006003000181186GIFT-BAG 20x28cm MATT  0000001000+00001578+00000+0001T   00001578+0000001915          1400 FL8112               1BZ
105932002105932080-000133     105932006003000535613CARD&ENV MINI ASTD DSGN0000001000+00000437+00000+0001T   00000437+0000001915          1400 FL8112               1BZ
C10583600                                          170213BC006-001000     09325225SLAVE 1     FL81IC0000000000+0000000000+0010000001000+
M17021391                              CASH        BCSLAVE 1                       Z-REPORT No.   584TOTAL (Sales - Refunds)           5861.07       CASH TO BE BANKED                 2407.50       DEBIT CARDS                          0.00       CREDIT CARDS                      3453.57       Z-READING                         5861.07       AIRTIME DEBIT CARD SALES             0.00       AIRTIME CARD SALES                   0.00       OVERS/UNDERS                         0.00       AIRTIME CASH SALES                   0.00       GIFT CARDS                           0.00       GIFT CARD CASH SALES                 0.00       T O T A L  CASH PAYOUTS              0.00                                                                                                                                                                                                                                                                                                                                                      Z
M17021392                              CASH        BCABSENT                                                                                                                                                                                          ANNUAL LEAVE                                                                                                                                                                                    DAY OFF                                                                                                                                                                                         COMMENTS                                                                                                                                                                                                                                                                                                                                                                                       Z
Y17021300                                          BC00000000522342+000098
ZBC17021321033 SLAVE 1      SALES DATA                     NEXT INVOICE NO.  105933 0584
X BC Slave 1 First invoice 105834 170213 Last invoice 105932 170213 Next invoice 105933 Total number of records 000000328 clbackup completed 21:03:56
