118391000118391               118391               170213BC     1400+00000+BC0000006613+0000006613+000000000+000000926+0000007530+0000000009+I20000000000+0000007530+Z
118391001118391112-116038     118391006009681820246TCS CARRIER BAG MIDI   0000001000+00000035+00000+0001T   00000035+0000000941          1400 AJ5090               2BZ
118391002118391047-000512-H   118391006001023657473EXT-CORD 3m DBL-J   H&H0000001000+00006578+00000+0001T   00006578+0000000941          1400 AJ5880               2BZ
118392000118392               118392               170213BC     1400+00000+BC0000001753+0000001753+000000000+000000246+0000001990+0000000009+I20000000000+0000001990+Z
118392001118392366-002809     118392006003000222643DRESS UP MOUSTACHE SET 0000001000+00001753+00000+0001T   00001753+0000000945          1400 AJ5131               2BZ
118393000118393               118393               170213BC     1400+00000+BC0000000700+0000000700+000000000+000000098+0000000790+0000000008+I20000000000+0000000790+Z
118393001118393007-000128     118393006009635830475BOOK H/COVER A5 96-PAGE0000001000+00000700+00000+0001T   00000700+0000001016          1400 AJ5130               2BZ
118394000118394               118394               170213BC     1400+00000+BC0000027189+0000027189+000000000+000003808+0000030997+0000000000+I40000030997+0000000000+Z
118394001118394368-000637     118394006001023874092PLUSH BEAR SLEEPING LOV0000001000+00011402+00000+0001T   00012279+0006471020          1400 AJ5745               2BZ
118394002118394077-000270     118394006003000395453GIFT-BAG PPR JMB 33X45 0000001000+00002630+00000+0001T   00002630+0000001020          1400 AJ5112               2BZ
118394003118394028-003602     118394006003000605224UMBRELLA-BEACH 200cm   0000001000+00013157+00000+0001T   00013157+0000001020          1400 AJ5305               2BZ
118395000118395               118395               170213BC     1400+00000+BC0000003506+0000003506+000000000+000000492+0000003990+0000000008+I20000000000+0000003990+Z
118395001118395006-000124     118395006003000625888BALLOONS 10PC MIX COL  0000002000+00001753+00000+0001T   00001753+0000001023          1400 AJ5131               2BZ
118396000118396               118396               170213BC     1400+00000+BC0000001227+0000001227+000000000+000000172+0000001390+0000000009+I20000000000+0000001390+Z
118396001118396033-001401     118396006009654960481HAIR-CURLERS 8PCE MED  0000001000+00001227+00000+0001T   00001227+0000001037          1400 AJ5200               2BZ
118397000118397               118397               170213BC     1400+00000+BC0000002454+0000002454+000000000+000000344+0000002790+0000000008+I20000000000+0000002790+Z
118397001118397077-000245     118397006001023759214GIFT-RIBBON METALLICx2 0000002000+00001227+00000+0001T   00001227+0000001038          1400 AJ5112               2BZ
118398000118398               118398               170213BC     1400+00000+BC0000005908+0000005908+000000000+000000828+0000006736+0000000000+I40000006736+0000000000+Z
118398001118398112-116038     118398006009681820246TCS CARRIER BAG MIDI   0000001000+00000035+00000+0001T   00000035+0000001040          1400 AJ5090               2BZ
118398002118398077-000303     118398006001023593757GIFT-BAG PAPER MED     0000001000+00001578+00000+0001T   00001578+0000001040          1400 AJ5112               2BZ
118398003118398077-000010-C   118398006001023123879CREPE-PAPER RED        0000001000+00000788+00000+0001T   00000788+0000001040          1400 AJ5112               2BZ
118398004118398301-085004     118398006003000420469ORN LOVE PLAQUE 21X10CM0000001000+00003507+00000+0001T   00003946+0006471040          1400 AJ5505               2BZ
118399000118399               118399               170213BC     1400+00000+BC0000006139+0000006139+000000000+000000860+0000006999+0000000000+I40000006999+0000000000+Z
118399001118399368-000265     118399006001023750914PLUSH BEAR 23CM ASSTD C0000001000+00006139+00000+0001T   00006139+0000001042          1400 AJ5745               2BZ
118400000118400               118400               170213BC     1400+00000+BC0000003187+0000003187+000000000+000000447+0000003630+0000000004+I20000000000+0000003630+Z
118400001118400077-000150-D   118400006003000054343GIFT-WRAP CELLPHANE CLR0000002000+00000876+00000+0001T   00000876+0000001048          1400 AJ5112               2BZ
118400002118400566-002000     118400000721129013206STICKERS CRYSTAL ASSTD 0000001000+00000700+00000+0001T   00000700+0000001048          1400 AJ51301IC            2BZ
118400003118400564-000012     118400006001023130075BUBBLE BOTTLE MAGIC    0000001000+00000700+00000+0001T   00000700+0000001048          1400 AJ5131               2BZ
118400004118400112-116038     118400006009681820246TCS CARRIER BAG MIDI   0000001000+00000035+00000+0001T   00000035+0000001048          1400 AJ5090               2BZ
118401000118401               118401               170213BC     1400+00000+BC0000006752+0000006752+000000000+000000946+0000007690+0000000008+I20000000000+0000007690+Z
118401001118401133-000035     118401006001023768889CASSEROLE HOLDER CANVAS0000001000+00005262+00000+0001T   00005262+0000001058          1400 AJ5212               2BZ
118401002118401027-783002     118401006001023874658SCOURERS FOAM PACK OF 30000001000+00001490+00000+0001T   00001490+0000001058          1400 AJ5212               2BZ
118402000118402               118402               170213BC     1400+00000+BC0000005998+0000005998+000000000+000000840+0000006838+0000000000+I40000006838+0000000000+Z
118402001118402368-000049     118402006003000536955PLUSH BEAR 15cm LOVE   0000001000+00004385+00000+0001T   00004385+0000001218          1400 AJ5745               2BZ
118402002118402077-000303     118402006001023593757GIFT-BAG PAPER MED     0000001000+00001578+00000+0001T   00001578+0000001218          1400 AJ5112               2BZ
118402003118402112-116038     118402006009681820246TCS CARRIER BAG MIDI   0000001000+00000035+00000+0001T   00000035+0000001218          1400 AJ5090               2BZ
118403000118403               118403               170213BC     1400+00000+BC0000002452+0000002452+000000000+000000344+0000002790+0000000006+I20000000000+0000002790+Z
118403001118403565-000044     118403006003000128280BARREL OF SLIME 100g   0000004000+00000613+00000+0001T   00000613+0000001219          1400 AJ5745               2BZ
118404000118404               118404               170213BC     1400+00000+BC0000004385+0000004385+000000000+000000614+0000004999+0000000000+I40000004999+0000000000+Z
118404001118404262-000019     118404006003000644667DIE CAST SET FARM TRUCK0000001000+00004385+00000+0001T   00004385+0000001420          1400 AJ5710               2BZ
118405000118405               118405               170213BC     1400+00000+BC0000001227+0000001227+000000000+000000172+0000001390+0000000009+I20000000000+0000001390+Z
118405001118405251-000040     118405006001023515865SEALTAPE CLEAR 48mmx50m0000001000+00001227+00000+0001T   00001227+0000001425          1400 AJ5810               2BZ
118406000118406               118406               170213BC     1400+00000+BC0000010728+0000010728+000000000+000001505+0000012233+0000000000+I40000012233+0000000000+Z
118406001118406112-116038     118406006009681820246TCS CARRIER BAG MIDI   0000001000+00000035+00000+0001T   00000035+0000001430          1400 AJ5090               2BZ
118406002118406565-000255     118406006003000585168NOVELTY GLOW SLIME     0000001000+00002455+00000+0001T   00002455+0000001430          1400 AJ5745               2BZ
118406003118406566-000950     118406006003000216048STICKERS 3 STYLES 100PC0000002000+00002192+00000+0001T   00002192+0000001430          1400 AJ5130               2BZ
118406004118406903-000503     118406006001704006118SWT VAMPIRE FANGS 60G  0000002000+00000876+00000+0001T   00000876+0000001430          1400 AJ5150               2BZ
118406005118406903-002851     118406000000087108538MENTOS ROLL STRAWBERRY 0000001000+00001051+00000+0001T   00001051+0000001430          1400 AJ5150               2BZ
118406006118406903-002850     118406000000087108262MENTOS ROLL FRUIT      0000001000+00001051+00000+0001T   00001051+0000001430          1400 AJ5150               2BZ
118407000118407               118407               170213BC     1400+00000+BC0000000876+0000000876+000000000+000000123+0000000990+0000000009+I20000000000+0000000990+Z
118407001118407077-000151     118407006008766114676GIFT-WRAP C/PHANE ASSTD0000001000+00000876+00000+0001T   00000876+0000001430          1400 AJ5112               2BZ
118408000118408               118408               170213BC     1400+00000+BC0000004381+0000004381+000000000+000000615+0000004990+0000000006+I20000000000+0000004990+Z
118408001118408200-000211     118408006003000671847BAKING-PANS ALUM-FOIL  0000001000+00001753+00000+0001T   00001753+0000001432          1400 AJ5214               2BZ
118408002118408200-000125     118408006001023459749CUTLERY-SET 10PCE   H&L0000003000+00000876+00000+0001T   00000876+0000001432          1400 AJ5214               2BZ
118409000118409               118409               170213BC     1400+00000+BC0000003541+0000003541+000000000+000000497+0000004038+0000000000+I40000004038+0000000000+Z
118409001118409072-020347     118409006001023858627PET GROOMING-GLOVE     0000002000+00001753+00000+0001T   00001753+0000001502          1400 AJ5870               2BZ
118409002118409112-116038     118409006009681820246TCS CARRIER BAG MIDI   0000001000+00000035+00000+0001T   00000035+0000001502          1400 AJ5090               2BZ
118410000118410               118410               170213BC     1400+00000+BC0000002227+0000002227+000000000+000000312+0000002530+0000000009+I20000000000+0000002530+Z
118410001118410112-116038     118410006009681820246TCS CARRIER BAG MIDI   0000001000+00000035+00000+0001T   00000035+0000001509          1400 AJ5090               2BZ
118410002118410024-000033     118410006003000420278MEASURING JUG 1L H/H   0000001000+00002192+00000+0001T   00002192+0000001509          1400 AJ5300               2BZ
118411000118411               118411               170213BC     1400+00000+BC0000007051+0000007051+000000000+000000988+0000008039+0000000000+I40000008039+0000000000+Z
118411001118411567-011908     118411006003000676361BK PROMO CLEARANCE ASST0000001000+00007016+00000+0001T   00007016+0000001513          1400 AJ5757               2BZ
118411002118411112-116038     118411006009681820246TCS CARRIER BAG MIDI   0000001000+00000035+00000+0001T   00000035+0000001513          1400 AJ5090               2BZ
118412000118412               118412               170213BC     1400+00000+BC0000004370+0000004370+000000000+000000620+0000004990+0000000000+I20000000000+0000004990+Z
118412001118412080-000133     118412006003000535613CARD&ENV MINI ASTD DSGN0000002000+00000437+00000+0001T   00000437+0000001515          1400 AJ5112               2BZ
118412002118412080-000133-A   118412006003000647019MINI VALENTINES CARD   0000002000+00000437+00000+0001T   00000437+0000001515          1400 AJ5112               2BZ
118412003118412080-000133     118412006003000535613CARD&ENV MINI ASTD DSGN0000001000+00000437+00000+0001T   00000437+0000001515          1400 AJ5112               2BZ
118412004118412080-000133-A   118412006003000647019MINI VALENTINES CARD   0000001000+00000437+00000+0001T   00000437+0000001515          1400 AJ5112               2BZ
118412005118412080-000133     118412006003000535613CARD&ENV MINI ASTD DSGN0000002000+00000437+00000+0001T   00000437+0000001515          1400 AJ5112               2BZ
118412006118412080-000133-A   118412006003000647019MINI VALENTINES CARD   0000001000+00000437+00000+0001T   00000437+0000001515          1400 AJ5112               2BZ
118412007118412080-000133     118412006003000535613CARD&ENV MINI ASTD DSGN0000001000+00000437+00000+0001T   00000437+0000001515          1400 AJ5112               2BZ
118413000118413               118413               170213BC     1400+00000+BC0000004998+0000004998+000000000+000000700+0000005690+0000000008+I20000000000+0000005690+Z
118413001118413368-000049     118413006003000536955PLUSH BEAR 15cm LOVE   0000001000+00004385+00000+0001T   00004385+0000001528          1400 AJ5745               2BZ
118413002118413077-000311     118413006001023608666GIFT-BAG 11X14CM GLOSS 0000001000+00000613+00000+0001T   00000613+0000001528          1400 AJ5112               2BZ
118414000118414               118414               170213BC     1400+00000+BC0000010559+0000010559+000000000+000001479+0000012030+0000000008+I20000000000+0000012030+Z
118414001118414106-000890     118414000876416080628WATER BOTTLE PL 700ml  0000002000+00005262+00000+0001T   00005262+0000001529          1400 AJ5210               2BZ
118414002118414112-116038     118414006009681820246TCS CARRIER BAG MIDI   0000001000+00000035+00000+0001T   00000035+0000001529          1400 AJ5090               2BZ
118415000118415               118415               170213BC     1400+00000+BC0000003069+0000003069+000000000+000000430+0000003490+0000000009+I20000000000+0000003490+Z
118415001118415012-000012     118415006003000333646MICROWAVE MICRO-POT    0000001000+00003069+00000+0001T   00003069+0000001530          1400 AJ5300               2BZ
118416000118416               118416               170213BC     1400+00000+BC0000001753+0000001753+000000000+000000246+0000001999+0000000000+I40000001999+0000000000+Z
118416001118416089-000030     118416006003000575671K/CHAIN LOVE MTL ASSTD 0000001000+00001753+00000+0001T   00001753+0000001532          1400 AJ5205               2BZ
118417000118417               118417               170213BC     1400+00000+BC0000001490+0000001490+000000000+000000209+0000001690+0000000009+I20000000000+0000001690+Z
118417001118417565-004101     118417006003000548033BALL BOUNCING EGG      0000001000+00001490+00000+0001T   00001490+0000001533          1400 AJ5745               2BZ
118418000118418               118418               170213BC     1400+00000+BC0000002630+0000002630+000000000+000000369+0000002990+0000000009+I20000000000+0000002990+Z
118418001118418036-005010     118418006002580008739COATHANGER KIDDIES PL  0000001000+00002630+00000+0001T   00002630+0000001534          1400 AJ5212               2BZ
118419000118419               118419               170213BC     1400+00000+BC0000005297+0000005297+000000000+000000742+0000006030+0000000009+I20000000000+0000006030+Z
118419001118419051-043090     118419006001023881823SHEARS PRUNING 200mm   0000001000+00005262+00000+0001T   00005262+0000001535          1400 AJ5820               2BZ
118419002118419112-116038     118419006009681820246TCS CARRIER BAG MIDI   0000001000+00000035+00000+0001T   00000035+0000001535          1400 AJ5090               2BZ
118420000118420               118420               170213BC     1400+00000+BC0000009551+0000009551+000000000+000001341+0000010892+0000000000+I40000010892+0000000000+Z
118420001118420566-001118     118420006003000682171STICKERS CELL PHONE    0000001000+00001753+00000+0001T   00001753+0000001737          1400 AJ5130               2BZ
118420002118420079-009702-D   118420008427973059354PAPER SIRIO A2 RED COL 0000001000+00001051+00000+0001T   00001051+0000001737          1400 AJ5130               2BZ
118420003118420079-009702-B   118420008427973059491PAPER SIRIO A2 WHITE   0000001000+00001051+00000+0001T   00001051+0000001737          1400 AJ5130               2BZ
118420004118420077-000926     118420006003000414178G/WRAP 700mmx2m LOVE   0000001000+00002192+00000+0001T   00002192+0000001737          1400 AJ5112               2BZ
118420005118420077-000011-X   118420006001023809827TISSUE-WRAP SILVER 10PC0000001000+00001753+00000+0001T   00001753+0000001737          1400 AJ5112               2BZ
118420006118420077-000312     118420006001023608697GIFT-BAG 10X35CM GLOSS 0000001000+00001314+00000+0001T   00001314+0000001737          1400 AJ5112               2BZ
118420007118420080-000133     118420006003000535613CARD&ENV MINI ASTD DSGN0000001000+00000437+00000+0001T   00000437+0000001737          1400 AJ5112               2BZ
A17021300                                          09325776BCSLAVE 2                       AJ51IC
A17021301                                          09484744BCSLAVE 2                       AJ51IC
B11840000                                          170213BC566-002000     10475381SLAVE 2     AJ51IC0000002000+0000001000+0000000000000+
M17021391                              CASH        BCSLAVE 2                       Z-REPORT No.   674TOTAL (Sales - Refunds)           1731.70       CASH TO BE BANKED                  794.00       DEBIT CARDS                          0.00       CREDIT CARDS                       937.70       Z-READING                         1731.70       AIRTIME DEBIT CARD SALES             0.00       AIRTIME CARD SALES                   0.00       OVERS/UNDERS                         0.00       AIRTIME CASH SALES                   0.00       GIFT CARDS                           0.00       GIFT CARD CASH SALES                 0.00       T O T A L  CASH PAYOUTS              0.00                                                                                                                                                                                                                                                                                                                                                      Z
M17021392                              CASH        BCABSENT                                                                                                                                                                                          ANNUAL LEAVE                                                                                                                                                                                    DAY OFF                                                                                                                                                                                         COMMENTS                                                                                                                                                                                                                                                                                                                                                                                       Z
Y17021300                                          BC00000000152011+000030
ZBC17021321033 SLAVE 2      SALES DATA                     NEXT INVOICE NO.  118421 0674
X BC Slave 2 First invoice 118391 170213 Last invoice 118420 170213 Next invoice 118421 Total number of records 000000103 clbackup completed 21:03:57
