121402000121402               121402               170213BC     1400+00000+BC0000004821+0000004821+000000000+000000675+0000005496+0000000000+I40000005496+0000000000+Z
121402001121402077-000310     121402006001023608635GIFT-BAG 18X23CM GLOSS 0000001000+00001314+00000+0001T   00001314+0000001109          1400 GM9112               3BZ
121402002121402018-000136     121402006001023659026MUG OCC LOVE W/PLUSH   0000001000+00003507+00000+0001T   00003507+0000001109          1400 GM9515               3BZ
121403000121403               121403               170213BC     1400+00000+BC0000005521+0000005521+000000000+000000773+0000006290+0000000004+I20000000000+0000006290+Z
121403001121403077-000310     121403006001023608635GIFT-BAG 18X23CM GLOSS 0000001000+00001314+00000+0001T   00001314+0000001110          1400 GM9112               3BZ
121403002121403903-000120     121403006002099001665SWEET GS ZILLIONS 50g  0000001000+00000700+00000+0001T   00000700+0000001110          1400 GM9150               3BZ
121403003121403018-000136     121403006001023659026MUG OCC LOVE W/PLUSH   0000001000+00003507+00000+0001T   00003507+0000001110          1400 GM9515               3BZ
121404000121404               121404               170213BC     1400+00000+BC0000001402+0000001402+000000000+000000197+0000001590+0000000009+I20000000000+0000001590+Z
121404001121404046-000011     121404004897006172994BATTERIES SIZE:AA  2PCE0000001000+00001402+00000+0001T   00001402+0000001114          1400 GM9312               3BZ
121405000121405               121405               170213BC     1400+00000+BC0000003069+0000003069+000000000+000000430+0000003490+0000000009+I20000000000+0000003490+Z
121405001121405051-005577     121405006001023534088GARDEN-TROWEL 250mm    0000001000+00003069+00000+0001T   00003069+0000001117          1400 GM9820               3BZ
121406000121406               121406               170213BC     1400+00000+BC0000012322+0000012322+000000000+000001728+0000014050+0000000000+I40000014050+0000000000+Z
121406001121406046-000002     121406006001023585202BATTERIES SIZE:C   2PCE0000002000+00001753+00000+0001T   00001753+0000001120          1400 GM9312               3BZ
121406002121406365-000001     121406006003000395262PLAY SET DOCTORS SET   0000001000+00001753+00000+0001T   00001753+0000001120          1400 GM9725               3BZ
121406003121406112-116069     121406006009681820277TCS CARRIER BAG JUMBO  0000001000+00000048+00000+0001T   00000048+0000001120          1400 GM9090               3BZ
121406004121406565-000886     121406006003000337057CRITTERS PUFFER BALLS  0000001000+00004385+00000+0001T   00004385+0000001120          1400 GM9745               3BZ
121406005121406361-090311     121406006003000542895PONY 8cmx9cm PERFECT   0000001000+00002630+00000+0001T   00002630+0000001120          1400 GM9725               3BZ
121407000121407               121407               170213BC     1400+00000+BC0000007012+0000007012+000000000+000000984+0000007990+0000000006+I20000000000+0000007990+Z
121407001121407006-000120     121407006001023346889BALLOONS 10PC MIX COL  0000001000+00001753+00000+0001T   00001753+0000001121          1400 GM9131               3BZ
121407002121407006-000124     121407006003000625888BALLOONS 10PC MIX COL  0000003000+00001753+00000+0001T   00001753+0000001121          1400 GM9131               3BZ
121408000121408               121408               170213BC     1400+00000+BC0000034156+0000034156+000000000+000004788+0000038940+0000000004+I20000000000+0000038940+Z
121408001121408079-009702-A   121408008427973059408PAPER SIRIO A2 BLACK   0000001000+00001051+00000+0001T   00001051+0000001126          1400 GM9130               3BZ
121408002121408368-000637     121408006001023874092PLUSH BEAR SLEEPING LOV0000001000+00011402+00000+0001T   00012279+0006471126          1400 GM9745               3BZ
121408003121408079-006494     121408006003000159864GLITTER GLUE 5PCE 11cm 0000001000+00001490+00000+0001T   00001490+0000001126          1400 GM9130               3BZ
121408004121408368-000157     121408006003000167401PLUSH RABBIT           0000001000+00007893+00000+0001T   00007893+0000001126          1400 GM9745               3BZ
121408005121408077-000011-D   121408006001023808554TISSUE-WRAP WHITE 10PCE0000001000+00000876+00000+0001T   00000876+0000001126          1400 GM9112               3BZ
121408006121408077-000011-E   121408006001023808646TISSUE-WRAP PINK 10PCE 0000001000+00000876+00000+0001T   00000876+0000001126          1400 GM9112               3BZ
121408007121408077-000150-D   121408006003000054343GIFT-WRAP CELLPHANE CLR0000001000+00000876+00000+0001T   00000876+0000001126          1400 GM9112               3BZ
121408008121408077-000239     121408006003000160419GIFT-RIBBON ROLL PEARL 0000001000+00001753+00000+0001T   00001753+0000001126          1400 GM9112               3BZ
121408009121408112-116069     121408006009681820277TCS CARRIER BAG JUMBO  0000001000+00000048+00000+0001T   00000048+0000001126          1400 GM9090               3BZ
121408010121408077-000150-D   121408006003000054343GIFT-WRAP CELLPHANE CLR0000001000+00000876+00000+0001T   00000876+0000001126          1400 GM9112               3BZ
121408011121408103-000474     121408006003000630363BAMBOO FLOWER BASKET   0000001000+00005262+00000+0001T   00005262+0000001126          1400 GM9300               3BZ
121408012121408079-013032-A   121408006003000389322SEA WORLD STICKERS     0000001000+00001753+00000+0001T   00001753+0000001126          1400 GM9130               3BZ
121409000121409               121409               170213BC     1400+00000+BC0000004385+0000004385+000000000+000000614+0000004999+0000000000+I40000004999+0000000000+Z
121409001121409105-007010-B   121409006002580007381CONTAINER 9L ASSORTED  0000001000+00004385+00000+0001T   00004385+0000001129          1400 GM9210               3BZ
121410000121410               121410               170213BC     1400+00000+BC0000006138+0000006138+000000000+000000860+0000006998+0000000000+I40000006998+0000000000+Z
121410001121410072-020298     121410006003000561629DOG-TOY TUG-ROPE ASSTD 0000001000+00003069+00000+0001T   00003069+0000001130          1400 GM9870               3BZ
121410002121410072-020311     121410006003000494132PET DOG TOY VINYL BALL 0000001000+00003069+00000+0001T   00003069+0000001130          1400 GM9870               3BZ
121411000121411               121411               170213BC     1400+00000+BC0000001314+0000001314+000000000+000000184+0000001490+0000000008+I20000000000+0000001490+Z
121411001121411046-000012     121411006904708013062BATTERIES AA  CARD-OF-40000001000+00001314+00000+0001T   00001314+0000001131          1400 GM9312               3BZ
121412000121412               121412               170213BC     1400+00000+BC0000013900+0000013900+000000000+000001948+0000015848+0000000000+I40000015848+0000000000+Z
121412001121412077-000304     121412006001023483232GIFT-BAG 25X32CM E/DAY 0000001000+00001490+00000+0001T   00001490+0000001134          1400 GM9112               3BZ
121412002121412301-085004     121412006003000420469ORN LOVE PLAQUE 21X10CM0000001000+00003507+00000+0001T   00003946+0006471134          1400 GM9505               3BZ
121412003121412080-000127     121412006003000424351VALENTINES DAY 36x24CM 0000001000+00002192+00000+0001T   00002192+0000001134          1400 GM9112               3BZ
121412004121412047-000504-H   121412006001023589958PLUG EURODAPTOR 2PIN HH0000001000+00001665+00000+0001T   00001665+0000001134          1400 GM9880               3BZ
121412005121412018-030000     121412006003000421060MUG OCCASIONS LOVE 2PCE0000001000+00004385+00000+0001T   00004385+0000001134          1400 GM9515               3BZ
121412006121412112-116069     121412006009681820277TCS CARRIER BAG JUMBO  0000001000+00000048+00000+0001T   00000048+0000001134          1400 GM9090               3BZ
121412007121412083-000055     121412006003000003853LIGHTER ELCTRNC REFILBL0000001000+00000613+00000+0001T   00000613+0000001134          1400 GM9315               3BZ
121413000121413               121413               170213BC     1400+00000+BC0000002630+0000002630+000000000+000000369+0000002990+0000000009+I20000000000+0000002990+Z
121413001121413104-000131     121413006003000676996BASKET/ORGANISER ROUND 0000001000+00002630+00000+0001T   00002630+0000001134          1400 GM9210               3BZ
121414000121414               121414               170213BC     1400+00000+BC0000010115+0000010115+000000000+000001419+0000011530+0000000004+I20000000000+0000011530+Z
121414001121414077-000312     121414006001023608697GIFT-BAG 10X35CM GLOSS 0000001000+00001314+00000+0001T   00001314+0000001136          1400 GM9112               3BZ
121414002121414006-000323-C   121414006003000108961CONFETTI LOVE PK-3     0000001000+00002630+00000+0001T   00002630+0000001136          1400 GM9131               3BZ
121414003121414039-001023     121414006003000466337CANDLE TEA-LITE METALIC0000001000+00001753+00000+0001T   00001753+0000001136          1400 GM9510               3BZ
121414004121414006-000804     121414006003000574445STREAMERS 6-ROLLS 2.5cm0000001000+00001753+00000+0001T   00001753+0000001136          1400 GM9131               3BZ
121414005121414304-001486     121414006003000035335FLWR BUNCH ROSE        0000001000+00002630+00000+0001T   00002630+0000001136          1400 GM9510               3BZ
121414006121414112-116038     121414006009681820246TCS CARRIER BAG MIDI   0000001000+00000035+00000+0001T   00000035+0000001136          1400 GM9090               3BZ
121415000121415               121415               170213BC     1400+00000+BC0000010084+0000010084+000000000+000001412+0000011496+0000000000+I40000011496+0000000000+Z
121415001121415563-000318-L   121415006003000407088SERVIETTES 33cm RED    0000001000+00002192+00000+0001T   00002192+0000001138          1400 GM9214               3BZ
121415002121415567-011314     121415009781472399311BOOK ACTIVITY FROZEN   0000001000+00004385+00000+0001T   00004385+0000001138          1400 GM9757               3BZ
121415003121415567-011385     121415009780857511799BK STICKER STARDOLL PET0000001000+00003507+00000+0001T   00003507+0000001138          1400 GM9757               3BZ
121416000121416               121416               170213BC     1400+00000+BC0000001578+0000001578+000000000+000000221+0000001790+0000000009+I20000000000+0000001790+Z
121416001121416018-000127     121416006001023380289MUG OCC STRAIGHT LOVE  0000001000+00001578+00000+0001T   00001753+0006471140          1400 GM9515               3BZ
121417000121417               121417               170213BC     1400+00000+BC0000003069+0000003069+000000000+000000430+0000003490+0000000009+I20000000000+0000003490+Z
121417001121417020-000142     121417006003000223138KNIFE-SET 3PCE UTILITY 0000001000+00003069+00000+0001T   00003069+0000001148          1400 GM9300               3BZ
121418000121418               121418               170213BC     1400+00000+BC0000004823+0000004823+000000000+000000676+0000005490+0000000009+I20000000000+0000005490+Z
121418001121418046-000012-VP  121418006003000537914BATTERIES H/P SIZE:AA  0000001000+00004823+00000+0001T   00004823+0000001149          1400 GM9312               3BZ
121419000121419               121419               170213BC     1400+00000+BC0000001753+0000001753+000000000+000000246+0000001990+0000000009+I20000000000+0000001990+Z
121419001121419089-000030     121419006003000575671K/CHAIN LOVE MTL ASSTD 0000001000+00001753+00000+0001T   00001753+0000001150          1400 GM9205               3BZ
121420000121420               121420               170213BC     1400+00000+BC0000012973+0000012973+000000000+000001820+0000014793+0000000000+I40000014793+0000000000+Z
121420001121420006-000120     121420006001023346889BALLOONS 10PC MIX COL  0000001000+00001753+00000+0001T   00001753+0000001200          1400 GM9131               3BZ
121420002121420301-085001     121420006003000297610ORN WATERBALL LOVE ASST0000001000+00004823+00000+0001T   00004823+0000001200          1400 GM9505               3BZ
121420003121420071-005214     121420006003000152544CELLOTAPE SUPER REFILL 0000001000+00001490+00000+0001T   00001490+0000001200          1400 GM9130               3BZ
121420004121420566-001234     121420006003000217793STICKERS LASER ASSTD   0000001000+00001578+00000+0001T   00001578+0000001200          1400 GM9130               3BZ
121420005121420077-000010-D   121420006001023123886CREPE-PAPER WHITE      0000002000+00000788+00000+0001T   00000788+0000001200          1400 GM9112               3BZ
121420006121420366-002799     121420006003000648238DRESSUP S/ADH FACE HAIR0000001000+00001753+00000+0001T   00001753+0000001200          1400 GM9131               3BZ
121421000121421               121421               170213BC     1400+00000+BC0000001753+0000001753+000000000+000000246+0000001990+0000000009+I20000000000+0000001990+Z
121421001121421200-003026     121421006003000276448REFUSE BAGS 10PCE GREEN0000001000+00001753+00000+0001T   00001753+0000001206          1400 GM9214               3BZ
121422000121422               121422               170213BC     1400+00000+BC0000005260+0000005260+000000000+000000738+0000005990+0000000008+I20000000000+0000005990+Z
121422001121422567-075466     121422009780263919943BK NOVEL ROMANCE       0000001000+00002630+00000+0001T   00002630+0000001222          1400 GM9757               3BZ
121422002121422567-075466     121422009780263254228BK NOVEL ROMANCE       0000001000+00002630+00000+0001T   00002630+0000001222          1400 GM9757               3BZ
121423000121423               121423               170213BC     1400+00000+BC0000003243+0000003243+000000000+000000455+0000003698+0000000000+I40000003698+0000000000+Z
121423001121423206-000310     121423006003000632787BOTTLE-STOPPER SILICONE0000001000+00002630+00000+0001T   00002630+0000001223          1400 GM9321               3BZ
121423002121423077-000311     121423006001023608666GIFT-BAG 11X14CM GLOSS 0000001000+00000613+00000+0001T   00000613+0000001223          1400 GM9112               3BZ
121424000121424               121424               170213BC     1400+00000+BC0000003507+0000003507+000000000+000000491+0000003990+0000000008+I20000000000+0000003990+Z
121424001121424018-000130     121424006001023867537MUG OCC LOVE MINI+HEART0000001000+00003507+00000+0001T   00003507+0000001224          1400 GM9515               3BZ
121425000121425               121425               170213BC     1400+00000+BC0000001753+0000001753+000000000+000000246+0000001990+0000000009+I20000000000+0000001990+Z
121425001121425071-001102     121425006003000274598MARKER PERM MED 2PCE   0000001000+00001753+00000+0001T   00001753+0000001225          1400 GM9130               3BZ
121426000121426               121426               170213BC     1400+00000+BC0000003507+0000003507+000000000+000000491+0000003990+0000000008+I20000000000+0000003990+Z
121426001121426560-000189     121426006003000592357ANIMALS SNAKE 78cm     0000001000+00003507+00000+0001T   00003507+0000001231          1400 GM9745               3BZ
121427000121427               121427               170213BC     1400+00000+BC0000002630+0000002630+000000000+000000369+0000002990+0000000009+I20000000000+0000002990+Z
121427001121427200-003021     121427006003000276370REFUSE BAGS 30xSCENTED 0000001000+00002630+00000+0001T   00002630+0000001233          1400 GM9214               3BZ
121428000121428               121428               170213BC     1400+00000+BC0000013591+0000013591+000000000+000001904+0000015490+0000000005+I20000000000+0000015490+Z
121428001121428027-009027     121428006003000235803BROOM FLAT 1.2m HANDLE 0000001000+00004385+00000+0001T   00004385+0000001235          1400 GM9212               3BZ
121428002121428365-003056     121428006009635021453KIDDIES WOODEN BROOM   0000001000+00003069+00000+0001T   00003069+0000001235          1400 GM9725               3BZ
121428003121428028-000918     121428006001023777232BBQ BSTN-BRUSHS 2PC H&L0000001000+00003507+00000+0001T   00003507+0000001235          1400 GM9305               3BZ
121428004121428027-000090     121428006001023588265WINDOW-CLEANER LONG-HND0000001000+00002630+00000+0001T   00002630+0000001235          1400 GM9212               3BZ
121429000121429               121429               170213BC     1400+00000+BC0000002665+0000002665+000000000+000000374+0000003030+0000000009+I20000000000+0000003030+Z
121429001121429037-000006     121429006003000171996ASHTRAY PL TUB GIANT   0000001000+00002630+00000+0001T   00003069+0008191237          1400 GM9515               3BZ
121429002121429112-116038     121429006009681820246TCS CARRIER BAG MIDI   0000001000+00000035+00000+0001T   00000035+0000001237          1400 GM9090               3BZ
121430000121430               121430               170213BC     1400+00000+BC0000003506+0000003506+000000000+000000492+0000003990+0000000008+I20000000000+0000003990+Z
121430001121430362-003000     121430006003000295258GIRL HEART NOTEBOOK    0000002000+00001753+00000+0001T   00002630+0008191239          1400 GM9160               3BZ
121431000121431               121431               170213BC     1400+00000+BC0000005261+0000005261+000000000+000000737+0000005990+0000000008+I20000000000+0000005990+Z
121431001121431200-000025-A   121431006925406841054BAG ZIPPERSEAL 15PC    0000001000+00002192+00000+0001T   00002192+0000001248          1400 GM9214               3BZ
121431002121431024-000069     121431006001023849571EGG-WHISK S/S 30cm     0000001000+00003069+00000+0001T   00003069+0000001248          1400 GM9300               3BZ
121432000121432               121432               170213BC     1400+00000+BC0000002190+0000002190+000000000+000000307+0000002490+0000000007+I20000000000+0000002490+Z
121432001121432566-001234     121432006003000217793STICKERS LASER ASSTD   0000001000+00001578+00000+0001T   00001578+0000001249          1400 GM9130               3BZ
121432002121432079-009700-A   121432006003000547746PAPER SIRIO A4 BLACK   0000001000+00000306+00000+0001T   00000306+0000001249          1400 GM9130               3BZ
121432003121432079-009700-D   121432006003000545711PAPER SIRIO A4 RED COL.0000001000+00000306+00000+0001T   00000306+0000001249          1400 GM9130               3BZ
121433000121433               121433               170213BC     1400+00000+BC0000008152+0000008152+000000000+000001143+0000009295+0000000000+I40000009295+0000000000+Z
121433001121433566-000951     121433006003000217670STICKERS 3 STYLES ASSTD0000001000+00002192+00000+0001T   00002192+0000001252          1400 GM9130               3BZ
121433002121433562-000010     121433006001023762528KID'S PLAY DOUGH       0000002000+00002630+00000+0001T   00002630+0000001252          1400 GM9755               3BZ
121433003121433566-002000     121433000721129013206STICKERS CRYSTAL ASSTD 0000001000+00000700+00000+0001T   00000700+0000001252          1400 GM9130               3BZ
121434000121434               121434               170213BC     1400+00000+BC0000000218+0000000218+000000000+000000031+0000000240+0000000009+I20000000000+0000000240+Z
121434001121434006-000171-G   121434006003000609529BALLOONS 1PC YELLOW PRN0000001000+00000218+00000+0001T   00000218+0000001253          1400 GM9131               3BZ
121435000121435               121435               170213BC     1400+00000+BC0000010559+0000010559+000000000+000001479+0000012038+0000000000+I40000012038+0000000000+Z
121435001121435076-000017     121435006001811010022TWINE COTTON 50g-BALL  0000001000+00000876+00000+0001T   00000876+0000001255          1400 GM9810               3BZ
121435002121435030-004015     121435006003000467624PLAQUE WDN SIGN 30X20CM0000001000+00009648+00000+0001T   00009648+0000001255          1400 GM9505               3BZ
121435003121435112-116038     121435006009681820246TCS CARRIER BAG MIDI   0000001000+00000035+00000+0001T   00000035+0000001255          1400 GM9090               3BZ
121436000121436               121436               170213BC     1400+00000+BC0000002663+0000002663+000000000+000000374+0000003030+0000000007+I20000000000+0000003030+Z
121436001121436077-000302     121436008010410010195GIFT-BAG 18X23CM E/D   0000002000+00000876+00000+0001T   00000876+0000001256          1400 GM9112               3BZ
121436002121436077-000011-L   121436006001023808585P/TISSUE BRIGHT 10SHEET0000001000+00000876+00000+0001T   00000876+0000001256          1400 GM9112               3BZ
121436003121436112-116038     121436006009681820246TCS CARRIER BAG MIDI   0000001000+00000035+00000+0001T   00000035+0000001256          1400 GM9090               3BZ
121437000121437               121437               170213BC     1400+00000+BC0000000876+0000000876+000000000+000000123+0000000990+0000000009+I20000000000+0000000990+Z
121437001121437077-000151     121437006008766114676GIFT-WRAP C/PHANE ASSTD0000001000+00000876+00000+0001T   00000876+0000001259          1400 GM9112               3BZ
121438000121438               121438               170213BC     1400+00000+BC0000014425+0000014425+000000000+000002022+0000016440+0000000007+I20000000000+0000016440+Z
121438001121438084-009418     121438006003000450305SCISSORS 13cm ASSTD COL0000001000+00001490+00000+0001T   00001490+0000001301          1400 GM9200               3BZ
121438002121438080-000139     121438006003000611690CARD & ENV MINI SET 6PC0000003000+00002192+00000+0001T   00002192+0000001301          1400 GM9112               3BZ
121438003121438077-000926     121438006003000414178G/WRAP 700mmx2m LOVE   0000001000+00002192+00000+0001T   00002192+0000001301          1400 GM9112               3BZ
121438004121438304-001011     121438006001023806727FLWR ROSE RED W/BEAR   0000001000+00000613+00000+0001T   00000788+0006471301          1400 GM9510               3BZ
121438005121438040-000207     121438006003000673636C/HOLDER GLS COL. 9CM  0000002000+00001753+00000+0001T   00001753+0000001301          1400 GM9510               3BZ
121438006121438112-116069     121438006009681820277TCS CARRIER BAG JUMBO  0000001000+00000048+00000+0001T   00000048+0000001301          1400 GM9090               3BZ
121439000121439               121439               170213BC     1400+00000+BC0000009207+0000009207+000000000+000001290+0000010490+0000000007+I20000000000+0000010490+Z
121439001121439077-000270     121439006003000395453GIFT-BAG PPR JMB 33X45 0000001000+00002630+00000+0001T   00002630+0000001302          1400 GM9112               3BZ
121439002121439018-030000     121439006003000421060MUG OCCASIONS LOVE 2PCE0000001000+00004385+00000+0001T   00004385+0000001302          1400 GM9515               3BZ
121439003121439080-000127     121439006003000424351VALENTINES DAY 36x24CM 0000001000+00002192+00000+0001T   00002192+0000001302          1400 GM9112               3BZ
121440000121440               121440               170213BC     1400+00000+BC0000001490+0000001490+000000000+000000209+0000001690+0000000009+I20000000000+0000001690+Z
121440001121440077-000299     121440006003000395576G/BAG 32x25cm LRG LOVE 0000001000+00001490+00000+0001T   00001490+0000001304          1400 GM9112               3BZ
121441000121441               121441               170213BC     1400+00000+BC0000002630+0000002630+000000000+000000369+0000002999+0000000000+I40000002999+0000000000+Z
121441001121441046-002330-PK2 121441004897006178347BATTERY LITHIUM CR-23300000001000+00002630+00000+0001T   00002630+0000001308          1400 GM9312               3BZ
121442000121442               121442               170213BC     1400+00000+BC0000001227+0000001227+000000000+000000172+0000001390+0000000009+I20000000000+0000001390+Z
121442001121442251-000041     121442006001023515889SEAL-TAPE BUFF 48mmx50m0000001000+00001227+00000+0001T   00001227+0000001310          1400 GM9810               3BZ
121443000121443               121443               170213BC     1400+00000+BC0000008155+0000008155+000000000+000001142+0000009297+0000000000+I40000009297+0000000000+Z
121443001121443012-000024     121443006003000580897MICROWAVE HOT PLATE    0000001000+00004385+00000+0001T   00004385+0000001312          1400 GM9300               3BZ
121443002121443077-000323     121443006001023677563G/BAG 25X32CM E/DAY FLO0000001000+00001578+00000+0001T   00001578+0000001312          1400 GM9112               3BZ
121443003121443056-005719     121443006001023820983CAR AIR-FRESHENER ASSTD0000001000+00002192+00000+0001T   00002192+0000001312          1400 GM9860               3BZ
121444000121444               121444               170213BC     1400+00000+BC0000001753+0000001753+000000000+000000246+0000001990+0000000009+I20000000000+0000001990+Z
121444001121444077-000454     121444006003000285266G/BAG METALLIC LRG EMB 0000001000+00001753+00000+0001T   00001753+0000001313          1400 GM9112               3BZ
121445000121445               121445               170213BC     1400+00000+BC0000003506+0000003506+000000000+000000492+0000003990+0000000008+I20000000000+0000003990+Z
121445001121445077-000011-C   121445006001023808523TISSUE 10xSHTS RED     0000001000+00000876+00000+0001T   00000876+0000001314          1400 GM9112               3BZ
121445002121445077-000270     121445006003000395453GIFT-BAG PPR JMB 33X45 0000001000+00002630+00000+0001T   00002630+0000001314          1400 GM9112               3BZ
121446000121446               121446               170213BC     1400+00000+BC0000000048+0000000048+000000000+000000007+0000000050+0000000005+I20000000000+0000000050+Z
121446001121446112-116069     121446006009681820277TCS CARRIER BAG JUMBO  0000001000+00000048+00000+0001T   00000048+0000001315          1400 GM9090               3BZ
121447000121447               121447               170213BC     1400+00000+BC0000001490+0000001490+000000000+000000209+0000001690+0000000009+I20000000000+0000001690+Z
121447001121447077-000299     121447006003000395576G/BAG 32x25cm LRG LOVE 0000001000+00001490+00000+0001T   00001490+0000001315          1400 GM9112               3BZ
121448000121448               121448               170213BC     1400+00000+BC0000010957+0000010957+000000000+000001536+0000012490+0000000003+I20000000000+0000012490+Z
121448001121448077-000467     121448006003000329991GIFT-BAG STAMP 18X23CM 0000001000+00001753+00000+0001T   00001753+0000001318          1400 GM9112               3BZ
121448002121448903-004951     121448006002580020328SWT MALLOW MINI M/SHAKE0000001000+00001227+00000+0001T   00001227+0000001318          1400 GM9150               3BZ
121448003121448903-000095     121448006001704011495SWT SPECKLED-EGGS 100G 0000001000+00002104+00000+0001T   00002104+0000001318          1400 GM9150               3BZ
121448004121448077-000311     121448006001023608666GIFT-BAG 11X14CM GLOSS 0000001000+00000613+00000+0001T   00000613+0000001318          1400 GM9112               3BZ
121448005121448162-092944     121448006001492929446SS 3PK KIDS H/BANDS    0000001000+00003507+00000+0001T   00003507+0000001318          1400 GM9160               3BZ
121448006121448162-089176     121448006001492891767SS KIDS 2PK HEART SET  0000001000+00001753+00000+0001T   00001753+0000001318          1400 GM9160               3BZ
121449000121449               121449               170213BC     1400+00000+BC0000001753+0000001753+000000000+000000246+0000001990+0000000009+I20000000000+0000001990+Z
121449001121449903-000219     121449006925925911450SWT ERKO MALLOW CHOC   0000001000+00001753+00000+0001T   00001753+0000001319          1400 GM9150               3BZ
121450000121450               121450               170213BC     1400+00000+BC0000009030+0000009030+000000000+000001266+0000010290+0000000006+I20000000000+0000010290+Z
121450001121450016-006502     121450006003000618545S/JAR GLS HERMETICO    0000001000+00006139+00000+0001T   00006139+0000001324          1400 GM9300               3BZ
121450002121450903-000087     121450006001704000161SWT SPECKLED-EGGS 50G  0000001000+00001139+00000+0001T   00001139+0000001324          1400 GM9150               3BZ
121450003121450903-000520     121450006001704009898SWT GUMMY MINI SOUR 60g0000001000+00000876+00000+0001T   00000876+0000001324          1400 GM9150               3BZ
121450004121450903-000220     121450006001704007368SWT JELLY BEANS 60G    0000001000+00000876+00000+0001T   00000876+0000001324          1400 GM9150               3BZ
121451000121451               121451               170213BC     1400+00000+BC0000001006+0000001006+000000000+000000141+0000001140+0000000007+I20000000000+0000001140+Z
121451001121451007-000123     121451006003000533879BOOK COVER 450mmx1.5m  0000001000+00000306+00000+0001T   00000306+0000001327          1400 GM9130               3BZ
121451002121451566-000311     121451006003000522613STICKER LOCKER         0000001000+00000700+00000+0001T   00000876+0008151327          1400 GM9130               3BZ
121452000121452               121452               170213BC     1400+00000+BC0000005294+0000005294+000000000+000000743+0000006030+0000000007+I20000000000+0000006030+Z
121452001121452903-000619     121452006003000672455SWT LOLLY STR/BRRY 140G0000002000+00001753+00000+0001T   00001753+0000001328          1400 GM9150               3BZ
121452002121452903-000912     121452006009802868461SWT GUM TAPE HOT WHEELS0000001000+00001753+00000+0001T   00001753+0000001328          1400 GM9150               3BZ
121452003121452112-116038     121452006009681820246TCS CARRIER BAG MIDI   0000001000+00000035+00000+0001T   00000035+0000001328          1400 GM9090               3BZ
121453000121453               121453               170213BC     1400+00000+BC0000004431+0000004431+000000000+000000621+0000005050+0000000002+I20000000000+0000005050+Z
121453001121453159-000102     121453006001023552891SHOWER-CADDY 48cm      0000001000+00003507+00000+0001T   00003507+0000001330          1400 GM9200               3BZ
121453002121453306-000021-A   121453006001023891358EARBUDS COTTON 100PCE  0000001000+00000876+00000+0001T   00000876+0000001330          1400 GM9200               3BZ
121453003121453112-116069     121453006009681820277TCS CARRIER BAG JUMBO  0000001000+00000048+00000+0001T   00000048+0000001330          1400 GM9090               3BZ
121454000121454               121454               170213BC     1400+00000+BC0000003156+0000003156+000000000+000000442+0000003590+0000000008+I20000000000+0000003590+Z
121454001121454080-000124     121454006003000297733CARD & ENV VALENTINES  0000002000+00001578+00000+0001T   00001578+0000001333          1400 GM9112               3BZ
121455000121455               121455               170213BC     1400+00000+BC0000003945+0000003945+000000000+000000553+0000004490+0000000008+I20000000000+0000004490+Z
121455001121455084-009407     121455006001023861726SCISSORS 13cm MTL PL-H 0000001000+00001753+00000+0001T   00001753+0000001334          1400 GM9200               3BZ
121455002121455024-000033     121455006003000420278MEASURING JUG 1L H/H   0000001000+00002192+00000+0001T   00002192+0000001334          1400 GM9300               3BZ
121456000121456               121456               170213BC     1400+00000+BC0000006137+0000006137+000000000+000000860+0000006997+0000000000+I40000006997+0000000000+Z
121456001121456204-000030     121456006003000683536MEMO HOLDER SAYINGS    0000001000+00003507+00000+0001T   00003507+0000001336          1400 GM9300               3BZ
121456002121456204-000004     121456006003000416318MEMO HOLDERS ASSTD 7PCE0000001000+00002630+00000+0001T   00002630+0000001336          1400 GM9300               3BZ
121457000121457               121457               170213BC     1400+00000+BC0000013198+0000013198+000000000+000001852+0000015050+0000000000+I40000015050+0000000000+Z
121457001121457112-116069     121457006009681820277TCS CARRIER BAG JUMBO  0000001000+00000048+00000+0001T   00000048+0000001339          1400 GM9090               3BZ
121457002121457567-075466     121457009780263918724BK NOVEL ROMANCE       0000001000+00002630+00000+0001T   00002630+0000001339          1400 GM9757               3BZ
121457003121457567-075466     121457009780263920826BK NOVEL ROMANCE       0000001000+00002630+00000+0001T   00002630+0000001339          1400 GM9757               3BZ
121457004121457567-075466     121457009780263917468BK NOVEL ROMANCE       0000001000+00002630+00000+0001T   00002630+0000001339          1400 GM9757               3BZ
121457005121457567-075466     121457009780263254235BK NOVEL ROMANCE       0000001000+00002630+00000+0001T   00002630+0000001339          1400 GM9757               3BZ
121457006121457567-075466     121457009780263252859BK NOVEL ROMANCE       0000001000+00002630+00000+0001T   00002630+0000001339          1400 GM9757               3BZ
121458000121458               121458               170213BC     1400+00000+BC0000005962+0000005962+000000000+000000835+0000006797+0000000000+I40000006797+0000000000+Z
121458001121458080-000124     121458006003000297733CARD & ENV VALENTINES  0000001000+00001578+00000+0001T   00001578+0000001342          1400 GM9112               3BZ
121458002121458080-000127     121458006003000424351VALENTINES DAY 36x24CM 0000002000+00002192+00000+0001T   00002192+0000001342          1400 GM9112               3BZ
121459000121459               121459               170213BC     1400+00000+BC0000001753+0000001753+000000000+000000246+0000001999+0000000000+I40000001999+0000000000+Z
121459001121459566-101026     121459000678634806925M/M 9xROLL STICKER BOX 0000001000+00001753+00000+0001T   00002192+0008151344          1400 GM9130               3BZ
121460000121460               121460               170213BC     1400+00000+BC0000003329+0000003329+000000000+000000467+0000003790+0000000006+I20000000000+0000003790+Z
121460001121460046-000012     121460006904708013062BATTERIES AA  CARD-OF-40000001000+00001314+00000+0001T   00001314+0000001344          1400 GM9312               3BZ
121460002121460566-001234     121460006003000217793STICKERS LASER ASSTD   0000001000+00001578+00000+0001T   00001578+0000001344          1400 GM9130               3BZ
121460003121460080-000133-A   121460006003000647019MINI VALENTINES CARD   0000001000+00000437+00000+0001T   00000437+0000001344          1400 GM9112               3BZ
121461000121461               121461               170213BC     1400+00000+BC0000003682+0000003682+000000000+000000516+0000004190+0000000008+I20000000000+0000004190+Z
121461001121461039-000108     121461006001023524034TEA-LITE CANDLES 8PCE  0000001000+00001490+00000+0001T   00001490+0000001345          1400 GM9510               3BZ
121461002121461563-000318-L   121461006003000407088SERVIETTES 33cm RED    0000001000+00002192+00000+0001T   00002192+0000001345          1400 GM9214               3BZ
121462000121462               121462               170213BC     1400+00000+BC0000002936+0000002936+000000000+000000412+0000003340+0000000008+I20000000000+0000003340+Z
121462001121462079-013032-H   121462006003000496501GLITTER PRINCESS ACC   0000001000+00002630+00000+0001T   00002630+0000001351          1400 GM9130               3BZ
121462002121462079-009700-D   121462006003000545711PAPER SIRIO A4 RED COL.0000001000+00000306+00000+0001T   00000306+0000001351          1400 GM9130               3BZ
121463000121463               121463               170213BC     1400+00000+BC0000002279+0000002279+000000000+000000320+0000002590+0000000009+I20000000000+0000002590+Z
121463001121463027-000194     121463006001246602472MOP COMPLETE           0000001000+00002279+00000+0001T   00002279+0000001352          1400 GM9212               3BZ
121464000121464               121464               170213BC     1400+00000+BC0000006185+0000006185+000000000+000000867+0000007050+0000000002+I20000000000+0000007050+Z
121464001121464058-000061     121464006001023759597KNIFE SNAPOFF+5PCE BLDE0000001000+00002630+00000+0001T   00002630+0000001353          1400 GM9840               3BZ
121464002121464007-000199     121464006002324001200FILE RING-BINDER A4    0000001000+00003507+00000+0001T   00003507+0000001353          1400 GM9130               3BZ
121464003121464112-116069     121464006009681820277TCS CARRIER BAG JUMBO  0000001000+00000048+00000+0001T   00000048+0000001353          1400 GM9090               3BZ
121465000121465               121465               170213BC     1400+00000+BC0000008769+0000008769+000000000+000001229+0000009998+0000000000+I40000009998+0000000000+Z
121465001121465031-086301-C   121465006001023910240P/FRAME PL BRONZE 20X250000001000+00007016+00000+0001T   00007016+0000001356          1400 GM9510               3BZ
121465002121465077-000472     121465006003000330133G-BAG DESGNR LRG 25X32 0000001000+00001753+00000+0001T   00001753+0000001356          1400 GM9112               3BZ
121466000121466               121466               170213BC     1400+00000+BC0000008364+0000008364+000000000+000001173+0000009530+0000000007+I20000000000+0000009530+Z
121466001121466304-000720     121466006001023843050F/BUNCH ROSE 6-HEAD AST0000001000+00002630+00000+0001T   00002630+0000001357          1400 GM9510               3BZ
121466002121466079-013032-D   121466006003000389643RIBBONS                0000001000+00002630+00000+0001T   00002630+0000001357          1400 GM9130               3BZ
121466003121466079-014152     121466006003000253074ART+CRAFT PK50 ASSTD   0000001000+00003069+00000+0001T   00003069+0000001357          1400 GM9130               3BZ
121466004121466112-116038     121466006009681820246TCS CARRIER BAG MIDI   0000001000+00000035+00000+0001T   00000035+0000001357          1400 GM9090               3BZ
121467000121467               121467               170213BC     1400+00000+BC0000002192+0000002192+000000000+000000307+0000002490+0000000009+I20000000000+0000002490+Z
121467001121467080-000127     121467006003000424351VALENTINES DAY 36x24CM 0000001000+00002192+00000+0001T   00002192+0000001404          1400 GM9112               3BZ
121468000121468               121468               170213BC     1400+00000+BC0000001753+0000001753+000000000+000000246+0000001990+0000000009+I20000000000+0000001990+Z
121468001121468089-000030     121468006003000575671K/CHAIN LOVE MTL ASSTD 0000001000+00001753+00000+0001T   00001753+0000001444          1400 GM9205               3BZ
121469000121469               121469               170213BC     1400+00000+BC0000001753+0000001753+000000000+000000246+0000001990+0000000009+I20000000000+0000001990+Z
121469001121469077-000472     121469006003000330133G-BAG DESGNR LRG 25X32 0000001000+00001753+00000+0001T   00001753+0000001456          1400 GM9112               3BZ
121470000121470               121470               170213BC     1400+00000+BC0000002665+0000002665+000000000+000000374+0000003039+0000000000+I40000003039+0000000000+Z
121470001121470206-000110     121470006003000628186CHOPSTICKS PLASTIC KIDS0000001000+00002630+00000+0001T   00002630+0000001459          1400 GM9321               3BZ
121470002121470112-116038     121470006009681820246TCS CARRIER BAG MIDI   0000001000+00000035+00000+0001T   00000035+0000001459          1400 GM9090               3BZ
121471000121471               121471               170213BC     1400+00000+BC0000001578+0000001578+000000000+000000221+0000001790+0000000009+I20000000000+0000001790+Z
121471001121471077-000303     121471006001023593757GIFT-BAG PAPER MED     0000001000+00001578+00000+0001T   00001578+0000001500          1400 GM9112               3BZ
121472000121472               121472               170213BC     1400+00000+BC0000001490+0000001490+000000000+000000209+0000001690+0000000009+I20000000000+0000001690+Z
121472001121472077-000299     121472006003000395576G/BAG 32x25cm LRG LOVE 0000001000+00001490+00000+0001T   00001490+0000001521          1400 GM9112               3BZ
121473000121473               121473               170213BC     1400+00000+BC0000005044+0000005044+000000000+000000707+0000005750+0000000001+I20000000000+0000005750+Z
121473001121473077-000303     121473006001023593757GIFT-BAG PAPER MED     0000001000+00001578+00000+0001T   00001578+0000001526          1400 GM9112               3BZ
121473002121473080-000127     121473006003000424351VALENTINES DAY 36x24CM 0000001000+00002192+00000+0001T   00002192+0000001526          1400 GM9112               3BZ
121473003121473006-001000     121473006003000093779HELIUM BALLOON FILL    0000002000+00000613+00000+0001T   00000613+0000001526          1400 GM9131               3BZ
121473004121473112-116069     121473006009681820277TCS CARRIER BAG JUMBO  0000001000+00000048+00000+0001T   00000048+0000001526          1400 GM9090               3BZ
121474000121474               121474               170213BC     1400+00000+BC0000003102+0000003102+000000000+000000435+0000003537+0000000000+I40000003537+0000000000+Z
121474001121474039-001023     121474006003000466337CANDLE TEA-LITE METALIC0000001000+00001753+00000+0001T   00001753+0000001533          1400 GM9510               3BZ
121474002121474903-005000     121474006002580020007SWT CT MALLOW FISH 120g0000001000+00001314+00000+0001T   00001314+0000001533          1400 GM9150               3BZ
121474003121474112-116038     121474006009681820246TCS CARRIER BAG MIDI   0000001000+00000035+00000+0001T   00000035+0000001533          1400 GM9090               3BZ
121475000121475               121475               170213BC     1400+00000+BC0000002665+0000002665+000000000+000000374+0000003030+0000000009+I20000000000+0000003030+Z
121475001121475108-003023     121475006003000665471TUMBLER W/STRAW 550ml  0000001000+00002630+00000+0001T   00002630+0000001534          1400 GM9210               3BZ
121475002121475112-116038     121475006009681820246TCS CARRIER BAG MIDI   0000001000+00000035+00000+0001T   00000035+0000001534          1400 GM9090               3BZ
121476000121476               121476               170213BC     1400+00000+BC0000001578+0000001578+000000000+000000221+0000001790+0000000009+I20000000000+0000001790+Z
121476001121476077-000303     121476006001023593757GIFT-BAG PAPER MED     0000001000+00001578+00000+0001T   00001578+0000001535          1400 GM9112               3BZ
121477000121477               121477               170213BC     1400+00000+BC0000002665+0000002665+000000000+000000374+0000003030+0000000009+I20000000000+0000003030+Z
121477001121477106-001099     121477006003000653447WATER BOTTLE 650ml     0000001000+00002630+00000+0001T   00002630+0000001536          1400 GM9210               3BZ
121477002121477112-116038     121477006009681820246TCS CARRIER BAG MIDI   0000001000+00000035+00000+0001T   00000035+0000001536          1400 GM9090               3BZ
121478000121478               121478               170213BC     1400+00000+BC0000002980+0000002980+000000000+000000418+0000003390+0000000008+I20000000000+0000003390+Z
121478001121478077-000305     121478006003000395422GIFT-BAG WINE 10X35CM  0000002000+00001490+00000+0001T   00001490+0000001538          1400 GM9112               3BZ
121479000121479               121479               170213BC     1400+00000+BC0000004768+0000004768+000000000+000000669+0000005437+0000000000+I40000005437+0000000000+Z
121479001121479089-000004     121479006003000137749KEY CHAIN MTL CHARMS   0000002000+00001753+00000+0001T   00001753+0000001541          1400 GM9205               3BZ
121479002121479077-000245     121479006001023759214GIFT-RIBBON METALLICx2 0000001000+00001227+00000+0001T   00001227+0000001541          1400 GM9112               3BZ
121479003121479112-116038     121479006009681820246TCS CARRIER BAG MIDI   0000001000+00000035+00000+0001T   00000035+0000001541          1400 GM9090               3BZ
121480000121480               121480               170213BC     1400+00000+BC0000002840+0000002840+000000000+000000398+0000003230+0000000008+I20000000000+0000003230+Z
121480001121480031-005815     121480009320760100019P/FRAME-CLIP 10x15cm   0000001000+00001227+00000+0001T   00001227+0000001542          1400 GM9510               3BZ
121480002121480077-000303     121480006001023593757GIFT-BAG PAPER MED     0000001000+00001578+00000+0001T   00001578+0000001542          1400 GM9112               3BZ
121480003121480112-116038     121480006009681820246TCS CARRIER BAG MIDI   0000001000+00000035+00000+0001T   00000035+0000001542          1400 GM9090               3BZ
121481000121481               121481               170213BC     1400+00000+BC0000002665+0000002665+000000000+000000374+0000003030+0000000009+I20000000000+0000003030+Z
121481001121481031-000878-D   121481006003000602476P/FRAME CERTIFICATE    0000001000+00002630+00000+0001T   00002630+0000001543          1400 GM9510               3BZ
121481002121481112-116038     121481006009681820246TCS CARRIER BAG MIDI   0000001000+00000035+00000+0001T   00000035+0000001543          1400 GM9090               3BZ
121482000121482               121482               170213BC     1400+00000+BC0000023632+0000023632+000000000+000003313+0000026945+0000000000+I40000026945+0000000000+Z
121482001121482112-116069     121482006009681820277TCS CARRIER BAG JUMBO  0000001000+00000048+00000+0001T   00000048+0000001547          1400 GM9090               3BZ
121482002121482079-006495     121482006003000159987GLITTER SHAKERS 6PK    0000001000+00002630+00000+0001T   00002630+0000001547          1400 GM9130               3BZ
121482003121482562-000011     121482006003000600984PLAY DOUGH NEON TUBE   0000001000+00003507+00000+0001T   00003507+0000001547          1400 GM9755               3BZ
121482004121482079-000510     121482006001023509079CRAYONS WAX 12-COLOUR  0000001000+00002455+00000+0001T   00002455+0000001547          1400 GM9130               3BZ
121482005121482562-000212     121482006001023851567PUSH-IN BOARD NUMBERS  0000001000+00004385+00000+0001T   00004385+0000001547          1400 GM9755               3BZ
121482006121482567-011510     121482000814625012658BK COLOURING 96P SPRING0000001000+00002630+00000+0001T   00002630+0000001547          1400 GM9757               3BZ
121482007121482567-011496     121482006003000664177BK COLOURING BY NUMBERS0000001000+00002630+00000+0001T   00002630+0000001547          1400 GM9757               3BZ
121482008121482567-014133     121482006003000560103BOOK COLOURING 48 PAGE 0000001000+00001490+00000+0001T   00001490+0000001547          1400 GM9757               3BZ
121482009121482079-013032-J   121482006003000542710A&C DIY COLOUR P/FLOWER0000001000+00001753+00000+0001T   00001753+0000001547          1400 GM9130               3BZ
121482010121482903-000095     121482006001704011495SWT SPECKLED-EGGS 100G 0000001000+00002104+00000+0001T   00002104+0000001547          1400 GM9150               3BZ
121483000121483               121483               170213BC     1400+00000+BC0000005291+0000005291+000000000+000000743+0000006030+0000000004+I20000000000+0000006030+Z
121483001121483112-116038     121483006009681820246TCS CARRIER BAG MIDI   0000001000+00000035+00000+0001T   00000035+0000001548          1400 GM9090               3BZ
121483002121483903-000673     121483006009803358237SWT SHERBET GRAPE 4PK  0000006000+00000876+00000+0001T   00000876+0000001548          1400 GM9150               3BZ
121484000121484               121484               170213BC     1400+00000+BC0000006174+0000006174+000000000+000000865+0000007030+0000000009+I20000000000+0000007030+Z
121484001121484368-000175     121484006003000270316PLUSH BEAR 4 ASSTD 18CM0000001000+00006139+00000+0001T   00006139+0000001550          1400 GM9745               3BZ
121484002121484112-116038     121484006009681820246TCS CARRIER BAG MIDI   0000001000+00000035+00000+0001T   00000035+0000001550          1400 GM9090               3BZ
121485000121485               121485               170213BC     1400+00000+BC0000001753+0000001753+000000000+000000246+0000001990+0000000009+I20000000000+0000001990+Z
121485001121485077-000239     121485006003000160419GIFT-RIBBON ROLL PEARL 0000001000+00001753+00000+0001T   00001753+0000001551          1400 GM9112               3BZ
121486000121486               121486               170213BC     1400+00000+BC0000004823+0000004823+000000000+000000676+0000005490+0000000009+I20000000000+0000005490+Z
121486001121486301-085001     121486006003000297610ORN WATERBALL LOVE ASST0000001000+00004823+00000+0001T   00004823+0000001552          1400 GM9505               3BZ
121487000121487               121487               170213BC     1400+00000+BC0000005521+0000005521+000000000+000000774+0000006290+0000000005+I20000000000+0000006290+Z
121487001121487304-001011     121487006001023806727FLWR ROSE RED W/BEAR   0000003000+00000613+00000+0001T   00000788+0006471553          1400 GM9510               3BZ
121487002121487007-000208     121487006001023582096NOTE-PAD S/STICK 100'S 0000001000+00001490+00000+0001T   00001490+0000001553          1400 GM9130               3BZ
121487003121487071-000672     121487006003000138975STATIONERY CLIPS PAPER 0000001000+00002192+00000+0001T   00002192+0000001553          1400 GM9130               3BZ
121488000121488               121488               170213BC     1400+00000+BC0000017268+0000017268+000000000+000002422+0000019690+0000000000+I40000019690+0000000000+Z
121488001121488039-001023     121488006003000466337CANDLE TEA-LITE METALIC0000001000+00001753+00000+0001T   00001753+0000001557          1400 GM9510               3BZ
121488002121488030-000010     121488006003000084395P/DOOR HANGER 2-ASSTD  0000001000+00001314+00000+0001T   00001490+0008181557          1400 GM9505               3BZ
121488003121488089-060027     121488006003000245871KEY-CHAIN HEART 6X6cm  0000001000+00003069+00000+0001T   00003069+0000001557          1400 GM9205               3BZ
121488004121488304-001204     121488006001023737984FLOWER OCC. TEDDY/ROSES0000001000+00001402+00000+0001T   00001490+0006471557          1400 GM9510               3BZ
121488005121488301-085002     121488006003000420704ORN OCC. LOVE BELL ASST0000001000+00001753+00000+0001T   00002630+0008121557          1400 GM9505               3BZ
121488006121488903-002851     121488000000087108538MENTOS ROLL STRAWBERRY 0000001000+00001051+00000+0001T   00001051+0000001557          1400 GM9150               3BZ
121488007121488077-000010-D   121488006001023123886CREPE-PAPER WHITE      0000001000+00000788+00000+0001T   00000788+0000001557          1400 GM9112               3BZ
121488008121488006-000190     121488006003000685530BALLOONS LOVE 81x91cm  0000001000+00004385+00000+0001T   00004385+0000001557          1400 GM9131               3BZ
121488009121488037-000004     121488006001023763679ASHTRAY PL TUB 8X11CM  0000001000+00001753+00000+0001T   00002192+0008191557          1400 GM9515               3BZ
121489000121489               121489               170213BC     1400+00000+BC0000006575+0000006575+000000000+000000921+0000007496+0000000000+I40000007496+0000000000+Z
121489001121489002-021042     121489006001023621801TOOTHPICKS 250PCE      0000001000+00001227+00000+0001T   00001227+0000001559          1400 GM9300               3BZ
121489002121489024-091102     121489006003453000010BAKING-CUP PAPER 50PC  0000001000+00002192+00000+0001T   00002192+0000001559          1400 GM9300               3BZ
121489003121489566-001234     121489006003000217793STICKERS LASER ASSTD   0000002000+00001578+00000+0001T   00001578+0000001559          1400 GM9130               3BZ
121490000121490               121490               170213BC     1400+00000+BC0000001927+0000001927+000000000+000000270+0000002190+0000000007+I20000000000+0000002190+Z
121490001121490304-001011     121490006001023806727FLWR ROSE RED W/BEAR   0000001000+00000613+00000+0001T   00000788+0006471600          1400 GM9510               3BZ
121490002121490903-000194     121490006009826020616SWT CHOC RP LOLLY 25G  0000001000+00001314+00000+0001T   00001314+0000001600          1400 GM9150               3BZ
121491000121491               121491               170213BC     1400+00000+BC0000015656+0000015656+000000000+000002193+0000017840+0000000009+I20000000000+0000017840+Z
121491001121491077-000303     121491006001023593757GIFT-BAG PAPER MED     0000001000+00001578+00000+0001T   00001578+0000001601          1400 GM9112               3BZ
121491002121491018-000136     121491006001023659026MUG OCC LOVE W/PLUSH   0000001000+00003507+00000+0001T   00003507+0000001601          1400 GM9515               3BZ
121491003121491567-010564     121491006003000572397BOOK AFRIKAANS CAT 1   0000001000+00003507+00000+0001T   00003507+0000001601          1400 GM9757               3BZ
121491004121491567-011908     121491006003000676361BK PROMO CLEARANCE ASST0000001000+00007016+00000+0001T   00007016+0000001601          1400 GM9757               3BZ
121491005121491112-116069     121491006009681820277TCS CARRIER BAG JUMBO  0000001000+00000048+00000+0001T   00000048+0000001601          1400 GM9090               3BZ
121492000121492               121492               170213BC     1400+00000+BC0000004820+0000004820+000000000+000000675+0000005495+0000000000+I40000005495+0000000000+Z
121492001121492903-000194     121492006009826020616SWT CHOC RP LOLLY 25G  0000002000+00001314+00000+0001T   00001314+0000001607          1400 GM9150               3BZ
121492002121492563-000318-L   121492006003000407088SERVIETTES 33cm RED    0000001000+00002192+00000+0001T   00002192+0000001607          1400 GM9214               3BZ
121493000121493               121493               170213BC     1400+00000+BC0000008900+0000008900+000000000+000001248+0000010140+0000000008+I20000000000+0000010140+Z
121493001121493018-000127     121493006001023380289MUG OCC STRAIGHT LOVE  0000002000+00001578+00000+0001T   00001753+0006471609          1400 GM9515               3BZ
121493002121493304-001011     121493006001023806727FLWR ROSE RED W/BEAR   0000002000+00000613+00000+0001T   00000788+0006471609          1400 GM9510               3BZ
121493003121493304-001142     121493006003000679256FLWR MINI SUCCULENT 7CM0000003000+00001490+00000+0001T   00001490+0000001609          1400 GM9510               3BZ
121493004121493112-116069     121493006009681820277TCS CARRIER BAG JUMBO  0000001000+00000048+00000+0001T   00000048+0000001609          1400 GM9090               3BZ
121494000121494               121494               170213BC     1400+00000+BC0000003506+0000003506+000000000+000000492+0000003990+0000000008+I20000000000+0000003990+Z
121494001121494133-000036     121494006003000133376CLOTHS M/PURPOSE PACK-20000001000+00001753+00000+0001T   00001753+0000001609          1400 GM9212               3BZ
121494002121494077-000116     121494006003000240777GIFT-WRAP 700mmx2m COL 0000001000+00001753+00000+0001T   00001753+0000001609          1400 GM9112               3BZ
121495000121495               121495               170213BC     1400+00000+BC0000004957+0000004957+000000000+000000695+0000005650+0000000002+I20000000000+0000005650+Z
121495001121495018-000136     121495006001023659026MUG OCC LOVE W/PLUSH   0000001000+00003507+00000+0001T   00003507+0000001611          1400 GM9515               3BZ
121495002121495304-001204     121495006001023737984FLOWER OCC. TEDDY/ROSES0000001000+00001402+00000+0001T   00001490+0006471611          1400 GM9510               3BZ
121495003121495112-116069     121495006009681820277TCS CARRIER BAG JUMBO  0000001000+00000048+00000+0001T   00000048+0000001611          1400 GM9090               3BZ
121496000121496               121496               170213BC     1400+00000+BC0000013203+0000013203+000000000+000001850+0000015050+0000000003+I20000000000+0000015050+Z
121496001121496077-000358     121496006003000329977GIFT-BAG KIDS 25X32CM  0000001000+00001753+00000+0001T   00001753+0000001612          1400 GM9112               3BZ
121496002121496368-000637     121496006001023874092PLUSH BEAR SLEEPING LOV0000001000+00011402+00000+0001T   00012279+0006471612          1400 GM9745               3BZ
121496003121496112-116069     121496006009681820277TCS CARRIER BAG JUMBO  0000001000+00000048+00000+0001T   00000048+0000001612          1400 GM9090               3BZ
121497000121497               121497               170213BC     1400+00000+BC0000001753+0000001753+000000000+000000246+0000001990+0000000009+I20000000000+0000001990+Z
121497001121497080-000113     121497006003000237449CARD&ENVLPE - LOVE     0000001000+00001753+00000+0001T   00001753+0000001612          1400 GM9112               3BZ
121498000121498               121498               170213BC     1400+00000+BC0000003507+0000003507+000000000+000000491+0000003990+0000000008+I20000000000+0000003990+Z
121498001121498018-000130     121498006001023867537MUG OCC LOVE MINI+HEART0000001000+00003507+00000+0001T   00003507+0000001617          1400 GM9515               3BZ
121499000121499               121499               170213BC     1400+00000+BC0000023274+0000023274+000000000+000003261+0000026535+0000000000+I40000026535+0000000000+Z
121499001121499206-000180     121499006003000631223TEA INFUSER TEAMAN     0000001000+00004385+00000+0001T   00004385+0000001619          1400 GM9321               3BZ
121499002121499206-000170     121499006003000631100POT HOLDER MTL MAN 20CM0000001000+00006139+00000+0001T   00006139+0000001619          1400 GM9321               3BZ
121499003121499206-000480     121499006003000620227MOP SHOES CHENILLE 2PC 0000001000+00007893+00000+0001T   00007893+0000001619          1400 GM9321               3BZ
121499004121499206-000120     121499006003000628308PEELER CARROT SHARPENER0000001000+00001753+00000+0001T   00001753+0000001619          1400 GM9321               3BZ
121499005121499206-000210     121499006003000631582TOOTHPICK HOLDER FLOWER0000001000+00003069+00000+0001T   00003069+0000001619          1400 GM9321               3BZ
121499006121499112-116038     121499006009681820246TCS CARRIER BAG MIDI   0000001000+00000035+00000+0001T   00000035+0000001619          1400 GM9090               3BZ
121500000121500               121500               170213BC     1400+00000+BC0000003506+0000003506+000000000+000000492+0000003998+0000000000+I40000003998+0000000000+Z
121500001121500077-000316     121500006001023609731GIFT-BAG 25X32CM MATT  0000002000+00001753+00000+0001T   00001753+0000001621          1400 GM9112               3BZ
121501000121501               121501               170213BC     1400+00000+BC0000001578+0000001578+000000000+000000221+0000001790+0000000009+I20000000000+0000001790+Z
121501001121501077-000303     121501006001023593757GIFT-BAG PAPER MED     0000001000+00001578+00000+0001T   00001578+0000001621          1400 GM9112               3BZ
121502000121502               121502               170213BC     1400+00000+BC0000008729+0000008729+000000000+000001223+0000009950+0000000002+I20000000000+0000009950+Z
121502001121502018-019000     121502006003000557288MUG OCC. LOVE JUMBO    0000001000+00005262+00000+0001T   00005262+0000001623          1400 GM9515               3BZ
121502002121502018-000170     121502006001023775528MUG OCC. LOVE 2PC MINI 0000001000+00002192+00000+0001T   00002192+0000001623          1400 GM9515               3BZ
121502003121502903-000518     121502006001704012782SWT STRAWS S/BERRY 100g0000001000+00001227+00000+0001T   00001227+0000001623          1400 GM9150               3BZ
121502004121502112-116069     121502006009681820277TCS CARRIER BAG JUMBO  0000001000+00000048+00000+0001T   00000048+0000001623          1400 GM9090               3BZ
121503000121503               121503               170213BC     1400+00000+BC0000001613+0000001613+000000000+000000226+0000001830+0000000009+I20000000000+0000001830+Z
121503001121503077-000315     121503006003000181186GIFT-BAG 20x28cm MATT  0000001000+00001578+00000+0001T   00001578+0000001624          1400 GM9112               3BZ
121503002121503112-116038     121503006009681820246TCS CARRIER BAG MIDI   0000001000+00000035+00000+0001T   00000035+0000001624          1400 GM9090               3BZ
121504000121504               121504               170213BC     1400+00000+BC0000011449+0000011449+000000000+000001604+0000013053+0000000000+I40000013053+0000000000+Z
121504001121504001-091415     121504006003000329113W/GLS OCC. LOVE 2PC 2800000001000+00008771+00000+0001T   00009648+0006471625          1400 GM9515               3BZ
121504002121504077-000270     121504006003000395453GIFT-BAG PPR JMB 33X45 0000001000+00002630+00000+0001T   00002630+0000001625          1400 GM9112               3BZ
121504003121504112-116069     121504006009681820277TCS CARRIER BAG JUMBO  0000001000+00000048+00000+0001T   00000048+0000001625          1400 GM9090               3BZ
121505000121505               121505               170213BC     1400+00000+BC0000002262+0000002262+000000000+000000317+0000002570+0000000009+I20000000000+0000002570+Z
121505001121505018-000170     121505006001023775528MUG OCC. LOVE 2PC MINI 0000001000+00002192+00000+0001T   00002192+0000001626          1400 GM9515               3BZ
121505002121505112-116038     121505006009681820246TCS CARRIER BAG MIDI   0000002000+00000035+00000+0001T   00000035+0000001626          1400 GM9090               3BZ
121506000121506               121506               170213BC     1400+00000+BC0000017101+0000017101+000000000+000002396+0000019497+0000000000+I40000019497+0000000000+Z
121506001121506206-000170     121506006003000631100POT HOLDER MTL MAN 20CM0000001000+00006139+00000+0001T   00006139+0000001628          1400 GM9321               3BZ
121506002121506206-000210     121506006003000631582TOOTHPICK HOLDER FLOWER0000001000+00003069+00000+0001T   00003069+0000001628          1400 GM9321               3BZ
121506003121506206-000480     121506006003000620227MOP SHOES CHENILLE 2PC 0000001000+00007893+00000+0001T   00007893+0000001628          1400 GM9321               3BZ
121507000121507               121507               170213BC     1400+00000+BC0000003507+0000003507+000000000+000000491+0000003990+0000000008+I20000000000+0000003990+Z
121507001121507038-001800     121507006003000623303DOILIE PAPER HRT 24PC  0000001000+00003507+00000+0001T   00003507+0000001631          1400 GM9300               3BZ
121508000121508               121508               170213BC     1400+00000+BC0000001314+0000001314+000000000+000000184+0000001498+0000000000+I40000001498+0000000000+Z
121508001121508566-000202     121508006003000443567STCKRS SPARKLE RIM ASST0000001000+00001314+00000+0001T   00001314+0000001635          1400 GM9130               3BZ
121509000121509               121509               170213BC     1400+00000+BC0000000876+0000000876+000000000+000000123+0000000990+0000000009+I20000000000+0000000990+Z
121509001121509071-005213     121509006001023690371CELLOTAPE 12mmx33m     0000001000+00000876+00000+0001T   00000876+0000001636          1400 GM9130               3BZ
121510000121510               121510               170213BC     1400+00000+BC0000002630+0000002630+000000000+000000369+0000002999+0000000000+I40000002999+0000000000+Z
121510001121510106-001109     121510006003000666355W/BOTTLE 650ml         0000001000+00002630+00000+0001T   00002630+0000001638          1400 GM9210               3BZ
121511000121511               121511               170213BC     1400+00000+BC0000013980+0000013980+000000000+000001963+0000015940+0000000003+I20000000000+0000015940+Z
121511001121511039-000024     121511006003000286300C/TAPERED 25CM M/WHITE 0000001000+00001051+00000+0001T   00001051+0000001642          1400 GM9510               3BZ
121511002121511039-000026     121511006001023551610C/TAPERED 25CM M/RED   0000001000+00001051+00000+0001T   00001051+0000001642          1400 GM9510               3BZ
121511003121511039-000024     121511006003000286300C/TAPERED 25CM M/WHITE 0000001000+00001051+00000+0001T   00001051+0000001642          1400 GM9510               3BZ
121511004121511039-000026     121511006001023551610C/TAPERED 25CM M/RED   0000001000+00001051+00000+0001T   00001051+0000001642          1400 GM9510               3BZ
121511005121511040-000213     121511006001023617736CANDLE-HOLDER DAISY    0000004000+00001227+00000+0001T   00001227+0000001642          1400 GM9510               3BZ
121511006121511039-001023     121511006003000466337CANDLE TEA-LITE METALIC0000002000+00001753+00000+0001T   00001753+0000001642          1400 GM9510               3BZ
121511007121511046-000012     121511006904708013062BATTERIES AA  CARD-OF-40000001000+00001314+00000+0001T   00001314+0000001642          1400 GM9312               3BZ
121511008121511112-116069     121511006009681820277TCS CARRIER BAG JUMBO  0000001000+00000048+00000+0001T   00000048+0000001642          1400 GM9090               3BZ
121512000121512               121512               170213BC     1400+00000+BC0000012136+0000012136+000000000+000001700+0000013836+0000000000+I40000013836+0000000000+Z
121512001121512039-000624     121512006003000054923C/SET 4PC PILLARS 5X8CM0000001000+00007016+00000+0001T   00007016+0000001644          1400 GM9510               3BZ
121512002121512040-100010     121512006001023681676C/HOLDER VINTAGE ROUND 0000001000+00003507+00000+0001T   00003507+0000001644          1400 GM9510               3BZ
121512003121512028-000799     121512006001023812186SKEWERS BAMBOO 100PCE  0000001000+00001578+00000+0001T   00001578+0000001644          1400 GM9305               3BZ
121512004121512112-116038     121512006009681820246TCS CARRIER BAG MIDI   0000001000+00000035+00000+0001T   00000035+0000001644          1400 GM9090               3BZ
121513000121513               121513               170213BC     1400+00000+BC0000001578+0000001578+000000000+000000221+0000001790+0000000009+I20000000000+0000001790+Z
121513001121513077-000303     121513006001023593757GIFT-BAG PAPER MED     0000001000+00001578+00000+0001T   00001578+0000001644          1400 GM9112               3BZ
121514000121514               121514               170213BC     1400+00000+BC0000005262+0000005262+000000000+000000737+0000005999+0000000000+I40000005999+0000000000+Z
121514001121514107-004510     121514006002580008968STEP-STOOL PL          0000001000+00005262+00000+0001T   00005262+0000001646          1400 GM9210               3BZ
121515000121515               121515               170213BC     1400+00000+BC0000001753+0000001753+000000000+000000246+0000001990+0000000009+I20000000000+0000001990+Z
121515001121515466-000200     121515006001023621665HULA-HOOP     ASSTD    0000001000+00001753+00000+0001T   00001753+0000001646          1400 GM9785               3BZ
121516000121516               121516               170213BC     1400+00000+BC0000008817+0000008817+000000000+000001235+0000010050+0000000002+I20000000000+0000010050+Z
121516001121516567-004957     121516009780636049086TYB G02 ENGLISH        0000001000+00002192+00000+0001T   00002192+0000001648          1400 GM9757               3BZ
121516002121516567-004963     121516009780636049031TYB G03 MATHS          0000001000+00002192+00000+0001T   00002192+0000001648          1400 GM9757               3BZ
121516003121516562-000212     121516006001023851567PUSH-IN BOARD NUMBERS  0000001000+00004385+00000+0001T   00004385+0000001648          1400 GM9755               3BZ
121516004121516112-116069     121516006009681820277TCS CARRIER BAG JUMBO  0000001000+00000048+00000+0001T   00000048+0000001648          1400 GM9090               3BZ
121517000121517               121517               170213BC     1400+00000+BC0000001490+0000001490+000000000+000000209+0000001690+0000000009+I20000000000+0000001690+Z
121517001121517077-000299     121517006003000395576G/BAG 32x25cm LRG LOVE 0000001000+00001490+00000+0001T   00001490+0000001649          1400 GM9112               3BZ
121518000121518               121518               170213BC     1400+00000+BC0000003507+0000003507+000000000+000000491+0000003990+0000000008+I20000000000+0000003990+Z
121518001121518018-000136     121518006001023659026MUG OCC LOVE W/PLUSH   0000001000+00003507+00000+0001T   00003507+0000001650          1400 GM9515               3BZ
121519000121519               121519               170213BC     1400+00000+BC0000001490+0000001490+000000000+000000209+0000001699+0000000000+I40000001699+0000000000+Z
121519001121519077-000399     121519006003000139514GIFT BAG 18X23CM E/DAY 0000001000+00001490+00000+0001T   00001490+0000001652          1400 GM9112               3BZ
121520000121520               121520               170213BC     1400+00000+BC0000001314+0000001314+000000000+000000184+0000001490+0000000008+I20000000000+0000001490+Z
121520001121520107-004105     121520006009703860984BUCKET 9L OPEN         0000001000+00001314+00000+0001T   00001314+0000001652          1400 GM9210               3BZ
121521000121521               121521               170213BC     1400+00000+BC0000002452+0000002452+000000000+000000344+0000002790+0000000006+I20000000000+0000002790+Z
121521001121521304-001011     121521006001023806727FLWR ROSE RED W/BEAR   0000004000+00000613+00000+0001T   00000788+0006471653          1400 GM9510               3BZ
121522000121522               121522               170213BC     1400+00000+BC0000007925+0000007925+000000000+000001110+0000009030+0000000005+I20000000000+0000009030+Z
121522001121522077-000151     121522006008766114676GIFT-WRAP C/PHANE ASSTD0000001000+00000876+00000+0001T   00000876+0000001654          1400 GM9112               3BZ
121522002121522018-000136     121522006001023659026MUG OCC LOVE W/PLUSH   0000001000+00003507+00000+0001T   00003507+0000001654          1400 GM9515               3BZ
121522003121522031-005853     121522006003000442416P/FRAME WDN TWIN HEARTS0000001000+00003507+00000+0001T   00003507+0000001654          1400 GM9510               3BZ
121522004121522112-116038     121522006009681820246TCS CARRIER BAG MIDI   0000001000+00000035+00000+0001T   00000035+0000001654          1400 GM9090               3BZ
121523000121523               121523               170213BC     1400+00000+BC0000001314+0000001314+000000000+000000184+0000001490+0000000008+I20000000000+0000001490+Z
121523001121523903-000923     121523008714786126428SWT TURTLE DUO SPRAY   0000001000+00001314+00000+0001T   00001753+0008191654          1400 GM9150               3BZ
121524000121524               121524               170213BC     1400+00000+BC0000003555+0000003555+000000000+000000498+0000004053+0000000000+I40000004053+0000000000+Z
121524001121524150-000776     121524006001023839756UTILITY/TOOL-BOX PL    0000001000+00003507+00000+0001T   00003507+0000001656          1400 GM9810               3BZ
121524002121524112-116069     121524006009681820277TCS CARRIER BAG JUMBO  0000001000+00000048+00000+0001T   00000048+0000001656          1400 GM9090               3BZ
121525000121525               121525               170213BC     1400+00000+BC0000001753+0000001753+000000000+000000246+0000001990+0000000009+I20000000000+0000001990+Z
121525001121525077-000309     121525006001023608604GIFT-BAG 25X32CM GLOSS 0000001000+00001753+00000+0001T   00001753+0000001658          1400 GM9112               3BZ
121526000121526               121526               170213BC     1400+00000+BC0000001753+0000001753+000000000+000000246+0000001990+0000000009+I20000000000+0000001990+Z
121526001121526080-000122     121526006003000237678CARD & ENVLPE -GET WELL0000001000+00001753+00000+0001T   00001753+0000001659          1400 GM9112               3BZ
121527000121527               121527               170213BC     1400+00000+BC0000001927+0000001927+000000000+000000271+0000002198+0000000000+I40000002198+0000000000+Z
121527001121527079-009702-D   121527008427973059354PAPER SIRIO A2 RED COL 0000001000+00001051+00000+0001T   00001051+0000001705          1400 GM9130               3BZ
121527002121527077-000011-D   121527006001023808554TISSUE-WRAP WHITE 10PCE0000001000+00000876+00000+0001T   00000876+0000001705          1400 GM9112               3BZ
121528000121528               121528               170213BC     1400+00000+BC0000000788+0000000788+000000000+000000111+0000000890+0000000009+I20000000000+0000000890+Z
121528001121528077-000010-D   121528006001023123886CREPE-PAPER WHITE      0000001000+00000788+00000+0001T   00000788+0000001705          1400 GM9112               3BZ
121529000121529               121529               170213BC     1400+00000+BC0000003506+0000003506+000000000+000000492+0000003990+0000000008+I20000000000+0000003990+Z
121529001121529006-000120     121529006001023346889BALLOONS 10PC MIX COL  0000002000+00001753+00000+0001T   00001753+0000001706          1400 GM9131               3BZ
121530000121530               121530               170213BC     1400+00000+BC0000001226+0000001226+000000000+000000172+0000001390+0000000008+I20000000000+0000001390+Z
121530001121530304-001011     121530006001023806727FLWR ROSE RED W/BEAR   0000002000+00000613+00000+0001T   00000788+0006471707          1400 GM9510               3BZ
121531000121531               121531               170213BC     1400+00000+BC0000002892+0000002892+000000000+000000406+0000003290+0000000008+I20000000000+0000003290+Z
121531001121531077-000308     121531006001023595812GIFT-BAG 33X45CM E/DAY 0000001000+00001753+00000+0001T   00001753+0000001708          1400 GM9112               3BZ
121531002121531046-000014     121531006001023725387BATTERIES SIZE:AAA 4PCE0000001000+00001139+00000+0001T   00001139+0000001708          1400 GM9312               3BZ
121532000121532               121532               170213BC     1400+00000+BC0000029861+0000029861+000000000+000004181+0000034042+0000000000+I40000034042+0000000000+Z
121532001121532051-600708     121532006003000604319S/GARDEN LIGHT 35cm S/S0000006000+00003507+00000+0001T   00003507+0000001721          1400 GM9820               3BZ
121532002121532039-000799     121532006001023692382CANDLES TEALITE 100PCE 0000001000+00008771+00000+0001T   00008771+0000001721          1400 GM9510               3BZ
121532003121532112-116069     121532006009681820277TCS CARRIER BAG JUMBO  0000001000+00000048+00000+0001T   00000048+0000001721          1400 GM9090               3BZ
121533000121533               121533               170213BC     1400+00000+BC0000015644+0000015644+000000000+000002196+0000017840+0000000000+I40000017840+0000000000+Z
121533001121533200-000012     121533006003000399536BAG 50PCE 165x146mm    0000001000+00003507+00000+0001T   00003507+0000001724          1400 GM9214               3BZ
121533002121533567-004959     121533009780636049208BOOK EDU SPF G2 AFRIK. 0000001000+00002192+00000+0001T   00002192+0000001724          1400 GM9757               3BZ
121533003121533007-000193     121533006009635831731BK JOTTER A4 72-PG F/M 0000001000+00000437+00000+0001T   00000437+0000001724          1400 GM9130               3BZ
121533004121533007-000406     121533006009635830659NATURE-STUDY-BOOK 72PG 0000002000+00000700+00000+0001T   00000700+0000001724          1400 GM9130               3BZ
121533005121533266-001305     121533006001023560735MARBLES 45MM 3PC PLANET0000001000+00001578+00000+0001T   00001578+0000001724          1400 GM9710               3BZ
121533006121533266-001308     121533006001023686978MARBLES 45PC L/E       0000001000+00001227+00000+0001T   00001227+0000001724          1400 GM9710               3BZ
121533007121533112-116069     121533006009681820277TCS CARRIER BAG JUMBO  0000001000+00000048+00000+0001T   00000048+0000001724          1400 GM9090               3BZ
121533008121533079-009702-E   121533008427973059439PAPER SIRIO A2 BLUE    0000005000+00001051+00000+0001T   00001051+0000001724          1400 GM9130               3BZ
121534000121534               121534               170213BC     1400+00000+BC0000007925+0000007925+000000000+000001111+0000009030+0000000006+I20000000000+0000009030+Z
121534001121534079-006496     121534006003000160105GLITTER SHAKERS        0000002000+00001753+00000+0001T   00001753+0000001725          1400 GM9130               3BZ
121534002121534563-000318-L   121534006003000407088SERVIETTES 33cm RED    0000002000+00002192+00000+0001T   00002192+0000001725          1400 GM9214               3BZ
121534003121534112-116038     121534006009681820246TCS CARRIER BAG MIDI   0000001000+00000035+00000+0001T   00000035+0000001725          1400 GM9090               3BZ
121535000121535               121535               170213BC     1400+00000+BC0000001753+0000001753+000000000+000000246+0000001990+0000000009+I20000000000+0000001990+Z
121535001121535077-000316     121535006001023609731GIFT-BAG 25X32CM MATT  0000001000+00001753+00000+0001T   00001753+0000001730          1400 GM9112               3BZ
121536000121536               121536               170213BC     1400+00000+BC0000000876+0000000876+000000000+000000123+0000000999+0000000000+I40000000999+0000000000+Z
121536001121536077-000151     121536006008766114676GIFT-WRAP C/PHANE ASSTD0000001000+00000876+00000+0001T   00000876+0000001731          1400 GM9112               3BZ
121537000121537               121537               170213BC     1400+00000+BC0000001450+0000001450+000000000+000000204+0000001654+0000000000+I40000001654+0000000000+Z
121537001121537304-001204     121537006001023737984FLOWER OCC. TEDDY/ROSES0000001000+00001402+00000+0001T   00001490+0006471733          1400 GM9510               3BZ
121537002121537112-116069     121537006009681820277TCS CARRIER BAG JUMBO  0000001000+00000048+00000+0001T   00000048+0000001733          1400 GM9090               3BZ
121538000121538               121538               170213BC     1400+00000+BC0000004385+0000004385+000000000+000000614+0000004990+0000000009+I20000000000+0000004990+Z
121538001121538016-006500     121538006003000618460S/JAR GLS HERMETICO    0000001000+00004385+00000+0001T   00004385+0000001734          1400 GM9300               3BZ
121539000121539               121539               170213BC     1400+00000+BC0000009516+0000009516+000000000+000001334+0000010850+0000000000+I40000010850+0000000000+Z
121539001121539368-000152     121539006003000166886PLUSH BEAR 15cm        0000001000+00003946+00000+0001T   00005262+0008141743          1400 GM9745               3BZ
121539002121539018-005009     121539006001023725608MUG W/PLUSH-BEAR LOVE  0000001000+00003507+00000+0001T   00003507+0000001743          1400 GM9515               3BZ
121539003121539304-001204     121539006001023737984FLOWER OCC. TEDDY/ROSES0000001000+00001402+00000+0001T   00001490+0006471743          1400 GM9510               3BZ
121539004121539083-000055     121539006003000003853LIGHTER ELCTRNC REFILBL0000001000+00000613+00000+0001T   00000613+0000001743          1400 GM9315               3BZ
121539005121539112-116069     121539006009681820277TCS CARRIER BAG JUMBO  0000001000+00000048+00000+0001T   00000048+0000001743          1400 GM9090               3BZ
121540000121540               121540               170213BC     1400+00000+BC0000003418+0000003418+000000000+000000480+0000003890+0000000008+I20000000000+0000003890+Z
121540001121540563-000317-A   121540006001023776167SERVIETTES 20PK PATTERN0000001000+00002630+00000+0001T   00002630+0000001743          1400 GM9214               3BZ
121540002121540077-000010-C   121540006001023123879CREPE-PAPER RED        0000001000+00000788+00000+0001T   00000788+0000001743          1400 GM9112               3BZ
121541000121541               121541               170213BC     1400+00000+BC0000000437+0000000437+000000000+000000062+0000000490+0000000009+I20000000000+0000000490+Z
121541001121541080-000133     121541006003000535613CARD&ENV MINI ASTD DSGN0000001000+00000437+00000+0001T   00000437+0000001744          1400 GM9112               3BZ
121542000121542               121542               170213BC     1400+00000+BC0000003507+0000003507+000000000+000000491+0000003990+0000000008+I20000000000+0000003990+Z
121542001121542018-005009     121542006001023725608MUG W/PLUSH-BEAR LOVE  0000001000+00003507+00000+0001T   00003507+0000001744          1400 GM9515               3BZ
121543000121543               121543               170213BC     1400+00000+BC0000003243+0000003243+000000000+000000455+0000003690+0000000008+I20000000000+0000003690+Z
121543001121543077-000452     121543006003000284986G/BAG METALLIC MED EMB 0000001000+00001490+00000+0001T   00001490+0000001745          1400 GM9112               3BZ
121543002121543077-000290     121543006001023902023GIFT BOX 26x32x13cm    0000001000+00001753+00000+0001T   00001753+0000001745          1400 GM9112               3BZ
121544000121544               121544               170213BC     1400+00000+BC0000004556+0000004556+000000000+000000640+0000005196+0000000000+I40000005196+0000000000+Z
121544001121544039-000026     121544006001023551610C/TAPERED 25CM M/RED   0000002000+00001051+00000+0001T   00001051+0000001747          1400 GM9510               3BZ
121544002121544040-000213     121544006001023617736CANDLE-HOLDER DAISY    0000002000+00001227+00000+0001T   00001227+0000001747          1400 GM9510               3BZ
121545000121545               121545               170213BC     1400+00000+BC0000001314+0000001314+000000000+000000184+0000001490+0000000008+I20000000000+0000001490+Z
121545001121545006-000167-C   121545006003000516971BALLOONS PINK METALLIC 0000001000+00001314+00000+0001T   00001314+0000001753          1400 GM9131               3BZ
121546000121546               121546               170213BC     1400+00000+BC0000002980+0000002980+000000000+000000418+0000003390+0000000008+I20000000000+0000003390+Z
121546001121546077-000384     121546006003000275243G/BAG HOT STMP 18x23CM 0000002000+00001490+00000+0001T   00001490+0000001753          1400 GM9112               3BZ
121547000121547               121547               170213BC     1400+00000+BC0000003189+0000003189+000000000+000000448+0000003637+0000000000+I40000003637+0000000000+Z
121547001121547903-000710     121547006002099007056SWT REFRESHERS MINT    0000002000+00001139+00000+0001T   00001139+0000001807          1400 GM9150               3BZ
121547002121547903-000123     121547006925925909280SWEET GS MINI MALLOWS  0000001000+00000876+00000+0001T   00000876+0000001807          1400 GM9150               3BZ
121547003121547112-116038     121547006009681820246TCS CARRIER BAG MIDI   0000001000+00000035+00000+0001T   00000035+0000001807          1400 GM9090               3BZ
121548000121548               121548               170213BC     1400+00000+BC0000008276+0000008276+000000000+000001159+0000009435+0000000000+I40000009435+0000000000+Z
121548001121548566-001234     121548006003000217793STICKERS LASER ASSTD   0000003000+00001578+00000+0001T   00001578+0000001808          1400 GM9130               3BZ
121548002121548567-075490     121548009780799373745BK NOVEL ROMANCE AFR   0000001000+00003507+00000+0001T   00003507+0000001808          1400 GM9757               3BZ
121548003121548112-116038     121548006009681820246TCS CARRIER BAG MIDI   0000001000+00000035+00000+0001T   00000035+0000001808          1400 GM9090               3BZ
121549000121549               121549               170213BC     1400+00000+BC0000001226+0000001226+000000000+000000172+0000001398+0000000000+I40000001398+0000000000+Z
121549001121549077-000311     121549006001023608666GIFT-BAG 11X14CM GLOSS 0000002000+00000613+00000+0001T   00000613+0000001809          1400 GM9112               3BZ
121550000121550               121550               170213BC     1400+00000+BC0000006130+0000006130+000000000+000000860+0000006990+0000000000+I20000000000+0000006990+Z
121550001121550077-000311     121550006001023608666GIFT-BAG 11X14CM GLOSS 0000010000+00000613+00000+0001T   00000613+0000001811          1400 GM9112               3BZ
121551000121551               121551               170213BC     1400+00000+BC0000004295+0000004295+000000000+000000602+0000004890+0000000007+I20000000000+0000004890+Z
121551001121551133-000017     121551006003000525171CLEANING-CLOTHS 5PCE   0000001000+00003507+00000+0001T   00003507+0000001811          1400 GM9212               3BZ
121551002121551077-000010-C   121551006001023123879CREPE-PAPER RED        0000001000+00000788+00000+0001T   00000788+0000001811          1400 GM9112               3BZ
121552000121552               121552               170213BC     1400+00000+BC0000008771+0000008771+000000000+000001228+0000009990+0000000009+I20000000000+0000009990+Z
121552001121552030-004030     121552006003000406418WALL MOUNTED LETTER    0000001000+00008771+00000+0001T   00012279+0008121812          1400 GM9505               3BZ
121553000121553               121553               170213BC     1400+00000+BC0000003944+0000003944+000000000+000000553+0000004497+0000000000+I40000004497+0000000000+Z
121553001121553077-000115-B   121553006003000181025GIFT-WRAP PPR 700MMX2M 0000001000+00002630+00000+0001T   00002630+0000001813          1400 GM9112               3BZ
121553002121553077-000385     121553006003000275366G/BAG GLITTER 18x23CM  0000001000+00001314+00000+0001T   00001314+0000001813          1400 GM9112               3BZ
121554000121554               121554               170213BC     1400+00000+BC0000001753+0000001753+000000000+000000246+0000001990+0000000009+I20000000000+0000001990+Z
121554001121554046-000014-A   121554004897006177708BATTERIES SIZE:AAA 8PCE0000001000+00001753+00000+0001T   00001753+0000001814          1400 GM9312               3BZ
121555000121555               121555               170213BC     1400+00000+BC0000004206+0000004206+000000000+000000591+0000004790+0000000007+I20000000000+0000004790+Z
121555001121555304-001204     121555006001023737984FLOWER OCC. TEDDY/ROSES0000003000+00001402+00000+0001T   00001490+0006471814          1400 GM9510               3BZ
121556000121556               121556               170213BC     1400+00000+BC0000002455+0000002455+000000000+000000344+0000002790+0000000009+I20000000000+0000002790+Z
121556001121556105-001079     121556000700371655921CONTAINER 2.2L CLIP LOC0000001000+00002455+00000+0001T   00002455+0000001816          1400 GM9210               3BZ
121557000121557               121557               170213BC     1400+00000+BC0000001490+0000001490+000000000+000000209+0000001690+0000000009+I20000000000+0000001690+Z
121557001121557039-000108     121557006001023524034TEA-LITE CANDLES 8PCE  0000001000+00001490+00000+0001T   00001490+0000001817          1400 GM9510               3BZ
121558000121558               121558               170213BC     1400+00000+BC0000001753+0000001753+000000000+000000246+0000001990+0000000009+I20000000000+0000001990+Z
121558001121558079-000275     121558006003000160488PAINT-BRUSHES 6PCE PRO 0000001000+00001753+00000+0001T   00001753+0000001818          1400 GM9130               3BZ
121559000121559               121559               170213BC     1400+00000+BC0000005295+0000005295+000000000+000000742+0000006037+0000000000+I40000006037+0000000000+Z
121559001121559018-000136     121559006001023659026MUG OCC LOVE W/PLUSH   0000001000+00003507+00000+0001T   00003507+0000001821          1400 GM9515               3BZ
121559002121559112-116038     121559006009681820246TCS CARRIER BAG MIDI   0000001000+00000035+00000+0001T   00000035+0000001821          1400 GM9090               3BZ
121559003121559077-000357     121559006003000139354GIFT-BAG 18X23CM B/DAY 0000001000+00001753+00000+0001T   00001753+0000001821          1400 GM9112               3BZ
121560000121560               121560               170213BC     1400+00000+BC0000001751+0000001751+000000000+000000246+0000001990+0000000007+I20000000000+0000001990+Z
121560001121560077-000311     121560006001023608666GIFT-BAG 11X14CM GLOSS 0000002000+00000613+00000+0001T   00000613+0000001821          1400 GM9112               3BZ
121560002121560903-000077     121560006939873501687SWT GS MAGIC ROCK FRUIT0000001000+00000525+00000+0001T   00000525+0000001821          1400 GM9150               3BZ
121561000121561               121561               170213BC     1400+00000+BC0000012713+0000012713+000000000+000001781+0000014494+0000000000+I40000014494+0000000000+Z
121561001121561368-000104     121561006001023751348PLUSH BEAR RUFFLED-LOOK0000001000+00006139+00000+0001T   00006139+0000001823          1400 GM9745               3BZ
121561002121561031-000864-B   121561006001023798381P/FRAME MAHOGANY 13X18 0000001000+00003507+00000+0001T   00003507+0000001823          1400 GM9510               3BZ
121561003121561077-000310     121561006001023608635GIFT-BAG 18X23CM GLOSS 0000001000+00001314+00000+0001T   00001314+0000001823          1400 GM9112               3BZ
121561004121561077-000309     121561006001023608604GIFT-BAG 25X32CM GLOSS 0000001000+00001753+00000+0001T   00001753+0000001823          1400 GM9112               3BZ
121562000121562               121562               170213BC     1400+00000+BC0000004908+0000004908+000000000+000000688+0000005590+0000000006+I20000000000+0000005590+Z
121562001121562077-000245     121562006001023759214GIFT-RIBBON METALLICx2 0000004000+00001227+00000+0001T   00001227+0000001824          1400 GM9112               3BZ
121563000121563               121563               170213BC     1400+00000+BC0000006576+0000006576+000000000+000000921+0000007497+0000000000+I40000007497+0000000000+Z
121563001121563039-000500     121563006001023816450C/VOTIVE 8PC RAINBOW   0000001000+00005262+00000+0001T   00005262+0000001825          1400 GM9510               3BZ
121563002121563077-000310     121563006001023608635GIFT-BAG 18X23CM GLOSS 0000001000+00001314+00000+0001T   00001314+0000001825          1400 GM9112               3BZ
121564000121564               121564               170213BC     1400+00000+BC0000007938+0000007938+000000000+000001112+0000009050+0000000000+I40000009050+0000000000+Z
121564001121564206-000210     121564006003000631582TOOTHPICK HOLDER FLOWER0000001000+00003069+00000+0001T   00003069+0000001827          1400 GM9321               3BZ
121564002121564077-000312     121564006001023608697GIFT-BAG 10X35CM GLOSS 0000001000+00001314+00000+0001T   00001314+0000001827          1400 GM9112               3BZ
121564003121564077-000465     121564006003000681570GIFT-BAG MTLC GLIT LRG 0000001000+00003507+00000+0001T   00003507+0000001827          1400 GM9112               3BZ
121564004121564112-116069     121564006009681820277TCS CARRIER BAG JUMBO  0000001000+00000048+00000+0001T   00000048+0000001827          1400 GM9090               3BZ
121565000121565               121565               170213BC     1400+00000+BC0000001314+0000001314+000000000+000000184+0000001490+0000000008+I20000000000+0000001490+Z
121565001121565077-000312     121565006001023608697GIFT-BAG 10X35CM GLOSS 0000001000+00001314+00000+0001T   00001314+0000001828          1400 GM9112               3BZ
121566000121566               121566               170213BC     1400+00000+BC0000007890+0000007890+000000000+000001106+0000008996+0000000000+I40000008996+0000000000+Z
121566001121566567-075466     121566009780263252880BK NOVEL ROMANCE       0000001000+00002630+00000+0001T   00002630+0000001829          1400 GM9757               3BZ
121566002121566018-000136     121566006001023659026MUG OCC LOVE W/PLUSH   0000001000+00003507+00000+0001T   00003507+0000001829          1400 GM9515               3BZ
121566003121566077-000309     121566006001023608604GIFT-BAG 25X32CM GLOSS 0000001000+00001753+00000+0001T   00001753+0000001829          1400 GM9112               3BZ
121567000121567               121567               170213BC     1400+00000+BC0000001490+0000001490+000000000+000000209+0000001699+0000000000+I40000001699+0000000000+Z
121567001121567077-000384     121567006003000275243G/BAG HOT STMP 18x23CM 0000001000+00001490+00000+0001T   00001490+0000001831          1400 GM9112               3BZ
121568000121568               121568               170213BC     1400+00000+BC0000003507+0000003507+000000000+000000491+0000003990+0000000008+I20000000000+0000003990+Z
121568001121568028-002101     121568006002580009507CHAIR JUNIOR    ASSTD  0000001000+00003507+00000+0001T   00003507+0000001831          1400 GM9305               3BZ
121569000121569               121569               170213BC     1400+00000+BC0000009552+0000009552+000000000+000001341+0000010893+0000000000+I40000010893+0000000000+Z
121569001121569077-000011-E   121569006001023808646TISSUE-WRAP PINK 10PCE 0000002000+00000876+00000+0001T   00000876+0000001833          1400 GM9112               3BZ
121569002121569006-000120     121569006001023346889BALLOONS 10PC MIX COL  0000004000+00001753+00000+0001T   00001753+0000001833          1400 GM9131               3BZ
121569003121569077-000010-C   121569006001023123879CREPE-PAPER RED        0000001000+00000788+00000+0001T   00000788+0000001833          1400 GM9112               3BZ
121570000121570               121570               170213BC     1400+00000+BC0000009208+0000009208+000000000+000001290+0000010498+0000000000+I40000010498+0000000000+Z
121570001121570080-000133-A   121570006003000647019MINI VALENTINES CARD   0000001000+00000437+00000+0001T   00000437+0000001835          1400 GM9112               3BZ
121570002121570001-091415     121570006003000329113W/GLS OCC. LOVE 2PC 2800000001000+00008771+00000+0001T   00009648+0006471835          1400 GM9515               3BZ
121571000121571               121571               170213BC     1400+00000+BC0000002102+0000002102+000000000+000000296+0000002398+0000000000+I40000002398+0000000000+Z
121571001121571079-009702-E   121571008427973059439PAPER SIRIO A2 BLUE    0000001000+00001051+00000+0001T   00001051+0000001837          1400 GM9130               3BZ
121571002121571079-009702-B   121571008427973059491PAPER SIRIO A2 WHITE   0000001000+00001051+00000+0001T   00001051+0000001837          1400 GM9130               3BZ
121572000121572               121572               170213BC     1400+00000+BC0000002630+0000002630+000000000+000000369+0000002990+0000000009+I20000000000+0000002990+Z
121572001121572077-000270     121572006003000395453GIFT-BAG PPR JMB 33X45 0000001000+00002630+00000+0001T   00002630+0000001839          1400 GM9112               3BZ
121573000121573               121573               170213BC     1400+00000+BC0000009383+0000009383+000000000+000001315+0000010698+0000000000+I40000010698+0000000000+Z
121573001121573206-000480     121573006003000620227MOP SHOES CHENILLE 2PC 0000001000+00007893+00000+0001T   00007893+0000001841          1400 GM9321               3BZ
121573002121573077-000299     121573006003000395576G/BAG 32x25cm LRG LOVE 0000001000+00001490+00000+0001T   00001490+0000001841          1400 GM9112               3BZ
121574000121574               121574               170213BC     1400+00000+BC0000031619+0000031619+000000000+000004430+0000036040+0000000009+I20000000000+0000036040+Z
121574001121574104-000030     121574006001023803481BASKET PL 28x20x12cm   0000001000+00004385+00000+0001T   00004385+0000001844          1400 GM9210               3BZ
121574002121574103-000083     121574006003000638062BAMBOO BASKET 27x20x8cm0000001000+00005262+00000+0001T   00005262+0000001844          1400 GM9300               3BZ
121574003121574046-000014-A   121574004897006177708BATTERIES SIZE:AAA 8PCE0000001000+00001753+00000+0001T   00001753+0000001844          1400 GM9312               3BZ
121574004121574048-071505     121574006001023714626TOUCH-LIGHTS 8cm  SET-20000001000+00004385+00000+0001T   00004385+0000001844          1400 GM9305               3BZ
121574005121574003-009209     121574006003000461738O/SIGN W/INSECTS 4-ASST0000002000+00007893+00000+0001T   00007893+0000001844          1400 GM9505               3BZ
121574006121574112-116069     121574006009681820277TCS CARRIER BAG JUMBO  0000001000+00000048+00000+0001T   00000048+0000001844          1400 GM9090               3BZ
121575000121575               121575               170213BC     1400+00000+BC0000002454+0000002454+000000000+000000344+0000002790+0000000008+I20000000000+0000002790+Z
121575001121575079-013032-C   121575006003000389520POLY SHAPES            0000001000+00001578+00000+0001T   00001578+0000001845          1400 GM9130               3BZ
121575002121575077-000011-E   121575006001023808646TISSUE-WRAP PINK 10PCE 0000001000+00000876+00000+0001T   00000876+0000001845          1400 GM9112               3BZ
121576000121576               121576               170213BC     1400+00000+BC0000005120+0000005120+000000000+000000717+0000005837+0000000000+I40000005837+0000000000+Z
121576001121576018-000136     121576006001023659026MUG OCC LOVE W/PLUSH   0000001000+00003507+00000+0001T   00003507+0000001847          1400 GM9515               3BZ
121576002121576077-000303     121576006001023593757GIFT-BAG PAPER MED     0000001000+00001578+00000+0001T   00001578+0000001847          1400 GM9112               3BZ
121576003121576112-116038     121576006009681820246TCS CARRIER BAG MIDI   0000001000+00000035+00000+0001T   00000035+0000001847          1400 GM9090               3BZ
121577000121577               121577               170213BC     1400+00000+BC0000003331+0000003331+000000000+000000467+0000003790+0000000008+I20000000000+0000003790+Z
121577001121577006-000118     121577006001023730725BALLOONS 6PC TWISTER   0000001000+00001753+00000+0001T   00001753+0000001847          1400 GM9131               3BZ
121577002121577077-000303     121577006001023593757GIFT-BAG PAPER MED     0000001000+00001578+00000+0001T   00001578+0000001847          1400 GM9112               3BZ
121578000121578               121578               170213BC     1400+00000+BC0000009295+0000009295+000000000+000001304+0000010599+0000000000+I40000010599+0000000000+Z
121578001121578366-000292     121578006001023828958HEADBAND COL-FEATHERS  0000001000+00002630+00000+0001T   00002630+0000001849          1400 GM9131               3BZ
121578002121578362-019285     121578006001023869456HAIR BAND SET ASS. CARD0000001000+00002630+00000+0001T   00002630+0000001849          1400 GM9160               3BZ
121578003121578079-013106     121578006003000081998ART+CRAFT PIPE-CLEANERS0000001000+00003069+00000+0001T   00003069+0000001849          1400 GM9130               3BZ
121578004121578112-116069     121578006009681820277TCS CARRIER BAG JUMBO  0000001000+00000048+00000+0001T   00000048+0000001849          1400 GM9090               3BZ
121578005121578079-009700-D   121578006003000545711PAPER SIRIO A4 RED COL.0000003000+00000306+00000+0001T   00000306+0000001849          1400 GM9130               3BZ
121579000121579               121579               170213BC     1400+00000+BC0000007893+0000007893+000000000+000001106+0000008999+0000000000+I40000008999+0000000000+Z
121579001121579174-000308     121579006003000684939TRAVEL NECK-PILLOW FOAM0000001000+00007893+00000+0001T   00007893+0000001851          1400 GM9205               3BZ
121580000121580               121580               170213BC     1400+00000+BC0000000612+0000000612+000000000+000000086+0000000690+0000000008+I20000000000+0000000690+Z
121580001121580079-009700-I   121580006003000546114PAPER SIRIO A4 LILAC   0000002000+00000306+00000+0001T   00000306+0000001851          1400 GM9130               3BZ
121581000121581               121581               170213BC     1400+00000+BC0000000876+0000000876+000000000+000000123+0000000990+0000000009+I20000000000+0000000990+Z
121581001121581077-000151     121581006008766114676GIFT-WRAP C/PHANE ASSTD0000001000+00000876+00000+0001T   00000876+0000001852          1400 GM9112               3BZ
121582000121582               121582               170213BC     1400+00000+BC0000004822+0000004822+000000000+000000676+0000005498+0000000000+I40000005498+0000000000+Z
121582001121582007-000217     121582006003000639656SELF STICK NOTE BOOK   0000001000+00002192+00000+0001T   00002192+0000001855          1400 GM9130               3BZ
121582002121582566-000006     121582006001023671189STICKER-BOOK DRESS-UP  0000001000+00002630+00000+0001T   00002630+0000001855          1400 GM9130               3BZ
121583000121583               121583               170213BC     1400+00000+BC0000002192+0000002192+000000000+000000307+0000002490+0000000009+I20000000000+0000002490+Z
121583001121583563-000318-L   121583006003000407088SERVIETTES 33cm RED    0000001000+00002192+00000+0001T   00002192+0000001856          1400 GM9214               3BZ
121584000121584               121584               170213BC     1400+00000+BC0000004382+0000004382+000000000+000000615+0000004997+0000000000+I40000004997+0000000000+Z
