104482000104482               104482               170213BD     1400+00000+BD0000009646+0000009646+000000000+000001352+0000010998+0000000000+I40000010998+0000000000+Z
104482001104482046-000012-VP  104482006003000537914BATTERIES H/P SIZE:AA  0000002000+00004823+00000+0001T   00004823+0000000857          1400 S50312               1AZ
104483000104483               104483               170213BD     1400+00000+BD0000007015+0000007015+000000000+000000983+0000007990+0000000008+I20000000000+0000007990+Z
104483001104483072-020255     104483006003000451487PET DOG CHEW BONE PK-2 0000001000+00004385+00000+0001T   00004385+0000000906          1400 S50870               1AZ
104483002104483072-020358     104483006001023748119DOG-BOWL BONE-SHAPED   0000001000+00002630+00000+0001T   00002630+0000000906          1400 S50870               1AZ
104484000104484               104484               170213BD     1400+00000+BD0000005262+0000005262+000000000+000000737+0000005990+0000000009+I20000000000+0000005990+Z
104484001104484085-007026     104484006003000528714P/KNIFE 9cm 15-FUNCTION0000001000+00005262+00000+0001T   00005262+0000000913          1400 S50305               1AZ
104485000104485               104485               170213BD     1400+00000+BD0000007488+0000007488+000000000+000001049+0000008530+0000000007+I20000000000+0000008530+Z
104485001104485365-000071     104485006001023542366PLAY-SET CD PLAYER B/O 0000001000+00006139+00000+0001T   00006139+0000000914          1400 S50725               1AZ
104485002104485046-000012     104485006904708013062BATTERIES AA  CARD-OF-40000001000+00001314+00000+0001T   00001314+0000000914          1400 S50312               1AZ
104485003104485112-116038     104485006009681820246TCS CARRIER BAG MIDI   0000001000+00000035+00000+0001T   00000035+0000000914          1400 S50090               1AZ
104486000104486               104486               170213BD     1400+00000+BD0000001314+0000001314+000000000+000000184+0000001490+0000000008+I20000000000+0000001490+Z
104486001104486903-000844     104486005010478432567SWT CANDY DL LUV HEARTS0000001000+00001314+00000+0001T   00001314+0000000916          1400 S50150               1AZ
104487000104487               104487               170213BD     1400+00000+BD0000003942+0000003942+000000000+000000552+0000004494+0000000000+I40000004494+0000000000+Z
104487001104487158-008939     104487006003000571765TOILET ROLL HOLDER     0000003000+00001314+00000+0001T   00001753+0008170918          1400 S50300               1AZ
104488000104488               104488               170213BD     1400+00000+BD0000005698+0000005698+000000000+000000799+0000006490+0000000007+I20000000000+0000006490+Z
104488001104488563-000318-L   104488006003000407088SERVIETTES 33cm RED    0000001000+00002192+00000+0001T   00002192+0000000934          1400 S50214               1AZ
104488002104488002-001068     104488006001023812001DISP. BOTTLES PL H/H   0000001000+00001753+00000+0001T   00001753+0000000934          1400 S50300               1AZ
104488003104488040-000922     104488006001023587817CANDLE-HOLDER GLS 18cm 0000001000+00001753+00000+0001T   00001753+0000000934          1400 S50510               1AZ
104489000104489               104489               170213BD     1400+00000+BD0000015434+0000015434+000000000+000002162+0000017596+0000000000+I40000017596+0000000000+Z
104489001104489368-000265     104489006001023750914PLUSH BEAR 23CM ASSTD C0000002000+00006139+00000+0001T   00006139+0000001003          1400 S50745               1AZ
104489002104489077-000303     104489006001023593757GIFT-BAG PAPER MED     0000002000+00001578+00000+0001T   00001578+0000001003          1400 S50112               1AZ
104490000104490               104490               170213BD     1400+00000+BD0000000876+0000000876+000000000+000000123+0000000990+0000000009+I20000000000+0000000990+Z
104490001104490903-000673     104490006009803358237SWT SHERBET GRAPE 4PK  0000001000+00000876+00000+0001T   00000876+0000001004          1400 S50150               1AZ
104491000104491               104491               170213BD     1400+00000+BD0000001314+0000001314+000000000+000000184+0000001490+0000000008+I20000000000+0000001490+Z
104491001104491046-000012     104491006904708013062BATTERIES AA  CARD-OF-40000001000+00001314+00000+0001T   00001314+0000001004          1400 S50312               1AZ
104492000104492               104492               170213BD     1400+00000+BD0000027797+0000027797+000000000+000003895+0000031690+0000000002+I20000000000+0000031690+Z
104492001104492133-000034     104492006001023559586OVEN GLOVE & POTHOLDER 0000001000+00002630+00000+0001T   00002630+0000001012          1400 S50212               1AZ
104492002104492104-000180     104492006001023765758CUTLERY-TRAY PL        0000001000+00003507+00000+0001T   00003507+0000001012          1400 S50210               1AZ
104492003104492104-000190     104492006004779016334DISH DRAINER PL ASSTD  0000001000+00005262+00000+0001T   00005262+0000001012          1400 S50210               1AZ
104492004104492104-000140     104492006002923019835WASTEPAPER BIN FLIP 24L0000001000+00011402+00000+0001T   00011402+0000001012          1400 S50210               1AZ
104492005104492016-006516     104492006003000351503S/JAR GLS CHECK 150ML  0000001000+00001490+00000+0001T   00001490+0000001012          1400 S50300               1AZ
104492006104492037-050016     104492006001023674128ASHTRAY 9CM RND CLUB   0000002000+00001753+00000+0001T   00001753+0000001012          1400 S50515               1AZ
104493000104493               104493               170213BD     1400+00000+BD0000000613+0000000613+000000000+000000086+0000000690+0000000009+I20000000000+0000000690+Z
104493001104493047-000001-AA  104493006001023723529INS-TAPE WHITE 18mmx10m0000001000+00000613+00000+0001T   00000613+0000001054          1400 S50880               1AZ
104494000104494               104494               170213BD     1400+00000+BD0000023969+0000023969+000000000+000003361+0000027330+0000000000+I40000027330+0000000000+Z
104494001104494206-000410     104494006003000619382SOUP LADLE SEAMONSTER  0000001000+00004385+00000+0001T   00004385+0000001056          1400 S50321               1AZ
104494002104494206-000570     104494006003000633463DOOR STOPPER SILI/LEAF 0000001000+00002630+00000+0001T   00002630+0000001056          1400 S50321               1AZ
104494003104494206-000245     104494006003000680818BOTTLE CLEANER PLASTIC 0000001000+00002192+00000+0001T   00002192+0000001056          1400 S50321               1AZ
104494004104494206-000220     104494006003000631704EGG TIMER COLOUR-CHANGE0000001000+00002630+00000+0001T   00002630+0000001056          1400 S50321               1AZ
104494005104494206-000120     104494006003000628308PEELER CARROT SHARPENER0000001000+00001753+00000+0001T   00001753+0000001056          1400 S50321               1AZ
104494006104494206-000110     104494006003000628186CHOPSTICKS PLASTIC KIDS0000001000+00002630+00000+0001T   00002630+0000001056          1400 S50321               1AZ
104494007104494206-000630     104494006003000631919SPECTACLE CLEANING BRUS0000001000+00001227+00000+0001T   00001227+0000001056          1400 S50321               1AZ
104494008104494206-000110     104494006003000628186CHOPSTICKS PLASTIC KIDS0000001000+00002630+00000+0001T   00002630+0000001056          1400 S50321               1AZ
104494009104494206-000630     104494006003000631919SPECTACLE CLEANING BRUS0000001000+00001227+00000+0001T   00001227+0000001056          1400 S50321               1AZ
104494010104494206-000110     104494006003000628186CHOPSTICKS PLASTIC KIDS0000001000+00002630+00000+0001T   00002630+0000001056          1400 S50321               1AZ
104494011104494112-116038     104494006009681820246TCS CARRIER BAG MIDI   0000001000+00000035+00000+0001T   00000035+0000001056          1400 S50090               1AZ
104495000104495               104495               170213BD     1400+00000+BD0000002630+0000002630+000000000+000000369+0000002990+0000000009+I20000000000+0000002990+Z
104495001104495206-000620     104495006003000631797BACK SCRATCHER EXTEND  0000001000+00002630+00000+0001T   00002630+0000001056          1400 S50321               1AZ
104496000104496               104496               170213BD     1400+00000+BD0000007222+0000007222+000000000+000001014+0000008230+0000000006+I20000000000+0000008230+Z
104496001104496071-000307     104496006003000535118RULER FLEXI 30cm       0000001000+00001490+00000+0001T   00001490+0000001116          1400 S50130               1AZ
104496002104496079-000020     104496006003000590889PENCIL DOUBLE ENDED    0000001000+00002630+00000+0001T   00002630+0000001116          1400 S50130               1AZ
104496003104496071-000009     104496006003000098194STATIONERY SET 11 PIECE0000001000+00002630+00000+0001T   00002630+0000001116          1400 S50130               1AZ
104496004104496007-000193     104496006009635831731BK JOTTER A4 72-PG F/M 0000001000+00000437+00000+0001T   00000437+0000001116          1400 S50130               1AZ
104496005104496112-116038     104496006009681820246TCS CARRIER BAG MIDI   0000001000+00000035+00000+0001T   00000035+0000001116          1400 S50090               1AZ
104497000104497               104497               170213BD     1400+00000+BD0000006172+0000006172+000000000+000000865+0000007030+0000000007+I20000000000+0000007030+Z
104497001104497567-011523     104497006003000667031BK COLOURING THERAPY   0000001000+00003507+00000+0001T   00003507+0000001119          1400 S50757               1AZ
104497002104497002-012267     104497006001023110886SERVING-TONGS SCISSORS 0000001000+00002630+00000+0001T   00002630+0000001119          1400 S50300               1AZ
104497003104497112-116038     104497006009681820246TCS CARRIER BAG MIDI   0000001000+00000035+00000+0001T   00000035+0000001119          1400 S50090               1AZ
104498000104498               104498               170213BD     1400+00000+BD0000002190+0000002190+000000000+000000308+0000002498+0000000000+I40000002498+0000000000+Z
104498001104498566-000865     104498006001023788412STICKER ASSTD          0000001000+00001753+00000+0001T   00001753+0000001120          1400 S50130               1AZ
104498002104498080-000133     104498006003000535613CARD&ENV MINI ASTD DSGN0000001000+00000437+00000+0001T   00000437+0000001120          1400 S50112               1AZ
104499000104499               104499               170213BD     1400+00000+BD0000004204+0000004204+000000000+000000592+0000004790+0000000006+I20000000000+0000004790+Z
104499001104499039-000026     104499006001023551610C/TAPERED 25CM M/RED   0000004000+00001051+00000+0001T   00001051+0000001122          1400 S50510               1AZ
104500000104500               104500               170213BD     1400+00000+BD0000002454+0000002454+000000000+000000344+0000002790+0000000008+I20000000000+0000002790+Z
104500001104500206-000630     104500006003000631919SPECTACLE CLEANING BRUS0000002000+00001227+00000+0001T   00001227+0000001125          1400 S50321               1AZ
104501000104501               104501               170213BD     1400+00000+BD0000003156+0000003156+000000000+000000442+0000003590+0000000008+I20000000000+0000003590+Z
104501001104501565-000885     104501006003000122929NOVELTY PRICKLY BALL   0000002000+00001578+00000+0001T   00001578+0000001127          1400 S50745               1AZ
104502000104502               104502               170213BD     1400+00000+BD0000003506+0000003506+000000000+000000492+0000003990+0000000008+I20000000000+0000003990+Z
104502001104502369-001137     104502006003000555062VINYL 5.7cm THEMED DUCK0000002000+00001753+00000+0001T   00001753+0000001133          1400 S50745               1AZ
104503000104503               104503               170213BD     1400+00000+BD0000001753+0000001753+000000000+000000246+0000001990+0000000009+I20000000000+0000001990+Z
104503001104503027-001010     104503006001023171481FEATHER-DUSTER PL-HNDLE0000001000+00001753+00000+0001T   00001753+0000001137          1400 S50212               1AZ
104504000104504               104504               170213BD     1400+00000+BD0000005645+0000005645+000000000+000000792+0000006437+0000000000+I40000006437+0000000000+Z
104504001104504006-000111     104504006003000519385BALLOONS LARGE 12PCE   0000001000+00002630+00000+0001T   00002630+0000001142          1400 S50131               1AZ
104504002104504071-081091     104504006001151010287STAED/GENKEM ALL-STICK 0000001000+00001227+00000+0001T   00001227+0000001142          1400 S50130               1AZ
104504003104504079-006500     104504006001023557186GLUE GLITTER 6/10 PCE  0000001000+00001753+00000+0001T   00001753+0000001142          1400 S50130               1AZ
104504004104504112-116038     104504006009681820246TCS CARRIER BAG MIDI   0000001000+00000035+00000+0001T   00000035+0000001142          1400 S50090               1AZ
104505000104505               104505               170213BD     1400+00000+BD0000016519+0000016519+000000000+000002314+0000018833+0000000000+I40000018833+0000000000+Z
104505001104505079-013032-D   104505006003000389643RIBBONS                0000001000+00002630+00000+0001T   00002630+0000001155          1400 S50130               1AZ
104505002104505566-002000     104505000721129013206STICKERS CRYSTAL ASSTD 0000001000+00000700+00000+0001T   00000700+0000001155          1400 S50130               1AZ
104505003104505566-000068     104505006003000418046POP UP LOVE 2 ASSTD    0000002000+00002192+00000+0001T   00002192+0000001155          1400 S50130               1AZ
104505004104505024-000118     104505006001023422316N/STICK C/PAN HEART    0000002000+00004385+00000+0001T   00004385+0000001155          1400 S50300               1AZ
104505005104505112-116038     104505006009681820246TCS CARRIER BAG MIDI   0000001000+00000035+00000+0001T   00000035+0000001155          1400 S50090               1AZ
104506000104506               104506               170213BD     1400+00000+BD0000003504+0000003504+000000000+000000491+0000003990+0000000005+I20000000000+0000003990+Z
104506001104506077-000011-F   104506006001023808431TISSUE-WRAP BLUE/LILAC 0000001000+00000876+00000+0001T   00000876+0000001203          1400 S50112               1AZ
104506002104506077-000312     104506006001023608697GIFT-BAG 10X35CM GLOSS 0000002000+00001314+00000+0001T   00001314+0000001203          1400 S50112               1AZ
104507000104507               104507               170213BD     1400+00000+BD0000012279+0000012279+000000000+000001720+0000013990+0000000009+I20000000000+0000013990+Z
104507001104507261-003348     104507006003000398478GUN AIR BLASTER 27CM   0000001000+00012279+00000+0001T   00012279+0000001214          1400 S50710               1AZ
104508000104508               104508               170213BD     1400+00000+BD0000012133+0000012133+000000000+000001700+0000013830+0000000003+I20000000000+0000013830+Z
104508001104508077-000245     104508006001023759214GIFT-RIBBON METALLICx2 0000005000+00001227+00000+0001T   00001227+0000001217          1400 S50112               1AZ
104508002104508006-000190     104508006003000685530BALLOONS LOVE 81x91cm  0000001000+00004385+00000+0001T   00004385+0000001217          1400 S50131               1AZ
104508003104508077-000303     104508006001023593757GIFT-BAG PAPER MED     0000001000+00001578+00000+0001T   00001578+0000001217          1400 S50112               1AZ
104508004104508112-116038     104508006009681820246TCS CARRIER BAG MIDI   0000001000+00000035+00000+0001T   00000035+0000001217          1400 S50090               1AZ
104509000104509               104509               170213BD     1400+00000+BD0000004385+0000004385+000000000+000000614+0000004990+0000000009+I20000000000+0000004990+Z
104509001104509012-000024     104509006003000580897MICROWAVE HOT PLATE    0000001000+00004385+00000+0001T   00004385+0000001218          1400 S50300               1AZ
104510000104510               104510               170213BD     1400+00000+BD0000005565+0000005565+000000000+000000781+0000006340+0000000006+I20000000000+0000006340+Z
104510001104510566-020150     104510006001023889126STICKERS FOAM 3D ASSTD 0000001000+00001753+00000+0001T   00001753+0000001219          1400 S50130               1AZ
104510002104510071-003011     104510006001023762825PEN STICKBALL X10 ASSTD0000001000+00001753+00000+0001T   00001753+0000001219          1400 S50130               1AZ
104510003104510566-000066     104510006003000283675STICKERS GLITTER 25PCS 0000001000+00001753+00000+0001T   00001753+0000001219          1400 S50130               1AZ
104510004104510079-009700-C   104510006003000545636PAPER SIRIO A4 VIOLET  0000001000+00000306+00000+0001T   00000306+0000001219          1400 S50130               1AZ
104511000104511               104511               170213BD     1400+00000+BD0000003856+0000003856+000000000+000000541+0000004390+0000000007+I20000000000+0000004390+Z
104511001104511077-000308     104511006001023595812GIFT-BAG 33X45CM E/DAY 0000001000+00001753+00000+0001T   00001753+0000001225          1400 S50112               1AZ
104511002104511077-000322     104511006001023677532GIFT-BAG 18X23CM E/D FL0000001000+00001227+00000+0001T   00001227+0000001225          1400 S50112               1AZ
104511003104511077-000011-D   104511006001023808554TISSUE-WRAP WHITE 10PCE0000001000+00000876+00000+0001T   00000876+0000001225          1400 S50112               1AZ
104512000104512               104512               170213BD     1400+00000+BD0000002192+0000002192+000000000+000000307+0000002490+0000000009+I20000000000+0000002490+Z
104512001104512565-000887     104512006003000412334NOVELTY SILICONE TOY   0000001000+00002192+00000+0001T   00002192+0000001226          1400 S50745               1BZ
104513000104513               104513               170213BD     1400+00000+BD0000005260+0000005260+000000000+000000738+0000005990+0000000008+I20000000000+0000005990+Z
104513001104513200-000035     104513006001023768810FOOD-BOWL-COVERS 5PCE  0000002000+00002630+00000+0001T   00002630+0000001353          1400 S50214               1AZ
104514000104514               104514               170213BD     1400+00000+BD0000014074+0000014074+000000000+000001975+0000016049+0000000000+I40000016049+0000000000+Z
104514001104514076-001001     104514006003000266715CORD STRETCH 2-CL 120cm0000001000+00002630+00000+0001T   00002630+0000001405          1400 S50810               1AZ
104514002104514200-000307     104514006003000439041OVEN BASKET MESH TRAY  0000002000+00002630+00000+0001T   00003507+0008171405          1400 S50214               1AZ
104514003104514306-000529     104514006003000571338TOOTHBRUSH HOLDER 20cm 0000001000+00001753+00000+0001T   00001753+0000001405          1400 S50200               1AZ
104514004104514058-000061     104514006001023759597KNIFE SNAPOFF+5PCE BLDE0000001000+00002630+00000+0001T   00002630+0000001405          1400 S50840               1AZ
104514005104514306-000529     104514006003000571338TOOTHBRUSH HOLDER 20cm 0000001000+00001753+00000+0001T   00001753+0000001405          1400 S50200               1AZ
104514006104514112-116069     104514006009681820277TCS CARRIER BAG JUMBO  0000001000+00000048+00000+0001T   00000048+0000001405          1400 S50090               1AZ
104515000104515               104515               170213BD     1400+00000+BD0000002630+0000002630+000000000+000000369+0000002999+0000000000+I40000002999+0000000000+Z
104515001104515159-002369     104515006001023999191TOOTHBRUSH HOLDER PL 3 0000001000+00002630+00000+0001T   00002630+0000001406          1400 S50200               1AZ
104516000104516               104516               170213BD     1400+00000+BD0000010261+0000010261+000000000+000001437+0000011698+0000000000+I40000011698+0000000000+Z
104516001104516001-091415     104516006003000329113W/GLS OCC. LOVE 2PC 2800000001000+00008771+00000+0001T   00009648+0006471408          1400 S50515               1AZ
104516002104516077-000299     104516006003000395576G/BAG 32x25cm LRG LOVE 0000001000+00001490+00000+0001T   00001490+0000001408          1400 S50112               1AZ
104517000104517               104517               170213BD     1400+00000+BD0000001753+0000001753+000000000+000000246+0000001990+0000000009+I20000000000+0000001990+Z
104517001104517903-000215     104517006002099001214SWT GS MALLOW TWIST PAC0000001000+00001753+00000+0001T   00001753+0000001409          1400 S50150               1AZ
104518000104518               104518               170213BD     1400+00000+BD0000003542+0000003542+000000000+000000496+0000004030+0000000008+I20000000000+0000004030+Z
104518001104518112-116038     104518006009681820246TCS CARRIER BAG MIDI   0000001000+00000035+00000+0001T   00000035+0000001413          1400 S50090               1AZ
104518002104518018-000136     104518006001023659026MUG OCC LOVE W/PLUSH   0000001000+00003507+00000+0001T   00003507+0000001413          1400 S50515               1AZ
104519000104519               104519               170213BD     1400+00000+BD0000005262+0000005262+000000000+000000737+0000005990+0000000009+I20000000000+0000005990+Z
104519001104519366-002195     104519006001023990549DRESS UP WINGS FEATHER 0000001000+00005262+00000+0001T   00005262+0000001416          1400 S50131               1AZ
104520000104520               104520               170213BD     1400+00000+BD0000019936+0000019936+000000000+000002795+0000022731+0000000000+I40000022731+0000000000+Z
104520001104520112-116038     104520006009681820246TCS CARRIER BAG MIDI   0000001000+00000035+00000+0001T   00000035+0000001420          1400 S50090               1AZ
104520002104520203-007003     104520006003000116331SHOT-GLASS DISPOSABLE  0000005000+00003069+00000+0001T   00003069+0000001420          1400 S50300               1AZ
104520003104520002-021011     104520006003000661893CHOPSTICKS WOODEN 10 PC0000004000+00001139+00000+0001T   00001578+0008121420          1400 S50300               1AZ
104521000104521               104521               170213BD     1400+00000+BD0000002192+0000002192+000000000+000000307+0000002499+0000000000+I40000002499+0000000000+Z
104521001104521080-000139     104521006003000611690CARD & ENV MINI SET 6PC0000001000+00002192+00000+0001T   00002192+0000001436          1400 S50112               1AZ
104522000104522               104522               170213BD     1400+00000+BD0000001525+0000001525+000000000+000000214+0000001739+0000000000+I40000001739+0000000000+Z
104522001104522077-000299     104522006003000395576G/BAG 32x25cm LRG LOVE 0000001000+00001490+00000+0001T   00001490+0000001447          1400 S50112               1AZ
104522002104522112-116038     104522006009681820246TCS CARRIER BAG MIDI   0000001000+00000035+00000+0001T   00000035+0000001447          1400 S50090               1AZ
104523000104523               104523               170213BD     1400+00000+BD0000006608+0000006608+000000000+000000926+0000007534+0000000000+I40000007534+0000000000+Z
104523001104523903-000844     104523005010478432567SWT CANDY DL LUV HEARTS0000002000+00001314+00000+0001T   00001314+0000001459          1400 S50150               1AZ
104523002104523566-000200     104523006003000384174STICKER PUFFY NEON     0000001000+00000876+00000+0001T   00000876+0000001459          1400 S50130               1AZ
104523003104523105-001180     104523006003000666522CONTAINER SET LITE 3PC 0000001000+00003069+00000+0001T   00003069+0000001459          1400 S50210               1AZ
104523004104523112-116038     104523006009681820246TCS CARRIER BAG MIDI   0000001000+00000035+00000+0001T   00000035+0000001459          1400 S50090               1AZ
104524000104524               104524               170213BD     1400+00000+BD0000001753+0000001753+000000000+000000246+0000001990+0000000009+I20000000000+0000001990+Z
104524001104524046-000014-A   104524004897006177708BATTERIES SIZE:AAA 8PCE0000001000+00001753+00000+0001T   00001753+0000001505          1400 S50312               1AZ
104525000104525               104525               170213BD     1400+00000+BD0000025804+0000025804+000000000+000003617+0000029421+0000000000+I40000029421+0000000000+Z
104525001104525366-007601     104525006003000655472DRESS UP MASK THEATRICA0000005000+00000876+00000+0001T   00000876+0000001514          1400 S50131               1AZ
104525002104525079-013032-C   104525006003000389520POLY SHAPES            0000001000+00001578+00000+0001T   00001578+0000001514          1400 S50130               1AZ
104525003104525007-000324     10452500600968585864125 SHEETS BRIGHTS MARLI0000001000+00003507+00000+0001T   00003507+0000001514          1400 S50130               1AZ
104525004104525903-000095     104525006001704011495SWT SPECKLED-EGGS 100G 0000001000+00002104+00000+0001T   00002104+0000001514          1400 S50150               1AZ
104525005104525079-006498     104525006001023836151GLITTER SET 10PCE      0000001000+00003507+00000+0001T   00003507+0000001514          1400 S50130               1AZ
104525006104525304-001204     104525006001023737984FLOWER OCC. TEDDY/ROSES0000001000+00001402+00000+0001T   00001490+0006471514          1400 S50510               1AZ
104525007104525079-014102     104525006003000101115SCISSORS SHAPES ASSTD  0000001000+00001753+00000+0001T   00001753+0000001514          1400 S50130               1AZ
104525008104525071-081103     104525006003000197002GLUE STICKS LIQUID 3PCE0000001000+00001753+00000+0001T   00001753+0000001514          1400 S50130               1AZ
104525009104525077-000303     104525006001023593757GIFT-BAG PAPER MED     0000001000+00001578+00000+0001T   00001578+0000001514          1400 S50112               1AZ
104525010104525018-005009     104525006001023725608MUG W/PLUSH-BEAR LOVE  0000001000+00003507+00000+0001T   00003507+0000001514          1400 S50515               1AZ
104525011104525018-000177     104525006001023797513MUG MINI LOVE ASSTD    0000001000+00000700+00000+0001T   00000700+0000001514          1400 S50515               1AZ
104525012104525112-116038     104525006009681820246TCS CARRIER BAG MIDI   0000001000+00000035+00000+0001T   00000035+0000001514          1400 S50090               1AZ
104526000104526               104526               170213BD     1400+00000+BD0000019294+0000019294+000000000+000002702+0000021996+0000000000+I40000021996+0000000000+Z
104526001104526903-000809     104526006009680772232SWT CANDY FROOTEEZ 50g 0000002000+00000876+00000+0001T   00000876+0000001519          1400 S50150               1AZ
104526002104526072-020244     104526000694202207840PET BED COTTON 90x70cm 0000001000+00017542+00000+0001T   00017542+0000001519          1400 S50870               1AZ
104527000104527               104527               170213BD     1400+00000+BD0000002979+0000002979+000000000+000000418+0000003390+0000000007+I20000000000+0000003390+Z
104527001104527077-000321     104527006001023677501GIFT-BAG 11X14CM E/D FL0000002000+00000613+00000+0001T   00000613+0000001519          1400 S50112               1AZ
104527002104527077-000357     104527006003000139354GIFT-BAG 18X23CM B/DAY 0000001000+00001753+00000+0001T   00001753+0000001519          1400 S50112               1AZ
104528000104528               104528               170213BD     1400+00000+BD0000013186+0000013186+000000000+000001847+0000015030+0000000003+I20000000000+0000015030+Z
104528001104528018-000136     104528006001023659026MUG OCC LOVE W/PLUSH   0000001000+00003507+00000+0001T   00003507+0000001521          1400 S50515               1AZ
104528002104528018-005009     104528006001023725608MUG W/PLUSH-BEAR LOVE  0000001000+00003507+00000+0001T   00003507+0000001521          1400 S50515               1AZ
104528003104528079-013032-J   104528006003000542710A&C DIY COLOUR P/FLOWER0000001000+00001753+00000+0001T   00001753+0000001521          1400 S50130               1AZ
104528004104528566-000068     104528006003000418046POP UP LOVE 2 ASSTD    0000002000+00002192+00000+0001T   00002192+0000001521          1400 S50130               1AZ
104528005104528112-116038     104528006009681820246TCS CARRIER BAG MIDI   0000001000+00000035+00000+0001T   00000035+0000001521          1400 S50090               1AZ
104529000104529               104529               170213BD     1400+00000+BD0000007926+0000007926+000000000+000001111+0000009030+0000000007+I20000000000+0000009030+Z
104529001104529028-000014     104529006001334001316ICE-BRICK SOLID MEDIUM 0000002000+00001753+00000+0001T   00001753+0000001522          1400 S50305               1AZ
104529002104529024-000118     104529006001023422316N/STICK C/PAN HEART    0000001000+00004385+00000+0001T   00004385+0000001522          1400 S50300               1AZ
104529003104529112-116038     104529006003000534906TCS CARRIER BAG MIDI   0000001000+00000035+00000+0001T   00000035+0000001522          1400 S50090               1AZ
104530000104530               104530               170213BD     1400+00000+BD0000001578+0000001578+000000000+000000221+0000001790+0000000009+I20000000000+0000001790+Z
104530001104530018-000127     104530006001023380289MUG OCC STRAIGHT LOVE  0000001000+00001578+00000+0001T   00001753+0006471523          1400 S50515               1AZ
104531000104531               104531               170213BD     1400+00000+BD0000002980+0000002980+000000000+000000418+0000003390+0000000008+I20000000000+0000003390+Z
104531001104531022-002109     104531006001023501745MUG 6cm DEC            0000001000+00001227+00000+0001T   00001227+0000001529          1400 S50305               1AZ
104531002104531027-000409     104531006001023731012SCRUBBING-BRUSH 15,5cm 0000001000+00001753+00000+0001T   00001753+0000001529          1400 S50212               1AZ
104532000104532               104532               170213BD     1400+00000+BD0000013157+0000013157+000000000+000001842+0000014990+0000000009+I20000000000+0000014990+Z
104532001104532031-001012     104532006003000675104P/FRAME WDN COLLAGE    0000001000+00013157+00000+0001T   00013157+0000001532          1400 S50510               1AZ
104533000104533               104533               170213BD     1400+00000+BD0000001314+0000001314+000000000+000000184+0000001490+0000000008+I20000000000+0000001490+Z
104533001104533903-000194     104533006009826020616SWT CHOC RP LOLLY 25G  0000001000+00001314+00000+0001T   00001314+0000001533          1400 S50150               1AZ
104534000104534               104534               170213BD     1400+00000+BD0000003945+0000003945+000000000+000000553+0000004490+0000000008+I20000000000+0000004490+Z
104534001104534079-006500     104534006001023557186GLUE GLITTER 6/10 PCE  0000001000+00001753+00000+0001T   00001753+0000001535          1400 S50130               1AZ
104534002104534566-000068     104534006003000418046POP UP LOVE 2 ASSTD    0000001000+00002192+00000+0001T   00002192+0000001535          1400 S50130               1AZ
104535000104535               104535               170213BD     1400+00000+BD0000006173+0000006173+000000000+000000865+0000007030+0000000008+I20000000000+0000007030+Z
104535001104535089-000030     104535006003000575671K/CHAIN LOVE MTL ASSTD 0000001000+00001753+00000+0001T   00001753+0000001538          1400 S50205               1AZ
104535002104535018-030000     104535006003000421060MUG OCCASIONS LOVE 2PCE0000001000+00004385+00000+0001T   00004385+0000001538          1400 S50515               1AZ
104535003104535112-116038     104535006009681820246TCS CARRIER BAG MIDI   0000001000+00000035+00000+0001T   00000035+0000001538          1400 S50090               1AZ
104536000104536               104536               170213BD     1400+00000+BD0000004769+0000004769+000000000+000000668+0000005437+0000000000+I40000005437+0000000000+Z
104536001104536031-000002-A   104536006003000247103P/FRAME LOVE 7.5X7.5CM 0000001000+00003507+00000+0001T   00003507+0000001540          1400 S50510               1AZ
104536002104536077-000322     104536006001023677532GIFT-BAG 18X23CM E/D FL0000001000+00001227+00000+0001T   00001227+0000001540          1400 S50112               1AZ
104536003104536112-116038     104536006009681820246TCS CARRIER BAG MIDI   0000001000+00000035+00000+0001T   00000035+0000001540          1400 S50090               1AZ
104537000104537               104537               170213BD     1400+00000+BD0000000876+0000000876+000000000+000000123+0000000990+0000000009+I20000000000+0000000990+Z
104537001104537077-000150-D   104537006003000054343GIFT-WRAP CELLPHANE CLR0000001000+00000876+00000+0001T   00000876+0000001543          1400 S50112               1AZ
104538000104538               104538               170213BD     1400+00000+BD0000003505+0000003505+000000000+000000492+0000003990+0000000007+I20000000000+0000003990+Z
104538001104538077-000150-D   104538006003000054343GIFT-WRAP CELLPHANE CLR0000001000+00000876+00000+0001T   00000876+0000001547          1400 S50112               1AZ
104538002104538077-000151     104538006008766114676GIFT-WRAP C/PHANE ASSTD0000001000+00000876+00000+0001T   00000876+0000001547          1400 S50112               1AZ
104538003104538077-000011     104538006003000542352PAPER RAFFIA ASSTD COL 0000001000+00001753+00000+0001T   00001753+0000001547          1400 S50112               1AZ
104539000104539               104539               170213BD     1400+00000+BD0000000786+0000000786+000000000+000000112+0000000890+0000000008+I20000000000+0000000890+Z
104539001104539903-000183     104539006003000451043SWT LB HEART LOLLY     0000002000+00000393+00000+0001T   00000393+0000001547          1400 S50150               1AZ
104540000104540               104540               170213BD     1400+00000+BD0000010290+0000010290+000000000+000001444+0000011734+0000000000+I40000011734+0000000000+Z
104540001104540089-060027     104540006003000245871KEY-CHAIN HEART 6X6cm  0000001000+00003069+00000+0001T   00003069+0000001550          1400 S50205               1AZ
104540002104540903-000861     104540005010478430822SWT LOVE HEARTS SML    0000002000+00000876+00000+0001T   00000876+0000001550          1400 S50150               1AZ
104540003104540006-000104     104540006001023990112BALLOONS 40PC AIR PUMP 0000001000+00002630+00000+0001T   00002630+0000001550          1400 S50131               1AZ
104540004104540903-002851     104540000000087108538MENTOS ROLL STRAWBERRY 0000001000+00001051+00000+0001T   00001051+0000001550          1400 S50150               1AZ
104540005104540366-002799     104540006003000648238DRESSUP S/ADH FACE HAIR0000001000+00001753+00000+0001T   00001753+0000001550          1400 S50131               1AZ
104540006104540112-116038     104540006009681820246TCS CARRIER BAG MIDI   0000001000+00000035+00000+0001T   00000035+0000001550          1400 S50090               1AZ
104541000104541               104541               170213BD     1400+00000+BD0000004385+0000004385+000000000+000000614+0000004990+0000000009+I20000000000+0000004990+Z
104541001104541034-079090     104541006001023855503COOEY BRUSH+COMB-SET   0000001000+00004385+00000+0001T   00004385+0000001551          1400 S50215               1AZ
104542000104542               104542               170213BD     1400+00000+BD0000001314+0000001314+000000000+000000184+0000001490+0000000008+I20000000000+0000001490+Z
104542001104542077-000312     104542006001023608697GIFT-BAG 10X35CM GLOSS 0000001000+00001314+00000+0001T   00001314+0000001551          1400 S50112               1AZ
104543000104543               104543               170213BD     1400+00000+BD0000009675+0000009675+000000000+000001357+0000011032+0000000000+I40000011032+0000000000+Z
104543001104543006-000093     104543006003000539932PARTY BANNER FLAGS ASST0000004000+00001753+00000+0001T   00001753+0000001554          1400 S50131               1AZ
104543003104543006-000166-D   104543006003000516490BALLOONS LRG 6PC RED   0000002000+00001314+00000+0001T   00001314+0000001554          1400 S50131               1AZ
104543004104543112-116038     104543006009681820246TCS CARRIER BAG MIDI   0000001000+00000035+00000+0001T   00000035+0000001554          1400 S50090               1AZ
104544000104544               104544               170213BD     1400+00000+BD0000002892+0000002892+000000000+000000405+0000003290+0000000007+I20000000000+0000003290+Z
104544001104544080-000124     104544006003000297733CARD & ENV VALENTINES  0000001000+00001578+00000+0001T   00001578+0000001554          1400 S50112               1AZ
104544002104544903-000844     104544005010478432567SWT CANDY DL LUV HEARTS0000001000+00001314+00000+0001T   00001314+0000001554          1400 S50150               1AZ
104545000104545               104545               170213BD     1400+00000+BD0000017542+0000017542+000000000+000002456+0000019990+0000000008+I20000000000+0000019990+Z
104545001104545567-011305     104545009781928231240BOOK RELIGIOUS AFR     0000001000+00017542+00000+0001T   00017542+0000001555          1400 S50757               1AZ
104546000104546               104546               170213BD     1400+00000+BD0000002630+0000002630+000000000+000000369+0000002990+0000000009+I20000000000+0000002990+Z
104546001104546024-091102-B   104546006003000111725BAKING-CUP MUFFIN 40PCE0000001000+00002630+00000+0001T   00002630+0000001555          1400 S50300               1AZ
104547000104547               104547               170213BD     1400+00000+BD0000001926+0000001926+000000000+000000271+0000002190+0000000007+I20000000000+0000002190+Z
104547001104547077-000011-D   104547006001023808554TISSUE-WRAP WHITE 10PCE0000001000+00000876+00000+0001T   00000876+0000001556          1400 S50112               1AZ
104547002104547077-000311     104547006001023608666GIFT-BAG 11X14CM GLOSS 0000001000+00000613+00000+0001T   00000613+0000001556          1400 S50112               1AZ
104547003104547080-000133-A   104547006003000647019MINI VALENTINES CARD   0000001000+00000437+00000+0001T   00000437+0000001556          1400 S50112               1AZ
104548000104548               104548               170213BD     1400+00000+BD0000000613+0000000613+000000000+000000086+0000000690+0000000009+I20000000000+0000000690+Z
104548001104548077-000321     104548006001023677501GIFT-BAG 11X14CM E/D FL0000001000+00000613+00000+0001T   00000613+0000001616          1400 S50112               1AZ
104549000104549               104549               170213BD     1400+00000+BD0000002537+0000002537+000000000+000000356+0000002893+0000000000+I40000002893+0000000000+Z
104549001104549261-000121     104549006001023341600GUN-CAPS 8-SHOT CARD-9 0000002000+00000700+00000+0001T   00000700+0000001620          1400 S50710               1AZ
104549002104549018-000177     104549006001023797513MUG MINI LOVE ASSTD    0000001000+00000700+00000+0001T   00000700+0000001620          1400 S50515               1AZ
104549003104549080-000133-A   104549006003000647019MINI VALENTINES CARD   0000001000+00000437+00000+0001T   00000437+0000001620          1400 S50112               1AZ
104550000104550               104550               170213BD     1400+00000+BD0000001578+0000001578+000000000+000000221+0000001790+0000000009+I20000000000+0000001790+Z
104550001104550018-000127     104550006001023380289MUG OCC STRAIGHT LOVE  0000001000+00001578+00000+0001T   00001753+0006471620          1400 S50515               1AZ
104551000104551               104551               170213BD     1400+00000+BD0000001576+0000001576+000000000+000000222+0000001790+0000000008+I20000000000+0000001790+Z
104551001104551077-000010-C   104551006001023123879CREPE-PAPER RED        0000002000+00000788+00000+0001T   00000788+0000001621          1400 S50112               1AZ
104552000104552               104552               170213BD     1400+00000+BD0000006254+0000006254+000000000+000000879+0000007130+0000000003+I20000000000+0000007130+Z
104552001104552903-000918     104552006009802868522SWEET GUM TAPE H/KITTY 0000001000+00001753+00000+0001T   00001753+0000001622          1400 S50150               1AZ
104552002104552565-000071     104552006003000643387NOVELTY WIND UP CHATTER0000001000+00001139+00000+0001T   00001139+0000001622          1400 S50745               1AZ
104552003104552903-000099     104552006923431501646SWT CANDY GS WTCH B/LET0000002000+00000262+00000+0001T   00000262+0000001622          1400 S50150               1AZ
104552004104552903-000077     104552006939873501687SWT GS MAGIC ROCK FRUIT0000002000+00000525+00000+0001T   00000525+0000001622          1400 S50150               1AZ
104552005104552362-000299     104552006003000654758HAIR CLIPS METAL WORDS 0000001000+00001753+00000+0001T   00001753+0000001622          1400 S50160               1AZ
104552006104552112-116038     104552006009681820246TCS CARRIER BAG MIDI   0000001000+00000035+00000+0001T   00000035+0000001622          1400 S50090               1AZ
104553000104553               104553               170213BD     1400+00000+BD0000005169+0000005169+000000000+000000724+0000005890+0000000003+I20000000000+0000005890+Z
104553001104553077-000245     104553006001023759214GIFT-RIBBON METALLICx2 0000001000+00001227+00000+0001T   00001227+0000001625          1400 S50112               1AZ
104553002104553006-000166-C   104553006003000516377BALLOONS LRG 6PC PINK  0000001000+00001314+00000+0001T   00001314+0000001625          1400 S50131               1AZ
104553003104553006-000166-D   104553006003000516490BALLOONS LRG 6PC RED   0000002000+00001314+00000+0001T   00001314+0000001625          1400 S50131               1AZ
104554000104554               104554               170213BD     1400+00000+BD0000001753+0000001753+000000000+000000246+0000001990+0000000009+I20000000000+0000001990+Z
104554001104554030-083577     104554006003000632152THERMOMETER MAGNETIC   0000001000+00001753+00000+0001T   00001753+0000001625          1400 S50505               1AZ
104555000104555               104555               170213BD     1400+00000+BD0000018327+0000018327+000000000+000002568+0000020895+0000000000+I40000020895+0000000000+Z
104555001104555903-000499     104555006001704012492SWT CHOC MALLOWS 50g   0000001000+00001227+00000+0001T   00001227+0000001626          1400 S50150               1AZ
104555002104555903-004950     104555006002580020304SWT APRICOT SURPRISE   0000001000+00001314+00000+0001T   00001314+0000001626          1400 S50150               1AZ
104555003104555024-000117     104555006001023504210N/STICK CAKE PAN 22.5x50000002000+00007893+00000+0001T   00007893+0000001626          1400 S50300               1AZ
104556000104556               104556               170213BD     1400+00000+BD0000000437+0000000437+000000000+000000062+0000000490+0000000009+I20000000000+0000000490+Z
104556001104556080-000133-A   104556006003000647019MINI VALENTINES CARD   0000001000+00000437+00000+0001T   00000437+0000001627          1400 S50112               1AZ
104557000104557               104557               170213BD     1400+00000+BD0000015820+0000015820+000000000+000002215+0000018035+0000000000+I40000018035+0000000000+Z
104557001104557261-003906     104557006003000472376RIFLE 57cm +ACCESS 8PCE0000001000+00008771+00000+0001T   00008771+0000001629          1400 S50710               1AZ
104557002104557018-000136     104557006001023659026MUG OCC LOVE W/PLUSH   0000002000+00003507+00000+0001T   00003507+0000001629          1400 S50515               1AZ
104557003104557112-116038     104557006009681820246TCS CARRIER BAG MIDI   0000001000+00000035+00000+0001T   00000035+0000001629          1400 S50090               1AZ
104558000104558               104558               170213BD     1400+00000+BD0000009908+0000009908+000000000+000001388+0000011296+0000000000+I40000011296+0000000000+Z
104558001104558560-000700     104558006001023865830GROWING ANIMALS ASSTD  0000002000+00001578+00000+0001T   00001578+0000001637          1400 S50745               1AZ
104558002104558366-002811     104558006003000615650DRESS UP ACCESS RIBBON 0000001000+00005262+00000+0001T   00005262+0000001637          1400 S50131               1AZ
104558003104558077-000327     104558006001023677686GIFT-BAG 25X32CM E/D BA0000001000+00001490+00000+0001T   00001490+0000001637          1400 S50112               1AZ
104559000104559               104559               170213BD     1400+00000+BD0000024159+0000024159+000000000+000003387+0000027546+0000000000+I40000027546+0000000000+Z
104559001104559206-000210     104559006003000631582TOOTHPICK HOLDER FLOWER0000001000+00003069+00000+0001T   00003069+0000001639          1400 S50321               1AZ
104559002104559002-220004     104559006001023467614F/COVER HEXAGONAL 70cm 0000003000+00003069+00000+0001T   00003069+0000001639          1400 S50300               1AZ
104559003104559019-071595     104559006001023756428PEBBLES 250g SKY-BLUE  0000001000+00001753+00000+0001T   00001753+0000001639          1400 S50510               1AZ
104559004104559019-071597     104559006008766071597PEBBLES 250g CLEAR  BAG0000001000+00002192+00000+0001T   00002192+0000001639          1400 S50510               1AZ
104559005104559006-000203-A   104559006003453010965SNACK BOX 6PCE ASSTD   0000001000+00002630+00000+0001T   00002630+0000001639          1400 S50131               1AZ
104559006104559112-116069     104559006009681820277TCS CARRIER BAG JUMBO  0000001000+00000048+00000+0001T   00000048+0000001639          1400 S50090               1AZ
104559007104559006-000191-2   104559006003000685899BALLOONS SILVER NR 2   0000001000+00002630+00000+0001T   00002630+0000001639          1400 S50131               1AZ
104559008104559006-000191-1   104559006003000685776BALLOONS FOIL SILV NR 10000001000+00002630+00000+0001T   00002630+0000001639          1400 S50131               1AZ
104560000104560               104560               170213BD     1400+00000+BD0000008819+0000008819+000000000+000001235+0000010050+0000000004+I20000000000+0000010050+Z
104560001104560368-000614     104560006001023705808PLUSH LOVE 30cm        0000001000+00008771+00000+0001T   00008771+0000001640          1400 S50745               1AZ
104560002104560112-116069     104560006009681820277TCS CARRIER BAG JUMBO  0000001000+00000048+00000+0001T   00000048+0000001640          1400 S50090               1AZ
104561000104561               104561               170213BD     1400+00000+BD0000021951+0000021951+000000000+000003077+0000025028+0000000000+I40000025028+0000000000+Z
104561001104561112-116038     104561006009681820246TCS CARRIER BAG MIDI   0000001000+00000035+00000+0001T   00000035+0000001642          1400 S50090               1AZ
104561002104561007-000029     104561006003000577736PRICE FLASH 17x11cm    0000004000+00001753+00000+0001T   00001753+0000001642          1400 S50130               1AZ
104561003104561566-000068     104561006003000418046POP UP LOVE 2 ASSTD    0000005000+00002192+00000+0001T   00002192+0000001642          1400 S50130               1AZ
104561004104561077-000918     104561006003000413690G/WRAP 700mmx2m PATTERN0000001000+00002192+00000+0001T   00002192+0000001642          1400 S50112               1AZ
104561005104561071-001019     104561006001023474513MARKER BLACK NAME-PEN  0000002000+00000876+00000+0001T   00000876+0000001642          1400 S50130               1AZ
104562000104562               104562               170213BD     1400+00000+BD0000006840+0000006840+000000000+000000958+0000007798+0000000000+I40000007798+0000000000+Z
104562001104562028-000799     104562006001023812186SKEWERS BAMBOO 100PCE  0000001000+00001578+00000+0001T   00001578+0000001644          1400 S50305               1AZ
104562002104562006-000098     104562006003000601325PARTY PHOTO BOOTH 20PC 0000001000+00005262+00000+0001T   00005262+0000001644          1400 S50131               1AZ
104563000104563               104563               170213BD     1400+00000+BD0000000788+0000000788+000000000+000000111+0000000890+0000000009+I20000000000+0000000890+Z
104563001104563077-000010-C   104563006001023123879CREPE-PAPER RED        0000001000+00000788+00000+0001T   00000788+0000001647          1400 S50112               1AZ
104564000104564               104564               170213BD     1400+00000+BD0000007048+0000007048+000000000+000000987+0000008035+0000000000+I40000008035+0000000000+Z
104564001104564077-000310     104564006001023608635GIFT-BAG 18X23CM GLOSS 0000001000+00001314+00000+0001T   00001314+0000001648          1400 S50112               1AZ
104564002104564077-000312     104564006001023608697GIFT-BAG 10X35CM GLOSS 0000001000+00001314+00000+0001T   00001314+0000001648          1400 S50112               1AZ
104564003104564001-000175     104564006001023788108B/MUG GLS LOVE 380ML   0000001000+00004385+00000+0001T   00004385+0000001648          1400 S50515               1AZ
104564004104564112-116038     104564006009681820246TCS CARRIER BAG MIDI   0000001000+00000035+00000+0001T   00000035+0000001648          1400 S50090               1AZ
104565000104565               104565               170213BD     1400+00000+BD0000001314+0000001314+000000000+000000184+0000001490+0000000008+I20000000000+0000001490+Z
104565001104565077-000407     104565006003000145096G/BAG PP 19X26X8CM     0000001000+00001314+00000+0001T   00001314+0000001653          1400 S50112               1AZ
104566000104566               104566               170213BD     1400+00000+BD0000003542+0000003542+000000000+000000496+0000004038+0000000000+I40000004038+0000000000+Z
104566001104566033-000601     104566006003000365210HAIR-BRUSH 24CM BLK&WHT0000001000+00003507+00000+0001T   00003507+0000001707          1400 S50200               1AZ
104566002104566112-116038     104566006009681820246TCS CARRIER BAG MIDI   0000001000+00000035+00000+0001T   00000035+0000001707          1400 S50090               1AZ
104567000104567               104567               170213BD     1400+00000+BD0000009645+0000009645+000000000+000001351+0000010990+0000000006+I20000000000+0000010990+Z
104567001104567567-011489     104567006003000663330BK COLOURING 96P PONY  0000001000+00003507+00000+0001T   00003507+0000001708          1400 S50757               1AZ
104567002104567368-000001     104567006003000097982Plush Bear 25cm        0000001000+00004385+00000+0001T   00004385+0000001708          1400 S50745               1AZ
104567003104567077-000316     104567006001023609731GIFT-BAG 25X32CM MATT  0000001000+00001753+00000+0001T   00001753+0000001708          1400 S50112               1AZ
104568000104568               104568               170213BD     1400+00000+BD0000002192+0000002192+000000000+000000307+0000002490+0000000009+I20000000000+0000002490+Z
104568001104568016-006517     104568006003000351626S/JAR GLS CHECK 650ML  0000001000+00002192+00000+0001T   00002192+0000001709          1400 S50300               1AZ
C10454300                                          170213BD080-000124     15531172SLAVE 1     S502IC0000000000+0000000000+0020000001000+
M17021391                              CASH        BDSLAVE 1                       Z-REPORT No.   630TOTAL (Sales - Refunds)           6764.99       CASH TO BE BANKED                 3178.80       DEBIT CARDS                       3586.19       CREDIT CARDS                         0.00       Z-READING                         6764.99       AIRTIME DEBIT CARD SALES             0.00       AIRTIME CARD SALES                   0.00       OVERS/UNDERS                         0.00       AIRTIME CASH SALES                   0.00       GIFT CARDS                           0.00       GIFT CARD CASH SALES                 0.00       T O T A L  CASH PAYOUTS              0.00                                                                                                                                                                                                                                                                                                                                                      Z
M17021392                              CASH        BDABSENT                                                                                                                                                                                          ANNUAL LEAVE                                                                                                                                                                                    DAY OFF                                                                                                                                                                                         COMMENTS                                                                                                                                                                                                                                                                                                                                                                                       Z
Y17021300                                          BD00000000593725+000087
ZBD17021319193 SLAVE 1      SALES DATA                     NEXT INVOICE NO.  104569 0630
X BD Slave 1 First invoice 104482 170213 Last invoice 104568 170213 Next invoice 104569 Total number of records 000000307 clbackup completed 19:19:54
