114919000114919               114919               170213BD     1400+00000+BD0000010997+0000010997+000000000+000001541+0000012530+0000000008+I20000000000+0000012530+Z
114919001114919301-000817     114919006001023856319 ORN FAIRY WINGS 24CM  0000001000+00007893+00000+0001T   00007893+0000000944          1400 HT2505               2BZ
114919002114919301-002030     114919006001023861030ORN WATERBALL DOLPHINS 0000001000+00003069+00000+0001T   00003069+0000000944          1400 HT2505               2BZ
114919003114919112-116038     114919006009681820246TCS CARRIER BAG MIDI   0000001000+00000035+00000+0001T   00000035+0000000944          1400 HT2090               2BZ
114920000114920               114920               170213BD     1400+00000+BD0000001578+0000001578+000000000+000000221+0000001790+0000000009+I20000000000+0000001790+Z
114920001114920080-000124     114920006003000297733CARD & ENV VALENTINES  0000001000+00001578+00000+0001T   00001578+0000000947          1400 HT2112               2BZ
114921000114921               114921               170213BD     1400+00000+BD0000006139+0000006139+000000000+000000860+0000006990+0000000009+I20000000000+0000006990+Z
114921001114921264-000922     114921000090159250012MAISTO CAR PULL-BACK   0000001000+00006139+00000+0001T   00007016+0008191018          1400 HT2710               2BZ
114922000114922               114922               170213BD     1400+00000+BD0000002630+0000002630+000000000+000000369+0000002990+0000000009+I20000000000+0000002990+Z
114922001114922306-001125-A   114922006003000359127FIRSTAID SUPPORT KNEE  0000001000+00002630+00000+0001T   00002630+0000001022          1400 HT2200               2BZ
114923000114923               114923               170213BD     1400+00000+BD0000000035+0000000035+000000000+000000005+0000000040+0000000000+I20000000000+0000000040+Z
114923001114923112-116038     114923006009681820246TCS CARRIER BAG MIDI   0000001000+00000035+00000+0001T   00000035+0000001023          1400 HT2090               2BZ
114924000114924               114924               170213BD     1400+00000+BD0000007893+0000007893+000000000+000001106+0000008990+0000000009+I20000000000+0000008990+Z
114924001114924082-000127     114924006003000646630READING GLASS TWIN 3   0000001000+00007893+00000+0001T   00007893+0000001026          1400 HT2160               2BZ
114925000114925               114925               170213BD     1400+00000+BD0000015287+0000015287+000000000+000002143+0000017430+0000000000+I40000017430+0000000000+Z
114925001114925079-000341     114925006920705495519FELT-TIP PENS 12PCE    0000002000+00001753+00000+0001T   00001753+0000001041          1400 HT2130               2BZ
114925002114925046-000012-VP  114925006003000537914BATTERIES H/P SIZE:AA  0000001000+00004823+00000+0001T   00004823+0000001041          1400 HT2312               2BZ
114925003114925566-002000     114925000721129013206STICKERS CRYSTAL ASSTD 0000002000+00000700+00000+0001T   00000700+0000001041          1400 HT2130               2BZ
114925004114925566-001234     114925006003000217793STICKERS LASER ASSTD   0000001000+00001578+00000+0001T   00001578+0000001041          1400 HT2130               2BZ
114925005114925566-000950     114925006003000216048STICKERS 3 STYLES 100PC0000001000+00002192+00000+0001T   00002192+0000001041          1400 HT2130               2BZ
114925006114925566-000865     114925006001023788412STICKER ASSTD          0000001000+00001753+00000+0001T   00001753+0000001041          1400 HT2130               2BZ
114925007114925112-116038     114925006009681820246TCS CARRIER BAG MIDI   0000001000+00000035+00000+0001T   00000035+0000001041          1400 HT2090               2BZ
114926000114926               114926               170213BD     1400+00000+BD0000021746+0000021746+000000000+000003045+0000024791+0000000000+I40000024791+0000000000+Z
114926001114926105-001078     114926000700371637750CONTAINER 1,1L CLIP LOC0000004000+00001928+00000+0001T   00001928+0000001247          1400 HT2210               2BZ
114926002114926105-009017     114926006003000582273STORAGE BOX FROSTED 55L0000001000+00014034+00000+0001T   00014034+0000001247          1400 HT2210               2BZ
114927000114927               114927               170213BD     1400+00000+BD0000009200+0000009200+000000000+000001289+0000010489+0000000000+I40000010489+0000000000+Z
114927001114927006-000166-D   114927006003000516490BALLOONS LRG 6PC RED   0000005000+00001314+00000+0001T   00001314+0000001257          1400 HT2131               2BZ
114927002114927206-000350     114927006003000633265EGG MOULD SUNRISE      0000001000+00002630+00000+0001T   00002630+0000001257          1400 HT2321               2BZ
114928000114928               114928               170213BD     1400+00000+BD0000035329+0000035329+000000000+000004955+0000040284+0000000000+I40000040284+0000000000+Z
114928001114928362-003004     114928006003000294961HAIR CLIPS             0000001000+00001753+00000+0001T   00001753+0000001300          1400 HT2160               2BZ
114928002114928079-009702-D   114928008427973059354PAPER SIRIO A2 RED COL 0000002000+00001051+00000+0001T   00001051+0000001300          1400 HT2130               2BZ
114928003114928566-000367     114928006003000645558STICKER WINDOW DECOR   0000001000+00002630+00000+0001T   00002630+0000001300          1400 HT2130               2BZ
114928004114928075-000419     114928006003000675746BAG SHOPPER NON-WOVEN  0000002000+00002630+00000+0001T   00002630+0000001300          1400 HT2160               2BZ
114928005114928028-000904     114928006001023778949SKEWERS ESPETADA STICKS0000001000+00001753+00000+0001T   00001753+0000001300          1400 HT2305               2BZ
114928006114928496-055501     114928000078257555017INTEX FUN RINGS        0000001000+00005262+00000+0001T   00005262+0000001300          1400 HT2787               2BZ
114928007114928072-020352     114928006003000561667DOG/CAT BOWL PL 19cm   0000001000+00003069+00000+0001T   00003069+0000001300          1400 HT2870               2BZ
114928008114928200-000025-A   114928006925406841054BAG ZIPPERSEAL 15PC    0000001000+00002192+00000+0001T   00002192+0000001300          1400 HT2214               2BZ
114928009114928078-000026     114928006936198407090SUPERGLUE 3,0g GEL     0000001000+00001753+00000+0001T   00001753+0000001300          1400 HT2810               2BZ
114928010114928077-000383     114928006003000247943GIFT-BAG 11X14CM S/COL 0000002000+00000788+00000+0001T   00000788+0000001300          1400 HT2112               2BZ
114928011114928071-081091     114928006001151010287STAED/GENKEM ALL-STICK 0000001000+00001227+00000+0001T   00001227+0000001300          1400 HT2130               2BZ
114928012114928200-000065     114928006001023323675DRINKING-STRAWS 38PCE  0000001000+00000613+00000+0001T   00000613+0000001300          1400 HT2214               2BZ
114928013114928072-000160     114928006003000094233PET DOG SHIRT GIRL SML 0000001000+00006139+00000+0001T   00006139+0000001300          1400 HT2870               2BZ
114929000114929               114929               170213BD     1400+00000+BD0000008802+0000008802+000000000+000001233+0000010030+0000000005+I20000000000+0000010030+Z
114929001114929162-093138     114929006001492931388#TAG BROWN SHIMMER DROP0000001000+00003507+00000+0001T   00003507+0000001301          1400 HT2160               2BZ
114929002114929563-000317-K   114929006003000697885SERVIETTE 2PLY 33cm    0000001000+00001753+00000+0001T   00001753+0000001301          1400 HT2214               2BZ
114929003114929004-071267     114929006001023907875LCD CLEANING KIT+CLOTH 0000001000+00003507+00000+0001T   00003507+0000001301          1400 HT2310               2BZ
114929004114929112-116038     114929006009681820246TCS CARRIER BAG MIDI   0000001000+00000035+00000+0001T   00000035+0000001301          1400 HT2090               2BZ
114930000114930               114930               170213BD     1400+00000+BD0000005297+0000005297+000000000+000000742+0000006039+0000000000+I40000006039+0000000000+Z
114930001114930133-000083     114930006003000450510DISH DRAINING MAT      0000001000+00005262+00000+0001T   00005262+0000001308          1400 HT2212               2BZ
114930002114930112-116038     114930006009681820246TCS CARRIER BAG MIDI   0000001000+00000035+00000+0001T   00000035+0000001308          1400 HT2090               2BZ
114931000114931               114931               170213BD     1400+00000+BD0000005558+0000005558+000000000+000000780+0000006330+0000000008+I20000000000+0000006330+Z
114931001114931036-000151     114931006001023810588COATHANGERS    PACK-10 0000001000+00002893+00000+0001T   00002893+0000001311          1400 HT2212               2BZ
114931002114931027-009025     114931006003962000747DUSTPAN-SET PL         0000001000+00002630+00000+0001T   00002630+0000001311          1400 HT2212               2BZ
114931003114931112-116038     114931006009681820246TCS CARRIER BAG MIDI   0000001000+00000035+00000+0001T   00000035+0000001311          1400 HT2090               2BZ
114932000114932               114932               170213BD     1400+00000+BD0000001753+0000001753+000000000+000000246+0000001990+0000000009+I20000000000+0000001990+Z
114932001114932251-000073     114932006003000452132PROTECTION-PADS BLK ADH0000001000+00001753+00000+0001T   00001753+0000001313          1400 HT2810               2BZ
114933000114933               114933               170213BD     1400+00000+BD0000005306+0000005306+000000000+000000745+0000006050+0000000001+I20000000000+0000006050+Z
114933001114933007-000205     114933006002324000432FILE BINDER 2-RING A4  0000002000+00001753+00000+0001T   00001753+0000001328          1400 HT2130               2BZ
114933002114933007-000045     114933006009608640438DISPLAY-POCKETS A4 10PC0000002000+00000876+00000+0001T   00000876+0000001328          1400 HT2130               2BZ
114933003114933112-116069     114933006009681820277TCS CARRIER BAG JUMBO  0000001000+00000048+00000+0001T   00000048+0000001328          1400 HT2090               2BZ
114934000114934               114934               170213BD     1400+00000+BD0000004822+0000004822+000000000+000000676+0000005498+0000000000+I40000005498+0000000000+Z
114934001114934031-005918     114934006003000580453P/FRAME PL PLAIN 10X15 0000001000+00002630+00000+0001T   00002630+0000001334          1400 HT2510               2BZ
114934002114934031-000868-A   114934006001023798534P/FRAME PL BLCK 10X15CM0000001000+00002192+00000+0001T   00002192+0000001334          1400 HT2510               2BZ
114935000114935               114935               170213BD     1400+00000+BD0000008366+0000008366+000000000+000001172+0000009530+0000000008+I20000000000+0000009530+Z
114935001114935018-050000     114935006003000412679MUG OCC LOVE TWIN BEAR 0000001000+00006139+00000+0001T   00006139+0000001335          1400 HT2515               2BZ
114935002114935080-000127     114935006003000424351VALENTINES DAY 36x24CM 0000001000+00002192+00000+0001T   00002192+0000001335          1400 HT2112               2BZ
114935003114935112-116038     114935006009681820246TCS CARRIER BAG MIDI   0000001000+00000035+00000+0001T   00000035+0000001335          1400 HT2090               2BZ
114936000114936               114936               170213BD     1400+00000+BD0000007892+0000007892+000000000+000001106+0000008990+0000000008+I20000000000+0000008990+Z
114936001114936039-082106     114936006001023847348C/VOTIVE 8PC VANILLA   0000001000+00005262+00000+0001T   00005262+0000001336          1400 HT2510               2BZ
114936002114936039-809470     114936006003000292325C/SET 5PC (3HLDR+INSEN)0000001000+00002630+00000+0001T   00002630+0000001336          1400 HT2510               2BZ
114937000114937               114937               170213BD     1400+00000+BD0000001227+0000001227+000000000+000000172+0000001390+0000000009+I20000000000+0000001390+Z
114937001114937077-000602     114937006003000395545GIFT-BAG MED 18X23CM   0000001000+00001227+00000+0001T   00001227+0000001341          1400 HT2112               2BZ
114938000114938               114938               170213BD     1400+00000+BD0000003946+0000003946+000000000+000000553+0000004490+0000000009+I20000000000+0000004490+Z
114938001114938024-000018     114938006001023610232CAKE-DEC S/S NOZZLE    0000001000+00003946+00000+0001T   00003946+0000001343          1400 HT2300               2BZ
114939000114939               114939               170213BD     1400+00000+BD0000002803+0000002803+000000000+000000393+0000003196+0000000000+I40000003196+0000000000+Z
114939001114939083-000055     114939006003000003853LIGHTER ELCTRNC REFILBL0000001000+00000613+00000+0001T   00000613+0000001348          1400 HT2315               2BZ
114939002114939903-000844     114939005010478432567SWT CANDY DL LUV HEARTS0000001000+00001314+00000+0001T   00001314+0000001348          1400 HT2150               2BZ
114939003114939083-000295     114939006001023898562LIGHTER-GAS BUTANE 18ml0000001000+00000876+00000+0001T   00000876+0000001348          1400 HT2315               2BZ
114940000114940               114940               170213BD     1400+00000+BD0000002192+0000002192+000000000+000000307+0000002490+0000000009+I20000000000+0000002490+Z
114940001114940158-008936     114940006001023653758PAPER-TOWEL-HOLDER FLWR0000001000+00002192+00000+0001T   00002192+0000001351          1400 HT2300               2BZ
114941000114941               114941               170213BD     1400+00000+BD0000001490+0000001490+000000000+000000209+0000001690+0000000009+I20000000000+0000001690+Z
114941001114941002-021064     114941006001023822246TOOTHPICKS IN-HOLDER   0000001000+00001490+00000+0001T   00001490+0000001352          1400 HT2300               2BZ
114942000114942               114942               170213BD     1400+00000+BD0000008042+0000008042+000000000+000001133+0000009175+0000000000+I40000009175+0000000000+Z
114942001114942006-000166-C   114942006003000516377BALLOONS LRG 6PC PINK  0000002000+00001314+00000+0001T   00001314+0000001430          1400 HT2131               2BZ
114942002114942006-000166-D   114942006003000516490BALLOONS LRG 6PC RED   0000002000+00001314+00000+0001T   00001314+0000001430          1400 HT2131               2BZ
114942003114942903-000183     114942006003000451043SWT LB HEART LOLLY     0000007000+00000393+00000+0001T   00000393+0000001430          1400 HT2150               2BZ
114942004114942112-116038     114942006009681820246TCS CARRIER BAG MIDI   0000001000+00000035+00000+0001T   00000035+0000001430          1400 HT2090               2BZ
114943000114943               114943               170213BD     1400+00000+BD0000015777+0000015777+000000000+000002214+0000017990+0000000001+I20000000000+0000017990+Z
114943001114943077-000299-A   114943006003000670888GIFT-BAG PAPER JMB LOVE0000009000+00001753+00000+0001T   00001753+0000001431          1400 HT2112               2BZ
114944000114944               114944               170213BD     1400+00000+BD0000001576+0000001576+000000000+000000222+0000001790+0000000008+I20000000000+0000001790+Z
114944001114944077-000383     114944006003000247943GIFT-BAG 11X14CM S/COL 0000001000+00000788+00000+0001T   00000788+0000001449          1400 HT2112               2BZ
114944002114944903-000889     114944006009702259192SWT GUM BEECHIES S/MINT0000001000+00000788+00000+0001T   00000788+0000001449          1400 HT2150               2BZ
114945000114945               114945               170213BD     1400+00000+BD0000002192+0000002192+000000000+000000307+0000002490+0000000009+I20000000000+0000002490+Z
114945001114945018-000170     114945006001023775528MUG OCC. LOVE 2PC MINI 0000001000+00002192+00000+0001T   00002192+0000001450          1400 HT2515               2BZ
114946000114946               114946               170213BD     1400+00000+BD0000018102+0000018102+000000000+000002535+0000020637+0000000000+I40000020637+0000000000+Z
114946001114946039-000799     114946006001023692382CANDLES TEALITE 100PCE 0000002000+00008771+00000+0001T   00008771+0000001453          1400 HT2510               2BZ
114946002114946903-000077     114946006939873501687SWT GS MAGIC ROCK FRUIT0000001000+00000525+00000+0001T   00000525+0000001453          1400 HT2150               2BZ
114946003114946112-116038     114946006009681820246TCS CARRIER BAG MIDI   0000001000+00000035+00000+0001T   00000035+0000001453          1400 HT2090               2BZ
114947000114947               114947               170213BD     1400+00000+BD0000003542+0000003542+000000000+000000496+0000004038+0000000000+I40000004038+0000000000+Z
114947001114947018-000136     114947006001023659026MUG OCC LOVE W/PLUSH   0000001000+00003507+00000+0001T   00003507+0000001523          1400 HT2515               2BZ
114947002114947112-116038     114947006009681820246TCS CARRIER BAG MIDI   0000001000+00000035+00000+0001T   00000035+0000001523          1400 HT2090               2BZ
114948000114948               114948               170213BD     1400+00000+BD0000023022+0000023022+000000000+000003225+0000026247+0000000000+I40000026247+0000000000+Z
114948001114948028-000030     114948006001023810908COOLER-BAG 6PACK       0000001000+00004385+00000+0001T   00004385+0000001533          1400 HT2305               2BZ
114948002114948362-004000     114948000613153000225DISNEY T/BELL TRINKETS 0000001000+00000700+00000+0001T   00000876+0008181533          1400 HT2160               2BZ
114948003114948079-011526     114948006003000408375GLITTER & SAND ART     0000001000+00003507+00000+0001T   00003507+0000001533          1400 HT2130               2BZ
114948004114948077-000327     114948006001023677686GIFT-BAG 25X32CM E/D BA0000001000+00001490+00000+0001T   00001490+0000001533          1400 HT2112               2BZ
114948005114948486-002320     114948006003000290932W/CLOCK QTZ PL W/LIFE  0000001000+00011402+00000+0001T   00011402+0000001533          1400 HT2510               2BZ
114948006114948112-116069     114948006009681820277TCS CARRIER BAG JUMBO  0000001000+00000048+00000+0001T   00000048+0000001533          1400 HT2090               2BZ
114948007114948077-000299     114948006003000395576G/BAG 32x25cm LRG LOVE 0000001000+00001490+00000+0001T   00001490+0000001533          1400 HT2112               2BZ
114949000114949               114949               170213BD     1400+00000+BD0000006873+0000006873+000000000+000000964+0000007830+0000000007+I20000000000+0000007830+Z
114949001114949369-001137-B   114949006003000626373BABY BATH VINYL DUCK   0000001000+00001578+00000+0001T   00001578+0000001605          1400 HT2745               2BZ
114949002114949105-001300     114949006003000572618CONTAINER COLOUR RIM   0000002000+00002630+00000+0001T   00002630+0000001605          1400 HT2210               2BZ
114949003114949112-116038     114949006009681820246TCS CARRIER BAG MIDI   0000001000+00000035+00000+0001T   00000035+0000001605          1400 HT2090               2BZ
114950000114950               114950               170213BD     1400+00000+BD0000003069+0000003069+000000000+000000430+0000003490+0000000009+I20000000000+0000003490+Z
114950001114950174-008026     114950006009654960429TRAVEL BOTTLES 2-PACK  0000001000+00003069+00000+0001T   00003069+0000001607          1400 HT2205               2BZ
114951000114951               114951               170213BD     1400+00000+BD0000008622+0000008622+000000000+000001209+0000009830+0000000001+I20000000000+0000009830+Z
114951001114951080-000133-A   114951006003000647019MINI VALENTINES CARD   0000001000+00000437+00000+0001T   00000437+0000001612          1400 HT2112               2BZ
114951002114951031-005853     114951006003000442416P/FRAME WDN TWIN HEARTS0000001000+00003507+00000+0001T   00003507+0000001612          1400 HT2510               2BZ
114951003114951077-000310     114951006001023608635GIFT-BAG 18X23CM GLOSS 0000001000+00001314+00000+0001T   00001314+0000001612          1400 HT2112               2BZ
114951004114951080-000133-A   114951006003000647019MINI VALENTINES CARD   0000001000+00000437+00000+0001T   00000437+0000001612          1400 HT2112               2BZ
114951005114951018-000127     114951006001023380289MUG OCC STRAIGHT LOVE  0000001000+00001578+00000+0001T   00001753+0006471612          1400 HT2515               2BZ
114951006114951903-000194     114951006009826020616SWT CHOC RP LOLLY 25G  0000001000+00001314+00000+0001T   00001314+0000001612          1400 HT2150               2BZ
114951007114951112-116038     114951006009681820246TCS CARRIER BAG MIDI   0000001000+00000035+00000+0001T   00000035+0000001612          1400 HT2090               2BZ
114952000114952               114952               170213BD     1400+00000+BD0000002630+0000002630+000000000+000000369+0000002990+0000000009+I20000000000+0000002990+Z
114952001114952024-091102-B   114952006003000111725BAKING-CUP MUFFIN 40PCE0000001000+00002630+00000+0001T   00002630+0000001700          1400 HT2300               2BZ
114953000114953               114953               170213BD     1400+00000+BD0000002014+0000002014+000000000+000000282+0000002290+0000000006+I20000000000+0000002290+Z
114953001114953088-000103     114953006008766127102INCENSE 20PCE ASSTD    0000001000+00000700+00000+0001T   00000700+0000001711          1400 HT2212               2BZ
114953002114953039-082021     114953006001023816320C/SET 3PC GLS CUP      0000001000+00001314+00000+0001T   00001753+0008171711          1400 HT2510               2BZ
114954000114954               114954               170213BD     1400+00000+BD0000003507+0000003507+000000000+000000491+0000003990+0000000008+I20000000000+0000003990+Z
114954001114954018-000136     114954006001023659026MUG OCC LOVE W/PLUSH   0000001000+00003507+00000+0001T   00003507+0000001712          1400 HT2515               2BZ
114955000114955               114955               170213BD     1400+00000+BD0000000437+0000000437+000000000+000000062+0000000490+0000000009+I20000000000+0000000490+Z
114955001114955080-000133-A   114955006003000647019MINI VALENTINES CARD   0000001000+00000437+00000+0001T   00000437+0000001713          1400 HT2112               2BZ
114956000114956               114956               170213BD     1400+00000+BD0000001490+0000001490+000000000+000000209+0000001690+0000000009+I20000000000+0000001690+Z
114956001114956077-000299     114956006003000395576G/BAG 32x25cm LRG LOVE 0000001000+00001490+00000+0001T   00001490+0000001721          1400 HT2112               2BZ
114957000114957               114957               170213BD     1400+00000+BD0000002628+0000002628+000000000+000000368+0000002990+0000000006+I20000000000+0000002990+Z
114957001114957903-000194     114957006009826020616SWT CHOC RP LOLLY 25G  0000002000+00001314+00000+0001T   00001314+0000001722          1400 HT2150               2BZ
114958000114958               114958               170213BD     1400+00000+BD0000001578+0000001578+000000000+000000221+0000001790+0000000009+I20000000000+0000001790+Z
114958001114958077-000348     114958006001023483287GIFT-BOWS 4,5cm 8PCE   0000001000+00001578+00000+0001T   00001578+0000001728          1400 HT2112               2BZ
114959000114959               114959               170213BD     1400+00000+BD0000001753+0000001753+000000000+000000246+0000001990+0000000009+I20000000000+0000001990+Z
114959001114959200-003024     114959006001023657299REFUSE BAGS 20PCE BLACK0000001000+00001753+00000+0001T   00001753+0000001729          1400 HT2214               2BZ
114960000114960               114960               170213BD     1400+00000+BD0000001745-0000001745-000000000+000000245-0000001990-0000000000+I20000000000+0000001990-Z
114960001114960001-999907     114960000000000999907CLEANING-MATERIALS     0000001000-00001745+00000+0001T   00000000+0000001730          1400 HT29072IC            2 Z
114961000114961               114961               170213BD     1400+00000+BD0000003069+0000003069+000000000+000000430+0000003499+0000000000+I40000003499+0000000000+Z
114961001114961089-060027     114961006003000245871KEY-CHAIN HEART 6X6cm  0000001000+00003069+00000+0001T   00003069+0000001734          1400 HT2205               2BZ
114962000114962               114962               170213BD     1400+00000+BD0000002630+0000002630+000000000+000000369+0000002990+0000000009+I20000000000+0000002990+Z
114962001114962565-001987     114962006001023801258NOVELTY CELLPHONE      0000001000+00002630+00000+0001T   00002630+0000001735          1400 HT2745               2BZ
114963000114963               114963               170213BD     1400+00000+BD0000001753+0000001753+000000000+000000246+0000001990+0000000009+I20000000000+0000001990+Z
114963001114963077-000299-A   114963006003000670888GIFT-BAG PAPER JMB LOVE0000001000+00001753+00000+0001T   00001753+0000001736          1400 HT2112               2BZ
114964000114964               114964               170213BD     1400+00000+BD0000003944+0000003944+000000000+000000553+0000004490+0000000007+I20000000000+0000004490+Z
114964001114964031-005853     114964006003000442416P/FRAME WDN TWIN HEARTS0000001000+00003507+00000+0001T   00003507+0000001741          1400 HT2510               2BZ
114964002114964080-000133-A   114964006003000647019MINI VALENTINES CARD   0000001000+00000437+00000+0001T   00000437+0000001741          1400 HT2112               2BZ
114965000114965               114965               170213BD     1400+00000+BD0000012880-0000000000+000000000+000000000+0000012880-0000000000+I20000000000+0000012880-Z
114965001114965001-999901     114965000000000999901CASUAL WAGES           0000001000-00012880+00000+0001X  9606031290819Y0700HAREND0000000000 HT29012IC ORFF       2 Z
114966000114966               114966               170213BD     1400+00000+BD0000008803+0000008803+000000000+000001234+0000010037+0000000000+I40000010037+0000000000+Z
114966001114966080-000113     114966006003000237449CARD&ENVLPE - LOVE     0000001000+00001753+00000+0001T   00001753+0000001748          1400 HT2112               2BZ
114966002114966077-000358     114966006003000329977GIFT-BAG KIDS 25X32CM  0000001000+00001753+00000+0001T   00001753+0000001748          1400 HT2112               2BZ
114966003114966018-019000     114966006003000557288MUG OCC. LOVE JUMBO    0000001000+00005262+00000+0001T   00005262+0000001748          1400 HT2515               2BZ
114966004114966112-116038     114966006009681820246TCS CARRIER BAG MIDI   0000001000+00000035+00000+0001T   00000035+0000001748          1400 HT2090               2BZ
M17021391                              CASH        BDSLAVE 2                       Z-REPORT No.   588TOTAL (Sales - Refunds)           3387.80       CASH TO BE BANKED                 1425.50       DEBIT CARDS                       1813.60       CREDIT CARDS                         0.00       Z-READING                         3239.10       AIRTIME DEBIT CARD SALES             0.00       AIRTIME CARD SALES                   0.00       OVERS/UNDERS                         0.00       AIRTIME CASH SALES                   0.00       GIFT CARDS                           0.00       GIFT CARD CASH SALES                 0.00       CLEANING-MATERIALS                  19.90       CASUAL WAGES                       128.80       T O T A L  CASH PAYOUTS            148.70                                                                                                                                                                                                                                                      Z
M17021392                              CASH        BDABSENT                                                                                                                                                                                          ANNUAL LEAVE                                                                                                                                                                                    DAY OFF                                                                                                                                                                                         COMMENTS                                                                                                                                                                                                                                                                                                                                                                                       Z
Y17021300                                          BD00000000297341+000046
ZBD17021319193 SLAVE 2      SALES DATA                     NEXT INVOICE NO.  114967 0588
X BD Slave 2 First invoice 114919 170213 Last invoice 114966 170213 Next invoice 114967 Total number of records 000000162 clbackup completed 19:19:56
