210001000210001               210001               170213BF     1400+00000+BF0000002100+0000002100+000000000+000000296+0000002396+0000000000+I40000002396+0000000000+Z
210001001210001903-000155     210001006009803374435SWT LOLLY I LUV U HEART0000004000+00000525+00000+0001T   00000525+0000001514          1400 JM7150               1BZ
210002000210002               210002               170213BF     1400+00000+BF0000010565+0000010565+000000000+000001483+0000012048+0000000000+I40000012048+0000000000+Z
210002001210002046-000002     210002006001023585202BATTERIES SIZE:C   2PCE0000004000+00001753+00000+0001T   00001753+0000001518          1400 JM7312               1BZ
210002002210002903-000494     210002006001704009911SWT GUMMY TEENY TEDDIES0000001000+00000876+00000+0001T   00000876+0000001518          1400 JM7150               1BZ
210002003210002077-000299     210002006003000395576G/BAG 32x25cm LRG LOVE 0000001000+00001490+00000+0001T   00001490+0000001518          1400 JM7112               1BZ
210002004210002903-000087     210002006001704000161SWT SPECKLED-EGGS 50G  0000001000+00001139+00000+0001T   00001139+0000001518          1400 JM7150               1BZ
210002005210002112-116069     210002006009681820277TCS CARRIER BAG JUMBO  0000001000+00000048+00000+0001T   00000048+0000001518          1400 JM7090               1BZ
210003000210003               210003               170213BF     1400+00000+BF0000004558+0000004558+000000000+000000639+0000005190+0000000007+I20000000000+0000005190+Z
210003001210003077-000011-C   210003006001023808523TISSUE 10xSHTS RED     0000001000+00000876+00000+0001T   00000876+0000001521          1400 JM7112               1BZ
210003002210003080-000127     210003006003000424351VALENTINES DAY 36x24CM 0000001000+00002192+00000+0001T   00002192+0000001521          1400 JM7112               1BZ
210003003210003077-000299     210003006003000395576G/BAG 32x25cm LRG LOVE 0000001000+00001490+00000+0001T   00001490+0000001521          1400 JM7112               1BZ
210004000210004               210004               170213BF     1400+00000+BF0000006223+0000006223+000000000+000000872+0000007095+0000000000+I40000007095+0000000000+Z
210004001210004007-000537     210004000651728791017NOTE-PAD RND SMILE-FACE0000001000+00000700+00000+0001T   00000700+0000001524          1400 JM7130               1BZ
210004002210004089-000150     210004006003000674268K/CHAIN PLUSH EMOTICON 0000001000+00001139+00000+0001T   00001139+0000001524          1400 JM7205               1BZ
210004003210004007-000217     210004006003000639656SELF STICK NOTE BOOK   0000002000+00002192+00000+0001T   00002192+0000001524          1400 JM7130               1BZ
210005000210005               210005               170213BF     1400+00000+BF0000003507+0000003507+000000000+000000491+0000003990+0000000008+I20000000000+0000003990+Z
210005001210005031-000002-A   210005006003000247103P/FRAME LOVE 7.5X7.5CM 0000001000+00003507+00000+0001T   00003507+0000001526          1400 JM7510               1BZ
210006000210006               210006               170213BF     1400+00000+BF0000019031+0000019031+000000000+000002678+0000021709+0000000000+I40000021709+0000000000+Z
210006001210006903-000155     210006006009803374435SWT LOLLY I LUV U HEART0000027000+00000525+00000+0001T   00000525+0000001532          1400 JM7150               1BZ
210006002210006018-005009     210006006001023725608MUG W/PLUSH-BEAR LOVE  0000001000+00003507+00000+0001T   00003507+0000001532          1400 JM7515               1BZ
210006003210006903-000194     210006006009826020616SWT CHOC RP LOLLY 25G  0000001000+00001314+00000+0001T   00001314+0000001532          1400 JM7150               1BZ
210006004210006112-116038     210006006009681820246TCS CARRIER BAG MIDI   0000001000+00000035+00000+0001T   00000035+0000001532          1400 JM7090               1BZ
210007000210007               210007               170213BF     1400+00000+BF0000007358+0000007358+000000000+000001034+0000008392+0000000000+I40000008392+0000000000+Z
210007001210007903-000087     210007006001704000161SWT SPECKLED-EGGS 50G  0000001000+00001139+00000+0001T   00001139+0000001533          1400 JM7150               1BZ
210007002210007080-000133-A   210007006003000647019MINI VALENTINES CARD   0000004000+00000437+00000+0001T   00000437+0000001533          1400 JM7112               1BZ
210007003210007079-000195     210007006003000161485P/CRAYONS RETRCTBLEx10 0000001000+00003507+00000+0001T   00003507+0000001533          1400 JM7130               1BZ
210007004210007903-000843     210007008693029031067SWT GUMMY JELAXY 80G   0000001000+00000964+00000+0001T   00000964+0000001533          1400 JM7150               1BZ
210008000210008               210008               170213BF     1400+00000+BF0000005257+0000005257+000000000+000000737+0000005990+0000000004+I20000000000+0000005990+Z
210008001210008018-000136     210008006001023659026MUG OCC LOVE W/PLUSH   0000001000+00003507+00000+0001T   00003507+0000001535          1400 JM7515               1BZ
210008002210008903-000194     210008006009826020616SWT CHOC RP LOLLY 25G  0000001000+00001314+00000+0001T   00001314+0000001535          1400 JM7150               1BZ
210008003210008903-000671     210008006009803358015SWT SHERBET BLUE LIPS  0000002000+00000218+00000+0001T   00000218+0000001535          1400 JM7150               1BZ
210009000210009               210009               170213BF     1400+00000+BF0000002366-0000002366-000000000+000000332-0000002700-0000000002+I20000000000+0000002700-Z
210009001210009077-000299     210009006003000395576G/BAG 32x25cm LRG LOVE 0000001000-00001490+00000+0001T   00001490+0000001537          1400 JM71121IC            1 Z
210009002210009077-000011-C   210009006001023808523TISSUE 10xSHTS RED     0000001000-00000876+00000+0001T   00000876+0000001537          1400 JM71121IC            1 Z
210010000210010               210010               170213BF     1400+00000+BF0000006574+0000006574+000000000+000000921+0000007495+0000000000+I40000007495+0000000000+Z
210010001210010251-000001     210010006001023487681TAPE DBL-SIDE 18x1000mm0000001000+00001314+00000+0001T   00001314+0000001539          1400 JM7810               1BZ
210010002210010105-006955     210010006003000685325CONTAINER CLEAR BASE 8L0000001000+00003507+00000+0001T   00003507+0000001539          1400 JM7210               1BZ
210010003210010200-003026     210010006003000276448REFUSE BAGS 10PCE GREEN0000001000+00001753+00000+0001T   00001753+0000001539          1400 JM7214               1BZ
210011000210011               210011               170213BF     1400+00000+BF0000002665+0000002665+000000000+000000374+0000003030+0000000009+I20000000000+0000003030+Z
210011001210011018-000129     210011006001023403353MUG OCC. LOVE V-SHAPE  0000001000+00002630+00000+0001T   00002630+0000001602          1400 RJ1515               1AZ
210011002210011112-116038     210011006009681820246TCS CARRIER BAG MIDI   0000001000+00000035+00000+0001T   00000035+0000001602          1400 RJ1090               1AZ
210012000210012               210012               170213BF     1400+00000+BF0000002716+0000002716+000000000+000000381+0000003090+0000000007+I20000000000+0000003090+Z
210012001210012304-001204     210012006001023737984FLOWER OCC. TEDDY/ROSES0000001000+00001402+00000+0001T   00001490+0006471603          1400 RJ1510               1AZ
210012002210012903-000194     210012006009826020616SWT CHOC RP LOLLY 25G  0000001000+00001314+00000+0001T   00001314+0000001603          1400 RJ1150               1AZ
210013000210013               210013               170213BF     1400+00000+BF0000002454+0000002454+000000000+000000344+0000002798+0000000000+I40000002798+0000000000+Z
210013001210013077-000011-C   210013006001023808523TISSUE 10xSHTS RED     0000001000+00000876+00000+0001T   00000876+0000001712          1400 JM7112               1BZ
210013002210013077-000303     210013006001023593757GIFT-BAG PAPER MED     0000001000+00001578+00000+0001T   00001578+0000001712          1400 JM7112               1BZ
210014000210014               210014               170213BF     1400+00000+BF0000002630+0000002630+000000000+000000369+0000002999+0000000000+I40000002999+0000000000+Z
210014001210014304-001486     210014006003000035335FLWR BUNCH ROSE        0000001000+00002630+00000+0001T   00002630+0000001714          1400 JM7510               1BZ
210015000210015               210015               170213BF     1400+00000+BF0000008804+0000008804+000000000+000001234+0000010038+0000000000+I40000010038+0000000000+Z
210015001210015301-002060     210015006001023722584ORN SEA TREASURE CHEST 0000001000+00003946+00000+0001T   00003946+0000001715          1400 JM7505               1BZ
210015002210015019-000126     210015006003000329571PLANTER GALV W/HANDLE  0000001000+00004823+00000+0001T   00004823+0000001715          1400 JM7510               1BZ
210015003210015112-116038     210015006009681820246TCS CARRIER BAG MIDI   0000001000+00000035+00000+0001T   00000035+0000001715          1400 JM7090               1BZ
210016000210016               210016               170213BF     1400+00000+BF0000003505+0000003505+000000000+000000492+0000003990+0000000007+I20000000000+0000003990+Z
210016001210016261-009936     210016006003000690084GUN WATER PISTOL 2PK   0000001000+00003069+00000+0001T   00003069+0000001718          1400 JM7710               1BZ
210016002210016006-000172-D   210016006003000609932METALLIC GOLD          0000001000+00000218+00000+0001T   00000218+0000001718          1400 JM7131               1BZ
210016003210016006-000172-K   210016006003000610334BALLOONS METALLIC PURPL0000001000+00000218+00000+0001T   00000218+0000001718          1400 JM7131               1BZ
210017000210017               210017               170213BF     1400+00000+BF0000002240+0000002240+000000000+000000314+0000002554+0000000000+I40000002554+0000000000+Z
210017001210017200-000200     210017006008766091144BAKING ALUM FOIL 2PCE  0000001000+00002192+00000+0001T   00002192+0000001721          1400 JM7214               1BZ
210017002210017112-116069     210017006009681820277TCS CARRIER BAG JUMBO  0000001000+00000048+00000+0001T   00000048+0000001721          1400 JM7090               1BZ
210018000210018               210018               170213BF     1400+00000+BF0000004385+0000004385+000000000+000000614+0000004999+0000000000+I40000004999+0000000000+Z
210018001210018082-007587     210018006003000654338SUNGLASS DESIGNER ASST 0000001000+00004385+00000+0001T   00004385+0000001735          1400 JM7160               1BZ
210019000210019               210019               170213BF     1400+00000+BF0000032039+0000032039+000000000+000004495+0000036534+0000000000+I40000036534+0000000000+Z
210019001210019466-064838     210019006001023835031BALLS MASSAGE 8cm SET-30000001000+00001753+00000+0001T   00001753+0000001738          1400 JM7785               1BZ
210019002210019362-003000     210019006003000295258GIRL HEART NOTEBOOK    0000001000+00001753+00000+0001T   00002630+0008191738          1400 JM7160               1BZ
210019003210019075-000348     210019006003000099474PURSE SILICONE W/CLIP  0000001000+00001314+00000+0001T   00001753+0008121738          1400 JM7160               1BZ
210019004210019466-064838     210019006001023835031BALLS MASSAGE 8cm SET-30000002000+00001753+00000+0001T   00001753+0000001738          1400 JM7785               1BZ
210019005210019564-000036     210019006001023708694BUBBLE W/PUZZLE        0000010000+00001490+00000+0001T   00001490+0000001738          1400 JM7131               1BZ
210019006210019362-000299     210019006003000654758HAIR CLIPS METAL WORDS 0000005000+00001753+00000+0001T   00001753+0000001738          1400 JM7160               1BZ
210019007210019112-116069     210019006009681820277TCS CARRIER BAG JUMBO  0000001000+00000048+00000+0001T   00000048+0000001738          1400 JM7090               1BZ
210020000210020               210020               170213BF     1400+00000+BF0000008771+0000008771+000000000+000001228+0000009999+0000000000+I40000009999+0000000000+Z
210020001210020024-007060     210020006003000289950CAKE-SERVER PL ROUND   0000001000+00008771+00000+0001T   00008771+0000001739          1400 JM7300               1BZ
210021000210021               210021               170213BF     1400+00000+BF0000006960+0000006960+000000000+000000976+0000007936+0000000000+I40000007936+0000000000+Z
210021001210021002-000878     210021006001023770967STRAINER TEA WIRE 7cm  0000002000+00001490+00000+0001T   00001490+0000001743          1400 JM7300               1BZ
210021002210021024-000082     210021006001023770905SIEVE FLOUR 18cm MTL-RI0000001000+00001753+00000+0001T   00001753+0000001743          1400 JM7300               1BZ
210021003210021112-116038     210021006009681820246TCS CARRIER BAG MIDI   0000001000+00000035+00000+0001T   00000035+0000001743          1400 JM7090               1BZ
210021004210021077-000509     210021006003000082582GIFT-BAG SML 6PCE ORG P0000001000+00002192+00000+0001T   00002192+0000001743          1400 JM7112               1BZ
210022000210022               210022               170213BF     1400+00000+BF0000014908+0000014908+000000000+000002089+0000016997+0000000000+I40000016997+0000000000+Z
210022001210022368-000637     210022006001023874092PLUSH BEAR SLEEPING LOV0000001000+00011402+00000+0001T   00012279+0006471748          1400 JM7745               1BZ
210022002210022077-000299-A   210022006003000670888GIFT-BAG PAPER JMB LOVE0000001000+00001753+00000+0001T   00001753+0000001748          1400 JM7112               1BZ
210022003210022903-000919     210022006009802868577SWEET NOVELTY LASER POP0000001000+00001753+00000+0001T   00001753+0000001748          1400 JM7150               1BZ
210023000210023               210023               170213BF     1400+00000+BF0000011879+0000011879+000000000+000001668+0000013547+0000000000+I40000013547+0000000000+Z
210023001210023466-009008     210023006003000301713CATCHBALL W/2 BALLS    0000001000+00002630+00000+0001T   00002630+0000001750          1400 JM7785               1BZ
210023002210023065-003671     210023006003000644650MUSICAL FLUTE 22cm     0000001000+00002630+00000+0001T   00002630+0000001750          1400 JM7745               1BZ
210023003210023080-000133     210023006003000535613CARD&ENV MINI ASTD DSGN0000001000+00000437+00000+0001T   00000437+0000001750          1400 JM7112               1BZ
210023004210023080-000133-A   210023006003000647019MINI VALENTINES CARD   0000001000+00000437+00000+0001T   00000437+0000001750          1400 JM7112               1BZ
210023005210023077-000900     210023006003000410446G/WRAP 700mmx1m ANIMAL 0000001000+00001753+00000+0001T   00001753+0000001750          1400 JM7112               1BZ
210023006210023080-000133-A   210023006003000647019MINI VALENTINES CARD   0000001000+00000437+00000+0001T   00000437+0000001750          1400 JM7112               1BZ
210023007210023112-116069     210023006009681820277TCS CARRIER BAG JUMBO  0000001000+00000048+00000+0001T   00000048+0000001750          1400 JM7090               1BZ
210023008210023035-000011     210023006001023806468UMBRELLA KIDDIES +FRILL0000001000+00003507+00000+0001T   00004823+0008151750          1400 JM7205               1BZ
210024000210024               210024               170213BF     1400+00000+BF0000015822+0000015822+000000000+000002216+0000018038+0000000000+I40000018038+0000000000+Z
210024001210024567-075699     210024006003000641277BK NOVEL CATEGORY A    0000001000+00002630+00000+0001T   00003069+0008191752          1400 JM7757               1BZ
210024002210024567-075700     210024006003000339389BOOK NOVEL 3-PACK ASSTD0000001000+00013157+00000+0001T   00013157+0000001752          1400 JM7757               1BZ
210024003210024112-116038     210024006009681820246TCS CARRIER BAG MIDI   0000001000+00000035+00000+0001T   00000035+0000001752          1400 JM7090               1BZ
210025000210025               210025               170213BF     1400+00000+BF0000018966+0000018966+000000000+000002660+0000021626+0000000000+I40000021626+0000000000+Z
210025001210025007-000206     210025006009635830215X/PAD 80-SHEETS PUNCHED0000003000+00001227+00000+0001T   00001227+0000001754          1400 JM7130               1BZ
210025002210025903-002901     210025005996071650655QUICK MILK 5 S/BERRY   0000003000+00001578+00000+0001T   00001578+0000001754          1400 JM7150               1BZ
210025003210025007-000217     210025006003000639656SELF STICK NOTE BOOK   0000004000+00002192+00000+0001T   00002192+0000001754          1400 JM7130               1BZ
210025004210025080-000133-A   210025006003000647019MINI VALENTINES CARD   0000004000+00000437+00000+0001T   00000437+0000001754          1400 JM7112               1BZ
210025005210025112-116038     210025006009681820246TCS CARRIER BAG MIDI   0000001000+00000035+00000+0001T   00000035+0000001754          1400 JM7090               1BZ
210026000210026               210026               170213BF     1400+00000+BF0000003331+0000003331+000000000+000000467+0000003790+0000000008+I20000000000+0000003790+Z
210026001210026080-000127     210026006003000424351VALENTINES DAY 36x24CM 0000001000+00002192+00000+0001T   00002192+0000001755          1400 JM7112               1BZ
210026002210026903-000007     210026000028000688776SWT LAFFY TAFFY 23G    0000001000+00001139+00000+0001T   00001139+0000001755          1400 JM7150               1BZ
210027000210027               210027               170213BF     1400+00000+BF0000003506+0000003506+000000000+000000492+0000003998+0000000000+I40000003998+0000000000+Z
210027001210027366-000256     210027006001023918406DRESS UP TIARA&EARRINGS0000001000+00003069+00000+0001T   00003069+0000001807          1400 JM7131               1BZ
210027002210027080-000133     210027006003000535613CARD&ENV MINI ASTD DSGN0000001000+00000437+00000+0001T   00000437+0000001807          1400 JM7112               1BZ
219970000219970               219970               170213BF     1400+00000+BF0000019202+0000019202+000000000+000002691+0000021893+0000000000+I40000021893+0000000000+Z
219970001219970174-000313     219970006003000344086STORAGE BAG VACUUM SEAL0000001000+00003069+00000+0001T   00003069+0000000929          1400 JM7205               1BZ
219970002219970368-000152     219970006003000166886PLUSH BEAR 15cm        0000001000+00003946+00000+0001T   00005262+0008140929          1400 JM7745               1BZ
219970003219970206-000620     219970006003000631797BACK SCRATCHER EXTEND  0000001000+00002630+00000+0001T   00002630+0000000929          1400 JM7321               1BZ
219970004219970565-000100     219970006003000571147NOVELTY SHOELACES 6 COL0000002000+00001490+00000+0001T   00001490+0000000929          1400 JM7745               1BZ
219970005219970080-000139     219970006003000611690CARD & ENV MINI SET 6PC0000001000+00002192+00000+0001T   00002192+0000000929          1400 JM7112               1BZ
219970006219970107-003127     219970006003000491629BATH TUB W/HANDLES     0000001000+00004385+00000+0001T   00004385+0000000929          1400 JM7210               1BZ
219971000219971               219971               170213BF     1400+00000+BF0000014637+0000014637+000000000+000002055+0000016690+0000000002+I20000000000+0000016690+Z
219971001219971466-000513     219971006003000515561BALL CRICKET RUBBER    0000002000+00002630+00000+0001T   00002630+0000001052          1400 JM7785               1BZ
219971002219971903-000200     219971006009826020234SWT CHOC RP CHOCO 23G  0000003000+00000788+00000+0001T   00000788+0000001052          1400 JM7150               1BZ
219971003219971054-000801     219971006001023119230WIRE-BRUSH+HANDLE FINE 0000001000+00001753+00000+0001T   00001753+0000001052          1400 JM7810               1BZ
219971004219971088-000082     219971006001023798008P/POURRI SACHETS 5x10ml0000001000+00002630+00000+0001T   00002630+0000001052          1400 JM7212               1BZ
219971005219971032-000235     219971006001023468444MIRROR HAND 13X15CM    0000001000+00002630+00000+0001T   00002630+0000001052          1400 JM7510               1BZ
219972000219972               219972               170213BF     1400+00000+BF0000003946+0000003946+000000000+000000553+0000004490+0000000009+I20000000000+0000004490+Z
219972001219972024-000058     219972006001023887498ROLLING-PIN            0000001000+00003946+00000+0001T   00003946+0000001228          1400 JM7300               1BZ
219973000219973               219973               170213BF     1400+00000+BF0000008770+0000008770+000000000+000001228+0000009990+0000000008+I20000000000+0000009990+Z
219973001219973028-000030     219973006001023810908COOLER-BAG 6PACK       0000002000+00004385+00000+0001T   00004385+0000001232          1400 JM7305               1BZ
219974000219974               219974               170213BF     1400+00000+BF0000016659+0000016659+000000000+000002334+0000018993+0000000000+I40000018993+0000000000+Z
219974001219974104-000091     219974006003000491506BASKET PL W/HANDLES    0000001000+00003946+00000+0001T   00005262+0008161309          1400 JM7210               1BZ
219974002219974072-020316     219974006003000603589PET TOY PUP TUG CHEWS  0000001000+00002630+00000+0001T   00002630+0000001309          1400 JM7870               1BZ
219974003219974072-020254     219974006001023775962PET DOG CHEW BALL 6cm  0000001000+00003507+00000+0001T   00003507+0000001309          1400 JM7870               1BZ
219974004219974072-020310     219974006001023701015PET TOY MINI TENNIS BAL0000001000+00003507+00000+0001T   00003507+0000001309          1400 JM7870               1BZ
219974005219974072-020315     219974006003000623891PET TOY PUPPY RING 3in10000001000+00003069+00000+0001T   00003069+0000001309          1400 JM7870               1BZ
219975000219975               219975               170213BF     1400+00000+BF0000005260+0000005260+000000000+000000737+0000005997+0000000000+I40000005997+0000000000+Z
219975001219975562-058911     219975006001023705778EDU MAGNETIC UPPER CASE0000001000+00003507+00000+0001T   00003507+0000001321          1400 JM7755               1AZ
219975002219975562-058912     219975006001023705921NUMBERS+MAGNETIC-BOARD 0000001000+00001753+00000+0001T   00001753+0000001321          1400 JM7755               1AZ
219976000219976               219976               170213BF     1400+00000+BF0000024620+0000024620+000000000+000003451+0000028070+0000000001+I20000000000+0000028070+Z
219976001219976077-000299-A   219976006003000670888GIFT-BAG PAPER JMB LOVE0000001000+00001753+00000+0001T   00001753+0000001323          1400 JM7112               1AZ
219976002219976567-075466     219976009780263922394BK NOVEL ROMANCE       0000001000+00002630+00000+0001T   00002630+0000001323          1400 JM7757               1AZ
219976003219976567-075466     219976009780263920697BK NOVEL ROMANCE       0000001000+00002630+00000+0001T   00002630+0000001323          1400 JM7757               1AZ
219976004219976567-075466     219976009780263922394BK NOVEL ROMANCE       0000002000+00002630+00000+0001T   00002630+0000001323          1400 JM7757               1AZ
219976005219976089-000200     219976006003000485840KEY CHAIN POLY LOVE IS 0000001000+00003507+00000+0001T   00004385+0008121323          1400 JM7205               1AZ
219976006219976031-000924     219976006001023669964P/FRAME COLLAGE PL     0000001000+00008771+00000+0001T   00008771+0000001323          1400 JM7510               1AZ
219976007219976112-116053     219976006006438002399TCS CARRIER BAG 38L    0000001000+00000069+00000+0001T   00000069+0000001323          1400 JM7090               1AZ
219977000219977               219977               170213BF     1400+00000+BF0000020202+0000020202+000000000+000002835+0000023037+0000000000+I40000023037+0000000000+Z
219977001219977903-000670     219977006009803358008SWT SHERBET RED LIPS   0000004000+00000218+00000+0001T   00000218+0000001354          1400 JM7150               1BZ
219977002219977903-000843     219977008693029031067SWT GUMMY JELAXY 80G   0000002000+00000964+00000+0001T   00000964+0000001354          1400 JM7150               1BZ
219977003219977903-000619     219977006003000672455SWT LOLLY STR/BRRY 140G0000001000+00001753+00000+0001T   00001753+0000001354          1400 JM7150               1BZ
219977004219977903-000618     219977006003000672370SWT LOLLY RAINBOW GIANT0000001000+00001753+00000+0001T   00001753+0000001354          1400 JM7150               1BZ
219977005219977077-000357     219977006003000139354GIFT-BAG 18X23CM B/DAY 0000001000+00001753+00000+0001T   00001753+0000001354          1400 JM7112               1BZ
219977006219977566-001118     219977006003000682171STICKERS CELL PHONE    0000001000+00001753+00000+0001T   00001753+0000001354          1400 JM7130               1BZ
219977007219977080-000112     219977006003000252749CARD&ENVLP BDAY-MUSICAL0000001000+00001753+00000+0001T   00001753+0000001354          1400 JM7112               1BZ
219977008219977080-000106     219977006003000237098CARD&ENVLPE BDAY GIRL  0000001000+00001753+00000+0001T   00001753+0000001354          1400 JM7112               1BZ
219977009219977077-000386     219977006003000275489G/BAG POP UP 18x23CM   0000001000+00001578+00000+0001T   00001578+0000001354          1400 JM7112               1BZ
219977010219977077-000310     219977006001023608635GIFT-BAG 18X23CM GLOSS 0000001000+00001314+00000+0001T   00001314+0000001354          1400 JM7112               1BZ
219977011219977903-000518     219977006001704012782SWT STRAWS S/BERRY 100g0000002000+00001227+00000+0001T   00001227+0000001354          1400 JM7150               1BZ
219977012219977112-116069     219977006009681820277TCS CARRIER BAG JUMBO  0000001000+00000048+00000+0001T   00000048+0000001354          1400 JM7090               1BZ
219977013219977077-000305     219977006003000395422GIFT-BAG WINE 10X35CM  0000001000+00001490+00000+0001T   00001490+0000001354          1400 JM7112               1BZ
219978000219978               219978               170213BF     1400+00000+BF0000006271+0000006271+000000000+000000879+0000007150+0000000000+I40000007150+0000000000+Z
219978001219978080-000127     219978006003000424351VALENTINES DAY 36x24CM 0000001000+00002192+00000+0001T   00002192+0000001358          1400 JM7112               1BZ
219978002219978903-000518     219978006001704012782SWT STRAWS S/BERRY 100g0000001000+00001227+00000+0001T   00001227+0000001358          1400 JM7150               1BZ
219978003219978077-000299     219978006003000395576G/BAG 32x25cm LRG LOVE 0000001000+00001490+00000+0001T   00001490+0000001358          1400 JM7112               1BZ
219978004219978903-000194     219978006009826020616SWT CHOC RP LOLLY 25G  0000001000+00001314+00000+0001T   00001314+0000001358          1400 JM7150               1BZ
219978005219978112-116069     219978006009681820277TCS CARRIER BAG JUMBO  0000001000+00000048+00000+0001T   00000048+0000001358          1400 JM7090               1BZ
219979000219979               219979               170213BF     1400+00000+BF0000002136+0000002136+000000000+000000301+0000002430+0000000007+I20000000000+0000002430+Z
219979001219979077-000602     219979006003000395545GIFT-BAG MED 18X23CM   0000001000+00001227+00000+0001T   00001227+0000001405          1400 JM7112               1BZ
219979002219979080-000133     219979006003000535613CARD&ENV MINI ASTD DSGN0000001000+00000437+00000+0001T   00000437+0000001405          1400 JM7112               1BZ
219979003219979080-000133-A   219979006003000647019MINI VALENTINES CARD   0000001000+00000437+00000+0001T   00000437+0000001405          1400 JM7112               1BZ
219979004219979112-116038     219979006009681820246TCS CARRIER BAG MIDI   0000001000+00000035+00000+0001T   00000035+0000001405          1400 JM7090               1BZ
219980000219980               219980               170213BF     1400+00000+BF0000006665+0000006665+000000000+000000934+0000007590+0000000009+I20000000000+0000007590+Z
219980001219980369-000821     219980006003000164431BABY SHAPE-SORTER RND  0000001000-00008771+00000+0001T   00008771+0000001428          1400 JM77451IC            1 Z
219980002219980369-000045     219980006003000164196BABY TOY EDU MOBILE PHN0000001000+00010174+00000+0001T   00010174+0000001428          1400 JM7745               1BZ
219980003219980469-006551     219980006001023756190B/BLOCKS  38PC PLAYSET 0000001000+00005262+00000+0001T   00005262+0000001428          1400 JM7755               1BZ
219981000219981               219981               170213BF     1400+00000+BF0000001139+0000001139+000000000+000000160+0000001290+0000000009+I20000000000+0000001290+Z
219981001219981046-000014     219981006001023725387BATTERIES SIZE:AAA 4PCE0000001000+00001139+00000+0001T   00001139+0000001428          1400 JM7312               1BZ
219982000219982               219982               170213BF     1400+00000+BF0000003069+0000003069+000000000+000000430+0000003490+0000000009+I20000000000+0000003490+Z
219982001219982261-009936     219982006003000690084GUN WATER PISTOL 2PK   0000001000+00003069+00000+0001T   00003069+0000001442          1400 JM7710               1BZ
219983000219983               219983               170213BF     1400+00000+BF0000013223+0000013223+000000000+000001853+0000015076+0000000000+I40000015076+0000000000+Z
219983001219983366-000125     219983006003000006786DRESSUP WINGS/WAND/BAND0000001000+00005262+00000+0001T   00005262+0000001444          1400 JM7131               1BZ
219983002219983266-003012     219983006001023786128BOYS P/SET ARCHERY 4pc 0000001000+00002630+00000+0001T   00002630+0000001444          1400 JM7710               1BZ
219983003219983366-002195     219983006001023990549DRESS UP WINGS FEATHER 0000001000+00005262+00000+0001T   00005262+0000001444          1400 JM7131               1BZ
219983004219983112-116053     219983006006438002399TCS CARRIER BAG 38L    0000001000+00000069+00000+0001T   00000069+0000001444          1400 JM7090               1BZ
219984000219984               219984               170213BF     1400+00000+BF0000015564+0000015564+000000000+000002183+0000017747+0000000000+I40000017747+0000000000+Z
219984001219984036-000151     219984006001023810588COATHANGERS    PACK-10 0000001000+00002893+00000+0001T   00002893+0000001447          1400 JM7212               1BZ
219984002219984565-000043     219984006003000109562NOVELTY BALL FUNNY FACE0000001000+00001753+00000+0001T   00001753+0000001447          1400 JM7745               1BZ
219984003219984077-000321     219984006001023677501GIFT-BAG 11X14CM E/D FL0000001000+00000613+00000+0001T   00000613+0000001447          1400 JM7112               1BZ
219984004219984077-000317     219984006001023609748GIFT-BAG 11X14CM E/D AN0000001000+00000613+00000+0001T   00000613+0000001447          1400 JM7112               1BZ
219984005219984004-071270     219984006001023802156CD-DISCS WRITABLE 10PCE0000002000+00004385+00000+0001T   00004385+0000001447          1400 JM7310               1BZ
219984006219984112-116069     219984006009681820277TCS CARRIER BAG JUMBO  0000001000+00000048+00000+0001T   00000048+0000001447          1400 JM7090               1BZ
219984007219984080-000133-A   219984006003000647019MINI VALENTINES CARD   0000002000+00000437+00000+0001T   00000437+0000001447          1400 JM7112               1BZ
219985000219985               219985               170213BF     1400+00000+BF0000011443+0000011443+000000000+000001604+0000013047+0000000000+I40000013047+0000000000+Z
219985001219985071-001238     219985000060107212485ERASERS  3PCE    CARDED0000001000+00000876+00000+0001T   00000876+0000001449          1400 JM7130               1BZ
219985002219985903-000121     219985006002099001689SWT GS ZILLIONS SOURS  0000001000+00000700+00000+0001T   00000700+0000001449          1400 JM7150               1BZ
219985003219985903-000120     219985006002099001665SWEET GS ZILLIONS 50g  0000001000+00000700+00000+0001T   00000700+0000001449          1400 JM7150               1BZ
219985004219985903-000482     219985006001704001397SWT SOFT-MINTS 60G     0000001000+00000876+00000+0001T   00000876+0000001449          1400 JM7150               1BZ
219985005219985562-006275     219985006001023836182EDU BOARD W/MARKER ASST0000001000+00007016+00000+0001T   00007016+0000001449          1400 JM7755               1BZ
219985006219985112-116069     219985006009681820277TCS CARRIER BAG JUMBO  0000001000+00000048+00000+0001T   00000048+0000001449          1400 JM7090               1BZ
219985007219985903-000518     219985006001704012782SWT STRAWS S/BERRY 100g0000001000+00001227+00000+0001T   00001227+0000001449          1400 JM7150               1BZ
219986000219986               219986               170213BF     1400+00000+BF0000001753+0000001753+000000000+000000246+0000001990+0000000009+I20000000000+0000001990+Z
219986001219986466-064834     219986006008766064834BALL W/SPIKES 20cm     0000001000+00001753+00000+0001T   00001753+0000001450          1400 JM7785               1BZ
219987000219987               219987               170213BF     1400+00000+BF0000004120+0000004120+000000000+000000578+0000004698+0000000000+I40000004698+0000000000+Z
219987001219987079-013032-D   219987006003000389643RIBBONS                0000001000+00002630+00000+0001T   00002630+0000001454          1400 JM7130               1BZ
219987002219987077-000299     219987006003000395576G/BAG 32x25cm LRG LOVE 0000001000+00001490+00000+0001T   00001490+0000001454          1400 JM7112               1BZ
219988000219988               219988               170213BF     1400+00000+BF0000006698+0000006698+000000000+000000938+0000007630+0000000006+I20000000000+0000007630+Z
219988001219988080-000124     219988006003000297733CARD & ENV VALENTINES  0000001000+00001578+00000+0001T   00001578+0000001455          1400 JM7112               1BZ
219988002219988301-085004     219988006003000420469ORN LOVE PLAQUE 21X10CM0000001000+00003507+00000+0001T   00003946+0006471455          1400 JM7505               1BZ
219988003219988077-000303     219988006001023593757GIFT-BAG PAPER MED     0000001000+00001578+00000+0001T   00001578+0000001455          1400 JM7112               1BZ
219988004219988112-116038     219988006009681820246TCS CARRIER BAG MIDI   0000001000+00000035+00000+0001T   00000035+0000001455          1400 JM7090               1BZ
219989000219989               219989               170213BF     1400+00000+BF0000014858+0000014858+000000000+000002083+0000016941+0000000000+I40000016941+0000000000+Z
219989001219989108-001225     219989006003000010240SALAD BOWL MINI 380ML  0000003000+00000876+00000+0001T   00000876+0000001458          1400 JM7210               1BZ
219989002219989200-003019     219989006003000510856REFUSE BAGS 10PC D/STRN0000001000+00001314+00000+0001T   00001753+0008171458          1400 JM7214               1BZ
219989003219989200-003024     219989006001023657299REFUSE BAGS 20PCE BLACK0000001000+00001753+00000+0001T   00001753+0000001458          1400 JM7214               1BZ
219989004219989018-000177     219989006001023797513MUG MINI LOVE ASSTD    0000001000+00000700+00000+0001T   00000700+0000001458          1400 JM7515               1BZ
219989005219989009-001506     219989006001023696090MELAMINE TRAY 39x29cm  0000001000+00004385+00000+0001T   00004385+0000001458          1400 JM7210               1BZ
219989006219989002-000717     219989006001023775184CHOPPING-MATS FLEX 2PCE0000001000+00002630+00000+0001T   00002630+0000001458          1400 JM7300               1BZ
219989007219989112-116069     219989006009681820277TCS CARRIER BAG JUMBO  0000001000+00000048+00000+0001T   00000048+0000001458          1400 JM7090               1BZ
219989008219989018-000177     219989006001023797513MUG MINI LOVE ASSTD    0000002000+00000700+00000+0001T   00000700+0000001458          1400 JM7515               1BZ
219990000219990               219990               170213BF     1400+00000+BF0000004645+0000004645+000000000+000000652+0000005290+0000000007+I20000000000+0000005290+Z
219990001219990105-000605     219990006005387000517STORAGE CONTAINRS 250ml0000001000+00003771+00000+0001T   00003771+0000001459          1400 JM7210               1BZ
219990002219990080-000133     219990006003000535613CARD&ENV MINI ASTD DSGN0000001000+00000437+00000+0001T   00000437+0000001459          1400 JM7112               1BZ
219990003219990080-000133-A   219990006003000647019MINI VALENTINES CARD   0000001000+00000437+00000+0001T   00000437+0000001459          1400 JM7112               1BZ
219991000219991               219991               170213BF     1400+00000+BF0000003768+0000003768+000000000+000000529+0000004290+0000000007+I20000000000+0000004290+Z
219991001219991033-005903-B   219991006001023678164B/LACES FLAT 120cm ASST0000001000+00001490+00000+0001T   00001490+0000001500          1400 JM7200               1BZ
219991002219991903-000087     219991006001704000161SWT SPECKLED-EGGS 50G  0000002000+00001139+00000+0001T   00001139+0000001500          1400 JM7150               1BZ
219992000219992               219992               170213BF     1400+00000+BF0000003542+0000003542+000000000+000000496+0000004030+0000000008+I20000000000+0000004030+Z
219992001219992007-000324     21999200600968585864125 SHEETS BRIGHTS MARLI0000001000+00003507+00000+0001T   00003507+0000001501          1400 JM7130               1BZ
219992002219992112-116038     219992006009681820246TCS CARRIER BAG MIDI   0000001000+00000035+00000+0001T   00000035+0000001501          1400 JM7090               1BZ
219993000219993               219993               170213BF     1400+00000+BF0000000437+0000000437+000000000+000000062+0000000490+0000000009+I20000000000+0000000490+Z
219993001219993080-000133     219993006003000535613CARD&ENV MINI ASTD DSGN0000001000+00000437+00000+0001T   00000437+0000001501          1400 JM7112               1BZ
219994000219994               219994               170213BF     1400+00000+BF0000005699+0000005699+000000000+000000798+0000006497+0000000000+I40000006497+0000000000+Z
219994001219994071-000404     219994006001023676696P/SHARPENER WORLD-GLOBE0000001000+00002192+00000+0001T   00002192+0000001503          1400 JM7130               1BZ
219994002219994560-000189     219994006003000592357ANIMALS SNAKE 78cm     0000001000+00003507+00000+0001T   00003507+0000001503          1400 JM7745               1BZ
219995000219995               219995               170213BF     1400+00000+BF0000004120+0000004120+000000000+000000578+0000004698+0000000000+I40000004698+0000000000+Z
219995001219995077-000005-B   219995006003000326617PAPER TISSUE PATTERN   0000001000+00002630+00000+0001T   00002630+0000001506          1400 JM7112               1BZ
219995002219995077-000299     219995006003000395576G/BAG 32x25cm LRG LOVE 0000001000+00001490+00000+0001T   00001490+0000001506          1400 JM7112               1BZ
219996000219996               219996               170213BF     1400+00000+BF0000001753+0000001753+000000000+000000246+0000001990+0000000009+I20000000000+0000001990+Z
219996001219996079-013032     219996006003000389209SET LETTERS 2 ASSTD    0000001000+00001753+00000+0001T   00001753+0000001507          1400 JM7130               1BZ
219997000219997               219997               170213BF     1400+00000+BF0000004384+0000004384+000000000+000000614+0000004990+0000000008+I20000000000+0000004990+Z
219997001219997563-000318-L   219997006003000407088SERVIETTES 33cm RED    0000001000+00002192+00000+0001T   00002192+0000001507          1400 JM7214               1BZ
219997002219997563-000318-J   219997006003000404728SERVIETTES 33cm YELLOW 0000001000+00002192+00000+0001T   00002192+0000001507          1400 JM7214               1BZ
219998000219998               219998               170213BF     1400+00000+BF0000020861+0000020861+000000000+000002923+0000023784+0000000000+I40000023784+0000000000+Z
219998001219998028-000027     219998006003000275816C/BAG+POCKET 27x18x23cm0000001000+00008771+00000+0001T   00008771+0000001510          1400 JM7305               1BZ
219998002219998027-056188     219998006003000570539DISH BRUSH LADY SHAPE  0000001000+00002630+00000+0001T   00002630+0000001510          1400 JM7212               1BZ
219998003219998301-007010     219998006003000431472ORN MINI BLACKBOARD 2PC0000001000+00002630+00000+0001T   00002630+0000001510          1400 JM7505               1BZ
219998004219998018-000177     219998006001023797513MUG MINI LOVE ASSTD    0000006000+00000700+00000+0001T   00000700+0000001510          1400 JM7515               1BZ
219998005219998002-220002     219998006001023677877F/COVER SQ 31cm WHT    0000001000+00002630+00000+0001T   00002630+0000001510          1400 JM7300               1BZ
219999000219999               219999               170213BF     1400+00000+BF0000004644+0000004644+000000000+000000652+0000005296+0000000000+I40000005296+0000000000+Z
219999001219999200-003024     219999006001023657299REFUSE BAGS 20PCE BLACK0000001000+00001753+00000+0001T   00001753+0000001511          1400 JM7214               1BZ
219999002219999105-001036     219999006003000621118CONTAINER W/VENT 350ml 0000001000+00000876+00000+0001T   00001490+0008161511          1400 JM7210               1BZ
219999003219999903-000155     219999006009803374435SWT LOLLY I LUV U HEART0000001000+00000525+00000+0001T   00000525+0000001511          1400 JM7150               1BZ
219999004219999077-000299     219999006003000395576G/BAG 32x25cm LRG LOVE 0000001000+00001490+00000+0001T   00001490+0000001511          1400 JM7112               1BZ
A17021300                                          09460633BFSLAVE 1                       JM71IC
A17021301                                          10341023BFSLAVE 1                       JM71IC
C21001600                                          170213BF006-001000     17183604SLAVE 1     JM71IC0000000000+0000000000+0040000001000+
M17021391                              CASH        BFSLAVE 1                       Z-REPORT No.   684TOTAL (Sales - Refunds)           5271.62       CASH TO BE BANKED                 1311.10       DEBIT CARDS                          0.00       CREDIT CARDS                      3960.52       Z-READING                         5271.62       AIRTIME DEBIT CARD SALES             0.00       AIRTIME CARD SALES                   0.00       OVERS/UNDERS                         0.00       AIRTIME CASH SALES                   0.00       GIFT CARDS                           0.00       GIFT CARD CASH SALES                 0.00       T O T A L  CASH PAYOUTS              0.00                                                                                                                                                                                                                                                                                                                                                      Z
M17021392                              CASH        BFABSENT                                                                                                                                                                                          ANNUAL LEAVE                                                                                                                                                                                    DAY OFF                                                                                                                                                                                         COMMENTS                                                                                                                                                                                                                                                                                                                                                                                       Z
Y17021300                                          BF00000000473613+000056
ZBF17021319203 SLAVE 1      SALES DATA                     NEXT INVOICE NO.  210028 0684
F093706496-028120         1701161048020000021ICSLAVE 1
F093706496-058484         1701161048020000061ICSLAVE 1
F093739496-028122         1701161048270000021ICSLAVE 1
F093799496-028272         1701161049040000021ICSLAVE 1
F094118463-000501         1701161049400000091ICSLAVE 1
F094517203-006050         1702021408010000032ICSLAVE 1
F094743040-000208         1702071050390000031ICSLAVE 1
F094853089-000030         1702111200020000051ICSLAVE 1
X BF Slave 1 First invoice 219970 170213 Last invoice 210027 170213 Next invoice 210028 Total number of records 000000263 clbackup completed 19:20:02
