ZBF17021319202 SLAVE 2      NO SALES DATA                  NEXT INVOICE NO.  223617 0696
F093706496-028120         1701161052340000021ICSLAVE 2
F093706496-058484         1701161052340000061ICSLAVE 2
F093739496-028122         1701161052490000021ICSLAVE 2
F093799496-028272         1701161053160000021ICSLAVE 2
F094118463-000501         1701161051410000091ICSLAVE 2
F094517203-006050         1702021408360000032ICSLAVE 2
F094743040-000208         1702071050170000031ICSLAVE 2
F094853089-000030         1702111200400000051ICSLAVE 2
X BF Slave 2 First invoice 000000 000000 Last invoice 000000 000000 Next invoice 223617 Total number of records 000000009 clbackup completed 19:20:04
