103700000103700               103700               170213BG     1400+00000+BG0000003155+0000003155+000000000+000000442+0000003590+0000000007+I20000000000+0000003590+Z
103700001103700033-000013     103700006001023567215PILL-REMINDER PL       0000001000+00001227+00000+0001T   00001227+0000000927          1400 S94200               1BZ
103700002103700174-008034     103700006009654960610TRAVEL BOTTLES 150ml   0000001000+00001928+00000+0001T   00001928+0000000927          1400 S94205               1BZ
103701000103701               103701               170213BG     1400+00000+BG0000001753+0000001753+000000000+000000246+0000001990+0000000009+I20000000000+0000001990+Z
103701001103701009-001451     103701006001023695970MELAMINE S/BOWL 15cm   0000001000+00001753+00000+0001T   00001753+0000000927          1400 S94210               1BZ
103702000103702               103702               170213BG     1400+00000+BG0000028155+0000028155+000000000+000003947+0000032102+0000000000+I40000032102+0000000000+Z
103702001103702112-116069     103702006009681820277TCS CARRIER BAG JUMBO  0000001000+00000048+00000+0001T   00000048+0000001000          1400 S94090               1BZ
103702002103702174-000308     103702006003000684939TRAVEL NECK-PILLOW FOAM0000001000+00007893+00000+0001T   00007893+0000001000          1400 S94205               1BZ
103702003103702073-000157     103702006003000571734COSMETIC QUILTED BAG   0000001000+00002630+00000+0001T   00002630+0000001000          1400 S94200               1BZ
103702004103702174-000170     103702006003000575978STORAGE BASKET NON-WOVE0000001000+00004385+00000+0001T   00004385+0000001000          1400 S94205               1BZ
103702005103702306-001621     103702006001023554475INNER SOLES 1 PAIR     0000001000+00002192+00000+0001T   00002192+0000001000          1400 S94200               1BZ
103702006103702306-001622     103702006003000450091INNER SOLES 1-PAIR     0000001000+00002630+00000+0001T   00002630+0000001000          1400 S94200               1BZ
103702007103702112-116069     103702006009681820277TCS CARRIER BAG JUMBO  0000001000+00000048+00000+0001T   00000048+0000001000          1400 S94090               1BZ
103702008103702124-001300     103702006003000486861STORAGE TIN WASHING    0000001000+00006139+00000+0001T   00006139+0000001000          1400 S94300               1BZ
103702009103702903-000087     103702006001704000161SWT SPECKLED-EGGS 50G  0000001000+00001139+00000+0001T   00001139+0000001000          1400 S94150               1BZ
103702010103702903-002853     103702000000087108019MENTOS ROLL MINT       0000001000+00001051+00000+0001T   00001051+0000001000          1400 S94150               1BZ
103703000103703               103703               170213BG     1400+00000+BG0000017539+0000017539+000000000+000002457+0000019996+0000000000+I40000019996+0000000000+Z
103703001103703077-000324     103703006001023677594GIFT-BAG 33X45CM E/D FL0000001000+00001753+00000+0001T   00001753+0000001003          1400 S94112               1BZ
103703002103703024-000165-E   103703006003000674558N/STICK BAKING TRAY    0000002000+00005262+00000+0001T   00005262+0000001003          1400 S94300               1BZ
103703003103703024-000165-F   103703006003000674671N/STICK MUFFIN PAN     0000001000+00005262+00000+0001T   00005262+0000001003          1400 S94300               1BZ
103704000103704               103704               170213BG     1400+00000+BG0000004420+0000004420+000000000+000000619+0000005030+0000000009+I20000000000+0000005030+Z
103704001103704112-116038     103704006009681820246TCS CARRIER BAG MIDI   0000001000+00000035+00000+0001T   00000035+0000001006          1400 S94090               1BZ
103704002103704031-080508     103704006001023802415P/FRAME PL 22X11CM LOVE0000001000+00004385+00000+0001T   00004385+0000001006          1400 S94510               1BZ
103705000103705               103705               170213BG     1400+00000+BG0000004384+0000004384+000000000+000000614+0000004990+0000000008+I20000000000+0000004990+Z
103705001103705047-005126     103705006001023451255CABLETIES 100/150/200mm0000001000+00002192+00000+0001T   00002192+0000001016          1400 S94880               1BZ
103705002103705251-000002     103705006003000093991TAPE D-SIDED 24x1000mm 0000001000+00002192+00000+0001T   00002192+0000001016          1400 S94810               1BZ
103706000103706               103706               170213BG     1400+00000+BG0000002979+0000002979+000000000+000000418+0000003397+0000000000+I40000003397+0000000000+Z
103706001103706467-000002     103706006001023354518BEACH-SET PL 2PCE      0000001000+00001753+00000+0001T   00001753+0000001023          1400 S94785               1BZ
103706002103706083-000055     103706006003000003853LIGHTER ELCTRNC REFILBL0000002000+00000613+00000+0001T   00000613+0000001023          1400 S94315               1BZ
103707000103707               103707               170213BG     1400+00000+BG0000013638+0000013638+000000000+000001910+0000015548+0000000000+I40000015548+0000000000+Z
103707001103707112-116069     103707006009681820277TCS CARRIER BAG JUMBO  0000001000+00000048+00000+0001T   00000048+0000001026          1400 S94090               1BZ
103707002103707105-001310     103707006003000572731CONTAINER COLOUR SQUARE0000003000+00003507+00000+0001T   00003507+0000001026          1400 S94210               1BZ
103707003103707105-001025     103707006009654960771CONTAINERS CLEAR 4PCE  0000001000+00003069+00000+0001T   00003069+0000001026          1400 S94210               1BZ
103708000103708               103708               170213BG     1400+00000+BG0000002192+0000002192+000000000+000000307+0000002490+0000000009+I20000000000+0000002490+Z
103708001103708080-000127     103708006003000424351VALENTINES DAY 36x24CM 0000001000+00002192+00000+0001T   00002192+0000001027          1400 S94112               1BZ
103709000103709               103709               170213BG     1400+00000+BG0000001753+0000001753+000000000+000000246+0000001999+0000000000+I40000001999+0000000000+Z
103709001103709065-006042     103709006001023712998MARACAS 2PCE CHA-CHA   0000001000+00001753+00000+0001T   00001753+0000001044          1400 S94745               1BZ
103710000103710               103710               170213BG     1400+00000+BG0000004518+0000004518+000000000+000000634+0000005150+0000000002+I20000000000+0000005150+Z
103710001103710112-116069     103710006009681820277TCS CARRIER BAG JUMBO  0000001000+00000048+00000+0001T   00000048+0000001045          1400 S94090               1BZ
103710002103710028-000400     103710006001023421661PLATE-HOLDERS 4PCE     0000003000+00001490+00000+0001T   00001490+0000001045          1400 S94305               1BZ
103711000103711               103711               170213BG     1400+00000+BG0000002630+0000002630+000000000+000000369+0000002990+0000000009+I20000000000+0000002990+Z
103711001103711486-000001     103711006001023507969ALARM-CLOCK SQ ASS     0000001000+00002630+00000+0001T   00002630+0000001047          1400 S94510               1BZ
103712000103712               103712               170213BG     1400+00000+BG0000003542+0000003542+000000000+000000496+0000004030+0000000008+I20000000000+0000004030+Z
103712001103712112-116038     103712006009681820246TCS CARRIER BAG MIDI   0000001000+00000035+00000+0001T   00000035+0000001050          1400 S94090               1BZ
103712002103712103-000090     103712006001023795786WOVEN HEART SHAPED     0000001000+00003507+00000+0001T   00003507+0000001050          1400 S94300               1BZ
103713000103713               103713               170213BG     1400+00000+BG0000005260+0000005260+000000000+000000738+0000005990+0000000008+I20000000000+0000005990+Z
103713001103713159-000679     103713006001023588289BATH-SPONGE RND 2pk    0000001000+00002630+00000+0001T   00002630+0000001051          1400 S94200               1BZ
103713002103713140-006008     103713006001023803214FLY-SWATTERS   SET-OF-40000001000+00002630+00000+0001T   00002630+0000001051          1400 S94830               1BZ
103714000103714               103714               170213BG     1400+00000+BG0000018411+0000018411+000000000+000002581+0000020990+0000000002+I20000000000+0000020990+Z
103714001103714142-000812     103714006003000165421GLOVES LATEX 10PCE-5PRS0000001000+00002630+00000+0001T   00002630+0000001056          1400 S94810               1BZ
103714002103714251-000001     103714006001023487681TAPE DBL-SIDE 18x1000mm0000001000+00001314+00000+0001T   00001314+0000001056          1400 S94810               1BZ
103714003103714563-000317-C   103714006001023776204SERVIETTES 20PK  FLOWER0000001000+00002630+00000+0001T   00002630+0000001056          1400 S94214               1BZ
103714004103714142-000814     103714006001023183910GLOVES RUBBER  MEDIUM  0000001000+00001753+00000+0001T   00001753+0000001056          1400 S94810               1BZ
103714005103714027-000027     103714006003000439355DUSTPAN SET ASSTD      0000001000+00006139+00000+0001T   00006139+0000001056          1400 S94212               1BZ
103714006103714071-001102     103714006003000274598MARKER PERM MED 2PCE   0000001000+00001753+00000+0001T   00001753+0000001056          1400 S94130               1BZ
103714007103714072-020367     103714006003000190751PET PLACE MAT NO MESS  0000001000+00002192+00000+0001T   00002192+0000001056          1400 S94870               1BZ
103715000103715               103715               170213BG     1400+00000+BG0000006139+0000006139+000000000+000000860+0000006990+0000000009+I20000000000+0000006990+Z
103715001103715035-000001     103715006002596010566UMBRELLA LADIES W/MINI 0000001000+00006139+00000+0001T   00006139+0000001057          1400 S94205               1BZ
103716000103716               103716               170213BG     1400+00000+BG0000026000+0000026000+000000000+000003642+0000029640+0000000002+I20000000000+0000029640+Z
103716001103716140-005093     103716006003000331338INSECT-KILL RAQT-SHAPED0000001000+00005262+00000+0001T   00005262+0000001101          1400 S94830               1BZ
103716002103716112-116069     103716006009681820277TCS CARRIER BAG JUMBO  0000001000+00000048+00000+0001T   00000048+0000001101          1400 S94090               1BZ
103716003103716140-006004     103716006001023628077FLY-SWATTER RUBBER     0000002000+00001139+00000+0001T   00001139+0000001101          1400 S94830               1BZ
103716004103716566-000068     103716006003000418046POP UP LOVE 2 ASSTD    0000002000+00002192+00000+0001T   00002192+0000001101          1400 S94130               1BZ
103716005103716108-005007     103716006002580009392TRAY PL 40cm ROUND     0000004000+00003507+00000+0001T   00003507+0000001101          1400 S94210               1BZ
103717000103717               103717               170213BG     1400+00000+BG0000016256+0000016256+000000000+000002277+0000018530+0000000003+I20000000000+0000018530+Z
103717001103717112-116038     103717006009681820246TCS CARRIER BAG MIDI   0000001000+00000035+00000+0001T   00000035+0000001110          1400 S94090               1BZ
103717002103717301-000835     103717006003000035014ORN FAIRY SITTING 4ASST0000002000+00003507+00000+0001T   00003507+0000001110          1400 S94505               1BZ
103717003103717301-000819     103717006001023716323ORN FAIRY SITTING ASSTD0000003000+00003069+00000+0001T   00003069+0000001110          1400 S94505               1BZ
103718000103718               103718               170213BG     1400+00000+BG0000011402+0000011402+000000000+000001597+0000012990+0000000009+I20000000000+0000012990+Z
103718001103718035-000030     103718006002596030229UMBRELLA GOLF 16-RIB   0000001000+00011402+00000+0001T   00011402+0000001111          1400 S94205               1BZ
103719000103719               103719               170213BG     1400+00000+BG0000008771+0000008771+000000000+000001228+0000009990+0000000009+I20000000000+0000009990+Z
103719001103719024-000180     103719006003000120888SILICONE LOAF-PAN      0000001000+00008771+00000+0001T   00008771+0000001143          1400 S94300               1BZ
103720000103720               103720               170213BG     1400+00000+BG0000001314+0000001314+000000000+000000184+0000001490+0000000008+I20000000000+0000001490+Z
103720001103720046-000012     103720006904708013062BATTERIES AA  CARD-OF-40000001000+00001314+00000+0001T   00001314+0000001157          1400 S94312               1BZ
103721000103721               103721               170213BG     1400+00000+BG0000002454+0000002454+000000000+000000344+0000002790+0000000008+I20000000000+0000002790+Z
103721001103721077-000245     103721006001023759214GIFT-RIBBON METALLICx2 0000002000+00001227+00000+0001T   00001227+0000001216          1400 S94112               1BZ
103722000103722               103722               170213BG     1400+00000+BG0000002628+0000002628+000000000+000000368+0000002990+0000000006+I20000000000+0000002990+Z
103722001103722089-000098     103722006003000677443KEY CHAIN OPENER ASSTD 0000002000+00001314+00000+0001T   00001314+0000001217          1400 S94205               1BZ
103723000103723               103723               170213BG     1400+00000+BG0000003681+0000003681+000000000+000000516+0000004190+0000000007+I20000000000+0000004190+Z
103723001103723251-000041     103723006001023515889SEAL-TAPE BUFF 48mmx50m0000003000+00001227+00000+0001T   00001227+0000001217          1400 S94810               1BZ
103724000103724               103724               170213BG     1400+00000+BG0000003591+0000003591+000000000+000000505+0000004090+0000000006+I20000000000+0000004090+Z
103724001103724071-000212     103724006009608641190CHALK WHITE 12PCE      0000001000+00000437+00000+0001T   00000437+0000001222          1400 S94130               1BZ
103724002103724002-021040     103724006001023812216PARTY-PICKS 100PCE     0000001000+00000525+00000+0001T   00000525+0000001222          1400 S94300               1BZ
103724003103724007-000235     103724006003000134434LABELS RECTANGULAR 60pc0000001000+00000876+00000+0001T   00000876+0000001222          1400 S94130               1BZ
103724004103724562-088335     103724006003000425372EVA PUZZLE MAT MINI    0000001000+00001753+00000+0001T   00001753+0000001222          1400 S94755               1BZ
103725000103725               103725               170213BG     1400+00000+BG0000007938+0000007938+000000000+000001112+0000009050+0000000000+I20000000000+0000009050+Z
103725001103725015-000110     103725006001023854889WHITEWARE MUG 350ML    0000002000+00002192+00000+0001T   00002192+0000001225          1400 S94515               1BZ
103725002103725024-000097     103725006001023770035MEASURING-SET 11PCE WHT0000001000+00002192+00000+0001T   00002192+0000001225          1400 S94300               1BZ
103725003103725903-004950     103725006002580020304SWT APRICOT SURPRISE   0000001000+00001314+00000+0001T   00001314+0000001225          1400 S94150               1BZ
103725004103725112-116069     103725006009681820277TCS CARRIER BAG JUMBO  0000001000+00000048+00000+0001T   00000048+0000001225          1400 S94090               1BZ
103726000103726               103726               170213BG     1400+00000+BG0000007891+0000007891+000000000+000001106+0000008990+0000000007+I20000000000+0000008990+Z
103726001103726088-000108     103726006001023765536POTPOURRI-OIL 10ml ASST0000001000+00001753+00000+0001T   00001753+0000001228          1400 S94212               1BZ
103726002103726366-006110     103726006003000636075DRESS UP HAIR CHALK 6  0000001000+00004385+00000+0001T   00004385+0000001228          1400 S94131               1BZ
103726003103726366-002460     103726006003000166794S/FASION CROCHET 1.9m  0000001000+00001753+00000+0001T   00001753+0000001228          1400 S94131               1BZ
103727000103727               103727               170213BG     1400+00000+BG0000002192+0000002192+000000000+000000307+0000002490+0000000009+I20000000000+0000002490+Z
103727001103727007-000095     103727006003000530434ENVELOPES WHITE 20PK C60000001000+00002192+00000+0001T   00002192+0000001239          1400 S94130               1BZ
103728000103728               103728               170213BG     1400+00000+BG0000001788+0000001788+000000000+000000251+0000002030+0000000009+I20000000000+0000002030+Z
103728001103728104-000020     103728006916920023026BASKET 25x14x10cm      0000001000+00001753+00000+0001T   00001753+0000001249          1400 S94210               1BZ
103728002103728112-116038     103728006009681820246TCS CARRIER BAG MIDI   0000001000+00000035+00000+0001T   00000035+0000001249          1400 S94090               1BZ
103729000103729               103729               170213BG     1400+00000+BG0000003977+0000003977+000000000+000000557+0000004530+0000000004+I20000000000+0000004530+Z
103729001103729306-001135-A   103729006003000359110FIRSTAID SUPPORT HAND  0000003000+00001314+00000+0001T   00001753+0008171305          1400 S94200               1BZ
103729002103729112-116038     103729006009681820246TCS CARRIER BAG MIDI   0000001000+00000035+00000+0001T   00000035+0000001305          1400 S94090               1BZ
103730000103730               103730               170213BG     1400+00000+BG0000021083+0000021083+000000000+000002953+0000024030+0000000006+I20000000000+0000024030+Z
103730001103730174-000141     103730006003000367573STORAGE ORGANISER 30X100000001000+00005262+00000+0001T   00005262+0000001308          1400 S94205               1BZ
103730002103730174-000144     103730006003000450633STORAGE SHOE BOXES 2PC 0000001000+00005262+00000+0001T   00005262+0000001308          1400 S94205               1BZ
103730003103730112-116038     103730006009681820246TCS CARRIER BAG MIDI   0000001000+00000035+00000+0001T   00000035+0000001308          1400 S94090               1BZ
103730004103730174-000141     103730006003000367573STORAGE ORGANISER 30X100000001000+00005262+00000+0001T   00005262+0000001308          1400 S94205               1BZ
103730005103730174-000144     103730006003000450633STORAGE SHOE BOXES 2PC 0000001000+00005262+00000+0001T   00005262+0000001308          1400 S94205               1BZ
103731000103731               103731               170213BG     1400+00000+BG0000009681+0000009681+000000000+000001356+0000011037+0000000000+I40000011037+0000000000+Z
103731001103731301-000300     103731006003000456840ORN INSPIRATIONAL CROSS0000001000+00006139+00000+0001T   00006139+0000001310          1400 S94505               1BZ
103731002103731301-085004     103731006003000420469ORN LOVE PLAQUE 21X10CM0000001000+00003507+00000+0001T   00003946+0006471310          1400 S94505               1BZ
103731003103731112-116038     103731006009681820246TCS CARRIER BAG MIDI   0000001000+00000035+00000+0001T   00000035+0000001310          1400 S94090               1BZ
103732000103732               103732               170213BG     1400+00000+BG0000001753+0000001753+000000000+000000246+0000001990+0000000009+I20000000000+0000001990+Z
103732001103732071-003853     103732006001023715579PENCIL BASIC HB 12PCE  0000001000+00001753+00000+0001T   00001753+0000001317          1400 S94130               1BZ
103733000103733               103733               170213BG     1400+00000+BG0000009205+0000009205+000000000+000001291+0000010490+0000000006+I20000000000+0000010490+Z
103733001103733200-003024     103733006001023657299REFUSE BAGS 20PCE BLACK0000001000+00001753+00000+0001T   00001753+0000001411          1400 S94214               1BZ
103733002103733084-009410     103733006001023477651SCISSORS 21cm PL-HANDLE0000001000+00002630+00000+0001T   00002630+0000001411          1400 S94200               1BZ
103733003103733047-000507     103733006001023684479PLUG-ADAPTOR EURO TWIN 0000001000+00001753+00000+0001T   00001753+0000001411          1400 S94880               1BZ
103733004103733027-009032     103733006001246775107DUSTPAN JUMBO          0000001000+00003069+00000+0001T   00003069+0000001411          1400 S94212               1BZ
103734000103734               103734               170213BG     1400+00000+BG0000007061+0000007061+000000000+000000989+0000008050+0000000000+I20000000000+0000008050+Z
103734001103734112-116069     103734006009681820277TCS CARRIER BAG JUMBO  0000001000+00000048+00000+0001T   00000048+0000001420          1400 S94090               1BZ
103734002103734077-000310     103734006001023608635GIFT-BAG 18X23CM GLOSS 0000002000+00001314+00000+0001T   00001314+0000001420          1400 S94112               1BZ
103734003103734018-030000     103734006003000421060MUG OCCASIONS LOVE 2PCE0000001000+00004385+00000+0001T   00004385+0000001420          1400 S94515               1BZ
103735000103735               103735               170213BG     1400+00000+BG0000001928+0000001928+000000000+000000270+0000002190+0000000008+I20000000000+0000002190+Z
103735001103735050-000361-Z   103735006001023535382PADLOCK IRON 20mm CARD 0000001000+00001928+00000+0001T   00001928+0000001425          1400 S94855               1BZ
103736000103736               103736               170213BG     1400+00000+BG0000012892+0000012892+000000000+000001806+0000014690+0000000008+I20000000000+0000014690+Z
103736001103736586-010754     103736006001492107547WATCH LDS HOT DEAL ASST0000001000+00011402+00000+0001T   00011402+0000001434          1400 S94160               1BZ
103736002103736077-000299     103736006003000395576G/BAG 32x25cm LRG LOVE 0000001000+00001490+00000+0001T   00001490+0000001434          1400 S94112               1BZ
103737000103737               103737               170213BG     1400+00000+BG0000009683+0000009683+000000000+000001356+0000011030+0000000009+I20000000000+0000011030+Z
103737001103737030-004015     103737006003000467624PLAQUE WDN SIGN 30X20CM0000001000+00009648+00000+0001T   00009648+0000001434          1400 S94505               1BZ
103737002103737112-116038     103737006009681820246TCS CARRIER BAG MIDI   0000001000+00000035+00000+0001T   00000035+0000001434          1400 S94090               1BZ
103738000103738               103738               170213BG     1400+00000+BG0000004997+0000004997+000000000+000000700+0000005690+0000000007+I20000000000+0000005690+Z
103738001103738018-000136     103738006001023659026MUG OCC LOVE W/PLUSH   0000001000+00003507+00000+0001T   00003507+0000001438          1400 S94515               1BZ
103738002103738077-000299     103738006003000395576G/BAG 32x25cm LRG LOVE 0000001000+00001490+00000+0001T   00001490+0000001438          1400 S94112               1BZ
103739000103739               103739               170213BG     1400+00000+BG0000007892+0000007892+000000000+000001106+0000008990+0000000008+I20000000000+0000008990+Z
103739001103739077-000270     103739006003000395453GIFT-BAG PPR JMB 33X45 0000001000+00002630+00000+0001T   00002630+0000001439          1400 S94112               1BZ
103739002103739031-006541     103739006001023695062P/FRAME COLLAGE PL ASST0000001000+00005262+00000+0001T   00005262+0000001439          1400 S94510               1BZ
103740000103740               103740               170213BG     1400+00000+BG0000001664+0000001664+000000000+000000233+0000001890+0000000007+I20000000000+0000001890+Z
103740001103740903-000674     103740006009803358220SWT SHERBET W/LOLLY 4PK0000001000+00001314+00000+0001T   00001314+0000001441          1400 S94150               1BZ
103740002103740903-000159     103740006003000417629SWT LB SMALL DUMMIE    0000001000+00000350+00000+0001T   00000350+0000001441          1400 S94150               1BZ
103741000103741               103741               170213BG     1400+00000+BG0000007893+0000007893+000000000+000001106+0000008990+0000000009+I20000000000+0000008990+Z
103741001103741035-000023     103741006001023898944UMBRELLA WITH PL COVER 0000001000+00007893+00000+0001T   00007893+0000001444          1400 S94205               1BZ
103742000103742               103742               170213BG     1400+00000+BG0000013905+0000013905+000000000+000001948+0000015850+0000000003+I20000000000+0000015850+Z
103742001103742112-116069     103742006009681820277TCS CARRIER BAG JUMBO  0000001000+00000048+00000+0001T   00000048+0000001448          1400 S94090               1BZ
103742002103742018-000127     103742006001023380289MUG OCC STRAIGHT LOVE  0000001000+00001578+00000+0001T   00001753+0006471448          1400 S94515               1BZ
103742003103742368-000113     103742006001023780874PLUSH BLINGED LOVE 30cm0000001000+00012279+00000+0001T   00012279+0000001448          1400 S94745               1BZ
103743000103743               103743               170213BG     1400+00000+BG0000006049+0000006049+000000000+000000848+0000006890+0000000007+I20000000000+0000006890+Z
103743001103743024-000067     103743006001023770097SPATULA-SET 3PCE WHITE 0000001000+00003069+00000+0001T   00003069+0000001450          1400 S94300               1BZ
103743002103743002-000970     103743006001023770578FUNNELS 3PCE WHITE     0000001000+00001227+00000+0001T   00001227+0000001450          1400 S94300               1BZ
103743003103743046-000014-A   103743004897006177708BATTERIES SIZE:AAA 8PCE0000001000+00001753+00000+0001T   00001753+0000001450          1400 S94312               1BZ
103744000103744               103744               170213BG     1400+00000+BG0000001490+0000001490+000000000+000000209+0000001690+0000000009+I20000000000+0000001690+Z
103744001103744077-000299     103744006003000395576G/BAG 32x25cm LRG LOVE 0000001000+00001490+00000+0001T   00001490+0000001454          1400 S94112               1BZ
103745000103745               103745               170213BG     1400+00000+BG0000002452+0000002452+000000000+000000344+0000002790+0000000006+I20000000000+0000002790+Z
103745001103745006-001000     103745006003000093779HELIUM BALLOON FILL    0000004000+00000613+00000+0001T   00000613+0000001522          1400 S94131               1BZ
103746000103746               103746               170213BG     1400+00000+BG0000013155+0000013155+000000000+000001843+0000014990+0000000008+I20000000000+0000014990+Z
103746001103746077-000299-A   103746006003000670888GIFT-BAG PAPER JMB LOVE0000001000+00001753+00000+0001T   00001753+0000001529          1400 S94112               1BZ
103746002103746368-000637     103746006001023874092PLUSH BEAR SLEEPING LOV0000001000+00011402+00000+0001T   00012279+0006471529          1400 S94745               1BZ
103747000103747               103747               170213BG     1400+00000+BG0000002628+0000002628+000000000+000000368+0000002990+0000000006+I20000000000+0000002990+Z
103747001103747903-004950     103747006002580020304SWT APRICOT SURPRISE   0000002000+00001314+00000+0001T   00001314+0000001539          1400 S94150               1BZ
103748000103748               103748               170213BG     1400+00000+BG0000001753+0000001753+000000000+000000246+0000001990+0000000009+I20000000000+0000001990+Z
103748001103748467-000002     103748006001023354518BEACH-SET PL 2PCE      0000001000+00001753+00000+0001T   00001753+0000001543          1400 S94785               1BZ
103749000103749               103749               170213BG     1400+00000+BG0000004385+0000004385+000000000+000000614+0000004990+0000000009+I20000000000+0000004990+Z
103749001103749019-000102     103749006003000280919VASE GLS BUD 18X6CM    0000001000+00004385+00000+0001T   00004385+0000001547          1400 S94510               1BZ
103750000103750               103750               170213BG     1400+00000+BG0000006174+0000006174+000000000+000000865+0000007030+0000000009+I20000000000+0000007030+Z
103750001103750112-116038     103750006009681820246TCS CARRIER BAG MIDI   0000001000+00000035+00000+0001T   00000035+0000001549          1400 S94090               1BZ
103750002103750305-074058     103750006001023816658W/CHIMES D/WOODEN 65cm 0000001000+00006139+00000+0001T   00006139+0000001549          1400 S94505               1BZ
103751000103751               103751               170213BG     1400+00000+BG0000003506+0000003506+000000000+000000492+0000003998+0000000000+I40000003998+0000000000+Z
103751001103751080-000116     103751006003000253555CARD&ENVELOPE-HANDMADE 0000001000+00001753+00000+0001T   00001753+0000001551          1400 S94112               1BZ
103751002103751077-000382     103751006003000247820GIFT-BAG MED 18X23CM   0000001000+00001753+00000+0001T   00001753+0000001551          1400 S94112               1BZ
103752000103752               103752               170213BG     1400+00000+BG0000001490+0000001490+000000000+000000209+0000001690+0000000009+I20000000000+0000001690+Z
103752001103752077-000299     103752006003000395576G/BAG 32x25cm LRG LOVE 0000001000+00001490+00000+0001T   00001490+0000001552          1400 S94112               1BZ
103753000103753               103753               170213BG     1400+00000+BG0000001314+0000001314+000000000+000000184+0000001490+0000000008+I20000000000+0000001490+Z
103753001103753046-000012     103753006904708013062BATTERIES AA  CARD-OF-40000001000+00001314+00000+0001T   00001314+0000001553          1400 S94312               1BZ
103754000103754               103754               170213BG     1400+00000+BG0000004385+0000004385+000000000+000000614+0000004990+0000000009+I20000000000+0000004990+Z
103754001103754567-000422     103754009780710515872BK EDU BATH EVA        0000001000+00004385+00000+0001T   00004385+0000001609          1400 S94757               1BZ
103755000103755               103755               170213BG     1400+00000+BG0000009647+0000009647+000000000+000001351+0000010990+0000000008+I20000000000+0000010990+Z
103755001103755082-000122-A   103755006003000403561READING GLS STRENGTH:1 0000001000+00005262+00000+0001T   00005262+0000001611          1400 S94160               1BZ
103755002103755082-000115     103755006003000360604READING GLS STRNGHT:2.50000001000+00004385+00000+0001T   00004385+0000001611          1400 S94160               1BZ
103756000103756               103756               170213BG     1400+00000+BG0000001314+0000001314+000000000+000000184+0000001490+0000000008+I20000000000+0000001490+Z
103756001103756034-000329     103756006001023564290BOTTLE-BRUSHES WHT 2PCE0000001000+00001314+00000+0001T   00001314+0000001612          1400 S94215               1BZ
103757000103757               103757               170213BG     1400+00000+BG0000001314+0000001314+000000000+000000184+0000001490+0000000008+I20000000000+0000001490+Z
103757001103757047-000503-H   103757006001023663849EUROMATE BOTTOM-ENTRY H0000001000+00001314+00000+0001T   00001314+0000001613          1400 S94880               1BZ
103758000103758               103758               170213BG     1400+00000+BG0000001490+0000001490+000000000+000000209+0000001690+0000000009+I20000000000+0000001690+Z
103758001103758077-000299     103758006003000395576G/BAG 32x25cm LRG LOVE 0000001000+00001490+00000+0001T   00001490+0000001647          1400 S94112               1BZ
103759000103759               103759               170213BG     1400+00000+BG0000004731+0000004731+000000000+000000663+0000005390+0000000004+I20000000000+0000005390+Z
103759001103759006-000167-C   103759006003000516971BALLOONS PINK METALLIC 0000001000+00001314+00000+0001T   00001314+0000001656          1400 S94131               1BZ
103759002103759077-000311     103759006001023608666GIFT-BAG 11X14CM GLOSS 0000003000+00000613+00000+0001T   00000613+0000001656          1400 S94112               1BZ
103759003103759077-000303     103759006001023593757GIFT-BAG PAPER MED     0000001000+00001578+00000+0001T   00001578+0000001656          1400 S94112               1BZ
103760000103760               103760               170213BG     1400+00000+BG0000001314+0000001314+000000000+000000184+0000001490+0000000008+I20000000000+0000001490+Z
103760001103760080-000114     103760006003000246472CARD&ENV LOVE-MUSICAL  0000001000+00001314+00000+0001T   00001753+0008151715          1400 MU1112               1BZ
103761000103761               103761               170213BG     1400+00000+BG0000012669+0000012669+000000000+000001777+0000014440+0000000006+I20000000000+0000014440+Z
103761001103761133-000009     103761006003000060726KITCHEN SWAB 3PC M/FIBR0000001000+00003507+00000+0001T   00003507+0000001716          1400 MU1212               1BZ
103761002103761369-000215     103761006001023857071BABY EDU BATHTIME BOATS0000001000+00002630+00000+0001T   00002630+0000001716          1400 MU1745               1BZ
103761003103761903-000087     103761006001704000161SWT SPECKLED-EGGS 50G  0000002000+00001139+00000+0001T   00001139+0000001716          1400 MU1150               1BZ
103761004103761564-000015     103761006003000140862BUBBLE TEST TUBE       0000002000+00001753+00000+0001T   00001753+0000001716          1400 MU1131               1BZ
103761005103761564-000012     103761006001023130075BUBBLE BOTTLE MAGIC    0000001000+00000700+00000+0001T   00000700+0000001716          1400 MU1131               1BZ
103761006103761112-116069     103761006009681820277TCS CARRIER BAG JUMBO  0000001000+00000048+00000+0001T   00000048+0000001716          1400 MU1090               1BZ
103762000103762               103762               170213BG     1400+00000+BG0000006083+0000006083+000000000+000000853+0000006930+0000000006+I20000000000+0000006930+Z
103762001103762206-000150     103762006003000628667SLICER CUCUMBER        0000001000+00002192+00000+0001T   00002192+0000001720          1400 MU1321               1BZ
103762002103762018-000170     103762006001023775528MUG OCC. LOVE 2PC MINI 0000001000+00002192+00000+0001T   00002192+0000001720          1400 MU1515               1BZ
103762003103762112-116038     103762006009681820246TCS CARRIER BAG MIDI   0000001000+00000035+00000+0001T   00000035+0000001720          1400 MU1090               1BZ
103762004103762077-000314     103762006003000181148GIFT-BAG 11X14CM MATT  0000001000+00000876+00000+0001T   00000876+0000001720          1400 MU1112               1BZ
103762005103762903-000200     103762006009826020234SWT CHOC RP CHOCO 23G  0000001000+00000788+00000+0001T   00000788+0000001720          1400 MU1150               1BZ
103763000103763               103763               170213BG     1400+00000+BG0000013155+0000013155+000000000+000001843+0000014990+0000000008+I20000000000+0000014990+Z
103763001103763077-000299-A   103763006003000670888GIFT-BAG PAPER JMB LOVE0000001000+00001753+00000+0001T   00001753+0000001724          1400 MU1112               1BZ
103763002103763368-000637     103763006001023874092PLUSH BEAR SLEEPING LOV0000001000+00011402+00000+0001T   00012279+0006471724          1400 MU1745               1BZ
103764000103764               103764               170213BG     1400+00000+BG0000006139+0000006139+000000000+000000860+0000006999+0000000000+I40000006999+0000000000+Z
103764001103764368-000184     103764006003000668298PLUSH LAMB 23cm        0000001000+00006139+00000+0001T   00006139+0000001728          1400 MU1745               1BZ
103765000103765               103765               170213BG     1400+00000+BG0000010261+0000010261+000000000+000001437+0000011690+0000000008+I20000000000+0000011690+Z
103765001103765077-000299     103765006003000395576G/BAG 32x25cm LRG LOVE 0000001000+00001490+00000+0001T   00001490+0000001729          1400 MU1112               1BZ
103765002103765368-000614     103765006001023705808PLUSH LOVE 30cm        0000001000+00008771+00000+0001T   00008771+0000001729          1400 MU1745               1BZ
103766000103766               103766               170213BG     1400+00000+BG0000002278+0000002278+000000000+000000319+0000002590+0000000007+I20000000000+0000002590+Z
103766001103766018-000177     103766006001023797513MUG MINI LOVE ASSTD    0000001000+00000700+00000+0001T   00000700+0000001736          1400 S94515               1BZ
103766002103766077-000303     103766006001023593757GIFT-BAG PAPER MED     0000001000+00001578+00000+0001T   00001578+0000001736          1400 S94112               1BZ
M17021391                              CASH        BGSLAVE 1                       Z-REPORT No.   596TOTAL (Sales - Refunds)           5116.86       CASH TO BE BANKED                 4166.20       DEBIT CARDS                          0.00       CREDIT CARDS                       950.76       Z-READING                         5116.86       AIRTIME DEBIT CARD SALES             0.00       AIRTIME CARD SALES                   0.00       OVERS/UNDERS                         0.10       AIRTIME CASH SALES                   0.00       GIFT CARDS                           0.00       GIFT CARD CASH SALES                 0.00       T O T A L  CASH PAYOUTS              0.00                                                                                                                                                                                                                                                                                                                                                      Z
M17021392                              CASH        BGABSENT                                                                                                                                                                                          ANNUAL LEAVE                                                                                                                                                                                    DAY OFF                                                                                                                                                                                         COMMENTS          Z READING 5116.86                                                                                                                                                                                                                                                                                                                                                            Z
Y17021300                                          BG00000000449164+000067
ZBG17021319203 SLAVE 1      SALES DATA                     NEXT INVOICE NO.  103767 0596
X BG Slave 1 First invoice 103700 170213 Last invoice 103766 170213 Next invoice 103767 Total number of records 000000218 clbackup completed 19:20:17
