103114000103114               103114               170213BH     1400+00000+BH0000003117+0000003117+000000000+000000437+0000003550+0000000004+I20000000000+0000003550+Z
103114001103114301-085008     103114006003000673933ORN OCC.LOVE TINSEL HRT0000001000+00003069+00000+0001T   00003069+0000000909          1400 GL6505               1DZ
103114002103114112-116069     103114006009681820277TCS CARRIER BAG JUMBO  0000001000+00000048+00000+0001T   00000048+0000000909          1400 GL6090               1DZ
103115000103115               103115               170213BH     1400+00000+BH0000003507+0000003507+000000000+000000491+0000003990+0000000008+I20000000000+0000003990+Z
103115001103115018-005009     103115006001023725608MUG W/PLUSH-BEAR LOVE  0000001000+00003507+00000+0001T   00003507+0000000910          1400 GL6515               1DZ
103116000103116               103116               170213BH     1400+00000+BH0000005875+0000005875+000000000+000000823+0000006698+0000000000+I40000006698+0000000000+Z
103116001103116031-080508     103116006001023802415P/FRAME PL 22X11CM LOVE0000001000+00004385+00000+0001T   00004385+0000000915          1400 GL6510               1DZ
103116002103116077-000299     103116006003000395576G/BAG 32x25cm LRG LOVE 0000001000+00001490+00000+0001T   00001490+0000000915          1400 GL6112               1DZ
103117000103117               103117               170213BH     1400+00000+BH0000001578+0000001578+000000000+000000221+0000001790+0000000009+I20000000000+0000001790+Z
103117001103117071-001002     103117006003000217540PENCIL-SHARPNER DOUBLE 0000001000+00001578+00000+0001T   00001578+0000000916          1400 GL6130               1DZ
103118000103118               103118               170213BH     1400+00000+BH0000002192+0000002192+000000000+000000307+0000002490+0000000009+I20000000000+0000002490+Z
103118001103118018-000170     103118006001023775528MUG OCC. LOVE 2PC MINI 0000001000+00002192+00000+0001T   00002192+0000000916          1400 GL6515               1DZ
103119000103119               103119               170213BH     1400+00000+BH0000002979+0000002979+000000000+000000418+0000003397+0000000000+I40000003397+0000000000+Z
103119001103119077-000245     103119006001023759214GIFT-RIBBON METALLICx2 0000001000+00001227+00000+0001T   00001227+0000000920          1400 GL6112               1DZ
103119002103119077-000151     103119006008766114676GIFT-WRAP C/PHANE ASSTD0000002000+00000876+00000+0001T   00000876+0000000920          1400 GL6112               1DZ
103120000103120               103120               170213BH     1400+00000+BH0000003507+0000003507+000000000+000000491+0000003998+0000000000+I40000003998+0000000000+Z
103120001103120054-009026     103120006001023627735PAINT-BRUSH ASSTD      0000001000+00003507+00000+0001T   00003507+0000000924          1400 GL6810               1DZ
103121000103121               103121               170213BH     1400+00000+BH0000001753+0000001753+000000000+000000246+0000001990+0000000009+I20000000000+0000001990+Z
103121001103121200-003026     103121006003000276448REFUSE BAGS 10PCE GREEN0000001000+00001753+00000+0001T   00001753+0000000930          1400 GL6214               1DZ
103122000103122               103122               170213BH     1400+00000+BH0000007012+0000007012+000000000+000000984+0000007996+0000000000+I40000007996+0000000000+Z
103122001103122080-000115     103122006003000237333CARD&ENVELOPE - BLANKS 0000001000+00001753+00000+0001T   00001753+0000000935          1400 GL6112               1DZ
103122002103122080-000103     103122006003000236961CARD&ENVLOPE BDAY-MALE 0000002000+00001753+00000+0001T   00001753+0000000935          1400 GL6112               1DZ
103122003103122080-000111     103122006003000252695CARD&ENVELPE - MUSICAL 0000001000+00001753+00000+0001T   00001753+0000000935          1400 GL6112               1DZ
103123000103123               103123               170213BH     1400+00000+BH0000021572+0000021572+000000000+000003023+0000024595+0000000000+I40000024595+0000000000+Z
103123001103123903-000898     103123006922516801503SWT POPPING CANDY      0000002000+00001139+00000+0001T   00001139+0000000936          1400 GL6150               1DZ
103123002103123046-002032-PK2 103123004897006175063BATTERIES CR-2032  2PCE0000002000+00001753+00000+0001T   00001753+0000000936          1400 GL6312               1DZ
103123003103123002-250030     103123006003000268641K/SCALE DIGITAL 5kg    0000001000+00015788+00000+0001T   00015788+0000000936          1400 GL6300               1DZ
103124000103124               103124               170213BH     1400+00000+BH0000004385+0000004385+000000000+000000614+0000004990+0000000009+I20000000000+0000004990+Z
103124001103124082-000110     103124006003000360482READING GLS STRENGHT:2 0000001000+00004385+00000+0001T   00004385+0000000941          1400 GL6160               1DZ
103125000103125               103125               170213BH     1400+00000+BH0000001753+0000001753+000000000+000000246+0000001990+0000000009+I20000000000+0000001990+Z
103125001103125009-001455     103125006001023696038MELAMINE PLATE 25cm    0000001000+00001753+00000+0001T   00001753+0000000941          1400 GL6210               1DZ
103126000103126               103126               170213BH     1400+00000+BH0000002227+0000002227+000000000+000000312+0000002530+0000000009+I20000000000+0000002530+Z
103126001103126566-000031     103126006003000283910STICKER BK TEACHER STIC0000001000+00002192+00000+0001T   00002192+0000000943          1400 GL6130               1DZ
103126002103126112-116038     103126006009681820246TCS CARRIER BAG MIDI   0000001000+00000035+00000+0001T   00000035+0000000943          1400 GL6090               1DZ
103127000103127               103127               170213BH     1400+00000+BH0000005262+0000005262+000000000+000000737+0000005999+0000000000+I40000005999+0000000000+Z
103127001103127082-000122-C   103127006003000403714READING GLS STRENGTH:2 0000001000+00005262+00000+0001T   00005262+0000000945          1400 GL6160               1DZ
103128000103128               103128               170213BH     1400+00000+BH0000002628+0000002628+000000000+000000369+0000002990+0000000007+I20000000000+0000002990+Z
103128001103128077-000151     103128006008766114676GIFT-WRAP C/PHANE ASSTD0000003000+00000876+00000+0001T   00000876+0000000955          1400 GL6112               1DZ
103129000103129               103129               170213BH     1400+00000+BH0000002192+0000002192+000000000+000000307+0000002490+0000000009+I20000000000+0000002490+Z
103129001103129050-000363-Z   103129006001023475282PADLOCK IRON 32mm CARD 0000001000+00002192+00000+0001T   00002192+0000000958          1400 GL6855               1DZ
103130000103130               103130               170213BH     1400+00000+BH0000022057+0000022057+000000000+000003091+0000025148+0000000000+I40000025148+0000000000+Z
103130001103130903-000087     103130006001704000161SWT SPECKLED-EGGS 50G  0000002000+00001139+00000+0001T   00001139+0000001000          1400 GL6150               1DZ
103130002103130018-000136     103130006001023659026MUG OCC LOVE W/PLUSH   0000001000+00003507+00000+0001T   00003507+0000001000          1400 GL6515               1DZ
103130003103130368-000637     103130006001023874092PLUSH BEAR SLEEPING LOV0000001000+00011402+00000+0001T   00012279+0006471000          1400 GL6745               1DZ
103130004103130369-001138-D   103130006003000097623BABY BATH VINYL THEMED 0000001000+00002630+00000+0001T   00002630+0000001000          1400 GL6745               1DZ
103130005103130112-116069     103130006009681820277TCS CARRIER BAG JUMBO  0000001000+00000048+00000+0001T   00000048+0000001000          1400 GL6090               1DZ
103130006103130565-000015     103130006003000672035NOVELTY SLIME ANIMAL   0000001000+00002192+00000+0001T   00002192+0000001000          1400 GL6745               1DZ
103131000103131               103131               170213BH     1400+00000+BH0000000876+0000000876+000000000+000000123+0000000990+0000000009+I20000000000+0000000990+Z
103131001103131084-070005     103131006001023627902NAIL FILES 6PCE H/GLOW 0000001000+00000876+00000+0001T   00000876+0000001000          1400 GL6200               1DZ
103132000103132               103132               170213BH     1400+00000+BH0000001753+0000001753+000000000+000000246+0000001990+0000000009+I20000000000+0000001990+Z
103132001103132200-003024     103132006001023657299REFUSE BAGS 20PCE BLACK0000001000+00001753+00000+0001T   00001753+0000001033          1400 GL6214               1DZ
103133000103133               103133               170213BH     1400+00000+BH0000000874+0000000874+000000000+000000124+0000000998+0000000000+I40000000998+0000000000+Z
103133001103133080-000133-A   103133006003000647019MINI VALENTINES CARD   0000002000+00000437+00000+0001T   00000437+0000001034          1400 GL6112               1DZ
103134000103134               103134               170213BH     1400+00000+BH0000003069+0000003069+000000000+000000430+0000003490+0000000009+I20000000000+0000003490+Z
103134001103134072-000012     103134006001023602510PET DOG/CAT BRUSH 23cm 0000001000+00003069+00000+0001T   00003069+0000001035          1400 GL6870               1DZ
103135000103135               103135               170213BH     1400+00000+BH0000001753+0000001753+000000000+000000246+0000001990+0000000009+I20000000000+0000001990+Z
103135001103135080-000103     103135006003000236961CARD&ENVLOPE BDAY-MALE 0000001000+00001753+00000+0001T   00001753+0000001037          1400 GL6112               1DZ
103136000103136               103136               170213BH     1400+00000+BH0000004780+0000004780+000000000+000000672+0000005450+0000000002+I20000000000+0000005450+Z
103136001103136079-009702-F   103136008427973059392PAPER SIRIO A2 GREEN   0000001000+00001051+00000+0001T   00001051+0000001059          1400 GL6130               1DZ
103136002103136007-010494     103136006003000500505BOARD BLACK WITH CHALK 0000001000+00002630+00000+0001T   00002630+0000001059          1400 GL6130               1DZ
103136003103136112-116069     103136006009681820277TCS CARRIER BAG JUMBO  0000001000+00000048+00000+0001T   00000048+0000001059          1400 GL6090               1DZ
103136004103136079-009702-E   103136008427973059439PAPER SIRIO A2 BLUE    0000001000+00001051+00000+0001T   00001051+0000001059          1400 GL6130               1DZ
103137000103137               103137               170213BH     1400+00000+BH0000012277+0000012277+000000000+000001720+0000013997+0000000000+I40000013997+0000000000+Z
103137001103137301-086005     103137006001023856289ORN OCC MOM WDN LETTERS0000001000+00004385+00000+0001T   00004385+0000001101          1400 GL6505               1DZ
103137002103137301-085001     103137006003000297610ORN WATERBALL LOVE ASST0000001000+00004823+00000+0001T   00004823+0000001101          1400 GL6505               1DZ
103137003103137089-060027     103137006003000245871KEY-CHAIN HEART 6X6cm  0000001000+00003069+00000+0001T   00003069+0000001101          1400 GL6205               1DZ
103138000103138               103138               170213BH     1400+00000+BH0000004420+0000004420+000000000+000000619+0000005039+0000000000+I40000005039+0000000000+Z
103138001103138001-000175     103138006001023788108B/MUG GLS LOVE 380ML   0000001000+00004385+00000+0001T   00004385+0000001103          1400 GL6515               1DZ
103138002103138112-116038     103138006009681820246TCS CARRIER BAG MIDI   0000001000+00000035+00000+0001T   00000035+0000001103          1400 GL6090               1DZ
103139000103139               103139               170213BH     1400+00000+BH0000001139+0000001139+000000000+000000160+0000001290+0000000009+I20000000000+0000001290+Z
103139001103139140-006004     103139006001023628077FLY-SWATTER RUBBER     0000001000+00001139+00000+0001T   00001139+0000001104          1400 GL6830               1DZ
103140000103140               103140               170213BH     1400+00000+BH0000012358+0000012358+000000000+000001733+0000014091+0000000000+I40000014091+0000000000+Z
103140001103140463-000366     103140006001023789136SWIM W/NOODLE 150cm    0000001000+00002630+00000+0001T   00002630+0000001112          1400 GL6785               1DZ
103140002103140107-004105     103140006009703860984BUCKET 9L OPEN         0000001000+00001314+00000+0001T   00001314+0000001112          1400 GL6210               1DZ
103140003103140150-000775     103140006001023129253UTILITY-BOX LARGE      0000002000+00002367+00000+0001T   00002367+0000001112          1400 GL6810               1DZ
103140004103140903-000215     103140006002099001214SWT GS MALLOW TWIST PAC0000001000+00001753+00000+0001T   00001753+0000001112          1400 GL6150               1DZ
103140005103140903-000518     103140006001704012782SWT STRAWS S/BERRY 100g0000001000+00001227+00000+0001T   00001227+0000001112          1400 GL6150               1DZ
103140006103140565-000735     103140006003000615674NOVELTY PUTTY BOUNCING 0000001000+00000700+00000+0001T   00000700+0000001112          1400 GL6745               1DZ
103141000103141               103141               170213BH     1400+00000+BH0000002630+0000002630+000000000+000000369+0000002990+0000000009+I20000000000+0000002990+Z
103141001103141565-000890     103141006003000322107NOVELTY HIBOUNCE BALL  0000001000+00002630+00000+0001T   00002630+0000001113          1400 GL6745               1DZ
103142000103142               103142               170213BH     1400+00000+BH0000005262+0000005262+000000000+000000737+0000005990+0000000009+I20000000000+0000005990+Z
103142001103142039-000500     103142006001023816450C/VOTIVE 8PC RAINBOW   0000001000+00005262+00000+0001T   00005262+0000001154          1400 GL6510               1DZ
103143000103143               103143               170213BH     1400+00000+BH0000010997+0000010997+000000000+000001540+0000012537+0000000000+I40000012537+0000000000+Z
103143001103143030-004015     103143006003000467624PLAQUE WDN SIGN 30X20CM0000001000+00009648+00000+0001T   00009648+0000001156          1400 GL6505               1DZ
103143002103143903-000194     103143006009826020616SWT CHOC RP LOLLY 25G  0000001000+00001314+00000+0001T   00001314+0000001156          1400 GL6150               1DZ
103143003103143112-116038     103143006009681820246TCS CARRIER BAG MIDI   0000001000+00000035+00000+0001T   00000035+0000001156          1400 GL6090               1DZ
103144000103144               103144               170213BH     1400+00000+BH0000002366+0000002366+000000000+000000332+0000002690+0000000008+I20000000000+0000002690+Z
103144001103144903-000504     103144006001704012416SWT CHOC JELLY BEANS   0000001000+00001227+00000+0001T   00001227+0000001207          1400 GL6150               1DZ
103144002103144903-000087     103144006001704000161SWT SPECKLED-EGGS 50G  0000001000+00001139+00000+0001T   00001139+0000001207          1400 GL6150               1DZ
103145000103145               103145               170213BH     1400+00000+BH0000002630+0000002630+000000000+000000369+0000002999+0000000000+I40000002999+0000000000+Z
103145001103145071-030012     103145006003000283842PEN NVLTY GLITTER 6PC  0000001000+00002630+00000+0001T   00002630+0000001304          1400 GL6130               1DZ
103146000103146               103146               170213BH     1400+00000+BH0000019731+0000019731+000000000+000002764+0000022495+0000000000+I40000022495+0000000000+Z
103146001103146464-000249     103146006003000611782GAME GIANT MAT         0000001000+00011402+00000+0001T   00011402+0000001305          1400 GL6785               1DZ
103146002103146033-001402     103146006009654960498HAIR-CURLERS 6PCE LRG  0000002000+00001227+00000+0001T   00001227+0000001305          1400 GL6200               1DZ
103146003103146007-000547     103146006001023847966N/BOOK/DIARY+PEN ASSTD 0000001000+00004385+00000+0001T   00004385+0000001305          1400 GL6130               1DZ
103146004103146159-080352     103146006916920733314HOOKS 3PCE             0000001000+00001490+00000+0001T   00001490+0000001305          1400 GL6200               1DZ
103147000103147               103147               170213BH     1400+00000+BH0000003116+0000003116+000000000+000000437+0000003550+0000000003+I20000000000+0000003550+Z
103147001103147077-000299     103147006003000395576G/BAG 32x25cm LRG LOVE 0000001000+00001490+00000+0001T   00001490+0000001306          1400 GL6112               1DZ
103147002103147077-000303     103147006001023593757GIFT-BAG PAPER MED     0000001000+00001578+00000+0001T   00001578+0000001306          1400 GL6112               1DZ
103147003103147112-116069     103147006009681820277TCS CARRIER BAG JUMBO  0000001000+00000048+00000+0001T   00000048+0000001306          1400 GL6090               1DZ
103148000103148               103148               170213BH     1400+00000+BH0000002630+0000002630+000000000+000000369+0000002990+0000000009+I20000000000+0000002990+Z
103148001103148266-003012     103148006001023786128BOYS P/SET ARCHERY 4pc 0000001000+00002630+00000+0001T   00002630+0000001309          1400 GL6710               1DZ
103149000103149               103149               170213BH     1400+00000+BH0000012187+0000012187+000000000+000001708+0000013890+0000000005+I20000000000+0000013890+Z
103149001103149088-000052     103149006001023760401T/FRESHENER CISTERN BLK0000001000+00000876+00000+0001T   00000876+0000001313          1400 GL6212               1DZ
103149002103149007-000104     103149006009685854865BK COVER BRWN KRFT ROLL0000001000+00000350+00000+0001T   00000350+0000001313          1400 GL6130               1DZ
103149003103149033-005931     103149006001023678447PINS ON-WHEEL PEARLIZED0000001000+00000876+00000+0001T   00000876+0000001313          1400 GL6200               1DZ
103149004103149200-000002     103149006925406821049BAG FLIP TOP 80PCE     0000001000+00002192+00000+0001T   00002192+0000001313          1400 GL6214               1DZ
103149005103149003-009206     103149006003000406203ORN W/PLAQUE 18.5X10CM 0000001000+00007893+00000+0001T   00007893+0000001313          1400 GL6505               1DZ
103150000103150               103150               170213BH     1400+00000+BH0000002629+0000002629+000000000+000000369+0000002990+0000000008+I20000000000+0000002990+Z
103150001103150084-006996     103150006003000092833NAIL CLIPPER 6cm       0000001000+00001753+00000+0001T   00001753+0000001320          1400 GL6200               1DZ
103150002103150903-000221     103150006001704007382SWT EENY-MEENY-MOS 60G 0000001000+00000876+00000+0001T   00000876+0000001320          1400 GL6150               1DZ
103151000103151               103151               170213BH     1400+00000+BH0000003507+0000003507+000000000+000000491+0000003990+0000000008+I20000000000+0000003990+Z
103151001103151018-005009     103151006001023725608MUG W/PLUSH-BEAR LOVE  0000001000+00003507+00000+0001T   00003507+0000001321          1400 GL6515               1DZ
103152000103152               103152               170213BH     1400+00000+BH0000010566+0000010566+000000000+000001480+0000012040+0000000006+I20000000000+0000012040+Z
103152001103152018-000127     103152006001023380289MUG OCC STRAIGHT LOVE  0000002000+00001578+00000+0001T   00001753+0006471323          1400 GL6515               1DZ
103152002103152368-000183     103152006003000668175PLUSH BEAR 15cm        0000001000+00005262+00000+0001T   00005262+0000001323          1400 GL6745               1DZ
103152003103152112-116069     103152006009681820277TCS CARRIER BAG JUMBO  0000001000+00000048+00000+0001T   00000048+0000001323          1400 GL6090               1DZ
103152004103152018-000177     103152006001023797513MUG MINI LOVE ASSTD    0000003000+00000700+00000+0001T   00000700+0000001323          1400 GL6515               1DZ
103153000103153               103153               170213BH     1400+00000+BH0000001753+0000001753+000000000+000000246+0000001990+0000000009+I20000000000+0000001990+Z
103153001103153162-081665     103153006001492816654SS 18PK HAIR ELASTICS  0000001000+00001753+00000+0001T   00001753+0000001325          1400 GL6160               1DZ
103154000103154               103154               170213BH     1400+00000+BH0000004385+0000004385+000000000+000000614+0000004990+0000000009+I20000000000+0000004990+Z
103154001103154039-000796     103154006001023617750CANDLES TEALITE BOX-8  0000001000+00004385+00000+0001T   00004385+0000001325          1400 GL6510               1DZ
103155000103155               103155               170213BH     1400+00000+BH0000003542+0000003542+000000000+000000496+0000004030+0000000008+I20000000000+0000004030+Z
103155001103155089-000200     103155006003000485840KEY CHAIN POLY LOVE IS 0000001000+00003507+00000+0001T   00004385+0008121327          1400 GL6205               1DZ
103155002103155112-116038     103155006009681820246TCS CARRIER BAG MIDI   0000001000+00000035+00000+0001T   00000035+0000001327          1400 GL6090               1DZ
103156000103156               103156               170213BH     1400+00000+BH0000002240+0000002240+000000000+000000314+0000002550+0000000004+I20000000000+0000002550+Z
103156001103156080-000127     103156006003000424351VALENTINES DAY 36x24CM 0000001000+00002192+00000+0001T   00002192+0000001328          1400 GL6112               1DZ
103156002103156112-116069     103156006009681820277TCS CARRIER BAG JUMBO  0000001000+00000048+00000+0001T   00000048+0000001328          1400 GL6090               1DZ
103157000103157               103157               170213BH     1400+00000+BH0000004385+0000004385+000000000+000000614+0000004999+0000000000+I40000004999+0000000000+Z
103157001103157048-000836     103157006001023765208TORCH RUBBER 3LED MED  0000001000+00004385+00000+0001T   00004385+0000001330          1400 GL6305               1DZ
103158000103158               103158               170213BH     1400+00000+BH0000002839+0000002839+000000000+000000399+0000003238+0000000000+I40000003238+0000000000+Z
103158001103158105-001005     103158006001023858214CONTAINERS MINI 6PCE   0000002000+00001402+00000+0001T   00001402+0000001332          1400 GL6210               1DZ
103158002103158112-116038     103158006009681820246TCS CARRIER BAG MIDI   0000001000+00000035+00000+0001T   00000035+0000001332          1400 GL6090               1DZ
103159000103159               103159               170213BH     1400+00000+BH0000011402+0000011402+000000000+000001597+0000012999+0000000000+I40000012999+0000000000+Z
103159001103159368-000637     103159006001023874092PLUSH BEAR SLEEPING LOV0000001000+00011402+00000+0001T   00012279+0006471333          1400 GL6745               1DZ
103160000103160               103160               170213BH     1400+00000+BH0000012276+0000012276+000000000+000001721+0000013990+0000000007+I20000000000+0000013990+Z
103160001103160108-003021     103160006003000343911MUG SUPER SIPPER 450ml 0000002000+00002630+00000+0001T   00002630+0000001335          1400 GL6210               1DZ
103160002103160079-000298     103160006003000647156PAINT SET FINGER PAINT 0000001000+00007016+00000+0001T   00007893+0008191335          1400 GL6130               1DZ
103161000103161               103161               170213BH     1400+00000+BH0000024599+0000024599+000000000+000003445+0000028044+0000000000+I40000028044+0000000000+Z
103161001103161566-000951     103161006003000217670STICKERS 3 STYLES ASSTD0000001000+00002192+00000+0001T   00002192+0000001342          1400 GL6130               1DZ
103161002103161566-000991     103161000721129013121STICKERS GLOW-IN-DARK  0000003000+00002192+00000+0001T   00002192+0000001342          1400 GL6130               1DZ
103161003103161301-000835     103161006003000035014ORN FAIRY SITTING 4ASST0000003000+00003507+00000+0001T   00003507+0000001342          1400 GL6505               1DZ
103161004103161003-009130     103161006003000673445ORN WELCOME STONE OVAL 0000001000+00005262+00000+0001T   00005262+0000001342          1400 GL6505               1DZ
103161005103161112-116069     103161006009681820277TCS CARRIER BAG JUMBO  0000001000+00000048+00000+0001T   00000048+0000001342          1400 GL6090               1DZ
103162000103162               103162               170213BH     1400+00000+BH0000010524+0000010524+000000000+000001474+0000011998+0000000000+I40000011998+0000000000+Z
103162001103162368-000614     103162006001023705808PLUSH LOVE 30cm        0000001000+00008771+00000+0001T   00008771+0000001343          1400 GL6745               1DZ
103162002103162903-000211     103162006002099001238SWT GS MALLOW ICE CREAM0000001000+00001753+00000+0001T   00001753+0000001343          1400 GL6150               1DZ
103163000103163               103163               170213BH     1400+00000+BH0000004385+0000004385+000000000+000000614+0000004990+0000000009+I20000000000+0000004990+Z
103163001103163082-007587     103163006003000654338SUNGLASS DESIGNER ASST 0000001000+00004385+00000+0001T   00004385+0000001347          1400 GL6160               1DZ
103164000103164               103164               170213BH     1400+00000+BH0000005085+0000005085+000000000+000000712+0000005790+0000000007+I20000000000+0000005790+Z
103164001103164031-000923     103164006001023669933P/FRAME BLK W/WORDS    0000001000+00003507+00000+0001T   00003507+0000001349          1400 GL6510               1DZ
103164002103164077-000303     103164006001023593757GIFT-BAG PAPER MED     0000001000+00001578+00000+0001T   00001578+0000001349          1400 GL6112               1DZ
103165000103165               103165               170213BH     1400+00000+BH0000003542+0000003542+000000000+000000496+0000004030+0000000008+I20000000000+0000004030+Z
103165001103165018-005009     103165006001023725608MUG W/PLUSH-BEAR LOVE  0000001000+00003507+00000+0001T   00003507+0000001356          1400 GL6515               1DZ
103165002103165112-116038     103165006009681820246TCS CARRIER BAG MIDI   0000001000+00000035+00000+0001T   00000035+0000001356          1400 GL6090               1DZ
103166000103166               103166               170213BH     1400+00000+BH0000002192+0000002192+000000000+000000307+0000002490+0000000009+I20000000000+0000002490+Z
103166001103166080-000127     103166006003000424351VALENTINES DAY 36x24CM 0000001000+00002192+00000+0001T   00002192+0000001403          1400 GL6112               1DZ
103167000103167               103167               170213BH     1400+00000+BH0000000035+0000000035+000000000+000000005+0000000040+0000000000+I20000000000+0000000040+Z
103167001103167112-116038     103167006009681820246TCS CARRIER BAG MIDI   0000001000+00000035+00000+0001T   00000035+0000001404          1400 GL6090               1DZ
103168000103168               103168               170213BH     1400+00000+BH0000002630+0000002630+000000000+000000369+0000002990+0000000009+I20000000000+0000002990+Z
103168001103168159-000038     103168006003000393954HOOKS HANGER S/S 2PCE  0000001000+00002630+00000+0001T   00002630+0000001405          1400 GL6200               1DZ
103169000103169               103169               170213BH     1400+00000+BH0000000350+0000000350+000000000+000000049+0000000390+0000000009+I20000000000+0000000390+Z
103169001103169903-000159     103169006003000417629SWT LB SMALL DUMMIE    0000001000+00000350+00000+0001T   00000350+0000001407          1400 GL6150               1DZ
103170000103170               103170               170213BH     1400+00000+BH0000013286+0000013286+000000000+000001863+0000015140+0000000009+I20000000000+0000015140+Z
103170001103170252-000021     103170006001023475213CURTAIN WIRE+HOOKS+EYES0000001000+00001753+00000+0001T   00001753+0000001428          1400 GL6810               1DZ
103170002103170047-000006-H   103170006001023704054M/PLUG 3x16A+3x5A+CARD 0000001000+00006665+00000+0001T   00006665+0000001428          1400 GL6880               1DZ
103170003103170251-000003     103170006003000266159TAPE D/S 18x300mm V/PCK0000001000+00002630+00000+0001T   00002630+0000001428          1400 GL6810               1DZ
103170004103170076-000017     103170006001811010022TWINE COTTON 50g-BALL  0000001000+00000876+00000+0001T   00000876+0000001428          1400 GL6810               1DZ
103170005103170112-116069     103170006009681820277TCS CARRIER BAG JUMBO  0000001000+00000048+00000+0001T   00000048+0000001428          1400 GL6090               1DZ
103170006103170565-000892-A   103170006003000690725NOVELTY FUN BALL       0000001000+00001314+00000+0001T   00001753+0008141428          1400 GL6745               1DZ
103171000103171               103171               170213BH     1400+00000+BH0000015163+0000015163+000000000+000002124+0000017287+0000000000+I40000017287+0000000000+Z
103171001103171018-019000     103171006003000557288MUG OCC. LOVE JUMBO    0000001000+00005262+00000+0001T   00005262+0000001653          1400 GL6515               1DZ
103171002103171903-000194     103171006009826020616SWT CHOC RP LOLLY 25G  0000004000+00001314+00000+0001T   00001314+0000001653          1400 GL6150               1DZ
103171003103171566-000031     103171006003000283910STICKER BK TEACHER STIC0000001000+00002192+00000+0001T   00002192+0000001653          1400 GL6130               1DZ
103171004103171566-002000     103171000721129013206STICKERS CRYSTAL ASSTD 0000001000+00000700+00000+0001T   00000700+0000001653          1400 GL6130               1DZ
103171005103171566-000028     103171006003000265541STICKER BK ASSTD 250PCE0000001000+00001753+00000+0001T   00001753+0000001653          1400 GL6130               1DZ
103172000103172               103172               170213BH     1400+00000+BH0000004383+0000004383+000000000+000000615+0000004990+0000000008+I20000000000+0000004990+Z
103172001103172162-096646     103172006001492966465#TAG HOT DEALS KIDS HR 0000001000+00002630+00000+0001T   00002630+0000001654          1400 GL6160               1DZ
103172002103172162-089176     103172006001492891767SS KIDS 2PK HEART SET  0000001000+00001753+00000+0001T   00001753+0000001654          1400 GL6160               1DZ
103173000103173               103173               170213BH     1400+00000+BH0000005310+0000005310+000000000+000000744+0000006050+0000000004+I20000000000+0000006050+Z
103173001103173263-000623     103173006001023905697VEHICLE HELICOPTER 30cm0000001000+00005262+00000+0001T   00005262+0000001654          1400 GL6710               1DZ
103173002103173112-116069     103173006009681820277TCS CARRIER BAG JUMBO  0000001000+00000048+00000+0001T   00000048+0000001654          1400 GL6090               1DZ
103174000103174               103174               170213BH     1400+00000+BH0000033198+0000033198+000000000+000004651+0000037849+0000000000+I40000037849+0000000000+Z
103174001103174018-000127     103174006001023380289MUG OCC STRAIGHT LOVE  0000001000+00001578+00000+0001T   00001753+0006471700          1400 GL6515               1DZ
103174002103174301-086007     103174006003000426706ORN OCC DAD WDN LETTERS0000001000+00004385+00000+0001T   00004385+0000001700          1400 GL6505               1DZ
103174003103174368-000637     103174006001023874092PLUSH BEAR SLEEPING LOV0000001000+00011402+00000+0001T   00012279+0006471700          1400 GL6745               1DZ
103174004103174368-000113     103174006001023780874PLUSH BLINGED LOVE 30cm0000001000+00012279+00000+0001T   00012279+0000001700          1400 GL6745               1DZ
103174005103174077-000299-A   103174006003000670888GIFT-BAG PAPER JMB LOVE0000002000+00001753+00000+0001T   00001753+0000001700          1400 GL6112               1DZ
103174006103174112-116069     103174006009681820277TCS CARRIER BAG JUMBO  0000001000+00000048+00000+0001T   00000048+0000001700          1400 GL6090               1DZ
103175000103175               103175               170213BH     1400+00000+BH0000005696+0000005696+000000000+000000800+0000006496+0000000000+I40000006496+0000000000+Z
103175001103175077-000270     103175006003000395453GIFT-BAG PPR JMB 33X45 0000001000+00002630+00000+0001T   00002630+0000001707          1400 GL6112               1DZ
103175002103175077-000010-C   103175006001023123879CREPE-PAPER RED        0000001000+00000788+00000+0001T   00000788+0000001707          1400 GL6112               1DZ
103175003103175077-000299     103175006003000395576G/BAG 32x25cm LRG LOVE 0000001000+00001490+00000+0001T   00001490+0000001707          1400 GL6112               1DZ
103175004103175077-000010-C   103175006001023123879CREPE-PAPER RED        0000001000+00000788+00000+0001T   00000788+0000001707          1400 GL6112               1DZ
103176000103176               103176               170213BH     1400+00000+BH0000008941+0000008941+000000000+000001255+0000010190+0000000006+I20000000000+0000010190+Z
103176001103176077-000270     103176006003000395453GIFT-BAG PPR JMB 33X45 0000001000+00002630+00000+0001T   00002630+0000001708          1400 GL6112               1DZ
103176002103176159-000117     103176006003000450398SHOWER CAP PVC ASSTD   0000001000+00002630+00000+0001T   00002630+0000001708          1400 GL6200               1DZ
103176003103176159-000020     103176006001023905543HAIR DRYING MICROFIBRE 0000001000+00002630+00000+0001T   00002630+0000001708          1400 GL6200               1DZ
103176004103176903-002850     103176000000087108262MENTOS ROLL FRUIT      0000001000+00001051+00000+0001T   00001051+0000001708          1400 GL6150               1DZ
103177000103177               103177               170213BH     1400+00000+BH0000001752+0000001752+000000000+000000246+0000001990+0000000008+I20000000000+0000001990+Z
103177001103177903-003080     103177005907029004673SWT SNACK STIX CHOC 50g0000002000+00000876+00000+0001T   00000876+0000001709          1400 GL6150               1DZ
103178000103178               103178               170213BH     1400+00000+BH0000001753+0000001753+000000000+000000246+0000001990+0000000009+I20000000000+0000001990+Z
103178001103178007-000723     103178006003000226078MEMO BOOK W/PEN 100SHTS0000001000+00001753+00000+0001T   00001753+0000001714          1400 GL6130               1DZ
A17021300                                          09045942BHSLAVE 1                       GL63IC
A17021301                                          09510845BHSLAVE 1                       GL63IC
A17021302                                          11070699BHSLAVE 1                       GL63IC
A17021303                                          11530048BHSLAVE 1                       GL63IC
C10311900                                          170213BH077-000115     09194562SLAVE 1     GL63IC0000000000+0000000000+0020000001000+
M17021391                              CASH        BHSLAVE 1                       Z-REPORT No.   484TOTAL (Sales - Refunds)           4566.37       CASH TO BE BANKED                 1837.40       DEBIT CARDS                       2728.97       CREDIT CARDS                         0.00       Z-READING                         4566.37       AIRTIME DEBIT CARD SALES             0.00       AIRTIME CARD SALES                   0.00       OVERS/UNDERS                         0.00       AIRTIME CASH SALES                   0.00       GIFT CARDS                           0.00       GIFT CARD CASH SALES                 0.00       T O T A L  CASH PAYOUTS              0.00                                                                                                                                                                                                                                                                                                                                                      Z
M17021392                              CASH        BHABSENT                                                                                                                                                                                          ANNUAL LEAVE                                                                                                                                                                                    DAY OFF                                                                                                                                                                                         COMMENTS                                                                                                                                                                                                                                                                                                                                                                                       Z
Y17021300                                          BH00000000400792+000065
ZBH17021319203 SLAVE 1      SALES DATA                     NEXT INVOICE NO.  103179 0484
F093709496-056475         1701111101170000072ICSLAVE 1
F093801496-028272         1701120952330000022ICSLAVE 1
F094072496-028122         1701130911520000023ICSLAVE 1
F094119463-000501         1701130912190000053ICSLAVE 1
T094462566-000309                                          1702131140300000031ICSLAVE 1
F094829006-000166-D       1702100905560000083ICSLAVE 1
X BH Slave 1 First invoice 103114 170213 Last invoice 103178 170213 Next invoice 103179 Total number of records 000000218 clbackup completed 19:20:28
