208743000208743               208743               170213BH     1400+00000+BH0000001753+0000001753+000000000+000000246+0000001990+0000000009+I20000000000+0000001990+Z
208743001208743200-003026     208743006003000276448REFUSE BAGS 10PCE GREEN0000001000+00001753+00000+0001T   00001753+0000000920          1400 BJ7214               2DZ
208744000208744               208744               170213BH     1400+00000+BH0000007713+0000007713+000000000+000001080+0000008793+0000000000+I40000008793+0000000000+Z
208744001208744266-000207     208744006001023708823GLIDER JET LAUNCHER    0000001000+00004385+00000+0001T   00004385+0000000945          1400 BJ7710               2DZ
208744002208744018-000177     208744006001023797513MUG MINI LOVE ASSTD    0000001000+00000700+00000+0001T   00000700+0000000945          1400 BJ7515               2DZ
208744003208744903-000194     208744006009826020616SWT CHOC RP LOLLY 25G  0000002000+00001314+00000+0001T   00001314+0000000945          1400 BJ7150               2DZ
208745000208745               208745               170213BH     1400+00000+BH0000000876+0000000876+000000000+000000123+0000000990+0000000009+I20000000000+0000000990+Z
208745001208745077-000011-D   208745006001023808554TISSUE-WRAP WHITE 10PCE0000001000+00000876+00000+0001T   00000876+0000000950          1400 BJ7112               2DZ
208746000208746               208746               170213BH     1400+00000+BH0000013856+0000013856+000000000+000001941+0000015797+0000000000+I40000015797+0000000000+Z
208746001208746403-000029     208746006003000246816JEWEL BOX POLY FAIRY   0000002000+00006139+00000+0001T   00006139+0000001037          1400 BJ7510               2DZ
208746002208746077-000303     208746006001023593757GIFT-BAG PAPER MED     0000001000+00001578+00000+0001T   00001578+0000001037          1400 BJ7112               2DZ
208747000208747               208747               170213BH     1400+00000+BH0000002192+0000002192+000000000+000000307+0000002490+0000000009+I20000000000+0000002490+Z
208747001208747566-000359     208747006003000582709STICKER BOOK LOVE SPARK0000001000+00002192+00000+0001T   00002192+0000001037          1400 BJ7130               2DZ
208748000208748               208748               170213BH     1400+00000+BH0000005219+0000005219+000000000+000000732+0000005950+0000000001+I20000000000+0000005950+Z
208748001208748079-011526     208748006003000408375GLITTER & SAND ART     0000001000+00003507+00000+0001T   00003507+0000001042          1400 BJ7130               2DZ
208748002208748567-014132     208748006003000560028BOOK COLOURING 24 PAGE 0000001000+00000876+00000+0001T   00000876+0000001042          1400 BJ7757               2DZ
208748003208748903-000137     208748006002099004130SWEET GS JELLY BEAN 60G0000001000+00000788+00000+0001T   00000788+0000001042          1400 BJ7150               2DZ
208748004208748112-116069     208748006009681820277TCS CARRIER BAG JUMBO  0000001000+00000048+00000+0001T   00000048+0000001042          1400 BJ7090               2DZ
208749000208749               208749               170213BH     1400+00000+BH0000001753+0000001753+000000000+000000246+0000001990+0000000009+I20000000000+0000001990+Z
208749001208749301-085002     208749006003000420704ORN OCC. LOVE BELL ASST0000001000+00001753+00000+0001T   00002630+0008121048          1400 BJ7505               2DZ
208750000208750               208750               170213BH     1400+00000+BH0000001314+0000001314+000000000+000000184+0000001490+0000000008+I20000000000+0000001490+Z
208750001208750007-000136     208750008427973108281BOOK COVER ROLL ASSTD  0000001000+00001314+00000+0001T   00001314+0000001049          1400 BJ7130               2DZ
208751000208751               208751               170213BH     1400+00000+BH0000010962+0000010962+000000000+000001535+0000012490+0000000007+I20000000000+0000012490+Z
208751001208751105-008005     208751006002580009484STORAGE CONTAINER 7.5L 0000002000+00004385+00000+0001T   00004385+0000001113          1400 BJ7210               2DZ
208751002208751002-000684     208751006001023693778K/TOOL TURNER H/HOUSE  0000001000+00002192+00000+0001T   00002192+0000001113          1400 BJ7300               2DZ
208752000208752               208752               170213BH     1400+00000+BH0000002630+0000002630+000000000+000000369+0000002990+0000000009+I20000000000+0000002990+Z
208752001208752077-000512     208752006003000590223GIFT-BAG DESIGNER LRG  0000001000+00002630+00000+0001T   00002630+0000001115          1400 BJ7112               2DZ
208753000208753               208753               170213BH     1400+00000+BH0000027579+0000027579+000000000+000003863+0000031442+0000000000+I40000031442+0000000000+Z
208753001208753567-075490     208753009780799371260BK NOVEL ROMANCE AFR   0000003000+00003507+00000+0001T   00003507+0000001121          1400 BJ7757               2DZ
208753002208753567-075497     208753009780799381641BK NOVEL ROMANCE AFR   0000001000+00006139+00000+0001T   00006139+0000001121          1400 BJ7757               2DZ
208753003208753567-075497     208753009780799371871BK NOVEL ROMANCE AFR   0000001000+00006139+00000+0001T   00006139+0000001121          1400 BJ7757               2DZ
208753004208753903-000095     208753006001704011495SWT SPECKLED-EGGS 100G 0000001000+00002104+00000+0001T   00002104+0000001121          1400 BJ7150               2DZ
208753005208753903-004952     208753006002580020052SWT FREAKY FACES 100G  0000001000+00001314+00000+0001T   00001314+0000001121          1400 BJ7150               2DZ
208753006208753903-004950     208753006002580020304SWT APRICOT SURPRISE   0000001000+00001314+00000+0001T   00001314+0000001121          1400 BJ7150               2DZ
208753007208753112-116069     208753006009681820277TCS CARRIER BAG JUMBO  0000001000+00000048+00000+0001T   00000048+0000001121          1400 BJ7090               2DZ
208754000208754               208754               170213BH     1400+00000+BH0000003857+0000003857+000000000+000000541+0000004390+0000000008+I20000000000+0000004390+Z
208754001208754206-000630     208754006003000631919SPECTACLE CLEANING BRUS0000001000+00001227+00000+0001T   00001227+0000001123          1400 BJ7321               2DZ
208754002208754206-000190     208754006003000631346PEELER FINGER 2PC      0000001000+00002630+00000+0001T   00003069+0008171123          1400 BJ7321               2DZ
208755000208755               208755               170213BH     1400+00000+BH0000001753+0000001753+000000000+000000246+0000001999+0000000000+I40000001999+0000000000+Z
208755001208755080-000100     208755006003000236114CARD & ENVELOPE BDAY   0000001000+00001753+00000+0001T   00001753+0000001134          1400 BJ7112               2DZ
208756000208756               208756               170213BH     1400+00000+BH0000003069+0000003069+000000000+000000430+0000003490+0000000009+I20000000000+0000003490+Z
208756001208756104-000035     208756006003000614752BASKET PL 29x10x31cm   0000001000+00003069+00000+0001T   00003069+0000001135          1400 BJ7210               2DZ
208757000208757               208757               170213BH     1400+00000+BH0000001753+0000001753+000000000+000000246+0000001999+0000000000+I40000001999+0000000000+Z
208757001208757903-000215     208757006002099001214SWT GS MALLOW TWIST PAC0000001000+00001753+00000+0001T   00001753+0000001137          1400 BJ7150               2DZ
208758000208758               208758               170213BH     1400+00000+BH0000004120+0000004120+000000000+000000578+0000004690+0000000008+I20000000000+0000004690+Z
208758001208758002-001216     208758006001023202888BASTER ALUM HILLHOUSE  0000001000+00002630+00000+0001T   00003069+0008121138          1400 BJ7300               2DZ
208758002208758016-006516     208758006003000351503S/JAR GLS CHECK 150ML  0000001000+00001490+00000+0001T   00001490+0000001138          1400 BJ7300               2DZ
208759000208759               208759               170213BH     1400+00000+BH0000003506+0000003506+000000000+000000492+0000003990+0000000008+I20000000000+0000003990+Z
208759001208759467-000005     208759006001023584472NET FISHING 45-50 SHORT0000002000+00001753+00000+0001T   00001753+0000001138          1400 BJ7785               2DZ
208760000208760               208760               170213BH     1400+00000+BH0000001753+0000001753+000000000+000000246+0000001990+0000000009+I20000000000+0000001990+Z
208760001208760038-047250     208760006001023816009PLACE MAT ASSORTED     0000001000+00001753+00000+0001T   00001753+0000001141          1400 BJ7300               2DZ
208761000208761               208761               170213BH     1400+00000+BH0000002665+0000002665+000000000+000000374+0000003030+0000000009+I20000000000+0000003030+Z
208761001208761105-001038     208761006003000615315CONTAINER W/VENT 1450ml0000001000+00002630+00000+0001T   00003507+0008161143          1400 BJ7210               2DZ
208761002208761112-116038     208761006009681820246TCS CARRIER BAG MIDI   0000001000+00000035+00000+0001T   00000035+0000001143          1400 BJ7090               2DZ
208762000208762               208762               170213BH     1400+00000+BH0000023100+0000023100+000000000+000003240+0000026340+0000000000+I40000026340+0000000000+Z
208762001208762033-005903-B   208762006001023678164B/LACES FLAT 120cm ASST0000001000+00001490+00000+0001T   00001490+0000001148          1400 BJ7200               2DZ
208762002208762493-059010     208762000078257590100BEACH-BALL COLOR-PANELS0000013000+00001490+00000+0001T   00001490+0000001148          1400 BJ7787               2DZ
208762003208762112-116069     208762006009681820277TCS CARRIER BAG JUMBO  0000001000+00000048+00000+0001T   00000048+0000001148          1400 BJ7090               2DZ
208762004208762563-000318-L   208762006003000407088SERVIETTES 33cm RED    0000001000+00002192+00000+0001T   00002192+0000001148          1400 BJ7214               2DZ
208763000208763               208763               170213BH     1400+00000+BH0000001753+0000001753+000000000+000000246+0000001990+0000000009+I20000000000+0000001990+Z
208763001208763133-000018     208763006003000583218SWAB MICROFIBRE 30x30cm0000001000+00001753+00000+0001T   00001753+0000001155          1400 BJ7212               2DZ
208764000208764               208764               170213BH     1400+00000+BH0000005262+0000005262+000000000+000000737+0000005990+0000000009+I20000000000+0000005990+Z
208764001208764050-000250     208764006001023904515PADLOCK K/ALIK BRS 20mm0000001000+00005262+00000+0001T   00005262+0000001156          1400 BJ7855               2DZ
208765000208765               208765               170213BH     1400+00000+BH0000016688+0000016688+000000000+000002341+0000019020+0000000009+I20000000000+0000019020+Z
208765001208765903-000215     208765006002099001214SWT GS MALLOW TWIST PAC0000001000+00001753+00000+0001T   00001753+0000001158          1400 BJ7150               2DZ
208765002208765002-021062     208765006001023437884T/PICKS 5OPCE SA-FLAG  0000010000+00001490+00000+0001T   00001490+0000001158          1400 BJ7300               2DZ
208765003208765112-116038     208765006009681820246TCS CARRIER BAG MIDI   0000001000+00000035+00000+0001T   00000035+0000001158          1400 BJ7090               2DZ
208766000208766               208766               170213BH     1400+00000+BH0000003154+0000003154+000000000+000000443+0000003590+0000000007+I20000000000+0000003590+Z
208766001208766903-000155     208766006009803374435SWT LOLLY I LUV U HEART0000002000+00000525+00000+0001T   00000525+0000001159          1400 BJ7150               2DZ
208766002208766903-000090     208766006009826020821SWT GS CHOCO COINS 60g 0000001000+00002104+00000+0001T   00002104+0000001159          1400 BJ7150               2DZ
208767000208767               208767               170213BH     1400+00000+BH0000002441+0000002441+000000000+000000344+0000002780+0000000005+I20000000000+0000002780+Z
208767001208767903-000155     208767006009803374435SWT LOLLY I LUV U HEART0000004000+00000525+00000+0001T   00000525+0000001200          1400 BJ7150               2DZ
208767002208767079-009700-M   208767006003000634101PAPER SIRIO A4 PINK COL0000001000+00000306+00000+0001T   00000306+0000001200          1400 BJ7130               2DZ
208767003208767112-116038     208767006009681820246TCS CARRIER BAG MIDI   0000001000+00000035+00000+0001T   00000035+0000001200          1400 BJ7090               2DZ
208768000208768               208768               170213BH     1400+00000+BH0000022317+0000022317+000000000+000003129+0000025446+0000000000+I40000025446+0000000000+Z
208768001208768466-000041     208768006003000590100BALL FOOTBALL IN BOX   0000001000+00007893+00000+0001T   00007893+0000001204          1400 BJ7785               2DZ
208768002208768031-006228     208768006003000142293P/FRAME+PLAQUE 10X15CM 0000001000+00003507+00000+0001T   00003507+0000001204          1400 BJ7510               2DZ
208768003208768206-000390     208768006003000631438STRAW PL BUILD A STRAW 0000001000+00002630+00000+0001T   00002630+0000001204          1400 BJ7321               2DZ
208768004208768004-072001     208768006003000452378CABLE-TIDY REUSE COL-C 0000001000+00001753+00000+0001T   00001753+0000001204          1400 BJ7310               2DZ
208768005208768565-000081     208768006003000643493NOVELTY MUSICAL TUBE   0000001000+00002630+00000+0001T   00002630+0000001204          1400 BJ7745               2DZ
208768006208768004-072001     208768006003000452378CABLE-TIDY REUSE COL-C 0000001000+00001753+00000+0001T   00001753+0000001204          1400 BJ7310               2DZ
208768007208768565-000044     208768006003000128280BARREL OF SLIME 100g   0000001000+00000613+00000+0001T   00000613+0000001204          1400 BJ7745               2DZ
208768008208768112-116069     208768006009681820277TCS CARRIER BAG JUMBO  0000001000+00000048+00000+0001T   00000048+0000001204          1400 BJ7090               2DZ
208768009208768565-004101     208768006003000548033BALL BOUNCING EGG      0000001000+00001490+00000+0001T   00001490+0000001204          1400 BJ7745               2DZ
208769000208769               208769               170213BH     1400+00000+BH0000007015+0000007015+000000000+000000983+0000007990+0000000008+I20000000000+0000007990+Z
208769001208769079-000282     208769006001023493309PAINT TUBS POSTER 12COL0000001000+00002630+00000+0001T   00002630+0000001204          1400 BJ7130               2DZ
208769002208769079-000261     208769006003000159727PAINT WATER COLOUR CAKE0000001000+00004385+00000+0001T   00004385+0000001204          1400 BJ7130               2DZ
208770000208770               208770               170213BH     1400+00000+BH0000028630+0000028630+000000000+000004015+0000032645+0000000000+I40000032645+0000000000+Z
208770001208770159-000104     208770006001023999290SHOWER-CADDY 3-TIER PL 0000002000+00003946+00000+0001T   00003946+0000001207          1400 BJ7200               2DZ
208770002208770306-007302     208770006001023730954BACK-SCRATCH+MASSAGE-WH0000001000+00001753+00000+0001T   00001753+0000001207          1400 BJ7200               2DZ
208770003208770306-000021-C   208770006003000567294EARBUDS 300PCE IN TUB  0000001000+00001753+00000+0001T   00001753+0000001207          1400 BJ7200               2DZ
208770004208770159-002369     208770006001023999191TOOTHBRUSH HOLDER PL 3 0000001000+00002630+00000+0001T   00002630+0000001207          1400 BJ7200               2DZ
208770005208770105-002013     208770006002580008494CONTAINER SET 18PCE    0000001000+00007016+00000+0001T   00007016+0000001207          1400 BJ7210               2DZ
208770006208770105-001150     208770006003000666287CONTAINER SET LITE 3PC 0000001000+00002630+00000+0001T   00002630+0000001207          1400 BJ7210               2DZ
208770007208770159-000445     208770006001023669728SOAP-BOX PL OVAL       0000002000+00001139+00000+0001T   00001139+0000001207          1400 BJ7200               2DZ
208770008208770159-002369     208770006001023999191TOOTHBRUSH HOLDER PL 3 0000001000+00002630+00000+0001T   00002630+0000001207          1400 BJ7200               2DZ
208770009208770112-116069     208770006009681820277TCS CARRIER BAG JUMBO  0000001000+00000048+00000+0001T   00000048+0000001207          1400 BJ7090               2DZ
208771000208771               208771               170213BH     1400+00000+BH0000001753+0000001753+000000000+000000246+0000001990+0000000009+I20000000000+0000001990+Z
208771001208771565-000002     208771006003000308071NOVELTY GROWING ANIMALS0000001000+00001753+00000+0001T   00001753+0000001209          1400 BJ7745               2DZ
208772000208772               208772               170213BH     1400+00000+BH0000009866+0000009866+000000000+000001384+0000011250+0000000000+I40000011250+0000000000+Z
208772001208772079-009702-D   208772008427973059354PAPER SIRIO A2 RED COL 0000002000+00001051+00000+0001T   00001051+0000001211          1400 BJ7130               2DZ
208772002208772079-000590     208772006003000543236SKETCH PAD & PAINT SET 0000001000+00007016+00000+0001T   00007016+0000001211          1400 BJ7130               2DZ
208772003208772018-000177     208772006001023797513MUG MINI LOVE ASSTD    0000001000+00000700+00000+0001T   00000700+0000001211          1400 BJ7515               2DZ
208772004208772112-116069     208772006009681820277TCS CARRIER BAG JUMBO  0000001000+00000048+00000+0001T   00000048+0000001211          1400 BJ7090               2DZ
208773000208773               208773               170213BH     1400+00000+BH0000000612+0000000612+000000000+000000086+0000000698+0000000000+I40000000698+0000000000+Z
208773001208773079-009700-M   208773006003000634101PAPER SIRIO A4 PINK COL0000002000+00000306+00000+0001T   00000306+0000001212          1400 BJ7130               2DZ
208774000208774               208774               170213BH     1400+00000+BH0000006047+0000006047+000000000+000000849+0000006890+0000000006+I20000000000+0000006890+Z
208774001208774079-009702-A   208774008427973059408PAPER SIRIO A2 BLACK   0000001000+00001051+00000+0001T   00001051+0000001213          1400 BJ7130               2DZ
208774002208774079-013032-D   208774006003000389643RIBBONS                0000001000+00002630+00000+0001T   00002630+0000001213          1400 BJ7130               2DZ
208774003208774903-000087     208774006001704000161SWT SPECKLED-EGGS 50G  0000001000+00001139+00000+0001T   00001139+0000001213          1400 BJ7150               2DZ
208774004208774903-000518     208774006001704012782SWT STRAWS S/BERRY 100g0000001000+00001227+00000+0001T   00001227+0000001213          1400 BJ7150               2DZ
208775000208775               208775               170213BH     1400+00000+BH0000001753+0000001753+000000000+000000246+0000001990+0000000009+I20000000000+0000001990+Z
208775001208775080-000113     208775006003000237449CARD&ENVLPE - LOVE     0000001000+00001753+00000+0001T   00001753+0000001215          1400 BJ7112               2DZ
208776000208776               208776               170213BH     1400+00000+BH0000001753+0000001753+000000000+000000246+0000001990+0000000009+I20000000000+0000001990+Z
208776001208776080-000111     208776006003000252695CARD&ENVELPE - MUSICAL 0000001000+00001753+00000+0001T   00001753+0000001216          1400 BJ7112               2DZ
208777000208777               208777               170213BH     1400+00000+BH0000004383+0000004383+000000000+000000615+0000004998+0000000000+I40000004998+0000000000+Z
208777001208777072-000327     208777006001023858504CAT-COLLAR+BELL        0000001000+00001753+00000+0001T   00001753+0000001218          1400 BJ7870               2DZ
208777002208777072-020285     208777006003000451364PET CAT TOY BALLS PK-4 0000001000+00002630+00000+0001T   00002630+0000001218          1400 BJ7870               2DZ
208778000208778               208778               170213BH     1400+00000+BH0000016704+0000016704+000000000+000002343+0000019047+0000000000+I40000019047+0000000000+Z
208778001208778028-001999     208778006001023759535G/CHAIR-COVER 60x60x1100000001000+00003507+00000+0001T   00003507+0000001221          1400 BJ7305               2DZ
208778002208778567-011492     208778000076645122148BK ACTIVITY 96P SCHOOL 0000002000+00002630+00000+0001T   00002630+0000001221          1400 BJ7757               2DZ
208778003208778079-013105     208778006001023863997ART+CRAFT DIY HAND PUPP0000001000+00002630+00000+0001T   00002630+0000001221          1400 BJ7130               2DZ
208778004208778200-003024     208778006001023657299REFUSE BAGS 20PCE BLACK0000002000+00001753+00000+0001T   00001753+0000001221          1400 BJ7214               2DZ
208778005208778306-000021-C   208778006003000567294EARBUDS 300PCE IN TUB  0000001000+00001753+00000+0001T   00001753+0000001221          1400 BJ7200               2DZ
208778006208778112-116069     208778006009681820277TCS CARRIER BAG JUMBO  0000001000+00000048+00000+0001T   00000048+0000001221          1400 BJ7090               2DZ
208779000208779               208779               170213BH     1400+00000+BH0000003069+0000003069+000000000+000000430+0000003490+0000000009+I20000000000+0000003490+Z
208779001208779301-085008     208779006003000673933ORN OCC.LOVE TINSEL HRT0000001000+00003069+00000+0001T   00003069+0000001223          1400 BJ7505               2DZ
208780000208780               208780               170213BH     1400+00000+BH0000001051+0000001051+000000000+000000148+0000001190+0000000009+I20000000000+0000001190+Z
208780001208780903-002892     208780008935001721338MENTOS JUICEBLAST BERRY0000001000+00001051+00000+0001T   00001051+0000001224          1400 BJ7150               2DZ
208781000208781               208781               170213BH     1400+00000+BH0000003541+0000003541+000000000+000000497+0000004030+0000000008+I20000000000+0000004030+Z
208781001208781200-003024     208781006001023657299REFUSE BAGS 20PCE BLACK0000001000+00001753+00000+0001T   00001753+0000001226          1400 BJ7214               2DZ
208781002208781200-003026     208781006003000276448REFUSE BAGS 10PCE GREEN0000001000+00001753+00000+0001T   00001753+0000001226          1400 BJ7214               2DZ
208781003208781112-116038     208781006009681820246TCS CARRIER BAG MIDI   0000001000+00000035+00000+0001T   00000035+0000001226          1400 BJ7090               2DZ
208782000208782               208782               170213BH     1400+00000+BH0000005262+0000005262+000000000+000000737+0000005990+0000000009+I20000000000+0000005990+Z
208782001208782104-000190     208782006001246040342DISH DRAINER PL ASSTD  0000001000+00005262+00000+0001T   00005262+0000001227          1400 BJ7210               2DZ
208783000208783               208783               170213BH     1400+00000+BH0000008541+0000008541+000000000+000001197+0000009738+0000000000+I40000009738+0000000000+Z
208783001208783304-001011     208783006001023806727FLWR ROSE RED W/BEAR   0000001000+00000613+00000+0001T   00000788+0006471230          1400 BJ7510               2DZ
208783002208783301-085007     208783006003000673698ORN OCC. LOVE S/PLAQUE 0000001000+00007893+00000+0001T   00007893+0000001230          1400 BJ7505               2DZ
208783003208783112-116038     208783006009681820246TCS CARRIER BAG MIDI   0000001000+00000035+00000+0001T   00000035+0000001230          1400 BJ7090               2DZ
208784000208784               208784               170213BH     1400+00000+BH0000011748+0000011748+000000000+000001645+0000013393+0000000000+I40000013393+0000000000+Z
208784001208784077-000303     208784006001023593757GIFT-BAG PAPER MED     0000003000+00001578+00000+0001T   00001578+0000001233          1400 BJ7112               2DZ
208784002208784018-005009     208784006001023725608MUG W/PLUSH-BEAR LOVE  0000002000+00003507+00000+0001T   00003507+0000001233          1400 BJ7515               2DZ
208785000208785               208785               170213BH     1400+00000+BH0000004295+0000004295+000000000+000000602+0000004897+0000000000+I40000004897+0000000000+Z
208785001208785031-000868-C   208785006001023798596P/FRAME PL BLCK 20X25CM0000001000+00003507+00000+0001T   00003507+0000001235          1400 BJ7510               2DZ
208785002208785903-000119     208785006001704007337SWT COCONUT-WHEEL      0000001000+00000788+00000+0001T   00000788+0000001235          1400 BJ7150               2DZ
208786000208786               208786               170213BH     1400+00000+BH0000009604+0000009604+000000000+000001347+0000010950+0000000001+I20000000000+0000010950+Z
208786001208786206-000120     208786006003000628308PEELER CARROT SHARPENER0000001000+00001753+00000+0001T   00001753+0000001236          1400 BJ7321               2DZ
208786002208786071-009832     208786006003000152674STATIONERY SET 4PCE    0000001000+00005262+00000+0001T   00005262+0000001236          1400 BJ7130               2DZ
208786003208786903-000137     208786006002099004130SWEET GS JELLY BEAN 60G0000001000+00000788+00000+0001T   00000788+0000001236          1400 BJ7150               2DZ
208786004208786007-000205     208786006002324000432FILE BINDER 2-RING A4  0000001000+00001753+00000+0001T   00001753+0000001236          1400 BJ7130               2DZ
208786005208786112-116069     208786006009681820277TCS CARRIER BAG JUMBO  0000001000+00000048+00000+0001T   00000048+0000001236          1400 BJ7090               2DZ
208787000208787               208787               170213BH     1400+00000+BH0000002192+0000002192+000000000+000000307+0000002490+0000000009+I20000000000+0000002490+Z
208787001208787077-000926     208787006003000414178G/WRAP 700mmx2m LOVE   0000001000+00002192+00000+0001T   00002192+0000001249          1400 BJ7112               2DZ
208788000208788               208788               170213BH     1400+00000+BH0000000437+0000000437+000000000+000000062+0000000490+0000000009+I20000000000+0000000490+Z
208788001208788080-000133-A   208788006003000647019MINI VALENTINES CARD   0000001000+00000437+00000+0001T   00000437+0000001249          1400 BJ7112               2DZ
208789000208789               208789               170213BH     1400+00000+BH0000000700+0000000700+000000000+000000098+0000000790+0000000008+I20000000000+0000000790+Z
208789001208789007-000104     208789006009685854865BK COVER BRWN KRFT ROLL0000002000+00000350+00000+0001T   00000350+0000001252          1400 BJ7130               2DZ
208790000208790               208790               170213BH     1400+00000+BH0000001139+0000001139+000000000+000000160+0000001290+0000000009+I20000000000+0000001290+Z
208790001208790140-006004     208790006001023628077FLY-SWATTER RUBBER     0000001000+00001139+00000+0001T   00001139+0000001255          1400 BJ7830               2DZ
208791000208791               208791               170213BH     1400+00000+BH0000001357+0000001357+000000000+000000191+0000001540+0000000008+I20000000000+0000001540+Z
208791001208791079-009702-F   208791008427973059392PAPER SIRIO A2 GREEN   0000001000+00001051+00000+0001T   00001051+0000001256          1400 BJ7130               2DZ
208791002208791079-009700-K   208791006003000546275PAPER SIRIO A4 VANILLA 0000001000+00000306+00000+0001T   00000306+0000001256          1400 BJ7130               2DZ
208792000208792               208792               170213BH     1400+00000+BH0000001490+0000001490+000000000+000000209+0000001690+0000000009+I20000000000+0000001690+Z
208792001208792079-000807     208792006003000670277ART+CRAFT WOODEN STICKS0000001000+00001490+00000+0001T   00001490+0000001259          1400 BJ7130               2DZ
208793000208793               208793               170213BH     1400+00000+BH0000013012+0000013012+000000000+000001824+0000014836+0000000000+I40000014836+0000000000+Z
208793001208793264-000918     208793000090159150268MAISTO MDC ATV         0000001000+00005262+00000+0001T   00005262+0000001303          1400 BJ7710               2DZ
208793002208793560-000229     208793006003000469468ANIMALS BIG EYES ASSTD 0000001000+00006139+00000+0001T   00006139+0000001303          1400 BJ7745               2DZ
208793003208793903-000898     208793006922516801503SWT POPPING CANDY      0000001000+00001139+00000+0001T   00001139+0000001303          1400 BJ7150               2DZ
208793004208793903-000094     208793006923431501622SWT GS CANDY NECKLACE  0000001000+00000437+00000+0001T   00000437+0000001303          1400 BJ7150               2DZ
208793005208793112-116038     208793006009681820246TCS CARRIER BAG MIDI   0000001000+00000035+00000+0001T   00000035+0000001303          1400 BJ7090               2DZ
208794000208794               208794               170213BH     1400+00000+BH0000000700+0000000700+000000000+000000098+0000000790+0000000008+I20000000000+0000000790+Z
208794001208794903-000121     208794006002099001689SWT GS ZILLIONS SOURS  0000001000+00000700+00000+0001T   00000700+0000001304          1400 BJ7150               2DZ
208795000208795               208795               170213BH     1400+00000+BH0000003506+0000003506+000000000+000000492+0000003990+0000000008+I20000000000+0000003990+Z
208795001208795200-000305     208795006003000622467FOOD OVEN ROASTING BAGS0000001000+00001753+00000+0001T   00002630+0008171411          1400 BJ7214               2DZ
208795002208795018-000210     208795006003000580095MUG DAILY TEXTS 4-ASST 0000001000+00001753+00000+0001T   00001753+0000001411          1400 BJ7515               2DZ
208796000208796               208796               170213BH     1400+00000+BH0000007884+0000007884+000000000+000001104+0000008980+0000000008+I20000000000+0000008980+Z
208796001208796077-000312     208796006001023608697GIFT-BAG 10X35CM GLOSS 0000006000+00001314+00000+0001T   00001314+0000001412          1400 BJ7112               2DZ
208797000208797               208797               170213BH     1400+00000+BH0000001753+0000001753+000000000+000000246+0000001990+0000000009+I20000000000+0000001990+Z
208797001208797077-000299-A   208797006003000670888GIFT-BAG PAPER JMB LOVE0000001000+00001753+00000+0001T   00001753+0000001420          1400 BJ7112               2DZ
208798000208798               208798               170213BH     1400+00000+BH0000005298+0000005298+000000000+000000744+0000006040+0000000002+I20000000000+0000006040+Z
208798001208798304-001011     208798006001023806727FLWR ROSE RED W/BEAR   0000001000+00000613+00000+0001T   00000788+0006471428          1400 BJ7510               2DZ
208798002208798566-000036     208798006003000384051STICKERS MOTIVATION    0000001000+00001753+00000+0001T   00001753+0000001428          1400 BJ7130               2DZ
208798003208798304-001011     208798006001023806727FLWR ROSE RED W/BEAR   0000001000+00000613+00000+0001T   00000788+0006471428          1400 BJ7510               2DZ
208798004208798018-000177     208798006001023797513MUG MINI LOVE ASSTD    0000001000+00000700+00000+0001T   00000700+0000001428          1400 BJ7515               2DZ
208798005208798903-000483     208798006001704001410SWT LIQUOR SML SORT 60G0000001000+00000876+00000+0001T   00000876+0000001428          1400 BJ7150               2DZ
208798006208798903-000077     208798006939873501687SWT GS MAGIC ROCK FRUIT0000001000+00000525+00000+0001T   00000525+0000001428          1400 BJ7150               2DZ
208798007208798903-000670     208798006009803358008SWT SHERBET RED LIPS   0000001000+00000218+00000+0001T   00000218+0000001428          1400 BJ7150               2DZ
208799000208799               208799               170213BH     1400+00000+BH0000001753+0000001753+000000000+000000246+0000001990+0000000009+I20000000000+0000001990+Z
208799001208799203-008282     208799006003000597703WINE GLS PL 2PC CHAMP. 0000001000+00001753+00000+0001T   00002630+0008171429          1400 BJ7300               2DZ
208800000208800               208800               170213BH     1400+00000+BH0000057174+0000057174+000000000+000008009+0000065183+0000000000+I40000065183+0000000000+Z
208800001208800368-000184     208800006003000668298PLUSH LAMB 23cm        0000001000+00006139+00000+0001T   00006139+0000001436          1400 BJ7745               2DZ
208800002208800077-000299     208800006003000395576G/BAG 32x25cm LRG LOVE 0000002000+00001490+00000+0001T   00001490+0000001436          1400 BJ7112               2DZ
208800003208800903-000843     208800008693029031067SWT GUMMY JELAXY 80G   0000005000+00000964+00000+0001T   00000964+0000001436          1400 BJ7150               2DZ
208800004208800031-000923     208800006001023669933P/FRAME BLK W/WORDS    0000001000+00003507+00000+0001T   00003507+0000001436          1400 BJ7510               2DZ
208800005208800031-080508     208800006001023802415P/FRAME PL 22X11CM LOVE0000001000+00004385+00000+0001T   00004385+0000001436          1400 BJ7510               2DZ
208800006208800079-000345     208800006001023890146FELT-TIP PENS 8PCE     0000001000+00003069+00000+0001T   00003069+0000001436          1400 BJ7130               2DZ
208800007208800079-000510     208800006001023509079CRAYONS WAX 12-COLOUR  0000001000+00002455+00000+0001T   00002455+0000001436          1400 BJ7130               2DZ
208800008208800077-000303     208800006001023593757GIFT-BAG PAPER MED     0000005000+00001578+00000+0001T   00001578+0000001436          1400 BJ7112               2DZ
208800009208800368-000265     208800006001023750914PLUSH BEAR 23CM ASSTD C0000002000+00006139+00000+0001T   00006139+0000001436          1400 BJ7745               2DZ
208800010208800018-000127     208800006001023380289MUG OCC STRAIGHT LOVE  0000002000+00001578+00000+0001T   00001753+0006471436          1400 BJ7515               2DZ
208800011208800566-000068     208800006003000418046POP UP LOVE 2 ASSTD    0000001000+00002192+00000+0001T   00002192+0000001436          1400 BJ7130               2DZ
208800012208800566-002000     208800000721129013206STICKERS CRYSTAL ASSTD 0000001000+00000700+00000+0001T   00000700+0000001436          1400 BJ7130               2DZ
208800013208800112-116069     208800006009681820277TCS CARRIER BAG JUMBO  0000001000+00000048+00000+0001T   00000048+0000001436          1400 BJ7090               2DZ
208800014208800366-000301     208800006003000421077DRESSUP TIARA & EARRING0000001000+00003507+00000+0001T   00003507+0000001436          1400 BJ7131               2DZ
208800015208800112-116069     208800006009681820277TCS CARRIER BAG JUMBO  0000001000+00000048+00000+0001T   00000048+0000001436          1400 BJ7090               2DZ
208801000208801               208801               170213BH     1400+00000+BH0000023240+0000023240+000000000+000003262+0000026500+0000000002+I20000000000+0000026500+Z
208801001208801036-000151     208801006001023810588COATHANGERS    PACK-10 0000008000+00002893+00000+0001T   00002893+0000001443          1400 BJ7212               2DZ
208801002208801112-116069     208801006009681820277TCS CARRIER BAG JUMBO  0000002000+00000048+00000+0001T   00000048+0000001443          1400 BJ7090               2DZ
208802000208802               208802               170213BH     1400+00000+BH0000003506+0000003506+000000000+000000492+0000003998+0000000000+I40000003998+0000000000+Z
208802001208802301-085002     208802006003000420704ORN OCC. LOVE BELL ASST0000002000+00001753+00000+0001T   00002630+0008121445          1400 BJ7505               2DZ
208803000208803               208803               170213BH     1400+00000+BH0000005260+0000005260+000000000+000000738+0000005990+0000000008+I20000000000+0000005990+Z
208803001208803039-081008     208803006008766081008CANDLES 9PCE SCENTED   0000002000+00002630+00000+0001T   00002630+0000001446          1400 BJ7510               2DZ
208804000208804               208804               170213BH     1400+00000+BH0000018466+0000018466+000000000+000002586+0000021052+0000000000+I40000021052+0000000000+Z
208804001208804072-020259     208804006001023602664DOG-CHEW BONE 10cm 2PCE0000001000+00003507+00000+0001T   00003507+0000001448          1400 BJ7870               2DZ
208804002208804072-020245     208804006001023617996PET BED FLEECE W/SIDES 0000001000+00014911+00000+0001T   00014911+0000001448          1400 BJ7870               2DZ
208804003208804112-116069     208804006009681820277TCS CARRIER BAG JUMBO  0000001000+00000048+00000+0001T   00000048+0000001448          1400 BJ7090               2DZ
208805000208805               208805               170213BH     1400+00000+BH0000001753+0000001753+000000000+000000246+0000001990+0000000009+I20000000000+0000001990+Z
208805001208805466-000200     208805006001023621665HULA-HOOP     ASSTD    0000001000+00001753+00000+0001T   00001753+0000001448          1400 BJ7785               2DZ
208806000208806               208806               170213BH     1400+00000+BH0000001752+0000001752+000000000+000000246+0000001990+0000000008+I20000000000+0000001990+Z
208806001208806105-000750     208806006003000190270CONTAINERS 4xMINI 150ml0000001000+00001402+00000+0001T   00001402+0000001449          1400 BJ7210               2DZ
208806002208806002-000879     208806006001023770004STRAINER TEA 7cm H/H   0000001000+00000350+00000+0001T   00000350+0000001449          1400 BJ7300               2DZ
208807000208807               208807               170213BH     1400+00000+BH0000001139+0000001139+000000000+000000160+0000001290+0000000009+I20000000000+0000001290+Z
208807001208807903-000087     208807006001704000161SWT SPECKLED-EGGS 50G  0000001000+00001139+00000+0001T   00001139+0000001449          1400 BJ7150               2DZ
208808000208808               208808               170213BH     1400+00000+BH0000006875+0000006875+000000000+000000963+0000007838+0000000000+I40000007838+0000000000+Z
208808001208808077-000315     208808006003000181186GIFT-BAG 20x28cm MATT  0000001000+00001578+00000+0001T   00001578+0000001451          1400 BJ7112               2DZ
208808002208808018-019000     208808006003000557288MUG OCC. LOVE JUMBO    0000001000+00005262+00000+0001T   00005262+0000001451          1400 BJ7515               2DZ
208808003208808112-116038     208808006009681820246TCS CARRIER BAG MIDI   0000001000+00000035+00000+0001T   00000035+0000001451          1400 BJ7090               2DZ
208809000208809               208809               170213BH     1400+00000+BH0000017792+0000017792+000000000+000002496+0000020280+0000000008+I20000000000+0000020280+Z
208809001208809903-000670     208809006009803358008SWT SHERBET RED LIPS   0000008000+00000218+00000+0001T   00000218+0000001501          1400 BJ7150               2DZ
208809002208809033-001300     208809006003000667390HAIR PINS 4PC SNAP CLIP0000001000+00001753+00000+0001T   00001753+0000001501          1400 BJ7200               2DZ
208809003208809018-000127     208809006001023380289MUG OCC STRAIGHT LOVE  0000001000+00001578+00000+0001T   00001753+0006471501          1400 BJ7515               2DZ
208809004208809024-000092     208809006003000426805MEASURING-SET 6PC      0000001000+00003946+00000+0001T   00003946+0000001501          1400 BJ7300               2DZ
208809005208809002-000748     208809006001023477439GRATER S/S 4-WAY  BLACK0000001000+00008771+00000+0001T   00008771+0000001501          1400 BJ7300               2DZ
208810000208810               208810               170213BH     1400+00000+BH0000000876+0000000876+000000000+000000123+0000000990+0000000009+I20000000000+0000000990+Z
208810001208810077-000151     208810006008766114676GIFT-WRAP C/PHANE ASSTD0000001000+00000876+00000+0001T   00000876+0000001502          1400 BJ7112               2DZ
208811000208811               208811               170213BH     1400+00000+BH0000003681+0000003681+000000000+000000517+0000004198+0000000000+I40000004198+0000000000+Z
208811001208811079-000280     208811006003000160723PAINT READYMIX 6PCE    0000001000+00002630+00000+0001T   00002630+0000001504          1400 BJ7130               2DZ
208811002208811903-002851     208811000000087108538MENTOS ROLL STRAWBERRY 0000001000+00001051+00000+0001T   00001051+0000001504          1400 BJ7150               2DZ
208812000208812               208812               170213BH     1400+00000+BH0000003067+0000003067+000000000+000000430+0000003490+0000000007+I20000000000+0000003490+Z
208812001208812903-000194     208812006009826020616SWT CHOC RP LOLLY 25G  0000001000+00001314+00000+0001T   00001314+0000001504          1400 BJ7150               2DZ
208812002208812080-000115     208812006003000237333CARD&ENVELOPE - BLANKS 0000001000+00001753+00000+0001T   00001753+0000001504          1400 BJ7112               2DZ
208813000208813               208813               170213BH     1400+00000+BH0000004996+0000004996+000000000+000000700+0000005696+0000000000+I40000005696+0000000000+Z
208813001208813018-000170     208813006001023775528MUG OCC. LOVE 2PC MINI 0000001000+00002192+00000+0001T   00002192+0000001507          1400 BJ7515               2DZ
208813002208813565-000044     208813006003000128280BARREL OF SLIME 100g   0000002000+00000613+00000+0001T   00000613+0000001507          1400 BJ7745               2DZ
208813003208813077-000303     208813006001023593757GIFT-BAG PAPER MED     0000001000+00001578+00000+0001T   00001578+0000001507          1400 BJ7112               2DZ
208814000208814               208814               170213BH     1400+00000+BH0000008976+0000008976+000000000+000001258+0000010234+0000000000+I40000010234+0000000000+Z
208814001208814162-096646     208814006001492966465#TAG HOT DEALS KIDS HR 0000001000+00002630+00000+0001T   00002630+0000001509          1400 BJ7160               2DZ
208814002208814566-000359     208814006003000582709STICKER BOOK LOVE SPARK0000001000+00002192+00000+0001T   00002192+0000001509          1400 BJ7130               2DZ
208814003208814079-009700-I   208814006003000546114PAPER SIRIO A4 LILAC   0000002000+00000306+00000+0001T   00000306+0000001509          1400 BJ7130               2DZ
208814004208814162-092944     208814006001492929446SS 3PK KIDS H/BANDS    0000001000+00003507+00000+0001T   00003507+0000001509          1400 BJ7160               2DZ
208814005208814112-116038     208814006009681820246TCS CARRIER BAG MIDI   0000001000+00000035+00000+0001T   00000035+0000001509          1400 BJ7090               2DZ
208815000208815               208815               170213BH     1400+00000+BH0000000876+0000000876+000000000+000000123+0000000990+0000000009+I20000000000+0000000990+Z
208815001208815077-000011-D   208815006001023808554TISSUE-WRAP WHITE 10PCE0000001000+00000876+00000+0001T   00000876+0000001510          1400 BJ7112               2DZ
208816000208816               208816               170213BH     1400+00000+BH0000002630+0000002630+000000000+000000369+0000002990+0000000009+I20000000000+0000002990+Z
208816001208816019-071601     208816006001023771995RIVER-STONES 1kg WHITE 0000001000+00002630+00000+0001T   00002630+0000001511          1400 BJ7510               2DZ
208817000208817               208817               170213BH     1400+00000+BH0000021002+0000021002+000000000+000002944+0000023940+0000000006+I20000000000+0000023940+Z
208817001208817077-000290     208817006001023902023GIFT BOX 26x32x13cm    0000001000+00001753+00000+0001T   00001753+0000001536          1400 BJ7112               2DZ
208817002208817077-000010-C   208817006001023123879CREPE-PAPER RED        0000001000+00000788+00000+0001T   00000788+0000001536          1400 BJ7112               2DZ
208817003208817079-013032-J   208817006003000542710A&C DIY COLOUR P/FLOWER0000001000+00001753+00000+0001T   00001753+0000001536          1400 BJ7130               2DZ
208817004208817304-001168     208817006003000407781FLWR FLOATING LOTUS ASS0000001000+00003507+00000+0001T   00003507+0000001536          1400 BJ7510               2DZ
208817005208817301-085008     208817006003000673933ORN OCC.LOVE TINSEL HRT0000002000+00003069+00000+0001T   00003069+0000001536          1400 BJ7505               2DZ
208817006208817304-000720     208817006001023843050F/BUNCH ROSE 6-HEAD AST0000001000+00002630+00000+0001T   00002630+0000001536          1400 BJ7510               2DZ
208817007208817006-000190     208817006003000685530BALLOONS LOVE 81x91cm  0000001000+00004385+00000+0001T   00004385+0000001536          1400 BJ7131               2DZ
208817008208817112-116069     208817006009681820277TCS CARRIER BAG JUMBO  0000001000+00000048+00000+0001T   00000048+0000001536          1400 BJ7090               2DZ
208818000208818               208818               170213BH     1400+00000+BH0000007629+0000007629+000000000+000001069+0000008698+0000000000+I40000008698+0000000000+Z
208818001208818018-050000     208818006003000412679MUG OCC LOVE TWIN BEAR 0000001000+00006139+00000+0001T   00006139+0000001542          1400 BJ7515               2DZ
208818002208818077-000305     208818006003000395422GIFT-BAG WINE 10X35CM  0000001000+00001490+00000+0001T   00001490+0000001542          1400 BJ7112               2DZ
208819000208819               208819               170213BH     1400+00000+BH0000001314+0000001314+000000000+000000184+0000001490+0000000008+I20000000000+0000001490+Z
208819001208819903-000194     208819006009826020616SWT CHOC RP LOLLY 25G  0000001000+00001314+00000+0001T   00001314+0000001542          1400 BJ7150               2DZ
208820000208820               208820               170213BH     1400+00000+BH0000008592+0000008592+000000000+000001204+0000009790+0000000006+I20000000000+0000009790+Z
208820001208820077-000467     208820006003000329991GIFT-BAG STAMP 18X23CM 0000001000+00001753+00000+0001T   00001753+0000001543          1400 BJ7112               2DZ
208820002208820368-000175     208820006003000270316PLUSH BEAR 4 ASSTD 18CM0000001000+00006139+00000+0001T   00006139+0000001543          1400 BJ7745               2DZ
208820003208820018-000177     208820006001023797513MUG MINI LOVE ASSTD    0000001000+00000700+00000+0001T   00000700+0000001543          1400 BJ7515               2DZ
208821000208821               208821               170213BH     1400+00000+BH0000001400+0000001400+000000000+000000196+0000001590+0000000006+I20000000000+0000001590+Z
208821001208821903-000126     208821006002099003591SWT ZILLIONS MINT 50G  0000002000+00000700+00000+0001T   00000700+0000001545          1400 BJ7150               2DZ
208822000208822               208822               170213BH     1400+00000+BH0000001525+0000001525+000000000+000000214+0000001730+0000000009+I20000000000+0000001730+Z
208822001208822077-000299     208822006003000395576G/BAG 32x25cm LRG LOVE 0000001000+00001490+00000+0001T   00001490+0000001545          1400 BJ7112               2DZ
208822002208822112-116038     208822006009681820246TCS CARRIER BAG MIDI   0000001000+00000035+00000+0001T   00000035+0000001545          1400 BJ7090               2DZ
208823000208823               208823               170213BH     1400+00000+BH0000004944+0000004944+000000000+000000693+0000005637+0000000000+I40000005637+0000000000+Z
208823001208823077-000303     208823006001023593757GIFT-BAG PAPER MED     0000001000+00001578+00000+0001T   00001578+0000001550          1400 BJ7112               2DZ
208823002208823018-000170     208823006001023775528MUG OCC. LOVE 2PC MINI 0000001000+00002192+00000+0001T   00002192+0000001550          1400 BJ7515               2DZ
208823003208823903-000087     208823006001704000161SWT SPECKLED-EGGS 50G  0000001000+00001139+00000+0001T   00001139+0000001550          1400 BJ7150               2DZ
208823004208823112-116038     208823006009681820246TCS CARRIER BAG MIDI   0000001000+00000035+00000+0001T   00000035+0000001550          1400 BJ7090               2DZ
208824000208824               208824               170213BH     1400+00000+BH0000020653+0000020653+000000000+000002896+0000023549+0000000000+I40000023549+0000000000+Z
208824001208824133-000086     208824006003000221929D/CLOTHS CTN 65g PK-3  0000001000+00007893+00000+0001T   00007893+0000001559          1400 BJ7212               2DZ
208824002208824566-000367     208824006003000645558STICKER WINDOW DECOR   0000004000+00002630+00000+0001T   00002630+0000001559          1400 BJ7130               2DZ
208824003208824080-000127     208824006003000424351VALENTINES DAY 36x24CM 0000001000+00002192+00000+0001T   00002192+0000001559          1400 BJ7112               2DZ
208824004208824112-116069     208824006009681820277TCS CARRIER BAG JUMBO  0000001000+00000048+00000+0001T   00000048+0000001559          1400 BJ7090               2DZ
208825000208825               208825               170213BH     1400+00000+BH0000004119+0000004119+000000000+000000578+0000004697+0000000000+I40000004697+0000000000+Z
208825001208825077-000011-D   208825006001023808554TISSUE-WRAP WHITE 10PCE0000001000+00000876+00000+0001T   00000876+0000001602          1400 BJ7112               2DZ
208825002208825077-000305     208825006003000395422GIFT-BAG WINE 10X35CM  0000001000+00001490+00000+0001T   00001490+0000001602          1400 BJ7112               2DZ
208825003208825077-000299-A   208825006003000670888GIFT-BAG PAPER JMB LOVE0000001000+00001753+00000+0001T   00001753+0000001602          1400 BJ7112               2DZ
208826000208826               208826               170213BH     1400+00000+BH0000007717+0000007717+000000000+000001081+0000008790+0000000008+I20000000000+0000008790+Z
208826001208826077-000315     208826006003000181186GIFT-BAG 20x28cm MATT  0000001000+00001578+00000+0001T   00001578+0000001603          1400 BJ7112               2DZ
208826002208826368-000265     208826006001023750914PLUSH BEAR 23CM ASSTD C0000001000+00006139+00000+0001T   00006139+0000001603          1400 BJ7745               2DZ
208827000208827               208827               170213BH     1400+00000+BH0000001490+0000001490+000000000+000000209+0000001690+0000000009+I20000000000+0000001690+Z
208827001208827200-000062     208827006003000519514STRAWS DRINKING PL 4PC 0000001000+00001490+00000+0001T   00001490+0000001621          1400 BJ7214               2DZ
208828000208828               208828               170213BH     1400+00000+BH0000001753+0000001753+000000000+000000246+0000001990+0000000009+I20000000000+0000001990+Z
208828001208828078-000030     208828006003000151141YAMAYO SUPERGLUE 8g    0000001000+00001753+00000+0001T   00001753+0000001623          1400 BJ7810               2DZ
208829000208829               208829               170213BH     1400+00000+BH0000016218+0000016218+000000000+000002273+0000018491+0000000000+I40000018491+0000000000+Z
208829001208829080-000112     208829006003000252749CARD&ENVLP BDAY-MUSICAL0000001000+00001753+00000+0001T   00001753+0000001625          1400 BJ7112               2DZ
208829002208829564-000015     208829006003000140862BUBBLE TEST TUBE       0000002000+00001753+00000+0001T   00001753+0000001625          1400 BJ7131               2DZ
208829003208829006-000120     208829006001023346889BALLOONS 10PC MIX COL  0000001000+00001753+00000+0001T   00001753+0000001625          1400 BJ7131               2DZ
208829004208829006-000090     208829006001023538505BANNER HAPPY-BIRTHDAY  0000001000+00002192+00000+0001T   00002192+0000001625          1400 BJ7131               2DZ
208829005208829077-000932     208829006003000409808G/WRAP 700mmx5m PATTERN0000002000+00003507+00000+0001T   00003507+0000001625          1400 BJ7112               2DZ
208830000208830               208830               170213BH     1400+00000+BH0000009424+0000009424+000000000+000001321+0000010740+0000000005+I20000000000+0000010740+Z
208830001208830079-013111     208830006003000683024CREATE A HAT SET       0000001000+00003946+00000+0001T   00003946+0000001634          1400 BJ7130               2DZ
208830002208830079-013032-B   208830006003000389445MIXED SHAPES           0000001000+00001753+00000+0001T   00001753+0000001634          1400 BJ7130               2DZ
208830003208830079-009000     208830006003000249619CANVAS P/SET 20X20CM   0000001000+00003507+00000+0001T   00003507+0000001634          1400 BJ7130               2DZ
208830004208830006-000170-G   208830006003000608553BALLOONS 1PC YELLOW    0000001000+00000218+00000+0001T   00000218+0000001634          1400 BJ7131               2DZ
208831000208831               208831               170213BH     1400+00000+BH0000001753+0000001753+000000000+000000246+0000001990+0000000009+I20000000000+0000001990+Z
208831001208831200-003026     208831006003000276448REFUSE BAGS 10PCE GREEN0000001000+00001753+00000+0001T   00001753+0000001636          1400 BJ7214               2DZ
208832000208832               208832               170213BH     1400+00000+BH0000003500-0000003500-000000000+000000490-0000003990-0000000000+I20000000000+0000003990-Z
208832001208832001-999907     208832000000000999907CLEANING-MATERIALS     0000001000-00003500+00000+0001T   00000000+0000001709          1400 BJ79071IC            2 Z
208833000208833               208833               170213BH     1400+00000+BH0000024644+0000024644+000000000+000003452+0000028096+0000000000+I40000028096+0000000000+Z
208833001208833903-000095     208833006001704011495SWT SPECKLED-EGGS 100G 0000001000+00002104+00000+0001T   00002104+0000001733          1400 BJ7150               2DZ
208833002208833001-091415     208833006003000329113W/GLS OCC. LOVE 2PC 2800000001000+00008771+00000+0001T   00009648+0006471733          1400 BJ7515               2DZ
208833003208833368-000111     208833006001023780812PLUSH BEAR/DOG 29CM    0000001000+00012279+00000+0001T   00012279+0000001733          1400 BJ7745               2DZ
208833004208833077-000299     208833006003000395576G/BAG 32x25cm LRG LOVE 0000001000+00001490+00000+0001T   00001490+0000001733          1400 BJ7112               2DZ
208834000208834               208834               170213BH     1400+00000+BH0000004413+0000004413+000000000+000000618+0000005031+0000000000+I40000005031+0000000000+Z
208834001208834018-000127     208834006001023380289MUG OCC STRAIGHT LOVE  0000001000+00001578+00000+0001T   00001753+0006471736          1400 BJ7515               2DZ
208834002208834018-000177     208834006001023797513MUG MINI LOVE ASSTD    0000004000+00000700+00000+0001T   00000700+0000001736          1400 BJ7515               2DZ
208834003208834112-116038     208834006009681820246TCS CARRIER BAG MIDI   0000001000+00000035+00000+0001T   00000035+0000001736          1400 BJ7090               2DZ
208835000208835               208835               170213BH     1400+00000+BH0000001402+0000001402+000000000+000000197+0000001590+0000000009+I20000000000+0000001590+Z
208835001208835304-001204     208835006001023737984FLOWER OCC. TEDDY/ROSES0000001000+00001402+00000+0001T   00001490+0006471737          1400 BJ7510               2DZ
208836000208836               208836               170213BH     1400+00000+BH0000002628+0000002628+000000000+000000369+0000002997+0000000000+I40000002997+0000000000+Z
208836001208836080-000133-A   208836006003000647019MINI VALENTINES CARD   0000001000+00000437+00000+0001T   00000437+0000001740          1400 BJ7112               2DZ
208836002208836018-000127     208836006001023380289MUG OCC STRAIGHT LOVE  0000001000+00001578+00000+0001T   00001753+0006471740          1400 BJ7515               2DZ
208836003208836077-000311     208836006001023608666GIFT-BAG 11X14CM GLOSS 0000001000+00000613+00000+0001T   00000613+0000001740          1400 BJ7112               2DZ
208837000208837               208837               170213BH     1400+00000+BH0000001490+0000001490+000000000+000000209+0000001690+0000000009+I20000000000+0000001690+Z
208837001208837007-000566     208837006003000640898NOVELTY PHONE NOTE-PAD 0000001000+00001490+00000+0001T   00001490+0000001741          1400 BJ7130               2DZ
208838000208838               208838               170213BH     1400+00000+BH0000003681+0000003681+000000000+000000516+0000004190+0000000007+I20000000000+0000004190+Z
208838001208838077-000319     208838006001023609779GIFT-BAG 18X23CM BIRTHD0000003000+00001227+00000+0001T   00001227+0000001742          1400 BJ7112               2DZ
208839000208839               208839               170213BH     1400+00000+BH0000011838+0000011838+000000000+000001658+0000013496+0000000000+I40000013496+0000000000+Z
208839001208839072-020242     208839006003000053728PET BED COTTON TEXTILE 0000001000+00008771+00000+0001T   00008771+0000001745          1400 BJ7870               2DZ
208839002208839036-000063     208839006009654960436COATHANGERS VIRGIN 5PCE0000001000+00001753+00000+0001T   00001753+0000001745          1400 BJ7212               2DZ
208839003208839107-004105     208839006009703860984BUCKET 9L OPEN         0000001000+00001314+00000+0001T   00001314+0000001745          1400 BJ7210               2DZ
208840000208840               208840               170213BH     1400+00000+BH0000003330+0000003330+000000000+000000467+0000003790+0000000007+I20000000000+0000003790+Z
208840001208840466-000515     208840006001023477408BALLS TENNIS BAG-OF-3  0000001000+00002630+00000+0001T   00002630+0000001746          1400 BJ7785               2DZ
208840002208840018-000177     208840006001023797513MUG MINI LOVE ASSTD    0000001000+00000700+00000+0001T   00000700+0000001746          1400 BJ7515               2DZ
208841000208841               208841               170213BH     1400+00000+BH0000013535+0000013535+000000000+000001898+0000015433+0000000000+I40000015433+0000000000+Z
208841001208841563-000317-A   208841006001023776167SERVIETTES 20PK PATTERN0000003000+00002630+00000+0001T   00002630+0000001750          1400 BJ7214               2DZ
208841002208841563-000318-D   208841006003000404001SERVIETTES 33cm BLUE   0000002000+00002192+00000+0001T   00002192+0000001750          1400 BJ7214               2DZ
208841004208841304-001011     208841006001023806727FLWR ROSE RED W/BEAR   0000002000+00000613+00000+0001T   00000788+0006471750          1400 BJ7510               2DZ
208841005208841112-116038     208841006009681820246TCS CARRIER BAG MIDI   0000001000+00000035+00000+0001T   00000035+0000001750          1400 BJ7090               2DZ
208842000208842               208842               170213BH     1400+00000+BH0000003592+0000003592+000000000+000000503+0000004090+0000000005+I20000000000+0000004090+Z
208842001208842564-000012     208842006001023130075BUBBLE BOTTLE MAGIC    0000001000+00000700+00000+0001T   00000700+0000001754          1400 BJ7131               2DZ
208842002208842077-000315     208842006003000181186GIFT-BAG 20x28cm MATT  0000001000+00001578+00000+0001T   00001578+0000001754          1400 BJ7112               2DZ
208842003208842077-000312     208842006001023608697GIFT-BAG 10X35CM GLOSS 0000001000+00001314+00000+0001T   00001314+0000001754          1400 BJ7112               2DZ
208843000208843               208843               170213BH     1400+00000+BH0000002628+0000002628+000000000+000000368+0000002996+0000000000+I40000002996+0000000000+Z
208843001208843903-000194     208843006009826020616SWT CHOC RP LOLLY 25G  0000002000+00001314+00000+0001T   00001314+0000001757          1400 BJ7150               2DZ
208844000208844               208844               170213BH     1400+00000+BH0000007365+0000007365+000000000+000001032+0000008397+0000000000+I40000008397+0000000000+Z
208844001208844077-000322     208844006001023677532GIFT-BAG 18X23CM E/D FL0000001000+00001227+00000+0001T   00001227+0000001759          1400 BJ7112               2DZ
208844002208844003-009110     208844006003000675395ORN SIGN INSPIRATIONAL 0000002000+00003069+00000+0001T   00003069+0000001759          1400 BJ7505               2DZ
208845000208845               208845               170213BH     1400+00000+BH0000007012+0000007012+000000000+000000983+0000007995+0000000000+I40000007995+0000000000+Z
208845001208845304-001011     208845006001023806727FLWR ROSE RED W/BEAR   0000001000+00000613+00000+0001T   00000788+0006471801          1400 BJ7510               2DZ
208845002208845089-000030     208845006003000575671K/CHAIN LOVE MTL ASSTD 0000001000+00001753+00000+0001T   00001753+0000001801          1400 BJ7205               2DZ
208845003208845089-000192-A   208845006001023901774KEY-CHAIN ACRYLIC      0000001000+00000876+00000+0001T   00000876+0000001801          1400 BJ7205               2DZ
208845004208845080-000127     208845006003000424351VALENTINES DAY 36x24CM 0000001000+00002192+00000+0001T   00002192+0000001801          1400 BJ7112               2DZ
208845005208845083-000054     208845006001023729071LIGHTER REFILLABLE LED 0000001000+00001578+00000+0001T   00001578+0000001801          1400 BJ7315               2DZ
208846000208846               208846               170213BH     1400+00000+BH0000004820+0000004820+000000000+000000675+0000005490+0000000005+I20000000000+0000005490+Z
208846001208846007-000095     208846006003000530434ENVELOPES WHITE 20PK C60000001000+00002192+00000+0001T   00002192+0000001802          1400 BJ7130               2DZ
208846002208846006-000166-C   208846006003000516377BALLOONS LRG 6PC PINK  0000002000+00001314+00000+0001T   00001314+0000001802          1400 BJ7131               2DZ
208847000208847               208847               170213BH     1400+00000+BH0000008771+0000008771+000000000+000001228+0000009990+0000000009+I20000000000+0000009990+Z
208847001208847368-000614     208847006001023705808PLUSH LOVE 30cm        0000001000+00008771+00000+0001T   00008771+0000001803          1400 BJ7745               2DZ
208848000208848               208848               170213BH     1400+00000+BH0000002626+0000002626+000000000+000000368+0000002990+0000000004+I20000000000+0000002990+Z
208848001208848304-001011     208848006001023806727FLWR ROSE RED W/BEAR   0000001000+00000613+00000+0001T   00000788+0006471803          1400 BJ7510               2DZ
208848002208848018-000177     208848006001023797513MUG MINI LOVE ASSTD    0000002000+00000700+00000+0001T   00000700+0000001803          1400 BJ7515               2DZ
208848003208848565-000044     208848006003000128280BARREL OF SLIME 100g   0000001000+00000613+00000+0001T   00000613+0000001803          1400 BJ7745               2DZ
208849000208849               208849               170213BH     1400+00000+BH0000007049+0000007049+000000000+000000987+0000008030+0000000006+I20000000000+0000008030+Z
208849001208849301-085004     208849006003000420469ORN LOVE PLAQUE 21X10CM0000001000+00003507+00000+0001T   00003946+0006471804          1400 BJ7505               2DZ
208849002208849018-000130     208849006001023867537MUG OCC LOVE MINI+HEART0000001000+00003507+00000+0001T   00003507+0000001804          1400 BJ7515               2DZ
208849003208849112-116038     208849006009681820246TCS CARRIER BAG MIDI   0000001000+00000035+00000+0001T   00000035+0000001804          1400 BJ7090               2DZ
A17021300                                          11065956BHSLAVE 2                       BJ73IC
A17021301                                          11485558BHSLAVE 2                       BJ72IC
C20884100                                          170213BH304-001204     17474852SLAVE 2     BJ71IC0000000000+0000000000+0030000002000+
M17021391                              CASH        BHSLAVE 2                       Z-REPORT No.   646TOTAL (Sales - Refunds)           8230.20       CASH TO BE BANKED                 3320.00       DEBIT CARDS                       4870.30       CREDIT CARDS                         0.00       Z-READING                         8190.30       AIRTIME DEBIT CARD SALES             0.00       AIRTIME CARD SALES                   0.00       OVERS/UNDERS                         0.00       AIRTIME CASH SALES                   0.00       GIFT CARDS                           0.00       GIFT CARD CASH SALES                 0.00       CLEANING-MATERIALS                  39.90       T O T A L  CASH PAYOUTS             39.90                                                                                                                                                                                                                                                                                                      Z
M17021392                              CASH        BHABSENT                                                                                                                                                                                          ANNUAL LEAVE                                                                                                                                                                                    DAY OFF                                                                                                                                                                                         COMMENTS                                                                                                                                                                                                                                                                                                                                                                                       Z
Y17021300                                          BH00000000722302+000106
ZBH17021319203 SLAVE 2      SALES DATA                     NEXT INVOICE NO.  208850 0646
F093709496-056475         1701111055560000072ICSLAVE 2
F093801496-028272         1701120952090000022ICSLAVE 2
F094072496-028122         1701130914050000023ICSLAVE 2
F094119463-000501         1701130914470000053ICSLAVE 2
T094462566-000309                                          1702131140000000031ICSLAVE 2
F094829006-000166-D       1702100908460000083ICSLAVE 2
X BH Slave 2 First invoice 208743 170213 Last invoice 208849 170213 Next invoice 208850 Total number of records 000000386 clbackup completed 19:20:30
