305432000305432               305432               170213BH     1400+00000+BH0000013157+0000013157+000000000+000001842+0000014990+0000000009+I20000000000+0000014990+Z
305432001305432002-050018     305432004008562301005MORTAR & PESTLE MARBLE 0000001000+00013157+00000+0001T   00013157+0000001005          1400 DS7300               3DZ
305433000305433               305433               170213BH     1400+00000+BH0000003065+0000003065+000000000+000000430+0000003495+0000000000+I40000003495+0000000000+Z
305433001305433077-000311     305433006001023608666GIFT-BAG 11X14CM GLOSS 0000005000+00000613+00000+0001T   00000613+0000001014          1400 DS7112               3DZ
305434000305434               305434               170213BH     1400+00000+BH0000001314+0000001314+000000000+000000184+0000001490+0000000008+I20000000000+0000001490+Z
305434001305434004-071280     305434006003000129959WRITABLE-CD SINGLE     0000001000+00001314+00000+0001T   00001314+0000001016          1400 DS7310               3DZ
305435000305435               305435               170213BH     1400+00000+BH0000020601+0000020601+000000000+000002890+0000023491+0000000000+I40000023491+0000000000+Z
305435001305435047-005127     305435006003000093861CABLETIES 100/150/200mm0000001000+00002192+00000+0001T   00002192+0000001019          1400 DS7880               3DZ
305435002305435027-000917     305435006001023367433DUSTPAN-SET MINI 21x16 0000001000+00001753+00000+0001T   00001753+0000001019          1400 DS7212               3DZ
305435003305435251-000003     305435006003000266159TAPE D/S 18x300mm V/PCK0000001000+00002630+00000+0001T   00002630+0000001019          1400 DS7810               3DZ
305435004305435076-000750     305435006003000423347CORD STRETCH 2-CLAW    0000001000+00002630+00000+0001T   00002630+0000001019          1400 DS7810               3DZ
305435005305435019-071601     305435006001023771995RIVER-STONES 1kg WHITE 0000003000+00002630+00000+0001T   00002630+0000001019          1400 DS7510               3DZ
305435006305435903-000215     305435006002099001214SWT GS MALLOW TWIST PAC0000002000+00001753+00000+0001T   00001753+0000001019          1400 DS7150               3DZ
305436000305436               305436               170213BH     1400+00000+BH0000019661+0000019661+000000000+000002760+0000022421+0000000000+I40000022421+0000000000+Z
305436001305436903-000121     305436006002099001689SWT GS ZILLIONS SOURS  0000002000+00000700+00000+0001T   00000700+0000001022          1400 DS7150               3DZ
305436002305436903-000120     305436006002099001665SWEET GS ZILLIONS 50g  0000002000+00000700+00000+0001T   00000700+0000001022          1400 DS7150               3DZ
305436003305436903-000087     305436006001704000161SWT SPECKLED-EGGS 50G  0000004000+00001139+00000+0001T   00001139+0000001022          1400 DS7150               3DZ
305436004305436903-000520     305436006001704009898SWT GUMMY MINI SOUR 60g0000001000+00000876+00000+0001T   00000876+0000001022          1400 DS7150               3DZ
305436005305436463-000366     305436006001023789136SWIM W/NOODLE 150cm    0000004000+00002630+00000+0001T   00002630+0000001022          1400 DS7785               3DZ
305436006305436112-116038     305436006009681820246TCS CARRIER BAG MIDI   0000001000+00000035+00000+0001T   00000035+0000001022          1400 DS7090               3DZ
305436007305436080-000133-A   305436006003000647019MINI VALENTINES CARD   0000002000+00000437+00000+0001T   00000437+0000001022          1400 DS7112               3DZ
305437000305437               305437               170213BH     1400+00000+BH0000001578+0000001578+000000000+000000221+0000001799+0000000000+I40000001799+0000000000+Z
305437001305437077-000303     305437006001023593757GIFT-BAG PAPER MED     0000001000+00001578+00000+0001T   00001578+0000001025          1400 DS7112               3DZ
305438000305438               305438               170213BH     1400+00000+BH0000009846+0000009846+000000000+000001385+0000011231+0000000000+I40000011231+0000000000+Z
305438001305438565-000888     305438006003000607846NOVELTY MESH BALL      0000002000+00001753+00000+0001T   00001753+0000001039          1400 DS7745               3DZ
305438002305438565-000890     305438006003000322107NOVELTY HIBOUNCE BALL  0000001000+00002630+00000+0001T   00002630+0000001039          1400 DS7745               3DZ
305438003305438080-000133-A   305438006003000647019MINI VALENTINES CARD   0000003000+00000437+00000+0001T   00000437+0000001039          1400 DS7112               3DZ
305438004305438077-000383     305438006003000247943GIFT-BAG 11X14CM S/COL 0000003000+00000788+00000+0001T   00000788+0000001039          1400 DS7112               3DZ
305438005305438112-116038     305438006009681820246TCS CARRIER BAG MIDI   0000001000+00000035+00000+0001T   00000035+0000001039          1400 DS7090               3DZ
305439000305439               305439               170213BH     1400+00000+BH0000009647+0000009647+000000000+000001351+0000010998+0000000000+I40000010998+0000000000+Z
305439001305439104-000135     305439006001023846419WASTEBIN SWING-LID 28cm0000001000+00004385+00000+0001T   00004385+0000001042          1400 DS7210               3DZ
305439002305439158-000167     305439006003000569588WASTEPAPER-BASKET 26cm 0000001000+00005262+00000+0001T   00005262+0000001042          1400 DS7300               3DZ
305440000305440               305440               170213BH     1400+00000+BH0000008767+0000008767+000000000+000001229+0000009996+0000000000+I40000009996+0000000000+Z
305440001305440365-002999     305440006001023583734KITCHEN-SET W/ACCESS.  0000001000+00003507+00000+0001T   00003507+0000001110          1400 DS7725               3DZ
305440002305440304-001605     305440006001023842497FLWR LILY SPRAY 53CM   0000001000+00002630+00000+0001T   00002630+0000001110          1400 DS75101IC            3DZ
305440003305440304-003898     305440006001023712790S/FLOWER SPRAY 51CM ASS0000001000+00002630+00000+0001T   00002630+0000001110          1400 DS7510               3DZ
305441000305441               305441               170213BH     1400+00000+BH0000003506+0000003506+000000000+000000492+0000003990+0000000008+I20000000000+0000003990+Z
305441001305441089-000030     305441006003000575671K/CHAIN LOVE MTL ASSTD 0000002000+00001753+00000+0001T   00001753+0000001120          1400 DS7205               3DZ
305442000305442               305442               170213BH     1400+00000+BH0000001578+0000001578+000000000+000000221+0000001790+0000000009+I20000000000+0000001790+Z
305442001305442903-002900     305442005996071650648QUICK MILK 5 CHOCO 5PC 0000001000+00001578+00000+0001T   00001578+0000001120          1400 DS7150               3DZ
305443000305443               305443               170213BH     1400+00000+BH0000005120+0000005120+000000000+000000717+0000005830+0000000007+I20000000000+0000005830+Z
305443001305443018-000127     305443006001023380289MUG OCC STRAIGHT LOVE  0000001000+00001578+00000+0001T   00001753+0006471220          1400 DS7515               3DZ
305443002305443018-000130     305443006001023867537MUG OCC LOVE MINI+HEART0000001000+00003507+00000+0001T   00003507+0000001220          1400 DS7515               3DZ
305443003305443112-116038     305443006009681820246TCS CARRIER BAG MIDI   0000001000+00000035+00000+0001T   00000035+0000001220          1400 DS7090               3DZ
305444000305444               305444               170213BH     1400+00000+BH0000001490+0000001490+000000000+000000209+0000001690+0000000009+I20000000000+0000001690+Z
305444001305444046-000004     305444006001023606525BATTERY 9VOLT H/POWER  0000001000+00001490+00000+0001T   00001490+0000001242          1400 DS7312               3DZ
305445000305445               305445               170213BH     1400+00000+BH0000000786+0000000786+000000000+000000112+0000000890+0000000008+I20000000000+0000000890+Z
305445001305445903-000183     305445006003000451043SWT LB HEART LOLLY     0000002000+00000393+00000+0001T   00000393+0000001245          1400 DS7150               3DZ
305446000305446               305446               170213BH     1400+00000+BH0000002100+0000002100+000000000+000000294+0000002390+0000000004+I20000000000+0000002390+Z
305446001305446007-000166     305446006009685857316SPIRAL NOTES A6 100PG  0000003000+00000700+00000+0001T   00000700+0000001245          1400 DS7130               3DZ
305447000305447               305447               170213BH     1400+00000+BH0000002192+0000002192+000000000+000000307+0000002490+0000000009+I20000000000+0000002490+Z
305447001305447080-000127     305447006003000424351VALENTINES DAY 36x24CM 0000001000+00002192+00000+0001T   00002192+0000001247          1400 DS7112               3DZ
305448000305448               305448               170213BH     1400+00000+BH0000001490+0000001490+000000000+000000209+0000001690+0000000009+I20000000000+0000001690+Z
305448001305448077-000327     305448006001023677686GIFT-BAG 25X32CM E/D BA0000001000+00001490+00000+0001T   00001490+0000001333          1400 DS7112               3DZ
305449000305449               305449               170213BH     1400+00000+BH0000009206+0000009206+000000000+000001290+0000010490+0000000006+I20000000000+0000010490+Z
305449001305449564-001028     305449006001023708663BUBBLE CELEBRATION 6ml 0000001000+00003069+00000+0001T   00003069+0000001342          1400 DS7131               3DZ
305449002305449089-060027     305449006003000245871KEY-CHAIN HEART 6X6cm  0000001000+00003069+00000+0001T   00003069+0000001342          1400 DS7205               3DZ
305449003305449077-000299     305449006003000395576G/BAG 32x25cm LRG LOVE 0000001000+00001490+00000+0001T   00001490+0000001342          1400 DS7112               3DZ
305449004305449018-000127     305449006001023380289MUG OCC STRAIGHT LOVE  0000001000+00001578+00000+0001T   00001753+0006471342          1400 DS7515               3DZ
305450000305450               305450               170213BH     1400+00000+BH0000017445+0000017445+000000000+000002444+0000019889+0000000000+I40000019889+0000000000+Z
305450001305450903-002901     305450005996071650655QUICK MILK 5 S/BERRY   0000001000+00001578+00000+0001T   00001578+0000001345          1400 DS7150               3DZ
305450002305450903-002900     305450005996071650648QUICK MILK 5 CHOCO 5PC 0000001000+00001578+00000+0001T   00001578+0000001345          1400 DS7150               3DZ
305450003305450079-006525     305450006003000681938MASKING FABRIC 10PC    0000001000+00002630+00000+0001T   00002630+0000001345          1400 DS7130               3DZ
305450004305450566-000299     305450006003000682386STICKER LABEL C/BOARD  0000001000+00001753+00000+0001T   00001753+0000001345          1400 DS7130               3DZ
305450005305450071-000701     305450006001023852830CLIPBOARD A4  23x30cm  0000002000+00003507+00000+0001T   00003507+0000001345          1400 DS7130               3DZ
305450006305450903-000843     305450008693029031067SWT GUMMY JELAXY 80G   0000003000+00000964+00000+0001T   00000964+0000001345          1400 DS7150               3DZ
305451000305451               305451               170213BH     1400+00000+BH0000002192+0000002192+000000000+000000307+0000002490+0000000009+I20000000000+0000002490+Z
305451001305451077-000922     305451006003000413935G/WRAP 700mmx2m FLOWER 0000001000+00002192+00000+0001T   00002192+0000001434          1400 DS7112               3DZ
305452000305452               305452               170213BH     1400+00000+BH0000003818+0000003818+000000000+000000535+0000004350+0000000003+I20000000000+0000004350+Z
305452001305452018-000127     305452006001023380289MUG OCC STRAIGHT LOVE  0000001000+00001578+00000+0001T   00001753+0006471435          1400 DS7515               3DZ
305452002305452080-000127     305452006003000424351VALENTINES DAY 36x24CM 0000001000+00002192+00000+0001T   00002192+0000001435          1400 DS7112               3DZ
305452003305452112-116069     305452006009681820277TCS CARRIER BAG JUMBO  0000001000+00000048+00000+0001T   00000048+0000001435          1400 DS7090               3DZ
305453000305453               305453               170213BH     1400+00000+BH0000003378+0000003378+000000000+000000474+0000003850+0000000002+I20000000000+0000003850+Z
305453001305453266-000101     305453006003000552658GLIDER PLANE 15.5X45CM 0000001000+00002630+00000+0001T   00002630+0000001436          1400 DS7710               3DZ
305453002305453564-000012     305453006001023130075BUBBLE BOTTLE MAGIC    0000001000+00000700+00000+0001T   00000700+0000001436          1400 DS7131               3DZ
305453003305453112-116069     305453006009681820277TCS CARRIER BAG JUMBO  0000001000+00000048+00000+0001T   00000048+0000001436          1400 DS7090               3DZ
305454000305454               305454               170213BH     1400+00000+BH0000008413+0000008413+000000000+000001181+0000009594+0000000000+I40000009594+0000000000+Z
305454001305454903-000087     305454006001704000161SWT SPECKLED-EGGS 50G  0000002000+00001139+00000+0001T   00001139+0000001445          1400 DS7150               3DZ
305454002305454030-000007     305454006001023527325PLAQUE WDN B/BOARD ASST0000001000+00002630+00000+0001T   00002630+0000001445          1400 DS7505               3DZ
305454003305454080-000103     305454006003000236961CARD&ENVLOPE BDAY-MALE 0000001000+00001753+00000+0001T   00001753+0000001445          1400 DS7112               3DZ
305454004305454077-000302     305454008010410010195GIFT-BAG 18X23CM E/D   0000002000+00000876+00000+0001T   00000876+0000001445          1400 DS7112               3DZ
305455000305455               305455               170213BH     1400+00000+BH0000001753+0000001753+000000000+000000246+0000001999+0000000000+I40000001999+0000000000+Z
305455001305455106-007125     305455006003000057689MILK-SACHET-JUG 1,0L   0000001000+00001753+00000+0001T   00001753+0000001448          1400 DS7210               3DZ
305456000305456               305456               170213BH     1400+00000+BH0000019202+0000019202+000000000+000002692+0000021890+0000000004+I20000000000+0000021890+Z
305456001305456041-007029     305456006003000178049H/GLO BUBBLE-BATH 2L   0000001000+00006139+00000+0001T   00006139+0000001449          1400 DS7200               3DZ
305456002305456040-000108     305456006001023772541C/HOLDER MOSAIC LANTERN0000001000+00007016+00000+0001T   00007016+0000001449          1400 DS7510               3DZ
305456003305456037-000001     305456006001023490445ASHTRAY 14cm ASSTD     0000003000+00001753+00000+0001T   00001753+0000001449          1400 DS7515               3DZ
305456004305456077-000010-C   305456006001023123879CREPE-PAPER RED        0000001000+00000788+00000+0001T   00000788+0000001449          1400 DS7112               3DZ
305457000305457               305457               170213BH     1400+00000+BH0000002630+0000002630+000000000+000000369+0000002990+0000000009+I20000000000+0000002990+Z
305457001305457077-000270     305457006003000395453GIFT-BAG PPR JMB 33X45 0000001000+00002630+00000+0001T   00002630+0000001500          1400 DS7112               3DZ
305458000305458               305458               170213BH     1400+00000+BH0000010524+0000010524+000000000+000001474+0000011990+0000000008+I20000000000+0000011990+Z
305458001305458004-078988     305458006003000072521EARPHONES L-WEIGHT 1.1m0000002000+00005262+00000+0001T   00005262+0000001509          1400 DS7310               3DZ
305459000305459               305459               170213BH     1400+00000+BH0000001753+0000001753+000000000+000000246+0000001990+0000000009+I20000000000+0000001990+Z
305459001305459903-000211     305459006002099001238SWT GS MALLOW ICE CREAM0000001000+00001753+00000+0001T   00001753+0000001509          1400 DS7150               3DZ
305460000305460               305460               170213BH     1400+00000+BH0000003067+0000003067+000000000+000000431+0000003498+0000000000+I40000003498+0000000000+Z
305460001305460567-075699     305460006003000428168BK NOVEL CATEGORY A    0000001000+00002630+00000+0001T   00003069+0008191529          1400 DS7757               3DZ
305460002305460080-000133-A   305460006003000647019MINI VALENTINES CARD   0000001000+00000437+00000+0001T   00000437+0000001529          1400 DS7112               3DZ
305461000305461               305461               170213BH     1400+00000+BH0000001314+0000001314+000000000+000000184+0000001490+0000000008+I20000000000+0000001490+Z
305461001305461046-000012     305461006904708013062BATTERIES AA  CARD-OF-40000001000+00001314+00000+0001T   00001314+0000001529          1400 DS7312               3DZ
305462000305462               305462               170213BH     1400+00000+BH0000001314+0000001314+000000000+000000184+0000001490+0000000008+I20000000000+0000001490+Z
305462001305462563-000317-B   305462006001023776174SERVIETTES PLN WHT PK400000001000+00001314+00000+0001T   00001314+0000001531          1400 DS7214               3DZ
305463000305463               305463               170213BH     1400+00000+BH0000003191+0000003191+000000000+000000447+0000003630+0000000008+I20000000000+0000003630+Z
305463001305463077-000303     305463006001023593757GIFT-BAG PAPER MED     0000002000+00001578+00000+0001T   00001578+0000001532          1400 DS7112               3DZ
305463002305463112-116038     305463006009681820246TCS CARRIER BAG MIDI   0000001000+00000035+00000+0001T   00000035+0000001532          1400 DS7090               3DZ
305464000305464               305464               170213BH     1400+00000+BH0000000613+0000000613+000000000+000000086+0000000690+0000000009+I20000000000+0000000690+Z
305464001305464304-001011     305464006001023806727FLWR ROSE RED W/BEAR   0000001000+00000613+00000+0001T   00000788+0006471532          1400 DS7510               3DZ
305465000305465               305465               170213BH     1400+00000+BH0000032484+0000032484+000000000+000004551+0000037035+0000000000+I40000037035+0000000000+Z
305465001305465031-000866-A   305465006001023798442P/FRAME WDN SEASIDE    0000003000+00006139+00000+0001T   00006139+0000001537          1400 DS7510               3DZ
305465002305465031-000866-B   305465006001023798473P/FRAME WDN S/BOAT     0000001000+00007016+00000+0001T   00007016+0000001537          1400 DS7510               3DZ
305465003305465030-005010     305465006003000455997PLAQUE WDN SEA WELCOME 0000001000+00007016+00000+0001T   00007016+0000001537          1400 DS7505               3DZ
305465004305465112-116038     305465006009681820246TCS CARRIER BAG MIDI   0000001000+00000035+00000+0001T   00000035+0000001537          1400 DS7090               3DZ
305466000305466               305466               170213BH     1400+00000+BH0000003813+0000003813+000000000+000000534+0000004347+0000000000+I40000004347+0000000000+Z
305466001305466007-000542     305466006001023847874NOTE-BOOK H/C SKETCHPAD0000001000+00003507+00000+0001T   00003507+0000001538          1400 DS7130               3DZ
305466002305466079-009700-I   305466006003000546114PAPER SIRIO A4 LILAC   0000001000+00000306+00000+0001T   00000306+0000001538          1400 DS7130               3DZ
305467000305467               305467               170213BH     1400+00000+BH0000000437+0000000437+000000000+000000062+0000000490+0000000009+I20000000000+0000000490+Z
305467001305467080-000133-A   305467006003000647019MINI VALENTINES CARD   0000001000+00000437+00000+0001T   00000437+0000001549          1400 DS7112               3DZ
305468000305468               305468               170213BH     1400+00000+BH0000003507+0000003507+000000000+000000491+0000003998+0000000000+I40000003998+0000000000+Z
305468001305468567-011348     305468009780709717621BK STICKER ANIMAL WORLD0000001000+00003507+00000+0001T   00003507+0000001551          1400 DS7757               3DZ
305469000305469               305469               170213BH     1400+00000+BH0000002664+0000002664+000000000+000000374+0000003030+0000000008+I20000000000+0000003030+Z
305469001305469903-000897     305469008692806325207SWT CHOC DBL MINI ROLL 0000001000+00000876+00000+0001T   00000876+0000001552          1400 DS7150               3DZ
305469002305469108-005005     305469006003000667451TRAY PL 29x21cm RECT   0000001000+00001753+00000+0001T   00001753+0000001552          1400 DS7210               3DZ
305469003305469112-116038     305469006009681820246TCS CARRIER BAG MIDI   0000001000+00000035+00000+0001T   00000035+0000001552          1400 DS7090               3DZ
305470000305470               305470               170213BH     1400+00000+BH0000002050+0000002050+000000000+000000288+0000002330+0000000008+I20000000000+0000002330+Z
305470001305470077-000303     305470006001023593757GIFT-BAG PAPER MED     0000001000+00001578+00000+0001T   00001578+0000001555          1400 DS7112               3DZ
305470002305470080-000133-A   305470006003000647019MINI VALENTINES CARD   0000001000+00000437+00000+0001T   00000437+0000001555          1400 DS7112               3DZ
305470003305470112-116038     305470006009681820246TCS CARRIER BAG MIDI   0000001000+00000035+00000+0001T   00000035+0000001555          1400 DS7090               3DZ
305471000305471               305471               170213BH     1400+00000+BH0000000700+0000000700+000000000+000000098+0000000790+0000000008+I20000000000+0000000790+Z
305471001305471362-004000     305471000613153000225DISNEY T/BELL TRINKETS 0000001000+00000700+00000+0001T   00000876+0008181556          1400 DS7160               3DZ
305472000305472               305472               170213BH     1400+00000+BH0000018639+0000018639+000000000+000002611+0000021250+0000000000+I20000000000+0000021250+Z
305472001305472077-000303     305472006001023593757GIFT-BAG PAPER MED     0000001000+00001578+00000+0001T   00001578+0000001558          1400 DS7112               3DZ
305472002305472077-000299     305472006003000395576G/BAG 32x25cm LRG LOVE 0000002000+00001490+00000+0001T   00001490+0000001558          1400 DS7112               3DZ
305472003305472018-019000     305472006003000557288MUG OCC. LOVE JUMBO    0000001000+00005262+00000+0001T   00005262+0000001558          1400 DS7515               3DZ
305472004305472368-000614     305472006001023705808PLUSH LOVE 30cm        0000001000+00008771+00000+0001T   00008771+0000001558          1400 DS7745               3DZ
305472005305472112-116069     305472006009681820277TCS CARRIER BAG JUMBO  0000001000+00000048+00000+0001T   00000048+0000001558          1400 DS7090               3DZ
305473000305473               305473               170213BH     1400+00000+BH0000003156+0000003156+000000000+000000442+0000003598+0000000000+I40000003598+0000000000+Z
305473001305473083-000054     305473006001023729071LIGHTER REFILLABLE LED 0000001000+00001578+00000+0001T   00001578+0000001601          1400 DS7315               3DZ
305473002305473077-000303     305473006001023593757GIFT-BAG PAPER MED     0000001000+00001578+00000+0001T   00001578+0000001601          1400 DS7112               3DZ
305474000305474               305474               170213BH     1400+00000+BH0000026362+0000026362+000000000+000003691+0000030053+0000000000+I40000030053+0000000000+Z
305474001305474022-010611     305474006001023733191ROASTER 26cm RND 1st-GR0000001000+00026314+00000+0001T   00026314+0000001603          1400 DS7305               3DZ
305474002305474112-116069     305474006009681820277TCS CARRIER BAG JUMBO  0000001000+00000048+00000+0001T   00000048+0000001603          1400 DS7090               3DZ
305475000305475               305475               170213BH     1400+00000+BH0000007016+0000007016+000000000+000000983+0000007999+0000000000+I40000007999+0000000000+Z
305475001305475030-004075     305475006003000674985P/WDN SIGN 25X25CM ASS.0000001000+00007016+00000+0001T   00007016+0000001604          1400 DS7505               3DZ
305476000305476               305476               170213BH     1400+00000+BH0000009941+0000009941+000000000+000001394+0000011335+0000000000+I40000011335+0000000000+Z
305476001305476903-000520     305476006001704009898SWT GUMMY MINI SOUR 60g0000001000+00000876+00000+0001T   00000876+0000001607          1400 DS7150               3DZ
305476002305476903-000087     305476006001704000161SWT SPECKLED-EGGS 50G  0000002000+00001139+00000+0001T   00001139+0000001607          1400 DS7150               3DZ
305476003305476039-000798     305476006001023617774CANDLES TEALITE BOX-50 0000001000+00006139+00000+0001T   00006139+0000001607          1400 DS7510               3DZ
305476004305476565-000044     305476006003000128280BARREL OF SLIME 100g   0000001000+00000613+00000+0001T   00000613+0000001607          1400 DS7745               3DZ
305476005305476112-116038     305476006009681820246TCS CARRIER BAG MIDI   0000001000+00000035+00000+0001T   00000035+0000001607          1400 DS7090               3DZ
305477000305477               305477               170213BH     1400+00000+BH0000005998+0000005998+000000000+000000840+0000006838+0000000000+I40000006838+0000000000+Z
305477001305477001-000175     305477006001023788108B/MUG GLS LOVE 380ML   0000001000+00004385+00000+0001T   00004385+0000001609          1400 DS7515               3DZ
305477002305477077-000303     305477006001023593757GIFT-BAG PAPER MED     0000001000+00001578+00000+0001T   00001578+0000001609          1400 DS7112               3DZ
305477003305477112-116038     305477006009681820246TCS CARRIER BAG MIDI   0000001000+00000035+00000+0001T   00000035+0000001609          1400 DS7090               3DZ
305478000305478               305478               170213BH     1400+00000+BH0000004997+0000004997+000000000+000000700+0000005690+0000000007+I20000000000+0000005690+Z
305478001305478077-000384     305478006003000275243G/BAG HOT STMP 18x23CM 0000001000+00001490+00000+0001T   00001490+0000001609          1400 DS7112               3DZ
305478002305478031-086303-B   305478006003000322404P/FRM CHAMPAGNE 13X18CM0000001000+00003507+00000+0001T   00003507+0000001609          1400 DS7510               3DZ
305479000305479               305479               170213BH     1400+00000+BH0000000437+0000000437+000000000+000000062+0000000490+0000000009+I20000000000+0000000490+Z
305479001305479080-000133-A   305479006003000647019MINI VALENTINES CARD   0000001000+00000437+00000+0001T   00000437+0000001610          1400 DS7112               3DZ
305480000305480               305480               170213BH     1400+00000+BH0000003507+0000003507+000000000+000000491+0000003990+0000000008+I20000000000+0000003990+Z
305480001305480007-000291     305480006003000590131REMINDER NOTES REFILL  0000001000+00003507+00000+0001T   00003507+0000001611          1400 DS7130               3DZ
305481000305481               305481               170213BH     1400+00000+BH0000001578+0000001578+000000000+000000221+0000001790+0000000009+I20000000000+0000001790+Z
305481001305481077-000315     305481006003000181186GIFT-BAG 20x28cm MATT  0000001000+00001578+00000+0001T   00001578+0000001613          1400 DS7112               3DZ
305482000305482               305482               170213BH     1400+00000+BH0000001490+0000001490+000000000+000000209+0000001690+0000000009+I20000000000+0000001690+Z
305482001305482077-000299     305482006003000395576G/BAG 32x25cm LRG LOVE 0000001000+00001490+00000+0001T   00001490+0000001615          1400 DS7112               3DZ
305483000305483               305483               170213BH     1400+00000+BH0000014461+0000014461+000000000+000002027+0000016488+0000000000+I40000016488+0000000000+Z
305483001305483903-000215     305483006002099001214SWT GS MALLOW TWIST PAC0000002000+00001753+00000+0001T   00001753+0000001616          1400 DS7150               3DZ
305483002305483903-000518     305483006001704012782SWT STRAWS S/BERRY 100g0000005000+00001227+00000+0001T   00001227+0000001616          1400 DS7150               3DZ
305483003305483903-000844     305483005010478432567SWT CANDY DL LUV HEARTS0000002000+00001314+00000+0001T   00001314+0000001616          1400 DS7150               3DZ
305483004305483566-000359     305483006003000582709STICKER BOOK LOVE SPARK0000001000+00002192+00000+0001T   00002192+0000001616          1400 DS7130               3DZ
305484000305484               305484               170213BH     1400+00000+BH0000023672+0000023672+000000000+000003320+0000026990+0000000002+I20000000000+0000026990+Z
305484001305484463-000366     305484006001023789136SWIM W/NOODLE 150cm    0000004000+00002630+00000+0001T   00002630+0000001617          1400 DS7785               3DZ
305484002305484007-000588     305484006001023810090NOTES SHOPPING-LIST+RIB0000001000+00002630+00000+0001T   00002630+0000001617          1400 DS7130               3DZ
305484003305484056-065302     305484006001023759566CAR SUN-SHIELD ALM-FOIL0000001000+00002630+00000+0001T   00002630+0000001617          1400 DS7860               3DZ
305484004305484037-000004     305484006001023763679ASHTRAY PL TUB 8X11CM  0000001000+00001753+00000+0001T   00002192+0008191617          1400 DS7515               3DZ
305484005305484027-000029     305484006003000439676FLOOR-BROOM 1.2m ASSTD 0000001000+00006139+00000+0001T   00006139+0000001617          1400 DS7212               3DZ
305485000305485               305485               170213BH     1400+00000+BH0000001753+0000001753+000000000+000000246+0000001990+0000000009+I20000000000+0000001990+Z
305485001305485089-000030     305485006003000575671K/CHAIN LOVE MTL ASSTD 0000001000+00001753+00000+0001T   00001753+0000001618          1400 DS7205               3DZ
305486000305486               305486               170213BH     1400+00000+BH0000004383+0000004383+000000000+000000614+0000004997+0000000000+I40000004997+0000000000+Z
305486001305486089-000192-A   305486006001023901774KEY-CHAIN ACRYLIC      0000001000+00000876+00000+0001T   00000876+0000001619          1400 DS7205               3DZ
305486002305486204-000105     305486006001023722119MEMO-HOLDER WORDS 101PC0000001000+00003507+00000+0001T   00003507+0000001619          1400 DS7300               3DZ
305487000305487               305487               170213BH     1400+00000+BH0000004385+0000004385+000000000+000000614+0000004990+0000000009+I20000000000+0000004990+Z
305487001305487029-000009     305487006001023809575BUCKET GALV  2L        0000001000+00004385+00000+0001T   00004385+0000001625          1400 DS7510               3DZ
305488000305488               305488               170213BH     1400+00000+BH0000018857+0000018857+000000000+000002641+0000021498+0000000000+I40000021498+0000000000+Z
305488001305488567-014135     305488006003000560264BOOK COLOURING 240P    0000001000+00003069+00000+0001T   00003507+0008191627          1400 DS7757               3DZ
305488002305488586-010649     305488006001492106496WATCH LDS RND B/FLY WHT0000001000+00015788+00000+0001T   00015788+0000001627          1400 DS7160               3DZ
305489000305489               305489               170213BH     1400+00000+BH0000003069+0000003069+000000000+000000430+0000003490+0000000009+I20000000000+0000003490+Z
305489001305489072-020314     305489006003000605453PET TOY PUP VINYL CHICK0000001000+00003069+00000+0001T   00003069+0000001627          1400 DS7870               3DZ
305490000305490               305490               170213BH     1400+00000+BH0000001753+0000001753+000000000+000000246+0000001990+0000000009+I20000000000+0000001990+Z
305490001305490079-013099     305490006003000081875ART+CRAFT EYES ASSTD   0000001000+00001753+00000+0001T   00001753+0000001629          1400 DS7130               3DZ
305491000305491               305491               170213BH     1400+00000+BH0000000437+0000000437+000000000+000000062+0000000490+0000000009+I20000000000+0000000490+Z
305491001305491080-000133-A   305491006003000647019MINI VALENTINES CARD   0000001000+00000437+00000+0001T   00000437+0000001631          1400 DS7112               3DZ
305492000305492               305492               170213BH     1400+00000+BH0000002192+0000002192+000000000+000000307+0000002490+0000000009+I20000000000+0000002490+Z
305492001305492046-000012-A   305492006003000208296BATTERIES H/POWER SZ:AA0000001000+00002192+00000+0001T   00002192+0000001631          1400 DS7312               3DZ
305493000305493               305493               170213BH     1400+00000+BH0000006960+0000006960+000000000+000000976+0000007936+0000000000+I40000007936+0000000000+Z
305493001305493566-000031     305493006003000283910STICKER BK TEACHER STIC0000001000+00002192+00000+0001T   00002192+0000001633          1400 DS7130               3DZ
305493002305493566-000028     305493006003000265541STICKER BK ASSTD 250PCE0000001000+00001753+00000+0001T   00001753+0000001633          1400 DS7130               3DZ
305493003305493903-000517     305493006001704012768SWT STRAWS FIZZY CHERRY0000001000+00001227+00000+0001T   00001227+0000001633          1400 DS7150               3DZ
305493004305493200-003024     305493006001023657299REFUSE BAGS 20PCE BLACK0000001000+00001753+00000+0001T   00001753+0000001633          1400 DS7214               3DZ
305493005305493112-116038     305493006009681820246TCS CARRIER BAG MIDI   0000001000+00000035+00000+0001T   00000035+0000001633          1400 DS7090               3DZ
305494000305494               305494               170213BH     1400+00000+BH0000003535+0000003535+000000000+000000495+0000004030+0000000000+I20000000000+0000004030+Z
305494001305494261-000121     305494006001023341600GUN-CAPS 8-SHOT CARD-9 0000005000+00000700+00000+0001T   00000700+0000001634          1400 DS7710               3DZ
305494002305494112-116038     305494006009681820246TCS CARRIER BAG MIDI   0000001000+00000035+00000+0001T   00000035+0000001634          1400 DS7090               3DZ
305495000305495               305495               170213BH     1400+00000+BH0000004822+0000004822+000000000+000000676+0000005498+0000000000+I40000005498+0000000000+Z
305495001305495079-000280     305495006003000160723PAINT READYMIX 6PCE    0000001000+00002630+00000+0001T   00002630+0000001636          1400 DS7130               3DZ
305495002305495080-000127     305495006003000424351VALENTINES DAY 36x24CM 0000001000+00002192+00000+0001T   00002192+0000001636          1400 DS7112               3DZ
305496000305496               305496               170213BH     1400+00000+BH0000008449+0000008449+000000000+000001185+0000009630+0000000004+I20000000000+0000009630+Z
305496001305496027-056191     305496006916920933134DISH-BRUSH+HOOK RECT   0000001000+00001753+00000+0001T   00001753+0000001638          1400 DS7212               3DZ
305496002305496027-000082     305496006001023760258SCOURERS ROUND   PACK-60000001000+00001227+00000+0001T   00001227+0000001638          1400 DS7212               3DZ
305496003305496039-000108     305496006001023524034TEA-LITE CANDLES 8PCE  0000001000+00001490+00000+0001T   00001490+0000001638          1400 DS7510               3DZ
305496004305496083-000049     305496004891035200024CIG-LIGHTER DISPOSABLE 0000001000+00000437+00000+0001T   00000437+0000001638          1400 DS7315               3DZ
305496005305496112-116038     305496006009681820246TCS CARRIER BAG MIDI   0000001000+00000035+00000+0001T   00000035+0000001638          1400 DS7090               3DZ
305496006305496133-000017     305496006003000525171CLEANING-CLOTHS 5PCE   0000001000+00003507+00000+0001T   00003507+0000001638          1400 DS7212               3DZ
305497000305497               305497               170213BH     1400+00000+BH0000001753+0000001753+000000000+000000246+0000001990+0000000009+I20000000000+0000001990+Z
305497001305497080-000108     305497006003000237210CARD&ENVLPE BDAY-BOY   0000001000+00001753+00000+0001T   00001753+0000001638          1400 DS7112               3DZ
305498000305498               305498               170213BH     1400+00000+BH0000002401+0000002401+000000000+000000337+0000002738+0000000000+I40000002738+0000000000+Z
305498001305498366-006104     305498006003000616930DRESS UP FACE PAINT    0000001000+00001753+00000+0001T   00001753+0000001640          1400 DS7131               3DZ
305498002305498304-001011     305498006001023806727FLWR ROSE RED W/BEAR   0000001000+00000613+00000+0001T   00000788+0006471640          1400 DS7510               3DZ
305498003305498112-116038     305498006009681820246TCS CARRIER BAG MIDI   0000001000+00000035+00000+0001T   00000035+0000001640          1400 DS7090               3DZ
305499000305499               305499               170213BH     1400+00000+BH0000003941+0000003941+000000000+000000555+0000004496+0000000000+I40000004496+0000000000+Z
305499001305499903-000885     305499008690997017147SWT L/BIRD CHOC BISCUIT0000003000+00000437+00000+0001T   00000437+0000001642          1400 DS7150               3DZ
305499002305499140-006008     305499006001023803214FLY-SWATTERS   SET-OF-40000001000+00002630+00000+0001T   00002630+0000001642          1400 DS7830               3DZ
305500000305500               305500               170213BH     1400+00000+BH0000002240+0000002240+000000000+000000314+0000002550+0000000004+I20000000000+0000002550+Z
305500001305500112-116069     305500006009681820277TCS CARRIER BAG JUMBO  0000001000+00000048+00000+0001T   00000048+0000001642          1400 DS7090               3DZ
305500002305500080-000127     305500006003000424351VALENTINES DAY 36x24CM 0000001000+00002192+00000+0001T   00002192+0000001642          1400 DS7112               3DZ
305501000305501               305501               170213BH     1400+00000+BH0000002192+0000002192+000000000+000000307+0000002490+0000000009+I20000000000+0000002490+Z
305501001305501566-000359     305501006003000582709STICKER BOOK LOVE SPARK0000001000+00002192+00000+0001T   00002192+0000001643          1400 DS7130               3DZ
305502000305502               305502               170213BH     1400+00000+BH0000019155+0000019155+000000000+000002682+0000021837+0000000000+I40000021837+0000000000+Z
305502001305502077-000303     305502006001023593757GIFT-BAG PAPER MED     0000001000+00001578+00000+0001T   00001578+0000001645          1400 DS7112               3DZ
305502002305502039-000799     305502006001023692382CANDLES TEALITE 100PCE 0000002000+00008771+00000+0001T   00008771+0000001645          1400 DS7510               3DZ
305502003305502112-116038     305502006009681820246TCS CARRIER BAG MIDI   0000001000+00000035+00000+0001T   00000035+0000001645          1400 DS7090               3DZ
305503000305503               305503               170213BH     1400+00000+BH0000005204+0000005204+000000000+000000731+0000005935+0000000000+I40000005935+0000000000+Z
305503001305503903-000123     305503006925925909280SWEET GS MINI MALLOWS  0000001000+00000876+00000+0001T   00000876+0000001646          1400 DS7150               3DZ
305503002305503903-002891     305503008935001721376MENTOS GUM WINTERGREEN 0000001000+00001051+00000+0001T   00001051+0000001646          1400 DS7150               3DZ
305503003305503903-000087     305503006001704000161SWT SPECKLED-EGGS 50G  0000001000+00001139+00000+0001T   00001139+0000001646          1400 DS7150               3DZ
305503004305503033-000013     305503006001023567215PILL-REMINDER PL       0000001000+00001227+00000+0001T   00001227+0000001646          1400 DS7200               3DZ
305503005305503903-000220     305503006001704007368SWT JELLY BEANS 60G    0000001000+00000876+00000+0001T   00000876+0000001646          1400 DS7150               3DZ
305503006305503112-116038     305503006009681820246TCS CARRIER BAG MIDI   0000001000+00000035+00000+0001T   00000035+0000001646          1400 DS7090               3DZ
305504000305504               305504               170213BH     1400+00000+BH0000001490+0000001490+000000000+000000209+0000001699+0000000000+I40000001699+0000000000+Z
305504001305504565-000600     305504006003000643721NOVELTY WINDOW WALKER  0000001000+00001490+00000+0001T   00001490+0000001650          1400 DS7745               3DZ
305505000305505               305505               170213BH     1400+00000+BH0000008771+0000008771+000000000+000001228+0000009999+0000000000+I40000009999+0000000000+Z
305505001305505031-006542     305505006003000222698P/FRAME WDN.THICK 20X250000001000+00008771+00000+0001T   00008771+0000001652          1400 DS7510               3DZ
305506000305506               305506               170213BH     1400+00000+BH0000003275+0000003275+000000000+000000461+0000003730+0000000006+I20000000000+0000003730+Z
305506001305506903-000885     305506008690997017147SWT L/BIRD CHOC BISCUIT0000002000+00000437+00000+0001T   00000437+0000001653          1400 DS7150               3DZ
305506002305506566-001234     305506006003000217793STICKERS LASER ASSTD   0000001000+00001578+00000+0001T   00001578+0000001653          1400 DS7130               3DZ
305506003305506566-000858     305506006001023760975STCKRS G/OUTLINE ASSTD 0000001000+00000788+00000+0001T   00000788+0000001653          1400 DS7130               3DZ
305506004305506112-116038     305506006009681820246TCS CARRIER BAG MIDI   0000001000+00000035+00000+0001T   00000035+0000001653          1400 DS7090               3DZ
305507000305507               305507               170213BH     1400+00000+BH0000009956+0000009956+000000000+000001396+0000011350+0000000002+I20000000000+0000011350+Z
305507001305507019-000300     305507006001023845139VASE CER. ASST         0000001000+00007016+00000+0001T   00007016+0000001654          1400 DS7510               3DZ
305507002305507304-001204     305507006001023737984FLOWER OCC. TEDDY/ROSES0000001000+00001402+00000+0001T   00001490+0006471654          1400 DS7510               3DZ
305507003305507077-000299     305507006003000395576G/BAG 32x25cm LRG LOVE 0000001000+00001490+00000+0001T   00001490+0000001654          1400 DS7112               3DZ
305507004305507112-116069     305507006009681820277TCS CARRIER BAG JUMBO  0000001000+00000048+00000+0001T   00000048+0000001654          1400 DS7090               3DZ
305508000305508               305508               170213BH     1400+00000+BH0000013098+0000013098+000000000+000001836+0000014934+0000000000+I40000014934+0000000000+Z
305508001305508566-000359     305508006003000582709STICKER BOOK LOVE SPARK0000001000+00002192+00000+0001T   00002192+0000001659          1400 DS7130               3DZ
305508002305508079-013032-H   305508006003000496501GLITTER PRINCESS ACC   0000001000+00002630+00000+0001T   00002630+0000001659          1400 DS7130               3DZ
305508003305508077-000010-U   305508006001023168863CREPE-PAPER CERISE-PINK0000001000+00000788+00000+0001T   00000788+0000001659          1400 DS7112               3DZ
305508004305508079-006493     305508006003000612086GLITTER GLUE 125g ASSTD0000001000+00002192+00000+0001T   00002192+0000001659          1400 DS7130               3DZ
305508005305508079-014152     305508006003000253074ART+CRAFT PK50 ASSTD   0000001000+00003069+00000+0001T   00003069+0000001659          1400 DS7130               3DZ
305508006305508566-000068     305508006003000418046POP UP LOVE 2 ASSTD    0000001000+00002192+00000+0001T   00002192+0000001659          1400 DS7130               3DZ
305508007305508112-116038     305508006009681820246TCS CARRIER BAG MIDI   0000001000+00000035+00000+0001T   00000035+0000001659          1400 DS7090               3DZ
305509000305509               305509               170213BH     1400+00000+BH0000006399+0000006399+000000000+000000898+0000007290+0000000007+I20000000000+0000007290+Z
305509001305509050-000364-Z   305509006001023777133PADLOCK IRON 38mm CARD 0000001000+00002630+00000+0001T   00002630+0000001702          1400 DS7855               3DZ
305509002305509007-000302     305509006009635830000BOOK H/COVER A4 96-PAGE0000001000+00001139+00000+0001T   00001139+0000001702          1400 DS7130               3DZ
305509003305509903-000922     305509006914204008158SWT ST NOVELTY CAR     0000001000+00002630+00000+0001T   00002630+0000001702          1400 DS7150               3DZ
305510000305510               305510               170213BH     1400+00000+BH0000020466+0000020466+000000000+000002867+0000023333+0000000000+I40000023333+0000000000+Z
305510001305510567-004962     305510009780636049093TYB G03 ENGLISH        0000001000+00002192+00000+0001T   00002192+0000001705          1400 DS7757               3DZ
305510002305510567-004963     305510009780636049031TYB G03 MATHS          0000001000+00002192+00000+0001T   00002192+0000001705          1400 DS7757               3DZ
305510003305510220-000140     305510006003000567621C/SET S/S 16PC ELOFF   0000001000+00008771+00000+0001T   00008771+0000001705          1400 DS7300               3DZ
305510004305510220-005006     305510006003000566396ELOFF SODA SPOONS 4PC  0000001000+00002630+00000+0001T   00002630+0000001705          1400 DS7300               3DZ
305510005305510903-000087     305510006001704000161SWT SPECKLED-EGGS 50G  0000001000+00001139+00000+0001T   00001139+0000001705          1400 DS7150               3DZ
305510006305510104-000180     305510006001023765758CUTLERY-TRAY PL        0000001000+00003507+00000+0001T   00003507+0000001705          1400 DS7210               3DZ
305510007305510112-116038     305510006009681820246TCS CARRIER BAG MIDI   0000001000+00000035+00000+0001T   00000035+0000001705          1400 DS7090               3DZ
305511000305511               305511               170213BH     1400+00000+BH0000005961+0000005961+000000000+000000836+0000006797+0000000000+I40000006797+0000000000+Z
305511001305511077-000303     305511006001023593757GIFT-BAG PAPER MED     0000001000+00001578+00000+0001T   00001578+0000001706          1400 DS7112               3DZ
305511002305511206-000620     305511006003000631797BACK SCRATCHER EXTEND  0000001000+00002630+00000+0001T   00002630+0000001706          1400 DS7321               3DZ
305511003305511566-000028     305511006003000265541STICKER BK ASSTD 250PCE0000001000+00001753+00000+0001T   00001753+0000001706          1400 DS7130               3DZ
305512000305512               305512               170213BH     1400+00000+BH0000008413+0000008413+000000000+000001181+0000009590+0000000004+I20000000000+0000009590+Z
305512001305512027-001020     305512006001246602519BROOM FLOOR W/HANDLE   0000001000+00002279+00000+0001T   00002279+0000001708          1400 DS7212               3DZ
305512002305512027-000194     305512006001246602472MOP COMPLETE           0000001000+00002279+00000+0001T   00002279+0000001708          1400 DS7212               3DZ
305512003305512105-001032     305512000700371696634CONTAINER FOODSAVER 1.20000001000+00001753+00000+0001T   00001753+0000001708          1400 DS7210               3DZ
305512005305512083-000055     305512006003000003853LIGHTER ELCTRNC REFILBL0000002000+00000613+00000+0001T   00000613+0000001708          1400 DS7315               3DZ
305512006305512083-000295     305512006001023898562LIGHTER-GAS BUTANE 18ml0000001000+00000876+00000+0001T   00000876+0000001708          1400 DS7315               3DZ
305513000305513               305513               170213BH     1400+00000+BH0000000035+0000000035+000000000+000000005+0000000040+0000000000+I20000000000+0000000040+Z
305513001305513112-116038     305513006009681820246TCS CARRIER BAG MIDI   0000001000+00000035+00000+0001T   00000035+0000001708          1400 DS7090               3DZ
305514000305514               305514               170213BH     1400+00000+BH0000011255+0000011255+000000000+000001576+0000012831+0000000000+I40000012831+0000000000+Z
305514001305514566-001012     305514006001023528070STICKERS GLOW IN DARK  0000001000+00001314+00000+0001T   00001314+0000001711          1400 DS7130               3DZ
305514002305514079-000286     305514006001023797032FINGER-PAINT 4PCE      0000001000+00003507+00000+0001T   00003507+0000001711          1400 DS7130               3DZ
305514003305514566-000991     305514000721129013121STICKERS GLOW-IN-DARK  0000001000+00002192+00000+0001T   00002192+0000001711          1400 DS7130               3DZ
305514004305514079-006498     305514006001023836151GLITTER SET 10PCE      0000001000+00003507+00000+0001T   00003507+0000001711          1400 DS7130               3DZ
305514005305514565-000256     305514006003000609826NOVELTY GLOW SLIME     0000001000+00000700+00000+0001T   00000700+0000001711          1400 DS7745               3DZ
305514006305514112-116038     305514006009681820246TCS CARRIER BAG MIDI   0000001000+00000035+00000+0001T   00000035+0000001711          1400 DS7090               3DZ
305515000305515               305515               170213BH     1400+00000+BH0000004646+0000004646+000000000+000000651+0000005297+0000000000+I40000005297+0000000000+Z
305515001305515560-000102     305515006001023746979ANIMALS FARM IN-TUBE   0000001000+00003507+00000+0001T   00003507+0000001712          1400 DS7745               3DZ
305515002305515903-000087     305515006001704000161SWT SPECKLED-EGGS 50G  0000001000+00001139+00000+0001T   00001139+0000001712          1400 DS7150               3DZ
305516000305516               305516               170213BH     1400+00000+BH0000001753+0000001753+000000000+000000246+0000001999+0000000000+I40000001999+0000000000+Z
305516001305516080-000112     305516006003000252749CARD&ENVLP BDAY-MUSICAL0000001000+00001753+00000+0001T   00001753+0000001713          1400 DS7112               3DZ
305517000305517               305517               170213BH     1400+00000+BH0000003980+0000003980+000000000+000000558+0000004538+0000000000+I40000004538+0000000000+Z
305517001305517006-000800     305517006001023902801HAT CABARET 14x18cm    0000001000+00001753+00000+0001T   00001753+0000001714          1400 DS7131               3DZ
305517002305517566-000359     305517006003000582709STICKER BOOK LOVE SPARK0000001000+00002192+00000+0001T   00002192+0000001714          1400 DS7130               3DZ
305517003305517112-116038     305517006009681820246TCS CARRIER BAG MIDI   0000001000+00000035+00000+0001T   00000035+0000001714          1400 DS7090               3DZ
305518000305518               305518               170213BH     1400+00000+BH0000010166+0000010166+000000000+000001427+0000011593+0000000000+I40000011593+0000000000+Z
305518001305518562-000504     305518006001023619327EDU CUBE RUBIX         0000001000+00002630+00000+0001T   00002630+0000001716          1400 DS7755               3DZ
305518002305518006-000093     305518006003000539932PARTY BANNER FLAGS ASST0000003000+00001753+00000+0001T   00001753+0000001716          1400 DS7131               3DZ
305518003305518903-000510     305518006001704012621SWEET MS ZBDZ S/BERRY  0000001000+00001227+00000+0001T   00001227+0000001716          1400 DS7150               3DZ
305518004305518903-000077     305518006939873501687SWT GS MAGIC ROCK FRUIT0000002000+00000525+00000+0001T   00000525+0000001716          1400 DS7150               3DZ
305519000305519               305519               170213BH     1400+00000+BH0000000875+0000000875+000000000+000000123+0000000998+0000000000+I40000000998+0000000000+Z
305519001305519903-000077     305519006939873501687SWT GS MAGIC ROCK FRUIT0000001000+00000525+00000+0001T   00000525+0000001717          1400 DS7150               3DZ
305519002305519903-000159     305519006003000417629SWT LB SMALL DUMMIE    0000001000+00000350+00000+0001T   00000350+0000001717          1400 DS7150               3DZ
305520000305520               305520               170213BH     1400+00000+BH0000003506+0000003506+000000000+000000491+0000003990+0000000007+I20000000000+0000003990+Z
305520001305520046-000012     305520006904708013062BATTERIES AA  CARD-OF-40000001000+00001314+00000+0001T   00001314+0000001718          1400 DS7312               3DZ
305520002305520080-000127     305520006003000424351VALENTINES DAY 36x24CM 0000001000+00002192+00000+0001T   00002192+0000001718          1400 DS7112               3DZ
305521000305521               305521               170213BH     1400+00000+BH0000006576+0000006576+000000000+000000921+0000007490+0000000007+I20000000000+0000007490+Z
305521001305521903-000616     305521006003000644827SWT HS SWORD 60cm      0000001000+00003507+00000+0001T   00003507+0000001725          1400 DS7150               3DZ
305521002305521089-060027     305521006003000245871KEY-CHAIN HEART 6X6cm  0000001000+00003069+00000+0001T   00003069+0000001725          1400 DS7205               3DZ
305522000305522               305522               170213BH     1400+00000+BH0000022364+0000022364+000000000+000003132+0000025496+0000000000+I40000025496+0000000000+Z
305522001305522072-020242     305522006003000053728PET BED COTTON TEXTILE 0000002000+00008771+00000+0001T   00008771+0000001726          1400 DS7870               3DZ
305522002305522080-000133-A   305522006003000647019MINI VALENTINES CARD   0000001000+00000437+00000+0001T   00000437+0000001726          1400 DS7112               3DZ
305522003305522050-000887-TS  305522006003000688210PADLOCK COMBO 35mm 8DIG0000001000+00004385+00000+0001T   00004385+0000001726          1400 DS7855               3DZ
305523000305523               305523               170213BH     1400+00000+BH0000012278+0000012278+000000000+000001720+0000013998+0000000000+I40000013998+0000000000+Z
305523001305523077-000270     305523006003000395453GIFT-BAG PPR JMB 33X45 0000001000+00002630+00000+0001T   00002630+0000001729          1400 DS7112               3DZ
305523002305523030-004015     305523006003000467624PLAQUE WDN SIGN 30X20CM0000001000+00009648+00000+0001T   00009648+0000001729          1400 DS7505               3DZ
305524000305524               305524               170213BH     1400+00000+BH0000003506+0000003506+000000000+000000492+0000003998+0000000000+I40000003998+0000000000+Z
305524001305524200-003024     305524006001023657299REFUSE BAGS 20PCE BLACK0000002000+00001753+00000+0001T   00001753+0000001730          1400 DS7214               3DZ
305525000305525               305525               170213BH     1400+00000+BH0000008768+0000008768+000000000+000001228+0000009996+0000000000+I40000009996+0000000000+Z
305525001305525563-000318-G   305525006003000404360SERVIETTES 33cm PINK   0000001000+00002192+00000+0001T   00002192+0000001733          1400 DS7214               3DZ
305525002305525104-000500     305525006003000621392BASKET PL CLEANING CADY0000001000+00005262+00000+0001T   00005262+0000001733          1400 DS7210               3DZ
305525003305525903-000194     305525006009826020616SWT CHOC RP LOLLY 25G  0000001000+00001314+00000+0001T   00001314+0000001733          1400 DS7150               3DZ
305526000305526               305526               170213BH     1400+00000+BH0000002628+0000002628+000000000+000000369+0000002990+0000000007+I20000000000+0000002990+Z
305526001305526903-000897     305526008692806325207SWT CHOC DBL MINI ROLL 0000003000+00000876+00000+0001T   00000876+0000001734          1400 DS7150               3DZ
305527000305527               305527               170213BH     1400+00000+BH0000003069+0000003069+000000000+000000430+0000003490+0000000009+I20000000000+0000003490+Z
305527001305527002-000652     305527006001023553188M/SPOON WDN 3PC H/HOUSE0000001000+00003069+00000+0001T   00003069+0000001735          1400 DS7300               3DZ
305528000305528               305528               170213BH     1400+00000+BH0000000876+0000000876+000000000+000000123+0000000990+0000000009+I20000000000+0000000990+Z
305528001305528077-000151     305528006008766114676GIFT-WRAP C/PHANE ASSTD0000001000+00000876+00000+0001T   00000876+0000001740          1400 AS6112               3DZ
305529000305529               305529               170213BH     1400+00000+BH0000007716+0000007716+000000000+000001081+0000008790+0000000007+I20000000000+0000008790+Z
305529001305529368-000021     305529006003000672141PLUSH DINOSAUR 27cm    0000001000+00007016+00000+0001T   00007016+0000001741          1400 AS6745               3DZ
305529002305529564-000012     305529006001023130075BUBBLE BOTTLE MAGIC    0000001000+00000700+00000+0001T   00000700+0000001741          1400 AS6131               3DZ
305530000305530               305530               170213BH     1400+00000+BH0000001490+0000001490+000000000+000000209+0000001690+0000000009+I20000000000+0000001690+Z
305530001305530077-000305     305530006003000395422GIFT-BAG WINE 10X35CM  0000001000+00001490+00000+0001T   00001490+0000001742          1400 AS6112               3DZ
305531000305531               305531               170213BH     1400+00000+BH0000003542+0000003542+000000000+000000496+0000004038+0000000000+I40000004038+0000000000+Z
305531001305531018-000136     305531006001023659026MUG OCC LOVE W/PLUSH   0000001000+00003507+00000+0001T   00003507+0000001744          1400 AS6515               3DZ
305531002305531112-116038     305531006009681820246TCS CARRIER BAG MIDI   0000001000+00000035+00000+0001T   00000035+0000001744          1400 AS6090               3DZ
305532000305532               305532               170213BH     1400+00000+BH0000001314+0000001314+000000000+000000184+0000001498+0000000000+I40000001498+0000000000+Z
305532001305532077-000407     305532006003000145096G/BAG PP 19X26X8CM     0000001000+00001314+00000+0001T   00001314+0000001745          1400 AS6112               3DZ
305533000305533               305533               170213BH     1400+00000+BH0000001753+0000001753+000000000+000000246+0000001999+0000000000+I40000001999+0000000000+Z
305533001305533080-000113     305533006003000237449CARD&ENVLPE - LOVE     0000001000+00001753+00000+0001T   00001753+0000001746          1400 AS6112               3DZ
305534000305534               305534               170213BH     1400+00000+BH0000002630+0000002630+000000000+000000369+0000002999+0000000000+I40000002999+0000000000+Z
305534001305534304-000720     305534006001023843050F/BUNCH ROSE 6-HEAD AST0000001000+00002630+00000+0001T   00002630+0000001748          1400 AS6510               3DZ
A17021300                                          08433523BHSLAVE 3                       AS62IC
A17021301                                          10052773BHSLAVE 3                       DS72IC
A17021302                                          10060631BHSLAVE 3                       DS72IC
A17021303                                          11080997BHSLAVE 3                       DS73IC
A17021304                                          11513740BHSLAVE 3                       DS73IC
A17021305                                          12252822BHSLAVE 3                       AS62IC
A17021306                                          14505820BHSLAVE 3                       DS72IC
A17021307                                          15343078BHSLAVE 3                       DS73IC
B30544000                                          170213BH304-001605     11091302SLAVE 3     DS71IC0000002000+0000001000+0000000000000+
C30551200                                          170213BH018-000022     17074268SLAVE 3     DS71IC0000000000+0000000000+0040000002000+
M17021391                              CASH        BHSLAVE 3                       Z-REPORT No.   641TOTAL (Sales - Refunds)           7437.47       CASH TO BE BANKED                 2706.60       DEBIT CARDS                       4730.77       CREDIT CARDS                         0.00       Z-READING                         7437.47       AIRTIME DEBIT CARD SALES             0.00       AIRTIME CARD SALES                   0.00       OVERS/UNDERS                         0.10-      AIRTIME CASH SALES                   0.00       GIFT CARDS                           0.00       GIFT CARD CASH SALES                 0.00       T O T A L  CASH PAYOUTS              0.00                                                                                                                                                                                                                                                                                                                                                      Z
M17021392                              CASH        BHABSENT                                                                                                                                                                                          ANNUAL LEAVE                                                                                                                                                                                    DAY OFF                                                                                                                                                                                         COMMENTS                                                                                                                                                                                                                                                                                                                                                                                       Z
Y17021300                                          BH00000000652656+000103
ZBH17021319203 SLAVE 3      SALES DATA                     NEXT INVOICE NO.  305535 0641
F093709496-056475         1701111055180000072ICSLAVE 3
F093801496-028272         1701120951390000022ICSLAVE 3
F094072496-028122         1701130915580000023ICSLAVE 3
F094119463-000501         1701130916290000053ICSLAVE 3
T094462566-000309                                          1702131139420000031ICSLAVE 3
F094829006-000166-D       1702100909370000083ICSLAVE 3
X BH Slave 3 First invoice 305432 170213 Last invoice 305534 170213 Next invoice 305535 Total number of records 000000365 clbackup completed 19:20:33
