103725000103725               103725               170213BI     1400+00000+BI0000009867+0000009867+000000000+000001384+0000011250+0000000001+I20000000000+0000011250+Z
103725001103725083-000055     103725006003000003853LIGHTER ELCTRNC REFILBL0000001000+00000613+00000+0001T   00000613+0000000928          1400 SH4315               1AZ
103725002103725036-000014     103725006001246500822LINT REMOVER 40x SHEET 0000001000+00003946+00000+0001T   00003946+0000000928          1400 SH4212               1AZ
103725003103725002-220002     103725006001023677877F/COVER SQ 31cm WHT    0000002000+00002630+00000+0001T   00002630+0000000928          1400 SH4300               1AZ
103725004103725112-116069     103725006009681820277TCS CARRIER BAG JUMBO  0000001000+00000048+00000+0001T   00000048+0000000928          1400 SH4090               1AZ
103726000103726               103726               170213BI     1400+00000+BI0000005658+0000005658+000000000+000000794+0000006452+0000000000+I40000006452+0000000000+Z
103726001103726077-000270     103726006003000395453GIFT-BAG PPR JMB 33X45 0000001000+00002630+00000+0001T   00002630+0000000931          1400 SH4112               1AZ
103726002103726077-000010-C   103726006001023123879CREPE-PAPER RED        0000001000+00000788+00000+0001T   00000788+0000000931          1400 SH4112               1AZ
103726003103726080-000127     103726006003000424351VALENTINES DAY 36x24CM 0000001000+00002192+00000+0001T   00002192+0000000931          1400 SH4112               1AZ
103726004103726112-116069     103726006009681820277TCS CARRIER BAG JUMBO  0000001000+00000048+00000+0001T   00000048+0000000931          1400 SH4090               1AZ
103727000103727               103727               170213BI     1400+00000+BI0000001753+0000001753+000000000+000000246+0000001990+0000000009+I20000000000+0000001990+Z
103727001103727563-000318-F   103727006003000404247SERVIETTES 33cm ORANGE 0000001000+00001753+00000+0001T   00001753+0000000936          1400 SH4214               1AZ
103728000103728               103728               170213BI     1400+00000+BI0000001753+0000001753+000000000+000000246+0000001990+0000000009+I20000000000+0000001990+Z
103728001103728077-000324     103728006001023677594GIFT-BAG 33X45CM E/D FL0000001000+00001753+00000+0001T   00001753+0000001017          1400 SH4112               1AZ
103729000103729               103729               170213BI     1400+00000+BI0000014956+0000014956+000000000+000002095+0000017051+0000000000+I40000017051+0000000000+Z
103729001103729112-116069     103729006009681820277TCS CARRIER BAG JUMBO  0000001000+00000048+00000+0001T   00000048+0000001022          1400 SH4090               1AZ
103729002103729040-000220     103729006001023845313C/HOLDER HEART 17X18CM 0000003000+00004385+00000+0001T   00004385+0000001022          1400 SH4510               1AZ
103729003103729903-000926     103729006914204004556SWT NOVELTY ST N/LACE  0000001000+00001753+00000+0001T   00001753+0000001022          1400 SH4150               1AZ
103730000103730               103730               170213BI     1400+00000+BI0000016656+0000016656+000000000+000002336+0000018990+0000000002+I20000000000+0000018990+Z
103730001103730077-000115-B   103730006003000181025GIFT-WRAP PPR 700MMX2M 0000002000+00002630+00000+0001T   00002630+0000001032          1400 SH4112               1AZ
103730002103730079-013032-F   103730006003000496266FOAM NUMBERS           0000002000+00002192+00000+0001T   00002192+0000001032          1400 SH4130               1AZ
103730003103730566-000065     103730006003000217915STICKERS GLITTER ASSTD 0000004000+00001753+00000+0001T   00001753+0000001032          1400 SH4130               1AZ
103731000103731               103731               170213BI     1400+00000+BI0000015067+0000015067+000000000+000002117+0000017184+0000000000+I40000017184+0000000000+Z
103731001103731220-005001     103731006003000565917ELOFF TABLE FORKS 4PC  0000002000+00002630+00000+0001T   00002630+0000001035          1400 SH4300               1AZ
103731002103731903-000155     103731006009803374435SWT LOLLY I LUV U HEART0000012000+00000525+00000+0001T   00000525+0000001035          1400 SH4150               1AZ
103731003103731220-000040     103731006003000352548S/SPOONS S/S 2PC CLOUD 0000001000+00003507+00000+0001T   00003507+0000001035          1400 SH4300               1AZ
103732000103732               103732               170213BI     1400+00000+BI0000017542+0000017542+000000000+000002456+0000019998+0000000000+I40000019998+0000000000+Z
103732001103732031-007004     103732006003000463077P/FRAME A3 CERTIFICATE 0000002000+00008771+00000+0001T   00008771+0000001038          1400 SH4510               1AZ
103733000103733               103733               170213BI     1400+00000+BI0000005611+0000005611+000000000+000000786+0000006397+0000000000+I40000006397+0000000000+Z
103733001103733304-001011     103733006001023806727FLWR ROSE RED W/BEAR   0000002000+00000613+00000+0001T   00000788+0006471051          1400 SH4510               1AZ
103733002103733030-000011     103733006003000626557PLAQUE WDN 23x11.5cm   0000001000+00004385+00000+0001T   00004385+0000001051          1400 SH4505               1AZ
103734000103734               103734               170213BI     1400+00000+BI0000004385+0000004385+000000000+000000614+0000004990+0000000009+I20000000000+0000004990+Z
103734001103734082-000120     103734006003000360727READING GLS STRENGTH:3 0000001000+00004385+00000+0001T   00004385+0000001052          1400 SH4160               1AZ
103735000103735               103735               170213BI     1400+00000+BI0000007888+0000007888+000000000+000001107+0000008990+0000000005+I20000000000+0000008990+Z
103735001103735038-047246     103735006001023873750PLACEMAT 44x28cm KIDS  0000002000+00000876+00000+0001T   00000876+0000001059          1400 SH4300               1AZ
103735002103735034-078841     103735006003000594023MELAMINE KIDS BOWL 17cm0000002000+00001753+00000+0001T   00001753+0000001059          1400 SH4215               1AZ
103735003103735036-000402     103735006003000572250CLOTHES DRYER WITH PEGS0000001000+00002630+00000+0001T   00002630+0000001059          1400 SH4212               1AZ
103736000103736               103736               170213BI     1400+00000+BI0000006163+0000006163+000000000+000000863+0000007026+0000000000+I40000007026+0000000000+Z
103736001103736112-116038     103736006009681820246TCS CARRIER BAG MIDI   0000001000+00000035+00000+0001T   00000035+0000001102          1400 SH4090               1AZ
103736002103736566-000451     103736006001023788443STICKERS GLITTER ASSTD 0000002000+00001314+00000+0001T   00001753+0008151102          1400 SH4130               1AZ
103736003103736007-000167     103736006009685857347SPIRAL NOTES A7 72PG   0000004000+00000350+00000+0001T   00000350+0000001102          1400 SH4130               1AZ
103736004103736018-000177     103736006001023797513MUG MINI LOVE ASSTD    0000003000+00000700+00000+0001T   00000700+0000001102          1400 SH4515               1AZ
103737000103737               103737               170213BI     1400+00000+BI0000018457+0000018457+000000000+000002590+0000021040+0000000007+I20000000000+0000021040+Z
103737001103737112-116069     103737006009681820277TCS CARRIER BAG JUMBO  0000001000+00000048+00000+0001T   00000048+0000001109          1400 SH4090               1AZ
103737002103737002-220002     103737006001023677877F/COVER SQ 31cm WHT    0000006000+00002630+00000+0001T   00002630+0000001109          1400 SH4300               1AZ
103737003103737071-000677     103737006001023110282THUMB-TACKS            0000001000+00000876+00000+0001T   00000876+0000001109          1400 SH4130               1AZ
103737004103737200-003026     103737006003000276448REFUSE BAGS 10PCE GREEN0000001000+00001753+00000+0001T   00001753+0000001109          1400 SH4214               1AZ
103738000103738               103738               170213BI     1400+00000+BI0000001753+0000001753+000000000+000000246+0000001990+0000000009+I20000000000+0000001990+Z
103738001103738174-000011     103738006001023523778W/MACHINE-BAG 50x40cm  0000001000+00001753+00000+0001T   00001753+0000001125          1400 SH4205               1AZ
103739000103739               103739               170213BI     1400+00000+BI0000001839+0000001839+000000000+000000258+0000002090+0000000007+I20000000000+0000002090+Z
103739001103739007-000166     103739006009685857316SPIRAL NOTES A6 100PG  0000001000+00000700+00000+0001T   00000700+0000001127          1400 SH4130               1AZ
103739002103739002-000800     103739006001023770660PEELER MTL/PL WHITE    0000001000+00001139+00000+0001T   00001139+0000001127          1400 SH4300               1AZ
103740000103740               103740               170213BI     1400+00000+BI0000002367+0000002367+000000000+000000332+0000002690+0000000009+I20000000000+0000002690+Z
103740001103740046-000010-A   103740006003000438778BATTERIES SIZE:AAA 4PCE0000001000+00002367+00000+0001T   00002367+0000001128          1400 SH4312               1AZ
103741000103741               103741               170213BI     1400+00000+BI0000002664+0000002664+000000000+000000374+0000003038+0000000000+I40000003038+0000000000+Z
103741001103741112-116038     103741006009681820246TCS CARRIER BAG MIDI   0000001000+00000035+00000+0001T   00000035+0000001129          1400 SH4090               1AZ
103741002103741078-000025     103741008887013700064SUPERGLUE 3g 1PCE CARD 0000001000+00000876+00000+0001T   00000876+0000001129          1400 SH4810               1AZ
103741003103741079-006496     103741006003000160105GLITTER SHAKERS        0000001000+00001753+00000+0001T   00001753+0000001129          1400 SH4130               1AZ
103742000103742               103742               170213BI     1400+00000+BI0000002192+0000002192+000000000+000000307+0000002490+0000000009+I20000000000+0000002490+Z
103742001103742567-004966     103742009780636049154SPF G03 WISKUNDE       0000001000+00002192+00000+0001T   00002192+0000001130          1400 SH4757               1AZ
103743000103743               103743               170213BI     1400+00000+BI0000004032+0000004032+000000000+000000565+0000004590+0000000007+I20000000000+0000004590+Z
103743001103743903-000095     103743006001704011495SWT SPECKLED-EGGS 100G 0000001000+00002104+00000+0001T   00002104+0000001136          1400 SH4150               1AZ
103743002103743105-001025-A   103743006009654960979CONTAINERS CLEAR 4PCE  0000001000+00001928+00000+0001T   00001928+0000001136          1400 SH4210               1AZ
103744000103744               103744               170213BI     1400+00000+BI0000013502+0000013502+000000000+000001892+0000015394+0000000000+I40000015394+0000000000+Z
103744001103744079-001000     103744006003000448470CANVAS A2 WOOD MOUNTED 0000001000+00007016+00000+0001T   00007016+0000001138          1400 SH4130               1AZ
103744002103744200-000066     103744006003000365975STRAWS 12PCE W/UMBRELLA0000001000+00001314+00000+0001T   00001314+0000001138          1400 SH4214               1AZ
103744003103744033-000780     103744006001023752611COSMETIC-BRUSH-SET 7PCE0000001000+00002192+00000+0001T   00002192+0000001138          1400 SH4200               1AZ
103744004103744007-000167     103744006009685857347SPIRAL NOTES A7 72PG   0000001000+00000350+00000+0001T   00000350+0000001138          1400 SH4130               1AZ
103744005103744031-005919     103744006003000580576P/FRAME PL PLAIN 13X18 0000001000+00002630+00000+0001T   00002630+0000001138          1400 SH4510               1AZ
103745000103745               103745               170213BI     1400+00000+BI0000003507+0000003507+000000000+000000491+0000003998+0000000000+I40000003998+0000000000+Z
103745001103745495-059703     103745000078257597031LOUNGER AIR-MAT ECONO  0000001000+00003507+00000+0001T   00003507+0000001140          1400 SH4787               1AZ
103746000103746               103746               170213BI     1400+00000+BI0000001829+0000001829+000000000+000000257+0000002080+0000000006+I20000000000+0000002080+Z
103746001103746112-116038     103746006009681820246TCS CARRIER BAG MIDI   0000001000+00000035+00000+0001T   00000035+0000001146          1400 SH4090               1AZ
103746002103746903-000897     103746008692806325207SWT CHOC DBL MINI ROLL 0000001000+00000876+00000+0001T   00000876+0000001146          1400 SH4150               1AZ
103746003103746079-009700-A   103746006003000547746PAPER SIRIO A4 BLACK   0000002000+00000306+00000+0001T   00000306+0000001146          1400 SH4130               1AZ
103746004103746079-009700-E   103746006003000545797PAPER SIRIO A4 GREY    0000001000+00000306+00000+0001T   00000306+0000001146          1400 SH4130               1AZ
103747000103747               103747               170213BI     1400+00000+BI0000000525+0000000525+000000000+000000074+0000000590+0000000009+I20000000000+0000000590+Z
103747001103747903-000155     103747006009803374435SWT LOLLY I LUV U HEART0000001000+00000525+00000+0001T   00000525+0000001157          1400 SH4150               1AZ
103748000103748               103748               170213BI     1400+00000+BI0000008674+0000008674+000000000+000001216+0000009890+0000000000+I40000009890+0000000000+Z
103748001103748903-000070     103748006001704001106SWT TOFFEE CREAMY 35g  0000002000+00000700+00000+0001T   00000700+0000001320          1400 SH4150               1AZ
103748002103748903-000071     103748006001704001120SWT TOFFEE LIQURICE 35g0000001000+00000700+00000+0001T   00000700+0000001320          1400 SH4150               1AZ
103748003103748903-000896     103748006009680772270SWT BITZ BL/CURRANT 50G0000001000+00000788+00000+0001T   00000788+0000001320          1400 SH4150               1AZ
103748004103748903-000809     103748006009680772232SWT CANDY FROOTEEZ 50g 0000001000+00000876+00000+0001T   00000876+0000001320          1400 SH4150               1AZ
103748005103748082-007585     103748006003000654093SUNGLASS DESIGNER ASST 0000001000+00004385+00000+0001T   00004385+0000001320          1400 SH4160               1AZ
103748006103748903-000155     103748006009803374435SWT LOLLY I LUV U HEART0000001000+00000525+00000+0001T   00000525+0000001320          1400 SH4150               1AZ
103749000103749               103749               170213BI     1400+00000+BI0000005260+0000005260+000000000+000000738+0000005998+0000000000+I40000005998+0000000000+Z
103749001103749079-003014     103749006003000633951PAINT ACRYLIC 75ml SILV0000001000+00002630+00000+0001T   00002630+0000001325          1400 SH4130               1AZ
103749002103749079-003015     103749006003000634071PAINT ACRYLIC 75ml GOLD0000001000+00002630+00000+0001T   00002630+0000001325          1400 SH4130               1AZ
103750000103750               103750               170213BI     1400+00000+BI0000011396+0000011396+000000000+000001597+0000012990+0000000003+I20000000000+0000012990+Z
103750001103750251-000006     103750006001023499158TAPE DBL-SIDED AUTO    0000001000+00001753+00000+0001T   00001753+0000001326          1400 SH4810               1AZ
103750002103750903-000194     103750006009826020616SWT CHOC RP LOLLY 25G  0000001000+00001314+00000+0001T   00001314+0000001326          1400 SH4150               1AZ
103750003103750083-000058     103750006003000400331LIGHTER JET CIGAR REFIL0000001000+00002630+00000+0001T   00002630+0000001326          1400 SH4315               1AZ
103750004103750024-000033     103750006003000420278MEASURING JUG 1L H/H   0000001000+00002192+00000+0001T   00002192+0000001326          1400 SH4300               1AZ
103750005103750133-000009     103750006003000060726KITCHEN SWAB 3PC M/FIBR0000001000+00003507+00000+0001T   00003507+0000001326          1400 SH4212               1AZ
103751000103751               103751               170213BI     1400+00000+BI0000003069+0000003069+000000000+000000430+0000003490+0000000009+I20000000000+0000003490+Z
103751001103751105-001075     103751006001023844873LUNCH BOX 17x11x7cm    0000001000+00003069+00000+0001T   00003069+0000001328          1400 SH4210               1AZ
103752000103752               103752               170213BI     1400+00000+BI0000012847+0000012847+000000000+000001801+0000014648+0000000000+I40000014648+0000000000+Z
103752001103752112-116069     103752006009681820277TCS CARRIER BAG JUMBO  0000001000+00000048+00000+0001T   00000048+0000001335          1400 SH4090               1AZ
103752002103752077-000315     103752006003000181186GIFT-BAG 20x28cm MATT  0000001000+00001578+00000+0001T   00001578+0000001335          1400 SH4112               1AZ
103752003103752077-000303     103752006001023593757GIFT-BAG PAPER MED     0000001000+00001578+00000+0001T   00001578+0000001335          1400 SH4112               1AZ
103752004103752080-000139     103752006003000611690CARD & ENV MINI SET 6PC0000001000+00002192+00000+0001T   00002192+0000001335          1400 SH4112               1AZ
103752005103752903-000200     103752006009826020234SWT CHOC RP CHOCO 23G  0000002000+00000788+00000+0001T   00000788+0000001335          1400 SH4150               1AZ
103752006103752304-001011     103752006001023806727FLWR ROSE RED W/BEAR   0000001000+00000613+00000+0001T   00000788+0006471335          1400 SH4510               1AZ
103752007103752362-001045     103752006001023843449MAKE-UP TEEN GIFT SET  0000001000+00005262+00000+0001T   00005262+0000001335          1400 SH4160               1AZ
103753000103753               103753               170213BI     1400+00000+BI0000004433+0000004433+000000000+000000621+0000005054+0000000000+I40000005054+0000000000+Z
103753001103753031-080508     103753006001023802415P/FRAME PL 22X11CM LOVE0000001000+00004385+00000+0001T   00004385+0000001337          1400 SH4510               1AZ
103753002103753112-116069     103753006009681820277TCS CARRIER BAG JUMBO  0000001000+00000048+00000+0001T   00000048+0000001337          1400 SH4090               1AZ
103754000103754               103754               170213BI     1400+00000+BI0000004119+0000004119+000000000+000000578+0000004697+0000000000+I40000004697+0000000000+Z
103754001103754903-000211     103754006002099001238SWT GS MALLOW ICE CREAM0000001000+00001753+00000+0001T   00001753+0000001339          1400 SH4150               1AZ
103754002103754077-000384     103754006003000275243G/BAG HOT STMP 18x23CM 0000001000+00001490+00000+0001T   00001490+0000001339          1400 SH4112               1AZ
103754003103754077-000314     103754006003000181148GIFT-BAG 11X14CM MATT  0000001000+00000876+00000+0001T   00000876+0000001339          1400 SH4112               1AZ
103755000103755               103755               170213BI     1400+00000+BI0000001226+0000001226+000000000+000000172+0000001390+0000000008+I20000000000+0000001390+Z
103755001103755304-001011     103755006001023806727FLWR ROSE RED W/BEAR   0000002000+00000613+00000+0001T   00000788+0006471341          1400 SH4510               1AZ
103756000103756               103756               170213BI     1400+00000+BI0000001489+0000001489+000000000+000000209+0000001698+0000000000+I40000001698+0000000000+Z
103756001103756077-000314     103756006003000181148GIFT-BAG 11X14CM MATT  0000001000+00000876+00000+0001T   00000876+0000001343          1400 SH4112               1AZ
103756002103756304-001011     103756006001023806727FLWR ROSE RED W/BEAR   0000001000+00000613+00000+0001T   00000788+0006471343          1400 SH4510               1AZ
103757000103757               103757               170213BI     1400+00000+BI0000001578+0000001578+000000000+000000221+0000001790+0000000009+I20000000000+0000001790+Z
103757001103757018-000127     103757006001023380289MUG OCC STRAIGHT LOVE  0000001000+00001578+00000+0001T   00001753+0006471345          1400 SH4515               1AZ
103758000103758               103758               170213BI     1400+00000+BI0000008806+0000008806+000000000+000001233+0000010039+0000000000+I40000010039+0000000000+Z
103758001103758112-116038     103758006009681820246TCS CARRIER BAG MIDI   0000001000+00000035+00000+0001T   00000035+0000001349          1400 SH4090               1AZ
103758002103758039-000799     103758006001023692382CANDLES TEALITE 100PCE 0000001000+00008771+00000+0001T   00008771+0000001349          1400 SH4510               1AZ
103759000103759               103759               170213BI     1400+00000+BI0000007928+0000007928+000000000+000001111+0000009030+0000000009+I20000000000+0000009030+Z
103759001103759301-085007     103759006003000673698ORN OCC. LOVE S/PLAQUE 0000001000+00007893+00000+0001T   00007893+0000001350          1400 SH4505               1AZ
103759002103759112-116038     103759006009681820246TCS CARRIER BAG MIDI   0000001000+00000035+00000+0001T   00000035+0000001350          1400 SH4090               1AZ
103760000103760               103760               170213BI     1400+00000+BI0000025036+0000025036+000000000+000003506+0000028542+0000000000+I40000028542+0000000000+Z
103760001103760112-116069     103760006009681820277TCS CARRIER BAG JUMBO  0000001000+00000048+00000+0001T   00000048+0000001352          1400 SH4090               1AZ
103760002103760084-000364     103760006001023624581MANICURE-SET 7PCE LTHR 0000004000+00003507+00000+0001T   00003507+0000001352          1400 SH4200               1AZ
103760003103760084-000365     103760006001023731135MANICURE SET ASSORTED  0000005000+00002192+00000+0001T   00002192+0000001352          1400 SH4200               1AZ
103761000103761               103761               170213BI     1400+00000+BI0000001753+0000001753+000000000+000000246+0000001990+0000000009+I20000000000+0000001990+Z
103761001103761077-000301     103761008010410010188BAG LRG 25X32CM B/DAY  0000001000+00001753+00000+0001T   00001753+0000001353          1400 SH4112               1AZ
103762000103762               103762               170213BI     1400+00000+BI0000010522+0000010522+000000000+000001475+0000011990+0000000007+I20000000000+0000011990+Z
103762001103762560-000245     103762006001023622716RUBBER ANIMALS 10PC ASS0000001000+00007016+00000+0001T   00007016+0000001353          1400 SH4745               1AZ
103762002103762903-000610     103762006003000610518SWEET JUMBO BUBBLE GUM 0000002000+00001753+00000+0001T   00001753+0000001353          1400 SH4150               1AZ
103763000103763               103763               170213BI     1400+00000+BI0000005256+0000005256+000000000+000000736+0000005990+0000000002+I20000000000+0000005990+Z
103763001103763107-004105     103763006009703860984BUCKET 9L OPEN         0000004000+00001314+00000+0001T   00001314+0000001354          1400 SH4210               1AZ
103764000103764               103764               170213BI     1400+00000+BI0000001227+0000001227+000000000+000000172+0000001390+0000000009+I20000000000+0000001390+Z
103764001103764251-000040     103764006001023515865SEALTAPE CLEAR 48mmx50m0000001000+00001227+00000+0001T   00001227+0000001357          1400 SH4810               1AZ
103765000103765               103765               170213BI     1400+00000+BI0000000613+0000000613+000000000+000000086+0000000690+0000000009+I20000000000+0000000690+Z
103765001103765006-001000     103765006003000093779HELIUM BALLOON FILL    0000001000+00000613+00000+0001T   00000613+0000001410          1400 SH4131               1AZ
103766000103766               103766               170213BI     1400+00000+BI0000001752+0000001752+000000000+000000246+0000001990+0000000008+I20000000000+0000001990+Z
103766001103766022-002108     103766006002600025159MUG 8cm PLAIN          0000002000+00000876+00000+0001T   00000876+0000001412          1400 SH4305               1AZ
103767000103767               103767               170213BI     1400+00000+BI0000002366+0000002366+000000000+000000332+0000002690+0000000008+I20000000000+0000002690+Z
103767001103767077-000384     103767006003000275243G/BAG HOT STMP 18x23CM 0000001000+00001490+00000+0001T   00001490+0000001419          1400 SH4112               1AZ
103767002103767039-000319-6   103767006003000442980B/CANDLES LRG NUMBER-6 0000001000+00000876+00000+0001T   00000876+0000001419          1400 SH4510               1AZ
103768000103768               103768               170213BI     1400+00000+BI0000002803+0000002803+000000000+000000394+0000003190+0000000007+I20000000000+0000003190+Z
103768001103768037-000004     103768006001023763679ASHTRAY PL TUB 8X11CM  0000001000+00001753+00000+0001T   00002192+0008191426          1400 SH4515               1AZ
103768002103768903-000155     103768006009803374435SWT LOLLY I LUV U HEART0000002000+00000525+00000+0001T   00000525+0000001426          1400 SH4150               1AZ
103769000103769               103769               170213BI     1400+00000+BI0000009339+0000009339+000000000+000001310+0000010640+0000000009+I20000000000+0000010640+Z
103769001103769079-000275     103769006003000160488PAINT-BRUSHES 6PCE PRO 0000001000+00001753+00000+0001T   00001753+0000001428          1400 SH4130               1AZ
103769002103769079-000300     103769006001023902245PAINTSET LEARN TO PAINT0000001000+00002630+00000+0001T   00002630+0000001428          1400 SH4130               1AZ
103769003103769071-000306     103769006001023715371STENCILS ART FUN SET   0000001000+00003507+00000+0001T   00003507+0000001428          1400 SH4130               1AZ
103769004103769071-001239     103769006001023762672ERASER PL ASSTD-COLOURS0000001000+00000876+00000+0001T   00000876+0000001428          1400 SH4130               1AZ
103769005103769007-000120     103769006009698062714BOOK DRAWING A4 24-PAGE0000001000+00000525+00000+0001T   00000525+0000001428          1400 SH4130               1AZ
103769006103769112-116069     103769006009681820277TCS CARRIER BAG JUMBO  0000001000+00000048+00000+0001T   00000048+0000001428          1400 SH4090               1AZ
103770000103770               103770               170213BI     1400+00000+BI0000014957+0000014957+000000000+000002096+0000017050+0000000003+I20000000000+0000017050+Z
103770001103770368-000113     103770006001023780874PLUSH BLINGED LOVE 30cm0000001000+00012279+00000+0001T   00012279+0000001430          1400 SH4745               1AZ
103770002103770077-000270     103770006003000395453GIFT-BAG PPR JMB 33X45 0000001000+00002630+00000+0001T   00002630+0000001430          1400 SH4112               1AZ
103770003103770112-116069     103770006009681820277TCS CARRIER BAG JUMBO  0000001000+00000048+00000+0001T   00000048+0000001430          1400 SH4090               1AZ
103771000103771               103771               170213BI     1400+00000+BI0000003507+0000003507+000000000+000000491+0000003990+0000000008+I20000000000+0000003990+Z
103771001103771077-000934     103771006003000409921G/WRAP 700mmx5m BIRTHDA0000001000+00003507+00000+0001T   00003507+0000001436          1400 SH4112               1AZ
103772000103772               103772               170213BI     1400+00000+BI0000004383+0000004383+000000000+000000615+0000004990+0000000008+I20000000000+0000004990+Z
103772001103772466-064838     103772006001023835031BALLS MASSAGE 8cm SET-30000001000+00001753+00000+0001T   00001753+0000001436          1400 SH4785               1AZ
103772002103772562-000010     103772006001023762528KID'S PLAY DOUGH       0000001000+00002630+00000+0001T   00002630+0000001436          1400 SH4755               1AZ
103773000103773               103773               170213BI     1400+00000+BI0000004385+0000004385+000000000+000000614+0000004990+0000000009+I20000000000+0000004990+Z
103773001103773162-097719     103773006001492977195#TAG NECKLACE          0000001000+00004385+00000+0001T   00004385+0000001437          1400 SH4160               1AZ
103774000103774               103774               170213BI     1400+00000+BI0000005784+0000005784+000000000+000000811+0000006595+0000000000+I40000006595+0000000000+Z
103774001103774200-003024     103774006001023657299REFUSE BAGS 20PCE BLACK0000001000+00001753+00000+0001T   00001753+0000001439          1400 SH4214               1AZ
103774002103774018-000177     103774006001023797513MUG MINI LOVE ASSTD    0000001000+00000700+00000+0001T   00000700+0000001439          1400 SH4515               1AZ
103774003103774039-000114     103774006001023524058CANDLE T/LITE RED 3.5CM0000001000+00001753+00000+0001T   00001753+0000001439          1400 SH4510               1AZ
103774004103774077-000315     103774006003000181186GIFT-BAG 20x28cm MATT  0000001000+00001578+00000+0001T   00001578+0000001439          1400 SH4112               1AZ
103775000103775               103775               170213BI     1400+00000+BI0000001753+0000001753+000000000+000000246+0000001990+0000000009+I20000000000+0000001990+Z
103775001103775077-000115     103775006001023834225WRAP METALLIC 700mmx1m 0000001000+00001753+00000+0001T   00001753+0000001455          1400 SH4112               1AZ
103776000103776               103776               170213BI     1400+00000+BI0000003675+0000003675+000000000+000000516+0000004191+0000000000+I40000004191+0000000000+Z
103776001103776903-000155     103776006009803374435SWT LOLLY I LUV U HEART0000003000+00000525+00000+0001T   00000525+0000001459          1400 SH4150               1AZ
103776002103776018-000177     103776006001023797513MUG MINI LOVE ASSTD    0000003000+00000700+00000+0001T   00000700+0000001459          1400 SH4515               1AZ
103777000103777               103777               170213BI     1400+00000+BI0000001839+0000001839+000000000+000000258+0000002097+0000000000+I40000002097+0000000000+Z
103777001103777304-001011     103777006001023806727FLWR ROSE RED W/BEAR   0000003000+00000613+00000+0001T   00000788+0006471501          1400 SH4510               1AZ
103778000103778               103778               170213BI     1400+00000+BI0000001490+0000001490+000000000+000000209+0000001699+0000000000+I40000001699+0000000000+Z
103778001103778077-000304     103778006001023483232GIFT-BAG 25X32CM E/DAY 0000001000+00001490+00000+0001T   00001490+0000001507          1400 SH4112               1AZ
103779000103779               103779               170213BI     1400+00000+BI0000006172+0000006172+000000000+000000865+0000007030+0000000007+I20000000000+0000007030+Z
103779001103779076-000018     103779006001023777836TWINE NYLON 50g 4PCE   0000001000+00003507+00000+0001T   00003507+0000001509          1400 SH4810               1AZ
103779002103779051-004036     103779006003000624324PLANT-TIES PL/WIRE 3x100000001000+00002630+00000+0001T   00002630+0000001509          1400 SH4820               1AZ
103779003103779112-116038     103779006009681820246TCS CARRIER BAG MIDI   0000001000+00000035+00000+0001T   00000035+0000001509          1400 SH4090               1AZ
103780000103780               103780               170213BI     1400+00000+BI0000012327+0000012327+000000000+000001727+0000014054+0000000000+I40000014054+0000000000+Z
103780001103780112-116069     103780006009681820277TCS CARRIER BAG JUMBO  0000001000+00000048+00000+0001T   00000048+0000001513          1400 SH4090               1AZ
103780002103780019-000079     103780006001023775726VASE 30cm CRACK-DESIGN 0000001000+00012279+00000+0001T   00012279+0000001513          1400 SH4510               1AZ
103781000103781               103781               170213BI     1400+00000+BI0000000831+0000000831+000000000+000000117+0000000940+0000000008+I20000000000+0000000940+Z
103781001103781006-001000     103781006003000093779HELIUM BALLOON FILL    0000001000+00000613+00000+0001T   00000613+0000001514          1400 SH4131               1AZ
103781002103781006-000173-D   103781006003000636631BALLOONS 1PC BLUE      0000001000+00000218+00000+0001T   00000218+0000001514          1400 SH4131               1AZ
103782000103782               103782               170213BI     1400+00000+BI0000003417+0000003417+000000000+000000480+0000003890+0000000007+I20000000000+0000003890+Z
103782001103782033-000124     103782006009654960597COMBS HANDLE + TAIL 2PC0000001000+00001051+00000+0001T   00001051+0000001515          1400 SH4200               1AZ
103782002103782033-001390     103782006003000667642HAIR PINS 4PC BUTTERFLY0000001000+00001753+00000+0001T   00001753+0000001515          1400 SH4200               1AZ
103782003103782306-000021     103782006001023169433EARBUDS 100PCE IN BAG  0000001000+00000613+00000+0001T   00000613+0000001515          1400 SH4200               1AZ
103783000103783               103783               170213BI     1400+00000+BI0000019776+0000019776+000000000+000002771+0000022547+0000000000+I40000022547+0000000000+Z
103783001103783368-000113     103783006001023780874PLUSH BLINGED LOVE 30cm0000001000+00012279+00000+0001T   00012279+0000001522          1400 SH4745               1AZ
103783002103783018-005009     103783006001023725608MUG W/PLUSH-BEAR LOVE  0000001000+00003507+00000+0001T   00003507+0000001522          1400 SH4515               1AZ
103783003103783077-000151     103783006008766114676GIFT-WRAP C/PHANE ASSTD0000002000+00000876+00000+0001T   00000876+0000001522          1400 SH4112               1AZ
103783004103783903-000194     103783006009826020616SWT CHOC RP LOLLY 25G  0000001000+00001314+00000+0001T   00001314+0000001522          1400 SH4150               1AZ
103783005103783071-005213     103783006001023690371CELLOTAPE 12mmx33m     0000001000+00000876+00000+0001T   00000876+0000001522          1400 SH4130               1AZ
103783006103783112-116069     103783006009681820277TCS CARRIER BAG JUMBO  0000001000+00000048+00000+0001T   00000048+0000001522          1400 SH4090               1AZ
103784000103784               103784               170213BI     1400+00000+BI0000012674+0000012674+000000000+000001775+0000014449+0000000000+I40000014449+0000000000+Z
103784001103784560-000787     103784006001023796806ANIMALS 9PCE REPTILES  0000001000+00008771+00000+0001T   00008771+0000001524          1400 SH4745               1AZ
103784002103784903-004951     103784006002580020328SWT MALLOW MINI M/SHAKE0000001000+00001227+00000+0001T   00001227+0000001524          1400 SH4150               1AZ
103784003103784903-000194     103784006009826020616SWT CHOC RP LOLLY 25G  0000002000+00001314+00000+0001T   00001314+0000001524          1400 SH4150               1AZ
103784004103784112-116069     103784006009681820277TCS CARRIER BAG JUMBO  0000001000+00000048+00000+0001T   00000048+0000001524          1400 SH4090               1AZ
103785000103785               103785               170213BI     1400+00000+BI0000001753+0000001753+000000000+000000246+0000001990+0000000009+I20000000000+0000001990+Z
103785001103785077-000351     103785006003000139033GIFT-BAG 18X23CM E/D P 0000001000+00001753+00000+0001T   00001753+0000001526          1400 SH4112               1AZ
103786000103786               103786               170213BI     1400+00000+BI0000005870+0000005870+000000000+000000825+0000006690+0000000005+I20000000000+0000006690+Z
103786001103786903-000200     103786006009826020234SWT CHOC RP CHOCO 23G  0000003000+00000788+00000+0001T   00000788+0000001527          1400 SH4150               1AZ
103786002103786301-085002     103786006003000420704ORN OCC. LOVE BELL ASST0000002000+00001753+00000+0001T   00002630+0008121527          1400 SH4505               1AZ
103787000103787               103787               170213BI     1400+00000+BI0000003506+0000003506+000000000+000000492+0000003990+0000000008+I20000000000+0000003990+Z
103787001103787077-000354     103787006003000139224GIFT-BAG 25X32CM H/MADE0000001000+00001753+00000+0001T   00001753+0000001539          1400 SH4112               1AZ
103787002103787077-000011-X   103787006001023809827TISSUE-WRAP SILVER 10PC0000001000+00001753+00000+0001T   00001753+0000001539          1400 SH4112               1AZ
103788000103788               103788               170213BI     1400+00000+BI0000000700+0000000700+000000000+000000098+0000000790+0000000008+I20000000000+0000000790+Z
103788001103788018-000177     103788006001023797513MUG MINI LOVE ASSTD    0000001000+00000700+00000+0001T   00000700+0000001549          1400 SH4515               1AZ
103789000103789               103789               170213BI     1400+00000+BI0000025556+0000025556+000000000+000003581+0000029130+0000000007+I20000000000+0000029130+Z
103789001103789112-116069     103789006009681820277TCS CARRIER BAG JUMBO  0000001000+00000048+00000+0001T   00000048+0000001555          1400 SH4090               1AZ
103789002103789103-000088     103789006001023795625BAMBOO BASKET  W/HNDLES0000001000+00003069+00000+0001T   00003069+0000001555          1400 SH4300               1AZ
103789003103789563-000318-G   103789006003000404360SERVIETTES 33cm PINK   0000003000+00002192+00000+0001T   00002192+0000001555          1400 SH4214               1AZ
103789004103789304-001011     103789006001023806727FLWR ROSE RED W/BEAR   0000005000+00000613+00000+0001T   00000788+0006471555          1400 SH4510               1AZ
103789005103789566-001234     103789006003000217793STICKERS LASER ASSTD   0000002000+00001578+00000+0001T   00001578+0000001555          1400 SH4130               1AZ
103789006103789077-000317     103789006001023609748GIFT-BAG 11X14CM E/D AN0000001000+00000613+00000+0001T   00000613+0000001555          1400 SH4112               1AZ
103789007103789077-000310     103789006001023608635GIFT-BAG 18X23CM GLOSS 0000001000+00001314+00000+0001T   00001314+0000001555          1400 SH4112               1AZ
103789008103789077-000245     103789006001023759214GIFT-RIBBON METALLICx2 0000001000+00001227+00000+0001T   00001227+0000001555          1400 SH4112               1AZ
103789009103789368-000171     103789006003000233250PLUSH BEAR 14cm        0000001000+00005262+00000+0001T   00005262+0000001555          1400 SH4745               1AZ
103789010103789083-000055     103789006003000003853LIGHTER ELCTRNC REFILBL0000002000+00000613+00000+0001T   00000613+0000001555          1400 SH4315               1AZ
103790000103790               103790               170213BI     1400+00000+BI0000000613+0000000613+000000000+000000086+0000000690+0000000009+I20000000000+0000000690+Z
103790001103790304-001011     103790006001023806727FLWR ROSE RED W/BEAR   0000001000+00000613+00000+0001T   00000788+0006471559          1400 SH4510               1AZ
103791000103791               103791               170213BI     1400+00000+BI0000007927+0000007927+000000000+000001110+0000009030+0000000007+I20000000000+0000009030+Z
103791001103791089-000200     103791006003000485840KEY CHAIN POLY LOVE IS 0000001000+00003507+00000+0001T   00004385+0008121601          1400 SH4205               1AZ
103791002103791006-000190     103791006003000685530BALLOONS LOVE 81x91cm  0000001000+00004385+00000+0001T   00004385+0000001601          1400 SH4131               1AZ
103791003103791112-116038     103791006009681820246TCS CARRIER BAG MIDI   0000001000+00000035+00000+0001T   00000035+0000001601          1400 SH4090               1AZ
103792000103792               103792               170213BI     1400+00000+BI0000006924+0000006924+000000000+000000971+0000007890+0000000005+I20000000000+0000007890+Z
103792001103792036-000151     103792006001023810588COATHANGERS    PACK-10 0000001000+00002893+00000+0001T   00002893+0000001604          1400 SH4212               1AZ
103792002103792039-000323     103792006001023524171BIRTHDAY-CANDLES 24PCE 0000001000+00000876+00000+0001T   00000876+0000001604          1400 SH4510               1AZ
103792003103792565-000256     103792006003000609826NOVELTY GLOW SLIME     0000001000+00000700+00000+0001T   00000700+0000001604          1400 SH4745               1AZ
103792004103792565-000085     103792006003000643332NOVELTY BEEDZ 10g      0000001000+00002455+00000+0001T   00002455+0000001604          1400 SH4745               1AZ
103793000103793               103793               170213BI     1400+00000+BI0000003507+0000003507+000000000+000000491+0000003990+0000000008+I20000000000+0000003990+Z
103793001103793018-000130     103793006001023867537MUG OCC LOVE MINI+HEART0000001000+00003507+00000+0001T   00003507+0000001609          1400 SH4515               1AZ
103794000103794               103794               170213BI     1400+00000+BI0000012321+0000012321+000000000+000001729+0000014050+0000000000+I40000014050+0000000000+Z
103794002103794463-000140     103794006003000551804WATER BLASTER MEDIUM   0000004000+00002630+00000+0001T   00002630+0000001613          1400 SH4785               1AZ
103794003103794466-000077     103794006003000669448MINI MESH BEAN BALL    0000001000+00001753+00000+0001T   00001753+0000001613          1400 SH4785               1AZ
103794004103794112-116069     103794006009681820277TCS CARRIER BAG JUMBO  0000001000+00000048+00000+0001T   00000048+0000001613          1400 SH4090               1AZ
103795000103795               103795               170213BI     1400+00000+BI0000004856+0000004856+000000000+000000680+0000005530+0000000006+I20000000000+0000005530+Z
103795001103795077-000310     103795006001023608635GIFT-BAG 18X23CM GLOSS 0000001000+00001314+00000+0001T   00001314+0000001615          1400 SH4112               1AZ
103795002103795018-000136     103795006001023659026MUG OCC LOVE W/PLUSH   0000001000+00003507+00000+0001T   00003507+0000001615          1400 SH4515               1AZ
103795003103795112-116038     103795006009681820246TCS CARRIER BAG MIDI   0000001000+00000035+00000+0001T   00000035+0000001615          1400 SH4090               1AZ
103796000103796               103796               170213BI     1400+00000+BI0000000525+0000000525+000000000+000000074+0000000590+0000000009+I20000000000+0000000590+Z
103796001103796903-000155     103796006009803374435SWT LOLLY I LUV U HEART0000001000+00000525+00000+0001T   00000525+0000001617          1400 SH4150               1AZ
103797000103797               103797               170213BI     1400+00000+BI0000003069+0000003069+000000000+000000430+0000003490+0000000009+I20000000000+0000003490+Z
103797001103797031-000864-A   103797006001023798350P/FRAME MAHOGANY 10X15 0000001000+00003069+00000+0001T   00003069+0000001618          1400 SH4510               1AZ
103798000103798               103798               170213BI     1400+00000+BI0000000035+0000000035+000000000+000000005+0000000040+0000000000+I20000000000+0000000040+Z
103798001103798112-116038     103798006009681820246TCS CARRIER BAG MIDI   0000001000+00000035+00000+0001T   00000035+0000001618          1400 SH4090               1AZ
103799000103799               103799               170213BI     1400+00000+BI0000034149+0000034149+000000000+000004788+0000038937+0000000000+I40000038937+0000000000+Z
103799001103799112-116069     103799006009681820277TCS CARRIER BAG JUMBO  0000001000+00000048+00000+0001T   00000048+0000001623          1400 SH4090               1AZ
103799002103799567-011344     103799006003000630714BK COLOURING THERAPY 640000001000+00003507+00000+0001T   00003507+0000001623          1400 SH4757               1AZ
103799003103799001-000410     103799006003000431175BEER-TUMBLER GLASS DAD 0000001000+00011402+00000+0001T   00011402+0000001623          1400 SH4515               1AZ
103799004103799079-000201     103799006003000161430P/CRAYONS THERAPY 10PCE0000001000+00002630+00000+0001T   00002630+0000001623          1400 SH4130               1AZ
103799005103799200-000065     103799006001023323675DRINKING-STRAWS 38PCE  0000001000+00000613+00000+0001T   00000613+0000001623          1400 SH4214               1AZ
103799006103799206-000430     103799006003000619627MUG COLOUR CHANGING    0000001000+00006139+00000+0001T   00006139+0000001623          1400 SH4321               1AZ
103799007103799200-000061     103799006003000506996STRAWS DRINKING CURLY  0000001000+00001490+00000+0001T   00001490+0000001623          1400 SH4214               1AZ
103799008103799022-002107     103799006002600025814MUG ENAMEL 8cm WHITE   0000003000+00001051+00000+0001T   00001051+0000001623          1400 SH4305               1AZ
103799009103799022-002108     103799006002600025159MUG 8cm PLAIN          0000001000+00000876+00000+0001T   00000876+0000001623          1400 SH4305               1AZ
103799010103799022-002106     103799006003000142712MUG EN 6cm ASSTD COLORS0000002000+00001139+00000+0001T   00001139+0000001623          1400 SH4305               1AZ
103799011103799047-000001-BB  103799006001023723536INS-TAPE BLACK 18mmx10m0000001000+00000613+00000+0001T   00000613+0000001623          1400 SH4880               1AZ
103799012103799564-000012     103799006001023130075BUBBLE BOTTLE MAGIC    0000002000+00000700+00000+0001T   00000700+0000001623          1400 SH4131               1AZ
103800000103800               103800               170213BI     1400+00000+BI0000020171+0000020171+000000000+000002826+0000022997+0000000000+I40000022997+0000000000+Z
103800001103800077-000316     103800006001023609731GIFT-BAG 25X32CM MATT  0000001000+00001753+00000+0001T   00001753+0000001630          1400 SH4112               1AZ
103800002103800368-000111     103800006001023780812PLUSH BEAR/DOG 29CM    0000001000+00012279+00000+0001T   00012279+0000001630          1400 SH4745               1AZ
103800003103800368-000104     103800006001023751348PLUSH BEAR RUFFLED-LOOK0000001000+00006139+00000+0001T   00006139+0000001630          1400 SH4745               1AZ
103801000103801               103801               170213BI     1400+00000+BI0000007395+0000007395+000000000+000001036+0000008431+0000000000+I40000008431+0000000000+Z
103801001103801261-002267     103801006001023665126GUN 8-SHOT SUPER-CAP   0000001000+00001753+00000+0001T   00001753+0000001635          1400 SH4710               1AZ
103801002103801261-000121     103801006001023341600GUN-CAPS 8-SHOT CARD-9 0000003000+00000700+00000+0001T   00000700+0000001635          1400 SH4710               1AZ
103801003103801071-001249     103801006003000582280ERASER GIANT 16x5cm    0000001000+00003507+00000+0001T   00003507+0000001635          1400 SH4130               1AZ
103801004103801112-116038     103801006009681820246TCS CARRIER BAG MIDI   0000001000+00000035+00000+0001T   00000035+0000001635          1400 SH4090               1AZ
103802000103802               103802               170213BI     1400+00000+BI0000010168+0000010168+000000000+000001426+0000011594+0000000000+I40000011594+0000000000+Z
103802001103802077-000011-D   103802006001023808554TISSUE-WRAP WHITE 10PCE0000001000+00000876+00000+0001T   00000876+0000001650          1400 SH4112               1AZ
103802002103802077-000316     103802006001023609731GIFT-BAG 25X32CM MATT  0000001000+00001753+00000+0001T   00001753+0000001650          1400 SH4112               1AZ
103802003103802077-000327     103802006001023677686GIFT-BAG 25X32CM E/D BA0000001000+00001490+00000+0001T   00001490+0000001650          1400 SH4112               1AZ
103802004103802077-000376     103802006003000444427GIFT-BAG 25X32CM 2PK   0000001000+00003069+00000+0001T   00003069+0000001650          1400 SH4112               1AZ
103802005103802077-000327     103802006001023677686GIFT-BAG 25X32CM E/D BA0000002000+00001490+00000+0001T   00001490+0000001650          1400 SH4112               1AZ
103803000103803               103803               170213BI     1400+00000+BI0000001753+0000001753+000000000+000000246+0000001990+0000000009+I20000000000+0000001990+Z
103803001103803039-001023     103803006003000466337CANDLE TEA-LITE METALIC0000001000+00001753+00000+0001T   00001753+0000001652          1400 SH4510               1AZ
103804000103804               103804               170213BI     1400+00000+BI0000003506+0000003506+000000000+000000492+0000003990+0000000008+I20000000000+0000003990+Z
103804001103804077-000005-B   103804006003000326617PAPER TISSUE PATTERN   0000001000+00002630+00000+0001T   00002630+0000001656          1400 SH4112               1AZ
103804002103804071-005213     103804006001023690371CELLOTAPE 12mmx33m     0000001000+00000876+00000+0001T   00000876+0000001656          1400 SH4130               1AZ
103805000103805               103805               170213BI     1400+00000+BI0000014079+0000014079+000000000+000001972+0000016051+0000000000+I40000016051+0000000000+Z
103805001103805112-116069     103805006009681820277TCS CARRIER BAG JUMBO  0000001000+00000048+00000+0001T   00000048+0000001702          1400 SH4090               1AZ
103805002103805368-000614     103805006001023705808PLUSH LOVE 30cm        0000001000+00008771+00000+0001T   00008771+0000001702          1400 SH4745               1AZ
103805003103805301-085004     103805006003000420469ORN LOVE PLAQUE 21X10CM0000001000+00003507+00000+0001T   00003946+0006471702          1400 SH4505               1AZ
103805004103805301-085002     103805006003000420704ORN OCC. LOVE BELL ASST0000001000+00001753+00000+0001T   00002630+0008121702          1400 SH4505               1AZ
103806000103806               103806               170213BI     1400+00000+BI0000007892+0000007892+000000000+000001106+0000008990+0000000008+I20000000000+0000008990+Z
103806001103806159-000107     103806006001023640406SHOWER-CURTAIN 180cm   0000001000+00005262+00000+0001T   00006139+0008191704          1400 SH4200               1AZ
103806002103806083-000058     103806006003000400331LIGHTER JET CIGAR REFIL0000001000+00002630+00000+0001T   00002630+0000001704          1400 SH4315               1AZ
103807000103807               103807               170213BI     1400+00000+BI0000001753+0000001753+000000000+000000246+0000001990+0000000009+I20000000000+0000001990+Z
103807001103807080-000120     103807006003000236473CARD & ENVELOPE WEDDING0000001000+00001753+00000+0001T   00001753+0000001705          1400 SH4112               1AZ
103808000103808               103808               170213BI     1400+00000+BI0000004385-0000004385-000000000+000000614-0000005000-0000000001+I20000000000+0000005000-Z
103808001103808002-000706     103808006001023111456SPATTER-PREVENTOR 28cm 0000001000-00004385+00000+0001T   00004385+0000001713          1400 SH43001IC            1 Z
103809000103809               103809               170213BI     1400+00000+BI0000002541+0000002541+000000000+000000356+0000002890+0000000007+I20000000000+0000002890+Z
103809001103809903-004950     103809006002580020304SWT APRICOT SURPRISE   0000001000+00001314+00000+0001T   00001314+0000001720          1400 SH4150               1AZ
103809002103809903-004951     103809006002580020328SWT MALLOW MINI M/SHAKE0000001000+00001227+00000+0001T   00001227+0000001720          1400 SH4150               1AZ
103810000103810               103810               170213BI     1400+00000+BI0000001752+0000001752+000000000+000000246+0000001990+0000000008+I20000000000+0000001990+Z
103810001103810903-000503     103810006001704006118SWT VAMPIRE FANGS 60G  0000001000+00000876+00000+0001T   00000876+0000001726          1400 SH4150               1AZ
103810002103810162-087876     103810006001492878768#TAG 2PK HEADBANDS     0000001000+00000876+00000+0001T   00001753+0008161726          1400 SH4160               1AZ
103811000103811               103811               170213BI     1400+00000+BI0000002493+0000002493+000000000+000000351+0000002840+0000000004+I20000000000+0000002840+Z
103811001103811006-000172-D   103811006003000609932METALLIC GOLD          0000001000+00000218+00000+0001T   00000218+0000001734          1400 SH4131               1AZ
103811002103811006-000171-G   103811006003000609529BALLOONS 1PC YELLOW PRN0000001000+00000218+00000+0001T   00000218+0000001734          1400 SH4131               1AZ
103811003103811006-000171-E   103811006003000609406BALLOONS 1PC BLUE PRNT 0000001000+00000218+00000+0001T   00000218+0000001734          1400 SH4131               1AZ
103811004103811006-001000     103811006003000093779HELIUM BALLOON FILL    0000003000+00000613+00000+0001T   00000613+0000001734          1400 SH4131               1AZ
103812000103812               103812               170213BI     1400+00000+BI0000002628+0000002628+000000000+000000369+0000002990+0000000007+I20000000000+0000002990+Z
103812001103812077-000011-C   103812006001023808523TISSUE 10xSHTS RED     0000001000+00000876+00000+0001T   00000876+0000001737          1400 SH4112               1AZ
103812002103812077-000011-E   103812006001023808646TISSUE-WRAP PINK 10PCE 0000001000+00000876+00000+0001T   00000876+0000001737          1400 SH4112               1AZ
103812003103812077-000011-L   103812006001023808585P/TISSUE BRIGHT 10SHEET0000001000+00000876+00000+0001T   00000876+0000001737          1400 SH4112               1AZ
103813000103813               103813               170213BI     1400+00000+BI0000021596+0000021596+000000000+000003028+0000024624+0000000000+I40000024624+0000000000+Z
103813001103813112-116069     103813006009681820277TCS CARRIER BAG JUMBO  0000001000+00000048+00000+0001T   00000048+0000001749          1400 SH4090               1AZ
103813002103813565-004101     103813006003000548033BALL BOUNCING EGG      0000002000+00001490+00000+0001T   00001490+0000001749          1400 SH4745               1AZ
103813003103813564-000012     103813006001023130075BUBBLE BOTTLE MAGIC    0000004000+00000700+00000+0001T   00000700+0000001749          1400 SH4131               1AZ
103813004103813565-000071     103813006003000643387NOVELTY WIND UP CHATTER0000002000+00001139+00000+0001T   00001139+0000001749          1400 SH4745               1AZ
103813005103813565-000256     103813006003000609826NOVELTY GLOW SLIME     0000003000+00000700+00000+0001T   00000700+0000001749          1400 SH4745               1AZ
103813006103813565-000735     103813006003000615674NOVELTY PUTTY BOUNCING 0000004000+00000700+00000+0001T   00000700+0000001749          1400 SH4745               1AZ
103813007103813565-000043     103813006003000109562NOVELTY BALL FUNNY FACE0000001000+00001753+00000+0001T   00001753+0000001749          1400 SH4745               1AZ
103813008103813079-006496     103813006003000160105GLITTER SHAKERS        0000001000+00001753+00000+0001T   00001753+0000001749          1400 SH4130               1AZ
103813009103813071-001002     103813006003000217540PENCIL-SHARPNER DOUBLE 0000001000+00001578+00000+0001T   00001578+0000001749          1400 SH4130               1AZ
103813010103813566-000065     103813006003000217915STICKERS GLITTER ASSTD 0000001000+00001753+00000+0001T   00001753+0000001749          1400 SH4130               1AZ
103813011103813566-000066     103813006003000283675STICKERS GLITTER 25PCS 0000001000+00001753+00000+0001T   00001753+0000001749          1400 SH4130               1AZ
103814000103814               103814               170213BI     1400+00000+BI0000000876+0000000876+000000000+000000123+0000000990+0000000009+I20000000000+0000000990+Z
103814001103814083-000295     103814006001023898562LIGHTER-GAS BUTANE 18ml0000001000+00000876+00000+0001T   00000876+0000001750          1400 SH4315               1AZ
103815000103815               103815               170213BI     1400+00000+BI0000005291+0000005291+000000000+000000743+0000006034+0000000000+I40000006034+0000000000+Z
103815001103815903-000155     103815006009803374435SWT LOLLY I LUV U HEART0000002000+00000525+00000+0001T   00000525+0000001751          1400 SH4150               1AZ
103815002103815903-000504     103815006001704012416SWT CHOC JELLY BEANS   0000002000+00001227+00000+0001T   00001227+0000001751          1400 SH4150               1AZ
103815003103815112-116038     103815006009681820246TCS CARRIER BAG MIDI   0000001000+00000035+00000+0001T   00000035+0000001751          1400 SH4090               1AZ
103815004103815903-003080     103815005907029004673SWT SNACK STIX CHOC 50g0000002000+00000876+00000+0001T   00000876+0000001751          1400 SH4150               1AZ
103816000103816               103816               170213BI     1400+00000+BI0000001990-0000000000+000000000+000000000+0000001990-0000000000+I20000000000+0000001990-Z
103816001103816001-999909     103816000000000999909STAFF-REFRESHMENTS     0000001000-00001990+00000+0001X   00000000+0000001753          0000 SH49092IC            1 Z
A17021300                                          08542744BISLAVE 1                       SH42IC
C10374800                                          170213BI004-071212     12285369SLAVE 1     2IC2IC0000000000+0000000000+0010000001000+
C10379400                                          170213BI463-000141     16121551SLAVE 1     SH42IC0000000000+0000000000+0010000001000+
C10380000                                          170213BI082-093322     16264327SLAVE 1     SH42IC0000000000+0000000000+0010000001000+
C10380001                                          170213BI082-096629     16264898SLAVE 1     SH42IC0000000000+0000000000+0020000001000+
C10381100                                          170213BI083-000049     17280104SLAVE 1     SH42IC0000000000+0000000000+0010000001000+
M17021391                              CASH        BISLAVE 1                       Z-REPORT No.   662TOTAL (Sales - Refunds)           6828.34       CASH TO BE BANKED                 2953.90       DEBIT CARDS                          0.00       CREDIT CARDS                      3854.54       Z-READING                         6808.44       AIRTIME DEBIT CARD SALES             0.00       AIRTIME CARD SALES                   0.00       OVERS/UNDERS                         0.00       AIRTIME CASH SALES                   0.00       GIFT CARDS                           0.00       GIFT CARD CASH SALES                 0.00       STAFF-REFRESHMENTS                  19.90       T O T A L  CASH PAYOUTS             19.90                                                                                                                                                                                                                                                                                                      Z
M17021392                              CASH        BIABSENT                                                                                                                                                                                          ANNUAL LEAVE                                                                                                                                                                                    DAY OFF                                                                                                                                                                                         COMMENTS                                                          Z/READING 6828.34                                                                                                                                                                                                                                                                                                            Z
Y17021300                                          BI00000000603633+000090
ZBI17021319203 SLAVE 1      SALES DATA                     NEXT INVOICE NO.  103817 0662
F093711496-058484         1701230901140000111ICSLAVE 1
F093712496-058484         1701230901000000081ICSLAVE 1
F094046496-028120         1701230901270000001ICSLAVE 1
X BI Slave 1 First invoice 103725 170213 Last invoice 103816 170213 Next invoice 103817 Total number of records 000000347 clbackup completed 19:20:41
