304963000304963               304963               170213BI     1400+00000+BI0000005310+0000005310+000000000+000000744+0000006054+0000000000+I40000006054+0000000000+Z
304963001304963112-116069     304963006009681820277TCS CARRIER BAG JUMBO  0000001000+00000048+00000+0001T   00000048+0000001057          1400 LG5090               3BZ
304963002304963464-009011     304963006003000647675FISHING WITH TWO RODS  0000001000+00005262+00000+0001T   00005262+0000001057          1400 LG5785               3BZ
304964000304964               304964               170213BI     1400+00000+BI0000006137+0000006137+000000000+000000860+0000006990+0000000007+I20000000000+0000006990+Z
304964001304964019-071597     304964006008766071597PEBBLES 250g CLEAR  BAG0000002000+00002192+00000+0001T   00002192+0000001138          1400 LG5510               3BZ
304964002304964019-071595     304964006001023756428PEBBLES 250g SKY-BLUE  0000001000+00001753+00000+0001T   00001753+0000001138          1400 LG5510               3BZ
304965000304965               304965               170213BI     1400+00000+BI0000008818+0000008818+000000000+000001235+0000010053+0000000000+I40000010053+0000000000+Z
304965001304965009-001712     304965006001023807823MELAMINE TRAY RECT DSGN0000002000+00004385+00000+0001T   00004385+0000001209          1400 LG5210               3BZ
304965002304965112-116069     304965006009681820277TCS CARRIER BAG JUMBO  0000001000+00000048+00000+0001T   00000048+0000001209          1400 LG5090               3BZ
304966000304966               304966               170213BI     1400+00000+BI0000011880+0000011880+000000000+000001667+0000013540+0000000007+I20000000000+0000013540+Z
304966001304966112-116069     304966006009681820277TCS CARRIER BAG JUMBO  0000001000+00000048+00000+0001T   00000048+0000001212          1400 LG5090               3BZ
304966002304966036-000063     304966006009654960436COATHANGERS VIRGIN 5PCE0000002000+00001753+00000+0001T   00001753+0000001212          1400 LG5212               3BZ
304966003304966566-000451     304966006001023788443STICKERS GLITTER ASSTD 0000001000+00001314+00000+0001T   00001753+0008151212          1400 LG5130               3BZ
304966004304966203-008282     304966006003000597703WINE GLS PL 2PC CHAMP. 0000001000+00001753+00000+0001T   00002630+0008171212          1400 LG5300               3BZ
304966005304966162-010779     304966006001492107790#TAG LDS ALICEBAND     0000001000+00002630+00000+0001T   00002630+0000001212          1400 LG5160               3BZ
304966006304966037-000008     304966006003000171750ASHTRAY TIN TUB 10X7.5 0000001000+00002192+00000+0001T   00002192+0000001212          1400 LG5515               3BZ
304966007304966080-000133-A   304966006003000647019MINI VALENTINES CARD   0000001000+00000437+00000+0001T   00000437+0000001212          1400 LG5112               3BZ
304967000304967               304967               170213BI     1400+00000+BI0000006137+0000006137+000000000+000000860+0000006990+0000000007+I20000000000+0000006990+Z
304967001304967007-000710     304967006001023909244NOTE BOOK JOURNAL      0000001000+00003507+00000+0001T   00003507+0000001221          1400 LG5130               3BZ
304967002304967007-000714     304967006003000227150NOTE-BK A6 WIRO 80SHTS 0000001000+00002630+00000+0001T   00002630+0000001221          1400 LG5130               3BZ
304968000304968               304968               170213BI     1400+00000+BI0000000700+0000000700+000000000+000000098+0000000790+0000000008+I20000000000+0000000790+Z
304968001304968903-000121     304968006002099001689SWT GS ZILLIONS SOURS  0000001000+00000700+00000+0001T   00000700+0000001226          1400 LG5150               3BZ
304969000304969               304969               170213BI     1400+00000+BI0000002717+0000002717+000000000+000000381+0000003098+0000000000+I40000003098+0000000000+Z
304969001304969903-000155     304969006009803374435SWT LOLLY I LUV U HEART0000001000+00000525+00000+0001T   00000525+0000001231          1400 LG5150               3BZ
304969002304969301-085000     304969006003000674299 ORN OCC. LOVE HEARTS  0000001000+00002192+00000+0001T   00002192+0000001231          1400 LG5505               3BZ
304970000304970               304970               170213BI     1400+00000+BI0000003507-0000003507-000000000+000000491-0000004000-0000000002+I20000000000+0000004000-Z
304970001304970089-000010     304970006003000106523KEY CHAIN REFLECTOR 2PC0000001000-00003507+00000+0001T   00003507+0000001236          1400 LG52052IC            3 Z
304971000304971               304971               170213BI     1400+00000+BI0000002103+0000002103+000000000+000000295+0000002390+0000000008+I20000000000+0000002390+Z
304971001304971903-000155     304971006009803374435SWT LOLLY I LUV U HEART0000001000+00000525+00000+0001T   00000525+0000001237          1400 LG5150               3BZ
304971002304971080-000124     304971006003000297733CARD & ENV VALENTINES  0000001000+00001578+00000+0001T   00001578+0000001237          1400 LG5112               3BZ
304972000304972               304972               170213BI     1400+00000+BI0000020303+0000020303+000000000+000002845+0000023148+0000000000+I40000023148+0000000000+Z
304972001304972112-116069     304972006009681820277TCS CARRIER BAG JUMBO  0000001000+00000048+00000+0001T   00000048+0000001239          1400 LG5090               3BZ
304972002304972077-000304     304972006001023483232GIFT-BAG 25X32CM E/DAY 0000002000+00001490+00000+0001T   00001490+0000001239          1400 LG5112               3BZ
304972003304972031-080509     304972006001023802446P/FRAME COLLAGE 10X15CM0000002000+00006139+00000+0001T   00006139+0000001239          1400 LG5510               3BZ
304972004304972077-000384     304972006003000275243G/BAG HOT STMP 18x23CM 0000001000+00001490+00000+0001T   00001490+0000001239          1400 LG5112               3BZ
304972005304972031-086102     304972006001023900722P/FRAME PL WORD-TOP 4AS0000001000+00003507+00000+0001T   00003507+0000001239          1400 LG5510               3BZ
304973000304973               304973               170213BI     1400+00000+BI0000004433+0000004433+000000000+000000621+0000005054+0000000000+I40000005054+0000000000+Z
304973001304973108-001210     304973006002580007244MIXING BOWL WITH LID   0000001000+00004385+00000+0001T   00004385+0000001241          1400 LG5210               3BZ
304973002304973112-116069     304973006009681820277TCS CARRIER BAG JUMBO  0000001000+00000048+00000+0001T   00000048+0000001241          1400 LG5090               3BZ
304974000304974               304974               170213BI     1400+00000+BI0000003241+0000003241+000000000+000000455+0000003690+0000000006+I20000000000+0000003690+Z
304974001304974566-002000     304974000721129013206STICKERS CRYSTAL ASSTD 0000001000+00000700+00000+0001T   00000700+0000001242          1400 LG5130               3BZ
304974002304974566-000858     304974006001023760975STCKRS G/OUTLINE ASSTD 0000001000+00000788+00000+0001T   00000788+0000001242          1400 LG5130               3BZ
304974003304974162-096647     304974006001492966472#TAG EARRINGS KIDS     0000001000+00001753+00000+0001T   00001753+0000001242          1400 LG5160               3BZ
304975000304975               304975               170213BI     1400+00000+BI0000029811+0000029811+000000000+000004177+0000033988+0000000000+I40000033988+0000000000+Z
304975001304975105-007550     304975006003000485635STORAGE BOX CLEAR NICHE0000001000+00007016+00000+0001T   00007016+0000001248          1400 LG5210               3BZ
304975002304975200-000011     304975006003000613489DISPOSABLE BAG ZIPER   0000001000+00003507+00000+0001T   00003507+0000001248          1400 LG5214               3BZ
304975003304975200-000012     304975006003000399536BAG 50PCE 165x146mm    0000001000+00003507+00000+0001T   00003507+0000001248          1400 LG5214               3BZ
304975004304975080-000139     304975006003000611690CARD & ENV MINI SET 6PC0000001000+00002192+00000+0001T   00002192+0000001248          1400 LG5112               3BZ
304975005304975566-000359     304975006003000582709STICKER BOOK LOVE SPARK0000001000+00002192+00000+0001T   00002192+0000001248          1400 LG5130               3BZ
304975006304975077-000005-B   304975006003000326617PAPER TISSUE PATTERN   0000001000+00002630+00000+0001T   00002630+0000001248          1400 LG5112               3BZ
304975007304975079-013032-D   304975006003000389643RIBBONS                0000001000+00002630+00000+0001T   00002630+0000001248          1400 LG5130               3BZ
304975008304975082-098791     304975006001492987910SUNGLASS KIDS BOYS     0000001000+00003507+00000+0001T   00003507+0000001248          1400 LG5160               3BZ
304975009304975077-000270     304975006003000395453GIFT-BAG PPR JMB 33X45 0000001000+00002630+00000+0001T   00002630+0000001248          1400 LG5112               3BZ
304976000304976               304976               170213BI     1400+00000+BI0000003069+0000003069+000000000+000000430+0000003490+0000000009+I20000000000+0000003490+Z
304976001304976033-000600     304976006003000365098HAIR-BRUSH 23cm VENT   0000001000+00003069+00000+0001T   00003069+0000001252          1400 LG5200               3BZ
304977000304977               304977               170213BI     1400+00000+BI0000015126+0000015126+000000000+000002122+0000017240+0000000008+I20000000000+0000017240+Z
304977001304977077-000301     304977008010410010188BAG LRG 25X32CM B/DAY  0000001000+00001753+00000+0001T   00001753+0000001255          1400 LG5112               3BZ
304977002304977112-116069     304977006009681820277TCS CARRIER BAG JUMBO  0000001000+00000048+00000+0001T   00000048+0000001255          1400 LG5090               3BZ
304977003304977200-000230     304977006008766126990BAKEPANS 5PC RND 23x3cm0000001000+00002630+00000+0001T   00002630+0000001255          1400 LG5214               3BZ
304977004304977016-006540     304977006003000579754S/JAR GLS COUNTER 2SIDE0000001000+00005262+00000+0001T   00005262+0000001255          1400 LG5300               3BZ
304977005304977903-000215     304977006002099001214SWT GS MALLOW TWIST PAC0000001000+00001753+00000+0001T   00001753+0000001255          1400 LG5150               3BZ
304977006304977903-000138     304977006002099004314SWT GS WINE GUMS 60G   0000001000+00000788+00000+0001T   00000788+0000001255          1400 LG5150               3BZ
304977007304977903-000087     304977006001704000161SWT SPECKLED-EGGS 50G  0000001000+00001139+00000+0001T   00001139+0000001255          1400 LG5150               3BZ
304977008304977200-003024     304977006001023657299REFUSE BAGS 20PCE BLACK0000001000+00001753+00000+0001T   00001753+0000001255          1400 LG5214               3BZ
304978000304978               304978               170213BI     1400+00000+BI0000006174+0000006174+000000000+000000865+0000007039+0000000000+I40000007039+0000000000+Z
304978001304978002-003725     304978006001023849557COLANDER S/S 24x10cm   0000001000+00006139+00000+0001T   00006139+0000001301          1400 LG5300               3BZ
304978002304978112-116038     304978006009681820246TCS CARRIER BAG MIDI   0000001000+00000035+00000+0001T   00000035+0000001301          1400 LG5090               3BZ
304979000304979               304979               170213BI     1400+00000+BI0000005696+0000005696+000000000+000000799+0000006490+0000000005+I20000000000+0000006490+Z
304979001304979200-003024     304979006001023657299REFUSE BAGS 20PCE BLACK0000001000+00001753+00000+0001T   00001753+0000001302          1400 LG5214               3BZ
304979002304979080-000121     304979006003000237555CARD&ENVLPE-ANNIVERSARY0000001000+00000700+00000+0001T   00000876+0008151302          1400 LG5112               3BZ
304979003304979251-000050     304979006001023627957PROTECT-PADS RUBBER 9PC0000001000+00001490+00000+0001T   00001490+0000001302          1400 LG5810               3BZ
304979004304979080-000104     304979006003000236978CARD&ENVLP MALE AFR    0000001000+00001753+00000+0001T   00001753+0000001302          1400 LG5112               3BZ
304980000304980               304980               170213BI     1400+00000+BI0000010377+0000010377+000000000+000001455+0000011832+0000000000+I40000011832+0000000000+Z
304980001304980112-116038     304980006009681820246TCS CARRIER BAG MIDI   0000001000+00000035+00000+0001T   00000035+0000001304          1400 LG5090               3BZ
304980002304980077-000303     304980006001023593757GIFT-BAG PAPER MED     0000003000+00001578+00000+0001T   00001578+0000001304          1400 LG5112               3BZ
304980003304980080-000133-A   304980006003000647019MINI VALENTINES CARD   0000002000+00000437+00000+0001T   00000437+0000001304          1400 LG5112               3BZ
304980004304980077-000245     304980006001023759214GIFT-RIBBON METALLICx2 0000001000+00001227+00000+0001T   00001227+0000001304          1400 LG5112               3BZ
304980005304980018-005009     304980006001023725608MUG W/PLUSH-BEAR LOVE  0000001000+00003507+00000+0001T   00003507+0000001304          1400 LG5515               3BZ
304981000304981               304981               170213BI     1400+00000+BI0000001753+0000001753+000000000+000000246+0000001999+0000000000+I40000001999+0000000000+Z
304981001304981077-000373     304981006003000395217G/BAG MED 18X23CM DESGN0000001000+00001753+00000+0001T   00001753+0000001305          1400 LG5112               3BZ
304982000304982               304982               170213BI     1400+00000+BI0000006007+0000006007+000000000+000000843+0000006850+0000000000+I40000006850+0000000000+Z
304982001304982112-116069     304982006009681820277TCS CARRIER BAG JUMBO  0000001000+00000048+00000+0001T   00000048+0000001308          1400 LG5090               3BZ
304982002304982080-000127     304982006003000424351VALENTINES DAY 36x24CM 0000001000+00002192+00000+0001T   00002192+0000001308          1400 LG5112               3BZ
304982003304982566-000359     304982006003000582709STICKER BOOK LOVE SPARK0000001000+00002192+00000+0001T   00002192+0000001308          1400 LG5130               3BZ
304982004304982903-000155     304982006009803374435SWT LOLLY I LUV U HEART0000003000+00000525+00000+0001T   00000525+0000001308          1400 LG5150               3BZ
304983000304983               304983               170213BI     1400+00000+BI0000003946+0000003946+000000000+000000553+0000004499+0000000000+I40000004499+0000000000+Z
304983001304983024-000092     304983006003000426805MEASURING-SET 6PC      0000001000+00003946+00000+0001T   00003946+0000001309          1400 LG5300               3BZ
304984000304984               304984               170213BI     1400+00000+BI0000005297+0000005297+000000000+000000742+0000006039+0000000000+I40000006039+0000000000+Z
304984001304984112-116038     304984006009681820246TCS CARRIER BAG MIDI   0000001000+00000035+00000+0001T   00000035+0000001311          1400 LG5090               3BZ
304984002304984031-000870-B   304984006001023798657P/FRAME WOOD WHITE-PINE0000001000+00005262+00000+0001T   00005262+0000001311          1400 LG5510               3BZ
304985000304985               304985               170213BI     1400+00000+BI0000038636+0000038636+000000000+000005413+0000044049+0000000000+I40000044049+0000000000+Z
304985001304985112-116069     304985006009681820277TCS CARRIER BAG JUMBO  0000001000+00000048+00000+0001T   00000048+0000001437          1400 LG5090               3BZ
304985002304985361-000505     304985006003000662876DOLL MED 29cm DOCTOR   0000001000+00011402+00000+0001T   00011402+0000001437          1400 LG5725               3BZ
304985003304985140-092000     304985006001023819130MOSQ-NET 1250x250x65cm 0000001000+00014911+00000+0001T   00014911+0000001437          1400 LG5830               3BZ
304985004304985567-010605     304985009781407130194BOOK ACTIVITY ASSTD    0000001000+00001753+00000+0001T   00001753+0000001437          1400 LG5757               3BZ
304985005304985496-057104     304985000078257571048INTEX POOL BABY RAINBOW0000001000+00007016+00000+0001T   00007016+0000001437          1400 LG5787               3BZ
304985006304985027-056191     304985006916920933134DISH-BRUSH+HOOK RECT   0000001000+00001753+00000+0001T   00001753+0000001437          1400 LG5212               3BZ
304985007304985020-006200     304985006001023488510KNIVES PARING 2PCE H/H 0000001000+00001753+00000+0001T   00001753+0000001437          1400 LG5300               3BZ
304986000304986               304986               170213BI     1400+00000+BI0000001613+0000001613+000000000+000000226+0000001830+0000000009+I20000000000+0000001830+Z
304986001304986018-000127     304986006001023380289MUG OCC STRAIGHT LOVE  0000001000+00001578+00000+0001T   00001753+0006471438          1400 LG5515               3BZ
304986002304986112-116038     304986006009681820246TCS CARRIER BAG MIDI   0000001000+00000035+00000+0001T   00000035+0000001438          1400 LG5090               3BZ
304987000304987               304987               170213BI     1400+00000+BI0000012309+0000012309+000000000+000001724+0000014030+0000000003+I20000000000+0000014030+Z
304987001304987112-116038     304987006009681820246TCS CARRIER BAG MIDI   0000001000+00000035+00000+0001T   00000035+0000001444          1400 LG5090               3BZ
304987002304987077-000303     304987006001023593757GIFT-BAG PAPER MED     0000002000+00001578+00000+0001T   00001578+0000001444          1400 LG5112               3BZ
304987003304987903-000095     304987006001704011495SWT SPECKLED-EGGS 100G 0000001000+00002104+00000+0001T   00002104+0000001444          1400 LG5150               3BZ
304987004304987018-000136     304987006001023659026MUG OCC LOVE W/PLUSH   0000002000+00003507+00000+0001T   00003507+0000001444          1400 LG5515               3BZ
304988000304988               304988               170213BI     1400+00000+BI0000006697+0000006697+000000000+000000939+0000007636+0000000000+I40000007636+0000000000+Z
304988001304988112-116038     304988006009681820246TCS CARRIER BAG MIDI   0000001000+00000035+00000+0001T   00000035+0000001445          1400 LG5090               3BZ
304988002304988079-013102     304988006003000019601ART+CRAFT DIY PIPE-CLNR0000001000+00002192+00000+0001T   00002192+0000001445          1400 LG5130               3BZ
304988003304988079-013099     304988006003000081875ART+CRAFT EYES ASSTD   0000001000+00001753+00000+0001T   00001753+0000001445          1400 LG5130               3BZ
304988004304988079-006494     304988006003000159864GLITTER GLUE 5PCE 11cm 0000001000+00001490+00000+0001T   00001490+0000001445          1400 LG5130               3BZ
304988005304988027-000082     304988006001023760258SCOURERS ROUND   PACK-60000001000+00001227+00000+0001T   00001227+0000001445          1400 LG5212               3BZ
304989000304989               304989               170213BI     1400+00000+BI0000008771+0000008771+000000000+000001228+0000009999+0000000000+I40000009999+0000000000+Z
304989001304989004-071262     304989006003000234981COMPUTER MOUSE RUGBY 6 0000001000+00008771+00000+0001T   00008771+0000001524          1400 LG5310               3BZ
304990000304990               304990               170213BI     1400+00000+BI0000000876-0000000876-000000000+000000124-0000001000-0000000000+I20000000000+0000001000-Z
304990001304990903-000907     304990006009802868324SWEET LASER BARBIE     0000002000-00002016+00000+0001T   00002016+0000001625          1400 LG51502IC            3 Z
304990002304990016-006515-A   304990006003000461707S/JAR GLS W/HANDLE 500 0000002000+00001578+00000+0001T   00001753+0008191625          1400 LG5300               3 Z
304991000304991               304991               170213BI     1400+00000+BI0000000035+0000000035+000000000+000000005+0000000040+0000000000+I20000000000+0000000040+Z
304991001304991112-116038     304991006009681820246TCS CARRIER BAG MIDI   0000001000+00000035+00000+0001T   00000035+0000001625          1400 LG5090               3BZ
304992000304992               304992               170213BI     1400+00000+BI0000014735+0000014735+000000000+000002077+0000016810+0000000002+I20000000000+0000016810+Z
304992001304992903-000155     304992006009803374435SWT LOLLY I LUV U HEART0000028000+00000525+00000+0001T   00000525+0000001627          1400 LG5150               3BZ
304992002304992112-116038     304992006009681820246TCS CARRIER BAG MIDI   0000001000+00000035+00000+0001T   00000035+0000001627          1400 LG5090               3BZ
304993000304993               304993               170213BI     1400+00000+BI0000002980+0000002980+000000000+000000418+0000003390+0000000008+I20000000000+0000003390+Z
304993001304993077-000384     304993006003000275243G/BAG HOT STMP 18x23CM 0000002000+00001490+00000+0001T   00001490+0000001627          1400 LG5112               3BZ
304994000304994               304994               170213BI     1400+00000+BI0000004822+0000004822+000000000+000000676+0000005498+0000000000+I40000005498+0000000000+Z
304994001304994082-096629     304994006001492966298SUNGLASS LADIES PLASTIC0000001000+00004385+00000+0001T   00004385+0000001629          1400 LG5160               3BZ
304994002304994007-000193     304994006009635831731BK JOTTER A4 72-PG F/M 0000001000+00000437+00000+0001T   00000437+0000001629          1400 LG5130               3BZ
304995000304995               304995               170213BI     1400+00000+BI0000014906+0000014906+000000000+000002089+0000016995+0000000000+I40000016995+0000000000+Z
304995001304995037-000004     304995006001023763679ASHTRAY PL TUB 8X11CM  0000001000+00001753+00000+0001T   00002192+0008191631          1400 LG5515               3BZ
304995002304995028-000899     304995006001023509932BBQ-GRILL-CLEANER LONG 0000001000+00002630+00000+0001T   00002630+0000001631          1400 LG5305               3BZ
304995003304995004-071215     304995006003000459360MOBILE SELFI STICK 80cm0000001000+00007016+00000+0001T   00007016+0000001631          1400 LG5310               3BZ
304995004304995083-000077     304995006003000092581LIGHTER LONG-REACH 18cm0000001000+00003507+00000+0001T   00003507+0000001631          1400 LG5315               3BZ
304996000304996               304996               170213BI     1400+00000+BI0000002803+0000002803+000000000+000000394+0000003197+0000000000+I40000003197+0000000000+Z
304996001304996903-000297     304996006001704002950SWT MS WILD BERRY 50G  0000001000+00000876+00000+0001T   00000876+0000001637          1400 LG5150               3BZ
304996002304996903-000137     304996006002099004130SWEET GS JELLY BEAN 60G0000001000+00000788+00000+0001T   00000788+0000001637          1400 LG5150               3BZ
304996003304996903-000009     304996000028000242268SWEET LAFFY TAFFY GRAPE0000001000+00001139+00000+0001T   00001139+0000001637          1400 LG5150               3BZ
304997000304997               304997               170213BI     1400+00000+BI0000013155+0000013155+000000000+000001843+0000014998+0000000000+I40000014998+0000000000+Z
304997001304997368-000637     304997006001023874092PLUSH BEAR SLEEPING LOV0000001000+00011402+00000+0001T   00012279+0006471640          1400 LG5745               3BZ
304997002304997077-000316     304997006001023609731GIFT-BAG 25X32CM MATT  0000001000+00001753+00000+0001T   00001753+0000001640          1400 LG5112               3BZ
304998000304998               304998               170213BI     1400+00000+BI0000002192+0000002192+000000000+000000307+0000002490+0000000009+I20000000000+0000002490+Z
304998001304998080-000127     304998006003000424351VALENTINES DAY 36x24CM 0000001000+00002192+00000+0001T   00002192+0000001641          1400 LG5112               3BZ
304999000304999               304999               170213BI     1400+00000+BI0000008800+0000008800+000000000+000001235+0000010035+0000000000+I40000010035+0000000000+Z
304999001304999112-116038     304999006009681820246TCS CARRIER BAG MIDI   0000001000+00000035+00000+0001T   00000035+0000001645          1400 LG5090               3BZ
304999002304999566-000028     304999006003000265541STICKER BK ASSTD 250PCE0000003000+00001753+00000+0001T   00001753+0000001645          1400 LG5130               3BZ
304999003304999079-013099     304999006003000081875ART+CRAFT EYES ASSTD   0000002000+00001753+00000+0001T   00001753+0000001645          1400 LG5130               3BZ
305000000305000               305000               170213BI     1400+00000+BI0000008771+0000008771+000000000+000001228+0000009990+0000000009+I20000000000+0000009990+Z
305000001305000368-000614     305000006001023705808PLUSH LOVE 30cm        0000001000+00008771+00000+0001T   00008771+0000001736          1400 LG5745               3BZ
305001000305001               305001               170213BI     1400+00000+BI0000001753+0000001753+000000000+000000246+0000001990+0000000009+I20000000000+0000001990+Z
305001001305001077-000467     305001006003000329991GIFT-BAG STAMP 18X23CM 0000001000+00001753+00000+0001T   00001753+0000001742          1400 LG5112               3BZ
305002000305002               305002               170213BI     1400+00000+BI0000008098+0000008098+000000000+000001135+0000009230+0000000003+I20000000000+0000009230+Z
305002001305002112-116038     305002006009681820246TCS CARRIER BAG MIDI   0000001000+00000035+00000+0001T   00000035+0000001744          1400 LG5090               3BZ
305002002305002077-000303     305002006001023593757GIFT-BAG PAPER MED     0000001000+00001578+00000+0001T   00001578+0000001744          1400 LG5112               3BZ
305002003305002204-000012     305002006001023888518M/HOLDR 7PC DAYS WEEK  0000001000+00003507+00000+0001T   00003507+0000001744          1400 LG5300               3BZ
305002004305002903-000151     305002006009803374411SWT SML RND R/BOW LOLLY0000001000+00000525+00000+0001T   00000525+0000001744          1400 LG5150               3BZ
305002005305002566-000065     305002006003000217915STICKERS GLITTER ASSTD 0000001000+00001753+00000+0001T   00001753+0000001744          1400 LG5130               3BZ
305002006305002018-000177     305002006001023797513MUG MINI LOVE ASSTD    0000001000+00000700+00000+0001T   00000700+0000001744          1400 LG5515               3BZ
305003000305003               305003               170213BI     1400+00000+BI0000008725+0000008725+000000000+000001223+0000009948+0000000000+I40000009948+0000000000+Z
305003001305003903-004950     305003006002580020304SWT APRICOT SURPRISE   0000001000+00001314+00000+0001T   00001314+0000001755          1400 LG5150               3BZ
305003002305003112-116069     305003006009681820277TCS CARRIER BAG JUMBO  0000001000+00000048+00000+0001T   00000048+0000001755          1400 LG5090               3BZ
305003003305003903-000518     305003006001704012782SWT STRAWS S/BERRY 100g0000001000+00001227+00000+0001T   00001227+0000001755          1400 LG5150               3BZ
305003004305003266-001026     305003006003000473618SWORD 52cm+35cm AXE    0000001000+00003507+00000+0001T   00003507+0000001755          1400 LG5710               3BZ
305003005305003077-000922     305003006003000413935G/WRAP 700mmx2m FLOWER 0000001000+00002192+00000+0001T   00002192+0000001755          1400 LG5112               3BZ
305003006305003080-000133     305003006003000535613CARD&ENV MINI ASTD DSGN0000001000+00000437+00000+0001T   00000437+0000001755          1400 LG5112               3BZ
305004000305004               305004               170213BI     1400+00000+BI0000002715+0000002715+000000000+000000381+0000003090+0000000006+I20000000000+0000003090+Z
305004001305004304-001011     305004006001023806727FLWR ROSE RED W/BEAR   0000003000+00000613+00000+0001T   00000788+0006471756          1400 LG5510               3BZ
305004002305004162-087876     305004006001492878768#TAG 2PK HEADBANDS     0000001000+00000876+00000+0001T   00001753+0008161756          1400 LG5160               3BZ
305005000305005               305005               170213BI     1400+00000+BI0000005033+0000005033+000000000+000000705+0000005730+0000000008+I20000000000+0000005730+Z
305005001305005304-001011     305005006001023806727FLWR ROSE RED W/BEAR   0000001000+00000613+00000+0001T   00000788+0006471758          1400 LG5510               3BZ
305005002305005031-080508     305005006001023802415P/FRAME PL 22X11CM LOVE0000001000+00004385+00000+0001T   00004385+0000001758          1400 LG5510               3BZ
305005003305005112-116038     305005006009681820246TCS CARRIER BAG MIDI   0000001000+00000035+00000+0001T   00000035+0000001758          1400 LG5090               3BZ
305006000305006               305006               170213BI     1400+00000+BI0000002240+0000002240+000000000+000000314+0000002550+0000000004+I20000000000+0000002550+Z
305006001305006080-000127     305006006003000424351VALENTINES DAY 36x24CM 0000001000+00002192+00000+0001T   00002192+0000001800          1400 LG5112               3BZ
305006002305006112-116069     305006006009681820277TCS CARRIER BAG JUMBO  0000001000+00000048+00000+0001T   00000048+0000001800          1400 LG5090               3BZ
305007000305007               305007               170213BI     1400+00000+BI0000012658+0000012658+000000000+000001775+0000014430+0000000003+I20000000000+0000014430+Z
305007001305007301-085004     305007006003000420469ORN LOVE PLAQUE 21X10CM0000001000+00003507+00000+0001T   00003946+0006471802          1400 LG5505               3BZ
305007002305007206-000620     305007006003000631797BACK SCRATCHER EXTEND  0000001000+00002630+00000+0001T   00002630+0000001802          1400 LG5321               3BZ
305007003305007112-116038     305007006009681820246TCS CARRIER BAG MIDI   0000001000+00000035+00000+0001T   00000035+0000001802          1400 LG5090               3BZ
305007004305007564-000015     305007006003000140862BUBBLE TEST TUBE       0000001000+00001753+00000+0001T   00001753+0000001802          1400 LG5131               3BZ
305007005305007566-000359     305007006003000582709STICKER BOOK LOVE SPARK0000001000+00002192+00000+0001T   00002192+0000001802          1400 LG5130               3BZ
305007006305007903-000200     305007006009826020234SWT CHOC RP CHOCO 23G  0000001000+00000788+00000+0001T   00000788+0000001802          1400 LG5150               3BZ
305007007305007903-000926     305007006914204004556SWT NOVELTY ST N/LACE  0000001000+00001753+00000+0001T   00001753+0000001802          1400 LG5150               3BZ
305008000305008               305008               170213BI     1400+00000+BI0000004854+0000004854+000000000+000000680+0000005530+0000000004+I20000000000+0000005530+Z
305008001305008018-000127     305008006001023380289MUG OCC STRAIGHT LOVE  0000001000+00001578+00000+0001T   00001753+0006471804          1400 LG5515               3BZ
305008002305008112-116038     305008006009681820246TCS CARRIER BAG MIDI   0000001000+00000035+00000+0001T   00000035+0000001804          1400 LG5090               3BZ
305008003305008304-001011     305008006001023806727FLWR ROSE RED W/BEAR   0000001000+00000613+00000+0001T   00000788+0006471804          1400 LG5510               3BZ
305008004305008903-000194     305008006009826020616SWT CHOC RP LOLLY 25G  0000002000+00001314+00000+0001T   00001314+0000001804          1400 LG5150               3BZ
305009000305009               305009               170213BI     1400+00000+BI0000008767+0000008767+000000000+000001229+0000009990+0000000006+I20000000000+0000009990+Z
305009001305009077-000310     305009006001023608635GIFT-BAG 18X23CM GLOSS 0000001000+00001314+00000+0001T   00001314+0000001805          1400 LG5112               3BZ
305009002305009301-085001     305009006003000297610ORN WATERBALL LOVE ASST0000001000+00004823+00000+0001T   00004823+0000001805          1400 LG5505               3BZ
305009003305009304-000720     305009006001023843050F/BUNCH ROSE 6-HEAD AST0000001000+00002630+00000+0001T   00002630+0000001805          1400 LG5510               3BZ
305010000305010               305010               170213BI     1400+00000+BI0000001314+0000001314+000000000+000000184+0000001490+0000000008+I20000000000+0000001490+Z
305010001305010080-000114     305010006003000246472CARD&ENV LOVE-MUSICAL  0000001000+00001314+00000+0001T   00001753+0008151807          1400 LG5112               3BZ
305011000305011               305011               170213BI     1400+00000+BI0000000437+0000000437+000000000+000000062+0000000490+0000000009+I20000000000+0000000490+Z
305011001305011080-000133     305011006003000535613CARD&ENV MINI ASTD DSGN0000001000+00000437+00000+0001T   00000437+0000001808          1400 LG5112               3BZ
305012000305012               305012               170213BI     1400+00000+BI0000000613+0000000613+000000000+000000086+0000000690+0000000009+I20000000000+0000000690+Z
305012001305012304-001011     305012006001023806727FLWR ROSE RED W/BEAR   0000001000+00000613+00000+0001T   00000788+0006471810          1400 LG5510               3BZ
305013000305013               305013               170213BI     1400+00000+BI0000003506+0000003506+000000000+000000492+0000003998+0000000000+I40000003998+0000000000+Z
305013001305013077-000005-D   305013006003000414567PAPER TISSUE 50x70cm   0000001000+00001753+00000+0001T   00001753+0000001812          1400 LG5112               3BZ
305013002305013077-000467     305013006003000329991GIFT-BAG STAMP 18X23CM 0000001000+00001753+00000+0001T   00001753+0000001812          1400 LG5112               3BZ
305014000305014               305014               170213BI     1400+00000+BI0000005612+0000005612+000000000+000000786+0000006398+0000000000+I40000006398+0000000000+Z
305014001305014251-000041     305014006001023515889SEAL-TAPE BUFF 48mmx50m0000001000+00001227+00000+0001T   00001227+0000001814          1400 LG5810               3BZ
305014002305014368-000151     305014006003000166725PLUSH BEAR 14cm        0000001000+00004385+00000+0001T   00004385+0000001814          1400 LG5745               3BZ
305015000305015               305015               170213BI     1400+00000+BI0000002015+0000002015+000000000+000000283+0000002290+0000000008+I20000000000+0000002290+Z
305015001305015071-081101-A   305015006003000326549GLUE-STICK 25g BLISTER 0000001000+00000788+00000+0001T   00000788+0000001815          1400 LG5130               3BZ
305015002305015071-081091     305015006001151010287STAED/GENKEM ALL-STICK 0000001000+00001227+00000+0001T   00001227+0000001815          1400 LG5130               3BZ
305016000305016               305016               170213BI     1400+00000+BI0000003067+0000003067+000000000+000000430+0000003497+0000000000+I40000003497+0000000000+Z
305016001305016080-000113     305016006003000237449CARD&ENVLPE - LOVE     0000001000+00001753+00000+0001T   00001753+0000001821          1400 LG5112               3BZ
305016002305016903-000194     305016006009826020616SWT CHOC RP LOLLY 25G  0000001000+00001314+00000+0001T   00001314+0000001821          1400 LG5150               3BZ
305017000305017               305017               170213BI     1400+00000+BI0000000876+0000000876+000000000+000000123+0000000990+0000000009+I20000000000+0000000990+Z
305017001305017077-000011-L   305017006001023808585P/TISSUE BRIGHT 10SHEET0000001000+00000876+00000+0001T   00000876+0000001824          1400 LG5112               3BZ
305018000305018               305018               170213BI     1400+00000+BI0000004420+0000004420+000000000+000000619+0000005039+0000000000+I40000005039+0000000000+Z
305018001305018031-080508     305018006001023802415P/FRAME PL 22X11CM LOVE0000001000+00004385+00000+0001T   00004385+0000001826          1400 LG5510               3BZ
305018002305018112-116038     305018006009681820246TCS CARRIER BAG MIDI   0000001000+00000035+00000+0001T   00000035+0000001826          1400 LG5090               3BZ
305019000305019               305019               170213BI     1400+00000+BI0000004030+0000004030+000000000+000000565+0000004595+0000000000+I40000004595+0000000000+Z
305019001305019007-000327     305019006009699513406PAPER A4 80GSM WHT 100 0000001000+00002630+00000+0001T   00002630+0000001827          1400 LG5130               3BZ
305019002305019903-000121     305019006002099001689SWT GS ZILLIONS SOURS  0000002000+00000700+00000+0001T   00000700+0000001827          1400 LG5150               3BZ
305020000305020               305020               170213BI     1400+00000+BI0000008274+0000008274+000000000+000001161+0000009435+0000000000+I40000009435+0000000000+Z
305020001305020112-116038     305020006009681820246TCS CARRIER BAG MIDI   0000001000+00000035+00000+0001T   00000035+0000001831          1400 LG5090               3BZ
305020002305020007-000120     305020006009698062714BOOK DRAWING A4 24-PAGE0000001000+00000525+00000+0001T   00000525+0000001831          1400 LG5130               3BZ
305020003305020365-000001     305020006003000395262PLAY SET DOCTORS SET   0000001000+00001753+00000+0001T   00001753+0000001831          1400 LG5725               3BZ
305020004305020079-000510     305020006001023509079CRAYONS WAX 12-COLOUR  0000001000+00002455+00000+0001T   00002455+0000001831          1400 LG5130               3BZ
305020005305020466-000077     305020006003000669448MINI MESH BEAN BALL    0000001000+00001753+00000+0001T   00001753+0000001831          1400 LG5785               3BZ
305020006305020002-000015     305020006003000555604CAPPUCCINO STENCILS 12P0000001000+00001753+00000+0001T   00001753+0000001831          1400 LG5300               3BZ
305021000305021               305021               170213BI     1400+00000+BI0000011133+0000011133+000000000+000001560+0000012693+0000000000+I40000012693+0000000000+Z
305021001305021077-000011-X   305021006001023809827TISSUE-WRAP SILVER 10PC0000001000+00001753+00000+0001T   00001753+0000001840          1400 LG5112               3BZ
305021002305021080-000139     305021006003000611690CARD & ENV MINI SET 6PC0000001000+00002192+00000+0001T   00002192+0000001840          1400 LG5112               3BZ
305021003305021077-000303     305021006001023593757GIFT-BAG PAPER MED     0000004000+00001578+00000+0001T   00001578+0000001840          1400 LG5112               3BZ
305021004305021071-005213     305021006001023690371CELLOTAPE 12mmx33m     0000001000+00000876+00000+0001T   00000876+0000001840          1400 LG5130               3BZ
305022000305022               305022               170213BI     1400+00000+BI0000000876+0000000876+000000000+000000123+0000000990+0000000009+I20000000000+0000000990+Z
305022001305022047-001333     305022006001838000495PLUGTOP CHUBBY         0000001000+00000876+00000+0001T   00000876+0000001852          1400 LG5880               3BZ
305023000305023               305023               170213BI     1400+00000+BI0000007222+0000007222+000000000+000001012+0000008234+0000000000+I40000008234+0000000000+Z
305023001305023018-000136     305023006001023659026MUG OCC LOVE W/PLUSH   0000001000+00003507+00000+0001T   00003507+0000001855          1400 LG5515               3BZ
305023002305023077-000316     305023006001023609731GIFT-BAG 25X32CM MATT  0000001000+00001753+00000+0001T   00001753+0000001855          1400 LG5112               3BZ
305023003305023112-116038     305023006009681820246TCS CARRIER BAG MIDI   0000001000+00000035+00000+0001T   00000035+0000001855          1400 LG5090               3BZ
305023004305023903-000194     305023006009826020616SWT CHOC RP LOLLY 25G  0000001000+00001314+00000+0001T   00001314+0000001855          1400 LG5150               3BZ
305023005305023304-001011     305023006001023806727FLWR ROSE RED W/BEAR   0000001000+00000613+00000+0001T   00000788+0006471855          1400 LG5510               3BZ
305024000305024               305024               170213BI     1400+00000+BI0000007891+0000007891+000000000+000001106+0000008997+0000000000+I40000008997+0000000000+Z
305024001305024077-000240     305024006003000326259G/RIBBON 4PC PEARLIZED 0000001000+00001753+00000+0001T   00001753+0000001857          1400 LG5112               3BZ
305024002305024301-085008     305024006003000673933ORN OCC.LOVE TINSEL HRT0000002000+00003069+00000+0001T   00003069+0000001857          1400 LG5505               3BZ
305025000305025               305025               170213BI     1400+00000+BI0000003506+0000003506+000000000+000000492+0000003998+0000000000+I40000003998+0000000000+Z
305025001305025080-000102     305025006003000236855CARD&ENVLP FEMALE AFR  0000001000+00001753+00000+0001T   00001753+0000001902          1400 LG5112               3BZ
305025002305025264-000921     305025000090159150442MAISTO CAR 3" FRESH    0000001000+00001753+00000+0001T   00001753+0000001902          1400 LG5710               3BZ
A17021300                                          09521877BISLAVE 3                       LG52IC
A17021301                                          10173974BISLAVE 3                       LG52IC
M17021391                              CASH        BISLAVE 3                       Z-REPORT No.   575TOTAL (Sales - Refunds)           4735.62       CASH TO BE BANKED                 1646.70       DEBIT CARDS                          0.00       CREDIT CARDS                      3088.92       Z-READING                         4735.62       AIRTIME DEBIT CARD SALES             0.00       AIRTIME CARD SALES                   0.00       OVERS/UNDERS                         0.00       AIRTIME CASH SALES                   0.00       GIFT CARDS                           0.00       GIFT CARD CASH SALES                 0.00       T O T A L  CASH PAYOUTS              0.00                                                                                                                                                                                                                                                                                                                                                      Z
M17021392                              CASH        BIABSENT                                                                                                                                                                                          ANNUAL LEAVE                                                                                                                                                                                    DAY OFF                                                                                                                                                                                         COMMENTS                                                                                                          Z/READING 4735.62                                                                                                                                                                                                                                                            Z
Y17021300                                          BI00000000423051+000062
ZBI17021319203 SLAVE 3      SALES DATA                     NEXT INVOICE NO.  305026 0575
F093711496-058484         1702011056520000111ICSLAVE 3
F093712496-058484         1702011056410000081ICSLAVE 3
F094046496-028120         1702011056580000001ICSLAVE 3
X BI Slave 3 First invoice 304963 170213 Last invoice 305025 170213 Next invoice 305026 Total number of records 000000251 clbackup completed 19:20:44
