401183000401183               401183               170213BI     1400+00000+BI0000231392+0000231392+000000000+000032421+0000263813+           I00000000000+0000000000+Z
401183001401183024-091103     401183006003453014307BAKING-CUP MUFFIN 50PCE0000001000+00002192+00000+0001T                                1400 1IC3001ICD             Z
401183002401183027-078282     401183006001023767837SCOURER 25g SPIRAL-BALL0000001000+00000613+00000+0001T                                1400 1IC2121ICD             Z
401183003401183033-010721     401183006001023678669SAFETY-PINS 20PCE ASSTD0000001000+00000700+00000+0001T                                1400 1IC2001ICD             Z
401183004401183565-008002     401183006003000655618NOVELTY WITCHES 40x48cm0000006000+00003507+00000+0001T                                1400 1IC7451ICD             Z
401183005401183467-000019     401183006001023746832BEACH-SET 16PCE BUCKET 0000002000+00007893+00000+0001T                                1400 1IC7851ICD             Z
401183006401183467-000022     401183006001023787361BEACH WHEEL-BARROW+ACC 0000001000+00013157+00000+0001T                                1400 1IC7851ICD             Z
401183007401183019-000020     401183006003000673612VASE GLS 22CM BAUBLE   0000001000+00005262+00000+0001T                                1400 1IC5101ICD             Z
401183008401183007-000166     401183006009685857316SPIRAL NOTES A6 100PG  0000001000+00000700+00000+0001T                                1400 1IC1301ICD             Z
401183009401183133-000017     401183006003000525171CLEANING-CLOTHS 5PCE   0000001000+00003507+00000+0001T                                1400 1IC2121ICD             Z
401183010401183566-002005     401183006003000418282PUFFY LOVE 2 ASSTD     0000001000+00000876+00000+0001T                                1400 1IC1301ICD             Z
401183011401183369-001017     401183006001023698544VINYL PIRATE DUCK SET  0000001000+00003507+00000+0001T                                1400 1IC7451ICD             Z
401183012401183024-000135     401183006001023902450QUICHE PAN 26x2.5cm    0000001000+00008771+00000+0001T                                1400 1IC3001ICD             Z
401183013401183366-000303     401183006001023998194DRESS UP WAND 35cm     0000001000+00002192+00000+0001T                                1400 1IC1311ICD             Z
401183014401183072-020211     401183006001023775801PET CHEWS ROLLER-ROLL  0000001000+00001753+00000+0001T                                1400 1IC8701ICD             Z
401183015401183079-000572     401183006003000533633ART+CRAFT O/PASTEL 12PC0000001000+00001753+00000+0001T                                1400 1IC1301ICD             Z
401183016401183466-009005     401183006001023800428BEACH-BAT-SET          0000001000+00003507+00000+0001T                                1400 1IC7851ICD             Z
401183017401183033-005920-A   401183006001023678249SEWING-THREAD 100m WHT 0000001000+00000700+00000+0001T                                1400 1IC2001ICD             Z
401183018401183017-000220     401183006003000239160P/ALBUM ADHESIVE 10 PGE0000001000+00004385+00000+0001T                                1400 1IC5101ICD             Z
401183019401183565-008003     401183006003000655496NOVELTY PUMPKIN 30cm   0000001000+00003507+00000+0001T                                1400 1IC7451ICD             Z
401183020401183566-000201     401183006003000444403R/DECOR FLUORECENT     0000001000+00001578+00000+0001T                                1400 1IC1301ICD             Z
401183021401183056-065302     401183006001023759566CAR SUN-SHIELD ALM-FOIL0000001000+00002630+00000+0001T                                1400 1IC8601ICD             Z
401183022401183012-000019     401183006003000421046M/WAVE STEAMER MINI H/H0000001000+00002630+00000+0001T                                1400 1IC3001ICD             Z
401183023401183565-000034     401183006003000583454NOVELTY HALLOWEEN LANTN0000001000+00002630+00000+0001T                                1400 1IC7451ICD             Z
401183024401183206-000270     401183006003000632305ICE TRAY SILICONE      0000001000+00006139+00000+0001T                                1400 1IC3211ICD             Z
401183025401183204-000009     401183006003000577200MEMO HOLDER CUPCAKE    0000001000+00000876+00000+0001T                                1400 1IC3001ICD             Z
401183026401183071-005213     401183006001023690371CELLOTAPE 12mmx33m     0000003000+00000876+00000+0001T                                1400 1IC1301ICD             Z
401183027401183006-000097     401183006003000376612PARTY WIND SPINNER     0000001000+00003507+00000+0001T                                1400 1IC1311ICD             Z
401183028401183565-008020     401183006003000469475NOVELTY SKELETONS 20cm 0000004000+00001051+00000+0001T                                1400 1IC7451ICD             Z
401183029401183105-007800     401183006002923018913STORAGE BOX CLEAR 5.5L 0000001000+00003507+00000+0001T                                1400 1IC2101ICD             Z
401183030401183024-000192     401183006003000334377KIDS B-SET 15PC PVC BAG0000001000+00014034+00000+0001T                                1400 1IC3001ICD             Z
401183031401183027-056185     401183006003000638093DISH BRUSH DUCK DESIGN 0000003000+00002630+00000+0001T                                1400 1IC2121ICD             Z
401183032401183150-000774     401183006001023287427UTILITY-BOX MEDIUM     0000001000+00000964+00000+0001T                                1400 1IC8101ICD             Z
401183033401183104-000120     401183006003000010363STORAGE UNIT 3xDRAWERS 0000001000+00008771+00000+0001T                                1400 1IC2101ICD             Z
401183034401183083-000295     401183006001023898562LIGHTER-GAS BUTANE 18ml0000001000+00000876+00000+0001T                                1400 1IC3151ICD             Z
401183035401183206-000480     401183006003000620227MOP SHOES CHENILLE 2PC 0000001000+00007893+00000+0001T                                1400 1IC3211ICD             Z
401183036401183306-000011     401183006003000108527TOOTH DENTURE BRUSH    0000001000+00002630+00000+0001T                                1400 1IC2001ICD             Z
401183037401183159-003605     401183006001023156242TOILET-BRUSH+STAND COLR0000001000+00004385+00000+0001T                                1400 1IC2001ICD             Z
401183038401183024-091103-A   401183006003000419876B/CUP PAPER SET 48PC   0000001000+00001753+00000+0001T                                1400 1IC3001ICD             Z
401183039401183007-000653     401183006001023784469NOTE-BOOK SET+PEN+BAG  0000001000+00004385+00000+0001T                                1400 1IC1301ICD             Z
401183040401183200-000002     401183006925406821049BAG FLIP TOP 80PCE     0000001000+00002192+00000+0001T                                1400 1IC2141ICD             Z
401183041401183030-001140     401183006003000441938WALL CANVAS 26X20CM    0000001000+00010525+00000+0001T                                1400 1IC5051ICD             Z
401183042401183463-000141     401183006003000521609WATER BLASTER LONG     0000001000+00003507+00000+0001T                                1400 1IC7851ICD             Z
401183043401183028-000016     401183006001334007004ICE-BRICK CLEAR    400g0000001000+00001753+00000+0001T                                1400 1IC3051ICD             Z
401183044401183106-001103     401183006003000638598WATER BOTTLE 735ml     0000001000+00002630+00000+0001T                                1400 1IC2101ICD             Z
401183045401183306-000020-A   401183006001023873583TISSUES 100PCE 19x18cm 0000001000+00001753+00000+0001T                                1400 1IC2001ICD             Z
401183046401183001-000169     401183006005231103302TUMBLER 240ml HI-BALL  0000001000+00000788+00000+0001T                                1400 1IC5151ICD             Z
401183047401183019-000020     401183006003000673612VASE GLS 22CM BAUBLE   0000001000+00005262+00000+0001T                                1400 1IC5101ICD             Z
401183048401183565-000044     401183006003000128280BARREL OF SLIME 100g   0000001000+00000613+00000+0001T                                1400 1IC7451ICD             Z
401183049401183036-000013     401183006001246500860LINT REMOVER REFILLS   0000001000+00003946+00000+0001T                                1400 1IC2121ICD             Z
401183050401183362-001103     401183006001023793515JWLRY GRL ASS 2PC ASSTD0000001000+00001753+00000+0001T                                1400 1IC1601ICD             Z
401183051401183028-000016     401183006001334007004ICE-BRICK CLEAR    400g0000004000+00001753+00000+0001T                                1400 1IC3051ICD             Z
401183052401183261-003342     401183006001023484895GUN RIFLE ACTION-TEAM  0000001000+00004385+00000+0001T                                1400 1IC7101ICD             Z
401183053401183305-074102     401183006003000239788WIND-TWISTER ASST 70CM 0000001000+00001753+00000+0001T                                1400 1IC5051ICD             Z
401183054401183046-002023-C   401183006001023698254BATTERIES ALKALN CARD-50000001000+00005700+00000+0001T                                1400 1IC3121ICD             Z
401184000401184               401184               170213BI     1400+00000+BI0000004385+0000004385+000000000+000000614+0000004999+           I90000000000+0000000000+Z
401184001401184105-008002     401184006002923015905CONTAINER FOODSAVER 8L 0000001000+00004385+00000+0001T023609550000                    1400 1IC2101ICV             Z
M17021391                              CASH        BISLAVE 4                       Z-REPORT No.   495TOTAL (Sales - Refunds)              0.00       CASH TO BE BANKED                    0.00       DEBIT CARDS                          0.00       CREDIT CARDS                         0.00       Z-READING                            0.00       AIRTIME DEBIT CARD SALES             0.00       AIRTIME CARD SALES                   0.00       OVERS/UNDERS                         0.00       AIRTIME CASH SALES                   0.00       GIFT CARDS                           0.00       GIFT CARD CASH SALES                 0.00       T O T A L  CASH PAYOUTS              0.00                                                                                                                                                                                                                                                                                                                                                      Z
M17021392                              CASH        BIABSENT                                                                                                                                                                                          ANNUAL LEAVE                                                                                                                                                                                    DAY OFF                                                                                                                                                                                         COMMENTS                                                                                                                                                                                                                                                                                                                                                                                       Z
Y17021300                                          BI00000000000000+000000
ZBI17021319203 SLAVE 4      SALES DATA                     NEXT INVOICE NO.  401185 0495
L54213000358061-001-004       BI1702130930391ICNASHETA GROEP                                                                                                                                                                                                                                                                                                                                                                                                                                                                                                                                                                                                                                                                                                                                                                                                                                                                                                                                                                                        Z
L54213000358061-002-004       BI1702130929541ICNASHETA GROEP                                                                                                                                                                                                                                                                                                                                                                                                                                                                                                                                                                                                                                                                                                                                                                                                                                                                                                                                                                                        Z
L54213000358061-003-004       BI1702130930571ICNASHETA GROEP                                                                                                                                                                                                                                                                                                                                                                                                                                                                                                                                                                                                                                                                                                                                                                                                                                                                                                                                                                                        Z
L54213000358061-004-004       BI1702130931161ICNASHETA GROEP                                                                                                                                                                                                                                                                                                                                                                                                                                                                                                                                                                                                                                                                                                                                                                                                                                                                                                                                                                                        Z
L54236800360508-001-003       BI1702130935531ICNASHETA GROEP                                                                                                                                                                                                                                                                                                                                                                                                                                                                                                                                                                                                                                                                                                                                                                                                                                                                                                                                                                                        Z
L54236800360508-002-003       BI1702130935171ICNASHETA GROEP                                                                                                                                                                                                                                                                                                                                                                                                                                                                                                                                                                                                                                                                                                                                                                                                                                                                                                                                                                                        Z
L54236800360508-003-003       BI1702130935301ICNASHETA GROEP                                                                                                                                                                                                                                                                                                                                                                                                                                                                                                                                                                                                                                                                                                                                                                                                                                                                                                                                                                                        Z
L55769400357234-001-001       BI1702130942521ICNASHETA GROEP                                                                                                                                                                                                                                                                                                                                                                                                                                                                                                                                                                                                                                                                                                                                                                                                                                                                                                                                                                                        Z
L56022300357999-001-001       BI1702130943161ICNASHETA GROEP                                                                                                                                                                                                                                                                                                                                                                                                                                                                                                                                                                                                                                                                                                                                                                                                                                                                                                                                                                                        Z
L56255000357522-001-001       BI1702130927221ICNASHETA GROEP                                                                                                                                                                                                                                                                                                                                                                                                                                                                                                                                                                                                                                                                                                                                                                                                                                                                                                                                                                                        Z
L56483800355786-001-001       BI1702130927401ICNASHETA GROEP                                                                                                                                                                                                                                                                                                                                                                                                                                                                                                                                                                                                                                                                                                                                                                                                                                                                                                                                                                                        Z
L56628900356065-001-001       BI1702130926481ICNASHETA GROEP                                                                                                                                                                                                                                                                                                                                                                                                                                                                                                                                                                                                                                                                                                                                                                                                                                                                                                                                                                                        Z
L56909500357546-001-002       BI1702130929101ICNASHETA GROEP                                                                                                                                                                                                                                                                                                                                                                                                                                                                                                                                                                                                                                                                                                                                                                                                                                                                                                                                                                                        Z
L56909500357546-002-002       BI1702130928151ICNASHETA GROEP                                                                                                                                                                                                                                                                                                                                                                                                                                                                                                                                                                                                                                                                                                                                                                                                                                                                                                                                                                                        Z
L57198000359648-001-003       BI1702130942411ICNASHETA GROEP                                                                                                                                                                                                                                                                                                                                                                                                                                                                                                                                                                                                                                                                                                                                                                                                                                                                                                                                                                                        Z
L57198000359648-002-003       BI1702130941481ICNASHETA GROEP                                                                                                                                                                                                                                                                                                                                                                                                                                                                                                                                                                                                                                                                                                                                                                                                                                                                                                                                                                                        Z
L57198000359648-003-003       BI1702130943071ICNASHETA GROEP                                                                                                                                                                                                                                                                                                                                                                                                                                                                                                                                                                                                                                                                                                                                                                                                                                                                                                                                                                                        Z
L57313900355377-001-002       BI1702130930131ICNASHETA GROEP                                                                                                                                                                                                                                                                                                                                                                                                                                                                                                                                                                                                                                                                                                                                                                                                                                                                                                                                                                                        Z
L57313900355377-002-002       BI1702130930241ICNASHETA GROEP                                                                                                                                                                                                                                                                                                                                                                                                                                                                                                                                                                                                                                                                                                                                                                                                                                                                                                                                                                                        Z
L57317400358278-001-001       BI1702130943301ICNASHETA GROEP                                                                                                                                                                                                                                                                                                                                                                                                                                                                                                                                                                                                                                                                                                                                                                                                                                                                                                                                                                                        Z
L57925500360955-001-006       BI1702130938591ICNASHETA GROEP                                                                                                                                                                                                                                                                                                                                                                                                                                                                                                                                                                                                                                                                                                                                                                                                                                                                                                                                                                                        Z
L57925500360955-002-006       BI1702130937031ICNASHETA GROEP                                                                                                                                                                                                                                                                                                                                                                                                                                                                                                                                                                                                                                                                                                                                                                                                                                                                                                                                                                                        Z
L57925500360955-003-006       BI1702130939021ICNASHETA GROEP                                                                                                                                                                                                                                                                                                                                                                                                                                                                                                                                                                                                                                                                                                                                                                                                                                                                                                                                                                                        Z
L57925500360955-004-006       BI1702130939181ICNASHETA GROEP                                                                                                                                                                                                                                                                                                                                                                                                                                                                                                                                                                                                                                                                                                                                                                                                                                                                                                                                                                                        Z
L57925500360955-005-006       BI1702130937131ICNASHETA GROEP                                                                                                                                                                                                                                                                                                                                                                                                                                                                                                                                                                                                                                                                                                                                                                                                                                                                                                                                                                                        Z
L57925500360955-006-006       BI1702130942181ICNASHETA GROEP                                                                                                                                                                                                                                                                                                                                                                                                                                                                                                                                                                                                                                                                                                                                                                                                                                                                                                                                                                                        Z
L58194300359066-001-009       BI1702130938191ICNASHETA GROEP                                                                                                                                                                                                                                                                                                                                                                                                                                                                                                                                                                                                                                                                                                                                                                                                                                                                                                                                                                                        Z
L58194300359066-002-009       BI1702130934261ICNASHETA GROEP                                                                                                                                                                                                                                                                                                                                                                                                                                                                                                                                                                                                                                                                                                                                                                                                                                                                                                                                                                                        Z
L58194300359066-003-009       BI1702130935041ICNASHETA GROEP                                                                                                                                                                                                                                                                                                                                                                                                                                                                                                                                                                                                                                                                                                                                                                                                                                                                                                                                                                                        Z
L58194300359066-004-009       BI1702130929261ICNASHETA GROEP                                                                                                                                                                                                                                                                                                                                                                                                                                                                                                                                                                                                                                                                                                                                                                                                                                                                                                                                                                                        Z
L58194300359066-005-009       BI1702130934021ICNASHETA GROEP                                                                                                                                                                                                                                                                                                                                                                                                                                                                                                                                                                                                                                                                                                                                                                                                                                                                                                                                                                                        Z
L58194300359066-006-009       BI1702130938411ICNASHETA GROEP                                                                                                                                                                                                                                                                                                                                                                                                                                                                                                                                                                                                                                                                                                                                                                                                                                                                                                                                                                                        Z
L58194300359066-007-009       BI1702130929411ICNASHETA GROEP                                                                                                                                                                                                                                                                                                                                                                                                                                                                                                                                                                                                                                                                                                                                                                                                                                                                                                                                                                                        Z
L58194300359066-008-009       BI1702130933401ICNASHETA GROEP                                                                                                                                                                                                                                                                                                                                                                                                                                                                                                                                                                                                                                                                                                                                                                                                                                                                                                                                                                                        Z
L58194300359066-009-009       BI1702130934471ICNASHETA GROEP                                                                                                                                                                                                                                                                                                                                                                                                                                                                                                                                                                                                                                                                                                                                                                                                                                                                                                                                                                                        Z
L58201700358919-001-001       BI1702130927571ICNASHETA GROEP                                                                                                                                                                                                                                                                                                                                                                                                                                                                                                                                                                                                                                                                                                                                                                                                                                                                                                                                                                                        Z
L58359800358342-001-001       BI1702130928331ICNASHETA GROEP                                                                                                                                                                                                                                                                                                                                                                                                                                                                                                                                                                                                                                                                                                                                                                                                                                                                                                                                                                                        Z
L58362500360316-001-001       BI1702130927061ICNASHETA GROEP                                                                                                                                                                                                                                                                                                                                                                                                                                                                                                                                                                                                                                                                                                                                                                                                                                                                                                                                                                                        Z
F093711496-058484         1701181133370000111ICSLAVE 4
F093712496-058484         1701181108130000081ICSLAVE 4
F094046496-028120         1701181133490000001ICSLAVE 4
F094739079-000195         1702071536020000081ICSLAVE 4
F094740497-064702         1702071536080000011ICSLAVE 4
F094835077-000298         1702130920190000041ICSLAVE 4
T094861490-048257                                          1702130921010000001ICSLAVE 4
V5421300000048257                                                 0000000000000001702130000001ICSLAVE 4     170213123715358061N              04
V5423680000048257                                                 0000000000000001702130000001ICSLAVE 4     170213114742360508N              03
V5576940000048257                                                 0000000000000001702130000001ICSLAVE 4     170213114806357234N              01
V5602230000048257                                                 0000000000000001702130000001ICSLAVE 4     170213114754357999N              01
V5625500000048257                                                 0000000000000001702130000001ICSLAVE 4     170213130319357522N              01
V5648380000048257                                                 0000000000000001702130000001ICSLAVE 4     170213123655355786N              01
V5662890000048257                                                 0000000000000001702130000001ICSLAVE 4     170213133231356065N              01
V5690950000048257                                                 0000000000000001702130000001ICSLAVE 4     170213123742357546N              02
V5719800000048257                                                 0000000000000001702130000001ICSLAVE 4     170213114847359648N              03
V5731390000048257                                                 0000000000000001702130000001ICSLAVE 4     170213114707355377N              02
V5731740000048257                                                 0000000000000001702130000001ICSLAVE 4     170213114900358278N              01
V5792550000048257                                                 0000000000000001702130000001ICSLAVE 4     170213114830360955Y              06
V5819430000048257                                                 0000000000000001702130000001ICSLAVE 4     170213114724359066N              09
V5820170000048257                                                 0000000000000001702130000001ICSLAVE 4     170213123704358919N              01
V5835980000048257                                                 0000000000000001702130000001ICSLAVE 4     170213123732358342N              01
V5836250000048257                                                 0000000000000001702130000001ICSLAVE 4     170213130308360316N              01
X BI Slave 4 First invoice 401183 170213 Last invoice 401184 170213 Next invoice 401185 Total number of records 000000122 clbackup completed 19:20:45
