103689000103689               103689               170213BK     1400+00000+BK0000000437+0000000437+000000000+000000062+0000000490+0000000009+I20000000000+0000000490+Z
103689001103689080-000133-A   103689006003000647019MINI VALENTINES CARD   0000001000+00000437+00000+0001T   00000437+0000000922          1400 FM7112               1AZ
103690000103690               103690               170213BK     1400+00000+BK0000001753+0000001753+000000000+000000246+0000001990+0000000009+I20000000000+0000001990+Z
103690001103690200-003024     103690006001023657299REFUSE BAGS 20PCE BLACK0000001000+00001753+00000+0001T   00001753+0000000923          1400 FM7214               1AZ
103691000103691               103691               170213BK     1400+00000+BK0000007188+0000007188+000000000+000001008+0000008196+0000000000+I40000008196+0000000000+Z
103691001103691089-060027     103691006003000245871KEY-CHAIN HEART 6X6cm  0000002000+00003069+00000+0001T   00003069+0000000937          1400 FM7205               1AZ
103691002103691903-000155     103691006009803374435SWT LOLLY I LUV U HEART0000002000+00000525+00000+0001T   00000525+0000000937          1400 FM7150               1AZ
103692000103692               103692               170213BK     1400+00000+BK0000011398+0000011398+000000000+000001598+0000012990+0000000006+I20000000000+0000012990+Z
103692001103692089-000028     103692006003000622252K/CHAIN MTL RELIGIOUS  0000002000+00001753+00000+0001T   00001753+0000000939          1400 FM7205               1AZ
103692002103692027-785000     103692006003000630905CLEANING WIPES 40-PACK 0000001000+00002630+00000+0001T   00002630+0000000939          1400 FM7212               1AZ
103692003103692105-007805     103692006002923018920STORAGE BOX CLEAR 9.5L 0000001000+00005262+00000+0001T   00005262+0000000939          1400 FM7210               1AZ
103693000103693               103693               170213BK     1400+00000+BK0000002190+0000002190+000000000+000000308+0000002490+0000000008+I20000000000+0000002490+Z
103693001103693079-003000     103693006003000448838A/TUBE 75ML WHITE      0000001000+00001753+00000+0001T   00001753+0000000945          1400 FM7130               1AZ
103693002103693071-000212     103693006003000445318CHALK WHITE 12PCE      0000001000+00000437+00000+0001T   00000437+0000000945          1400 FM7130               1AZ
103694000103694               103694               170213BK     1400+00000+BK0000004120+0000004120+000000000+000000577+0000004697+0000000000+I40000004697+0000000000+Z
103694001103694018-005009     103694006001023725608MUG W/PLUSH-BEAR LOVE  0000001000+00003507+00000+0001T   00003507+0000000951          1400 FM7515               1AZ
103694002103694304-001011     103694006001023806727FLWR ROSE RED W/BEAR   0000001000+00000613+00000+0001T   00000788+0006470951          1400 FM7510               1AZ
103695000103695               103695               170213BK     1400+00000+BK0000001314+0000001314+000000000+000000184+0000001490+0000000008+I20000000000+0000001490+Z
103695001103695046-000012     103695006904708013062BATTERIES AA  CARD-OF-40000001000+00001314+00000+0001T   00001314+0000001007          1400 FM7312               1AZ
103696000103696               103696               170213BK     1400+00000+BK0000006611+0000006611+000000000+000000926+0000007530+0000000007+I20000000000+0000007530+Z
103696001103696112-116038     103696006009681820246TCS CARRIER BAG MIDI   0000001000+00000035+00000+0001T   00000035+0000001008          1400 FM7090               1AZ
103696002103696567-014135     103696006003000560264BOOK COLOURING 240P    0000001000+00003069+00000+0001T   00003507+0008191008          1400 FM7757               1AZ
103696003103696082-098775     103696006001492987750SUNGLASS KIDS GIRLS    0000001000+00003507+00000+0001T   00003507+0000001008          1400 FM7160               1AZ
103697000103697               103697               170213BK     1400+00000+BK0000007750+0000007750+000000000+000001086+0000008830+0000000006+I20000000000+0000008830+Z
103697001103697089-000030     103697006003000575671K/CHAIN LOVE MTL ASSTD 0000001000+00001753+00000+0001T   00001753+0000001018          1400 FM7205               1AZ
103697002103697018-000177     103697006001023797513MUG MINI LOVE ASSTD    0000001000+00000700+00000+0001T   00000700+0000001018          1400 FM7515               1AZ
103697003103697018-019000     103697006003000557288MUG OCC. LOVE JUMBO    0000001000+00005262+00000+0001T   00005262+0000001018          1400 FM7515               1AZ
103697004103697112-116038     103697006009681820246TCS CARRIER BAG MIDI   0000001000+00000035+00000+0001T   00000035+0000001018          1400 FM7090               1AZ
103698000103698               103698               170213BK     1400+00000+BK0000002192+0000002192+000000000+000000307+0000002490+0000000009+I20000000000+0000002490+Z
103698001103698028-085274     103698006001023641571BBQ LIGHTER         H&L0000001000+00002192+00000+0001T   00002192+0000001020          1400 FM7305               1AZ
103699000103699               103699               170213BK     1400+00000+BK0000002540+0000002540+000000000+000000356+0000002890+0000000006+I20000000000+0000002890+Z
103699001103699903-000849     103699008692806080083SWT SNACK BISCUIT 70g  0000001000+00000613+00000+0001T   00000613+0000001021          1400 FM7150               1AZ
103699002103699903-000848     103699008692806080076SWT SNACK BISCUIT 70g  0000001000+00000613+00000+0001T   00000613+0000001021          1400 FM7150               1AZ
103699003103699563-000317-B   103699006001023776174SERVIETTES PLN WHT PK400000001000+00001314+00000+0001T   00001314+0000001021          1400 FM7214               1AZ
103700000103700               103700               170213BK     1400+00000+BK0000034324+0000034324+000000000+000004814+0000039130+0000000008+I20000000000+0000039130+Z
103700001103700112-116069     103700006009681820277TCS CARRIER BAG JUMBO  0000001000+00000048+00000+0001T   00000048+0000001026          1400 FM7090               1AZ
103700002103700006-000220-B   103700006001023890870PARTY TABLE-CLOTH BOY  0000002000+00002630+00000+0001T   00002630+0000001026          1400 FM7131               1AZ
103700003103700079-000286     103700006001023797032FINGER-PAINT 4PCE      0000001000+00003507+00000+0001T   00003507+0000001026          1400 FM7130               1AZ
103700004103700080-000139     103700006003000611690CARD & ENV MINI SET 6PC0000001000+00002192+00000+0001T   00002192+0000001026          1400 FM7112               1AZ
103700005103700079-006495     103700006003000159987GLITTER SHAKERS 6PK    0000001000+00002630+00000+0001T   00002630+0000001026          1400 FM7130               1AZ
103700006103700019-071594     103700006003000505579PEBBLES GLS 250g RED   0000002000+00002630+00000+0001T   00002630+0000001026          1400 FM7510               1AZ
103700007103700563-000318-L   103700006003000407088SERVIETTES 33cm RED    0000002000+00002192+00000+0001T   00002192+0000001026          1400 FM7214               1AZ
103700008103700903-000155     103700006009803374435SWT LOLLY I LUV U HEART0000006000+00000525+00000+0001T   00000525+0000001026          1400 FM7150               1AZ
103700009103700368-000024     103700006003000672387PLUSH ANIMAL 32cm ASSTD0000001000+00007893+00000+0001T   00007893+0000001026          1400 FM7745               1AZ
103701000103701               103701               170213BK     1400+00000+BK0000001788+0000001788+000000000+000000251+0000002030+0000000009+I20000000000+0000002030+Z
103701001103701034-000318     103701006001023685834BABY-SOOTHER SILCON 2PC0000001000+00001753+00000+0001T   00001753+0000001038          1400 FM7215               1AZ
103701002103701112-116038     103701006009681820246TCS CARRIER BAG MIDI   0000001000+00000035+00000+0001T   00000035+0000001038          1400 FM7090               1AZ
103702000103702               103702               170213BK     1400+00000+BK0000002630+0000002630+000000000+000000369+0000002990+0000000009+I20000000000+0000002990+Z
103702001103702027-009025     103702006003962000747DUSTPAN-SET PL         0000001000+00002630+00000+0001T   00002630+0000001044          1400 FM7212               1AZ
103703000103703               103703               170213BK     1400+00000+BK0000009254+0000009254+000000000+000001297+0000010551+0000000000+I40000010551+0000000000+Z
103703001103703562-088355-A   103703006001023873262EVA MAT NUMBERS 10PC   0000001000+00007016+00000+0001T   00007016+0000001051          1400 FM7755               1AZ
103703002103703065-003699     103703006001023690883FLUTE RECORDER PL      0000001000+00001490+00000+0001T   00001490+0000001051          1400 FM7745               1AZ
103703003103703564-000012     103703006001023130075BUBBLE BOTTLE MAGIC    0000001000+00000700+00000+0001T   00000700+0000001051          1400 FM7131               1AZ
103703004103703112-116069     103703006009681820277TCS CARRIER BAG JUMBO  0000001000+00000048+00000+0001T   00000048+0000001051          1400 FM7090               1AZ
103704000103704               103704               170213BK     1400+00000+BK0000000437+0000000437+000000000+000000062+0000000490+0000000009+I20000000000+0000000490+Z
103704001103704071-000212     103704006009608641190CHALK WHITE 12PCE      0000001000+00000437+00000+0001T   00000437+0000001052          1400 FM7130               1AZ
103705000103705               103705               170213BK     1400+00000+BK0000002192+0000002192+000000000+000000307+0000002490+0000000009+I20000000000+0000002490+Z
103705001103705032-000336     103705006001023369109MIRROR HANGING MAGNETIC0000001000+00002192+00000+0001T   00002192+0000001058          1400 FM7510               1AZ
103706000103706               103706               170213BK     1400+00000+BK0000001753+0000001753+000000000+000000246+0000001990+0000000009+I20000000000+0000001990+Z
103706001103706038-092232     103706006001023625830TABLE-MAT N/SLIP 32x55 0000001000+00001753+00000+0001T   00001753+0000001059          1400 FM7300               1AZ
103707000103707               103707               170213BK     1400+00000+BK0000007014+0000007014+000000000+000000982+0000007990+0000000006+I20000000000+0000007990+Z
103707001103707039-080942     103707006001023669872C/PILLAR RND WHT 10X7CM0000002000+00003507+00000+0001T   00003507+0000001059          1400 FM7510               1AZ
103708000103708               103708               170213BK     1400+00000+BK0000002192+0000002192+000000000+000000307+0000002490+0000000009+I20000000000+0000002490+Z
103708001103708046-000012-A   103708006003000208296BATTERIES H/POWER SZ:AA0000001000+00002192+00000+0001T   00002192+0000001132          1400 FM7312               1AZ
103709000103709               103709               170213BK     1400+00000+BK0000006867+0000006867+000000000+000000964+0000007830+0000000001+I20000000000+0000007830+Z
103709001103709002-021057     103709006001023812032T/PICKS UMBRELLAS 10PCE0000005000+00000876+00000+0001T   00000876+0000001137          1400 FM7300               1AZ
103709002103709200-000065     103709006001023323675DRINKING-STRAWS 38PCE  0000004000+00000613+00000+0001T   00000613+0000001137          1400 FM7214               1AZ
103709003103709112-116038     103709006009681820246TCS CARRIER BAG MIDI   0000001000+00000035+00000+0001T   00000035+0000001137          1400 FM7090               1AZ
103710000103710               103710               170213BK     1400+00000+BK0000002192+0000002192+000000000+000000307+0000002490+0000000009+I20000000000+0000002490+Z
103710001103710140-002197     103710006009801166001VIBRANT INSECT-CHALK 2P0000001000+00002192+00000+0001T   00002192+0000001144          1400 FM7830               1AZ
103711000103711               103711               170213BK     1400+00000+BK0000003944+0000003944+000000000+000000553+0000004490+0000000007+I20000000000+0000004490+Z
103711001103711002-000016     103711006001023760173CAPPUCCINO-FROTHER B/O 0000001000+00002630+00000+0001T   00002630+0000001145          1400 FM7300               1AZ
103711002103711046-000012     103711006904708013062BATTERIES AA  CARD-OF-40000001000+00001314+00000+0001T   00001314+0000001145          1400 FM7312               1AZ
103712000103712               103712               170213BK     1400+00000+BK0000001139+0000001139+000000000+000000160+0000001290+0000000009+I20000000000+0000001290+Z
103712001103712466-000517     103712006001023752017BALL TENNIS RED CRICKET0000001000+00001139+00000+0001T   00001139+0000001147          1400 FM7785               1AZ
103713000103713               103713               170213BK     1400+00000+BK0000007048+0000007048+000000000+000000988+0000008036+0000000000+I40000008036+0000000000+Z
103713001103713368-000049     103713006003000536955PLUSH BEAR 15cm LOVE   0000001000+00004385+00000+0001T   00004385+0000001151          1400 FM7745               1AZ
103713002103713080-000124     103713006003000297733CARD & ENV VALENTINES  0000001000+00001578+00000+0001T   00001578+0000001151          1400 FM7112               1AZ
103713003103713112-116038     103713006009681820246TCS CARRIER BAG MIDI   0000001000+00000035+00000+0001T   00000035+0000001151          1400 FM7090               1AZ
103713004103713903-000155     103713006009803374435SWT LOLLY I LUV U HEART0000002000+00000525+00000+0001T   00000525+0000001151          1400 FM7150               1AZ
103714000103714               103714               170213BK     1400+00000+BK0000003069+0000003069+000000000+000000430+0000003490+0000000009+I20000000000+0000003490+Z
103714001103714034-079048     103714006001023899255SPOONS 2PCE THERMO     0000001000+00003069+00000+0001T   00003069+0000001155          1400 FM7215               1AZ
103715000103715               103715               170213BK     1400+00000+BK0000003506+0000003506+000000000+000000492+0000003990+0000000008+I20000000000+0000003990+Z
103715001103715159-002369     103715006001023999191TOOTHBRUSH HOLDER PL 3 0000001000+00002630+00000+0001T   00002630+0000001156          1400 FM7200               1AZ
103715002103715108-001225     103715006003000010240SALAD BOWL MINI 380ML  0000001000+00000876+00000+0001T   00000876+0000001156          1400 FM7210               1AZ
103716000103716               103716               170213BK     1400+00000+BK0000007014+0000007014+000000000+000000982+0000007996+0000000000+I40000007996+0000000000+Z
103716001103716018-005009     103716006001023725608MUG W/PLUSH-BEAR LOVE  0000002000+00003507+00000+0001T   00003507+0000001202          1400 FM7515               1AZ
103717000103717               103717               170213BK     1400+00000+BK0000008552+0000008552+000000000+000001199+0000009750+0000000001+I20000000000+0000009750+Z
103717001103717024-000097     103717006001023770035MEASURING-SET 11PCE WHT0000001000+00002192+00000+0001T   00002192+0000001207          1400 FM7300               1AZ
103717002103717072-020352     103717006003000561667DOG/CAT BOWL PL 19cm   0000001000+00003069+00000+0001T   00003069+0000001207          1400 FM7870               1AZ
103717003103717024-000071     103717006001023415653E/WHISK S/S & SILICONE 0000001000+00002630+00000+0001T   00002630+0000001207          1400 FM7300               1AZ
103717004103717200-000065     103717006001023323675DRINKING-STRAWS 38PCE  0000001000+00000613+00000+0001T   00000613+0000001207          1400 FM7214               1AZ
103717005103717112-116069     103717006009681820277TCS CARRIER BAG JUMBO  0000001000+00000048+00000+0001T   00000048+0000001207          1400 FM7090               1AZ
103718000103718               103718               170213BK     1400+00000+BK0000006139+0000006139+000000000+000000860+0000006999+0000000000+I40000006999+0000000000+Z
103718001103718072-000423     103718006001023606143DOG-LEAD 5m RETRACTABLE0000001000+00006139+00000+0001T   00006139+0000001215          1400 FM7870               1AZ
103719000103719               103719               170213BK     1400+00000+BK0000005260+0000005260+000000000+000000738+0000005990+0000000008+I20000000000+0000005990+Z
103719001103719108-003021     103719006003000343911MUG SUPER SIPPER 450ml 0000002000+00002630+00000+0001T   00002630+0000001218          1400 FM7210               1AZ
103720000103720               103720               170213BK     1400+00000+BK0000002192+0000002192+000000000+000000307+0000002490+0000000009+I20000000000+0000002490+Z
103720001103720251-000002     103720006003000093991TAPE D-SIDED 24x1000mm 0000001000+00002192+00000+0001T   00002192+0000001219          1400 FM7810               1AZ
103721000103721               103721               170213BK     1400+00000+BK0000003243+0000003243+000000000+000000455+0000003690+0000000008+I20000000000+0000003690+Z
103721001103721077-000327     103721006001023677686GIFT-BAG 25X32CM E/D BA0000001000+00001490+00000+0001T   00001490+0000001222          1400 FM7112               1AZ
103721002103721080-000107     103721006003000237081CARD&ENVELPE BDAY BOY  0000001000+00001753+00000+0001T   00001753+0000001222          1400 FM7112               1AZ
103722000103722               103722               170213BK     1400+00000+BK0000000876+0000000876+000000000+000000123+0000000990+0000000009+I20000000000+0000000990+Z
103722001103722071-003004     103722006003000662821PEN BALL POINT 3PC BLUE0000001000+00000876+00000+0001T   00000876+0000001223          1400 FM7130               1AZ
103723000103723               103723               170213BK     1400+00000+BK0000006598+0000006598+000000000+000000931+0000007529+0000000000+I40000007529+0000000000+Z
103723001103723903-000521     103723006001704009652SWT GUMMY SOFT GUMS    0000001000+00000876+00000+0001T   00000876+0000001225          1400 FM7150               1AZ
103723002103723903-000011     103723006002099007315SWT MALLOW CHOC 15G    0000001000+00000437+00000+0001T   00000437+0000001225          1400 FM7150               1AZ
103723003103723903-000844     103723005010478432567SWT CANDY DL LUV HEARTS0000001000+00001314+00000+0001T   00001314+0000001225          1400 FM7150               1AZ
103723004103723903-000183     103723006003000451043SWT LB HEART LOLLY     0000006000+00000393+00000+0001T   00000393+0000001225          1400 FM7150               1AZ
103723005103723077-000315     103723006003000181186GIFT-BAG 20x28cm MATT  0000001000+00001578+00000+0001T   00001578+0000001225          1400 FM7112               1AZ
103723006103723112-116038     103723006009681820246TCS CARRIER BAG MIDI   0000001000+00000035+00000+0001T   00000035+0000001225          1400 FM7090               1AZ
103724000103724               103724               170213BK     1400+00000+BK0000002630+0000002630+000000000+000000369+0000002990+0000000009+I20000000000+0000002990+Z
103724001103724051-600655     103724006003000422067PLANTER W/TRAY 20x20x160000001000+00002630+00000+0001T   00002630+0000001228          1400 FM7820               1AZ
103725000103725               103725               170213BK     1400+00000+BK0000010995+0000010995+000000000+000001541+0000012530+0000000006+I20000000000+0000012530+Z
103725001103725046-000012-A   103725006003000208296BATTERIES H/POWER SZ:AA0000001000+00002192+00000+0001T   00002192+0000001230          1400 FM7312               1AZ
103725002103725088-000052     103725006001023760401T/FRESHENER CISTERN BLK0000002000+00000876+00000+0001T   00000876+0000001230          1400 FM7212               1AZ
103725003103725002-000880     103725006001023769497CAN-OPENER WHITE       0000001000+00007016+00000+0001T   00007016+0000001230          1400 FM7300               1AZ
103725004103725112-116038     103725006009681820246TCS CARRIER BAG MIDI   0000001000+00000035+00000+0001T   00000035+0000001230          1400 FM7090               1AZ
103726000103726               103726               170213BK     1400+00000+BK0000005699+0000005699+000000000+000000798+0000006490+0000000007+I20000000000+0000006490+Z
103726001103726006-000190     103726006003000685530BALLOONS LOVE 81x91cm  0000001000+00004385+00000+0001T   00004385+0000001233          1400 FM7131               1AZ
103726002103726903-000194     103726006009826020616SWT CHOC RP LOLLY 25G  0000001000+00001314+00000+0001T   00001314+0000001233          1400 FM7150               1AZ
103727000103727               103727               170213BK     1400+00000+BK0000003507+0000003507+000000000+000000491+0000003990+0000000008+I20000000000+0000003990+Z
103727001103727018-005009     103727006001023725608MUG W/PLUSH-BEAR LOVE  0000001000+00003507+00000+0001T   00003507+0000001238          1400 FM7515               1AZ
103728000103728               103728               170213BK     1400+00000+BK0000001314+0000001314+000000000+000000184+0000001490+0000000008+I20000000000+0000001490+Z
103728001103728077-000407     103728006003000145096G/BAG PP 19X26X8CM     0000001000+00001314+00000+0001T   00001314+0000001239          1400 FM7112               1AZ
103729000103729               103729               170213BK     1400+00000+BK0000007629+0000007629+000000000+000001069+0000008698+0000000000+I40000008698+0000000000+Z
103729001103729077-000299     103729006003000395576G/BAG 32x25cm LRG LOVE 0000001000+00001490+00000+0001T   00001490+0000001241          1400 FM7112               1AZ
103729002103729018-050000     103729006003000412679MUG OCC LOVE TWIN BEAR 0000001000+00006139+00000+0001T   00006139+0000001241          1400 FM7515               1AZ
103730000103730               103730               170213BK     1400+00000+BK0000001578+0000001578+000000000+000000221+0000001790+0000000009+I20000000000+0000001790+Z
103730001103730080-000124     103730006003000297733CARD & ENV VALENTINES  0000001000+00001578+00000+0001T   00001578+0000001242          1400 FM7112               1AZ
103731000103731               103731               170213BK     1400+00000+BK0000000876+0000000876+000000000+000000123+0000000990+0000000009+I20000000000+0000000990+Z
103731001103731077-000151     103731006008766114676GIFT-WRAP C/PHANE ASSTD0000001000+00000876+00000+0001T   00000876+0000001243          1400 FM7112               1AZ
103732000103732               103732               170213BK     1400+00000+BK0000021048+0000021048+000000000+000002948+0000023990+0000000006+I20000000000+0000023990+Z
103732001103732028-000401     103732006001023120632PLATE-HOLDERS 4PCE  H&L0000004000+00005262+00000+0001T   00005262+0000001245          1400 FM7305               1AZ
103733000103733               103733               170213BK     1400+00000+BK0000002630+0000002630+000000000+000000369+0000002990+0000000009+I20000000000+0000002990+Z
103733001103733050-000364-Z   103733006001023777133PADLOCK IRON 38mm CARD 0000001000+00002630+00000+0001T   00002630+0000001247          1400 FM7855               1AZ
103734000103734               103734               170213BK     1400+00000+BK0000008805+0000008805+000000000+000001233+0000010030+0000000008+I20000000000+0000010030+Z
103734001103734018-030000     103734006003000421060MUG OCCASIONS LOVE 2PCE0000001000+00004385+00000+0001T   00004385+0000001250          1400 FM7515               1AZ
103734002103734112-116038     103734006009681820246TCS CARRIER BAG MIDI   0000001000+00000035+00000+0001T   00000035+0000001250          1400 FM7090               1AZ
103734003103734368-000049     103734006003000536955PLUSH BEAR 15cm LOVE   0000001000+00004385+00000+0001T   00004385+0000001250          1400 FM7745               1AZ
103735000103735               103735               170213BK     1400+00000+BK0000000613+0000000613+000000000+000000086+0000000690+0000000009+I20000000000+0000000690+Z
103735001103735304-001011     103735006001023806727FLWR ROSE RED W/BEAR   0000001000+00000613+00000+0001T   00000788+0006471253          1400 FM7510               1AZ
103736000103736               103736               170213BK     1400+00000+BK0000000525+0000000525+000000000+000000074+0000000590+0000000009+I20000000000+0000000590+Z
103736001103736903-000155     103736006009803374435SWT LOLLY I LUV U HEART0000001000+00000525+00000+0001T   00000525+0000001253          1400 FM7150               1AZ
103737000103737               103737               170213BK     1400+00000+BK0000015787+0000015787+000000000+000002211+0000017998+0000000000+I40000017998+0000000000+Z
103737001103737031-000866-B   103737006001023798473P/FRAME WDN S/BOAT     0000001000+00007016+00000+0001T   00007016+0000001303          1400 FM7510               1AZ
103737002103737039-000799     103737006001023692382CANDLES TEALITE 100PCE 0000001000+00008771+00000+0001T   00008771+0000001303          1400 FM7510               1AZ
103738000103738               103738               170213BK     1400+00000+BK0000007893+0000007893+000000000+000001106+0000008999+0000000000+I40000008999+0000000000+Z
103738001103738264-000933     103738000090159211037MAISTO CAR 1:33 SMART  0000001000+00007893+00000+0001T   00007893+0000001308          1400 FM7710               1AZ
103739000103739               103739               170213BK     1400+00000+BK0000002630+0000002630+000000000+000000369+0000002990+0000000009+I20000000000+0000002990+Z
103739001103739072-020274     103739006001023858443LITTER-LINERS-BAGS 10PC0000001000+00002630+00000+0001T   00002630+0000001308          1400 FM7870               1AZ
103740000103740               103740               170213BK     1400+00000+BK0000003594+0000003594+000000000+000000504+0000004090+0000000008+I20000000000+0000004090+Z
103740001103740565-000071     103740006003000643387NOVELTY WIND UP CHATTER0000001000+00001139+00000+0001T   00001139+0000001315          1400 FM7745               1AZ
103740002103740565-000255     103740006003000585168NOVELTY GLOW SLIME     0000001000+00002455+00000+0001T   00002455+0000001315          1400 FM7745               1AZ
103741000103741               103741               170213BK     1400+00000+BK0000000700+0000000700+000000000+000000098+0000000790+0000000008+I20000000000+0000000790+Z
103741001103741564-000012     103741006001023130075BUBBLE BOTTLE MAGIC    0000001000+00000700+00000+0001T   00000700+0000001315          1400 FM7131               1AZ
103742000103742               103742               170213BK     1400+00000+BK0000017401+0000017401+000000000+000002437+0000019830+0000000008+I20000000000+0000019830+Z
103742001103742002-250030     103742006003000268641K/SCALE DIGITAL 5kg    0000001000+00015788+00000+0001T   00015788+0000001316          1400 FM7300               1AZ
103742002103742077-000303     103742006001023593757GIFT-BAG PAPER MED     0000001000+00001578+00000+0001T   00001578+0000001316          1400 FM7112               1AZ
103742003103742112-116038     103742006009681820246TCS CARRIER BAG MIDI   0000001000+00000035+00000+0001T   00000035+0000001316          1400 FM7090               1AZ
103743000103743               103743               170213BK     1400+00000+BK0000001578+0000001578+000000000+000000221+0000001790+0000000009+I20000000000+0000001790+Z
103743001103743018-000127     103743006001023380289MUG OCC STRAIGHT LOVE  0000001000+00001578+00000+0001T   00001753+0006471319          1400 FM7515               1AZ
103744000103744               103744               170213BK     1400+00000+BK0000003507+0000003507+000000000+000000491+0000003990+0000000008+I20000000000+0000003990+Z
103744001103744031-005923     103744006003000040322P/FRAME CERT PL 21x29.70000001000+00003507+00000+0001T   00003507+0000001321          1400 FM7510               1AZ
103745000103745               103745               170213BK     1400+00000+BK0000001578+0000001578+000000000+000000221+0000001790+0000000009+I20000000000+0000001790+Z
103745001103745018-000127     103745006001023380289MUG OCC STRAIGHT LOVE  0000001000+00001578+00000+0001T   00001753+0006471336          1400 FM7515               1AZ
103746000103746               103746               170213BK     1400+00000+BK0000036329+0000036329+000000000+000005098+0000041427+0000000000+I40000041427+0000000000+Z
103746001103746112-116069     103746006009681820277TCS CARRIER BAG JUMBO  0000001000+00000048+00000+0001T   00000048+0000001340          1400 FM7090               1AZ
103746002103746903-003080     103746005907029004673SWT SNACK STIX CHOC 50g0000003000+00000876+00000+0001T   00000876+0000001340          1400 FM7150               1AZ
103746003103746903-000926     103746006914204004556SWT NOVELTY ST N/LACE  0000003000+00001753+00000+0001T   00001753+0000001340          1400 FM7150               1AZ
103746004103746071-005214     103746006003000152544CELLOTAPE SUPER REFILL 0000001000+00001490+00000+0001T   00001490+0000001340          1400 FM7130               1AZ
103746005103746903-000155     103746006009803374435SWT LOLLY I LUV U HEART0000003000+00000525+00000+0001T   00000525+0000001340          1400 FM7150               1AZ
103746006103746903-000090     103746006009826020821SWT GS CHOCO COINS 60g 0000004000+00002104+00000+0001T   00002104+0000001340          1400 FM7150               1AZ
103746007103746903-003051     103746008024431008703SWT CHOCO PARTY 25G    0000004000+00000876+00000+0001T   00000876+0000001340          1400 FM7150               1AZ
103746008103746077-000314     103746006003000181148GIFT-BAG 11X14CM MATT  0000003000+00000876+00000+0001T   00000876+0000001340          1400 FM7112               1AZ
103746009103746077-000302     103746008010410010195GIFT-BAG 18X23CM E/D   0000003000+00000876+00000+0001T   00000876+0000001340          1400 FM7112               1AZ
103746010103746077-000315     103746006003000181186GIFT-BAG 20x28cm MATT  0000001000+00001578+00000+0001T   00001578+0000001340          1400 FM7112               1AZ
103746011103746140-001007     103746006001023617163FLY-STICK STAND 260x36 0000001000+00003069+00000+0001T   00003069+0000001340          1400 FM7830               1AZ
103746012103746077-000115     103746006001023834225WRAP METALLIC 700mmx1m 0000002000+00001753+00000+0001T   00001753+0000001340          1400 FM7112               1AZ
103747000103747               103747               170213BK     1400+00000+BK0000006137+0000006137+000000000+000000860+0000006990+0000000007+I20000000000+0000006990+Z
103747001103747562-000187     103747006001023628879EDU PLAYMAT 84cm ASSTD 0000001000+00000876+00000+0001T   00001314+0008141340          1400 FM7755               1AZ
103747002103747368-000049     103747006003000536955PLUSH BEAR 15cm LOVE   0000001000+00004385+00000+0001T   00004385+0000001340          1400 FM7745               1AZ
103747003103747562-000187     103747006001023628879EDU PLAYMAT 84cm ASSTD 0000001000+00000876+00000+0001T   00001314+0008141340          1400 FM7755               1AZ
103748000103748               103748               170213BK     1400+00000+BK0000002366+0000002366+000000000+000000332+0000002698+0000000000+I40000002698+0000000000+Z
103748001103748077-000299     103748006003000395576G/BAG 32x25cm LRG LOVE 0000001000+00001490+00000+0001T   00001490+0000001342          1400 FM7112               1AZ
103748002103748077-000011-D   103748006001023808554TISSUE-WRAP WHITE 10PCE0000001000+00000876+00000+0001T   00000876+0000001342          1400 FM7112               1AZ
103749000103749               103749               170213BK     1400+00000+BK0000005875+0000005875+000000000+000000823+0000006690+0000000008+I20000000000+0000006690+Z
103749001103749159-003625     103749006001023902061TOILET-BRUSH W/STD 40cm0000001000+00005262+00000+0001T   00005262+0000001343          1400 FM7200               1AZ
103749002103749903-000848     103749008692806080076SWT SNACK BISCUIT 70g  0000001000+00000613+00000+0001T   00000613+0000001343          1400 FM7150               1AZ
103750000103750               103750               170213BK     1400+00000+BK0000008552+0000008552+000000000+000001199+0000009751+0000000000+I40000009751+0000000000+Z
103750001103750001-000175     103750006001023788108B/MUG GLS LOVE 380ML   0000001000+00004385+00000+0001T   00004385+0000001345          1400 FM7515               1AZ
103750002103750159-000636     103750006003000036035BATH PUMICE,BRUSH,FILE 0000001000+00001753+00000+0001T   00001753+0000001345          1400 FM7200               1AZ
103750003103750033-001364     103750006001023802088HAIR-CLIPS 65mm 24PCE  0000001000+00000876+00000+0001T   00000876+0000001345          1400 FM7200               1AZ
103750004103750077-000299     103750006003000395576G/BAG 32x25cm LRG LOVE 0000001000+00001490+00000+0001T   00001490+0000001345          1400 FM7112               1AZ
103750005103750112-116069     103750006009681820277TCS CARRIER BAG JUMBO  0000001000+00000048+00000+0001T   00000048+0000001345          1400 FM7090               1AZ
103751000103751               103751               170213BK     1400+00000+BK0000012849+0000012849+000000000+000001801+0000014650+0000000000+I40000014650+0000000000+Z
103751001103751077-000289     103751006001023901996GIFT BOX 20x25x11cm    0000001000+00001753+00000+0001T   00001753+0000001347          1400 FM7112               1AZ
103751002103751089-000030     103751006003000575671K/CHAIN LOVE MTL ASSTD 0000001000+00001753+00000+0001T   00001753+0000001347          1400 FM7205               1AZ
103751003103751001-000175     103751006001023788108B/MUG GLS LOVE 380ML   0000001000+00004385+00000+0001T   00004385+0000001347          1400 FM7515               1AZ
103751004103751368-000049     103751006003000536955PLUSH BEAR 15cm LOVE   0000001000+00004385+00000+0001T   00004385+0000001347          1400 FM7745               1AZ
103751005103751112-116069     103751006009681820277TCS CARRIER BAG JUMBO  0000001000+00000048+00000+0001T   00000048+0000001347          1400 FM7090               1AZ
103751006103751903-000155     103751006009803374435SWT LOLLY I LUV U HEART0000001000+00000525+00000+0001T   00000525+0000001347          1400 FM7150               1AZ
103752000103752               103752               170213BK     1400+00000+BK0000002665+0000002665+000000000+000000374+0000003030+0000000009+I20000000000+0000003030+Z
103752001103752560-000202     103752006003000322008SNAKE PVC ASSTD        0000001000+00002630+00000+0001T   00002630+0000001348          1400 FM7745               1AZ
103752002103752112-116038     103752006009681820246TCS CARRIER BAG MIDI   0000001000+00000035+00000+0001T   00000035+0000001348          1400 FM7090               1AZ
103753000103753               103753               170213BK     1400+00000+BK0000025647+0000025647+000000000+000003595+0000029242+0000000000+I40000029242+0000000000+Z
103753001103753112-116069     103753006009681820277TCS CARRIER BAG JUMBO  0000001000+00000048+00000+0001T   00000048+0000001351          1400 FM7090               1AZ
103753002103753018-000136     103753006001023659026MUG OCC LOVE W/PLUSH   0000001000+00003507+00000+0001T   00003507+0000001351          1400 FM7515               1AZ
103753003103753368-000001     103753006003000097982Plush Bear 25cm        0000001000+00004385+00000+0001T   00004385+0000001351          1400 FM7745               1AZ
103753004103753368-000049     103753006003000536955PLUSH BEAR 15cm LOVE   0000001000+00004385+00000+0001T   00004385+0000001351          1400 FM7745               1AZ
103753005103753030-000031-A   103753006003000457588PLAQUE W/WORDS ASSTD   0000001000+00004385+00000+0001T   00004823+0006471351          1400 FM7505               1AZ
103753006103753018-019000     103753006003000557288MUG OCC. LOVE JUMBO    0000001000+00005262+00000+0001T   00005262+0000001351          1400 FM7515               1AZ
103753007103753903-000155     103753006009803374435SWT LOLLY I LUV U HEART0000007000+00000525+00000+0001T   00000525+0000001351          1400 FM7150               1AZ
103754000103754               103754               170213BK     1400+00000+BK0000038972+0000038972+000000000+000005460+0000044432+0000000000+I40000044432+0000000000+Z
103754001103754112-116069     103754006009681820277TCS CARRIER BAG JUMBO  0000001000+00000048+00000+0001T   00000048+0000001358          1400 FM7090               1AZ
103754002103754030-004010     103754006003000394487PLAQUE WDN SIGN 35X28CM0000001000+00013157+00000+0001T   00013157+0000001358          1400 FM7505               1AZ
103754003103754077-000472     103754006003000330133G-BAG DESGNR LRG 25X32 0000001000+00001753+00000+0001T   00001753+0000001358          1400 FM7112               1AZ
103754004103754009-001510     103754006001023737878MELAMINE CHIP&DIP 30cm 0000002000+00003069+00000+0001T   00003069+0000001358          1400 FM7210               1AZ
103754005103754006-000805     103754000013994092418STREAMERS 10-ROLLS     0000001000+00001490+00000+0001T   00001490+0000001358          1400 FM7131               1AZ
103754006103754006-000167-E   103754006003000517213BALLOONS GOLD METALLIC 0000003000+00001314+00000+0001T   00001314+0000001358          1400 FM7131               1AZ
103754007103754006-000166-H   103754006003000608096BALLOONS HELIUM 6PC WHT0000002000+00001314+00000+0001T   00001314+0000001358          1400 FM7131               1AZ
103754008103754006-000166-G   103754006003000607976BALLOONS HELIUM 6PC BLK0000002000+00001314+00000+0001T   00001314+0000001358          1400 FM7131               1AZ
103754009103754002-021064     103754006001023822246TOOTHPICKS IN-HOLDER   0000001000+00001490+00000+0001T   00001490+0000001358          1400 FM7300               1AZ
103754010103754039-000318     103754006003000406159B/DAY CANDLES SMALL NO 0000001000+00001753+00000+0001T   00001753+0000001358          1400 FM7510               1AZ
103754011103754563-000318-J   103754006003000404728SERVIETTES 33cm YELLOW 0000001000+00002192+00000+0001T   00002192+0000001358          1400 FM7214               1AZ
103754012103754563-000317-K   103754006003000697885SERVIETTE 2PLY 33cm    0000001000+00001753+00000+0001T   00001753+0000001358          1400 FM7214               1AZ
103755000103755               103755               170213BK     1400+00000+BK0000008365+0000008365+000000000+000001172+0000009530+0000000007+I20000000000+0000009530+Z
103755001103755077-000463     103755006003000321698G/BAG GLITTER MED20x28 0000001000+00002192+00000+0001T   00002192+0000001436          1400 FM7112               1AZ
103755002103755080-000113     103755006003000237449CARD&ENVLPE - LOVE     0000001000+00001753+00000+0001T   00001753+0000001436          1400 FM7112               1AZ
103755003103755084-010311     103755006001023601926CUTICLE CLIPPERS 12cm  0000001000+00004385+00000+0001T   00004385+0000001436          1400 FM7200               1AZ
103755004103755112-116038     103755006009681820246TCS CARRIER BAG MIDI   0000001000+00000035+00000+0001T   00000035+0000001436          1400 FM7090               1AZ
103756000103756               103756               170213BK     1400+00000+BK0000001753+0000001753+000000000+000000246+0000001990+0000000009+I20000000000+0000001990+Z
103756001103756080-000112     103756006003000252749CARD&ENVLP BDAY-MUSICAL0000001000+00001753+00000+0001T   00001753+0000001437          1400 FM7112               1AZ
103757000103757               103757               170213BK     1400+00000+BK0000023727+0000023727+000000000+000003324+0000027051+0000000000+I40000027051+0000000000+Z
103757001103757112-116069     103757006009681820277TCS CARRIER BAG JUMBO  0000001000+00000048+00000+0001T   00000048+0000001441          1400 FM7090               1AZ
103757002103757562-006275     103757006001023836182EDU BOARD W/MARKER ASST0000001000+00007016+00000+0001T   00007016+0000001441          1400 FM7755               1AZ
103757003103757369-000216     103757006003000610686BABY TOY EDU PLAY/LEARN0000001000+00001753+00000+0001T   00001753+0000001441          1400 FM7745               1AZ
103757004103757065-001009     103757006001023712851XYLOPHONE 23cm         0000001000+00010525+00000+0001T   00010525+0000001441          1400 FM7745               1AZ
103757005103757369-000042     103757006001023993854BABY BEAR RATTLE ASSTD 0000001000+00004385+00000+0001T   00004385+0000001441          1400 FM7745               1AZ
103758000103758               103758               170213BK     1400+00000+BK0000007453+0000007453+000000000+000001044+0000008490+0000000007+I20000000000+0000008490+Z
103758001103758368-000049     103758006003000536955PLUSH BEAR 15cm LOVE   0000001000+00004385+00000+0001T   00004385+0000001442          1400 FM7745               1AZ
103758002103758080-000124     103758006003000297733CARD & ENV VALENTINES  0000001000+00001578+00000+0001T   00001578+0000001442          1400 FM7112               1AZ
103758003103758077-000299     103758006003000395576G/BAG 32x25cm LRG LOVE 0000001000+00001490+00000+0001T   00001490+0000001442          1400 FM7112               1AZ
103759000103759               103759               170213BK     1400+00000+BK0000010210+0000010210+000000000+000001434+0000011644+0000000000+I40000011644+0000000000+Z
103759001103759112-116069     103759006009681820277TCS CARRIER BAG JUMBO  0000001000+00000048+00000+0001T   00000048+0000001444          1400 FM7090               1AZ
103759002103759077-000011-C   103759006001023808523TISSUE 10xSHTS RED     0000001000+00000876+00000+0001T   00000876+0000001444          1400 FM7112               1AZ
103759003103759080-000133-A   103759006003000647019MINI VALENTINES CARD   0000001000+00000437+00000+0001T   00000437+0000001444          1400 FM7112               1AZ
103759004103759080-000133     103759006003000535613CARD&ENV MINI ASTD DSGN0000001000+00000437+00000+0001T   00000437+0000001444          1400 FM7112               1AZ
103759005103759304-001011     103759006001023806727FLWR ROSE RED W/BEAR   0000003000+00000613+00000+0001T   00000788+0006471444          1400 FM7510               1AZ
103759006103759077-000245     103759006001023759214GIFT-RIBBON METALLICx2 0000001000+00001227+00000+0001T   00001227+0000001444          1400 FM7112               1AZ
103759007103759903-000090     103759006009826020821SWT GS CHOCO COINS 60g 0000001000+00002104+00000+0001T   00002104+0000001444          1400 FM7150               1AZ
103759008103759903-000155     103759006009803374435SWT LOLLY I LUV U HEART0000002000+00000525+00000+0001T   00000525+0000001444          1400 FM7150               1AZ
103759009103759018-000170     103759006001023775528MUG OCC. LOVE 2PC MINI 0000001000+00002192+00000+0001T   00002192+0000001444          1400 FM7515               1AZ
103760000103760               103760               170213BK     1400+00000+BK0000009503+0000009503+000000000+000001332+0000010830+0000000005+I20000000000+0000010830+Z
103760001103760077-000303     103760006001023593757GIFT-BAG PAPER MED     0000001000+00001578+00000+0001T   00001578+0000001445          1400 FM7112               1AZ
103760002103760018-000136     103760006001023659026MUG OCC LOVE W/PLUSH   0000001000+00003507+00000+0001T   00003507+0000001445          1400 FM7515               1AZ
103760003103760039-809490     103760006003000292806CANDLE IN-HLD FLOWER   0000001000+00002630+00000+0001T   00003069+0008171445          1400 FM7510               1AZ
103760004103760077-000471     103760006003000330096G-BAG DESGN MED 18X23CM0000001000+00001753+00000+0001T   00001753+0000001445          1400 FM7112               1AZ
103760005103760112-116038     103760006009681820246TCS CARRIER BAG MIDI   0000001000+00000035+00000+0001T   00000035+0000001445          1400 FM7090               1AZ
103761000103761               103761               170213BK     1400+00000+BK0000002192+0000002192+000000000+000000307+0000002490+0000000009+I20000000000+0000002490+Z
103761001103761079-013102     103761006003000019601ART+CRAFT DIY PIPE-CLNR0000001000+00002192+00000+0001T   00002192+0000001447          1400 FM7130               1AZ
103762000103762               103762               170213BK     1400+00000+BK0000004385+0000004385+000000000+000000614+0000004990+0000000009+I20000000000+0000004990+Z
103762001103762361-002000     103762006003000406012DOLL-FURNITURE ASSTD   0000001000+00004385+00000+0001T   00004385+0000001448          1400 FM7725               1AZ
103763000103763               103763               170213BK     1400+00000+BK0000001752+0000001752+000000000+000000246+0000001990+0000000008+I20000000000+0000001990+Z
103763001103763039-000319-7   103763006003000443109B/CANDLES LRG NUMBER-7 0000001000+00000876+00000+0001T   00000876+0000001451          1400 FM7510               1AZ
103763002103763039-000319-3   103763006003000442621B/CANDLES LRG NUMBER-3 0000001000+00000876+00000+0001T   00000876+0000001451          1400 FM7510               1AZ
103764000103764               103764               170213BK     1400+00000+BK0000013812+0000013812+000000000+000001936+0000015740+0000000008+I20000000000+0000015740+Z
103764001103764077-000303     103764006001023593757GIFT-BAG PAPER MED     0000001000+00001578+00000+0001T   00001578+0000001501          1400 FM7112               1AZ
103764002103764018-005009     103764006001023725608MUG W/PLUSH-BEAR LOVE  0000001000+00003507+00000+0001T   00003507+0000001501          1400 FM7515               1AZ
103764003103764077-000299     103764006003000395576G/BAG 32x25cm LRG LOVE 0000001000+00001490+00000+0001T   00001490+0000001501          1400 FM7112               1AZ
103764004103764018-050000     103764006003000412679MUG OCC LOVE TWIN BEAR 0000001000+00006139+00000+0001T   00006139+0000001501          1400 FM7515               1AZ
103764005103764112-116069     103764006009681820277TCS CARRIER BAG JUMBO  0000001000+00000048+00000+0001T   00000048+0000001501          1400 FM7090               1AZ
103764006103764903-000155     103764006009803374435SWT LOLLY I LUV U HEART0000002000+00000525+00000+0001T   00000525+0000001501          1400 FM7150               1AZ
103765000103765               103765               170213BK     1400+00000+BK0000005262+0000005262+000000000+000000737+0000005999+0000000000+I40000005999+0000000000+Z
103765001103765107-004510     103765006002580008968STEP-STOOL PL          0000001000+00005262+00000+0001T   00005262+0000001504          1400 FM7210               1AZ
103766000103766               103766               170213BK     1400+00000+BK0000004385+0000004385+000000000+000000614+0000004990+0000000009+I20000000000+0000004990+Z
103766001103766003-009101     103766006003000224494ORN SIGN INSP. 18X13CM 0000001000+00004385+00000+0001T   00004385+0000001505          1400 FM7505               1AZ
103767000103767               103767               170213BK     1400+00000+BK0000004420+0000004420+000000000+000000619+0000005030+0000000009+I20000000000+0000005030+Z
103767001103767031-080508     103767006001023802415P/FRAME PL 22X11CM LOVE0000001000+00004385+00000+0001T   00004385+0000001512          1400 FM7510               1AZ
103767002103767112-116038     103767006009681820246TCS CARRIER BAG MIDI   0000001000+00000035+00000+0001T   00000035+0000001512          1400 FM7090               1AZ
103768000103768               103768               170213BK     1400+00000+BK0000001050+0000001050+000000000+000000148+0000001198+0000000000+I40000001198+0000000000+Z
103768001103768903-000155     103768006009803374435SWT LOLLY I LUV U HEART0000002000+00000525+00000+0001T   00000525+0000001514          1400 FM7150               1AZ
103769000103769               103769               170213BK     1400+00000+BK0000002630+0000002630+000000000+000000369+0000002999+0000000000+I40000002999+0000000000+Z
103769001103769033-006003     103769006001023678584SEWING-KIT             0000001000+00002630+00000+0001T   00002630+0000001515          1400 FM7200               1AZ
103770000103770               103770               170213BK     1400+00000+BK0000005262+0000005262+000000000+000000737+0000005990+0000000009+I20000000000+0000005990+Z
103770001103770018-019000     103770006003000557288MUG OCC. LOVE JUMBO    0000001000+00005262+00000+0001T   00005262+0000001516          1400 FM7515               1AZ
103771000103771               103771               170213BK     1400+00000+BK0000002941+0000002941+000000000+000000413+0000003350+0000000004+I20000000000+0000003350+Z
103771001103771036-000151     103771006001023810588COATHANGERS    PACK-10 0000001000+00002893+00000+0001T   00002893+0000001523          1400 FM7212               1AZ
103771002103771112-116069     103771006009681820277TCS CARRIER BAG JUMBO  0000001000+00000048+00000+0001T   00000048+0000001523          1400 FM7090               1AZ
103772000103772               103772               170213BK     1400+00000+BK0000002630+0000002630+000000000+000000369+0000002999+0000000000+I40000002999+0000000000+Z
103772001103772366-002101     103772006003000617715DRESS UP MASK LIGHT UP 0000001000+00002630+00000+0001T   00002630+0000001525          1400 FM7131               1AZ
103773000103773               103773               170213BK     1400+00000+BK0000002190+0000002190+000000000+000000308+0000002498+0000000000+I40000002498+0000000000+Z
103773001103773077-000299-A   103773006003000670888GIFT-BAG PAPER JMB LOVE0000001000+00001753+00000+0001T   00001753+0000001527          1400 FM7112               1AZ
103773002103773080-000133-A   103773006003000647019MINI VALENTINES CARD   0000001000+00000437+00000+0001T   00000437+0000001527          1400 FM7112               1AZ
103774000103774               103774               170213BK     1400+00000+BK0000004383+0000004383+000000000+000000615+0000004990+0000000008+I20000000000+0000004990+Z
103774001103774018-000129     103774006001023403353MUG OCC. LOVE V-SHAPE  0000001000+00002630+00000+0001T   00002630+0000001531          1400 FM7515               1AZ
103774002103774080-000113     103774006003000237449CARD&ENVLPE - LOVE     0000001000+00001753+00000+0001T   00001753+0000001531          1400 FM7112               1AZ
103775000103775               103775               170213BK     1400+00000+BK0000001753+0000001753+000000000+000000246+0000001990+0000000009+I20000000000+0000001990+Z
103775001103775565-000002     103775006003000308071NOVELTY GROWING ANIMALS0000001000+00001753+00000+0001T   00001753+0000001532          1400 FM7745               1AZ
103776000103776               103776               170213BK     1400+00000+BK0000001435+0000001435+000000000+000000201+0000001630+0000000006+I20000000000+0000001630+Z
103776001103776018-000177     103776006001023797513MUG MINI LOVE ASSTD    0000002000+00000700+00000+0001T   00000700+0000001537          1400 FM7515               1AZ
103776002103776112-116038     103776006009681820246TCS CARRIER BAG MIDI   0000001000+00000035+00000+0001T   00000035+0000001537          1400 FM7090               1AZ
103777000103777               103777               170213BK     1400+00000+BK0000000436+0000000436+000000000+000000062+0000000490+0000000008+I20000000000+0000000490+Z
103777001103777903-000671     103777006009803358015SWT SHERBET BLUE LIPS  0000001000+00000218+00000+0001T   00000218+0000001538          1400 FM7150               1AZ
103777002103777903-000670     103777006009803358008SWT SHERBET RED LIPS   0000001000+00000218+00000+0001T   00000218+0000001538          1400 FM7150               1AZ
103778000103778               103778               170213BK     1400+00000+BK0000001752+0000001752+000000000+000000246+0000001990+0000000008+I20000000000+0000001990+Z
103778001103778077-000150-D   103778006003000054343GIFT-WRAP CELLPHANE CLR0000002000+00000876+00000+0001T   00000876+0000001540          1400 FM7112               1AZ
103779000103779               103779               170213BK     1400+00000+BK0000005260+0000005260+000000000+000000737+0000005990+0000000007+I20000000000+0000005990+Z
103779001103779017-000200     103779006003000238965PRINTED ASSTD 100-PHOTO0000001000+00003507+00000+0001T   00003507+0000001550          1400 FM7510               1AZ
103779002103779004-072001     103779006003000452378CABLE-TIDY REUSE COL-C 0000001000+00001753+00000+0001T   00001753+0000001550          1400 FM7310               1AZ
103780000103780               103780               170213BK     1400+00000+BK0000002541+0000002541+000000000+000000357+0000002898+0000000000+I40000002898+0000000000+Z
103780001103780089-000030     103780006003000575671K/CHAIN LOVE MTL ASSTD 0000001000+00001753+00000+0001T   00001753+0000001553          1400 FM7205               1AZ
103780002103780071-081101-A   103780006003000326549GLUE-STICK 25g BLISTER 0000001000+00000788+00000+0001T   00000788+0000001553          1400 FM7130               1AZ
103781000103781               103781               170213BK     1400+00000+BK0000002717+0000002717+000000000+000000381+0000003090+0000000008+I20000000000+0000003090+Z
103781001103781903-000155     103781006009803374435SWT LOLLY I LUV U HEART0000001000+00000525+00000+0001T   00000525+0000001557          1400 FM7150               1AZ
103781002103781080-000139     103781006003000611690CARD & ENV MINI SET 6PC0000001000+00002192+00000+0001T   00002192+0000001557          1400 FM7112               1AZ
103782000103782               103782               170213BK     1400+00000+BK0000001314+0000001314+000000000+000000184+0000001490+0000000008+I20000000000+0000001490+Z
103782001103782077-000470     103782006003000330171G-BAG DESGN SML 11X14CM0000001000+00001314+00000+0001T   00001314+0000001558          1400 FM7112               1AZ
103783000103783               103783               170213BK     1400+00000+BK0000003104+0000003104+000000000+000000435+0000003530+0000000009+I20000000000+0000003530+Z
103783001103783079-013106     103783006003000081998ART+CRAFT PIPE-CLEANERS0000001000+00003069+00000+0001T   00003069+0000001600          1400 FM7130               1AZ
103783002103783112-116038     103783006009681820246TCS CARRIER BAG MIDI   0000001000+00000035+00000+0001T   00000035+0000001600          1400 FM7090               1AZ
103784000103784               103784               170213BK     1400+00000+BK0000001753+0000001753+000000000+000000246+0000001990+0000000009+I20000000000+0000001990+Z
103784001103784024-000038     103784006001023477026MEASURING-JUG 1L (4CUP)0000001000+00001753+00000+0001T   00001753+0000001601          1400 FM7300               1AZ
103785000103785               103785               170213BK     1400+00000+BK0000002192+0000002192+000000000+000000307+0000002490+0000000009+I20000000000+0000002490+Z
103785001103785079-013102     103785006003000019601ART+CRAFT DIY PIPE-CLNR0000001000+00002192+00000+0001T   00002192+0000001602          1400 FM7130               1AZ
103786000103786               103786               170213BK     1400+00000+BK0000001753+0000001753+000000000+000000246+0000001990+0000000009+I20000000000+0000001990+Z
103786001103786084-006995     103786006003000092802NAIL CLIPPER 8cm TOE   0000001000+00001753+00000+0001T   00001753+0000001606          1400 FM7200               1AZ
103787000103787               103787               170213BK     1400+00000+BK0000004385+0000004385+000000000+000000614+0000004990+0000000009+I20000000000+0000004990+Z
103787001103787368-000049     103787006003000536955PLUSH BEAR 15cm LOVE   0000001000+00004385+00000+0001T   00004385+0000001607          1400 FM7745               1AZ
103788000103788               103788               170213BK     1400+00000+BK0000001402+0000001402+000000000+000000197+0000001590+0000000009+I20000000000+0000001590+Z
103788001103788105-001005     103788006001023858214CONTAINERS MINI 6PCE   0000001000+00001402+00000+0001T   00001402+0000001612          1400 FM7210               1AZ
103789000103789               103789               170213BK     1400+00000+BK0000010523+0000010523+000000000+000001474+0000011990+0000000007+I20000000000+0000011990+Z
103789001103789027-000207     103789006003000016570BROOM RUBBER BRISTLES  0000001000+00007016+00000+0001T   00007016+0000001614          1400 FM7212               1AZ
103789002103789133-000017     103789006003000525171CLEANING-CLOTHS 5PCE   0000001000+00003507+00000+0001T   00003507+0000001614          1400 FM7212               1AZ
103790000103790               103790               170213BK     1400+00000+BK0000010309+0000010309+000000000+000001444+0000011753+0000000000+I40000011753+0000000000+Z
103790001103790001-091415     103790006003000329113W/GLS OCC. LOVE 2PC 2800000001000+00008771+00000+0001T   00009648+0006471632          1400 FM7515               1AZ
103790002103790077-000299     103790006003000395576G/BAG 32x25cm LRG LOVE 0000001000+00001490+00000+0001T   00001490+0000001632          1400 FM7112               1AZ
103790003103790112-116069     103790006009681820277TCS CARRIER BAG JUMBO  0000001000+00000048+00000+0001T   00000048+0000001632          1400 FM7090               1AZ
103791000103791               103791               170213BK     1400+00000+BK0000010480+0000010480+000000000+000001470+0000011950+0000000000+I40000011950+0000000000+Z
103791001103791466-000103     103791006001023642134BALL 20cm ASSTD        0000001000+00001753+00000+0001T   00001753+0000001635          1400 FM7785               1AZ
103791002103791112-116069     103791006009681820277TCS CARRIER BAG JUMBO  0000001000+00000048+00000+0001T   00000048+0000001635          1400 FM7090               1AZ
103791003103791466-000615     103791006003000535828BALL SOC MINI HOLOGRAM 0000001000+00005262+00000+0001T   00005262+0000001635          1400 FM7785               1AZ
103791004103791903-000087     103791006001704000161SWT SPECKLED-EGGS 50G  0000003000+00001139+00000+0001T   00001139+0000001635          1400 FM7150               1AZ
103792000103792               103792               170213BK     1400+00000+BK0000008536+0000008536+000000000+000001197+0000009733+0000000000+I40000009733+0000000000+Z
103792001103792018-000129     103792006001023403353MUG OCC. LOVE V-SHAPE  0000001000+00002630+00000+0001T   00002630+0000001641          1400 FM7515               1AZ
103792002103792112-116038     103792006009681820246TCS CARRIER BAG MIDI   0000001000+00000035+00000+0001T   00000035+0000001641          1400 FM7090               1AZ
103792003103792077-000303     103792006001023593757GIFT-BAG PAPER MED     0000002000+00001578+00000+0001T   00001578+0000001641          1400 FM7112               1AZ
103792004103792903-000087     103792006001704000161SWT SPECKLED-EGGS 50G  0000001000+00001139+00000+0001T   00001139+0000001641          1400 FM7150               1AZ
103792005103792903-000120     103792006002099001665SWEET GS ZILLIONS 50g  0000001000+00000700+00000+0001T   00000700+0000001641          1400 FM7150               1AZ
103792006103792903-000481     103792006001704007481SWT MOO MILK-SHAKES 60G0000001000+00000876+00000+0001T   00000876+0000001641          1400 FM7150               1AZ
103793000103793               103793               170213BK     1400+00000+BK0000004155+0000004155+000000000+000000582+0000004730+0000000007+I20000000000+0000004730+Z
103793001103793002-000738     103793006001023770189GRATER 3-WAY PYRAMID   0000001000+00003507+00000+0001T   00003507+0000001642          1400 FM7300               1AZ
103793002103793306-000021     103793006001023169433EARBUDS 100PCE IN BAG  0000001000+00000613+00000+0001T   00000613+0000001642          1400 FM7200               1AZ
103793003103793112-116038     103793006009681820246TCS CARRIER BAG MIDI   0000001000+00000035+00000+0001T   00000035+0000001642          1400 FM7090               1AZ
103794000103794               103794               170213BK     1400+00000+BK0000001613+0000001613+000000000+000000226+0000001830+0000000009+I20000000000+0000001830+Z
103794001103794077-000303     103794006001023593757GIFT-BAG PAPER MED     0000001000+00001578+00000+0001T   00001578+0000001644          1400 FM7112               1AZ
103794002103794112-116038     103794006009681820246TCS CARRIER BAG MIDI   0000001000+00000035+00000+0001T   00000035+0000001644          1400 FM7090               1AZ
103795000103795               103795               170213BK     1400+00000+BK0000002630+0000002630+000000000+000000369+0000002990+0000000009+I20000000000+0000002990+Z
103795001103795071-001124     103795006001023802873MARKERS WHITEBOARD 3PCE0000001000+00002630+00000+0001T   00002630+0000001650          1400 FM7130               1AZ
103796000103796               103796               170213BK     1400+00000+BK0000003242+0000003242+000000000+000000455+0000003690+0000000007+I20000000000+0000003690+Z
103796001103796077-000151     103796006008766114676GIFT-WRAP C/PHANE ASSTD0000002000+00000876+00000+0001T   00000876+0000001652          1400 FM7112               1AZ
103796002103796079-000807     103796006003000670277ART+CRAFT WOODEN STICKS0000001000+00001490+00000+0001T   00001490+0000001652          1400 FM7130               1AZ
103797000103797               103797               170213BK     1400+00000+BK0000005565+0000005565+000000000+000000782+0000006340+0000000007+I20000000000+0000006340+Z
103797001103797079-009702-A   103797008427973059408PAPER SIRIO A2 BLACK   0000001000+00001051+00000+0001T   00001051+0000001654          1400 FM7130               1AZ
103797002103797019-071600     103797006001023771971RIVER-STONES 1kg MIXED 0000001000+00002630+00000+0001T   00002630+0000001654          1400 FM7510               1AZ
103797003103797079-009700-H   103797006003000546039PAPER SIRIO A4 EARTH   0000003000+00000306+00000+0001T   00000306+0000001654          1400 FM7130               1AZ
103797004103797079-009700-A   103797006003000547746PAPER SIRIO A4 BLACK   0000003000+00000306+00000+0001T   00000306+0000001654          1400 FM7130               1AZ
103797005103797112-116069     103797006009681820277TCS CARRIER BAG JUMBO  0000001000+00000048+00000+0001T   00000048+0000001654          1400 FM7090               1AZ
103798000103798               103798               170213BK     1400+00000+BK0000001927+0000001927+000000000+000000271+0000002190+0000000008+I20000000000+0000002190+Z
103798001103798071-005213     103798006001023690371CELLOTAPE 12mmx33m     0000001000+00000876+00000+0001T   00000876+0000001655          1400 FM7130               1AZ
103798002103798903-002853     103798000000087108019MENTOS ROLL MINT       0000001000+00001051+00000+0001T   00001051+0000001655          1400 FM7150               1AZ
103799000103799               103799               170213BK     1400+00000+BK0000002892+0000002892+000000000+000000406+0000003298+0000000000+I40000003298+0000000000+Z
103799001103799903-000087     103799006001704000161SWT SPECKLED-EGGS 50G  0000001000+00001139+00000+0001T   00001139+0000001656          1400 FM7150               1AZ
103799002103799046-002032-PK2 103799004897006175063BATTERIES CR-2032  2PCE0000001000+00001753+00000+0001T   00001753+0000001656          1400 FM7312               1AZ
103800000103800               103800               170213BK     1400+00000+BK0000004769+0000004769+000000000+000000668+0000005430+0000000007+I20000000000+0000005430+Z
103800001103800007-000160     103800006009685857286NOTE-BOOK A5 SHORTHAND 0000001000+00001227+00000+0001T   00001227+0000001700          1400 FM7130               1AZ
103800002103800079-000801     103800006003000539642ART+CRAFT COLOUR       0000001000+00003507+00000+0001T   00003507+0000001700          1400 FM7130               1AZ
103800003103800112-116038     103800006009681820246TCS CARRIER BAG MIDI   0000001000+00000035+00000+0001T   00000035+0000001700          1400 FM7090               1AZ
103801000103801               103801               170213BK     1400+00000+BK0000001578+0000001578+000000000+000000221+0000001790+0000000009+I20000000000+0000001790+Z
103801001103801077-000303     103801006001023593757GIFT-BAG PAPER MED     0000001000+00001578+00000+0001T   00001578+0000001701          1400 FM7112               1AZ
103802000103802               103802               170213BK     1400+00000+BK0000002192+0000002192+000000000+000000307+0000002490+0000000009+I20000000000+0000002490+Z
103802001103802079-013102     103802006003000019601ART+CRAFT DIY PIPE-CLNR0000001000+00002192+00000+0001T   00002192+0000001703          1400 FM7130               1BZ
103803000103803               103803               170213BK     1400+00000+BK0000005262+0000005262+000000000+000000737+0000005999+0000000000+I40000005999+0000000000+Z
103803001103803301-085003     103803006003000420827ORN OCCASION LOVE KEY  0000001000+00005262+00000+0001T   00005262+0000001706          1400 FM7505               1BZ
103804000103804               103804               170213BK     1400+00000+BK0000001753+0000001753+000000000+000000246+0000001990+0000000009+I20000000000+0000001990+Z
103804001103804079-013099     103804006003000081875ART+CRAFT EYES ASSTD   0000001000+00001753+00000+0001T   00001753+0000001709          1400 FM7130               1AZ
103805000103805               103805               170213BK     1400+00000+BK0000001227+0000001227+000000000+000000172+0000001390+0000000009+I20000000000+0000001390+Z
103805001103805903-000499     103805006001704012492SWT CHOC MALLOWS 50g   0000001000+00001227+00000+0001T   00001227+0000001714          1400 FM7150               1AZ
103806000103806               103806               170213BK     1400+00000+BK0000001578+0000001578+000000000+000000221+0000001790+0000000009+I20000000000+0000001790+Z
103806001103806018-000127     103806006001023380289MUG OCC STRAIGHT LOVE  0000001000+00001578+00000+0001T   00001753+0006471714          1400 FM7515               1AZ
103807000103807               103807               170213BK     1400+00000+BK0000002630+0000002630+000000000+000000369+0000002990+0000000009+I20000000000+0000002990+Z
103807001103807083-000058     103807006003000400331LIGHTER JET CIGAR REFIL0000001000+00002630+00000+0001T   00002630+0000001716          1400 FM7315               1AZ
103808000103808               103808               170213BK     1400+00000+BK0000000876+0000000876+000000000+000000123+0000000990+0000000009+I20000000000+0000000990+Z
103808001103808077-000151     103808006008766114676GIFT-WRAP C/PHANE ASSTD0000001000+00000876+00000+0001T   00000876+0000001716          1400 FM7112               1AZ
103809000103809               103809               170213BK     1400+00000+BK0000001224+0000001224+000000000+000000172+0000001390+0000000006+I20000000000+0000001390+Z
103809001103809079-009700-B   103809006003000547661PAPER SIRIO A4 WHITE   0000004000+00000306+00000+0001T   00000306+0000001721          1400 FM7130               1AZ
103810000103810               103810               170213BK     1400+00000+BK0000005260+0000005260+000000000+000000738+0000005990+0000000008+I20000000000+0000005990+Z
103810001103810088-000058     103810006003000621699TOILET FRESHENER GEL   0000001000+00002630+00000+0001T   00002630+0000001725          1400 FM7212               1AZ
103810002103810027-000090     103810006001023588265WINDOW-CLEANER LONG-HND0000001000+00002630+00000+0001T   00002630+0000001725          1400 FM7212               1AZ
103811000103811               103811               170213BK     1400+00000+BK0000003153+0000003153+000000000+000000444+0000003590+0000000007+I20000000000+0000003590+Z
103811001103811079-009702-D   103811008427973059354PAPER SIRIO A2 RED COL 0000003000+00001051+00000+0001T   00001051+0000001727          1400 FM7130               1AZ
103812000103812               103812               170213BK     1400+00000+BK0000004420+0000004420+000000000+000000619+0000005030+0000000009+I20000000000+0000005030+Z
103812001103812001-000175     103812006001023788108B/MUG GLS LOVE 380ML   0000001000+00004385+00000+0001T   00004385+0000001728          1400 FM7515               1AZ
103812002103812112-116038     103812006009681820246TCS CARRIER BAG MIDI   0000001000+00000035+00000+0001T   00000035+0000001728          1400 FM7090               1AZ
103813000103813               103813               170213BK     1400+00000+BK0000018726+0000018726+000000000+000002624+0000021350+0000000000+I20000000000+0000021350+Z
103813001103813112-116069     103813006009681820277TCS CARRIER BAG JUMBO  0000001000+00000048+00000+0001T   00000048+0000001729          1400 FM7090               1AZ
103813002103813159-000095     103813006003000399178SHOWER-CADDY CHROME    0000001000+00006139+00000+0001T   00006139+0000001729          1400 FM7200               1AZ
103813003103813306-001622     103813006003000450091INNER SOLES 1-PAIR     0000001000+00002630+00000+0001T   00002630+0000001729          1400 FM7200               1AZ
103813004103813206-000180     103813006003000631223TEA INFUSER TEAMAN     0000002000+00004385+00000+0001T   00004385+0000001729          1400 FM7321               1AZ
103813005103813466-000517     103813006001023752017BALL TENNIS RED CRICKET0000001000+00001139+00000+0001T   00001139+0000001729          1400 FM7785               1AZ
103814000103814               103814               170213BK     1400+00000+BK0000005045+0000005045+000000000+000000707+0000005752+0000000000+I40000005752+0000000000+Z
103814001103814112-116069     103814006009681820277TCS CARRIER BAG JUMBO  0000001000+00000048+00000+0001T   00000048+0000001731          1400 FM7090               1AZ
103814002103814018-000136     103814006001023659026MUG OCC LOVE W/PLUSH   0000001000+00003507+00000+0001T   00003507+0000001731          1400 FM7515               1AZ
103814003103814077-000299     103814006003000395576G/BAG 32x25cm LRG LOVE 0000001000+00001490+00000+0001T   00001490+0000001731          1400 FM7112               1AZ
103815000103815               103815               170213BK     1400+00000+BK0000006488+0000006488+000000000+000000909+0000007397+0000000000+I40000007397+0000000000+Z
103815001103815078-013424     103815006008741000338CONTACT-ADHESIVE 50ml  0000001000+00001578+00000+0001T   00001578+0000001732          1400 FM7810               1AZ
103815002103815079-000802     103815006001023528902ART+CRAFT STICKS 100PCE0000002000+00002455+00000+0001T   00002455+0000001732          1400 FM7130               1AZ
103816000103816               103816               170213BK     1400+00000+BK0000001490+0000001490+000000000+000000209+0000001690+0000000009+I20000000000+0000001690+Z
103816001103816077-000299     103816006003000395576G/BAG 32x25cm LRG LOVE 0000001000+00001490+00000+0001T   00001490+0000001732          1400 FM7112               1AZ
103817000103817               103817               170213BK     1400+00000+BK0000000437+0000000437+000000000+000000062+0000000490+0000000009+I20000000000+0000000490+Z
103817001103817080-000133-A   103817006003000647019MINI VALENTINES CARD   0000001000+00000437+00000+0001T   00000437+0000001733          1400 FM7112               1AZ
103818000103818               103818               170213BK     1400+00000+BK0000001786+0000001786+000000000+000000251+0000002030+0000000007+I20000000000+0000002030+Z
103818001103818080-000133     103818006003000535613CARD&ENV MINI ASTD DSGN0000001000+00000437+00000+0001T   00000437+0000001733          1400 FM7112               1AZ
103818002103818077-000470     103818006003000330171G-BAG DESGN SML 11X14CM0000001000+00001314+00000+0001T   00001314+0000001733          1400 FM7112               1AZ
103818003103818112-116038     103818006009681820246TCS CARRIER BAG MIDI   0000001000+00000035+00000+0001T   00000035+0000001733          1400 FM7090               1AZ
103819000103819               103819               170213BK     1400+00000+BK0000001578+0000001578+000000000+000000221+0000001790+0000000009+I20000000000+0000001790+Z
103819001103819018-000127     103819006001023380289MUG OCC STRAIGHT LOVE  0000001000+00001578+00000+0001T   00001753+0006471735          1400 FM7515               1AZ
103820000103820               103820               170213BK     1400+00000+BK0000002630+0000002630+000000000+000000369+0000002990+0000000009+I20000000000+0000002990+Z
103820001103820034-078823     103820006001023856869FACE CLOTHS PACK-5     0000001000+00002630+00000+0001T   00002630+0000001736          1400 FM7215               1AZ
103821000103821               103821               170213BK     1400+00000+BK0000011352+0000011352+000000000+000001594+0000012940+0000000006+I20000000000+0000012940+Z
103821001103821112-116069     103821006009681820277TCS CARRIER BAG JUMBO  0000001000+00000048+00000+0001T   00000048+0000001738          1400 FM7090               1AZ
103821002103821368-000001     103821006003000097982Plush Bear 25cm        0000001000+00004385+00000+0001T   00004385+0000001738          1400 FM7745               1AZ
103821003103821304-001204     103821006001023737984FLOWER OCC. TEDDY/ROSES0000001000+00001402+00000+0001T   00001490+0006471738          1400 FM7510               1AZ
103821004103821080-000133-A   103821006003000647019MINI VALENTINES CARD   0000001000+00000437+00000+0001T   00000437+0000001738          1400 FM7112               1AZ
103821005103821077-000011-C   103821006001023808523TISSUE 10xSHTS RED     0000001000+00000876+00000+0001T   00000876+0000001738          1400 FM7112               1AZ
103821006103821018-000127     103821006001023380289MUG OCC STRAIGHT LOVE  0000001000+00001578+00000+0001T   00001753+0006471738          1400 FM7515               1AZ
103821007103821080-000133-A   103821006003000647019MINI VALENTINES CARD   0000002000+00000437+00000+0001T   00000437+0000001738          1400 FM7112               1AZ
103821008103821077-000150-D   103821006003000054343GIFT-WRAP CELLPHANE CLR0000002000+00000876+00000+0001T   00000876+0000001738          1400 FM7112               1AZ
103822000103822               103822               170213BK     1400+00000+BK0000021925+0000021925+000000000+000003070+0000024990+0000000005+I20000000000+0000024990+Z
103822001103822006-000190     103822006003000685530BALLOONS LOVE 81x91cm  0000005000+00004385+00000+0001T   00004385+0000001739          1400 FM7131               1AZ
103823000103823               103823               170213BK     1400+00000+BK0000001227+0000001227+000000000+000000172+0000001390+0000000009+I20000000000+0000001390+Z
103823001103823077-000245     103823006001023759214GIFT-RIBBON METALLICx2 0000001000+00001227+00000+0001T   00001227+0000001739          1400 FM7112               1AZ
103824000103824               103824               170213BK     1400+00000+BK0000002804+0000002804+000000000+000000393+0000003190+0000000007+I20000000000+0000003190+Z
103824001103824046-000012     103824006904708013062BATTERIES AA  CARD-OF-40000001000+00001314+00000+0001T   00001314+0000001739          1400 FM7312               1AZ
103824002103824565-004101     103824006003000548033BALL BOUNCING EGG      0000001000+00001490+00000+0001T   00001490+0000001739          1400 FM7745               1AZ
103825000103825               103825               170213BK     1400+00000+BK0000002455+0000002455+000000000+000000344+0000002799+0000000000+I40000002799+0000000000+Z
103825001103825562-000009     103825000730589212029PLAY MODELLING CARDED  0000001000+00002455+00000+0001T   00002455+0000001740          1400 FM7755               1AZ
103826000103826               103826               170213BK     1400+00000+BK0000004385+0000004385+000000000+000000614+0000004990+0000000009+I20000000000+0000004990+Z
103826001103826562-000026     103826006001023910578KID'S DOUGH SET 9PCE   0000001000+00004385+00000+0001T   00004385+0000001741          1400 FM7755               1AZ
103827000103827               103827               170213BK     1400+00000+BK0000001752+0000001752+000000000+000000246+0000001990+0000000008+I20000000000+0000001990+Z
103827001103827304-001011     103827006001023806727FLWR ROSE RED W/BEAR   0000001000+00000613+00000+0001T   00000788+0006471741          1400 FM7510               1AZ
103827002103827159-000043-H   103827006001023416629HOOKS ADHESIVE 3PCE SQR0000001000+00001139+00000+0001T   00001139+0000001741          1400 FM7200               1AZ
103828000103828               103828               170213BK     1400+00000+BK0000008802+0000008802+000000000+000001234+0000010036+0000000000+I40000010036+0000000000+Z
103828001103828079-002909     103828006003000639410ART+CRAFT MAGIC MARKERS0000001000+00002630+00000+0001T   00002630+0000001743          1400 FM7130               1AZ
103828002103828079-006498     103828006001023836151GLITTER SET 10PCE      0000001000+00003507+00000+0001T   00003507+0000001743          1400 FM7130               1AZ
103828003103828566-000203     103828006003000443925STCKRS VELVET PUFFY ASS0000001000+00002630+00000+0001T   00002630+0000001743          1400 FM7130               1AZ
103828004103828112-116038     103828006009681820246TCS CARRIER BAG MIDI   0000001000+00000035+00000+0001T   00000035+0000001743          1400 FM7090               1AZ
103829000103829               103829               170213BK     1400+00000+BK0000023544+0000023544+000000000+000003300+0000026844+0000000000+I40000026844+0000000000+Z
103829001103829105-008005     103829006002580009484STORAGE CONTAINER 7.5L 0000001000+00004385+00000+0001T   00004385+0000001748          1400 FM7210               1AZ
103829002103829112-116069     103829006009681820277TCS CARRIER BAG JUMBO  0000001000+00000048+00000+0001T   00000048+0000001748          1400 FM7090               1AZ
103829003103829077-000457     103829006003000285662G/BAG METALLIC JMB SOL 0000001000+00001753+00000+0001T   00001753+0000001748          1400 FM7112               1AZ
103829004103829077-000301     103829008010410010188BAG LRG 25X32CM B/DAY  0000001000+00001753+00000+0001T   00001753+0000001748          1400 FM7112               1AZ
103829005103829039-000319-2   103829006003000442508B/CANDLES LRG NUMBER-2 0000001000+00000876+00000+0001T   00000876+0000001748          1400 FM7510               1AZ
103829006103829566-000202     103829006003000443567STCKRS SPARKLE RIM ASST0000001000+00001314+00000+0001T   00001314+0000001748          1400 FM7130               1AZ
103829007103829903-000087     103829006001704000161SWT SPECKLED-EGGS 50G  0000001000+00001139+00000+0001T   00001139+0000001748          1400 FM7150               1AZ
103829008103829027-009025     103829006003962000747DUSTPAN-SET PL         0000001000+00002630+00000+0001T   00002630+0000001748          1400 FM7212               1AZ
103829009103829031-086303-B   103829006003000322404P/FRM CHAMPAGNE 13X18CM0000001000+00003507+00000+0001T   00003507+0000001748          1400 FM7510               1AZ
103829010103829031-007009     103829006003000467822P/FRAME WDN CERTIFICATE0000001000+00006139+00000+0001T   00006139+0000001748          1400 FM7510               1AZ
103830000103830               103830               170213BK     1400+00000+BK0000018467+0000018467+000000000+000002586+0000021050+0000000003+I20000000000+0000021050+Z
103830001103830072-020290     103830006003000624010PET CAT TOY ACTIVITY   0000001000+00014034+00000+0001T   00014034+0000001751          1400 FM7870               1AZ
103830002103830112-116069     103830006009681820277TCS CARRIER BAG JUMBO  0000001000+00000048+00000+0001T   00000048+0000001751          1400 FM7090               1AZ
103830003103830030-000031-A   103830006003000457588PLAQUE W/WORDS ASSTD   0000001000+00004385+00000+0001T   00004823+0006471751          1400 FM7505               1AZ
103831000103831               103831               170213BK     1400+00000+BK0000004428+0000004428+000000000+000000623+0000005050+0000000001+I20000000000+0000005050+Z
103831001103831071-081101-A   103831006003000326549GLUE-STICK 25g BLISTER 0000002000+00000788+00000+0001T   00000788+0000001752          1400 FM7130               1AZ
103831002103831079-009702-D   103831008427973059354PAPER SIRIO A2 RED COL 0000001000+00001051+00000+0001T   00001051+0000001752          1400 FM7130               1AZ
103831003103831071-008229     103831006003000216017PENCIL-BAG ASTD COL A5 0000001000+00001753+00000+0001T   00001753+0000001752          1400 FM7130               1AZ
103831004103831112-116069     103831006009681820277TCS CARRIER BAG JUMBO  0000001000+00000048+00000+0001T   00000048+0000001752          1400 FM7090               1AZ
103832000103832               103832               170213BK     1400+00000+BK0000004591+0000004591+000000000+000000645+0000005230+0000000006+I20000000000+0000005230+Z
103832001103832903-000926     103832006914204004556SWT NOVELTY ST N/LACE  0000001000+00001753+00000+0001T   00001753+0000001754          1400 FM7150               1AZ
103832002103832080-000133-A   103832006003000647019MINI VALENTINES CARD   0000001000+00000437+00000+0001T   00000437+0000001754          1400 FM7112               1AZ
103832003103832304-001011     103832006001023806727FLWR ROSE RED W/BEAR   0000001000+00000613+00000+0001T   00000788+0006471754          1400 FM7510               1AZ
103832004103832089-000030     103832006003000575671K/CHAIN LOVE MTL ASSTD 0000001000+00001753+00000+0001T   00001753+0000001754          1400 FM7205               1AZ
103832005103832112-116038     103832006009681820246TCS CARRIER BAG MIDI   0000001000+00000035+00000+0001T   00000035+0000001754          1400 FM7090               1AZ
103833000103833               103833               170213BK     1400+00000+BK0000007926+0000007926+000000000+000001111+0000009030+0000000007+I20000000000+0000009030+Z
103833001103833039-001023     103833006003000466337CANDLE TEA-LITE METALIC0000002000+00001753+00000+0001T   00001753+0000001755          1400 FM7510               1AZ
103833002103833031-080508     103833006001023802415P/FRAME PL 22X11CM LOVE0000001000+00004385+00000+0001T   00004385+0000001755          1400 FM7510               1AZ
103833003103833112-116038     103833006009681820246TCS CARRIER BAG MIDI   0000001000+00000035+00000+0001T   00000035+0000001755          1400 FM7090               1AZ
103834000103834               103834               170213BK     1400+00000+BK0000002629+0000002629+000000000+000000369+0000002998+0000000000+I40000002998+0000000000+Z
103834001103834039-001023     103834006003000466337CANDLE TEA-LITE METALIC0000001000+00001753+00000+0001T   00001753+0000001757          1400 FM7510               1AZ
103834002103834077-000151     103834006008766114676GIFT-WRAP C/PHANE ASSTD0000001000+00000876+00000+0001T   00000876+0000001757          1400 FM7112               1AZ
103835000103835               103835               170213BK     1400+00000+BK0000000700+0000000700+000000000+000000098+0000000790+0000000008+I20000000000+0000000790+Z
103835001103835018-000177     103835006001023797513MUG MINI LOVE ASSTD    0000001000+00000700+00000+0001T   00000700+0000001759          1400 FM7515               1AZ
103836000103836               103836               170213BK     1400+00000+BK0000003069+0000003069+000000000+000000430+0000003490+0000000009+I20000000000+0000003490+Z
103836001103836079-013106     103836006003000081998ART+CRAFT PIPE-CLEANERS0000001000+00003069+00000+0001T   00003069+0000001801          1400 FM7130               1AZ
103837000103837               103837               170213BK     1400+00000+BK0000001051+0000001051+000000000+000000148+0000001190+0000000009+I20000000000+0000001190+Z
103837001103837903-002851     103837000000087108538MENTOS ROLL STRAWBERRY 0000001000+00001051+00000+0001T   00001051+0000001802          1400 FM7150               1AZ
103838000103838               103838               170213BK     1400+00000+BK0000002630+0000002630+000000000+000000369+0000002990+0000000009+I20000000000+0000002990+Z
103838001103838304-001486     103838006003000035335FLWR BUNCH ROSE        0000001000+00002630+00000+0001T   00002630+0000001803          1400 FM7510               1AZ
C10376400                                          170213BK089-000191     15004700SLAVE 1     FM71IC0000000000+0000000000+0060000001000+
M17021391                              CASH        BKSLAVE 1                       Z-REPORT No.   629TOTAL (Sales - Refunds)           9664.84       CASH TO BE BANKED                 5787.40       DEBIT CARDS                          0.00       CREDIT CARDS                      3877.44       Z-READING                         9664.84       AIRTIME DEBIT CARD SALES             0.00       AIRTIME CARD SALES                   0.00       OVERS/UNDERS                         0.00       AIRTIME CASH SALES                   0.00       GIFT CARDS                           0.00       GIFT CARD CASH SALES                 0.00       T O T A L  CASH PAYOUTS              0.00                                                                                                                                                                                                                                                                                                                                                      Z
M17021392                              CASH        BKABSENT                                                                                                                                                                                          ANNUAL LEAVE                                                                                                                                                                                    DAY OFF                                                                                                                                                                                         COMMENTS                                                                                                                                                                                                                                                                                                                                                                                       Z
Y17021300                                          BK00000000848438+000150
ZBK17021319203 SLAVE 1      SALES DATA                     NEXT INVOICE NO.  103839 0629
X BK Slave 1 First invoice 103689 170213 Last invoice 103838 170213 Next invoice 103839 Total number of records 000000503 clbackup completed 19:20:50
