200237000200237               200237               170213BK     1400+00000+BK0000007011+0000007011+000000000+000000984+0000007990+0000000005+I20000000000+0000007990+Z
200237001200237251-000012     200237006001023597915TAPE DUCT GREY 48mmx5m 0000001000+00002630+00000+0001T   00002630+0000000900          1400 GJ6810               2AZ
200237002200237150-012228-H   200237006001023416773DOOR-STOPPERS SET-OF-2 0000001000+00001753+00000+0001T   00001753+0000000900          1400 GJ6810               2AZ
200237003200237566-001108     200237000721129017341NAIL-JEWELLERY ASSTD   0000003000+00000876+00000+0001T   00000876+0000000900          1400 GJ6130               2AZ
200238000200238               200238               170213BK     1400+00000+BK0000002892+0000002892+000000000+000000405+0000003290+0000000007+I20000000000+0000003290+Z
200238001200238261-008349     200238006001023787590CAP-GUN 8-SHOT         0000001000+00002192+00000+0001T   00002192+0000000902          1400 GJ6710               2AZ
200238002200238261-000121     200238006001023341600GUN-CAPS 8-SHOT CARD-9 0000001000+00000700+00000+0001T   00000700+0000000902          1400 GJ6710               2AZ
200239000200239               200239               170213BK     1400+00000+BK0000019320+0000019320+000000000+000002709+0000022020+0000000009+I20000000000+0000022020+Z
200239001200239566-000200     200239006003000384174STICKER PUFFY NEON     0000001000+00000876+00000+0001T   00000876+0000000904          1400 GJ6130               2AZ
200239002200239079-014153     200239006003000253166ART+CRAFT DRAGON PK6   0000001000+00002630+00000+0001T   00002630+0000000904          1400 GJ6130               2AZ
200239003200239079-006500     200239006001023557186GLUE GLITTER 6/10 PCE  0000001000+00001753+00000+0001T   00001753+0000000904          1400 GJ6130               2AZ
200239004200239566-002004     200239006001023672421STICKERS CRYSTAL SHAPES0000002000+00001753+00000+0001T   00001753+0000000904          1400 GJ6130               2AZ
200239005200239566-000037     200239006003000383948STICKER 3D GEL         0000002000+00001753+00000+0001T   00001753+0000000904          1400 GJ6130               2AZ
200239006200239566-000064     200239006001023689702STICKERS GLITTER BORDER0000002000+00003507+00000+0001T   00003507+0000000904          1400 GJ6130               2AZ
200239007200239112-116038     200239006009681820246TCS CARRIER BAG MIDI   0000001000+00000035+00000+0001T   00000035+0000000904          1400 GJ6090               2AZ
200240000200240               200240               170213BK     1400+00000+BK0000004385+0000004385+000000000+000000614+0000004990+0000000009+I20000000000+0000004990+Z
200240001200240079-001001     200240006003000448593CANVAS A3 WOOD MOUNTED 0000001000+00004385+00000+0001T   00004385+0000000904          1400 GJ6130               2AZ
200241000200241               200241               170213BK     1400+00000+BK0000010785+0000010785+000000000+000001512+0000012290+0000000007+I20000000000+0000012290+Z
200241001200241403-000509     200241006001023699664MONEY-BANK PL. PIGGY   0000001000+00002630+00000+0001T   00002630+0000000931          1400 GJ6510               2AZ
200241002200241036-000151     200241006001023810588COATHANGERS    PACK-10 0000001000+00002893+00000+0001T   00002893+0000000931          1400 GJ6212               2AZ
200241003200241035-000013     200241006001023450180UMBRELLA KIDDIES 34cm  0000001000+00005262+00000+0001T   00005262+0000000931          1400 GJ6205               2AZ
200242000200242               200242               170213BK     1400+00000+BK0000001753+0000001753+000000000+000000246+0000001990+0000000009+I20000000000+0000001990+Z
200242001200242037-000004     200242006001023763679ASHTRAY PL TUB 8X11CM  0000001000+00001753+00000+0001T   00002192+0008191015          1400 GJ6515               2AZ
200243000200243               200243               170213BK     1400+00000+BK0000008771+0000008771+000000000+000001228+0000009990+0000000009+I20000000000+0000009990+Z
200243001200243001-091415     200243006003000329113W/GLS OCC. LOVE 2PC 2800000001000+00008771+00000+0001T   00009648+0006471030          1400 GJ6515               2AZ
200244000200244               200244               170213BK     1400+00000+BK0000003507+0000003507+000000000+000000491+0000003990+0000000008+I20000000000+0000003990+Z
200244001200244369-000100     200244006003000596256BABY BATH TOY SURFER   0000001000+00003507+00000+0001T   00003507+0000001045          1400 GJ6745               2AZ
200245000200245               200245               170213BK     1400+00000+BK0000000393+0000000393+000000000+000000056+0000000440+0000000009+I20000000000+0000000440+Z
200245001200245903-000183     200245006003000451043SWT LB HEART LOLLY     0000001000+00000393+00000+0001T   00000393+0000001048          1400 GJ6150               2AZ
200246000200246               200246               170213BK     1400+00000+BK0000002892+0000002892+000000000+000000405+0000003290+0000000007+I20000000000+0000003290+Z
200246001200246006-000166-B   200246006003000516254BALLOONS LRG 6PC BLUE  0000001000+00001314+00000+0001T   00001314+0000001048          1400 GJ6131               2AZ
200246002200246079-000289     200246006001023493217PAINT WTR COL CAKE 6COL0000001000+00001578+00000+0001T   00001578+0000001048          1400 GJ6130               2AZ
200247000200247               200247               170213BK     1400+00000+BK0000001753+0000001753+000000000+000000246+0000001990+0000000009+I20000000000+0000001990+Z
200247001200247200-000211     200247006003000671847BAKING-PANS ALUM-FOIL  0000001000+00001753+00000+0001T   00001753+0000001053          1400 GJ6214               2AZ
200248000200248               200248               170213BK     1400+00000+BK0000007541+0000007541+000000000+000001058+0000008590+0000000009+I20000000000+0000008590+Z
200248001200248903-000183     200248006003000451043SWT LB HEART LOLLY     0000001000+00000393+00000+0001T   00000393+0000001057          1400 GJ6150               2AZ
200248002200248077-000289     200248006001023901996GIFT BOX 20x25x11cm    0000001000+00001753+00000+0001T   00001753+0000001057          1400 GJ6112               2AZ
200248003200248083-000055     200248006003000003853LIGHTER ELCTRNC REFILBL0000001000+00000613+00000+0001T   00000613+0000001057          1400 GJ6315               2AZ
200248004200248018-005009     200248006001023725608MUG W/PLUSH-BEAR LOVE  0000001000+00003507+00000+0001T   00003507+0000001057          1400 GJ6515               2AZ
200248005200248903-000504     200248006001704012416SWT CHOC JELLY BEANS   0000001000+00001227+00000+0001T   00001227+0000001057          1400 GJ6150               2AZ
200248006200248112-116069     200248006009681820277TCS CARRIER BAG JUMBO  0000001000+00000048+00000+0001T   00000048+0000001057          1400 GJ6090               2AZ
200249000200249               200249               170213BK     1400+00000+BK0000004821+0000004821+000000000+000000675+0000005496+0000000000+I40000005496+0000000000+Z
200249001200249089-000006     200249006003000094929KEY CHAIN HAND-BAG MTL 0000001000+00003507+00000+0001T   00003507+0000001059          1400 GJ6205               2AZ
200249002200249089-000187     200249006003000594245KEY CHAIN PVC DUCK 3.5 0000001000+00001314+00000+0001T   00001314+0000001059          1400 GJ6205               2AZ
200250000200250               200250               170213BK     1400+00000+BK0000001753+0000001753+000000000+000000246+0000001990+0000000009+I20000000000+0000001990+Z
200250001200250007-000050     200250006001023528285DISPLAY-ENVELOPE A4    0000001000+00001753+00000+0001T   00001753+0000001059          1400 GJ6130               2AZ
200251000200251               200251               170213BK     1400+00000+BK0000002100+0000002100+000000000+000000296+0000002390+0000000006+I20000000000+0000002390+Z
200251001200251903-000155     200251006009803374435SWT LOLLY I LUV U HEART0000004000+00000525+00000+0001T   00000525+0000001117          1400 GJ6150               2AZ
200252000200252               200252               170213BK     1400+00000+BK0000022581+0000022581+000000000+000003164+0000025745+0000000000+I40000025745+0000000000+Z
200252001200252112-116069     200252006009681820277TCS CARRIER BAG JUMBO  0000001000+00000048+00000+0001T   00000048+0000001119          1400 GJ6090               2AZ
200252002200252567-011505     200252000814625012092BK COLOURING 96P PRINCE0000002000+00003069+00000+0001T   00003069+0000001119          1400 GJ6757               2AZ
200252003200252079-000512     200252006001023635853CRAYONS WAX 12-COLOUR  0000001000+00001490+00000+0001T   00001490+0000001119          1400 GJ6130               2AZ
200252004200252566-000202     200252006003000443567STCKRS SPARKLE RIM ASST0000001000+00001314+00000+0001T   00001314+0000001119          1400 GJ6130               2AZ
200252005200252567-011313     200252006003000593965DIERESTORIES AFR ASSTD 0000001000+00003507+00000+0001T   00003507+0000001119          1400 GJ6757               2AZ
200252006200252079-000334     200252006003000670437THERAPY P/CRAYONS 18   0000001000+00005262+00000+0001T   00005262+0000001119          1400 GJ6130               2AZ
200252007200252467-000004     200252006001023347596NET FISHING 100cm LONG 0000001000+00002192+00000+0001T   00002192+0000001119          1400 GJ6785               2AZ
200252008200252467-000006     200252006001023995483NET-BUTTERFLY 120cm    0000001000+00002630+00000+0001T   00002630+0000001119          1400 GJ6785               2AZ
200253000200253               200253               170213BK     1400+00000+BK0000002454+0000002454+000000000+000000344+0000002790+0000000008+I20000000000+0000002790+Z
200253001200253903-000499     200253006001704012492SWT CHOC MALLOWS 50g   0000002000+00001227+00000+0001T   00001227+0000001120          1400 GJ6150               2AZ
200254000200254               200254               170213BK     1400+00000+BK0000001314+0000001314+000000000+000000184+0000001490+0000000008+I20000000000+0000001490+Z
200254001200254903-004950     200254006002580020304SWT APRICOT SURPRISE   0000001000+00001314+00000+0001T   00001314+0000001120          1400 GJ6150               2AZ
200255000200255               200255               170213BK     1400+00000+BK0000002453+0000002453+000000000+000000344+0000002790+0000000007+I20000000000+0000002790+Z
200255001200255077-000289     200255006001023901996GIFT BOX 20x25x11cm    0000001000+00001753+00000+0001T   00001753+0000001121          1400 GJ6112               2AZ
200255002200255018-000177     200255006001023797513MUG MINI LOVE ASSTD    0000001000+00000700+00000+0001T   00000700+0000001121          1400 GJ6515               2AZ
200256000200256               200256               170213BK     1400+00000+BK0000020551+0000020551+000000000+000002881+0000023432+0000000000+I40000023432+0000000000+Z
200256001200256112-116038     200256006009681820246TCS CARRIER BAG MIDI   0000001000+00000035+00000+0001T   00000035+0000001126          1400 GJ6090               2AZ
200256002200256071-001124     200256006001023802873MARKERS WHITEBOARD 3PCE0000001000+00002630+00000+0001T   00002630+0000001126          1400 GJ6130               2AZ
200256003200256028-000796     200256006001023812094SKEWERS 25cm 50PCE 4mm 0000001000+00001490+00000+0001T   00001490+0000001126          1400 GJ6305               2AZ
200256004200256083-000055     200256006003000003853LIGHTER ELCTRNC REFILBL0000001000+00000613+00000+0001T   00000613+0000001126          1400 GJ6315               2AZ
200256005200256104-000040     200256006001023846280BASKET HEART-SHAPED    0000004000+00001753+00000+0001T   00001753+0000001126          1400 GJ6210               2AZ
200256006200256007-010501     200256006003000455157WIPE & CHALK 45X35CM   0000001000+00008771+00000+0001T   00008771+0000001126          1400 GJ6130               2AZ
200257000200257               200257               170213BK     1400+00000+BK0000003027-0000003027-000000000+000000423-0000003450-0000000000+I20000000000+0000003450-Z
200257001200257007-010501     200257006003000455157WIPE & CHALK 45X35CM   0000001000-00008771+00000+0001T   00008771+0000001128          1400 GJ61301IC            2 Z
200257002200257071-001124     200257006001023802873MARKERS WHITEBOARD 3PCE0000001000-00002630+00000+0001T   00002630+0000001128          1400 GJ61301IC            2 Z
200257003200257007-010504     200257006002923014960BLACKBOARD EASEL       0000001000+00007893+00000+0001T   00007893+0000001128          1400 GJ6130               2 Z
200257004200257071-000012     200257006001177101006CHALK COLOUR 12PCE     0000001000+00000481+00000+0001T   00000481+0000001128          1400 GJ6130               2 Z
200258000200258               200258               170213BK     1400+00000+BK0000003279+0000003279+000000000+000000460+0000003730+0000000009+I20000000000+0000003730+Z
200258001200258051-600630     200258006001023868374PLANTER W/TRAY PL RECT 0000001000+00003244+00000+0001T   00003244+0000001129          1400 GJ6820               2AZ
200258002200258112-116038     200258006009681820246TCS CARRIER BAG MIDI   0000001000+00000035+00000+0001T   00000035+0000001129          1400 GJ6090               2AZ
200259000200259               200259               170213BK     1400+00000+BK0000001753+0000001753+000000000+000000246+0000001990+0000000009+I20000000000+0000001990+Z
200259001200259200-003024     200259006001023657299REFUSE BAGS 20PCE BLACK0000001000+00001753+00000+0001T   00001753+0000001131          1400 GJ6214               2AZ
200260000200260               200260               170213BK     1400+00000+BK0000000876+0000000876+000000000+000000123+0000000990+0000000009+I20000000000+0000000990+Z
200260001200260082-026204     200260006001023816443R/GLASSES STRINGS 2PCE 0000001000+00000876+00000+0001T   00000876+0000001132          1400 GJ6160               2AZ
200261000200261               200261               170213BK     1400+00000+BK0000066546+0000066546+000000000+000009330+0000075876+0000000000+I40000075876+0000000000+Z
200261001200261024-000216     200261006001023766557KIDDIES B/WARE ACC 3PC 0000001000+00003069+00000+0001T   00003069+0000001228          1400 GJ6300               2AZ
200261002200261077-000471     200261006003000330096G-BAG DESGN MED 18X23CM0000001000+00001753+00000+0001T   00001753+0000001228          1400 GJ6112               2AZ
200261003200261024-000042     200261006002580009255M/CUP MINI 30ML H/HOUSE0000001000+00002192+00000+0001T   00002192+0000001228          1400 GJ6300               2AZ
200261004200261002-220002     200261006001023677877F/COVER SQ 31cm WHT    0000002000+00002630+00000+0001T   00002630+0000001228          1400 GJ6300               2AZ
200261005200261002-000015     200261006003000555604CAPPUCCINO STENCILS 12P0000001000+00001753+00000+0001T   00001753+0000001228          1400 GJ6300               2AZ
200261006200261002-000117     200261006001023110879EGG POACHERS 2PC       0000001000+00003069+00000+0001T   00003069+0000001228          1400 GJ6300               2AZ
200261007200261200-000023     200261006003000399413BAG SLIDE LOCK 10PC    0000001000+00002630+00000+0001T   00002630+0000001228          1400 GJ6214               2AZ
200261008200261036-000521     200261006003000338184HOOK-HANGER 8-HOOK     0000001000+00001753+00000+0001T   00001753+0000001228          1400 GJ6212               2AZ
200261009200261007-000208     200261006001023582096NOTE-PAD S/STICK 100'S 0000001000+00001490+00000+0001T   00001490+0000001228          1400 GJ6130               2AZ
200261010200261362-019375     200261006001023730664HAIR BAND SET 24PCE    0000001000+00000876+00000+0001T   00000876+0000001228          1400 GJ6160               2AZ
200261011200261366-000356     200261006003000006908DRESS UP WINGS FAIRY   0000001000+00004385+00000+0001T   00004385+0000001228          1400 GJ6131               2AZ
200261012200261036-000405     200261006001023630247CLOTHES DRYER PL 18-PEG0000001000+00004385+00000+0001T   00004385+0000001228          1400 GJ6212               2AZ
200261013200261077-000315     200261006003000181186GIFT-BAG 20x28cm MATT  0000001000+00001578+00000+0001T   00001578+0000001228          1400 GJ6112               2AZ
200261014200261204-000059     200261006001023528162MEMO HOLDER APPS 18PC  0000001000+00002630+00000+0001T   00002630+0000001228          1400 GJ6300               2AZ
200261015200261002-021040     200261006001023812216PARTY-PICKS 100PCE     0000001000+00000525+00000+0001T   00000525+0000001228          1400 GJ6300               2AZ
200261016200261365-003056     200261006009635021453KIDDIES WOODEN BROOM   0000001000+00003069+00000+0001T   00003069+0000001228          1400 GJ6725               2AZ
200261017200261159-000041     200261006001023767684HOOK-HANGER 2PCE S/S   0000002000+00001753+00000+0001T   00001753+0000001228          1400 GJ6200               2AZ
200261018200261112-116069     200261006009681820277TCS CARRIER BAG JUMBO  0000001000+00000048+00000+0001T   00000048+0000001228          1400 GJ6090               2AZ
200261019200261027-056185     200261006003000638093DISH BRUSH DUCK DESIGN 0000001000+00002630+00000+0001T   00002630+0000001228          1400 GJ6212               2AZ
200261020200261903-000183     200261006003000451043SWT LB HEART LOLLY     0000001000+00000393+00000+0001T   00000393+0000001228          1400 GJ6150               2AZ
200261021200261220-009001     200261006001023167804ROSE TEASPOON 6PCE     0000001000+00002630+00000+0001T   00002630+0000001228          1400 GJ6300               2AZ
200261022200261220-009101     200261006001023706829ROSE TEASPOONS 4PCE    0000001000+00001753+00000+0001T   00001753+0000001228          1400 GJ6300               2AZ
200261023200261903-000123     200261006925925909280SWEET GS MINI MALLOWS  0000001000+00000876+00000+0001T   00000876+0000001228          1400 GJ6150               2AZ
200261024200261024-000031     200261006003000295760MIXING BOWL PL W/HANDLE0000001000+00003069+00000+0001T   00003069+0000001228          1400 GJ6300               2AZ
200261025200261024-091100     200261006001023914224BAKING-CUPS PAPER 100PC0000001000+00001753+00000+0001T   00001753+0000001228          1400 GJ6300               2AZ
200261026200261002-000748     200261006001023477439GRATER S/S 4-WAY  BLACK0000001000+00008771+00000+0001T   00008771+0000001228          1400 GJ6300               2AZ
200261027200261564-000012     200261006001023130075BUBBLE BOTTLE MAGIC    0000001000+00000700+00000+0001T   00000700+0000001228          1400 GJ6131               2AZ
200262000200262               200262               170213BK     1400+00000+BK0000001928+0000001928+000000000+000000270+0000002190+0000000008+I20000000000+0000002190+Z
200262001200262174-008028     200262006009654960825TRAVEL JARS 4-PACK     0000001000+00001928+00000+0001T   00001928+0000001229          1400 GJ6205               2AZ
200263000200263               200263               170213BK     1400+00000+BK0000001753+0000001753+000000000+000000246+0000001990+0000000009+I20000000000+0000001990+Z
200263001200263159-000041     200263006001023767684HOOK-HANGER 2PCE S/S   0000001000+00001753+00000+0001T   00001753+0000001229          1400 GJ6200               2AZ
200264000200264               200264               170213BK     1400+00000+BK0000011838+0000011838+000000000+000001658+0000013496+0000000000+I40000013496+0000000000+Z
200264001200264031-000864-B   200264006001023798381P/FRAME MAHOGANY 13X18 0000001000+00003507+00000+0001T   00003507+0000001231          1400 GJ6510               2AZ
200264002200264031-000902-B   200264006001023726285P/FRAME WDN OAK 10X15CM0000001000+00003946+00000+0001T   00003946+0000001231          1400 GJ6510               2AZ
200264003200264368-000049     200264006003000536955PLUSH BEAR 15cm LOVE   0000001000+00004385+00000+0001T   00004385+0000001231          1400 GJ6745               2AZ
200265000200265               200265               170213BK     1400+00000+BK0000018193+0000018193+000000000+000002552+0000020745+0000000000+I40000020745+0000000000+Z
200265001200265159-000800     200265006001023167972BATHMAT ANTI-SLIP      0000001000+00002630+00000+0001T   00002630+0000001233          1400 GJ6200               2AZ
200265002200265112-116069     200265006009681820277TCS CARRIER BAG JUMBO  0000001000+00000048+00000+0001T   00000048+0000001233          1400 GJ6090               2AZ
200265003200265108-005010     200265006001023915016TRAY 45cmx31cm RECT    0000001000+00003507+00000+0001T   00003507+0000001233          1400 GJ6210               2AZ
200265004200265038-000205     200265006001926001205PLACE-MATS PVC ASSTD-C 0000004000+00001753+00000+0001T   00001753+0000001233          1400 GJ6300               2AZ
200265005200265039-000108     200265006001023524034TEA-LITE CANDLES 8PCE  0000001000+00001490+00000+0001T   00001490+0000001233          1400 GJ6510               2AZ
200265006200265088-000052     200265006001023760401T/FRESHENER CISTERN BLK0000001000+00000876+00000+0001T   00000876+0000001233          1400 GJ6212               2AZ
200265007200265088-000008     200265006003000623181AIR FRESHENER GEL ASSTD0000001000+00002630+00000+0001T   00002630+0000001233          1400 GJ6212               2AZ
200266000200266               200266               170213BK     1400+00000+BK0000002630+0000002630+000000000+000000369+0000002990+0000000009+I20000000000+0000002990+Z
200266001200266024-000071     200266006001023415653E/WHISK S/S & SILICONE 0000001000+00002630+00000+0001T   00002630+0000001241          1400 GJ6300               2AZ
200267000200267               200267               170213BK     1400+00000+BK0000001051+0000001051+000000000+000000148+0000001190+0000000009+I20000000000+0000001190+Z
200267001200267007-000119     200267006002324004126BOOK COVER PL          0000001000+00001051+00000+0001T   00001051+0000001242          1400 GJ6130               2AZ
200268000200268               200268               170213BK     1400+00000+BK0000027301+0000027301+000000000+000003824+0000031125+0000000000+I40000031125+0000000000+Z
200268001200268079-000358     200268006003000591046ART+CRAFT FELT-TIP PENS0000001000+00003069+00000+0001T   00003069+0000001343          1400 GJ6130               2AZ
200268002200268903-000922     200268006914204008158SWT ST NOVELTY CAR     0000001000+00002630+00000+0001T   00002630+0000001343          1400 GJ6150               2AZ
200268003200268567-013439     200268009781775785767EK KAN LEES ASSTD      0000001000+00003507+00000+0001T   00003507+0000001343          1400 GJ6757               2AZ
200268004200268567-013439     200268009781775785590EK KAN LEES ASSTD      0000001000+00003507+00000+0001T   00003507+0000001343          1400 GJ6757               2AZ
200268005200268567-013439     200268009781775785798EK KAN LEES ASSTD      0000001000+00003507+00000+0001T   00003507+0000001343          1400 GJ6757               2AZ
200268006200268567-010565     200268006003000572472BOOK AFRIKAANS CAT 2   0000003000+00003507+00000+0001T   00003507+0000001343          1400 GJ6757               2AZ
200268007200268903-000155     200268006009803374435SWT LOLLY I LUV U HEART0000001000+00000525+00000+0001T   00000525+0000001343          1400 GJ6150               2AZ
200268008200268112-116038     200268006009681820246TCS CARRIER BAG MIDI   0000001000+00000035+00000+0001T   00000035+0000001343          1400 GJ6090               2AZ
200269000200269               200269               170213BK     1400+00000+BK0000002489+0000002489+000000000+000000349+0000002830+0000000008+I20000000000+0000002830+Z
200269001200269077-000011-C   200269006001023808523TISSUE 10xSHTS RED     0000001000+00000876+00000+0001T   00000876+0000001345          1400 GJ6112               2AZ
200269002200269077-000303     200269006001023593757GIFT-BAG PAPER MED     0000001000+00001578+00000+0001T   00001578+0000001345          1400 GJ6112               2AZ
200269003200269112-116038     200269006009681820246TCS CARRIER BAG MIDI   0000001000+00000035+00000+0001T   00000035+0000001345          1400 GJ6090               2AZ
200270000200270               200270               170213BK     1400+00000+BK0000005262-0000005262-000000000+000000737-0000006000-0000000001+I20000000000+0000006000-Z
200270001200270072-000600     200270006003000148431PET DOG HARNESS NYLON  0000001000-00005262+00000+0001T   00005262+0000001401          1400 GJ68701IC            2 Z
200271000200271               200271               170213BK     1400+00000+BK0000004385+0000004385+000000000+000000614+0000004990+0000000009+I20000000000+0000004990+Z
200271001200271082-000105     200271006003000360369READING GLS STRNGHT:1.50000001000+00004385+00000+0001T   00004385+0000001402          1400 GJ6160               2AZ
200272000200272               200272               170213BK     1400+00000+BK0000001490+0000001490+000000000+000000209+0000001690+0000000009+I20000000000+0000001690+Z
200272001200272565-004101     200272006003000548033BALL BOUNCING EGG      0000001000+00001490+00000+0001T   00001490+0000001403          1400 GJ6745               2AZ
200273000200273               200273               170213BK     1400+00000+BK0000002192+0000002192+000000000+000000307+0000002490+0000000009+I20000000000+0000002490+Z
200273001200273566-000359     200273006003000582709STICKER BOOK LOVE SPARK0000001000+00002192+00000+0001T   00002192+0000001403          1400 GJ6130               2AZ
200274000200274               200274               170213BK     1400+00000+BK0000007716+0000007716+000000000+000001081+0000008790+0000000007+I20000000000+0000008790+Z
200274001200274078-013424     200274006008741000338CONTACT-ADHESIVE 50ml  0000001000+00001578+00000+0001T   00001578+0000001405          1400 GJ6810               2AZ
200274002200274071-001346     200274006001023912985HIGHLIGHTERS 4PCE CARD 0000001000+00002192+00000+0001T   00002192+0000001405          1400 GJ6130               2AZ
200274003200274002-000715     200274006001023806574CUTTING-BOARD 28x20cm  0000001000+00003946+00000+0001T   00003946+0000001405          1400 GJ6300               2AZ
200275000200275               200275               170213BK     1400+00000+BK0000007924+0000007924+000000000+000001112+0000009036+0000000000+I40000009036+0000000000+Z
200275001200275112-116038     200275006009681820246TCS CARRIER BAG MIDI   0000001000+00000035+00000+0001T   00000035+0000001407          1400 GJ6090               2AZ
200275002200275200-003024     200275006001023657299REFUSE BAGS 20PCE BLACK0000001000+00001753+00000+0001T   00001753+0000001407          1400 GJ6214               2AZ
200275003200275200-003026     200275006003000276448REFUSE BAGS 10PCE GREEN0000001000+00001753+00000+0001T   00001753+0000001407          1400 GJ6214               2AZ
200275004200275306-000011     200275006003000108527TOOTH DENTURE BRUSH    0000001000+00002630+00000+0001T   00002630+0000001407          1400 GJ6200               2AZ
200275005200275027-000409     200275006001023731012SCRUBBING-BRUSH 15,5cm 0000001000+00001753+00000+0001T   00001753+0000001407          1400 GJ6212               2AZ
200276000200276               200276               170213BK     1400+00000+BK0000005469+0000005469+000000000+000000766+0000006230+0000000005+I20000000000+0000006230+Z
200276001200276018-005009     200276006001023725608MUG W/PLUSH-BEAR LOVE  0000001000+00003507+00000+0001T   00003507+0000001408          1400 GJ6515               2AZ
200276002200276903-000848     200276008692806080076SWT SNACK BISCUIT 70g  0000001000+00000613+00000+0001T   00000613+0000001408          1400 GJ6150               2AZ
200276003200276903-005000     200276006002580020007SWT CT MALLOW FISH 120g0000001000+00001314+00000+0001T   00001314+0000001408          1400 GJ6150               2AZ
200276004200276112-116038     200276006009681820246TCS CARRIER BAG MIDI   0000001000+00000035+00000+0001T   00000035+0000001408          1400 GJ6090               2AZ
200277000200277               200277               170213BK     1400+00000+BK0000017149+0000017149+000000000+000002403+0000019550+0000000002+I20000000000+0000019550+Z
200277001200277112-116069     200277006009681820277TCS CARRIER BAG JUMBO  0000001000+00000048+00000+0001T   00000048+0000001409          1400 GJ6090               2AZ
200277002200277077-000270     200277006003000395453GIFT-BAG PPR JMB 33X45 0000001000+00002630+00000+0001T   00002630+0000001409          1400 GJ6112               2AZ
200277003200277560-000297     200277006003000469789ANIMAL SPIDER          0000001000+00002192+00000+0001T   00002192+0000001409          1400 GJ6745               2AZ
200277004200277368-000111     200277006001023780812PLUSH BEAR/DOG 29CM    0000001000+00012279+00000+0001T   00012279+0000001409          1400 GJ6745               2AZ
200278000200278               200278               170213BK     1400+00000+BK0000002192+0000002192+000000000+000000307+0000002490+0000000009+I20000000000+0000002490+Z
200278001200278206-000150     200278006003000628667SLICER CUCUMBER        0000001000+00002192+00000+0001T   00002192+0000001410          1400 GJ6321               2AZ
200279000200279               200279               170213BK     1400+00000+BK0000009208+0000009208+000000000+000001290+0000010498+0000000000+I40000010498+0000000000+Z
200279001200279080-000133     200279006003000535613CARD&ENV MINI ASTD DSGN0000001000+00000437+00000+0001T   00000437+0000001415          1400 GJ6112               2AZ
200279002200279586-010656     200279006001492106564WATCH BOYS SPORT CANVAS0000001000+00008771+00000+0001T   00008771+0000001415          1400 GJ6160               2AZ
200280000200280               200280               170213BK     1400+00000+BK0000002630+0000002630+000000000+000000369+0000002990+0000000009+I20000000000+0000002990+Z
200280001200280033-000005     200280006001023511584SHEET+IRN-BOARD-BND 4PC0000001000+00002630+00000+0001T   00002630+0000001417          1400 GJ6200               2AZ
200281000200281               200281               170213BK     1400+00000+BK0000000876+0000000876+000000000+000000123+0000000990+0000000009+I20000000000+0000000990+Z
200281001200281903-000297     200281006001704002950SWT MS WILD BERRY 50G  0000001000+00000876+00000+0001T   00000876+0000001417          1400 GJ6150               2AZ
200282000200282               200282               170213BK     1400+00000+BK0000007891+0000007891+000000000+000001106+0000008990+0000000007+I20000000000+0000008990+Z
200282001200282004-071270     200282006001023802156CD-DISCS WRITABLE 10PCE0000001000+00004385+00000+0001T   00004385+0000001421          1400 GJ6310               2AZ
200282002200282088-000011     200282006001023752826AIR-FRESHNER GEL ASSTD 0000002000+00001753+00000+0001T   00001753+0000001421          1400 GJ6212               2AZ
200283000200283               200283               170213BK     1400+00000+BK0000000613+0000000613+000000000+000000086+0000000690+0000000009+I20000000000+0000000690+Z
200283001200283304-001011     200283006001023806727FLWR ROSE RED W/BEAR   0000001000+00000613+00000+0001T   00000788+0006471421          1400 GJ6510               2AZ
200284000200284               200284               170213BK     1400+00000+BK0000003507+0000003507+000000000+000000491+0000003990+0000000008+I20000000000+0000003990+Z
200284001200284018-000136     200284006001023659026MUG OCC LOVE W/PLUSH   0000001000+00003507+00000+0001T   00003507+0000001423          1400 GJ6515               2AZ
200285000200285               200285               170213BK     1400+00000+BK0000005699+0000005699+000000000+000000798+0000006490+0000000007+I20000000000+0000006490+Z
200285001200285133-000017     200285006003000525171CLEANING-CLOTHS 5PCE   0000001000+00003507+00000+0001T   00003507+0000001425          1400 GJ6212               2AZ
200285002200285046-000012-A   200285006003000208296BATTERIES H/POWER SZ:AA0000001000+00002192+00000+0001T   00002192+0000001425          1400 GJ6312               2AZ
200286000200286               200286               170213BK     1400+00000+BK0000004031+0000004031+000000000+000000566+0000004590+0000000007+I20000000000+0000004590+Z
200286001200286366-002101     200286006003000617715DRESS UP MASK LIGHT UP 0000001000+00002630+00000+0001T   00002630+0000001428          1400 GJ6131               2AZ
200286002200286903-003080     200286005907029004673SWT SNACK STIX CHOC 50g0000001000+00000876+00000+0001T   00000876+0000001428          1400 GJ6150               2AZ
200286003200286903-000077     200286006939873501687SWT GS MAGIC ROCK FRUIT0000001000+00000525+00000+0001T   00000525+0000001428          1400 GJ6150               2AZ
200287000200287               200287               170213BK     1400+00000+BK0000009255+0000009255+000000000+000001297+0000010552+0000000000+I40000010552+0000000000+Z
200287001200287112-116069     200287006009681820277TCS CARRIER BAG JUMBO  0000001000+00000048+00000+0001T   00000048+0000001438          1400 GJ6090               2AZ
200287002200287366-000125     200287006003000006786DRESSUP WINGS/WAND/BAND0000001000+00005262+00000+0001T   00005262+0000001438          1400 GJ6131               2AZ
200287003200287366-007600     200287006001023902184MASK THEATRICAL GLITTER0000001000+00001753+00000+0001T   00001753+0000001438          1400 GJ6131               2AZ
200287004200287200-000010     200287006925406841061BAG ZIPPERSEAL 35PC    0000001000+00002192+00000+0001T   00002192+0000001438          1400 GJ6214               2AZ
200288000200288               200288               170213BK     1400+00000+BK0000004385+0000004385+000000000+000000614+0000004990+0000000009+I20000000000+0000004990+Z
200288001200288486-001012     200288006001023820907CLOCK ALARM SQR 10X12CM0000001000+00004385+00000+0001T   00004385+0000001454          1400 GJ6510               2AZ
200289000200289               200289               170213BK     1400+00000+BK0000009732+0000009732+000000000+000001363+0000011090+0000000005+I20000000000+0000011090+Z
200289001200289266-001305     200289006001023560735MARBLES 45MM 3PC PLANET0000001000+00001578+00000+0001T   00001578+0000001506          1400 GJ6710               2AZ
200289002200289266-010101     200289006001023331885MARBLES 16mm 90 PC     0000001000+00001578+00000+0001T   00001578+0000001506          1400 GJ6710               2AZ
200289003200289003-008018     200289006003000252336ORN SIGN FLOWER GARDEN 0000001000+00003069+00000+0001T   00003069+0000001506          1400 GJ6505               2AZ
200289004200289003-009100     200289006001023999320ORN S/STONES GNOMES ASS0000001000+00003507+00000+0001T   00003507+0000001506          1400 GJ6505               2AZ
200290000200290               200290               170213BK     1400+00000+BK0000010299+0000010299+000000000+000001447+0000011740+0000000006+I20000000000+0000011740+Z
200290001200290903-000911     200290006009802868454SWT ST GUM TAPE BARBIE 0000001000+00001753+00000+0001T   00001753+0000001526          1400 GJ6150               2AZ
200290002200290903-000087     200290006001704000161SWT SPECKLED-EGGS 50G  0000002000+00001139+00000+0001T   00001139+0000001526          1400 GJ6150               2AZ
200290003200290071-005214     200290006003000152544CELLOTAPE SUPER REFILL 0000001000+00001490+00000+0001T   00001490+0000001526          1400 GJ6130               2AZ
200290004200290018-000170     200290006001023775528MUG OCC. LOVE 2PC MINI 0000001000+00002192+00000+0001T   00002192+0000001526          1400 GJ6515               2AZ
200290005200290079-001006     200290006003000677979ART+CRAFT STENCIL      0000001000+00001227+00000+0001T   00001227+0000001526          1400 GJ6130               2AZ
200290006200290112-116069     200290006009681820277TCS CARRIER BAG JUMBO  0000001000+00000048+00000+0001T   00000048+0000001526          1400 GJ6090               2AZ
200290007200290080-000133     200290006003000535613CARD&ENV MINI ASTD DSGN0000002000+00000437+00000+0001T   00000437+0000001526          1400 GJ6112               2AZ
200290008200290080-000133-A   200290006003000647019MINI VALENTINES CARD   0000001000+00000437+00000+0001T   00000437+0000001526          1400 GJ6112               2AZ
200291000200291               200291               170213BK     1400+00000+BK0000033330+0000033330+000000000+000004668+0000037990+0000000008+I20000000000+0000037990+Z
200291001200291105-007525     200291006003000487707STORAGE BOX CLEAR 21L  0000002000+00016665+00000+0001T   00016665+0000001532          1400 GJ6210               2AZ
200292000200292               200292               170213BK     1400+00000+BK0000003506+0000003506+000000000+000000492+0000003990+0000000008+I20000000000+0000003990+Z
200292001200292030-000030-A   200292006003000249305PLAQUE GLASS LOVE      0000001000+00003069+00000+0001T   00003069+0000001533          1400 GJ6505               2AZ
200292002200292080-000133-A   200292006003000647019MINI VALENTINES CARD   0000001000+00000437+00000+0001T   00000437+0000001533          1400 GJ6112               2AZ
200293000200293               200293               170213BK     1400+00000+BK0000007062+0000007062+000000000+000000989+0000008050+0000000001+I20000000000+0000008050+Z
200293001200293036-000515     200293006001023817402HOOK-HANGER PL-CTD 10HK0000002000+00003507+00000+0001T   00003507+0000001534          1400 GJ6212               2AZ
200293002200293112-116069     200293006009681820277TCS CARRIER BAG JUMBO  0000001000+00000048+00000+0001T   00000048+0000001534          1400 GJ6090               2AZ
200294000200294               200294               170213BK     1400+00000+BK0000014911+0000014911+000000000+000002088+0000016999+0000000000+I40000016999+0000000000+Z
200294001200294203-005011     200294006003000539888DRINKING GAME GLASS    0000001000+00014911+00000+0001T   00014911+0000001537          1400 GJ6300               2AZ
200295000200295               200295               170213BK     1400+00000+BK0000000436+0000000436+000000000+000000062+0000000490+0000000008+I20000000000+0000000490+Z
200295001200295903-000671     200295006009803358015SWT SHERBET BLUE LIPS  0000001000+00000218+00000+0001T   00000218+0000001538          1400 GJ6150               2AZ
200295002200295903-000670     200295006009803358008SWT SHERBET RED LIPS   0000001000+00000218+00000+0001T   00000218+0000001538          1400 GJ6150               2AZ
200296000200296               200296               170213BK     1400+00000+BK0000002630+0000002630+000000000+000000369+0000002990+0000000009+I20000000000+0000002990+Z
200296001200296018-000129     200296006001023403353MUG OCC. LOVE V-SHAPE  0000001000+00002630+00000+0001T   00002630+0000001541          1400 GJ6515               2AZ
200297000200297               200297               170213BK     1400+00000+BK0000002628+0000002628+000000000+000000368+0000002990+0000000006+I20000000000+0000002990+Z
200297001200297006-000166-D   200297006003000516490BALLOONS LRG 6PC RED   0000001000+00001314+00000+0001T   00001314+0000001542          1400 GJ6131               2AZ
200297002200297006-000166-H   200297006003000608096BALLOONS HELIUM 6PC WHT0000001000+00001314+00000+0001T   00001314+0000001542          1400 GJ6131               2AZ
200298000200298               200298               170213BK     1400+00000+BK0000001490+0000001490+000000000+000000209+0000001690+0000000009+I20000000000+0000001690+Z
200298001200298039-000108     200298006001023524034TEA-LITE CANDLES 8PCE  0000001000+00001490+00000+0001T   00001490+0000001542          1400 GJ6510               2AZ
200299000200299               200299               170213BK     1400+00000+BK0000012137+0000012137+000000000+000001700+0000013837+0000000000+I40000013837+0000000000+Z
200299001200299031-080508     200299006001023802415P/FRAME PL 22X11CM LOVE0000001000+00004385+00000+0001T   00004385+0000001547          1400 GJ6510               2AZ
200299002200299080-000124     200299006003000297733CARD & ENV VALENTINES  0000001000+00001578+00000+0001T   00001578+0000001547          1400 GJ6112               2AZ
200299003200299018-050000     200299006003000412679MUG OCC LOVE TWIN BEAR 0000001000+00006139+00000+0001T   00006139+0000001547          1400 GJ6515               2AZ
200299004200299112-116038     200299006009681820246TCS CARRIER BAG MIDI   0000001000+00000035+00000+0001T   00000035+0000001547          1400 GJ6090               2AZ
200300000200300               200300               170213BK     1400+00000+BK0000006570+0000006570+000000000+000000920+0000007490+0000000000+I20000000000+0000007490+Z
200300001200300006-000166-D   200300006003000516490BALLOONS LRG 6PC RED   0000003000+00001314+00000+0001T   00001314+0000001548          1400 GJ6131               2AZ
200300002200300006-000166-H   200300006003000608096BALLOONS HELIUM 6PC WHT0000002000+00001314+00000+0001T   00001314+0000001548          1400 GJ6131               2AZ
200301000200301               200301               170213BK     1400+00000+BK0000002665+0000002665+000000000+000000374+0000003030+0000000009+I20000000000+0000003030+Z
200301001200301079-105310     200301006003000588947ART+CRAFT PAINT PALETTE0000001000+00002630+00000+0001T   00002630+0000001549          1400 GJ6130               2AZ
200301002200301112-116038     200301006009681820246TCS CARRIER BAG MIDI   0000001000+00000035+00000+0001T   00000035+0000001549          1400 GJ6090               2AZ
200302000200302               200302               170213BK     1400+00000+BK0000043527+0000043527+000000000+000006102+0000049629+0000000000+I40000049629+0000000000+Z
200302001200302112-116069     200302006009681820277TCS CARRIER BAG JUMBO  0000001000+00000048+00000+0001T   00000048+0000001558          1400 GJ6090               2AZ
200302002200302036-000151     200302006001023810588COATHANGERS    PACK-10 0000001000+00002893+00000+0001T   00002893+0000001558          1400 GJ6212               2AZ
200302003200302566-000359     200302006003000582709STICKER BOOK LOVE SPARK0000001000+00002192+00000+0001T   00002192+0000001558          1400 GJ6130               2AZ
200302004200302080-000139     200302006003000611690CARD & ENV MINI SET 6PC0000001000+00002192+00000+0001T   00002192+0000001558          1400 GJ6112               2AZ
200302005200302206-000350     200302006003000633265EGG MOULD SUNRISE      0000001000+00002630+00000+0001T   00002630+0000001558          1400 GJ6321               2AZ
200302006200302903-000120     200302006002099001665SWEET GS ZILLIONS 50g  0000001000+00000700+00000+0001T   00000700+0000001558          1400 GJ6150               2AZ
200302007200302077-000303     200302006001023593757GIFT-BAG PAPER MED     0000001000+00001578+00000+0001T   00001578+0000001558          1400 GJ6112               2AZ
200302008200302018-000177     200302006001023797513MUG MINI LOVE ASSTD    0000002000+00000700+00000+0001T   00000700+0000001558          1400 GJ6515               2AZ
200302009200302560-000700     200302006001023865830GROWING ANIMALS ASSTD  0000002000+00001578+00000+0001T   00001578+0000001558          1400 GJ6745               2AZ
200302010200302565-000013     200302006003000672233NOVELTY TWISTY 21cm    0000001000+00000876+00000+0001T   00000876+0000001558          1400 GJ6745               2AZ
200302011200302089-060027     200302006003000245871KEY-CHAIN HEART 6X6cm  0000002000+00003069+00000+0001T   00003069+0000001558          1400 GJ6205               2AZ
200302012200302039-000114     200302006001023524058CANDLE T/LITE RED 3.5CM0000001000+00001753+00000+0001T   00001753+0000001558          1400 GJ6510               2AZ
200302013200302565-000044     200302006003000128280BARREL OF SLIME 100g   0000001000+00000613+00000+0001T   00000613+0000001558          1400 GJ6745               2AZ
200302014200302368-000100     200302006001023474742PLUSH MD BEAR 12cm     0000001000+00002630+00000+0001T   00002630+0000001558          1400 GJ6745               2AZ
200302015200302301-085001     200302006003000297610ORN WATERBALL LOVE ASST0000001000+00004823+00000+0001T   00004823+0000001558          1400 GJ6505               2AZ
200302016200302903-000919     200302006009802868577SWEET NOVELTY LASER POP0000001000+00001753+00000+0001T   00001753+0000001558          1400 GJ6150               2AZ
200302017200302565-004101     200302006003000548033BALL BOUNCING EGG      0000001000+00001490+00000+0001T   00001490+0000001558          1400 GJ6745               2AZ
200302018200302903-000087     200302006001704000161SWT SPECKLED-EGGS 50G  0000002000+00001139+00000+0001T   00001139+0000001558          1400 GJ6150               2AZ
200302019200302080-000127     200302006003000424351VALENTINES DAY 36x24CM 0000002000+00002192+00000+0001T   00002192+0000001558          1400 GJ6112               2AZ
200303000200303               200303               170213BK     1400+00000+BK0000021181+0000021181+000000000+000002969+0000024150+0000000000+I20000000000+0000024150+Z
200303001200303112-116069     200303006009681820277TCS CARRIER BAG JUMBO  0000001000+00000048+00000+0001T   00000048+0000001601          1400 GJ6090               2AZ
200303002200303361-003011     200303006003000397334DOLL 29CM:BONNIE LOVES 0000001000+00007016+00000+0001T   00007016+0000001601          1400 GJ6725               2AZ
200303003200303366-000255     200303006001023918413DRESS UP TIARA CROWN   0000001000+00003069+00000+0001T   00003069+0000001601          1400 GJ6131               2AZ
200303004200303065-003639     200303006001023787620GUITAR ROCKER          0000001000+00007016+00000+0001T   00007016+0000001601          1400 GJ6745               2AZ
200303005200303365-000072     200303006003000012664PLAY-SET PL B/O MICROPH0000001000+00002630+00000+0001T   00003507+0008191601          1400 GJ6725               2AZ
200303006200303046-000011     200303004897006172994BATTERIES SIZE:AA  2PCE0000001000+00001402+00000+0001T   00001402+0000001601          1400 GJ6312               2AZ
200304000200304               200304               170213BK     1400+00000+BK0000006139+0000006139+000000000+000000860+0000006990+0000000009+I20000000000+0000006990+Z
200304001200304264-000922     200304000090159250012MAISTO CAR PULL-BACK   0000001000+00006139+00000+0001T   00007016+0008191620          1400 GJ6710               2AZ
200305000200305               200305               170213BK     1400+00000+BK0000007147+0000007147+000000000+000001003+0000008150+0000000000+I20000000000+0000008150+Z
200305001200305072-020320     200305006003000603343PET DOG TOY TUG-ROPE   0000001000+00002630+00000+0001T   00002630+0000001622          1400 GJ6870               2AZ
200305002200305903-000155     200305006009803374435SWT LOLLY I LUV U HEART0000001000+00000525+00000+0001T   00000525+0000001622          1400 GJ6150               2AZ
200305003200305080-000133-A   200305006003000647019MINI VALENTINES CARD   0000001000+00000437+00000+0001T   00000437+0000001622          1400 GJ6112               2AZ
200305004200305072-020278     200305006003000024100PET CAT LITTER PAN PL  0000001000+00003507+00000+0001T   00003507+0000001622          1400 GJ6870               2AZ
200305005200305112-116069     200305006009681820277TCS CARRIER BAG JUMBO  0000001000+00000048+00000+0001T   00000048+0000001622          1400 GJ6090               2AZ
200306000200306               200306               170213BK     1400+00000+BK0000002630+0000002630+000000000+000000369+0000002999+0000000000+I40000002999+0000000000+Z
200306001200306366-002101     200306006003000617715DRESS UP MASK LIGHT UP 0000001000+00002630+00000+0001T   00002630+0000001624          1400 GJ6131               2AZ
200307000200307               200307               170213BK     1400+00000+BK0000003542+0000003542+000000000+000000496+0000004030+0000000008+I20000000000+0000004030+Z
200307001200307018-000136     200307006001023659026MUG OCC LOVE W/PLUSH   0000001000+00003507+00000+0001T   00003507+0000001625          1400 GJ6515               2AZ
200307002200307112-116038     200307006009681820246TCS CARRIER BAG MIDI   0000001000+00000035+00000+0001T   00000035+0000001625          1400 GJ6090               2AZ
200308000200308               200308               170213BK     1400+00000+BK0000009233+0000009233+000000000+000001293+0000010520+0000000006+I20000000000+0000010520+Z
200308001200308006-000166-G   200308006003000607976BALLOONS HELIUM 6PC BLK0000003000+00001314+00000+0001T   00001314+0000001626          1400 GJ6131               2AZ
200308002200308006-000166-H   200308006003000608096BALLOONS HELIUM 6PC WHT0000004000+00001314+00000+0001T   00001314+0000001626          1400 GJ6131               2AZ
200308003200308112-116038     200308006009681820246TCS CARRIER BAG MIDI   0000001000+00000035+00000+0001T   00000035+0000001626          1400 GJ6090               2AZ
200309000200309               200309               170213BK     1400+00000+BK0000007015+0000007015+000000000+000000983+0000007998+0000000000+I40000007998+0000000000+Z
200309001200309566-000200     200309006003000384174STICKER PUFFY NEON     0000001000+00000876+00000+0001T   00000876+0000001628          1400 GJ6130               2AZ
200309002200309567-075470     200309009780007795352BK NOVEL CATEGORY B    0000001000+00006139+00000+0001T   00006139+0000001628          1400 GJ6757               2AZ
200310000200310               200310               170213BK     1400+00000+BK0000003507+0000003507+000000000+000000491+0000003990+0000000008+I20000000000+0000003990+Z
200310001200310031-005853     200310006003000442416P/FRAME WDN TWIN HEARTS0000001000+00003507+00000+0001T   00003507+0000001628          1400 GJ6510               2AZ
200311000200311               200311               170213BK     1400+00000+BK0000012831+0000012831+000000000+000001797+0000014628+0000000000+I40000014628+0000000000+Z
200311001200311079-013102     200311006003000019601ART+CRAFT DIY PIPE-CLNR0000001000+00002192+00000+0001T   00002192+0000001630          1400 GJ6130               2AZ
200311002200311368-000171     200311006003000233250PLUSH BEAR 14cm        0000001000+00005262+00000+0001T   00005262+0000001630          1400 GJ6745               2AZ
200311003200311018-000177     200311006001023797513MUG MINI LOVE ASSTD    0000002000+00000700+00000+0001T   00000700+0000001630          1400 GJ6515               2AZ
200311004200311077-000470     200311006003000330171G-BAG DESGN SML 11X14CM0000003000+00001314+00000+0001T   00001314+0000001630          1400 GJ6112               2AZ
200311005200311112-116038     200311006009681820246TCS CARRIER BAG MIDI   0000001000+00000035+00000+0001T   00000035+0000001630          1400 GJ6090               2AZ
200312000200312               200312               170213BK     1400+00000+BK0000012713+0000012713+000000000+000001782+0000014490+0000000005+I20000000000+0000014490+Z
200312001200312089-000028     200312006003000622252K/CHAIN MTL RELIGIOUS  0000003000+00001753+00000+0001T   00001753+0000001631          1400 GJ6205               2AZ
200312002200312158-000167     200312006003000569588WASTEPAPER-BASKET 26cm 0000001000+00005262+00000+0001T   00005262+0000001631          1400 GJ6300               2AZ
200312003200312467-000004     200312006001023347596NET FISHING 100cm LONG 0000001000+00002192+00000+0001T   00002192+0000001631          1400 GJ6785               2AZ
200313000200313               200313               170213BK     1400+00000+BK0000006962+0000006962+000000000+000000976+0000007938+0000000000+I40000007938+0000000000+Z
200313001200313072-000423     200313006001023606143DOG-LEAD 5m RETRACTABLE0000001000+00006139+00000+0001T   00006139+0000001633          1400 GJ6870               2AZ
200313002200313112-116038     200313006009681820246TCS CARRIER BAG MIDI   0000001000+00000035+00000+0001T   00000035+0000001633          1400 GJ6090               2AZ
200313003200313903-000138     200313006002099004314SWT GS WINE GUMS 60G   0000001000+00000788+00000+0001T   00000788+0000001633          1400 GJ6150               2AZ
200314000200314               200314               170213BK     1400+00000+BK0000015761+0000015761+000000000+000002214+0000017975+0000000000+I40000017975+0000000000+Z
200314001200314018-005009     200314006001023725608MUG W/PLUSH-BEAR LOVE  0000001000+00003507+00000+0001T   00003507+0000001639          1400 GJ6515               2AZ
200314002200314301-085003     200314006003000420827ORN OCCASION LOVE KEY  0000001000+00005262+00000+0001T   00005262+0000001639          1400 GJ6505               2AZ
200314003200314077-000303     200314006001023593757GIFT-BAG PAPER MED     0000001000+00001578+00000+0001T   00001578+0000001639          1400 GJ6112               2AZ
200314004200314112-116038     200314006009681820246TCS CARRIER BAG MIDI   0000001000+00000035+00000+0001T   00000035+0000001639          1400 GJ6090               2AZ
200314005200314903-000155     200314006009803374435SWT LOLLY I LUV U HEART0000008000+00000525+00000+0001T   00000525+0000001639          1400 GJ6150               2AZ
200314006200314903-000183     200314006003000451043SWT LB HEART LOLLY     0000003000+00000393+00000+0001T   00000393+0000001639          1400 GJ6150               2AZ
200315000200315               200315               170213BK     1400+00000+BK0000001578+0000001578+000000000+000000221+0000001790+0000000009+I20000000000+0000001790+Z
200315001200315018-000127     200315006001023380289MUG OCC STRAIGHT LOVE  0000001000+00001578+00000+0001T   00001753+0006471641          1400 GJ6515               2AZ
200316000200316               200316               170213BK     1400+00000+BK0000004385+0000004385+000000000+000000614+0000004990+0000000009+I20000000000+0000004990+Z
200316001200316006-000190     200316006003000685530BALLOONS LOVE 81x91cm  0000001000+00004385+00000+0001T   00004385+0000001642          1400 GJ6131               2AZ
200317000200317               200317               170213BK     1400+00000+BK0000001314+0000001314+000000000+000000184+0000001490+0000000008+I20000000000+0000001490+Z
200317001200317006-000167-B   200317006003000516858BALLOONS BLUE METALLIC 0000001000+00001314+00000+0001T   00001314+0000001642          1400 GJ6131               2AZ
200318000200318               200318               170213BK     1400+00000+BK0000002630+0000002630+000000000+000000369+0000002990+0000000009+I20000000000+0000002990+Z
200318001200318304-000720     200318006001023843050F/BUNCH ROSE 6-HEAD AST0000001000+00002630+00000+0001T   00002630+0000001643          1400 GJ6510               2AZ
200319000200319               200319               170213BK     1400+00000+BK0000001490+0000001490+000000000+000000209+0000001690+0000000009+I20000000000+0000001690+Z
200319001200319077-000299     200319006003000395576G/BAG 32x25cm LRG LOVE 0000001000+00001490+00000+0001T   00001490+0000001644          1400 GJ6112               2AZ
200320000200320               200320               170213BK     1400+00000+BK0000009206+0000009206+000000000+000001290+0000010496+0000000000+I40000010496+0000000000+Z
200320001200320046-000012-A   200320006003000208296BATTERIES H/POWER SZ:AA0000001000+00002192+00000+0001T   00002192+0000001647          1400 GJ6312               2AZ
200320002200320566-000006     200320006001023671189STICKER-BOOK DRESS-UP  0000001000+00002630+00000+0001T   00002630+0000001647          1400 GJ6130               2AZ
200320003200320007-000597     200320006009699511129MARLIN SLF ADHESIVE 2M 0000001000+00002192+00000+0001T   00002192+0000001647          1400 GJ6130               2AZ
200320004200320563-000318-L   200320006003000407088SERVIETTES 33cm RED    0000001000+00002192+00000+0001T   00002192+0000001647          1400 GJ6214               2AZ
200321000200321               200321               170213BK     1400+00000+BK0000003103+0000003103+000000000+000000435+0000003530+0000000008+I20000000000+0000003530+Z
200321001200321071-005213     200321006001023690371CELLOTAPE 12mmx33m     0000001000+00000876+00000+0001T   00000876+0000001647          1400 GJ6130               2AZ
200321002200321079-013102     200321006003000019601ART+CRAFT DIY PIPE-CLNR0000001000+00002192+00000+0001T   00002192+0000001647          1400 GJ6130               2AZ
200321003200321112-116038     200321006009681820246TCS CARRIER BAG MIDI   0000001000+00000035+00000+0001T   00000035+0000001647          1400 GJ6090               2AZ
200322000200322               200322               170213BK     1400+00000+BK0000002192+0000002192+000000000+000000307+0000002490+0000000009+I20000000000+0000002490+Z
200322001200322079-013102     200322006003000019601ART+CRAFT DIY PIPE-CLNR0000001000+00002192+00000+0001T   00002192+0000001653          1400 GJ6130               2AZ
200323000200323               200323               170213BK     1400+00000+BK0000001753+0000001753+000000000+000000246+0000001990+0000000009+I20000000000+0000001990+Z
200323001200323080-000113     200323006003000237449CARD&ENVLPE - LOVE     0000001000+00001753+00000+0001T   00001753+0000001656          1400 GJ6112               2AZ
M17021391                              CASH        BKSLAVE 2                       Z-REPORT No.   624TOTAL (Sales - Refunds)           7340.30       CASH TO BE BANKED                 3655.30       DEBIT CARDS                          0.00       CREDIT CARDS                      3685.00       Z-READING                         7340.30       AIRTIME DEBIT CARD SALES             0.00       AIRTIME CARD SALES                   0.00       OVERS/UNDERS                         0.00       AIRTIME CASH SALES                   0.00       GIFT CARDS                           0.00       GIFT CARD CASH SALES                 0.00       T O T A L  CASH PAYOUTS              0.00                                                                                                                                                                                                                                                                                                                                                      Z
M17021392                              CASH        BKABSENT                                                                                                                                                                                          ANNUAL LEAVE                                                                                                                                                                                    DAY OFF                                                                                                                                                                                         COMMENTS                                                                                                                                                                                                                                                                                                                                                                                       Z
Y17021300                                          BK00000000660888+000086
ZBK17021319203 SLAVE 2      SALES DATA                     NEXT INVOICE NO.  200324 0624
X BK Slave 2 First invoice 200237 170213 Last invoice 200323 170213 Next invoice 200324 Total number of records 000000344 clbackup completed 19:20:51
