400529000400529               400529               170213BK     1400+00000+BK0000175486+0000175486+000000000+000024582+0000200068+           I90000000000+0000000000+Z
400529001400529265-000216     400529006001023681423CAR B/O RACING-SET 36PC0000001000+00021051+00000+0001T032855330000                    1400 1IC7101ICV             Z
400529002400529105-001075     400529006001023844873LUNCH BOX 17x11x7cm    0000001000+00003069+00000+0001T032855330000                    1400 1IC2101ICV             Z
400529003400529071-002887     400529006001023821935CALCULATOR DESKTOP 12DG0000002000+00005262+00000+0001T032855330000                    1400 1IC1301ICV             Z
400529004400529265-000322     400529000771171140207BATTERY MOTORBIKE QUAD 0000001000+00010525+00000+0001T032855330000                    1400 1IC7101ICV             Z
400529005400529562-006269     400529006001023658647BOARD EASY-WRITER+PEN  0000001000+00014911+00000+0001T032855330000                    1400 1IC7551ICV             Z
400529006400529103-000474     400529006003000630363BAMBOO FLOWER BASKET   0000001000+00005262+00000+0001T032855330000                    1400 1IC3001ICV             Z
400529007400529265-000382     400529006001023791375CAR BUMP-N-GO W/SND+LGH0000001000+00006139+00000+0001T032855330000                    1400 1IC7101ICV             Z
400529008400529486-001017     400529006003000384501C/WALL QTZ PL RND 31cm 0000001000+00010525+00000+0001T032855330000                    1400 1IC5101ICV             Z
400529009400529016-002010     400529006003000674480S/BOTTLE GLS W/CAP 1L  0000001000+00003946+00000+0001T032855330000                    1400 1IC3001ICV             Z
400529010400529560-000229     400529006003000469468ANIMALS BIG EYES ASSTD 0000005000+00006139+00000+0001T032855330000                    1400 1IC7451ICV             Z
400529011400529564-000012     400529006001023130075BUBBLE BOTTLE MAGIC    0000001000+00000700+00000+0001T032855330000                    1400 1IC1311ICV             Z
400529012400529051-600710     400529006003000604432S/GARDEN SPOT-LIGHT LED0000001000+00007016+00000+0001T032855330000                    1400 1IC8201ICV             Z
400529013400529106-001125     400529006003000666270WATER BOTTLE 600ml     0000001000+00002630+00000+0001T032855330000                    1400 1IC2101ICV             Z
400529014400529046-000011-VP  400529006003000537839BATTERIES SIZE:AA 12PCE0000002000+00006578+00000+0001T032855330000                    1400 1IC3121ICV             Z
400529015400529031-006528     400529006001023670083FRAME 13x18cm FLOWERS  0000001000+00002630+00000+0001T032855330000                    1400 1IC5101ICV             Z
400529016400529266-000503     400529006001023791740TRANSFORMER WARRIOR 8cm0000001000+00001753+00000+0001T032855330000                    1400 1IC7101ICV             Z
400529017400529046-000011     400529004897006172994BATTERIES SIZE:AA  2PCE0000003000+00001402+00000+0001T032855330000                    1400 1IC3121ICV             Z
400529018400529046-000012     400529006904708013062BATTERIES AA  CARD-OF-40000001000+00001314+00000+0001T032855330000                    1400 1IC3121ICV             Z
400529019400529071-001012     400529006001023474445MARKERS BLACK ROUND    0000001000+00000876+00000+0001T032855330000                    1400 1IC1301ICV             Z
400529020400529586-010753     400529006001492107530WATCH LDS MTL ASSTD    0000001000+00011402+00000+0001T032855330000                    1400 1IC1601ICV             Z
400529021400529031-000868-D   400529006003000580330P/FRAME PL BLCK CERT.  0000001000+00004385+00000+0001T032855330000                    1400 1IC5101ICV             Z
400529022400529486-002307     400529006003000443086W/CLOCK QTZ PL ANTIQUE 0000001000+00008771+00000+0001T032855330000                    1400 1IC5101ICV             Z
400530000400530               400530               170213BK     1400+00000+BK0000071740+0000071740+000000000+000010057+0000081797+           I90000000000+0000000000+Z
400530001400530261-008349     400530006001023787590CAP-GUN 8-SHOT         0000001000+00002192+00000+0001T032855340000                    1400 1IC7101ICV             Z
400530002400530108-001035     400530006001023582546TUMBLER HI-BALL CLEAR  0000001000+00000744+00000+0001T032855340000                    1400 1IC2101ICV             Z
400530003400530112-116038     400530006009681820246TCS CARRIER BAG MIDI   0000002000+00000035+00000+0001T032855340000                    1400 1IC0901ICV             Z
400530004400530039-000794     400530006946859289958CANDLE T/LITE 3PC LED  0000001000+00004385+00000+0001T032855340000                    1400 1IC5101ICV             Z
400530005400530039-000318     400530006003000406159B/DAY CANDLES SMALL NO 0000001000+00001753+00000+0001T032855340000                    1400 1IC5101ICV             Z
400530006400530564-000012     400530006001023130075BUBBLE BOTTLE MAGIC    0000002000+00000700+00000+0001T032855340000                    1400 1IC1311ICV             Z
400530007400530048-000859     400530006003000423422TORCH 9 LED PL 3XAAA   0000001000+00001753+00000+0001T032855340000                    1400 1IC3051ICV             Z
400530008400530050-000889     400530006001023821102PADLOCK COMB RESETABLE 0000001000+00002630+00000+0001T032855340000                    1400 1IC8551ICV             Z
400530009400530071-000672     400530006003000138975STATIONERY CLIPS PAPER 0000001000+00002192+00000+0001T032855340000                    1400 1IC1301ICV             Z
400530010400530564-000012     400530006001023130075BUBBLE BOTTLE MAGIC    0000001000+00000700+00000+0001T032855340000                    1400 1IC1311ICV             Z
400530011400530039-000794     400530006946859289958CANDLE T/LITE 3PC LED  0000001000+00004385+00000+0001T032855340000                    1400 1IC5101ICV             Z
400530012400530039-000337     400530006003000293513B'DAY-CANDLES MUSICAL  0000001000+00002630+00000+0001T032855340000                    1400 1IC5101ICV             Z
400530013400530565-000050     400530006001023906199SLIME BOMB DISPLAY BOX 0000001000+00001753+00000+0001T032855340000                    1400 1IC7451ICV             Z
400530014400530072-000329     400530006001023904706PET CAT COLLAR LINING  0000001000+00002630+00000+0001T032855340000                    1400 1IC8701ICV             Z
400530015400530082-098768     400530006001492987682SUNGLASS MENS METAL RIM0000001000+00007016+00000+0001T032855340000                    1400 1IC1601ICV             Z
400530016400530037-000004     400530006001023763679ASHTRAY PL TUB 8X11CM  0000001000+00001753+00000+0001T032855340000                    1400 1IC5151ICV             Z
400530017400530006-006018-B   400530006003000008278PARTY-SPRAY HAIR NEON  0000001000+00002630+00000+0001T032855340000                    1400 1IC1311ICV             Z
400530018400530071-001019     400530006001023474513MARKER BLACK NAME-PEN  0000002000+00000876+00000+0001T032855340000                    1400 1IC1301ICV             Z
400530019400530072-000232     400530006003000236060DOG-COL REFLCTV 35-51cm0000001000+00001753+00000+0001T032855340000                    1400 1IC8701ICV             Z
400530020400530586-010657     400530006001492106571WATCH GIRLS SPORT      0000001000+00008771+00000+0001T032855340000                    1400 1IC1601ICV             Z
400530021400530082-007580     400530006003000698523SUNGLASS MENS DESIGNER 0000001000+00005262+00000+0001T032855340000                    1400 1IC1601ICV             Z
400530022400530039-000021     400530006003000285907C/TAPERED 25CM M/SILVER0000001000+00001051+00000+0001T032855340000                    1400 1IC5101ICV             Z
400530023400530564-000035     400530006003000301836BUBBLE NOVELTY SWORD   0000001000+00001753+00000+0001T032855340000                    1400 1IC1311ICV             Z
400530024400530082-000110     400530006003000360482READING GLS STRENGHT:2 0000001000+00004385+00000+0001T032855340000                    1400 1IC1601ICV             Z
400530025400530027-000010-B   400530006009635020104SHOE-BRUSH BLACK       0000001000+00000525+00000+0001T032855340000                    1400 1IC2121ICV             Z
400530026400530162-093149     400530006001492931494#TAG PINKS FLOWER DROP 0000001000+00000876+00000+0001T032855340000                    1400 1IC1601ICV             Z
400530027400530565-000015     400530006003000672035NOVELTY SLIME ANIMAL   0000001000+00002192+00000+0001T032855340000                    1400 1IC7451ICV             Z
400530028400530903-000907     400530006009802868324SWEET LASER BARBIE     0000001000+00002016+00000+0001T032855340000                    1400 1IC1501ICV             Z
400530029400530903-000892     400530008693029700420SWT NOVELTY CHOCO CREAM0000001000+00000788+00000+0001T032855340000                    1400 1IC1501ICV             Z
M17021391                              CASH        BKSLAVE 4                       Z-REPORT No.   443TOTAL (Sales - Refunds)              0.00       CASH TO BE BANKED                    0.00       DEBIT CARDS                          0.00       CREDIT CARDS                         0.00       Z-READING                            0.00       AIRTIME DEBIT CARD SALES             0.00       AIRTIME CARD SALES                   0.00       OVERS/UNDERS                         0.00       AIRTIME CASH SALES                   0.00       GIFT CARDS                           0.00       GIFT CARD CASH SALES                 0.00       T O T A L  CASH PAYOUTS              0.00                                                                                                                                                                                                                                                                                                                                                      Z
M17021392                              CASH        BKABSENT                                                                                                                                                                                          ANNUAL LEAVE                                                                                                                                                                                    DAY OFF                                                                                                                                                                                         COMMENTS                                                                                                                                                                                                                                                                                                                                                                                       Z
Y17021300                                          BK00000000000000+000000
ZBK17021319203 SLAVE 4      SALES DATA                     NEXT INVOICE NO.  400531 0443
L55742400362554-001-004       BK1702131124071ICANNELINE PIETER                                                                                                                                                                                                                                                                                                                                                                                                                                                                                                                                                                                                                                                                                                                                                                                                                                                                                                                                                                                      Z
L55742400362554-002-004       BK1702131126091ICANNELINE PIETER                                                                                                                                                                                                                                                                                                                                                                                                                                                                                                                                                                                                                                                                                                                                                                                                                                                                                                                                                                                      Z
L55742400362554-003-004       BK1702131121521ICANNELINE PIETER                                                                                                                                                                                                                                                                                                                                                                                                                                                                                                                                                                                                                                                                                                                                                                                                                                                                                                                                                                                      Z
L55742400362554-004-004       BK1702131121291ICANNELINE PIETER                                                                                                                                                                                                                                                                                                                                                                                                                                                                                                                                                                                                                                                                                                                                                                                                                                                                                                                                                                                      Z
L55814800357503-001-004       BK1702131100371ICANNELINE PIETER                                                                                                                                                                                                                                                                                                                                                                                                                                                                                                                                                                                                                                                                                                                                                                                                                                                                                                                                                                                      Z
L55814800357503-002-004       BK1702131100151ICANNELINE PIETER                                                                                                                                                                                                                                                                                                                                                                                                                                                                                                                                                                                                                                                                                                                                                                                                                                                                                                                                                                                      Z
L55814800357503-003-004       BK1702131104221ICANNELINE PIETER                                                                                                                                                                                                                                                                                                                                                                                                                                                                                                                                                                                                                                                                                                                                                                                                                                                                                                                                                                                      Z
L55814800357503-004-004       BK1702131102001ICANNELINE PIETER                                                                                                                                                                                                                                                                                                                                                                                                                                                                                                                                                                                                                                                                                                                                                                                                                                                                                                                                                                                      Z
L55820200354537-001-004       BK1702131121381ICANNELINE PIETER                                                                                                                                                                                                                                                                                                                                                                                                                                                                                                                                                                                                                                                                                                                                                                                                                                                                                                                                                                                      Z
L55820200354537-002-004       BK1702131119461ICANNELINE PIETER                                                                                                                                                                                                                                                                                                                                                                                                                                                                                                                                                                                                                                                                                                                                                                                                                                                                                                                                                                                      Z
L55820200354537-003-004       BK1702131124561ICANNELINE PIETER                                                                                                                                                                                                                                                                                                                                                                                                                                                                                                                                                                                                                                                                                                                                                                                                                                                                                                                                                                                      Z
L55820200354537-004-004       BK1702131122351ICANNELINE PIETER                                                                                                                                                                                                                                                                                                                                                                                                                                                                                                                                                                                                                                                                                                                                                                                                                                                                                                                                                                                      Z
L56255300357482-001-001       BK1702131104091ICANNELINE PIETER                                                                                                                                                                                                                                                                                                                                                                                                                                                                                                                                                                                                                                                                                                                                                                                                                                                                                                                                                                                      Z
L56459300357823-001-001       BK1702131125291ICANNELINE PIETER                                                                                                                                                                                                                                                                                                                                                                                                                                                                                                                                                                                                                                                                                                                                                                                                                                                                                                                                                                                      Z
L56473400357974-001-001       BK1702131103581ICANNELINE PIETER                                                                                                                                                                                                                                                                                                                                                                                                                                                                                                                                                                                                                                                                                                                                                                                                                                                                                                                                                                                      Z
L57318900358285-001-003       BK1702131125181ICANNELINE PIETER                                                                                                                                                                                                                                                                                                                                                                                                                                                                                                                                                                                                                                                                                                                                                                                                                                                                                                                                                                                      Z
L57318900358285-002-003       BK1702131118061ICANNELINE PIETER                                                                                                                                                                                                                                                                                                                                                                                                                                                                                                                                                                                                                                                                                                                                                                                                                                                                                                                                                                                      Z
L57318900358285-003-003       BK1702131119431ICANNELINE PIETER                                                                                                                                                                                                                                                                                                                                                                                                                                                                                                                                                                                                                                                                                                                                                                                                                                                                                                                                                                                      Z
L57329200359574-001-003       BK1702131104361ICANNELINE PIETER                                                                                                                                                                                                                                                                                                                                                                                                                                                                                                                                                                                                                                                                                                                                                                                                                                                                                                                                                                                      Z
L57329200359574-002-003       BK1702131103181ICANNELINE PIETER                                                                                                                                                                                                                                                                                                                                                                                                                                                                                                                                                                                                                                                                                                                                                                                                                                                                                                                                                                                      Z
L57329200359574-003-003       BK1702131103411ICANNELINE PIETER                                                                                                                                                                                                                                                                                                                                                                                                                                                                                                                                                                                                                                                                                                                                                                                                                                                                                                                                                                                      Z
L57332700359517-001-001       BK1702131113031ICANNELINE PIETER                                                                                                                                                                                                                                                                                                                                                                                                                                                                                                                                                                                                                                                                                                                                                                                                                                                                                                                                                                                      Z
L57346700359180-001-001       BK1702131111581ICANNELINE PIETER                                                                                                                                                                                                                                                                                                                                                                                                                                                                                                                                                                                                                                                                                                                                                                                                                                                                                                                                                                                      Z
L57930800356349-001-004       BK1702131059401ICANNELINE PIETER                                                                                                                                                                                                                                                                                                                                                                                                                                                                                                                                                                                                                                                                                                                                                                                                                                                                                                                                                                                      Z
L57930800356349-002-004       BK1702131059231ICANNELINE PIETER                                                                                                                                                                                                                                                                                                                                                                                                                                                                                                                                                                                                                                                                                                                                                                                                                                                                                                                                                                                      Z
L57930800356349-003-004       BK1702131059171ICANNELINE PIETER                                                                                                                                                                                                                                                                                                                                                                                                                                                                                                                                                                                                                                                                                                                                                                                                                                                                                                                                                                                      Z
L57930800356349-004-004       BK1702131058561ICANNELINE PIETER                                                                                                                                                                                                                                                                                                                                                                                                                                                                                                                                                                                                                                                                                                                                                                                                                                                                                                                                                                                      Z
L58053000356887-001-001       BK1702131058331ICANNELINE PIETER                                                                                                                                                                                                                                                                                                                                                                                                                                                                                                                                                                                                                                                                                                                                                                                                                                                                                                                                                                                      Z
L58197900358876-001-002       BK1702131115221ICANNELINE PIETER                                                                                                                                                                                                                                                                                                                                                                                                                                                                                                                                                                                                                                                                                                                                                                                                                                                                                                                                                                                      Z
L58197900358876-002-002       BK1702131118021ICANNELINE PIETER                                                                                                                                                                                                                                                                                                                                                                                                                                                                                                                                                                                                                                                                                                                                                                                                                                                                                                                                                                                      Z
L58205300361099-001-002       BK1702131114171ICANNELINE PIETER                                                                                                                                                                                                                                                                                                                                                                                                                                                                                                                                                                                                                                                                                                                                                                                                                                                                                                                                                                                      Z
L58205300361099-002-002       BK1702131116421ICANNELINE PIETER                                                                                                                                                                                                                                                                                                                                                                                                                                                                                                                                                                                                                                                                                                                                                                                                                                                                                                                                                                                      Z
L58355200360140-001-001       BK1702131116551ICANNELINE PIETER                                                                                                                                                                                                                                                                                                                                                                                                                                                                                                                                                                                                                                                                                                                                                                                                                                                                                                                                                                                      Z
L58875400359550-001-001       BK1702131100501ICANNELINE PIETER                                                                                                                                                                                                                                                                                                                                                                                                                                                                                                                                                                                                                                                                                                                                                                                                                                                                                                                                                                                      Z
L58882400359612-001-002       BK1702131124171ICANNELINE PIETER                                                                                                                                                                                                                                                                                                                                                                                                                                                                                                                                                                                                                                                                                                                                                                                                                                                                                                                                                                                      Z
L58882400359612-002-002       BK1702131123371ICANNELINE PIETER                                                                                                                                                                                                                                                                                                                                                                                                                                                                                                                                                                                                                                                                                                                                                                                                                                                                                                                                                                                      Z
L58907300359529-001-001       BK1702131058081ICANNELINE PIETER                                                                                                                                                                                                                                                                                                                                                                                                                                                                                                                                                                                                                                                                                                                                                                                                                                                                                                                                                                                      Z
F092351047-000001-BB      1612091037340000202ICSLAVE 4
T094760036-000489                                          1702131630460000041ICSLAVE 4
T094760071-002907                                          1702131630460000041ICSLAVE 4
V5574240000002907                                                 000000000000000170213000000   SLAVE 4     000000000000362554               04
V5581480000002907                                                 000000000000000170213000000   SLAVE 4     000000000000357503               04
V5582020000002907                                                 000000000000000170213000000   SLAVE 4     000000000000354537               04
V5625530000002907                                                 000000000000000170213000000   SLAVE 4     000000000000357482               01
V5645930000002907                                                 000000000000000170213000000   SLAVE 4     000000000000357823               01
V5647340000002907                                                 000000000000000170213000000   SLAVE 4     000000000000357974               01
V5731890000002907                                                 000000000000000170213000000   SLAVE 4     000000000000358285               03
V5732920000002907                                                 000000000000000170213000000   SLAVE 4     000000000000359574               03
V5733270000002907                                                 000000000000000170213000000   SLAVE 4     000000000000359517               01
V5734670000002907                                                 000000000000000170213000000   SLAVE 4     000000000000359180               01
V5793080000002907                                                 000000000000000170213000000   SLAVE 4     000000000000356349               04
V5805300000002907                                                 000000000000000170213000000   SLAVE 4     000000000000356887               01
V5819790000002907                                                 000000000000000170213000000   SLAVE 4     000000000000358876               02
V5820530000002907                                                 000000000000000170213000000   SLAVE 4     000000000000361099               02
V5835520000002907                                                 000000000000000170213000000   SLAVE 4     000000000000360140               01
V5887540000002907                                                 000000000000000170213000000   SLAVE 4     000000000000359550               01
V5888240000002907                                                 000000000000000170213000000   SLAVE 4     000000000000359612               02
V5890730000002907                                                 000000000000000170213000000   SLAVE 4     000000000000359529               01
X BK Slave 4 First invoice 400529 170213 Last invoice 400530 170213 Next invoice 400531 Total number of records 000000115 clbackup completed 19:20:54
