208634000208634               208634               170213BM     1400+00000+BM0000001613+0000001613+000000000+000000226+0000001830+0000000009+I20000000000+0000001830+Z
208634001208634018-000127     208634006001023380289MUG OCC STRAIGHT LOVE  0000001000+00001578+00000+0001T   00001753+0006470928          1400 SM7515               2AZ
208634002208634112-116038     208634006009681820246TCS CARRIER BAG MIDI   0000001000+00000035+00000+0001T   00000035+0000000928          1400 SM7090               2AZ
208635000208635               208635               170213BM     1400+00000+BM0000005083+0000005083+000000000+000000713+0000005790+0000000006+I20000000000+0000005790+Z
208635001208635077-000011-D   208635006001023808554TISSUE-WRAP WHITE 10PCE0000001000+00000876+00000+0001T   00000876+0000000934          1400 SM7112               2AZ
208635002208635080-000111     208635006003000252695CARD&ENVELPE - MUSICAL 0000001000+00001753+00000+0001T   00001753+0000000934          1400 SM7112               2AZ
208635003208635077-000322     208635006001023677532GIFT-BAG 18X23CM E/D FL0000002000+00001227+00000+0001T   00001227+0000000934          1400 SM7112               2AZ
208636000208636               208636               170213BM     1400+00000+BM0000010381+0000010381+000000000+000001455+0000011830+0000000006+I20000000000+0000011830+Z
208636001208636071-008231     208636006001023811332PENCIL-BAG 20cm        0000001000+00002630+00000+0001T   00002630+0000000937          1400 SM7130               2AZ
208636002208636082-000105     208636006003000360369READING GLS STRNGHT:1.50000001000+00004385+00000+0001T   00004385+0000000937          1400 SM7160               2AZ
208636003208636077-000318     208636006001023609755GIFT-BAG 18X23CM E/D AN0000001000+00001227+00000+0001T   00001227+0000000937          1400 SM7112               2AZ
208636004208636112-116038     208636006009681820246TCS CARRIER BAG MIDI   0000001000+00000035+00000+0001T   00000035+0000000937          1400 SM7090               2AZ
208636005208636903-000095     208636006001704011495SWT SPECKLED-EGGS 100G 0000001000+00002104+00000+0001T   00002104+0000000937          1400 SM7150               2AZ
208637000208637               208637               170213BM     1400+00000+BM0000001578+0000001578+000000000+000000221+0000001790+0000000009+I20000000000+0000001790+Z
208637001208637077-000303     208637006001023593757GIFT-BAG PAPER MED     0000001000+00001578+00000+0001T   00001578+0000000939          1400 SM7112               2AZ
208638000208638               208638               170213BM     1400+00000+BM0000004120+0000004120+000000000+000000578+0000004698+0000000000+I40000004698+0000000000+Z
208638001208638105-006948     208638006003000667192CONTAINER STORER 1.1L  0000001000+00002630+00000+0001T   00002630+0000001012          1400 SM7210               2AZ
208638002208638105-001066     208638006003000630912CONTAINER CLIP LOCK    0000001000+00001490+00000+0001T   00001490+0000001012          1400 SM7210               2AZ
208639000208639               208639               170213BM     1400+00000+BM0000099999-0000000000+000000000+000000000+0000100000-0000000001+I20000000000+0000100000-Z
208639001208639001-999903     208639000000000999903ELECTRICITY            0000001000-00099999+00000+0001X   00000000+0000001015          0000 SM79033IC            2 Z
208640000208640               208640               170213BM     1400+00000+BM0000003807-0000003807-000000000+000000533-0000004340-0000000000+I20000000000+0000004340-Z
208640001208640001-999907     208640000000000999907CLEANING-MATERIALS     0000001000-00003807+00000+0001T   00000000+0000001016          1400 SM79073IC            2 Z
208641000208641               208641               170213BM     1400+00000+BM0000002714+0000002714+000000000+000000382+0000003090+0000000006+I20000000000+0000003090+Z
208641001208641903-000670     208641006009803358008SWT SHERBET RED LIPS   0000001000+00000218+00000+0001T   00000218+0000001017          1400 SM7150               2AZ
208641002208641903-000671     208641006009803358015SWT SHERBET BLUE LIPS  0000001000+00000218+00000+0001T   00000218+0000001017          1400 SM7150               2AZ
208641003208641903-000898     208641006922516801503SWT POPPING CANDY      0000002000+00001139+00000+0001T   00001139+0000001017          1400 SM7150               2AZ
208642000208642               208642               170213BM     1400+00000+BM0000001753+0000001753+000000000+000000246+0000001990+0000000009+I20000000000+0000001990+Z
208642001208642024-091100     208642006001023914224BAKING-CUPS PAPER 100PC0000001000+00001753+00000+0001T   00001753+0000001030          1400 SM7300               2AZ
208643000208643               208643               170213BM     1400+00000+BM0000003331+0000003331+000000000+000000467+0000003790+0000000008+I20000000000+0000003790+Z
208643001208643077-000299-A   208643006003000670888GIFT-BAG PAPER JMB LOVE0000001000+00001753+00000+0001T   00001753+0000001031          1400 SM7112               2AZ
208643002208643077-000303     208643006001023593757GIFT-BAG PAPER MED     0000001000+00001578+00000+0001T   00001578+0000001031          1400 SM7112               2AZ
208644000208644               208644               170213BM     1400+00000+BM0000009336+0000009336+000000000+000001312+0000010648+0000000000+I40000010648+0000000000+Z
208644001208644466-000515     208644006001023477408BALLS TENNIS BAG-OF-3  0000001000+00002630+00000+0001T   00002630+0000001035          1400 SM7785               2AZ
208644002208644903-000200     208644006009826020234SWT CHOC RP CHOCO 23G  0000004000+00000788+00000+0001T   00000788+0000001035          1400 SM7150               2AZ
208644003208644077-000472     208644006003000330133G-BAG DESGNR LRG 25X32 0000001000+00001753+00000+0001T   00001753+0000001035          1400 SM7112               2AZ
208644004208644112-116069     208644006009681820277TCS CARRIER BAG JUMBO  0000001000+00000048+00000+0001T   00000048+0000001035          1400 SM7090               2AZ
208644005208644565-000888     208644006003000607846NOVELTY MESH BALL      0000001000+00001753+00000+0001T   00001753+0000001035          1400 SM7745               2AZ
208645000208645               208645               170213BM     1400+00000+BM0000000700+0000000700+000000000+000000098+0000000790+0000000008+I20000000000+0000000790+Z
208645001208645007-000128     208645006009635830475BOOK H/COVER A5 96-PAGE0000001000+00000700+00000+0001T   00000700+0000001035          1400 SM7130               2AZ
208646000208646               208646               170213BM     1400+00000+BM0000001051+0000001051+000000000+000000148+0000001190+0000000009+I20000000000+0000001190+Z
208646001208646039-000029     208646006003000286829C/TAPERED 25CM M/PINK  0000001000+00001051+00000+0001T   00001051+0000001036          1400 SM7510               2AZ
208647000208647               208647               170213BM     1400+00000+BM0000030423+0000030423+000000000+000004265+0000034688+0000000000+I40000034688+0000000000+Z
208647001208647007-000203     208647006009685850409FILE DISPLAY FLDR ASSTD0000001000+00000437+00000+0001T   00000437+0000001039          1400 SM7130               2AZ
208647002208647105-007560     208647008696287302559STORAGE BOX CLEAR 10L  0000001000+00014034+00000+0001T   00014034+0000001039          1400 SM7210               2AZ
208647003208647007-000120     208647006009698062714BOOK DRAWING A4 24-PAGE0000002000+00000525+00000+0001T   00000525+0000001039          1400 SM7130               2AZ
208647004208647007-000043     208647006009635831496DISPLAY-BOOK PL A4 20PG0000001000+00001753+00000+0001T   00001753+0000001039          1400 SM7130               2AZ
208647005208647007-000325     208647006009698066514PAPER A4 160GSM 25SHTS 0000001000+00003507+00000+0001T   00003507+0000001039          1400 SM7130               2AZ
208647006208647007-000050     208647006001023528285DISPLAY-ENVELOPE A4    0000001000+00001753+00000+0001T   00001753+0000001039          1400 SM7130               2AZ
208647007208647071-003850     208647006001023893253PENCIL 5PCE RAINBOW WDN0000001000+00002630+00000+0001T   00002630+0000001039          1400 SM7130               2AZ
208647008208647071-030012     208647006003000283842PEN NVLTY GLITTER 6PC  0000001000+00002630+00000+0001T   00002630+0000001039          1400 SM7130               2AZ
208647009208647079-000341     208647006920705495519FELT-TIP PENS 12PCE    0000001000+00001753+00000+0001T   00001753+0000001039          1400 SM7130               2AZ
208647010208647903-000297     208647006001704002950SWT MS WILD BERRY 50G  0000001000+00000876+00000+0001T   00000876+0000001039          1400 SM7150               2AZ
208648000208648               208648               170213BM     1400+00000+BM0000001753+0000001753+000000000+000000246+0000001990+0000000009+I20000000000+0000001990+Z
208648001208648079-000275     208648006003000160488PAINT-BRUSHES 6PCE PRO 0000001000+00001753+00000+0001T   00001753+0000001042          1400 SM7130               2AZ
208649000208649               208649               170213BM     1400+00000+BM0000005260+0000005260+000000000+000000738+0000005998+0000000000+I40000005998+0000000000+Z
208649001208649266-003012     208649006001023786128BOYS P/SET ARCHERY 4pc 0000002000+00002630+00000+0001T   00002630+0000001049          1400 SM7710               2AZ
208650000208650               208650               170213BM     1400+00000+BM0000001490+0000001490+000000000+000000209+0000001690+0000000009+I20000000000+0000001690+Z
208650001208650009-001701     208650006003000638666MELAMINE SWIRL TUMBLER 0000001000+00001490+00000+0001T   00001490+0000001050          1400 SM7210               2AZ
208651000208651               208651               170213BM     1400+00000+BM0000005258+0000005258+000000000+000000737+0000005995+0000000000+I40000005995+0000000000+Z
208651001208651034-078810     208651006001023856838DIAPER DISPOSE-BAGSx1000000001000+00002630+00000+0001T   00002630+0000001100          1400 SM7215               2AZ
208651002208651903-000194     208651006009826020616SWT CHOC RP LOLLY 25G  0000002000+00001314+00000+0001T   00001314+0000001100          1400 SM7150               2AZ
208652000208652               208652               170213BM     1400+00000+BM0000001314+0000001314+000000000+000000184+0000001490+0000000008+I20000000000+0000001490+Z
208652001208652077-000312     208652006001023608697GIFT-BAG 10X35CM GLOSS 0000001000+00001314+00000+0001T   00001314+0000001101          1400 SM7112               2AZ
208653000208653               208653               170213BM     1400+00000+BM0000001753+0000001753+000000000+000000246+0000001990+0000000009+I20000000000+0000001990+Z
208653001208653080-000110     208653006003000237326CARD&ENVLPE BDAY-FUNNY 0000001000+00001753+00000+0001T   00001753+0000001104          1400 SM7112               2AZ
208654000208654               208654               170213BM     1400+00000+BM0000006840+0000006840+000000000+000000958+0000007798+0000000000+I40000007798+0000000000+Z
208654001208654079-000336     208654006003000670758SUPER FINE MARKER PENS 0000001000+00005262+00000+0001T   00005262+0000001109          1400 SM7130               2AZ
208654002208654080-000124     208654006003000297733CARD & ENV VALENTINES  0000001000+00001578+00000+0001T   00001578+0000001109          1400 SM7112               2AZ
208655000208655               208655               170213BM     1400+00000+BM0000000437+0000000437+000000000+000000062+0000000490+0000000009+I20000000000+0000000490+Z
208655001208655080-000133     208655006003000535613CARD&ENV MINI ASTD DSGN0000001000+00000437+00000+0001T   00000437+0000001112          1400 SM7112               2AZ
208656000208656               208656               170213BM     1400+00000+BM0000039508+0000039508+000000000+000005536+0000045044+0000000000+I40000045044+0000000000+Z
208656001208656112-116069     208656006009681820277TCS CARRIER BAG JUMBO  0000001000+00000048+00000+0001T   00000048+0000001119          1400 SM7090               2AZ
208656002208656107-004510     208656006002580008968STEP-STOOL PL          0000001000+00005262+00000+0001T   00005262+0000001119          1400 SM7210               2AZ
208656003208656200-000230     208656006008766126990BAKEPANS 5PC RND 23x3cm0000001000+00002630+00000+0001T   00002630+0000001119          1400 SM7214               2AZ
208656004208656047-000513-H   208656006001023427496EXT-CORD 5M JANUS 10A  0000001000+00007893+00000+0001T   00007893+0000001119          1400 SM7880               2AZ
208656005208656016-006511     208656006003000673995S/JAR GLS CHALK W/LID  0000001000+00007016+00000+0001T   00007016+0000001119          1400 SM7300               2AZ
208656006208656056-065302     208656006001023759566CAR SUN-SHIELD ALM-FOIL0000001000+00002630+00000+0001T   00002630+0000001119          1400 SM7860               2AZ
208656007208656007-000050     208656006001023528285DISPLAY-ENVELOPE A4    0000001000+00001753+00000+0001T   00001753+0000001119          1400 SM7130               2AZ
208656008208656007-000058     208656006003000589777A3 DESIGN PORTFOLIO    0000002000+00003507+00000+0001T   00004385+0008141119          1400 SM7130               2AZ
208656009208656303-000806     208656006001023409768COW-BELL BRASS(5BELLS) 0000001000+00005262+00000+0001T   00005262+0000001119          1400 SM7510               2AZ
208657000208657               208657               170213BM     1400+00000+BM0000001578+0000001578+000000000+000000221+0000001799+0000000000+I40000001799+0000000000+Z
208657001208657077-000303     208657006001023593757GIFT-BAG PAPER MED     0000001000+00001578+00000+0001T   00001578+0000001121          1400 SM7112               2AZ
208658000208658               208658               170213BM     1400+00000+BM0000002192+0000002192+000000000+000000307+0000002490+0000000009+I20000000000+0000002490+Z
208658001208658079-013102     208658006003000019601ART+CRAFT DIY PIPE-CLNR0000001000+00002192+00000+0001T   00002192+0000001123          1400 SM7130               2AZ
208659000208659               208659               170213BM     1400+00000+BM0000003418+0000003418+000000000+000000480+0000003890+0000000008+I20000000000+0000003890+Z
208659001208659046-000010-A   208659006003000438778BATTERIES SIZE:AAA 4PCE0000001000+00002367+00000+0001T   00002367+0000001126          1400 SM7312               2AZ
208659002208659903-002850     208659000000087108262MENTOS ROLL FRUIT      0000001000+00001051+00000+0001T   00001051+0000001126          1400 SM7150               2AZ
208660000208660               208660               170213BM     1400+00000+BM0000004385+0000004385+000000000+000000614+0000004999+0000000000+I40000004999+0000000000+Z
208660001208660368-000049     208660006003000536955PLUSH BEAR 15cm LOVE   0000001000+00004385+00000+0001T   00004385+0000001128          1400 SM7745               2AZ
208661000208661               208661               170213BM     1400+00000+BM0000001314+0000001314+000000000+000000184+0000001490+0000000008+I20000000000+0000001490+Z
208661001208661046-000012     208661006904708013062BATTERIES AA  CARD-OF-40000001000+00001314+00000+0001T   00001314+0000001130          1400 SM7312               2AZ
208662000208662               208662               170213BM     1400+00000+BM0000007978+0000007978+000000000+000001118+0000009090+0000000006+I20000000000+0000009090+Z
208662001208662107-004105     208662006009703860984BUCKET 9L OPEN         0000001000+00001314+00000+0001T   00001314+0000001147          1400 SM7210               2AZ
208662002208662027-000194     208662006001246602472MOP COMPLETE           0000001000+00002279+00000+0001T   00002279+0000001147          1400 SM7212               2AZ
208662003208662159-003605     208662006001023156242TOILET-BRUSH+STAND COLR0000001000+00004385+00000+0001T   00004385+0000001147          1400 SM7200               2AZ
208663000208663               208663               170213BM     1400+00000+BM0000000876+0000000876+000000000+000000123+0000000990+0000000009+I20000000000+0000000990+Z
208663001208663077-000011-D   208663006001023808554TISSUE-WRAP WHITE 10PCE0000001000+00000876+00000+0001T   00000876+0000001149          1400 SM7112               2AZ
208664000208664               208664               170213BM     1400+00000+BM0000005816+0000005816+000000000+000000815+0000006631+0000000000+I40000006631+0000000000+Z
208664001208664903-000194     208664006009826020616SWT CHOC RP LOLLY 25G  0000004000+00001314+00000+0001T   00001314+0000001152          1400 UC6150               2AZ
208664002208664903-000155     208664006009803374435SWT LOLLY I LUV U HEART0000001000+00000525+00000+0001T   00000525+0000001152          1400 UC6150               2AZ
208664003208664112-116038     208664006009681820246TCS CARRIER BAG MIDI   0000001000+00000035+00000+0001T   00000035+0000001152          1400 UC6090               2AZ
208665000208665               208665               170213BM     1400+00000+BM0000003769+0000003769+000000000+000000529+0000004290+0000000008+I20000000000+0000004290+Z
208665001208665071-004202     208665006001023417176SCISSORS-SCHOOL PL/MTL 0000001000+00001139+00000+0001T   00001139+0000001154          1400 UC6130               2AZ
208665002208665084-000359     208665006003000642960NAIL MANICURE SET S/STE0000001000+00002630+00000+0001T   00002630+0000001154          1400 UC6200               2AZ
208666000208666               208666               170213BM     1400+00000+BM0000017013+0000017013+000000000+000002383+0000019396+0000000000+I40000019396+0000000000+Z
208666001208666024-000122     208666006003000240746NON-STICK CUP CAKE PAN 0000001000+00011402+00000+0001T   00011402+0000001157          1400 UC6300               2AZ
208666002208666024-091102     208666006003453000010BAKING-CUP PAPER 50PC  0000002000+00002192+00000+0001T   00002192+0000001157          1400 UC6300               2AZ
208666003208666007-000160     208666006009685857286NOTE-BOOK A5 SHORTHAND 0000001000+00001227+00000+0001T   00001227+0000001157          1400 UC6130               2AZ
208667000208667               208667               170213BM     1400+00000+BM0000003768+0000003768+000000000+000000529+0000004297+0000000000+I40000004297+0000000000+Z
208667001208667018-000170     208667006001023775528MUG OCC. LOVE 2PC MINI 0000001000+00002192+00000+0001T   00002192+0000001202          1400 UC6515               2AZ
208667002208667903-000200     208667006009826020234SWT CHOC RP CHOCO 23G  0000002000+00000788+00000+0001T   00000788+0000001202          1400 UC6150               2AZ
208668000208668               208668               170213BM     1400+00000+BM0000001139+0000001139+000000000+000000160+0000001290+0000000009+I20000000000+0000001290+Z
208668001208668903-000087     208668006001704000161SWT SPECKLED-EGGS 50G  0000001000+00001139+00000+0001T   00001139+0000001205          1400 UC6150               2AZ
208669000208669               208669               170213BM     1400+00000+BM0000002630+0000002630+000000000+000000369+0000002999+0000000000+I10000001399+0000001600+Z
208669001208669304-000720     208669006001023843050F/BUNCH ROSE 6-HEAD AST0000001000+00002630+00000+0001T   00002630+0000001208          1400 UC6510               2AZ
208670000208670               208670               170213BM     1400+00000+BM0000013154+0000013154+000000000+000001843+0000014997+0000000000+I40000014997+0000000000+Z
208670001208670003-009201     208670006003000407798O/WELCOME STONE RND ASS0000001000+00004385+00000+0001T   00004385+0000001218          1400 SM7505               2AZ
208670002208670203-000006     208670006001023752789COASTER-SET 4PCE       0000001000+00007016+00000+0001T   00008771+0008191218          1400 SM7300               2AZ
208670003208670046-002025-PK2 208670004897006174868BATTERIES CR-2025  2PCE0000001000+00001753+00000+0001T   00001753+0000001218          1400 SM7312               2AZ
208671000208671               208671               170213BM     1400+00000+BM0000001578+0000001578+000000000+000000221+0000001790+0000000009+I20000000000+0000001790+Z
208671001208671078-013424     208671006008741000338CONTACT-ADHESIVE 50ml  0000001000+00001578+00000+0001T   00001578+0000001219          1400 SM7810               2AZ
208672000208672               208672               170213BM     1400+00000+BM0000015111+0000015111+000000000+000002118+0000017229+0000000000+I40000017229+0000000000+Z
208672001208672112-116038     208672006009681820246TCS CARRIER BAG MIDI   0000001000+00000035+00000+0001T   00000035+0000001230          1400 SM7090               2AZ
208672002208672903-000194     208672006009826020616SWT CHOC RP LOLLY 25G  0000003000+00001314+00000+0001T   00001314+0000001230          1400 SM7150               2AZ
208672003208672368-000049     208672006003000536955PLUSH BEAR 15cm LOVE   0000002000+00004385+00000+0001T   00004385+0000001230          1400 SM7745               2AZ
208672004208672903-000200     208672006009826020234SWT CHOC RP CHOCO 23G  0000003000+00000788+00000+0001T   00000788+0000001230          1400 SM7150               2AZ
208673000208673               208673               170213BM     1400+00000+BM0000001753+0000001753+000000000+000000246+0000001990+0000000009+I20000000000+0000001990+Z
208673001208673047-000507     208673006001023684479PLUG-ADAPTOR EURO TWIN 0000001000+00001753+00000+0001T   00001753+0000001231          1400 SM7880               2AZ
208674000208674               208674               170213BM     1400+00000+BM0000000613+0000000613+000000000+000000086+0000000690+0000000009+I20000000000+0000000690+Z
208674001208674200-000065     208674006001023323675DRINKING-STRAWS 38PCE  0000001000+00000613+00000+0001T   00000613+0000001232          1400 SM7214               2AZ
208675000208675               208675               170213BM     1400+00000+BM0000000436+0000000436+000000000+000000062+0000000490+0000000008+I20000000000+0000000490+Z
208675001208675006-000170-K   208675006003000609284BALLOONS 1PC PURPLE    0000001000+00000218+00000+0001T   00000218+0000001239          1400 SM7131               2AZ
208675002208675006-000170-B   208675006003000608300BALLOONS 1PC L/GREEN   0000001000+00000218+00000+0001T   00000218+0000001239          1400 SM7131               2AZ
208676000208676               208676               170213BM     1400+00000+BM0000004996+0000004996+000000000+000000701+0000005690+0000000007+I20000000000+0000005690+Z
208676001208676039-001023     208676006003000466337CANDLE TEA-LITE METALIC0000001000+00001753+00000+0001T   00001753+0000001244          1400 SM7510               2AZ
208676002208676039-000108     208676006001023524034TEA-LITE CANDLES 8PCE  0000001000+00001490+00000+0001T   00001490+0000001244          1400 SM7510               2AZ
208676003208676563-000317-J   208676006001023776419SERVIETTE 2PLY 33cm    0000001000+00001753+00000+0001T   00001753+0000001244          1400 SM7214               2AZ
208677000208677               208677               170213BM     1400+00000+BM0000005259+0000005259+000000000+000000738+0000005990+0000000007+I20000000000+0000005990+Z
208677001208677251-000074     208677006003000452255PROTECTION-PADS BLK ADH0000003000+00001753+00000+0001T   00001753+0000001245          1400 SM7810               2AZ
208678000208678               208678               170213BM     1400+00000+BM0000001576+0000001576+000000000+000000221+0000001790+0000000007+I20000000000+0000001790+Z
208678001208678903-000126     208678006002099003591SWT ZILLIONS MINT 50G  0000001000+00000700+00000+0001T   00000700+0000001251          1400 SM7150               2AZ
208678002208678903-000840     208678009243178623690SWT CANDY TIPSEE BERRY 0000001000+00000876+00000+0001T   00000876+0000001251          1400 SM7150               2AZ
208679000208679               208679               170213BM     1400+00000+BM0000004385+0000004385+000000000+000000614+0000004990+0000000009+I20000000000+0000004990+Z
208679001208679107-003127     208679006003000491629BATH TUB W/HANDLES     0000001000+00004385+00000+0001T   00004385+0000001252          1400 SM7210               2AZ
208680000208680               208680               170213BM     1400+00000+BM0000006139+0000006139+000000000+000000860+0000006990+0000000009+I20000000000+0000006990+Z
208680001208680366-001101     208680006003000006991DRESS UP BOYS ASSTD    0000001000+00006139+00000+0001T   00006139+0000001258          1400 SM7131               2AZ
208681000208681               208681               170213BM     1400+00000+BM0000020203+0000020203+000000000+000002830+0000023033+0000000000+I40000023033+0000000000+Z
208681001208681107-003127     208681006003000491629BATH TUB W/HANDLES     0000001000+00004385+00000+0001T   00004385+0000001301          1400 SM7210               2AZ
208681002208681112-116038     208681006009681820246TCS CARRIER BAG MIDI   0000001000+00000035+00000+0001T   00000035+0000001301          1400 SM7090               2AZ
208681003208681047-002035-H   208681006001023586087P/ADAPTOR 3-WAY-2PIN   0000001000+00004385+00000+0001T   00004385+0000001301          1400 SM7880               2AZ
208681004208681071-003004     208681006003000662821PEN BALL POINT 3PC BLUE0000001000+00000876+00000+0001T   00000876+0000001301          1400 SM7130               2AZ
208681005208681071-001363     208681006003000196968HIGHLIGHTER 8PACK      0000001000+00005262+00000+0001T   00005262+0000001301          1400 SM7130               2AZ
208681006208681071-081112     208681006936198404945CORRECTION TAPE 10mx5mm0000001000+00001753+00000+0001T   00001753+0000001301          1400 SM7130               2AZ
208681007208681071-000682     208681006003000196920ACCESSORIES DESKTOP ASS0000001000+00003507+00000+0001T   00003507+0000001301          1400 SM7130               2AZ
208682000208682               208682               170213BM     1400+00000+BM0000007883+0000007883+000000000+000001106+0000008989+0000000000+I40000008989+0000000000+Z
208682001208682006-000120     208682006001023346889BALLOONS 10PC MIX COL  0000001000+00001753+00000+0001T   00001753+0000001306          1400 SM7131               2AZ
208682002208682006-001000     208682006003000093779HELIUM BALLOON FILL    0000010000+00000613+00000+0001T   00000613+0000001306          1400 SM7131               2AZ
208683000208683               208683               170213BM     1400+00000+BM0000008412+0000008412+000000000+000001182+0000009590+0000000004+I20000000000+0000009590+Z
208683001208683304-001204     208683006001023737984FLOWER OCC. TEDDY/ROSES0000006000+00001402+00000+0001T   00001490+0006471308          1400 SM7510               2AZ
208684000208684               208684               170213BM     1400+00000+BM0000017973+0000017973+000000000+000002520+0000020490+0000000003+I20000000000+0000020490+Z
208684001208684027-008813     208684006001023552334DUSTER RETRCTABLE 122cm0000001000+00002630+00000+0001T   00002630+0000001313          1400 SM7212               2AZ
208684002208684080-000111     208684006003000252695CARD&ENVELPE - MUSICAL 0000001000+00001753+00000+0001T   00001753+0000001313          1400 SM7112               2AZ
208684003208684078-000030     208684006003000151141YAMAYO SUPERGLUE 8g    0000001000+00001753+00000+0001T   00001753+0000001313          1400 SM7810               2AZ
208684004208684015-000013     208684006003000029532BOWL SERVING 23CM ASSTD0000001000+00002630+00000+0001T   00002630+0000001313          1400 SM7515               2AZ
208684005208684038-092233     208684006003000328925TABLE-MAT N/SLIP ASST  0000003000+00003069+00000+0001T   00003507+0008191313          1400 SM7300               2AZ
208685000208685               208685               170213BM     1400+00000+BM0000002015+0000002015+000000000+000000283+0000002290+0000000008+I20000000000+0000002290+Z
208685001208685903-000482     208685006001704001397SWT SOFT-MINTS 60G     0000001000+00000876+00000+0001T   00000876+0000001316          1400 UC6150               2AZ
208685002208685903-000087     208685006001704000161SWT SPECKLED-EGGS 50G  0000001000+00001139+00000+0001T   00001139+0000001316          1400 UC6150               2AZ
208686000208686               208686               170213BM     1400+00000+BM0000005907+0000005907+000000000+000000829+0000006736+0000000000+I40000006736+0000000000+Z
208686001208686080-000124     208686006003000297733CARD & ENV VALENTINES  0000001000+00001578+00000+0001T   00001578+0000001318          1400 UC6112               2AZ
208686002208686903-000200     208686006009826020234SWT CHOC RP CHOCO 23G  0000001000+00000788+00000+0001T   00000788+0000001318          1400 UC6150               2AZ
208686003208686565-000888     208686006003000607846NOVELTY MESH BALL      0000002000+00001753+00000+0001T   00001753+0000001318          1400 UC6745               2AZ
208686004208686112-116038     208686006009681820246TCS CARRIER BAG MIDI   0000001000+00000035+00000+0001T   00000035+0000001318          1400 UC6090               2AZ
208687000208687               208687               170213BM     1400+00000+BM0000002192+0000002192+000000000+000000307+0000002490+0000000009+I20000000000+0000002490+Z
208687001208687046-000012-A   208687006003000208296BATTERIES H/POWER SZ:AA0000001000+00002192+00000+0001T   00002192+0000001325          1400 SX2312               2AZ
208688000208688               208688               170213BM     1400+00000+BM0000012322+0000012322+000000000+000001726+0000014048+0000000000+I40000014048+0000000000+Z
208688001208688072-020359     208688006003000399758PET DOG/CAT BOWL SMALL 0000001000+00001753+00000+0001T   00001753+0000001333          1400 SX2870               2AZ
208688002208688072-020266     208688006003000400591PET PUPPY TRAINING PAD 0000001000+00003507+00000+0001T   00003507+0000001333          1400 SX2870               2AZ
208688003208688105-007051     208688006003000655595CONTAINER DRY FOOD     0000002000+00003507+00000+0001T   00003507+0000001333          1400 SX2210               2AZ
208688004208688112-116069     208688006003000535064TCS CARRIER BAG JUMBO  0000001000+00000048+00000+0001T   00000048+0000001333          1400 SX2090               2AZ
208689000208689               208689               170213BM     1400+00000+BM0000021614+0000021614+000000000+000003030+0000024640+0000000004+I20000000000+0000024640+Z
208689001208689251-000040     208689006001023515865SEALTAPE CLEAR 48mmx50m0000003000+00001227+00000+0001T   00001227+0000001344          1400 SX2810               2AZ
208689002208689048-000836     208689006001023765208TORCH RUBBER 3LED MED  0000001000+00004385+00000+0001T   00004385+0000001344          1400 SX2305               2AZ
208689003208689200-003024     208689006001023657299REFUSE BAGS 20PCE BLACK0000002000+00001753+00000+0001T   00001753+0000001344          1400 SX2214               2AZ
208689004208689027-009025     208689006003962000747DUSTPAN-SET PL         0000001000+00002630+00000+0001T   00002630+0000001344          1400 SX2212               2AZ
208689005208689046-000015     208689006001023680839BATTERIES SIZE:D   2PCE0000001000+00002367+00000+0001T   00002367+0000001344          1400 SX2312               2AZ
208689006208689112-116069     208689006003000535064TCS CARRIER BAG JUMBO  0000001000+00000048+00000+0001T   00000048+0000001344          1400 SX2090               2AZ
208689007208689051-002401     208689006001023523570TRIGGER-SPRAYER   300ml0000001000+00001490+00000+0001T   00001490+0000001344          1400 SX2820               2AZ
208689008208689105-007400     208689006003000629435CONTAINER MINI 140ml   0000001000+00003507+00000+0001T   00003507+0000001344          1400 SX2210               2AZ
208690000208690               208690               170213BM     1400+00000+BM0000003507+0000003507+000000000+000000491+0000003990+0000000008+I20000000000+0000003990+Z
208690001208690082-098780     208690006001492987804SUNGLASS KIDS HEART    0000001000+00003507+00000+0001T   00003507+0000001345          1400 SX2160               2AZ
208691000208691               208691               170213BM     1400+00000+BM0000000876+0000000876+000000000+000000123+0000000990+0000000009+I20000000000+0000000990+Z
208691001208691071-003003     208691006003000144525PEN BALL PEN 3PCE BLACK0000001000+00000876+00000+0001T   00000876+0000001346          1400 SX2130               2AZ
208692000208692               208692               170213BM     1400+00000+BM0000001753+0000001753+000000000+000000246+0000001990+0000000009+I20000000000+0000001990+Z
208692001208692080-000104     208692006003000236978CARD&ENVLP MALE AFR    0000001000+00001753+00000+0001T   00001753+0000001401          1400 UC6112               2AZ
208693000208693               208693               170213BM     1400+00000+BM0000001226-0000001226-000000000+000000172-0000001400-0000000002+I20000000000+0000001400-Z
208693001208693200-000130     208693006001023645067DESSERT-SPOONS 10PCE   0000002000-00000613+00000+0001T   00000613+0000001404          1400 UC62141IC            2 Z
208694000208694               208694               170213BM     1400+00000+BM0000002453+0000002453+000000000+000000344+0000002790+0000000007+I20000000000+0000002790+Z
208694001208694046-000014     208694006001023725387BATTERIES SIZE:AAA 4PCE0000001000+00001139+00000+0001T   00001139+0000001409          1400 UC6312               2AZ
208694002208694306-001690     208694006003000620937EYELASH CURLERS        0000001000+00001314+00000+0001T   00001753+0008171409          1400 UC6200               2AZ
208695000208695               208695               170213BM     1400+00000+BM0000003946+0000003946+000000000+000000553+0000004499+0000000000+I40000004499+0000000000+Z
208695001208695024-000002     208695006001023741899S/BURNER-COVER SILV/BLK0000001000+00003946+00000+0001T   00004385+0008191412          1400 UC6300               2AZ
208696000208696               208696               170213BM     1400+00000+BM0000014032+0000014032+000000000+000001965+0000015990+0000000007+I20000000000+0000015990+Z
208696001208696004-071205     208696006003000073368USB 2.0 COMPUTER 4 HUB 0000001000+00003507+00000+0001T   00003507+0000001413          1400 UC6310               2AZ
208696002208696004-071261     208696006003000438242COMPUTER MOUSE CAR     0000001000+00010525+00000+0001T   00010525+0000001413          1400 UC6310               2AZ
208697000208697               208697               170213BM     1400+00000+BM0000002804+0000002804+000000000+000000394+0000003198+0000000000+I40000003198+0000000000+Z
208697001208697304-001204     208697006001023737984FLOWER OCC. TEDDY/ROSES0000002000+00001402+00000+0001T   00001490+0006471414          1400 UC6510               2AZ
208698000208698               208698               170213BM     1400+00000+BM0000022786+0000022786+000000000+000003200+0000025980+0000000006+I20000000000+0000025980+Z
208698001208698903-000014     208698006003000691029SWT MIKE N IKE ORIG 23G0000003000+00001051+00000+0001T   00001051+0000001418          1400 SM7150               2AZ
208698002208698903-000015     208698006003000690947SWT MIKE N IKE B/BLAST 0000003000+00001051+00000+0001T   00001051+0000001418          1400 SM7150               2AZ
208698003208698903-000010     208698006002099008091SWT CHOC WONKA BAR     0000006000+00002016+00000+0001T   00002016+0000001418          1400 SM7150               2AZ
208698004208698080-000127     208698006003000424351VALENTINES DAY 36x24CM 0000002000+00002192+00000+0001T   00002192+0000001418          1400 SM7112               2AZ
208699000208699               208699               170213BM     1400+00000+BM0000015519+0000015519+000000000+000002174+0000017690+0000000003+I20000000000+0000017690+Z
208699001208699133-000010-A   208699006001023997647CLEANING CLOTH ROLL 30 0000001000+00003507+00000+0001T   00003507+0000001420          1400 SM7212               2AZ
208699002208699903-004960     208699008410525221842SWT GUMMY STR/BERRY 50G0000001000+00000964+00000+0001T   00000964+0000001420          1400 SM7150               2AZ
208699003208699080-000127     208699006003000424351VALENTINES DAY 36x24CM 0000001000+00002192+00000+0001T   00002192+0000001420          1400 SM7112               2AZ
208699004208699368-000265     208699006001023750914PLUSH BEAR 23CM ASSTD C0000001000+00006139+00000+0001T   00006139+0000001420          1400 SM7745               2AZ
208699005208699903-000619     208699006003000672455SWT LOLLY STR/BRRY 140G0000001000+00001753+00000+0001T   00001753+0000001420          1400 SM7150               2AZ
208699006208699903-004960     208699008410525221842SWT GUMMY STR/BERRY 50G0000001000+00000964+00000+0001T   00000964+0000001420          1400 SM7150               2AZ
208700000208700               208700               170213BM     1400+00000+BM0000002630+0000002630+000000000+000000369+0000002990+0000000009+I20000000000+0000002990+Z
208700001208700027-009005     208700006001023713124D/BRUSH W/TOP BRISTLES 0000001000+00002630+00000+0001T   00002630+0000001423          1400 SM7212               2AZ
208701000208701               208701               170213BM     1400+00000+BM0000001664+0000001664+000000000+000000234+0000001898+0000000000+I40000001898+0000000000+Z
208701001208701206-000630     208701006003000631919SPECTACLE CLEANING BRUS0000001000+00001227+00000+0001T   00001227+0000001427          1400 SM7321               2AZ
208701002208701080-000133     208701006003000535613CARD&ENV MINI ASTD DSGN0000001000+00000437+00000+0001T   00000437+0000001427          1400 SM7112               2AZ
208702000208702               208702               170213BM     1400+00000+BM0000003506+0000003506+000000000+000000492+0000003990+0000000008+I20000000000+0000003990+Z
208702001208702080-000110     208702006003000237326CARD&ENVLPE BDAY-FUNNY 0000001000+00001753+00000+0001T   00001753+0000001428          1400 SM7112               2AZ
208702002208702080-000111     208702006003000252695CARD&ENVELPE - MUSICAL 0000001000+00001753+00000+0001T   00001753+0000001428          1400 SM7112               2AZ
208703000208703               208703               170213BM     1400+00000+BM0000003507+0000003507+000000000+000000491+0000003990+0000000008+I20000000000+0000003990+Z
208703001208703567-011488     208703000805219343531BK COLOURING 96P MINI  0000001000+00003507+00000+0001T   00003507+0000001428          1400 SM7757               2AZ
208704000208704               208704               170213BM     1400+00000+BM0000002100+0000002100+000000000+000000296+0000002396+0000000000+I40000002396+0000000000+Z
208704001208704903-000151     208704006009803374411SWT SML RND R/BOW LOLLY0000004000+00000525+00000+0001T   00000525+0000001431          1400 SM7150               2AZ
208705000208705               208705               170213BM     1400+00000+BM0000006172+0000006172+000000000+000000865+0000007037+0000000000+I40000007037+0000000000+Z
208705001208705079-014004     208705006003000080045ART+CRAFT JEWELRY ASSTD0000001000+00003507+00000+0001T   00003507+0000001436          1400 SM7130               2AZ
208705002208705079-006495     208705006003000159987GLITTER SHAKERS 6PK    0000001000+00002630+00000+0001T   00002630+0000001436          1400 SM7130               2AZ
208705003208705112-116038     208705006009681820246TCS CARRIER BAG MIDI   0000001000+00000035+00000+0001T   00000035+0000001436          1400 SM7090               2AZ
208706000208706               208706               170213BM     1400+00000+BM0000004558+0000004558+000000000+000000639+0000005197+0000000000+I40000005197+0000000000+Z
208706001208706105-001025-A   208706006009654960979CONTAINERS CLEAR 4PCE  0000001000+00001928+00000+0001T   00001928+0000001437          1400 SM7210               2AZ
208706002208706306-000011     208706006003000108527TOOTH DENTURE BRUSH    0000001000+00002630+00000+0001T   00002630+0000001437          1400 SM7200               2AZ
208707000208707               208707               170213BM     1400+00000+BM0000006171+0000006171+000000000+000000866+0000007030+0000000007+I20000000000+0000007030+Z
208707001208707565-000893     208707006003000643516NOVELTY FLASHING BALL  0000001000+00002630+00000+0001T   00002630+0000001439          1400 SM7745               2AZ
208707002208707206-000210     208707006003000631582TOOTHPICK HOLDER FLOWER0000001000+00003069+00000+0001T   00003069+0000001439          1400 SM7321               2AZ
208707003208707112-116038     208707006009681820246TCS CARRIER BAG MIDI   0000001000+00000035+00000+0001T   00000035+0000001439          1400 SM7090               2AZ
208707004208707080-000133     208707006003000535613CARD&ENV MINI ASTD DSGN0000001000+00000437+00000+0001T   00000437+0000001439          1400 SM7112               2AZ
208708000208708               208708               170213BM     1400+00000+BM0000001753+0000001753+000000000+000000246+0000001990+0000000009+I20000000000+0000001990+Z
208708001208708071-002907     208708006003000588374PEN BALLPOINT REFILL   0000001000+00001753+00000+0001T   00001753+0000001440          1400 SM7130               2AZ
208709000208709               208709               170213BM     1400+00000+BM0000013889+0000013889+000000000+000001947+0000015836+0000000000+I40000015836+0000000000+Z
208709001208709112-116038     208709006009681820246TCS CARRIER BAG MIDI   0000001000+00000035+00000+0001T   00000035+0000001448          1400 SM7090               2AZ
208709002208709368-000265     208709006001023750914PLUSH BEAR 23CM ASSTD C0000002000+00006139+00000+0001T   00006139+0000001448          1400 SM7745               2AZ
208709003208709903-000200     208709006009826020234SWT CHOC RP CHOCO 23G  0000002000+00000788+00000+0001T   00000788+0000001448          1400 SM7150               2AZ
208710000208710               208710               170213BM     1400+00000+BM0000003506+0000003506+000000000+000000492+0000003990+0000000008+I20000000000+0000003990+Z
208710001208710080-000100     208710006003000236114CARD & ENVELOPE BDAY   0000001000+00001753+00000+0001T   00001753+0000001450          1400 SM7112               2AZ
208710002208710080-000115     208710006003000237333CARD&ENVELOPE - BLANKS 0000001000+00001753+00000+0001T   00001753+0000001450          1400 SM7112               2AZ
208711000208711               208711               170213BM     1400+00000+BM0000008800+0000008800+000000000+000001234+0000010030+0000000004+I20000000000+0000010030+Z
208711001208711112-116038     208711006009681820246TCS CARRIER BAG MIDI   0000001000+00000035+00000+0001T   00000035+0000001452          1400 SM7090               2AZ
208711002208711159-000043-H   208711006001023416629HOOKS ADHESIVE 3PCE SQR0000001000+00001139+00000+0001T   00001139+0000001452          1400 SM7200               2AZ
208711003208711206-000120     208711006003000628308PEELER CARROT SHARPENER0000001000+00001753+00000+0001T   00001753+0000001452          1400 SM7321               2AZ
208711004208711002-012271     208711006001023849120TONGS 23cm RUBBER-GRIP 0000001000+00003507+00000+0001T   00003507+0000001452          1400 SM7300               2AZ
208711005208711084-070005     208711006001023627902NAIL FILES 6PCE H/GLOW 0000001000+00000876+00000+0001T   00000876+0000001452          1400 SM7200               2AZ
208711006208711055-009254     208711006001023527073PICTURE-HOOK+PINS 5PCE 0000001000+00001490+00000+0001T   00001490+0000001452          1400 SM7810               2AZ
208712000208712               208712               170213BM     1400+00000+BM0000000874+0000000874+000000000+000000124+0000000990+0000000008+I20000000000+0000000990+Z
208712001208712903-000094     208712006923431501622SWT GS CANDY NECKLACE  0000002000+00000437+00000+0001T   00000437+0000001452          1400 SM7150               2AZ
208713000208713               208713               170213BM     1400+00000+BM0000003506+0000003506+000000000+000000492+0000003990+0000000008+I20000000000+0000003990+Z
208713001208713077-000324     208713006001023677594GIFT-BAG 33X45CM E/D FL0000002000+00001753+00000+0001T   00001753+0000001453          1400 SM7112               2AZ
208714000208714               208714               170213BM     1400+00000+BM0000004856+0000004856+000000000+000000680+0000005530+0000000006+I20000000000+0000005530+Z
208714001208714018-000136     208714006001023659026MUG OCC LOVE W/PLUSH   0000001000+00003507+00000+0001T   00003507+0000001454          1400 SM7515               2AZ
208714002208714077-000312     208714006001023608697GIFT-BAG 10X35CM GLOSS 0000001000+00001314+00000+0001T   00001314+0000001454          1400 SM7112               2AZ
208714003208714112-116038     208714006009681820246TCS CARRIER BAG MIDI   0000001000+00000035+00000+0001T   00000035+0000001454          1400 SM7090               2AZ
208715000208715               208715               170213BM     1400+00000+BM0000002366+0000002366+000000000+000000332+0000002690+0000000008+I20000000000+0000002690+Z
208715001208715078-000025     208715008887013700064SUPERGLUE 3g 1PCE CARD 0000001000+00000876+00000+0001T   00000876+0000001505          1400 SM7810               2AZ
208715002208715027-783002     208715006001023874658SCOURERS FOAM PACK OF 30000001000+00001490+00000+0001T   00001490+0000001505          1400 SM7212               2AZ
208716000208716               208716               170213BM     1400+00000+BM0000005874+0000005874+000000000+000000823+0000006697+0000000000+I40000006697+0000000000+Z
208716001208716089-060027     208716006003000245871KEY-CHAIN HEART 6X6cm  0000001000+00003069+00000+0001T   00003069+0000001507          1400 SM7205               2AZ
208716002208716206-000630     208716006003000631919SPECTACLE CLEANING BRUS0000001000+00001227+00000+0001T   00001227+0000001507          1400 SM7321               2AZ
208716003208716077-000303     208716006001023593757GIFT-BAG PAPER MED     0000001000+00001578+00000+0001T   00001578+0000001507          1400 SM7112               2AZ
208717000208717               208717               170213BM     1400+00000+BM0000005698+0000005698+000000000+000000799+0000006490+0000000007+I20000000000+0000006490+Z
208717001208717565-000002     208717006003000308071NOVELTY GROWING ANIMALS0000001000+00001753+00000+0001T   00001753+0000001509          1400 SM7745               2AZ
208717002208717566-000070     208717006003000283798STICKERS POP UP ASSTD  0000001000+00001753+00000+0001T   00001753+0000001509          1400 SM7130               2AZ
208717003208717566-000352     208717006001023809261STICKERS LASER ASSTD   0000001000+00002192+00000+0001T   00002192+0000001509          1400 SM7130               2AZ
208718000208718               208718               170213BM     1400+00000+BM0000002366+0000002366+000000000+000000332+0000002690+0000000008+I20000000000+0000002690+Z
208718001208718077-000303     208718006001023593757GIFT-BAG PAPER MED     0000001000+00001578+00000+0001T   00001578+0000001512          1400 SM7112               2AZ
208718002208718903-000200     208718006009826020234SWT CHOC RP CHOCO 23G  0000001000+00000788+00000+0001T   00000788+0000001512          1400 SM7150               2AZ
208719000208719               208719               170213BM     1400+00000+BM0000006138+0000006138+000000000+000000860+0000006998+0000000000+I40000006998+0000000000+Z
208719001208719089-060027     208719006003000245871KEY-CHAIN HEART 6X6cm  0000002000+00003069+00000+0001T   00003069+0000001520          1400 SM7205               2AZ
208720000208720               208720               170213BM     1400+00000+BM0000004250+0000004250+000000000+000000597+0000004840+0000000007+I20000000000+0000004840+Z
208720001208720089-060027     208720006003000245871KEY-CHAIN HEART 6X6cm  0000001000+00003069+00000+0001T   00003069+0000001522          1400 SM7205               2AZ
208720002208720077-000383     208720006003000247943GIFT-BAG 11X14CM S/COL 0000001000+00000788+00000+0001T   00000788+0000001522          1400 SM7112               2AZ
208720003208720903-000183     208720006003000451043SWT LB HEART LOLLY     0000001000+00000393+00000+0001T   00000393+0000001522          1400 SM7150               2AZ
208721000208721               208721               170213BM     1400+00000+BM0000002805+0000002805+000000000+000000393+0000003198+0000000000+I40000003198+0000000000+Z
208721001208721028-085274     208721006001023641571BBQ LIGHTER         H&L0000001000+00002192+00000+0001T   00002192+0000001524          1400 SM7305               2AZ
208721002208721077-000321     208721006001023677501GIFT-BAG 11X14CM E/D FL0000001000+00000613+00000+0001T   00000613+0000001524          1400 SM7112               2AZ
208722000208722               208722               170213BM     1400+00000+BM0000000613+0000000613+000000000+000000086+0000000690+0000000009+I20000000000+0000000690+Z
208722001208722306-000021     208722006001023169433EARBUDS 100PCE IN BAG  0000001000+00000613+00000+0001T   00000613+0000001525          1400 SM7200               2AZ
208723000208723               208723               170213BM     1400+00000+BM0000001576+0000001576+000000000+000000222+0000001790+0000000008+I20000000000+0000001790+Z
208723001208723077-000010-F   208723006003453000461CREPE-PAPER BLUE       0000002000+00000788+00000+0001T   00000788+0000001527          1400 SM7112               2AZ
208724000208724               208724               170213BM     1400+00000+BM0000002980+0000002980+000000000+000000418+0000003390+0000000008+I20000000000+0000003390+Z
208724001208724006-000120     208724006001023346889BALLOONS 10PC MIX COL  0000001000+00001753+00000+0001T   00001753+0000001529          1400 SM7131               2AZ
208724002208724077-000245     208724006001023759214GIFT-RIBBON METALLICx2 0000001000+00001227+00000+0001T   00001227+0000001529          1400 SM7112               2AZ
208725000208725               208725               170213BM     1400+00000+BM0000010131+0000010131+000000000+000001420+0000011550+0000000001+I20000000000+0000011550+Z
208725001208725112-116069     208725006009681820277TCS CARRIER BAG JUMBO  0000001000+00000048+00000+0001T   00000048+0000001531          1400 SM7090               2AZ
208725002208725106-001119     208725006003000449972WATER BOTTLE ALUM 750ml0000001000+00003946+00000+0001T   00005262+0008171531          1400 SM7210               2AZ
208725003208725369-001138     208725006003000555185VINYL 8.5cm THEMED DUCK0000001000+00001753+00000+0001T   00002630+0008141531          1400 SM7745               2AZ
208725004208725200-000025-A   208725006925406841054BAG ZIPPERSEAL 15PC    0000002000+00002192+00000+0001T   00002192+0000001531          1400 SM7214               2AZ
208726000208726               208726               170213BM     1400+00000+BM0000028060+0000028060+000000000+000003930+0000031990+0000000000+I40000031990+0000000000+Z
208726001208726106-001105     208726006001023711564WATER-BOTTLE 500ml     0000001000+00001753+00000+0001T   00001753+0000001533          1400 SM7210               2AZ
208726002208726362-001026     208726006001023829191MAKE-UP TEEN LIP-GLOSS 0000003000+00005262+00000+0001T   00005262+0000001533          1400 SM7160               2AZ
208726003208726204-000030     208726006003000683536MEMO HOLDER SAYINGS    0000003000+00003507+00000+0001T   00003507+0000001533          1400 SM7300               2AZ
208727000208727               208727               170213BM     1400+00000+BM0000005260+0000005260+000000000+000000737+0000005990+0000000007+I20000000000+0000005990+Z
208727001208727027-001010     208727006001023171481FEATHER-DUSTER PL-HNDLE0000001000+00001753+00000+0001T   00001753+0000001534          1400 SM7212               2AZ
208727002208727038-001800     208727006003000623303DOILIE PAPER HRT 24PC  0000001000+00003507+00000+0001T   00003507+0000001534          1400 SM7300               2AZ
208728000208728               208728               170213BM     1400+00000+BM0000003711+0000003711+000000000+000000523+0000004230+0000000004+I20000000000+0000004230+Z
208728001208728903-000194     208728006009826020616SWT CHOC RP LOLLY 25G  0000001000+00001314+00000+0001T   00001314+0000001536          1400 SM7150               2AZ
208728002208728903-000183     208728006003000451043SWT LB HEART LOLLY     0000002000+00000393+00000+0001T   00000393+0000001536          1400 SM7150               2AZ
208728003208728903-000200     208728006009826020234SWT CHOC RP CHOCO 23G  0000002000+00000788+00000+0001T   00000788+0000001536          1400 SM7150               2AZ
208728004208728112-116038     208728006009681820246TCS CARRIER BAG MIDI   0000001000+00000035+00000+0001T   00000035+0000001536          1400 SM7090               2AZ
208729000208729               208729               170213BM     1400+00000+BM0000017540+0000017540+000000000+000002457+0000019990+0000000007+I20000000000+0000019990+Z
208729001208729266-001025     208729006003000108756BOYS TOYS SWORD 75cm   0000001000+00005262+00000+0001T   00005262+0000001536          1400 SM7710               2AZ
208729002208729266-000509     208729006003000109821BOYS PLAYSET TRANSFORM 0000001000+00007016+00000+0001T   00007016+0000001536          1400 SM7710               2AZ
208729003208729368-000101     208729006003000449859PLUSH CAT 17cm KITTY   0000001000+00005262+00000+0001T   00005262+0000001536          1400 SM7745               2AZ
208730000208730               208730               170213BM     1400+00000+BM0000001753+0000001753+000000000+000000246+0000001990+0000000009+I20000000000+0000001990+Z
208730001208730056-005752     208730006003000491674CAR AIR-FRESH FISH ASST0000001000+00001753+00000+0001T   00001753+0000001537          1400 SM7860               2AZ
208731000208731               208731               170213BM     1400+00000+BM0000006255+0000006255+000000000+000000876+0000007130+0000000001+I20000000000+0000007130+Z
208731001208731304-001502     208731006003000035533FLWR SATIN R/BUD 55CM  0000001000+00000613+00000+0001T   00000613+0000001539          1400 SM7510               2AZ
208731002208731018-000130     208731006001023867537MUG OCC LOVE MINI+HEART0000001000+00003507+00000+0001T   00003507+0000001539          1400 SM7515               2AZ
208731003208731018-000177     208731006001023797513MUG MINI LOVE ASSTD    0000003000+00000700+00000+0001T   00000700+0000001539          1400 SM7515               2AZ
208731004208731112-116038     208731006009681820246TCS CARRIER BAG MIDI   0000001000+00000035+00000+0001T   00000035+0000001539          1400 SM7090               2AZ
208732000208732               208732               170213BM     1400+00000+BM0000007892+0000007892+000000000+000001106+0000008998+0000000000+I40000008998+0000000000+Z
208732001208732304-001606     208732006001023842527BRANCH DRIED WHEAT 75cm0000002000+00003946+00000+0001T   00003946+0000001545          1400 SM7510               2AZ
208733000208733               208733               170213BM     1400+00000+BM0000001752+0000001752+000000000+000000246+0000001990+0000000008+I20000000000+0000001990+Z
208733001208733077-000408     208733006003000145218G/BAG PP 15X21X7CM     0000002000+00000876+00000+0001T   00000876+0000001554          1400 UC6112               2AZ
208734000208734               208734               170213BM     1400+00000+BM0000005821+0000005821+000000000+000000816+0000006637+0000000000+I40000006637+0000000000+Z
208734001208734077-000303     208734006001023593757GIFT-BAG PAPER MED     0000002000+00001578+00000+0001T   00001578+0000001556          1400 UC6112               2AZ
208734002208734018-000129     208734006001023403353MUG OCC. LOVE V-SHAPE  0000001000+00002630+00000+0001T   00002630+0000001556          1400 UC6515               2AZ
208734003208734112-116038     208734006009681820246TCS CARRIER BAG MIDI   0000001000+00000035+00000+0001T   00000035+0000001556          1400 UC6090               2AZ
208735000208735               208735               170213BM     1400+00000+BM0000001314+0000001314+000000000+000000184+0000001490+0000000008+I20000000000+0000001490+Z
208735001208735046-000012     208735006904708013062BATTERIES AA  CARD-OF-40000001000+00001314+00000+0001T   00001314+0000001557          1400 UC6312               2AZ
208736000208736               208736               170213BM     1400+00000+BM0000002013+0000002013+000000000+000000284+0000002290+0000000007+I20000000000+0000002290+Z
208736001208736903-000200     208736006009826020234SWT CHOC RP CHOCO 23G  0000002000+00000788+00000+0001T   00000788+0000001602          1400 UC6150               2AZ
208736002208736080-000133     208736006003000535613CARD&ENV MINI ASTD DSGN0000001000+00000437+00000+0001T   00000437+0000001602          1400 UC6112               2AZ
208737000208737               208737               170213BM     1400+00000+BM0000003507+0000003507+000000000+000000491+0000003990+0000000008+I20000000000+0000003990+Z
208737001208737018-005009     208737006001023725608MUG W/PLUSH-BEAR LOVE  0000001000+00003507+00000+0001T   00003507+0000001606          1400 UC6515               2AZ
208738000208738               208738               170213BM     1400+00000+BM0000008799+0000008799+000000000+000001233+0000010032+0000000000+I40000010032+0000000000+Z
208738001208738560-000101     208738006001023548740ANIMALS OCEAN-IN-TUBE  0000001000+00003507+00000+0001T   00003507+0000001626          1400 SM7745               2AZ
208738002208738079-006495     208738006003000159987GLITTER SHAKERS 6PK    0000001000+00002630+00000+0001T   00002630+0000001626          1400 SM7130               2AZ
208738003208738566-002000     208738000721129013206STICKERS CRYSTAL ASSTD 0000002000+00000700+00000+0001T   00000700+0000001626          1400 SM7130               2AZ
208738004208738266-001302     208738006001023331892MARBLES 16MM 45PC      0000001000+00001227+00000+0001T   00001227+0000001626          1400 SM7710               2AZ
208738005208738112-116038     208738006009681820246TCS CARRIER BAG MIDI   0000001000+00000035+00000+0001T   00000035+0000001626          1400 SM7090               2AZ
208739000208739               208739               170213BM     1400+00000+BM0000009328+0000009328+000000000+000001308+0000010630+0000000006+I20000000000+0000010630+Z
208739001208739903-000151     208739006009803374411SWT SML RND R/BOW LOLLY0000001000+00000525+00000+0001T   00000525+0000001627          1400 SM7150               2AZ
208739002208739162-010775     208739006001492107752#TAG LDS WRISTWEAR     0000001000+00004385+00000+0001T   00004385+0000001627          1400 SM7160               2AZ
208739003208739018-000210     208739006003000580095MUG DAILY TEXTS 4-ASST 0000001000+00001753+00000+0001T   00001753+0000001627          1400 SM7515               2AZ
208739004208739206-000450     208739006003000619863DRINKING JAR GLOBE     0000001000+00002630+00000+0001T   00002630+0000001627          1400 SM7321               2AZ
208739005208739112-116038     208739006009681820246TCS CARRIER BAG MIDI   0000001000+00000035+00000+0001T   00000035+0000001627          1400 SM7090               2AZ
208740000208740               208740               170213BM     1400+00000+BM0000010524+0000010524+000000000+000001474+0000011998+0000000000+I40000011998+0000000000+Z
208740001208740368-000101     208740006003000449859PLUSH CAT 17cm KITTY   0000002000+00005262+00000+0001T   00005262+0000001630          1400 SM7745               2AZ
208741000208741               208741               170213BM     1400+00000+BM0000001753+0000001753+000000000+000000246+0000001999+0000000000+I40000001999+0000000000+Z
208741001208741565-000888     208741006003000607846NOVELTY MESH BALL      0000001000+00001753+00000+0001T   00001753+0000001631          1400 SM7745               2AZ
208742000208742               208742               170213BM     1400+00000+BM0000001314+0000001314+000000000+000000184+0000001490+0000000008+I20000000000+0000001490+Z
208742001208742077-000312     208742006001023608697GIFT-BAG 10X35CM GLOSS 0000001000+00001314+00000+0001T   00001314+0000001631          1400 SM7112               2AZ
208743000208743               208743               170213BM     1400+00000+BM0000002454+0000002454+000000000+000000344+0000002790+0000000008+I20000000000+0000002790+Z
208743001208743077-000011-D   208743006001023808554TISSUE-WRAP WHITE 10PCE0000001000+00000876+00000+0001T   00000876+0000001634          1400 SM7112               2AZ
208743002208743077-000315     208743006003000181186GIFT-BAG 20x28cm MATT  0000001000+00001578+00000+0001T   00001578+0000001634          1400 SM7112               2AZ
208744000208744               208744               170213BM     1400+00000+BM0000002630+0000002630+000000000+000000369+0000002990+0000000009+I20000000000+0000002990+Z
208744001208744206-000450     208744006003000619863DRINKING JAR GLOBE     0000001000+00002630+00000+0001T   00002630+0000001637          1400 SM7321               2AZ
208745000208745               208745               170213BM     1400+00000+BM0000001753+0000001753+000000000+000000246+0000001990+0000000009+I20000000000+0000001990+Z
208745001208745565-000888     208745006003000607846NOVELTY MESH BALL      0000001000+00001753+00000+0001T   00001753+0000001638          1400 SM7745               2AZ
208746000208746               208746               170213BM     1400+00000+BM0000007926+0000007926+000000000+000001111+0000009037+0000000000+I40000009037+0000000000+Z
208746001208746051-002400     208746006001023616180TRIGGER-SPRAYER 900ml  0000001000+00002192+00000+0001T   00002192+0000001640          1400 SM7820               2AZ
208746002208746051-600682     208746006003000267040BIRD FEEDER 11x30cm RND0000001000+00005262+00000+0001T   00005262+0000001640          1400 SM7820               2AZ
208746003208746080-000133     208746006003000535613CARD&ENV MINI ASTD DSGN0000001000+00000437+00000+0001T   00000437+0000001640          1400 SM7112               2AZ
208746004208746112-116038     208746006009681820246TCS CARRIER BAG MIDI   0000001000+00000035+00000+0001T   00000035+0000001640          1400 SM7090               2AZ
208747000208747               208747               170213BM     1400+00000+BM0000001753+0000001753+000000000+000000246+0000001990+0000000009+I20000000000+0000001990+Z
208747001208747046-002013-PK6 208747004897006174851BATTERY BUTTON AG13 6PC0000001000+00001753+00000+0001T   00001753+0000001651          1400 UC6312               2AZ
208748000208748               208748               170213BM     1400+00000+BM0000002630+0000002630+000000000+000000369+0000002990+0000000009+I20000000000+0000002990+Z
208748001208748002-220002     208748006001023677877F/COVER SQ 31cm WHT    0000001000+00002630+00000+0001T   00002630+0000001651          1400 UC6300               2AZ
208749000208749               208749               170213BM     1400+00000+BM0000001227+0000001227+000000000+000000172+0000001390+0000000009+I20000000000+0000001390+Z
208749001208749033-000013     208749006001023567215PILL-REMINDER PL       0000001000+00001227+00000+0001T   00001227+0000001657          1400 UC6200               2AZ
208750000208750               208750               170213BM     1400+00000+BM0000005262+0000005262+000000000+000000737+0000005999+0000000000+I40000005999+0000000000+Z
208750001208750566-000319     208750006003000422777STICKERS R/DEC. B/CAGE 0000001000+00005262+00000+0001T   00005262+0000001658          1400 UC6130               2AZ
208751000208751               208751               170213BM     1400+00000+BM0000009992+0000009992+000000000+000001402+0000011394+0000000000+I40000011394+0000000000+Z
208751001208751266-008032     208751006003000023899BOYS PLAYSET FIG COMBAT0000001000+00001490+00000+0001T   00001490+0000001703          1400 UC6710               2AZ
208751002208751071-081091     208751006001151010287STAED/GENKEM ALL-STICK 0000001000+00001227+00000+0001T   00001227+0000001703          1400 UC6130               2AZ
208751003208751566-000004     208751006003000062270STICKER BOOK ABC/BORDER0000001000+00002630+00000+0001T   00002630+0000001703          1400 UC6130               2AZ
208751004208751079-000359     208751006003000639823FELT-TIP PENS THERAPY  0000001000+00002630+00000+0001T   00002630+0000001703          1400 UC6130               2AZ
208751005208751903-000087     208751006001704000161SWT SPECKLED-EGGS 50G  0000001000+00001139+00000+0001T   00001139+0000001703          1400 UC6150               2AZ
208751006208751903-000481     208751006001704007481SWT MOO MILK-SHAKES 60G0000001000+00000876+00000+0001T   00000876+0000001703          1400 UC6150               2AZ
208752000208752               208752               170213BM     1400+00000+BM0000003454+0000003454+000000000+000000484+0000003930+0000000008+I20000000000+0000003930+Z
208752001208752002-000684     208752006001023693778K/TOOL TURNER H/HOUSE  0000001000+00002192+00000+0001T   00002192+0000001705          1400 UC6300               2AZ
208752002208752200-000092     208752006003000576739PICNIC PAPER PLATES 23c0000001000+00001227+00000+0001T   00001227+0000001705          1400 UC6214               2AZ
208752003208752112-116038     208752006009681820246TCS CARRIER BAG MIDI   0000001000+00000035+00000+0001T   00000035+0000001705          1400 UC6090               2AZ
208753000208753               208753               170213BM     1400+00000+BM0000000437+0000000437+000000000+000000062+0000000490+0000000009+I20000000000+0000000490+Z
208753001208753080-000133-A   208753006003000647019MINI VALENTINES CARD   0000001000+00000437+00000+0001T   00000437+0000001706          1400 UC6112               2AZ
208754000208754               208754               170213BM     1400+00000+BM0000001753+0000001753+000000000+000000246+0000001990+0000000009+I20000000000+0000001990+Z
208754001208754009-001708     208754006001023807731SALAD BOWL 15cm SWIRL  0000001000+00001753+00000+0001T   00001753+0000001706          1400 UC6210               2AZ
208755000208755               208755               170213BM     1400+00000+BM0000003419+0000003419+000000000+000000479+0000003898+0000000000+I40000003898+0000000000+Z
208755001208755077-000245     208755006001023759214GIFT-RIBBON METALLICx2 0000001000+00001227+00000+0001T   00001227+0000001709          1400 UC6112               2AZ
208755002208755566-000031     208755006003000283910STICKER BK TEACHER STIC0000001000+00002192+00000+0001T   00002192+0000001709          1400 UC6130               2AZ
208756000208756               208756               170213BM     1400+00000+BM0000008412+0000008412+000000000+000001182+0000009590+0000000004+I20000000000+0000009590+Z
208756001208756080-000133     208756006003000535613CARD&ENV MINI ASTD DSGN0000002000+00000437+00000+0001T   00000437+0000001716          1400 UC6112               2AZ
208756002208756079-009702-E   208756008427973059439PAPER SIRIO A2 BLUE    0000001000+00001051+00000+0001T   00001051+0000001716          1400 UC6130               2AZ
208756003208756079-009702-F   208756008427973059392PAPER SIRIO A2 GREEN   0000001000+00001051+00000+0001T   00001051+0000001716          1400 UC6130               2AZ
208756004208756079-009702-B   208756008427973059491PAPER SIRIO A2 WHITE   0000001000+00001051+00000+0001T   00001051+0000001716          1400 UC6130               2AZ
208756005208756366-006110     208756006003000636075DRESS UP HAIR CHALK 6  0000001000+00004385+00000+0001T   00004385+0000001716          1400 UC6131               2AZ
208757000208757               208757               170213BM     1400+00000+BM0000001578+0000001578+000000000+000000221+0000001790+0000000009+I20000000000+0000001790+Z
208757001208757080-000124     208757006003000297733CARD & ENV VALENTINES  0000001000+00001578+00000+0001T   00001578+0000001717          1400 UC6112               2AZ
208758000208758               208758               170213BM     1400+00000+BM0000006752+0000006752+000000000+000000946+0000007690+0000000008+I20000000000+0000007690+Z
208758001208758048-000836     208758006001023765208TORCH RUBBER 3LED MED  0000001000+00004385+00000+0001T   00004385+0000001719          1400 UC6305               2AZ
208758002208758046-000015     208758006001023680839BATTERIES SIZE:D   2PCE0000001000+00002367+00000+0001T   00002367+0000001719          1400 UC6312               2AZ
A17021300                                          09345806BMSLAVE 2                       SM73IC
A17021301                                          15230806BMSLAVE 2                       SM73IC
C20872300                                          170213BM077-000009     15264472SLAVE 2     SM73IC0000000000+0000000000+0010000002000+
M17021391                              CASH        BMSLAVE 2                       Z-REPORT No.   628TOTAL (Sales - Refunds)           7996.38       CASH TO BE BANKED                 2979.40       DEBIT CARDS                       3973.58       CREDIT CARDS                         0.00       Z-READING                         6952.98       AIRTIME DEBIT CARD SALES             0.00       AIRTIME CARD SALES                   0.00       OVERS/UNDERS                         0.00       AIRTIME CASH SALES                   0.00       GIFT CARDS                           0.00       GIFT CARD CASH SALES                 0.00       ELECTRICITY                        999.99       CLEANING-MATERIALS                  43.40       ROUNDING                             0.01       T O T A L  CASH PAYOUTS           1043.40                                                                                                                                                                                                      Z
M17021392                              CASH        BMABSENT                                                                                                                                                                                          ANNUAL LEAVE                                                                                                                                                                                    DAY OFF                                                                                                                                                                                         COMMENTS          SHIHAAN BALANCE                                                                                                                                                                                                                                                                                                                                                              Z
Y17021300                                          BM00000000703086+000122
ZBM17021319213 SLAVE 2      SALES DATA                     NEXT INVOICE NO.  208759 0628
X BM Slave 2 First invoice 208634 170213 Last invoice 208758 170213 Next invoice 208759 Total number of records 000000414 clbackup completed 19:21:09
