105433000105433               105433               170213BN     1400+00000+BN0000002192+0000002192+000000000+000000307+0000002490+0000000009+I20000000000+0000002490+Z
105433001105433032-000336     105433006001023369109MIRROR HANGING MAGNETIC0000001000+00002192+00000+0001T   00002192+0000000902          1400 J50510               1AZ
105434000105434               105434               170213BN     1400+00000+BN0000006609+0000006609+000000000+000000926+0000007530+0000000005+I20000000000+0000007530+Z
105434001105434158-008939     105434006003000571765TOILET ROLL HOLDER     0000001000+00001314+00000+0001T   00001753+0008170927          1400 J50300               1AZ
105434002105434018-000136     105434006001023659026MUG OCC LOVE W/PLUSH   0000001000+00003507+00000+0001T   00003507+0000000927          1400 J50515               1AZ
105434003105434089-000030     105434006003000575671K/CHAIN LOVE MTL ASSTD 0000001000+00001753+00000+0001T   00001753+0000000927          1400 J50205               1AZ
105434004105434112-116038     105434006009681820246TCS CARRIER BAG MIDI   0000001000+00000035+00000+0001T   00000035+0000000927          1400 J50090               1AZ
105435000105435               105435               170213BN     1400+00000+BN0000052595+0000052595+000000000+000007365+0000059960+0000000000+I40000059960+0000000000+Z
105435001105435006-000166-H   105435006003000608096BALLOONS HELIUM 6PC WHT0000013000+00001314+00000+0001T   00001314+0000000943          1400 J50131               1AZ
105435002105435006-000167-C   105435006003000516971BALLOONS PINK METALLIC 0000001000+00001314+00000+0001T   00001314+0000000943          1400 J50131               1AZ
105435003105435006-000166-C   105435006003000516377BALLOONS LRG 6PC PINK  0000011000+00001314+00000+0001T   00001314+0000000943          1400 J50131               1AZ
105435004105435006-000166-D   105435006003000516490BALLOONS LRG 6PC RED   0000014000+00001314+00000+0001T   00001314+0000000943          1400 J50131               1AZ
105435005105435006-000166-C   105435006003000516377BALLOONS LRG 6PC PINK  0000001000+00001314+00000+0001T   00001314+0000000943          1400 J50131               1AZ
105435006105435112-116038     105435006009681820246TCS CARRIER BAG MIDI   0000001000+00000035+00000+0001T   00000035+0000000943          1400 J50090               1AZ
105436000105436               105436               170213BN     1400+00000+BN0000001227+0000001227+000000000+000000172+0000001390+0000000009+I20000000000+0000001390+Z
105436001105436071-081091     105436006001151010287STAED/GENKEM ALL-STICK 0000001000+00001227+00000+0001T   00001227+0000000945          1400 J50130               1AZ
105437000105437               105437               170213BN     1400+00000+BN0000004869+0000004869+000000000+000000682+0000005550+0000000001+I20000000000+0000005550+Z
105437001105437077-000310     105437006001023608635GIFT-BAG 18X23CM GLOSS 0000001000+00001314+00000+0001T   00001314+0000001318          1400 J50112               1AZ
105437002105437018-000136     105437006001023659026MUG OCC LOVE W/PLUSH   0000001000+00003507+00000+0001T   00003507+0000001318          1400 J50515               1AZ
105437003105437112-116069     105437006009681820277TCS CARRIER BAG JUMBO  0000001000+00000048+00000+0001T   00000048+0000001318          1400 J50090               1AZ
105438000105438               105438               170213BN     1400+00000+BN0000002717+0000002717+000000000+000000381+0000003098+0000000000+I40000003098+0000000000+Z
105438001105438150-004030-H   105438006001023435798BATH-PLUG RUBBER WHITE 0000001000+00000613+00000+0001T   00000613+0000001320          1400 J50810               1AZ
105438002105438150-000024     105438006001023435217BASIN-PLUG RUBBER/CHR  0000001000+00002104+00000+0001T   00002104+0000001320          1400 J50810               1AZ
105439000105439               105439               170213BN     1400+00000+BN0000000700+0000000700+000000000+000000098+0000000790+0000000008+I20000000000+0000000790+Z
105439001105439564-000012     105439006001023130075BUBBLE BOTTLE MAGIC    0000001000+00000700+00000+0001T   00000700+0000001321          1400 J50131               1AZ
105440000105440               105440               170213BN     1400+00000+BN0000002892+0000002892+000000000+000000406+0000003290+0000000008+I20000000000+0000003290+Z
105440001105440106-008105     105440006009654960566S/DRESSING BOTTLE 500ml0000001000+00001490+00000+0001T   00001490+0000001322          1400 J50210               1AZ
105440002105440105-001005     105440006001023858214CONTAINERS MINI 6PCE   0000001000+00001402+00000+0001T   00001402+0000001322          1400 J50210               1AZ
105441000105441               105441               170213BN     1400+00000+BN0000002630+0000002630+000000000+000000369+0000002990+0000000009+I20000000000+0000002990+Z
105441001105441306-000001     105441006003000450152NAIL BRUSH SET 7/9/14cm0000001000+00002630+00000+0001T   00002630+0000001329          1400 J50200               1AZ
105442000105442               105442               170213BN     1400+00000+BN0000002540+0000002540+000000000+000000357+0000002897+0000000000+I40000002897+0000000000+Z
105442001105442903-000151     105442006009803374411SWT SML RND R/BOW LOLLY0000002000+00000525+00000+0001T   00000525+0000001345          1400 J50150               1AZ
105442002105442077-000304     105442006001023483232GIFT-BAG 25X32CM E/DAY 0000001000+00001490+00000+0001T   00001490+0000001345          1400 J50112               1AZ
105443000105443               105443               170213BN     1400+00000+BN0000005908+0000005908+000000000+000000829+0000006730+0000000007+I20000000000+0000006730+Z
105443001105443076-000750     105443006003000423347CORD STRETCH 2-CLAW    0000001000+00002630+00000+0001T   00002630+0000001346          1400 J50810               1AZ
105443002105443150-004030-H   105443006001023435798BATH-PLUG RUBBER WHITE 0000001000+00000613+00000+0001T   00000613+0000001346          1400 J50810               1AZ
105443003105443133-046632     105443006008766046632TABLE-CLOTH 132cm SQ   0000001000+00002630+00000+0001T   00002630+0000001346          1400 J50212               1AZ
105443004105443112-116038     105443006009681820246TCS CARRIER BAG MIDI   0000001000+00000035+00000+0001T   00000035+0000001346          1400 J50090               1AZ
105444000105444               105444               170213BN     1400+00000+BN0000003506+0000003506+000000000+000000492+0000003990+0000000008+I20000000000+0000003990+Z
105444001105444079-009702-A   105444008427973059408PAPER SIRIO A2 BLACK   0000001000+00001051+00000+0001T   00001051+0000001425          1400 J50130               1AZ
105444002105444200-000060     105444006001023625762STRAWS 18cm FLEX 200PCE0000001000+00002455+00000+0001T   00002455+0000001425          1400 J50214               1AZ
105445000105445               105445               170213BN     1400+00000+BN0000004208+0000004208+000000000+000000590+0000004798+0000000000+I40000004798+0000000000+Z
105445001105445566-001234     105445006003000217793STICKERS LASER ASSTD   0000001000+00001578+00000+0001T   00001578+0000001445          1400 J50130               1AZ
105445002105445566-000006     105445006001023671189STICKER-BOOK DRESS-UP  0000001000+00002630+00000+0001T   00002630+0000001445          1400 J50130               1AZ
105446000105446               105446               170213BN     1400+00000+BN0000003506+0000003506+000000000+000000492+0000003990+0000000008+I20000000000+0000003990+Z
105446001105446564-000015     105446006003000140862BUBBLE TEST TUBE       0000002000+00001753+00000+0001T   00001753+0000001446          1400 J50131               1AZ
105447000105447               105447               170213BN     1400+00000+BN0000010694+0000010694+000000000+000001499+0000012193+0000000000+I40000012193+0000000000+Z
105447001105447306-000021     105447006001023169433EARBUDS 100PCE IN BAG  0000001000+00000613+00000+0001T   00000613+0000001537          1400 J50200               1AZ
105447002105447369-001138-C   105447006003000587520BABY BATH VINYL G/MAN  0000001000+00002630+00000+0001T   00002630+0000001537          1400 J50745               1AZ
105447003105447567-075466     105447009780263254471BK NOVEL ROMANCE       0000001000+00002630+00000+0001T   00002630+0000001537          1400 J50757               1AZ
105447004105447072-020266     105447006003000400591PET PUPPY TRAINING PAD 0000001000+00003507+00000+0001T   00003507+0000001537          1400 J50870               1AZ
105447005105447306-000524     105447006003000571215TOOTHBRUSH ADULT       0000001000+00001314+00000+0001T   00001314+0000001537          1400 J50200               1AZ
105448000105448               105448               170213BN     1400+00000+BN0000003504+0000003504+000000000+000000491+0000003995+0000000000+I40000003995+0000000000+Z
105448001105448903-004950     105448006002580020304SWT APRICOT SURPRISE   0000001000+00001314+00000+0001T   00001314+0000001539          1400 J50150               1AZ
105448002105448468-002152     105448006003000515622EASTER BUNNY MASK      0000001000+00001314+00000+0001T   00001314+0000001539          1400 J50110               1AZ
105448003105448903-000221     105448006001704007382SWT EENY-MEENY-MOS 60G 0000001000+00000876+00000+0001T   00000876+0000001539          1400 J50150               1AZ
105449000105449               105449               170213BN     1400+00000+BN0000001227+0000001227+000000000+000000172+0000001390+0000000009+I20000000000+0000001390+Z
105449001105449002-000970     105449006001023770578FUNNELS 3PCE WHITE     0000001000+00001227+00000+0001T   00001227+0000001541          1400 J50300               1AZ
105450000105450               105450               170213BN     1400+00000+BN0000006662+0000006662+000000000+000000934+0000007590+0000000006+I20000000000+0000007590+Z
105450001105450089-000192-A   105450006001023901774KEY-CHAIN ACRYLIC      0000001000+00000876+00000+0001T   00000876+0000001545          1400 J50205               1AZ
105450002105450080-000124     105450006003000297733CARD & ENV VALENTINES  0000001000+00001578+00000+0001T   00001578+0000001545          1400 J50112               1AZ
105450003105450304-000720     105450006001023843050F/BUNCH ROSE 6-HEAD AST0000001000+00002630+00000+0001T   00002630+0000001545          1400 J50510               1AZ
105450004105450077-000303     105450006001023593757GIFT-BAG PAPER MED     0000001000+00001578+00000+0001T   00001578+0000001545          1400 J50112               1AZ
105451000105451               105451               170213BN     1400+00000+BN0000005784+0000005784+000000000+000000811+0000006590+0000000005+I20000000000+0000006590+Z
105451001105451903-000481     105451006001704007481SWT MOO MILK-SHAKES 60G0000001000+00000876+00000+0001T   00000876+0000001545          1400 J50150               1AZ
105451002105451251-000041     105451006001023515889SEAL-TAPE BUFF 48mmx50m0000004000+00001227+00000+0001T   00001227+0000001545          1400 J50810               1AZ
105452000105452               105452               170213BN     1400+00000+BN0000010454+0000010454+000000000+000001473+0000011927+0000000000+I40000011927+0000000000+Z
105452001105452080-000500     105452006001023846211CARD&ENV 6PK GLITTER   0000001000+00001753+00000+0001T   00001753+0000001548          1400 J50112               1AZ
105452002105452080-008102     105452006003000080724CARD&ENV MINI 6PK FOIL 0000002000+00001753+00000+0001T   00001753+0000001548          1400 J50112               1AZ
105452003105452071-081104-A   105452006003000326662GLUE-STICK 8g CRD-OF-3 0000001000+00001227+00000+0001T   00001227+0000001548          1400 J50130               1AZ
105452004105452080-000133     105452006003000535613CARD&ENV MINI ASTD DSGN0000009000+00000437+00000+0001T   00000437+0000001548          1400 J50112               1AZ
105452005105452112-116038     105452006009681820246TCS CARRIER BAG MIDI   0000001000+00000035+00000+0001T   00000035+0000001548          1400 J50090               1AZ
105453000105453               105453               170213BN     1400+00000+BN0000010397+0000010397+000000000+000001456+0000011850+0000000003+I20000000000+0000011850+Z
105453001105453368-000012     105453006003000610464PLUSH BEAR 30cm SITTING0000001000+00008771+00000+0001T   00008771+0000001549          1400 J50745               1AZ
105453002105453018-000127     105453006001023380289MUG OCC STRAIGHT LOVE  0000001000+00001578+00000+0001T   00001753+0006471549          1400 J50515               1AZ
105453003105453112-116069     105453006009681820277TCS CARRIER BAG JUMBO  0000001000+00000048+00000+0001T   00000048+0000001549          1400 J50090               1AZ
105454000105454               105454               170213BN     1400+00000+BN0000001227+0000001227+000000000+000000172+0000001390+0000000009+I20000000000+0000001390+Z
105454001105454077-000245     105454006001023759214GIFT-RIBBON METALLICx2 0000001000+00001227+00000+0001T   00001227+0000001550          1400 J50112               1AZ
105455000105455               105455               170213BN     1400+00000+BN0000003461+0000003461+000000000+000000486+0000003940+0000000007+I20000000000+0000003940+Z
105455001105455089-000501     105455006003000622900KEY CHAIN LIGHT LASER  0000001000+00002192+00000+0001T   00002192+0000001553          1400 J50205               1AZ
105455002105455077-000408     105455006003000145218G/BAG PP 15X21X7CM     0000001000+00000876+00000+0001T   00000876+0000001553          1400 J50112               1AZ
105455003105455903-000183     105455006003000451043SWT LB HEART LOLLY     0000001000+00000393+00000+0001T   00000393+0000001553          1400 J50150               1AZ
105456000105456               105456               170213BN     1400+00000+BN0000004695+0000004695+000000000+000000658+0000005353+0000000000+I40000005353+0000000000+Z
105456001105456200-000060     105456006001023625762STRAWS 18cm FLEX 200PCE0000001000+00002455+00000+0001T   00002455+0000001554          1400 J50214               1AZ
105456002105456200-000067     105456006003000330683STRAWS DRINKING 100PC  0000001000+00002192+00000+0001T   00002192+0000001554          1400 J50214               1AZ
105456003105456112-116069     105456006009681820277TCS CARRIER BAG JUMBO  0000001000+00000048+00000+0001T   00000048+0000001554          1400 J50090               1AZ
105457000105457               105457               170213BN     1400+00000+BN0000002630+0000002630+000000000+000000369+0000002990+0000000009+I20000000000+0000002990+Z
105457001105457006-006018     105457006001023735256PARTY-SPRAY HAIR ASSORT0000001000+00002630+00000+0001T   00002630+0000001556          1400 J50131               1AZ
105458000105458               105458               170213BN     1400+00000+BN0000009429+0000009429+000000000+000001322+0000010751+0000000000+I40000010751+0000000000+Z
105458001105458016-006505     105458006001023617576S/JAR GLS MINI CLIP    0000001000+00001490+00000+0001T   00001490+0000001559          1400 J50300               1AZ
105458002105458016-006523     105458006003000297825S/JAR GLS 550ml W/WORDS0000001000+00004385+00000+0001T   00004385+0000001559          1400 J50300               1AZ
105458003105458077-000251     105458006003000639106GIFT-DECOR RIBBON      0000001000+00002630+00000+0001T   00002630+0000001559          1400 J50112               1AZ
105458004105458903-000295     105458006001704002899SWT MS FRUITY RASCALS  0000001000+00000876+00000+0001T   00000876+0000001559          1400 J50150               1AZ
105458005105458112-116069     105458006009681820277TCS CARRIER BAG JUMBO  0000001000+00000048+00000+0001T   00000048+0000001559          1400 J50090               1AZ
105459000105459               105459               170213BN     1400+00000+BN0000010961+0000010961+000000000+000001536+0000012490+0000000007+I20000000000+0000012490+Z
105459001105459301-000828     105459006003000243945ORN FAIRY CANDLE 20cm  0000001000+00005262+00000+0001T   00005262+0000001600          1400 J50505               1AZ
105459002105459301-000819     105459006001023716323ORN FAIRY SITTING ASSTD0000001000+00003069+00000+0001T   00003069+0000001600          1400 J50505               1AZ
105459003105459077-000270     105459006003000395453GIFT-BAG PPR JMB 33X45 0000001000+00002630+00000+0001T   00002630+0000001600          1400 J50112               1AZ
105460000105460               105460               170213BN     1400+00000+BN0000002630+0000002630+000000000+000000369+0000002990+0000000009+I20000000000+0000002990+Z
105460001105460006-006019     105460006001023908193PARTY-SPRAY GLITTER    0000001000+00002630+00000+0001T   00002630+0000001600          1400 J50131               1AZ
105461000105461               105461               170213BN     1400+00000+BN0000010303+0000010303+000000000+000001445+0000011748+0000000000+I40000011748+0000000000+Z
105461001105461007-000324     10546100600968585864125 SHEETS BRIGHTS MARLI0000001000+00003507+00000+0001T   00003507+0000001603          1400 J50130               1AZ
105461002105461071-001012     105461006001023474445MARKERS BLACK ROUND    0000001000+00000876+00000+0001T   00000876+0000001603          1400 J50130               1AZ
105461003105461079-130100     105461006003000542635A&C DIY COLOUR EYES 24P0000001000+00001490+00000+0001T   00001490+0000001603          1400 J50130               1AZ
105461004105461079-006500     105461006001023557186GLUE GLITTER 6/10 PCE  0000001000+00001753+00000+0001T   00001753+0000001603          1400 J50130               1AZ
105461005105461566-001234     105461006003000217793STICKERS LASER ASSTD   0000001000+00001578+00000+0001T   00001578+0000001603          1400 J50130               1AZ
105461006105461079-009702-A   105461008427973059408PAPER SIRIO A2 BLACK   0000001000+00001051+00000+0001T   00001051+0000001603          1400 J50130               1AZ
105461007105461112-116069     105461006009681820277TCS CARRIER BAG JUMBO  0000001000+00000048+00000+0001T   00000048+0000001603          1400 J50090               1AZ
105462000105462               105462               170213BN     1400+00000+BN0000003945+0000003945+000000000+000000553+0000004498+0000000000+I40000004498+0000000000+Z
105462001105462366-007601     105462006003000655472DRESS UP MASK THEATRICA0000001000+00000876+00000+0001T   00000876+0000001611          1400 J50131               1AZ
105462002105462079-014152     105462006003000253074ART+CRAFT PK50 ASSTD   0000001000+00003069+00000+0001T   00003069+0000001611          1400 J50130               1AZ
105463000105463               105463               170213BN     1400+00000+BN0000007014+0000007014+000000000+000000983+0000007990+0000000007+I20000000000+0000007990+Z
105463001105463024-091103     105463006003453014307BAKING-CUP MUFFIN 50PCE0000001000+00002192+00000+0001T   00002192+0000001612          1400 J50300               1AZ
105463002105463024-091103-A   105463006003000419876B/CUP PAPER SET 48PC   0000001000+00001753+00000+0001T   00001753+0000001612          1400 J50300               1AZ
105463003105463024-007001     105463006002580007688CAKE/BISCUIT-SERVER    0000001000+00003069+00000+0001T   00003069+0000001612          1400 J50300               1AZ
105464000105464               105464               170213BN     1400+00000+BN0000004336+0000004336+000000000+000000609+0000004940+0000000005+I20000000000+0000004940+Z
105464001105464077-000299     105464006003000395576G/BAG 32x25cm LRG LOVE 0000001000+00001490+00000+0001T   00001490+0000001613          1400 J50112               1AZ
105464002105464018-000177     105464006001023797513MUG MINI LOVE ASSTD    0000001000+00000700+00000+0001T   00000700+0000001613          1400 J50515               1AZ
105464003105464903-000183     105464006003000451043SWT LB HEART LOLLY     0000001000+00000393+00000+0001T   00000393+0000001613          1400 J50150               1AZ
105464004105464903-000211     105464006002099001238SWT GS MALLOW ICE CREAM0000001000+00001753+00000+0001T   00001753+0000001613          1400 J50150               1AZ
105465000105465               105465               170213BN     1400+00000+BN0000014955+0000014955+000000000+000002096+0000017051+0000000000+I40000017051+0000000000+Z
105465001105465566-000006     105465006001023671189STICKER-BOOK DRESS-UP  0000001000+00002630+00000+0001T   00002630+0000001620          1400 J50130               1AZ
105465002105465071-004200     105465006001023835901SAFETY SCISSOR         0000001000+00001753+00000+0001T   00001753+0000001620          1400 J50130               1AZ
105465003105465567-011301     105465009781928231165BOOK READER AFR DISNEY 0000001000+00004385+00000+0001T   00004385+0000001620          1400 J50757               1AZ
105465004105465112-116069     105465006009681820277TCS CARRIER BAG JUMBO  0000001000+00000048+00000+0001T   00000048+0000001620          1400 J50090               1AZ
105465005105465567-010163     105465006003000485208BOOK TOP ASSTD CHILDREN0000001000+00006139+00000+0001T   00006139+0000001620          1400 J50757               1AZ
105466000105466               105466               170213BN     1400+00000+BN0000008771+0000008771+000000000+000001228+0000009990+0000000009+I20000000000+0000009990+Z
105466001105466368-000614     105466006001023705808PLUSH LOVE 30cm        0000001000+00008771+00000+0001T   00008771+0000001622          1400 J50745               1AZ
105467000105467               105467               170213BN     1400+00000+BN0000003795+0000003795+000000000+000000538+0000004333+0000000000+I40000004333+0000000000+Z
105467001105467903-000183     105467006003000451043SWT LB HEART LOLLY     0000006000+00000393+00000+0001T   00000393+0000001647          1400 J50150               1AZ
105467002105467046-000011     105467004897006172994BATTERIES SIZE:AA  2PCE0000001000+00001402+00000+0001T   00001402+0000001647          1400 J50312               1AZ
105467003105467112-116038     105467006009681820246TCS CARRIER BAG MIDI   0000001000+00000035+00000+0001T   00000035+0000001647          1400 J50090               1AZ
105468000105468               105468               170213BN     1400+00000+BN0000006871+0000006871+000000000+000000964+0000007830+0000000005+I20000000000+0000007830+Z
105468001105468079-006496     105468006003000160105GLITTER SHAKERS        0000001000+00001753+00000+0001T   00001753+0000001648          1400 J50130               1AZ
105468002105468079-000600     105468006003000160990ART-SHEETS FOAM ASSTD-C0000001000+00003507+00000+0001T   00003507+0000001648          1400 J50130               1AZ
105468003105468080-000133-A   105468006003000647019MINI VALENTINES CARD   0000001000+00000437+00000+0001T   00000437+0000001648          1400 J50112               1AZ
105468004105468903-000087     105468006001704000161SWT SPECKLED-EGGS 50G  0000001000+00001139+00000+0001T   00001139+0000001648          1400 J50150               1AZ
105468005105468112-116038     105468006009681820246TCS CARRIER BAG MIDI   0000001000+00000035+00000+0001T   00000035+0000001648          1400 J50090               1AZ
105469000105469               105469               170213BN     1400+00000+BN0000005083+0000005083+000000000+000000713+0000005790+0000000006+I20000000000+0000005790+Z
105469001105469903-000138     105469006002099004314SWT GS WINE GUMS 60G   0000002000+00000788+00000+0001T   00000788+0000001649          1400 J50150               1AZ
105469002105469301-085004     105469006003000420469ORN LOVE PLAQUE 21X10CM0000001000+00003507+00000+0001T   00003946+0006471649          1400 J50505               1AZ
105470000105470               105470               170213BN     1400+00000+BN0000001753+0000001753+000000000+000000246+0000001999+0000000000+I40000001999+0000000000+Z
105470001105470046-002032-PK2 105470004897006175063BATTERIES CR-2032  2PCE0000001000+00001753+00000+0001T   00001753+0000001650          1400 J50312               1AZ
105471000105471               105471               170213BN     1400+00000+BN0000001753+0000001753+000000000+000000246+0000001999+0000000000+I40000001999+0000000000+Z
105471001105471077-000299-A   105471006003000670888GIFT-BAG PAPER JMB LOVE0000001000+00001753+00000+0001T   00001753+0000001651          1400 J50112               1AZ
105472000105472               105472               170213BN     1400+00000+BN0000001753+0000001753+000000000+000000246+0000001999+0000000000+I40000001999+0000000000+Z
105472001105472903-000624     105472006003000671793SWEET LOLLY BLU/BRRY   0000001000+00001753+00000+0001T   00001753+0000001653          1400 J50150               1AZ
105473000105473               105473               170213BN     1400+00000+BN0000013855+0000013855+000000000+000001941+0000015790+0000000006+I20000000000+0000015790+Z
105473001105473077-000299-A   105473006003000670888GIFT-BAG PAPER JMB LOVE0000001000+00001753+00000+0001T   00001753+0000001654          1400 J50112               1AZ
105473002105473039-000114     105473006001023524058CANDLE T/LITE RED 3.5CM0000001000+00001753+00000+0001T   00001753+0000001654          1400 J50510               1AZ
105473003105473080-000124     105473006003000297733CARD & ENV VALENTINES  0000001000+00001578+00000+0001T   00001578+0000001654          1400 J50112               1AZ
105473004105473031-000924     105473006001023669964P/FRAME COLLAGE PL     0000001000+00008771+00000+0001T   00008771+0000001654          1400 J50510               1AZ
105474000105474               105474               170213BN     1400+00000+BN0000003507+0000003507+000000000+000000491+0000003990+0000000008+I20000000000+0000003990+Z
105474001105474089-000092     105474006003000457649K/CHAIN BOTTLE OPENER  0000001000+00003507+00000+0001T   00003507+0000001658          1400 J50205               1AZ
105475000105475               105475               170213BN     1400+00000+BN0000002104+0000002104+000000000+000000295+0000002390+0000000009+I20000000000+0000002390+Z
105475001105475903-000095     105475006001704011495SWT SPECKLED-EGGS 100G 0000001000+00002104+00000+0001T   00002104+0000001659          1400 J50150               1AZ
105476000105476               105476               170213BN     1400+00000+BN0000002630+0000002630+000000000+000000369+0000002999+0000000000+I40000002999+0000000000+Z
105476001105476076-000030-H   105476006001023429544WASHING-LINE 30m    H&H0000001000+00002630+00000+0001T   00002630+0000001703          1400 J50810               1AZ
105477000105477               105477               170213BN     1400+00000+BN0000001753+0000001753+000000000+000000246+0000001990+0000000009+I20000000000+0000001990+Z
105477001105477200-003026     105477006003000276448REFUSE BAGS 10PCE GREEN0000001000+00001753+00000+0001T   00001753+0000001703          1400 J50214               1AZ
105478000105478               105478               170213BN     1400+00000+BN0000002192+0000002192+000000000+000000307+0000002499+0000000000+I40000002499+0000000000+Z
105478001105478071-000672     105478006003000138975STATIONERY CLIPS PAPER 0000001000+00002192+00000+0001T   00002192+0000001705          1400 J50130               1AZ
105479000105479               105479               170213BN     1400+00000+BN0000008771+0000008771+000000000+000001228+0000009999+0000000000+I40000009999+0000000000+Z
105479001105479464-008106     105479006003000611966GAME 3 IN 1 CHESS      0000001000+00008771+00000+0001T   00008771+0000001709          1400 J50785               1AZ
105480000105480               105480               170213BN     1400+00000+BN0000011047+0000011047+000000000+000001548+0000012590+0000000005+I20000000000+0000012590+Z
105480001105480903-000710     105480006002099007056SWT REFRESHERS MINT    0000001000+00001139+00000+0001T   00001139+0000001722          1400 J50150               1AZ
105480002105480903-004952     105480006002580020052SWT FREAKY FACES 100G  0000001000+00001314+00000+0001T   00001314+0000001722          1400 J50150               1AZ
105480003105480077-000303     105480006001023593757GIFT-BAG PAPER MED     0000001000+00001578+00000+0001T   00001578+0000001722          1400 J50112               1AZ
105480004105480403-000050     105480006003000034956ORN JEWELERY DOLL 30cm 0000001000+00007016+00000+0001T   00007016+0000001722          1400 J50510               1AZ
105481000105481               105481               170213BN     1400+00000+BN0000001050+0000001050+000000000+000000148+0000001190+0000000008+I20000000000+0000001190+Z
105481001105481903-000155     105481006009803374435SWT LOLLY I LUV U HEART0000002000+00000525+00000+0001T   00000525+0000001727          1400 J50150               1AZ
105482000105482               105482               170213BN     1400+00000+BN0000000876+0000000876+000000000+000000123+0000000990+0000000009+I20000000000+0000000990+Z
105482001105482077-000314     105482006003000181148GIFT-BAG 11X14CM MATT  0000001000+00000876+00000+0001T   00000876+0000001728          1400 J50112               1AZ
105483000105483               105483               170213BN     1400+00000+BN0000001578+0000001578+000000000+000000221+0000001799+0000000000+I40000001799+0000000000+Z
105483001105483080-000124     105483006003000297733CARD & ENV VALENTINES  0000001000+00001578+00000+0001T   00001578+0000001756          1400 J50112               1AZ
105484000105484               105484               170213BN     1400+00000+BN0000002278+0000002278+000000000+000000320+0000002590+0000000008+I20000000000+0000002590+Z
105484001105484903-000155     105484006009803374435SWT LOLLY I LUV U HEART0000001000+00000525+00000+0001T   00000525+0000001757          1400 J50150               1AZ
105484002105484077-000299-A   105484006003000670888GIFT-BAG PAPER JMB LOVE0000001000+00001753+00000+0001T   00001753+0000001757          1400 J50112               1AZ
105485000105485               105485               170213BN     1400+00000+BN0000008628+0000008628+000000000+000001212+0000009840+0000000000+I20000000000+0000009840+Z
105485001105485077-000011-F   105485006001023808431TISSUE-WRAP BLUE/LILAC 0000001000+00000876+00000+0001T   00000876+0000001805          1400 J50112               1AZ
105485002105485077-000388     105485006003000421671G/BAG 25X32CM VALUE PCK0000001000+00002630+00000+0001T   00002630+0000001805          1400 J50112               1AZ
105485003105485006-001000     105485006003000093779HELIUM BALLOON FILL    0000003000+00000613+00000+0001T   00000613+0000001805          1400 J50131               1AZ
105485004105485903-000155     105485006009803374435SWT LOLLY I LUV U HEART0000001000+00000525+00000+0001T   00000525+0000001805          1400 J50150               1AZ
105485005105485006-000171-D   105485006003000609291BALLOONS 1PC ORANGE PRN0000001000+00000218+00000+0001T   00000218+0000001805          1400 J50131               1AZ
105485006105485006-000170-B   105485006003000608300BALLOONS 1PC L/GREEN   0000001000+00000218+00000+0001T   00000218+0000001805          1400 J50131               1AZ
105485007105485006-000170-K   105485006003000609284BALLOONS 1PC PURPLE    0000001000+00000218+00000+0001T   00000218+0000001805          1400 J50131               1AZ
105485008105485903-000057     105485006005929000173SWT GS NOVELTY GIANT AL0000001000+00002104+00000+0001T   00002104+0000001805          1400 J50150               1AZ
105486000105486               105486               170213BN     1400+00000+BN0000004383+0000004383+000000000+000000615+0000004990+0000000008+I20000000000+0000004990+Z
105486001105486366-002101     105486006003000617715DRESS UP MASK LIGHT UP 0000001000+00002630+00000+0001T   00002630+0000001805          1400 J50131               1AZ
105486002105486366-007600     105486006001023902184MASK THEATRICAL GLITTER0000001000+00001753+00000+0001T   00001753+0000001805          1400 J50131               1AZ
105487000105487               105487               170213BN     1400+00000+BN0000013723+0000013723+000000000+000001924+0000015647+0000000000+I40000015647+0000000000+Z
105487001105487903-000120     105487006002099001665SWEET GS ZILLIONS 50g  0000001000+00000700+00000+0001T   00000700+0000001807          1400 J50150               1AZ
105487002105487078-000025     105487008887013700064SUPERGLUE 3g 1PCE CARD 0000001000+00000876+00000+0001T   00000876+0000001807          1400 J50810               1AZ
105487003105487036-000151     105487006001023810588COATHANGERS    PACK-10 0000001000+00002893+00000+0001T   00002893+0000001807          1400 J50212               1AZ
105487004105487079-000600     105487006003000160990ART-SHEETS FOAM ASSTD-C0000001000+00003507+00000+0001T   00003507+0000001807          1400 J50130               1AZ
105487005105487079-014152     105487006003000253074ART+CRAFT PK50 ASSTD   0000001000+00003069+00000+0001T   00003069+0000001807          1400 J50130               1AZ
105487006105487079-013032-D   105487006003000389643RIBBONS                0000001000+00002630+00000+0001T   00002630+0000001807          1400 J50130               1AZ
105487007105487112-116069     105487006009681820277TCS CARRIER BAG JUMBO  0000001000+00000048+00000+0001T   00000048+0000001807          1400 J50090               1AZ
105488000105488               105488               170213BN     1400+00000+BN0000009031+0000009031+000000000+000001266+0000010290+0000000007+I20000000000+0000010290+Z
105488001105488304-001204     105488006001023737984FLOWER OCC. TEDDY/ROSES0000001000+00001402+00000+0001T   00001490+0006471808          1400 J50510               1AZ
105488002105488018-050000     105488006003000412679MUG OCC LOVE TWIN BEAR 0000001000+00006139+00000+0001T   00006139+0000001808          1400 J50515               1AZ
105488003105488077-000299     105488006003000395576G/BAG 32x25cm LRG LOVE 0000001000+00001490+00000+0001T   00001490+0000001808          1400 J50112               1AZ
A17021300                                          12230748BNSLAVE 1                       J501IC
A17021301                                          18181592BNSLAVE 1                       J503IC
M17021391                              CASH        BNSLAVE 1                       Z-REPORT No.   629TOTAL (Sales - Refunds)           3846.82       CASH TO BE BANKED                 1931.40       DEBIT CARDS                          0.00       CREDIT CARDS                      1915.42       Z-READING                         3846.82       AIRTIME DEBIT CARD SALES             0.00       AIRTIME CARD SALES                   0.00       OVERS/UNDERS                         0.00       AIRTIME CASH SALES                   0.00       GIFT CARDS                           0.00       GIFT CARD CASH SALES                 0.00       T O T A L  CASH PAYOUTS              0.00                                                                                                                                                                                                                                                                                                                                                      Z
M17021392                              CASH        BNABSENT                                                                                                                                                                                          ANNUAL LEAVE                                                                                                                                                                                    DAY OFF                                                                                                                                                                                         COMMENTS                                                                                                                                                                                                                                                                                                                                                                                       Z
Y17021300                                          BN00000000337592+000056
ZBN17021321033 SLAVE 1      SALES DATA                     NEXT INVOICE NO.  105489 0629
X BN Slave 1 First invoice 105433 170213 Last invoice 105488 170213 Next invoice 105489 Total number of records 000000208 clbackup completed 21:03:56
