204067000204067               204067               170213BN     1400+00000+BN0000001753+0000001753+000000000+000000246+0000001990+0000000009+I20000000000+0000001990+Z
204067002204067079-000275     204067006003000160488PAINT-BRUSHES 6PCE PRO 0000001000+00001753+00000+0001T   00001753+0000000910          1400 R68130               2BZ
204068000204068               204068               170213BN     1400+00000+BN0000012324+0000012324+000000000+000001727+0000014050+0000000001+I20000000000+0000014050+Z
204068001204068306-001050     204068006001023843777FIRSTAID KIT 36PC BAG  0000001000+00003507+00000+0001T   00003507+0000000936          1400 R68200               2BZ
204068002204068072-020285     204068006003000451364PET CAT TOY BALLS PK-4 0000001000+00002630+00000+0001T   00002630+0000000936          1400 R68870               2BZ
204068003204068567-075497     204068009780799381634BK NOVEL ROMANCE AFR   0000001000+00006139+00000+0001T   00006139+0000000936          1400 R68757               2BZ
204068004204068112-116069     204068006009681820277TCS CARRIER BAG JUMBO  0000001000+00000048+00000+0001T   00000048+0000000936          1400 R68090               2BZ
204069000204069               204069               170213BN     1400+00000+BN0000001572+0000001572+000000000+000000224+0000001790+0000000006+I20000000000+0000001790+Z
204069001204069903-000183     204069006003000451043SWT LB HEART LOLLY     0000004000+00000393+00000+0001T   00000393+0000000938          1400 R68150               2BZ
204070000204070               204070               170213BN     1400+00000+BN0000007014+0000007014+000000000+000000982+0000007990+0000000006+I20000000000+0000007990+Z
204070001204070004-071205     204070006003000073368USB 2.0 COMPUTER 4 HUB 0000001000+00003507+00000+0001T   00003507+0000000940          1400 R68310               2BZ
204070002204070004-071204     204070006003000624904USB IN-CAR CHARGER 2.1A0000001000+00003507+00000+0001T   00003507+0000000940          1400 R68310               2BZ
204071000204071               204071               170213BN     1400+00000+BN0000004383+0000004383+000000000+000000615+0000004990+0000000008+I20000000000+0000004990+Z
204071001204071050-000364-Z   204071006001023777133PADLOCK IRON 38mm CARD 0000001000+00002630+00000+0001T   00002630+0000001109          1400 R68855               2BZ
204071002204071007-000043     204071006009635831496DISPLAY-BOOK PL A4 20PG0000001000+00001753+00000+0001T   00001753+0000001109          1400 R68130               2BZ
204072000204072               204072               170213BN     1400+00000+BN0000016306+0000016306+000000000+000002287+0000018593+0000000000+I40000018593+0000000000+Z
204072001204072027-000207     204072006003000016570BROOM RUBBER BRISTLES  0000001000+00007016+00000+0001T   00007016+0000001111          1400 R68212               2BZ
204072002204072027-001020     204072006001246602519BROOM FLOOR W/HANDLE   0000001000+00002279+00000+0001T   00002279+0000001111          1400 R68212               2BZ
204072003204072200-003024     204072006001023657299REFUSE BAGS 20PCE BLACK0000001000+00001753+00000+0001T   00001753+0000001111          1400 R68214               2BZ
204072004204072002-000970     204072006001023770578FUNNELS 3PCE WHITE     0000001000+00001227+00000+0001T   00001227+0000001111          1400 R68300               2BZ
204072005204072027-056191     204072006916920933134DISH-BRUSH+HOOK RECT   0000001000+00001753+00000+0001T   00001753+0000001111          1400 R68212               2BZ
204072006204072903-000709     204072006002099007070SWT QUENCHERS FRUIT    0000001000+00001139+00000+0001T   00001139+0000001111          1400 R68150               2BZ
204072007204072903-000710     204072006002099007056SWT REFRESHERS MINT    0000001000+00001139+00000+0001T   00001139+0000001111          1400 R68150               2BZ
204073000204073               204073               170213BN     1400+00000+BN0000022363+0000022363+000000000+000003132+0000025490+0000000005+I20000000000+0000025490+Z
204073001204073107-004105     204073006009703860984BUCKET 9L OPEN         0000001000+00001314+00000+0001T   00001314+0000001112          1400 R68210               2BZ
204073002204073133-000016     204073006003000240609DUSTERS ORANGE PACK-3  0000001000+00001753+00000+0001T   00001753+0000001112          1400 R68212               2BZ
204073003204073002-000748     204073006001023477439GRATER S/S 4-WAY  BLACK0000001000+00008771+00000+0001T   00008771+0000001112          1400 R68300               2BZ
204073004204073002-000712     204073006003000292974C/BOARD WDN 40x30x1.7cm0000001000+00010525+00000+0001T   00010525+0000001112          1400 R68300               2BZ
204074000204074               204074               170213BN     1400+00000+BN0000001965+0000001965+000000000+000000280+0000002240+0000000005+I20000000000+0000002240+Z
204074001204074903-000183     204074006003000451043SWT LB HEART LOLLY     0000005000+00000393+00000+0001T   00000393+0000001114          1400 R68150               2BZ
204075000204075               204075               170213BN     1400+00000+BN0000014427+0000014427+000000000+000002021+0000016440+0000000008+I20000000000+0000016440+Z
204075001204075018-000170     204075006001023775528MUG OCC. LOVE 2PC MINI 0000004000+00002192+00000+0001T   00002192+0000001125          1400 R68515               2BZ
204075002204075046-000014-VP  204075006003000537952BATTERIES H/P SIZE:AAA 0000001000+00004121+00000+0001T   00004121+0000001125          1400 R68312               2BZ
204075003204075039-000108     204075006001023524034TEA-LITE CANDLES 8PCE  0000001000+00001490+00000+0001T   00001490+0000001125          1400 R68510               2BZ
204075004204075112-116069     204075006009681820277TCS CARRIER BAG JUMBO  0000001000+00000048+00000+0001T   00000048+0000001125          1400 R68090               2BZ
204076000204076               204076               170213BN     1400+00000+BN0000002192+0000002192+000000000+000000307+0000002490+0000000009+I20000000000+0000002490+Z
204076001204076018-000170     204076006001023775528MUG OCC. LOVE 2PC MINI 0000001000+00002192+00000+0001T   00002192+0000001126          1400 R68515               2BZ
204077000204077               204077               170213BN     1400+00000+BN0000004906+0000004906+000000000+000000690+0000005596+0000000000+I40000005596+0000000000+Z
204077001204077467-000039     204077006003000672936BEACH-SET 5PCE BUCKET  0000001000+00001753+00000+0001T   00001753+0000001144          1400 R68785               2BZ
204077002204077903-002851     204077000000087108538MENTOS ROLL STRAWBERRY 0000003000+00001051+00000+0001T   00001051+0000001144          1400 R68150               2BZ
204078000204078               204078               170213BN     1400+00000+BN0000003331+0000003331+000000000+000000467+0000003790+0000000008+I20000000000+0000003790+Z
204078001204078079-000010     204078006001023173409P/CRAYONS 12-COL SHORT 0000001000+00001227+00000+0001T   00001227+0000001151          1400 R68130               2BZ
204078002204078903-000095     204078006001704011495SWT SPECKLED-EGGS 100G 0000001000+00002104+00000+0001T   00002104+0000001151          1400 R68150               2BZ
204079000204079               204079               170213BN     1400+00000+BN0000003680+0000003680+000000000+000000516+0000004190+0000000006+I20000000000+0000004190+Z
204079001204079903-000698     204079006002099007032SWT CANDY ECLAIRS 90g  0000001000+00001139+00000+0001T   00001139+0000001152          1400 R68150               2BZ
204079002204079079-000010     204079006001023173409P/CRAYONS 12-COL SHORT 0000001000+00001227+00000+0001T   00001227+0000001152          1400 R68130               2BZ
204079003204079903-005002     204079006002580020021SWT MALLOW SNAKE 120g  0000001000+00001314+00000+0001T   00001314+0000001152          1400 R68150               2BZ
204080000204080               204080               170213BN     1400+00000+BN0000000525+0000000525+000000000+000000074+0000000590+0000000009+I20000000000+0000000590+Z
204080001204080903-000155     204080006009803374435SWT LOLLY I LUV U HEART0000001000+00000525+00000+0001T   00000525+0000001153          1400 R68150               2BZ
204081000204081               204081               170213BN     1400+00000+BN0000009240+0000009240+000000000+000001296+0000010536+0000000000+I40000010536+0000000000+Z
204081001204081046-000014-A   204081004897006177708BATTERIES SIZE:AAA 8PCE0000001000+00001753+00000+0001T   00001753+0000001155          1400 R68312               2BZ
204081002204081046-000012-A   204081006003000208296BATTERIES H/POWER SZ:AA0000001000+00002192+00000+0001T   00002192+0000001155          1400 R68312               2BZ
204081003204081142-000812     204081006003000165421GLOVES LATEX 10PCE-5PRS0000002000+00002630+00000+0001T   00002630+0000001155          1400 R68810               2BZ
204081004204081112-116038     204081006009681820246TCS CARRIER BAG MIDI   0000001000+00000035+00000+0001T   00000035+0000001155          1400 R68090               2BZ
204082000204082               204082               170213BN     1400+00000+BN0000005875+0000005875+000000000+000000823+0000006690+0000000008+I20000000000+0000006690+Z
204082001204082368-000049     204082006003000536955PLUSH BEAR 15cm LOVE   0000001000+00004385+00000+0001T   00004385+0000001157          1400 R68745               2BZ
204082002204082077-000299     204082006003000395576G/BAG 32x25cm LRG LOVE 0000001000+00001490+00000+0001T   00001490+0000001157          1400 R68112               2BZ
204083000204083               204083               170213BN     1400+00000+BN0000021048+0000021048+000000000+000002948+0000023996+0000000000+I40000023996+0000000000+Z
204083001204083077-000317     204083006001023609748GIFT-BAG 11X14CM E/D AN0000001000+00000613+00000+0001T   00000613+0000001200          1400 R68112               2BZ
204083002204083036-000151     204083006001023810588COATHANGERS    PACK-10 0000001000+00002893+00000+0001T   00002893+0000001200          1400 R68212               2BZ
204083003204083019-000080     204083006001023775740VASE GLS FLORIST BALL  0000002000+00008771+00000+0001T   00008771+0000001200          1400 R68510               2BZ
204084000204084               204084               170213BN     1400+00000+BN0000012578+0000012578+000000000+000001767+0000014340+0000000005+I20000000000+0000014340+Z
204084001204084112-116069     204084006009681820277TCS CARRIER BAG JUMBO  0000001000+00000048+00000+0001T   00000048+0000001202          1400 R68090               2BZ
204084002204084080-000133     204084006003000535613CARD&ENV MINI ASTD DSGN0000004000+00000437+00000+0001T   00000437+0000001202          1400 R68112               2BZ
204084003204084566-000068     204084006003000418046POP UP LOVE 2 ASSTD    0000001000+00002192+00000+0001T   00002192+0000001202          1400 R68130               2BZ
204084004204084566-000028     204084006003000265541STICKER BK ASSTD 250PCE0000001000+00001753+00000+0001T   00001753+0000001202          1400 R68130               2BZ
204084005204084566-001234     204084006003000217793STICKERS LASER ASSTD   0000001000+00001578+00000+0001T   00001578+0000001202          1400 R68130               2BZ
204084006204084566-001228     204084006003000284153STICKERS CRYSTAL ASSTD 0000001000+00001753+00000+0001T   00001753+0000001202          1400 R68130               2BZ
204084007204084566-000200     204084006003000384174STICKER PUFFY NEON     0000001000+00000876+00000+0001T   00000876+0000001202          1400 R68130               2BZ
204084008204084079-000280     204084006003000160723PAINT READYMIX 6PCE    0000001000+00002630+00000+0001T   00002630+0000001202          1400 R68130               2BZ
204085000204085               204085               170213BN     1400+00000+BN0000012715+0000012715+000000000+000001784+0000014499+0000000000+I40000014499+0000000000+Z
204085001204085077-000270     204085006003000395453GIFT-BAG PPR JMB 33X45 0000001000+00002630+00000+0001T   00002630+0000001206          1400 R68112               2BZ
204085002204085018-000129     204085006001023403353MUG OCC. LOVE V-SHAPE  0000001000+00002630+00000+0001T   00002630+0000001206          1400 R68515               2BZ
204085003204085080-000127     204085006003000424351VALENTINES DAY 36x24CM 0000001000+00002192+00000+0001T   00002192+0000001206          1400 R68112               2BZ
204085004204085030-000030-A   204085006003000249305PLAQUE GLASS LOVE      0000001000+00003069+00000+0001T   00003069+0000001206          1400 R68505               2BZ
204085005204085903-000183     204085006003000451043SWT LB HEART LOLLY     0000001000+00000393+00000+0001T   00000393+0000001206          1400 R68150               2BZ
204085006204085206-000590     204085006003000633708BAG CLIPS LIPS 2PC     0000001000+00001753+00000+0001T   00001753+0000001206          1400 R68321               2BZ
204085007204085112-116069     204085006009681820277TCS CARRIER BAG JUMBO  0000001000+00000048+00000+0001T   00000048+0000001206          1400 R68090               2BZ
204086000204086               204086               170213BN     1400+00000+BN0000015120+0000015120+000000000+000002120+0000017240+0000000000+I40000017240+0000000000+Z
204086001204086018-000130     204086006001023867537MUG OCC LOVE MINI+HEART0000001000+00003507+00000+0001T   00003507+0000001216          1400 R68515               2BZ
204086002204086018-000129     204086006001023403353MUG OCC. LOVE V-SHAPE  0000001000+00002630+00000+0001T   00002630+0000001216          1400 R68515               2BZ
204086003204086018-000177     204086006001023797513MUG MINI LOVE ASSTD    0000001000+00000700+00000+0001T   00000700+0000001216          1400 R68515               2BZ
204086004204086903-000183     204086006003000451043SWT LB HEART LOLLY     0000001000+00000393+00000+0001T   00000393+0000001216          1400 R68150               2BZ
204086005204086018-000136     204086006001023659026MUG OCC LOVE W/PLUSH   0000001000+00003507+00000+0001T   00003507+0000001216          1400 R68515               2BZ
204086006204086077-000270     204086006003000395453GIFT-BAG PPR JMB 33X45 0000001000+00002630+00000+0001T   00002630+0000001216          1400 R68112               2BZ
204086007204086200-003024     204086006001023657299REFUSE BAGS 20PCE BLACK0000001000+00001753+00000+0001T   00001753+0000001216          1400 R68214               2BZ
204087000204087               204087               170213BN     1400+00000+BN0000002629+0000002629+000000000+000000369+0000002990+0000000008+I20000000000+0000002990+Z
204087001204087466-000583     204087006001023156617SKIPPING-ROPE 224cm    0000001000+00001753+00000+0001T   00001753+0000001220          1400 R68785               2BZ
204087002204087077-000314     204087006003000181148GIFT-BAG 11X14CM MATT  0000001000+00000876+00000+0001T   00000876+0000001220          1400 R68112               2BZ
204088000204088               204088               170213BN     1400+00000+BN0000004385+0000004385+000000000+000000614+0000004990+0000000009+I20000000000+0000004990+Z
204088001204088082-000105     204088006003000360369READING GLS STRNGHT:1.50000001000+00004385+00000+0001T   00004385+0000001328          1400 R68160               2BZ
204089000204089               204089               170213BN     1400+00000+BN0000014028+0000014028+000000000+000001964+0000015992+0000000000+I40000015992+0000000000+Z
204089001204089004-071206     204089006003000605156USB CABLE CHARGER      0000001000+00003507+00000+0001T   00003507+0000001330          1400 R68310               2BZ
204089002204089004-071204     204089006003000624904USB IN-CAR CHARGER 2.1A0000001000+00003507+00000+0001T   00003507+0000001330          1400 R68310               2BZ
204089003204089004-071206     204089006003000605156USB CABLE CHARGER      0000001000+00003507+00000+0001T   00003507+0000001330          1400 R68310               2BZ
204089004204089004-071204     204089006003000624904USB IN-CAR CHARGER 2.1A0000001000+00003507+00000+0001T   00003507+0000001330          1400 R68310               2BZ
204090000204090               204090               170213BN     1400+00000+BN0000002980+0000002980+000000000+000000418+0000003390+0000000008+I20000000000+0000003390+Z
204090001204090077-000452     204090006003000284986G/BAG METALLIC MED EMB 0000001000+00001490+00000+0001T   00001490+0000001330          1400 R68112               2BZ
204090002204090077-000299     204090006003000395576G/BAG 32x25cm LRG LOVE 0000001000+00001490+00000+0001T   00001490+0000001330          1400 R68112               2BZ
204091000204091               204091               170213BN     1400+00000+BN0000001753+0000001753+000000000+000000246+0000001990+0000000009+I20000000000+0000001990+Z
204091001204091084-091590     204091006003000092864FOOT FILE 17cm         0000001000+00001753+00000+0001T   00001753+0000001333          1400 R68200               2BZ
204092000204092               204092               170213BN     1400+00000+BN0000001402+0000001402+000000000+000000197+0000001590+0000000009+I20000000000+0000001590+Z
204092001204092046-000011     204092004897006172994BATTERIES SIZE:AA  2PCE0000001000+00001402+00000+0001T   00001402+0000001340          1400 R68312               2BZ
204093000204093               204093               170213BN     1400+00000+BN0000002630+0000002630+000000000+000000369+0000002990+0000000009+I20000000000+0000002990+Z
204093001204093046-000011-A   204093006003000438891BATTERIES SIZE:AA  4PCE0000001000+00002630+00000+0001T   00002630+0000001344          1400 R68312               2BZ
204094000204094               204094               170213BN     1400+00000+BN0000007015+0000007015+000000000+000000983+0000007990+0000000008+I20000000000+0000007990+Z
204094001204094082-000115     204094006003000360604READING GLS STRNGHT:2.50000001000+00004385+00000+0001T   00004385+0000001348          1400 R68160               2BZ
204094002204094082-092844     204094006001492928449#TAG SPECTACLE POUCH   0000001000+00002630+00000+0001T   00002630+0000001348          1400 R68160               2BZ
204095000204095               204095               170213BN     1400+00000+BN0000001227+0000001227+000000000+000000172+0000001390+0000000009+I20000000000+0000001390+Z
204095001204095077-000322     204095006001023677532GIFT-BAG 18X23CM E/D FL0000001000+00001227+00000+0001T   00001227+0000001408          1400 R68112               2BZ
204096000204096               204096               170213BN     1400+00000+BN0000002630+0000002630+000000000+000000369+0000002990+0000000009+I20000000000+0000002990+Z
204096001204096366-002101     204096006003000617715DRESS UP MASK LIGHT UP 0000001000+00002630+00000+0001T   00002630+0000001410          1400 R68131               2BZ
204097000204097               204097               170213BN     1400+00000+BN0000017669+0000017669+000000000+000002476+0000020145+0000000000+I40000020145+0000000000+Z
204097001204097304-001204     204097006001023737984FLOWER OCC. TEDDY/ROSES0000001000+00001402+00000+0001T   00001490+0006471418          1400 R68510               2BZ
204097002204097304-001011     204097006001023806727FLWR ROSE RED W/BEAR   0000001000+00000613+00000+0001T   00000788+0006471418          1400 R68510               2BZ
204097003204097903-000211     204097006002099001238SWT GS MALLOW ICE CREAM0000001000+00001753+00000+0001T   00001753+0000001418          1400 R68150               2BZ
204097004204097018-050000     204097006003000412679MUG OCC LOVE TWIN BEAR 0000001000+00006139+00000+0001T   00006139+0000001418          1400 R68515               2BZ
204097005204097018-005009     204097006001023725608MUG W/PLUSH-BEAR LOVE  0000001000+00003507+00000+0001T   00003507+0000001418          1400 R68515               2BZ
204097006204097018-000130     204097006001023867537MUG OCC LOVE MINI+HEART0000001000+00003507+00000+0001T   00003507+0000001418          1400 R68515               2BZ
204097007204097112-116069     204097006009681820277TCS CARRIER BAG JUMBO  0000001000+00000048+00000+0001T   00000048+0000001418          1400 R68090               2BZ
204097008204097564-000012     204097006001023130075BUBBLE BOTTLE MAGIC    0000001000+00000700+00000+0001T   00000700+0000001418          1400 R68131               2BZ
204098000204098               204098               170213BN     1400+00000+BN0000016181+0000016181+000000000+000002267+0000018440+0000000008+I20000000000+0000018440+Z
204098001204098903-000095     204098006001704011495SWT SPECKLED-EGGS 100G 0000001000+00002104+00000+0001T   00002104+0000001443          1400 R68150               2BZ
204098002204098006-000111     204098006003000519385BALLOONS LARGE 12PCE   0000001000+00002630+00000+0001T   00002630+0000001443          1400 R68131               2BZ
204098003204098006-000166-H   204098006003000608096BALLOONS HELIUM 6PC WHT0000002000+00001314+00000+0001T   00001314+0000001443          1400 R68131               2BZ
204098004204098006-000165     204098006001023758392BALLOONS LRG BAG-OF-1000000001000+00008771+00000+0001T   00008771+0000001443          1400 R68131               2BZ
204098005204098112-116069     204098006009681820277TCS CARRIER BAG JUMBO  0000001000+00000048+00000+0001T   00000048+0000001443          1400 R68090               2BZ
204099000204099               204099               170213BN     1400+00000+BN0000002630+0000002630+000000000+000000369+0000002990+0000000009+I20000000000+0000002990+Z
204099001204099006-000803     204099006003000653676STREAMERS SET 3ROLLS   0000001000+00002630+00000+0001T   00002630+0000001445          1400 R68131               2BZ
204100000204100               204100               170213BN     1400+00000+BN0000016776+0000016776+000000000+000002384+0000019160+0000000000+I40000019160+0000000000+Z
204100001204100903-000183     204100006003000451043SWT LB HEART LOLLY     0000032000+00000393+00000+0001T   00000393+0000001454          1400 R68150               2BZ
204100002204100903-000155     204100006009803374435SWT LOLLY I LUV U HEART0000008000+00000525+00000+0001T   00000525+0000001454          1400 R68150               2BZ
204101000204101               204101               170213BN     1400+00000+BN0000001753+0000001753+000000000+000000246+0000001990+0000000009+I20000000000+0000001990+Z
204101001204101077-000316     204101006001023609731GIFT-BAG 25X32CM MATT  0000001000+00001753+00000+0001T   00001753+0000001502          1400 R68112               2BZ
204102000204102               204102               170213BN     1400+00000+BN0000010346+0000010346+000000000+000001450+0000011796+0000000000+I40000011796+0000000000+Z
204102001204102018-050000     204102006003000412679MUG OCC LOVE TWIN BEAR 0000001000+00006139+00000+0001T   00006139+0000001509          1400 R68515               2BZ
204102002204102903-004962     204102008410525221880SWT FINI BLCK/RED 50g  0000001000+00000964+00000+0001T   00000964+0000001509          1400 R68150               2BZ
204102003204102301-085006     204102006001023502940ORN LOVE MSG TUBE W/HRT0000001000+00001753+00000+0001T   00001753+0000001509          1400 R68505               2BZ
204102004204102077-000299     204102006003000395576G/BAG 32x25cm LRG LOVE 0000001000+00001490+00000+0001T   00001490+0000001509          1400 R68112               2BZ
204103000204103               204103               170213BN     1400+00000+BN0000002102+0000002102+000000000+000000296+0000002390+0000000008+I20000000000+0000002390+Z
204103001204103079-009702-D   204103008427973059354PAPER SIRIO A2 RED COL 0000001000+00001051+00000+0001T   00001051+0000001516          1400 R68130               2BZ
204103002204103079-009702-E   204103008427973059439PAPER SIRIO A2 BLUE    0000001000+00001051+00000+0001T   00001051+0000001516          1400 R68130               2BZ
204104000204104               204104               170213BN     1400+00000+BN0000002980+0000002980+000000000+000000418+0000003390+0000000008+I20000000000+0000003390+Z
204104001204104077-000299     204104006003000395576G/BAG 32x25cm LRG LOVE 0000002000+00001490+00000+0001T   00001490+0000001525          1400 R68112               2BZ
204105000204105               204105               170213BN     1400+00000+BN0000004384+0000004384+000000000+000000614+0000004990+0000000008+I20000000000+0000004990+Z
204105001204105361-009103     204105006001023706607DOLL BOTTLES 10cm 2PCE 0000002000+00002192+00000+0001T   00002192+0000001525          1400 R68725               2BZ
204106000204106               204106               170213BN     1400+00000+BN0000006884+0000006884+000000000+000000966+0000007850+0000000000+I20000000000+0000007850+Z
204106001204106033-010721     204106006001023678669SAFETY-PINS 20PCE ASSTD0000001000+00000700+00000+0001T   00000700+0000001526          1400 R68200               2BZ
204106002204106033-010720     204106006001023678645SAFETY-PINS 50PCE SMALL0000001000+00000876+00000+0001T   00000876+0000001526          1400 R68200               2BZ
204106003204106033-001365     204106006001023802118HAIR CLIPS 200PC ASSTD 0000002000+00002630+00000+0001T   00002630+0000001526          1400 R68200               2BZ
204106004204106112-116069     204106006009681820277TCS CARRIER BAG JUMBO  0000001000+00000048+00000+0001T   00000048+0000001526          1400 R68090               2BZ
204107000204107               204107               170213BN     1400+00000+BN0000002630+0000002630+000000000+000000369+0000002990+0000000009+I20000000000+0000002990+Z
204107001204107006-000111     204107006003000519385BALLOONS LARGE 12PCE   0000001000+00002630+00000+0001T   00002630+0000001527          1400 R68131               2BZ
204108000204108               204108               170213BN     1400+00000+BN0000006487+0000006487+000000000+000000909+0000007390+0000000006+I20000000000+0000007390+Z
204108001204108051-600708     204108006003000604319S/GARDEN LIGHT 35cm S/S0000001000+00003507+00000+0001T   00003507+0000001528          1400 R68820               2BZ
204108002204108304-001142     204108006003000679256FLWR MINI SUCCULENT 7CM0000002000+00001490+00000+0001T   00001490+0000001528          1400 R68510               2BZ
204109000204109               204109               170213BN     1400+00000+BN0000006798+0000006798+000000000+000000953+0000007750+0000000001+I20000000000+0000007750+Z
204109001204109071-003011     204109006001023762825PEN STICKBALL X10 ASSTD0000001000+00001753+00000+0001T   00001753+0000001530          1400 R68130               2BZ
204109002204109362-002467     204109006003000167623HAIR EXT LONG 61cm     0000001000+00003507+00000+0001T   00003507+0000001530          1400 R68160               2BZ
204109003204109362-000306     204109006003000450039HAIR BAND SET 18PC     0000001000+00001490+00000+0001T   00001490+0000001530          1400 R68160               2BZ
204109004204109112-116069     204109006009681820277TCS CARRIER BAG JUMBO  0000001000+00000048+00000+0001T   00000048+0000001530          1400 R68090               2BZ
204110000204110               204110               170213BN     1400+00000+BN0000001490+0000001490+000000000+000000209+0000001690+0000000009+I20000000000+0000001690+Z
204110001204110004-078992     204110004905524102529EARPHONES MINI         0000001000+00001490+00000+0001T   00001490+0000001538          1400 R68310               2BZ
204111000204111               204111               170213BN     1400+00000+BN0000005957+0000005957+000000000+000000839+0000006796+0000000000+I40000006796+0000000000+Z
204111001204111903-000094     204111006923431501622SWT GS CANDY NECKLACE  0000001000+00000437+00000+0001T   00000437+0000001542          1400 R68150               2BZ
204111002204111903-000155     204111006009803374435SWT LOLLY I LUV U HEART0000002000+00000525+00000+0001T   00000525+0000001542          1400 R68150               2BZ
204111003204111903-000670     204111006009803358008SWT SHERBET RED LIPS   0000001000+00000218+00000+0001T   00000218+0000001542          1400 R68150               2BZ
204111004204111903-000671     204111006009803358015SWT SHERBET BLUE LIPS  0000001000+00000218+00000+0001T   00000218+0000001542          1400 R68150               2BZ
204111005204111079-006522     204111006001023149442ART+CRAFT GLUE ASSORTED0000001000+00001753+00000+0001T   00001753+0000001542          1400 R68130               2BZ
204111006204111079-009700-D   204111006003000545711PAPER SIRIO A4 RED COL.0000001000+00000306+00000+0001T   00000306+0000001542          1400 R68130               2BZ
204111007204111112-116069     204111006009681820277TCS CARRIER BAG JUMBO  0000001000+00000048+00000+0001T   00000048+0000001542          1400 R68090               2BZ
204111008204111903-002851     204111000000087108538MENTOS ROLL STRAWBERRY 0000001000+00001051+00000+0001T   00001051+0000001542          1400 R68150               2BZ
204111009204111006-000223     204111006001023891327PARTY EYE-MASK 6PCE    0000001000+00000876+00000+0001T   00000876+0000001542          1400 R68131               2BZ
204112000204112               204112               170213BN     1400+00000+BN0000012277+0000012277+000000000+000001720+0000013997+0000000000+I40000013997+0000000000+Z
204112001204112007-000551     204112006001023848079NOTE-PAD SHOP-LIST ASST0000001000+00001753+00000+0001T   00001753+0000001548          1400 R68130               2BZ
204112002204112028-000917     204112006001023776938BBQ GRILL-CLEANER 38cm 0000002000+00005262+00000+0001T   00005262+0000001548          1400 R68305               2BZ
204113000204113               204113               170213BN     1400+00000+BN0000007062+0000007062+000000000+000000989+0000008050+0000000001+I20000000000+0000008050+Z
204113001204113018-000136     204113006001023659026MUG OCC LOVE W/PLUSH   0000002000+00003507+00000+0001T   00003507+0000001549          1400 R68515               2BZ
204113002204113112-116069     204113006009681820277TCS CARRIER BAG JUMBO  0000001000+00000048+00000+0001T   00000048+0000001549          1400 R68090               2BZ
204114000204114               204114               170213BN     1400+00000+BN0000007063+0000007063+000000000+000000990+0000008050+0000000003+I20000000000+0000008050+Z
204114001204114133-000004     204114006001926055918D/CLOTH MICROFIBRE 2PCK0000001000+00004385+00000+0001T   00004385+0000001549          1400 R68212               2BZ
204114002204114200-000035     204114006001023768810FOOD-BOWL-COVERS 5PCE  0000001000+00002630+00000+0001T   00002630+0000001549          1400 R68214               2BZ
204114003204114112-116069     204114006009681820277TCS CARRIER BAG JUMBO  0000001000+00000048+00000+0001T   00000048+0000001549          1400 R68090               2BZ
204115000204115               204115               170213BN     1400+00000+BN0000004343+0000004343+000000000+000000609+0000004950+0000000002+I20000000000+0000004950+Z
204115001204115018-000130     204115006001023867537MUG OCC LOVE MINI+HEART0000001000+00003507+00000+0001T   00003507+0000001550          1400 R68515               2BZ
204115002204115903-000892     204115008693029700420SWT NOVELTY CHOCO CREAM0000001000+00000788+00000+0001T   00000788+0000001550          1400 R68150               2BZ
204115003204115112-116069     204115006009681820277TCS CARRIER BAG JUMBO  0000001000+00000048+00000+0001T   00000048+0000001550          1400 R68090               2BZ
204116000204116               204116               170213BN     1400+00000+BN0000007062+0000007062+000000000+000000989+0000008051+0000000000+I40000008051+0000000000+Z
204116001204116018-005009     204116006001023725608MUG W/PLUSH-BEAR LOVE  0000002000+00003507+00000+0001T   00003507+0000001552          1400 R68515               2BZ
204116002204116112-116069     204116006009681820277TCS CARRIER BAG JUMBO  0000001000+00000048+00000+0001T   00000048+0000001552          1400 R68090               2BZ
204117000204117               204117               170213BN     1400+00000+BN0000013157+0000013157+000000000+000001842+0000014990+0000000009+I20000000000+0000014990+Z
204117001204117031-000009     204117006003000306381P/FRAME COLLAGE HEARTS 0000001000+00013157+00000+0001T   00013157+0000001553          1400 R68510               2BZ
204118000204118               204118               170213BN     1400+00000+BN0000008330+0000008330+000000000+000001167+0000009490+0000000007+I20000000000+0000009490+Z
204118001204118077-000312     204118006001023608697GIFT-BAG 10X35CM GLOSS 0000001000+00001314+00000+0001T   00001314+0000001603          1400 R68112               2BZ
204118002204118065-003639     204118006001023787620GUITAR ROCKER          0000001000+00007016+00000+0001T   00007016+0000001603          1400 R68745               2BZ
204119000204119               204119               170213BN     1400+00000+BN0000001753+0000001753+000000000+000000246+0000001990+0000000009+I20000000000+0000001990+Z
204119001204119133-000018     204119006003000583218SWAB MICROFIBRE 30x30cm0000001000+00001753+00000+0001T   00001753+0000001604          1400 R68212               2BZ
204120000204120               204120               170213BN     1400+00000+BN0000002278+0000002278+000000000+000000320+0000002598+0000000000+I40000002598+0000000000+Z
204120001204120903-000709     204120006002099007070SWT QUENCHERS FRUIT    0000001000+00001139+00000+0001T   00001139+0000001612          1400 R68150               2BZ
204120002204120903-000710     204120006002099007056SWT REFRESHERS MINT    0000001000+00001139+00000+0001T   00001139+0000001612          1400 R68150               2BZ
204121000204121               204121               170213BN     1400+00000+BN0000011353+0000011353+000000000+000001595+0000012948+0000000000+I40000012948+0000000000+Z
204121001204121366-002101     204121006003000617715DRESS UP MASK LIGHT UP 0000001000+00002630+00000+0001T   00002630+0000001614          1400 R68131               2BZ
204121002204121206-000370     204121006003000631315STRAW P/DRINKING GLASS 0000002000+00001753+00000+0001T   00001753+0000001614          1400 R68321               2BZ
204121003204121077-000239     204121006003000160419GIFT-RIBBON ROLL PEARL 0000001000+00001753+00000+0001T   00001753+0000001614          1400 R68112               2BZ
204121004204121079-013032-D   204121006003000389643RIBBONS                0000001000+00002630+00000+0001T   00002630+0000001614          1400 R68130               2BZ
204121005204121903-000183     204121006003000451043SWT LB HEART LOLLY     0000002000+00000393+00000+0001T   00000393+0000001614          1400 R68150               2BZ
204121006204121112-116069     204121006009681820277TCS CARRIER BAG JUMBO  0000001000+00000048+00000+0001T   00000048+0000001614          1400 R68090               2BZ
204122000204122               204122               170213BN     1400+00000+BN0000013941+0000013941+000000000+000001959+0000015900+0000000000+I40000015900+0000000000+Z
204122001204122112-116069     204122006009681820277TCS CARRIER BAG JUMBO  0000001000+00000048+00000+0001T   00000048+0000001616          1400 R68090               2BZ
204122002204122036-000151     204122006001023810588COATHANGERS    PACK-10 0000003000+00002893+00000+0001T   00002893+0000001616          1400 R68212               2BZ
204122003204122112-116069     204122006009681820277TCS CARRIER BAG JUMBO  0000001000+00000048+00000+0001T   00000048+0000001616          1400 R68090               2BZ
204122004204122080-000133-A   204122006003000647019MINI VALENTINES CARD   0000002000+00000437+00000+0001T   00000437+0000001616          1400 R68112               2BZ
204122005204122903-000155     204122006009803374435SWT LOLLY I LUV U HEART0000004000+00000525+00000+0001T   00000525+0000001616          1400 R68150               2BZ
204122006204122566-000068     204122006003000418046POP UP LOVE 2 ASSTD    0000001000+00002192+00000+0001T   00002192+0000001616          1400 R68130               2BZ
204123000204123               204123               170213BN     1400+00000+BN0000024114+0000024114+000000000+000003379+0000027493+0000000000+I40000027493+0000000000+Z
204123001204123304-001204     204123006001023737984FLOWER OCC. TEDDY/ROSES0000001000+00001402+00000+0001T   00001490+0006471619          1400 R68510               2BZ
204123002204123024-000212     204123006001023858030COOKIE-CUTTERS PL SMALL0000001000+00003069+00000+0001T   00003069+0000001619          1400 R68300               2BZ
204123003204123306-001056     204123006001023899835FIRST AID KIT 91PCE    0000001000+00012279+00000+0001T   00012279+0000001619          1400 R68200               2BZ
204123004204123306-000993     204123006003000560110FIRSTAID PLASTER 75PC  0000001000+00002630+00000+0001T   00002630+0000001619          1400 R68200               2BZ
204123005204123018-000127     204123006001023380289MUG OCC STRAIGHT LOVE  0000003000+00001578+00000+0001T   00001753+0006471619          1400 R68515               2BZ
204124000204124               204124               170213BN     1400+00000+BN0000007451+0000007451+000000000+000001045+0000008490+0000000006+I20000000000+0000008490+Z
204124001204124089-000030     204124006003000575671K/CHAIN LOVE MTL ASSTD 0000001000+00001753+00000+0001T   00001753+0000001619          1400 R68205               2BZ
204124002204124077-000314     204124006003000181148GIFT-BAG 11X14CM MATT  0000001000+00000876+00000+0001T   00000876+0000001619          1400 R68112               2BZ
204124003204124040-000200     204124006003000381586C/HLDER CERC INSP. ASST0000001000+00003069+00000+0001T   00003069+0000001619          1400 R68510               2BZ
204124004204124077-000381     204124006003000247707GIFT-BAG 25X32CM S/COL 0000001000+00001753+00000+0001T   00001753+0000001619          1400 R68112               2BZ
204125000204125               204125               170213BN     1400+00000+BN0000002454+0000002454+000000000+000000344+0000002790+0000000008+I20000000000+0000002790+Z
204125001204125077-000314     204125006003000181148GIFT-BAG 11X14CM MATT  0000001000+00000876+00000+0001T   00000876+0000001620          1400 R68112               2BZ
204125002204125077-000303     204125006001023593757GIFT-BAG PAPER MED     0000001000+00001578+00000+0001T   00001578+0000001620          1400 R68112               2BZ
204126000204126               204126               170213BN     1400+00000+BN0000003507+0000003507+000000000+000000491+0000003990+0000000008+I20000000000+0000003990+Z
204126001204126018-000136     204126006001023659026MUG OCC LOVE W/PLUSH   0000001000+00003507+00000+0001T   00003507+0000001620          1400 R68515               2BZ
204127000204127               204127               170213BN     1400+00000+BN0000000874+0000000874+000000000+000000124+0000000990+0000000008+I20000000000+0000000990+Z
204127001204127080-000133     204127006003000535613CARD&ENV MINI ASTD DSGN0000001000+00000437+00000+0001T   00000437+0000001621          1400 R68112               2BZ
204127002204127080-000133-A   204127006003000647019MINI VALENTINES CARD   0000001000+00000437+00000+0001T   00000437+0000001621          1400 R68112               2BZ
204128000204128               204128               170213BN     1400+00000+BN0000008771+0000008771+000000000+000001228+0000009999+0000000000+I40000009999+0000000000+Z
204128001204128368-000614     204128006001023705808PLUSH LOVE 30cm        0000001000+00008771+00000+0001T   00008771+0000001622          1400 R68745               2BZ
204129000204129               204129               170213BN     1400+00000+BN0000003993+0000003993+000000000+000000560+0000004550+0000000003+I20000000000+0000004550+Z
204129001204129077-000314     204129006003000181148GIFT-BAG 11X14CM MATT  0000001000+00000876+00000+0001T   00000876+0000001623          1400 R68112               2BZ
204129002204129030-000030-A   204129006003000249305PLAQUE GLASS LOVE      0000001000+00003069+00000+0001T   00003069+0000001623          1400 R68505               2BZ
204129003204129112-116069     204129006009681820277TCS CARRIER BAG JUMBO  0000001000+00000048+00000+0001T   00000048+0000001623          1400 R68090               2BZ
204130000204130               204130               170213BN     1400+00000+BN0000007277+0000007277+000000000+000001019+0000008296+0000000000+I40000008296+0000000000+Z
204130001204130368-000049     204130006003000536955PLUSH BEAR 15cm LOVE   0000001000+00004385+00000+0001T   00004385+0000001628          1400 R68745               2BZ
204130002204130903-000844     204130005010478432567SWT CANDY DL LUV HEARTS0000001000+00001314+00000+0001T   00001314+0000001628          1400 R68150               2BZ
204130003204130077-000303     204130006001023593757GIFT-BAG PAPER MED     0000001000+00001578+00000+0001T   00001578+0000001628          1400 R68112               2BZ
204131000204131               204131               170213BN     1400+00000+BN0000004471+0000004471+000000000+000000627+0000005098+0000000000+I40000005098+0000000000+Z
204131001204131903-000151     204131006009803374411SWT SML RND R/BOW LOLLY0000001000+00000525+00000+0001T   00000525+0000001629          1400 R68150               2BZ
204131002204131368-000152     204131006003000166886PLUSH BEAR 15cm        0000001000+00003946+00000+0001T   00005262+0008141629          1400 R68745               2BZ
204132000204132               204132               170213BN     1400+00000+BN0000004734+0000004734+000000000+000000664+0000005398+0000000000+I40000005398+0000000000+Z
204132001204132072-000326     204132006003000451722PET CAT COLLAR 31x1cm  0000001000+00002630+00000+0001T   00002630+0000001631          1400 R68870               2BZ
204132002204132903-000095     204132006001704011495SWT SPECKLED-EGGS 100G 0000001000+00002104+00000+0001T   00002104+0000001631          1400 R68150               2BZ
204133000204133               204133               170213BN     1400+00000+BN0000004734+0000004734+000000000+000000664+0000005398+0000000000+I40000005398+0000000000+Z
204133001204133077-000270     204133006003000395453GIFT-BAG PPR JMB 33X45 0000001000+00002630+00000+0001T   00002630+0000001634          1400 R68112               2BZ
204133002204133903-000057     204133006005929000173SWT GS NOVELTY GIANT AL0000001000+00002104+00000+0001T   00002104+0000001634          1400 R68150               2BZ
204134000204134               204134               170213BN     1400+00000+BN0000002278+0000002278+000000000+000000320+0000002590+0000000008+I20000000000+0000002590+Z
204134001204134022-002106     204134006003000142712MUG EN 6cm ASSTD COLORS0000002000+00001139+00000+0001T   00001139+0000001636          1400 R68305               2BZ
204135000204135               204135               170213BN     1400+00000+BN0000006184+0000006184+000000000+000000868+0000007052+0000000000+I40000007052+0000000000+Z
204135001204135301-085002     204135006003000420704ORN OCC. LOVE BELL ASST0000001000+00001753+00000+0001T   00002630+0008121638          1400 R68505               2BZ
204135002204135206-000620     204135006003000631797BACK SCRATCHER EXTEND  0000001000+00002630+00000+0001T   00002630+0000001638          1400 R68321               2BZ
204135003204135903-000211     204135006002099001238SWT GS MALLOW ICE CREAM0000001000+00001753+00000+0001T   00001753+0000001638          1400 R68150               2BZ
204135004204135112-116069     204135006009681820277TCS CARRIER BAG JUMBO  0000001000+00000048+00000+0001T   00000048+0000001638          1400 R68090               2BZ
204136000204136               204136               170213BN     1400+00000+BN0000008771+0000008771+000000000+000001228+0000009990+0000000009+I20000000000+0000009990+Z
204136001204136586-011941     204136006001492119410WATCH KIDS RAINBOW ASST0000001000+00008771+00000+0001T   00008771+0000001639          1400 R68160               2BZ
204137000204137               204137               170213BN     1400+00000+BN0000012210+0000012210+000000000+000001722+0000013932+0000000000+I40000013932+0000000000+Z
204137001204137903-000183     204137006003000451043SWT LB HEART LOLLY     0000002000+00000393+00000+0001T   00000393+0000001642          1400 R68150               2BZ
204137002204137079-013099     204137006003000081875ART+CRAFT EYES ASSTD   0000001000+00001753+00000+0001T   00001753+0000001642          1400 R68130               2BZ
204137003204137080-000133     204137006003000535613CARD&ENV MINI ASTD DSGN0000004000+00000437+00000+0001T   00000437+0000001642          1400 R68112               2BZ
204137004204137080-000133-A   204137006003000647019MINI VALENTINES CARD   0000003000+00000437+00000+0001T   00000437+0000001642          1400 R68112               2BZ
204137005204137079-000010     204137006001023173409P/CRAYONS 12-COL SHORT 0000001000+00001227+00000+0001T   00001227+0000001642          1400 R68130               2BZ
204137006204137903-000183     204137006003000451043SWT LB HEART LOLLY     0000003000+00000393+00000+0001T   00000393+0000001642          1400 R68150               2BZ
204137007204137564-001029     204137006001023690821BUBBLE WEDDING DOVES   0000001000+00000700+00000+0001T   00000700+0000001642          1400 R68131               2BZ
204137008204137079-013099     204137006003000081875ART+CRAFT EYES ASSTD   0000001000+00001753+00000+0001T   00001753+0000001642          1400 R68130               2BZ
204137009204137206-000120     204137006003000628308PEELER CARROT SHARPENER0000001000+00001753+00000+0001T   00001753+0000001642          1400 R68321               2BZ
204138000204138               204138               170213BN     1400+00000+BN0000028499+0000028499+000000000+000003993+0000032492+0000000000+I40000032492+0000000000+Z
204138001204138301-001125     204138000694202803950ORN FOUNTAIN TOWER     0000001000+00017542+00000+0001T   00017542+0000001643          1400 R68505               2BZ
204138002204138077-000299-A   204138006003000670888GIFT-BAG PAPER JMB LOVE0000001000+00001753+00000+0001T   00001753+0000001643          1400 R68112               2BZ
204138003204138903-000619     204138006003000672455SWT LOLLY STR/BRRY 140G0000001000+00001753+00000+0001T   00001753+0000001643          1400 R68150               2BZ
204138004204138206-000210     204138006003000631582TOOTHPICK HOLDER FLOWER0000001000+00003069+00000+0001T   00003069+0000001643          1400 R68321               2BZ
204138005204138903-000095     204138006001704011495SWT SPECKLED-EGGS 100G 0000001000+00002104+00000+0001T   00002104+0000001643          1400 R68150               2BZ
204138006204138903-000220     204138006001704007368SWT JELLY BEANS 60G    0000001000+00000876+00000+0001T   00000876+0000001643          1400 R68150               2BZ
204138007204138046-000011     204138004897006172994BATTERIES SIZE:AA  2PCE0000001000+00001402+00000+0001T   00001402+0000001643          1400 R68312               2BZ
204139000204139               204139               170213BN     1400+00000+BN0000018935+0000018935+000000000+000002654+0000021589+0000000000+I40000021589+0000000000+Z
204139001204139016-006524     204139006003000579358S/JAR GLS 750ml ASSTD  0000001000+00005262+00000+0001T   00005262+0000001645          1400 R68300               2BZ
204139002204139077-000299-A   204139006003000670888GIFT-BAG PAPER JMB LOVE0000001000+00001753+00000+0001T   00001753+0000001645          1400 R68112               2BZ
204139003204139903-004950     204139006002580020304SWT APRICOT SURPRISE   0000001000+00001314+00000+0001T   00001314+0000001645          1400 R68150               2BZ
204139004204139903-004952     204139006002580020052SWT FREAKY FACES 100G  0000001000+00001314+00000+0001T   00001314+0000001645          1400 R68150               2BZ
204139005204139903-000503     204139006001704006118SWT VAMPIRE FANGS 60G  0000001000+00000876+00000+0001T   00000876+0000001645          1400 R68150               2BZ
204139006204139903-000095     204139006001704011495SWT SPECKLED-EGGS 100G 0000004000+00002104+00000+0001T   00002104+0000001645          1400 R68150               2BZ
204140000204140               204140               170213BN     1400+00000+BN0000012761+0000012761+000000000+000001789+0000014550+0000000000+I40000014550+0000000000+Z
204140001204140112-116069     204140006009681820277TCS CARRIER BAG JUMBO  0000001000+00000048+00000+0001T   00000048+0000001647          1400 R68090               2BZ
204140002204140072-000014     204140006003000451845PET DOG/CAT BRUSH 20cm 0000001000+00003069+00000+0001T   00003069+0000001647          1400 R68870               2BZ
204140003204140903-000095     204140006001704011495SWT SPECKLED-EGGS 100G 0000002000+00002104+00000+0001T   00002104+0000001647          1400 R68150               2BZ
204140004204140046-000010-A   204140006003000438778BATTERIES SIZE:AAA 4PCE0000001000+00002367+00000+0001T   00002367+0000001647          1400 R68312               2BZ
204140005204140072-020306     204140006003000024162PET DOG TENNIS BALL    0000001000+00003069+00000+0001T   00003069+0000001647          1400 R68870               2BZ
204141000204141               204141               170213BN     1400+00000+BN0000013723+0000013723+000000000+000001925+0000015640+0000000008+I20000000000+0000015640+Z
204141001204141112-116069     204141006009681820277TCS CARRIER BAG JUMBO  0000001000+00000048+00000+0001T   00000048+0000001648          1400 R68090               2BZ
204141002204141018-000129     204141006001023403353MUG OCC. LOVE V-SHAPE  0000001000+00002630+00000+0001T   00002630+0000001648          1400 R68515               2BZ
204141003204141018-000127     204141006001023380289MUG OCC STRAIGHT LOVE  0000001000+00001578+00000+0001T   00001753+0006471648          1400 R68515               2BZ
204141004204141903-000095     204141006001704011495SWT SPECKLED-EGGS 100G 0000002000+00002104+00000+0001T   00002104+0000001648          1400 R68150               2BZ
204141005204141080-000133-A   204141006003000647019MINI VALENTINES CARD   0000002000+00000437+00000+0001T   00000437+0000001648          1400 R68112               2BZ
204141006204141082-000110     204141006003000360482READING GLS STRENGHT:2 0000001000+00004385+00000+0001T   00004385+0000001648          1400 R68160               2BZ
204142000204142               204142               170213BN     1400+00000+BN0000003022+0000003022+000000000+000000425+0000003440+0000000007+I20000000000+0000003440+Z
204142001204142903-000095     204142006001704011495SWT SPECKLED-EGGS 100G 0000001000+00002104+00000+0001T   00002104+0000001649          1400 R68150               2BZ
204142002204142903-000155     204142006009803374435SWT LOLLY I LUV U HEART0000001000+00000525+00000+0001T   00000525+0000001649          1400 R68150               2BZ
204142003204142903-000183     204142006003000451043SWT LB HEART LOLLY     0000001000+00000393+00000+0001T   00000393+0000001649          1400 R68150               2BZ
204143000204143               204143               170213BN     1400+00000+BN0000004519+0000004519+000000000+000000634+0000005150+0000000003+I20000000000+0000005150+Z
204143001204143903-000155     204143006009803374435SWT LOLLY I LUV U HEART0000001000+00000525+00000+0001T   00000525+0000001650          1400 R68150               2BZ
204143002204143024-000002     204143006001023741899S/BURNER-COVER SILV/BLK0000001000+00003946+00000+0001T   00004385+0008191650          1400 R68300               2BZ
204143003204143112-116069     204143006009681820277TCS CARRIER BAG JUMBO  0000001000+00000048+00000+0001T   00000048+0000001650          1400 R68090               2BZ
204144000204144               204144               170213BN     1400+00000+BN0000003155+0000003155+000000000+000000443+0000003590+0000000008+I20000000000+0000003590+Z
204144001204144200-003024     204144006001023657299REFUSE BAGS 20PCE BLACK0000001000+00001753+00000+0001T   00001753+0000001651          1400 R68214               2BZ
204144002204144304-001204     204144006001023737984FLOWER OCC. TEDDY/ROSES0000001000+00001402+00000+0001T   00001490+0006471651          1400 R68510               2BZ
204145000204145               204145               170213BN     1400+00000+BN0000000876+0000000876+000000000+000000123+0000000990+0000000009+I20000000000+0000000990+Z
204145001204145083-000295     204145006001023898562LIGHTER-GAS BUTANE 18ml0000001000+00000876+00000+0001T   00000876+0000001651          1400 R68315               2BZ
204146000204146               204146               170213BN     1400+00000+BN0000017927+0000017927+000000000+000002514+0000020441+0000000000+I40000020441+0000000000+Z
204146001204146903-000897     204146008692806325207SWT CHOC DBL MINI ROLL 0000001000+00000876+00000+0001T   00000876+0000001654          1400 R68150               2BZ
204146002204146031-080508     204146006001023802415P/FRAME PL 22X11CM LOVE0000001000+00004385+00000+0001T   00004385+0000001654          1400 R68510               2BZ
204146003204146903-000123     204146006925925909280SWEET GS MINI MALLOWS  0000001000+00000876+00000+0001T   00000876+0000001654          1400 R68150               2BZ
204146004204146018-019000     204146006003000557288MUG OCC. LOVE JUMBO    0000001000+00005262+00000+0001T   00005262+0000001654          1400 R68515               2BZ
204146005204146903-000503     204146006001704006118SWT VAMPIRE FANGS 60G  0000001000+00000876+00000+0001T   00000876+0000001654          1400 R68150               2BZ
204146006204146903-000220     204146006001704007368SWT JELLY BEANS 60G    0000001000+00000876+00000+0001T   00000876+0000001654          1400 R68150               2BZ
204146007204146077-000299-A   204146006003000670888GIFT-BAG PAPER JMB LOVE0000001000+00001753+00000+0001T   00001753+0000001654          1400 R68112               2BZ
204146008204146903-000183     204146006003000451043SWT LB HEART LOLLY     0000001000+00000393+00000+0001T   00000393+0000001654          1400 R68150               2BZ
204146009204146304-000720     204146006001023843050F/BUNCH ROSE 6-HEAD AST0000001000+00002630+00000+0001T   00002630+0000001654          1400 R68510               2BZ
204147000204147               204147               170213BN     1400+00000+BN0000001753+0000001753+000000000+000000246+0000001990+0000000009+I20000000000+0000001990+Z
204147001204147006-000120     204147006001023346889BALLOONS 10PC MIX COL  0000001000+00001753+00000+0001T   00001753+0000001654          1400 R68131               2BZ
204148000204148               204148               170213BN     1400+00000+BN0000022321+0000022321+000000000+000003127+0000025448+0000000000+I40000025448+0000000000+Z
204148001204148001-091415     204148006003000329113W/GLS OCC. LOVE 2PC 2800000001000+00008771+00000+0001T   00009648+0006471659          1400 R68515               2BZ
204148002204148301-085008     204148006003000673933ORN OCC.LOVE TINSEL HRT0000001000+00003069+00000+0001T   00003069+0000001659          1400 R68505               2BZ
204148003204148006-000190     204148006003000685530BALLOONS LOVE 81x91cm  0000001000+00004385+00000+0001T   00004385+0000001659          1400 R68131               2BZ
204148004204148080-000127     204148006003000424351VALENTINES DAY 36x24CM 0000001000+00002192+00000+0001T   00002192+0000001659          1400 R68112               2BZ
204148005204148077-000270     204148006003000395453GIFT-BAG PPR JMB 33X45 0000001000+00002630+00000+0001T   00002630+0000001659          1400 R68112               2BZ
204148006204148112-116069     204148006009681820277TCS CARRIER BAG JUMBO  0000001000+00000048+00000+0001T   00000048+0000001659          1400 R68090               2BZ
204148007204148006-001000     204148006003000093779HELIUM BALLOON FILL    0000002000+00000613+00000+0001T   00000613+0000001659          1400 R68131               2BZ
204149000204149               204149               170213BN     1400+00000+BN0000007541+0000007541+000000000+000001056+0000008597+0000000000+I40000008597+0000000000+Z
204149001204149018-030000     204149006003000421060MUG OCCASIONS LOVE 2PCE0000001000+00004385+00000+0001T   00004385+0000001700          1400 R68515               2BZ
204149002204149080-000124     204149006003000297733CARD & ENV VALENTINES  0000001000+00001578+00000+0001T   00001578+0000001700          1400 R68112               2BZ
204149003204149077-000303     204149006001023593757GIFT-BAG PAPER MED     0000001000+00001578+00000+0001T   00001578+0000001700          1400 R68112               2BZ
204150000204150               204150               170213BN     1400+00000+BN0000000876+0000000876+000000000+000000123+0000000990+0000000009+I20000000000+0000000990+Z
204150001204150366-007917     204150006003000653621DRESS UP MASK ANIMALS  0000001000+00000876+00000+0001T   00000876+0000001701          1400 R68131               2BZ
204151000204151               204151               170213BN     1400+00000+BN0000007098+0000007098+000000000+000000995+0000008090+0000000003+I20000000000+0000008090+Z
204151001204151039-000326     204151006001023775252B/CANDLES 25PC CAND+HOL0000001000+00002192+00000+0001T   00002192+0000001702          1400 R68510               2BZ
204151002204151566-000028     204151006003000265541STICKER BK ASSTD 250PCE0000002000+00001753+00000+0001T   00001753+0000001702          1400 R68130               2BZ
204151003204151564-000012     204151006001023130075BUBBLE BOTTLE MAGIC    0000002000+00000700+00000+0001T   00000700+0000001702          1400 R68131               2BZ
204152000204152               204152               170213BN     1400+00000+BN0000015302+0000015302+000000000+000002143+0000017440+0000000005+I20000000000+0000017440+Z
204152001204152112-116069     204152006009681820277TCS CARRIER BAG JUMBO  0000001000+00000048+00000+0001T   00000048+0000001704          1400 R68090               2BZ
204152002204152018-000136     204152006001023659026MUG OCC LOVE W/PLUSH   0000002000+00003507+00000+0001T   00003507+0000001704          1400 R68515               2BZ
204152003204152018-005009     204152006001023725608MUG W/PLUSH-BEAR LOVE  0000002000+00003507+00000+0001T   00003507+0000001704          1400 R68515               2BZ
204152004204152304-001011     204152006001023806727FLWR ROSE RED W/BEAR   0000002000+00000613+00000+0001T   00000788+0006471704          1400 R68510               2BZ
204153000204153               204153               170213BN     1400+00000+BN0000001751+0000001751+000000000+000000246+0000001990+0000000007+I20000000000+0000001990+Z
204153001204153903-000014     204153006003000691029SWT MIKE N IKE ORIG 23G0000001000+00001051+00000+0001T   00001051+0000001705          1400 R68150               2BZ
204153002204153903-000807     204153006009680772317SWT CHEWEEZ APPLE 36g  0000001000+00000700+00000+0001T   00000700+0000001705          1400 R68150               2BZ
204154000204154               204154               170213BN     1400+00000+BN0000005260+0000005260+000000000+000000738+0000005990+0000000008+I20000000000+0000005990+Z
204154001204154206-000390     204154006003000631438STRAW PL BUILD A STRAW 0000002000+00002630+00000+0001T   00002630+0000001707          1400 R68321               2BZ
204155000204155               204155               170213BN     1400+00000+BN0000000876+0000000876+000000000+000000123+0000000990+0000000009+I20000000000+0000000990+Z
204155001204155105-001010     204155006002580007329LUNCH-BOX 1L  ASSTD    0000001000+00000876+00000+0001T   00000876+0000001708          1400 R68210               2BZ
204156000204156               204156               170213BN     1400+00000+BN0000012278+0000012278+000000000+000001720+0000013990+0000000008+I20000000000+0000013990+Z
204156001204156082-000126     204156006003000646517READING GLASS TWIN 2.5 0000001000+00007893+00000+0001T   00007893+0000001713          1400 R68160               2BZ
204156002204156082-000115     204156006003000360604READING GLS STRNGHT:2.50000001000+00004385+00000+0001T   00004385+0000001713          1400 R68160               2BZ
204157000204157               204157               170213BN     1400+00000+BN0000010043+0000010043+000000000+000001407+0000011450+0000000000+I20000000000+0000011450+Z
204157001204157368-000049     204157006003000536955PLUSH BEAR 15cm LOVE   0000001000+00004385+00000+0001T   00004385+0000001715          1400 R68745               2BZ
204157002204157031-000001-A   204157006003000246908P/FRAME GLS LOVE 9X13cm0000001000+00004385+00000+0001T   00004385+0000001715          1400 R68510               2BZ
204157003204157903-000155     204157006009803374435SWT LOLLY I LUV U HEART0000001000+00000525+00000+0001T   00000525+0000001715          1400 R68150               2BZ
204157004204157018-000177     204157006001023797513MUG MINI LOVE ASSTD    0000001000+00000700+00000+0001T   00000700+0000001715          1400 R68515               2BZ
204157005204157112-116069     204157006009681820277TCS CARRIER BAG JUMBO  0000001000+00000048+00000+0001T   00000048+0000001715          1400 R68090               2BZ
204158000204158               204158               170213BN     1400+00000+BN0000002630+0000002630+000000000+000000369+0000002990+0000000009+I20000000000+0000002990+Z
204158001204158365-000072     204158006003000012664PLAY-SET PL B/O MICROPH0000001000+00002630+00000+0001T   00003507+0008191716          1400 R68725               2BZ
204159000204159               204159               170213BN     1400+00000+BN0000004820+0000004820+000000000+000000676+0000005490+0000000006+I20000000000+0000005490+Z
204159001204159046-000002     204159006001023585202BATTERIES SIZE:C   2PCE0000002000+00001753+00000+0001T   00001753+0000001716          1400 R68312               2BZ
204159002204159046-000012     204159006904708013062BATTERIES AA  CARD-OF-40000001000+00001314+00000+0001T   00001314+0000001716          1400 R68312               2BZ
204160000204160               204160               170213BN     1400+00000+BN0000001227+0000001227+000000000+000000172+0000001399+0000000000+I40000001399+0000000000+Z
204160001204160251-000041     204160006001023515889SEAL-TAPE BUFF 48mmx50m0000001000+00001227+00000+0001T   00001227+0000001718          1400 R68810               2BZ
204161000204161               204161               170213BN     1400+00000+BN0000019777+0000019777+000000000+000002771+0000022548+0000000000+I40000022548+0000000000+Z
204161001204161112-116069     204161006009681820277TCS CARRIER BAG JUMBO  0000001000+00000048+00000+0001T   00000048+0000001721          1400 R68090               2BZ
204161002204161077-000922     204161006003000413935G/WRAP 700mmx2m FLOWER 0000001000+00002192+00000+0001T   00002192+0000001721          1400 R68112               2BZ
204161003204161018-000130     204161006001023867537MUG OCC LOVE MINI+HEART0000001000+00003507+00000+0001T   00003507+0000001721          1400 R68515               2BZ
204161004204161080-000133-A   204161006003000647019MINI VALENTINES CARD   0000001000+00000437+00000+0001T   00000437+0000001721          1400 R68112               2BZ
204161005204161040-000103     204161000694202201862C/HOLDER-SET 5PC W/TRAY0000001000+00011402+00000+0001T   00013157+0008191721          1400 R68510               2BZ
204161006204161304-001011     204161006001023806727FLWR ROSE RED W/BEAR   0000001000+00000613+00000+0001T   00000788+0006471721          1400 R68510               2BZ
204161007204161077-000303     204161006001023593757GIFT-BAG PAPER MED     0000001000+00001578+00000+0001T   00001578+0000001721          1400 R68112               2BZ
204162000204162               204162               170213BN     1400+00000+BN0000001578+0000001578+000000000+000000221+0000001790+0000000009+I20000000000+0000001790+Z
204162001204162080-000124     204162006003000297733CARD & ENV VALENTINES  0000001000+00001578+00000+0001T   00001578+0000001722          1400 R68112               2BZ
204163000204163               204163               170213BN     1400+00000+BN0000002630+0000002630+000000000+000000369+0000002990+0000000009+I20000000000+0000002990+Z
204163001204163565-000040     204163006008766115635NOVELTY ICON BEANIE    0000001000+00002630+00000+0001T   00002630+0000001723          1400 R68745               2BZ
204164000204164               204164               170213BN     1400+00000+BN0000001314+0000001314+000000000+000000184+0000001490+0000000008+I20000000000+0000001490+Z
204164001204164006-000167-C   204164006003000516971BALLOONS PINK METALLIC 0000001000+00001314+00000+0001T   00001314+0000001725          1400 R68131               2BZ
204165000204165               204165               170213BN     1400+00000+BN0000008593+0000008593+000000000+000001204+0000009790+0000000007+I20000000000+0000009790+Z
204165001204165566-000006     204165006001023671189STICKER-BOOK DRESS-UP  0000001000+00002630+00000+0001T   00002630+0000001727          1400 R68130               2BZ
204165002204165566-001234     204165006003000217793STICKERS LASER ASSTD   0000001000+00001578+00000+0001T   00001578+0000001727          1400 R68130               2BZ
204165003204165304-001113     204165006001023738189F/BUNCH ANGEL-ROSE ASST0000001000+00004385+00000+0001T   00004385+0000001727          1400 R68510               2BZ
204166000204166               204166               170213BN     1400+00000+BN0000000876+0000000876+000000000+000000123+0000000990+0000000009+I20000000000+0000000990+Z
204166001204166077-000314     204166006003000181148GIFT-BAG 11X14CM MATT  0000001000+00000876+00000+0001T   00000876+0000001727          1400 R68112               2BZ
204167000204167               204167               170213BN     1400+00000+BN0000005698+0000005698+000000000+000000799+0000006490+0000000007+I20000000000+0000006490+Z
204167001204167018-030000     204167006003000421060MUG OCCASIONS LOVE 2PCE0000001000+00004385+00000+0001T   00004385+0000001734          1400 R68515               2BZ
204167002204167903-000155     204167006009803374435SWT LOLLY I LUV U HEART0000001000+00000525+00000+0001T   00000525+0000001734          1400 R68150               2BZ
204167003204167903-000200     204167006009826020234SWT CHOC RP CHOCO 23G  0000001000+00000788+00000+0001T   00000788+0000001734          1400 R68150               2BZ
204168000204168               204168               170213BN     1400+00000+BN0000002630+0000002630+000000000+000000369+0000002990+0000000009+I20000000000+0000002990+Z
204168001204168306-001021     204168006001023676740THERMOMETER DIGITAL BXD0000001000+00002630+00000+0001T   00002630+0000001736          1400 R68200               2BZ
204169000204169               204169               170213BN     1400+00000+BN0000005611+0000005611+000000000+000000786+0000006390+0000000007+I20000000000+0000006390+Z
204169001204169006-000190     204169006003000685530BALLOONS LOVE 81x91cm  0000001000+00004385+00000+0001T   00004385+0000001739          1400 R68131               2BZ
204169002204169006-001000     204169006003000093779HELIUM BALLOON FILL    0000002000+00000613+00000+0001T   00000613+0000001739          1400 R68131               2BZ
204170000204170               204170               170213BN     1400+00000+BN0000001490+0000001490+000000000+000000209+0000001690+0000000009+I20000000000+0000001690+Z
204170001204170079-130100     204170006003000542635A&C DIY COLOUR EYES 24P0000001000+00001490+00000+0001T   00001490+0000001739          1400 R68130               2BZ
204171000204171               204171               170213BN     1400+00000+BN0000012581+0000012581+000000000+000001765+0000014346+0000000000+I40000014346+0000000000+Z
204171001204171079-000201     204171006003000161430P/CRAYONS THERAPY 10PCE0000001000+00002630+00000+0001T   00002630+0000001741          1400 R68130               2BZ
204171002204171903-000123     204171006925925909280SWEET GS MINI MALLOWS  0000001000+00000876+00000+0001T   00000876+0000001741          1400 R68150               2BZ
204171003204171903-000844     204171005010478432567SWT CANDY DL LUV HEARTS0000001000+00001314+00000+0001T   00001314+0000001741          1400 R68150               2BZ
204171004204171018-005009     204171006001023725608MUG W/PLUSH-BEAR LOVE  0000001000+00003507+00000+0001T   00003507+0000001741          1400 R68515               2BZ
204171005204171077-000115-B   204171006003000181025GIFT-WRAP PPR 700MMX2M 0000001000+00002630+00000+0001T   00002630+0000001741          1400 R68112               2BZ
204171006204171112-116069     204171006009681820277TCS CARRIER BAG JUMBO  0000001000+00000048+00000+0001T   00000048+0000001741          1400 R68090               2BZ
204171007204171903-000200     204171006009826020234SWT CHOC RP CHOCO 23G  0000002000+00000788+00000+0001T   00000788+0000001741          1400 R68150               2BZ
204172000204172               204172               170213BN     1400+00000+BN0000008463+0000008463+000000000+000001188+0000009650+0000000001+I20000000000+0000009650+Z
204172001204172566-000367     204172006003000645558STICKER WINDOW DECOR   0000001000+00002630+00000+0001T   00002630+0000001743          1400 R68130               2BZ
204172002204172304-000720     204172006001023843050F/BUNCH ROSE 6-HEAD AST0000001000+00002630+00000+0001T   00002630+0000001743          1400 R68510               2BZ
204172003204172903-000155     204172006009803374435SWT LOLLY I LUV U HEART0000001000+00000525+00000+0001T   00000525+0000001743          1400 R68150               2BZ
204172004204172018-000129     204172006001023403353MUG OCC. LOVE V-SHAPE  0000001000+00002630+00000+0001T   00002630+0000001743          1400 R68515               2BZ
204172005204172112-116069     204172006009681820277TCS CARRIER BAG JUMBO  0000001000+00000048+00000+0001T   00000048+0000001743          1400 R68090               2BZ
204173000204173               204173               170213BN     1400+00000+BN0000001801+0000001801+000000000+000000253+0000002054+0000000000+I40000002054+0000000000+Z
204173001204173903-000211     204173006002099001238SWT GS MALLOW ICE CREAM0000001000+00001753+00000+0001T   00001753+0000001746          1400 R68150               2BZ
204173002204173112-116069     204173006009681820277TCS CARRIER BAG JUMBO  0000001000+00000048+00000+0001T   00000048+0000001746          1400 R68090               2BZ
204174000204174               204174               170213BN     1400+00000+BN0000011400+0000011400+000000000+000001597+0000012990+0000000007+I20000000000+0000012990+Z
204174001204174019-000133     204174006003000602353PLANTER TINPLATE W/HNDL0000002000+00004385+00000+0001T   00004385+0000001756          1400 R68510               2BZ
204174002204174051-006100     204174006003000267170GARDEN KID TOOLSET 3PCE0000001000+00002630+00000+0001T   00002630+0000001756          1400 R68820               2BZ
204175000204175               204175               170213BN     1400+00000+BN0000003507+0000003507+000000000+000000491+0000003998+0000000000+I40000003998+0000000000+Z
204175001204175106-001110     204175006001023857880SPORTS-BOTTLES SET-OF-20000001000+00003507+00000+0001T   00003507+0000001800          1400 R68210               2BZ
204176000204176               204176               170213BN     1400+00000+BN0000003507+0000003507+000000000+000000491+0000003990+0000000008+I20000000000+0000003990+Z
204176001204176031-000844     204176006001023851789P/FRAME WDN WORDS 2ASS 0000001000+00003507+00000+0001T   00003507+0000001803          1400 R68510               2BZ
204177000204177               204177               170213BN     1400+00000+BN0000015305+0000015305+000000000+000002145+0000017450+0000000000+I40000017450+0000000000+Z
204177001204177903-000095     204177006001704011495SWT SPECKLED-EGGS 100G 0000001000+00002104+00000+0001T   00002104+0000001806          1400 R68150               2BZ
204177002204177267-000233     204177006001023688576PUZZLE 48pc EDUCATIONAL0000001000+00003507+00000+0001T   00003507+0000001806          1400 R68755               2BZ
204177003204177403-000509     204177006001023699664MONEY-BANK PL. PIGGY   0000001000+00002630+00000+0001T   00002630+0000001806          1400 R68510               2BZ
204177004204177112-116069     204177006009681820277TCS CARRIER BAG JUMBO  0000001000+00000048+00000+0001T   00000048+0000001806          1400 R68090               2BZ
204177005204177301-007005     204177006001023848505ORN ANIMAL W/LIFE 20CM 0000001000+00007016+00000+0001T   00008771+0008121806          1400 R68505               2BZ
204178000204178               204178               170213BN     1400+00000+BN0000003507+0000003507+000000000+000000491+0000003998+0000000000+I40000003998+0000000000+Z
204178001204178159-000102     204178006001023552891SHOWER-CADDY 48cm      0000001000+00003507+00000+0001T   00003507+0000001808          1400 R68200               2BZ
204179000204179               204179               170213BN     1400+00000+BN0000002450+0000002450+000000000+000000345+0000002795+0000000000+I40000002795+0000000000+Z
204179001204179366-007601     204179006003000655472DRESS UP MASK THEATRICA0000001000+00000876+00000+0001T   00000876+0000001809          1400 R68131               2BZ
204179002204179018-000177     204179006001023797513MUG MINI LOVE ASSTD    0000001000+00000700+00000+0001T   00000700+0000001809          1400 R68515               2BZ
204179003204179080-000133-A   204179006003000647019MINI VALENTINES CARD   0000002000+00000437+00000+0001T   00000437+0000001809          1400 R68112               2BZ
A17021300                                          08572984BNSLAVE 2                       R682IC
C20406700                                          170213BN079-000277     09101990SLAVE 2     R681IC0000000000+0000000000+0010000001000+
C20411800                                          170213BN016-006515     15575634SLAVE 2     R681IC0000000000+0000000000+0010000001000+
C20411801                                          170213BN077-000299     16014521SLAVE 2     R681IC0000000000+0000000000+0020000001000+
C20411802                                          170213BN903-000095     16014983SLAVE 2     R681IC0000000000+0000000000+0030000001000+
C20411803                                          170213BN003-009106     16030571SLAVE 2     R682IC0000000000+0000000000+0040000001000+
M17021391                              CASH        BNSLAVE 2                       Z-REPORT No.   631TOTAL (Sales - Refunds)           9338.14       CASH TO BE BANKED                 4416.00       DEBIT CARDS                          0.00       CREDIT CARDS                      4922.14       Z-READING                         9338.14       AIRTIME DEBIT CARD SALES             0.00       AIRTIME CARD SALES                   0.00       OVERS/UNDERS                         0.00       AIRTIME CASH SALES                   0.00       GIFT CARDS                           0.00       GIFT CARD CASH SALES                 0.00       T O T A L  CASH PAYOUTS              0.00                                                                                                                                                                                                                                                                                                                                                      Z
M17021392                              CASH        BNABSENT                                                                                                                                                                                          ANNUAL LEAVE                                                                                                                                                                                    DAY OFF                                                                                                                                                                                         COMMENTS                                                                                                                                                                                                                                                                                                                                                                                       Z
Y17021300                                          BN00000000819416+000113
ZBN17021321033 SLAVE 2      SALES DATA                     NEXT INVOICE NO.  204180 0631
X BN Slave 2 First invoice 204067 170213 Last invoice 204179 170213 Next invoice 204180 Total number of records 000000447 clbackup completed 21:03:57
