308513000308513               308513               170213BN     1400+00000+BN0000010521+0000010521+000000000+000001473+0000011994+0000000000+I40000011994+0000000000+Z
308513001308513492-055603     308513000078257556038SWIM-GOGGLES FUN       0000003000+00003507+00000+0001T   00003507+0000000902          1400 J64787               3BZ
308514000308514               308514               170213BN     1400+00000+BN0000010522+0000010522+000000000+000001475+0000011990+0000000007+I20000000000+0000011990+Z
308514001308514016-009616     3085140060030004416932PC GLS SHAKERS 3-ASSTD0000002000+00001753+00000+0001T   00001753+0000000910          1400 J64300               3BZ
308514002308514105-002013     308514006002580008494CONTAINER SET 18PCE    0000001000+00007016+00000+0001T   00007016+0000000910          1400 J64210               3BZ
308515000308515               308515               170213BN     1400+00000+BN0000008362+0000008362+000000000+000001173+0000009535+0000000000+I40000009535+0000000000+Z
308515001308515079-013032-H   308515006003000496501GLITTER PRINCESS ACC   0000001000+00002630+00000+0001T   00002630+0000000912          1400 J64130               3BZ
308515002308515079-013032-B   308515006003000389445MIXED SHAPES           0000001000+00001753+00000+0001T   00001753+0000000912          1400 J64130               3BZ
308515003308515468-002152     308515006003000515622EASTER BUNNY MASK      0000001000+00001314+00000+0001T   00001314+0000000912          1400 J64110               3BZ
308515004308515112-116038     308515006009681820246TCS CARRIER BAG MIDI   0000001000+00000035+00000+0001T   00000035+0000000912          1400 J64090               3BZ
308515005308515079-006525     308515006003000681938MASKING FABRIC 10PC    0000001000+00002630+00000+0001T   00002630+0000000912          1400 J64130               3BZ
308516000308516               308516               170213BN     1400+00000+BN0000018885+0000018885+000000000+000002647+0000021532+0000000000+I40000021532+0000000000+Z
308516001308516079-013099     308516006003000081875ART+CRAFT EYES ASSTD   0000002000+00001753+00000+0001T   00001753+0000000914          1400 J64130               3BZ
308516002308516007-010496     308516006003000640652MARKER WHITEBOARD 4PCE 0000001000+00001753+00000+0001T   00001753+0000000914          1400 J64130               3BZ
308516003308516566-000667     308516006003000658039STICKER FOIL EMBOSSED  0000002000+00002192+00000+0001T   00002192+0000000914          1400 J64130               3BZ
308516004308516079-000358     308516006003000591046ART+CRAFT FELT-TIP PENS0000003000+00003069+00000+0001T   00003069+0000000914          1400 J64130               3BZ
308516005308516112-116038     308516006009681820246TCS CARRIER BAG MIDI   0000001000+00000035+00000+0001T   00000035+0000000914          1400 J64090               3BZ
308517000308517               308517               170213BN     1400+00000+BN0000005262+0000005262+000000000+000000737+0000005999+0000000000+I40000005999+0000000000+Z
308517001308517082-098770     308517006001492987705SUNGLASS LADIES RECT   0000001000+00005262+00000+0001T   00005262+0000000917          1400 J64160               3BZ
308518000308518               308518               170213BN     1400+00000+BN0000001227+0000001227+000000000+000000172+0000001390+0000000009+I20000000000+0000001390+Z
308518001308518007-000160     308518006009685857286NOTE-BOOK A5 SHORTHAND 0000001000+00001227+00000+0001T   00001227+0000000918          1400 J64130               3BZ
308519000308519               308519               170213BN     1400+00000+BN0000000700+0000000700+000000000+000000098+0000000790+0000000008+I20000000000+0000000790+Z
308519001308519903-000120     308519006002099001665SWEET GS ZILLIONS 50g  0000001000+00000700+00000+0001T   00000700+0000000919          1400 J64150               3BZ
308520000308520               308520               170213BN     1400+00000+BN0000006171+0000006171+000000000+000000866+0000007030+0000000007+I20000000000+0000007030+Z
308520001308520903-000211     308520006002099001238SWT GS MALLOW ICE CREAM0000001000+00001753+00000+0001T   00001753+0000000921          1400 J64150               3BZ
308520002308520567-011380     308520009781408190135BK STICKER ENCHANTED   0000001000+00002630+00000+0001T   00003507+0008140921          1400 J64757               3BZ
308520003308520112-116038     308520006009681820246TCS CARRIER BAG MIDI   0000001000+00000035+00000+0001T   00000035+0000000921          1400 J64090               3BZ
308520004308520104-000010     308520006001023507822BASKET 30x23cm RECT.   0000001000+00001753+00000+0001T   00001753+0000000921          1400 J64210               3BZ
308521000308521               308521               170213BN     1400+00000+BN0000001753+0000001753+000000000+000000246+0000001990+0000000009+I20000000000+0000001990+Z
308521001308521007-010496     308521006003000640652MARKER WHITEBOARD 4PCE 0000001000+00001753+00000+0001T   00001753+0000000925          1400 J64130               3BZ
308522000308522               308522               170213BN     1400+00000+BN0000007014+0000007014+000000000+000000982+0000007996+0000000000+I40000007996+0000000000+Z
308522001308522567-011429     308522009780799352603BK READER BEGIN LEES   0000001000+00003507+00000+0001T   00004823+0008140935          1400 J64757               3BZ
308522002308522567-011429     308522009780799352597BK READER BEGIN LEES   0000001000+00003507+00000+0001T   00004823+0008140935          1400 J64757               3BZ
308523000308523               308523               170213BN     1400+00000+BN0000000918+0000000918+000000000+000000130+0000001048+0000000000+I40000001048+0000000000+Z
308523001308523903-000155     308523006009803374435SWT LOLLY I LUV U HEART0000001000+00000525+00000+0001T   00000525+0000000941          1400 J64150               3BZ
308523002308523903-000183     308523006003000451043SWT LB HEART LOLLY     0000001000+00000393+00000+0001T   00000393+0000000941          1400 J64150               3BZ
308524000308524               308524               170213BN     1400+00000+BN0000008539+0000008539+000000000+000001196+0000009735+0000000000+I40000009735+0000000000+Z
308524001308524301-002000     308524006003000431359ORN ANIMAL 6-ASSTD     0000002000+00003507+00000+0001T   00003507+0000000946          1400 J64505               3BZ
308524002308524150-001222     308524006001023495334PLATE-STAND TRANSPARENT0000001000+00001490+00000+0001T   00001490+0000000946          1400 J64810               3BZ
308524003308524112-116038     308524006009681820246TCS CARRIER BAG MIDI   0000001000+00000035+00000+0001T   00000035+0000000946          1400 J64090               3BZ
308525000308525               308525               170213BN     1400+00000+BN0000004385+0000004385+000000000+000000614+0000004990+0000000009+I20000000000+0000004990+Z
308525001308525082-007586     308525006003000654291SUNGLASS DESIGNER ASST 0000001000+00004385+00000+0001T   00004385+0000000949          1400 J64160               3BZ
308526000308526               308526               170213BN     1400+00000+BN0000006489+0000006489+000000000+000000909+0000007390+0000000008+I20000000000+0000007390+Z
308526001308526085-007024     308526006001023870926P/KNIFE 15-FUNCTION RED0000001000+00005262+00000+0001T   00005262+0000001004          1400 J64305               3BZ
308526002308526071-081091     308526006001151010287STAED/GENKEM ALL-STICK 0000001000+00001227+00000+0001T   00001227+0000001004          1400 J64130               3BZ
308527000308527               308527               170213BN     1400+00000+BN0000005030+0000005030+000000000+000000705+0000005735+0000000000+I40000005735+0000000000+Z
308527001308527903-000155     308527006009803374435SWT LOLLY I LUV U HEART0000001000+00000525+00000+0001T   00000525+0000001006          1400 J64150               3BZ
308527002308527018-000177     308527006001023797513MUG MINI LOVE ASSTD    0000001000+00000700+00000+0001T   00000700+0000001006          1400 J64515               3BZ
308527003308527566-000068     308527006003000418046POP UP LOVE 2 ASSTD    0000001000+00002192+00000+0001T   00002192+0000001006          1400 J64130               3BZ
308527004308527566-001234     308527006003000217793STICKERS LASER ASSTD   0000001000+00001578+00000+0001T   00001578+0000001006          1400 J64130               3BZ
308527005308527112-116038     308527006009681820246TCS CARRIER BAG MIDI   0000001000+00000035+00000+0001T   00000035+0000001006          1400 J64090               3BZ
308528000308528               308528               170213BN     1400+00000+BN0000008504+0000008504+000000000+000001191+0000009690+0000000005+I20000000000+0000009690+Z
308528001308528566-000317     308528006003000524204STICKER TAPE 2PCS      0000001000+00003507+00000+0001T   00003507+0000001009          1400 J64130               3BZ
308528002308528077-000304     308528006001023483232GIFT-BAG 25X32CM E/DAY 0000001000+00001490+00000+0001T   00001490+0000001009          1400 J64112               3BZ
308528003308528566-000561     308528006003000068715S/BOOK PAPER CRAFT 12SH0000001000+00003507+00000+0001T   00003507+0000001009          1400 J64130               3BZ
308529000308529               308529               170213BN     1400+00000+BN0000012482+0000012482+000000000+000001749+0000014231+0000000000+I40000014231+0000000000+Z
308529001308529079-000512     308529006001023635853CRAYONS WAX 12-COLOUR  0000002000+00001490+00000+0001T   00001490+0000001014          1400 J64130               3BZ
308529002308529567-011487     308529006003000663613BK COLOURING 96P DORA  0000001000+00003507+00000+0001T   00003507+0000001014          1400 J64757               3BZ
308529003308529567-011485     308529006003000663538BK COLOURING 96P BATMAN0000001000+00003507+00000+0001T   00003507+0000001014          1400 J64757               3BZ
308529004308529006-000120     308529006001023346889BALLOONS 10PC MIX COL  0000001000+00001753+00000+0001T   00001753+0000001014          1400 J64131               3BZ
308529005308529112-116038     308529006009681820246TCS CARRIER BAG MIDI   0000001000+00000035+00000+0001T   00000035+0000001014          1400 J64090               3BZ
308529006308529564-000012     308529006001023130075BUBBLE BOTTLE MAGIC    0000001000+00000700+00000+0001T   00000700+0000001014          1400 J64131               3BZ
308530000308530               308530               170213BN     1400+00000+BN0000012626+0000012626+000000000+000001769+0000014395+0000000000+I40000014395+0000000000+Z
308530001308530200-003024     308530006001023657299REFUSE BAGS 20PCE BLACK0000001000+00001753+00000+0001T   00001753+0000001025          1400 J64214               3BZ
308530002308530079-000336     308530006003000670758SUPER FINE MARKER PENS 0000001000+00005262+00000+0001T   00005262+0000001025          1400 J64130               3BZ
308530003308530006-000190     308530006003000685530BALLOONS LOVE 81x91cm  0000001000+00004385+00000+0001T   00004385+0000001025          1400 J64131               3BZ
308530004308530006-001000     308530006003000093779HELIUM BALLOON FILL    0000002000+00000613+00000+0001T   00000613+0000001025          1400 J64131               3BZ
308531000308531               308531               170213BN     1400+00000+BN0000002454+0000002454+000000000+000000344+0000002790+0000000008+I20000000000+0000002790+Z
308531001308531033-000013     308531006001023567215PILL-REMINDER PL       0000002000+00001227+00000+0001T   00001227+0000001029          1400 J64200               3BZ
308532000308532               308532               170213BN     1400+00000+BN0000001226+0000001226+000000000+000000172+0000001390+0000000008+I20000000000+0000001390+Z
308532001308532083-000055     308532006003000003853LIGHTER ELCTRNC REFILBL0000002000+00000613+00000+0001T   00000613+0000001038          1400 J64315               3BZ
308533000308533               308533               170213BN     1400+00000+BN0000008239+0000008239+000000000+000001156+0000009390+0000000005+I20000000000+0000009390+Z
308533001308533159-000117     308533006003000450398SHOWER CAP PVC ASSTD   0000001000+00002630+00000+0001T   00002630+0000001039          1400 J64200               3BZ
308533002308533084-000889     308533006003000293674NAIL FILE EMERY 18CM   0000001000+00001753+00000+0001T   00001753+0000001039          1400 J64200               3BZ
308533003308533027-783000     308533006001023874641SCOURERS RAINBOW 5PCE  0000001000+00001753+00000+0001T   00001753+0000001039          1400 J64212               3BZ
308533004308533027-078281     308533006001023767806SCOURERS BRS 8g  PACK-30000001000+00000876+00000+0001T   00000876+0000001039          1400 J64212               3BZ
308533005308533200-000092     308533006003000576739PICNIC PAPER PLATES 23c0000001000+00001227+00000+0001T   00001227+0000001039          1400 J64214               3BZ
308534000308534               308534               170213BN     1400+00000+BN0000001753+0000001753+000000000+000000246+0000001990+0000000009+I20000000000+0000001990+Z
308534001308534046-002032-PK2 308534004897006175063BATTERIES CR-2032  2PCE0000001000+00001753+00000+0001T   00001753+0000001040          1400 J64312               3BZ
308535000308535               308535               170213BN     1400+00000+BN0000001836+0000001836+000000000+000000260+0000002090+0000000006+I20000000000+0000002090+Z
308535001308535903-000155     308535006009803374435SWT LOLLY I LUV U HEART0000002000+00000525+00000+0001T   00000525+0000001042          1400 J64150               3BZ
308535002308535903-000183     308535006003000451043SWT LB HEART LOLLY     0000002000+00000393+00000+0001T   00000393+0000001042          1400 J64150               3BZ
308536000308536               308536               170213BN     1400+00000+BN0000001753+0000001753+000000000+000000246+0000001990+0000000009+I20000000000+0000001990+Z
308536001308536366-002809     308536006003000222643DRESS UP MOUSTACHE SET 0000001000+00001753+00000+0001T   00001753+0000001048          1400 J64131               3BZ
308537000308537               308537               170213BN     1400+00000+BN0000004820+0000004820+000000000+000000676+0000005490+0000000006+I20000000000+0000005490+Z
308537001308537301-085004     308537006003000420469ORN LOVE PLAQUE 21X10CM0000001000+00003507+00000+0001T   00003946+0006471050          1400 J64505               3BZ
308537002308537077-000408     308537006003000145218G/BAG PP 15X21X7CM     0000001000+00000876+00000+0001T   00000876+0000001050          1400 J64112               3BZ
308537003308537080-000133-A   308537006003000647019MINI VALENTINES CARD   0000001000+00000437+00000+0001T   00000437+0000001050          1400 J64112               3BZ
308538000308538               308538               170213BN     1400+00000+BN0000007540+0000007540+000000000+000001057+0000008590+0000000007+I20000000000+0000008590+Z
308538001308538031-080508     308538006001023802415P/FRAME PL 22X11CM LOVE0000001000+00004385+00000+0001T   00004385+0000001055          1400 J64510               3BZ
308538002308538304-001204     308538006001023737984FLOWER OCC. TEDDY/ROSES0000001000+00001402+00000+0001T   00001490+0006471055          1400 J64510               3BZ
308538003308538077-000299-A   308538006003000670888GIFT-BAG PAPER JMB LOVE0000001000+00001753+00000+0001T   00001753+0000001055          1400 J64112               3BZ
308539000308539               308539               170213BN     1400+00000+BN0000001753+0000001753+000000000+000000246+0000001990+0000000009+I20000000000+0000001990+Z
308539001308539007-000184     308539006003000135424NOTEBOOK               0000001000+00001753+00000+0001T   00001753+0000001055          1400 J64130               3BZ
308540000308540               308540               170213BN     1400+00000+BN0000005874+0000005874+000000000+000000824+0000006690+0000000008+I20000000000+0000006690+Z
308540001308540003-000119     308540006001023805409ORN MSG STONE W/GNOME  0000001000+00002630+00000+0001T   00002630+0000001059          1400 J64505               3BZ
308540002308540150-000770     308540006005387000128UTILITY BOX MEGA       0000001000+00003244+00000+0001T   00003244+0000001059          1400 J64810               3BZ
308541000308541               308541               170213BN     1400+00000+BN0000003507+0000003507+000000000+000000491+0000003990+0000000008+I20000000000+0000003990+Z
308541001308541133-000010-A   308541006001023997647CLEANING CLOTH ROLL 30 0000001000+00003507+00000+0001T   00003507+0000001102          1400 J64212               3BZ
308542000308542               308542               170213BN     1400+00000+BN0000001928+0000001928+000000000+000000270+0000002190+0000000008+I20000000000+0000002190+Z
308542001308542050-000361-Z   308542006001023535382PADLOCK IRON 20mm CARD 0000001000+00001928+00000+0001T   00001928+0000001119          1400 J64855               3BZ
308543000308543               308543               170213BN     1400+00000+BN0000011401+0000011401+000000000+000001597+0000012990+0000000008+I20000000000+0000012990+Z
308543001308543159-000090     308543006003000401246SHOWER-CADDY CHROME    0000001000+00009648+00000+0001T   00009648+0000001120          1400 J64200               3BZ
308543002308543159-000041     308543006001023767684HOOK-HANGER 2PCE S/S   0000001000+00001753+00000+0001T   00001753+0000001120          1400 J64200               3BZ
308544000308544               308544               170213BN     1400+00000+BN0000001050+0000001050+000000000+000000148+0000001190+0000000008+I20000000000+0000001190+Z
308544001308544903-000155     308544006009803374435SWT LOLLY I LUV U HEART0000002000+00000525+00000+0001T   00000525+0000001121          1400 J64150               3BZ
308545000308545               308545               170213BN     1400+00000+BN0000010242+0000010242+000000000+000001438+0000011680+0000000000+I40000011680+0000000000+Z
308545001308545112-116038     308545006009681820246TCS CARRIER BAG MIDI   0000001000+00000035+00000+0001T   00000035+0000001123          1400 J64090               3BZ
308545002308545039-000319-2   308545006003000442508B/CANDLES LRG NUMBER-2 0000002000+00000876+00000+0001T   00000876+0000001123          1400 J64510               3BZ
308545003308545071-081101-A   308545006003000326549GLUE-STICK 25g BLISTER 0000001000+00000788+00000+0001T   00000788+0000001123          1400 J64130               3BZ
308545004308545071-004202     308545006001023417176SCISSORS-SCHOOL PL/MTL 0000001000+00001139+00000+0001T   00001139+0000001123          1400 J64130               3BZ
308545005308545071-005213     308545006001023690371CELLOTAPE 12mmx33m     0000001000+00000876+00000+0001T   00000876+0000001123          1400 J64130               3BZ
308545006308545077-000251     308545006003000639106GIFT-DECOR RIBBON      0000001000+00002630+00000+0001T   00002630+0000001123          1400 J64112               3BZ
308545007308545903-000095     308545006001704011495SWT SPECKLED-EGGS 100G 0000001000+00002104+00000+0001T   00002104+0000001123          1400 J64150               3BZ
308545008308545079-009700-G   308545006003000545957PAPER SIRIO A4 LIME COL0000001000+00000306+00000+0001T   00000306+0000001123          1400 J64130               3BZ
308545009308545079-009700-K   308545006003000546275PAPER SIRIO A4 VANILLA 0000001000+00000306+00000+0001T   00000306+0000001123          1400 J64130               3BZ
308545010308545079-009700-E   308545006003000545797PAPER SIRIO A4 GREY    0000001000+00000306+00000+0001T   00000306+0000001123          1400 J64130               3BZ
308546000308546               308546               170213BN     1400+00000+BN0000000393+0000000393+000000000+000000056+0000000440+0000000009+I20000000000+0000000440+Z
308546001308546903-000183     308546006003000451043SWT LB HEART LOLLY     0000001000+00000393+00000+0001T   00000393+0000001125          1400 J64150               3BZ
308547000308547               308547               170213BN     1400+00000+BN0000001753+0000001753+000000000+000000246+0000001990+0000000009+I20000000000+0000001990+Z
308547001308547080-000117     308547006003000236350CARD & ENVELOPE THANK U0000001000+00001753+00000+0001T   00001753+0000001133          1400 J64112               3BZ
308548000308548               308548               170213BN     1400+00000+BN0000006134+0000006134+000000000+000000861+0000006990+0000000005+I20000000000+0000006990+Z
308548001308548103-000051     308548006003000676255BAMBOO BASKET SQUARE   0000002000+00001753+00000+0001T   00001753+0000001138          1400 J64300               3BZ
308548002308548077-000151     308548006008766114676GIFT-WRAP C/PHANE ASSTD0000003000+00000876+00000+0001T   00000876+0000001138          1400 J64112               3BZ
308549000308549               308549               170213BN     1400+00000+BN0000001227+0000001227+000000000+000000172+0000001390+0000000009+I20000000000+0000001390+Z
308549001308549077-000318     308549006001023609755GIFT-BAG 18X23CM E/D AN0000001000+00001227+00000+0001T   00001227+0000001140          1400 J64112               3BZ
308550000308550               308550               170213BN     1400+00000+BN0000007891+0000007891+000000000+000001106+0000008997+0000000000+I40000008997+0000000000+Z
308550001308550049-000059     308550006003000209972RUG STRIPE ASSTD COLOUR0000001000+00004385+00000+0001T   00004385+0000001144          1400 J64510               3BZ
308550002308550088-000108     308550006001023765536POTPOURRI-OIL 10ml ASST0000001000+00001753+00000+0001T   00001753+0000001144          1400 J64212               3BZ
308550003308550038-000205     308550006001926001205PLACE-MATS PVC ASSTD-C 0000001000+00001753+00000+0001T   00001753+0000001144          1400 J64300               3BZ
308551000308551               308551               170213BN     1400+00000+BN0000032917+0000032917+000000000+000004619+0000037536+0000000000+I40000037536+0000000000+Z
308551001308551566-001234     308551006003000217793STICKERS LASER ASSTD   0000001000+00001578+00000+0001T   00001578+0000001228          1400 J64130               3BZ
308551002308551566-000037     308551006003000383948STICKER 3D GEL         0000002000+00001753+00000+0001T   00001753+0000001228          1400 J64130               3BZ
308551003308551006-000120     308551006001023346889BALLOONS 10PC MIX COL  0000001000+00001753+00000+0001T   00001753+0000001228          1400 J64131               3BZ
308551004308551903-000123     308551006925925909280SWEET GS MINI MALLOWS  0000001000+00000876+00000+0001T   00000876+0000001228          1400 J64150               3BZ
308551005308551071-005669     308551006003000153268STAPLER MINI W/STAPLES 0000001000+00002630+00000+0001T   00002630+0000001228          1400 J64130               3BZ
308551006308551079-013032-E   308551006003000389766ART+CRAFT COL/PAPER    0000001000+00002630+00000+0001T   00002630+0000001228          1400 J64130               3BZ
308551007308551079-014152     308551006003000253074ART+CRAFT PK50 ASSTD   0000003000+00003069+00000+0001T   00003069+0000001228          1400 J64130               3BZ
308551008308551366-002802     308551006003000520077DRESS UP EYEBROW SET   0000001000+00002192+00000+0001T   00002192+0000001228          1400 J64131               3BZ
308551009308551079-006500     308551006001023557186GLUE GLITTER 6/10 PCE  0000001000+00001753+00000+0001T   00001753+0000001228          1400 J64130               3BZ
308551010308551077-000245     308551006001023759214GIFT-RIBBON METALLICx2 0000001000+00001227+00000+0001T   00001227+0000001228          1400 J64112               3BZ
308551011308551006-000223     308551006001023891327PARTY EYE-MASK 6PCE    0000001000+00000876+00000+0001T   00000876+0000001228          1400 J64131               3BZ
308551012308551903-000183     308551006003000451043SWT LB HEART LOLLY     0000004000+00000393+00000+0001T   00000393+0000001228          1400 J64150               3BZ
308551013308551024-000212     308551006001023858030COOKIE-CUTTERS PL SMALL0000001000+00003069+00000+0001T   00003069+0000001228          1400 J64300               3BZ
308551014308551112-116069     308551006009681820277TCS CARRIER BAG JUMBO  0000001000+00000048+00000+0001T   00000048+0000001228          1400 J64090               3BZ
308552000308552               308552               170213BN     1400+00000+BN0000009644+0000009644+000000000+000001351+0000010995+0000000000+I40000010995+0000000000+Z
308552001308552072-000420     308552006003000024131PET DOG TRAVEL W/BOTTLE0000001000+00002630+00000+0001T   00002630+0000001230          1400 J64870               3BZ
308552002308552072-020264     308552006001023602565PET DOG CLEAN-UP BAGS  0000002000+00003507+00000+0001T   00003507+0000001230          1400 J64870               3BZ
308553000308553               308553               170213BN     1400+00000+BN0000003506+0000003506+000000000+000000492+0000003990+0000000008+I20000000000+0000003990+Z
308553001308553200-003026     308553006003000276448REFUSE BAGS 10PCE GREEN0000002000+00001753+00000+0001T   00001753+0000001237          1400 J64214               3BZ
308554000308554               308554               170213BN     1400+00000+BN0000005261+0000005261+000000000+000000737+0000005990+0000000008+I20000000000+0000005990+Z
308554001308554082-000100     308554006003000360246READING GLS STRENGHT:1 0000001000+00004385+00000+0001T   00004385+0000001247          1400 J64160               3BZ
308554002308554082-026204     308554006001023816443R/GLASSES STRINGS 2PCE 0000001000+00000876+00000+0001T   00000876+0000001247          1400 J64160               3BZ
308555000308555               308555               170213BN     1400+00000+BN0000003507+0000003507+000000000+000000491+0000003990+0000000008+I20000000000+0000003990+Z
308555001308555031-000864-B   308555006001023798381P/FRAME MAHOGANY 13X18 0000001000+00003507+00000+0001T   00003507+0000001249          1400 J64510               3BZ
308556000308556               308556               170213BN     1400+00000+BN0000001788+0000001788+000000000+000000251+0000002030+0000000009+I20000000000+0000002030+Z
308556001308556366-006104     308556006003000616930DRESS UP FACE PAINT    0000001000+00001753+00000+0001T   00001753+0000001254          1400 J64131               3BZ
308556002308556112-116038     308556006009681820246TCS CARRIER BAG MIDI   0000001000+00000035+00000+0001T   00000035+0000001254          1400 J64090               3BZ
308557000308557               308557               170213BN     1400+00000+BN0000006663+0000006663+000000000+000000933+0000007596+0000000000+I40000007596+0000000000+Z
308557001308557368-000001     308557006003000097982Plush Bear 25cm        0000001000+00004385+00000+0001T   00004385+0000001259          1400 J64745               3BZ
308557002308557564-000012     308557006001023130075BUBBLE BOTTLE MAGIC    0000001000+00000700+00000+0001T   00000700+0000001259          1400 J64131               3BZ
308557003308557077-000303     308557006001023593757GIFT-BAG PAPER MED     0000001000+00001578+00000+0001T   00001578+0000001259          1400 J64112               3BZ
308558000308558               308558               170213BN     1400+00000+BN0000008764+0000008764+000000000+000001228+0000009992+0000000000+I40000009992+0000000000+Z
308558001308558089-000005     308558006003000094806KEY CHAIN CARDS MTL    0000001000+00003069+00000+0001T   00003069+0000001303          1400 J64205               3BZ
308558002308558089-060027     308558006003000245871KEY-CHAIN HEART 6X6cm  0000001000+00003069+00000+0001T   00003069+0000001303          1400 J64205               3BZ
308558003308558018-000177     308558006001023797513MUG MINI LOVE ASSTD    0000002000+00000700+00000+0001T   00000700+0000001303          1400 J64515               3BZ
308558004308558077-000311     308558006001023608666GIFT-BAG 11X14CM GLOSS 0000002000+00000613+00000+0001T   00000613+0000001303          1400 J64112               3BZ
308559000308559               308559               170213BN     1400+00000+BN0000003542+0000003542+000000000+000000496+0000004030+0000000008+I20000000000+0000004030+Z
308559001308559133-098000     308559006003000460779TABLE RUNNER 33x180cm  0000001000+00003507+00000+0001T   00004385+0008121306          1400 J64212               3BZ
308559002308559112-116038     308559006009681820246TCS CARRIER BAG MIDI   0000001000+00000035+00000+0001T   00000035+0000001306          1400 J64090               3BZ
308560000308560               308560               170213BN     1400+00000+BN0000004821+0000004821+000000000+000000675+0000005490+0000000006+I20000000000+0000005490+Z
308560001308560018-000136     308560006001023659026MUG OCC LOVE W/PLUSH   0000001000+00003507+00000+0001T   00003507+0000001308          1400 J64515               3BZ
308560002308560077-000310     308560006001023608635GIFT-BAG 18X23CM GLOSS 0000001000+00001314+00000+0001T   00001314+0000001308          1400 J64112               3BZ
308561000308561               308561               170213BN     1400+00000+BN0000001753+0000001753+000000000+000000246+0000001990+0000000009+I20000000000+0000001990+Z
308561001308561039-000114     308561006001023524058CANDLE T/LITE RED 3.5CM0000001000+00001753+00000+0001T   00001753+0000001308          1400 J64510               3BZ
308562000308562               308562               170213BN     1400+00000+BN0000001753+0000001753+000000000+000000246+0000001990+0000000009+I20000000000+0000001990+Z
308562001308562200-003024     308562006001023657299REFUSE BAGS 20PCE BLACK0000001000+00001753+00000+0001T   00001753+0000001315          1400 J64214               3BZ
308563000308563               308563               170213BN     1400+00000+BN0000001400+0000001400+000000000+000000196+0000001590+0000000006+I20000000000+0000001590+Z
308563001308563018-000177     308563006001023797513MUG MINI LOVE ASSTD    0000002000+00000700+00000+0001T   00000700+0000001315          1400 J64515               3BZ
308564000308564               308564               170213BN     1400+00000+BN0000002630+0000002630+000000000+000000369+0000002990+0000000009+I20000000000+0000002990+Z
308564001308564567-075466     308564009780263253412BK NOVEL ROMANCE       0000001000+00002630+00000+0001T   00002630+0000001316          1400 J64757               3BZ
308565000308565               308565               170213BN     1400+00000+BN0000011432+0000011432+000000000+000001603+0000013035+0000000000+I40000013035+0000000000+Z
308565001308565048-000700     308565006001023849731HEAD-LAMP 10xLED (3xAAA0000001000+00004385+00000+0001T   00004385+0000001318          1400 J64305               3BZ
308565002308565046-000010-A   308565006003000438778BATTERIES SIZE:AAA 4PCE0000001000+00002367+00000+0001T   00002367+0000001318          1400 J64312               3BZ
308565003308565048-000701     308565006001023867674HEAD-LAMP CAP CLIP-ON  0000001000+00002630+00000+0001T   00002630+0000001318          1400 J64305               3BZ
308565004308565080-000133-A   308565006003000647019MINI VALENTINES CARD   0000001000+00000437+00000+0001T   00000437+0000001318          1400 J64112               3BZ
308565005308565077-000315     308565006003000181186GIFT-BAG 20x28cm MATT  0000001000+00001578+00000+0001T   00001578+0000001318          1400 J64112               3BZ
308565006308565112-116038     308565006009681820246TCS CARRIER BAG MIDI   0000001000+00000035+00000+0001T   00000035+0000001318          1400 J64090               3BZ
308566000308566               308566               170213BN     1400+00000+BN0000009820+0000009820+000000000+000001376+0000011196+0000000000+I40000011196+0000000000+Z
308566001308566009-001509     308566006003000531448MELAMINE PARTY TUMBLER 0000001000+00001490+00000+0001T   00001490+0000001320          1400 J64210               3BZ
308566002308566019-000124     308566006003000329502PLANTER GALV ROUND SML 0000001000+00003507+00000+0001T   00004385+0008171320          1400 J64510               3BZ
308566003308566019-000126     308566006003000329571PLANTER GALV W/HANDLE  0000001000+00004823+00000+0001T   00004823+0000001320          1400 J64510               3BZ
308567000308567               308567               170213BN     1400+00000+BN0000001578+0000001578+000000000+000000221+0000001790+0000000009+I20000000000+0000001790+Z
308567001308567566-001234     308567006003000217793STICKERS LASER ASSTD   0000001000+00001578+00000+0001T   00001578+0000001321          1400 J64130               3BZ
308568000308568               308568               170213BN     1400+00000+BN0000002893+0000002893+000000000+000000406+0000003290+0000000009+I20000000000+0000003290+Z
308568001308568036-000151     308568006001023810588COATHANGERS    PACK-10 0000001000+00002893+00000+0001T   00002893+0000001321          1400 J64212               3BZ
308569000308569               308569               170213BN     1400+00000+BN0000001490+0000001490+000000000+000000209+0000001690+0000000009+I20000000000+0000001690+Z
308569001308569028-000796     308569006001023812094SKEWERS 25cm 50PCE 4mm 0000001000+00001490+00000+0001T   00001490+0000001326          1400 J64305               3BZ
308570000308570               308570               170213BN     1400+00000+BN0000064713+0000064713+000000000+000009070+0000073783+0000000000+I40000073783+0000000000+Z
308570001308570112-116069     308570006009681820277TCS CARRIER BAG JUMBO  0000001000+00000048+00000+0001T   00000048+0000001333          1400 J64090               3BZ
308570002308570263-001005     308570006003000013340VEHICLE DUNE BUGGY SET 0000001000+00007893+00000+0001T   00007893+0000001333          1400 J64710               3BZ
308570003308570560-000231     308570006003000655977ANIMALS SPIDER SET 4   0000001000+00002630+00000+0001T   00002630+0000001333          1400 J64745               3BZ
308570004308570361-000125     308570006003000602018DOLL SML 23cm FASHION  0000001000+00005262+00000+0001T   00005262+0000001333          1400 J64725               3BZ
308570005308570027-078281     308570006001023767806SCOURERS BRS 8g  PACK-30000001000+00000876+00000+0001T   00000876+0000001333          1400 J64212               3BZ
308570006308570003-000250     308570006003000035045ORN DECOR NOVELTY GRASS0000001000+00001753+00000+0001T   00001753+0000001333          1400 J64505               3BZ
308570007308570027-783000     308570006001023874641SCOURERS RAINBOW 5PCE  0000001000+00001753+00000+0001T   00001753+0000001333          1400 J64212               3BZ
308570008308570490-044672     308570000078257446728INTEX 3D BOP BAG ASSTD 0000001000+00004385+00000+0001T   00004385+0000001333          1400 J64787               3BZ
308570009308570112-116069     308570006009681820277TCS CARRIER BAG JUMBO  0000001000+00000048+00000+0001T   00000048+0000001333          1400 J64090               3BZ
308570010308570267-000047     308570000047754176339PUZZLE GIRLS LICENSED  0000001000+00004385+00000+0001T   00004385+0000001333          1400 J64755               3BZ
308570011308570051-002401     308570006001023523570TRIGGER-SPRAYER   300ml0000001000+00001490+00000+0001T   00001490+0000001333          1400 J64820               3BZ
308570012308570038-047250     308570006001023816009PLACE MAT ASSORTED     0000001000+00001753+00000+0001T   00001753+0000001333          1400 J64300               3BZ
308570013308570903-000211     308570006002099001238SWT GS MALLOW ICE CREAM0000001000+00001753+00000+0001T   00001753+0000001333          1400 J64150               3BZ
308570014308570080-000142     308570006003000662456CARD & ENV GIANT AFRI  0000001000+00002630+00000+0001T   00002630+0000001333          1400 J64112               3BZ
308570015308570566-000055     308570006003000661268STICKER DRESS UP GIRL  0000001000+00001753+00000+0001T   00001753+0000001333          1400 J64130               3BZ
308570016308570567-010565     308570006003000572472BOOK AFRIKAANS CAT 2   0000003000+00003507+00000+0001T   00003507+0000001333          1400 J64757               3BZ
308570017308570567-010760     308570009781849569965BOOK EDU ASSTD CAT 7   0000001000+00002630+00000+0001T   00003507+0008131333          1400 J64757               3BZ
308570018308570162-092944     308570006001492929446SS 3PK KIDS H/BANDS    0000001000+00003507+00000+0001T   00003507+0000001333          1400 J64160               3BZ
308570019308570306-000993     308570006003000560110FIRSTAID PLASTER 75PC  0000001000+00002630+00000+0001T   00002630+0000001333          1400 J64200               3BZ
308570020308570133-000010-A   308570006001023997647CLEANING CLOTH ROLL 30 0000001000+00003507+00000+0001T   00003507+0000001333          1400 J64212               3BZ
308570021308570006-000114     308570006003000671939BALLOONS W/BOMBS 100PCE0000001000+00001753+00000+0001T   00001753+0000001333          1400 J64131               3BZ
308570022308570027-077605     308570006001023997678STEELWOOL PADS 12PC 72g0000001000+00001753+00000+0001T   00001753+0000001333          1400 J64212               3BZ
308571000308571               308571               170213BN     1400+00000+BN0000009238+0000009238+000000000+000001296+0000010534+0000000000+I40000010534+0000000000+Z
308571001308571304-001140     308571006003000679010FLOWER MINI MOSS 40G   0000001000+00001753+00000+0001T   00001753+0000001335          1400 J64510               3BZ
308571002308571220-009144     308571006001023706881ROSE DESS-FORKS 4PCE   0000001000+00002630+00000+0001T   00002630+0000001335          1400 J64300               3BZ
308571003308571019-071595     308571006001023756428PEBBLES 250g SKY-BLUE  0000001000+00001753+00000+0001T   00001753+0000001335          1400 J64510               3BZ
308571004308571304-001015     308571006001023842992FLOWER ROSE 63CM  (D)  0000001000+00001314+00000+0001T   00001753+0008181335          1400 J64510               3BZ
308571005308571015-000100     308571006001023821683WHITEWARE CUP+SAUCER   0000001000+00001753+00000+0001T   00001753+0000001335          1400 J64515               3BZ
308571006308571112-116038     308571006009681820246TCS CARRIER BAG MIDI   0000001000+00000035+00000+0001T   00000035+0000001335          1400 J64090               3BZ
308572000308572               308572               170213BN     1400+00000+BN0000008416+0000008416+000000000+000001180+0000009590+0000000006+I20000000000+0000009590+Z
308572001308572150-000024     308572006001023435217BASIN-PLUG RUBBER/CHR  0000004000+00002104+00000+0001T   00002104+0000001338          1400 J64810               3BZ
308573000308573               308573               170213BN     1400+00000+BN0000001139+0000001139+000000000+000000160+0000001290+0000000009+I20000000000+0000001290+Z
308573001308573903-000709     308573006002099007070SWT QUENCHERS FRUIT    0000001000+00001139+00000+0001T   00001139+0000001338          1400 J64150               3BZ
308574000308574               308574               170213BN     1400+00000+BN0000011402+0000011402+000000000+000001597+0000012990+0000000009+I20000000000+0000012990+Z
308574001308574105-009015     308574006002923000031STORAGE BOX 32L FROSTED0000001000+00011402+00000+0001T   00011402+0000001339          1400 J64210               3BZ
308575000308575               308575               170213BN     1400+00000+BN0000007926+0000007926+000000000+000001111+0000009030+0000000007+I20000000000+0000009030+Z
308575001308575567-014135     308575006003000560264BOOK COLOURING 240P    0000001000+00003069+00000+0001T   00003507+0008191340          1400 J64757               3BZ
308575002308575024-000010     308575006001023770301CAKE-LIFTER S/S H/HOUSE0000001000+00003069+00000+0001T   00003069+0000001340          1400 J64300               3BZ
308575003308575204-083002     308575006008766083002M/HOLD BUTTERFLIES 4PCE0000001000+00001753+00000+0001T   00001753+0000001340          1400 J64300               3BZ
308575004308575112-116038     308575006009681820246TCS CARRIER BAG MIDI   0000001000+00000035+00000+0001T   00000035+0000001340          1400 J64090               3BZ
308576000308576               308576               170213BN     1400+00000+BN0000029333+0000029333+000000000+000004112+0000033445+0000000000+I40000033445+0000000000+Z
308576001308576006-006018     308576006001023735256PARTY-SPRAY HAIR ASSORT0000001000+00002630+00000+0001T   00002630+0000001346          1400 J64131               3BZ
308576002308576106-001107     308576006003000467242WATER BOTTLE 1L RUBBER 0000001000+00002630+00000+0001T   00002630+0000001346          1400 J64210               3BZ
308576003308576006-006018     308576006001023735256PARTY-SPRAY HAIR ASSORT0000001000+00002630+00000+0001T   00002630+0000001346          1400 J64131               3BZ
308576004308576266-008043     308576006003000474134BOYS FIG. P/SET 55pc   0000001000+00007016+00000+0001T   00007016+0000001346          1400 J64710               3BZ
308576005308576266-000570     308576006001023830944FIGURINE KNIGHT & HORSE0000001000+00004385+00000+0001T   00004385+0000001346          1400 J64710               3BZ
308576006308576072-020259     308576006001023602664DOG-CHEW BONE 10cm 2PCE0000001000+00003507+00000+0001T   00003507+0000001346          1400 J64870               3BZ
308576007308576030-083575     308576006001023817648THERMOMETER DOLPHIN    0000001000+00002104+00000+0001T   00002104+0000001346          1400 J64505               3BZ
308576008308576204-000015     308576006001023998859M/HLDER DOG & CAT POLY 0000001000+00002630+00000+0001T   00002630+0000001346          1400 J64300               3BZ
308576009308576072-020347     308576006001023858627PET GROOMING-GLOVE     0000001000+00001753+00000+0001T   00001753+0000001346          1400 J64870               3BZ
308576010308576112-116069     308576006009681820277TCS CARRIER BAG JUMBO  0000001000+00000048+00000+0001T   00000048+0000001346          1400 J64090               3BZ
308577000308577               308577               170213BN     1400+00000+BN0000002630+0000002630+000000000+000000369+0000002999+0000000000+I40000002999+0000000000+Z
308577001308577206-000620     308577006003000631797BACK SCRATCHER EXTEND  0000001000+00002630+00000+0001T   00002630+0000001348          1400 J64321               3BZ
308578000308578               308578               170213BN     1400+00000+BN0000021915+0000021915+000000000+000003077+0000024992+0000000000+I40000024992+0000000000+Z
308578001308578174-000001     308578006001023759412SHOE/CLOTHES-STORER    0000001000+00007893+00000+0001T   00007893+0000001354          1400 J64205               3BZ
308578002308578077-000150-D   308578006003000054343GIFT-WRAP CELLPHANE CLR0000001000+00000876+00000+0001T   00000876+0000001354          1400 J64112               3BZ
308578003308578113-000001     308578006003000088690TRAVEL MUG 400ml S/S   0000001000+00003507+00000+0001T   00003507+0000001354          1400 J64305               3BZ
308578004308578027-783002     308578006001023874658SCOURERS FOAM PACK OF 30000001000+00001490+00000+0001T   00001490+0000001354          1400 J64212               3BZ
308578005308578142-000814     308578006001023183910GLOVES RUBBER  MEDIUM  0000001000+00001753+00000+0001T   00001753+0000001354          1400 J64810               3BZ
308578006308578486-000001     308578006001023507969ALARM-CLOCK SQ ASS     0000001000+00002630+00000+0001T   00002630+0000001354          1400 J64510               3BZ
308578007308578001-000001     308578006001023507266SHOT-GLASS 25ml        0000005000+00000393+00000+0001T   00000393+0000001354          1400 J64515               3BZ
308578008308578112-116069     308578006009681820277TCS CARRIER BAG JUMBO  0000001000+00000048+00000+0001T   00000048+0000001354          1400 J64090               3BZ
308578009308578051-500115     308578006003000528059GARDEN KID SPRAY BOTTLE0000001000+00001753+00000+0001T   00001753+0000001354          1400 J64820               3BZ
308579000308579               308579               170213BN     1400+00000+BN0000001578+0000001578+000000000+000000221+0000001790+0000000009+I20000000000+0000001790+Z
308579001308579080-000124     308579006003000297733CARD & ENV VALENTINES  0000001000+00001578+00000+0001T   00001578+0000001355          1400 J64112               3BZ
308580000308580               308580               170213BN     1400+00000+BN0000011746+0000011746+000000000+000001647+0000013390+0000000003+I20000000000+0000013390+Z
308580001308580077-000315     308580006003000181186GIFT-BAG 20x28cm MATT  0000003000+00001578+00000+0001T   00001578+0000001356          1400 J64112               3BZ
308580002308580077-000316     308580006001023609731GIFT-BAG 25X32CM MATT  0000004000+00001753+00000+0001T   00001753+0000001356          1400 J64112               3BZ
308581000308581               308581               170213BN     1400+00000+BN0000011654+0000011654+000000000+000001634+0000013280+0000000008+I20000000000+0000013280+Z
308581001308581006-001000     308581006003000093779HELIUM BALLOON FILL    0000008000+00000613+00000+0001T   00000613+0000001409          1400 J64131               3BZ
308581002308581006-000166-C   308581006003000516377BALLOONS LRG 6PC PINK  0000001000+00001314+00000+0001T   00001314+0000001409          1400 J64131               3BZ
308581003308581006-000190     308581006003000685530BALLOONS LOVE 81x91cm  0000001000+00004385+00000+0001T   00004385+0000001409          1400 J64131               3BZ
308581004308581079-009702-D   308581008427973059354PAPER SIRIO A2 RED COL 0000001000+00001051+00000+0001T   00001051+0000001409          1400 J64130               3BZ
308582000308582               308582               170213BN     1400+00000+BN0000017651+0000017651+000000000+000002477+0000020128+0000000000+I40000020128+0000000000+Z
308582001308582079-013032-C   308582006003000389520POLY SHAPES            0000002000+00001578+00000+0001T   00001578+0000001417          1400 J64130               3BZ
308582002308582366-002799     308582006003000648238DRESSUP S/ADH FACE HAIR0000001000+00001753+00000+0001T   00001753+0000001417          1400 J64131               3BZ
308582003308582903-000503     308582006001704006118SWT VAMPIRE FANGS 60G  0000001000+00000876+00000+0001T   00000876+0000001417          1400 J64150               3BZ
308582004308582079-003002     308582006003000447886A/TUBE 75ML RED        0000001000+00001753+00000+0001T   00001753+0000001417          1400 J64130               3BZ
308582005308582112-116038     308582006009681820246TCS CARRIER BAG MIDI   0000001000+00000035+00000+0001T   00000035+0000001417          1400 J64090               3BZ
308582006308582903-002851     308582000000087108538MENTOS ROLL STRAWBERRY 0000001000+00001051+00000+0001T   00001051+0000001417          1400 J64150               3BZ
308582007308582903-000007     308582000028000688776SWT LAFFY TAFFY 23G    0000003000+00001139+00000+0001T   00001139+0000001417          1400 J64150               3BZ
308582008308582200-003024     308582006001023657299REFUSE BAGS 20PCE BLACK0000002000+00001753+00000+0001T   00001753+0000001417          1400 J64214               3BZ
308582009308582903-000090     308582006009826020821SWT GS CHOCO COINS 60g 0000001000+00002104+00000+0001T   00002104+0000001417          1400 J64150               3BZ
308583000308583               308583               170213BN     1400+00000+BN0000000008+0000000008+000000000+000000001+0000000000+0000000009+I20000000000+0000000000+Z
308583001308583046-000012-VP  308583006003000537914BATTERIES H/P SIZE:AA  0000001000+00004823+00000+0001T   00004823+0000001421          1400 J64312               3AZ
308583002308583001-999902     308583000000000999902MAINTENANCE+REPAIR-EQP 0000001000-00004815+00000+0001T   00000000+0000001421          1400 J649021IC            3 Z
308584000308584               308584               170213BN     1400+00000+BN0000006578+0000006578+000000000+000000921+0000007490+0000000009+I20000000000+0000007490+Z
308584001308584486-002065     308584006003000057030C/ALARM QTZ PL SQUARE  0000001000+00006578+00000+0001T   00006578+0000001429          1400 J64510               3BZ
308585000308585               308585               170213BN     1400+00000+BN0000003945+0000003945+000000000+000000553+0000004498+0000000000+I40000004498+0000000000+Z
308585001308585080-000127     308585006003000424351VALENTINES DAY 36x24CM 0000001000+00002192+00000+0001T   00002192+0000001431          1400 J64112               3BZ
308585002308585159-000636     308585006003000036035BATH PUMICE,BRUSH,FILE 0000001000+00001753+00000+0001T   00001753+0000001431          1400 J64200               3BZ
308586000308586               308586               170213BN     1400+00000+BN0000003507+0000003507+000000000+000000491+0000003990+0000000008+I20000000000+0000003990+Z
308586001308586306-000004     308586006003000622177THOOTH DENTAL SOFT TIP 0000001000+00003507+00000+0001T   00004385+0008171431          1400 J64200               3BZ
308587000308587               308587               170213BN     1400+00000+BN0000026260+0000026260+000000000+000003680+0000029940+0000000000+I40000029940+0000000000+Z
308587001308587112-116069     308587006009681820277TCS CARRIER BAG JUMBO  0000001000+00000048+00000+0001T   00000048+0000001439          1400 J64090               3BZ
308587002308587903-000071     308587006001704001120SWT TOFFEE LIQURICE 35g0000002000+00000700+00000+0001T   00000700+0000001439          1400 J64150               3BZ
308587003308587046-000012-A   308587006003000208296BATTERIES H/POWER SZ:AA0000001000+00002192+00000+0001T   00002192+0000001439          1400 J64312               3BZ
308587004308587903-000111     308587006001704006378SWT LIQUORICE-TWISTS   0000001000+00001227+00000+0001T   00001227+0000001439          1400 J64150               3BZ
308587005308587903-000889     308587006009702259192SWT GUM BEECHIES S/MINT0000001000+00000788+00000+0001T   00000788+0000001439          1400 J64150               3BZ
308587006308587251-000070     308587006003000451777PROTECTION-PADS BLK ADH0000001000+00001753+00000+0001T   00001753+0000001439          1400 J64810               3BZ
308587007308587200-000020     308587006925406841030BAG ZIPPERSEAL 25PC    0000001000+00002192+00000+0001T   00002192+0000001439          1400 J64214               3BZ
308587008308587027-785000     308587006003000630905CLEANING WIPES 40-PACK 0000001000+00002630+00000+0001T   00002630+0000001439          1400 J64212               3BZ
308587009308587004-071212     308587006003000438129LAPTOP STAND ADJUSTABLE0000001000+00003507+00000+0001T   00003507+0000001439          1400 J64310               3BZ
308587010308587039-000799     308587006001023692382CANDLES TEALITE 100PCE 0000001000+00008771+00000+0001T   00008771+0000001439          1400 J64510               3BZ
308587011308587903-000297     308587006001704002950SWT MS WILD BERRY 50G  0000002000+00000876+00000+0001T   00000876+0000001439          1400 J64150               3BZ
308588000308588               308588               170213BN     1400+00000+BN0000008750+0000008750+000000000+000001235+0000009985+0000000000+I40000009985+0000000000+Z
308588001308588077-000150-D   308588006003000054343GIFT-WRAP CELLPHANE CLR0000005000+00000876+00000+0001T   00000876+0000001446          1400 J64112               3BZ
308588002308588080-000133-A   308588006003000647019MINI VALENTINES CARD   0000002000+00000437+00000+0001T   00000437+0000001446          1400 J64112               3BZ
308588003308588080-000133     308588006003000535613CARD&ENV MINI ASTD DSGN0000001000+00000437+00000+0001T   00000437+0000001446          1400 J64112               3BZ
308588004308588080-000133-A   308588006003000647019MINI VALENTINES CARD   0000001000+00000437+00000+0001T   00000437+0000001446          1400 J64112               3BZ
308588005308588080-000133     308588006003000535613CARD&ENV MINI ASTD DSGN0000002000+00000437+00000+0001T   00000437+0000001446          1400 J64112               3BZ
308588006308588080-000133-A   308588006003000647019MINI VALENTINES CARD   0000004000+00000437+00000+0001T   00000437+0000001446          1400 J64112               3BZ
308589000308589               308589               170213BN     1400+00000+BN0000003067+0000003067+000000000+000000430+0000003490+0000000007+I20000000000+0000003490+Z
308589001308589251-000001     308589006001023487681TAPE DBL-SIDE 18x1000mm0000001000+00001314+00000+0001T   00001314+0000001446          1400 J64810               3BZ
308589002308589078-000026     308589006936198407090SUPERGLUE 3,0g GEL     0000001000+00001753+00000+0001T   00001753+0000001446          1400 J64810               3BZ
308590000308590               308590               170213BN     1400+00000+BN0000000613+0000000613+000000000+000000086+0000000690+0000000009+I20000000000+0000000690+Z
308590001308590007-000555     308590006001023848239MEMO-PAD MINI LOVE     0000001000+00000613+00000+0001T   00000613+0000001448          1400 J64130               3BZ
308591000308591               308591               170213BN     1400+00000+BN0000009851+0000009851+000000000+000001382+0000011230+0000000003+I20000000000+0000011230+Z
308591001308591006-000190     308591006003000685530BALLOONS LOVE 81x91cm  0000001000+00004385+00000+0001T   00004385+0000001459          1400 J64131               3BZ
308591002308591006-000111     308591006003000519385BALLOONS LARGE 12PCE   0000001000+00002630+00000+0001T   00002630+0000001459          1400 J64131               3BZ
308591003308591903-000155     308591006009803374435SWT LOLLY I LUV U HEART0000003000+00000525+00000+0001T   00000525+0000001459          1400 J64150               3BZ
308591004308591006-001000     308591006003000093779HELIUM BALLOON FILL    0000002000+00000613+00000+0001T   00000613+0000001459          1400 J64131               3BZ
308591005308591112-116038     308591006009681820246TCS CARRIER BAG MIDI   0000001000+00000035+00000+0001T   00000035+0000001459          1400 J64090               3BZ
308592000308592               308592               170213BN     1400+00000+BN0000004241+0000004241+000000000+000000595+0000004830+0000000006+I20000000000+0000004830+Z
308592001308592071-005213     308592006001023690371CELLOTAPE 12mmx33m     0000001000+00000876+00000+0001T   00000876+0000001504          1400 J64130               3BZ
308592002308592077-000245     308592006001023759214GIFT-RIBBON METALLICx2 0000001000+00001227+00000+0001T   00001227+0000001504          1400 J64112               3BZ
308592003308592077-000239     308592006003000160419GIFT-RIBBON ROLL PEARL 0000001000+00001753+00000+0001T   00001753+0000001504          1400 J64112               3BZ
308592004308592007-000104     308592006009685854865BK COVER BRWN KRFT ROLL0000001000+00000350+00000+0001T   00000350+0000001504          1400 J64130               3BZ
308592005308592112-116038     308592006009681820246TCS CARRIER BAG MIDI   0000001000+00000035+00000+0001T   00000035+0000001504          1400 J64090               3BZ
308593000308593               308593               170213BN     1400+00000+BN0000010261+0000010261+000000000+000001437+0000011698+0000000000+I40000011698+0000000000+Z
308593001308593077-000299     308593006003000395576G/BAG 32x25cm LRG LOVE 0000001000+00001490+00000+0001T   00001490+0000001508          1400 J64112               3BZ
308593002308593001-091415     308593006003000329113W/GLS OCC. LOVE 2PC 2800000001000+00008771+00000+0001T   00009648+0006471508          1400 J64515               3BZ
308594000308594               308594               170213BN     1400+00000+BN0000004032+0000004032+000000000+000000565+0000004590+0000000007+I20000000000+0000004590+Z
308594001308594266-001302     308594006001023331892MARBLES 16MM 45PC      0000002000+00001227+00000+0001T   00001227+0000001509          1400 J64710               3BZ
308594002308594266-001303     308594006001023560698MARBLES 25MM 10PC GOONS0000001000+00001578+00000+0001T   00001578+0000001509          1400 J64710               3BZ
308595000308595               308595               170213BN     1400+00000+BN0000001752+0000001752+000000000+000000246+0000001998+0000000000+I40000001998+0000000000+Z
308595001308595567-014132     308595006003000560028BOOK COLOURING 24 PAGE 0000002000+00000876+00000+0001T   00000876+0000001510          1400 J64757               3BZ
308596000308596               308596               170213BN     1400+00000+BN0000010523+0000010523+000000000+000001474+0000011997+0000000000+I40000011997+0000000000+Z
308596001308596103-000472     308596006003000631049FLOWER BASKET W/HANDLE 0000001000+00003507+00000+0001T   00003507+0000001516          1400 J64300               3BZ
308596002308596366-000105     308596006001023866103DRESSUP WINGS AND SKIRT0000001000+00007016+00000+0001T   00007016+0000001516          1400 J64131               3BZ
308597000308597               308597               170213BN     1400+00000+BN0000002630+0000002630+000000000+000000369+0000002990+0000000009+I20000000000+0000002990+Z
308597001308597046-000011-A   308597006003000438891BATTERIES SIZE:AA  4PCE0000001000+00002630+00000+0001T   00002630+0000001516          1400 J64312               3BZ
308598000308598               308598               170213BN     1400+00000+BN0000002629+0000002629+000000000+000000369+0000002990+0000000008+I20000000000+0000002990+Z
308598001308598001-000168     308598008992787110268TUMBLER 340ml ZOMBI    0000001000+00000876+00000+0001T   00000876+0000001519          1400 J64515               3BZ
308598002308598200-003024     308598006001023657299REFUSE BAGS 20PCE BLACK0000001000+00001753+00000+0001T   00001753+0000001519          1400 J64214               3BZ
308599000308599               308599               170213BN     1400+00000+BN0000027211+0000027211+000000000+000003812+0000031023+0000000000+I40000031023+0000000000+Z
308599001308599566-001234     308599006003000217793STICKERS LASER ASSTD   0000002000+00001578+00000+0001T   00001578+0000001521          1400 J64130               3BZ
308599002308599566-001012     308599006001023528070STICKERS GLOW IN DARK  0000001000+00001314+00000+0001T   00001314+0000001521          1400 J64130               3BZ
308599003308599028-085274     308599006001023641571BBQ LIGHTER         H&L0000001000+00002192+00000+0001T   00002192+0000001521          1400 J64305               3BZ
308599004308599039-080942     308599006001023669872C/PILLAR RND WHT 10X7CM0000001000+00003507+00000+0001T   00003507+0000001521          1400 J64510               3BZ
308599005308599039-000114     308599006001023524058CANDLE T/LITE RED 3.5CM0000002000+00001753+00000+0001T   00001753+0000001521          1400 J64510               3BZ
308599006308599039-080942     308599006001023669872C/PILLAR RND WHT 10X7CM0000003000+00003507+00000+0001T   00003507+0000001521          1400 J64510               3BZ
308599007308599039-000108     308599006001023524034TEA-LITE CANDLES 8PCE  0000002000+00001490+00000+0001T   00001490+0000001521          1400 J64510               3BZ
308599008308599112-116038     308599006009681820246TCS CARRIER BAG MIDI   0000001000+00000035+00000+0001T   00000035+0000001521          1400 J64090               3BZ
308600000308600               308600               170213BN     1400+00000+BN0000002192+0000002192+000000000+000000307+0000002490+0000000009+I20000000000+0000002490+Z
308600001308600304-001207     308600006003000466610FLOWER MINI SUNFLOWER  0000001000+00002192+00000+0001T   00002192+0000001523          1400 J64510               3BZ
308601000308601               308601               170213BN     1400+00000+BN0000002629+0000002629+000000000+000000369+0000002990+0000000008+I20000000000+0000002990+Z
308601001308601366-007601     308601006003000655472DRESS UP MASK THEATRICA0000001000+00000876+00000+0001T   00000876+0000001523          1400 J64131               3BZ
308601002308601903-000211     308601006002099001238SWT GS MALLOW ICE CREAM0000001000+00001753+00000+0001T   00001753+0000001523          1400 J64150               3BZ
308602000308602               308602               170213BN     1400+00000+BN0000018669+0000018669+000000000+000002615+0000021284+0000000000+I40000021284+0000000000+Z
308602001308602368-000665     308602006003000169016PLUSH BEAR 30cm        0000001000+00008771+00000+0001T   00008771+0000001527          1400 J64745               3BZ
308602002308602089-000018     308602006003000176724KEY CHAIN INSPIRATION  0000001000+00003507+00000+0001T   00003507+0000001527          1400 J64205               3BZ
308602003308602077-000303     308602006001023593757GIFT-BAG PAPER MED     0000001000+00001578+00000+0001T   00001578+0000001527          1400 J64112               3BZ
308602004308602030-000031-A   308602006003000457588PLAQUE W/WORDS ASSTD   0000001000+00004385+00000+0001T   00004823+0006471527          1400 J64505               3BZ
308602005308602903-000183     308602006003000451043SWT LB HEART LOLLY     0000001000+00000393+00000+0001T   00000393+0000001527          1400 J64150               3BZ
308602006308602112-116038     308602006009681820246TCS CARRIER BAG MIDI   0000001000+00000035+00000+0001T   00000035+0000001527          1400 J64090               3BZ
308603000308603               308603               170213BN     1400+00000+BN0000004385+0000004385+000000000+000000614+0000004999+0000000000+I40000004999+0000000000+Z
308603001308603072-000606     308603006001023858566DOG-COLLAR+LEAD        0000001000+00004385+00000+0001T   00004385+0000001528          1400 J64870               3BZ
308604000308604               308604               170213BN     1400+00000+BN0000006749+0000006749+000000000+000000946+0000007690+0000000005+I20000000000+0000007690+Z
308604001308604071-000672     308604006003000138975STATIONERY CLIPS PAPER 0000001000+00002192+00000+0001T   00002192+0000001530          1400 J64130               3BZ
308604002308604200-000065     308604006001023323675DRINKING-STRAWS 38PCE  0000001000+00000613+00000+0001T   00000613+0000001530          1400 J64214               3BZ
308604003308604566-000202     308604006003000443567STCKRS SPARKLE RIM ASST0000001000+00001314+00000+0001T   00001314+0000001530          1400 J64130               3BZ
308604004308604566-000006     308604006001023671189STICKER-BOOK DRESS-UP  0000001000+00002630+00000+0001T   00002630+0000001530          1400 J64130               3BZ
A17021300                                          09255381BNSLAVE 3                       J642IC
A17021301                                          09275226BNSLAVE 3                       J643IC
M17021391                              CASH        BNSLAVE 3                       Z-REPORT No.   548TOTAL (Sales - Refunds)           7885.38       CASH TO BE BANKED                 2765.00       DEBIT CARDS                          0.00       CREDIT CARDS                      5065.30       Z-READING                         7830.30       AIRTIME DEBIT CARD SALES             0.00       AIRTIME CARD SALES                   0.00       OVERS/UNDERS                         0.00       AIRTIME CASH SALES                   0.00       GIFT CARDS                           0.00       GIFT CARD CASH SALES                 0.00       MAINTENANCE+REPAIR-EQP              54.90       ROUNDING                             0.09       T O T A L  CASH PAYOUTS             54.99                                                                                                                                                                                                                                                      Z
M17021392                              CASH        BNABSENT                                                                                                                                                                                          ANNUAL LEAVE                                                                                                                                                                                    DAY OFF                                                                                                                                                                                         COMMENTS                                                                                                                                                                                                                                                                                                                                                                                       Z
Y17021300                                          BN00000000691964+000092
ZBN17021321033 SLAVE 3      SALES DATA                     NEXT INVOICE NO.  308605 0548
X BN Slave 3 First invoice 308513 170213 Last invoice 308604 170213 Next invoice 308605 Total number of records 000000378 clbackup completed 21:03:59
