103155000103155               103155               170213BO     1400+00000+BO0000002192+0000002192+000000000+000000307+0000002490+0000000009+I20000000000+0000002490+Z
103155001103155080-000127     103155006003000424351VALENTINES DAY 36x24CM 0000001000+00002192+00000+0001T   00002192+0000000914          1400 HW7112               1AZ
103156000103156               103156               170213BO     1400+00000+BO0000003769+0000003769+000000000+000000529+0000004298+0000000000+I40000004298+0000000000+Z
103156001103156050-000362-Z   103156006001023475275PADLOCK IRON 25mm CARD 0000001000+00002016+00000+0001T   00002016+0000000921          1400 HW7855               1AZ
103156002103156004-078985     103156006003000093267EARPHONES MINI ASST COL0000001000+00001753+00000+0001T   00001753+0000000921          1400 HW7310               1AZ
103157000103157               103157               170213BO     1400+00000+BO0000027925+0000027925+000000000+000003916+0000031841+0000000000+I40000031841+0000000000+Z
103157001103157106-001118     103157006009654960320WATER BOTTLE PL 500ml  0000001000+00002016+00000+0001T   00002016+0000000942          1400 HW7210               1AZ
103157002103157105-001066     103157006003000630912CONTAINER CLIP LOCK    0000002000+00001490+00000+0001T   00001490+0000000942          1400 HW7210               1AZ
103157003103157106-001118     103157006009654960320WATER BOTTLE PL 500ml  0000001000+00002016+00000+0001T   00002016+0000000942          1400 HW7210               1AZ
103157004103157105-003027     103157006001023114129CONTAINERS PL MINI 4PC 0000001000+00003507+00000+0001T   00004385+0008160942          1400 HW7210               1AZ
103157005103157105-001066     103157006003000630912CONTAINER CLIP LOCK    0000001000+00001490+00000+0001T   00001490+0000000942          1400 HW7210               1AZ
103157006103157105-001005     103157006001023858214CONTAINERS MINI 6PCE   0000001000+00001402+00000+0001T   00001402+0000000942          1400 HW7210               1AZ
103157007103157105-001247     103157006003000623310CONTAINER RECT 3PCE    0000001000+00002630+00000+0001T   00002630+0000000942          1400 HW7210               1AZ
103157008103157079-006496     103157006003000160105GLITTER SHAKERS        0000002000+00001753+00000+0001T   00001753+0000000942          1400 HW7130               1AZ
103157009103157566-000068     103157006003000418046POP UP LOVE 2 ASSTD    0000001000+00002192+00000+0001T   00002192+0000000942          1400 HW7130               1AZ
103157010103157564-001028     103157006001023708663BUBBLE CELEBRATION 6ml 0000002000+00003069+00000+0001T   00003069+0000000942          1400 HW7131               1AZ
103157011103157112-116069     103157006009681820277TCS CARRIER BAG JUMBO  0000001000+00000048+00000+0001T   00000048+0000000942          1400 HW7090               1AZ
103158000103158               103158               170213BO     1400+00000+BO0000002630+0000002630+000000000+000000369+0000002990+0000000009+I20000000000+0000002990+Z
103158001103158560-000202     103158006003000322008SNAKE PVC ASSTD        0000001000+00002630+00000+0001T   00002630+0000000947          1400 HW7745               1AZ
103159000103159               103159               170213BO     1400+00000+BO0000003506+0000003506+000000000+000000492+0000003990+0000000008+I20000000000+0000003990+Z
103159001103159162-087876     103159006001492878768#TAG 2PK HEADBANDS     0000001000+00000876+00000+0001T   00001753+0008160952          1400 HW7160               1AZ
103159002103159106-008100     103159006001023764126MEASURING-SHAKER 500ml 0000001000+00002630+00000+0001T   00002630+0000000952          1400 HW7210               1AZ
103160000103160               103160               170213BO     1400+00000+BO0000003542+0000003542+000000000+000000496+0000004030+0000000008+I20000000000+0000004030+Z
103160001103160369-000035     103160006001023795885EDU STACKING-SET ASSTD 0000001000+00003507+00000+0001T   00003507+0000000955          1400 HW7745               1AZ
103160002103160027-783000     103160006001023874641SCOURERS RAINBOW 5PCE  0000001000+00001753+00000+0001T   00001753+0000000955          1400 HW7212               1AZ
103160003103160084-091590     103160006003000092864FOOT FILE 17cm         0000001000-00001753+00000+0001T   00001753+0000000955          1400 HW72002IC            1 Z
103160004103160112-116038     103160006009681820246TCS CARRIER BAG MIDI   0000001000+00000035+00000+0001T   00000035+0000000955          1400 HW7090               1AZ
103161000103161               103161               170213BO     1400+00000+BO0000002192+0000002192+000000000+000000307+0000002490+0000000009+I20000000000+0000002490+Z
103161001103161566-000359     103161006003000582709STICKER BOOK LOVE SPARK0000001000+00002192+00000+0001T   00002192+0000001003          1400 HW7130               1AZ
103162000103162               103162               170213BO     1400+00000+BO0000003506+0000003506+000000000+000000492+0000003998+0000000000+I40000003998+0000000000+Z
103162001103162361-000127     103162006003000602216DOLL SML 15cm MERMAID  0000002000+00001753+00000+0001T   00001753+0000001007          1400 HW7725               1AZ
103163000103163               103163               170213BO     1400+00000+BO0000007454+0000007454+000000000+000001044+0000008498+0000000000+I40000008498+0000000000+Z
103163001103163018-019000     103163006003000557288MUG OCC. LOVE JUMBO    0000001000+00005262+00000+0001T   00005262+0000001015          1400 HW7515               1AZ
103163002103163018-000170     103163006001023775528MUG OCC. LOVE 2PC MINI 0000001000+00002192+00000+0001T   00002192+0000001015          1400 HW7515               1AZ
103164000103164               103164               170213BO     1400+00000+BO0000003542+0000003542+000000000+000000496+0000004030+0000000008+I20000000000+0000004030+Z
103164001103164301-085004     103164006003000420469ORN LOVE PLAQUE 21X10CM0000001000+00003507+00000+0001T   00003946+0006471016          1400 HW7505               1AZ
103164002103164112-116038     103164006009681820246TCS CARRIER BAG MIDI   0000001000+00000035+00000+0001T   00000035+0000001016          1400 HW7090               1AZ
103165000103165               103165               170213BO     1400+00000+BO0000002803+0000002803+000000000+000000394+0000003190+0000000007+I20000000000+0000003190+Z
103165001103165077-000382     103165006003000247820GIFT-BAG MED 18X23CM   0000001000+00001753+00000+0001T   00001753+0000001018          1400 HW7112               1AZ
103165002103165304-001011     103165006001023806727FLWR ROSE RED W/BEAR   0000001000+00000613+00000+0001T   00000788+0006471018          1400 HW7510               1AZ
103165003103165080-000133-A   103165006003000647019MINI VALENTINES CARD   0000001000+00000437+00000+0001T   00000437+0000001018          1400 HW7112               1AZ
103166000103166               103166               170213BO     1400+00000+BO0000000035+0000000035+000000000+000000005+0000000040+0000000000+I20000000000+0000000040+Z
103166001103166112-116038     103166006009681820246TCS CARRIER BAG MIDI   0000001000+00000035+00000+0001T   00000035+0000001019          1400 HW7090               1AZ
103167000103167               103167               170213BO     1400+00000+BO0000002279+0000002279+000000000+000000320+0000002590+0000000009+I20000000000+0000002590+Z
103167001103167027-001020     103167006001246602519BROOM FLOOR W/HANDLE   0000001000+00002279+00000+0001T   00002279+0000001022          1400 HW7212               1AZ
103168000103168               103168               170213BO     1400+00000+BO0000001751+0000001751+000000000+000000246+0000001990+0000000007+I20000000000+0000001990+Z
103168001103168077-000310     103168006001023608635GIFT-BAG 18X23CM GLOSS 0000001000+00001314+00000+0001T   00001314+0000001030          1400 HW7112               1AZ
103168002103168080-000133-A   103168006003000647019MINI VALENTINES CARD   0000001000+00000437+00000+0001T   00000437+0000001030          1400 HW7112               1AZ
103169000103169               103169               170213BO     1400+00000+BO0000008329+0000008329+000000000+000001167+0000009490+0000000006+I20000000000+0000009490+Z
103169001103169039-000100     10316900600300060614625CM WHITE CANDLE 6PC  0000001000+00002630+00000+0001T   00002630+0000001049          1400 HW7510               1AZ
103169002103169028-085274     103169006001023641571BBQ LIGHTER         H&L0000001000+00002192+00000+0001T   00002192+0000001049          1400 HW7305               1AZ
103169003103169039-091794     103169006001023655875C/SET 6PC 16G RED-HEART0000001000+00003507+00000+0001T   00003507+0000001049          1400 HW7510               1AZ
103170000103170               103170               170213BO     1400+00000+BO0000003069+0000003069+000000000+000000430+0000003490+0000000009+I20000000000+0000003490+Z
103170001103170105-002005     103170006001023803108LUNCH BOX SQUARE 12x7cm0000001000+00003069+00000+0001T   00003069+0000001050          1400 HW7210               1AZ
103171000103171               103171               170213BO     1400+00000+BO0000004120+0000004120+000000000+000000578+0000004690+0000000008+I20000000000+0000004690+Z
103171001103171034-078833     103171006001023857491SIGN BABY-ON-BOARD     0000001000+00001490+00000+0001T   00001490+0000001055          1400 HW7215               1AZ
103171002103171369-000235     103171006001023857194LEARNING-LINKS 12PCE   0000001000+00002630+00000+0001T   00002630+0000001055          1400 HW7745               1AZ
103172000103172               103172               170213BO     1400+00000+BO0000002630+0000002630+000000000+000000369+0000002990+0000000009+I20000000000+0000002990+Z
103172001103172071-030012     103172006003000283842PEN NVLTY GLITTER 6PC  0000001000+00002630+00000+0001T   00002630+0000001055          1400 HW7130               1AZ
103173000103173               103173               170213BO     1400+00000+BO0000002892+0000002892+000000000+000000406+0000003290+0000000008+I20000000000+0000003290+Z
103173001103173903-000087     103173006001704000161SWT SPECKLED-EGGS 50G  0000001000+00001139+00000+0001T   00001139+0000001057          1400 HW7150               1AZ
103173002103173080-000111     103173006003000252695CARD&ENVELPE - MUSICAL 0000001000+00001753+00000+0001T   00001753+0000001057          1400 HW7112               1AZ
103174000103174               103174               170213BO     1400+00000+BO0000002192+0000002192+000000000+000000307+0000002490+0000000009+I20000000000+0000002490+Z
103174001103174566-000359     103174006003000582709STICKER BOOK LOVE SPARK0000001000+00002192+00000+0001T   00002192+0000001105          1400 HW7130               1AZ
103175000103175               103175               170213BO     1400+00000+BO0000001753+0000001753+000000000+000000246+0000001990+0000000009+I20000000000+0000001990+Z
103175001103175104-000020     103175006916920023026BASKET 25x14x10cm      0000001000+00001753+00000+0001T   00001753+0000001109          1400 HW7210               1AZ
103176000103176               103176               170213BO     1400+00000+BO0000004385+0000004385+000000000+000000614+0000004990+0000000009+I20000000000+0000004990+Z
103176001103176004-078900     103176006003000061655MICROPHONE O/F SWT 21cm0000001000+00004385+00000+0001T   00004385+0000001109          1400 HW7310               1AZ
103177000103177               103177               170213BO     1400+00000+BO0000004996+0000004996+000000000+000000701+0000005690+0000000007+I20000000000+0000005690+Z
103177001103177104-000131     103177006003000676996BASKET/ORGANISER ROUND 0000001000+00002630+00000+0001T   00002630+0000001114          1400 HW7210               1AZ
103177002103177077-000321     103177006001023677501GIFT-BAG 11X14CM E/D FL0000001000+00000613+00000+0001T   00000613+0000001114          1400 HW7112               1AZ
103177003103177142-000815     103177006001023183903GLOVES RUBBER LARGE    0000001000+00001753+00000+0001T   00001753+0000001114          1400 HW7810               1AZ
103178000103178               103178               170213BO     1400+00000+BO0000007923+0000007923+000000000+000001111+0000009030+0000000004+I20000000000+0000009030+Z
103178001103178080-000133     103178006003000535613CARD&ENV MINI ASTD DSGN0000002000+00000437+00000+0001T   00000437+0000001117          1400 HW7112               1AZ
103178002103178018-005009     103178006001023725608MUG W/PLUSH-BEAR LOVE  0000002000+00003507+00000+0001T   00003507+0000001117          1400 HW7515               1AZ
103178003103178112-116038     103178006009681820246TCS CARRIER BAG MIDI   0000001000+00000035+00000+0001T   00000035+0000001117          1400 HW7090               1AZ
103179000103179               103179               170213BO     1400+00000+BO0000000876+0000000876+000000000+000000123+0000000990+0000000009+I20000000000+0000000990+Z
103179001103179567-014132     103179006003000560028BOOK COLOURING 24 PAGE 0000001000+00000876+00000+0001T   00000876+0000001122          1400 HW7757               1AZ
103180000103180               103180               170213BO     1400+00000+BO0000001578+0000001578+000000000+000000221+0000001799+0000000000+I40000001799+0000000000+Z
103180001103180077-000303     103180006001023593757GIFT-BAG PAPER MED     0000001000+00001578+00000+0001T   00001578+0000001123          1400 HW7112               1AZ
103181000103181               103181               170213BO     1400+00000+BO0000002628+0000002628+000000000+000000368+0000002990+0000000006+I20000000000+0000002990+Z
103181001103181200-003019     103181006003000510856REFUSE BAGS 10PC D/STRN0000002000+00001314+00000+0001T   00001753+0008171129          1400 HW7214               1AZ
103182000103182               103182               170213BO     1400+00000+BO0000005296+0000005296+000000000+000000742+0000006038+0000000000+I40000006038+0000000000+Z
103182001103182112-116038     103182006009681820246TCS CARRIER BAG MIDI   0000001000+00000035+00000+0001T   00000035+0000001147          1400 HW7090               1AZ
103182002103182038-092233     103182006003000328925TABLE-MAT N/SLIP ASST  0000001000+00003069+00000+0001T   00003507+0008191147          1400 HW7300               1AZ
103182003103182200-000067     103182006003000330683STRAWS DRINKING 100PC  0000001000+00002192+00000+0001T   00002192+0000001147          1400 HW7214               1AZ
103183000103183               103183               170213BO     1400+00000+BO0000021833+0000021833+000000000+000003060+0000024893+0000000000+I40000024893+0000000000+Z
103183001103183006-000210-H   103183006003000430055PINK/BLUE CUPS 230g 6PC0000003000+00001490+00000+0001T   00001490+0000001214          1400 HW7131               1AZ
103183002103183006-005909     103183006003000081301PARTY FAVOUR STAR WAND 0000002000+00002192+00000+0001T   00002192+0000001214          1400 HW7131               1AZ
103183003103183162-093206     103183006001492932064#TAG KIDS 2PK A/BAND   0000001000+00004385+00000+0001T   00004385+0000001214          1400 HW7160               1AZ
103183004103183564-001028     103183006001023708663BUBBLE CELEBRATION 6ml 0000002000+00003069+00000+0001T   00003069+0000001214          1400 HW7131               1AZ
103183005103183071-081100-A   103183006003000326426GLUE-STICK 25g 2pk     0000001000+00001490+00000+0001T   00001490+0000001214          1400 HW7130               1AZ
103183006103183112-116069     103183006009681820277TCS CARRIER BAG JUMBO  0000001000+00000048+00000+0001T   00000048+0000001214          1400 HW7090               1AZ
103183007103183079-009700-H   103183006003000546039PAPER SIRIO A4 EARTH   0000003000+00000306+00000+0001T   00000306+0000001214          1400 HW7130               1AZ
103184000103184               103184               170213BO     1400+00000+BO0000009064+0000009064+000000000+000001271+0000010335+0000000000+I40000010335+0000000000+Z
103184001103184077-000303     103184006001023593757GIFT-BAG PAPER MED     0000001000+00001578+00000+0001T   00001578+0000001216          1400 HW7112               1AZ
103184002103184077-000005-D   103184006003000414567PAPER TISSUE 50x70cm   0000001000+00001753+00000+0001T   00001753+0000001216          1400 HW7112               1AZ
103184003103184566-000068     103184006003000418046POP UP LOVE 2 ASSTD    0000001000+00002192+00000+0001T   00002192+0000001216          1400 HW7130               1AZ
103184004103184007-000723     103184006003000226078MEMO BOOK W/PEN 100SHTS0000001000+00001753+00000+0001T   00001753+0000001216          1400 HW7130               1AZ
103184005103184071-003011     103184006001023762825PEN STICKBALL X10 ASSTD0000001000+00001753+00000+0001T   00001753+0000001216          1400 HW7130               1AZ
103184006103184112-116038     103184006009681820246TCS CARRIER BAG MIDI   0000001000+00000035+00000+0001T   00000035+0000001216          1400 HW7090               1AZ
103185000103185               103185               170213BO     1400+00000+BO0000007926+0000007926+000000000+000001110+0000009036+0000000000+I40000009036+0000000000+Z
103185001103185018-000170     103185006001023775528MUG OCC. LOVE 2PC MINI 0000002000+00002192+00000+0001T   00002192+0000001218          1400 HW7515               1AZ
103185002103185039-091794     103185006001023655875C/SET 6PC 16G RED-HEART0000001000+00003507+00000+0001T   00003507+0000001218          1400 HW7510               1AZ
103185003103185112-116038     103185006009681820246TCS CARRIER BAG MIDI   0000001000+00000035+00000+0001T   00000035+0000001218          1400 HW7090               1AZ
103186000103186               103186               170213BO     1400+00000+BO0000040559+0000040559+000000000+000005682+0000046241+0000000000+I40000046241+0000000000+Z
103186001103186301-085008     103186006003000673933ORN OCC.LOVE TINSEL HRT0000001000+00003069+00000+0001T   00003069+0000001221          1400 HW7505               1AZ
103186002103186082-007585     103186006003000654093SUNGLASS DESIGNER ASST 0000001000+00004385+00000+0001T   00004385+0000001221          1400 HW7160               1AZ
103186003103186082-098770     103186006001492987705SUNGLASS LADIES RECT   0000001000+00005262+00000+0001T   00005262+0000001221          1400 HW7160               1AZ
103186004103186077-000010-C   103186006001023123879CREPE-PAPER RED        0000001000+00000788+00000+0001T   00000788+0000001221          1400 HW7112               1AZ
103186005103186566-000068     103186006003000418046POP UP LOVE 2 ASSTD    0000001000+00002192+00000+0001T   00002192+0000001221          1400 HW7130               1AZ
103186006103186039-091794     103186006001023655875C/SET 6PC 16G RED-HEART0000001000+00003507+00000+0001T   00003507+0000001221          1400 HW7510               1AZ
103186007103186368-000637     103186006001023874092PLUSH BEAR SLEEPING LOV0000001000+00011402+00000+0001T   00012279+0006471221          1400 HW7745               1AZ
103186008103186112-116069     103186006009681820277TCS CARRIER BAG JUMBO  0000001000+00000048+00000+0001T   00000048+0000001221          1400 HW7090               1AZ
103186009103186077-000270     103186006003000395453GIFT-BAG PPR JMB 33X45 0000001000+00002630+00000+0001T   00002630+0000001221          1400 HW7112               1AZ
103186010103186089-060027     103186006003000245871KEY-CHAIN HEART 6X6cm  0000001000+00003069+00000+0001T   00003069+0000001221          1400 HW7205               1AZ
103186011103186082-098777     103186006001492987774SUNGLASS KIDS OVAL     0000001000+00003507+00000+0001T   00003507+0000001221          1400 HW7160               1AZ
103186012103186018-000177     103186006001023797513MUG MINI LOVE ASSTD    0000001000+00000700+00000+0001T   00000700+0000001221          1400 HW7515               1AZ
103187000103187               103187               170213BO     1400+00000+BO0000005259+0000005259+000000000+000000738+0000005990+0000000007+I20000000000+0000005990+Z
103187001103187200-003026     103187006003000276448REFUSE BAGS 10PCE GREEN0000003000+00001753+00000+0001T   00001753+0000001223          1400 HW7214               1AZ
103188000103188               103188               170213BO     1400+00000+BO0000001753+0000001753+000000000+000000246+0000001990+0000000009+I20000000000+0000001990+Z
103188001103188566-001228     103188006003000284153STICKERS CRYSTAL ASSTD 0000001000+00001753+00000+0001T   00001753+0000001226          1400 HW7130               1AZ
103189000103189               103189               170213BO     1400+00000+BO0000010960+0000010960+000000000+000001535+0000012490+0000000005+I20000000000+0000012490+Z
103189001103189567-004978     103189009780636049062TYB G06 MATHS          0000001000+00002192+00000+0001T   00002192+0000001230          1400 HW7757               1AZ
103189002103189567-004975     103189009780636049178SPF G05 WISKUNDE       0000001000+00002192+00000+0001T   00002192+0000001230          1400 HW7757               1AZ
103189003103189567-010394     103189006002242053459GENERIC AFRIKAANS READE0000001000+00002192+00000+0001T   00002192+0000001230          1400 HW7757               1AZ
103189004103189567-010395     103189006002242053466GENERIC AFRIKAANS READE0000001000+00002192+00000+0001T   00002192+0000001230          1400 HW7757               1AZ
103189005103189567-010393     103189006002242053442GENERIC AFRIKAANS READE0000001000+00002192+00000+0001T   00002192+0000001230          1400 HW7757               1AZ
103190000103190               103190               170213BO     1400+00000+BO0000003507+0000003507+000000000+000000491+0000003990+0000000008+I20000000000+0000003990+Z
103190001103190361-000664     103190006003000157402DOLL BIG EYE BEAUTY    0000001000+00003507+00000+0001T   00004385+0008191234          1400 HW7725               1AZ
103191000103191               103191               170213BO     1400+00000+BO0000007716+0000007716+000000000+000001081+0000008790+0000000007+I20000000000+0000008790+Z
103191001103191080-000113     103191006003000237449CARD&ENVLPE - LOVE     0000001000+00001753+00000+0001T   00001753+0000001236          1400 HW7112               1AZ
103191002103191006-000190     103191006003000685530BALLOONS LOVE 81x91cm  0000001000+00004385+00000+0001T   00004385+0000001236          1400 HW7131               1AZ
103191003103191080-000124     103191006003000297733CARD & ENV VALENTINES  0000001000+00001578+00000+0001T   00001578+0000001236          1400 HW7112               1AZ
103192000103192               103192               170213BO     1400+00000+BO0000009236+0000009236+000000000+000001295+0000010531+0000000000+I40000010531+0000000000+Z
103192001103192077-000011-E   103192006001023808646TISSUE-WRAP PINK 10PCE 0000002000+00000876+00000+0001T   00000876+0000001240          1400 HW7112               1AZ
103192002103192077-000011-C   103192006001023808523TISSUE 10xSHTS RED     0000002000+00000876+00000+0001T   00000876+0000001240          1400 HW7112               1AZ
103192003103192006-000167-C   103192006003000516971BALLOONS PINK METALLIC 0000001000+00001314+00000+0001T   00001314+0000001240          1400 HW7131               1AZ
103192004103192007-000324     10319200600968585864125 SHEETS BRIGHTS MARLI0000001000+00003507+00000+0001T   00003507+0000001240          1400 HW7130               1AZ
103192005103192077-000011-D   103192006001023808554TISSUE-WRAP WHITE 10PCE0000001000+00000876+00000+0001T   00000876+0000001240          1400 HW7112               1AZ
103192006103192112-116038     103192006009681820246TCS CARRIER BAG MIDI   0000001000+00000035+00000+0001T   00000035+0000001240          1400 HW7090               1AZ
103193000103193               103193               170213BO     1400+00000+BO0000007360+0000007360+000000000+000001033+0000008390+0000000003+I20000000000+0000008390+Z
103193001103193566-000006     103193006001023671189STICKER-BOOK DRESS-UP  0000001000+00002630+00000+0001T   00002630+0000001241          1400 HW7130               1AZ
103193002103193566-001228     103193006003000284153STICKERS CRYSTAL ASSTD 0000001000+00001753+00000+0001T   00001753+0000001241          1400 HW7130               1AZ
103193003103193079-009700-D   103193006003000545711PAPER SIRIO A4 RED COL.0000002000+00000306+00000+0001T   00000306+0000001241          1400 HW7130               1AZ
103193004103193079-009700-M   103193006003000634101PAPER SIRIO A4 PINK COL0000001000+00000306+00000+0001T   00000306+0000001241          1400 HW7130               1AZ
103193005103193079-009700-C   103193006003000545636PAPER SIRIO A4 VIOLET  0000001000+00000306+00000+0001T   00000306+0000001241          1400 HW7130               1AZ
103193006103193903-000908     103193006009802868331SWT YOYO HOT WHEELS    0000001000+00001753+00000+0001T   00001753+0000001241          1400 HW7150               1AZ
103194000103194               103194               170213BO     1400+00000+BO0000010695+0000010695+000000000+000001499+0000012190+0000000004+I20000000000+0000012190+Z
103194001103194077-000303     103194006001023593757GIFT-BAG PAPER MED     0000002000+00001578+00000+0001T   00001578+0000001248          1400 HW7112               1AZ
103194002103194365-001186     103194006003000545940PLAY-SET MINI CASTLE   0000001000+00002630+00000+0001T   00002630+0000001248          1400 HW7725               1AZ
103194003103194362-000302     103194006003000095469HAIR CLIP LRG GIRLS    0000002000+00001578+00000+0001T   00001578+0000001248          1400 HW7160               1AZ
103194004103194362-000299     103194006003000654758HAIR CLIPS METAL WORDS 0000001000+00001753+00000+0001T   00001753+0000001248          1400 HW7160               1AZ
103195000103195               103195               170213BO     1400+00000+BO0000012093+0000012093+000000000+000001698+0000013791+0000000000+I40000013791+0000000000+Z
103195001103195079-009702-B   103195008427973059491PAPER SIRIO A2 WHITE   0000004000+00001051+00000+0001T   00001051+0000001301          1400 HW7130               1AZ
103195002103195006-000120     103195006001023346889BALLOONS 10PC MIX COL  0000002000+00001753+00000+0001T   00001753+0000001301          1400 HW7131               1AZ
103195003103195039-000319-6   103195006003000442980B/CANDLES LRG NUMBER-6 0000001000+00000876+00000+0001T   00000876+0000001301          1400 HW7510               1AZ
103195004103195560-000104     103195006001023747037ANIMALS WILD IN-TUBE   0000001000+00003507+00000+0001T   00003507+0000001301          1400 HW7745               1AZ
103196000103196               103196               170213BO     1400+00000+BO0000011693+0000011693+000000000+000001640+0000013333+0000000000+I40000013333+0000000000+Z
103196001103196112-116038     103196006009681820246TCS CARRIER BAG MIDI   0000001000+00000035+00000+0001T   00000035+0000001305          1400 HW7090               1AZ
103196002103196206-000110     103196006003000628186CHOPSTICKS PLASTIC KIDS0000003000+00002630+00000+0001T   00002630+0000001305          1400 HW7321               1AZ
103196003103196018-000177     103196006001023797513MUG MINI LOVE ASSTD    0000001000+00000700+00000+0001T   00000700+0000001305          1400 HW7515               1AZ
103196004103196206-000245     103196006003000680818BOTTLE CLEANER PLASTIC 0000001000+00002192+00000+0001T   00002192+0000001305          1400 HW7321               1AZ
103196005103196077-000011-C   103196006001023808523TISSUE 10xSHTS RED     0000001000+00000876+00000+0001T   00000876+0000001305          1400 HW7112               1AZ
103197000103197               103197               170213BO     1400+00000+BO0000011402+0000011402+000000000+000001597+0000012990+0000000009+I20000000000+0000012990+Z
103197001103197027-000235     103197006003000512287MOP CHENILLE DOUBL SIDE0000001000+00011402+00000+0001T   00011402+0000001309          1400 HW7212               1AZ
103198000103198               103198               170213BO     1400+00000+BO0000003506+0000003506+000000000+000000492+0000003990+0000000008+I20000000000+0000003990+Z
103198001103198080-000102     103198006003000236855CARD&ENVLP FEMALE AFR  0000001000+00001753+00000+0001T   00001753+0000001311          1400 HW7112               1AZ
103198002103198080-000116     103198006003000253555CARD&ENVELOPE-HANDMADE 0000001000+00001753+00000+0001T   00001753+0000001311          1400 HW7112               1AZ
103199000103199               103199               170213BO     1400+00000+BO0000004382+0000004382+000000000+000000615+0000004997+0000000000+I40000004997+0000000000+Z
103199001103199018-000170     103199006001023775528MUG OCC. LOVE 2PC MINI 0000001000+00002192+00000+0001T   00002192+0000001313          1400 HW7515               1AZ
103199002103199565-000043     103199006003000109562NOVELTY BALL FUNNY FACE0000001000+00001753+00000+0001T   00001753+0000001313          1400 HW7745               1AZ
103199003103199080-000133-A   103199006003000647019MINI VALENTINES CARD   0000001000+00000437+00000+0001T   00000437+0000001313          1400 HW7112               1AZ
103200000103200               103200               170213BO     1400+00000+BO0000001753+0000001753+000000000+000000246+0000001990+0000000009+I20000000000+0000001990+Z
103200001103200012-000001     103200006003000331048MICRO PLATE-COVER 26X6 0000001000+00001753+00000+0001T   00002192+0008191313          1400 HW7300               1AZ
103201000103201               103201               170213BO     1400+00000+BO0000001227+0000001227+000000000+000000172+0000001399+0000000000+I40000001399+0000000000+Z
103201001103201077-000318     103201006001023609755GIFT-BAG 18X23CM E/D AN0000001000+00001227+00000+0001T   00001227+0000001325          1400 HW7112               1AZ
103202000103202               103202               170213BO     1400+00000+BO0000014127+0000014127+000000000+000001980+0000016100+0000000007+I20000000000+0000016100+Z
103202001103202083-000055     103202006003000003853LIGHTER ELCTRNC REFILBL0000001000+00000613+00000+0001T   00000613+0000001331          1400 HW7315               1AZ
103202002103202040-000103     103202000694202201862C/HOLDER-SET 5PC W/TRAY0000001000+00011402+00000+0001T   00013157+0008191331          1400 HW7510               1AZ
103202003103202112-116069     103202006009681820277TCS CARRIER BAG JUMBO  0000001000+00000048+00000+0001T   00000048+0000001331          1400 HW7090               1AZ
103202004103202050-000362-Z   103202006001023475275PADLOCK IRON 25mm CARD 0000001000+00002016+00000+0001T   00002016+0000001331          1400 HW7855               1AZ
103202005103202112-116069     103202006009681820277TCS CARRIER BAG JUMBO  0000001000+00000048+00000+0001T   00000048+0000001331          1400 HW7090               1AZ
103203000103203               103203               170213BO     1400+00000+BO0000001487+0000001487+000000000+000000210+0000001690+0000000007+I20000000000+0000001690+Z
103203001103203007-000120     103203006009698062714BOOK DRAWING A4 24-PAGE0000002000+00000525+00000+0001T   00000525+0000001333          1400 HW7130               1AZ
103203002103203080-000133     103203006003000535613CARD&ENV MINI ASTD DSGN0000001000+00000437+00000+0001T   00000437+0000001333          1400 HW7112               1AZ
103204000103204               103204               170213BO     1400+00000+BO0000002665+0000002665+000000000+000000374+0000003030+0000000009+I20000000000+0000003030+Z
103204001103204266-003012     103204006001023786128BOYS P/SET ARCHERY 4pc 0000001000+00002630+00000+0001T   00002630+0000001337          1400 HW7710               1AZ
103204002103204112-116038     103204006009681820246TCS CARRIER BAG MIDI   0000001000+00000035+00000+0001T   00000035+0000001337          1400 HW7090               1AZ
103205000103205               103205               170213BO     1400+00000+BO0000028987+0000028987+000000000+000004060+0000033047+0000000000+I40000033047+0000000000+Z
103205001103205261-003906     103205006003000472376RIFLE 57cm +ACCESS 8PCE0000001000+00008771+00000+0001T   00008771+0000001343          1400 HW7710               1AZ
103205002103205366-000292     103205006001023828958HEADBAND COL-FEATHERS  0000001000+00002630+00000+0001T   00002630+0000001343          1400 HW7131               1AZ
103205003103205366-000356     103205006003000006908DRESS UP WINGS FAIRY   0000001000+00004385+00000+0001T   00004385+0000001343          1400 HW7131               1AZ
103205004103205366-000301     103205006003000421077DRESSUP TIARA & EARRING0000001000+00003507+00000+0001T   00003507+0000001343          1400 HW7131               1AZ
103205005103205366-002803     103205006003000531875DRESS UP POMPOM 2PC SET0000001000+00003507+00000+0001T   00003507+0000001343          1400 HW7131               1AZ
103205006103205261-003903     103205006001023827746GUN SET ARMY ASSTD     0000001000+00006139+00000+0001T   00006139+0000001343          1400 HW7710               1AZ
103205007103205112-116069     103205006009681820277TCS CARRIER BAG JUMBO  0000001000+00000048+00000+0001T   00000048+0000001343          1400 HW7090               1AZ
103206000103206               103206               170213BO     1400+00000+BO0000002192+0000002192+000000000+000000307+0000002499+0000000000+I40000002499+0000000000+Z
103206001103206206-000245     103206006003000680818BOTTLE CLEANER PLASTIC 0000001000+00002192+00000+0001T   00002192+0000001348          1400 HW7321               1AZ
103207000103207               103207               170213BO     1400+00000+BO0000001578+0000001578+000000000+000000221+0000001799+0000000000+I40000001799+0000000000+Z
103207001103207080-000124     103207006003000297733CARD & ENV VALENTINES  0000001000+00001578+00000+0001T   00001578+0000001440          1400 1IC112               1AZ
103208000103208               103208               170213BO     1400+00000+BO0000001753+0000001753+000000000+000000246+0000001999+0000000000+I40000001999+0000000000+Z
103208001103208133-000012     103208006001023561084CLEANING-CLOTH GREEN   0000001000+00001753+00000+0001T   00001753+0000001440          1400 1IC212               1AZ
103209000103209               103209               170213BO     1400+00000+BO0000003980+0000003980+000000000+000000558+0000004530+0000000008+I20000000000+0000004530+Z
103209001103209112-116038     103209006009681820246TCS CARRIER BAG MIDI   0000001000+00000035+00000+0001T   00000035+0000001446          1400 CE9090               1AZ
103209002103209564-000025     103209006003000617104BUBBLE NOVELTY         0000001000+00001753+00000+0001T   00001753+0000001446          1400 CE9131               1AZ
103209003103209565-000015     103209006003000672035NOVELTY SLIME ANIMAL   0000001000+00002192+00000+0001T   00002192+0000001446          1400 CE9745               1AZ
103210000103210               103210               170213BO     1400+00000+BO0000001753+0000001753+000000000+000000246+0000001990+0000000009+I20000000000+0000001990+Z
103210001103210267-000310     103210006003000163090PUZZLE WOOD TRAY ASSTD 0000001000+00001753+00000+0001T   00001753+0000001458          1400 HW7755               1AZ
103211000103211               103211               170213BO     1400+00000+BO0000009238+0000009238+000000000+000001295+0000010533+0000000000+I40000010533+0000000000+Z
103211001103211112-116038     103211006009681820246TCS CARRIER BAG MIDI   0000001000+00000035+00000+0001T   00000035+0000001500          1400 HW7090               1AZ
103211002103211007-000324     10321100600968585864125 SHEETS BRIGHTS MARLI0000001000+00003507+00000+0001T   00003507+0000001500          1400 HW7130               1AZ
103211003103211079-006500     103211006001023557186GLUE GLITTER 6/10 PCE  0000001000+00001753+00000+0001T   00001753+0000001500          1400 HW7130               1AZ
103211004103211566-000066     103211006003000283675STICKERS GLITTER 25PCS 0000001000+00001753+00000+0001T   00001753+0000001500          1400 HW7130               1AZ
103211005103211071-001019     103211006001023474513MARKER BLACK NAME-PEN  0000001000+00000876+00000+0001T   00000876+0000001500          1400 HW7130               1AZ
103211006103211107-004105     103211006009703860984BUCKET 9L OPEN         0000001000+00001314+00000+0001T   00001314+0000001500          1400 HW7210               1AZ
103212000103212               103212               170213BO     1400+00000+BO0000021522+0000021522+000000000+000003014+0000024530+0000000006+I20000000000+0000024530+Z
103212001103212041-092000     103212006003000320936B/GIFT SET 4pc FLORAL  0000001000+00007016+00000+0001T   00007016+0000001501          1400 HW7200               1AZ
103212002103212077-000310     103212006001023608635GIFT-BAG 18X23CM GLOSS 0000001000+00001314+00000+0001T   00001314+0000001501          1400 HW7112               1AZ
103212003103212112-116038     103212006009681820246TCS CARRIER BAG MIDI   0000001000+00000035+00000+0001T   00000035+0000001501          1400 HW7090               1AZ
103212004103212466-001013     103212006001023508171CRICKET-SET SIZE-5     0000001000+00013157+00000+0001T   00013157+0000001501          1400 HW7785               1AZ
103213000103213               103213               170213BO     1400+00000+BO0000011444+0000011444+000000000+000001606+0000013050+0000000000+I40000013050+0000000000+Z
103213001103213150-000770     103213006005387000128UTILITY BOX MEGA       0000001000+00003244+00000+0001T   00003244+0000001503          1400 HW7810               1AZ
103213002103213200-003026     103213006003000276448REFUSE BAGS 10PCE GREEN0000002000+00001753+00000+0001T   00001753+0000001503          1400 HW7214               1AZ
103213003103213036-000151     103213006001023810588COATHANGERS    PACK-10 0000001000+00002893+00000+0001T   00002893+0000001503          1400 HW7212               1AZ
103213004103213084-078824     103213006003000385676NAIL FILES EMERY 24PC  0000001000+00001753+00000+0001T   00001753+0000001503          1400 HW7200               1AZ
103213005103213112-116069     103213006009681820277TCS CARRIER BAG JUMBO  0000001000+00000048+00000+0001T   00000048+0000001503          1400 HW7090               1AZ
103214000103214               103214               170213BO     1400+00000+BO0000001402+0000001402+000000000+000000197+0000001590+0000000009+I20000000000+0000001590+Z
103214001103214304-001204     103214006001023737984FLOWER OCC. TEDDY/ROSES0000001000+00001402+00000+0001T   00001490+0006471504          1400 HW7510               1AZ
103215000103215               103215               170213BO     1400+00000+BO0000001753+0000001753+000000000+000000246+0000001990+0000000009+I20000000000+0000001990+Z
103215001103215080-000109     103215006003000237203CARD&ENVLPE BDAY-BRIGHT0000001000+00001753+00000+0001T   00001753+0000001505          1400 HW7112               1AZ
103216000103216               103216               170213BO     1400+00000+BO0000004557+0000004557+000000000+000000639+0000005190+0000000006+I20000000000+0000005190+Z
103216001103216565-000002     103216006003000308071NOVELTY GROWING ANIMALS0000001000+00001753+00000+0001T   00001753+0000001514          1400 HW7745               1AZ
103216002103216565-000052     103216006003000615551NOVELTY PUTTY FARTS    0000001000+00001578+00000+0001T   00001578+0000001514          1400 HW7745               1AZ
103216003103216565-000044     103216006003000128280BARREL OF SLIME 100g   0000002000+00000613+00000+0001T   00000613+0000001514          1400 HW7745               1AZ
103217000103217               103217               170213BO     1400+00000+BO0000006134+0000006134+000000000+000000860+0000006994+0000000000+I40000006994+0000000000+Z
103217001103217006-000167-C   103217006003000516971BALLOONS PINK METALLIC 0000001000+00001314+00000+0001T   00001314+0000001517          1400 HW7131               1AZ
103217002103217077-000239     103217006003000160419GIFT-RIBBON ROLL PEARL 0000001000+00001753+00000+0001T   00001753+0000001517          1400 HW7112               1AZ
103217003103217903-000844     103217005010478432567SWT CANDY DL LUV HEARTS0000001000+00001314+00000+0001T   00001314+0000001517          1400 HW7150               1AZ
103217004103217903-000911     103217006009802868454SWT ST GUM TAPE BARBIE 0000001000+00001753+00000+0001T   00001753+0000001517          1400 HW7150               1AZ
103218000103218               103218               170213BO     1400+00000+BO0000001051+0000001051+000000000+000000148+0000001190+0000000009+I20000000000+0000001190+Z
103218001103218903-002851     103218000000087108538MENTOS ROLL STRAWBERRY 0000001000+00001051+00000+0001T   00001051+0000001517          1400 HW7150               1AZ
103219000103219               103219               170213BO     1400+00000+BO0000006186+0000006186+000000000+000000867+0000007053+0000000000+I40000007053+0000000000+Z
103219001103219105-003028     103219006003000666928CONTAINER RECT 25x21cm 0000001000+00003069+00000+0001T   00003069+0000001519          1400 HW7210               1AZ
103219002103219038-092233     103219006003000328925TABLE-MAT N/SLIP ASST  0000001000+00003069+00000+0001T   00003507+0008191519          1400 HW7300               1AZ
103219003103219112-116069     103219006009681820277TCS CARRIER BAG JUMBO  0000001000+00000048+00000+0001T   00000048+0000001519          1400 HW7090               1AZ
103220000103220               103220               170213BO     1400+00000+BO0000006256+0000006256+000000000+000000877+0000007130+0000000003+I20000000000+0000007130+Z
103220001103220018-000170     103220006001023775528MUG OCC. LOVE 2PC MINI 0000001000+00002192+00000+0001T   00002192+0000001523          1400 HW7515               1AZ
103220002103220018-000177     103220006001023797513MUG MINI LOVE ASSTD    0000002000+00000700+00000+0001T   00000700+0000001523          1400 HW7515               1AZ
103220003103220264-000921     103220000090159150442MAISTO CAR 3" FRESH    0000001000+00001753+00000+0001T   00001753+0000001523          1400 HW7710               1AZ
103220004103220077-000011-C   103220006001023808523TISSUE 10xSHTS RED     0000001000+00000876+00000+0001T   00000876+0000001523          1400 HW7112               1AZ
103220005103220112-116038     103220006009681820246TCS CARRIER BAG MIDI   0000001000+00000035+00000+0001T   00000035+0000001523          1400 HW7090               1AZ
103221000103221               103221               170213BO     1400+00000+BO0000002630+0000002630+000000000+000000369+0000002990+0000000009+I20000000000+0000002990+Z
103221001103221018-000129     103221006001023403353MUG OCC. LOVE V-SHAPE  0000001000+00002630+00000+0001T   00002630+0000001535          1400 HW7515               1AZ
103222000103222               103222               170213BO     1400+00000+BO0000019053+0000019053+000000000+000002674+0000021727+0000000000+I40000021727+0000000000+Z
103222001103222079-009702-C   103222008427973059309PAPER SIRIO A2 VIOLET  0000001000+00001051+00000+0001T   00001051+0000001539          1400 HW7130               1AZ
103222002103222077-000926     103222006003000414178G/WRAP 700mmx2m LOVE   0000001000+00002192+00000+0001T   00002192+0000001539          1400 HW7112               1AZ
103222003103222566-000031     103222006003000283910STICKER BK TEACHER STIC0000001000+00002192+00000+0001T   00002192+0000001539          1400 HW7130               1AZ
103222004103222566-000006     103222006001023671189STICKER-BOOK DRESS-UP  0000001000+00002630+00000+0001T   00002630+0000001539          1400 HW7130               1AZ
103222005103222306-001618     103222006003000571574INNER SOLES 2-PAIR KIDS0000001000+00002630+00000+0001T   00002630+0000001539          1400 HW7200               1AZ
103222006103222077-000311     103222006001023608666GIFT-BAG 11X14CM GLOSS 0000001000+00000613+00000+0001T   00000613+0000001539          1400 HW7112               1AZ
103222007103222206-000220     103222006003000631704EGG TIMER COLOUR-CHANGE0000001000+00002630+00000+0001T   00002630+0000001539          1400 HW7321               1AZ
103222008103222903-000120     103222006002099001665SWEET GS ZILLIONS 50g  0000001000+00000700+00000+0001T   00000700+0000001539          1400 HW7150               1AZ
103222009103222565-000043     103222006003000109562NOVELTY BALL FUNNY FACE0000001000+00001753+00000+0001T   00001753+0000001539          1400 HW7745               1AZ
103222010103222089-000093     103222006003000677276K/CHAIN SILV SPORTS    0000001000+00001753+00000+0001T   00002630+0008121539          1400 HW7205               1AZ
103222011103222112-116038     103222006009681820246TCS CARRIER BAG MIDI   0000001000+00000035+00000+0001T   00000035+0000001539          1400 HW7090               1AZ
103222012103222080-000133-A   103222006003000647019MINI VALENTINES CARD   0000002000+00000437+00000+0001T   00000437+0000001539          1400 HW7112               1AZ
103223000103223               103223               170213BO     1400+00000+BO0000015787+0000015787+000000000+000002211+0000017990+0000000008+I20000000000+0000017990+Z
103223001103223368-000001     103223006003000097982Plush Bear 25cm        0000001000+00004385+00000+0001T   00004385+0000001543          1400 HW7745               1AZ
103223002103223368-000637     103223006001023874092PLUSH BEAR SLEEPING LOV0000001000+00011402+00000+0001T   00012279+0006471543          1400 HW7745               1AZ
103224000103224               103224               170213BO     1400+00000+BO0000005262-0000005262-000000000+000000737-0000005999-0000000000+I40000005999-0000000000+Z
103224001103224024-000019     103224006001023822277HILLHOUSE ICING-SET    0000001000-00005262+00000+0001T   00005262+0000001558          1400 HW73001IC            1 Z
103225000103225               103225               170213BO     1400+00000+BO0000008242+0000008242+000000000+000001155+0000009397+0000000000+I40000009397+0000000000+Z
103225001103225065-000015     103225006003000536474MICROPHNE & SUNGLASSESS0000001000+00005262+00000+0001T   00005262+0000001611          1400 HW7745               1AZ
103225002103225903-000518     103225006001704012782SWT STRAWS S/BERRY 100g0000001000+00001227+00000+0001T   00001227+0000001611          1400 HW7150               1AZ
103225003103225362-003013     103225006003000307364GIRL ACCESS BAG SEQUIN 0000001000+00001753+00000+0001T   00001753+0000001611          1400 HW7160               1AZ
103226000103226               103226               170213BO     1400+00000+BO0000002927+0000002927+000000000+000000410+0000003330+0000000007+I20000000000+0000003330+Z
103226001103226566-000068     103226006003000418046POP UP LOVE 2 ASSTD    0000001000+00002192+00000+0001T   00002192+0000001613          1400 HW7130               1AZ
103226002103226018-000177     103226006001023797513MUG MINI LOVE ASSTD    0000001000+00000700+00000+0001T   00000700+0000001613          1400 HW7515               1AZ
103226003103226112-116038     103226006009681820246TCS CARRIER BAG MIDI   0000001000+00000035+00000+0001T   00000035+0000001613          1400 HW7090               1AZ
103227000103227               103227               170213BO     1400+00000+BO0000004944+0000004944+000000000+000000693+0000005630+0000000007+I20000000000+0000005630+Z
103227001103227903-000151     103227006009803374411SWT SML RND R/BOW LOLLY0000001000+00000525+00000+0001T   00000525+0000001616          1400 HW7150               1AZ
103227002103227566-000359     103227006003000582709STICKER BOOK LOVE SPARK0000001000+00002192+00000+0001T   00002192+0000001616          1400 HW7130               1AZ
103227003103227080-000127     103227006003000424351VALENTINES DAY 36x24CM 0000001000+00002192+00000+0001T   00002192+0000001616          1400 HW7112               1AZ
103227004103227112-116038     103227006009681820246TCS CARRIER BAG MIDI   0000001000+00000035+00000+0001T   00000035+0000001616          1400 HW7090               1AZ
103228000103228               103228               170213BO     1400+00000+BO0000010259+0000010259+000000000+000001438+0000011697+0000000000+I40000011697+0000000000+Z
103228001103228027-008816     103228006003000481644DUSTER SYNTHETIC 1.6m  0000001000+00005262+00000+0001T   00005262+0000001617          1400 HW7212               1AZ
103228002103228142-000810     103228006003000429844GLOVES LATEX PRNT CUFFS0000001000+00001753+00000+0001T   00001753+0000001617          1400 HW7810               1AZ
103228003103228150-000770     103228006005387000128UTILITY BOX MEGA       0000001000+00003244+00000+0001T   00003244+0000001617          1400 HW7810               1AZ
103229000103229               103229               170213BO     1400+00000+BO0000003506+0000003506+000000000+000000492+0000003990+0000000008+I20000000000+0000003990+Z
103229001103229174-000010     103229006001023462381W/MACHINE-BAG 25x40cm  0000002000+00001753+00000+0001T   00001753+0000001619          1400 HW7205               1AZ
103230000103230               103230               170213BO     1400+00000+BO0000001753+0000001753+000000000+000000246+0000001999+0000000000+I40000001999+0000000000+Z
103230001103230080-000113     103230006003000237449CARD&ENVLPE - LOVE     0000001000+00001753+00000+0001T   00001753+0000001620          1400 HW7112               1AZ
103231000103231               103231               170213BO     1400+00000+BO0000000876+0000000876+000000000+000000123+0000000990+0000000009+I20000000000+0000000990+Z
103231001103231077-000011-E   103231006001023808646TISSUE-WRAP PINK 10PCE 0000001000+00000876+00000+0001T   00000876+0000001620          1400 HW7112               1AZ
103232000103232               103232               170213BO     1400+00000+BO0000001400+0000001400+000000000+000000196+0000001590+0000000006+I20000000000+0000001590+Z
103232001103232018-000177     103232006001023797513MUG MINI LOVE ASSTD    0000002000+00000700+00000+0001T   00000700+0000001621          1400 HW7515               1AZ
103233000103233               103233               170213BO     1400+00000+BO0000010556+0000010556+000000000+000001479+0000012035+0000000000+I40000012035+0000000000+Z
103233001103233566-000036     103233006003000384051STICKERS MOTIVATION    0000001000+00001753+00000+0001T   00001753+0000001623          1400 HW7130               1AZ
103233002103233566-000031     103233006003000283910STICKER BK TEACHER STIC0000004000+00002192+00000+0001T   00002192+0000001623          1400 HW7130               1AZ
103233003103233112-116038     103233006009681820246TCS CARRIER BAG MIDI   0000001000+00000035+00000+0001T   00000035+0000001623          1400 HW7090               1AZ
103234000103234               103234               170213BO     1400+00000+BO0000006139+0000006139+000000000+000000860+0000006990+0000000009+I20000000000+0000006990+Z
103234001103234018-005007     103234006003000515516MUG OCC. LOVE W/HEARTS 0000001000+00006139+00000+0001T   00006139+0000001624          1400 HW7515               1AZ
103235000103235               103235               170213BO     1400+00000+BO0000001227+0000001227+000000000+000000172+0000001390+0000000009+I20000000000+0000001390+Z
103235001103235903-000499     103235006001704012492SWT CHOC MALLOWS 50g   0000001000+00001227+00000+0001T   00001227+0000001625          1400 HW7150               1AZ
103236000103236               103236               170213BO     1400+00000+BO0000004682+0000004682+000000000+000000656+0000005330+0000000008+I20000000000+0000005330+Z
103236001103236362-003007     103236006003000295401GIRL FASHION SUNGLASSES0000001000+00001578+00000+0001T   00001753+0008191626          1400 HW7160               1AZ
103236002103236089-000184     103236006003000577323KEY CHAIN OWL POLY MINI0000001000+00003069+00000+0001T   00003069+0000001626          1400 HW7205               1AZ
103236003103236112-116038     103236006009681820246TCS CARRIER BAG MIDI   0000001000+00000035+00000+0001T   00000035+0000001626          1400 HW7090               1AZ
103237000103237               103237               170213BO     1400+00000+BO0000023679+0000023679+000000000+000003317+0000026996+0000000000+I40000026996+0000000000+Z
103237001103237263-000800     103237006003000332281TRUCK PL CONSTRUCTION  0000001000+00011402+00000+0001T   00011402+0000001628          1400 HW7710               1AZ
103237002103237024-000165-F   103237006003000674671N/STICK MUFFIN PAN     0000002000+00005262+00000+0001T   00005262+0000001628          1400 HW7300               1AZ
103237003103237077-000906     103237006003000410804G/WRAP 700mmx1m BIRTHDA0000001000+00001753+00000+0001T   00001753+0000001628          1400 HW7112               1AZ
103238000103238               103238               170213BO     1400+00000+BO0000016312+0000016312+000000000+000002285+0000018597+0000000000+I40000018597+0000000000+Z
103238001103238304-001204     103238006001023737984FLOWER OCC. TEDDY/ROSES0000001000+00001402+00000+0001T   00001490+0006471645          1400 HW7510               1AZ
103238002103238030-004020     103238006003000394609PLAQUE WDN SIGN 40X25CM0000001000+00013157+00000+0001T   00013157+0000001645          1400 HW7505               1AZ
103238003103238077-000299-A   103238006003000670888GIFT-BAG PAPER JMB LOVE0000001000+00001753+00000+0001T   00001753+0000001645          1400 HW7112               1AZ
103239000103239               103239               170213BO     1400+00000+BO0000003944+0000003944+000000000+000000553+0000004490+0000000007+I20000000000+0000004490+Z
103239001103239039-091794     103239006001023655875C/SET 6PC 16G RED-HEART0000001000+00003507+00000+0001T   00003507+0000001651          1400 HW7510               1AZ
103239002103239080-000133     103239006003000535613CARD&ENV MINI ASTD DSGN0000001000+00000437+00000+0001T   00000437+0000001651          1400 HW7112               1AZ
103240000103240               103240               170213BO     1400+00000+BO0000012278+0000012278+000000000+000001720+0000013998+0000000000+I40000013998+0000000000+Z
103240001103240368-000265     103240006001023750914PLUSH BEAR 23CM ASSTD C0000002000+00006139+00000+0001T   00006139+0000001656          1400 HW7745               1AZ
103241000103241               103241               170213BO     1400+00000+BO0000008638+0000008638+000000000+000001212+0000009850+0000000000+I20000000000+0000009850+Z
103241001103241080-000127     103241006003000424351VALENTINES DAY 36x24CM 0000002000+00002192+00000+0001T   00002192+0000001658          1400 HW7112               1AZ
103241002103241304-001204     103241006001023737984FLOWER OCC. TEDDY/ROSES0000003000+00001402+00000+0001T   00001490+0006471658          1400 HW7510               1AZ
103241003103241112-116069     103241006009681820277TCS CARRIER BAG JUMBO  0000001000+00000048+00000+0001T   00000048+0000001658          1400 HW7090               1AZ
103242000103242               103242               170213BO     1400+00000+BO0000001753+0000001753+000000000+000000246+0000001990+0000000009+I20000000000+0000001990+Z
103242001103242077-000289     103242006001023901996GIFT BOX 20x25x11cm    0000001000+00001753+00000+0001T   00001753+0000001659          1400 HW7112               1AZ
103243000103243               103243               170213BO     1400+00000+BO0000002409+0000002409+000000000+000000338+0000002740+0000000007+I20000000000+0000002740+Z
103243001103243077-000011-D   103243006001023808554TISSUE-WRAP WHITE 10PCE0000001000+00000876+00000+0001T   00000876+0000001701          1400 HW7112               1AZ
103243002103243077-000245     103243006001023759214GIFT-RIBBON METALLICx2 0000001000+00001227+00000+0001T   00001227+0000001701          1400 HW7112               1AZ
103243003103243079-009700-D   103243006003000545711PAPER SIRIO A4 RED COL.0000001000+00000306+00000+0001T   00000306+0000001701          1400 HW7130               1AZ
103244000103244               103244               170213BO     1400+00000+BO0000002366+0000002366+000000000+000000332+0000002690+0000000008+I20000000000+0000002690+Z
103244001103244077-000303     103244006001023593757GIFT-BAG PAPER MED     0000001000+00001578+00000+0001T   00001578+0000001702          1400 HW7112               1AZ
103244002103244077-000010-D   103244006001023123886CREPE-PAPER WHITE      0000001000+00000788+00000+0001T   00000788+0000001702          1400 HW7112               1AZ
103245000103245               103245               170213BO     1400+00000+BO0000007310+0000007310+000000000+000001026+0000008330+0000000006+I20000000000+0000008330+Z
103245001103245206-000390     103245006003000631438STRAW PL BUILD A STRAW 0000001000+00002630+00000+0001T   00002630+0000001704          1400 HW7321               1AZ
103245002103245089-000004     103245006003000137749KEY CHAIN MTL CHARMS   0000001000+00001753+00000+0001T   00001753+0000001704          1400 HW7205               1AZ
103245003103245903-000010     103245006002099008091SWT CHOC WONKA BAR     0000001000+00002016+00000+0001T   00002016+0000001704          1400 HW7150               1AZ
103245004103245089-000192-A   103245006001023901774KEY-CHAIN ACRYLIC      0000001000+00000876+00000+0001T   00000876+0000001704          1400 HW7205               1AZ
103245005103245112-116038     103245006009681820246TCS CARRIER BAG MIDI   0000001000+00000035+00000+0001T   00000035+0000001704          1400 HW7090               1AZ
103246000103246               103246               170213BO     1400+00000+BO0000003944+0000003944+000000000+000000553+0000004490+0000000007+I20000000000+0000004490+Z
103246001103246301-085004     103246006003000420469ORN LOVE PLAQUE 21X10CM0000001000+00003507+00000+0001T   00003946+0006471707          1400 HW7505               1AZ
103246002103246080-000133-A   103246006003000647019MINI VALENTINES CARD   0000001000+00000437+00000+0001T   00000437+0000001707          1400 HW7112               1AZ
103247000103247               103247               170213BO     1400+00000+BO0000014032+0000014032+000000000+000001966+0000015998+0000000000+I40000015998+0000000000+Z
103247001103247077-000270     103247006003000395453GIFT-BAG PPR JMB 33X45 0000001000+00002630+00000+0001T   00002630+0000001708          1400 HW7112               1AZ
103247002103247368-000637     103247006001023874092PLUSH BEAR SLEEPING LOV0000001000+00011402+00000+0001T   00012279+0006471708          1400 HW7745               1AZ
103248000103248               103248               170213BO     1400+00000+BO0000001578+0000001578+000000000+000000221+0000001799+0000000000+I40000001799+0000000000+Z
103248001103248077-000303     103248006001023593757GIFT-BAG PAPER MED     0000001000+00001578+00000+0001T   00001578+0000001710          1400 HW7112               1AZ
103249000103249               103249               170213BO     1400+00000+BO0000002665+0000002665+000000000+000000374+0000003030+0000000009+I20000000000+0000003030+Z
103249001103249027-009025     103249006003962000747DUSTPAN-SET PL         0000001000+00002630+00000+0001T   00002630+0000001711          1400 HW7212               1AZ
103249002103249112-116038     103249006009681820246TCS CARRIER BAG MIDI   0000001000+00000035+00000+0001T   00000035+0000001711          1400 HW7090               1AZ
103250000103250               103250               170213BO     1400+00000+BO0000012716+0000012716+000000000+000001781+0000014497+0000000000+I40000014497+0000000000+Z
103250001103250368-000614     103250006001023705808PLUSH LOVE 30cm        0000001000+00008771+00000+0001T   00008771+0000001712          1400 HW7745               1AZ
103250002103250566-000067     103250006003000349180STICKERS GLITTER       0000001000+00001753+00000+0001T   00002192+0008151712          1400 HW7130               1AZ
103250003103250566-000951     103250006003000217670STICKERS 3 STYLES ASSTD0000001000+00002192+00000+0001T   00002192+0000001712          1400 HW7130               1AZ
103251000103251               103251               170213BO     1400+00000+BO0000002630+0000002630+000000000+000000369+0000002990+0000000009+I20000000000+0000002990+Z
103251001103251071-000009     103251006003000098194STATIONERY SET 11 PIECE0000001000+00002630+00000+0001T   00002630+0000001712          1400 HW7130               1AZ
103252000103252               103252               170213BO     1400+00000+BO0000004385+0000004385+000000000+000000614+0000004990+0000000009+I20000000000+0000004990+Z
103252001103252028-000030     103252006001023810908COOLER-BAG 6PACK       0000001000+00004385+00000+0001T   00004385+0000001713          1400 HW7305               1AZ
103253000103253               103253               170213BO     1400+00000+BO0000003507+0000003507+000000000+000000491+0000003990+0000000008+I20000000000+0000003990+Z
103253001103253018-005009     103253006001023725608MUG W/PLUSH-BEAR LOVE  0000001000+00003507+00000+0001T   00003507+0000001719          1400 HW7515               1AZ
103254000103254               103254               170213BO     1400+00000+BO0000007016+0000007016+000000000+000000983+0000007999+0000000000+I40000007999+0000000000+Z
103254001103254567-007951     103254009781775782452LHA BABA SE KLEIN PIENK0000001000+00007016+00000+0001T   00007016+0000001722          1400 HW7757               1AZ
103255000103255               103255               170213BO     1400+00000+BO0000005261+0000005261+000000000+000000737+0000005998+0000000000+I40000005998+0000000000+Z
103255001103255077-000509     103255006003000082582GIFT-BAG SML 6PCE ORG P0000001000+00002192+00000+0001T   00002192+0000001724          1400 HW7112               1AZ
103255002103255033-000600     103255006003000365098HAIR-BRUSH 23cm VENT   0000001000+00003069+00000+0001T   00003069+0000001724          1400 HW7200               1AZ
103256000103256               103256               170213BO     1400+00000+BO0000001753+0000001753+000000000+000000246+0000001990+0000000009+I20000000000+0000001990+Z
103256001103256362-019269     103256006001023752659HAIR ACCESS SET CARDED 0000001000+00001753+00000+0001T   00001753+0000001724          1400 HW7160               1AZ
103257000103257               103257               170213BO     1400+00000+BO0000000877-0000000877-000000000+000000123-0000001000-0000000000+I20000000000+0000001000-Z
103257001103257362-019269     103257006001023752659HAIR ACCESS SET CARDED 0000001000-00001753+00000+0001T   00001753+0000001726          1400 HW71601IC            1 Z
103257002103257362-019375     103257006001023730664HAIR BAND SET 24PCE    0000001000+00000876+00000+0001T   00000876+0000001726          1400 HW7160               1 Z
103258000103258               103258               170213BO     1400+00000+BO0000001490+0000001490+000000000+000000209+0000001690+0000000009+I20000000000+0000001690+Z
103258001103258077-000452     103258006003000284986G/BAG METALLIC MED EMB 0000001000+00001490+00000+0001T   00001490+0000001730          1400 HW7112               1AZ
103259000103259               103259               170213BO     1400+00000+BO0000001753+0000001753+000000000+000000246+0000001990+0000000009+I20000000000+0000001990+Z
103259001103259564-000035     103259006003000301836BUBBLE NOVELTY SWORD   0000001000+00001753+00000+0001T   00001753+0000001732          1400 HW7131               1AZ
103260000103260               103260               170213BO     1400+00000+BO0000010291+0000010291+000000000+000001443+0000011734+0000000000+I40000011734+0000000000+Z
103260001103260079-006498     103260006001023836151GLITTER SET 10PCE      0000001000+00003507+00000+0001T   00003507+0000001736          1400 HW7130               1AZ
103260002103260566-000036     103260006003000384051STICKERS MOTIVATION    0000001000+00001753+00000+0001T   00001753+0000001736          1400 HW7130               1AZ
103260003103260565-004101     103260006003000548033BALL BOUNCING EGG      0000001000+00001490+00000+0001T   00001490+0000001736          1400 HW7745               1AZ
103260004103260565-000888     103260006003000607846NOVELTY MESH BALL      0000002000+00001753+00000+0001T   00001753+0000001736          1400 HW7745               1AZ
103260005103260112-116038     103260006009681820246TCS CARRIER BAG MIDI   0000001000+00000035+00000+0001T   00000035+0000001736          1400 HW7090               1AZ
103261000103261               103261               170213BO     1400+00000+BO0000002192+0000002192+000000000+000000307+0000002499+0000000000+I40000002499+0000000000+Z
103261001103261566-000359     103261006003000582709STICKER BOOK LOVE SPARK0000001000+00002192+00000+0001T   00002192+0000001737          1400 HW7130               1AZ
103262000103262               103262               170213BO     1400+00000+BO0000003243+0000003243+000000000+000000455+0000003698+0000000000+I40000003698+0000000000+Z
103262001103262007-000555     103262006001023848239MEMO-PAD MINI LOVE     0000001000+00000613+00000+0001T   00000613+0000001739          1400 HW7130               1AZ
103262002103262077-000005-B   103262006003000326617PAPER TISSUE PATTERN   0000001000+00002630+00000+0001T   00002630+0000001739          1400 HW7112               1AZ
103263000103263               103263               170213BO     1400+00000+BO0000003594+0000003594+000000000+000000504+0000004098+0000000000+I40000004098+0000000000+Z
103263001103263903-000843     103263008693029031067SWT GUMMY JELAXY 80G   0000001000+00000964+00000+0001T   00000964+0000001742          1400 HW7150               1AZ
103263002103263903-000594     103263006003000564057SWT SWORD 18cm J/BEAN  0000001000+00002630+00000+0001T   00002630+0000001742          1400 HW7150               1AZ
103264000103264               103264               170213BO     1400+00000+BO0000001753+0000001753+000000000+000000246+0000001990+0000000009+I20000000000+0000001990+Z
103264001103264162-090712     103264006001492907123#TAG HOT DEALS NK SETS 0000001000+00001753+00000+0001T   00003507+0008161744          1400 HW7160               1AZ
103265000103265               103265               170213BO     1400+00000+BO0000008771+0000008771+000000000+000001228+0000009999+0000000000+I40000009999+0000000000+Z
103265001103265368-000614     103265006001023705808PLUSH LOVE 30cm        0000001000+00008771+00000+0001T   00008771+0000001745          1400 HW7745               1AZ
103266000103266               103266               170213BO     1400+00000+BO0000010554+0000010554+000000000+000001480+0000012034+0000000000+I40000012034+0000000000+Z
103266001103266368-000001     103266006003000097982Plush Bear 25cm        0000001000+00004385+00000+0001T   00004385+0000001748          1400 HW7745               1AZ
103266002103266113-000001     103266006003000088690TRAVEL MUG 400ml S/S   0000001000+00003507+00000+0001T   00003507+0000001748          1400 HW7305               1AZ
103266003103266077-000351     103266006003000139033GIFT-BAG 18X23CM E/D P 0000001000+00001753+00000+0001T   00001753+0000001748          1400 HW7112               1AZ
103266004103266080-000133-A   103266006003000647019MINI VALENTINES CARD   0000002000+00000437+00000+0001T   00000437+0000001748          1400 HW7112               1AZ
103266005103266112-116038     103266006009681820246TCS CARRIER BAG MIDI   0000001000+00000035+00000+0001T   00000035+0000001748          1400 HW7090               1AZ
103267000103267               103267               170213BO     1400+00000+BO0000006171+0000006171+000000000+000000866+0000007037+0000000000+I40000007037+0000000000+Z
103267001103267565-000859     103267006001023691361SUNGLASSES GIANT       0000002000+00001753+00000+0001T   00001753+0000001750          1400 HW7745               1AZ
103267002103267006-006018     103267006001023735256PARTY-SPRAY HAIR ASSORT0000001000+00002630+00000+0001T   00002630+0000001750          1400 HW7131               1AZ
103267003103267112-116038     103267006009681820246TCS CARRIER BAG MIDI   0000001000+00000035+00000+0001T   00000035+0000001750          1400 HW7090               1AZ
103268000103268               103268               170213BO     1400+00000+BO0000003594+0000003594+000000000+000000504+0000004090+0000000008+I20000000000+0000004090+Z
103268001103268903-000077     103268006939873501687SWT GS MAGIC ROCK FRUIT0000001000+00000525+00000+0001T   00000525+0000001751          1400 HW7150               1AZ
103268002103268089-000205     103268006003000485963KEY CHAIN LEATHER W/ZIP0000001000+00003069+00000+0001T   00003069+0000001751          1400 HW7205               1AZ
103269000103269               103269               170213BO     1400+00000+BO0000001314+0000001314+000000000+000000184+0000001490+0000000008+I20000000000+0000001490+Z
103269001103269077-000312     103269006001023608697GIFT-BAG 10X35CM GLOSS 0000001000+00001314+00000+0001T   00001314+0000001752          1400 HW7112               1AZ
103270000103270               103270               170213BO     1400+00000+BO0000003101+0000003101+000000000+000000436+0000003530+0000000007+I20000000000+0000003530+Z
103270001103270018-000170     103270006001023775528MUG OCC. LOVE 2PC MINI 0000001000+00002192+00000+0001T   00002192+0000001753          1400 HW7515               1AZ
103270002103270080-000133-A   103270006003000647019MINI VALENTINES CARD   0000001000+00000437+00000+0001T   00000437+0000001753          1400 HW7112               1AZ
103270003103270112-116038     103270006009681820246TCS CARRIER BAG MIDI   0000001000+00000035+00000+0001T   00000035+0000001753          1400 HW7090               1AZ
103270004103270080-000133-A   103270006003000647019MINI VALENTINES CARD   0000001000+00000437+00000+0001T   00000437+0000001753          1400 HW7112               1AZ
103271000103271               103271               170213BO     1400+00000+BO0000009691+0000009691+000000000+000001360+0000011051+0000000000+I40000011051+0000000000+Z
103271001103271104-000186     103271006003000138463CUTLERY HOLDER PL 4-DIV0000001000+00002630+00000+0001T   00002630+0000001755          1400 HW7210               1AZ
103271002103271027-056191     103271006916920933134DISH-BRUSH+HOOK RECT   0000001000+00001753+00000+0001T   00001753+0000001755          1400 HW7212               1AZ
103271003103271002-000717     103271006001023775184CHOPPING-MATS FLEX 2PCE0000001000+00002630+00000+0001T   00002630+0000001755          1400 HW7300               1AZ
103271004103271027-001018     103271006003000622702BROOM COVER MICROFIBRE 0000001000+00002630+00000+0001T   00002630+0000001755          1400 HW7212               1AZ
103271005103271112-116069     103271006009681820277TCS CARRIER BAG JUMBO  0000001000+00000048+00000+0001T   00000048+0000001755          1400 HW7090               1AZ
103272000103272               103272               170213BO     1400+00000+BO0000003769+0000003769+000000000+000000529+0000004298+0000000000+I40000004298+0000000000+Z
103272001103272002-000801     103272006003000555994PEELER PL/MTL Y-SHAPE  0000001000+00001139+00000+0001T   00001139+0000001758          1400 HW7300               1AZ
103272002103272200-000042     103272006001023868886BAG-SEALERS 10PCE      0000001000+00002630+00000+0001T   00002630+0000001758          1400 HW7214               1AZ
103273000103273               103273               170213BO     1400+00000+BO0000001490+0000001490+000000000+000000209+0000001690+0000000009+I20000000000+0000001690+Z
103273001103273077-000452     103273006003000284986G/BAG METALLIC MED EMB 0000001000+00001490+00000+0001T   00001490+0000001759          1400 HW7112               1AZ
103274000103274               103274               170213BO     1400+00000+BO0000007752+0000007752+000000000+000001086+0000008830+0000000008+I20000000000+0000008830+Z
103274001103274018-050000     103274006003000412679MUG OCC LOVE TWIN BEAR 0000001000+00006139+00000+0001T   00006139+0000001801          1400 HW7515               1AZ
103274002103274112-116038     103274006009681820246TCS CARRIER BAG MIDI   0000001000+00000035+00000+0001T   00000035+0000001801          1400 HW7090               1AZ
103274003103274080-000124     103274006003000297733CARD & ENV VALENTINES  0000001000+00001578+00000+0001T   00001578+0000001801          1400 HW7112               1AZ
103275000103275               103275               170213BO     1400+00000+BO0000003145+0000003145+000000000+000000441+0000003580+0000000006+I20000000000+0000003580+Z
103275001103275046-000012-A   103275006003000208296BATTERIES H/POWER SZ:AA0000001000+00002192+00000+0001T   00002192+0000001809          1400 HW7312               1AZ
103275002103275112-116038     103275006009681820246TCS CARRIER BAG MIDI   0000001000+00000035+00000+0001T   00000035+0000001809          1400 HW7090               1AZ
103275003103275079-009700-A   103275006003000547746PAPER SIRIO A4 BLACK   0000001000+00000306+00000+0001T   00000306+0000001809          1400 HW7130               1AZ
103275004103275079-009700-D   103275006003000545711PAPER SIRIO A4 RED COL.0000002000+00000306+00000+0001T   00000306+0000001809          1400 HW7130               1AZ
103276000103276               103276               170213BO     1400+00000+BO0000012309+0000012309+000000000+000001725+0000014030+0000000004+I20000000000+0000014030+Z
103276001103276039-091794     103276006001023655875C/SET 6PC 16G RED-HEART0000001000+00003507+00000+0001T   00003507+0000001810          1400 HW7510               1AZ
103276002103276563-000318-L   103276006003000407088SERVIETTES 33cm RED    0000001000+00002192+00000+0001T   00002192+0000001810          1400 HW7214               1AZ
103276003103276133-000074     103276006003000244072D/CLOTH 40x60 80g      0000001000+00003069+00000+0001T   00003069+0000001810          1400 HW7212               1AZ
103276004103276088-000052     103276006001023760401T/FRESHENER CISTERN BLK0000001000+00000876+00000+0001T   00000876+0000001810          1400 HW7212               1AZ
103276005103276565-000040     103276006008766115635NOVELTY ICON BEANIE    0000001000+00002630+00000+0001T   00002630+0000001810          1400 HW7745               1AZ
103276006103276112-116038     103276006009681820246TCS CARRIER BAG MIDI   0000001000+00000035+00000+0001T   00000035+0000001810          1400 HW7090               1AZ
103277000103277               103277               170213BO     1400+00000+BO0000015392+0000015392+000000000+000002156+0000017548+0000000000+I40000017548+0000000000+Z
103277001103277018-019000     103277006003000557288MUG OCC. LOVE JUMBO    0000001000+00005262+00000+0001T   00005262+0000001812          1400 HW7515               1AZ
103277002103277080-000127     103277006003000424351VALENTINES DAY 36x24CM 0000001000+00002192+00000+0001T   00002192+0000001812          1400 HW7112               1AZ
103277003103277903-000123     103277006925925909280SWEET GS MINI MALLOWS  0000001000+00000876+00000+0001T   00000876+0000001812          1400 HW7150               1AZ
103277004103277031-000844     103277006001023851789P/FRAME WDN WORDS 2ASS 0000001000+00003507+00000+0001T   00003507+0000001812          1400 HW7510               1AZ
103277005103277031-005853     103277006003000442416P/FRAME WDN TWIN HEARTS0000001000+00003507+00000+0001T   00003507+0000001812          1400 HW7510               1AZ
103277006103277112-116069     103277006009681820277TCS CARRIER BAG JUMBO  0000001000+00000048+00000+0001T   00000048+0000001812          1400 HW7090               1AZ
103278000103278               103278               170213BO     1400+00000+BO0000009243+0000009243+000000000+000001295+0000010538+0000000000+I40000010538+0000000000+Z
103278001103278001-091415     103278006003000329113W/GLS OCC. LOVE 2PC 2800000001000+00008771+00000+0001T   00009648+0006471813          1400 HW7515               1AZ
103278002103278112-116038     103278006009681820246TCS CARRIER BAG MIDI   0000001000+00000035+00000+0001T   00000035+0000001813          1400 HW7090               1AZ
103278003103278080-000133     103278006003000535613CARD&ENV MINI ASTD DSGN0000001000+00000437+00000+0001T   00000437+0000001813          1400 HW7112               1AZ
103279000103279               103279               170213BO     1400+00000+BO0000001578+0000001578+000000000+000000221+0000001790+0000000009+I20000000000+0000001790+Z
103279001103279077-000303     103279006001023593757GIFT-BAG PAPER MED     0000001000+00001578+00000+0001T   00001578+0000001814          1400 HW7112               1AZ
103280000103280               103280               170213BO     1400+00000+BO0000000437+0000000437+000000000+000000062+0000000490+0000000009+I20000000000+0000000490+Z
103280001103280080-000133-A   103280006003000647019MINI VALENTINES CARD   0000001000+00000437+00000+0001T   00000437+0000001818          1400 HW7112               1AZ
103281000103281               103281               170213BO     1400+00000+BO0000000613+0000000613+000000000+000000086+0000000699+0000000000+I40000000699+0000000000+Z
103281001103281903-000849     103281008692806080083SWT SNACK BISCUIT 70g  0000001000+00000613+00000+0001T   00000613+0000001819          1400 HW7150               1AZ
103282000103282               103282               170213BO     1400+00000+BO0000000437+0000000437+000000000+000000062+0000000490+0000000009+I20000000000+0000000490+Z
103282001103282080-000133-A   103282006003000647019MINI VALENTINES CARD   0000001000+00000437+00000+0001T   00000437+0000001820          1400 HW7112               1AZ
103283000103283               103283               170213BO     1400+00000+BO0000004384+0000004384+000000000+000000614+0000004990+0000000008+I20000000000+0000004990+Z
103283001103283565-000080     103283006003000643424NOVELTY BENDY          0000002000+00002192+00000+0001T   00002192+0000001820          1400 HW7745               1AZ
103284000103284               103284               170213BO     1400+00000+BO0000003068+0000003068+000000000+000000430+0000003490+0000000008+I20000000000+0000003490+Z
103284001103284566-000031     103284006003000283910STICKER BK TEACHER STIC0000001000+00002192+00000+0001T   00002192+0000001823          1400 HW7130               1AZ
103284002103284903-000481     103284006001704007481SWT MOO MILK-SHAKES 60G0000001000+00000876+00000+0001T   00000876+0000001823          1400 HW7150               1AZ
103285000103285               103285               170213BO     1400+00000+BO0000005963+0000005963+000000000+000000835+0000006790+0000000008+I20000000000+0000006790+Z
103285001103285077-000315     103285006003000181186GIFT-BAG 20x28cm MATT  0000001000+00001578+00000+0001T   00001578+0000001823          1400 HW7112               1AZ
103285002103285368-000001     103285006003000097982Plush Bear 25cm        0000001000+00004385+00000+0001T   00004385+0000001823          1400 HW7745               1AZ
103286000103286               103286               170213BO     1400+00000+BO0000005260+0000005260+000000000+000000737+0000005990+0000000007+I20000000000+0000005990+Z
103286001103286073-000519     103286006001023871763COSMETIC-BG CYLINDRICAL0000001000+00003507+00000+0001T   00003507+0000001824          1400 HW7200               1AZ
103286002103286565-000043     103286006003000109562NOVELTY BALL FUNNY FACE0000001000+00001753+00000+0001T   00001753+0000001824          1400 HW7745               1AZ
103287000103287               103287               170213BO     1400+00000+BO0000003944+0000003944+000000000+000000553+0000004490+0000000007+I20000000000+0000004490+Z
103287001103287077-000312     103287006001023608697GIFT-BAG 10X35CM GLOSS 0000001000+00001314+00000+0001T   00001314+0000001825          1400 HW7112               1AZ
103287002103287018-000129     103287006001023403353MUG OCC. LOVE V-SHAPE  0000001000+00002630+00000+0001T   00002630+0000001825          1400 HW7515               1AZ
103288000103288               103288               170213BO     1400+00000+BO0000000035+0000000035+000000000+000000005+0000000040+0000000000+I20000000000+0000000040+Z
103288001103288112-116038     103288006009681820246TCS CARRIER BAG MIDI   0000001000+00000035+00000+0001T   00000035+0000001826          1400 HW7090               1AZ
103289000103289               103289               170213BO     1400+00000+BO0000013200+0000013200+000000000+000001850+0000015050+0000000000+I40000015050+0000000000+Z
103289001103289466-000106     103289006003000128112BALL PL 20CM BASKETBALL0000001000+00003507+00000+0001T   00003507+0000001833          1400 HW7785               1AZ
103289002103289267-000905     103289006003000636211PUZZLE FLOOR JIGSAW    0000001000+00007016+00000+0001T   00007016+0000001833          1400 HW7755               1AZ
103289003103289112-116069     103289006009681820277TCS CARRIER BAG JUMBO  0000001000+00000048+00000+0001T   00000048+0000001833          1400 HW7090               1AZ
103289004103289362-003005     103289006003000295166HAIR H/BAND SET 2PCE   0000001000+00002192+00000+0001T   00002192+0000001833          1400 HW7160               1AZ
103289005103289080-000133     103289006003000535613CARD&ENV MINI ASTD DSGN0000001000+00000437+00000+0001T   00000437+0000001833          1400 HW7112               1AZ
103290000103290               103290               170213BO     1400+00000+BO0000010170+0000010170+000000000+000001426+0000011590+0000000006+I20000000000+0000011590+Z
103290001103290903-000517     103290006001704012768SWT STRAWS FIZZY CHERRY0000001000+00001227+00000+0001T   00001227+0000001833          1400 HW7150               1AZ
103290002103290903-002852     103290000000087108040MENTOS ROLL SPEARMINT  0000001000+00001051+00000+0001T   00001051+0000001833          1400 HW7150               1AZ
103290003103290077-000316     103290006001023609731GIFT-BAG 25X32CM MATT  0000001000+00001753+00000+0001T   00001753+0000001833          1400 HW7112               1AZ
103290004103290018-050000     103290006003000412679MUG OCC LOVE TWIN BEAR 0000001000+00006139+00000+0001T   00006139+0000001833          1400 HW7515               1AZ
103291000103291               103291               170213BO     1400+00000+BO0000001400+0000001400+000000000+000000196+0000001590+0000000006+I20000000000+0000001590+Z
103291001103291018-000177     103291006001023797513MUG MINI LOVE ASSTD    0000002000+00000700+00000+0001T   00000700+0000001834          1400 HW7515               1AZ
103292000103292               103292               170213BO     1400+00000+BO0000004944+0000004944+000000000+000000693+0000005637+0000000000+I40000005637+0000000000+Z
103292001103292077-000303     103292006001023593757GIFT-BAG PAPER MED     0000002000+00001578+00000+0001T   00001578+0000001835          1400 HW7112               1AZ
103292002103292112-116038     103292006003000534906TCS CARRIER BAG MIDI   0000001000+00000035+00000+0001T   00000035+0000001835          1400 HW7090               1AZ
103292003103292903-000619     103292006003000672455SWT LOLLY STR/BRRY 140G0000001000+00001753+00000+0001T   00001753+0000001835          1400 HW7150               1AZ
103293000103293               103293               170213BO     1400+00000+BO0000005084+0000005084+000000000+000000713+0000005797+0000000000+I40000005797+0000000000+Z
103293001103293080-000124     103293006003000297733CARD & ENV VALENTINES  0000001000+00001578+00000+0001T   00001578+0000001836          1400 HW7112               1AZ
103293002103293077-000381     103293006003000247707GIFT-BAG 25X32CM S/COL 0000001000+00001753+00000+0001T   00001753+0000001836          1400 HW7112               1AZ
103293003103293903-000619     103293006003000672455SWT LOLLY STR/BRRY 140G0000001000+00001753+00000+0001T   00001753+0000001836          1400 HW7150               1AZ
103294000103294               103294               170213BO     1400+00000+BO0000008154+0000008154+000000000+000001143+0000009297+0000000000+I40000009297+0000000000+Z
103294001103294018-000129     103294006001023403353MUG OCC. LOVE V-SHAPE  0000001000+00002630+00000+0001T   00002630+0000001837          1400 HW7515               1AZ
103294002103294106-001119     103294006003000449972WATER BOTTLE ALUM 750ml0000001000+00003946+00000+0001T   00005262+0008171837          1400 HW7210               1AZ
103294003103294077-000315     103294006003000181186GIFT-BAG 20x28cm MATT  0000001000+00001578+00000+0001T   00001578+0000001837          1400 HW7112               1AZ
103295000103295               103295               170213BO     1400+00000+BO0000007717+0000007717+000000000+000001081+0000008798+0000000000+I40000008798+0000000000+Z
103295001103295368-000104     103295006001023751348PLUSH BEAR RUFFLED-LOOK0000001000+00006139+00000+0001T   00006139+0000001839          1400 HW7745               1AZ
103295002103295077-000303     103295006001023593757GIFT-BAG PAPER MED     0000001000+00001578+00000+0001T   00001578+0000001839          1400 HW7112               1AZ
103296000103296               103296               170213BO     1400+00000+BO0000014729+0000014729+000000000+000002065+0000016794+0000000000+I40000016794+0000000000+Z
103296001103296072-020309     103296006001023700995DOG-TOY DUMBELL F/BALL 0000001000+00002630+00000+0001T   00002630+0000001840          1400 HW7870               1AZ
103296002103296368-000265     103296006001023750914PLUSH BEAR 23CM ASSTD C0000001000+00006139+00000+0001T   00006139+0000001840          1400 HW7745               1AZ
103296003103296077-000303     103296006001023593757GIFT-BAG PAPER MED     0000001000+00001578+00000+0001T   00001578+0000001840          1400 HW7112               1AZ
103296004103296072-020314     103296006003000605453PET TOY PUP VINYL CHICK0000001000+00003069+00000+0001T   00003069+0000001840          1400 HW7870               1AZ
103296005103296077-000011-C   103296006001023808523TISSUE 10xSHTS RED     0000001000+00000876+00000+0001T   00000876+0000001840          1400 HW7112               1AZ
103296006103296080-000133-A   103296006003000647019MINI VALENTINES CARD   0000001000+00000437+00000+0001T   00000437+0000001840          1400 HW7112               1AZ
103297000103297               103297               170213BO     1400+00000+BO0000011972+0000011972+000000000+000001679+0000013651+0000000000+I40000013651+0000000000+Z
103297001103297018-005007     103297006003000515516MUG OCC. LOVE W/HEARTS 0000001000+00006139+00000+0001T   00006139+0000001845          1400 HW7515               1AZ
103297002103297903-000095     103297006001704011495SWT SPECKLED-EGGS 100G 0000001000+00002104+00000+0001T   00002104+0000001845          1400 HW7150               1AZ
103297003103297039-000100     10329700600300060614625CM WHITE CANDLE 6PC  0000001000+00002630+00000+0001T   00002630+0000001845          1400 HW7510               1AZ
103297004103297039-000023     103297006003000286188C/TAPERED 25CM M/PURPLE0000001000+00001051+00000+0001T   00001051+0000001845          1400 HW7510               1AZ
103297005103297112-116069     103297006009681820277TCS CARRIER BAG JUMBO  0000001000+00000048+00000+0001T   00000048+0000001845          1400 HW7090               1AZ
103298000103298               103298               170213BO     1400+00000+BO0000006576+0000006576+000000000+000000921+0000007497+0000000000+I40000007497+0000000000+Z
103298001103298039-000635     103298006001023774521CANDLE VTV 4PC WHITE   0000003000+00002192+00000+0001T   00002192+0000001854          1400 HW7510               1AZ
103299000103299               103299               170213BO     1400+00000+BO0000000350+0000000350+000000000+000000049+0000000390+0000000009+I20000000000+0000000390+Z
103299001103299903-000159     103299006003000417629SWT LB SMALL DUMMIE    0000001000+00000350+00000+0001T   00000350+0000001855          1400 HW7150               1AZ
103300000103300               103300               170213BO     1400+00000+BO0000010084+0000010084+000000000+000001413+0000011490+0000000007+I20000000000+0000011490+Z
103300001103300077-000381     103300006003000247707GIFT-BAG 25X32CM S/COL 0000001000+00001753+00000+0001T   00001753+0000001857          1400 HW7112               1AZ
103300002103300368-000184     103300006003000668298PLUSH LAMB 23cm        0000001000+00006139+00000+0001T   00006139+0000001857          1400 HW7745               1AZ
103300003103300566-000359     103300006003000582709STICKER BOOK LOVE SPARK0000001000+00002192+00000+0001T   00002192+0000001857          1400 HW7130               1AZ
103301000103301               103301               170213BO     1400+00000+BO0000015483+0000015483+000000000+000002169+0000017652+0000000000+I40000017652+0000000000+Z
103301001103301368-000614     103301006001023705808PLUSH LOVE 30cm        0000001000+00008771+00000+0001T   00008771+0000001900          1400 HW7745               1AZ
103301002103301112-116069     103301006009681820277TCS CARRIER BAG JUMBO  0000001000+00000048+00000+0001T   00000048+0000001900          1400 HW7090               1AZ
103301003103301560-000229     103301006003000469468ANIMALS BIG EYES ASSTD 0000001000+00006139+00000+0001T   00006139+0000001900          1400 HW7745               1AZ
103301004103301903-000151     103301006009803374411SWT SML RND R/BOW LOLLY0000001000+00000525+00000+0001T   00000525+0000001900          1400 HW7150               1AZ
103302000103302               103302               170213BO     1400+00000+BO0000002192+0000002192+000000000+000000307+0000002490+0000000009+I20000000000+0000002490+Z
103302001103302251-000002     103302006003000093991TAPE D-SIDED 24x1000mm 0000001000+00002192+00000+0001T   00002192+0000001901          1400 HW7810               1AZ
A17021300                                          09340480BOSLAVE 1                       HW72IC
A17021301                                          14405162BOSLAVE 1                       1IC1IC
A17021302                                          16254323BOSLAVE 1                       HW71IC
A17021303                                          17294398BOSLAVE 1                       HW71IC
C10324600                                          170213BO368-000001     17071132SLAVE 1     HW71IC0000000000+0000000000+0010000001000+
C10327500                                          170213BO039-091794     18051097SLAVE 1     HW71IC0000000000+0000000000+0010000001000-
M17021391                              CASH        BOSLAVE 1                       Z-REPORT No.   692TOTAL (Sales - Refunds)          10416.66       CASH TO BE BANKED                 4215.20       DEBIT CARDS                          0.00       CREDIT CARDS                      6201.46       Z-READING                        10416.66       AIRTIME DEBIT CARD SALES             0.00       AIRTIME CARD SALES                   0.00       OVERS/UNDERS                         0.00       AIRTIME CASH SALES                   0.00       GIFT CARDS                           0.00       GIFT CARD CASH SALES                 0.00       T O T A L  CASH PAYOUTS              0.00                                                                                                                                                                                                                                                                                                                                                      Z
M17021392                              CASH        BOABSENT                                                                                                                                                                                          ANNUAL LEAVE                                                                                                                                                                                    DAY OFF                                                                                                                                                                                         COMMENTS                                                                                                                                                                                                                                                                                                                                                                                       Z
Y17021300                                          BO00000000922954+000147
ZBO17021321043 SLAVE 1      SALES DATA                     NEXT INVOICE NO.  103303 0692
F093715496-056475         1701110929210000021ICSLAVE 1
F093715496-058484         1701110929210000071ICSLAVE 1
F094695031-000870-C       1702040809540000011ICSLAVE 1
X BO Slave 1 First invoice 103155 170213 Last invoice 103302 170213 Next invoice 103303 Total number of records 000000545 clbackup completed 21:04:16
