207903000207903               207903               170213BO     1400+00000+BO0000007014+0000007014+000000000+000000982+0000007990+0000000006+I20000000000+0000007990+Z
207903001207903004-071204     207903006003000624904USB IN-CAR CHARGER 2.1A0000001000+00003507+00000+0001T   00003507+0000000900          1400 GG8310               2BZ
207903002207903004-071206     207903006003000605156USB CABLE CHARGER      0000001000+00003507+00000+0001T   00003507+0000000900          1400 GG8310               2BZ
207904000207904               207904               170213BO     1400+00000+BO0000022798+0000022798+000000000+000003193+0000025991+0000000000+I40000025991+0000000000+Z
207904001207904105-001076     207904006003000279166CONTAINER CLIP LOCK 2L 0000001000+00005262+00000+0001T   00005262+0000000932          1400 GG8210               2BZ
207904002207904031-000868-A   207904006001023798534P/FRAME PL BLCK 10X15CM0000008000+00002192+00000+0001T   00002192+0000000932          1400 GG8510               2BZ
207905000207905               207905               170213BO     1400+00000+BO0000016702+0000016702+000000000+000002342+0000019044+0000000000+I40000019044+0000000000+Z
207905001207905112-116069     207905006009681820277TCS CARRIER BAG JUMBO  0000001000+00000048+00000+0001T   00000048+0000000940          1400 GG8090               2BZ
207905002207905105-001078     207905000700371637750CONTAINER 1,1L CLIP LOC0000002000+00001928+00000+0001T   00001928+0000000940          1400 GG8210               2BZ
207905003207905105-001005     207905006001023858214CONTAINERS MINI 6PCE   0000001000+00001402+00000+0001T   00001402+0000000940          1400 GG8210               2BZ
207905004207905007-000724     207905006003000225958NOTE MAGNETIC 60SHTS   0000001000+00001753+00000+0001T   00001753+0000000940          1400 GG8130               2BZ
207905005207905200-003024     207905006001023657299REFUSE BAGS 20PCE BLACK0000001000+00001753+00000+0001T   00001753+0000000940          1400 GG8214               2BZ
207905006207905306-000027     207905006009654960900COTTON WOOL PADS 2-PACK0000001000+00003507+00000+0001T   00003507+0000000940          1400 GG8200               2BZ
207905007207905071-002999-A   207905006003000611577PEN STICKBALL 10PCE ASS0000001000+00001753+00000+0001T   00001753+0000000940          1400 GG8130               2BZ
207905008207905306-000010     207905006001023752635T/BRUSH KIDDIES SET-5  0000001000+00002630+00000+0001T   00002630+0000000940          1400 GG8200               2BZ
207906000207906               207906               170213BO     1400+00000+BO0000010990+0000010990+000000000+000001542+0000012532+0000000000+I40000012532+0000000000+Z
207906001207906018-000127     207906006001023380289MUG OCC STRAIGHT LOVE  0000001000+00001578+00000+0001T   00001753+0006470952          1400 GG8515               2BZ
207906002207906040-000213     207906006001023617736CANDLE-HOLDER DAISY    0000002000+00001227+00000+0001T   00001227+0000000952          1400 GG8510               2BZ
207906003207906077-000011-D   207906006001023808554TISSUE-WRAP WHITE 10PCE0000001000+00000876+00000+0001T   00000876+0000000952          1400 GG8112               2BZ
207906004207906563-000318-L   207906006003000407088SERVIETTES 33cm RED    0000001000+00002192+00000+0001T   00002192+0000000952          1400 GG8214               2BZ
207906005207906039-000026     207906006001023551610C/TAPERED 25CM M/RED   0000002000+00001051+00000+0001T   00001051+0000000952          1400 GG8510               2BZ
207906006207906361-000114     207906006001023744074DOLL SML 15cm BENDABLE 0000001000+00001753+00000+0001T   00001753+0000000952          1400 GG8725               2BZ
207906007207906112-116038     207906006009681820246TCS CARRIER BAG MIDI   0000001000+00000035+00000+0001T   00000035+0000000952          1400 GG8090               2BZ
207907000207907               207907               170213BO     1400+00000+BO0000004329+0000004329+000000000+000000607+0000004930+0000000006+I20000000000+0000004930+Z
207907001207907077-000010-U   207907006001023168863CREPE-PAPER CERISE-PINK0000001000+00000788+00000+0001T   00000788+0000000953          1400 GG8112               2BZ
207907002207907077-000463     207907006003000321698G/BAG GLITTER MED20x28 0000001000+00002192+00000+0001T   00002192+0000000953          1400 GG8112               2BZ
207907003207907366-000275     207907006003000276752WEDDING DRESS-UP BADGE 0000001000+00001314+00000+0001T   00001753+0008180953          1400 GG8131               2BZ
207907004207907112-116038     207907006009681820246TCS CARRIER BAG MIDI   0000001000+00000035+00000+0001T   00000035+0000000953          1400 GG8090               2BZ
207908000207908               207908               170213BO     1400+00000+BO0000003542+0000003542+000000000+000000496+0000004030+0000000008+I20000000000+0000004030+Z
207908001207908133-000010-B   207908006003000682850CLEANING CLOTH ROLL 25 0000001000+00003507+00000+0001T   00003507+0000000955          1400 GG8212               2BZ
207908002207908112-116038     207908006009681820246TCS CARRIER BAG MIDI   0000001000+00000035+00000+0001T   00000035+0000000955          1400 GG8090               2BZ
207909000207909               207909               170213BO     1400+00000+BO0000001490+0000001490+000000000+000000209+0000001699+0000000000+I40000001699+0000000000+Z
207909001207909071-005214     207909006003000152544CELLOTAPE SUPER REFILL 0000001000+00001490+00000+0001T   00001490+0000001010          1400 GG8130               2BZ
207910000207910               207910               170213BO     1400+00000+BO0000001753+0000001753+000000000+000000246+0000001990+0000000009+I20000000000+0000001990+Z
207910001207910051-002406     207910006003000139415SPRAY PL TRIGGER 700ml 0000001000+00001753+00000+0001T   00001753+0000001010          1400 GG8820               2BZ
207911000207911               207911               170213BO     1400+00000+BO0000001753+0000001753+000000000+000000246+0000001990+0000000009+I20000000000+0000001990+Z
207911001207911362-000299     207911006003000654758HAIR CLIPS METAL WORDS 0000001000+00001753+00000+0001T   00001753+0000001011          1400 GG8160               2BZ
207912000207912               207912               170213BO     1400+00000+BO0000008440-0000000000+000000000+000000000+0000008440-0000000000+I20000000000+0000008440-Z
207912001207912001-999909     207912000000000999909STAFF-REFRESHMENTS     0000001000-00008440+00000+0001X   00000000+0000001012          0000 GG89092IC            2 Z
207913000207913               207913               170213BO     1400+00000+BO0000013175+0000013175+000000000+000001850+0000015025+0000000000+I40000015025+0000000000+Z
207913001207913077-000150-D   207913006003000054343GIFT-WRAP CELLPHANE CLR0000015000+00000876+00000+0001T   00000876+0000001043          1400 GG8112               2BZ
207913002207913112-116038     207913006009681820246TCS CARRIER BAG MIDI   0000001000+00000035+00000+0001T   00000035+0000001043          1400 GG8090               2BZ
207914000207914               207914               170213BO     1400+00000+BO0000008592+0000008592+000000000+000001204+0000009790+0000000006+I20000000000+0000009790+Z
207914001207914002-011120     207914006003000099559EGG CUP SILICONE KIDDIE0000001000+00000876+00000+0001T   00001314+0008121044          1400 GG8300               2BZ
207914002207914362-004000     207914000613153000225DISNEY T/BELL TRINKETS 0000001000+00000700+00000+0001T   00000876+0008181044          1400 GG8160               2BZ
207914003207914486-002315     207914006001023740526WALL-CLOCK ROUND 20CM  0000001000+00007016+00000+0001T   00007016+0000001044          1400 GG8510               2BZ
207915000207915               207915               170213BO     1400+00000+BO0000003507+0000003507+000000000+000000491+0000003998+0000000000+I40000003998+0000000000+Z
207915001207915108-001216     207915006003000010882SALAD BOWL PL 4.9L     0000001000+00003507+00000+0001T   00003507+0000001130          1400 GG8210               2BZ
207916000207916               207916               170213BO     1400+00000+BO0000004820+0000004820+000000000+000000676+0000005490+0000000006+I20000000000+0000005490+Z
207916001207916030-000010     207916006003000084395P/DOOR HANGER 2-ASSTD  0000001000+00001314+00000+0001T   00001490+0008181153          1400 GG8505               2BZ
207916002207916159-000041     207916006001023767684HOOK-HANGER 2PCE S/S   0000002000+00001753+00000+0001T   00001753+0000001153          1400 GG8200               2BZ
207917000207917               207917               170213BO     1400+00000+BO0000001314+0000001314+000000000+000000184+0000001490+0000000008+I20000000000+0000001490+Z
207917001207917107-004105     207917006002923010504BUCKET 9L OPEN         0000001000+00001314+00000+0001T   00001314+0000001154          1400 GG8210               2BZ
207918000207918               207918               170213BO     1400+00000+BO0000009206+0000009206+000000000+000001290+0000010490+0000000006+I20000000000+0000010490+Z
207918001207918567-011436     207918009780857260611BK STICKER GIRLS ACTIVI0000001000+00003507+00000+0001T   00003507+0000001216          1400 1IC757               2AZ
207918002207918567-011307     207918006003000598557BOOK ACTIVITY FUN WATER0000001000+00003069+00000+0001T   00003069+0000001216          1400 1IC757               2AZ
207918003207918567-011521     207918009781775954743BK EDU AFR SLIMKOPPE   0000001000+00002630+00000+0001T   00002630+0000001216          1400 1IC757               2AZ
207919000207919               207919               170213BO     1400+00000+BO0000017920+0000017920+000000000+000002511+0000020430+0000000001+I20000000000+0000020430+Z
207919001207919077-000303     207919006001023593757GIFT-BAG PAPER MED     0000001000+00001578+00000+0001T   00001578+0000001219          1400 1IC112               2AZ
207919002207919039-809558     207919006003000344376CANDLE PILLAR 12CM 4AST0000001000+00006139+00000+0001T   00006139+0000001219          1400 1IC510               2AZ
207919003207919018-005009     207919006001023725608MUG W/PLUSH-BEAR LOVE  0000001000+00003507+00000+0001T   00003507+0000001219          1400 1IC515               2AZ
207919004207919112-116038     207919006003000534906TCS CARRIER BAG MIDI   0000001000+00000035+00000+0001T   00000035+0000001219          1400 1IC090               2AZ
207919005207919903-000087     207919006001704000161SWT SPECKLED-EGGS 50G  0000001000+00001139+00000+0001T   00001139+0000001219          1400 1IC150               2AZ
207919006207919071-000672     207919006003000138975STATIONERY CLIPS PAPER 0000001000+00002192+00000+0001T   00002192+0000001219          1400 1IC130               2AZ
207919007207919071-005213     207919006001023690371CELLOTAPE 12mmx33m     0000001000+00000876+00000+0001T   00000876+0000001219          1400 1IC130               2AZ
207919008207919007-000160     207919006009685857286NOTE-BOOK A5 SHORTHAND 0000002000+00001227+00000+0001T   00001227+0000001219          1400 1IC130               2AZ
207920000207920               207920               170213BO     1400+00000+BO0000001490+0000001490+000000000+000000209+0000001699+0000000000+I40000001699+0000000000+Z
207920001207920077-000299     207920006003000395576G/BAG 32x25cm LRG LOVE 0000001000+00001490+00000+0001T   00001490+0000001240          1400 1IC112               2AZ
207921000207921               207921               170213BO     1400+00000+BO0000007923+0000007923+000000000+000001112+0000009030+0000000005+I20000000000+0000009030+Z
207921001207921306-000021-A   207921006001023891358EARBUDS COTTON 100PCE  0000001000+00000876+00000+0001T   00000876+0000001241          1400 1IC200               2AZ
207921002207921112-116038     207921006003000534906TCS CARRIER BAG MIDI   0000001000+00000035+00000+0001T   00000035+0000001241          1400 1IC090               2AZ
207921003207921306-000977     207921006003000559596FIRSTAID PLASTER 75PC  0000001000+00002630+00000+0001T   00002630+0000001241          1400 1IC200               2AZ
207921004207921306-000024-A   207921006003000577309COTTON-WOOL-PADS 80PC  0000001000+00001753+00000+0001T   00001753+0000001241          1400 1IC200               2AZ
207921005207921362-003003     207921006003000295616HAIR BAND SET 6PCE     0000001000+00001753+00000+0001T   00001753+0000001241          1400 1IC160               2AZ
207921006207921084-001598     207921006003000576609FOOT FILE PL 22cm      0000001000+00000876+00000+0001T   00000876+0000001241          1400 1IC200               2AZ
207922000207922               207922               170213BO     1400+00000+BO0000010256+0000010256+000000000+000001439+0000011695+0000000000+I40000011695+0000000000+Z
207922001207922252-000013     207922006001023488107CURTN-HOOK R6 ACETYLx500000001000+00000876+00000+0001T   00000876+0000001247          1400 HW7810               2AZ
207922002207922562-000504     207922006001023619327EDU CUBE RUBIX         0000002000+00002630+00000+0001T   00002630+0000001247          1400 HW7755               2AZ
207922003207922150-003733     207922006003000561735SINK STRAINER S/S 1PCE 0000001000+00001490+00000+0001T   00001490+0000001247          1400 HW7810               2AZ
207922004207922050-000364-Z   207922006001023777133PADLOCK IRON 38mm CARD 0000001000+00002630+00000+0001T   00002630+0000001247          1400 HW7855               2AZ
207923000207923               207923               170213BO     1400+00000+BO0000023280+0000023280+000000000+000003263+0000026543+0000000000+I40000026543+0000000000+Z
207923001207923107-004105     207923006009703860984BUCKET 9L OPEN         0000002000+00001314+00000+0001T   00001314+0000001317          1400 GG8210               2BZ
207923002207923024-091103     207923006003453014307BAKING-CUP MUFFIN 50PCE0000001000+00002192+00000+0001T   00002192+0000001317          1400 GG8300               2BZ
207923003207923563-000318-L   207923006003000407088SERVIETTES 33cm RED    0000001000+00002192+00000+0001T   00002192+0000001317          1400 GG8214               2BZ
207923004207923018-000170     207923006001023775528MUG OCC. LOVE 2PC MINI 0000001000+00002192+00000+0001T   00002192+0000001317          1400 GG8515               2BZ
207923005207923039-000114     207923006001023524058CANDLE T/LITE RED 3.5CM0000001000+00001753+00000+0001T   00001753+0000001317          1400 GG8510               2BZ
207923006207923301-085001     207923006003000297610ORN WATERBALL LOVE ASST0000001000+00004823+00000+0001T   00004823+0000001317          1400 GG8505               2BZ
207923007207923016-006425     207923006001023998170S/JAR GLS CLIP W/RIBBON0000002000+00002630+00000+0001T   00002630+0000001317          1400 GG8300               2BZ
207923008207923566-000068     207923006003000418046POP UP LOVE 2 ASSTD    0000001000+00002192+00000+0001T   00002192+0000001317          1400 GG8130               2BZ
207923009207923112-116069     207923006009681820277TCS CARRIER BAG JUMBO  0000001000+00000048+00000+0001T   00000048+0000001317          1400 GG8090               2BZ
207924000207924               207924               170213BO     1400+00000+BO0000017585+0000017585+000000000+000002463+0000020048+0000000000+I40000020048+0000000000+Z
207924001207924112-116069     207924006009681820277TCS CARRIER BAG JUMBO  0000001000+00000048+00000+0001T   00000048+0000001319          1400 GG8090               2BZ
207924002207924106-007130     207924006003000011025JUG PL 2.4L            0000001000+00003507+00000+0001T   00003507+0000001319          1400 GG8210               2BZ
207924003207924039-080942     207924006001023669872C/PILLAR RND WHT 10X7CM0000001000+00003507+00000+0001T   00003507+0000001319          1400 GG8510               2BZ
207924004207924039-000624     207924006003000054923C/SET 4PC PILLARS 5X8CM0000001000+00007016+00000+0001T   00007016+0000001319          1400 GG8510               2BZ
207924005207924039-080942     207924006001023669872C/PILLAR RND WHT 10X7CM0000001000+00003507+00000+0001T   00003507+0000001319          1400 GG8510               2BZ
207925000207925               207925               170213BO     1400+00000+BO0000003069+0000003069+000000000+000000430+0000003490+0000000009+I20000000000+0000003490+Z
207925001207925301-085008     207925006003000673933ORN OCC.LOVE TINSEL HRT0000001000+00003069+00000+0001T   00003069+0000001320          1400 GG8505               2BZ
207926000207926               207926               170213BO     1400+00000+BO0000012326+0000012326+000000000+000001726+0000014052+0000000000+I40000014052+0000000000+Z
207926001207926031-000923     207926006001023669933P/FRAME BLK W/WORDS    0000001000+00003507+00000+0001T   00003507+0000001343          1400 GG8510               2BZ
207926002207926001-091415     207926006003000329113W/GLS OCC. LOVE 2PC 2800000001000+00008771+00000+0001T   00009648+0006471343          1400 GG8515               2BZ
207926003207926112-116069     207926006009681820277TCS CARRIER BAG JUMBO  0000001000+00000048+00000+0001T   00000048+0000001343          1400 GG8090               2BZ
207927000207927               207927               170213BO     1400+00000+BO0000002630+0000002630+000000000+000000369+0000002990+0000000009+I20000000000+0000002990+Z
207927001207927463-000366     207927006001023789136SWIM W/NOODLE 150cm    0000001000+00002630+00000+0001T   00002630+0000001344          1400 GG8785               2BZ
207928000207928               207928               170213BO     1400+00000+BO0000007016+0000007016+000000000+000000983+0000007999+0000000000+I40000007999+0000000000+Z
207928001207928361-003214     207928006001023745002DOLL MED 29cm          0000001000+00007016+00000+0001T   00007016+0000001353          1400 GG8725               2BZ
207929000207929               207929               170213BO     1400+00000+BO0000003943+0000003943+000000000+000000553+0000004490+0000000006+I20000000000+0000004490+Z
207929001207929039-000114     207929006001023524058CANDLE T/LITE RED 3.5CM0000001000+00001753+00000+0001T   00001753+0000001354          1400 GG8510               2BZ
207929002207929006-000167-C   207929006003000516971BALLOONS PINK METALLIC 0000001000+00001314+00000+0001T   00001314+0000001354          1400 GG8131               2BZ
207929003207929007-000235     207929006003000134434LABELS RECTANGULAR 60pc0000001000+00000876+00000+0001T   00000876+0000001354          1400 GG8130               2BZ
207930000207930               207930               170213BO     1400+00000+BO0000007761+0000007761+000000000+000001089+0000008850+0000000000+I40000008850+0000000000+Z
207930001207930112-116069     207930006009681820277TCS CARRIER BAG JUMBO  0000001000+00000048+00000+0001T   00000048+0000001404          1400 GG8090               2BZ
207930002207930304-000720     207930006001023843050F/BUNCH ROSE 6-HEAD AST0000001000+00002630+00000+0001T   00002630+0000001404          1400 GG8510               2BZ
207930003207930304-001204     207930006001023737984FLOWER OCC. TEDDY/ROSES0000001000+00001402+00000+0001T   00001490+0006471404          1400 GG8510               2BZ
207930004207930304-001011     207930006001023806727FLWR ROSE RED W/BEAR   0000001000+00000613+00000+0001T   00000788+0006471404          1400 GG8510               2BZ
207930005207930077-000151     207930006008766114676GIFT-WRAP C/PHANE ASSTD0000001000+00000876+00000+0001T   00000876+0000001404          1400 GG8112               2BZ
207930006207930080-000127     207930006003000424351VALENTINES DAY 36x24CM 0000001000+00002192+00000+0001T   00002192+0000001404          1400 GG8112               2BZ
207931000207931               207931               170213BO     1400+00000+BO0000005120+0000005120+000000000+000000717+0000005830+0000000007+I20000000000+0000005830+Z
207931001207931018-005009     207931006001023725608MUG W/PLUSH-BEAR LOVE  0000001000+00003507+00000+0001T   00003507+0000001406          1400 GG8515               2BZ
207931002207931077-000303     207931006001023593757GIFT-BAG PAPER MED     0000001000+00001578+00000+0001T   00001578+0000001406          1400 GG8112               2BZ
207931003207931112-116038     207931006009681820246TCS CARRIER BAG MIDI   0000001000+00000035+00000+0001T   00000035+0000001406          1400 GG8090               2BZ
207932000207932               207932               170213BO     1400+00000+BO0000004239+0000004239+000000000+000000595+0000004834+0000000000+I40000004834+0000000000+Z
207932001207932018-000177     207932006001023797513MUG MINI LOVE ASSTD    0000002000+00000700+00000+0001T   00000700+0000001422          1400 GG8515               2BZ
207932002207932304-001204     207932006001023737984FLOWER OCC. TEDDY/ROSES0000002000+00001402+00000+0001T   00001490+0006471422          1400 GG8510               2BZ
207932003207932112-116038     207932006009681820246TCS CARRIER BAG MIDI   0000001000+00000035+00000+0001T   00000035+0000001422          1400 GG8090               2BZ
207933000207933               207933               170213BO     1400+00000+BO0000000145-0000000145-000000000+000000018-0000000170-0000000007+I20000000000+0000000170-Z
207933001207933004-071206     207933006003000605156USB CABLE CHARGER      0000001000-00003507+00000+0001T   00003507+0000001426          1400 GG83102IC            2 Z
207933002207933004-071204     207933006003000624904USB IN-CAR CHARGER 2.1A0000001000-00003507+00000+0001T   00003507+0000001426          1400 GG83102IC            2 Z
207933003207933566-000006     207933006001023671189STICKER-BOOK DRESS-UP  0000001000+00002630+00000+0001T   00002630+0000001426          1400 GG8130               2 Z
207933004207933304-001204     207933006001023737984FLOWER OCC. TEDDY/ROSES0000001000+00001402+00000+0001T   00001490+0006471426          1400 GG8510               2 Z
207933005207933018-000177     207933006001023797513MUG MINI LOVE ASSTD    0000002000+00000700+00000+0001T   00000700+0000001426          1400 GG8515               2 Z
207933006207933112-116038     207933006009681820246TCS CARRIER BAG MIDI   0000001000+00000035+00000+0001T   00000035+0000001426          1400 GG8090               2 Z
207933007207933304-001204     207933006001023737984FLOWER OCC. TEDDY/ROSES0000001000+00001402+00000+0001T   00001490+0006471426          1400 GG8510               2 Z
207934000207934               207934               170213BO     1400+00000+BO0000006785+0000006785+000000000+000000952+0000007730+0000000007+I20000000000+0000007730+Z
207934001207934200-000061     207934006003000506996STRAWS DRINKING CURLY  0000001000+00001490+00000+0001T   00001490+0000001427          1400 GG8214               2BZ
207934002207934567-011509     207934000814625012832BK COLOURING 96P LITTLE0000001000+00002630+00000+0001T   00002630+0000001427          1400 GG8757               2BZ
207934003207934567-000046     207934009780710512550BK EDU BIG & EASY NUM  0000001000+00002630+00000+0001T   00002630+0000001427          1400 GG8757               2BZ
207934004207934112-116038     207934006009681820246TCS CARRIER BAG MIDI   0000001000+00000035+00000+0001T   00000035+0000001427          1400 GG8090               2BZ
207935000207935               207935               170213BO     1400+00000+BO0000001578+0000001578+000000000+000000221+0000001790+0000000009+I20000000000+0000001790+Z
207935001207935080-000124     207935006003000297733CARD & ENV VALENTINES  0000001000+00001578+00000+0001T   00001578+0000001428          1400 GG8112               2BZ
207936000207936               207936               170213BO     1400+00000+BO0000000876+0000000876+000000000+000000123+0000000990+0000000009+I20000000000+0000000990+Z
207936001207936007-000235     207936006003000134434LABELS RECTANGULAR 60pc0000001000+00000876+00000+0001T   00000876+0000001428          1400 GG8130               2BZ
207937000207937               207937               170213BO     1400+00000+BO0000010525+0000010525+000000000+000001474+0000011990+0000000009+I20000000000+0000011990+Z
207937001207937466-001021     207937005014294062007CRICKET-SET SIZE 1     0000001000+00010525+00000+0001T   00010525+0000001433          1400 GG8785               2BZ
207938000207938               207938               170213BO     1400+00000+BO0000001753+0000001753+000000000+000000246+0000001990+0000000009+I20000000000+0000001990+Z
207938001207938566-001228     207938006003000284153STICKERS CRYSTAL ASSTD 0000001000+00001753+00000+0001T   00001753+0000001434          1400 GG8130               2BZ
207939000207939               207939               170213BO     1400+00000+BO0000007049+0000007049+000000000+000000987+0000008036+0000000000+I40000008036+0000000000+Z
207939001207939567-010565     207939006003000572472BOOK AFRIKAANS CAT 2   0000002000+00003507+00000+0001T   00003507+0000001436          1400 GG8757               2BZ
207939002207939112-116038     207939006009681820246TCS CARRIER BAG MIDI   0000001000+00000035+00000+0001T   00000035+0000001436          1400 GG8090               2BZ
207940000207940               207940               170213BO     1400+00000+BO0000039663+0000039663+000000000+000005568+0000045231+0000000000+I40000045231+0000000000+Z
207940001207940112-116069     207940006009681820277TCS CARRIER BAG JUMBO  0000001000+00000048+00000+0001T   00000048+0000001440          1400 GG8090               2BZ
207940002207940079-009702-G   207940008427973060787PAPER SIRIO A2 FUSHIA  0000003000+00001051+00000+0001T   00001051+0000001440          1400 GG8130               2BZ
207940003207940079-009702-B   207940008427973059491PAPER SIRIO A2 WHITE   0000003000+00001051+00000+0001T   00001051+0000001440          1400 GG8130               2BZ
207940004207940079-009702-D   207940008427973059354PAPER SIRIO A2 RED COL 0000003000+00001051+00000+0001T   00001051+0000001440          1400 GG8130               2BZ
207940005207940071-081091     207940006001151010287STAED/GENKEM ALL-STICK 0000002000+00001227+00000+0001T   00001227+0000001440          1400 GG8130               2BZ
207940006207940006-000324     207940006001023818393PARTY POPPER`S PCK-OF-60000004000+00001753+00000+0001T   00001753+0000001440          1400 GG81312IC            2BZ
207940007207940006-000803     207940006003000653676STREAMERS SET 3ROLLS   0000002000+00002630+00000+0001T   00002630+0000001440          1400 GG8131               2BZ
207940008207940006-000805     207940000013994092418STREAMERS 10-ROLLS     0000003000+00001490+00000+0001T   00001490+0000001440          1400 GG8131               2BZ
207940009207940006-000804     207940006003000574445STREAMERS 6-ROLLS 2.5cm0000001000+00001753+00000+0001T   00001753+0000001440          1400 GG8131               2BZ
207940010207940564-001028     207940006001023708663BUBBLE CELEBRATION 6ml 0000003000+00003069+00000+0001T   00003069+0000001440          1400 GG8131               2BZ
207941000207941               207941               170213BO     1400+00000+BO0000005262+0000005262+000000000+000000737+0000005990+0000000009+I20000000000+0000005990+Z
207941001207941051-600682     207941006003000267040BIRD FEEDER 11x30cm RND0000001000+00005262+00000+0001T   00005262+0000001440          1400 GG8820               2BZ
207942000207942               207942               170213BO     1400+00000+BO0000003452+0000003452+000000000+000000485+0000003937+0000000000+I40000003937+0000000000+Z
207942001207942565-000071     207942006003000643387NOVELTY WIND UP CHATTER0000003000+00001139+00000+0001T   00001139+0000001441          1400 GG8745               2BZ
207942002207942112-116038     207942006009681820246TCS CARRIER BAG MIDI   0000001000+00000035+00000+0001T   00000035+0000001441          1400 GG8090               2BZ
207943000207943               207943               170213BO     1400+00000+BO0000001314+0000001314+000000000+000000184+0000001490+0000000008+I20000000000+0000001490+Z
207943001207943077-000470     207943006003000330171G-BAG DESGN SML 11X14CM0000001000+00001314+00000+0001T   00001314+0000001442          1400 GG8112               2BZ
207944000207944               207944               170213BO     1400+00000+BO0000012486+0000012486+000000000+000001750+0000014230+0000000006+I20000000000+0000014230+Z
207944001207944079-000345     207944006001023890146FELT-TIP PENS 8PCE     0000001000+00003069+00000+0001T   00003069+0000001443          1400 GG8130               2BZ
207944002207944077-000399     207944006003000139514GIFT BAG 18X23CM E/DAY 0000001000+00001490+00000+0001T   00001490+0000001443          1400 GG8112               2BZ
207944003207944077-000382     207944006003000247820GIFT-BAG MED 18X23CM   0000001000+00001753+00000+0001T   00001753+0000001443          1400 GG8112               2BZ
207944004207944112-116038     207944006009681820246TCS CARRIER BAG MIDI   0000001000+00000035+00000+0001T   00000035+0000001443          1400 GG8090               2BZ
207944005207944560-000229     207944006003000469468ANIMALS BIG EYES ASSTD 0000001000+00006139+00000+0001T   00006139+0000001443          1400 GG8745               2BZ
207945000207945               207945               170213BO     1400+00000+BO0000002278+0000002278+000000000+000000320+0000002590+0000000008+I20000000000+0000002590+Z
207945001207945071-000874     207945006003000010110RUB-BANDS PLN BAG-30   0000001000+00000525+00000+0001T   00000525+0000001445          1400 GG8130               2BZ
207945002207945007-000050     207945006001023528285DISPLAY-ENVELOPE A4    0000001000+00001753+00000+0001T   00001753+0000001445          1400 GG8130               2BZ
207946000207946               207946               170213BO     1400+00000+BO0000002630+0000002630+000000000+000000369+0000002999+0000000000+I40000002999+0000000000+Z
207946001207946089-000191     207946006003000430185KEY CHAIN BEAR 10CM    0000001000+00002630+00000+0001T   00002630+0000001446          1400 GG8205               2BZ
207947000207947               207947               170213BO     1400+00000+BO0000006487+0000006487+000000000+000000910+0000007390+0000000007+I20000000000+0000007390+Z
207947001207947031-005919     207947006003000580576P/FRAME PL PLAIN 13X18 0000001000+00002630+00000+0001T   00002630+0000001447          1400 GG8510               2BZ
207947002207947031-005815     207947009320760100019P/FRAME-CLIP 10x15cm   0000001000+00001227+00000+0001T   00001227+0000001447          1400 GG8510               2BZ
207947003207947031-005918     207947006003000580453P/FRAME PL PLAIN 10X15 0000001000+00002630+00000+0001T   00002630+0000001447          1400 GG8510               2BZ
207948000207948               207948               170213BO     1400+00000+BO0000002789+0000002789+000000000+000000392+0000003181+0000000000+I40000003181+0000000000+Z
207948001207948079-009700-D   207948006003000545711PAPER SIRIO A4 RED COL.0000006000+00000306+00000+0001T   00000306+0000001451          1400 GG8130               2BZ
207948002207948079-009700-B   207948006003000547661PAPER SIRIO A4 WHITE   0000003000+00000306+00000+0001T   00000306+0000001451          1400 GG8130               2BZ
207948003207948112-116038     207948006009681820246TCS CARRIER BAG MIDI   0000001000+00000035+00000+0001T   00000035+0000001451          1400 GG8090               2BZ
207949000207949               207949               170213BO     1400+00000+BO0000004733+0000004733+000000000+000000663+0000005390+0000000006+I20000000000+0000005390+Z
207949001207949077-000321     207949006001023677501GIFT-BAG 11X14CM E/D FL0000001000+00000613+00000+0001T   00000613+0000001455          1400 GG8112               2BZ
207949002207949077-000317     207949006001023609748GIFT-BAG 11X14CM E/D AN0000001000+00000613+00000+0001T   00000613+0000001455          1400 GG8112               2BZ
207949003207949079-000013     207949006001023463890P/CRAYONS 24COL 18cm   0000001000+00003507+00000+0001T   00003507+0000001455          1400 GG8130               2BZ
207950000207950               207950               170213BO     1400+00000+BO0000006139+0000006139+000000000+000000860+0000006990+0000000009+I20000000000+0000006990+Z
207950001207950368-000175     207950006003000270316PLUSH BEAR 4 ASSTD 18CM0000001000+00006139+00000+0001T   00006139+0000001524          1400 GG8745               2BZ
207951000207951               207951               170213BO     1400+00000+BO0000002630+0000002630+000000000+000000369+0000002999+0000000000+I40000002999+0000000000+Z
207951001207951466-000584     207951006001023628787SKIPPING-ROPE          0000001000+00002630+00000+0001T   00002630+0000001525          1400 GG8785               2BZ
207952000207952               207952               170213BO     1400+00000+BO0000001578+0000001578+000000000+000000221+0000001790+0000000009+I20000000000+0000001790+Z
207952001207952080-000124     207952006003000297733CARD & ENV VALENTINES  0000001000+00001578+00000+0001T   00001578+0000001527          1400 GG8112               2BZ
207953000207953               207953               170213BO     1400+00000+BO0000006400+0000006400+000000000+000000897+0000007290+0000000007+I20000000000+0000007290+Z
207953001207953077-000380     207953006003000247585GIFT-BAG 33X45CM S/COL 0000001000+00002455+00000+0001T   00002455+0000001527          1400 GG8112               2BZ
207953002207953080-000127     207953006003000424351VALENTINES DAY 36x24CM 0000001000+00002192+00000+0001T   00002192+0000001527          1400 GG8112               2BZ
207953003207953089-000019     207953006003000092291K/CHAIN MINI BOOT 13cm 0000001000+00001753+00000+0001T   00001753+0000001527          1400 GG8205               2BZ
207954000207954               207954               170213BO     1400+00000+BO0000001051+0000001051+000000000+000000148+0000001190+0000000009+I20000000000+0000001190+Z
207954001207954079-009702-G   207954008427973060787PAPER SIRIO A2 FUSHIA  0000001000+00001051+00000+0001T   00001051+0000001528          1400 GG8130               2BZ
207955000207955               207955               170213BO     1400+00000+BO0000012274+0000012274+000000000+000001721+0000013995+0000000000+I40000013995+0000000000+Z
207955001207955306-000024-A   207955006003000577309COTTON-WOOL-PADS 80PC  0000001000+00001753+00000+0001T   00001753+0000001530          1400 GG8200               2BZ
207955002207955306-000021-A   207955006001023891358EARBUDS COTTON 100PCE  0000001000+00000876+00000+0001T   00000876+0000001530          1400 GG8200               2BZ
207955003207955306-000024-A   207955006003000577309COTTON-WOOL-PADS 80PC  0000001000+00001753+00000+0001T   00001753+0000001530          1400 GG8200               2BZ
207955004207955032-000333     207955006003000220236MIRROR WALL 4PC SET    0000002000+00003946+00000+0001T   00003946+0000001530          1400 GG8510               2BZ
207956000207956               207956               170213BO     1400+00000+BO0000025304+0000025304+000000000+000003546+0000028850+0000000000+I40000028850+0000000000+Z
207956001207956204-000020     207956006003000573264MEMO HOLDER WINE BOTTLS0000001000+00001578+00000+0001T   00001578+0000001538          1400 GG8300               2BZ
207956002207956071-001124     207956006001023802873MARKERS WHITEBOARD 3PCE0000001000+00002630+00000+0001T   00002630+0000001538          1400 GG8130               2BZ
207956003207956007-010502     207956006003000455270WIPE & CHALK 60X45CM   0000001000+00015788+00000+0001T   00015788+0000001538          1400 GG8130               2BZ
207956004207956112-116069     207956006009681820277TCS CARRIER BAG JUMBO  0000001000+00000048+00000+0001T   00000048+0000001538          1400 GG8090               2BZ
207956005207956106-001107     207956006003000467242WATER BOTTLE 1L RUBBER 0000002000+00002630+00000+0001T   00002630+0000001538          1400 GG8210               2BZ
207957000207957               207957               170213BO     1400+00000+BO0000006359+0000006359+000000000+000000892+0000007250+0000000001+I20000000000+0000007250+Z
207957001207957027-783002     207957006001023874658SCOURERS FOAM PACK OF 30000001000+00001490+00000+0001T   00001490+0000001540          1400 GG8212               2BZ
207957002207957012-000001     207957006003000331048MICRO PLATE-COVER 26X6 0000001000+00001753+00000+0001T   00002192+0008191540          1400 GG8300               2BZ
207957003207957566-000200     207957006003000384174STICKER PUFFY NEON     0000001000+00000876+00000+0001T   00000876+0000001540          1400 GG8130               2BZ
207957004207957041-007001-B   207957006003000636983H/GLOW LIQUID LAVENDER 0000001000+00002192+00000+0001T   00002192+0000001540          1400 GG8200               2BZ
207957005207957112-116069     207957006009681820277TCS CARRIER BAG JUMBO  0000001000+00000048+00000+0001T   00000048+0000001540          1400 GG8090               2BZ
207958000207958               207958               170213BO     1400+00000+BO0000002978+0000002978+000000000+000000419+0000003390+0000000007+I20000000000+0000003390+Z
207958001207958077-000011-L   207958006001023808585P/TISSUE BRIGHT 10SHEET0000001000-00000876+00000+0001T   00000876+0000001542          1400 GG81122IC            2 Z
207958002207958071-081100-A   207958006003000326426GLUE-STICK 25g 2pk     0000001000+00001490+00000+0001T   00001490+0000001542          1400 GG8130               2BZ
207958003207958077-000010-C   207958006001023123879CREPE-PAPER RED        0000002000+00000788+00000+0001T   00000788+0000001542          1400 GG8112               2BZ
207958004207958077-000010-R   207958006001023123916CREPE-PAPER CANARY-YELL0000001000+00000788+00000+0001T   00000788+0000001542          1400 GG8112               2BZ
207959000207959               207959               170213BO     1400+00000+BO0000001314+0000001314+000000000+000000184+0000001490+0000000008+I20000000000+0000001490+Z
207959001207959077-000310     207959006001023608635GIFT-BAG 18X23CM GLOSS 0000001000+00001314+00000+0001T   00001314+0000001542          1400 GG8112               2BZ
207960000207960               207960               170213BO     1400+00000+BO0000009237+0000009237+000000000+000001295+0000010532+0000000000+I40000010532+0000000000+Z
207960001207960006-000167-F   207960006003000517411BALLOONS SILV METALLIC 0000001000+00001314+00000+0001T   00001314+0000001543          1400 GG8131               2BZ
207960002207960006-000166-C   207960006003000516377BALLOONS LRG 6PC PINK  0000002000+00001314+00000+0001T   00001314+0000001543          1400 GG8131               2BZ
207960003207960565-000040     207960006008766115635NOVELTY ICON BEANIE    0000002000+00002630+00000+0001T   00002630+0000001543          1400 GG8745               2BZ
207960004207960112-116038     207960006009681820246TCS CARRIER BAG MIDI   0000001000+00000035+00000+0001T   00000035+0000001543          1400 GG8090               2BZ
207961000207961               207961               170213BO     1400+00000+BO0000002279+0000002279+000000000+000000320+0000002590+0000000009+I20000000000+0000002590+Z
207961001207961027-000194     207961006001246602472MOP COMPLETE           0000001000+00002279+00000+0001T   00002279+0000001549          1400 GG8212               2BZ
207962000207962               207962               170213BO     1400+00000+BO0000005260+0000005260+000000000+000000738+0000005990+0000000008+I20000000000+0000005990+Z
207962001207962031-005918     207962006003000580453P/FRAME PL PLAIN 10X15 0000001000+00002630+00000+0001T   00002630+0000001557          1400 GG8510               2BZ
207962002207962200-000225     207962006008766126952BAKEPANS 5PCE          0000001000+00002630+00000+0001T   00002630+0000001557          1400 GG8214               2BZ
207963000207963               207963               170213BO     1400+00000+BO0000014063+0000014063+000000000+000001969+0000016030+0000000002+I20000000000+0000016030+Z
207963001207963566-000357     207963006003000582464STICKER ROOM DECOR LAMP0000004000+00003507+00000+0001T   00004385+0008151558          1400 GG8130               2BZ
207963002207963112-116038     207963006009681820246TCS CARRIER BAG MIDI   0000001000+00000035+00000+0001T   00000035+0000001558          1400 GG8090               2BZ
207964000207964               207964               170213BO     1400+00000+BO0000003770+0000003770+000000000+000000528+0000004290+0000000008+I20000000000+0000004290+Z
207964001207964566-000068     207964006003000418046POP UP LOVE 2 ASSTD    0000001000+00002192+00000+0001T   00002192+0000001558          1400 GG8130               2BZ
207964002207964080-000124     207964006003000297733CARD & ENV VALENTINES  0000001000+00001578+00000+0001T   00001578+0000001558          1400 GG8112               2BZ
207965000207965               207965               170213BO     1400+00000+BO0000007228+0000007228+000000000+000001014+0000008240+0000000002+I20000000000+0000008240+Z
207965001207965079-006496     207965006003000160105GLITTER SHAKERS        0000001000+00001753+00000+0001T   00001753+0000001600          1400 GG8130               2BZ
207965002207965007-000120     207965006009698062714BOOK DRAWING A4 24-PAGE0000001000+00000525+00000+0001T   00000525+0000001600          1400 GG8130               2BZ
207965003207965566-000359     207965006003000582709STICKER BOOK LOVE SPARK0000001000+00002192+00000+0001T   00002192+0000001600          1400 GG8130               2BZ
207965004207965018-000177     207965006001023797513MUG MINI LOVE ASSTD    0000001000+00000700+00000+0001T   00000700+0000001600          1400 GG8515               2BZ
207965005207965038-047246     207965006001023873750PLACEMAT 44x28cm KIDS  0000002000+00000876+00000+0001T   00000876+0000001600          1400 GG8300               2BZ
207965006207965079-009700-D   207965006003000545711PAPER SIRIO A4 RED COL.0000001000+00000306+00000+0001T   00000306+0000001600          1400 GG8130               2BZ
207966000207966               207966               170213BO     1400+00000+BO0000004820+0000004820+000000000+000000676+0000005490+0000000006+I20000000000+0000005490+Z
207966001207966903-000619     207966006003000672455SWT LOLLY STR/BRRY 140G0000001000+00001753+00000+0001T   00001753+0000001601          1400 GG8150               2BZ
207966002207966077-000310     207966006001023608635GIFT-BAG 18X23CM GLOSS 0000001000+00001314+00000+0001T   00001314+0000001601          1400 GG8112               2BZ
207966003207966089-000019     207966006003000092291K/CHAIN MINI BOOT 13cm 0000001000+00001753+00000+0001T   00001753+0000001601          1400 GG8205               2BZ
207967000207967               207967               170213BO     1400+00000+BO0000011399+0000011399+000000000+000001597+0000012990+0000000006+I20000000000+0000012990+Z
207967001207967174-000303     207967006003000053605TRAVEL NECK WALLET     0000001000+00003507+00000+0001T   00003507+0000001611          1400 GG8205               2BZ
207967002207967080-000113     207967006003000237449CARD&ENVLPE - LOVE     0000001000+00001753+00000+0001T   00001753+0000001611          1400 GG8112               2BZ
207967003207967018-055000     207967006003000441457COFFEE PLUNGER PL 600ML0000001000+00006139+00000+0001T   00006139+0000001611          1400 GG8515               2BZ
207968000207968               207968               170213BO     1400+00000+BO0000004432+0000004432+000000000+000000621+0000005053+0000000000+I40000005053+0000000000+Z
207968001207968105-007000-B   207968006002580007374CONTAINER 3L ASSORTED  0000002000+00002192+00000+0001T   00002192+0000001615          1400 GG8210               2BZ
207968002207968112-116069     207968006009681820277TCS CARRIER BAG JUMBO  0000001000+00000048+00000+0001T   00000048+0000001615          1400 GG8090               2BZ
207969000207969               207969               170213BO     1400+00000+BO0000002678+0000002678+000000000+000000376+0000003050+0000000004+I20000000000+0000003050+Z
207969001207969002-000717     207969006001023775184CHOPPING-MATS FLEX 2PCE0000001000+00002630+00000+0001T   00002630+0000001620          1400 GG8300               2BZ
207969002207969112-116069     207969006009681820277TCS CARRIER BAG JUMBO  0000001000+00000048+00000+0001T   00000048+0000001620          1400 GG8090               2BZ
207970000207970               207970               170213BO     1400+00000+BO0000000876+0000000876+000000000+000000123+0000000999+0000000000+I40000000999+0000000000+Z
207970001207970077-000011-D   207970006001023808554TISSUE-WRAP WHITE 10PCE0000001000+00000876+00000+0001T   00000876+0000001622          1400 GG8112               2BZ
207971000207971               207971               170213BO     1400+00000+BO0000013112+0000013112+000000000+000001837+0000014940+0000000009+I20000000000+0000014940+Z
207971001207971265-000003     207971006003000651108B/O FIRE ENGINE LC PL  0000001000+00002192+00000+0001T   00002192+0000001623          1400 GG8710               2BZ
207971002207971077-000011-D   207971006001023808554TISSUE-WRAP WHITE 10PCE0000001000+00000876+00000+0001T   00000876+0000001623          1400 GG8112               2BZ
207971003207971077-000303     207971006001023593757GIFT-BAG PAPER MED     0000003000+00001578+00000+0001T   00001578+0000001623          1400 GG8112               2BZ
207971004207971019-000122     207971006001023809582PLANTER GALV 22cm ROUND0000001000+00005262+00000+0001T   00005262+0000001623          1400 GG8510               2BZ
207971005207971112-116069     207971006009681820277TCS CARRIER BAG JUMBO  0000001000+00000048+00000+0001T   00000048+0000001623          1400 GG8090               2BZ
207972000207972               207972               170213BO     1400+00000+BO0000003506+0000003506+000000000+000000492+0000003998+0000000000+I40000003998+0000000000+Z
207972001207972016-006509     207972006003000567355S/JAR GLS MINI LABEL   0000002000+00001753+00000+0001T   00002192+0008191624          1400 GG8300               2BZ
207973000207973               207973               170213BO     1400+00000+BO0000004380+0000004380+000000000+000000615+0000004990+0000000005+I20000000000+0000004990+Z
207973001207973077-000151     207973006008766114676GIFT-WRAP C/PHANE ASSTD0000005000+00000876+00000+0001T   00000876+0000001625          1400 GG81121IC            2BZ
207974000207974               207974               170213BO     1400+00000+BO0000000437+0000000437+000000000+000000062+0000000490+0000000009+I20000000000+0000000490+Z
207974001207974080-000133     207974006003000535613CARD&ENV MINI ASTD DSGN0000001000+00000437+00000+0001T   00000437+0000001631          1400 GG8112               2BZ
207975000207975               207975               170213BO     1400+00000+BO0000008771+0000008771+000000000+000001228+0000009999+0000000000+I40000009999+0000000000+Z
207975001207975039-000799     207975006001023692382CANDLES TEALITE 100PCE 0000001000+00008771+00000+0001T   00008771+0000001635          1400 GG8510               2BZ
207976000207976               207976               170213BO     1400+00000+BO0000005699+0000005699+000000000+000000798+0000006497+0000000000+I40000006497+0000000000+Z
207976001207976018-000130     207976006001023867537MUG OCC LOVE MINI+HEART0000001000+00003507+00000+0001T   00003507+0000001638          1400 GG8515               2BZ
207976002207976080-000127     207976006003000424351VALENTINES DAY 36x24CM 0000001000+00002192+00000+0001T   00002192+0000001638          1400 GG8112               2BZ
207977000207977               207977               170213BO     1400+00000+BO0000012325+0000012325+000000000+000001727+0000014052+0000000000+I40000014052+0000000000+Z
207977001207977112-116069     207977006009681820277TCS CARRIER BAG JUMBO  0000001000+00000048+00000+0001T   00000048+0000001640          1400 GG8090               2BZ
207977002207977077-000289     207977006001023901996GIFT BOX 20x25x11cm    0000001000+00001753+00000+0001T   00001753+0000001640          1400 GG8112               2BZ
207977003207977368-000265     207977006001023750914PLUSH BEAR 23CM ASSTD C0000001000+00006139+00000+0001T   00006139+0000001640          1400 GG8745               2BZ
207977004207977368-000001     207977006003000097982Plush Bear 25cm        0000001000+00004385+00000+0001T   00004385+0000001640          1400 GG8745               2BZ
207978000207978               207978               170213BO     1400+00000+BO0000001578+0000001578+000000000+000000221+0000001790+0000000009+I20000000000+0000001790+Z
207978001207978080-000124     207978006003000297733CARD & ENV VALENTINES  0000001000+00001578+00000+0001T   00001578+0000001641          1400 GG8112               2BZ
207979000207979               207979               170213BO     1400+00000+BO0000015783+0000015783+000000000+000002210+0000017993+0000000000+I40000017993+0000000000+Z
207979001207979079-000334     207979006003000670437THERAPY P/CRAYONS 18   0000001000+00005262+00000+0001T   00005262+0000001642          1400 GG8130               2BZ
207979002207979567-011343     207979006003000630592BK COLOURING THERAPY   0000001000+00003507+00000+0001T   00003507+0000001642          1400 GG8757               2BZ
207979003207979567-011437     207979009781847508683BK COLOURING GIRLS     0000001000+00003507+00000+0001T   00003507+0000001642          1400 GG8757               2BZ
207979004207979567-011436     207979009780857260611BK STICKER GIRLS ACTIVI0000001000+00003507+00000+0001T   00003507+0000001642          1400 GG8757               2BZ
207980000207980               207980               170213BO     1400+00000+BO0000005256+0000005256+000000000+000000736+0000005992+0000000000+I40000005992+0000000000+Z
207980001207980903-000844     207980005010478432567SWT CANDY DL LUV HEARTS0000004000+00001314+00000+0001T   00001314+0000001643          1400 GG8150               2BZ
207981000207981               207981               170213BO     1400+00000+BO0000005612+0000005612+000000000+000000786+0000006390+0000000008+I20000000000+0000006390+Z
207981001207981077-000318     207981006001023609755GIFT-BAG 18X23CM E/D AN0000001000+00001227+00000+0001T   00001227+0000001644          1400 GG8112               2BZ
207981002207981082-007582     207981006003000465804SUNGLASSES EMPORIUM    0000001000+00004385+00000+0001T   00004385+0000001644          1400 GG8160               2BZ
207982000207982               207982               170213BO     1400+00000+BO0000013639+0000013639+000000000+000001911+0000015550+0000000000+I40000015550+0000000000+Z
207982001207982051-600515     207982006003000491957FLORAL FOAM BRICK GREEN0000002000+00002192+00000+0001T   00002192+0000001646          1400 GG8820               2BZ
207982002207982112-116069     207982006009681820277TCS CARRIER BAG JUMBO  0000001000+00000048+00000+0001T   00000048+0000001646          1400 GG8090               2BZ
207982003207982039-080959     207982006003000048922CANDLE PILLAR BALL 8CM 0000003000+00003069+00000+0001T   00003069+0000001646          1400 GG8510               2BZ
207983000207983               207983               170213BO     1400+00000+BO0000007048+0000007048+000000000+000000988+0000008030+0000000006+I20000000000+0000008030+Z
207983001207983072-020252     207983006003000452200PET DOG TOY RUBBER BONE0000001000+00003507+00000+0001T   00003507+0000001647          1400 GG8870               2BZ
207983002207983306-000016     207983006001023887955T/BRUSH KIDDIES W/CAP  0000001000+00000876+00000+0001T   00000876+0000001647          1400 GG8200               2BZ
207983003207983366-006103     207983006001023786944DRESS UP FACE PAINT SET0000001000+00002630+00000+0001T   00002630+0000001647          1400 GG8131               2BZ
207983004207983112-116038     207983006009681820246TCS CARRIER BAG MIDI   0000001000+00000035+00000+0001T   00000035+0000001647          1400 GG8090               2BZ
207984000207984               207984               170213BO     1400+00000+BO0000009640-0000000000+000000000+000000000+0000009640-0000000000+I20000000000+0000009640-Z
207984001207984001-999913     207984000000000999913BUDGET - CAKE          0000001000-00009640+00000+0001X   00000000+0000001701          0000 GG89142IC            2 Z
207985000207985               207985               170213BO     1400+00000+BO0000008231+0000008231+000000000+000001155+0000009386+0000000000+I40000009386+0000000000+Z
207985001207985106-001099     207985006003000653447WATER BOTTLE 650ml     0000003000+00002630+00000+0001T   00002630+0000001746          1400 1IC210               2AZ
207985002207985112-116038     207985006003000534906TCS CARRIER BAG MIDI   0000001000+00000035+00000+0001T   00000035+0000001746          1400 1IC090               2AZ
207985003207985306-000020     207985006001023743145POCKET-TISSUES 10PCE   0000001000+00000306+00000+0001T   00000306+0000001746          1400 1IC200               2AZ
207986000207986               207986               170213BO     1400+00000+BO0000012011+0000012011+000000000+000001685+0000013696+0000000000+I40000013696+0000000000+Z
207986001207986903-002853     207986000000087108019MENTOS ROLL MINT       0000001000+00001051+00000+0001T   00001051+0000001749          1400 1IC150               2AZ
207986002207986071-000013     207986006003000535354BOARD DUSTER           0000001000+00002630+00000+0001T   00002630+0000001749          1400 1IC130               2AZ
207986003207986071-000212     207986006009608641190CHALK WHITE 12PCE      0000001000+00000437+00000+0001T   00000437+0000001749          1400 1IC130               2AZ
207986004207986007-010504     207986006002923014960BLACKBOARD EASEL       0000001000+00007893+00000+0001T   00007893+0000001749          1400 1IC130               2AZ
207987000207987               207987               170213BO     1400+00000+BO0000010570+0000010570+000000000+000001482+0000012052+0000000000+I40000012052+0000000000+Z
207987001207987266-001025     207987006003000108756BOYS TOYS SWORD 75cm   0000001000+00005262+00000+0001T   00005262+0000001751          1400 1IC710               2AZ
207987002207987112-116069     207987006009681820277TCS CARRIER BAG JUMBO  0000001000+00000048+00000+0001T   00000048+0000001751          1400 1IC090               2AZ
207987003207987403-000502-A   207987006003000467099M/BANK TIN 8x12.5cm    0000002000+00002630+00000+0001T   00002630+0000001751          1400 1IC510               2AZ
207988000207988               207988               170213BO     1400+00000+BO0000008854+0000008854+000000000+000001240+0000010094+0000000000+I40000010094+0000000000+Z
207988001207988082-000122-A   207988006003000403561READING GLS STRENGTH:1 0000001000+00005262+00000+0001T   00005262+0000001752          1400 1IC160               2AZ
207988002207988206-000150     207988006003000628667SLICER CUCUMBER        0000001000+00002192+00000+0001T   00002192+0000001752          1400 1IC321               2AZ
207988003207988903-000070     207988006001704001106SWT TOFFEE CREAMY 35g  0000002000+00000700+00000+0001T   00000700+0000001752          1400 1IC150               2AZ
207989000207989               207989               170213BO     1400+00000+BO0000006084+0000006084+000000000+000000853+0000006937+0000000000+I40000006937+0000000000+Z
207989001207989565-000049     207989006003000548156NOVELTY SLIME "BOOGERS"0000002000+00001490+00000+0001T   00001490+0000001754          1400 1IC745               2AZ
207989002207989112-116038     207989006003000534906TCS CARRIER BAG MIDI   0000001000+00000035+00000+0001T   00000035+0000001754          1400 1IC090               2AZ
207989003207989306-001680     207989006003000365081MANICURE NAIL ART KIT  0000001000+00003069+00000+0001T   00003069+0000001754          1400 1IC200               2AZ
A17021300                                          09335793BOSLAVE 2                       GG82IC
A17021301                                          10074968BOSLAVE 2                       GG82IC
B20794000                                          170213BO006-000324     14381814SLAVE 2     GG82IC0000043000+0000003000+0000000000000+
B20794001                                          170213BO006-000324     14382488SLAVE 2     GG82IC0000043000+0000004000+0000000000000+
B20794002                                          170213BO006-000803     14384909SLAVE 2     GG82IC0000043000+0000002000+0000000000000+
B20794003                                          170213BO006-000805     14385344SLAVE 2     GG82IC0000043000+0000003000+0000000000000+
B20794004                                          170213BO564-001028     14390760SLAVE 2     GG82IC0000043000+0000003000+0000000000000+
B20797300                                          170213BO077-000151     16253702SLAVE 2     GG81IC0000005000+0000004000+0000000000000+
M17021391                              CASH        BOSLAVE 2                       Z-REPORT No.   689TOTAL (Sales - Refunds)           7066.07       CASH TO BE BANKED                 2624.60       DEBIT CARDS                          0.00       CREDIT CARDS                      4260.67       Z-READING                         6885.27       AIRTIME DEBIT CARD SALES             0.00       AIRTIME CARD SALES                   0.00       OVERS/UNDERS                         0.00       AIRTIME CASH SALES                   0.00       GIFT CARDS                           0.00       GIFT CARD CASH SALES                 0.00       STAFF-REFRESHMENTS                  84.40       BUDGET - CAKE                       96.40       T O T A L  CASH PAYOUTS            180.80                                                                                                                                                                                                                                                      Z
M17021392                              CASH        BOABSENT                                                                                                                                                                                          ANNUAL LEAVE                                                                                                                                                                                    DAY OFF                                                                                                                                                                                         COMMENTS                                                                                                                                                                                                                                                                                                                                                                                       Z
Y17021300                                          BO00000000627913+000085
ZBO17021321043 SLAVE 2      SALES DATA                     NEXT INVOICE NO.  207990 0689
F093715496-056475         1701110929130000021ICSLAVE 2
F093715496-058484         1701110929130000071ICSLAVE 2
F094695031-000870-C       1702040809370000011ICSLAVE 2
X BO Slave 2 First invoice 207903 170213 Last invoice 207989 170213 Next invoice 207990 Total number of records 000000346 clbackup completed 21:04:18
