106785000106785               106785               170213BP     1400+00000+BP0000028895+0000028895+000000000+000004050+0000032945+0000000000+I40000032945+0000000000+Z
106785001106785112-116069     106785006009681820277TCS CARRIER BAG JUMBO  0000001000+00000048+00000+0001T   00000048+0000001019          1400 V12090               1BZ
106785002106785039-000799     106785006001023692382CANDLES TEALITE 100PCE 0000001000+00008771+00000+0001T   00008771+0000001019          1400 V12510               1BZ
106785003106785036-000013     106785006001246500860LINT REMOVER REFILLS   0000003000+00003946+00000+0001T   00003946+0000001019          1400 V12212               1BZ
106785004106785200-000025-A   106785006925406841054BAG ZIPPERSEAL 15PC    0000001000+00002192+00000+0001T   00002192+0000001019          1400 V12214               1BZ
106785005106785304-001141     106785006003000679133FLOWER MINI SUCCULENT  0000001000+00001139+00000+0001T   00001139+0000001019          1400 V12510               1BZ
106785006106785304-001142     106785006003000679256FLWR MINI SUCCULENT 7CM0000001000+00001490+00000+0001T   00001490+0000001019          1400 V12510               1BZ
106785007106785304-001141     106785006003000679133FLOWER MINI SUCCULENT  0000003000+00001139+00000+0001T   00001139+0000001019          1400 V12510               1BZ
106786000106786               106786               170213BP     1400+00000+BP0000004385+0000004385+000000000+000000614+0000004990+0000000009+I20000000000+0000004990+Z
106786001106786082-000120     106786006003000360727READING GLS STRENGTH:3 0000001000+00004385+00000+0001T   00004385+0000001020          1400 V12160               1BZ
106787000106787               106787               170213BP     1400+00000+BP0000005260+0000005260+000000000+000000738+0000005990+0000000008+I20000000000+0000005990+Z
106787001106787464-000110     106787006001023868824PLAYING-CARDS JUMBO    0000002000+00002630+00000+0001T   00002630+0000001023          1400 V12785               1BZ
106788000106788               106788               170213BP     1400+00000+BP0000001753+0000001753+000000000+000000246+0000001990+0000000009+I20000000000+0000001990+Z
106788001106788051-002402     106788006001023518347TRIGGER-SPRAYER  500ml 0000001000+00001753+00000+0001T   00001753+0000001023          1400 V12820               1BZ
106789000106789               106789               170213BP     1400+00000+BP0000001490+0000001490+000000000+000000209+0000001690+0000000009+I20000000000+0000001690+Z
106789001106789051-002401     106789006001023523570TRIGGER-SPRAYER   300ml0000001000+00001490+00000+0001T   00001490+0000001025          1400 V12820               1BZ
106790000106790               106790               170213BP     1400+00000+BP0000001139+0000001139+000000000+000000160+0000001290+0000000009+I20000000000+0000001290+Z
106790001106790046-000014     106790006001023725387BATTERIES SIZE:AAA 4PCE0000001000+00001139+00000+0001T   00001139+0000001030          1400 V12312               1BZ
106791000106791               106791               170213BP     1400+00000+BP0000003507+0000003507+000000000+000000491+0000003990+0000000008+I20000000000+0000003990+Z
106791001106791083-000305     106791006440024423302CIG-LIGHTER-GAS   300ml0000001000+00003507+00000+0001T   00003507+0000001031          1400 V12315               1BZ
106792000106792               106792               170213BP     1400+00000+BP0000001753+0000001753+000000000+000000246+0000001990+0000000009+I20000000000+0000001990+Z
106792001106792200-000211     106792006003000671847BAKING-PANS ALUM-FOIL  0000001000+00001753+00000+0001T   00001753+0000001045          1400 V12214               1BZ
106793000106793               106793               170213BP     1400+00000+BP0000002366+0000002366+000000000+000000332+0000002690+0000000008+I20000000000+0000002690+Z
106793001106793903-000200     106793006009826020234SWT CHOC RP CHOCO 23G  0000001000+00000788+00000+0001T   00000788+0000001048          1400 V12150               1BZ
106793002106793018-000127     106793006001023380289MUG OCC STRAIGHT LOVE  0000001000+00001578+00000+0001T   00001753+0006471048          1400 V12515               1BZ
106794000106794               106794               170213BP     1400+00000+BP0000003857+0000003857+000000000+000000541+0000004398+0000000000+I40000004398+0000000000+Z
106794001106794046-000010-A   106794006003000438778BATTERIES SIZE:AAA 4PCE0000001000+00002367+00000+0001T   00002367+0000001054          1400 V12312               1BZ
106794002106794564-000036     106794006001023708694BUBBLE W/PUZZLE        0000001000+00001490+00000+0001T   00001490+0000001054          1400 V12131               1BZ
106795000106795               106795               170213BP     1400+00000+BP0000007928+0000007928+000000000+000001111+0000009030+0000000009+I20000000000+0000009030+Z
106795001106795301-085007     106795006003000673698ORN OCC. LOVE S/PLAQUE 0000001000+00007893+00000+0001T   00007893+0000001055          1400 V12505               1BZ
106795002106795112-116038     106795006009681820246TCS CARRIER BAG MIDI   0000001000+00000035+00000+0001T   00000035+0000001055          1400 V12090               1BZ
106796000106796               106796               170213BP     1400+00000+BP0000001753+0000001753+000000000+000000246+0000001990+0000000009+I20000000000+0000001990+Z
106796001106796080-000117     106796006003000236350CARD & ENVELOPE THANK U0000001000+00001753+00000+0001T   00001753+0000001101          1400 V12112               1BZ
106797000106797               106797               170213BP     1400+00000+BP0000013896+0000013896+000000000+000001950+0000015840+0000000006+I20000000000+0000015840+Z
106797001106797112-116069     106797006009681820277TCS CARRIER BAG JUMBO  0000001000+00000048+00000+0001T   00000048+0000001139          1400 V12090               1BZ
106797002106797080-000127     106797006003000424351VALENTINES DAY 36x24CM 0000001000+00002192+00000+0001T   00002192+0000001139          1400 V12112               1BZ
106797003106797200-000035     106797006001023768810FOOD-BOWL-COVERS 5PCE  0000001000+00002630+00000+0001T   00002630+0000001139          1400 V12214               1BZ
106797004106797002-021040     106797006001023812216PARTY-PICKS 100PCE     0000001000+00000525+00000+0001T   00000525+0000001139          1400 V12300               1BZ
106797005106797018-005009     106797006001023725608MUG W/PLUSH-BEAR LOVE  0000001000+00003507+00000+0001T   00003507+0000001139          1400 V12515               1BZ
106797006106797903-000200     106797006009826020234SWT CHOC RP CHOCO 23G  0000003000+00000788+00000+0001T   00000788+0000001139          1400 V12150               1BZ
106797007106797018-000129     106797006001023403353MUG OCC. LOVE V-SHAPE  0000001000+00002630+00000+0001T   00002630+0000001139          1400 V12515               1BZ
106798000106798               106798               170213BP     1400+00000+BP0000001578+0000001578+000000000+000000221+0000001790+0000000009+I20000000000+0000001790+Z
106798001106798018-000127     106798006001023380289MUG OCC STRAIGHT LOVE  0000001000+00001578+00000+0001T   00001753+0006471140          1400 V12515               1BZ
106799000106799               106799               170213BP     1400+00000+BP0000006139+0000006139+000000000+000000860+0000006999+0000000000+I40000006999+0000000000+Z
106799001106799497-068614     106799000078257686148H/PUMP HIGH-O/PUT 36cm 0000001000+00006139+00000+0001T   00006139+0000001147          1400 V12787               1BZ
106800000106800               106800               170213BP     1400+00000+BP0000002926+0000002926+000000000+000000411+0000003330+0000000007+I20000000000+0000003330+Z
106800001106800039-000319-8   106800006003000443222B/CANDLES LRG NUMBER-8 0000001000+00000876+00000+0001T   00000876+0000001149          1400 V12510               1BZ
106800002106800039-000319-3   106800006003000442621B/CANDLES LRG NUMBER-3 0000001000+00000876+00000+0001T   00000876+0000001149          1400 V12510               1BZ
106800003106800039-000322     106800006001023524157B/CANDLES W/HOLDERS 24 0000001000+00001139+00000+0001T   00001139+0000001149          1400 V12510               1BZ
106800004106800112-116038     106800006009681820246TCS CARRIER BAG MIDI   0000001000+00000035+00000+0001T   00000035+0000001149          1400 V12090               1BZ
106801000106801               106801               170213BP     1400+00000+BP0000002804+0000002804+000000000+000000393+0000003190+0000000007+I20000000000+0000003190+Z
106801001106801002-000878     106801006001023770967STRAINER TEA WIRE 7cm  0000001000+00001490+00000+0001T   00001490+0000001206          1400 V12300               1BZ
106801002106801563-000317-B   106801006001023776174SERVIETTES PLN WHT PK400000001000+00001314+00000+0001T   00001314+0000001206          1400 V12214               1BZ
106802000106802               106802               170213BP     1400+00000+BP0000015212+0000015212+000000000+000002135+0000017347+0000000000+I40000017347+0000000000+Z
106802001106802112-116069     106802006009681820277TCS CARRIER BAG JUMBO  0000001000+00000048+00000+0001T   00000048+0000001208          1400 V12090               1BZ
106802002106802031-006541     106802006001023695062P/FRAME COLLAGE PL ASST0000001000+00005262+00000+0001T   00005262+0000001208          1400 V12510               1BZ
106802003106802903-000200     106802006009826020234SWT CHOC RP CHOCO 23G  0000002000+00000788+00000+0001T   00000788+0000001208          1400 V12150               1BZ
106802004106802083-000049     106802004891035200024CIG-LIGHTER DISPOSABLE 0000001000+00000437+00000+0001T   00000437+0000001208          1400 V12315               1BZ
106802005106802039-001023     106802006003000466337CANDLE TEA-LITE METALIC0000002000+00001753+00000+0001T   00001753+0000001208          1400 V12510               1BZ
106802006106802088-000084     106802006001023798060P/POURRI 120G ASSTD    0000001000+00001753+00000+0001T   00001753+0000001208          1400 V12212               1BZ
106802007106802103-000215     106802006003000568635BASKET WICKER/IRON     0000001000+00002630+00000+0001T   00002630+0000001208          1400 V12300               1BZ
106803000106803               106803               170213BP     1400+00000+BP0000011839+0000011839+000000000+000001658+0000013490+0000000007+I20000000000+0000013490+Z
106803001106803046-000012     106803006904708013062BATTERIES AA  CARD-OF-40000001000+00001314+00000+0001T   00001314+0000001235          1400 V12312               1CZ
106803002106803486-001017     106803006003000384501C/WALL QTZ PL RND 31cm 0000001000+00010525+00000+0001T   00010525+0000001235          1400 V12510               1CZ
106804000106804               106804               170213BP     1400+00000+BP0000002630+0000002630+000000000+000000369+0000002990+0000000009+I20000000000+0000002990+Z
106804001106804082-007581     106804006003000465767SUNGLASSES DESIGNER    0000001000+00002630+00000+0001T   00002630+0000001417          1400 V12160               1BZ
106805000106805               106805               170213BP     1400+00000+BP0000002014+0000002014+000000000+000000282+0000002296+0000000000+I40000002296+0000000000+Z
106805001106805564-000012     106805006001023130075BUBBLE BOTTLE MAGIC    0000001000+00000700+00000+0001T   00000700+0000001423          1400 V12131               1BZ
106805002106805107-004105     106805006009703860984BUCKET 9L OPEN         0000001000+00001314+00000+0001T   00001314+0000001423          1400 V12210               1BZ
106806000106806               106806               170213BP     1400+00000+BP0000006311+0000006311+000000000+000000885+0000007190+0000000006+I20000000000+0000007190+Z
106806001106806031-005821     106806006001023667786P/FRAME-GLS CLIP 21X30 0000001000+00002630+00000+0001T   00002630+0000001427          1400 V12510               1BZ
106806002106806031-005815     106806009320760100019P/FRAME-CLIP 10x15cm   0000003000+00001227+00000+0001T   00001227+0000001427          1400 V12510               1BZ
106807000106807               106807               170213BP     1400+00000+BP0000005291+0000005291+000000000+000000743+0000006034+0000000000+I40000006034+0000000000+Z
106807001106807077-000408     106807006003000145218G/BAG PP 15X21X7CM     0000006000+00000876+00000+0001T   00000876+0000001432          1400 V12112               1BZ
106807002106807112-116038     106807006009681820246TCS CARRIER BAG MIDI   0000001000+00000035+00000+0001T   00000035+0000001432          1400 V12090               1BZ
106808000106808               106808               170213BP     1400+00000+BP0000005612+0000005612+000000000+000000786+0000006390+0000000008+I20000000000+0000006390+Z
106808001106808079-000010     106808006001023173409P/CRAYONS 12-COL SHORT 0000001000+00001227+00000+0001T   00001227+0000001435          1400 V12130               1BZ
106808002106808036-000405     106808006001023630247CLOTHES DRYER PL 18-PEG0000001000+00004385+00000+0001T   00004385+0000001435          1400 V12212               1BZ
106809000106809               106809               170213BP     1400+00000+BP0000003507+0000003507+000000000+000000491+0000003990+0000000008+I20000000000+0000003990+Z
106809001106809071-005667     106809006003000153060STAPLER SET MTL W/STPLS0000001000+00003507+00000+0001T   00003507+0000001436          1400 V12130               1BZ
106810000106810               106810               170213BP     1400+00000+BP0000005262+0000005262+000000000+000000737+0000005999+0000000000+I40000005999+0000000000+Z
106810001106810366-000125     106810006003000006786DRESSUP WINGS/WAND/BAND0000001000+00005262+00000+0001T   00005262+0000001439          1400 V12131               1BZ
106811000106811               106811               170213BP     1400+00000+BP0000000743+0000000743+000000000+000000105+0000000840+0000000008+I20000000000+0000000840+Z
106811001106811903-000159     106811006003000417629SWT LB SMALL DUMMIE    0000001000+00000350+00000+0001T   00000350+0000001441          1400 V12150               1BZ
106811002106811903-000183     106811006003000451043SWT LB HEART LOLLY     0000001000+00000393+00000+0001T   00000393+0000001441          1400 V12150               1BZ
106812000106812               106812               170213BP     1400+00000+BP0000000262+0000000262+000000000+000000037+0000000290+0000000009+I20000000000+0000000290+Z
106812001106812903-000216     106812006925925900966SWT MALLOW TWIST ERKO  0000001000+00000262+00000+0001T   00000262+0000001441          1400 V12150               1BZ
106813000106813               106813               170213BP     1400+00000+BP0000010500+0000010500+000000000+000001480+0000011980+0000000000+I20000000000+0000011980+Z
106813001106813903-000183     106813006003000451043SWT LB HEART LOLLY     0000010000+00000393+00000+0001T   00000393+0000001445          1400 V12150               1BZ
106813002106813903-000844     106813005010478432567SWT CANDY DL LUV HEARTS0000005000+00001314+00000+0001T   00001314+0000001445          1400 V12150               1BZ
106814000106814               106814               170213BP     1400+00000+BP0000005643+0000005643+000000000+000000793+0000006436+0000000000+I40000006436+0000000000+Z
106814001106814903-000183     106814006003000451043SWT LB HEART LOLLY     0000002000+00000393+00000+0001T   00000393+0000001447          1400 V12150               1BZ
106814002106814001-000175     106814006001023788108B/MUG GLS LOVE 380ML   0000001000+00004385+00000+0001T   00004385+0000001447          1400 V12515               1BZ
106814003106814112-116038     106814006009681820246TCS CARRIER BAG MIDI   0000001000+00000035+00000+0001T   00000035+0000001447          1400 V12090               1BZ
106814004106814080-000133-A   106814006003000647019MINI VALENTINES CARD   0000001000+00000437+00000+0001T   00000437+0000001447          1400 V12112               1BZ
106815000106815               106815               170213BP     1400+00000+BP0000006170+0000006170+000000000+000000866+0000007036+0000000000+I40000007036+0000000000+Z
106815001106815112-116038     106815006009681820246TCS CARRIER BAG MIDI   0000001000+00000035+00000+0001T   00000035+0000001448          1400 V12090               1BZ
106815002106815200-003024     106815006001023657299REFUSE BAGS 20PCE BLACK0000001000+00001753+00000+0001T   00001753+0000001448          1400 V12214               1BZ
106815003106815046-000014-A   106815004897006177708BATTERIES SIZE:AAA 8PCE0000001000+00001753+00000+0001T   00001753+0000001448          1400 V12312               1BZ
106815004106815080-000133-A   106815006003000647019MINI VALENTINES CARD   0000001000+00000437+00000+0001T   00000437+0000001448          1400 V12112               1BZ
106815005106815200-000020     106815006925406841030BAG ZIPPERSEAL 25PC    0000001000+00002192+00000+0001T   00002192+0000001448          1400 V12214               1BZ
106816000106816               106816               170213BP     1400+00000+BP0000000174+0000000174+000000000+000000025+0000000190+0000000009+I20000000000+0000000190+Z
106816001106816007-000407     106816006009635831717BK JOTTER A5 48-PG F/M 0000001000+00000174+00000+0001T   00000174+0000001449          1400 V12130               1BZ
106817000106817               106817               170213BP     1400+00000+BP0000003891+0000003891+000000000+000000545+0000004430+0000000006+I20000000000+0000004430+Z
106817001106817105-001024-A   106817006009654960986CONTAINERS CLEAR 3PCE  0000001000+00001928+00000+0001T   00001928+0000001458          1400 V12210               1BZ
106817002106817112-116038     106817006009681820246TCS CARRIER BAG MIDI   0000001000+00000035+00000+0001T   00000035+0000001458          1400 V12090               1BZ
106817003106817105-001024-A   106817006009654960986CONTAINERS CLEAR 3PCE  0000001000+00001928+00000+0001T   00001928+0000001458          1400 V12210               1BZ
106818000106818               106818               170213BP     1400+00000+BP0000002630+0000002630+000000000+000000369+0000002990+0000000009+I20000000000+0000002990+Z
106818001106818105-001101     106818006003000667659CONTAINER SET LITE 2PC 0000001000+00002630+00000+0001T   00002630+0000001458          1400 V12210               1BZ
106819000106819               106819               170213BP     1400+00000+BP0000006186+0000006186+000000000+000000867+0000007053+0000000000+I40000007053+0000000000+Z
106819001106819301-085008     106819006003000673933ORN OCC.LOVE TINSEL HRT0000002000+00003069+00000+0001T   00003069+0000001511          1400 V12505               1BZ
106819002106819112-116069     106819006009681820277TCS CARRIER BAG JUMBO  0000001000+00000048+00000+0001T   00000048+0000001511          1400 V12090               1BZ
106820000106820               106820               170213BP     1400+00000+BP0000007927+0000007927+000000000+000001110+0000009037+0000000000+I40000009037+0000000000+Z
106820001106820018-005009     106820006001023725608MUG W/PLUSH-BEAR LOVE  0000001000+00003507+00000+0001T   00003507+0000001513          1400 V12515               1BZ
106820002106820030-000031-A   106820006003000457588PLAQUE W/WORDS ASSTD   0000001000+00004385+00000+0001T   00004823+0006471513          1400 V12505               1BZ
106820003106820112-116038     106820006009681820246TCS CARRIER BAG MIDI   0000001000+00000035+00000+0001T   00000035+0000001513          1400 V12090               1BZ
106821000106821               106821               170213BP     1400+00000+BP0000000393+0000000393+000000000+000000056+0000000440+0000000009+I20000000000+0000000440+Z
106821001106821903-000183     106821006003000451043SWT LB HEART LOLLY     0000001000+00000393+00000+0001T   00000393+0000001552          1400 V12150               1BZ
106822000106822               106822               170213BP     1400+00000+BP0000001753+0000001753+000000000+000000246+0000001990+0000000009+I20000000000+0000001990+Z
106822001106822036-000615     106822006003000218769WASH-PEGS PL PCK-24    0000001000+00001753+00000+0001T   00001753+0000001553          1400 V12212               1BZ
106823000106823               106823               170213BP     1400+00000+BP0000003287+0000003287+000000000+000000461+0000003740+0000000008+I20000000000+0000003740+Z
106823001106823566-001212     106823000721129014166STICKERS MICRO ASSTD   0000001000+00000657+00000+0001T   00000657+0000001553          1400 V12130               1AZ
106823002106823566-000863     106823006001023788351STICKERS LASER 20x25cm 0000001000+00002630+00000+0001T   00002630+0000001553          1400 V12130               1AZ
M17021391                              CASH        BPSLAVE 1                       Z-REPORT No.   595TOTAL (Sales - Refunds)           2263.10       CASH TO BE BANKED                 1207.30       DEBIT CARDS                          0.00       CREDIT CARDS                      1055.80       Z-READING                         2263.10       AIRTIME DEBIT CARD SALES             0.00       AIRTIME CARD SALES                   0.00       OVERS/UNDERS                         0.00       AIRTIME CASH SALES                   0.00       GIFT CARDS                           0.00       GIFT CARD CASH SALES                 0.00       T O T A L  CASH PAYOUTS              0.00                                                                                                                                                                                                                                                                                                                                                      Z
M17021392                              CASH        BPABSENT                                                                                                                                                                                          ANNUAL LEAVE                                                                                                                                                                                    DAY OFF                                                                                                                                                                                         COMMENTS                                                                                                                                                                                                                                                                                                                                                                                       Z
Y17021300                                          BP00000000198666+000039
ZBP17021319213 SLAVE 1      SALES DATA                     NEXT INVOICE NO.  106824 0595
X BP Slave 1 First invoice 106785 170213 Last invoice 106823 170213 Next invoice 106824 Total number of records 000000127 clbackup completed 19:21:53
