207091000207091               207091               170213BP     1400+00000+BP0000011656+0000011656+000000000+000001634+0000013290+0000000000+I20000000000+0000013290+Z
207091001207091033-008209     207091006001023678607MEASURING-TAPE 150cm   0000001000+00000613+00000+0001T   00000613+0000000912          1400 MN7200               2AZ
207091002207091033-006004     207091006001023703316SEWING-KIT IN-POUCH    0000001000+00002192+00000+0001T   00002192+0000000912          1400 MN7200               2AZ
207091003207091033-005931     207091006001023678447PINS ON-WHEEL PEARLIZED0000001000+00000876+00000+0001T   00000876+0000000912          1400 MN7200               2AZ
207091004207091033-005903-B   207091006001023678164B/LACES FLAT 120cm ASST0000002000+00001490+00000+0001T   00001490+0000000912          1400 MN7200               2AZ
207091005207091903-000194     207091006009826020616SWT CHOC RP LOLLY 25G  0000002000+00001314+00000+0001T   00001314+0000000912          1400 MN7150               2AZ
207091006207091150-000775     207091006001023129253UTILITY-BOX LARGE      0000001000+00002367+00000+0001T   00002367+0000000912          1400 MN7810               2AZ
207092000207092               207092               170213BP     1400+00000+BP0000002630+0000002630+000000000+000000369+0000002990+0000000009+I20000000000+0000002990+Z
207092001207092077-000475     207092006003000640775GIFT-BAG DESIGNER MED  0000001000+00002630+00000+0001T   00002630+0000000924          1400 MN7112               2AZ
207093000207093               207093               170213BP     1400+00000+BP0000001578+0000001578+000000000+000000221+0000001790+0000000009+I20000000000+0000001790+Z
207093001207093077-000303     207093006001023593757GIFT-BAG PAPER MED     0000001000+00001578+00000+0001T   00001578+0000000929          1400 MN7112               2CZ
207094000207094               207094               170213BP     1400+00000+BP0000004820+0000004820+000000000+000000676+0000005490+0000000006+I20000000000+0000005490+Z
207094001207094200-003019     207094006003000510856REFUSE BAGS 10PC D/STRN0000001000+00001314+00000+0001T   00001753+0008170932          1400 MN7214               2AZ
207094002207094200-003026     207094006003000276448REFUSE BAGS 10PCE GREEN0000001000+00001753+00000+0001T   00001753+0000000932          1400 MN7214               2AZ
207094003207094200-003024     207094006001023657299REFUSE BAGS 20PCE BLACK0000001000+00001753+00000+0001T   00001753+0000000932          1400 MN7214               2AZ
207095000207095               207095               170213BP     1400+00000+BP0000004385+0000004385+000000000+000000614+0000004990+0000000009+I20000000000+0000004990+Z
207095001207095082-000115     207095006003000360604READING GLS STRNGHT:2.50000001000+00004385+00000+0001T   00004385+0000000956          1400 MN7160               2AZ
207096000207096               207096               170213BP     1400+00000+BP0000015784+0000015784+000000000+000002212+0000017990+0000000006+I20000000000+0000017990+Z
207096001207096077-000270     207096006003000395453GIFT-BAG PPR JMB 33X45 0000001000+00002630+00000+0001T   00002630+0000001004          1400 MN7112               2AZ
207096002207096304-000720     207096006001023843050F/BUNCH ROSE 6-HEAD AST0000001000+00002630+00000+0001T   00002630+0000001004          1400 MN7510               2AZ
207096003207096368-000614     207096006001023705808PLUSH LOVE 30cm        0000001000+00008771+00000+0001T   00008771+0000001004          1400 MN7745               2AZ
207096004207096080-000113     207096006003000237449CARD&ENVLPE - LOVE     0000001000+00001753+00000+0001T   00001753+0000001004          1400 MN7112               2AZ
207097000207097               207097               170213BP     1400+00000+BP0000003946+0000003946+000000000+000000553+0000004490+0000000009+I20000000000+0000004490+Z
207097001207097036-000013     207097006001246500860LINT REMOVER REFILLS   0000001000+00003946+00000+0001T   00003946+0000001048          1400 MN7212               2AZ
207098000207098               207098               170213BP     1400+00000+BP0000002190+0000002190+000000000+000000308+0000002490+0000000008+I20000000000+0000002490+Z
207098001207098903-000200     207098006009826020234SWT CHOC RP CHOCO 23G  0000001000+00000788+00000+0001T   00000788+0000001105          1400 MN7150               2AZ
207098002207098304-001204     207098006001023737984FLOWER OCC. TEDDY/ROSES0000001000+00001402+00000+0001T   00001490+0006471105          1400 MN7510               2AZ
207099000207099               207099               170213BP     1400+00000+BP0000005072+0000005072+000000000+000000712+0000005780+0000000004+I20000000000+0000005780+Z
207099001207099566-002000     207099000721129013206STICKERS CRYSTAL ASSTD 0000001000+00000700+00000+0001T   00000700+0000001111          1400 MN7130               2AZ
207099002207099566-000200     207099006003000384174STICKER PUFFY NEON     0000002000+00000876+00000+0001T   00000876+0000001111          1400 MN7130               2AZ
207099003207099566-000068     207099006003000418046POP UP LOVE 2 ASSTD    0000001000+00002192+00000+0001T   00002192+0000001111          1400 MN7130               2AZ
207099004207099903-000183     207099006003000451043SWT LB HEART LOLLY     0000001000+00000393+00000+0001T   00000393+0000001111          1400 MN7150               2AZ
207099005207099112-116038     207099006009681820246TCS CARRIER BAG MIDI   0000001000+00000035+00000+0001T   00000035+0000001111          1400 MN7090               2AZ
207100000207100               207100               170213BP     1400+00000+BP0000001753+0000001753+000000000+000000246+0000001990+0000000009+I20000000000+0000001990+Z
207100001207100200-000305     207100006003000622467FOOD OVEN ROASTING BAGS0000001000+00001753+00000+0001T   00002630+0008171114          1400 MN7214               2AZ
207101000207101               207101               170213BP     1400+00000+BP0000003507+0000003507+000000000+000000491+0000003990+0000000008+I20000000000+0000003990+Z
207101001207101018-000136     207101006001023659026MUG OCC LOVE W/PLUSH   0000001000+00003507+00000+0001T   00003507+0000001116          1400 MN7515               2AZ
207102000207102               207102               170213BP     1400+00000+BP0000004857+0000004857+000000000+000000681+0000005530+0000000008+I20000000000+0000005530+Z
207102001207102024-000083     207102006001023770943SIEVE FLOUR 20cm MTL-RI0000001000+00001753+00000+0001T   00001753+0000001152          1400 MN7300               2AZ
207102002207102032-000340     207102006003000295883MIRROR SUCTION PL MAGN 0000001000+00003069+00000+0001T   00003069+0000001152          1400 MN7510               2AZ
207102003207102112-116038     207102006009681820246TCS CARRIER BAG MIDI   0000001000+00000035+00000+0001T   00000035+0000001152          1400 MN7090               2AZ
207103000207103               207103               170213BP     1400+00000+BP0000001752+0000001752+000000000+000000246+0000001990+0000000008+I20000000000+0000001990+Z
207103001207103039-000319-9   207103006003000443345B/CANDLES LRG NUMBER-9 0000002000+00000876+00000+0001T   00000876+0000001155          1400 MN7510               2AZ
207104000207104               207104               170213BP     1400+00000+BP0000002630+0000002630+000000000+000000369+0000002990+0000000009+I20000000000+0000002990+Z
207104001207104027-008813     207104006001023552334DUSTER RETRCTABLE 122cm0000001000+00002630+00000+0001T   00002630+0000001158          1400 MN7212               2AZ
207105000207105               207105               170213BP     1400+00000+BP0000005260+0000005260+000000000+000000738+0000005990+0000000008+I20000000000+0000005990+Z
207105001207105463-000366     207105006001023789136SWIM W/NOODLE 150cm    0000002000+00002630+00000+0001T   00002630+0000001201          1400 MN7785               2AZ
207106000207106               207106               170213BP     1400+00000+BP0000002629+0000002629+000000000+000000369+0000002990+0000000008+I20000000000+0000002990+Z
207106001207106566-020150     207106006001023889126STICKERS FOAM 3D ASSTD 0000001000+00001753+00000+0001T   00001753+0000001202          1400 MN7130               2AZ
207106002207106071-001019     207106006001023474513MARKER BLACK NAME-PEN  0000001000+00000876+00000+0001T   00000876+0000001202          1400 MN7130               2AZ
207107000207107               207107               170213BP     1400+00000+BP0000008770-0000008770-000000000+000001228-0000010000-0000000002+I20000000000+0000010000-Z
207107001207107082-000120     207107006003000360727READING GLS STRENGTH:3 0000001000-00004385+00000+0001T   00004385+0000001207          1400 MN71602IC            2 Z
207107002207107082-000115     207107006003000360604READING GLS STRNGHT:2.50000001000-00004385+00000+0001T   00004385+0000001207          1400 MN71602IC            2 Z
207108000207108               207108               170213BP     1400+00000+BP0000001227+0000001227+000000000+000000172+0000001390+0000000009+I20000000000+0000001390+Z
207108001207108251-000040     207108006001023515865SEALTAPE CLEAR 48mmx50m0000001000+00001227+00000+0001T   00001227+0000001212          1400 MN7810               2AZ
207109000207109               207109               170213BP     1400+00000+BP0000001490+0000001490+000000000+000000209+0000001690+0000000009+I20000000000+0000001690+Z
207109001207109046-000004     207109006001023606525BATTERY 9VOLT H/POWER  0000001000+00001490+00000+0001T   00001490+0000001220          1400 MN7312               2AZ
207110000207110               207110               170213BP     1400+00000+BP0000015655+0000015655+000000000+000002195+0000017850+0000000000+I40000017850+0000000000+Z
207110001207110024-000002     207110006001023741899S/BURNER-COVER SILV/BLK0000001000+00003946+00000+0001T   00004385+0008191223          1400 MN7300               2AZ
207110002207110012-000001     207110006003000331048MICRO PLATE-COVER 26X6 0000002000+00001753+00000+0001T   00002192+0008191223          1400 MN7300               2AZ
207110003207110158-000009     207110006001023577917CUTLERY-TRAY WIRE      0000001000+00007016+00000+0001T   00007016+0000001223          1400 MN7300               2AZ
207110004207110903-000087     207110006001704000161SWT SPECKLED-EGGS 50G  0000001000+00001139+00000+0001T   00001139+0000001223          1400 MN7150               2AZ
207110005207110112-116069     207110006009681820277TCS CARRIER BAG JUMBO  0000001000+00000048+00000+0001T   00000048+0000001223          1400 MN7090               2AZ
207111000207111               207111               170213BP     1400+00000+BP0000008771+0000008771+000000000+000001228+0000009999+0000000000+I40000009999+0000000000+Z
207111001207111020-000751     207111006003000308446KNIFE+LIFTER 25-30CM   0000001000+00008771+00000+0001T   00008771+0000001226          1400 MN7300               2AZ
207112000207112               207112               170213BP     1400+00000+BP0000002279+0000002279+000000000+000000320+0000002590+0000000009+I20000000000+0000002590+Z
207112001207112027-001020     207112006001246602519BROOM FLOOR W/HANDLE   0000001000+00002279+00000+0001T   00002279+0000001226          1400 MN7212               2AZ
207113000207113               207113               170213BP     1400+00000+BP0000008770+0000008770+000000000+000001228+0000009990+0000000008+I20000000000+0000009990+Z
207113001207113082-000110     207113006003000360482READING GLS STRENGHT:2 0000002000+00004385+00000+0001T   00004385+0000001231          1400 MN7160               2AZ
207114000207114               207114               170213BP     1400+00000+BP0000002192+0000002192+000000000+000000307+0000002499+0000000000+I40000002499+0000000000+Z
207114001207114200-000025-A   207114006925406841054BAG ZIPPERSEAL 15PC    0000001000+00002192+00000+0001T   00002192+0000001233          1400 MN7214               2AZ
207115000207115               207115               170213BP     1400+00000+BP0000002102+0000002102+000000000+000000296+0000002390+0000000008+I20000000000+0000002390+Z
207115001207115903-002850     207115000000087108262MENTOS ROLL FRUIT      0000001000+00001051+00000+0001T   00001051+0000001233          1400 MN7150               2AZ
207115002207115903-002853     207115000000087108019MENTOS ROLL MINT       0000001000+00001051+00000+0001T   00001051+0000001233          1400 MN7150               2AZ
207116000207116               207116               170213BP     1400+00000+BP0000009059+0000009059+000000000+000001273+0000010330+0000000002+I20000000000+0000010330+Z
207116001207116080-000113     207116006003000237449CARD&ENVLPE - LOVE     0000001000+00001753+00000+0001T   00001753+0000001239          1400 MN7112               2AZ
207116002207116083-000055     207116006003000003853LIGHTER ELCTRNC REFILBL0000002000+00000613+00000+0001T   00000613+0000001239          1400 MN7315               2AZ
207116003207116080-000113     207116006003000237449CARD&ENVLPE - LOVE     0000003000+00001753+00000+0001T   00001753+0000001239          1400 MN7112               2AZ
207116004207116903-000183     207116006003000451043SWT LB HEART LOLLY     0000002000+00000393+00000+0001T   00000393+0000001239          1400 MN7150               2AZ
207116005207116112-116038     207116006009681820246TCS CARRIER BAG MIDI   0000001000+00000035+00000+0001T   00000035+0000001239          1400 MN7090               2AZ
207117000207117               207117               170213BP     1400+00000+BP0000010729+0000010729+000000000+000001506+0000012230+0000000005+I20000000000+0000012230+Z
207117001207117903-000907     207117006009802868324SWEET LASER BARBIE     0000004000+00002016+00000+0001T   00002016+0000001247          1400 MN7150               2AZ
207117002207117565-000602     207117006003000643790NOVELTY NINJA'S 3PACK  0000001000+00002630+00000+0001T   00002630+0000001247          1400 MN7745               2AZ
207117003207117112-116038     207117006009681820246TCS CARRIER BAG MIDI   0000001000+00000035+00000+0001T   00000035+0000001247          1400 MN7090               2AZ
207118000207118               207118               170213BP     1400+00000+BP0000005998+0000005998+000000000+000000840+0000006838+0000000000+I40000006838+0000000000+Z
207118001207118018-030000     207118006003000421060MUG OCCASIONS LOVE 2PCE0000001000+00004385+00000+0001T   00004385+0000001250          1400 MN7515               2AZ
207118002207118080-000124     207118006003000297733CARD & ENV VALENTINES  0000001000+00001578+00000+0001T   00001578+0000001250          1400 MN7112               2AZ
207118003207118112-116038     207118006009681820246TCS CARRIER BAG MIDI   0000001000+00000035+00000+0001T   00000035+0000001250          1400 MN7090               2AZ
207119000207119               207119               170213BP     1400+00000+BP0000002630+0000002630+000000000+000000369+0000002990+0000000009+I20000000000+0000002990+Z
207119001207119565-000045     207119006003000295890NOVELTY HEADS 8PCE     0000001000+00002630+00000+0001T   00002630+0000001301          1400 MN7745               2AZ
207120000207120               207120               170213BP     1400+00000+BP0000005260+0000005260+000000000+000000738+0000005990+0000000008+I20000000000+0000005990+Z
207120001207120006-006018-B   207120006003000008278PARTY-SPRAY HAIR NEON  0000001000+00002630+00000+0001T   00002630+0000001304          1400 MN7131               2AZ
207120002207120006-006018     207120006001023735256PARTY-SPRAY HAIR ASSORT0000001000+00002630+00000+0001T   00002630+0000001304          1400 MN7131               2AZ
207121000207121               207121               170213BP     1400+00000+BP0000002630+0000002630+000000000+000000369+0000002999+0000000000+I40000002999+0000000000+Z
207121001207121034-078810     207121006001023856838DIAPER DISPOSE-BAGSx1000000001000+00002630+00000+0001T   00002630+0000001305          1400 MN7215               2AZ
207122000207122               207122               170213BP     1400+00000+BP0000006922+0000006922+000000000+000000970+0000007890+0000000002+I20000000000+0000007890+Z
207122001207122903-000194     207122006009826020616SWT CHOC RP LOLLY 25G  0000003000+00001314+00000+0001T   00001314+0000001307          1400 MN7150               2AZ
207122002207122019-071610     207122006001023904560PEBBLES WATER GEMS 10g 0000002000+00001490+00000+0001T   00001490+0000001307          1400 MN7510               2AZ
207123000207123               207123               170213BP     1400+00000+BP0000005957+0000005957+000000000+000000835+0000006790+0000000002+I20000000000+0000006790+Z
207123001207123078-009100     207123006008741002349ALL-CLEAR GLUE 25ml CRD0000002000+00001314+00000+0001T   00001314+0000001310          1400 MN7810               2AZ
207123002207123079-013032     207123006003000389209SET LETTERS 2 ASSTD    0000001000+00001753+00000+0001T   00001753+0000001310          1400 MN7130               2AZ
207123003207123007-000127     207123006009685853431BOOK H/COVER MEMO 144PG0000001000+00000876+00000+0001T   00000876+0000001310          1400 MN7130               2AZ
207123004207123007-000128     207123006009635830475BOOK H/COVER A5 96-PAGE0000001000+00000700+00000+0001T   00000700+0000001310          1400 MN7130               2AZ
207124000207124               207124               170213BP     1400+00000+BP0000007979+0000007979+000000000+000001118+0000009090+0000000007+I20000000000+0000009090+Z
207124001207124265-000381     207124006001023827852BATTERY OPERATED BOAT  0000001000+00005262+00000+0001T   00005262+0000001315          1400 MN7710               2AZ
207124002207124071-000006     207124006001023732613PENCIL REFILLABLE 6PK  0000001000+00001753+00000+0001T   00001753+0000001315          1400 MN7130               2AZ
207124003207124007-000204     207124006009635835272EXAM-PAD 60SHT PUNCHED 0000001000+00000964+00000+0001T   00000964+0000001315          1400 MN7130               2AZ
207125000207125               207125               170213BP     1400+00000+BP0000012714+0000012714+000000000+000001782+0000014490+0000000006+I20000000000+0000014490+Z
207125001207125903-000090     207125006009826020821SWT GS CHOCO COINS 60g 0000001000+00002104+00000+0001T   00002104+0000001317          1400 MN7150               2AZ
207125002207125903-000087     207125006001704000161SWT SPECKLED-EGGS 50G  0000001000+00001139+00000+0001T   00001139+0000001317          1400 MN7150               2AZ
207125003207125004-010030     207125006003000131587HOLDER DISC 32 SLEEVE  0000001000+00007893+00000+0001T   00007893+0000001317          1400 MN7310               2AZ
207125004207125083-000054     207125006001023729071LIGHTER REFILLABLE LED 0000001000+00001578+00000+0001T   00001578+0000001317          1400 MN7315               2AZ
207126000207126               207126               170213BP     1400+00000+BP0000016881+0000016881+000000000+000002366+0000019240+0000000007+I20000000000+0000019240+Z
207126001207126036-000500     207126006003000663903BASKET WIRE 39x27x13cm 0000001000+00005262+00000+0001T   00005262+0000001318          1400 MN7212               2AZ
207126002207126033-000600     207126006003000365098HAIR-BRUSH 23cm VENT   0000001000+00003069+00000+0001T   00003069+0000001318          1400 MN7200               2AZ
207126003207126078-000025     207126008887013700064SUPERGLUE 3g 1PCE CARD 0000001000+00000876+00000+0001T   00000876+0000001318          1400 MN7810               2AZ
207126004207126306-000524     207126006003000571215TOOTHBRUSH ADULT       0000001000+00001314+00000+0001T   00001314+0000001318          1400 MN7200               2AZ
207126005207126306-000540     207126006003000165780T/BRUSH+GUM PROTECTION 0000001000+00001490+00000+0001T   00001490+0000001318          1400 MN7200               2AZ
207126006207126306-000024-A   207126006003000577309COTTON-WOOL-PADS 80PC  0000001000+00001753+00000+0001T   00001753+0000001318          1400 MN7200               2AZ
207126007207126124-001000     207126006003000683734STORAGE TIN SEWING DESN0000001000+00003069+00000+0001T   00003069+0000001318          1400 MN7300               2AZ
207126008207126112-116069     207126006009681820277TCS CARRIER BAG JUMBO  0000001000+00000048+00000+0001T   00000048+0000001318          1400 MN7090               2AZ
207127000207127               207127               170213BP     1400+00000+BP0000014425+0000014425+000000000+000002022+0000016440+0000000007+I20000000000+0000016440+Z
207127001207127036-000151     207127006001023810588COATHANGERS    PACK-10 0000001000+00002893+00000+0001T   00002893+0000001322          1400 MN7212               2AZ
207127002207127047-000522-H   207127006003000465262EXT-CORD 3m 1x16A+1xSHK0000001000+00006578+00000+0001T   00006578+0000001322          1400 MN7880               2AZ
207127003207127079-003008     207127006003000448609A/TUBE 75ML GREY       0000001000+00001753+00000+0001T   00001753+0000001322          1400 MN7130               2AZ
207127004207127079-003005     207127006003000448241A/TUBE 75ML BLUE       0000001000+00001753+00000+0001T   00001753+0000001322          1400 MN7130               2AZ
207127005207127018-000177     207127006001023797513MUG MINI LOVE ASSTD    0000002000+00000700+00000+0001T   00000700+0000001322          1400 MN7515               2AZ
207127006207127112-116069     207127006009681820277TCS CARRIER BAG JUMBO  0000001000+00000048+00000+0001T   00000048+0000001322          1400 MN7090               2AZ
207128000207128               207128               170213BP     1400+00000+BP0000005259+0000005259+000000000+000000738+0000005990+0000000007+I20000000000+0000005990+Z
207128001207128036-000610     207128006001023627230WASHING-PEGS PL PACK-240000002000+00001753+00000+0001T   00001753+0000001323          1400 MN7212               2AZ
207128002207128563-000319-F   207128006003000581931SERVIETTE 2PLY ORANGE  0000001000+00001753+00000+0001T   00001753+0000001323          1400 MN7214               2AZ
207129000207129               207129               170213BP     1400+00000+BP0000006577+0000006577+000000000+000000921+0000007490+0000000008+I20000000000+0000007490+Z
207129001207129033-001389     207129006003000622344HAIR PINS BLACK 3PC 12c0000001000+00002192+00000+0001T   00002192+0000001326          1400 MN7200               2AZ
207129002207129032-000334     207129006003000352395MIRROR HAND PL 23X31CM 0000001000+00004385+00000+0001T   00004385+0000001326          1400 MN7510               2AZ
207130000207130               207130               170213BP     1400+00000+BP0000002630+0000002630+000000000+000000369+0000002990+0000000009+I20000000000+0000002990+Z
207130001207130018-000129     207130006001023403353MUG OCC. LOVE V-SHAPE  0000001000+00002630+00000+0001T   00002630+0000001328          1400 MN7515               2AZ
207131000207131               207131               170213BP     1400+00000+BP0000001753+0000001753+000000000+000000246+0000001990+0000000009+I20000000000+0000001990+Z
207131001207131077-000324     207131006001023677594GIFT-BAG 33X45CM E/D FL0000001000+00001753+00000+0001T   00001753+0000001329          1400 MN7112               2AZ
207132000207132               207132               170213BP     1400+00000+BP0000000788+0000000788+000000000+000000111+0000000890+0000000009+I20000000000+0000000890+Z
207132001207132903-000200     207132006009826020234SWT CHOC RP CHOCO 23G  0000001000+00000788+00000+0001T   00000788+0000001330          1400 MN7150               2AZ
207133000207133               207133               170213BP     1400+00000+BP0000002803+0000002803+000000000+000000394+0000003190+0000000007+I20000000000+0000003190+Z
207133001207133200-003024     207133006001023657299REFUSE BAGS 20PCE BLACK0000001000+00001753+00000+0001T   00001753+0000001336          1400 MN7214               2AZ
207133002207133903-000151     207133006009803374411SWT SML RND R/BOW LOLLY0000002000+00000525+00000+0001T   00000525+0000001336          1400 MN7150               2AZ
207134000207134               207134               170213BP     1400+00000+BP0000003069+0000003069+000000000+000000430+0000003499+0000000000+I40000003499+0000000000+Z
207134001207134104-000187     207134006003000138586FRIDGE CONDIMENT CADDY 0000001000+00003069+00000+0001T   00003069+0000001338          1400 MN7210               2AZ
207135000207135               207135               170213BP     1400+00000+BP0000007014+0000007014+000000000+000000982+0000007990+0000000006+I20000000000+0000007990+Z
207135001207135018-005009     207135006001023725608MUG W/PLUSH-BEAR LOVE  0000002000+00003507+00000+0001T   00003507+0000001339          1400 MN7515               2AZ
207136000207136               207136               170213BP     1400+00000+BP0000003507+0000003507+000000000+000000491+0000003990+0000000008+I20000000000+0000003990+Z
207136001207136018-000136     207136006001023659026MUG OCC LOVE W/PLUSH   0000001000+00003507+00000+0001T   00003507+0000001352          1400 MN7515               2AZ
207137000207137               207137               170213BP     1400+00000+BP0000008098+0000008098+000000000+000001136+0000009230+0000000004+I20000000000+0000009230+Z
207137001207137903-000200     207137006009826020234SWT CHOC RP CHOCO 23G  0000003000+00000788+00000+0001T   00000788+0000001357          1400 MN7150               2AZ
207137002207137301-085004     207137006003000420469ORN LOVE PLAQUE 21X10CM0000001000+00003507+00000+0001T   00003946+0006471357          1400 MN7505               2AZ
207137003207137018-000170     207137006001023775528MUG OCC. LOVE 2PC MINI 0000001000+00002192+00000+0001T   00002192+0000001357          1400 MN7515               2AZ
207137004207137112-116038     207137006009681820246TCS CARRIER BAG MIDI   0000001000+00000035+00000+0001T   00000035+0000001357          1400 MN7090               2AZ
207138000207138               207138               170213BP     1400+00000+BP0000004777+0000004777+000000000+000000670+0000005440+0000000007+I20000000000+0000005440+Z
207138001207138080-000127     207138006003000424351VALENTINES DAY 36x24CM 0000001000+00002192+00000+0001T   00002192+0000001403          1400 MN7112               2AZ
207138002207138077-000926     207138006003000414178G/WRAP 700mmx2m LOVE   0000001000+00002192+00000+0001T   00002192+0000001403          1400 MN7112               2AZ
207138003207138903-000183     207138006003000451043SWT LB HEART LOLLY     0000001000+00000393+00000+0001T   00000393+0000001403          1400 MN7150               2AZ
207139000207139               207139               170213BP     1400+00000+BP0000013666+0000013666+000000000+000001922+0000015580+0000000008+I20000000000+0000015580+Z
207139001207139077-000011-C   207139006001023808523TISSUE 10xSHTS RED     0000001000+00000876+00000+0001T   00000876+0000001409          1400 MN7112               2AZ
207139002207139077-000299     207139006003000395576G/BAG 32x25cm LRG LOVE 0000002000+00001490+00000+0001T   00001490+0000001409          1400 MN7112               2AZ
207139003207139077-000299-A   207139006003000670888GIFT-BAG PAPER JMB LOVE0000001000+00001753+00000+0001T   00001753+0000001409          1400 MN7112               2AZ
207139004207139080-000133-A   207139006003000647019MINI VALENTINES CARD   0000003000+00000437+00000+0001T   00000437+0000001409          1400 MN7112               2AZ
207139005207139903-000194     207139006009826020616SWT CHOC RP LOLLY 25G  0000002000+00001314+00000+0001T   00001314+0000001409          1400 MN7150               2AZ
207139006207139080-000133-A   207139006003000647019MINI VALENTINES CARD   0000001000+00000437+00000+0001T   00000437+0000001409          1400 MN7112               2AZ
207139007207139903-000183     207139006003000451043SWT LB HEART LOLLY     0000003000+00000393+00000+0001T   00000393+0000001409          1400 MN7150               2AZ
207139008207139112-116069     207139006009681820277TCS CARRIER BAG JUMBO  0000001000+00000048+00000+0001T   00000048+0000001409          1400 MN7090               2AZ
207139009207139903-000519     207139006001704012805SWT MS LIQ-O-GHETTI    0000002000+00001227+00000+0001T   00001227+0000001409          1400 MN7150               2AZ
207140000207140               207140               170213BP     1400+00000+BP0000010817+0000010817+000000000+000001517+0000012330+0000000004+I20000000000+0000012330+Z
207140001207140031-005820     207140006001023667816P/FRAME-CLIP 15X20CM   0000001000+00001753+00000+0001T   00001753+0000001412          1400 MN7510               2AZ
207140002207140031-005815     207140009320760100019P/FRAME-CLIP 10x15cm   0000002000+00001227+00000+0001T   00001227+0000001412          1400 MN7510               2AZ
207140003207140031-005820     207140006001023667816P/FRAME-CLIP 15X20CM   0000001000+00001753+00000+0001T   00001753+0000001412          1400 MN7510               2AZ
207140004207140002-000740     207140006001023763945GRATER 4-WAY WHITE     0000001000+00002192+00000+0001T   00002192+0000001412          1400 MN7300               2AZ
207140005207140002-000094     207140006001023489753PIZZA-CUTTER           0000001000+00002630+00000+0001T   00002630+0000001412          1400 MN7300               2AZ
207140006207140112-116038     207140006009681820246TCS CARRIER BAG MIDI   0000001000+00000035+00000+0001T   00000035+0000001412          1400 MN7090               2AZ
207141000207141               207141               170213BP     1400+00000+BP0000001490+0000001490+000000000+000000209+0000001690+0000000009+I20000000000+0000001690+Z
207141001207141002-000878     207141006001023770967STRAINER TEA WIRE 7cm  0000001000+00001490+00000+0001T   00001490+0000001532          1400 MN7300               2AZ
207142000207142               207142               170213BP     1400+00000+BP0000002892+0000002892+000000000+000000406+0000003290+0000000008+I20000000000+0000003290+Z
207142001207142046-000011     207142004897006172994BATTERIES SIZE:AA  2PCE0000001000+00001402+00000+0001T   00001402+0000001533          1400 MN7312               2AZ
207142002207142046-000010     207142004897006172987BATTERIES AAA ALKLN 2PC0000001000+00001490+00000+0001T   00001490+0000001533          1400 MN7312               2AZ
207143000207143               207143               170213BP     1400+00000+BP0000003507+0000003507+000000000+000000491+0000003998+0000000000+I40000003998+0000000000+Z
207143001207143007-000324     20714300600968585864125 SHEETS BRIGHTS MARLI0000001000+00003507+00000+0001T   00003507+0000001538          1400 MN7130               2AZ
207144000207144               207144               170213BP     1400+00000+BP0000001753+0000001753+000000000+000000246+0000001990+0000000009+I20000000000+0000001990+Z
207144001207144466-000200     207144006001023621665HULA-HOOP     ASSTD    0000001000+00001753+00000+0001T   00001753+0000001538          1400 MN7785               2AZ
207145000207145               207145               170213BP     1400+00000+BP0000005390+0000005390+000000000+000000756+0000006146+0000000000+I40000006146+0000000000+Z
207145001207145903-000183     207145006003000451043SWT LB HEART LOLLY     0000001000+00000393+00000+0001T   00000393+0000001542          1400 MN7150               2AZ
207145002207145018-000136     207145006001023659026MUG OCC LOVE W/PLUSH   0000001000+00003507+00000+0001T   00003507+0000001542          1400 MN7515               2AZ
207145003207145077-000299     207145006003000395576G/BAG 32x25cm LRG LOVE 0000001000+00001490+00000+0001T   00001490+0000001542          1400 MN7112               2AZ
207146000207146               207146               170213BP     1400+00000+BP0000026355+0000026355+000000000+000003692+0000030047+0000000000+I40000030047+0000000000+Z
207146001207146071-005060     207146006003000152186CELLOTAPE 2PACK INVSBLE0000001000+00003507+00000+0001T   00003507+0000001548          1400 MN7130               2AZ
207146002207146071-003004     207146006003000662821PEN BALL POINT 3PC BLUE0000001000+00000876+00000+0001T   00000876+0000001548          1400 MN7130               2AZ
207146003207146007-000184     207146006003000135424NOTEBOOK               0000001000+00001753+00000+0001T   00001753+0000001548          1400 MN7130               2AZ
207146004207146032-000334     207146006003000352395MIRROR HAND PL 23X31CM 0000001000+00004385+00000+0001T   00004385+0000001548          1400 MN7510               2AZ
207146005207146174-000153     207146006003000060795STORAGE ORGANISER 3-DRW0000001000+00005262+00000+0001T   00005262+0000001548          1400 MN7205               2AZ
207146006207146158-000167     207146006003000569588WASTEPAPER-BASKET 26cm 0000002000+00005262+00000+0001T   00005262+0000001548          1400 MN7300               2AZ
207146007207146112-116069     207146006009681820277TCS CARRIER BAG JUMBO  0000001000+00000048+00000+0001T   00000048+0000001548          1400 MN7090               2AZ
207147000207147               207147               170213BP     1400+00000+BP0000001050+0000001050+000000000+000000148+0000001190+0000000008+I20000000000+0000001190+Z
207147001207147903-000151     207147006009803374411SWT SML RND R/BOW LOLLY0000002000+00000525+00000+0001T   00000525+0000001552          1400 MN7150               2AZ
207148000207148               207148               170213BP     1400+00000+BP0000005700+0000005700+000000000+000000798+0000006490+0000000008+I20000000000+0000006490+Z
207148001207148159-000801     207148006001023999832BATHMAT 36x59cm ASST   0000001000+00005700+00000+0001T   00005700+0000001553          1400 MN7200               2AZ
207149000207149               207149               170213BP     1400+00000+BP0000001490+0000001490+000000000+000000209+0000001690+0000000009+I20000000000+0000001690+Z
207149001207149027-783002     207149006001023874658SCOURERS FOAM PACK OF 30000001000+00001490+00000+0001T   00001490+0000001553          1400 MN7212               2AZ
207150000207150               207150               170213BP     1400+00000+BP0000000876+0000000876+000000000+000000123+0000000990+0000000009+I20000000000+0000000990+Z
207150001207150077-000011-C   207150006001023808523TISSUE 10xSHTS RED     0000001000+00000876+00000+0001T   00000876+0000001559          1400 MN7112               2AZ
207151000207151               207151               170213BP     1400+00000+BP0000001490+0000001490+000000000+000000209+0000001690+0000000009+I20000000000+0000001690+Z
207151001207151077-000452     207151006003000284986G/BAG METALLIC MED EMB 0000001000+00001490+00000+0001T   00001490+0000001608          1400 MN7112               2AZ
207152000207152               207152               170213BP     1400+00000+BP0000011402+0000011402+000000000+000001597+0000012999+0000000000+I40000012999+0000000000+Z
207152001207152040-000103     207152000694202201862C/HOLDER-SET 5PC W/TRAY0000001000+00011402+00000+0001T   00013157+0008191617          1400 MN7510               2AZ
207153000207153               207153               170213BP     1400+00000+BP0000004383+0000004383+000000000+000000615+0000004990+0000000008+I20000000000+0000004990+Z
207153001207153077-000005-B   207153006003000326617PAPER TISSUE PATTERN   0000001000+00002630+00000+0001T   00002630+0000001621          1400 MN7112               2AZ
207153002207153077-000454     207153006003000285266G/BAG METALLIC LRG EMB 0000001000+00001753+00000+0001T   00001753+0000001621          1400 MN7112               2AZ
207154000207154               207154               170213BP     1400+00000+BP0000011480+0000011480+000000000+000001610+0000013090+0000000000+I40000013090+0000000000+Z
207154001207154077-000470     207154006003000330171G-BAG DESGN SML 11X14CM0000002000+00001314+00000+0001T   00001314+0000001624          1400 MN7112               2AZ
207154002207154403-000522     207154006001023754264T/BOX ROSE W/NECKLACE  0000001000+00001753+00000+0001T   00002630+0008181624          1400 MN7510               2AZ
207154003207154301-085002     207154006003000420704ORN OCC. LOVE BELL ASST0000001000+00001753+00000+0001T   00002630+0008121624          1400 MN7505               2AZ
207154004207154903-000200     207154006009826020234SWT CHOC RP CHOCO 23G  0000002000+00000788+00000+0001T   00000788+0000001624          1400 MN7150               2AZ
207154005207154362-000302     207154006003000095469HAIR CLIP LRG GIRLS    0000001000+00001578+00000+0001T   00001578+0000001624          1400 MN7160               2AZ
207154006207154046-000012-A   207154006003000208296BATTERIES H/POWER SZ:AA0000001000+00002192+00000+0001T   00002192+0000001624          1400 MN7312               2AZ
207155000207155               207155               170213BP     1400+00000+BP0000007013+0000007013+000000000+000000984+0000007990+0000000007+I20000000000+0000007990+Z
207155001207155563-000317-A   207155006001023776167SERVIETTES 20PK PATTERN0000002000+00002630+00000+0001T   00002630+0000001625          1400 MN7214               2AZ
207155002207155079-000207     207155006003000639120COLORING SECRET GARDEN 0000001000+00001753+00000+0001T   00001753+0000001625          1400 MN7130               2AZ
207156000207156               207156               170213BP     1400+00000+BP0000005262+0000005262+000000000+000000737+0000005990+0000000009+I20000000000+0000005990+Z
207156001207156366-000125     207156006003000006786DRESSUP WINGS/WAND/BAND0000001000+00005262+00000+0001T   00005262+0000001645          1400 1IC131               2AZ
207157000207157               207157               170213BP     1400+00000+BP0000009237+0000009237+000000000+000001294+0000010531+0000000000+I40000010531+0000000000+Z
207157001207157562-000051     207157006003000308798EDU EXCAVATION KIT ASST0000001000+00003507+00000+0001T   00003507+0000001650          1400 1IC755               2AZ
207157002207157565-000002     207157006003000308071NOVELTY GROWING ANIMALS0000001000+00001753+00000+0001T   00001753+0000001650          1400 1IC745               2AZ
207157003207157046-000012     207157006904708013062BATTERIES AA  CARD-OF-40000001000+00001314+00000+0001T   00001314+0000001650          1400 1IC312               2AZ
207157004207157159-000149     207157006003000010998SOAP-DISH FOUR-LEAF    0000002000+00001314+00000+0001T   00001314+0000001650          1400 1IC200               2AZ
207157005207157112-116038     207157006009681820246TCS CARRIER BAG MIDI   0000001000+00000035+00000+0001T   00000035+0000001650          1400 1IC090               2AZ
207158000207158               207158               170213BP     1400+00000+BP0000045217+0000045217+000000000+000006332+0000051549+0000000000+I40000051549+0000000000+Z
207158001207158031-001009     207158008715055020225PICTURE-FRAME COLLAGE  0000001000+00008771+00000+0001T   00008771+0000001652          1400 1IC510               2AZ
207158002207158031-005853     207158006003000442416P/FRAME WDN TWIN HEARTS0000001000+00003507+00000+0001T   00003507+0000001652          1400 1IC510               2AZ
207158003207158031-000845     207158006001023851819PICTURE-FRAME ASSTD    0000001000+00003946+00000+0001T   00003946+0000001652          1400 1IC510               2AZ
207158004207158031-000848     207158006001023851901P/FRAME COLLAGE 2ASSTD 0000001000+00004385+00000+0001T   00004385+0000001652          1400 1IC510               2AZ
207158005207158031-001006     207158006003000379064P/FRAME PL SET 10PC    0000001000+00024560+00000+0001T   00024560+0000001652          1400 1IC510               2AZ
207158006207158112-116069     207158006009681820277TCS CARRIER BAG JUMBO  0000001000+00000048+00000+0001T   00000048+0000001652          1400 1IC090               2AZ
207159000207159               207159               170213BP     1400+00000+BP0000002630+0000002630+000000000+000000369+0000002990+0000000009+I20000000000+0000002990+Z
207159001207159304-001605     207159006001023842497FLWR LILY SPRAY 53CM   0000001000+00002630+00000+0001T   00002630+0000001653          1400 MN7510               2AZ
207160000207160               207160               170213BP     1400+00000+BP0000003507+0000003507+000000000+000000491+0000003990+0000000008+I20000000000+0000003990+Z
207160001207160566-000997     207160006001023554086STICKERS TATTOOS BOOK  0000001000+00003507+00000+0001T   00003507+0000001701          1400 MN7130               2AZ
207161000207161               207161               170213BP     1400+00000+BP0000001753+0000001753+000000000+000000246+0000001990+0000000009+I20000000000+0000001990+Z
207161001207161007-000043     207161006009635831496DISPLAY-BOOK PL A4 20PG0000001000+00001753+00000+0001T   00001753+0000001702          1400 MN7130               2AZ
207162000207162               207162               170213BP     1400+00000+BP0000003069+0000003069+000000000+000000430+0000003499+0000000000+I40000003499+0000000000+Z
207162001207162301-002030     207162006001023861030ORN WATERBALL DOLPHINS 0000001000+00003069+00000+0001T   00003069+0000001704          1400 MN7505               2AZ
207163000207163               207163               170213BP     1400+00000+BP0000000393+0000000393+000000000+000000056+0000000440+0000000009+I20000000000+0000000440+Z
207163001207163903-000183     207163006003000451043SWT LB HEART LOLLY     0000001000+00000393+00000+0001T   00000393+0000001704          1400 MN7150               2AZ
207164000207164               207164               170213BP     1400+00000+BP0000004997+0000004997+000000000+000000700+0000005697+0000000000+I40000005697+0000000000+Z
207164001207164018-000136     207164006001023659026MUG OCC LOVE W/PLUSH   0000001000+00003507+00000+0001T   00003507+0000001706          1400 MN7515               2AZ
207164002207164077-000299     207164006003000395576G/BAG 32x25cm LRG LOVE 0000001000+00001490+00000+0001T   00001490+0000001706          1400 MN7112               2AZ
207165000207165               207165               170213BP     1400+00000+BP0000001436+0000001436+000000000+000000202+0000001630+0000000008+I20000000000+0000001630+Z
207165001207165071-081101-A   207165006003000326549GLUE-STICK 25g BLISTER 0000001000+00000788+00000+0001T   00000788+0000001706          1400 MN7130               2AZ
207165002207165567-010549     207165000000002526584COLOURING BOOK 16P     0000001000+00000613+00000+0001T   00000876+0008131706          1400 MN7757               2AZ
207165003207165112-116038     207165006009681820246TCS CARRIER BAG MIDI   0000001000+00000035+00000+0001T   00000035+0000001706          1400 MN7090               2AZ
207166000207166               207166               170213BP     1400+00000+BP0000000876+0000000876+000000000+000000123+0000000990+0000000009+I20000000000+0000000990+Z
207166001207166366-007601     207166006003000655472DRESS UP MASK THEATRICA0000001000+00000876+00000+0001T   00000876+0000001707          1400 MN7131               2AZ
207167000207167               207167               170213BP     1400+00000+BP0000000612+0000000612+000000000+000000086+0000000690+0000000008+I20000000000+0000000690+Z
207167001207167079-009700-D   207167006003000545711PAPER SIRIO A4 RED COL.0000002000+00000306+00000+0001T   00000306+0000001709          1400 MN7130               2AZ
207168000207168               207168               170213BP     1400+00000+BP0000001753+0000001753+000000000+000000246+0000001990+0000000009+I20000000000+0000001990+Z
207168001207168200-003024     207168006001023657299REFUSE BAGS 20PCE BLACK0000001000+00001753+00000+0001T   00001753+0000001710          1400 MN7214               2AZ
207169000207169               207169               170213BP     1400+00000+BP0000002630+0000002630+000000000+000000369+0000002990+0000000009+I20000000000+0000002990+Z
207169001207169365-008629     207169006001023494009PLAY C/PHONE B/O MUSIC 0000001000+00002630+00000+0001T   00002630+0000001711          1400 MN7725               2AZ
207170000207170               207170               170213BP     1400+00000+BP0000001753+0000001753+000000000+000000246+0000001990+0000000009+I20000000000+0000001990+Z
207170001207170361-000712     207170006001023837714DOLL BLOW MOULD 22cm   0000001000+00001753+00000+0001T   00001753+0000001711          1400 MN7725               2AZ
207171000207171               207171               170213BP     1400+00000+BP0000004384+0000004384+000000000+000000614+0000004998+0000000000+I40000004998+0000000000+Z
207171001207171077-000509     207171006003000082582GIFT-BAG SML 6PCE ORG P0000002000+00002192+00000+0001T   00002192+0000001714          1400 MN7112               2AZ
207172000207172               207172               170213BP     1400+00000+BP0000001753+0000001753+000000000+000000246+0000001990+0000000009+I20000000000+0000001990+Z
207172001207172903-000619     207172006003000672455SWT LOLLY STR/BRRY 140G0000001000+00001753+00000+0001T   00001753+0000001715          1400 MN7150               2AZ
207173000207173               207173               170213BP     1400+00000+BP0000004383+0000004383+000000000+000000615+0000004990+0000000008+I20000000000+0000004990+Z
207173001207173366-002101     207173006003000617715DRESS UP MASK LIGHT UP 0000001000+00002630+00000+0001T   00002630+0000001716          1400 MN7131               2AZ
207173002207173366-006104     207173006003000616930DRESS UP FACE PAINT    0000001000+00001753+00000+0001T   00001753+0000001716          1400 MN7131               2AZ
207174000207174               207174               170213BP     1400+00000+BP0000001490+0000001490+000000000+000000209+0000001690+0000000009+I20000000000+0000001690+Z
207174001207174263-000413     207174006003000600458VEHICLE RACER PULL BACK0000001000+00001490+00000+0001T   00001490+0000001716          1400 MN7710               2AZ
207175000207175               207175               170213BP     1400+00000+BP0000000876+0000000876+000000000+000000123+0000000990+0000000009+I20000000000+0000000990+Z
207175001207175077-000408     207175006003000145218G/BAG PP 15X21X7CM     0000001000+00000876+00000+0001T   00000876+0000001717          1400 MN7112               2AZ
207176000207176               207176               170213BP     1400+00000+BP0000001753+0000001753+000000000+000000246+0000001999+0000000000+I40000001999+0000000000+Z
207176001207176366-007600     207176006001023902184MASK THEATRICAL GLITTER0000001000+00001753+00000+0001T   00001753+0000001718          1400 MN7131               2AZ
207177000207177               207177               170213BP     1400+00000+BP0000021926+0000021926+000000000+000003071+0000024990+0000000007+I20000000000+0000024990+Z
207177001207177018-030000     207177006003000421060MUG OCCASIONS LOVE 2PCE0000001000+00004385+00000+0001T   00004385+0000001729          1400 MN7515               2AZ
207177002207177368-000113     207177006001023780874PLUSH BLINGED LOVE 30cm0000001000+00012279+00000+0001T   00012279+0000001729          1400 MN7745               2AZ
207177003207177301-085003     207177006003000420827ORN OCCASION LOVE KEY  0000001000+00005262+00000+0001T   00005262+0000001729          1400 MN7505               2AZ
207178000207178               207178               170213BP     1400+00000+BP0000007454+0000007454+000000000+000001044+0000008490+0000000008+I20000000000+0000008490+Z
207178001207178301-085003     207178006003000420827ORN OCCASION LOVE KEY  0000001000+00005262+00000+0001T   00005262+0000001732          1400 MN7505               2AZ
207178002207178566-000068     207178006003000418046POP UP LOVE 2 ASSTD    0000001000+00002192+00000+0001T   00002192+0000001732          1400 MN7130               2AZ
207179000207179               207179               170213BP     1400+00000+BP0000000876+0000000876+000000000+000000123+0000000990+0000000009+I20000000000+0000000990+Z
207179001207179903-000520     207179006001704009898SWT GUMMY MINI SOUR 60g0000001000+00000876+00000+0001T   00000876+0000001735          1400 MN7150               2AZ
207180000207180               207180               170213BP     1400+00000+BP0000003541+0000003541+000000000+000000497+0000004030+0000000008+I20000000000+0000004030+Z
207180001207180301-085006     207180006001023502940ORN LOVE MSG TUBE W/HRT0000002000+00001753+00000+0001T   00001753+0000001736          1400 MN7505               2AZ
207180002207180112-116038     207180006009681820246TCS CARRIER BAG MIDI   0000001000+00000035+00000+0001T   00000035+0000001736          1400 MN7090               2AZ
207181000207181               207181               170213BP     1400+00000+BP0000000964+0000000964+000000000+000000135+0000001090+0000000009+I20000000000+0000001090+Z
207181001207181903-000843     207181008693029031067SWT GUMMY JELAXY 80G   0000001000+00000964+00000+0001T   00000964+0000001737          1400 MN7150               2AZ
M17021301                              SHIEHAAM    BPATT: SHIEHAAM                                   Z READ: 5705.67                                 CASH: 3823.30                                   CARDS: 1882.37                                  KLEINM BP
M17021391                              CASH        BPSLAVE 2                       Z-REPORT No.   631TOTAL (Sales - Refunds)           5705.67       CASH TO BE BANKED                 3823.30       DEBIT CARDS                          0.00       CREDIT CARDS                      1882.37       Z-READING                         5705.67       AIRTIME DEBIT CARD SALES             0.00       AIRTIME CARD SALES                   0.00       OVERS/UNDERS                         0.00       AIRTIME CASH SALES                   0.00       GIFT CARDS                           0.00       GIFT CARD CASH SALES                 0.00       T O T A L  CASH PAYOUTS              0.00                                                                                                                                                                                                                                                                                                                                                      Z
M17021392                              CASH        BPABSENT                                                                                                                                                                                          ANNUAL LEAVE                                                                                                                                                                                    DAY OFF                                                                                                                                                                                         COMMENTS                                                                                                                                                                                                                                                                                                                                                                                       Z
Y17021300                                          BP00000000509673+000090
ZBP17021319213 SLAVE 2      SALES DATA                     NEXT INVOICE NO.  207182 0631
X BP Slave 2 First invoice 207091 170213 Last invoice 207181 170213 Next invoice 207182 Total number of records 000000295 clbackup completed 19:21:55
