127183000127183               127183               170213BR     1400+00000+BR0000005293+0000005293+000000000+000000742+0000006035+0000000000+I40000006035+0000000000+Z
127183001127183080-000133-A   127183006003000647019MINI VALENTINES CARD   0000001000+00000437+00000+0001T   00000437+0000000910          1400 ED7112               2AZ
127183002127183018-005009     127183006001023725608MUG W/PLUSH-BEAR LOVE  0000001000+00003507+00000+0001T   00003507+0000000910          1400 ED7515               2AZ
127183003127183903-000194     127183006009826020616SWT CHOC RP LOLLY 25G  0000001000+00001314+00000+0001T   00001314+0000000910          1400 ED7150               2AZ
127183004127183112-116038     127183006009681820246TCS CARRIER BAG MIDI   0000001000+00000035+00000+0001T   00000035+0000000910          1400 ED7090               2AZ
127184000127184               127184               170213BR     1400+00000+BR0000003507+0000003507+000000000+000000491+0000003990+0000000008+I20000000000+0000003990+Z
127184001127184174-000314     127184006003000053575TRAVEL SEWING KIT      0000001000+00003507+00000+0001T   00003507+0000000911          1400 ED7205               2AZ
127185000127185               127185               170213BR     1400+00000+BR0000013063+0000013063+000000000+000001831+0000014890+0000000004+I20000000000+0000014890+Z
127185001127185079-009702-B   127185008427973059491PAPER SIRIO A2 WHITE   0000002000+00001051+00000+0001T   00001051+0000000915          1400 ED7130               2AZ
127185002127185007-000325     127185006009698066514PAPER A4 160GSM 25SHTS 0000001000+00003507+00000+0001T   00003507+0000000915          1400 ED7130               2AZ
127185003127185079-013032-G   127185006003000496389FOAM BUTTERFLIES       0000001000+00002192+00000+0001T   00002192+0000000915          1400 ED7130               2AZ
127185004127185133-000083     127185006003000450510DISH DRAINING MAT      0000001000+00005262+00000+0001T   00005262+0000000915          1400 ED7212               2AZ
127186000127186               127186               170213BR     1400+00000+BR0000001839+0000001839+000000000+000000258+0000002090+0000000007+I20000000000+0000002090+Z
127186001127186047-000001-BB  127186006001023723536INS-TAPE BLACK 18mmx10m0000003000+00000613+00000+0001T   00000613+0000000933          1400 ED7880               2AZ
127187000127187               127187               170213BR     1400+00000+BR0000001490+0000001490+000000000+000000209+0000001690+0000000009+I20000000000+0000001690+Z
127187001127187089-000141-H   127187006001023416568KEY-CHAINS 6PCE     H&H0000001000+00001490+00000+0001T   00001490+0000001020          1400 ED7205               2AZ
127188000127188               127188               170213BR     1400+00000+BR0000001753+0000001753+000000000+000000246+0000001990+0000000009+I20000000000+0000001990+Z
127188001127188079-006500     127188006001023557186GLUE GLITTER 6/10 PCE  0000001000+00001753+00000+0001T   00001753+0000001021          1400 ED7130               2AZ
127189000127189               127189               170213BR     1400+00000+BR0000000437+0000000437+000000000+000000062+0000000490+0000000009+I20000000000+0000000490+Z
127189001127189080-000133-A   127189006003000647019MINI VALENTINES CARD   0000001000+00000437+00000+0001T   00000437+0000001025          1400 ED7112               2AZ
127190000127190               127190               170213BR     1400+00000+BR0000000000+0000000000+000000000+000000000+0000000000+0000000000+I20000000000+0000000000+Z
127190001127190496-058426     127190000078257584260POOL CRYSTAL-BLU 147x330000001000-00012279+00000+0001T   00012279+0000001036          1400 ED77871IC            2 Z
127190002127190496-058426     127190000078257584260POOL CRYSTAL-BLU 147x330000001000+00012279+00000+0001T   00012279+0000001036          1400 ED77871IC            2 Z
127191000127191               127191               170213BR     1400+00000+BR0000000437+0000000437+000000000+000000062+0000000490+0000000009+I20000000000+0000000490+Z
127191001127191080-000133-A   127191006003000647019MINI VALENTINES CARD   0000001000+00000437+00000+0001T   00000437+0000001036          1400 ED7112               2AZ
127192000127192               127192               170213BR     1400+00000+BR0000017542+0000017542+000000000+000002456+0000019990+0000000008+I20000000000+0000019990+Z
127192001127192586-010651     127192006001492106519WATCH 3PCE GOLD&PEARL  0000001000+00017542+00000+0001T   00017542+0000001105          1400 OG7160               2AZ
127193000127193               127193               170213BR     1400+00000+BR0000007976+0000007976+000000000+000001119+0000009090+0000000005+I20000000000+0000009090+Z
127193001127193105-001005     127193006001023858214CONTAINERS MINI 6PCE   0000001000+00001402+00000+0001T   00001402+0000001115          1400 ED7210               2AZ
127193002127193251-000012     127193006001023597915TAPE DUCT GREY 48mmx5m 0000001000+00002630+00000+0001T   00002630+0000001115          1400 ED7810               2AZ
127193003127193251-000001     127193006001023487681TAPE DBL-SIDE 18x1000mm0000001000+00001314+00000+0001T   00001314+0000001115          1400 ED7810               2AZ
127193004127193004-071192     127193006003000528813USB CABLE 1.0m         0000001000+00002630+00000+0001T   00002630+0000001115          1400 ED7310               2AZ
127194000127194               127194               170213BR     1400+00000+BR0000001262+0000001262+000000000+000000177+0000001430+0000000009+I20000000000+0000001430+Z
127194001127194071-081091     127194006001151010287STAED/GENKEM ALL-STICK 0000001000+00001227+00000+0001T   00001227+0000001116          1400 ED7130               2AZ
127194002127194112-116038     127194006009681820246TCS CARRIER BAG MIDI   0000001000+00000035+00000+0001T   00000035+0000001116          1400 ED7090               2AZ
127195000127195               127195               170213BR     1400+00000+BR0000003418+0000003418+000000000+000000479+0000003897+0000000000+I40000003897+0000000000+Z
127195001127195174-008028     127195006009654960825TRAVEL JARS 4-PACK     0000001000+00001928+00000+0001T   00001928+0000001118          1400 ED7205               2AZ
127195002127195306-000969     127195006003000559350FIRSTAID PLASTER 10PC  0000001000+00001490+00000+0001T   00001490+0000001118          1400 ED7200               2AZ
127196000127196               127196               170213BR     1400+00000+BR0000003977+0000003977+000000000+000000557+0000004534+0000000000+I40000004534+0000000000+Z
127196001127196077-000310     127196006001023608635GIFT-BAG 18X23CM GLOSS 0000003000+00001314+00000+0001T   00001314+0000001125          1400 ED7112               2AZ
127196002127196112-116038     127196006009681820246TCS CARRIER BAG MIDI   0000001000+00000035+00000+0001T   00000035+0000001125          1400 ED7090               2AZ
127197000127197               127197               170213BR     1400+00000+BR0000001402+0000001402+000000000+000000197+0000001599+0000000000+I40000001599+0000000000+Z
127197001127197018-000030     127197006001023797575M/DAILY STRAIGHT CER.  0000001000+00001402+00000+0001T   00001402+0000001126          1400 ED7515               2AZ
127198000127198               127198               170213BR     1400+00000+BR0000006577+0000006577+000000000+000000921+0000007490+0000000008+I20000000000+0000007490+Z
127198001127198006-000190     127198006003000685530BALLOONS LOVE 81x91cm  0000001000+00004385+00000+0001T   00004385+0000001127          1400 ED7131               2AZ
127198002127198563-000318-L   127198006003000407088SERVIETTES 33cm RED    0000001000+00002192+00000+0001T   00002192+0000001127          1400 ED7214               2AZ
127199000127199               127199               170213BR     1400+00000+BR0000013593+0000013593+000000000+000001904+0000015497+0000000000+I40000015497+0000000000+Z
127199001127199366-000901     127199006003000563807DRESS UP WINGS B/FLY   0000001000+00007893+00000+0001T   00007893+0000001129          1400 ED7131               2AZ
127199002127199174-000140     127199006003000367450STORAGE ORGANISER 30X300000001000+00005700+00000+0001T   00005700+0000001129          1400 ED7205               2AZ
127200000127200               127200               170213BR     1400+00000+BR0000003156+0000003156+000000000+000000442+0000003590+0000000008+I20000000000+0000003590+Z
127200001127200077-000303     127200006001023593757GIFT-BAG PAPER MED     0000002000+00001578+00000+0001T   00001578+0000001156          1400 ED7112               2AZ
127201000127201               127201               170213BR     1400+00000+BR0000019972+0000019972+000000000+000002802+0000022774+0000000000+I40000022774+0000000000+Z
127201001127201006-000111     127201006003000519385BALLOONS LARGE 12PCE   0000002000+00002630+00000+0001T   00002630+0000001225          1400 OG7131               2AZ
127201002127201006-001000     127201006003000093779HELIUM BALLOON FILL    0000024000+00000613+00000+0001T   00000613+0000001225          1400 OG7131               2AZ
127202000127202               127202               170213BR     1400+00000+BR0000003506+0000003506+000000000+000000492+0000003998+0000000000+I40000003998+0000000000+Z
127202001127202080-000133-A   127202006003000647019MINI VALENTINES CARD   0000001000+00000437+00000+0001T   00000437+0000001302          1400 ED7112               2AZ
127202002127202089-060027     127202006003000245871KEY-CHAIN HEART 6X6cm  0000001000+00003069+00000+0001T   00003069+0000001302          1400 ED7205               2AZ
127203000127203               127203               170213BR     1400+00000+BR0000016472+0000016472+000000000+000002310+0000018782+0000000000+I40000018782+0000000000+Z
127203001127203047-000505     127203006009636901976PLUG-ADAPTOR 2-PIN     0000002000+00000876+00000+0001T   00000876+0000001304          1400 ED7880               2AZ
127203002127203047-000503-H   127203006001023663849EUROMATE BOTTOM-ENTRY H0000002000+00001314+00000+0001T   00001314+0000001304          1400 ED7880               2AZ
127203003127203047-000504-H   127203006001023589958PLUG EURODAPTOR 2PIN HH0000002000+00001665+00000+0001T   00001665+0000001304          1400 ED7880               2AZ
127203004127203047-000503-H   127203006001023663849EUROMATE BOTTOM-ENTRY H0000003000+00001314+00000+0001T   00001314+0000001304          1400 ED7880               2AZ
127203005127203047-000502-H   127203006001023780041PLUG 2x2PIN EURO       0000001000+00001753+00000+0001T   00001753+0000001304          1400 ED7880               2AZ
127203006127203047-000503-H   127203006001023663849EUROMATE BOTTOM-ENTRY H0000001000+00001314+00000+0001T   00001314+0000001304          1400 ED7880               2AZ
127203007127203047-000502-H   127203006001023780041PLUG 2x2PIN EURO       0000001000+00001753+00000+0001T   00001753+0000001304          1400 ED7880               2AZ
127204000127204               127204               170213BR     1400+00000+BR0000003769+0000003769+000000000+000000529+0000004290+0000000008+I20000000000+0000004290+Z
127204001127204046-000014     127204006001023725387BATTERIES SIZE:AAA 4PCE0000001000+00001139+00000+0001T   00001139+0000001309          1400 ED7312               2AZ
127204002127204031-000873-A   127204006003000675425P/FRAME WDN WHITE 10X150000001000+00002630+00000+0001T   00002630+0000001309          1400 ED7510               2AZ
127205000127205               127205               170213BR     1400+00000+BR0000002103+0000002103+000000000+000000295+0000002390+0000000008+I20000000000+0000002390+Z
127205001127205007-000167     127205006009685857347SPIRAL NOTES A7 72PG   0000001000+00000350+00000+0001T   00000350+0000001326          1400 ED7130               2AZ
127205002127205077-000116     127205006003000240777GIFT-WRAP 700mmx2m COL 0000001000+00001753+00000+0001T   00001753+0000001326          1400 ED7112               2AZ
127206000127206               127206               170213BR     1400+00000+BR0000000035+0000000035+000000000+000000005+0000000040+0000000000+I20000000000+0000000040+Z
127206001127206112-116038     127206006009681820246TCS CARRIER BAG MIDI   0000001000+00000035+00000+0001T   00000035+0000001326          1400 ED7090               2AZ
127207000127207               127207               170213BR     1400+00000+BR0000005700+0000005700+000000000+000000798+0000006498+0000000000+I40000006498+0000000000+Z
127207001127207264-000925-403 127207004893993300006BURAGO 1:43 STREET FIRE0000001000+00005700+00000+0001T   00005700+0000001328          1400 ED7710               2AZ
127208000127208               127208               170213BR     1400+00000+BR0000000437+0000000437+000000000+000000062+0000000490+0000000009+I20000000000+0000000490+Z
127208001127208080-000133-A   127208006003000647019MINI VALENTINES CARD   0000001000+00000437+00000+0001T   00000437+0000001328          1400 ED7112               2AZ
127209000127209               127209               170213BR     1400+00000+BR0000000964+0000000964+000000000+000000135+0000001090+0000000009+I20000000000+0000001090+Z
127209001127209903-000843     127209008693029031067SWT GUMMY JELAXY 80G   0000001000+00000964+00000+0001T   00000964+0000001334          1400 ED7150               2AZ
127210000127210               127210               170213BR     1400+00000+BR0000004384+0000004384+000000000+000000614+0000004990+0000000008+I20000000000+0000004990+Z
127210001127210031-000868-A   127210006001023798534P/FRAME PL BLCK 10X15CM0000002000+00002192+00000+0001T   00002192+0000001337          1400 ED75101IC            2AZ
127211000127211               127211               170213BR     1400+00000+BR0000012047+0000012047+000000000+000001689+0000013736+0000000000+I40000013736+0000000000+Z
127211001127211077-000904     127211006003000410682G/WRAP 700mmx1m PATTERN0000001000+00001753+00000+0001T   00001753+0000001340          1400 ED7112               2AZ
127211002127211562-000504     127211006001023619327EDU CUBE RUBIX         0000001000+00002630+00000+0001T   00002630+0000001340          1400 ED7755               2AZ
127211003127211562-088356     127211006001023767219EVA MAT 27cm           0000001000+00006139+00000+0001T   00006139+0000001340          1400 ED7755               2AZ
127211004127211464-000106     127211006001023171153PLAYING-CARDS (SINGLE) 0000001000+00001490+00000+0001T   00001490+0000001340          1400 ED7785               2AZ
127211005127211112-116038     127211006009681820246TCS CARRIER BAG MIDI   0000001000+00000035+00000+0001T   00000035+0000001340          1400 ED7090               2AZ
127212000127212               127212               170213BR     1400+00000+BR0000009417+0000009417+000000000+000001320+0000010737+0000000000+I40000010737+0000000000+Z
127212001127212463-000140     127212006003000551804WATER BLASTER MEDIUM   0000001000+00002630+00000+0001T   00002630+0000001341          1400 ED7785               2AZ
127212002127212079-000334     127212006003000670437THERAPY P/CRAYONS 18   0000001000+00005262+00000+0001T   00005262+0000001341          1400 ED7130               2AZ
127212003127212565-004101     127212006003000548033BALL BOUNCING EGG      0000001000+00001490+00000+0001T   00001490+0000001341          1400 ED7745               2AZ
127212004127212112-116038     127212006009681820246TCS CARRIER BAG MIDI   0000001000+00000035+00000+0001T   00000035+0000001341          1400 ED7090               2AZ
127213000127213               127213               170213BR     1400+00000+BR0000001217+0000001217+000000000+000000171+0000001380+0000000008+I20000000000+0000001380+Z
127213001127213077-000011-L   127213006001023808585P/TISSUE BRIGHT 10SHEET0000001000+00000876+00000+0001T   00000876+0000001342          1400 ED7112               2AZ
127213002127213079-009700-D   127213006003000545711PAPER SIRIO A4 RED COL.0000001000+00000306+00000+0001T   00000306+0000001342          1400 ED7130               2AZ
127213003127213112-116038     127213006009681820246TCS CARRIER BAG MIDI   0000001000+00000035+00000+0001T   00000035+0000001342          1400 ED7090               2AZ
127214000127214               127214               170213BR     1400+00000+BR0000004691+0000004691+000000000+000000657+0000005348+0000000000+I40000005348+0000000000+Z
127214001127214079-009700-D   127214006003000545711PAPER SIRIO A4 RED COL.0000001000+00000306+00000+0001T   00000306+0000001344          1400 ED7130               2AZ
127214002127214016-006500     127214006003000618460S/JAR GLS HERMETICO    0000001000+00004385+00000+0001T   00004385+0000001344          1400 ED7300               2AZ
127215000127215               127215               170213BR     1400+00000+BR0000016258+0000016258+000000000+000002278+0000018536+0000000000+I40000018536+0000000000+Z
127215001127215028-000014     127215006001334001316ICE-BRICK SOLID MEDIUM 0000002000+00001753+00000+0001T   00001753+0000001346          1400 ED7305               2AZ
127215002127215263-000559     127215006003000671908VEHICLE TAPE 5m 4.8cm  0000001000+00003069+00000+0001T   00003069+0000001346          1400 ED7710               2AZ
127215003127215113-000164     127215006003000459582VACUUM FLASK 0.6L      0000001000+00009648+00000+0001T   00009648+0000001346          1400 ED7305               2AZ
127215004127215112-116038     127215006009681820246TCS CARRIER BAG MIDI   0000001000+00000035+00000+0001T   00000035+0000001346          1400 ED7090               2AZ
127216000127216               127216               170213BR     1400+00000+BR0000020389+0000020389+000000000+000002858+0000023247+0000000000+I40000023247+0000000000+Z
127216001127216080-000127     127216006003000424351VALENTINES DAY 36x24CM 0000001000+00002192+00000+0001T   00002192+0000001349          1400 ED7112               2AZ
127216002127216903-000120     127216006002099001665SWEET GS ZILLIONS 50g  0000001000+00000700+00000+0001T   00000700+0000001349          1400 ED7150               2AZ
127216003127216077-000270     127216006003000395453GIFT-BAG PPR JMB 33X45 0000001000+00002630+00000+0001T   00002630+0000001349          1400 ED7112               2AZ
127216004127216903-000183     127216006003000451043SWT LB HEART LOLLY     0000002000+00000393+00000+0001T   00000393+0000001349          1400 ED7150               2AZ
127216005127216031-006541     127216006001023695062P/FRAME COLLAGE PL ASST0000001000+00005262+00000+0001T   00005262+0000001349          1400 ED7510               2AZ
127216006127216368-000012     127216006003000610464PLUSH BEAR 30cm SITTING0000001000+00008771+00000+0001T   00008771+0000001349          1400 ED7745               2AZ
127216007127216112-116069     127216006009681820277TCS CARRIER BAG JUMBO  0000001000+00000048+00000+0001T   00000048+0000001349          1400 ED7090               2AZ
127217000127217               127217               170213BR     1400+00000+BR0000001788+0000001788+000000000+000000251+0000002030+0000000009+I20000000000+0000002030+Z
127217001127217466-064838     127217006001023835031BALLS MASSAGE 8cm SET-30000001000+00001753+00000+0001T   00001753+0000001349          1400 ED7785               2AZ
127217002127217112-116038     127217006009681820246TCS CARRIER BAG MIDI   0000001000+00000035+00000+0001T   00000035+0000001349          1400 ED7090               2AZ
127218000127218               127218               170213BR     1400+00000+BR0000004557+0000004557+000000000+000000639+0000005196+0000000000+I40000005196+0000000000+Z
127218001127218903-000087     127218006001704000161SWT SPECKLED-EGGS 50G  0000001000+00001139+00000+0001T   00001139+0000001350          1400 ED7150               2AZ
127218002127218903-000095     127218006001704011495SWT SPECKLED-EGGS 100G 0000001000+00002104+00000+0001T   00002104+0000001350          1400 ED7150               2AZ
127218003127218362-000307     127218006003000519750HAIR HEADBAND PRINTED  0000001000+00001314+00000+0001T   00001314+0000001350          1400 ED7160               2AZ
127219000127219               127219               170213BR     1400+00000+BR0000028929+0000028929+000000000+000004054+0000032980+0000000003+I20000000000+0000032980+Z
127219001127219903-000844     127219005010478432567SWT CANDY DL LUV HEARTS0000002000+00001314+00000+0001T   00001314+0000001352          1400 ED7150               2AZ
127219002127219565-000041     127219006008766115642NOVELTY BALL ICON 5.5cm0000002000+00002630+00000+0001T   00002630+0000001352          1400 ED7745               2AZ
127219003127219566-002000     127219000721129013206STICKERS CRYSTAL ASSTD 0000001000+00000700+00000+0001T   00000700+0000001352          1400 ED7130               2AZ
127219004127219089-060027     127219006003000245871KEY-CHAIN HEART 6X6cm  0000002000+00003069+00000+0001T   00003069+0000001352          1400 ED7205               2AZ
127219005127219903-000155     127219006009803374435SWT LOLLY I LUV U HEART0000002000+00000525+00000+0001T   00000525+0000001352          1400 ED7150               2AZ
127219006127219007-000096     127219006001023855114ENVELOPES WHT    BOX-400000002000+00003507+00000+0001T   00003507+0000001352          1400 ED7130               2AZ
127219007127219007-000890-17  127219006003000645671CALENDAR 2017 ASSTD    0000001000+00006139+00000+0001T   00006139+0000001352          1400 ED7130               2AZ
127220000127220               127220               170213BR     1400+00000+BR0000007892+0000007892+000000000+000001106+0000008990+0000000008+I20000000000+0000008990+Z
127220001127220306-007302     127220006001023730954BACK-SCRATCH+MASSAGE-WH0000001000+00001753+00000+0001T   00001753+0000001352          1400 ED7200               2AZ
127220002127220018-055000     127220006003000441457COFFEE PLUNGER PL 600ML0000001000+00006139+00000+0001T   00006139+0000001352          1400 ED7515               2AZ
127221000127221               127221               170213BR     1400+00000+BR0000018447+0000018447+000000000+000002587+0000021030+0000000004+I20000000000+0000021030+Z
127221001127221466-000515     127221006001023477408BALLS TENNIS BAG-OF-3  0000001000+00002630+00000+0001T   00002630+0000001400          1400 ED7785               2AZ
127221002127221079-013032-H   127221006003000496501GLITTER PRINCESS ACC   0000001000+00002630+00000+0001T   00002630+0000001400          1400 ED7130               2AZ
127221003127221079-006495     127221006003000159987GLITTER SHAKERS 6PK    0000001000+00002630+00000+0001T   00002630+0000001400          1400 ED7130               2AZ
127221004127221079-013032-H   127221006003000496501GLITTER PRINCESS ACC   0000001000+00002630+00000+0001T   00002630+0000001400          1400 ED7130               2AZ
127221005127221079-006522     127221006001023149442ART+CRAFT GLUE ASSORTED0000001000+00001753+00000+0001T   00001753+0000001400          1400 ED7130               2AZ
127221006127221112-116038     127221006009681820246TCS CARRIER BAG MIDI   0000001000+00000035+00000+0001T   00000035+0000001400          1400 ED7090               2AZ
127221007127221007-000890-17  127221006003000645671CALENDAR 2017 ASSTD    0000001000+00006139+00000+0001T   00006139+0000001400          1400 ED7130               2AZ
127222000127222               127222               170213BR     1400+00000+BR0000007086+0000007086+000000000+000000993+0000008079+0000000000+I40000008079+0000000000+Z
127222001127222019-000300     127222006001023845139VASE CER. ASST         0000001000+00007016+00000+0001T   00007016+0000001402          1400 ED7510               2AZ
127222002127222112-116038     127222006009681820246TCS CARRIER BAG MIDI   0000002000+00000035+00000+0001T   00000035+0000001402          1400 ED7090               2AZ
127223000127223               127223               170213BR     1400+00000+BR0000003979+0000003979+000000000+000000558+0000004530+0000000007+I20000000000+0000004530+Z
127223001127223077-000151     127223006008766114676GIFT-WRAP C/PHANE ASSTD0000001000+00000876+00000+0001T   00000876+0000001403          1400 ED7112               2AZ
127223002127223077-000150-D   127223006003000054343GIFT-WRAP CELLPHANE CLR0000001000+00000876+00000+0001T   00000876+0000001403          1400 ED7112               2AZ
127223003127223563-000318-L   127223006003000407088SERVIETTES 33cm RED    0000001000+00002192+00000+0001T   00002192+0000001403          1400 ED7214               2AZ
127223004127223112-116038     127223006009681820246TCS CARRIER BAG MIDI   0000001000+00000035+00000+0001T   00000035+0000001403          1400 ED7090               2AZ
127224000127224               127224               170213BR     1400+00000+BR0000003406+0000003406+000000000+000000479+0000003880+0000000005+I20000000000+0000003880+Z
127224001127224903-000520     127224006001704009898SWT GUMMY MINI SOUR 60g0000001000+00000876+00000+0001T   00000876+0000001407          1400 ED7150               2AZ
127224002127224903-000890     127224006009702259000SWT BEECHIES S/BERRY   0000001000+00000788+00000+0001T   00000788+0000001407          1400 ED7150               2AZ
127224003127224903-005000     127224006002580020007SWT CT MALLOW FISH 120g0000001000+00001314+00000+0001T   00001314+0000001407          1400 ED7150               2AZ
127224004127224903-000183     127224006003000451043SWT LB HEART LOLLY     0000001000+00000393+00000+0001T   00000393+0000001407          1400 ED7150               2AZ
127224005127224112-116038     127224006009681820246TCS CARRIER BAG MIDI   0000001000+00000035+00000+0001T   00000035+0000001407          1400 ED7090               2AZ
127225000127225               127225               170213BR     1400+00000+BR0000001490+0000001490+000000000+000000209+0000001690+0000000009+I20000000000+0000001690+Z
127225001127225464-000106     127225006001023171153PLAYING-CARDS (SINGLE) 0000001000+00001490+00000+0001T   00001490+0000001411          1400 ED7785               2AZ
127226000127226               127226               170213BR     1400+00000+BR0000003069+0000003069+000000000+000000430+0000003490+0000000009+I20000000000+0000003490+Z
127226001127226002-000117     127226006001023110879EGG POACHERS 2PC       0000001000+00003069+00000+0001T   00003069+0000001411          1400 ED7300               2AZ
127227000127227               127227               170213BR     1400+00000+BR0000007014+0000007014+000000000+000000982+0000007996+0000000000+I40000007996+0000000000+Z
127227001127227004-071204     127227006003000624904USB IN-CAR CHARGER 2.1A0000002000+00003507+00000+0001T   00003507+0000001412          1400 ED7310               2AZ
127228000127228               127228               170213BR     1400+00000+BR0000002630+0000002630+000000000+000000369+0000002990+0000000009+I20000000000+0000002990+Z
127228001127228466-000515     127228006001023477408BALLS TENNIS BAG-OF-3  0000001000+00002630+00000+0001T   00002630+0000001421          1400 ED7785               2AZ
127229000127229               127229               170213BR     1400+00000+BR0000014957+0000014957+000000000+000002095+0000017052+0000000000+I40000017052+0000000000+Z
127229001127229562-000520     127229006003000112777EDU BLOCKS WDN ALPHABET0000001000+00003507+00000+0001T   00003507+0000001429          1400 ED7755               2AZ
127229002127229024-000122     127229006003000240746NON-STICK CUP CAKE PAN 0000001000+00011402+00000+0001T   00011402+0000001429          1400 ED7300               2AZ
127229003127229112-116069     127229006009681820277TCS CARRIER BAG JUMBO  0000001000+00000048+00000+0001T   00000048+0000001429          1400 ED7090               2AZ
127230000127230               127230               170213BR     1400+00000+BR0000008328+0000008328+000000000+000001168+0000009496+0000000000+I40000009496+0000000000+Z
127230001127230077-000358     127230006003000329977GIFT-BAG KIDS 25X32CM  0000001000+00001753+00000+0001T   00001753+0000001430          1400 ED7112               2AZ
127230002127230080-000127     127230006003000424351VALENTINES DAY 36x24CM 0000001000+00002192+00000+0001T   00002192+0000001430          1400 ED7112               2AZ
127230003127230206-000220     127230006003000631704EGG TIMER COLOUR-CHANGE0000001000+00002630+00000+0001T   00002630+0000001430          1400 ED7321               2AZ
127230004127230206-000135     127230006003000680450T/BAG HLDR SILICONE    0000001000+00001753+00000+0001T   00001753+0000001430          1400 ED7321               2AZ
127231000127231               127231               170213BR     1400+00000+BR0000001753+0000001753+000000000+000000246+0000001990+0000000009+I20000000000+0000001990+Z
127231001127231077-000908     127231006003000410927G/WRAP 700mmx1m FLOWER 0000001000+00001753+00000+0001T   00001753+0000001432          1400 ED7112               2AZ
127232000127232               127232               170213BR     1400+00000+BR0000042708+0000042708+000000000+000005984+0000048692+0000000000+I40000048692+0000000000+Z
127232001127232566-000362     127232006003000583065STICKER LETTER & NUMBER0000001000+00001753+00000+0001T   00001753+0000001439          1400 ED7130               2AZ
127232002127232566-001118     127232006003000682171STICKERS CELL PHONE    0000001000+00001753+00000+0001T   00001753+0000001439          1400 ED7130               2AZ
127232003127232105-001076     127232006003000279166CONTAINER CLIP LOCK 2L 0000001000+00005262+00000+0001T   00005262+0000001439          1400 ED7210               2AZ
127232004127232566-000064     127232006001023689702STICKERS GLITTER BORDER0000001000+00003507+00000+0001T   00003507+0000001439          1400 ED7130               2AZ
127232005127232038-047246     127232006001023873750PLACEMAT 44x28cm KIDS  0000002000+00000876+00000+0001T   00000876+0000001439          1400 ED7300               2AZ
127232006127232105-003027     127232006001023114129CONTAINERS PL MINI 4PC 0000002000+00003507+00000+0001T   00004385+0008161439          1400 ED7210               2AZ
127232007127232105-001076     127232006003000279166CONTAINER CLIP LOCK 2L 0000001000+00005262+00000+0001T   00005262+0000001439          1400 ED7210               2AZ
127232008127232105-000750     127232006003000190270CONTAINERS 4xMINI 150ml0000001000+00001402+00000+0001T   00001402+0000001439          1400 ED7210               2AZ
127232009127232002-000652     127232006001023553188M/SPOON WDN 3PC H/HOUSE0000001000+00003069+00000+0001T   00003069+0000001439          1400 ED7300               2AZ
127232010127232002-000651     127232006003000467778TOASTER TONGS MAGNETIC 0000001000+00001314+00000+0001T   00001314+0000001439          1400 ED7300               2AZ
127232011127232106-000890     127232000876416080628WATER BOTTLE PL 700ml  0000002000+00005262+00000+0001T   00005262+0000001439          1400 ED7210               2AZ
127232012127232112-116069     127232006009681820277TCS CARRIER BAG JUMBO  0000002000+00000048+00000+0001T   00000048+0000001439          1400 ED7090               2AZ
127233000127233               127233               170213BR     1400+00000+BR0000002059+0000002059+000000000+000000289+0000002340+0000000008+I20000000000+0000002340+Z
127233001127233566-001118     127233006003000682171STICKERS CELL PHONE    0000001000+00001753+00000+0001T   00001753+0000001440          1400 ED7130               2AZ
127233002127233079-009700-D   127233006003000545711PAPER SIRIO A4 RED COL.0000001000+00000306+00000+0001T   00000306+0000001440          1400 ED7130               2AZ
127234000127234               127234               170213BR     1400+00000+BR0000008771+0000008771+000000000+000001228+0000009990+0000000009+I20000000000+0000009990+Z
127234001127234006-000165     127234006001023758392BALLOONS LRG BAG-OF-1000000001000+00008771+00000+0001T   00008771+0000001440          1400 ED7131               2AZ
127235000127235               127235               170213BR     1400+00000+BR0000007016+0000007016+000000000+000000983+0000007999+0000000000+I40000007999+0000000000+Z
127235001127235261-000443     127235006003000398607GUN B/O LIGHT`s & SOUND0000001000+00007016+00000+0001T   00007016+0000001449          1400 ED7710               2AZ
127236000127236               127236               170213BR     1400+00000+BR0000031134+0000031134+000000000+000004361+0000035495+0000000000+I40000035495+0000000000+Z
127236001127236046-000010-VP  127236006003000537792BATTERIES SIZE:AAA 12PC0000004000+00006139+00000+0001T   00006139+0000001450          1400 ED7312               2AZ
127236002127236046-000011-VP  127236006003000537839BATTERIES SIZE:AA 12PCE0000001000+00006578+00000+0001T   00006578+0000001450          1400 ED7312               2AZ
127237000127237               127237               170213BR     1400+00000+BR0000002886+0000002886+000000000+000000408+0000003290+0000000004+I20000000000+0000003290+Z
127237001127237903-000183     127237006003000451043SWT LB HEART LOLLY     0000004000+00000393+00000+0001T   00000393+0000001453          1400 ED7150               2AZ
127237002127237903-000194     127237006009826020616SWT CHOC RP LOLLY 25G  0000001000+00001314+00000+0001T   00001314+0000001453          1400 ED7150               2AZ
127238000127238               127238               170213BR     1400+00000+BR0000000035+0000000035+000000000+000000005+0000000040+0000000000+I20000000000+0000000040+Z
127238001127238112-116038     127238006009681820246TCS CARRIER BAG MIDI   0000001000+00000035+00000+0001T   00000035+0000001454          1400 ED7090               2AZ
127239000127239               127239               170213BR     1400+00000+BR0000012278+0000012278+000000000+000001720+0000013998+0000000000+I40000013998+0000000000+Z
127239001127239264-000922     127239000090159250012MAISTO CAR PULL-BACK   0000002000+00006139+00000+0001T   00007016+0008191455          1400 ED7710               2AZ
127240000127240               127240               170213BR     1400+00000+BR0000003507+0000003507+000000000+000000491+0000003990+0000000008+I20000000000+0000003990+Z
127240001127240018-005009     127240006001023725608MUG W/PLUSH-BEAR LOVE  0000001000+00003507+00000+0001T   00003507+0000001503          1400 ED7515               2AZ
127241000127241               127241               170213BR     1400+00000+BR0000001753+0000001753+000000000+000000246+0000001990+0000000009+I20000000000+0000001990+Z
127241001127241080-000123     127241006003000237722CARD&ENVELOPE-SYMPATHY 0000001000+00001753+00000+0001T   00001753+0000001508          1400 ED7112               2AZ
127242000127242               127242               170213BR     1400+00000+BR0000001314+0000001314+000000000+000000184+0000001498+0000000000+I40000001498+0000000000+Z
127242001127242903-000194     127242006009826020616SWT CHOC RP LOLLY 25G  0000001000+00001314+00000+0001T   00001314+0000001510          1400 ED7150               2AZ
127243000127243               127243               170213BR     1400+00000+BR0000001525+0000001525+000000000+000000214+0000001739+0000000000+I40000001739+0000000000+Z
127243001127243089-000141-H   127243006001023416568KEY-CHAINS 6PCE     H&H0000001000+00001490+00000+0001T   00001490+0000001511          1400 ED7205               2AZ
127243002127243112-116038     127243006009681820246TCS CARRIER BAG MIDI   0000001000+00000035+00000+0001T   00000035+0000001511          1400 ED7090               2AZ
127244000127244               127244               170213BR     1400+00000+BR0000008288+0000008288+000000000+000001162+0000009450+0000000000+I40000009450+0000000000+Z
127244001127244006-000800     127244006001023902801HAT CABARET 14x18cm    0000001000+00001753+00000+0001T   00001753+0000001513          1400 ED7131               2AZ
127244002127244079-006498     127244006001023836151GLITTER SET 10PCE      0000001000+00003507+00000+0001T   00003507+0000001513          1400 ED7130               2AZ
127244003127244112-116069     127244006009681820277TCS CARRIER BAG JUMBO  0000001000+00000048+00000+0001T   00000048+0000001513          1400 ED7090               2AZ
127244004127244565-004101     127244006003000548033BALL BOUNCING EGG      0000002000+00001490+00000+0001T   00001490+0000001513          1400 ED7745               2AZ
127245000127245               127245               170213BR     1400+00000+BR0000003069+0000003069+000000000+000000430+0000003490+0000000009+I20000000000+0000003490+Z
127245001127245033-000600     127245006003000365098HAIR-BRUSH 23cm VENT   0000001000+00003069+00000+0001T   00003069+0000001513          1400 ED7200               2AZ
127246000127246               127246               170213BR     1400+00000+BR0000004870+0000004870+000000000+000000683+0000005553+0000000000+I40000005553+0000000000+Z
127246001127246018-000129     127246006001023403353MUG OCC. LOVE V-SHAPE  0000001000+00002630+00000+0001T   00002630+0000001516          1400 ED7515               2AZ
127246002127246080-000127     127246006003000424351VALENTINES DAY 36x24CM 0000001000+00002192+00000+0001T   00002192+0000001516          1400 ED7112               2AZ
127246003127246112-116069     127246006009681820277TCS CARRIER BAG JUMBO  0000001000+00000048+00000+0001T   00000048+0000001516          1400 ED7090               2AZ
127247000127247               127247               170213BR     1400+00000+BR0000017660+0000017660+000000000+000002474+0000020130+0000000004+I20000000000+0000020130+Z
127247001127247089-000017     127247006003000331147KEYCHAIN MOM POLY BOX  0000001000+00004385+00000+0001T   00004385+0000001517          1400 ED7205               2AZ
127247002127247089-060027     127247006003000245871KEY-CHAIN HEART 6X6cm  0000001000+00003069+00000+0001T   00003069+0000001517          1400 ED7205               2AZ
127247003127247089-023424     127247006001023759740K/CHAIN W/BELT HOOK 28 0000001000+00002630+00000+0001T   00002630+0000001517          1400 ED7205               2AZ
127247004127247206-000160     127247006003000628780CORN KERNELER          0000001000+00004385+00000+0001T   00004385+0000001517          1400 ED7321               2AZ
127247005127247077-000303     127247006001023593757GIFT-BAG PAPER MED     0000002000+00001578+00000+0001T   00001578+0000001517          1400 ED7112               2AZ
127247006127247112-116038     127247006009681820246TCS CARRIER BAG MIDI   0000001000+00000035+00000+0001T   00000035+0000001517          1400 ED7090               2AZ
127248000127248               127248               170213BR     1400+00000+BR0000005960+0000005960+000000000+000000836+0000006790+0000000006+I20000000000+0000006790+Z
127248001127248077-000240     127248006003000326259G/RIBBON 4PC PEARLIZED 0000001000+00001753+00000+0001T   00001753+0000001517          1400 ED7112               2AZ
127248002127248077-000245     127248006001023759214GIFT-RIBBON METALLICx2 0000001000+00001227+00000+0001T   00001227+0000001517          1400 ED7112               2AZ
127248003127248565-004101     127248006003000548033BALL BOUNCING EGG      0000002000+00001490+00000+0001T   00001490+0000001517          1400 ED7745               2AZ
127249000127249               127249               170213BR     1400+00000+BR0000008277+0000008277+000000000+000001160+0000009430+0000000007+I20000000000+0000009430+Z
127249001127249071-009832     127249006003000152674STATIONERY SET 4PCE    0000001000+00005262+00000+0001T   00005262+0000001518          1400 ED7130               2AZ
127249002127249112-116038     127249006009681820246TCS CARRIER BAG MIDI   0000001000+00000035+00000+0001T   00000035+0000001518          1400 ED7090               2AZ
127249003127249051-002401     127249006001023523570TRIGGER-SPRAYER   300ml0000002000+00001490+00000+0001T   00001490+0000001518          1400 ED7820               2AZ
127250000127250               127250               170213BR     1400+00000+BR0000010304+0000010304+000000000+000001445+0000011740+0000000009+I20000000000+0000011740+Z
127250001127250261-000001     127250006003000656080GUN HAND POTATO SHOOTER0000001000+00003507+00000+0001T   00003507+0000001526          1400 ED7710               2AZ
127250002127250903-000619     127250006003000672455SWT LOLLY STR/BRRY 140G0000001000+00001753+00000+0001T   00001753+0000001526          1400 ED7150               2AZ
127250003127250903-000211     127250006002099001238SWT GS MALLOW ICE CREAM0000001000+00001753+00000+0001T   00001753+0000001526          1400 ED7150               2AZ
127250004127250261-002267     127250006001023665126GUN 8-SHOT SUPER-CAP   0000001000+00001753+00000+0001T   00001753+0000001526          1400 ED7710               2AZ
127250005127250565-004101     127250006003000548033BALL BOUNCING EGG      0000001000+00001490+00000+0001T   00001490+0000001526          1400 ED7745               2AZ
127250006127250112-116069     127250006009681820277TCS CARRIER BAG JUMBO  0000001000+00000048+00000+0001T   00000048+0000001526          1400 ED7090               2AZ
127251000127251               127251               170213BR     1400+00000+BR0000003506+0000003506+000000000+000000492+0000003998+0000000000+I40000003998+0000000000+Z
127251001127251565-000888     127251006003000607846NOVELTY MESH BALL      0000002000+00001753+00000+0001T   00001753+0000001527          1400 ED7745               2AZ
127252000127252               127252               170213BR     1400+00000+BR0000001490+0000001490+000000000+000000209+0000001690+0000000009+I20000000000+0000001690+Z
127252001127252105-001061     127252006003000629121CONTAINER CLIP LOCK    0000001000+00001490+00000+0001T   00001490+0000001528          1400 ED7210               2AZ
127253000127253               127253               170213BR     1400+00000+BR0000001753+0000001753+000000000+000000246+0000001990+0000000009+I20000000000+0000001990+Z
127253001127253080-000113     127253006003000237449CARD&ENVLPE - LOVE     0000001000+00001753+00000+0001T   00001753+0000001528          1400 ED7112               2AZ
127254000127254               127254               170213BR     1400+00000+BR0000009255+0000009255+000000000+000001297+0000010552+0000000000+I40000010552+0000000000+Z
127254001127254051-600682     127254006003000267040BIRD FEEDER 11x30cm RND0000001000+00005262+00000+0001T   00005262+0000001530          1400 ED7820               2AZ
127254002127254080-000127     127254006003000424351VALENTINES DAY 36x24CM 0000001000+00002192+00000+0001T   00002192+0000001530          1400 ED7112               2AZ
127254003127254077-000309     127254006001023608604GIFT-BAG 25X32CM GLOSS 0000001000+00001753+00000+0001T   00001753+0000001530          1400 ED7112               2AZ
127254004127254112-116069     127254006009681820277TCS CARRIER BAG JUMBO  0000001000+00000048+00000+0001T   00000048+0000001530          1400 ED7090               2AZ
127255000127255               127255               170213BR     1400+00000+BR0000001753+0000001753+000000000+000000246+0000001990+0000000009+I20000000000+0000001990+Z
127255001127255366-006104     127255006003000616930DRESS UP FACE PAINT    0000001000+00001753+00000+0001T   00001753+0000001540          1400 ED7131               2AZ
127256000127256               127256               170213BR     1400+00000+BR0000014644+0000014644+000000000+000002052+0000016690+0000000006+I20000000000+0000016690+Z
127256001127256083-000055     127256006003000003853LIGHTER ELCTRNC REFILBL0000001000+00000613+00000+0001T   00000613+0000001626          1400 ED7315               2AZ
127256002127256206-000310     127256006003000632787BOTTLE-STOPPER SILICONE0000001000+00002630+00000+0001T   00002630+0000001626          1400 ED7321               2AZ
127256003127256206-000620     127256006003000631797BACK SCRATCHER EXTEND  0000001000+00002630+00000+0001T   00002630+0000001626          1400 ED7321               2AZ
127256004127256030-005030     127256006003000674626P/WDN SIGN 16x40CM ASS 0000001000+00008771+00000+0001T   00008771+0000001626          1400 ED7505               2AZ
127257000127257               127257               170213BR     1400+00000+BR0000001753-0000001753-000000000+000000246-0000002000-0000000001+I20000000000+0000002000-Z
127257001127257301-085002     127257006003000420704ORN OCC. LOVE BELL ASST0000001000-00001753+00000+0001T   00002630+0008121637          1400 ED75051IC            2 Z
127258000127258               127258               170213BR     1400+00000+BR0000005256+0000005256+000000000+000000739+0000005990+0000000005+I20000000000+0000005990+Z
127258001127258304-001204     127258006001023737984FLOWER OCC. TEDDY/ROSES0000001000+00001402+00000+0001T   00001490+0006471639          1400 ED7510               2AZ
127258002127258903-000183     127258006003000451043SWT LB HEART LOLLY     0000002000+00000393+00000+0001T   00000393+0000001639          1400 ED7150               2AZ
127258003127258018-000127     127258006001023380289MUG OCC STRAIGHT LOVE  0000001000+00001578+00000+0001T   00001753+0006471639          1400 ED7515               2AZ
127258004127258077-000299     127258006003000395576G/BAG 32x25cm LRG LOVE 0000001000+00001490+00000+0001T   00001490+0000001639          1400 ED7112               2AZ
127259000127259               127259               170213BR     1400+00000+BR0000007835+0000007835+000000000+000001099+0000008934+0000000000+I40000008934+0000000000+Z
127259001127259566-000451     127259006001023788443STICKERS GLITTER ASSTD 0000001000+00001314+00000+0001T   00001753+0008151642          1400 ED7130               2AZ
127259002127259039-000108     127259006001023524034TEA-LITE CANDLES 8PCE  0000002000+00001490+00000+0001T   00001490+0000001642          1400 ED7510               2AZ
127259003127259039-000114     127259006001023524058CANDLE T/LITE RED 3.5CM0000002000+00001753+00000+0001T   00001753+0000001642          1400 ED7510               2AZ
127259004127259112-116038     127259006009681820246TCS CARRIER BAG MIDI   0000001000+00000035+00000+0001T   00000035+0000001642          1400 ED7090               2AZ
127260000127260               127260               170213BR     1400+00000+BR0000004208+0000004208+000000000+000000590+0000004798+0000000000+I40000004798+0000000000+Z
127260001127260024-000216     127260006001023766557KIDDIES B/WARE ACC 3PC 0000001000+00003069+00000+0001T   00003069+0000001644          1400 ED7300               2AZ
127260002127260039-000322     127260006001023524157B/CANDLES W/HOLDERS 24 0000001000+00001139+00000+0001T   00001139+0000001644          1400 ED7510               2AZ
127261000127261               127261               170213BR     1400+00000+BR0000007049+0000007049+000000000+000000987+0000008036+0000000000+I40000008036+0000000000+Z
127261001127261031-000873-B   127261006003000673391P/FRAME WDN WHITE 13X180000002000+00003507+00000+0001T   00003507+0000001645          1400 ED7510               2AZ
127261002127261112-116038     127261006009681820246TCS CARRIER BAG MIDI   0000001000+00000035+00000+0001T   00000035+0000001645          1400 ED7090               2AZ
127262000127262               127262               170213BR     1400+00000+BR0000028809+0000028809+000000000+000004036+0000032845+0000000000+I40000032845+0000000000+Z
127262001127262001-091415     127262006003000329113W/GLS OCC. LOVE 2PC 2800000001000+00008771+00000+0001T   00009648+0006471647          1400 ED7515               2AZ
127262002127262077-000151     127262006008766114676GIFT-WRAP C/PHANE ASSTD0000004000+00000876+00000+0001T   00000876+0000001647          1400 ED7112               2AZ
127262003127262077-000235     127262006003000160211GIFT-RIBBON ROLL METALC0000001000+00002630+00000+0001T   00002630+0000001647          1400 ED7112               2AZ
127262004127262301-085004     127262006003000420469ORN LOVE PLAQUE 21X10CM0000001000+00003507+00000+0001T   00003946+0006471647          1400 ED7505               2AZ
127262005127262203-000107     127262006001023820358ICE-BUCKET T/PLATE DECO0000001000+00008771+00000+0001T   00008771+0000001647          1400 ED7300               2AZ
127262006127262024-000036     127262006001023477002MEASURING-JUG 500ml    0000001000+00001578+00000+0001T   00001578+0000001647          1400 ED7300               2AZ
127262007127262112-116069     127262006009681820277TCS CARRIER BAG JUMBO  0000001000+00000048+00000+0001T   00000048+0000001647          1400 ED7090               2AZ
127263000127263               127263               170213BR     1400+00000+BR0000007262+0000007262+000000000+000001020+0000008282+0000000000+I40000008282+0000000000+Z
127263001127263565-000256     127263006003000609826NOVELTY GLOW SLIME     0000002000+00000700+00000+0001T   00000700+0000001651          1400 ED7745               2AZ
127263002127263566-000451     127263006001023788443STICKERS GLITTER ASSTD 0000002000+00001314+00000+0001T   00001753+0008151651          1400 ED7130               2AZ
127263003127263903-000183     127263006003000451043SWT LB HEART LOLLY     0000002000+00000393+00000+0001T   00000393+0000001651          1400 ED7150               2AZ
127263004127263079-009700-D   127263006003000545711PAPER SIRIO A4 RED COL.0000008000+00000306+00000+0001T   00000306+0000001651          1400 ED7130               2AZ
127264000127264               127264               170213BR     1400+00000+BR0000003507+0000003507+000000000+000000491+0000003998+0000000000+I40000003998+0000000000+Z
127264001127264024-091106     127264006003000443130C/STAND PAPER 3-TIER   0000001000+00003507+00000+0001T   00003507+0000001654          1400 ED7300               2AZ
127265000127265               127265               170213BR     1400+00000+BR0000024558+0000024558+000000000+000003439+0000027997+0000000000+I40000027997+0000000000+Z
127265001127265031-001014     127265006003000675302P/FRAME COLL PL 15-HOLE0000001000+00021928+00000+0001T   00021928+0000001703          1400 ED7510               2AZ
127265002127265031-005918     127265006003000580453P/FRAME PL PLAIN 10X15 0000001000+00002630+00000+0001T   00002630+0000001703          1400 ED7510               2AZ
127266000127266               127266               170213BR     1400+00000+BR0000003542+0000003542+000000000+000000496+0000004030+0000000008+I20000000000+0000004030+Z
127266001127266018-000136     127266006001023659026MUG OCC LOVE W/PLUSH   0000001000+00003507+00000+0001T   00003507+0000001707          1400 ED7515               2AZ
127266002127266112-116038     127266006009681820246TCS CARRIER BAG MIDI   0000001000+00000035+00000+0001T   00000035+0000001707          1400 ED7090               2AZ
127267000127267               127267               170213BR     1400+00000+BR0000003243+0000003243+000000000+000000455+0000003690+0000000008+I20000000000+0000003690+Z
127267001127267033-000119     127267006003000285563COMBS PL STYLING 3PC   0000001000+00001753+00000+0001T   00001753+0000001707          1400 ED7200               2AZ
127267002127267084-009418     127267006003000450305SCISSORS 13cm ASSTD COL0000001000+00001490+00000+0001T   00001490+0000001707          1400 ED7200               2AZ
127268000127268               127268               170213BR     1400+00000+BR0000004030+0000004030+000000000+000000566+0000004590+0000000006+I20000000000+0000004590+Z
127268001127268071-000874     127268006003000010110RUB-BANDS PLN BAG-30   0000002000+00000525+00000+0001T   00000525+0000001708          1400 ED7130               2AZ
127268002127268903-000095     127268006001704011495SWT SPECKLED-EGGS 100G 0000001000+00002104+00000+0001T   00002104+0000001708          1400 ED7150               2AZ
127268003127268903-000295     127268006001704002899SWT MS FRUITY RASCALS  0000001000+00000876+00000+0001T   00000876+0000001708          1400 ED7150               2AZ
127269000127269               127269               170213BR     1400+00000+BR0000003507+0000003507+000000000+000000491+0000003990+0000000008+I20000000000+0000003990+Z
127269001127269018-000130     127269006001023867537MUG OCC LOVE MINI+HEART0000001000+00003507+00000+0001T   00003507+0000001709          1400 ED7515               2AZ
127270000127270               127270               170213BR     1400+00000+BR0000002015+0000002015+000000000+000000283+0000002290+0000000008+I20000000000+0000002290+Z
127270001127270078-000025     127270008887013700064SUPERGLUE 3g 1PCE CARD 0000001000+00000876+00000+0001T   00000876+0000001709          1400 ED7810               2AZ
127270002127270002-000800     127270006001023770660PEELER MTL/PL WHITE    0000001000+00001139+00000+0001T   00001139+0000001709          1400 ED7300               2AZ
127271000127271               127271               170213BR     1400+00000+BR0000000876+0000000876+000000000+000000123+0000000990+0000000009+I20000000000+0000000990+Z
127271001127271077-000151     127271006008766114676GIFT-WRAP C/PHANE ASSTD0000001000+00000876+00000+0001T   00000876+0000001710          1400 ED7112               2AZ
127272000127272               127272               170213BR     1400+00000+BR0000006487+0000006487+000000000+000000910+0000007397+0000000000+I40000007397+0000000000+Z
127272001127272031-000874-A   127272006001023798800P/FRAME WDN P/BOX 10X150000001000+00003946+00000+0001T   00003946+0000001712          1400 ED7510               2AZ
127272002127272077-000010-C   127272006001023123879CREPE-PAPER RED        0000001000+00000788+00000+0001T   00000788+0000001712          1400 ED7112               2AZ
127272003127272077-000382     127272006003000247820GIFT-BAG MED 18X23CM   0000001000+00001753+00000+0001T   00001753+0000001712          1400 ED7112               2AZ
127273000127273               127273               170213BR     1400+00000+BR0000003067+0000003067+000000000+000000430+0000003497+0000000000+I40000003497+0000000000+Z
127273001127273036-000063     127273006009654960436COATHANGERS VIRGIN 5PCE0000001000+00001753+00000+0001T   00001753+0000001713          1400 ED7212               2AZ
127273002127273108-009020-B   127273006005387000067SALAD SML W/LID ASSTD-C0000001000+00001314+00000+0001T   00001314+0000001713          1400 ED7210               2AZ
127274000127274               127274               170213BR     1400+00000+BR0000007013+0000007013+000000000+000000983+0000007996+0000000000+I40000007996+0000000000+Z
127274001127274077-000010-C   127274006001023123879CREPE-PAPER RED        0000001000+00000788+00000+0001T   00000788+0000001715          1400 ED7112               2AZ
127274002127274089-060027     127274006003000245871KEY-CHAIN HEART 6X6cm  0000001000+00003069+00000+0001T   00003069+0000001715          1400 ED7205               2AZ
127274003127274018-000127     127274006001023380289MUG OCC STRAIGHT LOVE  0000001000+00001578+00000+0001T   00001753+0006471715          1400 ED7515               2AZ
127274004127274077-000303     127274006001023593757GIFT-BAG PAPER MED     0000001000+00001578+00000+0001T   00001578+0000001715          1400 ED7112               2AZ
127275000127275               127275               170213BR     1400+00000+BR0000011437+0000011437+000000000+000001602+0000013039+0000000000+I40000013039+0000000000+Z
127275001127275112-116038     127275006009681820246TCS CARRIER BAG MIDI   0000001000+00000035+00000+0001T   00000035+0000001717          1400 ED7090               2AZ
127275002127275368-000637     127275006001023874092PLUSH BEAR SLEEPING LOV0000001000+00011402+00000+0001T   00012279+0006471717          1400 ED7745               2AZ
127276000127276               127276               170213BR     1400+00000+BR0000002630+0000002630+000000000+000000369+0000002990+0000000009+I20000000000+0000002990+Z
127276001127276033-006003     127276006001023678584SEWING-KIT             0000001000+00002630+00000+0001T   00002630+0000001719          1400 ED7200               2AZ
A17021300                                          08403567BRSLAVE 2                       ED71IC
A17021301                                          13080374BRSLAVE 2                       ED71IC
B12721000                                          170213BR031-000868-A   13371715SLAVE 2     ED71IC0000003000+0000002000+0000000000000+
C12725600                                          170213BR018-000127     15465179SLAVE 2     ED72IC0000000000+0000000000+0010000001000+
M17021391                              CASH        BRSLAVE 2                       Z-REPORT No.   695TOTAL (Sales - Refunds)           7564.60       CASH TO BE BANKED                 2876.30       DEBIT CARDS                          0.00       CREDIT CARDS                      4688.30       Z-READING                         7564.60       AIRTIME DEBIT CARD SALES             0.00       AIRTIME CARD SALES                   0.00       OVERS/UNDERS                         0.00       AIRTIME CASH SALES                   0.00       GIFT CARDS                           0.00       GIFT CARD CASH SALES                 0.00       T O T A L  CASH PAYOUTS              0.00                                                                                                                                                                                                                                                                                                                                                      Z
M17021392                              CASH        BRABSENT                                                                                                                                                                                          ANNUAL LEAVE                                                                                                                                                                                    DAY OFF                                                                                                                                                                                         COMMENTS                                                                                                                                                                                                                                                                                                                                                                                       Z
Y17021300                                          BR00000000677833+000093
ZBR17021319223 SLAVE 2      SALES DATA                     NEXT INVOICE NO.  127277 0695
X BR Slave 2 First invoice 127183 170213 Last invoice 127276 170213 Next invoice 127277 Total number of records 000000339 clbackup completed 19:22:34
