204466000204466               204466               170213BS     1400+00000+BS0000001050+0000001050+000000000+000000147+0000001190+0000000007+I20000000000+0000001190+Z
204466001204466007-000167     204466006009685857347SPIRAL NOTES A7 72PG   0000001000+00000350+00000+0001T   00000350+0000000905          1400 JY3130               2BZ
204466002204466007-000166     204466006009685857316SPIRAL NOTES A6 100PG  0000001000+00000700+00000+0001T   00000700+0000000905          1400 JY3130               2BZ
204467000204467               204467               170213BS     1400+00000+BS0000007925+0000007925+000000000+000001112+0000009037+0000000000+I40000009037+0000000000+Z
204467001204467105-001100     204467006003000667536CONTAINER SET LITE 2PC 0000001000+00002630+00000+0001T   00002630+0000000911          1400 JY3210               2BZ
204467002204467105-001101     204467006003000667659CONTAINER SET LITE 2PC 0000002000+00002630+00000+0001T   00002630+0000000911          1400 JY3210               2BZ
204467003204467112-116038     204467006009681820246TCS CARRIER BAG MIDI   0000001000+00000035+00000+0001T   00000035+0000000911          1400 JY3090               2BZ
204468000204468               204468               170213BS     1400+00000+BS0000018883+0000018883+000000000+000002649+0000021532+0000000000+I40000021532+0000000000+Z
204468001204468266-000634     204468006003000119554GLIDER BALLOON HELICO  0000001000+00001753+00000+0001T   00001753+0000000959          1400 JY3710               2BZ
204468002204468072-020314     204468006003000605453PET TOY PUP VINYL CHICK0000001000+00003069+00000+0001T   00003069+0000000959          1400 JY3870               2BZ
204468003204468027-056185     204468006003000638093DISH BRUSH DUCK DESIGN 0000002000+00002630+00000+0001T   00002630+0000000959          1400 JY3212               2BZ
204468004204468051-002406     204468006003000139415SPRAY PL TRIGGER 700ml 0000001000+00001753+00000+0001T   00001753+0000000959          1400 JY3820               2BZ
204468005204468027-056186     204468006003000638215DISH BRUSH DUCK DESIGN 0000002000+00002630+00000+0001T   00002630+0000000959          1400 JY3212               2BZ
204468006204468266-000634     204468006003000119554GLIDER BALLOON HELICO  0000001000+00001753+00000+0001T   00001753+0000000959          1400 JY3710               2BZ
204468007204468112-116038     204468006009681820246TCS CARRIER BAG MIDI   0000001000+00000035+00000+0001T   00000035+0000000959          1400 JY3090               2BZ
204469000204469               204469               170213BS     1400+00000+BS0000014376+0000014376+000000000+000002016+0000016392+0000000000+I40000016392+0000000000+Z
204469001204469018-019000     204469006003000557288MUG OCC. LOVE JUMBO    0000001000+00005262+00000+0001T   00005262+0000001007          1400 JY3515               2BZ
204469002204469077-000270     204469006003000395453GIFT-BAG PPR JMB 33X45 0000001000+00002630+00000+0001T   00002630+0000001007          1400 JY3112               2BZ
204469003204469018-000170     204469006001023775528MUG OCC. LOVE 2PC MINI 0000002000+00002192+00000+0001T   00002192+0000001007          1400 JY3515               2BZ
204469004204469903-000194     204469006009826020616SWT CHOC RP LOLLY 25G  0000001000+00001314+00000+0001T   00001314+0000001007          1400 JY3150               2BZ
204469005204469903-000183     204469006003000451043SWT LB HEART LOLLY     0000002000+00000393+00000+0001T   00000393+0000001007          1400 JY3150               2BZ
204470000204470               204470               170213BS     1400+00000+BS0000002630+0000002630+000000000+000000369+0000002990+0000000009+I20000000000+0000002990+Z
204470001204470159-000679     204470006001023588289BATH-SPONGE RND 2pk    0000001000+00002630+00000+0001T   00002630+0000001013          1400 JY3200               2BZ
204471000204471               204471               170213BS     1400+00000+BS0000015303+0000015303+000000000+000002144+0000017440+0000000007+I20000000000+0000017440+Z
204471001204471368-000001     204471006003000097982Plush Bear 25cm        0000001000+00004385+00000+0001T   00004385+0000001028          1400 JY3745               2BZ
204471002204471077-000010-C   204471006001023123879CREPE-PAPER RED        0000001000+00000788+00000+0001T   00000788+0000001028          1400 JY3112               2BZ
204471003204471077-000299     204471006003000395576G/BAG 32x25cm LRG LOVE 0000001000+00001490+00000+0001T   00001490+0000001028          1400 JY3112               2BZ
204471004204471018-000130     204471006001023867537MUG OCC LOVE MINI+HEART0000001000+00003507+00000+0001T   00003507+0000001028          1400 JY3515               2BZ
204471005204471080-000124     204471006003000297733CARD & ENV VALENTINES  0000001000+00001578+00000+0001T   00001578+0000001028          1400 JY3112               2BZ
204471006204471018-000136     204471006001023659026MUG OCC LOVE W/PLUSH   0000001000+00003507+00000+0001T   00003507+0000001028          1400 JY3515               2BZ
204471007204471112-116069     204471006009681820277TCS CARRIER BAG JUMBO  0000001000+00000048+00000+0001T   00000048+0000001028          1400 JY3090               2BZ
204472000204472               204472               170213BS     1400+00000+BS0000038620+0000038620+000000000+000005417+0000044037+0000000000+I40000044037+0000000000+Z
204472001204472366-007601     204472006003000655472DRESS UP MASK THEATRICA0000002000+00000876+00000+0001T   00000876+0000001136          1400 JY3131               2BZ
204472002204472112-116069     204472006009681820277TCS CARRIER BAG JUMBO  0000001000+00000048+00000+0001T   00000048+0000001136          1400 JY3090               2BZ
204472003204472564-009001     204472006003000141265GUN PL B/O+BUBBLES     0000001000+00008771+00000+0001T   00008771+0000001136          1400 JY3131               2BZ
204472004204472564-000011     204472006001023865892BUBBLE REFILL 350ml    0000001000+00002630+00000+0001T   00002630+0000001136          1400 JY3131               2BZ
204472005204472006-000191-6   204472006003000686377BALLOONS FOIL SILV NR 60000001000+00002630+00000+0001T   00002630+0000001136          1400 JY3131               2BZ
204472006204472006-000240     204472006003000460595PARTY INVITES 12PC     0000002000+00001753+00000+0001T   00001753+0000001136          1400 JY3131               2BZ
204472007204472006-000092     204472006001023739650BANNER BIRTHDAY PAPER  0000001000+00001753+00000+0001T   00001753+0000001136          1400 JY3131               2BZ
204472008204472366-002809     204472006003000222643DRESS UP MOUSTACHE SET 0000002000+00001753+00000+0001T   00001753+0000001136          1400 JY3131               2BZ
204472009204472366-007600     204472006001023902184MASK THEATRICAL GLITTER0000005000+00001753+00000+0001T   00001753+0000001136          1400 JY3131               2BZ
204472010204472077-000906     204472006003000410804G/WRAP 700mmx1m BIRTHDA0000001000+00001753+00000+0001T   00001753+0000001136          1400 JY3112               2BZ
204472011204472077-000904     204472006003000410682G/WRAP 700mmx1m PATTERN0000002000+00001753+00000+0001T   00001753+0000001136          1400 JY3112               2BZ
204473000204473               204473               170213BS     1400+00000+BS0000001490+0000001490+000000000+000000209+0000001690+0000000009+I20000000000+0000001690+Z
204473001204473039-000108     204473006001023524034TEA-LITE CANDLES 8PCE  0000001000+00001490+00000+0001T   00001490+0000001142          1400 JY3510               2BZ
204474000204474               204474               170213BS     1400+00000+BS0000004384+0000004384+000000000+000000614+0000004990+0000000008+I20000000000+0000004990+Z
204474001204474080-000139     204474006003000611690CARD & ENV MINI SET 6PC0000002000+00002192+00000+0001T   00002192+0000001143          1400 JY3112               2BZ
204475000204475               204475               170213BS     1400+00000+BS0000017220+0000017220+000000000+000002413+0000019633+0000000000+I40000019633+0000000000+Z
204475001204475018-005007     204475006003000515516MUG OCC. LOVE W/HEARTS 0000001000+00006139+00000+0001T   00006139+0000001149          1400 JY3515               2BZ
204475002204475073-000519     204475006001023871763COSMETIC-BG CYLINDRICAL0000001000+00003507+00000+0001T   00003507+0000001149          1400 JY3200               2BZ
204475003204475206-000590     204475006003000633708BAG CLIPS LIPS 2PC     0000001000+00001753+00000+0001T   00001753+0000001149          1400 JY3321               2BZ
204475004204475566-000203     204475006003000443925STCKRS VELVET PUFFY ASS0000001000+00002630+00000+0001T   00002630+0000001149          1400 JY3130               2BZ
204475005204475112-116038     204475006009681820246TCS CARRIER BAG MIDI   0000001000+00000035+00000+0001T   00000035+0000001149          1400 JY3090               2BZ
204475006204475077-000303     204475006001023593757GIFT-BAG PAPER MED     0000002000+00001578+00000+0001T   00001578+0000001149          1400 JY3112               2BZ
204476000204476               204476               170213BS     1400+00000+BS0000001051+0000001051+000000000+000000148+0000001190+0000000009+I20000000000+0000001190+Z
204476001204476079-009702-D   204476008427973059354PAPER SIRIO A2 RED COL 0000001000+00001051+00000+0001T   00001051+0000001208          1400 JY3130               2BZ
204477000204477               204477               170213BS     1400+00000+BS0000001490+0000001490+000000000+000000209+0000001690+0000000009+I20000000000+0000001690+Z
204477001204477077-000299     204477006003000395576G/BAG 32x25cm LRG LOVE 0000001000+00001490+00000+0001T   00001490+0000001210          1400 JY3112               2BZ
204478000204478               204478               170213BS     1400+00000+BS0000012272+0000012272+000000000+000001721+0000013993+0000000000+I40000013993+0000000000+Z
204478001204478003-000250     204478006003000035045ORN DECOR NOVELTY GRASS0000001000+00001753+00000+0001T   00001753+0000001221          1400 JY3505               2BZ
204478002204478251-000074     204478006003000452255PROTECTION-PADS BLK ADH0000002000+00001753+00000+0001T   00001753+0000001221          1400 JY3810               2BZ
204478003204478251-000071     204478006003000451890PROTECTION-PADS BLK ADH0000002000+00001753+00000+0001T   00001753+0000001221          1400 JY3810               2BZ
204478004204478031-000856     204478006001023852113P/FRAME PL BROWN 10X15 0000001000+00003507+00000+0001T   00003507+0000001221          1400 JY3510               2BZ
204479000204479               204479               170213BS     1400+00000+BS0000009154+0000009154+000000000+000001282+0000010430+0000000006+I20000000000+0000010430+Z
204479001204479028-001999     204479006001023759535G/CHAIR-COVER 60x60x1100000001000+00003507+00000+0001T   00003507+0000001257          1400 JY3305               2BZ
204479002204479071-081091     204479006001151010287STAED/GENKEM ALL-STICK 0000001000+00001227+00000+0001T   00001227+0000001257          1400 JY3130               2BZ
204479003204479031-080508     204479006001023802415P/FRAME PL 22X11CM LOVE0000001000+00004385+00000+0001T   00004385+0000001257          1400 JY3510               2BZ
204479004204479112-116038     204479006009681820246TCS CARRIER BAG MIDI   0000001000+00000035+00000+0001T   00000035+0000001257          1400 JY3090               2BZ
204480000204480               204480               170213BS     1400+00000+BS0000055700+0000055700+000000000+000007798+0000063490+0000000008+I20000000000+0000063490+Z
204480001204480490-048257     204480000078257482573INTEX JUMP-O-LENE      0000001000+00055700+00000+0001T   00055700+0000001312          1400 JY3787               2BZ
204481000204481               204481               170213BS     1400+00000+BS0000003507+0000003507+000000000+000000491+0000003998+0000000000+I40000003998+0000000000+Z
204481001204481018-000136     204481006001023659026MUG OCC LOVE W/PLUSH   0000001000+00003507+00000+0001T   00003507+0000001322          1400 JY3515               2BZ
204482000204482               204482               170213BS     1400+00000+BS0000002049+0000002049+000000000+000000287+0000002336+0000000000+I40000002336+0000000000+Z
204482001204482464-000238     204482006001023644039GAME SNAKES+LADDERS    0000001000+00001314+00000+0001T   00001314+0000001323          1400 JY3785               2BZ
204482002204482564-000012     204482006001023130075BUBBLE BOTTLE MAGIC    0000001000+00000700+00000+0001T   00000700+0000001323          1400 JY3131               2BZ
204482003204482112-116038     204482006009681820246TCS CARRIER BAG MIDI   0000001000+00000035+00000+0001T   00000035+0000001323          1400 JY3090               2BZ
204483000204483               204483               170213BS     1400+00000+BS0000001578+0000001578+000000000+000000221+0000001799+0000000000+I40000001799+0000000000+Z
204483001204483077-000303     204483006001023593757GIFT-BAG PAPER MED     0000001000+00001578+00000+0001T   00001578+0000001327          1400 JY3112               2BZ
204484000204484               204484               170213BS     1400+00000+BS0000012150+0000012150+000000000+000001702+0000013852+0000000000+I40000013852+0000000000+Z
204484001204484080-000124     204484006003000297733CARD & ENV VALENTINES  0000001000+00001578+00000+0001T   00001578+0000001329          1400 JY3112               2BZ
204484002204484077-000005-D   204484006003000414567PAPER TISSUE 50x70cm   0000001000+00001753+00000+0001T   00001753+0000001329          1400 JY3112               2BZ
204484003204484031-001015     204484006003000674862P/FRAME COLLAGE 6-HOLE 0000001000+00008771+00000+0001T   00008771+0000001329          1400 JY3510               2BZ
204484004204484112-116069     204484006009681820277TCS CARRIER BAG JUMBO  0000001000+00000048+00000+0001T   00000048+0000001329          1400 JY3090               2BZ
204485000204485               204485               170213BS     1400+00000+BS0000018903+0000018903+000000000+000002648+0000021551+0000000000+I40000021551+0000000000+Z
204485001204485203-005501     204485006003000381821DRINKING HELMET 4 2 CAN0000001000+00008771+00000+0001T   00010525+0008191333          1400 JY3300               2BZ
204485002204485051-600682     204485006003000267040BIRD FEEDER 11x30cm RND0000001000+00005262+00000+0001T   00005262+0000001333          1400 JY3820               2BZ
204485003204485072-000234     204485006003000691487DOG-COLLAR REFLECTIVE  0000001000+00002192+00000+0001T   00002192+0000001333          1400 JY3870               2BZ
204485004204485206-000110     204485006003000628186CHOPSTICKS PLASTIC KIDS0000001000+00002630+00000+0001T   00002630+0000001333          1400 JY3321               2BZ
204485005204485112-116069     204485006009681820277TCS CARRIER BAG JUMBO  0000001000+00000048+00000+0001T   00000048+0000001333          1400 JY3090               2BZ
204486000204486               204486               170213BS     1400+00000+BS0000008771+0000008771+000000000+000001228+0000009990+0000000009+I20000000000+0000009990+Z
204486001204486203-007002     204486006003000456314WINE BOTTLE HOLDER     0000001000+00008771+00000+0001T   00008771+0000001341          1400 JY3300               2BZ
204487000204487               204487               170213BS     1400+00000+BS0000001753+0000001753+000000000+000000246+0000001999+0000000000+I40000001999+0000000000+Z
204487001204487039-001023     204487006003000466337CANDLE TEA-LITE METALIC0000001000+00001753+00000+0001T   00001753+0000001348          1400 JY3510               2BZ
204488000204488               204488               170213BS     1400+00000+BS0000002630+0000002630+000000000+000000369+0000002990+0000000009+I20000000000+0000002990+Z
204488001204488563-000317-G   204488006001023776341SERVIETTES BRIGHT ASSTD0000001000+00002630+00000+0001T   00002630+0000001406          1400 JY3214               2BZ
204489000204489               204489               170213BS     1400+00000+BS0000013626+0000013626+000000000+000001909+0000015530+0000000005+I20000000000+0000015530+Z
204489001204489203-000006     204489006001023752789COASTER-SET 4PCE       0000001000+00007016+00000+0001T   00008771+0008191408          1400 JY3300               2BZ
204489002204489077-000011-C   204489006001023808523TISSUE 10xSHTS RED     0000001000+00000876+00000+0001T   00000876+0000001408          1400 JY3112               2BZ
204489003204489112-116038     204489006009681820246TCS CARRIER BAG MIDI   0000001000+00000035+00000+0001T   00000035+0000001408          1400 JY3090               2BZ
204489004204489018-005009     204489006001023725608MUG W/PLUSH-BEAR LOVE  0000001000+00003507+00000+0001T   00003507+0000001408          1400 JY3515               2BZ
204489005204489018-000170     204489006001023775528MUG OCC. LOVE 2PC MINI 0000001000+00002192+00000+0001T   00002192+0000001408          1400 JY3515               2BZ
204490000204490               204490               170213BS     1400+00000+BS0000001490+0000001490+000000000+000000209+0000001690+0000000009+I20000000000+0000001690+Z
204490001204490493-059010     204490000078257590100BEACH-BALL COLOR-PANELS0000001000+00001490+00000+0001T   00001490+0000001411          1400 JY3787               2BZ
204491000204491               204491               170213BS     1400+00000+BS0000014956+0000014956+000000000+000002096+0000017052+0000000000+I40000017052+0000000000+Z
204491001204491263-000160     204491006001023690975MOTORBIKE FRIC QUAD    0000001000+00007016+00000+0001T   00007016+0000001417          1400 JY37101IC            2BZ
204491002204491112-116069     204491006009681820277TCS CARRIER BAG JUMBO  0000001000+00000048+00000+0001T   00000048+0000001417          1400 JY3090               2BZ
204491003204491361-090308     204491006003000234936PONY W/DOLL SML 7cm    0000001000+00006139+00000+0001T   00006139+0000001417          1400 JY3725               2BZ
204491004204491903-000215     204491006002099001214SWT GS MALLOW TWIST PAC0000001000+00001753+00000+0001T   00001753+0000001417          1400 JY3150               2BZ
204492000204492               204492               170213BS     1400+00000+BS0000007394+0000007394+000000000+000001037+0000008431+0000000000+I40000008431+0000000000+Z
204492001204492567-010543     204492009781742488417PIXIE MY LITTLE PONY   0000002000+00000700+00000+0001T   00000876+0008131422          1400 JY3757               2BZ
204492002204492567-010542     204492009781743461747PIXIE HELLO KITTY ASSTD0000001000+00000700+00000+0001T   00000876+0008131422          1400 JY3757               2BZ
204492003204492007-000724     204492006003000225958NOTE MAGNETIC 60SHTS   0000001000+00001753+00000+0001T   00001753+0000001422          1400 JY3130               2BZ
204492004204492051-002402     204492006001023518347TRIGGER-SPRAYER  500ml 0000002000+00001753+00000+0001T   00001753+0000001422          1400 JY3820               2BZ
204492005204492112-116038     204492006009681820246TCS CARRIER BAG MIDI   0000001000+00000035+00000+0001T   00000035+0000001422          1400 JY3090               2BZ
204493000204493               204493               170213BS     1400+00000+BS0000003507+0000003507+000000000+000000491+0000003990+0000000008+I20000000000+0000003990+Z
204493001204493159-000102     204493006001023552891SHOWER-CADDY 48cm      0000001000+00003507+00000+0001T   00003507+0000001424          1400 JY3200               2BZ
204494000204494               204494               170213BS     1400+00000+BS0000001753+0000001753+000000000+000000246+0000001990+0000000009+I20000000000+0000001990+Z
204494001204494080-000111     204494006003000252695CARD&ENVELPE - MUSICAL 0000001000+00001753+00000+0001T   00001753+0000001428          1400 JY3112               2BZ
204495000204495               204495               170213BS     1400+00000+BS0000001578+0000001578+000000000+000000221+0000001790+0000000009+I20000000000+0000001790+Z
204495001204495018-000127     204495006001023380289MUG OCC STRAIGHT LOVE  0000001000+00001578+00000+0001T   00001753+0006471429          1400 JY3515               2BZ
204496000204496               204496               170213BS     1400+00000+BS0000005468+0000005468+000000000+000000767+0000006235+0000000000+I40000006235+0000000000+Z
204496001204496112-116038     204496006009681820246TCS CARRIER BAG MIDI   0000001000+00000035+00000+0001T   00000035+0000001431          1400 JY3090               2BZ
204496002204496018-000136     204496006001023659026MUG OCC LOVE W/PLUSH   0000001000+00003507+00000+0001T   00003507+0000001431          1400 JY3515               2BZ
204496003204496903-000710     204496006002099007056SWT REFRESHERS MINT    0000001000+00001139+00000+0001T   00001139+0000001431          1400 JY3150               2BZ
204496004204496903-000159     204496006003000417629SWT LB SMALL DUMMIE    0000001000+00000350+00000+0001T   00000350+0000001431          1400 JY3150               2BZ
204496005204496080-000133-A   204496006003000647019MINI VALENTINES CARD   0000001000+00000437+00000+0001T   00000437+0000001431          1400 JY3112               2BZ
204497000204497               204497               170213BS     1400+00000+BS0000001664+0000001664+000000000+000000234+0000001890+0000000008+I20000000000+0000001890+Z
204497001204497076-000017     204497006001811010022TWINE COTTON 50g-BALL  0000001000+00000876+00000+0001T   00000876+0000001431          1400 JY3810               2BZ
204497002204497071-081101-A   204497006003000326549GLUE-STICK 25g BLISTER 0000001000+00000788+00000+0001T   00000788+0000001431          1400 JY3130               2BZ
204498000204498               204498               170213BS     1400+00000+BS0000015657-0000015657-000000000+000002190-0000017850-0000000003+I20000000000+0000017850-Z
204498001204498072-020243     204498006003000519583PET MAT QUILTED 80x58cm0000001000-00019297+00000+0001T   00019297+0000001437          1400 JY38701IC            2 Z
204498002204498072-020237     204498006003000623402PET BED COTTON TEXTILE 0000001000-00017542+00000+0001T   00017542+0000001437          1400 JY38701IC            2 Z
204498003204498031-000866-C   204498006001023798503P/FRAME WDN SEASIDE    0000001000+00008771+00000+0001T   00008771+0000001437          1400 JY3510               2 Z
204498004204498158-000011     204498006001024006737BATHROOM CUP-HOLDER+HKS0000001000+00006139+00000+0001T   00006139+0000001437          1400 JY3300               2 Z
204498005204498046-000014     204498006001023725387BATTERIES SIZE:AAA 4PCE0000002000+00001139+00000+0001T   00001139+0000001437          1400 JY3312               2 Z
204498006204498159-000103     204498006001023890214SHOWER CADDY PL-COATED 0000001000+00003946+00000+0001T   00003946+0000001437          1400 JY3200               2 Z
204498007204498112-116069     204498006009681820277TCS CARRIER BAG JUMBO  0000001000+00000048+00000+0001T   00000048+0000001437          1400 JY3090               2 Z
204499000204499               204499               170213BS     1400+00000+BS0000004381+0000004381+000000000+000000615+0000004996+0000000000+I40000004996+0000000000+Z
204499001204499903-003080     204499005907029004673SWT SNACK STIX CHOC 50g0000001000+00000876+00000+0001T   00000876+0000001438          1400 JY3150               2BZ
204499002204499080-000133-A   204499006003000647019MINI VALENTINES CARD   0000001000+00000437+00000+0001T   00000437+0000001438          1400 JY3112               2BZ
204499003204499206-000245     204499006003000680818BOTTLE CLEANER PLASTIC 0000001000+00002192+00000+0001T   00002192+0000001438          1400 JY3321               2BZ
204499004204499077-000408     204499006003000145218G/BAG PP 15X21X7CM     0000001000+00000876+00000+0001T   00000876+0000001438          1400 JY3112               2BZ
204500000204500               204500               170213BS     1400+00000+BS0000002978+0000002978+000000000+000000419+0000003390+0000000007+I20000000000+0000003390+Z
204500001204500080-000133-A   204500006003000647019MINI VALENTINES CARD   0000001000+00000437+00000+0001T   00000437+0000001440          1400 JY3112               2BZ
204500002204500077-000010-F   204500006003453000461CREPE-PAPER BLUE       0000001000+00000788+00000+0001T   00000788+0000001440          1400 JY3112               2BZ
204500003204500080-000119     204500006003000237432CARD & ENVELOPE-BABY   0000001000+00001753+00000+0001T   00001753+0000001440          1400 JY3112               2BZ
204501000204501               204501               170213BS     1400+00000+BS0000001753+0000001753+000000000+000000246+0000001999+0000000000+I40000001999+0000000000+Z
204501001204501200-003026     204501006003000276448REFUSE BAGS 10PCE GREEN0000001000+00001753+00000+0001T   00001753+0000001445          1400 JY3214               2BZ
204502000204502               204502               170213BS     1400+00000+BS0000001753+0000001753+000000000+000000246+0000001990+0000000009+I20000000000+0000001990+Z
204502001204502084-006995     204502006003000092802NAIL CLIPPER 8cm TOE   0000001000+00001753+00000+0001T   00001753+0000001445          1400 JY3200               2BZ
204503000204503               204503               170213BS     1400+00000+BS0000002453+0000002453+000000000+000000344+0000002790+0000000007+I20000000000+0000002790+Z
204503001204503565-000735     204503006003000615674NOVELTY PUTTY BOUNCING 0000001000+00000700+00000+0001T   00000700+0000001454          1400 JY3745               2BZ
204503002204503267-000020     204503006001023892355PUZZLE 4x16PCE COLOR-IN0000001000+00001753+00000+0001T   00001753+0000001454          1400 JY3755               2BZ
204504000204504               204504               170213BS     1400+00000+BS0000003507+0000003507+000000000+000000491+0000003990+0000000008+I20000000000+0000003990+Z
204504001204504018-000136     204504006001023659026MUG OCC LOVE W/PLUSH   0000001000+00003507+00000+0001T   00003507+0000001455          1400 JY3515               2BZ
204505000204505               204505               170213BS     1400+00000+BS0000011095+0000011095+000000000+000001556+0000012651+0000000000+I40000012651+0000000000+Z
204505001204505140-006004     204505006001023628077FLY-SWATTER RUBBER     0000002000+00001139+00000+0001T   00001139+0000001500          1400 JY3830               2BZ
204505002204505018-005007     204505006003000515516MUG OCC. LOVE W/HEARTS 0000001000+00006139+00000+0001T   00006139+0000001500          1400 JY3515               2BZ
204505003204505112-116069     204505006009681820277TCS CARRIER BAG JUMBO  0000001000+00000048+00000+0001T   00000048+0000001500          1400 JY3090               2BZ
204505004204505083-000058     204505006003000400331LIGHTER JET CIGAR REFIL0000001000+00002630+00000+0001T   00002630+0000001500          1400 JY3315               2BZ
204506000204506               204506               170213BS     1400+00000+BS0000001565+0000001565+000000000+000000220+0000001780+0000000005+I20000000000+0000001780+Z
204506001204506079-009700-D   204506006003000545711PAPER SIRIO A4 RED COL.0000005000+00000306+00000+0001T   00000306+0000001501          1400 JY3130               2BZ
204506002204506112-116038     204506006009681820246TCS CARRIER BAG MIDI   0000001000+00000035+00000+0001T   00000035+0000001501          1400 JY3090               2BZ
204507000204507               204507               170213BS     1400+00000+BS0000005262+0000005262+000000000+000000737+0000005990+0000000009+I20000000000+0000005990+Z
204507001204507018-019000     204507006003000557288MUG OCC. LOVE JUMBO    0000001000+00005262+00000+0001T   00005262+0000001502          1400 JY3515               2BZ
204508000204508               204508               170213BS     1400+00000+BS0000002192+0000002192+000000000+000000307+0000002490+0000000009+I20000000000+0000002490+Z
204508001204508080-000127     204508006003000424351VALENTINES DAY 36x24CM 0000001000+00002192+00000+0001T   00002192+0000001502          1400 JY3112               2BZ
204509000204509               204509               170213BS     1400+00000+BS0000001965+0000001965+000000000+000000280+0000002240+0000000005+I20000000000+0000002240+Z
204509001204509903-000183     204509006003000451043SWT LB HEART LOLLY     0000005000+00000393+00000+0001T   00000393+0000001503          1400 JY3150               2BZ
204510000204510               204510               170213BS     1400+00000+BS0000002192+0000002192+000000000+000000307+0000002499+0000000000+I40000002499+0000000000+Z
204510001204510567-010394     204510006002242053459GENERIC AFRIKAANS READE0000001000+00002192+00000+0001T   00002192+0000001505          1400 JY3757               2BZ
204511000204511               204511               170213BS     1400+00000+BS0000007629+0000007629+000000000+000001069+0000008698+0000000000+I40000008698+0000000000+Z
204511001204511018-005007     204511006003000515516MUG OCC. LOVE W/HEARTS 0000001000+00006139+00000+0001T   00006139+0000001507          1400 JY3515               2BZ
204511002204511077-000299     204511006003000395576G/BAG 32x25cm LRG LOVE 0000001000+00001490+00000+0001T   00001490+0000001507          1400 JY3112               2BZ
204512000204512               204512               170213BS     1400+00000+BS0000010394+0000010394+000000000+000001457+0000011850+0000000001+I20000000000+0000011850+Z
204512001204512564-000012     204512006001023130075BUBBLE BOTTLE MAGIC    0000001000+00000700+00000+0001T   00000700+0000001527          1400 JY3131               2BZ
204512002204512467-000002     204512006001023354518BEACH-SET PL 2PCE      0000001000+00001753+00000+0001T   00001753+0000001527          1400 JY3785               2BZ
204512003204512562-088353     204512006001023735966EVA MAT ABC+NR 36PC    0000001000+00007893+00000+0001T   00007893+0000001527          1400 JY3755               2BZ
204512004204512112-116069     204512006009681820277TCS CARRIER BAG JUMBO  0000001000+00000048+00000+0001T   00000048+0000001527          1400 JY3090               2BZ
204513000204513               204513               170213BS     1400+00000+BS0000024596+0000024596+000000000+000003448+0000028044+0000000000+I40000028044+0000000000+Z
204513001204513071-001012     204513006001023474445MARKERS BLACK ROUND    0000001000+00000876+00000+0001T   00000876+0000001543          1400 JY3130               2BZ
204513002204513071-001010     204513006001023893314MARKERS-METALIC 3PCE   0000001000+00003507+00000+0001T   00003507+0000001543          1400 JY3130               2BZ
204513003204513079-003004     204513006003000448128TUBE 75ML LIGHT GREEN  0000001000+00001753+00000+0001T   00001753+0000001543          1400 JY3130               2BZ
204513004204513079-003005     204513006003000448241A/TUBE 75ML BLUE       0000001000+00001753+00000+0001T   00001753+0000001543          1400 JY3130               2BZ
204513005204513079-003015     204513006003000634071PAINT ACRYLIC 75ml GOLD0000001000+00002630+00000+0001T   00002630+0000001543          1400 JY3130               2BZ
204513006204513079-003001     204513006003000448951A/TUBE 75ML BLACK      0000001000+00001753+00000+0001T   00001753+0000001543          1400 JY3130               2BZ
204513007204513079-003010     204513006003000448845A/TUBE 75ML YELLOW     0000001000+00001753+00000+0001T   00001753+0000001543          1400 JY3130               2BZ
204513008204513079-001001     204513006003000448593CANVAS A3 WOOD MOUNTED 0000002000+00004385+00000+0001T   00004385+0000001543          1400 JY3130               2BZ
204513009204513112-116069     204513006009681820277TCS CARRIER BAG JUMBO  0000001000+00000048+00000+0001T   00000048+0000001543          1400 JY3090               2BZ
204513010204513079-000275     204513006003000160488PAINT-BRUSHES 6PCE PRO 0000001000+00001753+00000+0001T   00001753+0000001543          1400 JY3130               2BZ
204514000204514               204514               170213BS     1400+00000+BS0000011917+0000011917+000000000+000001671+0000013588+0000000000+I40000013588+0000000000+Z
204514001204514071-010484     204514006003000620296MAGNIFYING-GLASS CARD  0000001000+00000876+00000+0001T   00000876+0000001546          1400 JY3130               2BZ
204514002204514079-009702-D   204514008427973059354PAPER SIRIO A2 RED COL 0000001000+00001051+00000+0001T   00001051+0000001546          1400 JY3130               2BZ
204514003204514007-000209     204514006001023582102NOTE STICKY FILE MARKER0000001000+00001314+00000+0001T   00001314+0000001546          1400 JY3130               2BZ
204514004204514903-000126     204514006002099003591SWT ZILLIONS MINT 50G  0000001000+00000700+00000+0001T   00000700+0000001546          1400 JY3150               2BZ
204514005204514065-003644     204514006003000396283MUSICAL 4PC PLAYSET    0000001000+00003507+00000+0001T   00003507+0000001546          1400 JY3745               2BZ
204514006204514002-021040     204514006001023812216PARTY-PICKS 100PCE     0000001000+00000525+00000+0001T   00000525+0000001546          1400 JY3300               2BZ
204514007204514006-000166-B   204514006003000516254BALLOONS LRG 6PC BLUE  0000001000+00001314+00000+0001T   00001314+0000001546          1400 JY3131               2BZ
204514008204514089-000145     204514006003000576616K/CHAIN LIGHT W/COMPASS0000001000+00002630+00000+0001T   00003069+0008121546          1400 JY3205               2BZ
204515000204515               204515               170213BS     1400+00000+BS0000006135+0000006135+000000000+000000860+0000006990+0000000005+I20000000000+0000006990+Z
204515001204515007-000209     204515006001023582102NOTE STICKY FILE MARKER0000001000+00001314+00000+0001T   00001314+0000001547          1400 JY3130               2BZ
204515002204515158-008936     204515006001023653758PAPER-TOWEL-HOLDER FLWR0000001000+00002192+00000+0001T   00002192+0000001547          1400 JY3300               2BZ
204515003204515046-002016-PK2 204515004897006175056BATTERIES CR-2016  2PCE0000001000+00001753+00000+0001T   00001753+0000001547          1400 JY3312               2BZ
204515004204515071-003000     204515006003000543229PEN BALL PEN 3PCE MULTI0000001000+00000876+00000+0001T   00000876+0000001547          1400 JY3130               2BZ
204516000204516               204516               170213BS     1400+00000+BS0000004385+0000004385+000000000+000000614+0000004990+0000000009+I20000000000+0000004990+Z
204516001204516368-000001     204516006003000097982Plush Bear 25cm        0000001000+00004385+00000+0001T   00004385+0000001548          1400 JY3745               2BZ
204517000204517               204517               170213BS     1400+00000+BS0000009067+0000009067+000000000+000001270+0000010330+0000000007+I20000000000+0000010330+Z
204517001204517030-000031-A   204517006003000457588PLAQUE W/WORDS ASSTD   0000001000+00004385+00000+0001T   00004823+0006471553          1400 JY3505               2BZ
204517002204517018-000127     204517006001023380289MUG OCC STRAIGHT LOVE  0000001000+00001578+00000+0001T   00001753+0006471553          1400 JY3515               2BZ
204517003204517089-060027     204517006003000245871KEY-CHAIN HEART 6X6cm  0000001000+00003069+00000+0001T   00003069+0000001553          1400 JY3205               2BZ
204517004204517112-116038     204517006009681820246TCS CARRIER BAG MIDI   0000001000+00000035+00000+0001T   00000035+0000001553          1400 JY3090               2BZ
204518000204518               204518               170213BS     1400+00000+BS0000006573+0000006573+000000000+000000922+0000007490+0000000005+I20000000000+0000007490+Z
204518001204518047-000507     204518006001023684479PLUG-ADAPTOR EURO TWIN 0000003000+00001753+00000+0001T   00001753+0000001555          1400 JY3880               2BZ
204518002204518903-005007     204518006002580020311SWT MALLOW BEAR M/SHAKE0000001000+00001314+00000+0001T   00001314+0000001555          1400 JY3150               2BZ
204519000204519               204519               170213BS     1400+00000+BS0000014503+0000014503+000000000+000002033+0000016530+0000000006+I20000000000+0000016530+Z
204519001204519019-071594     204519006003000505579PEBBLES GLS 250g RED   0000001000+00002630+00000+0001T   00002630+0000001557          1400 JY3510               2BZ
204519002204519563-000318-L   204519006003000407088SERVIETTES 33cm RED    0000001000+00002192+00000+0001T   00002192+0000001557          1400 JY3214               2BZ
204519003204519200-000114     204519006003000621545PICNIC CUPS PAPER 90ml 0000001000+00002630+00000+0001T   00002630+0000001557          1400 JY3214               2BZ
204519004204519039-000624     204519006003000054923C/SET 4PC PILLARS 5X8CM0000001000+00007016+00000+0001T   00007016+0000001557          1400 JY3510               2BZ
204519005204519112-116038     204519006009681820246TCS CARRIER BAG MIDI   0000001000+00000035+00000+0001T   00000035+0000001557          1400 JY3090               2BZ
204520000204520               204520               170213BS     1400+00000+BS0000009679+0000009679+000000000+000001356+0000011030+0000000005+I20000000000+0000011030+Z
204520001204520162-096854     204520006001492968544#TAG KIDS 6PK EARING   0000001000+00002630+00000+0001T   00002630+0000001558          1400 JY3160               2BZ
204520002204520162-092946     204520006001492929460SS 2PK KIDS H/BAND     0000001000+00003507+00000+0001T   00003507+0000001558          1400 JY3160               2BZ
204520003204520162-085613     204520006001492856131SS KIDS PEARL SET      0000001000+00003507+00000+0001T   00003507+0000001558          1400 JY3160               2BZ
204520004204520112-116038     204520006009681820246TCS CARRIER BAG MIDI   0000001000+00000035+00000+0001T   00000035+0000001558          1400 JY3090               2BZ
204521000204521               204521               170213BS     1400+00000+BS0000002805+0000002805+000000000+000000393+0000003190+0000000008+I20000000000+0000003190+Z
204521001204521077-000245     204521006001023759214GIFT-RIBBON METALLICx2 0000001000+00001227+00000+0001T   00001227+0000001600          1400 JY3112               2BZ
204521002204521077-000303     204521006001023593757GIFT-BAG PAPER MED     0000001000+00001578+00000+0001T   00001578+0000001600          1400 JY3112               2BZ
204522000204522               204522               170213BS     1400+00000+BS0000001753+0000001753+000000000+000000246+0000001990+0000000009+I20000000000+0000001990+Z
204522001204522077-000382     204522006003000247820GIFT-BAG MED 18X23CM   0000001000+00001753+00000+0001T   00001753+0000001601          1400 JY3112               2BZ
204523000204523               204523               170213BS     1400+00000+BS0000001139-0000001139-000000000+000000160-0000001300-0000000001+I20000000000+0000001300-Z
204523001204523903-000087     204523006001704000161SWT SPECKLED-EGGS 50G  0000001000-00001139+00000+0001T   00001139+0000001718          1400 JY31501IC            2 Z
204524000204524               204524               170213BS     1400+00000+BS0000002663+0000002663+000000000+000000373+0000003030+0000000006+I20000000000+0000003030+Z
204524001204524030-000010     204524006003000084395P/DOOR HANGER 2-ASSTD  0000002000+00001314+00000+0001T   00001490+0008181719          1400 JY3505               2BZ
204524002204524112-116038     204524006009681820246TCS CARRIER BAG MIDI   0000001000+00000035+00000+0001T   00000035+0000001719          1400 JY3090               2BZ
204525000204525               204525               170213BS     1400+00000+BS0000012277+0000012277+000000000+000001720+0000013997+0000000000+I40000013997+0000000000+Z
204525001204525304-000720     204525006001023843050F/BUNCH ROSE 6-HEAD AST0000001000+00002630+00000+0001T   00002630+0000001721          1400 JY3510               2BZ
204525002204525266-002581     204525006001023905833PLAYSET SWORD,BOW&ARROW0000001000+00005262+00000+0001T   00005262+0000001721          1400 JY3710               2BZ
204525003204525031-080508     204525006001023802415P/FRAME PL 22X11CM LOVE0000001000+00004385+00000+0001T   00004385+0000001721          1400 JY3510               2BZ
204526000204526               204526               170213BS     1400+00000+BS0000002104+0000002104+000000000+000000295+0000002390+0000000009+I20000000000+0000002390+Z
204526001204526903-000090     204526006009826020821SWT GS CHOCO COINS 60g 0000001000+00002104+00000+0001T   00002104+0000001721          1400 JY3150               2BZ
204527000204527               204527               170213BS     1400+00000+BS0000007015+0000007015+000000000+000000983+0000007990+0000000008+I20000000000+0000007990+Z
204527001204527024-000212     204527006001023858030COOKIE-CUTTERS PL SMALL0000001000+00003069+00000+0001T   00003069+0000001746          1400 JY3300               2BZ
204527002204527024-000018     204527006001023610232CAKE-DEC S/S NOZZLE    0000001000+00003946+00000+0001T   00003946+0000001746          1400 JY3300               2BZ
204528000204528               204528               170213BS     1400+00000+BS0000008771+0000008771+000000000+000001228+0000009999+0000000000+I40000009999+0000000000+Z
204528001204528019-000047-A   204528006001023749048VASE GLASS 30CM CLEAR  0000001000+00008771+00000+0001T   00008771+0000001750          1400 JY3510               2BZ
A17021300                                          10232303BSSLAVE 2                       JY33IC
A17021301                                          10292857BSSLAVE 2                       JY33IC
A17021302                                          15512012BSSLAVE 2                       JY33IC
A17021303                                          15532273BSSLAVE 2                       JY33IC
A17021304                                          17441343BSSLAVE 2                       JY32IC
A17021305                                          17564886BSSLAVE 2                       JY32IC
B20449100                                          170213BS263-000160     14153607SLAVE 2     JY31IC0000002000+0000001000+0000000000000+
M17021391                              CASH        BSSLAVE 2                       Z-REPORT No.   642TOTAL (Sales - Refunds)           5366.18       CASH TO BE BANKED                 2382.80       DEBIT CARDS                          0.00       CREDIT CARDS                      2983.48       Z-READING                         5366.18       AIRTIME DEBIT CARD SALES             0.00       AIRTIME CARD SALES                   0.00       OVERS/UNDERS                         0.10       AIRTIME CASH SALES                   0.00       GIFT CARDS                           0.00       GIFT CARD CASH SALES                 0.00       T O T A L  CASH PAYOUTS              0.00                                                                                                                                                                                                                                                                                                                                                      Z
M17021392                              CASH        BSABSENT                                                                                                                                                                                          ANNUAL LEAVE                                                                                                                                                                                    DAY OFF                                                                                                                                                                                         COMMENTS                                                                                                                                                                                                                                                                                                                                                                                       Z
Y17021300                                          BS00000000508869+000062
ZBS17021319223 SLAVE 2      SALES DATA                     NEXT INVOICE NO.  204529 0642
X BS Slave 2 First invoice 204466 170213 Last invoice 204528 170213 Next invoice 204529 Total number of records 000000257 clbackup completed 19:22:37
