128231000128231               128231               170213BT     1400+00000+BT0000010952+0000010952+000000000+000001535+0000012487+0000000000+I40000012487+0000000000+Z
128231001128231007-000029     128231006003000577736PRICE FLASH 17x11cm    0000001000+00001753+00000+0001T   00001753+0000001118          1400 J64130               2AZ
128231002128231903-000183     128231006003000451043SWT LB HEART LOLLY     0000001000+00000393+00000+0001T   00000393+0000001118          1400 J64150               2AZ
128231003128231039-000799     128231006001023692382CANDLES TEALITE 100PCE 0000001000+00008771+00000+0001T   00008771+0000001118          1400 J64510               2AZ
128231004128231112-116038     128231006009681820246TCS CARRIER BAG MIDI   0000001000+00000035+00000+0001T   00000035+0000001118          1400 J64090               2AZ
128232000128232               128232               170213BT     1400+00000+BT0000007892+0000007892+000000000+000001106+0000008990+0000000008+I20000000000+0000008990+Z
128232001128232140-006008     128232006001023803214FLY-SWATTERS   SET-OF-40000001000+00002630+00000+0001T   00002630+0000001240          1400 J64830               2AZ
128232002128232140-005093     128232006003000331338INSECT-KILL RAQT-SHAPED0000001000+00005262+00000+0001T   00005262+0000001240          1400 J64830               2AZ
128233000128233               128233               170213BT     1400+00000+BT0000007760+0000007760+000000000+000001089+0000008840+0000000009+I20000000000+0000008840+Z
128233001128233112-116069     128233006009681820277TCS CARRIER BAG JUMBO  0000001000+00000048+00000+0001T   00000048+0000001301          1400 J64090               2AZ
128233002128233200-000100     128233006001023764003CUPS 25PCE DISPOSABLE  0000001000+00001928+00000+0001T   00001928+0000001301          1400 J64214               2AZ
128233003128233006-000104     128233006001023990112BALLOONS 40PC AIR PUMP 0000001000+00002630+00000+0001T   00002630+0000001301          1400 J64131               2AZ
128233004128233027-009030     128233006002814400100DUSTPAN PL             0000001000+00001402+00000+0001T   00001402+0000001301          1400 J64212               2AZ
128233005128233028-000797     128233006001023812124SKEWERS 15cm 100PCE    0000001000+00000876+00000+0001T   00000876+0000001301          1400 J64305               2AZ
128233006128233567-014132     128233006003000560028BOOK COLOURING 24 PAGE 0000001000+00000876+00000+0001T   00000876+0000001301          1400 J64757               2AZ
128234000128234               128234               170213BT     1400+00000+BT0000002630+0000002630+000000000+000000369+0000002999+0000000000+I40000002999+0000000000+Z
128234001128234006-000323-D   128234006003000126248CONFETTI H/BIRTHDAY 3PK0000001000+00002630+00000+0001T   00002630+0000001345          1400 J64131               2AZ
128235000128235               128235               170213BT     1400+00000+BT0000010500+0000010500+000000000+000001470+0000011970+0000000000+I40000011970+0000000000+Z
128235001128235018-000177     128235006001023797513MUG MINI LOVE ASSTD    0000015000+00000700+00000+0001T   00000700+0000001351          1400 J64515               2AZ
128236000128236               128236               170213BT     1400+00000+BT0000004383+0000004383+000000000+000000614+0000004990+0000000007+I20000000000+0000004990+Z
128236001128236077-000314     128236006003000181148GIFT-BAG 11X14CM MATT  0000001000+00000876+00000+0001T   00000876+0000001352          1400 J64112               2AZ
128236002128236018-005009     128236006001023725608MUG W/PLUSH-BEAR LOVE  0000001000+00003507+00000+0001T   00003507+0000001352          1400 J64515               2AZ
128237000128237               128237               170213BT     1400+00000+BT0000002804+0000002804+000000000+000000393+0000003197+0000000000+I40000003197+0000000000+Z
128237001128237903-000194     128237006009826020616SWT CHOC RP LOLLY 25G  0000001000+00001314+00000+0001T   00001314+0000001353          1400 J64150               2AZ
128237002128237077-000299     128237006003000395576G/BAG 32x25cm LRG LOVE 0000001000+00001490+00000+0001T   00001490+0000001353          1400 J64112               2AZ
128238000128238               128238               170213BT     1400+00000+BT0000001927+0000001927+000000000+000000270+0000002190+0000000007+I20000000000+0000002190+Z
128238001128238077-000321     128238006001023677501GIFT-BAG 11X14CM E/D FL0000001000+00000613+00000+0001T   00000613+0000001401          1400 J64112               2AZ
128238002128238903-000194     128238006009826020616SWT CHOC RP LOLLY 25G  0000001000+00001314+00000+0001T   00001314+0000001401          1400 J64150               2AZ
128239000128239               128239               170213BT     1400+00000+BT0000006961+0000006961+000000000+000000976+0000007930+0000000007+I20000000000+0000007930+Z
128239001128239007-000226     128239006003000646876NOTEBOOK WITH ELASTIC  0000001000+00002630+00000+0001T   00002630+0000001404          1400 J64130               2AZ
128239002128239106-000899     128239006003000653287WTR BOTTLE 2L W/HANDLE 0000001000+00003069+00000+0001T   00003507+0008191404          1400 J64210               2AZ
128239003128239007-000206     128239006009635830215X/PAD 80-SHEETS PUNCHED0000001000+00001227+00000+0001T   00001227+0000001404          1400 J64130               2AZ
128239004128239112-116038     128239006009681820246TCS CARRIER BAG MIDI   0000001000+00000035+00000+0001T   00000035+0000001404          1400 J64090               2AZ
128240000128240               128240               170213BT     1400+00000+BT0000003713+0000003713+000000000+000000521+0000004230+0000000004+I20000000000+0000004230+Z
128240001128240304-001011     128240006001023806727FLWR ROSE RED W/BEAR   0000006000+00000613+00000+0001T   00000788+0006471405          1400 J64510               2AZ
128240002128240112-116038     128240006009681820246TCS CARRIER BAG MIDI   0000001000+00000035+00000+0001T   00000035+0000001405          1400 J64090               2AZ
128241000128241               128241               170213BT     1400+00000+BT0000001578+0000001578+000000000+000000221+0000001790+0000000009+I20000000000+0000001790+Z
128241001128241077-000303     128241006001023593757GIFT-BAG PAPER MED     0000001000+00001578+00000+0001T   00001578+0000001406          1400 J64112               2AZ
128242000128242               128242               170213BT     1400+00000+BT0000040644+0000040644+000000000+000005697+0000046341+0000000000+I40000046341+0000000000+Z
128242001128242112-116069     128242006009681820277TCS CARRIER BAG JUMBO  0000001000+00000048+00000+0001T   00000048+0000001411          1400 J64090               2AZ
128242002128242560-000301     128242006001023800275DINOSAUR VINYL 23cm    0000002000+00007016+00000+0001T   00007016+0000001411          1400 J64745               2AZ
128242003128242200-000114     128242006003000621545PICNIC CUPS PAPER 90ml 0000001000+00002630+00000+0001T   00002630+0000001411          1400 J64214               2AZ
128242004128242024-091103     128242006003453014307BAKING-CUP MUFFIN 50PCE0000001000+00002192+00000+0001T   00002192+0000001411          1400 J64300               2AZ
128242005128242365-005267     128242006001023584366P/SET KITCHEN BAKING PL0000001000+00003507+00000+0001T   00003507+0000001411          1400 J64725               2AZ
128242006128242028-000488     128242006001023458926TABLE-CLAMPS 4PCE   H&L0000001000+00004385+00000+0001T   00004385+0000001411          1400 J64305               2AZ
128242007128242024-000185     128242006003000199440SILICONE MOULDS 6PC    0000001000+00002630+00000+0001T   00002630+0000001411          1400 J64300               2AZ
128242008128242006-000220-B   128242006001023890870PARTY TABLE-CLOTH BOY  0000002000+00002630+00000+0001T   00002630+0000001411          1400 J64131               2AZ
128242009128242565-004101     128242006003000548033BALL BOUNCING EGG      0000004000+00001490+00000+0001T   00001490+0000001411          1400 J64745               2AZ
128243000128243               128243               170213BT     1400+00000+BT0000002630+0000002630+000000000+000000369+0000002999+0000000000+I40000002999+0000000000+Z
128243001128243007-010495     128243006003000533510BOARD DRY WIPE & PEN   0000001000+00002630+00000+0001T   00002630+0000001412          1400 J64130               2AZ
128244000128244               128244               170213BT     1400+00000+BT0000003069+0000003069+000000000+000000430+0000003490+0000000009+I20000000000+0000003490+Z
128244001128244002-000722     128244006003000673360C/BOARD+KNIFE 3-ASSTD  0000001000+00003069+00000+0001T   00003069+0000001412          1400 J64300               2AZ
128245000128245               128245               170213BT     1400+00000+BT0000002146+0000002146+000000000+000000302+0000002440+0000000008+I20000000000+0000002440+Z
128245001128245080-000113     128245006003000237449CARD&ENVLPE - LOVE     0000001000+00001753+00000+0001T   00001753+0000001419          1400 J64112               2AZ
128245002128245903-000183     128245006003000451043SWT LB HEART LOLLY     0000001000+00000393+00000+0001T   00000393+0000001419          1400 J64150               2AZ
128246000128246               128246               170213BT     1400+00000+BT0000003507+0000003507+000000000+000000491+0000003998+0000000000+I40000003998+0000000000+Z
128246001128246018-005009     128246006001023725608MUG W/PLUSH-BEAR LOVE  0000001000+00003507+00000+0001T   00003507+0000001421          1400 J64515               2AZ
128247000128247               128247               170213BT     1400+00000+BT0000001753+0000001753+000000000+000000246+0000001990+0000000009+I20000000000+0000001990+Z
128247001128247071-002999-A   128247006003000611577PEN STICKBALL 10PCE ASS0000001000+00001753+00000+0001T   00001753+0000001422          1400 J64130               2AZ
128248000128248               128248               170213BT     1400+00000+BT0000005257+0000005257+000000000+000000738+0000005990+0000000005+I20000000000+0000005990+Z
128248001128248077-000240     128248006003000326259G/RIBBON 4PC PEARLIZED 0000001000+00001753+00000+0001T   00001753+0000001440          1400 J64112               2AZ
128248002128248077-000011-E   128248006001023808646TISSUE-WRAP PINK 10PCE 0000004000+00000876+00000+0001T   00000876+0000001440          1400 J64112               2AZ
128249000128249               128249               170213BT     1400+00000+BT0000015997+0000015997+000000000+000002244+0000018241+0000000000+I40000018241+0000000000+Z
128249001128249112-116069     128249006009681820277TCS CARRIER BAG JUMBO  0000001000+00000048+00000+0001T   00000048+0000001445          1400 J64090               2AZ
128249002128249077-000005-B   128249006003000326617PAPER TISSUE PATTERN   0000001000+00002630+00000+0001T   00002630+0000001445          1400 J64112               2AZ
128249003128249077-000011-C   128249006001023808523TISSUE 10xSHTS RED     0000001000+00000876+00000+0001T   00000876+0000001445          1400 J64112               2AZ
128249004128249903-000194     128249006009826020616SWT CHOC RP LOLLY 25G  0000003000+00001314+00000+0001T   00001314+0000001445          1400 J64150               2AZ
128249005128249903-000200     128249006009826020234SWT CHOC RP CHOCO 23G  0000003000+00000788+00000+0001T   00000788+0000001445          1400 J64150               2AZ
128249006128249038-001800     128249006003000623303DOILIE PAPER HRT 24PC  0000001000+00003507+00000+0001T   00003507+0000001445          1400 J64300               2AZ
128249007128249566-000367     128249006003000645558STICKER WINDOW DECOR   0000001000+00002630+00000+0001T   00002630+0000001445          1400 J64130               2AZ
128250000128250               128250               170213BT     1400+00000+BT0000002630+0000002630+000000000+000000369+0000002999+0000000000+I40000002999+0000000000+Z
128250001128250162-096854     128250006001492968544#TAG KIDS 6PK EARING   0000001000+00002630+00000+0001T   00002630+0000001448          1400 J64160               2AZ
128251000128251               128251               170213BT     1400+00000+BT0000010634+0000010634+000000000+000001494+0000012128+0000000000+I40000012128+0000000000+Z
128251001128251112-116038     128251006009681820246TCS CARRIER BAG MIDI   0000001000+00000035+00000+0001T   00000035+0000001450          1400 J64090               2AZ
128251002128251903-000519     128251006001704012805SWT MS LIQ-O-GHETTI    0000001000+00001227+00000+0001T   00001227+0000001450          1400 J64150               2AZ
128251003128251206-000620     128251006003000631797BACK SCRATCHER EXTEND  0000001000+00002630+00000+0001T   00002630+0000001450          1400 J64321               2AZ
128251004128251903-000200     128251006009826020234SWT CHOC RP CHOCO 23G  0000001000+00000788+00000+0001T   00000788+0000001450          1400 J64150               2AZ
128251005128251903-000155     128251006009803374435SWT LOLLY I LUV U HEART0000002000+00000525+00000+0001T   00000525+0000001450          1400 J64150               2AZ
128251006128251903-000183     128251006003000451043SWT LB HEART LOLLY     0000001000+00000393+00000+0001T   00000393+0000001450          1400 J64150               2AZ
128251007128251903-000070     128251006001704001106SWT TOFFEE CREAMY 35g  0000001000+00000700+00000+0001T   00000700+0000001450          1400 J64150               2AZ
128251008128251903-000670     128251006009803358008SWT SHERBET RED LIPS   0000001000+00000218+00000+0001T   00000218+0000001450          1400 J64150               2AZ
128251009128251903-000843     128251008693029031067SWT GUMMY JELAXY 80G   0000001000+00000964+00000+0001T   00000964+0000001450          1400 J64150               2AZ
128251010128251903-000087     128251006001704000161SWT SPECKLED-EGGS 50G  0000001000+00001139+00000+0001T   00001139+0000001450          1400 J64150               2AZ
128251011128251034-078833     128251006001023857491SIGN BABY-ON-BOARD     0000001000+00001490+00000+0001T   00001490+0000001450          1400 J64215               2AZ
M17021301                              SHIEHAAM    BTATT SHIEHAAM                                    Z READING R1702.29                              CASH R528.70                                    CARDS R1173.59                                  SLAVE 2                                         CALEDON BT
M17021391                              CASH        BTSLAVE 2                       Z-REPORT No.   645TOTAL (Sales - Refunds)           1702.29       CASH TO BE BANKED                  528.70       DEBIT CARDS                          0.00       CREDIT CARDS                      1173.59       Z-READING                         1702.29       AIRTIME DEBIT CARD SALES             0.00       AIRTIME CARD SALES                   0.00       OVERS/UNDERS                         0.00       AIRTIME CASH SALES                   0.00       GIFT CARDS                           0.00       GIFT CARD CASH SALES                 0.00       T O T A L  CASH PAYOUTS              0.00                                                                                                                                                                                                                                                                                                                                                      Z
M17021392                              CASH        BTABSENT                                                                                                                                                                                          ANNUAL LEAVE                                                                                                                                                                                    DAY OFF                                                                                                                                                                                         COMMENTS                                                                                                                                                                                                                                                                                                                                                                                       Z
Y17021300                                          BT00000000149367+000021
ZBT17021319223 SLAVE 2      SALES DATA                     NEXT INVOICE NO.  128252 0645
X BT Slave 2 First invoice 128231 170213 Last invoice 128251 170213 Next invoice 128252 Total number of records 000000089 clbackup completed 19:22:58
