202760000202760               202760               170213BW     1400+00000+BW0000003717+0000003717+000000000+000000521+0000004230+0000000008+I20000000000+0000004230+Z
202760001202760077-000299     202760006003000395576G/BAG 32x25cm LRG LOVE 0000001000+00001490+00000+0001T   00001490+0000000907          1400 FK7112               1AZ
202760002202760080-000127     202760006003000424351VALENTINES DAY 36x24CM 0000001000+00002192+00000+0001T   00002192+0000000907          1400 FK7112               1AZ
202760003202760112-116038     202760006009681820246TCS CARRIER BAG MIDI   0000001000+00000035+00000+0001T   00000035+0000000907          1400 FK7090               1AZ
202761000202761               202761               170213BW     1400+00000+BW0000001490+0000001490+000000000+000000209+0000001690+0000000009+I20000000000+0000001690+Z
202761001202761077-000299     202761006003000395576G/BAG 32x25cm LRG LOVE 0000001000+00001490+00000+0001T   00001490+0000000908          1400 FK7112               1AZ
202762000202762               202762               170213BW     1400+00000+BW0000013149+0000013149+000000000+000001841+0000014990+0000000000+I40000014990+0000000000+Z
202762001202762567-011348     202762009780709717607BK STICKER ANIMAL WORLD0000001000+00003507+00000+0001T   00003507+0000000918          1400 FK7757               1AZ
202762002202762567-011348     202762009780709717621BK STICKER ANIMAL WORLD0000001000+00003507+00000+0001T   00003507+0000000918          1400 FK7757               1AZ
202762003202762567-011348     202762009780709717638BK STICKER ANIMAL WORLD0000001000+00003507+00000+0001T   00003507+0000000918          1400 FK7757               1AZ
202762004202762903-000844     202762005010478432567SWT CANDY DL LUV HEARTS0000002000+00001314+00000+0001T   00001314+0000000918          1400 FK7150               1AZ
202763000202763               202763               170213BW     1400+00000+BW0000003945+0000003945+000000000+000000553+0000004490+0000000008+I20000000000+0000004490+Z
202763001202763083-000050     202763006001023898593LIGHTERS DISPOSABLE    0000001000+00000876+00000+0001T   00000876+0000001001          1400 FK7315               1AZ
202763002202763028-000272     202763006001023465283EGG-RINGS 2PCE      H&L0000001000+00003069+00000+0001T   00003069+0000001001          1400 FK7305               1AZ
202764000202764               202764               170213BW     1400+00000+BW0000001753+0000001753+000000000+000000246+0000001990+0000000009+I20000000000+0000001990+Z
202764001202764089-000030     202764006003000575671K/CHAIN LOVE MTL ASSTD 0000001000+00001753+00000+0001T   00001753+0000001044          1400 FK7205               1AZ
202765000202765               202765               170213BW     1400+00000+BW0000009642+0000009642+000000000+000001351+0000010993+0000000000+I40000010993+0000000000+Z
202765001202765304-001011     202765006001023806727FLWR ROSE RED W/BEAR   0000002000+00000613+00000+0001T   00000788+0006471050          1400 FK7510               1AZ
202765002202765903-000843     202765008693029031067SWT GUMMY JELAXY 80G   0000001000+00000964+00000+0001T   00000964+0000001050          1400 FK7150               1AZ
202765003202765301-085004     202765006003000420469ORN LOVE PLAQUE 21X10CM0000001000+00003507+00000+0001T   00003946+0006471050          1400 FK7505               1AZ
202765004202765080-000127     202765006003000424351VALENTINES DAY 36x24CM 0000001000+00002192+00000+0001T   00002192+0000001050          1400 FK7112               1AZ
202765005202765077-000472     202765006003000330133G-BAG DESGNR LRG 25X32 0000001000+00001753+00000+0001T   00001753+0000001050          1400 FK7112               1AZ
202766000202766               202766               170213BW     1400+00000+BW0000031551+0000031551+000000000+000004422+0000035973+0000000000+I40000035973+0000000000+Z
202766001202766112-116053     202766006006438002399TCS CARRIER BAG 38L    0000001000+00000069+00000+0001T   00000069+0000001110          1400 FK7090               1AZ
202766002202766368-000637     202766006001023874092PLUSH BEAR SLEEPING LOV0000002000+00011402+00000+0001T   00012279+0006471110          1400 FK7745               1AZ
202766003202766007-010500     202766006003000455034WIPE & CHALK 30X20CM   0000001000+00006139+00000+0001T   00006139+0000001110          1400 FK7130               1AZ
202766004202766007-010496     202766006003000640652MARKER WHITEBOARD 4PCE 0000001000+00001753+00000+0001T   00001753+0000001110          1400 FK7130               1AZ
202766005202766903-000183     202766006003000451043SWT LB HEART LOLLY     0000002000+00000393+00000+0001T   00000393+0000001110          1400 FK7150               1AZ
202767000202767               202767               170213BW     1400+00000+BW0000006960+0000006960+000000000+000000976+0000007936+0000000000+I40000007936+0000000000+Z
202767001202767903-000155     202767006009803374435SWT LOLLY I LUV U HEART0000002000+00000525+00000+0001T   00000525+0000001115          1400 FK7150               1AZ
202767002202767079-011524     202767006003000408139ART+CRFT FINGER PUPPETS0000001000+00004385+00000+0001T   00004385+0000001115          1400 FK7130               1AZ
202767003202767077-000299     202767006003000395576G/BAG 32x25cm LRG LOVE 0000001000+00001490+00000+0001T   00001490+0000001115          1400 FK7112               1AZ
202767004202767112-116038     202767006009681820246TCS CARRIER BAG MIDI   0000001000+00000035+00000+0001T   00000035+0000001115          1400 FK7090               1AZ
202768000202768               202768               170213BW     1400+00000+BW0000001928+0000001928+000000000+000000270+0000002190+0000000008+I20000000000+0000002190+Z
202768001202768174-008034     202768006009654960610TRAVEL BOTTLES 150ml   0000001000+00001928+00000+0001T   00001928+0000001115          1400 FK7205               1AZ
202769000202769               202769               170213BW     1400+00000+BW0000013269+0000013269+000000000+000001860+0000015120+0000000009+I20000000000+0000015120+Z
202769001202769040-000104     202769006001023772459C/HOLDER CERC SENTIMENT0000001000+00002630+00000+0001T   00003069+0008171117          1400 FK7510               1AZ
202769002202769112-116038     202769006009681820246TCS CARRIER BAG MIDI   0000001000+00000035+00000+0001T   00000035+0000001117          1400 FK7090               1AZ
202769003202769903-000519     202769006001704012805SWT MS LIQ-O-GHETTI    0000002000+00001227+00000+0001T   00001227+0000001117          1400 FK7150               1AZ
202769004202769903-004961     202769008410525221866SWT GUMMY FINI WILD 50g0000002000+00000964+00000+0001T   00000964+0000001117          1400 FK7150               1AZ
202769005202769903-000499     202769006001704012492SWT CHOC MALLOWS 50g   0000002000+00001227+00000+0001T   00001227+0000001117          1400 FK7150               1AZ
202769006202769903-000897     202769008692806325207SWT CHOC DBL MINI ROLL 0000001000+00000876+00000+0001T   00000876+0000001117          1400 FK7150               1AZ
202769007202769903-004962     202769008410525221880SWT FINI BLCK/RED 50g  0000003000+00000964+00000+0001T   00000964+0000001117          1400 FK7150               1AZ
202770000202770               202770               170213BW     1400+00000+BW0000002630+0000002630+000000000+000000369+0000002990+0000000009+I20000000000+0000002990+Z
202770001202770304-001486     202770006003000035335FLWR BUNCH ROSE        0000001000+00002630+00000+0001T   00002630+0000001315          1400 FK7510               1AZ
202771000202771               202771               170213BW     1400+00000+BW0000002574+0000002574+000000000+000000363+0000002937+0000000000+I40000002937+0000000000+Z
202771001202771006-000124     202771006003000625888BALLOONS 10PC MIX COL  0000001000+00001753+00000+0001T   00001753+0000001317          1400 FK7131               1AZ
202771002202771903-000183     202771006003000451043SWT LB HEART LOLLY     0000002000+00000393+00000+0001T   00000393+0000001317          1400 FK7150               1AZ
202771003202771112-116038     202771006009681820246TCS CARRIER BAG MIDI   0000001000+00000035+00000+0001T   00000035+0000001317          1400 FK7090               1AZ
202772000202772               202772               170213BW     1400+00000+BW0000002190+0000002190+000000000+000000308+0000002490+0000000008+I20000000000+0000002490+Z
202772001202772007-000723     202772006003000226078MEMO BOOK W/PEN 100SHTS0000001000+00001753+00000+0001T   00001753+0000001317          1400 FK7130               1AZ
202772002202772080-000133-A   202772006003000647019MINI VALENTINES CARD   0000001000+00000437+00000+0001T   00000437+0000001317          1400 FK7112               1AZ
202773000202773               202773               170213BW     1400+00000+BW0000002630+0000002630+000000000+000000369+0000002990+0000000009+I20000000000+0000002990+Z
202773001202773082-026205     202773006001023816528R/GLASSES STRINGS 2PCE 0000001000+00002630+00000+0001T   00002630+0000001327          1400 FK7160               1AZ
202774000202774               202774               170213BW     1400+00000+BW0000001753+0000001753+000000000+000000246+0000001990+0000000009+I20000000000+0000001990+Z
202774001202774039-001023     202774006003000466337CANDLE TEA-LITE METALIC0000001000+00001753+00000+0001T   00001753+0000001327          1400 FK7510               1AZ
202775000202775               202775               170213BW     1400+00000+BW0000001753+0000001753+000000000+000000246+0000001990+0000000009+I20000000000+0000001990+Z
202775001202775077-000240     202775006003000326259G/RIBBON 4PC PEARLIZED 0000001000+00001753+00000+0001T   00001753+0000001338          1400 FK7112               1AZ
202776000202776               202776               170213BW     1400+00000+BW0000001753+0000001753+000000000+000000246+0000001990+0000000009+I20000000000+0000001990+Z
202776001202776077-000301     202776008010410010188BAG LRG 25X32CM B/DAY  0000001000+00001753+00000+0001T   00001753+0000001339          1400 FK7112               1AZ
202777000202777               202777               170213BW     1400+00000+BW0000007715+0000007715+000000000+000001081+0000008790+0000000006+I20000000000+0000008790+Z
202777001202777071-005060     202777006003000152186CELLOTAPE 2PACK INVSBLE0000001000+00003507+00000+0001T   00003507+0000001350          1400 FK7130               1AZ
202777002202777903-000095     202777006001704011495SWT SPECKLED-EGGS 100G 0000002000+00002104+00000+0001T   00002104+0000001350          1400 FK7150               1AZ
202778000202778               202778               170213BW     1400+00000+BW0000008771+0000008771+000000000+000001228+0000009999+0000000000+I40000009999+0000000000+Z
202778001202778001-091415     202778006003000329113W/GLS OCC. LOVE 2PC 2800000001000+00008771+00000+0001T   00009648+0006471409          1400 FK7515               1AZ
202779000202779               202779               170213BW     1400+00000+BW0000002630+0000002630+000000000+000000369+0000002990+0000000009+I20000000000+0000002990+Z
202779001202779203-001245     202779006003000567096C/SKREW W/FRND B/SHAPE 0000001000+00002630+00000+0001T   00002630+0000001410          1400 FK7300               1AZ
202780000202780               202780               170213BW     1400+00000+BW0000010961+0000010961+000000000+000001536+0000012490+0000000007+I20000000000+0000012490+Z
202780001202780072-020302     202780006001023858818PET-DOG STICK/RING 24cm0000001000+00002630+00000+0001T   00002630+0000001413          1400 FK7870               1AZ
202780002202780036-000013     202780006001246500860LINT REMOVER REFILLS   0000001000+00003946+00000+0001T   00003946+0000001413          1400 FK7212               1AZ
202780003202780206-000180     202780006003000631223TEA INFUSER TEAMAN     0000001000+00004385+00000+0001T   00004385+0000001413          1400 FK7321               1AZ
202781000202781               202781               170213BW     1400+00000+BW0000012661+0000012661+000000000+000001774+0000014435+0000000000+I40000014435+0000000000+Z
202781001202781903-000843     202781008693029031067SWT GUMMY JELAXY 80G   0000001000+00000964+00000+0001T   00000964+0000001417          1400 FK7150               1AZ
202781002202781903-000155     202781006009803374435SWT LOLLY I LUV U HEART0000001000+00000525+00000+0001T   00000525+0000001417          1400 FK7150               1AZ
202781003202781018-019000     202781006003000557288MUG OCC. LOVE JUMBO    0000001000+00005262+00000+0001T   00005262+0000001417          1400 FK7515               1AZ
202781004202781077-000299     202781006003000395576G/BAG 32x25cm LRG LOVE 0000001000+00001490+00000+0001T   00001490+0000001417          1400 FK7112               1AZ
202781005202781112-116038     202781006009681820246TCS CARRIER BAG MIDI   0000001000+00000035+00000+0001T   00000035+0000001417          1400 FK7090               1AZ
202781006202781368-000001     202781006003000097982Plush Bear 25cm        0000001000+00004385+00000+0001T   00004385+0000001417          1400 FK7745               1AZ
202782000202782               202782               170213BW     1400+00000+BW0000008802+0000008802+000000000+000001234+0000010036+0000000000+I40000010036+0000000000+Z
202782001202782112-116038     202782006009681820246TCS CARRIER BAG MIDI   0000001000+00000035+00000+0001T   00000035+0000001424          1400 FK7090               1AZ
202782002202782466-000513     202782006003000515561BALL CRICKET RUBBER    0000002000+00002630+00000+0001T   00002630+0000001424          1400 FK7785               1AZ
202782003202782567-011436     202782009780857260611BK STICKER GIRLS ACTIVI0000001000+00003507+00000+0001T   00003507+0000001424          1400 FK7757               1AZ
202783000202783               202783               170213BW     1400+00000+BW0000001750+0000001750+000000000+000000247+0000001990+0000000007+I20000000000+0000001990+Z
202783001202783903-000843     202783008693029031067SWT GUMMY JELAXY 80G   0000001000+00000964+00000+0001T   00000964+0000001428          1400 FK7150               1AZ
202783002202783903-000183     202783006003000451043SWT LB HEART LOLLY     0000002000+00000393+00000+0001T   00000393+0000001428          1400 FK7150               1AZ
202784000202784               202784               170213BW     1400+00000+BW0000004558+0000004558+000000000+000000639+0000005197+0000000000+I40000005197+0000000000+Z
202784001202784055-009258     202784006001023426215P/HOOK+PIN 2PNx7PCE H&H0000002000+00001490+00000+0001T   00001490+0000001433          1400 FK7810               1AZ
202784002202784251-000031     202784006001023515827MASKING-TAPE 24mmx40m  0000001000+00001578+00000+0001T   00001578+0000001433          1400 FK7810               1AZ
202785000202785               202785               170213BW     1400+00000+BW0000001753+0000001753+000000000+000000246+0000001990+0000000009+I20000000000+0000001990+Z
202785001202785080-000116     202785006003000253555CARD&ENVELOPE-HANDMADE 0000001000+00001753+00000+0001T   00001753+0000001433          1400 FK7112               1AZ
202786000202786               202786               170213BW     1400+00000+BW0000003107+0000003107+000000000+000000438+0000003540+0000000005+I20000000000+0000003540+Z
202786001202786903-000843     202786008693029031067SWT GUMMY JELAXY 80G   0000002000+00000964+00000+0001T   00000964+0000001437          1400 FK7150               1AZ
202786002202786903-000183     202786006003000451043SWT LB HEART LOLLY     0000003000+00000393+00000+0001T   00000393+0000001437          1400 FK7150               1AZ
202787000202787               202787               170213BW     1400+00000+BW0000003506+0000003506+000000000+000000492+0000003990+0000000008+I20000000000+0000003990+Z
202787001202787565-000888     202787006003000607846NOVELTY MESH BALL      0000002000+00001753+00000+0001T   00001753+0000001442          1400 FK7745               1AZ
202788000202788               202788               170213BW     1400+00000+BW0000003945+0000003945+000000000+000000553+0000004490+0000000008+I20000000000+0000004490+Z
202788001202788080-000139     202788006003000611690CARD & ENV MINI SET 6PC0000001000+00002192+00000+0001T   00002192+0000001443          1400 FK7112               1AZ
202788002202788079-006496     202788006003000160105GLITTER SHAKERS        0000001000+00001753+00000+0001T   00001753+0000001443          1400 FK7130               1AZ
202789000202789               202789               170213BW     1400+00000+BW0000000876+0000000876+000000000+000000123+0000000990+0000000009+I20000000000+0000000990+Z
202789001202789566-000200     202789006003000384174STICKER PUFFY NEON     0000001000+00000876+00000+0001T   00000876+0000001459          1400 FK7130               1AZ
202790000202790               202790               170213BW     1400+00000+BW0000002980+0000002980+000000000+000000418+0000003390+0000000008+I20000000000+0000003390+Z
202790001202790039-000108     202790006001023524034TEA-LITE CANDLES 8PCE  0000002000+00001490+00000+0001T   00001490+0000001555          1400 FK7510               1AZ
202791000202791               202791               170213BW     1400+00000+BW0000001753+0000001753+000000000+000000246+0000001990+0000000009+I20000000000+0000001990+Z
202791001202791077-000324     202791006001023677594GIFT-BAG 33X45CM E/D FL0000001000+00001753+00000+0001T   00001753+0000001556          1400 FK7112               1AZ
202792000202792               202792               170213BW     1400+00000+BW0000012309+0000012309+000000000+000001725+0000014034+0000000000+I40000014034+0000000000+Z
202792001202792112-116038     202792006009681820246TCS CARRIER BAG MIDI   0000001000+00000035+00000+0001T   00000035+0000001632          1400 FK7090               1AZ
202792002202792206-000620     202792006003000631797BACK SCRATCHER EXTEND  0000001000+00002630+00000+0001T   00002630+0000001632          1400 FK7321               1AZ
202792003202792072-020305     202792006003000024261PET DOG ASST CANVAS TOY0000001000+00002630+00000+0001T   00002630+0000001632          1400 FK7870               1AZ
202792004202792072-020266     202792006003000400591PET PUPPY TRAINING PAD 0000001000+00003507+00000+0001T   00003507+0000001632          1400 FK7870               1AZ
202792005202792002-000655     202792006001023377401M/SPOONS WDN 5PCE H.HSE0000001000+00003507+00000+0001T   00004385+0008121632          1400 FK7300               1AZ
202793000202793               202793               170213BW     1400+00000+BW0000000612+0000000612+000000000+000000086+0000000690+0000000008+I20000000000+0000000690+Z
202793001202793007-000123     202793006003000533879BOOK COVER 450mmx1.5m  0000002000+00000306+00000+0001T   00000306+0000001633          1400 FK7130               1AZ
202794000202794               202794               170213BW     1400+00000+BW0000003892+0000003892+000000000+000000546+0000004438+0000000000+I40000004438+0000000000+Z
202794001202794903-000510     202794006001704012621SWEET MS ZBDZ S/BERRY  0000001000+00001227+00000+0001T   00001227+0000001635          1400 FK7150               1AZ
202794002202794124-000001     202794000738380781690STORAGE TIN TISSUE     0000001000+00002630+00000+0001T   00003507+0008171635          1400 FK7300               1AZ
202794003202794112-116038     202794006009681820246TCS CARRIER BAG MIDI   0000001000+00000035+00000+0001T   00000035+0000001635          1400 FK7090               1AZ
202795000202795               202795               170213BW     1400+00000+BW0000004385+0000004385+000000000+000000614+0000004990+0000000009+I20000000000+0000004990+Z
202795001202795018-030000     202795006003000421060MUG OCCASIONS LOVE 2PCE0000001000+00004385+00000+0001T   00004385+0000001638          1400 FK7515               1AZ
202796000202796               202796               170213BW     1400+00000+BW0000005698+0000005698+000000000+000000799+0000006497+0000000000+I40000006497+0000000000+Z
202796001202796079-003002     202796006003000447886A/TUBE 75ML RED        0000001000+00001753+00000+0001T   00001753+0000001640          1400 FK7130               1AZ
202796002202796079-000572     202796006003000533633ART+CRAFT O/PASTEL 12PC0000001000+00001753+00000+0001T   00001753+0000001640          1400 FK7130               1AZ
202796003202796301-006010     202796006001023861245ORN BEAR POLY W/JERSEY 0000001000+00002192+00000+0001T   00002192+0000001640          1400 FK7505               1AZ
202797000202797               202797               170213BW     1400+00000+BW0000002135+0000002135+000000000+000000301+0000002430+0000000006+I20000000000+0000002430+Z
202797001202797112-116038     202797006009681820246TCS CARRIER BAG MIDI   0000001000+00000035+00000+0001T   00000035+0000001647          1400 FK7090               1AZ
202797002202797903-000155     202797006009803374435SWT LOLLY I LUV U HEART0000004000+00000525+00000+0001T   00000525+0000001647          1400 FK7150               1AZ
202798000202798               202798               170213BW     1400+00000+BW0000003069+0000003069+000000000+000000430+0000003490+0000000009+I20000000000+0000003490+Z
202798001202798301-005000     202798006001023569615ORN ANIMAL CAT 16CM 2AS0000001000+00003069+00000+0001T   00003069+0000001649          1400 FK7505               1AZ
202799000202799               202799               170213BW     1400+00000+BW0000020457+0000020457+000000000+000002869+0000023320+0000000006+I20000000000+0000023320+Z
202799001202799112-116038     202799006009681820246TCS CARRIER BAG MIDI   0000001000+00000035+00000+0001T   00000035+0000001658          1400 FK7090               1AZ
202799002202799566-001234     202799006003000217793STICKERS LASER ASSTD   0000001000+00001578+00000+0001T   00001578+0000001658          1400 FK7130               1AZ
202799003202799031-000878-B   202799006001023799012P/FRAME 13x18cm PL-SLID0000005000+00001490+00000+0001T   00001490+0000001658          1400 FK7510               1AZ
202799004202799031-000878-A   202799006001023798985P/FRAME 10x15cm PL-SLID0000007000+00000876+00000+0001T   00000876+0000001658          1400 FK7510               1AZ
202799005202799303-000806     202799006001023409768COW-BELL BRASS(5BELLS) 0000001000+00005262+00000+0001T   00005262+0000001658          1400 FK7510               1AZ
202800000202800               202800               170213BW     1400+00000+BW0000001660+0000001660+000000000+000000236+0000001890+0000000006+I20000000000+0000001890+Z
202800001202800903-000183     202800006003000451043SWT LB HEART LOLLY     0000002000+00000393+00000+0001T   00000393+0000001659          1400 FK7150               1AZ
202800002202800080-000133-A   202800006003000647019MINI VALENTINES CARD   0000001000+00000437+00000+0001T   00000437+0000001659          1400 FK7112               1AZ
202800003202800080-000133     202800006003000535613CARD&ENV MINI ASTD DSGN0000001000+00000437+00000+0001T   00000437+0000001659          1400 FK7112               1AZ
202801000202801               202801               170213BW     1400+00000+BW0000002630+0000002630+000000000+000000369+0000002990+0000000009+I20000000000+0000002990+Z
202801001202801039-000320     202801006001023816153BIRTHDAY-CANDLES 13PCE 0000001000+00002630+00000+0001T   00002630+0000001715          1400 FK7510               1AZ
202802000202802               202802               170213BW     1400+00000+BW0000022143+0000022143+000000000+000003103+0000025246+0000000000+I40000025246+0000000000+Z
202802001202802112-116069     202802006009681820277TCS CARRIER BAG JUMBO  0000001000+00000048+00000+0001T   00000048+0000001725          1400 FK7090               1AZ
202802002202802566-000561     202802006003000068715S/BOOK PAPER CRAFT 12SH0000001000+00003507+00000+0001T   00003507+0000001725          1400 FK7130               1AZ
202802003202802039-082106     202802006001023847348C/VOTIVE 8PC VANILLA   0000001000+00005262+00000+0001T   00005262+0000001725          1400 FK7510               1AZ
202802004202802039-000108     202802006001023524034TEA-LITE CANDLES 8PCE  0000001000+00001490+00000+0001T   00001490+0000001725          1400 FK7510               1AZ
202802005202802206-000245     202802006003000680818BOTTLE CLEANER PLASTIC 0000001000+00002192+00000+0001T   00002192+0000001725          1400 FK7321               1AZ
202802006202802077-000011-D   202802006001023808554TISSUE-WRAP WHITE 10PCE0000001000+00000876+00000+0001T   00000876+0000001725          1400 FK7112               1AZ
202802007202802206-000135     202802006003000680450T/BAG HLDR SILICONE    0000001000+00001753+00000+0001T   00001753+0000001725          1400 FK7321               1AZ
202802008202802003-000119     202802006001023805409ORN MSG STONE W/GNOME  0000001000+00002630+00000+0001T   00002630+0000001725          1400 FK7505               1AZ
202802009202802003-000032     202802006001023478504ORN ANIMAL SQUIRREL CER0000001000+00004385+00000+0001T   00004385+0000001725          1400 FK7505               1AZ
202803000202803               202803               170213BW     1400+00000+BW0000001753+0000001753+000000000+000000246+0000001990+0000000009+I20000000000+0000001990+Z
202803001202803046-000002     202803006001023585202BATTERIES SIZE:C   2PCE0000001000+00001753+00000+0001T   00001753+0000001726          1400 FK7312               1AZ
202804000202804               202804               170213BW     1400+00000+BW0000003507+0000003507+000000000+000000491+0000003990+0000000008+I20000000000+0000003990+Z
202804001202804018-000130     202804006001023867537MUG OCC LOVE MINI+HEART0000001000+00003507+00000+0001T   00003507+0000001727          1400 FK7515               1AZ
202805000202805               202805               170213BW     1400+00000+BW0000009506+0000009506+000000000+000001332+0000010838+0000000000+I40000010838+0000000000+Z
202805001202805301-085007     202805006003000673698ORN OCC. LOVE S/PLAQUE 0000001000+00007893+00000+0001T   00007893+0000001728          1400 FK7505               1AZ
202805002202805080-000124     202805006003000297733CARD & ENV VALENTINES  0000001000+00001578+00000+0001T   00001578+0000001728          1400 FK7112               1AZ
202805003202805112-116038     202805006009681820246TCS CARRIER BAG MIDI   0000001000+00000035+00000+0001T   00000035+0000001728          1400 FK7090               1AZ
202806000202806               202806               170213BW     1400+00000+BW0000001314+0000001314+000000000+000000184+0000001490+0000000008+I20000000000+0000001490+Z
202806001202806077-000312     202806006001023608697GIFT-BAG 10X35CM GLOSS 0000001000+00001314+00000+0001T   00001314+0000001729          1400 FK7112               1AZ
202807000202807               202807               170213BW     1400+00000+BW0000005260+0000005260+000000000+000000738+0000005998+0000000000+I40000005998+0000000000+Z
202807001202807566-000006     202807006001023671189STICKER-BOOK DRESS-UP  0000002000+00002630+00000+0001T   00002630+0000001731          1400 FK7130               1AZ
202808000202808               202808               170213BW     1400+00000+BW0000002927+0000002927+000000000+000000411+0000003330+0000000008+I20000000000+0000003330+Z
202808001202808046-000014     202808006001023725387BATTERIES SIZE:AAA 4PCE0000001000+00001139+00000+0001T   00001139+0000001733          1400 FK7312               1AZ
202808002202808048-000859     202808006003000423422TORCH 9 LED PL 3XAAA   0000001000+00001753+00000+0001T   00001753+0000001733          1400 FK7305               1AZ
202808003202808112-116038     202808006009681820246TCS CARRIER BAG MIDI   0000001000+00000035+00000+0001T   00000035+0000001733          1400 FK7090               1AZ
202809000202809               202809               170213BW     1400+00000+BW0000001490+0000001490+000000000+000000209+0000001690+0000000009+I20000000000+0000001690+Z
202809001202809089-000141-H   202809006001023416568KEY-CHAINS 6PCE     H&H0000001000+00001490+00000+0001T   00001490+0000001736          1400 FK7205               1AZ
202810000202810               202810               170213BW     1400+00000+BW0000001314+0000001314+000000000+000000184+0000001490+0000000008+I20000000000+0000001490+Z
202810001202810107-004105     202810006002923010504BUCKET 9L OPEN         0000001000+00001314+00000+0001T   00001314+0000001737          1400 FK7210               1AZ
202811000202811               202811               170213BW     1400+00000+BW0000010130+0000010130+000000000+000001420+0000011550+0000000000+I20000000000+0000011550+Z
202811001202811200-003026     202811006003000276448REFUSE BAGS 10PCE GREEN0000002000+00001753+00000+0001T   00001753+0000001743          1400 FK7214               1AZ
202811002202811140-005093     202811006003000331338INSECT-KILL RAQT-SHAPED0000001000+00005262+00000+0001T   00005262+0000001743          1400 FK7830               1AZ
202811003202811046-000012     202811006904708013062BATTERIES AA  CARD-OF-40000001000+00001314+00000+0001T   00001314+0000001743          1400 FK7312               1AZ
202811004202811112-116069     202811006009681820277TCS CARRIER BAG JUMBO  0000001000+00000048+00000+0001T   00000048+0000001743          1400 FK7090               1AZ
202812000202812               202812               170213BW     1400+00000+BW0000000005-0000000005-000000000+000000001+0000000010-0000000006+I20000000000+0000000010-Z
202812001202812140-005093     202812006003000331338INSECT-KILL RAQT-SHAPED0000001000-00005262+00000+0001T   00005262+0000001747          1400 FK78302IC            1 Z
202812002202812071-000006     202812006001023732613PENCIL REFILLABLE 6PK  0000001000+00001753+00000+0001T   00001753+0000001747          1400 FK7130               1 Z
202812003202812903-000220     202812006001704007368SWT JELLY BEANS 60G    0000003000+00000876+00000+0001T   00000876+0000001747          1400 FK7150               1 Z
202812004202812903-000520     202812006001704009898SWT GUMMY MINI SOUR 60g0000001000+00000876+00000+0001T   00000876+0000001747          1400 FK7150               1 Z
202813000202813               202813               170213BW     1400+00000+BW0000044077+0000044077+000000000+000006183+0000050260+0000000000+I20000000000+0000050260+Z
202813001202813112-116053     202813006006438002399TCS CARRIER BAG 38L    0000001000+00000069+00000+0001T   00000069+0000001758          1400 FK7090               1AZ
202813002202813006-000190     202813006003000685530BALLOONS LOVE 81x91cm  0000001000+00004385+00000+0001T   00004385+0000001758          1400 FK7131               1AZ
202813003202813039-000108     202813006001023524034TEA-LITE CANDLES 8PCE  0000001000+00001490+00000+0001T   00001490+0000001758          1400 FK7510               1AZ
202813004202813040-000922     202813006001023587817CANDLE-HOLDER GLS 18cm 0000002000+00001753+00000+0001T   00001753+0000001758          1400 FK7510               1AZ
202813005202813040-000923     202813006001023587831CANDLE-HOLDER GLS 13.5 0000002000+00001753+00000+0001T   00001753+0000001758          1400 FK7510               1AZ
202813006202813039-000026     202813006001023551610C/TAPERED 25CM M/RED   0000004000+00001051+00000+0001T   00001051+0000001758          1400 FK7510               1AZ
202813007202813039-000024     202813006003000286300C/TAPERED 25CM M/WHITE 0000004000+00001051+00000+0001T   00001051+0000001758          1400 FK7510               1AZ
202813008202813039-809558     202813006003000344376CANDLE PILLAR 12CM 4AST0000001000+00006139+00000+0001T   00006139+0000001758          1400 FK7510               1AZ
202813009202813001-091415     202813006003000329113W/GLS OCC. LOVE 2PC 2800000001000+00008771+00000+0001T   00009648+0006471758          1400 FK7515               1AZ
202813010202813077-000010-D   202813006001023123886CREPE-PAPER WHITE      0000001000+00000788+00000+0001T   00000788+0000001758          1400 FK7112               1AZ
202813011202813077-000011-C   202813006001023808523TISSUE 10xSHTS RED     0000001000+00000876+00000+0001T   00000876+0000001758          1400 FK7112               1AZ
202813012202813040-000214     202813006003000221523C/HOLDER-SET 3PC GLS   0000001000+00006139+00000+0001T   00006139+0000001758          1400 FK7510               1AZ
202814000202814               202814               170213BW     1400+00000+BW0000012311+0000012311+000000000+000001725+0000014036+0000000000+I40000014036+0000000000+Z
202814001202814564-001028     202814006001023708663BUBBLE CELEBRATION 6ml 0000004000+00003069+00000+0001T   00003069+0000001800          1400 FK7131               1AZ
202814002202814112-116038     202814006009681820246TCS CARRIER BAG MIDI   0000001000+00000035+00000+0001T   00000035+0000001800          1400 FK7090               1AZ
202815000202815               202815               170213BW     1400+00000+BW0000005873+0000005873+000000000+000000823+0000006690+0000000006+I20000000000+0000006690+Z
202815001202815903-000087     202815006001704000161SWT SPECKLED-EGGS 50G  0000001000+00001139+00000+0001T   00001139+0000001800          1400 FK7150               1AZ
202815002202815903-000498     202815006001704013048SWT CHOC MIGHTY MALTS  0000001000+00001227+00000+0001T   00001227+0000001800          1400 FK7150               1AZ
202815003202815048-000870     202815006003000525287LANTERN B/LIGHT MINI   0000001000+00003507+00000+0001T   00003507+0000001800          1400 FK7305               1AZ
202816000202816               202816               170213BW     1400+00000+BW0000001839+0000001839+000000000+000000258+0000002090+0000000007+I20000000000+0000002090+Z
202816001202816304-001011     202816006001023806727FLWR ROSE RED W/BEAR   0000003000+00000613+00000+0001T   00000788+0006471801          1400 FK7510               1AZ
202817000202817               202817               170213BW     1400+00000+BW0000005260+0000005260+000000000+000000738+0000005998+0000000000+I40000005998+0000000000+Z
202817001202817079-013032-D   202817006003000389643RIBBONS                0000001000+00002630+00000+0001T   00002630+0000001802          1400 FK7130               1AZ
202817002202817077-000512     202817006003000590223GIFT-BAG DESIGNER LRG  0000001000+00002630+00000+0001T   00002630+0000001802          1400 FK7112               1AZ
202818000202818               202818               170213BW     1400+00000+BW0000001227+0000001227+000000000+000000172+0000001390+0000000009+I20000000000+0000001390+Z
202818001202818077-000322     202818006001023677532GIFT-BAG 18X23CM E/D FL0000001000+00001227+00000+0001T   00001227+0000001803          1400 FK7112               1AZ
A17021300                                          13205027BWSLAVE 1                       FK71IC
M17021391                              CASH        BWSLAVE 1                       Z-REPORT No.   649TOTAL (Sales - Refunds)           4161.21       CASH TO BE BANKED                 2165.40       DEBIT CARDS                          0.00       CREDIT CARDS                      1995.81       Z-READING                         4161.21       AIRTIME DEBIT CARD SALES             0.00       AIRTIME CARD SALES                   0.00       OVERS/UNDERS                         0.00       AIRTIME CASH SALES                   0.00       GIFT CARDS                           0.00       GIFT CARD CASH SALES                 0.00       T O T A L  CASH PAYOUTS              0.00                                                                                                                                                                                                                                                                                                                                                      Z
M17021392                              CASH        BWABSENT                                                                                                                                                                                          ANNUAL LEAVE                                                                                                                                                                                    DAY OFF                                                                                                                                                                                         COMMENTS                                                                                                                                                                                                                                                                                                                                                                                       Z
Y17021300                                          BW00000000370490+000059
ZBW17021319233 SLAVE 1      SALES DATA                     NEXT INVOICE NO.  202819 0649
F093772496-028604         1701131124430000022ICSLAVE 1
F093772496-057489         1701131124430000032ICSLAVE 1
F094055496-028120         1701251420000000021ICSLAVE 1
X BW Slave 1 First invoice 202760 170213 Last invoice 202818 170213 Next invoice 202819 Total number of records 000000214 clbackup completed 19:23:14
