301945000301945               301945               170213BW     1400+00000+BW0000000964+0000000964+000000000+000000135+0000001099+0000000000+I40000001099+0000000000+Z
301945001301945028-000795     301945006001023812063SKEWERS 10cm 100PCE 3mm0000001000+00000964+00000+0001T   00000964+0000000947          1400 A18305               2AZ
301946000301946               301946               170213BW     1400+00000+BW0000006083+0000006083+000000000+000000853+0000006936+0000000000+I40000006936+0000000000+Z
301946001301946079-006496     301946006003000160105GLITTER SHAKERS        0000001000+00001753+00000+0001T   00001753+0000000949          1400 A18130               2AZ
301946002301946112-116038     301946006009681820246TCS CARRIER BAG MIDI   0000001000+00000035+00000+0001T   00000035+0000000949          1400 A18090               2AZ
301946003301946079-013102     301946006003000019601ART+CRAFT DIY PIPE-CLNR0000001000+00002192+00000+0001T   00002192+0000000949          1400 A18130               2AZ
301946004301946076-000017     301946006003000149049TWINE COTTON 50g-BALL  0000001000+00000876+00000+0001T   00000876+0000000949          1400 A18810               2AZ
301946005301946071-081091     301946006001151010287STAED/GENKEM ALL-STICK 0000001000+00001227+00000+0001T   00001227+0000000949          1400 A18130               2AZ
301947000301947               301947               170213BW     1400+00000+BW0000005294+0000005294+000000000+000000743+0000006037+0000000000+I40000006037+0000000000+Z
301947001301947903-000520     301947006001704009898SWT GUMMY MINI SOUR 60g0000001000+00000876+00000+0001T   00000876+0000001020          1400 A18150               2AZ
301947002301947112-116038     301947006009681820246TCS CARRIER BAG MIDI   0000001000+00000035+00000+0001T   00000035+0000001020          1400 A18090               2AZ
301947003301947206-000450     301947006003000619863DRINKING JAR GLOBE     0000001000+00002630+00000+0001T   00002630+0000001020          1400 A18321               2AZ
301947004301947077-000115     301947000013994116756WRAP METALLIC 700mmx1m 0000001000+00001753+00000+0001T   00001753+0000001020          1400 A18112               2AZ
301948000301948               301948               170213BW     1400+00000+BW0000001578+0000001578+000000000+000000221+0000001790+0000000009+I20000000000+0000001790+Z
301948001301948018-000127     301948006001023380289MUG OCC STRAIGHT LOVE  0000001000+00001578+00000+0001T   00001753+0006471031          1400 A18515               2AZ
301949000301949               301949               170213BW     1400+00000+BW0000000035+0000000035+000000000+000000005+0000000040+0000000000+I20000000000+0000000040+Z
301949001301949112-116038     301949006009681820246TCS CARRIER BAG MIDI   0000001000+00000035+00000+0001T   00000035+0000001032          1400 A18090               2AZ
301950000301950               301950               170213BW     1400+00000+BW0000016711+0000016711+000000000+000002341+0000019052+0000000000+I40000019052+0000000000+Z
301950001301950003-008015     301950006001023764898ORN GNOME IN WHEEL 12CM0000001000+00005262+00000+0001T   00005262+0000001057          1400 A18505               2AZ
301950002301950112-116069     301950006009681820277TCS CARRIER BAG JUMBO  0000001000+00000048+00000+0001T   00000048+0000001057          1400 A18090               2AZ
301950003301950266-001025     301950006003000108756BOYS TOYS SWORD 75cm   0000001000+00005262+00000+0001T   00005262+0000001057          1400 A18710               2AZ
301950004301950366-001101     301950006003000006991DRESS UP BOYS ASSTD    0000001000+00006139+00000+0001T   00006139+0000001057          1400 A18131               2AZ
301951000301951               301951               170213BW     1400+00000+BW0000007015+0000007015+000000000+000000983+0000007998+0000000000+I40000007998+0000000000+Z
301951001301951263-000504     301951006001023790590TRACTOR+TRAILER 30cm   0000001000+00005262+00000+0001T   00005262+0000001059          1400 A18710               2AZ
301951002301951072-000327     301951006001023858504CAT-COLLAR+BELL        0000001000+00001753+00000+0001T   00001753+0000001059          1400 A18870               2AZ
301952000301952               301952               170213BW     1400+00000+BW0000002630+0000002630+000000000+000000369+0000002990+0000000009+I20000000000+0000002990+Z
301952001301952105-006004     301952006002580007763CANNISTER 3PCE    250ml0000001000+00002630+00000+0001T   00002630+0000001100          1400 A18210               2AZ
301953000301953               301953               170213BW     1400+00000+BW0000011450+0000011450+000000000+000001604+0000013054+0000000000+I40000013054+0000000000+Z
301953001301953368-000637     301953006001023874092PLUSH BEAR SLEEPING LOV0000001000+00011402+00000+0001T   00012279+0006471119          1400 A18745               2AZ
301953002301953112-116069     301953006009681820277TCS CARRIER BAG JUMBO  0000001000+00000048+00000+0001T   00000048+0000001119          1400 A18090               2AZ
301954000301954               301954               170213BW     1400+00000+BW0000002630+0000002630+000000000+000000369+0000002990+0000000009+I20000000000+0000002990+Z
301954001301954071-001124     301954006001023802873MARKERS WHITEBOARD 3PCE0000001000+00002630+00000+0001T   00002630+0000001121          1400 A18130               2AZ
301955000301955               301955               170213BW     1400+00000+BW0000001753+0000001753+000000000+000000246+0000001990+0000000009+I20000000000+0000001990+Z
301955001301955077-000240     301955006003000326259G/RIBBON 4PC PEARLIZED 0000001000+00001753+00000+0001T   00001753+0000001142          1400 A18112               2AZ
301956000301956               301956               170213BW     1400+00000+BW0000002659+0000002659+000000000+000000373+0000003030+0000000002+I20000000000+0000003030+Z
301956001301956112-116038     301956006009681820246TCS CARRIER BAG MIDI   0000001000+00000035+00000+0001T   00000035+0000001149          1400 A18090               2AZ
301956002301956566-002000     301956000721129013206STICKERS CRYSTAL ASSTD 0000002000+00000700+00000+0001T   00000700+0000001149          1400 A18130               2AZ
301956004301956079-009700-D   301956006003000545711PAPER SIRIO A4 RED COL.0000004000+00000306+00000+0001T   00000306+0000001149          1400 A18130               2AZ
301957000301957               301957               170213BW     1400+00000+BW0000007452+0000007452+000000000+000001045+0000008497+0000000000+I40000008497+0000000000+Z
301957001301957200-000010     301957006925406841061BAG ZIPPERSEAL 35PC    0000001000+00002192+00000+0001T   00002192+0000001159          1400 A18214               2AZ
301957002301957077-000512     301957006003000590223GIFT-BAG DESIGNER LRG  0000002000+00002630+00000+0001T   00002630+0000001159          1400 A18112               2AZ
301958000301958               301958               170213BW     1400+00000+BW0000006608+0000006608+000000000+000000927+0000007535+0000000000+I40000007535+0000000000+Z
301958001301958080-000133-A   301958006003000647019MINI VALENTINES CARD   0000001000+00000437+00000+0001T   00000437+0000001220          1400 A18112               2AZ
301958002301958018-000170     301958006001023775528MUG OCC. LOVE 2PC MINI 0000001000+00002192+00000+0001T   00002192+0000001220          1400 A18515               2AZ
301958003301958080-000124     301958006003000297733CARD & ENV VALENTINES  0000001000+00001578+00000+0001T   00001578+0000001220          1400 A18112               2AZ
301958004301958077-000452     301958006003000284986G/BAG METALLIC MED EMB 0000001000+00001490+00000+0001T   00001490+0000001220          1400 A18112               2AZ
301958005301958077-000011-C   301958006001023808523TISSUE 10xSHTS RED     0000001000+00000876+00000+0001T   00000876+0000001220          1400 A18112               2AZ
301958006301958112-116038     301958006009681820246TCS CARRIER BAG MIDI   0000001000+00000035+00000+0001T   00000035+0000001220          1400 A18090               2AZ
301959000301959               301959               170213BW     1400+00000+BW0000010992+0000010992+000000000+000001541+0000012530+0000000003+I20000000000+0000012530+Z
301959001301959112-116038     301959006009681820246TCS CARRIER BAG MIDI   0000001000+00000035+00000+0001T   00000035+0000001239          1400 A18090               2AZ
301959002301959206-000430     301959006003000619627MUG COLOUR CHANGING    0000001000+00006139+00000+0001T   00006139+0000001239          1400 A18321               2AZ
301959003301959077-000115     301959006001023834225WRAP METALLIC 700mmx1m 0000001000+00001753+00000+0001T   00001753+0000001239          1400 A18112               2AZ
301959004301959080-000133-A   301959006003000647019MINI VALENTINES CARD   0000001000+00000437+00000+0001T   00000437+0000001239          1400 A18112               2AZ
301959005301959565-000892-A   301959006003000690725NOVELTY FUN BALL       0000002000+00001314+00000+0001T   00001753+0008141239          1400 A18745               2AZ
301960000301960               301960               170213BW     1400+00000+BW0000002192+0000002192+000000000+000000307+0000002490+0000000009+I20000000000+0000002490+Z
301960001301960018-000170     301960006001023775528MUG OCC. LOVE 2PC MINI 0000001000+00002192+00000+0001T   00002192+0000001243          1400 A18515               2AZ
301961000301961               301961               170213BW     1400+00000+BW0000000035+0000000035+000000000+000000005+0000000040+0000000000+I20000000000+0000000040+Z
301961001301961112-116038     301961006009681820246TCS CARRIER BAG MIDI   0000001000+00000035+00000+0001T   00000035+0000001244          1400 A18090               2AZ
301962000301962               301962               170213BW     1400+00000+BW0000000876+0000000876+000000000+000000123+0000000990+0000000009+I20000000000+0000000990+Z
301962001301962903-000220     301962006001704007368SWT JELLY BEANS 60G    0000001000+00000876+00000+0001T   00000876+0000001249          1400 A18150               2AZ
301963000301963               301963               170213BW     1400+00000+BW0000000525+0000000525+000000000+000000074+0000000590+0000000009+I20000000000+0000000590+Z
301963001301963903-000155     301963006009803374435SWT LOLLY I LUV U HEART0000001000+00000525+00000+0001T   00000525+0000001255          1400 A18150               2AZ
301964000301964               301964               170213BW     1400+00000+BW0000001753+0000001753+000000000+000000246+0000001990+0000000009+I20000000000+0000001990+Z
301964001301964071-081103     301964006003000197002GLUE STICKS LIQUID 3PCE0000001000+00001753+00000+0001T   00001753+0000001258          1400 A18130               2AZ
301965000301965               301965               170213BW     1400+00000+BW0000009733+0000009733+000000000+000001364+0000011097+0000000000+I40000011097+0000000000+Z
301965001301965301-085007     301965006003000673698ORN OCC. LOVE S/PLAQUE 0000001000+00007893+00000+0001T   00007893+0000001304          1400 A18505               2AZ
301965002301965083-000055     301965006003000003853LIGHTER ELCTRNC REFILBL0000001000+00000613+00000+0001T   00000613+0000001304          1400 A18315               2AZ
301965003301965077-000322     301965006001023677532GIFT-BAG 18X23CM E/D FL0000001000+00001227+00000+0001T   00001227+0000001304          1400 A18112               2AZ
301966000301966               301966               170213BW     1400+00000+BW0000005084+0000005084+000000000+000000712+0000005790+0000000006+I20000000000+0000005790+Z
301966001301966903-000843     301966008693029031067SWT GUMMY JELAXY 80G   0000002000+00000964+00000+0001T   00000964+0000001306          1400 A18150               2AZ
301966002301966018-000127     301966006001023380289MUG OCC STRAIGHT LOVE  0000002000+00001578+00000+0001T   00001753+0006471306          1400 A18515               2AZ
301967000301967               301967               170213BW     1400+00000+BW0000005819+0000005819+000000000+000000816+0000006635+0000000000+I40000006635+0000000000+Z
301967001301967077-000452     301967006003000284986G/BAG METALLIC MED EMB 0000001000+00001490+00000+0001T   00001490+0000001311          1400 A18112               2AZ
301967002301967039-000108     301967006001023524034TEA-LITE CANDLES 8PCE  0000002000+00001490+00000+0001T   00001490+0000001311          1400 A18510               2AZ
301967003301967080-000114     301967006003000246472CARD&ENV LOVE-MUSICAL  0000001000+00001314+00000+0001T   00001753+0008151311          1400 A18112               2AZ
301967004301967112-116038     301967006009681820246TCS CARRIER BAG MIDI   0000001000+00000035+00000+0001T   00000035+0000001311          1400 A18090               2AZ
301968000301968               301968               170213BW     1400+00000+BW0000006173+0000006173+000000000+000000865+0000007030+0000000008+I20000000000+0000007030+Z
301968001301968077-000151     301968006008766114676GIFT-WRAP C/PHANE ASSTD0000001000+00000876+00000+0001T   00000876+0000001418          1400 A18112               2AZ
301968002301968112-116038     301968006009681820246TCS CARRIER BAG MIDI   0000001000+00000035+00000+0001T   00000035+0000001418          1400 A18090               2AZ
301968003301968018-019000     301968006003000557288MUG OCC. LOVE JUMBO    0000001000+00005262+00000+0001T   00005262+0000001418          1400 A18515               2AZ
301969000301969               301969               170213BW     1400+00000+BW0000009063+0000009063+000000000+000001271+0000010334+0000000000+I40000010334+0000000000+Z
301969001301969903-000843     301969008693029031067SWT GUMMY JELAXY 80G   0000001000+00000964+00000+0001T   00000964+0000001424          1400 A18150               2AZ
301969002301969903-000155     301969006009803374435SWT LOLLY I LUV U HEART0000002000+00000525+00000+0001T   00000525+0000001424          1400 A18150               2AZ
301969003301969001-000175     301969006001023788108B/MUG GLS LOVE 380ML   0000001000+00004385+00000+0001T   00004385+0000001424          1400 A18515               2AZ
301969004301969112-116038     301969006009681820246TCS CARRIER BAG MIDI   0000001000+00000035+00000+0001T   00000035+0000001424          1400 A18090               2AZ
301969005301969077-000914     301969006003000413454G/WRAP 700mmx2m ANIMAL 0000001000+00002192+00000+0001T   00002192+0000001424          1400 A18112               2AZ
301969006301969080-000133-A   301969006003000647019MINI VALENTINES CARD   0000001000+00000437+00000+0001T   00000437+0000001424          1400 A18112               2AZ
301970000301970               301970               170213BW     1400+00000+BW0000009430+0000009430+000000000+000001322+0000010750+0000000002+I20000000000+0000010750+Z
301970001301970112-116069     301970006009681820277TCS CARRIER BAG JUMBO  0000001000+00000048+00000+0001T   00000048+0000001440          1400 A18090               2AZ
301970002301970080-000116     301970006003000253555CARD&ENVELOPE-HANDMADE 0000001000+00001753+00000+0001T   00001753+0000001440          1400 A18112               2AZ
301970003301970002-000878     301970006001023770967STRAINER TEA WIRE 7cm  0000001000+00001490+00000+0001T   00001490+0000001440          1400 A18300               2AZ
301970004301970031-000860-C   301970006001023798237P/FRAME PL ANTIQUE-BLK 0000001000+00006139+00000+0001T   00006139+0000001440          1400 A18510               2AZ
301971000301971               301971               170213BW     1400+00000+BW0000001753+0000001753+000000000+000000246+0000001990+0000000009+I20000000000+0000001990+Z
301971001301971047-000012     301971006002521079279PLUG 1x16A+2x5A-2PIN   0000001000+00001753+00000+0001T   00001753+0000001454          1400 A18880               2AZ
301972000301972               301972               170213BW     1400+00000+BW0000003857+0000003857+000000000+000000541+0000004390+0000000008+I20000000000+0000004390+Z
301972001301972567-075466     301972009780263253672BK NOVEL ROMANCE       0000001000+00002630+00000+0001T   00002630+0000001457          1400 A18757               2AZ
301972002301972206-000630     301972006003000631919SPECTACLE CLEANING BRUS0000001000+00001227+00000+0001T   00001227+0000001457          1400 A18321               2AZ
301973000301973               301973               170213BW     1400+00000+BW0000006659+0000006659+000000000+000000936+0000007590+0000000005+I20000000000+0000007590+Z
301973001301973006-000802     301973006003000653553STREAMERS 5-ROLLS 2.5cm0000002000+00001753+00000+0001T   00001753+0000001501          1400 A18131               2AZ
301973002301973079-009702-D   301973008427973059354PAPER SIRIO A2 RED COL 0000003000+00001051+00000+0001T   00001051+0000001501          1400 A18130               2AZ
301974000301974               301974               170213BW     1400+00000+BW0000004782+0000004782+000000000+000000670+0000005452+0000000000+I40000005452+0000000000+Z
301974001301974018-000127     301974006001023380289MUG OCC STRAIGHT LOVE  0000003000+00001578+00000+0001T   00001753+0006471507          1400 A18515               2AZ
301974002301974112-116069     301974006009681820277TCS CARRIER BAG JUMBO  0000001000+00000048+00000+0001T   00000048+0000001507          1400 A18090               2AZ
301975000301975               301975               170213BW     1400+00000+BW0000005260+0000005260+000000000+000000738+0000005990+0000000008+I20000000000+0000005990+Z
301975001301975051-600655     301975006003000422067PLANTER W/TRAY 20x20x160000002000+00002630+00000+0001T   00002630+0000001508          1400 A18820               2AZ
301976000301976               301976               170213BW     1400+00000+BW0000005612+0000005612+000000000+000000786+0000006398+0000000000+I40000006398+0000000000+Z
301976001301976001-000175     301976006001023788108B/MUG GLS LOVE 380ML   0000001000+00004385+00000+0001T   00004385+0000001515          1400 A18515               2AZ
301976002301976077-000319     301976006001023609779GIFT-BAG 18X23CM BIRTHD0000001000+00001227+00000+0001T   00001227+0000001515          1400 A18112               2AZ
301977000301977               301977               170213BW     1400+00000+BW0000002015+0000002015+000000000+000000283+0000002290+0000000008+I20000000000+0000002290+Z
301977001301977080-000133     301977006003000535613CARD&ENV MINI ASTD DSGN0000001000+00000437+00000+0001T   00000437+0000001517          1400 A18112               2AZ
301977002301977566-001234     301977006003000217793STICKERS LASER ASSTD   0000001000+00001578+00000+0001T   00001578+0000001517          1400 A18130               2AZ
301978000301978               301978               170213BW     1400+00000+BW0000002192+0000002192+000000000+000000307+0000002490+0000000009+I20000000000+0000002490+Z
301978001301978493-059050     301978000078257590506BEACH-BALL 61cm LIVELY 0000001000+00002192+00000+0001T   00002192+0000001521          1400 A18787               2AZ
301979000301979               301979               170213BW     1400+00000+BW0000015378+0000015378+000000000+000002156+0000017534+0000000000+I40000017534+0000000000+Z
301979001301979112-116038     301979006009681820246TCS CARRIER BAG MIDI   0000001000+00000035+00000+0001T   00000035+0000001526          1400 A18090               2AZ
301979002301979200-003026     301979006003000276448REFUSE BAGS 10PCE GREEN0000001000+00001753+00000+0001T   00001753+0000001526          1400 A18214               2AZ
301979003301979567-075497     301979009780799369526BK NOVEL ROMANCE AFR   0000001000+00006139+00000+0001T   00006139+0000001526          1400 A18757               2AZ
301979004301979565-000002     301979006003000308071NOVELTY GROWING ANIMALS0000002000+00001753+00000+0001T   00001753+0000001526          1400 A18745               2AZ
301979005301979493-059050     301979000078257590506BEACH-BALL 61cm LIVELY 0000001000+00002192+00000+0001T   00002192+0000001526          1400 A18787               2AZ
301979006301979133-000381     301979006001023713674TABLE-CLOTH 132x178cm  0000001000+00001753+00000+0001T   00001753+0000001526          1400 A18212               2AZ
301980000301980               301980               170213BW     1400+00000+BW0000002451+0000002451+000000000+000000345+0000002790+0000000006+I20000000000+0000002790+Z
301980001301980903-000155     301980006009803374435SWT LOLLY I LUV U HEART0000003000+00000525+00000+0001T   00000525+0000001526          1400 A18150               2AZ
301980002301980566-000200     301980006003000384174STICKER PUFFY NEON     0000001000+00000876+00000+0001T   00000876+0000001526          1400 A18130               2AZ
301981000301981               301981               170213BW     1400+00000+BW0000003069+0000003069+000000000+000000430+0000003499+0000000000+I40000003499+0000000000+Z
301981001301981024-000212     301981006001023858030COOKIE-CUTTERS PL SMALL0000001000+00003069+00000+0001T   00003069+0000001528          1400 A18300               2AZ
301982000301982               301982               170213BW     1400+00000+BW0000001578+0000001578+000000000+000000221+0000001799+0000000000+I40000001799+0000000000+Z
301982001301982080-000124     301982006003000297733CARD & ENV VALENTINES  0000001000+00001578+00000+0001T   00001578+0000001530          1400 A18112               2AZ
301983000301983               301983               170213BW     1400+00000+BW0000003100+0000003100+000000000+000000435+0000003530+0000000005+I20000000000+0000003530+Z
301983001301983112-116038     301983006009681820246TCS CARRIER BAG MIDI   0000001000+00000035+00000+0001T   00000035+0000001530          1400 A18090               2AZ
301983002301983566-020157     301983006001023889157STICKERS VELVET ANIMALS0000001000+00000613+00000+0001T   00000613+0000001530          1400 A18130               2AZ
301983003301983566-000200     301983006003000384174STICKER PUFFY NEON     0000002000+00000876+00000+0001T   00000876+0000001530          1400 A18130               2AZ
301983004301983566-002000     301983000721129013206STICKERS CRYSTAL ASSTD 0000001000+00000700+00000+0001T   00000700+0000001530          1400 A18130               2AZ
301984000301984               301984               170213BW     1400+00000+BW0000006401+0000006401+000000000+000000897+0000007290+0000000008+I20000000000+0000007290+Z
301984001301984903-000087     301984006001704000161SWT SPECKLED-EGGS 50G  0000001000+00001139+00000+0001T   00001139+0000001531          1400 A18150               2AZ
301984002301984082-000122-B   301984006003000403554R/GLASS STRENGTH:1.5   0000001000+00005262+00000+0001T   00005262+0000001531          1400 A18160               2AZ
301985000301985               301985               170213BW     1400+00000+BW0000000436+0000000436+000000000+000000062+0000000490+0000000008+I20000000000+0000000490+Z
301985001301985903-000670     301985006009803358008SWT SHERBET RED LIPS   0000001000+00000218+00000+0001T   00000218+0000001532          1400 A18150               2AZ
301985002301985903-000671     301985006009803358015SWT SHERBET BLUE LIPS  0000001000+00000218+00000+0001T   00000218+0000001532          1400 A18150               2AZ
301986000301986               301986               170213BW     1400+00000+BW0000001613+0000001613+000000000+000000226+0000001830+0000000009+I20000000000+0000001830+Z
301986001301986018-000127     301986006001023380289MUG OCC STRAIGHT LOVE  0000001000+00001578+00000+0001T   00001753+0006471533          1400 A18515               2AZ
301986002301986112-116038     301986006009681820246TCS CARRIER BAG MIDI   0000001000+00000035+00000+0001T   00000035+0000001533          1400 A18090               2AZ
301987000301987               301987               170213BW     1400+00000+BW0000005261+0000005261+000000000+000000737+0000005990+0000000008+I20000000000+0000005990+Z
301987001301987089-060027     301987006003000245871KEY-CHAIN HEART 6X6cm  0000001000+00003069+00000+0001T   00003069+0000001538          1400 A18205               2AZ
301987002301987566-000359     301987006003000582709STICKER BOOK LOVE SPARK0000001000+00002192+00000+0001T   00002192+0000001538          1400 A18130               2AZ
301988000301988               301988               170213BW     1400+00000+BW0000006139+0000006139+000000000+000000860+0000006990+0000000009+I20000000000+0000006990+Z
301988001301988007-000890-17  301988006003000645671CALENDAR 2017 ASSTD    0000001000+00006139+00000+0001T   00006139+0000001543          1400 A18130               2AZ
301989000301989               301989               170213BW     1400+00000+BW0000000437+0000000437+000000000+000000062+0000000490+0000000009+I20000000000+0000000490+Z
301989001301989080-000133-A   301989006003000647019MINI VALENTINES CARD   0000001000+00000437+00000+0001T   00000437+0000001544          1400 A18112               2AZ
301990000301990               301990               170213BW     1400+00000+BW0000007664+0000007664+000000000+000001074+0000008738+0000000000+I40000008738+0000000000+Z
301990001301990159-000114     301990006001023507945SHOWER CAP PVC ASSTD   0000001000+00001490+00000+0001T   00001490+0000001547          1400 A18200               2AZ
301990002301990567-075470     301990006003000643264BK NOVEL CATEGORY B    0000001000+00006139+00000+0001T   00006139+0000001547          1400 A18757               2AZ
301990003301990112-116038     301990006009681820246TCS CARRIER BAG MIDI   0000001000+00000035+00000+0001T   00000035+0000001547          1400 A18090               2AZ
301991000301991               301991               170213BW     1400+00000+BW0000003156+0000003156+000000000+000000442+0000003590+0000000008+I20000000000+0000003590+Z
301991001301991566-001234     301991006003000217793STICKERS LASER ASSTD   0000002000+00001578+00000+0001T   00001578+0000001548          1400 A18130               2AZ
301992000301992               301992               170213BW     1400+00000+BW0000010585+0000010585+000000000+000001488+0000012070+0000000003+I20000000000+0000012070+Z
301992001301992112-116038     301992006009681820246TCS CARRIER BAG MIDI   0000001000+00000035+00000+0001T   00000035+0000001551          1400 A18090               2AZ
301992002301992566-001234     301992006003000217793STICKERS LASER ASSTD   0000001000+00001578+00000+0001T   00001578+0000001551          1400 A18130               2AZ
301992003301992566-000359     301992006003000582709STICKER BOOK LOVE SPARK0000001000+00002192+00000+0001T   00002192+0000001551          1400 A18130               2AZ
301992004301992079-009700-M   301992006003000634101PAPER SIRIO A4 PINK COL0000003000+00000306+00000+0001T   00000306+0000001551          1400 A18130               2AZ
301992005301992079-009700-F   301992006003000545872PAPER SIRIO A4 TURQ COL0000002000+00000306+00000+0001T   00000306+0000001551          1400 A18130               2AZ
301992006301992903-000151     301992006009803374411SWT SML RND R/BOW LOLLY0000010000+00000525+00000+0001T   00000525+0000001551          1400 A18150               2AZ
301993000301993               301993               170213BW     1400+00000+BW0000006836+0000006836+000000000+000000958+0000007794+0000000000+I40000007794+0000000000+Z
301993001301993077-000312     301993006001023608697GIFT-BAG 10X35CM GLOSS 0000002000+00001314+00000+0001T   00001314+0000001553          1400 A18112               2AZ
301993002301993903-000095     301993006001704011495SWT SPECKLED-EGGS 100G 0000002000+00002104+00000+0001T   00002104+0000001553          1400 A18150               2AZ
301994000301994               301994               170213BW     1400+00000+BW0000009988+0000009988+000000000+000001402+0000011390+0000000000+I40000011390+0000000000+Z
301994001301994903-000095     301994006001704011495SWT SPECKLED-EGGS 100G 0000002000+00002104+00000+0001T   00002104+0000001555          1400 A18150               2AZ
301994002301994077-000312     301994006001023608697GIFT-BAG 10X35CM GLOSS 0000002000+00001314+00000+0001T   00001314+0000001555          1400 A18112               2AZ
301994003301994903-000151     301994006009803374411SWT SML RND R/BOW LOLLY0000002000+00000525+00000+0001T   00000525+0000001555          1400 A18150               2AZ
301994004301994903-002850     301994000000087108262MENTOS ROLL FRUIT      0000002000+00001051+00000+0001T   00001051+0000001555          1400 A18150               2AZ
301995000301995               301995               170213BW     1400+00000+BW0000003680+0000003680+000000000+000000517+0000004190+0000000007+I20000000000+0000004190+Z
301995001301995903-000151     301995006009803374411SWT SML RND R/BOW LOLLY0000002000+00000525+00000+0001T   00000525+0000001555          1400 A18150               2AZ
301995002301995124-000001     301995000738380781690STORAGE TIN TISSUE     0000001000+00002630+00000+0001T   00003507+0008171555          1400 A18300               2AZ
301996000301996               301996               170213BW     1400+00000+BW0000009063+0000009063+000000000+000001270+0000010333+0000000000+I40000010333+0000000000+Z
301996001301996112-116038     301996006009681820246TCS CARRIER BAG MIDI   0000001000+00000035+00000+0001T   00000035+0000001600          1400 A18090               2AZ
301996002301996903-000155     301996006009803374435SWT LOLLY I LUV U HEART0000001000+00000525+00000+0001T   00000525+0000001600          1400 A18150               2AZ
301996003301996018-000130     301996006001023867537MUG OCC LOVE MINI+HEART0000001000+00003507+00000+0001T   00003507+0000001600          1400 A18515               2AZ
301996004301996304-001011     301996006001023806727FLWR ROSE RED W/BEAR   0000001000+00000613+00000+0001T   00000788+0006471600          1400 A18510               2AZ
301996005301996903-000598     301996006003000607990SWEET CRAYON 15cm J/B  0000001000+00001314+00000+0001T   00001314+0000001600          1400 A18150               2AZ
301996006301996089-060027     301996006003000245871KEY-CHAIN HEART 6X6cm  0000001000+00003069+00000+0001T   00003069+0000001600          1400 A18205               2AZ
301997000301997               301997               170213BW     1400+00000+BW0000004385+0000004385+000000000+000000614+0000004990+0000000009+I20000000000+0000004990+Z
301997001301997006-000190     301997006003000685530BALLOONS LOVE 81x91cm  0000001000+00004385+00000+0001T   00004385+0000001600          1400 A18131               2AZ
301998000301998               301998               170213BW     1400+00000+BW0000004385+0000004385+000000000+000000614+0000004990+0000000009+I20000000000+0000004990+Z
301998001301998006-000190     301998006003000685530BALLOONS LOVE 81x91cm  0000001000+00004385+00000+0001T   00004385+0000001601          1400 A18131               2AZ
301999000301999               301999               170213BW     1400+00000+BW0000004385+0000004385+000000000+000000614+0000004990+0000000009+I20000000000+0000004990+Z
301999001301999006-000190     301999006003000685530BALLOONS LOVE 81x91cm  0000001000+00004385+00000+0001T   00004385+0000001601          1400 A18131               2AZ
302000000302000               302000               170213BW     1400+00000+BW0000004385+0000004385+000000000+000000614+0000004990+0000000009+I20000000000+0000004990+Z
302000001302000006-000190     302000006003000685530BALLOONS LOVE 81x91cm  0000001000+00004385+00000+0001T   00004385+0000001602          1400 A18131               2AZ
302001000302001               302001               170213BW     1400+00000+BW0000017540-0000017540-000000000+000002456-0000020000-0000000004+I20000000000+0000020000-Z
302001001302001006-000190     302001006003000685530BALLOONS LOVE 81x91cm  0000004000-00004385+00000+0001T   00004385+0000001604          1400 A181311IC            2 Z
302002000302002               302002               170213BW     1400+00000+BW0000018460+0000018460+000000000+000002587+0000021047+0000000000+I40000021047+0000000000+Z
302002001302002112-116069     302002006009681820277TCS CARRIER BAG JUMBO  0000001000+00000048+00000+0001T   00000048+0000001607          1400 A18090               2AZ
302002002302002368-000001     302002006003000097982Plush Bear 25cm        0000001000+00004385+00000+0001T   00004385+0000001607          1400 A18745               2AZ
302002003302002003-009202     302002006003000405725ORN STONE FLOWERPOT    0000001000+00002630+00000+0001T   00002630+0000001607          1400 A18505               2AZ
302002004302002007-000581     302002006001023710154NOTE-BOOK SET ASSTD    0000001000+00002630+00000+0001T   00002630+0000001607          1400 A18130               2AZ
302002005302002007-000589     302002006001023810120NOTES DIARY+KEY 50PG   0000001000+00003507+00000+0001T   00003507+0000001607          1400 A18130               2AZ
302002006302002077-000011-F   302002006001023808431TISSUE-WRAP BLUE/LILAC 0000001000+00000876+00000+0001T   00000876+0000001607          1400 A18112               2AZ
302002007302002077-000463     302002006003000321698G/BAG GLITTER MED20x28 0000002000+00002192+00000+0001T   00002192+0000001607          1400 A18112               2AZ
302003000302003               302003               170213BW     1400+00000+BW0000000437+0000000437+000000000+000000062+0000000490+0000000009+I20000000000+0000000490+Z
302003001302003080-000133-A   302003006003000647019MINI VALENTINES CARD   0000001000+00000437+00000+0001T   00000437+0000001609          1400 A18112               2AZ
302004000302004               302004               170213BW     1400+00000+BW0000003507+0000003507+000000000+000000491+0000003990+0000000008+I20000000000+0000003990+Z
302004001302004018-000136     302004006001023659026MUG OCC LOVE W/PLUSH   0000001000+00003507+00000+0001T   00003507+0000001611          1400 A18515               2AZ
302005000302005               302005               170213BW     1400+00000+BW0000003155+0000003155+000000000+000000443+0000003598+0000000000+I40000003598+0000000000+Z
302005001302005903-000095     302005006001704011495SWT SPECKLED-EGGS 100G 0000001000+00002104+00000+0001T   00002104+0000001616          1400 A18150               2AZ
302005002302005903-002851     302005000000087108538MENTOS ROLL STRAWBERRY 0000001000+00001051+00000+0001T   00001051+0000001616          1400 A18150               2AZ
302006000302006               302006               170213BW     1400+00000+BW0000006136+0000006136+000000000+000000861+0000006990+0000000007+I20000000000+0000006990+Z
302006001302006077-000235     302006006003000160211GIFT-RIBBON ROLL METALC0000001000+00002630+00000+0001T   00002630+0000001617          1400 A18112               2AZ
302006002302006079-003007     302006006003000448487A/TUBE 75ML BROWN      0000001000+00001753+00000+0001T   00001753+0000001617          1400 A18130               2AZ
302006003302006079-003000     302006006003000448838A/TUBE 75ML WHITE      0000001000+00001753+00000+0001T   00001753+0000001617          1400 A18130               2AZ
302007000302007               302007               170213BW     1400+00000+BW0000008627+0000008627+000000000+000001208+0000009835+0000000000+I40000009835+0000000000+Z
302007001302007112-116038     302007006009681820246TCS CARRIER BAG MIDI   0000001000+00000035+00000+0001T   00000035+0000001619          1400 A18090               2AZ
302007002302007566-001234     302007006003000217793STICKERS LASER ASSTD   0000001000+00001578+00000+0001T   00001578+0000001619          1400 A18130               2AZ
302007003302007016-006508     302007006003000618583S/JAR GLASS 10X12CM    0000002000+00003507+00000+0001T   00003507+0000001619          1400 A18300               2AZ
302008000302008               302008               170213BW     1400+00000+BW0000002628+0000002628+000000000+000000368+0000002996+0000000000+I40000002996+0000000000+Z
302008001302008071-003866     302008006003000590018PENCIL NOVELTY RULER   0000002000+00001314+00000+0001T   00001314+0000001622          1400 A18130               2AZ
302009000302009               302009               170213BW     1400+00000+BW0000007015+0000007015+000000000+000000983+0000007998+0000000000+I40000007998+0000000000+Z
302009001302009079-006495     302009006003000159987GLITTER SHAKERS 6PK    0000001000+00002630+00000+0001T   00002630+0000001624          1400 A18130               2AZ
302009002302009024-000118     302009006001023422316N/STICK C/PAN HEART    0000001000+00004385+00000+0001T   00004385+0000001624          1400 A18300               2AZ
302010000302010               302010               170213BW     1400+00000+BW0000012129+0000012129+000000000+000001702+0000013831+0000000000+I40000013831+0000000000+Z
302010001302010112-116038     302010006009681820246TCS CARRIER BAG MIDI   0000001000+00000035+00000+0001T   00000035+0000001635          1400 A18090               2AZ
302010002302010037-000004     302010006001023763679ASHTRAY PL TUB 8X11CM  0000001000+00001753+00000+0001T   00002192+0008191635          1400 A18515               2AZ
302010003302010903-000155     302010006009803374435SWT LOLLY I LUV U HEART0000003000+00000525+00000+0001T   00000525+0000001635          1400 A18150               2AZ
302010004302010903-000673     302010006009803358237SWT SHERBET GRAPE 4PK  0000001000+00000876+00000+0001T   00000876+0000001635          1400 A18150               2AZ
302010005302010040-000207     302010006003000673636C/HOLDER GLS COL. 9CM  0000001000+00001753+00000+0001T   00001753+0000001635          1400 A18510               2AZ
302010006302010039-809490     302010006003000292806CANDLE IN-HLD FLOWER   0000001000+00002630+00000+0001T   00003069+0008171635          1400 A18510               2AZ
302010007302010028-001999     302010006001023759535G/CHAIR-COVER 60x60x1100000001000+00003507+00000+0001T   00003507+0000001635          1400 A18305               2AZ
302011000302011               302011               170213BW     1400+00000+BW0000005204+0000005204+000000000+000000731+0000005930+0000000005+I20000000000+0000005930+Z
302011001302011089-060027     302011006003000245871KEY-CHAIN HEART 6X6cm  0000001000+00003069+00000+0001T   00003069+0000001636          1400 A18205               2AZ
302011002302011112-116038     302011006009681820246TCS CARRIER BAG MIDI   0000001000+00000035+00000+0001T   00000035+0000001636          1400 A18090               2AZ
302011003302011903-000155     302011006009803374435SWT LOLLY I LUV U HEART0000004000+00000525+00000+0001T   00000525+0000001636          1400 A18150               2AZ
302012000302012               302012               170213BW     1400+00000+BW0000007216+0000007216+000000000+000001013+0000008220+0000000009+I20000000000+0000008220+Z
302012001302012112-116038     302012006009681820246TCS CARRIER BAG MIDI   0000001000+00000035+00000+0001T   00000035+0000001638          1400 A18090               2AZ
302012002302012071-000677     302012006001023110282THUMB-TACKS            0000001000+00000876+00000+0001T   00000876+0000001638          1400 A18130               2AZ
302012003302012566-000006     302012006001023671189STICKER-BOOK DRESS-UP  0000001000+00002630+00000+0001T   00002630+0000001638          1400 A18130               2AZ
302012004302012007-000160     302012006009685857286NOTE-BOOK A5 SHORTHAND 0000001000+00001227+00000+0001T   00001227+0000001638          1400 A18130               2AZ
302012005302012079-009700-L   302012006003000546350PAPER SIRIO A4 YELLOW  0000003000+00000306+00000+0001T   00000306+0000001638          1400 A18130               2AZ
302012006302012079-009700-F   302012006003000545872PAPER SIRIO A4 TURQ COL0000003000+00000306+00000+0001T   00000306+0000001638          1400 A18130               2AZ
302012007302012079-009700-B   302012006003000547661PAPER SIRIO A4 WHITE   0000001000+00000306+00000+0001T   00000306+0000001638          1400 A18130               2AZ
302012008302012079-009700-G   302012006003000545957PAPER SIRIO A4 LIME COL0000001000+00000306+00000+0001T   00000306+0000001638          1400 A18130               2AZ
302013000302013               302013               170213BW     1400+00000+BW0000003242+0000003242+000000000+000000455+0000003690+0000000007+I20000000000+0000003690+Z
302013001302013903-000155     302013006009803374435SWT LOLLY I LUV U HEART0000002000+00000525+00000+0001T   00000525+0000001638          1400 A18150               2AZ
302013002302013301-006010     302013006001023861245ORN BEAR POLY W/JERSEY 0000001000+00002192+00000+0001T   00002192+0000001638          1400 A18505               2AZ
302014000302014               302014               170213BW     1400+00000+BW0000006752+0000006752+000000000+000000946+0000007690+0000000008+I20000000000+0000007690+Z
302014001302014368-000183     302014006003000668175PLUSH BEAR 15cm        0000001000+00005262+00000+0001T   00005262+0000001642          1400 A18745               2AZ
302014002302014077-000399     302014006003000139514GIFT BAG 18X23CM E/DAY 0000001000+00001490+00000+0001T   00001490+0000001642          1400 A18112               2AZ
302015000302015               302015               170213BW     1400+00000+BW0000010117+0000010117+000000000+000001418+0000011535+0000000000+I40000011535+0000000000+Z
302015001302015006-000107     302015006003000587872BALLOONS ITS BOY/GIRL  0000001000+00001753+00000+0001T   00001753+0000001653          1400 A18131               2AZ
302015002302015566-000359     302015006003000582709STICKER BOOK LOVE SPARK0000001000+00002192+00000+0001T   00002192+0000001653          1400 A18130               2AZ
302015003302015031-005853     302015006003000442416P/FRAME WDN TWIN HEARTS0000001000+00003507+00000+0001T   00003507+0000001653          1400 A18510               2AZ
302015004302015124-002023     302015006003000367252BISCUIT TIN HEART SHAPE0000001000+00002630+00000+0001T   00003507+0008171653          1400 A18300               2AZ
302015005302015112-116038     302015006009681820246TCS CARRIER BAG MIDI   0000001000+00000035+00000+0001T   00000035+0000001653          1400 A18090               2AZ
302016000302016               302016               170213BW     1400+00000+BW0000006836-0000006836-000000000+000000958-0000007794-0000000000+I40000007794-0000000000+Z
302016001302016077-000312     302016006001023608697GIFT-BAG 10X35CM GLOSS 0000001000-00001314+00000+0001T   00001314+0000001656          1400 A181122IC            2 Z
302016002302016903-000095     302016006001704011495SWT SPECKLED-EGGS 100G 0000002000-00002104+00000+0001T   00002104+0000001656          1400 A181502IC            2 Z
302016003302016077-000312     302016006001023608697GIFT-BAG 10X35CM GLOSS 0000001000-00001314+00000+0001T   00001314+0000001656          1400 A181122IC            2 Z
302017000302017               302017               170213BW     1400+00000+BW0000003945+0000003945+000000000+000000553+0000004490+0000000008+I20000000000+0000004490+Z
302017001302017565-000015     302017006003000672035NOVELTY SLIME ANIMAL   0000001000+00002192+00000+0001T   00002192+0000001657          1400 A18745               2AZ
302017002302017565-000888     302017006003000607846NOVELTY MESH BALL      0000001000+00001753+00000+0001T   00001753+0000001657          1400 A18745               2AZ
302018000302018               302018               170213BW     1400+00000+BW0000001578+0000001578+000000000+000000221+0000001790+0000000009+I20000000000+0000001790+Z
302018001302018080-000124     302018006003000297733CARD & ENV VALENTINES  0000001000+00001578+00000+0001T   00001578+0000001705          1400 A18112               2AZ
302019000302019               302019               170213BW     1400+00000+BW0000002625+0000002625+000000000+000000370+0000002990+0000000005+I20000000000+0000002990+Z
302019001302019903-000155     302019006009803374435SWT LOLLY I LUV U HEART0000005000+00000525+00000+0001T   00000525+0000001708          1400 A18150               2AZ
302020000302020               302020               170213BW     1400+00000+BW0000002452+0000002452+000000000+000000345+0000002790+0000000007+I20000000000+0000002790+Z
302020001302020080-000124     302020006003000297733CARD & ENV VALENTINES  0000001000+00001578+00000+0001T   00001578+0000001709          1400 A18112               2AZ
302020002302020080-000133     302020006003000535613CARD&ENV MINI ASTD DSGN0000001000+00000437+00000+0001T   00000437+0000001709          1400 A18112               2AZ
302020003302020080-000133-A   302020006003000647019MINI VALENTINES CARD   0000001000+00000437+00000+0001T   00000437+0000001709          1400 A18112               2AZ
302021000302021               302021               170213BW     1400+00000+BW0000000437+0000000437+000000000+000000062+0000000490+0000000009+I20000000000+0000000490+Z
302021001302021080-000133     302021006003000535613CARD&ENV MINI ASTD DSGN0000001000+00000437+00000+0001T   00000437+0000001710          1400 A18112               2AZ
302022000302022               302022               170213BW     1400+00000+BW0000002364+0000002364+000000000+000000332+0000002690+0000000006+I20000000000+0000002690+Z
302022001302022903-004951     302022006002580020328SWT MALLOW MINI M/SHAKE0000001000+00001227+00000+0001T   00001227+0000001712          1400 A18150               2AZ
302022002302022018-000177     302022006001023797513MUG MINI LOVE ASSTD    0000001000+00000700+00000+0001T   00000700+0000001712          1400 A18515               2AZ
302022003302022080-000133     302022006003000535613CARD&ENV MINI ASTD DSGN0000001000+00000437+00000+0001T   00000437+0000001712          1400 A18112               2AZ
302023000302023               302023               170213BW     1400+00000+BW0000024162+0000024162+000000000+000003385+0000027547+0000000000+I40000027547+0000000000+Z
302023001302023112-116069     302023006009681820277TCS CARRIER BAG JUMBO  0000001000+00000048+00000+0001T   00000048+0000001730          1400 A18090               2AZ
302023002302023301-086006     302023006003000498918ORN OCCASION LOVE 4ASTD0000001000+00005262+00000+0001T   00005262+0000001730          1400 A18505               2AZ
302023003302023566-000359     302023006003000582709STICKER BOOK LOVE SPARK0000001000+00002192+00000+0001T   00002192+0000001730          1400 A18130               2AZ
302023004302023089-060027     302023006003000245871KEY-CHAIN HEART 6X6cm  0000001000+00003069+00000+0001T   00003069+0000001730          1400 A18205               2AZ
302023005302023046-000012-A   302023006003000208296BATTERIES H/POWER SZ:AA0000001000+00002192+00000+0001T   00002192+0000001730          1400 A18312               2AZ
302023006302023080-000139     302023006003000611690CARD & ENV MINI SET 6PC0000001000+00002192+00000+0001T   00002192+0000001730          1400 A18112               2AZ
302023007302023030-000031-A   302023006003000457588PLAQUE W/WORDS ASSTD   0000001000+00004385+00000+0001T   00004823+0006471730          1400 A18505               2AZ
302023008302023077-000916     302023006003000413577G/WRAP 700mmx2m BBY/KID0000001000+00002192+00000+0001T   00002192+0000001730          1400 A18112               2AZ
302023009302023089-000191     302023006003000430185KEY CHAIN BEAR 10CM    0000001000+00002630+00000+0001T   00002630+0000001730          1400 A18205               2AZ
A17021300                                          09294756BWSLAVE 2                       A182IC
B30195600                                          170213BW079-009700-D   11492561SLAVE 2     A182IC0000004000+0000002000+0000000000000+
B30195601                                          170213BW079-009700-D   11492660SLAVE 2     A182IC0000004000+0000003000+0000000000000+
C30195600                                          170213BW079-009702-D   11491731SLAVE 2     A182IC0000000000+0000000000+0030000004000+
M17021391                              CASH        BWSLAVE 2                       Z-REPORT No.   710TOTAL (Sales - Refunds)           4430.24       CASH TO BE BANKED                 1812.20       DEBIT CARDS                          0.00       CREDIT CARDS                      2618.04       Z-READING                         4430.24       AIRTIME DEBIT CARD SALES             0.00       AIRTIME CARD SALES                   0.00       OVERS/UNDERS                         0.00       AIRTIME CASH SALES                   0.00       GIFT CARDS                           0.00       GIFT CARD CASH SALES                 0.00       T O T A L  CASH PAYOUTS              0.00                                                                                                                                                                                                                                                                                                                                                      Z
M17021392                              CASH        BWABSENT                                                                                                                                                                                          ANNUAL LEAVE                                                                                                                                                                                    DAY OFF                                                                                                                                                                                         COMMENTS                                                                                                                                                                                                                                                                                                                                                                                       Z
Y17021300                                          BW00000000413230+000077
ZBW17021319233 SLAVE 2      SALES DATA                     NEXT INVOICE NO.  302024 0710
F093772496-028604         1701131130220000022ICSLAVE 2
F093772496-057489         1701131130220000032ICSLAVE 2
F094055496-028120         1701141010480000022ICSLAVE 2
X BW Slave 2 First invoice 301945 170213 Last invoice 302023 170213 Next invoice 302024 Total number of records 000000292 clbackup completed 19:23:17
