206016000206016               206016               170213BX     1400+00000+BX0000002630+0000002630+000000000+000000369+0000002990+0000000009+I20000000000+0000002990+Z
206016001206016105-003025     206016006001023594662CONTAINER RECT 28x19cm 0000001000+00002630+00000+0001T   00002630+0000000920          1400 RC4210               2BZ
206017000206017               206017               170213BX     1400+00000+BX0000003507+0000003507+000000000+000000491+0000003998+0000000000+I40000003998+0000000000+Z
206017001206017071-005667     206017006003000153060STAPLER SET MTL W/STPLS0000001000+00003507+00000+0001T   00003507+0000000942          1400 RC4130               2BZ
206018000206018               206018               170213BX     1400+00000+BX0000004385+0000004385+000000000+000000614+0000004999+0000000000+I40000004999+0000000000+Z
206018001206018082-000115     206018006003000360604READING GLS STRNGHT:2.50000001000+00004385+00000+0001T   00004385+0000000947          1400 RC4160               2BZ
206019000206019               206019               170213BX     1400+00000+BX0000005558+0000005558+000000000+000000779+0000006330+0000000007+I20000000000+0000006330+Z
206019001206019007-000046     206019006009635831366DISPLAY-BOOK PL A4 30PG0000001000+00002192+00000+0001T   00002192+0000001034          1400 RC4130               2BZ
206019002206019560-000700     206019006001023865830GROWING ANIMALS ASSTD  0000001000+00001578+00000+0001T   00001578+0000001034          1400 RC4745               2BZ
206019003206019566-000007     206019006001023761187S/BOOK SUPER VALUE     0000001000+00001753+00000+0001T   00001753+0000001034          1400 RC4130               2BZ
206019004206019112-116038     206019006009681820246TCS CARRIER BAG MIDI   0000001000+00000035+00000+0001T   00000035+0000001034          1400 RC4090               2BZ
206020000206020               206020               170213BX     1400+00000+BX0000001753+0000001753+000000000+000000246+0000001999+0000000000+I40000001999+0000000000+Z
206020001206020491-059640     206020000078257596409INTEX:ARMBAND 3-6YRS   0000001000+00001753+00000+0001T   00001753+0000001045          1400 RC4787               2BZ
206021000206021               206021               170213BX     1400+00000+BX0000030725+0000030725+000000000+000004305+0000035030+0000000000+I40000035030+0000000000+Z
206021001206021018-000136     206021006001023659026MUG OCC LOVE W/PLUSH   0000001000+00003507+00000+0001T   00003507+0000001049          1400 RC4515               2BZ
206021002206021301-085001     206021006003000297610ORN WATERBALL LOVE ASST0000002000+00004823+00000+0001T   00004823+0000001049          1400 RC4505               2BZ
206021003206021030-000040     206021006003000396375PLAQUE WDN HANGING HRTS0000002000+00003069+00000+0001T   00003069+0000001049          1400 RC4505               2BZ
206021004206021089-060027     206021006003000245871KEY-CHAIN HEART 6X6cm  0000003000+00003069+00000+0001T   00003069+0000001049          1400 RC4205               2BZ
206021005206021566-000359     206021006003000582709STICKER BOOK LOVE SPARK0000001000+00002192+00000+0001T   00002192+0000001049          1400 RC4130               2BZ
206021006206021112-116038     206021006009681820246TCS CARRIER BAG MIDI   0000001000+00000035+00000+0001T   00000035+0000001049          1400 RC4090               2BZ
206022000206022               206022               170213BX     1400+00000+BX0000002893+0000002893+000000000+000000406+0000003290+0000000009+I20000000000+0000003290+Z
206022001206022048-000837     206022006003000373376TORCH RUBBER 3LED SML  0000001000+00002893+00000+0001T   00002893+0000001106          1400 RC4305               2BZ
206023000206023               206023               170213BX     1400+00000+BX0000006576+0000006576+000000000+000000921+0000007490+0000000007+I20000000000+0000007490+Z
206023001206023567-011307     206023006003000598557BOOK ACTIVITY FUN WATER0000001000+00003069+00000+0001T   00003069+0000001106          1400 RC4757               2BZ
206023002206023567-011348     206023009780709717621BK STICKER ANIMAL WORLD0000001000+00003507+00000+0001T   00003507+0000001106          1400 RC4757               2BZ
206024000206024               206024               170213BX     1400+00000+BX0000005963+0000005963+000000000+000000835+0000006790+0000000008+I20000000000+0000006790+Z
206024001206024018-000127     206024006001023380289MUG OCC STRAIGHT LOVE  0000001000+00001578+00000+0001T   00001753+0006471113          1400 RC4515               2BZ
206024002206024030-000031-A   206024006003000457588PLAQUE W/WORDS ASSTD   0000001000+00004385+00000+0001T   00004823+0006471113          1400 RC4505               2BZ
206025000206025               206025               170213BX     1400+00000+BX0000001490+0000001490+000000000+000000209+0000001690+0000000009+I20000000000+0000001690+Z
206025001206025079-006494     206025006003000159864GLITTER GLUE 5PCE 11cm 0000001000+00001490+00000+0001T   00001490+0000001118          1400 RC4130               2BZ
206026000206026               206026               170213BX     1400+00000+BX0000001753+0000001753+000000000+000000246+0000001999+0000000000+I40000001999+0000000000+Z
206026001206026077-000116     206026006003000240777GIFT-WRAP 700mmx2m COL 0000001000+00001753+00000+0001T   00001753+0000001127          1400 RC4112               2BZ
206027000206027               206027               170213BX     1400+00000+BX0000006610+0000006610+000000000+000000927+0000007537+0000000000+I40000007537+0000000000+Z
206027001206027112-116038     206027006009681820246TCS CARRIER BAG MIDI   0000001000+00000035+00000+0001T   00000035+0000001147          1400 ZC7090               2BZ
206027002206027030-000040     206027006003000396375PLAQUE WDN HANGING HRTS0000001000+00003069+00000+0001T   00003069+0000001147          1400 ZC7505               2BZ
206027003206027079-013032-D   206027006003000389643RIBBONS                0000001000+00002630+00000+0001T   00002630+0000001147          1400 ZC7130               2BZ
206027004206027077-000011-C   206027006001023808523TISSUE 10xSHTS RED     0000001000+00000876+00000+0001T   00000876+0000001147          1400 ZC7112               2BZ
206028000206028               206028               170213BX     1400+00000+BX0000001226+0000001226+000000000+000000172+0000001390+0000000008+I20000000000+0000001390+Z
206028001206028007-000555     206028006001023848239MEMO-PAD MINI LOVE     0000002000+00000613+00000+0001T   00000613+0000001147          1400 ZC7130               2BZ
206029000206029               206029               170213BX     1400+00000+BX0000035847+0000035847+000000000+000005022+0000040869+0000000000+I40000040869+0000000000+Z
206029001206029018-000130     206029006001023867537MUG OCC LOVE MINI+HEART0000001000+00003507+00000+0001T   00003507+0000001200          1400 RC4515               2BZ
206029002206029301-085004     206029006003000420469ORN LOVE PLAQUE 21X10CM0000001000+00003507+00000+0001T   00003946+0006471200          1400 RC4505               2BZ
206029003206029301-085007     206029006003000673698ORN OCC. LOVE S/PLAQUE 0000001000+00007893+00000+0001T   00007893+0000001200          1400 RC4505               2BZ
206029004206029019-000051     206029006003000457304VASE GLS ASSORTED      0000001000+00006139+00000+0001T   00006139+0000001200          1400 RC4510               2BZ
206029005206029019-000076     206029006001023757159V/GLASS 25CM C/DESIGN  0000001000+00008771+00000+0001T   00008771+0000001200          1400 RC4510               2BZ
206029006206029077-000303     206029006001023593757GIFT-BAG PAPER MED     0000001000+00001578+00000+0001T   00001578+0000001200          1400 RC4112               2BZ
206029007206029566-000070     206029006003000283798STICKERS POP UP ASSTD  0000001000+00001753+00000+0001T   00001753+0000001200          1400 RC4130               2BZ
206029008206029077-000270     206029006003000395453GIFT-BAG PPR JMB 33X45 0000001000+00002630+00000+0001T   00002630+0000001200          1400 RC4112               2BZ
206029009206029112-116053     206029006006438002399TCS CARRIER BAG 38L    0000001000+00000069+00000+0001T   00000069+0000001200          1400 RC4090               2BZ
206030000206030               206030               170213BX     1400+00000+BX0000003506+0000003506+000000000+000000492+0000003998+0000000000+I40000003998+0000000000+Z
206030001206030079-013099     206030006003000081875ART+CRAFT EYES ASSTD   0000001000+00001753+00000+0001T   00001753+0000001217          1400 RC4130               2BZ
206030002206030566-001228     206030006003000284153STICKERS CRYSTAL ASSTD 0000001000+00001753+00000+0001T   00001753+0000001217          1400 RC4130               2BZ
206031000206031               206031               170213BX     1400+00000+BX0000011269+0000011269+000000000+000001579+0000012848+0000000000+I40000012848+0000000000+Z
206031001206031903-000087     206031006001704000161SWT SPECKLED-EGGS 50G  0000001000+00001139+00000+0001T   00001139+0000001219          1400 RC4150               2BZ
206031002206031903-000123     206031006925925909280SWEET GS MINI MALLOWS  0000001000+00000876+00000+0001T   00000876+0000001219          1400 RC4150               2BZ
206031003206031041-007001-D   206031006003000637225H/GLOW LIQ OCEAN MIST  0000001000+00002192+00000+0001T   00002192+0000001219          1400 RC4200               2BZ
206031004206031104-000055     206031006001023889416BASKET PL 32x22x8cm    0000002000+00003507+00000+0001T   00003507+0000001219          1400 RC4210               2BZ
206031005206031112-116069     206031006009681820277TCS CARRIER BAG JUMBO  0000001000+00000048+00000+0001T   00000048+0000001219          1400 RC4090               2BZ
206032000206032               206032               170213BX     1400+00000+BX0000011571+0000011571+000000000+000001623+0000013190+0000000004+I20000000000+0000013190+Z
206032001206032264-000921     206032000090159150442MAISTO CAR 3" FRESH    0000002000+00001753+00000+0001T   00001753+0000001222          1400 RC4710               2BZ
206032002206032368-000049     206032006003000536955PLUSH BEAR 15cm LOVE   0000001000+00004385+00000+0001T   00004385+0000001222          1400 RC4745               2BZ
206032003206032903-000200     206032006009826020234SWT CHOC RP CHOCO 23G  0000001000+00000788+00000+0001T   00000788+0000001222          1400 RC4150               2BZ
206032004206032046-000014     206032006001023725387BATTERIES SIZE:AAA 4PCE0000001000+00001139+00000+0001T   00001139+0000001222          1400 RC4312               2BZ
206032005206032048-000859     206032006003000423422TORCH 9 LED PL 3XAAA   0000001000+00001753+00000+0001T   00001753+0000001222          1400 RC4305               2BZ
206033000206033               206033               170213BX     1400+00000+BX0000005699+0000005699+000000000+000000798+0000006497+0000000000+I40000006497+0000000000+Z
206033001206033566-000359     206033006003000582709STICKER BOOK LOVE SPARK0000001000+00002192+00000+0001T   00002192+0000001224          1400 RC4130               2BZ
206033002206033007-000324     20603300600968585864125 SHEETS BRIGHTS MARLI0000001000+00003507+00000+0001T   00003507+0000001224          1400 RC4130               2BZ
206034000206034               206034               170213BX     1400+00000+BX0000004385+0000004385+000000000+000000614+0000004990+0000000009+I20000000000+0000004990+Z
206034001206034050-000365-Z   206034006001023475305PADLOCK IRON 50mm CARD 0000001000+00004385+00000+0001T   00004385+0000001239          1400 RC4855               2BZ
206035000206035               206035               170213BX     1400+00000+BX0000004733+0000004733+000000000+000000664+0000005390+0000000007+I20000000000+0000005390+Z
206035001206035080-000117     206035006003000236350CARD & ENVELOPE THANK U0000001000+00001753+00000+0001T   00001753+0000001241          1400 RC4112               2BZ
206035002206035089-001021     206035006003000112319KEY CHAIN MINI BIBLE   0000002000+00001490+00000+0001T   00001490+0000001241          1400 RC4205               2BZ
206036000206036               206036               170213BX     1400+00000+BX0000002752+0000002752+000000000+000000386+0000003130+0000000008+I20000000000+0000003130+Z
206036001206036200-000092     206036006003000576739PICNIC PAPER PLATES 23c0000001000+00001227+00000+0001T   00001227+0000001242          1400 RC4214               2BZ
206036002206036028-000400     206036006001023421661PLATE-HOLDERS 4PCE     0000001000+00001490+00000+0001T   00001490+0000001242          1400 RC4305               2BZ
206036003206036112-116038     206036006009681820246TCS CARRIER BAG MIDI   0000001000+00000035+00000+0001T   00000035+0000001242          1400 RC4090               2BZ
206037000206037               206037               170213BX     1400+00000+BX0000002630+0000002630+000000000+000000369+0000002990+0000000009+I20000000000+0000002990+Z
206037001206037016-002000     206037006003000674404S/BOTTLE GLS W/PL CAP  0000001000+00002630+00000+0001T   00002630+0000001253          1400 RC4300               2BZ
206038000206038               206038               170213BX     1400+00000+BX0000020221+0000020221+000000000+000002832+0000023053+0000000000+I40000023053+0000000000+Z
206038001206038039-000799     206038006001023692382CANDLES TEALITE 100PCE 0000001000+00008771+00000+0001T   00008771+0000001259          1400 RC4510               2BZ
206038002206038040-000103     206038000694202201862C/HOLDER-SET 5PC W/TRAY0000001000+00011402+00000+0001T   00013157+0008191259          1400 RC4510               2BZ
206038003206038112-116069     206038006009681820277TCS CARRIER BAG JUMBO  0000001000+00000048+00000+0001T   00000048+0000001259          1400 RC4090               2BZ
206039000206039               206039               170213BX     1400+00000+BX0000032316+0000032316+000000000+000004529+0000036845+0000000000+I10000021845+0000015000+Z
206039001206039365-000027     206039006001023786852P/SET TEA-SET PL 9PCS  0000001000+00003946+00000+0001T   00003946+0000001306          1400 RC4725               2BZ
206039002206039301-001123     206039000694202803967ORN FOUNTAIN MEDITATION0000001000+00015788+00000+0001T   00015788+0000001306          1400 RC4505               2BZ
206039003206039028-000797     206039006001023812124SKEWERS 15cm 100PCE    0000002000+00000876+00000+0001T   00000876+0000001306          1400 RC4305               2BZ
206039004206039019-071600     206039006001023771971RIVER-STONES 1kg MIXED 0000001000+00002630+00000+0001T   00002630+0000001306          1400 RC4510               2BZ
206039005206039019-071601     206039006001023771995RIVER-STONES 1kg WHITE 0000001000+00002630+00000+0001T   00002630+0000001306          1400 RC4510               2BZ
206039006206039019-071600     206039006001023771971RIVER-STONES 1kg MIXED 0000001000+00002630+00000+0001T   00002630+0000001306          1400 RC4510               2BZ
206039007206039046-000012-A   206039006003000208296BATTERIES H/POWER SZ:AA0000001000+00002192+00000+0001T   00002192+0000001306          1400 RC4312               2BZ
206039008206039564-000012     206039006001023130075BUBBLE BOTTLE MAGIC    0000001000+00000700+00000+0001T   00000700+0000001306          1400 RC4131               2BZ
206039009206039112-116069     206039006009681820277TCS CARRIER BAG JUMBO  0000001000+00000048+00000+0001T   00000048+0000001306          1400 RC4090               2BZ
206040000206040               206040               170213BX     1400+00000+BX0000000437+0000000437+000000000+000000062+0000000490+0000000009+I20000000000+0000000490+Z
206040001206040083-000049     206040004891035200024CIG-LIGHTER DISPOSABLE 0000001000+00000437+00000+0001T   00000437+0000001315          1400 RC4315               2BZ
206041000206041               206041               170213BX     1400+00000+BX0000006575+0000006575+000000000+000000922+0000007497+0000000000+I40000007497+0000000000+Z
206041001206041106-000899     206041006003000653287WTR BOTTLE 2L W/HANDLE 0000001000+00003069+00000+0001T   00003507+0008191337          1400 ZC7210               2BZ
206041002206041903-000494     206041006001704009911SWT GUMMY TEENY TEDDIES0000001000+00000876+00000+0001T   00000876+0000001337          1400 ZC7150               2BZ
206041003206041056-065302     206041006001023759566CAR SUN-SHIELD ALM-FOIL0000001000+00002630+00000+0001T   00002630+0000001337          1400 ZC7860               2BZ
206042000206042               206042               170213BX     1400+00000+BX0000001578+0000001578+000000000+000000221+0000001790+0000000009+I20000000000+0000001790+Z
206042001206042077-000303     206042006001023593757GIFT-BAG PAPER MED     0000001000+00001578+00000+0001T   00001578+0000001351          1400 ZC7112               2BZ
206043000206043               206043               170213BX     1400+00000+BX0000000035+0000000035+000000000+000000005+0000000040+0000000000+I20000000000+0000000040+Z
206043001206043112-116038     206043006009681820246TCS CARRIER BAG MIDI   0000001000+00000035+00000+0001T   00000035+0000001352          1400 ZC7090               2BZ
206044000206044               206044               170213BX     1400+00000+BX0000006252+0000006252+000000000+000000877+0000007129+0000000000+I40000007129+0000000000+Z
206044001206044033-005906-B   206044006001023727848S/LACES RND 90cm ASSTD 0000002000+00001314+00000+0001T   00001314+0000001426          1400 ZC7200               2BZ
206044002206044024-000083     206044006001023770943SIEVE FLOUR 20cm MTL-RI0000001000+00001753+00000+0001T   00001753+0000001426          1400 ZC7300               2BZ
206044003206044079-009700-D   206044006003000545711PAPER SIRIO A4 RED COL.0000006000+00000306+00000+0001T   00000306+0000001426          1400 ZC7130               2BZ
206044004206044112-116038     206044006009681820246TCS CARRIER BAG MIDI   0000001000+00000035+00000+0001T   00000035+0000001426          1400 ZC7090               2BZ
206045000206045               206045               170213BX     1400+00000+BX0000000613+0000000613+000000000+000000086+0000000690+0000000009+I20000000000+0000000690+Z
206045001206045047-000001-BB  206045006001023723536INS-TAPE BLACK 18mmx10m0000001000+00000613+00000+0001T   00000613+0000001448          1400 RC4880               2BZ
206046000206046               206046               170213BX     1400+00000+BX0000004822+0000004822+000000000+000000676+0000005498+0000000000+I40000005498+0000000000+Z
206046001206046174-000312     206046006003000053483TRAVEL PADLCK CMB RESET0000001000+00002630+00000+0001T   00003069+0008171450          1400 RC4205               2BZ
206046002206046080-000127     206046006003000424351VALENTINES DAY 36x24CM 0000001000+00002192+00000+0001T   00002192+0000001450          1400 RC4112               2BZ
206047000206047               206047               170213BX     1400+00000+BX0000015743+0000015743+000000000+000002207+0000017950+0000000000+I40000017950+0000000000+Z
206047001206047206-000110     206047006003000628186CHOPSTICKS PLASTIC KIDS0000001000+00002630+00000+0001T   00002630+0000001502          1400 RC4321               2BZ
206047002206047368-000614     206047006001023705808PLUSH LOVE 30cm        0000001000+00008771+00000+0001T   00008771+0000001502          1400 RC4745               2BZ
206047003206047007-000235     206047006003000134434LABELS RECTANGULAR 60pc0000001000+00000876+00000+0001T   00000876+0000001502          1400 RC4130               2BZ
206047004206047077-000010-D   206047006001023123886CREPE-PAPER WHITE      0000001000+00000788+00000+0001T   00000788+0000001502          1400 RC4112               2BZ
206047005206047369-001013     206047006003000500451BABY BATH VINYL DUCK   0000001000+00002630+00000+0001T   00002630+0000001502          1400 RC4745               2BZ
206047006206047112-116069     206047006009681820277TCS CARRIER BAG JUMBO  0000001000+00000048+00000+0001T   00000048+0000001502          1400 RC4090               2BZ
206048000206048               206048               170213BX     1400+00000+BX0000014908+0000014908+000000000+000002088+0000016996+0000000000+I40000016996+0000000000+Z
206048001206048365-005267     206048006001023584366P/SET KITCHEN BAKING PL0000001000+00003507+00000+0001T   00003507+0000001514          1400 RC4725               2BZ
206048002206048562-088355-A   206048006001023873262EVA MAT NUMBERS 10PC   0000001000+00007016+00000+0001T   00007016+0000001514          1400 RC4755               2BZ
206048003206048362-000107     206048006003000608799MAKE-UP GIRL BEAUTY-SET0000001000+00004385+00000+0001T   00004385+0000001514          1400 RC4160               2BZ
206049000206049               206049               170213BX     1400+00000+BX0000000700+0000000700+000000000+000000098+0000000790+0000000008+I20000000000+0000000790+Z
206049001206049018-000177     206049006001023797513MUG MINI LOVE ASSTD    0000001000+00000700+00000+0001T   00000700+0000001516          1400 RC4515               2BZ
206050000206050               206050               170213BX     1400+00000+BX0000014239+0000014239+000000000+000001995+0000016230+0000000004+I20000000000+0000016230+Z
206050001206050079-000801     206050006003000539642ART+CRAFT COLOUR       0000001000+00003507+00000+0001T   00003507+0000001519          1400 RC4130               2BZ
206050002206050162-097710     206050006001492977102#TAG NECKLACE 2PK      0000001000+00004385+00000+0001T   00004385+0000001519          1400 RC4160               2BZ
206050003206050089-000501     206050006003000622900KEY CHAIN LIGHT LASER  0000001000+00002192+00000+0001T   00002192+0000001519          1400 RC4205               2BZ
206050004206050079-000345     206050006001023890146FELT-TIP PENS 8PCE     0000001000+00003069+00000+0001T   00003069+0000001519          1400 RC4130               2BZ
206050005206050079-009702-C   206050008427973059309PAPER SIRIO A2 VIOLET  0000001000+00001051+00000+0001T   00001051+0000001519          1400 RC4130               2BZ
206050006206050112-116038     206050006009681820246TCS CARRIER BAG MIDI   0000001000+00000035+00000+0001T   00000035+0000001519          1400 RC4090               2BZ
206051000206051               206051               170213BX     1400+00000+BX0000005909+0000005909+000000000+000000828+0000006730+0000000007+I20000000000+0000006730+Z
206051001206051200-000010     206051006925406841061BAG ZIPPERSEAL 35PC    0000001000+00002192+00000+0001T   00002192+0000001530          1400 RC4214               2BZ
206051002206051073-000152     206051006003000683390COSMETIC BAG 18X9X5    0000001000+00001490+00000+0001T   00001490+0000001530          1400 RC4200               2BZ
206051003206051033-006004     206051006001023703316SEWING-KIT IN-POUCH    0000001000+00002192+00000+0001T   00002192+0000001530          1400 RC4200               2BZ
206051004206051112-116038     206051006009681820246TCS CARRIER BAG MIDI   0000001000+00000035+00000+0001T   00000035+0000001530          1400 RC4090               2BZ
206052000206052               206052               170213BX     1400+00000+BX0000004383+0000004383+000000000+000000614+0000004990+0000000007+I20000000000+0000004990+Z
206052001206052306-000021-A   206052006001023891358EARBUDS COTTON 100PCE  0000001000+00000876+00000+0001T   00000876+0000001543          1400 RC4200               2BZ
206052002206052034-079067     206052006003000638352COOEY FRUIT FEEDER EASY0000001000+00003507+00000+0001T   00003507+0000001543          1400 RC4215               2BZ
206053000206053               206053               170213BX     1400+00000+BX0000002366+0000002366+000000000+000000332+0000002690+0000000008+I20000000000+0000002690+Z
206053001206053077-000011-C   206053006001023808523TISSUE 10xSHTS RED     0000001000+00000876+00000+0001T   00000876+0000001545          1400 RC4112               2BZ
206053002206053077-000299     206053006003000395576G/BAG 32x25cm LRG LOVE 0000001000+00001490+00000+0001T   00001490+0000001545          1400 RC4112               2BZ
206054000206054               206054               170213BX     1400+00000+BX0000001050+0000001050+000000000+000000148+0000001198+0000000000+I40000001198+0000000000+Z
206054001206054007-000120     206054006009698062714BOOK DRAWING A4 24-PAGE0000002000+00000525+00000+0001T   00000525+0000001547          1400 RC4130               2BZ
206055000206055               206055               170213BX     1400+00000+BX0000003766+0000003766+000000000+000000529+0000004290+0000000005+I20000000000+0000004290+Z
206055001206055080-000133-A   206055006003000647019MINI VALENTINES CARD   0000002000+00000437+00000+0001T   00000437+0000001547          1400 RC4112               2BZ
206055002206055018-000177     206055006001023797513MUG MINI LOVE ASSTD    0000001000+00000700+00000+0001T   00000700+0000001547          1400 RC4515               2BZ
206055003206055018-000170     206055006001023775528MUG OCC. LOVE 2PC MINI 0000001000+00002192+00000+0001T   00002192+0000001547          1400 RC4515               2BZ
206056000206056               206056               170213BX     1400+00000+BX0000000613+0000000613+000000000+000000086+0000000699+0000000000+I40000000699+0000000000+Z
206056001206056077-000321     206056006001023677501GIFT-BAG 11X14CM E/D FL0000001000+00000613+00000+0001T   00000613+0000001555          1400 RC4112               2BZ
206057000206057               206057               170213BX     1400+00000+BX0000005699+0000005699+000000000+000000798+0000006497+0000000000+I40000006497+0000000000+Z
206057001206057077-000926     206057006003000414178G/WRAP 700mmx2m LOVE   0000001000+00002192+00000+0001T   00002192+0000001556          1400 RC4112               2BZ
206057002206057018-005009     206057006001023725608MUG W/PLUSH-BEAR LOVE  0000001000+00003507+00000+0001T   00003507+0000001556          1400 RC4515               2BZ
206058000206058               206058               170213BX     1400+00000+BX0000010522+0000010522+000000000+000001474+0000011996+0000000000+I40000011996+0000000000+Z
206058001206058369-001017     206058006001023698544VINYL PIRATE DUCK SET  0000001000+00003507+00000+0001T   00003507+0000001558          1400 RC4745               2BZ
206058002206058564-000010     206058006003000395477BUBBLE REFILL 1 LITRE  0000001000+00004385+00000+0001T   00004385+0000001558          1400 RC4131               2BZ
206058003206058369-001138-D   206058006003000097623BABY BATH VINYL THEMED 0000001000+00002630+00000+0001T   00002630+0000001558          1400 RC47453IC            2BZ
206059000206059               206059               170213BX     1400+00000+BX0000004646+0000004646+000000000+000000651+0000005297+0000000000+I40000005297+0000000000+Z
206059001206059077-000299     206059006003000395576G/BAG 32x25cm LRG LOVE 0000001000+00001490+00000+0001T   00001490+0000001600          1400 RC4112               2BZ
206059002206059077-000303     206059006001023593757GIFT-BAG PAPER MED     0000001000+00001578+00000+0001T   00001578+0000001600          1400 RC4112               2BZ
206059003206059080-000124     206059006003000297733CARD & ENV VALENTINES  0000001000+00001578+00000+0001T   00001578+0000001600          1400 RC4112               2BZ
206060000206060               206060               170213BX     1400+00000+BX0000007539+0000007539+000000000+000001057+0000008590+0000000006+I20000000000+0000008590+Z
206060001206060018-000170     206060006001023775528MUG OCC. LOVE 2PC MINI 0000001000+00002192+00000+0001T   00002192+0000001619          1400 RC4515               2BZ
206060002206060080-000124     206060006003000297733CARD & ENV VALENTINES  0000001000+00001578+00000+0001T   00001578+0000001619          1400 RC4112               2BZ
206060003206060903-000087     206060006001704000161SWT SPECKLED-EGGS 50G  0000001000+00001139+00000+0001T   00001139+0000001619          1400 RC4150               2BZ
206060004206060077-000270     206060006003000395453GIFT-BAG PPR JMB 33X45 0000001000+00002630+00000+0001T   00002630+0000001619          1400 RC4112               2BZ
206061000206061               206061               170213BX     1400+00000+BX0000009694+0000009694+000000000+000001358+0000011052+0000000000+I40000011052+0000000000+Z
206061001206061105-007016     206061006003000685059CONTAINER ROUND CLR    0000001000+00002192+00000+0001T   00002192+0000001622          1400 RC4210               2BZ
206061002206061566-000031     206061006003000283910STICKER BK TEACHER STIC0000001000+00002192+00000+0001T   00002192+0000001622          1400 RC4130               2BZ
206061003206061104-000505     206061006003000665952BASKET PL 3-DIVISION   0000001000+00005262+00000+0001T   00005262+0000001622          1400 RC4210               2BZ
206061004206061112-116069     206061006009681820277TCS CARRIER BAG JUMBO  0000001000+00000048+00000+0001T   00000048+0000001622          1400 RC4090               2BZ
206062000206062               206062               170213BX     1400+00000+BX0000000876+0000000876+000000000+000000123+0000000990+0000000009+I20000000000+0000000990+Z
206062001206062077-000302     206062008010410010195GIFT-BAG 18X23CM E/D   0000001000+00000876+00000+0001T   00000876+0000001622          1400 RC4112               2BZ
A17021300                                          11044574BXSLAVE 2                       RC41IC
A17021301                                          11474725BXSLAVE 2                       ZC73IC
B20605800                                          170213BX369-001138-D   15572695SLAVE 2     RC43IC0000002000+0000001000+0000000000000+
M17021391                              CASH        BXSLAVE 2                       Z-REPORT No.   709TOTAL (Sales - Refunds)           3794.51       CASH TO BE BANKED                 1229.70       DEBIT CARDS                          0.00       CREDIT CARDS                      2564.81       Z-READING                         3794.51       AIRTIME DEBIT CARD SALES             0.00       AIRTIME CARD SALES                   0.00       OVERS/UNDERS                         0.00       AIRTIME CASH SALES                   0.00       GIFT CARDS                           0.00       GIFT CARD CASH SALES                 0.00       T O T A L  CASH PAYOUTS              0.00                                                                                                                                                                                                                                                                                                                                                      Z
M17021392                              CASH        BXABSENT                                                                                                                                                                                          ANNUAL LEAVE                                                                                                                                                                                    DAY OFF                                                                                                                                                                                         COMMENTS                                                                                                                                                                                                                                                                                                                                                                                       Z
Y17021300                                          BX00000000332963+000047
ZBX17021319233 SLAVE 2      SALES DATA                     NEXT INVOICE NO.  206063 0709
F093726496-056475         1701261025500000041ICSLAVE 2
F093786496-028604         1701261025580000021ICSLAVE 2
F093786496-056483         1701261025580000151ICSLAVE 2
F093786496-057489         1701261025580000031ICSLAVE 2
F094018496-028272         1701261026050000011ICSLAVE 2
F094057496-028120         1701261026150000021ICSLAVE 2
F094064496-028122         1701261026240000031ICSLAVE 2
F094219031-000878-E       1701171810280000232ICSLAVE 2
F094811107-003120         1702131105070000061ICSLAVE 2
F094870361-003013         1702131105120000071ICSLAVE 2
X BX Slave 2 First invoice 206016 170213 Last invoice 206062 170213 Next invoice 206063 Total number of records 000000191 clbackup completed 19:23:16
