402936000402936               402936               170213BY     1400+00000+BY0000014066+0000014066+000000000+000001970+0000016036+0000000000+I40000016036+0000000000+Z
402936001402936133-000010-A   402936006001023997647CLEANING CLOTH ROLL 30 0000001000+00003507+00000+0001T   00003507+0000000929          1400 IN4212               1BZ
402936002402936133-000018     402936006003000583218SWAB MICROFIBRE 30x30cm0000001000+00001753+00000+0001T   00001753+0000000929          1400 IN4212               1BZ
402936003402936107-004505     402936006003000677177STEP STOOL FOLDABLE    0000001000+00008771+00000+0001T   00008771+0000000929          1400 IN4210               1BZ
402936004402936112-116038     402936006009681820246TCS CARRIER BAG MIDI   0000001000+00000035+00000+0001T   00000035+0000000929          1400 IN4090               1BZ
402937000402937               402937               170213BY     1400+00000+BY0000008884+0000008884+000000000+000001249+0000010130+0000000003+I20000000000+0000010130+Z
402937001402937206-000450     402937006003000619863DRINKING JAR GLOBE     0000002000+00002630+00000+0001T   00002630+0000001004          1400 IN4321               1BZ
402937002402937903-000087     402937006001704000161SWT SPECKLED-EGGS 50G  0000002000+00001139+00000+0001T   00001139+0000001004          1400 IN4150               1BZ
402937003402937112-116038     402937006009681820246TCS CARRIER BAG MIDI   0000001000+00000035+00000+0001T   00000035+0000001004          1400 IN4090               1BZ
402937004402937080-000133     402937006003000535613CARD&ENV MINI ASTD DSGN0000001000+00000437+00000+0001T   00000437+0000001004          1400 IN4112               1BZ
402937005402937080-000133-A   402937006003000647019MINI VALENTINES CARD   0000001000+00000437+00000+0001T   00000437+0000001004          1400 IN4112               1BZ
402937006402937080-000133     402937006003000535613CARD&ENV MINI ASTD DSGN0000001000+00000437+00000+0001T   00000437+0000001004          1400 IN4112               1BZ
402938000402938               402938               170213BY     1400+00000+BY0000000700+0000000700+000000000+000000098+0000000790+0000000008+I20000000000+0000000790+Z
402938001402938007-000166     402938006009685857316SPIRAL NOTES A6 100PG  0000001000+00000700+00000+0001T   00000700+0000001028          1400 IN4130               1BZ
402939000402939               402939               170213BY     1400+00000+BY0000032444+0000032444+000000000+000004546+0000036990+0000000000+I40000036990+0000000000+Z
402939001402939567-075497     402939009780799381665BK NOVEL ROMANCE AFR   0000001000+00006139+00000+0001T   00006139+0000001035          1400 IN4757               1BZ
402939002402939567-075497     402939009780799381641BK NOVEL ROMANCE AFR   0000001000+00006139+00000+0001T   00006139+0000001035          1400 IN4757               1BZ
402939003402939079-105609     402939006003000612697ART+CRAFT ALPHABET KIT 0000003000+00005262+00000+0001T   00005262+0000001035          1400 IN4130               1BZ
402939004402939903-000297     402939006001704002950SWT MS WILD BERRY 50G  0000005000+00000876+00000+0001T   00000876+0000001035          1400 IN4150               1BZ
402940000402940               402940               170213BY     1400+00000+BY0000001490+0000001490+000000000+000000209+0000001690+0000000009+I20000000000+0000001690+Z
402940001402940038-047244     402940006003000368068PLACE-MAT COLS 43X29CM 0000001000+00001490+00000+0001T   00001490+0000001044          1400 IN4300               1BZ
402941000402941               402941               170213BY     1400+00000+BY0000021097+0000021097+000000000+000002955+0000024052+0000000000+I40000024052+0000000000+Z
402941001402941018-030000     402941006003000421060MUG OCCASIONS LOVE 2PCE0000001000+00004385+00000+0001T   00004385+0000001116          1400 IN4515               1BZ
402941002402941301-085007     402941006003000673698ORN OCC. LOVE S/PLAQUE 0000001000+00007893+00000+0001T   00007893+0000001116          1400 IN4505               1BZ
402941003402941368-000614     402941006001023705808PLUSH LOVE 30cm        0000001000+00008771+00000+0001T   00008771+0000001116          1400 IN4745               1BZ
402941004402941112-116069     402941006009681820277TCS CARRIER BAG JUMBO  0000001000+00000048+00000+0001T   00000048+0000001116          1400 IN4090               1BZ
402942000402942               402942               170213BY     1400+00000+BY0000008767+0000008767+000000000+000001228+0000009990+0000000005+I20000000000+0000009990+Z
402942001402942077-000381     402942006003000247707GIFT-BAG 25X32CM S/COL 0000001000+00001753+00000+0001T   00001753+0000001127          1400 IN4112               1BZ
402942002402942903-000616     402942006003000644827SWT HS SWORD 60cm      0000002000+00003507+00000+0001T   00003507+0000001127          1400 IN4150               1BZ
402943000402943               402943               170213BY     1400+00000+BY0000005260+0000005260+000000000+000000738+0000005998+0000000000+I40000005998+0000000000+Z
402943001402943567-010569     402943006002242057136BOOK READER AFR DISNEY 0000002000+00002630+00000+0001T   00002630+0000001208          1400 IN4757               1BZ
402944000402944               402944               170213BY     1400+00000+BY0000002453+0000002453+000000000+000000344+0000002790+0000000007+I20000000000+0000002790+Z
402944001402944107-004105     402944006009703860984BUCKET 9L OPEN         0000001000+00001314+00000+0001T   00001314+0000001326          1400 2IC210               1AZ
402944002402944903-000087     402944006001704000161SWT SPECKLED-EGGS 50G  0000001000+00001139+00000+0001T   00001139+0000001326          1400 2IC150               1AZ
402945000402945               402945               170213BY     1400+00000+BY0000004385+0000004385+000000000+000000614+0000004990+0000000009+I20000000000+0000004990+Z
402945001402945107-004000     402945006001023889256BASIN PL OBLONG        0000001000+00004385+00000+0001T   00004385+0000001347          1400 IN4210               1BZ
402946000402946               402946               170213BY     1400+00000+BY0000000788+0000000788+000000000+000000111+0000000890+0000000009+I20000000000+0000000890+Z
402946001402946077-000010-C   402946006001023123879CREPE-PAPER RED        0000001000+00000788+00000+0001T   00000788+0000001353          1400 IN4112               1BZ
402947000402947               402947               170213BY     1400+00000+BY0000002192+0000002192+000000000+000000307+0000002490+0000000009+I20000000000+0000002490+Z
402947001402947080-000139     402947006003000611690CARD & ENV MINI SET 6PC0000001000+00002192+00000+0001T   00002192+0000001354          1400 IN4112               1BZ
402948000402948               402948               170213BY     1400+00000+BY0000006172+0000006172+000000000+000000865+0000007030+0000000007+I20000000000+0000007030+Z
402948001402948079-000359     402948006003000639823FELT-TIP PENS THERAPY  0000001000+00002630+00000+0001T   00002630+0000001401          1400 IN4130               1BZ
402948002402948567-011344     402948006003000630714BK COLOURING THERAPY 640000001000+00003507+00000+0001T   00003507+0000001401          1400 IN4757               1BZ
402948003402948112-116038     402948006009681820246TCS CARRIER BAG MIDI   0000001000+00000035+00000+0001T   00000035+0000001401          1400 IN4090               1BZ
402949000402949               402949               170213BY     1400+00000+BY0000005260+0000005260+000000000+000000738+0000005990+0000000008+I20000000000+0000005990+Z
402949001402949002-000717     402949006001023775184CHOPPING-MATS FLEX 2PCE0000002000+00002630+00000+0001T   00002630+0000001402          1400 IN4300               1BZ
402950000402950               402950               170213BY     1400+00000+BY0000003506+0000003506+000000000+000000492+0000003998+0000000000+I40000003998+0000000000+Z
402950001402950038-047250     402950006001023816009PLACE MAT ASSORTED     0000002000+00001753+00000+0001T   00001753+0000001410          1400 IN4300               1BZ
402951000402951               402951               170213BY     1400+00000+BY0000010523+0000010523+000000000+000001474+0000011990+0000000007+I20000000000+0000011990+Z
402951001402951039-000794     402951006946859289958CANDLE T/LITE 3PC LED  0000002000+00004385+00000+0001T   00004385+0000001411          1400 IN4510               1BZ
402951002402951036-000610     402951006001023627230WASHING-PEGS PL PACK-240000001000+00001753+00000+0001T   00001753+0000001411          1400 IN4212               1BZ
402952000402952               402952               170213BY     1400+00000+BY0000001753+0000001753+000000000+000000246+0000001990+0000000009+I20000000000+0000001990+Z
402952001402952051-002402     402952006001023518347TRIGGER-SPRAYER  500ml 0000001000+00001753+00000+0001T   00001753+0000001417          1400 IN4820               1BZ
402953000402953               402953               170213BY     1400+00000+BY0000000525+0000000525+000000000+000000074+0000000590+0000000009+I20000000000+0000000590+Z
402953001402953903-000155     402953006009803374435SWT LOLLY I LUV U HEART0000001000+00000525+00000+0001T   00000525+0000001431          1400 IN4150               1BZ
402954000402954               402954               170213BY     1400+00000+BY0000009681+0000009681+000000000+000001357+0000011038+0000000000+I40000011038+0000000000+Z
402954001402954079-000260     402954006001023886385PAINT TUBS WT BASE 4COL0000001000+00002630+00000+0001T   00002630+0000001438          1400 IN4130               1BZ
402954002402954079-000298     402954006003000647156PAINT SET FINGER PAINT 0000001000+00007016+00000+0001T   00007893+0008191438          1400 IN4130               1BZ
402954003402954112-116038     402954006009681820246TCS CARRIER BAG MIDI   0000001000+00000035+00000+0001T   00000035+0000001438          1400 IN4090               1BZ
402955000402955               402955               170213BY     1400+00000+BY0000013155+0000013155+000000000+000001843+0000014998+0000000000+I40000014998+0000000000+Z
402955001402955018-000129     402955006001023403353MUG OCC. LOVE V-SHAPE  0000001000+00002630+00000+0001T   00002630+0000001446          1400 IN4515               1BZ
402955002402955466-000802     402955003523930009754BOXING-SET GLOVES+BAG  0000001000+00010525+00000+0001T   00010525+0000001446          1400 IN4785               1BZ
402956000402956               402956               170213BY     1400+00000+BY0000002630+0000002630+000000000+000000369+0000002990+0000000009+I20000000000+0000002990+Z
402956001402956174-000175     402956006001023730985LAUNDRY-BAG FOLD-AWAY  0000001000+00002630+00000+0001T   00002630+0000001447          1400 IN4205               1BZ
402957000402957               402957               170213BY     1400+00000+BY0000001753+0000001753+000000000+000000246+0000001990+0000000009+I20000000000+0000001990+Z
402957001402957250-071990     402957006003000523771REFLECTIVE SAFETY BAND 0000001000+00001753+00000+0001T   00002192+0008191447          1400 IN4860               1BZ
402958000402958               402958               170213BY     1400+00000+BY0000002630+0000002630+000000000+000000369+0000002990+0000000009+I20000000000+0000002990+Z
402958001402958200-000042     402958006001023868886BAG-SEALERS 10PCE      0000001000+00002630+00000+0001T   00002630+0000001507          1400 IN4214               1BZ
402959000402959               402959               170213BY     1400+00000+BY0000013642+0000013642+000000000+000001911+0000015550+0000000003+I20000000000+0000015550+Z
402959001402959077-000916     402959006003000413577G/WRAP 700mmx2m BBY/KID0000001000+00002192+00000+0001T   00002192+0000001511          1400 IN4112               1BZ
402959002402959263-000800     402959006003000332281TRUCK PL CONSTRUCTION  0000001000+00011402+00000+0001T   00011402+0000001511          1400 IN4710               1BZ
402959003402959112-116069     402959006009681820277TCS CARRIER BAG JUMBO  0000001000+00000048+00000+0001T   00000048+0000001511          1400 IN4090               1BZ
402960000402960               402960               170213BY     1400+00000+BY0000086778+0000086778+000000000+000012160+0000098930+0000000008+I20000000000+0000098930+Z
402960001402960112-116053     402960006006438002399TCS CARRIER BAG 38L    0000001000+00000069+00000+0001T   00000069+0000001515          1400 IN4090               1BZ
402960002402960368-000111     402960006001023780812PLUSH BEAR/DOG 29CM    0000001000+00012279+00000+0001T   00012279+0000001515          1400 IN4745               1BZ
402960003402960366-001101     402960006003000006991DRESS UP BOYS ASSTD    0000001000+00006139+00000+0001T   00006139+0000001515          1400 IN4131               1BZ
402960004402960366-000105     402960006001023866103DRESSUP WINGS AND SKIRT0000001000+00007016+00000+0001T   00007016+0000001515          1400 IN4131               1BZ
402960005402960368-000665     402960006003000169016PLUSH BEAR 30cm        0000001000+00008771+00000+0001T   00008771+0000001515          1400 IN4745               1BZ
402960006402960368-000637     402960006001023874092PLUSH BEAR SLEEPING LOV0000001000+00011402+00000+0001T   00012279+0006471515          1400 IN4745               1BZ
402960007402960018-000136     402960006001023659026MUG OCC LOVE W/PLUSH   0000001000+00003507+00000+0001T   00003507+0000001515          1400 IN4515               1BZ
402960008402960112-116053     402960006006438002399TCS CARRIER BAG 38L    0000001000+00000069+00000+0001T   00000069+0000001515          1400 IN4090               1BZ
402960009402960031-001008     402960006003000406531P/FRAME COLLAGE PLASTIC0000001000+00012279+00000+0001T   00012279+0000001515          1400 IN4510               1BZ
402960010402960903-004950     402960006002580020304SWT APRICOT SURPRISE   0000001000+00001314+00000+0001T   00001314+0000001515          1400 IN4150               1BZ
402960011402960903-005007     402960006002580020311SWT MALLOW BEAR M/SHAKE0000001000+00001314+00000+0001T   00001314+0000001515          1400 IN4150               1BZ
402960012402960903-000095     402960006001704011495SWT SPECKLED-EGGS 100G 0000001000+00002104+00000+0001T   00002104+0000001515          1400 IN4150               1BZ
402960013402960150-000775     402960006001023129253UTILITY-BOX LARGE      0000001000+00002367+00000+0001T   00002367+0000001515          1400 IN4810               1BZ
402960014402960028-000025     402960006003000422395COOLER BAG 39x20x27cm  0000001000+00015788+00000+0001T   00015788+0000001515          1400 IN4305               1BZ
402960015402960903-000137     402960006002099004130SWEET GS JELLY BEAN 60G0000001000+00000788+00000+0001T   00000788+0000001515          1400 IN4150               1BZ
402960016402960903-000183     402960006003000451043SWT LB HEART LOLLY     0000004000+00000393+00000+0001T   00000393+0000001515          1400 IN4150               1BZ
402961000402961               402961               170213BY     1400+00000+BY0000001490+0000001490+000000000+000000209+0000001690+0000000009+I20000000000+0000001690+Z
402961001402961077-000299     402961006003000395576G/BAG 32x25cm LRG LOVE 0000001000+00001490+00000+0001T   00001490+0000001523          1400 IN4112               1BZ
402962000402962               402962               170213BY     1400+00000+BY0000005256+0000005256+000000000+000000736+0000005992+0000000000+I40000005992+0000000000+Z
402962001402962903-000194     402962006009826020616SWT CHOC RP LOLLY 25G  0000004000+00001314+00000+0001T   00001314+0000001525          1400 IN4150               1BZ
402963000402963               402963               170213BY     1400+00000+BY0000007893+0000007893+000000000+000001106+0000008990+0000000009+I20000000000+0000008990+Z
402963001402963301-085007     402963006003000673698ORN OCC. LOVE S/PLAQUE 0000001000+00007893+00000+0001T   00007893+0000001529          1400 IN4505               1BZ
402964000402964               402964               170213BY     1400+00000+BY0000012278+0000012278+000000000+000001719+0000013990+0000000007+I20000000000+0000013990+Z
402964001402964263-000003     402964006003000652358VEHICLE BIKE 9.5cm     0000001000+00003507+00000+0001T   00003507+0000001544          1400 IN4710               1BZ
402964002402964031-000924     402964006001023669964P/FRAME COLLAGE PL     0000001000+00008771+00000+0001T   00008771+0000001544          1400 IN4510               1BZ
402965000402965               402965               170213BY     1400+00000+BY0000001928+0000001928+000000000+000000270+0000002190+0000000008+I20000000000+0000002190+Z
402965001402965174-008028     402965006009654960825TRAVEL JARS 4-PACK     0000001000+00001928+00000+0001T   00001928+0000001544          1400 IN4205               1BZ
402966000402966               402966               170213BY     1400+00000+BY0000003331+0000003331+000000000+000000467+0000003790+0000000008+I20000000000+0000003790+Z
402966001402966565-000885     402966006003000122929NOVELTY PRICKLY BALL   0000001000+00001578+00000+0001T   00001578+0000001557          1400 IN4745               1BZ
402966002402966565-000043     402966006003000109562NOVELTY BALL FUNNY FACE0000001000+00001753+00000+0001T   00001753+0000001557          1400 IN4745               1BZ
402967000402967               402967               170213BY     1400+00000+BY0000001928+0000001928+000000000+000000270+0000002190+0000000008+I20000000000+0000002190+Z
402967001402967200-000100     402967006001023764003CUPS 25PCE DISPOSABLE  0000001000+00001928+00000+0001T   00001928+0000001558          1400 IN4214               1BZ
402968000402968               402968               170213BY     1400+00000+BY0000003069+0000003069+000000000+000000430+0000003490+0000000009+I20000000000+0000003490+Z
402968001402968089-060027     402968006003000245871KEY-CHAIN HEART 6X6cm  0000001000+00003069+00000+0001T   00003069+0000001601          1400 IN4205               1BZ
402969000402969               402969               170213BY     1400+00000+BY0000003766+0000003766+000000000+000000528+0000004290+0000000004+I20000000000+0000004290+Z
402969001402969903-000087     402969006001704000161SWT SPECKLED-EGGS 50G  0000001000+00001139+00000+0001T   00001139+0000001607          1400 IN4150               1BZ
402969002402969903-000504     402969006001704012416SWT CHOC JELLY BEANS   0000001000+00001227+00000+0001T   00001227+0000001607          1400 IN4150               1BZ
402969003402969903-000120     402969006002099001665SWEET GS ZILLIONS 50g  0000002000+00000700+00000+0001T   00000700+0000001607          1400 IN4150               1BZ
402970000402970               402970               170213BY     1400+00000+BY0000005262-0000005262-000000000+000000737-0000006000-0000000001+I20000000000+0000006000-Z
402970001402970056-065301     402970006001023625861CAR SUN-SHIELD 114x66cm0000001000-00005262+00000+0001T   00005262+0000001612          1400 IN48602IC            1 Z
402971000402971               402971               170213BY     1400+00000+BY0000002103+0000002103+000000000+000000295+0000002390+0000000008+I20000000000+0000002390+Z
402971001402971077-000304     402971006001023483232GIFT-BAG 25X32CM E/DAY 0000001000+00001490+00000+0001T   00001490+0000001613          1400 IN4112               1BZ
402971002402971083-000055     402971006003000003853LIGHTER ELCTRNC REFILBL0000001000+00000613+00000+0001T   00000613+0000001613          1400 IN4315               1BZ
402972000402972               402972               170213BY     1400+00000+BY0000000088-0000000088-000000000+000000012-0000000100-0000000000+I20000000000+0000000100-Z
402972001402972903-000504     402972006001704012416SWT CHOC JELLY BEANS   0000001000-00001227+00000+0001T   00001227+0000001615          1400 IN41502IC            1 Z
402972002402972903-000087     402972006001704000161SWT SPECKLED-EGGS 50G  0000001000+00001139+00000+0001T   00001139+0000001615          1400 IN4150               1 Z
402973000402973               402973               170213BY     1400+00000+BY0000008628+0000008628+000000000+000001209+0000009837+0000000000+I40000009837+0000000000+Z
402973001402973077-000303     402973006001023593757GIFT-BAG PAPER MED     0000001000+00001578+00000+0001T   00001578+0000001623          1400 IN4112               1BZ
402973002402973079-013099     402973006003000081875ART+CRAFT EYES ASSTD   0000001000+00001753+00000+0001T   00001753+0000001623          1400 IN4130               1BZ
402973003402973031-000870-B   402973006001023798657P/FRAME WOOD WHITE-PINE0000001000+00005262+00000+0001T   00005262+0000001623          1400 IN4510               1BZ
402973004402973112-116038     402973006009681820246TCS CARRIER BAG MIDI   0000001000+00000035+00000+0001T   00000035+0000001623          1400 IN4090               1BZ
402974000402974               402974               170213BY     1400+00000+BY0000006312+0000006312+000000000+000000884+0000007190+0000000006+I20000000000+0000007190+Z
402974001402974903-002901     402974005996071650655QUICK MILK 5 S/BERRY   0000004000+00001578+00000+0001T   00001578+0000001629          1400 IN4150               1BZ
402975000402975               402975               170213BY     1400+00000+BY0000004591+0000004591+000000000+000000644+0000005230+0000000005+I20000000000+0000005230+Z
402975001402975018-000127     402975006001023380289MUG OCC STRAIGHT LOVE  0000002000+00001578+00000+0001T   00001753+0006471637          1400 IN4515               1BZ
402975002402975077-000150-D   402975006003000054343GIFT-WRAP CELLPHANE CLR0000001000+00000876+00000+0001T   00000876+0000001637          1400 IN4112               1BZ
402975003402975112-116038     402975006009681820246TCS CARRIER BAG MIDI   0000001000+00000035+00000+0001T   00000035+0000001637          1400 IN4090               1BZ
402975004402975903-000216     402975006925925900966SWT MALLOW TWIST ERKO  0000002000+00000262+00000+0001T   00000262+0000001637          1400 IN4150               1BZ
402976000402976               402976               170213BY     1400+00000+BY0000009765+0000009765+000000000+000001369+0000011130+0000000004+I20000000000+0000011130+Z
402976001402976018-000129     402976006001023403353MUG OCC. LOVE V-SHAPE  0000001000+00002630+00000+0001T   00002630+0000001723          1400 IN4515               1BZ
402976002402976903-000123     402976006925925909280SWEET GS MINI MALLOWS  0000002000+00000876+00000+0001T   00000876+0000001723          1400 IN4150               1BZ
402976003402976077-000303     402976006001023593757GIFT-BAG PAPER MED     0000002000+00001578+00000+0001T   00001578+0000001723          1400 IN4112               1BZ
402976004402976018-000170     402976006001023775528MUG OCC. LOVE 2PC MINI 0000001000+00002192+00000+0001T   00002192+0000001723          1400 IN4515               1BZ
402976005402976112-116038     402976006009681820246TCS CARRIER BAG MIDI   0000001000+00000035+00000+0001T   00000035+0000001723          1400 IN4090               1BZ
402977000402977               402977               170213BY     1400+00000+BY0000001314+0000001314+000000000+000000184+0000001490+0000000008+I20000000000+0000001490+Z
402977001402977107-004105     402977006009703860984BUCKET 9L OPEN         0000001000+00001314+00000+0001T   00001314+0000001730          1400 IN4210               1BZ
M17021391                              CASH        BYSLAVE 1                       Z-REPORT No.   629TOTAL (Sales - Refunds)           3746.89       CASH TO BE BANKED                 2457.50       DEBIT CARDS                          0.00       CREDIT CARDS                      1289.39       Z-READING                         3746.89       AIRTIME DEBIT CARD SALES             0.00       AIRTIME CARD SALES                   0.00       OVERS/UNDERS                         0.00       AIRTIME CASH SALES                   0.00       GIFT CARDS                           0.00       GIFT CARD CASH SALES                 0.00       T O T A L  CASH PAYOUTS              0.00                                                                                                                                                                                                                                                                                                                                                      Z
M17021392                              CASH        BYABSENT                                                                                                                                                                                          ANNUAL LEAVE                                                                                                                                                                                    DAY OFF                                                                                                                                                                                         COMMENTS                                                                                                                                                                                                                                                                                                                                                                                       Z
Y17021300                                          BY00000000335325+000041
ZBY17021319233 SLAVE 1      SALES DATA                     NEXT INVOICE NO.  402978 0629
X BY Slave 1 First invoice 402936 170213 Last invoice 402977 170213 Next invoice 402978 Total number of records 000000143 clbackup completed 19:23:40
