507627000507627               507627               170213BY     1400+00000+BY0000007223+0000007223+000000000+000001013+0000008236+0000000000+I40000008236+0000000000+Z
507627001507627112-116038     507627006009681820246TCS CARRIER BAG MIDI   0000001000+00000035+00000+0001T   00000035+0000001021          1400 GB4090               2AZ
507627002507627054-000801     507627006001023119230WIRE-BRUSH+HANDLE FINE 0000002000+00001753+00000+0001T   00001753+0000001021          1400 GB4810               2AZ
507627003507627002-021060     507627006001023359438TOOTHPICKS 50PC WRAP   0000001000+00001227+00000+0001T   00001227+0000001021          1400 GB4300               2AZ
507627004507627034-078805     507627006001023994097BABY W/WIPES 55PCE LACE0000001000+00002455+00000+0001T   00002455+0000001021          1400 GB4215               2AZ
507628000507628               507628               170213BY     1400+00000+BY0000005698+0000005698+000000000+000000799+0000006490+0000000007+I20000000000+0000006490+Z
507628001507628077-000299     507628006003000395576G/BAG 32x25cm LRG LOVE 0000001000+00001490+00000+0001T   00001490+0000001051          1400 GB4112               2AZ
507628002507628903-000095     507628006001704011495SWT SPECKLED-EGGS 100G 0000002000+00002104+00000+0001T   00002104+0000001051          1400 GB4150               2AZ
507629000507629               507629               170213BY     1400+00000+BY0000016533+0000016533+000000000+000002317+0000018850+0000000000+I20000000000+0000018850+Z
507629001507629567-010542     507629009781743461785PIXIE HELLO KITTY ASSTD0000001000+00000700+00000+0001T   00000876+0008131054          1400 GB4757               2AZ
507629002507629007-000551     507629006001023848079NOTE-PAD SHOP-LIST ASST0000001000+00001753+00000+0001T   00001753+0000001054          1400 GB4130               2AZ
507629003507629362-019381     507629006001023869579HAIR BAND SET 100PCE   0000001000+00002630+00000+0001T   00002630+0000001054          1400 GB4160               2AZ
507629004507629469-006603     507629006003000390441B/BLOCKS 86PC TROLY BAG0000001000+00011402+00000+0001T   00011402+0000001054          1400 GB4755               2AZ
507629005507629112-116069     507629006009681820277TCS CARRIER BAG JUMBO  0000001000+00000048+00000+0001T   00000048+0000001054          1400 GB4090               2AZ
507630000507630               507630               170213BY     1400+00000+BY0000002630+0000002630+000000000+000000369+0000002999+0000000000+I40000002999+0000000000+Z
507630001507630206-000620     507630006003000631797BACK SCRATCHER EXTEND  0000001000+00002630+00000+0001T   00002630+0000001055          1400 GB4321               2AZ
507631000507631               507631               170213BY     1400+00000+BY0000002192+0000002192+000000000+000000307+0000002490+0000000009+I20000000000+0000002490+Z
507631001507631566-000359     507631006003000582709STICKER BOOK LOVE SPARK0000001000+00002192+00000+0001T   00002192+0000001059          1400 GB4130               2AZ
507632000507632               507632               170213BY     1400+00000+BY0000007049+0000007049+000000000+000000987+0000008036+0000000000+I40000008036+0000000000+Z
507632001507632369-001026     507632006001023795977BABY-RATTLE CATERPILLAR0000001000+00003507+00000+0001T   00003507+0000001106          1400 GB4745               2AZ
507632002507632369-000035     507632006001023795885EDU STACKING-SET ASSTD 0000001000+00003507+00000+0001T   00003507+0000001106          1400 GB4745               2AZ
507632003507632112-116038     507632006009681820246TCS CARRIER BAG MIDI   0000001000+00000035+00000+0001T   00000035+0000001106          1400 GB4090               2AZ
507633000507633               507633               170213BY     1400+00000+BY0000006436+0000006436+000000000+000000902+0000007330+0000000008+I20000000000+0000007330+Z
507633001507633565-000071     507633006003000643387NOVELTY WIND UP CHATTER0000001000+00001139+00000+0001T   00001139+0000001138          1400 GB4745               2AZ
507633002507633079-105609     507633006003000612697ART+CRAFT ALPHABET KIT 0000001000+00005262+00000+0001T   00005262+0000001138          1400 GB4130               2AZ
507633003507633112-116038     507633006009681820246TCS CARRIER BAG MIDI   0000001000+00000035+00000+0001T   00000035+0000001138          1400 GB4090               2AZ
507634000507634               507634               170213BY     1400+00000+BY0000011438+0000011438+000000000+000001608+0000013040+0000000006+I20000000000+0000013040+Z
507634001507634112-116069     507634006009681820277TCS CARRIER BAG JUMBO  0000001000+00000048+00000+0001T   00000048+0000001142          1400 GB4090               2AZ
507634002507634077-000270     507634006003000395453GIFT-BAG PPR JMB 33X45 0000001000+00002630+00000+0001T   00002630+0000001142          1400 GB4112               2AZ
507634003507634080-000137     507634006003000589159CARD & ENV GIANT FEMALE0000001000+00002630+00000+0001T   00002630+0000001142          1400 GB4112               2AZ
507634004507634080-000118     507634006003000237562CARD&ENVLPE-CONGRATS   0000001000+00001753+00000+0001T   00001753+0000001142          1400 GB4112               2AZ
507634005507634080-000100     507634006003000236114CARD & ENVELOPE BDAY   0000001000+00001753+00000+0001T   00001753+0000001142          1400 GB4112               2AZ
507634006507634077-000011-E   507634006001023808646TISSUE-WRAP PINK 10PCE 0000001000+00000876+00000+0001T   00000876+0000001142          1400 GB4112               2AZ
507634007507634080-000133-A   507634006003000647019MINI VALENTINES CARD   0000003000+00000437+00000+0001T   00000437+0000001142          1400 GB4112               2AZ
507634008507634080-000133     507634006003000535613CARD&ENV MINI ASTD DSGN0000001000+00000437+00000+0001T   00000437+0000001142          1400 GB4112               2AZ
507635000507635               507635               170213BY     1400+00000+BY0000000048+0000000048+000000000+000000007+0000000050+0000000005+I20000000000+0000000050+Z
507635001507635112-116069     507635006009681820277TCS CARRIER BAG JUMBO  0000001000+00000048+00000+0001T   00000048+0000001143          1400 GB4090               2AZ
507636000507636               507636               170213BY     1400+00000+BY0000004943+0000004943+000000000+000000693+0000005630+0000000006+I20000000000+0000005630+Z
507636001507636077-000303     507636006001023593757GIFT-BAG PAPER MED     0000001000+00001578+00000+0001T   00001578+0000001146          1400 GB4112               2AZ
507636002507636077-000322     507636006001023677532GIFT-BAG 18X23CM E/D FL0000001000+00001227+00000+0001T   00001227+0000001146          1400 GB4112               2AZ
507636003507636077-000319     507636006001023609779GIFT-BAG 18X23CM BIRTHD0000001000+00001227+00000+0001T   00001227+0000001146          1400 GB4112               2AZ
507636004507636077-000011-E   507636006001023808646TISSUE-WRAP PINK 10PCE 0000001000+00000876+00000+0001T   00000876+0000001146          1400 GB4112               2AZ
507636005507636112-116038     507636006009681820246TCS CARRIER BAG MIDI   0000001000+00000035+00000+0001T   00000035+0000001146          1400 GB4090               2AZ
507637000507637               507637               170213BY     1400+00000+BY0000003069+0000003069+000000000+000000430+0000003499+0000000000+I40000003499+0000000000+Z
507637001507637020-000142     507637006003000223138KNIFE-SET 3PCE UTILITY 0000001000+00003069+00000+0001T   00003069+0000001147          1400 GB4300               2AZ
507638000507638               507638               170213BY     1400+00000+BY0000003507+0000003507+000000000+000000491+0000003990+0000000008+I20000000000+0000003990+Z
507638001507638018-005009     507638006001023725608MUG W/PLUSH-BEAR LOVE  0000001000+00003507+00000+0001T   00003507+0000001147          1400 GB4515               2AZ
507639000507639               507639               170213BY     1400+00000+BY0000000035+0000000035+000000000+000000005+0000000040+0000000000+I20000000000+0000000040+Z
507639001507639112-116038     507639006009681820246TCS CARRIER BAG MIDI   0000001000+00000035+00000+0001T   00000035+0000001148          1400 GB4090               2AZ
507640000507640               507640               170213BY     1400+00000+BY0000014910+0000014910+000000000+000002088+0000016998+0000000000+I40000016998+0000000000+Z
507640001507640369-001002     507640006003000551200BABY MUSICAL CRAB B/O  0000001000+00006139+00000+0001T   00006139+0000001152          1400 GB4745               2AZ
507640002507640028-002100     507640006003000243754CHAIR KIDDIES 68x50x48 0000001000+00008771+00000+0001T   00008771+0000001152          1400 GB4305               2AZ
507641000507641               507641               170213BY     1400+00000+BY0000017536+0000017536+000000000+000002458+0000019994+0000000000+I40000019994+0000000000+Z
507641001507641105-007805     507641006002923018920STORAGE BOX CLEAR 9.5L 0000002000+00005262+00000+0001T   00005262+0000001154          1400 GB4210               2AZ
507641002507641038-000205     507641006001926001205PLACE-MATS PVC ASSTD-C 0000004000+00001753+00000+0001T   00001753+0000001154          1400 GB4300               2AZ
507642000507642               507642               170213BY     1400+00000+BY0000001490+0000001490+000000000+000000209+0000001690+0000000009+I20000000000+0000001690+Z
507642001507642039-000108     507642006001023524034TEA-LITE CANDLES 8PCE  0000001000+00001490+00000+0001T   00001490+0000001220          1400 GB4510               2AZ
507643000507643               507643               170213BY     1400+00000+BY0000027577+0000027577+000000000+000003864+0000031440+0000000001+I20000000000+0000031440+Z
507643001507643112-116069     507643006009681820277TCS CARRIER BAG JUMBO  0000001000+00000048+00000+0001T   00000048+0000001225          1400 GB4090               2AZ
507643002507643002-000706     507643006001023111456SPATTER-PREVENTOR 28cm 0000001000+00004385+00000+0001T   00004385+0000001225          1400 GB4300               2AZ
507643003507643082-000385     507643006001023694164SPECTACLE-CASE ASSTD   0000001000+00003507+00000+0001T   00003507+0000001225          1400 GB4160               2AZ
507643004507643306-001024     507643006001023901910FIRST AID COOL/WARM GEL0000002000+00002192+00000+0001T   00002192+0000001225          1400 GB4200               2AZ
507643005507643048-000701     507643006001023867674HEAD-LAMP CAP CLIP-ON  0000001000+00002630+00000+0001T   00002630+0000001225          1400 GB4305               2AZ
507643006507643206-000160     507643006003000628780CORN KERNELER          0000001000+00004385+00000+0001T   00004385+0000001225          1400 GB4321               2AZ
507643007507643306-001600     507643006003000629480ANTI-SLIP ADHESIVE     0000001000+00001753+00000+0001T   00001753+0000001225          1400 GB4200               2AZ
507643008507643206-000620     507643006003000631797BACK SCRATCHER EXTEND  0000001000+00002630+00000+0001T   00002630+0000001225          1400 GB4321               2AZ
507643009507643206-000630     507643006003000631919SPECTACLE CLEANING BRUS0000001000+00001227+00000+0001T   00001227+0000001225          1400 GB4321               2AZ
507643010507643903-000194     507643006009826020616SWT CHOC RP LOLLY 25G  0000002000+00001314+00000+0001T   00001314+0000001225          1400 GB4150               2AZ
507644000507644               507644               170213BY     1400+00000+BY0000017605+0000017605+000000000+000002468+0000020073+0000000000+I40000020073+0000000000+Z
507644001507644200-003026     507644006003000276448REFUSE BAGS 10PCE GREEN0000004000+00001753+00000+0001T   00001753+0000001228          1400 GB4214               2AZ
507644002507644566-000320     507644006003000422890STICKERS R/DEC. NATURE 0000002000+00005262+00000+0001T   00005262+0000001228          1400 GB4130               2AZ
507644003507644112-116053     507644006006438002399TCS CARRIER BAG 38L    0000001000+00000069+00000+0001T   00000069+0000001228          1400 GB4090               2AZ
507645000507645               507645               170213BY     1400+00000+BY0000001787+0000001787+000000000+000000251+0000002030+0000000008+I20000000000+0000002030+Z
507645001507645077-000150-D   507645006003000054343GIFT-WRAP CELLPHANE CLR0000002000+00000876+00000+0001T   00000876+0000001243          1400 GB4112               2AZ
507645002507645112-116038     507645006009681820246TCS CARRIER BAG MIDI   0000001000+00000035+00000+0001T   00000035+0000001243          1400 GB4090               2AZ
507646000507646               507646               170213BY     1400+00000+BY0000001753+0000001753+000000000+000000246+0000001990+0000000009+I20000000000+0000001990+Z
507646001507646251-000074     507646006003000452255PROTECTION-PADS BLK ADH0000001000+00001753+00000+0001T   00001753+0000001247          1400 GB4810               2AZ
507647000507647               507647               170213BY     1400+00000+BY0000012306+0000012306+000000000+000001727+0000014033+0000000000+I40000014033+0000000000+Z
507647001507647112-116038     507647006009681820246TCS CARRIER BAG MIDI   0000001000+00000035+00000+0001T   00000035+0000001249          1400 GB4090               2AZ
507647002507647080-000100     507647006003000236114CARD & ENVELOPE BDAY   0000001000+00001753+00000+0001T   00001753+0000001249          1400 GB4112               2AZ
507647003507647080-000102     507647006003000236855CARD&ENVLP FEMALE AFR  0000001000+00001753+00000+0001T   00001753+0000001249          1400 GB4112               2AZ
507647004507647080-000106     507647006003000237098CARD&ENVLPE BDAY GIRL  0000001000+00001753+00000+0001T   00001753+0000001249          1400 GB4112               2AZ
507647005507647080-000100     507647006003000236114CARD & ENVELOPE BDAY   0000001000+00001753+00000+0001T   00001753+0000001249          1400 GB4112               2AZ
507647006507647080-000111     507647006003000252695CARD&ENVELPE - MUSICAL 0000001000+00001753+00000+0001T   00001753+0000001249          1400 GB4112               2AZ
507647007507647080-000105     507647006003000236237CARD & ENVELOPE BDAY   0000001000+00001753+00000+0001T   00001753+0000001249          1400 GB4112               2AZ
507647008507647080-000118     507647006003000237562CARD&ENVLPE-CONGRATS   0000001000+00001753+00000+0001T   00001753+0000001249          1400 GB4112               2AZ
507648000507648               507648               170213BY     1400+00000+BY0000005260+0000005260+000000000+000000738+0000005990+0000000008+I20000000000+0000005990+Z
507648001507648105-006948     507648006003000667192CONTAINER STORER 1.1L  0000002000+00002630+00000+0001T   00002630+0000001252          1400 GB4210               2AZ
507649000507649               507649               170213BY     1400+00000+BY0000003185+0000003185+000000000+000000449+0000003634+0000000000+I40000003634+0000000000+Z
507649001507649903-000155     507649006009803374435SWT LOLLY I LUV U HEART0000006000+00000525+00000+0001T   00000525+0000001257          1400 GB4150               2AZ
507649002507649112-116038     507649006009681820246TCS CARRIER BAG MIDI   0000001000+00000035+00000+0001T   00000035+0000001257          1400 GB4090               2AZ
507650000507650               507650               170213BY     1400+00000+BY0000000700+0000000700+000000000+000000098+0000000790+0000000008+I20000000000+0000000790+Z
507650001507650564-000012     507650006001023130075BUBBLE BOTTLE MAGIC    0000001000+00000700+00000+0001T   00000700+0000001258          1400 GB4131               2AZ
507651000507651               507651               170213BY     1400+00000+BY0000004235+0000004235+000000000+000000593+0000004828+0000000000+I40000004828+0000000000+Z
507651001507651112-116038     507651006009681820246TCS CARRIER BAG MIDI   0000001000+00000035+00000+0001T   00000035+0000001300          1400 GB4090               2AZ
507651002507651018-000177     507651006001023797513MUG MINI LOVE ASSTD    0000006000+00000700+00000+0001T   00000700+0000001300          1400 GB4515               2AZ
507652000507652               507652               170213BY     1400+00000+BY0000003542+0000003542+000000000+000000496+0000004030+0000000008+I20000000000+0000004030+Z
507652001507652018-000136     507652006001023659026MUG OCC LOVE W/PLUSH   0000001000+00003507+00000+0001T   00003507+0000001300          1400 GB4515               2AZ
507652002507652112-116038     507652006009681820246TCS CARRIER BAG MIDI   0000001000+00000035+00000+0001T   00000035+0000001300          1400 GB4090               2AZ
507653000507653               507653               170213BY     1400+00000+BY0000001490+0000001490+000000000+000000209+0000001690+0000000009+I20000000000+0000001690+Z
507653001507653077-000299     507653006003000395576G/BAG 32x25cm LRG LOVE 0000001000+00001490+00000+0001T   00001490+0000001301          1400 GB4112               2AZ
507654000507654               507654               170213BY     1400+00000+BY0000003507+0000003507+000000000+000000491+0000003990+0000000008+I20000000000+0000003990+Z
507654001507654113-000001     507654006003000088690TRAVEL MUG 400ml S/S   0000001000+00003507+00000+0001T   00003507+0000001301          1400 GB4305               2AZ
507655000507655               507655               170213BY     1400+00000+BY0000017530+0000017530+000000000+000002459+0000019980+0000000009+I20000000000+0000019980+Z
507655001507655036-000400     507655006001023886132CLOTHES-DRYER PL 8-PEG 0000001000+00002192+00000+0001T   00002192+0000001303          1400 GB4212               2AZ
507655002507655140-006008     507655006001023803214FLY-SWATTERS   SET-OF-40000001000+00002630+00000+0001T   00002630+0000001303          1400 GB4830               2AZ
507655003507655362-001105     507655006003000635917JEWELLERY BRACELETS    0000001000+00000876+00000+0001T   00000876+0000001303          1400 GB4160               2AZ
507655004507655200-000002     507655006925406821049BAG FLIP TOP 80PCE     0000001000+00002192+00000+0001T   00002192+0000001303          1400 GB4214               2AZ
507655005507655027-001010     507655006001023171481FEATHER-DUSTER PL-HNDLE0000001000+00001753+00000+0001T   00001753+0000001303          1400 GB4212               2AZ
507655006507655565-000071     507655006003000643387NOVELTY WIND UP CHATTER0000003000+00001139+00000+0001T   00001139+0000001303          1400 GB4745               2AZ
507655007507655565-004101     507655006003000548033BALL BOUNCING EGG      0000003000+00001490+00000+0001T   00001490+0000001303          1400 GB4745               2AZ
507656000507656               507656               170213BY     1400+00000+BY0000016398+0000016398+000000000+000002297+0000018695+0000000000+I40000018695+0000000000+Z
507656001507656077-000299     507656006003000395576G/BAG 32x25cm LRG LOVE 0000001000+00001490+00000+0001T   00001490+0000001305          1400 GB4112               2AZ
507656002507656368-000614     507656006001023705808PLUSH LOVE 30cm        0000001000+00008771+00000+0001T   00008771+0000001305          1400 GB4745               2AZ
507656003507656018-000136     507656006001023659026MUG OCC LOVE W/PLUSH   0000001000+00003507+00000+0001T   00003507+0000001305          1400 GB4515               2AZ
507656004507656366-002101     507656006003000617715DRESS UP MASK LIGHT UP 0000001000+00002630+00000+0001T   00002630+0000001305          1400 GB4131               2AZ
507657000507657               507657               170213BY     1400+00000+BY0000002629+0000002629+000000000+000000369+0000002990+0000000008+I20000000000+0000002990+Z
507657001507657047-000505     507657006009636901976PLUG-ADAPTOR 2-PIN     0000001000+00000876+00000+0001T   00000876+0000001311          1400 GB4880               2AZ
507657002507657004-072001     507657006003000452378CABLE-TIDY REUSE COL-C 0000001000+00001753+00000+0001T   00001753+0000001311          1400 GB4310               2AZ
507658000507658               507658               170213BY     1400+00000+BY0000001260+0000001260+000000000+000000177+0000001430+0000000007+I20000000000+0000001430+Z
507658001507658007-000166     507658006009685857316SPIRAL NOTES A6 100PG  0000001000+00000700+00000+0001T   00000700+0000001312          1400 GB4130               2AZ
507658002507658007-000145     507658006009635833087BK EXERCISE 72PG A4    0000001000+00000525+00000+0001T   00000525+0000001312          1400 GB4130               2AZ
507658003507658112-116038     507658006009681820246TCS CARRIER BAG MIDI   0000001000+00000035+00000+0001T   00000035+0000001312          1400 GB4090               2AZ
507659000507659               507659               170213BY     1400+00000+BY0000010347+0000010347+000000000+000001449+0000011790+0000000006+I20000000000+0000011790+Z
507659001507659301-085004     507659006003000420469ORN LOVE PLAQUE 21X10CM0000001000+00003507+00000+0001T   00003946+0006471319          1400 GB4505               2AZ
507659002507659077-000303     507659006001023593757GIFT-BAG PAPER MED     0000001000+00001578+00000+0001T   00001578+0000001319          1400 GB4112               2AZ
507659003507659301-086004     507659006001023860422ORN SENTIMENT PLAQ/FRAM0000001000+00005262+00000+0001T   00005262+0000001319          1400 GB4505               2AZ
507660000507660               507660               170213BY     1400+00000+BY0000003945+0000003945+000000000+000000553+0000004490+0000000008+I20000000000+0000004490+Z
507660001507660077-000324     507660006001023677594GIFT-BAG 33X45CM E/D FL0000001000+00001753+00000+0001T   00001753+0000001319          1400 GB4112               2AZ
507660002507660251-000002     507660006003000093991TAPE D-SIDED 24x1000mm 0000001000+00002192+00000+0001T   00002192+0000001319          1400 GB4810               2AZ
507661000507661               507661               170213BY     1400+00000+BY0000002663+0000002663+000000000+000000373+0000003030+0000000006+I20000000000+0000003030+Z
507661001507661018-000119     507661006003000336074MUG DAILY STRAIGHT     0000002000+00001314+00000+0001T   00001753+0008171332          1400 GB4515               2AZ
507661002507661112-116038     507661006009681820246TCS CARRIER BAG MIDI   0000001000+00000035+00000+0001T   00000035+0000001332          1400 GB4090               2AZ
507662000507662               507662               170213BY     1400+00000+BY0000005699+0000005699+000000000+000000799+0000006490+0000000008+I20000000000+0000006490+Z
507662001507662206-000220     507662006003000631704EGG TIMER COLOUR-CHANGE0000001000+00002630+00000+0001T   00002630+0000001333          1400 GB4321               2AZ
507662002507662089-060027     507662006003000245871KEY-CHAIN HEART 6X6cm  0000001000+00003069+00000+0001T   00003069+0000001333          1400 GB4205               2AZ
507663000507663               507663               170213BY     1400+00000+BY0000001578+0000001578+000000000+000000221+0000001799+0000000000+I40000001799+0000000000+Z
507663001507663077-000303     507663006001023593757GIFT-BAG PAPER MED     0000001000+00001578+00000+0001T   00001578+0000001338          1400 GB4112               2BZ
507664000507664               507664               170213BY     1400+00000+BY0000024560+0000024560+000000000+000003439+0000027990+0000000009+I20000000000+0000027990+Z
507664001507664497-068757     507664000078257687572AIR-BED DOWNY-T 99x191 0000001000+00024560+00000+0001T   00024560+0000001645          1400 GB4787               2AZ
507665000507665               507665               170213BY     1400+00000+BY0000013153+0000013153+000000000+000001843+0000014996+0000000000+I40000014996+0000000000+Z
507665001507665266-001020     507665006001023791689MASK & 2 SWORDS PL SET 0000002000+00004823+00000+0001T   00004823+0000001652          1400 GB4710               2AZ
507665002507665903-000616     507665006003000644827SWT HS SWORD 60cm      0000001000+00003507+00000+0001T   00003507+0000001652          1400 GB4150               2AZ
507666000507666               507666               170213BY     1400+00000+BY0000002192+0000002192+000000000+000000307+0000002490+0000000009+I20000000000+0000002490+Z
507666001507666566-000359     507666006003000582709STICKER BOOK LOVE SPARK0000001000+00002192+00000+0001T   00002192+0000001701          1400 GB4130               2AZ
507667000507667               507667               170213BY     1400+00000+BY0000007502+0000007502+000000000+000001051+0000008550+0000000003+I20000000000+0000008550+Z
507667001507667080-000127     507667006003000424351VALENTINES DAY 36x24CM 0000001000+00002192+00000+0001T   00002192+0000001705          1400 GB4112               2AZ
507667002507667031-006533     507667006001023995865P/FRAME 32X18CM 2-HOLE 0000001000+00005262+00000+0001T   00005262+0000001705          1400 GB4510               2AZ
507667003507667112-116069     507667006009681820277TCS CARRIER BAG JUMBO  0000001000+00000048+00000+0001T   00000048+0000001705          1400 GB4090               2AZ
507668000507668               507668               170213BY     1400+00000+BY0000003241+0000003241+000000000+000000456+0000003690+0000000007+I20000000000+0000003690+Z
507668001507668304-001204     507668006001023737984FLOWER OCC. TEDDY/ROSES0000002000+00001402+00000+0001T   00001490+0006471728          1400 GB4510               2AZ
507668002507668080-000133     507668006003000535613CARD&ENV MINI ASTD DSGN0000001000+00000437+00000+0001T   00000437+0000001728          1400 GB4112               2AZ
507669000507669               507669               170213BY     1400+00000+BY0000003068+0000003068+000000000+000000430+0000003490+0000000008+I20000000000+0000003490+Z
507669001507669077-000303     507669006001023593757GIFT-BAG PAPER MED     0000001000+00001578+00000+0001T   00001578+0000001738          1400 GB4112               2AZ
507669002507669077-000384     507669006003000275243G/BAG HOT STMP 18x23CM 0000001000+00001490+00000+0001T   00001490+0000001738          1400 GB4112               2AZ
507670000507670               507670               170213BY     1400+00000+BY0000005133+0000005133+000000000+000000719+0000005850+0000000002+I20000000000+0000005850+Z
507670001507670077-000932     507670006003000409808G/WRAP 700mmx5m PATTERN0000001000+00003507+00000+0001T   00003507+0000001740          1400 GB4112               2AZ
507670002507670080-000124     507670006003000297733CARD & ENV VALENTINES  0000001000+00001578+00000+0001T   00001578+0000001740          1400 GB4112               2AZ
507670003507670112-116069     507670006009681820277TCS CARRIER BAG JUMBO  0000001000+00000048+00000+0001T   00000048+0000001740          1400 GB4090               2AZ
507671000507671               507671               170213BY     1400+00000+BY0000009646+0000009646+000000000+000001351+0000010990+0000000007+I20000000000+0000010990+Z
507671001507671001-000175     507671006001023788108B/MUG GLS LOVE 380ML   0000002000+00004385+00000+0001T   00004385+0000001742          1400 GB4515               2AZ
507671002507671077-000151     507671006008766114676GIFT-WRAP C/PHANE ASSTD0000001000+00000876+00000+0001T   00000876+0000001742          1400 GB4112               2AZ
507672000507672               507672               170213BY     1400+00000+BY0000005644+0000005644+000000000+000000791+0000006435+0000000000+I40000006435+0000000000+Z
507672001507672200-000100     507672006001023764003CUPS 25PCE DISPOSABLE  0000001000+00001928+00000+0001T   00001928+0000001752          1400 GB4214               2AZ
507672002507672071-081104-A   507672006003000326662GLUE-STICK 8g CRD-OF-3 0000003000+00001227+00000+0001T   00001227+0000001752          1400 GB4130               2AZ
507672003507672112-116038     507672006009681820246TCS CARRIER BAG MIDI   0000001000+00000035+00000+0001T   00000035+0000001752          1400 GB4090               2AZ
507673000507673               507673               170213BY     1400+00000+BY0000001139+0000001139+000000000+000000160+0000001290+0000000009+I20000000000+0000001290+Z
507673001507673903-000087     507673006001704000161SWT SPECKLED-EGGS 50G  0000001000+00001139+00000+0001T   00001139+0000001753          1400 GB4150               2AZ
507674000507674               507674               170213BY     1400+00000+BY0000017749+0000017749+000000000+000002487+0000020230+0000000006+I20000000000+0000020230+Z
507674001507674203-000006     507674006001023752789COASTER-SET 4PCE       0000001000+00007016+00000+0001T   00008771+0008191758          1400 GB4300               2AZ
507674002507674159-000887     507674006001023730817HOOKS PL SUCTION 9PCE  0000001000+00002192+00000+0001T   00002192+0000001758          1400 GB4200               2AZ
507674003507674030-000038     507674006003000455706P/WALL CANVAS 20X20CM  0000001000+00007016+00000+0001T   00007016+0000001758          1400 GB4505               2AZ
507674004507674112-116038     507674006009681820246TCS CARRIER BAG MIDI   0000001000+00000035+00000+0001T   00000035+0000001758          1400 GB4090               2AZ
507674005507674077-000342     507674006003000273942G/BAG PAPER LRG 25X32CM0000001000+00001490+00000+0001T   00001490+0000001758          1400 GB4112               2AZ
507675000507675               507675               170213BY     1400+00000+BY0000003857+0000003857+000000000+000000541+0000004390+0000000008+I20000000000+0000004390+Z
507675001507675077-000245     507675006001023759214GIFT-RIBBON METALLICx2 0000001000+00001227+00000+0001T   00001227+0000001758          1400 GB4112               2AZ
507675002507675466-000061     507675006003000611188BALL WATER 15CM ASSTD  0000001000+00002630+00000+0001T   00002630+0000001758          1400 GB4785               2AZ
507676000507676               507676               170213BY     1400+00000+BY0000004467+0000004467+000000000+000000626+0000005090+0000000003+I20000000000+0000005090+Z
507676001507676903-000194     507676006009826020616SWT CHOC RP LOLLY 25G  0000001000+00001314+00000+0001T   00001314+0000001759          1400 GB4150               2AZ
507676002507676903-000155     507676006009803374435SWT LOLLY I LUV U HEART0000001000+00000525+00000+0001T   00000525+0000001759          1400 GB4150               2AZ
507676003507676903-000194     507676006009826020616SWT CHOC RP LOLLY 25G  0000002000+00001314+00000+0001T   00001314+0000001759          1400 GB4150               2AZ
A17021300                                          10595989BYSLAVE 2                       GB42IC
C50765900                                          170213BY301-085007     13183902SLAVE 2     GB42IC0000000000+0000000000+0010000001000+
M17021391                              CASH        BYSLAVE 2                       Z-REPORT No.   638TOTAL (Sales - Refunds)           4000.55       CASH TO BE BANKED                 2558.00       DEBIT CARDS                          0.00       CREDIT CARDS                      1442.55       Z-READING                         4000.55       AIRTIME DEBIT CARD SALES             0.00       AIRTIME CARD SALES                   0.00       OVERS/UNDERS                         0.00       AIRTIME CASH SALES                   0.00       GIFT CARDS                           0.00       GIFT CARD CASH SALES                 0.00       T O T A L  CASH PAYOUTS              0.00                                                                                                                                                                                                                                                                                                                                                      Z
M17021392                              CASH        BYABSENT                                                                                                                                                                                          ANNUAL LEAVE                                                                                                                                                                                    DAY OFF                                                                                                                                                                                         COMMENTS                                                                                                                                                                                                                                                                                                                                                                                       Z
Y17021300                                          BY00000000351084+000050
ZBY17021319233 SLAVE 2      SALES DATA                     NEXT INVOICE NO.  507677 0638
X BY Slave 2 First invoice 507627 170213 Last invoice 507676 170213 Next invoice 507677 Total number of records 000000187 clbackup completed 19:23:41
