197342000197342               197342               170213CA     1400+00000+CA0000001490+0000001490+000000000+000000209+0000001690+0000000009+I20000000000+0000001690+Z
197342001197342077-000399     197342006003000139514GIFT BAG 18X23CM E/DAY 0000001000+00001490+00000+0001T   00001490+0000000911          1400 GK6112               1AZ
197343000197343               197343               170213CA     1400+00000+CA0000001753+0000001753+000000000+000000246+0000001999+0000000000+I40000001999+0000000000+Z
197343001197343007-000094     197343006003000659289ENVELOPES WHT 5PK C4   0000001000+00001753+00000+0001T   00001753+0000000912          1400 GK6130               1AZ
197344000197344               197344               170213CA     1400+00000+CA0000003681+0000003681+000000000+000000516+0000004197+0000000000+I40000004197+0000000000+Z
197344001197344050-000361-Z   197344006001023535382PADLOCK IRON 20mm CARD 0000001000+00001928+00000+0001T   00001928+0000000913          1400 GK6855               1AZ
197344002197344080-000117     197344006003000236350CARD & ENVELOPE THANK U0000001000+00001753+00000+0001T   00001753+0000000913          1400 GK6112               1AZ
197345000197345               197345               170213CA     1400+00000+CA0000003504+0000003504+000000000+000000492+0000003990+0000000006+I20000000000+0000003990+Z
197345001197345077-000150-D   197345006003000054343GIFT-WRAP CELLPHANE CLR0000004000+00000876+00000+0001T   00000876+0000000916          1400 GK6112               1AZ
197346000197346               197346               170213CA     1400+00000+CA0000001227+0000001227+000000000+000000172+0000001390+0000000009+I20000000000+0000001390+Z
197346001197346007-000160     197346006009685857286NOTE-BOOK A5 SHORTHAND 0000001000+00001227+00000+0001T   00001227+0000000918          1400 GK6130               1AZ
197347000197347               197347               170213CA     1400+00000+CA0000005310+0000005310+000000000+000000744+0000006050+0000000004+I20000000000+0000006050+Z
197347001197347366-000125     197347006003000006786DRESSUP WINGS/WAND/BAND0000001000+00005262+00000+0001T   00005262+0000000934          1400 GK6131               1AZ
197347002197347112-116069     197347006009681820277TCS CARRIER BAG JUMBO  0000001000+00000048+00000+0001T   00000048+0000000934          1400 GK6090               1AZ
197348000197348               197348               170213CA     1400+00000+CA0000001314+0000001314+000000000+000000184+0000001490+0000000008+I20000000000+0000001490+Z
197348001197348077-000310     197348006001023608635GIFT-BAG 18X23CM GLOSS 0000001000+00001314+00000+0001T   00001314+0000000936          1400 GK6112               1AZ
197349000197349               197349               170213CA     1400+00000+CA0000010520+0000010520+000000000+000001476+0000011990+0000000006+I20000000000+0000011990+Z
197349001197349304-000720     197349006001023843050F/BUNCH ROSE 6-HEAD AST0000004000+00002630+00000+0001T   00002630+0000000941          1400 GK6510               1AZ
197350000197350               197350               170213CA     1400+00000+CA0000000350+0000000350+000000000+000000049+0000000390+0000000009+I20000000000+0000000390+Z
197350001197350007-000167     197350006009685857347SPIRAL NOTES A7 72PG   0000001000+00000350+00000+0001T   00000350+0000000947          1400 GK6130               1AZ
197351000197351               197351               170213CA     1400+00000+CA0000002192+0000002192+000000000+000000307+0000002490+0000000009+I20000000000+0000002490+Z
197351001197351050-000363-Z   197351006001023475282PADLOCK IRON 32mm CARD 0000001000+00002192+00000+0001T   00002192+0000001009          1400 GK6855               1AZ
197352000197352               197352               170213CA     1400+00000+CA0000003419+0000003419+000000000+000000479+0000003890+0000000008+I20000000000+0000003890+Z
197352001197352106-003130     197352006001023625755ICE CUBE TRAY 21-CUBE  0000001000+00002192+00000+0001T   00002192+0000001019          1400 GK6210               1AZ
197352002197352903-000111     197352006001704006378SWT LIQUORICE-TWISTS   0000001000+00001227+00000+0001T   00001227+0000001019          1400 GK6150               1AZ
197353000197353               197353               170213CA     1400+00000+CA0000001753+0000001753+000000000+000000246+0000001990+0000000009+I20000000000+0000001990+Z
197353001197353077-000457     197353006003000285662G/BAG METALLIC JMB SOL 0000001000+00001753+00000+0001T   00001753+0000001022          1400 GK6112               1AZ
197354000197354               197354               170213CA     1400+00000+CA0000000788+0000000788+000000000+000000111+0000000890+0000000009+I20000000000+0000000890+Z
197354001197354903-000138     197354006002099004314SWT GS WINE GUMS 60G   0000001000+00000788+00000+0001T   00000788+0000001044          1400 GK6150               1AZ
197355000197355               197355               170213CA     1400+00000+CA0000007010+0000007010+000000000+000000982+0000007992+0000000000+I40000007992+0000000000+Z
197355001197355105-001025-A   197355006009654960979CONTAINERS CLEAR 4PCE  0000003000+00001928+00000+0001T   00001928+0000001046          1400 GK6210               1AZ
197355002197355200-000130     197355006001023645067DESSERT-SPOONS 10PCE   0000002000+00000613+00000+0001T   00000613+0000001046          1400 GK6214               1AZ
197356000197356               197356               170213CA     1400+00000+CA0000015304+0000015304+000000000+000002145+0000017449+0000000000+I40000017449+0000000000+Z
197356001197356301-001127     197356006946859290169ORN FOUNTAIN CAS/W.FALL0000001000+00006139+00000+0001T   00006139+0000001055          1400 GK6505               1AZ
197356002197356046-000012     197356006904708013062BATTERIES AA  CARD-OF-40000001000+00001314+00000+0001T   00001314+0000001055          1400 GK6312               1AZ
197356003197356039-000100     19735600600300060614625CM WHITE CANDLE 6PC  0000001000+00002630+00000+0001T   00002630+0000001055          1400 GK6510               1AZ
197356004197356039-000796     197356006001023617750CANDLES TEALITE BOX-8  0000001000+00004385+00000+0001T   00004385+0000001055          1400 GK6510               1AZ
197356005197356112-116069     197356006009681820277TCS CARRIER BAG JUMBO  0000001000+00000048+00000+0001T   00000048+0000001055          1400 GK6090               1AZ
197356006197356903-000200     197356006009826020234SWT CHOC RP CHOCO 23G  0000001000+00000788+00000+0001T   00000788+0000001055          1400 GK6150               1AZ
197357000197357               197357               170213CA     1400+00000+CA0000001753+0000001753+000000000+000000246+0000001990+0000000009+I20000000000+0000001990+Z
197357001197357077-000289     197357006001023901996GIFT BOX 20x25x11cm    0000001000+00001753+00000+0001T   00001753+0000001058          1400 GK6112               1AZ
197358000197358               197358               170213CA     1400+00000+CA0000000437+0000000437+000000000+000000062+0000000490+0000000009+I20000000000+0000000490+Z
197358001197358080-000133-A   197358006003000647019MINI VALENTINES CARD   0000001000+00000437+00000+0001T   00000437+0000001101          1400 GK6112               1AZ
197359000197359               197359               170213CA     1400+00000+CA0000001959+0000001959+000000000+000000277+0000002230+0000000006+I20000000000+0000002230+Z
197359001197359304-001011     197359006001023806727FLWR ROSE RED W/BEAR   0000001000+00000613+00000+0001T   00000788+0006471103          1400 GK6510               1AZ
197359002197359080-000133-A   197359006003000647019MINI VALENTINES CARD   0000003000+00000437+00000+0001T   00000437+0000001103          1400 GK6112               1AZ
197359003197359112-116038     197359006009681820246TCS CARRIER BAG MIDI   0000001000+00000035+00000+0001T   00000035+0000001103          1400 GK6090               1AZ
197360000197360               197360               170213CA     1400+00000+CA0000005746+0000005746+000000000+000000806+0000006550+0000000002+I20000000000+0000006550+Z
197360001197360077-000299-A   197360006003000670888GIFT-BAG PAPER JMB LOVE0000001000+00001753+00000+0001T   00001753+0000001107          1400 GK6112               1AZ
197360002197360031-000864-A   197360006001023798350P/FRAME MAHOGANY 10X15 0000001000+00003069+00000+0001T   00003069+0000001107          1400 GK6510               1AZ
197360003197360039-000319-5   197360006003000442867B/CANDLES LRG NUMBER-5 0000001000+00000876+00000+0001T   00000876+0000001107          1400 GK6510               1AZ
197360004197360112-116069     197360006009681820277TCS CARRIER BAG JUMBO  0000001000+00000048+00000+0001T   00000048+0000001107          1400 GK6090               1AZ
197361000197361               197361               170213CA     1400+00000+CA0000003541+0000003541+000000000+000000497+0000004030+0000000008+I20000000000+0000004030+Z
197361001197361366-000282     197361006003000611027DRESS UP SLEEVE TATTOO 0000002000+00001753+00000+0001T   00001753+0000001116          1400 GK6131               1AZ
197361002197361112-116038     197361006009681820246TCS CARRIER BAG MIDI   0000001000+00000035+00000+0001T   00000035+0000001116          1400 GK6090               1AZ
197362000197362               197362               170213CA     1400+00000+CA0000000874+0000000874+000000000+000000124+0000000990+0000000008+I20000000000+0000000990+Z
197362001197362007-000203     197362006009685850409FILE DISPLAY FLDR ASSTD0000002000+00000437+00000+0001T   00000437+0000001119          1400 GK6130               1AZ
197363000197363               197363               170213CA     1400+00000+CA0000000613+0000000613+000000000+000000086+0000000690+0000000009+I20000000000+0000000690+Z
197363001197363304-001011     197363006001023806727FLWR ROSE RED W/BEAR   0000001000+00000613+00000+0001T   00000788+0006471124          1400 GK6510               1AZ
197364000197364               197364               170213CA     1400+00000+CA0000000035+0000000035+000000000+000000005+0000000040+0000000000+I20000000000+0000000040+Z
197364001197364112-116038     197364006009681820246TCS CARRIER BAG MIDI   0000001000+00000035+00000+0001T   00000035+0000001125          1400 GK6090               1AZ
197365000197365               197365               170213CA     1400+00000+CA0000000613+0000000613+000000000+000000086+0000000690+0000000009+I20000000000+0000000690+Z
197365001197365304-001011     197365006001023806727FLWR ROSE RED W/BEAR   0000001000+00000613+00000+0001T   00000788+0006471126          1400 GK6510               1AZ
197366000197366               197366               170213CA     1400+00000+CA0000005310+0000005310+000000000+000000744+0000006050+0000000004+I20000000000+0000006050+Z
197366001197366566-000321     197366006003000423019STICKER R/DEC BALLERINA0000001000+00005262+00000+0001T   00005262+0000001127          1400 GK6130               1AZ
197366002197366112-116069     197366006009681820277TCS CARRIER BAG JUMBO  0000001000+00000048+00000+0001T   00000048+0000001127          1400 GK6090               1AZ
197367000197367               197367               170213CA     1400+00000+CA0000005523+0000005523+000000000+000000774+0000006290+0000000007+I20000000000+0000006290+Z
197367001197367903-000087     197367006001704000161SWT SPECKLED-EGGS 50G  0000001000+00001139+00000+0001T   00001139+0000001128          1400 GK6150               1AZ
197367002197367041-007001-B   197367006003000636983H/GLOW LIQUID LAVENDER 0000001000+00002192+00000+0001T   00002192+0000001128          1400 GK6200               1AZ
197367003197367159-000887     197367006001023730817HOOKS PL SUCTION 9PCE  0000001000+00002192+00000+0001T   00002192+0000001128          1400 GK6200               1AZ
197368000197368               197368               170213CA     1400+00000+CA0000002192+0000002192+000000000+000000307+0000002490+0000000009+I20000000000+0000002490+Z
197368001197368041-007001-A   197368006003000636860H/GLOW LIQUID CHERY    0000001000+00002192+00000+0001T   00002192+0000001128          1400 GK6200               1AZ
197369000197369               197369               170213CA     1400+00000+CA0000000876+0000000876+000000000+000000123+0000000990+0000000009+I20000000000+0000000990+Z
197369001197369105-001010     197369006002580007329LUNCH-BOX 1L  ASSTD    0000001000+00000876+00000+0001T   00000876+0000001129          1400 GK6210               1AZ
197370000197370               197370               170213CA     1400+00000+CA0000001314+0000001314+000000000+000000184+0000001490+0000000008+I20000000000+0000001490+Z
197370001197370077-000312     197370006001023608697GIFT-BAG 10X35CM GLOSS 0000001000+00001314+00000+0001T   00001314+0000001130          1400 GK6112               1AZ
197371000197371               197371               170213CA     1400+00000+CA0000002104+0000002104+000000000+000000295+0000002399+0000000000+I40000002399+0000000000+Z
197371001197371903-000095     197371006001704011495SWT SPECKLED-EGGS 100G 0000001000+00002104+00000+0001T   00002104+0000001133          1400 GK6150               1AZ
197372000197372               197372               170213CA     1400+00000+CA0000003555+0000003555+000000000+000000498+0000004053+0000000000+I40000004053+0000000000+Z
197372001197372079-000214     197372006001023420053ART-SET  PNT+CRAYN+PENS0000001000+00003507+00000+0001T   00003507+0000001134          1400 GK6130               1AZ
197372002197372112-116069     197372006009681820277TCS CARRIER BAG JUMBO  0000001000+00000048+00000+0001T   00000048+0000001134          1400 GK6090               1AZ
197373000197373               197373               170213CA     1400+00000+CA0000002192+0000002192+000000000+000000307+0000002490+0000000009+I20000000000+0000002490+Z
197373001197373041-007001-C   197373006003000637102H/GLOW LIQUID VANILLA  0000001000+00002192+00000+0001T   00002192+0000001328          1400 GK6200               1AZ
197374000197374               197374               170213CA     1400+00000+CA0000005523+0000005523+000000000+000000774+0000006290+0000000007+I20000000000+0000006290+Z
197374001197374077-000348     197374006001023483287GIFT-BOWS 4,5cm 8PCE   0000001000+00001578+00000+0001T   00001578+0000001434          1400 GK6112               1AZ
197374002197374016-006515     197374006003000295555S/JAR GLS EMBOSS. 250ML0000001000+00001753+00000+0001T   00001753+0000001434          1400 GK6300               1AZ
197374003197374050-000363-Z   197374006001023475282PADLOCK IRON 32mm CARD 0000001000+00002192+00000+0001T   00002192+0000001434          1400 GK6855               1AZ
197375000197375               197375               170213CA     1400+00000+CA0000002102+0000002102+000000000+000000296+0000002390+0000000008+I20000000000+0000002390+Z
197375001197375079-009702-D   197375008427973059354PAPER SIRIO A2 RED COL 0000002000+00001051+00000+0001T   00001051+0000001506          1400 GK6130               1AZ
197376000197376               197376               170213CA     1400+00000+CA0000004296+0000004296+000000000+000000602+0000004890+0000000008+I20000000000+0000004890+Z
197376001197376301-085008     197376006003000673933ORN OCC.LOVE TINSEL HRT0000001000+00003069+00000+0001T   00003069+0000001508          1400 GK6505               1AZ
197376002197376077-000245     197376006001023759214GIFT-RIBBON METALLICx2 0000001000+00001227+00000+0001T   00001227+0000001508          1400 GK6112               1AZ
197377000197377               197377               170213CA     1400+00000+CA0000023680+0000023680+000000000+000003317+0000026997+0000000000+I40000026997+0000000000+Z
197377001197377261-003821     197377006003000398713GUN HAND COWBOY PLAYSET0000002000+00006139+00000+0001T   00006139+0000001517          1400 GK6710               1AZ
197377002197377586-099637     197377006001492996370WATCH LDS DIGITAL TURQ 0000001000+00011402+00000+0001T   00011402+0000001517          1400 GK6160               1AZ
197378000197378               197378               170213CA     1400+00000+CA0000001051+0000001051+000000000+000000148+0000001190+0000000009+I20000000000+0000001190+Z
197378001197378079-009702-E   197378008427973059439PAPER SIRIO A2 BLUE    0000001000+00001051+00000+0001T   00001051+0000001517          1400 GK6130               1AZ
197379000197379               197379               170213CA     1400+00000+CA0000001357+0000001357+000000000+000000191+0000001540+0000000008+I20000000000+0000001540+Z
197379001197379079-009702-F   197379008427973059392PAPER SIRIO A2 GREEN   0000001000+00001051+00000+0001T   00001051+0000001518          1400 GK6130               1AZ
197379002197379079-009700-L   197379006003000546350PAPER SIRIO A4 YELLOW  0000001000+00000306+00000+0001T   00000306+0000001518          1400 GK6130               1AZ
197380000197380               197380               170213CA     1400+00000+CA0000001752+0000001752+000000000+000000246+0000001990+0000000008+I20000000000+0000001990+Z
197380001197380007-000127     197380006009685853431BOOK H/COVER MEMO 144PG0000001000+00000876+00000+0001T   00000876+0000001518          1400 GK6130               1AZ
197380002197380306-000021-A   197380006001023891358EARBUDS COTTON 100PCE  0000001000+00000876+00000+0001T   00000876+0000001518          1400 GK6200               1AZ
197381000197381               197381               170213CA     1400+00000+CA0000001927+0000001927+000000000+000000271+0000002198+0000000000+I40000002198+0000000000+Z
197381001197381903-000155     197381006009803374435SWT LOLLY I LUV U HEART0000001000+00000525+00000+0001T   00000525+0000001520          1400 GK6150               1AZ
197381002197381304-001204     197381006001023737984FLOWER OCC. TEDDY/ROSES0000001000+00001402+00000+0001T   00001490+0006471520          1400 GK6510               1AZ
197382000197382               197382               170213CA     1400+00000+CA0000003507+0000003507+000000000+000000491+0000003990+0000000008+I20000000000+0000003990+Z
197382001197382562-000011     197382006003000600984PLAY DOUGH NEON TUBE   0000001000+00003507+00000+0001T   00003507+0000001524          1400 GK6755               1AZ
197383000197383               197383               170213CA     1400+00000+CA0000001578+0000001578+000000000+000000221+0000001799+0000000000+I40000001799+0000000000+Z
197383001197383080-000124     197383006003000297733CARD & ENV VALENTINES  0000001000+00001578+00000+0001T   00001578+0000001525          1400 GK6112               1AZ
197384000197384               197384               170213CA     1400+00000+CA0000001578+0000001578+000000000+000000221+0000001790+0000000009+I20000000000+0000001790+Z
197384001197384251-000031     197384006001023515827MASKING-TAPE 24mmx40m  0000001000+00001578+00000+0001T   00001578+0000001527          1400 GK6810               1AZ
197385000197385               197385               170213CA     1400+00000+CA0000011401+0000011401+000000000+000001597+0000012990+0000000008+I20000000000+0000012990+Z
197385001197385027-000231     197385006001023749598MOP-REFILL   WONDERGRIP0000001000+00002630+00000+0001T   00002630+0000001531          1400 GK6212               1AZ
197385002197385027-000230     197385006001023606198MOP COMPLETE WONDERMOP 0000001000+00008771+00000+0001T   00008771+0000001531          1400 GK6212               1AZ
197386000197386               197386               170213CA     1400+00000+CA0000022148+0000022148+000000000+000003103+0000025250+0000000001+I20000000000+0000025250+Z
197386001197386019-000080     197386006001023775740VASE GLS FLORIST BALL  0000001000+00008771+00000+0001T   00008771+0000001539          1400 GK6510               1AZ
197386002197386039-082106     197386006001023847348C/VOTIVE 8PC VANILLA   0000001000+00005262+00000+0001T   00005262+0000001539          1400 GK6510               1AZ
197386003197386016-006512     197386006001023908032S/JAR GLS EAPPLE 3.7L  0000001000+00007016+00000+0001T   00007016+0000001539          1400 GK6300               1AZ
197386004197386112-116069     197386006009681820277TCS CARRIER BAG JUMBO  0000001000+00000048+00000+0001T   00000048+0000001539          1400 GK6090               1AZ
197386005197386903-002851     197386000000087108538MENTOS ROLL STRAWBERRY 0000001000+00001051+00000+0001T   00001051+0000001539          1400 GK6150               1AZ
197387000197387               197387               170213CA     1400+00000+CA0000017722+0000017722+000000000+000002488+0000020210+0000000000+I20000000000+0000020210+Z
197387001197387112-116069     197387006009681820277TCS CARRIER BAG JUMBO  0000004000+00000048+00000+0001T   00000048+0000001541          1400 GK6090               1AZ
197387002197387036-000063     197387006009654960436COATHANGERS VIRGIN 5PCE0000010000+00001753+00000+0001T   00001753+0000001541          1400 GK6212               1AZ
197388000197388               197388               170213CA     1400+00000+CA0000000876+0000000876+000000000+000000123+0000000999+0000000000+I40000000999+0000000000+Z
197388001197388077-000302     197388008010410010195GIFT-BAG 18X23CM E/D   0000001000+00000876+00000+0001T   00000876+0000001543          1400 GK6112               1AZ
197389000197389               197389               170213CA     1400+00000+CA0000008819+0000008819+000000000+000001235+0000010054+0000000000+I40000010054+0000000000+Z
197389001197389368-000020     197389006003000672028PLUSH DINOSAUR 37cm    0000001000+00008771+00000+0001T   00008771+0000001544          1400 GK6745               1AZ
197389002197389112-116069     197389006009681820277TCS CARRIER BAG JUMBO  0000001000+00000048+00000+0001T   00000048+0000001544          1400 GK6090               1AZ
197390000197390               197390               170213CA     1400+00000+CA0000002630+0000002630+000000000+000000369+0000002990+0000000009+I20000000000+0000002990+Z
197390001197390046-000016-VP  197390006003000537990BATTERIES HP AAx8+AAAx40000001000+00002630+00000+0001T   00002630+0000001544          1400 GK6312               1AZ
197391000197391               197391               170213CA     1400+00000+CA0000007892+0000007892+000000000+000001106+0000008990+0000000008+I20000000000+0000008990+Z
197391001197391018-050000     197391006003000412679MUG OCC LOVE TWIN BEAR 0000001000+00006139+00000+0001T   00006139+0000001545          1400 GK6515               1AZ
197391002197391089-000504     197391006001023701886KEY-CHAIN SNAP-HOOK    0000001000+00001753+00000+0001T   00001753+0000001545          1400 GK6205               1AZ
197392000197392               197392               170213CA     1400+00000+CA0000011620+0000011620+000000000+000001628+0000013248+0000000000+I40000013248+0000000000+Z
197392001197392089-000018     197392006003000176724KEY CHAIN INSPIRATION  0000001000+00003507+00000+0001T   00003507+0000001547          1400 GK6205               1AZ
197392002197392077-000303     197392006001023593757GIFT-BAG PAPER MED     0000001000+00001578+00000+0001T   00001578+0000001547          1400 GK6112               1AZ
197392003197392018-005009     197392006001023725608MUG W/PLUSH-BEAR LOVE  0000001000+00003507+00000+0001T   00003507+0000001547          1400 GK6515               1AZ
197392004197392903-000297     197392006001704002950SWT MS WILD BERRY 50G  0000001000+00000876+00000+0001T   00000876+0000001547          1400 GK6150               1AZ
197392005197392903-000095     197392006001704011495SWT SPECKLED-EGGS 100G 0000001000+00002104+00000+0001T   00002104+0000001547          1400 GK6150               1AZ
197392006197392112-116069     197392006009681820277TCS CARRIER BAG JUMBO  0000001000+00000048+00000+0001T   00000048+0000001547          1400 GK6090               1AZ
197393000197393               197393               170213CA     1400+00000+CA0000002630+0000002630+000000000+000000369+0000002990+0000000009+I20000000000+0000002990+Z
197393001197393033-006003     197393006001023678584SEWING-KIT             0000001000+00002630+00000+0001T   00002630+0000001547          1400 GK6200               1AZ
197394000197394               197394               170213CA     1400+00000+CA0000001753+0000001753+000000000+000000246+0000001990+0000000009+I20000000000+0000001990+Z
197394001197394077-000308     197394006001023595812GIFT-BAG 33X45CM E/DAY 0000001000+00001753+00000+0001T   00001753+0000001547          1400 GK6112               1AZ
197395000197395               197395               170213CA     1400+00000+CA0000003067+0000003067+000000000+000000430+0000003490+0000000007+I20000000000+0000003490+Z
197395001197395018-000119     197395006003000336074MUG DAILY STRAIGHT     0000001000+00001314+00000+0001T   00001753+0008171549          1400 GK6515               1AZ
197395002197395018-000200     197395006001023816573M/DAILY V-SHAPE PSYCH  0000001000+00001753+00000+0001T   00001753+0000001549          1400 GK6515               1AZ
197396000197396               197396               170213CA     1400+00000+CA0000007062+0000007062+000000000+000000990+0000008050+0000000002+I20000000000+0000008050+Z
197396001197396112-116069     197396006009681820277TCS CARRIER BAG JUMBO  0000001000+00000048+00000+0001T   00000048+0000001549          1400 GK6090               1AZ
197396002197396200-000200     197396006008766091144BAKING ALUM FOIL 2PCE  0000001000+00002192+00000+0001T   00002192+0000001549          1400 GK6214               1AZ
197396003197396072-020354     197396006001023649980DOG/CAT-BOWL LARGE     0000001000+00002630+00000+0001T   00002630+0000001549          1400 GK6870               1AZ
197396004197396028-085274     197396006001023641571BBQ LIGHTER         H&L0000001000+00002192+00000+0001T   00002192+0000001549          1400 GK6305               1AZ
197397000197397               197397               170213CA     1400+00000+CA0000002015+0000002015+000000000+000000283+0000002290+0000000008+I20000000000+0000002290+Z
197397001197397080-000133     197397006003000535613CARD&ENV MINI ASTD DSGN0000001000+00000437+00000+0001T   00000437+0000001550          1400 GK6112               1AZ
197397002197397006-000214-A   197397006003000311057P/GIRL JNR INVITE 6PCE 0000001000+00001578+00000+0001T   00001578+0000001550          1400 GK6131               1AZ
197398000197398               197398               170213CA     1400+00000+CA0000006360+0000006360+000000000+000000891+0000007250+0000000001+I20000000000+0000007250+Z
197398001197398018-000127     197398006001023380289MUG OCC STRAIGHT LOVE  0000004000+00001578+00000+0001T   00001753+0006471551          1400 GK6515               1AZ
197398002197398112-116069     197398006009681820277TCS CARRIER BAG JUMBO  0000001000+00000048+00000+0001T   00000048+0000001551          1400 GK6090               1AZ
197399000197399               197399               170213CA     1400+00000+CA0000008641+0000008641+000000000+000001211+0000009852+0000000000+I40000009852+0000000000+Z
197399001197399368-000175     197399006003000270316PLUSH BEAR 4 ASSTD 18CM0000001000+00006139+00000+0001T   00006139+0000001554          1400 GK6745               1AZ
197399003197399077-000315     197399006003000181186GIFT-BAG 20x28cm MATT  0000001000+00001578+00000+0001T   00001578+0000001554          1400 GK6112               1AZ
197399004197399112-116069     197399006009681820277TCS CARRIER BAG JUMBO  0000001000+00000048+00000+0001T   00000048+0000001554          1400 GK6090               1AZ
197399005197399077-000011-D   197399006001023808554TISSUE-WRAP WHITE 10PCE0000001000+00000876+00000+0001T   00000876+0000001554          1400 GK6112               1AZ
197400000197400               197400               170213CA     1400+00000+CA0000010571+0000010571+000000000+000001481+0000012050+0000000002+I20000000000+0000012050+Z
197400001197400112-116069     197400006009681820277TCS CARRIER BAG JUMBO  0000001000+00000048+00000+0001T   00000048+0000001557          1400 GK6090               1AZ
197400002197400018-000136     197400006001023659026MUG OCC LOVE W/PLUSH   0000001000+00003507+00000+0001T   00003507+0000001557          1400 GK6515               1AZ
197400003197400469-000026     197400006001023878717B/BLOCKS 80PC CARS ASST0000001000+00007016+00000+0001T   00007016+0000001557          1400 GK6755               1AZ
197401000197401               197401               170213CA     1400+00000+CA0000001139+0000001139+000000000+000000160+0000001290+0000000009+I20000000000+0000001290+Z
197401001197401903-000087     197401006001704000161SWT SPECKLED-EGGS 50G  0000001000+00001139+00000+0001T   00001139+0000001557          1400 GK6150               1AZ
197402000197402               197402               170213CA     1400+00000+CA0000010305+0000010305+000000000+000001445+0000011750+0000000000+I20000000000+0000011750+Z
197402001197402368-000151     197402006003000166725PLUSH BEAR 14cm        0000001000+00004385+00000+0001T   00004385+0000001558          1400 GK6745               1AZ
197402002197402077-000303     197402006001023593757GIFT-BAG PAPER MED     0000001000+00001578+00000+0001T   00001578+0000001558          1400 GK6112               1AZ
197402003197402077-000010-C   197402006001023123879CREPE-PAPER RED        0000001000+00000788+00000+0001T   00000788+0000001558          1400 GK6112               1AZ
197402004197402071-001019     197402006001023474513MARKER BLACK NAME-PEN  0000001000+00000876+00000+0001T   00000876+0000001558          1400 GK6130               1AZ
197402005197402108-003023     197402006003000665471TUMBLER W/STRAW 550ml  0000001000+00002630+00000+0001T   00002630+0000001558          1400 GK6210               1AZ
197402006197402112-116069     197402006009681820277TCS CARRIER BAG JUMBO  0000001000+00000048+00000+0001T   00000048+0000001558          1400 GK6090               1AZ
197403000197403               197403               170213CA     1400+00000+CA0000012056+0000012056+000000000+000001691+0000013747+0000000000+I40000013747+0000000000+Z
197403001197403306-000021     197403006001023169433EARBUDS 100PCE IN BAG  0000001000+00000613+00000+0001T   00000613+0000001602          1400 GK6200               1AZ
197403002197403046-000014     197403006001023725387BATTERIES SIZE:AAA 4PCE0000001000+00001139+00000+0001T   00001139+0000001602          1400 GK6312               1AZ
197403003197403048-000826     197403006001023753045TORCH LED W/ZOOM SMALL 0000001000+00003507+00000+0001T   00003507+0000001602          1400 GK6305               1AZ
197403004197403009-001300     197403006003000135059MELAMINE MUG 250ml     0000001000+00001753+00000+0001T   00001753+0000001602          1400 GK6210               1AZ
197403005197403009-001308     197403006001023854636MELAMINE FLOWER BOWL   0000001000+00001753+00000+0001T   00001753+0000001602          1400 GK6210               1AZ
197403006197403009-001304     197403006001023854575MELAMINE FLOWER PLATE  0000001000+00001753+00000+0001T   00001753+0000001602          1400 GK6210               1AZ
197403007197403112-116069     197403006009681820277TCS CARRIER BAG JUMBO  0000001000+00000048+00000+0001T   00000048+0000001602          1400 GK6090               1AZ
197403008197403009-001301     197403006001023854513MELAMINE FLOWER TUMBLER0000001000+00001490+00000+0001T   00001490+0000001602          1400 GK6210               1AZ
197404000197404               197404               170213CA     1400+00000+CA0000005481+0000005481+000000000+000000770+0000006250+0000000001+I20000000000+0000006250+Z
197404001197404079-009702-E   197404008427973059439PAPER SIRIO A2 BLUE    0000002000+00001051+00000+0001T   00001051+0000001607          1400 GK6130               1AZ
197404002197404007-000029     197404006003000577736PRICE FLASH 17x11cm    0000001000+00001753+00000+0001T   00001753+0000001607          1400 GK6130               1AZ
197404003197404080-000124     197404006003000297733CARD & ENV VALENTINES  0000001000+00001578+00000+0001T   00001578+0000001607          1400 GK6112               1AZ
197404004197404112-116069     197404006009681820277TCS CARRIER BAG JUMBO  0000001000+00000048+00000+0001T   00000048+0000001607          1400 GK6090               1AZ
197405000197405               197405               170213CA     1400+00000+CA0000008767+0000008767+000000000+000001229+0000009990+0000000006+I20000000000+0000009990+Z
197405001197405018-000129     197405006001023403353MUG OCC. LOVE V-SHAPE  0000002000+00002630+00000+0001T   00002630+0000001608          1400 GK6515               1AZ
197405002197405031-000923     197405006001023669933P/FRAME BLK W/WORDS    0000001000+00003507+00000+0001T   00003507+0000001608          1400 GK6510               1AZ
197406000197406               197406               170213CA     1400+00000+CA0000002630+0000002630+000000000+000000369+0000002999+0000000000+I40000002999+0000000000+Z
197406001197406071-003863     197406006003000145102PENCIL NOVELTY ERASER  0000001000+00002630+00000+0001T   00002630+0000001610          1400 GK6130               1AZ
197407000197407               197407               170213CA     1400+00000+CA0000000700+0000000700+000000000+000000098+0000000790+0000000008+I20000000000+0000000790+Z
197407001197407566-002000     197407000721129013206STICKERS CRYSTAL ASSTD 0000001000+00000700+00000+0001T   00000700+0000001611          1400 GK6130               1AZ
197408000197408               197408               170213CA     1400+00000+CA0000001664+0000001664+000000000+000000234+0000001890+0000000008+I20000000000+0000001890+Z
197408001197408077-000010-D   197408006001023123886CREPE-PAPER WHITE      0000001000+00000788+00000+0001T   00000788+0000001611          1400 GK6112               1AZ
197408002197408077-000011-E   197408006001023808646TISSUE-WRAP PINK 10PCE 0000001000+00000876+00000+0001T   00000876+0000001611          1400 GK6112               1AZ
197409000197409               197409               170213CA     1400+00000+CA0000002015+0000002015+000000000+000000283+0000002298+0000000000+I40000002298+0000000000+Z
197409001197409039-000319-1   197409006003000442386B/CANDLES LRG NUMBER-1 0000001000+00000876+00000+0001T   00000876+0000001613          1400 GK6510               1AZ
197409002197409903-000087     197409006001704000161SWT SPECKLED-EGGS 50G  0000001000+00001139+00000+0001T   00001139+0000001613          1400 GK6150               1AZ
197410000197410               197410               170213CA     1400+00000+CA0000003994+0000003994+000000000+000000560+0000004554+0000000000+I40000004554+0000000000+Z
197410001197410024-000002     197410006001023741899S/BURNER-COVER SILV/BLK0000001000+00003946+00000+0001T   00004385+0008191616          1400 GK6300               1AZ
197410002197410112-116069     197410006009681820277TCS CARRIER BAG JUMBO  0000001000+00000048+00000+0001T   00000048+0000001616          1400 GK6090               1AZ
197411000197411               197411               170213CA     1400+00000+CA0000003191+0000003191+000000000+000000447+0000003630+0000000008+I20000000000+0000003630+Z
197411001197411018-000127     197411006001023380289MUG OCC STRAIGHT LOVE  0000002000+00001578+00000+0001T   00001753+0006471618          1400 GK6515               1AZ
197411002197411112-116038     197411006009681820246TCS CARRIER BAG MIDI   0000001000+00000035+00000+0001T   00000035+0000001618          1400 GK6090               1AZ
197412000197412               197412               170213CA     1400+00000+CA0000006137+0000006137+000000000+000000860+0000006997+0000000000+I40000006997+0000000000+Z
197412001197412076-000030-H   197412006001023429544WASHING-LINE 30m    H&H0000001000+00002630+00000+0001T   00002630+0000001620          1400 GK6810               1AZ
197412002197412036-000519     197412006003000560752HOOK HANGER CHROME PL  0000001000+00003507+00000+0001T   00003507+0000001620          1400 GK6212               1AZ
197413000197413               197413               170213CA     1400+00000+CA0000007890+0000007890+000000000+000001105+0000008995+0000000000+I40000008995+0000000000+Z
197413001197413007-000209     197413006001023582102NOTE STICKY FILE MARKER0000002000+00001314+00000+0001T   00001314+0000001623          1400 GK6130               1AZ
197413002197413567-010161     197413009780000008516BOOK TOP ASSTD MILLS   0000001000+00005262+00000+0001T   00005262+0000001623          1400 GK6757               1AZ
197414000197414               197414               170213CA     1400+00000+CA0000005310+0000005310+000000000+000000744+0000006054+0000000000+I40000006054+0000000000+Z
197414001197414304-001116     197414006003000426164F/BUNCH ROSES 12-HEAD  0000001000+00005262+00000+0001T   00005262+0000001625          1400 GK6510               1AZ
197414002197414112-116069     197414006009681820277TCS CARRIER BAG JUMBO  0000001000+00000048+00000+0001T   00000048+0000001625          1400 GK6090               1AZ
197415000197415               197415               170213CA     1400+00000+CA0000002454+0000002454+000000000+000000344+0000002790+0000000008+I20000000000+0000002790+Z
197415001197415071-081091     197415006001151010287STAED/GENKEM ALL-STICK 0000002000+00001227+00000+0001T   00001227+0000001625          1400 GK6130               1AZ
197416000197416               197416               170213CA     1400+00000+CA0000003379+0000003379+000000000+000000474+0000003850+0000000003+I20000000000+0000003850+Z
197416001197416077-000315     197416006003000181186GIFT-BAG 20x28cm MATT  0000001000+00001578+00000+0001T   00001578+0000001626          1400 GK6112               1AZ
197416002197416107-002117     197416006002580008890BASIN PL 32cm(VIRGIN)4L0000001000+00001753+00000+0001T   00001753+0000001626          1400 GK6210               1AZ
197416003197416112-116069     197416006009681820277TCS CARRIER BAG JUMBO  0000001000+00000048+00000+0001T   00000048+0000001626          1400 GK6090               1AZ
197417000197417               197417               170213CA     1400+00000+CA0000001752+0000001752+000000000+000000246+0000001990+0000000008+I20000000000+0000001990+Z
197417001197417078-000025     197417008887013700064SUPERGLUE 3g 1PCE CARD 0000001000+00000876+00000+0001T   00000876+0000001626          1400 GK6810               1AZ
197417002197417077-000314     197417006003000181148GIFT-BAG 11X14CM MATT  0000001000+00000876+00000+0001T   00000876+0000001626          1400 GK6112               1AZ
197418000197418               197418               170213CA     1400+00000+CA0000002630+0000002630+000000000+000000369+0000002990+0000000009+I20000000000+0000002990+Z
197418001197418007-000557     197418006003000379484DIARY GIRL W/LOCK 50PG 0000001000+00002630+00000+0001T   00002630+0000001627          1400 GK6130               1AZ
197419000197419               197419               170213CA     1400+00000+CA0000000788+0000000788+000000000+000000111+0000000890+0000000009+I20000000000+0000000890+Z
197419001197419077-000010-U   197419006001023168863CREPE-PAPER CERISE-PINK0000001000+00000788+00000+0001T   00000788+0000001627          1400 GK6112               1AZ
197420000197420               197420               170213CA     1400+00000+CA0000002629+0000002629+000000000+000000369+0000002990+0000000008+I20000000000+0000002990+Z
197420001197420077-000011-D   197420006001023808554TISSUE-WRAP WHITE 10PCE0000001000+00000876+00000+0001T   00000876+0000001628          1400 GK6112               1AZ
197420002197420077-000467     197420006003000329991GIFT-BAG STAMP 18X23CM 0000001000+00001753+00000+0001T   00001753+0000001628          1400 GK6112               1AZ
197421000197421               197421               170213CA     1400+00000+CA0000006750+0000006750+000000000+000000947+0000007690+0000000007+I20000000000+0000007690+Z
197421001197421071-003004     197421006003000662821PEN BALL POINT 3PC BLUE0000001000+00000876+00000+0001T   00000876+0000001629          1400 GK6130               1AZ
197421002197421007-000209     197421006001023582102NOTE STICKY FILE MARKER0000001000+00001314+00000+0001T   00001314+0000001629          1400 GK6130               1AZ
197421003197421071-001346     197421006001023912985HIGHLIGHTERS 4PCE CARD 0000001000+00002192+00000+0001T   00002192+0000001629          1400 GK6130               1AZ
197421004197421007-000206     197421006009635830215X/PAD 80-SHEETS PUNCHED0000001000+00001227+00000+0001T   00001227+0000001629          1400 GK6130               1AZ
197421005197421018-000177     197421006001023797513MUG MINI LOVE ASSTD    0000001000+00000700+00000+0001T   00000700+0000001629          1400 GK6515               1AZ
197421006197421903-000183     197421006003000451043SWT LB HEART LOLLY     0000001000+00000393+00000+0001T   00000393+0000001629          1400 GK6150               1AZ
197421007197421112-116069     197421006009681820277TCS CARRIER BAG JUMBO  0000001000+00000048+00000+0001T   00000048+0000001629          1400 GK6090               1AZ
197422000197422               197422               170213CA     1400+00000+CA0000000700+0000000700+000000000+000000098+0000000790+0000000008+I20000000000+0000000790+Z
197422001197422564-000012     197422006001023130075BUBBLE BOTTLE MAGIC    0000001000+00000700+00000+0001T   00000700+0000001629          1400 GK6131               1AZ
197423000197423               197423               170213CA     1400+00000+CA0000002665+0000002665+000000000+000000374+0000003039+0000000000+I40000003039+0000000000+Z
197423001197423105-001023     197423006003000571406CONTAINER FROSTED 2-TIE0000001000+00002630+00000+0001T   00003507+0008161631          1400 GK6210               1AZ
197423002197423112-116038     197423006009681820246TCS CARRIER BAG MIDI   0000001000+00000035+00000+0001T   00000035+0000001631          1400 GK6090               1AZ
197424000197424               197424               170213CA     1400+00000+CA0000002454+0000002454+000000000+000000344+0000002790+0000000008+I20000000000+0000002790+Z
197424001197424077-000302     197424008010410010195GIFT-BAG 18X23CM E/D   0000001000+00000876+00000+0001T   00000876+0000001633          1400 GK6112               1AZ
197424002197424018-000127     197424006001023380289MUG OCC STRAIGHT LOVE  0000001000+00001578+00000+0001T   00001753+0006471633          1400 GK6515               1AZ
197425000197425               197425               170213CA     1400+00000+CA0000005656+0000005656+000000000+000000795+0000006450+0000000001+I20000000000+0000006450+Z
197425001197425304-001204     197425006001023737984FLOWER OCC. TEDDY/ROSES0000004000+00001402+00000+0001T   00001490+0006471634          1400 GK6510               1AZ
197425002197425112-116069     197425006009681820277TCS CARRIER BAG JUMBO  0000001000+00000048+00000+0001T   00000048+0000001634          1400 GK6090               1AZ
197426000197426               197426               170213CA     1400+00000+CA0000001227+0000001227+000000000+000000172+0000001390+0000000009+I20000000000+0000001390+Z
197426001197426077-000322     197426006001023677532GIFT-BAG 18X23CM E/D FL0000001000+00001227+00000+0001T   00001227+0000001636          1400 GK6112               1AZ
A17021300                                          09043371CASLAVE 1                       GK61IC
A17021301                                          09453368CASLAVE 1                       GK62IC
C19734700                                          170213CA001-091415     09320089SLAVE 1     GK61IC0000000000+0000000000+0010000001000+
C19739900                                          170213CA077-000010-C   15535453SLAVE 1     GK62IC0000000000+0000000000+0020000001000+
M17021391                              CASH        CASLAVE 1                       Z-REPORT No.   571TOTAL (Sales - Refunds)           4284.79       CASH TO BE BANKED                 2765.60       DEBIT CARDS                          0.00       CREDIT CARDS                      1519.19       Z-READING                         4284.79       AIRTIME DEBIT CARD SALES             0.00       AIRTIME CARD SALES                   0.00       OVERS/UNDERS                         0.00       AIRTIME CASH SALES                   0.00       GIFT CARDS                           0.00       GIFT CARD CASH SALES                 0.00       T O T A L  CASH PAYOUTS              0.00                                                                                                                                                                                                                                                                                                                                                      Z
M17021392                              CASH        CAABSENT                                                                                                                                                                                          ANNUAL LEAVE                                                                                                                                                                                    DAY OFF                                                                                                                                                                                         COMMENTS                                                                                                                                                                                                                                                                                                                                                                                       Z
Y17021300                                          CA00000000376173+000085
ZCA17021319233 SLAVE 1      SALES DATA                     NEXT INVOICE NO.  197427 0571
F093703496-057489         1701111039110000031ICSLAVE 1
F094059496-028120         1701130752550000022ICSLAVE 1
X CA Slave 1 First invoice 197342 170213 Last invoice 197426 170213 Next invoice 197427 Total number of records 000000266 clbackup completed 19:23:51
