205879000205879               205879               170213CA     1400+00000+CA0000025479+0000025479+000000000+000003569+0000029040+0000000008+I20000000000+0000029040+Z
205879001205879009-001506     205879006001023696090MELAMINE TRAY 39x29cm  0000005000+00004385+00000+0001T   00004385+0000000904          1400 NJ8210               2AZ
205879002205879108-005005     205879006003000667451TRAY PL 29x21cm RECT   0000002000+00001753+00000+0001T   00001753+0000000904          1400 NJ8210               2AZ
205879003205879112-116069     205879006009681820277TCS CARRIER BAG JUMBO  0000001000+00000048+00000+0001T   00000048+0000000904          1400 NJ8090               2AZ
205880000205880               205880               170213CA     1400+00000+CA0000002628+0000002628+000000000+000000368+0000002990+0000000006+I20000000000+0000002990+Z
205880001205880903-000194     205880006009826020616SWT CHOC RP LOLLY 25G  0000002000+00001314+00000+0001T   00001314+0000000949          1400 NJ8150               2AZ
205881000205881               205881               170213CA     1400+00000+CA0000001578+0000001578+000000000+000000221+0000001790+0000000009+I20000000000+0000001790+Z
205881001205881106-003115     205881006002689011357ICE CUBE-TRAYS 2PCE WHT0000001000+00001578+00000+0001T   00001578+0000000950          1400 NJ8210               2AZ
205882000205882               205882               170213CA     1400+00000+CA0000003541+0000003541+000000000+000000497+0000004030+0000000008+I20000000000+0000004030+Z
205882001205882051-002407     205882006003000452491SPRAYER TRIGGER 550ml  0000001000+00001753+00000+0001T   00001753+0000000953          1400 NJ8820               2AZ
205882002205882051-002402     205882006001023518347TRIGGER-SPRAYER  500ml 0000001000+00001753+00000+0001T   00001753+0000000953          1400 NJ8820               2AZ
205882003205882112-116038     205882006009681820246TCS CARRIER BAG MIDI   0000001000+00000035+00000+0001T   00000035+0000000953          1400 NJ8090               2AZ
205883000205883               205883               170213CA     1400+00000+CA0000000700+0000000700+000000000+000000098+0000000790+0000000008+I20000000000+0000000790+Z
205883001205883033-010721     205883006001023678669SAFETY-PINS 20PCE ASSTD0000001000+00000700+00000+0001T   00000700+0000000954          1400 NJ8200               2AZ
205884000205884               205884               170213CA     1400+00000+CA0000000218+0000000218+000000000+000000031+0000000240+0000000009+I20000000000+0000000240+Z
205884001205884903-000670     205884006009803358008SWT SHERBET RED LIPS   0000001000+00000218+00000+0001T   00000218+0000001016          1400 NJ8150               2AZ
205885000205885               205885               170213CA     1400+00000+CA0000000788+0000000788+000000000+000000111+0000000890+0000000009+I20000000000+0000000890+Z
205885001205885903-000138     205885006002099004314SWT GS WINE GUMS 60G   0000001000+00000788+00000+0001T   00000788+0000001030          1400 NJ8150               2AZ
205886000205886               205886               170213CA     1400+00000+CA0000003243+0000003243+000000000+000000455+0000003690+0000000008+I20000000000+0000003690+Z
205886001205886089-001021     205886006003000112319KEY CHAIN MINI BIBLE   0000001000+00001490+00000+0001T   00001490+0000001033          1400 NJ8205               2AZ
205886002205886080-000122     205886006003000237678CARD & ENVLPE -GET WELL0000001000+00001753+00000+0001T   00001753+0000001033          1400 NJ8112               2AZ
205887000205887               205887               170213CA     1400+00000+CA0000001839+0000001839+000000000+000000258+0000002090+0000000007+I20000000000+0000002090+Z
205887001205887304-001011     205887006001023806727FLWR ROSE RED W/BEAR   0000003000+00000613+00000+0001T   00000788+0006471131          1400 NJ8510               2AZ
205888000205888               205888               170213CA     1400+00000+CA0000007016+0000007016+000000000+000000983+0000007990+0000000009+I20000000000+0000007990+Z
205888001205888031-000017     205888006003000411436P/FRAME COLLAGE 3-HOLE 0000001000+00007016+00000+0001T   00007016+0000001136          1400 NJ8510               2AZ
205889000205889               205889               170213CA     1400+00000+CA0000000048+0000000048+000000000+000000007+0000000050+0000000005+I20000000000+0000000050+Z
205889001205889112-116069     205889006009681820277TCS CARRIER BAG JUMBO  0000001000+00000048+00000+0001T   00000048+0000001137          1400 NJ8090               2AZ
205890000205890               205890               170213CA     1400+00000+CA0000000613+0000000613+000000000+000000086+0000000690+0000000009+I20000000000+0000000690+Z
205890001205890033-008209     205890006001023678607MEASURING-TAPE 150cm   0000001000+00000613+00000+0001T   00000613+0000001138          1400 NJ8200               2AZ
205891000205891               205891               170213CA     1400+00000+CA0000005262+0000005262+000000000+000000737+0000005990+0000000009+I20000000000+0000005990+Z
205891001205891263-000623     205891006001023905697VEHICLE HELICOPTER 30cm0000001000+00005262+00000+0001T   00005262+0000001139          1400 NJ8710               2AZ
205892000205892               205892               170213CA     1400+00000+CA0000008538+0000008538+000000000+000001197+0000009730+0000000005+I20000000000+0000009730+Z
205892001205892006-000788     205892006001023990228CROWN HAPPY BIRTHDAY   0000001000+00001490+00000+0001T   00001490+0000001147          1400 NJ8131               2AZ
205892002205892079-014004     205892006003000080045ART+CRAFT JEWELRY ASSTD0000001000+00003507+00000+0001T   00003507+0000001147          1400 NJ8130               2AZ
205892003205892039-000319-9   205892006003000443345B/CANDLES LRG NUMBER-9 0000001000+00000876+00000+0001T   00000876+0000001147          1400 NJ8510               2AZ
205892004205892039-000320     205892006001023816153BIRTHDAY-CANDLES 13PCE 0000001000+00002630+00000+0001T   00002630+0000001147          1400 NJ8510               2AZ
205892005205892112-116038     205892006009681820246TCS CARRIER BAG MIDI   0000001000+00000035+00000+0001T   00000035+0000001147          1400 NJ8090               2AZ
205893000205893               205893               170213CA     1400+00000+CA0000004380+0000004380+000000000+000000615+0000004995+0000000000+I40000004995+0000000000+Z
205893001205893089-000192-A   205893006001023901774KEY-CHAIN ACRYLIC      0000005000+00000876+00000+0001T   00000876+0000001150          1400 NJ8205               2AZ
205894000205894               205894               170213CA     1400+00000+CA0000005262+0000005262+000000000+000000737+0000005990+0000000009+I20000000000+0000005990+Z
205894001205894562-000199     205894006001023732910PUSH-IN BOARD WDN ASSTD0000001000+00005262+00000+0001T   00005262+0000001152          1400 NJ8755               2AZ
205895000205895               205895               170213CA     1400+00000+CA0000000048+0000000048+000000000+000000007+0000000050+0000000005+I20000000000+0000000050+Z
205895001205895112-116069     205895006009681820277TCS CARRIER BAG JUMBO  0000001000+00000048+00000+0001T   00000048+0000001154          1400 NJ8090               2AZ
205896000205896               205896               170213CA     1400+00000+CA0000001490+0000001490+000000000+000000209+0000001690+0000000009+I20000000000+0000001690+Z
205896001205896077-000299     205896006003000395576G/BAG 32x25cm LRG LOVE 0000001000+00001490+00000+0001T   00001490+0000001156          1400 NJ8112               2AZ
205897000205897               205897               170213CA     1400+00000+CA0000002401+0000002401+000000000+000000337+0000002738+0000000000+I40000002738+0000000000+Z
205897001205897018-000127     205897006001023380289MUG OCC STRAIGHT LOVE  0000001000+00001578+00000+0001T   00001753+0006471202          1400 NJ8515               2AZ
205897002205897903-000200     205897006009826020234SWT CHOC RP CHOCO 23G  0000001000+00000788+00000+0001T   00000788+0000001202          1400 NJ8150               2AZ
205897003205897112-116038     205897006009681820246TCS CARRIER BAG MIDI   0000001000+00000035+00000+0001T   00000035+0000001202          1400 NJ8090               2AZ
205898000205898               205898               170213CA     1400+00000+CA0000008806+0000008806+000000000+000001233+0000010030+0000000009+I20000000000+0000010030+Z
205898001205898206-000420     205898006003000619504MUG NOVELTY GOLF       0000001000+00008771+00000+0001T   00008771+0000001212          1400 NJ8321               2AZ
205898002205898112-116038     205898006009681820246TCS CARRIER BAG MIDI   0000001000+00000035+00000+0001T   00000035+0000001212          1400 NJ8090               2AZ
205899000205899               205899               170213CA     1400+00000+CA0000017542+0000017542+000000000+000002456+0000019990+0000000008+I20000000000+0000019990+Z
205899001205899019-000049     205899006001023673732V/GLASS FOOTED 17X25CM 0000001000+00017542+00000+0001T   00017542+0000001213          1400 NJ8510               2AZ
205900000205900               205900               170213CA     1400+00000+CA0000010378+0000010378+000000000+000001454+0000011830+0000000002+I20000000000+0000011830+Z
205900001205900018-005009     205900006001023725608MUG W/PLUSH-BEAR LOVE  0000002000+00003507+00000+0001T   00003507+0000001214          1400 NJ8515               2AZ
205900002205900018-000170     205900006001023775528MUG OCC. LOVE 2PC MINI 0000001000+00002192+00000+0001T   00002192+0000001214          1400 NJ8515               2AZ
205900003205900018-000177     205900006001023797513MUG MINI LOVE ASSTD    0000001000+00000700+00000+0001T   00000700+0000001214          1400 NJ8515               2AZ
205900004205900112-116038     205900006009681820246TCS CARRIER BAG MIDI   0000001000+00000035+00000+0001T   00000035+0000001214          1400 NJ8090               2AZ
205900005205900083-000049     205900004891035200024CIG-LIGHTER DISPOSABLE 0000001000+00000437+00000+0001T   00000437+0000001214          1400 NJ8315               2AZ
205901000205901               205901               170213CA     1400+00000+CA0000005117+0000005117+000000000+000000719+0000005830+0000000006+I20000000000+0000005830+Z
205901001205901301-085002     205901006003000420704ORN OCC. LOVE BELL ASST0000002000+00001753+00000+0001T   00002630+0008121216          1400 NJ8505               2AZ
205901002205901903-000200     205901006009826020234SWT CHOC RP CHOCO 23G  0000002000+00000788+00000+0001T   00000788+0000001216          1400 NJ8150               2AZ
205901003205901112-116038     205901006009681820246TCS CARRIER BAG MIDI   0000001000+00000035+00000+0001T   00000035+0000001216          1400 NJ8090               2AZ
205902000205902               205902               170213CA     1400+00000+CA0000002628+0000002628+000000000+000000368+0000002990+0000000006+I20000000000+0000002990+Z
205902001205902903-000194     205902006009826020616SWT CHOC RP LOLLY 25G  0000002000+00001314+00000+0001T   00001314+0000001224          1400 NJ8150               2AZ
205903000205903               205903               170213CA     1400+00000+CA0000014946+0000014946+000000000+000002093+0000017039+0000000000+I40000017039+0000000000+Z
205903001205903112-116038     205903006009681820246TCS CARRIER BAG MIDI   0000001000+00000035+00000+0001T   00000035+0000001226          1400 NJ8090               2AZ
205903002205903495-058802     205903000078257588022CHAIR 160x85cm LOUNGER 0000001000+00014911+00000+0001T   00014911+0000001226          1400 NJ8787               2AZ
205904000205904               205904               170213CA     1400+00000+CA0000001139+0000001139+000000000+000000160+0000001299+0000000000+I40000001299+0000000000+Z
205904001205904007-000302     205904006009635830000BOOK H/COVER A4 96-PAGE0000001000+00001139+00000+0001T   00001139+0000001228          1400 NJ8130               2AZ
205905000205905               205905               170213CA     1400+00000+CA0000008760+0000008760+000000000+000001230+0000009990+0000000000+I20000000000+0000009990+Z
205905001205905077-000151     205905006008766114676GIFT-WRAP C/PHANE ASSTD0000010000+00000876+00000+0001T   00000876+0000001229          1400 NJ8112               2AZ
205906000205906               205906               170213CA     1400+00000+CA0000007893+0000007893+000000000+000001106+0000008999+0000000000+I40000008999+0000000000+Z
205906001205906264-000925-350 205906006003000595389BURAGO 1:43 FERRARI    0000001000+00007893+00000+0001T   00007893+0000001231          1400 NJ8710               2AZ
205907000205907               205907               170213CA     1400+00000+CA0000001752+0000001752+000000000+000000246+0000001998+0000000000+I40000001998+0000000000+Z
205907001205907077-000314     205907006003000181148GIFT-BAG 11X14CM MATT  0000002000+00000876+00000+0001T   00000876+0000001232          1400 NJ8112               2AZ
205908000205908               205908               170213CA     1400+00000+CA0000002454+0000002454+000000000+000000344+0000002790+0000000008+I20000000000+0000002790+Z
205908001205908077-000245     205908006001023759214GIFT-RIBBON METALLICx2 0000002000+00001227+00000+0001T   00001227+0000001233          1400 NJ8112               2AZ
205909000205909               205909               170213CA     1400+00000+CA0000004420+0000004420+000000000+000000619+0000005030+0000000009+I20000000000+0000005030+Z
205909001205909565-000886     205909006003000337057CRITTERS PUFFER BALLS  0000001000+00004385+00000+0001T   00004385+0000001234          1400 NJ8745               2AZ
205909002205909112-116038     205909006009681820246TCS CARRIER BAG MIDI   0000001000+00000035+00000+0001T   00000035+0000001234          1400 NJ8090               2AZ
205910000205910               205910               170213CA     1400+00000+CA0000002192+0000002192+000000000+000000307+0000002490+0000000009+I20000000000+0000002490+Z
205910001205910007-000095     205910006003000530434ENVELOPES WHITE 20PK C60000001000+00002192+00000+0001T   00002192+0000001234          1400 NJ8130               2AZ
205911000205911               205911               170213CA     1400+00000+CA0000003068+0000003068+000000000+000000430+0000003498+0000000000+I40000003498+0000000000+Z
205911001205911105-001033     205911000700371696641CONTAINER FOODSAVER 1.60000001000+00002192+00000+0001T   00002192+0000001236          1400 NJ8210               2AZ
205911002205911105-001010     205911006002580007329LUNCH-BOX 1L  ASSTD    0000001000+00000876+00000+0001T   00000876+0000001236          1400 NJ8210               2AZ
205912000205912               205912               170213CA     1400+00000+CA0000001788+0000001788+000000000+000000251+0000002039+0000000000+I40000002039+0000000000+Z
205912001205912016-006518     205912006003000351749S/JAR GLS CHECK 350ML  0000001000+00001753+00000+0001T   00001753+0000001238          1400 NJ8300               2AZ
205912002205912112-116038     205912006009681820246TCS CARRIER BAG MIDI   0000001000+00000035+00000+0001T   00000035+0000001238          1400 NJ8090               2AZ
205913000205913               205913               170213CA     1400+00000+CA0000007012+0000007012+000000000+000000983+0000007995+0000000000+I40000007995+0000000000+Z
205913001205913162-093205     205913006001492932057#TAG KIDS BEST NK      0000001000+00003507+00000+0001T   00003507+0000001239          1400 NJ8160               2AZ
205913002205913077-000239     205913006003000160419GIFT-RIBBON ROLL PEARL 0000001000+00001753+00000+0001T   00001753+0000001239          1400 NJ8112               2AZ
205913003205913028-000797     205913006001023812124SKEWERS 15cm 100PCE    0000001000+00000876+00000+0001T   00000876+0000001239          1400 NJ8305               2AZ
205913004205913078-000025     205913008887013700064SUPERGLUE 3g 1PCE CARD 0000001000+00000876+00000+0001T   00000876+0000001239          1400 NJ8810               2AZ
205914000205914               205914               170213CA     1400+00000+CA0000000876+0000000876+000000000+000000123+0000000990+0000000009+I20000000000+0000000990+Z
205914001205914903-000521     205914006001704009652SWT GUMMY SOFT GUMS    0000001000+00000876+00000+0001T   00000876+0000001240          1400 NJ8150               2AZ
205915000205915               205915               170213CA     1400+00000+CA0000013190+0000013190+000000000+000001847+0000015037+0000000000+I40000015037+0000000000+Z
205915001205915024-000118     205915006001023422316N/STICK C/PAN HEART    0000003000+00004385+00000+0001T   00004385+0000001241          1400 NJ8300               2AZ
205915002205915112-116038     205915006009681820246TCS CARRIER BAG MIDI   0000001000+00000035+00000+0001T   00000035+0000001241          1400 NJ8090               2AZ
205916000205916               205916               170213CA     1400+00000+CA0000007890+0000007890+000000000+000001106+0000008996+0000000000+I40000008996+0000000000+Z
205916001205916007-000049     205916006003000274994OFFICE E/LOPE A4 PK 5  0000001000+00002630+00000+0001T   00002630+0000001243          1400 NJ8130               2AZ
205916002205916007-000291     205916006003000590131REMINDER NOTES REFILL  0000001000+00003507+00000+0001T   00003507+0000001243          1400 NJ8130               2AZ
205916003205916071-003853     205916006001023715579PENCIL BASIC HB 12PCE  0000001000+00001753+00000+0001T   00001753+0000001243          1400 NJ8130               2AZ
205917000205917               205917               170213CA     1400+00000+CA0000003979+0000003979+000000000+000000558+0000004530+0000000007+I20000000000+0000004530+Z
205917001205917306-001690     205917006003000620937EYELASH CURLERS        0000001000+00001314+00000+0001T   00001753+0008171245          1400 NJ8200               2AZ
205917002205917108-003023     205917006003000665471TUMBLER W/STRAW 550ml  0000001000+00002630+00000+0001T   00002630+0000001245          1400 NJ8210               2AZ
205917003205917112-116038     205917006009681820246TCS CARRIER BAG MIDI   0000001000+00000035+00000+0001T   00000035+0000001245          1400 NJ8090               2AZ
205918000205918               205918               170213CA     1400+00000+CA0000006776+0000006776+000000000+000000955+0000007731+0000000000+I40000007731+0000000000+Z
205918001205918903-000183     205918006003000451043SWT LB HEART LOLLY     0000004000+00000393+00000+0001T   00000393+0000001255          1400 NJ8150               2AZ
205918002205918903-000155     205918006009803374435SWT LOLLY I LUV U HEART0000001000+00000525+00000+0001T   00000525+0000001255          1400 NJ8150               2AZ
205918003205918903-000151     205918006009803374411SWT SML RND R/BOW LOLLY0000001000+00000525+00000+0001T   00000525+0000001255          1400 NJ8150               2AZ
205918004205918089-060027     205918006003000245871KEY-CHAIN HEART 6X6cm  0000001000+00003069+00000+0001T   00003069+0000001255          1400 NJ8205               2AZ
205918005205918903-000155     205918006009803374435SWT LOLLY I LUV U HEART0000002000+00000525+00000+0001T   00000525+0000001255          1400 NJ8150               2AZ
205918006205918112-116038     205918006009681820246TCS CARRIER BAG MIDI   0000001000+00000035+00000+0001T   00000035+0000001255          1400 NJ8090               2AZ
205919000205919               205919               170213CA     1400+00000+CA0000009664+0000009664+000000000+000001362+0000011026+0000000000+I40000011026+0000000000+Z
205919001205919362-019375     205919006001023730664HAIR BAND SET 24PCE    0000002000+00000876+00000+0001T   00000876+0000001257          1400 NJ8160               2AZ
205919002205919362-003003     205919006003000295616HAIR BAND SET 6PCE     0000001000+00001753+00000+0001T   00001753+0000001257          1400 NJ8160               2AZ
205919003205919903-000200     205919006009826020234SWT CHOC RP CHOCO 23G  0000003000+00000788+00000+0001T   00000788+0000001257          1400 NJ8150               2AZ
205919004205919903-000155     205919006009803374435SWT LOLLY I LUV U HEART0000002000+00000525+00000+0001T   00000525+0000001257          1400 NJ8150               2AZ
205919005205919903-000151     205919006009803374411SWT SML RND R/BOW LOLLY0000001000+00000525+00000+0001T   00000525+0000001257          1400 NJ8150               2AZ
205919006205919112-116038     205919006009681820246TCS CARRIER BAG MIDI   0000001000+00000035+00000+0001T   00000035+0000001257          1400 NJ8090               2AZ
205919007205919080-000133     205919006003000535613CARD&ENV MINI ASTD DSGN0000002000+00000437+00000+0001T   00000437+0000001257          1400 NJ8112               2AZ
205919008205919080-000133-A   205919006003000647019MINI VALENTINES CARD   0000001000+00000437+00000+0001T   00000437+0000001257          1400 NJ8112               2AZ
205919009205919080-000133     205919006003000535613CARD&ENV MINI ASTD DSGN0000002000+00000437+00000+0001T   00000437+0000001257          1400 NJ8112               2AZ
205920000205920               205920               170213CA     1400+00000+CA0000001226+0000001226+000000000+000000172+0000001390+0000000008+I20000000000+0000001390+Z
205920001205920304-001011     205920006001023806727FLWR ROSE RED W/BEAR   0000002000+00000613+00000+0001T   00000788+0006471300          1400 NJ8510               2AZ
205921000205921               205921               170213CA     1400+00000+CA0000000612+0000000612+000000000+000000086+0000000690+0000000008+I20000000000+0000000690+Z
205921001205921079-009700-D   205921006003000545711PAPER SIRIO A4 RED COL.0000001000+00000306+00000+0001T   00000306+0000001301          1400 NJ8130               2AZ
205921002205921079-009700-C   205921006003000545636PAPER SIRIO A4 VIOLET  0000001000+00000306+00000+0001T   00000306+0000001301          1400 NJ8130               2AZ
205922000205922               205922               170213CA     1400+00000+CA0000030746+0000030746+000000000+000004306+0000035052+0000000000+I40000035052+0000000000+Z
205922001205922368-000637     205922006001023874092PLUSH BEAR SLEEPING LOV0000001000+00011402+00000+0001T   00012279+0006471305          1400 NJ8745               2AZ
205922002205922001-091415     205922006003000329113W/GLS OCC. LOVE 2PC 2800000001000+00008771+00000+0001T   00009648+0006471305          1400 NJ8515               2AZ
205922003205922030-004080     205922006003000657780PLAQUE WOODEN SIGN     0000001000+00010525+00000+0001T   00010525+0000001305          1400 NJ8505               2AZ
205922004205922112-116069     205922006009681820277TCS CARRIER BAG JUMBO  0000001000+00000048+00000+0001T   00000048+0000001305          1400 NJ8090               2AZ
205923000205923               205923               170213CA     1400+00000+CA0000003626+0000003626+000000000+000000510+0000004130+0000000006+I20000000000+0000004130+Z
205923001205923077-000289     205923006001023901996GIFT BOX 20x25x11cm    0000001000+00001753+00000+0001T   00001753+0000001306          1400 NJ8112               2AZ
205923002205923903-000012     205923006002099007308SWT MALLOW S/BERRY     0000001000+00000437+00000+0001T   00000437+0000001306          1400 NJ8150               2AZ
205923003205923903-000155     205923006009803374435SWT LOLLY I LUV U HEART0000001000+00000525+00000+0001T   00000525+0000001306          1400 NJ8150               2AZ
205923004205923903-000897     205923008692806325207SWT CHOC DBL MINI ROLL 0000001000+00000876+00000+0001T   00000876+0000001306          1400 NJ8150               2AZ
205923005205923112-116038     205923006009681820246TCS CARRIER BAG MIDI   0000001000+00000035+00000+0001T   00000035+0000001306          1400 NJ8090               2AZ
205924000205924               205924               170213CA     1400+00000+CA0000001664+0000001664+000000000+000000234+0000001890+0000000008+I20000000000+0000001890+Z
205924001205924006-000812     205924006001023902832HAT CONE WITH TINSEL   0000001000+00000876+00000+0001T   00000876+0000001306          1400 NJ8131               2AZ
205924002205924903-000200     205924006009826020234SWT CHOC RP CHOCO 23G  0000001000+00000788+00000+0001T   00000788+0000001306          1400 NJ8150               2AZ
205925000205925               205925               170213CA     1400+00000+CA0000003102+0000003102+000000000+000000435+0000003530+0000000007+I20000000000+0000003530+Z
205925001205925077-000312     205925006001023608697GIFT-BAG 10X35CM GLOSS 0000001000+00001314+00000+0001T   00001314+0000001308          1400 NJ8112               2AZ
205925002205925301-086008     205925006003000426829ORN MUM MESSAGE W/ACC. 0000001000+00001753+00000+0001T   00001753+0000001308          1400 NJ8505               2AZ
205925003205925112-116038     205925006009681820246TCS CARRIER BAG MIDI   0000001000+00000035+00000+0001T   00000035+0000001308          1400 NJ8090               2AZ
205926000205926               205926               170213CA     1400+00000+CA0000000874+0000000874+000000000+000000124+0000000990+0000000008+I20000000000+0000000990+Z
205926001205926071-000212     205926006009608641190CHALK WHITE 12PCE      0000002000+00000437+00000+0001T   00000437+0000001310          1400 NJ8130               2AZ
205927000205927               205927               170213CA     1400+00000+CA0000006962+0000006962+000000000+000000976+0000007930+0000000008+I20000000000+0000007930+Z
205927001205927368-000104     205927006001023751348PLUSH BEAR RUFFLED-LOOK0000001000+00006139+00000+0001T   00006139+0000001311          1400 NJ8745               2AZ
205927002205927903-000200     205927006009826020234SWT CHOC RP CHOCO 23G  0000001000+00000788+00000+0001T   00000788+0000001311          1400 NJ8150               2AZ
205927003205927112-116038     205927006009681820246TCS CARRIER BAG MIDI   0000001000+00000035+00000+0001T   00000035+0000001311          1400 NJ8090               2AZ
205928000205928               205928               170213CA     1400+00000+CA0000001753+0000001753+000000000+000000246+0000001990+0000000009+I20000000000+0000001990+Z
205928001205928566-000028     205928006003000265541STICKER BK ASSTD 250PCE0000001000+00001753+00000+0001T   00001753+0000001312          1400 NJ8130               2AZ
205929000205929               205929               170213CA     1400+00000+CA0000004385+0000004385+000000000+000000614+0000004990+0000000009+I20000000000+0000004990+Z
205929001205929051-500100     205929006003000399444GARDEN KIDS SPADE ASSTD0000001000+00004385+00000+0001T   00004385+0000001318          1400 NJ8820               2AZ
205930000205930               205930               170213CA     1400+00000+CA0000004385+0000004385+000000000+000000614+0000004990+0000000009+I20000000000+0000004990+Z
205930001205930031-005921     205930006001023667847P/FRAME PL PLAIN       0000001000+00004385+00000+0001T   00004385+0000001320          1400 NJ8510               2AZ
205931000205931               205931               170213CA     1400+00000+CA0000001401+0000001401+000000000+000000197+0000001590+0000000008+I20000000000+0000001590+Z
205931001205931903-000155     205931006009803374435SWT LOLLY I LUV U HEART0000001000+00000525+00000+0001T   00000525+0000001322          1400 NJ8150               2AZ
205931002205931903-000521     205931006001704009652SWT GUMMY SOFT GUMS    0000001000+00000876+00000+0001T   00000876+0000001322          1400 NJ8150               2AZ
205932000205932               205932               170213CA     1400+00000+CA0000008973+0000008973+000000000+000001259+0000010232+0000000000+I40000010232+0000000000+Z
205932001205932903-000200     205932006009826020234SWT CHOC RP CHOCO 23G  0000002000+00000788+00000+0001T   00000788+0000001324          1400 NJ8150               2AZ
205932002205932903-000155     205932006009803374435SWT LOLLY I LUV U HEART0000001000+00000525+00000+0001T   00000525+0000001324          1400 NJ8150               2AZ
205932003205932903-000897     205932008692806325207SWT CHOC DBL MINI ROLL 0000001000+00000876+00000+0001T   00000876+0000001324          1400 NJ8150               2AZ
205932004205932018-000130     205932006001023867537MUG OCC LOVE MINI+HEART0000001000+00003507+00000+0001T   00003507+0000001324          1400 NJ8515               2AZ
205932005205932018-000127     205932006001023380289MUG OCC STRAIGHT LOVE  0000001000+00001578+00000+0001T   00001753+0006471324          1400 NJ8515               2AZ
205932006205932903-000481     205932006001704007481SWT MOO MILK-SHAKES 60G0000001000+00000876+00000+0001T   00000876+0000001324          1400 NJ8150               2AZ
205932007205932112-116038     205932006009681820246TCS CARRIER BAG MIDI   0000001000+00000035+00000+0001T   00000035+0000001324          1400 NJ8090               2AZ
205933000205933               205933               170213CA     1400+00000+CA0000001578+0000001578+000000000+000000221+0000001790+0000000009+I20000000000+0000001790+Z
205933001205933080-000124     205933006003000297733CARD & ENV VALENTINES  0000001000+00001578+00000+0001T   00001578+0000001325          1400 NJ8112               2AZ
205934000205934               205934               170213CA     1400+00000+CA0000007452+0000007452+000000000+000001044+0000008490+0000000006+I20000000000+0000008490+Z
205934001205934071-003043     205934006003000143948PEN CALIGRAPHY SET 8PCE0000001000+00003507+00000+0001T   00003507+0000001325          1400 NJ8130               2AZ
205934002205934080-000127     205934006003000424351VALENTINES DAY 36x24CM 0000001000+00002192+00000+0001T   00002192+0000001325          1400 NJ8112               2AZ
205934003205934077-000299-A   205934006003000670888GIFT-BAG PAPER JMB LOVE0000001000+00001753+00000+0001T   00001753+0000001325          1400 NJ8112               2AZ
205935000205935               205935               170213CA     1400+00000+CA0000000048+0000000048+000000000+000000007+0000000050+0000000005+I20000000000+0000000050+Z
205935001205935112-116069     205935006009681820277TCS CARRIER BAG JUMBO  0000001000+00000048+00000+0001T   00000048+0000001326          1400 NJ8090               2AZ
205936000205936               205936               170213CA     1400+00000+CA0000000613+0000000613+000000000+000000086+0000000690+0000000009+I20000000000+0000000690+Z
205936001205936077-000311     205936006001023608666GIFT-BAG 11X14CM GLOSS 0000001000+00000613+00000+0001T   00000613+0000001328          1400 NJ8112               2AZ
205937000205937               205937               170213CA     1400+00000+CA0000001314+0000001314+000000000+000000184+0000001490+0000000008+I20000000000+0000001490+Z
205937001205937250-000300-H   205937006003000584154CYCLE REPAIR-KIT 10PCE 0000001000+00001314+00000+0001T   00001753+0008191329          1400 NJ8860               2AZ
205938000205938               205938               170213CA     1400+00000+CA0000004433+0000004433+000000000+000000621+0000005050+0000000004+I20000000000+0000005050+Z
205938001205938105-008005     205938006002580009484STORAGE CONTAINER 7.5L 0000001000+00004385+00000+0001T   00004385+0000001332          1400 NJ8210               2AZ
205938002205938112-116069     205938006009681820277TCS CARRIER BAG JUMBO  0000001000+00000048+00000+0001T   00000048+0000001332          1400 NJ8090               2AZ
205939000205939               205939               170213CA     1400+00000+CA0000000700+0000000700+000000000+000000098+0000000790+0000000008+I20000000000+0000000790+Z
205939001205939033-010721     205939006001023678669SAFETY-PINS 20PCE ASSTD0000001000+00000700+00000+0001T   00000700+0000001334          1400 NJ8200               2AZ
205940000205940               205940               170213CA     1400+00000+CA0000004295+0000004295+000000000+000000602+0000004897+0000000000+I40000004897+0000000000+Z
205940001205940903-000200     205940006009826020234SWT CHOC RP CHOCO 23G  0000001000+00000788+00000+0001T   00000788+0000001335          1400 NJ8150               2AZ
205940002205940031-000864-B   205940006001023798381P/FRAME MAHOGANY 13X18 0000001000+00003507+00000+0001T   00003507+0000001335          1400 NJ8510               2AZ
205941000205941               205941               170213CA     1400+00000+CA0000004243+0000004243+000000000+000000595+0000004830+0000000008+I20000000000+0000004830+Z
205941001205941018-000129     205941006001023403353MUG OCC. LOVE V-SHAPE  0000001000+00002630+00000+0001T   00002630+0000001337          1400 NJ8515               2AZ
205941003205941112-116038     205941006009681820246TCS CARRIER BAG MIDI   0000001000+00000035+00000+0001T   00000035+0000001337          1400 NJ8090               2AZ
205941004205941077-000303     205941006001023593757GIFT-BAG PAPER MED     0000001000+00001578+00000+0001T   00001578+0000001337          1400 NJ8112               2AZ
205942000205942               205942               170213CA     1400+00000+CA0000002455+0000002455+000000000+000000344+0000002799+0000000000+I40000002799+0000000000+Z
205942001205942079-000510     205942006001023509079CRAYONS WAX 12-COLOUR  0000001000+00002455+00000+0001T   00002455+0000001338          1400 NJ8130               2AZ
205943000205943               205943               170213CA     1400+00000+CA0000000613+0000000613+000000000+000000086+0000000690+0000000009+I20000000000+0000000690+Z
205943001205943565-000044     205943006003000128280BARREL OF SLIME 100g   0000001000+00000613+00000+0001T   00000613+0000001342          1400 NJ8745               2AZ
205944000205944               205944               170213CA     1400+00000+CA0000000613+0000000613+000000000+000000086+0000000690+0000000009+I20000000000+0000000690+Z
205944001205944047-000001-BB  205944006001023723536INS-TAPE BLACK 18mmx10m0000001000+00000613+00000+0001T   00000613+0000001344          1400 NJ8880               2AZ
205945000205945               205945               170213CA     1400+00000+CA0000006173+0000006173+000000000+000000865+0000007030+0000000008+I20000000000+0000007030+Z
205945001205945004-071309     205945006001023730862HOLDER DISC SINGLE PK-60000001000+00001753+00000+0001T   00001753+0000001348          1400 NJ8310               2AZ
205945002205945004-071270     205945006001023802156CD-DISCS WRITABLE 10PCE0000001000+00004385+00000+0001T   00004385+0000001348          1400 NJ8310               2AZ
205945003205945112-116038     205945006009681820246TCS CARRIER BAG MIDI   0000001000+00000035+00000+0001T   00000035+0000001348          1400 NJ8090               2AZ
205946000205946               205946               170213CA     1400+00000+CA0000006433+0000006433+000000000+000000903+0000007336+0000000000+I40000007336+0000000000+Z
205946001205946072-000232     205946006003000236060DOG-COL REFLCTV 35-51cm0000001000+00001753+00000+0001T   00001753+0000001350          1400 NJ8870               2AZ
205946002205946366-006103     205946006001023786944DRESS UP FACE PAINT SET0000001000+00002630+00000+0001T   00002630+0000001350          1400 NJ8131               2AZ
205946003205946366-007917     205946006003000653621DRESS UP MASK ANIMALS  0000001000+00000876+00000+0001T   00000876+0000001350          1400 NJ8131               2AZ
205946004205946903-000087     205946006001704000161SWT SPECKLED-EGGS 50G  0000001000+00001139+00000+0001T   00001139+0000001350          1400 NJ8150               2AZ
205946005205946112-116038     205946006009681820246TCS CARRIER BAG MIDI   0000001000+00000035+00000+0001T   00000035+0000001350          1400 NJ8090               2AZ
205947000205947               205947               170213CA     1400+00000+CA0000009589+0000009589+000000000+000001345+0000010934+0000000000+I40000010934+0000000000+Z
205947001205947206-000450     205947006003000619863DRINKING JAR GLOBE     0000001000+00002630+00000+0001T   00002630+0000001352          1400 NJ8321               2AZ
205947002205947018-000170     205947006001023775528MUG OCC. LOVE 2PC MINI 0000001000+00002192+00000+0001T   00002192+0000001352          1400 NJ8515               2AZ
205947003205947030-000007     205947006001023527325PLAQUE WDN B/BOARD ASST0000001000+00002630+00000+0001T   00002630+0000001352          1400 NJ8505               2AZ
205947004205947304-001204     205947006001023737984FLOWER OCC. TEDDY/ROSES0000001000+00001402+00000+0001T   00001490+0006471352          1400 NJ8510               2AZ
205947005205947112-116038     205947006009681820246TCS CARRIER BAG MIDI   0000001000+00000035+00000+0001T   00000035+0000001352          1400 NJ8090               2AZ
205947006205947018-000177     205947006001023797513MUG MINI LOVE ASSTD    0000001000+00000700+00000+0001T   00000700+0000001352          1400 NJ8515               2AZ
205948000205948               205948               170213CA     1400+00000+CA0000003063+0000003063+000000000+000000430+0000003490+0000000003+I20000000000+0000003490+Z
205948001205948018-000177     205948006001023797513MUG MINI LOVE ASSTD    0000002000+00000700+00000+0001T   00000700+0000001354          1400 NJ8515               2AZ
205948002205948077-000311     205948006001023608666GIFT-BAG 11X14CM GLOSS 0000002000+00000613+00000+0001T   00000613+0000001354          1400 NJ8112               2AZ
205948003205948080-000133-A   205948006003000647019MINI VALENTINES CARD   0000001000+00000437+00000+0001T   00000437+0000001354          1400 NJ8112               2AZ
205949000205949               205949               170213CA     1400+00000+CA0000003117+0000003117+000000000+000000437+0000003550+0000000004+I20000000000+0000003550+Z
205949001205949301-085008     205949006003000673933ORN OCC.LOVE TINSEL HRT0000001000+00003069+00000+0001T   00003069+0000001356          1400 NJ8505               2AZ
205949002205949112-116069     205949006009681820277TCS CARRIER BAG JUMBO  0000001000+00000048+00000+0001T   00000048+0000001356          1400 NJ8090               2AZ
205950000205950               205950               170213CA     1400+00000+CA0000001578+0000001578+000000000+000000221+0000001790+0000000009+I20000000000+0000001790+Z
205950001205950106-003115     205950006002689011357ICE CUBE-TRAYS 2PCE WHT0000001000+00001578+00000+0001T   00001578+0000001356          1400 NJ8210               2AZ
205951000205951               205951               170213CA     1400+00000+CA0000008503+0000008503+000000000+000001192+0000009690+0000000005+I20000000000+0000009690+Z
205951001205951080-000127     205951006003000424351VALENTINES DAY 36x24CM 0000001000+00002192+00000+0001T   00002192+0000001400          1400 NJ8112               2AZ
205951002205951018-000136     205951006001023659026MUG OCC LOVE W/PLUSH   0000001000+00003507+00000+0001T   00003507+0000001400          1400 NJ8515               2AZ
205951003205951304-001204     205951006001023737984FLOWER OCC. TEDDY/ROSES0000002000+00001402+00000+0001T   00001490+0006471400          1400 NJ8510               2AZ
205952000205952               205952               170213CA     1400+00000+CA0000001314+0000001314+000000000+000000184+0000001490+0000000008+I20000000000+0000001490+Z
205952001205952903-000194     205952006009826020616SWT CHOC RP LOLLY 25G  0000001000+00001314+00000+0001T   00001314+0000001401          1400 NJ8150               2AZ
205953000205953               205953               170213CA     1400+00000+CA0000001753+0000001753+000000000+000000246+0000001990+0000000009+I20000000000+0000001990+Z
205953001205953084-009407     205953006001023861726SCISSORS 13cm MTL PL-H 0000001000+00001753+00000+0001T   00001753+0000001405          1400 NJ8200               2AZ
205954000205954               205954               170213CA     1400+00000+CA0000006174+0000006174+000000000+000000865+0000007039+0000000000+I40000007039+0000000000+Z
205954001205954361-090308     205954006003000234936PONY W/DOLL SML 7cm    0000001000+00006139+00000+0001T   00006139+0000001407          1400 NJ8725               2AZ
205954002205954112-116038     205954006009681820246TCS CARRIER BAG MIDI   0000001000+00000035+00000+0001T   00000035+0000001407          1400 NJ8090               2AZ
205955000205955               205955               170213CA     1400+00000+CA0000003067+0000003067+000000000+000000430+0000003490+0000000007+I20000000000+0000003490+Z
205955001205955030-000010     205955006003000084395P/DOOR HANGER 2-ASSTD  0000001000+00001314+00000+0001T   00001490+0008181411          1400 NJ8505               2AZ
205955002205955031-005820     205955006001023667816P/FRAME-CLIP 15X20CM   0000001000+00001753+00000+0001T   00001753+0000001411          1400 NJ8510               2AZ
205956000205956               205956               170213CA     1400+00000+CA0000003243+0000003243+000000000+000000455+0000003690+0000000008+I20000000000+0000003690+Z
205956001205956077-000115     205956006001023834225WRAP METALLIC 700mmx1m 0000001000+00001753+00000+0001T   00001753+0000001412          1400 NJ8112               2AZ
205956002205956077-000299     205956006003000395576G/BAG 32x25cm LRG LOVE 0000001000+00001490+00000+0001T   00001490+0000001412          1400 NJ8112               2AZ
205957000205957               205957               170213CA     1400+00000+CA0000000525+0000000525+000000000+000000074+0000000590+0000000009+I20000000000+0000000590+Z
205957001205957903-000155     205957006009803374435SWT LOLLY I LUV U HEART0000001000+00000525+00000+0001T   00000525+0000001413          1400 NJ8150               2AZ
205958000205958               205958               170213CA     1400+00000+CA0000003541+0000003541+000000000+000000497+0000004030+0000000008+I20000000000+0000004030+Z
205958001205958016-006518     205958006003000351749S/JAR GLS CHECK 350ML  0000001000+00001753+00000+0001T   00001753+0000001414          1400 NJ8300               2AZ
205958002205958089-000030     205958006003000575671K/CHAIN LOVE MTL ASSTD 0000001000+00001753+00000+0001T   00001753+0000001414          1400 NJ8205               2AZ
205958003205958112-116038     205958006009681820246TCS CARRIER BAG MIDI   0000001000+00000035+00000+0001T   00000035+0000001414          1400 NJ8090               2AZ
205959000205959               205959               170213CA     1400+00000+CA0000003417+0000003417+000000000+000000480+0000003890+0000000007+I20000000000+0000003890+Z
205959001205959077-000926     205959006003000414178G/WRAP 700mmx2m LOVE   0000001000+00002192+00000+0001T   00002192+0000001415          1400 NJ8112               2AZ
205959002205959903-000200     205959006009826020234SWT CHOC RP CHOCO 23G  0000001000+00000788+00000+0001T   00000788+0000001415          1400 NJ8150               2AZ
205959003205959080-000133-A   205959006003000647019MINI VALENTINES CARD   0000001000+00000437+00000+0001T   00000437+0000001415          1400 NJ8112               2AZ
205960000205960               205960               170213CA     1400+00000+CA0000000788+0000000788+000000000+000000111+0000000890+0000000009+I20000000000+0000000890+Z
205960001205960077-000010-C   205960006001023123879CREPE-PAPER RED        0000001000+00000788+00000+0001T   00000788+0000001415          1400 NJ8112               2AZ
205961000205961               205961               170213CA     1400+00000+CA0000004996+0000004996+000000000+000000701+0000005697+0000000000+I40000005697+0000000000+Z
205961001205961039-000108     205961006001023524034TEA-LITE CANDLES 8PCE  0000001000+00001490+00000+0001T   00001490+0000001421          1400 NJ8510               2AZ
205961002205961306-000529     205961006003000571338TOOTHBRUSH HOLDER 20cm 0000001000+00001753+00000+0001T   00001753+0000001421          1400 NJ8200               2AZ
205961003205961089-000030     205961006003000575671K/CHAIN LOVE MTL ASSTD 0000001000+00001753+00000+0001T   00001753+0000001421          1400 NJ8205               2AZ
205962000205962               205962               170213CA     1400+00000+CA0000003015+0000003015+000000000+000000423+0000003430+0000000008+I20000000000+0000003430+Z
205962001205962077-000245     205962006001023759214GIFT-RIBBON METALLICx2 0000001000+00001227+00000+0001T   00001227+0000001422          1400 NJ8112               2AZ
205962002205962080-000117     205962006003000236350CARD & ENVELOPE THANK U0000001000+00001753+00000+0001T   00001753+0000001422          1400 NJ8112               2AZ
205962003205962112-116038     205962006009681820246TCS CARRIER BAG MIDI   0000001000+00000035+00000+0001T   00000035+0000001422          1400 NJ8090               2AZ
205963000205963               205963               170213CA     1400+00000+CA0000000964+0000000964+000000000+000000135+0000001090+0000000009+I20000000000+0000001090+Z
205963001205963007-000204     205963006009635835272EXAM-PAD 60SHT PUNCHED 0000001000+00000964+00000+0001T   00000964+0000001427          1400 NJ8130               2AZ
205964000205964               205964               170213CA     1400+00000+CA0000006174+0000006174+000000000+000000865+0000007039+0000000000+I40000007039+0000000000+Z
205964001205964018-050000     205964006003000412679MUG OCC LOVE TWIN BEAR 0000001000+00006139+00000+0001T   00006139+0000001429          1400 NJ8515               2AZ
205964002205964112-116038     205964006009681820246TCS CARRIER BAG MIDI   0000001000+00000035+00000+0001T   00000035+0000001429          1400 NJ8090               2AZ
205965000205965               205965               170213CA     1400+00000+CA0000003541+0000003541+000000000+000000497+0000004030+0000000008+I20000000000+0000004030+Z
205965001205965077-000299-A   205965006003000670888GIFT-BAG PAPER JMB LOVE0000001000+00001753+00000+0001T   00001753+0000001430          1400 NJ8112               2AZ
205965002205965080-000106     205965006003000237098CARD&ENVLPE BDAY GIRL  0000001000+00001753+00000+0001T   00001753+0000001430          1400 NJ8112               2AZ
205965003205965112-116038     205965006009681820246TCS CARRIER BAG MIDI   0000001000+00000035+00000+0001T   00000035+0000001430          1400 NJ8090               2AZ
205966000205966               205966               170213CA     1400+00000+CA0000001753+0000001753+000000000+000000246+0000001990+0000000009+I20000000000+0000001990+Z
205966001205966077-000906     205966006003000410804G/WRAP 700mmx1m BIRTHDA0000001000+00001753+00000+0001T   00001753+0000001431          1400 NJ8112               2AZ
205967000205967               205967               170213CA     1400+00000+CA0000003542+0000003542+000000000+000000496+0000004038+0000000000+I40000004038+0000000000+Z
205967001205967018-000136     205967006001023659026MUG OCC LOVE W/PLUSH   0000001000+00003507+00000+0001T   00003507+0000001437          1400 NJ8515               2AZ
205967002205967112-116038     205967006009681820246TCS CARRIER BAG MIDI   0000001000+00000035+00000+0001T   00000035+0000001437          1400 NJ8090               2AZ
205968000205968               205968               170213CA     1400+00000+CA0000021099+0000021099+000000000+000002955+0000024050+0000000004+I20000000000+0000024050+Z
205968001205968265-000316     205968006001023877536CAR RADIO-CONTROL      0000001000+00021051+00000+0001T   00021928+0008191441          1400 NJ8710               2AZ
205968002205968112-116069     205968006009681820277TCS CARRIER BAG JUMBO  0000001000+00000048+00000+0001T   00000048+0000001441          1400 NJ8090               2AZ
205969000205969               205969               170213CA     1400+00000+CA0000000437+0000000437+000000000+000000062+0000000490+0000000009+I20000000000+0000000490+Z
205969001205969080-000133-A   205969006003000647019MINI VALENTINES CARD   0000001000+00000437+00000+0001T   00000437+0000001442          1400 NJ8112               2AZ
205970000205970               205970               170213CA     1400+00000+CA0000003117+0000003117+000000000+000000437+0000003550+0000000004+I20000000000+0000003550+Z
205970001205970301-085008     205970006003000673933ORN OCC.LOVE TINSEL HRT0000001000+00003069+00000+0001T   00003069+0000001446          1400 NJ8505               2AZ
205970002205970112-116069     205970006009681820277TCS CARRIER BAG JUMBO  0000001000+00000048+00000+0001T   00000048+0000001446          1400 NJ8090               2AZ
205971000205971               205971               170213CA     1400+00000+CA0000001578+0000001578+000000000+000000221+0000001790+0000000009+I20000000000+0000001790+Z
205971001205971077-000303     205971006001023593757GIFT-BAG PAPER MED     0000001000+00001578+00000+0001T   00001578+0000001447          1400 NJ8112               2AZ
205972000205972               205972               170213CA     1400+00000+CA0000008817+0000008817+000000000+000001236+0000010050+0000000003+I20000000000+0000010050+Z
205972001205972032-000864-A   205972006001023836403MIRROR WDN 20X25 W/FRME0000001000+00007016+00000+0001T   00007016+0000001448          1400 NJ8510               2AZ
205972002205972106-007125     205972006003000057689MILK-SACHET-JUG 1,0L   0000001000+00001753+00000+0001T   00001753+0000001448          1400 NJ8210               2AZ
205972003205972112-116069     205972006009681820277TCS CARRIER BAG JUMBO  0000001000+00000048+00000+0001T   00000048+0000001448          1400 NJ8090               2AZ
205973000205973               205973               170213CA     1400+00000+CA0000006272+0000006272+000000000+000000879+0000007150+0000000001+I20000000000+0000007150+Z
205973001205973263-000506     205973006001023790231CAR SET 3PK CONSTRUCT  0000001000+00003507+00000+0001T   00003507+0000001449          1400 NJ8710               2AZ
205973002205973079-000275     205973006003000160488PAINT-BRUSHES 6PCE PRO 0000001000+00001753+00000+0001T   00001753+0000001449          1400 NJ8130               2AZ
205973003205973107-002127     205973006003000697793BASIN PL 30cm SQUARE   0000001000+00000964+00000+0001T   00000964+0000001449          1400 NJ8210               2AZ
205973004205973112-116069     205973006009681820277TCS CARRIER BAG JUMBO  0000001000+00000048+00000+0001T   00000048+0000001449          1400 NJ8090               2AZ
205974000205974               205974               170213CA     1400+00000+CA0000002927+0000002927+000000000+000000411+0000003330+0000000008+I20000000000+0000003330+Z
205974001205974012-000001     205974006003000331048MICRO PLATE-COVER 26X6 0000001000+00001753+00000+0001T   00002192+0008191450          1400 NJ8300               2AZ
205974002205974112-116038     205974006009681820246TCS CARRIER BAG MIDI   0000001000+00000035+00000+0001T   00000035+0000001450          1400 NJ8090               2AZ
205974003205974046-000014     205974006001023725387BATTERIES SIZE:AAA 4PCE0000001000+00001139+00000+0001T   00001139+0000001450          1400 NJ8312               2AZ
205975000205975               205975               170213CA     1400+00000+CA0000001490+0000001490+000000000+000000209+0000001699+0000000000+I40000001699+0000000000+Z
205975001205975077-000299     205975006003000395576G/BAG 32x25cm LRG LOVE 0000001000+00001490+00000+0001T   00001490+0000001452          1400 NJ8112               2AZ
205976000205976               205976               170213CA     1400+00000+CA0000001928+0000001928+000000000+000000270+0000002190+0000000008+I20000000000+0000002190+Z
205976001205976050-000361-Z   205976006001023535382PADLOCK IRON 20mm CARD 0000001000+00001928+00000+0001T   00001928+0000001452          1400 NJ8855               2AZ
205977000205977               205977               170213CA     1400+00000+CA0000001139+0000001139+000000000+000000160+0000001290+0000000009+I20000000000+0000001290+Z
205977001205977903-000087     205977006001704000161SWT SPECKLED-EGGS 50G  0000001000+00001139+00000+0001T   00001139+0000001454          1400 NJ8150               2AZ
205978000205978               205978               170213CA     1400+00000+CA0000003946+0000003946+000000000+000000553+0000004490+0000000009+I20000000000+0000004490+Z
205978001205978007-000047     205978006009635833698FILE DISPLAY-BK A4 50PG0000001000+00003946+00000+0001T   00003946+0000001455          1400 NJ8130               2AZ
205979000205979               205979               170213CA     1400+00000+CA0000011886+0000011886+000000000+000001666+0000013550+0000000002+I20000000000+0000013550+Z
205979001205979105-001027     205979006003000364916LUNCH BOX W/CLIPS 2-DIV0000001000+00002192+00000+0001T   00002192+0000001503          1400 NJ8210               2AZ
205979002205979065-003639     205979006001023787620GUITAR ROCKER          0000001000+00007016+00000+0001T   00007016+0000001503          1400 NJ8745               2AZ
205979003205979112-116069     205979006009681820277TCS CARRIER BAG JUMBO  0000001000+00000048+00000+0001T   00000048+0000001503          1400 NJ8090               2AZ
205979004205979020-000620     205979006001023629722UTILITY-KNIFE 12cm-BLDE0000001000+00002630+00000+0001T   00002630+0000001503          1400 NJ8300               2AZ
205980000205980               205980               170213CA     1400+00000+CA0000009336+0000009336+000000000+000001309+0000010645+0000000000+I40000010645+0000000000+Z
205980001205980200-000060     205980006001023625762STRAWS 18cm FLEX 200PCE0000001000+00002455+00000+0001T   00002455+0000001506          1400 NJ8214               2AZ
205980002205980368-000049     205980006003000536955PLUSH BEAR 15cm LOVE   0000001000+00004385+00000+0001T   00004385+0000001506          1400 NJ8745               2AZ
205980003205980079-009700-G   205980006003000545957PAPER SIRIO A4 LIME COL0000002000+00000306+00000+0001T   00000306+0000001506          1400 NJ8130               2AZ
205980004205980079-009700-C   205980006003000545636PAPER SIRIO A4 VIOLET  0000002000+00000306+00000+0001T   00000306+0000001506          1400 NJ8130               2AZ
205980005205980079-009700-D   205980006003000545711PAPER SIRIO A4 RED COL.0000002000+00000306+00000+0001T   00000306+0000001506          1400 NJ8130               2AZ
205980006205980079-009700-F   205980006003000545872PAPER SIRIO A4 TURQ COL0000002000+00000306+00000+0001T   00000306+0000001506          1400 NJ8130               2AZ
205980007205980112-116069     205980006009681820277TCS CARRIER BAG JUMBO  0000001000+00000048+00000+0001T   00000048+0000001506          1400 NJ8090               2AZ
205981000205981               205981               170213CA     1400+00000+CA0000003507+0000003507+000000000+000000491+0000003990+0000000008+I20000000000+0000003990+Z
205981001205981567-075490     205981009780799367652BK NOVEL ROMANCE AFR   0000001000+00003507+00000+0001T   00003507+0000001639          1400 NJ8757               2AZ
205982000205982               205982               170213CA     1400+00000+CA0000003541+0000003541+000000000+000000497+0000004030+0000000008+I20000000000+0000004030+Z
205982001205982133-000018     205982006003000583218SWAB MICROFIBRE 30x30cm0000001000+00001753+00000+0001T   00001753+0000001646          1400 NJ8212               2AZ
205982002205982036-000610     205982006001023627230WASHING-PEGS PL PACK-240000001000+00001753+00000+0001T   00001753+0000001646          1400 NJ8212               2AZ
205982003205982112-116038     205982006009681820246TCS CARRIER BAG MIDI   0000001000+00000035+00000+0001T   00000035+0000001646          1400 NJ8090               2AZ
205983000205983               205983               170213CA     1400+00000+CA0000006138+0000006138+000000000+000000860+0000006998+0000000000+I40000006998+0000000000+Z
205983001205983089-060027     205983006003000245871KEY-CHAIN HEART 6X6cm  0000002000+00003069+00000+0001T   00003069+0000001648          1400 NJ8205               2AZ
205984000205984               205984               170213CA     1400+00000+CA0000002276+0000002276+000000000+000000319+0000002590+0000000005+I20000000000+0000002590+Z
205984001205984903-000071     205984006001704001120SWT TOFFEE LIQURICE 35g0000002000+00000700+00000+0001T   00000700+0000001649          1400 NJ8150               2AZ
205984002205984077-000302     205984008010410010195GIFT-BAG 18X23CM E/D   0000001000+00000876+00000+0001T   00000876+0000001649          1400 NJ8112               2AZ
205985000205985               205985               170213CA     1400+00000+CA0000001402+0000001402+000000000+000000197+0000001590+0000000009+I20000000000+0000001590+Z
205985001205985304-001204     205985006001023737984FLOWER OCC. TEDDY/ROSES0000001000+00001402+00000+0001T   00001490+0006471649          1400 NJ8510               2AZ
205986000205986               205986               170213CA     1400+00000+CA0000003944+0000003944+000000000+000000553+0000004497+0000000000+I40000004497+0000000000+Z
205986001205986162-096646     205986006001492966465#TAG HOT DEALS KIDS HR 0000001000+00002630+00000+0001T   00002630+0000001651          1400 NJ8160               2AZ
205986002205986030-000010     205986006003000084395P/DOOR HANGER 2-ASSTD  0000001000+00001314+00000+0001T   00001490+0008181651          1400 NJ8505               2AZ
205987000205987               205987               170213CA     1400+00000+CA0000005908+0000005908+000000000+000000828+0000006736+0000000000+I40000006736+0000000000+Z
205987001205987002-000740     205987006001023763945GRATER 4-WAY WHITE     0000001000+00002192+00000+0001T   00002192+0000001653          1400 NJ8300               2AZ
205987002205987106-007125     205987006003000057689MILK-SACHET-JUG 1,0L   0000001000+00001753+00000+0001T   00001753+0000001653          1400 NJ8210               2AZ
205987003205987159-000649     205987006001023803931BATH-SPONGE RND        0000001000+00001928+00000+0001T   00001928+0000001653          1400 NJ8200               2AZ
205987004205987112-116038     205987006009681820246TCS CARRIER BAG MIDI   0000001000+00000035+00000+0001T   00000035+0000001653          1400 NJ8090               2AZ
205988000205988               205988               170213CA     1400+00000+CA0000000876+0000000876+000000000+000000123+0000000990+0000000009+I20000000000+0000000990+Z
205988001205988039-000319-3   205988006003000442621B/CANDLES LRG NUMBER-3 0000001000+00000876+00000+0001T   00000876+0000001653          1400 NJ8510               2AZ
205989000205989               205989               170213CA     1400+00000+CA0000001707+0000001707+000000000+000000240+0000001940+0000000007+I20000000000+0000001940+Z
205989001205989903-000183     205989006003000451043SWT LB HEART LOLLY     0000001000+00000393+00000+0001T   00000393+0000001655          1400 NJ8150               2AZ
205989002205989903-000194     205989006009826020616SWT CHOC RP LOLLY 25G  0000001000+00001314+00000+0001T   00001314+0000001655          1400 NJ8150               2AZ
205990000205990               205990               170213CA     1400+00000+CA0000003507+0000003507+000000000+000000491+0000003990+0000000008+I20000000000+0000003990+Z
205990001205990079-014101     205990006001023908612ART+CRAFT SCOUBIDOUx50 0000001000+00003507+00000+0001T   00003507+0000001657          1400 NJ8130               2AZ
205991000205991               205991               170213CA     1400+00000+CA0000006135+0000006135+000000000+000000860+0000006995+0000000000+I40000006995+0000000000+Z
205991001205991030-000040     205991006003000396375PLAQUE WDN HANGING HRTS0000001000+00003069+00000+0001T   00003069+0000001705          1400 NJ8505               2AZ
205991002205991007-000555     205991006001023848239MEMO-PAD MINI LOVE     0000001000+00000613+00000+0001T   00000613+0000001705          1400 NJ8130               2AZ
205991003205991301-085006     205991006001023502940ORN LOVE MSG TUBE W/HRT0000001000+00001753+00000+0001T   00001753+0000001705          1400 NJ8505               2AZ
205991004205991007-000104     205991006009685854865BK COVER BRWN KRFT ROLL0000002000+00000350+00000+0001T   00000350+0000001705          1400 NJ8130               2AZ
205992000205992               205992               170213CA     1400+00000+CA0000005262+0000005262+000000000+000000737+0000005999+0000000000+I40000005999+0000000000+Z
205992001205992567-010161     205992009780000008516BOOK TOP ASSTD MILLS   0000001000+00005262+00000+0001T   00005262+0000001707          1400 NJ8757               2AZ
205993000205993               205993               170213CA     1400+00000+CA0000004385+0000004385+000000000+000000614+0000004999+0000000000+I40000004999+0000000000+Z
205993001205993564-000038     205993006003000470624BUBBLE SPRING 230ml    0000001000+00004385+00000+0001T   00004385+0000001710          1400 NJ8131               2AZ
205994000205994               205994               170213CA     1400+00000+CA0000003770+0000003770+000000000+000000528+0000004298+0000000000+I40000004298+0000000000+Z
205994001205994077-000303     205994006001023593757GIFT-BAG PAPER MED     0000001000+00001578+00000+0001T   00001578+0000001713          1400 NJ8112               2AZ
205994002205994077-000300     205994006001023483249GIFT BOX OCCASIONS HEXG0000001000+00002192+00000+0001T   00002192+0000001713          1400 NJ8112               2AZ
205995000205995               205995               170213CA     1400+00000+CA0000005746+0000005746+000000000+000000806+0000006550+0000000002+I20000000000+0000006550+Z
205995001205995080-000127     205995006003000424351VALENTINES DAY 36x24CM 0000001000+00002192+00000+0001T   00002192+0000001717          1400 NJ8112               2AZ
205995002205995077-000299-A   205995006003000670888GIFT-BAG PAPER JMB LOVE0000001000+00001753+00000+0001T   00001753+0000001717          1400 NJ8112               2AZ
205995003205995077-000290     205995006001023902023GIFT BOX 26x32x13cm    0000001000+00001753+00000+0001T   00001753+0000001717          1400 NJ8112               2AZ
205995004205995112-116069     205995006009681820277TCS CARRIER BAG JUMBO  0000001000+00000048+00000+0001T   00000048+0000001717          1400 NJ8090               2AZ
205996000205996               205996               170213CA     1400+00000+CA0000006165+0000006165+000000000+000000865+0000007030+0000000000+I20000000000+0000007030+Z
205996001205996112-116038     205996006003000534906TCS CARRIER BAG MIDI   0000001000+00000035+00000+0001T   00000035+0000001721          1400 NJ8090               2AZ
205996002205996200-000130     205996006001023645067DESSERT-SPOONS 10PCE   0000010000+00000613+00000+0001T   00000613+0000001721          1400 NJ8214               2AZ
205997000205997               205997               170213CA     1400+00000+CA0000008771+0000008771+000000000+000001228+0000009999+0000000000+I40000009999+0000000000+Z
205997001205997006-000165     205997006001023758392BALLOONS LRG BAG-OF-1000000001000+00008771+00000+0001T   00008771+0000001724          1400 NJ8131               2AZ
205998000205998               205998               170213CA     1400+00000+CA0000003156+0000003156+000000000+000000442+0000003590+0000000008+I20000000000+0000003590+Z
205998001205998028-000799     205998006001023812186SKEWERS BAMBOO 100PCE  0000002000+00001578+00000+0001T   00001578+0000001724          1400 NJ8305               2AZ
205999000205999               205999               170213CA     1400+00000+CA0000001613+0000001613+000000000+000000226+0000001839+0000000000+I40000001839+0000000000+Z
205999001205999077-000303     205999006001023593757GIFT-BAG PAPER MED     0000001000+00001578+00000+0001T   00001578+0000001727          1400 NJ8112               2AZ
205999002205999112-116038     205999006009681820246TCS CARRIER BAG MIDI   0000001000+00000035+00000+0001T   00000035+0000001727          1400 NJ8090               2AZ
206000000206000               206000               170213CA     1400+00000+CA0000001753+0000001753+000000000+000000246+0000001990+0000000009+I20000000000+0000001990+Z
206000001206000077-000011-X   206000006001023809827TISSUE-WRAP SILVER 10PC0000001000+00001753+00000+0001T   00001753+0000001727          1400 NJ8112               2AZ
206001000206001               206001               170213CA     1400+00000+CA0000013816+0000013816+000000000+000001936+0000015752+0000000000+I40000015752+0000000000+Z
206001001206001301-085007     206001006003000673698ORN OCC. LOVE S/PLAQUE 0000001000+00007893+00000+0001T   00007893+0000001729          1400 NJ8505               2AZ
206001002206001031-080508     206001006001023802415P/FRAME PL 22X11CM LOVE0000001000+00004385+00000+0001T   00004385+0000001729          1400 NJ8510               2AZ
206001003206001077-000299     206001006003000395576G/BAG 32x25cm LRG LOVE 0000001000+00001490+00000+0001T   00001490+0000001729          1400 NJ8112               2AZ
206001004206001112-116069     206001006009681820277TCS CARRIER BAG JUMBO  0000001000+00000048+00000+0001T   00000048+0000001729          1400 NJ8090               2AZ
206002000206002               206002               170213CA     1400+00000+CA0000002804+0000002804+000000000+000000394+0000003190+0000000008+I20000000000+0000003190+Z
206002001206002301-085002     206002006003000420704ORN OCC. LOVE BELL ASST0000001000+00001753+00000+0001T   00002630+0008121729          1400 NJ8505               2AZ
206002002206002903-002850     206002000000087108262MENTOS ROLL FRUIT      0000001000+00001051+00000+0001T   00001051+0000001729          1400 NJ8150               2AZ
A17021300                                          09453899CASLAVE 2                       NJ82IC
A17021301                                          10062275CASLAVE 2                       NJ82IC
A17021302                                          11335242CASLAVE 2                       NJ82IC
A17021303                                          12522416CASLAVE 2                       NJ82IC
A17021304                                          17200387CASLAVE 2                       NJ81IC
C20588800                                          170213CA033-008209     11361700SLAVE 2     NJ82IC0000000000+0000000000+0010000001000+
C20594100                                          170213CA077-000302     13365517SLAVE 2     NJ82IC0000000000+0000000000+0020000001000+
C20599000                                          170213CA007-000119     16571626SLAVE 2     NJ82IC0000000000+0000000000+0010000001000+
C20599600                                          170213CA112-116038     17210278SLAVE 2     NJ82IC0000000000+0000000000+0030000001000+
M17021391                              CASH        CASLAVE 2                       Z-REPORT No.   573TOTAL (Sales - Refunds)           6513.49       CASH TO BE BANKED                 3824.40       DEBIT CARDS                          0.00       CREDIT CARDS                      2689.09       Z-READING                         6513.49       AIRTIME DEBIT CARD SALES             0.00       AIRTIME CARD SALES                   0.00       OVERS/UNDERS                         0.00       AIRTIME CASH SALES                   0.00       GIFT CARDS                           0.00       GIFT CARD CASH SALES                 0.00       T O T A L  CASH PAYOUTS              0.00                                                                                                                                                                                                                                                                                                                                                      Z
M17021392                              CASH        CAABSENT                                                                                                                                                                                          ANNUAL LEAVE                                                                                                                                                                                    DAY OFF                                                                                                                                                                                         COMMENTS                                                                                                                                                                                                                                                                                                                                                                                       Z
Y17021300                                          CA00000000571825+000124
ZCA17021319233 SLAVE 2      SALES DATA                     NEXT INVOICE NO.  206003 0573
F093703496-057489         1701111037250000031ICSLAVE 2
F094059496-028120         1701130753360000022ICSLAVE 2
X CA Slave 2 First invoice 205879 170213 Last invoice 206002 170213 Next invoice 206003 Total number of records 000000402 clbackup completed 19:23:53
