117539000117539               117539               170213CB     1400+00000+CB0000001752+0000001752+000000000+000000246+0000001990+0000000008+I20000000000+0000001990+Z
117539001117539039-000319-0   117539006003000441273B/CANDLES LRG NUMBER-0 0000001000+00000876+00000+0001T   00000876+0000000933          1400 BJ5510               1BZ
117539002117539039-000319-1   117539006003000442386B/CANDLES LRG NUMBER-1 0000001000+00000876+00000+0001T   00000876+0000000933          1400 BJ5510               1BZ
117540000117540               117540               170213CB     1400+00000+CB0000000393+0000000393+000000000+000000056+0000000440+0000000009+I20000000000+0000000440+Z
117540001117540903-000183     117540006003000451043SWT LB HEART LOLLY     0000001000+00000393+00000+0001T   00000393+0000000935          1400 BJ5150               1BZ
117541000117541               117541               170213CB     1400+00000+CB0000007893+0000007893+000000000+000001106+0000008999+0000000000+I40000008999+0000000000+Z
117541001117541082-000126     117541006003000646517READING GLASS TWIN 2.5 0000001000+00007893+00000+0001T   00007893+0000000944          1400 BJ5160               1BZ
117542000117542               117542               170213CB     1400+00000+CB0000018445+0000018445+000000000+000002588+0000021033+0000000000+I40000021033+0000000000+Z
117542001117542466-000515     117542006001023477408BALLS TENNIS BAG-OF-3  0000007000+00002630+00000+0001T   00002630+0000000954          1400 BJ5785               1BZ
117542002117542112-116038     117542006009681820246TCS CARRIER BAG MIDI   0000001000+00000035+00000+0001T   00000035+0000000954          1400 BJ5090               1BZ
117543000117543               117543               170213CB     1400+00000+CB0000001050+0000001050+000000000+000000148+0000001190+0000000008+I20000000000+0000001190+Z
117543001117543903-000155     117543006009803374435SWT LOLLY I LUV U HEART0000002000+00000525+00000+0001T   00000525+0000000955          1400 BJ5150               1BZ
117544000117544               117544               170213CB     1400+00000+CB0000005259+0000005259+000000000+000000738+0000005997+0000000000+I40000005997+0000000000+Z
117544001117544089-000030     117544006003000575671K/CHAIN LOVE MTL ASSTD 0000003000+00001753+00000+0001T   00001753+0000001003          1400 BJ5205               1BZ
117545000117545               117545               170213CB     1400+00000+CB0000007891+0000007891+000000000+000001106+0000008997+0000000000+I40000008997+0000000000+Z
117545001117545133-000083     117545006003000450510DISH DRAINING MAT      0000001000+00005262+00000+0001T   00005262+0000001006          1400 BJ5212               1BZ
117545002117545027-056191     117545006916920933134DISH-BRUSH+HOOK RECT   0000001000+00001753+00000+0001T   00001753+0000001006          1400 BJ5212               1BZ
117545003117545084-070005     117545006001023627902NAIL FILES 6PCE H/GLOW 0000001000+00000876+00000+0001T   00000876+0000001006          1400 BJ5200               1BZ
117546000117546               117546               170213CB     1400+00000+CB0000000876+0000000876+000000000+000000123+0000000990+0000000009+I20000000000+0000000990+Z
117546001117546084-070005     117546006001023627902NAIL FILES 6PCE H/GLOW 0000001000+00000876+00000+0001T   00000876+0000001006          1400 BJ5200               1BZ
117547000117547               117547               170213CB     1400+00000+CB0000005478+0000005478+000000000+000000768+0000006240+0000000006+I20000000000+0000006240+Z
117547001117547077-000303     117547006001023593757GIFT-BAG PAPER MED     0000001000+00001578+00000+0001T   00001578+0000001008          1400 BJ5112               1BZ
117547002117547018-005009     117547006001023725608MUG W/PLUSH-BEAR LOVE  0000001000+00003507+00000+0001T   00003507+0000001008          1400 BJ5515               1BZ
117547003117547903-000183     117547006003000451043SWT LB HEART LOLLY     0000001000+00000393+00000+0001T   00000393+0000001008          1400 BJ5150               1BZ
117548000117548               117548               170213CB     1400+00000+CB0000003943+0000003943+000000000+000000553+0000004490+0000000006+I20000000000+0000004490+Z
117548001117548046-000012     117548006904708013062BATTERIES AA  CARD-OF-40000001000+00001314+00000+0001T   00001314+0000001011          1400 BJ5312               1BZ
117548002117548036-000010     117548006003000675777LINT REMOVER STICKY    0000001000+00001753+00000+0001T   00001753+0000001011          1400 BJ5212               1BZ
117548003117548036-000011     117548006003000675890LINT REMOVER REFILL    0000001000+00000876+00000+0001T   00000876+0000001011          1400 BJ5212               1BZ
117549000117549               117549               170213CB     1400+00000+CB0000008771+0000008771+000000000+000001228+0000009999+0000000000+I40000009999+0000000000+Z
117549001117549002-000748     117549006001023477439GRATER S/S 4-WAY  BLACK0000001000+00008771+00000+0001T   00008771+0000001016          1400 BJ5300               1BZ
117550000117550               117550               170213CB     1400+00000+CB0000007763+0000007763+000000000+000001088+0000008850+0000000001+I20000000000+0000008850+Z
117550001117550080-000124     117550006003000297733CARD & ENV VALENTINES  0000001000+00001578+00000+0001T   00001578+0000001019          1400 BJ5112               1BZ
117550002117550301-085004     117550006003000420469ORN LOVE PLAQUE 21X10CM0000001000+00003507+00000+0001T   00003946+0006471019          1400 BJ5505               1BZ
117550003117550077-000270     117550006003000395453GIFT-BAG PPR JMB 33X45 0000001000+00002630+00000+0001T   00002630+0000001019          1400 BJ5112               1BZ
117550004117550112-116069     117550006009681820277TCS CARRIER BAG JUMBO  0000001000+00000048+00000+0001T   00000048+0000001019          1400 BJ5090               1BZ
117551000117551               117551               170213CB     1400+00000+CB0000004200+0000004200+000000000+000000588+0000004780+0000000008+I20000000000+0000004780+Z
117551001117551903-000070     117551006001704001106SWT TOFFEE CREAMY 35g  0000006000+00000700+00000+0001T   00000700+0000001026          1400 BJ5150               1BZ
117552000117552               117552               170213CB     1400+00000+CB0000002192+0000002192+000000000+000000307+0000002499+0000000000+I40000002499+0000000000+Z
117552001117552046-000012-A   117552006003000208296BATTERIES H/POWER SZ:AA0000001000+00002192+00000+0001T   00002192+0000001031          1400 BJ5312               1BZ
117553000117553               117553               170213CB     1400+00000+CB0000009465+0000009465+000000000+000001328+0000010790+0000000003+I20000000000+0000010790+Z
117553001117553567-014132     117553006003000560028BOOK COLOURING 24 PAGE 0000002000+00000876+00000+0001T   00000876+0000001032          1400 BJ5757               1BZ
117553002117553566-000007     117553006001023761187S/BOOK SUPER VALUE     0000002000+00001753+00000+0001T   00001753+0000001032          1400 BJ5130               1BZ
117553003117553006-000120     117553006001023346889BALLOONS 10PC MIX COL  0000001000+00001753+00000+0001T   00001753+0000001032          1400 BJ5131               1BZ
117553004117553079-000010     117553006001023173409P/CRAYONS 12-COL SHORT 0000002000+00001227+00000+0001T   00001227+0000001032          1400 BJ5130               1BZ
117554000117554               117554               170213CB     1400+00000+CB0000003506+0000003506+000000000+000000492+0000003990+0000000008+I20000000000+0000003990+Z
117554001117554036-000151     117554006001023810588COATHANGERS    PACK-10 0000001000+00002893+00000+0001T   00002893+0000001037          1400 BJ5212               1BZ
117554002117554150-004030-H   117554006001023435798BATH-PLUG RUBBER WHITE 0000001000+00000613+00000+0001T   00000613+0000001037          1400 BJ5810               1BZ
117555000117555               117555               170213CB     1400+00000+CB0000003507+0000003507+000000000+000000491+0000003990+0000000008+I20000000000+0000003990+Z
117555001117555007-000325     117555006009698066514PAPER A4 160GSM 25SHTS 0000001000+00003507+00000+0001T   00003507+0000001041          1400 BJ5130               1BZ
117556000117556               117556               170213CB     1400+00000+CB0000002630+0000002630+000000000+000000369+0000002990+0000000009+I20000000000+0000002990+Z
117556001117556034-078810     117556006001023856838DIAPER DISPOSE-BAGSx1000000001000+00002630+00000+0001T   00002630+0000001120          1400 BJ5215               1BZ
117557000117557               117557               170213CB     1400+00000+CB0000010084+0000010084+000000000+000001413+0000011490+0000000007+I20000000000+0000011490+Z
117557001117557306-000024-A   117557006003000577309COTTON-WOOL-PADS 80PC  0000001000+00001753+00000+0001T   00001753+0000001122          1400 BJ5200               1BZ
117557002117557032-000136     117557006001023328182M/STANDING STAND. ROUND0000001000+00006139+00000+0001T   00006139+0000001122          1400 BJ5510               1BZ
117557003117557033-000780     117557006001023752611COSMETIC-BRUSH-SET 7PCE0000001000+00002192+00000+0001T   00002192+0000001122          1400 BJ5200               1BZ
117558000117558               117558               170213CB     1400+00000+CB0000001752+0000001752+000000000+000000246+0000001990+0000000008+I20000000000+0000001990+Z
117558001117558077-000011-D   117558006001023808554TISSUE-WRAP WHITE 10PCE0000002000+00000876+00000+0001T   00000876+0000001124          1400 BJ5112               1BZ
117559000117559               117559               170213CB     1400+00000+CB0000010522+0000010522+000000000+000001475+0000011997+0000000000+I40000011997+0000000000+Z
117559001117559077-000270     117559006003000395453GIFT-BAG PPR JMB 33X45 0000001000+00002630+00000+0001T   00002630+0000001127          1400 BJ5112               1BZ
117559002117559301-006020     117559006003000461493ORN OWL 8x6.5cm 4-ASSTD0000001000+00005262+00000+0001T   00005262+0000001127          1400 BJ5505               1BZ
117559003117559031-086100     117559006001023900661P/FRAME GLS FILM 10X15 0000001000+00002630+00000+0001T   00002630+0000001127          1400 BJ5510               1BZ
117560000117560               117560               170213CB     1400+00000+CB0000000876+0000000876+000000000+000000123+0000000990+0000000009+I20000000000+0000000990+Z
117560001117560077-000302     117560008010410010195GIFT-BAG 18X23CM E/D   0000001000+00000876+00000+0001T   00000876+0000001130          1400 BJ5112               1BZ
117561000117561               117561               170213CB     1400+00000+CB0000005085+0000005085+000000000+000000712+0000005790+0000000007+I20000000000+0000005790+Z
117561001117561018-000136     117561006001023659026MUG OCC LOVE W/PLUSH   0000001000+00003507+00000+0001T   00003507+0000001137          1400 BJ5515               1BZ
117561002117561077-000303     117561006001023593757GIFT-BAG PAPER MED     0000001000+00001578+00000+0001T   00001578+0000001137          1400 BJ5112               1BZ
117562000117562               117562               170213CB     1400+00000+CB0000004204+0000004204+000000000+000000592+0000004790+0000000006+I20000000000+0000004790+Z
117562001117562039-000026     117562006001023551610C/TAPERED 25CM M/RED   0000004000+00001051+00000+0001T   00001051+0000001143          1400 BJ5510               1BZ
117563000117563               117563               170213CB     1400+00000+CB0000035204+0000035204+000000000+000004936+0000040140+0000000000+I40000040140+0000000000+Z
117563001117563006-000812     117563006001023902832HAT CONE WITH TINSEL   0000003000+00000876+00000+0001T   00000876+0000001147          1400 BJ5131               1BZ
117563002117563006-000098     117563006003000601325PARTY PHOTO BOOTH 20PC 0000001000+00005262+00000+0001T   00005262+0000001147          1400 BJ5131               1BZ
117563003117563563-000317-G   117563006001023776341SERVIETTES BRIGHT ASSTD0000002000+00002630+00000+0001T   00002630+0000001147          1400 BJ5214               1BZ
117563004117563039-000319-8   117563006003000443222B/CANDLES LRG NUMBER-8 0000001000+00000876+00000+0001T   00000876+0000001147          1400 BJ5510               1BZ
117563005117563006-000165     117563006001023758392BALLOONS LRG BAG-OF-1000000001000+00008771+00000+0001T   00008771+0000001147          1400 BJ5131               1BZ
117563006117563006-000788     117563006001023990228CROWN HAPPY BIRTHDAY   0000001000+00001490+00000+0001T   00001490+0000001147          1400 BJ5131               1BZ
117563007117563039-000319-1   117563006003000442386B/CANDLES LRG NUMBER-1 0000001000+00000876+00000+0001T   00000876+0000001147          1400 BJ5510               1BZ
117563008117563006-000805     117563000013994092418STREAMERS 10-ROLLS     0000002000+00001490+00000+0001T   00001490+0000001147          1400 BJ5131               1BZ
117563009117563006-000092     117563006001023739650BANNER BIRTHDAY PAPER  0000001000+00001753+00000+0001T   00001753+0000001147          1400 BJ5131               1BZ
117563010117563112-116069     117563006003000535064TCS CARRIER BAG JUMBO  0000001000+00000048+00000+0001T   00000048+0000001147          1400 BJ5090               1BZ
117563011117563006-000191-1   117563006003000685776BALLOONS FOIL SILV NR 10000001000+00002630+00000+0001T   00002630+0000001147          1400 BJ5131               1BZ
117563012117563006-000191-8   117563006003000686612BALLOONS FOIL SILV NR 80000001000+00002630+00000+0001T   00002630+0000001147          1400 BJ5131               1BZ
117564000117564               117564               170213CB     1400+00000+CB0000001753+0000001753+000000000+000000246+0000001990+0000000009+I20000000000+0000001990+Z
117564001117564046-002013-PK6 117564004897006174851BATTERY BUTTON AG13 6PC0000001000+00001753+00000+0001T   00001753+0000001149          1400 BJ5312               1BZ
117565000117565               117565               170213CB     1400+00000+CB0000003506+0000003506+000000000+000000492+0000003990+0000000008+I20000000000+0000003990+Z
117565001117565306-000024-A   117565006003000577309COTTON-WOOL-PADS 80PC  0000001000+00001753+00000+0001T   00001753+0000001150          1400 BJ5200               1BZ
117565002117565038-001803     117565006001023766588DOILIES 17cm RND 18PC  0000001000+00001753+00000+0001T   00001753+0000001150          1400 BJ5300               1BZ
117566000117566               117566               170213CB     1400+00000+CB0000008768+0000008768+000000000+000001229+0000009990+0000000007+I20000000000+0000009990+Z
117566001117566566-000865     117566006001023788412STICKER ASSTD          0000001000+00001753+00000+0001T   00001753+0000001150          1400 BJ5130               1BZ
117566002117566565-000859     117566006001023691361SUNGLASSES GIANT       0000001000+00001753+00000+0001T   00001753+0000001150          1400 BJ5745               1BZ
117566003117566006-000098     117566006003000601325PARTY PHOTO BOOTH 20PC 0000001000+00005262+00000+0001T   00005262+0000001150          1400 BJ5131               1BZ
117567000117567               117567               170213CB     1400+00000+CB0000004385+0000004385+000000000+000000614+0000004990+0000000009+I20000000000+0000004990+Z
117567001117567030-000031-A   117567006003000457588PLAQUE W/WORDS ASSTD   0000001000+00004385+00000+0001T   00004823+0006471152          1400 BJ5505               1BZ
117568000117568               117568               170213CB     1400+00000+CB0000002804+0000002804+000000000+000000394+0000003190+0000000008+I20000000000+0000003190+Z
117568001117568304-001204     117568006001023737984FLOWER OCC. TEDDY/ROSES0000002000+00001402+00000+0001T   00001490+0006471155          1400 BJ5510               1BZ
117569000117569               117569               170213CB     1400+00000+CB0000016698+0000016698+000000000+000002339+0000019030+0000000007+I20000000000+0000019030+Z
117569001117569567-010546     117569009781472319524MONSTERS STICKER BOOK  0000001000+00004385+00000+0001T   00006139+0008131157          1400 BJ5757               1BZ
117569002117569567-075497     117569009780799381658BK NOVEL ROMANCE AFR   0000001000+00006139+00000+0001T   00006139+0000001157          1400 BJ5757               1BZ
117569003117569567-075497     117569009780799381672BK NOVEL ROMANCE AFR   0000001000+00006139+00000+0001T   00006139+0000001157          1400 BJ5757               1BZ
117569004117569112-116038     117569006009681820246TCS CARRIER BAG MIDI   0000001000+00000035+00000+0001T   00000035+0000001157          1400 BJ5090               1BZ
117570000117570               117570               170213CB     1400+00000+CB0000003507+0000003507+000000000+000000491+0000003990+0000000008+I20000000000+0000003990+Z
117570001117570028-002101     117570006002580009507CHAIR JUNIOR    ASSTD  0000001000+00003507+00000+0001T   00003507+0000001158          1400 BJ5305               1BZ
117571000117571               117571               170213CB     1400+00000+CB0000004241+0000004241+000000000+000000595+0000004836+0000000000+I40000004836+0000000000+Z
117571001117571072-020211     117571006001023775801PET CHEWS ROLLER-ROLL  0000002000+00001753+00000+0001T   00001753+0000001159          1400 BJ5870               1BZ
117571002117571564-000012     117571006001023130075BUBBLE BOTTLE MAGIC    0000001000+00000700+00000+0001T   00000700+0000001159          1400 BJ5131               1BZ
117571003117571112-116038     117571006009681820246TCS CARRIER BAG MIDI   0000001000+00000035+00000+0001T   00000035+0000001159          1400 BJ5090               1BZ
117572000117572               117572               170213CB     1400+00000+CB0000007921+0000007921+000000000+000001113+0000009034+0000000000+I40000009034+0000000000+Z
117572001117572079-013032-E   117572006003000389766ART+CRAFT COL/PAPER    0000001000+00002630+00000+0001T   00002630+0000001202          1400 BJ5130               1BZ
117572002117572077-000408     117572006003000145218G/BAG PP 15X21X7CM     0000001000+00000876+00000+0001T   00000876+0000001202          1400 BJ5112               1BZ
117572003117572071-081101-A   117572006003000326549GLUE-STICK 25g BLISTER 0000001000+00000788+00000+0001T   00000788+0000001202          1400 BJ5130               1BZ
117572004117572079-000807     117572006003000670277ART+CRAFT WOODEN STICKS0000001000+00001490+00000+0001T   00001490+0000001202          1400 BJ5130               1BZ
117572005117572079-009702-D   117572008427973059354PAPER SIRIO A2 RED COL 0000001000+00001051+00000+0001T   00001051+0000001202          1400 BJ5130               1BZ
117572006117572079-009702-G   117572008427973060787PAPER SIRIO A2 FUSHIA  0000001000+00001051+00000+0001T   00001051+0000001202          1400 BJ5130               1BZ
117572007117572112-116038     117572006003000534906TCS CARRIER BAG MIDI   0000001000+00000035+00000+0001T   00000035+0000001202          1400 BJ5090               1BZ
117573000117573               117573               170213CB     1400+00000+CB0000001753+0000001753+000000000+000000246+0000001990+0000000009+I20000000000+0000001990+Z
117573001117573089-000030     117573006003000575671K/CHAIN LOVE MTL ASSTD 0000001000+00001753+00000+0001T   00001753+0000001206          1400 BJ5205               1BZ
117574000117574               117574               170213CB     1400+00000+CB0000005468+0000005468+000000000+000000766+0000006234+0000000000+I40000006234+0000000000+Z
117574001117574077-000303     117574006001023593757GIFT-BAG PAPER MED     0000001000+00001578+00000+0001T   00001578+0000001210          1400 BJ5112               1BZ
117574002117574018-000127     117574006001023380289MUG OCC STRAIGHT LOVE  0000001000+00001578+00000+0001T   00001753+0006471210          1400 BJ5515               1BZ
117574003117574903-004960     117574008410525221842SWT GUMMY STR/BERRY 50G0000001000+00000964+00000+0001T   00000964+0000001210          1400 BJ5150               1BZ
117574004117574903-000120     117574006002099001665SWEET GS ZILLIONS 50g  0000001000+00000700+00000+0001T   00000700+0000001210          1400 BJ5150               1BZ
117574005117574083-000055     117574006003000003853LIGHTER ELCTRNC REFILBL0000001000+00000613+00000+0001T   00000613+0000001210          1400 BJ5315               1BZ
117574006117574112-116038     117574006003000534906TCS CARRIER BAG MIDI   0000001000+00000035+00000+0001T   00000035+0000001210          1400 BJ5090               1BZ
117575000117575               117575               170213CB     1400+00000+CB0000003069+0000003069+000000000+000000430+0000003490+0000000009+I20000000000+0000003490+Z
117575001117575104-000035     117575006003000614752BASKET PL 29x10x31cm   0000001000+00003069+00000+0001T   00003069+0000001214          1400 BJ5210               1BZ
117576000117576               117576               170213CB     1400+00000+CB0000001753+0000001753+000000000+000000246+0000001990+0000000009+I20000000000+0000001990+Z
117576001117576567-011498     117576000814625014348BK COLOURING 96P JUNGLE0000001000+00001753+00000+0001T   00002630+0008141217          1400 BJ5757               1BZ
117577000117577               117577               170213CB     1400+00000+CB0000002630+0000002630+000000000+000000369+0000002990+0000000009+I20000000000+0000002990+Z
117577001117577403-000502-A   117577006003000467099M/BANK TIN 8x12.5cm    0000001000+00002630+00000+0001T   00002630+0000001218          1400 BJ5510               1BZ
117578000117578               117578               170213CB     1400+00000+CB0000002191+0000002191+000000000+000000307+0000002490+0000000008+I20000000000+0000002490+Z
117578001117578080-000124     117578006003000297733CARD & ENV VALENTINES  0000001000+00001578+00000+0001T   00001578+0000001227          1400 BJ5112               1BZ
117578002117578077-000321     117578006001023677501GIFT-BAG 11X14CM E/D FL0000001000+00000613+00000+0001T   00000613+0000001227          1400 BJ5112               1BZ
117579000117579               117579               170213CB     1400+00000+CB0000002665+0000002665+000000000+000000374+0000003039+0000000000+I40000003039+0000000000+Z
117579001117579306-007303     117579006003000532476MASSAGER (FOR HEAD)    0000001000+00002630+00000+0001T   00002630+0000001235          1400 BJ5200               1BZ
117579002117579112-116038     117579006003000534906TCS CARRIER BAG MIDI   0000001000+00000035+00000+0001T   00000035+0000001235          1400 BJ5090               1BZ
117580000117580               117580               170213CB     1400+00000+CB0000003946+0000003946+000000000+000000553+0000004490+0000000009+I20000000000+0000004490+Z
117580001117580077-000376-A   117580006003000669059GIFT-BAG 2-PACK JMB    0000001000+00003946+00000+0001T   00003946+0000001236          1400 BJ5112               1BZ
117581000117581               117581               170213CB     1400+00000+CB0000003507+0000003507+000000000+000000491+0000003990+0000000008+I20000000000+0000003990+Z
117581001117581002-000738     117581006001023770189GRATER 3-WAY PYRAMID   0000001000+00003507+00000+0001T   00003507+0000001246          1400 BJ5300               1BZ
117582000117582               117582               170213CB     1400+00000+CB0000009120+0000009120+000000000+000001278+0000010398+0000000000+I40000010398+0000000000+Z
117582001117582903-000499     117582006001704012492SWT CHOC MALLOWS 50g   0000001000+00001227+00000+0001T   00001227+0000001248          1400 BJ5150               1BZ
117582002117582082-000125     117582006003000646395READING GLASS TWIN 2   0000001000+00007893+00000+0001T   00007893+0000001248          1400 BJ5160               1BZ
117583000117583               117583               170213CB     1400+00000+CB0000001490+0000001490+000000000+000000209+0000001690+0000000009+I20000000000+0000001690+Z
117583001117583006-000805     117583000013994092418STREAMERS 10-ROLLS     0000001000+00001490+00000+0001T   00001490+0000001249          1400 BJ5131               1BZ
117584000117584               117584               170213CB     1400+00000+CB0000007454+0000007454+000000000+000001044+0000008490+0000000008+I20000000000+0000008490+Z
117584001117584368-000049     117584006003000536955PLUSH BEAR 15cm LOVE   0000001000+00004385+00000+0001T   00004385+0000001250          1400 BJ5745               1BZ
117584002117584032-000340     117584006003000295883MIRROR SUCTION PL MAGN 0000001000+00003069+00000+0001T   00003069+0000001250          1400 BJ5510               1BZ
117585000117585               117585               170213CB     1400+00000+CB0000000613+0000000613+000000000+000000086+0000000690+0000000009+I20000000000+0000000690+Z
117585001117585306-000021     117585006001023169433EARBUDS 100PCE IN BAG  0000001000+00000613+00000+0001T   00000613+0000001250          1400 BJ5200               1BZ
117586000117586               117586               170213CB     1400+00000+CB0000004767+0000004767+000000000+000000669+0000005430+0000000006+I20000000000+0000005430+Z
117586001117586108-001024     117586006009654960719TUMBLERS PL 4PC 350ml  0000002000+00001578+00000+0001T   00001578+0000001253          1400 BJ5210               1BZ
117586002117586077-000010-C   117586006001023123879CREPE-PAPER RED        0000002000+00000788+00000+0001T   00000788+0000001253          1400 BJ5112               1BZ
117586003117586112-116038     117586006003000534906TCS CARRIER BAG MIDI   0000001000+00000035+00000+0001T   00000035+0000001253          1400 BJ5090               1BZ
117587000117587               117587               170213CB     1400+00000+CB0000001836+0000001836+000000000+000000258+0000002090+0000000004+I20000000000+0000002090+Z
117587001117587007-000123     117587006003000533879BOOK COVER 450mmx1.5m  0000006000+00000306+00000+0001T   00000306+0000001301          1400 BJ5130               1BZ
117588000117588               117588               170213CB     1400+00000+CB0000003542+0000003542+000000000+000000496+0000004030+0000000008+I20000000000+0000004030+Z
117588001117588018-000136     117588006001023659026MUG OCC LOVE W/PLUSH   0000001000+00003507+00000+0001T   00003507+0000001303          1400 BJ5515               1BZ
117588002117588112-116038     117588006003000534906TCS CARRIER BAG MIDI   0000001000+00000035+00000+0001T   00000035+0000001303          1400 BJ5090               1BZ
117589000117589               117589               170213CB     1400+00000+CB0000003507+0000003507+000000000+000000491+0000003990+0000000008+I20000000000+0000003990+Z
117589001117589018-005009     117589006001023725608MUG W/PLUSH-BEAR LOVE  0000001000+00003507+00000+0001T   00003507+0000001307          1400 BJ5515               1BZ
117590000117590               117590               170213CB     1400+00000+CB0000019847+0000019847+000000000+000002783+0000022630+0000000000+I40000022630+0000000000+Z
117590001117590077-000376     117590006003000444427GIFT-BAG 25X32CM 2PK   0000001000+00003069+00000+0001T   00003069+0000001311          1400 BJ5112               1BZ
117590002117590566-001234     117590006003000217793STICKERS LASER ASSTD   0000001000+00001578+00000+0001T   00001578+0000001311          1400 BJ5130               1BZ
117590003117590071-008229     117590006003000216017PENCIL-BAG ASTD COL A5 0000001000+00001753+00000+0001T   00001753+0000001311          1400 BJ5130               1BZ
117590004117590565-000859     117590006001023691361SUNGLASSES GIANT       0000001000+00001753+00000+0001T   00001753+0000001311          1400 BJ5745               1BZ
117590005117590079-000510     117590006001023509079CRAYONS WAX 12-COLOUR  0000001000+00002455+00000+0001T   00002455+0000001311          1400 BJ5130               1BZ
117590006117590079-000345     117590006001023890146FELT-TIP PENS 8PCE     0000001000+00003069+00000+0001T   00003069+0000001311          1400 BJ5130               1BZ
117590007117590565-000002     117590006003000308071NOVELTY GROWING ANIMALS0000002000+00001753+00000+0001T   00001753+0000001311          1400 BJ5745               1BZ
117590008117590565-004101     117590006003000548033BALL BOUNCING EGG      0000001000+00001490+00000+0001T   00001490+0000001311          1400 BJ5745               1BZ
117590009117590112-116038     117590006009681820246TCS CARRIER BAG MIDI   0000001000+00000035+00000+0001T   00000035+0000001311          1400 BJ5090               1BZ
117590010117590903-000087     117590006001704000161SWT SPECKLED-EGGS 50G  0000001000+00001139+00000+0001T   00001139+0000001311          1400 BJ5150               1BZ
117591000117591               117591               170213CB     1400+00000+CB0000002102+0000002102+000000000+000000296+0000002390+0000000008+I20000000000+0000002390+Z
117591001117591039-000026     117591006001023551610C/TAPERED 25CM M/RED   0000002000+00001051+00000+0001T   00001051+0000001312          1400 BJ5510               1BZ
117592000117592               117592               170213CB     1400+00000+CB0000010520+0000010520+000000000+000001478+0000011998+0000000000+I40000011998+0000000000+Z
117592001117592903-000155     117592006009803374435SWT LOLLY I LUV U HEART0000001000+00000525+00000+0001T   00000525+0000001315          1400 BJ5150               1BZ
117592002117592903-000183     117592006003000451043SWT LB HEART LOLLY     0000003000+00000393+00000+0001T   00000393+0000001315          1400 BJ5150               1BZ
117592003117592566-000367     117592006003000645558STICKER WINDOW DECOR   0000001000+00002630+00000+0001T   00002630+0000001315          1400 BJ5130               1BZ
117592004117592001-000175     117592006001023788108B/MUG GLS LOVE 380ML   0000001000+00004385+00000+0001T   00004385+0000001315          1400 BJ5515               1BZ
117592005117592077-000290     117592006001023902023GIFT BOX 26x32x13cm    0000001000+00001753+00000+0001T   00001753+0000001315          1400 BJ5112               1BZ
117592006117592112-116069     117592006003000535064TCS CARRIER BAG JUMBO  0000001000+00000048+00000+0001T   00000048+0000001315          1400 BJ5090               1BZ
117593000117593               117593               170213CB     1400+00000+CB0000005963+0000005963+000000000+000000835+0000006790+0000000008+I20000000000+0000006790+Z
117593001117593001-000175     117593006001023788108B/MUG GLS LOVE 380ML   0000001000+00004385+00000+0001T   00004385+0000001317          1400 BJ5515               1BZ
117593002117593077-000303     117593006001023593757GIFT-BAG PAPER MED     0000001000+00001578+00000+0001T   00001578+0000001317          1400 BJ5112               1BZ
117594000117594               117594               170213CB     1400+00000+CB0000018010+0000018010+000000000+000002523+0000020533+0000000000+I40000020533+0000000000+Z
117594001117594563-000318-L   117594006003000407088SERVIETTES 33cm RED    0000001000+00002192+00000+0001T   00002192+0000001319          1400 BJ5214               1BZ
117594002117594031-005853     117594006003000442416P/FRAME WDN TWIN HEARTS0000002000+00003507+00000+0001T   00003507+0000001319          1400 BJ5510               1BZ
117594003117594039-001023     117594006003000466337CANDLE TEA-LITE METALIC0000001000+00001753+00000+0001T   00001753+0000001319          1400 BJ5510               1BZ
117594004117594112-116038     117594006009681820246TCS CARRIER BAG MIDI   0000001000+00000035+00000+0001T   00000035+0000001319          1400 BJ5090               1BZ
117594005117594038-000220     117594006003000368709RUNNER NON-WOVEN ASSTD 0000001000+00007016+00000+0001T   00007016+0000001319          1400 BJ5300               1BZ
117595000117595               117595               170213CB     1400+00000+CB0000001753+0000001753+000000000+000000246+0000001990+0000000009+I20000000000+0000001990+Z
117595001117595301-000100     117595006003000378531ORN SENTIMENT STONE 3AS0000001000+00001753+00000+0001T   00001753+0000001319          1400 BJ5505               1BZ
117596000117596               117596               170213CB     1400+00000+CB0000008769+0000008769+000000000+000001229+0000009998+0000000000+I40000009998+0000000000+Z
117596001117596039-000798     117596006001023617774CANDLES TEALITE BOX-50 0000001000+00006139+00000+0001T   00006139+0000001321          1400 BJ5510               1BZ
117596002117596220-009104     117596006001023706843ROSE DESS-SPOONS 4PCE  0000001000+00002630+00000+0001T   00002630+0000001321          1400 BJ5300               1BZ
117597000117597               117597               170213CB     1400+00000+CB0000024625+0000024625+000000000+000003450+0000028075+0000000000+I40000028075+0000000000+Z
117597001117597466-000076     117597006003000669363BALL SOCCER MESH 30.4cm0000004000+00006139+00000+0001T   00006139+0000001329          1400 BJ5785               1BZ
117597002117597112-116053     117597006006438002399TCS CARRIER BAG 38L    0000001000+00000069+00000+0001T   00000069+0000001329          1400 BJ5090               1BZ
117598000117598               117598               170213CB     1400+00000+CB0000000207+0000000207+000000000+000000030+0000000230+0000000007+I20000000000+0000000230+Z
117598001117598112-116053     117598006006438002399TCS CARRIER BAG 38L    0000003000+00000069+00000+0001T   00000069+0000001330          1400 BJ5090               1BZ
117599000117599               117599               170213CB     1400+00000+CB0000002630+0000002630+000000000+000000369+0000002990+0000000009+I20000000000+0000002990+Z
117599001117599077-000270     117599006003000395453GIFT-BAG PPR JMB 33X45 0000001000+00002630+00000+0001T   00002630+0000001334          1400 BJ5112               1BZ
117600000117600               117600               170213CB     1400+00000+CB0000005432+0000005432+000000000+000000762+0000006194+0000000000+I40000006194+0000000000+Z
117600001117600077-000321     117600006001023677501GIFT-BAG 11X14CM E/D FL0000002000+00000613+00000+0001T   00000613+0000001336          1400 BJ5112               1BZ
117600002117600077-000407     117600006003000145096G/BAG PP 19X26X8CM     0000001000+00001314+00000+0001T   00001314+0000001336          1400 BJ5112               1BZ
117600003117600077-000299-A   117600006003000670888GIFT-BAG PAPER JMB LOVE0000001000+00001753+00000+0001T   00001753+0000001336          1400 BJ5112               1BZ
117600004117600162-097715     117600006001492977157#TAG NEW COLOUR E/PIERC0000001000+00001139+00000+0001T   00001139+0000001336          1400 BJ5160               1BZ
117601000117601               117601               170213CB     1400+00000+CB0000001576+0000001576+000000000+000000221+0000001790+0000000007+I20000000000+0000001790+Z
117601001117601033-005920-A   117601006001023678249SEWING-THREAD 100m WHT 0000001000+00000700+00000+0001T   00000700+0000001337          1400 BJ5200               1BZ
117601002117601903-000810     117601006009680772249SWT FROOTEEZ SOUR 50g  0000001000+00000876+00000+0001T   00000876+0000001337          1400 BJ5150               1BZ
117602000117602               117602               170213CB     1400+00000+CB0000011663+0000011663+000000000+000001634+0000013297+0000000000+I40000013297+0000000000+Z
117602001117602004-010013     117602006001023667717HOLDER DISC 24 DIVISION0000001000+00004385+00000+0001T   00004385+0000001341          1400 BJ5310               1BZ
117602002117602003-009216     117602006003000662630ORN WELCOME STONE HEART0000001000+00006139+00000+0001T   00006139+0000001341          1400 BJ5505               1BZ
117602003117602903-000710     117602006002099007056SWT REFRESHERS MINT    0000001000+00001139+00000+0001T   00001139+0000001341          1400 BJ5150               1BZ
117603000117603               117603               170213CB     1400+00000+CB0000008771+0000008771+000000000+000001228+0000009990+0000000009+I20000000000+0000009990+Z
117603001117603019-000080     117603006001023775740VASE GLS FLORIST BALL  0000001000+00008771+00000+0001T   00008771+0000001343          1400 BJ5510               1BZ
117604000117604               117604               170213CB     1400+00000+CB0000000035+0000000035+000000000+000000005+0000000040+0000000000+I20000000000+0000000040+Z
117604001117604112-116038     117604006003000534906TCS CARRIER BAG MIDI   0000001000+00000035+00000+0001T   00000035+0000001343          1400 BJ5090               1BZ
117605000117605               117605               170213CB     1400+00000+CB0000004502+0000004502+000000000+000000632+0000005130+0000000004+I20000000000+0000005130+Z
117605001117605903-000843     117605008693029031067SWT GUMMY JELAXY 80G   0000003000+00000964+00000+0001T   00000964+0000001344          1400 BJ5150               1BZ
117605002117605903-000155     117605006009803374435SWT LOLLY I LUV U HEART0000003000+00000525+00000+0001T   00000525+0000001344          1400 BJ5150               1BZ
117605003117605112-116038     117605006003000534906TCS CARRIER BAG MIDI   0000001000+00000035+00000+0001T   00000035+0000001344          1400 BJ5090               1BZ
117606000117606               117606               170213CB     1400+00000+CB0000000613+0000000613+000000000+000000086+0000000690+0000000009+I20000000000+0000000690+Z
117606001117606047-000001-BB  117606006001023723536INS-TAPE BLACK 18mmx10m0000001000+00000613+00000+0001T   00000613+0000001344          1400 BJ5880               1BZ
117607000117607               117607               170213CB     1400+00000+CB0000004823+0000004823+000000000+000000676+0000005490+0000000009+I20000000000+0000005490+Z
117607001117607301-085001     117607006003000297610ORN WATERBALL LOVE ASST0000001000+00004823+00000+0001T   00004823+0000001403          1400 BJ5505               1BZ
117608000117608               117608               170213CB     1400+00000+CB0000001753+0000001753+000000000+000000246+0000001990+0000000009+I20000000000+0000001990+Z
117608001117608072-020216     117608006001023775900PET CHEWS BARBI-ROLLS  0000001000+00001753+00000+0001T   00001753+0000001403          1400 BJ5870               1BZ
117609000117609               117609               170213CB     1400+00000+CB0000000876+0000000876+000000000+000000123+0000000990+0000000009+I20000000000+0000000990+Z
117609001117609077-000302     117609008010410010195GIFT-BAG 18X23CM E/D   0000001000+00000876+00000+0001T   00000876+0000001408          1400 BJ5112               1BZ
117610000117610               117610               170213CB     1400+00000+CB0000004294+0000004294+000000000+000000603+0000004890+0000000007+I20000000000+0000004890+Z
117610001117610079-009702-D   117610008427973059354PAPER SIRIO A2 RED COL 0000002000+00001051+00000+0001T   00001051+0000001413          1400 BJ5130               1BZ
117610002117610566-000359     117610006003000582709STICKER BOOK LOVE SPARK0000001000+00002192+00000+0001T   00002192+0000001413          1400 BJ5130               1BZ
117611000117611               117611               170213CB     1400+00000+CB0000015830+0000015830+000000000+000002218+0000018048+0000000000+I40000018048+0000000000+Z
117611001117611072-020266     117611006003000400591PET PUPPY TRAINING PAD 0000001000+00003507+00000+0001T   00003507+0000001416          1400 BJ5870               1BZ
117611002117611072-020358     117611006001023748119DOG-BOWL BONE-SHAPED   0000001000+00002630+00000+0001T   00002630+0000001416          1400 BJ5870               1BZ
117611003117611112-116069     117611006009681820277TCS CARRIER BAG JUMBO  0000001000+00000048+00000+0001T   00000048+0000001416          1400 BJ5090               1BZ
117611004117611072-020259     117611006001023602664DOG-CHEW BONE 10cm 2PCE0000001000+00003507+00000+0001T   00003507+0000001416          1400 BJ5870               1BZ
117611005117611072-000014     117611006003000451845PET DOG/CAT BRUSH 20cm 0000001000+00003069+00000+0001T   00003069+0000001416          1400 BJ5870               1BZ
117611006117611072-020298     117611006003000561629DOG-TOY TUG-ROPE ASSTD 0000001000+00003069+00000+0001T   00003069+0000001416          1400 BJ5870               1BZ
117612000117612               117612               170213CB     1400+00000+CB0000009150+0000009150+000000000+000001283+0000010433+0000000000+I40000010433+0000000000+Z
117612001117612027-783002     117612006001023874658SCOURERS FOAM PACK OF 30000001000+00001490+00000+0001T   00001490+0000001420          1400 BJ5212               1BZ
117612002117612206-000100     117612006003000628063TONGS ICE COLD FINGERS 0000001000+00002192+00000+0001T   00002192+0000001420          1400 BJ5321               1BZ
117612003117612206-000245     117612006003000680818BOTTLE CLEANER PLASTIC 0000001000+00002192+00000+0001T   00002192+0000001420          1400 BJ5321               1BZ
117612004117612002-021020     117612006003000430246COCKTAIL STICKS 40PC   0000001000+00001490+00000+0001T   00001490+0000001420          1400 BJ5300               1BZ
117612005117612077-000312     117612006001023608697GIFT-BAG 10X35CM GLOSS 0000001000+00001314+00000+0001T   00001314+0000001420          1400 BJ5112               1BZ
117612006117612080-000133     117612006003000535613CARD&ENV MINI ASTD DSGN0000001000+00000437+00000+0001T   00000437+0000001420          1400 BJ5112               1BZ
117612007117612112-116038     117612006009681820246TCS CARRIER BAG MIDI   0000001000+00000035+00000+0001T   00000035+0000001420          1400 BJ5090               1BZ
117613000117613               117613               170213CB     1400+00000+CB0000003504+0000003504+000000000+000000492+0000003990+0000000006+I20000000000+0000003990+Z
117613001117613071-005213     117613006001023690371CELLOTAPE 12mmx33m     0000001000+00000876+00000+0001T   00000876+0000001420          1400 BJ5130               1BZ
117613002117613077-000151     117613006008766114676GIFT-WRAP C/PHANE ASSTD0000003000+00000876+00000+0001T   00000876+0000001420          1400 BJ5112               1BZ
117614000117614               117614               170213CB     1400+00000+CB0000001227+0000001227+000000000+000000172+0000001399+0000000000+I40000001399+0000000000+Z
117614001117614077-000245     117614006001023759214GIFT-RIBBON METALLICx2 0000001000+00001227+00000+0001T   00001227+0000001422          1400 BJ5112               1BZ
117615000117615               117615               170213CB     1400+00000+CB0000001753+0000001753+000000000+000000246+0000001999+0000000000+I40000001999+0000000000+Z
117615001117615036-000010     117615006003000675777LINT REMOVER STICKY    0000001000+00001753+00000+0001T   00001753+0000001423          1400 BJ5212               1BZ
117616000117616               117616               170213CB     1400+00000+CB0000015348+0000015348+000000000+000002150+0000017498+0000000000+I40000017498+0000000000+Z
117616001117616031-000864-A   117616006001023798350P/FRAME MAHOGANY 10X15 0000001000+00003069+00000+0001T   00003069+0000001429          1400 BJ5510               1BZ
117616002117616031-000903-D   117616006003000457472P/FRAME COLLAGE CREAMY 0000001000+00012279+00000+0001T   00012279+0000001429          1400 BJ5510               1BZ
117617000117617               117617               170213CB     1400+00000+CB0000006139+0000006139+000000000+000000860+0000006990+0000000009+I20000000000+0000006990+Z
117617001117617567-011517     117617009781472330178BK FOOD PAR 1 MIX-100  0000001000+00006139+00000+0001T   00006139+0000001433          1400 BJ5757               1BZ
117618000117618               117618               170213CB     1400+00000+CB0000017008+0000017008+000000000+000002384+0000019392+0000000000+I40000019392+0000000000+Z
117618001117618903-000843     117618008693029031067SWT GUMMY JELAXY 80G   0000002000+00000964+00000+0001T   00000964+0000001442          1400 BJ5150               1BZ
117618002117618903-000155     117618006009803374435SWT LOLLY I LUV U HEART0000002000+00000525+00000+0001T   00000525+0000001442          1400 BJ5150               1BZ
117618003117618030-000031-A   117618006003000457588PLAQUE W/WORDS ASSTD   0000002000+00004385+00000+0001T   00004823+0006471442          1400 BJ5505               1BZ
117618004117618077-000270     117618006003000395453GIFT-BAG PPR JMB 33X45 0000002000+00002630+00000+0001T   00002630+0000001442          1400 BJ5112               1BZ
117619000117619               117619               170213CB     1400+00000+CB0000015816+0000015816+000000000+000002215+0000018031+0000000000+I40000018031+0000000000+Z
117619001117619031-000856     117619006001023852113P/FRAME PL BROWN 10X15 0000004000+00003507+00000+0001T   00003507+0000001446          1400 BJ5510               1BZ
117619002117619031-005820     117619006001023667816P/FRAME-CLIP 15X20CM   0000001000+00001753+00000+0001T   00001753+0000001446          1400 BJ5510               1BZ
117619003117619112-116038     117619006009681820246TCS CARRIER BAG MIDI   0000001000+00000035+00000+0001T   00000035+0000001446          1400 BJ5090               1BZ
117620000117620               117620               170213CB     1400+00000+CB0000000613+0000000613+000000000+000000086+0000000690+0000000009+I20000000000+0000000690+Z
117620001117620083-000055     117620006003000003853LIGHTER ELCTRNC REFILBL0000001000+00000613+00000+0001T   00000613+0000001452          1400 BJ5315               1BZ
117621000117621               117621               170213CB     1400+00000+CB0000001227+0000001227+000000000+000000172+0000001390+0000000009+I20000000000+0000001390+Z
117621001117621206-000630     117621006003000631919SPECTACLE CLEANING BRUS0000001000+00001227+00000+0001T   00001227+0000001453          1400 BJ5321               1BZ
117622000117622               117622               170213CB     1400+00000+CB0000014075+0000014075+000000000+000001972+0000016040+0000000007+I20000000000+0000016040+Z
117622001117622104-000025     117622006001023780287BASKET PL 28x17x11cm   0000002000+00003507+00000+0001T   00003507+0000001457          1400 BJ5210               1BZ
117622002117622104-000095     117622006003000614714BASKET PL 23x15x12cm   0000001000+00003507+00000+0001T   00003507+0000001457          1400 BJ5210               1BZ
117622003117622036-000063     117622006009654960436COATHANGERS VIRGIN 5PCE0000002000+00001753+00000+0001T   00001753+0000001457          1400 BJ5212               1BZ
117622004117622112-116069     117622006009681820277TCS CARRIER BAG JUMBO  0000001000+00000048+00000+0001T   00000048+0000001457          1400 BJ5090               1BZ
117623000117623               117623               170213CB     1400+00000+CB0000007014+0000007014+000000000+000000982+0000007990+0000000006+I20000000000+0000007990+Z
117623001117623018-005009     117623006001023725608MUG W/PLUSH-BEAR LOVE  0000002000+00003507+00000+0001T   00003507+0000001500          1400 BJ5515               1BZ
117624000117624               117624               170213CB     1400+00000+CB0000010171+0000010171+000000000+000001425+0000011590+0000000006+I20000000000+0000011590+Z
117624001117624018-000136     117624006001023659026MUG OCC LOVE W/PLUSH   0000001000+00003507+00000+0001T   00003507+0000001500          1400 BJ5515               1BZ
117624002117624368-000101     117624006003000449859PLUSH CAT 17cm KITTY   0000001000+00005262+00000+0001T   00005262+0000001500          1400 BJ5745               1BZ
117624003117624304-001204     117624006001023737984FLOWER OCC. TEDDY/ROSES0000001000+00001402+00000+0001T   00001490+0006471500          1400 BJ5510               1BZ
117625000117625               117625               170213CB     1400+00000+CB0000000393+0000000393+000000000+000000056+0000000440+0000000009+I20000000000+0000000440+Z
117625001117625903-000183     117625006003000451043SWT LB HEART LOLLY     0000001000+00000393+00000+0001T   00000393+0000001604          1400 BJ5150               1BZ
117626000117626               117626               170213CB     1400+00000+CB0000020220+0000020220+000000000+000002832+0000023050+0000000002+I20000000000+0000023050+Z
117626001117626019-000120     117626006001023868152PLANTER GALV 3PC W/TRAY0000002000+00008771+00000+0001T   00008771+0000001606          1400 BJ5510               1BZ
117626002117626112-116069     117626006009681820277TCS CARRIER BAG JUMBO  0000001000+00000048+00000+0001T   00000048+0000001606          1400 BJ5090               1BZ
117626003117626083-000058     117626006003000400331LIGHTER JET CIGAR REFIL0000001000+00002630+00000+0001T   00002630+0000001606          1400 BJ5315               1BZ
117627000117627               117627               170213CB     1400+00000+CB0000001578+0000001578+000000000+000000221+0000001790+0000000009+I20000000000+0000001790+Z
117627001117627077-000303     117627006001023593757GIFT-BAG PAPER MED     0000001000+00001578+00000+0001T   00001578+0000001618          1400 BJ5112               1BZ
117628000117628               117628               170213CB     1400+00000+CB0000008806+0000008806+000000000+000001233+0000010039+0000000000+I40000010039+0000000000+Z
117628001117628368-000614     117628006001023705808PLUSH LOVE 30cm        0000001000+00008771+00000+0001T   00008771+0000001620          1400 BJ5745               1BZ
117628002117628112-116038     117628006009681820246TCS CARRIER BAG MIDI   0000001000+00000035+00000+0001T   00000035+0000001620          1400 BJ5090               1BZ
117629000117629               117629               170213CB     1400+00000+CB0000005294+0000005294+000000000+000000743+0000006037+0000000000+I40000006037+0000000000+Z
117629001117629006-000800     117629006001023902801HAT CABARET 14x18cm    0000001000+00001753+00000+0001T   00001753+0000001627          1400 BJ5131               1BZ
117629002117629565-000859     117629006001023691361SUNGLASSES GIANT       0000002000+00001753+00000+0001T   00001753+0000001627          1400 BJ5745               1BZ
117629003117629112-116038     117629006003000534906TCS CARRIER BAG MIDI   0000001000+00000035+00000+0001T   00000035+0000001627          1400 BJ5090               1BZ
117630000117630               117630               170213CB     1400+00000+CB0000001314+0000001314+000000000+000000184+0000001490+0000000008+I20000000000+0000001490+Z
117630001117630080-000114     117630006003000246472CARD&ENV LOVE-MUSICAL  0000001000+00001314+00000+0001T   00001753+0008151628          1400 BJ5112               1BZ
117631000117631               117631               170213CB     1400+00000+CB0000003945+0000003945+000000000+000000553+0000004498+0000000000+I40000004498+0000000000+Z
117631001117631007-000095     117631006003000530434ENVELOPES WHITE 20PK C60000001000+00002192+00000+0001T   00002192+0000001631          1400 BJ5130               1BZ
117631002117631006-000240     117631006003000460595PARTY INVITES 12PC     0000001000+00001753+00000+0001T   00001753+0000001631          1400 BJ5131               1BZ
117632000117632               117632               170213CB     1400+00000+CB0000001490+0000001490+000000000+000000209+0000001690+0000000009+I20000000000+0000001690+Z
117632001117632077-000299     117632006003000395576G/BAG 32x25cm LRG LOVE 0000001000+00001490+00000+0001T   00001490+0000001631          1400 BJ5112               1BZ
117633000117633               117633               170213CB     1400+00000+CB0000002015+0000002015+000000000+000000283+0000002298+0000000000+I40000002298+0000000000+Z
117633001117633077-000299     117633006003000395576G/BAG 32x25cm LRG LOVE 0000001000+00001490+00000+0001T   00001490+0000001633          1400 BJ5112               1BZ
117633002117633903-000155     117633006009803374435SWT LOLLY I LUV U HEART0000001000+00000525+00000+0001T   00000525+0000001633          1400 BJ5150               1BZ
117634000117634               117634               170213CB     1400+00000+CB0000012308+0000012308+000000000+000001726+0000014034+0000000000+I40000014034+0000000000+Z
117634001117634206-000450     117634006003000619863DRINKING JAR GLOBE     0000001000+00002630+00000+0001T   00002630+0000001648          1400 BJ5321               1BZ
117634002117634206-000120     117634006003000628308PEELER CARROT SHARPENER0000002000+00001753+00000+0001T   00001753+0000001648          1400 BJ5321               1BZ
117634003117634567-011343     117634006003000630592BK COLOURING THERAPY   0000001000+00003507+00000+0001T   00003507+0000001648          1400 BJ5757               1BZ
117634004117634006-000104     117634006001023990112BALLOONS 40PC AIR PUMP 0000001000+00002630+00000+0001T   00002630+0000001648          1400 BJ5131               1BZ
117634005117634112-116038     117634006009681820246TCS CARRIER BAG MIDI   0000001000+00000035+00000+0001T   00000035+0000001648          1400 BJ5090               1BZ
117635000117635               117635               170213CB     1400+00000+CB0000002192+0000002192+000000000+000000307+0000002490+0000000009+I20000000000+0000002490+Z
117635001117635089-000501     117635006003000622900KEY CHAIN LIGHT LASER  0000001000+00002192+00000+0001T   00002192+0000001648          1400 BJ5205               1BZ
117636000117636               117636               170213CB     1400+00000+CB0000002630+0000002630+000000000+000000369+0000002990+0000000009+I20000000000+0000002990+Z
117636001117636077-000270     117636006003000395453GIFT-BAG PPR JMB 33X45 0000001000+00002630+00000+0001T   00002630+0000001649          1400 BJ5112               1BZ
117637000117637               117637               170213CB     1400+00000+CB0000028542+0000028542+000000000+000004000+0000032542+0000000000+I40000032542+0000000000+Z
117637001117637079-000010     117637006001023173409P/CRAYONS 12-COL SHORT 0000001000+00001227+00000+0001T   00001227+0000001653          1400 BJ5130               1BZ
117637002117637039-000322     117637006001023524157B/CANDLES W/HOLDERS 24 0000001000+00001139+00000+0001T   00001139+0000001653          1400 BJ5510               1BZ
117637003117637366-002811     117637006003000615650DRESS UP ACCESS RIBBON 0000001000+00005262+00000+0001T   00005262+0000001653          1400 BJ5131               1BZ
117637004117637566-000067     117637006003000349180STICKERS GLITTER       0000001000+00001753+00000+0001T   00002192+0008151653          1400 BJ5130               1BZ
117637005117637566-100009     117637006003000102914WED STIK EMBOSSED FOIL 0000001000+00002630+00000+0001T   00002630+0000001653          1400 BJ5130               1BZ
117637006117637566-000352     117637006001023809261STICKERS LASER ASSTD   0000001000+00002192+00000+0001T   00002192+0000001653          1400 BJ5130               1BZ
117637007117637007-000542     117637006001023847874NOTE-BOOK H/C SKETCHPAD0000001000+00003507+00000+0001T   00003507+0000001653          1400 BJ5130               1BZ
117637008117637361-090311     117637006003000542895PONY 8cmx9cm PERFECT   0000001000+00002630+00000+0001T   00002630+0000001653          1400 BJ5725               1BZ
117637009117637007-000211     117637006003000005796STATIONERY N/PAD 3PCK  0000001000+00001578+00000+0001T   00001578+0000001653          1400 BJ5130               1BZ
117637010117637566-000321     117637006003000423019STICKER R/DEC BALLERINA0000001000+00005262+00000+0001T   00005262+0000001653          1400 BJ5130               1BZ
117637011117637112-116069     117637006009681820277TCS CARRIER BAG JUMBO  0000001000+00000048+00000+0001T   00000048+0000001653          1400 BJ5090               1BZ
117637012117637007-000136     117637008427973108298BOOK COVER ROLL ASSTD  0000001000+00001314+00000+0001T   00001314+0000001653          1400 BJ5130               1BZ
117638000117638               117638               170213CB     1400+00000+CB0000002192+0000002192+000000000+000000307+0000002499+0000000000+I40000002499+0000000000+Z
117638001117638566-000359     117638006003000582709STICKER BOOK LOVE SPARK0000001000+00002192+00000+0001T   00002192+0000001655          1400 BJ5130               1BZ
117639000117639               117639               170213CB     1400+00000+CB0000001753+0000001753+000000000+000000246+0000001999+0000000000+I40000001999+0000000000+Z
117639001117639077-000240     117639006003000326259G/RIBBON 4PC PEARLIZED 0000001000+00001753+00000+0001T   00001753+0000001657          1400 BJ5112               1BZ
117640000117640               117640               170213CB     1400+00000+CB0000004733+0000004733+000000000+000000664+0000005390+0000000007+I20000000000+0000005390+Z
117640001117640077-000322     117640006001023677532GIFT-BAG 18X23CM E/D FL0000001000+00001227+00000+0001T   00001227+0000001703          1400 BJ5112               1BZ
117640002117640077-000354     117640006003000139224GIFT-BAG 25X32CM H/MADE0000001000+00001753+00000+0001T   00001753+0000001703          1400 BJ5112               1BZ
117640003117640080-000102     117640006003000236855CARD&ENVLP FEMALE AFR  0000001000+00001753+00000+0001T   00001753+0000001703          1400 BJ5112               1BZ
117641000117641               117641               170213CB     1400+00000+CB0000001578+0000001578+000000000+000000221+0000001790+0000000009+I20000000000+0000001790+Z
117641001117641077-000303     117641006001023593757GIFT-BAG PAPER MED     0000001000+00001578+00000+0001T   00001578+0000001705          1400 BJ5112               1BZ
117642000117642               117642               170213CB     1400+00000+CB0000000613+0000000613+000000000+000000086+0000000690+0000000009+I20000000000+0000000690+Z
117642001117642077-000321     117642006001023677501GIFT-BAG 11X14CM E/D FL0000001000+00000613+00000+0001T   00000613+0000001706          1400 BJ5112               1BZ
117643000117643               117643               170213CB     1400+00000+CB0000001490+0000001490+000000000+000000209+0000001690+0000000009+I20000000000+0000001690+Z
117643001117643039-000108     117643006001023524034TEA-LITE CANDLES 8PCE  0000001000+00001490+00000+0001T   00001490+0000001706          1400 BJ5510               1BZ
117644000117644               117644               170213CB     1400+00000+CB0000000788+0000000788+000000000+000000111+0000000890+0000000009+I20000000000+0000000890+Z
117644001117644077-000010-C   117644006001023123879CREPE-PAPER RED        0000001000+00000788+00000+0001T   00000788+0000001708          1400 BJ5112               1BZ
117645000117645               117645               170213CB     1400+00000+CB0000008805+0000008805+000000000+000001233+0000010030+0000000008+I20000000000+0000010030+Z
117645001117645031-000868-D   117645006003000580330P/FRAME PL BLCK CERT.  0000002000+00004385+00000+0001T   00004385+0000001708          1400 BJ5510               1BZ
117645002117645112-116038     117645006009681820246TCS CARRIER BAG MIDI   0000001000+00000035+00000+0001T   00000035+0000001708          1400 BJ5090               1BZ
117646000117646               117646               170213CB     1400+00000+CB0000003594+0000003594+000000000+000000504+0000004098+0000000000+I40000004098+0000000000+Z
117646001117646039-000336     117646006001023169129B'DAY-CANDLES MAGIC 10P0000001000+00000964+00000+0001T   00000964+0000001717          1400 BJ5510               1BZ
117646002117646039-000320     117646006001023816153BIRTHDAY-CANDLES 13PCE 0000001000+00002630+00000+0001T   00002630+0000001717          1400 BJ5510               1BZ
117647000117647               117647               170213CB     1400+00000+CB0000002630+0000002630+000000000+000000369+0000002990+0000000009+I20000000000+0000002990+Z
117647001117647079-000201     117647006003000161430P/CRAYONS THERAPY 10PCE0000001000+00002630+00000+0001T   00002630+0000001718          1400 BJ5130               1BZ
117648000117648               117648               170213CB     1400+00000+CB0000012707+0000012707+000000000+000001783+0000014490+0000000000+I40000014490+0000000000+Z
117648001117648004-071216     117648006003000239900MOBILE PHONE CHARM ASST0000001000+00000876+00000+0001T   00000876+0000001729          1400 BJ5310               1BZ
117648002117648368-000100     117648006001023474742PLUSH MD BEAR 12cm     0000001000+00002630+00000+0001T   00002630+0000001729          1400 BJ5745               1BZ
117648003117648004-071216     117648006003000239900MOBILE PHONE CHARM ASST0000001000+00000876+00000+0001T   00000876+0000001729          1400 BJ5310               1BZ
117648004117648368-000100     117648006001023474742PLUSH MD BEAR 12cm     0000002000+00002630+00000+0001T   00002630+0000001729          1400 BJ5745               1BZ
117648005117648077-000317     117648006001023609748GIFT-BAG 11X14CM E/D AN0000002000+00000613+00000+0001T   00000613+0000001729          1400 BJ5112               1BZ
117648006117648077-000321     117648006001023677501GIFT-BAG 11X14CM E/D FL0000003000+00000613+00000+0001T   00000613+0000001729          1400 BJ5112               1BZ
117649000117649               117649               170213CB     1400+00000+CB0000002366+0000002366+000000000+000000332+0000002690+0000000008+I20000000000+0000002690+Z
117649001117649006-000120     117649006001023346889BALLOONS 10PC MIX COL  0000001000+00001753+00000+0001T   00001753+0000001731          1400 BJ5131               1AZ
117649002117649006-001000     117649006003000093779HELIUM BALLOON FILL    0000001000+00000613+00000+0001T   00000613+0000001731          1400 BJ5131               1AZ
117650000117650               117650               170213CB     1400+00000+CB0000001578+0000001578+000000000+000000221+0000001790+0000000009+I20000000000+0000001790+Z
117650001117650077-000303     117650006001023593757GIFT-BAG PAPER MED     0000001000+00001578+00000+0001T   00001578+0000001733          1400 BJ5112               1BZ
117651000117651               117651               170213CB     1400+00000+CB0000006139+0000006139+000000000+000000860+0000006999+0000000000+I40000006999+0000000000+Z
117651001117651018-050000     117651006003000412679MUG OCC LOVE TWIN BEAR 0000001000+00006139+00000+0001T   00006139+0000001738          1400 BJ5515               1BZ
117652000117652               117652               170213CB     1400+00000+CB0000003944+0000003944+000000000+000000553+0000004490+0000000007+I20000000000+0000004490+Z
117652001117652077-000302     117652008010410010195GIFT-BAG 18X23CM E/D   0000001000+00000876+00000+0001T   00000876+0000001739          1400 BJ5112               1BZ
117652002117652903-000123     117652006925925909280SWEET GS MINI MALLOWS  0000001000+00000876+00000+0001T   00000876+0000001739          1400 BJ5150               1BZ
117652003117652566-000359     117652006003000582709STICKER BOOK LOVE SPARK0000001000+00002192+00000+0001T   00002192+0000001739          1400 BJ5130               1BZ
117653000117653               117653               170213CB     1400+00000+CB0000011437+0000011437+000000000+000001602+0000013039+0000000000+I40000013039+0000000000+Z
117653001117653368-000637     117653006001023874092PLUSH BEAR SLEEPING LOV0000001000+00011402+00000+0001T   00012279+0006471742          1400 BJ5745               1BZ
117653002117653112-116038     117653006009681820246TCS CARRIER BAG MIDI   0000001000+00000035+00000+0001T   00000035+0000001742          1400 BJ5090               1BZ
117654000117654               117654               170213CB     1400+00000+CB0000004385+0000004385+000000000+000000614+0000004990+0000000009+I20000000000+0000004990+Z
117654001117654567-011398     117654006002242060204BK COLOURING AVENGERS  0000001000+00004385+00000+0001T   00006139+0008141800          1400 BJ5757               1BZ
117655000117655               117655               170213CB     1400+00000+CB0000010522+0000010522+000000000+000001474+0000011996+0000000000+I40000011996+0000000000+Z
117655001117655031-080508     117655006001023802415P/FRAME PL 22X11CM LOVE0000001000+00004385+00000+0001T   00004385+0000001802          1400 BJ5510               1BZ
117655002117655018-000136     117655006001023659026MUG OCC LOVE W/PLUSH   0000001000+00003507+00000+0001T   00003507+0000001802          1400 BJ5515               1BZ
117655003117655077-000270     117655006003000395453GIFT-BAG PPR JMB 33X45 0000001000+00002630+00000+0001T   00002630+0000001802          1400 BJ5112               1BZ
117656000117656               117656               170213CB     1400+00000+CB0000000048+0000000048+000000000+000000007+0000000050+0000000005+I20000000000+0000000050+Z
117656001117656112-116069     117656006003000535064TCS CARRIER BAG JUMBO  0000001000+00000048+00000+0001T   00000048+0000001802          1400 BJ5090               1BZ
C11765100                                          170213CB368-000113     17372585SLAVE 1     BJ52IC0000000000+0000000000+0020000001000+
M17021391                              CASH        CBSLAVE 1                       Z-REPORT No.   660TOTAL (Sales - Refunds)           8035.75       CASH TO BE BANKED                 3362.80       DEBIT CARDS                          0.00       CREDIT CARDS                      4672.95       Z-READING                         8035.75       AIRTIME DEBIT CARD SALES             0.00       AIRTIME CARD SALES                   0.00       OVERS/UNDERS                         0.00       AIRTIME CASH SALES                   0.00       GIFT CARDS                           0.00       GIFT CARD CASH SALES                 0.00       T O T A L  CASH PAYOUTS              0.00                                                                                                                                                                                                                                                                                                                                                      Z
M17021392                              CASH        CBABSENT                                                                                                                                                                                          ANNUAL LEAVE                                                                                                                                                                                    DAY OFF                                                                                                                                                                                         COMMENTS                                                                                                                                                                                                                                                                                                                                                                                       Z
Y17021300                                          CB00000000705303+000118
ZCB17021319243 SLAVE 1      SALES DATA                     NEXT INVOICE NO.  117657 0660
F093732496-058484         1701280956580000121ICSLAVE 1
F094019496-028272         1701280957050000011ICSLAVE 1
F094060496-028120         1701280957280000021ICSLAVE 1
F094669031-000873-B       1702030909510000042ICSLAVE 1
F094754031-000873-C       1702080913500000062ICSLAVE 1
X CB Slave 1 First invoice 117539 170213 Last invoice 117656 170213 Next invoice 117657 Total number of records 000000393 clbackup completed 19:24:45
