125480000125480               125480               170213CB     1400+00000+CB0000001314+0000001314+000000000+000000184+0000001490+0000000008+I20000000000+0000001490+Z
125480001125480080-000114     125480006003000246472CARD&ENV LOVE-MUSICAL  0000001000+00001314+00000+0001T   00001753+0008150930          1400 JJ4112               2AZ
125481000125481               125481               170213CB     1400+00000+CB0000008819+0000008819+000000000+000001235+0000010054+0000000000+I10000010004+0000000050+Z
125481001125481019-000010     125481006003000673452VASE GLS W/STAND 28CM  0000001000+00008771+00000+0001T   00008771+0000001012          1400 JJ4510               2AZ
125481002125481112-116069     125481006009681820277TCS CARRIER BAG JUMBO  0000001000+00000048+00000+0001T   00000048+0000001012          1400 JJ4090               2AZ
125482000125482               125482               170213CB     1400+00000+CB0000005260+0000005260+000000000+000000738+0000005990+0000000008+I20000000000+0000005990+Z
125482001125482019-071600     125482006001023771971RIVER-STONES 1kg MIXED 0000001000+00002630+00000+0001T   00002630+0000001015          1400 JJ4510               2AZ
125482002125482562-000010     125482006001023762528KID'S PLAY DOUGH       0000001000+00002630+00000+0001T   00002630+0000001015          1400 JJ4755               2AZ
125483000125483               125483               170213CB     1400+00000+CB0000007015+0000007015+000000000+000000983+0000007990+0000000008+I20000000000+0000007990+Z
125483001125483006-000190     125483006003000685530BALLOONS LOVE 81x91cm  0000001000+00004385+00000+0001T   00004385+0000001055          1400 JJ4131               2AZ
125483002125483077-000115-B   125483006003000181025GIFT-WRAP PPR 700MMX2M 0000001000+00002630+00000+0001T   00002630+0000001055          1400 JJ4112               2AZ
125484000125484               125484               170213CB     1400+00000+CB0000008766+0000008766+000000000+000001229+0000009995+0000000000+I40000009995+0000000000+Z
125484001125484562-000011     125484006003000600984PLAY DOUGH NEON TUBE   0000001000+00003507+00000+0001T   00003507+0000001101          1400 JJ4755               2AZ
125484002125484466-000200     125484006001023621665HULA-HOOP     ASSTD    0000003000+00001753+00000+0001T   00001753+0000001101          1400 JJ4785               2AZ
125485000125485               125485               170213CB     1400+00000+CB0000008769+0000008769+000000000+000001229+0000009998+0000000000+I40000009998+0000000000+Z
125485001125485306-000993     125485006003000560110FIRSTAID PLASTER 75PC  0000001000+00002630+00000+0001T   00002630+0000001113          1400 JJ4200               2AZ
125485002125485486-001004     125485006001023800039ALARM 3-FUNCTN  7x4.5cm0000001000+00006139+00000+0001T   00006139+0000001113          1400 JJ4510               2AZ
125486000125486               125486               170213CB     1400+00000+CB0000001402+0000001402+000000000+000000197+0000001590+0000000009+I20000000000+0000001590+Z
125486001125486046-000011     125486004897006172994BATTERIES SIZE:AA  2PCE0000001000+00001402+00000+0001T   00001402+0000001117          1400 JJ4312               2AZ
125487000125487               125487               170213CB     1400+00000+CB0000002628+0000002628+000000000+000000369+0000002990+0000000007+I20000000000+0000002990+Z
125487001125487566-001234     125487006003000217793STICKERS LASER ASSTD   0000001000+00001578+00000+0001T   00001578+0000001126          1400 JJ4130               2AZ
125487002125487903-000155     125487006009803374435SWT LOLLY I LUV U HEART0000002000+00000525+00000+0001T   00000525+0000001126          1400 JJ4150               2AZ
125488000125488               125488               170213CB     1400+00000+CB0000005557+0000005557+000000000+000000780+0000006337+0000000000+I40000006337+0000000000+Z
125488001125488027-000409     125488006001023731012SCRUBBING-BRUSH 15,5cm 0000001000+00001753+00000+0001T   00001753+0000001236          1400 JJ4212               2AZ
125488002125488112-116038     125488006009681820246TCS CARRIER BAG MIDI   0000001000+00000035+00000+0001T   00000035+0000001236          1400 JJ4090               2AZ
125488003125488903-000087     125488006001704000161SWT SPECKLED-EGGS 50G  0000001000+00001139+00000+0001T   00001139+0000001236          1400 JJ4150               2AZ
125488004125488306-007303     125488006003000532476MASSAGER (FOR HEAD)    0000001000+00002630+00000+0001T   00002630+0000001236          1400 JJ4200               2AZ
125489000125489               125489               170213CB     1400+00000+CB0000002192+0000002192+000000000+000000307+0000002499+0000000000+I40000002499+0000000000+Z
125489001125489566-000359     125489006003000582709STICKER BOOK LOVE SPARK0000001000+00002192+00000+0001T   00002192+0000001319          1400 JJ4130               2AZ
125490000125490               125490               170213CB     1400+00000+CB0000006139+0000006139+000000000+000000860+0000006999+0000000000+I40000006999+0000000000+Z
125490001125490560-000243     125490006001023622655ANIMALS OCEAN PLAY SET 0000001000+00006139+00000+0001T   00006139+0000001329          1400 JJ4745               2AZ
125491000125491               125491               170213CB     1400+00000+CB0000002978+0000002978+000000000+000000419+0000003397+0000000000+I40000003397+0000000000+Z
125491001125491306-000023     125491006001023606976COTTON-WOOL-BALLS 50PCE0000001000+00000876+00000+0001T   00000876+0000001330          1400 JJ4200               2AZ
125491002125491079-009702-D   125491008427973059354PAPER SIRIO A2 RED COL 0000002000+00001051+00000+0001T   00001051+0000001330          1400 JJ4130               2AZ
125492000125492               125492               170213CB     1400+00000+CB0000001753+0000001753+000000000+000000246+0000001990+0000000009+I20000000000+0000001990+Z
125492001125492080-000116     125492006003000253555CARD&ENVELOPE-HANDMADE 0000001000+00001753+00000+0001T   00001753+0000001409          1400 JJ4112               2AZ
125493000125493               125493               170213CB     1400+00000+CB0000000035+0000000035+000000000+000000005+0000000040+0000000000+I20000000000+0000000040+Z
125493001125493112-116038     125493006009681820246TCS CARRIER BAG MIDI   0000001000+00000035+00000+0001T   00000035+0000001410          1400 JJ4090               2AZ
125494000125494               125494               170213CB     1400+00000+CB0000004857+0000004857+000000000+000000681+0000005530+0000000008+I20000000000+0000005530+Z
125494001125494024-000300     125494006001023224514FLOUR/SALT-SHAKER      0000001000+00002192+00000+0001T   00002192+0000001418          1400 JJ4300               2AZ
125494002125494019-071600     125494006001023771971RIVER-STONES 1kg MIXED 0000001000+00002630+00000+0001T   00002630+0000001418          1400 JJ4510               2AZ
125494003125494112-116038     125494006009681820246TCS CARRIER BAG MIDI   0000001000+00000035+00000+0001T   00000035+0000001418          1400 JJ4090               2AZ
125495000125495               125495               170213CB     1400+00000+CB0000012313+0000012313+000000000+000001724+0000014037+0000000000+I40000014037+0000000000+Z
125495001125495084-000364     125495006001023624581MANICURE-SET 7PCE LTHR 0000001000+00003507+00000+0001T   00003507+0000001429          1400 JJ4200               2AZ
125495002125495001-091415     125495006003000329113W/GLS OCC. LOVE 2PC 2800000001000+00008771+00000+0001T   00009648+0006471429          1400 JJ4515               2AZ
125495003125495112-116038     125495006009681820246TCS CARRIER BAG MIDI   0000001000+00000035+00000+0001T   00000035+0000001429          1400 JJ4090               2AZ
125496000125496               125496               170213CB     1400+00000+CB0000003155+0000003155+000000000+000000443+0000003590+0000000008+I20000000000+0000003590+Z
125496001125496903-000095     125496006001704011495SWT SPECKLED-EGGS 100G 0000001000+00002104+00000+0001T   00002104+0000001434          1400 JJ4150               2AZ
125496002125496903-002853     125496000000087108019MENTOS ROLL MINT       0000001000+00001051+00000+0001T   00001051+0000001434          1400 JJ4150               2AZ
125497000125497               125497               170213CB     1400+00000+CB0000015788+0000015788+000000000+000002211+0000017999+0000000000+I40000017999+0000000000+Z
125497001125497007-010502     125497006003000455270WIPE & CHALK 60X45CM   0000001000+00015788+00000+0001T   00015788+0000001436          1400 JJ4130               2AZ
125498000125498               125498               170213CB     1400+00000+CB0000002630+0000002630+000000000+000000369+0000002990+0000000009+I20000000000+0000002990+Z
125498001125498159-000117     125498006003000450398SHOWER CAP PVC ASSTD   0000001000+00002630+00000+0001T   00002630+0000001441          1400 JJ4200               2AZ
125499000125499               125499               170213CB     1400+00000+CB0000005031+0000005031+000000000+000000706+0000005737+0000000000+I40000005737+0000000000+Z
125499001125499007-000724     125499006003000225958NOTE MAGNETIC 60SHTS   0000001000+00001753+00000+0001T   00001753+0000001445          1400 JJ4130               2AZ
125499002125499466-001801     125499006001023343482BALLS TABLE-TENNIS BOX60000001000+00001490+00000+0001T   00001490+0000001445          1400 JJ4785               2AZ
125499003125499065-006041     125499006001023712974TAMBOURINE 15cm P/BAND 0000001000+00001753+00000+0001T   00001753+0000001445          1400 JJ4745               2AZ
125499004125499112-116038     125499006009681820246TCS CARRIER BAG MIDI   0000001000+00000035+00000+0001T   00000035+0000001445          1400 JJ4090               2AZ
125500000125500               125500               170213CB     1400+00000+CB0000001753+0000001753+000000000+000000246+0000001999+0000000000+I40000001999+0000000000+Z
125500001125500077-000011-Y   125500006001023809858TISSUE-WRAP GOLD 10PCE 0000001000+00001753+00000+0001T   00001753+0000001448          1400 JJ4112               2AZ
125501000125501               125501               170213CB     1400+00000+CB0000000048+0000000048+000000000+000000007+0000000050+0000000005+I20000000000+0000000050+Z
125501001125501112-116069     125501006003000535064TCS CARRIER BAG JUMBO  0000001000+00000048+00000+0001T   00000048+0000001449          1400 JJ4090               2AZ
125502000125502               125502               170213CB     1400+00000+CB0000030695+0000030695+000000000+000004300+0000034995+0000000000+I40000034995+0000000000+Z
125502001125502174-000014     125502006003000653324LAUNDRY BAG W/DRAWSTRIN0000005000+00006139+00000+0001T   00006139+0000001457          1400 JJ4205               2AZ
125503000125503               125503               170213CB     1400+00000+CB0000006174+0000006174+000000000+000000865+0000007030+0000000009+I20000000000+0000007030+Z
125503001125503018-005007     125503006003000515516MUG OCC. LOVE W/HEARTS 0000001000+00006139+00000+0001T   00006139+0000001458          1400 JJ4515               2AZ
125503002125503112-116038     125503006009681820246TCS CARRIER BAG MIDI   0000001000+00000035+00000+0001T   00000035+0000001458          1400 JJ4090               2AZ
125504000125504               125504               170213CB     1400+00000+CB0000003944+0000003944+000000000+000000553+0000004490+0000000007+I20000000000+0000004490+Z
125504001125504080-000133     125504006003000535613CARD&ENV MINI ASTD DSGN0000001000+00000437+00000+0001T   00000437+0000001513          1400 JJ4112               2AZ
125504002125504018-005009     125504006001023725608MUG W/PLUSH-BEAR LOVE  0000001000+00003507+00000+0001T   00003507+0000001513          1400 JJ4515               2AZ
125505000125505               125505               170213CB     1400+00000+CB0000002628+0000002628+000000000+000000368+0000002990+0000000006+I20000000000+0000002990+Z
125505001125505080-000114     125505006003000246472CARD&ENV LOVE-MUSICAL  0000002000+00001314+00000+0001T   00001753+0008151514          1400 JJ4112               2AZ
125506000125506               125506               170213CB     1400+00000+CB0000002628+0000002628+000000000+000000369+0000002990+0000000007+I20000000000+0000002990+Z
125506001125506077-000302     125506008010410010195GIFT-BAG 18X23CM E/D   0000002000+00000876+00000+0001T   00000876+0000001515          1400 JJ4112               2AZ
125506002125506077-000011-L   125506006001023808585P/TISSUE BRIGHT 10SHEET0000001000+00000876+00000+0001T   00000876+0000001515          1400 JJ4112               2AZ
125507000125507               125507               170213CB     1400+00000+CB0000005262+0000005262+000000000+000000737+0000005990+0000000009+I20000000000+0000005990+Z
125507001125507490-044669     125507000078257446698INTEX BOB BAG 3-D      0000001000+00005262+00000+0001T   00005262+0000001523          1400 JJ4787               2AZ
125508000125508               125508               170213CB     1400+00000+CB0000008066+0000008066+000000000+000001131+0000009197+0000000000+I40000009197+0000000000+Z
125508001125508079-000335     125508006003000670550THERAPY P/CRAYONS 30   0000001000+00007016+00000+0001T   00007016+0000001526          1400 JJ4130               2AZ
125508002125508903-000151     125508006009803374411SWT SML RND R/BOW LOLLY0000002000+00000525+00000+0001T   00000525+0000001526          1400 JJ4150               2AZ
125509000125509               125509               170213CB     1400+00000+CB0000005732+0000005732+000000000+000000803+0000006535+0000000000+I40000006535+0000000000+Z
125509001125509903-000843     125509008693029031067SWT GUMMY JELAXY 80G   0000002000+00000964+00000+0001T   00000964+0000001527          1400 JJ4150               2AZ
125509002125509564-000012     125509006001023130075BUBBLE BOTTLE MAGIC    0000001000+00000700+00000+0001T   00000700+0000001527          1400 JJ4131               2AZ
125509003125509079-000358     125509006003000591046ART+CRAFT FELT-TIP PENS0000001000+00003069+00000+0001T   00003069+0000001527          1400 JJ4130               2AZ
125509004125509112-116038     125509006009681820246TCS CARRIER BAG MIDI   0000001000+00000035+00000+0001T   00000035+0000001527          1400 JJ4090               2AZ
125510000125510               125510               170213CB     1400+00000+CB0000034691+0000034691+000000000+000004859+0000039550+0000000000+I20000000000+0000039550+Z
125510001125510016-006461     125510006003000397273S/JAR-SET GLS 7PC S/SET0000002000+00011402+00000+0001T   00011402+0000001529          1400 JJ4300               2AZ
125510002125510003-000032     125510006001023478504ORN ANIMAL SQUIRREL CER0000002000+00004385+00000+0001T   00004385+0000001529          1400 JJ4505               2AZ
125510003125510089-000005     125510006003000094806KEY CHAIN CARDS MTL    0000001000+00003069+00000+0001T   00003069+0000001529          1400 JJ4205               2AZ
125510004125510112-116069     125510006009681820277TCS CARRIER BAG JUMBO  0000001000+00000048+00000+0001T   00000048+0000001529          1400 JJ4090               2AZ
125511000125511               125511               170213CB     1400+00000+CB0000010535+0000010535+000000000+000001485+0000012020+0000000000+I40000012020+0000000000+Z
125511001125511903-000155     125511006009803374435SWT LOLLY I LUV U HEART0000020000+00000525+00000+0001T   00000525+0000001531          1400 JJ4150               2AZ
125511002125511112-116038     125511006009681820246TCS CARRIER BAG MIDI   0000001000+00000035+00000+0001T   00000035+0000001531          1400 JJ4090               2AZ
125512000125512               125512               170213CB     1400+00000+CB0000002678+0000002678+000000000+000000376+0000003050+0000000004+I20000000000+0000003050+Z
125512001125512077-000270     125512006003000395453GIFT-BAG PPR JMB 33X45 0000001000+00002630+00000+0001T   00002630+0000001534          1400 JJ4112               2AZ
125512002125512112-116069     125512006009681820277TCS CARRIER BAG JUMBO  0000001000+00000048+00000+0001T   00000048+0000001534          1400 JJ4090               2AZ
125513000125513               125513               170213CB     1400+00000+CB0000013183+0000013183+000000000+000001849+0000015030+0000000002+I20000000000+0000015030+Z
125513001125513112-116038     125513006009681820246TCS CARRIER BAG MIDI   0000001000+00000035+00000+0001T   00000035+0000001537          1400 JJ4090               2AZ
125513002125513071-000212     125513006009608641190CHALK WHITE 12PCE      0000001000+00000437+00000+0001T   00000437+0000001537          1400 JJ4130               2AZ
125513003125513566-000667     125513006003000658039STICKER FOIL EMBOSSED  0000001000+00002192+00000+0001T   00002192+0000001537          1400 JJ4130               2AZ
125513004125513566-000299     125513006003000682386STICKER LABEL C/BOARD  0000001000+00001753+00000+0001T   00001753+0000001537          1400 JJ4130               2AZ
125513005125513566-000031     125513006003000283910STICKER BK TEACHER STIC0000001000+00002192+00000+0001T   00002192+0000001537          1400 JJ4130               2AZ
125513006125513566-000006     125513006001023671189STICKER-BOOK DRESS-UP  0000001000+00002630+00000+0001T   00002630+0000001537          1400 JJ4130               2AZ
125513007125513566-000359     125513006003000582709STICKER BOOK LOVE SPARK0000001000+00002192+00000+0001T   00002192+0000001537          1400 JJ4130               2AZ
125513008125513077-000150-D   125513006003000054343GIFT-WRAP CELLPHANE CLR0000002000+00000876+00000+0001T   00000876+0000001537          1400 JJ4112               2AZ
125514000125514               125514               170213CB     1400+00000+CB0000001753+0000001753+000000000+000000246+0000001990+0000000009+I20000000000+0000001990+Z
125514001125514007-000043     125514006009635831496DISPLAY-BOOK PL A4 20PG0000001000+00001753+00000+0001T   00001753+0000001537          1400 JJ4130               2AZ
125515000125515               125515               170213CB     1400+00000+CB0000008771+0000008771+000000000+000001228+0000009990+0000000009+I20000000000+0000009990+Z
125515001125515001-091415     125515006003000329113W/GLS OCC. LOVE 2PC 2800000001000+00008771+00000+0001T   00009648+0006471538          1400 JJ4515               2AZ
125516000125516               125516               170213CB     1400+00000+CB0000001227+0000001227+000000000+000000172+0000001390+0000000009+I20000000000+0000001390+Z
125516001125516077-000322     125516006001023677532GIFT-BAG 18X23CM E/D FL0000001000+00001227+00000+0001T   00001227+0000001538          1400 JJ4112               2AZ
125517000125517               125517               170213CB     1400+00000+CB0000001525+0000001525+000000000+000000214+0000001730+0000000009+I20000000000+0000001730+Z
125517001125517028-000400     125517006001023421661PLATE-HOLDERS 4PCE     0000001000+00001490+00000+0001T   00001490+0000001540          1400 JJ4305               2AZ
125517002125517112-116038     125517006009681820246TCS CARRIER BAG MIDI   0000001000+00000035+00000+0001T   00000035+0000001540          1400 JJ4090               2AZ
125518000125518               125518               170213CB     1400+00000+CB0000001311+0000001311+000000000+000000186+0000001490+0000000007+I20000000000+0000001490+Z
125518001125518903-000155     125518006009803374435SWT LOLLY I LUV U HEART0000001000+00000525+00000+0001T   00000525+0000001547          1400 JJ4150               2AZ
125518002125518903-000183     125518006003000451043SWT LB HEART LOLLY     0000002000+00000393+00000+0001T   00000393+0000001547          1400 JJ4150               2AZ
125519000125519               125519               170213CB     1400+00000+CB0000002630+0000002630+000000000+000000369+0000002990+0000000009+I20000000000+0000002990+Z
125519001125519566-000367     125519006003000645558STICKER WINDOW DECOR   0000001000+00002630+00000+0001T   00002630+0000001550          1400 JJ4130               2AZ
125520000125520               125520               170213CB     1400+00000+CB0000009856+0000009856+000000000+000001387+0000011243+0000000000+I40000011243+0000000000+Z
125520001125520903-000194     125520006009826020616SWT CHOC RP LOLLY 25G  0000002000+00001314+00000+0001T   00001314+0000001552          1400 JJ4150               2AZ
125520002125520566-000068     125520006003000418046POP UP LOVE 2 ASSTD    0000001000+00002192+00000+0001T   00002192+0000001552          1400 JJ4130               2AZ
125520003125520903-000183     125520006003000451043SWT LB HEART LOLLY     0000006000+00000393+00000+0001T   00000393+0000001552          1400 JJ4150               2AZ
125520004125520266-003012     125520006001023786128BOYS P/SET ARCHERY 4pc 0000001000+00002630+00000+0001T   00002630+0000001552          1400 JJ4710               2AZ
125520005125520112-116069     125520006009681820277TCS CARRIER BAG JUMBO  0000001000+00000048+00000+0001T   00000048+0000001552          1400 JJ4090               2AZ
125521000125521               125521               170213CB     1400+00000+CB0000002629+0000002629+000000000+000000369+0000002990+0000000008+I20000000000+0000002990+Z
125521001125521903-005003     125521006002580020106SWT DINKY DUMMIES 5PK  0000001000+00001490+00000+0001T   00001490+0000001553          1400 JJ4150               2AZ
125521002125521903-000087     125521006001704000161SWT SPECKLED-EGGS 50G  0000001000+00001139+00000+0001T   00001139+0000001553          1400 JJ4150               2AZ
125522000125522               125522               170213CB     1400+00000+CB0000002192+0000002192+000000000+000000307+0000002499+0000000000+I40000002499+0000000000+Z
125522001125522566-000359     125522006003000582709STICKER BOOK LOVE SPARK0000001000+00002192+00000+0001T   00002192+0000001556          1400 JJ4130               2AZ
125523000125523               125523               170213CB     1400+00000+CB0000002366+0000002366+000000000+000000332+0000002690+0000000008+I20000000000+0000002690+Z
125523001125523077-000315     125523006003000181186GIFT-BAG 20x28cm MATT  0000001000+00001578+00000+0001T   00001578+0000001556          1400 JJ4112               2AZ
125523002125523077-000010-C   125523006001023123879CREPE-PAPER RED        0000001000+00000788+00000+0001T   00000788+0000001556          1400 JJ4112               2AZ
125524000125524               125524               170213CB     1400+00000+CB0000003507+0000003507+000000000+000000491+0000003990+0000000008+I20000000000+0000003990+Z
125524001125524133-000017     125524006003000525171CLEANING-CLOTHS 5PCE   0000001000+00003507+00000+0001T   00003507+0000001557          1400 JJ4212               2AZ
125525000125525               125525               170213CB     1400+00000+CB0000005297+0000005297+000000000+000000742+0000006039+0000000000+I40000006039+0000000000+Z
125525001125525079-003020     125525006003000662944PAINT ACRYLIC SET TUBE 0000001000+00005262+00000+0001T   00005262+0000001600          1400 JJ4130               2AZ
125525002125525112-116038     125525006009681820246TCS CARRIER BAG MIDI   0000001000+00000035+00000+0001T   00000035+0000001600          1400 JJ4090               2AZ
125526000125526               125526               170213CB     1400+00000+CB0000003930+0000003930+000000000+000000560+0000004490+0000000000+I40000004490+0000000000+Z
125526001125526903-000183     125526006003000451043SWT LB HEART LOLLY     0000010000+00000393+00000+0001T   00000393+0000001601          1400 JJ4150               2AZ
125527000125527               125527               170213CB     1400+00000+CB0000002454+0000002454+000000000+000000344+0000002798+0000000000+I40000002798+0000000000+Z
125527001125527077-000303     125527006001023593757GIFT-BAG PAPER MED     0000001000+00001578+00000+0001T   00001578+0000001603          1400 JJ4112               2AZ
125527002125527077-000011-D   125527006001023808554TISSUE-WRAP WHITE 10PCE0000001000+00000876+00000+0001T   00000876+0000001603          1400 JJ4112               2AZ
125528000125528               125528               170213CB     1400+00000+CB0000001050+0000001050+000000000+000000148+0000001198+0000000000+I40000001198+0000000000+Z
125528001125528903-000155     125528006009803374435SWT LOLLY I LUV U HEART0000002000+00000525+00000+0001T   00000525+0000001604          1400 JJ4150               2AZ
125529000125529               125529               170213CB     1400+00000+CB0000001788+0000001788+000000000+000000251+0000002030+0000000009+I20000000000+0000002030+Z
125529001125529365-000001     125529006003000395262PLAY SET DOCTORS SET   0000001000+00001753+00000+0001T   00001753+0000001633          1400 JJ4725               2AZ
125529002125529112-116038     125529006009681820246TCS CARRIER BAG MIDI   0000001000+00000035+00000+0001T   00000035+0000001633          1400 JJ4090               2AZ
125530000125530               125530               170213CB     1400+00000+CB0000008771-0000008771-000000000+000001228-0000010000-0000000001+I20000000000+0000010000-Z
125530001125530072-020242     125530006003000053728PET BED COTTON TEXTILE 0000001000-00008771+00000+0001T   00008771+0000001634          1400 JJ48701IC            2 Z
125531000125531               125531               170213CB     1400+00000+CB0000002278+0000002278+000000000+000000320+0000002590+0000000008+I20000000000+0000002590+Z
125531001125531077-000299-A   125531006003000670888GIFT-BAG PAPER JMB LOVE0000001000+00001753+00000+0001T   00001753+0000001636          1400 JJ4112               2AZ
125531002125531903-000155     125531006009803374435SWT LOLLY I LUV U HEART0000001000+00000525+00000+0001T   00000525+0000001636          1400 JJ4150               2AZ
125532000125532               125532               170213CB     1400+00000+CB0000001490+0000001490+000000000+000000209+0000001690+0000000009+I20000000000+0000001690+Z
125532001125532077-000299     125532006003000395576G/BAG 32x25cm LRG LOVE 0000001000+00001490+00000+0001T   00001490+0000001637          1400 JJ4112               2AZ
125533000125533               125533               170213CB     1400+00000+CB0000004030+0000004030+000000000+000000565+0000004595+0000000000+I40000004595+0000000000+Z
125533001125533077-000303     125533006001023593757GIFT-BAG PAPER MED     0000001000+00001578+00000+0001T   00001578+0000001641          1400 JJ4112               2AZ
125533002125533077-000317     125533006001023609748GIFT-BAG 11X14CM E/D AN0000004000+00000613+00000+0001T   00000613+0000001641          1400 JJ4112               2AZ
125534000125534               125534               170213CB     1400+00000+CB0000016957+0000016957+000000000+000002377+0000019334+0000000000+I40000019334+0000000000+Z
125534001125534567-011450     125534009780745962719BK RELIGIOUS LHA BIBLE 0000001000+00007016+00000+0001T   00007016+0000001716          1400 JJ4757               2AZ
125534002125534078-013424     125534006008741000338CONTACT-ADHESIVE 50ml  0000001000+00001578+00000+0001T   00001578+0000001716          1400 JJ4810               2AZ
125534003125534200-003026     125534006003000276448REFUSE BAGS 10PCE GREEN0000001000+00001753+00000+0001T   00001753+0000001716          1400 JJ4214               2AZ
125534004125534050-000262-Z   125534006001023475237PADLOCK BRS 25mm CARDED0000001000+00003069+00000+0001T   00003069+0000001716          1400 JJ4855               2AZ
125534005125534089-000028     125534006003000622252K/CHAIN MTL RELIGIOUS  0000001000+00001753+00000+0001T   00001753+0000001716          1400 JJ4205               2AZ
125534006125534019-071595     125534006001023756428PEBBLES 250g SKY-BLUE  0000001000+00001753+00000+0001T   00001753+0000001716          1400 JJ4510               2AZ
125534007125534112-116038     125534006009681820246TCS CARRIER BAG MIDI   0000001000+00000035+00000+0001T   00000035+0000001716          1400 JJ4090               2AZ
125535000125535               125535               170213CB     1400+00000+CB0000005699+0000005699+000000000+000000799+0000006498+0000000000+I40000006498+0000000000+Z
125535001125535080-000133     125535006003000535613CARD&ENV MINI ASTD DSGN0000001000+00000437+00000+0001T   00000437+0000001727          1400 JJ4112               2AZ
125535002125535018-019000     125535006003000557288MUG OCC. LOVE JUMBO    0000001000+00005262+00000+0001T   00005262+0000001727          1400 JJ4515               2AZ
125536000125536               125536               170213CB     1400+00000+CB0000001753+0000001753+000000000+000000246+0000001990+0000000009+I20000000000+0000001990+Z
125536001125536264-000921     125536000090159150442MAISTO CAR 3" FRESH    0000001000+00001753+00000+0001T   00001753+0000001728          1400 JJ4710               2AZ
125537000125537               125537               170213CB     1400+00000+CB0000009292+0000009292+000000000+000001302+0000010594+0000000000+I40000010594+0000000000+Z
125537001125537006-000190     125537006003000685530BALLOONS LOVE 81x91cm  0000001000+00004385+00000+0001T   00004385+0000001731          1400 JJ4131               2AZ
125537002125537206-000630     125537006003000631919SPECTACLE CLEANING BRUS0000003000+00001227+00000+0001T   00001227+0000001731          1400 JJ4321               2AZ
125537003125537006-001000     125537006003000093779HELIUM BALLOON FILL    0000002000+00000613+00000+0001T   00000613+0000001731          1400 JJ4131               2AZ
125538000125538               125538               170213CB     1400+00000+CB0000002630+0000002630+000000000+000000369+0000002990+0000000009+I20000000000+0000002990+Z
125538001125538077-000349-B   125538006001023908315G/RIBBON 3ROLLS 12BOWS 0000001000+00002630+00000+0001T   00002630+0000001733          1400 JJ4112               2AZ
125539000125539               125539               170213CB     1400+00000+CB0000004680+0000004680+000000000+000000656+0000005336+0000000000+I40000005336+0000000000+Z
125539001125539046-000012     125539006904708013062BATTERIES AA  CARD-OF-40000001000+00001314+00000+0001T   00001314+0000001739          1400 JJ4312               2AZ
125539002125539046-000014     125539006001023725387BATTERIES SIZE:AAA 4PCE0000001000+00001139+00000+0001T   00001139+0000001739          1400 JJ4312               2AZ
125539003125539077-000509     125539006003000082582GIFT-BAG SML 6PCE ORG P0000001000+00002192+00000+0001T   00002192+0000001739          1400 JJ4112               2AZ
125539004125539112-116038     125539006009681820246TCS CARRIER BAG MIDI   0000001000+00000035+00000+0001T   00000035+0000001739          1400 JJ4090               2AZ
125540000125540               125540               170213CB     1400+00000+CB0000002455+0000002455+000000000+000000344+0000002799+0000000000+I40000002799+0000000000+Z
125540001125540077-000380     125540006003000247585GIFT-BAG 33X45CM S/COL 0000001000+00002455+00000+0001T   00002455+0000001745          1400 JJ4112               2AZ
125541000125541               125541               170213CB     1400+00000+CB0000004385+0000004385+000000000+000000614+0000004990+0000000009+I20000000000+0000004990+Z
125541001125541006-000190     125541006003000685530BALLOONS LOVE 81x91cm  0000001000+00004385+00000+0001T   00004385+0000001749          1400 JJ4131               2AZ
125542000125542               125542               170213CB     1400+00000+CB0000001753+0000001753+000000000+000000246+0000001990+0000000009+I20000000000+0000001990+Z
125542001125542006-000108     125542006003000587995BALLOONS 6PC RED/WHT   0000001000+00001753+00000+0001T   00001753+0000001751          1400 JJ4131               2AZ
125543000125543               125543               170213CB     1400+00000+CB0000004645+0000004645+000000000+000000652+0000005297+0000000000+I40000005297+0000000000+Z
125543001125543079-000280     125543006003000160723PAINT READYMIX 6PCE    0000001000+00002630+00000+0001T   00002630+0000001753          1400 JJ4130               2AZ
125543002125543565-000071     125543006003000643387NOVELTY WIND UP CHATTER0000001000+00001139+00000+0001T   00001139+0000001753          1400 JJ4745               2AZ
125543003125543083-000050     125543006001023898593LIGHTERS DISPOSABLE    0000001000+00000876+00000+0001T   00000876+0000001753          1400 JJ4315               2AZ
125544000125544               125544               170213CB     1400+00000+CB0000014032+0000014032+000000000+000001966+0000015998+0000000000+I40000015998+0000000000+Z
125544001125544071-002884     125544006003000639229CALCULATOR 12 DIGIT    0000001000+00007893+00000+0001T   00007893+0000001800          1400 JJ4130               2AZ
125544002125544007-000890-17  125544006003000645671CALENDAR 2017 ASSTD    0000001000+00006139+00000+0001T   00006139+0000001800          1400 JJ4130               2AZ
125545000125545               125545               170213CB     1400+00000+CB0000000393+0000000393+000000000+000000056+0000000440+0000000009+I20000000000+0000000440+Z
125545001125545903-000183     125545006003000451043SWT LB HEART LOLLY     0000001000+00000393+00000+0001T   00000393+0000001800          1400 JJ4150               2AZ
C12550800                                          170213CB079-000334     15251212SLAVE 2     JJ42IC0000000000+0000000000+0010000001000+
M17021391                              CASH        CBSLAVE 2                       Z-REPORT No.   659TOTAL (Sales - Refunds)           4038.36       CASH TO BE BANKED                 1533.70       DEBIT CARDS                          0.00       CREDIT CARDS                      2504.66       Z-READING                         4038.36       AIRTIME DEBIT CARD SALES             0.00       AIRTIME CARD SALES                   0.00       OVERS/UNDERS                         0.00       AIRTIME CASH SALES                   0.00       GIFT CARDS                           0.00       GIFT CARD CASH SALES                 0.00       T O T A L  CASH PAYOUTS              0.00                                                                                                                                                                                                                                                                                                                                                      Z
M17021392                              CASH        CBABSENT                                                                                                                                                                                          ANNUAL LEAVE                                                                                                                                                                                    DAY OFF                                                                                                                                                                                         COMMENTS                                                                                                                                                                                                                                                                                                                                                                                       Z
Y17021300                                          CB00000000363176+000065
ZCB17021319243 SLAVE 2      SALES DATA                     NEXT INVOICE NO.  125546 0659
F093732496-058484         1701271307480000121ICSLAVE 2
F094019496-028272         1701271307560000011ICSLAVE 2
F094060496-028120         1701271308290000021ICSLAVE 2
F094669031-000873-B       1702030911580000042ICSLAVE 2
F094754031-000873-C       1702080914350000062ICSLAVE 2
X CB Slave 2 First invoice 125480 170213 Last invoice 125545 170213 Next invoice 125546 Total number of records 000000207 clbackup completed 19:24:50
