231828000231828               231828               170213CC     1400+00000+CC0000013640+0000013640+000000000+000001911+0000015550+0000000001+I20000000000+0000015550+Z
231828001231828112-116069     231828006009681820277TCS CARRIER BAG JUMBO  0000001000+00000048+00000+0001T   00000048+0000000923          1400 AD5090               1BZ
231828002231828301-085007     231828006003000673698ORN OCC. LOVE S/PLAQUE 0000001000+00007893+00000+0001T   00007893+0000000923          1400 AD5505               1BZ
231828003231828301-085004     231828006003000420469ORN LOVE PLAQUE 21X10CM0000001000+00003507+00000+0001T   00003946+0006470923          1400 AD5505               1BZ
231828004231828080-000127     231828006003000424351VALENTINES DAY 36x24CM 0000001000+00002192+00000+0001T   00002192+0000000923          1400 AD5112               1BZ
231829000231829               231829               170213CC     1400+00000+CC0000001753+0000001753+000000000+000000246+0000001990+0000000009+I20000000000+0000001990+Z
231829001231829077-000902     231829006003000410569G/WRAP 700mmx1m BBY/KID0000001000+00001753+00000+0001T   00001753+0000000935          1400 AD5112               1BZ
231830000231830               231830               170213CC     1400+00000+CC0000002664+0000002664+000000000+000000374+0000003030+0000000008+I20000000000+0000003030+Z
231830001231830079-000275     231830006003000160488PAINT-BRUSHES 6PCE PRO 0000001000+00001753+00000+0001T   00001753+0000000937          1400 AD5130               1BZ
231830002231830071-001019     231830006001023474513MARKER BLACK NAME-PEN  0000001000+00000876+00000+0001T   00000876+0000000937          1400 AD5130               1BZ
231830003231830112-116038     231830006009681820246TCS CARRIER BAG MIDI   0000001000+00000035+00000+0001T   00000035+0000000937          1400 AD5090               1BZ
231831000231831               231831               170213CC     1400+00000+CC0000005348+0000005348+000000000+000000749+0000006097+0000000000+I40000006097+0000000000+Z
231831001231831077-000509     231831006003000082582GIFT-BAG SML 6PCE ORG P0000001000+00002192+00000+0001T   00002192+0000000957          1400 AD5112               1BZ
231831002231831077-000303     231831006001023593757GIFT-BAG PAPER MED     0000002000+00001578+00000+0001T   00001578+0000000957          1400 AD5112               1BZ
231832000231832               231832               170213CC     1400+00000+CC0000001139+0000001139+000000000+000000160+0000001290+0000000009+I20000000000+0000001290+Z
231832001231832140-006004     231832006001023628077FLY-SWATTER RUBBER     0000001000+00001139+00000+0001T   00001139+0000001000          1400 AD5830               1BZ
231833000231833               231833               170213CC     1400+00000+CC0000002104+0000002104+000000000+000000295+0000002390+0000000009+I20000000000+0000002390+Z
231833001231833903-000095     231833006001704011495SWT SPECKLED-EGGS 100G 0000001000+00002104+00000+0001T   00002104+0000001006          1400 AD5150               1BZ
231834000231834               231834               170213CC     1400+00000+CC0000000876+0000000876+000000000+000000123+0000000990+0000000009+I20000000000+0000000990+Z
231834001231834903-000483     231834006001704001410SWT LIQUOR SML SORT 60G0000001000+00000876+00000+0001T   00000876+0000001006          1400 AD5150               1BZ
231835000231835               231835               170213CC     1400+00000+CC0000001927+0000001927+000000000+000000271+0000002190+0000000008+I20000000000+0000002190+Z
231835001231835071-081101-A   231835006003000326549GLUE-STICK 25g BLISTER 0000001000+00000788+00000+0001T   00000788+0000001007          1400 AD5130               1BZ
231835002231835071-004202     231835006001023417176SCISSORS-SCHOOL PL/MTL 0000001000+00001139+00000+0001T   00001139+0000001007          1400 AD5130               1BZ
231836000231836               231836               170213CC     1400+00000+CC0000002273+0000002273+000000000+000000322+0000002590+0000000005+I20000000000+0000002590+Z
231836001231836903-000183     231836006003000451043SWT LB HEART LOLLY     0000002000+00000393+00000+0001T   00000393+0000001010          1400 AD5150               1BZ
231836002231836903-000155     231836006009803374435SWT LOLLY I LUV U HEART0000002000+00000525+00000+0001T   00000525+0000001010          1400 AD5150               1BZ
231836003231836080-000133-A   231836006003000647019MINI VALENTINES CARD   0000001000+00000437+00000+0001T   00000437+0000001010          1400 AD5112               1BZ
231837000231837               231837               170213CC     1400+00000+CC0000001753+0000001753+000000000+000000246+0000001990+0000000009+I20000000000+0000001990+Z
231837001231837466-000200     231837006001023621665HULA-HOOP     ASSTD    0000001000+00001753+00000+0001T   00001753+0000001019          1400 AD5785               1BZ
231838000231838               231838               170213CC     1400+00000+CC0000002630+0000002630+000000000+000000369+0000002999+0000000000+I40000002999+0000000000+Z
231838001231838203-000470     231838006003000329793BOTTLE-STOPPER/OPENER  0000001000+00002630+00000+0001T   00002630+0000001023          1400 AD5300               1BZ
231839000231839               231839               170213CC     1400+00000+CC0000010043+0000010043+000000000+000001407+0000011450+0000000000+I40000011450+0000000000+Z
231839001231839903-000843     231839008693029031067SWT GUMMY JELAXY 80G   0000001000+00000964+00000+0001T   00000964+0000001026          1400 AD5150               1BZ
231839002231839903-000007     231839000028000688776SWT LAFFY TAFFY 23G    0000001000+00001139+00000+0001T   00001139+0000001026          1400 AD5150               1BZ
231839003231839018-005009     231839006001023725608MUG W/PLUSH-BEAR LOVE  0000001000+00003507+00000+0001T   00003507+0000001026          1400 AD5515               1BZ
231839004231839567-002724     231839006003000071371BOOK PROMO ASSTD CAT F 0000001000+00004385+00000+0001T   00006139+0008131026          1400 AD5757               1BZ
231839005231839112-116069     231839006009681820277TCS CARRIER BAG JUMBO  0000001000+00000048+00000+0001T   00000048+0000001026          1400 AD5090               1BZ
231840000231840               231840               170213CC     1400+00000+CC0000001753+0000001753+000000000+000000246+0000001990+0000000009+I20000000000+0000001990+Z
231840001231840024-000038     231840006001023477026MEASURING-JUG 1L (4CUP)0000001000+00001753+00000+0001T   00001753+0000001026          1400 AD5300               1BZ
231841000231841               231841               170213CC     1400+00000+CC0000005699+0000005699+000000000+000000798+0000006490+0000000007+I20000000000+0000006490+Z
231841001231841566-000031     231841006003000283910STICKER BK TEACHER STIC0000001000+00002192+00000+0001T   00002192+0000001028          1400 AD5130               1BZ
231841002231841079-006498     231841006001023836151GLITTER SET 10PCE      0000001000+00003507+00000+0001T   00003507+0000001028          1400 AD5130               1BZ
231842000231842               231842               170213CC     1400+00000+CC0000002284-0000002284-000000000+000000318-0000002610-0000000008+I20000000000+0000002610-Z
231842001231842562-000080     231842006003000610587EDU WORLD GLOBE        0000001000-00005262+00000+0001T   00005262+0000001032          1400 AD57552IC            1 Z
231842002231842903-002891     231842008935001721376MENTOS GUM WINTERGREEN 0000001000+00001051+00000+0001T   00001051+0000001032          1400 AD5150               1 Z
231842003231842903-002890     231842008935001721352MENTOS GUM PURE F/MINT 0000001000+00001051+00000+0001T   00001051+0000001032          1400 AD5150               1 Z
231842004231842105-001036     231842006003000621118CONTAINER W/VENT 350ml 0000001000+00000876+00000+0001T   00001490+0008161032          1400 AD5210               1 Z
231843000231843               231843               170213CC     1400+00000+CC0000001753-0000001753-000000000+000000246-0000002000-0000000001+I20000000000+0000002000-Z
231843001231843024-000038     231843006001023477026MEASURING-JUG 1L (4CUP)0000001000-00001753+00000+0001T   00001753+0000001032          1400 AD53002IC            1 Z
231844000231844               231844               170213CC     1400+00000+CC0000002192+0000002192+000000000+000000307+0000002499+0000000000+I40000002499+0000000000+Z
231844001231844566-000667     231844006003000658039STICKER FOIL EMBOSSED  0000001000+00002192+00000+0001T   00002192+0000001034          1400 AD5130               1BZ
231845000231845               231845               170213CC     1400+00000+CC0000026177+0000026177+000000000+000003669+0000029846+0000000000+I40000029846+0000000000+Z
231845001231845112-116069     231845006009681820277TCS CARRIER BAG JUMBO  0000001000+00000048+00000+0001T   00000048+0000001037          1400 AD5090               1BZ
231845002231845200-000208     231845006003000293728BAKING ALUM FOIL 5PCE  0000001000+00002630+00000+0001T   00002630+0000001037          1400 AD5214               1BZ
231845003231845140-006004     231845006001023628077FLY-SWATTER RUBBER     0000001000+00001139+00000+0001T   00001139+0000001037          1400 AD5830               1BZ
231845004231845072-020295     231845006003000451609PET CAT TOY MOUSE W/ZIP0000001000+00002630+00000+0001T   00002630+0000001037          1400 AD5870               1BZ
231845005231845078-000025     231845008887013700064SUPERGLUE 3g 1PCE CARD 0000001000+00000876+00000+0001T   00000876+0000001037          1400 AD5810               1BZ
231845006231845158-000004     231845006001023577894CUTLERY DRAINER TRAY   0000001000+00004385+00000+0001T   00004385+0000001037          1400 AD5300               1BZ
231845007231845150-004032-H   231845006003000645367BASIN-PLUG 2PCE BLACK  0000001000+00000876+00000+0001T   00000876+0000001037          1400 AD5810               1BZ
231845008231845036-000063     231845006009654960436COATHANGERS VIRGIN 5PCE0000001000+00001753+00000+0001T   00001753+0000001037          1400 AD5212               1BZ
231845009231845002-000706     231845006001023111456SPATTER-PREVENTOR 28cm 0000001000+00004385+00000+0001T   00004385+0000001037          1400 AD5300               1BZ
231845010231845024-000103     231845006001023421982B/TRAY NON-STICK LARGE 0000001000+00007455+00000+0001T   00007455+0000001037          1400 AD5300               1BZ
231846000231846               231846               170213CC     1400+00000+CC0000005262+0000005262+000000000+000000737+0000005990+0000000009+I20000000000+0000005990+Z
231846001231846018-019000     231846006003000557288MUG OCC. LOVE JUMBO    0000001000+00005262+00000+0001T   00005262+0000001039          1400 AD5515               1BZ
231847000231847               231847               170213CC     1400+00000+CC0000004386-0000004386-000000000+000000615-0000005010-0000000009+I20000000000+0000005010-Z
231847001231847133-000086     231847006003000221929D/CLOTHS CTN 65g PK-3  0000001000-00007893+00000+0001T   00007893+0000001042          1400 AD52121IC            1 Z
231847002231847133-000069     231847006001926021555DISH-CLOTH 40X60cm     0000001000+00003507+00000+0001T   00004385+0008121042          1400 AD5212               1 Z
231848000231848               231848               170213CC     1400+00000+CC0000001227+0000001227+000000000+000000172+0000001390+0000000009+I20000000000+0000001390+Z
231848001231848071-081104-A   231848006003000326662GLUE-STICK 8g CRD-OF-3 0000001000+00001227+00000+0001T   00001227+0000001044          1400 AD5130               1BZ
231849000231849               231849               170213CC     1400+00000+CC0000003243+0000003243+000000000+000000455+0000003690+0000000008+I20000000000+0000003690+Z
231849001231849079-006500     231849006001023557186GLUE GLITTER 6/10 PCE  0000001000+00001753+00000+0001T   00001753+0000001048          1400 AD5130               1BZ
231849002231849564-000036     231849006001023708694BUBBLE W/PUZZLE        0000001000+00001490+00000+0001T   00001490+0000001048          1400 AD5131               1BZ
231850000231850               231850               170213CC     1400+00000+CC0000001753+0000001753+000000000+000000246+0000001990+0000000009+I20000000000+0000001990+Z
231850001231850077-000308     231850006001023595812GIFT-BAG 33X45CM E/DAY 0000001000+00001753+00000+0001T   00001753+0000001049          1400 AD5112               1BZ
231851000231851               231851               170213CC     1400+00000+CC0000001314+0000001314+000000000+000000184+0000001490+0000000008+I20000000000+0000001490+Z
231851001231851107-004105     231851006002923010504BUCKET 9L OPEN         0000001000+00001314+00000+0001T   00001314+0000001055          1400 AD5210               1BZ
231852000231852               231852               170213CC     1400+00000+CC0000002102+0000002102+000000000+000000295+0000002390+0000000007+I20000000000+0000002390+Z
231852001231852083-000055     231852006003000003853LIGHTER ELCTRNC REFILBL0000002000+00000613+00000+0001T   00000613+0000001058          1400 AD5315               1BZ
231852002231852082-026204     231852006001023816443R/GLASSES STRINGS 2PCE 0000001000+00000876+00000+0001T   00000876+0000001058          1400 AD51601IC            1BZ
231853000231853               231853               170213CC     1400+00000+CC0000001490+0000001490+000000000+000000209+0000001690+0000000009+I20000000000+0000001690+Z
231853001231853077-000452     231853006003000284986G/BAG METALLIC MED EMB 0000001000+00001490+00000+0001T   00001490+0000001100          1400 AD5112               1BZ
231854000231854               231854               170213CC     1400+00000+CC0000008765+0000008765+000000000+000001230+0000009990+0000000005+I20000000000+0000009990+Z
231854001231854024-091100     231854006001023914224BAKING-CUPS PAPER 100PC0000005000+00001753+00000+0001T   00001753+0000001122          1400 AD5300               1BZ
231855000231855               231855               170213CC     1400+00000+CC0000001753+0000001753+000000000+000000246+0000001990+0000000009+I20000000000+0000001990+Z
231855001231855048-000859     231855006003000423422TORCH 9 LED PL 3XAAA   0000001000+00001753+00000+0001T   00001753+0000001125          1400 AD5305               1BZ
231856000231856               231856               170213CC     1400+00000+CC0000001753+0000001753+000000000+000000246+0000001990+0000000009+I20000000000+0000001990+Z
231856001231856017-000199     23185600600300037852460-PHOTO WEDDING ALBUM 0000001000+00001753+00000+0001T   00002630+0008171131          1400 AD5510               1BZ
231857000231857               231857               170213CC     1400+00000+CC0000013640+0000013640+000000000+000001911+0000015551+0000000000+I40000015551+0000000000+Z
231857001231857112-116069     231857006009681820277TCS CARRIER BAG JUMBO  0000001000+00000048+00000+0001T   00000048+0000001154          1400 AD5090               1BZ
231857002231857567-011040     231857009781920389734BOOK CHILDREN'S READER 0000001000+00003946+00000+0001T   00005262+0008131154          1400 AD5757               1BZ
231857003231857567-011350     231857009780709716679BK STICKER COLOUR DOT  0000001000+00003507+00000+0001T   00003507+0000001154          1400 AD5757               1BZ
231857004231857174-008022     231857006001023555502RAINCOAT 132X203cm HOOD0000001000+00006139+00000+0001T   00006139+0000001154          1400 AD5205               1BZ
231858000231858               231858               170213CC     1400+00000+CC0000003946+0000003946+000000000+000000553+0000004490+0000000009+I20000000000+0000004490+Z
231858001231858024-000002     231858006001023741899S/BURNER-COVER SILV/BLK0000001000+00003946+00000+0001T   00004385+0008191158          1400 AD5300               1BZ
231859000231859               231859               170213CC     1400+00000+CC0000005295+0000005295+000000000+000000743+0000006038+0000000000+I40000006038+0000000000+Z
231859001231859206-000620     231859006003000631797BACK SCRATCHER EXTEND  0000002000+00002630+00000+0001T   00002630+0000001200          1400 AD5321               1BZ
231859002231859112-116038     231859006009681820246TCS CARRIER BAG MIDI   0000001000+00000035+00000+0001T   00000035+0000001200          1400 AD5090               1BZ
231860000231860               231860               170213CC     1400+00000+CC0000003466+0000003466+000000000+000000487+0000003953+0000000000+I40000003953+0000000000+Z
231860001231860077-000010-Z   231860006001023157874CREPE-PAPER BLK/ORG/PUR0000001000+00000788+00000+0001T   00000788+0000001201          1400 AD5112               1BZ
231860002231860077-000270     231860006003000395453GIFT-BAG PPR JMB 33X45 0000001000+00002630+00000+0001T   00002630+0000001201          1400 AD5112               1BZ
231860003231860112-116069     231860006009681820277TCS CARRIER BAG JUMBO  0000001000+00000048+00000+0001T   00000048+0000001201          1400 AD5090               1BZ
231861000231861               231861               170213CC     1400+00000+CC0000003414+0000003414+000000000+000000481+0000003895+0000000000+I40000003895+0000000000+Z
231861001231861903-000155     231861006009803374435SWT LOLLY I LUV U HEART0000001000+00000525+00000+0001T   00000525+0000001204          1400 AD5150               1BZ
231861002231861018-000127     231861006001023380289MUG OCC STRAIGHT LOVE  0000001000+00001578+00000+0001T   00001753+0006471204          1400 AD5515               1BZ
231861003231861080-000133-A   231861006003000647019MINI VALENTINES CARD   0000003000+00000437+00000+0001T   00000437+0000001204          1400 AD5112               1BZ
231862000231862               231862               170213CC     1400+00000+CC0000000262+0000000262+000000000+000000037+0000000290+0000000009+I20000000000+0000000290+Z
231862001231862903-000216     231862006925925900966SWT MALLOW TWIST ERKO  0000001000+00000262+00000+0001T   00000262+0000001205          1400 AD5150               1BZ
231863000231863               231863               170213CC     1400+00000+CC0000004385+0000004385+000000000+000000614+0000004990+0000000009+I20000000000+0000004990+Z
231863001231863082-000110     231863006003000360482READING GLS STRENGHT:2 0000001000+00004385+00000+0001T   00004385+0000001206          1400 AD5160               1BZ
231864000231864               231864               170213CC     1400+00000+CC0000001753+0000001753+000000000+000000246+0000001990+0000000009+I20000000000+0000001990+Z
231864001231864200-003024     231864006001023657299REFUSE BAGS 20PCE BLACK0000001000+00001753+00000+0001T   00001753+0000001207          1400 AD5214               1BZ
231865000231865               231865               170213CC     1400+00000+CC0000004418+0000004418+000000000+000000620+0000005030+0000000008+I20000000000+0000005030+Z
231865001231865263-000130     231865006003000305742MOTORBIKE B/BACK 11CM  0000001000+00002630+00000+0001T   00002630+0000001208          1400 AD5710               1BZ
231865002231865365-000001     231865006003000395262PLAY SET DOCTORS SET   0000001000+00001753+00000+0001T   00001753+0000001208          1400 AD5725               1BZ
231865003231865112-116038     231865006009681820246TCS CARRIER BAG MIDI   0000001000+00000035+00000+0001T   00000035+0000001208          1400 AD5090               1BZ
231866000231866               231866               170213CC     1400+00000+CC0000016307+0000016307+000000000+000002285+0000018592+0000000000+I40000018592+0000000000+Z
231866001231866079-105608     231866006003000231287ART+CRAFT RUBBER SCHOOL0000001000+00007016+00000+0001T   00007016+0000001211          1400 AD5130               1BZ
231866002231866028-000795     231866006001023812063SKEWERS 10cm 100PCE 3mm0000002000+00000964+00000+0001T   00000964+0000001211          1400 AD5305               1BZ
231866003231866028-000797     231866006001023812124SKEWERS 15cm 100PCE    0000001000+00000876+00000+0001T   00000876+0000001211          1400 AD5305               1BZ
231866004231866079-003000     231866006003000448838A/TUBE 75ML WHITE      0000001000+00001753+00000+0001T   00001753+0000001211          1400 AD5130               1BZ
231866005231866079-105603     231866006003000230907ART+CRAFT STAMP ROUND  0000003000+00001578+00000+0001T   00001578+0000001211          1400 AD5130               1BZ
231867000231867               231867               170213CC     1400+00000+CC0000000525+0000000525+000000000+000000074+0000000590+0000000009+I20000000000+0000000590+Z
231867001231867903-000155     231867006009803374435SWT LOLLY I LUV U HEART0000001000+00000525+00000+0001T   00000525+0000001213          1400 AD5150               1BZ
231868000231868               231868               170213CC     1400+00000+CC0000001752+0000001752+000000000+000000246+0000001990+0000000008+I20000000000+0000001990+Z
231868001231868071-003004     231868006003000662821PEN BALL POINT 3PC BLUE0000002000+00000876+00000+0001T   00000876+0000001214          1400 AD5130               1BZ
231869000231869               231869               170213CC     1400+00000+CC0000005733+0000005733+000000000+000000804+0000006530+0000000007+I20000000000+0000006530+Z
231869001231869566-000068     231869006003000418046POP UP LOVE 2 ASSTD    0000001000+00002192+00000+0001T   00002192+0000001214          1400 AD5130               1BZ
231869002231869566-000067     231869006003000349180STICKERS GLITTER       0000001000+00001753+00000+0001T   00002192+0008151214          1400 AD5130               1BZ
231869003231869080-000109     231869006003000237203CARD&ENVLPE BDAY-BRIGHT0000001000+00001753+00000+0001T   00001753+0000001214          1400 AD5112               1BZ
231869004231869112-116038     231869006009681820246TCS CARRIER BAG MIDI   0000001000+00000035+00000+0001T   00000035+0000001214          1400 AD5090               1BZ
231870000231870               231870               170213CC     1400+00000+CC0000005260+0000005260+000000000+000000737+0000005990+0000000007+I20000000000+0000005990+Z
231870001231870079-003000     231870006003000448838A/TUBE 75ML WHITE      0000001000+00001753+00000+0001T   00001753+0000001221          1400 AD5130               1BZ
231870002231870007-000324     23187000600968585864125 SHEETS BRIGHTS MARLI0000001000+00003507+00000+0001T   00003507+0000001221          1400 AD5130               1BZ
231871000231871               231871               170213CC     1400+00000+CC0000016925+0000016925+000000000+000002371+0000019296+0000000000+I40000019296+0000000000+Z
231871001231871024-000174     231871006003000504664SILICONE CUP-PAN 6-CUP 0000002000+00005262+00000+0001T   00005262+0000001223          1400 AD5300               1BZ
231871002231871105-000605     231871006005387000517STORAGE CONTAINRS 250ml0000001000+00003771+00000+0001T   00003771+0000001223          1400 AD5210               1BZ
231871003231871002-000884     231871006001023769589CAN-OPENER BUTTERFLY   0000001000+00002630+00000+0001T   00002630+0000001223          1400 AD5300               1BZ
231872000231872               231872               170213CC     1400+00000+CC0000012711+0000012711+000000000+000001781+0000014492+0000000000+I40000014492+0000000000+Z
231872001231872018-000136     231872006001023659026MUG OCC LOVE W/PLUSH   0000002000+00003507+00000+0001T   00003507+0000001227          1400 AD5515               1BZ
231872002231872018-000130     231872006001023867537MUG OCC LOVE MINI+HEART0000001000+00003507+00000+0001T   00003507+0000001227          1400 AD5515               1BZ
231872003231872077-000299-A   231872006003000670888GIFT-BAG PAPER JMB LOVE0000001000+00001753+00000+0001T   00001753+0000001227          1400 AD5112               1BZ
231872004231872080-000133-A   231872006003000647019MINI VALENTINES CARD   0000001000+00000437+00000+0001T   00000437+0000001227          1400 AD5112               1BZ
231873000231873               231873               170213CC     1400+00000+CC0000007892+0000007892+000000000+000001105+0000008990+0000000007+I20000000000+0000008990+Z
231873001231873464-001701     231873006001023332691DOMINOES IVORY DBL-SIX 0000001000+00003507+00000+0001T   00003507+0000001228          1400 AD5785               1BZ
231873002231873464-008011     231873006003000137091GAME COMPENDIUM 5-IN-1 0000001000+00004385+00000+0001T   00004385+0000001228          1400 AD5785               1BZ
231874000231874               231874               170213CC     1400+00000+CC0000003146+0000003146+000000000+000000441+0000003580+0000000007+I20000000000+0000003580+Z
231874001231874566-001234     231874006003000217793STICKERS LASER ASSTD   0000001000+00001578+00000+0001T   00001578+0000001232          1400 AD5130               1BZ
231874002231874071-081091     231874006001151010287STAED/GENKEM ALL-STICK 0000001000+00001227+00000+0001T   00001227+0000001232          1400 AD5130               1BZ
231874003231874079-009700-M   231874006003000634101PAPER SIRIO A4 PINK COL0000001000+00000306+00000+0001T   00000306+0000001232          1400 AD5130               1BZ
231874004231874112-116038     231874006009681820246TCS CARRIER BAG MIDI   0000001000+00000035+00000+0001T   00000035+0000001232          1400 AD5090               1BZ
231875000231875               231875               170213CC     1400+00000+CC0000001575+0000001575+000000000+000000222+0000001790+0000000007+I20000000000+0000001790+Z
231875001231875903-000155     231875006009803374435SWT LOLLY I LUV U HEART0000003000+00000525+00000+0001T   00000525+0000001233          1400 AD5150               1BZ
231876000231876               231876               170213CC     1400+00000+CC0000000700+0000000700+000000000+000000098+0000000790+0000000008+I20000000000+0000000790+Z
231876001231876033-010721     231876006001023678669SAFETY-PINS 20PCE ASSTD0000001000+00000700+00000+0001T   00000700+0000001237          1400 AD5200               1BZ
231877000231877               231877               170213CC     1400+00000+CC0000007893+0000007893+000000000+000001106+0000008999+0000000000+I40000008999+0000000000+Z
231877001231877263-000418     231877006003000599103VEHICLE FIRE ENGINE SET0000001000+00007893+00000+0001T   00007893+0000001239          1400 AD5710               1BZ
231878000231878               231878               170213CC     1400+00000+CC0000021955+0000021955+000000000+000003075+0000025030+0000000000+I40000025030+0000000000+Z
231878001231878567-010395     231878006002242053466GENERIC AFRIKAANS READE0000003000+00002192+00000+0001T   00002192+0000001248          1400 AD5757               1BZ
231878002231878567-010394     231878006002242053459GENERIC AFRIKAANS READE0000003000+00002192+00000+0001T   00002192+0000001248          1400 AD5757               1BZ
231878003231878567-010393     231878006002242053442GENERIC AFRIKAANS READE0000004000+00002192+00000+0001T   00002192+0000001248          1400 AD5757               1BZ
231878004231878112-116038     231878006009681820246TCS CARRIER BAG MIDI   0000001000+00000035+00000+0001T   00000035+0000001248          1400 AD5090               1BZ
231879000231879               231879               170213CC     1400+00000+CC0000004431+0000004431+000000000+000000622+0000005050+0000000003+I20000000000+0000005050+Z
231879001231879077-000457     231879006003000285662G/BAG METALLIC JMB SOL 0000001000+00001753+00000+0001T   00001753+0000001250          1400 AD5112               1BZ
231879002231879018-000129     231879006001023403353MUG OCC. LOVE V-SHAPE  0000001000+00002630+00000+0001T   00002630+0000001250          1400 AD5515               1BZ
231879003231879112-116069     231879006009681820277TCS CARRIER BAG JUMBO  0000001000+00000048+00000+0001T   00000048+0000001250          1400 AD5090               1BZ
231880000231880               231880               170213CC     1400+00000+CC0000020825+0000020825+000000000+000002921+0000023746+0000000000+I40000023746+0000000000+Z
231880001231880368-000111     231880006001023780812PLUSH BEAR/DOG 29CM    0000001000+00012279+00000+0001T   00012279+0000001253          1400 AD5745               1BZ
231880002231880077-000304     231880006001023483232GIFT-BAG 25X32CM E/DAY 0000001000+00001490+00000+0001T   00001490+0000001253          1400 AD5112               1BZ
231880003231880077-000383     231880006003000247943GIFT-BAG 11X14CM S/COL 0000001000+00000788+00000+0001T   00000788+0000001253          1400 AD5112               1BZ
231880004231880903-000709     231880006002099007070SWT QUENCHERS FRUIT    0000001000+00001139+00000+0001T   00001139+0000001253          1400 AD5150               1BZ
231880005231880903-000087     231880006001704000161SWT SPECKLED-EGGS 50G  0000001000+00001139+00000+0001T   00001139+0000001253          1400 AD5150               1BZ
231880006231880903-000007     231880000028000688776SWT LAFFY TAFFY 23G    0000002000+00001139+00000+0001T   00001139+0000001253          1400 AD5150               1BZ
231880007231880903-000087     231880006001704000161SWT SPECKLED-EGGS 50G  0000001000+00001139+00000+0001T   00001139+0000001253          1400 AD5150               1BZ
231880008231880903-000155     231880006009803374435SWT LOLLY I LUV U HEART0000001000+00000525+00000+0001T   00000525+0000001253          1400 AD5150               1BZ
231880009231880112-116069     231880006009681820277TCS CARRIER BAG JUMBO  0000001000+00000048+00000+0001T   00000048+0000001253          1400 AD5090               1BZ
231881000231881               231881               170213CC     1400+00000+CC0000000876+0000000876+000000000+000000123+0000000990+0000000009+I20000000000+0000000990+Z
231881001231881078-000025     231881008887013700064SUPERGLUE 3g 1PCE CARD 0000001000+00000876+00000+0001T   00000876+0000001307          1400 CO6810               1BZ
231882000231882               231882               170213CC     1400+00000+CC0000016662+0000016662+000000000+000002333+0000018990+0000000005+I20000000000+0000018990+Z
231882001231882304-001603     231882006001023842435FLWR BRANCH DRIED 10PC 0000003000+00004385+00000+0001T   00004385+0000001310          1400 CO6510               1BZ
231882002231882304-001608     231882006001023842589F/BRANCH DRIED FLOWER  0000001000+00003507+00000+0001T   00003507+0000001310          1400 CO6510               1BZ
231883000231883               231883               170213CC     1400+00000+CC0000004469+0000004469+000000000+000000627+0000005096+0000000000+I40000005096+0000000000+Z
231883001231883903-000155     231883006009803374435SWT LOLLY I LUV U HEART0000001000+00000525+00000+0001T   00000525+0000001326          1400 AD5150               1BZ
231883002231883301-085004     231883006003000420469ORN LOVE PLAQUE 21X10CM0000001000+00003507+00000+0001T   00003946+0006471326          1400 AD5505               1BZ
231883003231883080-000133-A   231883006003000647019MINI VALENTINES CARD   0000001000+00000437+00000+0001T   00000437+0000001326          1400 AD5112               1BZ
231884000231884               231884               170213CC     1400+00000+CC0000001753+0000001753+000000000+000000246+0000001999+0000000000+I40000001999+0000000000+Z
231884001231884077-000239     231884006003000160419GIFT-RIBBON ROLL PEARL 0000001000+00001753+00000+0001T   00001753+0000001327          1400 AD5112               1BZ
231885000231885               231885               170213CC     1400+00000+CC0000001313+0000001313+000000000+000000185+0000001490+0000000008+I20000000000+0000001490+Z
231885001231885078-000025     231885008887013700064SUPERGLUE 3g 1PCE CARD 0000001000+00000876+00000+0001T   00000876+0000001328          1400 AD5810               1BZ
231885002231885007-000193     231885006009635831731BK JOTTER A4 72-PG F/M 0000001000+00000437+00000+0001T   00000437+0000001328          1400 AD5130               1BZ
231886000231886               231886               170213CC     1400+00000+CC0000001314+0000001314+000000000+000000184+0000001490+0000000008+I20000000000+0000001490+Z
231886001231886107-004105     231886006002923010504BUCKET 9L OPEN         0000001000+00001314+00000+0001T   00001314+0000001329          1400 AD5210               1BZ
231887000231887               231887               170213CC     1400+00000+CC0000003060+0000003060+000000000+000000430+0000003490+0000000000+I40000003490+0000000000+Z
231887001231887079-009700-D   231887006003000545711PAPER SIRIO A4 RED COL.0000002000+00000306+00000+0001T   00000306+0000001334          1400 AD5130               1BZ
231887002231887079-009700-A   231887006003000547746PAPER SIRIO A4 BLACK   0000002000+00000306+00000+0001T   00000306+0000001334          1400 AD5130               1BZ
231887003231887079-009700-C   231887006003000545636PAPER SIRIO A4 VIOLET  0000002000+00000306+00000+0001T   00000306+0000001334          1400 AD5130               1BZ
231887004231887079-009700-F   231887006003000545872PAPER SIRIO A4 TURQ COL0000002000+00000306+00000+0001T   00000306+0000001334          1400 AD5130               1BZ
231887005231887079-009700-M   231887006003000634101PAPER SIRIO A4 PINK COL0000002000+00000306+00000+0001T   00000306+0000001334          1400 AD5130               1BZ
231888000231888               231888               170213CC     1400+00000+CC0000001490+0000001490+000000000+000000209+0000001690+0000000009+I20000000000+0000001690+Z
231888001231888106-001100-B   231888006001023651693FRIDGE BOTTLE ASSORTED 0000001000+00001490+00000+0001T   00001490+0000001336          1400 AD5210               1BZ
231889000231889               231889               170213CC     1400+00000+CC0000008011+0000008011+000000000+000001123+0000009130+0000000004+I20000000000+0000009130+Z
231889001231889903-000087     231889006001704000161SWT SPECKLED-EGGS 50G  0000002000+00001139+00000+0001T   00001139+0000001338          1400 AD5150               1BZ
231889002231889563-000318-D   231889006003000404001SERVIETTES 33cm BLUE   0000001000+00002192+00000+0001T   00002192+0000001338          1400 AD5214               1BZ
231889003231889563-000318-L   231889006003000407088SERVIETTES 33cm RED    0000001000+00002192+00000+0001T   00002192+0000001338          1400 AD5214               1BZ
231889004231889563-000317-B   231889006001023776174SERVIETTES PLN WHT PK400000001000+00001314+00000+0001T   00001314+0000001338          1400 AD5214               1BZ
231889005231889112-116038     231889006009681820246TCS CARRIER BAG MIDI   0000001000+00000035+00000+0001T   00000035+0000001338          1400 AD5090               1BZ
231890000231890               231890               170213CC     1400+00000+CC0000003507+0000003507+000000000+000000491+0000003990+0000000008+I20000000000+0000003990+Z
231890001231890031-000002-A   231890006003000247103P/FRAME LOVE 7.5X7.5CM 0000001000+00003507+00000+0001T   00003507+0000001342          1400 AD5510               1BZ
231891000231891               231891               170213CC     1400+00000+CC0000001138+0000001138+000000000+000000160+0000001290+0000000008+I20000000000+0000001290+Z
231891001231891077-000311     231891006001023608666GIFT-BAG 11X14CM GLOSS 0000001000+00000613+00000+0001T   00000613+0000001349          1400 AD5112               1BZ
231891002231891903-000155     231891006009803374435SWT LOLLY I LUV U HEART0000001000+00000525+00000+0001T   00000525+0000001349          1400 AD5150               1BZ
231892000231892               231892               170213CC     1400+00000+CC0000000437+0000000437+000000000+000000062+0000000490+0000000009+I20000000000+0000000490+Z
231892001231892080-000133-A   231892006003000647019MINI VALENTINES CARD   0000001000+00000437+00000+0001T   00000437+0000001349          1400 AD5112               1BZ
231893000231893               231893               170213CC     1400+00000+CC0000007928+0000007928+000000000+000001111+0000009030+0000000009+I20000000000+0000009030+Z
231893001231893264-000925-350 231893006003000595389BURAGO 1:43 FERRARI    0000001000+00007893+00000+0001T   00007893+0000001351          1400 AD5710               1BZ
231893002231893112-116038     231893006009681820246TCS CARRIER BAG MIDI   0000001000+00000035+00000+0001T   00000035+0000001351          1400 AD5090               1BZ
231894000231894               231894               170213CC     1400+00000+CC0000011445+0000011445+000000000+000001605+0000013050+0000000000+I40000013050+0000000000+Z
231894001231894080-000139     231894006003000611690CARD & ENV MINI SET 6PC0000002000+00002192+00000+0001T   00002192+0000001401          1400 AD5112               1BZ
231894002231894080-000133-A   231894006003000647019MINI VALENTINES CARD   0000002000+00000437+00000+0001T   00000437+0000001401          1400 AD5112               1BZ
231894003231894007-000890-17  231894006003000645671CALENDAR 2017 ASSTD    0000001000+00006139+00000+0001T   00006139+0000001401          1400 AD5130               1BZ
231894004231894112-116069     231894006009681820277TCS CARRIER BAG JUMBO  0000001000+00000048+00000+0001T   00000048+0000001401          1400 AD5090               1BZ
231895000231895               231895               170213CC     1400+00000+CC0000012799+0000012799+000000000+000001794+0000014593+0000000000+I40000014593+0000000000+Z
231895001231895903-000120     231895006002099001665SWEET GS ZILLIONS 50g  0000002000+00000700+00000+0001T   00000700+0000001405          1400 AD5150               1BZ
231895002231895206-000620     231895006003000631797BACK SCRATCHER EXTEND  0000001000+00002630+00000+0001T   00002630+0000001405          1400 AD5321               1BZ
231895003231895174-000305     231895006003000105502TRAVEL NECK-PILLOW     0000001000+00007016+00000+0001T   00007016+0000001405          1400 AD5205               1BZ
231895004231895077-000454     231895006003000285266G/BAG METALLIC LRG EMB 0000001000+00001753+00000+0001T   00001753+0000001405          1400 AD5112               1BZ
231896000231896               231896               170213CC     1400+00000+CC0000010998+0000010998+000000000+000001540+0000012530+0000000008+I20000000000+0000012530+Z
231896001231896112-116038     231896006009681820246TCS CARRIER BAG MIDI   0000001000+00000035+00000+0001T   00000035+0000001411          1400 AD5090               1BZ
231896002231896563-000318-L   231896006003000407088SERVIETTES 33cm RED    0000001000+00002192+00000+0001T   00002192+0000001411          1400 AD5214               1BZ
231896003231896039-000799     231896006001023692382CANDLES TEALITE 100PCE 0000001000+00008771+00000+0001T   00008771+0000001411          1400 AD5510               1BZ
231897000231897               231897               170213CC     1400+00000+CC0000009294+0000009294+000000000+000001303+0000010597+0000000000+I40000010597+0000000000+Z
231897001231897077-000316     231897006001023609731GIFT-BAG 25X32CM MATT  0000001000+00001753+00000+0001T   00001753+0000001412          1400 AD5112               1BZ
231897002231897106-009000     2318970060030006674062L DISPENSER+4-TUMBLERS0000001000+00007016+00000+0001T   00007016+0000001412          1400 AD5210               1BZ
231897003231897903-000155     231897006009803374435SWT LOLLY I LUV U HEART0000001000+00000525+00000+0001T   00000525+0000001412          1400 AD5150               1BZ
231898000231898               231898               170213CC     1400+00000+CC0000006137+0000006137+000000000+000000860+0000006997+0000000000+I40000006997+0000000000+Z
231898001231898263-000177     231898006001023826824RACER PULL BACK        0000001000+00003507+00000+0001T   00003507+0000001413          1400 AD5710               1BZ
231898002231898261-000032     231898006003000549771GUN W/SUCTION DARTS    0000001000+00002630+00000+0001T   00002630+0000001413          1400 AD5710               1BZ
231899000231899               231899               170213CC     1400+00000+CC0000003539+0000003539+000000000+000000497+0000004030+0000000006+I20000000000+0000004030+Z
231899001231899077-000011-F   231899006001023808431TISSUE-WRAP BLUE/LILAC 0000001000+00000876+00000+0001T   00000876+0000001414          1400 AD5112               1BZ
231899002231899077-000011-R   231899006001023808462P/TISSUE DARK 10-SHEETS0000003000+00000876+00000+0001T   00000876+0000001414          1400 AD5112               1BZ
231899003231899112-116038     231899006009681820246TCS CARRIER BAG MIDI   0000001000+00000035+00000+0001T   00000035+0000001414          1400 AD5090               1BZ
231900000231900               231900               170213CC     1400+00000+CC0000001578+0000001578+000000000+000000221+0000001790+0000000009+I20000000000+0000001790+Z
231900001231900077-000303     231900006001023593757GIFT-BAG PAPER MED     0000001000+00001578+00000+0001T   00001578+0000001420          1400 AD5112               1BZ
231901000231901               231901               170213CC     1400+00000+CC0000000876+0000000876+000000000+000000123+0000000990+0000000009+I20000000000+0000000990+Z
231901001231901306-000021-A   231901006001023891358EARBUDS COTTON 100PCE  0000001000+00000876+00000+0001T   00000876+0000001423          1400 AD5200               1BZ
231902000231902               231902               170213CC     1400+00000+CC0000003189+0000003189+000000000+000000447+0000003636+0000000000+I40000003636+0000000000+Z
231902001231902018-000127     231902006001023380289MUG OCC STRAIGHT LOVE  0000001000+00001578+00000+0001T   00001753+0006471425          1400 AD5515               1BZ
231902002231902031-000878-A   231902006001023798985P/FRAME 10x15cm PL-SLID0000001000+00000876+00000+0001T   00000876+0000001425          1400 AD5510               1BZ
231902003231902564-000012     231902006001023130075BUBBLE BOTTLE MAGIC    0000001000+00000700+00000+0001T   00000700+0000001425          1400 AD5131               1BZ
231902004231902112-116038     231902006009681820246TCS CARRIER BAG MIDI   0000001000+00000035+00000+0001T   00000035+0000001425          1400 AD5090               1BZ
231903000231903               231903               170213CC     1400+00000+CC0000038681+0000038681+000000000+000005420+0000044101+0000000000+I40000044101+0000000000+Z
231903001231903159-000216     231903006001023195371SHOWER-CURTAIN 183cm   0000002000+00004385+00000+0001T   00004385+0000001430          1400 AD5200               1BZ
231903002231903466-000589     231903006003000027538THROWING RINGSx5 SET   0000001000+00005262+00000+0001T   00005262+0000001430          1400 AD5785               1BZ
231903003231903065-006041     231903006001023712974TAMBOURINE 15cm P/BAND 0000001000+00001753+00000+0001T   00001753+0000001430          1400 AD5745               1BZ
231903004231903065-006042     231903006001023712998MARACAS 2PCE CHA-CHA   0000001000+00001753+00000+0001T   00001753+0000001430          1400 AD5745               1BZ
231903005231903562-088356     231903006001023767219EVA MAT 27cm           0000001000+00006139+00000+0001T   00006139+0000001430          1400 AD5755               1BZ
231903006231903369-000200     231903006001023856982BABY EDU CUP STACKING  0000001000+00002630+00000+0001T   00002630+0000001430          1400 AD5745               1BZ
231903007231903267-000410     231903005011874004624PUZZLE 4-IN-1 MINI ASST0000001000+00007016+00000+0001T   00007016+0000001430          1400 AD5755               1BZ
231903008231903464-000665     231903006001023751980GAME BOWLING 17cm      0000001000+00005262+00000+0001T   00005262+0000001430          1400 AD5785               1BZ
231903009231903112-116069     231903006009681820277TCS CARRIER BAG JUMBO  0000002000+00000048+00000+0001T   00000048+0000001430          1400 AD5090               1BZ
231904000231904               231904               170213CC     1400+00000+CC0000001839+0000001839+000000000+000000258+0000002090+0000000007+I20000000000+0000002090+Z
231904001231904006-001000     231904006003000093779HELIUM BALLOON FILL    0000003000+00000613+00000+0001T   00000613+0000001451          1400 CO6131               1BZ
231905000231905               231905               170213CC     1400+00000+CC0000001613+0000001613+000000000+000000226+0000001830+0000000009+I20000000000+0000001830+Z
231905001231905018-000127     231905006001023380289MUG OCC STRAIGHT LOVE  0000001000+00001578+00000+0001T   00001753+0006471455          1400 CO6515               1BZ
231905002231905112-116038     231905006009681820246TCS CARRIER BAG MIDI   0000001000+00000035+00000+0001T   00000035+0000001455          1400 CO6090               1BZ
231906000231906               231906               170213CC     1400+00000+CC0000006083+0000006083+000000000+000000854+0000006937+0000000000+I40000006937+0000000000+Z
231906001231906106-001118     231906006009654960320WATER BOTTLE PL 500ml  0000003000+00002016+00000+0001T   00002016+0000001456          1400 CO6210               1BZ
231906002231906112-116038     231906006009681820246TCS CARRIER BAG MIDI   0000001000+00000035+00000+0001T   00000035+0000001456          1400 CO6090               1BZ
231907000231907               231907               170213CC     1400+00000+CC0000001489+0000001489+000000000+000000209+0000001690+0000000008+I20000000000+0000001690+Z
231907001231907903-000843     231907008693029031067SWT GUMMY JELAXY 80G   0000001000+00000964+00000+0001T   00000964+0000001457          1400 CO6150               1BZ
231907002231907903-000155     231907006009803374435SWT LOLLY I LUV U HEART0000001000+00000525+00000+0001T   00000525+0000001457          1400 CO6150               1BZ
231908000231908               231908               170213CC     1400+00000+CC0000006223+0000006223+000000000+000000872+0000007090+0000000005+I20000000000+0000007090+Z
231908001231908077-000303     231908006001023593757GIFT-BAG PAPER MED     0000001000+00001578+00000+0001T   00001578+0000001501          1400 CO6112               1BZ
231908002231908018-000127     231908006001023380289MUG OCC STRAIGHT LOVE  0000001000+00001578+00000+0001T   00001753+0006471501          1400 CO6515               1BZ
231908003231908089-000030     231908006003000575671K/CHAIN LOVE MTL ASSTD 0000001000+00001753+00000+0001T   00001753+0000001501          1400 CO6205               1BZ
231908004231908030-000010     231908006003000084395P/DOOR HANGER 2-ASSTD  0000001000+00001314+00000+0001T   00001490+0008181501          1400 CO6505               1BZ
231909000231909               231909               170213CC     1400+00000+CC0000013712+0000013712+000000000+000001923+0000015635+0000000000+I40000015635+0000000000+Z
231909001231909024-000124     231909006001023466549N/STICK MINI S/FORM 2PC0000001000+00010525+00000+0001T   00010525+0000001503          1400 CO6300               1BZ
231909002231909112-116038     231909006009681820246TCS CARRIER BAG MIDI   0000001000+00000035+00000+0001T   00000035+0000001503          1400 CO6090               1BZ
231909003231909903-000119     231909006001704007337SWT COCONUT-WHEEL      0000004000+00000788+00000+0001T   00000788+0000001503          1400 CO6150               1BZ
231910000231910               231910               170213CC     1400+00000+CC0000001753+0000001753+000000000+000000246+0000001990+0000000009+I20000000000+0000001990+Z
231910001231910077-000455     231910006003000285389G/BAG METALLIC LRG SOL 0000001000+00001753+00000+0001T   00001753+0000001508          1400 CO6112               1BZ
231911000231911               231911               170213CC     1400+00000+CC0000002677+0000002677+000000000+000000376+0000003050+0000000003+I20000000000+0000003050+Z
231911001231911077-000011-L   231911006001023808585P/TISSUE BRIGHT 10SHEET0000001000+00000876+00000+0001T   00000876+0000001535          1400 AD5112               1BZ
231911002231911077-000299-A   231911006003000670888GIFT-BAG PAPER JMB LOVE0000001000+00001753+00000+0001T   00001753+0000001535          1400 AD5112               1BZ
231911003231911112-116069     231911006009681820277TCS CARRIER BAG JUMBO  0000001000+00000048+00000+0001T   00000048+0000001535          1400 AD5090               1BZ
231912000231912               231912               170213CC     1400+00000+CC0000001349+0000001349+000000000+000000189+0000001530+0000000008+I20000000000+0000001530+Z
231912001231912077-000312     231912006001023608697GIFT-BAG 10X35CM GLOSS 0000001000+00001314+00000+0001T   00001314+0000001537          1400 AD5112               1BZ
231912002231912112-116038     231912006009681820246TCS CARRIER BAG MIDI   0000001000+00000035+00000+0001T   00000035+0000001537          1400 AD5090               1BZ
231913000231913               231913               170213CC     1400+00000+CC0000000876+0000000876+000000000+000000123+0000000990+0000000009+I20000000000+0000000990+Z
231913001231913077-000302     231913008010410010195GIFT-BAG 18X23CM E/D   0000001000+00000876+00000+0001T   00000876+0000001538          1400 AD5112               1BZ
231914000231914               231914               170213CC     1400+00000+CC0000000035+0000000035+000000000+000000005+0000000040+0000000000+I20000000000+0000000040+Z
231914001231914112-116038     231914006009681820246TCS CARRIER BAG MIDI   0000001000+00000035+00000+0001T   00000035+0000001539          1400 AD5090               1BZ
231915000231915               231915               170213CC     1400+00000+CC0000001753+0000001753+000000000+000000246+0000001990+0000000009+I20000000000+0000001990+Z
231915002231915077-000457     231915006003000285662G/BAG METALLIC JMB SOL 0000001000+00001753+00000+0001T   00001753+0000001542          1400 AD5112               1BZ
231916000231916               231916               170213CC     1400+00000+CC0000005297+0000005297+000000000+000000742+0000006030+0000000009+I20000000000+0000006030+Z
231916001231916562-000199     231916006001023732910PUSH-IN BOARD WDN ASSTD0000001000+00005262+00000+0001T   00005262+0000001548          1400 AD5755               1BZ
231916002231916112-116038     231916006009681820246TCS CARRIER BAG MIDI   0000001000+00000035+00000+0001T   00000035+0000001548          1400 AD5090               1BZ
231917000231917               231917               170213CC     1400+00000+CC0000000876+0000000876+000000000+000000123+0000000990+0000000009+I20000000000+0000000990+Z
231917001231917077-000011-D   231917006001023808554TISSUE-WRAP WHITE 10PCE0000001000+00000876+00000+0001T   00000876+0000001551          1400 AD5112               1BZ
231918000231918               231918               170213CC     1400+00000+CC0000002150+0000002150+000000000+000000303+0000002453+0000000000+I40000002453+0000000000+Z
231918001231918079-009702-E   231918008427973059439PAPER SIRIO A2 BLUE    0000002000+00001051+00000+0001T   00001051+0000001612          1400 AD5130               1BZ
231918002231918112-116069     231918006009681820277TCS CARRIER BAG JUMBO  0000001000+00000048+00000+0001T   00000048+0000001612          1400 AD5090               1BZ
231919000231919               231919               170213CC     1400+00000+CC0000001314+0000001314+000000000+000000184+0000001490+0000000008+I20000000000+0000001490+Z
231919001231919077-000310     231919006001023608635GIFT-BAG 18X23CM GLOSS 0000001000+00001314+00000+0001T   00001314+0000001612          1400 AD5112               1BZ
231920000231920               231920               170213CC     1400+00000+CC0000003243+0000003243+000000000+000000455+0000003690+0000000008+I20000000000+0000003690+Z
231920001231920366-000302     231920006001023903013DRESSUP DEVIL/MOUSE    0000001000+00002192+00000+0001T   00002192+0000001613          1400 AD5131               1BZ
231920002231920079-009702-A   231920008427973059408PAPER SIRIO A2 BLACK   0000001000+00001051+00000+0001T   00001051+0000001613          1400 AD5130               1BZ
231921000231921               231921               170213CC     1400+00000+CC0000002192+0000002192+000000000+000000307+0000002490+0000000009+I20000000000+0000002490+Z
231921001231921071-001017     231921006001023892676MARKER DVD FINE+MED 3PC0000001000+00002192+00000+0001T   00002192+0000001614          1400 AD5130               1BZ
231922000231922               231922               170213CC     1400+00000+CC0000001578+0000001578+000000000+000000221+0000001790+0000000009+I20000000000+0000001790+Z
231922001231922077-000303     231922006001023593757GIFT-BAG PAPER MED     0000001000+00001578+00000+0001T   00001578+0000001625          1400 AD5112               1BZ
231923000231923               231923               170213CC     1400+00000+CC0000004822+0000004822+000000000+000000676+0000005498+0000000000+I40000005498+0000000000+Z
231923001231923077-000270     231923006003000395453GIFT-BAG PPR JMB 33X45 0000001000+00002630+00000+0001T   00002630+0000001652          1400 CO6112               1BZ
231923002231923018-000170     231923006001023775528MUG OCC. LOVE 2PC MINI 0000001000+00002192+00000+0001T   00002192+0000001652          1400 CO6515               1BZ
231924000231924               231924               170213CC     1400+00000+CC0000007014+0000007014+000000000+000000982+0000007990+0000000006+I20000000000+0000007990+Z
231924001231924028-002101     231924006002580009507CHAIR JUNIOR    ASSTD  0000002000+00003507+00000+0001T   00003507+0000001652          1400 CO6305               1BZ
231925000231925               231925               170213CC     1400+00000+CC0000001753+0000001753+000000000+000000246+0000001990+0000000009+I20000000000+0000001990+Z
231925001231925077-000290     231925006001023902023GIFT BOX 26x32x13cm    0000001000+00001753+00000+0001T   00001753+0000001711          1400 AD5112               1BZ
231926000231926               231926               170213CC     1400+00000+CC0000008806+0000008806+000000000+000001233+0000010039+0000000000+I40000010039+0000000000+Z
231926001231926368-000614     231926006001023705808PLUSH LOVE 30cm        0000001000+00008771+00000+0001T   00008771+0000001712          1400 AD5745               1BZ
231926002231926112-116038     231926006009681820246TCS CARRIER BAG MIDI   0000001000+00000035+00000+0001T   00000035+0000001712          1400 AD5090               1BZ
231927000231927               231927               170213CC     1400+00000+CC0000001576+0000001576+000000000+000000221+0000001790+0000000007+I20000000000+0000001790+Z
231927001231927077-000314     231927006003000181148GIFT-BAG 11X14CM MATT  0000001000+00000876+00000+0001T   00000876+0000001713          1400 AD5112               1BZ
231927002231927566-002000     231927000721129013206STICKERS CRYSTAL ASSTD 0000001000+00000700+00000+0001T   00000700+0000001713          1400 AD5130               1BZ
231928000231928               231928               170213CC     1400+00000+CC0000003507+0000003507+000000000+000000491+0000003998+0000000000+I40000003998+0000000000+Z
231928001231928263-000498     231928006003000473021TRUCK 20cm+TRAILER+CAR 0000001000+00003507+00000+0001T   00003507+0000001728          1400 AD5710               1BZ
231929000231929               231929               170213CC     1400+00000+CC0000001490+0000001490+000000000+000000209+0000001690+0000000009+I20000000000+0000001690+Z
231929001231929006-000096     231929006003000610969BANNER CELEBRATION     0000001000+00001490+00000+0001T   00001490+0000001729          1400 AD5131               1BZ
231930000231930               231930               170213CC     1400+00000+CC0000003068+0000003068+000000000+000000430+0000003490+0000000008+I20000000000+0000003490+Z
231930001231930077-000011-D   231930006001023808554TISSUE-WRAP WHITE 10PCE0000001000+00000876+00000+0001T   00000876+0000001731          1400 AD5112               1BZ
231930002231930077-000309-A   231930006003000671007GIFT-BAG HOLOGRAM JMB  0000001000+00002192+00000+0001T   00002192+0000001731          1400 AD5112               1BZ
231931000231931               231931               170213CC     1400+00000+CC0000011398+0000011398+000000000+000001598+0000012996+0000000000+I40000012996+0000000000+Z
231931001231931072-020366     231931006003000452927PET PLACE MAT ASSTD COL0000001000+00002630+00000+0001T   00002630+0000001734          1400 AD5870               1BZ
231931002231931301-086007     231931006003000426706ORN OCC DAD WDN LETTERS0000001000+00004385+00000+0001T   00004385+0000001734          1400 AD5505               1BZ
231931003231931206-000590     231931006003000633708BAG CLIPS LIPS 2PC     0000001000+00001753+00000+0001T   00001753+0000001734          1400 AD5321               1BZ
231931004231931206-000620     231931006003000631797BACK SCRATCHER EXTEND  0000001000+00002630+00000+0001T   00002630+0000001734          1400 AD5321               1BZ
231932000231932               231932               170213CC     1400+00000+CC0000003507+0000003507+000000000+000000491+0000003990+0000000008+I20000000000+0000003990+Z
231932001231932018-005009     231932006001023725608MUG W/PLUSH-BEAR LOVE  0000001000+00003507+00000+0001T   00003507+0000001734          1400 AD5515               1BZ
231933000231933               231933               170213CC     1400+00000+CC0000000437+0000000437+000000000+000000062+0000000490+0000000009+I20000000000+0000000490+Z
231933001231933080-000133-A   231933006003000647019MINI VALENTINES CARD   0000001000+00000437+00000+0001T   00000437+0000001735          1400 AD5112               1BZ
231934000231934               231934               170213CC     1400+00000+CC0000007049+0000007049+000000000+000000987+0000008030+0000000006+I20000000000+0000008030+Z
231934001231934018-000136     231934006001023659026MUG OCC LOVE W/PLUSH   0000001000+00003507+00000+0001T   00003507+0000001736          1400 AD5515               1BZ
231934002231934018-005009     231934006001023725608MUG W/PLUSH-BEAR LOVE  0000001000+00003507+00000+0001T   00003507+0000001736          1400 AD5515               1BZ
231934003231934112-116038     231934006009681820246TCS CARRIER BAG MIDI   0000001000+00000035+00000+0001T   00000035+0000001736          1400 AD5090               1BZ
231935000231935               231935               170213CC     1400+00000+CC0000001349+0000001349+000000000+000000189+0000001530+0000000008+I20000000000+0000001530+Z
231935001231935077-000470     231935006003000330171G-BAG DESGN SML 11X14CM0000001000+00001314+00000+0001T   00001314+0000001737          1400 AD5112               1BZ
231935002231935112-116038     231935006009681820246TCS CARRIER BAG MIDI   0000001000+00000035+00000+0001T   00000035+0000001737          1400 AD5090               1BZ
231936000231936               231936               170213CC     1400+00000+CC0000002192+0000002192+000000000+000000307+0000002490+0000000009+I20000000000+0000002490+Z
231936001231936080-000127     231936006003000424351VALENTINES DAY 36x24CM 0000001000+00002192+00000+0001T   00002192+0000001741          1400 AD5112               1BZ
231937000231937               231937               170213CC     1400+00000+CC0000005259+0000005259+000000000+000000738+0000005997+0000000000+I40000005997+0000000000+Z
231937001231937077-000290     231937006001023902023GIFT BOX 26x32x13cm    0000001000+00001753+00000+0001T   00001753+0000001743          1400 AD5112               1BZ
231937002231937306-000989     231937006003000559954FIRSTAID PLASTER 30PC  0000001000+00001753+00000+0001T   00001753+0000001743          1400 AD5200               1BZ
231937003231937079-000275     231937006003000160488PAINT-BRUSHES 6PCE PRO 0000001000+00001753+00000+0001T   00001753+0000001743          1400 AD5130               1BZ
231938000231938               231938               170213CC     1400+00000+CC0000002629+0000002629+000000000+000000369+0000002990+0000000008+I20000000000+0000002990+Z
231938001231938077-000452     231938006003000284986G/BAG METALLIC MED EMB 0000001000+00001490+00000+0001T   00001490+0000001804          1400 AD5112               1BZ
231938002231938903-000087     231938006001704000161SWT SPECKLED-EGGS 50G  0000001000+00001139+00000+0001T   00001139+0000001804          1400 AD5150               1BZ
231939000231939               231939               170213CC     1400+00000+CC0000000700+0000000700+000000000+000000098+0000000790+0000000008+I20000000000+0000000790+Z
231939001231939903-000915     231939000662572302670SWT STICK/TATT HELLO   0000001000+00000700+00000+0001T   00000700+0000001804          1400 AD5150               1BZ
231940000231940               231940               170213CC     1400+00000+CC0000000876+0000000876+000000000+000000123+0000000990+0000000009+I20000000000+0000000990+Z
231940001231940077-000151     231940006008766114676GIFT-WRAP C/PHANE ASSTD0000001000+00000876+00000+0001T   00000876+0000001805          1400 AD5112               1BZ
231941000231941               231941               170213CC     1400+00000+CC0000001314+0000001314+000000000+000000184+0000001490+0000000008+I20000000000+0000001490+Z
231941001231941077-000310     231941006001023608635GIFT-BAG 18X23CM GLOSS 0000001000+00001314+00000+0001T   00001314+0000001806          1400 AD5112               1BZ
231942000231942               231942               170213CC     1400+00000+CC0000007060+0000007060+000000000+000000990+0000008050+0000000000+I20000000000+0000008050+Z
231942001231942077-000302     231942008010410010195GIFT-BAG 18X23CM E/D   0000001000+00000876+00000+0001T   00000876+0000001808          1400 AD5112               1BZ
231942002231942071-005213     231942006001023690371CELLOTAPE 12mmx33m     0000001000+00000876+00000+0001T   00000876+0000001808          1400 AD5130               1BZ
231942003231942267-000311     231942006003000610730PUZZLE WOOD TRAY ASSTD 0000001000+00003507+00000+0001T   00003507+0000001808          1400 AD5755               1BZ
231942004231942077-000115     231942006001023834225WRAP METALLIC 700mmx1m 0000001000+00001753+00000+0001T   00001753+0000001808          1400 AD5112               1BZ
231942005231942112-116069     231942006009681820277TCS CARRIER BAG JUMBO  0000001000+00000048+00000+0001T   00000048+0000001808          1400 AD5090               1BZ
231943000231943               231943               170213CC     1400+00000+CC0000001490+0000001490+000000000+000000209+0000001690+0000000009+I20000000000+0000001690+Z
231943001231943077-000299     231943006003000395576G/BAG 32x25cm LRG LOVE 0000001000+00001490+00000+0001T   00001490+0000001809          1400 AD5112               1BZ
231944000231944               231944               170213CC     1400+00000+CC0000001490+0000001490+000000000+000000209+0000001690+0000000009+I20000000000+0000001690+Z
231944001231944077-000299     231944006003000395576G/BAG 32x25cm LRG LOVE 0000001000+00001490+00000+0001T   00001490+0000001809          1400 AD5112               1BZ
231945000231945               231945               170213CC     1400+00000+CC0000001753+0000001753+000000000+000000246+0000001990+0000000009+I20000000000+0000001990+Z
231945001231945077-000299-A   231945006003000670888GIFT-BAG PAPER JMB LOVE0000001000+00001753+00000+0001T   00001753+0000001810          1400 AD5112               1BZ
231946000231946               231946               170213CC     1400+00000+CC0000008364+0000008364+000000000+000001172+0000009536+0000000000+I40000009536+0000000000+Z
231946001231946077-000310     231946006001023608635GIFT-BAG 18X23CM GLOSS 0000001000+00001314+00000+0001T   00001314+0000001817          1400 AD5112               1BZ
231946002231946077-000011-Y   231946006001023809858TISSUE-WRAP GOLD 10PCE 0000001000+00001753+00000+0001T   00001753+0000001817          1400 AD5112               1BZ
231946003231946018-019000     231946006003000557288MUG OCC. LOVE JUMBO    0000001000+00005262+00000+0001T   00005262+0000001817          1400 AD5515               1BZ
231946004231946112-116038     231946006009681820246TCS CARRIER BAG MIDI   0000001000+00000035+00000+0001T   00000035+0000001817          1400 AD5090               1BZ
231947000231947               231947               170213CC     1400+00000+CC0000002630+0000002630+000000000+000000369+0000002990+0000000009+I20000000000+0000002990+Z
231947001231947016-006710     231947006003000674725S/JAR GLS RHEA 425ml   0000001000+00002630+00000+0001T   00002630+0000001818          1400 AD5300               1BZ
231948000231948               231948               170213CC     1400+00000+CC0000004855+0000004855+000000000+000000682+0000005537+0000000000+I40000005537+0000000000+Z
231948001231948039-001023     231948006003000466337CANDLE TEA-LITE METALIC0000001000+00001753+00000+0001T   00001753+0000001821          1400 AD5510               1BZ
231948002231948016-006425     231948006001023998170S/JAR GLS CLIP W/RIBBON0000001000+00002630+00000+0001T   00002630+0000001821          1400 AD5300               1BZ
231948003231948112-116038     231948006009681820246TCS CARRIER BAG MIDI   0000001000+00000035+00000+0001T   00000035+0000001821          1400 AD5090               1BZ
231948004231948080-000133-A   231948006003000647019MINI VALENTINES CARD   0000001000+00000437+00000+0001T   00000437+0000001821          1400 AD5112               1BZ
231949000231949               231949               170213CC     1400+00000+CC0000000876+0000000876+000000000+000000123+0000000990+0000000009+I20000000000+0000000990+Z
231949001231949077-000011-F   231949006001023808431TISSUE-WRAP BLUE/LILAC 0000001000+00000876+00000+0001T   00000876+0000001823          1400 AD5112               1BZ
B23185200                                          170213CC082-026204     10580776SLAVE 1     AD51IC0000030000+0000002000+0000000000000+
B23185201                                          170213CC082-026204     10581868SLAVE 1     AD51IC0000002000+0000001000+0000000000000+
C23182900                                          170213CC077-000916     09345593SLAVE 1     AD52IC0000000000+0000000000+0010000001000+
C23191500                                          170213CC077-000456     15422429SLAVE 1     AD51IC0000000000+0000000000+0010000001000+
M17021391                              CASH        CCSLAVE 1                       Z-REPORT No.   658TOTAL (Sales - Refunds)           6540.58       CASH TO BE BANKED                 2794.00       DEBIT CARDS                          0.00       CREDIT CARDS                      3746.68       Z-READING                         6540.58       AIRTIME DEBIT CARD SALES             0.00       AIRTIME CARD SALES                   0.00       OVERS/UNDERS                         0.10       AIRTIME CASH SALES                   0.00       GIFT CARDS                           0.00       GIFT CARD CASH SALES                 0.00       T O T A L  CASH PAYOUTS              0.00                                                                                                                                                                                                                                                                                                                                                      Z
M17021392                              CASH        CCABSENT                                                                                                                                                                                          ANNUAL LEAVE                                                                                                                                                                                    DAY OFF                                                                                                                                                                                         COMMENTS                                                                                                                                                                                                                                                                                                                                                                                       Z
Y17021300                                          CC00000000589137+000121
ZCC17021405513 SLAVE 1      SALES DATA                     NEXT INVOICE NO.  231950 0659
F094062496-028120         1701170917360000022ICSLAVE 1
F094090496-028122         1701170917460000022ICSLAVE 1
F094126463-000501         1701170917570000042ICSLAVE 1
F094821304-001011         1702101030500000221ICSLAVE 1
F094833022-002107         1702101030560000391ICSLAVE 1
X CC Slave 1 First invoice 231828 170213 Last invoice 231949 170213 Next invoice 231950 Total number of records 000000401 clbackup completed 05:51:45
