241270000241270               241270               170213CC     1400+00000+CC0000004383+0000004383+000000000+000000615+0000004990+0000000008+I20000000000+0000004990+Z
241270001241270072-000232     241270006003000236060DOG-COL REFLCTV 35-51cm0000001000+00001753+00000+0001T   00001753+0000001037          1400 LJ6870               2DZ
241270002241270072-020312     241270006003000605330PET TOY PUP STARTER PCK0000001000+00002630+00000+0001T   00002630+0000001037          1400 LJ6870               2DZ
241271000241271               241271               170213CC     1400+00000+CC0000031623+0000031623+000000000+000004429+0000036052+0000000000+I40000036052+0000000000+Z
241271001241271024-000136     241271006003000441525N/STICK SQUARE CUP-PAN 0000001000+00010525+00000+0001T   00010525+0000001059          1400 LJ6300               2DZ
241271002241271024-000115     241271006003000441402N/STICK 8-CUP LOAF PAN 0000001000+00011402+00000+0001T   00011402+0000001059          1400 LJ6300               2DZ
241271003241271024-000108     241271006001023422101MUFFIN-PAN 6-CUP  9x4cm0000001000+00009648+00000+0001T   00009648+0000001059          1400 LJ6300               2DZ
241271004241271112-116069     241271006009681820277TCS CARRIER BAG JUMBO  0000001000+00000048+00000+0001T   00000048+0000001059          1400 LJ6090               2DZ
241272000241272               241272               170213CC     1400+00000+CC0000001227+0000001227+000000000+000000172+0000001390+0000000009+I20000000000+0000001390+Z
241272001241272027-000082     241272006001023760258SCOURERS ROUND   PACK-60000001000+00001227+00000+0001T   00001227+0000001104          1400 LJ6212               2DZ
241273000241273               241273               170213CC     1400+00000+CC0000000876+0000000876+000000000+000000123+0000000990+0000000009+I20000000000+0000000990+Z
241273001241273047-000505     241273006009636901976PLUG-ADAPTOR 2-PIN     0000001000+00000876+00000+0001T   00000876+0000001111          1400 LJ6880               2DZ
241274000241274               241274               170213CC     1400+00000+CC0000004604+0000004604+000000000+000000646+0000005250+0000000000+I20000000000+0000005250+Z
241274001241274903-000155     241274006009803374435SWT LOLLY I LUV U HEART0000002000+00000525+00000+0001T   00000525+0000001134          1400 LJ6150               2DZ
241274002241274030-000010     241274006003000084395P/DOOR HANGER 2-ASSTD  0000001000+00001314+00000+0001T   00001490+0008181134          1400 LJ6505               2DZ
241274003241274080-000127     241274006003000424351VALENTINES DAY 36x24CM 0000001000+00002192+00000+0001T   00002192+0000001134          1400 LJ6112               2DZ
241274004241274112-116069     241274006009681820277TCS CARRIER BAG JUMBO  0000001000+00000048+00000+0001T   00000048+0000001134          1400 LJ6090               2DZ
241275000241275               241275               170213CC     1400+00000+CC0000000876+0000000876+000000000+000000123+0000000990+0000000009+I20000000000+0000000990+Z
241275001241275077-000302     241275008010410010195GIFT-BAG 18X23CM E/D   0000001000+00000876+00000+0001T   00000876+0000001134          1400 LJ6112               2DZ
241276000241276               241276               170213CC     1400+00000+CC0000001051+0000001051+000000000+000000148+0000001190+0000000009+I20000000000+0000001190+Z
241276001241276079-009702-D   241276008427973059354PAPER SIRIO A2 RED COL 0000001000+00001051+00000+0001T   00001051+0000001135          1400 LJ6130               2DZ
241277000241277               241277               170213CC     1400+00000+CC0000005259+0000005259+000000000+000000738+0000005990+0000000007+I20000000000+0000005990+Z
241277001241277036-000615     241277006003000218769WASH-PEGS PL PCK-24    0000003000+00001753+00000+0001T   00001753+0000001308          1400 LJ6212               2DZ
241278000241278               241278               170213CC     1400+00000+CC0000009411+0000009411+000000000+000001321+0000010732+0000000000+I40000010732+0000000000+Z
241278001241278200-000111     241278006003000676668PICNIC CUPS DOME 300ml 0000001000+00003507+00000+0001T   00003507+0000001322          1400 BK8214               2BZ
241278002241278903-000155     241278006009803374435SWT LOLLY I LUV U HEART0000004000+00000525+00000+0001T   00000525+0000001322          1400 BK8150               2BZ
241278003241278903-000087     241278006001704000161SWT SPECKLED-EGGS 50G  0000001000+00001139+00000+0001T   00001139+0000001322          1400 BK8150               2BZ
241278004241278024-091103-B   241278006003000422548CAKE BOX 6PC CUPCAKES  0000001000+00002630+00000+0001T   00002630+0000001322          1400 BK8300               2BZ
241278005241278112-116038     241278006009681820246TCS CARRIER BAG MIDI   0000001000+00000035+00000+0001T   00000035+0000001322          1400 BK8090               2BZ
241279000241279               241279               170213CC     1400+00000+CC0000003507+0000003507+000000000+000000491+0000003998+0000000000+I40000003998+0000000000+Z
241279001241279018-000136     241279006001023659026MUG OCC LOVE W/PLUSH   0000001000+00003507+00000+0001T   00003507+0000001341          1400 LJ6515               2DZ
241280000241280               241280               170213CC     1400+00000+CC0000004908+0000004908+000000000+000000689+0000005590+0000000007+I20000000000+0000005590+Z
241280001241280368-000100     241280006001023474742PLUSH MD BEAR 12cm     0000001000+00002630+00000+0001T   00002630+0000001342          1400 LJ6745               2DZ
241280002241280903-000155     241280006009803374435SWT LOLLY I LUV U HEART0000001000+00000525+00000+0001T   00000525+0000001342          1400 LJ6150               2DZ
241280003241280089-000027     241280006003000254071KEY CHAIN MOM/DAD ASSTD0000001000+00001753+00000+0001T   00001753+0000001342          1400 LJ6205               2DZ
241281000241281               241281               170213CC     1400+00000+CC0000002630+0000002630+000000000+000000369+0000002990+0000000009+I20000000000+0000002990+Z
241281001241281106-001106     241281006003000667475WATER BOTTLE 700ML     0000001000+00002630+00000+0001T   00002630+0000001343          1400 LJ6210               2DZ
241282000241282               241282               170213CC     1400+00000+CC0000006395+0000006395+000000000+000000898+0000007290+0000000003+I20000000000+0000007290+Z
241282001241282903-000123     241282006925925909280SWEET GS MINI MALLOWS  0000006000+00000876+00000+0001T   00000876+0000001414          1400 LJ6150               2DZ
241282002241282046-000014     241282006001023725387BATTERIES SIZE:AAA 4PCE0000001000+00001139+00000+0001T   00001139+0000001414          1400 LJ6312               2DZ
241283000241283               241283               170213CC     1400+00000+CC0000004432+0000004432+000000000+000000621+0000005053+0000000000+I40000005053+0000000000+Z
241283001241283080-000127     241283006003000424351VALENTINES DAY 36x24CM 0000002000+00002192+00000+0001T   00002192+0000001416          1400 LJ6112               2DZ
241283002241283112-116069     241283006009681820277TCS CARRIER BAG JUMBO  0000001000+00000048+00000+0001T   00000048+0000001416          1400 LJ6090               2DZ
241284000241284               241284               170213CC     1400+00000+CC0000002629+0000002629+000000000+000000369+0000002998+0000000000+I40000002998+0000000000+Z
241284001241284027-009030     241284006002814400100DUSTPAN PL             0000001000+00001402+00000+0001T   00001402+0000001427          1400 LJ6212               2DZ
241284002241284133-000030     241284006001023755414KITCHEN-SWAB 30cm ASSTD0000001000+00001227+00000+0001T   00001227+0000001427          1400 LJ6212               2DZ
241285000241285               241285               170213CC     1400+00000+CC0000007049+0000007049+000000000+000000987+0000008030+0000000006+I20000000000+0000008030+Z
241285001241285072-020266     241285006003000400591PET PUPPY TRAINING PAD 0000002000+00003507+00000+0001T   00003507+0000001431          1400 LJ6870               2DZ
241285002241285112-116038     241285006009681820246TCS CARRIER BAG MIDI   0000001000+00000035+00000+0001T   00000035+0000001431          1400 LJ6090               2DZ
241286000241286               241286               170213CC     1400+00000+CC0000001402+0000001402+000000000+000000197+0000001590+0000000009+I20000000000+0000001590+Z
241286001241286027-009030     241286006002814400100DUSTPAN PL             0000001000+00001402+00000+0001T   00001402+0000001433          1400 LJ6212               2DZ
241287000241287               241287               170213CC     1400+00000+CC0000003331+0000003331+000000000+000000467+0000003798+0000000000+I40000003798+0000000000+Z
241287001241287077-000454     241287006003000285266G/BAG METALLIC LRG EMB 0000001000+00001753+00000+0001T   00001753+0000001436          1400 LJ6112               2DZ
241287002241287080-000124     241287006003000297733CARD & ENV VALENTINES  0000001000+00001578+00000+0001T   00001578+0000001436          1400 LJ6112               2DZ
241288000241288               241288               170213CC     1400+00000+CC0000008804+0000008804+000000000+000001233+0000010030+0000000007+I20000000000+0000010030+Z
241288001241288366-000301     241288006003000421077DRESSUP TIARA & EARRING0000001000+00003507+00000+0001T   00003507+0000001440          1400 BK8131               2BZ
241288002241288362-001045     241288006001023843449MAKE-UP TEEN GIFT SET  0000001000+00005262+00000+0001T   00005262+0000001440          1400 BK8160               2BZ
241288003241288112-116038     241288006003000534906TCS CARRIER BAG MIDI   0000001000+00000035+00000+0001T   00000035+0000001440          1400 BK8090               2BZ
241289000241289               241289               170213CC     1400+00000+CC0000001490+0000001490+000000000+000000209+0000001690+0000000009+I20000000000+0000001690+Z
241289001241289006-000788     241289006001023990228CROWN HAPPY BIRTHDAY   0000001000+00001490+00000+0001T   00001490+0000001441          1400 BK8131               2BZ
241290000241290               241290               170213CC     1400+00000+CC0000001753+0000001753+000000000+000000246+0000001990+0000000009+I20000000000+0000001990+Z
241290001241290024-000214     241290006001023587855COOKIE-CUTTERS PL 6PC  0000001000+00001753+00000+0001T   00001753+0000001442          1400 BK8300               2BZ
241291000241291               241291               170213CC     1400+00000+CC0000000876+0000000876+000000000+000000123+0000000990+0000000009+I20000000000+0000000990+Z
241291001241291105-001010     241291006002580007329LUNCH-BOX 1L  ASSTD    0000001000+00000876+00000+0001T   00000876+0000001446          1400 BK8210               2BZ
241292000241292               241292               170213CC     1400+00000+CC0000003946+0000003946+000000000+000000553+0000004499+0000000000+I40000004499+0000000000+Z
241292001241292017-000251     241292006003000242689P/ALBUM 36-PHOTO PLAIN 0000001000+00003946+00000+0001T   00003946+0000001450          1400 BK8510               2BZ
241293000241293               241293               170213CC     1400+00000+CC0000008713+0000008713+000000000+000001221+0000009934+0000000000+I40000009934+0000000000+Z
241293001241293007-000602     241293006003000541270BOOK COVER 2M SOLID COL0000001000+00002630+00000+0001T   00002630+0000001453          1400 BK8130               2BZ
241293002241293080-000139     241293006003000611690CARD & ENV MINI SET 6PC0000001000+00002192+00000+0001T   00002192+0000001453          1400 BK8112               2BZ
241293003241293903-000843     241293008693029031067SWT GUMMY JELAXY 80G   0000004000+00000964+00000+0001T   00000964+0000001453          1400 BK8150               2BZ
241293004241293112-116038     241293006009681820246TCS CARRIER BAG MIDI   0000001000+00000035+00000+0001T   00000035+0000001453          1400 BK8090               2BZ
241294000241294               241294               170213CC     1400+00000+CC0000006169+0000006169+000000000+000000866+0000007030+0000000005+I20000000000+0000007030+Z
241294001241294368-000100     241294006001023474742PLUSH MD BEAR 12cm     0000001000+00002630+00000+0001T   00002630+0000001453          1400 BK8745               2BZ
241294002241294903-000843     241294008693029031067SWT GUMMY JELAXY 80G   0000002000+00000964+00000+0001T   00000964+0000001453          1400 BK8150               2BZ
241294003241294077-000383     241294006003000247943GIFT-BAG 11X14CM S/COL 0000002000+00000788+00000+0001T   00000788+0000001453          1400 BK8112               2BZ
241294004241294112-116038     241294006009681820246TCS CARRIER BAG MIDI   0000001000+00000035+00000+0001T   00000035+0000001453          1400 BK8090               2BZ
241295000241295               241295               170213CC     1400+00000+CC0000017581+0000017581+000000000+000002465+0000020046+0000000000+I40000020046+0000000000+Z
241295001241295200-000020     241295006925406841030BAG ZIPPERSEAL 25PC    0000001000+00002192+00000+0001T   00002192+0000001458          1400 BK8214               2BZ
241295002241295200-000025-A   241295006925406841054BAG ZIPPERSEAL 15PC    0000001000+00002192+00000+0001T   00002192+0000001458          1400 BK8214               2BZ
241295003241295563-000318-L   241295006003000407088SERVIETTES 33cm RED    0000001000+00002192+00000+0001T   00002192+0000001458          1400 BK8214               2BZ
241295004241295159-000040     241295006001023767691HOOK-HANGER 4PC S/S    0000001000+00002630+00000+0001T   00002630+0000001458          1400 BK8200               2BZ
241295005241295251-000001     241295006001023487681TAPE DBL-SIDE 18x1000mm0000001000+00001314+00000+0001T   00001314+0000001458          1400 BK8810               2BZ
241295006241295159-000040     241295006001023767691HOOK-HANGER 4PC S/S    0000001000+00002630+00000+0001T   00002630+0000001458          1400 BK8200               2BZ
241295007241295037-000004     241295006001023763679ASHTRAY PL TUB 8X11CM  0000001000+00001753+00000+0001T   00002192+0008191458          1400 BK8515               2BZ
241295008241295306-000977     241295006003000559596FIRSTAID PLASTER 75PC  0000001000+00002630+00000+0001T   00002630+0000001458          1400 BK8200               2BZ
241295009241295112-116069     241295006009681820277TCS CARRIER BAG JUMBO  0000001000+00000048+00000+0001T   00000048+0000001458          1400 BK8090               2BZ
241296000241296               241296               170213CC     1400+00000+CC0000013969+0000013969+000000000+000001958+0000015927+0000000000+I40000015927+0000000000+Z
241296001241296039-001023     241296006003000466337CANDLE TEA-LITE METALIC0000001000+00001753+00000+0001T   00001753+0000001500          1400 BK8510               2BZ
241296002241296039-000108     241296006001023524034TEA-LITE CANDLES 8PCE  0000002000+00001490+00000+0001T   00001490+0000001500          1400 BK8510               2BZ
241296003241296039-001023     241296006003000466337CANDLE TEA-LITE METALIC0000001000+00001753+00000+0001T   00001753+0000001500          1400 BK8510               2BZ
241296004241296006-000166-C   241296006003000516377BALLOONS LRG 6PC PINK  0000003000+00001314+00000+0001T   00001314+0000001500          1400 BK8131               2BZ
241296005241296006-000167-C   241296006003000516971BALLOONS PINK METALLIC 0000001000+00001314+00000+0001T   00001314+0000001500          1400 BK8131               2BZ
241296006241296563-000318-L   241296006003000407088SERVIETTES 33cm RED    0000001000+00002192+00000+0001T   00002192+0000001500          1400 BK8214               2BZ
241296007241296112-116038     241296006009681820246TCS CARRIER BAG MIDI   0000001000+00000035+00000+0001T   00000035+0000001500          1400 BK8090               2BZ
241297000241297               241297               170213CC     1400+00000+CC0000004385+0000004385+000000000+000000614+0000004990+0000000009+I20000000000+0000004990+Z
241297001241297082-000120     241297006003000360727READING GLS STRENGTH:3 0000001000+00004385+00000+0001T   00004385+0000001502          1400 LJ6160               2DZ
241298000241298               241298               170213CC     1400+00000+CC0000001490+0000001490+000000000+000000209+0000001690+0000000009+I20000000000+0000001690+Z
241298001241298077-000327     241298006001023677686GIFT-BAG 25X32CM E/D BA0000001000+00001490+00000+0001T   00001490+0000001502          1400 LJ6112               2DZ
241299000241299               241299               170213CC     1400+00000+CC0000005262+0000005262+000000000+000000737+0000005999+0000000000+I40000005999+0000000000+Z
241299001241299031-086301-B   241299006001023910219P/FRAME PL BRONZE 13X180000001000+00005262+00000+0001T   00005262+0000001504          1400 LJ6510               2DZ
241300000241300               241300               170213CC     1400+00000+CC0000005915+0000005915+000000000+000000832+0000006747+0000000000+I40000006747+0000000000+Z
241300001241300903-000155     241300006009803374435SWT LOLLY I LUV U HEART0000007000+00000525+00000+0001T   00000525+0000001513          1400 BK8150               2BZ
241300002241300080-000127     241300006003000424351VALENTINES DAY 36x24CM 0000001000+00002192+00000+0001T   00002192+0000001513          1400 BK8112               2BZ
241300003241300112-116069     241300006009681820277TCS CARRIER BAG JUMBO  0000001000+00000048+00000+0001T   00000048+0000001513          1400 BK8090               2BZ
241301000241301               241301               170213CC     1400+00000+CC0000001578+0000001578+000000000+000000221+0000001790+0000000009+I20000000000+0000001790+Z
241301001241301018-000127     241301006001023380289MUG OCC STRAIGHT LOVE  0000001000+00001578+00000+0001T   00001753+0006471514          1400 BK8515               2BZ
241302000241302               241302               170213CC     1400+00000+CC0000002192+0000002192+000000000+000000307+0000002490+0000000009+I20000000000+0000002490+Z
241302001241302080-000127     241302006003000424351VALENTINES DAY 36x24CM 0000001000+00002192+00000+0001T   00002192+0000001516          1400 BK8112               2BZ
241303000241303               241303               170213CC     1400+00000+CC0000004997+0000004997+000000000+000000700+0000005697+0000000000+I40000005697+0000000000+Z
241303001241303018-005009     241303006001023725608MUG W/PLUSH-BEAR LOVE  0000001000+00003507+00000+0001T   00003507+0000001521          1400 BK8515               2BZ
241303002241303077-000452     241303006003000284986G/BAG METALLIC MED EMB 0000001000+00001490+00000+0001T   00001490+0000001521          1400 BK8112               2BZ
241304000241304               241304               170213CC     1400+00000+CC0000002192+0000002192+000000000+000000307+0000002490+0000000009+I20000000000+0000002490+Z
241304001241304047-005127     241304006003000093861CABLETIES 100/150/200mm0000001000+00002192+00000+0001T   00002192+0000001521          1400 BK8880               2BZ
241305000241305               241305               170213CC     1400+00000+CC0000001753+0000001753+000000000+000000246+0000001990+0000000009+I20000000000+0000001990+Z
241305001241305077-000455     241305006003000285389G/BAG METALLIC LRG SOL 0000001000+00001753+00000+0001T   00001753+0000001522          1400 BK8112               2BZ
241306000241306               241306               170213CC     1400+00000+CC0000000788+0000000788+000000000+000000111+0000000899+0000000000+I40000000899+0000000000+Z
241306001241306077-000383     241306006003000247943GIFT-BAG 11X14CM S/COL 0000001000+00000788+00000+0001T   00000788+0000001525          1400 BK8112               2BZ
241307000241307               241307               170213CC     1400+00000+CC0000005085+0000005085+000000000+000000712+0000005797+0000000000+I40000005797+0000000000+Z
241307001241307301-085004     241307006003000420469ORN LOVE PLAQUE 21X10CM0000001000+00003507+00000+0001T   00003946+0006471527          1400 BK8505               2BZ
241307002241307077-000303     241307006001023593757GIFT-BAG PAPER MED     0000001000+00001578+00000+0001T   00001578+0000001527          1400 BK8112               2BZ
241308000241308               241308               170213CC     1400+00000+CC0000007453+0000007453+000000000+000001044+0000008497+0000000000+I40000008497+0000000000+Z
241308001241308036-000013     241308006001246500860LINT REMOVER REFILLS   0000001000+00003946+00000+0001T   00003946+0000001542          1400 BK8212               2BZ
241308002241308072-020264     241308006001023602565PET DOG CLEAN-UP BAGS  0000001000+00003507+00000+0001T   00003507+0000001542          1400 BK8870               2BZ
241309000241309               241309               170213CC     1400+00000+CC0000000035+0000000035+000000000+000000005+0000000040+0000000000+I20000000000+0000000040+Z
241309001241309112-116038     241309006003000534906TCS CARRIER BAG MIDI   0000001000+00000035+00000+0001T   00000035+0000001542          1400 BK8090               2BZ
241310000241310               241310               170213CC     1400+00000+CC0000001578+0000001578+000000000+000000221+0000001799+0000000000+I40000001799+0000000000+Z
241310001241310077-000303     241310006001023593757GIFT-BAG PAPER MED     0000001000+00001578+00000+0001T   00001578+0000001543          1400 BK8112               2BZ
241311000241311               241311               170213CC     1400+00000+CC0000004383+0000004383+000000000+000000615+0000004998+0000000000+I40000004998+0000000000+Z
241311001241311077-000235     241311006003000160211GIFT-RIBBON ROLL METALC0000001000+00002630+00000+0001T   00002630+0000001545          1400 BK8112               2BZ
241311002241311362-001103     241311006001023793515JWLRY GRL ASS 2PC ASSTD0000001000+00001753+00000+0001T   00001753+0000001545          1400 BK8160               2BZ
241312000241312               241312               170213CC     1400+00000+CC0000003243+0000003243+000000000+000000455+0000003690+0000000008+I20000000000+0000003690+Z
241312001241312016-006514     241312006003000295432S/JAR EMBOSSED 500ML   0000001000+00001753+00000+0001T   00001753+0000001553          1400 BK8300               2BZ
241312002241312077-000452     241312006003000284986G/BAG METALLIC MED EMB 0000001000+00001490+00000+0001T   00001490+0000001553          1400 BK8112               2BZ
241313000241313               241313               170213CC     1400+00000+CC0000001927+0000001927+000000000+000000270+0000002197+0000000000+I40000002197+0000000000+Z
241313001241313077-000311     241313006001023608666GIFT-BAG 11X14CM GLOSS 0000001000+00000613+00000+0001T   00000613+0000001557          1400 BK8112               2BZ
241313002241313077-000470     241313006003000330171G-BAG DESGN SML 11X14CM0000001000+00001314+00000+0001T   00001314+0000001557          1400 BK8112               2BZ
241314000241314               241314               170213CC     1400+00000+CC0000004647+0000004647+000000000+000000651+0000005298+0000000000+I40000005298+0000000000+Z
241314001241314077-000303     241314006001023593757GIFT-BAG PAPER MED     0000001000+00001578+00000+0001T   00001578+0000001558          1400 BK8112               2BZ
241314002241314089-060027     241314006003000245871KEY-CHAIN HEART 6X6cm  0000001000+00003069+00000+0001T   00003069+0000001558          1400 BK8205               2BZ
241315000241315               241315               170213CC     1400+00000+CC0000007925+0000007925+000000000+000001111+0000009036+0000000000+I40000009036+0000000000+Z
241315001241315072-020304     241315006001023602497PET DOG-CHEW STRING    0000001000+00002630+00000+0001T   00002630+0000001559          1400 BK8870               2BZ
241315002241315072-020310     241315006001023701015PET TOY MINI TENNIS BAL0000001000+00003507+00000+0001T   00003507+0000001559          1400 BK8870               2BZ
241315003241315072-020308     241315006001023700971DOG-TOY FOOTBALL 11,5cm0000001000+00001753+00000+0001T   00001753+0000001559          1400 BK8870               2BZ
241315004241315112-116038     241315006009681820246TCS CARRIER BAG MIDI   0000001000+00000035+00000+0001T   00000035+0000001559          1400 BK8090               2BZ
241316000241316               241316               170213CC     1400+00000+CC0000002717+0000002717+000000000+000000381+0000003090+0000000008+I20000000000+0000003090+Z
241316001241316563-000318-L   241316006003000407088SERVIETTES 33cm RED    0000001000+00002192+00000+0001T   00002192+0000001605          1400 BK8214               2BZ
241316002241316002-021040     241316006001023812216PARTY-PICKS 100PCE     0000001000+00000525+00000+0001T   00000525+0000001605          1400 BK8300               2BZ
241317000241317               241317               170213CC     1400+00000+CC0000003507+0000003507+000000000+000000491+0000003990+0000000008+I20000000000+0000003990+Z
241317001241317031-000002-A   241317006003000247103P/FRAME LOVE 7.5X7.5CM 0000001000+00003507+00000+0001T   00003507+0000001606          1400 BK8510               2BZ
241318000241318               241318               170213CC     1400+00000+CC0000001490+0000001490+000000000+000000209+0000001690+0000000009+I20000000000+0000001690+Z
241318001241318077-000305     241318006003000395422GIFT-BAG WINE 10X35CM  0000001000+00001490+00000+0001T   00001490+0000001607          1400 BK8112               2BZ
241319000241319               241319               170213CC     1400+00000+CC0000004154+0000004154+000000000+000000582+0000004730+0000000006+I20000000000+0000004730+Z
241319001241319903-004950     241319006002580020304SWT APRICOT SURPRISE   0000001000+00001314+00000+0001T   00001314+0000001608          1400 BK8150               2BZ
241319002241319903-004951     241319006002580020328SWT MALLOW MINI M/SHAKE0000001000+00001227+00000+0001T   00001227+0000001608          1400 BK8150               2BZ
241319003241319018-000127     241319006001023380289MUG OCC STRAIGHT LOVE  0000001000+00001578+00000+0001T   00001753+0006471608          1400 BK8515               2BZ
241319004241319112-116038     241319006009681820246TCS CARRIER BAG MIDI   0000001000+00000035+00000+0001T   00000035+0000001608          1400 BK8090               2BZ
241320000241320               241320               170213CC     1400+00000+CC0000000613+0000000613+000000000+000000086+0000000690+0000000009+I20000000000+0000000690+Z
241320001241320083-000055     241320006003000003853LIGHTER ELCTRNC REFILBL0000001000+00000613+00000+0001T   00000613+0000001608          1400 BK8315               2BZ
241321000241321               241321               170213CC     1400+00000+CC0000000700+0000000700+000000000+000000098+0000000790+0000000008+I20000000000+0000000790+Z
241321001241321007-000128     241321006009635830475BOOK H/COVER A5 96-PAGE0000001000+00000700+00000+0001T   00000700+0000001612          1400 BK8130               2BZ
241322000241322               241322               170213CC     1400+00000+CC0000001139+0000001139+000000000+000000160+0000001290+0000000009+I20000000000+0000001290+Z
241322001241322046-000014     241322006001023725387BATTERIES SIZE:AAA 4PCE0000001000+00001139+00000+0001T   00001139+0000001620          1400 BK8312               2BZ
241323000241323               241323               170213CC     1400+00000+CC0000003505+0000003505+000000000+000000492+0000003997+0000000000+I40000003997+0000000000+Z
241323001241323304-001204     241323006001023737984FLOWER OCC. TEDDY/ROSES0000001000+00001402+00000+0001T   00001490+0006471628          1400 BK8510               2BZ
241323002241323077-000150-D   241323006003000054343GIFT-WRAP CELLPHANE CLR0000001000+00000876+00000+0001T   00000876+0000001628          1400 BK8112               2BZ
241323003241323077-000245     241323006001023759214GIFT-RIBBON METALLICx2 0000001000+00001227+00000+0001T   00001227+0000001628          1400 BK8112               2BZ
241324000241324               241324               170213CC     1400+00000+CC0000003541+0000003541+000000000+000000497+0000004038+0000000000+I40000004038+0000000000+Z
241324001241324036-000615     241324006003000218769WASH-PEGS PL PCK-24    0000001000+00001753+00000+0001T   00001753+0000001630          1400 BK8212               2BZ
241324002241324027-783000     241324006001023874641SCOURERS RAINBOW 5PCE  0000001000+00001753+00000+0001T   00001753+0000001630          1400 BK8212               2BZ
241324003241324112-116038     241324006009681820246TCS CARRIER BAG MIDI   0000001000+00000035+00000+0001T   00000035+0000001630          1400 BK8090               2BZ
241325000241325               241325               170213CC     1400+00000+CC0000002192+0000002192+000000000+000000307+0000002490+0000000009+I20000000000+0000002490+Z
241325001241325566-000068     241325006003000418046POP UP LOVE 2 ASSTD    0000001000+00002192+00000+0001T   00002192+0000001633          1400 LJ6130               2DZ
241326000241326               241326               170213CC     1400+00000+CC0000024605+0000024605+000000000+000003447+0000028052+0000000000+I40000028052+0000000000+Z
241326001241326368-000637     241326006001023874092PLUSH BEAR SLEEPING LOV0000002000+00011402+00000+0001T   00012279+0006471635          1400 LJ6745               2DZ
241326002241326077-000299-A   241326006003000670888GIFT-BAG PAPER JMB LOVE0000001000+00001753+00000+0001T   00001753+0000001635          1400 LJ6112               2DZ
241326003241326112-116069     241326006009681820277TCS CARRIER BAG JUMBO  0000001000+00000048+00000+0001T   00000048+0000001635          1400 LJ6090               2DZ
241327000241327               241327               170213CC     1400+00000+CC0000003507+0000003507+000000000+000000491+0000003990+0000000008+I20000000000+0000003990+Z
241327001241327018-000136     241327006001023659026MUG OCC LOVE W/PLUSH   0000001000+00003507+00000+0001T   00003507+0000001636          1400 LJ6515               2DZ
241328000241328               241328               170213CC     1400+00000+CC0000002142+0000002142+000000000+000000301+0000002440+0000000003+I20000000000+0000002440+Z
241328001241328079-009700-D   241328006003000545711PAPER SIRIO A4 RED COL.0000001000+00000306+00000+0001T   00000306+0000001639          1400 LJ6130               2DZ
241328002241328079-009700-F   241328006003000545872PAPER SIRIO A4 TURQ COL0000001000+00000306+00000+0001T   00000306+0000001639          1400 LJ6130               2DZ
241328003241328079-009700-G   241328006003000545957PAPER SIRIO A4 LIME COL0000001000+00000306+00000+0001T   00000306+0000001639          1400 LJ6130               2DZ
241328004241328079-009700-I   241328006003000546114PAPER SIRIO A4 LILAC   0000004000+00000306+00000+0001T   00000306+0000001639          1400 LJ6130               2DZ
241329000241329               241329               170213CC     1400+00000+CC0000005085+0000005085+000000000+000000712+0000005790+0000000007+I20000000000+0000005790+Z
241329001241329077-000303     241329006001023593757GIFT-BAG PAPER MED     0000001000+00001578+00000+0001T   00001578+0000001640          1400 LJ6112               2DZ
241329002241329018-000136     241329006001023659026MUG OCC LOVE W/PLUSH   0000001000+00003507+00000+0001T   00003507+0000001640          1400 LJ6515               2DZ
241330000241330               241330               170213CC     1400+00000+CC0000001490+0000001490+000000000+000000209+0000001690+0000000009+I20000000000+0000001690+Z
241330001241330159-000114     241330006001023507945SHOWER CAP PVC ASSTD   0000001000+00001490+00000+0001T   00001490+0000001641          1400 LJ6200               2DZ
241331000241331               241331               170213CC     1400+00000+CC0000008771+0000008771+000000000+000001228+0000009999+0000000000+I40000009999+0000000000+Z
241331001241331027-000230     241331006001023606198MOP COMPLETE WONDERMOP 0000001000+00008771+00000+0001T   00008771+0000001643          1400 LJ6212               2DZ
241332000241332               241332               170213CC     1400+00000+CC0000002192+0000002192+000000000+000000307+0000002490+0000000009+I20000000000+0000002490+Z
241332001241332080-000127     241332006003000424351VALENTINES DAY 36x24CM 0000001000+00002192+00000+0001T   00002192+0000001646          1400 LJ6112               2DZ
241333000241333               241333               170213CC     1400+00000+CC0000003507+0000003507+000000000+000000491+0000003990+0000000008+I20000000000+0000003990+Z
241333001241333267-000311     241333006003000610730PUZZLE WOOD TRAY ASSTD 0000001000+00003507+00000+0001T   00003507+0000001647          1400 LJ6755               2DZ
241334000241334               241334               170213CC     1400+00000+CC0000002892+0000002892+000000000+000000406+0000003290+0000000008+I20000000000+0000003290+Z
241334001241334162-097716     241334006001492977164#TAG NEW GOLD E/PIERCE 0000001000+00001139+00000+0001T   00001139+0000001648          1400 LJ6160               2DZ
241334002241334464-001702     241334006003000336333DOMINOES WDN 15x5x3cm  0000001000+00001753+00000+0001T   00001753+0000001648          1400 LJ6785               2DZ
241335000241335               241335               170213CC     1400+00000+CC0000001402+0000001402+000000000+000000197+0000001590+0000000009+I20000000000+0000001590+Z
241335001241335046-000011     241335004897006172994BATTERIES SIZE:AA  2PCE0000001000+00001402+00000+0001T   00001402+0000001650          1400 BK8312               2BZ
241336000241336               241336               170213CC     1400+00000+CC0000011401+0000011401+000000000+000001597+0000012998+0000000000+I40000012998+0000000000+Z
241336001241336031-000859     241336006001023490278P/FRAME COL 3-H 25X50CM0000001000+00008771+00000+0001T   00008771+0000001651          1400 BK8510               2BZ
241336002241336007-000602     241336006003000541270BOOK COVER 2M SOLID COL0000001000+00002630+00000+0001T   00002630+0000001651          1400 BK8130               2BZ
241337000241337               241337               170213CC     1400+00000+CC0000002366+0000002366+000000000+000000332+0000002690+0000000008+I20000000000+0000002690+Z
241337001241337077-000318     241337006001023609755GIFT-BAG 18X23CM E/D AN0000001000+00001227+00000+0001T   00001227+0000001651          1400 BK8112               2BZ
241337002241337903-000087     241337006001704000161SWT SPECKLED-EGGS 50G  0000001000+00001139+00000+0001T   00001139+0000001651          1400 BK8150               2BZ
241338000241338               241338               170213CC     1400+00000+CC0000001788+0000001788+000000000+000000251+0000002030+0000000009+I20000000000+0000002030+Z
241338001241338106-007125     241338006003000057689MILK-SACHET-JUG 1,0L   0000001000+00001753+00000+0001T   00001753+0000001652          1400 BK8210               2BZ
241338002241338112-116038     241338006003000534906TCS CARRIER BAG MIDI   0000001000+00000035+00000+0001T   00000035+0000001652          1400 BK8090               2BZ
241339000241339               241339               170213CC     1400+00000+CC0000001839+0000001839+000000000+000000258+0000002090+0000000007+I20000000000+0000002090+Z
241339001241339006-001000     241339006003000093779HELIUM BALLOON FILL    0000003000+00000613+00000+0001T   00000613+0000001652          1400 BK8131               2BZ
241340000241340               241340               170213CC     1400+00000+CC0000009378+0000009378+000000000+000001315+0000010693+0000000000+I40000010693+0000000000+Z
241340001241340065-006041     241340006001023712974TAMBOURINE 15cm P/BAND 0000001000+00001753+00000+0001T   00001753+0000001657          1400 LJ6745               2DZ
241340002241340077-000452     241340006003000284986G/BAG METALLIC MED EMB 0000001000+00001490+00000+0001T   00001490+0000001657          1400 LJ6112               2DZ
241340003241340903-000111     241340006001704006378SWT LIQUORICE-TWISTS   0000005000+00001227+00000+0001T   00001227+0000001657          1400 LJ6150               2DZ
241341000241341               241341               170213CC     1400+00000+CC0000002630+0000002630+000000000+000000369+0000002990+0000000009+I20000000000+0000002990+Z
241341001241341124-002023     241341006003000367252BISCUIT TIN HEART SHAPE0000001000+00002630+00000+0001T   00003507+0008171658          1400 LJ6300               2DZ
241342000241342               241342               170213CC     1400+00000+CC0000008770+0000008770+000000000+000001228+0000009990+0000000008+I20000000000+0000009990+Z
241342001241342088-000107     241342006001023555823DIFFUSER SET FLOWER    0000002000+00004385+00000+0001T   00004385+0000001659          1400 LJ6212               2DZ
241343000241343               241343               170213CC     1400+00000+CC0000011402+0000011402+000000000+000001597+0000012999+0000000000+I40000012999+0000000000+Z
241343001241343001-000410     241343006003000431175BEER-TUMBLER GLASS DAD 0000001000+00011402+00000+0001T   00011402+0000001700          1400 LJ6515               2DZ
241344000241344               241344               170213CC     1400+00000+CC0000007016+0000007016+000000000+000000983+0000007999+0000000000+I40000007999+0000000000+Z
241344001241344174-000305     241344006003000105502TRAVEL NECK-PILLOW     0000001000+00007016+00000+0001T   00007016+0000001704          1400 LJ6205               2DZ
241345000241345               241345               170213CC     1400+00000+CC0000006139+0000006139+000000000+000000860+0000006990+0000000009+I20000000000+0000006990+Z
241345001241345018-050000     241345006003000412679MUG OCC LOVE TWIN BEAR 0000001000+00006139+00000+0001T   00006139+0000001705          1400 LJ6515               2DZ
241346000241346               241346               170213CC     1400+00000+CC0000013368+0000013368+000000000+000001877+0000015245+0000000000+I40000015245+0000000000+Z
241346001241346301-085006     241346006001023502940ORN LOVE MSG TUBE W/HRT0000002000+00001753+00000+0001T   00001753+0000001712          1400 LJ6505               2DZ
241346002241346077-000245     241346006001023759214GIFT-RIBBON METALLICx2 0000001000+00001227+00000+0001T   00001227+0000001712          1400 LJ6112               2DZ
241346003241346140-001004     241346006001023880932FLY-RIBBONS 4PCE PL    0000001000+00001490+00000+0001T   00001490+0000001712          1400 LJ6830               2DZ
241346004241346077-000115-B   241346006003000181025GIFT-WRAP PPR 700MMX2M 0000001000+00002630+00000+0001T   00002630+0000001712          1400 LJ6112               2DZ
241346005241346031-000878-A   241346006001023798985P/FRAME 10x15cm PL-SLID0000002000+00000876+00000+0001T   00000876+0000001712          1400 LJ6510               2DZ
241346006241346083-000055     241346006003000003853LIGHTER ELCTRNC REFILBL0000001000+00000613+00000+0001T   00000613+0000001712          1400 LJ6315               2DZ
241346007241346079-009702-D   241346008427973059354PAPER SIRIO A2 RED COL 0000002000+00001051+00000+0001T   00001051+0000001712          1400 LJ6130               2DZ
241346008241346112-116069     241346006009681820277TCS CARRIER BAG JUMBO  0000001000+00000048+00000+0001T   00000048+0000001712          1400 LJ6090               2DZ
241347000241347               241347               170213CC     1400+00000+CC0000013203+0000013203+000000000+000001849+0000015052+0000000000+I40000015052+0000000000+Z
241347001241347469-000801     241347006003000652402BUILDING BLOCKS AGE BAG0000003000+00004385+00000+0001T   00004385+0000001714          1400 LJ6755               2DZ
241347002241347112-116069     241347006009681820277TCS CARRIER BAG JUMBO  0000001000+00000048+00000+0001T   00000048+0000001714          1400 LJ6090               2DZ
241348000241348               241348               170213CC     1400+00000+CC0000002455+0000002455+000000000+000000344+0000002799+0000000000+I40000002799+0000000000+Z
241348001241348077-000380     241348006003000247585GIFT-BAG 33X45CM S/COL 0000001000+00002455+00000+0001T   00002455+0000001716          1400 LJ6112               2DZ
241349000241349               241349               170213CC     1400+00000+CC0000002927+0000002927+000000000+000000410+0000003337+0000000000+I40000003337+0000000000+Z
241349001241349565-000052     241349006003000615551NOVELTY PUTTY FARTS    0000001000+00001578+00000+0001T   00001578+0000001717          1400 LJ6745               2DZ
241349002241349034-000329     241349006001023564290BOTTLE-BRUSHES WHT 2PCE0000001000+00001314+00000+0001T   00001314+0000001717          1400 LJ6215               2DZ
241349003241349112-116038     241349006009681820246TCS CARRIER BAG MIDI   0000001000+00000035+00000+0001T   00000035+0000001717          1400 LJ6090               2DZ
241350000241350               241350               170213CC     1400+00000+CC0000026350+0000026350+000000000+000003693+0000030043+0000000000+I40000030043+0000000000+Z
241350001241350112-116069     241350006009681820277TCS CARRIER BAG JUMBO  0000001000+00000048+00000+0001T   00000048+0000001720          1400 LJ6090               2DZ
241350002241350077-000303     241350006001023593757GIFT-BAG PAPER MED     0000002000+00001578+00000+0001T   00001578+0000001720          1400 LJ6112               2DZ
241350003241350004-078982     241350006003000667680HEADPHONES FOLDABLE COL0000001000+00012279+00000+0001T   00012279+0000001720          1400 LJ6310               2DZ
241350004241350033-001402     241350006009654960498HAIR-CURLERS 6PCE LRG  0000007000+00001227+00000+0001T   00001227+0000001720          1400 LJ6200               2DZ
241350005241350903-000087     241350006001704000161SWT SPECKLED-EGGS 50G  0000002000+00001139+00000+0001T   00001139+0000001720          1400 LJ6150               2DZ
241351000241351               241351               170213CC     1400+00000+CC0000016534+0000016534+000000000+000002316+0000018850+0000000000+I40000018850+0000000000+Z
241351001241351261-003906     241351006003000472376RIFLE 57cm +ACCESS 8PCE0000001000+00008771+00000+0001T   00008771+0000001724          1400 LJ6710               2DZ
241351002241351566-001234     241351006003000217793STICKERS LASER ASSTD   0000001000+00001578+00000+0001T   00001578+0000001724          1400 LJ6130               2DZ
241351003241351200-000220     241351006008766126976BAKEPANS 5PCE          0000001000+00002455+00000+0001T   00002455+0000001724          1400 LJ6214               2DZ
241351004241351306-000026     241351006003000207626COTTON WOOL ROLL 100G  0000001000+00002192+00000+0001T   00002192+0000001724          1400 LJ6200               2DZ
241351005241351051-002401     241351006001023523570TRIGGER-SPRAYER   300ml0000001000+00001490+00000+0001T   00001490+0000001724          1400 LJ6820               2DZ
241351006241351112-116069     241351006009681820277TCS CARRIER BAG JUMBO  0000001000+00000048+00000+0001T   00000048+0000001724          1400 LJ6090               2DZ
241352000241352               241352               170213CC     1400+00000+CC0000002192+0000002192+000000000+000000307+0000002490+0000000009+I20000000000+0000002490+Z
241352001241352077-000926     241352006003000414178G/WRAP 700mmx2m LOVE   0000001000+00002192+00000+0001T   00002192+0000001724          1400 LJ6112               2DZ
241353000241353               241353               170213CC     1400+00000+CC0000006399+0000006399+000000000+000000897+0000007296+0000000000+I40000007296+0000000000+Z
241353001241353048-000870     241353006003000525287LANTERN B/LIGHT MINI   0000001000+00003507+00000+0001T   00003507+0000001726          1400 LJ6305               2DZ
241353002241353077-000289     241353006001023901996GIFT BOX 20x25x11cm    0000001000+00001753+00000+0001T   00001753+0000001726          1400 LJ6112               2DZ
241353003241353046-000014     241353006001023725387BATTERIES SIZE:AAA 4PCE0000001000+00001139+00000+0001T   00001139+0000001726          1400 LJ6312               2DZ
241354000241354               241354               170213CC     1400+00000+CC0000006434+0000006434+000000000+000000901+0000007330+0000000005+I20000000000+0000007330+Z
241354001241354077-000310     241354006001023608635GIFT-BAG 18X23CM GLOSS 0000001000+00001314+00000+0001T   00001314+0000001728          1400 LJ6112               2DZ
241354002241354080-000124     241354006003000297733CARD & ENV VALENTINES  0000001000+00001578+00000+0001T   00001578+0000001728          1400 LJ6112               2DZ
241354003241354018-000136     241354006001023659026MUG OCC LOVE W/PLUSH   0000001000+00003507+00000+0001T   00003507+0000001728          1400 LJ6515               2DZ
241354004241354112-116038     241354006009681820246TCS CARRIER BAG MIDI   0000001000+00000035+00000+0001T   00000035+0000001728          1400 LJ6090               2DZ
241355000241355               241355               170213CC     1400+00000+CC0000001402+0000001402+000000000+000000197+0000001599+0000000000+I40000001599+0000000000+Z
241355001241355304-001204     241355006001023737984FLOWER OCC. TEDDY/ROSES0000001000+00001402+00000+0001T   00001490+0006471734          1400 BK8510               2BZ
241356000241356               241356               170213CC     1400+00000+CC0000002192+0000002192+000000000+000000307+0000002490+0000000009+I20000000000+0000002490+Z
241356001241356563-000318-L   241356006003000407088SERVIETTES 33cm RED    0000001000+00002192+00000+0001T   00002192+0000001751          1400 BK8214               2BZ
241357000241357               241357               170213CC     1400+00000+CC0000001578+0000001578+000000000+000000221+0000001790+0000000009+I20000000000+0000001790+Z
241357001241357018-000127     241357006001023380289MUG OCC STRAIGHT LOVE  0000001000+00001578+00000+0001T   00001753+0006471751          1400 BK8515               2BZ
241358000241358               241358               170213CC     1400+00000+CC0000000437+0000000437+000000000+000000062+0000000490+0000000009+I20000000000+0000000490+Z
241358001241358080-000133-A   241358006003000647019MINI VALENTINES CARD   0000001000+00000437+00000+0001T   00000437+0000001753          1400 LJ6112               2DZ
241359000241359               241359               170213CC     1400+00000+CC0000001349+0000001349+000000000+000000189+0000001530+0000000008+I20000000000+0000001530+Z
241359001241359112-116038     241359006009681820246TCS CARRIER BAG MIDI   0000001000+00000035+00000+0001T   00000035+0000001755          1400 LJ6090               2DZ
241359002241359077-000310     241359006001023608635GIFT-BAG 18X23CM GLOSS 0000001000+00001314+00000+0001T   00001314+0000001755          1400 LJ6112               2DZ
241360000241360               241360               170213CC     1400+00000+CC0000004385+0000004385+000000000+000000614+0000004990+0000000009+I20000000000+0000004990+Z
241360001241360082-000100     241360006003000360246READING GLS STRENGHT:1 0000001000+00004385+00000+0001T   00004385+0000001757          1400 LJ6160               2DZ
241361000241361               241361               170213CC     1400+00000+CC0000001314+0000001314+000000000+000000184+0000001490+0000000008+I20000000000+0000001490+Z
241361001241361362-000307     241361006003000519750HAIR HEADBAND PRINTED  0000001000+00001314+00000+0001T   00001314+0000001757          1400 LJ6160               2DZ
241362000241362               241362               170213CC     1400+00000+CC0000010082+0000010082+000000000+000001413+0000011495+0000000000+I40000011495+0000000000+Z
241362001241362077-000381     241362006003000247707GIFT-BAG 25X32CM S/COL 0000001000+00001753+00000+0001T   00001753+0000001800          1400 LJ6112               2DZ
241362002241362265-000381     241362006001023827852BATTERY OPERATED BOAT  0000001000+00005262+00000+0001T   00005262+0000001800          1400 LJ6710               2DZ
241362003241362046-000012     241362006904708013062BATTERIES AA  CARD-OF-40000001000+00001314+00000+0001T   00001314+0000001800          1400 LJ6312               2DZ
241362004241362080-000113     241362006003000237449CARD&ENVLPE - LOVE     0000001000+00001753+00000+0001T   00001753+0000001800          1400 LJ6112               2DZ
241363000241363               241363               170213CC     1400+00000+CC0000002980+0000002980+000000000+000000418+0000003390+0000000008+I20000000000+0000003390+Z
241363001241363079-000206     241363006003000639700PENCIL CRAYONS THERAPY 0000001000+00001753+00000+0001T   00001753+0000001811          1400 LJ6130               2DZ
241363002241363903-000499     241363006001704012492SWT CHOC MALLOWS 50g   0000001000+00001227+00000+0001T   00001227+0000001811          1400 LJ6150               2DZ
241364000241364               241364               170213CC     1400+00000+CC0000001314+0000001314+000000000+000000184+0000001490+0000000008+I20000000000+0000001490+Z
241364001241364077-000310     241364006001023608635GIFT-BAG 18X23CM GLOSS 0000001000+00001314+00000+0001T   00001314+0000001823          1400 LJ6112               2DZ
241365000241365               241365               170213CC     1400+00000+CC0000000035+0000000035+000000000+000000005+0000000040+0000000000+I20000000000+0000000040+Z
241365001241365112-116038     241365006009681820246TCS CARRIER BAG MIDI   0000001000+00000035+00000+0001T   00000035+0000001824          1400 LJ6090               2DZ
241366000241366               241366               170213CC     1400+00000+CC0000002630+0000002630+000000000+000000369+0000002990+0000000009+I20000000000+0000002990+Z
241366001241366103-000060     241366006001023795489BAMBOO BASKET RECT     0000001000+00002630+00000+0001T   00002630+0000001831          1400 BK8300               2BZ
241367000241367               241367               170213CC     1400+00000+CC0000011432+0000011432+000000000+000001603+0000013030+0000000005+I20000000000+0000013030+Z
241367001241367105-001020     241367006001023898159LUNCH BOX 13.5x6.5cm   0000002000+00002192+00000+0001T   00002192+0000001834          1400 BK8210               2BZ
241367002241367108-003021     241367006003000343911MUG SUPER SIPPER 450ml 0000002000+00002630+00000+0001T   00002630+0000001834          1400 BK8210               2BZ
241367003241367051-002402     241367006001023518347TRIGGER-SPRAYER  500ml 0000001000+00001753+00000+0001T   00001753+0000001834          1400 BK8820               2BZ
241367004241367112-116038     241367006009681820246TCS CARRIER BAG MIDI   0000001000+00000035+00000+0001T   00000035+0000001834          1400 BK8090               2BZ
241368000241368               241368               170213CC     1400+00000+CC0000001753+0000001753+000000000+000000246+0000001990+0000000009+I20000000000+0000001990+Z
241368001241368077-000115     241368006001023834225WRAP METALLIC 700mmx1m 0000001000+00001753+00000+0001T   00001753+0000001834          1400 BK8112               2BZ
241369000241369               241369               170213CC     1400+00000+CC0000001753+0000001753+000000000+000000246+0000001990+0000000009+I20000000000+0000001990+Z
241369001241369078-000480     241369006008741002332BOSTIK SHOE-REPAIR 25ml0000001000+00001753+00000+0001T   00001753+0000001835          1400 BK8810               2BZ
241370000241370               241370               170213CC     1400+00000+CC0000013202+0000013202+000000000+000001849+0000015051+0000000000+I40000015051+0000000000+Z
241370001241370065-000053     241370006001023756879MUSICAL HAMMER         0000001000+00003507+00000+0001T   00003507+0000001837          1400 BK8745               2BZ
241370002241370034-079090     241370006001023855503COOEY BRUSH+COMB-SET   0000001000+00004385+00000+0001T   00004385+0000001837          1400 BK8215               2BZ
241370003241370464-009011     241370006003000647675FISHING WITH TWO RODS  0000001000+00005262+00000+0001T   00005262+0000001837          1400 BK8785               2BZ
241370004241370112-116069     241370006009681820277TCS CARRIER BAG JUMBO  0000001000+00000048+00000+0001T   00000048+0000001837          1400 BK8090               2BZ
241371000241371               241371               170213CC     1400+00000+CC0000003068+0000003068+000000000+000000430+0000003490+0000000008+I20000000000+0000003490+Z
241371001241371018-000127     241371006001023380289MUG OCC STRAIGHT LOVE  0000001000+00001578+00000+0001T   00001753+0006471839          1400 LJ6515               2DZ
241371002241371077-000299     241371006003000395576G/BAG 32x25cm LRG LOVE 0000001000+00001490+00000+0001T   00001490+0000001839          1400 LJ6112               2DZ
241372000241372               241372               170213CC     1400+00000+CC0000008806+0000008806+000000000+000001233+0000010030+0000000009+I20000000000+0000010030+Z
241372001241372368-000614     241372006001023705808PLUSH LOVE 30cm        0000001000+00008771+00000+0001T   00008771+0000001839          1400 LJ6745               2DZ
241372002241372112-116038     241372006009681820246TCS CARRIER BAG MIDI   0000001000+00000035+00000+0001T   00000035+0000001839          1400 LJ6090               2DZ
241373000241373               241373               170213CC     1400+00000+CC0000011447+0000011447+000000000+000001604+0000013051+0000000000+I40000013051+0000000000+Z
241373001241373006-000812     241373006001023902832HAT CONE WITH TINSEL   0000001000+00000876+00000+0001T   00000876+0000001842          1400 LJ6131               2DZ
241373002241373080-000107     241373006003000237081CARD&ENVELPE BDAY BOY  0000001000+00001753+00000+0001T   00001753+0000001842          1400 LJ6112               2DZ
241373003241373567-011358     241373009780709721697BK EDU ABC WITH POSTER 0000001000+00004385+00000+0001T   00006139+0008141842          1400 LJ6757               2DZ
241373004241373112-116069     241373006009681820277TCS CARRIER BAG JUMBO  0000001000+00000048+00000+0001T   00000048+0000001842          1400 LJ6090               2DZ
241373005241373567-011358     241373009780709721697BK EDU ABC WITH POSTER 0000001000+00004385+00000+0001T   00006139+0008141842          1400 LJ6757               2DZ
241374000241374               241374               170213CC     1400+00000+CC0000007892+0000007892+000000000+000001105+0000008990+0000000007+I20000000000+0000008990+Z
241374001241374001-000175     241374006001023788108B/MUG GLS LOVE 380ML   0000001000+00004385+00000+0001T   00004385+0000001842          1400 LJ6515               2DZ
241374002241374018-000136     241374006001023659026MUG OCC LOVE W/PLUSH   0000001000+00003507+00000+0001T   00003507+0000001842          1400 LJ6515               2DZ
241375000241375               241375               170213CC     1400+00000+CC0000002980+0000002980+000000000+000000418+0000003390+0000000008+I20000000000+0000003390+Z
241375001241375077-000299     241375006003000395576G/BAG 32x25cm LRG LOVE 0000002000+00001490+00000+0001T   00001490+0000001843          1400 LJ6112               2DZ
241376000241376               241376               170213CC     1400+00000+CC0000001578+0000001578+000000000+000000221+0000001799+0000000000+I40000001799+0000000000+Z
241376001241376077-000303     241376006001023593757GIFT-BAG PAPER MED     0000001000+00001578+00000+0001T   00001578+0000001844          1400 LJ6112               2DZ
241377000241377               241377               170213CC     1400+00000+CC0000001227+0000001227+000000000+000000172+0000001390+0000000009+I20000000000+0000001390+Z
241377001241377079-000010     241377006001023173409P/CRAYONS 12-COL SHORT 0000001000+00001227+00000+0001T   00001227+0000001844          1400 LJ6130               2DZ
241378000241378               241378               170213CC     1400+00000+CC0000003507+0000003507+000000000+000000491+0000003990+0000000008+I20000000000+0000003990+Z
241378001241378007-000324     24137800600968585864125 SHEETS BRIGHTS MARLI0000001000+00003507+00000+0001T   00003507+0000001851          1400 BK8130               2BZ
241379000241379               241379               170213CC     1400+00000+CC0000002365+0000002365+000000000+000000332+0000002690+0000000007+I20000000000+0000002690+Z
241379001241379077-000311     241379006001023608666GIFT-BAG 11X14CM GLOSS 0000001000+00000613+00000+0001T   00000613+0000001854          1400 BK8112               2BZ
241379002241379004-071216     241379006003000239900MOBILE PHONE CHARM ASST0000002000+00000876+00000+0001T   00000876+0000001854          1400 BK8310               2BZ
241380000241380               241380               170213CC     1400+00000+CC0000021095+0000021095+000000000+000002955+0000024050+0000000000+I40000024050+0000000000+Z
241380001241380001-091415     241380006003000329113W/GLS OCC. LOVE 2PC 2800000002000+00008771+00000+0001T   00009648+0006471858          1400 LJ6515               2DZ
241380002241380903-000926     241380006914204004556SWT NOVELTY ST N/LACE  0000001000+00001753+00000+0001T   00001753+0000001858          1400 LJ6150               2DZ
241380003241380077-000314     241380006003000181148GIFT-BAG 11X14CM MATT  0000002000+00000876+00000+0001T   00000876+0000001858          1400 LJ6112               2DZ
241380004241380112-116069     241380006009681820277TCS CARRIER BAG JUMBO  0000001000+00000048+00000+0001T   00000048+0000001858          1400 LJ6090               2DZ
241381000241381               241381               170213CC     1400+00000+CC0000003942+0000003942+000000000+000000552+0000004490+0000000004+I20000000000+0000004490+Z
241381001241381077-000407     241381006003000145096G/BAG PP 19X26X8CM     0000001000+00001314+00000+0001T   00001314+0000001859          1400 LJ6112               2DZ
241381002241381077-000310     241381006001023608635GIFT-BAG 18X23CM GLOSS 0000002000+00001314+00000+0001T   00001314+0000001859          1400 LJ6112               2DZ
241382000241382               241382               170213CC     1400+00000+CC0000001578+0000001578+000000000+000000221+0000001799+0000000000+I40000001799+0000000000+Z
241382001241382077-000315     241382006003000181186GIFT-BAG 20x28cm MATT  0000001000+00001578+00000+0001T   00001578+0000001901          1400 LJ6112               2DZ
241383000241383               241383               170213CC     1400+00000+CC0000006611+0000006611+000000000+000000926+0000007537+0000000000+I40000007537+0000000000+Z
241383001241383030-000030-A   241383006003000249305PLAQUE GLASS LOVE      0000001000+00003069+00000+0001T   00003069+0000001906          1400 LJ6505               2DZ
241383002241383018-000130     241383006001023867537MUG OCC LOVE MINI+HEART0000001000+00003507+00000+0001T   00003507+0000001906          1400 LJ6515               2DZ
241383003241383112-116038     241383006009681820246TCS CARRIER BAG MIDI   0000001000+00000035+00000+0001T   00000035+0000001906          1400 LJ6090               2DZ
C24133200                                          170213CC034-079090     16455732SLAVE 2     LJ62IC0000000000+0000000000+0010000001000+
M17021391                              CASH        CCSLAVE 2                       Z-REPORT No.   663TOTAL (Sales - Refunds)           6737.49       CASH TO BE BANKED                 2439.70       DEBIT CARDS                          0.00       CREDIT CARDS                      4297.79       Z-READING                         6737.49       AIRTIME DEBIT CARD SALES             0.00       AIRTIME CARD SALES                   0.00       OVERS/UNDERS                         0.00       AIRTIME CASH SALES                   0.00       GIFT CARDS                           0.00       GIFT CARD CASH SALES                 0.00       T O T A L  CASH PAYOUTS              0.00                                                                                                                                                                                                                                                                                                                                                      Z
M17021392                              CASH        CCABSENT                                                                                                                                                                                          ANNUAL LEAVE                                                                                                                                                                                    DAY OFF                                                                                                                                                                                         COMMENTS                                                                                                                                                                                                                                                                                                                                                                                       Z
Y17021300                                          CC00000000591398+000114
ZCC17021405513 SLAVE 2      SALES DATA                     NEXT INVOICE NO.  241384 0664
F094062496-028120         1701170916410000022ICSLAVE 2
F094090496-028122         1701170916500000022ICSLAVE 2
F094126463-000501         1701170917070000042ICSLAVE 2
F094821304-001011         1702101028340000221ICSLAVE 2
F094833022-002107         1702101028400000391ICSLAVE 2
X CC Slave 2 First invoice 241270 170213 Last invoice 241383 170213 Next invoice 241384 Total number of records 000000359 clbackup completed 05:51:47
