250332000250332               250332               170213CC     1400+00000+CC0000084204-0000084204-000000000+000011790-0000095994-           I90000000000+0000000000+Z
250332001250332266-003016     250332006003000600083BOYS P/SET VIKING SWORD0000006000-00014034+00000+0001T063547290000                    1400 1IC7101ICV             Z
250333000250333               250333               170213CC     1400+00000+CC0000138499+0000138499+000000000+000019409+0000157908+           I00000000000+0000000000+Z
250333001250333105-007805     250333006002923018920STORAGE BOX CLEAR 9.5L 0000001000+00005262+00000+0001T                                1400 1IC2101ICD             Z
250333002250333065-001008     250333006001023673190XYLOPHONE 8-KEYS SHAPES0000001000+00004385+00000+0001T                                1400 1IC7451ICD             Z
250333003250333107-002117     250333006002580008890BASIN PL 32cm(VIRGIN)4L0000001000+00001753+00000+0001T                                1400 1IC2101ICD             Z
250333004250333089-000100     250333006003000565665K/CHAIN PET LOVERS     0000004000+00002630+00000+0001T                                1400 1IC2051ICD             Z
250333005250333365-003010     250333006003000230693P/SET KITCHEN TOASTER  0000001000+00006139+00000+0001T                                1400 1IC7251ICD             Z
250333006250333903-000183     250333006003000451043SWT LB HEART LOLLY     0000003000+00000393+00000+0001T                                1400 1IC1501ICD             Z
250333007250333903-000099     250333006923431501646SWT CANDY GS WTCH B/LET0000001000+00000262+00000+0001T                                1400 1IC1501ICD             Z
250333008250333016-009616     2503330060030004416932PC GLS SHAKERS 3-ASSTD0000001000+00001753+00000+0001T                                1400 1IC3001ICD             Z
250333009250333007-000050     250333006001023528285DISPLAY-ENVELOPE A4    0000001000+00001753+00000+0001T                                1400 1IC1301ICD             Z
250333010250333562-000209     250333006003000104710EDU 32PCS BLOCKS WAGON 0000001000+00011402+00000+0001T                                1400 1IC7551ICD             Z
250333011250333565-000888     250333006003000607846NOVELTY MESH BALL      0000001000+00001753+00000+0001T                                1400 1IC7451ICD             Z
250333012250333006-000170-A   250333006003000608065BALLOONS 1PC PINK      0000001000+00000218+00000+0001T                                1400 1IC1311ICD             Z
250333013250333006-000171-H   250333006003000609574BALLOONS 1PC RED PRINT 0000001000+00000218+00000+0001T                                1400 1IC1311ICD             Z
250333014250333006-001000     250333006003000093779HELIUM BALLOON FILL    0000002000+00000613+00000+0001T                                1400 1IC1311ICD             Z
250333015250333071-003049     250333006003000589623PEN NOVELTY BALLS      0000003000+00001490+00000+0001T                                1400 1IC1301ICD             Z
250333016250333104-000055     250333006001023889416BASKET PL 32x22x8cm    0000001000+00003507+00000+0001T                                1400 1IC2101ICD             Z
250333017250333105-007520     250333006003000487585STORAGE BOX CLEAR 10L  0000001000+00012279+00000+0001T                                1400 1IC2101ICD             Z
250333018250333105-007560     250333006003000485918STORAGE BOX CLEAR 10L  0000001000+00014034+00000+0001T                                1400 1IC2101ICD             Z
250333019250333125-000006     250333006003000649983RIBBON-HELIUM BALLOON  0000001000+00000001+00000+0001T                                1400 1IC0911ICD             Z
250333020250333486-001017     250333006003000384501C/WALL QTZ PL RND 31cm 0000001000+00010525+00000+0001T                                1400 1IC5101ICD             Z
250333021250333018-000177     250333006001023797513MUG MINI LOVE ASSTD    0000002000+00000700+00000+0001T                                1400 1IC5151ICD             Z
250333022250333304-001115     250333006001023738240FLOWER-BUNCH CARNATIONS0000001000+00005262+00000+0001T                                1400 1IC5101ICD             Z
250333023250333015-000110     250333006001023854889WHITEWARE MUG 350ML    0000001000+00002192+00000+0001T                                1400 1IC5151ICD             Z
250333024250333263-000176     250333006001023790446CAR PL RACER           0000001000+00006139+00000+0001T                                1400 1IC7101ICD             Z
250333025250333007-000402     250333006009635830864EXERCISE-BOOK A4 72PGE 0000001000+00000525+00000+0001T                                1400 1IC1301ICD             Z
250333026250333065-000015     250333006003000536474MICROPHNE & SUNGLASSESS0000001000+00005262+00000+0001T                                1400 1IC7451ICD             Z
250333027250333028-002101     250333006002580009507CHAIR JUNIOR    ASSTD  0000001000+00003507+00000+0001T                                1400 1IC3051ICD             Z
250333028250333560-000700     250333006001023865830GROWING ANIMALS ASSTD  0000001000+00001578+00000+0001T                                1400 1IC7451ICD             Z
250333029250333079-009700-I   250333006003000546114PAPER SIRIO A4 LILAC   0000001000+00000306+00000+0001T                                1400 1IC1301ICD             Z
250333030250333903-000183     250333006003000451043SWT LB HEART LOLLY     0000001000+00000393+00000+0001T                                1400 1IC1501ICD             Z
250333031250333018-019000     250333006003000557288MUG OCC. LOVE JUMBO    0000001000+00005262+00000+0001T                                1400 1IC5151ICD             Z
250333032250333028-002102     250333006002580009514TABLE KIDDIES          0000001000+00014034+00000+0001T                                1400 1IC3051ICD             Z
250334000250334               250334               170213CC     1400+00000+CC0000092240+0000092240+000000000+000012927+0000105167+           I90000000000+0000000000+Z
250334001250334065-003701     250334006001023712912MUSICAL SAXOPHONE      0000002000+00004385+00000+0001T032889290000                    1400 1IC7451ICV             Z
250334002250334265-001646     250334006001023755902BATTERY OPERATED CAR   0000001000+00004385+00000+0001T032889290000                    1400 1IC7101ICV             Z
250334003250334174-000011     250334006001023523778W/MACHINE-BAG 50x40cm  0000001000+00001753+00000+0001T032889290000                    1400 1IC2051ICV             Z
250334004250334562-000080     250334006003000610587EDU WORLD GLOBE        0000002000+00005262+00000+0001T032889290000                    1400 1IC7551ICV             Z
250334005250334048-000820     250334006003000269846LANTERN B/O 15 LED     0000001000+00004385+00000+0001T032889290000                    1400 1IC3051ICV             Z
250334006250334051-600706     250334006003000604197S/GARDEN LIGHT 35cm PL 0000001000+00002367+00000+0001T032889290000                    1400 1IC8201ICV             Z
250334007250334028-085275     250334006003000092611BBQ LIGHTER FLEXIBLE   0000001000+00003507+00000+0001T032889290000                    1400 1IC3051ICV             Z
250334008250334586-011943     250334006001492119434WATCH KIDS BEZEL STRAP 0000001000+00008771+00000+0001T032889290000                    1400 1IC1601ICV             Z
250334009250334586-098613     250334006001492986135WATCH KIDS DIGITAL     0000001000+00004385+00000+0001T032889290000                    1400 1IC1601ICV             Z
250334010250334362-001000     250334006001023886903MAKE-UP TEEN EYE SHADOW0000002000+00003157+00000+0001T032889290000                    1400 1IC1601ICV             Z
250334011250334071-008231     250334006001023811332PENCIL-BAG 20cm        0000001000+00002630+00000+0001T032889290000                    1400 1IC1301ICV             Z
250334012250334006-000171-C   250334006003000609178BALLOONS 1PC D/GRN PRNT0000001000+00000218+00000+0001T032889290000                    1400 1IC1311ICV             Z
250334013250334006-000107     250334006003000587872BALLOONS ITS BOY/GIRL  0000001000+00001753+00000+0001T032889290000                    1400 1IC1311ICV             Z
250334014250334112-116069     250334006009681820277TCS CARRIER BAG JUMBO  0000001000+00000048+00000+0001T032889290000                    1400 1IC0901ICV             Z
250334015250334162-094342     250334006001492943428#TAG NAVY GRAPHIC BIB  0000001000+00002630+00000+0001T032889290000                    1400 1IC1601ICV             Z
250334016250334265-000011     250334006003000609581B/O HOVER BALL         0000001000+00017542+00000+0001T032889290000                    1400 1IC7101ICV             Z
250334017250334028-000031     250334006003000270897COOLER-BAG THERMAL 6PK 0000001000+00003507+00000+0001T032889290000                    1400 1IC3051ICV             Z
250334018250334006-000171-A   250334006003000608935BALLOONS 1PC PINK PRNT 0000004000+00000218+00000+0001T032889290000                    1400 1IC1311ICV             Z
250334019250334006-000170-A   250334006003000608065BALLOONS 1PC PINK      0000009000+00000218+00000+0001T032889290000                    1400 1IC1311ICV             Z
250334020250334006-000170-K   250334006003000609284BALLOONS 1PC PURPLE    0000001000+00000218+00000+0001T032889290000                    1400 1IC1311ICV             Z
250334021250334030-003579     250334006001023999351THERMOMETER B-FLY 35CM 0000001000+00003946+00000+0001T032889290000                    1400 1IC5051ICV             Z
250334022250334565-000017     250334006003000672516NOVELTY TONGUE SLING   0000001000+00001753+00000+0001T032889290000                    1400 1IC7451ICV             Z
M17021391                              CASH        CCSLAVE 3                       Z-REPORT No.   452TOTAL (Sales - Refunds)              0.00       CASH TO BE BANKED                    0.00       DEBIT CARDS                          0.00       CREDIT CARDS                         0.00       Z-READING                            0.00       AIRTIME DEBIT CARD SALES             0.00       AIRTIME CARD SALES                   0.00       OVERS/UNDERS                         0.00       AIRTIME CASH SALES                   0.00       GIFT CARDS                           0.00       GIFT CARD CASH SALES                 0.00       T O T A L  CASH PAYOUTS              0.00                                                                                                                                                                                                                                                                                                                                                      Z
M17021392                              CASH        CCABSENT                                                                                                                                                                                          ANNUAL LEAVE                                                                                                                                                                                    DAY OFF                                                                                                                                                                                         COMMENTS                                                                                                                                                                                                                                                                                                                                                                                       Z
Y17021300                                          CC00000000000000+000000
ZCC17021405513 SLAVE 3      SALES DATA                     NEXT INVOICE NO.  250335 0453
L55914800357275-001-002       CC1702131416191ICSHEENA COETZEE                                                                                                                                                                                                                                                                                                                                                                                                                                                                                                                                                                                                                                                                                                                                                                                                                                                                                                                                                                                       Z
L55914800357275-002-002       CC1702131417091ICSHEENA COETZEE                                                                                                                                                                                                                                                                                                                                                                                                                                                                                                                                                                                                                                                                                                                                                                                                                                                                                                                                                                                       Z
L56602300357004-001-002       CC1702131417581ICSHEENA COETZEE                                                                                                                                                                                                                                                                                                                                                                                                                                                                                                                                                                                                                                                                                                                                                                                                                                                                                                                                                                                       Z
L56602300357004-002-002       CC1702131419441ICSHEENA COETZEE                                                                                                                                                                                                                                                                                                                                                                                                                                                                                                                                                                                                                                                                                                                                                                                                                                                                                                                                                                                       Z
L56869400355246-001-002       CC1702131419371ICSHEENA COETZEE                                                                                                                                                                                                                                                                                                                                                                                                                                                                                                                                                                                                                                                                                                                                                                                                                                                                                                                                                                                       Z
L56869400355246-002-002       CC1702131418131ICSHEENA COETZEE                                                                                                                                                                                                                                                                                                                                                                                                                                                                                                                                                                                                                                                                                                                                                                                                                                                                                                                                                                                       Z
L57100900356551-001-002       CC1702131417421ICSHEENA COETZEE                                                                                                                                                                                                                                                                                                                                                                                                                                                                                                                                                                                                                                                                                                                                                                                                                                                                                                                                                                                       Z
L57100900356551-002-002       CC1702131417111ICSHEENA COETZEE                                                                                                                                                                                                                                                                                                                                                                                                                                                                                                                                                                                                                                                                                                                                                                                                                                                                                                                                                                                       Z
L57137700356402-001-003       CC1702131415441ICSHEENA COETZEE                                                                                                                                                                                                                                                                                                                                                                                                                                                                                                                                                                                                                                                                                                                                                                                                                                                                                                                                                                                       Z
L57137700356402-002-003       CC1702131419401ICSHEENA COETZEE                                                                                                                                                                                                                                                                                                                                                                                                                                                                                                                                                                                                                                                                                                                                                                                                                                                                                                                                                                                       Z
L57137700356402-003-003       CC1702131423281ICSHEENA COETZEE                                                                                                                                                                                                                                                                                                                                                                                                                                                                                                                                                                                                                                                                                                                                                                                                                                                                                                                                                                                       Z
L57280300357098-001-001       CC1702131417271ICSHEENA COETZEE                                                                                                                                                                                                                                                                                                                                                                                                                                                                                                                                                                                                                                                                                                                                                                                                                                                                                                                                                                                       Z
L57282000356948-001-001       CC1702131415051ICSHEENA COETZEE                                                                                                                                                                                                                                                                                                                                                                                                                                                                                                                                                                                                                                                                                                                                                                                                                                                                                                                                                                                       Z
L57782300356673-001-002       CC1702131416511ICSHEENA COETZEE                                                                                                                                                                                                                                                                                                                                                                                                                                                                                                                                                                                                                                                                                                                                                                                                                                                                                                                                                                                       Z
L57782300356673-002-002       CC1702131416341ICSHEENA COETZEE                                                                                                                                                                                                                                                                                                                                                                                                                                                                                                                                                                                                                                                                                                                                                                                                                                                                                                                                                                                       Z
L58195800359980-001-006       CC1702131425491ICSHEENA COETZEE                                                                                                                                                                                                                                                                                                                                                                                                                                                                                                                                                                                                                                                                                                                                                                                                                                                                                                                                                                                       Z
L58195800359980-002-006       CC1702131426171ICSHEENA COETZEE                                                                                                                                                                                                                                                                                                                                                                                                                                                                                                                                                                                                                                                                                                                                                                                                                                                                                                                                                                                       Z
L58195800359980-003-006       CC1702131426031ICSHEENA COETZEE                                                                                                                                                                                                                                                                                                                                                                                                                                                                                                                                                                                                                                                                                                                                                                                                                                                                                                                                                                                       Z
L58195800359980-004-006       CC1702131427071ICSHEENA COETZEE                                                                                                                                                                                                                                                                                                                                                                                                                                                                                                                                                                                                                                                                                                                                                                                                                                                                                                                                                                                       Z
L58195800359980-005-006       CC1702131427241ICSHEENA COETZEE                                                                                                                                                                                                                                                                                                                                                                                                                                                                                                                                                                                                                                                                                                                                                                                                                                                                                                                                                                                       Z
L58195800359980-006-006       CC1702131426501ICSHEENA COETZEE                                                                                                                                                                                                                                                                                                                                                                                                                                                                                                                                                                                                                                                                                                                                                                                                                                                                                                                                                                                       Z
L58203200358698-001-001       CC1702131414461ICSHEENA COETZEE                                                                                                                                                                                                                                                                                                                                                                                                                                                                                                                                                                                                                                                                                                                                                                                                                                                                                                                                                                                       Z
L58343400359855-001-002       CC1702131414101ICSHEENA COETZEE                                                                                                                                                                                                                                                                                                                                                                                                                                                                                                                                                                                                                                                                                                                                                                                                                                                                                                                                                                                       Z
L58343400359855-002-002       CC1702131414271ICSHEENA COETZEE                                                                                                                                                                                                                                                                                                                                                                                                                                                                                                                                                                                                                                                                                                                                                                                                                                                                                                                                                                                       Z
L58358600358413-001-003       CC1702131425141ICSHEENA COETZEE                                                                                                                                                                                                                                                                                                                                                                                                                                                                                                                                                                                                                                                                                                                                                                                                                                                                                                                                                                                       Z
L58358600358413-002-003       CC1702131425341ICSHEENA COETZEE                                                                                                                                                                                                                                                                                                                                                                                                                                                                                                                                                                                                                                                                                                                                                                                                                                                                                                                                                                                       Z
L58358600358413-003-003       CC1702131425071ICSHEENA COETZEE                                                                                                                                                                                                                                                                                                                                                                                                                                                                                                                                                                                                                                                                                                                                                                                                                                                                                                                                                                                       Z
L58364000360190-001-001       CC1702131419281ICSHEENA COETZEE                                                                                                                                                                                                                                                                                                                                                                                                                                                                                                                                                                                                                                                                                                                                                                                                                                                                                                                                                                                       Z
F094062496-028120         1701131320450000022ICSLAVE 3
F094090496-028122         1701131212090000022ICSLAVE 3
F094126463-000501         1701131329190000042ICSLAVE 3
F094821304-001011         1702101033130000221ICSLAVE 3
F094833022-002107         1702101033210000391ICSLAVE 3
V5591480000002107         1702101033210000391ICSLAV               000000000000000170213000000   SLAVE 3     000000000000357275               02
V5660230000002107         1702101033210000391ICSLAV               000000000000000170213000000   SLAVE 3     000000000000357004               02
V5686940000002107         1702101033210000391ICSLAV               000000000000000170213000000   SLAVE 3     000000000000355246               02
V5710090000002107         1702101033210000391ICSLAV               000000000000000170213000000   SLAVE 3     000000000000356551               02
V5713770000002107         1702101033210000391ICSLAV               000000000000000170213000000   SLAVE 3     000000000000356402               03
V5728030000002107         1702101033210000391ICSLAV               000000000000000170213000000   SLAVE 3     000000000000357098               01
V5728200000002107         1702101033210000391ICSLAV               000000000000000170213000000   SLAVE 3     000000000000356948               01
V5778230000002107         1702101033210000391ICSLAV               000000000000000170213000000   SLAVE 3     000000000000356673               02
V5819580000002107         1702101033210000391ICSLAV               000000000000000170213000000   SLAVE 3     000000000000359980               06
V5820320000002107         1702101033210000391ICSLAV               000000000000000170213000000   SLAVE 3     000000000000358698               01
V5834340000002107         1702101033210000391ICSLAV               000000000000000170213000000   SLAVE 3     000000000000359855               02
V5835860000002107         1702101033210000391ICSLAV               000000000000000170213000000   SLAVE 3     000000000000358413               03
V5836400000002107         1702101033210000391ICSLAV               000000000000000170213000000   SLAVE 3     000000000000360190               01
X CC Slave 3 First invoice 250332 170213 Last invoice 250334 170213 Next invoice 250335 Total number of records 000000108 clbackup completed 05:51:50
