352172000352172               352172               170213CD     1400+00000+CD0000003507+0000003507+000000000+000000491+0000003990+0000000008+I20000000000+0000003990+Z
352172001352172018-005009     352172006001023725608MUG W/PLUSH-BEAR LOVE  0000001000+00003507+00000+0001T   00003507+0000000941          1400 BT3515               1AZ
352173000352173               352173               170213CD     1400+00000+CD0000007450+0000007450+000000000+000001045+0000008495+0000000000+I40000008495+0000000000+Z
352173001352173071-000006     352173006001023732613PENCIL REFILLABLE 6PK  0000001000+00001753+00000+0001T   00001753+0000000944          1400 2IC130               1DZ
352173002352173105-007405     352173006003000629558CONTAINER MINI 300ml   0000001000+00002630+00000+0001T   00003069+0008170944          1400 2IC210               1DZ
352173003352173159-000149     352173006003000010998SOAP-DISH FOUR-LEAF    0000001000+00001314+00000+0001T   00001314+0000000944          1400 2IC200               1DZ
352173004352173084-006996     352173006003000092833NAIL CLIPPER 6cm       0000001000+00001753+00000+0001T   00001753+0000000944          1400 2IC200               1DZ
352174000352174               352174               170213CD     1400+00000+CD0000009117+0000009117+000000000+000001279+0000010396+0000000000+I40000010396+0000000000+Z
352174001352174077-000115-B   352174006003000181025GIFT-WRAP PPR 700MMX2M 0000003000+00002630+00000+0001T   00002630+0000001004          1400 BT3112               1AZ
352174002352174077-000245     352174006001023759214GIFT-RIBBON METALLICx2 0000001000+00001227+00000+0001T   00001227+0000001004          1400 BT3112               1AZ
352175000352175               352175               170213CD     1400+00000+CD0000001349+0000001349+000000000+000000189+0000001530+0000000008+I20000000000+0000001530+Z
352175001352175077-000407     352175006003000145096G/BAG PP 19X26X8CM     0000001000+00001314+00000+0001T   00001314+0000001025          1400 BT3112               1AZ
352175002352175112-116038     352175006009681820246TCS CARRIER BAG MIDI   0000001000+00000035+00000+0001T   00000035+0000001025          1400 BT3090               1AZ
352176000352176               352176               170213CD     1400+00000+CD0000000437+0000000437+000000000+000000062+0000000490+0000000009+I20000000000+0000000490+Z
352176001352176080-000133     352176006003000535613CARD&ENV MINI ASTD DSGN0000001000+00000437+00000+0001T   00000437+0000001026          1400 BT3112               1AZ
352177000352177               352177               170213CD     1400+00000+CD0000013855+0000013855+000000000+000001941+0000015790+0000000006+I20000000000+0000015790+Z
352177001352177018-050000     352177006003000412679MUG OCC LOVE TWIN BEAR 0000001000+00006139+00000+0001T   00006139+0000001028          1400 BT3515               1AZ
352177002352177030-000031-A   352177006003000457588PLAQUE W/WORDS ASSTD   0000001000+00004385+00000+0001T   00004823+0006471028          1400 BT3505               1AZ
352177003352177077-000290     352177006001023902023GIFT BOX 26x32x13cm    0000001000+00001753+00000+0001T   00001753+0000001028          1400 BT3112               1AZ
352177004352177080-000124     352177006003000297733CARD & ENV VALENTINES  0000001000+00001578+00000+0001T   00001578+0000001028          1400 BT3112               1AZ
352178000352178               352178               170213CD     1400+00000+CD0000002665+0000002665+000000000+000000374+0000003030+0000000009+I20000000000+0000003030+Z
352178001352178031-005821     352178006001023667786P/FRAME-GLS CLIP 21X30 0000001000+00002630+00000+0001T   00002630+0000001032          1400 BT3510               1AZ
352178002352178112-116038     352178006009681820246TCS CARRIER BAG MIDI   0000001000+00000035+00000+0001T   00000035+0000001032          1400 BT3090               1AZ
352179000352179               352179               170213CD     1400+00000+CD0000001090+0000001090+000000000+000000155+0000001240+0000000005+I20000000000+0000001240+Z
352179001352179006-000172-D   352179006003000609932METALLIC GOLD          0000001000+00000218+00000+0001T   00000218+0000001034          1400 BT3131               1AZ
352179002352179006-000172-A   352179006003000609765BALLOONS METALLIC PINK 0000001000+00000218+00000+0001T   00000218+0000001034          1400 BT3131               1AZ
352179003352179006-000171-E   352179006003000609406BALLOONS 1PC BLUE PRNT 0000001000+00000218+00000+0001T   00000218+0000001034          1400 BT3131               1AZ
352179004352179006-000172-K   352179006003000610334BALLOONS METALLIC PURPL0000001000+00000218+00000+0001T   00000218+0000001034          1400 BT3131               1AZ
352179005352179006-000170-B   352179006003000608300BALLOONS 1PC L/GREEN   0000001000+00000218+00000+0001T   00000218+0000001034          1400 BT3131               1AZ
352180000352180               352180               170213CD     1400+00000+CD0000001402+0000001402+000000000+000000197+0000001590+0000000009+I20000000000+0000001590+Z
352180001352180046-000011     352180004897006172994BATTERIES SIZE:AA  2PCE0000001000+00001402+00000+0001T   00001402+0000001045          1400 BT3312               1AZ
352181000352181               352181               170213CD     1400+00000+CD0000005120+0000005120+000000000+000000717+0000005830+0000000007+I20000000000+0000005830+Z
352181001352181031-000923     352181006001023669933P/FRAME BLK W/WORDS    0000001000+00003507+00000+0001T   00003507+0000001048          1400 BT3510               1AZ
352181002352181080-000124     352181006003000297733CARD & ENV VALENTINES  0000001000+00001578+00000+0001T   00001578+0000001048          1400 BT3112               1AZ
352181003352181112-116038     352181006009681820246TCS CARRIER BAG MIDI   0000001000+00000035+00000+0001T   00000035+0000001048          1400 BT3090               1AZ
352182000352182               352182               170213CD     1400+00000+CD0000004996+0000004996+000000000+000000701+0000005690+0000000007+I20000000000+0000005690+Z
352182001352182077-000904     352182006003000410682G/WRAP 700mmx1m PATTERN0000001000+00001753+00000+0001T   00001753+0000001129          1400 BT3112               1AZ
352182002352182077-000924     352182006003000414055G/WRAP 700mmx2m WEDDING0000001000+00002192+00000+0001T   00002192+0000001129          1400 BT3112               1AZ
352182003352182903-002852     352182000000087108040MENTOS ROLL SPEARMINT  0000001000+00001051+00000+0001T   00001051+0000001129          1400 BT3150               1AZ
352183000352183               352183               170213CD     1400+00000+CD0000001753+0000001753+000000000+000000246+0000001990+0000000009+I20000000000+0000001990+Z
352183001352183077-000454     352183006003000285266G/BAG METALLIC LRG EMB 0000001000+00001753+00000+0001T   00001753+0000001157          1400 BT3112               1AZ
352184000352184               352184               170213CD     1400+00000+CD0000003507+0000003507+000000000+000000491+0000003990+0000000008+I20000000000+0000003990+Z
352184001352184018-000136     352184006001023659026MUG OCC LOVE W/PLUSH   0000001000+00003507+00000+0001T   00003507+0000001159          1400 BT3515               1AZ
352185000352185               352185               170213CD     1400+00000+CD0000003944+0000003944+000000000+000000553+0000004490+0000000007+I20000000000+0000004490+Z
352185001352185034-000329     352185006001023564290BOTTLE-BRUSHES WHT 2PCE0000001000+00001314+00000+0001T   00001314+0000001200          1400 BT3215               1AZ
352185002352185027-009025     352185006003962000747DUSTPAN-SET PL         0000001000+00002630+00000+0001T   00002630+0000001200          1400 BT3212               1AZ
352186000352186               352186               170213CD     1400+00000+CD0000005295+0000005295+000000000+000000743+0000006038+0000000000+I40000006038+0000000000+Z
352186001352186105-001038     352186006003000615315CONTAINER W/VENT 1450ml0000002000+00002630+00000+0001T   00003507+0008161210          1400 BT3210               1AZ
352186002352186112-116038     352186006003000534906TCS CARRIER BAG MIDI   0000001000+00000035+00000+0001T   00000035+0000001210          1400 BT3090               1AZ
352187000352187               352187               170213CD     1400+00000+CD0000048104+0000048104+000000000+000006737+0000054841+0000000000+I40000054841+0000000000+Z
352187001352187019-000076     352187006001023757159V/GLASS 25CM C/DESIGN  0000001000+00008771+00000+0001T   00008771+0000001213          1400 BT3510               1AZ
352187002352187105-007525     352187006003000487707STORAGE BOX CLEAR 21L  0000001000+00016665+00000+0001T   00016665+0000001213          1400 BT3210               1AZ
352187003352187105-007580     352187006003000486038STORAGE BOX CLEAR DEPO 0000002000+00006139+00000+0001T   00007893+0008171213          1400 BT3210               1AZ
352187004352187016-006550     352187006001023870483S/JAR GLS FROSTED 950ml0000001000+00003507+00000+0001T   00004385+0008121213          1400 BT3300               1AZ
352187005352187486-001012     352187006001023820907CLOCK ALARM SQR 10X12CM0000001000+00004385+00000+0001T   00004385+0000001213          1400 BT3510               1AZ
352187006352187046-000012-A   352187006003000208296BATTERIES H/POWER SZ:AA0000001000+00002192+00000+0001T   00002192+0000001213          1400 BT3312               1AZ
352187007352187306-000020     352187006001023743145POCKET-TISSUES 10PCE   0000001000+00000306+00000+0001T   00000306+0000001213          1400 BT3200               1AZ
352188000352188               352188               170213CD     1400+00000+CD0000015345+0000015345+000000000+000002150+0000017495+0000000000+I40000017495+0000000000+Z
352188001352188567-011355     352188006003000638246BK STICKER DINOSAUR    0000001000+00003507+00000+0001T   00003507+0000001216          1400 BT3757               1AZ
352188002352188567-011492     352188000076645122148BK ACTIVITY 96P SCHOOL 0000001000+00002630+00000+0001T   00002630+0000001216          1400 BT3757               1AZ
352188003352188567-011306     352188006003000598434BOOK ACTIVITY TRACE    0000001000+00003069+00000+0001T   00003069+0000001216          1400 BT3757               1AZ
352188004352188560-000229     352188006003000469468ANIMALS BIG EYES ASSTD 0000001000+00006139+00000+0001T   00006139+0000001216          1400 BT3745               1AZ
352189000352189               352189               170213CD     1400+00000+CD0000006837+0000006837+000000000+000000958+0000007795+0000000000+I40000007795+0000000000+Z
352189001352189006-000190     352189006003000685530BALLOONS LOVE 81x91cm  0000001000+00004385+00000+0001T   00004385+0000001218          1400 BT3131               1AZ
352189002352189006-001000     352189006003000093779HELIUM BALLOON FILL    0000004000+00000613+00000+0001T   00000613+0000001218          1400 BT3131               1AZ
352190000352190               352190               170213CD     1400+00000+CD0000005260+0000005260+000000000+000000738+0000005990+0000000008+I20000000000+0000005990+Z
352190001352190463-000366     352190006001023789136SWIM W/NOODLE 150cm    0000002000+00002630+00000+0001T   00002630+0000001218          1400 BT3785               1AZ
352191000352191               352191               170213CD     1400+00000+CD0000007927+0000007927+000000000+000001110+0000009030+0000000007+I20000000000+0000009030+Z
352191001352191065-000053     352191006001023756879MUSICAL HAMMER         0000001000+00003507+00000+0001T   00003507+0000001219          1400 BT3745               1AZ
352191002352191079-130010     352191006003000496624ART+CRAFT FOAM DOLLS   0000001000+00004385+00000+0001T   00004385+0000001219          1400 BT3130               1AZ
352191003352191112-116038     352191006003000534906TCS CARRIER BAG MIDI   0000001000+00000035+00000+0001T   00000035+0000001219          1400 BT3090               1AZ
352192000352192               352192               170213CD     1400+00000+CD0000017485+0000017485+000000000+000002450+0000019930+0000000005+I20000000000+0000019930+Z
352192001352192124-002025     352192006003000061419BISCUIT TIN RND 19CM   0000001000+00002630+00000+0001T   00002630+0000001221          1400 BT3300               1AZ
352192002352192024-091100     352192006001023914224BAKING-CUPS PAPER 100PC0000001000+00001753+00000+0001T   00001753+0000001221          1400 BT3300               1AZ
352192003352192002-000879     352192006001023770004STRAINER TEA 7cm H/H   0000001000+00000350+00000+0001T   00000350+0000001221          1400 BT3300               1AZ
352192004352192024-000170     352192006003000120642SILICONE CAKE-PAN RND  0000001000+00007455+00000+0001T   00007455+0000001221          1400 BT3300               1AZ
352192005352192024-000174     352192006003000504664SILICONE CUP-PAN 6-CUP 0000001000+00005262+00000+0001T   00005262+0000001221          1400 BT3300               1AZ
352192006352192112-116038     352192006003000534906TCS CARRIER BAG MIDI   0000001000+00000035+00000+0001T   00000035+0000001221          1400 BT3090               1AZ
352193000352193               352193               170213CD     1400+00000+CD0000003506+0000003506+000000000+000000492+0000003990+0000000008+I20000000000+0000003990+Z
352193001352193366-000282     352193006003000611027DRESS UP SLEEVE TATTOO 0000002000+00001753+00000+0001T   00001753+0000001222          1400 BT3131               1AZ
352194000352194               352194               170213CD     1400+00000+CD0000002630+0000002630+000000000+000000369+0000002990+0000000009+I20000000000+0000002990+Z
352194001352194004-071192     352194006003000528813USB CABLE 1.0m         0000001000+00002630+00000+0001T   00002630+0000001223          1400 BT3310               1AZ
352195000352195               352195               170213CD     1400+00000+CD0000001490+0000001490+000000000+000000209+0000001699+0000000000+I40000001699+0000000000+Z
352195001352195140-001004     352195006001023880932FLY-RIBBONS 4PCE PL    0000001000+00001490+00000+0001T   00001490+0000001224          1400 BT3830               1AZ
352196000352196               352196               170213CD     1400+00000+CD0000001753+0000001753+000000000+000000246+0000001990+0000000009+I20000000000+0000001990+Z
352196001352196046-002032-PK2 352196004897006175063BATTERIES CR-2032  2PCE0000001000+00001753+00000+0001T   00001753+0000001227          1400 BT3312               1AZ
352197000352197               352197               170213CD     1400+00000+CD0000014063+0000014063+000000000+000001969+0000016032+0000000000+I40000016032+0000000000+Z
352197001352197018-000136     352197006001023659026MUG OCC LOVE W/PLUSH   0000004000+00003507+00000+0001T   00003507+0000001229          1400 BT3515               1AZ
352197002352197112-116038     352197006003000534906TCS CARRIER BAG MIDI   0000001000+00000035+00000+0001T   00000035+0000001229          1400 BT3090               1AZ
352198000352198               352198               170213CD     1400+00000+CD0000056088+0000056088+000000000+000007862+0000063950+0000000000+I40000063950+0000000000+Z
352198001352198112-116038     352198006003000534906TCS CARRIER BAG MIDI   0000002000+00000035+00000+0001T   00000035+0000001232          1400 BT3090               1AZ
352198002352198077-000011-X   352198006001023809827TISSUE-WRAP SILVER 10PC0000001000+00001753+00000+0001T   00001753+0000001232          1400 BT3112               1AZ
352198003352198077-000314     352198006003000181148GIFT-BAG 11X14CM MATT  0000002000+00000876+00000+0001T   00000876+0000001232          1400 BT3112               1AZ
352198004352198077-000299     352198006003000395576G/BAG 32x25cm LRG LOVE 0000001000+00001490+00000+0001T   00001490+0000001232          1400 BT3112               1AZ
352198005352198079-011526     352198006003000408375GLITTER & SAND ART     0000001000+00003507+00000+0001T   00003507+0000001232          1400 BT3130               1AZ
352198006352198071-000306     352198006001023715371STENCILS ART FUN SET   0000001000+00003507+00000+0001T   00003507+0000001232          1400 BT3130               1AZ
352198007352198566-000056     352198006003000661381STICKER DRESS UP GIRL  0000001000+00001753+00000+0001T   00001753+0000001232          1400 BT3130               1AZ
352198008352198206-000620     352198006003000631797BACK SCRATCHER EXTEND  0000001000+00002630+00000+0001T   00002630+0000001232          1400 BT3321               1AZ
352198009352198018-000170     352198006001023775528MUG OCC. LOVE 2PC MINI 0000001000+00002192+00000+0001T   00002192+0000001232          1400 BT3515               1AZ
352198010352198079-000206     352198006003000639700PENCIL CRAYONS THERAPY 0000001000+00001753+00000+0001T   00001753+0000001232          1400 BT3130               1AZ
352198011352198079-000201     352198006003000161430P/CRAYONS THERAPY 10PCE0000001000+00002630+00000+0001T   00002630+0000001232          1400 BT3130               1AZ
352198012352198065-006080     352198006003000466740WOODEN 2PC MARACAS 11cm0000001000+00003507+00000+0001T   00003507+0000001232          1400 BT3745               1AZ
352198013352198065-003699     352198006001023690883FLUTE RECORDER PL      0000001000+00001490+00000+0001T   00001490+0000001232          1400 BT3745               1AZ
352198014352198567-011344     352198006003000630714BK COLOURING THERAPY 640000002000+00003507+00000+0001T   00003507+0000001232          1400 BT3757               1AZ
352198015352198174-000303     352198006003000053605TRAVEL NECK WALLET     0000001000+00003507+00000+0001T   00003507+0000001232          1400 BT3205               1AZ
352198016352198071-010481     352198006001023417220MAGNIFYING-GLASS 90mm-D0000001000+00001753+00000+0001T   00001753+0000001232          1400 BT3130               1AZ
352198017352198007-000718     352198006003000226672NOTE MAGNETIC WKLY PLNR0000001000+00002630+00000+0001T   00002630+0000001232          1400 BT3130               1AZ
352198018352198079-000126     352198006003000661633ANIMAL PUZZLE PACK     0000002000+00001753+00000+0001T   00001753+0000001232          1400 BT3130               1AZ
352198019352198079-000345     352198006001023890146FELT-TIP PENS 8PCE     0000001000+00003069+00000+0001T   00003069+0000001232          1400 BT3130               1AZ
352198020352198566-001118     352198006003000682171STICKERS CELL PHONE    0000001000+00001753+00000+0001T   00001753+0000001232          1400 BT3130               1AZ
352198021352198566-000056     352198006003000661381STICKER DRESS UP GIRL  0000001000+00001753+00000+0001T   00001753+0000001232          1400 BT3130               1AZ
352198022352198079-000358     352198006003000591046ART+CRAFT FELT-TIP PENS0000001000+00003069+00000+0001T   00003069+0000001232          1400 BT3130               1AZ
352199000352199               352199               170213CD     1400+00000+CD0000005262+0000005262+000000000+000000737+0000005990+0000000009+I20000000000+0000005990+Z
352199001352199304-001116     352199006003000426164F/BUNCH ROSES 12-HEAD  0000001000+00005262+00000+0001T   00005262+0000001233          1400 BT3510               1AZ
352200000352200               352200               170213CD     1400+00000+CD0000002192+0000002192+000000000+000000307+0000002490+0000000009+I20000000000+0000002490+Z
352200001352200566-000352     352200006001023809261STICKERS LASER ASSTD   0000001000+00002192+00000+0001T   00002192+0000001234          1400 BT3130               1AZ
352201000352201               352201               170213CD     1400+00000+CD0000002278+0000002278+000000000+000000320+0000002590+0000000008+I20000000000+0000002590+Z
352201001352201140-006004     352201006001023628077FLY-SWATTER RUBBER     0000002000+00001139+00000+0001T   00001139+0000001234          1400 BT3830               1AZ
352202000352202               352202               170213CD     1400+00000+CD0000002192+0000002192+000000000+000000307+0000002490+0000000009+I20000000000+0000002490+Z
352202001352202034-001487     352202006003000622405COOEY BABY FOOD CONTAIN0000001000+00002192+00000+0001T   00002192+0000001235          1400 BT3215               1AZ
352203000352203               352203               170213CD     1400+00000+CD0000002664+0000002664+000000000+000000374+0000003030+0000000008+I20000000000+0000003030+Z
352203001352203036-000606     352203006003000322213WASHING PEGS PACK 20   0000001000+00000876+00000+0001T   00001314+0008191238          1400 BT3212               1AZ
352203002352203047-000508     352203006009636901983PLG EURODAPTOR 3x5A-2PN0000001000+00001753+00000+0001T   00001753+0000001238          1400 BT3880               1AZ
352203003352203112-116038     352203006003000534906TCS CARRIER BAG MIDI   0000001000+00000035+00000+0001T   00000035+0000001238          1400 BT3090               1AZ
352204000352204               352204               170213CD     1400+00000+CD0000014061+0000014061+000000000+000001972+0000016033+0000000000+I40000016033+0000000000+Z
352204001352204019-071601     352204006001023771995RIVER-STONES 1kg WHITE 0000004000+00002630+00000+0001T   00002630+0000001242          1400 BT3510               1AZ
352204002352204200-003019     352204006003000510856REFUSE BAGS 10PC D/STRN0000001000+00001314+00000+0001T   00001753+0008171242          1400 BT3214               1AZ
352204003352204159-000887     352204006001023730817HOOKS PL SUCTION 9PCE  0000001000+00002192+00000+0001T   00002192+0000001242          1400 BT3200               1AZ
352204004352204112-116038     352204006009681820246TCS CARRIER BAG MIDI   0000001000+00000035+00000+0001T   00000035+0000001242          1400 BT3090               1AZ
352205000352205               352205               170213CD     1400+00000+CD0000007892+0000007892+000000000+000001106+0000008990+0000000008+I20000000000+0000008990+Z
352205001352205077-000289     352205006001023901996GIFT BOX 20x25x11cm    0000001000+00001753+00000+0001T   00001753+0000001245          1400 BT3112               1AZ
352205002352205018-050000     352205006003000412679MUG OCC LOVE TWIN BEAR 0000001000+00006139+00000+0001T   00006139+0000001245          1400 BT3515               1AZ
352206000352206               352206               170213CD     1400+00000+CD0000001314+0000001314+000000000+000000184+0000001490+0000000008+I20000000000+0000001490+Z
352206001352206078-009100     352206006008741002349ALL-CLEAR GLUE 25ml CRD0000001000+00001314+00000+0001T   00001314+0000001246          1400 BT3810               1AZ
352207000352207               352207               170213CD     1400+00000+CD0000013238+0000013238+000000000+000001856+0000015094+0000000000+I40000015094+0000000000+Z
352207001352207105-001247     352207006003000623310CONTAINER RECT 3PCE    0000001000+00002630+00000+0001T   00002630+0000001251          1400 BT3210               1AZ
352207002352207027-009030     352207006002814400100DUSTPAN PL             0000001000+00001402+00000+0001T   00001402+0000001251          1400 BT3212               1AZ
352207003352207105-008002     352207006002923015905CONTAINER FOODSAVER 8L 0000001000+00004385+00000+0001T   00004385+0000001251          1400 BT3210               1AZ
352207004352207464-000107     352207000073854318089PLAY-CARDS 2nd (SINGLE)0000001000+00003069+00000+0001T   00003069+0000001251          1400 BT3785               1AZ
352207005352207036-000606     352207006003000322213WASHING PEGS PACK 20   0000002000+00000876+00000+0001T   00001314+0008191251          1400 BT3212               1AZ
352208000352208               352208               170213CD     1400+00000+CD0000028617+0000028617+000000000+000004010+0000032627+0000000000+I40000032627+0000000000+Z
352208001352208079-000512     352208006001023635853CRAYONS WAX 12-COLOUR  0000003000+00001490+00000+0001T   00001490+0000001254          1400 BT3130               1AZ
352208002352208567-011488     352208000805219343531BK COLOURING 96P MINI  0000001000+00003507+00000+0001T   00003507+0000001254          1400 BT3757               1AZ
352208003352208567-011485     352208006003000663538BK COLOURING 96P BATMAN0000002000+00003507+00000+0001T   00003507+0000001254          1400 BT3757               1AZ
352208004352208159-000684     352208006001023776532BATH BODY-GLOVE 18cm   0000001000+00002630+00000+0001T   00002630+0000001254          1400 BT3200               1AZ
352208005352208077-000382     352208006003000247820GIFT-BAG MED 18X23CM   0000001000+00001753+00000+0001T   00001753+0000001254          1400 BT3112               1AZ
352208006352208041-007031     352208006003000178124H/GLO BUBBLE-BATH 480ml0000001000+00003069+00000+0001T   00003069+0000001254          1400 BT3200               1AZ
352208007352208567-075470     352208006003000643264BK NOVEL CATEGORY B    0000001000+00006139+00000+0001T   00006139+0000001254          1400 BT3757               1AZ
352208008352208112-116038     352208006003000534906TCS CARRIER BAG MIDI   0000001000+00000035+00000+0001T   00000035+0000001254          1400 BT3090               1AZ
352209000352209               352209               170213CD     1400+00000+CD0000001314+0000001314+000000000+000000184+0000001490+0000000008+I20000000000+0000001490+Z
352209001352209077-000310     352209006001023608635GIFT-BAG 18X23CM GLOSS 0000001000+00001314+00000+0001T   00001314+0000001254          1400 BT3112               1AZ
352210000352210               352210               170213CD     1400+00000+CD0000014028-0000014028-000000000+000001964-0000016000-0000000008+I20000000000+0000016000-Z
352210001352210018-000136     352210006001023659026MUG OCC LOVE W/PLUSH   0000004000-00003507+00000+0001T   00003507+0000001258          1400 BT35152IC            1 Z
352211000352211               352211               170213CD     1400+00000+CD0000013801+0000013801+000000000+000001933+0000015730+0000000004+I20000000000+0000015730+Z
352211001352211048-071505     352211006001023714626TOUCH-LIGHTS 8cm  SET-20000001000+00004385+00000+0001T   00004385+0000001259          1400 BT3305               1AZ
352211002352211046-000010-A   352211006003000438778BATTERIES SIZE:AAA 4PCE0000001000+00002367+00000+0001T   00002367+0000001259          1400 BT3312               1AZ
352211003352211903-000616     352211006003000644827SWT HS SWORD 60cm      0000002000+00003507+00000+0001T   00003507+0000001259          1400 BT3150               1AZ
352211004352211112-116038     352211006003000534906TCS CARRIER BAG MIDI   0000001000+00000035+00000+0001T   00000035+0000001259          1400 BT3090               1AZ
352212000352212               352212               170213CD     1400+00000+CD0000001753+0000001753+000000000+000000246+0000001990+0000000009+I20000000000+0000001990+Z
352212001352212051-002402     352212006001023518347TRIGGER-SPRAYER  500ml 0000001000+00001753+00000+0001T   00001753+0000001302          1400 BT3820               1AZ
352213000352213               352213               170213CD     1400+00000+CD0000001227+0000001227+000000000+000000172+0000001390+0000000009+I20000000000+0000001390+Z
352213001352213077-000322     352213006001023677532GIFT-BAG 18X23CM E/D FL0000001000+00001227+00000+0001T   00001227+0000001303          1400 BT3112               1AZ
352214000352214               352214               170213CD     1400+00000+CD0000003980+0000003980+000000000+000000558+0000004530+0000000008+I20000000000+0000004530+Z
352214001352214563-000318-L   352214006003000407088SERVIETTES 33cm RED    0000001000+00002192+00000+0001T   00002192+0000001304          1400 BT3214               1AZ
352214002352214108-005005     352214006003000667451TRAY PL 29x21cm RECT   0000001000+00001753+00000+0001T   00001753+0000001304          1400 BT3210               1AZ
352214003352214112-116038     352214006003000534906TCS CARRIER BAG MIDI   0000001000+00000035+00000+0001T   00000035+0000001304          1400 BT3090               1AZ
352215000352215               352215               170213CD     1400+00000+CD0000021048+0000021048+000000000+000002948+0000023990+0000000006+I20000000000+0000023990+Z
352215001352215072-020353     352215006001023598097DOG/CAT-BOWL 17cm      0000002000+00001753+00000+0001T   00001753+0000001310          1400 BT3870               1AZ
352215002352215072-020236     352215006003000624447PET DOG CARRY BAG      0000001000+00017542+00000+0001T   00017542+0000001310          1400 BT3870               1AZ
352216000352216               352216               170213CD     1400+00000+CD0000001753+0000001753+000000000+000000246+0000001990+0000000009+I20000000000+0000001990+Z
352216001352216080-000100     352216006003000236114CARD & ENVELOPE BDAY   0000001000+00001753+00000+0001T   00001753+0000001316          1400 BT3112               1AZ
352217000352217               352217               170213CD     1400+00000+CD0000004645+0000004645+000000000+000000652+0000005297+0000000000+I40000005297+0000000000+Z
352217001352217039-000322     352217006001023524157B/CANDLES W/HOLDERS 24 0000001000+00001139+00000+0001T   00001139+0000001318          1400 BT3510               1AZ
352217002352217077-000308     352217006001023595812GIFT-BAG 33X45CM E/DAY 0000001000+00001753+00000+0001T   00001753+0000001318          1400 BT3112               1AZ
352217003352217077-000324     352217006001023677594GIFT-BAG 33X45CM E/D FL0000001000+00001753+00000+0001T   00001753+0000001318          1400 BT3112               1AZ
352218000352218               352218               170213CD     1400+00000+CD0000004769+0000004769+000000000+000000669+0000005430+0000000008+I20000000000+0000005430+Z
352218001352218016-006425     352218006001023998170S/JAR GLS CLIP W/RIBBON0000001000+00002630+00000+0001T   00002630+0000001324          1400 BT3300               1AZ
352218002352218903-000095     352218006001704011495SWT SPECKLED-EGGS 100G 0000001000+00002104+00000+0001T   00002104+0000001324          1400 BT3150               1AZ
352218003352218112-116038     352218006003000534906TCS CARRIER BAG MIDI   0000001000+00000035+00000+0001T   00000035+0000001324          1400 BT3090               1AZ
352219000352219               352219               170213CD     1400+00000+CD0000001753+0000001753+000000000+000000246+0000001990+0000000009+I20000000000+0000001990+Z
352219001352219077-000457     352219006003000285662G/BAG METALLIC JMB SOL 0000001000+00001753+00000+0001T   00001753+0000001325          1400 BT3112               1AZ
352220000352220               352220               170213CD     1400+00000+CD0000006480+0000006480+000000000+000000908+0000007388+0000000000+I40000007388+0000000000+Z
352220001352220079-009700-B   352220006003000547661PAPER SIRIO A4 WHITE   0000001000+00000306+00000+0001T   00000306+0000001327          1400 BT3130               1AZ
352220002352220018-055100     352220006003000524136TEAPOT PL W/STRAINER   0000001000+00006139+00000+0001T   00006139+0000001327          1400 BT3515               1AZ
352220003352220112-116038     352220006003000534906TCS CARRIER BAG MIDI   0000001000+00000035+00000+0001T   00000035+0000001327          1400 BT3090               1AZ
352221000352221               352221               170213CD     1400+00000+CD0000004382+0000004382+000000000+000000615+0000004990+0000000007+I20000000000+0000004990+Z
352221001352221903-002853     352221000000087108019MENTOS ROLL MINT       0000001000+00001051+00000+0001T   00001051+0000001328          1400 BT3150               1AZ
352221002352221159-000887     352221006001023730817HOOKS PL SUCTION 9PCE  0000001000+00002192+00000+0001T   00002192+0000001328          1400 BT3200               1AZ
352221003352221903-000087     352221006001704000161SWT SPECKLED-EGGS 50G  0000001000+00001139+00000+0001T   00001139+0000001328          1400 BT3150               1AZ
352222000352222               352222               170213CD     1400+00000+CD0000000035+0000000035+000000000+000000005+0000000040+0000000000+I20000000000+0000000040+Z
352222001352222112-116038     352222006003000534906TCS CARRIER BAG MIDI   0000001000+00000035+00000+0001T   00000035+0000001328          1400 BT3090               1AZ
352223000352223               352223               170213CD     1400+00000+CD0000013155+0000013155+000000000+000001843+0000014990+0000000008+I20000000000+0000014990+Z
352223001352223368-000637     352223006001023874092PLUSH BEAR SLEEPING LOV0000001000+00011402+00000+0001T   00012279+0006471332          1400 BT3745               1AZ
352223002352223077-000455     352223006003000285389G/BAG METALLIC LRG SOL 0000001000+00001753+00000+0001T   00001753+0000001332          1400 BT3112               1AZ
352224000352224               352224               170213CD     1400+00000+CD0000011402+0000011402+000000000+000001597+0000012999+0000000000+I40000012999+0000000000+Z
352224001352224368-000637     352224006001023874092PLUSH BEAR SLEEPING LOV0000001000+00011402+00000+0001T   00012279+0006471333          1400 BT3745               1AZ
352225000352225               352225               170213CD     1400+00000+CD0000000876+0000000876+000000000+000000123+0000000990+0000000009+I20000000000+0000000990+Z
352225001352225004-071216     352225006003000239900MOBILE PHONE CHARM ASST0000001000+00000876+00000+0001T   00000876+0000001334          1400 BT3310               1AZ
352226000352226               352226               170213CD     1400+00000+CD0000001613+0000001613+000000000+000000226+0000001830+0000000009+I20000000000+0000001830+Z
352226001352226077-000303     352226006001023593757GIFT-BAG PAPER MED     0000001000+00001578+00000+0001T   00001578+0000001334          1400 BT3112               1AZ
352226002352226112-116038     352226006003000534906TCS CARRIER BAG MIDI   0000001000+00000035+00000+0001T   00000035+0000001334          1400 BT3090               1AZ
352227000352227               352227               170213CD     1400+00000+CD0000007047+0000007047+000000000+000000989+0000008030+0000000006+I20000000000+0000008030+Z
352227001352227080-000112     352227006003000252749CARD&ENVLP BDAY-MUSICAL0000004000+00001753+00000+0001T   00001753+0000001335          1400 BT3112               1AZ
352227002352227112-116038     352227006003000534906TCS CARRIER BAG MIDI   0000001000+00000035+00000+0001T   00000035+0000001335          1400 BT3090               1AZ
352228000352228               352228               170213CD     1400+00000+CD0000013587+0000013587+000000000+000001906+0000015490+0000000003+I20000000000+0000015490+Z
352228001352228150-012228-H   352228006001023416773DOOR-STOPPERS SET-OF-2 0000005000+00001753+00000+0001T   00001753+0000001337          1400 BT3810               1AZ
352228002352228078-000480     352228006008741002332BOSTIK SHOE-REPAIR 25ml0000001000+00001753+00000+0001T   00001753+0000001337          1400 BT3810               1AZ
352228003352228088-000018     352228006003000103331AIR FRESHENER 280 ml   0000001000+00003069+00000+0001T   00003069+0000001337          1400 BT3212               1AZ
352229000352229               352229               170213CD     1400+00000+CD0000009643+0000009643+000000000+000001353+0000010990+0000000006+I20000000000+0000010990+Z
352229001352229089-000029     352229006003000092321K/CHAIN MOM POLY       0000001000+00002630+00000+0001T   00003507+0008121346          1400 BT3205               1AZ
352229002352229361-009105     352229006001023832016DOLLS FEEDING SET 3PC  0000001000+00002630+00000+0001T   00002630+0000001346          1400 BT3725               1AZ
352229003352229030-003700     352229006003000416790WALL DEC WDN ASTD WHT  0000001000+00002630+00000+0001T   00002630+0000001346          1400 BT3505               1AZ
352229004352229903-000610     352229006003000610518SWEET JUMBO BUBBLE GUM 0000001000+00001753+00000+0001T   00001753+0000001346          1400 BT3150               1AZ
352230000352230               352230               170213CD     1400+00000+CD0000008771+0000008771+000000000+000001228+0000009990+0000000009+I20000000000+0000009990+Z
352230001352230027-000230     352230006001023606198MOP COMPLETE WONDERMOP 0000001000+00008771+00000+0001T   00008771+0000001347          1400 BT3212               1AZ
352231000352231               352231               170213CD     1400+00000+CD0000010431+0000010431+000000000+000001462+0000011890+0000000003+I20000000000+0000011890+Z
352231001352231027-783002     352231006001023874658SCOURERS FOAM PACK OF 30000001000+00001490+00000+0001T   00001490+0000001348          1400 BT3212               1AZ
352231002352231027-056191     352231006916920933134DISH-BRUSH+HOOK RECT   0000001000+00001753+00000+0001T   00001753+0000001348          1400 BT3212               1AZ
352231003352231133-000030     352231006001023755414KITCHEN-SWAB 30cm ASSTD0000002000+00001227+00000+0001T   00001227+0000001348          1400 BT3212               1AZ
352231004352231903-000518     352231006001704012782SWT STRAWS S/BERRY 100g0000001000+00001227+00000+0001T   00001227+0000001348          1400 BT3150               1AZ
352231005352231018-000136     352231006001023659026MUG OCC LOVE W/PLUSH   0000001000+00003507+00000+0001T   00003507+0000001348          1400 BT3515               1AZ
352232000352232               352232               170213CD     1400+00000+CD0000000876+0000000876+000000000+000000123+0000000990+0000000009+I20000000000+0000000990+Z
352232001352232108-001225     352232006003000010240SALAD BOWL MINI 380ML  0000001000+00000876+00000+0001T   00000876+0000001350          1400 BT3210               1AZ
352233000352233               352233               170213CD     1400+00000+CD0000000035+0000000035+000000000+000000005+0000000040+0000000000+I20000000000+0000000040+Z
352233001352233112-116038     352233006003000534906TCS CARRIER BAG MIDI   0000001000+00000035+00000+0001T   00000035+0000001350          1400 BT3090               1AZ
352234000352234               352234               170213CD     1400+00000+CD0000000525+0000000525+000000000+000000074+0000000590+0000000009+I20000000000+0000000590+Z
352234001352234071-000874     352234006003000010110RUB-BANDS PLN BAG-30   0000001000+00000525+00000+0001T   00000525+0000001351          1400 BT3130               1AZ
352235000352235               352235               170213CD     1400+00000+CD0000001753+0000001753+000000000+000000246+0000001990+0000000009+I20000000000+0000001990+Z
352235001352235077-000324     352235006001023677594GIFT-BAG 33X45CM E/D FL0000001000+00001753+00000+0001T   00001753+0000001354          1400 BT3112               1AZ
352236000352236               352236               170213CD     1400+00000+CD0000009418+0000009418+000000000+000001320+0000010730+0000000008+I20000000000+0000010730+Z
352236001352236077-000305     352236006003000395422GIFT-BAG WINE 10X35CM  0000001000+00001490+00000+0001T   00001490+0000001355          1400 BT3112               1AZ
352236002352236566-000041     352236006003000265701SCRAPBOOK ALBUM 10PCKTS0000001000+00007893+00000+0001T   00007893+0000001355          1400 BT3130               1AZ
352236003352236112-116038     352236006003000534906TCS CARRIER BAG MIDI   0000001000+00000035+00000+0001T   00000035+0000001355          1400 BT3090               1AZ
352237000352237               352237               170213CD     1400+00000+CD0000002040+0000002040+000000000+000000287+0000002320+0000000007+I20000000000+0000002320+Z
352237001352237903-000123     352237006925925909280SWEET GS MINI MALLOWS  0000001000+00000876+00000+0001T   00000876+0000001356          1400 BT3150               1AZ
352237002352237903-000671     352237006009803358015SWT SHERBET BLUE LIPS  0000001000+00000218+00000+0001T   00000218+0000001356          1400 BT3150               1AZ
352237003352237903-003051     352237008024431008703SWT CHOCO PARTY 25G    0000001000+00000876+00000+0001T   00000876+0000001356          1400 BT3150               1AZ
352237004352237112-116038     352237006003000534906TCS CARRIER BAG MIDI   0000001000+00000035+00000+0001T   00000035+0000001356          1400 BT3090               1AZ
352237005352237112-116038     352237006009681820246TCS CARRIER BAG MIDI   0000001000+00000035+00000+0001T   00000035+0000001356          1400 BT3090               1AZ
352238000352238               352238               170213CD     1400+00000+CD0000003067+0000003067+000000000+000000430+0000003497+0000000000+I40000003497+0000000000+Z
352238001352238077-000005-D   352238006003000414567PAPER TISSUE 50x70cm   0000001000+00001753+00000+0001T   00001753+0000001402          1400 BT3112               1AZ
352238002352238077-000310     352238006001023608635GIFT-BAG 18X23CM GLOSS 0000001000+00001314+00000+0001T   00001314+0000001402          1400 BT3112               1AZ
352239000352239               352239               170213CD     1400+00000+CD0000006174+0000006174+000000000+000000865+0000007030+0000000009+I20000000000+0000007030+Z
352239001352239203-005001     352239006003000088546DRINK GAME-SPIN A DRINK0000001000+00006139+00000+0001T   00006139+0000001405          1400 BT3300               1AZ
352239002352239112-116038     352239006003000534906TCS CARRIER BAG MIDI   0000001000+00000035+00000+0001T   00000035+0000001405          1400 BT3090               1AZ
352240000352240               352240               170213CD     1400+00000+CD0000005120+0000005120+000000000+000000717+0000005830+0000000007+I20000000000+0000005830+Z
352240001352240077-000303     352240006001023593757GIFT-BAG PAPER MED     0000001000+00001578+00000+0001T   00001578+0000001406          1400 BT3112               1AZ
352240002352240018-000136     352240006001023659026MUG OCC LOVE W/PLUSH   0000001000+00003507+00000+0001T   00003507+0000001406          1400 BT3515               1AZ
352240003352240112-116038     352240006003000534906TCS CARRIER BAG MIDI   0000001000+00000035+00000+0001T   00000035+0000001406          1400 BT3090               1AZ
352241000352241               352241               170213CD     1400+00000+CD0000002630+0000002630+000000000+000000369+0000002990+0000000009+I20000000000+0000002990+Z
352241001352241203-006502     352241006003000257454DRINK STIRRERS ASSTD   0000001000+00002630+00000+0001T   00002630+0000001407          1400 BT3300               1AZ
352242000352242               352242               170213CD     1400+00000+CD0000002665+0000002665+000000000+000000374+0000003030+0000000009+I20000000000+0000003030+Z
352242001352242018-000055     352242006003000086498SOUP-MUG CER. SOLD COL.0000001000+00002630+00000+0001T   00002630+0000001409          1400 BT3515               1AZ
352242002352242112-116038     352242006003000534906TCS CARRIER BAG MIDI   0000001000+00000035+00000+0001T   00000035+0000001409          1400 BT3090               1AZ
352243000352243               352243               170213CD     1400+00000+CD0000002665+0000002665+000000000+000000374+0000003030+0000000009+I20000000000+0000003030+Z
352243001352243369-000225     352243006001023857132BABY EDU BATHTIME 5PC  0000001000+00002630+00000+0001T   00002630+0000001410          1400 BT3745               1AZ
352243002352243112-116038     352243006003000534906TCS CARRIER BAG MIDI   0000001000+00000035+00000+0001T   00000035+0000001410          1400 BT3090               1AZ
352244000352244               352244               170213CD     1400+00000+CD0000015823+0000015823+000000000+000002216+0000018039+0000000000+I40000018039+0000000000+Z
352244001352244469-004001     352244006003000241927B/BLOCKS 66PC POLICE   0000001000+00015788+00000+0001T   00015788+0000001411          1400 BT3755               1AZ
352244002352244112-116038     352244006003000534906TCS CARRIER BAG MIDI   0000001000+00000035+00000+0001T   00000035+0000001411          1400 BT3090               1AZ
352245000352245               352245               170213CD     1400+00000+CD0000003331+0000003331+000000000+000000467+0000003798+0000000000+I40000003798+0000000000+Z
352245001352245018-000170     352245006001023775528MUG OCC. LOVE 2PC MINI 0000001000+00002192+00000+0001T   00002192+0000001414          1400 BT3515               1AZ
352245002352245903-000087     352245006001704000161SWT SPECKLED-EGGS 50G  0000001000+00001139+00000+0001T   00001139+0000001414          1400 BT3150               1AZ
352246000352246               352246               170213CD     1400+00000+CD0000007049+0000007049+000000000+000000987+0000008036+0000000000+I40000008036+0000000000+Z
352246001352246018-005009     352246006001023725608MUG W/PLUSH-BEAR LOVE  0000002000+00003507+00000+0001T   00003507+0000001415          1400 BT3515               1AZ
352246002352246112-116038     352246006003000534906TCS CARRIER BAG MIDI   0000001000+00000035+00000+0001T   00000035+0000001415          1400 BT3090               1AZ
352247000352247               352247               170213CD     1400+00000+CD0000002454+0000002454+000000000+000000344+0000002790+0000000008+I20000000000+0000002790+Z
352247001352247077-000011-D   352247006001023808554TISSUE-WRAP WHITE 10PCE0000001000+00000876+00000+0001T   00000876+0000001416          1400 BT3112               1AZ
352247002352247077-000303     352247006001023593757GIFT-BAG PAPER MED     0000001000+00001578+00000+0001T   00001578+0000001416          1400 BT3112               1AZ
352248000352248               352248               170213CD     1400+00000+CD0000011646+0000011646+000000000+000001635+0000013281+0000000000+I40000013281+0000000000+Z
352248001352248071-000404     352248006001023676696P/SHARPENER WORLD-GLOBE0000001000+00002192+00000+0001T   00002192+0000001419          1400 BT3130               1AZ
352248002352248565-000043     352248006003000109562NOVELTY BALL FUNNY FACE0000001000+00001753+00000+0001T   00001753+0000001419          1400 BT3745               1AZ
352248003352248007-000167     352248006009685857347SPIRAL NOTES A7 72PG   0000001000+00000350+00000+0001T   00000350+0000001419          1400 BT3130               1AZ
352248004352248002-021040     352248006001023812216PARTY-PICKS 100PCE     0000001000+00000525+00000+0001T   00000525+0000001419          1400 BT3300               1AZ
352248005352248264-000921     352248000090159150442MAISTO CAR 3" FRESH    0000001000+00001753+00000+0001T   00001753+0000001419          1400 BT3710               1AZ
352248006352248903-000090     352248006009826020821SWT GS CHOCO COINS 60g 0000001000+00002104+00000+0001T   00002104+0000001419          1400 BT3150               1AZ
352248007352248039-000025     352248006003000286423CANDLE LONG 25CM DARK  0000001000+00001051+00000+0001T   00001051+0000001419          1400 BT3510               1AZ
352248008352248001-000001     352248006001023507266SHOT-GLASS 25ml        0000001000+00000393+00000+0001T   00000393+0000001419          1400 BT3515               1AZ
352248009352248565-004101     352248006003000548033BALL BOUNCING EGG      0000001000+00001490+00000+0001T   00001490+0000001419          1400 BT3745               1AZ
352248010352248112-116038     352248006003000534906TCS CARRIER BAG MIDI   0000001000+00000035+00000+0001T   00000035+0000001419          1400 BT3090               1AZ
352249000352249               352249               170213CD     1400+00000+CD0000000876+0000000876+000000000+000000123+0000000990+0000000009+I20000000000+0000000990+Z
352249001352249033-010720     352249006001023678645SAFETY-PINS 50PCE SMALL0000001000+00000876+00000+0001T   00000876+0000001424          1400 BT3200               1AZ
352250000352250               352250               170213CD     1400+00000+CD0000001753+0000001753+000000000+000000246+0000001990+0000000009+I20000000000+0000001990+Z
352250001352250012-000001     352250006003000331048MICRO PLATE-COVER 26X6 0000001000+00001753+00000+0001T   00002192+0008191425          1400 BT3300               1AZ
352251000352251               352251               170213CD     1400+00000+CD0000001490+0000001490+000000000+000000209+0000001690+0000000009+I20000000000+0000001690+Z
352251001352251077-000452     352251006003000284986G/BAG METALLIC MED EMB 0000001000+00001490+00000+0001T   00001490+0000001429          1400 BT3112               1AZ
352252000352252               352252               170213CD     1400+00000+CD0000001753+0000001753+000000000+000000246+0000001999+0000000000+I40000001999+0000000000+Z
352252001352252903-000612     352252006003000617449SWT TRUMPET 20cm       0000001000+00001753+00000+0001T   00001753+0000001431          1400 BT3150               1AZ
352253000352253               352253               170213CD     1400+00000+CD0000001578+0000001578+000000000+000000221+0000001790+0000000009+I20000000000+0000001790+Z
352253001352253077-000303     352253006001023593757GIFT-BAG PAPER MED     0000001000+00001578+00000+0001T   00001578+0000001433          1400 BT3112               1AZ
352254000352254               352254               170213CD     1400+00000+CD0000006576+0000006576+000000000+000000921+0000007497+0000000000+I40000007497+0000000000+Z
352254001352254030-000030-A   352254006003000249305PLAQUE GLASS LOVE      0000001000+00003069+00000+0001T   00003069+0000001449          1400 BT3505               1AZ
352254002352254301-085004     352254006003000420469ORN LOVE PLAQUE 21X10CM0000001000+00003507+00000+0001T   00003946+0006471449          1400 BT3505               1AZ
352255000352255               352255               170213CD     1400+00000+CD0000001578+0000001578+000000000+000000221+0000001799+0000000000+I40000001799+0000000000+Z
352255001352255077-000303     352255006001023593757GIFT-BAG PAPER MED     0000001000+00001578+00000+0001T   00001578+0000001453          1400 BT3112               1AZ
352256000352256               352256               170213CD     1400+00000+CD0000005698+0000005698+000000000+000000798+0000006490+0000000006+I20000000000+0000006490+Z
352256001352256158-008936     352256006001023653758PAPER-TOWEL-HOLDER FLWR0000001000+00002192+00000+0001T   00002192+0000001508          1400 BT3300               1AZ
352256003352256034-000329     352256006001023564290BOTTLE-BRUSHES WHT 2PCE0000001000+00001314+00000+0001T   00001314+0000001508          1400 BT3215               1AZ
352256004352256159-000887     352256006001023730817HOOKS PL SUCTION 9PCE  0000001000+00002192+00000+0001T   00002192+0000001508          1400 BT3200               1AZ
352257000352257               352257               170213CD     1400+00000+CD0000001578+0000001578+000000000+000000221+0000001790+0000000009+I20000000000+0000001790+Z
352257001352257080-000124     352257006003000297733CARD & ENV VALENTINES  0000001000+00001578+00000+0001T   00001578+0000001619          1400 BT3112               1AZ
352258000352258               352258               170213CD     1400+00000+CD0000001788+0000001788+000000000+000000251+0000002030+0000000009+I20000000000+0000002030+Z
352258001352258566-000070     352258006003000283798STICKERS POP UP ASSTD  0000001000+00001753+00000+0001T   00001753+0000001621          1400 BT3130               1AZ
352258002352258112-116038     352258006009681820246TCS CARRIER BAG MIDI   0000001000+00000035+00000+0001T   00000035+0000001621          1400 BT3090               1AZ
352259000352259               352259               170213CD     1400+00000+CD0000000613+0000000613+000000000+000000086+0000000690+0000000009+I20000000000+0000000690+Z
352259001352259077-000311     352259006001023608666GIFT-BAG 11X14CM GLOSS 0000001000+00000613+00000+0001T   00000613+0000001622          1400 BT3112               1AZ
352260000352260               352260               170213CD     1400+00000+CD0000024672+0000024672+000000000+000003458+0000028130+0000000000+I40000028130+0000000000+Z
352260001352260903-000709     352260006002099007070SWT QUENCHERS FRUIT    0000002000+00001139+00000+0001T   00001139+0000001624          1400 BT3150               1AZ
352260002352260079-000271     352260006003000160082PAINT-BRUSHES LRGE ART 0000001000+00003069+00000+0001T   00003069+0000001624          1400 BT3130               1AZ
352260003352260039-080942     352260006001023669872C/PILLAR RND WHT 10X7CM0000001000+00003507+00000+0001T   00003507+0000001624          1400 BT3510               1AZ
352260004352260046-000007     352260006001023814692BATTERIES D ALKALN 2PCE0000001000+00006139+00000+0001T   00006139+0000001624          1400 BT3312               1AZ
352260005352260567-011924     352260009785000189825BOOK ACTIVITY DOODLE   0000003000+00001753+00000+0001T   00001753+0000001624          1400 BT3757               1AZ
352260006352260079-000261     352260006003000159727PAINT WATER COLOUR CAKE0000001000+00004385+00000+0001T   00004385+0000001624          1400 BT3130               1AZ
352260007352260112-116038     352260006003000534906TCS CARRIER BAG MIDI   0000001000+00000035+00000+0001T   00000035+0000001624          1400 BT3090               1AZ
352261000352261               352261               170213CD     1400+00000+CD0000015291+0000015291+000000000+000002143+0000017434+0000000000+I40000017434+0000000000+Z
352261001352261018-050000     352261006003000412679MUG OCC LOVE TWIN BEAR 0000001000+00006139+00000+0001T   00006139+0000001626          1400 BT3515               1AZ
352261002352261077-000310     352261006001023608635GIFT-BAG 18X23CM GLOSS 0000001000+00001314+00000+0001T   00001314+0000001626          1400 BT3112               1AZ
352261003352261301-085008     352261006003000673933ORN OCC.LOVE TINSEL HRT0000001000+00003069+00000+0001T   00003069+0000001626          1400 BT3505               1AZ
352261004352261903-000095     352261006001704011495SWT SPECKLED-EGGS 100G 0000001000+00002104+00000+0001T   00002104+0000001626          1400 BT3150               1AZ
352261005352261266-003012     352261006001023786128BOYS P/SET ARCHERY 4pc 0000001000+00002630+00000+0001T   00002630+0000001626          1400 BT3710               1AZ
352261006352261112-116038     352261006003000534906TCS CARRIER BAG MIDI   0000001000+00000035+00000+0001T   00000035+0000001626          1400 BT3090               1AZ
352262000352262               352262               170213CD     1400+00000+CD0000017920+0000017920+000000000+000002513+0000020430+0000000003+I20000000000+0000020430+Z
352262001352262267-000906     352262006003000636334PUZZLE JIGSAW PCS      0000001000+00007016+00000+0001T   00007016+0000001627          1400 BT3755               1AZ
352262002352262079-000514     352262009556341898321CRAYONS WAX 24-COLOUR  0000001000+00002630+00000+0001T   00002630+0000001627          1400 BT3130               1AZ
352262003352262071-081101-A   352262006003000326549GLUE-STICK 25g BLISTER 0000001000+00000788+00000+0001T   00000788+0000001627          1400 BT3130               1AZ
352262004352262071-004200     352262006001023835901SAFETY SCISSOR         0000001000+00001753+00000+0001T   00001753+0000001627          1400 BT3130               1AZ
352262005352262079-000012     352262006001023655332P/CRAYONS 12-COL LONG  0000001000+00001753+00000+0001T   00001753+0000001627          1400 BT3130               1AZ
352262006352262007-000192     352262006009635830062BOOK H/COVER A4 192PAGE0000001000+00001753+00000+0001T   00001753+0000001627          1400 BT3130               1AZ
352262007352262007-000046     352262006009635831366DISPLAY-BOOK PL A4 30PG0000001000+00002192+00000+0001T   00002192+0000001627          1400 BT3130               1AZ
352262008352262112-116038     352262006003000534906TCS CARRIER BAG MIDI   0000001000+00000035+00000+0001T   00000035+0000001627          1400 BT3090               1AZ
352263000352263               352263               170213CD     1400+00000+CD0000004733+0000004733+000000000+000000664+0000005397+0000000000+I40000005397+0000000000+Z
352263001352263077-000322     352263006001023677532GIFT-BAG 18X23CM E/D FL0000001000+00001227+00000+0001T   00001227+0000001635          1400 BT3112               1AZ
352263002352263077-000330     352263006001023745408GIFT-BAG 18X23CM WEDGE 0000002000+00001753+00000+0001T   00001753+0000001635          1400 BT3112               1AZ
352264000352264               352264               170213CD     1400+00000+CD0000003507+0000003507+000000000+000000491+0000003990+0000000008+I20000000000+0000003990+Z
352264001352264467-000018     352264006001023746818BEACH-SET 3PCE         0000001000+00003507+00000+0001T   00003507+0000001636          1400 BT3785               1AZ
352265000352265               352265               170213CD     1400+00000+CD0000004558+0000004558+000000000+000000639+0000005190+0000000007+I20000000000+0000005190+Z
352265001352265903-000095     352265006001704011495SWT SPECKLED-EGGS 100G 0000001000+00002104+00000+0001T   00002104+0000001639          1400 BT3150               1AZ
352265002352265077-000322     352265006001023677532GIFT-BAG 18X23CM E/D FL0000002000+00001227+00000+0001T   00001227+0000001639          1400 BT3112               1AZ
352266000352266               352266               170213CD     1400+00000+CD0000012278+0000012278+000000000+000001719+0000013990+0000000007+I20000000000+0000013990+Z
352266001352266368-000614     352266006001023705808PLUSH LOVE 30cm        0000001000+00008771+00000+0001T   00008771+0000001645          1400 BT3745               1AZ
352266002352266031-000002-A   352266006003000247103P/FRAME LOVE 7.5X7.5CM 0000001000+00003507+00000+0001T   00003507+0000001645          1400 BT3510               1AZ
352267000352267               352267               170213CD     1400+00000+CD0000001788+0000001788+000000000+000000251+0000002030+0000000009+I20000000000+0000002030+Z
352267001352267006-000800     352267006001023902801HAT CABARET 14x18cm    0000001000+00001753+00000+0001T   00001753+0000001646          1400 BT3131               1AZ
352267002352267112-116038     352267006003000534906TCS CARRIER BAG MIDI   0000001000+00000035+00000+0001T   00000035+0000001646          1400 BT3090               1AZ
352268000352268               352268               170213CD     1400+00000+CD0000001788+0000001788+000000000+000000251+0000002030+0000000009+I20000000000+0000002030+Z
352268001352268034-078800     352268006001023856555COOEY WET-WIPES 60PCE  0000001000+00001753+00000+0001T   00001753+0000001647          1400 BT3215               1AZ
352268002352268112-116038     352268006003000534906TCS CARRIER BAG MIDI   0000001000+00000035+00000+0001T   00000035+0000001647          1400 BT3090               1AZ
352269000352269               352269               170213CD     1400+00000+CD0000004420+0000004420+000000000+000000619+0000005039+0000000000+I40000005039+0000000000+Z
352269001352269368-000049     352269006003000536955PLUSH BEAR 15cm LOVE   0000001000+00004385+00000+0001T   00004385+0000001649          1400 BT3745               1AZ
352269002352269112-116038     352269006003000534906TCS CARRIER BAG MIDI   0000001000+00000035+00000+0001T   00000035+0000001649          1400 BT3090               1AZ
352270000352270               352270               170213CD     1400+00000+CD0000002630+0000002630+000000000+000000369+0000002990+0000000009+I20000000000+0000002990+Z
352270001352270028-000899     352270006001023509932BBQ-GRILL-CLEANER LONG 0000001000+00002630+00000+0001T   00002630+0000001651          1400 BT3305               1AZ
352271000352271               352271               170213CD     1400+00000+CD0000000437+0000000437+000000000+000000062+0000000490+0000000009+I20000000000+0000000490+Z
352271001352271071-000212     352271006009608641190CHALK WHITE 12PCE      0000001000+00000437+00000+0001T   00000437+0000001659          1400 BT3130               1AZ
352272000352272               352272               170213CD     1400+00000+CD0000010559+0000010559+000000000+000001479+0000012030+0000000008+I20000000000+0000012030+Z
352272001352272024-000165-F   352272006003000674671N/STICK MUFFIN PAN     0000002000+00005262+00000+0001T   00005262+0000001659          1400 BT3300               1AZ
352272002352272112-116038     352272006003000534906TCS CARRIER BAG MIDI   0000001000+00000035+00000+0001T   00000035+0000001659          1400 BT3090               1AZ
352273000352273               352273               170213CD     1400+00000+CD0000001314+0000001314+000000000+000000184+0000001490+0000000008+I20000000000+0000001490+Z
352273001352273077-000470     352273006003000330171G-BAG DESGN SML 11X14CM0000001000+00001314+00000+0001T   00001314+0000001711          1400 BT3112               1AZ
352274000352274               352274               170213CD     1400+00000+CD0000004385+0000004385+000000000+000000614+0000004990+0000000009+I20000000000+0000004990+Z
352274001352274368-000001     352274006003000097982Plush Bear 25cm        0000001000+00004385+00000+0001T   00004385+0000001720          1400 BT3745               1AZ
352275000352275               352275               170213CD     1400+00000+CD0000007892+0000007892+000000000+000001106+0000008998+0000000000+I40000008998+0000000000+Z
352275001352275024-000002     352275006001023741899S/BURNER-COVER SILV/BLK0000002000+00003946+00000+0001T   00004385+0008191725          1400 BT3300               1AZ
352276000352276               352276               170213CD     1400+00000+CD0000005260+0000005260+000000000+000000737+0000005990+0000000007+I20000000000+0000005990+Z
352276001352276301-085004     352276006003000420469ORN LOVE PLAQUE 21X10CM0000001000+00003507+00000+0001T   00003946+0006471727          1400 BT3505               1AZ
352276002352276077-000455     352276006003000285389G/BAG METALLIC LRG SOL 0000001000+00001753+00000+0001T   00001753+0000001727          1400 BT3112               1AZ
352277000352277               352277               170213CD     1400+00000+CD0000007914+0000007914+000000000+000001113+0000009020+0000000007+I20000000000+0000009020+Z
352277001352277077-000309     352277006001023608604GIFT-BAG 25X32CM GLOSS 0000003000+00001753+00000+0001T   00001753+0000001731          1400 BT3112               1AZ
352277002352277903-000099     352277006923431501646SWT CANDY GS WTCH B/LET0000010000+00000262+00000+0001T   00000262+0000001731          1400 BT3150               1AZ
352277003352277112-116038     352277006003000534906TCS CARRIER BAG MIDI   0000001000+00000035+00000+0001T   00000035+0000001731          1400 BT3090               1AZ
352278000352278               352278               170213CD     1400+00000+CD0000001314+0000001314+000000000+000000184+0000001490+0000000008+I20000000000+0000001490+Z
352278001352278077-000407     352278006003000145096G/BAG PP 19X26X8CM     0000001000+00001314+00000+0001T   00001314+0000001732          1400 BT3112               1AZ
352279000352279               352279               170213CD     1400+00000+CD0000001314+0000001314+000000000+000000184+0000001490+0000000008+I20000000000+0000001490+Z
352279001352279903-005000     352279006002580020007SWT CT MALLOW FISH 120g0000001000+00001314+00000+0001T   00001314+0000001732          1400 BT3150               1AZ
352280000352280               352280               170213CD     1400+00000+CD0000002630+0000002630+000000000+000000369+0000002990+0000000009+I20000000000+0000002990+Z
352280001352280018-000129     352280006001023403353MUG OCC. LOVE V-SHAPE  0000001000+00002630+00000+0001T   00002630+0000001733          1400 BT3515               1AZ
352281000352281               352281               170213CD     1400+00000+CD0000006174+0000006174+000000000+000000865+0000007039+0000000000+I40000007039+0000000000+Z
352281001352281018-050000     352281006003000412679MUG OCC LOVE TWIN BEAR 0000001000+00006139+00000+0001T   00006139+0000001735          1400 BT3515               1AZ
352281002352281112-116038     352281006009681820246TCS CARRIER BAG MIDI   0000001000+00000035+00000+0001T   00000035+0000001735          1400 BT3090               1AZ
352282000352282               352282               170213CD     1400+00000+CD0000003507-0000003507-000000000+000000491-0000004000-0000000002+I20000000000+0000004000-Z
352282001352282018-005009     352282006001023725608MUG W/PLUSH-BEAR LOVE  0000001000-00003507+00000+0001T   00003507+0000001738          1400 BT35152IC            1 Z
352283000352283               352283               170213CD     1400+00000+CD0000005262+0000005262+000000000+000000737+0000005999+0000000000+I40000005999+0000000000+Z
352283001352283304-001116     352283006003000426164F/BUNCH ROSES 12-HEAD  0000001000+00005262+00000+0001T   00005262+0000001740          1400 BT3510               1AZ
352284000352284               352284               170213CD     1400+00000+CD0000002192+0000002192+000000000+000000307+0000002490+0000000009+I20000000000+0000002490+Z
352284001352284566-000951     352284006003000217670STICKERS 3 STYLES ASSTD0000001000+00002192+00000+0001T   00002192+0000001741          1400 BT3130               1AZ
352285000352285               352285               170213CD     1400+00000+CD0000021219+0000021219+000000000+000002974+0000024193+0000000000+I40000024193+0000000000+Z
352285001352285012-000003     352285006003000331192 MICROWAVE CORN STEAMER0000002000+00004385+00000+0001T   00004385+0000001744          1400 BT3300               1AZ
352285002352285105-006005     352285006003000666195CANNISTER PL 600ml     0000001000+00002630+00000+0001T   00002630+0000001744          1400 BT3210               1AZ
352285003352285024-000065     352285006001023770424SPATULA SILICONE 25CM  0000001000+00003946+00000+0001T   00003946+0000001744          1400 BT3300               1AZ
352285004352285105-000750     352285006003000190270CONTAINERS 4xMINI 150ml0000002000+00001402+00000+0001T   00001402+0000001744          1400 BT3210               1AZ
352285005352285009-001596     352285006003000655182MELAMINE PARTY TRAY    0000001000+00003069+00000+0001T   00003069+0000001744          1400 BT3210               1AZ
352286000352286               352286               170213CD     1400+00000+CD0000004418+0000004418+000000000+000000619+0000005030+0000000007+I20000000000+0000005030+Z
352286001352286077-000314     352286006003000181148GIFT-BAG 11X14CM MATT  0000001000+00000876+00000+0001T   00000876+0000001745          1400 BT3112               1AZ
352286002352286018-005009     352286006001023725608MUG W/PLUSH-BEAR LOVE  0000001000+00003507+00000+0001T   00003507+0000001745          1400 BT3515               1AZ
352286003352286112-116038     352286006003000534906TCS CARRIER BAG MIDI   0000001000+00000035+00000+0001T   00000035+0000001745          1400 BT3090               1AZ
352287000352287               352287               170213CD     1400+00000+CD0000000735+0000000735+000000000+000000103+0000000830+0000000008+I20000000000+0000000830+Z
352287001352287018-000177     352287006001023797513MUG MINI LOVE ASSTD    0000001000+00000700+00000+0001T   00000700+0000001746          1400 BT3515               1AZ
352287002352287112-116038     352287006003000534906TCS CARRIER BAG MIDI   0000001000+00000035+00000+0001T   00000035+0000001746          1400 BT3090               1AZ
352288000352288               352288               170213CD     1400+00000+CD0000003506+0000003506+000000000+000000492+0000003990+0000000008+I20000000000+0000003990+Z
352288001352288080-000103     352288006003000236961CARD&ENVLOPE BDAY-MALE 0000001000+00001753+00000+0001T   00001753+0000001747          1400 BT3112               1AZ
352288002352288080-000116     352288006003000253555CARD&ENVELOPE-HANDMADE 0000001000+00001753+00000+0001T   00001753+0000001747          1400 BT3112               1AZ
352289000352289               352289               170213CD     1400+00000+CD0000002538+0000002538+000000000+000000358+0000002896+0000000000+I40000002896+0000000000+Z
352289001352289903-000519     352289006001704012805SWT MS LIQ-O-GHETTI    0000001000+00001227+00000+0001T   00001227+0000001751          1400 BT3150               1AZ
352289002352289080-000133     352289006003000535613CARD&ENV MINI ASTD DSGN0000003000+00000437+00000+0001T   00000437+0000001751          1400 BT3112               1AZ
352290000352290               352290               170213CD     1400+00000+CD0000013765+0000013765+000000000+000001929+0000015694+0000000000+I40000015694+0000000000+Z
352290001352290079-000512     352290006001023635853CRAYONS WAX 12-COLOUR  0000001000+00001490+00000+0001T   00001490+0000001754          1400 BT3130               1AZ
352290002352290263-000193     352290006003000299126CAR TRACK PUSH & LOOP  0000001000+00004385+00000+0001T   00004385+0000001754          1400 BT3710               1AZ
352290003352290077-000309     352290006001023608604GIFT-BAG 25X32CM GLOSS 0000001000+00001753+00000+0001T   00001753+0000001754          1400 BT3112               1AZ
352290004352290567-014134     352290006003000560189BOOK COLOURING 96 PAGE 0000001000+00002630+00000+0001T   00002630+0000001754          1400 BT3757               1AZ
352290005352290031-006228     352290006003000142293P/FRAME+PLAQUE 10X15CM 0000001000+00003507+00000+0001T   00003507+0000001754          1400 BT3510               1AZ
352291000352291               352291               170213CD     1400+00000+CD0000001753+0000001753+000000000+000000246+0000001990+0000000009+I20000000000+0000001990+Z
352291001352291077-000309     352291006001023608604GIFT-BAG 25X32CM GLOSS 0000001000+00001753+00000+0001T   00001753+0000001755          1400 BT3112               1AZ
352292000352292               352292               170213CD     1400+00000+CD0000003507+0000003507+000000000+000000491+0000003998+0000000000+I40000003998+0000000000+Z
352292001352292018-000136     352292006001023659026MUG OCC LOVE W/PLUSH   0000001000+00003507+00000+0001T   00003507+0000001756          1400 BT3515               1AZ
352293000352293               352293               170213CD     1400+00000+CD0000000876+0000000876+000000000+000000123+0000000990+0000000009+I20000000000+0000000990+Z
352293001352293077-000314     352293006003000181148GIFT-BAG 11X14CM MATT  0000001000+00000876+00000+0001T   00000876+0000001757          1400 BT3112               1AZ
352294000352294               352294               170213CD     1400+00000+CD0000012042+0000012042+000000000+000001688+0000013730+0000000000+I20000000000+0000013730+Z
352294001352294077-000906     352294006003000410804G/WRAP 700mmx1m BIRTHDA0000001000+00001753+00000+0001T   00001753+0000001802          1400 BT3112               1AZ
352294002352294077-000151     352294006008766114676GIFT-WRAP C/PHANE ASSTD0000001000+00000876+00000+0001T   00000876+0000001802          1400 BT3112               1AZ
352294003352294108-001208     352294006003000667147ICE CREAM BOWLS 4-PACK 0000001000+00002192+00000+0001T   00002192+0000001802          1400 BT3210               1AZ
352294004352294077-000311     352294006001023608666GIFT-BAG 11X14CM GLOSS 0000001000+00000613+00000+0001T   00000613+0000001802          1400 BT3112               1AZ
352294005352294077-000310     352294006001023608635GIFT-BAG 18X23CM GLOSS 0000001000+00001314+00000+0001T   00001314+0000001802          1400 BT3112               1AZ
352294006352294077-000011-D   352294006001023808554TISSUE-WRAP WHITE 10PCE0000001000+00000876+00000+0001T   00000876+0000001802          1400 BT3112               1AZ
352294007352294124-000005     352294006003000577057STORAGE TIN SQUARE     0000001000+00003507+00000+0001T   00003507+0000001802          1400 BT3300               1AZ
352294008352294112-116038     352294006009681820246TCS CARRIER BAG MIDI   0000001000+00000035+00000+0001T   00000035+0000001802          1400 BT3090               1AZ
352294009352294077-000151     352294006008766114676GIFT-WRAP C/PHANE ASSTD0000001000+00000876+00000+0001T   00000876+0000001802          1400 BT3112               1AZ
352295000352295               352295               170213CD     1400+00000+CD0000002628+0000002628+000000000+000000368+0000002990+0000000006+I20000000000+0000002990+Z
352295001352295077-000312     352295006001023608697GIFT-BAG 10X35CM GLOSS 0000002000+00001314+00000+0001T   00001314+0000001815          1400 BT3112               1AZ
352296000352296               352296               170213CD     1400+00000+CD0000002227+0000002227+000000000+000000312+0000002530+0000000009+I20000000000+0000002530+Z
352296001352296563-000318-L   352296006003000407088SERVIETTES 33cm RED    0000001000+00002192+00000+0001T   00002192+0000001816          1400 BT3214               1AZ
352296002352296112-116038     352296006003000534906TCS CARRIER BAG MIDI   0000001000+00000035+00000+0001T   00000035+0000001816          1400 BT3090               1AZ
352297000352297               352297               170213CD     1400+00000+CD0000000613+0000000613+000000000+000000086+0000000690+0000000009+I20000000000+0000000690+Z
352297001352297077-000311     352297006001023608666GIFT-BAG 11X14CM GLOSS 0000001000+00000613+00000+0001T   00000613+0000001816          1400 BT3112               1AZ
352298000352298               352298               170213CD     1400+00000+CD0000004382+0000004382+000000000+000000615+0000004990+0000000007+I20000000000+0000004990+Z
352298001352298006-000800     352298006001023902801HAT CABARET 14x18cm    0000002000+00001753+00000+0001T   00001753+0000001817          1400 BT3131               1AZ
352298002352298006-000223     352298006001023891327PARTY EYE-MASK 6PCE    0000001000+00000876+00000+0001T   00000876+0000001817          1400 BT3131               1AZ
352299000352299               352299               170213CD     1400+00000+CD0000005874+0000005874+000000000+000000823+0000006690+0000000007+I20000000000+0000006690+Z
352299001352299028-000272     352299006001023465283EGG-RINGS 2PCE      H&L0000001000+00003069+00000+0001T   00003069+0000001818          1400 BT3305               1AZ
352299002352299563-000318-L   352299006003000407088SERVIETTES 33cm RED    0000001000+00002192+00000+0001T   00002192+0000001818          1400 BT3214               1AZ
352299003352299200-000065     352299006001023323675DRINKING-STRAWS 38PCE  0000001000+00000613+00000+0001T   00000613+0000001818          1400 BT3214               1AZ
352300000352300               352300               170213CD     1400+00000+CD0000003506+0000003506+000000000+000000492+0000003998+0000000000+I40000003998+0000000000+Z
352300001352300077-000455     352300006003000285389G/BAG METALLIC LRG SOL 0000002000+00001753+00000+0001T   00001753+0000001820          1400 BT3112               1AZ
352301000352301               352301               170213CD     1400+00000+CD0000000876+0000000876+000000000+000000123+0000000990+0000000009+I20000000000+0000000990+Z
352301001352301077-000011-D   352301006001023808554TISSUE-WRAP WHITE 10PCE0000001000+00000876+00000+0001T   00000876+0000001837          1400 JU1112               1AZ
352302000352302               352302               170213CD     1400+00000+CD0000005436+0000005436+000000000+000000762+0000006198+0000000000+I40000006198+0000000000+Z
352302001352302024-000003     352302006001023462206S/BURNER COVERS ASSTD  0000001000+00004385+00000+0001T   00004385+0000001838          1400 JU1300               1AZ
352302002352302903-002890     352302008935001721352MENTOS GUM PURE F/MINT 0000001000+00001051+00000+0001T   00001051+0000001838          1400 JU1150               1AZ
352303000352303               352303               170213CD     1400+00000+CD0000004385+0000004385+000000000+000000614+0000004990+0000000009+I20000000000+0000004990+Z
352303001352303368-000049     352303006003000536955PLUSH BEAR 15cm LOVE   0000001000+00004385+00000+0001T   00004385+0000001843          1400 JU1745               1AZ
352304000352304               352304               170213CD     1400+00000+CD0000004556+0000004556+000000000+000000639+0000005190+0000000005+I20000000000+0000005190+Z
352304001352304077-000151     352304006008766114676GIFT-WRAP C/PHANE ASSTD0000002000+00000876+00000+0001T   00000876+0000001845          1400 JU1112               1AZ
352304002352304565-000042     352304006003000252459NOVELTY STRESS BALL    0000001000+00001314+00000+0001T   00001314+0000001845          1400 JU1745               1AZ
352304003352304565-004101     352304006003000548033BALL BOUNCING EGG      0000001000+00001490+00000+0001T   00001490+0000001845          1400 JU1745               1AZ
352305000352305               352305               170213CD     1400+00000+CD0000020208+0000020208+000000000+000002830+0000023030+0000000008+I20000000000+0000023030+Z
352305001352305001-091415     352305006003000329113W/GLS OCC. LOVE 2PC 2800000001000+00008771+00000+0001T   00009648+0006471851          1400 JU1515               1AZ
352305002352305368-000637     352305006001023874092PLUSH BEAR SLEEPING LOV0000001000+00011402+00000+0001T   00012279+0006471851          1400 JU1745               1AZ
352305003352305112-116038     352305006003000534906TCS CARRIER BAG MIDI   0000001000+00000035+00000+0001T   00000035+0000001851          1400 JU1090               1AZ
352306000352306               352306               170213CD     1400+00000+CD0000002227+0000002227+000000000+000000312+0000002530+0000000009+I20000000000+0000002530+Z
352306001352306080-000127     352306006003000424351VALENTINES DAY 36x24CM 0000001000+00002192+00000+0001T   00002192+0000001853          1400 BT3112               1AZ
352306002352306112-116038     352306006003000534906TCS CARRIER BAG MIDI   0000001000+00000035+00000+0001T   00000035+0000001853          1400 BT3090               1AZ
352307000352307               352307               170213CD     1400+00000+CD0000004383+0000004383+000000000+000000614+0000004990+0000000007+I20000000000+0000004990+Z
352307001352307306-001680     352307006003000365081MANICURE NAIL ART KIT  0000001000+00003069+00000+0001T   00003069+0000001855          1400 BT3200               1AZ
352307002352307077-000310     352307006001023608635GIFT-BAG 18X23CM GLOSS 0000001000+00001314+00000+0001T   00001314+0000001855          1400 BT3112               1AZ
A17021300                                          08590154CDSLAVE 1                       RP62IC
A17021301                                          09121827CDSLAVE 1                       RP62IC
A17021302                                          09383935CDSLAVE 1                       BT32IC
A17021303                                          16315563CDSLAVE 1                       BT32IC
C35225400                                          170213CD112-116038     14460105SLAVE 1     BT32IC0000000000+0000000000+0030000001000+
C35225600                                          170213CD159-006347     15075401SLAVE 1     BT31IC0000000000+0000000000+0020000001000+
M17021391                              CASH        CDSLAVE 1                       Z-REPORT No.   487TOTAL (Sales - Refunds)           9456.48       CASH TO BE BANKED                 4770.10       DEBIT CARDS                          0.00       CREDIT CARDS                      4691.38       Z-READING                         9456.48       AIRTIME DEBIT CARD SALES             0.00       AIRTIME CARD SALES                   0.00       OVERS/UNDERS                         5.00       AIRTIME CASH SALES                   0.00       GIFT CARDS                           0.00       GIFT CARD CASH SALES                 0.00       T O T A L  CASH PAYOUTS              0.00                                                                                                                                                                                                                                                                                                                                                      Z
M17021392                              CASH        CDABSENT                                                                                                                                                                                          ANNUAL LEAVE                                                                                                                                                                                    DAY OFF                                                                                                                                                                                         COMMENTS          R5.00 OVER  CARD SALE                                                                                                                                                                                                                                                                                                                                                        Z
Y17021300                                          CD00000000847594+000134
ZCD17021319243 SLAVE 1      SALES DATA                     NEXT INVOICE NO.  352308 0487
F093735496-028120         1701141402550000042ICSLAVE 1
F093735496-058484         1701141402550000142ICSLAVE 1
F094028496-028142         1701141403110000022ICSLAVE 1
F094068496-028122         1701141403190000012ICSLAVE 1
F094128463-000501         1701141403280000052ICSLAVE 1
X CD Slave 1 First invoice 352172 170213 Last invoice 352307 170213 Next invoice 352308 Total number of records 000000478 clbackup completed 19:24:47
