363368000363368               363368               170213CD     1400+00000+CD0000001402+0000001402+000000000+000000197+0000001590+0000000009+I20000000000+0000001590+Z
363368001363368105-001005     363368006001023858214CONTAINERS MINI 6PCE   0000001000+00001402+00000+0001T   00001402+0000000835          1400 RP6210               2AZ
363369000363369               363369               170213CD     1400+00000+CD0000002804+0000002804+000000000+000000393+0000003190+0000000007+I20000000000+0000003190+Z
363369001363369046-000012     363369006904708013062BATTERIES AA  CARD-OF-40000001000+00001314+00000+0001T   00001314+0000000844          1400 RP6312               2AZ
363369002363369028-000796     363369006001023812094SKEWERS 25cm 50PCE 4mm 0000001000+00001490+00000+0001T   00001490+0000000844          1400 RP6305               2AZ
363370000363370               363370               170213CD     1400+00000+CD0000005819+0000005819+000000000+000000817+0000006636+0000000000+I40000006636+0000000000+Z
363370001363370112-116038     363370006009681820246TCS CARRIER BAG MIDI   0000001000+00000035+00000+0001T   00000035+0000000923          1400 RP6090               2AZ
363370002363370019-071605     363370006003000675418PEBBLES R/STONES 500G  0000002000+00001490+00000+0001T   00001490+0000000923          1400 RP6510               2AZ
363370003363370108-002020     363370006009654960245WINE GLS STYRENE 220ml 0000002000+00001402+00000+0001T   00001402+0000000923          1400 RP6210               2AZ
363371000363371               363371               170213CD     1400+00000+CD0000004855+0000004855+000000000+000000680+0000005530+0000000005+I20000000000+0000005530+Z
363371001363371903-000843     363371008693029031067SWT GUMMY JELAXY 80G   0000005000+00000964+00000+0001T   00000964+0000000928          1400 RP6150               2AZ
363371002363371112-116038     363371006009681820246TCS CARRIER BAG MIDI   0000001000+00000035+00000+0001T   00000035+0000000928          1400 RP6090               2AZ
363372000363372               363372               170213CD     1400+00000+CD0000001753+0000001753+000000000+000000246+0000001999+0000000000+I40000001999+0000000000+Z
363372001363372077-000309     363372006001023608604GIFT-BAG 25X32CM GLOSS 0000001000+00001753+00000+0001T   00001753+0000000948          1400 RP6112               2AZ
363373000363373               363373               170213CD     1400+00000+CD0000013155+0000013155+000000000+000001843+0000014998+0000000000+I40000014998+0000000000+Z
363373001363373368-000637     363373006001023874092PLUSH BEAR SLEEPING LOV0000001000+00011402+00000+0001T   00012279+0006470956          1400 RP6745               2DZ
363373002363373077-000455     363373006003000285389G/BAG METALLIC LRG SOL 0000001000+00001753+00000+0001T   00001753+0000000956          1400 RP6112               2DZ
363374000363374               363374               170213CD     1400+00000+CD0000010521+0000010521+000000000+000001473+0000011990+0000000004+I20000000000+0000011990+Z
363374001363374159-006347     363374006001023713193HOOKS SET-2 ASSTD BOX  0000002000+00003507+00000+0001T   00003507+0000001043          1400 RP6200               2AZ
363374002363374031-086224     363374006001023900623P/FRAME WDN GRAIN 13X180000001000+00003507+00000+0001T   00003507+0000001043          1400 RP6510               2AZ
363375000363375               363375               170213CD     1400+00000+CD0000003278+0000003278+000000000+000000460+0000003738+0000000000+I40000003738+0000000000+Z
363375001363375039-000318     363375006003000406159B/DAY CANDLES SMALL NO 0000001000+00001753+00000+0001T   00001753+0000001108          1400 RP6510               2AZ
363375002363375039-000324     363375006001023775221B/CANDLES+HOLDERS 24PCE0000001000+00001490+00000+0001T   00001490+0000001108          1400 RP6510               2AZ
363375003363375112-116038     363375006009681820246TCS CARRIER BAG MIDI   0000001000+00000035+00000+0001T   00000035+0000001108          1400 RP6090               2AZ
363376000363376               363376               170213CD     1400+00000+CD0000000613+0000000613+000000000+000000086+0000000690+0000000009+I20000000000+0000000690+Z
363376001363376200-000065     363376006001023323675DRINKING-STRAWS 38PCE  0000001000+00000613+00000+0001T   00000613+0000001123          1400 RP6214               2AZ
363377000363377               363377               170213CD     1400+00000+CD0000002630+0000002630+000000000+000000369+0000002999+0000000000+I40000002999+0000000000+Z
363377001363377206-000620     363377006003000631797BACK SCRATCHER EXTEND  0000001000+00002630+00000+0001T   00002630+0000001126          1400 RP6321               2AZ
363378000363378               363378               170213CD     1400+00000+CD0000002454+0000002454+000000000+000000344+0000002790+0000000008+I20000000000+0000002790+Z
363378002363378077-000315     363378006003000181186GIFT-BAG 20x28cm MATT  0000001000+00001578+00000+0001T   00001578+0000001128          1400 RP6112               2AZ
363378003363378077-000011-D   363378006001023808554TISSUE-WRAP WHITE 10PCE0000001000+00000876+00000+0001T   00000876+0000001128          1400 RP6112               2AZ
363379000363379               363379               170213CD     1400+00000+CD0000001227+0000001227+000000000+000000172+0000001390+0000000009+I20000000000+0000001390+Z
363379001363379077-000319     363379006001023609779GIFT-BAG 18X23CM BIRTHD0000001000+00001227+00000+0001T   00001227+0000001250          1400 RP6112               2AZ
363380000363380               363380               170213CD     1400+00000+CD0000014374+0000014374+000000000+000002017+0000016391+0000000000+I40000016391+0000000000+Z
363380001363380006-000805     363380000013994092418STREAMERS 10-ROLLS     0000001000+00001490+00000+0001T   00001490+0000001253          1400 2IC131               2DZ
363380002363380560-000256     363380006001023831101GROWING FISH ASSTD     0000002000+00002630+00000+0001T   00002630+0000001253          1400 2IC745               2DZ
363380003363380566-001234     363380006003000217793STICKERS LASER ASSTD   0000001000+00001578+00000+0001T   00001578+0000001253          1400 2IC130               2DZ
363380004363380006-000166-C   363380006003000516377BALLOONS LRG 6PC PINK  0000001000+00001314+00000+0001T   00001314+0000001253          1400 2IC131               2DZ
363380005363380079-009702-D   363380008427973059354PAPER SIRIO A2 RED COL 0000002000+00001051+00000+0001T   00001051+0000001253          1400 2IC130               2DZ
363380006363380565-000040     363380006008766115635NOVELTY ICON BEANIE    0000001000+00002630+00000+0001T   00002630+0000001253          1400 2IC745               2DZ
363381000363381               363381               170213CD     1400+00000+CD0000001490+0000001490+000000000+000000209+0000001690+0000000009+I20000000000+0000001690+Z
363381001363381464-000106     363381006001023171153PLAYING-CARDS (SINGLE) 0000001000+00001490+00000+0001T   00001490+0000001253          1400 2IC785               2DZ
363382000363382               363382               170213CD     1400+00000+CD0000002192+0000002192+000000000+000000307+0000002490+0000000009+I20000000000+0000002490+Z
363382001363382002-000685     363382006001023693785K/TOOL P/MASHER H/HOUSE0000001000+00002192+00000+0001T   00002192+0000001259          1400 2IC300               2DZ
363383000363383               363383               170213CD     1400+00000+CD0000015643+0000015643+000000000+000002191+0000017834+0000000000+I40000017834+0000000000+Z
363383001363383560-000704     363383006003000592234ANIMALS BUGS&LIZARDS   0000001000+00003507+00000+0001T   00003507+0000001351          1400 RP6745               2AZ
363383002363383565-000080     363383006003000643424NOVELTY BENDY          0000002000+00002192+00000+0001T   00002192+0000001351          1400 RP6745               2AZ
363383003363383362-003007     363383006003000295401GIRL FASHION SUNGLASSES0000001000+00001578+00000+0001T   00001753+0008191351          1400 RP6160               2AZ
363383004363383112-116038     363383006009681820246TCS CARRIER BAG MIDI   0000001000+00000035+00000+0001T   00000035+0000001351          1400 RP6090               2AZ
363383005363383560-000229     363383006003000469468ANIMALS BIG EYES ASSTD 0000001000+00006139+00000+0001T   00006139+0000001351          1400 RP6745               2AZ
363384000363384               363384               170213CD     1400+00000+CD0000003507+0000003507+000000000+000000491+0000003998+0000000000+I40000003998+0000000000+Z
363384001363384018-000136     363384006001023659026MUG OCC LOVE W/PLUSH   0000001000+00003507+00000+0001T   00003507+0000001403          1400 US2515               2AZ
363385000363385               363385               170213CD     1400+00000+CD0000002665+0000002665+000000000+000000374+0000003030+0000000009+I20000000000+0000003030+Z
363385001363385077-000270     363385006003000395453GIFT-BAG PPR JMB 33X45 0000001000+00002630+00000+0001T   00002630+0000001446          1400 2IC112               2DZ
363385002363385112-116038     363385006003000534906TCS CARRIER BAG MIDI   0000001000+00000035+00000+0001T   00000035+0000001446          1400 2IC090               2DZ
363386000363386               363386               170213CD     1400+00000+CD0000020646+0000020646+000000000+000002891+0000023530+0000000007+I20000000000+0000023530+Z
363386001363386002-220004     363386006001023467614F/COVER HEXAGONAL 70cm 0000001000+00003069+00000+0001T   00003069+0000001505          1400 JU1300               2AZ
363386002363386002-000153     363386006001023138804MEAT-TENDERIZER        0000001000+00004385+00000+0001T   00004385+0000001505          1400 JU1300               2AZ
363386003363386002-050018     363386004008562301005MORTAR & PESTLE MARBLE 0000001000+00013157+00000+0001T   00013157+0000001505          1400 JU1300               2AZ
363386004363386112-116038     363386006003000534906TCS CARRIER BAG MIDI   0000001000+00000035+00000+0001T   00000035+0000001505          1400 JU1090               2AZ
363387000363387               363387               170213CD     1400+00000+CD0000005607+0000005607+000000000+000000788+0000006390+0000000005+I20000000000+0000006390+Z
363387001363387903-000698     363387006002099007032SWT CANDY ECLAIRS 90g  0000002000+00001139+00000+0001T   00001139+0000001506          1400 JU1150               2AZ
363387002363387903-000138     363387006002099004314SWT GS WINE GUMS 60G   0000002000+00000788+00000+0001T   00000788+0000001506          1400 JU1150               2AZ
363387003363387077-000454     363387006003000285266G/BAG METALLIC LRG EMB 0000001000+00001753+00000+0001T   00001753+0000001506          1400 JU1112               2AZ
363388000363388               363388               170213CD     1400+00000+CD0000001314+0000001314+000000000+000000184+0000001490+0000000008+I20000000000+0000001490+Z
363388001363388150-001234-1   363388005019190010015PLATE-HANGER P/C SIZE-10000001000+00001314+00000+0001T   00001314+0000001507          1400 JU1810               2AZ
363389000363389               363389               170213CD     1400+00000+CD0000005554+0000005554+000000000+000000779+0000006333+0000000000+I40000006333+0000000000+Z
363389001363389002-021040     363389006001023812216PARTY-PICKS 100PCE     0000001000+00000525+00000+0001T   00000525+0000001518          1400 US2300               2AZ
363389002363389077-000011-D   363389006001023808554TISSUE-WRAP WHITE 10PCE0000001000+00000876+00000+0001T   00000876+0000001518          1400 US2112               2AZ
363389003363389077-000452     363389006003000284986G/BAG METALLIC MED EMB 0000001000+00001490+00000+0001T   00001490+0000001518          1400 US2112               2AZ
363389004363389077-000310     363389006001023608635GIFT-BAG 18X23CM GLOSS 0000002000+00001314+00000+0001T   00001314+0000001518          1400 US2112               2AZ
363389005363389112-116038     363389006009681820246TCS CARRIER BAG MIDI   0000001000+00000035+00000+0001T   00000035+0000001518          1400 US2090               2AZ
363390000363390               363390               170213CD     1400+00000+CD0000004678+0000004678+000000000+000000656+0000005330+0000000004+I20000000000+0000005330+Z
363390001363390566-002004     363390006001023672421STICKERS CRYSTAL SHAPES0000001000+00001753+00000+0001T   00001753+0000001607          1400 RP6130               2AZ
363390002363390566-002000     363390000721129013206STICKERS CRYSTAL ASSTD 0000002000+00000700+00000+0001T   00000700+0000001607          1400 RP6130               2AZ
363390003363390565-004101     363390006003000548033BALL BOUNCING EGG      0000001000+00001490+00000+0001T   00001490+0000001607          1400 RP6745               2AZ
363390004363390112-116038     363390006009681820246TCS CARRIER BAG MIDI   0000001000+00000035+00000+0001T   00000035+0000001607          1400 RP6090               2AZ
363391000363391               363391               170213CD     1400+00000+CD0000004385+0000004385+000000000+000000614+0000004990+0000000009+I20000000000+0000004990+Z
363391001363391082-000105     363391006003000360369READING GLS STRNGHT:1.50000001000+00004385+00000+0001T   00004385+0000001607          1400 RP6160               2AZ
363392000363392               363392               170213CD     1400+00000+CD0000004385+0000004385+000000000+000000614+0000004990+0000000009+I20000000000+0000004990+Z
363392001363392082-000110     363392006003000360482READING GLS STRENGHT:2 0000001000+00004385+00000+0001T   00004385+0000001608          1400 RP6160               2AZ
363393000363393               363393               170213CD     1400+00000+CD0000001314+0000001314+000000000+000000184+0000001490+0000000008+I20000000000+0000001490+Z
363393001363393077-000310     363393006001023608635GIFT-BAG 18X23CM GLOSS 0000001000+00001314+00000+0001T   00001314+0000001612          1400 RP6112               2AZ
363394000363394               363394               170213CD     1400+00000+CD0000005786+0000005786+000000000+000000811+0000006597+0000000000+I40000006597+0000000000+Z
363394001363394077-000303     363394006001023593757GIFT-BAG PAPER MED     0000002000+00001578+00000+0001T   00001578+0000001626          1400 RP6112               2AZ
363394002363394077-000270     363394006003000395453GIFT-BAG PPR JMB 33X45 0000001000+00002630+00000+0001T   00002630+0000001626          1400 RP6112               2AZ
363395000363395               363395               170213CD     1400+00000+CD0000005436+0000005436+000000000+000000762+0000006190+0000000008+I20000000000+0000006190+Z
363395001363395024-091103     363395006003453014307BAKING-CUP MUFFIN 50PCE0000001000+00002192+00000+0001T   00002192+0000001630          1400 RP6300               2AZ
363395002363395150-000770     363395006003000059843UTILITY BOX MEGA       0000001000+00003244+00000+0001T   00003244+0000001630          1400 RP6810               2AZ
363396000363396               363396               170213CD     1400+00000+CD0000005734+0000005734+000000000+000000803+0000006530+0000000007+I20000000000+0000006530+Z
363396001363396563-000318-L   363396006003000407088SERVIETTES 33cm RED    0000001000+00002192+00000+0001T   00002192+0000001631          1400 RP6214               2AZ
363396002363396018-005009     363396006001023725608MUG W/PLUSH-BEAR LOVE  0000001000+00003507+00000+0001T   00003507+0000001631          1400 RP6515               2AZ
363396003363396112-116038     363396006009681820246TCS CARRIER BAG MIDI   0000001000+00000035+00000+0001T   00000035+0000001631          1400 RP6090               2AZ
363397000363397               363397               170213CD     1400+00000+CD0000007051+0000007051+000000000+000000988+0000008039+0000000000+I40000008039+0000000000+Z
363397001363397263-000417     363397006003000598984VEHICLES MONSTER FRICT.0000001000+00007016+00000+0001T   00007016+0000001639          1400 RP6710               2AZ
363397002363397112-116038     363397006009681820246TCS CARRIER BAG MIDI   0000001000+00000035+00000+0001T   00000035+0000001639          1400 RP6090               2AZ
363398000363398               363398               170213CD     1400+00000+CD0000016694+0000016694+000000000+000002338+0000019032+0000000000+I40000019032+0000000000+Z
363398001363398077-000309     363398006001023608604GIFT-BAG 25X32CM GLOSS 0000001000+00001753+00000+0001T   00001753+0000001641          1400 RP6112               2AZ
363398002363398112-116038     363398006009681820246TCS CARRIER BAG MIDI   0000001000+00000035+00000+0001T   00000035+0000001641          1400 RP6090               2AZ
363398003363398018-000130     363398006001023867537MUG OCC LOVE MINI+HEART0000001000+00003507+00000+0001T   00003507+0000001641          1400 RP6515               2AZ
363398004363398301-085004     363398006003000420469ORN LOVE PLAQUE 21X10CM0000001000+00003507+00000+0001T   00003946+0006471641          1400 RP6505               2AZ
363398005363398018-005009     363398006001023725608MUG W/PLUSH-BEAR LOVE  0000001000+00003507+00000+0001T   00003507+0000001641          1400 RP6515               2AZ
363398006363398018-030000     363398006003000421060MUG OCCASIONS LOVE 2PCE0000001000+00004385+00000+0001T   00004385+0000001641          1400 RP6515               2AZ
363399000363399               363399               170213CD     1400+00000+CD0000000876+0000000876+000000000+000000123+0000000990+0000000009+I20000000000+0000000990+Z
363399001363399071-001012     363399006001023474445MARKERS BLACK ROUND    0000001000+00000876+00000+0001T   00000876+0000001643          1400 RP6130               2AZ
363400000363400               363400               170213CD     1400+00000+CD0000001490+0000001490+000000000+000000209+0000001690+0000000009+I20000000000+0000001690+Z
363400001363400077-000384     363400006003000275243G/BAG HOT STMP 18x23CM 0000001000+00001490+00000+0001T   00001490+0000001646          1400 RP6112               2AZ
363401000363401               363401               170213CD     1400+00000+CD0000006137+0000006137+000000000+000000860+0000006997+0000000000+I40000006997+0000000000+Z
363401001363401018-000129     363401006001023403353MUG OCC. LOVE V-SHAPE  0000001000+00002630+00000+0001T   00002630+0000001649          1400 RP6515               2AZ
363401002363401018-000130     363401006001023867537MUG OCC LOVE MINI+HEART0000001000+00003507+00000+0001T   00003507+0000001649          1400 RP6515               2AZ
363402000363402               363402               170213CD     1400+00000+CD0000002192+0000002192+000000000+000000307+0000002490+0000000009+I20000000000+0000002490+Z
363402001363402080-000127     363402006003000424351VALENTINES DAY 36x24CM 0000001000+00002192+00000+0001T   00002192+0000001654          1400 RP6112               2AZ
363403000363403               363403               170213CD     1400+00000+CD0000002454+0000002454+000000000+000000344+0000002790+0000000008+I20000000000+0000002790+Z
363403001363403071-081091     363403006001151010287STAED/GENKEM ALL-STICK 0000002000+00001227+00000+0001T   00001227+0000001654          1400 RP6130               2AZ
363404000363404               363404               170213CD     1400+00000+CD0000006047+0000006047+000000000+000000848+0000006890+0000000005+I20000000000+0000006890+Z
363404001363404018-000129     363404006001023403353MUG OCC. LOVE V-SHAPE  0000001000+00002630+00000+0001T   00002630+0000001656          1400 RP6515               2AZ
363404002363404903-000518     363404006001704012782SWT STRAWS S/BERRY 100g0000001000+00001227+00000+0001T   00001227+0000001656          1400 RP61502IC            2AZ
363404003363404067-002251     363404006003000329021XMAS CHOC SANTA 60g    0000001000+00001314+00000+0001T   00001314+0000001656          1400 RP6110               2AZ
363404004363404903-000220     363404006001704007368SWT JELLY BEANS 60G    0000001000+00000876+00000+0001T   00000876+0000001656          1400 RP6150               2AZ
363405000363405               363405               170213CD     1400+00000+CD0000001753+0000001753+000000000+000000246+0000001990+0000000009+I20000000000+0000001990+Z
363405001363405077-000290     363405006001023902023GIFT BOX 26x32x13cm    0000001000+00001753+00000+0001T   00001753+0000001700          1400 RP6112               2AZ
363406000363406               363406               170213CD     1400+00000+CD0000008802+0000008802+000000000+000001233+0000010035+0000000000+I40000010035+0000000000+Z
363406001363406565-000889     363406006003000626953NOVELTY SPACE BALLOONS 0000001000+00001753+00000+0001T   00001753+0000001702          1400 RP6745               2AZ
363406002363406018-000130     363406006001023867537MUG OCC LOVE MINI+HEART0000002000+00003507+00000+0001T   00003507+0000001702          1400 RP6515               2AZ
363406003363406112-116038     363406006009681820246TCS CARRIER BAG MIDI   0000001000+00000035+00000+0001T   00000035+0000001702          1400 RP6090               2AZ
363407000363407               363407               170213CD     1400+00000+CD0000001578+0000001578+000000000+000000221+0000001790+0000000009+I20000000000+0000001790+Z
363407001363407077-000348     363407006001023483287GIFT-BOWS 4,5cm 8PCE   0000001000+00001578+00000+0001T   00001578+0000001704          1400 RP6112               2AZ
363408000363408               363408               170213CD     1400+00000+CD0000005260+0000005260+000000000+000000738+0000005990+0000000008+I20000000000+0000005990+Z
363408001363408077-000115-B   363408006003000181025GIFT-WRAP PPR 700MMX2M 0000001000+00002630+00000+0001T   00002630+0000001705          1400 RP6112               2AZ
363408002363408266-003012     363408006001023786128BOYS P/SET ARCHERY 4pc 0000001000+00002630+00000+0001T   00002630+0000001705          1400 RP6710               2AZ
363409000363409               363409               170213CD     1400+00000+CD0000001490+0000001490+000000000+000000209+0000001690+0000000009+I20000000000+0000001690+Z
363409001363409039-000108     363409006001023524034TEA-LITE CANDLES 8PCE  0000001000+00001490+00000+0001T   00001490+0000001706          1400 RP6510               2AZ
363410000363410               363410               170213CD     1400+00000+CD0000007016+0000007016+000000000+000000983+0000007999+0000000000+I40000007999+0000000000+Z
363410001363410203-000006     363410006001023752789COASTER-SET 4PCE       0000001000+00007016+00000+0001T   00008771+0008191709          1400 RP6300               2AZ
363411000363411               363411               170213CD     1400+00000+CD0000002980+0000002980+000000000+000000418+0000003390+0000000008+I20000000000+0000003390+Z
363411001363411039-000108     363411006001023524034TEA-LITE CANDLES 8PCE  0000001000+00001490+00000+0001T   00001490+0000001709          1400 RP6510               2AZ
363411002363411077-000384     363411006003000275243G/BAG HOT STMP 18x23CM 0000001000+00001490+00000+0001T   00001490+0000001709          1400 RP6112               2AZ
363412000363412               363412               170213CD     1400+00000+CD0000003507+0000003507+000000000+000000491+0000003990+0000000008+I20000000000+0000003990+Z
363412001363412018-000130     363412006001023867537MUG OCC LOVE MINI+HEART0000001000+00003507+00000+0001T   00003507+0000001710          1400 RP6515               2AZ
363413000363413               363413               170213CD     1400+00000+CD0000001753+0000001753+000000000+000000246+0000001990+0000000009+I20000000000+0000001990+Z
363413001363413077-000455     363413006003000285389G/BAG METALLIC LRG SOL 0000001000+00001753+00000+0001T   00001753+0000001712          1400 RP6112               2AZ
363414000363414               363414               170213CD     1400+00000+CD0000004380+0000004380+000000000+000000615+0000004990+0000000005+I20000000000+0000004990+Z
363414001363414903-000126     363414006002099003591SWT ZILLIONS MINT 50G  0000001000+00000700+00000+0001T   00000700+0000001713          1400 RP6150               2AZ
363414002363414903-002853     363414000000087108019MENTOS ROLL MINT       0000001000+00001051+00000+0001T   00001051+0000001713          1400 RP6150               2AZ
363414003363414077-000011-Y   363414006001023809858TISSUE-WRAP GOLD 10PCE 0000001000+00001753+00000+0001T   00001753+0000001713          1400 RP6112               2AZ
363414004363414077-000011-R   363414006001023808462P/TISSUE DARK 10-SHEETS0000001000+00000876+00000+0001T   00000876+0000001713          1400 RP6112               2AZ
363415000363415               363415               170213CD     1400+00000+CD0000000525+0000000525+000000000+000000074+0000000590+0000000009+I20000000000+0000000590+Z
363415001363415002-021040     363415006001023812216PARTY-PICKS 100PCE     0000001000+00000525+00000+0001T   00000525+0000001714          1400 RP6300               2AZ
363416000363416               363416               170213CD     1400+00000+CD0000006752+0000006752+000000000+000000946+0000007698+0000000000+I40000007698+0000000000+Z
363416001363416039-082852     363416006008766082852C/SET 4PC MINI PILLARS 0000001000+00005262+00000+0001T   00005262+0000001716          1400 RP6510               2AZ
363416002363416039-000108     363416006001023524034TEA-LITE CANDLES 8PCE  0000001000+00001490+00000+0001T   00001490+0000001716          1400 RP6510               2AZ
363417000363417               363417               170213CD     1400+00000+CD0000001753+0000001753+000000000+000000246+0000001990+0000000009+I20000000000+0000001990+Z
363417001363417077-000239     363417006003000160419GIFT-RIBBON ROLL PEARL 0000001000+00001753+00000+0001T   00001753+0000001718          1400 RP6112               2AZ
363418000363418               363418               170213CD     1400+00000+CD0000010607+0000010607+000000000+000001486+0000012090+0000000003+I20000000000+0000012090+Z
363418001363418903-000843     363418008693029031067SWT GUMMY JELAXY 80G   0000001000+00000964+00000+0001T   00000964+0000001719          1400 RP6150               2AZ
363418002363418301-085004     363418006003000420469ORN LOVE PLAQUE 21X10CM0000001000+00003507+00000+0001T   00003946+0006471719          1400 RP6505               2AZ
363418003363418103-000051     363418006003000675845BAMBOO BASKET SQUARE   0000001000+00001753+00000+0001T   00001753+0000001719          1400 RP6300               2AZ
363418004363418077-000150-D   363418006003000054343GIFT-WRAP CELLPHANE CLR0000001000+00000876+00000+0001T   00000876+0000001719          1400 RP6112               2AZ
363418005363418018-005009     363418006001023725608MUG W/PLUSH-BEAR LOVE  0000001000+00003507+00000+0001T   00003507+0000001719          1400 RP6515               2AZ
363419000363419               363419               170213CD     1400+00000+CD0000054881+0000054881+000000000+000007687+0000062568+0000000000+I40000062568+0000000000+Z
363419001363419486-001003     363419006003000100798CLOCK WALL ROUND 32CM  0000001000+00010525+00000+0001T   00010525+0000001724          1400 RP6510               2AZ
363419002363419031-000902-C   363419006001023726315P/FRAME WDN OAK 13X18CM0000004000+00005262+00000+0001T   00005262+0000001724          1400 RP6510               2AZ
363419003363419007-000214     363419006001023809322STICKERS ALPHA    SET-50000001000+00001314+00000+0001T   00001314+0000001724          1400 RP6130               2AZ
363419004363419079-000282     363419006001023493309PAINT TUBS POSTER 12COL0000001000+00002630+00000+0001T   00002630+0000001724          1400 RP6130               2AZ
363419005363419079-000342     363419006001023913326FELT-TIP PENS 24PCE    0000001000+00003507+00000+0001T   00003507+0000001724          1400 RP6130               2AZ
363419006363419079-000275     363419006003000160488PAINT-BRUSHES 6PCE PRO 0000001000+00001753+00000+0001T   00001753+0000001724          1400 RP6130               2AZ
363419007363419032-000870     363419006003000406708M/WALL 3PC SET ROUND   0000001000+00014034+00000+0001T   00014034+0000001724          1400 RP6510               2AZ
363419008363419112-116038     363419006009681820246TCS CARRIER BAG MIDI   0000002000+00000035+00000+0001T   00000035+0000001724          1400 RP6090               2AZ
A17021300                                          08275695CDSLAVE 2                       RP62IC
A17021301                                          11250572CDSLAVE 2                       RP62IC
A17021302                                          13494312CDSLAVE 2                       RP61IC
B36340400                                          170213CD903-000518     16561669SLAVE 2     RP62IC0000002000+0000001000+0000000000000+
C36337800                                          170213CD077-000011-X   11275928SLAVE 2     RP62IC0000000000+0000000000+0010000001000+
C36339400                                          170213CD007-000602     16254783SLAVE 2     RP61IC0000000000+0000000000+0030000001000+
M17021391                              CASH        CDSLAVE 2                       Z-REPORT No.   678TOTAL (Sales - Refunds)           3545.41       CASH TO BE BANKED                 1506.50       DEBIT CARDS                          0.00       CREDIT CARDS                      2038.91       Z-READING                         3545.41       AIRTIME DEBIT CARD SALES             0.00       AIRTIME CARD SALES                   0.00       OVERS/UNDERS                         0.00       AIRTIME CASH SALES                   0.00       GIFT CARDS                           0.00       GIFT CARD CASH SALES                 0.00       T O T A L  CASH PAYOUTS              0.00                                                                                                                                                                                                                                                                                                                                                      Z
M17021392                              CASH        CDABSENT                                                                                                                                                                                          ANNUAL LEAVE                                                                                                                                                                                    DAY OFF                                                                                                                                                                                         COMMENTS                                                                                                                                                                                                                                                                                                                                                                                       Z
Y17021300                                          CD00000000311199+000052
ZCD17021319243 SLAVE 2      SALES DATA                     NEXT INVOICE NO.  363420 0678
F093735496-028120         1701160932420000042ICSLAVE 2
F093735496-058484         1701160932420000142ICSLAVE 2
F094028496-028142         1701160932590000022ICSLAVE 2
F094068496-028122         1701160933030000012ICSLAVE 2
F094128463-000501         1701160933070000052ICSLAVE 2
X CD Slave 2 First invoice 363368 170213 Last invoice 363419 170213 Next invoice 363420 Total number of records 000000183 clbackup completed 19:24:49
