456351000456351               456351               170213CD     1400+00000+CD0000001314+0000001314+000000000+000000184+0000001490+0000000008+I20000000000+0000001490+Z
456351001456351077-000310     456351006001023608635GIFT-BAG 18X23CM GLOSS 0000001000+00001314+00000+0001T   00001314+0000000908          1400 AT5112               3AZ
456352000456352               456352               170213CD     1400+00000+CD0000006699+0000006699+000000000+000000939+0000007638+0000000000+I40000007638+0000000000+Z
456352001456352140-005093     456352006003000331338INSECT-KILL RAQT-SHAPED0000001000+00005262+00000+0001T   00005262+0000000919          1400 AT5830               3AZ
456352002456352046-000011     456352004897006172994BATTERIES SIZE:AA  2PCE0000001000+00001402+00000+0001T   00001402+0000000919          1400 AT5312               3AZ
456352003456352112-116038     456352006009681820246TCS CARRIER BAG MIDI   0000001000+00000035+00000+0001T   00000035+0000000919          1400 AT5090               3AZ
456353000456353               456353               170213CD     1400+00000+CD0000007925+0000007925+000000000+000001111+0000009030+0000000006+I20000000000+0000009030+Z
456353001456353301-085004     456353006003000420469ORN LOVE PLAQUE 21X10CM0000001000+00003507+00000+0001T   00003946+0006470921          1400 AT5505               3AZ
456353002456353080-000104     456353006003000236978CARD&ENVLP MALE AFR    0000001000+00001753+00000+0001T   00001753+0000000921          1400 AT5112               3AZ
456353003456353369-001138-C   456353006003000587520BABY BATH VINYL G/MAN  0000001000+00002630+00000+0001T   00002630+0000000921          1400 AT5745               3AZ
456353004456353112-116038     456353006009681820246TCS CARRIER BAG MIDI   0000001000+00000035+00000+0001T   00000035+0000000921          1400 AT5090               3AZ
456354000456354               456354               170213CD     1400+00000+CD0000006137+0000006137+000000000+000000860+0000006997+0000000000+I40000006997+0000000000+Z
456354001456354004-071205     456354006003000073368USB 2.0 COMPUTER 4 HUB 0000001000+00003507+00000+0001T   00003507+0000000924          1400 AT5310               3AZ
456354002456354056-065303     456354006001023821041SUN-SHIELD 2PCE ANIMAL 0000001000+00002630+00000+0001T   00002630+0000000924          1400 AT5860               3AZ
456355000456355               456355               170213CD     1400+00000+CD0000007919+0000007919+000000000+000001109+0000009020+0000000008+I20000000000+0000009020+Z
456355001456355112-116038     456355006009681820246TCS CARRIER BAG MIDI   0000001000+00000035+00000+0001T   00000035+0000000927          1400 AT5090               3AZ
456355002456355006-000166-H   456355006003000608096BALLOONS HELIUM 6PC WHT0000003000+00001314+00000+0001T   00001314+0000000927          1400 AT5131               3AZ
456355003456355006-000166-C   456355006003000516377BALLOONS LRG 6PC PINK  0000003000+00001314+00000+0001T   00001314+0000000927          1400 AT5131               3AZ
456356000456356               456356               170213CD     1400+00000+CD0000003154+0000003154+000000000+000000442+0000003596+0000000000+I40000003596+0000000000+Z
456356001456356903-000121     456356006002099001689SWT GS ZILLIONS SOURS  0000001000+00000700+00000+0001T   00000700+0000001011          1400 AT5150               3AZ
456356002456356031-005815     456356009320760100019P/FRAME-CLIP 10x15cm   0000002000+00001227+00000+0001T   00001227+0000001011          1400 AT5510               3AZ
456357000456357               456357               170213CD     1400+00000+CD0000006139-0000006139-000000000+000000860-0000007000-0000000001+I20000000000+0000007000-Z
456357001456357031-006540     456357006001023695031P/FRAME PL 3-(10X15CM) 0000001000-00006139+00000+0001T   00006139+0000001012          1400 AT55101IC            3 Z
456358000456358               456358               170213CD     1400+00000+CD0000004120+0000004120+000000000+000000577+0000004690+0000000007+I20000000000+0000004690+Z
456358001456358018-005009     456358006001023725608MUG W/PLUSH-BEAR LOVE  0000001000+00003507+00000+0001T   00003507+0000001017          1400 AT5515               3AZ
456358002456358903-000849     456358008692806080083SWT SNACK BISCUIT 70g  0000001000+00000613+00000+0001T   00000613+0000001017          1400 AT5150               3AZ
456359000456359               456359               170213CD     1400+00000+CD0000000700+0000000700+000000000+000000098+0000000790+0000000008+I20000000000+0000000790+Z
456359001456359018-000177     456359006001023797513MUG MINI LOVE ASSTD    0000001000+00000700+00000+0001T   00000700+0000001017          1400 AT5515               3AZ
456360000456360               456360               170213CD     1400+00000+CD0000004385+0000004385+000000000+000000614+0000004999+0000000000+I40000004999+0000000000+Z
456360001456360082-000105     456360006003000360369READING GLS STRNGHT:1.50000001000+00004385+00000+0001T   00004385+0000001046          1400 AT5160               3AZ
456361000456361               456361               170213CD     1400+00000+CD0000001490+0000001490+000000000+000000209+0000001690+0000000009+I20000000000+0000001690+Z
456361001456361046-000004     456361006001023606525BATTERY 9VOLT H/POWER  0000001000+00001490+00000+0001T   00001490+0000001047          1400 AT5312               3AZ
456362000456362               456362               170213CD     1400+00000+CD0000004681+0000004681+000000000+000000656+0000005337+0000000000+I40000005337+0000000000+Z
456362001456362072-020266     456362006003000400591PET PUPPY TRAINING PAD 0000001000+00003507+00000+0001T   00003507+0000001050          1400 AT5870               3AZ
456362002456362033-001363     456362006001023802057HAIR-CLIPS 50mm 48PCE  0000001000+00001139+00000+0001T   00001139+0000001050          1400 AT5200               3AZ
456362003456362112-116038     456362006009681820246TCS CARRIER BAG MIDI   0000001000+00000035+00000+0001T   00000035+0000001050          1400 AT5090               3AZ
456363000456363               456363               170213CD     1400+00000+CD0000003507+0000003507+000000000+000000491+0000003990+0000000008+I20000000000+0000003990+Z
456363001456363018-005009     456363006001023725608MUG W/PLUSH-BEAR LOVE  0000001000+00003507+00000+0001T   00003507+0000001051          1400 AT5515               3AZ
456364000456364               456364               170213CD     1400+00000+CD0000004822+0000004822+000000000+000000676+0000005490+0000000008+I20000000000+0000005490+Z
456364001456364030-000040     456364006003000396375PLAQUE WDN HANGING HRTS0000001000+00003069+00000+0001T   00003069+0000001058          1400 AT5505               3AZ
456364002456364077-000455     456364006003000285389G/BAG METALLIC LRG SOL 0000001000+00001753+00000+0001T   00001753+0000001058          1400 AT5112               3AZ
456365000456365               456365               170213CD     1400+00000+CD0000001753+0000001753+000000000+000000246+0000001990+0000000009+I20000000000+0000001990+Z
456365001456365077-000240     456365006003000326259G/RIBBON 4PC PEARLIZED 0000001000+00001753+00000+0001T   00001753+0000001059          1400 AT5112               3AZ
456366000456366               456366               170213CD     1400+00000+CD0000001839+0000001839+000000000+000000258+0000002090+0000000007+I20000000000+0000002090+Z
456366001456366077-000311     456366006001023608666GIFT-BAG 11X14CM GLOSS 0000003000+00000613+00000+0001T   00000613+0000001101          1400 AT5112               3AZ
456367000456367               456367               170213CD     1400+00000+CD0000006838+0000006838+000000000+000000958+0000007796+0000000000+I40000007796+0000000000+Z
456367001456367018-030000     456367006003000421060MUG OCCASIONS LOVE 2PCE0000001000+00004385+00000+0001T   00004385+0000001120          1400 AT5515               3AZ
456367002456367564-000012     456367006001023130075BUBBLE BOTTLE MAGIC    0000001000+00000700+00000+0001T   00000700+0000001120          1400 AT5131               3AZ
456367003456367077-000290     456367006001023902023GIFT BOX 26x32x13cm    0000001000+00001753+00000+0001T   00001753+0000001120          1400 AT5112               3AZ
456368000456368               456368               170213CD     1400+00000+CD0000006139+0000006139+000000000+000000860+0000006990+0000000009+I20000000000+0000006990+Z
456368001456368368-000104     456368006001023751348PLUSH BEAR RUFFLED-LOOK0000001000+00006139+00000+0001T   00006139+0000001121          1400 AT5745               3AZ
456369000456369               456369               170213CD     1400+00000+CD0000010961+0000010961+000000000+000001536+0000012490+0000000007+I20000000000+0000012490+Z
456369001456369039-080959     456369006003000048922CANDLE PILLAR BALL 8CM 0000001000+00003069+00000+0001T   00003069+0000001129          1400 AT5510               3AZ
456369002456369039-080960     456369006003000333998CANDLE PILLAR BALL 10CM0000001000+00006139+00000+0001T   00006139+0000001129          1400 AT5510               3AZ
456369003456369301-085002     456369006003000420704ORN OCC. LOVE BELL ASST0000001000+00001753+00000+0001T   00002630+0008121129          1400 AT5505               3AZ
456370000456370               456370               170213CD     1400+00000+CD0000004420+0000004420+000000000+000000619+0000005030+0000000009+I20000000000+0000005030+Z
456370001456370368-000001     456370006003000097982Plush Bear 25cm        0000001000+00004385+00000+0001T   00004385+0000001132          1400 AT5745               3AZ
456370002456370112-116038     456370006009681820246TCS CARRIER BAG MIDI   0000001000+00000035+00000+0001T   00000035+0000001132          1400 AT5090               3AZ
456371000456371               456371               170213CD     1400+00000+CD0000001753+0000001753+000000000+000000246+0000001990+0000000009+I20000000000+0000001990+Z
456371001456371048-000840-A   456371006001023867612TORCH RUB KRYPTON 1xAA 0000001000+00001753+00000+0001T   00001753+0000001133          1400 AT5305               3AZ
456372000456372               456372               170213CD     1400+00000+CD0000006172+0000006172+000000000+000000865+0000007030+0000000007+I20000000000+0000007030+Z
456372001456372200-000012     456372006003000399536BAG 50PCE 165x146mm    0000001000+00003507+00000+0001T   00003507+0000001139          1400 AT5214               3AZ
456372002456372206-000620     456372006003000631797BACK SCRATCHER EXTEND  0000001000+00002630+00000+0001T   00002630+0000001139          1400 AT5321               3AZ
456372003456372112-116038     456372006009681820246TCS CARRIER BAG MIDI   0000001000+00000035+00000+0001T   00000035+0000001139          1400 AT5090               3AZ
456373000456373               456373               170213CD     1400+00000+CD0000000876+0000000876+000000000+000000123+0000000990+0000000009+I20000000000+0000000990+Z
456373001456373082-026204     456373006001023816443R/GLASSES STRINGS 2PCE 0000001000+00000876+00000+0001T   00000876+0000001146          1400 AT5160               3AZ
456374000456374               456374               170213CD     1400+00000+CD0000001753+0000001753+000000000+000000246+0000001990+0000000009+I20000000000+0000001990+Z
456374001456374077-000455     456374006003000285389G/BAG METALLIC LRG SOL 0000001000+00001753+00000+0001T   00001753+0000001147          1400 AT5112               3AZ
456375000456375               456375               170213CD     1400+00000+CD0000006138+0000006138+000000000+000000860+0000006990+0000000008+I20000000000+0000006990+Z
456375001456375077-000290     456375006001023902023GIFT BOX 26x32x13cm    0000001000+00001753+00000+0001T   00001753+0000001154          1400 AT5112               3AZ
456375002456375018-030000     456375006003000421060MUG OCCASIONS LOVE 2PCE0000001000+00004385+00000+0001T   00004385+0000001154          1400 AT5515               3AZ
456376000456376               456376               170213CD     1400+00000+CD0000002192+0000002192+000000000+000000307+0000002490+0000000009+I20000000000+0000002490+Z
456376001456376051-002400     456376006001023616180TRIGGER-SPRAYER 900ml  0000001000+00002192+00000+0001T   00002192+0000001157          1400 AT5820               3AZ
456377000456377               456377               170213CD     1400+00000+CD0000001753+0000001753+000000000+000000246+0000001990+0000000009+I20000000000+0000001990+Z
456377001456377466-064834     456377006008766064834BALL W/SPIKES 20cm     0000001000+00001753+00000+0001T   00001753+0000001159          1400 AT5785               3AZ
456378000456378               456378               170213CD     1400+00000+CD0000009322+0000009322+000000000+000001307+0000010620+0000000009+I20000000000+0000010620+Z
456378001456378112-116038     456378006009681820246TCS CARRIER BAG MIDI   0000001000+00000035+00000+0001T   00000035+0000001201          1400 AT5090               3AZ
456378002456378306-001135-A   456378006003000359110FIRSTAID SUPPORT HAND  0000002000+00001314+00000+0001T   00001753+0008171201          1400 AT5200               3AZ
456378003456378306-001690     456378006003000620937EYELASH CURLERS        0000001000+00001314+00000+0001T   00001753+0008171201          1400 AT5200               3AZ
456378004456378566-000004-A   456378006001023614629STICKER BOOK VELVET    0000001000+00001139+00000+0001T   00001578+0008151201          1400 AT5130               3AZ
456378005456378567-010620     456378009781847503817BK ACTIVITY ASSTD      0000001000+00001753+00000+0001T   00002630+0008131201          1400 AT5757               3AZ
456378006456378034-000336     456378006005387186105BABY FEEDING PLATE     0000001000+00000700+00000+0001T   00000876+0008151201          1400 AT5215               3AZ
456378007456378018-000138     456378006003000547104MUG NOVELTY CER. T-SHPE0000001000+00001753+00000+0001T   00002192+0008171201          1400 AT5515               3AZ
456379000456379               456379               170213CD     1400+00000+CD0000001753+0000001753+000000000+000000246+0000001990+0000000009+I20000000000+0000001990+Z
456379001456379077-000299-A   456379006003000670888GIFT-BAG PAPER JMB LOVE0000001000+00001753+00000+0001T   00001753+0000001203          1400 AT5112               3AZ
456380000456380               456380               170213CD     1400+00000+CD0000001226+0000001226+000000000+000000172+0000001390+0000000008+I20000000000+0000001390+Z
456380001456380077-000311     456380006001023608666GIFT-BAG 11X14CM GLOSS 0000002000+00000613+00000+0001T   00000613+0000001306          1400 AT5112               3AZ
456381000456381               456381               170213CD     1400+00000+CD0000004385+0000004385+000000000+000000614+0000004999+0000000000+I40000004999+0000000000+Z
456381001456381072-000602     456381006003000452446DOG-COLLAR 1.6x35cm SML0000001000+00004385+00000+0001T   00004385+0000001310          1400 AT5870               3AZ
456382000456382               456382               170213CD     1400+00000+CD0000007891+0000007891+000000000+000001106+0000008990+0000000007+I20000000000+0000008990+Z
456382001456382038-047250     456382006001023816009PLACE MAT ASSORTED     0000001000+00001753+00000+0001T   00001753+0000001314          1400 AT5300               3AZ
456382002456382024-000083     456382006001023770943SIEVE FLOUR 20cm MTL-RI0000001000+00001753+00000+0001T   00001753+0000001314          1400 AT5300               3AZ
456382003456382024-000059     456382006003000054015ROLLING-PIN WDN 43cm   0000001000+00004385+00000+0001T   00004385+0000001314          1400 AT5300               3AZ
456383000456383               456383               170213CD     1400+00000+CD0000004470+0000004470+000000000+000000627+0000005090+0000000007+I20000000000+0000005090+Z
456383001456383036-000605     456383006001023158611WASHING-PEGS WDN PCK-240000002000+00001490+00000+0001T   00001490+0000001314          1400 AT5212               3AZ
456383002456383034-078833     456383006001023857491SIGN BABY-ON-BOARD     0000001000+00001490+00000+0001T   00001490+0000001314          1400 AT5215               3AZ
456384000456384               456384               170213CD     1400+00000+CD0000002630+0000002630+000000000+000000369+0000002999+0000000000+I40000002999+0000000000+Z
456384001456384206-000220     456384006003000631704EGG TIMER COLOUR-CHANGE0000001000+00002630+00000+0001T   00002630+0000001321          1400 AT5321               3AZ
456385000456385               456385               170213CD     1400+00000+CD0000018010+0000018010+000000000+000002523+0000020533+0000000000+I40000020533+0000000000+Z
456385001456385112-116038     456385006009681820246TCS CARRIER BAG MIDI   0000001000+00000035+00000+0001T   00000035+0000001323          1400 AT5090               3AZ
456385002456385077-000303     456385006001023593757GIFT-BAG PAPER MED     0000002000+00001578+00000+0001T   00001578+0000001323          1400 AT5112               3AZ
456385003456385001-091415     456385006003000329113W/GLS OCC. LOVE 2PC 2800000001000+00008771+00000+0001T   00009648+0006471323          1400 AT5515               3AZ
456385004456385018-005009     456385006001023725608MUG W/PLUSH-BEAR LOVE  0000001000+00003507+00000+0001T   00003507+0000001323          1400 AT5515               3AZ
456385005456385071-081101-A   456385006003000326549GLUE-STICK 25g BLISTER 0000001000+00000788+00000+0001T   00000788+0000001323          1400 AT5130               3AZ
456385006456385071-005211     456385006003000152346CELLOTAPE MOUNTING TAPE0000001000+00001753+00000+0001T   00001753+0000001323          1400 AT5130               3AZ
456386000456386               456386               170213CD     1400+00000+CD0000004998+0000004998+000000000+000000700+0000005690+0000000008+I20000000000+0000005690+Z
456386001456386077-000311     456386006001023608666GIFT-BAG 11X14CM GLOSS 0000001000+00000613+00000+0001T   00000613+0000001339          1400 AT5112               3AZ
456386002456386162-092943     456386006001492929439#TAG SWEETY NK & WR SET0000001000+00004385+00000+0001T   00004385+0000001339          1400 AT5160               3AZ
456387000456387               456387               170213CD     1400+00000+CD0000005734+0000005734+000000000+000000804+0000006530+0000000008+I20000000000+0000006530+Z
456387001456387031-086303-A   456387006003000322206P/FRM CHAMPAGNE 10X15CM0000001000+00003069+00000+0001T   00003069+0000001341          1400 AT5510               3AZ
456387002456387031-000873-A   456387006003000675425P/FRAME WDN WHITE 10X150000001000+00002630+00000+0001T   00002630+0000001341          1400 AT5510               3AZ
456387003456387112-116038     456387006009681820246TCS CARRIER BAG MIDI   0000001000+00000035+00000+0001T   00000035+0000001341          1400 AT5090               3AZ
456388000456388               456388               170213CD     1400+00000+CD0000002800+0000002800+000000000+000000392+0000003192+0000000000+I40000003192+0000000000+Z
456388001456388564-000012     456388006001023130075BUBBLE BOTTLE MAGIC    0000004000+00000700+00000+0001T   00000700+0000001343          1400 AT5131               3AZ
456389000456389               456389               170213CD     1400+00000+CD0000010524+0000010524+000000000+000001474+0000011990+0000000008+I20000000000+0000011990+Z
456389001456389031-086303-C   456389006003000322527P/FRM CHAMPAGNE 20X25CM0000002000+00005262+00000+0001T   00005262+0000001349          1400 AT5510               3AZ
456390000456390               456390               170213CD     1400+00000+CD0000001578+0000001578+000000000+000000221+0000001790+0000000009+I20000000000+0000001790+Z
456390001456390077-000323     456390006001023677563G/BAG 25X32CM E/DAY FLO0000001000+00001578+00000+0001T   00001578+0000001350          1400 AT5112               3AZ
456391000456391               456391               170213CD     1400+00000+CD0000000035+0000000035+000000000+000000005+0000000040+0000000000+I20000000000+0000000040+Z
456391001456391112-116038     456391006009681820246TCS CARRIER BAG MIDI   0000001000+00000035+00000+0001T   00000035+0000001351          1400 AT5090               3AZ
456392000456392               456392               170213CD     1400+00000+CD0000001227+0000001227+000000000+000000172+0000001390+0000000009+I20000000000+0000001390+Z
456392001456392077-000318     456392006001023609755GIFT-BAG 18X23CM E/D AN0000001000+00001227+00000+0001T   00001227+0000001352          1400 AT5112               3AZ
456393000456393               456393               170213CD     1400+00000+CD0000009636+0000009636+000000000+000001350+0000010980+0000000006+I20000000000+0000010980+Z
456393001456393006-000166-C   456393006003000516377BALLOONS LRG 6PC PINK  0000006000+00001314+00000+0001T   00001314+0000001405          1400 AT5131               3AZ
456393002456393077-000011-E   456393006001023808646TISSUE-WRAP PINK 10PCE 0000002000+00000876+00000+0001T   00000876+0000001405          1400 AT5112               3AZ
456394000456394               456394               170213CD     1400+00000+CD0000008806+0000008806+000000000+000001233+0000010039+0000000000+I40000010039+0000000000+Z
456394001456394203-005501     456394006003000381821DRINKING HELMET 4 2 CAN0000001000+00008771+00000+0001T   00010525+0008191407          1400 AT5300               3AZ
456394002456394112-116038     456394006009681820246TCS CARRIER BAG MIDI   0000001000+00000035+00000+0001T   00000035+0000001407          1400 AT5090               3AZ
456395000456395               456395               170213CD     1400+00000+CD0000001227+0000001227+000000000+000000172+0000001390+0000000009+I20000000000+0000001390+Z
456395001456395077-000245     456395006001023759214GIFT-RIBBON METALLICx2 0000001000+00001227+00000+0001T   00001227+0000001408          1400 AT5112               3AZ
456396000456396               456396               170213CD     1400+00000+CD0000001490+0000001490+000000000+000000209+0000001690+0000000009+I20000000000+0000001690+Z
456396001456396034-078833     456396006001023857491SIGN BABY-ON-BOARD     0000001000+00001490+00000+0001T   00001490+0000001408          1400 AT5215               3AZ
456397000456397               456397               170213CD     1400+00000+CD0000003506+0000003506+000000000+000000492+0000003990+0000000008+I20000000000+0000003990+Z
456397001456397016-006515     456397006003000295555S/JAR GLS EMBOSS. 250ML0000002000+00001753+00000+0001T   00001753+0000001411          1400 AT5300               3AZ
456398000456398               456398               170213CD     1400+00000+CD0000011306+0000011306+000000000+000001585+0000012891+0000000000+I40000012891+0000000000+Z
456398001456398903-000120     456398006002099001665SWEET GS ZILLIONS 50g  0000002000+00000700+00000+0001T   00000700+0000001414          1400 AT5150               3AZ
456398002456398079-013032-B   456398006003000389445MIXED SHAPES           0000001000+00001753+00000+0001T   00001753+0000001414          1400 AT5130               3AZ
456398003456398079-006522     456398006001023149442ART+CRAFT GLUE ASSORTED0000001000+00001753+00000+0001T   00001753+0000001414          1400 AT5130               3AZ
456398004456398018-000170     456398006001023775528MUG OCC. LOVE 2PC MINI 0000001000+00002192+00000+0001T   00002192+0000001414          1400 AT5515               3AZ
456398005456398016-006425     456398006001023998170S/JAR GLS CLIP W/RIBBON0000001000+00002630+00000+0001T   00002630+0000001414          1400 AT5300               3AZ
456398006456398080-000124     456398006003000297733CARD & ENV VALENTINES  0000001000+00001578+00000+0001T   00001578+0000001414          1400 AT5112               3AZ
456399000456399               456399               170213CD     1400+00000+CD0000006130+0000006130+000000000+000000860+0000006990+0000000000+I20000000000+0000006990+Z
456399001456399006-001000     456399006003000093779HELIUM BALLOON FILL    0000010000+00000613+00000+0001T   00000613+0000001420          1400 AT5131               3AZ
456400000456400               456400               170213CD     1400+00000+CD0000000613+0000000613+000000000+000000086+0000000690+0000000009+I20000000000+0000000690+Z
456400001456400077-000311     456400006001023608666GIFT-BAG 11X14CM GLOSS 0000001000+00000613+00000+0001T   00000613+0000001421          1400 AT5112               3AZ
456401000456401               456401               170213CD     1400+00000+CD0000020207+0000020207+000000000+000002830+0000023037+0000000000+I40000023037+0000000000+Z
456401001456401030-004015     456401006003000467624PLAQUE WDN SIGN 30X20CM0000001000+00009648+00000+0001T   00009648+0000001425          1400 AT5505               3AZ
456401002456401031-080508     456401006001023802415P/FRAME PL 22X11CM LOVE0000001000+00004385+00000+0001T   00004385+0000001425          1400 AT5510               3AZ
456401003456401018-050000     456401006003000412679MUG OCC LOVE TWIN BEAR 0000001000+00006139+00000+0001T   00006139+0000001425          1400 AT5515               3AZ
456401004456401112-116038     456401006003000534906TCS CARRIER BAG MIDI   0000001000+00000035+00000+0001T   00000035+0000001425          1400 AT5090               3AZ
456402000456402               456402               170213CD     1400+00000+CD0000001753+0000001753+000000000+000000246+0000001999+0000000000+I40000001999+0000000000+Z
456402001456402036-000010     456402006003000675777LINT REMOVER STICKY    0000001000+00001753+00000+0001T   00001753+0000001427          1400 AT5212               3AZ
456403000456403               456403               170213CD     1400+00000+CD0000015082+0000015082+000000000+000002113+0000017190+0000000005+I20000000000+0000017190+Z
456403001456403003-008002     456403006003000580248ORN GNOME WELCOME 17CM 0000001000+00008771+00000+0001T   00008771+0000001449          1400 AT5505               3AZ
456403002456403003-009405     456403006001023753298ORN PLANTER-EDGE-CATCHE0000001000+00003507+00000+0001T   00003507+0000001449          1400 AT5505               3AZ
456403003456403105-000750     456403006003000190270CONTAINERS 4xMINI 150ml0000002000+00001402+00000+0001T   00001402+0000001449          1400 AT5210               3AZ
456404000456404               456404               170213CD     1400+00000+CD0000024555+0000024555+000000000+000003440+0000027995+0000000000+I40000027995+0000000000+Z
456404001456404003-062568     456404006001023722348ORN ANIMAL ASSTD 15CM  0000001000+00007016+00000+0001T   00007016+0000001454          1400 AT5505               3AZ
456404002456404003-008089     456404006003000244904O/GNOME POLY W/TOOLS   0000001000+00005262+00000+0001T   00005262+0000001454          1400 AT5505               3AZ
456404003456404003-008011     456404006001023711885WELCOME-STONE ASST 15CM0000001000+00004823+00000+0001T   00004823+0000001454          1400 AT5505               3AZ
456404004456404003-008010     456404006001023711373ORN FIG. FARMER ASST   0000001000+00005262+00000+0001T   00005262+0000001454          1400 AT5505               3AZ
456404005456404028-085274     456404006001023641571BBQ LIGHTER         H&L0000001000+00002192+00000+0001T   00002192+0000001454          1400 AT5305               3AZ
456405000456405               456405               170213CD     1400+00000+CD0000008769+0000008769+000000000+000001229+0000009990+0000000008+I20000000000+0000009990+Z
456405001456405306-000021-A   456405006001023891358EARBUDS COTTON 100PCE  0000001000+00000876+00000+0001T   00000876+0000001457          1400 AT5200               3AZ
456405002456405586-098612     456405006001492986128WATCH KIDS RUBBER ASSTD0000001000+00007893+00000+0001T   00007893+0000001457          1400 AT5160               3AZ
456406000456406               456406               170213CD     1400+00000+CD0000005699+0000005699+000000000+000000799+0000006490+0000000008+I20000000000+0000006490+Z
456406001456406072-000350     456406006003000304882PET CAT TOY PLUSH W/BEL0000001000+00003069+00000+0001T   00003069+0000001458          1400 AT5870               3AZ
456406002456406031-000873-A   456406006003000675425P/FRAME WDN WHITE 10X150000001000+00002630+00000+0001T   00002630+0000001458          1400 AT5510               3AZ
456407000456407               456407               170213CD     1400+00000+CD0000001227+0000001227+000000000+000000172+0000001399+0000000000+I40000001399+0000000000+Z
456407001456407077-000245     456407006001023759214GIFT-RIBBON METALLICx2 0000001000+00001227+00000+0001T   00001227+0000001500          1400 AT5112               3AZ
456408000456408               456408               170213CD     1400+00000+CD0000005698+0000005698+000000000+000000799+0000006497+0000000000+I40000006497+0000000000+Z
456408001456408077-000116     456408006003000240777GIFT-WRAP 700mmx2m COL 0000002000+00001753+00000+0001T   00001753+0000001504          1400 AT5112               3AZ
456408002456408077-000926     456408006003000414178G/WRAP 700mmx2m LOVE   0000001000+00002192+00000+0001T   00002192+0000001504          1400 AT5112               3AZ
456409000456409               456409               170213CD     1400+00000+CD0000002190+0000002190+000000000+000000307+0000002490+0000000007+I20000000000+0000002490+Z
456409001456409077-000310     456409006001023608635GIFT-BAG 18X23CM GLOSS 0000001000+00001314+00000+0001T   00001314+0000001505          1400 AT5112               3AZ
456409002456409077-000011-D   456409006001023808554TISSUE-WRAP WHITE 10PCE0000001000+00000876+00000+0001T   00000876+0000001505          1400 AT5112               3AZ
456410000456410               456410               170213CD     1400+00000+CD0000003067+0000003067+000000000+000000430+0000003490+0000000007+I20000000000+0000003490+Z
456410001456410051-002407     456410006003000452491SPRAYER TRIGGER 550ml  0000001000+00001753+00000+0001T   00001753+0000001506          1400 AT5820               3AZ
456410002456410251-000001     456410006001023487681TAPE DBL-SIDE 18x1000mm0000001000+00001314+00000+0001T   00001314+0000001506          1400 AT5810               3AZ
456411000456411               456411               170213CD     1400+00000+CD0000003069+0000003069+000000000+000000430+0000003490+0000000009+I20000000000+0000003490+Z
456411001456411002-220004     456411006001023467614F/COVER HEXAGONAL 70cm 0000001000+00003069+00000+0001T   00003069+0000001506          1400 AT5300               3AZ
456412000456412               456412               170213CD     1400+00000+CD0000008366+0000008366+000000000+000001172+0000009530+0000000008+I20000000000+0000009530+Z
456412001456412006-000852     456412006009541801873PARTY LUCKY-PCKT UNISEX0000001000+00003946+00000+0001T   00003946+0000001508          1400 AT5131               3AZ
456412002456412469-000801     456412006003000652402BUILDING BLOCKS AGE BAG0000001000+00004385+00000+0001T   00004385+0000001508          1400 AT5755               3AZ
456412003456412112-116038     456412006009681820246TCS CARRIER BAG MIDI   0000001000+00000035+00000+0001T   00000035+0000001508          1400 AT5090               3AZ
456413000456413               456413               170213CD     1400+00000+CD0000000524+0000000524+000000000+000000074+0000000590+0000000008+I20000000000+0000000590+Z
456413001456413007-000405     456413006009635830369EXERCISE-BOOK A5 72PAGE0000002000+00000262+00000+0001T   00000262+0000001512          1400 AT5130               3AZ
456414000456414               456414               170213CD     1400+00000+CD0000006136+0000006136+000000000+000000860+0000006990+0000000006+I20000000000+0000006990+Z
456414001456414103-000090     456414006001023795786WOVEN HEART SHAPED     0000001000+00003507+00000+0001T   00003507+0000001514          1400 AT5300               3AZ
456414002456414077-000239     456414006003000160419GIFT-RIBBON ROLL PEARL 0000001000+00001753+00000+0001T   00001753+0000001514          1400 AT5112               3AZ
456414003456414077-000151     456414006008766114676GIFT-WRAP C/PHANE ASSTD0000001000+00000876+00000+0001T   00000876+0000001514          1400 AT5112               3AZ
456415000456415               456415               170213CD     1400+00000+CD0000001490+0000001490+000000000+000000209+0000001699+0000000000+I40000001699+0000000000+Z
456415001456415077-000452     456415006003000284986G/BAG METALLIC MED EMB 0000001000+00001490+00000+0001T   00001490+0000001522          1400 AT5112               3AZ
456416000456416               456416               170213CD     1400+00000+CD0000014911+0000014911+000000000+000002088+0000016990+0000000009+I20000000000+0000016990+Z
456416001456416004-010038     456416006001024016392HOLDER DISC 104 SLEEVE 0000001000+00014911+00000+0001T   00014911+0000001525          1400 AT5310               3AZ
456417000456417               456417               170213CD     1400+00000+CD0000008806+0000008806+000000000+000001233+0000010030+0000000009+I20000000000+0000010030+Z
456417001456417031-086302-C   456417006001023910332P/FRAME COLL. PL 3-HOLE0000001000+00008771+00000+0001T   00008771+0000001531          1400 AT5510               3AZ
456417002456417112-116038     456417006009681820246TCS CARRIER BAG MIDI   0000001000+00000035+00000+0001T   00000035+0000001531          1400 AT5090               3AZ
456418000456418               456418               170213CD     1400+00000+CD0000001753+0000001753+000000000+000000246+0000001990+0000000009+I20000000000+0000001990+Z
456418001456418565-000888     456418006003000607846NOVELTY MESH BALL      0000001000+00001753+00000+0001T   00001753+0000001545          1400 AT5745               3AZ
456419000456419               456419               170213CD     1400+00000+CD0000001753+0000001753+000000000+000000246+0000001990+0000000009+I20000000000+0000001990+Z
456419001456419077-000299-A   456419006003000670888GIFT-BAG PAPER JMB LOVE0000001000+00001753+00000+0001T   00001753+0000001546          1400 AT5112               3AZ
456420000456420               456420               170213CD     1400+00000+CD0000001314+0000001314+000000000+000000184+0000001490+0000000008+I20000000000+0000001490+Z
456420001456420046-000012     456420006904708013062BATTERIES AA  CARD-OF-40000001000+00001314+00000+0001T   00001314+0000001548          1400 AT5312               3AZ
456421000456421               456421               170213CD     1400+00000+CD0000005433+0000005433+000000000+000000762+0000006195+0000000000+I40000006195+0000000000+Z
456421001456421903-000519     456421006001704012805SWT MS LIQ-O-GHETTI    0000001000+00001227+00000+0001T   00001227+0000001550          1400 AT5150               3AZ
456421002456421903-005007     456421006002580020311SWT MALLOW BEAR M/SHAKE0000001000+00001314+00000+0001T   00001314+0000001550          1400 AT5150               3AZ
456421003456421903-000087     456421006001704000161SWT SPECKLED-EGGS 50G  0000001000+00001139+00000+0001T   00001139+0000001550          1400 AT5150               3AZ
456421004456421077-000455     456421006003000285389G/BAG METALLIC LRG SOL 0000001000+00001753+00000+0001T   00001753+0000001550          1400 AT5112               3AZ
456422000456422               456422               170213CD     1400+00000+CD0000001400+0000001400+000000000+000000196+0000001590+0000000006+I20000000000+0000001590+Z
456422001456422018-000177     456422006001023797513MUG MINI LOVE ASSTD    0000002000+00000700+00000+0001T   00000700+0000001552          1400 AT5515               3AZ
456423000456423               456423               170213CD     1400+00000+CD0000017485+0000017485+000000000+000002450+0000019935+0000000000+I40000019935+0000000000+Z
456423001456423112-116038     456423006009681820246TCS CARRIER BAG MIDI   0000001000+00000035+00000+0001T   00000035+0000001554          1400 AT5090               3AZ
456423002456423562-001043     456423006003000478200NUMBERS&ALPHABET MAGNET0000001000+00006139+00000+0001T   00006139+0000001554          1400 AT5755               3AZ
456423003456423562-006274     456423006001023744432EDU SKETCH-BOARD       0000001000+00005262+00000+0001T   00005262+0000001554          1400 AT5755               3AZ
456423004456423079-013102     456423006003000019601ART+CRAFT DIY PIPE-CLNR0000001000+00002192+00000+0001T   00002192+0000001554          1400 AT5130               3AZ
456423005456423903-004951     456423006002580020328SWT MALLOW MINI M/SHAKE0000001000+00001227+00000+0001T   00001227+0000001554          1400 AT5150               3AZ
456423006456423565-000893     456423006003000643516NOVELTY FLASHING BALL  0000001000+00002630+00000+0001T   00002630+0000001554          1400 AT5745               3AZ
456424000456424               456424               170213CD     1400+00000+CD0000003067+0000003067+000000000+000000430+0000003490+0000000007+I20000000000+0000003490+Z
456424001456424206-000520     456424006003000620708NOVELTY BIRTHDAY CANDLE0000001000+00001314+00000+0001T   00001753+0008181556          1400 AT5321               3AZ
456424002456424077-000354     456424006003000139224GIFT-BAG 25X32CM H/MADE0000001000+00001753+00000+0001T   00001753+0000001556          1400 AT5112               3AZ
456425000456425               456425               170213CD     1400+00000+CD0000006138+0000006138+000000000+000000860+0000006998+0000000000+I40000006998+0000000000+Z
456425001456425007-000552     456425006001023848086NOTE-CASE 200 MEMO SHTS0000002000+00003069+00000+0001T   00003069+0000001558          1400 AT5130               3AZ
456426000456426               456426               170213CD     1400+00000+CD0000009065+0000009065+000000000+000001270+0000010330+0000000005+I20000000000+0000010330+Z
456426001456426067-002251     456426006003000329021XMAS CHOC SANTA 60g    0000001000+00001314+00000+0001T   00001314+0000001604          1400 AT5110               3AZ
456426002456426065-003639     456426006001023787620GUITAR ROCKER          0000001000+00007016+00000+0001T   00007016+0000001604          1400 AT5745               3AZ
456426003456426112-116038     456426006009681820246TCS CARRIER BAG MIDI   0000001000+00000035+00000+0001T   00000035+0000001604          1400 AT5090               3AZ
456426004456426564-000012     456426006001023130075BUBBLE BOTTLE MAGIC    0000001000+00000700+00000+0001T   00000700+0000001604          1400 AT5131               3AZ
456427000456427               456427               170213CD     1400+00000+CD0000002630+0000002630+000000000+000000369+0000002990+0000000009+I20000000000+0000002990+Z
456427001456427002-000717     456427006001023775184CHOPPING-MATS FLEX 2PCE0000001000+00002630+00000+0001T   00002630+0000001606          1400 AT5300               3AZ
456428000456428               456428               170213CD     1400+00000+CD0000002454+0000002454+000000000+000000344+0000002798+0000000000+I40000002798+0000000000+Z
456428001456428033-000013     456428006001023567215PILL-REMINDER PL       0000002000+00001227+00000+0001T   00001227+0000001607          1400 AT5200               3AZ
456429000456429               456429               170213CD     1400+00000+CD0000001314+0000001314+000000000+000000184+0000001490+0000000008+I20000000000+0000001490+Z
456429001456429077-000310     456429006001023608635GIFT-BAG 18X23CM GLOSS 0000001000+00001314+00000+0001T   00001314+0000001626          1400 JU1112               3AZ
456430000456430               456430               170213CD     1400+00000+CD0000002630+0000002630+000000000+000000369+0000002990+0000000009+I20000000000+0000002990+Z
456430001456430497-069613     456430000078257696130HAND-PUMP PL DBL-QUICK 0000001000+00002630+00000+0001T   00002630+0000001628          1400 JU1787               3AZ
456431000456431               456431               170213CD     1400+00000+CD0000001314+0000001314+000000000+000000184+0000001490+0000000008+I20000000000+0000001490+Z
456431001456431077-000470     456431006003000330171G-BAG DESGN SML 11X14CM0000001000+00001314+00000+0001T   00001314+0000001639          1400 AT5112               3AZ
456432000456432               456432               170213CD     1400+00000+CD0000001490+0000001490+000000000+000000209+0000001690+0000000009+I20000000000+0000001690+Z
456432001456432039-000108     456432006001023524034TEA-LITE CANDLES 8PCE  0000001000+00001490+00000+0001T   00001490+0000001639          1400 AT5510               3AZ
456433000456433               456433               170213CD     1400+00000+CD0000003682+0000003682+000000000+000000516+0000004190+0000000008+I20000000000+0000004190+Z
456433001456433200-000020     456433006925406841030BAG ZIPPERSEAL 25PC    0000001000+00002192+00000+0001T   00002192+0000001640          1400 AT5214               3AZ
456433002456433039-000108     456433006001023524034TEA-LITE CANDLES 8PCE  0000001000+00001490+00000+0001T   00001490+0000001640          1400 AT5510               3AZ
456434000456434               456434               170213CD     1400+00000+CD0000003507+0000003507+000000000+000000491+0000003998+0000000000+I40000003998+0000000000+Z
456434001456434200-000091     456434006003000499762PICNIC PLATES PL 12PCE 0000001000+00003507+00000+0001T   00003507+0000001722          1400 AT5214               3AZ
456435000456435               456435               170213CD     1400+00000+CD0000011342+0000011342+000000000+000001592+0000012934+0000000000+I40000012934+0000000000+Z
456435001456435903-000087     456435006001704000161SWT SPECKLED-EGGS 50G  0000003000+00001139+00000+0001T   00001139+0000001724          1400 AT5150               3AZ
456435002456435019-071601     456435006001023771995RIVER-STONES 1kg WHITE 0000003000+00002630+00000+0001T   00002630+0000001724          1400 AT5510               3AZ
456435003456435112-116038     456435006009681820246TCS CARRIER BAG MIDI   0000001000+00000035+00000+0001T   00000035+0000001724          1400 AT5090               3AZ
456436000456436               456436               170213CD     1400+00000+CD0000011402+0000011402+000000000+000001597+0000012999+0000000000+I40000012999+0000000000+Z
456436001456436368-000637     456436006001023874092PLUSH BEAR SLEEPING LOV0000001000+00011402+00000+0001T   00012279+0006471726          1400 AT5745               3AZ
456437000456437               456437               170213CD     1400+00000+CD0000000700+0000000700+000000000+000000098+0000000790+0000000008+I20000000000+0000000790+Z
456437001456437018-000177     456437006001023797513MUG MINI LOVE ASSTD    0000001000+00000700+00000+0001T   00000700+0000001727          1400 AT5515               3AZ
456438000456438               456438               170213CD     1400+00000+CD0000001490+0000001490+000000000+000000209+0000001690+0000000009+I20000000000+0000001690+Z
456438001456438077-000452     456438006003000284986G/BAG METALLIC MED EMB 0000001000+00001490+00000+0001T   00001490+0000001728          1400 AT5112               3AZ
456439000456439               456439               170213CD     1400+00000+CD0000031246+0000031246+000000000+000004380+0000035626+0000000000+I40000035626+0000000000+Z
456439001456439018-030000     456439006003000421060MUG OCCASIONS LOVE 2PCE0000001000+00004385+00000+0001T   00004385+0000001738          1400 US2515               3AZ
456439002456439018-000129     456439006001023403353MUG OCC. LOVE V-SHAPE  0000004000+00002630+00000+0001T   00002630+0000001738          1400 US2515               3AZ
456439003456439077-000303     456439006001023593757GIFT-BAG PAPER MED     0000005000+00001578+00000+0001T   00001578+0000001738          1400 US2112               3AZ
456439004456439018-000129     456439006001023403353MUG OCC. LOVE V-SHAPE  0000002000+00002630+00000+0001T   00002630+0000001738          1400 US2515               3AZ
456439005456439077-000303     456439006001023593757GIFT-BAG PAPER MED     0000002000+00001578+00000+0001T   00001578+0000001738          1400 US2112               3AZ
456439006456439112-116038     456439006009681820246TCS CARRIER BAG MIDI   0000001000+00000035+00000+0001T   00000035+0000001738          1400 US2090               3AZ
456440000456440               456440               170213CD     1400+00000+CD0000001753+0000001753+000000000+000000246+0000001990+0000000009+I20000000000+0000001990+Z
456440001456440006-000120     456440006001023346889BALLOONS 10PC MIX COL  0000001000+00001753+00000+0001T   00001753+0000001738          1400 US2131               3AZ
456441000456441               456441               170213CD     1400+00000+CD0000001752+0000001752+000000000+000000246+0000001990+0000000008+I20000000000+0000001990+Z
456441001456441077-000151     456441006008766114676GIFT-WRAP C/PHANE ASSTD0000001000+00000876+00000+0001T   00000876+0000001740          1400 US2112               3AZ
456441002456441077-000150-D   456441006003000054343GIFT-WRAP CELLPHANE CLR0000001000+00000876+00000+0001T   00000876+0000001740          1400 US2112               3AZ
456442000456442               456442               170213CD     1400+00000+CD0000012311+0000012311+000000000+000001725+0000014030+0000000006+I20000000000+0000014030+Z
456442001456442071-002999-A   456442006003000611577PEN STICKBALL 10PCE ASS0000001000+00001753+00000+0001T   00001753+0000001741          1400 US2130               3AZ
456442002456442071-005060     456442006003000152186CELLOTAPE 2PACK INVSBLE0000001000+00003507+00000+0001T   00003507+0000001741          1400 US2130               3AZ
456442003456442174-000305     456442006003000105502TRAVEL NECK-PILLOW     0000001000+00007016+00000+0001T   00007016+0000001741          1400 US2205               3AZ
456442004456442112-116038     456442006009681820246TCS CARRIER BAG MIDI   0000001000+00000035+00000+0001T   00000035+0000001741          1400 US2090               3AZ
456443000456443               456443               170213CD     1400+00000+CD0000005600+0000005600+000000000+000000784+0000006384+0000000000+I40000006384+0000000000+Z
456443001456443018-000177     456443006001023797513MUG MINI LOVE ASSTD    0000008000+00000700+00000+0001T   00000700+0000001743          1400 US2515               3AZ
456444000456444               456444               170213CD     1400+00000+CD0000001227+0000001227+000000000+000000172+0000001390+0000000009+I20000000000+0000001390+Z
456444001456444077-000245     456444006001023759214GIFT-RIBBON METALLICx2 0000001000+00001227+00000+0001T   00001227+0000001744          1400 US2112               3AZ
456445000456445               456445               170213CD     1400+00000+CD0000004384+0000004384+000000000+000000614+0000004990+0000000008+I20000000000+0000004990+Z
456445001456445018-000170     456445006001023775528MUG OCC. LOVE 2PC MINI 0000002000+00002192+00000+0001T   00002192+0000001744          1400 US2515               3AZ
456446000456446               456446               170213CD     1400+00000+CD0000006307+0000006307+000000000+000000883+0000007190+0000000000+I20000000000+0000007190+Z
456446001456446004-078990     456446006001023994431EARPHONES MINI 1.2m    0000001000+00003507+00000+0001T   00003507+0000001745          1400 US2310               3AZ
456446002456446903-000120     456446006002099001665SWEET GS ZILLIONS 50g  0000004000+00000700+00000+0001T   00000700+0000001745          1400 US2150               3AZ
456447000456447               456447               170213CD     1400+00000+CD0000005297+0000005297+000000000+000000742+0000006030+0000000009+I20000000000+0000006030+Z
456447001456447304-001116     456447006003000426164F/BUNCH ROSES 12-HEAD  0000001000+00005262+00000+0001T   00005262+0000001747          1400 US2510               3AZ
456447002456447112-116038     456447006009681820246TCS CARRIER BAG MIDI   0000001000+00000035+00000+0001T   00000035+0000001747          1400 US2090               3AZ
456448000456448               456448               170213CD     1400+00000+CD0000004385+0000004385+000000000+000000614+0000004999+0000000000+I40000004999+0000000000+Z
456448001456448368-000001     456448006003000097982Plush Bear 25cm        0000001000+00004385+00000+0001T   00004385+0000001748          1400 US2745               3AZ
456449000456449               456449               170213CD     1400+00000+CD0000015516+0000015516+000000000+000002175+0000017690+0000000001+I20000000000+0000017690+Z
456449001456449077-000239     456449006003000160419GIFT-RIBBON ROLL PEARL 0000001000+00001753+00000+0001T   00001753+0000001749          1400 US2112               3AZ
456449002456449077-000297     456449006001023869814GIFT BOX OCCASIONS SQRE0000002000+00001753+00000+0001T   00001753+0000001749          1400 US2112               3AZ
456449003456449077-000011-D   456449006001023808554TISSUE-WRAP WHITE 10PCE0000001000+00000876+00000+0001T   00000876+0000001749          1400 US2112               3AZ
456449004456449079-105609     456449006003000612697ART+CRAFT ALPHABET KIT 0000001000+00005262+00000+0001T   00005262+0000001749          1400 US2130               3AZ
456449005456449079-105610     456449006003000249473ART+CRAFT SPONGE INK PA0000001000+00003507+00000+0001T   00003507+0000001749          1400 US2130               3AZ
456449006456449079-009700-D   456449006003000545711PAPER SIRIO A4 RED COL.0000002000+00000306+00000+0001T   00000306+0000001749          1400 US2130               3AZ
456450000456450               456450               170213CD     1400+00000+CD0000005085+0000005085+000000000+000000712+0000005797+0000000000+I40000005797+0000000000+Z
456450001456450018-000130     456450006001023867537MUG OCC LOVE MINI+HEART0000001000+00003507+00000+0001T   00003507+0000001751          1400 US2515               3AZ
456450002456450077-000315     456450006003000181186GIFT-BAG 20x28cm MATT  0000001000+00001578+00000+0001T   00001578+0000001751          1400 US2112               3AZ
456451000456451               456451               170213CD     1400+00000+CD0000002102+0000002102+000000000+000000295+0000002397+0000000000+I40000002397+0000000000+Z
456451001456451077-000010-Z   456451006001023157874CREPE-PAPER BLK/ORG/PUR0000001000+00000788+00000+0001T   00000788+0000001752          1400 US2112               3AZ
456451002456451077-000310     456451006001023608635GIFT-BAG 18X23CM GLOSS 0000001000+00001314+00000+0001T   00001314+0000001752          1400 US2112               3AZ
456452000456452               456452               170213CD     1400+00000+CD0000052690+0000052690+000000000+000007380+0000060070+0000000000+I20000000000+0000060070+Z
456452001456452903-000610     456452006003000610518SWEET JUMBO BUBBLE GUM 0000002000+00001753+00000+0001T   00001753+0000001754          1400 US2150               3AZ
456452002456452366-000356     456452006003000006908DRESS UP WINGS FAIRY   0000001000+00004385+00000+0001T   00004385+0000001754          1400 US2131               3AZ
456452003456452564-000015     456452006003000140862BUBBLE TEST TUBE       0000001000+00001753+00000+0001T   00001753+0000001754          1400 US2131               3AZ
456452004456452362-002467     456452006003000167623HAIR EXT LONG 61cm     0000001000+00003507+00000+0001T   00003507+0000001754          1400 US2160               3AZ
456452005456452361-003005     456452006003000397570DOLL 29CM:BONNIE PET   0000001000+00010525+00000+0001T   00010525+0000001754          1400 US2725               3AZ
456452006456452361-000505     456452006003000662876DOLL MED 29cm DOCTOR   0000001000+00011402+00000+0001T   00011402+0000001754          1400 US2725               3AZ
456452007456452361-000124     456452006003000468621DOLL 28cm MERMAID SET  0000001000+00008771+00000+0001T   00008771+0000001754          1400 US2725               3AZ
456452008456452361-009958     456452006001023706324DOLLS MED WEDDING SET  0000001000+00008771+00000+0001T   00010525+0008191754          1400 US2725               3AZ
456452009456452112-116038     456452006009681820246TCS CARRIER BAG MIDI   0000002000+00000035+00000+0001T   00000035+0000001754          1400 US2090               3AZ
456453000456453               456453               170213CD     1400+00000+CD0000004383+0000004383+000000000+000000615+0000004990+0000000008+I20000000000+0000004990+Z
456453001456453077-000251     456453006003000639106GIFT-DECOR RIBBON      0000001000+00002630+00000+0001T   00002630+0000001755          1400 US2112               3AZ
456453002456453565-000888     456453006003000607846NOVELTY MESH BALL      0000001000+00001753+00000+0001T   00001753+0000001755          1400 US2745               3AZ
456454000456454               456454               170213CD     1400+00000+CD0000003506+0000003506+000000000+000000492+0000003990+0000000008+I20000000000+0000003990+Z
456454001456454077-000299-A   456454006003000670888GIFT-BAG PAPER JMB LOVE0000002000+00001753+00000+0001T   00001753+0000001755          1400 US2112               3AZ
456455000456455               456455               170213CD     1400+00000+CD0000004385+0000004385+000000000+000000614+0000004999+0000000000+I40000004999+0000000000+Z
456455001456455050-000880-Z   456455006003000528110PADLOCK COMBO BRS 4 WHL0000001000+00004385+00000+0001T   00004385+0000001756          1400 US2855               3AZ
456456000456456               456456               170213CD     1400+00000+CD0000001490+0000001490+000000000+000000209+0000001690+0000000009+I20000000000+0000001690+Z
456456001456456077-000304     456456006001023483232GIFT-BAG 25X32CM E/DAY 0000001000+00001490+00000+0001T   00001490+0000001756          1400 US2112               3AZ
456457000456457               456457               170213CD     1400+00000+CD0000019766+0000019766+000000000+000002768+0000022530+0000000004+I20000000000+0000022530+Z
456457001456457031-000923     456457006001023669933P/FRAME BLK W/WORDS    0000001000+00003507+00000+0001T   00003507+0000001800          1400 US2510               3AZ
456457002456457077-000310     456457006001023608635GIFT-BAG 18X23CM GLOSS 0000001000+00001314+00000+0001T   00001314+0000001800          1400 US2112               3AZ
456457003456457368-000265     456457006001023750914PLUSH BEAR 23CM ASSTD C0000001000+00006139+00000+0001T   00006139+0000001800          1400 US2745               3AZ
456457004456457039-000799     456457006001023692382CANDLES TEALITE 100PCE 0000001000+00008771+00000+0001T   00008771+0000001800          1400 US2510               3AZ
456457005456457112-116038     456457006009681820246TCS CARRIER BAG MIDI   0000001000+00000035+00000+0001T   00000035+0000001800          1400 US2090               3AZ
456458000456458               456458               170213CD     1400+00000+CD0000001490+0000001490+000000000+000000209+0000001690+0000000009+I20000000000+0000001690+Z
456458001456458039-000108     456458006001023524034TEA-LITE CANDLES 8PCE  0000001000+00001490+00000+0001T   00001490+0000001803          1400 US2510               3AZ
456459000456459               456459               170213CD     1400+00000+CD0000013189+0000013189+000000000+000001848+0000015037+0000000000+I40000015037+0000000000+Z
456459001456459267-006052     456459000047754164862PUZZLE LICENSED MINIONS0000001000+00004385+00000+0001T   00004385+0000001805          1400 US2755               3AZ
456459002456459567-011923     456459009781472318299BK STICKERS MY FAVOURIT0000001000+00002630+00000+0001T   00002630+0000001805          1400 US2757               3AZ
456459003456459368-000175     456459006003000270316PLUSH BEAR 4 ASSTD 18CM0000001000+00006139+00000+0001T   00006139+0000001805          1400 US2745               3AZ
456459004456459112-116038     456459006009681820246TCS CARRIER BAG MIDI   0000001000+00000035+00000+0001T   00000035+0000001805          1400 US2090               3AZ
456460000456460               456460               170213CD     1400+00000+CD0000018448+0000018448+000000000+000002585+0000021033+0000000000+I40000021033+0000000000+Z
456460001456460018-030000     456460006003000421060MUG OCCASIONS LOVE 2PCE0000002000+00004385+00000+0001T   00004385+0000001809          1400 US2515               3AZ
456460002456460486-000003     456460006001023702395CLOCK QTZ ROUND        0000001000+00003507+00000+0001T   00003507+0000001809          1400 US2510               3AZ
456460003456460220-005002     456460006003000566037ELOFF DESSERT SPOONS 4P0000001000+00002630+00000+0001T   00002630+0000001809          1400 US2300               3AZ
456460004456460009-001308     456460006001023854636MELAMINE FLOWER BOWL   0000002000+00001753+00000+0001T   00001753+0000001809          1400 US2210               3AZ
456460005456460112-116038     456460006009681820246TCS CARRIER BAG MIDI   0000001000+00000035+00000+0001T   00000035+0000001809          1400 US2090               3AZ
456461000456461               456461               170213CD     1400+00000+CD0000017575+0000017575+000000000+000002461+0000020030+0000000006+I20000000000+0000020030+Z
456461001456461031-000036     456461006003000426232P/FRAME PL OVAL BLK/GLD0000001000+00003069+00000+0001T   00003069+0000001811          1400 US2510               3AZ
456461002456461031-000924     456461006001023669964P/FRAME COLLAGE PL     0000001000+00008771+00000+0001T   00008771+0000001811          1400 US2510               3AZ
456461003456461031-000922     456461006003000095100P/FRAME BIRDCAGE 9X12CM0000001000+00005700+00000+0001T   00005700+0000001811          1400 US2510               3AZ
456461004456461112-116038     456461006009681820246TCS CARRIER BAG MIDI   0000001000+00000035+00000+0001T   00000035+0000001811          1400 US2090               3AZ
456462000456462               456462               170213CD     1400+00000+CD0000000788+0000000788+000000000+000000111+0000000890+0000000009+I20000000000+0000000890+Z
456462001456462071-081101-A   456462006003000326549GLUE-STICK 25g BLISTER 0000001000+00000788+00000+0001T   00000788+0000001811          1400 US2130               3AZ
456463000456463               456463               170213CD     1400+00000+CD0000001578+0000001578+000000000+000000221+0000001799+0000000000+I40000001799+0000000000+Z
456463001456463077-000303     456463006001023593757GIFT-BAG PAPER MED     0000001000+00001578+00000+0001T   00001578+0000001813          1400 US2112               3AZ
456464000456464               456464               170213CD     1400+00000+CD0000005286+0000005286+000000000+000000741+0000006020+0000000007+I20000000000+0000006020+Z
456464001456464018-000177     456464006001023797513MUG MINI LOVE ASSTD    0000006000+00000700+00000+0001T   00000700+0000001815          1400 US2515               3AZ
456464002456464903-000015     456464000070970459955SWT MIKE N IKE B/BLAST 0000001000+00001051+00000+0001T   00001051+0000001815          1400 US2150               3AZ
456464003456464112-116038     456464006009681820246TCS CARRIER BAG MIDI   0000001000+00000035+00000+0001T   00000035+0000001815          1400 US2090               3AZ
456465000456465               456465               170213CD     1400+00000+CD0000016258+0000016258+000000000+000002277+0000018535+0000000000+I40000018535+0000000000+Z
456465001456465466-000077     456465006003000669448MINI MESH BEAN BALL    0000001000+00001753+00000+0001T   00001753+0000001817          1400 US2785               3AZ
456465002456465368-000001     456465006003000097982Plush Bear 25cm        0000001000+00004385+00000+0001T   00004385+0000001817          1400 US2745               3AZ
456465003456465077-000310     456465006001023608635GIFT-BAG 18X23CM GLOSS 0000001000+00001314+00000+0001T   00001314+0000001817          1400 US2112               3AZ
456465004456465368-000614     456465006001023705808PLUSH LOVE 30cm        0000001000+00008771+00000+0001T   00008771+0000001817          1400 US2745               3AZ
456465005456465112-116038     456465006009681820246TCS CARRIER BAG MIDI   0000001000+00000035+00000+0001T   00000035+0000001817          1400 US2090               3AZ
456466000456466               456466               170213CD     1400+00000+CD0000002192+0000002192+000000000+000000307+0000002490+0000000009+I20000000000+0000002490+Z
456466001456466077-000926     456466006003000414178G/WRAP 700mmx2m LOVE   0000001000+00002192+00000+0001T   00002192+0000001818          1400 US2112               3AZ
456467000456467               456467               170213CD     1400+00000+CD0000005695+0000005695+000000000+000000800+0000006490+0000000005+I20000000000+0000006490+Z
456467001456467077-000151     456467006008766114676GIFT-WRAP C/PHANE ASSTD0000002000+00000876+00000+0001T   00000876+0000001819          1400 US2112               3AZ
456467002456467083-000295     456467006001023898562LIGHTER-GAS BUTANE 18ml0000001000+00000876+00000+0001T   00000876+0000001819          1400 US2315               3AZ
456467003456467903-000094     456467006923431501622SWT GS CANDY NECKLACE  0000001000+00000437+00000+0001T   00000437+0000001819          1400 US2150               3AZ
456467004456467089-000029     456467006003000092321K/CHAIN MOM POLY       0000001000+00002630+00000+0001T   00003507+0008121819          1400 US2205               3AZ
456468000456468               456468               170213CD     1400+00000+CD0000000876+0000000876+000000000+000000123+0000000990+0000000009+I20000000000+0000000990+Z
456468001456468077-000151     456468006008766114676GIFT-WRAP C/PHANE ASSTD0000001000+00000876+00000+0001T   00000876+0000001820          1400 US2112               3AZ
456469000456469               456469               170213CD     1400+00000+CD0000002630+0000002630+000000000+000000369+0000002999+0000000000+I40000002999+0000000000+Z
456469001456469103-000060     456469006001023795489BAMBOO BASKET RECT     0000001000+00002630+00000+0001T   00002630+0000001822          1400 US2300               3AZ
456470000456470               456470               170213CD     1400+00000+CD0000016048+0000016048+000000000+000002247+0000018290+0000000005+I20000000000+0000018290+Z
456470001456470018-005009     456470006001023725608MUG W/PLUSH-BEAR LOVE  0000001000+00003507+00000+0001T   00003507+0000001823          1400 US2515               3AZ
456470002456470077-000303     456470006001023593757GIFT-BAG PAPER MED     0000001000+00001578+00000+0001T   00001578+0000001823          1400 US2112               3AZ
456470003456470368-000049     456470006003000536955PLUSH BEAR 15cm LOVE   0000001000+00004385+00000+0001T   00004385+0000001823          1400 US2745               3AZ
456470004456470046-000011-VP  456470006003000537839BATTERIES SIZE:AA 12PCE0000001000+00006578+00000+0001T   00006578+0000001823          1400 US2312               3AZ
456471000456471               456471               170213CD     1400+00000+CD0000007487+0000007487+000000000+000001049+0000008536+0000000000+I40000008536+0000000000+Z
456471001456471050-000887-Z   456471006001023821966PADLOCK COMB 10-DIGIT  0000001000+00004385+00000+0001T   00004385+0000001825          1400 US2855               3AZ
456471002456471046-002032-PK2 456471004897006175063BATTERIES CR-2032  2PCE0000001000+00001753+00000+0001T   00001753+0000001825          1400 US2312               3AZ
456471003456471903-000674     456471006009803358220SWT SHERBET W/LOLLY 4PK0000001000+00001314+00000+0001T   00001314+0000001825          1400 US2150               3AZ
456471004456471112-116038     456471006009681820246TCS CARRIER BAG MIDI   0000001000+00000035+00000+0001T   00000035+0000001825          1400 US2090               3AZ
456472000456472               456472               170213CD     1400+00000+CD0000013887+0000013887+000000000+000001945+0000015830+0000000002+I20000000000+0000015830+Z
456472001456472077-000309     456472006001023608604GIFT-BAG 25X32CM GLOSS 0000001000+00001753+00000+0001T   00001753+0000001827          1400 US2112               3AZ
456472002456472018-005009     456472006001023725608MUG W/PLUSH-BEAR LOVE  0000002000+00003507+00000+0001T   00003507+0000001827          1400 US2515               3AZ
456472003456472301-085004     456472006003000420469ORN LOVE PLAQUE 21X10CM0000001000+00003507+00000+0001T   00003946+0006471827          1400 US2505               3AZ
456472004456472080-000124     456472006003000297733CARD & ENV VALENTINES  0000001000+00001578+00000+0001T   00001578+0000001827          1400 US2112               3AZ
456472005456472112-116038     456472006009681820246TCS CARRIER BAG MIDI   0000001000+00000035+00000+0001T   00000035+0000001827          1400 US2090               3AZ
456473000456473               456473               170213CD     1400+00000+CD0000007016+0000007016+000000000+000000983+0000007999+0000000000+I40000007999+0000000000+Z
456473001456473266-000501     456473006003000330843P/SET TRANSFORMER 24x420000001000+00007016+00000+0001T   00007016+0000001829          1400 US2710               3AZ
456474000456474               456474               170213CD     1400+00000+CD0000003505+0000003505+000000000+000000492+0000003990+0000000007+I20000000000+0000003990+Z
456474001456474077-000240     456474006003000326259G/RIBBON 4PC PEARLIZED 0000001000+00001753+00000+0001T   00001753+0000001830          1400 US2112               3AZ
456474002456474077-000011-L   456474006001023808585P/TISSUE BRIGHT 10SHEET0000002000+00000876+00000+0001T   00000876+0000001830          1400 US2112               3AZ
456475000456475               456475               170213CD     1400+00000+CD0000001314+0000001314+000000000+000000184+0000001498+0000000000+I40000001498+0000000000+Z
456475001456475077-000310     456475006001023608635GIFT-BAG 18X23CM GLOSS 0000001000+00001314+00000+0001T   00001314+0000001831          1400 US2112               3AZ
456476000456476               456476               170213CD     1400+00000+CD0000003507+0000003507+000000000+000000491+0000003990+0000000008+I20000000000+0000003990+Z
456476001456476079-012208     456476006001023801081ART + CRAFT SET STAMP  0000001000+00003507+00000+0001T   00003507+0000001832          1400 US2130               3AZ
456477000456477               456477               170213CD     1400+00000+CD0000002630+0000002630+000000000+000000369+0000002990+0000000009+I20000000000+0000002990+Z
456477001456477267-006048     456477000047754184303PUZZLE LICENSED STAR   0000001000+00002630+00000+0001T   00003507+0008141832          1400 US2755               3AZ
456478000456478               456478               170213CD     1400+00000+CD0000005734+0000005734+000000000+000000803+0000006530+0000000007+I20000000000+0000006530+Z
456478001456478024-000097     456478006001023770035MEASURING-SET 11PCE WHT0000001000+00002192+00000+0001T   00002192+0000001833          1400 US2300               3AZ
456478002456478567-011906     456478006003000676286BK PROMO CLEARANCE     0000001000+00003507+00000+0001T   00004385+0008141833          1400 US2757               3AZ
456478003456478112-116038     456478006003000534906TCS CARRIER BAG MIDI   0000001000+00000035+00000+0001T   00000035+0000001833          1400 US2090               3AZ
456479000456479               456479               170213CD     1400+00000+CD0000006784+0000006784+000000000+000000952+0000007730+0000000006+I20000000000+0000007730+Z
456479001456479006-000805     456479000013994092418STREAMERS 10-ROLLS     0000001000+00001490+00000+0001T   00001490+0000001834          1400 US2131               3AZ
456479002456479006-000120     456479006001023346889BALLOONS 10PC MIX COL  0000003000+00001753+00000+0001T   00001753+0000001834          1400 US2131               3AZ
456479003456479112-116038     456479006009681820246TCS CARRIER BAG MIDI   0000001000+00000035+00000+0001T   00000035+0000001834          1400 US2090               3AZ
456480000456480               456480               170213CD     1400+00000+CD0000008763+0000008763+000000000+000001230+0000009993+0000000000+I40000009993+0000000000+Z
456480001456480077-000150-D   456480006003000054343GIFT-WRAP CELLPHANE CLR0000002000+00000876+00000+0001T   00000876+0000001837          1400 US2112               3AZ
456480002456480903-000123     456480006925925909280SWEET GS MINI MALLOWS  0000002000+00000876+00000+0001T   00000876+0000001837          1400 US2150               3AZ
456480003456480903-000619     456480006003000672455SWT LOLLY STR/BRRY 140G0000002000+00001753+00000+0001T   00001753+0000001837          1400 US2150               3AZ
456480004456480077-000309     456480006001023608604GIFT-BAG 25X32CM GLOSS 0000001000+00001753+00000+0001T   00001753+0000001837          1400 US2112               3AZ
456481000456481               456481               170213CD     1400+00000+CD0000007892+0000007892+000000000+000001106+0000008990+0000000008+I20000000000+0000008990+Z
456481001456481361-000113     456481006001023680204DOLL 30cm RAG          0000001000+00005262+00000+0001T   00005262+0000001839          1400 US2725               3AZ
456481002456481903-000592     456481006003000563777SWT CELLPHONE 12cm     0000001000+00002630+00000+0001T   00002630+0000001839          1400 US2150               3AZ
456482000456482               456482               170213CD     1400+00000+CD0000005261+0000005261+000000000+000000737+0000005998+0000000000+I40000005998+0000000000+Z
456482001456482030-000031-A   456482006003000457588PLAQUE W/WORDS ASSTD   0000001000+00004385+00000+0001T   00004823+0006471842          1400 US2505               3AZ
456482002456482077-000151     456482006008766114676GIFT-WRAP C/PHANE ASSTD0000001000+00000876+00000+0001T   00000876+0000001842          1400 US2112               3AZ
456483000456483               456483               170213CD     1400+00000+CD0000003541+0000003541+000000000+000000497+0000004030+0000000008+I20000000000+0000004030+Z
456483001456483071-001015     456483006001023910387MARKERS PERMANENT 3PK  0000001000+00001753+00000+0001T   00001753+0000001843          1400 US2130               3AZ
456483002456483089-000004     456483006003000137749KEY CHAIN MTL CHARMS   0000001000+00001753+00000+0001T   00001753+0000001843          1400 US2205               3AZ
456483003456483112-116038     456483006009681820246TCS CARRIER BAG MIDI   0000001000+00000035+00000+0001T   00000035+0000001843          1400 US2090               3AZ
456484000456484               456484               170213CD     1400+00000+CD0000001753+0000001753+000000000+000000246+0000001990+0000000009+I20000000000+0000001990+Z
456484001456484077-000309     456484006001023608604GIFT-BAG 25X32CM GLOSS 0000001000+00001753+00000+0001T   00001753+0000001846          1400 US2112               3AZ
456485000456485               456485               170213CD     1400+00000+CD0000001400+0000001400+000000000+000000196+0000001590+0000000006+I20000000000+0000001590+Z
456485001456485564-000012     456485006001023130075BUBBLE BOTTLE MAGIC    0000002000+00000700+00000+0001T   00000700+0000001846          1400 US2131               3AZ
456486000456486               456486               170213CD     1400+00000+CD0000003243+0000003243+000000000+000000455+0000003690+0000000008+I20000000000+0000003690+Z
456486001456486006-000124     456486006003000625888BALLOONS 10PC MIX COL  0000001000+00001753+00000+0001T   00001753+0000001847          1400 US2131               3AZ
456486002456486077-000305     456486006003000395422GIFT-BAG WINE 10X35CM  0000001000+00001490+00000+0001T   00001490+0000001847          1400 US2112               3AZ
456487000456487               456487               170213CD     1400+00000+CD0000014943+0000014943+000000000+000002094+0000017030+0000000007+I20000000000+0000017030+Z
456487001456487106-000901     456487006003000538058WATER BOTTLE 600ml     0000002000+00006139+00000+0001T   00006139+0000001848          1400 US2210               3AZ
456487002456487106-001125     456487006003000666270WATER BOTTLE 600ml     0000001000+00002630+00000+0001T   00002630+0000001848          1400 US2210               3AZ
456487003456487112-116038     456487006009681820246TCS CARRIER BAG MIDI   0000001000+00000035+00000+0001T   00000035+0000001848          1400 US2090               3AZ
456488000456488               456488               170213CD     1400+00000+CD0000001051+0000001051+000000000+000000148+0000001190+0000000009+I20000000000+0000001190+Z
456488001456488903-002851     456488000000087108538MENTOS ROLL STRAWBERRY 0000001000+00001051+00000+0001T   00001051+0000001848          1400 US2150               3AZ
456489000456489               456489               170213CD     1400+00000+CD0000008593+0000008593+000000000+000001204+0000009797+0000000000+I40000009797+0000000000+Z
456489001456489368-000049     456489006003000536955PLUSH BEAR 15cm LOVE   0000001000+00004385+00000+0001T   00004385+0000001850          1400 US2745               3AZ
456489002456489077-000303     456489006001023593757GIFT-BAG PAPER MED     0000001000+00001578+00000+0001T   00001578+0000001850          1400 US2112               3AZ
456489003456489018-000129     456489006001023403353MUG OCC. LOVE V-SHAPE  0000001000+00002630+00000+0001T   00002630+0000001850          1400 US2515               3AZ
456490000456490               456490               170213CD     1400+00000+CD0000001051+0000001051+000000000+000000148+0000001190+0000000009+I20000000000+0000001190+Z
456490001456490079-009702-D   456490008427973059354PAPER SIRIO A2 RED COL 0000001000+00001051+00000+0001T   00001051+0000001851          1400 US2130               3AZ
456491000456491               456491               170213CD     1400+00000+CD0000001139+0000001139+000000000+000000160+0000001299+0000000000+I40000001299+0000000000+Z
456491001456491033-001363     456491006001023802057HAIR-CLIPS 50mm 48PCE  0000001000+00001139+00000+0001T   00001139+0000001852          1400 US2200               3AZ
456492000456492               456492               170213CD     1400+00000+CD0000004208+0000004208+000000000+000000590+0000004790+0000000008+I20000000000+0000004790+Z
456492002456492018-000129     456492006001023403353MUG OCC. LOVE V-SHAPE  0000001000+00002630+00000+0001T   00002630+0000001854          1400 US2515               3AZ
456492003456492080-000124     456492006003000297733CARD & ENV VALENTINES  0000001000+00001578+00000+0001T   00001578+0000001854          1400 US2112               3AZ
456493000456493               456493               170213CD     1400+00000+CD0000001314+0000001314+000000000+000000184+0000001490+0000000008+I20000000000+0000001490+Z
456493001456493077-000310     456493006001023608635GIFT-BAG 18X23CM GLOSS 0000001000+00001314+00000+0001T   00001314+0000001855          1400 US2112               3AZ
A17021300                                          08272883CDSLAVE 3                       AT52IC
A17021301                                          11265578CDSLAVE 3                       AT52IC
A17021302                                          13052507CDSLAVE 3                       AT52IC
A17021303                                          16351822CDSLAVE 3                       AT52IC
C45641500                                          170213CD077-000303     15190867SLAVE 3     AT52IC0000000000+0000000000+0010000001000+
C45649200                                          170213CD077-000310     18541865SLAVE 3     US21IC0000000000+0000000000+0010000001000+
M17021391                              CASH        CDSLAVE 3                       Z-REPORT No.   673TOTAL (Sales - Refunds)           9646.84       CASH TO BE BANKED                 5804.60       DEBIT CARDS                          0.00       CREDIT CARDS                      3842.24       Z-READING                         9646.84       AIRTIME DEBIT CARD SALES             0.00       AIRTIME CARD SALES                   0.00       OVERS/UNDERS                         0.00       AIRTIME CASH SALES                   0.00       GIFT CARDS                           0.00       GIFT CARD CASH SALES                 0.00       T O T A L  CASH PAYOUTS              0.00                                                                                                                                                                                                                                                                                                                                                      Z
M17021392                              CASH        CDABSENT                                                                                                                                                                                          ANNUAL LEAVE                                                                                                                                                                                    DAY OFF                                                                                                                                                                                         COMMENTS                                                                                                                                                                                                                                                                                                                                                                                       Z
Y17021300                                          CD00000000852903+000142
ZCD17021319243 SLAVE 3      SALES DATA                     NEXT INVOICE NO.  456494 0673
F093735496-028120         1701160943440000042ICSLAVE 3
F093735496-058484         1701160943440000142ICSLAVE 3
F094028496-028142         1701130930230000022ICSLAVE 3
F094068496-028122         1701130929490000012ICSLAVE 3
F094128463-000501         1701130925520000052ICSLAVE 3
X CD Slave 3 First invoice 456351 170213 Last invoice 456493 170213 Next invoice 456494 Total number of records 000000458 clbackup completed 19:24:51
