183125000183125               183125               170213CG     1400+00000+CG0000008765+0000008765+000000000+000001230+0000009990+0000000005+I20000000000+0000009990+Z
183125001183125046-002032-PK2 183125004897006175063BATTERIES CR-2032  2PCE0000005000+00001753+00000+0001T   00001753+0000001012          1400 NY1312               1BZ
183126000183126               183126               170213CG     1400+00000+CG0000004820+0000004820+000000000+000000676+0000005490+0000000006+I20000000000+0000005490+Z
183126001183126046-002032-PK2 183126004897006175063BATTERIES CR-2032  2PCE0000002000+00001753+00000+0001T   00001753+0000001050          1400 NY1312               1BZ
183126002183126251-000001     183126006001023487681TAPE DBL-SIDE 18x1000mm0000001000+00001314+00000+0001T   00001314+0000001050          1400 NY1810               1BZ
183127000183127               183127               170213CG     1400+00000+CG0000001314+0000001314+000000000+000000184+0000001490+0000000008+I20000000000+0000001490+Z
183127001183127077-000312     183127006001023608697GIFT-BAG 10X35CM GLOSS 0000001000+00001314+00000+0001T   00001314+0000001055          1400 NY1112               1AZ
183128000183128               183128               170213CG     1400+00000+CG0000007893+0000007893+000000000+000001106+0000008990+0000000009+I20000000000+0000008990+Z
183128001183128071-002884     183128006003000639229CALCULATOR 12 DIGIT    0000001000+00007893+00000+0001T   00007893+0000001055          1400 NY1130               1BZ
183129000183129               183129               170213CG     1400+00000+CG0000000876+0000000876+000000000+000000123+0000000990+0000000009+I20000000000+0000000990+Z
183129001183129078-000025     183129008887013700064SUPERGLUE 3g 1PCE CARD 0000001000+00000876+00000+0001T   00000876+0000001100          1400 NY1810               1BZ
183130000183130               183130               170213CG     1400+00000+CG0000007138+0000007138+000000000+000001003+0000008141+0000000000+I40000008141+0000000000+Z
183130001183130077-000310     183130006001023608635GIFT-BAG 18X23CM GLOSS 0000001000+00001314+00000+0001T   00001314+0000001115          1400 NY1112               1BZ
183130002183130077-000290     183130006001023902023GIFT BOX 26x32x13cm    0000001000+00001753+00000+0001T   00001753+0000001115          1400 NY1112               1BZ
183130003183130018-000127     183130006001023380289MUG OCC STRAIGHT LOVE  0000001000+00001578+00000+0001T   00001753+0006471115          1400 NY1515               1BZ
183130004183130903-000183     183130006003000451043SWT LB HEART LOLLY     0000003000+00000393+00000+0001T   00000393+0000001115          1400 NY1150               1BZ
183130005183130566-000022     183130006001023995070STICKERS HANDMADE ASST 0000001000+00001314+00000+0001T   00001753+0008151115          1400 NY1130               1BZ
183131000183131               183131               170213CG     1400+00000+CG0000001753+0000001753+000000000+000000246+0000001999+0000000000+I40000001999+0000000000+Z
183131001183131104-000065     183131006003000250066BASKET SQUARE MESH     0000001000+00001753+00000+0001T   00001753+0000001126          1400 NY1210               1BZ
183132000183132               183132               170213CG     1400+00000+CG0000023242+0000023242+000000000+000003255+0000026497+0000000000+I40000026497+0000000000+Z
183132001183132088-000104     183132006001023765444INCENSE SET ASSTD FRAG 0000001000+00002192+00000+0001T   00002192+0000001128          1400 NY1212               1BZ
183132002183132051-600642     183132006003000422838PLANTER W/TRAY 69x23x160000002000+00010525+00000+0001T   00010525+0000001128          1400 NY1820               1BZ
183133000183133               183133               170213CG     1400+00000+CG0000007453+0000007453+000000000+000001044+0000008497+0000000000+I40000008497+0000000000+Z
183133001183133306-001024     183133006001023901910FIRST AID COOL/WARM GEL0000002000+00002192+00000+0001T   00002192+0000001151          1400 NY1200               1BZ
183133002183133106-000899     183133006003000653287WTR BOTTLE 2L W/HANDLE 0000001000+00003069+00000+0001T   00003507+0008191151          1400 NY1210               1BZ
183134000183134               183134               170213CG     1400+00000+CG0000010523+0000010523+000000000+000001475+0000011998+0000000000+I40000011998+0000000000+Z
183134001183134082-000126     183134006003000646517READING GLASS TWIN 2.5 0000001000+00007893+00000+0001T   00007893+0000001153          1400 NY1160               1BZ
183134002183134206-000350     183134006003000633265EGG MOULD SUNRISE      0000001000+00002630+00000+0001T   00002630+0000001153          1400 NY1321               1BZ
183135000183135               183135               170213CG     1400+00000+CG0000000700+0000000700+000000000+000000098+0000000790+0000000008+I20000000000+0000000790+Z
183135001183135564-000012     183135006001023130075BUBBLE BOTTLE MAGIC    0000001000+00000700+00000+0001T   00000700+0000001153          1400 NY1131               1BZ
183136000183136               183136               170213CG     1400+00000+CG0000002192+0000002192+000000000+000000307+0000002490+0000000009+I20000000000+0000002490+Z
183136001183136002-000684     183136006001023693778K/TOOL TURNER H/HOUSE  0000001000+00002192+00000+0001T   00002192+0000001155          1400 NY1300               1BZ
183137000183137               183137               170213CG     1400+00000+CG0000000613+0000000613+000000000+000000086+0000000690+0000000009+I20000000000+0000000690+Z
183137001183137083-000055     183137006003000003853LIGHTER ELCTRNC REFILBL0000001000+00000613+00000+0001T   00000613+0000001158          1400 NY1315               1BZ
183138000183138               183138               170213CG     1400+00000+CG0000005260+0000005260+000000000+000000737+0000005990+0000000007+I20000000000+0000005990+Z
183138001183138077-000239     183138006003000160419GIFT-RIBBON ROLL PEARL 0000001000+00001753+00000+0001T   00001753+0000001224          1400 NY1112               1BZ
183138002183138077-000934     183138006003000409921G/WRAP 700mmx5m BIRTHDA0000001000+00003507+00000+0001T   00003507+0000001224          1400 NY1112               1BZ
183139000183139               183139               170213CG     1400+00000+CG0000000437+0000000437+000000000+000000062+0000000490+0000000009+I20000000000+0000000490+Z
183139001183139083-000049     183139004891035200024CIG-LIGHTER DISPOSABLE 0000001000+00000437+00000+0001T   00000437+0000001225          1400 NY1315               1BZ
183140000183140               183140               170213CG     1400+00000+CG0000001490+0000001490+000000000+000000209+0000001690+0000000009+I20000000000+0000001690+Z
183140001183140077-000384     183140006003000275243G/BAG HOT STMP 18x23CM 0000001000+00001490+00000+0001T   00001490+0000001226          1400 NY1112               1BZ
183141000183141               183141               170213CG     1400+00000+CG0000001753+0000001753+000000000+000000246+0000001990+0000000009+I20000000000+0000001990+Z
183141001183141089-000027     183141006003000254071KEY CHAIN MOM/DAD ASSTD0000001000+00001753+00000+0001T   00001753+0000001227          1400 NY1205               1BZ
183142000183142               183142               170213CG     1400+00000+CG0000017135+0000017135+000000000+000002401+0000019536+0000000000+I40000019536+0000000000+Z
183142001183142024-091102-B   183142006003000111725BAKING-CUP MUFFIN 40PCE0000002000+00002630+00000+0001T   00002630+0000001229          1400 NY1300               1BZ
183142002183142024-091103     183142006003453014307BAKING-CUP MUFFIN 50PCE0000001000+00002192+00000+0001T   00002192+0000001229          1400 NY1300               1BZ
183142003183142024-000107     183142006001023422071MUFFIN-PAN 12-CUP      0000001000+00009648+00000+0001T   00009648+0000001229          1400 NY1300               1BZ
183142004183142112-116038     183142006009681820246TCS CARRIER BAG MIDI   0000001000+00000035+00000+0001T   00000035+0000001229          1400 NY1090               1BZ
183143000183143               183143               170213CG     1400+00000+CG0000004385+0000004385+000000000+000000614+0000004990+0000000009+I20000000000+0000004990+Z
183143001183143082-000110     183143006003000360482READING GLS STRENGHT:2 0000001000+00004385+00000+0001T   00004385+0000001230          1400 NY1160               1BZ
183144000183144               183144               170213CG     1400+00000+CG0000002192+0000002192+000000000+000000307+0000002490+0000000009+I20000000000+0000002490+Z
183144001183144077-000916     183144006003000413577G/WRAP 700mmx2m BBY/KID0000001000+00002192+00000+0001T   00002192+0000001232          1400 NY1112               1BZ
183145000183145               183145               170213CG     1400+00000+CG0000001227+0000001227+000000000+000000172+0000001390+0000000009+I20000000000+0000001390+Z
183145001183145903-000519     183145006001704012805SWT MS LIQ-O-GHETTI    0000001000+00001227+00000+0001T   00001227+0000001241          1400 NY1150               1BZ
183146000183146               183146               170213CG     1400+00000+CG0000012279+0000012279+000000000+000001720+0000013990+0000000009+I20000000000+0000013990+Z
183146001183146562-088357     183146006001023873392EVA CARPET 56x56x0.9cm 0000001000+00012279+00000+0001T   00012279+0000001243          1400 NY1755               1BZ
183147000183147               183147               170213CG     1400+00000+CG0000000876+0000000876+000000000+000000123+0000000990+0000000009+I20000000000+0000000990+Z
183147001183147077-000011-C   183147006001023808523TISSUE 10xSHTS RED     0000001000+00000876+00000+0001T   00000876+0000001245          1400 NY1112               1BZ
183148000183148               183148               170213CG     1400+00000+CG0000001753+0000001753+000000000+000000246+0000001990+0000000009+I20000000000+0000001990+Z
183148001183148080-000103     183148006003000236961CARD&ENVLOPE BDAY-MALE 0000001000+00001753+00000+0001T   00001753+0000001245          1400 NY1112               1BZ
183149000183149               183149               170213CG     1400+00000+CG0000001227+0000001227+000000000+000000172+0000001390+0000000009+I20000000000+0000001390+Z
183149001183149251-000041     183149006001023515889SEAL-TAPE BUFF 48mmx50m0000001000+00001227+00000+0001T   00001227+0000001247          1400 NY1810               1BZ
183150000183150               183150               170213CG     1400+00000+CG0000006261+0000006261+000000000+000000877+0000007138+0000000000+I40000007138+0000000000+Z
183150001183150028-000795     183150006001023812063SKEWERS 10cm 100PCE 3mm0000001000+00000964+00000+0001T   00000964+0000001252          1400 NY1305               1BZ
183150002183150112-116038     183150006009681820246TCS CARRIER BAG MIDI   0000001000+00000035+00000+0001T   00000035+0000001252          1400 NY1090               1BZ
183150003183150304-001116     183150006003000426164F/BUNCH ROSES 12-HEAD  0000001000+00005262+00000+0001T   00005262+0000001252          1400 NY1510               1BZ
183151000183151               183151               170213CG     1400+00000+CG0000009681+0000009681+000000000+000001357+0000011030+0000000008+I20000000000+0000011030+Z
183151001183151071-001124     183151006001023802873MARKERS WHITEBOARD 3PCE0000001000+00002630+00000+0001T   00002630+0000001253          1400 NY1130               1BZ
183151002183151562-006275     183151006001023836182EDU BOARD W/MARKER ASST0000001000+00007016+00000+0001T   00007016+0000001253          1400 NY1755               1BZ
183151003183151112-116038     183151006009681820246TCS CARRIER BAG MIDI   0000001000+00000035+00000+0001T   00000035+0000001253          1400 NY1090               1BZ
183152000183152               183152               170213CG     1400+00000+CG0000004385+0000004385+000000000+000000614+0000004999+0000000000+I40000004999+0000000000+Z
183152001183152030-000031-A   183152006003000457588PLAQUE W/WORDS ASSTD   0000001000+00004385+00000+0001T   00004823+0006471302          1400 NY1505               1BZ
183153000183153               183153               170213CG     1400+00000+CG0000000876+0000000876+000000000+000000123+0000000990+0000000009+I20000000000+0000000990+Z
183153001183153002-021057     183153006001023812032T/PICKS UMBRELLAS 10PCE0000001000+00000876+00000+0001T   00000876+0000001306          1400 NY1300               1BZ
183154000183154               183154               170213CG     1400+00000+CG0000001437+0000001437+000000000+000000202+0000001630+0000000009+I20000000000+0000001630+Z
183154001183154105-001005     183154006001023858214CONTAINERS MINI 6PCE   0000001000+00001402+00000+0001T   00001402+0000001307          1400 NY1210               1BZ
183154002183154112-116038     183154006009681820246TCS CARRIER BAG MIDI   0000001000+00000035+00000+0001T   00000035+0000001307          1400 NY1090               1BZ
183155000183155               183155               170213CG     1400+00000+CG0000001756+0000001756+000000000+000000245+0000002000+0000000001+I20000000000+0000002000+Z
183155001183155562-002007     183155006003000228188LEARNING EDU ALPHABET  0000001000-00007016+00000+0001T   00007016+0000001312          1400 NY17552IC            1 Z
183155002183155562-000211     183155006001023851536PUSH-IN BOARD ALPHABET 0000001000-00005262+00000+0001T   00005262+0000001312          1400 NY17552IC            1 Z
183155003183155469-003003     183155006001023804808B/BLOCKS 150PC BOX     0000001000+00014034+00000+0001T   00014034+0000001312          1400 NY1755               1BZ
183156000183156               183156               170213CG     1400+00000+CG0000010029+0000010029+000000000+000001406+0000011430+0000000005+I20000000000+0000011430+Z
183156001183156077-000245     183156006001023759214GIFT-RIBBON METALLICx2 0000001000+00001227+00000+0001T   00001227+0000001318          1400 NY1112               1BZ
183156002183156158-003000     183156006003000637874FRUIT BASKET CHROME    0000001000+00005262+00000+0001T   00005262+0000001318          1400 NY1300               1BZ
183156003183156077-000151     183156006008766114676GIFT-WRAP C/PHANE ASSTD0000002000+00000876+00000+0001T   00000876+0000001318          1400 NY1112               1BZ
183156004183156089-000030     183156006003000575671K/CHAIN LOVE MTL ASSTD 0000001000+00001753+00000+0001T   00001753+0000001318          1400 NY1205               1BZ
183156005183156112-116038     183156006009681820246TCS CARRIER BAG MIDI   0000001000+00000035+00000+0001T   00000035+0000001318          1400 NY1090               1BZ
183157000183157               183157               170213CG     1400+00000+CG0000012276+0000012276+000000000+000001720+0000013996+0000000000+I40000013996+0000000000+Z
183157001183157039-000798     183157006001023617774CANDLES TEALITE BOX-50 0000001000+00006139+00000+0001T   00006139+0000001320          1400 NY1510               1BZ
183157002183157301-085000     183157006003000674299 ORN OCC. LOVE HEARTS  0000002000+00002192+00000+0001T   00002192+0000001320          1400 NY1505               1BZ
183157003183157047-000508     183157006009636901983PLG EURODAPTOR 3x5A-2PN0000001000+00001753+00000+0001T   00001753+0000001320          1400 NY1880               1BZ
183158000183158               183158               170213CG     1400+00000+CG0000001490+0000001490+000000000+000000209+0000001690+0000000009+I20000000000+0000001690+Z
183158001183158039-000108     183158006001023524034TEA-LITE CANDLES 8PCE  0000001000+00001490+00000+0001T   00001490+0000001327          1400 NY1510               1BZ
183159000183159               183159               170213CG     1400+00000+CG0000001613+0000001613+000000000+000000226+0000001830+0000000009+I20000000000+0000001830+Z
183159001183159018-000127     183159006001023380289MUG OCC STRAIGHT LOVE  0000001000+00001578+00000+0001T   00001753+0006471328          1400 NY1515               1BZ
183159002183159112-116038     183159006009681820246TCS CARRIER BAG MIDI   0000001000+00000035+00000+0001T   00000035+0000001328          1400 NY1090               1BZ
183160000183160               183160               170213CG     1400+00000+CG0000000876+0000000876+000000000+000000123+0000000990+0000000009+I20000000000+0000000990+Z
183160001183160077-000011-C   183160006001023808523TISSUE 10xSHTS RED     0000001000+00000876+00000+0001T   00000876+0000001332          1400 NY1112               1BZ
183161000183161               183161               170213CG     1400+00000+CG0000000876+0000000876+000000000+000000123+0000000990+0000000009+I20000000000+0000000990+Z
183161001183161082-026204     183161006001023816443R/GLASSES STRINGS 2PCE 0000001000+00000876+00000+0001T   00000876+0000001336          1400 NY1160               1BZ
183162000183162               183162               170213CG     1400+00000+CG0000004383+0000004383+000000000+000000615+0000004998+0000000000+I40000004998+0000000000+Z
183162001183162077-000270     183162006003000395453GIFT-BAG PPR JMB 33X45 0000001000+00002630+00000+0001T   00002630+0000001340          1400 NY1112               1BZ
183162002183162903-000619     183162006003000672455SWT LOLLY STR/BRRY 140G0000001000+00001753+00000+0001T   00001753+0000001340          1400 NY1150               1BZ
183163000183163               183163               170213CG     1400+00000+CG0000004647+0000004647+000000000+000000651+0000005290+0000000008+I20000000000+0000005290+Z
183163001183163030-000030-A   183163006003000249305PLAQUE GLASS LOVE      0000001000+00003069+00000+0001T   00003069+0000001348          1400 NY1505               1BZ
183163002183163018-000127     183163006001023380289MUG OCC STRAIGHT LOVE  0000001000+00001578+00000+0001T   00001753+0006471348          1400 NY1515               1BZ
183164000183164               183164               170213CG     1400+00000+CG0000001753+0000001753+000000000+000000246+0000001999+0000000000+I40000001999+0000000000+Z
183164001183164077-000005-D   183164006003000414567PAPER TISSUE 50x70cm   0000001000+00001753+00000+0001T   00001753+0000001355          1400 NY1112               1BZ
183165000183165               183165               170213CG     1400+00000+CG0000001139+0000001139+000000000+000000160+0000001290+0000000009+I20000000000+0000001290+Z
183165001183165903-000087     183165006001704000161SWT SPECKLED-EGGS 50G  0000001000+00001139+00000+0001T   00001139+0000001403          1400 NY1150               1BZ
183166000183166               183166               170213CG     1400+00000+CG0000001490+0000001490+000000000+000000209+0000001699+0000000000+I40000001699+0000000000+Z
183166001183166077-000299     183166006003000395576G/BAG 32x25cm LRG LOVE 0000001000+00001490+00000+0001T   00001490+0000001406          1400 NY1112               1BZ
183167000183167               183167               170213CG     1400+00000+CG0000005960+0000005960+000000000+000000835+0000006790+0000000005+I20000000000+0000006790+Z
183167001183167567-011344     183167006003000630714BK COLOURING THERAPY 640000001000+00003507+00000+0001T   00003507+0000001407          1400 NY1757               1BZ
183167002183167140-006010     183167006003000230396FLY-SWATTER SILICONE   0000001000+00000700+00000+0001T   00000700+0000001407          1400 NY1830               1BZ
183167003183167078-000470     183167006007347000018SHOE-CEMENT 70ml-TIN   0000001000+00001753+00000+0001T   00001753+0000001407          1400 NY1810               1BZ
183168000183168               183168               170213CG     1400+00000+CG0000002803+0000002803+000000000+000000394+0000003190+0000000007+I20000000000+0000003190+Z
183168001183168046-002025-PK2 183168004897006174868BATTERIES CR-2025  2PCE0000001000+00001753+00000+0001T   00001753+0000001408          1400 NY1312               1BZ
183168002183168903-000151     183168006009803374411SWT SML RND R/BOW LOLLY0000002000+00000525+00000+0001T   00000525+0000001408          1400 NY1150               1BZ
183169000183169               183169               170213CG     1400+00000+CG0000000911+0000000911+000000000+000000128+0000001030+0000000009+I20000000000+0000001030+Z
183169001183169039-000323     183169006001023524171BIRTHDAY-CANDLES 24PCE 0000001000+00000876+00000+0001T   00000876+0000001411          1400 NY1510               1BZ
183169002183169112-116038     183169006009681820246TCS CARRIER BAG MIDI   0000001000+00000035+00000+0001T   00000035+0000001411          1400 NY1090               1BZ
183170000183170               183170               170213CG     1400+00000+CG0000012277+0000012277+000000000+000001720+0000013990+0000000007+I20000000000+0000013990+Z
183170001183170002-000015     183170006003000555604CAPPUCCINO STENCILS 12P0000001000+00001753+00000+0001T   00001753+0000001413          1400 NY1300               1BZ
183170002183170133-000036     183170006003000133376CLOTHS M/PURPOSE PACK-20000001000+00001753+00000+0001T   00001753+0000001413          1400 NY1212               1BZ
183170003183170031-006227     183170006001024004627P/FRAME COLLAGE 50X28CM0000001000+00008771+00000+0001T   00008771+0000001413          1400 NY1510               1BZ
183171000183171               183171               170213CG     1400+00000+CG0000003507+0000003507+000000000+000000491+0000003990+0000000008+I20000000000+0000003990+Z
183171001183171031-005853     183171006003000442416P/FRAME WDN TWIN HEARTS0000001000+00003507+00000+0001T   00003507+0000001426          1400 NY1510               1BZ
183172000183172               183172               170213CG     1400+00000+CG0000007016+0000007016+000000000+000000983+0000007990+0000000009+I20000000000+0000007990+Z
183172001183172158-000009     183172006001023577917CUTLERY-TRAY WIRE      0000001000+00007016+00000+0001T   00007016+0000001428          1400 NY1300               1BZ
183173000183173               183173               170213CG     1400+00000+CG0000002366+0000002366+000000000+000000332+0000002698+0000000000+I40000002698+0000000000+Z
183173001183173077-000010-C   183173006001023123879CREPE-PAPER RED        0000001000+00000788+00000+0001T   00000788+0000001434          1400 NY1112               1BZ
183173002183173077-000303     183173006001023593757GIFT-BAG PAPER MED     0000001000+00001578+00000+0001T   00001578+0000001434          1400 NY1112               1BZ
183174000183174               183174               170213CG     1400+00000+CG0000001753+0000001753+000000000+000000246+0000001999+0000000000+I40000001999+0000000000+Z
183174001183174104-000040     183174006001023846280BASKET HEART-SHAPED    0000001000+00001753+00000+0001T   00001753+0000001435          1400 NY1210               1BZ
183175000183175               183175               170213CG     1400+00000+CG0000003506+0000003506+000000000+000000492+0000003990+0000000008+I20000000000+0000003990+Z
183175001183175006-000120     183175006001023346889BALLOONS 10PC MIX COL  0000002000+00001753+00000+0001T   00001753+0000001437          1400 NY1131               1BZ
183176000183176               183176               170213CG     1400+00000+CG0000001753+0000001753+000000000+000000246+0000001990+0000000009+I20000000000+0000001990+Z
183176001183176200-003024     183176006001023657299REFUSE BAGS 20PCE BLACK0000001000+00001753+00000+0001T   00001753+0000001458          1400 NY1214               1BZ
183177000183177               183177               170213CG     1400+00000+CG0000003242+0000003242+000000000+000000455+0000003690+0000000007+I20000000000+0000003690+Z
183177001183177903-000499     183177006001704012492SWT CHOC MALLOWS 50g   0000001000+00001227+00000+0001T   00001227+0000001500          1400 NY1150               1BZ
183177002183177903-000087     183177006001704000161SWT SPECKLED-EGGS 50G  0000001000+00001139+00000+0001T   00001139+0000001500          1400 NY1150               1BZ
183177003183177903-000483     183177006001704001410SWT LIQUOR SML SORT 60G0000001000+00000876+00000+0001T   00000876+0000001500          1400 NY1150               1BZ
183178000183178               183178               170213CG     1400+00000+CG0000005735+0000005735+000000000+000000803+0000006530+0000000008+I20000000000+0000006530+Z
183178001183178031-000874-C   183178006001023798862P/FRAME WDN P/BOX 20X250000001000+00005700+00000+0001T   00005700+0000001502          1400 NY1510               1BZ
183178002183178112-116038     183178006009681820246TCS CARRIER BAG MIDI   0000001000+00000035+00000+0001T   00000035+0000001502          1400 NY1090               1BZ
183179000183179               183179               170213CG     1400+00000+CG0000003506+0000003506+000000000+000000492+0000003990+0000000008+I20000000000+0000003990+Z
183179001183179004-000012     183179006003000257614CAMERA CASE W/STRAP    0000002000+00001753+00000+0001T   00002630+0008191504          1400 NY1310               1BZ
A17021300                                          09591273CGSLAVE 1                       NY12IC
A17021301                                          14175158CGSLAVE 1                       NY11IC
A17021302                                          15131759CGSLAVE 1                       NY11IC
M17021391                              CASH        CGSLAVE 1                       Z-REPORT No.   674TOTAL (Sales - Refunds)           2808.34       CASH TO BE BANKED                 1646.40       DEBIT CARDS                          0.00       CREDIT CARDS                      1161.94       Z-READING                         2808.34       AIRTIME DEBIT CARD SALES             0.00       AIRTIME CARD SALES                   0.00       OVERS/UNDERS                         0.00       AIRTIME CASH SALES                   0.00       GIFT CARDS                           0.00       GIFT CARD CASH SALES                 0.00       T O T A L  CASH PAYOUTS              0.00                                                                                                                                                                                                                                                                                                                                                      Z
M17021392                              CASH        CGABSENT                                                                                                                                                                                          ANNUAL LEAVE                                                                                                                                                                                    DAY OFF                                                                                                                                                                                         COMMENTS                                                                                                                                                                                                                                                                                                                                                                                       Z
Y17021300                                          CG00000000258877+000055
ZCG17021319243 SLAVE 1      SALES DATA                     NEXT INVOICE NO.  183180 0674
X CG Slave 1 First invoice 183125 170213 Last invoice 183179 170213 Next invoice 183180 Total number of records 000000155 clbackup completed 19:24:54
