174256000174256               174256               170213CG     1400+00000+CG0000001314+0000001314+000000000+000000184+0000001490+0000000008+I20000000000+0000001490+Z
174256001174256077-000310     174256006001023608635GIFT-BAG 18X23CM GLOSS 0000001000+00001314+00000+0001T   00001314+0000000913          1400 N15112               2AZ
174257000174257               174257               170213CG     1400+00000+CG0000001753+0000001753+000000000+000000246+0000001990+0000000009+I20000000000+0000001990+Z
174257001174257464-000114     174257006003000027057DICE 16MM CARD-OF-6    0000001000+00001753+00000+0001T   00001753+0000000927          1400 N15785               2AZ
174258000174258               174258               170213CG     1400+00000+CG0000004385+0000004385+000000000+000000614+0000004990+0000000009+I20000000000+0000004990+Z
174258001174258082-000110     174258006003000360482READING GLS STRENGHT:2 0000001000+00004385+00000+0001T   00004385+0000000928          1400 N15160               2AZ
174259000174259               174259               170213CG     1400+00000+CG0000018008+0000018008+000000000+000002524+0000020532+0000000000+I40000020532+0000000000+Z
174259001174259566-000068     174259006003000418046POP UP LOVE 2 ASSTD    0000002000+00002192+00000+0001T   00002192+0000000929          1400 N15130               2AZ
174259002174259566-000359     174259006003000582709STICKER BOOK LOVE SPARK0000001000+00002192+00000+0001T   00002192+0000000929          1400 N15130               2AZ
174259003174259077-000454     174259006003000285266G/BAG METALLIC LRG EMB 0000001000+00001753+00000+0001T   00001753+0000000929          1400 N15112               2AZ
174259004174259077-000270     174259006003000395453GIFT-BAG PPR JMB 33X45 0000002000+00002630+00000+0001T   00002630+0000000929          1400 N15112               2AZ
174259005174259080-000127     174259006003000424351VALENTINES DAY 36x24CM 0000002000+00002192+00000+0001T   00002192+0000000929          1400 N15112               2AZ
174259006174259112-116038     174259006009681820246TCS CARRIER BAG MIDI   0000001000+00000035+00000+0001T   00000035+0000000929          1400 N15090               2AZ
174260000174260               174260               170213CG     1400+00000+CG0000003506+0000003506+000000000+000000492+0000003990+0000000008+I20000000000+0000003990+Z
174260001174260158-000005     174260006001023594839CELLPHONE STAND 10.5cm 0000001000+00001753+00000+0001T   00002630+0008170936          1400 N15300               2AZ
174260002174260077-000299-A   174260006003000670888GIFT-BAG PAPER JMB LOVE0000001000+00001753+00000+0001T   00001753+0000000936          1400 N15112               2AZ
174261000174261               174261               170213CG     1400+00000+CG0000013150+0000013150+000000000+000001845+0000014990+0000000005+I20000000000+0000014990+Z
174261001174261019-071601     174261006001023771995RIVER-STONES 1kg WHITE 0000005000+00002630+00000+0001T   00002630+0000001023          1400 N15510               2AZ
174262000174262               174262               170213CG     1400+00000+CG0000001578+0000001578+000000000+000000221+0000001790+0000000009+I20000000000+0000001790+Z
174262002174262077-000303     174262006001023593757GIFT-BAG PAPER MED     0000001000+00001578+00000+0001T   00001578+0000001211          1400 N15112               2AZ
174263000174263               174263               170213CG     1400+00000+CG0000008771+0000008771+000000000+000001228+0000009999+0000000000+I40000009999+0000000000+Z
174263001174263039-000799     174263006001023692382CANDLES TEALITE 100PCE 0000001000+00008771+00000+0001T   00008771+0000001252          1400 N15510               2AZ
174264000174264               174264               170213CG     1400+00000+CG0000009643+0000009643+000000000+000001352+0000010995+0000000000+I40000010995+0000000000+Z
174264001174264150-000776     174264006001023839756UTILITY/TOOL-BOX PL    0000001000+00003507+00000+0001T   00003507+0000001339          1400 N15810               2AZ
174264002174264106-007125     174264006003000057689MILK-SACHET-JUG 1,0L   0000001000+00001753+00000+0001T   00001753+0000001339          1400 N15210               2AZ
174264003174264072-020276     174264006001023858474CAT LITTER-PAN PL      0000001000+00002630+00000+0001T   00002630+0000001339          1400 N15870               2AZ
174264004174264036-000010     174264006003000675777LINT REMOVER STICKY    0000001000+00001753+00000+0001T   00001753+0000001339          1400 N15212               2AZ
174265000174265               174265               170213CG     1400+00000+CG0000004998+0000004998+000000000+000000700+0000005690+0000000008+I20000000000+0000005690+Z
174265001174265304-001011     174265006001023806727FLWR ROSE RED W/BEAR   0000001000+00000613+00000+0001T   00000788+0006471350          1400 N15510               2AZ
174265002174265006-000190     174265006003000685530BALLOONS LOVE 81x91cm  0000001000+00004385+00000+0001T   00004385+0000001350          1400 N15131               2AZ
174266000174266               174266               170213CG     1400+00000+CG0000002366+0000002366+000000000+000000332+0000002698+0000000000+I40000002698+0000000000+Z
174266001174266077-000011-E   174266006001023808646TISSUE-WRAP PINK 10PCE 0000001000+00000876+00000+0001T   00000876+0000001353          1400 N15112               2AZ
174266002174266077-000299     174266006003000395576G/BAG 32x25cm LRG LOVE 0000001000+00001490+00000+0001T   00001490+0000001353          1400 N15112               2AZ
174267000174267               174267               170213CG     1400+00000+CG0000000035+0000000035+000000000+000000005+0000000040+0000000000+I20000000000+0000000040+Z
174267001174267112-116038     174267006009681820246TCS CARRIER BAG MIDI   0000001000+00000035+00000+0001T   00000035+0000001420          1400 N15090               2AZ
174268000174268               174268               170213CG     1400+00000+CG0000002192+0000002192+000000000+000000307+0000002490+0000000009+I20000000000+0000002490+Z
174268001174268077-000509     174268006003000082582GIFT-BAG SML 6PCE ORG P0000001000+00002192+00000+0001T   00002192+0000001507          1400 N15112               2AZ
174269000174269               174269               170213CG     1400+00000+CG0000002488+0000002488+000000000+000000349+0000002837+0000000000+I40000002837+0000000000+Z
174269001174269077-000299-A   174269006003000670888GIFT-BAG PAPER JMB LOVE0000001000+00001753+00000+0001T   00001753+0000001509          1400 N15112               2AZ
174269002174269018-000177     174269006001023797513MUG MINI LOVE ASSTD    0000001000+00000700+00000+0001T   00000700+0000001509          1400 N15515               2AZ
174269003174269112-116038     174269006009681820246TCS CARRIER BAG MIDI   0000001000+00000035+00000+0001T   00000035+0000001509          1400 N15090               2AZ
174270000174270               174270               170213CG     1400+00000+CG0000002192+0000002192+000000000+000000307+0000002490+0000000009+I20000000000+0000002490+Z
174270001174270033-000002     174270006003000621781TINTING BOTTLES 2PC    0000001000+00002192+00000+0001T   00002192+0000001509          1400 N15200               2AZ
174271000174271               174271               170213CG     1400+00000+CG0000017542+0000017542+000000000+000002456+0000019998+0000000000+I40000019998+0000000000+Z
174271001174271019-000015     174271006003000673537VASE GLS W/STND P/SHAPE0000002000+00008771+00000+0001T   00008771+0000001515          1400 N15510               2AZ
174272000174272               174272               170213CG     1400+00000+CG0000001490+0000001490+000000000+000000209+0000001690+0000000009+I20000000000+0000001690+Z
174272001174272077-000299     174272006003000395576G/BAG 32x25cm LRG LOVE 0000001000+00001490+00000+0001T   00001490+0000001521          1400 N15112               2AZ
174273000174273               174273               170213CG     1400+00000+CG0000000876+0000000876+000000000+000000123+0000000990+0000000009+I20000000000+0000000990+Z
174273001174273089-000192-A   174273006001023901774KEY-CHAIN ACRYLIC      0000001000+00000876+00000+0001T   00000876+0000001537          1400 N15205               2AZ
174274000174274               174274               170213CG     1400+00000+CG0000007716+0000007716+000000000+000001081+0000008790+0000000007+I20000000000+0000008790+Z
174274001174274077-000303     174274006001023593757GIFT-BAG PAPER MED     0000001000+00001578+00000+0001T   00001578+0000001545          1400 N15112               2AZ
174274002174274001-000175     174274006001023788108B/MUG GLS LOVE 380ML   0000001000+00004385+00000+0001T   00004385+0000001545          1400 N15515               2AZ
174274003174274089-000030     174274006003000575671K/CHAIN LOVE MTL ASSTD 0000001000+00001753+00000+0001T   00001753+0000001545          1400 N15205               2AZ
174275000174275               174275               170213CG     1400+00000+CG0000002278+0000002278+000000000+000000319+0000002590+0000000007+I20000000000+0000002590+Z
174275001174275018-000177     174275006001023797513MUG MINI LOVE ASSTD    0000001000+00000700+00000+0001T   00000700+0000001549          1400 N15515               2AZ
174275002174275018-000127     174275006001023380289MUG OCC STRAIGHT LOVE  0000001000+00001578+00000+0001T   00001753+0006471549          1400 N15515               2AZ
174276000174276               174276               170213CG     1400+00000+CG0000002366+0000002366+000000000+000000332+0000002690+0000000008+I20000000000+0000002690+Z
174276001174276033-005921-B   174276006001023678348SEWING-THREAD 200m BLK 0000001000+00000876+00000+0001T   00000876+0000001611          1400 N15200               2AZ
174276002174276033-005919     174276006003000154883SEWING THREAD 24cm ASST0000001000+00001490+00000+0001T   00001490+0000001611          1400 N15200               2AZ
174277000174277               174277               170213CG     1400+00000+CG0000000613+0000000613+000000000+000000086+0000000690+0000000009+I20000000000+0000000690+Z
174277001174277306-000021     174277006001023169433EARBUDS 100PCE IN BAG  0000001000+00000613+00000+0001T   00000613+0000001620          1400 N15200               2AZ
174278000174278               174278               170213CG     1400+00000+CG0000015813+0000015813+000000000+000002218+0000018030+0000000001+I20000000000+0000018030+Z
174278001174278077-000240     174278006003000326259G/RIBBON 4PC PEARLIZED 0000001000+00001753+00000+0001T   00001753+0000001634          1400 N15112               2AZ
174278002174278077-000151     174278006008766114676GIFT-WRAP C/PHANE ASSTD0000003000+00000876+00000+0001T   00000876+0000001634          1400 N15112               2AZ
174278003174278112-116038     174278006009681820246TCS CARRIER BAG MIDI   0000001000+00000035+00000+0001T   00000035+0000001634          1400 N15090               2AZ
174278004174278158-003007     174278006003000638116FRUIT BASKET CHROME    0000001000+00006139+00000+0001T   00006139+0000001634          1400 N15300               2AZ
174278005174278304-001011     174278006001023806727FLWR ROSE RED W/BEAR   0000001000+00000613+00000+0001T   00000788+0006471634          1400 N15510               2AZ
174278006174278565-000040     174278006008766115635NOVELTY ICON BEANIE    0000001000+00002630+00000+0001T   00002630+0000001634          1400 N15745               2AZ
174278007174278083-000054     174278006001023729071LIGHTER REFILLABLE LED 0000001000+00001578+00000+0001T   00001578+0000001634          1400 N15315               2AZ
174278008174278080-000133-A   174278006003000647019MINI VALENTINES CARD   0000001000+00000437+00000+0001T   00000437+0000001634          1400 N15112               2AZ
174279000174279               174279               170213CG     1400+00000+CG0000002630+0000002630+000000000+000000369+0000002990+0000000009+I20000000000+0000002990+Z
174279001174279077-000512     174279006003000590223GIFT-BAG DESIGNER LRG  0000001000+00002630+00000+0001T   00002630+0000001635          1400 N15112               2AZ
174280000174280               174280               170213CG     1400+00000+CG0000002630+0000002630+000000000+000000369+0000002999+0000000000+I40000002999+0000000000+Z
174280001174280466-000584     174280006001023628787SKIPPING-ROPE          0000001000+00002630+00000+0001T   00002630+0000001636          1400 N15785               2AZ
174281000174281               174281               170213CG     1400+00000+CG0000006750+0000006750+000000000+000000946+0000007696+0000000000+I40000007696+0000000000+Z
174281001174281077-000342     174281006003000273942G/BAG PAPER LRG 25X32CM0000001000+00001490+00000+0001T   00001490+0000001638          1400 N15112               2AZ
174281002174281567-011506     174281000805219387900BK COLOURING 96P STAR  0000001000+00003507+00000+0001T   00003507+0000001638          1400 N15757               2AZ
174281003174281079-000012     174281006001023655332P/CRAYONS 12-COL LONG  0000001000+00001753+00000+0001T   00001753+0000001638          1400 N15130               2AZ
174282000174282               174282               170213CG     1400+00000+CG0000003069+0000003069+000000000+000000430+0000003490+0000000009+I20000000000+0000003490+Z
174282001174282089-000095     174282006003000457281K/CHAIN SILV 4.3cm     0000001000+00003069+00000+0001T   00003946+0008121640          1400 N15205               2AZ
174283000174283               174283               170213CG     1400+00000+CG0000001576+0000001576+000000000+000000222+0000001790+0000000008+I20000000000+0000001790+Z
174283001174283033-005991     174283006001023678546NEEDLES H/HOLD-REPAIR  0000001000+00000788+00000+0001T   00000788+0000001646          1400 N15200               2AZ
174283002174283033-005917     174283006001023678201SEAM-RIP+THIMBLE-SET   0000001000+00000788+00000+0001T   00000788+0000001646          1400 N15200               2AZ
174284000174284               174284               170213CG     1400+00000+CG0000001578+0000001578+000000000+000000221+0000001790+0000000009+I20000000000+0000001790+Z
174284001174284018-000127     174284006001023380289MUG OCC STRAIGHT LOVE  0000001000+00001578+00000+0001T   00001753+0006471701          1400 N15515               2AZ
174285000174285               174285               170213CG     1400+00000+CG0000000035+0000000035+000000000+000000005+0000000040+0000000000+I20000000000+0000000040+Z
174285001174285112-116038     174285006009681820246TCS CARRIER BAG MIDI   0000001000+00000035+00000+0001T   00000035+0000001702          1400 N15090               2AZ
174286000174286               174286               170213CG     1400+00000+CG0000001753+0000001753+000000000+000000246+0000001990+0000000009+I20000000000+0000001990+Z
174286001174286046-000014-A   174286004897006177708BATTERIES SIZE:AAA 8PCE0000001000+00001753+00000+0001T   00001753+0000001703          1400 N15312               2AZ
174287000174287               174287               170213CG     1400+00000+CG0000002104+0000002104+000000000+000000295+0000002390+0000000009+I20000000000+0000002390+Z
174287001174287903-000095     174287006001704011495SWT SPECKLED-EGGS 100G 0000001000+00002104+00000+0001T   00002104+0000001708          1400 N15150               2AZ
174288000174288               174288               170213CG     1400+00000+CG0000036016+0000036016+000000000+000005048+0000041060+0000000004+I20000000000+0000041060+Z
174288001174288077-000290     174288006001023902023GIFT BOX 26x32x13cm    0000002000+00001753+00000+0001T   00001753+0000001730          1400 N15112               2AZ
174288002174288304-001204     174288006001023737984FLOWER OCC. TEDDY/ROSES0000002000+00001402+00000+0001T   00001490+0006471730          1400 N15510               2AZ
174288003174288018-000129     174288006001023403353MUG OCC. LOVE V-SHAPE  0000001000+00002630+00000+0001T   00002630+0000001730          1400 N15515               2AZ
174288004174288301-085004     174288006003000420469ORN LOVE PLAQUE 21X10CM0000001000+00003507+00000+0001T   00003946+0006471730          1400 N15505               2AZ
174288005174288030-000031-A   174288006003000457588PLAQUE W/WORDS ASSTD   0000001000+00004385+00000+0001T   00004823+0006471730          1400 N15505               2AZ
174288006174288030-000030-A   174288006003000249305PLAQUE GLASS LOVE      0000001000+00003069+00000+0001T   00003069+0000001730          1400 N15505               2AZ
174288007174288089-000030     174288006003000575671K/CHAIN LOVE MTL ASSTD 0000001000+00001753+00000+0001T   00001753+0000001730          1400 N15205               2AZ
174288008174288018-000127     174288006001023380289MUG OCC STRAIGHT LOVE  0000001000+00001578+00000+0001T   00001753+0006471730          1400 N15515               2AZ
174288009174288030-000031-A   174288006003000457588PLAQUE W/WORDS ASSTD   0000001000+00004385+00000+0001T   00004823+0006471730          1400 N15505               2AZ
174288010174288089-000030     174288006003000575671K/CHAIN LOVE MTL ASSTD 0000001000+00001753+00000+0001T   00001753+0000001730          1400 N15205               2AZ
174288011174288030-000030-A   174288006003000249305PLAQUE GLASS LOVE      0000001000+00003069+00000+0001T   00003069+0000001730          1400 N15505               2AZ
174288012174288301-085004     174288006003000420469ORN LOVE PLAQUE 21X10CM0000001000+00003507+00000+0001T   00003946+0006471730          1400 N15505               2AZ
174288013174288112-116038     174288006009681820246TCS CARRIER BAG MIDI   0000002000+00000035+00000+0001T   00000035+0000001730          1400 N15090               2AZ
A17021300                                          08260715CGSLAVE 2                       N151IC
A17021301                                          17104806CGSLAVE 2                       N151IC
C17426200                                          170213CG077-000299     12113546SLAVE 2     N152IC0000000000+0000000000+0010000001000+
M17021391                              CASH        CGSLAVE 2                       Z-REPORT No.   676TOTAL (Sales - Refunds)           2087.14       CASH TO BE BANKED                 1309.60       DEBIT CARDS                          0.00       CREDIT CARDS                       777.54       Z-READING                         2087.14       AIRTIME DEBIT CARD SALES             0.00       AIRTIME CARD SALES                   0.00       OVERS/UNDERS                         0.00       AIRTIME CASH SALES                   0.00       GIFT CARDS                           0.00       GIFT CARD CASH SALES                 0.00       T O T A L  CASH PAYOUTS              0.00                                                                                                                                                                                                                                                                                                                                                      Z
M17021392                              CASH        CGABSENT                                                                                                                                                                                          ANNUAL LEAVE                                                                                                                                                                                    DAY OFF                                                                                                                                                                                         COMMENTS                                                                                                                                                                                                                                                                                                                                                                                       Z
Y17021300                                          CG00000000183214+000033
ZCG17021319243 SLAVE 2      SALES DATA                     NEXT INVOICE NO.  174289 0676
F094042496-028120         1701130858340000022ICSLAVE 2
F094787040-000220         1702090838460000051ICSLAVE 2
F094824106-005122         1702100841380000011ICSLAVE 2
X CG Slave 2 First invoice 174256 170213 Last invoice 174288 170213 Next invoice 174289 Total number of records 000000115 clbackup completed 19:24:55
