194406000194406               194406               170213CG     1400+00000+CG0000001753+0000001753+000000000+000000246+0000001990+0000000009+I20000000000+0000001990+Z
194406001194406366-000282     194406006003000611027DRESS UP SLEEVE TATTOO 0000001000+00001753+00000+0001T   00001753+0000000932          1400 NY4131               3AZ
194407000194407               194407               170213CG     1400+00000+CG0000005734+0000005734+000000000+000000804+0000006530+0000000008+I20000000000+0000006530+Z
194407001194407077-000289     194407006001023901996GIFT BOX 20x25x11cm    0000001000+00001753+00000+0001T   00001753+0000000940          1400 NY4112               3AZ
194407002194407031-000874-A   194407006001023798800P/FRAME WDN P/BOX 10X150000001000+00003946+00000+0001T   00003946+0000000940          1400 NY4510               3AZ
194407003194407112-116038     194407006009681820246TCS CARRIER BAG MIDI   0000001000+00000035+00000+0001T   00000035+0000000940          1400 NY4090               3AZ
194408000194408               194408               170213CG     1400+00000+CG0000004293+0000004293+000000000+000000603+0000004896+0000000000+I40000004896+0000000000+Z
194408001194408080-000100     194408006003000236114CARD & ENVELOPE BDAY   0000001000+00001753+00000+0001T   00001753+0000000944          1400 NY4112               3AZ
194408002194408077-000322     194408006001023677532GIFT-BAG 18X23CM E/D FL0000001000+00001227+00000+0001T   00001227+0000000944          1400 NY4112               3AZ
194408003194408077-000011-L   194408006001023808585P/TISSUE BRIGHT 10SHEET0000001000+00000876+00000+0001T   00000876+0000000944          1400 NY4112               3AZ
194408004194408080-000133-A   194408006003000647019MINI VALENTINES CARD   0000001000+00000437+00000+0001T   00000437+0000000944          1400 NY4112               3AZ
194409000194409               194409               170213CG     1400+00000+CG0000001578+0000001578+000000000+000000221+0000001790+0000000009+I20000000000+0000001790+Z
194409001194409080-000124     194409006003000297733CARD & ENV VALENTINES  0000001000+00001578+00000+0001T   00001578+0000000944          1400 NY4112               3AZ
194410000194410               194410               170213CG     1400+00000+CG0000003507+0000003507+000000000+000000491+0000003990+0000000008+I20000000000+0000003990+Z
194410001194410018-000136     194410006001023659026MUG OCC LOVE W/PLUSH   0000001000+00003507+00000+0001T   00003507+0000001101          1400 NY4515               3AZ
194411000194411               194411               170213CG     1400+00000+CG0000006612+0000006612+000000000+000000926+0000007530+0000000008+I20000000000+0000007530+Z
194411001194411024-000042     194411006002580009255M/CUP MINI 30ML H/HOUSE0000001000+00002192+00000+0001T   00002192+0000001136          1400 NY4300               3AZ
194411002194411024-000118     194411006001023422316N/STICK C/PAN HEART    0000001000+00004385+00000+0001T   00004385+0000001136          1400 NY4300               3AZ
194411003194411112-116038     194411006009681820246TCS CARRIER BAG MIDI   0000001000+00000035+00000+0001T   00000035+0000001136          1400 NY4090               3AZ
194412000194412               194412               170213CG     1400+00000+CG0000001227+0000001227+000000000+000000172+0000001390+0000000009+I20000000000+0000001390+Z
194412001194412077-000322     194412006001023677532GIFT-BAG 18X23CM E/D FL0000001000+00001227+00000+0001T   00001227+0000001137          1400 NY4112               3AZ
194413000194413               194413               170213CG     1400+00000+CG0000004681+0000004681+000000000+000000656+0000005330+0000000007+I20000000000+0000005330+Z
194413001194413077-000299     194413006003000395576G/BAG 32x25cm LRG LOVE 0000001000+00001490+00000+0001T   00001490+0000001138          1400 NY4112               3AZ
194413002194413080-000127     194413006003000424351VALENTINES DAY 36x24CM 0000001000+00002192+00000+0001T   00002192+0000001138          1400 NY4112               3AZ
194413003194413112-116038     194413006009681820246TCS CARRIER BAG MIDI   0000001000+00000035+00000+0001T   00000035+0000001138          1400 NY4090               3AZ
194413004194413903-000843     194413008693029031067SWT GUMMY JELAXY 80G   0000001000+00000964+00000+0001T   00000964+0000001138          1400 NY4150               3AZ
194414000194414               194414               170213CG     1400+00000+CG0000008363+0000008363+000000000+000001172+0000009535+0000000000+I40000009535+0000000000+Z
194414001194414112-116038     194414006009681820246TCS CARRIER BAG MIDI   0000001000+00000035+00000+0001T   00000035+0000001147          1400 NY4090               3AZ
194414002194414018-000215     194414006003000580217M/DAILY TULIP PORC LACE0000001000+00001753+00000+0001T   00001753+0000001147          1400 NY4515               3AZ
194414003194414015-000110     194414006001023854889WHITEWARE MUG 350ML    0000001000+00002192+00000+0001T   00002192+0000001147          1400 NY4515               3AZ
194414004194414108-005010     194414006001023915016TRAY 45cmx31cm RECT    0000001000+00003507+00000+0001T   00003507+0000001147          1400 NY4210               3AZ
194414005194414252-000011     194414006001023475190CURTN-GLIDER ACETYL x500000001000+00000876+00000+0001T   00000876+0000001147          1400 NY4810               3AZ
194415000194415               194415               170213CG     1400+00000+CG0000000613+0000000613+000000000+000000086+0000000690+0000000009+I20000000000+0000000690+Z
194415001194415304-001011     194415006001023806727FLWR ROSE RED W/BEAR   0000001000+00000613+00000+0001T   00000788+0006471151          1400 NY4510               3AZ
194416000194416               194416               170213CG     1400+00000+CG0000001928+0000001928+000000000+000000270+0000002190+0000000008+I20000000000+0000002190+Z
194416001194416174-008024     194416006009654960368TRAVEL BOTTLES 2-PACK  0000001000+00001928+00000+0001T   00001928+0000001153          1400 NY4205               3AZ
194417000194417               194417               170213CG     1400+00000+CG0000005994+0000005994+000000000+000000841+0000006835+0000000000+I40000006835+0000000000+Z
194417001194417140-006010     194417006003000230396FLY-SWATTER SILICONE   0000001000+00000700+00000+0001T   00000700+0000001202          1400 NY4830               3AZ
194417002194417204-083002     194417006008766083002M/HOLD BUTTERFLIES 4PCE0000003000+00001753+00000+0001T   00001753+0000001202          1400 NY4300               3AZ
194417003194417112-116038     194417006009681820246TCS CARRIER BAG MIDI   0000001000+00000035+00000+0001T   00000035+0000001202          1400 NY4090               3AZ
194418000194418               194418               170213CG     1400+00000+CG0000003067+0000003067+000000000+000000430+0000003490+0000000007+I20000000000+0000003490+Z
194418001194418051-002402     194418006001023518347TRIGGER-SPRAYER  500ml 0000001000+00001753+00000+0001T   00001753+0000001245          1400 NY4820               3AZ
194418002194418159-000149     194418006003000010998SOAP-DISH FOUR-LEAF    0000001000+00001314+00000+0001T   00001314+0000001245          1400 NY4200               3AZ
194419000194419               194419               170213CG     1400+00000+CG0000002629+0000002629+000000000+000000369+0000002990+0000000008+I20000000000+0000002990+Z
194419001194419071-003000     194419006003000543229PEN BALL PEN 3PCE MULTI0000001000+00000876+00000+0001T   00000876+0000001245          1400 NY4130               3AZ
194419002194419079-000341     194419006920705495519FELT-TIP PENS 12PCE    0000001000+00001753+00000+0001T   00001753+0000001245          1400 NY4130               3AZ
194420000194420               194420               170213CG     1400+00000+CG0000000000+0000000000+000000000+000000000+0000000000+0000000000+I20000000000+0000000000+Z
194420001194420251-000041     194420006001023515889SEAL-TAPE BUFF 48mmx50m0000001000-00001227+00000+0001T   00001227+0000001253          1400 NY48102IC            3 Z
194420002194420251-000040     194420006001023515865SEALTAPE CLEAR 48mmx50m0000001000+00001227+00000+0001T   00001227+0000001253          1400 NY4810               3 Z
194421000194421               194421               170213CG     1400+00000+CG0000001753+0000001753+000000000+000000246+0000001990+0000000009+I20000000000+0000001990+Z
194421001194421077-000011     194421006003000542352PAPER RAFFIA ASSTD COL 0000001000+00001753+00000+0001T   00001753+0000001257          1400 NY4112               3AZ
194422000194422               194422               170213CG     1400+00000+CG0000001490+0000001490+000000000+000000209+0000001690+0000000009+I20000000000+0000001690+Z
194422001194422077-000299     194422006003000395576G/BAG 32x25cm LRG LOVE 0000001000+00001490+00000+0001T   00001490+0000001455          1400 NY4112               3AZ
194423000194423               194423               170213CG     1400+00000+CG0000000874+0000000874+000000000+000000124+0000000990+0000000008+I20000000000+0000000990+Z
194423001194423083-000049     194423004891035200024CIG-LIGHTER DISPOSABLE 0000002000+00000437+00000+0001T   00000437+0000001456          1400 NY4315               3AZ
194424000194424               194424               170213CG     1400+00000+CG0000001262+0000001262+000000000+000000177+0000001439+0000000000+I40000001439+0000000000+Z
194424001194424077-000322     194424006001023677532GIFT-BAG 18X23CM E/D FL0000001000+00001227+00000+0001T   00001227+0000001458          1400 NY4112               3AZ
194424002194424112-116038     194424006009681820246TCS CARRIER BAG MIDI   0000001000+00000035+00000+0001T   00000035+0000001458          1400 NY4090               3AZ
194425000194425               194425               170213CG     1400+00000+CG0000002278+0000002278+000000000+000000320+0000002590+0000000008+I20000000000+0000002590+Z
194425001194425140-006004     194425006001023628077FLY-SWATTER RUBBER     0000002000+00001139+00000+0001T   00001139+0000001507          1400 NY4830               3AZ
194426000194426               194426               170213CG     1400+00000+CG0000005699+0000005699+000000000+000000799+0000006490+0000000008+I20000000000+0000006490+Z
194426001194426563-000317-C   194426006001023776204SERVIETTES 20PK  FLOWER0000001000+00002630+00000+0001T   00002630+0000001508          1400 NY4214               3AZ
194426002194426567-011482     194426000088908316003BK PUZZLE HELLO KITTY  0000001000+00003069+00000+0001T   00003069+0000001508          1400 NY4757               3AZ
194427000194427               194427               170213CG     1400+00000+CG0000009241+0000009241+000000000+000001296+0000010530+0000000007+I20000000000+0000010530+Z
194427001194427016-002010     194427006003000674480S/BOTTLE GLS W/CAP 1L  0000001000+00003946+00000+0001T   00003946+0000001509          1400 NY4300               3AZ
194427002194427108-003023     194427006003000665471TUMBLER W/STRAW 550ml  0000002000+00002630+00000+0001T   00002630+0000001509          1400 NY4210               3AZ
194427003194427112-116038     194427006009681820246TCS CARRIER BAG MIDI   0000001000+00000035+00000+0001T   00000035+0000001509          1400 NY4090               3AZ
194428000194428               194428               170213CG     1400+00000+CG0000003507+0000003507+000000000+000000491+0000003998+0000000000+I40000003998+0000000000+Z
194428001194428560-000101     194428006001023548740ANIMALS OCEAN-IN-TUBE  0000001000+00003507+00000+0001T   00003507+0000001510          1400 NY4745               3AZ
194429000194429               194429               170213CG     1400+00000+CG0000005085+0000005085+000000000+000000712+0000005790+0000000007+I20000000000+0000005790+Z
194429001194429077-000303     194429006001023593757GIFT-BAG PAPER MED     0000001000+00001578+00000+0001T   00001578+0000001542          1400 NY4112               3AZ
194429002194429018-000136     194429006001023659026MUG OCC LOVE W/PLUSH   0000001000+00003507+00000+0001T   00003507+0000001542          1400 NY4515               3AZ
194430000194430               194430               170213CG     1400+00000+CG0000000035+0000000035+000000000+000000005+0000000040+0000000000+I20000000000+0000000040+Z
194430001194430112-116038     194430006009681820246TCS CARRIER BAG MIDI   0000001000+00000035+00000+0001T   00000035+0000001543          1400 NY4090               3AZ
194431000194431               194431               170213CG     1400+00000+CG0000004420+0000004420+000000000+000000619+0000005030+0000000009+I20000000000+0000005030+Z
194431001194431001-000175     194431006001023788108B/MUG GLS LOVE 380ML   0000001000+00004385+00000+0001T   00004385+0000001547          1400 NY4515               3AZ
194431002194431112-116038     194431006009681820246TCS CARRIER BAG MIDI   0000001000+00000035+00000+0001T   00000035+0000001547          1400 NY4090               3AZ
194432000194432               194432               170213CG     1400+00000+CG0000009646+0000009646+000000000+000001352+0000010998+0000000000+I40000010998+0000000000+Z
194432001194432082-000126     194432006003000646517READING GLASS TWIN 2.5 0000001000+00007893+00000+0001T   00007893+0000001551          1400 NY4160               3AZ
194432002194432078-000480     194432006008741002332BOSTIK SHOE-REPAIR 25ml0000001000+00001753+00000+0001T   00001753+0000001551          1400 NY4810               3AZ
194433000194433               194433               170213CG     1400+00000+CG0000001437+0000001437+000000000+000000202+0000001630+0000000009+I20000000000+0000001630+Z
194433001194433027-009030     194433006002814400100DUSTPAN PL             0000001000+00001402+00000+0001T   00001402+0000001559          1400 NY4212               3AZ
194433002194433112-116038     194433006009681820246TCS CARRIER BAG MIDI   0000001000+00000035+00000+0001T   00000035+0000001559          1400 NY4090               3AZ
194434000194434               194434               170213CG     1400+00000+CG0000008301+0000008301+000000000+000001174+0000009475+0000000000+I40000009475+0000000000+Z
194434001194434112-116038     194434006009681820246TCS CARRIER BAG MIDI   0000001000+00000035+00000+0001T   00000035+0000001612          1400 NY4090               3AZ
194434002194434903-000518     194434006001704012782SWT STRAWS S/BERRY 100g0000001000+00001227+00000+0001T   00001227+0000001612          1400 NY4150               3AZ
194434003194434903-000183     194434006003000451043SWT LB HEART LOLLY     0000011000+00000393+00000+0001T   00000393+0000001612          1400 NY4150               3AZ
194434004194434903-000200     194434006009826020234SWT CHOC RP CHOCO 23G  0000001000+00000788+00000+0001T   00000788+0000001612          1400 NY4150               3AZ
194434005194434903-000843     194434008693029031067SWT GUMMY JELAXY 80G   0000002000+00000964+00000+0001T   00000964+0000001612          1400 NY4150               3AZ
194435000194435               194435               170213CG     1400+00000+CG0000004420+0000004420+000000000+000000619+0000005030+0000000009+I20000000000+0000005030+Z
194435001194435368-000049     194435006003000536955PLUSH BEAR 15cm LOVE   0000001000+00004385+00000+0001T   00004385+0000001614          1400 NY4745               3AZ
194435002194435112-116038     194435006009681820246TCS CARRIER BAG MIDI   0000001000+00000035+00000+0001T   00000035+0000001614          1400 NY4090               3AZ
194436000194436               194436               170213CG     1400+00000+CG0000009642+0000009642+000000000+000001353+0000010990+0000000005+I20000000000+0000010990+Z
194436001194436077-000906     194436006003000410804G/WRAP 700mmx1m BIRTHDA0000002000+00001753+00000+0001T   00001753+0000001617          1400 NY4112               3AZ
194436002194436077-000904     194436006003000410682G/WRAP 700mmx1m PATTERN0000002000+00001753+00000+0001T   00001753+0000001617          1400 NY4112               3AZ
194436003194436039-000332     194436006001023900470CANDLES 8PCE+NUMBERS   0000001000+00002630+00000+0001T   00002630+0000001617          1400 NY4510               3AZ
194437000194437               194437               170213CG     1400+00000+CG0000016607+0000016607+000000000+000002327+0000018930+0000000004+I20000000000+0000018930+Z
194437001194437206-000630     194437006003000631919SPECTACLE CLEANING BRUS0000001000+00001227+00000+0001T   00001227+0000001620          1400 NY4321               3AZ
194437002194437206-000150     194437006003000628667SLICER CUCUMBER        0000001000+00002192+00000+0001T   00002192+0000001620          1400 NY4321               3AZ
194437003194437206-000620     194437006003000631797BACK SCRATCHER EXTEND  0000001000+00002630+00000+0001T   00002630+0000001620          1400 NY4321               3AZ
194437004194437206-000460     194437006003000619986BOOKMARK ZIPPER        0000002000+00004385+00000+0001T   00004385+0000001620          1400 NY4321               3AZ
194437005194437206-000135     194437006003000680450T/BAG HLDR SILICONE    0000001000+00001753+00000+0001T   00001753+0000001620          1400 NY4321               3AZ
194437006194437112-116038     194437006009681820246TCS CARRIER BAG MIDI   0000001000+00000035+00000+0001T   00000035+0000001620          1400 NY4090               3AZ
194438000194438               194438               170213CG     1400+00000+CG0000000613+0000000613+000000000+000000086+0000000690+0000000009+I20000000000+0000000690+Z
194438001194438304-001011     194438006001023806727FLWR ROSE RED W/BEAR   0000001000+00000613+00000+0001T   00000788+0006471632          1400 NY4510               3AZ
194439000194439               194439               170213CG     1400+00000+CG0000004385+0000004385+000000000+000000614+0000004990+0000000009+I20000000000+0000004990+Z
194439001194439018-030000     194439006003000421060MUG OCCASIONS LOVE 2PCE0000001000+00004385+00000+0001T   00004385+0000001638          1400 NY4515               3AZ
194440000194440               194440               170213CG     1400+00000+CG0000000876+0000000876+000000000+000000123+0000000990+0000000009+I20000000000+0000000990+Z
194440001194440077-000151     194440006008766114676GIFT-WRAP C/PHANE ASSTD0000001000+00000876+00000+0001T   00000876+0000001646          1400 NY4112               3AZ
194441000194441               194441               170213CG     1400+00000+CG0000003507+0000003507+000000000+000000491+0000003990+0000000008+I20000000000+0000003990+Z
194441001194441018-000130     194441006001023867537MUG OCC LOVE MINI+HEART0000001000+00003507+00000+0001T   00003507+0000001648          1400 NY4515               3AZ
194442000194442               194442               170213CG     1400+00000+CG0000010641+0000010641+000000000+000001492+0000012130+0000000003+I20000000000+0000012130+Z
194442001194442565-000071     194442006003000643387NOVELTY WIND UP CHATTER0000001000+00001139+00000+0001T   00001139+0000001649          1400 NY4745               3AZ
194442002194442206-000630     194442006003000631919SPECTACLE CLEANING BRUS0000002000+00001227+00000+0001T   00001227+0000001649          1400 NY4321               3AZ
194442003194442206-000230     194442006003000631827MUFFIN TOP BAKING CUPS 0000002000+00001753+00000+0001T   00002630+0008171649          1400 NY4321               3AZ
194442004194442203-007000     194442006001023886040SHOT-GLASS DISPOSABLE  0000001000+00003507+00000+0001T   00003507+0000001649          1400 NY4300               3AZ
194442005194442112-116038     194442006009681820246TCS CARRIER BAG MIDI   0000001000+00000035+00000+0001T   00000035+0000001649          1400 NY4090               3AZ
194443000194443               194443               170213CG     1400+00000+CG0000001578+0000001578+000000000+000000221+0000001790+0000000009+I20000000000+0000001790+Z
194443001194443077-000303     194443006001023593757GIFT-BAG PAPER MED     0000001000+00001578+00000+0001T   00001578+0000001653          1400 NY4112               3AZ
194444000194444               194444               170213CG     1400+00000+CG0000001314+0000001314+000000000+000000184+0000001490+0000000008+I20000000000+0000001490+Z
194444001194444077-000312     194444006001023608697GIFT-BAG 10X35CM GLOSS 0000001000+00001314+00000+0001T   00001314+0000001654          1400 NY4112               3AZ
194445000194445               194445               170213CG     1400+00000+CG0000009690+0000009690+000000000+000001360+0000011050+0000000000+I40000011050+0000000000+Z
194445001194445018-000129     194445006001023403353MUG OCC. LOVE V-SHAPE  0000002000+00002630+00000+0001T   00002630+0000001656          1400 NY4515               3AZ
194445002194445903-000090     194445006009826020821SWT GS CHOCO COINS 60g 0000001000+00002104+00000+0001T   00002104+0000001656          1400 NY4150               3AZ
194445003194445112-116069     194445006009681820277TCS CARRIER BAG JUMBO  0000001000+00000048+00000+0001T   00000048+0000001656          1400 NY4090               3AZ
194445004194445903-000087     194445006001704000161SWT SPECKLED-EGGS 50G  0000002000+00001139+00000+0001T   00001139+0000001656          1400 NY4150               3AZ
194446000194446               194446               170213CG     1400+00000+CG0000020272+0000020272+000000000+000002840+0000023112+0000000000+I40000023112+0000000000+Z
194446001194446903-000844     194446005010478432567SWT CANDY DL LUV HEARTS0000010000+00001314+00000+0001T   00001314+0000001658          1400 NY4150               3AZ
194446002194446039-000322     194446006001023524157B/CANDLES W/HOLDERS 24 0000001000+00001139+00000+0001T   00001139+0000001658          1400 NY4510               3AZ
194446003194446006-000166-C   194446006003000516377BALLOONS LRG 6PC PINK  0000001000+00001314+00000+0001T   00001314+0000001658          1400 NY4131               3AZ
194446004194446077-000010-C   194446006001023123879CREPE-PAPER RED        0000001000+00000788+00000+0001T   00000788+0000001658          1400 NY4112               3AZ
194446005194446112-116038     194446006009681820246TCS CARRIER BAG MIDI   0000001000+00000035+00000+0001T   00000035+0000001658          1400 NY4090               3AZ
194446006194446903-000843     194446008693029031067SWT GUMMY JELAXY 80G   0000004000+00000964+00000+0001T   00000964+0000001658          1400 NY4150               3AZ
194447000194447               194447               170213CG     1400+00000+CG0000001190-0000000000+000000000+000000000+0000001190-0000000000+I20000000000+0000001190-Z
194447001194447001-999909     194447000000000999909STAFF-REFRESHMENTS     0000001000-00001190+00000+0001X   00000000+0000001711          0000 NY49091IC            3 Z
194448000194448               194448               170213CG     1400+00000+CG0000003507+0000003507+000000000+000000491+0000003990+0000000008+I20000000000+0000003990+Z
194448001194448018-000130     194448006001023867537MUG OCC LOVE MINI+HEART0000001000+00003507+00000+0001T   00003507+0000001715          1400 NY4515               3AZ
194449000194449               194449               170213CG     1400+00000+CG0000000035+0000000035+000000000+000000005+0000000040+0000000000+I20000000000+0000000040+Z
194449001194449112-116038     194449006009681820246TCS CARRIER BAG MIDI   0000001000+00000035+00000+0001T   00000035+0000001717          1400 NY4090               3AZ
194450000194450               194450               170213CG     1400+00000+CG0000010120+0000010120+000000000+000001418+0000011530+0000000008+I20000000000+0000011530+Z
194450001194450566-000068     194450006003000418046POP UP LOVE 2 ASSTD    0000001000+00002192+00000+0001T   00002192+0000001719          1400 NY4130               3AZ
194450002194450206-000480     194450006003000620227MOP SHOES CHENILLE 2PC 0000001000+00007893+00000+0001T   00007893+0000001719          1400 NY4321               3AZ
194450003194450112-116038     194450006009681820246TCS CARRIER BAG MIDI   0000001000+00000035+00000+0001T   00000035+0000001719          1400 NY4090               3AZ
194451000194451               194451               170213CG     1400+00000+CG0000001525+0000001525+000000000+000000214+0000001730+0000000009+I20000000000+0000001730+Z
194451001194451077-000299     194451006003000395576G/BAG 32x25cm LRG LOVE 0000001000+00001490+00000+0001T   00001490+0000001720          1400 NY4112               3AZ
194451002194451112-116038     194451006009681820246TCS CARRIER BAG MIDI   0000001000+00000035+00000+0001T   00000035+0000001720          1400 NY4090               3AZ
194452000194452               194452               170213CG     1400+00000+CG0000014906+0000014906+000000000+000002089+0000016995+0000000000+I40000016995+0000000000+Z
194452001194452105-007800     194452006002923018913STORAGE BOX CLEAR 5.5L 0000001000+00003507+00000+0001T   00003507+0000001723          1400 NY4210               3AZ
194452002194452105-007585     194452006003000486151STORAGE BOX CLEAR DEPO 0000001000+00007893+00000+0001T   00010525+0008171723          1400 NY4210               3AZ
194452003194452566-000065     194452006003000217915STICKERS GLITTER ASSTD 0000001000+00001753+00000+0001T   00001753+0000001723          1400 NY4130               3AZ
194452004194452566-000067     194452006003000349180STICKERS GLITTER       0000001000+00001753+00000+0001T   00002192+0008151723          1400 NY4130               3AZ
194453000194453               194453               170213CG     1400+00000+CG0000005259+0000005259+000000000+000000738+0000005990+0000000007+I20000000000+0000005990+Z
194453001194453071-001102     194453006003000274598MARKER PERM MED 2PCE   0000001000+00001753+00000+0001T   00001753+0000001724          1400 NY4130               3AZ
194453002194453491-059642     194453000078257596423INTEX ARMBAND 6-12YRS  0000002000+00001753+00000+0001T   00001753+0000001724          1400 NY4787               3AZ
194454000194454               194454               170213CG     1400+00000+CG0000004767+0000004767+000000000+000000669+0000005430+0000000006+I20000000000+0000005430+Z
194454001194454304-001011     194454006001023806727FLWR ROSE RED W/BEAR   0000002000+00000613+00000+0001T   00000788+0006471725          1400 NY4510               3AZ
194454002194454003-000250     194454006003000035045ORN DECOR NOVELTY GRASS0000002000+00001753+00000+0001T   00001753+0000001725          1400 NY4505               3AZ
194454003194454112-116038     194454006009681820246TCS CARRIER BAG MIDI   0000001000+00000035+00000+0001T   00000035+0000001725          1400 NY4090               3AZ
194455000194455               194455               170213CG     1400+00000+CG0000000613+0000000613+000000000+000000086+0000000690+0000000009+I20000000000+0000000690+Z
194455001194455304-001011     194455006001023806727FLWR ROSE RED W/BEAR   0000001000+00000613+00000+0001T   00000788+0006471725          1400 NY4510               3AZ
194456000194456               194456               170213CG     1400+00000+CG0000004153+0000004153+000000000+000000582+0000004730+0000000005+I20000000000+0000004730+Z
194456001194456150-001234-2   194456005019190010022PLATE-HANGER P/C SIZE-20000001000+00001490+00000+0001T   00001490+0000001726          1400 NY4810               3AZ
194456002194456150-001234-1   194456005019190010015PLATE-HANGER P/C SIZE-10000002000+00001314+00000+0001T   00001314+0000001726          1400 NY4810               3AZ
194456003194456112-116038     194456006009681820246TCS CARRIER BAG MIDI   0000001000+00000035+00000+0001T   00000035+0000001726          1400 NY4090               3AZ
194457000194457               194457               170213CG     1400+00000+CG0000004995+0000004995+000000000+000000701+0000005690+0000000006+I20000000000+0000005690+Z
194457001194457903-000077     194457006939873501687SWT GS MAGIC ROCK FRUIT0000001000+00000525+00000+0001T   00000525+0000001735          1400 NY4150               3AZ
194457002194457903-000843     194457008693029031067SWT GUMMY JELAXY 80G   0000001000+00000964+00000+0001T   00000964+0000001735          1400 NY4150               3AZ
194457003194457072-000228     194457006003000235940DOG-COL REFLCTV 25-40cm0000001000+00001753+00000+0001T   00001753+0000001735          1400 NY4870               3AZ
194457004194457903-000215     194457006002099001214SWT GS MALLOW TWIST PAC0000001000+00001753+00000+0001T   00001753+0000001735          1400 NY4150               3AZ
194458000194458               194458               170213CG     1400+00000+CG0000001753+0000001753+000000000+000000246+0000001990+0000000009+I20000000000+0000001990+Z
194458001194458077-000290     194458006001023902023GIFT BOX 26x32x13cm    0000001000+00001753+00000+0001T   00001753+0000001737          1400 NY4112               3AZ
194459000194459               194459               170213CG     1400+00000+CG0000005260+0000005260+000000000+000000738+0000005998+0000000000+I40000005998+0000000000+Z
194459001194459200-000042     194459006001023868886BAG-SEALERS 10PCE      0000002000+00002630+00000+0001T   00002630+0000001742          1400 NY4214               3AZ
194460000194460               194460               170213CG     1400+00000+CG0000000613+0000000613+000000000+000000086+0000000690+0000000009+I20000000000+0000000690+Z
194460001194460083-000055     194460006003000003853LIGHTER ELCTRNC REFILBL0000001000+00000613+00000+0001T   00000613+0000001743          1400 NY4315               3AZ
194461000194461               194461               170213CG     1400+00000+CG0000001578+0000001578+000000000+000000221+0000001790+0000000009+I20000000000+0000001790+Z
194461001194461077-000303     194461006001023593757GIFT-BAG PAPER MED     0000001000+00001578+00000+0001T   00001578+0000001746          1400 NY4112               3AZ
194462000194462               194462               170213CG     1400+00000+CG0000003104+0000003104+000000000+000000435+0000003539+0000000000+I40000003539+0000000000+Z
194462001194462030-000030-A   194462006003000249305PLAQUE GLASS LOVE      0000001000+00003069+00000+0001T   00003069+0000001749          1400 NY4505               3AZ
194462002194462112-116038     194462006009681820246TCS CARRIER BAG MIDI   0000001000+00000035+00000+0001T   00000035+0000001749          1400 NY4090               3AZ
194463000194463               194463               170213CG     1400+00000+CG0000007014+0000007014+000000000+000000982+0000007996+0000000000+I40000007996+0000000000+Z
194463001194463018-005009     194463006001023725608MUG W/PLUSH-BEAR LOVE  0000002000+00003507+00000+0001T   00003507+0000001757          1400 NY4515               3AZ
194464000194464               194464               170213CG     1400+00000+CG0000008797+0000008797+000000000+000001235+0000010032+0000000000+I40000010032+0000000000+Z
194464001194464565-000040     194464006008766115635NOVELTY ICON BEANIE    0000001000+00002630+00000+0001T   00002630+0000001759          1400 NY4745               3AZ
194464002194464089-000200     194464006003000485840KEY CHAIN POLY LOVE IS 0000001000+00003507+00000+0001T   00004385+0008121759          1400 NY4205               3AZ
194464003194464077-000310     194464006001023608635GIFT-BAG 18X23CM GLOSS 0000001000+00001314+00000+0001T   00001314+0000001759          1400 NY4112               3AZ
194464004194464080-000133     194464006003000535613CARD&ENV MINI ASTD DSGN0000002000+00000437+00000+0001T   00000437+0000001759          1400 NY4112               3AZ
194464005194464112-116038     194464006009681820246TCS CARRIER BAG MIDI   0000001000+00000035+00000+0001T   00000035+0000001759          1400 NY4090               3AZ
194464006194464080-000133     194464006003000535613CARD&ENV MINI ASTD DSGN0000001000+00000437+00000+0001T   00000437+0000001759          1400 NY4112               3AZ
194465000194465               194465               170213CG     1400+00000+CG0000006174+0000006174+000000000+000000865+0000007030+0000000009+I20000000000+0000007030+Z
194465001194465112-116038     194465006009681820246TCS CARRIER BAG MIDI   0000001000+00000035+00000+0001T   00000035+0000001759          1400 NY4090               3AZ
194465002194465018-050000     194465006003000412679MUG OCC LOVE TWIN BEAR 0000001000+00006139+00000+0001T   00006139+0000001759          1400 NY4515               3AZ
194466000194466               194466               170213CG     1400+00000+CG0000014067+0000014067+000000000+000001971+0000016038+0000000000+I40000016038+0000000000+Z
194466001194466079-000335     194466006003000670550THERAPY P/CRAYONS 30   0000001000+00007016+00000+0001T   00007016+0000001802          1400 NY4130               3AZ
194466002194466107-004500     194466006003000150557STEP STOOL PL          0000001000+00007016+00000+0001T   00007016+0000001802          1400 NY4210               3AZ
194466003194466112-116038     194466006009681820246TCS CARRIER BAG MIDI   0000001000+00000035+00000+0001T   00000035+0000001802          1400 NY4090               3AZ
194467000194467               194467               170213CG     1400+00000+CG0000002575+0000002575+000000000+000000361+0000002936+0000000000+I40000002936+0000000000+Z
194467001194467304-001011     194467006001023806727FLWR ROSE RED W/BEAR   0000001000+00000613+00000+0001T   00000788+0006471803          1400 NY4510               3AZ
194467002194467077-000311     194467006001023608666GIFT-BAG 11X14CM GLOSS 0000001000+00000613+00000+0001T   00000613+0000001803          1400 NY4112               3AZ
194467003194467077-000310     194467006001023608635GIFT-BAG 18X23CM GLOSS 0000001000+00001314+00000+0001T   00001314+0000001803          1400 NY4112               3AZ
194467004194467112-116038     194467006009681820246TCS CARRIER BAG MIDI   0000001000+00000035+00000+0001T   00000035+0000001803          1400 NY4090               3AZ
194468000194468               194468               170213CG     1400+00000+CG0000006138+0000006138+000000000+000000860+0000006990+0000000008+I20000000000+0000006990+Z
194468001194468001-000175     194468006001023788108B/MUG GLS LOVE 380ML   0000001000+00004385+00000+0001T   00004385+0000001803          1400 NY4515               3AZ
194468002194468077-000299-A   194468006003000670888GIFT-BAG PAPER JMB LOVE0000001000+00001753+00000+0001T   00001753+0000001803          1400 NY4112               3AZ
194469000194469               194469               170213CG     1400+00000+CG0000001578+0000001578+000000000+000000221+0000001790+0000000009+I20000000000+0000001790+Z
194469001194469018-000127     194469006001023380289MUG OCC STRAIGHT LOVE  0000001000+00001578+00000+0001T   00001753+0006471807          1400 NY4515               3AZ
194470000194470               194470               170213CG     1400+00000+CG0000003681+0000003681+000000000+000000516+0000004190+0000000007+I20000000000+0000004190+Z
194470001194470903-000619     194470006003000672455SWT LOLLY STR/BRRY 140G0000001000+00001753+00000+0001T   00001753+0000001810          1400 NY4150               3AZ
194470002194470903-000843     194470008693029031067SWT GUMMY JELAXY 80G   0000002000+00000964+00000+0001T   00000964+0000001810          1400 NY4150               3AZ
194471000194471               194471               170213CG     1400+00000+CG0000005820+0000005820+000000000+000000815+0000006635+0000000000+I40000006635+0000000000+Z
194471001194471031-000001-A   194471006003000246908P/FRAME GLS LOVE 9X13cm0000001000+00004385+00000+0001T   00004385+0000001814          1400 NY4510               3AZ
194471002194471018-000177     194471006001023797513MUG MINI LOVE ASSTD    0000002000+00000700+00000+0001T   00000700+0000001814          1400 NY4515               3AZ
194471003194471112-116038     194471006009681820246TCS CARRIER BAG MIDI   0000001000+00000035+00000+0001T   00000035+0000001814          1400 NY4090               3AZ
194472000194472               194472               170213CG     1400+00000+CG0000000700+0000000700+000000000+000000098+0000000790+0000000008+I20000000000+0000000790+Z
194472001194472018-000177     194472006001023797513MUG MINI LOVE ASSTD    0000001000+00000700+00000+0001T   00000700+0000001819          1400 NY4515               3AZ
194473000194473               194473               170213CG     1400+00000+CG0000000876+0000000876+000000000+000000123+0000000990+0000000009+I20000000000+0000000990+Z
194473001194473077-000011-E   194473006001023808646TISSUE-WRAP PINK 10PCE 0000001000+00000876+00000+0001T   00000876+0000001819          1400 NY4112               3AZ
194474000194474               194474               170213CG     1400+00000+CG0000004419+0000004419+000000000+000000619+0000005030+0000000008+I20000000000+0000005030+Z
194474001194474566-000031     194474006003000283910STICKER BK TEACHER STIC0000001000+00002192+00000+0001T   00002192+0000001821          1400 NY4130               3AZ
194474002194474080-000127     194474006003000424351VALENTINES DAY 36x24CM 0000001000+00002192+00000+0001T   00002192+0000001821          1400 NY4112               3AZ
194474003194474112-116038     194474006009681820246TCS CARRIER BAG MIDI   0000001000+00000035+00000+0001T   00000035+0000001821          1400 NY4090               3AZ
194475000194475               194475               170213CG     1400+00000+CG0000007629+0000007629+000000000+000001069+0000008698+0000000000+I40000008698+0000000000+Z
194475001194475018-050000     194475006003000412679MUG OCC LOVE TWIN BEAR 0000001000+00006139+00000+0001T   00006139+0000001822          1400 NY4515               3AZ
194475002194475077-000299     194475006003000395576G/BAG 32x25cm LRG LOVE 0000001000+00001490+00000+0001T   00001490+0000001822          1400 NY4112               3AZ
194476000194476               194476               170213CG     1400+00000+CG0000001051+0000001051+000000000+000000148+0000001190+0000000009+I20000000000+0000001190+Z
194476001194476033-000124     194476006009654960597COMBS HANDLE + TAIL 2PC0000001000+00001051+00000+0001T   00001051+0000001823          1400 NY4200               3AZ
194477000194477               194477               170213CG     1400+00000+CG0000000876+0000000876+000000000+000000123+0000000990+0000000009+I20000000000+0000000990+Z
194477001194477306-000501     194477006003000577293T/BRUSH KIDDIES SUCKER 0000001000+00000876+00000+0001T   00000876+0000001824          1400 NY4200               3AZ
194478000194478               194478               170213CG     1400+00000+CG0000001753+0000001753+000000000+000000246+0000001990+0000000009+I20000000000+0000001990+Z
194478001194478077-000455     194478006003000285389G/BAG METALLIC LRG SOL 0000001000+00001753+00000+0001T   00001753+0000001824          1400 NY4112               3AZ
194479000194479               194479               170213CG     1400+00000+CG0000001402+0000001402+000000000+000000197+0000001590+0000000009+I20000000000+0000001590+Z
194479001194479027-009030     194479006002814400100DUSTPAN PL             0000001000+00001402+00000+0001T   00001402+0000001826          1400 NY4212               3AZ
194480000194480               194480               170213CG     1400+00000+CG0000001963+0000001963+000000000+000000275+0000002238+0000000000+I40000002238+0000000000+Z
194480001194480174-008032     194480006009654960603TRAVEL BOTTLES 50ml    0000001000+00001928+00000+0001T   00001928+0000001827          1400 NY4205               3AZ
194480002194480112-116038     194480006009681820246TCS CARRIER BAG MIDI   0000001000+00000035+00000+0001T   00000035+0000001827          1400 NY4090               3AZ
194481000194481               194481               170213CG     1400+00000+CG0000004420+0000004420+000000000+000000619+0000005030+0000000009+I20000000000+0000005030+Z
194481001194481019-000070     194481006003000297474VASE GLS CLEAR BOTTLE  0000001000+00004385+00000+0001T   00004385+0000001828          1400 NY4510               3AZ
194481002194481112-116038     194481006009681820246TCS CARRIER BAG MIDI   0000001000+00000035+00000+0001T   00000035+0000001828          1400 NY4090               3AZ
194482000194482               194482               170213CG     1400+00000+CG0000002192+0000002192+000000000+000000307+0000002490+0000000009+I20000000000+0000002490+Z
194482001194482206-000100     194482006003000628063TONGS ICE COLD FINGERS 0000001000+00002192+00000+0001T   00002192+0000001831          1400 NY4321               3AZ
194483000194483               194483               170213CG     1400+00000+CG0000003945+0000003945+000000000+000000553+0000004490+0000000008+I20000000000+0000004490+Z
194483001194483077-000299-A   194483006003000670888GIFT-BAG PAPER JMB LOVE0000001000+00001753+00000+0001T   00001753+0000001834          1400 NY4112               3AZ
194483002194483080-000127     194483006003000424351VALENTINES DAY 36x24CM 0000001000+00002192+00000+0001T   00002192+0000001834          1400 NY4112               3AZ
194484000194484               194484               170213CG     1400+00000+CG0000000911+0000000911+000000000+000000128+0000001030+0000000009+I20000000000+0000001030+Z
194484001194484006-000812     194484006001023902832HAT CONE WITH TINSEL   0000001000+00000876+00000+0001T   00000876+0000001835          1400 NY4131               3AZ
194484002194484112-116038     194484006009681820246TCS CARRIER BAG MIDI   0000001000+00000035+00000+0001T   00000035+0000001835          1400 NY4090               3AZ
194485000194485               194485               170213CG     1400+00000+CG0000000876+0000000876+000000000+000000123+0000000990+0000000009+I20000000000+0000000990+Z
194485001194485077-000011-D   194485006001023808554TISSUE-WRAP WHITE 10PCE0000001000+00000876+00000+0001T   00000876+0000001837          1400 NY4112               3AZ
194486000194486               194486               170213CG     1400+00000+CG0000009853+0000009853+000000000+000001382+0000011235+0000000000+I40000011235+0000000000+Z
194486001194486112-116038     194486006009681820246TCS CARRIER BAG MIDI   0000001000+00000035+00000+0001T   00000035+0000001841          1400 NY4090               3AZ
194486002194486027-009025     194486006003962000747DUSTPAN-SET PL         0000001000+00002630+00000+0001T   00002630+0000001841          1400 NY4212               3AZ
194486003194486105-001024-A   194486006009654960986CONTAINERS CLEAR 3PCE  0000001000+00001928+00000+0001T   00001928+0000001841          1400 NY4210               3AZ
194486004194486159-080358     194486006001023742315SHOWER /DRAIN FILTER   0000001000+00002630+00000+0001T   00002630+0000001841          1400 NY4200               3AZ
194486005194486200-000040     194486006001023729620BAG SEALERS 5PC CLIPS  0000001000+00002630+00000+0001T   00002630+0000001841          1400 NY4214               3AZ
194487000194487               194487               170213CG     1400+00000+CG0000001226+0000001226+000000000+000000172+0000001390+0000000008+I20000000000+0000001390+Z
194487001194487200-000065     194487006001023323675DRINKING-STRAWS 38PCE  0000002000+00000613+00000+0001T   00000613+0000001841          1400 NY4214               3AZ
194488000194488               194488               170213CG     1400+00000+CG0000001753+0000001753+000000000+000000246+0000001990+0000000009+I20000000000+0000001990+Z
194488001194488150-012228-H   194488006001023416773DOOR-STOPPERS SET-OF-2 0000001000+00001753+00000+0001T   00001753+0000001842          1400 NY4810               3AZ
194489000194489               194489               170213CG     1400+00000+CG0000004733+0000004733+000000000+000000664+0000005397+0000000000+I40000005397+0000000000+Z
194489001194489083-000049     194489004891035200024CIG-LIGHTER DISPOSABLE 0000001000+00000437+00000+0001T   00000437+0000001844          1400 NY4315               3AZ
194489002194489903-000095     194489006001704011495SWT SPECKLED-EGGS 100G 0000001000+00002104+00000+0001T   00002104+0000001844          1400 NY4150               3AZ
194489003194489077-000920     194489006003000413812G/WRAP 700mmx2m BIRTHDA0000001000+00002192+00000+0001T   00002192+0000001844          1400 NY4112               3AZ
194490000194490               194490               170213CG     1400+00000+CG0000006335+0000006335+000000000+000000887+0000007220+0000000002+I20000000000+0000007220+Z
194490001194490112-116038     194490006009681820246TCS CARRIER BAG MIDI   0000001000+00000035+00000+0001T   00000035+0000001845          1400 NY4090               3AZ
194490002194490018-000177     194490006001023797513MUG MINI LOVE ASSTD    0000009000+00000700+00000+0001T   00000700+0000001845          1400 NY4515               3AZ
194491000194491               194491               170213CG     1400+00000+CG0000005295+0000005295+000000000+000000742+0000006037+0000000000+I40000006037+0000000000+Z
194491001194491024-000038     194491006001023477026MEASURING-JUG 1L (4CUP)0000001000+00001753+00000+0001T   00001753+0000001846          1400 NY4300               3AZ
194491002194491104-000051     194491006003000615193BASKET PL 36x24x13cm   0000001000+00003507+00000+0001T   00003507+0000001846          1400 NY4210               3AZ
194491003194491112-116038     194491006009681820246TCS CARRIER BAG MIDI   0000001000+00000035+00000+0001T   00000035+0000001846          1400 NY4090               3AZ
194492000194492               194492               170213CG     1400+00000+CG0000023266+0000023266+000000000+000003262+0000026528+0000000000+I40000026528+0000000000+Z
194492001194492038-047245     194492006001023637444PLACE-MAT DESIGNS ASSTD0000002000+00000876+00000+0001T   00000876+0000001848          1400 NY4300               3AZ
194492002194492024-000038     194492006001023477026MEASURING-JUG 1L (4CUP)0000001000+00001753+00000+0001T   00001753+0000001848          1400 NY4300               3AZ
194492003194492133-000381     194492006001023713674TABLE-CLOTH 132x178cm  0000001000+00001753+00000+0001T   00001753+0000001848          1400 NY4212               3AZ
194492004194492002-000746     194492006003000463305GRATER 3-ASSTD COLOURS 0000001000+00001753+00000+0001T   00001753+0000001848          1400 NY4300               3AZ
194492005194492050-000410-Z   194492006001023848581PADLOCK L/SHKL BRS 38mm0000001000+00007016+00000+0001T   00007016+0000001848          1400 NY4855               3AZ
194492006194492027-783002     194492006001023874658SCOURERS FOAM PACK OF 30000001000+00001490+00000+0001T   00001490+0000001848          1400 NY4212               3AZ
194492007194492036-000400     194492006001023886132CLOTHES-DRYER PL 8-PEG 0000001000+00002192+00000+0001T   00002192+0000001848          1400 NY4212               3AZ
194492008194492903-000503     194492006001704006118SWT VAMPIRE FANGS 60G  0000001000+00000876+00000+0001T   00000876+0000001848          1400 NY4150               3AZ
194492009194492133-000017     194492006003000525171CLEANING-CLOTHS 5PCE   0000001000+00003507+00000+0001T   00003507+0000001848          1400 NY4212               3AZ
194492010194492002-000801     194492006003000555994PEELER PL/MTL Y-SHAPE  0000001000+00001139+00000+0001T   00001139+0000001848          1400 NY4300               3AZ
194492011194492112-116038     194492006003000534906TCS CARRIER BAG MIDI   0000001000+00000035+00000+0001T   00000035+0000001848          1400 NY4090               3AZ
194493000194493               194493               170213CG     1400+00000+CG0000001578+0000001578+000000000+000000221+0000001790+0000000009+I20000000000+0000001790+Z
194493001194493077-000315     194493006003000181186GIFT-BAG 20x28cm MATT  0000001000+00001578+00000+0001T   00001578+0000001849          1400 NY4112               3AZ
194494000194494               194494               170213CG     1400+00000+CG0000001753+0000001753+000000000+000000246+0000001990+0000000009+I20000000000+0000001990+Z
194494001194494903-000912     194494006009802868461SWT GUM TAPE HOT WHEELS0000001000+00001753+00000+0001T   00001753+0000001849          1400 NY4150               3AZ
194495000194495               194495               170213CG     1400+00000+CG0000001753+0000001753+000000000+000000246+0000001990+0000000009+I20000000000+0000001990+Z
194495001194495077-000308     194495006001023595812GIFT-BAG 33X45CM E/DAY 0000001000+00001753+00000+0001T   00001753+0000001900          1400 NY4112               3AZ
194496000194496               194496               170213CG     1400+00000+CG0000005730+0000005730+000000000+000000803+0000006530+0000000003+I20000000000+0000006530+Z
194496001194496077-000240     194496006003000326259G/RIBBON 4PC PEARLIZED 0000001000+00001753+00000+0001T   00001753+0000001901          1400 NY4112               3AZ
194496002194496006-000166-D   194496006003000516490BALLOONS LRG 6PC RED   0000002000+00001314+00000+0001T   00001314+0000001901          1400 NY4131               3AZ
194496003194496006-000167-C   194496006003000516971BALLOONS PINK METALLIC 0000001000+00001314+00000+0001T   00001314+0000001901          1400 NY4131               3AZ
194496004194496112-116038     194496006009681820246TCS CARRIER BAG MIDI   0000001000+00000035+00000+0001T   00000035+0000001901          1400 NY4090               3AZ
A17021300                                          09265775CGSLAVE 3                       NY42IC
A17021301                                          14164769CGSLAVE 3                       NY42IC
A17021302                                          18585666CGSLAVE 3                       NY42IC
M17021391                              CASH        CGSLAVE 3                       Z-REPORT No.   664TOTAL (Sales - Refunds)           4611.30       CASH TO BE BANKED                 2483.00       DEBIT CARDS                          0.00       CREDIT CARDS                      2116.40       Z-READING                         4599.40       AIRTIME DEBIT CARD SALES             0.00       AIRTIME CARD SALES                   0.00       OVERS/UNDERS                         0.00       AIRTIME CASH SALES                   0.00       GIFT CARDS                           0.00       GIFT CARD CASH SALES                 0.00       STAFF-REFRESHMENTS                  11.90       T O T A L  CASH PAYOUTS             11.90                                                                                                                                                                                                                                                                                                      Z
M17021392                              CASH        CGABSENT                                                                                                                                                                                          ANNUAL LEAVE                                                                                                                                                                                    DAY OFF                                                                                                                                                                                         COMMENTS                                                                                                                                                                                                                                                                                                                                                                                       Z
Y17021300                                          CG00000000406099+000090
ZCG17021319243 SLAVE 3      SALES DATA                     NEXT INVOICE NO.  194497 0664
X CG Slave 3 First invoice 194406 170213 Last invoice 194496 170213 Next invoice 194497 Total number of records 000000299 clbackup completed 19:24:57
