100775000100775               100775               170213CI     1400+00000+CI0000005699+0000005699+000000000+000000798+0000006490+0000000007+I20000000000+0000006490+Z
100775001100775089-000225     100775006003000486205KEY CHAIN RELIGIOUS    0000001000+00002192+00000+0001T   00002192+0000000911          1400 AS8205               1AZ
100775002100775030-001111     100775006003000336951PLAQUE-WALL R/PIN 32cm 0000001000+00003507+00000+0001T   00004385+0008120911          1400 AS8505               1AZ
100776000100776               100776               170213CI     1400+00000+CI0000012047+0000012047+000000000+000001688+0000013730+0000000005+I20000000000+0000013730+Z
100776001100776368-000040     100776006003000671786PLUSH ICONS 7.5cm      0000001000+00002630+00000+0001T   00002630+0000000912          1400 AS8745               1AZ
100776002100776089-000017     100776006003000331147KEYCHAIN MOM POLY BOX  0000001000+00004385+00000+0001T   00004385+0000000912          1400 AS8205               1AZ
100776003100776089-000200     100776006003000485840KEY CHAIN POLY LOVE IS 0000001000+00003507+00000+0001T   00004385+0008120912          1400 AS8205               1AZ
100776004100776077-000299     100776006003000395576G/BAG 32x25cm LRG LOVE 0000001000+00001490+00000+0001T   00001490+0000000912          1400 AS8112               1AZ
100776005100776112-116038     100776006009681820246TCS CARRIER BAG MIDI   0000001000+00000035+00000+0001T   00000035+0000000912          1400 AS8090               1AZ
100777000100777               100777               170213CI     1400+00000+CI0000006622+0000006622+000000000+000000928+0000007550+0000000000+I40000007550+0000000000+Z
100777001100777362-000307     100777006003000519750HAIR HEADBAND PRINTED  0000001000+00001314+00000+0001T   00001314+0000000914          1400 AS8160               1AZ
100777002100777006-000800     100777006001023902801HAT CABARET 14x18cm    0000001000+00001753+00000+0001T   00001753+0000000914          1400 AS8131               1AZ
100777003100777362-002467     100777006003000167623HAIR EXT LONG 61cm     0000001000+00003507+00000+0001T   00003507+0000000914          1400 AS8160               1AZ
100777004100777112-116069     100777006009681820277TCS CARRIER BAG JUMBO  0000001000+00000048+00000+0001T   00000048+0000000914          1400 AS8090               1AZ
100778000100778               100778               170213CI     1400+00000+CI0000001840+0000001840+000000000+000000258+0000002090+0000000008+I20000000000+0000002090+Z
100778001100778028-000797     100778006001023812124SKEWERS 15cm 100PCE    0000001000+00000876+00000+0001T   00000876+0000000915          1400 AS8305               1AZ
100778002100778028-000795     100778006001023812063SKEWERS 10cm 100PCE 3mm0000001000+00000964+00000+0001T   00000964+0000000915          1400 AS8305               1AZ
100779000100779               100779               170213CI     1400+00000+CI0000003506+0000003506+000000000+000000492+0000003990+0000000008+I20000000000+0000003990+Z
100779001100779080-000106     100779006003000237098CARD&ENVLPE BDAY GIRL  0000001000+00001753+00000+0001T   00001753+0000000919          1400 AS8112               1AZ
100779002100779080-000109     100779006003000237203CARD&ENVLPE BDAY-BRIGHT0000001000+00001753+00000+0001T   00001753+0000000919          1400 AS8112               1AZ
100780000100780               100780               170213CI     1400+00000+CI0000005297+0000005297+000000000+000000742+0000006030+0000000009+I20000000000+0000006030+Z
100780001100780366-002195     100780006001023990549DRESS UP WINGS FEATHER 0000001000+00005262+00000+0001T   00005262+0000000927          1400 AS8131               1AZ
100780002100780112-116038     100780006009681820246TCS CARRIER BAG MIDI   0000001000+00000035+00000+0001T   00000035+0000000927          1400 AS8090               1AZ
100781000100781               100781               170213CI     1400+00000+CI0000010572+0000010572+000000000+000001481+0000012053+0000000000+I40000012053+0000000000+Z
100781001100781072-020370     100781006003000024193PET FOOD SCOOP LARGE   0000001000+00001753+00000+0001T   00001753+0000000932          1400 AS8870               1AZ
100781002100781072-020242     100781006003000053728PET BED COTTON TEXTILE 0000001000+00008771+00000+0001T   00008771+0000000932          1400 AS8870               1AZ
100781003100781112-116069     100781006009681820277TCS CARRIER BAG JUMBO  0000001000+00000048+00000+0001T   00000048+0000000932          1400 AS8090               1AZ
100782000100782               100782               170213CI     1400+00000+CI0000002630+0000002630+000000000+000000369+0000002990+0000000009+I20000000000+0000002990+Z
100782001100782206-000620     100782006003000631797BACK SCRATCHER EXTEND  0000001000+00002630+00000+0001T   00002630+0000000937          1400 AS8321               1AZ
100783000100783               100783               170213CI     1400+00000+CI0000010524+0000010524+000000000+000001474+0000011998+0000000000+I40000011998+0000000000+Z
100783001100783366-002195     100783006001023990549DRESS UP WINGS FEATHER 0000002000+00005262+00000+0001T   00005262+0000000941          1400 AS8131               1AZ
100784000100784               100784               170213CI     1400+00000+CI0000001753+0000001753+000000000+000000246+0000001990+0000000009+I20000000000+0000001990+Z
100784001100784024-000038     100784006001023477026MEASURING-JUG 1L (4CUP)0000001000+00001753+00000+0001T   00001753+0000000942          1400 AS8300               1AZ
100785000100785               100785               170213CI     1400+00000+CI0000004384+0000004384+000000000+000000614+0000004998+0000000000+I40000004998+0000000000+Z
100785001100785567-004965     100785009780636049215SPF G03 AFRIKAANS      0000001000+00002192+00000+0001T   00002192+0000000943          1400 AS8757               1AZ
100785002100785567-004963     100785009780636049031TYB G03 MATHS          0000001000+00002192+00000+0001T   00002192+0000000943          1400 AS8757               1AZ
100786000100786               100786               170213CI     1400+00000+CI0000003769+0000003769+000000000+000000529+0000004298+0000000000+I40000004298+0000000000+Z
100786001100786369-001013     100786006003000500451BABY BATH VINYL DUCK   0000001000+00002630+00000+0001T   00002630+0000001029          1400 AS8745               1AZ
100786002100786466-000517     100786006001023752017BALL TENNIS RED CRICKET0000001000+00001139+00000+0001T   00001139+0000001029          1400 AS8785               1AZ
100787000100787               100787               170213CI     1400+00000+CI0000010959+0000010959+000000000+000001536+0000012495+0000000000+I40000012495+0000000000+Z
100787001100787079-013102     100787006003000019601ART+CRAFT DIY PIPE-CLNR0000001000+00002192+00000+0001T   00002192+0000001030          1400 AS8130               1AZ
100787002100787563-000317-H   100787006001023776358SERVIETTE DOTS+STRIPES 0000002000+00002630+00000+0001T   00002630+0000001030          1400 AS8214               1AZ
100787003100787566-000997     100787006001023554086STICKERS TATTOOS BOOK  0000001000+00003507+00000+0001T   00003507+0000001030          1400 AS8130               1AZ
100788000100788               100788               170213CI     1400+00000+CI0000001753+0000001753+000000000+000000246+0000001990+0000000009+I20000000000+0000001990+Z
100788001100788200-000305     100788006003000622467FOOD OVEN ROASTING BAGS0000001000+00001753+00000+0001T   00002630+0008171034          1400 AS8214               1AZ
100789000100789               100789               170213CI     1400+00000+CI0000002453+0000002453+000000000+000000344+0000002797+0000000000+I40000002797+0000000000+Z
100789001100789006-000800     100789006001023902801HAT CABARET 14x18cm    0000001000+00001753+00000+0001T   00001753+0000001100          1400 AS8131               1AZ
100789002100789566-002000     100789000721129013206STICKERS CRYSTAL ASSTD 0000001000+00000700+00000+0001T   00000700+0000001100          1400 AS8130               1AZ
100790000100790               100790               170213CI     1400+00000+CI0000001753+0000001753+000000000+000000246+0000001990+0000000009+I20000000000+0000001990+Z
100790001100790051-002402     100790006001023518347TRIGGER-SPRAYER  500ml 0000001000+00001753+00000+0001T   00001753+0000001101          1400 AS8820               1AZ
100791000100791               100791               170213CI     1400+00000+CI0000002279+0000002279+000000000+000000320+0000002590+0000000009+I20000000000+0000002590+Z
100791001100791027-000194     100791006001246602472MOP COMPLETE           0000001000+00002279+00000+0001T   00002279+0000001104          1400 AS8212               1AZ
100792000100792               100792               170213CI     1400+00000+CI0000001753+0000001753+000000000+000000246+0000001990+0000000009+I20000000000+0000001990+Z
100792001100792106-007125     100792006003000057689MILK-SACHET-JUG 1,0L   0000001000+00001753+00000+0001T   00001753+0000001106          1400 AS8210               1AZ
100793000100793               100793               170213CI     1400+00000+CI0000008379+0000008379+000000000+000001174+0000009550+0000000003+I20000000000+0000009550+Z
100793001100793368-000151     100793006003000166725PLUSH BEAR 14cm        0000001000+00004385+00000+0001T   00004385+0000001109          1400 AS8745               1AZ
100793002100793368-000152     100793006003000166886PLUSH BEAR 15cm        0000001000+00003946+00000+0001T   00005262+0008141109          1400 AS8745               1AZ
100793003100793112-116069     100793006009681820277TCS CARRIER BAG JUMBO  0000001000+00000048+00000+0001T   00000048+0000001109          1400 AS8090               1AZ
100794000100794               100794               170213CI     1400+00000+CI0000005734+0000005734+000000000+000000803+0000006530+0000000007+I20000000000+0000006530+Z
100794001100794056-005719     100794006001023820983CAR AIR-FRESHENER ASSTD0000001000+00002192+00000+0001T   00002192+0000001111          1400 AS8860               1AZ
100794002100794036-000020     100794006001023666512LINT-REMOVER B/O SMALL 0000001000+00003507+00000+0001T   00003507+0000001111          1400 AS8212               1AZ
100794003100794112-116038     100794006009681820246TCS CARRIER BAG MIDI   0000001000+00000035+00000+0001T   00000035+0000001111          1400 AS8090               1AZ
100795000100795               100795               170213CI     1400+00000+CI0000001753+0000001753+000000000+000000246+0000001990+0000000009+I20000000000+0000001990+Z
100795001100795007-000723     100795006003000226078MEMO BOOK W/PEN 100SHTS0000001000+00001753+00000+0001T   00001753+0000001113          1400 AS8130               1AZ
100796000100796               100796               170213CI     1400+00000+CI0000002630+0000002630+000000000+000000369+0000002990+0000000009+I20000000000+0000002990+Z
100796001100796466-000515     100796006001023477408BALLS TENNIS BAG-OF-3  0000001000+00002630+00000+0001T   00002630+0000001113          1400 AS8785               1AZ
100797000100797               100797               170213CI     1400+00000+CI0000005307+0000005307+000000000+000000745+0000006050+0000000002+I20000000000+0000006050+Z
100797001100797142-000814     100797006001023183910GLOVES RUBBER  MEDIUM  0000001000+00001753+00000+0001T   00001753+0000001123          1400 AS8810               1AZ
100797002100797080-000112     100797006003000252749CARD&ENVLP BDAY-MUSICAL0000001000+00001753+00000+0001T   00001753+0000001123          1400 AS8112               1AZ
100797003100797200-003024     100797006001023657299REFUSE BAGS 20PCE BLACK0000001000+00001753+00000+0001T   00001753+0000001123          1400 AS8214               1AZ
100797004100797112-116069     100797006009681820277TCS CARRIER BAG JUMBO  0000001000+00000048+00000+0001T   00000048+0000001123          1400 AS8090               1AZ
100798000100798               100798               170213CI     1400+00000+CI0000003944+0000003944+000000000+000000553+0000004497+0000000000+I40000004497+0000000000+Z
100798001100798077-000310     100798006001023608635GIFT-BAG 18X23CM GLOSS 0000001000+00001314+00000+0001T   00001314+0000001125          1400 AS8112               1AZ
100798002100798077-000005-B   100798006003000326617PAPER TISSUE PATTERN   0000001000+00002630+00000+0001T   00002630+0000001125          1400 AS8112               1AZ
100799000100799               100799               170213CI     1400+00000+CI0000005308+0000005308+000000000+000000745+0000006050+0000000003+I20000000000+0000006050+Z
100799001100799072-020358     100799006001023748119DOG-BOWL BONE-SHAPED   0000001000+00002630+00000+0001T   00002630+0000001126          1400 AS8870               1AZ
100799002100799072-020351     100799006001023598059DOG/CAT BOWL PL 16cm   0000001000+00002630+00000+0001T   00002630+0000001126          1400 AS8870               1AZ
100799003100799112-116069     100799006009681820277TCS CARRIER BAG JUMBO  0000001000+00000048+00000+0001T   00000048+0000001126          1400 AS8090               1AZ
100800000100800               100800               170213CI     1400+00000+CI0000001753+0000001753+000000000+000000246+0000001990+0000000009+I20000000000+0000001990+Z
100800001100800306-000498     100800006003000519392TOOTHBRUSH 3PC ASTD    0000001000+00001753+00000+0001T   00001753+0000001127          1400 AS8200               1AZ
100801000100801               100801               170213CI     1400+00000+CI0000010568+0000010568+000000000+000001481+0000012049+0000000000+I40000012049+0000000000+Z
100801001100801079-009702-D   100801008427973059354PAPER SIRIO A2 RED COL 0000001000+00001051+00000+0001T   00001051+0000001128          1400 AS8130               1AZ
100801002100801566-002000     100801000721129013206STICKERS CRYSTAL ASSTD 0000001000+00000700+00000+0001T   00000700+0000001128          1400 AS8130               1AZ
100801003100801362-002467     100801006003000167623HAIR EXT LONG 61cm     0000001000+00003507+00000+0001T   00003507+0000001128          1400 AS8160               1AZ
100801004100801366-002195     100801006001023990549DRESS UP WINGS FEATHER 0000001000+00005262+00000+0001T   00005262+0000001128          1400 AS8131               1AZ
100801005100801112-116069     100801006009681820277TCS CARRIER BAG JUMBO  0000001000+00000048+00000+0001T   00000048+0000001128          1400 AS8090               1AZ
100802000100802               100802               170213CI     1400+00000+CI0000001314+0000001314+000000000+000000184+0000001490+0000000008+I20000000000+0000001490+Z
100802001100802006-000167-E   100802006003000517213BALLOONS GOLD METALLIC 0000001000+00001314+00000+0001T   00001314+0000001129          1400 AS8131               1AZ
100803000100803               100803               170213CI     1400+00000+CI0000002764+0000002764+000000000+000000388+0000003152+0000000000+I40000003152+0000000000+Z
100803001100803107-002100     100803006002638001354BASIN PL 36cm          0000001000+00001402+00000+0001T   00001402+0000001138          1400 AS8210               1AZ
100803002100803107-004105     100803006002923010504BUCKET 9L OPEN         0000001000+00001314+00000+0001T   00001314+0000001138          1400 AS8210               1AZ
100803003100803112-116069     100803006009681820277TCS CARRIER BAG JUMBO  0000001000+00000048+00000+0001T   00000048+0000001138          1400 AS8090               1AZ
100804000100804               100804               170213CI     1400+00000+CI0000003156+0000003156+000000000+000000442+0000003590+0000000008+I20000000000+0000003590+Z
100804001100804077-000303     100804006001023593757GIFT-BAG PAPER MED     0000001000+00001578+00000+0001T   00001578+0000001142          1400 AS8112               1AZ
100804002100804018-000127     100804006001023380289MUG OCC STRAIGHT LOVE  0000001000+00001578+00000+0001T   00001753+0006471142          1400 AS8515               1AZ
100805000100805               100805               170213CI     1400+00000+CI0000003507+0000003507+000000000+000000491+0000003990+0000000008+I20000000000+0000003990+Z
100805001100805033-000778     100805006001023905123COSMETIC GIFT SET 7PC  0000001000+00003507+00000+0001T   00004385+0008151142          1400 AS8200               1AZ
100806000100806               100806               170213CI     1400+00000+CI0000004384+0000004384+000000000+000000614+0000004990+0000000008+I20000000000+0000004990+Z
100806001100806080-000127     100806006003000424351VALENTINES DAY 36x24CM 0000002000+00002192+00000+0001T   00002192+0000001144          1400 AS8112               1AZ
100807000100807               100807               170213CI     1400+00000+CI0000005347+0000005347+000000000+000000750+0000006090+0000000007+I20000000000+0000006090+Z
100807001100807027-009005     100807006001023713124D/BRUSH W/TOP BRISTLES 0000001000+00002630+00000+0001T   00002630+0000001145          1400 AS8212               1AZ
100807002100807133-000030     100807006001023755414KITCHEN-SWAB 30cm ASSTD0000001000+00001227+00000+0001T   00001227+0000001145          1400 AS8212               1AZ
100807003100807036-000605     100807006001023158611WASHING-PEGS WDN PCK-240000001000+00001490+00000+0001T   00001490+0000001145          1400 AS8212               1AZ
100808000100808               100808               170213CI     1400+00000+CI0000007049+0000007049+000000000+000000987+0000008030+0000000006+I20000000000+0000008030+Z
100808001100808018-000136     100808006001023659026MUG OCC LOVE W/PLUSH   0000002000+00003507+00000+0001T   00003507+0000001147          1400 AS8515               1AZ
100808002100808112-116038     100808006009681820246TCS CARRIER BAG MIDI   0000001000+00000035+00000+0001T   00000035+0000001147          1400 AS8090               1AZ
100809000100809               100809               170213CI     1400+00000+CI0000002192+0000002192+000000000+000000307+0000002490+0000000009+I20000000000+0000002490+Z
100809001100809028-085274     100809006001023641571BBQ LIGHTER         H&L0000001000+00002192+00000+0001T   00002192+0000001147          1400 AS8305               1AZ
100810000100810               100810               170213CI     1400+00000+CI0000000035+0000000035+000000000+000000005+0000000040+0000000000+I20000000000+0000000040+Z
100810001100810112-116038     100810006009681820246TCS CARRIER BAG MIDI   0000001000+00000035+00000+0001T   00000035+0000001148          1400 AS8090               1AZ
100811000100811               100811               170213CI     1400+00000+CI0000004857+0000004857+000000000+000000681+0000005530+0000000008+I20000000000+0000005530+Z
100811001100811306-001621     100811006001023554475INNER SOLES 1 PAIR     0000001000+00002192+00000+0001T   00002192+0000001149          1400 AS8200               1AZ
100811002100811306-000977     100811006003000559596FIRSTAID PLASTER 75PC  0000001000+00002630+00000+0001T   00002630+0000001149          1400 AS8200               1AZ
100811003100811112-116038     100811006009681820246TCS CARRIER BAG MIDI   0000001000+00000035+00000+0001T   00000035+0000001149          1400 AS8090               1AZ
100812000100812               100812               170213CI     1400+00000+CI0000004822+0000004822+000000000+000000676+0000005498+0000000000+I40000005498+0000000000+Z
100812001100812566-000991     100812000721129013121STICKERS GLOW-IN-DARK  0000001000+00002192+00000+0001T   00002192+0000001158          1400 AS8130               1AZ
100812002100812368-000040     100812006003000671786PLUSH ICONS 7.5cm      0000001000+00002630+00000+0001T   00002630+0000001158          1400 AS8745               1AZ
100813000100813               100813               170213CI     1400+00000+CI0000014930+0000014930+000000000+000002099+0000017029+0000000000+I40000017029+0000000000+Z
100813001100813903-002851     100813000000087108538MENTOS ROLL STRAWBERRY 0000003000+00001051+00000+0001T   00001051+0000001200          1400 AS8150               1AZ
100813002100813080-000133-A   100813006003000647019MINI VALENTINES CARD   0000003000+00000437+00000+0001T   00000437+0000001200          1400 AS8112               1AZ
100813003100813071-003040     100813006003000543342PEN CLUTCH+LEAD 5pce   0000001000+00001753+00000+0001T   00001753+0000001200          1400 AS8130               1AZ
100813004100813077-000010-C   100813006001023123879CREPE-PAPER RED        0000001000+00000788+00000+0001T   00000788+0000001200          1400 AS8112               1AZ
100813005100813079-000201     100813006003000161430P/CRAYONS THERAPY 10PCE0000003000+00002630+00000+0001T   00002630+0000001200          1400 AS8130               1AZ
100813006100813112-116038     100813006009681820246TCS CARRIER BAG MIDI   0000001000+00000035+00000+0001T   00000035+0000001200          1400 AS8090               1AZ
100814000100814               100814               170213CI     1400+00000+CI0000015788+0000015788+000000000+000002211+0000017999+0000000000+I40000017999+0000000000+Z
100814001100814560-000779     100814006001023492760ANIMAL FARM P/SET 45PC 0000001000+00015788+00000+0001T   00015788+0000001201          1400 AS8745               1AZ
100815000100815               100815               170213CI     1400+00000+CI0000004910+0000004910+000000000+000000688+0000005598+0000000000+I40000005598+0000000000+Z
100815001100815562-000009     100815000490810407180PLAY MODELLING CARDED  0000002000+00002455+00000+0001T   00002455+0000001203          1400 AS8755               1AZ
100816000100816               100816               170213CI     1400+00000+CI0000003506+0000003506+000000000+000000492+0000003998+0000000000+I40000003998+0000000000+Z
100816001100816036-000063     100816006009654960436COATHANGERS VIRGIN 5PCE0000002000+00001753+00000+0001T   00001753+0000001205          1400 AS8212               1AZ
100817000100817               100817               170213CI     1400+00000+CI0000000876+0000000876+000000000+000000123+0000000990+0000000009+I20000000000+0000000990+Z
100817001100817078-000025     100817008887013700064SUPERGLUE 3g 1PCE CARD 0000001000+00000876+00000+0001T   00000876+0000001222          1400 AS8810               1AZ
100818000100818               100818               170213CI     1400+00000+CI0000013157-0000013157-000000000+000001842-0000015000-0000000001+I20000000000+0000015000-Z
100818001100818467-096020     100818006001023679024BOOGIE-BOARD 66cm ASSTD0000001000-00013157+00000+0001T   00013157+0000001243          1400 AS87852IC            1 Z
100819000100819               100819               170213CI     1400+00000+CI0000003506+0000003506+000000000+000000492+0000003990+0000000008+I20000000000+0000003990+Z
100819001100819565-000002     100819006003000308071NOVELTY GROWING ANIMALS0000001000+00001753+00000+0001T   00001753+0000001243          1400 AS8745               1AZ
100819002100819080-000107     100819006003000237081CARD&ENVELPE BDAY BOY  0000001000+00001753+00000+0001T   00001753+0000001243          1400 AS8112               1AZ
100820000100820               100820               170213CI     1400+00000+CI0000002366+0000002366+000000000+000000332+0000002690+0000000008+I20000000000+0000002690+Z
100820001100820903-000897     100820008692806325207SWT CHOC DBL MINI ROLL 0000001000+00000876+00000+0001T   00000876+0000001244          1400 AS8150               1AZ
100820002100820077-000299     100820006003000395576G/BAG 32x25cm LRG LOVE 0000001000+00001490+00000+0001T   00001490+0000001244          1400 AS8112               1AZ
100821000100821               100821               170213CI     1400+00000+CI0000002015+0000002015+000000000+000000283+0000002290+0000000008+I20000000000+0000002290+Z
100821001100821903-000087     100821006001704000161SWT SPECKLED-EGGS 50G  0000001000+00001139+00000+0001T   00001139+0000001245          1400 AS8150               1AZ
100821002100821903-000481     100821006001704007481SWT MOO MILK-SHAKES 60G0000001000+00000876+00000+0001T   00000876+0000001245          1400 AS8150               1AZ
100822000100822               100822               170213CI     1400+00000+CI0000019250+0000019250+000000000+000002699+0000021940+0000000009+I20000000000+0000021940+Z
100822001100822036-000610     100822006001023627230WASHING-PEGS PL PACK-240000001000+00001753+00000+0001T   00001753+0000001250          1400 AS8212               1AZ
100822002100822032-000333     100822006003000220236MIRROR WALL 4PC SET    0000001000+00003946+00000+0001T   00003946+0000001250          1400 AS8510               1AZ
100822003100822159-000117     100822006003000450398SHOWER CAP PVC ASSTD   0000001000+00002630+00000+0001T   00002630+0000001250          1400 AS8200               1AZ
100822004100822071-000672     100822006003000138975STATIONERY CLIPS PAPER 0000001000+00002192+00000+0001T   00002192+0000001250          1400 AS8130               1AZ
100822005100822903-000138     100822006002099004314SWT GS WINE GUMS 60G   0000001000+00000788+00000+0001T   00000788+0000001250          1400 AS8150               1AZ
100822006100822112-116069     100822006009681820277TCS CARRIER BAG JUMBO  0000001000+00000048+00000+0001T   00000048+0000001250          1400 AS8090               1AZ
100822007100822301-085007     100822006003000673698ORN OCC. LOVE S/PLAQUE 0000001000+00007893+00000+0001T   00007893+0000001250          1400 AS8505               1AZ
100823000100823               100823               170213CI     1400+00000+CI0000006138+0000006138+000000000+000000860+0000006990+0000000008+I20000000000+0000006990+Z
100823001100823024-007001     100823006002580007688CAKE/BISCUIT-SERVER    0000002000+00003069+00000+0001T   00003069+0000001251          1400 AS8300               1AZ
100824000100824               100824               170213CI     1400+00000+CI0000015786+0000015786+000000000+000002211+0000017997+0000000000+I40000017997+0000000000+Z
100824001100824304-001119     100824006001023804426FLOWER DAISY BUSH ASST 0000002000+00005262+00000+0001T   00005262+0000001301          1400 AS8510               1AZ
100824002100824304-001115     100824006001023738240FLOWER-BUNCH CARNATIONS0000001000+00005262+00000+0001T   00005262+0000001301          1400 AS8510               1AZ
100825000100825               100825               170213CI     1400+00000+CI0000000048+0000000048+000000000+000000007+0000000050+0000000005+I20000000000+0000000050+Z
100825001100825112-116069     100825006009681820277TCS CARRIER BAG JUMBO  0000001000+00000048+00000+0001T   00000048+0000001301          1400 AS8090               1AZ
100826000100826               100826               170213CI     1400+00000+CI0000000788+0000000788+000000000+000000111+0000000890+0000000009+I20000000000+0000000890+Z
100826001100826903-000200     100826006009826020234SWT CHOC RP CHOCO 23G  0000001000+00000788+00000+0001T   00000788+0000001404          1400 AS8150               1AZ
100827000100827               100827               170213CI     1400+00000+CI0000001227+0000001227+000000000+000000172+0000001390+0000000009+I20000000000+0000001390+Z
100827001100827251-000040     100827006001023515865SEALTAPE CLEAR 48mmx50m0000001000+00001227+00000+0001T   00001227+0000001405          1400 AS8810               1AZ
100828000100828               100828               170213CI     1400+00000+CI0000043754+0000043754+000000000+000006130+0000049884+0000000000+I10000024884+0000025000+Z
100828001100828012-000024     100828006003000580897MICROWAVE HOT PLATE    0000003000+00004385+00000+0001T   00004385+0000001455          1400 AS8300               1AZ
100828002100828071-001102     100828006003000274598MARKER PERM MED 2PCE   0000001000+00001753+00000+0001T   00001753+0000001455          1400 AS8130               1AZ
100828003100828076-000018     100828006001023777836TWINE NYLON 50g 4PCE   0000001000+00003507+00000+0001T   00003507+0000001455          1400 AS8810               1AZ
100828004100828251-000012     100828006001023597915TAPE DUCT GREY 48mmx5m 0000001000+00002630+00000+0001T   00002630+0000001455          1400 AS8810               1AZ
100828005100828251-000003     100828006003000266159TAPE D/S 18x300mm V/PCK0000001000+00002630+00000+0001T   00002630+0000001455          1400 AS8810               1AZ
100828006100828565-004101     100828006003000548033BALL BOUNCING EGG      0000001000+00001490+00000+0001T   00001490+0000001455          1400 AS8745               1AZ
100828007100828105-001033     100828000700371696641CONTAINER FOODSAVER 1.60000001000+00002192+00000+0001T   00002192+0000001455          1400 AS8210               1AZ
100828008100828051-500102     100828006003000399567GARDEN KIDS RAKE ASSTD 0000001000+00004385+00000+0001T   00004385+0000001455          1400 AS8820               1AZ
100828009100828158-000022     100828006003000568741PLATE STAND CHROME     0000001000+00004385+00000+0001T   00004385+0000001455          1400 AS8300               1AZ
100828010100828089-000141-H   100828006001023416568KEY-CHAINS 6PCE     H&H0000001000+00001490+00000+0001T   00001490+0000001455          1400 AS8205               1AZ
100828011100828054-009026     100828006001023627735PAINT-BRUSH ASSTD      0000001000+00003507+00000+0001T   00003507+0000001455          1400 AS8810               1AZ
100828012100828463-000366     100828006001023789136SWIM W/NOODLE 150cm    0000001000+00002630+00000+0001T   00002630+0000001455          1400 AS8785               1AZ
100829000100829               100829               170213CI     1400+00000+CI0000001753+0000001753+000000000+000000246+0000001990+0000000009+I20000000000+0000001990+Z
100829001100829200-003024     100829006001023657299REFUSE BAGS 20PCE BLACK0000001000+00001753+00000+0001T   00001753+0000001455          1400 AS8214               1AZ
100830000100830               100830               170213CI     1400+00000+CI0000008676+0000008676+000000000+000001217+0000009890+0000000003+I20000000000+0000009890+Z
100830001100830301-085002     100830006003000420704ORN OCC. LOVE BELL ASST0000001000+00001753+00000+0001T   00002630+0008121456          1400 AS8505               1AZ
100830002100830565-000043     100830006003000109562NOVELTY BALL FUNNY FACE0000001000+00001753+00000+0001T   00001753+0000001456          1400 AS8745               1AZ
100830003100830565-000040     100830006008766115635NOVELTY ICON BEANIE    0000001000+00002630+00000+0001T   00002630+0000001456          1400 AS8745               1AZ
100830004100830007-000555     100830006001023848239MEMO-PAD MINI LOVE     0000002000+00000613+00000+0001T   00000613+0000001456          1400 AS8130               1AZ
100830005100830030-000010     100830006003000084395P/DOOR HANGER 2-ASSTD  0000001000+00001314+00000+0001T   00001490+0008181456          1400 AS8505               1AZ
100831000100831               100831               170213CI     1400+00000+CI0000002630+0000002630+000000000+000000369+0000002999+0000000000+I40000002999+0000000000+Z
100831001100831565-000040     100831006008766115635NOVELTY ICON BEANIE    0000001000+00002630+00000+0001T   00002630+0000001457          1400 AS8745               1AZ
100832000100832               100832               170213CI     1400+00000+CI0000001748+0000001748+000000000+000000248+0000001990+0000000006+I20000000000+0000001990+Z
100832001100832080-000133-A   100832006003000647019MINI VALENTINES CARD   0000003000+00000437+00000+0001T   00000437+0000001457          1400 AS8112               1AZ
100832002100832080-000133     100832006003000535613CARD&ENV MINI ASTD DSGN0000001000+00000437+00000+0001T   00000437+0000001457          1400 AS8112               1AZ
100833000100833               100833               170213CI     1400+00000+CI0000011399+0000011399+000000000+000001597+0000012996+0000000000+I40000012996+0000000000+Z
100833001100833077-000926     100833006003000414178G/WRAP 700mmx2m LOVE   0000001000+00002192+00000+0001T   00002192+0000001459          1400 AS8112               1AZ
100833002100833563-000318-L   100833006003000407088SERVIETTES 33cm RED    0000001000+00002192+00000+0001T   00002192+0000001459          1400 AS8214               1AZ
100833003100833046-002025-PK2 100833004897006174868BATTERIES CR-2025  2PCE0000001000+00001753+00000+0001T   00001753+0000001459          1400 AS8312               1AZ
100833004100833018-019000     100833006003000557288MUG OCC. LOVE JUMBO    0000001000+00005262+00000+0001T   00005262+0000001459          1400 AS8515               1AZ
100834000100834               100834               170213CI     1400+00000+CI0000005262+0000005262+000000000+000000737+0000005990+0000000009+I20000000000+0000005990+Z
100834001100834303-000806     100834006001023409768COW-BELL BRASS(5BELLS) 0000001000+00005262+00000+0001T   00005262+0000001459          1400 AS8510               1AZ
100835000100835               100835               170213CI     1400+00000+CI0000002665+0000002665+000000000+000000374+0000003030+0000000009+I20000000000+0000003030+Z
100835001100835560-000202     100835006003000322008SNAKE PVC ASSTD        0000001000+00002630+00000+0001T   00002630+0000001500          1400 AS8745               1AZ
100835002100835112-116038     100835006009681820246TCS CARRIER BAG MIDI   0000001000+00000035+00000+0001T   00000035+0000001500          1400 AS8090               1AZ
100836000100836               100836               170213CI     1400+00000+CI0000003116+0000003116+000000000+000000437+0000003553+0000000000+I40000003553+0000000000+Z
100836001100836018-000127     100836006001023380289MUG OCC STRAIGHT LOVE  0000001000+00001578+00000+0001T   00001753+0006471502          1400 AS8515               1AZ
100836002100836077-000299     100836006003000395576G/BAG 32x25cm LRG LOVE 0000001000+00001490+00000+0001T   00001490+0000001502          1400 AS8112               1AZ
100836003100836112-116069     100836006009681820277TCS CARRIER BAG JUMBO  0000001000+00000048+00000+0001T   00000048+0000001502          1400 AS8090               1AZ
100837000100837               100837               170213CI     1400+00000+CI0000001753+0000001753+000000000+000000246+0000001990+0000000009+I20000000000+0000001990+Z
100837001100837159-000677     100837006001023729729BATH SPONGE RND 11CM   0000001000+00001753+00000+0001T   00001753+0000001503          1400 AS8200               1AZ
100838000100838               100838               170213CI     1400+00000+CI0000000613+0000000613+000000000+000000086+0000000690+0000000009+I20000000000+0000000690+Z
100838001100838077-000321     100838006001023677501GIFT-BAG 11X14CM E/D FL0000001000+00000613+00000+0001T   00000613+0000001505          1400 AS8112               1AZ
100839000100839               100839               170213CI     1400+00000+CI0000004433+0000004433+000000000+000000621+0000005050+0000000004+I20000000000+0000005050+Z
100839001100839105-008002     100839006002923015905CONTAINER FOODSAVER 8L 0000001000+00004385+00000+0001T   00004385+0000001526          1400 AS8210               1AZ
100839002100839112-116069     100839006009681820277TCS CARRIER BAG JUMBO  0000001000+00000048+00000+0001T   00000048+0000001526          1400 AS8090               1AZ
100840000100840               100840               170213CI     1400+00000+CI0000004420+0000004420+000000000+000000619+0000005030+0000000009+I20000000000+0000005030+Z
100840001100840001-000175     100840006001023788108B/MUG GLS LOVE 380ML   0000001000+00004385+00000+0001T   00004385+0000001527          1400 AS8515               1AZ
100840002100840112-116038     100840006009681820246TCS CARRIER BAG MIDI   0000001000+00000035+00000+0001T   00000035+0000001527          1400 AS8090               1AZ
100841000100841               100841               170213CI     1400+00000+CI0000009031+0000009031+000000000+000001265+0000010290+0000000006+I20000000000+0000010290+Z
100841001100841039-000322     100841006001023524157B/CANDLES W/HOLDERS 24 0000001000+00001139+00000+0001T   00001139+0000001528          1400 AS8510               1AZ
100841002100841056-335431     100841006001023571267CHAMOIS SYNTHETIC W/BOX0000001000+00003507+00000+0001T   00003507+0000001528          1400 AS8860               1AZ
100841003100841004-071270     100841006001023802156CD-DISCS WRITABLE 10PCE0000001000+00004385+00000+0001T   00004385+0000001528          1400 AS8310               1AZ
100842000100842               100842               170213CI     1400+00000+CI0000013155+0000013155+000000000+000001842+0000014997+0000000000+I40000014997+0000000000+Z
100842001100842203-007002     100842006003000456314WINE BOTTLE HOLDER     0000001000+00008771+00000+0001T   00008771+0000001531          1400 AS8300               1AZ
100842002100842077-000914     100842006003000413454G/WRAP 700mmx2m ANIMAL 0000002000+00002192+00000+0001T   00002192+0000001531          1400 AS8112               1AZ
100843000100843               100843               170213CI     1400+00000+CI0000004818+0000004818+000000000+000000676+0000005490+0000000004+I20000000000+0000005490+Z
100843001100843079-009702-E   100843008427973059439PAPER SIRIO A2 BLUE    0000001000+00001051+00000+0001T   00001051+0000001532          1400 AS8130               1AZ
100843002100843046-000014     100843006001023725387BATTERIES SIZE:AAA 4PCE0000001000+00001139+00000+0001T   00001139+0000001532          1400 AS8312               1AZ
100843003100843046-000012     100843006904708013062BATTERIES AA  CARD-OF-40000002000+00001314+00000+0001T   00001314+0000001532          1400 AS8312               1AZ
100844000100844               100844               170213CI     1400+00000+CI0000001753+0000001753+000000000+000000246+0000001990+0000000009+I20000000000+0000001990+Z
100844001100844080-000113     100844006003000237449CARD&ENVLPE - LOVE     0000001000+00001753+00000+0001T   00001753+0000001534          1400 AS8112               1AZ
100845000100845               100845               170213CI     1400+00000+CI0000005260+0000005260+000000000+000000737+0000005990+0000000007+I20000000000+0000005990+Z
100845001100845034-079078     100845006001023996565COOEY BABY MANICURE-SET0000001000+00003507+00000+0001T   00003507+0000001547          1400 AS8215               1AZ
100845002100845080-000106     100845006003000237098CARD&ENVLPE BDAY GIRL  0000001000+00001753+00000+0001T   00001753+0000001547          1400 AS8112               1AZ
100846000100846               100846               170213CI     1400+00000+CI0000034240+0000034240+000000000+000004798+0000039038+0000000000+I40000039038+0000000000+Z
100846001100846562-000011     100846006003000600984PLAY DOUGH NEON TUBE   0000004000+00003507+00000+0001T   00003507+0000001550          1400 AS8755               1AZ
100846002100846562-000020     100846006003000600861EDU PLAY DOUGH 60g 4PC 0000002000+00003507+00000+0001T   00003507+0000001550          1400 AS8755               1AZ
100846003100846562-000010     100846006001023762528KID'S PLAY DOUGH       0000005000+00002630+00000+0001T   00002630+0000001550          1400 AS8755               1AZ
100846004100846112-116069     100846006009681820277TCS CARRIER BAG JUMBO  0000001000+00000048+00000+0001T   00000048+0000001550          1400 AS8090               1AZ
100847000100847               100847               170213CI     1400+00000+CI0000003507+0000003507+000000000+000000491+0000003990+0000000008+I20000000000+0000003990+Z
100847001100847031-000902-A   100847006001023726254P/FRAME WDN OAK 6X9CM  0000001000+00003507+00000+0001T   00003507+0000001550          1400 AS8510               1AZ
100848000100848               100848               170213CI     1400+00000+CI0000002630+0000002630+000000000+000000369+0000002990+0000000009+I20000000000+0000002990+Z
100848001100848466-000515     100848006001023477408BALLS TENNIS BAG-OF-3  0000001000+00002630+00000+0001T   00002630+0000001552          1400 AS8785               1AZ
100849000100849               100849               170213CI     1400+00000+CI0000001752+0000001752+000000000+000000246+0000001990+0000000008+I20000000000+0000001990+Z
100849001100849077-000314     100849006003000181148GIFT-BAG 11X14CM MATT  0000001000+00000876+00000+0001T   00000876+0000001557          1400 AS8112               1AZ
100849003100849077-000011-C   100849006001023808523TISSUE 10xSHTS RED     0000001000+00000876+00000+0001T   00000876+0000001557          1400 AS8112               1AZ
100850000100850               100850               170213CI     1400+00000+CI0000000877-0000000877-000000000+000000122-0000001000-0000000001+I20000000000+0000001000-Z
100850001100850031-000902-A   100850006001023726254P/FRAME WDN OAK 6X9CM  0000001000-00003507+00000+0001T   00003507+0000001601          1400 AS85101IC            1 Z
100850002100850031-005919     100850006003000580576P/FRAME PL PLAIN 13X18 0000001000+00002630+00000+0001T   00002630+0000001601          1400 AS8510               1 Z
100851000100851               100851               170213CI     1400+00000+CI0000002630+0000002630+000000000+000000369+0000002990+0000000009+I20000000000+0000002990+Z
100851001100851159-000684     100851006001023776532BATH BODY-GLOVE 18cm   0000001000+00002630+00000+0001T   00002630+0000001604          1400 AS8200               1AZ
100852000100852               100852               170213CI     1400+00000+CI0000014956+0000014956+000000000+000002095+0000017050+0000000001+I20000000000+0000017050+Z
100852001100852368-000614     100852006001023705808PLUSH LOVE 30cm        0000001000+00008771+00000+0001T   00008771+0000001614          1400 AS8745               1AZ
100852002100852079-000282     100852006001023493309PAINT TUBS POSTER 12COL0000001000+00002630+00000+0001T   00002630+0000001614          1400 AS8130               1AZ
100852003100852567-011356     100852006003000638321BK STICKER&ACTIVITY FUN0000001000+00003507+00000+0001T   00003507+0000001614          1400 AS8757               1AZ
100852004100852112-116069     100852006009681820277TCS CARRIER BAG JUMBO  0000001000+00000048+00000+0001T   00000048+0000001614          1400 AS8090               1AZ
100853000100853               100853               170213CI     1400+00000+CI0000012922+0000012922+000000000+000001811+0000014733+0000000000+I40000014733+0000000000+Z
100853001100853016-006509     100853006003000567355S/JAR GLS MINI LABEL   0000001000+00001753+00000+0001T   00002192+0008191619          1400 AS8300               1AZ
100853002100853267-000410     100853005011874004624PUZZLE 4-IN-1 MINI ASST0000001000+00007016+00000+0001T   00007016+0000001619          1400 AS8755               1AZ
100853003100853903-000095     100853006001704011495SWT SPECKLED-EGGS 100G 0000001000+00002104+00000+0001T   00002104+0000001619          1400 AS8150               1AZ
100853004100853006-000166-C   100853006003000516377BALLOONS LRG 6PC PINK  0000001000+00001314+00000+0001T   00001314+0000001619          1400 AS8131               1AZ
100853005100853112-116038     100853006009681820246TCS CARRIER BAG MIDI   0000001000+00000035+00000+0001T   00000035+0000001619          1400 AS8090               1AZ
100853006100853564-000012     100853006001023130075BUBBLE BOTTLE MAGIC    0000001000+00000700+00000+0001T   00000700+0000001619          1400 AS8131               1AZ
100854000100854               100854               170213CI     1400+00000+CI0000005120+0000005120+000000000+000000717+0000005830+0000000007+I20000000000+0000005830+Z
100854001100854018-000136     100854006001023659026MUG OCC LOVE W/PLUSH   0000001000+00003507+00000+0001T   00003507+0000001621          1400 AS8515               1AZ
100854002100854077-000303     100854006001023593757GIFT-BAG PAPER MED     0000001000+00001578+00000+0001T   00001578+0000001621          1400 AS8112               1AZ
100854003100854112-116038     100854006009681820246TCS CARRIER BAG MIDI   0000001000+00000035+00000+0001T   00000035+0000001621          1400 AS8090               1AZ
100855000100855               100855               170213CI     1400+00000+CI0000005656+0000005656+000000000+000000795+0000006451+0000000000+I40000006451+0000000000+Z
100855001100855304-001204     100855006001023737984FLOWER OCC. TEDDY/ROSES0000004000+00001402+00000+0001T   00001490+0006471623          1400 AS8510               1AZ
100855002100855112-116069     100855006009681820277TCS CARRIER BAG JUMBO  0000001000+00000048+00000+0001T   00000048+0000001623          1400 AS8090               1AZ
100856000100856               100856               170213CI     1400+00000+CI0000015639+0000015639+000000000+000002193+0000017830+0000000002+I20000000000+0000017830+Z
100856001100856563-000318-L   100856006003000407088SERVIETTES 33cm RED    0000004000+00002192+00000+0001T   00002192+0000001627          1400 AS8214               1AZ
100856002100856077-000010-C   100856006001023123879CREPE-PAPER RED        0000002000+00000788+00000+0001T   00000788+0000001627          1400 AS8112               1AZ
100856003100856077-000235     100856006003000160211GIFT-RIBBON ROLL METALC0000002000+00002630+00000+0001T   00002630+0000001627          1400 AS8112               1AZ
100856004100856112-116038     100856006009681820246TCS CARRIER BAG MIDI   0000001000+00000035+00000+0001T   00000035+0000001627          1400 AS8090               1AZ
100857000100857               100857               170213CI     1400+00000+CI0000001753+0000001753+000000000+000000246+0000001999+0000000000+I40000001999+0000000000+Z
100857001100857047-000507     100857006001023684479PLUG-ADAPTOR EURO TWIN 0000001000+00001753+00000+0001T   00001753+0000001632          1400 AS8880               1AZ
100858000100858               100858               170213CI     1400+00000+CI0000018855+0000018855+000000000+000002642+0000021497+0000000000+I40000021497+0000000000+Z
100858001100858368-000637     100858006001023874092PLUSH BEAR SLEEPING LOV0000001000+00011402+00000+0001T   00012279+0006471634          1400 AS8745               1AZ
100858002100858301-085001     100858006003000297610ORN WATERBALL LOVE ASST0000001000+00004823+00000+0001T   00004823+0000001634          1400 AS8505               1AZ
100858003100858077-000270     100858006003000395453GIFT-BAG PPR JMB 33X45 0000001000+00002630+00000+0001T   00002630+0000001634          1400 AS8112               1AZ
100859000100859               100859               170213CI     1400+00000+CI0000001402+0000001402+000000000+000000197+0000001590+0000000009+I20000000000+0000001590+Z
100859001100859304-001204     100859006001023737984FLOWER OCC. TEDDY/ROSES0000001000+00001402+00000+0001T   00001490+0006471635          1400 AS8510               1AZ
100860000100860               100860               170213CI     1400+00000+CI0000017539+0000017539+000000000+000002457+0000019996+0000000000+I40000019996+0000000000+Z
100860001100860004-071270     100860006001023802156CD-DISCS WRITABLE 10PCE0000001000+00004385+00000+0001T   00004385+0000001637          1400 AS8310               1AZ
100860002100860047-000505     100860006009636901976PLUG-ADAPTOR 2-PIN     0000001000+00000876+00000+0001T   00000876+0000001637          1400 AS8880               1AZ
100860003100860007-000890-17  100860006003000645671CALENDAR 2017 ASSTD    0000002000+00006139+00000+0001T   00006139+0000001637          1400 AS8130               1AZ
100861000100861               100861               170213CI     1400+00000+CI0000004385+0000004385+000000000+000000614+0000004990+0000000009+I20000000000+0000004990+Z
100861001100861369-001018     100861006001023712141BATH EVA STICKERS 30PC 0000001000+00004385+00000+0001T   00004385+0000001640          1400 AS8745               1AZ
100862000100862               100862               170213CI     1400+00000+CI0000004592+0000004592+000000000+000000644+0000005230+0000000006+I20000000000+0000005230+Z
100862001100862112-116038     100862006009681820246TCS CARRIER BAG MIDI   0000001000+00000035+00000+0001T   00000035+0000001641          1400 AS8090               1AZ
100862002100862007-000723     100862006003000226078MEMO BOOK W/PEN 100SHTS0000001000+00001753+00000+0001T   00001753+0000001641          1400 AS8130               1AZ
100862003100862007-000209     100862006001023582102NOTE STICKY FILE MARKER0000001000+00001314+00000+0001T   00001314+0000001641          1400 AS8130               1AZ
100862004100862071-009836     100862006001023591067BACK-TO-SCHOOL SET     0000001000+00001490+00000+0001T   00001490+0000001641          1400 AS8130               1AZ
100863000100863               100863               170213CI     1400+00000+CI0000005261+0000005261+000000000+000000737+0000005998+0000000000+I40000005998+0000000000+Z
100863001100863104-000030     100863006001023803481BASKET PL 28x20x12cm   0000001000+00004385+00000+0001T   00004385+0000001649          1400 AS8210               1AZ
100863002100863903-000897     100863008692806325207SWT CHOC DBL MINI ROLL 0000001000+00000876+00000+0001T   00000876+0000001649          1400 AS8150               1AZ
100864000100864               100864               170213CI     1400+00000+CI0000002678+0000002678+000000000+000000376+0000003050+0000000004+I20000000000+0000003050+Z
100864001100864072-020276     100864006001023858474CAT LITTER-PAN PL      0000001000+00002630+00000+0001T   00002630+0000001656          1400 AS8870               1AZ
100864002100864112-116069     100864006009681820277TCS CARRIER BAG JUMBO  0000001000+00000048+00000+0001T   00000048+0000001656          1400 AS8090               1AZ
100865000100865               100865               170213CI     1400+00000+CI0000001753+0000001753+000000000+000000246+0000001990+0000000009+I20000000000+0000001990+Z
100865001100865016-006509     100865006003000567355S/JAR GLS MINI LABEL   0000001000+00001753+00000+0001T   00002192+0008191705          1400 AS8300               1AZ
100866000100866               100866               170213CI     1400+00000+CI0000008237+0000008237+000000000+000001154+0000009390+0000000001+I20000000000+0000009390+Z
100866001100866047-000014-A   100866006001023904072ADAPTOR 16AX5ARNDX5A2PN0000001000+00003507+00000+0001T   00003507+0000001706          1400 AS8880               1AZ
100866002100866903-004960     100866008410525221842SWT GUMMY STR/BERRY 50G0000001000+00000964+00000+0001T   00000964+0000001706          1400 AS8150               1AZ
100866003100866903-000519     100866006001704012805SWT MS LIQ-O-GHETTI    0000001000+00001227+00000+0001T   00001227+0000001706          1400 AS8150               1AZ
100866004100866033-010721     100866006001023678669SAFETY-PINS 20PCE ASSTD0000001000+00000700+00000+0001T   00000700+0000001706          1400 AS8200               1AZ
100866005100866084-000890     100866006003000092925NAIL BUFFER 9x3x1.3cm  0000001000+00001139+00000+0001T   00001578+0008161706          1400 AS8200               1AZ
100866006100866903-000120     100866006002099001665SWEET GS ZILLIONS 50g  0000001000+00000700+00000+0001T   00000700+0000001706          1400 AS8150               1AZ
100867000100867               100867               170213CI     1400+00000+CI0000001490+0000001490+000000000+000000209+0000001690+0000000009+I20000000000+0000001690+Z
100867001100867077-000299     100867006003000395576G/BAG 32x25cm LRG LOVE 0000001000+00001490+00000+0001T   00001490+0000001707          1400 AS8112               1AZ
100868000100868               100868               170213CI     1400+00000+CI0000007893+0000007893+000000000+000001106+0000008999+0000000000+I40000008999+0000000000+Z
100868001100868466-000605     100868003427000901125BALL SOC 2-PLY PANEL   0000001000+00007893+00000+0001T   00007893+0000001709          1400 AS8785               1AZ
100869000100869               100869               170213CI     1400+00000+CI0000002630+0000002630+000000000+000000369+0000002990+0000000009+I20000000000+0000002990+Z
100869001100869466-000584     100869006001023628787SKIPPING-ROPE          0000001000+00002630+00000+0001T   00002630+0000001711          1400 AS8785               1AZ
100870000100870               100870               170213CI     1400+00000+CI0000012845+0000012845+000000000+000001802+0000014647+0000000000+I40000014647+0000000000+Z
100870001100870006-000104     100870006001023990112BALLOONS 40PC AIR PUMP 0000001000+00002630+00000+0001T   00002630+0000001717          1400 AS8131               1AZ
100870002100870564-000012     100870006001023130075BUBBLE BOTTLE MAGIC    0000002000+00000700+00000+0001T   00000700+0000001717          1400 AS8131               1AZ
100870003100870467-000019     100870006001023746832BEACH-SET 16PCE BUCKET 0000001000+00007893+00000+0001T   00007893+0000001717          1400 AS8785               1AZ
100870004100870112-116069     100870006009681820277TCS CARRIER BAG JUMBO  0000001000+00000048+00000+0001T   00000048+0000001717          1400 AS8090               1AZ
100870005100870903-000094     100870006923431501622SWT GS CANDY NECKLACE  0000002000+00000437+00000+0001T   00000437+0000001717          1400 AS8150               1AZ
100871000100871               100871               170213CI     1400+00000+CI0000006138+0000006138+000000000+000000860+0000006990+0000000008+I20000000000+0000006990+Z
100871001100871140-001007     100871006001023617163FLY-STICK STAND 260x36 0000002000+00003069+00000+0001T   00003069+0000001720          1400 AS8830               1AZ
100872000100872               100872               170213CI     1400+00000+CI0000024509+0000024509+000000000+000003436+0000027940+0000000005+I20000000000+0000027940+Z
100872001100872140-001007     100872006001023617163FLY-STICK STAND 260x36 0000004000+00003069+00000+0001T   00003069+0000001722          1400 AS8830               1AZ
100872002100872039-000318     100872006003000406159B/DAY CANDLES SMALL NO 0000001000+00001753+00000+0001T   00001753+0000001722          1400 AS8510               1AZ
100872003100872039-000336     100872006001023169129B'DAY-CANDLES MAGIC 10P0000001000+00000964+00000+0001T   00000964+0000001722          1400 AS8510               1AZ
100872004100872006-000104     100872006001023990112BALLOONS 40PC AIR PUMP 0000002000+00002630+00000+0001T   00002630+0000001722          1400 AS8131               1AZ
100872005100872112-116069     100872006009681820277TCS CARRIER BAG JUMBO  0000001000+00000048+00000+0001T   00000048+0000001722          1400 AS8090               1AZ
100872006100872903-000090     100872006009826020821SWT GS CHOCO COINS 60g 0000002000+00002104+00000+0001T   00002104+0000001722          1400 AS8150               1AZ
100873000100873               100873               170213CI     1400+00000+CI0000007450+0000007450+000000000+000001044+0000008490+0000000004+I20000000000+0000008490+Z
100873001100873006-001000     100873006003000093779HELIUM BALLOON FILL    0000002000+00000613+00000+0001T   00000613+0000001724          1400 AS8131               1AZ
100873002100873006-000190     100873006003000685530BALLOONS LOVE 81x91cm  0000001000+00004385+00000+0001T   00004385+0000001724          1400 AS8131               1AZ
100873003100873006-001000     100873006003000093779HELIUM BALLOON FILL    0000003000+00000613+00000+0001T   00000613+0000001724          1400 AS8131               1AZ
100874000100874               100874               170213CI     1400+00000+CI0000002838+0000002838+000000000+000000399+0000003237+0000000000+I40000003237+0000000000+Z
100874001100874019-000130     100874006003000456130PLANTER T/PLATE W/HNDL 0000001000+00001753+00000+0001T   00001753+0000001727          1400 AS8510               1AZ
100874002100874080-000133     100874006003000535613CARD&ENV MINI ASTD DSGN0000001000+00000437+00000+0001T   00000437+0000001727          1400 AS8112               1AZ
100874003100874007-000555     100874006001023848239MEMO-PAD MINI LOVE     0000001000+00000613+00000+0001T   00000613+0000001727          1400 AS8130               1AZ
100874004100874112-116038     100874006009681820246TCS CARRIER BAG MIDI   0000001000+00000035+00000+0001T   00000035+0000001727          1400 AS8090               1AZ
100875000100875               100875               170213CI     1400+00000+CI0000002279+0000002279+000000000+000000320+0000002590+0000000009+I20000000000+0000002590+Z
100875001100875027-000194     100875006001246602472MOP COMPLETE           0000001000+00002279+00000+0001T   00002279+0000001727          1400 AS8212               1AZ
100876000100876               100876               170213CI     1400+00000+CI0000006224+0000006224+000000000+000000872+0000007090+0000000006+I20000000000+0000007090+Z
100876001100876006-000190     100876006003000685530BALLOONS LOVE 81x91cm  0000001000+00004385+00000+0001T   00004385+0000001734          1400 AS8131               1AZ
100876002100876006-001000     100876006003000093779HELIUM BALLOON FILL    0000003000+00000613+00000+0001T   00000613+0000001734          1400 AS8131               1AZ
100877000100877               100877               170213CI     1400+00000+CI0000008819+0000008819+000000000+000001235+0000010054+0000000000+I40000010054+0000000000+Z
100877001100877031-086302-C   100877006001023910332P/FRAME COLL. PL 3-HOLE0000001000+00008771+00000+0001T   00008771+0000001736          1400 AS8510               1AZ
100877002100877112-116069     100877006009681820277TCS CARRIER BAG JUMBO  0000001000+00000048+00000+0001T   00000048+0000001736          1400 AS8090               1AZ
100878000100878               100878               170213CI     1400+00000+CI0000001753+0000001753+000000000+000000246+0000001990+0000000009+I20000000000+0000001990+Z
100878001100878077-000316     100878006001023609731GIFT-BAG 25X32CM MATT  0000001000+00001753+00000+0001T   00001753+0000001736          1400 AS8112               1AZ
100879000100879               100879               170213CI     1400+00000+CI0000002630+0000002630+000000000+000000369+0000002990+0000000009+I20000000000+0000002990+Z
100879001100879369-001013     100879006003000500451BABY BATH VINYL DUCK   0000001000+00002630+00000+0001T   00002630+0000001737          1400 AS8745               1AZ
100880000100880               100880               170213CI     1400+00000+CI0000004909+0000004909+000000000+000000688+0000005597+0000000000+I40000005597+0000000000+Z
100880001100880031-005853     100880006003000442416P/FRAME WDN TWIN HEARTS0000001000+00003507+00000+0001T   00003507+0000001747          1400 AS8510               1AZ
100880002100880304-001204     100880006001023737984FLOWER OCC. TEDDY/ROSES0000001000+00001402+00000+0001T   00001490+0006471747          1400 AS8510               1AZ
100881000100881               100881               170213CI     1400+00000+CI0000003015+0000003015+000000000+000000423+0000003430+0000000008+I20000000000+0000003430+Z
100881001100881002-000685     100881006001023693785K/TOOL P/MASHER H/HOUSE0000001000+00002192+00000+0001T   00002192+0000001748          1400 AS8300               1AZ
100881002100881071-081101-A   100881006003000326549GLUE-STICK 25g BLISTER 0000001000+00000788+00000+0001T   00000788+0000001748          1400 AS8130               1AZ
100881003100881112-116038     100881006009681820246TCS CARRIER BAG MIDI   0000001000+00000035+00000+0001T   00000035+0000001748          1400 AS8090               1AZ
100882000100882               100882               170213CI     1400+00000+CI0000002192+0000002192+000000000+000000307+0000002490+0000000009+I20000000000+0000002490+Z
100882001100882050-000363-Z   100882006001023475282PADLOCK IRON 32mm CARD 0000001000+00002192+00000+0001T   00002192+0000001753          1400 AS8855               1AZ
100883000100883               100883               170213CI     1400+00000+CI0000001578+0000001578+000000000+000000221+0000001790+0000000009+I20000000000+0000001790+Z
100883001100883080-000124     100883006003000297733CARD & ENV VALENTINES  0000001000+00001578+00000+0001T   00001578+0000001755          1400 AS8112               1AZ
100884000100884               100884               170213CI     1400+00000+CI0000007890+0000007890+000000000+000001107+0000008997+0000000000+I40000008997+0000000000+Z
100884001100884304-000720     100884006001023843050F/BUNCH ROSE 6-HEAD AST0000003000+00002630+00000+0001T   00002630+0000001757          1400 AS8510               1AZ
100885000100885               100885               170213CI     1400+00000+CI0000001314+0000001314+000000000+000000184+0000001490+0000000008+I20000000000+0000001490+Z
100885001100885903-000194     100885006009826020616SWT CHOC RP LOLLY 25G  0000001000+00001314+00000+0001T   00001314+0000001805          1400 AS8150               1AZ
A17021300                                          10335024CISLAVE 1                       AS81IC
A17021301                                          15440344CISLAVE 1                       AS81IC
C10084900                                          170213CI077-000005-B   15563123SLAVE 1     AS81IC0000000000+0000000000+0020000001000+
M17021391                              CASH        CISLAVE 1                       Z-REPORT No.   636TOTAL (Sales - Refunds)           7424.38       CASH TO BE BANKED                 3777.50       DEBIT CARDS                          0.00       CREDIT CARDS                      3646.78       Z-READING                         7424.38       AIRTIME DEBIT CARD SALES             0.00       AIRTIME CARD SALES                   0.00       OVERS/UNDERS                         0.10-      AIRTIME CASH SALES                   0.00       GIFT CARDS                           0.00       GIFT CARD CASH SALES                 0.00       T O T A L  CASH PAYOUTS              0.00                                                                                                                                                                                                                                                                                                                                                      Z
M17021392                              CASH        CIABSENT                                                                                                                                                                                          ANNUAL LEAVE                                                                                                                                                                                    DAY OFF                                                                                                                                                                                         COMMENTS          R0.10 SHORT                                                                                                                                                                                                                                                                                                                                                                  Z
Y17021300                                          CI00000000668302+000110
ZCI17021319253 SLAVE 1      SALES DATA                     NEXT INVOICE NO.  100886 0636
F086194361-001190         1606080939040000002ICSLAVE 1
F093748496-057489         1702081250370000032ICSLAVE 1
F093778496-028202         1702081251210000022ICSLAVE 1
F093796496-028272         1702081252380000022ICSLAVE 1
X CI Slave 1 First invoice 100775 170213 Last invoice 100885 170213 Next invoice 100886 Total number of records 000000371 clbackup completed 19:25:19
