338619000338619               338619               170213CK     1400+00000+CK0000011082+0000011082+000000000+000001552+0000012630+0000000004+I20000000000+0000012630+Z
338619001338619001-091415     338619006003000329113W/GLS OCC. LOVE 2PC 2800000001000+00008771+00000+0001T   00009648+0006470925          1400 NY5515               1AZ
338619002338619112-116038     338619006009681820246TCS CARRIER BAG MIDI   0000001000+00000035+00000+0001T   00000035+0000000925          1400 NY5090               1AZ
338619003338619018-000177     338619006001023797513MUG MINI LOVE ASSTD    0000002000+00000700+00000+0001T   00000700+0000000925          1400 NY5515               1AZ
338619004338619071-003004     338619006003000662821PEN BALL POINT 3PC BLUE0000001000+00000876+00000+0001T   00000876+0000000925          1400 NY5130               1AZ
338620000338620               338620               170213CK     1400+00000+CK0000000876+0000000876+000000000+000000123+0000000990+0000000009+I20000000000+0000000990+Z
338620001338620007-000127     338620006009685853431BOOK H/COVER MEMO 144PG0000001000+00000876+00000+0001T   00000876+0000000948          1400 NY5130               1AZ
338621000338621               338621               170213CK     1400+00000+CK0000019343+0000019343+000000000+000002709+0000022052+0000000000+I40000022052+0000000000+Z
338621001338621030-004090     338621006003000674503P/WALL MDF 30X40CM     0000001000+00008771+00000+0001T   00008771+0000000950          1400 NY5505               1AZ
338621002338621002-220009     338621006003000567478FOODCOVER COLL. ROUND  0000002000+00005262+00000+0001T   00005262+0000000950          1400 NY5300               1AZ
338621003338621112-116069     338621006009681820277TCS CARRIER BAG JUMBO  0000001000+00000048+00000+0001T   00000048+0000000950          1400 NY5090               1AZ
338622000338622               338622               170213CK     1400+00000+CK0000000350+0000000350+000000000+000000049+0000000390+0000000009+I20000000000+0000000390+Z
338622001338622007-000104     338622006009685854865BK COVER BRWN KRFT ROLL0000001000+00000350+00000+0001T   00000350+0000001006          1400 NY5130               1AZ
338623000338623               338623               170213CK     1400+00000+CK0000001753+0000001753+000000000+000000246+0000001990+0000000009+I20000000000+0000001990+Z
338623001338623056-005751     338623006003000102877CAR AIR-FRESH SHOE ASST0000001000+00001753+00000+0001T   00001753+0000001007          1400 NY5860               1AZ
338624000338624               338624               170213CK     1400+00000+CK0000008808+0000008808+000000000+000001237+0000010045+0000000000+I40000010045+0000000000+Z
338624001338624077-000150-D   338624006003000054343GIFT-WRAP CELLPHANE CLR0000010000+00000876+00000+0001T   00000876+0000001009          1400 NY5112               1AZ
338624002338624112-116069     338624006009681820277TCS CARRIER BAG JUMBO  0000001000+00000048+00000+0001T   00000048+0000001009          1400 NY5090               1AZ
338625000338625               338625               170213CK     1400+00000+CK0000008801+0000008801+000000000+000001234+0000010035+0000000000+I40000010035+0000000000+Z
338625001338625903-000211     338625006002099001238SWT GS MALLOW ICE CREAM0000001000+00001753+00000+0001T   00001753+0000001011          1400 NY5150               1AZ
338625002338625306-000030     338625006003000567416C/WOOL COS. SET PP CASE0000001000+00003507+00000+0001T   00003507+0000001011          1400 NY5200               1AZ
338625003338625306-000020-A   338625006001023873583TISSUES 100PCE 19x18cm 0000001000+00001753+00000+0001T   00001753+0000001011          1400 NY5200               1AZ
338625004338625306-001720     338625006003000276257HAND SANITIZER WIPES   0000001000+00001753+00000+0001T   00001753+0000001011          1400 NY5200               1AZ
338625005338625112-116038     338625006009681820246TCS CARRIER BAG MIDI   0000001000+00000035+00000+0001T   00000035+0000001011          1400 NY5090               1AZ
338626000338626               338626               170213CK     1400+00000+CK0000029020+0000029020+000000000+000004066+0000033086+0000000000+I40000033086+0000000000+Z
338626001338626368-000113     338626006001023780874PLUSH BLINGED LOVE 30cm0000001000+00012279+00000+0001T   00012279+0000001220          1400 NY5745               1AZ
338626002338626089-060027     338626006003000245871KEY-CHAIN HEART 6X6cm  0000001000+00003069+00000+0001T   00003069+0000001220          1400 NY5205               1AZ
338626003338626089-000030     338626006003000575671K/CHAIN LOVE MTL ASSTD 0000001000+00001753+00000+0001T   00001753+0000001220          1400 NY5205               1AZ
338626004338626301-085004     338626006003000420469ORN LOVE PLAQUE 21X10CM0000001000+00003507+00000+0001T   00003946+0006471220          1400 NY5505               1AZ
338626005338626018-000136     338626006001023659026MUG OCC LOVE W/PLUSH   0000001000+00003507+00000+0001T   00003507+0000001220          1400 NY5515               1AZ
338626006338626080-000127     338626006003000424351VALENTINES DAY 36x24CM 0000001000+00002192+00000+0001T   00002192+0000001220          1400 NY5112               1AZ
338626007338626077-000270     338626006003000395453GIFT-BAG PPR JMB 33X45 0000001000+00002630+00000+0001T   00002630+0000001220          1400 NY5112               1AZ
338626008338626112-116069     338626006009681820277TCS CARRIER BAG JUMBO  0000001000+00000048+00000+0001T   00000048+0000001220          1400 NY5090               1AZ
338626009338626112-116038     338626006009681820246TCS CARRIER BAG MIDI   0000001000+00000035+00000+0001T   00000035+0000001220          1400 NY5090               1AZ
338627000338627               338627               170213CK     1400+00000+CK0000003067+0000003067+000000000+000000430+0000003497+0000000000+I40000003497+0000000000+Z
338627001338627077-000310     338627006001023608635GIFT-BAG 18X23CM GLOSS 0000001000+00001314+00000+0001T   00001314+0000001333          1400 NY5112               1AZ
338627002338627036-000615     338627006003000218769WASH-PEGS PL PCK-24    0000001000+00001753+00000+0001T   00001753+0000001333          1400 NY5212               1AZ
338628000338628               338628               170213CK     1400+00000+CK0000017588+0000017588+000000000+000002464+0000020050+0000000002+I20000000000+0000020050+Z
338628001338628466-009004     338628006001023189288BEACH-BAT-SET W/BALL   0000001000+00005262+00000+0001T   00005262+0000001335          1400 NY5785               1AZ
338628002338628466-000040     338628006003000574742BALL WATER BOUNCING    0000001000+00004385+00000+0001T   00004385+0000001335          1400 NY5785               1AZ
338628003338628494-058263     338628000078257582631TUBE 97cm TRANSPRNT+HND0000001000+00007893+00000+0001T   00007893+0000001335          1400 NY5787               1AZ
338628004338628112-116069     338628006009681820277TCS CARRIER BAG JUMBO  0000001000+00000048+00000+0001T   00000048+0000001335          1400 NY5090               1AZ
338629000338629               338629               170213CK     1400+00000+CK0000015820+0000015820+000000000+000002217+0000018030+0000000007+I20000000000+0000018030+Z
338629001338629265-001658     338629006003000123896BOAT PL B/O BUMP&GO    0000001000+00007016+00000+0001T   00007016+0000001336          1400 NY5710               1AZ
338629002338629264-000922     338629000090159250012MAISTO CAR PULL-BACK   0000001000+00006139+00000+0001T   00007016+0008191336          1400 NY5710               1AZ
338629003338629046-000011-A   338629006003000438891BATTERIES SIZE:AA  4PCE0000001000+00002630+00000+0001T   00002630+0000001336          1400 NY5312               1AZ
338629004338629112-116038     338629006009681820246TCS CARRIER BAG MIDI   0000001000+00000035+00000+0001T   00000035+0000001336          1400 NY5090               1AZ
338630000338630               338630               170213CK     1400+00000+CK0000007454+0000007454+000000000+000001044+0000008490+0000000008+I20000000000+0000008490+Z
338630001338630493-059050     338630000078257590506BEACH-BALL 61cm LIVELY 0000001000+00002192+00000+0001T   00002192+0000001336          1400 NY5787               1AZ
338630002338630494-059258     338630000078257592586INTEX TUBE 76cm        0000001000+00005262+00000+0001T   00005262+0000001336          1400 NY5787               1AZ
338631000338631               338631               170213CK     1400+00000+CK0000006139+0000006139+000000000+000000860+0000006990+0000000009+I20000000000+0000006990+Z
338631001338631497-068614     338631000078257686148H/PUMP HIGH-O/PUT 36cm 0000001000+00006139+00000+0001T   00006139+0000001539          1400 NY5787               1AZ
338632000338632               338632               170213CK     1400+00000+CK0000000437+0000000437+000000000+000000062+0000000490+0000000009+I20000000000+0000000490+Z
338632001338632080-000133-A   338632006003000647019MINI VALENTINES CARD   0000001000+00000437+00000+0001T   00000437+0000001632          1400 NY5112               1AZ
338633000338633               338633               170213CK     1400+00000+CK0000004120-0000004120-000000000+000000578-0000004700-0000000002+I20000000000+0000004700-Z
338633001338633106-001104     338633006003000364794WATER BOTTLE 600ml PL  0000001000-00002630+00000+0001T   00002630+0000001638          1400 NY52101IC            1 Z
338633002338633106-001118     338633006009654960320WATER BOTTLE PL 500ml  0000001000+00002016+00000+0001T   00002016+0000001638          1400 NY5210               1 Z
338633003338633077-000381     338633006003000247707GIFT-BAG 25X32CM S/COL 0000002000-00001753+00000+0001T   00001753+0000001638          1400 NY51121IC            1 Z
338634000338634               338634               170213CK     1400+00000+CK0000003507+0000003507+000000000+000000491+0000003998+0000000000+I40000003998+0000000000+Z
338634001338634464-001701     338634006001023332691DOMINOES IVORY DBL-SIX 0000001000+00003507+00000+0001T   00003507+0000001724          1400 NY5785               1AZ
338635000338635               338635               170213CK     1400+00000+CK0000001753+0000001753+000000000+000000246+0000001990+0000000009+I20000000000+0000001990+Z
338635001338635077-000116     338635006003000240777GIFT-WRAP 700mmx2m COL 0000001000+00001753+00000+0001T   00001753+0000001725          1400 NY5112               1AZ
338636000338636               338636               170213CK     1400+00000+CK0000002226+0000002226+000000000+000000312+0000002530+0000000008+I20000000000+0000002530+Z
338636001338636565-000044     338636006003000128280BARREL OF SLIME 100g   0000001000+00000613+00000+0001T   00000613+0000001726          1400 NY5745               1AZ
338636002338636018-000127     338636006001023380289MUG OCC STRAIGHT LOVE  0000001000+00001578+00000+0001T   00001753+0006471726          1400 NY5515               1AZ
338636003338636112-116038     338636006009681820246TCS CARRIER BAG MIDI   0000001000+00000035+00000+0001T   00000035+0000001726          1400 NY5090               1AZ
338637000338637               338637               170213CK     1400+00000+CK0000001753+0000001753+000000000+000000246+0000001990+0000000009+I20000000000+0000001990+Z
338637001338637077-000324     338637006001023677594GIFT-BAG 33X45CM E/D FL0000001000+00001753+00000+0001T   00001753+0000001733          1400 NY5112               1AZ
338638000338638               338638               170213CK     1400+00000+CK0000005820+0000005820+000000000+000000816+0000006630+0000000006+I20000000000+0000006630+Z
338638001338638018-000127     338638006001023380289MUG OCC STRAIGHT LOVE  0000001000+00001578+00000+0001T   00001753+0006471736          1400 NY5515               1AZ
338638002338638903-000517     338638006001704012768SWT STRAWS FIZZY CHERRY0000001000+00001227+00000+0001T   00001227+0000001736          1400 NY5150               1AZ
338638003338638903-000518     338638006001704012782SWT STRAWS S/BERRY 100g0000001000+00001227+00000+0001T   00001227+0000001736          1400 NY5150               1AZ
338638004338638112-116038     338638006009681820246TCS CARRIER BAG MIDI   0000001000+00000035+00000+0001T   00000035+0000001736          1400 NY5090               1AZ
338638005338638903-000619     338638006003000672455SWT LOLLY STR/BRRY 140G0000001000+00001753+00000+0001T   00001753+0000001736          1400 NY5150               1AZ
338639000338639               338639               170213CK     1400+00000+CK0000012395+0000012395+000000000+000001736+0000014130+0000000001+I20000000000+0000014130+Z
338639001338639018-000130     338639006001023867537MUG OCC LOVE MINI+HEART0000003000+00003507+00000+0001T   00003507+0000001738          1400 NY5515               1AZ
338639002338639304-001011     338639006001023806727FLWR ROSE RED W/BEAR   0000003000+00000613+00000+0001T   00000788+0006471738          1400 NY5510               1AZ
338639003338639112-116038     338639006009681820246TCS CARRIER BAG MIDI   0000001000+00000035+00000+0001T   00000035+0000001738          1400 NY5090               1AZ
338640000338640               338640               170213CK     1400+00000+CK0000004418+0000004418+000000000+000000620+0000005038+0000000000+I40000005038+0000000000+Z
338640001338640077-000900     338640006003000410446G/WRAP 700mmx1m ANIMAL 0000001000+00001753+00000+0001T   00001753+0000001739          1400 NY5112               1AZ
338640002338640079-013032-H   338640006003000496501GLITTER PRINCESS ACC   0000001000+00002630+00000+0001T   00002630+0000001739          1400 NY5130               1AZ
338640003338640112-116038     338640006009681820246TCS CARRIER BAG MIDI   0000001000+00000035+00000+0001T   00000035+0000001739          1400 NY5090               1AZ
338641000338641               338641               170213CK     1400+00000+CK0000006138+0000006138+000000000+000000860+0000006998+0000000000+I40000006998+0000000000+Z
338641001338641077-000381     338641006003000247707GIFT-BAG 25X32CM S/COL 0000001000+00001753+00000+0001T   00001753+0000001740          1400 NY5112               1AZ
338641002338641050-000880-Z   338641006003000528110PADLOCK COMBO BRS 4 WHL0000001000+00004385+00000+0001T   00004385+0000001740          1400 NY5855               1AZ
A17021300                                          10151331CKSLAVE 1                       NY51IC
A17021301                                          12174903CKSLAVE 1                       NY51IC
A17021302                                          12434061CKSLAVE 1                       NY51IC
M17021391                              CASH        CKSLAVE 1                       Z-REPORT No.   655TOTAL (Sales - Refunds)           1873.69       CASH TO BE BANKED                  926.20       DEBIT CARDS                          0.00       CREDIT CARDS                       947.49       Z-READING                         1873.69       AIRTIME DEBIT CARD SALES             0.00       AIRTIME CARD SALES                   0.00       OVERS/UNDERS                         0.00       AIRTIME CASH SALES                   0.00       GIFT CARDS                           0.00       GIFT CARD CASH SALES                 0.00       T O T A L  CASH PAYOUTS              0.00                                                                                                                                                                                                                                                                                                                                                      Z
M17021392                              CASH        CKABSENT                                                                                                                                                                                          ANNUAL LEAVE                                                                                                                                                                                    DAY OFF                                                                                                                                                                                         COMMENTS                                                                                                                                                                                                                                                                                                                                                                                       Z
Y17021300                                          CK00000000170564+000023
ZCK17021319253 SLAVE 1      SALES DATA                     NEXT INVOICE NO.  338642 0655
F093738496-056475         1701110942550000032ICSLAVE 1
F094812107-003120         1702090838340000052ICSLAVE 1
F094855304-001011         1702111043090000301ICSLAVE 1
X CK Slave 1 First invoice 338619 170213 Last invoice 338641 170213 Next invoice 338642 Total number of records 000000095 clbackup completed 19:25:27
