347581000347581               347581               170213CK     1400+00000+CK0000002852+0000002852+000000000+000000400+0000003252+0000000000+I40000003252+0000000000+Z
347581001347581107-004105     347581006009703860984BUCKET 9L OPEN         0000001000+00001314+00000+0001T   00001314+0000000909          1400 AN5210               2AZ
347581002347581159-000114     347581006001023507945SHOWER CAP PVC ASSTD   0000001000+00001490+00000+0001T   00001490+0000000909          1400 AN5200               2AZ
347581003347581112-116069     347581006009681820277TCS CARRIER BAG JUMBO  0000001000+00000048+00000+0001T   00000048+0000000909          1400 AN5090               2AZ
347582000347582               347582               170213CK     1400+00000+CK0000011220-0000011220-000000000+000001574-0000012794-0000000000+I40000012794-0000000000+Z
347582001347582031-000878-D   347582006003000602476P/FRAME CERTIFICATE    0000002000-00002630+00000+0001T   00002630+0000000913          1400 AN55103IC            2 Z
347582002347582031-000878-B   347582006001023799012P/FRAME 13x18cm PL-SLID0000004000-00001490+00000+0001T   00001490+0000000913          1400 AN55103IC            2 Z
347583000347583               347583               170213CK     1400+00000+CK0000003542+0000003542+000000000+000000496+0000004038+0000000000+I40000004038+0000000000+Z
347583001347583031-000002-A   347583006003000247103P/FRAME LOVE 7.5X7.5CM 0000001000+00003507+00000+0001T   00003507+0000000917          1400 AN5510               2AZ
347583002347583112-116038     347583006009681820246TCS CARRIER BAG MIDI   0000001000+00000035+00000+0001T   00000035+0000000917          1400 AN5090               2AZ
347584000347584               347584               170213CK     1400+00000+CK0000001139+0000001139+000000000+000000160+0000001290+0000000009+I20000000000+0000001290+Z
347584001347584140-006004     347584006001023628077FLY-SWATTER RUBBER     0000001000+00001139+00000+0001T   00001139+0000000918          1400 AN5830               2AZ
347585000347585               347585               170213CK     1400+00000+CK0000002240+0000002240+000000000+000000314+0000002550+0000000004+I20000000000+0000002550+Z
347585001347585080-000127     347585006003000424351VALENTINES DAY 36x24CM 0000001000+00002192+00000+0001T   00002192+0000000931          1400 AN5112               2AZ
347585002347585112-116069     347585006009681820277TCS CARRIER BAG JUMBO  0000001000+00000048+00000+0001T   00000048+0000000931          1400 AN5090               2AZ
347586000347586               347586               170213CK     1400+00000+CK0000006487+0000006487+000000000+000000909+0000007396+0000000000+I40000007396+0000000000+Z
347586001347586027-000917     347586006001023367433DUSTPAN-SET MINI 21x16 0000001000+00001753+00000+0001T   00001753+0000000942          1400 AN5212               2AZ
347586002347586033-000013     347586006001023567215PILL-REMINDER PL       0000001000+00001227+00000+0001T   00001227+0000000942          1400 AN5200               2AZ
347586003347586036-021493     347586006001023998996HANGERS PL 2x5TIER 37cm0000001000+00003507+00000+0001T   00003507+0000000942          1400 AN5212               2AZ
347587000347587               347587               170213CK     1400+00000+CK0000008765-0000008765-000000000+000001230-0000010000-0000000005+I20000000000+0000010000-Z
347587001347587466-000103     347587006001023642134BALL 20cm ASSTD        0000005000-00001753+00000+0001T   00001753+0000000945          1400 AN57853IC            2 Z
347588000347588               347588               170213CK     1400+00000+CK0000033181+0000033181+000000000+000004649+0000037830+0000000000+I20000000000+0000037830+Z
347588001347588301-085008     347588006003000673933ORN OCC.LOVE TINSEL HRT0000001000+00003069+00000+0001T   00003069+0000000949          1400 AN5505               2AZ
347588002347588112-116069     347588006009681820277TCS CARRIER BAG JUMBO  0000001000+00000048+00000+0001T   00000048+0000000949          1400 AN5090               2AZ
347588003347588077-000150-D   347588006003000054343GIFT-WRAP CELLPHANE CLR0000002000+00000876+00000+0001T   00000876+0000000949          1400 AN5112               2AZ
347588004347588006-000789     347588006001023148612CROWN BOY              0000001000+00002192+00000+0001T   00002192+0000000949          1400 AN5131               2AZ
347588005347588304-001011     347588006001023806727FLWR ROSE RED W/BEAR   0000002000+00000613+00000+0001T   00000788+0006470949          1400 AN5510               2AZ
347588006347588018-000127     347588006001023380289MUG OCC STRAIGHT LOVE  0000002000+00001578+00000+0001T   00001753+0006470949          1400 AN5515               2AZ
347588007347588018-000130     347588006001023867537MUG OCC LOVE MINI+HEART0000002000+00003507+00000+0001T   00003507+0000000949          1400 AN5515               2AZ
347588008347588018-005009     347588006001023725608MUG W/PLUSH-BEAR LOVE  0000002000+00003507+00000+0001T   00003507+0000000949          1400 AN5515               2AZ
347588009347588304-001011     347588006001023806727FLWR ROSE RED W/BEAR   0000004000+00000613+00000+0001T   00000788+0006470949          1400 AN5510               2AZ
347588010347588077-000235     347588006003000160211GIFT-RIBBON ROLL METALC0000001000+00002630+00000+0001T   00002630+0000000949          1400 AN5112               2AZ
347588011347588006-000166-D   347588006003000516490BALLOONS LRG 6PC RED   0000001000+00001314+00000+0001T   00001314+0000000949          1400 AN5131               2AZ
347588012347588006-000166-H   347588006003000608096BALLOONS HELIUM 6PC WHT0000001000+00001314+00000+0001T   00001314+0000000949          1400 AN5131               2AZ
347589000347589               347589               170213CK     1400+00000+CK0000002628+0000002628+000000000+000000368+0000002990+0000000006+I20000000000+0000002990+Z
347589001347589903-000194     347589006009826020616SWT CHOC RP LOLLY 25G  0000002000+00001314+00000+0001T   00001314+0000000950          1400 AN5150               2AZ
347590000347590               347590               170213CK     1400+00000+CK0000013500+0000013500+000000000+000001892+0000015392+0000000000+I40000015392+0000000000+Z
347590001347590566-000028     347590006003000265541STICKER BK ASSTD 250PCE0000001000+00001753+00000+0001T   00001753+0000000952          1400 AN5130               2AZ
347590002347590079-014004     347590006003000080045ART+CRAFT JEWELRY ASSTD0000001000+00003507+00000+0001T   00003507+0000000952          1400 AN5130               2AZ
347590003347590567-011523     347590006003000667031BK COLOURING THERAPY   0000001000+00003507+00000+0001T   00003507+0000000952          1400 AN5757               2AZ
347590004347590033-005917     347590006001023678201SEAM-RIP+THIMBLE-SET   0000001000+00000788+00000+0001T   00000788+0000000952          1400 AN5200               2AZ
347590005347590033-005931     347590006001023678447PINS ON-WHEEL PEARLIZED0000001000+00000876+00000+0001T   00000876+0000000952          1400 AN5200               2AZ
347590006347590079-000358     347590006003000591046ART+CRAFT FELT-TIP PENS0000001000+00003069+00000+0001T   00003069+0000000952          1400 AN5130               2AZ
347591000347591               347591               170213CK     1400+00000+CK0000007049+0000007049+000000000+000000987+0000008036+0000000000+I40000008036+0000000000+Z
347591001347591018-000136     347591006001023659026MUG OCC LOVE W/PLUSH   0000002000+00003507+00000+0001T   00003507+0000000954          1400 AN5515               2AZ
347591002347591112-116038     347591006009681820246TCS CARRIER BAG MIDI   0000001000+00000035+00000+0001T   00000035+0000000954          1400 AN5090               2AZ
347592000347592               347592               170213CK     1400+00000+CK0000001753+0000001753+000000000+000000246+0000001990+0000000009+I20000000000+0000001990+Z
347592001347592077-000301     347592008010410010188BAG LRG 25X32CM B/DAY  0000001000+00001753+00000+0001T   00001753+0000000956          1400 AN5112               2AZ
347593000347593               347593               170213CK     1400+00000+CK0000008377+0000008377+000000000+000001174+0000009550+0000000001+I20000000000+0000009550+Z
347593001347593200-000200     347593006008766091144BAKING ALUM FOIL 2PCE  0000001000+00002192+00000+0001T   00002192+0000000958          1400 AN5214               2AZ
347593002347593200-000205     347593006008766127027BAKEPANS 36PCE (PIE)   0000001000+00003507+00000+0001T   00003507+0000000958          1400 AN5214               2AZ
347593003347593251-000012     347593006001023597915TAPE DUCT GREY 48mmx5m 0000001000+00002630+00000+0001T   00002630+0000000958          1400 AN5810               2AZ
347593004347593112-116069     347593006009681820277TCS CARRIER BAG JUMBO  0000001000+00000048+00000+0001T   00000048+0000000958          1400 AN5090               2AZ
347594000347594               347594               170213CK     1400+00000+CK0000001753+0000001753+000000000+000000246+0000001990+0000000009+I20000000000+0000001990+Z
347594001347594077-000301     347594008010410010188BAG LRG 25X32CM B/DAY  0000001000+00001753+00000+0001T   00001753+0000001018          1400 AN5112               2AZ
347595000347595               347595               170213CK     1400+00000+CK0000002630+0000002630+000000000+000000369+0000002990+0000000009+I20000000000+0000002990+Z
347595001347595560-000201     347595006001023400147RUBBER SNAKE 86cm      0000001000+00002630+00000+0001T   00002630+0000001022          1400 AN5745               2AZ
347596000347596               347596               170213CK     1400+00000+CK0000021928-0000021928-000000000+000003070-0000025000-0000000002+I20000000000+0000025000-Z
347596001347596031-001014     347596006003000675302P/FRAME COLL PL 15-HOLE0000001000-00021928+00000+0001T   00021928+0000001024          1400 AN55103IC            2 Z
347597000347597               347597               170213CK     1400+00000+CK0000003102+0000003102+000000000+000000435+0000003537+0000000000+I40000003537+0000000000+Z
347597001347597077-000150-D   347597006003000054343GIFT-WRAP CELLPHANE CLR0000001000+00000876+00000+0001T   00000876+0000001026          1400 AN5112               2AZ
347597002347597304-001011     347597006001023806727FLWR ROSE RED W/BEAR   0000001000+00000613+00000+0001T   00000788+0006471026          1400 AN5510               2AZ
347597003347597018-000127     347597006001023380289MUG OCC STRAIGHT LOVE  0000001000+00001578+00000+0001T   00001753+0006471026          1400 AN5515               2AZ
347597004347597112-116038     347597006009681820246TCS CARRIER BAG MIDI   0000001000+00000035+00000+0001T   00000035+0000001026          1400 AN5090               2AZ
347598000347598               347598               170213CK     1400+00000+CK0000002630+0000002630+000000000+000000369+0000002990+0000000009+I20000000000+0000002990+Z
347598001347598566-000366     347598006003000590667STICKER HALLOWEEN GLOW 0000001000+00002630+00000+0001T   00002630+0000001028          1400 AN5130               2AZ
347599000347599               347599               170213CK     1400+00000+CK0000015827+0000015827+000000000+000002219+0000018046+0000000000+I40000018046+0000000000+Z
347599001347599112-116069     347599006009681820277TCS CARRIER BAG JUMBO  0000001000+00000048+00000+0001T   00000048+0000001035          1400 AN5090               2AZ
347599002347599006-000800     347599006001023902801HAT CABARET 14x18cm    0000003000+00001753+00000+0001T   00001753+0000001035          1400 AN5131               2AZ
347599003347599006-000804     347599006003000574445STREAMERS 6-ROLLS 2.5cm0000001000+00001753+00000+0001T   00001753+0000001035          1400 AN5131               2AZ
347599004347599006-000092     347599006001023739650BANNER BIRTHDAY PAPER  0000001000+00001753+00000+0001T   00001753+0000001035          1400 AN5131               2AZ
347599005347599006-000097     347599006003000376612PARTY WIND SPINNER     0000002000+00003507+00000+0001T   00003507+0000001035          1400 AN5131               2AZ
347600000347600               347600               170213CK     1400+00000+CK0000002629+0000002629+000000000+000000369+0000002990+0000000008+I20000000000+0000002990+Z
347600001347600903-000482     347600006001704001397SWT SOFT-MINTS 60G     0000001000+00000876+00000+0001T   00000876+0000001037          1400 AN5150               2AZ
347600002347600077-000299-A   347600006003000670888GIFT-BAG PAPER JMB LOVE0000001000+00001753+00000+0001T   00001753+0000001037          1400 AN5112               2AZ
347601000347601               347601               170213CK     1400+00000+CK0000007411+0000007411+000000000+000001040+0000008450+0000000001+I20000000000+0000008450+Z
347601001347601027-783002     347601006001023874658SCOURERS FOAM PACK OF 30000001000+00001490+00000+0001T   00001490+0000001038          1400 AN5212               2AZ
347601002347601027-078282     347601006001023767837SCOURER 25g SPIRAL-BALL0000001000+00000613+00000+0001T   00000613+0000001038          1400 AN5212               2AZ
347601003347601108-001105-B   347601006005387000258MIXING-BOWL PLTNM/BLUE 0000001000+00002367+00000+0001T   00002367+0000001038          1400 AN5210               2AZ
347601004347601036-000151     347601006001023810588COATHANGERS    PACK-10 0000001000+00002893+00000+0001T   00002893+0000001038          1400 AN5212               2AZ
347601005347601112-116069     347601006009681820277TCS CARRIER BAG JUMBO  0000001000+00000048+00000+0001T   00000048+0000001038          1400 AN5090               2AZ
347602000347602               347602               170213CK     1400+00000+CK0000010523+0000010523+000000000+000001475+0000011998+0000000000+I40000011998+0000000000+Z
347602001347602562-000010     347602006001023762528KID'S PLAY DOUGH       0000001000+00002630+00000+0001T   00002630+0000001041          1400 AN5755               2AZ
347602002347602206-000480     347602006003000620227MOP SHOES CHENILLE 2PC 0000001000+00007893+00000+0001T   00007893+0000001041          1400 AN5321               2AZ
347603000347603               347603               170213CK     1400+00000+CK0000001139+0000001139+000000000+000000160+0000001290+0000000009+I20000000000+0000001290+Z
347603001347603466-000517     347603006001023752017BALL TENNIS RED CRICKET0000001000+00001139+00000+0001T   00001139+0000001041          1400 AN5785               2AZ
347604000347604               347604               170213CK     1400+00000+CK0000003682+0000003682+000000000+000000516+0000004190+0000000008+I20000000000+0000004190+Z
347604001347604079-000512     347604006001023635853CRAYONS WAX 12-COLOUR  0000001000+00001490+00000+0001T   00001490+0000001042          1400 AN5130               2AZ
347604002347604566-000359     347604006003000582709STICKER BOOK LOVE SPARK0000001000+00002192+00000+0001T   00002192+0000001042          1400 AN5130               2AZ
347605000347605               347605               170213CK     1400+00000+CK0000000877-0000000877-000000000+000000123-0000001000-0000000000+I20000000000+0000001000-Z
347605001347605031-000902-B   347605006001023726285P/FRAME WDN OAK 10X15CM0000001000-00003946+00000+0001T   00003946+0000001042          1400 AN55103IC            2 Z
347605002347605031-000864-A   347605006001023798350P/FRAME MAHOGANY 10X15 0000001000+00003069+00000+0001T   00003069+0000001042          1400 AN5510               2 Z
347606000347606               347606               170213CK     1400+00000+CK0000000437+0000000437+000000000+000000062+0000000490+0000000009+I20000000000+0000000490+Z
347606001347606083-000049     347606004891035200024CIG-LIGHTER DISPOSABLE 0000001000+00000437+00000+0001T   00000437+0000001043          1400 AN5315               2AZ
347607000347607               347607               170213CK     1400+00000+CK0000002978+0000002978+000000000+000000419+0000003397+0000000000+I40000003397+0000000000+Z
347607001347607080-000133     347607006003000535613CARD&ENV MINI ASTD DSGN0000001000+00000437+00000+0001T   00000437+0000001044          1400 AN5112               2AZ
347607002347607566-002004     347607006001023672421STICKERS CRYSTAL SHAPES0000001000+00001753+00000+0001T   00001753+0000001044          1400 AN5130               2AZ
347607003347607566-000858     347607006001023760975STCKRS G/OUTLINE ASSTD 0000001000+00000788+00000+0001T   00000788+0000001044          1400 AN5130               2AZ
347608000347608               347608               170213CK     1400+00000+CK0000006521+0000006521+000000000+000000914+0000007435+0000000000+I40000007435+0000000000+Z
347608001347608112-116038     347608006009681820246TCS CARRIER BAG MIDI   0000001000+00000035+00000+0001T   00000035+0000001051          1400 AN5090               2AZ
347608002347608304-001011     347608006001023806727FLWR ROSE RED W/BEAR   0000002000+00000613+00000+0001T   00000788+0006471051          1400 AN5510               2AZ
347608003347608301-085004     347608006003000420469ORN LOVE PLAQUE 21X10CM0000001000+00003507+00000+0001T   00003946+0006471051          1400 AN5505               2AZ
347608005347608089-000030     347608006003000575671K/CHAIN LOVE MTL ASSTD 0000001000+00001753+00000+0001T   00001753+0000001051          1400 AN5205               2AZ
347609000347609               347609               170213CK     1400+00000+CK0000008415+0000008415+000000000+000001181+0000009596+0000000000+I40000009596+0000000000+Z
347609001347609001-000390     347609006001023679741TUMBLER GLS 2400ml WHIS0000001000+00000876+00000+0001T   00000876+0000001054          1400 AN5515               2AZ
347609002347609036-000402     347609006003000572250CLOTHES DRYER WITH PEGS0000001000+00002630+00000+0001T   00002630+0000001054          1400 AN5212               2AZ
347609003347609027-000194     347609006001246602472MOP COMPLETE           0000001000+00002279+00000+0001T   00002279+0000001054          1400 AN5212               2AZ
347609004347609174-000175     347609006001023730985LAUNDRY-BAG FOLD-AWAY  0000001000+00002630+00000+0001T   00002630+0000001054          1400 AN5205               2AZ
347610000347610               347610               170213CK     1400+00000+CK0000011436+0000011436+000000000+000001602+0000013038+0000000000+I40000013038+0000000000+Z
347610001347610368-000021     347610006003000672141PLUSH DINOSAUR 27cm    0000001000+00007016+00000+0001T   00007016+0000001058          1400 AN5745               2AZ
347610002347610031-005921     347610006001023667847P/FRAME PL PLAIN       0000001000+00004385+00000+0001T   00004385+0000001058          1400 AN5510               2AZ
347610003347610112-116038     347610006009681820246TCS CARRIER BAG MIDI   0000001000+00000035+00000+0001T   00000035+0000001058          1400 AN5090               2AZ
347611000347611               347611               170213CK     1400+00000+CK0000002678+0000002678+000000000+000000376+0000003050+0000000004+I20000000000+0000003050+Z
347611001347611077-000270     347611006003000395453GIFT-BAG PPR JMB 33X45 0000001000+00002630+00000+0001T   00002630+0000001102          1400 AN5112               2AZ
347611002347611112-116069     347611006009681820277TCS CARRIER BAG JUMBO  0000001000+00000048+00000+0001T   00000048+0000001102          1400 AN5090               2AZ
347612000347612               347612               170213CK     1400+00000+CK0000014203+0000014203+000000000+000001991+0000016194+0000000000+I40000016194+0000000000+Z
347612001347612040-000200     347612006003000381586C/HLDER CERC INSP. ASST0000001000+00003069+00000+0001T   00003069+0000001107          1400 AN5510               2AZ
347612002347612088-000008     347612006003000623181AIR FRESHENER GEL ASSTD0000001000+00002630+00000+0001T   00002630+0000001107          1400 AN5212               2AZ
347612003347612078-000030     347612006003000151141YAMAYO SUPERGLUE 8g    0000001000+00001753+00000+0001T   00001753+0000001107          1400 AN5810               2AZ
347612004347612200-000308     347612006003000577477FOOD TIES SILICONE 3PCE0000001000+00002192+00000+0001T   00002192+0000001107          1400 AN5214               2AZ
347612005347612200-000306     347612006003000358144TOAST BAGS 2-PACK      0000001000+00003069+00000+0001T   00003069+0000001107          1400 AN5214               2AZ
347612006347612565-004101     347612006003000548033BALL BOUNCING EGG      0000001000+00001490+00000+0001T   00001490+0000001107          1400 AN5745               2AZ
347613000347613               347613               170213CK     1400+00000+CK0000002192-0000002192-000000000+000000307-0000002500-0000000001+I20000000000+0000002500-Z
347613001347613072-020303     347613006008632000492DOG-TOY DENTAL-BONE    0000001000-00002192+00000+0001T   00002192+0000001108          1400 AN58701IC            2 Z
347614000347614               347614               170213CK     1400+00000+CK0000002630+0000002630+000000000+000000369+0000002990+0000000009+I20000000000+0000002990+Z
347614001347614046-000011-A   347614006003000438891BATTERIES SIZE:AA  4PCE0000001000+00002630+00000+0001T   00002630+0000001111          1400 AN5312               2AZ
347615000347615               347615               170213CK     1400+00000+CK0000013850+0000013850+000000000+000001943+0000015793+0000000000+I40000015793+0000000000+Z
347615001347615019-071596     347615006001023733078PEBBLES GLS 250g ASSTD.0000002000+00001753+00000+0001T   00001753+0000001121          1400 AN5510               2AZ
347615002347615105-008005     347615006002580009484STORAGE CONTAINER 7.5L 0000001000+00004385+00000+0001T   00004385+0000001121          1400 AN5210               2AZ
347615003347615566-000858     347615006001023760975STCKRS G/OUTLINE ASSTD 0000001000+00000788+00000+0001T   00000788+0000001121          1400 AN5130               2AZ
347615004347615566-000344     347615006001023994806STICKER ALBUM+STICKERS 0000001000+00001753+00000+0001T   00001753+0000001121          1400 AN5130               2AZ
347615005347615566-000345     347615006001023994837STICKER ALBUM+STICKERS 0000001000+00002630+00000+0001T   00002630+0000001121          1400 AN5130               2AZ
347615006347615566-000858     347615006001023760975STCKRS G/OUTLINE ASSTD 0000001000+00000788+00000+0001T   00000788+0000001121          1400 AN5130               2AZ
347616000347616               347616               170213CK     1400+00000+CK0000007940+0000007940+000000000+000001113+0000009053+0000000000+I40000009053+0000000000+Z
347616001347616046-000011-A   347616006003000438891BATTERIES SIZE:AA  4PCE0000001000+00002630+00000+0001T   00002630+0000001135          1400 AN5312               2AZ
347616002347616140-005093     347616006003000331338INSECT-KILL RAQT-SHAPED0000001000+00005262+00000+0001T   00005262+0000001135          1400 AN5830               2AZ
347616003347616112-116069     347616006009681820277TCS CARRIER BAG JUMBO  0000001000+00000048+00000+0001T   00000048+0000001135          1400 AN5090               2AZ
347617000347617               347617               170213CK     1400+00000+CK0000006133+0000006133+000000000+000000860+0000006990+0000000003+I20000000000+0000006990+Z
347617001347617564-000012     347617006001023130075BUBBLE BOTTLE MAGIC    0000001000+00000700+00000+0001T   00000700+0000001138          1400 AN5131               2AZ
347617002347617466-000517     347617006001023752017BALL TENNIS RED CRICKET0000001000+00001139+00000+0001T   00001139+0000001138          1400 AN5785               2AZ
347617003347617107-004105     347617006009703860984BUCKET 9L OPEN         0000001000+00001314+00000+0001T   00001314+0000001138          1400 AN5210               2AZ
347617004347617565-004101     347617006003000548033BALL BOUNCING EGG      0000002000+00001490+00000+0001T   00001490+0000001138          1400 AN5745               2AZ
347618000347618               347618               170213CK     1400+00000+CK0000001490+0000001490+000000000+000000209+0000001699+0000000000+I40000001699+0000000000+Z
347618001347618140-001004     347618006001023880932FLY-RIBBONS 4PCE PL    0000001000+00001490+00000+0001T   00001490+0000001139          1400 AN5830               2AZ
347619000347619               347619               170213CK     1400+00000+CK0000003507+0000003507+000000000+000000491+0000003990+0000000008+I20000000000+0000003990+Z
347619001347619567-011344     347619006003000630714BK COLOURING THERAPY 640000001000+00003507+00000+0001T   00003507+0000001140          1400 AN5757               2AZ
347620000347620               347620               170213CK     1400+00000+CK0000004997+0000004997+000000000+000000700+0000005697+0000000000+I40000005697+0000000000+Z
347620001347620105-001025-A   347620006009654960979CONTAINERS CLEAR 4PCE  0000001000+00001928+00000+0001T   00001928+0000001148          1400 AN5210               2AZ
347620002347620105-001025     347620006009654960771CONTAINERS CLEAR 4PCE  0000001000+00003069+00000+0001T   00003069+0000001148          1400 AN5210               2AZ
347621000347621               347621               170213CK     1400+00000+CK0000001314+0000001314+000000000+000000184+0000001490+0000000008+I20000000000+0000001490+Z
347621001347621206-000520     347621006003000620708NOVELTY BIRTHDAY CANDLE0000001000+00001314+00000+0001T   00001753+0008181149          1400 AN5321               2AZ
347622000347622               347622               170213CK     1400+00000+CK0000001753+0000001753+000000000+000000246+0000001990+0000000009+I20000000000+0000001990+Z
347622001347622077-000301     347622008010410010188BAG LRG 25X32CM B/DAY  0000001000+00001753+00000+0001T   00001753+0000001151          1400 AN5112               2AZ
347623000347623               347623               170213CK     1400+00000+CK0000001753+0000001753+000000000+000000246+0000001990+0000000009+I20000000000+0000001990+Z
347623001347623077-000309     347623006001023608604GIFT-BAG 25X32CM GLOSS 0000001000+00001753+00000+0001T   00001753+0000001200          1400 AN5112               2AZ
347624000347624               347624               170213CK     1400+00000+CK0000003942+0000003942+000000000+000000552+0000004490+0000000004+I20000000000+0000004490+Z
347624001347624903-000194     347624006009826020616SWT CHOC RP LOLLY 25G  0000003000+00001314+00000+0001T   00001314+0000001203          1400 AN5150               2AZ
347625000347625               347625               170213CK     1400+00000+CK0000002137+0000002137+000000000+000000301+0000002438+0000000000+I40000002438+0000000000+Z
347625001347625039-000026     347625006001023551610C/TAPERED 25CM M/RED   0000002000+00001051+00000+0001T   00001051+0000001205          1400 AN5510               2AZ
347625002347625112-116038     347625006009681820246TCS CARRIER BAG MIDI   0000001000+00000035+00000+0001T   00000035+0000001205          1400 AN5090               2AZ
347626000347626               347626               170213CK     1400+00000+CK0000002192+0000002192+000000000+000000307+0000002490+0000000009+I20000000000+0000002490+Z
347626001347626080-000127     347626006003000424351VALENTINES DAY 36x24CM 0000001000+00002192+00000+0001T   00002192+0000001205          1400 AN5112               2AZ
347627000347627               347627               170213CK     1400+00000+CK0000001578+0000001578+000000000+000000221+0000001799+0000000000+I40000001799+0000000000+Z
347627001347627077-000315     347627006003000181186GIFT-BAG 20x28cm MATT  0000001000+00001578+00000+0001T   00001578+0000001208          1400 AN5112               2AZ
347628000347628               347628               170213CK     1400+00000+CK0000002135+0000002135+000000000+000000301+0000002436+0000000000+I40000002436+0000000000+Z
347628001347628304-001011     347628006001023806727FLWR ROSE RED W/BEAR   0000002000+00000613+00000+0001T   00000788+0006471302          1400 AN5510               2AZ
347628002347628112-116038     347628006009681820246TCS CARRIER BAG MIDI   0000001000+00000035+00000+0001T   00000035+0000001302          1400 AN5090               2AZ
347628003347628080-000133-A   347628006003000647019MINI VALENTINES CARD   0000002000+00000437+00000+0001T   00000437+0000001302          1400 AN5112               2AZ
347629000347629               347629               170213CK     1400+00000+CK0000006139-0000006139-000000000+000000860-0000007000-0000000001+I20000000000+0000007000-Z
347629001347629264-000922     347629000090159250012MAISTO CAR PULL-BACK   0000001000-00006139+00000+0001T   00007016+0008191306          1400 AN57103IC            2 Z
347630000347630               347630               170213CK     1400+00000+CK0000001788+0000001788+000000000+000000251+0000002039+0000000000+I40000002039+0000000000+Z
347630001347630077-000309     347630006001023608604GIFT-BAG 25X32CM GLOSS 0000001000+00001753+00000+0001T   00001753+0000001310          1400 AN5112               2AZ
347630002347630112-116038     347630006009681820246TCS CARRIER BAG MIDI   0000001000+00000035+00000+0001T   00000035+0000001310          1400 AN5090               2AZ
347631000347631               347631               170213CK     1400+00000+CK0000001753+0000001753+000000000+000000246+0000001990+0000000009+I20000000000+0000001990+Z
347631001347631563-000317-K   347631006003000697885SERVIETTE 2PLY 33cm    0000001000+00001753+00000+0001T   00001753+0000001313          1400 AN5214               2AZ
347632000347632               347632               170213CK     1400+00000+CK0000003015+0000003015+000000000+000000423+0000003430+0000000008+I20000000000+0000003430+Z
347632001347632002-021040     347632006001023812216PARTY-PICKS 100PCE     0000001000+00000525+00000+0001T   00000525+0000001314          1400 AN5300               2AZ
347632002347632562-000009     347632000730589212029PLAY MODELLING CARDED  0000001000+00002455+00000+0001T   00002455+0000001314          1400 AN5755               2AZ
347632003347632112-116038     347632006009681820246TCS CARRIER BAG MIDI   0000001000+00000035+00000+0001T   00000035+0000001314          1400 AN5090               2AZ
347633000347633               347633               170213CK     1400+00000+CK0000001753+0000001753+000000000+000000246+0000001999+0000000000+I40000001999+0000000000+Z
347633001347633108-001028     347633006009654960733TUMBLERS PL SET-OF-6   0000001000+00001753+00000+0001T   00002630+0008171316          1400 AN5210               2AZ
347634000347634               347634               170213CK     1400+00000+CK0000001963+0000001963+000000000+000000275+0000002230+0000000008+I20000000000+0000002230+Z
347634001347634174-008024     347634006009654960368TRAVEL BOTTLES 2-PACK  0000001000+00001928+00000+0001T   00001928+0000001319          1400 AN5205               2AZ
347634002347634112-116038     347634006009681820246TCS CARRIER BAG MIDI   0000001000+00000035+00000+0001T   00000035+0000001319          1400 AN5090               2AZ
347635000347635               347635               170213CK     1400+00000+CK0000012314+0000012314+000000000+000001725+0000014039+0000000000+I40000014039+0000000000+Z
347635001347635368-000111     347635006001023780812PLUSH BEAR/DOG 29CM    0000001000+00012279+00000+0001T   00012279+0000001321          1400 AN5745               2AZ
347635002347635112-116038     347635006009681820246TCS CARRIER BAG MIDI   0000001000+00000035+00000+0001T   00000035+0000001321          1400 AN5090               2AZ
347636000347636               347636               170213CK     1400+00000+CK0000010995+0000010995+000000000+000001540+0000012535+0000000000+I40000012535+0000000000+Z
347636001347636563-000318-G   347636006003000404360SERVIETTES 33cm PINK   0000005000+00002192+00000+0001T   00002192+0000001322          1400 AN5214               2AZ
347636002347636112-116038     347636006009681820246TCS CARRIER BAG MIDI   0000001000+00000035+00000+0001T   00000035+0000001322          1400 AN5090               2AZ
347637000347637               347637               170213CK     1400+00000+CK0000004939+0000004939+000000000+000000693+0000005630+0000000002+I20000000000+0000005630+Z
347637001347637565-000044     347637006003000128280BARREL OF SLIME 100g   0000008000+00000613+00000+0001T   00000613+0000001323          1400 AN5745               2AZ
347637002347637112-116038     347637006009681820246TCS CARRIER BAG MIDI   0000001000+00000035+00000+0001T   00000035+0000001323          1400 AN5090               2AZ
347638000347638               347638               170213CK     1400+00000+CK0000000876+0000000876+000000000+000000123+0000000990+0000000009+I20000000000+0000000990+Z
347638001347638047-000505     347638006009636901976PLUG-ADAPTOR 2-PIN     0000001000+00000876+00000+0001T   00000876+0000001324          1400 AN5880               2AZ
347639000347639               347639               170213CK     1400+00000+CK0000002192+0000002192+000000000+000000307+0000002490+0000000009+I20000000000+0000002490+Z
347639001347639251-000002     347639006003000093991TAPE D-SIDED 24x1000mm 0000001000+00002192+00000+0001T   00002192+0000001326          1400 AN5810               2AZ
347640000347640               347640               170213CK     1400+00000+CK0000010553+0000010553+000000000+000001481+0000012034+0000000000+I40000012034+0000000000+Z
347640001347640019-000070     347640006003000297474VASE GLS CLEAR BOTTLE  0000002000+00004385+00000+0001T   00004385+0000001330          1400 AN5510               2AZ
347640002347640112-116038     347640006009681820246TCS CARRIER BAG MIDI   0000001000+00000035+00000+0001T   00000035+0000001330          1400 AN5090               2AZ
347640003347640080-000133-A   347640006003000647019MINI VALENTINES CARD   0000004000+00000437+00000+0001T   00000437+0000001330          1400 AN5112               2AZ
347641000347641               347641               170213CK     1400+00000+CK0000001402+0000001402+000000000+000000197+0000001590+0000000009+I20000000000+0000001590+Z
347641001347641105-000750     347641006003000190270CONTAINERS 4xMINI 150ml0000001000+00001402+00000+0001T   00001402+0000001331          1400 AN5210               2AZ
347642000347642               347642               170213CK     1400+00000+CK0000010993+0000010993+000000000+000001540+0000012533+0000000000+I40000012533+0000000000+Z
347642001347642301-085008     347642006003000673933ORN OCC.LOVE TINSEL HRT0000001000+00003069+00000+0001T   00003069+0000001334          1400 AN5505               2AZ
347642002347642006-000190     347642006003000685530BALLOONS LOVE 81x91cm  0000001000+00004385+00000+0001T   00004385+0000001334          1400 AN5131               2AZ
347642003347642006-000166-H   347642006003000608096BALLOONS HELIUM 6PC WHT0000001000+00001314+00000+0001T   00001314+0000001334          1400 AN5131               2AZ
347642004347642006-000166-D   347642006003000516490BALLOONS LRG 6PC RED   0000001000+00001314+00000+0001T   00001314+0000001334          1400 AN5131               2AZ
347642005347642112-116038     347642006009681820246TCS CARRIER BAG MIDI   0000001000+00000035+00000+0001T   00000035+0000001334          1400 AN5090               2AZ
347642006347642076-000017     347642006001811010022TWINE COTTON 50g-BALL  0000001000+00000876+00000+0001T   00000876+0000001334          1400 AN5810               2AZ
347643000347643               347643               170213CK     1400+00000+CK0000000874+0000000874+000000000+000000124+0000000998+0000000000+I40000000998+0000000000+Z
347643001347643080-000133-A   347643006003000647019MINI VALENTINES CARD   0000002000+00000437+00000+0001T   00000437+0000001336          1400 AN5112               2AZ
347644000347644               347644               170213CK     1400+00000+CK0000015836+0000015836+000000000+000002218+0000018054+0000000000+I40000018054+0000000000+Z
347644001347644301-001123     347644000694202803967ORN FOUNTAIN MEDITATION0000001000+00015788+00000+0001T   00015788+0000001339          1400 AN5505               2AZ
347644002347644112-116069     347644006009681820277TCS CARRIER BAG JUMBO  0000001000+00000048+00000+0001T   00000048+0000001339          1400 AN5090               2AZ
347645000347645               347645               170213CK     1400+00000+CK0000002192+0000002192+000000000+000000307+0000002490+0000000009+I20000000000+0000002490+Z
347645001347645080-000127     347645006003000424351VALENTINES DAY 36x24CM 0000001000+00002192+00000+0001T   00002192+0000001339          1400 AN5112               2AZ
347646000347646               347646               170213CK     1400+00000+CK0000003507+0000003507+000000000+000000491+0000003998+0000000000+I40000003998+0000000000+Z
347646001347646018-000136     347646006001023659026MUG OCC LOVE W/PLUSH   0000001000+00003507+00000+0001T   00003507+0000001342          1400 AN5515               2AZ
347647000347647               347647               170213CK     1400+00000+CK0000002629+0000002629+000000000+000000369+0000002990+0000000008+I20000000000+0000002990+Z
347647001347647071-001239     347647006001023762672ERASER PL ASSTD-COLOURS0000001000+00000876+00000+0001T   00000876+0000001343          1400 AN5130               2AZ
347647002347647079-000572     347647006003000533633ART+CRAFT O/PASTEL 12PC0000001000+00001753+00000+0001T   00001753+0000001343          1400 AN5130               2AZ
347648000347648               347648               170213CK     1400+00000+CK0000003155+0000003155+000000000+000000443+0000003590+0000000008+I20000000000+0000003590+Z
347648001347648105-000750     347648006003000190270CONTAINERS 4xMINI 150ml0000001000+00001402+00000+0001T   00001402+0000001343          1400 AN5210               2AZ
347648002347648079-000275     347648006003000160488PAINT-BRUSHES 6PCE PRO 0000001000+00001753+00000+0001T   00001753+0000001343          1400 AN5130               2AZ
347649000347649               347649               170213CK     1400+00000+CK0000010961+0000010961+000000000+000001536+0000012490+0000000007+I20000000000+0000012490+Z
347649001347649369-000240     347649006001023857224BABY EDU K/RING 21x10cm0000001000+00001753+00000+0001T   00001753+0000001344          1400 AN5745               2AZ
347649002347649369-001006     347649006001023400345VINYL SQUEAKY TOYS 6PCE0000001000+00006139+00000+0001T   00006139+0000001344          1400 AN5745               2AZ
347649003347649365-003056     347649006009635021453KIDDIES WOODEN BROOM   0000001000+00003069+00000+0001T   00003069+0000001344          1400 AN5725               2AZ
347650000347650               347650               170213CK     1400+00000+CK0000005960+0000005960+000000000+000000836+0000006796+0000000000+I40000006796+0000000000+Z
347650001347650077-000011-C   347650006001023808523TISSUE 10xSHTS RED     0000001000+00000876+00000+0001T   00000876+0000001346          1400 AN5112               2AZ
347650002347650077-000315     347650006003000181186GIFT-BAG 20x28cm MATT  0000001000+00001578+00000+0001T   00001578+0000001346          1400 AN5112               2AZ
347650003347650566-002004     347650006001023672421STICKERS CRYSTAL SHAPES0000001000+00001753+00000+0001T   00001753+0000001346          1400 AN5130               2AZ
347650004347650566-000362     347650006003000583065STICKER LETTER & NUMBER0000001000+00001753+00000+0001T   00001753+0000001346          1400 AN5130               2AZ
347651000347651               347651               170213CK     1400+00000+CK0000001788+0000001788+000000000+000000251+0000002030+0000000009+I20000000000+0000002030+Z
347651001347651133-000018     347651006003000583218SWAB MICROFIBRE 30x30cm0000001000+00001753+00000+0001T   00001753+0000001355          1400 AN5212               2AZ
347651002347651112-116038     347651006009681820246TCS CARRIER BAG MIDI   0000001000+00000035+00000+0001T   00000035+0000001355          1400 AN5090               2AZ
347652000347652               347652               170213CK     1400+00000+CK0000003946+0000003946+000000000+000000553+0000004490+0000000009+I20000000000+0000004490+Z
347652001347652566-000358     347652006003000582587STICKER ROOM DECOR WORD0000001000+00003946+00000+0001T   00003946+0000001355          1400 AN5130               2AZ
347653000347653               347653               170213CK     1400+00000+CK0000001400+0000001400+000000000+000000196+0000001590+0000000006+I20000000000+0000001590+Z
347653001347653564-000012     347653006001023130075BUBBLE BOTTLE MAGIC    0000002000+00000700+00000+0001T   00000700+0000001356          1400 AN5131               2AZ
347654000347654               347654               170213CK     1400+00000+CK0000002629+0000002629+000000000+000000369+0000002990+0000000008+I20000000000+0000002990+Z
347654001347654140-006004     347654006001023628077FLY-SWATTER RUBBER     0000001000+00001139+00000+0001T   00001139+0000001357          1400 AN5830               2AZ
347654002347654565-004101     347654006003000548033BALL BOUNCING EGG      0000001000+00001490+00000+0001T   00001490+0000001357          1400 AN5745               2AZ
347655000347655               347655               170213CK     1400+00000+CK0000003678+0000003678+000000000+000000516+0000004190+0000000004+I20000000000+0000004190+Z
347655001347655304-001011     347655006001023806727FLWR ROSE RED W/BEAR   0000006000+00000613+00000+0001T   00000788+0006471358          1400 AN5510               2AZ
347656000347656               347656               170213CK     1400+00000+CK0000020301+0000020301+000000000+000002845+0000023140+0000000006+I20000000000+0000023140+Z
347656001347656112-116069     347656006009681820277TCS CARRIER BAG JUMBO  0000001000+00000048+00000+0001T   00000048+0000001402          1400 AN5090               2AZ
347656002347656002-220006     347656006001023670342FOOD COVER 43CM ASSTD  0000001000+00003069+00000+0001T   00003069+0000001402          1400 AN5300               2AZ
347656003347656140-006004     347656006001023628077FLY-SWATTER RUBBER     0000001000+00001139+00000+0001T   00001139+0000001402          1400 AN5830               2AZ
347656004347656158-008936     347656006001023653758PAPER-TOWEL-HOLDER FLWR0000001000+00002192+00000+0001T   00002192+0000001402          1400 AN5300               2AZ
347656005347656158-003007     347656006003000638116FRUIT BASKET CHROME    0000001000+00006139+00000+0001T   00006139+0000001402          1400 AN5300               2AZ
347656006347656002-021040     347656006001023812216PARTY-PICKS 100PCE     0000001000+00000525+00000+0001T   00000525+0000001402          1400 AN5300               2AZ
347656007347656027-783002     347656006001023874658SCOURERS FOAM PACK OF 30000001000+00001490+00000+0001T   00001490+0000001402          1400 AN5212               2AZ
347656008347656033-000782     347656006001023905482COSMETIC SPONGES 12PC  0000001000+00002192+00000+0001T   00002192+0000001402          1400 AN5200               2AZ
347656009347656104-000027     347656006003000571284BASKET RECTANGULAR     0000001000+00003507+00000+0001T   00003507+0000001402          1400 AN5210               2AZ
347657000347657               347657               170213CK     1400+00000+CK0000007451+0000007451+000000000+000001044+0000008495+0000000000+I40000008495+0000000000+Z
347657001347657903-000194     347657006009826020616SWT CHOC RP LOLLY 25G  0000001000+00001314+00000+0001T   00001314+0000001407          1400 AN5150               2AZ
347657002347657304-001011     347657006001023806727FLWR ROSE RED W/BEAR   0000001000+00000613+00000+0001T   00000788+0006471407          1400 AN5510               2AZ
347657003347657368-000152     347657006003000166886PLUSH BEAR 15cm        0000001000+00003946+00000+0001T   00005262+0008141407          1400 AN5745               2AZ
347657004347657077-000303     347657006001023593757GIFT-BAG PAPER MED     0000001000+00001578+00000+0001T   00001578+0000001407          1400 AN5112               2AZ
347658000347658               347658               170213CK     1400+00000+CK0000004382+0000004382+000000000+000000614+0000004996+0000000000+I40000004996+0000000000+Z
347658001347658024-091103     347658006003453014307BAKING-CUP MUFFIN 50PCE0000001000+00002192+00000+0001T   00002192+0000001408          1400 AN5300               2AZ
347658002347658077-000314     347658006003000181148GIFT-BAG 11X14CM MATT  0000001000+00000876+00000+0001T   00000876+0000001408          1400 AN5112               2AZ
347658003347658077-000310     347658006001023608635GIFT-BAG 18X23CM GLOSS 0000001000+00001314+00000+0001T   00001314+0000001408          1400 AN5112               2AZ
347659000347659               347659               170213CK     1400+00000+CK0000001839+0000001839+000000000+000000258+0000002090+0000000007+I20000000000+0000002090+Z
347659001347659304-001011     347659006001023806727FLWR ROSE RED W/BEAR   0000003000+00000613+00000+0001T   00000788+0006471409          1400 AN5510               2AZ
347660000347660               347660               170213CK     1400+00000+CK0000014943+0000014943+000000000+000002093+0000017030+0000000006+I20000000000+0000017030+Z
347660001347660018-030000     347660006003000421060MUG OCCASIONS LOVE 2PCE0000002000+00004385+00000+0001T   00004385+0000001412          1400 AN5515               2AZ
347660002347660089-060027     347660006003000245871KEY-CHAIN HEART 6X6cm  0000002000+00003069+00000+0001T   00003069+0000001412          1400 AN5205               2AZ
347660003347660112-116038     347660006009681820246TCS CARRIER BAG MIDI   0000001000+00000035+00000+0001T   00000035+0000001412          1400 AN5090               2AZ
347661000347661               347661               170213CK     1400+00000+CK0000001402+0000001402+000000000+000000197+0000001590+0000000009+I20000000000+0000001590+Z
347661001347661046-000011     347661004897006172994BATTERIES SIZE:AA  2PCE0000001000+00001402+00000+0001T   00001402+0000001415          1400 AN5312               2AZ
347662000347662               347662               170213CK     1400+00000+CK0000007485+0000007485+000000000+000001050+0000008530+0000000005+I20000000000+0000008530+Z
347662001347662028-000796     347662006001023812094SKEWERS 25cm 50PCE 4mm 0000005000+00001490+00000+0001T   00001490+0000001418          1400 AN5305               2AZ
347662002347662112-116038     347662006009681820246TCS CARRIER BAG MIDI   0000001000+00000035+00000+0001T   00000035+0000001418          1400 AN5090               2AZ
347663000347663               347663               170213CK     1400+00000+CK0000003854+0000003854+000000000+000000542+0000004390+0000000006+I20000000000+0000004390+Z
347663001347663140-006004     347663006001023628077FLY-SWATTER RUBBER     0000002000+00001139+00000+0001T   00001139+0000001421          1400 AN5830               2AZ
347663002347663903-000138     347663006002099004314SWT GS WINE GUMS 60G   0000002000+00000788+00000+0001T   00000788+0000001421          1400 AN5150               2AZ
347664000347664               347664               170213CK     1400+00000+CK0000001490+0000001490+000000000+000000209+0000001690+0000000009+I20000000000+0000001690+Z
347664001347664077-000299     347664006003000395576G/BAG 32x25cm LRG LOVE 0000001000+00001490+00000+0001T   00001490+0000001424          1400 AN5112               2AZ
347665000347665               347665               170213CK     1400+00000+CK0000005031+0000005031+000000000+000000705+0000005736+0000000000+I40000005736+0000000000+Z
347665001347665018-000127     347665006001023380289MUG OCC STRAIGHT LOVE  0000001000+00001578+00000+0001T   00001753+0006471433          1400 AN5515               2AZ
347665002347665304-001011     347665006001023806727FLWR ROSE RED W/BEAR   0000002000+00000613+00000+0001T   00000788+0006471433          1400 AN5510               2AZ
347665003347665080-000127     347665006003000424351VALENTINES DAY 36x24CM 0000001000+00002192+00000+0001T   00002192+0000001433          1400 AN5112               2AZ
347665004347665112-116038     347665006009681820246TCS CARRIER BAG MIDI   0000001000+00000035+00000+0001T   00000035+0000001433          1400 AN5090               2AZ
347666000347666               347666               170213CK     1400+00000+CK0000003506+0000003506+000000000+000000492+0000003990+0000000008+I20000000000+0000003990+Z
347666001347666080-000100     347666006003000236114CARD & ENVELOPE BDAY   0000001000+00001753+00000+0001T   00001753+0000001435          1400 AN5112               2AZ
347666002347666077-000471     347666006003000330096G-BAG DESGN MED 18X23CM0000001000+00001753+00000+0001T   00001753+0000001435          1400 AN5112               2AZ
347667000347667               347667               170213CK     1400+00000+CK0000001753+0000001753+000000000+000000246+0000001990+0000000009+I20000000000+0000001990+Z
347667001347667080-000110     347667006003000237326CARD&ENVLPE BDAY-FUNNY 0000001000+00001753+00000+0001T   00001753+0000001441          1400 AN5112               2AZ
347668000347668               347668               170213CK     1400+00000+CK0000013100+0000013100+000000000+000001836+0000014936+0000000000+I40000014936+0000000000+Z
347668001347668033-001403     347668006009654960504HAIR-CURLERS 4PC X-LRG 0000001000+00001227+00000+0001T   00001227+0000001444          1400 AN5200               2AZ
347668002347668032-000333     347668006003000220236MIRROR WALL 4PC SET    0000003000+00003946+00000+0001T   00003946+0000001444          1400 AN5510               2AZ
347668003347668112-116038     347668006009681820246TCS CARRIER BAG MIDI   0000001000+00000035+00000+0001T   00000035+0000001444          1400 AN5090               2AZ
347669000347669               347669               170213CK     1400+00000+CK0000002190+0000002190+000000000+000000307+0000002490+0000000007+I20000000000+0000002490+Z
347669001347669079-006494     347669006003000159864GLITTER GLUE 5PCE 11cm 0000001000+00001490+00000+0001T   00001490+0000001445          1400 AN5130               2AZ
347669002347669566-002000     347669000721129013206STICKERS CRYSTAL ASSTD 0000001000+00000700+00000+0001T   00000700+0000001445          1400 AN5130               2AZ
347670000347670               347670               170213CK     1400+00000+CK0000004384+0000004384+000000000+000000614+0000004990+0000000008+I20000000000+0000004990+Z
347670001347670077-000509     347670006003000082582GIFT-BAG SML 6PCE ORG P0000002000+00002192+00000+0001T   00002192+0000001447          1400 AN5112               2AZ
347671000347671               347671               170213CK     1400+00000+CK0000000035+0000000035+000000000+000000005+0000000040+0000000000+I20000000000+0000000040+Z
347671001347671112-116038     347671006009681820246TCS CARRIER BAG MIDI   0000001000+00000035+00000+0001T   00000035+0000001447          1400 AN5090               2AZ
347672000347672               347672               170213CK     1400+00000+CK0000004385+0000004385+000000000+000000614+0000004999+0000000000+I40000004999+0000000000+Z
347672001347672001-000175     347672006001023788108B/MUG GLS LOVE 380ML   0000001000+00004385+00000+0001T   00004385+0000001449          1400 AN5515               2AZ
347673000347673               347673               170213CK     1400+00000+CK0000001753+0000001753+000000000+000000246+0000001990+0000000009+I20000000000+0000001990+Z
347673001347673080-000103     347673006003000236961CARD&ENVLOPE BDAY-MALE 0000001000+00001753+00000+0001T   00001753+0000001449          1400 AN5112               2AZ
347674000347674               347674               170213CK     1400+00000+CK0000000876+0000000876+000000000+000000123+0000000999+0000000000+I40000000999+0000000000+Z
347674001347674031-000878-A   347674006001023798985P/FRAME 10x15cm PL-SLID0000001000+00000876+00000+0001T   00000876+0000001454          1400 AN5510               2AZ
347675000347675               347675               170213CK     1400+00000+CK0000001490+0000001490+000000000+000000209+0000001690+0000000009+I20000000000+0000001690+Z
347675001347675019-071610     347675006001023904560PEBBLES WATER GEMS 10g 0000001000+00001490+00000+0001T   00001490+0000001500          1400 AN5510               2AZ
347676000347676               347676               170213CK     1400+00000+CK0000001490+0000001490+000000000+000000209+0000001690+0000000009+I20000000000+0000001690+Z
347676001347676077-000299     347676006003000395576G/BAG 32x25cm LRG LOVE 0000001000+00001490+00000+0001T   00001490+0000001501          1400 AN5112               2AZ
347677000347677               347677               170213CK     1400+00000+CK0000006661+0000006661+000000000+000000934+0000007590+0000000005+I20000000000+0000007590+Z
347677001347677077-000311     347677006001023608666GIFT-BAG 11X14CM GLOSS 0000001000+00000613+00000+0001T   00000613+0000001506          1400 AN5112               2AZ
347677002347677089-000033     347677006003000621217KEY CHAIN MOM POLY ASST0000001000+00001753+00000+0001T   00002630+0008121506          1400 AN5205               2AZ
347677003347677903-000138     347677006002099004314SWT GS WINE GUMS 60G   0000001000+00000788+00000+0001T   00000788+0000001506          1400 AN5150               2AZ
347677005347677560-000189     347677006003000592357ANIMALS SNAKE 78cm     0000001000+00003507+00000+0001T   00003507+0000001506          1400 AN5745               2AZ
347678000347678               347678               170213CK     1400+00000+CK0000003856+0000003856+000000000+000000541+0000004390+0000000007+I20000000000+0000004390+Z
347678001347678077-000011-C   347678006001023808523TISSUE 10xSHTS RED     0000001000+00000876+00000+0001T   00000876+0000001506          1400 AN5112               2AZ
347678002347678077-000299     347678006003000395576G/BAG 32x25cm LRG LOVE 0000002000+00001490+00000+0001T   00001490+0000001506          1400 AN5112               2AZ
347679000347679               347679               170213CK     1400+00000+CK0000003069+0000003069+000000000+000000430+0000003499+0000000000+I40000003499+0000000000+Z
347679001347679050-000262-Z   347679006001023475237PADLOCK BRS 25mm CARDED0000001000+00003069+00000+0001T   00003069+0000001509          1400 AN5855               2AZ
347680000347680               347680               170213CK     1400+00000+CK0000002628+0000002628+000000000+000000368+0000002990+0000000006+I20000000000+0000002990+Z
347680001347680107-004105     347680006009703860984BUCKET 9L OPEN         0000002000+00001314+00000+0001T   00001314+0000001509          1400 AN5210               2AZ
347681000347681               347681               170213CK     1400+00000+CK0000002630+0000002630+000000000+000000369+0000002990+0000000009+I20000000000+0000002990+Z
347681001347681206-000620     347681006003000631797BACK SCRATCHER EXTEND  0000001000+00002630+00000+0001T   00002630+0000001511          1400 AN5321               2AZ
347682000347682               347682               170213CK     1400+00000+CK0000005961+0000005961+000000000+000000836+0000006797+0000000000+I40000006797+0000000000+Z
347682001347682077-000010-C   347682006001023123879CREPE-PAPER RED        0000002000+00000788+00000+0001T   00000788+0000001512          1400 AN5112               2AZ
347682002347682030-000031-A   347682006003000457588PLAQUE W/WORDS ASSTD   0000001000+00004385+00000+0001T   00004823+0006471512          1400 AN5505               2AZ
347683000347683               347683               170213CK     1400+00000+CK0000002192+0000002192+000000000+000000307+0000002490+0000000009+I20000000000+0000002490+Z
347683001347683033-006004     347683006001023703316SEWING-KIT IN-POUCH    0000001000+00002192+00000+0001T   00002192+0000001512          1400 AN5200               2AZ
347684000347684               347684               170213CK     1400+00000+CK0000003156+0000003156+000000000+000000442+0000003598+0000000000+I40000003598+0000000000+Z
347684001347684566-001234     347684006003000217793STICKERS LASER ASSTD   0000002000+00001578+00000+0001T   00001578+0000001525          1400 AN5130               2AZ
347685000347685               347685               170213CK     1400+00000+CK0000014779+0000014779+000000000+000002071+0000016850+0000000000+I40000016850+0000000000+Z
347685001347685077-000270     347685006003000395453GIFT-BAG PPR JMB 33X45 0000001000+00002630+00000+0001T   00002630+0000001529          1400 AN5112               2AZ
347685002347685080-000124     347685006003000297733CARD & ENV VALENTINES  0000001000+00001578+00000+0001T   00001578+0000001529          1400 AN5112               2AZ
347685003347685566-000068     347685006003000418046POP UP LOVE 2 ASSTD    0000001000+00002192+00000+0001T   00002192+0000001529          1400 AN5130               2AZ
347685004347685018-000170     347685006001023775528MUG OCC. LOVE 2PC MINI 0000001000+00002192+00000+0001T   00002192+0000001529          1400 AN5515               2AZ
347685005347685368-000265     347685006001023750914PLUSH BEAR 23CM ASSTD C0000001000+00006139+00000+0001T   00006139+0000001529          1400 AN5745               2AZ
347685006347685112-116069     347685006009681820277TCS CARRIER BAG JUMBO  0000001000+00000048+00000+0001T   00000048+0000001529          1400 AN5090               2AZ
347686000347686               347686               170213CK     1400+00000+CK0000003506+0000003506+000000000+000000491+0000003997+0000000000+I40000003997+0000000000+Z
347686001347686566-000991     347686000721129013121STICKERS GLOW-IN-DARK  0000001000+00002192+00000+0001T   00002192+0000001530          1400 AN5130               2AZ
347686002347686566-000992     347686006001023600639STICKERS GLOW-IN-DARK  0000001000+00001314+00000+0001T   00001314+0000001530          1400 AN5130               2AZ
347687000347687               347687               170213CK     1400+00000+CK0000003507+0000003507+000000000+000000491+0000003990+0000000008+I20000000000+0000003990+Z
347687001347687072-020264     347687006001023602565PET DOG CLEAN-UP BAGS  0000001000+00003507+00000+0001T   00003507+0000001531          1400 AN5870               2AZ
347688000347688               347688               170213CK     1400+00000+CK0000004115+0000004115+000000000+000000577+0000004692+0000000000+I40000004692+0000000000+Z
347688001347688566-001108     347688000721129017341NAIL-JEWELLERY ASSTD   0000001000+00000876+00000+0001T   00000876+0000001533          1400 AN5130               2AZ
347688002347688018-000177     347688006001023797513MUG MINI LOVE ASSTD    0000003000+00000700+00000+0001T   00000700+0000001533          1400 AN5515               2AZ
347688003347688903-000087     347688006001704000161SWT SPECKLED-EGGS 50G  0000001000+00001139+00000+0001T   00001139+0000001533          1400 AN5150               2AZ
347689000347689               347689               170213CK     1400+00000+CK0000001578+0000001578+000000000+000000221+0000001799+0000000000+I40000001799+0000000000+Z
347689001347689018-000127     347689006001023380289MUG OCC STRAIGHT LOVE  0000001000+00001578+00000+0001T   00001753+0006471534          1400 AN5515               2AZ
347690000347690               347690               170213CK     1400+00000+CK0000001490+0000001490+000000000+000000209+0000001690+0000000009+I20000000000+0000001690+Z
347690001347690071-005214     347690006003000152544CELLOTAPE SUPER REFILL 0000001000+00001490+00000+0001T   00001490+0000001534          1400 AN5130               2AZ
347691000347691               347691               170213CK     1400+00000+CK0000012102+0000012102+000000000+000001695+0000013797+0000000000+I40000013797+0000000000+Z
347691001347691030-000031-A   347691006003000457588PLAQUE W/WORDS ASSTD   0000001000+00004385+00000+0001T   00004823+0006471535          1400 AN5505               2AZ
347691002347691368-000664     347691006001023874399PLUSH BEAR/DOG/MOUSE   0000001000+00006139+00000+0001T   00007893+0008141535          1400 AN5745               2AZ
347691003347691077-000303     347691006001023593757GIFT-BAG PAPER MED     0000001000+00001578+00000+0001T   00001578+0000001535          1400 AN5112               2AZ
347692000347692               347692               170213CK     1400+00000+CK0000012094+0000012094+000000000+000001696+0000013790+0000000000+I20000000000+0000013790+Z
347692001347692077-000303     347692006001023593757GIFT-BAG PAPER MED     0000001000+00001578+00000+0001T   00001578+0000001537          1400 AN5112               2AZ
347692002347692077-000270     347692006003000395453GIFT-BAG PPR JMB 33X45 0000002000+00002630+00000+0001T   00002630+0000001537          1400 AN5112               2AZ
347692003347692304-001011     347692006001023806727FLWR ROSE RED W/BEAR   0000006000+00000613+00000+0001T   00000788+0006471537          1400 AN5510               2AZ
347692004347692018-000127     347692006001023380289MUG OCC STRAIGHT LOVE  0000001000+00001578+00000+0001T   00001753+0006471537          1400 AN5515               2AZ
347693000347693               347693               170213CK     1400+00000+CK0000000088-0000000088-000000000+000000012-0000000100-0000000000+I20000000000+0000000100-Z
347693001347693077-000303     347693006001023593757GIFT-BAG PAPER MED     0000001000-00001578+00000+0001T   00001578+0000001539          1400 AN51123IC            2 Z
347693002347693077-000299     347693006003000395576G/BAG 32x25cm LRG LOVE 0000001000+00001490+00000+0001T   00001490+0000001539          1400 AN5112               2 Z
347694000347694               347694               170213CK     1400+00000+CK0000006874+0000006874+000000000+000000963+0000007830+0000000007+I20000000000+0000007830+Z
347694001347694018-050000     347694006003000412679MUG OCC LOVE TWIN BEAR 0000001000+00006139+00000+0001T   00006139+0000001540          1400 AN5515               2AZ
347694002347694018-000177     347694006001023797513MUG MINI LOVE ASSTD    0000001000+00000700+00000+0001T   00000700+0000001540          1400 AN5515               2AZ
347694003347694112-116038     347694006009681820246TCS CARRIER BAG MIDI   0000001000+00000035+00000+0001T   00000035+0000001540          1400 AN5090               2AZ
347695000347695               347695               170213CK     1400+00000+CK0000009426+0000009426+000000000+000001322+0000010748+0000000000+I40000010748+0000000000+Z
347695001347695071-001015     347695006001023910387MARKERS PERMANENT 3PK  0000001000+00001753+00000+0001T   00001753+0000001546          1400 AN5130               2AZ
347695002347695077-000932     347695006003000409808G/WRAP 700mmx5m PATTERN0000001000+00003507+00000+0001T   00003507+0000001546          1400 AN5112               2AZ
347695003347695024-000100     347695006003000173310CAKE TESTER            0000001000+00001490+00000+0001T   00001490+0000001546          1400 AN5300               2AZ
347695004347695007-000235     347695006003000134434LABELS RECTANGULAR 60pc0000003000+00000876+00000+0001T   00000876+0000001546          1400 AN5130               2AZ
347695005347695112-116069     347695006009681820277TCS CARRIER BAG JUMBO  0000001000+00000048+00000+0001T   00000048+0000001546          1400 AN5090               2AZ
347696000347696               347696               170213CK     1400+00000+CK0000002192+0000002192+000000000+000000307+0000002490+0000000009+I20000000000+0000002490+Z
347696001347696046-000012-A   347696006003000208296BATTERIES H/POWER SZ:AA0000001000+00002192+00000+0001T   00002192+0000001547          1400 AN5312               2AZ
347697000347697               347697               170213CK     1400+00000+CK0000014073+0000014073+000000000+000001974+0000016047+0000000000+I40000016047+0000000000+Z
347697001347697031-000868-C   347697006001023798596P/FRAME PL BLCK 20X25CM0000001000+00003507+00000+0001T   00003507+0000001549          1400 AN5510               2AZ
347697002347697112-116069     347697006009681820277TCS CARRIER BAG JUMBO  0000001000+00000048+00000+0001T   00000048+0000001549          1400 AN5090               2AZ
347697003347697031-005820     347697006001023667816P/FRAME-CLIP 15X20CM   0000006000+00001753+00000+0001T   00001753+0000001549          1400 AN5510               2AZ
347698000347698               347698               170213CK     1400+00000+CK0000001578+0000001578+000000000+000000221+0000001790+0000000009+I20000000000+0000001790+Z
347698001347698077-000303     347698006001023593757GIFT-BAG PAPER MED     0000001000+00001578+00000+0001T   00001578+0000001550          1400 AN5112               2AZ
347699000347699               347699               170213CK     1400+00000+CK0000002629+0000002629+000000000+000000369+0000002990+0000000008+I20000000000+0000002990+Z
347699001347699077-000011-L   347699006001023808585P/TISSUE BRIGHT 10SHEET0000001000+00000876+00000+0001T   00000876+0000001550          1400 AN5112               2AZ
347699002347699077-000354     347699006003000139224GIFT-BAG 25X32CM H/MADE0000001000+00001753+00000+0001T   00001753+0000001550          1400 AN5112               2AZ
347700000347700               347700               170213CK     1400+00000+CK0000001139+0000001139+000000000+000000160+0000001290+0000000009+I20000000000+0000001290+Z
347700001347700903-000087     347700006001704000161SWT SPECKLED-EGGS 50G  0000001000+00001139+00000+0001T   00001139+0000001551          1400 AN5150               2AZ
347701000347701               347701               170213CK     1400+00000+CK0000010560+0000010560+000000000+000001479+0000012030+0000000009+I20000000000+0000012030+Z
347701001347701361-008869     347701006003000541416DOLL BODICE SET STYLING0000001000+00010525+00000+0001T   00010525+0000001553          1400 AN5725               2AZ
347701002347701112-116038     347701006009681820246TCS CARRIER BAG MIDI   0000001000+00000035+00000+0001T   00000035+0000001553          1400 AN5090               2AZ
347702000347702               347702               170213CK     1400+00000+CK0000003541+0000003541+000000000+000000497+0000004030+0000000008+I20000000000+0000004030+Z
347702001347702306-000021-C   347702006003000567294EARBUDS 300PCE IN TUB  0000001000+00001753+00000+0001T   00001753+0000001557          1400 AN5200               2AZ
347702002347702034-078800     347702006001023856555COOEY WET-WIPES 60PCE  0000001000+00001753+00000+0001T   00001753+0000001557          1400 AN5215               2AZ
347702003347702112-116038     347702006009681820246TCS CARRIER BAG MIDI   0000001000+00000035+00000+0001T   00000035+0000001557          1400 AN5090               2AZ
347703000347703               347703               170213CK     1400+00000+CK0000002940+0000002940+000000000+000000412+0000003350+0000000002+I20000000000+0000003350+Z
347703001347703018-000177     347703006001023797513MUG MINI LOVE ASSTD    0000001000+00000700+00000+0001T   00000700+0000001558          1400 AN5515               2AZ
347703002347703080-000127     347703006003000424351VALENTINES DAY 36x24CM 0000001000+00002192+00000+0001T   00002192+0000001558          1400 AN5112               2AZ
347703003347703112-116069     347703006009681820277TCS CARRIER BAG JUMBO  0000001000+00000048+00000+0001T   00000048+0000001558          1400 AN5090               2AZ
347704000347704               347704               170213CK     1400+00000+CK0000004385+0000004385+000000000+000000614+0000004990+0000000009+I20000000000+0000004990+Z
347704001347704079-001001     347704006003000448593CANVAS A3 WOOD MOUNTED 0000001000+00004385+00000+0001T   00004385+0000001605          1400 AN5130               2AZ
347705000347705               347705               170213CK     1400+00000+CK0000004646+0000004646+000000000+000000651+0000005297+0000000000+I40000005297+0000000000+Z
347705001347705077-000315     347705006003000181186GIFT-BAG 20x28cm MATT  0000001000+00001578+00000+0001T   00001578+0000001607          1400 AN5112               2AZ
347705002347705565-000085     347705006003000643332NOVELTY BEEDZ 10g      0000001000+00002455+00000+0001T   00002455+0000001607          1400 AN5745               2AZ
347705003347705304-001011     347705006001023806727FLWR ROSE RED W/BEAR   0000001000+00000613+00000+0001T   00000788+0006471607          1400 AN5510               2AZ
347706000347706               347706               170213CK     1400+00000+CK0000002665+0000002665+000000000+000000374+0000003030+0000000009+I20000000000+0000003030+Z
347706001347706077-000512     347706006003000590223GIFT-BAG DESIGNER LRG  0000001000+00002630+00000+0001T   00002630+0000001608          1400 AN5112               2AZ
347706002347706112-116038     347706006009681820246TCS CARRIER BAG MIDI   0000001000+00000035+00000+0001T   00000035+0000001608          1400 AN5090               2AZ
347707000347707               347707               170213CK     1400+00000+CK0000006436+0000006436+000000000+000000902+0000007330+0000000008+I20000000000+0000007330+Z
347707001347707108-003007     347707006002923006590MUG PL 375ml           0000001000+00000262+00000+0001T   00000262+0000001609          1400 AN5210               2AZ
347707002347707018-005007     347707006003000515516MUG OCC. LOVE W/HEARTS 0000001000+00006139+00000+0001T   00006139+0000001609          1400 AN5515               2AZ
347707003347707112-116038     347707006009681820246TCS CARRIER BAG MIDI   0000001000+00000035+00000+0001T   00000035+0000001609          1400 AN5090               2AZ
347708000347708               347708               170213CK     1400+00000+CK0000002366+0000002366+000000000+000000332+0000002690+0000000008+I20000000000+0000002690+Z
347708001347708077-000011-X   347708006001023809827TISSUE-WRAP SILVER 10PC0000001000+00001753+00000+0001T   00001753+0000001610          1400 AN5112               2AZ
347708002347708077-000311     347708006001023608666GIFT-BAG 11X14CM GLOSS 0000001000+00000613+00000+0001T   00000613+0000001610          1400 AN5112               2AZ
347709000347709               347709               170213CK     1400+00000+CK0000001578+0000001578+000000000+000000221+0000001790+0000000009+I20000000000+0000001790+Z
347709001347709077-000303     347709006001023593757GIFT-BAG PAPER MED     0000001000+00001578+00000+0001T   00001578+0000001610          1400 AN5112               2AZ
347710000347710               347710               170213CK     1400+00000+CK0000003068+0000003068+000000000+000000430+0000003498+0000000000+I40000003498+0000000000+Z
347710001347710018-000127     347710006001023380289MUG OCC STRAIGHT LOVE  0000001000+00001578+00000+0001T   00001753+0006471611          1400 AN5515               2AZ
347710002347710077-000384     347710006003000275243G/BAG HOT STMP 18x23CM 0000001000+00001490+00000+0001T   00001490+0000001611          1400 AN5112               2AZ
347711000347711               347711               170213CK     1400+00000+CK0000006433+0000006433+000000000+000000903+0000007330+0000000006+I20000000000+0000007330+Z
347711001347711903-000095     347711006001704011495SWT SPECKLED-EGGS 100G 0000001000+00002104+00000+0001T   00002104+0000001614          1400 AN5150               2AZ
347711002347711106-001109     347711006003000666355W/BOTTLE 650ml         0000001000+00002630+00000+0001T   00002630+0000001614          1400 AN5210               2AZ
347711003347711903-000138     347711006002099004314SWT GS WINE GUMS 60G   0000001000+00000788+00000+0001T   00000788+0000001614          1400 AN5150               2AZ
347711004347711903-000503     347711006001704006118SWT VAMPIRE FANGS 60G  0000001000+00000876+00000+0001T   00000876+0000001614          1400 AN5150               2AZ
347711005347711112-116038     347711006009681820246TCS CARRIER BAG MIDI   0000001000+00000035+00000+0001T   00000035+0000001614          1400 AN5090               2AZ
347712000347712               347712               170213CK     1400+00000+CK0000006259+0000006259+000000000+000000877+0000007136+0000000000+I40000007136+0000000000+Z
347712001347712077-000303     347712006001023593757GIFT-BAG PAPER MED     0000001000+00001578+00000+0001T   00001578+0000001618          1400 AN5112               2AZ
347712002347712031-000025     347712006003000427185P/FRAME PL MOMMY       0000001000+00003507+00000+0001T   00003507+0000001618          1400 AN5510               2AZ
347712003347712112-116038     347712006009681820246TCS CARRIER BAG MIDI   0000001000+00000035+00000+0001T   00000035+0000001618          1400 AN5090               2AZ
347712004347712903-000087     347712006001704000161SWT SPECKLED-EGGS 50G  0000001000+00001139+00000+0001T   00001139+0000001618          1400 AN5150               2AZ
347713000347713               347713               170213CK     1400+00000+CK0000003945+0000003945+000000000+000000553+0000004498+0000000000+I40000004498+0000000000+Z
347713001347713566-000359     347713006003000582709STICKER BOOK LOVE SPARK0000001000+00002192+00000+0001T   00002192+0000001619          1400 AN5130               2AZ
347713002347713077-000328     347713006003000668939GIFT-BAG PAPER JMB     0000001000+00001753+00000+0001T   00001753+0000001619          1400 AN5112               2AZ
347714000347714               347714               170213CK     1400+00000+CK0000006173+0000006173+000000000+000000865+0000007030+0000000008+I20000000000+0000007030+Z
347714001347714001-000175     347714006001023788108B/MUG GLS LOVE 380ML   0000001000+00004385+00000+0001T   00004385+0000001619          1400 AN5515               2AZ
347714002347714089-000030     347714006003000575671K/CHAIN LOVE MTL ASSTD 0000001000+00001753+00000+0001T   00001753+0000001619          1400 AN5205               2AZ
347714003347714112-116038     347714006009681820246TCS CARRIER BAG MIDI   0000001000+00000035+00000+0001T   00000035+0000001619          1400 AN5090               2AZ
347715000347715               347715               170213CK     1400+00000+CK0000003243+0000003243+000000000+000000455+0000003690+0000000008+I20000000000+0000003690+Z
347715001347715077-000011-X   347715006001023809827TISSUE-WRAP SILVER 10PC0000001000+00001753+00000+0001T   00001753+0000001620          1400 AN5112               2AZ
347715002347715077-000327     347715006001023677686GIFT-BAG 25X32CM E/D BA0000001000+00001490+00000+0001T   00001490+0000001620          1400 AN5112               2AZ
347716000347716               347716               170213CK     1400+00000+CK0000000876+0000000876+000000000+000000123+0000000990+0000000009+I20000000000+0000000990+Z
347716001347716903-000481     347716006001704007481SWT MOO MILK-SHAKES 60G0000001000+00000876+00000+0001T   00000876+0000001621          1400 AN5150               2AZ
347717000347717               347717               170213CK     1400+00000+CK0000006139+0000006139+000000000+000000860+0000006999+0000000000+I40000006999+0000000000+Z
347717001347717039-000798     347717006001023617774CANDLES TEALITE BOX-50 0000001000+00006139+00000+0001T   00006139+0000001623          1400 AN5510               2AZ
347718000347718               347718               170213CK     1400+00000+CK0000015780+0000015780+000000000+000002212+0000017992+0000000000+I40000017992+0000000000+Z
347718001347718034-079078     347718006001023996565COOEY BABY MANICURE-SET0000002000+00003507+00000+0001T   00003507+0000001627          1400 AN5215               2AZ
347718002347718034-078800     347718006001023856555COOEY WET-WIPES 60PCE  0000002000+00001753+00000+0001T   00001753+0000001627          1400 AN5215               2AZ
347718003347718034-078823     347718006001023856869FACE CLOTHS PACK-5     0000002000+00002630+00000+0001T   00002630+0000001627          1400 AN5215               2AZ
347719000347719               347719               170213CK     1400+00000+CK0000014153+0000014153+000000000+000001983+0000016136+0000000000+I10000013636+0000002500+Z
347719001347719368-000175     347719006003000270316PLUSH BEAR 4 ASSTD 18CM0000001000+00006139+00000+0001T   00006139+0000001636          1400 AN5745               2AZ
347719002347719112-116038     347719006009681820246TCS CARRIER BAG MIDI   0000001000+00000035+00000+0001T   00000035+0000001636          1400 AN5090               2AZ
347719003347719304-001011     347719006001023806727FLWR ROSE RED W/BEAR   0000001000+00000613+00000+0001T   00000788+0006471636          1400 AN5510               2AZ
347719004347719018-050000     347719006003000412679MUG OCC LOVE TWIN BEAR 0000001000+00006139+00000+0001T   00006139+0000001636          1400 AN5515               2AZ
347719005347719077-000322     347719006001023677532GIFT-BAG 18X23CM E/D FL0000001000+00001227+00000+0001T   00001227+0000001636          1400 AN5112               2AZ
347720000347720               347720               170213CK     1400+00000+CK0000001788+0000001788+000000000+000000251+0000002030+0000000009+I20000000000+0000002030+Z
347720001347720200-003024     347720006001023657299REFUSE BAGS 20PCE BLACK0000001000+00001753+00000+0001T   00001753+0000001638          1400 AN5214               2AZ
347720002347720112-116038     347720006009681820246TCS CARRIER BAG MIDI   0000001000+00000035+00000+0001T   00000035+0000001638          1400 AN5090               2AZ
347721000347721               347721               170213CK     1400+00000+CK0000013153+0000013153+000000000+000001843+0000014996+0000000000+I40000014996+0000000000+Z
347721001347721077-000011-X   347721006001023809827TISSUE-WRAP SILVER 10PC0000001000+00001753+00000+0001T   00001753+0000001639          1400 AN5112               2AZ
347721002347721077-000011-C   347721006001023808523TISSUE 10xSHTS RED     0000001000+00000876+00000+0001T   00000876+0000001639          1400 AN5112               2AZ
347721003347721018-019000     347721006003000557288MUG OCC. LOVE JUMBO    0000002000+00005262+00000+0001T   00005262+0000001639          1400 AN5515               2AZ
347722000347722               347722               170213CK     1400+00000+CK0000006692+0000006692+000000000+000000939+0000007631+0000000000+I40000007631+0000000000+Z
347722001347722304-001011     347722006001023806727FLWR ROSE RED W/BEAR   0000008000+00000613+00000+0001T   00000788+0006471643          1400 AN5510               2AZ
347722002347722039-001023     347722006003000466337CANDLE TEA-LITE METALIC0000001000+00001753+00000+0001T   00001753+0000001643          1400 AN5510               2AZ
347722003347722112-116038     347722006009681820246TCS CARRIER BAG MIDI   0000001000+00000035+00000+0001T   00000035+0000001643          1400 AN5090               2AZ
347723000347723               347723               170213CK     1400+00000+CK0000005520+0000005520+000000000+000000774+0000006290+0000000004+I20000000000+0000006290+Z
347723001347723564-000012     347723006001023130075BUBBLE BOTTLE MAGIC    0000002000+00000700+00000+0001T   00000700+0000001645          1400 AN5131               2AZ
347723002347723463-000366     347723006001023789136SWIM W/NOODLE 150cm    0000001000+00002630+00000+0001T   00002630+0000001645          1400 AN5785               2AZ
347723003347723077-000327     347723006001023677686GIFT-BAG 25X32CM E/D BA0000001000+00001490+00000+0001T   00001490+0000001645          1400 AN5112               2AZ
347724000347724               347724               170213CK     1400+00000+CK0000011008+0000011008+000000000+000001543+0000012551+0000000000+I40000012551+0000000000+Z
347724001347724007-000217     347724006003000639656SELF STICK NOTE BOOK   0000001000+00002192+00000+0001T   00002192+0000001647          1400 AN5130               2AZ
347724002347724077-000150-D   347724006003000054343GIFT-WRAP CELLPHANE CLR0000001000+00000876+00000+0001T   00000876+0000001647          1400 AN5112               2AZ
347724003347724018-019000     347724006003000557288MUG OCC. LOVE JUMBO    0000001000+00005262+00000+0001T   00005262+0000001647          1400 AN5515               2AZ
347724004347724077-000270     347724006003000395453GIFT-BAG PPR JMB 33X45 0000001000+00002630+00000+0001T   00002630+0000001647          1400 AN5112               2AZ
347724005347724112-116069     347724006009681820277TCS CARRIER BAG JUMBO  0000001000+00000048+00000+0001T   00000048+0000001647          1400 AN5090               2AZ
347725000347725               347725               170213CK     1400+00000+CK0000001750+0000001750+000000000+000000246+0000001990+0000000006+I20000000000+0000001990+Z
347725001347725903-004952     347725006002580020052SWT FREAKY FACES 100G  0000001000+00001314+00000+0001T   00001314+0000001648          1400 AN5150               2AZ
347725002347725903-000670     347725006009803358008SWT SHERBET RED LIPS   0000002000+00000218+00000+0001T   00000218+0000001648          1400 AN5150               2AZ
347726000347726               347726               170213CK     1400+00000+CK0000013023+0000013023+000000000+000001827+0000014850+0000000000+I20000000000+0000014850+Z
347726001347726112-116069     347726006009681820277TCS CARRIER BAG JUMBO  0000001000+00000048+00000+0001T   00000048+0000001650          1400 AN5090               2AZ
347726002347726077-000010-D   347726006001023123886CREPE-PAPER WHITE      0000002000+00000788+00000+0001T   00000788+0000001650          1400 AN5112               2AZ
347726003347726301-085007     347726006003000673698ORN OCC. LOVE S/PLAQUE 0000001000+00007893+00000+0001T   00007893+0000001650          1400 AN5505               2AZ
347726004347726077-000011-C   347726006001023808523TISSUE 10xSHTS RED     0000001000+00000876+00000+0001T   00000876+0000001650          1400 AN5112               2AZ
347726005347726077-000270     347726006003000395453GIFT-BAG PPR JMB 33X45 0000001000+00002630+00000+0001T   00002630+0000001650          1400 AN5112               2AZ
347727000347727               347727               170213CK     1400+00000+CK0000002453+0000002453+000000000+000000344+0000002797+0000000000+I40000002797+0000000000+Z
347727001347727077-000240     347727006003000326259G/RIBBON 4PC PEARLIZED 0000001000+00001753+00000+0001T   00001753+0000001652          1400 AN5112               2AZ
347727002347727018-000177     347727006001023797513MUG MINI LOVE ASSTD    0000001000+00000700+00000+0001T   00000700+0000001652          1400 AN5515               2AZ
347728000347728               347728               170213CK     1400+00000+CK0000000525+0000000525+000000000+000000074+0000000590+0000000009+I20000000000+0000000590+Z
347728001347728002-021040     347728006001023812216PARTY-PICKS 100PCE     0000001000+00000525+00000+0001T   00000525+0000001653          1400 AN5300               2AZ
347729000347729               347729               170213CK     1400+00000+CK0000004646+0000004646+000000000+000000651+0000005290+0000000007+I20000000000+0000005290+Z
347729001347729174-000304     347729006001023754349TRAVEL NECK-PILLOW     0000001000+00003507+00000+0001T   00003507+0000001654          1400 AN5205               2AZ
347729002347729027-078343     347729006008766078343SCRUB-BRUSH IRON-SHAPE 0000001000+00001139+00000+0001T   00001578+0008191654          1400 AN5212               2AZ
347730000347730               347730               170213CK     1400+00000+CK0000002717+0000002717+000000000+000000381+0000003090+0000000008+I20000000000+0000003090+Z
347730001347730024-000097     347730006001023770035MEASURING-SET 11PCE WHT0000001000+00002192+00000+0001T   00002192+0000001700          1400 AN5300               2AZ
347730002347730002-021040     347730006001023812216PARTY-PICKS 100PCE     0000001000+00000525+00000+0001T   00000525+0000001700          1400 AN5300               2AZ
347731000347731               347731               170213CK     1400+00000+CK0000001578+0000001578+000000000+000000221+0000001790+0000000009+I20000000000+0000001790+Z
347731001347731077-000303     347731006001023593757GIFT-BAG PAPER MED     0000001000+00001578+00000+0001T   00001578+0000001702          1400 AN5112               2AZ
347732000347732               347732               170213CK     1400+00000+CK0000002047+0000002047+000000000+000000289+0000002330+0000000006+I20000000000+0000002330+Z
347732001347732077-000311     347732006001023608666GIFT-BAG 11X14CM GLOSS 0000002000+00000613+00000+0001T   00000613+0000001707          1400 AN5112               2AZ
347732002347732903-000183     347732006003000451043SWT LB HEART LOLLY     0000002000+00000393+00000+0001T   00000393+0000001707          1400 AN5150               2AZ
347732003347732112-116038     347732006009681820246TCS CARRIER BAG MIDI   0000001000+00000035+00000+0001T   00000035+0000001707          1400 AN5090               2AZ
347733000347733               347733               170213CK     1400+00000+CK0000001753+0000001753+000000000+000000246+0000001990+0000000009+I20000000000+0000001990+Z
347733001347733200-003026     347733006003000276448REFUSE BAGS 10PCE GREEN0000001000+00001753+00000+0001T   00001753+0000001708          1400 AN5214               2AZ
347734000347734               347734               170213CK     1400+00000+CK0000003065+0000003065+000000000+000000430+0000003495+0000000000+I40000003495+0000000000+Z
347734001347734304-001011     347734006001023806727FLWR ROSE RED W/BEAR   0000005000+00000613+00000+0001T   00000788+0006471709          1400 AN5510               2AZ
347735000347735               347735               170213CK     1400+00000+CK0000001613+0000001613+000000000+000000226+0000001839+0000000000+I40000001839+0000000000+Z
347735001347735077-000303     347735006001023593757GIFT-BAG PAPER MED     0000001000+00001578+00000+0001T   00001578+0000001711          1400 AN5112               2AZ
347735002347735112-116038     347735006009681820246TCS CARRIER BAG MIDI   0000001000+00000035+00000+0001T   00000035+0000001711          1400 AN5090               2AZ
347736000347736               347736               170213CK     1400+00000+CK0000004385+0000004385+000000000+000000614+0000004990+0000000009+I20000000000+0000004990+Z
347736001347736088-000107     347736006001023555823DIFFUSER SET FLOWER    0000001000+00004385+00000+0001T   00004385+0000001715          1400 AN5212               2AZ
347737000347737               347737               170213CK     1400+00000+CK0000001753+0000001753+000000000+000000246+0000001990+0000000009+I20000000000+0000001990+Z
347737001347737080-000103     347737006003000236961CARD&ENVLOPE BDAY-MALE 0000001000+00001753+00000+0001T   00001753+0000001716          1400 AN5112               2AZ
347738000347738               347738               170213CK     1400+00000+CK0000004433+0000004433+000000000+000000621+0000005050+0000000004+I20000000000+0000005050+Z
347738001347738365-004002     347738006001023657992KITCHEN-SET ACCESSORIES0000001000+00004385+00000+0001T   00004385+0000001721          1400 AN5725               2AZ
347738002347738112-116069     347738006009681820277TCS CARRIER BAG JUMBO  0000001000+00000048+00000+0001T   00000048+0000001721          1400 AN5090               2AZ
347739000347739               347739               170213CK     1400+00000+CK0000002630+0000002630+000000000+000000369+0000002990+0000000009+I20000000000+0000002990+Z
347739001347739077-000475     347739006003000640775GIFT-BAG DESIGNER MED  0000001000+00002630+00000+0001T   00002630+0000001723          1400 AN5112               2AZ
347740000347740               347740               170213CK     1400+00000+CK0000002366+0000002366+000000000+000000332+0000002698+0000000000+I40000002698+0000000000+Z
347740001347740304-001011     347740006001023806727FLWR ROSE RED W/BEAR   0000001000+00000613+00000+0001T   00000788+0006471725          1400 AN5510               2AZ
347740002347740046-002013-PK6 347740004897006174851BATTERY BUTTON AG13 6PC0000001000+00001753+00000+0001T   00001753+0000001725          1400 AN5312               2AZ
347741000347741               347741               170213CK     1400+00000+CK0000002192+0000002192+000000000+000000307+0000002490+0000000009+I20000000000+0000002490+Z
347741001347741080-000127     347741006003000424351VALENTINES DAY 36x24CM 0000001000+00002192+00000+0001T   00002192+0000001729          1400 AN5112               2AZ
347742000347742               347742               170213CK     1400+00000+CK0000005260+0000005260+000000000+000000738+0000005990+0000000008+I20000000000+0000005990+Z
347742001347742266-003012     347742006001023786128BOYS P/SET ARCHERY 4pc 0000001000+00002630+00000+0001T   00002630+0000001731          1400 AN5710               2AZ
347742002347742565-000040     347742006008766115635NOVELTY ICON BEANIE    0000001000+00002630+00000+0001T   00002630+0000001731          1400 AN5745               2AZ
347743000347743               347743               170213CK     1400+00000+CK0000002630+0000002630+000000000+000000369+0000002999+0000000000+I40000002999+0000000000+Z
347743001347743206-000620     347743006003000631797BACK SCRATCHER EXTEND  0000001000+00002630+00000+0001T   00002630+0000001733          1400 AN5321               2AZ
347744000347744               347744               170213CK     1400+00000+CK0000003507+0000003507+000000000+000000491+0000003990+0000000008+I20000000000+0000003990+Z
347744001347744031-000923     347744006001023669933P/FRAME BLK W/WORDS    0000001000+00003507+00000+0001T   00003507+0000001733          1400 AN5510               2AZ
347745000347745               347745               170213CK     1400+00000+CK0000018453+0000018453+000000000+000002584+0000021030+0000000007+I20000000000+0000021030+Z
347745001347745018-030000     347745006003000421060MUG OCCASIONS LOVE 2PCE0000001000+00004385+00000+0001T   00004385+0000001735          1400 AN5515               2AZ
347745002347745030-000031-A   347745006003000457588PLAQUE W/WORDS ASSTD   0000001000+00004385+00000+0001T   00004823+0006471735          1400 AN5505               2AZ
347745003347745030-004015     347745006003000467624PLAQUE WDN SIGN 30X20CM0000001000+00009648+00000+0001T   00009648+0000001735          1400 AN5505               2AZ
347745004347745112-116038     347745006009681820246TCS CARRIER BAG MIDI   0000001000+00000035+00000+0001T   00000035+0000001735          1400 AN5090               2AZ
A17021300                                          09134144CKSLAVE 2                       AN53IC
C34760800                                          170213CK077-000303     10504191SLAVE 2     AN51IC0000000000+0000000000+0040000001000+
C34767700                                          170213CK261-003961     15055887SLAVE 2     AN51IC0000000000+0000000000+0040000001000+
C34771900                                          170213CK018-050000     16341848SLAVE 2     AN53IC0000000000+0000000000+0010000001000+
C34771901                                          170213CK368-000175     16342205SLAVE 2     AN53IC0000000000+0000000000+0020000001000+
C34771902                                          170213CK304-001011     16342882SLAVE 2     AN53IC0000000000+0000000000+0030000001000+
C34771903                                          170213CK112-116038     16343278SLAVE 2     AN53IC0000000000+0000000000+0040000001000+
C34771904                                          170213CK077-000322     16343598SLAVE 2     AN53IC0000000000+0000000000+0050000001000+
M17021391                              CASH        CKSLAVE 2                       Z-REPORT No.   658TOTAL (Sales - Refunds)           8663.78       CASH TO BE BANKED                 4039.80       DEBIT CARDS                          0.00       CREDIT CARDS                      4625.48       Z-READING                         8663.78       AIRTIME DEBIT CARD SALES             0.00       AIRTIME CARD SALES                   0.00       OVERS/UNDERS                         1.50       AIRTIME CASH SALES                   0.00       GIFT CARDS                           0.00       GIFT CARD CASH SALES                 0.00       T O T A L  CASH PAYOUTS              0.00                                                                                                                                                                                                                                                                                                                                                      Z
M17021392                              CASH        CKABSENT                                                                                                                                                                                          ANNUAL LEAVE                                                                                                                                                                                    DAY OFF                                                                                                                                                                                         COMMENTS                                                                                                                                                                                                                                                                                                                                                                                       Z
Y17021300                                          CK00000000816244+000160
ZCK17021319253 SLAVE 2      SALES DATA                     NEXT INVOICE NO.  347746 0658
F093738496-056475         1701110944040000032ICSLAVE 2
F094812107-003120         1702090839050000052ICSLAVE 2
F094855304-001011         1702111044280000301ICSLAVE 2
X CK Slave 2 First invoice 347581 170213 Last invoice 347745 170213 Next invoice 347746 Total number of records 000000550 clbackup completed 19:25:29
