351807000351807               351807               170213CK     1400+00000+CK0000004385+0000004385+000000000+000000614+0000004999+0000000000+I40000004999+0000000000+Z
351807001351807031-080508     351807006001023802415P/FRAME PL 22X11CM LOVE0000001000+00004385+00000+0001T   00004385+0000001150          1400 MR8510               3AZ
351808000351808               351808               170213CK     1400+00000+CK0000006139+0000006139+000000000+000000860+0000006990+0000000009+I20000000000+0000006990+Z
351808001351808024-000195     351808006003000396498KIDDIES B/WARE ACC 2PC 0000001000+00006139+00000+0001T   00006139+0000001214          1400 MR8300               3AZ
351809000351809               351809               170213CK     1400+00000+CK0000002630+0000002630+000000000+000000369+0000002999+0000000000+I40000002999+0000000000+Z
351809001351809019-071601     351809006001023771995RIVER-STONES 1kg WHITE 0000001000+00002630+00000+0001T   00002630+0000001216          1400 MR8510               3AZ
351810000351810               351810               170213CK     1400+00000+CK0000001753+0000001753+000000000+000000246+0000001990+0000000009+I20000000000+0000001990+Z
351810001351810903-000211     351810006002099001238SWT GS MALLOW ICE CREAM0000001000+00001753+00000+0001T   00001753+0000001216          1400 MR8150               3AZ
351811000351811               351811               170213CK     1400+00000+CK0000001139+0000001139+000000000+000000160+0000001290+0000000009+I20000000000+0000001290+Z
351811001351811140-006004     351811006001023628077FLY-SWATTER RUBBER     0000001000+00001139+00000+0001T   00001139+0000001218          1400 MR8830               3AZ
351812000351812               351812               170213CK     1400+00000+CK0000002630+0000002630+000000000+000000369+0000002990+0000000009+I20000000000+0000002990+Z
351812001351812019-071601     351812006001023771995RIVER-STONES 1kg WHITE 0000001000+00002630+00000+0001T   00002630+0000001218          1400 MR8510               3AZ
351813000351813               351813               170213CK     1400+00000+CK0000007015+0000007015+000000000+000000983+0000007998+0000000000+I40000007998+0000000000+Z
351813001351813162-099911     351813006001492999111#TAG KIDS NECKLACE SET 0000001000+00004385+00000+0001T   00004385+0000001219          1400 MR8160               3AZ
351813002351813560-000201     351813006001023400147RUBBER SNAKE 86cm      0000001000+00002630+00000+0001T   00002630+0000001219          1400 MR8745               3AZ
351814000351814               351814               170213CK     1400+00000+CK0000002630+0000002630+000000000+000000369+0000002990+0000000009+I20000000000+0000002990+Z
351814001351814039-000332     351814006001023900470CANDLES 8PCE+NUMBERS   0000001000+00002630+00000+0001T   00002630+0000001223          1400 MR8510               3AZ
351815000351815               351815               170213CK     1400+00000+CK0000008771+0000008771+000000000+000001228+0000009990+0000000009+I20000000000+0000009990+Z
351815001351815039-000799     351815006001023692382CANDLES TEALITE 100PCE 0000001000+00008771+00000+0001T   00008771+0000001225          1400 MR8510               3AZ
351816000351816               351816               170213CK     1400+00000+CK0000020161+0000020161+000000000+000002825+0000022986+0000000000+I40000022986+0000000000+Z
351816001351816072-020264     351816006001023602565PET DOG CLEAN-UP BAGS  0000003000+00003507+00000+0001T   00003507+0000001227          1400 MR8870               3AZ
351816002351816200-003024     351816006001023657299REFUSE BAGS 20PCE BLACK0000004000+00001753+00000+0001T   00001753+0000001227          1400 MR8214               3AZ
351816003351816107-004105     351816006009703860984BUCKET 9L OPEN         0000002000+00001314+00000+0001T   00001314+0000001227          1400 MR8210               3AZ
351817000351817               351817               170213CK     1400+00000+CK0000001753+0000001753+000000000+000000246+0000001990+0000000009+I20000000000+0000001990+Z
351817001351817566-001501     351817006003000658398STICKER PAPER EMOTION  0000001000+00001753+00000+0001T   00001753+0000001228          1400 MR8130               3AZ
351818000351818               351818               170213CK     1400+00000+CK0000003330+0000003330+000000000+000000467+0000003797+0000000000+I40000003797+0000000000+Z
351818001351818072-020354     351818006001023649980DOG/CAT-BOWL LARGE     0000001000+00002630+00000+0001T   00002630+0000001229          1400 MR8870               3AZ
351818002351818033-005920-A   351818006001023678249SEWING-THREAD 100m WHT 0000001000+00000700+00000+0001T   00000700+0000001229          1400 MR8200               3AZ
351819000351819               351819               170213CK     1400+00000+CK0000001753+0000001753+000000000+000000246+0000001990+0000000009+I20000000000+0000001990+Z
351819001351819078-000470     351819006007347000018SHOE-CEMENT 70ml-TIN   0000001000+00001753+00000+0001T   00001753+0000001229          1400 MR8810               3AZ
351820000351820               351820               170213CK     1400+00000+CK0000001139+0000001139+000000000+000000160+0000001290+0000000009+I20000000000+0000001290+Z
351820001351820251-000030     351820006001023515803MASKING-TAPE 18mmx40m  0000001000+00001139+00000+0001T   00001139+0000001232          1400 MR8810               3AZ
351821000351821               351821               170213CK     1400+00000+CK0000002192+0000002192+000000000+000000307+0000002490+0000000009+I20000000000+0000002490+Z
351821001351821158-008936     351821006001023653758PAPER-TOWEL-HOLDER FLWR0000001000+00002192+00000+0001T   00002192+0000001233          1400 MR8300               3AZ
351822000351822               351822               170213CK     1400+00000+CK0000000876+0000000876+000000000+000000123+0000000990+0000000009+I20000000000+0000000990+Z
351822001351822078-000025     351822008887013700064SUPERGLUE 3g 1PCE CARD 0000001000+00000876+00000+0001T   00000876+0000001234          1400 MR8810               3AZ
351823000351823               351823               170213CK     1400+00000+CK0000003505+0000003505+000000000+000000492+0000003997+0000000000+I40000003997+0000000000+Z
351823001351823006-000107     351823006003000587872BALLOONS ITS BOY/GIRL  0000001000+00001753+00000+0001T   00001753+0000001236          1400 MR8131               3AZ
351823003351823077-000011-E   351823006001023808646TISSUE-WRAP PINK 10PCE 0000001000+00000876+00000+0001T   00000876+0000001236          1400 MR8112               3AZ
351823004351823077-000011-L   351823006001023808585P/TISSUE BRIGHT 10SHEET0000001000+00000876+00000+0001T   00000876+0000001236          1400 MR8112               3AZ
351824000351824               351824               170213CK     1400+00000+CK0000001753+0000001753+000000000+000000246+0000001990+0000000009+I20000000000+0000001990+Z
351824001351824077-000908     351824006003000410927G/WRAP 700mmx1m FLOWER 0000001000+00001753+00000+0001T   00001753+0000001236          1400 MR8112               3AZ
351825000351825               351825               170213CK     1400+00000+CK0000001490+0000001490+000000000+000000209+0000001699+0000000000+I40000001699+0000000000+Z
351825001351825077-000299     351825006003000395576G/BAG 32x25cm LRG LOVE 0000001000+00001490+00000+0001T   00001490+0000001238          1400 MR8112               3AZ
351826000351826               351826               170213CK     1400+00000+CK0000002192+0000002192+000000000+000000307+0000002490+0000000009+I20000000000+0000002490+Z
351826001351826142-063201     351826006001023112538GARDEN-GLOVES POLKA-DOT0000001000+00002192+00000+0001T   00002192+0000001239          1400 MR8810               3AZ
351827000351827               351827               170213CK     1400+00000+CK0000008765+0000008765+000000000+000001230+0000009990+0000000005+I20000000000+0000009990+Z
351827001351827040-000923     351827006001023587831CANDLE-HOLDER GLS 13.5 0000005000+00001753+00000+0001T   00001753+0000001241          1400 MR8510               3AZ
351828000351828               351828               170213CK     1400+00000+CK0000005297+0000005297+000000000+000000742+0000006030+0000000009+I20000000000+0000006030+Z
351828001351828263-000504     351828006001023790590TRACTOR+TRAILER 30cm   0000001000+00005262+00000+0001T   00005262+0000001242          1400 MR8710               3AZ
351828002351828112-116038     351828006009681820246TCS CARRIER BAG MIDI   0000001000+00000035+00000+0001T   00000035+0000001242          1400 MR8090               3AZ
351829000351829               351829               170213CK     1400+00000+CK0000000035+0000000035+000000000+000000005+0000000040+0000000000+I20000000000+0000000040+Z
351829001351829112-116038     351829006003000534906TCS CARRIER BAG MIDI   0000001000+00000035+00000+0001T   00000035+0000001244          1400 MR8090               3AZ
351830000351830               351830               170213CK     1400+00000+CK0000005557+0000005557+000000000+000000779+0000006330+0000000006+I20000000000+0000006330+Z
351830001351830077-000303     351830006001023593757GIFT-BAG PAPER MED     0000001000+00001578+00000+0001T   00001578+0000001245          1400 MR8112               3AZ
351830002351830018-005009     351830006001023725608MUG W/PLUSH-BEAR LOVE  0000001000+00003507+00000+0001T   00003507+0000001245          1400 MR8515               3AZ
351830003351830112-116038     351830006009681820246TCS CARRIER BAG MIDI   0000001000+00000035+00000+0001T   00000035+0000001245          1400 MR8090               3AZ
351830004351830080-000133-A   351830006003000647019MINI VALENTINES CARD   0000001000+00000437+00000+0001T   00000437+0000001245          1400 MR8112               3AZ
351831000351831               351831               170213CK     1400+00000+CK0000002804+0000002804+000000000+000000394+0000003190+0000000008+I20000000000+0000003190+Z
351831001351831105-001005     351831006001023858214CONTAINERS MINI 6PCE   0000001000+00001402+00000+0001T   00001402+0000001247          1400 MR8210               3AZ
351831002351831105-000750     351831006003000190270CONTAINERS 4xMINI 150ml0000001000+00001402+00000+0001T   00001402+0000001247          1400 MR8210               3AZ
351832000351832               351832               170213CK     1400+00000+CK0000002629+0000002629+000000000+000000369+0000002990+0000000008+I20000000000+0000002990+Z
351832001351832080-000127     351832006003000424351VALENTINES DAY 36x24CM 0000001000+00002192+00000+0001T   00002192+0000001248          1400 MR8112               3AZ
351832002351832083-000049     351832004891035200024CIG-LIGHTER DISPOSABLE 0000001000+00000437+00000+0001T   00000437+0000001248          1400 MR8315               3AZ
351833000351833               351833               170213CK     1400+00000+CK0000014544+0000014544+000000000+000002038+0000016580+0000000002+I20000000000+0000016580+Z
351833001351833304-001011     351833006001023806727FLWR ROSE RED W/BEAR   0000004000+00000613+00000+0001T   00000788+0006471249          1400 MR8510               3AZ
351833002351833077-000311     351833006001023608666GIFT-BAG 11X14CM GLOSS 0000004000+00000613+00000+0001T   00000613+0000001249          1400 MR8112               3AZ
351833003351833018-000170     351833006001023775528MUG OCC. LOVE 2PC MINI 0000002000+00002192+00000+0001T   00002192+0000001249          1400 MR8515               3AZ
351833004351833903-000194     351833006009826020616SWT CHOC RP LOLLY 25G  0000004000+00001314+00000+0001T   00001314+0000001249          1400 MR8150               3AZ
351834000351834               351834               170213CK     1400+00000+CK0000001753+0000001753+000000000+000000246+0000001990+0000000009+I20000000000+0000001990+Z
351834001351834077-000239     351834006003000160419GIFT-RIBBON ROLL PEARL 0000001000+00001753+00000+0001T   00001753+0000001250          1400 MR8112               3AZ
351835000351835               351835               170213CK     1400+00000+CK0000004646+0000004646+000000000+000000651+0000005297+0000000000+I40000005297+0000000000+Z
351835001351835565-000071     351835006003000643387NOVELTY WIND UP CHATTER0000001000+00001139+00000+0001T   00001139+0000001252          1400 MR8745               3AZ
351835002351835562-000051     351835006003000308798EDU EXCAVATION KIT ASST0000001000+00003507+00000+0001T   00003507+0000001252          1400 MR8755               3AZ
351836000351836               351836               170213CK     1400+00000+CK0000020079+0000020079+000000000+000002813+0000022890+0000000002+I20000000000+0000022890+Z
351836001351836031-000924     351836006001023669964P/FRAME COLLAGE PL     0000001000+00008771+00000+0001T   00008771+0000001413          1400 MR8510               3AZ
351836002351836304-001011     351836006001023806727FLWR ROSE RED W/BEAR   0000002000+00000613+00000+0001T   00000788+0006471413          1400 MR8510               3AZ
351836003351836024-000118     351836006001023422316N/STICK C/PAN HEART    0000001000+00004385+00000+0001T   00004385+0000001413          1400 MR8300               3AZ
351836004351836077-000299-A   351836006003000670888GIFT-BAG PAPER JMB LOVE0000001000+00001753+00000+0001T   00001753+0000001413          1400 MR8112               3AZ
351836005351836077-000312     351836006001023608697GIFT-BAG 10X35CM GLOSS 0000001000+00001314+00000+0001T   00001314+0000001413          1400 MR8112               3AZ
351836006351836018-000129     351836006001023403353MUG OCC. LOVE V-SHAPE  0000001000+00002630+00000+0001T   00002630+0000001413          1400 MR8515               3AZ
351837000351837               351837               170213CK     1400+00000+CK0000002980+0000002980+000000000+000000418+0000003398+0000000000+I40000003398+0000000000+Z
351837001351837077-000010-C   351837006001023123879CREPE-PAPER RED        0000001000+00000788+00000+0001T   00000788+0000001419          1400 MR8112               3AZ
351837002351837566-000359     351837006003000582709STICKER BOOK LOVE SPARK0000001000+00002192+00000+0001T   00002192+0000001419          1400 MR8130               3AZ
351838000351838               351838               170213CK     1400+00000+CK0000017352+0000017352+000000000+000002433+0000019785+0000000000+I40000019785+0000000000+Z
351838001351838566-002000     351838000721129013206STICKERS CRYSTAL ASSTD 0000004000+00000700+00000+0001T   00000700+0000001454          1400 MR8130               3AZ
351838002351838565-000071     351838006003000643387NOVELTY WIND UP CHATTER0000002000+00001139+00000+0001T   00001139+0000001454          1400 MR8745               3AZ
351838003351838200-000225     351838006008766126952BAKEPANS 5PCE          0000001000+00002630+00000+0001T   00002630+0000001454          1400 MR8214               3AZ
351838004351838200-000035     351838006001023768810FOOD-BOWL-COVERS 5PCE  0000001000+00002630+00000+0001T   00002630+0000001454          1400 MR8214               3AZ
351838005351838200-000020     351838006925406841030BAG ZIPPERSEAL 25PC    0000001000+00002192+00000+0001T   00002192+0000001454          1400 MR8214               3AZ
351838006351838105-001025     351838006009654960771CONTAINERS CLEAR 4PCE  0000001000+00003069+00000+0001T   00003069+0000001454          1400 MR8210               3AZ
351838007351838107-002117     351838006002580008890BASIN PL 32cm(VIRGIN)4L0000001000+00001753+00000+0001T   00001753+0000001454          1400 MR8210               3AZ
351839000351839               351839               170213CK     1400+00000+CK0000012279+0000012279+000000000+000001720+0000013999+0000000000+I40000013999+0000000000+Z
351839001351839562-088357     351839006001023873392EVA CARPET 56x56x0.9cm 0000001000+00012279+00000+0001T   00012279+0000001456          1400 MR8755               3AZ
351840000351840               351840               170213CK     1400+00000+CK0000014034+0000014034+000000000+000001965+0000015999+0000000000+I40000015999+0000000000+Z
351840001351840140-092001     351840006001023819154MOSQ-NET 900x230x60cm  0000001000+00014034+00000+0001T   00014034+0000001502          1400 MR8830               3AZ
351841000351841               351841               170213CK     1400+00000+CK0000020171+0000020171+000000000+000002826+0000022997+0000000000+I40000022997+0000000000+Z
351841001351841366-006103     351841006001023786944DRESS UP FACE PAINT SET0000001000+00002630+00000+0001T   00002630+0000001620          1400 MR8131               3AZ
351841002351841567-011423     351841006003000641345BK COLOURING THERAPY A50000001000+00006139+00000+0001T   00006139+0000001620          1400 MR8757               3AZ
351841003351841040-000103     351841000694202201862C/HOLDER-SET 5PC W/TRAY0000001000+00011402+00000+0001T   00013157+0008191620          1400 MR8510               3AZ
351842000351842               351842               170213CK     1400+00000+CK0000005259+0000005259+000000000+000000738+0000005990+0000000007+I20000000000+0000005990+Z
351842001351842046-002032-PK2 351842004897006175063BATTERIES CR-2032  2PCE0000002000+00001753+00000+0001T   00001753+0000001635          1400 MR8312               3AZ
351842002351842046-002013-PK6 351842004897006174851BATTERY BUTTON AG13 6PC0000001000+00001753+00000+0001T   00001753+0000001635          1400 MR8312               3AZ
351843000351843               351843               170213CK     1400+00000+CK0000000786+0000000786+000000000+000000112+0000000890+0000000008+I20000000000+0000000890+Z
351843001351843001-000001     351843006001023507266SHOT-GLASS 25ml        0000002000+00000393+00000+0001T   00000393+0000001649          1400 MR8515               3AZ
351844000351844               351844               170213CK     1400+00000+CK0000015698+0000015698+000000000+000002203+0000017901+0000000000+I40000017901+0000000000+Z
351844001351844903-000911     351844006009802868454SWT ST GUM TAPE BARBIE 0000001000+00001753+00000+0001T   00001753+0000001652          1400 MR8150               3AZ
351844002351844565-000071     351844006003000643387NOVELTY WIND UP CHATTER0000001000+00001139+00000+0001T   00001139+0000001652          1400 MR8745               3AZ
351844003351844077-000010-C   351844006001023123879CREPE-PAPER RED        0000001000+00000788+00000+0001T   00000788+0000001652          1400 MR8112               3AZ
351844004351844030-000031-A   351844006003000457588PLAQUE W/WORDS ASSTD   0000001000+00004385+00000+0001T   00004823+0006471652          1400 MR8505               3AZ
351844005351844039-000108     351844006001023524034TEA-LITE CANDLES 8PCE  0000001000+00001490+00000+0001T   00001490+0000001652          1400 MR8510               3AZ
351844006351844566-000028     351844006003000265541STICKER BK ASSTD 250PCE0000001000+00001753+00000+0001T   00001753+0000001652          1400 MR8130               3AZ
351844007351844077-000010-C   351844006001023123879CREPE-PAPER RED        0000001000+00000788+00000+0001T   00000788+0000001652          1400 MR8112               3AZ
351844008351844565-000002     351844006003000308071NOVELTY GROWING ANIMALS0000001000+00001753+00000+0001T   00001753+0000001652          1400 MR8745               3AZ
351844009351844077-000299-A   351844006003000670888GIFT-BAG PAPER JMB LOVE0000001000+00001753+00000+0001T   00001753+0000001652          1400 MR8112               3AZ
351844010351844112-116069     351844006009681820277TCS CARRIER BAG JUMBO  0000002000+00000048+00000+0001T   00000048+0000001652          1400 MR8090               3AZ
A17021300                                          09070186CKSLAVE 3                       MR83IC
A17021301                                          10093951CKSLAVE 3                       MR83IC
C35182300                                          170213CK077-000011-L   12350333SLAVE 3     MR81IC0000000000+0000000000+0020000002000+
M17021391                              CASH        CKSLAVE 3                       Z-REPORT No.   431TOTAL (Sales - Refunds)           2642.31       CASH TO BE BANKED                 1163.80       DEBIT CARDS                          0.00       CREDIT CARDS                      1478.51       Z-READING                         2642.31       AIRTIME DEBIT CARD SALES             0.00       AIRTIME CARD SALES                   0.00       OVERS/UNDERS                         0.00       AIRTIME CASH SALES                   0.00       GIFT CARDS                           0.00       GIFT CARD CASH SALES                 0.00       T O T A L  CASH PAYOUTS              0.00                                                                                                                                                                                                                                                                                                                                                      Z
M17021392                              CASH        CKABSENT                                                                                                                                                                                          ANNUAL LEAVE                                                                                                                                                                                    DAY OFF                                                                                                                                                                                         COMMENTS                                                                                                                                                                                                                                                                                                                                                                                       Z
Y17021300                                          CK00000000231904+000038
ZCK17021319253 SLAVE 3      SALES DATA                     NEXT INVOICE NO.  351845 0431
F093738496-056475         1701110944270000032ICSLAVE 3
F094812107-003120         1702090839280000052ICSLAVE 3
F094855304-001011         1702111042390000301ICSLAVE 3
X CK Slave 3 First invoice 351807 170213 Last invoice 351844 170213 Next invoice 351845 Total number of records 000000126 clbackup completed 19:25:30
