363945000363945               363945               170213CK     1400+00000+CK0000082045+0000082045+000000000+000011506+0000093551+           I90000000000+0000000000+Z
363945001363945006-005002     363945006001023825056TINSEL 7cmsx2m    ASSTD0000001000+00001578+00000+0001T103094291701B                   1400 1IC1311ICV             Z
363945002363945006-005003     363945006003000596485TINSEL 7cmx2m 2-TONE   0000014000+00001139+00000+0001T103094291701B                   1400 1IC1311ICV             Z
363945003363945006-005002     363945006001023825056TINSEL 7cmsx2m    ASSTD0000010000+00001578+00000+0001T103094291701B                   1400 1IC1311ICV             Z
363945004363945006-005007     363945006003000377619TINSEL 10cmx2.5m       0000004000+00003069+00000+0001T103094291701B                   1400 1IC1311ICV             Z
363945005363945067-000990     363945006001023875402XMAS BALLS 10PCE PYRAMD0000001000+00003507+00000+0001T103094291701B                   1400 1IC1101ICV             Z
363945006363945067-002014     363945006001023617279XMAS-DECOR STRAND      0000001000+00003157+00000+0001T103094291701B                   1400 1IC1101ICV             Z
363945007363945006-005006     363945006003000596447TINSEL 10cmx2m         0000017000+00001753+00000+0001T103094291701B                   1400 1IC1311ICV             Z
363946000363946               363946               170213CK     1400+00000+CK0000014022+0000014022+000000000+000001968+0000015990+           I90000000000+0000000000+Z
363946001363946162-081666     363946006001492816661SS NEW 3PK GOLD STUDS  0000002000+00000876+00000+0001T103094301701-C                  1400 1IC1601ICV             Z
363946002363946162-093346     363946006001492933467#TAG 3PK PASTEL HOOP   0000001000+00000876+00000+0001T103094301701-C                  1400 1IC1601ICV             Z
363946003363946162-093161     363946006001492931616#TAG BLUE LACE NK      0000002000+00001753+00000+0001T103094301701-C                  1400 1IC1601ICV             Z
363946004363946162-093160     363946006001492931609#TAG BLK OR BURGUNDY   0000003000+00001753+00000+0001T103094301701-C                  1400 1IC1601ICV             Z
363946005363946162-093149     363946006001492931494#TAG PINKS FLOWER DROP 0000001000+00000876+00000+0001T103094301701-C                  1400 1IC1601ICV             Z
363946006363946162-093170     363946006001492931708#TAG DRK RED PENDANT   0000001000+00001753+00000+0001T103094301701-C                  1400 1IC1601ICV             Z
363947000363947               363947               170213CK     1400+00000+CK0000077719+0000077719+000000000+000010891+0000088610+           I90000000000+0000000000+Z
363947001363947466-001003     363947006001023508119CRICKET-BAT SIZE-5     0000001000+00003507+00000+0001T033094310000                    1400 1IC7851ICV             Z
363947002363947564-000035     363947006003000301836BUBBLE NOVELTY SWORD   0000001000+00001753+00000+0001T033094310000                    1400 1IC1311ICV             Z
363947003363947071-009832     363947006003000152674STATIONERY SET 4PCE    0000001000+00005262+00000+0001T033094310000                    1400 1IC1301ICV             Z
363947004363947112-116038     363947006009681820246TCS CARRIER BAG MIDI   0000001000+00000035+00000+0001T033094310000                    1400 1IC0901ICV             Z
363947005363947036-000063     363947006009654960436COATHANGERS VIRGIN 5PCE0000001000+00001753+00000+0001T033094310000                    1400 1IC2121ICV             Z
363947006363947031-005820     363947006001023667816P/FRAME-CLIP 15X20CM   0000001000+00001753+00000+0001T033094310000                    1400 1IC5101ICV             Z
363947007363947018-000170     363947006001023775528MUG OCC. LOVE 2PC MINI 0000001000+00002192+00000+0001T033094310000                    1400 1IC5151ICV             Z
363947008363947031-000870-C   363947006001023798688P/FRAME WOOD WHITE-PINE0000001000+00006139+00000+0001T033094310000                    1400 1IC5101ICV             Z
363947009363947261-003822     363947006003000655649GUN RIFLE "CORK" 4 cm  0000001000+00003507+00000+0001T033094310000                    1400 1IC7101ICV             Z
363947010363947366-007916     363947006001023419309MASK PL CHARACTER ASS  0000001000+00000876+00000+0001T033094310000                    1400 1IC1311ICV             Z
363947011363947082-000120     363947006003000360727READING GLS STRENGTH:3 0000001000+00004385+00000+0001T033094310000                    1400 1IC1601ICV             Z
363947012363947565-000013     363947006003000672233NOVELTY TWISTY 21cm    0000001000+00000876+00000+0001T033094310000                    1400 1IC7451ICV             Z
363947014363947079-000341     363947006920705495519FELT-TIP PENS 12PCE    0000001000+00001753+00000+0001T033094310000                    1400 1IC1301ICV             Z
363947015363947565-000044     363947006003000128280BARREL OF SLIME 100g   0000002000+00000613+00000+0001T033094310000                    1400 1IC7451ICV             Z
363947016363947104-000020     363947006916920023026BASKET 25x14x10cm      0000001000+00001753+00000+0001T033094310000                    1400 1IC2101ICV             Z
363947017363947106-001104     363947006003000364794WATER BOTTLE 600ml PL  0000001000+00002630+00000+0001T033094310000                    1400 1IC2101ICV             Z
363947018363947467-000001     363947006003000123315BEACH BUCKET PL 17x16cm0000002000+00001578+00000+0001T033094310000                    1400 1IC7851ICV             Z
363947019363947004-071215     363947006003000459360MOBILE SELFI STICK 80cm0000001000+00007016+00000+0001T033094310000                    1400 1IC3101ICV             Z
363947020363947077-000324     363947006001023677594GIFT-BAG 33X45CM E/D FL0000001000+00001753+00000+0001T033094310000                    1400 1IC1121ICV             Z
363947021363947362-004001     363947000613153010385PRINCESS ASSTD TRINKETS0000001000+00000700+00000+0001T033094310000                    1400 1IC1601ICV             Z
363947022363947560-000229     363947006003000469468ANIMALS BIG EYES ASSTD 0000001000+00006139+00000+0001T033094310000                    1400 1IC7451ICV             Z
363947023363947565-000887     363947006003000412334NOVELTY SILICONE TOY   0000001000+00002192+00000+0001T033094310000                    1400 1IC7451ICV             Z
363947024363947040-000223     363947006001023845375C/HOLD CER. HOOK/PEBBLE0000001000+00002630+00000+0001T033094310000                    1400 1IC5101ICV             Z
363947025363947366-001104     363947006001023749925DRESSUP KIT WITCH/DEVIL0000001000+00007893+00000+0001T033094310000                    1400 1IC1311ICV             Z
363947026363947018-000170     363947006001023775528MUG OCC. LOVE 2PC MINI 0000001000+00002192+00000+0001T033094310000                    1400 1IC5151ICV             Z
363947027363947105-001081     363947000700371699888CLIP LOCK 4L OBLONG    0000001000+00004648+00000+0001T033094310000                    1400 1IC2101ICV             Z
J17021301                        DIANE COLLISON    CK018-000022      MUG N/BONE 320ML BARREL 000012  018-000055      SOUP-MUG CER. SOLD COL. 000012  018-000109      MUG OCC. MOM B/SHAPE    000012  018-000129      MUG OCC. LOVE V-SHAPE   000012  018-000135      MUG OCC. DAD TUBBY      000012  018-000138      MUG NOVELTY CER. T-SHPE 000012  018-000200      M/DAILY V-SHAPE PSYCH   000012  018-000205      M/DAILY STRAIGHT SHAPE  000012  018-000210      MUG DAILY TEXTS 4-ASST  000012  018-000215      M/DAILY TULIP PORC LACE 000012  018-017000      MUG OCC. MOM JUMBO ASST 000012  018-018000      MUG OCCASIONS DAD JUMBO 000012  018-019000      MUG OCC. LOVE JUMBO     000006  018-020000      MUG OCCASIONS MOM 2PCE  000012  018-030000      MUG OCCASIONS LOVE 2PCE 000006  018-040000      MUG OCCASIONS DAD 2PCE  000012  018-055000      COFFEE PLUNGER PL 600ML 000006  018-055100      TEAPOT PL W/STRAINER    000006  133-000079      KITCHEN SWAB 30x30CM    000012  133-000030      KITCHEN-SWAB 30cm ASSTD 000012 Z
J17021302                        DIANE COLLISON    CK464-003002      GAME THINK:CHESS KIDS   000006  368-000637      PLUSH BEAR SLEEPING LOV 000006  368-000111      PLUSH BEAR/DOG 29CM     000006  368-000175      PLUSH BEAR 4 ASSTD 18CM 000006                                                                                                                                                                                                                                                                                                                                                                                                                                                                                                                                                                                                                                                                                                                                                                                                 Z
M17021391                              CASH        CKSLAVE 4                       Z-REPORT No.   437TOTAL (Sales - Refunds)              0.00       CASH TO BE BANKED                    0.00       DEBIT CARDS                          0.00       CREDIT CARDS                         0.00       Z-READING                            0.00       AIRTIME DEBIT CARD SALES             0.00       AIRTIME CARD SALES                   0.00       OVERS/UNDERS                         0.00       AIRTIME CASH SALES                   0.00       GIFT CARDS                           0.00       GIFT CARD CASH SALES                 0.00       T O T A L  CASH PAYOUTS              0.00                                                                                                                                                                                                                                                                                                                                                      Z
M17021392                              CASH        CKABSENT                                                                                                                                                                                          ANNUAL LEAVE                                                                                                                                                                                    DAY OFF                                                                                                                                                                                         COMMENTS                                                                                                                                                                                                                                                                                                                                                                                       Z
Y17021300                                          CK00000000000000+000000
ZCK17021319253 SLAVE 4      SALES DATA                     NEXT INVOICE NO.  363948 0437
F093738496-056475         1701111044370000032ICSLAVE 4
F094812107-003120         1702090841460000052ICSLAVE 4
F094855304-001011         1702111036340000301ICSLAVE 4
X CK Slave 4 First invoice 363945 170213 Last invoice 363947 170213 Next invoice 363948 Total number of records 000000051 clbackup completed 19:25:33
