140645000140645               140645               170213CN     1400+00000+CN0000002630+0000002630+000000000+000000369+0000002990+0000000009+I20000000000+0000002990+Z
140645001140645206-000570     140645006003000633463DOOR STOPPER SILI/LEAF 0000001000+00002630+00000+0001T   00002630+0000000851          1400 WE7321               1BZ
140646000140646               140646               170213CN     1400+00000+CN0000002628+0000002628+000000000+000000368+0000002990+0000000006+I20000000000+0000002990+Z
140646001140646040-010105     140646006001023162359CANDLE-HOLDER MTL SMALL0000002000+00001314+00000+0001T   00001314+0000000859          1400 WE7510               1BZ
140647000140647               140647               170213CN     1400+00000+CN0000011834+0000011834+000000000+000001660+0000013494+0000000000+I40000013494+0000000000+Z
140647001140647200-003024     140647006001023657299REFUSE BAGS 20PCE BLACK0000001000+00001753+00000+0001T   00001753+0000000914          1400 WE7214               1BZ
140647002140647002-000801     140647006003000555994PEELER PL/MTL Y-SHAPE  0000001000+00001139+00000+0001T   00001139+0000000914          1400 WE7300               1BZ
140647003140647024-091103     140647006003453014307BAKING-CUP MUFFIN 50PCE0000001000+00002192+00000+0001T   00002192+0000000914          1400 WE7300               1BZ
140647004140647563-000317-C   140647006001023776204SERVIETTES 20PK  FLOWER0000001000+00002630+00000+0001T   00002630+0000000914          1400 WE7214               1BZ
140647005140647563-000317-F   140647006003000638314SERVIETTE 2PLY 33cm AST0000001000+00002630+00000+0001T   00002630+0000000914          1400 WE7214               1BZ
140647006140647105-001061     140647006003000629121CONTAINER CLIP LOCK    0000001000+00001490+00000+0001T   00001490+0000000914          1400 WE7210               1BZ
140648000140648               140648               170213CN     1400+00000+CN0000003067+0000003067+000000000+000000431+0000003498+0000000000+I40000003498+0000000000+Z
140648001140648040-000005     140648006001023901545C/HLDR WIRE KELTO 10CM 0000001000+00002630+00000+0001T   00003507+0008170922          1400 WE7510               1BZ
140648002140648080-000133     140648006003000535613CARD&ENV MINI ASTD DSGN0000001000+00000437+00000+0001T   00000437+0000000922          1400 WE7112               1BZ
140649000140649               140649               170213CN     1400+00000+CN0000003069+0000003069+000000000+000000430+0000003490+0000000009+I20000000000+0000003490+Z
140649001140649301-002030     140649006001023861030ORN WATERBALL DOLPHINS 0000001000+00003069+00000+0001T   00003069+0000000923          1400 WE7505               1BZ
140650000140650               140650               170213CN     1400+00000+CN0000003682+0000003682+000000000+000000516+0000004190+0000000008+I20000000000+0000004190+Z
140650001140650080-000127     140650006003000424351VALENTINES DAY 36x24CM 0000001000+00002192+00000+0001T   00002192+0000000925          1400 WE7112               1BZ
140650002140650077-000299     140650006003000395576G/BAG 32x25cm LRG LOVE 0000001000+00001490+00000+0001T   00001490+0000000925          1400 WE7112               1BZ
140651000140651               140651               170213CN     1400+00000+CN0000001753+0000001753+000000000+000000246+0000001990+0000000009+I20000000000+0000001990+Z
140651001140651006-000120     140651006001023346889BALLOONS 10PC MIX COL  0000001000+00001753+00000+0001T   00001753+0000000931          1400 WE7131               1BZ
140652000140652               140652               170213CN     1400+00000+CN0000001753+0000001753+000000000+000000246+0000001990+0000000009+I20000000000+0000001990+Z
140652001140652036-000615     140652006003000218769WASH-PEGS PL PCK-24    0000001000+00001753+00000+0001T   00001753+0000000932          1400 WE7212               1BZ
140653000140653               140653               170213CN     1400+00000+CN0000011400+0000011400+000000000+000001597+0000012990+0000000007+I20000000000+0000012990+Z
140653001140653082-007587     140653006003000654338SUNGLASS DESIGNER ASST 0000001000+00004385+00000+0001T   00004385+0000000934          1400 WE7160               1BZ
140653002140653082-000110     140653006003000360482READING GLS STRENGHT:2 0000001000+00004385+00000+0001T   00004385+0000000934          1400 WE7160               1BZ
140653003140653206-000200     140653006003000631469EGG SEPARATOR SILICONE 0000001000+00002630+00000+0001T   00002630+0000000934          1400 WE7321               1BZ
140654000140654               140654               170213CN     1400+00000+CN0000013205+0000013205+000000000+000001849+0000015054+0000000000+I40000015054+0000000000+Z
140654001140654560-000024     140654006003000651405ANIMALS DINOSAUR       0000001000+00013157+00000+0001T   00013157+0000000938          1400 WE7745               1BZ
140654002140654112-116069     140654006009681820277TCS CARRIER BAG JUMBO  0000001000+00000048+00000+0001T   00000048+0000000938          1400 WE7090               1BZ
140655000140655               140655               170213CN     1400+00000+CN0000001753+0000001753+000000000+000000246+0000001990+0000000009+I20000000000+0000001990+Z
140655001140655306-000020-A   140655006001023873583TISSUES 100PCE 19x18cm 0000001000+00001753+00000+0001T   00001753+0000000939          1400 WE7200               1BZ
140656000140656               140656               170213CN     1400+00000+CN0000005910+0000005910+000000000+000000828+0000006730+0000000008+I20000000000+0000006730+Z
140656001140656469-006602     140656006003000390328B/BLOCKS 26PC BACKPACK 0000001000+00005262+00000+0001T   00005262+0000000942          1400 WE7755               1BZ
140656002140656903-000848     140656008692806080076SWT SNACK BISCUIT 70g  0000001000+00000613+00000+0001T   00000613+0000000942          1400 WE7150               1BZ
140656003140656112-116038     140656006009681820246TCS CARRIER BAG MIDI   0000001000+00000035+00000+0001T   00000035+0000000942          1400 WE7090               1BZ
140657000140657               140657               170213CN     1400+00000+CN0000003541+0000003541+000000000+000000497+0000004030+0000000008+I20000000000+0000004030+Z
140657001140657174-000011     140657006001023523778W/MACHINE-BAG 50x40cm  0000001000+00001753+00000+0001T   00001753+0000000945          1400 WE7205               1BZ
140657002140657133-000018     140657006003000583218SWAB MICROFIBRE 30x30cm0000001000+00001753+00000+0001T   00001753+0000000945          1400 WE7212               1BZ
140657003140657112-116038     140657006009681820246TCS CARRIER BAG MIDI   0000001000+00000035+00000+0001T   00000035+0000000945          1400 WE7090               1BZ
140658000140658               140658               170213CN     1400+00000+CN0000004433+0000004433+000000000+000000621+0000005050+0000000004+I20000000000+0000005050+Z
140658001140658365-003053     140658006001023542250PLAY DOCTOR MEDICAL-CNT0000001000+00004385+00000+0001T   00004385+0000001039          1400 WE7725               1BZ
140658002140658112-116069     140658006009681820277TCS CARRIER BAG JUMBO  0000001000+00000048+00000+0001T   00000048+0000001039          1400 WE7090               1BZ
140659000140659               140659               170213CN     1400+00000+CN0000000874+0000000874+000000000+000000124+0000000990+0000000008+I20000000000+0000000990+Z
140659001140659080-000133-A   140659006003000647019MINI VALENTINES CARD   0000002000+00000437+00000+0001T   00000437+0000001039          1400 WE7112               1BZ
140660000140660               140660               170213CN     1400+00000+CN0000007016+0000007016+000000000+000000983+0000007990+0000000009+I20000000000+0000007990+Z
140660001140660079-001000     140660006003000448470CANVAS A2 WOOD MOUNTED 0000001000+00007016+00000+0001T   00007016+0000001051          1400 WE7130               1BZ
140661000140661               140661               170213CN     1400+00000+CN0000026358+0000026358+000000000+000003691+0000030040+0000000009+I20000000000+0000030040+Z
140661001140661034-079067     140661006003000638352COOEY FRUIT FEEDER EASY0000002000+00003507+00000+0001T   00003507+0000001057          1400 WE7215               1BZ
140661002140661024-000108     140661006001023422101MUFFIN-PAN 6-CUP  9x4cm0000002000+00009648+00000+0001T   00009648+0000001057          1400 WE7300               1BZ
140661003140661112-116069     140661006009681820277TCS CARRIER BAG JUMBO  0000001000+00000048+00000+0001T   00000048+0000001057          1400 WE7090               1BZ
140662000140662               140662               170213CN     1400+00000+CN0000003331+0000003331+000000000+000000467+0000003790+0000000008+I20000000000+0000003790+Z
140662001140662077-000303     140662006001023593757GIFT-BAG PAPER MED     0000001000+00001578+00000+0001T   00001578+0000001120          1400 WE7112               1BZ
140662002140662080-000113     140662006003000237449CARD&ENVLPE - LOVE     0000001000+00001753+00000+0001T   00001753+0000001120          1400 WE7112               1BZ
140663000140663               140663               170213CN     1400+00000+CN0000000788+0000000788+000000000+000000111+0000000890+0000000009+I20000000000+0000000890+Z
140663001140663033-005991     140663006001023678546NEEDLES H/HOLD-REPAIR  0000001000+00000788+00000+0001T   00000788+0000001155          1400 WE7200               1BZ
140664000140664               140664               170213CN     1400+00000+CN0000000788+0000000788+000000000+000000111+0000000890+0000000009+I20000000000+0000000890+Z
140664001140664001-000169     140664006005231103302TUMBLER 240ml HI-BALL  0000001000+00000788+00000+0001T   00000788+0000001156          1400 WE7515               1BZ
140665000140665               140665               170213CN     1400+00000+CN0000002278+0000002278+000000000+000000320+0000002590+0000000008+I20000000000+0000002590+Z
140665001140665204-000021     140665006001023759863M/HOLDER PHOTO FRAME   0000001000+00001402+00000+0001T   00001402+0000001159          1400 WE7300               1BZ
140665002140665027-000239     140665006001246634152MOP SWIFTA REFILLS 12PC0000001000+00000876+00000+0001T   00000876+0000001159          1400 WE7212               1BZ
140666000140666               140666               170213CN     1400+00000+CN0000001752+0000001752+000000000+000000246+0000001990+0000000008+I20000000000+0000001990+Z
140666001140666027-000239     140666006001246634152MOP SWIFTA REFILLS 12PC0000001000+00000876+00000+0001T   00000876+0000001200          1400 WE7212               1BZ
140666002140666087-000500     140666006003000022779RAZORS 3PC SHAPING     0000001000+00000876+00000+0001T   00001314+0008121200          1400 WE7200               1BZ
140667000140667               140667               170213CN     1400+00000+CN0000010256+0000010256+000000000+000001439+0000011690+0000000005+I20000000000+0000011690+Z
140667001140667080-000113     140667006003000237449CARD&ENVLPE - LOVE     0000001000+00001753+00000+0001T   00001753+0000001202          1400 WE7112               1BZ
140667002140667903-000183     140667006003000451043SWT LB HEART LOLLY     0000002000+00000393+00000+0001T   00000393+0000001202          1400 WE7150               1BZ
140667003140667039-809558     140667006003000344376CANDLE PILLAR 12CM 4AST0000001000+00006139+00000+0001T   00006139+0000001202          1400 WE7510               1BZ
140667004140667077-000303     140667006001023593757GIFT-BAG PAPER MED     0000001000+00001578+00000+0001T   00001578+0000001202          1400 WE7112               1BZ
140668000140668               140668               170213CN     1400+00000+CN0000006575+0000006575+000000000+000000922+0000007490+0000000007+I20000000000+0000007490+Z
140668002140668006-000120     140668006001023346889BALLOONS 10PC MIX COL  0000001000+00001753+00000+0001T   00001753+0000001207          1400 WE7131               1AZ
140668003140668301-085000     140668006003000674299 ORN OCC. LOVE HEARTS  0000001000+00002192+00000+0001T   00002192+0000001207          1400 WE7505               1AZ
140668004140668251-000003     140668006003000266159TAPE D/S 18x300mm V/PCK0000001000+00002630+00000+0001T   00002630+0000001207          1400 WE7810               1AZ
140669000140669               140669               170213CN     1400+00000+CN0000011134+0000011134+000000000+000001561+0000012690+0000000005+I20000000000+0000012690+Z
140669001140669077-000011-D   140669006001023808554TISSUE-WRAP WHITE 10PCE0000001000+00000876+00000+0001T   00000876+0000001216          1400 WE7112               1AZ
140669002140669903-000155     140669006009803374435SWT LOLLY I LUV U HEART0000001000+00000525+00000+0001T   00000525+0000001216          1400 WE7150               1AZ
140669003140669077-000299     140669006003000395576G/BAG 32x25cm LRG LOVE 0000001000+00001490+00000+0001T   00001490+0000001216          1400 WE7112               1AZ
140669004140669018-050000     140669006003000412679MUG OCC LOVE TWIN BEAR 0000001000+00006139+00000+0001T   00006139+0000001216          1400 WE7515               1AZ
140669005140669903-000095     140669006001704011495SWT SPECKLED-EGGS 100G 0000001000+00002104+00000+0001T   00002104+0000001216          1400 WE7150               1AZ
140670000140670               140670               170213CN     1400+00000+CN0000002630+0000002630+000000000+000000369+0000002990+0000000009+I20000000000+0000002990+Z
140670001140670562-000010     140670006001023762528KID'S PLAY DOUGH       0000001000+00002630+00000+0001T   00002630+0000001245          1400 WE7755               1BZ
140671000140671               140671               170213CN     1400+00000+CN0000006174+0000006174+000000000+000000865+0000007039+0000000000+I40000007039+0000000000+Z
140671001140671368-000175     140671006003000270316PLUSH BEAR 4 ASSTD 18CM0000001000+00006139+00000+0001T   00006139+0000001254          1400 2IC745               1BZ
140671002140671112-116038     140671006009681820246TCS CARRIER BAG MIDI   0000001000+00000035+00000+0001T   00000035+0000001254          1400 2IC090               1BZ
140672000140672               140672               170213CN     1400+00000+CN0000007925+0000007925+000000000+000001112+0000009030+0000000007+I20000000000+0000009030+Z
140672001140672200-000225     140672006008766126952BAKEPANS 5PCE          0000003000+00002630+00000+0001T   00002630+0000001255          1400 2IC214               1BZ
140672002140672112-116038     140672006009681820246TCS CARRIER BAG MIDI   0000001000+00000035+00000+0001T   00000035+0000001255          1400 2IC090               1BZ
140673000140673               140673               170213CN     1400+00000+CN0000006172+0000006172+000000000+000000865+0000007030+0000000007+I20000000000+0000007030+Z
140673001140673018-005009     140673006001023725608MUG W/PLUSH-BEAR LOVE  0000001000+00003507+00000+0001T   00003507+0000001257          1400 2IC515               1BZ
140673002140673368-000100     140673006001023474742PLUSH MD BEAR 12cm     0000001000+00002630+00000+0001T   00002630+0000001257          1400 2IC745               1BZ
140673003140673112-116038     140673006009681820246TCS CARRIER BAG MIDI   0000001000+00000035+00000+0001T   00000035+0000001257          1400 2IC090               1BZ
140674000140674               140674               170213CN     1400+00000+CN0000001753+0000001753+000000000+000000246+0000001990+0000000009+I20000000000+0000001990+Z
140674001140674020-006200     140674006001023488510KNIVES PARING 2PCE H/H 0000001000+00001753+00000+0001T   00001753+0000001300          1400 WE7300               1BZ
140675000140675               140675               170213CN     1400+00000+CN0000001139+0000001139+000000000+000000160+0000001290+0000000009+I20000000000+0000001290+Z
140675001140675046-000014     140675006001023725387BATTERIES SIZE:AAA 4PCE0000001000+00001139+00000+0001T   00001139+0000001303          1400 WE7312               1BZ
140676000140676               140676               170213CN     1400+00000+CN0000005295+0000005295+000000000+000000743+0000006030+0000000008+I20000000000+0000006030+Z
140676001140676077-000235     140676006003000160211GIFT-RIBBON ROLL METALC0000002000+00002630+00000+0001T   00002630+0000001314          1400 WE7112               1BZ
140676002140676112-116038     140676006009681820246TCS CARRIER BAG MIDI   0000001000+00000035+00000+0001T   00000035+0000001314          1400 WE7090               1BZ
140677000140677               140677               170213CN     1400+00000+CN0000008413+0000008413+000000000+000001178+0000009590+0000000001+I20000000000+0000009590+Z
140677001140677261-008349     140677006001023787590CAP-GUN 8-SHOT         0000001000+00002192+00000+0001T   00002192+0000001322          1400 WE7710               1BZ
140677002140677560-000023     140677006003000651399ANIMALS DRAGON         0000001000+00003507+00000+0001T   00003507+0000001322          1400 WE7745               1BZ
140677003140677261-000121     140677006001023341600GUN-CAPS 8-SHOT CARD-9 0000002000+00000700+00000+0001T   00000700+0000001322          1400 WE7710               1BZ
140677004140677079-013037     140677000795229376950ARTS & CRAFTS SETS ASST0000001000+00001314+00000+0001T   00001753+0008151322          1400 WE7130               1BZ
140678000140678               140678               170213CN     1400+00000+CN0000000035+0000000035+000000000+000000005+0000000040+0000000000+I20000000000+0000000040+Z
140678001140678112-116038     140678006009681820246TCS CARRIER BAG MIDI   0000001000+00000035+00000+0001T   00000035+0000001324          1400 WE7090               1BZ
140679000140679               140679               170213CN     1400+00000+CN0000001753+0000001753+000000000+000000246+0000001990+0000000009+I20000000000+0000001990+Z
140679001140679080-000123     140679006003000237722CARD&ENVELOPE-SYMPATHY 0000001000+00001753+00000+0001T   00001753+0000001325          1400 WE7112               1BZ
140680000140680               140680               170213CN     1400+00000+CN0000000876+0000000876+000000000+000000123+0000000990+0000000009+I20000000000+0000000990+Z
140680001140680077-000151     140680006008766114676GIFT-WRAP C/PHANE ASSTD0000001000+00000876+00000+0001T   00000876+0000001332          1400 WE7112               1BZ
140681000140681               140681               170213CN     1400+00000+CN0000001753+0000001753+000000000+000000246+0000001990+0000000009+I20000000000+0000001990+Z
140681001140681903-000619     140681006003000672455SWT LOLLY STR/BRRY 140G0000001000+00001753+00000+0001T   00001753+0000001336          1400 2IC150               1BZ
140682000140682               140682               170213CN     1400+00000+CN0000001753+0000001753+000000000+000000246+0000001990+0000000009+I20000000000+0000001990+Z
140682001140682036-000610     140682006001023627230WASHING-PEGS PL PACK-240000001000+00001753+00000+0001T   00001753+0000001340          1400 WE7212               1BZ
140683000140683               140683               170213CN     1400+00000+CN0000001578+0000001578+000000000+000000221+0000001799+0000000000+I40000001799+0000000000+Z
140683001140683018-000127     140683006001023380289MUG OCC STRAIGHT LOVE  0000001000+00001578+00000+0001T   00001753+0006471346          1400 WE7515               1BZ
140684000140684               140684               170213CN     1400+00000+CN0000032490+0000032490+000000000+000004553+0000037040+0000000003+I20000000000+0000037040+Z
140684001140684112-116069     140684006009681820277TCS CARRIER BAG JUMBO  0000001000+00000048+00000+0001T   00000048+0000001351          1400 WE7090               1BZ
140684002140684038-001800     140684006003000623303DOILIE PAPER HRT 24PC  0000003000+00003507+00000+0001T   00003507+0000001351          1400 WE7300               1BZ
140684003140684039-000799     140684006001023692382CANDLES TEALITE 100PCE 0000001000+00008771+00000+0001T   00008771+0000001351          1400 WE7510               1BZ
140684004140684039-091809     140684006008766091809CANDLE T/LITE 9PC BLCK 0000005000+00002630+00000+0001T   00002630+0000001351          1400 WE7510               1BZ
140685000140685               140685               170213CN     1400+00000+CN0000013155+0000013155+000000000+000001843+0000014990+0000000008+I20000000000+0000014990+Z
140685001140685077-000299-A   140685006003000670888GIFT-BAG PAPER JMB LOVE0000001000+00001753+00000+0001T   00001753+0000001353          1400 WE7112               1BZ
140685002140685368-000637     140685006001023874092PLUSH BEAR SLEEPING LOV0000001000+00011402+00000+0001T   00012279+0006471353          1400 WE7745               1BZ
140686000140686               140686               170213CN     1400+00000+CN0000004194+0000004194+000000000+000000589+0000004783+0000000000+I40000004783+0000000000+Z
140686001140686079-009700-M   140686006003000634101PAPER SIRIO A4 PINK COL0000001000+00000306+00000+0001T   00000306+0000001356          1400 WE7130               1BZ
140686002140686079-009700-L   140686006003000546350PAPER SIRIO A4 YELLOW  0000001000+00000306+00000+0001T   00000306+0000001356          1400 WE7130               1BZ
140686003140686079-009700-G   140686006003000545957PAPER SIRIO A4 LIME COL0000001000+00000306+00000+0001T   00000306+0000001356          1400 WE7130               1BZ
140686004140686079-009700-F   140686006003000545872PAPER SIRIO A4 TURQ COL0000001000+00000306+00000+0001T   00000306+0000001356          1400 WE7130               1BZ
140686005140686079-009700-I   140686006003000546114PAPER SIRIO A4 LILAC   0000001000+00000306+00000+0001T   00000306+0000001356          1400 WE7130               1BZ
140686006140686071-002999-A   140686006003000611577PEN STICKBALL 10PCE ASS0000001000+00001753+00000+0001T   00001753+0000001356          1400 WE7130               1BZ
140686007140686162-062770     140686006001492627700SS RHODIUM PARGE HOOPS 0000001000+00000876+00000+0001T   00000876+0000001356          1400 WE7160               1BZ
140686008140686112-116038     140686006009681820246TCS CARRIER BAG MIDI   0000001000+00000035+00000+0001T   00000035+0000001356          1400 WE7090               1BZ
140687000140687               140687               170213CN     1400+00000+CN0000001753+0000001753+000000000+000000246+0000001990+0000000009+I20000000000+0000001990+Z
140687001140687006-000093     140687006003000539932PARTY BANNER FLAGS ASST0000001000+00001753+00000+0001T   00001753+0000001400          1400 WE7131               1BZ
140688000140688               140688               170213CN     1400+00000+CN0000002192+0000002192+000000000+000000307+0000002490+0000000009+I20000000000+0000002490+Z
140688001140688080-000127     140688006003000424351VALENTINES DAY 36x24CM 0000001000+00002192+00000+0001T   00002192+0000001401          1400 WE7112               1BZ
140689000140689               140689               170213CN     1400+00000+CN0000024597+0000024597+000000000+000003448+0000028045+0000000000+I40000028045+0000000000+Z
140689001140689079-013032-E   140689006003000389766ART+CRAFT COL/PAPER    0000001000+00002630+00000+0001T   00002630+0000001408          1400 WE7130               1BZ
140689002140689466-002096     140689006001023800398CATCHBALL VELCRO W/BALL0000001000+00005262+00000+0001T   00005262+0000001408          1400 WE7785               1BZ
140689003140689263-000623     140689006001023905697VEHICLE HELICOPTER 30cm0000001000+00005262+00000+0001T   00005262+0000001408          1400 WE7710               1BZ
140689004140689006-000118     140689006001023730725BALLOONS 6PC TWISTER   0000001000+00001753+00000+0001T   00001753+0000001408          1400 WE7131               1BZ
140689005140689562-000020     140689006003000600861EDU PLAY DOUGH 60g 4PC 0000001000+00003507+00000+0001T   00003507+0000001408          1400 WE7755               1BZ
140689006140689047-000505     140689006009636901976PLUG-ADAPTOR 2-PIN     0000001000+00000876+00000+0001T   00000876+0000001408          1400 WE7880               1BZ
140689007140689047-000510     140689006003000304080PLUG-ADAPTOR 2x2P EURO 0000001000+00001753+00000+0001T   00001753+0000001408          1400 WE7880               1BZ
140689008140689903-000219     140689006925925911450SWT ERKO MALLOW CHOC   0000002000+00001753+00000+0001T   00001753+0000001408          1400 WE7150               1BZ
140689009140689112-116069     140689006009681820277TCS CARRIER BAG JUMBO  0000001000+00000048+00000+0001T   00000048+0000001408          1400 WE7090               1BZ
140690000140690               140690               170213CN     1400+00000+CN0000001578+0000001578+000000000+000000221+0000001790+0000000009+I20000000000+0000001790+Z
140690001140690028-000799     140690006001023812186SKEWERS BAMBOO 100PCE  0000001000+00001578+00000+0001T   00001578+0000001410          1400 WE7305               1BZ
140691000140691               140691               170213CN     1400+00000+CN0000008640+0000008640+000000000+000001211+0000009850+0000000001+I20000000000+0000009850+Z
140691001140691077-000926     140691006003000414178G/WRAP 700mmx2m LOVE   0000001000+00002192+00000+0001T   00002192+0000001420          1400 WE7112               1BZ
140691002140691903-000611     140691006003000617326SWT SNAPPER 20cm       0000001000+00001753+00000+0001T   00001753+0000001420          1400 WE7150               1BZ
140691003140691019-071597     140691006008766071597PEBBLES 250g CLEAR  BAG0000001000+00002192+00000+0001T   00002192+0000001420          1400 WE7510               1BZ
140691004140691079-000510     140691006001023509079CRAYONS WAX 12-COLOUR  0000001000+00002455+00000+0001T   00002455+0000001420          1400 WE7130               1BZ
140691005140691112-116069     140691006009681820277TCS CARRIER BAG JUMBO  0000001000+00000048+00000+0001T   00000048+0000001420          1400 WE7090               1BZ
140692000140692               140692               170213CN     1400+00000+CN0000004204+0000004204+000000000+000000592+0000004790+0000000006+I20000000000+0000004790+Z
140692001140692079-009702-B   140692008427973059491PAPER SIRIO A2 WHITE   0000003000+00001051+00000+0001T   00001051+0000001422          1400 WE7130               1BZ
140692002140692079-009702-D   140692008427973059354PAPER SIRIO A2 RED COL 0000001000+00001051+00000+0001T   00001051+0000001422          1400 WE7130               1BZ
140693000140693               140693               170213CN     1400+00000+CN0000005307+0000005307+000000000+000000745+0000006050+0000000002+I20000000000+0000006050+Z
140693001140693036-000063     140693006009654960436COATHANGERS VIRGIN 5PCE0000003000+00001753+00000+0001T   00001753+0000001423          1400 WE7212               1BZ
140693002140693112-116069     140693006009681820277TCS CARRIER BAG JUMBO  0000001000+00000048+00000+0001T   00000048+0000001423          1400 WE7090               1BZ
140694000140694               140694               170213CN     1400+00000+CN0000013154+0000013154+000000000+000001843+0000014990+0000000007+I20000000000+0000014990+Z
140694001140694079-013032-D   140694006003000389643RIBBONS                0000001000+00002630+00000+0001T   00002630+0000001427          1400 WE7130               1BZ
140694002140694174-000004     140694006003000583317SHOE BAG 9-POCKETS     0000002000+00005262+00000+0001T   00005262+0000001427          1400 WE7205               1BZ
140695000140695               140695               170213CN     1400+00000+CN0000002192+0000002192+000000000+000000307+0000002490+0000000009+I20000000000+0000002490+Z
140695001140695251-000002     140695006003000093991TAPE D-SIDED 24x1000mm 0000001000+00002192+00000+0001T   00002192+0000001428          1400 WE7810               1BZ
140696000140696               140696               170213CN     1400+00000+CN0000008813+0000008813+000000000+000001237+0000010050+0000000000+I20000000000+0000010050+Z
140696001140696088-000084     140696006001023798060P/POURRI 120G ASSTD    0000005000+00001753+00000+0001T   00001753+0000001429          1400 WE7212               1BZ
140696002140696112-116069     140696006009681820277TCS CARRIER BAG JUMBO  0000001000+00000048+00000+0001T   00000048+0000001429          1400 WE7090               1BZ
140697000140697               140697               170213CN     1400+00000+CN0000001578+0000001578+000000000+000000221+0000001790+0000000009+I20000000000+0000001790+Z
140697001140697077-000303     140697006001023593757GIFT-BAG PAPER MED     0000001000+00001578+00000+0001T   00001578+0000001432          1400 WE7112               1BZ
140698000140698               140698               170213CN     1400+00000+CN0000000874+0000000874+000000000+000000124+0000000990+0000000008+I20000000000+0000000990+Z
140698001140698080-000133-A   140698006003000647019MINI VALENTINES CARD   0000002000+00000437+00000+0001T   00000437+0000001433          1400 WE7112               1BZ
140699000140699               140699               170213CN     1400+00000+CN0000002278+0000002278+000000000+000000320+0000002590+0000000008+I20000000000+0000002590+Z
140699001140699301-085002     140699006003000420704ORN OCC. LOVE BELL ASST0000001000+00001753+00000+0001T   00002630+0008121434          1400 WE7505               1BZ
140699002140699903-000155     140699006009803374435SWT LOLLY I LUV U HEART0000001000+00000525+00000+0001T   00000525+0000001434          1400 WE7150               1BZ
140700000140700               140700               170213CN     1400+00000+CN0000000035+0000000035+000000000+000000005+0000000040+0000000000+I20000000000+0000000040+Z
140700001140700112-116038     140700006009681820246TCS CARRIER BAG MIDI   0000001000+00000035+00000+0001T   00000035+0000001435          1400 WE7090               1BZ
140701000140701               140701               170213CN     1400+00000+CN0000004558+0000004558+000000000+000000639+0000005190+0000000007+I20000000000+0000005190+Z
140701001140701077-000303     140701006001023593757GIFT-BAG PAPER MED     0000001000+00001578+00000+0001T   00001578+0000001437          1400 WE7112               1BZ
140701002140701079-130100     140701006003000542635A&C DIY COLOUR EYES 24P0000002000+00001490+00000+0001T   00001490+0000001437          1400 WE7130               1BZ
140702000140702               140702               170213CN     1400+00000+CN0000003203+0000003203+000000000+000000450+0000003653+0000000000+I40000003653+0000000000+Z
140702001140702112-116069     140702006009681820277TCS CARRIER BAG JUMBO  0000001000+00000048+00000+0001T   00000048+0000001444          1400 WE7090               1AZ
140702002140702105-001005     140702006001023858214CONTAINERS MINI 6PCE   0000001000+00001402+00000+0001T   00001402+0000001444          1400 WE7210               1AZ
140702004140702077-000382     140702006003000247820GIFT-BAG MED 18X23CM   0000001000+00001753+00000+0001T   00001753+0000001444          1400 WE7112               1AZ
140703000140703               140703               170213CN     1400+00000+CN0000001753+0000001753+000000000+000000246+0000001999+0000000000+I40000001999+0000000000+Z
140703001140703046-002032-PK2 140703004897006175063BATTERIES CR-2032  2PCE0000001000+00001753+00000+0001T   00001753+0000001450          1400 WE7312               1BZ
140704000140704               140704               170213CN     1400+00000+CN0000004207+0000004207+000000000+000000589+0000004790+0000000006+I20000000000+0000004790+Z
140704001140704301-085004     140704006003000420469ORN LOVE PLAQUE 21X10CM0000001000+00003507+00000+0001T   00003946+0006471451          1400 WE7505               1BZ
140704002140704566-002000     140704000721129013206STICKERS CRYSTAL ASSTD 0000001000+00000700+00000+0001T   00000700+0000001451          1400 WE7130               1BZ
140705000140705               140705               170213CN     1400+00000+CN0000011873+0000011873+000000000+000001664+0000013530+0000000007+I20000000000+0000013530+Z
140705001140705563-000318-L   140705006003000407088SERVIETTES 33cm RED    0000001000+00002192+00000+0001T   00002192+0000001453          1400 WE7214               1BZ
140705002140705301-085007     140705006003000673698ORN OCC. LOVE S/PLAQUE 0000001000+00007893+00000+0001T   00007893+0000001453          1400 WE75053IC            1BZ
140705003140705080-000113     140705006003000237449CARD&ENVLPE - LOVE     0000001000+00001753+00000+0001T   00001753+0000001453          1400 WE7112               1BZ
140705004140705112-116038     140705006009681820246TCS CARRIER BAG MIDI   0000001000+00000035+00000+0001T   00000035+0000001453          1400 WE7090               1BZ
140706000140706               140706               170213CN     1400+00000+CN0000007013+0000007013+000000000+000000984+0000007990+0000000007+I20000000000+0000007990+Z
140706001140706200-000035     140706006001023768810FOOD-BOWL-COVERS 5PCE  0000001000+00002630+00000+0001T   00002630+0000001454          1400 WE7214               1BZ
140706002140706105-001039-A   140706006003000632473CONTAINER W/VENT ROUND 0000001000+00001753+00000+0001T   00001753+0000001454          1400 WE7210               1BZ
140706003140706033-000126     140706006003000676736HAIR COMB BRIGHT 20cm  0000001000+00002630+00000+0001T   00002630+0000001454          1400 WE7200               1BZ
140707000140707               140707               170213CN     1400+00000+CN0000001927+0000001927+000000000+000000271+0000002190+0000000008+I20000000000+0000002190+Z
140707001140707106-001100-B   140707006001023651693FRIDGE BOTTLE ASSORTED 0000001000+00001490+00000+0001T   00001490+0000001457          1400 WE7210               1BZ
140707002140707080-000133-A   140707006003000647019MINI VALENTINES CARD   0000001000+00000437+00000+0001T   00000437+0000001457          1400 WE7112               1BZ
140708000140708               140708               170213CN     1400+00000+CN0000014911+0000014911+000000000+000002088+0000016990+0000000009+I20000000000+0000016990+Z
140708001140708495-056512     140708000078257565122INTEX LOUNGER CANDY    0000001000+00014911+00000+0001T   00014911+0000001504          1400 WE7787               1BZ
140709000140709               140709               170213CN     1400+00000+CN0000003678+0000003678+000000000+000000516+0000004190+0000000004+I20000000000+0000004190+Z
140709001140709007-000555     140709006001023848239MEMO-PAD MINI LOVE     0000006000+00000613+00000+0001T   00000613+0000001507          1400 WE7130               1BZ
140710000140710               140710               170213CN     1400+00000+CN0000001400+0000001400+000000000+000000196+0000001590+0000000006+I20000000000+0000001590+Z
140710001140710903-000120     140710006002099001665SWEET GS ZILLIONS 50g  0000001000+00000700+00000+0001T   00000700+0000001510          1400 WE7150               1BZ
140710002140710565-000735     140710006003000615674NOVELTY PUTTY BOUNCING 0000001000+00000700+00000+0001T   00000700+0000001510          1400 WE7745               1BZ
140711000140711               140711               170213CN     1400+00000+CN0000002664+0000002664+000000000+000000374+0000003030+0000000008+I20000000000+0000003030+Z
140711001140711903-000123     140711006925925909280SWEET GS MINI MALLOWS  0000001000+00000876+00000+0001T   00000876+0000001516          1400 WE7150               1BZ
140711002140711361-000127     140711006003000602216DOLL SML 15cm MERMAID  0000001000+00001753+00000+0001T   00001753+0000001516          1400 WE7725               1BZ
140711003140711112-116038     140711006009681820246TCS CARRIER BAG MIDI   0000001000+00000035+00000+0001T   00000035+0000001516          1400 WE7090               1BZ
140712000140712               140712               170213CN     1400+00000+CN0000023147+0000023147+000000000+000003245+0000026392+0000000000+I40000026392+0000000000+Z
140712001140712077-000299     140712006003000395576G/BAG 32x25cm LRG LOVE 0000002000+00001490+00000+0001T   00001490+0000001525          1400 WE7112               1BZ
140712002140712368-000175     140712006003000270316PLUSH BEAR 4 ASSTD 18CM0000002000+00006139+00000+0001T   00006139+0000001525          1400 WE7745               1BZ
140712003140712301-085001     140712006003000297610ORN WATERBALL LOVE ASST0000001000+00004823+00000+0001T   00004823+0000001525          1400 WE7505               1BZ
140712004140712080-000139     140712006003000611690CARD & ENV MINI SET 6PC0000001000+00002192+00000+0001T   00002192+0000001525          1400 WE7112               1BZ
140712005140712080-000133-A   140712006003000647019MINI VALENTINES CARD   0000002000+00000437+00000+0001T   00000437+0000001525          1400 WE7112               1BZ
140713000140713               140713               170213CN     1400+00000+CN0000027045+0000027045+000000000+000003794+0000030839+0000000000+I40000030839+0000000000+Z
140713001140713112-116069     140713006009681820277TCS CARRIER BAG JUMBO  0000001000+00000048+00000+0001T   00000048+0000001532          1400 WE7090               1AZ
140713002140713051-002407     140713006003000452491SPRAYER TRIGGER 550ml  0000001000+00001753+00000+0001T   00001753+0000001532          1400 WE7820               1AZ
140713003140713903-000155     140713006009803374435SWT LOLLY I LUV U HEART0000003000+00000525+00000+0001T   00000525+0000001532          1400 WE7150               1AZ
140713004140713466-072725     140713006001023622532YO-YO PL               0000001000+00002630+00000+0001T   00002630+0000001532          1400 WE7785               1AZ
140713005140713079-013102     140713006003000019601ART+CRAFT DIY PIPE-CLNR0000001000+00002192+00000+0001T   00002192+0000001532          1400 WE7130               1AZ
140713006140713071-003023     140713006001023836120BALLPENS 10PCE MINI GEL0000001000+00003507+00000+0001T   00003507+0000001532          1400 WE7130               1AZ
140713007140713567-011915     140713009780799375503BK EDU WISKUNDE 7-8JAAR0000001000+00002630+00000+0001T   00002630+0000001532          1400 WE7757               1AZ
140713008140713567-011306     140713006003000598434BOOK ACTIVITY TRACE    0000001000+00003069+00000+0001T   00003069+0000001532          1400 WE7757               1AZ
140713009140713567-011913     140713009780799375466BK EDU VOORSPRONG AFR  0000001000+00002630+00000+0001T   00002630+0000001532          1400 WE7757               1AZ
140713010140713567-011441     140713009781842395752BK STICKER FAIRY PRINCE0000001000+00003507+00000+0001T   00003507+0000001532          1400 WE7757               1AZ
140713011140713567-011913     140713009780799375466BK EDU VOORSPRONG AFR  0000001000+00002630+00000+0001T   00002630+0000001532          1400 WE7757               1AZ
140713012140713080-000133     140713006003000535613CARD&ENV MINI ASTD DSGN0000002000+00000437+00000+0001T   00000437+0000001532          1400 WE7112               1AZ
140714000140714               140714               170213CN     1400+00000+CN0000005699-0000005699-000000000+000000799-0000006500-0000000002+I20000000000+0000006500-Z
140714001140714567-011306     140714006003000598434BOOK ACTIVITY TRACE    0000001000-00003069+00000+0001T   00003069+0000001537          1400 WE77573IC            1 Z
140714002140714567-011913     140714009780799375466BK EDU VOORSPRONG AFR  0000001000-00002630+00000+0001T   00002630+0000001537          1400 WE77573IC            1 Z
140715000140715               140715               170213CN     1400+00000+CN0000008819+0000008819+000000000+000001235+0000010050+0000000004+I20000000000+0000010050+Z
140715001140715466-000602     140715006001023508010BALL SOCCER 2-PLY NEON 0000001000+00008771+00000+0001T   00008771+0000001543          1400 WE7785               1BZ
140715002140715112-116069     140715006009681820277TCS CARRIER BAG JUMBO  0000001000+00000048+00000+0001T   00000048+0000001543          1400 WE7090               1BZ
140716000140716               140716               170213CN     1400+00000+CN0000001578+0000001578+000000000+000000221+0000001790+0000000009+I20000000000+0000001790+Z
140716001140716080-000124     140716006003000297733CARD & ENV VALENTINES  0000001000+00001578+00000+0001T   00001578+0000001547          1400 WE7112               1BZ
140717000140717               140717               170213CN     1400+00000+CN0000013761+0000013761+000000000+000001930+0000015691+0000000000+I40000015691+0000000000+Z
140717001140717077-000386     140717006003000275489G/BAG POP UP 18x23CM   0000001000+00001578+00000+0001T   00001578+0000001551          1400 WE7112               1BZ
140717002140717903-000090     140717006009826020821SWT GS CHOCO COINS 60g 0000001000+00002104+00000+0001T   00002104+0000001551          1400 WE7150               1BZ
140717003140717903-000926     140717006914204004556SWT NOVELTY ST N/LACE  0000001000+00001753+00000+0001T   00001753+0000001551          1400 WE7150               1BZ
140717004140717566-001012     140717006001023528070STICKERS GLOW IN DARK  0000001000+00001314+00000+0001T   00001314+0000001551          1400 WE7130               1BZ
140717005140717566-000037     140717006003000383948STICKER 3D GEL         0000001000+00001753+00000+0001T   00001753+0000001551          1400 WE7130               1BZ
140717006140717007-000535     140717000651728790904NOTE-BOOK DRESS TEEN   0000001000+00001753+00000+0001T   00001753+0000001551          1400 WE7130               1BZ
140717007140717566-001118     140717006003000682171STICKERS CELL PHONE    0000001000+00001753+00000+0001T   00001753+0000001551          1400 WE7130               1BZ
140717008140717079-006496     140717006003000160105GLITTER SHAKERS        0000001000+00001753+00000+0001T   00001753+0000001551          1400 WE7130               1BZ
140718000140718               140718               170213CN     1400+00000+CN0000001226+0000001226+000000000+000000172+0000001390+0000000008+I20000000000+0000001390+Z
140718001140718047-000001-AA  140718006001023723529INS-TAPE WHITE 18mmx10m0000002000+00000613+00000+0001T   00000613+0000001557          1400 WE7880               1BZ
140719000140719               140719               170213CN     1400+00000+CN0000002454+0000002454+000000000+000000344+0000002790+0000000008+I20000000000+0000002790+Z
140719001140719077-000322     140719006001023677532GIFT-BAG 18X23CM E/D FL0000002000+00001227+00000+0001T   00001227+0000001559          1400 WE7112               1BZ
140720000140720               140720               170213CN     1400+00000+CN0000007045+0000007045+000000000+000000989+0000008030+0000000004+I20000000000+0000008030+Z
140720001140720006-000190     140720006003000685530BALLOONS LOVE 81x91cm  0000001000+00004385+00000+0001T   00004385+0000001601          1400 WE7131               1BZ
140720002140720903-000155     140720006009803374435SWT LOLLY I LUV U HEART0000005000+00000525+00000+0001T   00000525+0000001601          1400 WE7150               1BZ
140720003140720112-116038     140720006009681820246TCS CARRIER BAG MIDI   0000001000+00000035+00000+0001T   00000035+0000001601          1400 WE7090               1BZ
140721000140721               140721               170213CN     1400+00000+CN0000001924+0000001924+000000000+000000272+0000002190+0000000006+I20000000000+0000002190+Z
140721001140721080-000133-A   140721006003000647019MINI VALENTINES CARD   0000002000+00000437+00000+0001T   00000437+0000001602          1400 WE7112               1BZ
140721002140721903-000155     140721006009803374435SWT LOLLY I LUV U HEART0000002000+00000525+00000+0001T   00000525+0000001602          1400 WE7150               1BZ
140722000140722               140722               170213CN     1400+00000+CN0000012500+0000012500+000000000+000001752+0000014250+0000000002+I20000000000+0000014250+Z
140722001140722159-000114     140722006001023507945SHOWER CAP PVC ASSTD   0000001000+00001490+00000+0001T   00001490+0000001612          1400 WE7200               1BZ
140722002140722174-000313     140722006003000344086STORAGE BAG VACUUM SEAL0000001000+00003069+00000+0001T   00003069+0000001612          1400 WE7205               1BZ
140722003140722174-000177     140722006001023816900STORAGE W/HNDLES SQUARE0000001000+00007893+00000+0001T   00007893+0000001612          1400 WE7205               1BZ
140722004140722112-116069     140722006009681820277TCS CARRIER BAG JUMBO  0000001000+00000048+00000+0001T   00000048+0000001612          1400 WE7090               1BZ
140723000140723               140723               170213CN     1400+00000+CN0000005699+0000005699+000000000+000000798+0000006490+0000000007+I20000000000+0000006490+Z
140723001140723486-001012     140723006001023820907CLOCK ALARM SQR 10X12CM0000001000+00004385+00000+0001T   00004385+0000001612          1400 WE7510               1BZ
140723002140723046-000012     140723006904708013062BATTERIES AA  CARD-OF-40000001000+00001314+00000+0001T   00001314+0000001612          1400 WE7312               1BZ
140724000140724               140724               170213CN     1400+00000+CN0000007924+0000007924+000000000+000001112+0000009030+0000000006+I20000000000+0000009030+Z
140724001140724006-000093     140724006003000539932PARTY BANNER FLAGS ASST0000002000+00001753+00000+0001T   00001753+0000001614          1400 WE7131               1BZ
140724002140724038-001803     140724006001023766588DOILIES 17cm RND 18PC  0000001000+00001753+00000+0001T   00001753+0000001614          1400 WE7300               1BZ
140724003140724106-001099     140724006003000653447WATER BOTTLE 650ml     0000001000+00002630+00000+0001T   00002630+0000001614          1400 WE7210               1BZ
140724004140724112-116038     140724006009681820246TCS CARRIER BAG MIDI   0000001000+00000035+00000+0001T   00000035+0000001614          1400 WE7090               1BZ
140725000140725               140725               170213CN     1400+00000+CN0000001753+0000001753+000000000+000000246+0000001990+0000000009+I20000000000+0000001990+Z
140725001140725903-000081     140725006001704014076SWT F/PASTILLES 100G   0000001000+00001753+00000+0001T   00001753+0000001625          1400 WE7150               1BZ
140726000140726               140726               170213CN     1400+00000+CN0000007875+0000007875+000000000+000001110+0000008980+0000000005+I20000000000+0000008980+Z
140726001140726903-000155     140726006009803374435SWT LOLLY I LUV U HEART0000015000+00000525+00000+0001T   00000525+0000001627          1400 WE7150               1BZ
140727000140727               140727               170213CN     1400+00000+CN0000001753+0000001753+000000000+000000246+0000001990+0000000009+I20000000000+0000001990+Z
140727001140727080-000113     140727006003000237449CARD&ENVLPE - LOVE     0000001000+00001753+00000+0001T   00001753+0000001628          1400 WE7112               1BZ
140728000140728               140728               170213CN     1400+00000+CN0000006219+0000006219+000000000+000000874+0000007093+0000000000+I40000007093+0000000000+Z
140728001140728079-009702-D   140728008427973059354PAPER SIRIO A2 RED COL 0000001000+00001051+00000+0001T   00001051+0000001630          1400 WE7130               1BZ
140728002140728079-009702-B   140728008427973059491PAPER SIRIO A2 WHITE   0000001000+00001051+00000+0001T   00001051+0000001630          1400 WE7130               1BZ
140728003140728079-009702-E   140728008427973059439PAPER SIRIO A2 BLUE    0000001000+00001051+00000+0001T   00001051+0000001630          1400 WE7130               1BZ
140728004140728028-000797     140728006001023812124SKEWERS 15cm 100PCE    0000002000+00000876+00000+0001T   00000876+0000001630          1400 WE7305               1BZ
140728005140728200-000066     140728006003000365975STRAWS 12PCE W/UMBRELLA0000001000+00001314+00000+0001T   00001314+0000001630          1400 WE7214               1BZ
140729000140729               140729               170213CN     1400+00000+CN0000000393+0000000393+000000000+000000056+0000000440+0000000009+I20000000000+0000000440+Z
140729001140729903-000183     140729006003000451043SWT LB HEART LOLLY     0000001000+00000393+00000+0001T   00000393+0000001631          1400 WE7150               1BZ
140730000140730               140730               170213CN     1400+00000+CN0000006139+0000006139+000000000+000000860+0000006999+0000000000+I40000006999+0000000000+Z
140730001140730002-003725     140730006001023849557COLANDER S/S 24x10cm   0000001000+00006139+00000+0001T   00006139+0000001635          1400 2IC300               1BZ
140731000140731               140731               170213CN     1400+00000+CN0000008379+0000008379+000000000+000001174+0000009553+0000000000+I40000009553+0000000000+Z
140731001140731361-009988     140731006001023866011PONY 24cm W/SIDE-SADDLE0000001000+00006139+00000+0001T   00006139+0000001637          1400 2IC725               1BZ
140731002140731080-000127     140731006003000424351VALENTINES DAY 36x24CM 0000001000+00002192+00000+0001T   00002192+0000001637          1400 2IC112               1BZ
140731003140731112-116069     140731006009681820277TCS CARRIER BAG JUMBO  0000001000+00000048+00000+0001T   00000048+0000001637          1400 2IC090               1BZ
B14070500                                          170213CN301-085007     14524236SLAVE 1     WE73IC0000002000+0000001000+0000000000000+
C14066800                                          170213CN251-000003     12070768SLAVE 1     WE73IC0000000000+0000000000+0010000002000+
C14070200                                          170213CN306-001660     14434127SLAVE 1     WE73IC0000000000+0000000000+0030000001000+
C14071300                                          170213CN903-000510     15295665SLAVE 1     WE73IC0000000000+0000000000+0010000003000+
M17021301                              SHIEHAAM    CNSLAVE 1 Z READING R 5846.81                     CASH BANKING R 4087.50                          CREDIT CARDS R 1759.31                          DELETED LINES R 181.94                          Z READING NR 629                                THANX CERES /CN
M17021391                              CASH        CNSLAVE 1                       Z-REPORT No.   629TOTAL (Sales - Refunds)           5846.81       CASH TO BE BANKED                 4087.50       DEBIT CARDS                          0.00       CREDIT CARDS                      1759.31       Z-READING                         5846.81       AIRTIME DEBIT CARD SALES             0.00       AIRTIME CARD SALES                   0.00       OVERS/UNDERS                         0.00       AIRTIME CASH SALES                   0.00       GIFT CARDS                           0.00       GIFT CARD CASH SALES                 0.00       T O T A L  CASH PAYOUTS              0.00                                                                                                                                                                                                                                                                                                                                                      Z
M17021392                              CASH        CNABSENT                                                                                                                                                                                          ANNUAL LEAVE                                                                                                                                                                                    DAY OFF                                                                                                                                                                                         COMMENTS                                                                                                                                                                                                                                                                                                                                                                                       Z
Y17021300                                          CN00000000518911+000086
ZCN17021319253 SLAVE 1      SALES DATA                     NEXT INVOICE NO.  140732 0629
F094808490-048257         1702090829270000012ICSLAVE 1
X CN Slave 1 First invoice 140645 170213 Last invoice 140731 170213 Next invoice 140732 Total number of records 000000302 clbackup completed 19:25:45
