151783000151783               151783               170213CN     1400+00000+CN0000002579+0000002579+000000000+000000364+0000002940+0000000003+I20000000000+0000002940+Z
151783001151783903-000183     151783006003000451043SWT LB HEART LOLLY     0000003000+00000393+00000+0001T   00000393+0000000841          1400 ER1150               2AZ
151783002151783018-000177     151783006001023797513MUG MINI LOVE ASSTD    0000002000+00000700+00000+0001T   00000700+0000000841          1400 ER1515               2AZ
151784000151784               151784               170213CN     1400+00000+CN0000021264+0000021264+000000000+000002981+0000024245+0000000000+I40000024245+0000000000+Z
151784001151784112-116069     151784006009681820277TCS CARRIER BAG JUMBO  0000001000+00000048+00000+0001T   00000048+0000000954          1400 DP3090               2AZ
151784002151784077-000384     151784006003000275243G/BAG HOT STMP 18x23CM 0000001000+00001490+00000+0001T   00001490+0000000954          1400 DP3112               2AZ
151784003151784362-002430     151784006001023707314HAIR ACCESS SHINY PURSE0000001000+00004385+00000+0001T   00004385+0000000954          1400 DP3160               2AZ
151784004151784089-060027     151784006003000245871KEY-CHAIN HEART 6X6cm  0000002000+00003069+00000+0001T   00003069+0000000954          1400 DP3205               2AZ
151784005151784362-001103     151784006001023793515JWLRY GRL ASS 2PC ASSTD0000001000+00001753+00000+0001T   00001753+0000000954          1400 DP3160               2AZ
151784006151784903-000090     151784006009826020821SWT GS CHOCO COINS 60g 0000001000+00002104+00000+0001T   00002104+0000000954          1400 DP3150               2AZ
151784007151784903-000698     151784006002099007032SWT CANDY ECLAIRS 90g  0000001000+00001139+00000+0001T   00001139+0000000954          1400 DP3150               2AZ
151784008151784903-000095     151784006001704011495SWT SPECKLED-EGGS 100G 0000001000+00002104+00000+0001T   00002104+0000000954          1400 DP3150               2AZ
151784009151784903-000494     151784006001704009911SWT GUMMY TEENY TEDDIES0000001000+00000876+00000+0001T   00000876+0000000954          1400 DP3150               2AZ
151784010151784903-000499     151784006001704012492SWT CHOC MALLOWS 50g   0000001000+00001227+00000+0001T   00001227+0000000954          1400 DP3150               2AZ
151785000151785               151785               170213CN     1400+00000+CN0000001314+0000001314+000000000+000000184+0000001490+0000000008+I20000000000+0000001490+Z
151785001151785903-005002     151785006002580020021SWT MALLOW SNAKE 120g  0000001000+00001314+00000+0001T   00001314+0000000955          1400 DP3150               2AZ
151786000151786               151786               170213CN     1400+00000+CN0000006138+0000006138+000000000+000000860+0000006990+0000000008+I20000000000+0000006990+Z
151786001151786038-092233     151786006003000328925TABLE-MAT N/SLIP ASST  0000002000+00003069+00000+0001T   00003507+0008190956          1400 DP3300               2AZ
151787000151787               151787               170213CN     1400+00000+CN0000002104+0000002104+000000000+000000295+0000002390+0000000009+I20000000000+0000002390+Z
151787001151787903-000090     151787006009826020821SWT GS CHOCO COINS 60g 0000001000+00002104+00000+0001T   00002104+0000001007          1400 DP3150               2AZ
151788000151788               151788               170213CN     1400+00000+CN0000001753+0000001753+000000000+000000246+0000001990+0000000009+I20000000000+0000001990+Z
151788001151788006-000240     151788006003000460595PARTY INVITES 12PC     0000001000+00001753+00000+0001T   00001753+0000001008          1400 DP3131               2AZ
151789000151789               151789               170213CN     1400+00000+CN0000008329+0000008329+000000000+000001167+0000009490+0000000006+I20000000000+0000009490+Z
151789001151789046-000012-VP  151789006003000537914BATTERIES H/P SIZE:AA  0000001000+00004823+00000+0001T   00004823+0000001009          1400 DP3312               2AZ
151789002151789046-000012-A   151789006003000208296BATTERIES H/POWER SZ:AA0000001000+00002192+00000+0001T   00002192+0000001009          1400 DP3312               2AZ
151789003151789046-000012     151789006904708013062BATTERIES AA  CARD-OF-40000001000+00001314+00000+0001T   00001314+0000001009          1400 DP3312               2AZ
151790000151790               151790               170213CN     1400+00000+CN0000005262+0000005262+000000000+000000737+0000005999+0000000000+I40000005999+0000000000+Z
151790001151790566-000322     151790006003000423132STICKER R/DEC CHANDELIE0000001000+00005262+00000+0001T   00005262+0000001012          1400 DP3130               2AZ
151791000151791               151791               170213CN     1400+00000+CN0000002892+0000002892+000000000+000000405+0000003297+0000000000+I40000003297+0000000000+Z
151791001151791566-002000     151791000721129013206STICKERS CRYSTAL ASSTD 0000001000+00000700+00000+0001T   00000700+0000001014          1400 DP3130               2AZ
151791002151791566-000359     151791006003000582709STICKER BOOK LOVE SPARK0000001000+00002192+00000+0001T   00002192+0000001014          1400 DP3130               2AZ
151792000151792               151792               170213CN     1400+00000+CN0000001576+0000001576+000000000+000000221+0000001790+0000000007+I20000000000+0000001790+Z
151792001151792033-010721     151792006001023678669SAFETY-PINS 20PCE ASSTD0000001000+00000700+00000+0001T   00000700+0000001016          1400 DP3200               2AZ
151792002151792033-010720     151792006001023678645SAFETY-PINS 50PCE SMALL0000001000+00000876+00000+0001T   00000876+0000001016          1400 DP3200               2AZ
151793000151793               151793               170213CN     1400+00000+CN0000005434+0000005434+000000000+000000761+0000006195+0000000000+I40000006195+0000000000+Z
151793001151793301-085004     151793006003000420469ORN LOVE PLAQUE 21X10CM0000001000+00003507+00000+0001T   00003946+0006471017          1400 DP3505               2AZ
151793002151793077-000311     151793006001023608666GIFT-BAG 11X14CM GLOSS 0000001000+00000613+00000+0001T   00000613+0000001017          1400 DP3112               2AZ
151793003151793077-000310     151793006001023608635GIFT-BAG 18X23CM GLOSS 0000001000+00001314+00000+0001T   00001314+0000001017          1400 DP3112               2AZ
151794000151794               151794               170213CN     1400+00000+CN0000001400+0000001400+000000000+000000196+0000001590+0000000006+I20000000000+0000001590+Z
151794001151794266-001499     151794006001023624925TOP & STRING 2 PACK    0000002000+00000700+00000+0001T   00000700+0000001027          1400 DP3710               2AZ
151795000151795               151795               170213CN     1400+00000+CN0000004996+0000004996+000000000+000000701+0000005690+0000000007+I20000000000+0000005690+Z
151795001151795088-000108     151795006001023765536POTPOURRI-OIL 10ml ASST0000002000+00001753+00000+0001T   00001753+0000001029          1400 DP3212               2AZ
151795002151795039-000108     151795006001023524034TEA-LITE CANDLES 8PCE  0000001000+00001490+00000+0001T   00001490+0000001029          1400 DP3510               2AZ
151796000151796               151796               170213CN     1400+00000+CN0000004382+0000004382+000000000+000000615+0000004990+0000000007+I20000000000+0000004990+Z
151796001151796077-000011-D   151796006001023808554TISSUE-WRAP WHITE 10PCE0000001000+00000876+00000+0001T   00000876+0000001030          1400 DP3112               2AZ
151796002151796077-000382     151796006003000247820GIFT-BAG MED 18X23CM   0000002000+00001753+00000+0001T   00001753+0000001030          1400 DP3112               2AZ
151797000151797               151797               170213CN     1400+00000+CN0000002628+0000002628+000000000+000000369+0000002990+0000000007+I20000000000+0000002990+Z
151797001151797001-000390     151797006001023679741TUMBLER GLS 2400ml WHIS0000003000+00000876+00000+0001T   00000876+0000001035          1400 DP3515               2AZ
151798000151798               151798               170213CN     1400+00000+CN0000001139+0000001139+000000000+000000160+0000001290+0000000009+I20000000000+0000001290+Z
151798001151798140-006004     151798006001023628077FLY-SWATTER RUBBER     0000001000+00001139+00000+0001T   00001139+0000001131          1400 DP3830               2AZ
151799000151799               151799               170213CN     1400+00000+CN0000007048+0000007048+000000000+000000988+0000008030+0000000006+I20000000000+0000008030+Z
151799001151799077-000151     151799006008766114676GIFT-WRAP C/PHANE ASSTD0000001000+00000876+00000+0001T   00000876+0000001133          1400 DP3112               2AZ
151799002151799007-000324     15179900600968585864125 SHEETS BRIGHTS MARLI0000001000+00003507+00000+0001T   00003507+0000001133          1400 DP3130               2AZ
151799003151799077-000235     151799006003000160211GIFT-RIBBON ROLL METALC0000001000+00002630+00000+0001T   00002630+0000001133          1400 DP3112               2AZ
151799004151799112-116038     151799006009681820246TCS CARRIER BAG MIDI   0000001000+00000035+00000+0001T   00000035+0000001133          1400 DP3090               2AZ
151800000151800               151800               170213CN     1400+00000+CN0000006312+0000006312+000000000+000000885+0000007197+0000000000+I40000007197+0000000000+Z
151800001151800080-000133-A   151800006003000647019MINI VALENTINES CARD   0000001000+00000437+00000+0001T   00000437+0000001134          1400 DP3112               2AZ
151800002151800082-000105     151800006003000360369READING GLS STRNGHT:1.50000001000+00004385+00000+0001T   00004385+0000001134          1400 DP3160               2AZ
151800003151800046-000010     151800004897006172987BATTERIES AAA ALKLN 2PC0000001000+00001490+00000+0001T   00001490+0000001134          1400 DP3312               2AZ
151801000151801               151801               170213CN     1400+00000+CN0000005260+0000005260+000000000+000000737+0000005990+0000000007+I20000000000+0000005990+Z
151801001151801031-000002     151801006001023851338FRAME FRIENDS 7.5x7.5cm0000001000+00003507+00000+0001T   00003507+0000001148          1400 DP3510               2AZ
151801002151801077-000382     151801006003000247820GIFT-BAG MED 18X23CM   0000001000+00001753+00000+0001T   00001753+0000001148          1400 DP3112               2AZ
151802000151802               151802               170213CN     1400+00000+CN0000003716+0000003716+000000000+000000521+0000004230+0000000007+I20000000000+0000004230+Z
151802001151802903-000155     151802006009803374435SWT LOLLY I LUV U HEART0000001000+00000525+00000+0001T   00000525+0000001149          1400 DP3150               2AZ
151802002151802077-000303     151802006001023593757GIFT-BAG PAPER MED     0000001000+00001578+00000+0001T   00001578+0000001149          1400 DP3112               2AZ
151802003151802018-000127     151802006001023380289MUG OCC STRAIGHT LOVE  0000001000+00001578+00000+0001T   00001753+0006471149          1400 DP3515               2AZ
151802004151802112-116038     151802006009681820246TCS CARRIER BAG MIDI   0000001000+00000035+00000+0001T   00000035+0000001149          1400 DP3090               2AZ
151803000151803               151803               170213CN     1400+00000+CN0000005120+0000005120+000000000+000000717+0000005830+0000000007+I20000000000+0000005830+Z
151803001151803301-085004     151803006003000420469ORN LOVE PLAQUE 21X10CM0000001000+00003507+00000+0001T   00003946+0006471150          1400 DP3505               2AZ
151803002151803080-000124     151803006003000297733CARD & ENV VALENTINES  0000001000+00001578+00000+0001T   00001578+0000001150          1400 DP3112               2AZ
151803003151803112-116038     151803006009681820246TCS CARRIER BAG MIDI   0000001000+00000035+00000+0001T   00000035+0000001150          1400 DP3090               2AZ
151804000151804               151804               170213CN     1400+00000+CN0000006487+0000006487+000000000+000000910+0000007390+0000000007+I20000000000+0000007390+Z
151804001151804200-000092     151804006003000576739PICNIC PAPER PLATES 23c0000001000+00001227+00000+0001T   00001227+0000001204          1400 DP3214               2AZ
151804002151804304-000720     151804006001023843050F/BUNCH ROSE 6-HEAD AST0000002000+00002630+00000+0001T   00002630+0000001204          1400 DP3510               2AZ
151805000151805               151805               170213CN     1400+00000+CN0000018461+0000018461+000000000+000002588+0000021049+0000000000+I40000021049+0000000000+Z
151805001151805112-116069     151805006009681820277TCS CARRIER BAG JUMBO  0000001000+00000048+00000+0001T   00000048+0000001228          1400 DP3090               2AZ
151805002151805038-092232     151805006001023625830TABLE-MAT N/SLIP 32x55 0000003000+00001753+00000+0001T   00001753+0000001228          1400 DP3300               2AZ
151805003151805104-000031     151805006003000614950BASKET PL 27x18x12cm   0000001000+00002630+00000+0001T   00002630+0000001228          1400 DP3210               2AZ
151805004151805158-008937     151805006003000571642TOILET ROLL HOLDER     0000001000+00004385+00000+0001T   00004385+0000001228          1400 DP3300               2AZ
151805005151805108-007000     151805006008766085105SERVING-TABLE          0000001000+00006139+00000+0001T   00006139+0000001228          1400 DP3210               2AZ
151806000151806               151806               170213CN     1400+00000+CN0000026178+0000026178+000000000+000003668+0000029846+0000000000+I40000029846+0000000000+Z
151806001151806466-000109     151806006003000612345BALL RAINBOW DESIGN    0000001000+00001753+00000+0001T   00001753+0000001238          1400 DP3785               2AZ
151806002151806466-000103     151806000681070950312BALL 20cm ASSTD        0000001000+00001753+00000+0001T   00001753+0000001238          1400 DP3785               2AZ
151806003151806369-001032     151806006001023796158BABY RATTLE SET 6PCE   0000001000+00004385+00000+0001T   00004385+0000001238          1400 DP3745               2AZ
151806004151806079-000510     151806006001023509079CRAYONS WAX 12-COLOUR  0000001000+00002455+00000+0001T   00002455+0000001238          1400 DP3130               2AZ
151806005151806562-000199     151806006001023732910PUSH-IN BOARD WDN ASSTD0000001000+00005262+00000+0001T   00005262+0000001238          1400 DP3755               2AZ
151806006151806562-000212     151806006001023851567PUSH-IN BOARD NUMBERS  0000001000+00004385+00000+0001T   00004385+0000001238          1400 DP3755               2AZ
151806007151806567-011313     151806006003000593965DIERESTORIES AFR ASSTD 0000001000+00003507+00000+0001T   00003507+0000001238          1400 DP3757               2AZ
151806008151806567-014134     151806006003000560189BOOK COLOURING 96 PAGE 0000001000+00002630+00000+0001T   00002630+0000001238          1400 DP3757               2AZ
151806009151806112-116069     151806006009681820277TCS CARRIER BAG JUMBO  0000001000+00000048+00000+0001T   00000048+0000001238          1400 DP3090               2AZ
151807000151807               151807               170213CN     1400+00000+CN0000006174+0000006174+000000000+000000865+0000007030+0000000009+I20000000000+0000007030+Z
151807001151807018-050000     151807006003000412679MUG OCC LOVE TWIN BEAR 0000001000+00006139+00000+0001T   00006139+0000001239          1400 DP3515               2AZ
151807002151807112-116038     151807006009681820246TCS CARRIER BAG MIDI   0000001000+00000035+00000+0001T   00000035+0000001239          1400 DP3090               2AZ
151808000151808               151808               170213CN     1400+00000+CN0000006224+0000006224+000000000+000000872+0000007096+0000000000+I40000007096+0000000000+Z
151808001151808903-000087     151808006001704000161SWT SPECKLED-EGGS 50G  0000001000+00001139+00000+0001T   00001139+0000001242          1400 DP3150               2AZ
151808002151808077-000303     151808006001023593757GIFT-BAG PAPER MED     0000001000+00001578+00000+0001T   00001578+0000001242          1400 DP3112               2AZ
151808003151808031-000002     151808006001023851338FRAME FRIENDS 7.5x7.5cm0000001000+00003507+00000+0001T   00003507+0000001242          1400 DP3510               2AZ
151809000151809               151809               170213CN     1400+00000+CN0000001314+0000001314+000000000+000000184+0000001490+0000000008+I20000000000+0000001490+Z
151809001151809046-000012     151809006904708013062BATTERIES AA  CARD-OF-40000001000+00001314+00000+0001T   00001314+0000001243          1400 DP3312               2AZ
151810000151810               151810               170213CN     1400+00000+CN0000016660+0000016660+000000000+000002334+0000018994+0000000000+I40000018994+0000000000+Z
151810001151810077-000299     151810006003000395576G/BAG 32x25cm LRG LOVE 0000001000+00001490+00000+0001T   00001490+0000001416          1400 DP3112               2AZ
151810002151810077-000303     151810006001023593757GIFT-BAG PAPER MED     0000001000+00001578+00000+0001T   00001578+0000001416          1400 DP3112               2AZ
151810003151810903-000922     151810006914204008158SWT ST NOVELTY CAR     0000001000+00002630+00000+0001T   00002630+0000001416          1400 DP3150               2AZ
151810004151810018-030000     151810006003000421060MUG OCCASIONS LOVE 2PCE0000001000+00004385+00000+0001T   00004385+0000001416          1400 DP3515               2AZ
151810005151810080-000127     151810006003000424351VALENTINES DAY 36x24CM 0000001000+00002192+00000+0001T   00002192+0000001416          1400 DP3112               2AZ
151810006151810368-000151     151810006003000166725PLUSH BEAR 14cm        0000001000+00004385+00000+0001T   00004385+0000001416          1400 DP3745               2AZ
151811000151811               151811               170213CN     1400+00000+CN0000004751+0000004751+000000000+000000677+0000005420+0000000008+I20000000000+0000005420+Z
151811001151811112-116038     151811006009681820246TCS CARRIER BAG MIDI   0000001000+00000035+00000+0001T   00000035+0000001421          1400 DP3090               2AZ
151811002151811903-000183     151811006003000451043SWT LB HEART LOLLY     0000012000+00000393+00000+0001T   00000393+0000001421          1400 DP3150               2AZ
151812000151812               151812               170213CN     1400+00000+CN0000014958+0000014958+000000000+000002095+0000017053+0000000000+I40000017053+0000000000+Z
151812001151812031-000924     151812006001023669964P/FRAME COLLAGE PL     0000001000+00008771+00000+0001T   00008771+0000001522          1400 DP3510               2AZ
151812002151812039-809558     151812006003000344376CANDLE PILLAR 12CM 4AST0000001000+00006139+00000+0001T   00006139+0000001522          1400 DP3510               2AZ
151812003151812112-116069     151812006009681820277TCS CARRIER BAG JUMBO  0000001000+00000048+00000+0001T   00000048+0000001522          1400 DP3090               2AZ
151813000151813               151813               170213CN     1400+00000+CN0000000876+0000000876+000000000+000000123+0000000990+0000000009+I20000000000+0000000990+Z
151813001151813077-000011-D   151813006001023808554TISSUE-WRAP WHITE 10PCE0000001000+00000876+00000+0001T   00000876+0000001523          1400 DP3112               2AZ
151814000151814               151814               170213CN     1400+00000+CN0000007708+0000007708+000000000+000001084+0000008790+0000000002+I20000000000+0000008790+Z
151814001151814077-000151     151814006008766114676GIFT-WRAP C/PHANE ASSTD0000003000+00000876+00000+0001T   00000876+0000001534          1400 WE7112               2BZ
151814002151814079-009702-D   151814008427973059354PAPER SIRIO A2 RED COL 0000004000+00001051+00000+0001T   00001051+0000001534          1400 WE7130               2BZ
151814003151814903-000481     151814006001704007481SWT MOO MILK-SHAKES 60G0000001000+00000876+00000+0001T   00000876+0000001534          1400 WE7150               2BZ
151815000151815               151815               170213CN     1400+00000+CN0000003507+0000003507+000000000+000000491+0000003990+0000000008+I20000000000+0000003990+Z
151815001151815018-000136     151815006001023659026MUG OCC LOVE W/PLUSH   0000001000+00003507+00000+0001T   00003507+0000001612          1400 DP3515               2AZ
151816000151816               151816               170213CN     1400+00000+CN0000001753+0000001753+000000000+000000246+0000001990+0000000009+I20000000000+0000001990+Z
151816001151816563-000318-I   151816006003000404605SERVIETTES 33cm L/GREEN0000001000+00001753+00000+0001T   00001753+0000001638          1400 DP3214               2AZ
151817000151817               151817               170213CN     1400+00000+CN0000002366+0000002366+000000000+000000332+0000002698+0000000000+I40000002698+0000000000+Z
151817001151817567-014132     151817006003000560028BOOK COLOURING 24 PAGE 0000001000+00000876+00000+0001T   00000876+0000001639          1400 DP3757               2AZ
151817002151817077-000304     151817006001023483232GIFT-BAG 25X32CM E/DAY 0000001000+00001490+00000+0001T   00001490+0000001639          1400 DP3112               2AZ
151818000151818               151818               170213CN     1400+00000+CN0000002192+0000002192+000000000+000000307+0000002499+0000000000+I40000002499+0000000000+Z
151818001151818106-003130     151818006001023625755ICE CUBE TRAY 21-CUBE  0000001000+00002192+00000+0001T   00002192+0000001644          1400 DP32102IC            2AZ
151819000151819               151819               170213CN     1400+00000+CN0000006360+0000006360+000000000+000000891+0000007250+0000000001+I20000000000+0000007250+Z
151819001151819112-116069     151819006009681820277TCS CARRIER BAG JUMBO  0000001000+00000048+00000+0001T   00000048+0000001645          1400 DP3090               2AZ
151819002151819079-000261     151819006003000159727PAINT WATER COLOUR CAKE0000001000+00004385+00000+0001T   00004385+0000001645          1400 DP3130               2AZ
151819003151819007-000406     151819006009635830659NATURE-STUDY-BOOK 72PG 0000001000+00000700+00000+0001T   00000700+0000001645          1400 DP3130               2AZ
151819004151819903-000519     151819006001704012805SWT MS LIQ-O-GHETTI    0000001000+00001227+00000+0001T   00001227+0000001645          1400 DP3150               2AZ
151820000151820               151820               170213CN     1400+00000+CN0000001610+0000001610+000000000+000000227+0000001830+0000000007+I20000000000+0000001830+Z
151820001151820903-000155     151820006009803374435SWT LOLLY I LUV U HEART0000003000+00000525+00000+0001T   00000525+0000001645          1400 DP3150               2AZ
151820002151820112-116038     151820006009681820246TCS CARRIER BAG MIDI   0000001000+00000035+00000+0001T   00000035+0000001645          1400 DP3090               2AZ
151821000151821               151821               170213CN     1400+00000+CN0000000876+0000000876+000000000+000000123+0000000999+0000000000+I40000000999+0000000000+Z
151821001151821078-000025     151821008887013700064SUPERGLUE 3g 1PCE CARD 0000001000+00000876+00000+0001T   00000876+0000001647          1400 DP3810               2AZ
151822000151822               151822               170213CN     1400+00000+CN0000001578+0000001578+000000000+000000221+0000001790+0000000009+I20000000000+0000001790+Z
151822001151822077-000303     151822006001023593757GIFT-BAG PAPER MED     0000001000+00001578+00000+0001T   00001578+0000001651          1400 DP3112               2AZ
151823000151823               151823               170213CN     1400+00000+CN0000001314+0000001314+000000000+000000184+0000001498+0000000000+I40000001498+0000000000+Z
151823001151823004-071280     151823006003000129959WRITABLE-CD SINGLE     0000001000+00001314+00000+0001T   00001314+0000001655          1400 DP3310               2AZ
151824000151824               151824               170213CN     1400+00000+CN0000001753+0000001753+000000000+000000246+0000001990+0000000009+I20000000000+0000001990+Z
151824001151824084-009411     151824006001023629968SCISSORS 17cm PL-HANDLE0000001000+00001753+00000+0001T   00001753+0000001655          1400 DP3200               2AZ
151825000151825               151825               170213CN     1400+00000+CN0000001752+0000001752+000000000+000000246+0000001990+0000000008+I20000000000+0000001990+Z
151825001151825047-000505     151825006009636901976PLUG-ADAPTOR 2-PIN     0000001000+00000876+00000+0001T   00000876+0000001705          1400 DP3880               2AZ
151825002151825071-001012     151825006001023474445MARKERS BLACK ROUND    0000001000+00000876+00000+0001T   00000876+0000001705          1400 DP3130               2AZ
151826000151826               151826               170213CN     1400+00000+CN0000012325+0000012325+000000000+000001727+0000014050+0000000002+I20000000000+0000014050+Z
151826001151826077-000299-A   151826006003000670888GIFT-BAG PAPER JMB LOVE0000001000+00001753+00000+0001T   00001753+0000001706          1400 DP3112               2AZ
151826002151826112-116069     151826006009681820277TCS CARRIER BAG JUMBO  0000001000+00000048+00000+0001T   00000048+0000001706          1400 DP3090               2AZ
151826003151826301-085002     151826006003000420704ORN OCC. LOVE BELL ASST0000001000+00001753+00000+0001T   00002630+0008121706          1400 DP3505               2AZ
151826004151826031-001011     151826006003000579099P/FRAME COLLAGE WAVE   0000001000+00008771+00000+0001T   00008771+0000001706          1400 DP3510               2AZ
151827000151827               151827               170213CN     1400+00000+CN0000003542+0000003542+000000000+000000496+0000004030+0000000008+I20000000000+0000004030+Z
151827001151827018-000136     151827006001023659026MUG OCC LOVE W/PLUSH   0000001000+00003507+00000+0001T   00003507+0000001707          1400 DP3515               2AZ
151827002151827112-116038     151827006009681820246TCS CARRIER BAG MIDI   0000001000+00000035+00000+0001T   00000035+0000001707          1400 DP3090               2AZ
151828000151828               151828               170213CN     1400+00000+CN0000003507+0000003507+000000000+000000491+0000003990+0000000008+I20000000000+0000003990+Z
151828001151828018-000136     151828006001023659026MUG OCC LOVE W/PLUSH   0000001000+00003507+00000+0001T   00003507+0000001710          1400 DP3515               2AZ
151829000151829               151829               170213CN     1400+00000+CN0000001753+0000001753+000000000+000000246+0000001990+0000000009+I20000000000+0000001990+Z
151829001151829077-000309     151829006001023608604GIFT-BAG 25X32CM GLOSS 0000001000+00001753+00000+0001T   00001753+0000001710          1400 DP3112               2AZ
151830000151830               151830               170213CN     1400+00000+CN0000004385+0000004385+000000000+000000614+0000004990+0000000009+I20000000000+0000004990+Z
151830001151830001-000175     151830006001023788108B/MUG GLS LOVE 380ML   0000001000+00004385+00000+0001T   00004385+0000001710          1400 DP3515               2AZ
151831000151831               151831               170213CN     1400+00000+CN0000004633+0000004633+000000000+000000650+0000005280+0000000003+I20000000000+0000005280+Z
151831001151831079-009700-M   151831006003000634101PAPER SIRIO A4 PINK COL0000001000+00000306+00000+0001T   00000306+0000001713          1400 DP3130               2AZ
151831002151831079-009700-J   151831006003000546190PAPER SIRIO A4 BLUE    0000001000+00000306+00000+0001T   00000306+0000001713          1400 DP3130               2AZ
151831003151831079-009700-L   151831006003000546350PAPER SIRIO A4 YELLOW  0000001000+00000306+00000+0001T   00000306+0000001713          1400 DP3130               2AZ
151831004151831079-009700-F   151831006003000545872PAPER SIRIO A4 TURQ COL0000001000+00000306+00000+0001T   00000306+0000001713          1400 DP3130               2AZ
151831005151831079-009700-D   151831006003000545711PAPER SIRIO A4 RED COL.0000001000+00000306+00000+0001T   00000306+0000001713          1400 DP3130               2AZ
151831006151831071-001012     151831006001023474445MARKERS BLACK ROUND    0000001000+00000876+00000+0001T   00000876+0000001713          1400 DP3130               2AZ
151831007151831079-006493     151831006003000612086GLITTER GLUE 125g ASSTD0000001000+00002192+00000+0001T   00002192+0000001713          1400 DP3130               2AZ
151831008151831112-116038     151831006009681820246TCS CARRIER BAG MIDI   0000001000+00000035+00000+0001T   00000035+0000001713          1400 DP3090               2AZ
151832000151832               151832               170213CN     1400+00000+CN0000009678+0000009678+000000000+000001357+0000011030+0000000005+I20000000000+0000011030+Z
151832001151832112-116038     151832006009681820246TCS CARRIER BAG MIDI   0000001000+00000035+00000+0001T   00000035+0000001714          1400 DP3090               2AZ
151832002151832024-000083     151832006001023770943SIEVE FLOUR 20cm MTL-RI0000002000+00001753+00000+0001T   00001753+0000001714          1400 DP3300               2AZ
151832003151832002-000883     151832006001023770394CAN-OPENER             0000001000+00001753+00000+0001T   00001753+0000001714          1400 DP3300               2AZ
151832004151832024-000097     151832006001023770035MEASURING-SET 11PCE WHT0000002000+00002192+00000+0001T   00002192+0000001714          1400 DP3300               2AZ
151833000151833               151833               170213CN     1400+00000+CN0000002192+0000002192+000000000+000000307+0000002490+0000000009+I20000000000+0000002490+Z
151833001151833080-000127     151833006003000424351VALENTINES DAY 36x24CM 0000001000+00002192+00000+0001T   00002192+0000001716          1400 DP3112               2AZ
151834000151834               151834               170213CN     1400+00000+CN0000001578+0000001578+000000000+000000221+0000001790+0000000009+I20000000000+0000001790+Z
151834001151834080-000124     151834006003000297733CARD & ENV VALENTINES  0000001000+00001578+00000+0001T   00001578+0000001717          1400 DP3112               2AZ
151835000151835               151835               170213CN     1400+00000+CN0000003944+0000003944+000000000+000000553+0000004490+0000000007+I20000000000+0000004490+Z
151835001151835018-005009     151835006001023725608MUG W/PLUSH-BEAR LOVE  0000001000+00003507+00000+0001T   00003507+0000001718          1400 DP3515               2AZ
151835002151835080-000133-A   151835006003000647019MINI VALENTINES CARD   0000001000+00000437+00000+0001T   00000437+0000001718          1400 DP3112               2AZ
151836000151836               151836               170213CN     1400+00000+CN0000003943+0000003943+000000000+000000553+0000004490+0000000006+I20000000000+0000004490+Z
151836001151836903-000070     151836006001704001106SWT TOFFEE CREAMY 35g  0000001000+00000700+00000+0001T   00000700+0000001719          1400 DP3150               2AZ
151836002151836079-009702-A   151836008427973059408PAPER SIRIO A2 BLACK   0000001000+00001051+00000+0001T   00001051+0000001719          1400 DP3130               2AZ
151836003151836079-013102     151836006003000019601ART+CRAFT DIY PIPE-CLNR0000001000+00002192+00000+0001T   00002192+0000001719          1400 DP3130               2AZ
151837000151837               151837               170213CN     1400+00000+CN0000006172+0000006172+000000000+000000865+0000007037+0000000000+I40000007037+0000000000+Z
151837001151837024-000118     151837006001023422316N/STICK C/PAN HEART    0000001000+00004385+00000+0001T   00004385+0000001735          1400 DP3300               2AZ
151837002151837089-000192-A   151837006001023901774KEY-CHAIN ACRYLIC      0000002000+00000876+00000+0001T   00000876+0000001735          1400 DP3205               2AZ
151837003151837112-116038     151837006009681820246TCS CARRIER BAG MIDI   0000001000+00000035+00000+0001T   00000035+0000001735          1400 DP3090               2AZ
151838000151838               151838               170213CN     1400+00000+CN0000001490+0000001490+000000000+000000209+0000001690+0000000009+I20000000000+0000001690+Z
151838001151838565-000600     151838006003000643721NOVELTY WINDOW WALKER  0000001000+00001490+00000+0001T   00001490+0000001736          1400 DP3745               2AZ
151839000151839               151839               170213CN     1400+00000+CN0000014720-0000000000+000000000+000000000+0000014720-0000000000+I20000000000+0000014720-Z
151839001151839001-999901     151839000000000999901CASUAL WAGES           0000001000-00014720+00000+0001X  9402095173083 0800MHERAD0000000000 DP39012IC INE        2 Z
B15181800                                          170213CN106-003130     16425862SLAVE 2     DP32IC0000002000+0000001000+0000000000000+
C15181200                                          170213CN566-000044     15172608SLAVE 2     DP32IC0000000000+0000000000+0010000001000+
M17021301                              SHIEHAAM    CNSLAVE 2 Z READING R 3356.62                     CASH BANKING R 1652.40                          CREDIT CARDS R 1557.02                          DELETED LINES R 14.98                           PAYOUTS CASUAL WAGES R 147.20                   Z READING NR                                    595                                             THANX CERES /CN
M17021391                              CASH        CNSLAVE 2                       Z-REPORT No.   595TOTAL (Sales - Refunds)           3356.62       CASH TO BE BANKED                 1652.40       DEBIT CARDS                          0.00       CREDIT CARDS                      1557.02       Z-READING                         3209.42       AIRTIME DEBIT CARD SALES             0.00       AIRTIME CARD SALES                   0.00       OVERS/UNDERS                         0.00       AIRTIME CASH SALES                   0.00       GIFT CARDS                           0.00       GIFT CARD CASH SALES                 0.00       CASUAL WAGES                       147.20       T O T A L  CASH PAYOUTS            147.20                                                                                                                                                                                                                                                                                                      Z
M17021392                              CASH        CNABSENT                                                                                                                                                                                          ANNUAL LEAVE                                                                                                                                                                                    DAY OFF                                                                                                                                                                                         COMMENTS                                                                                                                                                                                                                                                                                                                                                                                       Z
Y17021300                                          CN00000000294640+000056
ZCN17021319253 SLAVE 2      SALES DATA                     NEXT INVOICE NO.  151840 0595
X CN Slave 2 First invoice 151783 170213 Last invoice 151839 170213 Next invoice 151840 Total number of records 000000201 clbackup completed 19:25:46
