220127000220127               220127               170213CO     1400+00000+CO0000008363+0000008363+000000000+000001173+0000009536+0000000000+I40000009536+0000000000+Z
220127001220127079-000275     220127006003000160488PAINT-BRUSHES 6PCE PRO 0000002000+00001753+00000+0001T   00001753+0000000907          1400 TM6130               2AZ
220127002220127079-000271     220127006003000160082PAINT-BRUSHES LRGE ART 0000001000+00003069+00000+0001T   00003069+0000000907          1400 TM6130               2AZ
220127003220127071-001102     220127006003000274598MARKER PERM MED 2PCE   0000001000+00001753+00000+0001T   00001753+0000000907          1400 TM6130               2AZ
220127004220127112-116038     220127006009681820246TCS CARRIER BAG MIDI   0000001000+00000035+00000+0001T   00000035+0000000907          1400 TM6090               2AZ
220128000220128               220128               170213CO     1400+00000+CO0000000437+0000000437+000000000+000000062+0000000490+0000000009+I20000000000+0000000490+Z
220128001220128080-000133     220128006003000535613CARD&ENV MINI ASTD DSGN0000001000+00000437+00000+0001T   00000437+0000000932          1400 TM6112               2AZ
220129000220129               220129               170213CO     1400+00000+CO0000002192+0000002192+000000000+000000307+0000002490+0000000009+I20000000000+0000002490+Z
220129001220129018-000170     220129006001023775528MUG OCC. LOVE 2PC MINI 0000001000+00002192+00000+0001T   00002192+0000000957          1400 TM6515               2AZ
220130000220130               220130               170213CO     1400+00000+CO0000007301+0000007301+000000000+000001025+0000008320+0000000006+I20000000000+0000008320+Z
220130001220130077-000151     220130006008766114676GIFT-WRAP C/PHANE ASSTD0000002000+00000876+00000+0001T   00000876+0000000959          1400 TM6112               2AZ
220130002220130077-000245     220130006001023759214GIFT-RIBBON METALLICx2 0000001000+00001227+00000+0001T   00001227+0000000959          1400 TM6112               2AZ
220130003220130071-081091     220130006001151010287STAED/GENKEM ALL-STICK 0000001000+00001227+00000+0001T   00001227+0000000959          1400 TM6130               2AZ
220130004220130079-009700-M   220130006003000634101PAPER SIRIO A4 PINK COL0000005000+00000306+00000+0001T   00000306+0000000959          1400 TM6130               2AZ
220130005220130079-009700-D   220130006003000545711PAPER SIRIO A4 RED COL.0000005000+00000306+00000+0001T   00000306+0000000959          1400 TM6130               2AZ
220130006220130112-116038     220130006003000534906TCS CARRIER BAG MIDI   0000001000+00000035+00000+0001T   00000035+0000000959          1400 TM6090               2AZ
220131000220131               220131               170213CO     1400+00000+CO0000001753+0000001753+000000000+000000246+0000001990+0000000009+I20000000000+0000001990+Z
220131001220131077-000299-A   220131006003000670888GIFT-BAG PAPER JMB LOVE0000001000+00001753+00000+0001T   00001753+0000001005          1400 TM6112               2AZ
220132000220132               220132               170213CO     1400+00000+CO0000004823+0000004823+000000000+000000676+0000005499+0000000000+I40000005499+0000000000+Z
220132001220132301-085001     220132006003000297610ORN WATERBALL LOVE ASST0000001000+00004823+00000+0001T   00004823+0000001018          1400 TM6505               2AZ
220133000220133               220133               170213CO     1400+00000+CO0000007016+0000007016+000000000+000000983+0000007990+0000000009+I20000000000+0000007990+Z
220133001220133562-000070     220133006003000600748EDU PLAY DOUGH 50g 8pc 0000001000+00007016+00000+0001T   00007016+0000001025          1400 TM6755               2AZ
220134000220134               220134               170213CO     1400+00000+CO0000004469+0000004469+000000000+000000627+0000005090+0000000006+I20000000000+0000005090+Z
220134001220134107-004105     220134006002923010504BUCKET 9L OPEN         0000001000+00001314+00000+0001T   00001314+0000001028          1400 TM6210               2AZ
220134002220134027-009030     220134006002814400100DUSTPAN PL             0000001000+00001402+00000+0001T   00001402+0000001028          1400 TM6212               2AZ
220134003220134046-000014-A   220134004897006177708BATTERIES SIZE:AAA 8PCE0000001000+00001753+00000+0001T   00001753+0000001028          1400 TM6312               2AZ
220135000220135               220135               170213CO     1400+00000+CO0000007013+0000007013+000000000+000000984+0000007990+0000000007+I20000000000+0000007990+Z
220135001220135079-013032-J   220135006003000542710A&C DIY COLOUR P/FLOWER0000001000+00001753+00000+0001T   00001753+0000001030          1400 TM6130               2AZ
220135002220135079-014153     220135006003000253166ART+CRAFT DRAGON PK6   0000002000+00002630+00000+0001T   00002630+0000001030          1400 TM6130               2AZ
220136000220136               220136               170213CO     1400+00000+CO0000005734+0000005734+000000000+000000804+0000006530+0000000008+I20000000000+0000006530+Z
220136001220136306-001125-A   220136006003000359127FIRSTAID SUPPORT KNEE  0000001000+00002630+00000+0001T   00002630+0000001059          1400 TM6200               2AZ
220136002220136072-020311     220136006003000494132PET DOG TOY VINYL BALL 0000001000+00003069+00000+0001T   00003069+0000001059          1400 TM6870               2AZ
220136003220136112-116038     220136006009681820246TCS CARRIER BAG MIDI   0000001000+00000035+00000+0001T   00000035+0000001059          1400 TM6090               2AZ
220137000220137               220137               170213CO     1400+00000+CO0000004418+0000004418+000000000+000000620+0000005030+0000000008+I20000000000+0000005030+Z
220137001220137089-000027     220137006003000254071KEY CHAIN MOM/DAD ASSTD0000001000+00001753+00000+0001T   00001753+0000001101          1400 TM6205               2AZ
220137002220137018-000129     220137006001023403353MUG OCC. LOVE V-SHAPE  0000001000+00002630+00000+0001T   00002630+0000001101          1400 TM6515               2AZ
220137003220137112-116038     220137006009681820246TCS CARRIER BAG MIDI   0000001000+00000035+00000+0001T   00000035+0000001101          1400 TM6090               2AZ
220138000220138               220138               170213CO     1400+00000+CO0000000876+0000000876+000000000+000000123+0000000990+0000000009+I20000000000+0000000990+Z
220138001220138082-026204     220138006001023816443R/GLASSES STRINGS 2PCE 0000001000+00000876+00000+0001T   00000876+0000001105          1400 TM6160               2AZ
220139000220139               220139               170213CO     1400+00000+CO0000004419+0000004419+000000000+000000619+0000005038+0000000000+I40000005038+0000000000+Z
220139001220139024-091102     220139006003453000010BAKING-CUP PAPER 50PC  0000002000+00002192+00000+0001T   00002192+0000001106          1400 TM6300               2AZ
220139002220139112-116038     220139006009681820246TCS CARRIER BAG MIDI   0000001000+00000035+00000+0001T   00000035+0000001106          1400 TM6090               2AZ
220140000220140               220140               170213CO     1400+00000+CO0000017541+0000017541+000000000+000002456+0000019997+0000000000+I40000019997+0000000000+Z
220140001220140028-002101     220140006002580009507CHAIR JUNIOR    ASSTD  0000001000+00003507+00000+0001T   00003507+0000001108          1400 TM6305               2AZ
220140002220140028-002102     220140006002580009514TABLE KIDDIES          0000001000+00014034+00000+0001T   00014034+0000001108          1400 TM6305               2AZ
220141000220141               220141               170213CO     1400+00000+CO0000004385+0000004385+000000000+000000614+0000004990+0000000009+I20000000000+0000004990+Z
220141001220141030-000031-A   220141006003000457588PLAQUE W/WORDS ASSTD   0000001000+00004385+00000+0001T   00004823+0006471109          1400 TM6505               2AZ
220142000220142               220142               170213CO     1400+00000+CO0000000035+0000000035+000000000+000000005+0000000040+0000000000+I20000000000+0000000040+Z
220142001220142112-116038     220142006009681820246TCS CARRIER BAG MIDI   0000001000+00000035+00000+0001T   00000035+0000001110          1400 TM6090               2AZ
220143000220143               220143               170213CO     1400+00000+CO0000026425+0000026425+000000000+000003719+0000030140+0000000004+I20000000000+0000030140+Z
220143001220143903-000194     220143006009826020616SWT CHOC RP LOLLY 25G  0000011000+00001314+00000+0001T   00001314+0000001116          1400 TM6150               2AZ
220143002220143903-000200     220143006009826020234SWT CHOC RP CHOCO 23G  0000004000+00000788+00000+0001T   00000788+0000001116          1400 TM6150               2AZ
220143003220143903-000183     220143006003000451043SWT LB HEART LOLLY     0000013000+00000393+00000+0001T   00000393+0000001116          1400 TM6150               2AZ
220143004220143112-116038     220143006009681820246TCS CARRIER BAG MIDI   0000001000+00000035+00000+0001T   00000035+0000001116          1400 TM6090               2AZ
220143005220143903-000155     220143006009803374435SWT LOLLY I LUV U HEART0000007000+00000525+00000+0001T   00000525+0000001116          1400 TM6150               2AZ
220144000220144               220144               170213CO     1400+00000+CO0000007012+0000007012+000000000+000000984+0000007990+0000000006+I20000000000+0000007990+Z
220144001220144106-007125     220144006003000057689MILK-SACHET-JUG 1,0L   0000004000+00001753+00000+0001T   00001753+0000001125          1400 TM6210               2AZ
220145000220145               220145               170213CO     1400+00000+CO0000005295+0000005295+000000000+000000743+0000006038+0000000000+I40000006038+0000000000+Z
220145001220145567-075466     220145009780263920765BK NOVEL ROMANCE       0000001000+00002630+00000+0001T   00002630+0000001126          1400 TM6757               2AZ
220145002220145567-075466     220145009780263918724BK NOVEL ROMANCE       0000001000+00002630+00000+0001T   00002630+0000001126          1400 TM6757               2AZ
220145003220145112-116038     220145006009681820246TCS CARRIER BAG MIDI   0000001000+00000035+00000+0001T   00000035+0000001126          1400 TM6090               2AZ
220146000220146               220146               170213CO     1400+00000+CO0000006174+0000006174+000000000+000000865+0000007039+0000000000+I40000007039+0000000000+Z
220146001220146366-001101     220146006003000006991DRESS UP BOYS ASSTD    0000001000+00006139+00000+0001T   00006139+0000001128          1400 TM6131               2AZ
220146002220146112-116038     220146006009681820246TCS CARRIER BAG MIDI   0000001000+00000035+00000+0001T   00000035+0000001128          1400 TM6090               2AZ
220147000220147               220147               170213CO     1400+00000+CO0000037762+0000037762+000000000+000005287+0000043049+0000000000+I40000043049+0000000000+Z
220147001220147496-057433     220147000078257574339POOL SHARK 229x226x107 0000001000+00030700+00000+0001T   00030700+0000001131          1400 TM6787               2AZ
220147002220147031-000923     220147006001023669933P/FRAME BLK W/WORDS    0000002000+00003507+00000+0001T   00003507+0000001131          1400 TM6510               2AZ
220147003220147112-116069     220147006009681820277TCS CARRIER BAG JUMBO  0000001000+00000048+00000+0001T   00000048+0000001131          1400 TM6090               2AZ
220148000220148               220148               170213CO     1400+00000+CO0000004420+0000004420+000000000+000000619+0000005030+0000000009+I20000000000+0000005030+Z
220148001220148562-000743     220148006001023712318EDU BLOCKS SHAPE PL    0000001000+00004385+00000+0001T   00004385+0000001131          1400 TM6755               2AZ
220148002220148112-116038     220148006009681820246TCS CARRIER BAG MIDI   0000001000+00000035+00000+0001T   00000035+0000001131          1400 TM6090               2AZ
220149000220149               220149               170213CO     1400+00000+CO0000001962+0000001962+000000000+000000276+0000002230+0000000008+I20000000000+0000002230+Z
220149001220149077-000299     220149006003000395576G/BAG 32x25cm LRG LOVE 0000001000+00001490+00000+0001T   00001490+0000001135          1400 TM6112               2AZ
220149002220149080-000133-A   220149006003000647019MINI VALENTINES CARD   0000001000+00000437+00000+0001T   00000437+0000001135          1400 TM6112               2AZ
220149003220149112-116038     220149006009681820246TCS CARRIER BAG MIDI   0000001000+00000035+00000+0001T   00000035+0000001135          1400 TM6090               2AZ
220150000220150               220150               170213CO     1400+00000+CO0000007049+0000007049+000000000+000000987+0000008030+0000000006+I20000000000+0000008030+Z
220150001220150031-005923     220150006003000040322P/FRAME CERT PL 21x29.70000002000+00003507+00000+0001T   00003507+0000001144          1400 TM6510               2AZ
220150002220150112-116038     220150006009681820246TCS CARRIER BAG MIDI   0000001000+00000035+00000+0001T   00000035+0000001144          1400 TM6090               2AZ
220151000220151               220151               170213CO     1400+00000+CO0000003944+0000003944+000000000+000000553+0000004490+0000000007+I20000000000+0000004490+Z
220151001220151018-000136     220151006001023659026MUG OCC LOVE W/PLUSH   0000001000+00003507+00000+0001T   00003507+0000001146          1400 TM6515               2AZ
220151002220151083-000049     220151004891035200024CIG-LIGHTER DISPOSABLE 0000001000+00000437+00000+0001T   00000437+0000001146          1400 TM6315               2AZ
220152000220152               220152               170213CO     1400+00000+CO0000000035+0000000035+000000000+000000005+0000000040+0000000000+I20000000000+0000000040+Z
220152001220152112-116038     220152006003000534906TCS CARRIER BAG MIDI   0000001000+00000035+00000+0001T   00000035+0000001146          1400 TM6090               2AZ
220153000220153               220153               170213CO     1400+00000+CO0000007923+0000007923+000000000+000001111+0000009030+0000000004+I20000000000+0000009030+Z
220153001220153077-000010-C   220153006001023123879CREPE-PAPER RED        0000002000+00000788+00000+0001T   00000788+0000001149          1400 TM6112               2AZ
220153002220153018-000127     220153006001023380289MUG OCC STRAIGHT LOVE  0000004000+00001578+00000+0001T   00001753+0006471149          1400 TM6515               2AZ
220153003220153112-116038     220153006009681820246TCS CARRIER BAG MIDI   0000001000+00000035+00000+0001T   00000035+0000001149          1400 TM6090               2AZ
220154000220154               220154               170213CO     1400+00000+CO0000004944+0000004944+000000000+000000693+0000005637+0000000000+I40000005637+0000000000+Z
220154002220154018-000127     220154006001023380289MUG OCC STRAIGHT LOVE  0000002000+00001578+00000+0001T   00001753+0006471204          1400 TM6515               2AZ
220154003220154077-000240     220154006003000326259G/RIBBON 4PC PEARLIZED 0000001000+00001753+00000+0001T   00001753+0000001204          1400 TM6112               2AZ
220154004220154112-116038     220154006009681820246TCS CARRIER BAG MIDI   0000001000+00000035+00000+0001T   00000035+0000001204          1400 TM6090               2AZ
220155000220155               220155               170213CO     1400+00000+CO0000017655+0000017655+000000000+000002476+0000020131+0000000000+I40000020131+0000000000+Z
220155001220155369-001138-D   220155006003000097623BABY BATH VINYL THEMED 0000001000+00002630+00000+0001T   00002630+0000001310          1400 TM6745               2AZ
220155002220155369-001138-C   220155006003000587520BABY BATH VINYL G/MAN  0000001000+00002630+00000+0001T   00002630+0000001310          1400 TM6745               2AZ
220155003220155369-001138-B   220155006003000564972BABY BATH ROYAL DUCKS  0000001000+00002630+00000+0001T   00002630+0000001310          1400 TM6745               2AZ
220155004220155369-001138-D   220155006003000097623BABY BATH VINYL THEMED 0000002000+00002630+00000+0001T   00002630+0000001310          1400 TM6745               2AZ
220155005220155369-001137-B   220155006003000626373BABY BATH VINYL DUCK   0000002000+00001578+00000+0001T   00001578+0000001310          1400 TM6745               2AZ
220155006220155089-000187     220155006003000594245KEY CHAIN PVC DUCK 3.5 0000001000+00001314+00000+0001T   00001314+0000001310          1400 TM6205               2AZ
220155007220155112-116038     220155006009681820246TCS CARRIER BAG MIDI   0000001000+00000035+00000+0001T   00000035+0000001310          1400 TM6090               2AZ
220156000220156               220156               170213CO     1400+00000+CO0000018418+0000018418+000000000+000002579+0000020997+0000000000+I40000020997+0000000000+Z
220156001220156077-000314     220156006003000181148GIFT-BAG 11X14CM MATT  0000001000+00000876+00000+0001T   00000876+0000001315          1400 TM6112               2AZ
220156002220156586-010654     220156006001492106540WATCH MENS CLASSIC MTL 0000001000+00017542+00000+0001T   00017542+0000001315          1400 TM6160               2AZ
220157000220157               220157               170213CO     1400+00000+CO0000003504+0000003504+000000000+000000492+0000003990+0000000006+I20000000000+0000003990+Z
220157001220157077-000151     220157006008766114676GIFT-WRAP C/PHANE ASSTD0000004000+00000876+00000+0001T   00000876+0000001316          1400 TM6112               2AZ
220158000220158               220158               170213CO     1400+00000+CO0000003506+0000003506+000000000+000000492+0000003990+0000000008+I20000000000+0000003990+Z
220158001220158071-001124     220158006001023802873MARKERS WHITEBOARD 3PCE0000001000+00002630+00000+0001T   00002630+0000001316          1400 TM6130               2AZ
220158002220158071-001012     220158006001023474445MARKERS BLACK ROUND    0000001000+00000876+00000+0001T   00000876+0000001316          1400 TM6130               2AZ
220159000220159               220159               170213CO     1400+00000+CO0000002192+0000002192+000000000+000000307+0000002490+0000000009+I20000000000+0000002490+Z
220159001220159566-000352     220159006001023809261STICKERS LASER ASSTD   0000001000+00002192+00000+0001T   00002192+0000001316          1400 TM6130               2AZ
220160000220160               220160               170213CO     1400+00000+CO0000001753+0000001753+000000000+000000246+0000001990+0000000009+I20000000000+0000001990+Z
220160001220160080-000123     220160006003000237722CARD&ENVELOPE-SYMPATHY 0000001000+00001753+00000+0001T   00001753+0000001328          1400 TM6112               2AZ
220161000220161               220161               170213CO     1400+00000+CO0000004418+0000004418+000000000+000000619+0000005037+0000000000+I40000005037+0000000000+Z
220161001220161077-000314     220161006003000181148GIFT-BAG 11X14CM MATT  0000001000+00000876+00000+0001T   00000876+0000001338          1400 TM6112               2AZ
220161002220161018-000136     220161006001023659026MUG OCC LOVE W/PLUSH   0000001000+00003507+00000+0001T   00003507+0000001338          1400 TM6515               2AZ
220161003220161112-116038     220161006009681820246TCS CARRIER BAG MIDI   0000001000+00000035+00000+0001T   00000035+0000001338          1400 TM6090               2AZ
220162000220162               220162               170213CO     1400+00000+CO0000000876+0000000876+000000000+000000123+0000000990+0000000009+I20000000000+0000000990+Z
220162001220162903-000503     220162006001704006118SWT VAMPIRE FANGS 60G  0000001000+00000876+00000+0001T   00000876+0000001341          1400 TM6150               2AZ
220163000220163               220163               170213CO     1400+00000+CO0000021928+0000021928+000000000+000003070+0000024990+0000000008+I20000000000+0000024990+Z
220163001220163466-000005     220163006003000508174PLAY-TENT POP-UP GIRL  0000001000+00021928+00000+0001T   00021928+0000001352          1400 TM6785               2AZ
220164000220164               220164               170213CO     1400+00000+CO0000027628+0000027628+000000000+000003868+0000031496+0000000000+I40000031496+0000000000+Z
220164001220164486-010001     220164006003000283323WALL-CLOCK QTZ 60CM RND0000001000+00026314+00000+0001T   00026314+0000001357          1400 TM6510               2AZ
220164002220164046-000012     220164006904708013062BATTERIES AA  CARD-OF-40000001000+00001314+00000+0001T   00001314+0000001357          1400 TM6312               2AZ
220165000220165               220165               170213CO     1400+00000+CO0000001753+0000001753+000000000+000000246+0000001990+0000000009+I20000000000+0000001990+Z
220165001220165251-000074     220165006003000452255PROTECTION-PADS BLK ADH0000001000+00001753+00000+0001T   00001753+0000001402          1400 TM6810               2AZ
220166000220166               220166               170213CO     1400+00000+CO0000001227+0000001227+000000000+000000172+0000001390+0000000009+I20000000000+0000001390+Z
220166001220166077-000245     220166006001023759214GIFT-RIBBON METALLICx2 0000001000+00001227+00000+0001T   00001227+0000001409          1400 TM6112               2AZ
220167000220167               220167               170213CO     1400+00000+CO0000005347+0000005347+000000000+000000750+0000006097+0000000000+I40000006097+0000000000+Z
220167001220167002-000722     220167006003000673360C/BOARD+KNIFE 3-ASSTD  0000001000+00003069+00000+0001T   00003069+0000001410          1400 TM6300               2AZ
220167002220167200-003024     220167006001023657299REFUSE BAGS 20PCE BLACK0000001000+00001753+00000+0001T   00001753+0000001410          1400 TM6214               2AZ
220167003220167903-000155     220167006009803374435SWT LOLLY I LUV U HEART0000001000+00000525+00000+0001T   00000525+0000001410          1400 TM6150               2AZ
220168000220168               220168               170213CO     1400+00000+CO0000012799+0000012799+000000000+000001795+0000014594+0000000000+I40000014594+0000000000+Z
220168001220168304-001204     220168006001023737984FLOWER OCC. TEDDY/ROSES0000001000+00001402+00000+0001T   00001490+0006471412          1400 TM6510               2AZ
220168002220168001-000175     220168006001023788108B/MUG GLS LOVE 380ML   0000001000+00004385+00000+0001T   00004385+0000001412          1400 TM6515               2AZ
220168003220168071-001362     220168006003000589258HIGHLIGHTER 4 PACK     0000001000+00002630+00000+0001T   00002630+0000001412          1400 TM6130               2AZ
220168004220168071-005213     220168006001023690371CELLOTAPE 12mmx33m     0000001000+00000876+00000+0001T   00000876+0000001412          1400 TM6130               2AZ
220168005220168071-003853     220168006001023715579PENCIL BASIC HB 12PCE  0000001000+00001753+00000+0001T   00001753+0000001412          1400 TM6130               2AZ
220168006220168071-002999-A   220168006003000611577PEN STICKBALL 10PCE ASS0000001000+00001753+00000+0001T   00001753+0000001412          1400 TM6130               2AZ
220169000220169               220169               170213CO     1400+00000+CO0000004433+0000004433+000000000+000000621+0000005054+0000000000+I40000005054+0000000000+Z
220169001220169365-003053     220169006001023542250PLAY DOCTOR MEDICAL-CNT0000001000+00004385+00000+0001T   00004385+0000001447          1400 TM6725               2AZ
220169002220169112-116069     220169006009681820277TCS CARRIER BAG JUMBO  0000001000+00000048+00000+0001T   00000048+0000001447          1400 TM6090               2AZ
220170000220170               220170               170213CO     1400+00000+CO0000017136+0000017136+000000000+000002400+0000019530+0000000006+I20000000000+0000019530+Z
220170001220170001-091415     220170006003000329113W/GLS OCC. LOVE 2PC 2800000001000+00008771+00000+0001T   00009648+0006471454          1400 TM6515               2AZ
220170002220170301-085001     220170006003000297610ORN WATERBALL LOVE ASST0000001000+00004823+00000+0001T   00004823+0000001454          1400 TM6505               2AZ
220170003220170031-000002-A   220170006003000247103P/FRAME LOVE 7.5X7.5CM 0000001000+00003507+00000+0001T   00003507+0000001454          1400 TM6510               2AZ
220170004220170112-116038     220170006009681820246TCS CARRIER BAG MIDI   0000001000+00000035+00000+0001T   00000035+0000001454          1400 TM6090               2AZ
220171000220171               220171               170213CO     1400+00000+CO0000009679+0000009679+000000000+000001357+0000011030+0000000006+I20000000000+0000011030+Z
220171001220171033-000600     220171006003000365098HAIR-BRUSH 23cm VENT   0000001000+00003069+00000+0001T   00003069+0000001455          1400 TM6200               2AZ
220171002220171033-000642     220171006001023681201H/BRUSH PADDLE 24cm    0000001000+00003069+00000+0001T   00003069+0000001455          1400 TM6200               2AZ
220171003220171362-019375     220171006001023730664HAIR BAND SET 24PCE    0000001000+00000876+00000+0001T   00000876+0000001455          1400 TM6160               2AZ
220171004220171306-000008     220171006001023991553TOOTH BRUSH ADULT W/CAP0000001000+00002630+00000+0001T   00002630+0000001455          1400 TM6200               2AZ
220171005220171112-116038     220171006009681820246TCS CARRIER BAG MIDI   0000001000+00000035+00000+0001T   00000035+0000001455          1400 TM6090               2AZ
220172000220172               220172               170213CO     1400+00000+CO0000045342+0000045342+000000000+000006356+0000051690+0000000008+I20000000000+0000051690+Z
220172001220172018-050000     220172006003000412679MUG OCC LOVE TWIN BEAR 0000006000+00006139+00000+0001T   00006139+0000001501          1400 TM6515               2AZ
220172002220172304-001204     220172006001023737984FLOWER OCC. TEDDY/ROSES0000006000+00001402+00000+0001T   00001490+0006471501          1400 TM6510               2AZ
220172003220172112-116069     220172006009681820277TCS CARRIER BAG JUMBO  0000002000+00000048+00000+0001T   00000048+0000001501          1400 TM6090               2AZ
220173000220173               220173               170213CO     1400+00000+CO0000004730+0000004730+000000000+000000665+0000005390+0000000005+I20000000000+0000005390+Z
220173001220173077-000299-A   220173006003000670888GIFT-BAG PAPER JMB LOVE0000001000+00001753+00000+0001T   00001753+0000001502          1400 TM6112               2AZ
220173002220173304-001204     220173006001023737984FLOWER OCC. TEDDY/ROSES0000001000+00001402+00000+0001T   00001490+0006471502          1400 TM6510               2AZ
220173003220173903-000155     220173006009803374435SWT LOLLY I LUV U HEART0000003000+00000525+00000+0001T   00000525+0000001502          1400 TM6150               2AZ
220174000220174               220174               170213CO     1400+00000+CO0000006434+0000006434+000000000+000000902+0000007336+0000000000+I40000007336+0000000000+Z
220174001220174304-001204     220174006001023737984FLOWER OCC. TEDDY/ROSES0000001000+00001402+00000+0001T   00001490+0006471504          1400 TM6510               2AZ
220174002220174077-000299     220174006003000395576G/BAG 32x25cm LRG LOVE 0000001000+00001490+00000+0001T   00001490+0000001504          1400 TM6112               2AZ
220174003220174018-000136     220174006001023659026MUG OCC LOVE W/PLUSH   0000001000+00003507+00000+0001T   00003507+0000001504          1400 TM6515               2AZ
220174004220174112-116038     220174006009681820246TCS CARRIER BAG MIDI   0000001000+00000035+00000+0001T   00000035+0000001504          1400 TM6090               2AZ
220175000220175               220175               170213CO     1400+00000+CO0000001751+0000001751+000000000+000000246+0000001997+0000000000+I40000001997+0000000000+Z
220175001220175200-000130     220175006001023645067DESSERT-SPOONS 10PCE   0000002000+00000613+00000+0001T   00000613+0000001505          1400 TM6214               2AZ
220175002220175903-000155     220175006009803374435SWT LOLLY I LUV U HEART0000001000+00000525+00000+0001T   00000525+0000001505          1400 TM6150               2AZ
220176000220176               220176               170213CO     1400+00000+CO0000001753+0000001753+000000000+000000246+0000001990+0000000009+I20000000000+0000001990+Z
220176001220176084-006996     220176006003000092833NAIL CLIPPER 6cm       0000001000+00001753+00000+0001T   00001753+0000001511          1400 TM6200               2AZ
220177000220177               220177               170213CO     1400+00000+CO0000004385+0000004385+000000000+000000614+0000004990+0000000009+I20000000000+0000004990+Z
220177001220177082-007587     220177006003000654338SUNGLASS DESIGNER ASST 0000001000+00004385+00000+0001T   00004385+0000001519          1400 TM6160               2AZ
220178000220178               220178               170213CO     1400+00000+CO0000004067+0000004067+000000000+000000570+0000004630+0000000007+I20000000000+0000004630+Z
220178001220178301-085004     220178006003000420469ORN LOVE PLAQUE 21X10CM0000001000+00003507+00000+0001T   00003946+0006471540          1400 TM6505               2AZ
220178002220178903-000155     220178006009803374435SWT LOLLY I LUV U HEART0000001000+00000525+00000+0001T   00000525+0000001540          1400 TM6150               2AZ
220178003220178112-116038     220178006009681820246TCS CARRIER BAG MIDI   0000001000+00000035+00000+0001T   00000035+0000001540          1400 TM6090               2AZ
220179000220179               220179               170213CO     1400+00000+CO0000002926+0000002926+000000000+000000411+0000003330+0000000007+I20000000000+0000003330+Z
220179001220179077-000299     220179006003000395576G/BAG 32x25cm LRG LOVE 0000001000+00001490+00000+0001T   00001490+0000001546          1400 TM6112               2AZ
220179002220179306-000501     220179006003000577293T/BRUSH KIDDIES SUCKER 0000001000+00000876+00000+0001T   00000876+0000001546          1400 TM6200               2AZ
220179003220179903-000155     220179006009803374435SWT LOLLY I LUV U HEART0000001000+00000525+00000+0001T   00000525+0000001546          1400 TM6150               2AZ
220179004220179112-116038     220179006009681820246TCS CARRIER BAG MIDI   0000001000+00000035+00000+0001T   00000035+0000001546          1400 TM6090               2AZ
220180000220180               220180               170213CO     1400+00000+CO0000009588+0000009588+000000000+000001345+0000010930+0000000003+I20000000000+0000010930+Z
220180001220180077-000299     220180006003000395576G/BAG 32x25cm LRG LOVE 0000001000+00001490+00000+0001T   00001490+0000001547          1400 TM6112               2AZ
220180002220180080-000124     220180006003000297733CARD & ENV VALENTINES  0000001000+00001578+00000+0001T   00001578+0000001547          1400 TM6112               2AZ
220180003220180001-000175     220180006001023788108B/MUG GLS LOVE 380ML   0000001000+00004385+00000+0001T   00004385+0000001547          1400 TM6515               2AZ
220180004220180903-000155     220180006009803374435SWT LOLLY I LUV U HEART0000004000+00000525+00000+0001T   00000525+0000001547          1400 TM6150               2AZ
220180005220180112-116038     220180006009681820246TCS CARRIER BAG MIDI   0000001000+00000035+00000+0001T   00000035+0000001547          1400 TM6090               2AZ
220181000220181               220181               170213CO     1400+00000+CO0000000525+0000000525+000000000+000000074+0000000590+0000000009+I20000000000+0000000590+Z
220181001220181903-000155     220181006009803374435SWT LOLLY I LUV U HEART0000001000+00000525+00000+0001T   00000525+0000001549          1400 TM6150               2AZ
220182000220182               220182               170213CO     1400+00000+CO0000012312+0000012312+000000000+000001725+0000014037+0000000000+I40000014037+0000000000+Z
220182001220182303-000750     220182006003000370818KEY-HOLDER BRASS ANTIQU0000001000+00006139+00000+0001T   00006139+0000001550          1400 TM6510               2AZ
220182002220182031-080508     220182006001023802415P/FRAME PL 22X11CM LOVE0000001000+00004385+00000+0001T   00004385+0000001550          1400 TM6510               2AZ
220182003220182903-000918     220182006009802868522SWEET GUM TAPE H/KITTY 0000001000+00001753+00000+0001T   00001753+0000001550          1400 TM6150               2AZ
220182004220182112-116038     220182006009681820246TCS CARRIER BAG MIDI   0000001000+00000035+00000+0001T   00000035+0000001550          1400 TM6090               2AZ
220183000220183               220183               170213CO     1400+00000+CO0000002630+0000002630+000000000+000000369+0000002990+0000000009+I20000000000+0000002990+Z
220183001220183079-000282     220183006001023493309PAINT TUBS POSTER 12COL0000001000+00002630+00000+0001T   00002630+0000001555          1400 TM6130               2AZ
220184000220184               220184               170213CO     1400+00000+CO0000008771+0000008771+000000000+000001228+0000009990+0000000009+I20000000000+0000009990+Z
220184001220184586-096177     220184006001492961774WATCH LADIES RND SILVER0000001000+00008771+00000+0001T   00008771+0000001557          1400 TM6160               2AZ
220185000220185               220185               170213CO     1400+00000+CO0000008770+0000008770+000000000+000001228+0000009998+0000000000+I40000009998+0000000000+Z
220185001220185018-030000     220185006003000421060MUG OCCASIONS LOVE 2PCE0000001000+00004385+00000+0001T   00004385+0000001601          1400 TM6515               2AZ
220185002220185030-000031-A   220185006003000457588PLAQUE W/WORDS ASSTD   0000001000+00004385+00000+0001T   00004823+0006471601          1400 TM6505               2AZ
220186000220186               220186               170213CO     1400+00000+CO0000001753+0000001753+000000000+000000246+0000001990+0000000009+I20000000000+0000001990+Z
220186001220186006-000107     220186006003000587872BALLOONS ITS BOY/GIRL  0000001000+00001753+00000+0001T   00001753+0000001606          1400 TM6131               2AZ
220187000220187               220187               170213CO     1400+00000+CO0000004420+0000004420+000000000+000000619+0000005030+0000000009+I20000000000+0000005030+Z
220187001220187031-000873-C   220187006003000673513P/FRAME WDN WHITE 20X250000001000+00004385+00000+0001T   00004385+0000001608          1400 TM6510               2AZ
220187002220187112-116038     220187006009681820246TCS CARRIER BAG MIDI   0000001000+00000035+00000+0001T   00000035+0000001608          1400 TM6090               2AZ
220188000220188               220188               170213CO     1400+00000+CO0000021972+0000021972+000000000+000003079+0000025051+0000000000+I40000025051+0000000000+Z
220188001220188036-000501     220188006003000417407HOOK HANGER CHROME     0000001000+00004385+00000+0001T   00004385+0000001611          1400 TM6212               2AZ
220188002220188159-000038     220188006003000393954HOOKS HANGER S/S 2PCE  0000002000+00002630+00000+0001T   00002630+0000001611          1400 TM6200               2AZ
220188003220188464-003002     220188006003000328550GAME THINK:CHESS KIDS  0000001000+00012279+00000+0001T   00012279+0000001611          1400 TM6785               2AZ
220188004220188112-116069     220188006009681820277TCS CARRIER BAG JUMBO  0000001000+00000048+00000+0001T   00000048+0000001611          1400 TM6090               2AZ
220189000220189               220189               170213CO     1400+00000+CO0000005784+0000005784+000000000+000000812+0000006596+0000000000+I40000006596+0000000000+Z
220189001220189200-003024     220189006001023657299REFUSE BAGS 20PCE BLACK0000001000+00001753+00000+0001T   00001753+0000001613          1400 TM6214               2AZ
220189002220189047-000505     220189006009636901976PLUG-ADAPTOR 2-PIN     0000001000+00000876+00000+0001T   00000876+0000001613          1400 TM6880               2AZ
220189003220189047-000507     220189006001023684479PLUG-ADAPTOR EURO TWIN 0000001000+00001753+00000+0001T   00001753+0000001613          1400 TM6880               2AZ
220189004220189027-009030     220189006002814400100DUSTPAN PL             0000001000+00001402+00000+0001T   00001402+0000001613          1400 TM6212               2AZ
220190000220190               220190               170213CO     1400+00000+CO0000003102+0000003102+000000000+000000435+0000003530+0000000007+I20000000000+0000003530+Z
220190001220190077-000316     220190006001023609731GIFT-BAG 25X32CM MATT  0000001000+00001753+00000+0001T   00001753+0000001615          1400 TM6112               2AZ
220190002220190077-000310     220190006001023608635GIFT-BAG 18X23CM GLOSS 0000001000+00001314+00000+0001T   00001314+0000001615          1400 TM6112               2AZ
220190003220190112-116038     220190006009681820246TCS CARRIER BAG MIDI   0000001000+00000035+00000+0001T   00000035+0000001615          1400 TM6090               2AZ
C22015400                                          170213CO006-000120     12030869SLAVE 2     TM62IC0000000000+0000000000+0010000001000+
M17021391                              CASH        COSLAVE 2                       Z-REPORT No.   645TOTAL (Sales - Refunds)           5686.24       CASH TO BE BANKED                 2983.70       DEBIT CARDS                          0.00       CREDIT CARDS                      2702.54       Z-READING                         5686.24       AIRTIME DEBIT CARD SALES             0.00       AIRTIME CARD SALES                   0.00       OVERS/UNDERS                         0.00       AIRTIME CASH SALES                   0.00       GIFT CARDS                           0.00       GIFT CARD CASH SALES                 0.00       T O T A L  CASH PAYOUTS              0.00                                                                                                                                                                                                                                                                                                                                                      Z
M17021392                              CASH        COABSENT                                                                                                                                                                                          ANNUAL LEAVE                                                                                                                                                                                    DAY OFF                                                                                                                                                                                         COMMENTS                                                                                                                                                                                                                                                                                                                                                                                       Z
Y17021300                                          CO00000000498987+000064
ZCO17021319253 SLAVE 2      SALES DATA                     NEXT INVOICE NO.  220191 0645
X CO Slave 2 First invoice 220127 170213 Last invoice 220190 170213 Next invoice 220191 Total number of records 000000224 clbackup completed 19:25:48
