131143000131143               131143               170213CP     1400+00000+CP0000009691+0000009691+000000000+000001358+0000011040+0000000009+I20000000000+0000011040+Z
131143001131143018-000136     131143006001023659026MUG OCC LOVE W/PLUSH   0000002000+00003507+00000+0001T   00003507+0000000911          1400 M84515               1AZ
131143002131143077-000011-C   131143006001023808523TISSUE 10xSHTS RED     0000001000+00000876+00000+0001T   00000876+0000000911          1400 M84112               1AZ
131143003131143077-000299-A   131143006003000670888GIFT-BAG PAPER JMB LOVE0000001000+00001753+00000+0001T   00001753+0000000911          1400 M84112               1AZ
131143004131143112-116069     131143006009681820277TCS CARRIER BAG JUMBO  0000001000+00000048+00000+0001T   00000048+0000000911          1400 M84090               1AZ
131144000131144               131144               170213CP     1400+00000+CP0000001753+0000001753+000000000+000000246+0000001990+0000000009+I20000000000+0000001990+Z
131144001131144054-000801     131144006001023119230WIRE-BRUSH+HANDLE FINE 0000001000+00001753+00000+0001T   00001753+0000000911          1400 M84810               1AZ
131145000131145               131145               170213CP     1400+00000+CP0000001753+0000001753+000000000+000000246+0000001990+0000000009+I20000000000+0000001990+Z
131145001131145024-091100     131145006001023914224BAKING-CUPS PAPER 100PC0000001000+00001753+00000+0001T   00001753+0000000914          1400 M84300               1AZ
131146000131146               131146               170213CP     1400+00000+CP0000000876+0000000876+000000000+000000123+0000000990+0000000009+I20000000000+0000000990+Z
131146001131146047-001333     131146006001838000495PLUGTOP CHUBBY         0000001000+00000876+00000+0001T   00000876+0000000930          1400 M84880               1AZ
131147000131147               131147               170213CP     1400+00000+CP0000003892+0000003892+000000000+000000546+0000004430+0000000008+I20000000000+0000004430+Z
131147001131147159-000038     131147006003000393954HOOKS HANGER S/S 2PCE  0000001000+00002630+00000+0001T   00002630+0000000934          1400 M84200               1AZ
131147002131147071-081104-A   131147006003000326662GLUE-STICK 8g CRD-OF-3 0000001000+00001227+00000+0001T   00001227+0000000934          1400 M84130               1AZ
131147003131147112-116038     131147006009681820246TCS CARRIER BAG MIDI   0000001000+00000035+00000+0001T   00000035+0000000934          1400 M84090               1AZ
131148000131148               131148               170213CP     1400+00000+CP0000000700+0000000700+000000000+000000098+0000000790+0000000008+I20000000000+0000000790+Z
131148001131148564-000012     131148006001023130075BUBBLE BOTTLE MAGIC    0000001000+00000700+00000+0001T   00000700+0000000938          1400 M84131               1AZ
131149000131149               131149               170213CP     1400+00000+CP0000001753+0000001753+000000000+000000246+0000001990+0000000009+I20000000000+0000001990+Z
131149001131149071-010481     131149006001023417220MAGNIFYING-GLASS 90mm-D0000001000+00001753+00000+0001T   00001753+0000000939          1400 M84130               1AZ
131150000131150               131150               170213CP     1400+00000+CP0000004730+0000004730+000000000+000000663+0000005390+0000000003+I20000000000+0000005390+Z
131150001131150903-000194     131150006009826020616SWT CHOC RP LOLLY 25G  0000003000+00001314+00000+0001T   00001314+0000000945          1400 M84150               1AZ
131150002131150903-000200     131150006009826020234SWT CHOC RP CHOCO 23G  0000001000+00000788+00000+0001T   00000788+0000000945          1400 M84150               1AZ
131151000131151               131151               170213CP     1400+00000+CP0000000035+0000000035+000000000+000000005+0000000040+0000000000+I20000000000+0000000040+Z
131151001131151112-116038     131151006009681820246TCS CARRIER BAG MIDI   0000001000+00000035+00000+0001T   00000035+0000000946          1400 M84090               1AZ
131152000131152               131152               170213CP     1400+00000+CP0000002630+0000002630+000000000+000000369+0000002999+0000000000+I40000002999+0000000000+Z
131152001131152039-000320     131152006001023816153BIRTHDAY-CANDLES 13PCE 0000001000+00002630+00000+0001T   00002630+0000000957          1400 M84510               1AZ
131153000131153               131153               170213CP     1400+00000+CP0000003542+0000003542+000000000+000000496+0000004030+0000000008+I20000000000+0000004030+Z
131153001131153018-000136     131153006001023659026MUG OCC LOVE W/PLUSH   0000001000+00003507+00000+0001T   00003507+0000001006          1400 M84515               1AZ
131153002131153112-116038     131153006009681820246TCS CARRIER BAG MIDI   0000001000+00000035+00000+0001T   00000035+0000001006          1400 M84090               1AZ
131154000131154               131154               170213CP     1400+00000+CP0000002630+0000002630+000000000+000000369+0000002990+0000000009+I20000000000+0000002990+Z
131154001131154077-000270     131154006003000395453GIFT-BAG PPR JMB 33X45 0000001000+00002630+00000+0001T   00002630+0000001007          1400 M84112               1AZ
131155000131155               131155               170213CP     1400+00000+CP0000000048+0000000048+000000000+000000007+0000000050+0000000005+I20000000000+0000000050+Z
131155001131155112-116069     131155006009681820277TCS CARRIER BAG JUMBO  0000001000+00000048+00000+0001T   00000048+0000001007          1400 M84090               1AZ
131156000131156               131156               170213CP     1400+00000+CP0000005262+0000005262+000000000+000000737+0000005990+0000000009+I20000000000+0000005990+Z
131156001131156361-000113     131156006001023680204DOLL 30cm RAG          0000001000+00005262+00000+0001T   00005262+0000001008          1400 M84725               1AZ
131157000131157               131157               170213CP     1400+00000+CP0000008771+0000008771+000000000+000001228+0000009990+0000000009+I20000000000+0000009990+Z
131157001131157001-091415     131157006003000329113W/GLS OCC. LOVE 2PC 2800000001000+00008771+00000+0001T   00009648+0006471009          1400 M84515               1AZ
131158000131158               131158               170213CP     1400+00000+CP0000005875+0000005875+000000000+000000823+0000006690+0000000008+I20000000000+0000006690+Z
131158001131158077-000299     131158006003000395576G/BAG 32x25cm LRG LOVE 0000001000+00001490+00000+0001T   00001490+0000001012          1400 M84112               1AZ
131158002131158031-080508     131158006001023802415P/FRAME PL 22X11CM LOVE0000001000+00004385+00000+0001T   00004385+0000001012          1400 M84510               1AZ
131159000131159               131159               170213CP     1400+00000+CP0000001179+0000001179+000000000+000000168+0000001340+0000000007+I20000000000+0000001340+Z
131159001131159903-000183     131159006003000451043SWT LB HEART LOLLY     0000003000+00000393+00000+0001T   00000393+0000001017          1400 M84150               1AZ
131160000131160               131160               170213CP     1400+00000+CP0000000700+0000000700+000000000+000000098+0000000790+0000000008+I20000000000+0000000790+Z
131160001131160018-000177     131160006001023797513MUG MINI LOVE ASSTD    0000001000+00000700+00000+0001T   00000700+0000001019          1400 M84515               1AZ
131161000131161               131161               170213CP     1400+00000+CP0000002630+0000002630+000000000+000000369+0000002999+0000000000+I40000002999+0000000000+Z
131161001131161403-000502-A   131161006003000467099M/BANK TIN 8x12.5cm    0000001000+00002630+00000+0001T   00002630+0000001101          1400 M84510               1AZ
131162000131162               131162               170213CP     1400+00000+CP0000002452+0000002452+000000000+000000344+0000002790+0000000006+I20000000000+0000002790+Z
131162001131162006-001000     131162006003000093779HELIUM BALLOON FILL    0000004000+00000613+00000+0001T   00000613+0000001101          1400 M84131               1AZ
131163000131163               131163               170213CP     1400+00000+CP0000013157+0000013157+000000000+000001842+0000014990+0000000009+I20000000000+0000014990+Z
131163001131163469-006605     131163006003000390687B/BLOCKS 46PC FARM     0000001000+00013157+00000+0001T   00013157+0000001107          1400 M84755               1AZ
131164000131164               131164               170213CP     1400+00000+CP0000004206+0000004206+000000000+000000591+0000004790+0000000007+I20000000000+0000004790+Z
131164001131164046-000011     131164004897006172994BATTERIES SIZE:AA  2PCE0000003000+00001402+00000+0001T   00001402+0000001113          1400 M84312               1AZ
131165000131165               131165               170213CP     1400+00000+CP0000001753+0000001753+000000000+000000246+0000001990+0000000009+I20000000000+0000001990+Z
131165001131165200-003024     131165006001023657299REFUSE BAGS 20PCE BLACK0000001000+00001753+00000+0001T   00001753+0000001122          1400 M84214               1AZ
131166000131166               131166               170213CP     1400+00000+CP0000008811+0000008811+000000000+000001237+0000010048+0000000000+I40000010048+0000000000+Z
131166001131166077-000150-D   131166006003000054343GIFT-WRAP CELLPHANE CLR0000004000+00000876+00000+0001T   00000876+0000001124          1400 M84112               1AZ
131166002131166077-000240     131166006003000326259G/RIBBON 4PC PEARLIZED 0000001000+00001753+00000+0001T   00001753+0000001124          1400 M84112               1AZ
131166003131166104-000020     131166006916920023026BASKET 25x14x10cm      0000002000+00001753+00000+0001T   00001753+0000001124          1400 M84210               1AZ
131166004131166112-116069     131166006009681820277TCS CARRIER BAG JUMBO  0000001000+00000048+00000+0001T   00000048+0000001124          1400 M84090               1AZ
131167000131167               131167               170213CP     1400+00000+CP0000013186+0000013186+000000000+000001848+0000015030+0000000004+I20000000000+0000015030+Z
131167001131167564-001028     131167006001023708663BUBBLE CELEBRATION 6ml 0000002000+00003069+00000+0001T   00003069+0000001125          1400 M84131               1AZ
131167002131167564-000017     131167006003000654468BUBBLE NOVELTY WAND 29 0000001000+00003507+00000+0001T   00003507+0000001125          1400 M84131               1AZ
131167003131167564-000015     131167006003000140862BUBBLE TEST TUBE       0000002000+00001753+00000+0001T   00001753+0000001125          1400 M84131               1AZ
131167004131167112-116038     131167006009681820246TCS CARRIER BAG MIDI   0000001000+00000035+00000+0001T   00000035+0000001125          1400 M84090               1AZ
131168000131168               131168               170213CP     1400+00000+CP0000006535+0000006535+000000000+000000916+0000007451+0000000000+I40000007451+0000000000+Z
131168001131168077-000299     131168006003000395576G/BAG 32x25cm LRG LOVE 0000002000+00001490+00000+0001T   00001490+0000001127          1400 M84112               1AZ
131168002131168018-000136     131168006001023659026MUG OCC LOVE W/PLUSH   0000001000+00003507+00000+0001T   00003507+0000001127          1400 M84515               1AZ
131168003131168112-116069     131168006009681820277TCS CARRIER BAG JUMBO  0000001000+00000048+00000+0001T   00000048+0000001127          1400 M84090               1AZ
131169000131169               131169               170213CP     1400+00000+CP0000003507+0000003507+000000000+000000491+0000003990+0000000008+I20000000000+0000003990+Z
131169001131169031-000923     131169006001023669933P/FRAME BLK W/WORDS    0000001000+00003507+00000+0001T   00003507+0000001127          1400 M84510               1AZ
131170000131170               131170               170213CP     1400+00000+CP0000031788+0000031788+000000000+000004455+0000036243+0000000000+I40000036243+0000000000+Z
131170001131170036-000605     131170006001023158611WASHING-PEGS WDN PCK-240000002000+00001490+00000+0001T   00001490+0000001133          1400 M84212               1AZ
131170002131170562-063360     131170006003000652167EDU LEARN LETTERS WDN  0000001000+00005262+00000+0001T   00005262+0000001133          1400 M84755               1AZ
131170003131170466-000607     131170006003000027620BALL VOLLEYBALL 19cm   0000001000+00007893+00000+0001T   00007893+0000001133          1400 M84785               1AZ
131170004131170034-078810     131170006001023856838DIAPER DISPOSE-BAGSx1000000002000+00002630+00000+0001T   00002630+0000001133          1400 M84215               1AZ
131170005131170072-020264     131170006001023602565PET DOG CLEAN-UP BAGS  0000002000+00003507+00000+0001T   00003507+0000001133          1400 M84870               1AZ
131170006131170150-012228-H   131170006001023416773DOOR-STOPPERS SET-OF-2 0000001000+00001753+00000+0001T   00001753+0000001133          1400 M84810               1AZ
131170007131170466-000616     131170006003000661862BALL-PUMP NEEDLES 3PC  0000001000+00001578+00000+0001T   00001578+0000001133          1400 M84785               1AZ
131170008131170112-116069     131170006009681820277TCS CARRIER BAG JUMBO  0000001000+00000048+00000+0001T   00000048+0000001133          1400 M84090               1AZ
131171000131171               131171               170213CP     1400+00000+CP0000002453+0000002453+000000000+000000344+0000002790+0000000007+I20000000000+0000002790+Z
131171001131171261-002267     131171006001023665126GUN 8-SHOT SUPER-CAP   0000001000+00001753+00000+0001T   00001753+0000001135          1400 M84710               1AZ
131171002131171261-000121     131171006001023341600GUN-CAPS 8-SHOT CARD-9 0000001000+00000700+00000+0001T   00000700+0000001135          1400 M84710               1AZ
131172000131172               131172               170213CP     1400+00000+CP0000000035+0000000035+000000000+000000005+0000000040+0000000000+I20000000000+0000000040+Z
131172001131172112-116038     131172006009681820246TCS CARRIER BAG MIDI   0000001000+00000035+00000+0001T   00000035+0000001140          1400 M84090               1AZ
131173000131173               131173               170213CP     1400+00000+CP0000002630+0000002630+000000000+000000369+0000002990+0000000009+I20000000000+0000002990+Z
131173001131173304-001118     131173006001023786661FLWR IN-POT PINE 10cm  0000001000+00002630+00000+0001T   00002630+0000001146          1400 M84510               1AZ
131174000131174               131174               170213CP     1400+00000+CP0000004331+0000004331+000000000+000000612+0000004940+0000000003+I20000000000+0000004940+Z
131174001131174903-000200     131174006009826020234SWT CHOC RP CHOCO 23G  0000004000+00000788+00000+0001T   00000788+0000001156          1400 M84150               1AZ
131174002131174903-000183     131174006003000451043SWT LB HEART LOLLY     0000003000+00000393+00000+0001T   00000393+0000001156          1400 M84150               1AZ
131175000131175               131175               170213CP     1400+00000+CP0000001753+0000001753+000000000+000000246+0000001990+0000000009+I20000000000+0000001990+Z
131175001131175077-000299-A   131175006003000670888GIFT-BAG PAPER JMB LOVE0000001000+00001753+00000+0001T   00001753+0000001159          1400 M84112               1AZ
131176000131176               131176               170213CP     1400+00000+CP0000014080+0000014080+000000000+000001973+0000016053+0000000000+I40000016053+0000000000+Z
131176001131176077-000270     131176006003000395453GIFT-BAG PPR JMB 33X45 0000001000+00002630+00000+0001T   00002630+0000001213          1400 M84112               1AZ
131176002131176368-000637     131176006001023874092PLUSH BEAR SLEEPING LOV0000001000+00011402+00000+0001T   00012279+0006471213          1400 M84745               1AZ
131176003131176112-116069     131176006009681820277TCS CARRIER BAG JUMBO  0000001000+00000048+00000+0001T   00000048+0000001213          1400 M84090               1AZ
131177000131177               131177               170213CP     1400+00000+CP0000004243+0000004243+000000000+000000595+0000004838+0000000000+I40000004838+0000000000+Z
131177001131177018-000129     131177006001023403353MUG OCC. LOVE V-SHAPE  0000001000+00002630+00000+0001T   00002630+0000001220          1400 M84515               1AZ
131177002131177080-000124     131177006003000297733CARD & ENV VALENTINES  0000001000+00001578+00000+0001T   00001578+0000001220          1400 M84112               1AZ
131177003131177112-116038     131177006009681820246TCS CARRIER BAG MIDI   0000001000+00000035+00000+0001T   00000035+0000001220          1400 M84090               1AZ
131178000131178               131178               170213CP     1400+00000+CP0000005905+0000005905+000000000+000000835+0000006740+0000000000+I20000000000+0000006740+Z
131178001131178903-000200     131178006009826020234SWT CHOC RP CHOCO 23G  0000005000+00000788+00000+0001T   00000788+0000001226          1400 M84150               1AZ
131178002131178903-000183     131178006003000451043SWT LB HEART LOLLY     0000005000+00000393+00000+0001T   00000393+0000001226          1400 M84150               1AZ
131179000131179               131179               170213CP     1400+00000+CP0000002630+0000002630+000000000+000000369+0000002990+0000000009+I20000000000+0000002990+Z
131179001131179077-000270     131179006003000395453GIFT-BAG PPR JMB 33X45 0000001000+00002630+00000+0001T   00002630+0000001227          1400 M84112               1AZ
131180000131180               131180               170213CP     1400+00000+CP0000000048+0000000048+000000000+000000007+0000000050+0000000005+I20000000000+0000000050+Z
131180001131180112-116069     131180006009681820277TCS CARRIER BAG JUMBO  0000001000+00000048+00000+0001T   00000048+0000001227          1400 M84090               1AZ
131181000131181               131181               170213CP     1400+00000+CP0000003505+0000003505+000000000+000000492+0000003997+0000000000+I40000003997+0000000000+Z
131181001131181077-000299     131181006003000395576G/BAG 32x25cm LRG LOVE 0000001000+00001490+00000+0001T   00001490+0000001235          1400 M84112               1AZ
131181002131181077-000315     131181006003000181186GIFT-BAG 20x28cm MATT  0000001000+00001578+00000+0001T   00001578+0000001235          1400 M84112               1AZ
131181003131181080-000133     131181006003000535613CARD&ENV MINI ASTD DSGN0000001000+00000437+00000+0001T   00000437+0000001235          1400 M84112               1AZ
131182000131182               131182               170213CP     1400+00000+CP0000005120+0000005120+000000000+000000717+0000005830+0000000007+I20000000000+0000005830+Z
131182001131182077-000303     131182006001023593757GIFT-BAG PAPER MED     0000001000+00001578+00000+0001T   00001578+0000001236          1400 M84112               1AZ
131182002131182018-000136     131182006001023659026MUG OCC LOVE W/PLUSH   0000001000+00003507+00000+0001T   00003507+0000001236          1400 M84515               1AZ
131182003131182112-116038     131182006009681820246TCS CARRIER BAG MIDI   0000001000+00000035+00000+0001T   00000035+0000001236          1400 M84090               1AZ
131183000131183               131183               170213CP     1400+00000+CP0000000437+0000000437+000000000+000000062+0000000490+0000000009+I20000000000+0000000490+Z
131183001131183080-000133-A   131183006003000647019MINI VALENTINES CARD   0000001000+00000437+00000+0001T   00000437+0000001237          1400 M84112               1AZ
131184000131184               131184               170213CP     1400+00000+CP0000005784+0000005784+000000000+000000810+0000006594+0000000000+I40000006594+0000000000+Z
131184001131184105-001025-A   131184006009654960979CONTAINERS CLEAR 4PCE  0000003000+00001928+00000+0001T   00001928+0000001239          1400 M84210               1AZ
131185000131185               131185               170213CP     1400+00000+CP0000010558+0000010558+000000000+000001479+0000012030+0000000007+I20000000000+0000012030+Z
131185001131185030-000030-A   131185006003000249305PLAQUE GLASS LOVE      0000001000+00003069+00000+0001T   00003069+0000001251          1400 M84505               1AZ
131185002131185368-000049     131185006003000536955PLUSH BEAR 15cm LOVE   0000001000+00004385+00000+0001T   00004385+0000001251          1400 M84745               1AZ
131185003131185089-060027     131185006003000245871KEY-CHAIN HEART 6X6cm  0000001000+00003069+00000+0001T   00003069+0000001251          1400 M84205               1AZ
131185004131185112-116038     131185006009681820246TCS CARRIER BAG MIDI   0000001000+00000035+00000+0001T   00000035+0000001251          1400 M84090               1AZ
131186000131186               131186               170213CP     1400+00000+CP0000000788+0000000788+000000000+000000111+0000000890+0000000009+I20000000000+0000000890+Z
131186001131186903-000200     131186006009826020234SWT CHOC RP CHOCO 23G  0000001000+00000788+00000+0001T   00000788+0000001255          1400 M84150               1AZ
131187000131187               131187               170213CP     1400+00000+CP0000002630+0000002630+000000000+000000369+0000002990+0000000009+I20000000000+0000002990+Z
131187001131187079-000277     131187006003000160600PAINT-BRUSHES 15PCE    0000001000+00002630+00000+0001T   00002630+0000001259          1400 M84130               1AZ
131188000131188               131188               170213CP     1400+00000+CP0000001613+0000001613+000000000+000000226+0000001830+0000000009+I20000000000+0000001830+Z
131188001131188077-000303     131188006001023593757GIFT-BAG PAPER MED     0000001000+00001578+00000+0001T   00001578+0000001300          1400 M84112               1AZ
131188002131188112-116038     131188006009681820246TCS CARRIER BAG MIDI   0000001000+00000035+00000+0001T   00000035+0000001300          1400 M84090               1AZ
131189000131189               131189               170213CP     1400+00000+CP0000001613+0000001613+000000000+000000226+0000001830+0000000009+I20000000000+0000001830+Z
131189001131189018-000127     131189006001023380289MUG OCC STRAIGHT LOVE  0000001000+00001578+00000+0001T   00001753+0006471303          1400 M84515               1AZ
131189002131189112-116038     131189006009681820246TCS CARRIER BAG MIDI   0000001000+00000035+00000+0001T   00000035+0000001303          1400 M84090               1AZ
131190000131190               131190               170213CP     1400+00000+CP0000008766+0000008766+000000000+000001230+0000009990+0000000006+I20000000000+0000009990+Z
131190001131190033-006003     131190006001023678584SEWING-KIT             0000001000+00002630+00000+0001T   00002630+0000001304          1400 M84200               1AZ
131190002131190071-000013     131190006003000535354BOARD DUSTER           0000001000+00002630+00000+0001T   00002630+0000001304          1400 M84130               1AZ
131190003131190007-000029     131190006003000577736PRICE FLASH 17x11cm    0000001000+00001753+00000+0001T   00001753+0000001304          1400 M84130               1AZ
131190004131190079-014102     131190006003000101115SCISSORS SHAPES ASSTD  0000001000+00001753+00000+0001T   00001753+0000001304          1400 M84130               1AZ
131191000131191               131191               170213CP     1400+00000+CP0000003554+0000003554+000000000+000000499+0000004053+0000000000+I40000004053+0000000000+Z
131191001131191077-000299-A   131191006003000670888GIFT-BAG PAPER JMB LOVE0000002000+00001753+00000+0001T   00001753+0000001312          1400 M84112               1AZ
131191002131191112-116069     131191006009681820277TCS CARRIER BAG JUMBO  0000001000+00000048+00000+0001T   00000048+0000001312          1400 M84090               1AZ
131192000131192               131192               170213CP     1400+00000+CP0000002979+0000002979+000000000+000000418+0000003397+0000000000+I40000003397+0000000000+Z
131192001131192903-000087     131192006001704000161SWT SPECKLED-EGGS 50G  0000001000+00001139+00000+0001T   00001139+0000001318          1400 M84150               1AZ
131192002131192033-000013     131192006001023567215PILL-REMINDER PL       0000001000+00001227+00000+0001T   00001227+0000001318          1400 M84200               1AZ
131192003131192200-000130     131192006001023645067DESSERT-SPOONS 10PCE   0000001000+00000613+00000+0001T   00000613+0000001318          1400 M84214               1AZ
131193000131193               131193               170213CP     1400+00000+CP0000001402+0000001402+000000000+000000197+0000001590+0000000009+I20000000000+0000001590+Z
131193001131193027-009030     131193006002814400100DUSTPAN PL             0000001000+00001402+00000+0001T   00001402+0000001318          1400 M84212               1AZ
131194000131194               131194               170213CP     1400+00000+CP0000003993+0000003993+000000000+000000560+0000004550+0000000003+I20000000000+0000004550+Z
131194001131194080-000127     131194006003000424351VALENTINES DAY 36x24CM 0000001000+00002192+00000+0001T   00002192+0000001319          1400 M84112               1AZ
131194002131194077-000299-A   131194006003000670888GIFT-BAG PAPER JMB LOVE0000001000+00001753+00000+0001T   00001753+0000001319          1400 M84112               1AZ
131194003131194112-116069     131194006009681820277TCS CARRIER BAG JUMBO  0000001000+00000048+00000+0001T   00000048+0000001319          1400 M84090               1AZ
131195000131195               131195               170213CP     1400+00000+CP0000005260+0000005260+000000000+000000738+0000005990+0000000008+I20000000000+0000005990+Z
131195001131195306-001805     131195006003000275908HAND SANITIZER 2PCE    0000002000+00002630+00000+0001T   00002630+0000001322          1400 M84200               1AZ
131196000131196               131196               170213CP     1400+00000+CP0000001490+0000001490+000000000+000000209+0000001690+0000000009+I20000000000+0000001690+Z
131196001131196077-000299     131196006003000395576G/BAG 32x25cm LRG LOVE 0000001000+00001490+00000+0001T   00001490+0000001323          1400 M84112               1AZ
131197000131197               131197               170213CP     1400+00000+CP0000001753+0000001753+000000000+000000246+0000001990+0000000009+I20000000000+0000001990+Z
131197001131197301-085002     131197006003000420704ORN OCC. LOVE BELL ASST0000001000+00001753+00000+0001T   00002630+0008121333          1400 M84505               1AZ
131198000131198               131198               170213CP     1400+00000+CP0000001753+0000001753+000000000+000000246+0000001990+0000000009+I20000000000+0000001990+Z
131198001131198077-000299-A   131198006003000670888GIFT-BAG PAPER JMB LOVE0000001000+00001753+00000+0001T   00001753+0000001336          1400 M84112               1AZ
131199000131199               131199               170213CP     1400+00000+CP0000013178+0000013178+000000000+000001850+0000015028+0000000000+I40000015028+0000000000+Z
131199001131199903-000503     131199006001704006118SWT VAMPIRE FANGS 60G  0000002000+00000876+00000+0001T   00000876+0000001339          1400 M84150               1AZ
131199002131199903-000521     131199006001704009652SWT GUMMY SOFT GUMS    0000002000+00000876+00000+0001T   00000876+0000001339          1400 M84150               1AZ
131199003131199903-000698     131199006002099007032SWT CANDY ECLAIRS 90g  0000001000+00001139+00000+0001T   00001139+0000001339          1400 M84150               1AZ
131199004131199903-000481     131199006001704007481SWT MOO MILK-SHAKES 60G0000001000+00000876+00000+0001T   00000876+0000001339          1400 M84150               1AZ
131199005131199903-000699     131199006002099007018SWT CANDY FRUIT CHEWS  0000001000+00001139+00000+0001T   00001139+0000001339          1400 M84150               1AZ
131199006131199903-000095     131199006001704011495SWT SPECKLED-EGGS 100G 0000001000+00002104+00000+0001T   00002104+0000001339          1400 M84150               1AZ
131199007131199903-000809     131199006009680772232SWT CANDY FROOTEEZ 50g 0000002000+00000876+00000+0001T   00000876+0000001339          1400 M84150               1AZ
131199008131199903-000503     131199006001704006118SWT VAMPIRE FANGS 60G  0000001000+00000876+00000+0001T   00000876+0000001339          1400 M84150               1AZ
131199009131199077-000115     131199006001023834225WRAP METALLIC 700mmx1m 0000001000+00001753+00000+0001T   00001753+0000001339          1400 M84112               1AZ
131199010131199112-116038     131199006009681820246TCS CARRIER BAG MIDI   0000001000+00000035+00000+0001T   00000035+0000001339          1400 M84090               1AZ
131200000131200               131200               170213CP     1400+00000+CP0000001314+0000001314+000000000+000000184+0000001490+0000000008+I20000000000+0000001490+Z
131200001131200077-000310     131200006001023608635GIFT-BAG 18X23CM GLOSS 0000001000+00001314+00000+0001T   00001314+0000001339          1400 M84112               1AZ
131201000131201               131201               170213CP     1400+00000+CP0000003797+0000003797+000000000+000000536+0000004330+0000000003+I20000000000+0000004330+Z
131201001131201077-000314     131201006003000181148GIFT-BAG 11X14CM MATT  0000001000+00000876+00000+0001T   00000876+0000001343          1400 M84112               1AZ
131201002131201077-000312     131201006001023608697GIFT-BAG 10X35CM GLOSS 0000001000+00001314+00000+0001T   00001314+0000001343          1400 M84112               1AZ
131201003131201903-000183     131201006003000451043SWT LB HEART LOLLY     0000004000+00000393+00000+0001T   00000393+0000001343          1400 M84150               1AZ
131201004131201112-116038     131201006009681820246TCS CARRIER BAG MIDI   0000001000+00000035+00000+0001T   00000035+0000001343          1400 M84090               1AZ
131202000131202               131202               170213CP     1400+00000+CP0000002715+0000002715+000000000+000000381+0000003090+0000000006+I20000000000+0000003090+Z
131202001131202903-000194     131202006009826020616SWT CHOC RP LOLLY 25G  0000001000+00001314+00000+0001T   00001314+0000001347          1400 M84150               1AZ
131202002131202903-000200     131202006009826020234SWT CHOC RP CHOCO 23G  0000001000+00000788+00000+0001T   00000788+0000001347          1400 M84150               1AZ
131202003131202077-000311     131202006001023608666GIFT-BAG 11X14CM GLOSS 0000001000+00000613+00000+0001T   00000613+0000001347          1400 M84112               1AZ
131203000131203               131203               170213CP     1400+00000+CP0000014080+0000014080+000000000+000001973+0000016050+0000000003+I20000000000+0000016050+Z
131203001131203015-002070     131203006001023893932BOWL S/STEEL SALAD 30cm0000002000+00007016+00000+0001T   00007016+0000001349          1400 M84515               1AZ
131203002131203112-116069     131203006009681820277TCS CARRIER BAG JUMBO  0000001000+00000048+00000+0001T   00000048+0000001349          1400 M84090               1AZ
131204000131204               131204               170213CP     1400+00000+CP0000001752+0000001752+000000000+000000246+0000001990+0000000008+I20000000000+0000001990+Z
131204001131204039-000319-3   131204006003000442621B/CANDLES LRG NUMBER-3 0000001000+00000876+00000+0001T   00000876+0000001350          1400 M84510               1AZ
131204002131204039-000319-1   131204006003000442386B/CANDLES LRG NUMBER-1 0000001000+00000876+00000+0001T   00000876+0000001350          1400 M84510               1AZ
131205000131205               131205               170213CP     1400+00000+CP0000002893+0000002893+000000000+000000406+0000003290+0000000009+I20000000000+0000003290+Z
131205001131205036-000151     131205006001023810588COATHANGERS    PACK-10 0000001000+00002893+00000+0001T   00002893+0000001356          1400 M84212               1AZ
131206000131206               131206               170213CP     1400+00000+CP0000002892+0000002892+000000000+000000406+0000003298+0000000000+I40000003298+0000000000+Z
131206001131206036-000063     131206006009654960436COATHANGERS VIRGIN 5PCE0000001000+00001753+00000+0001T   00001753+0000001506          1400 M84212               1AZ
131206002131206159-000445     131206006001023669728SOAP-BOX PL OVAL       0000001000+00001139+00000+0001T   00001139+0000001506          1400 M84200               1AZ
131207000131207               131207               170213CP     1400+00000+CP0000000700+0000000700+000000000+000000098+0000000790+0000000008+I20000000000+0000000790+Z
131207001131207903-000126     131207006002099003591SWT ZILLIONS MINT 50G  0000001000+00000700+00000+0001T   00000700+0000001518          1400 M84150               1AZ
131208000131208               131208               170213CP     1400+00000+CP0000001752+0000001752+000000000+000000246+0000001998+0000000000+I40000001998+0000000000+Z
131208001131208077-000150-D   131208006003000054343GIFT-WRAP CELLPHANE CLR0000002000+00000876+00000+0001T   00000876+0000001523          1400 M84112               1AZ
131209000131209               131209               170213CP     1400+00000+CP0000000035+0000000035+000000000+000000005+0000000040+0000000000+I20000000000+0000000040+Z
131209001131209112-116038     131209006009681820246TCS CARRIER BAG MIDI   0000001000+00000035+00000+0001T   00000035+0000001530          1400 M84090               1AZ
131210000131210               131210               170213CP     1400+00000+CP0000002630+0000002630+000000000+000000369+0000002990+0000000009+I20000000000+0000002990+Z
131210001131210306-001618     131210006003000571574INNER SOLES 2-PAIR KIDS0000001000+00002630+00000+0001T   00002630+0000001531          1400 M84200               1AZ
131211000131211               131211               170213CP     1400+00000+CP0000010523+0000010523+000000000+000001474+0000011990+0000000007+I20000000000+0000011990+Z
131211001131211103-000082     131211006001023710857BAMBOO BASKET 21x17x8cm0000001000+00004385+00000+0001T   00004385+0000001539          1400 M84300               1AZ
131211002131211103-000081     131211006003000637942BAMBOO BASKET 17x13x7cm0000001000+00003946+00000+0001T   00003946+0000001539          1400 M84300               1AZ
131211003131211103-000040     131211006001023723130BASKET SQ 15X15X10cm   0000001000+00002192+00000+0001T   00002192+0000001539          1400 M84300               1AZ
131212000131212               131212               170213CP     1400+00000+CP0000003507+0000003507+000000000+000000491+0000003998+0000000000+I40000003998+0000000000+Z
131212001131212018-000136     131212006001023659026MUG OCC LOVE W/PLUSH   0000001000+00003507+00000+0001T   00003507+0000001540          1400 M84515               1AZ
131213000131213               131213               170213CP     1400+00000+CP0000003331+0000003331+000000000+000000467+0000003798+0000000000+I40000003798+0000000000+Z
131213001131213301-085006     131213006001023502940ORN LOVE MSG TUBE W/HRT0000001000+00001753+00000+0001T   00001753+0000001558          1400 M84505               1AZ
131213002131213018-000127     131213006001023380289MUG OCC STRAIGHT LOVE  0000001000+00001578+00000+0001T   00001753+0006471558          1400 M84515               1AZ
131214000131214               131214               170213CP     1400+00000+CP0000010028+0000010028+000000000+000001406+0000011434+0000000000+I40000011434+0000000000+Z
131214001131214079-000510     131214006001023509079CRAYONS WAX 12-COLOUR  0000003000+00002455+00000+0001T   00002455+0000001600          1400 M84130               1AZ
131214002131214567-014132     131214006003000560028BOOK COLOURING 24 PAGE 0000003000+00000876+00000+0001T   00000876+0000001600          1400 M84757               1AZ
131214003131214112-116038     131214006009681820246TCS CARRIER BAG MIDI   0000001000+00000035+00000+0001T   00000035+0000001600          1400 M84090               1AZ
131215000131215               131215               170213CP     1400+00000+CP0000005556+0000005556+000000000+000000780+0000006330+0000000006+I20000000000+0000006330+Z
131215001131215079-006500     131215006001023557186GLUE GLITTER 6/10 PCE  0000001000+00001753+00000+0001T   00001753+0000001606          1400 M84130               1AZ
131215002131215077-000150-D   131215006003000054343GIFT-WRAP CELLPHANE CLR0000001000+00000876+00000+0001T   00000876+0000001606          1400 M84112               1AZ
131215003131215006-000109-A   131215006003000645435BALLOONS HELIUM 2PC    0000001000+00001753+00000+0001T   00001753+0000001606          1400 M84131               1AZ
131215004131215206-000530     131215006003000620821BIRTHDAY CANDLES 6PC   0000001000+00001139+00000+0001T   00001753+0008181606          1400 M84321               1AZ
131215005131215112-116038     131215006009681820246TCS CARRIER BAG MIDI   0000001000+00000035+00000+0001T   00000035+0000001606          1400 M84090               1AZ
131216000131216               131216               170213CP     1400+00000+CP0000003069+0000003069+000000000+000000430+0000003490+0000000009+I20000000000+0000003490+Z
131216001131216089-060027     131216006003000245871KEY-CHAIN HEART 6X6cm  0000001000+00003069+00000+0001T   00003069+0000001607          1400 M84205               1AZ
131217000131217               131217               170213CP     1400+00000+CP0000011958+0000011958+000000000+000001677+0000013635+0000000000+I40000013635+0000000000+Z
131217001131217001-091415     131217006003000329113W/GLS OCC. LOVE 2PC 2800000001000+00008771+00000+0001T   00009648+0006471609          1400 M84515               1AZ
131217002131217903-000200     131217006009826020234SWT CHOC RP CHOCO 23G  0000002000+00000788+00000+0001T   00000788+0000001609          1400 M84150               1AZ
131217003131217903-000201     131217006009826020371SWT CHOC HEART 30g     0000002000+00000788+00000+0001T   00000788+0000001609          1400 M84150               1AZ
131217004131217112-116038     131217006009681820246TCS CARRIER BAG MIDI   0000001000+00000035+00000+0001T   00000035+0000001609          1400 M84090               1AZ
131218000131218               131218               170213CP     1400+00000+CP0000007050+0000007050+000000000+000000988+0000008030+0000000008+I20000000000+0000008030+Z
131218001131218039-000500     131218006001023816450C/VOTIVE 8PC RAINBOW   0000001000+00005262+00000+0001T   00005262+0000001610          1400 M84510               1AZ
131218002131218039-001023     131218006003000466337CANDLE TEA-LITE METALIC0000001000+00001753+00000+0001T   00001753+0000001610          1400 M84510               1AZ
131218003131218112-116038     131218006009681820246TCS CARRIER BAG MIDI   0000001000+00000035+00000+0001T   00000035+0000001610          1400 M84090               1AZ
131219000131219               131219               170213CP     1400+00000+CP0000002192+0000002192+000000000+000000307+0000002490+0000000009+I20000000000+0000002490+Z
131219001131219024-091103     131219006003453014307BAKING-CUP MUFFIN 50PCE0000001000+00002192+00000+0001T   00002192+0000001614          1400 M84300               1AZ
131220000131220               131220               170213CP     1400+00000+CP0000000788+0000000788+000000000+000000111+0000000890+0000000009+I20000000000+0000000890+Z
131220001131220077-000010-D   131220006001023123886CREPE-PAPER WHITE      0000001000+00000788+00000+0001T   00000788+0000001614          1400 M84112               1AZ
131221000131221               131221               170213CP     1400+00000+CP0000013204+0000013204+000000000+000001849+0000015050+0000000003+I20000000000+0000015050+Z
131221001131221466-006135     131221006001023669049GOLF-SET PLASTIC       0000001000+00008771+00000+0001T   00008771+0000001615          1400 M84785               1AZ
131221002131221365-003048     131221006001023589354PLAY BEAUTY COSMETIC   0000001000+00004385+00000+0001T   00004385+0000001615          1400 M84725               1AZ
131221003131221112-116069     131221006009681820277TCS CARRIER BAG JUMBO  0000001000+00000048+00000+0001T   00000048+0000001615          1400 M84090               1AZ
131222000131222               131222               170213CP     1400+00000+CP0000008806+0000008806+000000000+000001233+0000010030+0000000009+I20000000000+0000010030+Z
131222001131222001-091415     131222006003000329113W/GLS OCC. LOVE 2PC 2800000001000+00008771+00000+0001T   00009648+0006471620          1400 M84515               1AZ
131222002131222112-116038     131222006009681820246TCS CARRIER BAG MIDI   0000001000+00000035+00000+0001T   00000035+0000001620          1400 M84090               1AZ
131223000131223               131223               170213CP     1400+00000+CP0000001753+0000001753+000000000+000000246+0000001990+0000000009+I20000000000+0000001990+Z
131223001131223007-000230     131223006001023995315LABELS STICK-ON STARS  0000001000+00001753+00000+0001T   00001753+0000001621          1400 M84130               1AZ
131224000131224               131224               170213CP     1400+00000+CP0000000876+0000000876+000000000+000000123+0000000990+0000000009+I20000000000+0000000990+Z
131224001131224077-000150-D   131224006003000054343GIFT-WRAP CELLPHANE CLR0000001000+00000876+00000+0001T   00000876+0000001623          1400 M84112               1AZ
131225000131225               131225               170213CP     1400+00000+CP0000002192+0000002192+000000000+000000307+0000002490+0000000009+I20000000000+0000002490+Z
131225001131225031-000868-A   131225006001023798534P/FRAME PL BLCK 10X15CM0000001000+00002192+00000+0001T   00002192+0000001637          1400 M84510               1AZ
131226000131226               131226               170213CP     1400+00000+CP0000004243+0000004243+000000000+000000595+0000004830+0000000008+I20000000000+0000004830+Z
131226001131226903-000699     131226006002099007018SWT CANDY FRUIT CHEWS  0000001000+00001139+00000+0001T   00001139+0000001638          1400 M84150               1AZ
131226002131226089-060027     131226006003000245871KEY-CHAIN HEART 6X6cm  0000001000+00003069+00000+0001T   00003069+0000001638          1400 M84205               1AZ
131226003131226112-116038     131226006009681820246TCS CARRIER BAG MIDI   0000001000+00000035+00000+0001T   00000035+0000001638          1400 M84090               1AZ
131227000131227               131227               170213CP     1400+00000+CP0000005262+0000005262+000000000+000000737+0000005990+0000000009+I20000000000+0000005990+Z
131227001131227162-096634     131227006001492966342#TAG NK PENDANT        0000001000+00005262+00000+0001T   00005262+0000001638          1400 M84160               1AZ
131228000131228               131228               170213CP     1400+00000+CP0000001578+0000001578+000000000+000000221+0000001790+0000000009+I20000000000+0000001790+Z
131228001131228077-000303     131228006001023593757GIFT-BAG PAPER MED     0000001000+00001578+00000+0001T   00001578+0000001638          1400 M84112               1AZ
131229000131229               131229               170213CP     1400+00000+CP0000003730+0000003730+000000000+000000523+0000004250+0000000003+I20000000000+0000004250+Z
131229001131229077-000452     131229006003000284986G/BAG METALLIC MED EMB 0000001000+00001490+00000+0001T   00001490+0000001639          1400 M84112               1AZ
131229002131229080-000127     131229006003000424351VALENTINES DAY 36x24CM 0000001000+00002192+00000+0001T   00002192+0000001639          1400 M84112               1AZ
131229003131229112-116069     131229006009681820277TCS CARRIER BAG JUMBO  0000001000+00000048+00000+0001T   00000048+0000001639          1400 M84090               1AZ
131230000131230               131230               170213CP     1400+00000+CP0000001753+0000001753+000000000+000000246+0000001999+0000000000+I40000001999+0000000000+Z
131230001131230301-085006     131230006001023502940ORN LOVE MSG TUBE W/HRT0000001000+00001753+00000+0001T   00001753+0000001640          1400 M84505               1AZ
131231000131231               131231               170213CP     1400+00000+CP0000004734+0000004734+000000000+000000663+0000005390+0000000007+I20000000000+0000005390+Z
131231001131231079-105603     131231006003000230907ART+CRAFT STAMP ROUND  0000003000+00001578+00000+0001T   00001578+0000001641          1400 M84130               1AZ
131232000131232               131232               170213CP     1400+00000+CP0000001753+0000001753+000000000+000000246+0000001990+0000000009+I20000000000+0000001990+Z
131232001131232077-000299-A   131232006003000670888GIFT-BAG PAPER JMB LOVE0000001000+00001753+00000+0001T   00001753+0000001642          1400 M84112               1AZ
131233000131233               131233               170213CP     1400+00000+CP0000002192+0000002192+000000000+000000307+0000002490+0000000009+I20000000000+0000002490+Z
131233001131233077-000309-A   131233006003000671007GIFT-BAG HOLOGRAM JMB  0000001000+00002192+00000+0001T   00002192+0000001642          1400 M84112               1AZ
131234000131234               131234               170213CP     1400+00000+CP0000007936+0000007936+000000000+000001114+0000009050+0000000000+I40000009050+0000000000+Z
131234001131234006-000171-C   131234006003000609178BALLOONS 1PC D/GRN PRNT0000001000+00000218+00000+0001T   00000218+0000001644          1400 M84131               1AZ
131234002131234006-000170-G   131234006003000608553BALLOONS 1PC YELLOW    0000003000+00000218+00000+0001T   00000218+0000001644          1400 M84131               1AZ
131234003131234263-000803     131234006003000548286POLICE 12PC MINI CAR   0000001000+00007016+00000+0001T   00007016+0000001644          1400 M84710               1AZ
131234004131234112-116069     131234006009681820277TCS CARRIER BAG JUMBO  0000001000+00000048+00000+0001T   00000048+0000001644          1400 M84090               1AZ
131235000131235               131235               170213CP     1400+00000+CP0000001139+0000001139+000000000+000000160+0000001290+0000000009+I20000000000+0000001290+Z
131235001131235903-000087     131235006001704000161SWT SPECKLED-EGGS 50G  0000001000+00001139+00000+0001T   00001139+0000001646          1400 M84150               1AZ
131236000131236               131236               170213CP     1400+00000+CP0000017101+0000017101+000000000+000002396+0000019497+0000000000+I40000019497+0000000000+Z
131236001131236031-086303-A   131236006003000322206P/FRM CHAMPAGNE 10X15CM0000001000+00003069+00000+0001T   00003069+0000001649          1400 M84510               1AZ
131236002131236031-086219-C   131236006001023808905P/FRAME WDN A4 30X40CM 0000002000+00007016+00000+0001T   00007016+0000001649          1400 M84510               1AZ
131237000131237               131237               170213CP     1400+00000+CP0000003507+0000003507+000000000+000000491+0000003990+0000000008+I20000000000+0000003990+Z
131237001131237031-000856     131237006001023852113P/FRAME PL BROWN 10X15 0000001000+00003507+00000+0001T   00003507+0000001649          1400 M84510               1AZ
131238000131238               131238               170213CP     1400+00000+CP0000010564+0000010564+000000000+000001481+0000012040+0000000005+I20000000000+0000012040+Z
131238001131238903-000194     131238006009826020616SWT CHOC RP LOLLY 25G  0000002000+00001314+00000+0001T   00001314+0000001651          1400 M84150               1AZ
131238002131238903-000200     131238006009826020234SWT CHOC RP CHOCO 23G  0000002000+00000788+00000+0001T   00000788+0000001651          1400 M84150               1AZ
131238003131238018-000127     131238006001023380289MUG OCC STRAIGHT LOVE  0000002000+00001578+00000+0001T   00001753+0006471651          1400 M84515               1AZ
131238004131238077-000303     131238006001023593757GIFT-BAG PAPER MED     0000002000+00001578+00000+0001T   00001578+0000001651          1400 M84112               1AZ
131238005131238112-116069     131238006009681820277TCS CARRIER BAG JUMBO  0000001000+00000048+00000+0001T   00000048+0000001651          1400 M84090               1AZ
131239000131239               131239               170213CP     1400+00000+CP0000011872+0000011872+000000000+000001663+0000013530+0000000005+I20000000000+0000013530+Z
131239001131239018-005009     131239006001023725608MUG W/PLUSH-BEAR LOVE  0000001000+00003507+00000+0001T   00003507+0000001653          1400 M84515               1AZ
131239002131239041-093000     131239006003000320882B/GIFT SET 4PC B/RANGE 0000001000+00007016+00000+0001T   00007016+0000001653          1400 M84200               1AZ
131239003131239077-000310     131239006001023608635GIFT-BAG 18X23CM GLOSS 0000001000+00001314+00000+0001T   00001314+0000001653          1400 M84112               1AZ
131239004131239112-116038     131239006009681820246TCS CARRIER BAG MIDI   0000001000+00000035+00000+0001T   00000035+0000001653          1400 M84090               1AZ
131240000131240               131240               170213CP     1400+00000+CP0000000306+0000000306+000000000+000000043+0000000340+0000000009+I20000000000+0000000340+Z
131240001131240079-009700-L   131240006003000546350PAPER SIRIO A4 YELLOW  0000001000+00000306+00000+0001T   00000306+0000001653          1400 M84130               1AZ
131241000131241               131241               170213CP     1400+00000+CP0000001753+0000001753+000000000+000000246+0000001999+0000000000+I40000001999+0000000000+Z
131241001131241077-000299-A   131241006003000670888GIFT-BAG PAPER JMB LOVE0000001000+00001753+00000+0001T   00001753+0000001655          1400 M84112               1AZ
131242000131242               131242               170213CP     1400+00000+CP0000003678+0000003678+000000000+000000517+0000004190+0000000005+I20000000000+0000004190+Z
131242001131242903-000200     131242006009826020234SWT CHOC RP CHOCO 23G  0000003000+00000788+00000+0001T   00000788+0000001655          1400 M84150               1AZ
131242002131242903-000194     131242006009826020616SWT CHOC RP LOLLY 25G  0000001000+00001314+00000+0001T   00001314+0000001655          1400 M84150               1AZ
131243000131243               131243               170213CP     1400+00000+CP0000003154+0000003154+000000000+000000442+0000003590+0000000006+I20000000000+0000003590+Z
131243001131243033-005920-A   131243006001023678249SEWING-THREAD 100m WHT 0000001000+00000700+00000+0001T   00000700+0000001656          1400 M84200               1AZ
131243002131243033-005919     131243006003000154883SEWING THREAD 24cm ASST0000001000+00001490+00000+0001T   00001490+0000001656          1400 M84200               1AZ
131243003131243150-000774     131243006001023287427UTILITY-BOX MEDIUM     0000001000+00000964+00000+0001T   00000964+0000001656          1400 M84810               1AZ
131244000131244               131244               170213CP     1400+00000+CP0000003327+0000003327+000000000+000000468+0000003790+0000000005+I20000000000+0000003790+Z
131244001131244903-000503     131244006001704006118SWT VAMPIRE FANGS 60G  0000001000+00000876+00000+0001T   00000876+0000001658          1400 M84150               1AZ
131244002131244903-000087     131244006001704000161SWT SPECKLED-EGGS 50G  0000001000+00001139+00000+0001T   00001139+0000001658          1400 M84150               1AZ
131244003131244903-000216     131244006925925900966SWT MALLOW TWIST ERKO  0000002000+00000262+00000+0001T   00000262+0000001658          1400 M84150               1AZ
131244004131244903-000889     131244006009702259192SWT GUM BEECHIES S/MINT0000001000+00000788+00000+0001T   00000788+0000001658          1400 M84150               1AZ
131245000131245               131245               170213CP     1400+00000+CP0000001753+0000001753+000000000+000000246+0000001999+0000000000+I40000001999+0000000000+Z
131245001131245020-006200     131245006001023488510KNIVES PARING 2PCE H/H 0000001000+00001753+00000+0001T   00001753+0000001701          1400 M84300               1AZ
131246000131246               131246               170213CP     1400+00000+CP0000000962+0000000962+000000000+000000135+0000001090+0000000007+I20000000000+0000001090+Z
131246001131246903-000920     131246000041396002155SWT CANDY STICK/TATT   0000001000+00000700+00000+0001T   00000700+0000001702          1400 M84150               1AZ
131246002131246903-000216     131246006925925900966SWT MALLOW TWIST ERKO  0000001000+00000262+00000+0001T   00000262+0000001702          1400 M84150               1AZ
131247000131247               131247               170213CP     1400+00000+CP0000019342+0000019342+000000000+000002709+0000022051+0000000000+I40000022051+0000000000+Z
131247001131247077-000011-F   131247006001023808431TISSUE-WRAP BLUE/LILAC 0000002000+00000876+00000+0001T   00000876+0000001705          1400 M84112               1AZ
131247002131247365-064009     131247006003000242634PLAY-SET CARRY BOX&PET 0000001000+00017542+00000+0001T   00017542+0000001705          1400 M84725               1AZ
131247003131247112-116069     131247006009681820277TCS CARRIER BAG JUMBO  0000001000+00000048+00000+0001T   00000048+0000001705          1400 M84090               1AZ
131248000131248               131248               170213CP     1400+00000+CP0000010291+0000010291+000000000+000001443+0000011734+0000000000+I40000011734+0000000000+Z
131248001131248077-000299     131248006003000395576G/BAG 32x25cm LRG LOVE 0000001000+00001490+00000+0001T   00001490+0000001709          1400 M84112               1AZ
131248002131248031-080508     131248006001023802415P/FRAME PL 22X11CM LOVE0000001000+00004385+00000+0001T   00004385+0000001709          1400 M84510               1AZ
131248003131248018-005009     131248006001023725608MUG W/PLUSH-BEAR LOVE  0000001000+00003507+00000+0001T   00003507+0000001709          1400 M84515               1AZ
131248004131248112-116038     131248006009681820246TCS CARRIER BAG MIDI   0000001000+00000035+00000+0001T   00000035+0000001709          1400 M84090               1AZ
131248005131248080-000133-A   131248006003000647019MINI VALENTINES CARD   0000001000+00000437+00000+0001T   00000437+0000001709          1400 M84112               1AZ
131248006131248080-000133     131248006003000535613CARD&ENV MINI ASTD DSGN0000001000+00000437+00000+0001T   00000437+0000001709          1400 M84112               1AZ
131249000131249               131249               170213CP     1400+00000+CP0000006800+0000006800+000000000+000000953+0000007750+0000000003+I20000000000+0000007750+Z
131249001131249018-019000     131249006003000557288MUG OCC. LOVE JUMBO    0000001000+00005262+00000+0001T   00005262+0000001710          1400 M84515               1AZ
131249002131249077-000299     131249006003000395576G/BAG 32x25cm LRG LOVE 0000001000+00001490+00000+0001T   00001490+0000001710          1400 M84112               1AZ
131249003131249112-116069     131249006009681820277TCS CARRIER BAG JUMBO  0000001000+00000048+00000+0001T   00000048+0000001710          1400 M84090               1AZ
131250000131250               131250               170213CP     1400+00000+CP0000003980+0000003980+000000000+000000558+0000004538+0000000000+I40000004538+0000000000+Z
131250001131250566-000070     131250006003000283798STICKERS POP UP ASSTD  0000001000+00001753+00000+0001T   00001753+0000001712          1400 M84130               1AZ
131250002131250566-000667     131250006003000658039STICKER FOIL EMBOSSED  0000001000+00002192+00000+0001T   00002192+0000001712          1400 M84130               1AZ
131250003131250112-116038     131250006009681820246TCS CARRIER BAG MIDI   0000001000+00000035+00000+0001T   00000035+0000001712          1400 M84090               1AZ
131251000131251               131251               170213CP     1400+00000+CP0000010960+0000010960+000000000+000001535+0000012495+0000000000+I40000012495+0000000000+Z
131251001131251563-000318-L   131251006003000407088SERVIETTES 33cm RED    0000005000+00002192+00000+0001T   00002192+0000001716          1400 M84214               1AZ
131252000131252               131252               170213CP     1400+00000+CP0000004385+0000004385+000000000+000000614+0000004990+0000000009+I20000000000+0000004990+Z
131252002131252031-080508     131252006001023802415P/FRAME PL 22X11CM LOVE0000001000+00004385+00000+0001T   00004385+0000001721          1400 M84510               1AZ
131253000131253               131253               170213CP     1400+00000+CP0000005259+0000005259+000000000+000000738+0000005990+0000000007+I20000000000+0000005990+Z
131253001131253301-085006     131253006001023502940ORN LOVE MSG TUBE W/HRT0000003000+00001753+00000+0001T   00001753+0000001727          1400 M84505               1AZ
C13121300                                          170213CP071-000009     15560072SLAVE 1     M842IC0000000000+0000000000+0010000001000+
C13125200                                          170213CP903-000183     17213575SLAVE 1     M841IC0000000000+0000000000+0010000001000+
M17021391                              CASH        CPSLAVE 1                       Z-REPORT No.   669TOTAL (Sales - Refunds)           6046.73       CASH TO BE BANKED                 3674.50       DEBIT CARDS                          0.00       CREDIT CARDS                      2372.23       Z-READING                         6046.73       AIRTIME DEBIT CARD SALES             0.00       AIRTIME CARD SALES                   0.00       OVERS/UNDERS                         0.00       AIRTIME CASH SALES                   0.00       GIFT CARDS                           0.00       GIFT CARD CASH SALES                 0.00       T O T A L  CASH PAYOUTS              0.00                                                                                                                                                                                                                                                                                                                                                      Z
M17021392                              CASH        CPABSENT                                                                                                                                                                                          ANNUAL LEAVE                                                                                                                                                                                    DAY OFF                                                                                                                                                                                         COMMENTS                                                                                                                                                                                                                                                                                                                                                                                       Z
Y17021300                                          CP00000000530836+000111
ZCP17021319263 SLAVE 1      SALES DATA                     NEXT INVOICE NO.  131254 0669
F093741496-028120         1701171610510000061ICSLAVE 1
F093741496-056475         1701171610510000031ICSLAVE 1
F093741496-057190         1701171610510000031ICSLAVE 1
F093741496-058484         1701171610510000201ICSLAVE 1
F093988496-028142         1701171608390000021ICSLAVE 1
F093990496-028142         1701171608480000021ICSLAVE 1
F093996496-028142         1701171608550000021ICSLAVE 1
F094043496-028120         1701171609120000021ICSLAVE 1
F094094496-028122         1701171609360000041ICSLAVE 1
F094864304-001011         1702110858020000181ICSLAVE 1
X CP Slave 1 First invoice 131143 170213 Last invoice 131253 170213 Next invoice 131254 Total number of records 000000352 clbackup completed 19:26:28
