149267000149267               149267               170213CP     1400+00000+CP0000001578+0000001578+000000000+000000221+0000001790+0000000009+I20000000000+0000001790+Z
149267001149267028-000799     149267006001023812186SKEWERS BAMBOO 100PCE  0000001000+00001578+00000+0001T   00001578+0000001032          1400 UY7305               2AZ
149268000149268               149268               170213CP     1400+00000+CP0000008288+0000008288+000000000+000001163+0000009451+0000000000+I40000009451+0000000000+Z
149268001149268077-000270     149268006003000395453GIFT-BAG PPR JMB 33X45 0000001000+00002630+00000+0001T   00002630+0000001035          1400 UY7112               2AZ
149268002149268206-000220     149268006003000631704EGG TIMER COLOUR-CHANGE0000001000+00002630+00000+0001T   00002630+0000001035          1400 UY7321               2AZ
149268003149268206-000590     149268006003000633708BAG CLIPS LIPS 2PC     0000001000+00001753+00000+0001T   00001753+0000001035          1400 UY7321               2AZ
149268004149268206-000630     149268006003000631919SPECTACLE CLEANING BRUS0000001000+00001227+00000+0001T   00001227+0000001035          1400 UY7321               2AZ
149268005149268112-116069     149268006009681820277TCS CARRIER BAG JUMBO  0000001000+00000048+00000+0001T   00000048+0000001035          1400 UY7090               2AZ
149269000149269               149269               170213CP     1400+00000+CP0000014079+0000014079+000000000+000001973+0000016050+0000000002+I20000000000+0000016050+Z
149269001149269466-000605     149269003427000901125BALL SOC 2-PLY PANEL   0000001000+00007893+00000+0001T   00007893+0000001040          1400 UY7785               2AZ
149269002149269112-116069     149269006009681820277TCS CARRIER BAG JUMBO  0000001000+00000048+00000+0001T   00000048+0000001040          1400 UY7090               2AZ
149269003149269562-002011     149269006003000228669EDU THINK BODY PARTS   0000001000+00004385+00000+0001T   00004385+0000001040          1400 UY7755               2AZ
149269004149269024-000083     149269006001023770943SIEVE FLOUR 20cm MTL-RI0000001000+00001753+00000+0001T   00001753+0000001040          1400 UY7300               2AZ
149270000149270               149270               170213CP     1400+00000+CP0000001227+0000001227+000000000+000000172+0000001390+0000000009+I20000000000+0000001390+Z
149270001149270007-000160     149270006009685857286NOTE-BOOK A5 SHORTHAND 0000001000+00001227+00000+0001T   00001227+0000001140          1400 UY7130               2AZ
149271000149271               149271               170213CP     1400+00000+CP0000005221+0000005221+000000000+000000732+0000005950+0000000003+I20000000000+0000005950+Z
149271001149271112-116069     149271006009681820277TCS CARRIER BAG JUMBO  0000001000+00000048+00000+0001T   00000048+0000001151          1400 UY7090               2AZ
149271002149271031-080508     149271006001023802415P/FRAME PL 22X11CM LOVE0000001000+00004385+00000+0001T   00004385+0000001151          1400 UY7510               2AZ
149271003149271077-000010-C   149271006001023123879CREPE-PAPER RED        0000001000+00000788+00000+0001T   00000788+0000001151          1400 UY7112               2AZ
149272000149272               149272               170213CP     1400+00000+CP0000001753+0000001753+000000000+000000246+0000001990+0000000009+I20000000000+0000001990+Z
149272001149272080-008102     149272006003000080724CARD&ENV MINI 6PK FOIL 0000001000+00001753+00000+0001T   00001753+0000001151          1400 UY7112               2AZ
149273000149273               149273               170213CP     1400+00000+CP0000009694+0000009694+000000000+000001358+0000011052+0000000000+I40000011052+0000000000+Z
149273001149273301-085004     149273006003000420469ORN LOVE PLAQUE 21X10CM0000001000+00003507+00000+0001T   00003946+0006471153          1400 UY7505               2AZ
149273002149273018-050000     149273006003000412679MUG OCC LOVE TWIN BEAR 0000001000+00006139+00000+0001T   00006139+0000001153          1400 UY7515               2AZ
149273003149273112-116069     149273006009681820277TCS CARRIER BAG JUMBO  0000001000+00000048+00000+0001T   00000048+0000001153          1400 UY7090               2AZ
149274000149274               149274               170213CP     1400+00000+CP0000000876+0000000876+000000000+000000123+0000000990+0000000009+I20000000000+0000000990+Z
149274001149274078-000025     149274008887013700064SUPERGLUE 3g 1PCE CARD 0000001000+00000876+00000+0001T   00000876+0000001153          1400 UY7810               2AZ
149275000149275               149275               170213CP     1400+00000+CP0000009067+0000009067+000000000+000001271+0000010330+0000000008+I20000000000+0000010330+Z
149275001149275567-011451     149275009780745962726BK RELIGIOUS LHA BIBLE 0000001000+00007016+00000+0001T   00007016+0000001154          1400 UY7757               2AZ
149275002149275112-116038     149275006009681820246TCS CARRIER BAG MIDI   0000001000+00000035+00000+0001T   00000035+0000001154          1400 UY7090               2AZ
149275003149275903-000907     149275006009802868324SWEET LASER BARBIE     0000001000+00002016+00000+0001T   00002016+0000001154          1400 UY7150               2AZ
149276000149276               149276               170213CP     1400+00000+CP0000008100+0000008100+000000000+000001135+0000009235+0000000000+I40000009235+0000000000+Z
149276001149276112-116038     149276006009681820246TCS CARRIER BAG MIDI   0000001000+00000035+00000+0001T   00000035+0000001203          1400 UY7090               2AZ
149276002149276079-013102     149276006003000019601ART+CRAFT DIY PIPE-CLNR0000001000+00002192+00000+0001T   00002192+0000001203          1400 UY7130               2AZ
149276003149276306-000026     149276006003000207626COTTON WOOL ROLL 100G  0000001000+00002192+00000+0001T   00002192+0000001203          1400 UY7200               2AZ
149276004149276200-000065     149276006001023323675DRINKING-STRAWS 38PCE  0000001000+00000613+00000+0001T   00000613+0000001203          1400 UY7214               2AZ
149276005149276071-000672     149276006003000138975STATIONERY CLIPS PAPER 0000001000+00002192+00000+0001T   00002192+0000001203          1400 UY7130               2AZ
149276006149276033-005921-B   149276006001023678348SEWING-THREAD 200m BLK 0000001000+00000876+00000+0001T   00000876+0000001203          1400 UY7200               2AZ
149277000149277               149277               170213CP     1400+00000+CP0000003507+0000003507+000000000+000000491+0000003998+0000000000+I40000003998+0000000000+Z
149277001149277039-080942     149277006001023669872C/PILLAR RND WHT 10X7CM0000001000+00003507+00000+0001T   00003507+0000001204          1400 UY7510               2AZ
149278000149278               149278               170213CP     1400+00000+CP0000006187+0000006187+000000000+000000867+0000007050+0000000004+I20000000000+0000007050+Z
149278001149278018-050000     149278006003000412679MUG OCC LOVE TWIN BEAR 0000001000+00006139+00000+0001T   00006139+0000001206          1400 UY7515               2AZ
149278002149278112-116069     149278006009681820277TCS CARRIER BAG JUMBO  0000001000+00000048+00000+0001T   00000048+0000001206          1400 UY7090               2AZ
149279000149279               149279               170213CP     1400+00000+CP0000006139+0000006139+000000000+000000860+0000006990+0000000009+I20000000000+0000006990+Z
149279001149279018-050000     149279006003000412679MUG OCC LOVE TWIN BEAR 0000001000+00006139+00000+0001T   00006139+0000001206          1400 UY7515               2AZ
149280000149280               149280               170213CP     1400+00000+CP0000005259+0000005259+000000000+000000738+0000005990+0000000007+I20000000000+0000005990+Z
149280001149280142-000810     149280006003000429721GLOVES LATEX PRNT CUFFS0000001000+00001753+00000+0001T   00001753+0000001210          1400 UY7810               2AZ
149280002149280036-000063     149280006009654960436COATHANGERS VIRGIN 5PCE0000001000+00001753+00000+0001T   00001753+0000001210          1400 UY7212               2AZ
149280003149280027-000022     149280006003000666072SCRUBBING BRUSH 17cm   0000001000+00001753+00000+0001T   00001753+0000001210          1400 UY7212               2AZ
149281000149281               149281               170213CP     1400+00000+CP0000000788+0000000788+000000000+000000111+0000000890+0000000009+I20000000000+0000000890+Z
149281001149281033-005991     149281006001023678546NEEDLES H/HOLD-REPAIR  0000001000+00000788+00000+0001T   00000788+0000001214          1400 KI3200               2BZ
149282000149282               149282               170213CP     1400+00000+CP0000006751+0000006751+000000000+000000946+0000007697+0000000000+I40000007697+0000000000+Z
149282001149282903-000699     149282006002099007018SWT CANDY FRUIT CHEWS  0000001000+00001139+00000+0001T   00001139+0000001247          1400 KI3150               2BZ
149282002149282077-000318     149282006001023609755GIFT-BAG 18X23CM E/D AN0000001000+00001227+00000+0001T   00001227+0000001247          1400 KI3112               2BZ
149282003149282007-000892-17  149282006003000645756DIARY 2017 H/COVER     0000001000+00004385+00000+0001T   00004385+0000001247          1400 KI3130               2BZ
149283000149283               149283               170213CP     1400+00000+CP0000000876+0000000876+000000000+000000123+0000000990+0000000009+I20000000000+0000000990+Z
149283001149283903-000482     149283006001704001397SWT SOFT-MINTS 60G     0000001000+00000876+00000+0001T   00000876+0000001247          1400 KI3150               2BZ
149284000149284               149284               170213CP     1400+00000+CP0000002015+0000002015+000000000+000000283+0000002290+0000000008+I20000000000+0000002290+Z
149284001149284903-000087     149284006001704000161SWT SPECKLED-EGGS 50G  0000001000+00001139+00000+0001T   00001139+0000001325          1400 KI3150               2BZ
149284002149284903-000482     149284006001704001397SWT SOFT-MINTS 60G     0000001000+00000876+00000+0001T   00000876+0000001325          1400 KI3150               2BZ
149285000149285               149285               170213CP     1400+00000+CP0000001927+0000001927+000000000+000000271+0000002190+0000000008+I20000000000+0000002190+Z
149285001149285077-000305     149285006003000395422GIFT-BAG WINE 10X35CM  0000001000+00001490+00000+0001T   00001490+0000001327          1400 KI3112               2BZ
149285002149285080-000133-A   149285006003000647019MINI VALENTINES CARD   0000001000+00000437+00000+0001T   00000437+0000001327          1400 KI3112               2BZ
149286000149286               149286               170213CP     1400+00000+CP0000002102+0000002102+000000000+000000296+0000002398+0000000000+I40000002398+0000000000+Z
149286001149286039-000021     149286006003000285907C/TAPERED 25CM M/SILVER0000002000+00001051+00000+0001T   00001051+0000001330          1400 KI3510               2BZ
149287000149287               149287               170213CP     1400+00000+CP0000008767+0000008767+000000000+000001229+0000009996+0000000000+I40000009996+0000000000+Z
149287001149287003-008018     149287006003000252336ORN SIGN FLOWER GARDEN 0000001000+00003069+00000+0001T   00003069+0000001332          1400 KI3505               2BZ
149287002149287206-000100     149287006003000628063TONGS ICE COLD FINGERS 0000001000+00002192+00000+0001T   00002192+0000001332          1400 KI3321               2BZ
149287003149287206-000590     149287006003000633708BAG CLIPS LIPS 2PC     0000001000+00001753+00000+0001T   00001753+0000001332          1400 KI3321               2BZ
149287004149287019-071598     149287006001023693228PEBBLES GLS 250g WHITE 0000001000+00001753+00000+0001T   00001753+0000001332          1400 KI3510               2BZ
149288000149288               149288               170213CP     1400+00000+CP0000003507+0000003507+000000000+000000491+0000003990+0000000008+I20000000000+0000003990+Z
149288001149288024-000301     149288006001023820174SHAKER S/S FLOUR/SALT  0000001000+00003507+00000+0001T   00003507+0000001358          1400 UY7300               2AZ
149289000149289               149289               170213CP     1400+00000+CP0000003331+0000003331+000000000+000000467+0000003790+0000000008+I20000000000+0000003790+Z
149289001149289077-000239     149289006003000160419GIFT-RIBBON ROLL PEARL 0000001000+00001753+00000+0001T   00001753+0000001412          1400 UY7112               2AZ
149289002149289077-000348     149289006001023483287GIFT-BOWS 4,5cm 8PCE   0000001000+00001578+00000+0001T   00001578+0000001412          1400 UY7112               2AZ
149290000149290               149290               170213CP     1400+00000+CP0000006974+0000006974+000000000+000000978+0000007952+0000000000+I40000007952+0000000000+Z
149290001149290024-000003     149290006001023462206S/BURNER COVERS ASSTD  0000001000+00004385+00000+0001T   00004385+0000001416          1400 UY7300               2AZ
149290002149290903-000138     149290006002099004314SWT GS WINE GUMS 60G   0000001000+00000788+00000+0001T   00000788+0000001416          1400 UY7150               2AZ
149290003149290150-049046     149290006001023189196FORCE-CUP 100x225mm    0000001000+00001753+00000+0001T   00001753+0000001416          1400 UY7810               2AZ
149290004149290112-116069     149290006009681820277TCS CARRIER BAG JUMBO  0000001000+00000048+00000+0001T   00000048+0000001416          1400 UY7090               2AZ
149291000149291               149291               170213CP     1400+00000+CP0000167186+0000167186+000000000+000023430+0000190616+0000000000+I40000190616+0000000000+Z
149291001149291031-000868-A   149291006001023798534P/FRAME PL BLCK 10X15CM0000065000+00002192+00000+0001T   00002192+0000001421          1400 UY7510               2AZ
149291002149291079-006497     149291006003000160228GLITTER SET 6PCE+GLUE  0000003000+00002630+00000+0001T   00002630+0000001421          1400 UY7130               2AZ
149291003149291079-009702-D   149291008427973059354PAPER SIRIO A2 RED COL 0000008000+00001051+00000+0001T   00001051+0000001421          1400 UY7130               2AZ
149291004149291079-009702-B   149291006003000546510PAPER SIRIO A2 WHITE   0000008000+00001051+00000+0001T   00001051+0000001421          1400 UY7130               2AZ
149292000149292               149292               170213CP     1400+00000+CP0000001753+0000001753+000000000+000000246+0000001990+0000000009+I20000000000+0000001990+Z
149292001149292077-000309     149292006001023608604GIFT-BAG 25X32CM GLOSS 0000001000+00001753+00000+0001T   00001753+0000001426          1400 UY7112               2AZ
149293000149293               149293               170213CP     1400+00000+CP0000002630+0000002630+000000000+000000369+0000002990+0000000009+I20000000000+0000002990+Z
149293001149293562-000010     149293006001023762528KID'S PLAY DOUGH       0000001000+00002630+00000+0001T   00002630+0000001430          1400 UY7755               2AZ
149294000149294               149294               170213CP     1400+00000+CP0000004294+0000004294+000000000+000000603+0000004890+0000000007+I20000000000+0000004890+Z
149294001149294077-000005-B   149294006003000326617PAPER TISSUE PATTERN   0000001000+00002630+00000+0001T   00002630+0000001433          1400 UY7112               2AZ
149294002149294077-000010-C   149294006001023123879CREPE-PAPER RED        0000001000+00000788+00000+0001T   00000788+0000001433          1400 UY7112               2AZ
149294003149294077-000011-D   149294006001023808554TISSUE-WRAP WHITE 10PCE0000001000+00000876+00000+0001T   00000876+0000001433          1400 UY7112               2AZ
149295000149295               149295               170213CP     1400+00000+CP0000001753+0000001753+000000000+000000246+0000001990+0000000009+I20000000000+0000001990+Z
149295001149295078-000030     149295006003000151141YAMAYO SUPERGLUE 8g    0000001000+00001753+00000+0001T   00001753+0000001435          1400 UY7810               2AZ
149296000149296               149296               170213CP     1400+00000+CP0000008819+0000008819+000000000+000001235+0000010050+0000000004+I20000000000+0000010050+Z
149296001149296031-001011     149296006003000579099P/FRAME COLLAGE WAVE   0000001000+00008771+00000+0001T   00008771+0000001439          1400 UY7510               2AZ
149296002149296112-116069     149296006009681820277TCS CARRIER BAG JUMBO  0000001000+00000048+00000+0001T   00000048+0000001439          1400 UY7090               2AZ
149297000149297               149297               170213CP     1400+00000+CP0000001314+0000001314+000000000+000000184+0000001498+0000000000+I40000001498+0000000000+Z
149297001149297903-000194     149297006009826020616SWT CHOC RP LOLLY 25G  0000001000+00001314+00000+0001T   00001314+0000001442          1400 UY7150               2AZ
149298000149298               149298               170213CP     1400+00000+CP0000006875+0000006875+000000000+000000963+0000007830+0000000008+I20000000000+0000007830+Z
149298001149298018-000127     149298006001023380289MUG OCC STRAIGHT LOVE  0000001000+00001578+00000+0001T   00001753+0006471443          1400 UY7515               2AZ
149298002149298007-000614     149298006001023768667DIARY W/LOCK+PEN LOVE  0000001000+00005262+00000+0001T   00005262+0000001443          1400 UY7130               2AZ
149298003149298112-116038     149298006009681820246TCS CARRIER BAG MIDI   0000001000+00000035+00000+0001T   00000035+0000001443          1400 UY7090               2AZ
149299000149299               149299               170213CP     1400+00000+CP0000003507+0000003507+000000000+000000491+0000003990+0000000008+I20000000000+0000003990+Z
149299001149299018-005009     149299006001023725608MUG W/PLUSH-BEAR LOVE  0000001000+00003507+00000+0001T   00003507+0000001447          1400 UY7515               2AZ
149300000149300               149300               170213CP     1400+00000+CP0000001788+0000001788+000000000+000000251+0000002030+0000000009+I20000000000+0000002030+Z
149300001149300079-006500     149300006001023557186GLUE GLITTER 6/10 PCE  0000001000+00001753+00000+0001T   00001753+0000001449          1400 UY7130               2AZ
149300002149300112-116038     149300006009681820246TCS CARRIER BAG MIDI   0000001000+00000035+00000+0001T   00000035+0000001449          1400 UY7090               2AZ
149301000149301               149301               170213CP     1400+00000+CP0000004243+0000004243+000000000+000000595+0000004830+0000000008+I20000000000+0000004830+Z
149301001149301018-000127     149301006001023380289MUG OCC STRAIGHT LOVE  0000001000+00001578+00000+0001T   00001753+0006471459          1400 UY7515               2AZ
149301002149301018-000129     149301006001023403353MUG OCC. LOVE V-SHAPE  0000001000+00002630+00000+0001T   00002630+0000001459          1400 UY7515               2AZ
149301003149301112-116038     149301006009681820246TCS CARRIER BAG MIDI   0000001000+00000035+00000+0001T   00000035+0000001459          1400 UY7090               2AZ
149302000149302               149302               170213CP     1400+00000+CP0000001753+0000001753+000000000+000000246+0000001990+0000000009+I20000000000+0000001990+Z
149302001149302077-000301     149302008010410010188BAG LRG 25X32CM B/DAY  0000001000+00001753+00000+0001T   00001753+0000001459          1400 UY7112               2AZ
149303000149303               149303               170213CP     1400+00000+CP0000007015+0000007015+000000000+000000983+0000007998+0000000000+I40000007998+0000000000+Z
149303001149303031-086103     149303006001023900746P/FRAME GLS FILM 2HOLE 0000001000+00005262+00000+0001T   00005262+0000001554          1400 UY7510               2AZ
149303002149303077-000299-A   149303006003000670888GIFT-BAG PAPER JMB LOVE0000001000+00001753+00000+0001T   00001753+0000001554          1400 UY7112               2AZ
149304000149304               149304               170213CP     1400+00000+CP0000006138+0000006138+000000000+000000860+0000006998+0000000000+I40000006998+0000000000+Z
149304001149304039-080959     149304006003000048922CANDLE PILLAR BALL 8CM 0000002000+00003069+00000+0001T   00003069+0000001555          1400 UY7510               2AZ
149305000149305               149305               170213CP     1400+00000+CP0000001314+0000001314+000000000+000000184+0000001490+0000000008+I20000000000+0000001490+Z
149305001149305903-000674     149305006009803358220SWT SHERBET W/LOLLY 4PK0000001000+00001314+00000+0001T   00001314+0000001555          1400 UY7150               2AZ
149306000149306               149306               170213CP     1400+00000+CP0000000437+0000000437+000000000+000000062+0000000490+0000000009+I20000000000+0000000490+Z
149306001149306080-000133-A   149306006003000647019MINI VALENTINES CARD   0000001000+00000437+00000+0001T   00000437+0000001556          1400 UY7112               2AZ
149307000149307               149307               170213CP     1400+00000+CP0000004385+0000004385+000000000+000000614+0000004999+0000000000+I40000004999+0000000000+Z
149307001149307031-080508     149307006001023802415P/FRAME PL 22X11CM LOVE0000001000+00004385+00000+0001T   00004385+0000001557          1400 UY7510               2AZ
149308000149308               149308               170213CP     1400+00000+CP0000003804+0000003804+000000000+000000534+0000004338+0000000000+I40000004338+0000000000+Z
149308001149308200-003026     149308006003000276448REFUSE BAGS 10PCE GREEN0000001000+00001753+00000+0001T   00001753+0000001559          1400 UY7214               2AZ
149308002149308251-000060     149308006001023628039PROTECT-PADS ADH 13PCE 0000001000+00002016+00000+0001T   00002016+0000001559          1400 UY7810               2AZ
149308003149308112-116038     149308006009681820246TCS CARRIER BAG MIDI   0000001000+00000035+00000+0001T   00000035+0000001559          1400 UY7090               2AZ
149309000149309               149309               170213CP     1400+00000+CP0000001405+0000001405+000000000+000000198+0000001600+0000000003+I20000000000+0000001600+Z
149309001149309079-009702-D   149309008427973059354PAPER SIRIO A2 RED COL 0000001000+00001051+00000+0001T   00001051+0000001601          1400 UY7130               2AZ
149309002149309079-009700-B   149309006003000547661PAPER SIRIO A4 WHITE   0000001000+00000306+00000+0001T   00000306+0000001601          1400 UY7130               2AZ
149309003149309112-116069     149309006009681820277TCS CARRIER BAG JUMBO  0000001000+00000048+00000+0001T   00000048+0000001601          1400 UY7090               2AZ
149310000149310               149310               170213CP     1400+00000+CP0000001490+0000001490+000000000+000000209+0000001699+0000000000+I40000001699+0000000000+Z
149310001149310079-006494     149310006003000159864GLITTER GLUE 5PCE 11cm 0000001000+00001490+00000+0001T   00001490+0000001643          1400 UY7130               2AZ
149311000149311               149311               170213CP     1400+00000+CP0000002665+0000002665+000000000+000000374+0000003030+0000000009+I20000000000+0000003030+Z
149311001149311112-116038     149311006009681820246TCS CARRIER BAG MIDI   0000001000+00000035+00000+0001T   00000035+0000001644          1400 UY7090               2AZ
149311002149311159-000684     149311006001023776532BATH BODY-GLOVE 18cm   0000001000+00002630+00000+0001T   00002630+0000001644          1400 UY7200               2AZ
149312000149312               149312               170213CP     1400+00000+CP0000002629+0000002629+000000000+000000369+0000002990+0000000008+I20000000000+0000002990+Z
149312001149312078-000025     149312008887013700064SUPERGLUE 3g 1PCE CARD 0000001000+00000876+00000+0001T   00000876+0000001702          1400 UY7810               2AZ
149312002149312079-006496     149312006003000160105GLITTER SHAKERS        0000001000+00001753+00000+0001T   00001753+0000001702          1400 UY7130               2AZ
149313000149313               149313               170213CP     1400+00000+CP0000002312+0000002312+000000000+000000325+0000002630+0000000007+I20000000000+0000002630+Z
149313001149313903-000216     149313006925925900966SWT MALLOW TWIST ERKO  0000002000+00000262+00000+0001T   00000262+0000001703          1400 UY7150               2AZ
149313002149313088-000084     149313006001023798060P/POURRI 120G ASSTD    0000001000+00001753+00000+0001T   00001753+0000001703          1400 UY7212               2AZ
149313003149313112-116038     149313006009681820246TCS CARRIER BAG MIDI   0000001000+00000035+00000+0001T   00000035+0000001703          1400 UY7090               2AZ
149314000149314               149314               170213CP     1400+00000+CP0000010606+0000010606+000000000+000001487+0000012093+0000000000+I40000012093+0000000000+Z
149314001149314024-000214     149314006001023587855COOKIE-CUTTERS PL 6PC  0000001000+00001753+00000+0001T   00001753+0000001705          1400 UY7300               2AZ
149314002149314024-091103     149314006003453014307BAKING-CUP MUFFIN 50PCE0000001000+00002192+00000+0001T   00002192+0000001705          1400 UY7300               2AZ
149314003149314016-006509     149314006003000567355S/JAR GLS MINI LABEL   0000001000+00001753+00000+0001T   00002192+0008191705          1400 UY7300               2AZ
149314004149314903-000499     149314006001704012492SWT CHOC MALLOWS 50g   0000002000+00001227+00000+0001T   00001227+0000001705          1400 UY7150               2AZ
149314005149314903-000504     149314006001704012416SWT CHOC JELLY BEANS   0000001000+00001227+00000+0001T   00001227+0000001705          1400 UY7150               2AZ
149314006149314903-000499     149314006001704012492SWT CHOC MALLOWS 50g   0000001000+00001227+00000+0001T   00001227+0000001705          1400 UY7150               2AZ
149315000149315               149315               170213CP     1400+00000+CP0000006401+0000006401+000000000+000000897+0000007298+0000000000+I40000007298+0000000000+Z
149315001149315903-000709     149315006002099007070SWT QUENCHERS FRUIT    0000001000+00001139+00000+0001T   00001139+0000001706          1400 UY7150               2AZ
149315002149315301-086006     149315006003000498918ORN OCCASION LOVE 4ASTD0000001000+00005262+00000+0001T   00005262+0000001706          1400 UY7505               2AZ
149316000149316               149316               170213CP     1400+00000+CP0000000874+0000000874+000000000+000000124+0000000990+0000000008+I20000000000+0000000990+Z
149316001149316080-000133-A   149316006003000647019MINI VALENTINES CARD   0000002000+00000437+00000+0001T   00000437+0000001724          1400 KI3112               2BZ
149317000149317               149317               170213CP     1400+00000+CP0000002628+0000002628+000000000+000000369+0000002990+0000000007+I20000000000+0000002990+Z
149317001149317077-000314     149317006003000181148GIFT-BAG 11X14CM MATT  0000003000+00000876+00000+0001T   00000876+0000001724          1400 KI3112               2AZ
149318000149318               149318               170213CP     1400+00000+CP0000011402+0000011402+000000000+000001597+0000012990+0000000009+I20000000000+0000012990+Z
149318001149318586-010752     149318006001492107523WATCH MENS HOT DEAL AST0000001000+00011402+00000+0001T   00011402+0000001729          1400 KI3160               2BZ
149319000149319               149319               170213CP     1400+00000+CP0000002454+0000002454+000000000+000000344+0000002790+0000000008+I20000000000+0000002790+Z
149319001149319251-000041     149319006001023515889SEAL-TAPE BUFF 48mmx50m0000002000+00001227+00000+0001T   00001227+0000001730          1400 KI3810               2BZ
149320000149320               149320               170213CP     1400+00000+CP0000001227+0000001227+000000000+000000172+0000001390+0000000009+I20000000000+0000001390+Z
149320001149320903-000499     149320006001704012492SWT CHOC MALLOWS 50g   0000001000+00001227+00000+0001T   00001227+0000001731          1400 KI3150               2BZ
149321000149321               149321               170213CP     1400+00000+CP0000014197+0000014197+000000000+000001994+0000016190+0000000001+I20000000000+0000016190+Z
149321001149321466-000591     149321006001023751577CONES FLAT 1PC 18cm    0000008000+00000788+00000+0001T   00000788+0000001732          1400 KI3785               2BZ
149321002149321466-000605     149321003427000901125BALL SOC 2-PLY PANEL   0000001000+00007893+00000+0001T   00007893+0000001732          1400 KI3785               2BZ
149322000149322               149322               170213CP     1400+00000+CP0000009383+0000009383+000000000+000001315+0000010690+0000000008+I20000000000+0000010690+Z
149322001149322077-000299     149322006003000395576G/BAG 32x25cm LRG LOVE 0000001000+00001490+00000+0001T   00001490+0000001733          1400 KI3112               2AZ
149322002149322301-085007     149322006003000673698ORN OCC. LOVE S/PLAQUE 0000001000+00007893+00000+0001T   00007893+0000001733          1400 KI3505               2AZ
149323000149323               149323               170213CP     1400+00000+CP0000001788+0000001788+000000000+000000251+0000002030+0000000009+I20000000000+0000002030+Z
149323001149323112-116038     149323006009681820246TCS CARRIER BAG MIDI   0000001000+00000035+00000+0001T   00000035+0000001734          1400 KI3090               2BZ
149323002149323077-000299-A   149323006003000670888GIFT-BAG PAPER JMB LOVE0000001000+00001753+00000+0001T   00001753+0000001734          1400 KI3112               2BZ
149324000149324               149324               170213CP     1400+00000+CP0000001490+0000001490+000000000+000000209+0000001699+0000000000+I40000001699+0000000000+Z
149324001149324028-000796     149324006001023812094SKEWERS 25cm 50PCE 4mm 0000001000+00001490+00000+0001T   00001490+0000001737          1400 KI3305               2BZ
149325000149325               149325               170213CP     1400+00000+CP0000001578+0000001578+000000000+000000221+0000001790+0000000009+I20000000000+0000001790+Z
149325001149325077-000303     149325006001023593757GIFT-BAG PAPER MED     0000001000+00001578+00000+0001T   00001578+0000001741          1400 UY7112               2AZ
149326000149326               149326               170213CP     1400+00000+CP0000002366+0000002366+000000000+000000332+0000002690+0000000008+I20000000000+0000002690+Z
149326001149326077-000452     149326006003000284986G/BAG METALLIC MED EMB 0000001000+00001490+00000+0001T   00001490+0000001741          1400 UY7112               2AZ
149326002149326077-000011-C   149326006001023808523TISSUE 10xSHTS RED     0000001000+00000876+00000+0001T   00000876+0000001741          1400 UY7112               2AZ
149327000149327               149327               170213CP     1400+00000+CP0000005113+0000005113+000000000+000000719+0000005830+0000000002+I20000000000+0000005830+Z
149327001149327903-000194     149327006009826020616SWT CHOC RP LOLLY 25G  0000002000+00001314+00000+0001T   00001314+0000001745          1400 UY7150               2AZ
149327002149327903-000200     149327006009826020234SWT CHOC RP CHOCO 23G  0000002000+00000788+00000+0001T   00000788+0000001745          1400 UY7150               2AZ
149327003149327080-000133-A   149327006003000647019MINI VALENTINES CARD   0000001000+00000437+00000+0001T   00000437+0000001745          1400 UY7112               2AZ
149327004149327080-000133     149327006003000535613CARD&ENV MINI ASTD DSGN0000001000+00000437+00000+0001T   00000437+0000001745          1400 UY7112               2AZ
149327005149327112-116038     149327006009681820246TCS CARRIER BAG MIDI   0000001000+00000035+00000+0001T   00000035+0000001745          1400 UY7090               2AZ
149328000149328               149328               170213CP     1400+00000+CP0000003507-0000003507-000000000+000000491-0000004000-0000000002+I20000000000+0000004000-Z
149328001149328018-005009     149328006001023725608MUG W/PLUSH-BEAR LOVE  0000001000-00003507+00000+0001T   00003507+0000001747          1400 UY75151IC            2 Z
149329000149329               149329               170213CP     1400+00000+CP0000000788+0000000788+000000000+000000111+0000000890+0000000009+I20000000000+0000000890+Z
149329001149329033-005991     149329006001023678546NEEDLES H/HOLD-REPAIR  0000001000+00000788+00000+0001T   00000788+0000001747          1400 UY7200               2AZ
149330000149330               149330               170213CP     1400+00000+CP0000009135+0000009135+000000000+000001279+0000010410+0000000004+I20000000000+0000010410+Z
149330001149330018-000177     149330006001023797513MUG MINI LOVE ASSTD    0000013000+00000700+00000+0001T   00000700+0000001749          1400 UY7515               2AZ
149330002149330112-116038     149330006009681820246TCS CARRIER BAG MIDI   0000001000+00000035+00000+0001T   00000035+0000001749          1400 UY7090               2AZ
149331000149331               149331               170213CP     1400+00000+CP0000001051+0000001051+000000000+000000148+0000001190+0000000009+I20000000000+0000001190+Z
149331001149331079-009702-G   149331008427973060787PAPER SIRIO A2 FUSHIA  0000001000+00001051+00000+0001T   00001051+0000001750          1400 UY7130               2AZ
149332000149332               149332               170213CP     1400+00000+CP0000001312+0000001312+000000000+000000185+0000001490+0000000007+I20000000000+0000001490+Z
149332001149332903-000503     149332006001704006118SWT VAMPIRE FANGS 60G  0000001000+00000876+00000+0001T   00000876+0000001751          1400 UY7150               2AZ
149332002149332006-000171-E   149332006003000609406BALLOONS 1PC BLUE PRNT 0000001000+00000218+00000+0001T   00000218+0000001751          1400 UY7131               2AZ
149332003149332006-000173-C   149332006003000636518BALLOONS 1PC PINK      0000001000+00000218+00000+0001T   00000218+0000001751          1400 UY7131               2AZ
149333000149333               149333               170213CP     1400+00000+CP0000011384+0000011384+000000000+000001599+0000012983+0000000000+I40000012983+0000000000+Z
149333001149333077-000301     149333008010410010188BAG LRG 25X32CM B/DAY  0000001000+00001753+00000+0001T   00001753+0000001753          1400 UY7112               2AZ
149333002149333077-000011-D   149333006001023808554TISSUE-WRAP WHITE 10PCE0000001000+00000876+00000+0001T   00000876+0000001753          1400 UY7112               2AZ
149333003149333006-000109-A   149333006003000645435BALLOONS HELIUM 2PC    0000001000+00001753+00000+0001T   00001753+0000001753          1400 UY7131               2AZ
149333004149333006-000171-K   149333006003000609697BALLOONS 1PC PURPLE PRN0000004000+00000218+00000+0001T   00000218+0000001753          1400 UY7131               2AZ
149333005149333006-001000     149333006003000093779HELIUM BALLOON FILL    0000010000+00000613+00000+0001T   00000613+0000001753          1400 UY7131               2AZ
149334000149334               149334               170213CP     1400+00000+CP0000001490+0000001490+000000000+000000209+0000001690+0000000009+I20000000000+0000001690+Z
149334001149334565-004101     149334006003000548033BALL BOUNCING EGG      0000001000+00001490+00000+0001T   00001490+0000001753          1400 UY7745               2AZ
149335000149335               149335               170213CP     1400+00000+CP0000002192+0000002192+000000000+000000307+0000002490+0000000009+I20000000000+0000002490+Z
149335001149335080-000127     149335006003000424351VALENTINES DAY 36x24CM 0000001000+00002192+00000+0001T   00002192+0000001759          1400 UY7112               2BZ
149336000149336               149336               170213CP     1400+00000+CP0000001578+0000001578+000000000+000000221+0000001799+0000000000+I40000001799+0000000000+Z
149336001149336024-000034     149336006001023495235MEASURING-JUG 1-CUP    0000001000+00001578+00000+0001T   00001578+0000001802          1400 UY7300               2AZ
149337000149337               149337               170213CP     1400+00000+CP0000001801+0000001801+000000000+000000253+0000002050+0000000004+I20000000000+0000002050+Z
149337001149337077-000906     149337006003000410804G/WRAP 700mmx1m BIRTHDA0000001000+00001753+00000+0001T   00001753+0000001802          1400 UY7112               2AZ
149337002149337112-116069     149337006009681820277TCS CARRIER BAG JUMBO  0000001000+00000048+00000+0001T   00000048+0000001802          1400 UY7090               2AZ
149338000149338               149338               170213CP     1400+00000+CP0000005259+0000005259+000000000+000000737+0000005990+0000000006+I20000000000+0000005990+Z
149338001149338077-000452     149338006003000284986G/BAG METALLIC MED EMB 0000001000+00001490+00000+0001T   00001490+0000001804          1400 UY7112               2AZ
149338002149338030-000030-A   149338006003000249305PLAQUE GLASS LOVE      0000001000+00003069+00000+0001T   00003069+0000001804          1400 UY7505               2AZ
149338003149338018-000177     149338006001023797513MUG MINI LOVE ASSTD    0000001000+00000700+00000+0001T   00000700+0000001804          1400 UY7515               2AZ
149339000149339               149339               170213CP     1400+00000+CP0000002240+0000002240+000000000+000000314+0000002550+0000000004+I20000000000+0000002550+Z
149339001149339080-000127     149339006003000424351VALENTINES DAY 36x24CM 0000001000+00002192+00000+0001T   00002192+0000001805          1400 UY7112               2AZ
149339002149339112-116069     149339006009681820277TCS CARRIER BAG JUMBO  0000001000+00000048+00000+0001T   00000048+0000001805          1400 UY7090               2AZ
A17021300                                          09384831CPSLAVE 2                       UY72IC
C14928700                                          170213CP206-000590     13314998SLAVE 2     KI32IC0000000000+0000000000+0050000001000+
C14932700                                          170213CP031-001009     17444279SLAVE 2     UY71IC0000000000+0000000000+0030000001000+
C14932701                                          170213CP077-000299     17451033SLAVE 2     UY71IC0000000000+0000000000+0020000001000+
C14932702                                          170213CP112-116069     17451367SLAVE 2     UY71IC0000000000+0000000000+0010000001000+
M17021391                              CASH        CPSLAVE 2                       Z-REPORT No.   691TOTAL (Sales - Refunds)           5283.87       CASH TO BE BANKED                 2105.70       DEBIT CARDS                          0.00       CREDIT CARDS                      3157.97       Z-READING                         5283.87       AIRTIME DEBIT CARD SALES             0.00       AIRTIME CARD SALES                   0.00       OVERS/UNDERS                        20.20-      AIRTIME CASH SALES                   0.00       GIFT CARDS                           0.00       GIFT CARD CASH SALES                 0.00       T O T A L  CASH PAYOUTS              0.00                                                                                                                                                                                                                                                                                                                                                      Z
M17021392                              CASH        CPABSENT                                                                                                                                                                                          ANNUAL LEAVE                                                                                                                                                                                    DAY OFF                                                                                                                                                                                         COMMENTS                                                                                                                                                                                                                                                                                                                                                                                       Z
Y17021300                                          CP00000000467259+000072
ZCP17021319263 SLAVE 2      SALES DATA                     NEXT INVOICE NO.  149340 0691
F093741496-028120         1701171612170000061ICSLAVE 2
F093741496-056475         1701171612170000031ICSLAVE 2
F093741496-057190         1701171612170000031ICSLAVE 2
F093741496-058484         1701171612170000201ICSLAVE 2
F093988496-028142         1701171612310000021ICSLAVE 2
F093990496-028142         1701171613020000021ICSLAVE 2
F093996496-028142         1701171612370000021ICSLAVE 2
F094043496-028120         1701171613130000021ICSLAVE 2
F094094496-028122         1701171614400000041ICSLAVE 2
F094864304-001011         1702110858360000181ICSLAVE 2
X CP Slave 2 First invoice 149267 170213 Last invoice 149339 170213 Next invoice 149340 Total number of records 000000242 clbackup completed 19:26:30
