287315000287315               287315               170213CS     1400+00000+CS0000003945+0000003945+000000000+000000553+0000004490+0000000008+I20000000000+0000004490+Z
287315001287315088-000108     287315006001023765536POTPOURRI-OIL 10ml ASST0000001000+00001753+00000+0001T   00001753+0000000925          1400 JT9212               2AZ
287315002287315046-000012-A   287315006003000208296BATTERIES H/POWER SZ:AA0000001000+00002192+00000+0001T   00002192+0000000925          1400 JT9312               2AZ
287316000287316               287316               170213CS     1400+00000+CS0000002192+0000002192+000000000+000000307+0000002490+0000000009+I20000000000+0000002490+Z
287316001287316028-085274     287316006001023641571BBQ LIGHTER         H&L0000001000+00002192+00000+0001T   00002192+0000000926          1400 JT9305               2AZ
287317000287317               287317               170213CS     1400+00000+CS0000003541+0000003541+000000000+000000497+0000004038+0000000000+I40000004038+0000000000+Z
287317001287317027-785010     287317006003000628995CLEANING WIPES 40-PACK 0000001000+00002630+00000+0001T   00002630+0000000930          1400 JT9212               2AZ
287317002287317306-000021-D   287317006003000622108COTTON EARBUDS COSMETIC0000001000+00000876+00000+0001T   00001139+0008170930          1400 JT9200               2AZ
287317003287317112-116038     287317006009681820246TCS CARRIER BAG MIDI   0000001000+00000035+00000+0001T   00000035+0000000930          1400 JT9090               2AZ
287318000287318               287318               170213CS     1400+00000+CS0000005259+0000005259+000000000+000000738+0000005990+0000000007+I20000000000+0000005990+Z
287318001287318174-000010     287318006001023462381W/MACHINE-BAG 25x40cm  0000003000+00001753+00000+0001T   00001753+0000000931          1400 JT9205               2AZ
287319000287319               287319               170213CS     1400+00000+CS0000001753+0000001753+000000000+000000246+0000001990+0000000009+I20000000000+0000001990+Z
287319001287319174-000011     287319006001023523778W/MACHINE-BAG 50x40cm  0000001000+00001753+00000+0001T   00001753+0000000932          1400 JT9205               2AZ
287320000287320               287320               170213CS     1400+00000+CS0000001578+0000001578+000000000+000000221+0000001790+0000000009+I20000000000+0000001790+Z
287320001287320077-000303     287320006001023593757GIFT-BAG PAPER MED     0000001000+00001578+00000+0001T   00001578+0000001134          1400 JT9112               2AZ
287321000287321               287321               170213CS     1400+00000+CS0000014067+0000014067+000000000+000001970+0000016037+0000000000+I40000016037+0000000000+Z
287321001287321030-004080     287321006003000657780PLAQUE WOODEN SIGN     0000001000+00010525+00000+0001T   00010525+0000001135          1400 JT9505               2AZ
287321002287321112-116038     287321006009681820246TCS CARRIER BAG MIDI   0000001000+00000035+00000+0001T   00000035+0000001135          1400 JT9090               2AZ
287321003287321089-000018     287321006003000176724KEY CHAIN INSPIRATION  0000001000+00003507+00000+0001T   00003507+0000001135          1400 JT9205               2AZ
287322000287322               287322               170213CS     1400+00000+CS0000004822+0000004822+000000000+000000676+0000005498+0000000000+I40000005498+0000000000+Z
287322001287322001-000175     287322006001023788108B/MUG GLS LOVE 380ML   0000001000+00004385+00000+0001T   00004385+0000001137          1400 JT9515               2AZ
287322002287322080-000133-A   287322006003000647019MINI VALENTINES CARD   0000001000+00000437+00000+0001T   00000437+0000001137          1400 JT9112               2AZ
287323000287323               287323               170213CS     1400+00000+CS0000001795+0000001795+000000000+000000253+0000002040+0000000008+I20000000000+0000002040+Z
287323001287323903-000183     287323006003000451043SWT LB HEART LOLLY     0000001000+00000393+00000+0001T   00000393+0000001138          1400 JT9150               2AZ
287323002287323304-001204     287323006001023737984FLOWER OCC. TEDDY/ROSES0000001000+00001402+00000+0001T   00001490+0006471138          1400 JT9510               2AZ
287324000287324               287324               170213CS     1400+00000+CS0000000788+0000000788+000000000+000000111+0000000890+0000000009+I20000000000+0000000890+Z
287324001287324903-000200     287324006009826020234SWT CHOC RP CHOCO 23G  0000001000+00000788+00000+0001T   00000788+0000001139          1400 JT9150               2AZ
287325000287325               287325               170213CS     1400+00000+CS0000043271+0000043271+000000000+000006060+0000049331+0000000000+I40000049331+0000000000+Z
287325001287325466-049600     287325006003000612024BALLS FUN 100 PCS 8cm  0000001000+00021928+00000+0001T   00021928+0000001146          1400 JT9785               2AZ
287325002287325082-000110     287325006003000360482READING GLS STRENGHT:2 0000001000+00004385+00000+0001T   00004385+0000001146          1400 JT9160               2AZ
287325003287325567-000422     287325009780710515872BK EDU BATH EVA        0000001000+00004385+00000+0001T   00004385+0000001146          1400 JT9757               2AZ
287325004287325369-000042     287325006001023993854BABY BEAR RATTLE ASSTD 0000001000+00004385+00000+0001T   00004385+0000001146          1400 JT9745               2AZ
287325005287325369-001029     287325006001023795854BABY RATTLE/TEETHER ASS0000001000+00001578+00000+0001T   00001578+0000001146          1400 JT9745               2AZ
287325006287325034-001487     287325006003000622405COOEY BABY FOOD CONTAIN0000001000+00002192+00000+0001T   00002192+0000001146          1400 JT9215               2AZ
287325007287325204-000002     287325006001023841490MEMO HOLDER CRYSTAL RND0000001000+00001753+00000+0001T   00001753+0000001146          1400 JT9300               2AZ
287325008287325204-000059     287325006001023528162MEMO HOLDER APPS 18PC  0000001000+00002630+00000+0001T   00002630+0000001146          1400 JT9300               2AZ
287325009287325112-116038     287325006009681820246TCS CARRIER BAG MIDI   0000001000+00000035+00000+0001T   00000035+0000001146          1400 JT9090               2AZ
287326000287326               287326               170213CS     1400+00000+CS0000004385+0000004385+000000000+000000614+0000004990+0000000009+I20000000000+0000004990+Z
287326001287326368-000049     287326006003000536955PLUSH BEAR 15cm LOVE   0000001000+00004385+00000+0001T   00004385+0000001146          1400 JT9745               2AZ
287327000287327               287327               170213CS     1400+00000+CS0000000876+0000000876+000000000+000000123+0000000990+0000000009+I20000000000+0000000990+Z
287327001287327903-000841     287327009243178623706SWT CANDY TIPSEE FRUIT 0000001000+00000876+00000+0001T   00000876+0000001146          1400 JT9150               2AZ
287328000287328               287328               170213CS     1400+00000+CS0000001576+0000001576+000000000+000000222+0000001790+0000000008+I20000000000+0000001790+Z
287328001287328903-000200     287328006009826020234SWT CHOC RP CHOCO 23G  0000002000+00000788+00000+0001T   00000788+0000001148          1400 JT9150               2AZ
287329000287329               287329               170213CS     1400+00000+CS0000005699+0000005699+000000000+000000798+0000006490+0000000007+I20000000000+0000006490+Z
287329001287329018-000136     287329006001023659026MUG OCC LOVE W/PLUSH   0000001000+00003507+00000+0001T   00003507+0000001149          1400 JT9515               2AZ
287329002287329077-000309-A   287329006003000671007GIFT-BAG HOLOGRAM JMB  0000001000+00002192+00000+0001T   00002192+0000001149          1400 JT9112               2AZ
287330000287330               287330               170213CS     1400+00000+CS0000015292+0000015292+000000000+000002143+0000017430+0000000005+I20000000000+0000017430+Z
287330001287330018-050000     287330006003000412679MUG OCC LOVE TWIN BEAR 0000001000+00006139+00000+0001T   00006139+0000001150          1400 JT9515               2AZ
287330002287330009-001300     287330006003000135059MELAMINE MUG 250ml     0000001000+00001753+00000+0001T   00001753+0000001150          1400 JT9210               2AZ
287330003287330039-000798     287330006001023617774CANDLES TEALITE BOX-50 0000001000+00006139+00000+0001T   00006139+0000001150          1400 JT9510               2AZ
287330004287330112-116038     287330006009681820246TCS CARRIER BAG MIDI   0000001000+00000035+00000+0001T   00000035+0000001150          1400 JT9090               2AZ
287330005287330083-000055     287330006003000003853LIGHTER ELCTRNC REFILBL0000002000+00000613+00000+0001T   00000613+0000001150          1400 JT9315               2AZ
287331000287331               287331               170213CS     1400+00000+CS0000001314+0000001314+000000000+000000184+0000001490+0000000008+I20000000000+0000001490+Z
287331001287331566-000039     287331006003000142194STICKERS POP-UP  SHAKER0000001000+00001314+00000+0001T   00001753+0008151151          1400 JT9130               2AZ
287332000287332               287332               170213CS     1400+00000+CS0000003417+0000003417+000000000+000000480+0000003890+0000000007+I20000000000+0000003890+Z
287332001287332077-000011-F   287332006001023808431TISSUE-WRAP BLUE/LILAC 0000001000+00000876+00000+0001T   00000876+0000001152          1400 JT9112               2AZ
287332002287332077-000010-U   287332006001023168863CREPE-PAPER CERISE-PINK0000001000+00000788+00000+0001T   00000788+0000001152          1400 JT9112               2AZ
287332003287332077-000005-D   287332006003000414567PAPER TISSUE 50x70cm   0000001000+00001753+00000+0001T   00001753+0000001152          1400 JT9112               2AZ
287333000287333               287333               170213CS     1400+00000+CS0000001753+0000001753+000000000+000000246+0000001990+0000000009+I20000000000+0000001990+Z
287333001287333200-003024     287333006001023657299REFUSE BAGS 20PCE BLACK0000001000+00001753+00000+0001T   00001753+0000001154          1400 JT9214               2AZ
287334000287334               287334               170213CS     1400+00000+CS0000005261+0000005261+000000000+000000737+0000005990+0000000008+I20000000000+0000005990+Z
287334001287334089-060027     287334006003000245871KEY-CHAIN HEART 6X6cm  0000001000+00003069+00000+0001T   00003069+0000001155          1400 JT9205               2AZ
287334002287334080-000127     287334006003000424351VALENTINES DAY 36x24CM 0000001000+00002192+00000+0001T   00002192+0000001155          1400 JT9112               2AZ
287335000287335               287335               170213CS     1400+00000+CS0000001227+0000001227+000000000+000000172+0000001390+0000000009+I20000000000+0000001390+Z
287335001287335903-000517     287335006001704012768SWT STRAWS FIZZY CHERRY0000001000+00001227+00000+0001T   00001227+0000001159          1400 JT9150               2AZ
287336000287336               287336               170213CS     1400+00000+CS0000003507+0000003507+000000000+000000491+0000003990+0000000008+I20000000000+0000003990+Z
287336001287336031-000002-A   287336006003000247103P/FRAME LOVE 7.5X7.5CM 0000001000+00003507+00000+0001T   00003507+0000001203          1400 JT9510               2AZ
287337000287337               287337               170213CS     1400+00000+CS0000002454+0000002454+000000000+000000344+0000002790+0000000008+I20000000000+0000002790+Z
287337001287337007-000160     287337006009685857286NOTE-BOOK A5 SHORTHAND 0000001000+00001227+00000+0001T   00001227+0000001204          1400 JT9130               2AZ
287337002287337206-000630     287337006003000631919SPECTACLE CLEANING BRUS0000001000+00001227+00000+0001T   00001227+0000001204          1400 JT9321               2AZ
287338000287338               287338               170213CS     1400+00000+CS0000004075+0000004075+000000000+000000572+0000004640+0000000007+I20000000000+0000004640+Z
287338001287338566-001212     287338000721129014166STICKERS MICRO ASSTD   0000001000+00000657+00000+0001T   00000657+0000001204          1400 JT9130               2AZ
287338002287338566-000858     287338006001023760975STCKRS G/OUTLINE ASSTD 0000001000+00000788+00000+0001T   00000788+0000001204          1400 JT9130               2AZ
287338003287338567-075466     287338009780263920598BK NOVEL ROMANCE       0000001000+00002630+00000+0001T   00002630+0000001204          1400 JT9757               2AZ
287339000287339               287339               170213CS     1400+00000+CS0000003507+0000003507+000000000+000000491+0000003990+0000000008+I20000000000+0000003990+Z
287339001287339031-000002-A   287339006003000247103P/FRAME LOVE 7.5X7.5CM 0000001000+00003507+00000+0001T   00003507+0000001207          1400 JT9510               2AZ
287340000287340               287340               170213CS     1400+00000+CS0000002628+0000002628+000000000+000000368+0000002990+0000000006+I20000000000+0000002990+Z
287340001287340903-004950     287340006002580020304SWT APRICOT SURPRISE   0000001000+00001314+00000+0001T   00001314+0000001210          1400 JT9150               2AZ
287340002287340903-004952     287340006002580020052SWT FREAKY FACES 100G  0000001000+00001314+00000+0001T   00001314+0000001210          1400 JT9150               2AZ
287341000287341               287341               170213CS     1400+00000+CS0000004997+0000004997+000000000+000000700+0000005690+0000000007+I20000000000+0000005690+Z
287341001287341018-000130     287341006001023867537MUG OCC LOVE MINI+HEART0000001000+00003507+00000+0001T   00003507+0000001211          1400 JT9515               2AZ
287341002287341077-000299     287341006003000395576G/BAG 32x25cm LRG LOVE 0000001000+00001490+00000+0001T   00001490+0000001211          1400 JT9112               2AZ
287342000287342               287342               170213CS     1400+00000+CS0000003543+0000003543+000000000+000000501+0000004040+0000000004+I20000000000+0000004040+Z
287342001287342903-000183     287342006003000451043SWT LB HEART LOLLY     0000003000+00000393+00000+0001T   00000393+0000001214          1400 JT9150               2AZ
287342002287342903-000200     287342006009826020234SWT CHOC RP CHOCO 23G  0000003000+00000788+00000+0001T   00000788+0000001214          1400 JT9150               2AZ
287343000287343               287343               170213CS     1400+00000+CS0000003069+0000003069+000000000+000000430+0000003490+0000000009+I20000000000+0000003490+Z
287343001287343031-086303-A   287343006003000322206P/FRM CHAMPAGNE 10X15CM0000001000+00003069+00000+0001T   00003069+0000001218          1400 JT9510               2AZ
287344000287344               287344               170213CS     1400+00000+CS0000003506+0000003506+000000000+000000492+0000003998+0000000000+I40000003998+0000000000+Z
287344001287344080-000108     287344006003000237210CARD&ENVLPE BDAY-BOY   0000001000+00001753+00000+0001T   00001753+0000001220          1400 JT9112               2AZ
287344002287344080-000103     287344006003000236961CARD&ENVLOPE BDAY-MALE 0000001000+00001753+00000+0001T   00001753+0000001220          1400 JT9112               2AZ
287345000287345               287345               170213CS     1400+00000+CS0000003888+0000003888+000000000+000000546+0000004430+0000000004+I20000000000+0000004430+Z
287345001287345034-000336     287345006005387186105BABY FEEDING PLATE     0000002000+00000700+00000+0001T   00000876+0008151222          1400 JT9215               2AZ
287345002287345106-001118     287345006009654960320WATER BOTTLE PL 500ml  0000001000+00002016+00000+0001T   00002016+0000001222          1400 JT9210               2AZ
287345003287345112-116038     287345006009681820246TCS CARRIER BAG MIDI   0000001000+00000035+00000+0001T   00000035+0000001222          1400 JT9090               2AZ
287345004287345903-000885     287345008690997017147SWT L/BIRD CHOC BISCUIT0000001000+00000437+00000+0001T   00000437+0000001222          1400 JT9150               2AZ
287346000287346               287346               170213CS     1400+00000+CS0000004728+0000004728+000000000+000000666+0000005394+0000000000+I40000005394+0000000000+Z
287346001287346903-000200     287346006009826020234SWT CHOC RP CHOCO 23G  0000006000+00000788+00000+0001T   00000788+0000001224          1400 JT9150               2AZ
287347000287347               287347               170213CS     1400+00000+CS0000004385+0000004385+000000000+000000614+0000004999+0000000000+I40000004999+0000000000+Z
287347001287347050-000887-Z   287347006001023821966PADLOCK COMB 10-DIGIT  0000001000+00004385+00000+0001T   00004385+0000001228          1400 JT9855               2AZ
287348000287348               287348               170213CS     1400+00000+CS0000001490+0000001490+000000000+000000209+0000001690+0000000009+I20000000000+0000001690+Z
287348001287348027-783002     287348006001023874658SCOURERS FOAM PACK OF 30000001000+00001490+00000+0001T   00001490+0000001237          1400 JT9212               2AZ
287349000287349               287349               170213CS     1400+00000+CS0000001490+0000001490+000000000+000000209+0000001690+0000000009+I20000000000+0000001690+Z
287349001287349077-000299     287349006003000395576G/BAG 32x25cm LRG LOVE 0000001000+00001490+00000+0001T   00001490+0000001238          1400 JT9112               2AZ
287350000287350               287350               170213CS     1400+00000+CS0000002192+0000002192+000000000+000000307+0000002490+0000000009+I20000000000+0000002490+Z
287350001287350050-000363-Z   287350006001023475282PADLOCK IRON 32mm CARD 0000001000+00002192+00000+0001T   00002192+0000001242          1400 JT9855               2AZ
287351000287351               287351               170213CS     1400+00000+CS0000002102+0000002102+000000000+000000295+0000002390+0000000007+I20000000000+0000002390+Z
287351001287351077-000010-F   287351006003453000461CREPE-PAPER BLUE       0000001000+00000788+00000+0001T   00000788+0000001245          1400 JT9112               2AZ
287351002287351077-000312     287351006001023608697GIFT-BAG 10X35CM GLOSS 0000001000+00001314+00000+0001T   00001314+0000001245          1400 JT9112               2AZ
287352000287352               287352               170213CS     1400+00000+CS0000001753+0000001753+000000000+000000246+0000001990+0000000009+I20000000000+0000001990+Z
287352001287352174-000011     287352006001023523778W/MACHINE-BAG 50x40cm  0000001000+00001753+00000+0001T   00001753+0000001246          1400 JT9205               2AZ
287353000287353               287353               170213CS     1400+00000+CS0000008592+0000008592+000000000+000001204+0000009796+0000000000+I40000009796+0000000000+Z
287353001287353079-000510     287353006001023509079CRAYONS WAX 12-COLOUR  0000001000+00002455+00000+0001T   00002455+0000001251          1400 JT9130               2AZ
287353002287353369-000035     287353006001023795885EDU STACKING-SET ASSTD 0000001000+00003507+00000+0001T   00003507+0000001251          1400 JT9745               2AZ
287353003287353567-014134     287353006003000560189BOOK COLOURING 96 PAGE 0000001000+00002630+00000+0001T   00002630+0000001251          1400 JT9757               2AZ
287354000287354               287354               170213CS     1400+00000+CS0000001490+0000001490+000000000+000000209+0000001690+0000000009+I20000000000+0000001690+Z
287354001287354565-004101     287354006003000548033BALL BOUNCING EGG      0000001000+00001490+00000+0001T   00001490+0000001252          1400 JT9745               2AZ
287355000287355               287355               170213CS     1400+00000+CS0000012393+0000012393+000000000+000001739+0000014130+0000000002+I20000000000+0000014130+Z
287355001287355903-000710     287355006002099007056SWT REFRESHERS MINT    0000002000+00001139+00000+0001T   00001139+0000001253          1400 JT9150               2AZ
287355002287355112-116038     287355006009681820246TCS CARRIER BAG MIDI   0000001000+00000035+00000+0001T   00000035+0000001253          1400 JT9090               2AZ
287355003287355079-013032-J   287355006003000542710A&C DIY COLOUR P/FLOWER0000001000+00001753+00000+0001T   00001753+0000001253          1400 JT9130               2AZ
287355004287355566-002004     287355006001023672421STICKERS CRYSTAL SHAPES0000001000+00001753+00000+0001T   00001753+0000001253          1400 JT9130               2AZ
287355005287355566-000053     287355006003000284832S/BOOK C/BOARD STICKERS0000002000+00000876+00000+0001T   00001314+0008151253          1400 JT9130               2AZ
287355006287355566-000203     287355006003000443925STCKRS VELVET PUFFY ASS0000001000+00002630+00000+0001T   00002630+0000001253          1400 JT9130               2AZ
287355007287355566-000991     287355000721129013121STICKERS GLOW-IN-DARK  0000001000+00002192+00000+0001T   00002192+0000001253          1400 JT9130               2AZ
287356000287356               287356               170213CS     1400+00000+CS0000004385+0000004385+000000000+000000614+0000004990+0000000009+I20000000000+0000004990+Z
287356001287356007-010505     287356006003000670406BLACKBOARD VINYL       0000001000+00004385+00000+0001T   00004385+0000001258          1400 JT9130               2AZ
287357000287357               287357               170213CS     1400+00000+CS0000002630+0000002630+000000000+000000369+0000002990+0000000009+I20000000000+0000002990+Z
287357001287357018-000129     287357006001023403353MUG OCC. LOVE V-SHAPE  0000001000+00002630+00000+0001T   00002630+0000001302          1400 JT9515               2AZ
287358000287358               287358               170213CS     1400+00000+CS0000002630+0000002630+000000000+000000369+0000002990+0000000009+I20000000000+0000002990+Z
287358001287358159-000111     287358006003000629961SHOWER CAP PVC LINED   0000001000+00002630+00000+0001T   00002630+0000001303          1400 JT9200               2AZ
287359000287359               287359               170213CS     1400+00000+CS0000003243+0000003243+000000000+000000455+0000003690+0000000008+I20000000000+0000003690+Z
287359001287359140-001004     287359006001023880932FLY-RIBBONS 4PCE PL    0000001000+00001490+00000+0001T   00001490+0000001304          1400 JT9830               2AZ
287359002287359037-000004     287359006001023763679ASHTRAY PL TUB 8X11CM  0000001000+00001753+00000+0001T   00002192+0008191304          1400 JT9515               2AZ
287360000287360               287360               170213CS     1400+00000+CS0000007927+0000007927+000000000+000001111+0000009030+0000000008+I20000000000+0000009030+Z
287360001287360037-000004     287360006001023763679ASHTRAY PL TUB 8X11CM  0000001000+00001753+00000+0001T   00002192+0008191306          1400 JT9515               2AZ
287360002287360073-000527     287360006003000594122TOILETRY BAG MENS      0000001000+00006139+00000+0001T   00006139+0000001306          1400 JT9200               2AZ
287360003287360112-116038     287360006009681820246TCS CARRIER BAG MIDI   0000001000+00000035+00000+0001T   00000035+0000001306          1400 JT9090               2AZ
287361000287361               287361               170213CS     1400+00000+CS0000003506+0000003506+000000000+000000492+0000003990+0000000008+I20000000000+0000003990+Z
287361001287361071-003879     287361006936198404198PENCIL HB BLU/WHITE 12s0000001000+00001753+00000+0001T   00002630+0008151310          1400 JT9130               2AZ
287361002287361078-000030     287361006003000151141YAMAYO SUPERGLUE 8g    0000001000+00001753+00000+0001T   00001753+0000001310          1400 JT9810               2AZ
287362000287362               287362               170213CS     1400+00000+CS0000003069+0000003069+000000000+000000430+0000003490+0000000009+I20000000000+0000003490+Z
287362001287362038-092233     287362006003000328925TABLE-MAT N/SLIP ASST  0000001000+00003069+00000+0001T   00003507+0008191310          1400 JT9300               2AZ
287363000287363               287363               170213CS     1400+00000+CS0000002628+0000002628+000000000+000000368+0000002990+0000000006+I20000000000+0000002990+Z
287363001287363006-000166-H   287363006003000608096BALLOONS HELIUM 6PC WHT0000001000+00001314+00000+0001T   00001314+0000001313          1400 JT9131               2AZ
287363002287363006-000166-D   287363006003000516490BALLOONS LRG 6PC RED   0000001000+00001314+00000+0001T   00001314+0000001313          1400 JT9131               2AZ
287364000287364               287364               170213CS     1400+00000+CS0000003069+0000003069+000000000+000000430+0000003490+0000000009+I20000000000+0000003490+Z
287364001287364089-000005     287364006003000094806KEY CHAIN CARDS MTL    0000001000+00003069+00000+0001T   00003069+0000001314          1400 JT9205               2AZ
287365000287365               287365               170213CS     1400+00000+CS0000006137+0000006137+000000000+000000860+0000006997+0000000000+I40000006997+0000000000+Z
287365001287365079-001107     287365006003000380879ART+CRAFT SAND ART     0000001000+00002630+00000+0001T   00002630+0000001316          1400 JT9130               2AZ
287365002287365567-011313     287365006003000593965DIERESTORIES AFR ASSTD 0000001000+00003507+00000+0001T   00003507+0000001316          1400 JT9757               2AZ
287366000287366               287366               170213CS     1400+00000+CS0000003506+0000003506+000000000+000000492+0000003990+0000000008+I20000000000+0000003990+Z
287366001287366084-000889     287366006003000293674NAIL FILE EMERY 18CM   0000001000+00001753+00000+0001T   00001753+0000001331          1400 2IC200               2AZ
287366002287366027-056191     287366006916920933134DISH-BRUSH+HOOK RECT   0000001000+00001753+00000+0001T   00001753+0000001331          1400 2IC212               2AZ
287367000287367               287367               170213CS     1400+00000+CS0000003188+0000003188+000000000+000000448+0000003636+0000000000+I40000003636+0000000000+Z
287367001287367566-001234     287367006003000217793STICKERS LASER ASSTD   0000001000+00001578+00000+0001T   00001578+0000001332          1400 2IC130               2AZ
287367002287367903-000155     287367006009803374435SWT LOLLY I LUV U HEART0000003000+00000525+00000+0001T   00000525+0000001332          1400 2IC150               2AZ
287367003287367112-116038     287367006009681820246TCS CARRIER BAG MIDI   0000001000+00000035+00000+0001T   00000035+0000001332          1400 2IC090               2AZ
287368000287368               287368               170213CS     1400+00000+CS0000007925+0000007925+000000000+000001112+0000009030+0000000007+I20000000000+0000009030+Z
287368001287368018-000129     287368006001023403353MUG OCC. LOVE V-SHAPE  0000001000+00002630+00000+0001T   00002630+0000001333          1400 2IC515               2AZ
287368002287368304-000720     287368006001023843050F/BUNCH ROSE 6-HEAD AST0000001000+00002630+00000+0001T   00002630+0000001333          1400 2IC510               2AZ
287368003287368112-116038     287368006009681820246TCS CARRIER BAG MIDI   0000001000+00000035+00000+0001T   00000035+0000001333          1400 2IC090               2AZ
287368004287368304-000720     287368006001023843050F/BUNCH ROSE 6-HEAD AST0000001000+00002630+00000+0001T   00002630+0000001333          1400 2IC510               2AZ
287369000287369               287369               170213CS     1400+00000+CS0000004769+0000004769+000000000+000000669+0000005430+0000000008+I20000000000+0000005430+Z
287369001287369018-000129     287369006001023403353MUG OCC. LOVE V-SHAPE  0000001000+00002630+00000+0001T   00002630+0000001420          1400 2IC515               2AZ
287369002287369903-000095     287369006001704011495SWT SPECKLED-EGGS 100G 0000001000+00002104+00000+0001T   00002104+0000001420          1400 2IC150               2AZ
287369003287369112-116038     287369006009681820246TCS CARRIER BAG MIDI   0000001000+00000035+00000+0001T   00000035+0000001420          1400 2IC090               2AZ
287370000287370               287370               170213CS     1400+00000+CS0000003067+0000003067+000000000+000000430+0000003490+0000000007+I20000000000+0000003490+Z
287370001287370036-000610     287370006001023627230WASHING-PEGS PL PACK-240000001000+00001753+00000+0001T   00001753+0000001420          1400 2IC212               2AZ
287370002287370034-000329     287370006001023564290BOTTLE-BRUSHES WHT 2PCE0000001000+00001314+00000+0001T   00001314+0000001420          1400 2IC215               2AZ
287371000287371               287371               170213CS     1400+00000+CS0000004295+0000004295+000000000+000000602+0000004890+0000000007+I20000000000+0000004890+Z
287371001287371903-000200     287371006009826020234SWT CHOC RP CHOCO 23G  0000001000+00000788+00000+0001T   00000788+0000001440          1400 JT9150               2AZ
287371002287371018-000136     287371006001023659026MUG OCC LOVE W/PLUSH   0000001000+00003507+00000+0001T   00003507+0000001440          1400 JT9515               2AZ
287372000287372               287372               170213CS     1400+00000+CS0000007305+0000007305+000000000+000001027+0000008330+0000000002+I20000000000+0000008330+Z
287372001287372903-000200     287372006009826020234SWT CHOC RP CHOCO 23G  0000001000+00000788+00000+0001T   00000788+0000001443          1400 JT9150               2AZ
287372002287372903-000183     287372006003000451043SWT LB HEART LOLLY     0000002000+00000393+00000+0001T   00000393+0000001443          1400 JT9150               2AZ
287372003287372080-000124     287372006003000297733CARD & ENV VALENTINES  0000002000+00001578+00000+0001T   00001578+0000001443          1400 JT9112               2AZ
287372004287372080-000133-A   287372006003000647019MINI VALENTINES CARD   0000001000+00000437+00000+0001T   00000437+0000001443          1400 JT9112               2AZ
287372005287372903-000521     287372006001704009652SWT GUMMY SOFT GUMS    0000001000+00000876+00000+0001T   00000876+0000001443          1400 JT9150               2AZ
287372006287372903-000519     287372006001704012805SWT MS LIQ-O-GHETTI    0000001000+00001227+00000+0001T   00001227+0000001443          1400 JT9150               2AZ
287372007287372112-116038     287372006009681820246TCS CARRIER BAG MIDI   0000001000+00000035+00000+0001T   00000035+0000001443          1400 JT9090               2AZ
287373000287373               287373               170213CS     1400+00000+CS0000010524+0000010524+000000000+000001474+0000011990+0000000008+I20000000000+0000011990+Z
287373001287373560-000108     287373006003000548262ANIMALS DINOSAUR+ACC   0000001000+00005262+00000+0001T   00005262+0000001444          1400 JT9745               2AZ
287373002287373368-000101     287373006003000449859PLUSH CAT 17cm KITTY   0000001000+00005262+00000+0001T   00005262+0000001444          1400 JT9745               2AZ
287374000287374               287374               170213CS     1400+00000+CS0000001787+0000001787+000000000+000000251+0000002038+0000000000+I40000002038+0000000000+Z
287374001287374306-000016     287374006001023887955T/BRUSH KIDDIES W/CAP  0000001000+00000876+00000+0001T   00000876+0000001445          1400 JT9200               2AZ
287374002287374038-047246     287374006001023873750PLACEMAT 44x28cm KIDS  0000001000+00000876+00000+0001T   00000876+0000001445          1400 JT9300               2AZ
287374003287374112-116038     287374006009681820246TCS CARRIER BAG MIDI   0000001000+00000035+00000+0001T   00000035+0000001445          1400 JT9090               2AZ
287375000287375               287375               170213CS     1400+00000+CS0000004208+0000004208+000000000+000000590+0000004790+0000000008+I20000000000+0000004790+Z
287375001287375903-000095     287375006001704011495SWT SPECKLED-EGGS 100G 0000002000+00002104+00000+0001T   00002104+0000001459          1400 JT9150               2AZ
287376000287376               287376               170213CS     1400+00000+CS0000002366+0000002366+000000000+000000332+0000002698+0000000000+I40000002698+0000000000+Z
287376001287376077-000314     287376006003000181148GIFT-BAG 11X14CM MATT  0000001000+00000876+00000+0001T   00000876+0000001529          1400 JT9112               2AZ
287376002287376006-000788     287376006001023990228CROWN HAPPY BIRTHDAY   0000001000+00001490+00000+0001T   00001490+0000001529          1400 JT9131               2AZ
287377000287377               287377               170213CS     1400+00000+CS0000014118+0000014118+000000000+000001978+0000016096+0000000000+I40000016096+0000000000+Z
287377001287377046-000011     287377004897006172994BATTERIES SIZE:AA  2PCE0000001000+00001402+00000+0001T   00001402+0000001531          1400 JT9312               2AZ
287377002287377159-000801     287377006001023999832BATHMAT 36x59cm ASST   0000001000+00005700+00000+0001T   00005700+0000001531          1400 JT9200               2AZ
287377003287377486-002315     287377006001023740526WALL-CLOCK ROUND 20CM  0000001000+00007016+00000+0001T   00007016+0000001531          1400 JT9510               2AZ
287378000287378               287378               170213CS     1400+00000+CS0000001578+0000001578+000000000+000000221+0000001790+0000000009+I20000000000+0000001790+Z
287378001287378018-000127     287378006001023380289MUG OCC STRAIGHT LOVE  0000001000+00001578+00000+0001T   00001753+0006471548          1400 JT9515               2AZ
287379000287379               287379               170213CS     1400+00000+CS0000003069+0000003069+000000000+000000430+0000003490+0000000009+I20000000000+0000003490+Z
287379001287379089-000220     287379006003000677368KEY CHAIN+PEN+KNIFE    0000001000+00003069+00000+0001T   00003069+0000001548          1400 JT9205               2AZ
287380000287380               287380               170213CS     1400+00000+CS0000001753+0000001753+000000000+000000246+0000001990+0000000009+I20000000000+0000001990+Z
287380001287380301-086008     287380006003000426829ORN MUM MESSAGE W/ACC. 0000001000+00001753+00000+0001T   00001753+0000001549          1400 JT9505               2AZ
287381000287381               287381               170213CS     1400+00000+CS0000001578+0000001578+000000000+000000221+0000001790+0000000009+I20000000000+0000001790+Z
287381001287381077-000303     287381006001023593757GIFT-BAG PAPER MED     0000001000+00001578+00000+0001T   00001578+0000001552          1400 JT9112               2AZ
287382000287382               287382               170213CS     1400+00000+CS0000000035+0000000035+000000000+000000005+0000000040+0000000000+I20000000000+0000000040+Z
287382001287382112-116038     287382006009681820246TCS CARRIER BAG MIDI   0000001000+00000035+00000+0001T   00000035+0000001553          1400 JT9090               2AZ
287383000287383               287383               170213CS     1400+00000+CS0000003506+0000003506+000000000+000000492+0000003990+0000000008+I20000000000+0000003990+Z
287383001287383903-000612     287383006003000617449SWT TRUMPET 20cm       0000001000+00001753+00000+0001T   00001753+0000001554          1400 JT9150               2AZ
287383002287383565-000889     287383006003000626953NOVELTY SPACE BALLOONS 0000001000+00001753+00000+0001T   00001753+0000001554          1400 JT9745               2AZ
287384000287384               287384               170213CS     1400+00000+CS0000001400+0000001400+000000000+000000196+0000001590+0000000006+I20000000000+0000001590+Z
287384001287384567-010600     287384009780710506269BK ACTIVITY ASSTD      0000002000+00000700+00000+0001T   00000876+0008131600          1400 JT9757               2AZ
287385000287385               287385               170213CS     1400+00000+CS0000002629+0000002629+000000000+000000369+0000002990+0000000008+I20000000000+0000002990+Z
287385001287385566-000066     287385006003000283675STICKERS GLITTER 25PCS 0000001000+00001753+00000+0001T   00001753+0000001623          1400 JT9130               2AZ
287385002287385566-000200     287385006003000384174STICKER PUFFY NEON     0000001000+00000876+00000+0001T   00000876+0000001623          1400 JT9130               2AZ
287386000287386               287386               170213CS     1400+00000+CS0000008771+0000008771+000000000+000001228+0000009990+0000000009+I20000000000+0000009990+Z
287386001287386361-000110     287386006001023837509RAG-DOLL 46cm RAG      0000001000+00008771+00000+0001T   00008771+0000001623          1400 JT9725               2AZ
287387000287387               287387               170213CS     1400+00000+CS0000000048+0000000048+000000000+000000007+0000000050+0000000005+I20000000000+0000000050+Z
287387001287387112-116069     287387006009681820277TCS CARRIER BAG JUMBO  0000001000+00000048+00000+0001T   00000048+0000001624          1400 JT9090               2AZ
287388000287388               287388               170213CS     1400+00000+CS0000003507+0000003507+000000000+000000491+0000003990+0000000008+I20000000000+0000003990+Z
287388001287388018-005009     287388006001023725608MUG W/PLUSH-BEAR LOVE  0000001000+00003507+00000+0001T   00003507+0000001624          1400 JT9515               2AZ
287389000287389               287389               170213CS     1400+00000+CS0000004385+0000004385+000000000+000000614+0000004990+0000000009+I20000000000+0000004990+Z
287389001287389486-001012     287389006001023820907CLOCK ALARM SQR 10X12CM0000001000+00004385+00000+0001T   00004385+0000001627          1400 JT9510               2AZ
287390000287390               287390               170213CS     1400+00000+CS0000002892+0000002892+000000000+000000405+0000003290+0000000007+I20000000000+0000003290+Z
287390001287390903-000194     287390006009826020616SWT CHOC RP LOLLY 25G  0000001000+00001314+00000+0001T   00001314+0000001629          1400 JT9150               2AZ
287390002287390077-000303     287390006001023593757GIFT-BAG PAPER MED     0000001000+00001578+00000+0001T   00001578+0000001629          1400 JT9112               2AZ
287391000287391               287391               170213CS     1400+00000+CS0000001490+0000001490+000000000+000000209+0000001690+0000000009+I20000000000+0000001690+Z
287391001287391006-000788     287391006001023990228CROWN HAPPY BIRTHDAY   0000001000+00001490+00000+0001T   00001490+0000001630          1400 JT9131               2AZ
287392000287392               287392               170213CS     1400+00000+CS0000010572+0000010572+000000000+000001481+0000012053+0000000000+I40000012053+0000000000+Z
287392001287392077-000299-A   287392006003000670888GIFT-BAG PAPER JMB LOVE0000001000+00001753+00000+0001T   00001753+0000001634          1400 JT9112               2AZ
287392002287392368-000614     287392006001023705808PLUSH LOVE 30cm        0000001000+00008771+00000+0001T   00008771+0000001634          1400 JT9745               2AZ
287392003287392112-116069     287392006009681820277TCS CARRIER BAG JUMBO  0000001000+00000048+00000+0001T   00000048+0000001634          1400 JT9090               2AZ
287393000287393               287393               170213CS     1400+00000+CS0000003507+0000003507+000000000+000000491+0000003990+0000000008+I20000000000+0000003990+Z
287393001287393079-000286     287393006001023797032FINGER-PAINT 4PCE      0000001000+00003507+00000+0001T   00003507+0000001642          1400 JT9130               2AZ
287394000287394               287394               170213CS     1400+00000+CS0000001090+0000001090+000000000+000000155+0000001240+0000000005+I20000000000+0000001240+Z
287394001287394006-000172-J   287394006003000610280BALLOONS METALLIC BLACK0000002000+00000218+00000+0001T   00000218+0000001642          1400 JT9131               2AZ
287394002287394006-000172-A   287394006003000609765BALLOONS METALLIC PINK 0000002000+00000218+00000+0001T   00000218+0000001642          1400 JT9131               2AZ
287394003287394006-000173-A   287394006003000636235BALLOONS HELIUM 1PC BLK0000001000+00000218+00000+0001T   00000218+0000001642          1400 JT9131               2AZ
287395000287395               287395               170213CS     1400+00000+CS0000001401+0000001401+000000000+000000197+0000001590+0000000008+I20000000000+0000001590+Z
287395001287395903-000520     287395006001704009898SWT GUMMY MINI SOUR 60g0000001000+00000876+00000+0001T   00000876+0000001643          1400 JT9150               2AZ
287395002287395903-000155     287395006009803374435SWT LOLLY I LUV U HEART0000001000+00000525+00000+0001T   00000525+0000001643          1400 JT9150               2AZ
287396000287396               287396               170213CS     1400+00000+CS0000002630+0000002630+000000000+000000369+0000002990+0000000009+I20000000000+0000002990+Z
287396001287396077-000270     287396006003000395453GIFT-BAG PPR JMB 33X45 0000001000+00002630+00000+0001T   00002630+0000001651          1400 JT9112               2AZ
287397000287397               287397               170213CS     1400+00000+CS0000001883+0000001883+000000000+000000265+0000002140+0000000008+I20000000000+0000002140+Z
287397001287397079-000807     287397006003000670277ART+CRAFT WOODEN STICKS0000001000+00001490+00000+0001T   00001490+0000001652          1400 JT9130               2AZ
287397002287397903-000183     287397006003000451043SWT LB HEART LOLLY     0000001000+00000393+00000+0001T   00000393+0000001652          1400 JT9150               2AZ
287398000287398               287398               170213CS     1400+00000+CS0000004820+0000004820+000000000+000000676+0000005490+0000000006+I20000000000+0000005490+Z
287398001287398200-000035     287398006001023768810FOOD-BOWL-COVERS 5PCE  0000001000+00002630+00000+0001T   00002630+0000001653          1400 JT9214               2AZ
287398002287398903-000194     287398006009826020616SWT CHOC RP LOLLY 25G  0000001000+00001314+00000+0001T   00001314+0000001653          1400 JT9150               2AZ
287398003287398077-000011-C   287398006001023808523TISSUE 10xSHTS RED     0000001000+00000876+00000+0001T   00000876+0000001653          1400 JT9112               2AZ
287399000287399               287399               170213CS     1400+00000+CS0000012279+0000012279+000000000+000001720+0000013999+0000000000+I40000013999+0000000000+Z
287399001287399464-003002     287399006003000328550GAME THINK:CHESS KIDS  0000001000+00012279+00000+0001T   00012279+0000001656          1400 JT9785               2AZ
287400000287400               287400               170213CS     1400+00000+CS0000009679+0000009679+000000000+000001357+0000011030+0000000006+I20000000000+0000011030+Z
287400001287400079-013032-D   287400006003000389643RIBBONS                0000002000+00002630+00000+0001T   00002630+0000001657          1400 JT9130               2AZ
287400002287400566-000359     287400006003000582709STICKER BOOK LOVE SPARK0000002000+00002192+00000+0001T   00002192+0000001657          1400 JT9130               2AZ
287400003287400112-116038     287400006009681820246TCS CARRIER BAG MIDI   0000001000+00000035+00000+0001T   00000035+0000001657          1400 JT9090               2AZ
287401000287401               287401               170213CS     1400+00000+CS0000008799+0000008799+000000000+000001234+0000010033+0000000000+I40000010033+0000000000+Z
287401001287401077-000303     287401006001023593757GIFT-BAG PAPER MED     0000005000+00001578+00000+0001T   00001578+0000001659          1400 JT9112               2AZ
287401002287401080-000133-A   287401006003000647019MINI VALENTINES CARD   0000002000+00000437+00000+0001T   00000437+0000001659          1400 JT9112               2AZ
287401003287401112-116038     287401006009681820246TCS CARRIER BAG MIDI   0000001000+00000035+00000+0001T   00000035+0000001659          1400 JT9090               2AZ
287402000287402               287402               170213CS     1400+00000+CS0000005697+0000005697+000000000+000000800+0000006490+0000000007+I20000000000+0000006490+Z
287402001287402301-085001     287402006003000297610ORN WATERBALL LOVE ASST0000001000+00004823+00000+0001T   00004823+0000001700          1400 JT9505               2AZ
287402002287402080-000133-A   287402006003000647019MINI VALENTINES CARD   0000002000+00000437+00000+0001T   00000437+0000001700          1400 JT9112               2AZ
287403000287403               287403               170213CS     1400+00000+CS0000008805+0000008805+000000000+000001233+0000010038+0000000000+I40000010038+0000000000+Z
287403001287403001-000175     287403006001023788108B/MUG GLS LOVE 380ML   0000001000+00004385+00000+0001T   00004385+0000001702          1400 JT9515               2AZ
287403002287403301-086005     287403006001023856289ORN OCC MOM WDN LETTERS0000001000+00004385+00000+0001T   00004385+0000001702          1400 JT9505               2AZ
287403003287403112-116038     287403006009681820246TCS CARRIER BAG MIDI   0000001000+00000035+00000+0001T   00000035+0000001702          1400 JT9090               2AZ
287404000287404               287404               170213CS     1400+00000+CS0000003507+0000003507+000000000+000000491+0000003990+0000000008+I20000000000+0000003990+Z
287404001287404018-000136     287404006001023659026MUG OCC LOVE W/PLUSH   0000001000+00003507+00000+0001T   00003507+0000001702          1400 JT9515               2AZ
287405000287405               287405               170213CS     1400+00000+CS0000001227+0000001227+000000000+000000172+0000001390+0000000009+I20000000000+0000001390+Z
287405001287405903-004951     287405006002580020328SWT MALLOW MINI M/SHAKE0000001000+00001227+00000+0001T   00001227+0000001703          1400 JT9150               2AZ
287406000287406               287406               170213CS     1400+00000+CS0000019650+0000019650+000000000+000002800+0000022450+0000000000+I40000022450+0000000000+Z
287406001287406903-000183     287406006003000451043SWT LB HEART LOLLY     0000050000+00000393+00000+0001T   00000393+0000001710          1400 JT9150               2AZ
287407000287407               287407               170213CS     1400+00000+CS0000005258+0000005258+000000000+000000737+0000005990+0000000005+I20000000000+0000005990+Z
287407001287407903-000194     287407006009826020616SWT CHOC RP LOLLY 25G  0000001000+00001314+00000+0001T   00001314+0000001711          1400 JT9150               2AZ
287407002287407301-085004     287407006003000420469ORN LOVE PLAQUE 21X10CM0000001000+00003507+00000+0001T   00003946+0006471711          1400 JT9505               2AZ
287407003287407080-000133-A   287407006003000647019MINI VALENTINES CARD   0000001000+00000437+00000+0001T   00000437+0000001711          1400 JT9112               2AZ
287408000287408               287408               170213CS     1400+00000+CS0000002717+0000002717+000000000+000000381+0000003090+0000000008+I20000000000+0000003090+Z
287408001287408903-000155     287408006009803374435SWT LOLLY I LUV U HEART0000001000+00000525+00000+0001T   00000525+0000001711          1400 JT9150               2AZ
287408002287408566-000068     287408006003000418046POP UP LOVE 2 ASSTD    0000001000+00002192+00000+0001T   00002192+0000001711          1400 JT9130               2AZ
287409000287409               287409               170213CS     1400+00000+CS0000005084+0000005084+000000000+000000713+0000005790+0000000007+I20000000000+0000005790+Z
287409001287409072-020359     287409006003000399758PET DOG/CAT BOWL SMALL 0000002000+00001753+00000+0001T   00001753+0000001712          1400 JT9870               2AZ
287409002287409077-000303     287409006001023593757GIFT-BAG PAPER MED     0000001000+00001578+00000+0001T   00001578+0000001712          1400 JT9112               2AZ
287410000287410               287410               170213CS     1400+00000+CS0000004032+0000004032+000000000+000000566+0000004590+0000000008+I20000000000+0000004590+Z
287410001287410077-000270     287410006003000395453GIFT-BAG PPR JMB 33X45 0000001000+00002630+00000+0001T   00002630+0000001725          1400 JT9112               2AZ
287410002287410304-001204     287410006001023737984FLOWER OCC. TEDDY/ROSES0000001000+00001402+00000+0001T   00001490+0006471725          1400 JT9510               2AZ
287411000287411               287411               170213CS     1400+00000+CS0000003066+0000003066+000000000+000000431+0000003490+0000000007+I20000000000+0000003490+Z
287411001287411077-000299     287411006003000395576G/BAG 32x25cm LRG LOVE 0000001000+00001490+00000+0001T   00001490+0000001725          1400 JT9112               2AZ
287411002287411903-000200     287411006009826020234SWT CHOC RP CHOCO 23G  0000002000+00000788+00000+0001T   00000788+0000001725          1400 JT9150               2AZ
287412000287412               287412               170213CS     1400+00000+CS0000002192+0000002192+000000000+000000307+0000002490+0000000009+I20000000000+0000002490+Z
287412001287412080-000127     287412006003000424351VALENTINES DAY 36x24CM 0000001000+00002192+00000+0001T   00002192+0000001725          1400 JT9112               2AZ
287413000287413               287413               170213CS     1400+00000+CS0000001314+0000001314+000000000+000000184+0000001490+0000000008+I20000000000+0000001490+Z
287413001287413046-000012     287413006904708013062BATTERIES AA  CARD-OF-40000001000+00001314+00000+0001T   00001314+0000001726          1400 JT9312               2AZ
287414000287414               287414               170213CS     1400+00000+CS0000004186+0000004186+000000000+000000593+0000004770+0000000009+I20000000000+0000004770+Z
287414001287414112-116038     287414006009681820246TCS CARRIER BAG MIDI   0000001000+00000035+00000+0001T   00000035+0000001727          1400 JT9090               2AZ
287414002287414018-000177     287414006001023797513MUG MINI LOVE ASSTD    0000002000+00000700+00000+0001T   00000700+0000001727          1400 JT9515               2AZ
287414003287414903-000183     287414006003000451043SWT LB HEART LOLLY     0000007000+00000393+00000+0001T   00000393+0000001727          1400 JT9150               2AZ
287415000287415               287415               170213CS     1400+00000+CS0000048572+0000048572+000000000+000006810+0000055382+0000000000+I40000055382+0000000000+Z
287415001287415112-116069     287415006009681820277TCS CARRIER BAG JUMBO  0000001000+00000048+00000+0001T   00000048+0000001731          1400 JT9090               2AZ
287415002287415080-000127     287415006003000424351VALENTINES DAY 36x24CM 0000001000+00002192+00000+0001T   00002192+0000001731          1400 JT9112               2AZ
287415003287415174-000305     287415006003000105502TRAVEL NECK-PILLOW     0000001000+00007016+00000+0001T   00007016+0000001731          1400 JT9205               2AZ
287415004287415903-000200     287415006009826020234SWT CHOC RP CHOCO 23G  0000003000+00000788+00000+0001T   00000788+0000001731          1400 JT9150               2AZ
287415005287415089-000191     287415006003000430185KEY CHAIN BEAR 10CM    0000001000+00002630+00000+0001T   00002630+0000001731          1400 JT9205               2AZ
287415006287415301-085004     287415006003000420469ORN LOVE PLAQUE 21X10CM0000001000+00003507+00000+0001T   00003946+0006471731          1400 JT9505               2AZ
287415007287415018-030000     287415006003000421060MUG OCCASIONS LOVE 2PCE0000001000+00004385+00000+0001T   00004385+0000001731          1400 JT9515               2AZ
287415008287415108-003021     287415006003000343911MUG SUPER SIPPER 450ml 0000001000+00002630+00000+0001T   00002630+0000001731          1400 JT9210               2AZ
287415009287415030-000030-A   287415006003000249305PLAQUE GLASS LOVE      0000001000+00003069+00000+0001T   00003069+0000001731          1400 JT9505               2AZ
287415010287415071-003011     287415006001023762825PEN STICKBALL X10 ASSTD0000001000+00001753+00000+0001T   00001753+0000001731          1400 JT9130               2AZ
287415011287415071-001028     287415008887013700385MARKER WHT-RND YM-500  0000001000+00001578+00000+0001T   00001578+0000001731          1400 JT9130               2AZ
287415012287415566-000359     287415006003000582709STICKER BOOK LOVE SPARK0000001000+00002192+00000+0001T   00002192+0000001731          1400 JT9130               2AZ
287415013287415301-086007     287415006003000426706ORN OCC DAD WDN LETTERS0000001000+00004385+00000+0001T   00004385+0000001731          1400 JT9505               2AZ
287415014287415089-000018     287415006003000176724KEY CHAIN INSPIRATION  0000001000+00003507+00000+0001T   00003507+0000001731          1400 JT9205               2AZ
287415015287415903-000183     287415006003000451043SWT LB HEART LOLLY     0000003000+00000393+00000+0001T   00000393+0000001731          1400 JT9150               2AZ
287415016287415162-010777     287415006001492107776#TAG LDS EARRINGS      0000001000+00003507+00000+0001T   00003507+0000001731          1400 JT9160               2AZ
287415017287415077-000270     287415006003000395453GIFT-BAG PPR JMB 33X45 0000001000+00002630+00000+0001T   00002630+0000001731          1400 JT9112               2AZ
287416000287416               287416               170213CS     1400+00000+CS0000008329+0000008329+000000000+000001167+0000009496+0000000000+I40000009496+0000000000+Z
287416001287416089-000017     287416006003000331147KEYCHAIN MOM POLY BOX  0000001000+00004385+00000+0001T   00004385+0000001734          1400 JT9205               2AZ
287416002287416301-085004     287416006003000420469ORN LOVE PLAQUE 21X10CM0000001000+00003507+00000+0001T   00003946+0006471734          1400 JT9505               2AZ
287416003287416080-000133-A   287416006003000647019MINI VALENTINES CARD   0000001000+00000437+00000+0001T   00000437+0000001734          1400 JT9112               2AZ
287417000287417               287417               170213CS     1400+00000+CS0000011093+0000011093+000000000+000001573+0000012666+0000000000+I40000012666+0000000000+Z
287417001287417903-000183     287417006003000451043SWT LB HEART LOLLY     0000017000+00000393+00000+0001T   00000393+0000001736          1400 JT9150               2AZ
287417002287417903-000155     287417006009803374435SWT LOLLY I LUV U HEART0000006000+00000525+00000+0001T   00000525+0000001736          1400 JT9150               2AZ
287417003287417903-000519     287417006001704012805SWT MS LIQ-O-GHETTI    0000001000+00001227+00000+0001T   00001227+0000001736          1400 JT9150               2AZ
287417004287417112-116038     287417006009681820246TCS CARRIER BAG MIDI   0000001000+00000035+00000+0001T   00000035+0000001736          1400 JT9090               2AZ
287418000287418               287418               170213CS     1400+00000+CS0000000876+0000000876+000000000+000000123+0000000990+0000000009+I20000000000+0000000990+Z
287418001287418105-001010     287418006002580007329LUNCH-BOX 1L  ASSTD    0000001000+00000876+00000+0001T   00000876+0000001741          1400 JT9210               2AZ
287419000287419               287419               170213CS     1400+00000+CS0000001753+0000001753+000000000+000000246+0000001990+0000000009+I20000000000+0000001990+Z
287419001287419024-000214     287419006001023587855COOKIE-CUTTERS PL 6PC  0000001000+00001753+00000+0001T   00001753+0000001745          1400 JT9300               2AZ
287420000287420               287420               170213CS     1400+00000+CS0000010382+0000010382+000000000+000001455+0000011837+0000000000+I40000011837+0000000000+Z
287420001287420077-000303     287420006001023593757GIFT-BAG PAPER MED     0000001000+00001578+00000+0001T   00001578+0000001746          1400 JT9112               2AZ
287420002287420206-000430     287420006003000619627MUG COLOUR CHANGING    0000001000+00006139+00000+0001T   00006139+0000001746          1400 JT9321               2AZ
287420003287420082-092844     287420006001492928449#TAG SPECTACLE POUCH   0000001000+00002630+00000+0001T   00002630+0000001746          1400 JT9160               2AZ
287420004287420112-116038     287420006009681820246TCS CARRIER BAG MIDI   0000001000+00000035+00000+0001T   00000035+0000001746          1400 JT9090               2AZ
287421000287421               287421               170213CS     1400+00000+CS0000005418+0000005418+000000000+000000763+0000006180+0000000001+I20000000000+0000006180+Z
287421001287421903-000194     287421006009826020616SWT CHOC RP LOLLY 25G  0000002000+00001314+00000+0001T   00001314+0000001747          1400 JT9150               2AZ
287421002287421903-000200     287421006009826020234SWT CHOC RP CHOCO 23G  0000002000+00000788+00000+0001T   00000788+0000001747          1400 JT9150               2AZ
287421003287421112-116038     287421006009681820246TCS CARRIER BAG MIDI   0000001000+00000035+00000+0001T   00000035+0000001747          1400 JT9090               2AZ
287421004287421903-000183     287421006003000451043SWT LB HEART LOLLY     0000003000+00000393+00000+0001T   00000393+0000001747          1400 JT9150               2AZ
287422000287422               287422               170213CS     1400+00000+CS0000003507+0000003507+000000000+000000491+0000003990+0000000008+I20000000000+0000003990+Z
287422001287422071-003043     287422006003000143948PEN CALIGRAPHY SET 8PCE0000001000+00003507+00000+0001T   00003507+0000001747          1400 JT9130               2AZ
287423000287423               287423               170213CS     1400+00000+CS0000003104+0000003104+000000000+000000435+0000003530+0000000009+I20000000000+0000003530+Z
287423001287423033-000640     287423006001023681140HAIR BRUSH & COMB SET  0000001000+00003069+00000+0001T   00003069+0000001748          1400 JT9200               2AZ
287423002287423112-116038     287423006009681820246TCS CARRIER BAG MIDI   0000001000+00000035+00000+0001T   00000035+0000001748          1400 JT9090               2AZ
287424000287424               287424               170213CS     1400+00000+CS0000000393+0000000393+000000000+000000056+0000000440+0000000009+I20000000000+0000000440+Z
287424001287424903-000183     287424006003000451043SWT LB HEART LOLLY     0000001000+00000393+00000+0001T   00000393+0000001748          1400 JT9150               2AZ
287425000287425               287425               170213CS     1400+00000+CS0000008366+0000008366+000000000+000001172+0000009530+0000000008+I20000000000+0000009530+Z
287425001287425567-011423     287425006003000641345BK COLOURING THERAPY A50000001000+00006139+00000+0001T   00006139+0000001749          1400 JT9757               2AZ
287425002287425089-000210     287425006003000486441MTL KEYCHAIN + PEN     0000001000+00002192+00000+0001T   00002192+0000001749          1400 JT9205               2AZ
287425003287425112-116038     287425006009681820246TCS CARRIER BAG MIDI   0000001000+00000035+00000+0001T   00000035+0000001749          1400 JT9090               2AZ
287426000287426               287426               170213CS     1400+00000+CS0000001578+0000001578+000000000+000000221+0000001790+0000000009+I20000000000+0000001790+Z
287426001287426077-000303     287426006001023593757GIFT-BAG PAPER MED     0000001000+00001578+00000+0001T   00001578+0000001749          1400 JT9112               2AZ
287427000287427               287427               170213CS     1400+00000+CS0000004420+0000004420+000000000+000000619+0000005030+0000000009+I20000000000+0000005030+Z
287427001287427368-000001     287427006003000097982Plush Bear 25cm        0000001000+00004385+00000+0001T   00004385+0000001750          1400 JT9745               2AZ
287427002287427112-116038     287427006009681820246TCS CARRIER BAG MIDI   0000001000+00000035+00000+0001T   00000035+0000001750          1400 JT9090               2AZ
287428000287428               287428               170213CS     1400+00000+CS0000005783+0000005783+000000000+000000811+0000006594+0000000000+I40000006594+0000000000+Z
287428001287428903-004951     287428006002580020328SWT MALLOW MINI M/SHAKE0000001000+00001227+00000+0001T   00001227+0000001757          1400 JT9150               2AZ
287428002287428903-000123     287428006925925909280SWEET GS MINI MALLOWS  0000003000+00000876+00000+0001T   00000876+0000001757          1400 JT9150               2AZ
287428003287428903-000843     287428008693029031067SWT GUMMY JELAXY 80G   0000002000+00000964+00000+0001T   00000964+0000001757          1400 JT9150               2AZ
287429000287429               287429               170213CS     1400+00000+CS0000001753+0000001753+000000000+000000246+0000001990+0000000009+I20000000000+0000001990+Z
287429001287429077-000289     287429006001023901996GIFT BOX 20x25x11cm    0000001000+00001753+00000+0001T   00001753+0000001757          1400 JT9112               2AZ
287430000287430               287430               170213CS     1400+00000+CS0000003542+0000003542+000000000+000000496+0000004030+0000000008+I20000000000+0000004030+Z
287430001287430030-001111     287430006003000336951PLAQUE-WALL R/PIN 32cm 0000001000+00003507+00000+0001T   00004385+0008121758          1400 JT9505               2AZ
287430002287430112-116038     287430006009681820246TCS CARRIER BAG MIDI   0000001000+00000035+00000+0001T   00000035+0000001758          1400 JT9090               2AZ
287431000287431               287431               170213CS     1400+00000+CS0000001578+0000001578+000000000+000000221+0000001790+0000000009+I20000000000+0000001790+Z
287431001287431080-000124     287431006003000297733CARD & ENV VALENTINES  0000001000+00001578+00000+0001T   00001578+0000001758          1400 JT9112               2AZ
287432000287432               287432               170213CS     1400+00000+CS0000001753+0000001753+000000000+000000246+0000001990+0000000009+I20000000000+0000001990+Z
287432001287432046-000014-A   287432004897006177708BATTERIES SIZE:AAA 8PCE0000001000+00001753+00000+0001T   00001753+0000001759          1400 JT9312               2AZ
287433000287433               287433               170213CS     1400+00000+CS0000003759+0000003759+000000000+000000528+0000004287+0000000000+I40000004287+0000000000+Z
287433001287433566-001234     287433006003000217793STICKERS LASER ASSTD   0000001000+00001578+00000+0001T   00001578+0000001800          1400 JT9130               2AZ
287433002287433566-000865     287433006001023788412STICKER ASSTD          0000001000+00001753+00000+0001T   00001753+0000001800          1400 JT9130               2AZ
287433003287433903-000183     287433006003000451043SWT LB HEART LOLLY     0000001000+00000393+00000+0001T   00000393+0000001800          1400 JT9150               2AZ
287433004287433112-116038     287433006009681820246TCS CARRIER BAG MIDI   0000001000+00000035+00000+0001T   00000035+0000001800          1400 JT9090               2AZ
287434000287434               287434               170213CS     1400+00000+CS0000001753+0000001753+000000000+000000246+0000001990+0000000009+I20000000000+0000001990+Z
287434001287434162-081665     287434006001492816654SS 18PK HAIR ELASTICS  0000001000+00001753+00000+0001T   00001753+0000001801          1400 JT9160               2AZ
287435000287435               287435               170213CS     1400+00000+CS0000001578+0000001578+000000000+000000221+0000001790+0000000009+I20000000000+0000001790+Z
287435001287435566-001234     287435006003000217793STICKERS LASER ASSTD   0000001000+00001578+00000+0001T   00001578+0000001802          1400 JT9130               2AZ
287436000287436               287436               170213CS     1400+00000+CS0000008815+0000008815+000000000+000001235+0000010050+0000000000+I20000000000+0000010050+Z
287436001287436077-000289     287436006001023901996GIFT BOX 20x25x11cm    0000001000+00001753+00000+0001T   00001753+0000001803          1400 JT9112               2AZ
287436002287436018-000130     287436006001023867537MUG OCC LOVE MINI+HEART0000001000+00003507+00000+0001T   00003507+0000001803          1400 JT9515               2AZ
287436003287436018-000136     287436006001023659026MUG OCC LOVE W/PLUSH   0000001000+00003507+00000+0001T   00003507+0000001803          1400 JT9515               2AZ
287436004287436112-116069     287436006009681820277TCS CARRIER BAG JUMBO  0000001000+00000048+00000+0001T   00000048+0000001803          1400 JT9090               2AZ
287437000287437               287437               170213CS     1400+00000+CS0000000876+0000000876+000000000+000000123+0000000999+0000000000+I40000000999+0000000000+Z
287437001287437566-000200     287437006003000384174STICKER PUFFY NEON     0000001000+00000876+00000+0001T   00000876+0000001805          1400 JT9130               2AZ
287438000287438               287438               170213CS     1400+00000+CS0000003462+0000003462+000000000+000000486+0000003948+0000000000+I40000003948+0000000000+Z
287438001287438903-000183     287438006003000451043SWT LB HEART LOLLY     0000001000+00000393+00000+0001T   00000393+0000001807          1400 JT9150               2AZ
287438002287438089-060027     287438006003000245871KEY-CHAIN HEART 6X6cm  0000001000+00003069+00000+0001T   00003069+0000001807          1400 JT9205               2AZ
287439000287439               287439               170213CS     1400+00000+CS0000000035+0000000035+000000000+000000005+0000000040+0000000000+I20000000000+0000000040+Z
287439001287439112-116038     287439006009681820246TCS CARRIER BAG MIDI   0000001000+00000035+00000+0001T   00000035+0000001807          1400 JT9090               2AZ
287440000287440               287440               170213CS     1400+00000+CS0000007486+0000007486+000000000+000001050+0000008536+0000000000+I40000008536+0000000000+Z
287440001287440306-000977     287440006003000559596FIRSTAID PLASTER 75PC  0000001000+00002630+00000+0001T   00002630+0000001809          1400 JT9200               2AZ
287440002287440306-000026     287440006003000207626COTTON WOOL ROLL 100G  0000001000+00002192+00000+0001T   00002192+0000001809          1400 JT9200               2AZ
287440003287440306-000023     287440006001023606976COTTON-WOOL-BALLS 50PCE0000001000+00000876+00000+0001T   00000876+0000001809          1400 JT9200               2AZ
287440004287440306-000007     287440006001023905093DENTAL FLOSS METHOL    0000001000+00001753+00000+0001T   00001753+0000001809          1400 JT9200               2AZ
287440005287440112-116038     287440006009681820246TCS CARRIER BAG MIDI   0000001000+00000035+00000+0001T   00000035+0000001809          1400 JT9090               2AZ
A17021300                                          11530232CSSLAVE 2                       JT92IC
C28742800                                          170213CS903-004951     17532254SLAVE 2     JT92IC0000000000+0000000000+0010000002000+
M17021391                              CASH        CSSLAVE 2                       Z-REPORT No.   636TOTAL (Sales - Refunds)           7015.54       CASH TO BE BANKED                 3886.80       DEBIT CARDS                          0.00       CREDIT CARDS                      3128.74       Z-READING                         7015.54       AIRTIME DEBIT CARD SALES             0.00       AIRTIME CARD SALES                   0.00       OVERS/UNDERS                         0.00       AIRTIME CASH SALES                   0.00       GIFT CARDS                           0.00       GIFT CARD CASH SALES                 0.00       T O T A L  CASH PAYOUTS              0.00                                                                                                                                                                                                                                                                                                                                                      Z
M17021392                              CASH        CSABSENT                                                                                                                                                                                          ANNUAL LEAVE                                                                                                                                                                                    DAY OFF                                                                                                                                                                                         COMMENTS          Z/READING-R7015.54                                                                                                                                                                                                                                                                                                                                                           Z
Y17021300                                          CS00000000615882+000126
ZCS17021319263 SLAVE 2      SALES DATA                     NEXT INVOICE NO.  287441 0636
F094816024-000192         1702100806450000012ICSLAVE 2
F094817051-002300         1702100806480000022ICSLAVE 2
F094818077-000298         1702100806570000032ICSLAVE 2
F094819016-006510         1702100807020000112ICSLAVE 2
X CS Slave 2 First invoice 287315 170213 Last invoice 287440 170213 Next invoice 287441 Total number of records 000000403 clbackup completed 19:26:52
