300373000300373               300373               170213CS     1400+00000+CS0000004385+0000004385+000000000+000000614+0000004999+           I90000000000+0000000000+Z
300373001300373072-020356     300373006001023701077DOG/CAT-BOWL+SELF-FEED 0000001000+00004385+00000+0001T023608540000                    1400 2IC8702ICV             Z
M17021391                              CASH        CSSLAVE 4                       Z-REPORT No.   410TOTAL (Sales - Refunds)              0.00       CASH TO BE BANKED                    0.00       DEBIT CARDS                          0.00       CREDIT CARDS                         0.00       Z-READING                            0.00       AIRTIME DEBIT CARD SALES             0.00       AIRTIME CARD SALES                   0.00       OVERS/UNDERS                         0.00       AIRTIME CASH SALES                   0.00       GIFT CARDS                           0.00       GIFT CARD CASH SALES                 0.00       T O T A L  CASH PAYOUTS              0.00                                                                                                                                                                                                                                                                                                                                                      Z
M17021392                              CASH        CSABSENT                                                                                                                                                                                          ANNUAL LEAVE                                                                                                                                                                                    DAY OFF                                                                                                                                                                                         COMMENTS                                                                                                                                                                                                                                                                                                                                                                                       Z
Y17021300                                          CS00000000000000+000000
ZCS17021319263 SLAVE 4      SALES DATA                     NEXT INVOICE NO.  300374 0410
L53779600340230-001-003       CS1702131021042ICROCHELLE M.                                                                                                                                                                                                                                                                                                                                                                                                                                                                                                                                                                                                                                                                                                                                                                                                                                                                                                                                                                                          Z
L53779600340230-002-003       CS1702131014522ICROCHELLE M.                                                                                                                                                                                                                                                                                                                                                                                                                                                                                                                                                                                                                                                                                                                                                                                                                                                                                                                                                                                          Z
L53779600340230-003-003       CS1702131015222ICROCHELLE M.                                                                                                                                                                                                                                                                                                                                                                                                                                                                                                                                                                                                                                                                                                                                                                                                                                                                                                                                                                                          Z
L54236700357340-001-002       CS1702131016122ICROCHELLE M.                                                                                                                                                                                                                                                                                                                                                                                                                                                                                                                                                                                                                                                                                                                                                                                                                                                                                                                                                                                          Z
L54236700357340-002-002       CS1702131017042ICROCHELLE M.                                                                                                                                                                                                                                                                                                                                                                                                                                                                                                                                                                                                                                                                                                                                                                                                                                                                                                                                                                                          Z
L55770400355818-001-001       CS1702131014072ICROCHELLE M.                                                                                                                                                                                                                                                                                                                                                                                                                                                                                                                                                                                                                                                                                                                                                                                                                                                                                                                                                                                          Z
L56020700360854-001-001       CS1702131016412ICROCHELLE M.                                                                                                                                                                                                                                                                                                                                                                                                                                                                                                                                                                                                                                                                                                                                                                                                                                                                                                                                                                                          Z
L56023600355305-001-001       CS1702131021522ICROCHELLE M.                                                                                                                                                                                                                                                                                                                                                                                                                                                                                                                                                                                                                                                                                                                                                                                                                                                                                                                                                                                          Z
L56256400357540-001-001       CS1702131014192ICROCHELLE M.                                                                                                                                                                                                                                                                                                                                                                                                                                                                                                                                                                                                                                                                                                                                                                                                                                                                                                                                                                                          Z
L56627900359615-001-002       CS1702131014272ICROCHELLE M.                                                                                                                                                                                                                                                                                                                                                                                                                                                                                                                                                                                                                                                                                                                                                                                                                                                                                                                                                                                          Z
L56627900359615-002-002       CS1702131014342ICROCHELLE M.                                                                                                                                                                                                                                                                                                                                                                                                                                                                                                                                                                                                                                                                                                                                                                                                                                                                                                                                                                                          Z
L57195300360128-001-002       CS1702131022012ICROCHELLE M.                                                                                                                                                                                                                                                                                                                                                                                                                                                                                                                                                                                                                                                                                                                                                                                                                                                                                                                                                                                          Z
L57195300360128-002-002       CS1702131021142ICROCHELLE M.                                                                                                                                                                                                                                                                                                                                                                                                                                                                                                                                                                                                                                                                                                                                                                                                                                                                                                                                                                                          Z
L57318000360944-001-002       CS1702131015562ICROCHELLE M.                                                                                                                                                                                                                                                                                                                                                                                                                                                                                                                                                                                                                                                                                                                                                                                                                                                                                                                                                                                          Z
L57318000360944-002-002       CS1702131016252ICROCHELLE M.                                                                                                                                                                                                                                                                                                                                                                                                                                                                                                                                                                                                                                                                                                                                                                                                                                                                                                                                                                                          Z
L57577600356872-001-003       CS1702131017152ICROCHELLE M.                                                                                                                                                                                                                                                                                                                                                                                                                                                                                                                                                                                                                                                                                                                                                                                                                                                                                                                                                                                          Z
L57577600356872-002-003       CS1702131015092ICROCHELLE M.                                                                                                                                                                                                                                                                                                                                                                                                                                                                                                                                                                                                                                                                                                                                                                                                                                                                                                                                                                                          Z
L57577600356872-003-003       CS1702131017222ICROCHELLE M.                                                                                                                                                                                                                                                                                                                                                                                                                                                                                                                                                                                                                                                                                                                                                                                                                                                                                                                                                                                          Z
L57906400354108-001-003       CS1702131022172ICROCHELLE M.                                                                                                                                                                                                                                                                                                                                                                                                                                                                                                                                                                                                                                                                                                                                                                                                                                                                                                                                                                                          Z
L57906400354108-002-003       CS1702131021352ICROCHELLE M.                                                                                                                                                                                                                                                                                                                                                                                                                                                                                                                                                                                                                                                                                                                                                                                                                                                                                                                                                                                          Z
L57906400354108-003-003       CS1702131021232ICROCHELLE M.                                                                                                                                                                                                                                                                                                                                                                                                                                                                                                                                                                                                                                                                                                                                                                                                                                                                                                                                                                                          Z
L57925700358408-001-002       CS1702131022122ICROCHELLE M.                                                                                                                                                                                                                                                                                                                                                                                                                                                                                                                                                                                                                                                                                                                                                                                                                                                                                                                                                                                          Z
L57925700358408-002-002       CS1702131022252ICROCHELLE M.                                                                                                                                                                                                                                                                                                                                                                                                                                                                                                                                                                                                                                                                                                                                                                                                                                                                                                                                                                                          Z
L58204000357513-001-001       CS1702131014592ICROCHELLE M.                                                                                                                                                                                                                                                                                                                                                                                                                                                                                                                                                                                                                                                                                                                                                                                                                                                                                                                                                                                          Z
L58286500361157-001-002       CS1702131016522ICROCHELLE M.                                                                                                                                                                                                                                                                                                                                                                                                                                                                                                                                                                                                                                                                                                                                                                                                                                                                                                                                                                                          Z
L58286500361157-002-002       CS1702131016042ICROCHELLE M.                                                                                                                                                                                                                                                                                                                                                                                                                                                                                                                                                                                                                                                                                                                                                                                                                                                                                                                                                                                          Z
L58364700360118-001-001       CS1702131014152ICROCHELLE M.                                                                                                                                                                                                                                                                                                                                                                                                                                                                                                                                                                                                                                                                                                                                                                                                                                                                                                                                                                                          Z
L58621900352714-001-001       CS1702131014032ICROCHELLE M.                                                                                                                                                                                                                                                                                                                                                                                                                                                                                                                                                                                                                                                                                                                                                                                                                                                                                                                                                                                          Z
F094816024-000192         1702100820310000012ICSLAVE 4
F094817051-002300         1702100820350000022ICSLAVE 4
F094818077-000298         1702100820390000032ICSLAVE 4
F094819016-006510         1702100820420000112ICSLAVE 4
V5377960000006510         1702100820420000112ICSLAV               0000000000000001702130000002ICSLAVE 4     170213105401340230N              03
V5423670000006510         1702100820420000112ICSLAV               0000000000000001702130000002ICSLAVE 4     170213113105357340N              02
V5577040000006510         1702100820420000112ICSLAV               0000000000000001702130000002ICSLAVE 4     170213124237355818N              01
V5602070000006510         1702100820420000112ICSLAV               0000000000000001702130000002ICSLAVE 4     170213111321360854Y              01
V5602360000006510         1702100820420000112ICSLAV               0000000000000001702130000002ICSLAVE 4     170213123752355305N              01
V5625640000006510         1702100820420000112ICSLAV               0000000000000001702130000002ICSLAVE 4     170213113513357540N              01
V5662790000006510         1702100820420000112ICSLAV               0000000000000001702130000002ICSLAVE 4     170213104037359615N              02
V5719530000006510         1702100820420000112ICSLAV               0000000000000001702130000002ICSLAVE 4     170213123346360128N              02
V5731800000006510         1702100820420000112ICSLAV               0000000000000001702130000002ICSLAVE 4     170213112317360944N              02
V5757760000006510         1702100820420000112ICSLAV               0000000000000001702130000002ICSLAVE 4     170213122258356872N              03
V5790640000006510         1702100820420000112ICSLAV               0000000000000001702130000002ICSLAVE 4     170213131348354108N              03
V5792570000006510         1702100820420000112ICSLAV               0000000000000001702130000002ICSLAVE 4     170213114446358408N              02
V5820400000006510         1702100820420000112ICSLAV               0000000000000001702130000002ICSLAVE 4     170213104400357513N              01
V5828650000006510         1702100820420000112ICSLAV               0000000000000001702130000002ICSLAVE 4     170213110337361157N              02
V5836470000006510         1702100820420000112ICSLAV               0000000000000001702130000002ICSLAVE 4     170213113706360118N              01
V5862190000006510         1702100820420000112ICSLAV               0000000000000001702130000002ICSLAVE 4     170213124016352714N              01
X CS Slave 4 First invoice 300373 170213 Last invoice 300373 170213 Next invoice 300374 Total number of records 000000054 clbackup completed 19:26:54
