101681000101681               101681               170213CT     1400+00000+CT0000017542+0000017542+000000000+000002456+0000019998+0000000000+I40000019998+0000000000+Z
101681001101681028-002100     101681006003000243754CHAIR KIDDIES 68x50x48 0000002000+00008771+00000+0001T   00008771+0000001043          1400 GH4305               1BZ
101682000101682               101682               170213CT     1400+00000+CT0000004294+0000004294+000000000+000000602+0000004890+0000000006+I20000000000+0000004890+Z
101682001101682051-002402     101682006001023518347TRIGGER-SPRAYER  500ml 0000001000+00001753+00000+0001T   00001753+0000001044          1400 GH4820               1BZ
101682002101682071-003866     101682006003000590018PENCIL NOVELTY RULER   0000001000+00001314+00000+0001T   00001314+0000001044          1400 GH4130               1BZ
101682003101682033-001402     101682006009654960498HAIR-CURLERS 6PCE LRG  0000001000+00001227+00000+0001T   00001227+0000001044          1400 GH4200               1BZ
101683000101683               101683               170213CT     1400+00000+CT0000012327+0000012327+000000000+000001727+0000014050+0000000004+I20000000000+0000014050+Z
101683001101683496-056508     101683000078257565085INTEX POOL-GAME        0000001000+00012279+00000+0001T   00012279+0000001046          1400 GH4787               1BZ
101683002101683112-116069     101683006009681820277TCS CARRIER BAG JUMBO  0000001000+00000048+00000+0001T   00000048+0000001046          1400 GH4090               1BZ
101684000101684               101684               170213CT     1400+00000+CT0000024653+0000024653+000000000+000003453+0000028106+0000000000+I40000028106+0000000000+Z
101684001101684466-000589     101684006003000027538THROWING RINGSx5 SET   0000001000+00005262+00000+0001T   00005262+0000001051          1400 GH4785               1BZ
101684002101684466-001017     101684006003000590544CRICKET-BAT PL W/BALL  0000001000+00003507+00000+0001T   00003507+0000001051          1400 GH4785               1BZ
101684003101684365-000009     101684006003000166305P/SET DOCTOR SET LIGHT 0000001000+00015788+00000+0001T   00017542+0008191051          1400 GH4725               1BZ
101684004101684112-116069     101684006009681820277TCS CARRIER BAG JUMBO  0000002000+00000048+00000+0001T   00000048+0000001051          1400 GH4090               1BZ
101685000101685               101685               170213CT     1400+00000+CT0000003153+0000003153+000000000+000000444+0000003590+0000000007+I20000000000+0000003590+Z
101685001101685079-009702-D   101685008427973059354PAPER SIRIO A2 RED COL 0000003000+00001051+00000+0001T   00001051+0000001054          1400 GH4130               1BZ
101686000101686               101686               170213CT     1400+00000+CT0000003805+0000003805+000000000+000000533+0000004330+0000000008+I20000000000+0000004330+Z
101686001101686466-000020     101686006001023167941FRISBEE 25cm           0000001000+00002192+00000+0001T   00002192+0000001056          1400 GH4785               1BZ
101686002101686108-001024     101686006009654960719TUMBLERS PL 4PC 350ml  0000001000+00001578+00000+0001T   00001578+0000001056          1400 GH4210               1BZ
101686003101686112-116038     101686006009681820246TCS CARRIER BAG MIDI   0000001000+00000035+00000+0001T   00000035+0000001056          1400 GH4090               1BZ
101687000101687               101687               170213CT     1400+00000+CT0000001490+0000001490+000000000+000000209+0000001690+0000000009+I20000000000+0000001690+Z
101687001101687009-001453     101687006003000531400MELAMINE TUMBLER 10cm  0000001000+00001490+00000+0001T   00001490+0000001102          1400 GH4210               1BZ
101688000101688               101688               170213CT     1400+00000+CT0000000437+0000000437+000000000+000000062+0000000490+0000000009+I20000000000+0000000490+Z
101688001101688083-000049     101688004891035200024CIG-LIGHTER DISPOSABLE 0000001000+00000437+00000+0001T   00000437+0000001204          1400 GH4315               1BZ
101689000101689               101689               170213CT     1400+00000+CT0000005259+0000005259+000000000+000000738+0000005997+0000000000+I40000005997+0000000000+Z
101689001101689200-000211     101689006003000671847BAKING-PANS ALUM-FOIL  0000003000+00001753+00000+0001T   00001753+0000001205          1400 GH4214               1BZ
101690000101690               101690               170213CT     1400+00000+CT0000000437+0000000437+000000000+000000062+0000000490+0000000009+I20000000000+0000000490+Z
101690001101690083-000049     101690004891035200024CIG-LIGHTER DISPOSABLE 0000001000+00000437+00000+0001T   00000437+0000001206          1400 GH4315               1BZ
101691000101691               101691               170213CT     1400+00000+CT0000001662+0000001662+000000000+000000234+0000001890+0000000006+I20000000000+0000001890+Z
101691001101691006-001000     101691006003000093779HELIUM BALLOON FILL    0000002000+00000613+00000+0001T   00000613+0000001229          1400 GH4131               1BZ
101691002101691006-000171-K   101691006003000609697BALLOONS 1PC PURPLE PRN0000001000+00000218+00000+0001T   00000218+0000001229          1400 GH4131               1BZ
101691003101691006-000171-A   101691006003000608935BALLOONS 1PC PINK PRNT 0000001000+00000218+00000+0001T   00000218+0000001229          1400 GH4131               1BZ
101692000101692               101692               170213CT     1400+00000+CT0000007974+0000007974+000000000+000001119+0000009093+0000000000+I40000009093+0000000000+Z
101692001101692903-004950     101692006002580020304SWT APRICOT SURPRISE   0000001000+00001314+00000+0001T   00001314+0000001230          1400 GH4150               1BZ
101692002101692140-006004     101692006001023628077FLY-SWATTER RUBBER     0000001000+00001139+00000+0001T   00001139+0000001230          1400 GH4830               1BZ
101692003101692903-000710     101692006002099007056SWT REFRESHERS MINT    0000001000+00001139+00000+0001T   00001139+0000001230          1400 GH4150               1BZ
101692004101692903-000709     101692006002099007070SWT QUENCHERS FRUIT    0000001000+00001139+00000+0001T   00001139+0000001230          1400 GH4150               1BZ
101692005101692032-000312     101692006003000191956MIRROR POCKET RECT ASST0000001000+00001490+00000+0001T   00001490+0000001230          1400 GH4510               1BZ
101692006101692007-000551     101692006001023848079NOTE-PAD SHOP-LIST ASST0000001000+00001753+00000+0001T   00001753+0000001230          1400 GH4130               1BZ
101693000101693               101693               170213CT     1400+00000+CT0000018449+0000018449+000000000+000002586+0000021035+0000000000+I40000021035+0000000000+Z
101693001101693368-000023     101693006003000672264PLUSH BEAR 21.5cm      0000001000+00007016+00000+0001T   00007016+0000001408          1400 GH4745               1BZ
101693002101693039-001023     101693006003000466337CANDLE TEA-LITE METALIC0000001000+00001753+00000+0001T   00001753+0000001408          1400 GH4510               1BZ
101693003101693567-007950     101693009781775782469LHA BABA SE KLEIN BLOU 0000001000+00007016+00000+0001T   00007016+0000001408          1400 GH4757               1BZ
101693004101693563-000318-L   101693006003000407088SERVIETTES 33cm RED    0000001000+00002192+00000+0001T   00002192+0000001408          1400 GH4214               1BZ
101693005101693112-116038     101693006009681820246TCS CARRIER BAG MIDI   0000001000+00000035+00000+0001T   00000035+0000001408          1400 GH4090               1BZ
101693006101693080-000133     101693006003000535613CARD&ENV MINI ASTD DSGN0000001000+00000437+00000+0001T   00000437+0000001408          1400 GH4112               1BZ
101694000101694               101694               170213CT     1400+00000+CT0000012277+0000012277+000000000+000001720+0000013990+0000000007+I20000000000+0000013990+Z
101694001101694466-000602     101694006001023508010BALL SOCCER 2-PLY NEON 0000001000+00008771+00000+0001T   00008771+0000001410          1400 GH4785               1BZ
101694002101694466-000200     101694006001023621665HULA-HOOP     ASSTD    0000002000+00001753+00000+0001T   00001753+0000001410          1400 GH4785               1BZ
101695000101695               101695               170213CT     1400+00000+CT0000007364+0000007364+000000000+000001032+0000008390+0000000006+I20000000000+0000008390+Z
101695001101695031-000923     101695006001023669933P/FRAME BLK W/WORDS    0000001000+00003507+00000+0001T   00003507+0000001411          1400 GH4510               1BZ
101695002101695077-000318     101695006001023609755GIFT-BAG 18X23CM E/D AN0000001000+00001227+00000+0001T   00001227+0000001411          1400 GH4112               1BZ
101695003101695018-000129     101695006001023403353MUG OCC. LOVE V-SHAPE  0000001000+00002630+00000+0001T   00002630+0000001411          1400 GH4515               1BZ
101696000101696               101696               170213CT     1400+00000+CT0000005260+0000005260+000000000+000000737+0000005990+0000000007+I20000000000+0000005990+Z
101696001101696077-000357     101696006003000139354GIFT-BAG 18X23CM B/DAY 0000001000+00001753+00000+0001T   00001753+0000001412          1400 GH4112               1BZ
101696002101696031-000002-A   101696006003000247103P/FRAME LOVE 7.5X7.5CM 0000001000+00003507+00000+0001T   00003507+0000001412          1400 GH4510               1BZ
101697000101697               101697               170213CT     1400+00000+CT0000006139+0000006139+000000000+000000860+0000006999+0000000000+I40000006999+0000000000+Z
101697001101697031-006540     101697006001023695031P/FRAME PL 3-(10X15CM) 0000001000+00006139+00000+0001T   00006139+0000001416          1400 GH4510               1BZ
101698000101698               101698               170213CT     1400+00000+CT0000004383+0000004383+000000000+000000615+0000004990+0000000008+I20000000000+0000004990+Z
101698001101698150-012228-H   101698006001023416773DOOR-STOPPERS SET-OF-2 0000001000+00001753+00000+0001T   00001753+0000001417          1400 GH4810               1BZ
101698002101698200-000042     101698006001023868886BAG-SEALERS 10PCE      0000001000+00002630+00000+0001T   00002630+0000001417          1400 GH4214               1BZ
101699000101699               101699               170213CT     1400+00000+CT0000010832+0000010832+000000000+000001518+0000012350+0000000000+I40000012350+0000000000+Z
101699001101699031-080508     101699006001023802415P/FRAME PL 22X11CM LOVE0000001000+00004385+00000+0001T   00004385+0000001429          1400 GH4510               1BZ
101699002101699018-000136     101699006001023659026MUG OCC LOVE W/PLUSH   0000001000+00003507+00000+0001T   00003507+0000001429          1400 GH4515               1BZ
101699003101699077-000299     101699006003000395576G/BAG 32x25cm LRG LOVE 0000001000+00001490+00000+0001T   00001490+0000001429          1400 GH4112               1BZ
101699004101699112-116069     101699006009681820277TCS CARRIER BAG JUMBO  0000001000+00000048+00000+0001T   00000048+0000001429          1400 GH4090               1BZ
101699005101699304-001204     101699006001023737984FLOWER OCC. TEDDY/ROSES0000001000+00001402+00000+0001T   00001490+0006471429          1400 GH4510               1BZ
101700000101700               101700               170213CT     1400+00000+CT0000013024+0000013024+000000000+000001825+0000014849+0000000000+I40000014849+0000000000+Z
101700001101700361-003015     101700006003000543168DOLLS 14CM MERMAIDS 4PC0000001000+00005262+00000+0001T   00005262+0000001431          1400 GH4725               1BZ
101700002101700903-005000     101700006002580020007SWT CT MALLOW FISH 120g0000001000+00001314+00000+0001T   00001314+0000001431          1400 GH4150               1BZ
101700003101700903-000090     101700006009826020821SWT GS CHOCO COINS 60g 0000002000+00002104+00000+0001T   00002104+0000001431          1400 GH4150               1BZ
101700004101700077-000922     101700006003000413935G/WRAP 700mmx2m FLOWER 0000001000+00002192+00000+0001T   00002192+0000001431          1400 GH4112               1BZ
101700005101700112-116069     101700006009681820277TCS CARRIER BAG JUMBO  0000001000+00000048+00000+0001T   00000048+0000001431          1400 GH4090               1BZ
101701000101701               101701               170213CT     1400+00000+CT0000001314+0000001314+000000000+000000184+0000001490+0000000008+I20000000000+0000001490+Z
101701001101701089-000187     101701006003000594245KEY CHAIN PVC DUCK 3.5 0000001000+00001314+00000+0001T   00001314+0000001445          1400 GH4205               1BZ
101702000101702               101702               170213CT     1400+00000+CT0000008819+0000008819+000000000+000001235+0000010050+0000000004+I20000000000+0000010050+Z
101702001101702486-001016     101702006001023847416W/CLOCK QTZ PL RND 25CM0000001000+00008771+00000+0001T   00008771+0000001449          1400 GH4510               1BZ
101702002101702112-116069     101702006009681820277TCS CARRIER BAG JUMBO  0000001000+00000048+00000+0001T   00000048+0000001449          1400 GH4090               1BZ
101703000101703               101703               170213CT     1400+00000+CT0000009377+0000009377+000000000+000001316+0000010693+0000000000+I40000010693+0000000000+Z
101703001101703903-000499     101703006001704012492SWT CHOC MALLOWS 50g   0000001000+00001227+00000+0001T   00001227+0000001456          1400 GH4150               1BZ
101703002101703903-000138     101703006002099004314SWT GS WINE GUMS 60G   0000002000+00000788+00000+0001T   00000788+0000001456          1400 GH4150               1BZ
101703003101703306-000998     101703006003000519927FIRSTAID PLASTER 20PC  0000002000+00002630+00000+0001T   00002630+0000001456          1400 GH4200               1BZ
101703004101703077-000310     101703006001023608635GIFT-BAG 18X23CM GLOSS 0000001000+00001314+00000+0001T   00001314+0000001456          1400 GH4112               1BZ
101704000101704               101704               170213CT     1400+00000+CT0000007500+0000007500+000000000+000001051+0000008550+0000000001+I20000000000+0000008550+Z
101704001101704252-000013     101704006001023488107CURTN-HOOK R6 ACETYLx500000001000+00000876+00000+0001T   00000876+0000001459          1400 GH4810               1BZ
101704002101704252-000011     101704006001023475190CURTN-GLIDER ACETYL x500000001000+00000876+00000+0001T   00000876+0000001459          1400 GH4810               1BZ
101704003101704159-000801     101704006001023999832BATHMAT 36x59cm ASST   0000001000+00005700+00000+0001T   00005700+0000001459          1400 GH4200               1BZ
101704004101704112-116069     101704006009681820277TCS CARRIER BAG JUMBO  0000001000+00000048+00000+0001T   00000048+0000001459          1400 GH4090               1BZ
101705000101705               101705               170213CT     1400+00000+CT0000004385+0000004385+000000000+000000614+0000004990+0000000009+I20000000000+0000004990+Z
101705001101705082-000110     101705006003000360482READING GLS STRENGHT:2 0000001000+00004385+00000+0001T   00004385+0000001505          1400 GH4160               1BZ
101706000101706               101706               170213CT     1400+00000+CT0000007884+0000007884+000000000+000001104+0000008980+0000000008+I20000000000+0000008980+Z
101706001101706006-000167-C   101706006003000516971BALLOONS PINK METALLIC 0000006000+00001314+00000+0001T   00001314+0000001507          1400 GH4131               1BZ
101707000101707               101707               170213CT     1400+00000+CT0000016030+0000016030+000000000+000002249+0000018279+0000000000+I40000018279+0000000000+Z
101707001101707566-000200     101707006003000384174STICKER PUFFY NEON     0000001000+00000876+00000+0001T   00000876+0000001512          1400 GH4130               1BZ
101707002101707566-000535     101707006003000284719STICKER SPARKLE EMBOSS 0000002000+00001753+00000+0001T   00001753+0000001512          1400 GH4130               1BZ
101707003101707567-004955     101707009780636049130SPF G01 WISKUNDE       0000002000+00002192+00000+0001T   00002192+0000001512          1400 GH4757               1BZ
101707004101707566-001212     101707000721129014166STICKERS MICRO ASSTD   0000001000+00000657+00000+0001T   00000657+0000001512          1400 GH4130               1BZ
101707005101707304-001204     101707006001023737984FLOWER OCC. TEDDY/ROSES0000001000+00001402+00000+0001T   00001490+0006471512          1400 GH4510               1BZ
101707006101707304-001011     101707006001023806727FLWR ROSE RED W/BEAR   0000001000+00000613+00000+0001T   00000788+0006471512          1400 GH4510               1BZ
101707007101707368-000100     101707006001023474742PLUSH MD BEAR 12cm     0000001000+00002630+00000+0001T   00002630+0000001512          1400 GH4745               1BZ
101707008101707077-000384     101707006003000275243G/BAG HOT STMP 18x23CM 0000001000+00001490+00000+0001T   00001490+0000001512          1400 GH4112               1BZ
101707009101707112-116038     101707006009681820246TCS CARRIER BAG MIDI   0000001000+00000035+00000+0001T   00000035+0000001512          1400 GH4090               1BZ
101707010101707080-000133     101707006003000535613CARD&ENV MINI ASTD DSGN0000001000+00000437+00000+0001T   00000437+0000001512          1400 GH4112               1BZ
101708000101708               101708               170213CT     1400+00000+CT0000000437+0000000437+000000000+000000062+0000000490+0000000009+I20000000000+0000000490+Z
101708001101708080-000133-A   101708006003000647019MINI VALENTINES CARD   0000001000+00000437+00000+0001T   00000437+0000001646          1400 GH4112               1BZ
101709000101709               101709               170213CT     1400+00000+CT0000038640+0000038640+000000000+000005412+0000044052+0000000000+I40000044052+0000000000+Z
101709001101709266-001024     101709006003000022274SWORD SET MEDIEVAL     0000002000+00015788+00000+0001T   00015788+0000001649          1400 GH4710               1BZ
101709002101709174-000305     101709006003000105502TRAVEL NECK-PILLOW     0000001000+00007016+00000+0001T   00007016+0000001649          1400 GH4205               1BZ
101709003101709112-116069     101709006009681820277TCS CARRIER BAG JUMBO  0000001000+00000048+00000+0001T   00000048+0000001649          1400 GH4090               1BZ
101710000101710               101710               170213CT     1400+00000+CT0000011436+0000011436+000000000+000001602+0000013030+0000000008+I20000000000+0000013030+Z
101710001101710203-001247     101710006001023770813C/SCREW WAITER'S-FRIEND0000001000+00002630+00000+0001T   00002630+0000001651          1400 GH4300               1BZ
101710002101710001-091415     101710006003000329113W/GLS OCC. LOVE 2PC 2800000001000+00008771+00000+0001T   00009648+0006471651          1400 GH4515               1BZ
101710003101710112-116038     101710006009681820246TCS CARRIER BAG MIDI   0000001000+00000035+00000+0001T   00000035+0000001651          1400 GH4090               1BZ
101711000101711               101711               170213CT     1400+00000+CT0000001490+0000001490+000000000+000000209+0000001690+0000000009+I20000000000+0000001690+Z
101711001101711084-070001     101711006001023630018NAIL FILE 12cm         0000001000+00001490+00000+0001T   00001490+0000001654          1400 GH4200               1BZ
101712000101712               101712               170213CT     1400+00000+CT0000008364+0000008364+000000000+000001172+0000009536+0000000000+I40000009536+0000000000+Z
101712001101712369-000225     101712006001023857132BABY EDU BATHTIME 5PC  0000001000+00002630+00000+0001T   00002630+0000001658          1400 GH4745               1BZ
101712002101712112-116038     101712006009681820246TCS CARRIER BAG MIDI   0000001000+00000035+00000+0001T   00000035+0000001658          1400 GH4090               1BZ
101712003101712369-001031     101712006001023796219BABY RATTLE SET 2PC    0000001000+00003507+00000+0001T   00003507+0000001658          1400 GH4745               1BZ
101712004101712369-001010     101712006001023864222BATH VINYL DUCK 4PC    0000001000+00002192+00000+0001T   00002192+0000001658          1400 GH4745               1BZ
101713000101713               101713               170213CT     1400+00000+CT0000002240+0000002240+000000000+000000314+0000002550+0000000004+I20000000000+0000002550+Z
101713001101713080-000127     101713006003000424351VALENTINES DAY 36x24CM 0000001000+00002192+00000+0001T   00002192+0000001658          1400 GH4112               1BZ
101713002101713112-116069     101713006009681820277TCS CARRIER BAG JUMBO  0000001000+00000048+00000+0001T   00000048+0000001658          1400 GH4090               1BZ
101714000101714               101714               170213CT     1400+00000+CT0000011357+0000011357+000000000+000001592+0000012949+0000000000+I40000012949+0000000000+Z
101714001101714105-007015     101714006001023168221CONTAINER PL ROUND     0000001000+00003507+00000+0001T   00003507+0000001701          1400 GH4210               1BZ
101714002101714106-000899     101714006003000653287WTR BOTTLE 2L W/HANDLE 0000001000+00003069+00000+0001T   00003507+0008191701          1400 GH4210               1BZ
101714003101714047-000507     101714006001023684479PLUG-ADAPTOR EURO TWIN 0000001000+00001753+00000+0001T   00001753+0000001701          1400 GH4880               1BZ
101714004101714106-001100-B   101714006001023651693FRIDGE BOTTLE ASSORTED 0000002000+00001490+00000+0001T   00001490+0000001701          1400 GH4210               1BZ
101714005101714112-116069     101714006009681820277TCS CARRIER BAG JUMBO  0000001000+00000048+00000+0001T   00000048+0000001701          1400 GH4090               1BZ
101715000101715               101715               170213CT     1400+00000+CT0000003503+0000003503+000000000+000000493+0000003990+0000000006+I20000000000+0000003990+Z
101715001101715080-000133-A   101715006003000647019MINI VALENTINES CARD   0000001000+00000437+00000+0001T   00000437+0000001701          1400 GH4112               1BZ
101715002101715080-000133     101715006003000535613CARD&ENV MINI ASTD DSGN0000001000+00000437+00000+0001T   00000437+0000001701          1400 GH4112               1BZ
101715003101715077-000011-X   101715006001023809827TISSUE-WRAP SILVER 10PC0000001000+00001753+00000+0001T   00001753+0000001701          1400 GH4112               1BZ
101715004101715077-000011-F   101715006001023808431TISSUE-WRAP BLUE/LILAC 0000001000+00000876+00000+0001T   00000876+0000001701          1400 GH4112               1BZ
101716000101716               101716               170213CT     1400+00000+CT0000003069+0000003069+000000000+000000430+0000003490+0000000009+I20000000000+0000003490+Z
101716001101716567-011307     101716006003000598557BOOK ACTIVITY FUN WATER0000001000+00003069+00000+0001T   00003069+0000001704          1400 GH4757               1BZ
101717000101717               101717               170213CT     1400+00000+CT0000000876+0000000876+000000000+000000123+0000000990+0000000009+I20000000000+0000000990+Z
101717001101717071-003004     101717006003000662821PEN BALL POINT 3PC BLUE0000001000+00000876+00000+0001T   00000876+0000001724          1400 GH4130               1BZ
101718000101718               101718               170213CT     1400+00000+CT0000017500+0000017500+000000000+000002450+0000019950+0000000000+I20000000000+0000019950+Z
101718001101718018-000177     101718006001023797513MUG MINI LOVE ASSTD    0000025000+00000700+00000+0001T   00000700+0000001731          1400 GH4515               1BZ
101719000101719               101719               170213CT     1400+00000+CT0000007629+0000007629+000000000+000001069+0000008690+0000000008+I20000000000+0000008690+Z
101719001101719077-000299     101719006003000395576G/BAG 32x25cm LRG LOVE 0000001000+00001490+00000+0001T   00001490+0000001731          1400 GH4112               1BZ
101719002101719264-000922     101719000090159250012MAISTO CAR PULL-BACK   0000001000+00006139+00000+0001T   00007016+0008191731          1400 GH4710               1BZ
101720000101720               101720               170213CT     1400+00000+CT0000015637+0000015637+000000000+000002193+0000017830+0000000000+I20000000000+0000017830+Z
101720001101720566-000506     101720006001023671455TATTOO BODY STICKER    0000003000+00001578+00000+0001T   00001578+0000001735          1400 GH4130               1BZ
101720002101720566-000309     101720006003000523283STICKER CHALK-BOARD    0000001000+00001753+00000+0001T   00001753+0000001735          1400 GH4130               1BZ
101720003101720566-000038     101720006003000100514TATTOO METALLIC 6 ASST 0000001000+00001753+00000+0001T   00001753+0000001735          1400 GH4130               1BZ
101720004101720563-000317-H   101720006001023776358SERVIETTE DOTS+STRIPES 0000001000+00002630+00000+0001T   00002630+0000001735          1400 GH4214               1BZ
101720005101720366-004050     101720006003000308330DRESS UP TEEN BADGES   0000002000+00001490+00000+0001T   00001490+0000001735          1400 GH4131               1BZ
101720006101720039-000319-6   101720006003000442980B/CANDLES LRG NUMBER-6 0000001000+00000876+00000+0001T   00000876+0000001735          1400 GH4510               1BZ
101720007101720039-000319-5   101720006003000442867B/CANDLES LRG NUMBER-5 0000001000+00000876+00000+0001T   00000876+0000001735          1400 GH4510               1BZ
101720008101720112-116038     101720006009681820246TCS CARRIER BAG MIDI   0000001000+00000035+00000+0001T   00000035+0000001735          1400 GH4090               1BZ
101721000101721               101721               170213CT     1400+00000+CT0000006487+0000006487+000000000+000000909+0000007396+0000000000+I40000007396+0000000000+Z
101721001101721007-000324     10172100600968585864125 SHEETS BRIGHTS MARLI0000001000+00003507+00000+0001T   00003507+0000001739          1400 GH4130               1BZ
101721002101721007-000094     101721006003000659289ENVELOPES WHT 5PK C4   0000001000+00001753+00000+0001T   00001753+0000001739          1400 GH4130               1BZ
101721003101721071-081091     101721006001151010287STAED/GENKEM ALL-STICK 0000001000+00001227+00000+0001T   00001227+0000001739          1400 GH4130               1BZ
101722000101722               101722               170213CT     1400+00000+CT0000003507+0000003507+000000000+000000491+0000003990+0000000008+I20000000000+0000003990+Z
101722001101722103-000090     101722006001023795786WOVEN HEART SHAPED     0000001000+00003507+00000+0001T   00003507+0000001740          1400 GH4300               1BZ
A17021300                                          11102621CTSLAVE 1                       1IC1IC
A17021301                                          11184285CTSLAVE 1                       LI83IC
M17021391                              CASH        CTSLAVE 1                       Z-REPORT No.   642TOTAL (Sales - Refunds)           3968.62       CASH TO BE BANKED                 1755.30       DEBIT CARDS                          0.00       CREDIT CARDS                      2213.32       Z-READING                         3968.62       AIRTIME DEBIT CARD SALES             0.00       AIRTIME CARD SALES                   0.00       OVERS/UNDERS                         0.00       AIRTIME CASH SALES                   0.00       GIFT CARDS                           0.00       GIFT CARD CASH SALES                 0.00       T O T A L  CASH PAYOUTS              0.00                                                                                                                                                                                                                                                                                                                                                      Z
M17021392                              CASH        CTABSENT                                                                                                                                                                                          ANNUAL LEAVE                                                                                                                                                                                    DAY OFF                                                                                                                                                                                         COMMENTS                                                                                                                                                                                                                                                                                                                                                                                       Z
Y17021300                                          CT00000000348242+000042
ZCT17021319263 SLAVE 1      SALES DATA                     NEXT INVOICE NO.  101723 0642
X CT Slave 1 First invoice 101681 170213 Last invoice 101722 170213 Next invoice 101723 Total number of records 000000164 clbackup completed 19:26:53
