129047000129047               129047               170213CT     1400+00000+CT0000000350+0000000350+000000000+000000049+0000000390+0000000009+I20000000000+0000000390+Z
129047001129047007-000167     129047006009685857347SPIRAL NOTES A7 72PG   0000001000+00000350+00000+0001T   00000350+0000000900          1400 AG5130               3AZ
129048000129048               129048               170213CT     1400+00000+CT0000004470+0000004470+000000000+000000627+0000005090+0000000007+I20000000000+0000005090+Z
129048001129048019-071611     129048006003000513642PEBBLES W/GEM 10g CLEAR0000003000+00001490+00000+0001T   00001490+0000000902          1400 AG5510               3AZ
129049000129049               129049               170213CT     1400+00000+CT0000005171+0000005171+000000000+000000726+0000005890+0000000007+I20000000000+0000005890+Z
129049001129049089-060027     129049006003000245871KEY-CHAIN HEART 6X6cm  0000001000+00003069+00000+0001T   00003069+0000000906          1400 AG5205               3AZ
129049002129049079-009702-D   129049008427973059354PAPER SIRIO A2 RED COL 0000002000+00001051+00000+0001T   00001051+0000000906          1400 AG5130               3AZ
129050000129050               129050               170213CT     1400+00000+CT0000029818+0000029818+000000000+000004175+0000033990+0000000003+I20000000000+0000033990+Z
129050001129050079-000286     129050006001023797032FINGER-PAINT 4PCE      0000001000+00003507+00000+0001T   00003507+0000000907          1400 AG5130               3AZ
129050002129050562-000199     129050006001023732910PUSH-IN BOARD WDN ASSTD0000001000+00005262+00000+0001T   00005262+0000000907          1400 AG5755               3AZ
129050003129050567-011491     129050006003000663736BK COLOURING 96P DISNEY0000001000+00003507+00000+0001T   00003507+0000000907          1400 AG5757               3AZ
129050004129050079-000198     129050006003000542475ART+CRAFT SET 66PCE    0000001000+00008771+00000+0001T   00008771+0000000907          1400 AG5130               3AZ
129050005129050001-091415     129050006003000329113W/GLS OCC. LOVE 2PC 2800000001000+00008771+00000+0001T   00009648+0006470907          1400 AG5515               3AZ
129051000129051               129051               170213CT     1400+00000+CT0000000876+0000000876+000000000+000000123+0000000990+0000000009+I20000000000+0000000990+Z
129051001129051007-000127     129051006009685853431BOOK H/COVER MEMO 144PG0000001000+00000876+00000+0001T   00000876+0000000908          1400 AG5130               3AZ
129052000129052               129052               170213CT     1400+00000+CT0000004385+0000004385+000000000+000000614+0000004990+0000000009+I20000000000+0000004990+Z
129052001129052082-000115     129052006003000360604READING GLS STRNGHT:2.50000001000+00004385+00000+0001T   00004385+0000000913          1400 AG5160               3AZ
129053000129053               129053               170213CT     1400+00000+CT0000001787+0000001787+000000000+000000251+0000002030+0000000008+I20000000000+0000002030+Z
129053001129053007-000045     129053006009608640438DISPLAY-POCKETS A4 10PC0000001000+00000876+00000+0001T   00000876+0000000914          1400 AG5130               3AZ
129053002129053039-000319-5   129053006003000442867B/CANDLES LRG NUMBER-5 0000001000+00000876+00000+0001T   00000876+0000000914          1400 AG5510               3AZ
129053003129053112-116038     129053006009681820246TCS CARRIER BAG MIDI   0000001000+00000035+00000+0001T   00000035+0000000914          1400 AG5090               3AZ
129054000129054               129054               170213CT     1400+00000+CT0000055292+0000055292+000000000+000007747+0000063039+0000000000+I40000063039+0000000000+Z
129054001129054112-116069     129054006009681820277TCS CARRIER BAG JUMBO  0000001000+00000048+00000+0001T   00000048+0000000918          1400 AG5090               3AZ
129054002129054566-000865     129054006001023788412STICKER ASSTD          0000001000+00001753+00000+0001T   00001753+0000000918          1400 AG5130               3AZ
129054003129054079-000358     129054006003000591046ART+CRAFT FELT-TIP PENS0000001000+00003069+00000+0001T   00003069+0000000918          1400 AG5130               3AZ
129054004129054469-006601     129054006003000390205B/BLOCKS LINKS 26PC    0000001000+00004385+00000+0001T   00004385+0000000918          1400 AG5755               3AZ
129054005129054561-000045     129054009780710514424BOOK PAINT-MAGIC 32PG  0000001000+00002630+00000+0001T   00002630+0000000918          1400 AG5757               3AZ
129054006129054266-000605     129054006003000599363BOYS P/SET PARACHUTE   0000001000+00004385+00000+0001T   00004385+0000000918          1400 AG5710               3AZ
129054007129054567-011306     129054006003000598434BOOK ACTIVITY TRACE    0000001000+00003069+00000+0001T   00003069+0000000918          1400 AG5757               3AZ
129054008129054496-055503     129054000078257555031INTEX TOYS FUN BALLS   0000001000+00006139+00000+0001T   00006139+0000000918          1400 AG5787               3AZ
129054009129054562-000020     129054006003000600861EDU PLAY DOUGH 60g 4PC 0000001000+00003507+00000+0001T   00003507+0000000918          1400 AG5755               3AZ
129054010129054469-006601     129054006003000390205B/BLOCKS LINKS 26PC    0000001000+00004385+00000+0001T   00004385+0000000918          1400 AG5755               3AZ
129054011129054562-000209     129054006003000104710EDU 32PCS BLOCKS WAGON 0000001000+00011402+00000+0001T   00011402+0000000918          1400 AG5755               3AZ
129054012129054560-000703     129054006003000332403INSECTS 9PC ASSTD      0000001000+00001753+00000+0001T   00001753+0000000918          1400 AG5745               3AZ
129054013129054560-000101     129054006001023548740ANIMALS OCEAN-IN-TUBE  0000001000+00003507+00000+0001T   00003507+0000000918          1400 AG5745               3AZ
129054014129054903-000591     129054006003000563616SWEET ANIMAL 24cm      0000001000+00002630+00000+0001T   00002630+0000000918          1400 AG5150               3AZ
129054015129054903-000590     129054006003000563494SWT TOY REVOLVER 22cm  0000001000+00002630+00000+0001T   00002630+0000000918          1400 AG5150               3AZ
129055000129055               129055               170213CT     1400+00000+CT0000006139+0000006139+000000000+000000860+0000006990+0000000009+I20000000000+0000006990+Z
129055001129055007-000898     129055006001023871947BOOK JOURNAL           0000001000+00006139+00000+0001T   00006139+0000000918          1400 AG5130               3AZ
129056000129056               129056               170213CT     1400+00000+CT0000000788+0000000788+000000000+000000111+0000000890+0000000009+I20000000000+0000000890+Z
129056001129056071-081101-A   129056006003000326549GLUE-STICK 25g BLISTER 0000001000+00000788+00000+0001T   00000788+0000000923          1400 AG5130               3AZ
129057000129057               129057               170213CT     1400+00000+CT0000001753+0000001753+000000000+000000246+0000001990+0000000009+I20000000000+0000001990+Z
129057001129057200-003024     129057006001023657299REFUSE BAGS 20PCE BLACK0000001000+00001753+00000+0001T   00001753+0000000923          1400 AG5214               3AZ
129058000129058               129058               170213CT     1400+00000+CT0000000350+0000000350+000000000+000000049+0000000390+0000000009+I20000000000+0000000390+Z
129058001129058007-000167     129058006009685857347SPIRAL NOTES A7 72PG   0000001000+00000350+00000+0001T   00000350+0000000935          1400 AG5130               3AZ
129059000129059               129059               170213CT     1400+00000+CT0000001613+0000001613+000000000+000000226+0000001830+0000000009+I20000000000+0000001830+Z
129059001129059080-000124     129059006003000297733CARD & ENV VALENTINES  0000001000+00001578+00000+0001T   00001578+0000000940          1400 AG5112               3AZ
129059002129059112-116038     129059006009681820246TCS CARRIER BAG MIDI   0000001000+00000035+00000+0001T   00000035+0000000940          1400 AG5090               3AZ
129060000129060               129060               170213CT     1400+00000+CT0000001753+0000001753+000000000+000000246+0000001999+0000000000+I40000001999+0000000000+Z
129060001129060162-089176     129060006001492891767SS KIDS 2PK HEART SET  0000001000+00001753+00000+0001T   00001753+0000000941          1400 AG5160               3AZ
129061000129061               129061               170213CT     1400+00000+CT0000002630+0000002630+000000000+000000369+0000002990+0000000009+I20000000000+0000002990+Z
129061001129061031-086219     129061006001023761729P/FRAME 9x13cm CURVED  0000001000+00002630+00000+0001T   00002630+0000000942          1400 AG5510               3AZ
129062000129062               129062               170213CT     1400+00000+CT0000001490+0000001490+000000000+000000209+0000001690+0000000009+I20000000000+0000001690+Z
129062001129062071-009836     129062006001023591067BACK-TO-SCHOOL SET     0000001000+00001490+00000+0001T   00001490+0000000942          1400 AG5130               3AZ
129063000129063               129063               170213CT     1400+00000+CT0000016696+0000016696+000000000+000002339+0000019035+0000000000+I40000019035+0000000000+Z
129063001129063065-003636     129063006003000231997MICROPHONE SINGER      0000001000+00008771+00000+0001T   00008771+0000000945          1400 AG5745               3AZ
129063002129063162-096646     129063006001492966465#TAG HOT DEALS KIDS HR 0000001000+00002630+00000+0001T   00002630+0000000945          1400 AG5160               3AZ
129063003129063082-012383     129063006001492123837#SUNGLASS KIDS OVAL    0000001000+00003946+00000+0001T   00003946+0000000945          1400 AG5160               3AZ
129063004129063046-000012     129063006904708013062BATTERIES AA  CARD-OF-40000001000+00001314+00000+0001T   00001314+0000000945          1400 AG5312               3AZ
129063005129063112-116038     129063006009681820246TCS CARRIER BAG MIDI   0000001000+00000035+00000+0001T   00000035+0000000945          1400 AG5090               3AZ
129064000129064               129064               170213CT     1400+00000+CT0000002630+0000002630+000000000+000000369+0000002999+0000000000+I40000002999+0000000000+Z
129064001129064107-003120     129064006003000676958BASIN W/HANDLES FLEXI  0000001000+00002630+00000+0001T   00002630+0000000946          1400 AG5210               3AZ
129065000129065               129065               170213CT     1400+00000+CT0000005260-0000005260-000000000+000000738-0000006000-0000000002+I20000000000+0000006000-Z
129065001129065056-065302     129065006001023759566CAR SUN-SHIELD ALM-FOIL0000002000-00002630+00000+0001T   00002630+0000000948          1400 AG58603IC            3 Z
129066000129066               129066               170213CT     1400+00000+CT0000001225+0000001225+000000000+000000173+0000001390+0000000008+I20000000000+0000001390+Z
129066001129066080-000133-A   129066006003000647019MINI VALENTINES CARD   0000001000+00000437+00000+0001T   00000437+0000000949          1400 AG5112               3AZ
129066002129066903-000119     129066006001704007337SWT COCONUT-WHEEL      0000001000+00000788+00000+0001T   00000788+0000000949          1400 AG5150               3AZ
129067000129067               129067               170213CT     1400+00000+CT0000002453+0000002453+000000000+000000344+0000002790+0000000007+I20000000000+0000002790+Z
129067001129067007-000167     129067006009685857347SPIRAL NOTES A7 72PG   0000002000+00000350+00000+0001T   00000350+0000000958          1400 AG5130               3AZ
129067002129067133-000018     129067006003000583218SWAB MICROFIBRE 30x30cm0000001000+00001753+00000+0001T   00001753+0000000958          1400 AG5212               3AZ
129068000129068               129068               170213CT     1400+00000+CT0000002192+0000002192+000000000+000000307+0000002490+0000000009+I20000000000+0000002490+Z
129068001129068024-091103     129068006003453014307BAKING-CUP MUFFIN 50PCE0000001000+00002192+00000+0001T   00002192+0000001005          1400 AG5300               3AZ
129069000129069               129069               170213CT     1400+00000+CT0000004643+0000004643+000000000+000000653+0000005290+0000000006+I20000000000+0000005290+Z
129069001129069079-009702-A   129069008427973059408PAPER SIRIO A2 BLACK   0000003000+00001051+00000+0001T   00001051+0000001016          1400 AG5130               3AZ
129069002129069071-005214     129069006003000152544CELLOTAPE SUPER REFILL 0000001000+00001490+00000+0001T   00001490+0000001016          1400 AG5130               3AZ
129070000129070               129070               170213CT     1400+00000+CT0000010120+0000010120+000000000+000001418+0000011538+0000000000+I40000011538+0000000000+Z
129070001129070004-071209     129070006003000604678MOBILE IN CAR HOLDER   0000001000+00007893+00000+0001T   00007893+0000001021          1400 AG5310               3AZ
129070002129070082-000392     129070006003000621811SPECTACLE REPAIR KIT   0000001000+00002192+00000+0001T   00002192+0000001021          1400 AG5160               3AZ
129070003129070112-116038     129070006009681820246TCS CARRIER BAG MIDI   0000001000+00000035+00000+0001T   00000035+0000001021          1400 AG5090               3AZ
129071000129071               129071               170213CT     1400+00000+CT0000011694+0000011694+000000000+000001639+0000013333+0000000000+I40000013333+0000000000+Z
129071001129071206-000180     129071006003000631223TEA INFUSER TEAMAN     0000001000+00004385+00000+0001T   00004385+0000001105          1400 AG5321               3AZ
129071002129071112-116038     129071006009681820246TCS CARRIER BAG MIDI   0000001000+00000035+00000+0001T   00000035+0000001105          1400 AG5090               3AZ
129071003129071078-000026     129071006936198407090SUPERGLUE 3,0g GEL     0000001000+00001753+00000+0001T   00001753+0000001105          1400 AG5810               3AZ
129071004129071206-000630     129071006003000631919SPECTACLE CLEANING BRUS0000002000+00001227+00000+0001T   00001227+0000001105          1400 AG5321               3AZ
129071005129071036-000010     129071006003000675777LINT REMOVER STICKY    0000001000+00001753+00000+0001T   00001753+0000001105          1400 AG5212               3AZ
129071006129071002-000037     129071006001023887467SANDWICH-CUTTER PL ASST0000001000+00001314+00000+0001T   00001314+0000001105          1400 AG5300               3AZ
129072000129072               129072               170213CT     1400+00000+CT0000002628+0000002628+000000000+000000368+0000002996+0000000000+I40000002996+0000000000+Z
129072001129072006-000166-D   129072006003000516490BALLOONS LRG 6PC RED   0000002000+00001314+00000+0001T   00001314+0000001107          1400 AG5131               3AZ
129073000129073               129073               170213CT     1400+00000+CT0000006139+0000006139+000000000+000000860+0000006990+0000000009+I20000000000+0000006990+Z
129073001129073035-000001     129073006002596010566UMBRELLA LADIES W/MINI 0000001000+00006139+00000+0001T   00006139+0000001107          1400 AG5205               3AZ
129074000129074               129074               170213CT     1400+00000+CT0000002488+0000002488+000000000+000000349+0000002830+0000000007+I20000000000+0000002830+Z
129074001129074007-000166     129074006009685857316SPIRAL NOTES A6 100PG  0000001000+00000700+00000+0001T   00000700+0000001108          1400 AG5130               3AZ
129074002129074108-005005     129074006003000667451TRAY PL 29x21cm RECT   0000001000+00001753+00000+0001T   00001753+0000001108          1400 AG5210               3AZ
129074003129074112-116038     129074006009681820246TCS CARRIER BAG MIDI   0000001000+00000035+00000+0001T   00000035+0000001108          1400 AG5090               3AZ
129075000129075               129075               170213CT     1400+00000+CT0000026834+0000026834+000000000+000003757+0000030591+0000000000+I40000030591+0000000000+Z
129075001129075467-000022     129075006001023787361BEACH WHEEL-BARROW+ACC 0000001000+00013157+00000+0001T   00013157+0000001114          1400 AG5785               3AZ
129075002129075463-000141     129075006003000521609WATER BLASTER LONG     0000003000+00003507+00000+0001T   00003507+0000001114          1400 AG5785               3AZ
129075003129075467-000001     129075006002923008280BEACH BUCKET PL 17x16cm0000002000+00001578+00000+0001T   00001578+0000001114          1400 AG5785               3AZ
129076000129076               129076               170213CT     1400+00000+CT0000009256+0000009256+000000000+000001297+0000010550+0000000003+I20000000000+0000010550+Z
129076001129076012-000012     129076006003000333646MICROWAVE MICRO-POT    0000001000+00003069+00000+0001T   00003069+0000001115          1400 AG5300               3AZ
129076002129076105-007510     129076006003000487424STORAGE BOX CLEAR 3.75L0000001000+00006139+00000+0001T   00006139+0000001115          1400 AG5210               3AZ
129076003129076112-116069     129076006009681820277TCS CARRIER BAG JUMBO  0000001000+00000048+00000+0001T   00000048+0000001115          1400 AG5090               3AZ
129077000129077               129077               170213CT     1400+00000+CT0000014078+0000014078+000000000+000001972+0000016050+0000000000+I20000000000+0000016050+Z
129077001129077012-000017     129077006003000366651MICRO OMELETTE MAKER   0000001000+00003507+00000+0001T   00003507+0000001117          1400 AG5300               3AZ
129077002129077112-116069     129077006009681820277TCS CARRIER BAG JUMBO  0000001000+00000048+00000+0001T   00000048+0000001117          1400 AG5090               3AZ
129077003129077012-000012     129077006003000333646MICROWAVE MICRO-POT    0000002000+00003069+00000+0001T   00003069+0000001117          1400 AG5300               3AZ
129077004129077105-007505     129077006003000487301STORAGE BOX CLEAR 2L   0000001000+00004385+00000+0001T   00004385+0000001117          1400 AG5210               3AZ
129078000129078               129078               170213CT     1400+00000+CT0000011402+0000011402+000000000+000001597+0000012999+0000000000+I40000012999+0000000000+Z
129078001129078586-098616     129078006001492986166WATCH TEEN CHARM HRT   0000001000+00011402+00000+0001T   00011402+0000001118          1400 AG5160               3AZ
129079000129079               129079               170213CT     1400+00000+CT0000000613+0000000613+000000000+000000086+0000000690+0000000009+I20000000000+0000000690+Z
129079001129079077-000321     129079006001023677501GIFT-BAG 11X14CM E/D FL0000001000+00000613+00000+0001T   00000613+0000001119          1400 AG5112               3AZ
129080000129080               129080               170213CT     1400+00000+CT0000000874+0000000874+000000000+000000124+0000000998+0000000000+I40000000998+0000000000+Z
129080001129080080-000133-A   129080006003000647019MINI VALENTINES CARD   0000002000+00000437+00000+0001T   00000437+0000001123          1400 AG5112               3AZ
129081000129081               129081               170213CT     1400+00000+CT0000002890+0000002890+000000000+000000407+0000003290+0000000007+I20000000000+0000003290+Z
129081001129081001-000001     129081006001023507266SHOT-GLASS 25ml        0000002000+00000393+00000+0001T   00000393+0000001127          1400 AG5515               3AZ
129081002129081150-000024     129081006001023435217BASIN-PLUG RUBBER/CHR  0000001000+00002104+00000+0001T   00002104+0000001127          1400 AG5810               3AZ
129082000129082               129082               170213CT     1400+00000+CT0000024119+0000024119+000000000+000003377+0000027496+0000000000+I40000027496+0000000000+Z
129082001129082266-008060     129082006003000301522P/SET LRG MILITARY TEAM0000001000+00017542+00000+0001T   00017542+0000001130          1400 AG5710               3AZ
129082002129082266-008040     129082006001023787002FIGURINE 6PC & ACCESS. 0000001000+00004385+00000+0001T   00004385+0000001130          1400 AG5710               3AZ
129082003129082077-000918     129082006003000413690G/WRAP 700mmx2m PATTERN0000001000+00002192+00000+0001T   00002192+0000001130          1400 AG5112               3AZ
129083000129083               129083               170213CT     1400+00000+CT0000007925+0000007925+000000000+000001112+0000009037+0000000000+I40000009037+0000000000+Z
129083001129083033-000008     129083006003000226818PILL REMINDER 28-COMPAR0000001000+00002630+00000+0001T   00002630+0000001133          1400 AG5200               3AZ
129083002129083024-091103-B   129083006003000422548CAKE BOX 6PC CUPCAKES  0000002000+00002630+00000+0001T   00002630+0000001133          1400 AG5300               3AZ
129083003129083112-116038     129083006009681820246TCS CARRIER BAG MIDI   0000001000+00000035+00000+0001T   00000035+0000001133          1400 AG5090               3AZ
129084000129084               129084               170213CT     1400+00000+CT0000004383+0000004383+000000000+000000615+0000004990+0000000008+I20000000000+0000004990+Z
129084001129084200-003024     129084006001023657299REFUSE BAGS 20PCE BLACK0000001000+00001753+00000+0001T   00001753+0000001136          1400 AG5214               3AZ
129084002129084015-002000     129084006001023640314BOWL S/STEEL MIXING 16c0000001000+00002630+00000+0001T   00002630+0000001136          1400 AG5515               3AZ
129085000129085               129085               170213CT     1400+00000+CT0000015788+0000015788+000000000+000002211+0000017990+0000000009+I20000000000+0000017990+Z
129085001129085486-002308     129085006003000580262ROUND QUARTZ WALL CLOCK0000001000+00015788+00000+0001T   00015788+0000001137          1400 AG5510               3AZ
129086000129086               129086               170213CT     1400+00000+CT0000007889+0000007889+000000000+000001107+0000008990+0000000006+I20000000000+0000008990+Z
129086001129086027-000091     129086006003000343966WINDOW CLEANER 22CM    0000001000+00001753+00000+0001T   00001753+0000001139          1400 AG5212               3AZ
129086002129086036-000606     129086006003000322213WASHING PEGS PACK 20   0000001000+00000876+00000+0001T   00001314+0008191139          1400 AG5212               3AZ
129086003129086002-000094     129086006001023489753PIZZA-CUTTER           0000001000+00002630+00000+0001T   00002630+0000001139          1400 AG5300               3AZ
129086004129086079-000201     129086006003000161430P/CRAYONS THERAPY 10PCE0000001000+00002630+00000+0001T   00002630+0000001139          1400 AG5130               3AZ
129087000129087               129087               170213CT     1400+00000+CT0000007677+0000007677+000000000+000001076+0000008750+0000000003+I20000000000+0000008750+Z
129087001129087018-050000     129087006003000412679MUG OCC LOVE TWIN BEAR 0000001000+00006139+00000+0001T   00006139+0000001141          1400 AG5515               3AZ
129087002129087077-000299     129087006003000395576G/BAG 32x25cm LRG LOVE 0000001000+00001490+00000+0001T   00001490+0000001141          1400 AG5112               3AZ
129087003129087112-116069     129087006009681820277TCS CARRIER BAG JUMBO  0000001000+00000048+00000+0001T   00000048+0000001141          1400 AG5090               3AZ
129088000129088               129088               170213CT     1400+00000+CT0000003678+0000003678+000000000+000000516+0000004190+0000000004+I20000000000+0000004190+Z
129088001129088006-001000     129088006003000093779HELIUM BALLOON FILL    0000006000+00000613+00000+0001T   00000613+0000001145          1400 AG5131               3AZ
129089000129089               129089               170213CT     1400+00000+CT0000005786+0000005786+000000000+000000811+0000006590+0000000007+I20000000000+0000006590+Z
129089001129089200-000042     129089006001023868886BAG-SEALERS 10PCE      0000001000+00002630+00000+0001T   00002630+0000001146          1400 AG5214               3AZ
129089002129089106-003115     129089006002689011357ICE CUBE-TRAYS 2PCE WHT0000002000+00001578+00000+0001T   00001578+0000001146          1400 AG5210               3AZ
129090000129090               129090               170213CT     1400+00000+CT0000003507+0000003507+000000000+000000491+0000003990+0000000008+I20000000000+0000003990+Z
129090001129090038-001800     129090006003000623303DOILIE PAPER HRT 24PC  0000001000+00003507+00000+0001T   00003507+0000001148          1400 AG5300               3AZ
129091000129091               129091               170213CT     1400+00000+CT0000001753+0000001753+000000000+000000246+0000001990+0000000009+I20000000000+0000001990+Z
129091001129091006-000120     129091006001023346889BALLOONS 10PC MIX COL  0000001000+00001753+00000+0001T   00001753+0000001150          1400 AG5131               3AZ
129092000129092               129092               170213CT     1400+00000+CT0000010995+0000010995+000000000+000001541+0000012536+0000000000+I40000012536+0000000000+Z
129092001129092206-000230     129092006003000631827MUFFIN TOP BAKING CUPS 0000002000+00001753+00000+0001T   00002630+0008171153          1400 AG5321               3AZ
129092002129092206-000180     129092006003000631223TEA INFUSER TEAMAN     0000001000+00004385+00000+0001T   00004385+0000001153          1400 AG5321               3AZ
129092003129092112-116038     129092006009681820246TCS CARRIER BAG MIDI   0000001000+00000035+00000+0001T   00000035+0000001153          1400 AG5090               3AZ
129092004129092072-020298     129092006003000561629DOG-TOY TUG-ROPE ASSTD 0000001000+00003069+00000+0001T   00003069+0000001153          1400 AG5870               3AZ
129093000129093               129093               170213CT     1400+00000+CT0000037763+0000037763+000000000+000005288+0000043051+0000000000+I40000043051+0000000000+Z
129093001129093206-000170     129093006003000631100POT HOLDER MTL MAN 20CM0000001000+00006139+00000+0001T   00006139+0000001155          1400 AG5321               3AZ
129093002129093466-009004     129093006001023189288BEACH-BAT-SET W/BALL   0000001000+00005262+00000+0001T   00005262+0000001155          1400 AG5785               3AZ
129093003129093022-010611     129093006001023733191ROASTER 26cm RND 1st-GR0000001000+00026314+00000+0001T   00026314+0000001155          1400 AG5305               3AZ
129093004129093112-116069     129093006009681820277TCS CARRIER BAG JUMBO  0000001000+00000048+00000+0001T   00000048+0000001155          1400 AG5090               3AZ
129094000129094               129094               170213CT     1400+00000+CT0000020821+0000020821+000000000+000002920+0000023741+0000000000+I40000023741+0000000000+Z
129094001129094304-001204     129094006001023737984FLOWER OCC. TEDDY/ROSES0000002000+00001402+00000+0001T   00001490+0006471205          1400 AG5510               3AZ
129094002129094077-000311     129094006001023608666GIFT-BAG 11X14CM GLOSS 0000002000+00000613+00000+0001T   00000613+0000001205          1400 AG5112               3AZ
129094003129094018-000177     129094006001023797513MUG MINI LOVE ASSTD    0000002000+00000700+00000+0001T   00000700+0000001205          1400 AG5515               3AZ
129094004129094089-060027     129094006003000245871KEY-CHAIN HEART 6X6cm  0000002000+00003069+00000+0001T   00003069+0000001205          1400 AG5205               3AZ
129094005129094162-096646     129094006001492966465#TAG HOT DEALS KIDS HR 0000002000+00002630+00000+0001T   00002630+0000001205          1400 AG5160               3AZ
129094006129094301-085002     129094006003000420704ORN OCC. LOVE BELL ASST0000001000+00001753+00000+0001T   00002630+0008121205          1400 AG5505               3AZ
129094007129094566-000359     129094006003000582709STICKER BOOK LOVE SPARK0000001000+00002192+00000+0001T   00002192+0000001205          1400 AG5130               3AZ
129094008129094112-116069     129094006009681820277TCS CARRIER BAG JUMBO  0000001000+00000048+00000+0001T   00000048+0000001205          1400 AG5090               3AZ
129095000129095               129095               170213CT     1400+00000+CT0000006300+0000006300+000000000+000000882+0000007180+0000000002+I20000000000+0000007180+Z
129095001129095903-000071     129095006001704001120SWT TOFFEE LIQURICE 35g0000009000+00000700+00000+0001T   00000700+0000001206          1400 AG5150               3AZ
129096000129096               129096               170213CT     1400+00000+CT0000001402+0000001402+000000000+000000197+0000001590+0000000009+I20000000000+0000001590+Z
129096001129096105-001005     129096006001023858214CONTAINERS MINI 6PCE   0000001000+00001402+00000+0001T   00001402+0000001209          1400 AG5210               3AZ
129097000129097               129097               170213CT     1400+00000+CT0000007893+0000007893+000000000+000001106+0000008990+0000000009+I20000000000+0000008990+Z
129097001129097031-000903-C   129097006003000457359P/FRAME PL CREAMY 20X250000001000+00007893+00000+0001T   00007893+0000001214          1400 AG5510               3AZ
129098000129098               129098               170213CT     1400+00000+CT0000007014+0000007014+000000000+000000983+0000007997+0000000000+I40000007997+0000000000+Z
129098001129098079-013102     129098006003000019601ART+CRAFT DIY PIPE-CLNR0000001000+00002192+00000+0001T   00002192+0000001215          1400 AG5130               3AZ
129098002129098566-000006     129098006001023671189STICKER-BOOK DRESS-UP  0000001000+00002630+00000+0001T   00002630+0000001215          1400 AG5130               3AZ
129098003129098566-000359     129098006003000582709STICKER BOOK LOVE SPARK0000001000+00002192+00000+0001T   00002192+0000001215          1400 AG51301IC            3AZ
129099000129099               129099               170213CT     1400+00000+CT0000007837+0000007837+000000000+000001099+0000008930+0000000006+I20000000000+0000008930+Z
129099001129099077-000304     129099006001023483232GIFT-BAG 25X32CM E/DAY 0000001000+00001490+00000+0001T   00001490+0000001217          1400 AG5112               3AZ
129099002129099368-000001     129099006003000097982Plush Bear 25cm        0000001000+00004385+00000+0001T   00004385+0000001217          1400 AG5745               3AZ
129099003129099077-000011-E   129099006001023808646TISSUE-WRAP PINK 10PCE 0000001000+00000876+00000+0001T   00000876+0000001217          1400 AG5112               3AZ
129099004129099112-116038     129099006009681820246TCS CARRIER BAG MIDI   0000001000+00000035+00000+0001T   00000035+0000001217          1400 AG5090               3AZ
129099005129099903-002852     129099000000087108040MENTOS ROLL SPEARMINT  0000001000+00001051+00000+0001T   00001051+0000001217          1400 AG5150               3AZ
129100000129100               129100               170213CT     1400+00000+CT0000002628+0000002628+000000000+000000368+0000002990+0000000006+I20000000000+0000002990+Z
129100001129100006-000166-H   129100006003000608096BALLOONS HELIUM 6PC WHT0000001000+00001314+00000+0001T   00001314+0000001221          1400 AG5131               3AZ
129100002129100006-000166-D   129100006003000516490BALLOONS LRG 6PC RED   0000001000+00001314+00000+0001T   00001314+0000001221          1400 AG5131               3AZ
129101000129101               129101               170213CT     1400+00000+CT0000001753+0000001753+000000000+000000246+0000001990+0000000009+I20000000000+0000001990+Z
129101001129101034-000713     129101006001023899507COOEY TUMBLER NON-SPILL0000001000+00001753+00000+0001T   00002630+0008151222          1400 AG5215               3AZ
129102000129102               129102               170213CT     1400+00000+CT0000004385+0000004385+000000000+000000614+0000004990+0000000009+I20000000000+0000004990+Z
129102001129102047-002035-H   129102006001023586087P/ADAPTOR 3-WAY-2PIN   0000001000+00004385+00000+0001T   00004385+0000001222          1400 AG5880               3AZ
129103000129103               129103               170213CT     1400+00000+CT0000009678+0000009678+000000000+000001358+0000011036+0000000000+I40000011036+0000000000+Z
129103001129103369-001137     129103006003000555062VINYL 5.7cm THEMED DUCK0000001000+00001753+00000+0001T   00001753+0000001224          1400 AG5745               3AZ
129103002129103369-001138-B   129103006003000564972BABY BATH ROYAL DUCKS  0000001000+00002630+00000+0001T   00002630+0000001224          1400 AG5745               3AZ
129103003129103369-001138-C   129103006003000587520BABY BATH VINYL G/MAN  0000002000+00002630+00000+0001T   00002630+0000001224          1400 AG5745               3AZ
129103004129103112-116038     129103006009681820246TCS CARRIER BAG MIDI   0000001000+00000035+00000+0001T   00000035+0000001224          1400 AG5090               3AZ
129104000129104               129104               170213CT     1400+00000+CT0000013369+0000013369+000000000+000001873+0000015242+0000000000+I40000015242+0000000000+Z
129104001129104112-116069     129104006009681820277TCS CARRIER BAG JUMBO  0000001000+00000048+00000+0001T   00000048+0000001226          1400 AG5090               3AZ
129104002129104159-000649     129104006001023803931BATH-SPONGE RND        0000006000+00001928+00000+0001T   00001928+0000001226          1400 AG5200               3AZ
129104003129104046-000002     129104006001023585202BATTERIES SIZE:C   2PCE0000001000+00001753+00000+0001T   00001753+0000001226          1400 AG5312               3AZ
129105000129105               129105               170213CT     1400+00000+CT0000007275+0000007275+000000000+000001020+0000008290+0000000005+I20000000000+0000008290+Z
129105001129105007-000166     129105006009685857316SPIRAL NOTES A6 100PG  0000001000+00000700+00000+0001T   00000700+0000001229          1400 AG5130               3AZ
129105002129105075-000419     129105006003000675746BAG SHOPPER NON-WOVEN  0000001000+00002630+00000+0001T   00002630+0000001229          1400 AG5160               3AZ
129105003129105105-001025     129105006009654960771CONTAINERS CLEAR 4PCE  0000001000+00003069+00000+0001T   00003069+0000001229          1400 AG5210               3AZ
129105004129105071-003004     129105006003000662821PEN BALL POINT 3PC BLUE0000001000+00000876+00000+0001T   00000876+0000001229          1400 AG5130               3AZ
129106000129106               129106               170213CT     1400+00000+CT0000001227+0000001227+000000000+000000172+0000001390+0000000009+I20000000000+0000001390+Z
129106001129106251-000040     129106006001023515865SEALTAPE CLEAR 48mmx50m0000001000+00001227+00000+0001T   00001227+0000001229          1400 AG5810               3AZ
129107000129107               129107               170213CT     1400+00000+CT0000001963+0000001963+000000000+000000275+0000002230+0000000008+I20000000000+0000002230+Z
129107001129107159-000649     129107006001023803931BATH-SPONGE RND        0000001000+00001928+00000+0001T   00001928+0000001231          1400 AG5200               3AZ
129107002129107112-116038     129107006009681820246TCS CARRIER BAG MIDI   0000001000+00000035+00000+0001T   00000035+0000001231          1400 AG5090               3AZ
129108000129108               129108               170213CT     1400+00000+CT0000007088+0000007088+000000000+000000994+0000008080+0000000002+I20000000000+0000008080+Z
129108001129108080-000124     129108006003000297733CARD & ENV VALENTINES  0000001000+00001578+00000+0001T   00001578+0000001233          1400 AG5112               3AZ
129108002129108566-001118     129108006003000682171STICKERS CELL PHONE    0000001000+00001753+00000+0001T   00001753+0000001233          1400 AG5130               3AZ
129108003129108566-000068     129108006003000418046POP UP LOVE 2 ASSTD    0000001000+00002192+00000+0001T   00002192+0000001233          1400 AG5130               3AZ
129108004129108079-009700-M   129108006003000634101PAPER SIRIO A4 PINK COL0000002000+00000306+00000+0001T   00000306+0000001233          1400 AG5130               3AZ
129108005129108079-009700-D   129108006003000545711PAPER SIRIO A4 RED COL.0000002000+00000306+00000+0001T   00000306+0000001233          1400 AG5130               3AZ
129108006129108079-009700-F   129108006003000545872PAPER SIRIO A4 TURQ COL0000001000+00000306+00000+0001T   00000306+0000001233          1400 AG5130               3AZ
129108007129108112-116038     129108006009681820246TCS CARRIER BAG MIDI   0000001000+00000035+00000+0001T   00000035+0000001233          1400 AG5090               3AZ
129109000129109               129109               170213CT     1400+00000+CT0000001314+0000001314+000000000+000000184+0000001490+0000000008+I20000000000+0000001490+Z
129109001129109046-000012     129109006904708013062BATTERIES AA  CARD-OF-40000001000+00001314+00000+0001T   00001314+0000001234          1400 AG5312               3AZ
129110000129110               129110               170213CT     1400+00000+CT0000012309+0000012309+000000000+000001726+0000014030+0000000005+I20000000000+0000014030+Z
129110001129110079-013099     129110006003000081875ART+CRAFT EYES ASSTD   0000001000+00001753+00000+0001T   00001753+0000001236          1400 AG5130               3AZ
129110002129110112-116038     129110006009681820246TCS CARRIER BAG MIDI   0000001000+00000035+00000+0001T   00000035+0000001236          1400 AG5090               3AZ
129110003129110079-011524     129110006003000408139ART+CRFT FINGER PUPPETS0000001000+00004385+00000+0001T   00004385+0000001236          1400 AG5130               3AZ
129110004129110079-014153     129110006003000253166ART+CRAFT DRAGON PK6   0000002000+00002630+00000+0001T   00002630+0000001236          1400 AG5130               3AZ
129110005129110033-005931     129110006001023678447PINS ON-WHEEL PEARLIZED0000001000+00000876+00000+0001T   00000876+0000001236          1400 AG5200               3AZ
129111000129111               129111               170213CT     1400+00000+CT0000002366+0000002366+000000000+000000332+0000002690+0000000008+I20000000000+0000002690+Z
129111001129111084-070001     129111006001023630018NAIL FILE 12cm         0000001000+00001490+00000+0001T   00001490+0000001239          1400 AG5200               3AZ
129111002129111362-000104     129111006003000451159NAIL STICKERS 16PC     0000001000+00000876+00000+0001T   00001314+0008181239          1400 AG5160               3AZ
129112000129112               129112               170213CT     1400+00000+CT0000004469+0000004469+000000000+000000627+0000005090+0000000006+I20000000000+0000005090+Z
129112001129112018-000130     129112006001023867537MUG OCC LOVE MINI+HEART0000001000+00003507+00000+0001T   00003507+0000001240          1400 AG5515               3AZ
129112002129112903-000155     129112006009803374435SWT LOLLY I LUV U HEART0000001000+00000525+00000+0001T   00000525+0000001240          1400 AG5150               3AZ
129112003129112080-000133-A   129112006003000647019MINI VALENTINES CARD   0000001000+00000437+00000+0001T   00000437+0000001240          1400 AG5112               3AZ
129113000129113               129113               170213CT     1400+00000+CT0000004385+0000004385+000000000+000000614+0000004999+0000000000+I40000004999+0000000000+Z
129113001129113564-000038     129113006003000470624BUBBLE SPRING 230ml    0000001000+00004385+00000+0001T   00004385+0000001251          1400 AG5131               3AZ
129114000129114               129114               170213CT     1400+00000+CT0000036004+0000036004+000000000+000005044+0000041048+0000000000+I40000041048+0000000000+Z
129114001129114159-000090     129114006003000401246SHOWER-CADDY CHROME    0000001000+00009648+00000+0001T   00009648+0000001254          1400 AG5200               3AZ
129114002129114112-116069     129114006009681820277TCS CARRIER BAG JUMBO  0000001000+00000048+00000+0001T   00000048+0000001254          1400 AG5090               3AZ
129114003129114560-000245     129114006001023622716RUBBER ANIMALS 10PC ASS0000002000+00007016+00000+0001T   00007016+0000001254          1400 AG5745               3AZ
129114004129114261-000947     129114006001023832610GUN FRICTION           0000001000+00003507+00000+0001T   00003507+0000001254          1400 AG5710               3AZ
129114005129114262-000651     129114006001023754561DIE CAST SET 5PC RACER 0000001000+00002630+00000+0001T   00002630+0000001254          1400 AG5710               3AZ
129114006129114261-003821     129114006003000398713GUN HAND COWBOY PLAYSET0000001000+00006139+00000+0001T   00006139+0000001254          1400 AG5710               3AZ
129115000129115               129115               170213CT     1400+00000+CT0000014336+0000014336+000000000+000002011+0000016340+0000000007+I20000000000+0000016340+Z
129115001129115112-116069     129115006009681820277TCS CARRIER BAG JUMBO  0000001000+00000048+00000+0001T   00000048+0000001256          1400 AG5090               3AZ
129115002129115124-000001     129115000738380781690STORAGE TIN TISSUE     0000002000+00002630+00000+0001T   00003507+0008171256          1400 AG5300               3AZ
129115003129115030-001125-A   129115006003000680641P/WALL CANVAS PICTURE  0000001000+00002630+00000+0001T   00002630+0000001256          1400 AG5505               3AZ
129115004129115024-000042     129115006002580009255M/CUP MINI 30ML H/HOUSE0000001000+00002192+00000+0001T   00002192+0000001256          1400 AG5300               3AZ
129115005129115002-000015     129115006003000555604CAPPUCCINO STENCILS 12P0000001000+00001753+00000+0001T   00001753+0000001256          1400 AG5300               3AZ
129115006129115002-000800     129115006001023770660PEELER MTL/PL WHITE    0000001000+00001139+00000+0001T   00001139+0000001256          1400 AG5300               3AZ
129115007129115146-000460     129115006003000528837SPRINKLER PYRAMID PL   0000001000+00001314+00000+0001T   00001314+0000001256          1400 AG5820               3AZ
129116000129116               129116               170213CT     1400+00000+CT0000007013+0000007013+000000000+000000984+0000007990+0000000007+I20000000000+0000007990+Z
129116001129116050-000889     129116006001023821102PADLOCK COMB RESETABLE 0000001000+00002630+00000+0001T   00002630+0000001258          1400 AG5855               3AZ
129116002129116002-000975     129116006003000658053KITCHEN-GADGET FUNNEL  0000001000+00001753+00000+0001T   00001753+0000001258          1400 AG5300               3AZ
129116003129116033-000005     129116006001023511584SHEET+IRN-BOARD-BND 4PC0000001000+00002630+00000+0001T   00002630+0000001258          1400 AG5200               3AZ
129117000129117               129117               170213CT     1400+00000+CT0000009240+0000009240+000000000+000001295+0000010535+0000000000+I40000010535+0000000000+Z
129117001129117039-001023     129117006003000466337CANDLE TEA-LITE METALIC0000001000+00001753+00000+0001T   00001753+0000001301          1400 AG5510               3AZ
129117002129117563-000318-L   129117006003000407088SERVIETTES 33cm RED    0000001000+00002192+00000+0001T   00002192+0000001301          1400 AG5214               3AZ
129117004129117112-116038     129117006009681820246TCS CARRIER BAG MIDI   0000001000+00000035+00000+0001T   00000035+0000001301          1400 AG5090               3AZ
129117005129117077-000310     129117006001023608635GIFT-BAG 18X23CM GLOSS 0000001000+00001314+00000+0001T   00001314+0000001301          1400 AG5112               3AZ
129117006129117006-000850     129117006009645922856PARTY LUCKY-PACKET GIRL0000001000+00003946+00000+0001T   00003946+0000001301          1400 AG5131               3AZ
129118000129118               129118               170213CT     1400+00000+CT0000008771+0000008771+000000000+000001228+0000009999+0000000000+I40000009999+0000000000+Z
129118001129118001-091415     129118006003000329113W/GLS OCC. LOVE 2PC 2800000001000+00008771+00000+0001T   00009648+0006471303          1400 AG5515               3AZ
129119000129119               129119               170213CT     1400+00000+CT0000007485+0000007485+000000000+000001050+0000008530+0000000005+I20000000000+0000008530+Z
129119001129119565-004101     129119006003000548033BALL BOUNCING EGG      0000005000+00001490+00000+0001T   00001490+0000001305          1400 AG5745               3AZ
129119002129119112-116038     129119006009681820246TCS CARRIER BAG MIDI   0000001000+00000035+00000+0001T   00000035+0000001305          1400 AG5090               3AZ
129120000129120               129120               170213CT     1400+00000+CT0000017978+0000017978+000000000+000002519+0000020497+0000000000+I40000020497+0000000000+Z
129120001129120403-000050     129120006003000034956ORN JEWELERY DOLL 30cm 0000001000+00007016+00000+0001T   00007016+0000001307          1400 AG5510               3AZ
129120002129120003-008011     129120006001023711885WELCOME-STONE ASST 15CM0000001000+00004823+00000+0001T   00004823+0000001307          1400 AG5505               3AZ
129120003129120403-000029     129120006003000246816JEWEL BOX POLY FAIRY   0000001000+00006139+00000+0001T   00006139+0000001307          1400 AG5510               3AZ
129121000129121               129121               170213CT     1400+00000+CT0000006698+0000006698+000000000+000000938+0000007630+0000000006+I20000000000+0000007630+Z
129121001129121080-000124     129121006003000297733CARD & ENV VALENTINES  0000001000+00001578+00000+0001T   00001578+0000001309          1400 AG5112               3AZ
129121002129121031-000847     129121006001023851871P/FRAME TWIN 10X15CM   0000001000+00003507+00000+0001T   00003507+0000001309          1400 AG5510               3AZ
129121003129121077-000303     129121006001023593757GIFT-BAG PAPER MED     0000001000+00001578+00000+0001T   00001578+0000001309          1400 AG5112               3AZ
129121004129121112-116038     129121006009681820246TCS CARRIER BAG MIDI   0000001000+00000035+00000+0001T   00000035+0000001309          1400 AG5090               3AZ
129122000129122               129122               170213CT     1400+00000+CT0000005085+0000005085+000000000+000000712+0000005797+0000000000+I40000005797+0000000000+Z
129122001129122018-000136     129122006001023659026MUG OCC LOVE W/PLUSH   0000001000+00003507+00000+0001T   00003507+0000001311          1400 AG5515               3AZ
129122002129122077-000303     129122006001023593757GIFT-BAG PAPER MED     0000001000+00001578+00000+0001T   00001578+0000001311          1400 AG5112               3AZ
129123000129123               129123               170213CT     1400+00000+CT0000008189+0000008189+000000000+000001148+0000009337+0000000000+I40000009337+0000000000+Z
129123001129123077-000303     129123006001023593757GIFT-BAG PAPER MED     0000001000+00001578+00000+0001T   00001578+0000001314          1400 AG5112               3AZ
129123002129123200-003024     129123006001023657299REFUSE BAGS 20PCE BLACK0000001000+00001753+00000+0001T   00001753+0000001314          1400 AG5214               3AZ
129123003129123301-085001     129123006003000297610ORN WATERBALL LOVE ASST0000001000+00004823+00000+0001T   00004823+0000001314          1400 AG5505               3AZ
129123004129123112-116038     129123006009681820246TCS CARRIER BAG MIDI   0000001000+00000035+00000+0001T   00000035+0000001314          1400 AG5090               3AZ
129124000129124               129124               170213CT     1400+00000+CT0000004941+0000004941+000000000+000000694+0000005635+0000000000+I40000005635+0000000000+Z
129124001129124368-000100     129124006001023474742PLUSH MD BEAR 12cm     0000001000+00002630+00000+0001T   00002630+0000001317          1400 AG5745               3AZ
129124002129124304-001011     129124006001023806727FLWR ROSE RED W/BEAR   0000002000+00000613+00000+0001T   00000788+0006471317          1400 AG5510               3AZ
129124003129124903-000155     129124006009803374435SWT LOLLY I LUV U HEART0000002000+00000525+00000+0001T   00000525+0000001317          1400 AG5150               3AZ
129124004129124112-116038     129124006009681820246TCS CARRIER BAG MIDI   0000001000+00000035+00000+0001T   00000035+0000001317          1400 AG5090               3AZ
129125000129125               129125               170213CT     1400+00000+CT0000025479+0000025479+000000000+000003570+0000029049+0000000000+I40000029049+0000000000+Z
129125001129125071-005214     129125006003000152544CELLOTAPE SUPER REFILL 0000001000+00001490+00000+0001T   00001490+0000001320          1400 AG5130               3AZ
129125002129125080-000107     129125006003000237081CARD&ENVELPE BDAY BOY  0000001000+00001753+00000+0001T   00001753+0000001320          1400 AG5112               3AZ
129125003129125903-000095     129125006001704011495SWT SPECKLED-EGGS 100G 0000001000+00002104+00000+0001T   00002104+0000001320          1400 AG5150               3AZ
129125004129125112-116069     129125006009681820277TCS CARRIER BAG JUMBO  0000001000+00000048+00000+0001T   00000048+0000001320          1400 AG5090               3AZ
129125005129125265-000311     129125006003000014156DRAGON B/O             0000001000+00015788+00000+0001T   00015788+0000001320          1400 AG5710               3AZ
129125006129125077-000920     129125006003000413812G/WRAP 700mmx2m BIRTHDA0000001000+00002192+00000+0001T   00002192+0000001320          1400 AG5112               3AZ
129125007129125903-000090     129125006009826020821SWT GS CHOCO COINS 60g 0000001000+00002104+00000+0001T   00002104+0000001320          1400 AG5150               3AZ
129126000129126               129126               170213CT     1400+00000+CT0000005259+0000005259+000000000+000000738+0000005997+0000000000+I40000005997+0000000000+Z
129126001129126200-003026     129126006003000276448REFUSE BAGS 10PCE GREEN0000001000+00001753+00000+0001T   00001753+0000001322          1400 AG5214               3AZ
129126002129126200-003024     129126006001023657299REFUSE BAGS 20PCE BLACK0000001000+00001753+00000+0001T   00001753+0000001322          1400 AG5214               3AZ
129126003129126566-000362     129126006003000583065STICKER LETTER & NUMBER0000001000+00001753+00000+0001T   00001753+0000001322          1400 AG5130               3AZ
129127000129127               129127               170213CT     1400+00000+CT0000001227+0000001227+000000000+000000172+0000001390+0000000009+I20000000000+0000001390+Z
129127001129127251-000040     129127006001023515865SEALTAPE CLEAR 48mmx50m0000001000+00001227+00000+0001T   00001227+0000001323          1400 AG5810               3AZ
129128000129128               129128               170213CT     1400+00000+CT0000002454+0000002454+000000000+000000344+0000002798+0000000000+I40000002798+0000000000+Z
129128001129128033-001402     129128006009654960498HAIR-CURLERS 6PCE LRG  0000002000+00001227+00000+0001T   00001227+0000001324          1400 AG5200               3AZ
129129000129129               129129               170213CT     1400+00000+CT0000008800+0000008800+000000000+000001235+0000010030+0000000005+I20000000000+0000010030+Z
129129001129129566-000018     129129006001023995018S/BOOK H/MADE STICKER  0000001000+00000876+00000+0001T   00000876+0000001326          1400 AG5130               3AZ
129129002129129562-000216     129129006003000113880EDU PUSH-IN WDN BOARD  0000002000+00001753+00000+0001T   00001753+0000001326          1400 AG5755               3AZ
129129003129129006-000107     129129006003000587872BALLOONS ITS BOY/GIRL  0000001000+00001753+00000+0001T   00001753+0000001326          1400 AG5131               3AZ
129129004129129112-116038     129129006009681820246TCS CARRIER BAG MIDI   0000001000+00000035+00000+0001T   00000035+0000001326          1400 AG5090               3AZ
129129005129129200-000023     129129006003000399413BAG SLIDE LOCK 10PC    0000001000+00002630+00000+0001T   00002630+0000001326          1400 AG5214               3AZ
129130000129130               129130               170213CT     1400+00000+CT0000003942+0000003942+000000000+000000552+0000004494+0000000000+I40000004494+0000000000+Z
129130001129130077-000310     129130006001023608635GIFT-BAG 18X23CM GLOSS 0000003000+00001314+00000+0001T   00001314+0000001330          1400 AG5112               3AZ
129131000129131               129131               170213CT     1400+00000+CT0000002455+0000002455+000000000+000000344+0000002790+0000000009+I20000000000+0000002790+Z
129131001129131079-000510     129131006001023509079CRAYONS WAX 12-COLOUR  0000001000+00002455+00000+0001T   00002455+0000001330          1400 AG5130               3AZ
129132000129132               129132               170213CT     1400+00000+CT0000001578+0000001578+000000000+000000221+0000001790+0000000009+I20000000000+0000001790+Z
129132001129132078-013424     129132006008741000338CONTACT-ADHESIVE 50ml  0000001000+00001578+00000+0001T   00001578+0000001334          1400 AG5810               3AZ
129133000129133               129133               170213CT     1400+00000+CT0000001788+0000001788+000000000+000000251+0000002030+0000000009+I20000000000+0000002030+Z
129133001129133036-000521     129133006003000338184HOOK-HANGER 8-HOOK     0000001000+00001753+00000+0001T   00001753+0000001336          1400 AG5212               3AZ
129133002129133112-116038     129133006009681820246TCS CARRIER BAG MIDI   0000001000+00000035+00000+0001T   00000035+0000001336          1400 AG5090               3AZ
129134000129134               129134               170213CT     1400+00000+CT0000012717+0000012717+000000000+000001781+0000014498+0000000000+I40000014498+0000000000+Z
129134001129134082-098798     129134006001492987989SUNGLASS KIDS BOYS     0000001000+00003946+00000+0001T   00003946+0000001339          1400 AG5160               3AZ
129134002129134467-000037     129134006003000654222BEACH-SET PL 5PC TRUCK 0000001000+00008771+00000+0001T   00008771+0000001339          1400 AG5785               3AZ
129135000129135               129135               170213CT     1400+00000+CT0000007394+0000007394+000000000+000001038+0000008432+0000000000+I40000008432+0000000000+Z
129135001129135369-001137-B   129135006003000626373BABY BATH VINYL DUCK   0000002000+00001578+00000+0001T   00001578+0000001343          1400 AG5745               3AZ
129135002129135047-005127     129135006003000093861CABLETIES 100/150/200mm0000001000+00002192+00000+0001T   00002192+0000001343          1400 AG5880               3AZ
129135003129135112-116038     129135006009681820246TCS CARRIER BAG MIDI   0000001000+00000035+00000+0001T   00000035+0000001343          1400 AG5090               3AZ
129135004129135006-000173-D   129135006003000636631BALLOONS 1PC BLUE      0000004000+00000218+00000+0001T   00000218+0000001343          1400 AG5131               3AZ
129135005129135903-000087     129135006001704000161SWT SPECKLED-EGGS 50G  0000001000+00001139+00000+0001T   00001139+0000001343          1400 AG5150               3AZ
129136000129136               129136               170213CT     1400+00000+CT0000004385+0000004385+000000000+000000614+0000004999+0000000000+I40000004999+0000000000+Z
129136001129136012-000005     129136006003000328963M/WVE POTATO COOKER    0000001000+00004385+00000+0001T   00004385+0000001345          1400 AG5300               3AZ
129137000129137               129137               170213CT     1400+00000+CT0000017587+0000017587+000000000+000002464+0000020051+0000000000+I40000020051+0000000000+Z
129137001129137112-116069     129137006009681820277TCS CARRIER BAG JUMBO  0000001000+00000048+00000+0001T   00000048+0000001346          1400 AG5090               3AZ
129137002129137071-002877     129137006003000143726LASER POINTER PEN      0000001000+00005262+00000+0001T   00005262+0000001346          1400 AG5130               3AZ
129137003129137047-000012     129137006002521079279PLUG 1x16A+2x5A-2PIN   0000001000+00001753+00000+0001T   00001753+0000001346          1400 AG5880               3AZ
129137004129137030-003579     129137006001023999351THERMOMETER B-FLY 35CM 0000001000+00003946+00000+0001T   00003946+0000001346          1400 AG5505               3AZ
129137005129137047-000512-H   129137006001023657473EXT-CORD 3m DBL-J   H&H0000001000+00006578+00000+0001T   00006578+0000001346          1400 AG5880               3AZ
129138000129138               129138               170213CT     1400+00000+CT0000013025+0000013025+000000000+000001825+0000014850+0000000000+I40000014850+0000000000+Z
129138001129138567-075470     129138009780007795352BK NOVEL CATEGORY B    0000001000+00006139+00000+0001T   00006139+0000001352          1400 AG5757               3AZ
129138002129138007-000128     129138006009635830475BOOK H/COVER A5 96-PAGE0000001000+00000700+00000+0001T   00000700+0000001352          1400 AG5130               3AZ
129138003129138112-116069     129138006009681820277TCS CARRIER BAG JUMBO  0000001000+00000048+00000+0001T   00000048+0000001352          1400 AG5090               3AZ
129138004129138009-001312     129138006001023854728MELAMINE FLOWER TRAY RE0000001000+00004385+00000+0001T   00004385+0000001352          1400 AG5210               3AZ
129138005129138108-005005     129138006003000667451TRAY PL 29x21cm RECT   0000001000+00001753+00000+0001T   00001753+0000001352          1400 AG5210               3AZ
129139000129139               129139               170213CT     1400+00000+CT0000001753+0000001753+000000000+000000246+0000001990+0000000009+I20000000000+0000001990+Z
129139001129139251-000070     129139006003000451777PROTECTION-PADS BLK ADH0000001000+00001753+00000+0001T   00001753+0000001352          1400 AG5810               3AZ
129140000129140               129140               170213CT     1400+00000+CT0000001314+0000001314+000000000+000000184+0000001498+0000000000+I40000001498+0000000000+Z
129140001129140034-000329     129140006001023564290BOTTLE-BRUSHES WHT 2PCE0000001000+00001314+00000+0001T   00001314+0000001356          1400 AG5215               3AZ
129141000129141               129141               170213CT     1400+00000+CT0000013157+0000013157+000000000+000001842+0000014999+0000000000+I40000014999+0000000000+Z
129141001129141464-003000     129141006003000328475GAME THINK:WORD BUILDER0000001000+00013157+00000+0001T   00013157+0000001400          1400 AG5785               3AZ
129142000129142               129142               170213CT     1400+00000+CT0000003541+0000003541+000000000+000000497+0000004030+0000000008+I20000000000+0000004030+Z
129142001129142200-000030     129142006923029860018ROLL PL WRAP 30cmx30m  0000001000+00002630+00000+0001T   00002630+0000001403          1400 AG5214               3AZ
129142002129142071-005213     129142006001023690371CELLOTAPE 12mmx33m     0000001000+00000876+00000+0001T   00000876+0000001403          1400 AG5130               3AZ
129142003129142112-116038     129142006009681820246TCS CARRIER BAG MIDI   0000001000+00000035+00000+0001T   00000035+0000001403          1400 AG5090               3AZ
129143000129143               129143               170213CT     1400+00000+CT0000004385+0000004385+000000000+000000614+0000004990+0000000009+I20000000000+0000004990+Z
129143001129143082-007586     129143006003000654291SUNGLASS DESIGNER ASST 0000001000+00004385+00000+0001T   00004385+0000001520          1400 AG5160               3AZ
129144000129144               129144               170213CT     1400+00000+CT0000001578+0000001578+000000000+000000221+0000001799+0000000000+I40000001799+0000000000+Z
129144001129144018-000127     129144006001023380289MUG OCC STRAIGHT LOVE  0000001000+00001578+00000+0001T   00001753+0006471522          1400 AG5515               3AZ
129145000129145               129145               170213CT     1400+00000+CT0000004383+0000004383+000000000+000000615+0000004998+0000000000+I40000004998+0000000000+Z
129145001129145007-000041     129145006003000120598INK & INK PAD          0000001000+00002630+00000+0001T   00002630+0000001524          1400 AG5130               3AZ
129145002129145566-000865     129145006001023788412STICKER ASSTD          0000001000+00001753+00000+0001T   00001753+0000001524          1400 AG5130               3AZ
129146000129146               129146               170213CT     1400+00000+CT0000005261+0000005261+000000000+000000737+0000005990+0000000008+I20000000000+0000005990+Z
129146001129146263-000410     129146006001023827135VEHICLE BOAT           0000001000+00000876+00000+0001T   00001314+0008141525          1400 AG5710               3AZ
129146002129146020-000653     129146006003000579860BREAD KNIFE HOLLOW HNDL0000001000+00004385+00000+0001T   00006139+0008121525          1400 AG5300               3AZ
129147000129147               129147               170213CT     1400+00000+CT0000001578+0000001578+000000000+000000221+0000001790+0000000009+I20000000000+0000001790+Z
129147001129147080-000124     129147006003000297733CARD & ENV VALENTINES  0000001000+00001578+00000+0001T   00001578+0000001526          1400 AG5112               3AZ
129148000129148               129148               170213CT     1400+00000+CT0000001578+0000001578+000000000+000000221+0000001790+0000000009+I20000000000+0000001790+Z
129148001129148080-000124     129148006003000297733CARD & ENV VALENTINES  0000001000+00001578+00000+0001T   00001578+0000001529          1400 AG5112               3AZ
129149000129149               129149               170213CT     1400+00000+CT0000003507+0000003507+000000000+000000491+0000003990+0000000008+I20000000000+0000003990+Z
129149001129149071-005060     129149006003000152186CELLOTAPE 2PACK INVSBLE0000001000+00003507+00000+0001T   00003507+0000001530          1400 AG5130               3AZ
129150000129150               129150               170213CT     1400+00000+CT0000020784+0000020784+000000000+000002912+0000023696+0000000000+I40000023696+0000000000+Z
129150001129150265-000312     129150006003000014187ATTERY OPERATED D/SAUR 0000001000+00015788+00000+0001T   00015788+0000001536          1400 AG5710               3AZ
129150002129150046-000011     129150004897006172994BATTERIES SIZE:AA  2PCE0000002000+00001402+00000+0001T   00001402+0000001536          1400 AG5312               3AZ
129150003129150077-000918     129150006003000413690G/WRAP 700mmx2m PATTERN0000001000+00002192+00000+0001T   00002192+0000001536          1400 AG5112               3AZ
129151000129151               129151               170213CT     1400+00000+CT0000002663+0000002663+000000000+000000373+0000003030+0000000006+I20000000000+0000003030+Z
129151001129151006-000166-D   129151006003000516490BALLOONS LRG 6PC RED   0000002000+00001314+00000+0001T   00001314+0000001538          1400 AG5131               3AZ
129151002129151112-116038     129151006009681820246TCS CARRIER BAG MIDI   0000001000+00000035+00000+0001T   00000035+0000001538          1400 AG5090               3AZ
129152000129152               129152               170213CT     1400+00000+CT0000012396+0000012396+000000000+000001737+0000014130+0000000003+I20000000000+0000014130+Z
129152001129152079-000206     129152006003000639700PENCIL CRAYONS THERAPY 0000001000+00001753+00000+0001T   00001753+0000001544          1400 AG5130               3AZ
129152002129152112-116038     129152006009681820246TCS CARRIER BAG MIDI   0000001000+00000035+00000+0001T   00000035+0000001544          1400 AG5090               3AZ
129152003129152565-000256     129152006003000609826NOVELTY GLOW SLIME     0000001000+00000700+00000+0001T   00000700+0000001544          1400 AG5745               3AZ
129152004129152567-011307     129152006003000598557BOOK ACTIVITY FUN WATER0000001000+00003069+00000+0001T   00003069+0000001544          1400 AG5757               3AZ
129152005129152567-011424     129152006003000641468BK COLOURING THERAPY A40000001000+00006139+00000+0001T   00006139+0000001544          1400 AG5757               3AZ
129152006129152565-000256     129152006003000609826NOVELTY GLOW SLIME     0000001000+00000700+00000+0001T   00000700+0000001544          1400 AG5745               3AZ
129153000129153               129153               170213CT     1400+00000+CT0000002274+0000002274+000000000+000000320+0000002590+0000000004+I20000000000+0000002590+Z
129153001129153564-000012     129153006001023130075BUBBLE BOTTLE MAGIC    0000002000+00000700+00000+0001T   00000700+0000001544          1400 AG5131               3AZ
129153002129153903-000094     129153006923431501622SWT GS CANDY NECKLACE  0000002000+00000437+00000+0001T   00000437+0000001544          1400 AG5150               3AZ
129154000129154               129154               170213CT     1400+00000+CT0000007012+0000007012+000000000+000000984+0000007996+0000000000+I40000007996+0000000000+Z
129154001129154566-000052     129154006003000275656SCRAPBOOK SLEEVE 10PCE 0000001000+00001753+00000+0001T   00001753+0000001549          1400 AG5130               3AZ
129154002129154566-000040     129154006003000142316SCRAPBOOK 12xDESIGN AST0000003000+00001753+00000+0001T   00002630+0008151549          1400 AG5130               3AZ
129155000129155               129155               170213CT     1400+00000+CT0000000613+0000000613+000000000+000000086+0000000690+0000000009+I20000000000+0000000690+Z
129155001129155077-000311     129155006001023608666GIFT-BAG 11X14CM GLOSS 0000001000+00000613+00000+0001T   00000613+0000001550          1400 AG5112               3AZ
129156000129156               129156               170213CT     1400+00000+CT0000031180+0000031180+000000000+000004369+0000035540+0000000009+I20000000000+0000035540+Z
129156001129156007-010505     129156006003000670406BLACKBOARD VINYL       0000001000+00004385+00000+0001T   00004385+0000001551          1400 AG5130               3AZ
129156002129156112-116069     129156006009681820277TCS CARRIER BAG JUMBO  0000001000+00000048+00000+0001T   00000048+0000001551          1400 AG5090               3AZ
129156003129156362-002464     129156006003000167388HAIR EXT 30cm 6PCS COL 0000001000+00001753+00000+0001T   00001753+0000001551          1400 AG5160               3AZ
129156004129156362-003005     129156006003000295166HAIR H/BAND SET 2PCE   0000001000+00002192+00000+0001T   00002192+0000001551          1400 AG5160               3AZ
129156005129156467-000019     129156006001023746832BEACH-SET 16PCE BUCKET 0000002000+00007893+00000+0001T   00007893+0000001551          1400 AG5785               3AZ
129156006129156268-000052     129156000687554290066KITE LICENSED 106cm    0000001000+00007016+00000+0001T   00007016+0000001551          1400 AG5785               3AZ
129157000129157               129157               170213CT     1400+00000+CT0000000876+0000000876+000000000+000000123+0000000990+0000000009+I20000000000+0000000990+Z
129157001129157903-000521     129157006001704009652SWT GUMMY SOFT GUMS    0000001000+00000876+00000+0001T   00000876+0000001551          1400 AG5150               3AZ
129158000129158               129158               170213CT     1400+00000+CT0000021611+0000021611+000000000+000003031+0000024640+0000000002+I20000000000+0000024640+Z
129158001129158018-050000     129158006003000412679MUG OCC LOVE TWIN BEAR 0000001000+00006139+00000+0001T   00006139+0000001554          1400 AG5515               3AZ
129158002129158368-000049     129158006003000536955PLUSH BEAR 15cm LOVE   0000001000+00004385+00000+0001T   00004385+0000001554          1400 AG5745               3AZ
129158003129158112-116069     129158006009681820277TCS CARRIER BAG JUMBO  0000001000+00000048+00000+0001T   00000048+0000001554          1400 AG5090               3AZ
129158004129158080-000100     129158006003000236114CARD & ENVELOPE BDAY   0000001000+00001753+00000+0001T   00001753+0000001554          1400 AG5112               3AZ
129158005129158304-001204     129158006001023737984FLOWER OCC. TEDDY/ROSES0000004000+00001402+00000+0001T   00001490+0006471554          1400 AG5510               3AZ
129158006129158304-001011     129158006001023806727FLWR ROSE RED W/BEAR   0000004000+00000613+00000+0001T   00000788+0006471554          1400 AG5510               3AZ
129158007129158565-000044     129158006003000128280BARREL OF SLIME 100g   0000002000+00000613+00000+0001T   00000613+0000001554          1400 AG5745               3AZ
129159000129159               129159               170213CT     1400+00000+CT0000002279+0000002279+000000000+000000320+0000002590+0000000009+I20000000000+0000002590+Z
129159001129159027-001020     129159006001246602519BROOM FLOOR W/HANDLE   0000001000+00002279+00000+0001T   00002279+0000001555          1400 AG5212               3AZ
129160000129160               129160               170213CT     1400+00000+CT0000003068+0000003068+000000000+000000430+0000003490+0000000008+I20000000000+0000003490+Z
129160001129160082-026204     129160006001023816443R/GLASSES STRINGS 2PCE 0000001000+00000876+00000+0001T   00000876+0000001558          1400 AG5160               3AZ
129160002129160071-000672     129160006003000138975STATIONERY CLIPS PAPER 0000001000+00002192+00000+0001T   00002192+0000001558          1400 AG5130               3AZ
129161000129161               129161               170213CT     1400+00000+CT0000002717+0000002717+000000000+000000381+0000003090+0000000008+I20000000000+0000003090+Z
129161001129161028-085274     129161006001023641571BBQ LIGHTER         H&L0000001000+00002192+00000+0001T   00002192+0000001602          1400 AG5305               3AZ
129161002129161903-000155     129161006009803374435SWT LOLLY I LUV U HEART0000001000+00000525+00000+0001T   00000525+0000001602          1400 AG5150               3AZ
129162000129162               129162               170213CT     1400+00000+CT0000005745+0000005745+000000000+000000805+0000006550+0000000000+I40000006550+0000000000+Z
129162001129162006-000166-D   129162006003000516490BALLOONS LRG 6PC RED   0000002000+00001314+00000+0001T   00001314+0000001607          1400 AG5131               3AZ
129162002129162112-116069     129162006009681820277TCS CARRIER BAG JUMBO  0000001000+00000048+00000+0001T   00000048+0000001607          1400 AG5090               3AZ
129162003129162301-085008     129162006003000673933ORN OCC.LOVE TINSEL HRT0000001000+00003069+00000+0001T   00003069+0000001607          1400 AG5505               3AZ
129163000129163               129163               170213CT     1400+00000+CT0000016661+0000016661+000000000+000002334+0000018995+0000000000+I40000018995+0000000000+Z
129163001129163200-000020     129163006925406841030BAG ZIPPERSEAL 25PC    0000001000+00002192+00000+0001T   00002192+0000001624          1400 AG5214               3AZ
129163002129163024-000018     129163006001023610232CAKE-DEC S/S NOZZLE    0000001000+00003946+00000+0001T   00003946+0000001624          1400 AG5300               3AZ
129163003129163024-091100     129163006001023914224BAKING-CUPS PAPER 100PC0000001000+00001753+00000+0001T   00001753+0000001624          1400 AG5300               3AZ
129163004129163105-008002     129163006002923015905CONTAINER FOODSAVER 8L 0000002000+00004385+00000+0001T   00004385+0000001624          1400 AG5210               3AZ
129164000129164               129164               170213CT     1400+00000+CT0000003507+0000003507+000000000+000000491+0000003990+0000000008+I20000000000+0000003990+Z
129164001129164017-000200     129164006003000238965PRINTED ASSTD 100-PHOTO0000001000+00003507+00000+0001T   00003507+0000001624          1400 AG5510               3AZ
129165000129165               129165               170213CT     1400+00000+CT0000026574+0000026574+000000000+000003722+0000030296+0000000000+I40000030296+0000000000+Z
129165001129165080-000124     129165006003000297733CARD & ENV VALENTINES  0000001000+00001578+00000+0001T   00001578+0000001626          1400 AG5112               3AZ
129165002129165368-000637     129165006001023874092PLUSH BEAR SLEEPING LOV0000002000+00011402+00000+0001T   00012279+0006471626          1400 AG5745               3AZ
129165003129165077-000926     129165006003000414178G/WRAP 700mmx2m LOVE   0000001000+00002192+00000+0001T   00002192+0000001626          1400 AG5112               3AZ
129166000129166               129166               170213CT     1400+00000+CT0000006171+0000006171+000000000+000000865+0000007030+0000000006+I20000000000+0000007030+Z
129166001129166112-116038     129166006009681820246TCS CARRIER BAG MIDI   0000001000+00000035+00000+0001T   00000035+0000001629          1400 AG5090               3BZ
129166002129166080-000124     129166006003000297733CARD & ENV VALENTINES  0000001000+00001578+00000+0001T   00001578+0000001629          1400 AG5112               3BZ
129166003129166304-001204     129166006001023737984FLOWER OCC. TEDDY/ROSES0000001000+00001402+00000+0001T   00001490+0006471629          1400 AG5510               3BZ
129166004129166077-000303     129166006001023593757GIFT-BAG PAPER MED     0000001000+00001578+00000+0001T   00001578+0000001629          1400 AG5112               3BZ
129166005129166018-000127     129166006001023380289MUG OCC STRAIGHT LOVE  0000001000+00001578+00000+0001T   00001753+0006471629          1400 AG5515               3BZ
129167000129167               129167               170213CT     1400+00000+CT0000010997+0000010997+000000000+000001540+0000012537+0000000000+I40000012537+0000000000+Z
129167001129167018-030000     129167006003000421060MUG OCCASIONS LOVE 2PCE0000001000+00004385+00000+0001T   00004385+0000001632          1400 AG5515               3BZ
129167002129167267-006052     129167000047754164862PUZZLE LICENSED MINIONS0000001000+00004385+00000+0001T   00004385+0000001632          1400 AG5755               3BZ
129167003129167566-000068     129167006003000418046POP UP LOVE 2 ASSTD    0000001000+00002192+00000+0001T   00002192+0000001632          1400 AG5130               3BZ
129167004129167112-116038     129167006003000534906TCS CARRIER BAG MIDI   0000001000+00000035+00000+0001T   00000035+0000001632          1400 AG5090               3BZ
129168000129168               129168               170213CT     1400+00000+CT0000000485+0000000485+000000000+000000069+0000000550+0000000004+I20000000000+0000000550+Z
129168001129168080-000133     129168006003000535613CARD&ENV MINI ASTD DSGN0000001000+00000437+00000+0001T   00000437+0000001632          1400 AG5112               3AZ
129168002129168112-116069     129168006009681820277TCS CARRIER BAG JUMBO  0000001000+00000048+00000+0001T   00000048+0000001632          1400 AG5090               3AZ
129169000129169               129169               170213CT     1400+00000+CT0000007924+0000007924+000000000+000001112+0000009030+0000000006+I20000000000+0000009030+Z
129169001129169566-000066     129169006003000283675STICKERS GLITTER 25PCS 0000001000+00001753+00000+0001T   00001753+0000001634          1400 AG5130               3AZ
129169002129169566-000200     129169006003000384174STICKER PUFFY NEON     0000001000+00000876+00000+0001T   00000876+0000001634          1400 AG5130               3AZ
129169003129169019-071601     129169006001023771995RIVER-STONES 1kg WHITE 0000002000+00002630+00000+0001T   00002630+0000001634          1400 AG5510               3AZ
129169004129169112-116038     129169006009681820246TCS CARRIER BAG MIDI   0000001000+00000035+00000+0001T   00000035+0000001634          1400 AG5090               3AZ
129170000129170               129170               170213CT     1400+00000+CT0000004420+0000004420+000000000+000000619+0000005030+0000000009+I20000000000+0000005030+Z
129170001129170031-000851     129170006001023851994P/FRAME COL 4-H 31X17CM0000001000+00004385+00000+0001T   00004385+0000001635          1400 AG5510               3AZ
129170002129170112-116038     129170006009681820246TCS CARRIER BAG MIDI   0000001000+00000035+00000+0001T   00000035+0000001635          1400 AG5090               3AZ
129171000129171               129171               170213CT     1400+00000+CT0000001488+0000001488+000000000+000000209+0000001690+0000000007+I20000000000+0000001690+Z
129171003129171903-000482     129171006001704001397SWT SOFT-MINTS 60G     0000001000+00000876+00000+0001T   00000876+0000001641          1400 AG5150               3AZ
129171004129171079-009700-B   129171006003000547661PAPER SIRIO A4 WHITE   0000001000+00000306+00000+0001T   00000306+0000001641          1400 AG5130               3AZ
129171005129171079-009700-D   129171006003000545711PAPER SIRIO A4 RED COL.0000001000+00000306+00000+0001T   00000306+0000001641          1400 AG5130               3AZ
129172000129172               129172               170213CT     1400+00000+CT0000018438+0000018438+000000000+000002587+0000021020+0000000005+I20000000000+0000021020+Z
129172001129172304-001011     129172006001023806727FLWR ROSE RED W/BEAR   0000030000+00000613+00000+0001T   00000788+0006471642          1400 AG5510               3AZ
129172002129172112-116069     129172006009681820277TCS CARRIER BAG JUMBO  0000001000+00000048+00000+0001T   00000048+0000001642          1400 AG5090               3AZ
129173000129173               129173               170213CT     1400+00000+CT0000002804+0000002804+000000000+000000394+0000003190+0000000008+I20000000000+0000003190+Z
129173001129173304-001204     129173006001023737984FLOWER OCC. TEDDY/ROSES0000002000+00001402+00000+0001T   00001490+0006471643          1400 AG5510               3AZ
129174000129174               129174               170213CT     1400+00000+CT0000013199+0000013199+000000000+000001851+0000015050+0000000000+I20000000000+0000015050+Z
129174001129174016-002010     129174006003000674480S/BOTTLE GLS W/CAP 1L  0000001000+00003946+00000+0001T   00003946+0000001644          1400 AG5300               3AZ
129174002129174112-116069     129174006009681820277TCS CARRIER BAG JUMBO  0000001000+00000048+00000+0001T   00000048+0000001644          1400 AG5090               3AZ
129174003129174050-000261-Z   129174006001023535351PADLOCK BRS 20mm CARDED0000001000+00002630+00000+0001T   00002630+0000001644          1400 AG5855               3AZ
129174004129174174-008026     129174006009654960429TRAVEL BOTTLES 2-PACK  0000001000+00003069+00000+0001T   00003069+0000001644          1400 AG5205               3AZ
129174005129174089-000030     129174006003000575671K/CHAIN LOVE MTL ASSTD 0000001000+00001753+00000+0001T   00001753+0000001644          1400 AG5205               3AZ
129174006129174159-000653     129174006001023688859BATH-SPONGE MESH W/ROPE0000001000+00001753+00000+0001T   00001753+0000001644          1400 AG5200               3AZ
129175000129175               129175               170213CT     1400+00000+CT0000000525+0000000525+000000000+000000074+0000000599+0000000000+I40000000599+0000000000+Z
129175001129175903-000155     129175006009803374435SWT LOLLY I LUV U HEART0000001000+00000525+00000+0001T   00000525+0000001707          1400 AG5150               3AZ
129176000129176               129176               170213CT     1400+00000+CT0000003507+0000003507+000000000+000000491+0000003990+0000000008+I20000000000+0000003990+Z
129176001129176301-085004     129176006003000420469ORN LOVE PLAQUE 21X10CM0000001000+00003507+00000+0001T   00003946+0006471713          1400 AG5505               3AZ
129177000129177               129177               170213CT     1400+00000+CT0000006472+0000006472+000000000+000000909+0000007380+0000000001+I20000000000+0000007380+Z
129177001129177903-000843     129177008693029031067SWT GUMMY JELAXY 80G   0000001000+00000964+00000+0001T   00000964+0000001716          1400 AG5150               3AZ
129177002129177018-000177     129177006001023797513MUG MINI LOVE ASSTD    0000004000+00000700+00000+0001T   00000700+0000001716          1400 AG5515               3AZ
129177003129177903-000670     129177006009803358008SWT SHERBET RED LIPS   0000006000+00000218+00000+0001T   00000218+0000001716          1400 AG5150               3AZ
129177004129177018-000177     129177006001023797513MUG MINI LOVE ASSTD    0000002000+00000700+00000+0001T   00000700+0000001716          1400 AG5515               3AZ
129178000129178               129178               170213CT     1400+00000+CT0000009803+0000009803+000000000+000001376+0000011179+0000000000+I40000011179+0000000000+Z
129178001129178077-000010-F   129178006003453000461CREPE-PAPER BLUE       0000001000+00000788+00000+0001T   00000788+0000001720          1400 AG5112               3AZ
129178002129178077-000310     129178006001023608635GIFT-BAG 18X23CM GLOSS 0000001000+00001314+00000+0001T   00001314+0000001720          1400 AG5112               3AZ
129178003129178018-019000     129178006003000557288MUG OCC. LOVE JUMBO    0000001000+00005262+00000+0001T   00005262+0000001720          1400 AG5515               3AZ
129178004129178112-116038     129178006009681820246TCS CARRIER BAG MIDI   0000001000+00000035+00000+0001T   00000035+0000001720          1400 AG5090               3AZ
129178005129178006-000167-D   129178006003000517091BALLOONS PRPLE METALLIC0000001000+00001314+00000+0001T   00001314+0000001720          1400 AG5131               3AZ
129178006129178006-000171-K   129178006003000609697BALLOONS 1PC PURPLE PRN0000005000+00000218+00000+0001T   00000218+0000001720          1400 AG5131               3AZ
A17021300                                          11091510CTSLAVE 3                       AG51IC
B12909800                                          170213CT566-000359     12144740SLAVE 3     AG51IC0000002000+0000001000+0000000000000+
C12911700                                          170213CT077-000303     12595216SLAVE 3     AG51IC0000000000+0000000000+0030000001000+
C12917100                                          170213CT079-009702-D   16410998SLAVE 3     AG53IC0000000000+0000000000+0010000001000+
C12917101                                          170213CT079-009702-B   16411978SLAVE 3     AG53IC0000000000+0000000000+0020000001000+
M17021391                              CASH        CTSLAVE 3                       Z-REPORT No.   648TOTAL (Sales - Refunds)          11635.70       CASH TO BE BANKED                 5057.50       DEBIT CARDS                          0.00       CREDIT CARDS                      6578.20       Z-READING                        11635.70       AIRTIME DEBIT CARD SALES             0.00       AIRTIME CARD SALES                   0.00       OVERS/UNDERS                         0.00       AIRTIME CASH SALES                   0.00       GIFT CARDS                           0.00       GIFT CARD CASH SALES                 0.00       T O T A L  CASH PAYOUTS              0.00                                                                                                                                                                                                                                                                                                                                                      Z
M17021392                              CASH        CTABSENT                                                                                                                                                                                          ANNUAL LEAVE                                                                                                                                                                                    DAY OFF                                                                                                                                                                                         COMMENTS                                                                                                                                                                                                                                                                                                                                                                                       Z
Y17021300                                          CT00000001026317+000131
ZCT17021319263 SLAVE 3      SALES DATA                     NEXT INVOICE NO.  129179 0648
X CT Slave 3 First invoice 129047 170213 Last invoice 129178 170213 Next invoice 129179 Total number of records 000000490 clbackup completed 19:26:56
