293927000293927               293927               170213CW     1400+00000+CW0000001753+0000001753+000000000+000000246+0000001990+0000000009+I20000000000+0000001990+Z
293927001293927077-000299-A   293927006003000670888GIFT-BAG PAPER JMB LOVE0000001000+00001753+00000+0001T   00001753+0000000900          1400 SL9112               2AZ
293928000293928               293928               170213CW     1400+00000+CW0000000035+0000000035+000000000+000000005+0000000040+0000000000+I20000000000+0000000040+Z
293928001293928112-116038     293928006003000534906TCS CARRIER BAG MIDI   0000001000+00000035+00000+0001T   00000035+0000000901          1400 SL9090               2AZ
293929000293929               293929               170213CW     1400+00000+CW0000001349+0000001349+000000000+000000189+0000001530+0000000008+I20000000000+0000001530+Z
293929001293929362-000307     293929006003000519750HAIR HEADBAND PRINTED  0000001000+00001314+00000+0001T   00001314+0000000904          1400 SL9160               2AZ
293929002293929112-116038     293929006003000534906TCS CARRIER BAG MIDI   0000001000+00000035+00000+0001T   00000035+0000000904          1400 SL9090               2AZ
293930000293930               293930               170213CW     1400+00000+CW0000003014+0000003014+000000000+000000423+0000003430+0000000007+I20000000000+0000003430+Z
293930001293930077-000151     293930006008766114676GIFT-WRAP C/PHANE ASSTD0000002000+00000876+00000+0001T   00000876+0000000909          1400 SL9112               2AZ
293930002293930077-000245     293930006001023759214GIFT-RIBBON METALLICx2 0000001000+00001227+00000+0001T   00001227+0000000909          1400 SL9112               2AZ
293930003293930112-116038     293930006009681820246TCS CARRIER BAG MIDI   0000001000+00000035+00000+0001T   00000035+0000000909          1400 SL9090               2AZ
293931000293931               293931               170213CW     1400+00000+CW0000004383+0000004383+000000000+000000615+0000004990+0000000008+I20000000000+0000004990+Z
293931001293931079-000273     293931006003000160327PAINT BRUSHES THICK    0000001000+00002630+00000+0001T   00002630+0000000910          1400 SL9130               2AZ
293931002293931038-047250     293931006001023816009PLACE MAT ASSORTED     0000001000+00001753+00000+0001T   00001753+0000000910          1400 SL9300               2AZ
293932000293932               293932               170213CW     1400+00000+CW0000002630+0000002630+000000000+000000369+0000002990+0000000009+I20000000000+0000002990+Z
293932001293932050-000364-Z   293932006001023777133PADLOCK IRON 38mm CARD 0000001000+00002630+00000+0001T   00002630+0000000911          1400 SL9855               2AZ
293933000293933               293933               170213CW     1400+00000+CW0000007893+0000007893+000000000+000001106+0000008990+0000000009+I20000000000+0000008990+Z
293933001293933301-085007     293933006003000673698ORN OCC. LOVE S/PLAQUE 0000001000+00007893+00000+0001T   00007893+0000000914          1400 SL9505               2AZ
293934000293934               293934               170213CW     1400+00000+CW0000004386-0000004386-000000000+000000615-0000005010-0000000009+I20000000000+0000005010-Z
293934001293934301-085007     293934006003000673698ORN OCC. LOVE S/PLAQUE 0000001000-00007893+00000+0001T   00007893+0000000918          1400 SL95051IC            2 Z
293934002293934018-000130     293934006001023867537MUG OCC LOVE MINI+HEART0000001000+00003507+00000+0001T   00003507+0000000918          1400 SL9515               2 Z
293935000293935               293935               170213CW     1400+00000+CW0000003541+0000003541+000000000+000000497+0000004030+0000000008+I20000000000+0000004030+Z
293935001293935036-000615     293935006003000218769WASH-PEGS PL PCK-24    0000002000+00001753+00000+0001T   00001753+0000000926          1400 SL9212               2AZ
293935002293935112-116038     293935006009681820246TCS CARRIER BAG MIDI   0000001000+00000035+00000+0001T   00000035+0000000926          1400 SL9090               2AZ
293936000293936               293936               170213CW     1400+00000+CW0000000876+0000000876+000000000+000000123+0000000990+0000000009+I20000000000+0000000990+Z
293936001293936903-000482     293936006001704001397SWT SOFT-MINTS 60G     0000001000+00000876+00000+0001T   00000876+0000000940          1400 SL9150               2AZ
293937000293937               293937               170213CW     1400+00000+CW0000000876+0000000876+000000000+000000123+0000000990+0000000009+I20000000000+0000000990+Z
293937001293937077-000150-D   293937006003000054343GIFT-WRAP CELLPHANE CLR0000001000+00000876+00000+0001T   00000876+0000000943          1400 SL9112               2AZ
293938000293938               293938               170213CW     1400+00000+CW0000002630+0000002630+000000000+000000369+0000002999+0000000000+I40000002999+0000000000+Z
293938001293938056-065302     293938006001023759566CAR SUN-SHIELD ALM-FOIL0000001000+00002630+00000+0001T   00002630+0000000957          1400 SL9860               2AZ
293939000293939               293939               170213CW     1400+00000+CW0000007061+0000007061+000000000+000000990+0000008050+0000000001+I20000000000+0000008050+Z
293939001293939105-001039-B   293939006003000632596CONTAINER W/VENT 12x16 0000001000+00001753+00000+0001T   00002630+0008161120          1400 SL9210               2AZ
293939002293939105-001250     293939006003000572991CONTAINER FROSTED 2000m0000001000+00003507+00000+0001T   00003507+0000001120          1400 SL9210               2AZ
293939003293939106-001108     293939006003000467365WATER BOTTLE 580ml     0000001000+00001753+00000+0001T   00001753+0000001120          1400 SL9210               2AZ
293939004293939112-116069     293939006009681820277TCS CARRIER BAG JUMBO  0000001000+00000048+00000+0001T   00000048+0000001120          1400 SL9090               2AZ
293940000293940               293940               170213CW     1400+00000+CW0000000700+0000000700+000000000+000000098+0000000790+0000000008+I20000000000+0000000790+Z
293940001293940007-000128     293940006009635830475BOOK H/COVER A5 96-PAGE0000001000+00000700+00000+0001T   00000700+0000001121          1400 SL9130               2AZ
293941000293941               293941               170213CW     1400+00000+CW0000001402+0000001402+000000000+000000197+0000001590+0000000009+I20000000000+0000001590+Z
293941001293941107-002100     293941006002638001354BASIN PL 36cm          0000001000+00001402+00000+0001T   00001402+0000001146          1400 SL9210               2AZ
293942000293942               293942               170213CW     1400+00000+CW0000005260+0000005260+000000000+000000738+0000005990+0000000008+I20000000000+0000005990+Z
293942001293942028-000899     293942006001023509932BBQ-GRILL-CLEANER LONG 0000001000+00002630+00000+0001T   00002630+0000001211          1400 SL9305               2AZ
293942002293942056-065302     293942006001023759566CAR SUN-SHIELD ALM-FOIL0000001000+00002630+00000+0001T   00002630+0000001211          1400 SL9860               2AZ
293943000293943               293943               170213CW     1400+00000+CW0000002630+0000002630+000000000+000000369+0000002990+0000000009+I20000000000+0000002990+Z
293943001293943019-071601     293943006001023771995RIVER-STONES 1kg WHITE 0000001000+00002630+00000+0001T   00002630+0000001211          1400 SL9510               2AZ
293944000293944               293944               170213CW     1400+00000+CW0000002980+0000002980+000000000+000000418+0000003390+0000000008+I20000000000+0000003390+Z
293944001293944140-001004     293944006001023880932FLY-RIBBONS 4PCE PL    0000002000+00001490+00000+0001T   00001490+0000001228          1400 SL9830               2AZ
293945000293945               293945               170213CW     1400+00000+CW0000007744+0000007744+000000000+000001088+0000008830+0000000002+I20000000000+0000008830+Z
293945001293945200-003024     293945006001023657299REFUSE BAGS 20PCE BLACK0000001000+00001753+00000+0001T   00001753+0000001409          1400 SL9214               2AZ
293945002293945033-010721     293945006001023678669SAFETY-PINS 20PCE ASSTD0000001000+00000700+00000+0001T   00000700+0000001409          1400 SL9200               2AZ
293945003293945159-000636     293945006003000036035BATH PUMICE,BRUSH,FILE 0000001000+00001753+00000+0001T   00001753+0000001409          1400 SL9200               2AZ
293945004293945077-000011-R   293945006001023808462P/TISSUE DARK 10-SHEETS0000001000+00000876+00000+0001T   00000876+0000001409          1400 SL9112               2AZ
293945005293945077-000299-A   293945006003000670888GIFT-BAG PAPER JMB LOVE0000001000+00001753+00000+0001T   00001753+0000001409          1400 SL9112               2AZ
293945006293945083-000049     293945004891035200024CIG-LIGHTER DISPOSABLE 0000002000+00000437+00000+0001T   00000437+0000001409          1400 SL9315               2AZ
293945007293945112-116038     293945006003000534906TCS CARRIER BAG MIDI   0000001000+00000035+00000+0001T   00000035+0000001409          1400 SL9090               2AZ
293946000293946               293946               170213CW     1400+00000+CW0000001314+0000001314+000000000+000000184+0000001490+0000000008+I20000000000+0000001490+Z
293946001293946077-000310     293946006001023608635GIFT-BAG 18X23CM GLOSS 0000001000+00001314+00000+0001T   00001314+0000001409          1400 SL9112               2AZ
293947000293947               293947               170213CW     1400+00000+CW0000004420+0000004420+000000000+000000619+0000005030+0000000009+I20000000000+0000005030+Z
293947001293947030-000031-A   293947006003000457588PLAQUE W/WORDS ASSTD   0000001000+00004385+00000+0001T   00004823+0006471412          1400 SL9505               2AZ
293947002293947112-116038     293947006009681820246TCS CARRIER BAG MIDI   0000001000+00000035+00000+0001T   00000035+0000001412          1400 SL9090               2AZ
293948000293948               293948               170213CW     1400+00000+CW0000049612+0000049612+000000000+000006966+0000056578+0000000000+I40000056578+0000000000+Z
293948001293948159-000636     293948006003000036035BATH PUMICE,BRUSH,FILE 0000001000+00001753+00000+0001T   00001753+0000001451          1400 SL9200               2AZ
293948002293948027-000194     293948006001246602472MOP COMPLETE           0000021000+00002279+00000+0001T   00002279+0000001451          1400 SL9212               2AZ
293949000293949               293949               170213CW     1400+00000+CW0000003507+0000003507+000000000+000000491+0000003990+0000000008+I20000000000+0000003990+Z
293949001293949018-000136     293949006001023659026MUG OCC LOVE W/PLUSH   0000001000+00003507+00000+0001T   00003507+0000001507          1400 SL9515               2AZ
293950000293950               293950               170213CW     1400+00000+CW0000005262+0000005262+000000000+000000737+0000005990+0000000009+I20000000000+0000005990+Z
293950001293950560-000100     293950006001023834904DRAGON 15cm            0000001000+00005262+00000+0001T   00005262+0000001507          1400 SL9745               2AZ
293951000293951               293951               170213CW     1400+00000+CW0000000613+0000000613+000000000+000000086+0000000690+0000000009+I20000000000+0000000690+Z
293951001293951306-000021     293951006001023169433EARBUDS 100PCE IN BAG  0000001000+00000613+00000+0001T   00000613+0000001508          1400 SL9200               2AZ
293952000293952               293952               170213CW     1400+00000+CW0000001227+0000001227+000000000+000000172+0000001390+0000000009+I20000000000+0000001390+Z
293952001293952077-000322     293952006001023677532GIFT-BAG 18X23CM E/D FL0000001000+00001227+00000+0001T   00001227+0000001518          1400 SL9112               2AZ
293953000293953               293953               170213CW     1400+00000+CW0000001753+0000001753+000000000+000000246+0000001990+0000000009+I20000000000+0000001990+Z
293953001293953077-000115     293953006001023834225WRAP METALLIC 700mmx1m 0000001000+00001753+00000+0001T   00001753+0000001633          1400 SL9112               2AZ
293954000293954               293954               170213CW     1400+00000+CW0000004385+0000004385+000000000+000000614+0000004990+0000000009+I20000000000+0000004990+Z
293954001293954082-007582     293954006003000465804SUNGLASSES EMPORIUM    0000001000+00004385+00000+0001T   00004385+0000001634          1400 SL9160               2AZ
293955000293955               293955               170213CW     1400+00000+CW0000004385+0000004385+000000000+000000614+0000004990+0000000009+I20000000000+0000004990+Z
293955001293955369-001032     293955006001023796158BABY RATTLE SET 6PCE   0000001000+00004385+00000+0001T   00004385+0000001641          1400 SL9745               2AZ
293956000293956               293956               170213CW     1400+00000+CW0000001490+0000001490+000000000+000000209+0000001690+0000000009+I20000000000+0000001690+Z
293956001293956077-000304     293956006001023483232GIFT-BAG 25X32CM E/DAY 0000001000+00001490+00000+0001T   00001490+0000001642          1400 SL9112               2AZ
293957000293957               293957               170213CW     1400+00000+CW0000003069+0000003069+000000000+000000430+0000003490+0000000009+I20000000000+0000003490+Z
293957001293957030-000030-A   293957006003000249305PLAQUE GLASS LOVE      0000001000+00003069+00000+0001T   00003069+0000001643          1400 SL9505               2AZ
293958000293958               293958               170213CW     1400+00000+CW0000002839+0000002839+000000000+000000399+0000003230+0000000008+I20000000000+0000003230+Z
293958001293958304-001204     293958006001023737984FLOWER OCC. TEDDY/ROSES0000002000+00001402+00000+0001T   00001490+0006471644          1400 SL9510               2AZ
293958002293958112-116038     293958006003000534906TCS CARRIER BAG MIDI   0000001000+00000035+00000+0001T   00000035+0000001644          1400 SL9090               2AZ
293959000293959               293959               170213CW     1400+00000+CW0000004385+0000004385+000000000+000000614+0000004990+0000000009+I20000000000+0000004990+Z
293959001293959001-000175     293959006001023788108B/MUG GLS LOVE 380ML   0000001000+00004385+00000+0001T   00004385+0000001645          1400 SL9515               2AZ
293960000293960               293960               170213CW     1400+00000+CW0000000700+0000000700+000000000+000000098+0000000790+0000000008+I20000000000+0000000790+Z
293960001293960903-000120     293960006002099001665SWEET GS ZILLIONS 50g  0000001000+00000700+00000+0001T   00000700+0000001647          1400 SL9150               2AZ
293961000293961               293961               170213CW     1400+00000+CW0000003507+0000003507+000000000+000000491+0000003990+0000000008+I20000000000+0000003990+Z
293961001293961071-001010     293961006001023893314MARKERS-METALIC 3PCE   0000001000+00003507+00000+0001T   00003507+0000001648          1400 SL9130               2AZ
293962000293962               293962               170213CW     1400+00000+CW0000001787+0000001787+000000000+000000251+0000002030+0000000008+I20000000000+0000002030+Z
293962001293962022-002108     293962006002600025159MUG 8cm PLAIN          0000002000+00000876+00000+0001T   00000876+0000001650          1400 SL9305               2AZ
293962002293962112-116038     293962006003000534906TCS CARRIER BAG MIDI   0000001000+00000035+00000+0001T   00000035+0000001650          1400 SL9090               2AZ
293963000293963               293963               170213CW     1400+00000+CW0000006224+0000006224+000000000+000000872+0000007090+0000000006+I20000000000+0000007090+Z
293963001293963006-000190     293963006003000685530BALLOONS LOVE 81x91cm  0000001000+00004385+00000+0001T   00004385+0000001651          1400 SL9131               2AZ
293963002293963006-001000     293963006003000093779HELIUM BALLOON FILL    0000003000+00000613+00000+0001T   00000613+0000001651          1400 SL9131               2AZ
293964000293964               293964               170213CW     1400+00000+CW0000001308+0000001308+000000000+000000186+0000001490+0000000004+I20000000000+0000001490+Z
293964001293964006-000170-C   293964006003000608188BALLOONS 1PC D/GREEN   0000002000+00000218+00000+0001T   00000218+0000001653          1400 SL9131               2AZ
293964002293964006-000170-K   293964006003000609284BALLOONS 1PC PURPLE    0000002000+00000218+00000+0001T   00000218+0000001653          1400 SL9131               2AZ
293964003293964006-000171-D   293964006003000609291BALLOONS 1PC ORANGE PRN0000002000+00000218+00000+0001T   00000218+0000001653          1400 SL9131               2AZ
293965000293965               293965               170213CW     1400+00000+CW0000006139+0000006139+000000000+000000860+0000006990+0000000009+I20000000000+0000006990+Z
293965001293965039-080945     293965006001023772053C/PILLAR ROUND WHITE   0000001000+00006139+00000+0001T   00006139+0000001653          1400 SL9510               2AZ
293966000293966               293966               170213CW     1400+00000+CW0000000437+0000000437+000000000+000000062+0000000490+0000000009+I20000000000+0000000490+Z
293966001293966080-000133-A   293966006003000647019MINI VALENTINES CARD   0000001000+00000437+00000+0001T   00000437+0000001656          1400 SL9112               2AZ
293967000293967               293967               170213CW     1400+00000+CW0000010523+0000010523+000000000+000001474+0000011990+0000000007+I20000000000+0000011990+Z
293967001293967048-071504     293967006003000225057TOUCH-LIGHT BAR TYPE   0000002000+00004385+00000+0001T   00004385+0000001656          1400 SL9305               2AZ
293967002293967046-000014-A   293967004897006177708BATTERIES SIZE:AAA 8PCE0000001000+00001753+00000+0001T   00001753+0000001656          1400 SL9312               2AZ
293968000293968               293968               170213CW     1400+00000+CW0000002630+0000002630+000000000+000000369+0000002990+0000000009+I20000000000+0000002990+Z
293968001293968016-006425     293968006001023998170S/JAR GLS CLIP W/RIBBON0000001000+00002630+00000+0001T   00002630+0000001658          1400 SL9300               2AZ
293969000293969               293969               170213CW     1400+00000+CW0000008416+0000008416+000000000+000001179+0000009595+0000000000+I40000009595+0000000000+Z
293969001293969080-000127     293969006003000424351VALENTINES DAY 36x24CM 0000001000+00002192+00000+0001T   00002192+0000001659          1400 SL9112               2AZ
293969002293969006-000190     293969006003000685530BALLOONS LOVE 81x91cm  0000001000+00004385+00000+0001T   00004385+0000001659          1400 SL9131               2AZ
293969003293969006-001000     293969006003000093779HELIUM BALLOON FILL    0000003000+00000613+00000+0001T   00000613+0000001659          1400 SL9131               2AZ
293970000293970               293970               170213CW     1400+00000+CW0000003506+0000003506+000000000+000000492+0000003990+0000000008+I20000000000+0000003990+Z
293970001293970903-000619     293970006003000672455SWT LOLLY STR/BRRY 140G0000002000+00001753+00000+0001T   00001753+0000001700          1400 SL9150               2AZ
293971000293971               293971               170213CW     1400+00000+CW0000005699+0000005699+000000000+000000798+0000006497+0000000000+I40000006497+0000000000+Z
293971001293971001-000175     293971006001023788108B/MUG GLS LOVE 380ML   0000001000+00004385+00000+0001T   00004385+0000001702          1400 SL9515               2AZ
293971002293971077-000310     293971006001023608635GIFT-BAG 18X23CM GLOSS 0000001000+00001314+00000+0001T   00001314+0000001702          1400 SL9112               2AZ
293972000293972               293972               170213CW     1400+00000+CW0000000525+0000000525+000000000+000000074+0000000590+0000000009+I20000000000+0000000590+Z
293972001293972903-000155     293972006009803374435SWT LOLLY I LUV U HEART0000001000+00000525+00000+0001T   00000525+0000001702          1400 SL9150               2AZ
293973000293973               293973               170213CW     1400+00000+CW0000001753+0000001753+000000000+000000246+0000001999+0000000000+I40000001999+0000000000+Z
293973001293973077-000011-X   293973006001023809827TISSUE-WRAP SILVER 10PC0000001000+00001753+00000+0001T   00001753+0000001704          1400 SL9112               2AZ
293974000293974               293974               170213CW     1400+00000+CW0000007047+0000007047+000000000+000000989+0000008036+0000000000+I40000008036+0000000000+Z
293974001293974251-000073     293974006003000452132PROTECTION-PADS BLK ADH0000001000+00001753+00000+0001T   00001753+0000001705          1400 SL9810               2AZ
293974002293974027-001018     293974006003000622702BROOM COVER MICROFIBRE 0000001000+00002630+00000+0001T   00002630+0000001705          1400 SL9212               2AZ
293974003293974252-000021     293974006001023475213CURTAIN WIRE+HOOKS+EYES0000001000+00001753+00000+0001T   00001753+0000001705          1400 SL9810               2AZ
293974004293974112-116038     293974006009681820246TCS CARRIER BAG MIDI   0000001000+00000035+00000+0001T   00000035+0000001705          1400 SL9090               2AZ
293974005293974903-000483     293974006001704001410SWT LIQUOR SML SORT 60G0000001000+00000876+00000+0001T   00000876+0000001705          1400 SL9150               2AZ
293975000293975               293975               170213CW     1400+00000+CW0000004997+0000004997+000000000+000000700+0000005690+0000000007+I20000000000+0000005690+Z
293975001293975018-005009     293975006001023725608MUG W/PLUSH-BEAR LOVE  0000001000+00003507+00000+0001T   00003507+0000001707          1400 SL9515               2AZ
293975002293975077-000452     293975006003000284986G/BAG METALLIC MED EMB 0000001000+00001490+00000+0001T   00001490+0000001707          1400 SL9112               2AZ
293976000293976               293976               170213CW     1400+00000+CW0000009471+0000009471+000000000+000001327+0000010790+0000000008+I20000000000+0000010790+Z
293976001293976301-085007     293976006003000673698ORN OCC. LOVE S/PLAQUE 0000001000+00007893+00000+0001T   00007893+0000001708          1400 SL9505               2AZ
293976002293976077-000315     293976006003000181186GIFT-BAG 20x28cm MATT  0000001000+00001578+00000+0001T   00001578+0000001708          1400 SL9112               2AZ
293977000293977               293977               170213CW     1400+00000+CW0000001613+0000001613+000000000+000000226+0000001830+0000000009+I20000000000+0000001830+Z
293977001293977077-000303     293977006001023593757GIFT-BAG PAPER MED     0000001000+00001578+00000+0001T   00001578+0000001711          1400 SL9112               2AZ
293977002293977112-116038     293977006009681820246TCS CARRIER BAG MIDI   0000001000+00000035+00000+0001T   00000035+0000001711          1400 SL9090               2AZ
293978000293978               293978               170213CW     1400+00000+CW0000001227+0000001227+000000000+000000172+0000001390+0000000009+I20000000000+0000001390+Z
293978001293978200-000092     293978006003000576739PICNIC PAPER PLATES 23c0000001000+00001227+00000+0001T   00001227+0000001712          1400 SL9214               2AZ
293979000293979               293979               170213CW     1400+00000+CW0000016709+0000016709+000000000+000002342+0000019050+0000000001+I20000000000+0000019050+Z
293979001293979567-011308     293979006003000598472BOOK COLOURING COPY    0000001000+00002630+00000+0001T   00002630+0000001716          1400 SL9757               2AZ
293979002293979567-011311     293979006003000593453BOOK ACTIVITY DOT TO   0000001000+00002630+00000+0001T   00002630+0000001716          1400 SL9757               2AZ
293979003293979562-002006     293979006003000228065LEARNING THE OPPOSITES 0000001000+00004385+00000+0001T   00006139+0008141716          1400 SL9755               2AZ
293979004293979263-000220     293979006001023708458VEHICLE JEEP PICK-UP   0000001000+00007016+00000+0001T   00007016+0000001716          1400 SL9710               2AZ
293979005293979112-116069     293979006009681820277TCS CARRIER BAG JUMBO  0000001000+00000048+00000+0001T   00000048+0000001716          1400 SL9090               2AZ
293980000293980               293980               170213CW     1400+00000+CW0000001050+0000001050+000000000+000000148+0000001190+0000000008+I20000000000+0000001190+Z
293980001293980903-000155     293980006009803374435SWT LOLLY I LUV U HEART0000002000+00000525+00000+0001T   00000525+0000001717          1400 SL9150               2AZ
293981000293981               293981               170213CW     1400+00000+CW0000000525+0000000525+000000000+000000074+0000000590+0000000009+I20000000000+0000000590+Z
293981001293981903-000155     293981006009803374435SWT LOLLY I LUV U HEART0000001000+00000525+00000+0001T   00000525+0000001718          1400 SL9150               2AZ
293982000293982               293982               170213CW     1400+00000+CW0000007488+0000007488+000000000+000001049+0000008530+0000000007+I20000000000+0000008530+Z
293982001293982565-000876     293982006003000305759NOVELTY FUNKY SUNGLASS 0000001000+00003507+00000+0001T   00003507+0000001719          1400 SL9745               2AZ
293982002293982024-000002     293982006001023741899S/BURNER-COVER SILV/BLK0000001000+00003946+00000+0001T   00004385+0008191719          1400 SL9300               2AZ
293982003293982112-116038     293982006009681820246TCS CARRIER BAG MIDI   0000001000+00000035+00000+0001T   00000035+0000001719          1400 SL9090               2AZ
293983000293983               293983               170213CW     1400+00000+CW0000002925+0000002925+000000000+000000411+0000003330+0000000006+I20000000000+0000003330+Z
293983001293983079-006500     293983006001023557186GLUE GLITTER 6/10 PCE  0000001000+00001753+00000+0001T   00001753+0000001722          1400 SL9130               2AZ
293983002293983079-009700-D   293983006003000545711PAPER SIRIO A4 RED COL.0000001000+00000306+00000+0001T   00000306+0000001722          1400 SL9130               2AZ
293983003293983079-009700-E   293983006003000545797PAPER SIRIO A4 GREY    0000001000+00000306+00000+0001T   00000306+0000001722          1400 SL9130               2AZ
293983004293983903-000155     293983006009803374435SWT LOLLY I LUV U HEART0000001000+00000525+00000+0001T   00000525+0000001722          1400 SL9150               2AZ
293983005293983112-116038     293983006009681820246TCS CARRIER BAG MIDI   0000001000+00000035+00000+0001T   00000035+0000001722          1400 SL9090               2AZ
293984000293984               293984               170213CW     1400+00000+CW0000001753+0000001753+000000000+000000246+0000001990+0000000009+I20000000000+0000001990+Z
293984001293984206-000370     293984006003000631315STRAW P/DRINKING GLASS 0000001000+00001753+00000+0001T   00001753+0000001723          1400 SL9321               2AZ
293985000293985               293985               170213CW     1400+00000+CW0000005696+0000005696+000000000+000000800+0000006490+0000000006+I20000000000+0000006490+Z
293985001293985077-000299     293985006003000395576G/BAG 32x25cm LRG LOVE 0000001000+00001490+00000+0001T   00001490+0000001723          1400 SL9112               2AZ
293985002293985304-001204     293985006001023737984FLOWER OCC. TEDDY/ROSES0000003000+00001402+00000+0001T   00001490+0006471723          1400 SL9510               2AZ
293986000293986               293986               170213CW     1400+00000+CW0000003278+0000003278+000000000+000000460+0000003730+0000000008+I20000000000+0000003730+Z
293986001293986079-006497     293986006003000160228GLITTER SET 6PCE+GLUE  0000001000+00002630+00000+0001T   00002630+0000001724          1400 SL9130               2AZ
293986002293986566-001226     293986006001023672360STICKERS 3-D POP-UP    0000001000+00000613+00000+0001T   00000613+0000001724          1400 SL9130               2AZ
293986003293986112-116038     293986006009681820246TCS CARRIER BAG MIDI   0000001000+00000035+00000+0001T   00000035+0000001724          1400 SL9090               2AZ
293987000293987               293987               170213CW     1400+00000+CW0000012653+0000012653+000000000+000001776+0000014429+0000000000+I40000014429+0000000000+Z
293987001293987077-000011-D   293987006001023808554TISSUE-WRAP WHITE 10PCE0000001000+00000876+00000+0001T   00000876+0000001726          1400 SL9112               2AZ
293987002293987560-000302     293987006001023834874DINOSAUR ASSTD DESIGNS 0000001000+00003507+00000+0001T   00003507+0000001726          1400 SL9745               2AZ
293987003293987077-000299     293987006003000395576G/BAG 32x25cm LRG LOVE 0000002000+00001490+00000+0001T   00001490+0000001726          1400 SL9112               2AZ
293987004293987466-000515     293987006001023477408BALLS TENNIS BAG-OF-3  0000001000+00002630+00000+0001T   00002630+0000001726          1400 SL9785               2AZ
293987005293987112-116038     293987006009681820246TCS CARRIER BAG MIDI   0000001000+00000035+00000+0001T   00000035+0000001726          1400 SL9090               2AZ
293987006293987903-000155     293987006009803374435SWT LOLLY I LUV U HEART0000005000+00000525+00000+0001T   00000525+0000001726          1400 SL9150               2AZ
293988000293988               293988               170213CW     1400+00000+CW0000008447+0000008447+000000000+000001187+0000009630+0000000004+I20000000000+0000009630+Z
293988001293988304-001204     293988006001023737984FLOWER OCC. TEDDY/ROSES0000006000+00001402+00000+0001T   00001490+0006471727          1400 SL9510               2AZ
293988002293988112-116038     293988006009681820246TCS CARRIER BAG MIDI   0000001000+00000035+00000+0001T   00000035+0000001727          1400 SL9090               2AZ
293989000293989               293989               170213CW     1400+00000+CW0000002366+0000002366+000000000+000000332+0000002690+0000000008+I20000000000+0000002690+Z
293989001293989077-000305     293989006003000395422GIFT-BAG WINE 10X35CM  0000001000+00001490+00000+0001T   00001490+0000001727          1400 SL9112               2AZ
293989002293989077-000011-L   293989006001023808585P/TISSUE BRIGHT 10SHEET0000001000+00000876+00000+0001T   00000876+0000001727          1400 SL9112               2AZ
293990000293990               293990               170213CW     1400+00000+CW0000003980+0000003980+000000000+000000558+0000004530+0000000008+I20000000000+0000004530+Z
293990001293990079-013102     293990006003000019601ART+CRAFT DIY PIPE-CLNR0000001000+00002192+00000+0001T   00002192+0000001728          1400 SL9130               2AZ
293990002293990903-000912     293990006009802868461SWT GUM TAPE HOT WHEELS0000001000+00001753+00000+0001T   00001753+0000001728          1400 SL9150               2AZ
293990003293990112-116038     293990006009681820246TCS CARRIER BAG MIDI   0000001000+00000035+00000+0001T   00000035+0000001728          1400 SL9090               2AZ
293991000293991               293991               170213CW     1400+00000+CW0000006574+0000006574+000000000+000000922+0000007490+0000000006+I20000000000+0000007490+Z
293991001293991361-009103     293991006001023706607DOLL BOTTLES 10cm 2PCE 0000001000+00002192+00000+0001T   00002192+0000001728          1400 SL9725               2AZ
293991002293991361-009105     293991006001023832016DOLLS FEEDING SET 3PC  0000001000+00002630+00000+0001T   00002630+0000001728          1400 SL9725               2AZ
293991003293991362-003001     293991006003000295371GIRL ACCESS BAG FANCY  0000002000+00000876+00000+0001T   00001314+0008181728          1400 SL9160               2AZ
293992000293992               293992               170213CW     1400+00000+CW0000001801+0000001801+000000000+000000253+0000002050+0000000004+I20000000000+0000002050+Z
293992001293992077-000308     293992006001023595812GIFT-BAG 33X45CM E/DAY 0000001000+00001753+00000+0001T   00001753+0000001729          1400 SL9112               2AZ
293992002293992112-116069     293992006009681820277TCS CARRIER BAG JUMBO  0000001000+00000048+00000+0001T   00000048+0000001729          1400 SL9090               2AZ
293993000293993               293993               170213CW     1400+00000+CW0000012925+0000012925+000000000+000001811+0000014730+0000000006+I20000000000+0000014730+Z
293993001293993018-000130     293993006001023867537MUG OCC LOVE MINI+HEART0000001000+00003507+00000+0001T   00003507+0000001731          1400 SL9515               2AZ
293993002293993301-085007     293993006003000673698ORN OCC. LOVE S/PLAQUE 0000001000+00007893+00000+0001T   00007893+0000001731          1400 SL9505               2AZ
293993003293993077-000305     293993006003000395422GIFT-BAG WINE 10X35CM  0000001000+00001490+00000+0001T   00001490+0000001731          1400 SL9112               2AZ
293993004293993112-116038     293993006003000534906TCS CARRIER BAG MIDI   0000001000+00000035+00000+0001T   00000035+0000001731          1400 SL9090               2AZ
293994000293994               293994               170213CW     1400+00000+CW0000004997+0000004997+000000000+000000700+0000005697+0000000000+I40000005697+0000000000+Z
293994001293994077-000299     293994006003000395576G/BAG 32x25cm LRG LOVE 0000001000+00001490+00000+0001T   00001490+0000001732          1400 SL9112               2AZ
293994002293994031-000002-A   293994006003000247103P/FRAME LOVE 7.5X7.5CM 0000001000+00003507+00000+0001T   00003507+0000001732          1400 SL9510               2AZ
M17021391                              CASH        CWSLAVE 2                       Z-REPORT No.   664TOTAL (Sales - Refunds)           3545.20       CASH TO BE BANKED                 2486.90       DEBIT CARDS                          0.00       CREDIT CARDS                      1058.30       Z-READING                         3545.20       AIRTIME DEBIT CARD SALES             0.00       AIRTIME CARD SALES                   0.00       OVERS/UNDERS                         0.00       AIRTIME CASH SALES                   0.00       GIFT CARDS                           0.00       GIFT CARD CASH SALES                 0.00       T O T A L  CASH PAYOUTS              0.00                                                                                                                                                                                                                                                                                                                                                      Z
M17021392                              CASH        CWABSENT                                                                                                                                                                                          ANNUAL LEAVE                                                                                                                                                                                    DAY OFF                                                                                                                                                                                         COMMENTS                                                                                                                                                                                                                                                                                                                                                                                       Z
Y17021300                                          CW00000000319201+000068
ZCW17021319263 SLAVE 2      SALES DATA                     NEXT INVOICE NO.  293995 0664
F093751496-056475         1701110852370000032ICSLAVE 2
F094832022-002107         1702100853470000143ICSLAVE 2
F094873304-001011         1702110819550000203ICSLAVE 2
X CW Slave 2 First invoice 293927 170213 Last invoice 293994 170213 Next invoice 293995 Total number of records 000000206 clbackup completed 19:26:56
