328963000328963               328963               170213CW     1400+00000+CW0000000035+0000000035+000000000+000000005+0000000040+0000000000+I20000000000+0000000040+Z
328963001328963112-116038     328963006009681820246TCS CARRIER BAG MIDI   0000001000+00000035+00000+0001T   00000035+0000000829          1400 H28090               4AZ
328964000328964               328964               170213CW     1400+00000+CW0000001753+0000001753+000000000+000000246+0000001990+0000000009+I20000000000+0000001990+Z
328964001328964080-000101     328964006003000236732CARD&ENVLPE FEMALE     0000001000+00001753+00000+0001T   00001753+0000000832          1400 H28112               4AZ
328965000328965               328965               170213CW     1400+00000+CW0000002279+0000002279+000000000+000000320+0000002590+0000000009+I20000000000+0000002590+Z
328965001328965027-001020     328965006001246602519BROOM FLOOR W/HANDLE   0000001000+00002279+00000+0001T   00002279+0000001004          1400 H28212               4AZ
328966000328966               328966               170213CW     1400+00000+CW0000000613+0000000613+000000000+000000086+0000000690+0000000009+I20000000000+0000000690+Z
328966001328966083-000055     328966006003000003853LIGHTER ELCTRNC REFILBL0000001000+00000613+00000+0001T   00000613+0000001005          1400 H28315               4AZ
328967000328967               328967               170213CW     1400+00000+CW0000001227+0000001227+000000000+000000172+0000001390+0000000009+I20000000000+0000001390+Z
328967001328967077-000322     328967006001023677532GIFT-BAG 18X23CM E/D FL0000001000+00001227+00000+0001T   00001227+0000001018          1400 H28112               4AZ
328968000328968               328968               170213CW     1400+00000+CW0000008769+0000008769+000000000+000001228+0000009990+0000000007+I20000000000+0000009990+Z
328968001328968301-086006     328968006003000498918ORN OCCASION LOVE 4ASTD0000001000+00005262+00000+0001T   00005262+0000001019          1400 H28505               4AZ
328968002328968018-000136     328968006001023659026MUG OCC LOVE W/PLUSH   0000001000+00003507+00000+0001T   00003507+0000001019          1400 H28515               4AZ
328969000328969               328969               170213CW     1400+00000+CW0000000437+0000000437+000000000+000000062+0000000490+0000000009+I20000000000+0000000490+Z
328969001328969083-000049     328969004891035200024CIG-LIGHTER DISPOSABLE 0000001000+00000437+00000+0001T   00000437+0000001020          1400 H28315               4AZ
328970000328970               328970               170213CW     1400+00000+CW0000000876+0000000876+000000000+000000123+0000000990+0000000009+I20000000000+0000000990+Z
328970001328970903-000482     328970006001704001397SWT SOFT-MINTS 60G     0000001000+00000876+00000+0001T   00000876+0000001029          1400 H28150               4AZ
328971000328971               328971               170213CW     1400+00000+CW0000000348+0000000348+000000000+000000050+0000000390+0000000008+I20000000000+0000000390+Z
328971001328971007-000407     328971006009635831717BK JOTTER A5 48-PG F/M 0000002000+00000174+00000+0001T   00000174+0000001034          1400 H28130               4AZ
328972000328972               328972               170213CW     1400+00000+CW0000002630+0000002630+000000000+000000369+0000002990+0000000009+I20000000000+0000002990+Z
328972001328972142-000812     328972006003000165421GLOVES LATEX 10PCE-5PRS0000001000+00002630+00000+0001T   00002630+0000001035          1400 H28810               4AZ
328973000328973               328973               170213CW     1400+00000+CW0000004385+0000004385+000000000+000000614+0000004990+0000000009+I20000000000+0000004990+Z
328973001328973082-000100     328973006003000360246READING GLS STRENGHT:1 0000001000+00004385+00000+0001T   00004385+0000001036          1400 H28160               4AZ
328974000328974               328974               170213CW     1400+00000+CW0000010036+0000010036+000000000+000001409+0000011440+0000000005+I20000000000+0000011440+Z
328974001328974112-116069     328974006009681820277TCS CARRIER BAG JUMBO  0000001000+00000048+00000+0001T   00000048+0000001040          1400 H28090               4AZ
328974002328974077-000150-D   328974006003000054343GIFT-WRAP CELLPHANE CLR0000001000+00000876+00000+0001T   00000876+0000001040          1400 H28112               4AZ
328974003328974088-000084     328974006001023798060P/POURRI 120G ASSTD    0000001000+00001753+00000+0001T   00001753+0000001040          1400 H28212               4AZ
328974004328974903-000200     328974006009826020234SWT CHOC RP CHOCO 23G  0000004000+00000788+00000+0001T   00000788+0000001040          1400 H28150               4AZ
328974005328974018-000177     328974006001023797513MUG MINI LOVE ASSTD    0000001000+00000700+00000+0001T   00000700+0000001040          1400 H28515               4AZ
328974006328974103-000472     328974006003000631049FLOWER BASKET W/HANDLE 0000001000+00003507+00000+0001T   00003507+0000001040          1400 H28300               4AZ
328975000328975               328975               170213CW     1400+00000+CW0000001753+0000001753+000000000+000000246+0000001990+0000000009+I20000000000+0000001990+Z
328975001328975903-000619     328975006003000672455SWT LOLLY STR/BRRY 140G0000001000+00001753+00000+0001T   00001753+0000001041          1400 H28150               4AZ
328976000328976               328976               170213CW     1400+00000+CW0000001051+0000001051+000000000+000000148+0000001190+0000000009+I20000000000+0000001190+Z
328976001328976903-002851     328976000000087108538MENTOS ROLL STRAWBERRY 0000001000+00001051+00000+0001T   00001051+0000001045          1400 H28150               4AZ
328977000328977               328977               170213CW     1400+00000+CW0000005908+0000005908+000000000+000000828+0000006730+0000000006+I20000000000+0000006730+Z
328977001328977133-000017     328977006003000525171CLEANING-CLOTHS 5PCE   0000001000+00003507+00000+0001T   00003507+0000001110          1400 H28212               4AZ
328977002328977079-006522     328977006001023149442ART+CRAFT GLUE ASSORTED0000001000+00001753+00000+0001T   00001753+0000001110          1400 H28130               4AZ
328977003328977083-000055     328977006003000003853LIGHTER ELCTRNC REFILBL0000001000+00000613+00000+0001T   00000613+0000001110          1400 H28315               4AZ
328977004328977112-116038     328977006009681820246TCS CARRIER BAG MIDI   0000001000+00000035+00000+0001T   00000035+0000001110          1400 H28090               4AZ
328978000328978               328978               170213CW     1400+00000+CW0000001753+0000001753+000000000+000000246+0000001990+0000000009+I20000000000+0000001990+Z
328978001328978077-000115     328978006001023834225WRAP METALLIC 700mmx1m 0000001000+00001753+00000+0001T   00001753+0000001115          1400 H28112               4AZ
328979000328979               328979               170213CW     1400+00000+CW0000001578+0000001578+000000000+000000221+0000001799+0000000000+I40000001799+0000000000+Z
328979001328979077-000315     328979006003000181186GIFT-BAG 20x28cm MATT  0000001000+00001578+00000+0001T   00001578+0000001118          1400 H28112               4AZ
328980000328980               328980               170213CW     1400+00000+CW0000015131+0000015131+000000000+000002120+0000017251+0000000000+I40000017251+0000000000+Z
328980001328980079-006494     328980006003000159864GLITTER GLUE 5PCE 11cm 0000001000+00001490+00000+0001T   00001490+0000001121          1400 H28130               4AZ
328980002328980566-000460     328980000721129024011STICKERS RUB-ON TRANSFR0000001000+00001314+00000+0001T   00001753+0008151121          1400 H28130               4AZ
328980003328980031-001008     328980006003000406494P/FRAME COLLAGE PLASTIC0000001000+00012279+00000+0001T   00012279+0000001121          1400 H28510               4AZ
328980004328980112-116069     328980006009681820277TCS CARRIER BAG JUMBO  0000001000+00000048+00000+0001T   00000048+0000001121          1400 H28090               4AZ
328981000328981               328981               170213CW     1400+00000+CW0000002192+0000002192+000000000+000000307+0000002490+0000000009+I20000000000+0000002490+Z
328981001328981051-002400     328981006001023616180TRIGGER-SPRAYER 900ml  0000001000+00002192+00000+0001T   00002192+0000001125          1400 H28820               4AZ
328982000328982               328982               170213CW     1400+00000+CW0000001139+0000001139+000000000+000000160+0000001290+0000000009+I20000000000+0000001290+Z
328982001328982027-078343     328982006008766078343SCRUB-BRUSH IRON-SHAPE 0000001000+00001139+00000+0001T   00001578+0008191127          1400 H28212               4AZ
328983000328983               328983               170213CW     1400+00000+CW0000015787+0000015787+000000000+000002211+0000017990+0000000008+I20000000000+0000017990+Z
328983001328983903-000211     328983006002099001238SWT GS MALLOW ICE CREAM0000001000+00001753+00000+0001T   00001753+0000001135          1400 H28150               4AZ
328983002328983028-002102     328983006002580009514TABLE KIDDIES          0000001000+00014034+00000+0001T   00014034+0000001135          1400 H28305               4AZ
328984000328984               328984               170213CW     1400+00000+CW0000001753+0000001753+000000000+000000246+0000001990+0000000009+I20000000000+0000001990+Z
328984001328984566-000066     328984006003000283675STICKERS GLITTER 25PCS 0000001000+00001753+00000+0001T   00001753+0000001135          1400 H28130               4AZ
328985000328985               328985               170213CW     1400+00000+CW0000000613+0000000613+000000000+000000086+0000000690+0000000009+I20000000000+0000000690+Z
328985001328985083-000055     328985006003000003853LIGHTER ELCTRNC REFILBL0000001000+00000613+00000+0001T   00000613+0000001138          1400 H28315               4AZ
328986000328986               328986               170213CW     1400+00000+CW0000018364+0000018364+000000000+000002577+0000020940+0000000001+I20000000000+0000020940+Z
328986001328986077-000381     328986006003000247707GIFT-BAG 25X32CM S/COL 0000001000+00001753+00000+0001T   00001753+0000001141          1400 H28112               4AZ
328986002328986006-000171-K   328986006003000609697BALLOONS 1PC PURPLE PRN0000001000+00000218+00000+0001T   00000218+0000001141          1400 H28131               4AZ
328986003328986903-000670     328986006009803358008SWT SHERBET RED LIPS   0000001000+00000218+00000+0001T   00000218+0000001141          1400 H28150               4AZ
328986004328986006-000226     328986006001023992215PARTY-STRAW ASSTD      0000001000+00000876+00000+0001T   00000876+0000001141          1400 H28131               4AZ
328986005328986903-000482     328986006001704001397SWT SOFT-MINTS 60G     0000001000+00000876+00000+0001T   00000876+0000001141          1400 H28150               4AZ
328986006328986079-000341     328986006920705495519FELT-TIP PENS 12PCE    0000001000+00001753+00000+0001T   00001753+0000001141          1400 H28130               4AZ
328986007328986006-000323-D   328986006003000126248CONFETTI H/BIRTHDAY 3PK0000001000+00002630+00000+0001T   00002630+0000001141          1400 H28131               4AZ
328986008328986266-001302     328986006001023331892MARBLES 16MM 45PC      0000001000+00001227+00000+0001T   00001227+0000001141          1400 H28710               4AZ
328986009328986174-000307     328986006003000639533TRAVEL TAG NAME/LUGGAGE0000001000+00002192+00000+0001T   00002192+0000001141          1400 H28205               4AZ
328986010328986007-000167     328986006009685857347SPIRAL NOTES A7 72PG   0000001000+00000350+00000+0001T   00000350+0000001141          1400 H28130               4AZ
328986011328986033-000013     328986006001023567215PILL-REMINDER PL       0000001000+00001227+00000+0001T   00001227+0000001141          1400 H28200               4AZ
328986012328986903-000297     328986006001704002950SWT MS WILD BERRY 50G  0000001000+00000876+00000+0001T   00000876+0000001141          1400 H28150               4AZ
328986013328986039-000034     328986006003000287420C/TAPERED 25CM M/BLUE  0000001000+00001051+00000+0001T   00001051+0000001141          1400 H28510               4AZ
328986014328986089-060027     328986006003000245871KEY-CHAIN HEART 6X6cm  0000001000+00003069+00000+0001T   00003069+0000001141          1400 H28205               4AZ
328986015328986112-116069     328986006009681820277TCS CARRIER BAG JUMBO  0000001000+00000048+00000+0001T   00000048+0000001141          1400 H28090               4AZ
328987000328987               328987               170213CW     1400+00000+CW0000007890+0000007890+000000000+000001106+0000008990+0000000006+I20000000000+0000008990+Z
328987001328987301-085001     328987006003000297610ORN WATERBALL LOVE ASST0000001000+00004823+00000+0001T   00004823+0000001317          1400 H28505               4AZ
328987002328987077-000470     328987006003000330171G-BAG DESGN SML 11X14CM0000001000+00001314+00000+0001T   00001314+0000001317          1400 H28112               4AZ
328987003328987006-000120     328987006001023346889BALLOONS 10PC MIX COL  0000001000+00001753+00000+0001T   00001753+0000001317          1400 H28131               4AZ
328988000328988               328988               170213CW     1400+00000+CW0000000876+0000000876+000000000+000000123+0000000990+0000000009+I20000000000+0000000990+Z
328988001328988903-000220     328988006001704007368SWT JELLY BEANS 60G    0000001000+00000876+00000+0001T   00000876+0000001322          1400 H28150               4AZ
328989000328989               328989               170213CW     1400+00000+CW0000002628+0000002628+000000000+000000368+0000002990+0000000006+I20000000000+0000002990+Z
328989001328989078-009100     328989006008741002349ALL-CLEAR GLUE 25ml CRD0000002000+00001314+00000+0001T   00001314+0000001323          1400 H28810               4AZ
328990000328990               328990               170213CW     1400+00000+CW0000026046+0000026046+000000000+000003649+0000029690+0000000005+I20000000000+0000029690+Z
328990001328990903-002850     328990000000087108262MENTOS ROLL FRUIT      0000001000+00001051+00000+0001T   00001051+0000001331          1400 H28150               4AZ
328990002328990903-005000     328990006002580020007SWT CT MALLOW FISH 120g0000001000+00001314+00000+0001T   00001314+0000001331          1400 H28150               4AZ
328990003328990262-000653     328990006008766060553DIE CAST SET AIRPORT   0000001000+00007893+00000+0001T   00007893+0000001331          1400 H28710               4AZ
328990004328990262-000417     328990006003000471508DIE CAST TRUCK 35cm    0000001000+00015788+00000+0001T   00015788+0000001331          1400 H28710               4AZ
328991000328991               328991               170213CW     1400+00000+CW0000011343+0000011343+000000000+000001591+0000012930+0000000004+I20000000000+0000012930+Z
328991001328991903-002892     328991008935001721338MENTOS JUICEBLAST BERRY0000001000+00001051+00000+0001T   00001051+0000001338          1400 H28150               4AZ
328991002328991903-002891     328991008935001721376MENTOS GUM WINTERGREEN 0000001000+00001051+00000+0001T   00001051+0000001338          1400 H28150               4AZ
328991003328991263-000177     328991006001023826824RACER PULL BACK        0000001000+00003507+00000+0001T   00003507+0000001338          1400 H28710               4AZ
328991004328991105-001038     328991006003000615315CONTAINER W/VENT 1450ml0000001000+00002630+00000+0001T   00003507+0008161338          1400 H28210               4AZ
328991005328991084-009417     328991006001023783493SCISSORS 21+14cm 2PCE  0000001000+00003069+00000+0001T   00003069+0000001338          1400 H28200               4AZ
328991006328991112-116038     328991006009681820246TCS CARRIER BAG MIDI   0000001000+00000035+00000+0001T   00000035+0000001338          1400 H28090               4AZ
328992000328992               328992               170213CW     1400+00000+CW0000002630+0000002630+000000000+000000369+0000002990+0000000009+I20000000000+0000002990+Z
328992001328992108-003023     328992006003000665471TUMBLER W/STRAW 550ml  0000001000+00002630+00000+0001T   00002630+0000001339          1400 H28210               4AZ
328993000328993               328993               170213CW     1400+00000+CW0000015836+0000015836+000000000+000002218+0000018050+0000000004+I20000000000+0000018050+Z
328993001328993262-000417     328993006003000471508DIE CAST TRUCK 35cm    0000001000+00015788+00000+0001T   00015788+0000001344          1400 H28710               4AZ
328993002328993112-116069     328993006009681820277TCS CARRIER BAG JUMBO  0000001000+00000048+00000+0001T   00000048+0000001344          1400 H28090               4AZ
328994000328994               328994               170213CW     1400+00000+CW0000002103+0000002103+000000000+000000295+0000002390+0000000008+I20000000000+0000002390+Z
328994001328994077-000245     328994006001023759214GIFT-RIBBON METALLICx2 0000001000+00001227+00000+0001T   00001227+0000001345          1400 H28112               4AZ
328994002328994077-000011-R   328994006001023808462P/TISSUE DARK 10-SHEETS0000001000+00000876+00000+0001T   00000876+0000001345          1400 H28112               4AZ
328995000328995               328995               170213CW     1400+00000+CW0000002630-0000002630-000000000+000000369-0000003000-0000000001+I20000000000+0000003000-Z
328995001328995108-003023     328995006003000665471TUMBLER W/STRAW 550ml  0000001000-00002630+00000+0001T   00002630+0000001350          1400 H282101IC            4 Z
328996000328996               328996               170213CW     1400+00000+CW0000006224+0000006224+000000000+000000872+0000007090+0000000006+I20000000000+0000007090+Z
328996001328996006-000190     328996006003000685530BALLOONS LOVE 81x91cm  0000001000+00004385+00000+0001T   00004385+0000001355          1400 H28131               4AZ
328996002328996006-001000     328996006003000093779HELIUM BALLOON FILL    0000003000+00000613+00000+0001T   00000613+0000001355          1400 H28131               4AZ
328997000328997               328997               170213CW     1400+00000+CW0000002192+0000002192+000000000+000000307+0000002490+0000000009+I20000000000+0000002490+Z
328997001328997080-000127     328997006003000424351VALENTINES DAY 36x24CM 0000001000+00002192+00000+0001T   00002192+0000001402          1400 H28112               4AZ
328998000328998               328998               170213CW     1400+00000+CW0000000437+0000000437+000000000+000000062+0000000490+0000000009+I20000000000+0000000490+Z
328998001328998080-000133-A   328998006003000647019MINI VALENTINES CARD   0000001000+00000437+00000+0001T   00000437+0000001403          1400 H28112               4AZ
328999000328999               328999               170213CW     1400+00000+CW0000021793+0000021793+000000000+000003054+0000024847+0000000000+I40000024847+0000000000+Z
328999001328999112-116069     328999006009681820277TCS CARRIER BAG JUMBO  0000001000+00000048+00000+0001T   00000048+0000001409          1400 H28090               4AZ
328999002328999564-000001     328999006003000140589BUBBLE B/O GUN PL      0000001000+00004385+00000+0001T   00004385+0000001409          1400 H28131               4AZ
328999003328999018-005009     328999006001023725608MUG W/PLUSH-BEAR LOVE  0000001000+00003507+00000+0001T   00003507+0000001409          1400 H28515               4AZ
328999004328999077-000323     328999006001023677563G/BAG 25X32CM E/DAY FLO0000001000+00001578+00000+0001T   00001578+0000001409          1400 H28112               4AZ
328999005328999031-080508     328999006001023802415P/FRAME PL 22X11CM LOVE0000001000+00004385+00000+0001T   00004385+0000001409          1400 H28510               4AZ
328999006328999018-000129     328999006001023403353MUG OCC. LOVE V-SHAPE  0000001000+00002630+00000+0001T   00002630+0000001409          1400 H28515               4AZ
328999007328999089-000191     328999006003000430185KEY CHAIN BEAR 10CM    0000002000+00002630+00000+0001T   00002630+0000001409          1400 H28205               4AZ
329000000329000               329000               170213CW     1400+00000+CW0000002892+0000002892+000000000+000000406+0000003290+0000000008+I20000000000+0000003290+Z
329000001329000071-004202     329000006001023417176SCISSORS-SCHOOL PL/MTL 0000001000+00001139+00000+0001T   00001139+0000001410          1400 H28130               4AZ
329000002329000079-006522     329000006001023149442ART+CRAFT GLUE ASSORTED0000001000+00001753+00000+0001T   00001753+0000001410          1400 H28130               4AZ
329001000329001               329001               170213CW     1400+00000+CW0000001314+0000001314+000000000+000000184+0000001490+0000000008+I20000000000+0000001490+Z
329001001329001046-000012     329001006904708013062BATTERIES AA  CARD-OF-40000001000+00001314+00000+0001T   00001314+0000001419          1400 H28312               4AZ
329002000329002               329002               170213CW     1400+00000+CW0000004383+0000004383+000000000+000000615+0000004990+0000000008+I20000000000+0000004990+Z
329002001329002077-000456     329002006003000285549G/BAG METALLIC JMB EMB 0000001000+00002630+00000+0001T   00002630+0000001423          1400 H28112               4AZ
329002002329002077-000299-A   329002006003000670888GIFT-BAG PAPER JMB LOVE0000001000+00001753+00000+0001T   00001753+0000001423          1400 H28112               4AZ
329003000329003               329003               170213CW     1400+00000+CW0000003506+0000003506+000000000+000000492+0000003990+0000000008+I20000000000+0000003990+Z
329003001329003903-000211     329003006002099001238SWT GS MALLOW ICE CREAM0000001000+00001753+00000+0001T   00001753+0000001425          1400 H28150               4AZ
329003002329003078-000020     329003008887013700071YAMAYO CONTACT-CEMENT  0000001000+00001753+00000+0001T   00001753+0000001425          1400 H28810               4AZ
329004000329004               329004               170213CW     1400+00000+CW0000000700+0000000700+000000000+000000098+0000000790+0000000008+I20000000000+0000000790+Z
329004001329004007-000537     329004000651728791017NOTE-PAD RND SMILE-FACE0000001000+00000700+00000+0001T   00000700+0000001426          1400 H28130               4AZ
329005000329005               329005               170213CW     1400+00000+CW0000000612+0000000612+000000000+000000086+0000000690+0000000008+I20000000000+0000000690+Z
329005001329005079-009700-D   329005006003000545711PAPER SIRIO A4 RED COL.0000002000+00000306+00000+0001T   00000306+0000001427          1400 H28130               4AZ
329006000329006               329006               170213CW     1400+00000+CW0000003507+0000003507+000000000+000000491+0000003990+0000000008+I20000000000+0000003990+Z
329006001329006106-007105     329006006001023857644JUG 1,8L FRIDGE-DOOR   0000001000+00003507+00000+0001T   00003507+0000001428          1400 H28210               4AZ
329007000329007               329007               170213CW     1400+00000+CW0000002452+0000002452+000000000+000000344+0000002790+0000000006+I20000000000+0000002790+Z
329007001329007006-001000     329007006003000093779HELIUM BALLOON FILL    0000004000+00000613+00000+0001T   00000613+0000001429          1400 H28131               4AZ
329008000329008               329008               170213CW     1400+00000+CW0000005435+0000005435+000000000+000000761+0000006196+0000000000+I40000006196+0000000000+Z
329008001329008046-000012     329008006904708013062BATTERIES AA  CARD-OF-40000001000+00001314+00000+0001T   00001314+0000001434          1400 H28312               4AZ
329008002329008046-000014-VP  329008006003000537952BATTERIES H/P SIZE:AAA 0000001000+00004121+00000+0001T   00004121+0000001434          1400 H28312               4AZ
329009000329009               329009               170213CW     1400+00000+CW0000001578+0000001578+000000000+000000221+0000001790+0000000009+I20000000000+0000001790+Z
329009001329009077-000303     329009006001023593757GIFT-BAG PAPER MED     0000001000+00001578+00000+0001T   00001578+0000001600          1400 H28112               4AZ
329010000329010               329010               170213CW     1400+00000+CW0000000654+0000000654+000000000+000000093+0000000740+0000000007+I20000000000+0000000740+Z
329010001329010006-000170-B   329010006003000608300BALLOONS 1PC L/GREEN   0000001000+00000218+00000+0001T   00000218+0000001601          1400 H28131               4AZ
329010002329010006-000171-K   329010006003000609697BALLOONS 1PC PURPLE PRN0000001000+00000218+00000+0001T   00000218+0000001601          1400 H28131               4AZ
329010003329010006-000171-D   329010006003000609291BALLOONS 1PC ORANGE PRN0000001000+00000218+00000+0001T   00000218+0000001601          1400 H28131               4AZ
329011000329011               329011               170213CW     1400+00000+CW0000004646+0000004646+000000000+000000651+0000005297+0000000000+I40000005297+0000000000+Z
329011001329011077-000303     329011006001023593757GIFT-BAG PAPER MED     0000002000+00001578+00000+0001T   00001578+0000001603          1400 H28112               4AZ
329011002329011077-000299     329011006003000395576G/BAG 32x25cm LRG LOVE 0000001000+00001490+00000+0001T   00001490+0000001603          1400 H28112               4AZ
329012000329012               329012               170213CW     1400+00000+CW0000006174+0000006174+000000000+000000865+0000007030+0000000009+I20000000000+0000007030+Z
329012001329012018-050000     329012006003000412679MUG OCC LOVE TWIN BEAR 0000001000+00006139+00000+0001T   00006139+0000001604          1400 H28515               4AZ
329012002329012112-116038     329012006009681820246TCS CARRIER BAG MIDI   0000001000+00000035+00000+0001T   00000035+0000001604          1400 H28090               4AZ
329013000329013               329013               170213CW     1400+00000+CW0000000437+0000000437+000000000+000000062+0000000490+0000000009+I20000000000+0000000490+Z
329013001329013083-000049     329013004891035200024CIG-LIGHTER DISPOSABLE 0000001000+00000437+00000+0001T   00000437+0000001605          1400 H28315               4AZ
329014000329014               329014               170213CW     1400+00000+CW0000002630+0000002630+000000000+000000369+0000002990+0000000009+I20000000000+0000002990+Z
329014001329014007-000602     329014006003000541270BOOK COVER 2M SOLID COL0000001000+00002630+00000+0001T   00002630+0000001606          1400 H28130               4AZ
329015000329015               329015               170213CW     1400+00000+CW0000001139+0000001139+000000000+000000160+0000001290+0000000009+I20000000000+0000001290+Z
329015001329015903-000087     329015006001704000161SWT SPECKLED-EGGS 50G  0000001000+00001139+00000+0001T   00001139+0000001610          1400 H28150               4AZ
329016000329016               329016               170213CW     1400+00000+CW0000001927+0000001927+000000000+000000271+0000002190+0000000008+I20000000000+0000002190+Z
329016001329016903-000006     329016006923431571571SWEET GS SOUR BELT 50g 0000001000+00000876+00000+0001T   00000876+0000001612          1400 H28150               4AZ
329016002329016903-002853     329016000000087108019MENTOS ROLL MINT       0000001000+00001051+00000+0001T   00001051+0000001612          1400 H28150               4AZ
329017000329017               329017               170213CW     1400+00000+CW0000001400+0000001400+000000000+000000196+0000001590+0000000006+I20000000000+0000001590+Z
329017001329017018-000177     329017006001023797513MUG MINI LOVE ASSTD    0000002000+00000700+00000+0001T   00000700+0000001613          1400 H28515               4AZ
329018000329018               329018               170213CW     1400+00000+CW0000004431+0000004431+000000000+000000621+0000005052+0000000000+I40000005052+0000000000+Z
329018001329018112-116069     329018006009681820277TCS CARRIER BAG JUMBO  0000001000+00000048+00000+0001T   00000048+0000001615          1400 H28090               4AZ
329018002329018104-000051     329018006003000615193BASKET PL 36x24x13cm   0000001000+00003507+00000+0001T   00003507+0000001615          1400 H28210               4AZ
329018003329018077-000151     329018006008766114676GIFT-WRAP C/PHANE ASSTD0000001000+00000876+00000+0001T   00000876+0000001615          1400 H28112               4AZ
329019000329019               329019               170213CW     1400+00000+CW0000002104+0000002104+000000000+000000295+0000002390+0000000009+I20000000000+0000002390+Z
329019001329019903-000095     329019006001704011495SWT SPECKLED-EGGS 100G 0000001000+00002104+00000+0001T   00002104+0000001616          1400 H28150               4AZ
329020000329020               329020               170213CW     1400+00000+CW0000001753+0000001753+000000000+000000246+0000001990+0000000009+I20000000000+0000001990+Z
329020001329020080-000100     329020006003000236114CARD & ENVELOPE BDAY   0000001000+00001753+00000+0001T   00001753+0000001616          1400 H28112               4AZ
329021000329021               329021               170213CW     1400+00000+CW0000001226+0000001226+000000000+000000172+0000001390+0000000008+I20000000000+0000001390+Z
329021001329021006-001000     329021006003000093779HELIUM BALLOON FILL    0000002000+00000613+00000+0001T   00000613+0000001620          1400 H28131               4AZ
329022000329022               329022               170213CW     1400+00000+CW0000001578+0000001578+000000000+000000221+0000001790+0000000009+I20000000000+0000001790+Z
329022001329022077-000303     329022006001023593757GIFT-BAG PAPER MED     0000001000+00001578+00000+0001T   00001578+0000001623          1400 H28112               4AZ
329023000329023               329023               170213CW     1400+00000+CW0000004903+0000004903+000000000+000000690+0000005593+0000000000+I40000005593+0000000000+Z
329023001329023903-000155     329023006009803374435SWT LOLLY I LUV U HEART0000006000+00000525+00000+0001T   00000525+0000001626          1400 H28150               4AZ
329023002329023089-000030     329023006003000575671K/CHAIN LOVE MTL ASSTD 0000001000+00001753+00000+0001T   00001753+0000001626          1400 H28205               4AZ
329024000329024               329024               170213CW     1400+00000+CW0000004856+0000004856+000000000+000000681+0000005530+0000000007+I20000000000+0000005530+Z
329024001329024056-005719     329024006001023820983CAR AIR-FRESHENER ASSTD0000001000+00002192+00000+0001T   00002192+0000001627          1400 H28860               4AZ
329024002329024071-081100-A   329024006003000326426GLUE-STICK 25g 2pk     0000001000+00001490+00000+0001T   00001490+0000001627          1400 H28130               4AZ
329024003329024007-010192     329024006009635830536BOOK H/COVER A5 192PAGE0000001000+00001139+00000+0001T   00001139+0000001627          1400 H28130               4AZ
329024004329024112-116038     329024006009681820246TCS CARRIER BAG MIDI   0000001000+00000035+00000+0001T   00000035+0000001627          1400 H28090               4AZ
329025000329025               329025               170213CW     1400+00000+CW0000002630+0000002630+000000000+000000369+0000002990+0000000009+I20000000000+0000002990+Z
329025001329025004-078991     329025006001023996855EARPHONES+EAR-CLIP 1.0m0000001000+00002630+00000+0001T   00002630+0000001628          1400 H28310               4AZ
329026000329026               329026               170213CW     1400+00000+CW0000005120+0000005120+000000000+000000717+0000005830+0000000007+I20000000000+0000005830+Z
329026001329026112-116038     329026006009681820246TCS CARRIER BAG MIDI   0000001000+00000035+00000+0001T   00000035+0000001630          1400 H28090               4AZ
329026002329026018-000136     329026006001023659026MUG OCC LOVE W/PLUSH   0000001000+00003507+00000+0001T   00003507+0000001630          1400 H28515               4AZ
329026003329026077-000303     329026006001023593757GIFT-BAG PAPER MED     0000001000+00001578+00000+0001T   00001578+0000001630          1400 H28112               4AZ
329027000329027               329027               170213CW     1400+00000+CW0000007886+0000007886+000000000+000001105+0000008990+0000000001+I20000000000+0000008990+Z
329027001329027018-000119     329027006003000336074MUG DAILY STRAIGHT     0000002000+00001314+00000+0001T   00001753+0008171632          1400 H28515               4AZ
329027002329027366-000300     329027006001023902955DRESSUP TIARA FEATHER  0000001000+00002630+00000+0001T   00002630+0000001632          1400 H28131               4AZ
329027003329027077-000310     329027006001023608635GIFT-BAG 18X23CM GLOSS 0000002000+00001314+00000+0001T   00001314+0000001632          1400 H28112               4AZ
329028000329028               329028               170213CW     1400+00000+CW0000002629+0000002629+000000000+000000369+0000002998+0000000000+I40000002998+0000000000+Z
329028001329028077-000150-D   329028006003000054343GIFT-WRAP CELLPHANE CLR0000001000+00000876+00000+0001T   00000876+0000001634          1400 H28112               4AZ
329028002329028080-000113     329028006003000237449CARD&ENVLPE - LOVE     0000001000+00001753+00000+0001T   00001753+0000001634          1400 H28112               4AZ
329029000329029               329029               170213CW     1400+00000+CW0000001313+0000001313+000000000+000000185+0000001490+0000000008+I20000000000+0000001490+Z
329029001329029080-000133-A   329029006003000647019MINI VALENTINES CARD   0000001000+00000437+00000+0001T   00000437+0000001636          1400 H28112               4AZ
329029002329029031-000878-A   329029006001023798985P/FRAME 10x15cm PL-SLID0000001000+00000876+00000+0001T   00000876+0000001636          1400 H28510               4AZ
329030000329030               329030               170213CW     1400+00000+CW0000007576+0000007576+000000000+000001062+0000008630+0000000008+I20000000000+0000008630+Z
329030001329030304-001204     329030006001023737984FLOWER OCC. TEDDY/ROSES0000001000+00001402+00000+0001T   00001490+0006471637          1400 H28510               4AZ
329030002329030018-050000     329030006003000412679MUG OCC LOVE TWIN BEAR 0000001000+00006139+00000+0001T   00006139+0000001637          1400 H28515               4AZ
329030003329030112-116038     329030006009681820246TCS CARRIER BAG MIDI   0000001000+00000035+00000+0001T   00000035+0000001637          1400 H28090               4AZ
329031000329031               329031               170213CW     1400+00000+CW0000014644+0000014644+000000000+000002052+0000016690+0000000006+I20000000000+0000016690+Z
329031001329031018-050000     329031006003000412679MUG OCC LOVE TWIN BEAR 0000001000+00006139+00000+0001T   00006139+0000001638          1400 H28515               4AZ
329031002329031077-000299     329031006003000395576G/BAG 32x25cm LRG LOVE 0000001000+00001490+00000+0001T   00001490+0000001638          1400 H28112               4AZ
329031003329031080-000127     329031006003000424351VALENTINES DAY 36x24CM 0000001000+00002192+00000+0001T   00002192+0000001638          1400 H28112               4AZ
329031004329031301-085001     329031006003000297610ORN WATERBALL LOVE ASST0000001000+00004823+00000+0001T   00004823+0000001638          1400 H28505               4AZ
329032000329032               329032               170213CW     1400+00000+CW0000013898+0000013898+000000000+000001948+0000015840+0000000006+I20000000000+0000015840+Z
329032001329032077-000310     329032006001023608635GIFT-BAG 18X23CM GLOSS 0000002000+00001314+00000+0001T   00001314+0000001639          1400 H28112               4AZ
329032002329032048-000823     329032006003000063611TORCH DYNAMO 2LED 10cm 0000001000+00003069+00000+0001T   00003069+0000001639          1400 H28305               4AZ
329032003329032031-000868-A   329032006001023798534P/FRAME PL BLCK 10X15CM0000002000+00002192+00000+0001T   00002192+0000001639          1400 H28510               4AZ
329032004329032073-000157     329032006003000571734COSMETIC QUILTED BAG   0000001000+00002630+00000+0001T   00002630+0000001639          1400 H28200               4AZ
329032005329032903-000087     329032006001704000161SWT SPECKLED-EGGS 50G  0000001000+00001139+00000+0001T   00001139+0000001639          1400 H28150               4AZ
329032006329032112-116069     329032006009681820277TCS CARRIER BAG JUMBO  0000001000+00000048+00000+0001T   00000048+0000001639          1400 H28090               4AZ
329033000329033               329033               170213CW     1400+00000+CW0000003946-0000003946-000000000+000000553-0000004500-0000000001+I20000000000+0000004500-Z
329033001329033031-000874-A   329033006001023798800P/FRAME WDN P/BOX 10X150000001000-00003946+00000+0001T   00003946+0000001641          1400 H285101IC            4 Z
329034000329034               329034               170213CW     1400+00000+CW0000007049+0000007049+000000000+000000987+0000008036+0000000000+I40000008036+0000000000+Z
329034001329034018-000136     329034006001023659026MUG OCC LOVE W/PLUSH   0000002000+00003507+00000+0001T   00003507+0000001644          1400 H28515               4AZ
329034002329034112-116038     329034006009681820246TCS CARRIER BAG MIDI   0000001000+00000035+00000+0001T   00000035+0000001644          1400 H28090               4AZ
M17021391                              CASH        CWSLAVE 4                       Z-REPORT No.   620TOTAL (Sales - Refunds)           3676.09       CASH TO BE BANKED                 2905.40       DEBIT CARDS                          0.00       CREDIT CARDS                       770.69       Z-READING                         3676.09       AIRTIME DEBIT CARD SALES             0.00       AIRTIME CARD SALES                   0.00       OVERS/UNDERS                         0.00       AIRTIME CASH SALES                   0.00       GIFT CARDS                           0.00       GIFT CARD CASH SALES                 0.00       T O T A L  CASH PAYOUTS              0.00                                                                                                                                                                                                                                                                                                                                                      Z
M17021392                              CASH        CWABSENT                                                                                                                                                                                          ANNUAL LEAVE                                                                                                                                                                                    DAY OFF                                                                                                                                                                                         COMMENTS                                                                                                                                                                                                                                                                                                                                                                                       Z
Y17021300                                          CW00000000329390+000070
ZCW17021319273 SLAVE 4      SALES DATA                     NEXT INVOICE NO.  329035 0620
F093751496-056475         1701110853310000032ICSLAVE 4
F094832022-002107         1702100853190000143ICSLAVE 4
F094873304-001011         1702110820210000203ICSLAVE 4
X CW Slave 4 First invoice 328963 170213 Last invoice 329034 170213 Next invoice 329035 Total number of records 000000229 clbackup completed 19:27:01
