106969000106969               106969               170213CX     1400+00000+CX0000002454+0000002454+000000000+000000344+0000002790+0000000008+I20000000000+0000002790+Z
106969001106969251-000041     106969006001023515889SEAL-TAPE BUFF 48mmx50m0000002000+00001227+00000+0001T   00001227+0000000907          1400 J64810               1CZ
106970000106970               106970               170213CX     1400+00000+CX0000011397+0000011397+000000000+000001598+0000012995+0000000000+I40000012995+0000000000+Z
106970001106970567-011343     106970006003000630592BK COLOURING THERAPY   0000001000+00003507+00000+0001T   00003507+0000000910          1400 J64757               1AZ
106970002106970002-000717     106970006001023775184CHOPPING-MATS FLEX 2PCE0000003000+00002630+00000+0001T   00002630+0000000910          1400 J64300               1AZ
106971000106971               106971               170213CX     1400+00000+CX0000003015+0000003015+000000000+000000423+0000003438+0000000000+I40000003438+0000000000+Z
106971001106971009-001300     106971006003000135059MELAMINE MUG 250ml     0000001000+00001753+00000+0001T   00001753+0000000911          1400 J64210               1AZ
106971002106971077-000322     106971006001023677532GIFT-BAG 18X23CM E/D FL0000001000+00001227+00000+0001T   00001227+0000000911          1400 J64112               1AZ
106971003106971112-116038     106971006009681820246TCS CARRIER BAG MIDI   0000001000+00000035+00000+0001T   00000035+0000000911          1400 J64090               1AZ
106972000106972               106972               170213CX     1400+00000+CX0000001753+0000001753+000000000+000000246+0000001990+0000000009+I20000000000+0000001990+Z
106972001106972080-000116     106972006003000253555CARD&ENVELOPE-HANDMADE 0000001000+00001753+00000+0001T   00001753+0000000912          1400 J64112               1AZ
106973000106973               106973               170213CX     1400+00000+CX0000004385+0000004385+000000000+000000614+0000004990+0000000009+I20000000000+0000004990+Z
106973001106973082-000105     106973006003000360369READING GLS STRNGHT:1.50000001000+00004385+00000+0001T   00004385+0000000918          1400 J64160               1BZ
106974000106974               106974               170213CX     1400+00000+CX0000028067+0000028067+000000000+000003930+0000031997+0000000000+I40000031997+0000000000+Z
106974001106974072-020246     106974000694202309155PET BED MEMORY FOAM LRG0000001000+00026314+00000+0001T   00026314+0000000925          1400 J64870               1AZ
106974002106974200-003024     106974006001023657299REFUSE BAGS 20PCE BLACK0000001000+00001753+00000+0001T   00001753+0000000925          1400 J64214               1AZ
106975000106975               106975               170213CX     1400+00000+CX0000006575+0000006575+000000000+000000922+0000007490+0000000007+I20000000000+0000007490+Z
106975001106975206-000120     106975006003000628308PEELER CARROT SHARPENER0000001000+00001753+00000+0001T   00001753+0000000926          1400 J64321               1AZ
106975002106975206-000150     106975006003000628667SLICER CUCUMBER        0000001000+00002192+00000+0001T   00002192+0000000926          1400 J64321               1AZ
106975003106975206-000190     106975006003000631346PEELER FINGER 2PC      0000001000+00002630+00000+0001T   00003069+0008170926          1400 J64321               1AZ
106976000106976               106976               170213CX     1400+00000+CX0000001753+0000001753+000000000+000000246+0000001990+0000000009+I20000000000+0000001990+Z
106976001106976080-000117     106976006003000236350CARD & ENVELOPE THANK U0000001000+00001753+00000+0001T   00001753+0000000927          1400 J64112               1AZ
106977000106977               106977               170213CX     1400+00000+CX0000028067-0000028067-000000000+000003930-0000031997-0000000000+I40000031997-0000000000+Z
106977001106977072-020246     106977000694202309155PET BED MEMORY FOAM LRG0000001000-00026314+00000+0001T   00026314+0000000930          1400 J648701IC            1 Z
106977002106977200-003024     106977006001023657299REFUSE BAGS 20PCE BLACK0000001000-00001753+00000+0001T   00001753+0000000930          1400 J642141IC            1 Z
106978000106978               106978               170213CX     1400+00000+CX0000028067+0000028067+000000000+000003930+0000031990+0000000007+I20000000000+0000031990+Z
106978001106978072-020246     106978000694202309155PET BED MEMORY FOAM LRG0000001000+00026314+00000+0001T   00026314+0000000931          1400 J64870               1AZ
106978002106978200-003024     106978006001023657299REFUSE BAGS 20PCE BLACK0000001000+00001753+00000+0001T   00001753+0000000931          1400 J64214               1AZ
106979000106979               106979               170213CX     1400+00000+CX0000001139+0000001139+000000000+000000160+0000001290+0000000009+I20000000000+0000001290+Z
106979001106979039-000322     106979006001023524157B/CANDLES W/HOLDERS 24 0000001000+00001139+00000+0001T   00001139+0000000942          1400 J64510               1CZ
106980000106980               106980               170213CX     1400+00000+CX0000004385+0000004385+000000000+000000614+0000004990+0000000009+I20000000000+0000004990+Z
106980001106980082-007587     106980006003000654338SUNGLASS DESIGNER ASST 0000001000+00004385+00000+0001T   00004385+0000000945          1400 J64160               1AZ
106981000106981               106981               170213CX     1400+00000+CX0000001139+0000001139+000000000+000000160+0000001290+0000000009+I20000000000+0000001290+Z
106981001106981007-000302     106981006009635830000BOOK H/COVER A4 96-PAGE0000001000+00001139+00000+0001T   00001139+0000000954          1400 J64130               1CZ
106982000106982               106982               170213CX     1400+00000+CX0000003069+0000003069+000000000+000000430+0000003490+0000000009+I20000000000+0000003490+Z
106982001106982038-092233     106982006003000328925TABLE-MAT N/SLIP ASST  0000001000+00003069+00000+0001T   00003507+0008190956          1400 J64300               1AZ
106983000106983               106983               170213CX     1400+00000+CX0000009679+0000009679+000000000+000001357+0000011030+0000000006+I20000000000+0000011030+Z
106983001106983200-003024     106983006001023657299REFUSE BAGS 20PCE BLACK0000001000+00001753+00000+0001T   00001753+0000001004          1400 J64214               1AZ
106983002106983200-003026     106983006003000276448REFUSE BAGS 10PCE GREEN0000002000+00001753+00000+0001T   00001753+0000001004          1400 J64214               1AZ
106983003106983082-000105     106983006003000360369READING GLS STRNGHT:1.50000001000+00004385+00000+0001T   00004385+0000001004          1400 J64160               1AZ
106983004106983112-116038     106983006009681820246TCS CARRIER BAG MIDI   0000001000+00000035+00000+0001T   00000035+0000001004          1400 J64090               1AZ
106984000106984               106984               170213CX     1400+00000+CX0000040824+0000040824+000000000+000005718+0000046542+0000000000+I40000046542+0000000000+Z
106984001106984112-116069     106984006009681820277TCS CARRIER BAG JUMBO  0000001000+00000048+00000+0001T   00000048+0000001011          1400 J64090               1AZ
106984002106984486-002315     106984006001023740526WALL-CLOCK ROUND 20CM  0000001000+00007016+00000+0001T   00007016+0000001011          1400 J64510               1AZ
106984003106984031-000874-B   106984006001023798831P/FRAME WDN P/BOX 13X180000001000+00004385+00000+0001T   00004385+0000001011          1400 J64510               1AZ
106984004106984031-000874-C   106984006001023798862P/FRAME WDN P/BOX 20X250000001000+00005700+00000+0001T   00005700+0000001011          1400 J64510               1AZ
106984005106984031-000874-B   106984006001023798831P/FRAME WDN P/BOX 13X180000004000+00004385+00000+0001T   00004385+0000001011          1400 J64510               1AZ
106984006106984046-000012     106984006904708013062BATTERIES AA  CARD-OF-40000001000+00001314+00000+0001T   00001314+0000001011          1400 J64312               1AZ
106984007106984903-000087     106984006001704000161SWT SPECKLED-EGGS 50G  0000001000+00001139+00000+0001T   00001139+0000001011          1400 J64150               1AZ
106984008106984077-000311     106984006001023608666GIFT-BAG 11X14CM GLOSS 0000001000+00000613+00000+0001T   00000613+0000001011          1400 J64112               1AZ
106984009106984089-000184     106984006003000577323KEY CHAIN OWL POLY MINI0000001000+00003069+00000+0001T   00003069+0000001011          1400 J64205               1AZ
106985000106985               106985               170213CX     1400+00000+CX0000007889+0000007889+000000000+000001107+0000008990+0000000006+I20000000000+0000008990+Z
106985001106985200-003024     106985006001023657299REFUSE BAGS 20PCE BLACK0000001000+00001753+00000+0001T   00001753+0000001023          1400 J64214               1AZ
106985002106985036-000615     106985006003000218769WASH-PEGS PL PCK-24    0000002000+00001753+00000+0001T   00001753+0000001023          1400 J64212               1AZ
106985003106985133-000103     106985006003000060900PEG BAG ASSTD 29x29cm  0000001000+00002630+00000+0001T   00002630+0000001023          1400 J64212               1AZ
106986000106986               106986               170213CX     1400+00000+CX0000013050+0000013050+000000000+000001832+0000014882+0000000000+I40000014882+0000000000+Z
106986001106986563-000317-A   106986006001023776167SERVIETTES 20PK PATTERN0000002000+00002630+00000+0001T   00002630+0000001030          1400 J64214               1AZ
106986002106986563-000317-J   106986006001023776419SERVIETTE 2PLY 33cm    0000002000+00001753+00000+0001T   00001753+0000001030          1400 J64214               1AZ
106986003106986079-009700-B   106986006003000547661PAPER SIRIO A4 WHITE   0000006000+00000306+00000+0001T   00000306+0000001030          1400 J64130               1AZ
106986004106986079-009700-I   106986006003000546114PAPER SIRIO A4 LILAC   0000004000+00000306+00000+0001T   00000306+0000001030          1400 J64130               1AZ
106986005106986079-009700-D   106986006003000545711PAPER SIRIO A4 RED COL.0000004000+00000306+00000+0001T   00000306+0000001030          1400 J64130               1AZ
106987000106987               106987               170213CX     1400+00000+CX0000000788+0000000788+000000000+000000111+0000000890+0000000009+I20000000000+0000000890+Z
106987001106987033-005991     106987006001023678546NEEDLES H/HOLD-REPAIR  0000001000+00000788+00000+0001T   00000788+0000001031          1400 J64200               1BZ
106988000106988               106988               170213CX     1400+00000+CX0000026431+0000026431+000000000+000003707+0000030138+0000000000+I40000030138+0000000000+Z
106988001106988112-116069     106988006009681820277TCS CARRIER BAG JUMBO  0000001000+00000048+00000+0001T   00000048+0000001035          1400 J64090               1AZ
106988002106988140-006008     106988006001023803214FLY-SWATTERS   SET-OF-40000001000+00002630+00000+0001T   00002630+0000001035          1400 J64830               1AZ
106988003106988565-000045     106988006003000295890NOVELTY HEADS 8PCE     0000001000+00002630+00000+0001T   00002630+0000001035          1400 J64745               1AZ
106988004106988078-000026     106988006936198407090SUPERGLUE 3,0g GEL     0000001000+00001753+00000+0001T   00001753+0000001035          1400 J64810               1AZ
106988005106988076-000018     106988006001023777836TWINE NYLON 50g 4PCE   0000001000+00003507+00000+0001T   00003507+0000001035          1400 J64810               1AZ
106988006106988306-001002     106988006003000560233PLASTER FABRIC 10PC    0000001000+00001490+00000+0001T   00001490+0000001035          1400 J64200               1AZ
106988007106988078-000025     106988008887013700064SUPERGLUE 3g 1PCE CARD 0000001000+00000876+00000+0001T   00000876+0000001035          1400 J64810               1AZ
106988008106988027-000917     106988006001023367433DUSTPAN-SET MINI 21x16 0000001000+00001753+00000+0001T   00001753+0000001035          1400 J64212               1AZ
106988009106988200-003026     106988006003000276448REFUSE BAGS 10PCE GREEN0000001000+00001753+00000+0001T   00001753+0000001035          1400 J64214               1AZ
106988010106988072-020320     106988006003000603343PET DOG TOY TUG-ROPE   0000001000+00002630+00000+0001T   00002630+0000001035          1400 J64870               1AZ
106988011106988306-001720     106988006003000276257HAND SANITIZER WIPES   0000001000+00001753+00000+0001T   00001753+0000001035          1400 J64200               1AZ
106988012106988027-783002     106988006001023874658SCOURERS FOAM PACK OF 30000001000+00001490+00000+0001T   00001490+0000001035          1400 J64212               1AZ
106988013106988016-006505     106988006001023617576S/JAR GLS MINI CLIP    0000001000+00001490+00000+0001T   00001490+0000001035          1400 J64300               1AZ
106988014106988022-001328     106988006003000667505PLATE ENAMEL 24CM WHITE0000002000+00001314+00000+0001T   00001314+0000001035          1400 J64305               1AZ
106989000106989               106989               170213CX     1400+00000+CX0000001753+0000001753+000000000+000000246+0000001990+0000000009+I20000000000+0000001990+Z
106989001106989174-000010     106989006001023462381W/MACHINE-BAG 25x40cm  0000001000+00001753+00000+0001T   00001753+0000001035          1400 J64205               1AZ
106990000106990               106990               170213CX     1400+00000+CX0000004822+0000004822+000000000+000000676+0000005490+0000000008+I20000000000+0000005490+Z
106990001106990079-000341     106990006920705495519FELT-TIP PENS 12PCE    0000001000+00001753+00000+0001T   00001753+0000001044          1400 J64130               1AZ
106990002106990263-000114     106990006001023827609CARS P/BACK RACER  4PCE0000001000+00003069+00000+0001T   00003069+0000001044          1400 J64710               1AZ
106991000106991               106991               170213CX     1400+00000+CX0000007661+0000007661+000000000+000001074+0000008730+0000000005+I20000000000+0000008730+Z
106991001106991903-000087     106991006001704000161SWT SPECKLED-EGGS 50G  0000002000+00001139+00000+0001T   00001139+0000001050          1400 J64150               1BZ
106991002106991018-000127     106991006001023380289MUG OCC STRAIGHT LOVE  0000002000+00001578+00000+0001T   00001753+0006471050          1400 J64515               1BZ
106991003106991112-116038     106991006009681820246TCS CARRIER BAG MIDI   0000001000+00000035+00000+0001T   00000035+0000001050          1400 J64090               1BZ
106991004106991077-000926     106991006003000414178G/WRAP 700mmx2m LOVE   0000001000+00002192+00000+0001T   00002192+0000001050          1400 J64112               1BZ
106992000106992               106992               170213CX     1400+00000+CX0000001753+0000001753+000000000+000000246+0000001990+0000000009+I20000000000+0000001990+Z
106992001106992027-000409     106992006001023731012SCRUBBING-BRUSH 15,5cm 0000001000+00001753+00000+0001T   00001753+0000001051          1400 J64212               1BZ
106993000106993               106993               170213CX     1400+00000+CX0000000437+0000000437+000000000+000000062+0000000490+0000000009+I20000000000+0000000490+Z
106993001106993080-000133-A   106993006003000647019MINI VALENTINES CARD   0000001000+00000437+00000+0001T   00000437+0000001053          1400 J64112               1BZ
106994000106994               106994               170213CX     1400+00000+CX0000009208+0000009208+000000000+000001290+0000010490+0000000008+I20000000000+0000010490+Z
106994001106994080-000133-A   106994006003000647019MINI VALENTINES CARD   0000001000+00000437+00000+0001T   00000437+0000001058          1400 J64112               1AZ
106994002106994072-020242     106994006003000053728PET BED COTTON TEXTILE 0000001000+00008771+00000+0001T   00008771+0000001058          1400 J64870               1AZ
106995000106995               106995               170213CX     1400+00000+CX0000009208+0000009208+000000000+000001290+0000010490+0000000008+I20000000000+0000010490+Z
106995001106995080-000133-A   106995006003000647019MINI VALENTINES CARD   0000001000+00000437+00000+0001T   00000437+0000001101          1400 J64112               1CZ
106995002106995001-091415     106995006003000329113W/GLS OCC. LOVE 2PC 2800000001000+00008771+00000+0001T   00009648+0006471101          1400 J64515               1CZ
106996000106996               106996               170213CX     1400+00000+CX0000008677+0000008677+000000000+000001217+0000009894+0000000000+I40000009894+0000000000+Z
106996001106996032-000309     106996006001023477804MIRROR STANDING PL SML 0000001000+00001490+00000+0001T   00001490+0000001111          1400 J64510               1BZ
106996002106996200-003024     106996006001023657299REFUSE BAGS 20PCE BLACK0000001000+00001753+00000+0001T   00001753+0000001111          1400 J64214               1BZ
106996003106996159-080352     106996006916920733314HOOKS 3PCE             0000001000+00001490+00000+0001T   00001490+0000001111          1400 J64200               1BZ
106996004106996002-000740     106996006001023763945GRATER 4-WAY WHITE     0000001000+00002192+00000+0001T   00002192+0000001111          1400 J64300               1BZ
106996005106996047-001333     106996006001838000495PLUGTOP CHUBBY         0000002000+00000876+00000+0001T   00000876+0000001111          1400 J64880               1BZ
106997000106997               106997               170213CX     1400+00000+CX0000002192+0000002192+000000000+000000307+0000002490+0000000009+I20000000000+0000002490+Z
106997001106997088-000104     106997006001023765444INCENSE SET ASSTD FRAG 0000001000+00002192+00000+0001T   00002192+0000001122          1400 J64212               1AZ
106998000106998               106998               170213CX     1400+00000+CX0000005874+0000005874+000000000+000000823+0000006697+0000000000+I40000006697+0000000000+Z
106998001106998030-000031-A   106998006003000457588PLAQUE W/WORDS ASSTD   0000001000+00004385+00000+0001T   00004823+0006471125          1400 J64505               1BZ
106998002106998077-000311     106998006001023608666GIFT-BAG 11X14CM GLOSS 0000001000+00000613+00000+0001T   00000613+0000001125          1400 J64112               1BZ
106998003106998089-000192-A   106998006001023901774KEY-CHAIN ACRYLIC      0000001000+00000876+00000+0001T   00000876+0000001125          1400 J64205               1BZ
106999000106999               106999               170213CX     1400+00000+CX0000002192+0000002192+000000000+000000307+0000002490+0000000009+I20000000000+0000002490+Z
106999001106999563-000318-L   106999006003000407088SERVIETTES 33cm RED    0000001000+00002192+00000+0001T   00002192+0000001129          1400 J64214               1BZ
107000000107000               107000               170213CX     1400+00000+CX0000000876+0000000876+000000000+000000123+0000000990+0000000009+I20000000000+0000000990+Z
107000001107000078-000025     107000008887013700064SUPERGLUE 3g 1PCE CARD 0000001000+00000876+00000+0001T   00000876+0000001132          1400 J64810               1AZ
107001000107001               107001               170213CX     1400+00000+CX0000007015+0000007015+000000000+000000983+0000007998+0000000000+I40000007998+0000000000+Z
107001001107001105-008005     107001006002580009484STORAGE CONTAINER 7.5L 0000001000+00004385+00000+0001T   00004385+0000001133          1400 J64210               1BZ
107001002107001072-020285     107001006003000451364PET CAT TOY BALLS PK-4 0000001000+00002630+00000+0001T   00002630+0000001133          1400 J64870               1BZ
107002000107002               107002               170213CX     1400+00000+CX0000000876+0000000876+000000000+000000123+0000000990+0000000009+I20000000000+0000000990+Z
107002001107002903-000221     107002006001704007382SWT EENY-MEENY-MOS 60G 0000001000+00000876+00000+0001T   00000876+0000001139          1400 J64150               1BZ
107003000107003               107003               170213CX     1400+00000+CX0000004593+0000004593+000000000+000000644+0000005230+0000000007+I20000000000+0000005230+Z
107003001107003304-001204     107003006001023737984FLOWER OCC. TEDDY/ROSES0000001000+00001402+00000+0001T   00001490+0006471145          1400 J64510               1CZ
107003002107003018-000127     107003006001023380289MUG OCC STRAIGHT LOVE  0000001000+00001578+00000+0001T   00001753+0006471145          1400 J64515               1CZ
107003003107003080-000124     107003006003000297733CARD & ENV VALENTINES  0000001000+00001578+00000+0001T   00001578+0000001145          1400 J64112               1CZ
107003004107003112-116038     107003006009681820246TCS CARRIER BAG MIDI   0000001000+00000035+00000+0001T   00000035+0000001145          1400 J64090               1CZ
107004000107004               107004               170213CX     1400+00000+CX0000006311+0000006311+000000000+000000885+0000007196+0000000000+I40000007196+0000000000+Z
107004001107004046-000004     107004006001023606525BATTERY 9VOLT H/POWER  0000002000+00001490+00000+0001T   00001490+0000001154          1400 J64312               1AZ
107004002107004251-000030     107004006001023515803MASKING-TAPE 18mmx40m  0000001000+00001139+00000+0001T   00001139+0000001154          1400 J64810               1AZ
107004003107004046-000012-A   107004006003000208296BATTERIES H/POWER SZ:AA0000001000+00002192+00000+0001T   00002192+0000001154          1400 J64312               1AZ
107005000107005               107005               170213CX     1400+00000+CX0000003507+0000003507+000000000+000000491+0000003990+0000000008+I20000000000+0000003990+Z
107005001107005105-006955     107005006003000685325CONTAINER CLEAR BASE 8L0000001000+00003507+00000+0001T   00003507+0000001200          1400 J64210               1BZ
107006000107006               107006               170213CX     1400+00000+CX0000001314+0000001314+000000000+000000184+0000001490+0000000008+I20000000000+0000001490+Z
107006001107006018-000119     107006006003000336074MUG DAILY STRAIGHT     0000001000+00001314+00000+0001T   00001753+0008171201          1400 J64515               1BZ
107007000107007               107007               170213CX     1400+00000+CX0000002192+0000002192+000000000+000000307+0000002499+0000000000+I40000002499+0000000000+Z
107007001107007566-000352     107007006001023809261STICKERS LASER ASSTD   0000001000+00002192+00000+0001T   00002192+0000001202          1400 J64130               1AZ
107008000107008               107008               170213CX     1400+00000+CX0000007451+0000007451+000000000+000001045+0000008496+0000000000+I40000008496+0000000000+Z
107008001107008368-000049     107008006003000536955PLUSH BEAR 15cm LOVE   0000001000+00004385+00000+0001T   00004385+0000001204          1400 J64745               1AZ
107008002107008080-000139     107008006003000611690CARD & ENV MINI SET 6PC0000001000+00002192+00000+0001T   00002192+0000001204          1400 J64112               1AZ
107008003107008080-000133-A   107008006003000647019MINI VALENTINES CARD   0000002000+00000437+00000+0001T   00000437+0000001204          1400 J64112               1AZ
107009000107009               107009               170213CX     1400+00000+CX0000002630+0000002630+000000000+000000369+0000002990+0000000009+I20000000000+0000002990+Z
107009001107009903-000599     107009006003000608119SWEET BALLOONPUMP 18cm 0000001000+00002630+00000+0001T   00002630+0000001205          1400 J64150               1AZ
107010000107010               107010               170213CX     1400+00000+CX0000012278+0000012278+000000000+000001720+0000013998+0000000000+I40000013998+0000000000+Z
107010001107010031-000864-D   107010006003000674657P/FRAME WDN CERTIFICATE0000002000+00006139+00000+0001T   00006139+0000001258          1400 J64510               1BZ
107011000107011               107011               170213CX     1400+00000+CX0000006174+0000006174+000000000+000000865+0000007039+0000000000+I40000007039+0000000000+Z
107011001107011007-000890-17  107011006003000645671CALENDAR 2017 ASSTD    0000001000+00006139+00000+0001T   00006139+0000001307          1400 J64130               1AZ
107011002107011112-116038     107011006009681820246TCS CARRIER BAG MIDI   0000001000+00000035+00000+0001T   00000035+0000001307          1400 J64090               1AZ
107012000107012               107012               170213CX     1400+00000+CX0000001269+0000001269+000000000+000000179+0000001440+0000000008+I20000000000+0000001440+Z
107012001107012077-000151     107012006008766114676GIFT-WRAP C/PHANE ASSTD0000001000+00000876+00000+0001T   00000876+0000001310          1400 J64112               1BZ
107012002107012903-000183     107012006003000451043SWT LB HEART LOLLY     0000001000+00000393+00000+0001T   00000393+0000001310          1400 J64150               1BZ
107013000107013               107013               170213CX     1400+00000+CX0000005260+0000005260+000000000+000000738+0000005998+0000000000+I40000005998+0000000000+Z
107013001107013105-003025     107013006001023594662CONTAINER RECT 28x19cm 0000002000+00002630+00000+0001T   00002630+0000001311          1400 J64210               1BZ
107014000107014               107014               170213CX     1400+00000+CX0000002630+0000002630+000000000+000000369+0000002999+0000000000+I40000002999+0000000000+Z
107014001107014306-001001     107014006003000519804FIRSTAID PLASTER FABRIC0000001000+00002630+00000+0001T   00002630+0000001312          1400 J64200               1BZ
107015000107015               107015               170213CX     1400+00000+CX0000007928+0000007928+000000000+000001111+0000009030+0000000009+I20000000000+0000009030+Z
107015001107015301-085007     107015006003000673698ORN OCC. LOVE S/PLAQUE 0000001000+00007893+00000+0001T   00007893+0000001325          1400 J64505               1BZ
107015002107015112-116038     107015006009681820246TCS CARRIER BAG MIDI   0000001000+00000035+00000+0001T   00000035+0000001325          1400 J64090               1BZ
107016000107016               107016               170213CX     1400+00000+CX0000001574+0000001574+000000000+000000222+0000001790+0000000006+I20000000000+0000001790+Z
107016001107016564-000012     107016006001023130075BUBBLE BOTTLE MAGIC    0000001000+00000700+00000+0001T   00000700+0000001626          1400 J64131               1BZ
107016002107016080-000133-A   107016006003000647019MINI VALENTINES CARD   0000002000+00000437+00000+0001T   00000437+0000001626          1400 J64112               1BZ
107017000107017               107017               170213CX     1400+00000+CX0000001400+0000001400+000000000+000000196+0000001590+0000000006+I20000000000+0000001590+Z
107017001107017564-000012     107017006001023130075BUBBLE BOTTLE MAGIC    0000002000+00000700+00000+0001T   00000700+0000001627          1400 J64131               1AZ
A17021300                                          08261750CXSLAVE 1                       J642IC
A17021301                                          09253852CXSLAVE 1                       J641IC
M17021391                              CASH        CXSLAVE 1                       Z-REPORT No.   590TOTAL (Sales - Refunds)           3381.99       CASH TO BE BANKED                 1573.90       DEBIT CARDS                          0.00       CREDIT CARDS                      1808.09       Z-READING                         3381.99       AIRTIME DEBIT CARD SALES             0.00       AIRTIME CARD SALES                   0.00       OVERS/UNDERS                         0.00       AIRTIME CASH SALES                   0.00       GIFT CARDS                           0.00       GIFT CARD CASH SALES                 0.00       T O T A L  CASH PAYOUTS              0.00                                                                                                                                                                                                                                                                                                                                                      Z
M17021392                              CASH        CXABSENT                                                                                                                                                                                          ANNUAL LEAVE                                                                                                                                                                                    DAY OFF                                                                                                                                                                                         COMMENTS                                                                                                                                                                                                                                                                                                                                                                                       Z
Y17021300                                          CX00000000324914+000048
ZCX17021321043 SLAVE 1      SALES DATA                     NEXT INVOICE NO.  107018 0590
X CX Slave 1 First invoice 106969 170213 Last invoice 107017 170213 Next invoice 107018 Total number of records 000000166 clbackup completed 21:04:37
