207023000207023               207023               170213CX     1400+00000+CX0000001753+0000001753+000000000+000000246+0000001990+0000000009+I20000000000+0000001990+Z
207023001207023080-000100     207023006003000236114CARD & ENVELOPE BDAY   0000001000+00001753+00000+0001T   00001753+0000000925          1400 LO9112               2AZ
207024000207024               207024               170213CX     1400+00000+CX0000018415+0000018415+000000000+000002581+0000020996+0000000000+I40000020996+0000000000+Z
207024001207024027-056185     207024006003000638093DISH BRUSH DUCK DESIGN 0000001000+00002630+00000+0001T   00002630+0000000930          1400 LO9212               2AZ
207024002207024076-000750     207024006003000423347CORD STRETCH 2-CLAW    0000001000+00002630+00000+0001T   00002630+0000000930          1400 LO9810               2AZ
207024003207024024-000122     207024006003000240746NON-STICK CUP CAKE PAN 0000001000+00011402+00000+0001T   00011402+0000000930          1400 LO9300               2AZ
207024004207024200-003026     207024006003000276448REFUSE BAGS 10PCE GREEN0000001000+00001753+00000+0001T   00001753+0000000930          1400 LO9214               2AZ
207025000207025               207025               170213CX     1400+00000+CX0000002630+0000002630+000000000+000000369+0000002990+0000000009+I20000000000+0000002990+Z
207025001207025079-014153     207025006003000253166ART+CRAFT DRAGON PK6   0000001000+00002630+00000+0001T   00002630+0000001016          1400 LO9130               2AZ
207026000207026               207026               170213CX     1400+00000+CX0000003507+0000003507+000000000+000000491+0000003998+0000000000+I40000003998+0000000000+Z
207026001207026012-000002     207026006003000331079MICRO PLATE-COVER 26X9 0000001000+00003507+00000+0001T   00003507+0000001103          1400 LO9300               2AZ
207027000207027               207027               170213CX     1400+00000+CX0000001314+0000001314+000000000+000000184+0000001498+0000000000+I40000001498+0000000000+Z
207027001207027006-000166-D   207027006003000516490BALLOONS LRG 6PC RED   0000001000+00001314+00000+0001T   00001314+0000001120          1400 LO9131               2AZ
207028000207028               207028               170213CX     1400+00000+CX0000001613+0000001613+000000000+000000226+0000001830+0000000009+I20000000000+0000001830+Z
207028001207028018-000127     207028006001023380289MUG OCC STRAIGHT LOVE  0000001000+00001578+00000+0001T   00001753+0006471216          1400 LO9515               2AZ
207028002207028112-116038     207028006009681820246TCS CARRIER BAG MIDI   0000001000+00000035+00000+0001T   00000035+0000001216          1400 LO9090               2AZ
207029000207029               207029               170213CX     1400+00000+CX0000005262+0000005262+000000000+000000737+0000005990+0000000009+I20000000000+0000005990+Z
207029001207029056-065300     207029006001023625854CAR SUNSHIELD ALUM FOIL0000001000+00005262+00000+0001L   00005262+0000001221          1400 LO9860               2AZ
207030000207030               207030               170213CX     1400+00000+CX0000013712+0000013712+000000000+000001922+0000015634+0000000000+I40000015634+0000000000+Z
207030001207030028-000272     207030006001023465283EGG-RINGS 2PCE      H&L0000002000+00003069+00000+0001T   00003069+0000001223          1400 LO9305               2AZ
207030002207030002-021064     207030006001023822246TOOTHPICKS IN-HOLDER   0000003000+00001490+00000+0001T   00001490+0000001223          1400 LO9300               2AZ
207030003207030002-000117     207030006001023110879EGG POACHERS 2PC       0000001000+00003069+00000+0001T   00003069+0000001223          1400 LO9300               2AZ
207030004207030112-116038     207030006009681820246TCS CARRIER BAG MIDI   0000001000+00000035+00000+0001T   00000035+0000001223          1400 LO9090               2AZ
207031000207031               207031               170213CX     1400+00000+CX0000013675+0000013675+000000000+000001918+0000015590+0000000003+I20000000000+0000015590+Z
207031001207031200-000035     207031006001023768810FOOD-BOWL-COVERS 5PCE  0000002000+00002630+00000+0001T   00002630+0000001227          1400 LO9214               2AZ
207031002207031028-000400     207031006001023421661PLATE-HOLDERS 4PCE     0000003000+00001490+00000+0001T   00001490+0000001227          1400 LO9305               2AZ
207031003207031046-000012-A   207031006003000208296BATTERIES H/POWER SZ:AA0000001000+00002192+00000+0001T   00002192+0000001227          1400 LO9312               2AZ
207031004207031903-000215     207031006002099001214SWT GS MALLOW TWIST PAC0000001000+00001753+00000+0001T   00001753+0000001227          1400 LO9150               2AZ
207032000207032               207032               170213CX     1400+00000+CX0000002192+0000002192+000000000+000000307+0000002490+0000000009+I20000000000+0000002490+Z
207032001207032080-000127     207032006003000424351VALENTINES DAY 36x24CM 0000001000+00002192+00000+0001T   00002192+0000001228          1400 LO9112               2AZ
207033000207033               207033               170213CX     1400+00000+CX0000002192+0000002192+000000000+000000307+0000002490+0000000009+I20000000000+0000002490+Z
207033001207033018-000170     207033006001023775528MUG OCC. LOVE 2PC MINI 0000001000+00002192+00000+0001T   00002192+0000001232          1400 LO9515               2AZ
207034000207034               207034               170213CX     1400+00000+CX0000002192+0000002192+000000000+000000307+0000002490+0000000009+I20000000000+0000002490+Z
207034001207034563-000318-L   207034006003000407088SERVIETTES 33cm RED    0000001000+00002192+00000+0001T   00002192+0000001232          1400 LO9214               2AZ
207035000207035               207035               170213CX     1400+00000+CX0000001613+0000001613+000000000+000000226+0000001839+0000000000+I40000001839+0000000000+Z
207035001207035018-000127     207035006001023380289MUG OCC STRAIGHT LOVE  0000001000+00001578+00000+0001T   00001753+0006471236          1400 LO9515               2AZ
207035002207035112-116038     207035006009681820246TCS CARRIER BAG MIDI   0000001000+00000035+00000+0001T   00000035+0000001236          1400 LO9090               2AZ
207036000207036               207036               170213CX     1400+00000+CX0000038272+0000038272+000000000+000005360+0000043632+0000000000+I40000043632+0000000000+Z
207036001207036467-000016     207036006001023705334BEACH-SET 6PCE TRUCK   0000001000+00026314+00000+0001T   00026314+0000001238          1400 LO9785               2AZ
207036002207036261-009924     207036006001023622204WATER-PISTOL SQUIRTER  0000002000+00002630+00000+0001T   00002630+0000001238          1400 LO9710               2AZ
207036003207036467-000018     207036006001023746818BEACH-SET 3PCE         0000001000+00003507+00000+0001T   00003507+0000001238          1400 LO9785               2AZ
207036004207036467-000001     207036006002923008280BEACH BUCKET PL 17x16cm0000002000+00001578+00000+0001T   00001578+0000001238          1400 LO9785               2AZ
207036005207036112-116038     207036006009681820246TCS CARRIER BAG MIDI   0000001000+00000035+00000+0001T   00000035+0000001238          1400 LO9090               2AZ
207037000207037               207037               170213CX     1400+00000+CX0000001314+0000001314+000000000+000000184+0000001490+0000000008+I20000000000+0000001490+Z
207037001207037496-059631     207037006941057402611REPAIR-PATCHES   CARDED0000001000+00001314+00000+0001T   00001314+0000001327          1400 LO9787               2AZ
207038000207038               207038               170213CX     1400+00000+CX0000005734+0000005734+000000000+000000804+0000006530+0000000008+I20000000000+0000006530+Z
207038001207038206-000210     207038006003000631582TOOTHPICK HOLDER FLOWER0000001000+00003069+00000+0001T   00003069+0000001329          1400 LO9321               2AZ
207038002207038056-065303     207038006001023821041SUN-SHIELD 2PCE ANIMAL 0000001000+00002630+00000+0001T   00002630+0000001329          1400 LO9860               2AZ
207038003207038112-116038     207038006009681820246TCS CARRIER BAG MIDI   0000001000+00000035+00000+0001T   00000035+0000001329          1400 LO9090               2AZ
207039000207039               207039               170213CX     1400+00000+CX0000014504+0000014504+000000000+000002032+0000016530+0000000006+I20000000000+0000016530+Z
207039001207039903-000918     207039006009802868522SWEET GUM TAPE H/KITTY 0000001000+00001753+00000+0001T   00001753+0000001332          1400 LO9150               2AZ
207039002207039046-000012     207039006904708013062BATTERIES AA  CARD-OF-40000001000+00001314+00000+0001T   00001314+0000001332          1400 LO9312               2AZ
207039003207039369-000989     207039006003000127481BABY EDU MUSICAL PHONE 0000001000+00011402+00000+0001T   00011402+0000001332          1400 LO9745               2AZ
207039004207039112-116038     207039006009681820246TCS CARRIER BAG MIDI   0000001000+00000035+00000+0001T   00000035+0000001332          1400 LO9090               2AZ
207040000207040               207040               170213CX     1400+00000+CX0000005173+0000005173+000000000+000000725+0000005890+0000000008+I20000000000+0000005890+Z
207040001207040251-000040     207040006001023515865SEALTAPE CLEAR 48mmx50m0000001000+00001227+00000+0001T   00001227+0000001336          1400 LO9810               2AZ
207040002207040024-000002     207040006001023741899S/BURNER-COVER SILV/BLK0000001000+00003946+00000+0001T   00004385+0008191336          1400 LO9300               2AZ
207041000207041               207041               170213CX     1400+00000+CX0000001314+0000001314+000000000+000000184+0000001490+0000000008+I20000000000+0000001490+Z
207041001207041077-000407     207041006003000145096G/BAG PP 19X26X8CM     0000001000+00001314+00000+0001T   00001314+0000001337          1400 LO9112               2AZ
207042000207042               207042               170213CX     1400+00000+CX0000002192+0000002192+000000000+000000307+0000002490+0000000009+I20000000000+0000002490+Z
207042001207042563-000318-L   207042006003000407088SERVIETTES 33cm RED    0000001000+00002192+00000+0001T   00002192+0000001340          1400 LO9214               2AZ
207043000207043               207043               170213CX     1400+00000+CX0000008805+0000008805+000000000+000001233+0000010030+0000000008+I20000000000+0000010030+Z
207043001207043031-005921     207043006001023667847P/FRAME PL PLAIN       0000002000+00004385+00000+0001T   00004385+0000001342          1400 LO9510               2AZ
207043002207043112-116038     207043006009681820246TCS CARRIER BAG MIDI   0000001000+00000035+00000+0001T   00000035+0000001342          1400 LO9090               2AZ
207044000207044               207044               170213CX     1400+00000+CX0000017622+0000017622+000000000+000002470+0000020092+0000000000+I40000020092+0000000000+Z
207044001207044206-000620     207044006003000631797BACK SCRATCHER EXTEND  0000001000+00002630+00000+0001T   00002630+0000001345          1400 LO9321               2AZ
207044002207044903-000087     207044006001704000161SWT SPECKLED-EGGS 50G  0000001000+00001139+00000+0001T   00001139+0000001345          1400 LO9150               2AZ
207044003207044080-000127     207044006003000424351VALENTINES DAY 36x24CM 0000001000+00002192+00000+0001T   00002192+0000001345          1400 LO9112               2AZ
207044004207044077-000314     207044006003000181148GIFT-BAG 11X14CM MATT  0000001000+00000876+00000+0001T   00000876+0000001345          1400 LO9112               2AZ
207044005207044206-000180     207044006003000631223TEA INFUSER TEAMAN     0000001000+00004385+00000+0001T   00004385+0000001345          1400 LO9321               2AZ
207044006207044903-000087     207044006001704000161SWT SPECKLED-EGGS 50G  0000001000+00001139+00000+0001T   00001139+0000001345          1400 LO9150               2AZ
207044007207044077-000314     207044006003000181148GIFT-BAG 11X14CM MATT  0000001000+00000876+00000+0001T   00000876+0000001345          1400 LO9112               2AZ
207044008207044206-000180     207044006003000631223TEA INFUSER TEAMAN     0000001000+00004385+00000+0001T   00004385+0000001345          1400 LO9321               2AZ
207045000207045               207045               170213CX     1400+00000+CX0000028942+0000028942+000000000+000004054+0000032990+0000000006+I20000000000+0000032990+Z
207045001207045028-003601     207045006001023361387BEACH-UMBRELLA 170cm   0000002000+00010525+00000+0001T   00010525+0000001346          1400 LO9305               2AZ
207045002207045200-003024     207045006001023657299REFUSE BAGS 20PCE BLACK0000001000+00001753+00000+0001T   00001753+0000001346          1400 LO9214               2AZ
207045003207045018-055000     207045006003000441457COFFEE PLUNGER PL 600ML0000001000+00006139+00000+0001T   00006139+0000001346          1400 LO9515               2AZ
207046000207046               207046               170213CX     1400+00000+CX0000001753+0000001753+000000000+000000246+0000001990+0000000009+I20000000000+0000001990+Z
207046001207046006-000120     207046006001023346889BALLOONS 10PC MIX COL  0000001000+00001753+00000+0001T   00001753+0000001352          1400 LO9131               2AZ
207047000207047               207047               170213CX     1400+00000+CX0000002367+0000002367+000000000+000000332+0000002690+0000000009+I20000000000+0000002690+Z
207047001207047046-000015     207047006001023680839BATTERIES SIZE:D   2PCE0000001000+00002367+00000+0001T   00002367+0000001353          1400 LO9312               2AZ
207048000207048               207048               170213CX     1400+00000+CX0000021485+0000021485+000000000+000003010+0000024490+0000000005+I20000000000+0000024490+Z
207048001207048018-019000     207048006003000557288MUG OCC. LOVE JUMBO    0000001000+00005262+00000+0001T   00005262+0000001359          1400 LO9515               2AZ
207048002207048903-000194     207048006009826020616SWT CHOC RP LOLLY 25G  0000001000+00001314+00000+0001T   00001314+0000001359          1400 LO9150               2AZ
207048003207048077-000270     207048006003000395453GIFT-BAG PPR JMB 33X45 0000001000+00002630+00000+0001T   00002630+0000001359          1400 LO9112               2AZ
207048004207048368-000111     207048006001023780812PLUSH BEAR/DOG 29CM    0000001000+00012279+00000+0001T   00012279+0000001359          1400 LO9745               2AZ
207049000207049               207049               170213CX     1400+00000+CX0000002015+0000002015+000000000+000000283+0000002290+0000000008+I20000000000+0000002290+Z
207049001207049903-000221     207049006001704007382SWT EENY-MEENY-MOS 60G 0000001000+00000876+00000+0001T   00000876+0000001402          1400 LO9150               2AZ
207049002207049903-000087     207049006001704000161SWT SPECKLED-EGGS 50G  0000001000+00001139+00000+0001T   00001139+0000001402          1400 LO9150               2AZ
207050000207050               207050               170213CX     1400+00000+CX0000006174+0000006174+000000000+000000865+0000007030+0000000009+I20000000000+0000007030+Z
207050001207050112-116038     207050006009681820246TCS CARRIER BAG MIDI   0000001000+00000035+00000+0001T   00000035+0000001403          1400 LO9090               2AZ
207050002207050018-050000     207050006003000412679MUG OCC LOVE TWIN BEAR 0000001000+00006139+00000+0001T   00006139+0000001403          1400 LO9515               2AZ
207051000207051               207051               170213CX     1400+00000+CX0000004385-0000004385-000000000+000000614-0000005000-0000000001+I20000000000+0000005000-Z
207051001207051004-078993     207051006001023716569EARPHONES W/1.1m CORD  0000001000-00004385+00000+0001T   00004385+0000001408          1400 LO93101IC            2 Z
207052000207052               207052               170213CX     1400+00000+CX0000003504+0000003504+000000000+000000492+0000003990+0000000006+I20000000000+0000003990+Z
207052001207052002-021057     207052006001023812032T/PICKS UMBRELLAS 10PCE0000004000+00000876+00000+0001T   00000876+0000001410          1400 LO9300               2AZ
207053000207053               207053               170213CX     1400+00000+CX0000004823+0000004823+000000000+000000676+0000005499+0000000000+I40000005499+0000000000+Z
207053001207053046-000012-VP  207053006003000537914BATTERIES H/P SIZE:AA  0000001000+00004823+00000+0001T   00004823+0000001412          1400 LO9312               2AZ
207054000207054               207054               170213CX     1400+00000+CX0000009063+0000009063+000000000+000001271+0000010334+0000000000+I40000010334+0000000000+Z
207054001207054079-000807     207054006003000670277ART+CRAFT WOODEN STICKS0000003000+00001490+00000+0001T   00001490+0000001414          1400 LO9130               2AZ
207054002207054079-014101     207054006001023908612ART+CRAFT SCOUBIDOUx50 0000001000+00003507+00000+0001T   00003507+0000001414          1400 LO9130               2AZ
207054003207054007-000119     207054006002324004126BOOK COVER PL          0000001000+00001051+00000+0001T   00001051+0000001414          1400 LO9130               2AZ
207054004207054112-116038     207054006009681820246TCS CARRIER BAG MIDI   0000001000+00000035+00000+0001T   00000035+0000001414          1400 LO9090               2AZ
207055000207055               207055               170213CX     1400+00000+CX0000031122+0000031122+000000000+000004364+0000035486+0000000000+I40000035486+0000000000+Z
207055001207055464-009009     207055006003000647552FISHING DUCKS MAGNETIC 0000002000+00003069+00000+0001T   00003069+0000001419          1400 LO9785               2AZ
207055002207055565-000889     207055006003000626953NOVELTY SPACE BALLOONS 0000001000+00001753+00000+0001T   00001753+0000001419          1400 LO9745               2AZ
207055003207055565-000056     207055006003000643325NOVELTY FINGER BEAMS   0000001000+00001753+00000+0001T   00001753+0000001419          1400 LO9745               2AZ
207055004207055565-000889     207055006003000626953NOVELTY SPACE BALLOONS 0000003000+00001753+00000+0001T   00001753+0000001419          1400 LO9745               2AZ
207055005207055048-000700     207055006001023849731HEAD-LAMP 10xLED (3xAAA0000001000+00004385+00000+0001T   00004385+0000001419          1400 LO9305               2AZ
207055006207055267-000202     207055006003000339808PUZZLE 48pc DINOSAUR   0000001000+00003069+00000+0001T   00003069+0000001419          1400 LO9755               2AZ
207055007207055200-003024     207055006001023657299REFUSE BAGS 20PCE BLACK0000005000+00001753+00000+0001T   00001753+0000001419          1400 LO9214               2AZ
207056000207056               207056               170213CX     1400+00000+CX0000011573+0000011573+000000000+000001622+0000013190+0000000005+I20000000000+0000013190+Z
207056001207056266-000207     207056006001023708823GLIDER JET LAUNCHER    0000002000+00004385+00000+0001T   00004385+0000001424          1400 LO9710               2AZ
207056002207056903-000151     207056006009803374411SWT SML RND R/BOW LOLLY0000002000+00000525+00000+0001T   00000525+0000001424          1400 LO9150               2AZ
207056003207056306-000973     207056006003000559473FIRSTAID PLASTER 30PC  0000001000+00001753+00000+0001T   00001753+0000001424          1400 LO9200               2AZ
207057000207057               207057               170213CX     1400+00000+CX0000024556+0000024556+000000000+000003440+0000027990+0000000006+I20000000000+0000027990+Z
207057001207057158-003007     207057006003000638116FRUIT BASKET CHROME    0000004000+00006139+00000+0001T   00006139+0000001426          1400 LO9300               2AZ
207058000207058               207058               170213CX     1400+00000+CX0000035379+0000035379+000000000+000004959+0000040330+0000000008+I20000000000+0000040330+Z
207058001207058079-000260     207058006001023886385PAINT TUBS WT BASE 4COL0000001000+00002630+00000+0001T   00002630+0000001429          1400 LO9130               2AZ
207058002207058079-000275     207058006003000160488PAINT-BRUSHES 6PCE PRO 0000001000+00001753+00000+0001T   00001753+0000001429          1400 LO9130               2AZ
207058003207058566-000951     207058006003000217670STICKERS 3 STYLES ASSTD0000001000+00002192+00000+0001T   00002192+0000001429          1400 LO9130               2AZ
207058004207058567-010615     207058000000003173084BK ACTIVITY ASSTD      0000001000+00001753+00000+0001T   00002192+0008131429          1400 LO9757               2AZ
207058005207058263-000509     207058006001023790620DIY ASSEMBLY VEHICLE   0000001000+00005262+00000+0001T   00005262+0000001429          1400 LO9710               2AZ
207058006207058266-008040     207058006001023787002FIGURINE 6PC & ACCESS. 0000001000+00004385+00000+0001T   00004385+0000001429          1400 LO9710               2AZ
207058007207058038-001803     207058006001023766588DOILIES 17cm RND 18PC  0000001000+00001753+00000+0001T   00001753+0000001429          1400 LO9300               2AZ
207058008207058903-000616     207058006003000644827SWT HS SWORD 60cm      0000002000+00003507+00000+0001T   00003507+0000001429          1400 LO9150               2AZ
207058009207058903-000111     207058006001704006378SWT LIQUORICE-TWISTS   0000001000+00001227+00000+0001T   00001227+0000001429          1400 LO9150               2AZ
207058010207058112-116069     207058006009681820277TCS CARRIER BAG JUMBO  0000001000+00000048+00000+0001T   00000048+0000001429          1400 LO9090               2AZ
207058011207058077-000011-D   207058006001023808554TISSUE-WRAP WHITE 10PCE0000001000+00000876+00000+0001T   00000876+0000001429          1400 LO9112               2AZ
207058012207058077-000328     207058006003000668939GIFT-BAG PAPER JMB     0000002000+00001753+00000+0001T   00001753+0000001429          1400 LO9112               2AZ
207058013207058565-004101     207058006003000548033BALL BOUNCING EGG      0000002000+00001490+00000+0001T   00001490+0000001429          1400 LO9745               2AZ
207059000207059               207059               170213CX     1400+00000+CX0000012272+0000012272+000000000+000001721+0000013993+0000000000+I40000013993+0000000000+Z
207059001207059200-003026     207059006003000276448REFUSE BAGS 10PCE GREEN0000001000+00001753+00000+0001T   00001753+0000001432          1400 LO9214               2AZ
207059002207059200-003024     207059006001023657299REFUSE BAGS 20PCE BLACK0000002000+00001753+00000+0001T   00001753+0000001432          1400 LO9214               2AZ
207059003207059036-000610     207059006001023627230WASHING-PEGS PL PACK-240000001000+00001753+00000+0001T   00001753+0000001432          1400 LO9212               2AZ
207059004207059072-020278     207059006003000024100PET CAT LITTER PAN PL  0000001000+00003507+00000+0001T   00003507+0000001432          1400 LO9870               2AZ
207059005207059080-000112     207059006003000252749CARD&ENVLP BDAY-MUSICAL0000001000+00001753+00000+0001T   00001753+0000001432          1400 LO9112               2AZ
207060000207060               207060               170213CX     1400+00000+CX0000007927+0000007927+000000000+000001111+0000009030+0000000008+I20000000000+0000009030+Z
207060001207060019-000084     207060006001023797247VASE GLASS GEOMETRIC   0000001000+00006139+00000+0001T   00006139+0000001434          1400 LO9510               2AZ
207060002207060200-003024     207060006001023657299REFUSE BAGS 20PCE BLACK0000001000+00001753+00000+0001T   00001753+0000001434          1400 LO9214               2AZ
207060003207060112-116038     207060006009681820246TCS CARRIER BAG MIDI   0000001000+00000035+00000+0001T   00000035+0000001434          1400 LO9090               2AZ
207061000207061               207061               170213CX     1400+00000+CX0000003506+0000003506+000000000+000000492+0000003990+0000000008+I20000000000+0000003990+Z
207061001207061046-002013-PK6 207061004897006174851BATTERY BUTTON AG13 6PC0000001000+00001753+00000+0001T   00001753+0000001441          1400 LO9312               2AZ
207061002207061200-003024     207061006001023657299REFUSE BAGS 20PCE BLACK0000001000+00001753+00000+0001T   00001753+0000001441          1400 LO9214               2AZ
207062000207062               207062               170213CX     1400+00000+CX0000023193+0000023193+000000000+000003250+0000026443+0000000000+I40000026443+0000000000+Z
207062001207062018-000136     207062006001023659026MUG OCC LOVE W/PLUSH   0000001000+00003507+00000+0001T   00003507+0000001450          1400 LO9515               2AZ
207062002207062903-000087     207062006001704000161SWT SPECKLED-EGGS 50G  0000003000+00001139+00000+0001T   00001139+0000001450          1400 LO9150               2AZ
207062003207062903-000194     207062006009826020616SWT CHOC RP LOLLY 25G  0000003000+00001314+00000+0001T   00001314+0000001450          1400 LO9150               2AZ
207062004207062368-000111     207062006001023780812PLUSH BEAR/DOG 29CM    0000001000+00012279+00000+0001T   00012279+0000001450          1400 LO9745               2AZ
207062005207062112-116069     207062006009681820277TCS CARRIER BAG JUMBO  0000001000+00000048+00000+0001T   00000048+0000001450          1400 LO9090               2AZ
207063000207063               207063               170213CX     1400+00000+CX0000003156+0000003156+000000000+000000442+0000003598+0000000000+I40000003598+0000000000+Z
207063001207063565-000052     207063006003000615551NOVELTY PUTTY FARTS    0000002000+00001578+00000+0001T   00001578+0000001452          1400 LO9745               2AZ
207064000207064               207064               170213CX     1400+00000+CX0000013592+0000013592+000000000+000001905+0000015490+0000000007+I20000000000+0000015490+Z
207064001207064077-000290     207064006001023902023GIFT BOX 26x32x13cm    0000001000+00001753+00000+0001T   00001753+0000001453          1400 LO9112               2AZ
207064002207064368-000637     207064006001023874092PLUSH BEAR SLEEPING LOV0000001000+00011402+00000+0001T   00012279+0006471453          1400 LO9745               2AZ
207064003207064080-000133-A   207064006003000647019MINI VALENTINES CARD   0000001000+00000437+00000+0001T   00000437+0000001453          1400 LO9112               2AZ
207065000207065               207065               170213CX     1400+00000+CX0000003942+0000003942+000000000+000000552+0000004490+0000000004+I20000000000+0000004490+Z
207065001207065006-000166-H   207065006003000608096BALLOONS HELIUM 6PC WHT0000001000+00001314+00000+0001T   00001314+0000001457          1400 LO9131               2AZ
207065002207065006-000166-D   207065006003000516490BALLOONS LRG 6PC RED   0000002000+00001314+00000+0001T   00001314+0000001457          1400 LO9131               2AZ
207066000207066               207066               170213CX     1400+00000+CX0000001139+0000001139+000000000+000000160+0000001290+0000000009+I20000000000+0000001290+Z
207066001207066903-000710     207066006002099007056SWT REFRESHERS MINT    0000001000+00001139+00000+0001T   00001139+0000001457          1400 LO9150               2AZ
207067000207067               207067               170213CX     1400+00000+CX0000002453+0000002453+000000000+000000344+0000002797+0000000000+I40000002797+0000000000+Z
207067001207067018-000177     207067006001023797513MUG MINI LOVE ASSTD    0000001000+00000700+00000+0001T   00000700+0000001500          1400 LO9515               2AZ
207067002207067200-003024     207067006001023657299REFUSE BAGS 20PCE BLACK0000001000+00001753+00000+0001T   00001753+0000001500          1400 LO9214               2AZ
207068000207068               207068               170213CX     1400+00000+CX0000001795+0000001795+000000000+000000253+0000002040+0000000008+I20000000000+0000002040+Z
207068001207068903-000183     207068006003000451043SWT LB HEART LOLLY     0000001000+00000393+00000+0001T   00000393+0000001504          1400 LO9150               2AZ
207068002207068304-001204     207068006001023737984FLOWER OCC. TEDDY/ROSES0000001000+00001402+00000+0001T   00001490+0006471504          1400 LO9510               2AZ
207069000207069               207069               170213CX     1400+00000+CX0000010027+0000010027+000000000+000001405+0000011432+0000000000+I40000011432+0000000000+Z
207069001207069903-000194     207069006009826020616SWT CHOC RP LOLLY 25G  0000002000+00001314+00000+0001T   00001314+0000001511          1400 LO9150               2AZ
207069002207069033-005919     207069006003000154883SEWING THREAD 24cm ASST0000001000+00001490+00000+0001T   00001490+0000001511          1400 LO9200               2AZ
207069003207069306-001024     207069006001023901910FIRST AID COOL/WARM GEL0000002000+00002192+00000+0001T   00002192+0000001511          1400 LO9200               2AZ
207069004207069112-116038     207069006009681820246TCS CARRIER BAG MIDI   0000001000+00000035+00000+0001T   00000035+0000001511          1400 LO9090               2AZ
207069005207069565-004101     207069006003000548033BALL BOUNCING EGG      0000001000+00001490+00000+0001T   00001490+0000001511          1400 LO9745               2AZ
207070000207070               207070               170213CX     1400+00000+CX0000052628+0000052628+000000000+000007368+0000059990+0000000006+I20000000000+0000059990+Z
207070001207070007-010503     207070006003000455393WIPE & CHALK 90X60CM   0000002000+00026314+00000+0001T   00026314+0000001513          1400 LO9130               2AZ
207071000207071               207071               170213CX     1400+00000+CX0000011920+0000011920+000000000+000001673+0000013593+0000000000+I40000013593+0000000000+Z
207071001207071158-000167     207071006003000569588WASTEPAPER-BASKET 26cm 0000001000+00005262+00000+0001T   00005262+0000001516          1400 LO9300               2AZ
207071002207071001-000169     207071006005231103302TUMBLER 240ml HI-BALL  0000004000+00000788+00000+0001T   00000788+0000001516          1400 LO9515               2AZ
207071003207071007-000184     207071006003000135424NOTEBOOK               0000001000+00001753+00000+0001T   00001753+0000001516          1400 LO9130               2AZ
207071004207071200-003024     207071006001023657299REFUSE BAGS 20PCE BLACK0000001000+00001753+00000+0001T   00001753+0000001516          1400 LO9214               2AZ
207072000207072               207072               170213CX     1400+00000+CX0000003857+0000003857+000000000+000000541+0000004390+0000000008+I20000000000+0000004390+Z
207072001207072033-000013     207072006001023567215PILL-REMINDER PL       0000001000+00001227+00000+0001T   00001227+0000001516          1400 LO9200               2AZ
207072002207072033-000008     207072006003000226818PILL REMINDER 28-COMPAR0000001000+00002630+00000+0001T   00002630+0000001516          1400 LO9200               2AZ
207073000207073               207073               170213CX     1400+00000+CX0000010301+0000010301+000000000+000001443+0000011744+0000000000+I40000011744+0000000000+Z
207073001207073903-000194     207073006009826020616SWT CHOC RP LOLLY 25G  0000003000+00001314+00000+0001T   00001314+0000001522          1400 LO9150               2AZ
207073002207073080-000127     207073006003000424351VALENTINES DAY 36x24CM 0000002000+00002192+00000+0001T   00002192+0000001522          1400 LO9112               2AZ
207073003207073046-000012     207073006904708013062BATTERIES AA  CARD-OF-40000001000+00001314+00000+0001T   00001314+0000001522          1400 LO9312               2AZ
207073004207073047-000001-BB  207073006001023723536INS-TAPE BLACK 18mmx10m0000001000+00000613+00000+0001T   00000613+0000001522          1400 LO9880               2AZ
207073005207073112-116069     207073006009681820277TCS CARRIER BAG JUMBO  0000001000+00000048+00000+0001T   00000048+0000001522          1400 LO9090               2AZ
207074000207074               207074               170213CX     1400+00000+CX0000000262+0000000262+000000000+000000037+0000000290+0000000009+I20000000000+0000000290+Z
207074001207074903-000099     207074006923431501646SWT CANDY GS WTCH B/LET0000001000+00000262+00000+0001T   00000262+0000001524          1400 LO9150               2AZ
207075000207075               207075               170213CX     1400+00000+CX0000003942+0000003942+000000000+000000552+0000004490+0000000004+I20000000000+0000004490+Z
207075001207075006-000166-D   207075006003000516490BALLOONS LRG 6PC RED   0000003000+00001314+00000+0001T   00001314+0000001530          1400 LO9131               2AZ
207076000207076               207076               170213CX     1400+00000+CX0000003540+0000003540+000000000+000000497+0000004030+0000000007+I20000000000+0000004030+Z
207076001207076567-014132     207076006003000560028BOOK COLOURING 24 PAGE 0000002000+00000876+00000+0001T   00000876+0000001534          1400 LO9757               2AZ
207076002207076200-003024     207076006001023657299REFUSE BAGS 20PCE BLACK0000001000+00001753+00000+0001T   00001753+0000001534          1400 LO9214               2AZ
207076003207076112-116038     207076006009681820246TCS CARRIER BAG MIDI   0000001000+00000035+00000+0001T   00000035+0000001534          1400 LO9090               2AZ
207077000207077               207077               170213CX     1400+00000+CX0000001753+0000001753+000000000+000000246+0000001990+0000000009+I20000000000+0000001990+Z
207077001207077079-000275     207077006003000160488PAINT-BRUSHES 6PCE PRO 0000001000+00001753+00000+0001T   00001753+0000001535          1400 LO9130               2AZ
207078000207078               207078               170213CX     1400+00000+CX0000004385+0000004385+000000000+000000614+0000004990+0000000009+I20000000000+0000004990+Z
207078001207078050-000365-Z   207078006001023475305PADLOCK IRON 50mm CARD 0000001000+00004385+00000+0001T   00004385+0000001543          1400 LO9855               2AZ
207079000207079               207079               170213CX     1400+00000+CX0000002714+0000002714+000000000+000000382+0000003090+0000000006+I20000000000+0000003090+Z
207079001207079007-000119     207079006002324004126BOOK COVER PL          0000002000+00001051+00000+0001T   00001051+0000001554          1400 LO9130               2AZ
207079002207079007-000123     207079006003000533879BOOK COVER 450mmx1.5m  0000002000+00000306+00000+0001T   00000306+0000001554          1400 LO9130               2AZ
207080000207080               207080               170213CX     1400+00000+CX0000004385+0000004385+000000000+000000614+0000004990+0000000009+I20000000000+0000004990+Z
207080001207080082-000120     207080006003000360727READING GLS STRENGTH:3 0000001000+00004385+00000+0001T   00004385+0000001556          1400 LO9160               2AZ
207081000207081               207081               170213CX     1400+00000+CX0000005112+0000005112+000000000+000000721+0000005830+0000000003+I20000000000+0000005830+Z
207081001207081083-000049     207081004891035200024CIG-LIGHTER DISPOSABLE 0000005000+00000437+00000+0001T   00000437+0000001605          1400 LO9315               2AZ
207081002207081039-000322     207081006001023524157B/CANDLES W/HOLDERS 24 0000001000+00001139+00000+0001T   00001139+0000001605          1400 LO9510               2AZ
207081003207081077-000467     207081006003000329991GIFT-BAG STAMP 18X23CM 0000001000+00001753+00000+0001T   00001753+0000001605          1400 LO9112               2AZ
207081004207081112-116038     207081006009681820246TCS CARRIER BAG MIDI   0000001000+00000035+00000+0001T   00000035+0000001605          1400 LO9090               2AZ
207082000207082               207082               170213CX     1400+00000+CX0000001753+0000001753+000000000+000000246+0000001990+0000000009+I20000000000+0000001990+Z
207082001207082200-003024     207082006001023657299REFUSE BAGS 20PCE BLACK0000001000+00001753+00000+0001T   00001753+0000001606          1400 LO9214               2AZ
207083000207083               207083               170213CX     1400+00000+CX0000009381+0000009381+000000000+000001315+0000010696+0000000000+I40000010696+0000000000+Z
207083001207083566-000352     207083006001023809261STICKERS LASER ASSTD   0000001000+00002192+00000+0001T   00002192+0000001608          1400 LO9130               2AZ
207083002207083079-000807     207083006003000670277ART+CRAFT WOODEN STICKS0000001000+00001490+00000+0001T   00001490+0000001608          1400 LO9130               2AZ
207083003207083159-000038     207083006003000393954HOOKS HANGER S/S 2PCE  0000001000+00002630+00000+0001T   00002630+0000001608          1400 LO9200               2AZ
207083004207083159-003615     207083006001246045460TOILET-BRUSH W/STAND   0000001000+00003069+00000+0001T   00003069+0000001608          1400 LO9200               2AZ
207084000207084               207084               170213CX     1400+00000+CX0000009957+0000009957+000000000+000001395+0000011352+0000000000+I40000011352+0000000000+Z
207084001207084019-000020     207084006003000673612VASE GLS 22CM BAUBLE   0000001000+00005262+00000+0001T   00005262+0000001615          1400 LO9510               2AZ
207084002207084106-005120     207084006001023897336ICE-LOLLY-MAKER 6PCE   0000001000+00003069+00000+0001T   00003069+0000001615          1400 LO9210               2AZ
207084003207084903-002900     207084005996071650648QUICK MILK 5 CHOCO 5PC 0000001000+00001578+00000+0001T   00001578+0000001615          1400 LO9150               2AZ
207084004207084112-116069     207084006009681820277TCS CARRIER BAG JUMBO  0000001000+00000048+00000+0001T   00000048+0000001615          1400 LO9090               2AZ
207085000207085               207085               170213CX     1400+00000+CX0000013157+0000013157+000000000+000001842+0000014990+0000000009+I20000000000+0000014990+Z
207085001207085467-096020     207085006001023679024BOOGIE-BOARD 66cm ASSTD0000001000+00013157+00000+0001T   00013157+0000001620          1400 LO9785               2AZ
207086000207086               207086               170213CX     1400+00000+CX0000008814+0000008814+000000000+000001235+0000010040+0000000009+I20000000000+0000010040+Z
207086001207086077-000310     207086006001023608635GIFT-BAG 18X23CM GLOSS 0000001000+00001314+00000+0001T   00001314+0000001622          1400 LO9112               2AZ
207086002207086080-000113     207086006003000237449CARD&ENVLPE - LOVE     0000001000+00001753+00000+0001T   00001753+0000001622          1400 LO9112               2AZ
207086003207086903-000194     207086006009826020616SWT CHOC RP LOLLY 25G  0000001000+00001314+00000+0001T   00001314+0000001622          1400 LO9150               2AZ
207086004207086001-000175     207086006001023788108B/MUG GLS LOVE 380ML   0000001000+00004385+00000+0001T   00004385+0000001622          1400 LO9515               2AZ
207086005207086112-116069     207086006009681820277TCS CARRIER BAG JUMBO  0000001000+00000048+00000+0001T   00000048+0000001622          1400 LO9090               2AZ
207087000207087               207087               170213CX     1400+00000+CX0000013249+0000013249+000000000+000001857+0000015106+0000000000+I40000015106+0000000000+Z
207087001207087018-000136     207087006001023659026MUG OCC LOVE W/PLUSH   0000001000+00003507+00000+0001T   00003507+0000001625          1400 LO9515               2AZ
207087002207087301-085007     207087006003000673698ORN OCC. LOVE S/PLAQUE 0000001000+00007893+00000+0001T   00007893+0000001625          1400 LO9505               2AZ
207087003207087077-000289     207087006001023901996GIFT BOX 20x25x11cm    0000001000+00001753+00000+0001T   00001753+0000001625          1400 LO9112               2AZ
207087004207087112-116069     207087006009681820277TCS CARRIER BAG JUMBO  0000002000+00000048+00000+0001T   00000048+0000001625          1400 LO9090               2AZ
207088000207088               207088               170213CX     1400+00000+CX0000007454+0000007454+000000000+000001044+0000008490+0000000008+I20000000000+0000008490+Z
207088001207088039-000326     207088006001023775252B/CANDLES 25PC CAND+HOL0000001000+00002192+00000+0001T   00002192+0000001628          1400 LO9510               2AZ
207088002207088024-000019     207088006001023822277HILLHOUSE ICING-SET    0000001000+00005262+00000+0001T   00005262+0000001628          1400 LO9300               2AZ
207089000207089               207089               170213CX     1400+00000+CX0000010524+0000010524+000000000+000001474+0000011990+0000000008+I20000000000+0000011990+Z
207089001207089028-000026     207089006001023810847COOLER-BAG+POCKET NYLON0000001000+00009648+00000+0001T   00009648+0000001630          1400 LO9305               2AZ
207089002207089047-000505     207089006009636901976PLUG-ADAPTOR 2-PIN     0000001000+00000876+00000+0001T   00000876+0000001630          1400 LO9880               2AZ
207090000207090               207090               170213CX     1400+00000+CX0000001753+0000001753+000000000+000000246+0000001990+0000000009+I20000000000+0000001990+Z
207090001207090200-003024     207090006001023657299REFUSE BAGS 20PCE BLACK0000001000+00001753+00000+0001T   00001753+0000001631          1400 LO9214               2AZ
207091000207091               207091               170213CX     1400+00000+CX0000005085+0000005085+000000000+000000712+0000005790+0000000007+I20000000000+0000005790+Z
207091001207091018-000136     207091006001023659026MUG OCC LOVE W/PLUSH   0000001000+00003507+00000+0001T   00003507+0000001632          1400 LO9515               2AZ
207091002207091018-000127     207091006001023380289MUG OCC STRAIGHT LOVE  0000001000+00001578+00000+0001T   00001753+0006471632          1400 LO9515               2AZ
207092000207092               207092               170213CX     1400+00000+CX0000002665+0000002665+000000000+000000374+0000003030+0000000009+I20000000000+0000003030+Z
207092001207092039-091809     207092006008766091809CANDLE T/LITE 9PC BLCK 0000001000+00002630+00000+0001T   00002630+0000001633          1400 LO9510               2AZ
207092002207092112-116038     207092006009681820246TCS CARRIER BAG MIDI   0000001000+00000035+00000+0001T   00000035+0000001633          1400 LO9090               2AZ
207093000207093               207093               170213CX     1400+00000+CX0000007627+0000007627+000000000+000001069+0000008690+0000000006+I20000000000+0000008690+Z
207093001207093077-000299     207093006003000395576G/BAG 32x25cm LRG LOVE 0000001000+00001490+00000+0001T   00001490+0000001640          1400 LO9112               2AZ
207093002207093304-000720     207093006001023843050F/BUNCH ROSE 6-HEAD AST0000001000+00002630+00000+0001T   00002630+0000001640          1400 LO9510               2AZ
207093003207093018-000136     207093006001023659026MUG OCC LOVE W/PLUSH   0000001000+00003507+00000+0001T   00003507+0000001640          1400 LO9515               2AZ
207094000207094               207094               170213CX     1400+00000+CX0000003506+0000003506+000000000+000000492+0000003990+0000000008+I20000000000+0000003990+Z
207094001207094077-000011-X   207094006001023809827TISSUE-WRAP SILVER 10PC0000001000+00001753+00000+0001T   00001753+0000001641          1400 LO9112               2AZ
207094002207094077-000382     207094006003000247820GIFT-BAG MED 18X23CM   0000001000+00001753+00000+0001T   00001753+0000001641          1400 LO9112               2AZ
207095000207095               207095               170213CX     1400+00000+CX0000007891+0000007891+000000000+000001106+0000008990+0000000007+I20000000000+0000008990+Z
207095001207095077-000005-D   207095006003000414567PAPER TISSUE 50x70cm   0000001000+00001753+00000+0001T   00001753+0000001651          1400 LO9112               2AZ
207095002207095077-000472     207095006003000330133G-BAG DESGNR LRG 25X32 0000001000+00001753+00000+0001T   00001753+0000001651          1400 LO9112               2AZ
207095003207095001-000175     207095006001023788108B/MUG GLS LOVE 380ML   0000001000+00004385+00000+0001T   00004385+0000001651          1400 LO9515               2AZ
207096000207096               207096               170213CX     1400+00000+CX0000002192+0000002192+000000000+000000307+0000002490+0000000009+I20000000000+0000002490+Z
207096001207096018-000170     207096006001023775528MUG OCC. LOVE 2PC MINI 0000001000+00002192+00000+0001T   00002192+0000001653          1400 LO9515               2AZ
207097000207097               207097               170213CX     1400+00000+CX0000030519+0000030519+000000000+000004275+0000034790+0000000004+I20000000000+0000034790+Z
207097001207097105-007560     207097006003000485918STORAGE BOX CLEAR 10L  0000001000+00014034+00000+0001T   00014034+0000001655          1400 LO9210               2AZ
207097002207097200-003024     207097006001023657299REFUSE BAGS 20PCE BLACK0000001000+00001753+00000+0001T   00001753+0000001655          1400 LO9214               2AZ
207097003207097015-002070     207097006001023893932BOWL S/STEEL SALAD 30cm0000002000+00007016+00000+0001T   00007016+0000001655          1400 LO9515               2AZ
207097004207097564-000012     207097006001023130075BUBBLE BOTTLE MAGIC    0000001000+00000700+00000+0001T   00000700+0000001655          1400 LO9131               2AZ
207098000207098               207098               170213CX     1400+00000+CX0000001400+0000001400+000000000+000000196+0000001590+0000000006+I20000000000+0000001590+Z
207098001207098018-000177     207098006001023797513MUG MINI LOVE ASSTD    0000002000+00000700+00000+0001T   00000700+0000001705          1400 LO9515               2AZ
207099000207099               207099               170213CX     1400+00000+CX0000006926+0000006926+000000000+000000971+0000007890+0000000007+I20000000000+0000007890+Z
207099001207099903-000111     207099006001704006378SWT LIQUORICE-TWISTS   0000001000+00001227+00000+0001T   00001227+0000001714          1400 LO9150               2AZ
207099002207099072-020320     207099006003000603343PET DOG TOY TUG-ROPE   0000001000+00002630+00000+0001T   00002630+0000001714          1400 LO9870               2AZ
207099003207099031-000864-A   207099006001023798350P/FRAME MAHOGANY 10X15 0000001000+00003069+00000+0001T   00003069+0000001714          1400 LO9510               2AZ
207100000207100               207100               170213CX     1400+00000+CX0000001402+0000001402+000000000+000000197+0000001599+0000000000+I40000001599+0000000000+Z
207100001207100046-000011     207100004897006172994BATTERIES SIZE:AA  2PCE0000001000+00001402+00000+0001T   00001402+0000001721          1400 LO9312               2AZ
207101000207101               207101               170213CX     1400+00000+CX0000002630+0000002630+000000000+000000369+0000002990+0000000009+I20000000000+0000002990+Z
207101001207101304-000720     207101006001023843050F/BUNCH ROSE 6-HEAD AST0000001000+00002630+00000+0001T   00002630+0000001725          1400 LO9510               2AZ
207102000207102               207102               170213CX     1400+00000+CX0000002630+0000002630+000000000+000000369+0000002990+0000000009+I20000000000+0000002990+Z
207102001207102018-000129     207102006001023403353MUG OCC. LOVE V-SHAPE  0000001000+00002630+00000+0001T   00002630+0000001727          1400 LO9515               2AZ
207103000207103               207103               170213CX     1400+00000+CX0000010566+0000010566+000000000+000001483+0000012040+0000000009+I20000000000+0000012040+Z
207103001207103077-000150-D   207103006003000054343GIFT-WRAP CELLPHANE CLR0000003000+00000876+00000+0001T   00000876+0000001730          1400 LO9112               2AZ
207103002207103077-000349-B   207103006001023908315G/RIBBON 3ROLLS 12BOWS 0000003000+00002630+00000+0001T   00002630+0000001730          1400 LO9112               2AZ
207103003207103112-116069     207103006009681820277TCS CARRIER BAG JUMBO  0000001000+00000048+00000+0001T   00000048+0000001730          1400 LO9090               2AZ
207104000207104               207104               170213CX     1400+00000+CX0000005490-0000000000+000000000+000000000+0000005490-0000000000+I20000000000+0000005490-Z
207104001207104001-999909     207104000000000999909STAFF-REFRESHMENTS     0000001000-00005490+00000+0001X   00000000+0000001735          0000 LO99091IC            2 Z
M17021391                              CASH        CXSLAVE 2                       Z-REPORT No.   598TOTAL (Sales - Refunds)           7888.21       CASH TO BE BANKED                 5019.70       DEBIT CARDS                          0.00       CREDIT CARDS                      2813.61       Z-READING                         7833.31       AIRTIME DEBIT CARD SALES             0.00       AIRTIME CARD SALES                   0.00       OVERS/UNDERS                         0.00       AIRTIME CASH SALES                   0.00       GIFT CARDS                           0.00       GIFT CARD CASH SALES                 0.00       STAFF-REFRESHMENTS                  54.90       T O T A L  CASH PAYOUTS             54.90                                                                                                                                                                                                                                                                                                      Z
M17021392                              CASH        CXABSENT                                                                                                                                                                                          ANNUAL LEAVE                                                                                                                                                                                    DAY OFF                                                                                                                                                                                         COMMENTS                                                                                                                                                                                                                                                                                                                                                                                       Z
Y17021300                                          CX00000000696638+000080
ZCX17021321043 SLAVE 2      SALES DATA                     NEXT INVOICE NO.  207105 0598
X CX Slave 2 First invoice 207023 170213 Last invoice 207104 170213 Next invoice 207105 Total number of records 000000290 clbackup completed 21:04:38
