563789000563789               563789               170213CY     1400+00000+CY0000010520+0000010520+000000000+000001476+0000011990+0000000006+I20000000000+0000011990+Z
563789001563789304-001126     563789006001023845047FLWR BUNCH GERBERA 31cm0000001000+00002630+00000+0001T   00002630+0000000901          1400 HL6510               2AZ
563789002563789304-001016     563789006003000427116FLOWER DAHLIA POLY.65CM0000002000+00002630+00000+0001T   00002630+0000000901          1400 HL6510               2AZ
563789003563789304-001126     563789006001023845047FLWR BUNCH GERBERA 31cm0000001000+00002630+00000+0001T   00002630+0000000901          1400 HL6510               2AZ
563790000563790               563790               170213CY     1400+00000+CY0000011346+0000011346+000000000+000001590+0000012936+0000000000+I40000012936+0000000000+Z
563790001563790046-000012-A   563790006003000208296BATTERIES H/POWER SZ:AA0000001000+00002192+00000+0001T   00002192+0000000914          1400 HL6312               2AZ
563790002563790046-000004     563790006001023606525BATTERY 9VOLT H/POWER  0000002000+00001490+00000+0001T   00001490+0000000914          1400 HL6312               2AZ
563790003563790018-050000     563790006003000412679MUG OCC LOVE TWIN BEAR 0000001000+00006139+00000+0001T   00006139+0000000914          1400 HL6515               2AZ
563790004563790112-116038     563790006009681820246TCS CARRIER BAG MIDI   0000001000+00000035+00000+0001T   00000035+0000000914          1400 HL6090               2AZ
563791000563791               563791               170213CY     1400+00000+CY0000010551+0000010551+000000000+000001481+0000012030+0000000002+I20000000000+0000012030+Z
563791001563791112-116038     563791006009681820246TCS CARRIER BAG MIDI   0000001000+00000035+00000+0001T   00000035+0000000916          1400 HL6090               2AZ
563791002563791033-005917     563791006001023678201SEAM-RIP+THIMBLE-SET   0000001000+00000788+00000+0001T   00000788+0000000916          1400 HL6200               2AZ
563791003563791033-005931     563791006001023678447PINS ON-WHEEL PEARLIZED0000002000+00000876+00000+0001T   00000876+0000000916          1400 HL6200               2AZ
563791004563791033-005991     563791006001023678546NEEDLES H/HOLD-REPAIR  0000001000+00000788+00000+0001T   00000788+0000000916          1400 HL6200               2AZ
563791005563791306-000021     563791006001023169433EARBUDS 100PCE IN BAG  0000001000+00000613+00000+0001T   00000613+0000000916          1400 HL6200               2AZ
563791006563791036-000610     563791006001023627230WASHING-PEGS PL PACK-240000001000+00001753+00000+0001T   00001753+0000000916          1400 HL6212               2AZ
563791007563791159-000020     563791006001023905543HAIR DRYING MICROFIBRE 0000001000+00002630+00000+0001T   00002630+0000000916          1400 HL6200               2AZ
563791008563791007-000597     563791006009699511129MARLIN SLF ADHESIVE 2M 0000001000+00002192+00000+0001T   00002192+0000000916          1400 HL6130               2AZ
563792000563792               563792               170213CY     1400+00000+CY0000013152+0000013152+000000000+000001842+0000014994+0000000000+I40000014994+0000000000+Z
563792001563792072-020250     563792006003000188864PET BLANKET BUDGET     0000002000+00003069+00000+0001T   00003069+0000000925          1400 HL6870               2AZ
563792002563792072-020266     563792006003000400591PET PUPPY TRAINING PAD 0000002000+00003507+00000+0001T   00003507+0000000925          1400 HL6870               2AZ
563793000563793               563793               170213CY     1400+00000+CY0000010080+0000010080+000000000+000001412+0000011492+0000000000+I40000011492+0000000000+Z
563793001563793071-000701     563793006001023852830CLIPBOARD A4  23x30cm  0000001000+00003507+00000+0001T   00003507+0000000929          1400 HL6130               2AZ
563793002563793027-008814     563793006001023797155DUSTER POLYESTER 58cm  0000001000+00002192+00000+0001T   00002192+0000000929          1400 HL6212               2AZ
563793003563793200-003024     563793006001023657299REFUSE BAGS 20PCE BLACK0000001000+00001753+00000+0001T   00001753+0000000929          1400 HL6214               2AZ
563793004563793107-004105     563793006009703860984BUCKET 9L OPEN         0000002000+00001314+00000+0001T   00001314+0000000929          1400 HL6210               2AZ
563794000563794               563794               170213CY     1400+00000+CY0000006343+0000006343+000000000+000000891+0000007230+0000000004+I20000000000+0000007230+Z
563794001563794105-001025-A   563794006009654960979CONTAINERS CLEAR 4PCE  0000001000+00001928+00000+0001T   00001928+0000000947          1400 HL6210               2AZ
563794002563794112-116038     563794006009681820246TCS CARRIER BAG MIDI   0000001000+00000035+00000+0001T   00000035+0000000947          1400 HL6090               2AZ
563794003563794022-001324     563794006002600001115SOUP-PLATE 24cm PLAIN  0000002000+00001139+00000+0001T   00001139+0000000947          1400 HL6305               2AZ
563794004563794022-002107     563794006002600025814MUG ENAMEL 8cm WHITE   0000002000+00001051+00000+0001T   00001051+0000000947          1400 HL6305               2AZ
563795000563795               563795               170213CY     1400+00000+CY0000011433+0000011433+000000000+000001602+0000013030+0000000005+I20000000000+0000013030+Z
563795001563795112-116038     563795006009681820246TCS CARRIER BAG MIDI   0000001000+00000035+00000+0001T   00000035+0000000955          1400 HL6090               2AZ
563795002563795002-003730     563795006001023761699STRAINER SKIMMER 16cm  0000001000+00001753+00000+0001T   00001753+0000000955          1400 HL6300               2AZ
563795003563795142-000814     563795006001023183910GLOVES RUBBER  MEDIUM  0000001000+00001753+00000+0001T   00001753+0000000955          1400 HL6810               2AZ
563795004563795369-001031     563795006001023796219BABY RATTLE SET 2PC    0000001000+00003507+00000+0001T   00003507+0000000955          1400 HL6745               2AZ
563795005563795024-000003     563795006001023462206S/BURNER COVERS ASSTD  0000001000+00004385+00000+0001T   00004385+0000000955          1400 HL6300               2AZ
563796000563796               563796               170213CY     1400+00000+CY0000007010+0000007010+000000000+000000984+0000007990+0000000004+I20000000000+0000007990+Z
563796001563796903-000155     563796006009803374435SWT LOLLY I LUV U HEART0000003000+00000525+00000+0001T   00000525+0000001003          1400 HL6150               2AZ
563796002563796077-000321     563796006001023677501GIFT-BAG 11X14CM E/D FL0000001000+00000613+00000+0001T   00000613+0000001003          1400 HL6112               2AZ
563796003563796007-000226     563796006003000646876NOTEBOOK WITH ELASTIC  0000001000+00002630+00000+0001T   00002630+0000001003          1400 HL6130               2AZ
563796004563796071-000196     563796006003000379392PEN MULTI-COLOUR 2PK   0000001000+00002192+00000+0001T   00002192+0000001003          1400 HL6130               2AZ
563797000563797               563797               170213CY     1400+00000+CY0000001753+0000001753+000000000+000000246+0000001990+0000000009+I20000000000+0000001990+Z
563797001563797104-000040     563797006001023846280BASKET HEART-SHAPED    0000001000+00001753+00000+0001T   00001753+0000001016          1400 HL6210               2AZ
563798000563798               563798               170213CY     1400+00000+CY0000008771+0000008771+000000000+000001228+0000009999+0000000000+I40000009999+0000000000+Z
563798001563798072-020242     563798006003000053728PET BED COTTON TEXTILE 0000001000+00008771+00000+0001T   00008771+0000001030          1400 HL6870               2AZ
563799000563799               563799               170213CY     1400+00000+CY0000061913+0000061913+000000000+000008679+0000070592+0000000000+I40000070592+0000000000+Z
563799001563799112-116069     563799006009681820277TCS CARRIER BAG JUMBO  0000001000+00000048+00000+0001T   00000048+0000001037          1400 HL6090               2AZ
563799002563799033-010720     563799006001023678645SAFETY-PINS 50PCE SMALL0000001000+00000876+00000+0001T   00000876+0000001037          1400 HL6200               2AZ
563799003563799079-013032-D   563799006003000389643RIBBONS                0000002000+00002630+00000+0001T   00002630+0000001037          1400 HL6130               2AZ
563799004563799003-009201     563799006003000407798O/WELCOME STONE RND ASS0000001000+00004385+00000+0001T   00004385+0000001037          1400 HL6505               2AZ
563799005563799003-009212     563799006003000461974O/WELCOME STONE RND    0000001000+00007016+00000+0001T   00007016+0000001037          1400 HL6505               2AZ
563799006563799486-002321     563799006003000384624WALL-CLOCK QTZ 33CM    0000001000+00007016+00000+0001T   00007016+0000001037          1400 HL6510               2AZ
563799007563799071-003009     563799006001024011373PEN CLICK BALL+SFT GRIP0000001000+00002630+00000+0001T   00002630+0000001037          1400 HL6130               2AZ
563799008563799071-000006     563799006001023732613PENCIL REFILLABLE 6PK  0000001000+00001753+00000+0001T   00001753+0000001037          1400 HL6130               2AZ
563799009563799079-001000     563799006003000448470CANVAS A2 WOOD MOUNTED 0000001000+00007016+00000+0001T   00007016+0000001037          1400 HL6130               2AZ
563799010563799107-004505     563799006003000677177STEP STOOL FOLDABLE    0000001000+00008771+00000+0001T   00008771+0000001037          1400 HL6210               2AZ
563799011563799027-009025     563799006003962000747DUSTPAN-SET PL         0000002000+00002630+00000+0001T   00002630+0000001037          1400 HL6212               2AZ
563799012563799051-600655     563799006003000422067PLANTER W/TRAY 20x20x160000002000+00002630+00000+0001T   00002630+0000001037          1400 HL6820               2AZ
563799013563799071-000013     563799006003000535354BOARD DUSTER           0000001000+00002630+00000+0001T   00002630+0000001037          1400 HL6130               2AZ
563799014563799071-001124     563799006001023802873MARKERS WHITEBOARD 3PCE0000001000+00002630+00000+0001T   00002630+0000001037          1400 HL6130               2AZ
563799015563799046-000012     563799006904708013062BATTERIES AA  CARD-OF-40000001000+00001314+00000+0001T   00001314+0000001037          1400 HL6312               2AZ
563799016563799112-116069     563799006009681820277TCS CARRIER BAG JUMBO  0000001000+00000048+00000+0001T   00000048+0000001037          1400 HL6090               2AZ
563800000563800               563800               170213CY     1400+00000+CY0000003104+0000003104+000000000+000000435+0000003530+0000000009+I20000000000+0000003530+Z
563800001563800031-000864-A   563800006001023798350P/FRAME MAHOGANY 10X15 0000001000+00003069+00000+0001T   00003069+0000001045          1400 HL6510               2AZ
563800002563800112-116038     563800006009681820246TCS CARRIER BAG MIDI   0000001000+00000035+00000+0001T   00000035+0000001045          1400 HL6090               2AZ
563801000563801               563801               170213CY     1400+00000+CY0000005295+0000005295+000000000+000000742+0000006030+0000000007+I20000000000+0000006030+Z
563801001563801306-001130-A   563801006003000359271FIRSTAID SUPPORT ANKLE 0000001000+00001753+00000+0001T   00001753+0000001047          1400 HL6200               2AZ
563801002563801174-008023     563801006001023730695PONCHO 132x203cm TWIN-P0000001000+00003507+00000+0001T   00003507+0000001047          1400 HL6205               2AZ
563801003563801112-116038     563801006009681820246TCS CARRIER BAG MIDI   0000001000+00000035+00000+0001T   00000035+0000001047          1400 HL6090               2AZ
563802000563802               563802               170213CY     1400+00000+CY0000000876+0000000876+000000000+000000123+0000000990+0000000009+I20000000000+0000000990+Z
563802001563802039-000323     563802006001023524171BIRTHDAY-CANDLES 24PCE 0000001000+00000876+00000+0001T   00000876+0000001049          1400 HL6510               2AZ
563803000563803               563803               170213CY     1400+00000+CY0000025464+0000025464+000000000+000003569+0000029030+0000000003+I20000000000+0000029030+Z
563803001563803009-001708     563803006001023807731SALAD BOWL 15cm SWIRL  0000003000+00001753+00000+0001T   00001753+0000001051          1400 HL6210               2AZ
563803002563803567-075466     563803009780263252880BK NOVEL ROMANCE       0000001000+00002630+00000+0001T   00002630+0000001051          1400 HL6757               2AZ
563803003563803567-075497     563803009780799371871BK NOVEL ROMANCE AFR   0000001000+00006139+00000+0001T   00006139+0000001051          1400 HL6757               2AZ
563803004563803567-075497     563803009780799371901BK NOVEL ROMANCE AFR   0000001000+00006139+00000+0001T   00006139+0000001051          1400 HL6757               2AZ
563803005563803567-010161     563803009780000008516BOOK TOP ASSTD MILLS   0000001000+00005262+00000+0001T   00005262+0000001051          1400 HL6757               2AZ
563803006563803112-116038     563803006009681820246TCS CARRIER BAG MIDI   0000001000+00000035+00000+0001T   00000035+0000001051          1400 HL6090               2AZ
563804000563804               563804               170213CY     1400+00000+CY0000019409+0000019409+000000000+000002721+0000022130+0000000000+I40000022130+0000000000+Z
563804001563804077-000303     563804006001023593757GIFT-BAG PAPER MED     0000002000+00001578+00000+0001T   00001578+0000001054          1400 HL6112               2AZ
563804002563804027-000091     563804006003000343966WINDOW CLEANER 22CM    0000003000+00001753+00000+0001T   00001753+0000001054          1400 HL6212               2AZ
563804003563804072-020315     563804006003000623891PET TOY PUPPY RING 3in10000001000+00003069+00000+0001T   00003069+0000001054          1400 HL6870               2AZ
563804004563804159-000887     563804006001023730817HOOKS PL SUCTION 9PCE  0000001000+00002192+00000+0001T   00002192+0000001054          1400 HL6200               2AZ
563804005563804251-000052     563804006001023627933PROTECT-PAD FELT 16PCE 0000002000+00001753+00000+0001T   00001753+0000001054          1400 HL6810               2AZ
563804006563804051-002400     563804006001023616180TRIGGER-SPRAYER 900ml  0000001000+00002192+00000+0001T   00002192+0000001054          1400 HL6820               2AZ
563804007563804112-116038     563804006009681820246TCS CARRIER BAG MIDI   0000001000+00000035+00000+0001T   00000035+0000001054          1400 HL6090               2AZ
563805000563805               563805               170213CY     1400+00000+CY0000002450+0000002450+000000000+000000344+0000002790+0000000004+I20000000000+0000002790+Z
563805001563805018-000177     563805006001023797513MUG MINI LOVE ASSTD    0000002000+00000700+00000+0001T   00000700+0000001057          1400 HL6515               2AZ
563805002563805903-000155     563805006009803374435SWT LOLLY I LUV U HEART0000002000+00000525+00000+0001T   00000525+0000001057          1400 HL6150               2AZ
563806000563806               563806               170213CY     1400+00000+CY0000003946+0000003946+000000000+000000553+0000004490+0000000009+I20000000000+0000004490+Z
563806001563806031-000874-A   563806006001023798800P/FRAME WDN P/BOX 10X150000001000+00003946+00000+0001T   00003946+0000001058          1400 HL6510               2AZ
563807000563807               563807               170213CY     1400+00000+CY0000001490+0000001490+000000000+000000209+0000001690+0000000009+I20000000000+0000001690+Z
563807001563807006-000788     563807006001023990228CROWN HAPPY BIRTHDAY   0000001000+00001490+00000+0001T   00001490+0000001059          1400 HL6131               2AZ
563808000563808               563808               170213CY     1400+00000+CY0000002192+0000002192+000000000+000000307+0000002490+0000000009+I20000000000+0000002490+Z
563808001563808024-091103     563808006003453014307BAKING-CUP MUFFIN 50PCE0000001000+00002192+00000+0001T   00002192+0000001106          1400 HL6300               2AZ
563809000563809               563809               170213CY     1400+00000+CY0000000788+0000000788+000000000+000000111+0000000890+0000000009+I20000000000+0000000890+Z
563809001563809071-081101-A   563809006003000326549GLUE-STICK 25g BLISTER 0000001000+00000788+00000+0001T   00000788+0000001108          1400 HL6130               2AZ
563810000563810               563810               170213CY     1400+00000+CY0000008331+0000008331+000000000+000001167+0000009490+0000000008+I20000000000+0000009490+Z
563810001563810362-001045     563810006001023843449MAKE-UP TEEN GIFT SET  0000001000+00005262+00000+0001T   00005262+0000001109          1400 HL6160               2AZ
563810002563810361-090314     563810006003000654390PONY WITH WINGS        0000001000+00003069+00000+0001T   00003069+0000001109          1400 HL6725               2AZ
563811000563811               563811               170213CY     1400+00000+CY0000008891+0000008891+000000000+000001246+0000010137+0000000000+I40000010137+0000000000+Z
563811001563811024-000002     563811006001023741899S/BURNER-COVER SILV/BLK0000001000+00003946+00000+0001T   00004385+0008191111          1400 HL6300               2AZ
563811002563811108-009015-B   563811006005387000050SALAD-BOWL LRGE ASSTD  0000001000+00003771+00000+0001T   00003771+0000001111          1400 HL6210               2AZ
563811003563811002-000801     563811006003000555994PEELER PL/MTL Y-SHAPE  0000001000+00001139+00000+0001T   00001139+0000001111          1400 HL6300               2AZ
563811004563811112-116038     563811006009681820246TCS CARRIER BAG MIDI   0000001000+00000035+00000+0001T   00000035+0000001111          1400 HL6090               2AZ
563812000563812               563812               170213CY     1400+00000+CY0000000437+0000000437+000000000+000000062+0000000490+0000000009+I20000000000+0000000490+Z
563812001563812080-000133-A   563812006003000647019MINI VALENTINES CARD   0000001000+00000437+00000+0001T   00000437+0000001116          1400 HL6112               2AZ
563813000563813               563813               170213CY     1400+00000+CY0000005699+0000005699+000000000+000000799+0000006498+0000000000+I40000006498+0000000000+Z
563813001563813018-019000     563813006003000557288MUG OCC. LOVE JUMBO    0000001000+00005262+00000+0001T   00005262+0000001125          1400 HL6515               2AZ
563813002563813080-000133     563813006003000535613CARD&ENV MINI ASTD DSGN0000001000+00000437+00000+0001T   00000437+0000001125          1400 HL6112               2AZ
563814000563814               563814               170213CY     1400+00000+CY0000003243+0000003243+000000000+000000455+0000003690+0000000008+I20000000000+0000003690+Z
563814001563814071-081101-A   563814006003000326549GLUE-STICK 25g BLISTER 0000001000+00000788+00000+0001T   00000788+0000001128          1400 HL6130               2AZ
563814002563814079-000510     563814006001023509079CRAYONS WAX 12-COLOUR  0000001000+00002455+00000+0001T   00002455+0000001128          1400 HL6130               2AZ
563815000563815               563815               170213CY     1400+00000+CY0000000876+0000000876+000000000+000000123+0000000990+0000000009+I20000000000+0000000990+Z
563815001563815903-000482     563815006001704001397SWT SOFT-MINTS 60G     0000001000+00000876+00000+0001T   00000876+0000001129          1400 HL6150               2AZ
563816000563816               563816               170213CY     1400+00000+CY0000006135+0000006135+000000000+000000861+0000006996+0000000000+I40000006996+0000000000+Z
563816001563816027-783000     563816006001023874641SCOURERS RAINBOW 5PCE  0000001000+00001753+00000+0001T   00001753+0000001133          1400 HL6212               2AZ
563816002563816076-000030-H   563816006001023429544WASHING-LINE 30m    H&H0000001000+00002630+00000+0001T   00002630+0000001133          1400 HL6810               2AZ
563816003563816033-005931     563816006001023678447PINS ON-WHEEL PEARLIZED0000001000+00000876+00000+0001T   00000876+0000001133          1400 HL6200               2AZ
563816004563816077-000011-D   563816006001023808554TISSUE-WRAP WHITE 10PCE0000001000+00000876+00000+0001T   00000876+0000001133          1400 HL6112               2AZ
563817000563817               563817               170213CY     1400+00000+CY0000012396+0000012396+000000000+000001738+0000014130+0000000004+I20000000000+0000014130+Z
563817001563817112-116038     563817006009681820246TCS CARRIER BAG MIDI   0000001000+00000035+00000+0001T   00000035+0000001143          1400 HL6090               2AZ
563817002563817304-001204     563817006001023737984FLOWER OCC. TEDDY/ROSES0000001000+00001402+00000+0001T   00001490+0006471143          1400 HL6510               2AZ
563817003563817368-000049     563817006003000536955PLUSH BEAR 15cm LOVE   0000001000+00004385+00000+0001T   00004385+0000001143          1400 HL6745               2AZ
563817004563817080-000133-A   563817006003000647019MINI VALENTINES CARD   0000001000+00000437+00000+0001T   00000437+0000001143          1400 HL6112               2AZ
563817005563817018-000130     563817006001023867537MUG OCC LOVE MINI+HEART0000001000+00003507+00000+0001T   00003507+0000001143          1400 HL6515               2AZ
563817006563817077-000270     563817006003000395453GIFT-BAG PPR JMB 33X45 0000001000+00002630+00000+0001T   00002630+0000001143          1400 HL6112               2AZ
563818000563818               563818               170213CY     1400+00000+CY0000001490+0000001490+000000000+000000209+0000001690+0000000009+I20000000000+0000001690+Z
563818001563818464-000106     563818006001023171153PLAYING-CARDS (SINGLE) 0000001000+00001490+00000+0001T   00001490+0000001147          1400 HL6785               2AZ
563819000563819               563819               170213CY     1400+00000+CY0000014923+0000014923+000000000+000002096+0000017019+0000000000+I40000017019+0000000000+Z
563819001563819004-071209     563819006003000604678MOBILE IN CAR HOLDER   0000001000+00007893+00000+0001T   00007893+0000001152          1400 HL6310               2AZ
563819002563819077-000318     563819006001023609755GIFT-BAG 18X23CM E/D AN0000001000+00001227+00000+0001T   00001227+0000001152          1400 HL6112               2AZ
563819003563819903-000099     563819006923431501646SWT CANDY GS WTCH B/LET0000017000+00000262+00000+0001T   00000262+0000001152          1400 HL6150               2AZ
563819004563819112-116038     563819006009681820246TCS CARRIER BAG MIDI   0000001000+00000035+00000+0001T   00000035+0000001152          1400 HL6090               2AZ
563819005563819903-004952     563819006002580020052SWT FREAKY FACES 100G  0000001000+00001314+00000+0001T   00001314+0000001152          1400 HL6150               2AZ
563820000563820               563820               170213CY     1400+00000+CY0000000437+0000000437+000000000+000000062+0000000490+0000000009+I20000000000+0000000490+Z
563820001563820083-000049     563820004891035200024CIG-LIGHTER DISPOSABLE 0000001000+00000437+00000+0001T   00000437+0000001153          1400 HL6315               2AZ
563821000563821               563821               170213CY     1400+00000+CY0000005260+0000005260+000000000+000000737+0000005997+0000000000+I40000005997+0000000000+Z
563821001563821103-000090     563821006001023795786WOVEN HEART SHAPED     0000001000+00003507+00000+0001T   00003507+0000001155          1400 HL6300               2AZ
563821002563821019-071596     563821006001023733078PEBBLES GLS 250g ASSTD.0000001000+00001753+00000+0001T   00001753+0000001155          1400 HL6510               2AZ
563822000563822               563822               170213CY     1400+00000+CY0000000911+0000000911+000000000+000000128+0000001030+0000000009+I20000000000+0000001030+Z
563822001563822306-000023     563822006001023606976COTTON-WOOL-BALLS 50PCE0000001000+00000876+00000+0001T   00000876+0000001157          1400 HL6200               2AZ
563822002563822112-116038     563822006009681820246TCS CARRIER BAG MIDI   0000001000+00000035+00000+0001T   00000035+0000001157          1400 HL6090               2AZ
563823000563823               563823               170213CY     1400+00000+CY0000004385+0000004385+000000000+000000614+0000004990+0000000009+I20000000000+0000004990+Z
563823001563823051-500100     563823006003000399444GARDEN KIDS SPADE ASSTD0000001000+00004385+00000+0001T   00004385+0000001202          1400 HL6820               2AZ
563824000563824               563824               170213CY     1400+00000+CY0000001971+0000001971+000000000+000000277+0000002240+0000000008+I20000000000+0000002240+Z
563824001563824463-000122     563824006001023188069SWIM-GOGGLES           0000001000+00001753+00000+0001T   00001753+0000001203          1400 HL6785               2AZ
563824002563824006-000171-H   563824006003000609574BALLOONS 1PC RED PRINT 0000001000+00000218+00000+0001T   00000218+0000001203          1400 HL6131               2AZ
563825000563825               563825               170213CY     1400+00000+CY0000008806+0000008806+000000000+000001233+0000010039+0000000000+I40000010039+0000000000+Z
563825001563825031-000924     563825006001023669964P/FRAME COLLAGE PL     0000001000+00008771+00000+0001T   00008771+0000001221          1400 HL6510               2AZ
563825002563825112-116038     563825006009681820246TCS CARRIER BAG MIDI   0000001000+00000035+00000+0001T   00000035+0000001221          1400 HL6090               2AZ
563826000563826               563826               170213CY     1400+00000+CY0000001753+0000001753+000000000+000000246+0000001999+0000000000+I40000001999+0000000000+Z
563826001563826089-000030     563826006003000575671K/CHAIN LOVE MTL ASSTD 0000001000+00001753+00000+0001T   00001753+0000001224          1400 HL6205               2AZ
563827000563827               563827               170213CY     1400+00000+CY0000002628+0000002628+000000000+000000368+0000002990+0000000006+I20000000000+0000002990+Z
563827001563827903-000194     563827006009826020616SWT CHOC RP LOLLY 25G  0000002000+00001314+00000+0001T   00001314+0000001224          1400 HL6150               2AZ
563828000563828               563828               170213CY     1400+00000+CY0000021873+0000021873+000000000+000003068+0000024940+0000000001+I20000000000+0000024940+Z
563828001563828104-000190     563828006001246040342DISH DRAINER PL ASSTD  0000001000+00005262+00000+0001T   00005262+0000001230          1400 HL6210               2AZ
563828002563828112-116069     563828006009681820277TCS CARRIER BAG JUMBO  0000001000+00000048+00000+0001T   00000048+0000001230          1400 HL6090               2AZ
563828003563828903-000155     563828006009803374435SWT LOLLY I LUV U HEART0000007000+00000525+00000+0001T   00000525+0000001230          1400 HL6150               2AZ
563828004563828150-004030-H   563828006001023435798BATH-PLUG RUBBER WHITE 0000001000+00000613+00000+0001T   00000613+0000001230          1400 HL6810               2AZ
563828005563828104-000180     563828006001023765758CUTLERY-TRAY PL        0000001000+00003507+00000+0001T   00003507+0000001230          1400 HL6210               2AZ
563828006563828200-003024     563828006001023657299REFUSE BAGS 20PCE BLACK0000001000+00001753+00000+0001T   00001753+0000001230          1400 HL6214               2AZ
563828007563828027-008813     563828006001023552334DUSTER RETRCTABLE 122cm0000001000+00002630+00000+0001T   00002630+0000001230          1400 HL6212               2AZ
563828008563828027-009027     563828006003000235803BROOM FLAT 1.2m HANDLE 0000001000+00004385+00000+0001T   00004385+0000001230          1400 HL6212               2AZ
563829000563829               563829               170213CY     1400+00000+CY0000000874+0000000874+000000000+000000124+0000000990+0000000008+I20000000000+0000000990+Z
563829001563829080-000133     563829006003000535613CARD&ENV MINI ASTD DSGN0000001000+00000437+00000+0001T   00000437+0000001232          1400 HL6112               2AZ
563829002563829080-000133-A   563829006003000647019MINI VALENTINES CARD   0000001000+00000437+00000+0001T   00000437+0000001232          1400 HL6112               2AZ
563830000563830               563830               170213CY     1400+00000+CY0000014063+0000014063+000000000+000001971+0000016034+0000000000+I40000016034+0000000000+Z
563830001563830301-085001     563830006003000297610ORN WATERBALL LOVE ASST0000001000+00004823+00000+0001T   00004823+0000001239          1400 HL6505               2AZ
563830002563830018-030000     563830006003000421060MUG OCCASIONS LOVE 2PCE0000001000+00004385+00000+0001T   00004385+0000001239          1400 HL6515               2AZ
563830003563830077-000151     563830006008766114676GIFT-WRAP C/PHANE ASSTD0000001000+00000876+00000+0001T   00000876+0000001239          1400 HL6112               2AZ
563830004563830103-000090     563830006001023795786WOVEN HEART SHAPED     0000001000+00003507+00000+0001T   00003507+0000001239          1400 HL6300               2AZ
563830005563830112-116038     563830006009681820246TCS CARRIER BAG MIDI   0000001000+00000035+00000+0001T   00000035+0000001239          1400 HL6090               2AZ
563830006563830080-000133-A   563830006003000647019MINI VALENTINES CARD   0000001000+00000437+00000+0001T   00000437+0000001239          1400 HL6112               2AZ
563831000563831               563831               170213CY     1400+00000+CY0000001575+0000001575+000000000+000000222+0000001790+0000000007+I20000000000+0000001790+Z
563831001563831903-000077     563831006939873501687SWT GS MAGIC ROCK FRUIT0000003000+00000525+00000+0001T   00000525+0000001244          1400 HL6150               2AZ
563832000563832               563832               170213CY     1400+00000+CY0000005732+0000005732+000000000+000000803+0000006535+0000000000+I40000006535+0000000000+Z
563832001563832903-000844     563832005010478432567SWT CANDY DL LUV HEARTS0000002000+00001314+00000+0001T   00001314+0000001246          1400 HL6150               2AZ
563832002563832089-060027     563832006003000245871KEY-CHAIN HEART 6X6cm  0000001000+00003069+00000+0001T   00003069+0000001246          1400 HL6205               2AZ
563832003563832112-116038     563832006009681820246TCS CARRIER BAG MIDI   0000001000+00000035+00000+0001T   00000035+0000001246          1400 HL6090               2AZ
563833000563833               563833               170213CY     1400+00000+CY0000014321+0000014321+000000000+000002009+0000016330+0000000000+I40000016330+0000000000+Z
563833001563833903-000123     563833006925925909280SWEET GS MINI MALLOWS  0000003000+00000876+00000+0001T   00000876+0000001250          1400 HL6150               2AZ
563833002563833079-013032-H   563833006003000496501GLITTER PRINCESS ACC   0000001000+00002630+00000+0001T   00002630+0000001250          1400 HL61301IC            2AZ
563833003563833079-013032-I   563833006003000542550ART+CRAFT DIY EVA FOAM 0000001000+00001753+00000+0001T   00001753+0000001250          1400 HL6130               2AZ
563833004563833016-006425     563833006001023998170S/JAR GLS CLIP W/RIBBON0000001000+00002630+00000+0001T   00002630+0000001250          1400 HL6300               2AZ
563833005563833112-116038     563833006009681820246TCS CARRIER BAG MIDI   0000001000+00000035+00000+0001T   00000035+0000001250          1400 HL6090               2AZ
563833006563833903-004960     563833008410525221842SWT GUMMY STR/BERRY 50G0000003000+00000964+00000+0001T   00000964+0000001250          1400 HL6150               2AZ
563833007563833903-000625     563833006003000659739SWT CHOC RP SLAB 60g   0000001000+00001753+00000+0001T   00001753+0000001250          1400 HL6150               2AZ
563834000563834               563834               170213CY     1400+00000+CY0000004592+0000004592+000000000+000000644+0000005236+0000000000+I40000005236+0000000000+Z
563834001563834159-000114     563834006001023507945SHOWER CAP PVC ASSTD   0000001000+00001490+00000+0001T   00001490+0000001252          1400 HL6200               2AZ
563834002563834039-000114     563834006001023524058CANDLE T/LITE RED 3.5CM0000001000+00001753+00000+0001T   00001753+0000001252          1400 HL6510               2AZ
563834003563834112-116038     563834006009681820246TCS CARRIER BAG MIDI   0000001000+00000035+00000+0001T   00000035+0000001252          1400 HL6090               2AZ
563834004563834903-000844     563834005010478432567SWT CANDY DL LUV HEARTS0000001000+00001314+00000+0001T   00001314+0000001252          1400 HL6150               2AZ
563835000563835               563835               170213CY     1400+00000+CY0000001490+0000001490+000000000+000000209+0000001690+0000000009+I20000000000+0000001690+Z
563835001563835071-000873     563835006001023758743RUB-BANDS CLR BAG-100  0000001000+00001490+00000+0001T   00001490+0000001252          1400 HL6130               2AZ
563836000563836               563836               170213CY     1400+00000+CY0000008805+0000008805+000000000+000001233+0000010038+0000000000+I40000010038+0000000000+Z
563836001563836263-000015     563836006003000656097VEHICLES LAUNCH & GO   0000001000+00004385+00000+0001T   00004385+0000001254          1400 HL6710               2AZ
563836002563836261-004007     563836006001023707512GUNS DOUBLE WILD-WEST  0000001000+00004385+00000+0001T   00004385+0000001254          1400 HL6710               2AZ
563836003563836112-116038     563836006009681820246TCS CARRIER BAG MIDI   0000001000+00000035+00000+0001T   00000035+0000001254          1400 HL6090               2AZ
563837000563837               563837               170213CY     1400+00000+CY0000008539+0000008539+000000000+000001196+0000009730+0000000005+I20000000000+0000009730+Z
563837001563837018-000136     563837006001023659026MUG OCC LOVE W/PLUSH   0000001000+00003507+00000+0001T   00003507+0000001259          1400 HL6515               2AZ
563837002563837031-000923     563837006001023669933P/FRAME BLK W/WORDS    0000001000+00003507+00000+0001T   00003507+0000001259          1400 HL6510               2AZ
563837003563837077-000299     563837006003000395576G/BAG 32x25cm LRG LOVE 0000001000+00001490+00000+0001T   00001490+0000001259          1400 HL6112               2AZ
563837004563837112-116038     563837006009681820246TCS CARRIER BAG MIDI   0000001000+00000035+00000+0001T   00000035+0000001259          1400 HL6090               2AZ
563838000563838               563838               170213CY     1400+00000+CY0000003846+0000003846+000000000+000000540+0000004386+0000000000+I40000004386+0000000000+Z
563838001563838903-000155     563838006009803374435SWT LOLLY I LUV U HEART0000001000+00000525+00000+0001T   00000525+0000001304          1400 HL6150               2AZ
563838002563838080-000124     563838006003000297733CARD & ENV VALENTINES  0000001000+00001578+00000+0001T   00001578+0000001304          1400 HL6112               2AZ
563838003563838077-000299     563838006003000395576G/BAG 32x25cm LRG LOVE 0000001000+00001490+00000+0001T   00001490+0000001304          1400 HL6112               2AZ
563838004563838006-000171-H   563838006003000609574BALLOONS 1PC RED PRINT 0000001000+00000218+00000+0001T   00000218+0000001304          1400 HL6131               2AZ
563838005563838112-116038     563838006009681820246TCS CARRIER BAG MIDI   0000001000+00000035+00000+0001T   00000035+0000001304          1400 HL6090               2AZ
563839000563839               563839               170213CY     1400+00000+CY0000001314+0000001314+000000000+000000184+0000001490+0000000008+I20000000000+0000001490+Z
563839001563839077-000407     563839006003000145096G/BAG PP 19X26X8CM     0000001000+00001314+00000+0001T   00001314+0000001305          1400 HL6112               2AZ
563840000563840               563840               170213CY     1400+00000+CY0000009768+0000009768+000000000+000001369+0000011130+0000000007+I20000000000+0000011130+Z
563840001563840007-000145     563840006009635833087BK EXERCISE 72PG A4    0000001000+00000525+00000+0001T   00000525+0000001306          1400 HL6130               2AZ
563840002563840079-000198     563840006003000542475ART+CRAFT SET 66PCE    0000001000+00008771+00000+0001T   00008771+0000001306          1400 HL6130               2AZ
563840003563840083-000049     563840004891035200024CIG-LIGHTER DISPOSABLE 0000001000+00000437+00000+0001T   00000437+0000001306          1400 HL6315               2AZ
563840004563840112-116038     563840006009681820246TCS CARRIER BAG MIDI   0000001000+00000035+00000+0001T   00000035+0000001306          1400 HL6090               2AZ
563841000563841               563841               170213CY     1400+00000+CY0000006611+0000006611+000000000+000000926+0000007530+0000000007+I20000000000+0000007530+Z
563841001563841368-000171     563841006003000233250PLUSH BEAR 14cm        0000001000+00005262+00000+0001T   00005262+0000001307          1400 HL6745               2AZ
563841002563841077-000310     563841006001023608635GIFT-BAG 18X23CM GLOSS 0000001000+00001314+00000+0001T   00001314+0000001307          1400 HL6112               2AZ
563841003563841112-116038     563841006009681820246TCS CARRIER BAG MIDI   0000001000+00000035+00000+0001T   00000035+0000001307          1400 HL6090               2AZ
563842000563842               563842               170213CY     1400+00000+CY0000003857+0000003857+000000000+000000541+0000004398+0000000000+I40000004398+0000000000+Z
563842001563842079-006500     563842006001023557186GLUE GLITTER 6/10 PCE  0000001000+00001753+00000+0001T   00001753+0000001310          1400 HL6130               2AZ
563842002563842903-000090     563842006009826020821SWT GS CHOCO COINS 60g 0000001000+00002104+00000+0001T   00002104+0000001310          1400 HL6150               2AZ
563843000563843               563843               170213CY     1400+00000+CY0000007925+0000007925+000000000+000001112+0000009030+0000000007+I20000000000+0000009030+Z
563843001563843112-116038     563843006009681820246TCS CARRIER BAG MIDI   0000001000+00000035+00000+0001T   00000035+0000001314          1400 HL6090               2AZ
563843002563843466-000515     563843006001023477408BALLS TENNIS BAG-OF-3  0000001000+00002630+00000+0001T   00002630+0000001314          1400 HL6785               2AZ
563843003563843466-000054     563843006001023831552BALLS HI-BOUNCE 3CM    0000002000+00002630+00000+0001T   00002630+0000001314          1400 HL6785               2AZ
563844000563844               563844               170213CY     1400+00000+CY0000002803+0000002803+000000000+000000394+0000003190+0000000007+I20000000000+0000003190+Z
563844001563844903-000155     563844006009803374435SWT LOLLY I LUV U HEART0000002000+00000525+00000+0001T   00000525+0000001314          1400 HL6150               2AZ
563844002563844006-000120     563844006001023346889BALLOONS 10PC MIX COL  0000001000+00001753+00000+0001T   00001753+0000001314          1400 HL6131               2AZ
563845000563845               563845               170213CY     1400+00000+CY0000001314+0000001314+000000000+000000184+0000001490+0000000008+I20000000000+0000001490+Z
563845001563845046-000012     563845006904708013062BATTERIES AA  CARD-OF-40000001000+00001314+00000+0001T   00001314+0000001317          1400 HL6312               2AZ
563846000563846               563846               170213CY     1400+00000+CY0000001437+0000001437+000000000+000000202+0000001630+0000000009+I20000000000+0000001630+Z
563846001563846304-001204     563846006001023737984FLOWER OCC. TEDDY/ROSES0000001000+00001402+00000+0001T   00001490+0006471318          1400 HL6510               2AZ
563846002563846112-116038     563846006009681820246TCS CARRIER BAG MIDI   0000001000+00000035+00000+0001T   00000035+0000001318          1400 HL6090               2AZ
563847000563847               563847               170213CY     1400+00000+CY0000015380+0000015380+000000000+000002155+0000017530+0000000005+I20000000000+0000017530+Z
563847001563847203-000006     563847006001023752789COASTER-SET 4PCE       0000001000+00007016+00000+0001T   00008771+0008191324          1400 HL6300               2AZ
563847002563847024-000118     563847006001023422316N/STICK C/PAN HEART    0000001000+00004385+00000+0001T   00004385+0000001324          1400 HL6300               2AZ
563847003563847016-006425     563847006001023998170S/JAR GLS CLIP W/RIBBON0000001000+00002630+00000+0001T   00002630+0000001324          1400 HL6300               2AZ
563847004563847903-000194     563847006009826020616SWT CHOC RP LOLLY 25G  0000001000+00001314+00000+0001T   00001314+0000001324          1400 HL6150               2AZ
563847005563847112-116038     563847006009681820246TCS CARRIER BAG MIDI   0000001000+00000035+00000+0001T   00000035+0000001324          1400 HL6090               2AZ
563848000563848               563848               170213CY     1400+00000+CY0000008769+0000008769+000000000+000001229+0000009990+0000000008+I20000000000+0000009990+Z
563848001563848033-005930     563848006001023678423PINS STRAIGHT 20g  CARD0000001000+00000876+00000+0001T   00000876+0000001328          1400 HL6200               2AZ
563848002563848496-059416     563848000078257594160POOL BABY CRYSTAL-BLUE 0000001000+00007893+00000+0001T   00007893+0000001328          1400 HL6787               2AZ
563849000563849               563849               170213CY     1400+00000+CY0000003943+0000003943+000000000+000000553+0000004490+0000000006+I20000000000+0000004490+Z
563849001563849082-026204     563849006001023816443R/GLASSES STRINGS 2PCE 0000001000+00000876+00000+0001T   00000876+0000001329          1400 HL6160               2AZ
563849002563849036-000615     563849006003000218769WASH-PEGS PL PCK-24    0000001000+00001753+00000+0001T   00001753+0000001329          1400 HL6212               2AZ
563849003563849055-009054     563849006001023471994CUP-HOOKS BRS 30mm H&H 0000001000+00001314+00000+0001T   00001314+0000001329          1400 HL6810               2AZ
563850000563850               563850               170213CY     1400+00000+CY0000016693+0000016693+000000000+000002340+0000019033+0000000000+I40000019033+0000000000+Z
563850001563850079-009702-D   563850008427973059354PAPER SIRIO A2 RED COL 0000003000+00001051+00000+0001T   00001051+0000001332          1400 HL6130               2AZ
563850002563850006-000165     563850006001023758392BALLOONS LRG BAG-OF-1000000001000+00008771+00000+0001T   00008771+0000001332          1400 HL6131               2AZ
563850003563850007-000324     56385000600968585864125 SHEETS BRIGHTS MARLI0000001000+00003507+00000+0001T   00003507+0000001332          1400 HL6130               2AZ
563850004563850903-000519     563850006001704012805SWT MS LIQ-O-GHETTI    0000001000+00001227+00000+0001T   00001227+0000001332          1400 HL6150               2AZ
563850005563850112-116038     563850006009681820246TCS CARRIER BAG MIDI   0000001000+00000035+00000+0001T   00000035+0000001332          1400 HL6090               2AZ
563851000563851               563851               170213CY     1400+00000+CY0000012310+0000012310+000000000+000001725+0000014035+0000000000+I40000014035+0000000000+Z
563851001563851112-116038     563851006009681820246TCS CARRIER BAG MIDI   0000001000+00000035+00000+0001T   00000035+0000001337          1400 HL6090               2AZ
563851002563851560-000107     563851006003000547906DOMESTIC 3PC MINI PETS 0000001000+00001753+00000+0001T   00001753+0000001337          1400 HL6745               2AZ
563851003563851079-000196     563851006003000211531P/CRAYON RETRCTBLEx10  0000001000+00004385+00000+0001T   00004385+0000001337          1400 HL6130               2AZ
563851004563851071-000308     563851006001023914811CUTTER PAPER TRIM+BLADE0000001000+00003507+00000+0001T   00003507+0000001337          1400 HL6130               2AZ
563851005563851071-003850     563851006001023893253PENCIL 5PCE RAINBOW WDN0000001000+00002630+00000+0001T   00002630+0000001337          1400 HL6130               2AZ
563852000563852               563852               170213CY     1400+00000+CY0000002630+0000002630+000000000+000000369+0000002999+0000000000+I40000002999+0000000000+Z
563852001563852200-000208     563852006003000293728BAKING ALUM FOIL 5PCE  0000001000+00002630+00000+0001T   00002630+0000001342          1400 HL6214               2AZ
563853000563853               563853               170213CY     1400+00000+CY0000003064+0000003064+000000000+000000431+0000003490+0000000005+I20000000000+0000003490+Z
563853001563853007-000209     563853006001023582102NOTE STICKY FILE MARKER0000001000+00001314+00000+0001T   00001314+0000001352          1400 HL6130               2AZ
563853002563853007-000127     563853006009685853431BOOK H/COVER MEMO 144PG0000001000+00000876+00000+0001T   00000876+0000001352          1400 HL6130               2AZ
563853003563853080-000133-A   563853006003000647019MINI VALENTINES CARD   0000001000+00000437+00000+0001T   00000437+0000001352          1400 HL6112               2AZ
563853004563853080-000133     563853006003000535613CARD&ENV MINI ASTD DSGN0000001000+00000437+00000+0001T   00000437+0000001352          1400 HL6112               2AZ
563854000563854               563854               170213CY     1400+00000+CY0000002192+0000002192+000000000+000000307+0000002490+0000000009+I20000000000+0000002490+Z
563854001563854018-000170     563854006001023775528MUG OCC. LOVE 2PC MINI 0000001000+00002192+00000+0001T   00002192+0000001357          1400 HL6515               2AZ
563855000563855               563855               170213CY     1400+00000+CY0000006174+0000006174+000000000+000000865+0000007030+0000000009+I20000000000+0000007030+Z
563855001563855368-000265     563855006001023750914PLUSH BEAR 23CM ASSTD C0000001000+00006139+00000+0001T   00006139+0000001359          1400 HL6745               2AZ
563855002563855112-116038     563855006009681820246TCS CARRIER BAG MIDI   0000001000+00000035+00000+0001T   00000035+0000001359          1400 HL6090               2AZ
563856000563856               563856               170213CY     1400+00000+CY0000001314+0000001314+000000000+000000184+0000001498+0000000000+I40000001498+0000000000+Z
563856001563856903-000194     563856006009826020616SWT CHOC RP LOLLY 25G  0000001000+00001314+00000+0001T   00001314+0000001401          1400 HL6150               2AZ
563857000563857               563857               170213CY     1400+00000+CY0000000876+0000000876+000000000+000000123+0000000990+0000000009+I20000000000+0000000990+Z
563857001563857039-000319-1   563857006003000442386B/CANDLES LRG NUMBER-1 0000001000+00000876+00000+0001T   00000876+0000001406          1400 HL6510               2AZ
563858000563858               563858               170213CY     1400+00000+CY0000007927+0000007927+000000000+000001110+0000009030+0000000007+I20000000000+0000009030+Z
563858001563858018-000130     563858006001023867537MUG OCC LOVE MINI+HEART0000001000+00003507+00000+0001T   00003507+0000001407          1400 HL6515               2AZ
563858002563858031-080508     563858006001023802415P/FRAME PL 22X11CM LOVE0000001000+00004385+00000+0001T   00004385+0000001407          1400 HL6510               2AZ
563858003563858112-116038     563858006009681820246TCS CARRIER BAG MIDI   0000001000+00000035+00000+0001T   00000035+0000001407          1400 HL6090               2AZ
563859000563859               563859               170213CY     1400+00000+CY0000005259+0000005259+000000000+000000738+0000005990+0000000007+I20000000000+0000005990+Z
563859001563859039-000114     563859006001023524058CANDLE T/LITE RED 3.5CM0000002000+00001753+00000+0001T   00001753+0000001411          1400 HL6510               2AZ
563859002563859200-000090     563859006001023802200PICNIC-PLATES SET-10   0000001000+00001753+00000+0001T   00001753+0000001411          1400 HL6214               2AZ
563860000563860               563860               170213CY     1400+00000+CY0000005260+0000005260+000000000+000000737+0000005990+0000000007+I20000000000+0000005990+Z
563860001563860077-000239     563860006003000160419GIFT-RIBBON ROLL PEARL 0000001000+00001753+00000+0001T   00001753+0000001414          1400 HL6112               2AZ
563860002563860103-000090     563860006001023795786WOVEN HEART SHAPED     0000001000+00003507+00000+0001T   00003507+0000001414          1400 HL6300               2AZ
563861000563861               563861               170213CY     1400+00000+CY0000000962+0000000962+000000000+000000136+0000001090+0000000008+I20000000000+0000001090+Z
563861001563861903-000155     563861006009803374435SWT LOLLY I LUV U HEART0000001000+00000525+00000+0001T   00000525+0000001419          1400 HL6150               2AZ
563861002563861080-000133-A   563861006003000647019MINI VALENTINES CARD   0000001000+00000437+00000+0001T   00000437+0000001419          1400 HL6112               2AZ
563862000563862               563862               170213CY     1400+00000+CY0000009679+0000009679+000000000+000001357+0000011030+0000000006+I20000000000+0000011030+Z
563862001563862077-000270     563862006003000395453GIFT-BAG PPR JMB 33X45 0000001000+00002630+00000+0001T   00002630+0000001452          1400 HL6112               2AZ
563862002563862077-000151     563862006008766114676GIFT-WRAP C/PHANE ASSTD0000001000+00000876+00000+0001T   00000876+0000001452          1400 HL6112               2AZ
563862003563862031-080508     563862006001023802415P/FRAME PL 22X11CM LOVE0000001000+00004385+00000+0001T   00004385+0000001452          1400 HL6510               2AZ
563862004563862112-116038     563862006009681820246TCS CARRIER BAG MIDI   0000001000+00000035+00000+0001T   00000035+0000001452          1400 HL6090               2AZ
563862005563862077-000239     563862006003000160419GIFT-RIBBON ROLL PEARL 0000001000+00001753+00000+0001T   00001753+0000001452          1400 HL6112               2AZ
563863000563863               563863               170213CY     1400+00000+CY0000001928+0000001928+000000000+000000270+0000002198+0000000000+I40000002198+0000000000+Z
563863001563863200-000100     563863006001023764003CUPS 25PCE DISPOSABLE  0000001000+00001928+00000+0001T   00001928+0000001453          1400 HL6214               2AZ
563864000563864               563864               170213CY     1400+00000+CY0000008805+0000008805+000000000+000001233+0000010038+0000000000+I40000010038+0000000000+Z
563864001563864047-009010     563864006001023120267DOOR-WINDOW-ALARM B/O  0000002000+00004385+00000+0001T   00004385+0000001505          1400 HL6880               2AZ
563864002563864112-116038     563864006009681820246TCS CARRIER BAG MIDI   0000001000+00000035+00000+0001T   00000035+0000001505          1400 HL6090               2AZ
563865000563865               563865               170213CY     1400+00000+CY0000013008+0000013008+000000000+000001822+0000014830+0000000000+I40000014830+0000000000+Z
563865001563865028-085274     563865006001023641571BBQ LIGHTER         H&L0000001000+00002192+00000+0001T   00002192+0000001507          1400 HL6305               2AZ
563865002563865903-000844     563865005010478432567SWT CANDY DL LUV HEARTS0000003000+00001314+00000+0001T   00001314+0000001507          1400 HL6150               2AZ
563865003563865039-000798     563865006001023617774CANDLES TEALITE BOX-50 0000001000+00006139+00000+0001T   00006139+0000001507          1400 HL6510               2AZ
563865004563865088-000103     563865006008766127102INCENSE 20PCE ASSTD    0000001000+00000700+00000+0001T   00000700+0000001507          1400 HL6212               2AZ
563865005563865112-116038     563865006009681820246TCS CARRIER BAG MIDI   0000001000+00000035+00000+0001T   00000035+0000001507          1400 HL6090               2AZ
563866000563866               563866               170213CY     1400+00000+CY0000006167+0000006167+000000000+000000865+0000007030+0000000002+I20000000000+0000007030+Z
563866001563866112-116038     563866006009681820246TCS CARRIER BAG MIDI   0000001000+00000035+00000+0001T   00000035+0000001509          1400 HL6090               2AZ
563866002563866007-000555     563866006001023848239MEMO-PAD MINI LOVE     0000005000+00000613+00000+0001T   00000613+0000001509          1400 HL6130               2AZ
563866003563866071-000305     563866006001023715340RULER/STENCILS         0000001000+00001753+00000+0001T   00001753+0000001509          1400 HL6130               2AZ
563866004563866071-003866     563866006003000590018PENCIL NOVELTY RULER   0000001000+00001314+00000+0001T   00001314+0000001509          1400 HL6130               2AZ
563867000563867               563867               170213CY     1400+00000+CY0000005262+0000005262+000000000+000000737+0000005990+0000000009+I20000000000+0000005990+Z
563867001563867016-006540     563867006003000579754S/JAR GLS COUNTER 2SIDE0000001000+00005262+00000+0001T   00005262+0000001510          1400 HL6300               2AZ
563868000563868               563868               170213CY     1400+00000+CY0000025044+0000025044+000000000+000003507+0000028551+0000000000+I40000028551+0000000000+Z
563868001563868486-002307     563868006003000443086W/CLOCK QTZ PL ANTIQUE 0000001000+00008771+00000+0001T   00008771+0000001513          1400 HL6510               2AZ
563868002563868140-092000     563868006001023819130MOSQ-NET 1250x250x65cm 0000001000+00014911+00000+0001T   00014911+0000001513          1400 HL6830               2AZ
563868003563868159-000149     563868006003000010998SOAP-DISH FOUR-LEAF    0000001000+00001314+00000+0001T   00001314+0000001513          1400 HL6200               2AZ
563868004563868112-116069     563868006009681820277TCS CARRIER BAG JUMBO  0000001000+00000048+00000+0001T   00000048+0000001513          1400 HL6090               2AZ
563869000563869               563869               170213CY     1400+00000+CY0000014904+0000014904+000000000+000002089+0000016993+0000000000+I40000016993+0000000000+Z
563869001563869077-000302     563869008010410010195GIFT-BAG 18X23CM E/D   0000001000+00000876+00000+0001T   00000876+0000001515          1400 HL6112               2AZ
563869002563869018-005009     563869006001023725608MUG W/PLUSH-BEAR LOVE  0000001000+00003507+00000+0001T   00003507+0000001515          1400 HL6515               2AZ
563869003563869301-085001     563869006003000297610ORN WATERBALL LOVE ASST0000001000+00004823+00000+0001T   00004823+0000001515          1400 HL6505               2AZ
563869004563869560-000703     563869006003000332403INSECTS 9PC ASSTD      0000001000+00001753+00000+0001T   00001753+0000001515          1400 HL6745               2AZ
563869005563869903-000503     563869006001704006118SWT VAMPIRE FANGS 60G  0000001000+00000876+00000+0001T   00000876+0000001515          1400 HL6150               2AZ
563869006563869089-060027     563869006003000245871KEY-CHAIN HEART 6X6cm  0000001000+00003069+00000+0001T   00003069+0000001515          1400 HL6205               2AZ
563870000563870               563870               170213CY     1400+00000+CY0000008806+0000008806+000000000+000001233+0000010039+0000000000+I40000010039+0000000000+Z
563870001563870001-091415     563870006003000329113W/GLS OCC. LOVE 2PC 2800000001000+00008771+00000+0001T   00009648+0006471520          1400 HL6515               2AZ
563870002563870112-116038     563870006009681820246TCS CARRIER BAG MIDI   0000001000+00000035+00000+0001T   00000035+0000001520          1400 HL6090               2AZ
563871000563871               563871               170213CY     1400+00000+CY0000005786+0000005786+000000000+000000811+0000006597+0000000000+I40000006597+0000000000+Z
563871001563871018-000127     563871006001023380289MUG OCC STRAIGHT LOVE  0000001000+00001578+00000+0001T   00001753+0006471521          1400 HL6515               2AZ
563871002563871031-000873-A   563871006003000675425P/FRAME WDN WHITE 10X150000001000+00002630+00000+0001T   00002630+0000001521          1400 HL6510               2AZ
563871003563871077-000303     563871006001023593757GIFT-BAG PAPER MED     0000001000+00001578+00000+0001T   00001578+0000001521          1400 HL6112               2AZ
563872000563872               563872               170213CY     1400+00000+CY0000018417+0000018417+000000000+000002580+0000020997+0000000000+I40000020997+0000000000+Z
563872001563872004-071272     563872006001023855343DVD-DISC WRITABLE DR-100000003000+00006139+00000+0001T   00006139+0000001522          1400 HL6310               2AZ
563873000563873               563873               170213CY     1400+00000+CY0000005262+0000005262+000000000+000000737+0000005990+0000000009+I20000000000+0000005990+Z
563873001563873362-001045     563873006001023843449MAKE-UP TEEN GIFT SET  0000001000+00005262+00000+0001T   00005262+0000001523          1400 HL6160               2AZ
563874000563874               563874               170213CY     1400+00000+CY0000001754-0000001754-000000000+000000246-0000002000-0000000000+I20000000000+0000002000-Z
563874001563874004-071272     563874006001023855343DVD-DISC WRITABLE DR-100000001000-00006139+00000+0001T   00006139+0000001525          1400 HL63101IC            2 Z
563874002563874004-071270     563874006001023802156CD-DISCS WRITABLE 10PCE0000001000+00004385+00000+0001T   00004385+0000001525          1400 HL6310               2 Z
563875000563875               563875               170213CY     1400+00000+CY0000000700+0000000700+000000000+000000098+0000000790+0000000008+I20000000000+0000000790+Z
563875001563875564-000012     563875006001023130075BUBBLE BOTTLE MAGIC    0000001000+00000700+00000+0001T   00000700+0000001526          1400 HL6131               2AZ
563876000563876               563876               170213CY     1400+00000+CY0000010523+0000010523+000000000+000001474+0000011997+0000000000+I40000011997+0000000000+Z
563876001563876079-013052     563876000795229385143CHALK S/WALK 15PCS ASST0000001000+00004385+00000+0001T   00004385+0000001528          1400 HL6130               2AZ
563876002563876079-000275     563876006003000160488PAINT-BRUSHES 6PCE PRO 0000001000+00001753+00000+0001T   00001753+0000001528          1400 HL6130               2AZ
563876003563876079-000261     563876006003000159727PAINT WATER COLOUR CAKE0000001000+00004385+00000+0001T   00004385+0000001528          1400 HL6130               2AZ
563877000563877               563877               170213CY     1400+00000+CY0000006139+0000006139+000000000+000000860+0000006990+0000000009+I20000000000+0000006990+Z
563877001563877105-007510     563877006003000487424STORAGE BOX CLEAR 3.75L0000001000+00006139+00000+0001T   00006139+0000001529          1400 HL6210               2AZ
563878000563878               563878               170213CY     1400+00000+CY0000004384+0000004384+000000000+000000614+0000004990+0000000008+I20000000000+0000004990+Z
563878001563878077-000924     563878006003000414055G/WRAP 700mmx2m WEDDING0000002000+00002192+00000+0001T   00002192+0000001536          1400 HL6112               2AZ
563879000563879               563879               170213CY     1400+00000+CY0000009152+0000009152+000000000+000001283+0000010430+0000000005+I20000000000+0000010430+Z
563879001563879079-000201     563879006003000161430P/CRAYONS THERAPY 10PCE0000001000+00002630+00000+0001T   00002630+0000001542          1400 HL6130               2AZ
563879002563879079-000206     563879006003000639700PENCIL CRAYONS THERAPY 0000001000+00001753+00000+0001T   00001753+0000001542          1400 HL6130               2AZ
563879003563879567-011343     563879006003000630592BK COLOURING THERAPY   0000001000+00003507+00000+0001T   00003507+0000001542          1400 HL6757               2AZ
563879004563879112-116038     563879006009681820246TCS CARRIER BAG MIDI   0000001000+00000035+00000+0001T   00000035+0000001542          1400 HL6090               2AZ
563879005563879071-001004     563879006001023439154PENCIL-SHARPENER       0000001000+00001227+00000+0001T   00001227+0000001542          1400 HL6130               2AZ
563880000563880               563880               170213CY     1400+00000+CY0000004385+0000004385+000000000+000000614+0000004990+0000000009+I20000000000+0000004990+Z
563880001563880560-000109     563880006003000547784DINO'S PAINT GLOWING   0000001000+00004385+00000+0001T   00004385+0000001547          1400 HL6745               2AZ
563881000563881               563881               170213CY     1400+00000+CY0000017542+0000017542+000000000+000002456+0000019998+0000000000+I40000019998+0000000000+Z
563881001563881403-000032     563881006003000514731J/HOLDER HEART-SHAPE   0000001000+00017542+00000+0001T   00017542+0000001550          1400 HL6510               2AZ
563882000563882               563882               170213CY     1400+00000+CY0000003505+0000003505+000000000+000000492+0000003997+0000000000+I40000003997+0000000000+Z
563882001563882033-010720     563882006001023678645SAFETY-PINS 50PCE SMALL0000002000+00000876+00000+0001T   00000876+0000001552          1400 HL6200               2AZ
563882002563882200-003024     563882006001023657299REFUSE BAGS 20PCE BLACK0000001000+00001753+00000+0001T   00001753+0000001552          1400 HL6214               2AZ
563883000563883               563883               170213CY     1400+00000+CY0000002192+0000002192+000000000+000000307+0000002490+0000000009+I20000000000+0000002490+Z
563883001563883080-000127     563883006003000424351VALENTINES DAY 36x24CM 0000001000+00002192+00000+0001T   00002192+0000001553          1400 HL6112               2AZ
563884000563884               563884               170213CY     1400+00000+CY0000000035+0000000035+000000000+000000005+0000000040+0000000000+I20000000000+0000000040+Z
563884001563884112-116038     563884006009681820246TCS CARRIER BAG MIDI   0000001000+00000035+00000+0001T   00000035+0000001553          1400 HL6090               2AZ
563885000563885               563885               170213CY     1400+00000+CY0000003331+0000003331+000000000+000000467+0000003790+0000000008+I20000000000+0000003790+Z
563885001563885024-000214     563885006001023587855COOKIE-CUTTERS PL 6PC  0000001000+00001753+00000+0001T   00001753+0000001558          1400 HL6300               2AZ
563885002563885080-000124     563885006003000297733CARD & ENV VALENTINES  0000001000+00001578+00000+0001T   00001578+0000001558          1400 HL6112               2AZ
563886000563886               563886               170213CY     1400+00000+CY0000002192+0000002192+000000000+000000307+0000002499+0000000000+I40000002499+0000000000+Z
563886001563886566-000031     563886006003000283910STICKER BK TEACHER STIC0000001000+00002192+00000+0001T   00002192+0000001603          1400 HL6130               2AZ
563887000563887               563887               170213CY     1400+00000+CY0000003492+0000003492+000000000+000000490+0000003980+0000000002+I20000000000+0000003980+Z
563887001563887018-000177     563887006001023797513MUG MINI LOVE ASSTD    0000003000+00000700+00000+0001T   00000700+0000001606          1400 HL6515               2AZ
563887002563887903-004960     563887008410525221842SWT GUMMY STR/BERRY 50G0000001000+00000964+00000+0001T   00000964+0000001606          1400 HL6150               2AZ
563887003563887903-000183     563887006003000451043SWT LB HEART LOLLY     0000001000+00000393+00000+0001T   00000393+0000001606          1400 HL6150               2AZ
563887004563887112-116038     563887006009681820246TCS CARRIER BAG MIDI   0000001000+00000035+00000+0001T   00000035+0000001606          1400 HL6090               2AZ
563888000563888               563888               170213CY     1400+00000+CY0000003067+0000003067+000000000+000000431+0000003498+0000000000+I40000003498+0000000000+Z
563888001563888077-000270     563888006003000395453GIFT-BAG PPR JMB 33X45 0000001000+00002630+00000+0001T   00002630+0000001608          1400 HL6112               2AZ
563888002563888080-000133-A   563888006003000647019MINI VALENTINES CARD   0000001000+00000437+00000+0001T   00000437+0000001608          1400 HL6112               2AZ
563889000563889               563889               170213CY     1400+00000+CY0000008944+0000008944+000000000+000001254+0000010190+0000000008+I20000000000+0000010190+Z
563889001563889035-000023     563889006001023898944UMBRELLA WITH PL COVER 0000001000+00007893+00000+0001T   00007893+0000001609          1400 HL6205               2AZ
563889002563889903-002852     563889000000087108040MENTOS ROLL SPEARMINT  0000001000+00001051+00000+0001T   00001051+0000001609          1400 HL6150               2AZ
563890000563890               563890               170213CY     1400+00000+CY0000012310+0000012310+000000000+000001725+0000014035+0000000000+I40000014035+0000000000+Z
563890001563890112-116038     563890006009681820246TCS CARRIER BAG MIDI   0000001000+00000035+00000+0001T   00000035+0000001613          1400 HL6090               2AZ
563890002563890072-000327     563890006001023858504CAT-COLLAR+BELL        0000001000+00001753+00000+0001T   00001753+0000001613          1400 HL6870               2AZ
563890003563890261-000912     563890006001023707437GUN PL SET OF 2+6 DARTS0000001000+00004385+00000+0001T   00004385+0000001613          1400 HL6710               2AZ
563890004563890266-005280     563890006003000656691BOYS PLAYSET SOLDIERS  0000001000+00003507+00000+0001T   00003507+0000001613          1400 HL6710               2AZ
563890005563890262-000625     563890006003000119585CAR MDC JEEP & TRAILER 0000001000+00002630+00000+0001T   00002630+0000001613          1400 HL6710               2AZ
563891000563891               563891               170213CY     1400+00000+CY0000003507+0000003507+000000000+000000491+0000003990+0000000008+I20000000000+0000003990+Z
563891001563891031-086224     563891006001023900623P/FRAME WDN GRAIN 13X180000001000+00003507+00000+0001T   00003507+0000001613          1400 HL6510               2AZ
563892000563892               563892               170213CY     1400+00000+CY0000023438+0000023438+000000000+000003289+0000026727+0000000000+I40000026727+0000000000+Z
563892001563892368-000265     563892006001023750914PLUSH BEAR 23CM ASSTD C0000001000+00006139+00000+0001T   00006139+0000001616          1400 HL6745               2AZ
563892002563892006-000803     563892006003000653676STREAMERS SET 3ROLLS   0000002000+00002630+00000+0001T   00002630+0000001616          1400 HL6131               2AZ
563892003563892006-000805     563892000013994092418STREAMERS 10-ROLLS     0000002000+00001490+00000+0001T   00001490+0000001616          1400 HL6131               2AZ
563892004563892077-000303     563892006001023593757GIFT-BAG PAPER MED     0000001000+00001578+00000+0001T   00001578+0000001616          1400 HL6112               2AZ
563892005563892077-000011-C   563892006001023808523TISSUE 10xSHTS RED     0000001000+00000876+00000+0001T   00000876+0000001616          1400 HL6112               2AZ
563892006563892080-000133-A   563892006003000647019MINI VALENTINES CARD   0000003000+00000437+00000+0001T   00000437+0000001616          1400 HL6112               2AZ
563892007563892006-000120     563892006001023346889BALLOONS 10PC MIX COL  0000003000+00001753+00000+0001T   00001753+0000001616          1400 HL6131               2AZ
563892008563892112-116038     563892006009681820246TCS CARRIER BAG MIDI   0000001000+00000035+00000+0001T   00000035+0000001616          1400 HL6090               2AZ
563893000563893               563893               170213CY     1400+00000+CY0000002630+0000002630+000000000+000000369+0000002990+0000000009+I20000000000+0000002990+Z
563893001563893105-006004     563893006002580007763CANNISTER 3PCE    250ml0000001000+00002630+00000+0001T   00002630+0000001618          1400 HL6210               2AZ
563894000563894               563894               170213CY     1400+00000+CY0000003067+0000003067+000000000+000000430+0000003490+0000000007+I20000000000+0000003490+Z
563894001563894077-000239     563894006003000160419GIFT-RIBBON ROLL PEARL 0000001000+00001753+00000+0001T   00001753+0000001621          1400 HL6112               2AZ
563894002563894903-000194     563894006009826020616SWT CHOC RP LOLLY 25G  0000001000+00001314+00000+0001T   00001314+0000001621          1400 HL6150               2AZ
563895000563895               563895               170213CY     1400+00000+CY0000005294+0000005294+000000000+000000743+0000006037+0000000000+I40000006037+0000000000+Z
563895001563895112-116038     563895006009681820246TCS CARRIER BAG MIDI   0000001000+00000035+00000+0001T   00000035+0000001623          1400 HL6090               2AZ
563895002563895079-013099     563895006003000081875ART+CRAFT EYES ASSTD   0000003000+00001753+00000+0001T   00001753+0000001623          1400 HL6130               2AZ
563896000563896               563896               170213CY     1400+00000+CY0000003542+0000003542+000000000+000000496+0000004030+0000000008+I20000000000+0000004030+Z
563896001563896018-000136     563896006001023659026MUG OCC LOVE W/PLUSH   0000001000+00003507+00000+0001T   00003507+0000001623          1400 HL6515               2AZ
563896002563896112-116038     563896006009681820246TCS CARRIER BAG MIDI   0000001000+00000035+00000+0001T   00000035+0000001623          1400 HL6090               2AZ
563897000563897               563897               170213CY     1400+00000+CY0000022829+0000022829+000000000+000003201+0000026030+0000000000+I20000000000+0000026030+Z
563897001563897077-000382     563897006003000247820GIFT-BAG MED 18X23CM   0000008000+00001753+00000+0001T   00001753+0000001626          1400 HL6112               2AZ
563897002563897016-006497     563897006003000120055S/JAR-SET 4PCE MINI    0000002000+00004385+00000+0001T   00004385+0000001626          1400 HL6300               2AZ
563897003563897112-116038     563897006009681820246TCS CARRIER BAG MIDI   0000001000+00000035+00000+0001T   00000035+0000001626          1400 HL6090               2AZ
563898000563898               563898               170213CY     1400+00000+CY0000004119+0000004119+000000000+000000578+0000004690+0000000007+I20000000000+0000004690+Z
563898001563898077-000321     563898006001023677501GIFT-BAG 11X14CM E/D FL0000001000+00000613+00000+0001T   00000613+0000001627          1400 HL6112               2AZ
563898002563898038-001804     563898006001023766618DOILIES 27cm RND PKT-100000002000+00001753+00000+0001T   00001753+0000001627          1400 HL6300               2AZ
563899000563899               563899               170213CY     1400+00000+CY0000016259+0000016259+000000000+000002277+0000018530+0000000006+I20000000000+0000018530+Z
563899001563899046-000012     563899006904708013062BATTERIES AA  CARD-OF-40000001000+00001314+00000+0001T   00001314+0000001628          1400 HL6312               2AZ
563899002563899065-006041     563899006001023712974TAMBOURINE 15cm P/BAND 0000001000+00001753+00000+0001T   00001753+0000001628          1400 HL6745               2AZ
563899003563899065-003635     563899006001023834782GUITAR STRING FLAME    0000001000+00013157+00000+0001T   00013157+0000001628          1400 HL6745               2AZ
563899004563899112-116038     563899006009681820246TCS CARRIER BAG MIDI   0000001000+00000035+00000+0001T   00000035+0000001628          1400 HL6090               2AZ
563900000563900               563900               170213CY     1400+00000+CY0000003542+0000003542+000000000+000000496+0000004030+0000000008+I20000000000+0000004030+Z
563900001563900018-000136     563900006001023659026MUG OCC LOVE W/PLUSH   0000001000+00003507+00000+0001T   00003507+0000001630          1400 HL6515               2AZ
563900002563900112-116038     563900006009681820246TCS CARRIER BAG MIDI   0000001000+00000035+00000+0001T   00000035+0000001630          1400 HL6090               2AZ
563901000563901               563901               170213CY     1400+00000+CY0000001490+0000001490+000000000+000000209+0000001690+0000000009+I20000000000+0000001690+Z
563901001563901077-000299     563901006003000395576G/BAG 32x25cm LRG LOVE 0000001000+00001490+00000+0001T   00001490+0000001631          1400 HL6112               2AZ
563902000563902               563902               170213CY     1400+00000+CY0000007013+0000007013+000000000+000000984+0000007990+0000000007+I20000000000+0000007990+Z
563902001563902019-071594     563902006003000505579PEBBLES GLS 250g RED   0000002000+00002630+00000+0001T   00002630+0000001631          1400 HL6510               2AZ
563902002563902078-000030     563902006003000151141YAMAYO SUPERGLUE 8g    0000001000+00001753+00000+0001T   00001753+0000001631          1400 HL6810               2AZ
563903000563903               563903               170213CY     1400+00000+CY0000001314+0000001314+000000000+000000184+0000001490+0000000008+I20000000000+0000001490+Z
563903001563903903-000194     563903006009826020616SWT CHOC RP LOLLY 25G  0000001000+00001314+00000+0001T   00001314+0000001634          1400 HL6150               2AZ
563904000563904               563904               170213CY     1400+00000+CY0000014379+0000014379+000000000+000002014+0000016393+0000000000+I40000016393+0000000000+Z
563904001563904004-071198     563904006003000528165USB MULTISLOT CARD     0000001000+00003507+00000+0001T   00003507+0000001647          1400 HL6310               2AZ
563904002563904174-008028     563904006009654960825TRAVEL JARS 4-PACK     0000002000+00001928+00000+0001T   00001928+0000001647          1400 HL6205               2AZ
563904003563904050-000410-Z   563904006001023848581PADLOCK L/SHKL BRS 38mm0000001000+00007016+00000+0001T   00007016+0000001647          1400 HL6855               2AZ
563905000563905               563905               170213CY     1400+00000+CY0000004120+0000004120+000000000+000000578+0000004690+0000000008+I20000000000+0000004690+Z
563905001563905361-000114     563905006001023744074DOLL SML 15cm BENDABLE 0000001000+00001753+00000+0001T   00001753+0000001648          1400 HL6725               2AZ
563905002563905079-011107     563905006001023537317ART+CRAFT SET          0000001000+00002367+00000+0001T   00002367+0000001648          1400 HL6130               2AZ
563906000563906               563906               170213CY     1400+00000+CY0000002892+0000002892+000000000+000000405+0000003297+0000000000+I40000003297+0000000000+Z
563906001563906903-000194     563906006009826020616SWT CHOC RP LOLLY 25G  0000001000+00001314+00000+0001T   00001314+0000001650          1400 HL6150               2AZ
563906002563906080-000124     563906006003000297733CARD & ENV VALENTINES  0000001000+00001578+00000+0001T   00001578+0000001650          1400 HL6112               2AZ
563907000563907               563907               170213CY     1400+00000+CY0000011401+0000011401+000000000+000001597+0000012990+0000000008+I20000000000+0000012990+Z
563907001563907001-091415     563907006003000329113W/GLS OCC. LOVE 2PC 2800000001000+00008771+00000+0001T   00009648+0006471651          1400 HL6515               2AZ
563907002563907077-000270     563907006003000395453GIFT-BAG PPR JMB 33X45 0000001000+00002630+00000+0001T   00002630+0000001651          1400 HL6112               2AZ
563908000563908               563908               170213CY     1400+00000+CY0000005260+0000005260+000000000+000000738+0000005990+0000000008+I20000000000+0000005990+Z
563908001563908463-000366     563908006001023789136SWIM W/NOODLE 150cm    0000002000+00002630+00000+0001T   00002630+0000001651          1400 HL6785               2AZ
563909000563909               563909               170213CY     1400+00000+CY0000008771-0000008771-000000000+000001228-0000010000-0000000001+I20000000000+0000010000-Z
563909001563909496-057114     563909000078257571147POOL BABY M/ROOM W/SHAD0000001000-00017542+00000+0001T   00017542+0000001657          1400 HL67871IC            2 Z
563909002563909496-059421     563909000078257594214POOL 122cm STARFISH    0000001000+00008771+00000+0001T   00008771+0000001657          1400 HL6787               2 Z
563910000563910               563910               170213CY     1400+00000+CY0000006925+0000006925+000000000+000000970+0000007890+0000000005+I20000000000+0000007890+Z
563910001563910174-008032     563910006009654960603TRAVEL BOTTLES 50ml    0000001000+00001928+00000+0001T   00001928+0000001701          1400 HL6205               2AZ
563910002563910174-008024     563910006009654960368TRAVEL BOTTLES 2-PACK  0000001000+00001928+00000+0001T   00001928+0000001701          1400 HL6205               2AZ
563910003563910174-008026     563910006009654960429TRAVEL BOTTLES 2-PACK  0000001000+00003069+00000+0001T   00003069+0000001701          1400 HL6205               2AZ
563911000563911               563911               170213CY     1400+00000+CY0000003156+0000003156+000000000+000000442+0000003590+0000000008+I20000000000+0000003590+Z
563911001563911200-000025-A   563911006925406841054BAG ZIPPERSEAL 15PC    0000001000+00002192+00000+0001T   00002192+0000001701          1400 HL6214               2AZ
563911002563911903-004963     563911008410525221873SWT GUMMY SOUR COLA 50g0000001000+00000964+00000+0001T   00000964+0000001701          1400 HL6150               2AZ
563912000563912               563912               170213CY     1400+00000+CY0000007890+0000007890+000000000+000001107+0000008997+0000000000+I40000008997+0000000000+Z
563912001563912077-000270     563912006003000395453GIFT-BAG PPR JMB 33X45 0000003000+00002630+00000+0001T   00002630+0000001703          1400 HL6112               2AZ
563913000563913               563913               170213CY     1400+00000+CY0000003676+0000003676+000000000+000000518+0000004190+0000000004+I20000000000+0000004190+Z
563913001563913079-009702-B   563913008427973059491PAPER SIRIO A2 WHITE   0000001000+00001051+00000+0001T   00001051+0000001704          1400 HL6130               2AZ
563913002563913071-001015     563913006001023910387MARKERS PERMANENT 3PK  0000001000+00001753+00000+0001T   00001753+0000001704          1400 HL6130               2AZ
563913003563913903-000670     563913006009803358008SWT SHERBET RED LIPS   0000004000+00000218+00000+0001T   00000218+0000001704          1400 HL6150               2AZ
563914000563914               563914               170213CY     1400+00000+CY0000008276+0000008276+000000000+000001159+0000009430+0000000005+I20000000000+0000009430+Z
563914001563914018-000136     563914006001023659026MUG OCC LOVE W/PLUSH   0000002000+00003507+00000+0001T   00003507+0000001706          1400 HL6515               2AZ
563914002563914077-000322     563914006001023677532GIFT-BAG 18X23CM E/D FL0000001000+00001227+00000+0001T   00001227+0000001706          1400 HL6112               2AZ
563914003563914112-116038     563914006009681820246TCS CARRIER BAG MIDI   0000001000+00000035+00000+0001T   00000035+0000001706          1400 HL6090               2AZ
563915000563915               563915               170213CY     1400+00000+CY0000008771+0000008771+000000000+000001228+0000009990+0000000009+I20000000000+0000009990+Z
563915001563915002-000721     563915006003000442119C/BOARD PL 43x27x0.6cm 0000001000+00008771+00000+0001T   00008771+0000001706          1400 HL6300               2AZ
563916000563916               563916               170213CY     1400+00000+CY0000002192+0000002192+000000000+000000307+0000002490+0000000009+I20000000000+0000002490+Z
563916001563916080-000127     563916006003000424351VALENTINES DAY 36x24CM 0000001000+00002192+00000+0001T   00002192+0000001708          1400 HL6112               2AZ
563917000563917               563917               170213CY     1400+00000+CY0000002103+0000002103+000000000+000000295+0000002390+0000000008+I20000000000+0000002390+Z
563917001563917077-000299     563917006003000395576G/BAG 32x25cm LRG LOVE 0000001000+00001490+00000+0001T   00001490+0000001709          1400 HL6112               2AZ
563917002563917306-000021     563917006001023169433EARBUDS 100PCE IN BAG  0000001000+00000613+00000+0001T   00000613+0000001709          1400 HL6200               2AZ
563918000563918               563918               170213CY     1400+00000+CY0000000876+0000000876+000000000+000000123+0000000990+0000000009+I20000000000+0000000990+Z
563918001563918082-026204     563918006001023816443R/GLASSES STRINGS 2PCE 0000001000+00000876+00000+0001T   00000876+0000001709          1400 HL6160               2AZ
563919000563919               563919               170213CY     1400+00000+CY0000009559+0000009559+000000000+000001339+0000010898+0000000000+I40000010898+0000000000+Z
563919001563919368-000012     563919006003000610464PLUSH BEAR 30cm SITTING0000001000+00008771+00000+0001T   00008771+0000001711          1400 HL6745               2AZ
563919002563919077-000010-Z   563919006001023157874CREPE-PAPER BLK/ORG/PUR0000001000+00000788+00000+0001T   00000788+0000001711          1400 HL6112               2AZ
563920000563920               563920               170213CY     1400+00000+CY0000006171+0000006171+000000000+000000866+0000007030+0000000007+I20000000000+0000007030+Z
563920001563920077-000382     563920006003000247820GIFT-BAG MED 18X23CM   0000001000+00001753+00000+0001T   00001753+0000001713          1400 HL6112               2AZ
563920002563920080-000133     563920006003000535613CARD&ENV MINI ASTD DSGN0000001000+00000437+00000+0001T   00000437+0000001713          1400 HL6112               2AZ
563920003563920006-000851     563920006007151000273PARTY LUCKY-PACKET BOY 0000001000+00003946+00000+0001T   00003946+0000001713          1400 HL6131               2AZ
563920004563920112-116038     563920006009681820246TCS CARRIER BAG MIDI   0000001000+00000035+00000+0001T   00000035+0000001713          1400 HL6090               2AZ
563921000563921               563921               170213CY     1400+00000+CY0000005295+0000005295+000000000+000000742+0000006030+0000000007+I20000000000+0000006030+Z
563921001563921018-005009     563921006001023725608MUG W/PLUSH-BEAR LOVE  0000001000+00003507+00000+0001T   00003507+0000001717          1400 HL6515               2AZ
563921002563921080-000113     563921006003000237449CARD&ENVLPE - LOVE     0000001000+00001753+00000+0001T   00001753+0000001717          1400 HL6112               2AZ
563921003563921112-116038     563921006009681820246TCS CARRIER BAG MIDI   0000001000+00000035+00000+0001T   00000035+0000001717          1400 HL6090               2AZ
563922000563922               563922               170213CY     1400+00000+CY0000003542+0000003542+000000000+000000496+0000004030+0000000008+I20000000000+0000004030+Z
563922001563922018-000130     563922006001023867537MUG OCC LOVE MINI+HEART0000001000+00003507+00000+0001T   00003507+0000001719          1400 HL6515               2AZ
563922002563922112-116038     563922006009681820246TCS CARRIER BAG MIDI   0000001000+00000035+00000+0001T   00000035+0000001719          1400 HL6090               2AZ
563923000563923               563923               170213CY     1400+00000+CY0000004382+0000004382+000000000+000000614+0000004990+0000000006+I20000000000+0000004990+Z
563923001563923903-000194     563923006009826020616SWT CHOC RP LOLLY 25G  0000001000+00001314+00000+0001T   00001314+0000001720          1400 HL6150               2AZ
563923002563923080-000124     563923006003000297733CARD & ENV VALENTINES  0000001000+00001578+00000+0001T   00001578+0000001720          1400 HL6112               2AZ
563923003563923039-000108     563923006001023524034TEA-LITE CANDLES 8PCE  0000001000+00001490+00000+0001T   00001490+0000001720          1400 HL6510               2AZ
563924000563924               563924               170213CY     1400+00000+CY0000002630+0000002630+000000000+000000369+0000002990+0000000009+I20000000000+0000002990+Z
563924001563924024-000149     563924006003000407552N/STICK G/BREAD MAN    0000001000+00002630+00000+0001T   00003507+0008121721          1400 HL6300               2AZ
563925000563925               563925               170213CY     1400+00000+CY0000001578+0000001578+000000000+000000221+0000001790+0000000009+I20000000000+0000001790+Z
563925001563925077-000348     563925006001023483287GIFT-BOWS 4,5cm 8PCE   0000001000+00001578+00000+0001T   00001578+0000001721          1400 HL6112               2AZ
563926000563926               563926               170213CY     1400+00000+CY0000006518+0000006518+000000000+000000914+0000007430+0000000002+I20000000000+0000007430+Z
563926001563926018-000170     563926006001023775528MUG OCC. LOVE 2PC MINI 0000001000+00002192+00000+0001T   00002192+0000001728          1400 HL6515               2AZ
563926002563926077-000321     563926006001023677501GIFT-BAG 11X14CM E/D FL0000002000+00000613+00000+0001T   00000613+0000001728          1400 HL6112               2AZ
563926003563926903-000194     563926006009826020616SWT CHOC RP LOLLY 25G  0000002000+00001314+00000+0001T   00001314+0000001728          1400 HL6150               2AZ
563926004563926080-000133-A   563926006003000647019MINI VALENTINES CARD   0000001000+00000437+00000+0001T   00000437+0000001728          1400 HL6112               2AZ
563926005563926112-116038     563926006009681820246TCS CARRIER BAG MIDI   0000001000+00000035+00000+0001T   00000035+0000001728          1400 HL6090               2AZ
563927000563927               563927               170213CY     1400+00000+CY0000010694+0000010694+000000000+000001499+0000012193+0000000000+I40000012193+0000000000+Z
563927001563927200-000225     563927006008766126952BAKEPANS 5PCE          0000001000+00002630+00000+0001T   00002630+0000001739          1400 HL6214               2AZ
563927002563927077-000381     563927006003000247707GIFT-BAG 25X32CM S/COL 0000001000+00001753+00000+0001T   00001753+0000001739          1400 HL6112               2AZ
563927003563927200-000010     563927006925406841061BAG ZIPPERSEAL 35PC    0000001000+00002192+00000+0001T   00002192+0000001739          1400 HL6214               2AZ
563927004563927071-081091     563927006001151010287STAED/GENKEM ALL-STICK 0000001000+00001227+00000+0001T   00001227+0000001739          1400 HL6130               2AZ
563927005563927566-000068     563927006003000418046POP UP LOVE 2 ASSTD    0000001000+00002192+00000+0001T   00002192+0000001739          1400 HL6130               2AZ
563927006563927007-000104     563927006009685854865BK COVER BRWN KRFT ROLL0000002000+00000350+00000+0001T   00000350+0000001739          1400 HL6130               2AZ
563928000563928               563928               170213CY     1400+00000+CY0000004908+0000004908+000000000+000000688+0000005590+0000000006+I20000000000+0000005590+Z
563928001563928251-000041     563928006001023515889SEAL-TAPE BUFF 48mmx50m0000004000+00001227+00000+0001T   00001227+0000001740          1400 HL6810               2AZ
563929000563929               563929               170213CY     1400+00000+CY0000000788+0000000788+000000000+000000111+0000000890+0000000009+I20000000000+0000000890+Z
563929001563929033-005917     563929006001023678201SEAM-RIP+THIMBLE-SET   0000001000+00000788+00000+0001T   00000788+0000001741          1400 HL6200               2AZ
563930000563930               563930               170213CY     1400+00000+CY0000003507+0000003507+000000000+000000491+0000003990+0000000008+I20000000000+0000003990+Z
563930001563930018-000136     563930006001023659026MUG OCC LOVE W/PLUSH   0000001000+00003507+00000+0001T   00003507+0000001741          1400 HL6515               2AZ
563931000563931               563931               170213CY     1400+00000+CY0000014943+0000014943+000000000+000002094+0000017037+0000000000+I40000017037+0000000000+Z
563931001563931039-000624     563931006003000054923C/SET 4PC PILLARS 5X8CM0000001000+00007016+00000+0001T   00007016+0000001746          1400 HL6510               2AZ
563931002563931018-055000     563931006003000441457COFFEE PLUNGER PL 600ML0000001000+00006139+00000+0001T   00006139+0000001746          1400 HL6515               2AZ
563931003563931037-000004     563931006001023763679ASHTRAY PL TUB 8X11CM  0000001000+00001753+00000+0001T   00002192+0008191746          1400 HL6515               2AZ
563931004563931112-116038     563931006009681820246TCS CARRIER BAG MIDI   0000001000+00000035+00000+0001T   00000035+0000001746          1400 HL6090               2AZ
A17021300                                          12114179CYSLAVE 2                       HL61IC
B56383300                                          170213CY079-013032-H   12481799SLAVE 2     HL61IC0000002000+0000001000+0000000000000+
C56381600                                          170213CY033-005931     11324912SLAVE 2     HL61IC0000000000+0000000000+0050000001000+
C56390400                                          170213CY077-000011     16430745SLAVE 2     HL61IC0000000000+0000000000+0010000001000+
C56390401                                          170213CY362-101402     16431541SLAVE 2     HL61IC0000000000+0000000000+0020000001000+
C56390402                                          170213CY006-000118     16432514SLAVE 2     HL61IC0000000000+0000000000+0030000001000+
M17021301                              IT          CYLAST TILL SLIP NO:563931                                                                        KIND REGARDS                                    CY
M17021302                              SHIEHAAM    CYZ/READING:R11154.06                             C/BANKING:R5462.10                              CR/CARDS :R5691.96                              CASHIER  :DANIELL                                                                               KIND REGARDS                                    CY
M17021391                              CASH        CYSLAVE 2                       Z-REPORT No.   651TOTAL (Sales - Refunds)          11154.06       CASH TO BE BANKED                 5462.10       DEBIT CARDS                          0.00       CREDIT CARDS                      5691.96       Z-READING                        11154.06       AIRTIME DEBIT CARD SALES             0.00       AIRTIME CARD SALES                   0.00       OVERS/UNDERS                         0.00       AIRTIME CASH SALES                   0.00       GIFT CARDS                           0.00       GIFT CARD CASH SALES                 0.00       T O T A L  CASH PAYOUTS              0.00                                                                                                                                                                                                                                                                                                                                                      Z
M17021392                              CASH        CYABSENT                                                                                                                                                                                          ANNUAL LEAVE                                                                                                                                                                                    DAY OFF                                                                                                                                                                                         COMMENTS                                                                                                                                                                                                                                                                                                                                                                                       Z
Y17021300                                          CY00000001002543+000143
ZCY17021408553 SLAVE 2      SALES DATA                     NEXT INVOICE NO.  563932 0651
F077418263-000510         1510221258260000001ICSLAVE 2
F094137463-000501         1701261022110000061ICSLAVE 2
X CY Slave 2 First invoice 563789 170213 Last invoice 563931 170213 Next invoice 563932 Total number of records 000000539 clbackup completed 08:55:30
