105227000105227               105227               170213DA     1400+00000+DA0000001490+0000001490+000000000+000000209+0000001690+0000000009+I20000000000+0000001690+Z
105227001105227079-000807     105227006003000670277ART+CRAFT WOODEN STICKS0000001000+00001490+00000+0001T   00001490+0000000958          1400 NH7130               1AZ
105228000105228               105228               170213DA     1400+00000+DA0000000788+0000000788+000000000+000000111+0000000890+0000000009+I20000000000+0000000890+Z
105228001105228071-081101-A   105228006003000326549GLUE-STICK 25g BLISTER 0000001000+00000788+00000+0001T   00000788+0000001043          1400 NH7130               1AZ
105229000105229               105229               170213DA     1400+00000+DA0000024558+0000024558+000000000+000003440+0000027990+0000000008+I20000000000+0000027990+Z
105229001105229031-001007     105229006003000406784P/FRAME WDN CLG 20X95CM0000002000+00012279+00000+0001T   00012279+0000001046          1400 NH7510               1AZ
105230000105230               105230               170213DA     1400+00000+DA0000008804+0000008804+000000000+000001233+0000010030+0000000007+I20000000000+0000010030+Z
105230001105230301-000824     105230006001023816108ORN FAIRY 10x7cm       0000001000+00005262+00000+0001T   00005262+0000001050          1400 NH7505               1AZ
105230002105230301-000705     105230006003000378777ORN ANIMAL UNICORN 9CM 0000001000+00003507+00000+0001T   00003507+0000001050          1400 NH7505               1AZ
105230003105230112-116038     105230006009681820246TCS CARRIER BAG MIDI   0000001000+00000035+00000+0001T   00000035+0000001050          1400 NH7090               1AZ
105231000105231               105231               170213DA     1400+00000+DA0000001753+0000001753+000000000+000000246+0000001990+0000000009+I20000000000+0000001990+Z
105231001105231264-000921     105231000090159150442MAISTO CAR 3" FRESH    0000001000+00001753+00000+0001T   00001753+0000001055          1400 NH7710               1AZ
105232000105232               105232               170213DA     1400+00000+DA0000014032+0000014032+000000000+000001966+0000015990+0000000008+I20000000000+0000015990+Z
105232001105232368-000637     105232006001023874092PLUSH BEAR SLEEPING LOV0000001000+00011402+00000+0001T   00012279+0006471059          1400 NH7745               1AZ
105232002105232077-000270     105232006003000395453GIFT-BAG PPR JMB 33X45 0000001000+00002630+00000+0001T   00002630+0000001059          1400 NH7112               1AZ
105233000105233               105233               170213DA     1400+00000+DA0000002630+0000002630+000000000+000000369+0000002990+0000000009+I20000000000+0000002990+Z
105233001105233079-013105     105233006001023863997ART+CRAFT DIY HAND PUPP0000001000+00002630+00000+0001T   00002630+0000001101          1400 NH7130               1AZ
105234000105234               105234               170213DA     1400+00000+DA0000002630+0000002630+000000000+000000369+0000002990+0000000009+I20000000000+0000002990+Z
105234001105234159-000040     105234006001023767691HOOK-HANGER 4PC S/S    0000001000+00002630+00000+0001T   00002630+0000001238          1400 NH7200               1AZ
105235000105235               105235               170213DA     1400+00000+DA0000000437+0000000437+000000000+000000062+0000000490+0000000009+I20000000000+0000000490+Z
105235001105235083-000049     105235004891035200024CIG-LIGHTER DISPOSABLE 0000001000+00000437+00000+0001T   00000437+0000001252          1400 NH7315               1AZ
105236000105236               105236               170213DA     1400+00000+DA0000003069+0000003069+000000000+000000430+0000003490+0000000009+I20000000000+0000003490+Z
105236001105236089-060027     105236006003000245871KEY-CHAIN HEART 6X6cm  0000001000+00003069+00000+0001T   00003069+0000001320          1400 NH7205               1AZ
105237000105237               105237               170213DA     1400+00000+DA0000002630+0000002630+000000000+000000369+0000002990+0000000009+I20000000000+0000002990+Z
105237001105237018-000129     105237006001023403353MUG OCC. LOVE V-SHAPE  0000001000+00002630+00000+0001T   00002630+0000001324          1400 NH7515               1AZ
105238000105238               105238               170213DA     1400+00000+DA0000000035+0000000035+000000000+000000005+0000000040+0000000000+I20000000000+0000000040+Z
105238001105238112-116038     105238006009681820246TCS CARRIER BAG MIDI   0000001000+00000035+00000+0001T   00000035+0000001325          1400 NH7090               1AZ
105239000105239               105239               170213DA     1400+00000+DA0000007893+0000007893+000000000+000001106+0000008999+0000000000+I40000008999+0000000000+Z
105239001105239264-000934     105239000090159210818MAISTO DINKY 11cm LAMBO0000001000+00007893+00000+0001T   00007893+0000001541          1400 NH7710               1AZ
105240000105240               105240               170213DA     1400+00000+DA0000002630+0000002630+000000000+000000369+0000002990+0000000009+I20000000000+0000002990+Z
105240001105240079-000282     105240006001023493309PAINT TUBS POSTER 12COL0000001000+00002630+00000+0001T   00002630+0000001543          1400 NH7130               1AZ
105241000105241               105241               170213DA     1400+00000+DA0000003768+0000003768+000000000+000000529+0000004290+0000000007+I20000000000+0000004290+Z
105241001105241077-000309     105241006001023608604GIFT-BAG 25X32CM GLOSS 0000001000+00001753+00000+0001T   00001753+0000001552          1400 NH7112               1AZ
105241002105241903-000297     105241006001704002950SWT MS WILD BERRY 50G  0000001000+00000876+00000+0001T   00000876+0000001552          1400 NH7150               1AZ
105241003105241903-000087     105241006001704000161SWT SPECKLED-EGGS 50G  0000001000+00001139+00000+0001T   00001139+0000001552          1400 NH7150               1AZ
105242000105242               105242               170213DA     1400+00000+DA0000003069+0000003069+000000000+000000430+0000003490+0000000009+I20000000000+0000003490+Z
105242001105242004-071200     105242006003000073399USB 2.0 CARD RDR/WRTR  0000001000+00003069+00000+0001T   00003069+0000001553          1400 NH7310               1AZ
105243000105243               105243               170213DA     1400+00000+DA0000004296+0000004296+000000000+000000602+0000004898+0000000000+I40000004898+0000000000+Z
105243001105243566-000031     105243006003000283910STICKER BK TEACHER STIC0000001000+00002192+00000+0001T   00002192+0000001559          1400 NH7130               1AZ
105243002105243903-000095     105243006001704011495SWT SPECKLED-EGGS 100G 0000001000+00002104+00000+0001T   00002104+0000001559          1400 NH7150               1AZ
105244000105244               105244               170213DA     1400+00000+DA0000001753+0000001753+000000000+000000246+0000001990+0000000009+I20000000000+0000001990+Z
105244001105244077-000239     105244006003000160419GIFT-RIBBON ROLL PEARL 0000001000+00001753+00000+0001T   00001753+0000001602          1400 NH7112               1AZ
105245000105245               105245               170213DA     1400+00000+DA0000002892+0000002892+000000000+000000406+0000003290+0000000008+I20000000000+0000003290+Z
105245001105245565-000084     105245006003000643431NOVELTY CATAPULT B/FLY 0000001000+00001753+00000+0001T   00001753+0000001603          1400 NH7745               1AZ
105245002105245903-000087     105245006001704000161SWT SPECKLED-EGGS 50G  0000001000+00001139+00000+0001T   00001139+0000001603          1400 NH7150               1AZ
105246000105246               105246               170213DA     1400+00000+DA0000001753+0000001753+000000000+000000246+0000001990+0000000009+I20000000000+0000001990+Z
105246001105246261-002267     105246006001023665126GUN 8-SHOT SUPER-CAP   0000001000+00001753+00000+0001T   00001753+0000001605          1400 NH7710               1AZ
105247000105247               105247               170213DA     1400+00000+DA0000004957+0000004957+000000000+000000695+0000005650+0000000002+I20000000000+0000005650+Z
105247001105247018-000136     105247006001023659026MUG OCC LOVE W/PLUSH   0000001000+00003507+00000+0001T   00003507+0000001607          1400 NH7515               1AZ
105247002105247304-001204     105247006001023737984FLOWER OCC. TEDDY/ROSES0000001000+00001402+00000+0001T   00001490+0006471607          1400 NH7510               1AZ
105247003105247112-116069     105247006009681820277TCS CARRIER BAG JUMBO  0000001000+00000048+00000+0001T   00000048+0000001607          1400 NH7090               1AZ
105248000105248               105248               170213DA     1400+00000+DA0000003243+0000003243+000000000+000000455+0000003690+0000000008+I20000000000+0000003690+Z
105248001105248039-000108     105248006001023524034TEA-LITE CANDLES 8PCE  0000001000+00001490+00000+0001T   00001490+0000001608          1400 NH7510               1AZ
105248002105248088-000084     105248006001023798060P/POURRI 120G ASSTD    0000001000+00001753+00000+0001T   00001753+0000001608          1400 NH7212               1AZ
105249000105249               105249               170213DA     1400+00000+DA0000003541+0000003541+000000000+000000497+0000004038+0000000000+I40000004038+0000000000+Z
105249001105249903-000220     105249006001704007368SWT JELLY BEANS 60G    0000001000+00000876+00000+0001T   00000876+0000001610          1400 NH7150               1AZ
105249002105249007-000676     105249006003000284689N/BOOK HOLOGRAM 3PK ASS0000001000+00002630+00000+0001T   00002630+0000001610          1400 NH7130               1AZ
105249003105249112-116038     105249006009681820246TCS CARRIER BAG MIDI   0000001000+00000035+00000+0001T   00000035+0000001610          1400 NH7090               1AZ
105250000105250               105250               170213DA     1400+00000+DA0000005046+0000005046+000000000+000000707+0000005750+0000000003+I20000000000+0000005750+Z
105250001105250304-001011     105250006001023806727FLWR ROSE RED W/BEAR   0000001000+00000613+00000+0001T   00000788+0006471611          1400 NH7510               1AZ
105250002105250019-000083     105250006001023797209V/GLASS CUT 3-ASST 20CM0000001000+00004385+00000+0001T   00006139+0008171611          1400 NH7510               1AZ
105250003105250112-116069     105250006009681820277TCS CARRIER BAG JUMBO  0000001000+00000048+00000+0001T   00000048+0000001611          1400 NH7090               1AZ
105251000105251               105251               170213DA     1400+00000+DA0000004558+0000004558+000000000+000000640+0000005190+0000000008+I20000000000+0000005190+Z
105251001105251004-071310     105251006001023844804HOLDER DISC PL DBL PK-50000002000+00002279+00000+0001T   00002279+0000001613          1400 NH7310               1AZ
105252000105252               105252               170213DA     1400+00000+DA0000000048+0000000048+000000000+000000007+0000000050+0000000005+I20000000000+0000000050+Z
105252001105252112-116069     105252006009681820277TCS CARRIER BAG JUMBO  0000001000+00000048+00000+0001T   00000048+0000001614          1400 NH7090               1AZ
105253000105253               105253               170213DA     1400+00000+DA0000004819+0000004819+000000000+000000677+0000005490+0000000006+I20000000000+0000005490+Z
105253001105253304-001011     105253006001023806727FLWR ROSE RED W/BEAR   0000001000+00000613+00000+0001T   00000788+0006471615          1400 NH7510               1AZ
105253002105253304-001204     105253006001023737984FLOWER OCC. TEDDY/ROSES0000003000+00001402+00000+0001T   00001490+0006471615          1400 NH7510               1AZ
105254000105254               105254               170213DA     1400+00000+DA0000000788+0000000788+000000000+000000111+0000000890+0000000009+I20000000000+0000000890+Z
105254001105254903-000890     105254006009702259000SWT BEECHIES S/BERRY   0000001000+00000788+00000+0001T   00000788+0000001616          1400 NH7150               1AZ
105255000105255               105255               170213DA     1400+00000+DA0000001490+0000001490+000000000+000000209+0000001699+0000000000+I40000001699+0000000000+Z
105255001105255077-000327     105255006001023677686GIFT-BAG 25X32CM E/D BA0000001000+00001490+00000+0001T   00001490+0000001617          1400 NH7112               1AZ
105256000105256               105256               170213DA     1400+00000+DA0000009342+0000009342+000000000+000001309+0000010650+0000000001+I20000000000+0000010650+Z
105256001105256368-000001     105256006003000097982Plush Bear 25cm        0000001000+00004385+00000+0001T   00004385+0000001619          1400 NH7745               1AZ
105256002105256018-005009     105256006001023725608MUG W/PLUSH-BEAR LOVE  0000001000+00003507+00000+0001T   00003507+0000001619          1400 NH7515               1AZ
105256003105256304-001204     105256006001023737984FLOWER OCC. TEDDY/ROSES0000001000+00001402+00000+0001T   00001490+0006471619          1400 NH7510               1AZ
105256004105256112-116069     105256006009681820277TCS CARRIER BAG JUMBO  0000001000+00000048+00000+0001T   00000048+0000001619          1400 NH7090               1AZ
105257000105257               105257               170213DA     1400+00000+DA0000017624+0000017624+000000000+000002472+0000020096+0000000000+I40000020096+0000000000+Z
105257001105257018-000130     105257006001023867537MUG OCC LOVE MINI+HEART0000001000+00003507+00000+0001T   00003507+0000001633          1400 NH7515               1AZ
105257002105257089-000191     105257006003000430185KEY CHAIN BEAR 10CM    0000001000+00002630+00000+0001T   00002630+0000001633          1400 NH7205               1AZ
105257003105257368-000175     105257006003000270316PLUSH BEAR 4 ASSTD 18CM0000001000+00006139+00000+0001T   00006139+0000001633          1400 NH7745               1AZ
105257004105257077-000010-C   105257006001023123879CREPE-PAPER RED        0000002000+00000788+00000+0001T   00000788+0000001633          1400 NH7112               1AZ
105257005105257903-000183     105257006003000451043SWT LB HEART LOLLY     0000001000+00000393+00000+0001T   00000393+0000001633          1400 NH7150               1AZ
105257006105257077-000299-A   105257006003000670888GIFT-BAG PAPER JMB LOVE0000001000+00001753+00000+0001T   00001753+0000001633          1400 NH7112               1AZ
105257007105257077-000303     105257006001023593757GIFT-BAG PAPER MED     0000001000+00001578+00000+0001T   00001578+0000001633          1400 NH7112               1AZ
105257008105257112-116069     105257006009681820277TCS CARRIER BAG JUMBO  0000001000+00000048+00000+0001T   00000048+0000001633          1400 NH7090               1AZ
105258000105258               105258               170213DA     1400+00000+DA0000002630+0000002630+000000000+000000369+0000002990+0000000009+I20000000000+0000002990+Z
105258001105258034-078839     105258006003000622320COOEY BABY FEEDING SET 0000001000+00002630+00000+0001T   00002630+0000001656          1400 NH7215               1AZ
105259000105259               105259               170213DA     1400+00000+DA0000001753+0000001753+000000000+000000246+0000001999+0000000000+I40000001999+0000000000+Z
105259001105259077-000299-A   105259006003000670888GIFT-BAG PAPER JMB LOVE0000001000+00001753+00000+0001T   00001753+0000001658          1400 NH7112               1AZ
105260000105260               105260               170213DA     1400+00000+DA0000002630+0000002630+000000000+000000369+0000002990+0000000009+I20000000000+0000002990+Z
105260001105260071-001362     105260006003000589258HIGHLIGHTER 4 PACK     0000001000+00002630+00000+0001T   00002630+0000001659          1400 NH7130               1AZ
105261000105261               105261               170213DA     1400+00000+DA0000004870+0000004870+000000000+000000683+0000005550+0000000003+I20000000000+0000005550+Z
105261001105261903-000619     105261006003000672455SWT LOLLY STR/BRRY 140G0000001000+00001753+00000+0001T   00001753+0000001703          1400 NH7150               1AZ
105261002105261103-000088     105261006001023795625BAMBOO BASKET  W/HNDLES0000001000+00003069+00000+0001T   00003069+0000001703          1400 NH7300               1AZ
105261003105261112-116069     105261006009681820277TCS CARRIER BAG JUMBO  0000001000+00000048+00000+0001T   00000048+0000001703          1400 NH7090               1AZ
105262000105262               105262               170213DA     1400+00000+DA0000004385+0000004385+000000000+000000614+0000004990+0000000009+I20000000000+0000004990+Z
105262001105262031-080508     105262006001023802415P/FRAME PL 22X11CM LOVE0000001000+00004385+00000+0001T   00004385+0000001703          1400 NH7510               1AZ
105263000105263               105263               170213DA     1400+00000+DA0000001753+0000001753+000000000+000000246+0000001990+0000000009+I20000000000+0000001990+Z
105263001105263903-000619     105263006003000672455SWT LOLLY STR/BRRY 140G0000001000+00001753+00000+0001T   00001753+0000001703          1400 NH7150               1AZ
105264000105264               105264               170213DA     1400+00000+DA0000017584+0000017584+000000000+000002466+0000020050+0000000000+I20000000000+0000020050+Z
105264001105264301-085007     105264006003000673698ORN OCC. LOVE S/PLAQUE 0000001000+00007893+00000+0001T   00007893+0000001706          1400 NH7505               1AZ
105264002105264088-000084     105264006001023798060P/POURRI 120G ASSTD    0000001000+00001753+00000+0001T   00001753+0000001706          1400 NH7212               1AZ
105264003105264039-081008     105264006008766081008CANDLES 9PCE SCENTED   0000001000+00002630+00000+0001T   00002630+0000001706          1400 NH7510               1AZ
105264004105264001-091413     105264006001023669179WINE-GLASS RED WINE    0000002000+00002630+00000+0001T   00002630+0000001706          1400 NH7515               1AZ
105264005105264112-116069     105264006009681820277TCS CARRIER BAG JUMBO  0000001000+00000048+00000+0001T   00000048+0000001706          1400 NH7090               1AZ
105265000105265               105265               170213DA     1400+00000+DA0000003507+0000003507+000000000+000000491+0000003990+0000000008+I20000000000+0000003990+Z
105265001105265031-005853     105265006003000442416P/FRAME WDN TWIN HEARTS0000001000+00003507+00000+0001T   00003507+0000001707          1400 NH7510               1AZ
105266000105266               105266               170213DA     1400+00000+DA0000001400+0000001400+000000000+000000196+0000001590+0000000006+I20000000000+0000001590+Z
105266001105266033-010721     105266006001023678669SAFETY-PINS 20PCE ASSTD0000002000+00000700+00000+0001T   00000700+0000001711          1400 NH7200               1AZ
105267000105267               105267               170213DA     1400+00000+DA0000003243+0000003243+000000000+000000455+0000003690+0000000008+I20000000000+0000003690+Z
105267001105267306-001622     105267006003000450091INNER SOLES 1-PAIR     0000001000+00002630+00000+0001T   00002630+0000001713          1400 NH7200               1AZ
105267002105267083-000055     105267006003000003853LIGHTER ELCTRNC REFILBL0000001000+00000613+00000+0001T   00000613+0000001713          1400 NH7315               1AZ
105268000105268               105268               170213DA     1400+00000+DA0000030744+0000030744+000000000+000004306+0000035050+0000000000+I40000035050+0000000000+Z
105268001105268220-000150     105268006001853007721CUTLERY-SET S/STEEL 24P0000001000+00017542+00000+0001T   00017542+0000001716          1400 NH7300               1AZ
105268002105268028-085274     105268006001023641571BBQ LIGHTER         H&L0000001000+00002192+00000+0001T   00002192+0000001716          1400 NH7305               1AZ
105268003105268024-000002     105268006001023741899S/BURNER-COVER SILV/BLK0000001000+00003946+00000+0001T   00004385+0008191716          1400 NH7300               1AZ
105268004105268049-004582     105268006001023842923DOORMAT HALF-MOON 40x600000001000+00007016+00000+0001T   00007016+0000001716          1400 NH7510               1AZ
105268005105268112-116069     105268006009681820277TCS CARRIER BAG JUMBO  0000001000+00000048+00000+0001T   00000048+0000001716          1400 NH7090               1AZ
105269000105269               105269               170213DA     1400+00000+DA0000002628+0000002628+000000000+000000368+0000002990+0000000006+I20000000000+0000002990+Z
105269001105269007-000209     105269006001023582102NOTE STICKY FILE MARKER0000001000+00001314+00000+0001T   00001314+0000001736          1400 NH7130               1AZ
105269002105269030-000010     105269006003000084395P/DOOR HANGER 2-ASSTD  0000001000+00001314+00000+0001T   00001490+0008181736          1400 NH7505               1AZ
105270000105270               105270               170213DA     1400+00000+DA0000003506+0000003506+000000000+000000492+0000003990+0000000008+I20000000000+0000003990+Z
105270001105270006-000124     105270006003000625888BALLOONS 10PC MIX COL  0000002000+00001753+00000+0001T   00001753+0000001736          1400 NH7131               1AZ
105271000105271               105271               170213DA     1400+00000+DA0000001753+0000001753+000000000+000000246+0000001990+0000000009+I20000000000+0000001990+Z
105271001105271301-085002     105271006003000420704ORN OCC. LOVE BELL ASST0000001000+00001753+00000+0001T   00002630+0008121742          1400 NH7505               1AZ
105272000105272               105272               170213DA     1400+00000+DA0000001314+0000001314+000000000+000000184+0000001490+0000000008+I20000000000+0000001490+Z
105272001105272077-000310     105272006001023608635GIFT-BAG 18X23CM GLOSS 0000001000+00001314+00000+0001T   00001314+0000001754          1400 NH7112               1AZ
105273000105273               105273               170213DA     1400+00000+DA0000001753+0000001753+000000000+000000246+0000001990+0000000009+I20000000000+0000001990+Z
105273001105273077-000457     105273006003000285662G/BAG METALLIC JMB SOL 0000001000+00001753+00000+0001T   00001753+0000001754          1400 NH7112               1AZ
105274000105274               105274               170213DA     1400+00000+DA0000000788+0000000788+000000000+000000111+0000000890+0000000009+I20000000000+0000000890+Z
105274001105274077-000010-C   105274006001023123879CREPE-PAPER RED        0000001000+00000788+00000+0001T   00000788+0000001756          1400 NH7112               1AZ
105275000105275               105275               170213DA     1400+00000+DA0000002980+0000002980+000000000+000000418+0000003390+0000000008+I20000000000+0000003390+Z
105275001105275304-001204     105275006001023737984FLOWER OCC. TEDDY/ROSES0000001000+00001402+00000+0001T   00001490+0006471800          1400 NH7510               1AZ
105275002105275077-000323     105275006001023677563G/BAG 25X32CM E/DAY FLO0000001000+00001578+00000+0001T   00001578+0000001800          1400 NH7112               1AZ
105276000105276               105276               170213DA     1400+00000+DA0000004957+0000004957+000000000+000000695+0000005652+0000000000+I40000005652+0000000000+Z
105276001105276304-001204     105276006001023737984FLOWER OCC. TEDDY/ROSES0000001000+00001402+00000+0001T   00001490+0006471802          1400 NH7510               1AZ
105276002105276018-005009     105276006001023725608MUG W/PLUSH-BEAR LOVE  0000001000+00003507+00000+0001T   00003507+0000001802          1400 NH7515               1AZ
105276003105276112-116069     105276006009681820277TCS CARRIER BAG JUMBO  0000001000+00000048+00000+0001T   00000048+0000001802          1400 NH7090               1AZ
105277000105277               105277               170213DA     1400+00000+DA0000002102+0000002102+000000000+000000296+0000002390+0000000008+I20000000000+0000002390+Z
105277001105277079-009702-C   105277008427973059309PAPER SIRIO A2 VIOLET  0000001000+00001051+00000+0001T   00001051+0000001803          1400 NH7130               1AZ
105277002105277079-009702-G   105277008427973060787PAPER SIRIO A2 FUSHIA  0000001000+00001051+00000+0001T   00001051+0000001803          1400 NH7130               1AZ
105278000105278               105278               170213DA     1400+00000+DA0000001753+0000001753+000000000+000000246+0000001990+0000000009+I20000000000+0000001990+Z
105278001105278077-000309     105278006001023608604GIFT-BAG 25X32CM GLOSS 0000001000+00001753+00000+0001T   00001753+0000001804          1400 NH7112               1AZ
105279000105279               105279               170213DA     1400+00000+DA0000001139+0000001139+000000000+000000160+0000001290+0000000009+I20000000000+0000001290+Z
105279001105279159-000445     105279006001023669728SOAP-BOX PL OVAL       0000001000+00001139+00000+0001T   00001139+0000001808          1400 NH7200               1AZ
105280000105280               105280               170213DA     1400+00000+DA0000001139+0000001139+000000000+000000160+0000001299+0000000000+I40000001299+0000000000+Z
105280001105280159-000445     105280006001023669728SOAP-BOX PL OVAL       0000001000+00001139+00000+0001T   00001139+0000001810          1400 NH7200               1AZ
105281000105281               105281               170213DA     1400+00000+DA0000004433+0000004433+000000000+000000621+0000005050+0000000004+I20000000000+0000005050+Z
105281001105281368-000001     105281006003000097982Plush Bear 25cm        0000001000+00004385+00000+0001T   00004385+0000001815          1400 NH7745               1AZ
105281002105281112-116069     105281006009681820277TCS CARRIER BAG JUMBO  0000001000+00000048+00000+0001T   00000048+0000001815          1400 NH7090               1AZ
105282000105282               105282               170213DA     1400+00000+DA0000001753+0000001753+000000000+000000246+0000001990+0000000009+I20000000000+0000001990+Z
105282001105282024-091100     105282006001023914224BAKING-CUPS PAPER 100PC0000001000+00001753+00000+0001T   00001753+0000001815          1400 NH7300               1AZ
105283000105283               105283               170213DA     1400+00000+DA0000011885+0000011885+000000000+000001666+0000013550+0000000001+I20000000000+0000013550+Z
105283001105283072-000327     105283006001023858504CAT-COLLAR+BELL        0000001000+00001753+00000+0001T   00001753+0000001817          1400 NH7870               1AZ
105283002105283072-000350     105283006003000304882PET CAT TOY PLUSH W/BEL0000001000+00003069+00000+0001T   00003069+0000001817          1400 NH7870               1AZ
105283003105283072-020285     105283006003000451364PET CAT TOY BALLS PK-4 0000001000+00002630+00000+0001T   00002630+0000001817          1400 NH7870               1AZ
105283004105283203-003082     105283006001023770752CORKSCREW DBL-LEVER CHR0000001000+00004385+00000+0001T   00004385+0000001817          1400 NH7300               1AZ
105283005105283112-116069     105283006009681820277TCS CARRIER BAG JUMBO  0000001000+00000048+00000+0001T   00000048+0000001817          1400 NH7090               1AZ
105284000105284               105284               170213DA     1400+00000+DA0000004206+0000004206+000000000+000000591+0000004790+0000000007+I20000000000+0000004790+Z
105284001105284304-001204     105284006001023737984FLOWER OCC. TEDDY/ROSES0000003000+00001402+00000+0001T   00001490+0006471818          1400 NH7510               1AZ
105285000105285               105285               170213DA     1400+00000+DA0000000700+0000000700+000000000+000000098+0000000790+0000000008+I20000000000+0000000790+Z
105285001105285564-000012     105285006001023130075BUBBLE BOTTLE MAGIC    0000001000+00000700+00000+0001T   00000700+0000001822          1400 NH7131               1AZ
105286000105286               105286               170213DA     1400+00000+DA0000008327+0000008327+000000000+000001168+0000009495+0000000000+I40000009495+0000000000+Z
105286001105286103-000084     105286006003000638109BAMBOO BASKET RECT     0000001000+00004823+00000+0001T   00004823+0000001825          1400 NH7300               1AZ
105286002105286077-000150-D   105286006003000054343GIFT-WRAP CELLPHANE CLR0000004000+00000876+00000+0001T   00000876+0000001825          1400 NH7112               1AZ
105287000105287               105287               170213DA     1400+00000+DA0000005784+0000005784+000000000+000000812+0000006590+0000000006+I20000000000+0000006590+Z
105287001105287903-000892     105287008693029700420SWT NOVELTY CHOCO CREAM0000001000+00000788+00000+0001T   00000788+0000001826          1400 NH7150               1AZ
105287002105287903-000912     105287006009802868461SWT GUM TAPE HOT WHEELS0000001000+00001753+00000+0001T   00001753+0000001826          1400 NH7150               1AZ
105287003105287903-000087     105287006001704000161SWT SPECKLED-EGGS 50G  0000001000+00001139+00000+0001T   00001139+0000001826          1400 NH7150               1AZ
105287004105287903-000095     105287006001704011495SWT SPECKLED-EGGS 100G 0000001000+00002104+00000+0001T   00002104+0000001826          1400 NH7150               1AZ
105288000105288               105288               170213DA     1400+00000+DA0000001402+0000001402+000000000+000000197+0000001590+0000000009+I20000000000+0000001590+Z
105288001105288304-001204     105288006001023737984FLOWER OCC. TEDDY/ROSES0000001000+00001402+00000+0001T   00001490+0006471827          1400 NH7510               1AZ
105289000105289               105289               170213DA     1400+00000+DA0000002980+0000002980+000000000+000000418+0000003390+0000000008+I20000000000+0000003390+Z
105289001105289077-000303     105289006001023593757GIFT-BAG PAPER MED     0000001000+00001578+00000+0001T   00001578+0000001828          1400 NH7112               1AZ
105289002105289304-001204     105289006001023737984FLOWER OCC. TEDDY/ROSES0000001000+00001402+00000+0001T   00001490+0006471828          1400 NH7510               1AZ
105290000105290               105290               170213DA     1400+00000+DA0000000393+0000000393+000000000+000000056+0000000440+0000000009+I20000000000+0000000440+Z
105290001105290903-000183     105290006003000451043SWT LB HEART LOLLY     0000001000+00000393+00000+0001T   00000393+0000001829          1400 NH7150               1AZ
M17021391                              CASH        DASLAVE 1                       Z-REPORT No.   697TOTAL (Sales - Refunds)           3286.05       CASH TO BE BANKED                 2353.80       DEBIT CARDS                          0.00       CREDIT CARDS                       932.25       Z-READING                         3286.05       AIRTIME DEBIT CARD SALES             0.00       AIRTIME CARD SALES                   0.00       OVERS/UNDERS                         0.00       AIRTIME CASH SALES                   0.00       GIFT CARDS                           0.00       GIFT CARD CASH SALES                 0.00       T O T A L  CASH PAYOUTS              0.00                                                                                                                                                                                                                                                                                                                                                      Z
M17021392                              CASH        DAABSENT                                                                                                                                                                                          ANNUAL LEAVE                                                                                                                                                                                    DAY OFF                                                                                                                                                                                         COMMENTS                                                                                                                                                                                                                                                                                                                                                                                       Z
Y17021300                                          DA00000000288540+000064
ZDA17021319273 SLAVE 1      SALES DATA                     NEXT INVOICE NO.  105291 0697
F093746496-056483         1701271312400000202ICSLAVE 1
F093755496-056483         1701271313030000202ICSLAVE 1
F093756496-057190         1701271313560000042ICSLAVE 1
F093760496-056475         1701271314260000032ICSLAVE 1
F093994496-028142         1701271314540000022ICSLAVE 1
F094024496-028272         1701271315090000022ICSLAVE 1
F094095496-028122         1701271315240000042ICSLAVE 1
F094757031-000873-B       1702081811500000052ICSLAVE 1
F094797089-000030         1702091011230000042ICSLAVE 1
X DA Slave 1 First invoice 105227 170213 Last invoice 105290 170213 Next invoice 105291 Total number of records 000000192 clbackup completed 19:27:40
