306204000306204               306204               170213DA     1400+00000+DA0000003507+0000003507+000000000+000000491+0000003990+0000000008+I20000000000+0000003990+Z
306204001306204567-011523     306204006003000667031BK COLOURING THERAPY   0000001000+00003507+00000+0001T   00003507+0000000952          1400 LY3757               3AZ
306205000306205               306205               170213DA     1400+00000+DA0000000876+0000000876+000000000+000000123+0000000990+0000000009+I20000000000+0000000990+Z
306205001306205076-000017     306205006001811010022TWINE COTTON 50g-BALL  0000001000+00000876+00000+0001T   00000876+0000000956          1400 LY3810               3AZ
306206000306206               306206               170213DA     1400+00000+DA0000004385+0000004385+000000000+000000614+0000004990+0000000009+I20000000000+0000004990+Z
306206001306206031-000870-A   306206006001023798626P/FRAME WOOD WHITE-PINE0000001000+00004385+00000+0001T   00004385+0000001005          1400 LY3510               3AZ
306207000306207               306207               170213DA     1400+00000+DA0000004385+0000004385+000000000+000000614+0000004990+0000000009+I20000000000+0000004990+Z
306207001306207031-080508     306207006001023802415P/FRAME PL 22X11CM LOVE0000001000+00004385+00000+0001T   00004385+0000001007          1400 LY3510               3AZ
306208000306208               306208               170213DA     1400+00000+DA0000002455+0000002455+000000000+000000344+0000002790+0000000009+I20000000000+0000002790+Z
306208001306208562-000009     306208000730589212029PLAY MODELLING CARDED  0000001000+00002455+00000+0001T   00002455+0000001008          1400 LY3755               3AZ
306209000306209               306209               170213DA     1400+00000+DA0000001490+0000001490+000000000+000000209+0000001690+0000000009+I20000000000+0000001690+Z
306209001306209079-000807     306209006003000670277ART+CRAFT WOODEN STICKS0000001000+00001490+00000+0001T   00001490+0000001009          1400 LY3130               3AZ
306210000306210               306210               170213DA     1400+00000+DA0000001753+0000001753+000000000+000000246+0000001990+0000000009+I20000000000+0000001990+Z
306210001306210077-000309     306210006001023608604GIFT-BAG 25X32CM GLOSS 0000001000+00001753+00000+0001T   00001753+0000001011          1400 LY3112               3AZ
306211000306211               306211               170213DA     1400+00000+DA0000001314+0000001314+000000000+000000184+0000001490+0000000008+I20000000000+0000001490+Z
306211001306211007-000209     306211006001023582102NOTE STICKY FILE MARKER0000001000+00001314+00000+0001T   00001314+0000001018          1400 LY3130               3AZ
306212000306212               306212               170213DA     1400+00000+DA0000005471+0000005471+000000000+000000767+0000006238+0000000000+I40000006238+0000000000+Z
306212001306212024-000018     306212006001023610232CAKE-DEC S/S NOZZLE    0000001000+00003946+00000+0001T   00003946+0000001022          1400 LY3300               3AZ
306212002306212079-000807     306212006003000670277ART+CRAFT WOODEN STICKS0000001000+00001490+00000+0001T   00001490+0000001022          1400 LY3130               3AZ
306212003306212112-116038     306212006009681820246TCS CARRIER BAG MIDI   0000001000+00000035+00000+0001T   00000035+0000001022          1400 LY3090               3AZ
306213000306213               306213               170213DA     1400+00000+DA0000000876+0000000876+000000000+000000123+0000000990+0000000009+I20000000000+0000000990+Z
306213001306213077-000151     306213006008766114676GIFT-WRAP C/PHANE ASSTD0000001000+00000876+00000+0001T   00000876+0000001023          1400 LY3112               3AZ
306214000306214               306214               170213DA     1400+00000+DA0000001753+0000001753+000000000+000000246+0000001990+0000000009+I20000000000+0000001990+Z
306214001306214007-000043     306214006009635831496DISPLAY-BOOK PL A4 20PG0000001000+00001753+00000+0001T   00001753+0000001023          1400 LY3130               3AZ
306215000306215               306215               170213DA     1400+00000+DA0000001664+0000001664+000000000+000000234+0000001890+0000000008+I20000000000+0000001890+Z
306215001306215077-000010-C   306215006001023123879CREPE-PAPER RED        0000001000+00000788+00000+0001T   00000788+0000001024          1400 LY3112               3AZ
306215002306215077-000011-D   306215006001023808554TISSUE-WRAP WHITE 10PCE0000001000+00000876+00000+0001T   00000876+0000001024          1400 LY3112               3AZ
306216000306216               306216               170213DA     1400+00000+DA0000003507+0000003507+000000000+000000491+0000003990+0000000008+I20000000000+0000003990+Z
306216001306216031-086102     306216006001023900722P/FRAME PL WORD-TOP 4AS0000001000+00003507+00000+0001T   00003507+0000001027          1400 LY3510               3AZ
306217000306217               306217               170213DA     1400+00000+DA0000004207+0000004207+000000000+000000589+0000004790+0000000006+I20000000000+0000004790+Z
306217001306217028-002101     306217006002580009507CHAIR JUNIOR    ASSTD  0000001000+00003507+00000+0001T   00003507+0000001030          1400 LY3305               3AZ
306217002306217564-000012     306217006001023130075BUBBLE BOTTLE MAGIC    0000001000+00000700+00000+0001T   00000700+0000001030          1400 LY3131               3AZ
306218000306218               306218               170213DA     1400+00000+DA0000007892+0000007892+000000000+000001106+0000008990+0000000008+I20000000000+0000008990+Z
306218001306218263-001006     306218006001023827883CARS DELUXE P/BCK PACK60000001000+00003946+00000+0001T   00003946+0000001040          1400 LY3710               3AZ
306218002306218466-000620     306218006003000537617BALL SPORT SET 5.5CM   0000001000+00003946+00000+0001T   00003946+0000001040          1400 LY3785               3AZ
306219000306219               306219               170213DA     1400+00000+DA0000002630+0000002630+000000000+000000369+0000002999+0000000000+I40000002999+0000000000+Z
306219001306219018-000129     306219006001023403353MUG OCC. LOVE V-SHAPE  0000001000+00002630+00000+0001T   00002630+0000001056          1400 LY3515               3AZ
306220000306220               306220               170213DA     1400+00000+DA0000001227+0000001227+000000000+000000172+0000001399+0000000000+I40000001399+0000000000+Z
306220001306220071-081091     306220006001151010287STAED/GENKEM ALL-STICK 0000001000+00001227+00000+0001T   00001227+0000001103          1400 LY3130               3AZ
306221000306221               306221               170213DA     1400+00000+DA0000007927+0000007927+000000000+000001111+0000009030+0000000008+I20000000000+0000009030+Z
306221001306221562-000199     306221006001023732910PUSH-IN BOARD WDN ASSTD0000001000+00005262+00000+0001T   00005262+0000001112          1400 LY3755               3AZ
306221002306221562-000010     306221006001023762528KID'S PLAY DOUGH       0000001000+00002630+00000+0001T   00002630+0000001112          1400 LY3755               3AZ
306221003306221112-116038     306221006009681820246TCS CARRIER BAG MIDI   0000001000+00000035+00000+0001T   00000035+0000001112          1400 LY3090               3AZ
306222000306222               306222               170213DA     1400+00000+DA0000000876+0000000876+000000000+000000123+0000000990+0000000009+I20000000000+0000000990+Z
306222001306222071-003004     306222006003000662821PEN BALL POINT 3PC BLUE0000001000+00000876+00000+0001T   00000876+0000001127          1400 LY3130               3AZ
306223000306223               306223               170213DA     1400+00000+DA0000006049+0000006049+000000000+000000848+0000006890+0000000007+I20000000000+0000006890+Z
306223001306223464-000107     306223000073854318089PLAY-CARDS 2nd (SINGLE)0000001000+00003069+00000+0001T   00003069+0000001132          1400 LY3785               3AZ
306223002306223034-078833     306223006001023857491SIGN BABY-ON-BOARD     0000002000+00001490+00000+0001T   00001490+0000001132          1400 LY3215               3AZ
306224000306224               306224               170213DA     1400+00000+DA0000001269+0000001269+000000000+000000179+0000001440+0000000008+I20000000000+0000001440+Z
306224001306224077-000150-D   306224006003000054343GIFT-WRAP CELLPHANE CLR0000001000+00000876+00000+0001T   00000876+0000001139          1400 LY3112               3AZ
306224002306224903-000183     306224006003000451043SWT LB HEART LOLLY     0000001000+00000393+00000+0001T   00000393+0000001139          1400 LY3150               3AZ
306225000306225               306225               170213DA     1400+00000+DA0000011401+0000011401+000000000+000001597+0000012990+0000000008+I20000000000+0000012990+Z
306225001306225027-000231     306225006001023749598MOP-REFILL   WONDERGRIP0000001000+00002630+00000+0001T   00002630+0000001141          1400 LY3212               3AZ
306225002306225027-000230     306225006001023606198MOP COMPLETE WONDERMOP 0000001000+00008771+00000+0001T   00008771+0000001141          1400 LY3212               3AZ
306226000306226               306226               170213DA     1400+00000+DA0000004385+0000004385+000000000+000000614+0000004990+0000000009+I20000000000+0000004990+Z
306226001306226072-000620     306226006001023604415PET DOG LEAD 15mmx1.2M 0000001000+00004385+00000+0001L   00004385+0000001142          1400 LY3870               3AZ
306227000306227               306227               170213DA     1400+00000+DA0000005260+0000005260+000000000+000000737+0000005990+0000000007+I20000000000+0000005990+Z
306227001306227028-002101     306227006002580009507CHAIR JUNIOR    ASSTD  0000001000+00003507+00000+0001T   00003507+0000001143          1400 LY3305               3AZ
306227002306227466-000103     306227000681070950312BALL 20cm ASSTD        0000001000+00001753+00000+0001T   00001753+0000001143          1400 LY3785               3AZ
306228000306228               306228               170213DA     1400+00000+DA0000000876+0000000876+000000000+000000123+0000000990+0000000009+I20000000000+0000000990+Z
306228001306228077-000150-D   306228006003000054343GIFT-WRAP CELLPHANE CLR0000001000+00000876+00000+0001T   00000876+0000001143          1400 LY3112               3AZ
306229000306229               306229               170213DA     1400+00000+DA0000002630+0000002630+000000000+000000369+0000002990+0000000009+I20000000000+0000002990+Z
306229001306229565-000890     306229006003000322107NOVELTY HIBOUNCE BALL  0000001000+00002630+00000+0001T   00002630+0000001148          1400 LY3745               3AZ
306230000306230               306230               170213DA     1400+00000+DA0000005699+0000005699+000000000+000000799+0000006498+0000000000+I40000006498+0000000000+Z
306230001306230031-086219     306230006001023761729P/FRAME 9x13cm CURVED  0000001000+00002630+00000+0001T   00002630+0000001150          1400 LY3510               3AZ
306230002306230031-000864-A   306230006001023798350P/FRAME MAHOGANY 10X15 0000001000+00003069+00000+0001T   00003069+0000001150          1400 LY3510               3AZ
306231000306231               306231               170213DA     1400+00000+DA0000007013+0000007013+000000000+000000982+0000007990+0000000005+I20000000000+0000007990+Z
306231001306231082-096632     306231006001492966328SUNGLASS MEN PLASTIC   0000001000+00004385+00000+0001T   00004385+0000001150          1400 LY3160               3AZ
306231002306231362-000307     306231006003000519750HAIR HEADBAND PRINTED  0000002000+00001314+00000+0001T   00001314+0000001150          1400 LY3160               3AZ
306232000306232               306232               170213DA     1400+00000+DA0000002665+0000002665+000000000+000000374+0000003030+0000000009+I20000000000+0000003030+Z
306232001306232079-000282     306232006001023493309PAINT TUBS POSTER 12COL0000001000+00002630+00000+0001T   00002630+0000001158          1400 LY3130               3AZ
306232002306232112-116038     306232006009681820246TCS CARRIER BAG MIDI   0000001000+00000035+00000+0001T   00000035+0000001158          1400 LY3090               3AZ
306233000306233               306233               170213DA     1400+00000+DA0000001578+0000001578+000000000+000000221+0000001790+0000000009+I20000000000+0000001790+Z
306233001306233077-000303     306233006001023593757GIFT-BAG PAPER MED     0000001000+00001578+00000+0001T   00001578+0000001202          1400 LY3112               3AZ
306234000306234               306234               170213DA     1400+00000+DA0000002192+0000002192+000000000+000000307+0000002490+0000000009+I20000000000+0000002490+Z
306234001306234080-000127     306234006003000424351VALENTINES DAY 36x24CM 0000001000+00002192+00000+0001T   00002192+0000001204          1400 LY3112               3AZ
306235000306235               306235               170213DA     1400+00000+DA0000010261+0000010261+000000000+000001437+0000011698+0000000000+I40000011698+0000000000+Z
306235001306235368-000012     306235006003000610464PLUSH BEAR 30cm SITTING0000001000+00008771+00000+0001T   00008771+0000001212          1400 LY3745               3AZ
306235002306235077-000299     306235006003000395576G/BAG 32x25cm LRG LOVE 0000001000+00001490+00000+0001T   00001490+0000001212          1400 LY3112               3AZ
306236000306236               306236               170213DA     1400+00000+DA0000002104+0000002104+000000000+000000295+0000002390+0000000009+I20000000000+0000002390+Z
306236001306236903-000095     306236006001704011495SWT SPECKLED-EGGS 100G 0000001000+00002104+00000+0001T   00002104+0000001213          1400 LY3150               3AZ
306237000306237               306237               170213DA     1400+00000+DA0000000306+0000000306+000000000+000000043+0000000340+0000000009+I20000000000+0000000340+Z
306237001306237007-000234     306237006009685850638LABELS 24PK            0000001000+00000306+00000+0001T   00000306+0000001214          1400 LY3130               3AZ
306238000306238               306238               170213DA     1400+00000+DA0000001490+0000001490+000000000+000000209+0000001690+0000000009+I20000000000+0000001690+Z
306238001306238077-000299     306238006003000395576G/BAG 32x25cm LRG LOVE 0000001000+00001490+00000+0001T   00001490+0000001218          1400 LY3112               3AZ
306239000306239               306239               170213DA     1400+00000+DA0000004995+0000004995+000000000+000000701+0000005690+0000000006+I20000000000+0000005690+Z
306239001306239567-010395     306239006002242053466GENERIC AFRIKAANS READE0000001000+00002192+00000+0001T   00002192+0000001222          1400 LY3757               3AZ
306239002306239024-091100     306239006001023914224BAKING-CUPS PAPER 100PC0000001000+00001753+00000+0001T   00001753+0000001222          1400 LY3300               3AZ
306239003306239903-000155     306239006009803374435SWT LOLLY I LUV U HEART0000002000+00000525+00000+0001T   00000525+0000001222          1400 LY3150               3AZ
306240000306240               306240               170213DA     1400+00000+DA0000005295+0000005295+000000000+000000742+0000006037+0000000000+I40000006037+0000000000+Z
306240001306240301-085002     306240006003000420704ORN OCC. LOVE BELL ASST0000001000+00001753+00000+0001T   00002630+0008121228          1400 LY3505               3AZ
306240002306240018-000130     306240006001023867537MUG OCC LOVE MINI+HEART0000001000+00003507+00000+0001T   00003507+0000001228          1400 LY3515               3AZ
306240003306240112-116038     306240006009681820246TCS CARRIER BAG MIDI   0000001000+00000035+00000+0001T   00000035+0000001228          1400 LY3090               3AZ
306241000306241               306241               170213DA     1400+00000+DA0000011751+0000011751+000000000+000001646+0000013397+0000000000+I40000013397+0000000000+Z
306241001306241031-006542     306241006003000222698P/FRAME WDN.THICK 20X250000001000+00008771+00000+0001T   00008771+0000001231          1400 LY3510               3AZ
306241002306241078-000030     306241006003000151141YAMAYO SUPERGLUE 8g    0000001000+00001753+00000+0001T   00001753+0000001231          1400 LY3810               3AZ
306241003306241142-000815-A   306241006003000562961GLOVES RUBBER X-LARGE  0000001000+00001227+00000+0001T   00001227+0000001231          1400 LY3810               3AZ
306242000306242               306242               170213DA     1400+00000+DA0000003507+0000003507+000000000+000000491+0000003990+0000000008+I20000000000+0000003990+Z
306242001306242031-000923     306242006001023669933P/FRAME BLK W/WORDS    0000001000+00003507+00000+0001T   00003507+0000001231          1400 LY3510               3AZ
306243000306243               306243               170213DA     1400+00000+DA0000001753+0000001753+000000000+000000246+0000001990+0000000009+I20000000000+0000001990+Z
306243001306243077-000299-A   306243006003000670888GIFT-BAG PAPER JMB LOVE0000001000+00001753+00000+0001T   00001753+0000001236          1400 LY3112               3AZ
306244000306244               306244               170213DA     1400+00000+DA0000001753+0000001753+000000000+000000246+0000001990+0000000009+I20000000000+0000001990+Z
306244001306244006-000120     306244006001023346889BALLOONS 10PC MIX COL  0000001000+00001753+00000+0001T   00001753+0000001237          1400 LY3131               3AZ
306245000306245               306245               170213DA     1400+00000+DA0000005262+0000005262+000000000+000000737+0000005990+0000000009+I20000000000+0000005990+Z
306245001306245263-000503     306245006001023828323TRUCK+TRAILER+SML-TRUCK0000001000+00005262+00000+0001T   00005262+0000001240          1400 LY3710               3AZ
306246000306246               306246               170213DA     1400+00000+DA0000001753+0000001753+000000000+000000246+0000001990+0000000009+I20000000000+0000001990+Z
306246001306246469-003001     306246006003000541560BUILDING BLOCKS VEHICLE0000001000+00001753+00000+0001T   00001753+0000001240          1400 LY3755               3AZ
306247000306247               306247               170213DA     1400+00000+DA0000001753+0000001753+000000000+000000246+0000001990+0000000009+I20000000000+0000001990+Z
306247001306247077-000324     306247006001023677594GIFT-BAG 33X45CM E/D FL0000001000+00001753+00000+0001T   00001753+0000001247          1400 LY3112               3AZ
306248000306248               306248               170213DA     1400+00000+DA0000011606+0000011606+000000000+000001628+0000013230+0000000004+I20000000000+0000013230+Z
306248001306248112-116038     306248006009681820246TCS CARRIER BAG MIDI   0000001000+00000035+00000+0001T   00000035+0000001251          1400 LY3090               3AZ
306248002306248251-000031     306248006001023515827MASKING-TAPE 24mmx40m  0000001000+00001578+00000+0001T   00001578+0000001251          1400 LY3810               3AZ
306248003306248564-000019     306248006003000654345BUBBLE NOVELTY MIX 4PCE0000002000+00002630+00000+0001T   00002630+0000001251          1400 LY3131               3AZ
306248004306248006-000804     306248006003000574445STREAMERS 6-ROLLS 2.5cm0000001000+00001753+00000+0001T   00001753+0000001251          1400 LY3131               3AZ
306248005306248006-000120     306248006001023346889BALLOONS 10PC MIX COL  0000001000+00001753+00000+0001T   00001753+0000001251          1400 LY3131               3AZ
306248006306248077-000318     306248006001023609755GIFT-BAG 18X23CM E/D AN0000001000+00001227+00000+0001T   00001227+0000001251          1400 LY3112               3AZ
306249000306249               306249               170213DA     1400+00000+DA0000001753+0000001753+000000000+000000246+0000001990+0000000009+I20000000000+0000001990+Z
306249001306249077-000299-A   306249006003000670888GIFT-BAG PAPER JMB LOVE0000001000+00001753+00000+0001T   00001753+0000001254          1400 LY3112               3AZ
306250000306250               306250               170213DA     1400+00000+DA0000002192+0000002192+000000000+000000307+0000002490+0000000009+I20000000000+0000002490+Z
306250001306250077-000926     306250006003000414178G/WRAP 700mmx2m LOVE   0000001000+00002192+00000+0001T   00002192+0000001255          1400 LY3112               3AZ
306251000306251               306251               170213DA     1400+00000+DA0000006224+0000006224+000000000+000000872+0000007090+0000000006+I20000000000+0000007090+Z
306251001306251077-000299     306251006003000395576G/BAG 32x25cm LRG LOVE 0000001000+00001490+00000+0001T   00001490+0000001258          1400 LY3112               3AZ
306251002306251077-000322     306251006001023677532GIFT-BAG 18X23CM E/D FL0000001000+00001227+00000+0001T   00001227+0000001258          1400 LY3112               3AZ
306251003306251018-005009     306251006001023725608MUG W/PLUSH-BEAR LOVE  0000001000+00003507+00000+0001T   00003507+0000001258          1400 LY3515               3AZ
306252000306252               306252               170213DA     1400+00000+DA0000001576+0000001576+000000000+000000222+0000001790+0000000008+I20000000000+0000001790+Z
306252001306252079-009702-D   306252008427973059354PAPER SIRIO A2 RED COL 0000001000+00001051+00000+0001T   00001051+0000001259          1400 LY3130               3AZ
306252002306252903-000155     306252006009803374435SWT LOLLY I LUV U HEART0000001000+00000525+00000+0001T   00000525+0000001259          1400 LY3150               3AZ
306253000306253               306253               170213DA     1400+00000+DA0000001753+0000001753+000000000+000000246+0000001990+0000000009+I20000000000+0000001990+Z
306253001306253084-006995     306253006003000092802NAIL CLIPPER 8cm TOE   0000001000+00001753+00000+0001T   00001753+0000001304          1400 LY3200               3AZ
306254000306254               306254               170213DA     1400+00000+DA0000008771+0000008771+000000000+000001228+0000009990+0000000009+I20000000000+0000009990+Z
306254001306254027-000230     306254006001023606198MOP COMPLETE WONDERMOP 0000001000+00008771+00000+0001T   00008771+0000001306          1400 LY3212               3AZ
306255000306255               306255               170213DA     1400+00000+DA0000000048+0000000048+000000000+000000007+0000000050+0000000005+I20000000000+0000000050+Z
306255001306255112-116069     306255006009681820277TCS CARRIER BAG JUMBO  0000001000+00000048+00000+0001T   00000048+0000001307          1400 LY3090               3AZ
306256000306256               306256               170213DA     1400+00000+DA0000008769+0000008769+000000000+000001228+0000009990+0000000007+I20000000000+0000009990+Z
306256001306256079-000013     306256006001023463890P/CRAYONS 24COL 18cm   0000001000+00003507+00000+0001T   00003507+0000001308          1400 LY3130               3AZ
306256002306256562-000001     306256006009801541556MARLIN PLASTIC ABACUS  0000001000+00005262+00000+0001T   00005262+0000001308          1400 LY3755               3AZ
306257000306257               306257               170213DA     1400+00000+DA0000000035+0000000035+000000000+000000005+0000000040+0000000000+I20000000000+0000000040+Z
306257001306257112-116038     306257006009681820246TCS CARRIER BAG MIDI   0000001000+00000035+00000+0001T   00000035+0000001310          1400 LY3090               3AZ
306258000306258               306258               170213DA     1400+00000+DA0000001269+0000001269+000000000+000000179+0000001440+0000000008+I20000000000+0000001440+Z
306258001306258903-000183     306258006003000451043SWT LB HEART LOLLY     0000001000+00000393+00000+0001T   00000393+0000001313          1400 LY3150               3AZ
306258002306258077-000150-D   306258006003000054343GIFT-WRAP CELLPHANE CLR0000001000+00000876+00000+0001T   00000876+0000001313          1400 LY3112               3AZ
306259000306259               306259               170213DA     1400+00000+DA0000002978+0000002978+000000000+000000419+0000003390+0000000007+I20000000000+0000003390+Z
306259001306259079-009702-D   306259008427973059354PAPER SIRIO A2 RED COL 0000002000+00001051+00000+0001T   00001051+0000001315          1400 LY3130               3AZ
306259002306259033-005931     306259006001023678447PINS ON-WHEEL PEARLIZED0000001000+00000876+00000+0001T   00000876+0000001315          1400 LY3200               3AZ
306260000306260               306260               170213DA     1400+00000+DA0000001402+0000001402+000000000+000000197+0000001590+0000000009+I20000000000+0000001590+Z
306260001306260046-000011     306260004897006172994BATTERIES SIZE:AA  2PCE0000001000+00001402+00000+0001T   00001402+0000001315          1400 LY3312               3AZ
306261000306261               306261               170213DA     1400+00000+DA0000000262+0000000262+000000000+000000037+0000000290+0000000009+I20000000000+0000000290+Z
306261001306261903-000216     306261006925925900966SWT MALLOW TWIST ERKO  0000001000+00000262+00000+0001T   00000262+0000001323          1400 LY3150               3AZ
306262000306262               306262               170213DA     1400+00000+DA0000000872+0000000872+000000000+000000124+0000000990+0000000006+I20000000000+0000000990+Z
306262001306262006-000170-K   306262006003000609284BALLOONS 1PC PURPLE    0000002000+00000218+00000+0001T   00000218+0000001330          1400 LY3131               3AZ
306262002306262006-000171-D   306262006003000609291BALLOONS 1PC ORANGE PRN0000001000+00000218+00000+0001T   00000218+0000001330          1400 LY3131               3AZ
306262003306262006-000171-C   306262006003000609178BALLOONS 1PC D/GRN PRNT0000001000+00000218+00000+0001T   00000218+0000001330          1400 LY3131               3AZ
306263000306263               306263               170213DA     1400+00000+DA0000002630+0000002630+000000000+000000369+0000002999+0000000000+I40000002999+0000000000+Z
306263001306263077-000270     306263006003000395453GIFT-BAG PPR JMB 33X45 0000001000+00002630+00000+0001T   00002630+0000001332          1400 LY3112               3AZ
306264000306264               306264               170213DA     1400+00000+DA0000001490+0000001490+000000000+000000209+0000001690+0000000009+I20000000000+0000001690+Z
306264001306264034-078833     306264006001023857491SIGN BABY-ON-BOARD     0000001000+00001490+00000+0001T   00001490+0000001336          1400 LY3215               3AZ
306265000306265               306265               170213DA     1400+00000+DA0000003153+0000003153+000000000+000000444+0000003590+0000000007+I20000000000+0000003590+Z
306265001306265079-009702-B   306265008427973059491PAPER SIRIO A2 WHITE   0000002000+00001051+00000+0001T   00001051+0000001339          1400 LY3130               3AZ
306265002306265079-009702-C   306265008427973059309PAPER SIRIO A2 VIOLET  0000001000+00001051+00000+0001T   00001051+0000001339          1400 LY3130               3AZ
306266000306266               306266               170213DA     1400+00000+DA0000004120+0000004120+000000000+000000578+0000004690+0000000008+I20000000000+0000004690+Z
306266001306266159-000684     306266006001023776532BATH BODY-GLOVE 18cm   0000001000+00002630+00000+0001T   00002630+0000001344          1400 LY3200               3AZ
306266002306266079-000512     306266006001023635853CRAYONS WAX 12-COLOUR  0000001000+00001490+00000+0001T   00001490+0000001344          1400 LY3130               3AZ
306267000306267               306267               170213DA     1400+00000+DA0000003507+0000003507+000000000+000000491+0000003990+0000000008+I20000000000+0000003990+Z
306267001306267028-002101     306267006002580009507CHAIR JUNIOR    ASSTD  0000001000+00003507+00000+0001T   00003507+0000001348          1400 LY3305               3AZ
306268000306268               306268               170213DA     1400+00000+DA0000001490+0000001490+000000000+000000209+0000001690+0000000009+I20000000000+0000001690+Z
306268001306268140-001004     306268006001023880932FLY-RIBBONS 4PCE PL    0000001000+00001490+00000+0001T   00001490+0000001349          1400 LY3830               3AZ
306269000306269               306269               170213DA     1400+00000+DA0000014559+0000014559+000000000+000002039+0000016590+0000000008+I20000000000+0000016590+Z
306269001306269486-001001     306269006003000530854W/CLOCK QTZ 30cm ROUND 0000001000+00013157+00000+0001T   00013157+0000001351          1400 LY3510               3AZ
306269002306269046-000011     306269004897006172994BATTERIES SIZE:AA  2PCE0000001000+00001402+00000+0001T   00001402+0000001351          1400 LY3312               3AZ
306270000306270               306270               170213DA     1400+00000+DA0000007013+0000007013+000000000+000000983+0000007990+0000000006+I20000000000+0000007990+Z
306270001306270072-000601     306270006003000603466PET DOG HARNESS 20-35cm0000001000+00003507+00000+0001T   00003507+0000001354          1400 LY3870               3AZ
306270002306270072-000228     306270006003000235940DOG-COL REFLCTV 25-40cm0000001000+00001753+00000+0001T   00001753+0000001354          1400 LY3870               3AZ
306270003306270072-020308     306270006001023700971DOG-TOY FOOTBALL 11,5cm0000001000+00001753+00000+0001T   00001753+0000001354          1400 LY3870               3AZ
306271000306271               306271               170213DA     1400+00000+DA0000002192+0000002192+000000000+000000307+0000002490+0000000009+I20000000000+0000002490+Z
306271001306271050-000363-Z   306271006001023475282PADLOCK IRON 32mm CARD 0000001000+00002192+00000+0001T   00002192+0000001405          1400 LY3855               3AZ
306272000306272               306272               170213DA     1400+00000+DA0000003242+0000003242+000000000+000000455+0000003690+0000000007+I20000000000+0000003690+Z
306272001306272018-000170     306272006001023775528MUG OCC. LOVE 2PC MINI 0000001000+00002192+00000+0001T   00002192+0000001415          1400 LY3515               3AZ
306272002306272903-000155     306272006009803374435SWT LOLLY I LUV U HEART0000002000+00000525+00000+0001T   00000525+0000001415          1400 LY3150               3AZ
306273000306273               306273               170213DA     1400+00000+DA0000001490+0000001490+000000000+000000209+0000001690+0000000009+I20000000000+0000001690+Z
306273001306273077-000299     306273006003000395576G/BAG 32x25cm LRG LOVE 0000001000+00001490+00000+0001T   00001490+0000001418          1400 LY3112               3AZ
306274000306274               306274               170213DA     1400+00000+DA0000001139+0000001139+000000000+000000160+0000001290+0000000009+I20000000000+0000001290+Z
306274001306274903-000087     306274006001704000161SWT SPECKLED-EGGS 50G  0000001000+00001139+00000+0001T   00001139+0000001419          1400 LY3150               3AZ
306275000306275               306275               170213DA     1400+00000+DA0000001490+0000001490+000000000+000000209+0000001690+0000000009+I20000000000+0000001690+Z
306275001306275039-000108     306275006001023524034TEA-LITE CANDLES 8PCE  0000001000+00001490+00000+0001T   00001490+0000001420          1400 LY3510               3AZ
306276000306276               306276               170213DA     1400+00000+DA0000006790+0000006790+000000000+000000957+0000007740+0000000007+I20000000000+0000007740+Z
306276001306276006-000789     306276006001023148612CROWN BOY              0000002000+00002192+00000+0001T   00002192+0000001421          1400 LY3131               3AZ
306276002306276903-000183     306276006003000451043SWT LB HEART LOLLY     0000006000+00000393+00000+0001T   00000393+0000001421          1400 LY3150               3AZ
306276003306276112-116069     306276006009681820277TCS CARRIER BAG JUMBO  0000001000+00000048+00000+0001T   00000048+0000001421          1400 LY3090               3AZ
306277000306277               306277               170213DA     1400+00000+DA0000001489+0000001489+000000000+000000209+0000001690+0000000008+I20000000000+0000001690+Z
306277001306277077-000011-L   306277006001023808585P/TISSUE BRIGHT 10SHEET0000001000+00000876+00000+0001T   00000876+0000001429          1400 LY3112               3AZ
306277002306277077-000311     306277006001023608666GIFT-BAG 11X14CM GLOSS 0000001000+00000613+00000+0001T   00000613+0000001429          1400 LY3112               3AZ
306278000306278               306278               170213DA     1400+00000+DA0000002278+0000002278+000000000+000000320+0000002590+0000000008+I20000000000+0000002590+Z
306278001306278903-000710     306278006002099007056SWT REFRESHERS MINT    0000002000+00001139+00000+0001T   00001139+0000001430          1400 LY3150               3AZ
306279000306279               306279               170213DA     1400+00000+DA0000004821+0000004821+000000000+000000675+0000005490+0000000006+I20000000000+0000005490+Z
306279001306279106-001110     306279006001023857880SPORTS-BOTTLES SET-OF-20000001000+00003507+00000+0001T   00003507+0000001440          1400 LY3210               3AZ
306279002306279105-001015     306279006002638001293LUNCH BOX WITH CLIP    0000001000+00001314+00000+0001T   00001314+0000001440          1400 LY3210               3AZ
306280000306280               306280               170213DA     1400+00000+DA0000003243+0000003243+000000000+000000455+0000003690+0000000008+I20000000000+0000003690+Z
306280001306280077-000299     306280006003000395576G/BAG 32x25cm LRG LOVE 0000001000+00001490+00000+0001T   00001490+0000001441          1400 LY3112               3AZ
306280002306280903-000619     306280006003000672455SWT LOLLY STR/BRRY 140G0000001000+00001753+00000+0001T   00001753+0000001441          1400 LY3150               3AZ
306281000306281               306281               170213DA     1400+00000+DA0000001753+0000001753+000000000+000000246+0000001990+0000000009+I20000000000+0000001990+Z
306281001306281071-003879     306281006936198404198PENCIL HB BLU/WHITE 12s0000001000+00001753+00000+0001T   00002630+0008151442          1400 LY3130               3AZ
306282000306282               306282               170213DA     1400+00000+DA0000002100+0000002100+000000000+000000296+0000002390+0000000006+I20000000000+0000002390+Z
306282001306282903-000155     306282006009803374435SWT LOLLY I LUV U HEART0000004000+00000525+00000+0001T   00000525+0000001443          1400 LY3150               3AZ
306283000306283               306283               170213DA     1400+00000+DA0000007014+0000007014+000000000+000000982+0000007990+0000000006+I20000000000+0000007990+Z
306283001306283071-000701     306283006001023852830CLIPBOARD A4  23x30cm  0000002000+00003507+00000+0001T   00003507+0000001443          1400 LY3130               3AZ
306284000306284               306284               170213DA     1400+00000+DA0000000035+0000000035+000000000+000000005+0000000040+0000000000+I20000000000+0000000040+Z
306284001306284112-116038     306284006009681820246TCS CARRIER BAG MIDI   0000001000+00000035+00000+0001T   00000035+0000001444          1400 LY3090               3AZ
306285000306285               306285               170213DA     1400+00000+DA0000003156+0000003156+000000000+000000442+0000003598+0000000000+I40000003598+0000000000+Z
306285001306285077-000303     306285006001023593757GIFT-BAG PAPER MED     0000002000+00001578+00000+0001T   00001578+0000001447          1400 LY3112               3AZ
306286000306286               306286               170213DA     1400+00000+DA0000004208+0000004208+000000000+000000590+0000004790+0000000008+I20000000000+0000004790+Z
306286001306286200-000211     306286006003000671847BAKING-PANS ALUM-FOIL  0000001000+00001753+00000+0001T   00001753+0000001453          1400 LY3214               3AZ
306286002306286200-000220     306286006008766126976BAKEPANS 5PCE          0000001000+00002455+00000+0001T   00002455+0000001453          1400 LY3214               3AZ
306287000306287               306287               170213DA     1400+00000+DA0000002192+0000002192+000000000+000000307+0000002490+0000000009+I20000000000+0000002490+Z
306287001306287006-000789     306287006001023148612CROWN BOY              0000001000+00002192+00000+0001T   00002192+0000001501          1400 LY3131               3AZ
306288000306288               306288               170213DA     1400+00000+DA0000001227+0000001227+000000000+000000172+0000001390+0000000009+I20000000000+0000001390+Z
306288001306288033-001400     306288006009654960474HAIR-CURLERS 10PCE SML 0000001000+00001227+00000+0001T   00001227+0000001507          1400 LY3200               3AZ
306289000306289               306289               170213DA     1400+00000+DA0000002630+0000002630+000000000+000000369+0000002990+0000000009+I20000000000+0000002990+Z
306289001306289263-001003     306289006001023789846CARS RACING SET-OF-2   0000001000+00002630+00000+0001T   00002630+0000001510          1400 LY3710               3AZ
306290000306290               306290               170213DA     1400+00000+DA0000002190+0000002190+000000000+000000307+0000002490+0000000007+I20000000000+0000002490+Z
306290001306290077-000310     306290006001023608635GIFT-BAG 18X23CM GLOSS 0000001000+00001314+00000+0001T   00001314+0000001515          1400 LY3112               3AZ
306290002306290077-000011-D   306290006001023808554TISSUE-WRAP WHITE 10PCE0000001000+00000876+00000+0001T   00000876+0000001515          1400 LY3112               3AZ
306291000306291               306291               170213DA     1400+00000+DA0000002192+0000002192+000000000+000000307+0000002490+0000000009+I20000000000+0000002490+Z
306291001306291033-000780     306291006001023752611COSMETIC-BRUSH-SET 7PCE0000001000+00002192+00000+0001T   00002192+0000001516          1400 LY3200               3AZ
306292000306292               306292               170213DA     1400+00000+DA0000002145+0000002145+000000000+000000301+0000002440+0000000006+I20000000000+0000002440+Z
306292001306292079-009700-D   306292006003000545711PAPER SIRIO A4 RED COL.0000001000+00000306+00000+0001T   00000306+0000001519          1400 LY3130               3AZ
306292002306292566-000351     306292006001023809230STICKERS D/CUT ALPHABET0000001000+00001314+00000+0001T   00001753+0008151519          1400 LY3130               3AZ
306292003306292903-000151     306292006009803374411SWT SML RND R/BOW LOLLY0000001000+00000525+00000+0001T   00000525+0000001519          1400 LY3150               3AZ
306293000306293               306293               170213DA     1400+00000+DA0000001753+0000001753+000000000+000000246+0000001990+0000000009+I20000000000+0000001990+Z
306293001306293027-077605     306293006001023997678STEELWOOL PADS 12PC 72g0000001000+00001753+00000+0001T   00001753+0000001522          1400 LY3212               3AZ
306294000306294               306294               170213DA     1400+00000+DA0000000393+0000000393+000000000+000000056+0000000440+0000000009+I20000000000+0000000440+Z
306294001306294903-000183     306294006003000451043SWT LB HEART LOLLY     0000001000+00000393+00000+0001T   00000393+0000001529          1400 LY3150               3AZ
306295000306295               306295               170213DA     1400+00000+DA0000001839+0000001839+000000000+000000258+0000002090+0000000007+I20000000000+0000002090+Z
306295001306295903-000087     306295006001704000161SWT SPECKLED-EGGS 50G  0000001000+00001139+00000+0001T   00001139+0000001529          1400 LY3150               3AZ
306295002306295564-000012     306295006001023130075BUBBLE BOTTLE MAGIC    0000001000+00000700+00000+0001T   00000700+0000001529          1400 LY3131               3AZ
306296000306296               306296               170213DA     1400+00000+DA0000003069+0000003069+000000000+000000430+0000003490+0000000009+I20000000000+0000003490+Z
306296001306296301-085008     306296006003000673933ORN OCC.LOVE TINSEL HRT0000001000+00003069+00000+0001T   00003069+0000001531          1400 LY3505               3AZ
306297000306297               306297               170213DA     1400+00000+DA0000000262+0000000262+000000000+000000037+0000000290+0000000009+I20000000000+0000000290+Z
306297001306297903-000216     306297006925925900966SWT MALLOW TWIST ERKO  0000001000+00000262+00000+0001T   00000262+0000001641          1400 LY3150               3AZ
306298000306298               306298               170213DA     1400+00000+DA0000002630+0000002630+000000000+000000369+0000002990+0000000009+I20000000000+0000002990+Z
306298001306298079-001002     306298006003000448715CANVAS A4 WOOD MOUNTED 0000001000+00002630+00000+0001T   00002630+0000001643          1400 LY3130               3AZ
306299000306299               306299               170213DA     1400+00000+DA0000002192+0000002192+000000000+000000307+0000002490+0000000009+I20000000000+0000002490+Z
306299001306299024-091103     306299006003453014307BAKING-CUP MUFFIN 50PCE0000001000+00002192+00000+0001T   00002192+0000001644          1400 LY3300               3AZ
306300000306300               306300               170213DA     1400+00000+DA0000003066+0000003066+000000000+000000431+0000003490+0000000007+I20000000000+0000003490+Z
306300001306300903-000087     306300006001704000161SWT SPECKLED-EGGS 50G  0000001000+00001139+00000+0001T   00001139+0000001649          1400 LY3150               3AZ
306300002306300079-130100     306300006003000542635A&C DIY COLOUR EYES 24P0000001000+00001490+00000+0001T   00001490+0000001649          1400 LY3130               3AZ
306300003306300080-000133-A   306300006003000647019MINI VALENTINES CARD   0000001000+00000437+00000+0001T   00000437+0000001649          1400 LY3112               3AZ
306301000306301               306301               170213DA     1400+00000+DA0000007233+0000007233+000000000+000001016+0000008249+0000000000+I40000008249+0000000000+Z
306301001306301077-000010-U   306301006001023168863CREPE-PAPER CERISE-PINK0000002000+00000788+00000+0001T   00000788+0000001653          1400 LY3112               3AZ
306301002306301077-000245     306301006001023759214GIFT-RIBBON METALLICx2 0000001000+00001227+00000+0001T   00001227+0000001653          1400 LY3112               3AZ
306301003306301077-000151     306301006008766114676GIFT-WRAP C/PHANE ASSTD0000001000+00000876+00000+0001T   00000876+0000001653          1400 LY3112               3AZ
306301004306301077-000324     306301006001023677594GIFT-BAG 33X45CM E/D FL0000001000+00001753+00000+0001T   00001753+0000001653          1400 LY3112               3AZ
306301005306301112-116069     306301006009681820277TCS CARRIER BAG JUMBO  0000001000+00000048+00000+0001T   00000048+0000001653          1400 LY3090               3AZ
306301006306301046-002013-PK6 306301004897006174851BATTERY BUTTON AG13 6PC0000001000+00001753+00000+0001T   00001753+0000001653          1400 LY3312               3AZ
306302000306302               306302               170213DA     1400+00000+DA0000006340+0000006340+000000000+000000890+0000007230+0000000000+I40000007230+0000000000+Z
306302001306302079-009700-B   306302006003000547661PAPER SIRIO A4 WHITE   0000003000+00000306+00000+0001T   00000306+0000001657          1400 LY3130               3AZ
306302002306302079-009700-D   306302006003000545711PAPER SIRIO A4 RED COL.0000005000+00000306+00000+0001T   00000306+0000001657          1400 LY3130               3AZ
306302003306302006-000111     306302006003000519385BALLOONS LARGE 12PCE   0000001000+00002630+00000+0001T   00002630+0000001657          1400 LY3131               3AZ
306302004306302077-000245     306302006001023759214GIFT-RIBBON METALLICx2 0000001000+00001227+00000+0001T   00001227+0000001657          1400 LY3112               3AZ
306302005306302112-116038     306302006009681820246TCS CARRIER BAG MIDI   0000001000+00000035+00000+0001T   00000035+0000001657          1400 LY3090               3AZ
306303000306303               306303               170213DA     1400+00000+DA0000003542+0000003542+000000000+000000496+0000004030+0000000008+I20000000000+0000004030+Z
306303001306303018-000136     306303006001023659026MUG OCC LOVE W/PLUSH   0000001000+00003507+00000+0001T   00003507+0000001658          1400 LY3515               3AZ
306303002306303112-116038     306303006009681820246TCS CARRIER BAG MIDI   0000001000+00000035+00000+0001T   00000035+0000001658          1400 LY3090               3AZ
306304000306304               306304               170213DA     1400+00000+DA0000003506+0000003506+000000000+000000492+0000003990+0000000008+I20000000000+0000003990+Z
306304001306304077-000309     306304006001023608604GIFT-BAG 25X32CM GLOSS 0000001000+00001753+00000+0001T   00001753+0000001658          1400 LY3112               3AZ
306304002306304077-000011-X   306304006001023809827TISSUE-WRAP SILVER 10PC0000001000+00001753+00000+0001T   00001753+0000001658          1400 LY3112               3AZ
306305000306305               306305               170213DA     1400+00000+DA0000002541+0000002541+000000000+000000357+0000002890+0000000008+I20000000000+0000002890+Z
306305001306305304-001204     306305006001023737984FLOWER OCC. TEDDY/ROSES0000001000+00001402+00000+0001T   00001490+0006471707          1400 LY3510               3AZ
306305002306305903-000087     306305006001704000161SWT SPECKLED-EGGS 50G  0000001000+00001139+00000+0001T   00001139+0000001707          1400 LY3150               3AZ
306306000306306               306306               170213DA     1400+00000+DA0000012313+0000012313+000000000+000001725+0000014030+0000000008+I20000000000+0000014030+Z
306306001306306018-050000     306306006003000412679MUG OCC LOVE TWIN BEAR 0000002000+00006139+00000+0001T   00006139+0000001716          1400 LY3515               3AZ
306306002306306112-116038     306306006009681820246TCS CARRIER BAG MIDI   0000001000+00000035+00000+0001T   00000035+0000001716          1400 LY3090               3AZ
306307000306307               306307               170213DA     1400+00000+DA0000000035+0000000035+000000000+000000005+0000000040+0000000000+I20000000000+0000000040+Z
306307001306307112-116038     306307006009681820246TCS CARRIER BAG MIDI   0000001000+00000035+00000+0001T   00000035+0000001717          1400 LY3090               3AZ
306308000306308               306308               170213DA     1400+00000+DA0000005874+0000005874+000000000+000000823+0000006697+0000000000+I40000006697+0000000000+Z
306308001306308018-000170     306308006001023775528MUG OCC. LOVE 2PC MINI 0000001000+00002192+00000+0001T   00002192+0000001719          1400 LY3515               3AZ
306308002306308077-000303     306308006001023593757GIFT-BAG PAPER MED     0000001000+00001578+00000+0001T   00001578+0000001719          1400 LY3112               3AZ
306308003306308903-000095     306308006001704011495SWT SPECKLED-EGGS 100G 0000001000+00002104+00000+0001T   00002104+0000001719          1400 LY3150               3AZ
306309000306309               306309               170213DA     1400+00000+DA0000006309+0000006309+000000000+000000884+0000007190+0000000003+I20000000000+0000007190+Z
306309001306309903-000155     306309006009803374435SWT LOLLY I LUV U HEART0000001000+00000525+00000+0001T   00000525+0000001721          1400 LY3150               3AZ
306309002306309174-008024     306309006009654960368TRAVEL BOTTLES 2-PACK  0000001000+00001928+00000+0001T   00001928+0000001721          1400 LY3205               3AZ
306309003306309174-008032     306309006009654960603TRAVEL BOTTLES 50ml    0000002000+00001928+00000+0001T   00001928+0000001721          1400 LY3205               3AZ
306310000306310               306310               170213DA     1400+00000+DA0000015740+0000015740+000000000+000002206+0000017946+0000000000+I40000017946+0000000000+Z
306310001306310267-000233     306310006001023688576PUZZLE 48pc EDUCATIONAL0000001000+00003507+00000+0001T   00003507+0000001726          1400 LY3755               3AZ
306310002306310562-002008     306310006003000228300EDU THINK SIMPLE SUMS  0000001000+00007016+00000+0001T   00007016+0000001726          1400 LY3755               3AZ
306310003306310469-000012     306310006003000303335BUILDING BLOCKS RACERS 0000001000+00002630+00000+0001T   00002630+0000001726          1400 LY3755               3AZ
306310004306310903-000087     306310006001704000161SWT SPECKLED-EGGS 50G  0000001000+00001139+00000+0001T   00001139+0000001726          1400 LY3150               3AZ
306310005306310112-116069     306310006009681820277TCS CARRIER BAG JUMBO  0000001000+00000048+00000+0001T   00000048+0000001726          1400 LY3090               3AZ
306310006306310564-000012     306310006001023130075BUBBLE BOTTLE MAGIC    0000002000+00000700+00000+0001T   00000700+0000001726          1400 LY3131               3AZ
306311000306311               306311               170213DA     1400+00000+DA0000002630+0000002630+000000000+000000369+0000002999+0000000000+I40000002999+0000000000+Z
306311001306311079-013105     306311006001023863997ART+CRAFT DIY HAND PUPP0000001000+00002630+00000+0001T   00002630+0000001727          1400 LY3130               3AZ
306312000306312               306312               170213DA     1400+00000+DA0000004385+0000004385+000000000+000000614+0000004990+0000000009+I20000000000+0000004990+Z
306312001306312368-000001     306312006003000097982Plush Bear 25cm        0000001000+00004385+00000+0001T   00004385+0000001728          1400 LY3745               3AZ
306313000306313               306313               170213DA     1400+00000+DA0000004734+0000004734+000000000+000000664+0000005390+0000000008+I20000000000+0000005390+Z
306313001306313903-000095     306313006001704011495SWT SPECKLED-EGGS 100G 0000001000+00002104+00000+0001T   00002104+0000001729          1400 LY3150               3AZ
306313002306313033-000117     306313006003000450756COMBS STYLING SET-OF-5 0000001000+00002630+00000+0001T   00002630+0000001729          1400 LY3200               3AZ
306314000306314               306314               170213DA     1400+00000+DA0000003507+0000003507+000000000+000000491+0000003990+0000000008+I20000000000+0000003990+Z
306314001306314106-001110     306314006001023857880SPORTS-BOTTLES SET-OF-20000001000+00003507+00000+0001T   00003507+0000001730          1400 LY3210               3AZ
306315000306315               306315               170213DA     1400+00000+DA0000001753+0000001753+000000000+000000246+0000001990+0000000009+I20000000000+0000001990+Z
306315001306315469-003001     306315006003000541560BUILDING BLOCKS VEHICLE0000001000+00001753+00000+0001T   00001753+0000001731          1400 LY3755               3AZ
306316000306316               306316               170213DA     1400+00000+DA0000004385+0000004385+000000000+000000614+0000004999+0000000000+I40000004999+0000000000+Z
306316001306316001-000175     306316006001023788108B/MUG GLS LOVE 380ML   0000001000+00004385+00000+0001T   00004385+0000001737          1400 LY3515               3AZ
306317000306317               306317               170213DA     1400+00000+DA0000002628+0000002628+000000000+000000369+0000002990+0000000007+I20000000000+0000002990+Z
306317001306317077-000151     306317006008766114676GIFT-WRAP C/PHANE ASSTD0000003000+00000876+00000+0001T   00000876+0000001737          1400 LY3112               3AZ
306318000306318               306318               170213DA     1400+00000+DA0000008412+0000008412+000000000+000001181+0000009590+0000000003+I20000000000+0000009590+Z
306318001306318079-009702-G   306318008427973060787PAPER SIRIO A2 FUSHIA  0000001000+00001051+00000+0001T   00001051+0000001740          1400 LY3130               3AZ
306318002306318079-009702-F   306318008427973059392PAPER SIRIO A2 GREEN   0000001000+00001051+00000+0001T   00001051+0000001740          1400 LY3130               3AZ
306318003306318079-009702-C   306318008427973059309PAPER SIRIO A2 VIOLET  0000001000+00001051+00000+0001T   00001051+0000001740          1400 LY3130               3AZ
306318004306318018-000136     306318006001023659026MUG OCC LOVE W/PLUSH   0000001000+00003507+00000+0001T   00003507+0000001740          1400 LY3515               3AZ
306318005306318077-000151     306318006008766114676GIFT-WRAP C/PHANE ASSTD0000001000+00000876+00000+0001T   00000876+0000001740          1400 LY3112               3AZ
306318006306318071-005213     306318006001023690371CELLOTAPE 12mmx33m     0000001000+00000876+00000+0001T   00000876+0000001740          1400 LY3130               3AZ
306319000306319               306319               170213DA     1400+00000+DA0000005734+0000005734+000000000+000000803+0000006537+0000000000+I40000006537+0000000000+Z
306319001306319079-006498     306319006001023836151GLITTER SET 10PCE      0000001000+00003507+00000+0001T   00003507+0000001743          1400 LY3130               3AZ
306319002306319566-000359     306319006003000582709STICKER BOOK LOVE SPARK0000001000+00002192+00000+0001T   00002192+0000001743          1400 LY3130               3AZ
306319003306319112-116038     306319006009681820246TCS CARRIER BAG MIDI   0000001000+00000035+00000+0001T   00000035+0000001743          1400 LY3090               3AZ
306320000306320               306320               170213DA     1400+00000+DA0000003507+0000003507+000000000+000000491+0000003990+0000000008+I20000000000+0000003990+Z
306320001306320018-000136     306320006001023659026MUG OCC LOVE W/PLUSH   0000001000+00003507+00000+0001T   00003507+0000001744          1400 LY3515               3AZ
306321000306321               306321               170213DA     1400+00000+DA0000000437+0000000437+000000000+000000062+0000000490+0000000009+I20000000000+0000000490+Z
306321001306321080-000133-A   306321006003000647019MINI VALENTINES CARD   0000001000+00000437+00000+0001T   00000437+0000001746          1400 LY3112               3AZ
306322000306322               306322               170213DA     1400+00000+DA0000005829+0000005829+000000000+000000818+0000006647+0000000000+I40000006647+0000000000+Z
306322001306322903-000183     306322006003000451043SWT LB HEART LOLLY     0000001000+00000393+00000+0001T   00000393+0000001750          1400 LY3150               3AZ
306322002306322903-002891     306322008935001721376MENTOS GUM WINTERGREEN 0000001000+00001051+00000+0001T   00001051+0000001750          1400 LY3150               3AZ
306322003306322001-000175     306322006001023788108B/MUG GLS LOVE 380ML   0000001000+00004385+00000+0001T   00004385+0000001750          1400 LY3515               3AZ
306323000306323               306323               170213DA     1400+00000+DA0000002630+0000002630+000000000+000000369+0000002990+0000000009+I20000000000+0000002990+Z
306323001306323077-000270     306323006003000395453GIFT-BAG PPR JMB 33X45 0000001000+00002630+00000+0001T   00002630+0000001751          1400 LY3112               3AZ
306324000306324               306324               170213DA     1400+00000+DA0000000788+0000000788+000000000+000000111+0000000890+0000000009+I20000000000+0000000890+Z
306324001306324071-081101-A   306324006003000326549GLUE-STICK 25g BLISTER 0000001000+00000788+00000+0001T   00000788+0000001751          1400 LY3130               3AZ
306325000306325               306325               170213DA     1400+00000+DA0000002980+0000002980+000000000+000000418+0000003390+0000000008+I20000000000+0000003390+Z
306325001306325464-000106     306325006001023171153PLAYING-CARDS (SINGLE) 0000002000+00001490+00000+0001T   00001490+0000001818          1400 LY3785               3AZ
306326000306326               306326               170213DA     1400+00000+DA0000002100+0000002100+000000000+000000296+0000002390+0000000006+I20000000000+0000002390+Z
306326001306326903-000155     306326006009803374435SWT LOLLY I LUV U HEART0000002000+00000525+00000+0001T   00000525+0000001825          1400 LY3150               3AZ
306326002306326903-000151     306326006009803374411SWT SML RND R/BOW LOLLY0000001000+00000525+00000+0001T   00000525+0000001825          1400 LY3150               3AZ
306326003306326903-000155     306326006009803374435SWT LOLLY I LUV U HEART0000001000+00000525+00000+0001T   00000525+0000001825          1400 LY3150               3AZ
306327000306327               306327               170213DA     1400+00000+DA0000003980+0000003980+000000000+000000558+0000004530+0000000008+I20000000000+0000004530+Z
306327001306327051-005577     306327006001023534088GARDEN-TROWEL 250mm    0000001000+00003069+00000+0001T   00003069+0000001832          1400 LY3820               3AZ
306327002306327047-001333     306327006001838000495PLUGTOP CHUBBY         0000001000+00000876+00000+0001T   00000876+0000001832          1400 LY3880               3AZ
306327003306327112-116038     306327006009681820246TCS CARRIER BAG MIDI   0000001000+00000035+00000+0001T   00000035+0000001832          1400 LY3090               3AZ
306328000306328               306328               170213DA     1400+00000+DA0000002240+0000002240+000000000+000000314+0000002550+0000000004+I20000000000+0000002550+Z
306328001306328080-000127     306328006003000424351VALENTINES DAY 36x24CM 0000001000+00002192+00000+0001T   00002192+0000001833          1400 LY3112               3AZ
306328002306328112-116069     306328006009681820277TCS CARRIER BAG JUMBO  0000001000+00000048+00000+0001T   00000048+0000001833          1400 LY3090               3AZ
306329000306329               306329               170213DA     1400+00000+DA0000001179+0000001179+000000000+000000168+0000001347+0000000000+I40000001347+0000000000+Z
306329001306329903-000183     306329006003000451043SWT LB HEART LOLLY     0000003000+00000393+00000+0001T   00000393+0000001837          1400 LY3150               3AZ
306330000306330               306330               170213DA     1400+00000+DA0000003542+0000003542+000000000+000000496+0000004038+0000000000+I40000004038+0000000000+Z
306330001306330018-005009     306330006001023725608MUG W/PLUSH-BEAR LOVE  0000001000+00003507+00000+0001T   00003507+0000001840          1400 LY3515               3AZ
306330002306330112-116038     306330006009681820246TCS CARRIER BAG MIDI   0000001000+00000035+00000+0001T   00000035+0000001840          1400 LY3090               3AZ
306331000306331               306331               170213DA     1400+00000+DA0000002014+0000002014+000000000+000000282+0000002290+0000000006+I20000000000+0000002290+Z
306331001306331362-004000     306331000613153000225DISNEY T/BELL TRINKETS 0000001000+00000700+00000+0001T   00000876+0008181841          1400 LY3160               3AZ
306331002306331362-000307     306331006003000519750HAIR HEADBAND PRINTED  0000001000+00001314+00000+0001T   00001314+0000001841          1400 LY3160               3AZ
306332000306332               306332               170213DA     1400+00000+DA0000003014+0000003014+000000000+000000423+0000003430+0000000007+I20000000000+0000003430+Z
306332001306332077-000245     306332006001023759214GIFT-RIBBON METALLICx2 0000001000+00001227+00000+0001T   00001227+0000001844          1400 LY3112               3AZ
306332002306332077-000150-D   306332006003000054343GIFT-WRAP CELLPHANE CLR0000001000+00000876+00000+0001T   00000876+0000001844          1400 LY3112               3AZ
306332003306332077-000151     306332006008766114676GIFT-WRAP C/PHANE ASSTD0000001000+00000876+00000+0001T   00000876+0000001844          1400 LY3112               3AZ
306332004306332112-116038     306332006009681820246TCS CARRIER BAG MIDI   0000001000+00000035+00000+0001T   00000035+0000001844          1400 LY3090               3AZ
306333000306333               306333               170213DA     1400+00000+DA0000001227+0000001227+000000000+000000172+0000001390+0000000009+I20000000000+0000001390+Z
306333001306333903-000518     306333006001704012782SWT STRAWS S/BERRY 100g0000001000+00001227+00000+0001T   00001227+0000001845          1400 LY3150               3AZ
306334000306334               306334               170213DA     1400+00000+DA0000002630+0000002630+000000000+000000369+0000002990+0000000009+I20000000000+0000002990+Z
306334001306334466-072725     306334006001023622532YO-YO PL               0000001000+00002630+00000+0001T   00002630+0000001846          1400 LY3785               3AZ
306335000306335               306335               170213DA     1400+00000+DA0000001578+0000001578+000000000+000000221+0000001790+0000000009+I20000000000+0000001790+Z
306335001306335077-000323     306335006001023677563G/BAG 25X32CM E/DAY FLO0000001000+00001578+00000+0001T   00001578+0000001849          1400 LY3112               3AZ
306336000306336               306336               170213DA     1400+00000+DA0000002240+0000002240+000000000+000000314+0000002550+0000000004+I20000000000+0000002550+Z
306336001306336080-000127     306336006003000424351VALENTINES DAY 36x24CM 0000001000+00002192+00000+0001T   00002192+0000001857          1400 LY3112               3AZ
306336002306336112-116069     306336006009681820277TCS CARRIER BAG JUMBO  0000001000+00000048+00000+0001T   00000048+0000001857          1400 LY3090               3AZ
306337000306337               306337               170213DA     1400+00000+DA0000001753+0000001753+000000000+000000246+0000001990+0000000009+I20000000000+0000001990+Z
306337001306337046-002016-PK2 306337004897006175056BATTERIES CR-2016  2PCE0000001000+00001753+00000+0001T   00001753+0000001857          1400 LY3312               3AZ
306338000306338               306338               170213DA     1400+00000+DA0000004201-0000004201-000000000+000000589-0000004790-0000000000+I20000000000+0000004790-Z
306338001306338001-999906     306338000000000999906STATIONERY(PHOTOCOPIES)0000001000-00004201+00000+0001T   00000000+0000001859          1400 LY39062IC            3 Z
306339000306339               306339               170213DA     1400+00000+DA0000000613+0000000613+000000000+000000086+0000000690+0000000009+I20000000000+0000000690+Z
306339001306339077-000311     306339006001023608666GIFT-BAG 11X14CM GLOSS 0000001000+00000613+00000+0001T   00000613+0000001902          1400 LY3112               3AZ
306340000306340               306340               170213DA     1400+00000+DA0000000876+0000000876+000000000+000000123+0000000990+0000000009+I20000000000+0000000990+Z
306340001306340007-000127     306340006009685853431BOOK H/COVER MEMO 144PG0000001000+00000876+00000+0001T   00000876+0000001904          1400 LY3130               3AZ
306341000306341               306341               170213DA     1400+00000+DA0000002190+0000002190+000000000+000000307+0000002490+0000000007+I20000000000+0000002490+Z
306341001306341077-000314     306341006003000181148GIFT-BAG 11X14CM MATT  0000001000+00000876+00000+0001T   00000876+0000001906          1400 LY3112               3AZ
306341002306341030-000010     306341006003000084395P/DOOR HANGER 2-ASSTD  0000001000+00001314+00000+0001T   00001490+0008181906          1400 LY3505               3AZ
306342000306342               306342               170213DA     1400+00000+DA0000026177+0000026177+000000000+000003669+0000029846+0000000000+I40000029846+0000000000+Z
306342001306342072-020297-A   306342006003000603947PET CAT SCRATCH PAD    0000001000+00008771+00000+0001T   00008771+0000001913          1400 LY3870               3AZ
306342002306342072-020278     306342006003000024100PET CAT LITTER PAN PL  0000001000+00003507+00000+0001T   00003507+0000001913          1400 LY3870               3AZ
306342003306342072-020350     306342006001023598035PET DOG/CAT BOWL DOUBLE0000001000+00002630+00000+0001T   00002630+0000001913          1400 LY3870               3AZ
306342004306342072-000350     306342006003000304882PET CAT TOY PLUSH W/BEL0000001000+00003069+00000+0001T   00003069+0000001913          1400 LY3870               3AZ
306342005306342072-000327     306342006001023858504CAT-COLLAR+BELL        0000001000+00001753+00000+0001T   00001753+0000001913          1400 LY3870               3AZ
306342006306342072-020274     306342006001023858443LITTER-LINERS-BAGS 10PC0000001000+00002630+00000+0001T   00002630+0000001913          1400 LY3870               3AZ
306342007306342072-000327     306342006001023858504CAT-COLLAR+BELL        0000001000+00001753+00000+0001T   00001753+0000001913          1400 LY3870               3AZ
306342008306342072-020296     306342006005398061040PET CATNIP MARLTONS    0000001000+00002016+00000+0001T   00002016+0000001913          1400 LY3870               3AZ
306342009306342112-116069     306342006009681820277TCS CARRIER BAG JUMBO  0000001000+00000048+00000+0001T   00000048+0000001913          1400 LY3090               3AZ
A17021300                                          09213005DASLAVE 3                       LY32IC
C30626600                                          170213DA103-000250     13425860SLAVE 3     LY32IC0000000000+0000000000+0010000001000+
C30629400                                          170213DA903-000194     15284325SLAVE 3     LY32IC0000000000+0000000000+0010000001000+
M17021391                              CASH        DASLAVE 3                       Z-REPORT No.   673TOTAL (Sales - Refunds)           5669.28       CASH TO BE BANKED                 4107.40       DEBIT CARDS                          0.00       CREDIT CARDS                      1513.98       Z-READING                         5621.38       AIRTIME DEBIT CARD SALES             0.00       AIRTIME CARD SALES                   0.00       OVERS/UNDERS                         0.00       AIRTIME CASH SALES                   0.00       GIFT CARDS                           0.00       GIFT CARD CASH SALES                 0.00       STATIONERY(PHOTOCOPIES)             47.90       T O T A L  CASH PAYOUTS             47.90                                                                                                                                                                                                                                                                                                      Z
M17021392                              CASH        DAABSENT                                                                                                                                                                                          ANNUAL LEAVE                                                                                                                                                                                    DAY OFF                                                                                                                                                                                         COMMENTS                                                                                                                                                                                                                                                                                                                                                                                       Z
Y17021300                                          DA00000000498012+000138
ZDA17021319273 SLAVE 3      SALES DATA                     NEXT INVOICE NO.  306343 0673
F093746496-056483         1701271322040000202ICSLAVE 3
F093755496-056483         1701271322090000202ICSLAVE 3
F093756496-057190         1701271322130000042ICSLAVE 3
F093760496-056475         1701271322180000032ICSLAVE 3
F093994496-028142         1701271322280000022ICSLAVE 3
F094024496-028272         1701271322340000022ICSLAVE 3
F094095496-028122         1701271322390000042ICSLAVE 3
F094757031-000873-B       1702081811240000052ICSLAVE 3
F094797089-000030         1702091014080000042ICSLAVE 3
X DA Slave 3 First invoice 306204 170213 Last invoice 306342 170213 Next invoice 306343 Total number of records 000000398 clbackup completed 19:27:43
