317586000317586               317586               170213DB     1400+00000+DB0000004120+0000004120+000000000+000000578+0000004690+0000000008+I20000000000+0000004690+Z
317586001317586562-000010     317586006001023762528KID'S PLAY DOUGH       0000001000+00002630+00000+0001T   00002630+0000000902          1400 JU5755               1AZ
317586002317586079-000512     317586006001023635853CRAYONS WAX 12-COLOUR  0000001000+00001490+00000+0001T   00001490+0000000902          1400 JU5130               1AZ
317587000317587               317587               170213DB     1400+00000+DB0000001227+0000001227+000000000+000000172+0000001390+0000000009+I20000000000+0000001390+Z
317587001317587002-000970     317587006001023770578FUNNELS 3PCE WHITE     0000001000+00001227+00000+0001T   00001227+0000000911          1400 JU5300               1AZ
317588000317588               317588               170213DB     1400+00000+DB0000018419+0000018419+000000000+000002579+0000020990+0000000008+I20000000000+0000020990+Z
317588001317588113-000011     317588006001023711793FLASK S/S 350ml        0000001000+00008771+00000+0001T   00008771+0000000914          1400 JU5305               1AZ
317588002317588028-000026     317588006001023810847COOLER-BAG+POCKET NYLON0000001000+00009648+00000+0001T   00009648+0000000914          1400 JU5305               1AZ
317589000317589               317589               170213DB     1400+00000+DB0000000613+0000000613+000000000+000000086+0000000690+0000000009+I20000000000+0000000690+Z
317589001317589027-078282     317589006001023767837SCOURER 25g SPIRAL-BALL0000001000+00000613+00000+0001T   00000613+0000000918          1400 JU5212               1AZ
317590000317590               317590               170213DB     1400+00000+DB0000005262+0000005262+000000000+000000737+0000005999+0000000000+I40000005999+0000000000+Z
317590001317590107-004510     317590006002580008968STEP-STOOL PL          0000001000+00005262+00000+0001T   00005262+0000000920          1400 JU5210               1AZ
317591000317591               317591               170213DB     1400+00000+DB0000016443+0000016443+000000000+000002304+0000018747+0000000000+I40000018747+0000000000+Z
317591001317591001-091415     317591006003000329113W/GLS OCC. LOVE 2PC 2800000001000+00008771+00000+0001T   00009648+0006470924          1400 JU5515               1AZ
317591002317591077-000299     317591006003000395576G/BAG 32x25cm LRG LOVE 0000001000+00001490+00000+0001T   00001490+0000000924          1400 JU5112               1AZ
317591003317591903-000215     317591006002099001214SWT GS MALLOW TWIST PAC0000002000+00001753+00000+0001T   00001753+0000000924          1400 JU5150               1AZ
317591004317591903-005000     317591006002580020007SWT CT MALLOW FISH 120g0000002000+00001314+00000+0001T   00001314+0000000924          1400 JU5150               1AZ
317591005317591112-116069     317591006009681820277TCS CARRIER BAG JUMBO  0000001000+00000048+00000+0001T   00000048+0000000924          1400 JU5090               1AZ
317592000317592               317592               170213DB     1400+00000+DB0000008764+0000008764+000000000+000001228+0000009990+0000000002+I20000000000+0000009990+Z
317592001317592006-000166-D   317592006003000516490BALLOONS LRG 6PC RED   0000001000+00001314+00000+0001T   00001314+0000000925          1400 JU5131               1AZ
317592002317592006-000166-H   317592006003000608096BALLOONS HELIUM 6PC WHT0000001000+00001314+00000+0001T   00001314+0000000925          1400 JU5131               1AZ
317592003317592006-000166-D   317592006003000516490BALLOONS LRG 6PC RED   0000001000+00001314+00000+0001T   00001314+0000000925          1400 JU5131               1AZ
317592004317592566-000359     317592006003000582709STICKER BOOK LOVE SPARK0000001000+00002192+00000+0001T   00002192+0000000925          1400 JU5130               1AZ
317592005317592019-071601     317592006001023771995RIVER-STONES 1kg WHITE 0000001000+00002630+00000+0001T   00002630+0000000925          1400 JU5510               1AZ
317593000317593               317593               170213DB     1400+00000+DB0000000437+0000000437+000000000+000000062+0000000490+0000000009+I20000000000+0000000490+Z
317593001317593080-000133-A   317593006003000647019MINI VALENTINES CARD   0000001000+00000437+00000+0001T   00000437+0000000926          1400 JU5112               1AZ
317594000317594               317594               170213DB     1400+00000+DB0000006185+0000006185+000000000+000000867+0000007050+0000000002+I20000000000+0000007050+Z
317594001317594159-000102     317594006001023552891SHOWER-CADDY 48cm      0000001000+00003507+00000+0001T   00003507+0000000927          1400 JU5200               1AZ
317594002317594027-009025     317594006003962000747DUSTPAN-SET PL         0000001000+00002630+00000+0001T   00002630+0000000927          1400 JU5212               1AZ
317594003317594112-116069     317594006009681820277TCS CARRIER BAG JUMBO  0000001000+00000048+00000+0001T   00000048+0000000927          1400 JU5090               1AZ
317595000317595               317595               170213DB     1400+00000+DB0000001839+0000001839+000000000+000000258+0000002090+0000000007+I20000000000+0000002090+Z
317595001317595903-000194     317595006009826020616SWT CHOC RP LOLLY 25G  0000001000+00001314+00000+0001T   00001314+0000000931          1400 JU5150               1AZ
317595002317595903-000155     317595006009803374435SWT LOLLY I LUV U HEART0000001000+00000525+00000+0001T   00000525+0000000931          1400 JU5150               1AZ
317596000317596               317596               170213DB     1400+00000+DB0000003542+0000003542+000000000+000000496+0000004030+0000000008+I20000000000+0000004030+Z
317596001317596018-005009     317596006001023725608MUG W/PLUSH-BEAR LOVE  0000001000+00003507+00000+0001T   00003507+0000000933          1400 JU5515               1AZ
317596002317596112-116038     317596006009681820246TCS CARRIER BAG MIDI   0000001000+00000035+00000+0001T   00000035+0000000933          1400 JU5090               1AZ
317597000317597               317597               170213DB     1400+00000+DB0000003069+0000003069+000000000+000000430+0000003490+0000000009+I20000000000+0000003490+Z
317597001317597075-000355     317597006003000571895PURSE 14X8cm 2-ZIP&HNDL0000001000+00003069+00000+0001T   00003069+0000000940          1400 JU5160               1AZ
317598000317598               317598               170213DB     1400+00000+DB0000010306+0000010306+000000000+000001444+0000011750+0000000000+I20000000000+0000011750+Z
317598001317598368-000001     317598006003000097982Plush Bear 25cm        0000001000+00004385+00000+0001T   00004385+0000000948          1400 JU5745               1AZ
317598002317598077-000354     317598006003000139224GIFT-BAG 25X32CM H/MADE0000001000+00001753+00000+0001T   00001753+0000000948          1400 JU5112               1AZ
317598003317598018-005009     317598006001023725608MUG W/PLUSH-BEAR LOVE  0000001000+00003507+00000+0001T   00003507+0000000948          1400 JU5515               1AZ
317598004317598112-116069     317598006009681820277TCS CARRIER BAG JUMBO  0000001000+00000048+00000+0001T   00000048+0000000948          1400 JU5090               1AZ
317598005317598306-000021     317598006001023169433EARBUDS 100PCE IN BAG  0000001000+00000613+00000+0001T   00000613+0000000948          1400 JU5200               1AZ
317599000317599               317599               170213DB     1400+00000+DB0000001227+0000001227+000000000+000000172+0000001390+0000000009+I20000000000+0000001390+Z
317599001317599079-001006     317599006003000677979ART+CRAFT STENCIL      0000001000+00001227+00000+0001T   00001227+0000000949          1400 JU5130               1AZ
317600000317600               317600               170213DB     1400+00000+DB0000013986+0000013986+000000000+000001960+0000015946+0000000000+I40000015946+0000000000+Z
317600001317600033-000013     317600006001023567215PILL-REMINDER PL       0000002000+00001227+00000+0001T   00001227+0000000954          1400 JU5200               1AZ
317600002317600251-000012     317600006001023597915TAPE DUCT GREY 48mmx5m 0000001000+00002630+00000+0001T   00002630+0000000954          1400 JU5810               1AZ
317600003317600047-005126     317600006001023451255CABLETIES 100/150/200mm0000001000+00002192+00000+0001T   00002192+0000000954          1400 JU5880               1AZ
317600004317600071-081091     317600006001151010287STAED/GENKEM ALL-STICK 0000001000+00001227+00000+0001T   00001227+0000000954          1400 JU5130               1AZ
317600005317600174-008034     317600006009654960610TRAVEL BOTTLES 150ml   0000001000+00001928+00000+0001T   00001928+0000000954          1400 JU5205               1AZ
317600006317600071-005060     317600006003000152186CELLOTAPE 2PACK INVSBLE0000001000+00003507+00000+0001T   00003507+0000000954          1400 JU5130               1AZ
317600007317600112-116069     317600006009681820277TCS CARRIER BAG JUMBO  0000001000+00000048+00000+0001T   00000048+0000000954          1400 JU5090               1AZ
317601000317601               317601               170213DB     1400+00000+DB0000014034+0000014034+000000000+000001965+0000015990+0000000009+I20000000000+0000015990+Z
317601001317601140-092001     317601006001023819154MOSQ-NET 900x230x60cm  0000001000+00014034+00000+0001T   00014034+0000000954          1400 JU5830               1AZ
317602000317602               317602               170213DB     1400+00000+DB0000002926+0000002926+000000000+000000411+0000003330+0000000007+I20000000000+0000003330+Z
317602001317602159-000043-H   317602006001023416629HOOKS ADHESIVE 3PCE SQR0000002000+00001139+00000+0001T   00001139+0000000955          1400 JU5200               1AZ
317602002317602306-000021     317602006001023169433EARBUDS 100PCE IN BAG  0000001000+00000613+00000+0001T   00000613+0000000955          1400 JU5200               1AZ
317602003317602112-116038     317602006009681820246TCS CARRIER BAG MIDI   0000001000+00000035+00000+0001T   00000035+0000000955          1400 JU5090               1AZ
317603000317603               317603               170213DB     1400+00000+DB0000005909+0000005909+000000000+000000828+0000006730+0000000007+I20000000000+0000006730+Z
317603001317603002-000741     317603006001023124777GRATER MINI W/CONTAINER0000001000+00001490+00000+0001T   00001490+0000000956          1400 JU5300               1AZ
317603002317603206-000100     317603006003000628063TONGS ICE COLD FINGERS 0000002000+00002192+00000+0001T   00002192+0000000956          1400 JU5321               1AZ
317603003317603112-116038     317603006009681820246TCS CARRIER BAG MIDI   0000001000+00000035+00000+0001T   00000035+0000000956          1400 JU5090               1AZ
317604000317604               317604               170213DB     1400+00000+DB0000007925+0000007925+000000000+000001112+0000009030+0000000007+I20000000000+0000009030+Z
317604001317604492-055602     317604000078257556021SWIM-GOGGLES PLAY      0000001000+00002630+00000+0001T   00002630+0000000957          1400 JU5787               1AZ
317604002317604019-071601     317604006001023771995RIVER-STONES 1kg WHITE 0000002000+00002630+00000+0001T   00002630+0000000957          1400 JU5510               1AZ
317604003317604112-116038     317604006009681820246TCS CARRIER BAG MIDI   0000001000+00000035+00000+0001T   00000035+0000000957          1400 JU5090               1AZ
317605000317605               317605               170213DB     1400+00000+DB0000001538+0000001538+000000000+000000216+0000001750+0000000004+I20000000000+0000001750+Z
317605001317605077-000327     317605006001023677686GIFT-BAG 25X32CM E/D BA0000001000+00001490+00000+0001T   00001490+0000000958          1400 JU5112               1AZ
317605002317605112-116069     317605006009681820277TCS CARRIER BAG JUMBO  0000001000+00000048+00000+0001T   00000048+0000000958          1400 JU5090               1AZ
317606000317606               317606               170213DB     1400+00000+DB0000034328+0000034328+000000000+000004810+0000039138+0000000000+I40000039138+0000000000+Z
317606001317606567-014134     317606006003000560189BOOK COLOURING 96 PAGE 0000002000+00002630+00000+0001T   00002630+0000001005          1400 JU5757               1AZ
317606002317606077-000304     317606006001023483232GIFT-BAG 25X32CM E/DAY 0000001000+00001490+00000+0001T   00001490+0000001005          1400 JU5112               1AZ
317606003317606077-000323     317606006001023677563G/BAG 25X32CM E/DAY FLO0000001000+00001578+00000+0001T   00001578+0000001005          1400 JU5112               1AZ
317606004317606903-005000     317606006002580020007SWT CT MALLOW FISH 120g0000002000+00001314+00000+0001T   00001314+0000001005          1400 JU5150               1AZ
317606005317606079-000510     317606006001023509079CRAYONS WAX 12-COLOUR  0000002000+00002455+00000+0001T   00002455+0000001005          1400 JU5130               1AZ
317606006317606567-010392     317606006002242053435GENERIC AFRIKAANS READE0000001000+00002192+00000+0001T   00002192+0000001005          1400 JU5757               1AZ
317606007317606567-010394     317606006002242053459GENERIC AFRIKAANS READE0000001000+00002192+00000+0001T   00002192+0000001005          1400 JU5757               1AZ
317606008317606567-010395     317606006002242053466GENERIC AFRIKAANS READE0000001000+00002192+00000+0001T   00002192+0000001005          1400 JU5757               1AZ
317606009317606567-010392     317606006002242053435GENERIC AFRIKAANS READE0000001000+00002192+00000+0001T   00002192+0000001005          1400 JU5757               1AZ
317606010317606567-075497     317606009780799381641BK NOVEL ROMANCE AFR   0000001000+00006139+00000+0001T   00006139+0000001005          1400 JU5757               1AZ
317606011317606112-116069     317606006009681820277TCS CARRIER BAG JUMBO  0000001000+00000048+00000+0001T   00000048+0000001005          1400 JU5090               1AZ
317606012317606567-011904     317606006003000676125BK EDUCATIONAL AFR 2   0000001000+00003507+00000+0001T   00004385+0008141005          1400 JU5757               1AZ
317607000317607               317607               170213DB     1400+00000+DB0000003856+0000003856+000000000+000000541+0000004397+0000000000+I40000004397+0000000000+Z
317607001317607150-004028-H   317607006003000649976BATH-PLUG RUBBER BLACK 0000002000+00000613+00000+0001T   00000613+0000001014          1400 JU5810               1AZ
317607002317607301-000834     317607006003000034987ORN ANIMAL W/LIFE 10CM 0000001000+00002630+00000+0001T   00003507+0008121014          1400 JU5505               1AZ
317608000317608               317608               170213DB     1400+00000+DB0000008364+0000008364+000000000+000001172+0000009530+0000000006+I20000000000+0000009530+Z
317608001317608567-011495     317608000076645122032BK ACTIVITY 96P BIBLE  0000001000+00002630+00000+0001T   00002630+0000001030          1400 JU5757               1AZ
317608002317608267-000200     317608006001023892379PUZZLE 24pc CARTOON    0000001000+00002192+00000+0001T   00002192+0000001030          1400 JU5755               1AZ
317608003317608469-000800     317608006003000652280BUILDING BLOCKS 9PC    0000001000+00003507+00000+0001T   00003507+0000001030          1400 JU5755               1AZ
317608004317608112-116038     317608006009681820246TCS CARRIER BAG MIDI   0000001000+00000035+00000+0001T   00000035+0000001030          1400 JU5090               1AZ
317609000317609               317609               170213DB     1400+00000+DB0000000613+0000000613+000000000+000000086+0000000690+0000000009+I20000000000+0000000690+Z
317609001317609306-000021     317609006001023169433EARBUDS 100PCE IN BAG  0000001000+00000613+00000+0001T   00000613+0000001031          1400 JU5200               1AZ
317610000317610               317610               170213DB     1400+00000+DB0000001753+0000001753+000000000+000000246+0000001990+0000000009+I20000000000+0000001990+Z
317610001317610200-003026     317610006003000276448REFUSE BAGS 10PCE GREEN0000001000+00001753+00000+0001T   00001753+0000001031          1400 JU5214               1AZ
317611000317611               317611               170213DB     1400+00000+DB0000011404+0000011404+000000000+000001595+0000012999+0000000000+I40000012999+0000000000+Z
317611001317611033-001500     317611006003000575763BRA CLIPS 10-PACK      0000001000-00002630+00000+0001T   00002630+0000001037          1400 JU52001IC            1 Z
317611002317611031-005918     317611006003000580453P/FRAME PL PLAIN 10X15 0000002000-00002630+00000+0001T   00002630+0000001037          1400 JU55101IC            1 Z
317611003317611031-086301-A   317611006001023910189P/FRAME PL BRONZE 10X150000002000+00004385+00000+0001T   00004385+0000001037          1400 JU5510               1AZ
317611004317611031-086301-B   317611006001023910219P/FRAME PL BRONZE 13X180000002000+00005262+00000+0001T   00005262+0000001037          1400 JU5510               1AZ
317612000317612               317612               170213DB     1400+00000+DB0000002631+0000002631+000000000+000000369+0000003000+0000000000+I20000000000+0000003000+Z
317612001317612082-094484     317612006001492944845#SUNGLASS GIRLS SPORT  0000001000+00002631+00000+0001T   00002631+0000001039          1400 JU5160               1AZ
317613000317613               317613               170213DB     1400+00000+DB0000001753+0000001753+000000000+000000246+0000001990+0000000009+I20000000000+0000001990+Z
317613001317613007-000205     317613006002324000432FILE BINDER 2-RING A4  0000001000+00001753+00000+0001T   00001753+0000001040          1400 JU5130               1AZ
317614000317614               317614               170213DB     1400+00000+DB0000009198+0000009198+000000000+000001291+0000010480+0000000009+I20000000000+0000010480+Z
317614001317614903-000200     317614006009826020234SWT CHOC RP CHOCO 23G  0000002000+00000788+00000+0001T   00000788+0000001042          1400 JU5150               1AZ
317614002317614903-000194     317614006009826020616SWT CHOC RP LOLLY 25G  0000001000+00001314+00000+0001T   00001314+0000001042          1400 JU5150               1AZ
317614003317614077-000303     317614006001023593757GIFT-BAG PAPER MED     0000001000+00001578+00000+0001T   00001578+0000001042          1400 JU5112               1AZ
317614004317614903-000155     317614006009803374435SWT LOLLY I LUV U HEART0000001000+00000525+00000+0001T   00000525+0000001042          1400 JU5150               1AZ
317614005317614077-000303     317614006001023593757GIFT-BAG PAPER MED     0000001000+00001578+00000+0001T   00001578+0000001042          1400 JU5112               1AZ
317614006317614903-000200     317614006009826020234SWT CHOC RP CHOCO 23G  0000001000+00000788+00000+0001T   00000788+0000001042          1400 JU5150               1AZ
317614007317614903-000155     317614006009803374435SWT LOLLY I LUV U HEART0000001000+00000525+00000+0001T   00000525+0000001042          1400 JU5150               1AZ
317614008317614903-000194     317614006009826020616SWT CHOC RP LOLLY 25G  0000001000+00001314+00000+0001T   00001314+0000001042          1400 JU5150               1AZ
317615000317615               317615               170213DB     1400+00000+DB0000004154+0000004154+000000000+000000582+0000004730+0000000006+I20000000000+0000004730+Z
317615001317615306-000020     317615006001023743145POCKET-TISSUES 10PCE   0000002000+00000306+00000+0001T   00000306+0000001046          1400 JU5200               1AZ
317615002317615162-085613     317615006001492856131SS KIDS PEARL SET      0000001000+00003507+00000+0001T   00003507+0000001046          1400 JU5160               1AZ
317615003317615112-116038     317615006009681820246TCS CARRIER BAG MIDI   0000001000+00000035+00000+0001T   00000035+0000001046          1400 JU5090               1AZ
317616000317616               317616               170213DB     1400+00000+DB0000006174+0000006174+000000000+000000865+0000007030+0000000009+I20000000000+0000007030+Z
317616001317616018-050000     317616006003000412679MUG OCC LOVE TWIN BEAR 0000001000+00006139+00000+0001T   00006139+0000001047          1400 JU5515               1AZ
317616002317616112-116038     317616006009681820246TCS CARRIER BAG MIDI   0000001000+00000035+00000+0001T   00000035+0000001047          1400 JU5090               1AZ
317617000317617               317617               170213DB     1400+00000+DB0000003330+0000003330+000000000+000000467+0000003790+0000000007+I20000000000+0000003790+Z
317617001317617018-000177     317617006001023797513MUG MINI LOVE ASSTD    0000001000+00000700+00000+0001T   00000700+0000001048          1400 JU5515               1AZ
317617002317617079-000350     317617006001023836052FELT-TIP PENS 6PCE     0000001000+00002630+00000+0001T   00002630+0000001048          1400 JU5130               1AZ
317618000317618               317618               170213DB     1400+00000+DB0000008727+0000008727+000000000+000001224+0000009951+0000000000+I40000009951+0000000000+Z
317618001317618365-003055     317618006001023832313KITCHEN-SET PL COOKING 0000001000+00006139+00000+0001T   00006139+0000001052          1400 JU5725               1AZ
317618002317618903-000155     317618006009803374435SWT LOLLY I LUV U HEART0000002000+00000525+00000+0001T   00000525+0000001052          1400 JU5150               1AZ
317618003317618051-002401     317618006001023523570TRIGGER-SPRAYER   300ml0000001000+00001490+00000+0001T   00001490+0000001052          1400 JU5820               1AZ
317618004317618112-116069     317618006009681820277TCS CARRIER BAG JUMBO  0000001000+00000048+00000+0001T   00000048+0000001052          1400 JU5090               1AZ
317619000317619               317619               170213DB     1400+00000+DB0000003331+0000003331+000000000+000000467+0000003790+0000000008+I20000000000+0000003790+Z
317619001317619566-001234     317619006003000217793STICKERS LASER ASSTD   0000001000+00001578+00000+0001T   00001578+0000001056          1400 JU5130               1AZ
317619002317619566-001228     317619006003000284153STICKERS CRYSTAL ASSTD 0000001000+00001753+00000+0001T   00001753+0000001056          1400 JU5130               1AZ
317620000317620               317620               170213DB     1400+00000+DB0000001753+0000001753+000000000+000000246+0000001990+0000000009+I20000000000+0000001990+Z
317620001317620071-002999-A   317620006003000611577PEN STICKBALL 10PCE ASS0000001000+00001753+00000+0001T   00001753+0000001058          1400 JU5130               1AZ
317621000317621               317621               170213DB     1400+00000+DB0000003944+0000003944+000000000+000000553+0000004490+0000000007+I20000000000+0000004490+Z
317621001317621486-000001     317621006001023507969ALARM-CLOCK SQ ASS     0000001000+00002630+00000+0001T   00002630+0000001102          1400 JU5510               1AZ
317621002317621046-000012     317621006904708013062BATTERIES AA  CARD-OF-40000001000+00001314+00000+0001T   00001314+0000001102          1400 JU5312               1AZ
317622000317622               317622               170213DB     1400+00000+DB0000001490+0000001490+000000000+000000209+0000001690+0000000009+I20000000000+0000001690+Z
317622001317622077-000299     317622006003000395576G/BAG 32x25cm LRG LOVE 0000001000+00001490+00000+0001T   00001490+0000001109          1400 JU5112               1AZ
317623000317623               317623               170213DB     1400+00000+DB0000000876+0000000876+000000000+000000123+0000000990+0000000009+I20000000000+0000000990+Z
317623001317623077-000314     317623006003000181148GIFT-BAG 11X14CM MATT  0000001000+00000876+00000+0001T   00000876+0000001112          1400 JU5112               1AZ
317624000317624               317624               170213DB     1400+00000+DB0000004820+0000004820+000000000+000000676+0000005490+0000000006+I20000000000+0000005490+Z
317624001317624306-000021-A   317624006001023891358EARBUDS COTTON 100PCE  0000001000+00000876+00000+0001T   00000876+0000001128          1400 JU5200               1AZ
317624002317624002-000684     317624006001023693778K/TOOL TURNER H/HOUSE  0000001000+00002192+00000+0001T   00002192+0000001128          1400 JU5300               1AZ
317624003317624084-070005     317624006001023627902NAIL FILES 6PCE H/GLOW 0000001000+00000876+00000+0001T   00000876+0000001128          1400 JU5200               1AZ
317624004317624033-001364     317624006001023802088HAIR-CLIPS 65mm 24PCE  0000001000+00000876+00000+0001T   00000876+0000001128          1400 JU5200               1AZ
317625000317625               317625               170213DB     1400+00000+DB0000004997+0000004997+000000000+000000700+0000005690+0000000007+I20000000000+0000005690+Z
317625001317625018-000136     317625006001023659026MUG OCC LOVE W/PLUSH   0000001000+00003507+00000+0001T   00003507+0000001135          1400 JU5515               1AZ
317625002317625077-000452     317625006003000284986G/BAG METALLIC MED EMB 0000001000+00001490+00000+0001T   00001490+0000001135          1400 JU5112               1AZ
317626000317626               317626               170213DB     1400+00000+DB0000013149+0000013149+000000000+000001845+0000014994+0000000000+I40000014994+0000000000+Z
317626001317626200-000230     317626006008766126990BAKEPANS 5PC RND 23x3cm0000002000+00002630+00000+0001T   00002630+0000001145          1400 JU5214               1AZ
317626002317626024-000038     317626006001023477026MEASURING-JUG 1L (4CUP)0000001000+00001753+00000+0001T   00001753+0000001145          1400 JU5300               1AZ
317626003317626027-009005     317626006001023713124D/BRUSH W/TOP BRISTLES 0000001000+00002630+00000+0001T   00002630+0000001145          1400 JU5212               1AZ
317626004317626024-000083     317626006001023770943SIEVE FLOUR 20cm MTL-RI0000002000+00001753+00000+0001T   00001753+0000001145          1400 JU5300               1AZ
317627000317627               317627               170213DB     1400+00000+DB0000002630+0000002630+000000000+000000369+0000002990+0000000009+I20000000000+0000002990+Z
317627001317627159-000117     317627006003000450398SHOWER CAP PVC ASSTD   0000001000+00002630+00000+0001T   00002630+0000001145          1400 JU5200               1AZ
317628000317628               317628               170213DB     1400+00000+DB0000000035+0000000035+000000000+000000005+0000000040+0000000000+I20000000000+0000000040+Z
317628001317628112-116038     317628006009681820246TCS CARRIER BAG MIDI   0000001000+00000035+00000+0001T   00000035+0000001146          1400 JU5090               1AZ
317629000317629               317629               170213DB     1400+00000+DB0000035999+0000035999+000000000+000005043+0000041042+0000000000+I40000041042+0000000000+Z
317629001317629112-116069     317629006009681820277TCS CARRIER BAG JUMBO  0000001000+00000048+00000+0001T   00000048+0000001151          1400 JU5090               1AZ
317629002317629133-000017     317629006003000525171CLEANING-CLOTHS 5PCE   0000001000+00003507+00000+0001T   00003507+0000001151          1400 JU5212               1AZ
317629003317629133-000008     317629006003000366453KITCHEN SWAB 3PCE CHECK0000001000+00003946+00000+0001T   00003946+0000001151          1400 JU5212               1AZ
317629004317629024-000033     317629006003000420278MEASURING JUG 1L H/H   0000001000+00002192+00000+0001T   00002192+0000001151          1400 JU5300               1AZ
317629005317629020-000141     317629006001023629524STEAK-KNIVES P.P.CARD-60000004000+00004385+00000+0001T   00004385+0000001151          1400 JU5300               1AZ
317629006317629104-000180     317629006001023765758CUTLERY-TRAY PL        0000001000+00003507+00000+0001T   00003507+0000001151          1400 JU5210               1AZ
317629007317629002-000883     317629006001023770394CAN-OPENER             0000003000+00001753+00000+0001T   00001753+0000001151          1400 JU5300               1AZ
317630000317630               317630               170213DB     1400+00000+DB0000002630+0000002630+000000000+000000369+0000002990+0000000009+I20000000000+0000002990+Z
317630001317630002-000884     317630006001023769589CAN-OPENER BUTTERFLY   0000001000+00002630+00000+0001T   00002630+0000001304          1400 JU5300               1AZ
317631000317631               317631               170213DB     1400+00000+DB0000092515+0000092515+000000000+000012961+0000105476+0000000000+I40000105476+0000000000+Z
317631001317631112-116069     317631006009681820277TCS CARRIER BAG JUMBO  0000002000+00000048+00000+0001T   00000048+0000001311          1400 JU5090               1AZ
317631002317631107-004105     317631006009703860984BUCKET 9L OPEN         0000002000+00001314+00000+0001T   00001314+0000001311          1400 JU5210               1AZ
317631003317631220-009144     317631006001023706881ROSE DESS-FORKS 4PCE   0000001000+00002630+00000+0001T   00002630+0000001311          1400 JU5300               1AZ
317631004317631002-000738     317631006001023770189GRATER 3-WAY PYRAMID   0000002000+00003507+00000+0001T   00003507+0000001311          1400 JU5300               1AZ
317631005317631002-012271     317631006001023849120TONGS 23cm RUBBER-GRIP 0000002000+00003507+00000+0001T   00003507+0000001311          1400 JU5300               1AZ
317631006317631220-009144     317631006001023706881ROSE DESS-FORKS 4PCE   0000001000+00002630+00000+0001T   00002630+0000001311          1400 JU5300               1AZ
317631007317631020-000141     317631006001023629524STEAK-KNIVES P.P.CARD-60000001000+00004385+00000+0001T   00004385+0000001311          1400 JU5300               1AZ
317631008317631107-002127     317631006003000697793BASIN PL 30cm SQUARE   0000004000+00000964+00000+0001T   00000964+0000001311          1400 JU5210               1AZ
317631009317631108-005005     317631006003000667451TRAY PL 29x21cm RECT   0000004000+00001753+00000+0001T   00001753+0000001311          1400 JU5210               1AZ
317631010317631002-000678-A   317631006003000426997K/TOOL SET 5PC UTENSILS0000002000+00006139+00000+0001T   00006139+0000001311          1400 JU5300               1AZ
317631011317631105-003025     317631006001023594662CONTAINER RECT 28x19cm 0000001000+00002630+00000+0001T   00002630+0000001311          1400 JU5210               1AZ
317631012317631022-010601     317631006001023733139ROASTER 30cm OVL 1st-GR0000001000+00026314+00000+0001T   00026314+0000001311          1400 JU5305               1AZ
317631013317631105-001315     317631006003000572854CONTAINER COLOUR RIM   0000002000+00002630+00000+0001T   00002630+0000001311          1400 JU5210               1AZ
317631014317631028-001050     317631006009619110128TUMBLER S/S 375ml      0000004000+00002192+00000+0001T   00002192+0000001311          1400 JU5305               1AZ
317632000317632               317632               170213DB     1400+00000+DB0000007453+0000007453+000000000+000001044+0000008497+0000000000+I40000008497+0000000000+Z
317632001317632107-004105     317632006009703860984BUCKET 9L OPEN         0000001000+00001314+00000+0001T   00001314+0000001316          1400 JU5210               1AZ
317632002317632031-007009     317632006003000467822P/FRAME WDN CERTIFICATE0000001000+00006139+00000+0001T   00006139+0000001316          1400 JU5510               1AZ
317633000317633               317633               170213DB     1400+00000+DB0000018417+0000018417+000000000+000002580+0000020990+0000000007+I20000000000+0000020990+Z
317633001317633108-007000     317633006008766085105SERVING-TABLE          0000003000+00006139+00000+0001T   00006139+0000001317          1400 JU5210               1AZ
317634000317634               317634               170213DB     1400+00000+DB0000001227+0000001227+000000000+000000172+0000001390+0000000009+I20000000000+0000001390+Z
317634001317634077-000245     317634006001023759214GIFT-RIBBON METALLICx2 0000001000+00001227+00000+0001T   00001227+0000001322          1400 JU5112               1AZ
317635000317635               317635               170213DB     1400+00000+DB0000002364+0000002364+000000000+000000332+0000002690+0000000006+I20000000000+0000002690+Z
317635001317635903-000194     317635006009826020616SWT CHOC RP LOLLY 25G  0000001000+00001314+00000+0001T   00001314+0000001322          1400 JU5150               1AZ
317635002317635903-000155     317635006009803374435SWT LOLLY I LUV U HEART0000002000+00000525+00000+0001T   00000525+0000001322          1400 JU5150               1AZ
317636000317636               317636               170213DB     1400+00000+DB0000003506+0000003506+000000000+000000492+0000003990+0000000008+I20000000000+0000003990+Z
317636001317636077-000115-B   317636006003000181025GIFT-WRAP PPR 700MMX2M 0000001000+00002630+00000+0001T   00002630+0000001329          1400 JU5112               1AZ
317636002317636077-000151     317636006008766114676GIFT-WRAP C/PHANE ASSTD0000001000+00000876+00000+0001T   00000876+0000001329          1400 JU5112               1AZ
317637000317637               317637               170213DB     1400+00000+DB0000003542+0000003542+000000000+000000496+0000004030+0000000008+I20000000000+0000004030+Z
317637001317637018-000130     317637006001023867537MUG OCC LOVE MINI+HEART0000001000+00003507+00000+0001T   00003507+0000001330          1400 JU5515               1AZ
317637002317637112-116038     317637006009681820246TCS CARRIER BAG MIDI   0000001000+00000035+00000+0001T   00000035+0000001330          1400 JU5090               1AZ
317638000317638               317638               170213DB     1400+00000+DB0000007928+0000007928+000000000+000001111+0000009030+0000000009+I20000000000+0000009030+Z
317638001317638031-006544     317638006003000279401P/FRAME WDN DISTRESSED 0000001000+00007893+00000+0001T   00007893+0000001331          1400 JU5510               1AZ
317638002317638112-116038     317638006009681820246TCS CARRIER BAG MIDI   0000001000+00000035+00000+0001T   00000035+0000001331          1400 JU5090               1AZ
317639000317639               317639               170213DB     1400+00000+DB0000002630+0000002630+000000000+000000369+0000002990+0000000009+I20000000000+0000002990+Z
317639001317639004-071207     317639006003000648917USB CABLE CHARGER FLAT 0000001000+00002630+00000+0001T   00002630+0000001332          1400 JU5310               1AZ
317640000317640               317640               170213DB     1400+00000+DB0000002678+0000002678+000000000+000000376+0000003050+0000000004+I20000000000+0000003050+Z
317640001317640077-000270     317640006003000395453GIFT-BAG PPR JMB 33X45 0000001000+00002630+00000+0001T   00002630+0000001336          1400 JU5112               1AZ
317640002317640112-116069     317640006009681820277TCS CARRIER BAG JUMBO  0000001000+00000048+00000+0001T   00000048+0000001336          1400 JU5090               1AZ
317641000317641               317641               170213DB     1400+00000+DB0000001578+0000001578+000000000+000000221+0000001790+0000000009+I20000000000+0000001790+Z
317641001317641077-000303     317641006001023593757GIFT-BAG PAPER MED     0000001000+00001578+00000+0001T   00001578+0000001336          1400 JU5112               1AZ
317642000317642               317642               170213DB     1400+00000+DB0000002100+0000002100+000000000+000000296+0000002396+0000000000+I40000002396+0000000000+Z
317642001317642903-000155     317642006009803374435SWT LOLLY I LUV U HEART0000004000+00000525+00000+0001T   00000525+0000001341          1400 JU5150               1AZ
317643000317643               317643               170213DB     1400+00000+DB0000002192+0000002192+000000000+000000307+0000002490+0000000009+I20000000000+0000002490+Z
317643001317643028-085274     317643006001023641571BBQ LIGHTER         H&L0000001000+00002192+00000+0001T   00002192+0000001343          1400 JU5305               1AZ
317644000317644               317644               170213DB     1400+00000+DB0000007016+0000007016+000000000+000000983+0000007990+0000000009+I20000000000+0000007990+Z
317644001317644306-001660     317644006003000620579NAIL DRYING MACHINE    0000001000+00007016+00000+0001T   00007016+0000001343          1400 JU5200               1AZ
317645000317645               317645               170213DB     1400+00000+DB0000006927+0000006927+000000000+000000971+0000007890+0000000008+I20000000000+0000007890+Z
317645001317645301-085001     317645006003000297610ORN WATERBALL LOVE ASST0000001000+00004823+00000+0001T   00004823+0000001344          1400 JU5505               1AZ
317645002317645903-000095     317645006001704011495SWT SPECKLED-EGGS 100G 0000001000+00002104+00000+0001T   00002104+0000001344          1400 JU5150               1AZ
317646000317646               317646               170213DB     1400+00000+DB0000003506+0000003506+000000000+000000492+0000003990+0000000008+I20000000000+0000003990+Z
317646001317646077-000299-A   317646006003000670888GIFT-BAG PAPER JMB LOVE0000001000+00001753+00000+0001T   00001753+0000001353          1400 JU5112               1AZ
317646002317646084-006995     317646006003000092802NAIL CLIPPER 8cm TOE   0000001000+00001753+00000+0001T   00001753+0000001353          1400 JU5200               1AZ
317647000317647               317647               170213DB     1400+00000+DB0000012889+0000012889+000000000+000001806+0000014690+0000000005+I20000000000+0000014690+Z
317647001317647903-000504     317647006001704012416SWT CHOC JELLY BEANS   0000003000+00001227+00000+0001T   00001227+0000001354          1400 JU5150               1AZ
317647002317647566-000358     317647006003000582587STICKER ROOM DECOR WORD0000001000+00003946+00000+0001T   00003946+0000001354          1400 JU5130               1AZ
317647003317647566-000320     317647006003000422890STICKERS R/DEC. NATURE 0000001000+00005262+00000+0001T   00005262+0000001354          1400 JU5130               1AZ
317648000317648               317648               170213DB     1400+00000+DB0000014081+0000014081+000000000+000001972+0000016050+0000000003+I20000000000+0000016050+Z
317648001317648104-000190     317648006001246040342DISH DRAINER PL ASSTD  0000001000+00005262+00000+0001T   00005262+0000001359          1400 JU5210               1AZ
317648002317648112-116069     317648006009681820277TCS CARRIER BAG JUMBO  0000001000+00000048+00000+0001T   00000048+0000001359          1400 JU5090               1AZ
317648003317648158-008935     317648006003000621880TOILET ROLL HOLDER 66cm0000001000+00008771+00000+0001T   00008771+0000001359          1400 JU5300               1AZ
317649000317649               317649               170213DB     1400+00000+DB0000003506+0000003506+000000000+000000492+0000003990+0000000008+I20000000000+0000003990+Z
317649001317649903-000211     317649006002099001238SWT GS MALLOW ICE CREAM0000002000+00001753+00000+0001T   00001753+0000001401          1400 JU5150               1AZ
317650000317650               317650               170213DB     1400+00000+DB0000001313+0000001313+000000000+000000185+0000001490+0000000008+I20000000000+0000001490+Z
317650001317650039-000323     317650006001023524171BIRTHDAY-CANDLES 24PCE 0000001000+00000876+00000+0001T   00000876+0000001413          1400 JU5510               1AZ
317650002317650080-000133-A   317650006003000647019MINI VALENTINES CARD   0000001000+00000437+00000+0001T   00000437+0000001413          1400 JU5112               1AZ
317651000317651               317651               170213DB     1400+00000+DB0000004155+0000004155+000000000+000000582+0000004730+0000000007+I20000000000+0000004730+Z
317651001317651301-085004     317651006003000420469ORN LOVE PLAQUE 21X10CM0000001000+00003507+00000+0001T   00003946+0006471421          1400 JU5505               1AZ
317651002317651304-001011     317651006001023806727FLWR ROSE RED W/BEAR   0000001000+00000613+00000+0001T   00000788+0006471421          1400 JU5510               1AZ
317651003317651112-116038     317651006009681820246TCS CARRIER BAG MIDI   0000001000+00000035+00000+0001T   00000035+0000001421          1400 JU5090               1AZ
317652000317652               317652               170213DB     1400+00000+DB0000005295+0000005295+000000000+000000742+0000006037+0000000000+I40000006037+0000000000+Z
317652001317652006-000113     317652006003000671816BALLOONS WATER FILLER  0000001000+00003507+00000+0001T   00003507+0000001430          1400 JU5131               1AZ
317652002317652006-000114     317652006003000671939BALLOONS W/BOMBS 100PCE0000001000+00001753+00000+0001T   00001753+0000001430          1400 JU5131               1AZ
317652003317652112-116038     317652006009681820246TCS CARRIER BAG MIDI   0000001000+00000035+00000+0001T   00000035+0000001430          1400 JU5090               1AZ
317653000317653               317653               170213DB     1400+00000+DB0000003028+0000003028+000000000+000000425+0000003450+0000000003+I20000000000+0000003450+Z
317653001317653077-000299     317653006003000395576G/BAG 32x25cm LRG LOVE 0000002000+00001490+00000+0001T   00001490+0000001432          1400 JU5112               1AZ
317653002317653112-116069     317653006009681820277TCS CARRIER BAG JUMBO  0000001000+00000048+00000+0001T   00000048+0000001432          1400 JU5090               1AZ
317654000317654               317654               170213DB     1400+00000+DB0000007927+0000007927+000000000+000001111+0000009038+0000000000+I40000009038+0000000000+Z
317654001317654024-000119-A   317654006003000407613N/STICK MINI TART LOSE 0000002000+00003946+00000+0001T   00003946+0000001440          1400 JU5300               1AZ
317654002317654112-116038     317654006009681820246TCS CARRIER BAG MIDI   0000001000+00000035+00000+0001T   00000035+0000001440          1400 JU5090               1AZ
317655000317655               317655               170213DB     1400+00000+DB0000001788+0000001788+000000000+000000251+0000002030+0000000009+I20000000000+0000002030+Z
317655001317655002-001068     317655006001023812001DISP. BOTTLES PL H/H   0000001000+00001753+00000+0001T   00001753+0000001441          1400 JU5300               1AZ
317655002317655112-116038     317655006009681820246TCS CARRIER BAG MIDI   0000001000+00000035+00000+0001T   00000035+0000001441          1400 JU5090               1AZ
317656000317656               317656               170213DB     1400+00000+DB0000010557+0000010557+000000000+000001480+0000012030+0000000007+I20000000000+0000012030+Z
317656001317656563-000317-C   317656006001023776204SERVIETTES 20PK  FLOWER0000002000+00002630+00000+0001T   00002630+0000001442          1400 JU5214               1AZ
317656002317656079-000334     317656006003000670437THERAPY P/CRAYONS 18   0000001000+00005262+00000+0001T   00005262+0000001442          1400 JU5130               1AZ
317656003317656112-116038     317656006009681820246TCS CARRIER BAG MIDI   0000001000+00000035+00000+0001T   00000035+0000001442          1400 JU5090               1AZ
317657000317657               317657               170213DB     1400+00000+DB0000001578+0000001578+000000000+000000221+0000001790+0000000009+I20000000000+0000001790+Z
317657001317657080-000124     317657006003000297733CARD & ENV VALENTINES  0000001000+00001578+00000+0001T   00001578+0000001449          1400 JU5112               1AZ
317658000317658               317658               170213DB     1400+00000+DB0000025346+0000025346+000000000+000003550+0000028896+0000000000+I40000028896+0000000000+Z
317658001317658903-000889     317658006009702259192SWT GUM BEECHIES S/MINT0000001000+00000788+00000+0001T   00000788+0000001451          1400 JU5150               1AZ
317658002317658466-000004     317658006003000469819PLAY-TENT POP-UP BOY   0000001000+00021928+00000+0001T   00021928+0000001451          1400 JU5785               1AZ
317658003317658027-000090     317658006001023588265WINDOW-CLEANER LONG-HND0000001000+00002630+00000+0001T   00002630+0000001451          1400 JU5212               1AZ
317659000317659               317659               170213DB     1400+00000+DB0000004855+0000004855+000000000+000000681+0000005530+0000000006+I20000000000+0000005530+Z
317659001317659018-005009     317659006001023725608MUG W/PLUSH-BEAR LOVE  0000001000+00003507+00000+0001T   00003507+0000001454          1400 JU5515               1AZ
317659002317659080-000133-A   317659006003000647019MINI VALENTINES CARD   0000001000+00000437+00000+0001T   00000437+0000001454          1400 JU5112               1AZ
317659003317659077-000408     317659006003000145218G/BAG PP 15X21X7CM     0000001000+00000876+00000+0001T   00000876+0000001454          1400 JU5112               1AZ
317659004317659112-116038     317659006009681820246TCS CARRIER BAG MIDI   0000001000+00000035+00000+0001T   00000035+0000001454          1400 JU5090               1AZ
317660000317660               317660               170213DB     1400+00000+DB0000004385+0000004385+000000000+000000614+0000004990+0000000009+I20000000000+0000004990+Z
317660001317660001-000175     317660006001023788108B/MUG GLS LOVE 380ML   0000001000+00004385+00000+0001T   00004385+0000001455          1400 JU5515               1AZ
317661000317661               317661               170213DB     1400+00000+DB0000007677+0000007677+000000000+000001076+0000008750+0000000003+I20000000000+0000008750+Z
317661001317661018-050000     317661006003000412679MUG OCC LOVE TWIN BEAR 0000001000+00006139+00000+0001T   00006139+0000001458          1400 JU5515               1AZ
317661002317661077-000299     317661006003000395576G/BAG 32x25cm LRG LOVE 0000001000+00001490+00000+0001T   00001490+0000001458          1400 JU5112               1AZ
317661003317661112-116069     317661006009681820277TCS CARRIER BAG JUMBO  0000001000+00000048+00000+0001T   00000048+0000001458          1400 JU5090               1AZ
317662000317662               317662               170213DB     1400+00000+DB0000006171+0000006171+000000000+000000865+0000007030+0000000006+I20000000000+0000007030+Z
317662001317662077-000303     317662006001023593757GIFT-BAG PAPER MED     0000001000+00001578+00000+0001T   00001578+0000001501          1400 JU5112               1AZ
317662002317662077-000452     317662006003000284986G/BAG METALLIC MED EMB 0000002000+00001490+00000+0001T   00001490+0000001501          1400 JU5112               1AZ
317662003317662077-000303     317662006001023593757GIFT-BAG PAPER MED     0000001000+00001578+00000+0001T   00001578+0000001501          1400 JU5112               1AZ
317662004317662112-116038     317662006009681820246TCS CARRIER BAG MIDI   0000001000+00000035+00000+0001T   00000035+0000001501          1400 JU5090               1AZ
317663000317663               317663               170213DB     1400+00000+DB0000001839+0000001839+000000000+000000258+0000002090+0000000007+I20000000000+0000002090+Z
317663001317663903-000194     317663006009826020616SWT CHOC RP LOLLY 25G  0000001000+00001314+00000+0001T   00001314+0000001517          1400 JU5150               1AZ
317663002317663903-000155     317663006009803374435SWT LOLLY I LUV U HEART0000001000+00000525+00000+0001T   00000525+0000001517          1400 JU5150               1AZ
317664000317664               317664               170213DB     1400+00000+DB0000001753+0000001753+000000000+000000246+0000001990+0000000009+I20000000000+0000001990+Z
317664001317664046-002032-PK2 317664004897006175063BATTERIES CR-2032  2PCE0000001000+00001753+00000+0001T   00001753+0000001517          1400 JU5312               1AZ
317665000317665               317665               170213DB     1400+00000+DB0000003507+0000003507+000000000+000000491+0000003990+0000000008+I20000000000+0000003990+Z
317665001317665018-005009     317665006001023725608MUG W/PLUSH-BEAR LOVE  0000001000+00003507+00000+0001T   00003507+0000001522          1400 JU5515               1AZ
317666000317666               317666               170213DB     1400+00000+DB0000001753+0000001753+000000000+000000246+0000001990+0000000009+I20000000000+0000001990+Z
317666001317666306-007302     317666006001023730954BACK-SCRATCH+MASSAGE-WH0000001000+00001753+00000+0001T   00001753+0000001522          1400 JU5200               1AZ
317667000317667               317667               170213DB     1400+00000+DB0000001753+0000001753+000000000+000000246+0000001990+0000000009+I20000000000+0000001990+Z
317667001317667051-002402     317667006001023518347TRIGGER-SPRAYER  500ml 0000001000+00001753+00000+0001T   00001753+0000001524          1400 JU5820               1AZ
317668000317668               317668               170213DB     1400+00000+DB0000000876+0000000876+000000000+000000123+0000000990+0000000009+I20000000000+0000000990+Z
317668001317668077-000151     317668006008766114676GIFT-WRAP C/PHANE ASSTD0000001000+00000876+00000+0001T   00000876+0000001528          1400 JU5112               1AZ
317669000317669               317669               170213DB     1400+00000+DB0000002664+0000002664+000000000+000000374+0000003030+0000000008+I20000000000+0000003030+Z
317669001317669039-000319-8   317669006003000443222B/CANDLES LRG NUMBER-8 0000001000+00000876+00000+0001T   00000876+0000001529          1400 JU5510               1AZ
317669002317669006-000120     317669006001023346889BALLOONS 10PC MIX COL  0000001000+00001753+00000+0001T   00001753+0000001529          1400 JU5131               1AZ
317669003317669112-116038     317669006009681820246TCS CARRIER BAG MIDI   0000001000+00000035+00000+0001T   00000035+0000001529          1400 JU5090               1AZ
317670000317670               317670               170213DB     1400+00000+DB0000000876+0000000876+000000000+000000123+0000000990+0000000009+I20000000000+0000000990+Z
317670001317670077-000151     317670006008766114676GIFT-WRAP C/PHANE ASSTD0000001000+00000876+00000+0001T   00000876+0000001530          1400 JU5112               1AZ
317671000317671               317671               170213DB     1400+00000+DB0000017936+0000017936+000000000+000002513+0000020449+0000000000+I40000020449+0000000000+Z
317671001317671019-000040     317671006001023673640VASE GLS 30CM CYLINDER 0000001000+00008771+00000+0001T   00008771+0000001532          1400 JU5510               1AZ
317671002317671565-000602     317671006003000643790NOVELTY NINJA'S 3PACK  0000001000+00002630+00000+0001T   00002630+0000001532          1400 JU5745               1AZ
317671003317671565-000889     317671006003000626953NOVELTY SPACE BALLOONS 0000001000+00001753+00000+0001T   00001753+0000001532          1400 JU5745               1AZ
317671004317671560-000700     317671006001023865830GROWING ANIMALS ASSTD  0000002000+00001578+00000+0001T   00001578+0000001532          1400 JU5745               1AZ
317671005317671565-000052     317671006003000615551NOVELTY PUTTY FARTS    0000001000+00001578+00000+0001T   00001578+0000001532          1400 JU5745               1AZ
317671006317671112-116069     317671006009681820277TCS CARRIER BAG JUMBO  0000001000+00000048+00000+0001T   00000048+0000001532          1400 JU5090               1AZ
317672000317672               317672               170213DB     1400+00000+DB0000012843+0000012843+000000000+000001801+0000014640+0000000004+I20000000000+0000014640+Z
317672001317672006-000166-D   317672006003000516490BALLOONS LRG 6PC RED   0000001000+00001314+00000+0001T   00001314+0000001533          1400 JU5131               1AZ
317672002317672903-000087     317672006001704000161SWT SPECKLED-EGGS 50G  0000001000+00001139+00000+0001T   00001139+0000001533          1400 JU5150               1AZ
317672003317672903-000499     317672006001704012492SWT CHOC MALLOWS 50g   0000001000+00001227+00000+0001T   00001227+0000001533          1400 JU5150               1AZ
317672004317672903-000504     317672006001704012416SWT CHOC JELLY BEANS   0000001000+00001227+00000+0001T   00001227+0000001533          1400 JU5150               1AZ
317672005317672016-006425     317672006001023998170S/JAR GLS CLIP W/RIBBON0000001000+00002630+00000+0001T   00002630+0000001533          1400 JU5300               1AZ
317672006317672103-000472     317672006003000631049FLOWER BASKET W/HANDLE 0000001000+00003507+00000+0001T   00003507+0000001533          1400 JU5300               1AZ
317672007317672903-000194     317672006009826020616SWT CHOC RP LOLLY 25G  0000001000+00001314+00000+0001T   00001314+0000001533          1400 JU5150               1AZ
317672008317672080-000133-A   317672006003000647019MINI VALENTINES CARD   0000001000+00000437+00000+0001T   00000437+0000001533          1400 JU5112               1AZ
317672009317672112-116069     317672006009681820277TCS CARRIER BAG JUMBO  0000001000+00000048+00000+0001T   00000048+0000001533          1400 JU5090               1AZ
317673000317673               317673               170213DB     1400+00000+DB0000003680+0000003680+000000000+000000517+0000004197+0000000000+I40000004197+0000000000+Z
317673001317673301-085002     317673006003000420704ORN OCC. LOVE BELL ASST0000001000+00001753+00000+0001T   00002630+0008121537          1400 JU5505               1AZ
317673002317673903-000155     317673006009803374435SWT LOLLY I LUV U HEART0000001000+00000525+00000+0001T   00000525+0000001537          1400 JU5150               1AZ
317673003317673304-001204     317673006001023737984FLOWER OCC. TEDDY/ROSES0000001000+00001402+00000+0001T   00001490+0006471537          1400 JU5510               1AZ
317674000317674               317674               170213DB     1400+00000+DB0000005994+0000005994+000000000+000000841+0000006835+0000000000+I40000006835+0000000000+Z
317674001317674018-000127     317674006001023380289MUG OCC STRAIGHT LOVE  0000001000+00001578+00000+0001T   00001753+0006471545          1400 JU5515               1AZ
317674002317674031-000002-A   317674006003000247103P/FRAME LOVE 7.5X7.5CM 0000001000+00003507+00000+0001T   00003507+0000001545          1400 JU5510               1AZ
317674003317674080-000133     317674006003000535613CARD&ENV MINI ASTD DSGN0000002000+00000437+00000+0001T   00000437+0000001545          1400 JU5112               1AZ
317674004317674112-116038     317674006009681820246TCS CARRIER BAG MIDI   0000001000+00000035+00000+0001T   00000035+0000001545          1400 JU5090               1AZ
317675000317675               317675               170213DB     1400+00000+DB0000012935+0000012935+000000000+000001813+0000014748+0000000000+I40000014748+0000000000+Z
317675001317675041-093000     317675006003000320882B/GIFT SET 4PC B/RANGE 0000001000+00007016+00000+0001T   00007016+0000001550          1400 JU5200               1AZ
317675002317675903-000194     317675006009826020616SWT CHOC RP LOLLY 25G  0000001000+00001314+00000+0001T   00001314+0000001550          1400 JU5150               1AZ
317675003317675006-000120     317675006001023346889BALLOONS 10PC MIX COL  0000001000+00001753+00000+0001T   00001753+0000001550          1400 JU5131               1AZ
317675004317675006-000096     317675006003000610969BANNER CELEBRATION     0000001000+00001490+00000+0001T   00001490+0000001550          1400 JU5131               1AZ
317675005317675077-000310     317675006001023608635GIFT-BAG 18X23CM GLOSS 0000001000+00001314+00000+0001T   00001314+0000001550          1400 JU5112               1AZ
317675006317675112-116069     317675006009681820277TCS CARRIER BAG JUMBO  0000001000+00000048+00000+0001T   00000048+0000001550          1400 JU5090               1AZ
317676000317676               317676               170213DB     1400+00000+DB0000007923+0000007923+000000000+000001112+0000009035+0000000000+I40000009035+0000000000+Z
317676001317676089-000192-A   317676006001023901774KEY-CHAIN ACRYLIC      0000001000+00000876+00000+0001T   00000876+0000001552          1400 JU5205               1AZ
317676002317676089-000030     317676006003000575671K/CHAIN LOVE MTL ASSTD 0000001000+00001753+00000+0001T   00001753+0000001552          1400 JU5205               1AZ
317676003317676903-000619     317676006003000672455SWT LOLLY STR/BRRY 140G0000001000+00001753+00000+0001T   00001753+0000001552          1400 JU5150               1AZ
317676004317676566-000066     317676006003000283675STICKERS GLITTER 25PCS 0000001000+00001753+00000+0001T   00001753+0000001552          1400 JU5130               1AZ
317676005317676566-000007     317676006001023761187S/BOOK SUPER VALUE     0000001000+00001753+00000+0001T   00001753+0000001552          1400 JU5130               1AZ
317676006317676112-116038     317676006009681820246TCS CARRIER BAG MIDI   0000001000+00000035+00000+0001T   00000035+0000001552          1400 JU5090               1AZ
317677000317677               317677               170213DB     1400+00000+DB0000003507+0000003507+000000000+000000491+0000003990+0000000008+I20000000000+0000003990+Z
317677001317677031-000002-A   317677006003000247103P/FRAME LOVE 7.5X7.5CM 0000001000+00003507+00000+0001T   00003507+0000001555          1400 JU5510               1AZ
317678000317678               317678               170213DB     1400+00000+DB0000004385+0000004385+000000000+000000614+0000004999+0000000000+I40000004999+0000000000+Z
317678001317678486-001012     317678006001023820907CLOCK ALARM SQR 10X12CM0000001000+00004385+00000+0001T   00004385+0000001559          1400 JU5510               1AZ
317679000317679               317679               170213DB     1400+00000+DB0000003015+0000003015+000000000+000000423+0000003430+0000000008+I20000000000+0000003430+Z
317679001317679007-000043     317679006009635831496DISPLAY-BOOK PL A4 20PG0000001000+00001753+00000+0001T   00001753+0000001600          1400 JU5130               1AZ
317679002317679071-081091     317679006001151010287STAED/GENKEM ALL-STICK 0000001000+00001227+00000+0001T   00001227+0000001600          1400 JU5130               1AZ
317679003317679112-116038     317679006009681820246TCS CARRIER BAG MIDI   0000001000+00000035+00000+0001T   00000035+0000001600          1400 JU5090               1AZ
317680000317680               317680               170213DB     1400+00000+DB0000003278+0000003278+000000000+000000460+0000003730+0000000008+I20000000000+0000003730+Z
317680001317680464-000110     317680006001023868824PLAYING-CARDS JUMBO    0000001000+00002630+00000+0001T   00002630+0000001600          1400 JU5785               1AZ
317680002317680306-000021     317680006001023169433EARBUDS 100PCE IN BAG  0000001000+00000613+00000+0001T   00000613+0000001600          1400 JU5200               1AZ
317680003317680112-116038     317680006009681820246TCS CARRIER BAG MIDI   0000001000+00000035+00000+0001T   00000035+0000001600          1400 JU5090               1AZ
317681000317681               317681               170213DB     1400+00000+DB0000002628+0000002628+000000000+000000368+0000002996+0000000000+I40000002996+0000000000+Z
317681001317681903-000194     317681006009826020616SWT CHOC RP LOLLY 25G  0000002000+00001314+00000+0001T   00001314+0000001602          1400 JU5150               1AZ
317682000317682               317682               170213DB     1400+00000+DB0000012534+0000012534+000000000+000001758+0000014290+0000000002+I20000000000+0000014290+Z
317682001317682071-010481     317682006001023417220MAGNIFYING-GLASS 90mm-D0000001000+00001753+00000+0001T   00001753+0000001603          1400 JU5130               1AZ
317682002317682016-006425     317682006001023998170S/JAR GLS CLIP W/RIBBON0000001000+00002630+00000+0001T   00002630+0000001603          1400 JU5300               1AZ
317682003317682903-000137     317682006002099004130SWEET GS JELLY BEAN 60G0000001000+00000788+00000+0001T   00000788+0000001603          1400 JU5150               1AZ
317682004317682089-000017     317682006003000331147KEYCHAIN MOM POLY BOX  0000001000+00004385+00000+0001T   00004385+0000001603          1400 JU5205               1AZ
317682005317682071-001241     317682006003000244270NOVELTY ERASER ASSTD   0000001000+00000525+00000+0001T   00000525+0000001603          1400 JU5130               1AZ
317682006317682018-000177     317682006001023797513MUG MINI LOVE ASSTD    0000001000+00000700+00000+0001T   00000700+0000001603          1400 JU5515               1AZ
317682007317682080-000113     317682006003000237449CARD&ENVLPE - LOVE     0000001000+00001753+00000+0001T   00001753+0000001603          1400 JU5112               1AZ
317683000317683               317683               170213DB     1400+00000+DB0000003506+0000003506+000000000+000000492+0000003990+0000000008+I20000000000+0000003990+Z
317683001317683046-000014-A   317683004897006177708BATTERIES SIZE:AAA 8PCE0000001000+00001753+00000+0001T   00001753+0000001604          1400 JU5312               1AZ
317683002317683072-000327     317683006001023858504CAT-COLLAR+BELL        0000001000+00001753+00000+0001T   00001753+0000001604          1400 JU5870               1AZ
317684000317684               317684               170213DB     1400+00000+DB0000001349+0000001349+000000000+000000189+0000001530+0000000008+I20000000000+0000001530+Z
317684001317684563-000317-B   317684006001023776174SERVIETTES PLN WHT PK400000001000+00001314+00000+0001T   00001314+0000001605          1400 JU5214               1AZ
317684002317684112-116038     317684006009681820246TCS CARRIER BAG MIDI   0000001000+00000035+00000+0001T   00000035+0000001605          1400 JU5090               1AZ
317685000317685               317685               170213DB     1400+00000+DB0000000876+0000000876+000000000+000000123+0000000990+0000000009+I20000000000+0000000990+Z
317685001317685071-000677     317685006001023110282THUMB-TACKS            0000001000+00000876+00000+0001T   00000876+0000001606          1400 JU5130               1AZ
317686000317686               317686               170213DB     1400+00000+DB0000003554+0000003554+000000000+000000498+0000004050+0000000002+I20000000000+0000004050+Z
317686001317686006-000166-D   317686006003000516490BALLOONS LRG 6PC RED   0000001000+00001314+00000+0001T   00001314+0000001657          1400 JU5131               1AZ
317686002317686080-000127     317686006003000424351VALENTINES DAY 36x24CM 0000001000+00002192+00000+0001T   00002192+0000001657          1400 JU5112               1AZ
317686003317686112-116069     317686006009681820277TCS CARRIER BAG JUMBO  0000001000+00000048+00000+0001T   00000048+0000001657          1400 JU5090               1AZ
317687000317687               317687               170213DB     1400+00000+DB0000003243+0000003243+000000000+000000455+0000003698+0000000000+I40000003698+0000000000+Z
317687001317687077-000299     317687006003000395576G/BAG 32x25cm LRG LOVE 0000001000+00001490+00000+0001T   00001490+0000001704          1400 JU5112               1AZ
317687002317687080-000113     317687006003000237449CARD&ENVLPE - LOVE     0000001000+00001753+00000+0001T   00001753+0000001704          1400 JU5112               1AZ
317688000317688               317688               170213DB     1400+00000+DB0000002238+0000002238+000000000+000000315+0000002550+0000000003+I20000000000+0000002550+Z
317688001317688077-000299-A   317688006003000670888GIFT-BAG PAPER JMB LOVE0000001000+00001753+00000+0001T   00001753+0000001706          1400 JU5112               1AZ
317688002317688112-116069     317688006009681820277TCS CARRIER BAG JUMBO  0000001000+00000048+00000+0001T   00000048+0000001706          1400 JU5090               1AZ
317688003317688080-000133-A   317688006003000647019MINI VALENTINES CARD   0000001000+00000437+00000+0001T   00000437+0000001706          1400 JU5112               1AZ
317689000317689               317689               170213DB     1400+00000+DB0000001179+0000001179+000000000+000000168+0000001340+0000000007+I20000000000+0000001340+Z
317689001317689903-000183     317689006003000451043SWT LB HEART LOLLY     0000003000+00000393+00000+0001T   00000393+0000001713          1400 JU5150               1AZ
317690000317690               317690               170213DB     1400+00000+DB0000001139+0000001139+000000000+000000160+0000001290+0000000009+I20000000000+0000001290+Z
317690001317690466-000517     317690006001023752017BALL TENNIS RED CRICKET0000001000+00001139+00000+0001T   00001139+0000001721          1400 JU5785               1AZ
317691000317691               317691               170213DB     1400+00000+DB0000001753+0000001753+000000000+000000246+0000001990+0000000009+I20000000000+0000001990+Z
317691001317691080-000113     317691006003000237449CARD&ENVLPE - LOVE     0000001000+00001753+00000+0001T   00001753+0000001728          1400 JU5112               1AZ
317692000317692               317692               170213DB     1400+00000+DB0000008151+0000008151+000000000+000001143+0000009294+0000000000+I40000009294+0000000000+Z
317692001317692034-000329     317692006001023564290BOTTLE-BRUSHES WHT 2PCE0000001000+00001314+00000+0001T   00001314+0000001734          1400 JU5215               1AZ
317692002317692133-000081     317692006003000277315DISH CLOTH 40x70cm     0000001000+00002630+00000+0001T   00002630+0000001734          1400 JU5212               1AZ
317692003317692563-000317-J   317692006001023776419SERVIETTE 2PLY 33cm    0000001000+00001753+00000+0001T   00001753+0000001734          1400 JU5214               1AZ
317692004317692903-000518     317692006001704012782SWT STRAWS S/BERRY 100g0000002000+00001227+00000+0001T   00001227+0000001734          1400 JU5150               1AZ
A17021300                                          10462186DBSLAVE 1                       JU52IC
M17021302                              IT          DBLAST TILL SLIP NR.317692 SLV1 13\02\17          THANKS                                          DB
M17021391                              CASH        DBSLAVE 1                       Z-REPORT No.   623TOTAL (Sales - Refunds)           8117.84       CASH TO BE BANKED                 4119.80       DEBIT CARDS                          0.00       CREDIT CARDS                      3998.04       Z-READING                         8117.84       AIRTIME DEBIT CARD SALES             0.00       AIRTIME CARD SALES                   0.00       OVERS/UNDERS                         0.00       AIRTIME CASH SALES                   0.00       GIFT CARDS                           0.00       GIFT CARD CASH SALES                 0.00       T O T A L  CASH PAYOUTS              0.00                                                                                                                                                                                                                                                                                                                                                      Z
M17021392                              CASH        DBABSENT                                                                                                                                                                                          ANNUAL LEAVE                                                                                                                                                                                    DAY OFF                                                                                                                                                                                         COMMENTS                                                                                                                                                                                                                                                                                                                                                                                       Z
Y17021300                                          DB00000000720397+000107
ZDB17021319283 SLAVE 1      SALES DATA                     NEXT INVOICE NO.  317693 0623
F091339366-001112-A       1611160850180000001ICSLAVE 1
F091339366-001112-B       1611160850180000001ICSLAVE 1
F094759016-006456         1702080807440000011ICSLAVE 1
F094759220-000140         1702080807440000021ICSLAVE 1
F094760036-000489         1702080807480000041ICSLAVE 1
F094760071-002907         1702080807480000041ICSLAVE 1
X DB Slave 1 First invoice 317586 170213 Last invoice 317692 170213 Next invoice 317693 Total number of records 000000400 clbackup completed 19:28:21
