103100000103100               103100               170213DE     1400+00000+DE0000001753+0000001753+000000000+000000246+0000001990+0000000009+I20000000000+0000001990+Z
103100001103100046-002032-PK2 103100004897006175063BATTERIES CR-2032  2PCE0000001000+00001753+00000+0001T   00001753+0000000914          1400 H05312               1AZ
103101000103101               103101               170213DE     1400+00000+DE0000000876+0000000876+000000000+000000123+0000000990+0000000009+I20000000000+0000000990+Z
103101001103101033-005905-B   103101006001023727787S/LACES FLAT 90cm ASSTD0000001000+00000876+00000+0001T   00000876+0000001009          1400 H05200               1AZ
103102000103102               103102               170213DE     1400+00000+DE0000002630+0000002630+000000000+000000369+0000002990+0000000009+I20000000000+0000002990+Z
103102001103102366-006103     103102006001023786944DRESS UP FACE PAINT SET0000001000+00002630+00000+0001T   00002630+0000001015          1400 H05131               1AZ
103103000103103               103103               170213DE     1400+00000+DE0000005260+0000005260+000000000+000000738+0000005990+0000000008+I20000000000+0000005990+Z
103103001103103251-000012     103103006001023597915TAPE DUCT GREY 48mmx5m 0000002000+00002630+00000+0001T   00002630+0000001034          1400 H05810               1AZ
103104000103104               103104               170213DE     1400+00000+DE0000003156+0000003156+000000000+000000442+0000003590+0000000008+I20000000000+0000003590+Z
103104001103104018-000127     103104006001023380289MUG OCC STRAIGHT LOVE  0000001000+00001578+00000+0001T   00001753+0006471037          1400 H05515               1AZ
103104002103104077-000303     103104006001023593757GIFT-BAG PAPER MED     0000001000+00001578+00000+0001T   00001578+0000001037          1400 H05112               1AZ
103105000103105               103105               170213DE     1400+00000+DE0000008327+0000008327+000000000+000001167+0000009490+0000000004+I20000000000+0000009490+Z
103105001103105104-000215     103105006003000512768STORAGE TRAY 15x15x5cm 0000002000+00000876+00000+0001T   00001314+0008161116          1400 H05210               1AZ
103105002103105301-085008     103105006003000673933ORN OCC.LOVE TINSEL HRT0000001000+00003069+00000+0001T   00003069+0000001116          1400 H05505               1AZ
103105003103105301-085000     103105006003000674299 ORN OCC. LOVE HEARTS  0000001000+00002192+00000+0001T   00002192+0000001116          1400 H05505               1AZ
103105004103105903-000194     103105006009826020616SWT CHOC RP LOLLY 25G  0000001000+00001314+00000+0001T   00001314+0000001116          1400 H05150               1AZ
103106000103106               103106               170213DE     1400+00000+DE0000001314+0000001314+000000000+000000184+0000001490+0000000008+I20000000000+0000001490+Z
103106001103106150-001234-1   103106005019190010015PLATE-HANGER P/C SIZE-10000001000+00001314+00000+0001T   00001314+0000001137          1400 H05810               1AZ
103107000103107               103107               170213DE     1400+00000+DE0000005297+0000005297+000000000+000000742+0000006030+0000000009+I20000000000+0000006030+Z
103107001103107004-078988     103107006003000072521EARPHONES L-WEIGHT 1.1m0000001000+00005262+00000+0001T   00005262+0000001145          1400 H05310               1AZ
103107002103107112-116038     103107006009681820246TCS CARRIER BAG MIDI   0000001000+00000035+00000+0001T   00000035+0000001145          1400 H05090               1AZ
103108000103108               103108               170213DE     1400+00000+DE0000001753+0000001753+000000000+000000246+0000001990+0000000009+I20000000000+0000001990+Z
103108001103108027-783000     103108006001023874641SCOURERS RAINBOW 5PCE  0000001000+00001753+00000+0001T   00001753+0000001146          1400 H05212               1AZ
103109000103109               103109               170213DE     1400+00000+DE0000027649+0000027649+000000000+000003878+0000031520+0000000007+I20000000000+0000031520+Z
103109001103109079-003004     103109006003000448128TUBE 75ML LIGHT GREEN  0000001000+00001753+00000+0001T   00001753+0000001158          1400 H05130               1AZ
103109002103109079-003014     103109006003000633951PAINT ACRYLIC 75ml SILV0000001000+00002630+00000+0001T   00002630+0000001158          1400 H05130               1AZ
103109003103109079-003011     103109006003000448968A/TUBE 75ML ORANGE     0000001000+00001753+00000+0001T   00001753+0000001158          1400 H05130               1AZ
103109004103109079-003000     103109006003000448838A/TUBE 75ML WHITE      0000001000+00001753+00000+0001T   00001753+0000001158          1400 H05130               1AZ
103109005103109079-003015     103109006003000634071PAINT ACRYLIC 75ml GOLD0000001000+00002630+00000+0001T   00002630+0000001158          1400 H05130               1AZ
103109006103109079-003007     103109006003000448487A/TUBE 75ML BROWN      0000001000+00001753+00000+0001T   00001753+0000001158          1400 H05130               1AZ
103109007103109079-003002     103109006003000447886A/TUBE 75ML RED        0000001000+00001753+00000+0001T   00001753+0000001158          1400 H05130               1AZ
103109008103109079-003005     103109006003000448241A/TUBE 75ML BLUE       0000001000+00001753+00000+0001T   00001753+0000001158          1400 H05130               1AZ
103109009103109079-003001     103109006003000448951A/TUBE 75ML BLACK      0000001000+00001753+00000+0001T   00001753+0000001158          1400 H05130               1AZ
103109010103109079-003010     103109006003000448845A/TUBE 75ML YELLOW     0000001000+00001753+00000+0001T   00001753+0000001158          1400 H05130               1AZ
103109011103109007-000209     103109006001023582102NOTE STICKY FILE MARKER0000001000+00001314+00000+0001T   00001314+0000001158          1400 H05130               1AZ
103109012103109079-001000     103109006003000448470CANVAS A2 WOOD MOUNTED 0000001000+00007016+00000+0001T   00007016+0000001158          1400 H05130               1AZ
103109013103109112-116038     103109006009681820246TCS CARRIER BAG MIDI   0000001000+00000035+00000+0001T   00000035+0000001158          1400 H05090               1AZ
103110000103110               103110               170213DE     1400+00000+DE0000005698+0000005698+000000000+000000799+0000006490+0000000007+I20000000000+0000006490+Z
103110001103110007-000029     103110006003000577736PRICE FLASH 17x11cm    0000002000+00001753+00000+0001T   00001753+0000001159          1400 H05130               1AZ
103110002103110566-000359     103110006003000582709STICKER BOOK LOVE SPARK0000001000+00002192+00000+0001T   00002192+0000001159          1400 H05130               1AZ
103111000103111               103111               170213DE     1400+00000+DE0000006172+0000006172+000000000+000000865+0000007030+0000000007+I20000000000+0000007030+Z
103111001103111200-003024     103111006001023657299REFUSE BAGS 20PCE BLACK0000001000+00001753+00000+0001T   00001753+0000001202          1400 H05214               1AZ
103111002103111567-004976     103111009780636049024TYB G02 MATHS          0000001000+00002192+00000+0001T   00002192+0000001202          1400 H05757               1AZ
103111003103111567-004963     103111009780636049031TYB G03 MATHS          0000001000+00002192+00000+0001T   00002192+0000001202          1400 H05757               1AZ
103111004103111112-116038     103111006009681820246TCS CARRIER BAG MIDI   0000001000+00000035+00000+0001T   00000035+0000001202          1400 H05090               1AZ
103112000103112               103112               170213DE     1400+00000+DE0000003014+0000003014+000000000+000000423+0000003430+0000000007+I20000000000+0000003430+Z
103112001103112365-000001     103112006003000395262PLAY SET DOCTORS SET   0000001000+00001753+00000+0001T   00001753+0000001204          1400 H05725               1AZ
103112002103112083-000055     103112006003000003853LIGHTER ELCTRNC REFILBL0000002000+00000613+00000+0001T   00000613+0000001204          1400 H05315               1AZ
103112003103112112-116038     103112006009681820246TCS CARRIER BAG MIDI   0000001000+00000035+00000+0001T   00000035+0000001204          1400 H05090               1AZ
103113000103113               103113               170213DE     1400+00000+DE0000001227+0000001227+000000000+000000172+0000001390+0000000009+I20000000000+0000001390+Z
103113001103113251-000041     103113006001023515889SEAL-TAPE BUFF 48mmx50m0000001000+00001227+00000+0001T   00001227+0000001216          1400 H05810               1AZ
103114000103114               103114               170213DE     1400+00000+DE0000000876+0000000876+000000000+000000123+0000000990+0000000009+I20000000000+0000000990+Z
103114001103114366-007917     103114006003000653621DRESS UP MASK ANIMALS  0000001000+00000876+00000+0001T   00000876+0000001257          1400 H05131               1AZ
103115000103115               103115               170213DE     1400+00000+DE0000011887+0000011887+000000000+000001665+0000013552+0000000000+I40000013552+0000000000+Z
103115001103115089-060027     103115006003000245871KEY-CHAIN HEART 6X6cm  0000001000+00003069+00000+0001T   00003069+0000001326          1400 H05205               1AZ
103115002103115009-001712     103115006001023807823MELAMINE TRAY RECT DSGN0000002000+00004385+00000+0001T   00004385+0000001326          1400 H05210               1AZ
103115003103115112-116069     103115006009681820277TCS CARRIER BAG JUMBO  0000001000+00000048+00000+0001T   00000048+0000001326          1400 H05090               1AZ
103116000103116               103116               170213DE     1400+00000+DE0000010082+0000010082+000000000+000001414+0000011496+0000000000+I40000011496+0000000000+Z
103116001103116466-000584     103116006001023628787SKIPPING-ROPE          0000001000+00002630+00000+0001T   00002630+0000001328          1400 H05785               1AZ
103116002103116071-001346     103116006001023732552HIGHLIGHTERS 4PCE CARD 0000001000+00002192+00000+0001T   00002192+0000001328          1400 H05130               1AZ
103116003103116004-071190     103116006003000528691USB CABLE EXT M/F 1.5m 0000001000+00002630+00000+0001T   00002630+0000001328          1400 H05310               1AZ
103116004103116159-000684     103116006001023776532BATH BODY-GLOVE 18cm   0000001000+00002630+00000+0001T   00002630+0000001328          1400 H05200               1AZ
103117000103117               103117               170213DE     1400+00000+DE0000009064+0000009064+000000000+000001272+0000010336+0000000000+I40000010336+0000000000+Z
103117001103117403-000502-A   103117006003000467099M/BANK TIN 8x12.5cm    0000003000+00002630+00000+0001T   00002630+0000001333          1400 H05510               1AZ
103117002103117112-116038     103117006009681820246TCS CARRIER BAG MIDI   0000001000+00000035+00000+0001T   00000035+0000001333          1400 H05090               1AZ
103117003103117903-000087     103117006001704000161SWT SPECKLED-EGGS 50G  0000001000+00001139+00000+0001T   00001139+0000001333          1400 H05150               1AZ
103118000103118               103118               170213DE     1400+00000+DE0000009382+0000009382+000000000+000001315+0000010697+0000000000+I40000010697+0000000000+Z
103118001103118040-000922     103118006001023587817CANDLE-HOLDER GLS 18cm 0000001000+00001753+00000+0001T   00001753+0000001343          1400 H05510               1AZ
103118002103118562-000070     103118006003000600748EDU PLAY DOUGH 50g 8pc 0000001000+00007016+00000+0001T   00007016+0000001343          1400 H05755               1AZ
103118003103118903-000848     103118008692806080076SWT SNACK BISCUIT 70g  0000001000+00000613+00000+0001T   00000613+0000001343          1400 H05150               1AZ
103119000103119               103119               170213DE     1400+00000+DE0000001226+0000001226+000000000+000000172+0000001390+0000000008+I20000000000+0000001390+Z
103119001103119007-000104     103119006009685854865BK COVER BRWN KRFT ROLL0000001000+00000350+00000+0001T   00000350+0000001346          1400 H05130               1AZ
103119002103119077-000011-E   103119006001023808646TISSUE-WRAP PINK 10PCE 0000001000+00000876+00000+0001T   00000876+0000001346          1400 H05112               1AZ
103120000103120               103120               170213DE     1400+00000+DE0000003331+0000003331+000000000+000000467+0000003790+0000000008+I20000000000+0000003790+Z
103120001103120018-000127     103120006001023380289MUG OCC STRAIGHT LOVE  0000001000+00001578+00000+0001T   00001753+0006471349          1400 H05515               1AZ
103120002103120089-000030     103120006003000575671K/CHAIN LOVE MTL ASSTD 0000001000+00001753+00000+0001T   00001753+0000001349          1400 H05205               1AZ
103121000103121               103121               170213DE     1400+00000+DE0000005295+0000005295+000000000+000000743+0000006038+0000000000+I40000006038+0000000000+Z
103121001103121366-006103     103121006001023786944DRESS UP FACE PAINT SET0000001000+00002630+00000+0001T   00002630+0000001356          1400 H05131               1AZ
103121002103121142-000816     103121006001023477163GLOVES DISPOSE PACK-50 0000001000+00002630+00000+0001T   00002630+0000001356          1400 H05810               1AZ
103121003103121112-116038     103121006009681820246TCS CARRIER BAG MIDI   0000001000+00000035+00000+0001T   00000035+0000001356          1400 H05090               1AZ
103122000103122               103122               170213DE     1400+00000+DE0000000613+0000000613+000000000+000000086+0000000690+0000000009+I20000000000+0000000690+Z
103122001103122007-000555     103122006001023848239MEMO-PAD MINI LOVE     0000001000+00000613+00000+0001T   00000613+0000001434          1400 H05130               1AZ
103123000103123               103123               170213DE     1400+00000+DE0000005834+0000005834+000000000+000000819+0000006653+0000000000+I40000006653+0000000000+Z
103123001103123036-000151     103123006001023810588COATHANGERS    PACK-10 0000002000+00002893+00000+0001T   00002893+0000001451          1400 H05212               1AZ
103123002103123112-116069     103123006009681820277TCS CARRIER BAG JUMBO  0000001000+00000048+00000+0001T   00000048+0000001451          1400 H05090               1AZ
103124000103124               103124               170213DE     1400+00000+DE0000015788+0000015788+000000000+000002211+0000017999+0000000000+I40000017999+0000000000+Z
103124001103124002-250030     103124006003000268641K/SCALE DIGITAL 5kg    0000001000+00015788+00000+0001T   00015788+0000001500          1400 H05300               1AZ
103125000103125               103125               170213DE     1400+00000+DE0000008200+0000008200+000000000+000001150+0000009350+0000000000+I20000000000+0000009350+Z
103125001103125200-003024     103125006001023657299REFUSE BAGS 20PCE BLACK0000001000+00001753+00000+0001T   00001753+0000001538          1400 H05214               1AZ
103125002103125079-000600     103125006003000160990ART-SHEETS FOAM ASSTD-C0000001000+00003507+00000+0001T   00003507+0000001538          1400 H05130               1AZ
103125003103125112-116069     103125006009681820277TCS CARRIER BAG JUMBO  0000001000+00000048+00000+0001T   00000048+0000001538          1400 H05090               1AZ
103125004103125048-000859     103125006003000423422TORCH 9 LED PL 3XAAA   0000001000+00001753+00000+0001T   00001753+0000001538          1400 H05305               1AZ
103125005103125046-000014     103125006001023725387BATTERIES SIZE:AAA 4PCE0000001000+00001139+00000+0001T   00001139+0000001538          1400 H05312               1AZ
103126000103126               103126               170213DE     1400+00000+DE0000016709+0000016709+000000000+000002342+0000019050+0000000001+I20000000000+0000019050+Z
103126001103126200-003024     103126006001023657299REFUSE BAGS 20PCE BLACK0000002000+00001753+00000+0001T   00001753+0000001544          1400 H05214               1AZ
103126002103126368-000637     103126006001023874092PLUSH BEAR SLEEPING LOV0000001000+00011402+00000+0001T   00012279+0006471544          1400 H05745               1AZ
103126003103126077-000299-A   103126006003000670888GIFT-BAG PAPER JMB LOVE0000001000+00001753+00000+0001T   00001753+0000001544          1400 H05112               1AZ
103126004103126112-116069     103126006009681820277TCS CARRIER BAG JUMBO  0000001000+00000048+00000+0001T   00000048+0000001544          1400 H05090               1AZ
103127000103127               103127               170213DE     1400+00000+DE0000001613+0000001613+000000000+000000226+0000001830+0000000009+I20000000000+0000001830+Z
103127001103127080-000124     103127006003000297733CARD & ENV VALENTINES  0000001000+00001578+00000+0001T   00001578+0000001551          1400 H05112               1AZ
103127002103127112-116038     103127006009681820246TCS CARRIER BAG MIDI   0000001000+00000035+00000+0001T   00000035+0000001551          1400 H05090               1AZ
103128000103128               103128               170213DE     1400+00000+DE0000019779+0000019779+000000000+000002771+0000022550+0000000000+I40000022550+0000000000+Z
103128001103128077-000321     103128006001023677501GIFT-BAG 11X14CM E/D FL0000001000+00000613+00000+0001T   00000613+0000001601          1400 H05112               1AZ
103128002103128006-000190     103128006003000685530BALLOONS LOVE 81x91cm  0000001000+00004385+00000+0001T   00004385+0000001601          1400 H05131               1AZ
103128003103128368-000637     103128006001023874092PLUSH BEAR SLEEPING LOV0000001000+00011402+00000+0001T   00012279+0006471601          1400 H05745               1AZ
103128004103128018-000127     103128006001023380289MUG OCC STRAIGHT LOVE  0000001000+00001578+00000+0001T   00001753+0006471601          1400 H05515               1AZ
103128005103128112-116069     103128006009681820277TCS CARRIER BAG JUMBO  0000001000+00000048+00000+0001T   00000048+0000001601          1400 H05090               1AZ
103128006103128077-000299-A   103128006003000670888GIFT-BAG PAPER JMB LOVE0000001000+00001753+00000+0001T   00001753+0000001601          1400 H05112               1AZ
103129000103129               103129               170213DE     1400+00000+DE0000003856+0000003856+000000000+000000541+0000004397+0000000000+I40000004397+0000000000+Z
103129001103129083-000055     103129006003000003853LIGHTER ELCTRNC REFILBL0000001000+00000613+00000+0001T   00000613+0000001608          1400 H05315               1AZ
103129002103129200-003024     103129006001023657299REFUSE BAGS 20PCE BLACK0000001000+00001753+00000+0001T   00001753+0000001608          1400 H05214               1AZ
103129003103129077-000299     103129006003000395576G/BAG 32x25cm LRG LOVE 0000001000+00001490+00000+0001T   00001490+0000001608          1400 H05112               1AZ
103130000103130               103130               170213DE     1400+00000+DE0000014471+0000014471+000000000+000002026+0000016490+0000000007+I20000000000+0000016490+Z
103130001103130065-005337     103130006001023619303KEYBOARD B/O 32-KEYS   0000001000+00013157+00000+0001T   00013157+0000001611          1400 H05745               1AZ
103130002103130046-000012     103130006904708013062BATTERIES AA  CARD-OF-40000001000+00001314+00000+0001T   00001314+0000001611          1400 H05312               1AZ
103131000103131               103131               170213DE     1400+00000+DE0000000613+0000000613+000000000+000000086+0000000690+0000000009+I20000000000+0000000690+Z
103131001103131047-000001-BB  103131006001023723536INS-TAPE BLACK 18mmx10m0000001000+00000613+00000+0001T   00000613+0000001614          1400 H05880               1AZ
103132000103132               103132               170213DE     1400+00000+DE0000004385+0000004385+000000000+000000614+0000004999+0000000000+I40000004999+0000000000+Z
103132001103132030-000031-A   103132006003000457588PLAQUE W/WORDS ASSTD   0000001000+00004385+00000+0001T   00004823+0006471617          1400 H05505               1AZ
103133000103133               103133               170213DE     1400+00000+DE0000002630+0000002630+000000000+000000369+0000002990+0000000009+I20000000000+0000002990+Z
103133001103133079-000282     103133006001023493309PAINT TUBS POSTER 12COL0000001000+00002630+00000+0001T   00002630+0000001619          1400 H05130               1AZ
103134000103134               103134               170213DE     1400+00000+DE0000006174+0000006174+000000000+000000865+0000007030+0000000009+I20000000000+0000007030+Z
103134001103134018-050000     103134006003000412679MUG OCC LOVE TWIN BEAR 0000001000+00006139+00000+0001T   00006139+0000001626          1400 H05515               1AZ
103134002103134112-116038     103134006009681820246TCS CARRIER BAG MIDI   0000001000+00000035+00000+0001T   00000035+0000001626          1400 H05090               1AZ
103135000103135               103135               170213DE     1400+00000+DE0000002191+0000002191+000000000+000000307+0000002490+0000000008+I20000000000+0000002490+Z
103135001103135018-000127     103135006001023380289MUG OCC STRAIGHT LOVE  0000001000+00001578+00000+0001T   00001753+0006471629          1400 H05515               1AZ
103135002103135077-000311     103135006001023608666GIFT-BAG 11X14CM GLOSS 0000001000+00000613+00000+0001T   00000613+0000001629          1400 H05112               1AZ
103136000103136               103136               170213DE     1400+00000+DE0000004381+0000004381+000000000+000000615+0000004990+0000000006+I20000000000+0000004990+Z
103136001103136077-000151     103136006008766114676GIFT-WRAP C/PHANE ASSTD0000003000+00000876+00000+0001T   00000876+0000001630          1400 H05112               1AZ
103136002103136200-003024     103136006001023657299REFUSE BAGS 20PCE BLACK0000001000+00001753+00000+0001T   00001753+0000001630          1400 H05214               1AZ
103137000103137               103137               170213DE     1400+00000+DE0000002192+0000002192+000000000+000000307+0000002490+0000000009+I20000000000+0000002490+Z
103137001103137079-013102     103137006003000019601ART+CRAFT DIY PIPE-CLNR0000001000+00002192+00000+0001T   00002192+0000001632          1400 H05130               1AZ
103138000103138               103138               170213DE     1400+00000+DE0000007940+0000007940+000000000+000001113+0000009050+0000000003+I20000000000+0000009050+Z
103138001103138018-050000     103138006003000412679MUG OCC LOVE TWIN BEAR 0000001000+00006139+00000+0001T   00006139+0000001638          1400 H05515               1AZ
103138002103138077-000289     103138006001023901996GIFT BOX 20x25x11cm    0000001000+00001753+00000+0001T   00001753+0000001638          1400 H05112               1AZ
103138003103138112-116069     103138006009681820277TCS CARRIER BAG JUMBO  0000001000+00000048+00000+0001T   00000048+0000001638          1400 H05090               1AZ
103139000103139               103139               170213DE     1400+00000+DE0000005085+0000005085+000000000+000000712+0000005790+0000000007+I20000000000+0000005790+Z
103139001103139077-000303     103139006001023593757GIFT-BAG PAPER MED     0000001000+00001578+00000+0001T   00001578+0000001639          1400 H05112               1AZ
103139002103139018-000136     103139006001023659026MUG OCC LOVE W/PLUSH   0000001000+00003507+00000+0001T   00003507+0000001639          1400 H05515               1AZ
103140000103140               103140               170213DE     1400+00000+DE0000006221+0000006221+000000000+000000872+0000007090+0000000003+I20000000000+0000007090+Z
103140001103140200-000100     103140006001023764003CUPS 25PCE DISPOSABLE  0000003000+00001928+00000+0001T   00001928+0000001640          1400 H05214               1AZ
103140002103140080-000133     103140006003000535613CARD&ENV MINI ASTD DSGN0000001000+00000437+00000+0001T   00000437+0000001640          1400 H05112               1AZ
103141000103141               103141               170213DE     1400+00000+DE0000008765+0000008765+000000000+000001229+0000009990+0000000004+I20000000000+0000009990+Z
103141001103141077-000151     103141006008766114676GIFT-WRAP C/PHANE ASSTD0000005000+00000876+00000+0001T   00000876+0000001647          1400 H05112               1AZ
103141002103141006-000190     103141006003000685530BALLOONS LOVE 81x91cm  0000001000+00004385+00000+0001T   00004385+0000001647          1400 H05131               1AZ
103142000103142               103142               170213DE     1400+00000+DE0000001753+0000001753+000000000+000000246+0000001990+0000000009+I20000000000+0000001990+Z
103142001103142151-000620     103142006001023653345WIRE-BRUSH-SET SML 3PCE0000001000+00001753+00000+0001T   00001753+0000001649          1400 H05810               1AZ
103143000103143               103143               170213DE     1400+00000+DE0000002630+0000002630+000000000+000000369+0000002990+0000000009+I20000000000+0000002990+Z
103143001103143366-000450     103143006003000653386DRESS UP HEADBAND ASSTD0000001000+00002630+00000+0001T   00002630+0000001649          1400 H05131               1AZ
103144000103144               103144               170213DE     1400+00000+DE0000009673+0000009673+000000000+000001359+0000011030+0000000002+I20000000000+0000011030+Z
103144001103144903-000059     103144006002099001269SWT GS NOVELTY ALIEN VA0000002000+00001753+00000+0001T   00001753+0000001652          1400 H05150               1AZ
103144002103144566-000028     103144006003000265541STICKER BK ASSTD 250PCE0000001000+00001753+00000+0001T   00001753+0000001652          1400 H05130               1AZ
103144003103144077-000314     103144006003000181148GIFT-BAG 11X14CM MATT  0000002000+00000876+00000+0001T   00000876+0000001652          1400 H05112               1AZ
103144004103144566-002004     103144006001023672421STICKERS CRYSTAL SHAPES0000001000+00001753+00000+0001T   00001753+0000001652          1400 H05130               1AZ
103144005103144080-000133     103144006003000535613CARD&ENV MINI ASTD DSGN0000002000+00000437+00000+0001T   00000437+0000001652          1400 H05112               1AZ
103144006103144112-116038     103144006009681820246TCS CARRIER BAG MIDI   0000001000+00000035+00000+0001T   00000035+0000001652          1400 H05090               1AZ
103145000103145               103145               170213DE     1400+00000+DE0000007976+0000007976+000000000+000001118+0000009090+0000000004+I20000000000+0000009090+Z
103145001103145031-000902-B   103145006001023726285P/FRAME WDN OAK 10X15CM0000001000+00003946+00000+0001T   00003946+0000001707          1400 H05510               1AZ
103145002103145304-001204     103145006001023737984FLOWER OCC. TEDDY/ROSES0000001000+00001402+00000+0001T   00001490+0006471707          1400 H05510               1AZ
103145003103145903-000194     103145006009826020616SWT CHOC RP LOLLY 25G  0000001000+00001314+00000+0001T   00001314+0000001707          1400 H05150               1AZ
103145004103145077-000310     103145006001023608635GIFT-BAG 18X23CM GLOSS 0000001000+00001314+00000+0001T   00001314+0000001707          1400 H05112               1AZ
103146000103146               103146               170213DE     1400+00000+DE0000002192+0000002192+000000000+000000307+0000002499+0000000000+I40000002499+0000000000+Z
103146001103146046-000012-A   103146006003000208296BATTERIES H/POWER SZ:AA0000001000+00002192+00000+0001T   00002192+0000001710          1400 H05312               1AZ
103147000103147               103147               170213DE     1400+00000+DE0000005260+0000005260+000000000+000000738+0000005998+0000000000+I40000005998+0000000000+Z
103147001103147366-000450     103147006003000653386DRESS UP HEADBAND ASSTD0000001000+00002630+00000+0001T   00002630+0000001712          1400 H05131               1AZ
103147002103147079-000282     103147006001023493309PAINT TUBS POSTER 12COL0000001000+00002630+00000+0001T   00002630+0000001712          1400 H05130               1AZ
103148000103148               103148               170213DE     1400+00000+DE0000000876+0000000876+000000000+000000123+0000000990+0000000009+I20000000000+0000000990+Z
103148001103148366-007917     103148006003000653621DRESS UP MASK ANIMALS  0000001000+00000876+00000+0001T   00000876+0000001720          1400 H05131               1AZ
103149000103149               103149               170213DE     1400+00000+DE0000000876+0000000876+000000000+000000123+0000000990+0000000009+I20000000000+0000000990+Z
103149001103149077-000011-D   103149006001023808554TISSUE-WRAP WHITE 10PCE0000001000+00000876+00000+0001T   00000876+0000001721          1400 H05112               1AZ
103150000103150               103150               170213DE     1400+00000+DE0000052628+0000052628+000000000+000007368+0000059996+0000000000+I40000059996+0000000000+Z
103150001103150007-010503     103150006003000455393WIPE & CHALK 90X60CM   0000002000+00026314+00000+0001T   00026314+0000001726          1400 H05130               1AZ
103151000103151               103151               170213DE     1400+00000+DE0000003506+0000003506+000000000+000000492+0000003990+0000000008+I20000000000+0000003990+Z
103151001103151006-000223     103151006001023891327PARTY EYE-MASK 6PCE    0000001000+00000876+00000+0001T   00000876+0000001727          1400 H05131               1AZ
103151002103151079-000282     103151006001023493309PAINT TUBS POSTER 12COL0000001000+00002630+00000+0001T   00002630+0000001727          1400 H05130               1AZ
103152000103152               103152               170213DE     1400+00000+DE0000002713+0000002713+000000000+000000382+0000003090+0000000005+I20000000000+0000003090+Z
103152001103152903-000194     103152006009826020616SWT CHOC RP LOLLY 25G  0000001000+00001314+00000+0001T   00001314+0000001730          1400 H05150               1AZ
103152002103152080-000133-A   103152006003000647019MINI VALENTINES CARD   0000002000+00000437+00000+0001T   00000437+0000001730          1400 H05112               1AZ
103152003103152903-000151     103152006009803374411SWT SML RND R/BOW LOLLY0000001000+00000525+00000+0001T   00000525+0000001730          1400 H05150               1AZ
103153000103153               103153               170213DE     1400+00000+DE0000001753+0000001753+000000000+000000246+0000001990+0000000009+I20000000000+0000001990+Z
103153001103153077-000354     103153006003000139224GIFT-BAG 25X32CM H/MADE0000001000+00001753+00000+0001T   00001753+0000001735          1400 H05112               1AZ
103154000103154               103154               170213DE     1400+00000+DE0000008976+0000008976+000000000+000001259+0000010230+0000000005+I20000000000+0000010230+Z
103154001103154903-000095     103154006001704011495SWT SPECKLED-EGGS 100G 0000002000+00002104+00000+0001T   00002104+0000001738          1400 H05150               1AZ
103154002103154150-012228-H   103154006001023416773DOOR-STOPPERS SET-OF-2 0000001000+00001753+00000+0001T   00001753+0000001738          1400 H05810               1AZ
103154003103154252-000004     103154006001023473332CURTN-HOOK BRS R7 50PCE0000002000+00001490+00000+0001T   00001490+0000001738          1400 H05810               1AZ
103154004103154112-116038     103154006009681820246TCS CARRIER BAG MIDI   0000001000+00000035+00000+0001T   00000035+0000001738          1400 H05090               1AZ
C10311500                                          170213DE002-000655     13215399SLAVE 1     H051IC0000000000+0000000000+0010000001000+
C10311501                                          170213DE112-116038     13220156SLAVE 1     H051IC0000000000+0000000000+0020000001000+
M17021391                              CASH        DESLAVE 1                       Z-REPORT No.   465TOTAL (Sales - Refunds)           4141.80       CASH TO BE BANKED                 2369.70       DEBIT CARDS                          0.00       CREDIT CARDS                      1772.10       Z-READING                         4141.80       AIRTIME DEBIT CARD SALES             0.00       AIRTIME CARD SALES                   0.00       OVERS/UNDERS                         0.00       AIRTIME CASH SALES                   0.00       GIFT CARDS                           0.00       GIFT CARD CASH SALES                 0.00       T O T A L  CASH PAYOUTS              0.00                                                                                                                                                                                                                                                                                                                                                      Z
M17021392                              CASH        DEABSENT                                                                                                                                                                                          ANNUAL LEAVE                                                                                                                                                                                    DAY OFF                                                                                                                                                                                         COMMENTS                                                                                                                                                                                                                                                                                                                                                                                       Z
Y17021300                                          DE00000000363521+000055
ZDE17021319283 SLAVE 1      SALES DATA                     NEXT INVOICE NO.  103155 0465
X DE Slave 1 First invoice 103100 170213 Last invoice 103154 170213 Next invoice 103155 Total number of records 000000192 clbackup completed 19:28:24
