204564000204564               204564               170213DE     1400+00000+DE0000004822+0000004822+000000000+000000676+0000005498+0000000000+I40000005498+0000000000+Z
204564001204564030-000031-A   204564006003000457588PLAQUE W/WORDS ASSTD   0000001000+00004385+00000+0001T   00004823+0006470931          1400 TJ1505               2AZ
204564002204564080-000133-A   204564006003000647019MINI VALENTINES CARD   0000001000+00000437+00000+0001T   00000437+0000000931          1400 TJ1112               2AZ
204565000204565               204565               170213DE     1400+00000+DE0000001578+0000001578+000000000+000000221+0000001790+0000000009+I20000000000+0000001790+Z
204565001204565018-000127     204565006001023380289MUG OCC STRAIGHT LOVE  0000001000+00001578+00000+0001T   00001753+0006470946          1400 TJ1515               2AZ
204566000204566               204566               170213DE     1400+00000+DE0000005219+0000005219+000000000+000000733+0000005950+0000000002+I20000000000+0000005950+Z
204566001204566903-000200     204566006009826020234SWT CHOC RP CHOCO 23G  0000001000+00000788+00000+0001T   00000788+0000000948          1400 TJ1150               2AZ
204566002204566031-005821     204566006001023667786P/FRAME-GLS CLIP 21X30 0000001000+00002630+00000+0001T   00002630+0000000948          1400 TJ1510               2AZ
204566003204566200-003024     204566006001023657299REFUSE BAGS 20PCE BLACK0000001000+00001753+00000+0001T   00001753+0000000948          1400 TJ1214               2AZ
204566004204566112-116069     204566006009681820277TCS CARRIER BAG JUMBO  0000001000+00000048+00000+0001T   00000048+0000000948          1400 TJ1090               2AZ
204567000204567               204567               170213DE     1400+00000+DE0000026313+0000026313+000000000+000003684+0000029997+0000000000+I40000029997+0000000000+Z
204567001204567039-000799     204567006001023692382CANDLES TEALITE 100PCE 0000003000+00008771+00000+0001T   00008771+0000001023          1400 TJ1510               2AZ
204568000204568               204568               170213DE     1400+00000+DE0000011786+0000011786+000000000+000001651+0000013437+0000000000+I40000013437+0000000000+Z
204568001204568077-000245     204568006001023759214GIFT-RIBBON METALLICx2 0000001000+00001227+00000+0001T   00001227+0000001028          1400 TJ1112               2AZ
204568002204568016-006524     204568006003000579358S/JAR GLS 750ml ASSTD  0000002000+00005262+00000+0001T   00005262+0000001028          1400 TJ1300               2AZ
204568003204568112-116038     204568006009681820246TCS CARRIER BAG MIDI   0000001000+00000035+00000+0001T   00000035+0000001028          1400 TJ1090               2AZ
204569000204569               204569               170213DE     1400+00000+DE0000001753+0000001753+000000000+000000246+0000001990+0000000009+I20000000000+0000001990+Z
204569001204569469-006641     204569006003000542048B/BLOCK 4 PC FIGURINES 0000001000+00001753+00000+0001T   00001753+0000001029          1400 TJ1755               2AZ
204570000204570               204570               170213DE     1400+00000+DE0000006339+0000006339+000000000+000000893+0000007230+0000000002+I20000000000+0000007230+Z
204570001204570903-000200     204570006009826020234SWT CHOC RP CHOCO 23G  0000008000+00000788+00000+0001T   00000788+0000001031          1400 TJ1150               2AZ
204570002204570112-116038     204570006009681820246TCS CARRIER BAG MIDI   0000001000+00000035+00000+0001T   00000035+0000001031          1400 TJ1090               2AZ
204571000204571               204571               170213DE     1400+00000+DE0000004207+0000004207+000000000+000000590+0000004790+0000000007+I20000000000+0000004790+Z
204571001204571033-000013     204571006001023567215PILL-REMINDER PL       0000002000+00001227+00000+0001T   00001227+0000001031          1400 TJ1200               2AZ
204571002204571200-003024     204571006001023657299REFUSE BAGS 20PCE BLACK0000001000+00001753+00000+0001T   00001753+0000001031          1400 TJ1214               2AZ
204572000204572               204572               170213DE     1400+00000+DE0000012119+0000012119+000000000+000001707+0000013826+0000000000+I40000013826+0000000000+Z
204572001204572903-000520     204572006001704009898SWT GUMMY MINI SOUR 60g0000001000+00000876+00000+0001T   00000876+0000001034          1400 TJ1150               2AZ
204572002204572903-000494     204572006001704009911SWT GUMMY TEENY TEDDIES0000001000+00000876+00000+0001T   00000876+0000001034          1400 TJ1150               2AZ
204572003204572903-000011     204572006002099007315SWT MALLOW CHOC 15G    0000001000+00000437+00000+0001T   00000437+0000001034          1400 TJ1150               2AZ
204572004204572112-116038     204572006009681820246TCS CARRIER BAG MIDI   0000001000+00000035+00000+0001T   00000035+0000001034          1400 TJ10901IC            2AZ
204572005204572903-000011     204572006002099007315SWT MALLOW CHOC 15G    0000003000+00000437+00000+0001T   00000437+0000001034          1400 TJ1150               2AZ
204572006204572903-000012     204572006002099007308SWT MALLOW S/BERRY     0000004000+00000437+00000+0001T   00000437+0000001034          1400 TJ1150               2AZ
204572007204572006-000803     204572006003000653676STREAMERS SET 3ROLLS   0000002000+00002630+00000+0001T   00002630+0000001034          1400 TJ1131               2AZ
204572008204572903-000200     204572006009826020234SWT CHOC RP CHOCO 23G  0000002000+00000788+00000+0001T   00000788+0000001034          1400 TJ1150               2AZ
204573000204573               204573               170213DE     1400+00000+DE0000001227+0000001227+000000000+000000172+0000001390+0000000009+I20000000000+0000001390+Z
204573001204573077-000322     204573006001023677532GIFT-BAG 18X23CM E/D FL0000001000+00001227+00000+0001T   00001227+0000001035          1400 TJ1112               2AZ
204574000204574               204574               170213DE     1400+00000+DE0000014077+0000014077+000000000+000001973+0000016050+0000000000+I40000016050+0000000000+Z
204574001204574106-000899     204574006003000653287WTR BOTTLE 2L W/HANDLE 0000004000+00003069+00000+0001T   00003507+0008191038          1400 TJ1210               2AZ
204574002204574105-001077     204574006003000532872CONTAINER CLIP LOCK 1L 0000001000+00001753+00000+0001T   00002279+0008161038          1400 TJ1210               2AZ
204574003204574112-116069     204574006009681820277TCS CARRIER BAG JUMBO  0000001000+00000048+00000+0001T   00000048+0000001038          1400 TJ1090               2AZ
204575000204575               204575               170213DE     1400+00000+DE0000016401+0000016401+000000000+000002297+0000018690+0000000008+I20000000000+0000018690+Z
204575001204575586-010650     204575006001492106502WATCH LDS RND W/CHARM  0000001000+00015788+00000+0001T   00015788+0000001043          1400 TJ1160               2AZ
204575002204575077-000311     204575006001023608666GIFT-BAG 11X14CM GLOSS 0000001000+00000613+00000+0001T   00000613+0000001043          1400 TJ1112               2AZ
204576000204576               204576               170213DE     1400+00000+DE0000008806+0000008806+000000000+000001233+0000010039+0000000000+I40000010039+0000000000+Z
204576001204576001-091415     204576006003000329113W/GLS OCC. LOVE 2PC 2800000001000+00008771+00000+0001T   00009648+0006471053          1400 TJ1515               2AZ
204576002204576112-116038     204576006009681820246TCS CARRIER BAG MIDI   0000001000+00000035+00000+0001T   00000035+0000001053          1400 TJ1090               2AZ
204577000204577               204577               170213DE     1400+00000+DE0000007500+0000007500+000000000+000001051+0000008550+0000000001+I20000000000+0000008550+Z
204577001204577200-003024     204577006001023657299REFUSE BAGS 20PCE BLACK0000001000+00001753+00000+0001T   00001753+0000001203          1400 TJ1214               2AZ
204577002204577567-004965     204577009780636049215SPF G03 AFRIKAANS      0000001000+00002192+00000+0001T   00002192+0000001203          1400 TJ1757               2AZ
204577003204577567-011362     204577009780709722878BK EDU MY FIRST COUNT  0000001000+00003507+00000+0001T   00003507+0000001203          1400 TJ1757               2AZ
204577004204577112-116069     204577006009681820277TCS CARRIER BAG JUMBO  0000001000+00000048+00000+0001T   00000048+0000001203          1400 TJ1090               2AZ
204578000204578               204578               170213DE     1400+00000+DE0000005161+0000005161+000000000+000000724+0000005880+0000000005+I20000000000+0000005880+Z
204578001204578077-000245     204578006001023759214GIFT-RIBBON METALLICx2 0000001000+00001227+00000+0001T   00001227+0000001208          1400 TJ1112               2AZ
204578002204578024-091103     204578006003453014307BAKING-CUP MUFFIN 50PCE0000001000+00002192+00000+0001T   00002192+0000001208          1400 TJ1300               2AZ
204578003204578903-000183     204578006003000451043SWT LB HEART LOLLY     0000001000+00000393+00000+0001T   00000393+0000001208          1400 TJ1150               2AZ
204578004204578112-116038     204578006009681820246TCS CARRIER BAG MIDI   0000001000+00000035+00000+0001T   00000035+0000001208          1400 TJ1090               2AZ
204578005204578903-000194     204578006009826020616SWT CHOC RP LOLLY 25G  0000001000+00001314+00000+0001T   00001314+0000001208          1400 TJ1150               2AZ
204579000204579               204579               170213DE     1400+00000+DE0000000001-0000000001-000000000+000000000+0000000010-0000000009+I20000000000+0000000010-Z
204579001204579016-006524     204579006003000579358S/JAR GLS 750ml ASSTD  0000002000-00005262+00000+0001T   00005262+0000001218          1400 TJ13001IC            2 Z
204579002204579016-006523     204579006003000297825S/JAR GLS 550ml W/WORDS0000002000+00004385+00000+0001T   00004385+0000001218          1400 TJ1300               2 Z
204579003204579071-081103     204579006003000197002GLUE STICKS LIQUID 3PCE0000001000+00001753+00000+0001T   00001753+0000001218          1400 TJ1130               2 Z
204580000204580               204580               170213DE     1400+00000+DE0000002450+0000002450+000000000+000000346+0000002790+0000000006+I20000000000+0000002790+Z
204580001204580071-000212     204580006009608641190CHALK WHITE 12PCE      0000001000+00000437+00000+0001T   00000437+0000001219          1400 TJ1130               2AZ
204580002204580071-000012     204580006001177101006CHALK COLOUR 12PCE     0000002000+00000481+00000+0001T   00000481+0000001219          1400 TJ1130               2AZ
204580003204580903-002891     204580008935001721376MENTOS GUM WINTERGREEN 0000001000+00001051+00000+0001T   00001051+0000001219          1400 TJ1150               2AZ
204581000204581               204581               170213DE     1400+00000+DE0000001613+0000001613+000000000+000000226+0000001830+0000000009+I20000000000+0000001830+Z
204581001204581018-000127     204581006001023380289MUG OCC STRAIGHT LOVE  0000001000+00001578+00000+0001T   00001753+0006471221          1400 TJ1515               2AZ
204581002204581112-116038     204581006009681820246TCS CARRIER BAG MIDI   0000001000+00000035+00000+0001T   00000035+0000001221          1400 TJ1090               2AZ
204582000204582               204582               170213DE     1400+00000+DE0000007893+0000007893+000000000+000001106+0000008999+0000000000+I40000008999+0000000000+Z
204582001204582085-007004     204582006001023870681P/TOOL 15in1 SS W/POUCH0000001000+00007893+00000+0001T   00007893+0000001222          1400 TJ1305               2AZ
204583000204583               204583               170213DE     1400+00000+DE0000002137+0000002137+000000000+000000301+0000002430+0000000008+I20000000000+0000002430+Z
204583001204583007-000119     204583006002324004126BOOK COVER PL          0000002000+00001051+00000+0001T   00001051+0000001226          1400 TJ1130               2AZ
204583002204583112-116038     204583006009681820246TCS CARRIER BAG MIDI   0000001000+00000035+00000+0001T   00000035+0000001226          1400 TJ1090               2AZ
204584000204584               204584               170213DE     1400+00000+DE0000002892+0000002892+000000000+000000405+0000003290+0000000007+I20000000000+0000003290+Z
204584001204584077-000303     204584006001023593757GIFT-BAG PAPER MED     0000001000+00001578+00000+0001T   00001578+0000001228          1400 TJ1112               2AZ
204584002204584903-000194     204584006009826020616SWT CHOC RP LOLLY 25G  0000001000+00001314+00000+0001T   00001314+0000001228          1400 TJ1150               2AZ
204585000204585               204585               170213DE     1400+00000+DE0000035082+0000035082+000000000+000004914+0000039990+0000000006+I20000000000+0000039990+Z
204585001204585002-250030     204585006003000268641K/SCALE DIGITAL 5kg    0000002000+00015788+00000+0001T   00015788+0000001233          1400 TJ1300               2AZ
204585002204585200-003024     204585006001023657299REFUSE BAGS 20PCE BLACK0000002000+00001753+00000+0001T   00001753+0000001233          1400 TJ1214               2AZ
204586000204586               204586               170213DE     1400+00000+DE0000003507+0000003507+000000000+000000491+0000003990+0000000008+I20000000000+0000003990+Z
204586001204586031-000002-A   204586006003000247103P/FRAME LOVE 7.5X7.5CM 0000001000+00003507+00000+0001T   00003507+0000001242          1400 TJ1510               2AZ
204587000204587               204587               170213DE     1400+00000+DE0000002364+0000002364+000000000+000000332+0000002696+0000000000+I40000002696+0000000000+Z
204587001204587033-005921-B   204587006001023678348SEWING-THREAD 200m BLK 0000001000+00000876+00000+0001T   00000876+0000001256          1400 TJ1200               2AZ
204587002204587033-005920-A   204587006001023678249SEWING-THREAD 100m WHT 0000001000+00000700+00000+0001T   00000700+0000001256          1400 TJ1200               2AZ
204587003204587033-005991     204587006001023678546NEEDLES H/HOLD-REPAIR  0000001000+00000788+00000+0001T   00000788+0000001256          1400 TJ1200               2AZ
204588000204588               204588               170213DE     1400+00000+DE0000008804+0000008804+000000000+000001234+0000010030+0000000008+I20000000000+0000010030+Z
204588001204588079-000275     204588006003000160488PAINT-BRUSHES 6PCE PRO 0000001000+00001753+00000+0001T   00001753+0000001258          1400 TJ1130               2AZ
204588002204588079-000590     204588006003000543236SKETCH PAD & PAINT SET 0000001000+00007016+00000+0001T   00007016+0000001258          1400 TJ1130               2AZ
204588003204588112-116038     204588006009681820246TCS CARRIER BAG MIDI   0000001000+00000035+00000+0001T   00000035+0000001258          1400 TJ1090               2AZ
204589000204589               204589               170213DE     1400+00000+DE0000008097+0000008097+000000000+000001135+0000009230+0000000002+I20000000000+0000009230+Z
204589001204589903-000194     204589006009826020616SWT CHOC RP LOLLY 25G  0000001000+00001314+00000+0001T   00001314+0000001308          1400 TJ1150               2AZ
204589002204589007-000208     204589006001023582096NOTE-PAD S/STICK 100'S 0000001000+00001490+00000+0001T   00001490+0000001308          1400 TJ1130               2AZ
204589003204589306-001125-A   204589006003000359127FIRSTAID SUPPORT KNEE  0000001000+00002630+00000+0001T   00002630+0000001308          1400 TJ1200               2AZ
204589004204589903-000194     204589006009826020616SWT CHOC RP LOLLY 25G  0000002000+00001314+00000+0001T   00001314+0000001308          1400 TJ1150               2AZ
204589005204589112-116038     204589006009681820246TCS CARRIER BAG MIDI   0000001000+00000035+00000+0001T   00000035+0000001308          1400 TJ1090               2AZ
204590000204590               204590               170213DE     1400+00000+DE0000006139+0000006139+000000000+000000860+0000006999+0000000000+I40000006999+0000000000+Z
204590001204590018-050000     204590006003000412679MUG OCC LOVE TWIN BEAR 0000001000+00006139+00000+0001T   00006139+0000001314          1400 TJ1515               2AZ
204591000204591               204591               170213DE     1400+00000+DE0000011402+0000011402+000000000+000001597+0000012990+0000000009+I20000000000+0000012990+Z
204591001204591368-000637     204591006001023874092PLUSH BEAR SLEEPING LOV0000001000+00011402+00000+0001T   00012279+0006471315          1400 TJ1745               2AZ
204592000204592               204592               170213DE     1400+00000+DE0000003987+0000003987+000000000+000000560+0000004547+0000000000+I40000004547+0000000000+Z
204592001204592200-003024     204592006001023657299REFUSE BAGS 20PCE BLACK0000002000+00001753+00000+0001T   00001753+0000001319          1400 TJ1214               2AZ
204592002204592071-000012     204592006001177101006CHALK COLOUR 12PCE     0000001000+00000481+00000+0001T   00000481+0000001319          1400 TJ1130               2AZ
204593000204593               204593               170213DE     1400+00000+DE0000001402+0000001402+000000000+000000197+0000001590+0000000009+I20000000000+0000001590+Z
204593001204593304-001204     204593006001023737984FLOWER OCC. TEDDY/ROSES0000001000+00001402+00000+0001T   00001490+0006471324          1400 TJ1510               2AZ
204594000204594               204594               170213DE     1400+00000+DE0000009958+0000009958+000000000+000001395+0000011350+0000000003+I20000000000+0000011350+Z
204594001204594903-000087     204594006001704000161SWT SPECKLED-EGGS 50G  0000001000+00001139+00000+0001T   00001139+0000001326          1400 TJ1150               2AZ
204594002204594264-000927     204594000090159393009MAISTO MOTORBIKE 1:18  0000001000+00008771+00000+0001T   00008771+0000001326          1400 TJ1710               2AZ
204594003204594112-116069     204594006009681820277TCS CARRIER BAG JUMBO  0000001000+00000048+00000+0001T   00000048+0000001326          1400 TJ1090               2AZ
204595000204595               204595               170213DE     1400+00000+DE0000001402+0000001402+000000000+000000197+0000001590+0000000009+I20000000000+0000001590+Z
204595001204595046-000011     204595004897006172994BATTERIES SIZE:AA  2PCE0000001000+00001402+00000+0001T   00001402+0000001327          1400 TJ1312               2AZ
204596000204596               204596               170213DE     1400+00000+DE0000002102+0000002102+000000000+000000296+0000002390+0000000008+I20000000000+0000002390+Z
204596001204596007-000119     204596006002324004126BOOK COVER PL          0000002000+00001051+00000+0001T   00001051+0000001332          1400 TJ1130               2AZ
204597000204597               204597               170213DE     1400+00000+DE0000000876+0000000876+000000000+000000123+0000000990+0000000009+I20000000000+0000000990+Z
204597001204597903-000220     204597006001704007368SWT JELLY BEANS 60G    0000001000+00000876+00000+0001T   00000876+0000001332          1400 TJ1150               2AZ
204598000204598               204598               170213DE     1400+00000+DE0000006187+0000006187+000000000+000000867+0000007050+0000000004+I20000000000+0000007050+Z
204598001204598366-000900     204598006003000006960DRESS UP WINGS BUG     0000001000+00006139+00000+0001T   00006139+0000001336          1400 TJ1131               2AZ
204598002204598112-116069     204598006009681820277TCS CARRIER BAG JUMBO  0000001000+00000048+00000+0001T   00000048+0000001336          1400 TJ1090               2AZ
204599000204599               204599               170213DE     1400+00000+DE0000003329+0000003329+000000000+000000467+0000003790+0000000006+I20000000000+0000003790+Z
204599001204599077-000321     204599006001023677501GIFT-BAG 11X14CM E/D FL0000001000+00000613+00000+0001T   00000613+0000001343          1400 TJ1112               2AZ
204599002204599077-000470     204599006003000330171G-BAG DESGN SML 11X14CM0000001000+00001314+00000+0001T   00001314+0000001343          1400 TJ1112               2AZ
204599003204599903-000925     204599006009706300296SWT NOVELTY SURPRISE   0000001000+00001402+00000+0001T   00001402+0000001343          1400 TJ1150               2AZ
204600000204600               204600               170213DE     1400+00000+DE0000020209+0000020209+000000000+000002833+0000023042+0000000000+I40000023042+0000000000+Z
204600001204600077-000310     204600006001023608635GIFT-BAG 18X23CM GLOSS 0000002000+00001314+00000+0001T   00001314+0000001356          1400 TJ1112               2AZ
204600002204600077-000475     204600006003000640775GIFT-BAG DESIGNER MED  0000001000+00002630+00000+0001T   00002630+0000001356          1400 TJ1112               2AZ
204600003204600368-000049     204600006003000536955PLUSH BEAR 15cm LOVE   0000002000+00004385+00000+0001T   00004385+0000001356          1400 TJ1745               2AZ
204600004204600077-000470     204600006003000330171G-BAG DESGN SML 11X14CM0000001000+00001314+00000+0001T   00001314+0000001356          1400 TJ1112               2AZ
204600005204600007-010192     204600006009635830536BOOK H/COVER A5 192PAGE0000001000+00001139+00000+0001T   00001139+0000001356          1400 TJ1130               2AZ
204600006204600366-006103     204600006001023786944DRESS UP FACE PAINT SET0000001000+00002630+00000+0001T   00002630+0000001356          1400 TJ1131               2AZ
204600007204600007-000120     204600006009698062714BOOK DRAWING A4 24-PAGE0000002000+00000525+00000+0001T   00000525+0000001356          1400 TJ1130               2AZ
204600008204600112-116069     204600006009681820277TCS CARRIER BAG JUMBO  0000001000+00000048+00000+0001T   00000048+0000001356          1400 TJ1090               2AZ
204601000204601               204601               170213DE     1400+00000+DE0000003506+0000003506+000000000+000000492+0000003990+0000000008+I20000000000+0000003990+Z
204601001204601200-003024     204601006001023657299REFUSE BAGS 20PCE BLACK0000002000+00001753+00000+0001T   00001753+0000001357          1400 TJ1214               2AZ
204602000204602               204602               170213DE     1400+00000+DE0000002630+0000002630+000000000+000000369+0000002990+0000000009+I20000000000+0000002990+Z
204602001204602366-006103     204602006001023786944DRESS UP FACE PAINT SET0000001000+00002630+00000+0001T   00002630+0000001422          1400 TJ1131               2AZ
204603000204603               204603               170213DE     1400+00000+DE0000002191+0000002191+000000000+000000307+0000002490+0000000008+I20000000000+0000002490+Z
204603001204603077-000311     204603006001023608666GIFT-BAG 11X14CM GLOSS 0000001000+00000613+00000+0001T   00000613+0000001441          1400 TJ1112               2AZ
204603002204603018-000127     204603006001023380289MUG OCC STRAIGHT LOVE  0000001000+00001578+00000+0001T   00001753+0006471441          1400 TJ1515               2AZ
204604000204604               204604               170213DE     1400+00000+DE0000006137+0000006137+000000000+000000860+0000006990+0000000007+I20000000000+0000006990+Z
204604001204604071-000682     204604006003000196920ACCESSORIES DESKTOP ASS0000001000+00003507+00000+0001T   00003507+0000001443          1400 TJ1130               2AZ
204604002204604200-000225     204604006008766126952BAKEPANS 5PCE          0000001000+00002630+00000+0001T   00002630+0000001443          1400 TJ1214               2AZ
204605000204605               204605               170213DE     1400+00000+DE0000005698+0000005698+000000000+000000799+0000006490+0000000007+I20000000000+0000006490+Z
204605001204605306-000021-B   204605006003000366217COTTON EARBUDS BABY 55P0000001000+00001753+00000+0001T   00001753+0000001444          1400 TJ1200               2AZ
204605002204605566-000031     204605006003000283910STICKER BK TEACHER STIC0000001000+00002192+00000+0001T   00002192+0000001444          1400 TJ1130               2AZ
204605003204605566-000007     204605006001023761187S/BOOK SUPER VALUE     0000001000+00001753+00000+0001T   00001753+0000001444          1400 TJ1130               2AZ
204606000204606               204606               170213DE     1400+00000+DE0000001613+0000001613+000000000+000000226+0000001830+0000000009+I20000000000+0000001830+Z
204606001204606018-000127     204606006001023380289MUG OCC STRAIGHT LOVE  0000001000+00001578+00000+0001T   00001753+0006471509          1400 TJ1515               2AZ
204606002204606112-116038     204606006009681820246TCS CARRIER BAG MIDI   0000001000+00000035+00000+0001T   00000035+0000001509          1400 TJ1090               2AZ
204607000204607               204607               170213DE     1400+00000+DE0000002630+0000002630+000000000+000000369+0000002990+0000000009+I20000000000+0000002990+Z
204607001204607366-006103     204607006001023786944DRESS UP FACE PAINT SET0000001000+00002630+00000+0001T   00002630+0000001510          1400 TJ1131               2AZ
204608000204608               204608               170213DE     1400+00000+DE0000023546+0000023546+000000000+000003300+0000026846+0000000000+I40000026846+0000000000+Z
204608001204608079-013102     204608006003000019601ART+CRAFT DIY PIPE-CLNR0000001000+00002192+00000+0001T   00002192+0000001519          1400 TJ1130               2AZ
204608002204608071-001012     204608006001023474445MARKERS BLACK ROUND    0000001000+00000876+00000+0001T   00000876+0000001519          1400 TJ1130               2AZ
204608003204608089-060027     204608006003000245871KEY-CHAIN HEART 6X6cm  0000001000+00003069+00000+0001T   00003069+0000001519          1400 TJ1205               2AZ
204608004204608007-000325     204608006009698066514PAPER A4 160GSM 25SHTS 0000001000+00003507+00000+0001T   00003507+0000001519          1400 TJ1130               2AZ
204608005204608077-000303     204608006001023593757GIFT-BAG PAPER MED     0000001000+00001578+00000+0001T   00001578+0000001519          1400 TJ1112               2AZ
204608006204608566-000302     204608006003000444281GLOW IN THE DARK ROOM D0000001000+00007016+00000+0001T   00007016+0000001519          1400 TJ1130               2AZ
204608007204608567-011916     204608009780799375510BK EDU WISKUNDE 8-9JAAR0000001000+00002630+00000+0001T   00002630+0000001519          1400 TJ1757               2AZ
204608008204608018-000129     204608006001023403353MUG OCC. LOVE V-SHAPE  0000001000+00002630+00000+0001T   00002630+0000001519          1400 TJ1515               2AZ
204608009204608112-116069     204608006009681820277TCS CARRIER BAG JUMBO  0000001000+00000048+00000+0001T   00000048+0000001519          1400 TJ1090               2AZ
204609000204609               204609               170213DE     1400+00000+DE0000002630+0000002630+000000000+000000369+0000002990+0000000009+I20000000000+0000002990+Z
204609001204609366-006103     204609006001023786944DRESS UP FACE PAINT SET0000001000+00002630+00000+0001T   00002630+0000001520          1400 TJ1131               2AZ
204610000204610               204610               170213DE     1400+00000+DE0000002630+0000002630+000000000+000000369+0000002990+0000000009+I20000000000+0000002990+Z
204610001204610366-006103     204610006001023786944DRESS UP FACE PAINT SET0000001000+00002630+00000+0001T   00002630+0000001522          1400 TJ1131               2AZ
204611000204611               204611               170213DE     1400+00000+DE0000002630+0000002630+000000000+000000369+0000002990+0000000009+I20000000000+0000002990+Z
204611001204611366-006103     204611006001023786944DRESS UP FACE PAINT SET0000001000+00002630+00000+0001T   00002630+0000001532          1400 TJ1131               2AZ
204612000204612               204612               170213DE     1400+00000+DE0000003542+0000003542+000000000+000000496+0000004030+0000000008+I20000000000+0000004030+Z
204612001204612079-000600     204612006003000160990ART-SHEETS FOAM ASSTD-C0000001000+00003507+00000+0001T   00003507+0000001534          1400 TJ1130               2AZ
204612002204612112-116038     204612006009681820246TCS CARRIER BAG MIDI   0000001000+00000035+00000+0001T   00000035+0000001534          1400 TJ1090               2AZ
204613000204613               204613               170213DE     1400+00000+DE0000020171+0000020171+000000000+000002826+0000022990+0000000007+I20000000000+0000022990+Z
204613001204613018-005007     204613006003000515516MUG OCC. LOVE W/HEARTS 0000001000+00006139+00000+0001T   00006139+0000001537          1400 TJ1515               2AZ
204613002204613077-000270     204613006003000395453GIFT-BAG PPR JMB 33X45 0000001000+00002630+00000+0001T   00002630+0000001537          1400 TJ1112               2AZ
204613003204613368-000637     204613006001023874092PLUSH BEAR SLEEPING LOV0000001000+00011402+00000+0001T   00012279+0006471537          1400 TJ1745               2AZ
204614000204614               204614               170213DE     1400+00000+DE0000000613+0000000613+000000000+000000086+0000000690+0000000009+I20000000000+0000000690+Z
204614001204614077-000311     204614006001023608666GIFT-BAG 11X14CM GLOSS 0000001000+00000613+00000+0001T   00000613+0000001538          1400 TJ1112               2AZ
204615000204615               204615               170213DE     1400+00000+DE0000004908+0000004908+000000000+000000689+0000005590+0000000007+I20000000000+0000005590+Z
204615001204615080-000113     204615006003000237449CARD&ENVLPE - LOVE     0000001000+00001753+00000+0001T   00001753+0000001539          1400 TJ1112               2AZ
204615002204615304-001204     204615006001023737984FLOWER OCC. TEDDY/ROSES0000001000+00001402+00000+0001T   00001490+0006471539          1400 TJ1510               2AZ
204615003204615077-000299-A   204615006003000670888GIFT-BAG PAPER JMB LOVE0000001000+00001753+00000+0001T   00001753+0000001539          1400 TJ1112               2AZ
204616000204616               204616               170213DE     1400+00000+DE0000001578+0000001578+000000000+000000221+0000001790+0000000009+I20000000000+0000001790+Z
204616001204616018-000127     204616006001023380289MUG OCC STRAIGHT LOVE  0000001000+00001578+00000+0001T   00001753+0006471544          1400 TJ1515               2AZ
204617000204617               204617               170213DE     1400+00000+DE0000002630+0000002630+000000000+000000369+0000002990+0000000009+I20000000000+0000002990+Z
204617001204617006-000111     204617006003000519385BALLOONS LARGE 12PCE   0000001000+00002630+00000+0001T   00002630+0000001546          1400 TJ1131               2AZ
204618000204618               204618               170213DE     1400+00000+DE0000002630+0000002630+000000000+000000369+0000002999+0000000000+I40000002999+0000000000+Z
204618001204618306-000998     204618006003000519927FIRSTAID PLASTER 20PC  0000001000+00002630+00000+0001T   00002630+0000001547          1400 TJ1200               2AZ
204619000204619               204619               170213DE     1400+00000+DE0000000876+0000000876+000000000+000000123+0000000990+0000000009+I20000000000+0000000990+Z
204619001204619006-000223     204619006001023891327PARTY EYE-MASK 6PCE    0000001000+00000876+00000+0001T   00000876+0000001559          1400 TJ1131               2AZ
204620000204620               204620               170213DE     1400+00000+DE0000007015+0000007015+000000000+000000983+0000007990+0000000008+I20000000000+0000007990+Z
204620001204620050-000887-TS  204620006003000688210PADLOCK COMBO 35mm 8DIG0000001000+00004385+00000+0001T   00004385+0000001600          1400 TJ1855               2AZ
204620002204620079-000280     204620006003000160723PAINT READYMIX 6PCE    0000001000+00002630+00000+0001T   00002630+0000001600          1400 TJ1130               2AZ
204621000204621               204621               170213DE     1400+00000+DE0000004293+0000004293+000000000+000000603+0000004896+0000000000+I40000004896+0000000000+Z
204621001204621018-000130     204621006001023867537MUG OCC LOVE MINI+HEART0000001000+00003507+00000+0001T   00003507+0000001602          1400 TJ1515               2AZ
204621002204621903-000183     204621006003000451043SWT LB HEART LOLLY     0000002000+00000393+00000+0001T   00000393+0000001602          1400 TJ1150               2AZ
204622000204622               204622               170213DE     1400+00000+DE0000003679+0000003679+000000000+000000517+0000004190+0000000006+I20000000000+0000004190+Z
204622001204622903-000673     204622006009803358237SWT SHERBET GRAPE 4PK  0000001000+00000876+00000+0001T   00000876+0000001605          1400 TJ1150               2AZ
204622002204622903-000151     204622006009803374411SWT SML RND R/BOW LOLLY0000002000+00000525+00000+0001T   00000525+0000001605          1400 TJ1150               2AZ
204622003204622200-003024     204622006001023657299REFUSE BAGS 20PCE BLACK0000001000+00001753+00000+0001T   00001753+0000001605          1400 TJ1214               2AZ
204623000204623               204623               170213DE     1400+00000+DE0000001753+0000001753+000000000+000000246+0000001990+0000000009+I20000000000+0000001990+Z
204623001204623903-000624     204623006003000671793SWEET LOLLY BLU/BRRY   0000001000+00001753+00000+0001T   00001753+0000001606          1400 TJ1150               2AZ
204624000204624               204624               170213DE     1400+00000+DE0000002453+0000002453+000000000+000000344+0000002790+0000000007+I20000000000+0000002790+Z
204624001204624046-002025-PK2 204624004897006174868BATTERIES CR-2025  2PCE0000001000+00001753+00000+0001T   00001753+0000001607          1400 TJ1312               2AZ
204624002204624106-002110     204624006002580007312JUICE-BOTTLE JUMBO     0000001000+00000700+00000+0001T   00000700+0000001607          1400 TJ1210               2AZ
204625000204625               204625               170213DE     1400+00000+DE0000002630+0000002630+000000000+000000369+0000002990+0000000009+I20000000000+0000002990+Z
204625001204625089-023424     204625006001023759740K/CHAIN W/BELT HOOK 28 0000001000+00002630+00000+0001T   00002630+0000001608          1400 TJ1205               2AZ
204626000204626               204626               170213DE     1400+00000+DE0000003507+0000003507+000000000+000000491+0000003998+0000000000+I40000003998+0000000000+Z
204626001204626031-005923     204626006003000040322P/FRAME CERT PL 21x29.70000001000+00003507+00000+0001T   00003507+0000001618          1400 TJ1510               2AZ
204627000204627               204627               170213DE     1400+00000+DE0000002630+0000002630+000000000+000000369+0000002990+0000000009+I20000000000+0000002990+Z
204627001204627079-000282     204627006001023493309PAINT TUBS POSTER 12COL0000001000+00002630+00000+0001T   00002630+0000001635          1400 TJ1130               2AZ
204628000204628               204628               170213DE     1400+00000+DE0000001490+0000001490+000000000+000000209+0000001690+0000000009+I20000000000+0000001690+Z
204628001204628039-000108     204628006001023524034TEA-LITE CANDLES 8PCE  0000001000+00001490+00000+0001T   00001490+0000001655          1400 TJ1510               2AZ
204629000204629               204629               170213DE     1400+00000+DE0000010525+0000010525+000000000+000001474+0000011999+0000000000+I40000011999+0000000000+Z
204629001204629466-000802     204629003523930009754BOXING-SET GLOVES+BAG  0000001000+00010525+00000+0001T   00010525+0000001700          1400 TJ1785               2AZ
204630000204630               204630               170213DE     1400+00000+DE0000013592+0000013592+000000000+000001904+0000015496+0000000000+I40000015496+0000000000+Z
204630001204630089-060027     204630006003000245871KEY-CHAIN HEART 6X6cm  0000003000+00003069+00000+0001T   00003069+0000001702          1400 TJ1205               2AZ
204630002204630368-000049     204630006003000536955PLUSH BEAR 15cm LOVE   0000001000+00004385+00000+0001T   00004385+0000001702          1400 TJ1745               2AZ
204631000204631               204631               170213DE     1400+00000+DE0000004997+0000004997+000000000+000000700+0000005697+0000000000+I40000005697+0000000000+Z
204631001204631077-000299     204631006003000395576G/BAG 32x25cm LRG LOVE 0000001000+00001490+00000+0001T   00001490+0000001704          1400 TJ1112               2AZ
204631002204631018-000136     204631006001023659026MUG OCC LOVE W/PLUSH   0000001000+00003507+00000+0001T   00003507+0000001704          1400 TJ1515               2AZ
204632000204632               204632               170213DE     1400+00000+DE0000002630+0000002630+000000000+000000369+0000002990+0000000009+I20000000000+0000002990+Z
204632001204632079-000282     204632006001023493309PAINT TUBS POSTER 12COL0000001000+00002630+00000+0001T   00002630+0000001705          1400 TJ1130               2AZ
204633000204633               204633               170213DE     1400+00000+DE0000001227+0000001227+000000000+000000172+0000001390+0000000009+I20000000000+0000001390+Z
204633001204633077-000245     204633006001023759214GIFT-RIBBON METALLICx2 0000001000+00001227+00000+0001T   00001227+0000001708          1400 TJ1112               2AZ
204634000204634               204634               170213DE     1400+00000+DE0000006873+0000006873+000000000+000000963+0000007830+0000000006+I20000000000+0000007830+Z
204634001204634903-000120     204634006002099001665SWEET GS ZILLIONS 50g  0000001000+00000700+00000+0001T   00000700+0000001710          1400 TJ1150               2AZ
204634003204634079-014152     204634006003000253074ART+CRAFT PK50 ASSTD   0000002000+00003069+00000+0001T   00003069+0000001710          1400 TJ1130               2AZ
204634004204634112-116038     204634006009681820246TCS CARRIER BAG MIDI   0000001000+00000035+00000+0001T   00000035+0000001710          1400 TJ1090               2AZ
204635000204635               204635               170213DE     1400+00000+DE0000007015+0000007015+000000000+000000983+0000007998+0000000000+I40000007998+0000000000+Z
204635001204635019-000070     204635006003000297474VASE GLS CLEAR BOTTLE  0000001000+00004385+00000+0001T   00004385+0000001712          1400 TJ1510               2AZ
204635002204635079-000282     204635006001023493309PAINT TUBS POSTER 12COL0000001000+00002630+00000+0001T   00002630+0000001712          1400 TJ1130               2AZ
204636000204636               204636               170213DE     1400+00000+DE0000003769+0000003769+000000000+000000529+0000004290+0000000008+I20000000000+0000004290+Z
204636001204636077-000475     204636006003000640775GIFT-BAG DESIGNER MED  0000001000+00002630+00000+0001T   00002630+0000001725          1400 TJ1112               2AZ
204636002204636903-000087     204636006001704000161SWT SPECKLED-EGGS 50G  0000001000+00001139+00000+0001T   00001139+0000001725          1400 TJ1150               2AZ
204637000204637               204637               170213DE     1400+00000+DE0000004155+0000004155+000000000+000000583+0000004730+0000000008+I20000000000+0000004730+Z
204637001204637004-078992     204637004905524102529EARPHONES MINI         0000001000+00001490+00000+0001T   00001490+0000001726          1400 TJ1310               2AZ
204637002204637079-000282     204637006001023493309PAINT TUBS POSTER 12COL0000001000+00002630+00000+0001T   00002630+0000001726          1400 TJ1130               2AZ
204637003204637112-116038     204637006009681820246TCS CARRIER BAG MIDI   0000001000+00000035+00000+0001T   00000035+0000001726          1400 TJ1090               2AZ
B20457200                                          170213DE112-116038     10325112SLAVE 2     TJ11IC0000004000+0000001000+0000000000000+
B20457201                                          170213DE903-000011     10325799SLAVE 2     TJ11IC0000004000+0000003000+0000000000000+
B20457202                                          170213DE006-000803     10330724SLAVE 2     TJ11IC0000004000+0000002000+0000000000000+
B20457203                                          170213DE903-000200     10331305SLAVE 2     TJ11IC0000004000+0000002000+0000000000000+
C20462800                                          170213DE003-009405     16551875SLAVE 2     TJ13IC0000000000+0000000000+0010000001000+
C20463400                                          170213DE033-001300     17101972SLAVE 2     TJ13IC0000000000+0000000000+0020000002000+
M17021391                              CASH        DESLAVE 2                       Z-REPORT No.   632TOTAL (Sales - Refunds)           5082.99       CASH TO BE BANKED                 2932.40       DEBIT CARDS                          0.00       CREDIT CARDS                      2150.59       Z-READING                         5082.99       AIRTIME DEBIT CARD SALES             0.00       AIRTIME CARD SALES                   0.00       OVERS/UNDERS                         0.00       AIRTIME CASH SALES                   0.00       GIFT CARDS                           0.00       GIFT CARD CASH SALES                 0.00       T O T A L  CASH PAYOUTS              0.00                                                                                                                                                                                                                                                                                                                                                      Z
M17021392                              CASH        DEABSENT                                                                                                                                                                                          ANNUAL LEAVE                                                                                                                                                                                    DAY OFF                                                                                                                                                                                         COMMENTS                                                                                                                                                                                                                                                                                                                                                                                       Z
Y17021300                                          DE00000000456685+000074
ZDE17021319283 SLAVE 2      SALES DATA                     NEXT INVOICE NO.  204638 0632
X DE Slave 2 First invoice 204564 170213 Last invoice 204637 170213 Next invoice 204638 Total number of records 000000244 clbackup completed 19:28:26
