127632000127632               127632               170213DF     1400+00000+DF0000013451+0000013451+000000000+000001885+0000015330+0000000006+I20000000000+0000015330+Z
127632001127632001-091415     127632006003000329113W/GLS OCC. LOVE 2PC 2800000001000+00008771+00000+0001T   00009648+0006470909          1400 YK7515               1AZ
127632002127632089-060027     127632006003000245871KEY-CHAIN HEART 6X6cm  0000001000+00003069+00000+0001T   00003069+0000000909          1400 YK7205               1AZ
127632003127632903-000200     127632006009826020234SWT CHOC RP CHOCO 23G  0000002000+00000788+00000+0001T   00000788+0000000909          1400 YK7150               1AZ
127632004127632112-116038     127632006009681820246TCS CARRIER BAG MIDI   0000001000+00000035+00000+0001T   00000035+0000000909          1400 YK7090               1AZ
127633000127633               127633               170213DF     1400+00000+DF0000001578+0000001578+000000000+000000221+0000001799+0000000000+I40000001799+0000000000+Z
127633001127633467-000001     127633006002923008280BEACH BUCKET PL 17x16cm0000001000+00001578+00000+0001T   00001578+0000000912          1400 YK7785               1AZ
127634000127634               127634               170213DF     1400+00000+DF0000001753+0000001753+000000000+000000246+0000001999+0000000000+I40000001999+0000000000+Z
127634001127634027-000917     127634006001023367433DUSTPAN-SET MINI 21x16 0000001000+00001753+00000+0001T   00001753+0000000914          1400 YK7212               1AZ
127635000127635               127635               170213DF     1400+00000+DF0000002278+0000002278+000000000+000000320+0000002590+0000000008+I20000000000+0000002590+Z
127635001127635007-000610     127635006009685851017DIARY HOMEWORK UNDATED 0000001000+00001402+00000+0001T   00001402+0000000921          1400 YK7130               1AZ
127635002127635033-006001     127635006001023135933SEWING-KIT TRAVELLING  0000001000+00000876+00000+0001T   00000876+0000000921          1400 YK7200               1AZ
127636000127636               127636               170213DF     1400+00000+DF0000002453+0000002453+000000000+000000344+0000002790+0000000007+I20000000000+0000002790+Z
127636001127636071-003011     127636006001023762825PEN STICKBALL X10 ASSTD0000001000+00001753+00000+0001T   00001753+0000000924          1400 YK7130               1AZ
127636002127636306-000023-A   127636006003000110148COTTON WOOL BALLS 50PCE0000001000+00000700+00000+0001T   00001314+0008170924          1400 YK7200               1AZ
127637000127637               127637               170213DF     1400+00000+DF0000006396+0000006396+000000000+000000899+0000007290+0000000005+I20000000000+0000007290+Z
127637001127637903-002851     127637000000087108538MENTOS ROLL STRAWBERRY 0000004000+00001051+00000+0001T   00001051+0000000932          1400 YK7150               1AZ
127637002127637566-000359     127637006003000582709STICKER BOOK LOVE SPARK0000001000+00002192+00000+0001T   00002192+0000000932          1400 YK7130               1AZ
127638000127638               127638               170213DF     1400+00000+DF0000000874+0000000874+000000000+000000124+0000000990+0000000008+I20000000000+0000000990+Z
127638001127638080-000133-A   127638006003000647019MINI VALENTINES CARD   0000002000+00000437+00000+0001T   00000437+0000000933          1400 YK7112               1AZ
127639000127639               127639               170213DF     1400+00000+DF0000006079+0000006079+000000000+000000853+0000006932+0000000000+I40000006932+0000000000+Z
127639001127639006-000120     127639006001023346889BALLOONS 10PC MIX COL  0000001000+00001753+00000+0001T   00001753+0000000941          1400 YK7131               1AZ
127639002127639304-001011     127639006001023806727FLWR ROSE RED W/BEAR   0000007000+00000613+00000+0001T   00000788+0006470941          1400 YK7510               1AZ
127639003127639112-116038     127639006009681820246TCS CARRIER BAG MIDI   0000001000+00000035+00000+0001T   00000035+0000000941          1400 YK7090               1AZ
127640000127640               127640               170213DF     1400+00000+DF0000004296+0000004296+000000000+000000602+0000004898+0000000000+I40000004898+0000000000+Z
127640001127640038-092233     127640006003000328925TABLE-MAT N/SLIP ASST  0000001000+00003069+00000+0001T   00003507+0008190950          1400 YK7300               1AZ
127640002127640903-000499     127640006001704012492SWT CHOC MALLOWS 50g   0000001000+00001227+00000+0001T   00001227+0000000950          1400 YK7150               1AZ
127641000127641               127641               170213DF     1400+00000+DF0000009417+0000009417+000000000+000001320+0000010737+0000000000+I40000010737+0000000000+Z
127641001127641301-085001     127641006003000297610ORN WATERBALL LOVE ASST0000001000+00004823+00000+0001T   00004823+0000000953          1400 YK7505               1AZ
127641002127641030-000030-A   127641006003000249305PLAQUE GLASS LOVE      0000001000+00003069+00000+0001T   00003069+0000000953          1400 YK7505               1AZ
127641003127641077-000299     127641006003000395576G/BAG 32x25cm LRG LOVE 0000001000+00001490+00000+0001T   00001490+0000000953          1400 YK7112               1AZ
127641004127641112-116038     127641006009681820246TCS CARRIER BAG MIDI   0000001000+00000035+00000+0001T   00000035+0000000953          1400 YK7090               1AZ
127642000127642               127642               170213DF     1400+00000+DF0000003507+0000003507+000000000+000000491+0000003990+0000000008+I20000000000+0000003990+Z
127642001127642204-000105     127642006001023722119MEMO-HOLDER WORDS 101PC0000001000+00003507+00000+0001T   00003507+0000000954          1400 YK7300               1AZ
127643000127643               127643               170213DF     1400+00000+DF0000002541+0000002541+000000000+000000356+0000002890+0000000007+I20000000000+0000002890+Z
127643001127643012-000001-A   127643006003000697663MICROWAVES PLATE-COVER 0000001000+00001314+00000+0001T   00001314+0000001037          1400 YK7300               1AZ
127643002127643251-000041     127643006001023515889SEAL-TAPE BUFF 48mmx50m0000001000+00001227+00000+0001T   00001227+0000001037          1400 YK7810               1AZ
127644000127644               127644               170213DF     1400+00000+DF0000001753+0000001753+000000000+000000246+0000001999+0000000000+I40000001999+0000000000+Z
127644001127644046-002016-PK2 127644004897006175056BATTERIES CR-2016  2PCE0000001000+00001753+00000+0001T   00001753+0000001042          1400 YK7312               1AZ
127645000127645               127645               170213DF     1400+00000+DF0000017098+0000017098+000000000+000002394+0000019492+0000000000+I40000019492+0000000000+Z
127645001127645039-000635     127645006001023774521CANDLE VTV 4PC WHITE   0000001000+00002192+00000+0001T   00002192+0000001047          1400 YK7510               1AZ
127645002127645039-080942     127645006001023669872C/PILLAR RND WHT 10X7CM0000001000+00003507+00000+0001T   00003507+0000001047          1400 YK7510               1AZ
127645003127645039-080944     127645006001023758897C/PILLAR RND WHT 12X7CM0000001000+00004385+00000+0001T   00004385+0000001047          1400 YK7510               1AZ
127645004127645039-080941     127645006001023669841CANDLE PILLAR WHT 7X7CM0000002000+00003507+00000+0001T   00003507+0000001047          1400 YK7510               1AZ
127646000127646               127646               170213DF     1400+00000+DF0000020200+0000020200+000000000+000002832+0000023032+0000000000+I40000023032+0000000000+Z
127646001127646027-000194     127646006001246602472MOP COMPLETE           0000001000+00002279+00000+0001T   00002279+0000001054          1400 YK7212               1AZ
127646002127646586-098614     127646006001492986142WATCH KIDS TEDDY BEAR  0000001000+00008771+00000+0001T   00008771+0000001054          1400 YK7160               1AZ
127646003127646076-000017     127646006001811010022TWINE COTTON 50g-BALL  0000001000+00000876+00000+0001T   00000876+0000001054          1400 YK7810               1AZ
127646004127646112-116038     127646006009681820246TCS CARRIER BAG MIDI   0000001000+00000035+00000+0001T   00000035+0000001054          1400 YK7090               1AZ
127646005127646200-003024     127646006001023657299REFUSE BAGS 20PCE BLACK0000001000+00001753+00000+0001T   00001753+0000001054          1400 YK7214               1AZ
127646006127646903-005003     127646006002580020106SWT DINKY DUMMIES 5PK  0000002000+00001490+00000+0001T   00001490+0000001054          1400 YK7150               1AZ
127646007127646903-000215     127646006002099001214SWT GS MALLOW TWIST PAC0000002000+00001753+00000+0001T   00001753+0000001054          1400 YK7150               1AZ
127647000127647               127647               170213DF     1400+00000+DF0000001753+0000001753+000000000+000000246+0000001990+0000000009+I20000000000+0000001990+Z
127647001127647071-005211     127647006003000152346CELLOTAPE MOUNTING TAPE0000001000+00001753+00000+0001T   00001753+0000001100          1400 YK7130               1AZ
127648000127648               127648               170213DF     1400+00000+DF0000008065+0000008065+000000000+000001131+0000009196+0000000000+I40000009196+0000000000+Z
127648001127648018-000129     127648006001023403353MUG OCC. LOVE V-SHAPE  0000001000+00002630+00000+0001T   00002630+0000001124          1400 YK7515               1AZ
127648002127648089-060027     127648006003000245871KEY-CHAIN HEART 6X6cm  0000001000+00003069+00000+0001T   00003069+0000001124          1400 YK7205               1AZ
127648003127648077-000303     127648006001023593757GIFT-BAG PAPER MED     0000001000+00001578+00000+0001T   00001578+0000001124          1400 YK7112               1AZ
127648004127648903-000200     127648006009826020234SWT CHOC RP CHOCO 23G  0000001000+00000788+00000+0001T   00000788+0000001124          1400 YK7150               1AZ
127649000127649               127649               170213DF     1400+00000+DF0000002630+0000002630+000000000+000000369+0000002990+0000000009+I20000000000+0000002990+Z
127649001127649565-000014     127649006003000671915NOVELTY AIR BALLOON    0000001000+00002630+00000+0001T   00002630+0000001125          1400 YK7745               1AZ
127650000127650               127650               170213DF     1400+00000+DF0000003769+0000003769+000000000+000000529+0000004298+0000000000+I40000004298+0000000000+Z
127650001127650050-000362-Z   127650006001023475275PADLOCK IRON 25mm CARD 0000001000+00002016+00000+0001T   00002016+0000001127          1400 YK7855               1AZ
127650002127650071-010481     127650006001023417220MAGNIFYING-GLASS 90mm-D0000001000+00001753+00000+0001T   00001753+0000001127          1400 YK7130               1AZ
127651000127651               127651               170213DF     1400+00000+DF0000004385+0000004385+000000000+000000614+0000004990+0000000009+I20000000000+0000004990+Z
127651001127651486-001012     127651006001023820907CLOCK ALARM SQR 10X12CM0000001000+00004385+00000+0001T   00004385+0000001143          1400 YK7510               1AZ
127652000127652               127652               170213DF     1400+00000+DF0000004385+0000004385+000000000+000000614+0000004990+0000000009+I20000000000+0000004990+Z
127652001127652082-000120     127652006003000360727READING GLS STRENGTH:3 0000001000+00004385+00000+0001T   00004385+0000001145          1400 YK7160               1AZ
127653000127653               127653               170213DF     1400+00000+DF0000001490+0000001490+000000000+000000209+0000001690+0000000009+I20000000000+0000001690+Z
127653001127653077-000299     127653006003000395576G/BAG 32x25cm LRG LOVE 0000001000+00001490+00000+0001T   00001490+0000001147          1400 YK7112               1AZ
127654000127654               127654               170213DF     1400+00000+DF0000001753+0000001753+000000000+000000246+0000001990+0000000009+I20000000000+0000001990+Z
127654001127654903-000211     127654006002099001238SWT GS MALLOW ICE CREAM0000001000+00001753+00000+0001T   00001753+0000001147          1400 YK7150               1AZ
127655000127655               127655               170213DF     1400+00000+DF0000000654+0000000654+000000000+000000093+0000000740+0000000007+I20000000000+0000000740+Z
127655001127655006-000173-C   127655006003000636518BALLOONS 1PC PINK      0000002000+00000218+00000+0001T   00000218+0000001158          1400 YK7131               1AZ
127655002127655006-000172-A   127655006003000609765BALLOONS METALLIC PINK 0000001000+00000218+00000+0001T   00000218+0000001158          1400 YK7131               1AZ
127656000127656               127656               170213DF     1400+00000+DF0000004420+0000004420+000000000+000000619+0000005030+0000000009+I20000000000+0000005030+Z
127656001127656031-005921     127656006001023667847P/FRAME PL PLAIN       0000001000+00004385+00000+0001T   00004385+0000001201          1400 YK7510               1AZ
127656002127656112-116038     127656006009681820246TCS CARRIER BAG MIDI   0000001000+00000035+00000+0001T   00000035+0000001201          1400 YK7090               1AZ
127657000127657               127657               170213DF     1400+00000+DF0000001490+0000001490+000000000+000000209+0000001690+0000000009+I20000000000+0000001690+Z
127657001127657019-071611     127657006003000513642PEBBLES W/GEM 10g CLEAR0000001000+00001490+00000+0001T   00001490+0000001202          1400 YK7510               1AZ
127658000127658               127658               170213DF     1400+00000+DF0000012674+0000012674+000000000+000001776+0000014450+0000000000+I20000000000+0000014450+Z
127658001127658018-030000     127658006003000421060MUG OCCASIONS LOVE 2PCE0000002000+00004385+00000+0001T   00004385+0000001218          1400 YK7515               1AZ
127658002127658077-000299     127658006003000395576G/BAG 32x25cm LRG LOVE 0000002000+00001490+00000+0001T   00001490+0000001218          1400 YK7112               1AZ
127658003127658112-116069     127658006009681820277TCS CARRIER BAG JUMBO  0000001000+00000048+00000+0001T   00000048+0000001218          1400 YK7090               1AZ
127658004127658077-000011-E   127658006001023808646TISSUE-WRAP PINK 10PCE 0000001000+00000876+00000+0001T   00000876+0000001218          1400 YK7112               1AZ
127659000127659               127659               170213DF     1400+00000+DF0000008770-0000008770-000000000+000001228-0000010000-0000000002+I20000000000+0000010000-Z
127659001127659018-030000     127659006003000421060MUG OCCASIONS LOVE 2PCE0000002000-00004385+00000+0001T   00004385+0000001232          1400 YK75151IC            1 Z
127660000127660               127660               170213DF     1400+00000+DF0000001613+0000001613+000000000+000000226+0000001830+0000000009+I20000000000+0000001830+Z
127660001127660018-000127     127660006001023380289MUG OCC STRAIGHT LOVE  0000001000+00001578+00000+0001T   00001753+0006471243          1400 YK7515               1AZ
127660002127660112-116038     127660006009681820246TCS CARRIER BAG MIDI   0000001000+00000035+00000+0001T   00000035+0000001243          1400 YK7090               1AZ
127661000127661               127661               170213DF     1400+00000+DF0000002191+0000002191+000000000+000000307+0000002490+0000000008+I20000000000+0000002490+Z
127661001127661018-000127     127661006001023380289MUG OCC STRAIGHT LOVE  0000001000+00001578+00000+0001T   00001753+0006471245          1400 YK7515               1AZ
127661002127661077-000311     127661006001023608666GIFT-BAG 11X14CM GLOSS 0000001000+00000613+00000+0001T   00000613+0000001245          1400 YK7112               1AZ
127662000127662               127662               170213DF     1400+00000+DF0000002364+0000002364+000000000+000000333+0000002690+0000000007+I20000000000+0000002690+Z
127662001127662903-000200     127662006009826020234SWT CHOC RP CHOCO 23G  0000003000+00000788+00000+0001T   00000788+0000001256          1400 YK7150               1AZ
127663000127663               127663               170213DF     1400+00000+DF0000003507+0000003507+000000000+000000491+0000003990+0000000008+I20000000000+0000003990+Z
127663001127663018-005009     127663006001023725608MUG W/PLUSH-BEAR LOVE  0000001000+00003507+00000+0001T   00003507+0000001310          1400 YK7515               1AZ
127664000127664               127664               170213DF     1400+00000+DF0000004644+0000004644+000000000+000000652+0000005290+0000000006+I20000000000+0000005290+Z
127664001127664077-000311     127664006001023608666GIFT-BAG 11X14CM GLOSS 0000001000+00000613+00000+0001T   00000613+0000001314          1400 YK7112               1AZ
127664002127664018-000170     127664006001023775528MUG OCC. LOVE 2PC MINI 0000001000+00002192+00000+0001T   00002192+0000001314          1400 YK7515               1AZ
127664003127664903-000200     127664006009826020234SWT CHOC RP CHOCO 23G  0000001000+00000788+00000+0001T   00000788+0000001314          1400 YK7150               1AZ
127664004127664903-002851     127664000000087108538MENTOS ROLL STRAWBERRY 0000001000+00001051+00000+0001T   00001051+0000001314          1400 YK7150               1AZ
127665000127665               127665               170213DF     1400+00000+DF0000007455-0000007455-000000000+000001044-0000008500-0000000001+I20000000000+0000008500-Z
127665001127665024-000020     127665006003000108640ICING-SET PL S/S NOZZLE0000001000-00007455+00000+0001T   00007455+0000001319          1400 YK73001IC            1 Z
127666000127666               127666               170213DF     1400+00000+DF0000001928+0000001928+000000000+000000270+0000002190+0000000008+I20000000000+0000002190+Z
127666001127666105-001078     127666006009654960931CONTAINER 1,1L CLIP LOC0000001000+00001928+00000+0001T   00001928+0000001333          1400 YK7210               1AZ
127667000127667               127667               170213DF     1400+00000+DF0000006926+0000006926+000000000+000000971+0000007897+0000000000+I40000007897+0000000000+Z
127667001127667903-000518     127667006001704012782SWT STRAWS S/BERRY 100g0000001000+00001227+00000+0001T   00001227+0000001337          1400 YK7150               1AZ
127667002127667089-060027     127667006003000245871KEY-CHAIN HEART 6X6cm  0000001000+00003069+00000+0001T   00003069+0000001337          1400 YK7205               1AZ
127667003127667003-000119     127667006001023805409ORN MSG STONE W/GNOME  0000001000+00002630+00000+0001T   00002630+0000001337          1400 YK7505               1AZ
127668000127668               127668               170213DF     1400+00000+DF0000008278+0000008278+000000000+000001160+0000009438+0000000000+I40000009438+0000000000+Z
127668001127668903-000095     127668006001704011495SWT SPECKLED-EGGS 100G 0000001000+00002104+00000+0001T   00002104+0000001338          1400 YK7150               1AZ
127668002127668017-000221     127668006003000238019P/ALBUM ADHESIVE 20PG  0000001000+00006139+00000+0001T   00006139+0000001338          1400 YK7510               1AZ
127668003127668112-116038     127668006009681820246TCS CARRIER BAG MIDI   0000001000+00000035+00000+0001T   00000035+0000001338          1400 YK7090               1AZ
127669000127669               127669               170213DF     1400+00000+DF0000000874+0000000874+000000000+000000124+0000000990+0000000008+I20000000000+0000000990+Z
127669001127669903-000094     127669006923431501622SWT GS CANDY NECKLACE  0000002000+00000437+00000+0001T   00000437+0000001349          1400 YK7150               1AZ
127670000127670               127670               170213DF     1400+00000+DF0000000350-0000000350-000000000+000000050-0000000400-0000000000+I20000000000+0000000400-Z
127670001127670903-000094     127670006923431501622SWT GS CANDY NECKLACE  0000002000-00000437+00000+0001T   00000437+0000001351          1400 YK71501IC            1 Z
127670002127670903-000099     127670006923431501646SWT CANDY GS WTCH B/LET0000002000+00000262+00000+0001T   00000262+0000001351          1400 YK7150               1 Z
127671000127671               127671               170213DF     1400+00000+DF0000001753+0000001753+000000000+000000246+0000001990+0000000009+I20000000000+0000001990+Z
127671001127671077-000115     127671006001023834225WRAP METALLIC 700mmx1m 0000001000+00001753+00000+0001T   00001753+0000001400          1400 YK7112               1AZ
127672000127672               127672               170213DF     1400+00000+DF0000003104+0000003104+000000000+000000435+0000003539+0000000000+I40000003539+0000000000+Z
127672001127672106-000899     127672006003000653287WTR BOTTLE 2L W/HANDLE 0000001000+00003069+00000+0001T   00003507+0008191408          1400 YK7210               1AZ
127672002127672112-116038     127672006009681820246TCS CARRIER BAG MIDI   0000001000+00000035+00000+0001T   00000035+0000001408          1400 YK7090               1AZ
127673000127673               127673               170213DF     1400+00000+DF0000001753+0000001753+000000000+000000246+0000001990+0000000009+I20000000000+0000001990+Z
127673001127673046-002016-PK2 127673004897006175056BATTERIES CR-2016  2PCE0000001000+00001753+00000+0001T   00001753+0000001409          1400 YK7312               1AZ
127674000127674               127674               170213DF     1400+00000+DF0000002630+0000002630+000000000+000000369+0000002990+0000000009+I20000000000+0000002990+Z
127674001127674028-000899     127674006001023509932BBQ-GRILL-CLEANER LONG 0000001000+00002630+00000+0001T   00002630+0000001413          1400 YK7305               1AZ
127675000127675               127675               170213DF     1400+00000+DF0000011396+0000011396+000000000+000001598+0000012990+0000000004+I20000000000+0000012990+Z
127675001127675467-000105     127675006003000616695BEACH BUCKET 20x18cm   0000002000+00001753+00000+0001T   00002192+0008191419          1400 YK7785               1AZ
127675002127675108-000999     127675006003000667185TUMBLER PL 8-PACK 200ML0000002000+00002192+00000+0001T   00002192+0000001419          1400 YK7210               1AZ
127675003127675203-006502     127675006003000257454DRINK STIRRERS ASSTD   0000001000+00002630+00000+0001T   00002630+0000001419          1400 YK7300               1AZ
127675004127675002-021057     127675006001023812032T/PICKS UMBRELLAS 10PCE0000001000+00000876+00000+0001T   00000876+0000001419          1400 YK7300               1AZ
127676000127676               127676               170213DF     1400+00000+DF0000002493+0000002493+000000000+000000351+0000002840+0000000004+I20000000000+0000002840+Z
127676001127676006-000173-D   127676006003000636631BALLOONS 1PC BLUE      0000001000+00000218+00000+0001T   00000218+0000001425          1400 YK7131               1AZ
127676002127676006-000173-A   127676006003000636235BALLOONS HELIUM 1PC BLK0000001000+00000218+00000+0001T   00000218+0000001425          1400 YK7131               1AZ
127676003127676006-000173-B   127676006003000636358BALLOONS HELIUM 1PC WHT0000001000+00000218+00000+0001T   00000218+0000001425          1400 YK7131               1AZ
127676004127676006-001000     127676006003000093779HELIUM BALLOON FILL    0000003000+00000613+00000+0001T   00000613+0000001425          1400 YK7131               1AZ
127677000127677               127677               170213DF     1400+00000+DF0000007927+0000007927+000000000+000001110+0000009037+0000000000+I40000009037+0000000000+Z
127677001127677038-001800     127677006003000623303DOILIE PAPER HRT 24PC  0000001000+00003507+00000+0001T   00003507+0000001435          1400 YK7300               1AZ
127677002127677368-000049     127677006003000536955PLUSH BEAR 15cm LOVE   0000001000+00004385+00000+0001T   00004385+0000001435          1400 YK7745               1AZ
127677003127677112-116038     127677006009681820246TCS CARRIER BAG MIDI   0000001000+00000035+00000+0001T   00000035+0000001435          1400 YK7090               1AZ
127678000127678               127678               170213DF     1400+00000+DF0000000437+0000000437+000000000+000000062+0000000490+0000000009+I20000000000+0000000490+Z
127678001127678080-000133-A   127678006003000647019MINI VALENTINES CARD   0000001000+00000437+00000+0001T   00000437+0000001435          1400 YK7112               1AZ
127679000127679               127679               170213DF     1400+00000+DF0000017542+0000017542+000000000+000002456+0000019998+0000000000+I40000019998+0000000000+Z
127679001127679365-001189     127679006003000012251DOLL-HOUSE W/FURNITURE 0000001000+00017542+00000+0001T   00017542+0000001436          1400 YK7725               1AZ
127680000127680               127680               170213DF     1400+00000+DF0000003506+0000003506+000000000+000000492+0000003998+0000000000+I40000003998+0000000000+Z
127680001127680039-081008     127680006008766081008CANDLES 9PCE SCENTED   0000001000+00002630+00000+0001T   00002630+0000001438          1400 YK7510               1AZ
127680002127680077-000011-C   127680006001023808523TISSUE 10xSHTS RED     0000001000+00000876+00000+0001T   00000876+0000001438          1400 YK7112               1AZ
127681000127681               127681               170213DF     1400+00000+DF0000007892+0000007892+000000000+000001106+0000008990+0000000008+I20000000000+0000008990+Z
127681001127681073-000521     127681006003000571697COSMETIC-BAG+ZIP RECT  0000002000+00003946+00000+0001T   00005262+0008121440          1400 YK7200               1AZ
127682000127682               127682               170213DF     1400+00000+DF0000001139+0000001139+000000000+000000160+0000001290+0000000009+I20000000000+0000001290+Z
127682001127682159-000445     127682006001023669728SOAP-BOX PL OVAL       0000001000+00001139+00000+0001T   00001139+0000001441          1400 YK7200               1AZ
127683000127683               127683               170213DF     1400+00000+DF0000024187+0000024187+000000000+000003388+0000027575+0000000000+I40000027575+0000000000+Z
127683001127683105-007560     127683006003000485918STORAGE BOX CLEAR 10L  0000001000+00014034+00000+0001T   00014034+0000001444          1400 YK7210               1AZ
127683002127683105-008005     127683006002580009484STORAGE CONTAINER 7.5L 0000001000+00004385+00000+0001T   00004385+0000001444          1400 YK7210               1AZ
127683003127683107-004510     127683006002580008968STEP-STOOL PL          0000001000+00005262+00000+0001T   00005262+0000001444          1400 YK7210               1AZ
127683004127683112-116053     127683006006438002399TCS CARRIER BAG 38L    0000001000+00000069+00000+0001T   00000069+0000001444          1400 YK7090               1AZ
127683005127683080-000133-A   127683006003000647019MINI VALENTINES CARD   0000001000+00000437+00000+0001T   00000437+0000001444          1400 YK7112               1AZ
127684000127684               127684               170213DF     1400+00000+DF0000001753+0000001753+000000000+000000246+0000001990+0000000009+I20000000000+0000001990+Z
127684001127684079-000623     127684006001023836274CHALK MARBLE 5PCE      0000001000+00001753+00000+0001T   00001753+0000001448          1400 YK7130               1AZ
127685000127685               127685               170213DF     1400+00000+DF0000000218+0000000218+000000000+000000031+0000000240+0000000009+I20000000000+0000000240+Z
127685001127685006-000172-A   127685006003000609765BALLOONS METALLIC PINK 0000001000+00000218+00000+0001T   00000218+0000001448          1400 YK7131               1AZ
127686000127686               127686               170213DF     1400+00000+DF0000001662+0000001662+000000000+000000234+0000001890+0000000006+I20000000000+0000001890+Z
127686001127686006-000172-A   127686006003000609765BALLOONS METALLIC PINK 0000002000+00000218+00000+0001T   00000218+0000001450          1400 YK7131               1AZ
127686002127686006-001000     127686006003000093779HELIUM BALLOON FILL    0000002000+00000613+00000+0001T   00000613+0000001450          1400 YK7131               1AZ
127687000127687               127687               170213DF     1400+00000+DF0000003507+0000003507+000000000+000000491+0000003990+0000000008+I20000000000+0000003990+Z
127687001127687564-000017     127687006003000654468BUBBLE NOVELTY WAND 29 0000001000+00003507+00000+0001T   00003507+0000001452          1400 YK7131               1AZ
127688000127688               127688               170213DF     1400+00000+DF0000001753+0000001753+000000000+000000246+0000001990+0000000009+I20000000000+0000001990+Z
127688001127688006-000800     127688006001023902801HAT CABARET 14x18cm    0000001000+00001753+00000+0001T   00001753+0000001517          1400 YK7131               1AZ
127689000127689               127689               170213DF     1400+00000+DF0000013155+0000013155+000000000+000001843+0000014990+0000000008+I20000000000+0000014990+Z
127689001127689077-000299-A   127689006003000670888GIFT-BAG PAPER JMB LOVE0000001000+00001753+00000+0001T   00001753+0000001520          1400 YK7112               1AZ
127689002127689368-000637     127689006001023874092PLUSH BEAR SLEEPING LOV0000001000+00011402+00000+0001T   00012279+0006471520          1400 YK7745               1AZ
127690000127690               127690               170213DF     1400+00000+DF0000014296+0000014296+000000000+000002002+0000016298+0000000000+I40000016298+0000000000+Z
127690001127690113-000166     127690006003000459629VACUUM FLASK 1.0L      0000001000+00013157+00000+0001T   00013157+0000001534          1400 YK7305               1AZ
127690002127690903-000698     127690006002099007032SWT CANDY ECLAIRS 90g  0000001000+00001139+00000+0001T   00001139+0000001534          1400 YK7150               1AZ
127691000127691               127691               170213DF     1400+00000+DF0000007013+0000007013+000000000+000000983+0000007990+0000000006+I20000000000+0000007990+Z
127691001127691007-000046     127691006009635831366DISPLAY-BOOK PL A4 30PG0000001000+00002192+00000+0001T   00002192+0000001535          1400 YK7130               1AZ
127691002127691071-003004     127691006003000662821PEN BALL POINT 3PC BLUE0000001000+00000876+00000+0001T   00000876+0000001535          1400 YK7130               1AZ
127691003127691071-001346     127691006001023732552HIGHLIGHTERS 4PCE CARD 0000001000+00002192+00000+0001T   00002192+0000001535          1400 YK7130               1AZ
127691004127691007-000192     127691006009635830062BOOK H/COVER A4 192PAGE0000001000+00001753+00000+0001T   00001753+0000001535          1400 YK7130               1AZ
127692000127692               127692               170213DF     1400+00000+DF0000001139+0000001139+000000000+000000160+0000001290+0000000009+I20000000000+0000001290+Z
127692001127692903-000087     127692006001704000161SWT SPECKLED-EGGS 50G  0000001000+00001139+00000+0001T   00001139+0000001535          1400 YK7150               1AZ
127693000127693               127693               170213DF     1400+00000+DF0000003068+0000003068+000000000+000000430+0000003490+0000000008+I20000000000+0000003490+Z
127693001127693077-000011-D   127693006001023808554TISSUE-WRAP WHITE 10PCE0000001000+00000876+00000+0001T   00000876+0000001538          1400 YK7112               1AZ
127693002127693077-000309-A   127693006003000671007GIFT-BAG HOLOGRAM JMB  0000001000+00002192+00000+0001T   00002192+0000001538          1400 YK7112               1AZ
127694000127694               127694               170213DF     1400+00000+DF0000001753+0000001753+000000000+000000246+0000001990+0000000009+I20000000000+0000001990+Z
127694001127694019-000130     127694006003000456130PLANTER T/PLATE W/HNDL 0000001000+00001753+00000+0001T   00001753+0000001541          1400 YK7510               1AZ
127695000127695               127695               170213DF     1400+00000+DF0000006522+0000006522+000000000+000000914+0000007436+0000000000+I40000007436+0000000000+Z
127695001127695071-005667     127695006003000153060STAPLER SET MTL W/STPLS0000001000+00003507+00000+0001T   00003507+0000001546          1400 YK7130               1AZ
127695002127695084-006995     127695006003000092802NAIL CLIPPER 8cm TOE   0000001000+00001753+00000+0001T   00001753+0000001546          1400 YK7200               1AZ
127695003127695306-000510     127695006001024000469T/BRUSH ADULT CROSS    0000001000+00001227+00000+0001T   00001227+0000001546          1400 YK7200               1AZ
127695004127695112-116038     127695006009681820246TCS CARRIER BAG MIDI   0000001000+00000035+00000+0001T   00000035+0000001546          1400 YK7090               1AZ
127696000127696               127696               170213DF     1400+00000+DF0000016199+0000016199+000000000+000002270+0000018460+0000000009+I20000000000+0000018460+Z
127696001127696027-008813     127696006001023552334DUSTER RETRCTABLE 122cm0000001000+00002630+00000+0001T   00002630+0000001549          1400 YK7212               1AZ
127696002127696112-116053     127696006006438002399TCS CARRIER BAG 38L    0000001000+00000069+00000+0001T   00000069+0000001549          1400 YK7090               1AZ
127696003127696028-000400     127696006001023421661PLATE-HOLDERS 4PCE     0000002000+00001490+00000+0001T   00001490+0000001549          1400 YK7305               1AZ
127696004127696024-000072     127696006001023849502EGG-WHISK SET-OF-3     0000001000+00003507+00000+0001T   00003507+0000001549          1400 YK7300               1AZ
127696005127696012-000001-A   127696006003000697663MICROWAVES PLATE-COVER 0000002000+00001314+00000+0001T   00001314+0000001549          1400 YK7300               1AZ
127696006127696009-001914     127696006001023897619MELAMINE TRAY RECT 29cm0000001000+00004385+00000+0001T   00004385+0000001549          1400 YK7210               1AZ
127697000127697               127697               170213DF     1400+00000+DF0000004470+0000004470+000000000+000000627+0000005090+0000000007+I20000000000+0000005090+Z
127697001127697028-000400     127697006001023421661PLATE-HOLDERS 4PCE     0000003000+00001490+00000+0001T   00001490+0000001549          1400 YK7305               1AZ
127698000127698               127698               170213DF     1400+00000+DF0000001314+0000001314+000000000+000000184+0000001490+0000000008+I20000000000+0000001490+Z
127698001127698018-000100     127698006001023588098MUG DAILY TUBBY 340ML  0000001000+00001314+00000+0001T   00001753+0008171615          1400 YK7515               1AZ
127699000127699               127699               170213DF     1400+00000+DF0000008329+0000008329+000000000+000001167+0000009490+0000000006+I20000000000+0000009490+Z
127699001127699030-000030-A   127699006003000249305PLAQUE GLASS LOVE      0000001000+00003069+00000+0001T   00003069+0000001620          1400 YK7505               1AZ
127699002127699089-060027     127699006003000245871KEY-CHAIN HEART 6X6cm  0000001000+00003069+00000+0001T   00003069+0000001620          1400 YK7205               1AZ
127699003127699077-000303     127699006001023593757GIFT-BAG PAPER MED     0000001000+00001578+00000+0001T   00001578+0000001620          1400 YK7112               1AZ
127699004127699304-001011     127699006001023806727FLWR ROSE RED W/BEAR   0000001000+00000613+00000+0001T   00000788+0006471620          1400 YK7510               1AZ
127700000127700               127700               170213DF     1400+00000+DF0000004820+0000004820+000000000+000000676+0000005496+0000000000+I40000005496+0000000000+Z
127700001127700903-000619     127700006003000672455SWT LOLLY STR/BRRY 140G0000002000+00001753+00000+0001T   00001753+0000001624          1400 YK7150               1AZ
127700002127700077-000310     127700006001023608635GIFT-BAG 18X23CM GLOSS 0000001000+00001314+00000+0001T   00001314+0000001624          1400 YK7112               1AZ
127701000127701               127701               170213DF     1400+00000+DF0000002804+0000002804+000000000+000000394+0000003198+0000000000+I40000003198+0000000000+Z
127701001127701304-001204     127701006001023737984FLOWER OCC. TEDDY/ROSES0000002000+00001402+00000+0001T   00001490+0006471629          1400 YK7510               1AZ
127702000127702               127702               170213DF     1400+00000+DF0000001753+0000001753+000000000+000000246+0000001990+0000000009+I20000000000+0000001990+Z
127702001127702200-003024     127702006001023657299REFUSE BAGS 20PCE BLACK0000001000+00001753+00000+0001T   00001753+0000001630          1400 YK7214               1AZ
127703000127703               127703               170213DF     1400+00000+DF0000017573+0000017573+000000000+000002462+0000020030+0000000005+I20000000000+0000020030+Z
127703001127703039-000624     127703006003000054923C/SET 4PC PILLARS 5X8CM0000001000+00007016+00000+0001T   00007016+0000001635          1400 YK7510               1AZ
127703002127703206-000135     127703006003000680450T/BAG HLDR SILICONE    0000001000+00001753+00000+0001T   00001753+0000001635          1400 YK7321               1AZ
127703003127703206-000410     127703006003000619382SOUP LADLE SEAMONSTER  0000001000+00004385+00000+0001T   00004385+0000001635          1400 YK7321               1AZ
127703004127703206-000150     127703006003000628667SLICER CUCUMBER        0000001000+00002192+00000+0001T   00002192+0000001635          1400 YK7321               1AZ
127703005127703206-000245     127703006003000680818BOTTLE CLEANER PLASTIC 0000001000+00002192+00000+0001T   00002192+0000001635          1400 YK7321               1AZ
127703006127703112-116038     127703006009681820246TCS CARRIER BAG MIDI   0000001000+00000035+00000+0001T   00000035+0000001635          1400 YK7090               1AZ
127704000127704               127704               170213DF     1400+00000+DF0000007747+0000007747+000000000+000001086+0000008830+0000000003+I20000000000+0000008830+Z
127704001127704903-000211     127704006002099001238SWT GS MALLOW ICE CREAM0000002000+00001753+00000+0001T   00001753+0000001636          1400 YK7150               1AZ
127704002127704030-000010     127704006003000084395P/DOOR HANGER 2-ASSTD  0000001000+00001314+00000+0001T   00001490+0008181636          1400 YK7505               1AZ
127704003127704566-000451     127704006001023788443STICKERS GLITTER ASSTD 0000001000+00001314+00000+0001T   00001753+0008151636          1400 YK7130               1AZ
127704004127704077-000303     127704006001023593757GIFT-BAG PAPER MED     0000001000+00001578+00000+0001T   00001578+0000001636          1400 YK7112               1AZ
127704005127704112-116038     127704006009681820246TCS CARRIER BAG MIDI   0000001000+00000035+00000+0001T   00000035+0000001636          1400 YK7090               1AZ
127705000127705               127705               170213DF     1400+00000+DF0000003857+0000003857+000000000+000000541+0000004390+0000000008+I20000000000+0000004390+Z
127705001127705106-005120     127705006001023897336ICE-LOLLY-MAKER 6PCE   0000001000+00003069+00000+0001T   00003069+0000001637          1400 YK7210               1AZ
127705002127705903-000200     127705006009826020234SWT CHOC RP CHOCO 23G  0000001000+00000788+00000+0001T   00000788+0000001637          1400 YK7150               1AZ
127706000127706               127706               170213DF     1400+00000+DF0000008540+0000008540+000000000+000001197+0000009737+0000000000+I40000009737+0000000000+Z
127706001127706039-000108     127706006001023524034TEA-LITE CANDLES 8PCE  0000001000+00001490+00000+0001T   00001490+0000001654          1400 YK7510               1AZ
127706002127706039-000116     127706006001023799463C/FLOATING-BALL BOX-9  0000001000+00002630+00000+0001T   00002630+0000001654          1400 YK7510               1AZ
127706003127706368-000049     127706006003000536955PLUSH BEAR 15cm LOVE   0000001000+00004385+00000+0001T   00004385+0000001654          1400 YK7745               1AZ
127706004127706112-116038     127706006009681820246TCS CARRIER BAG MIDI   0000001000+00000035+00000+0001T   00000035+0000001654          1400 YK7090               1AZ
127707000127707               127707               170213DF     1400+00000+DF0000014068+0000014068+000000000+000001970+0000016038+0000000000+I40000016038+0000000000+Z
127707001127707031-000924     127707006001023669964P/FRAME COLLAGE PL     0000001000+00008771+00000+0001T   00008771+0000001656          1400 YK7510               1AZ
127707002127707301-000125     127707006003000420582ORN BRACELET INSPIRATIO0000001000+00005262+00000+0001T   00005262+0000001656          1400 YK7505               1AZ
127707003127707112-116038     127707006009681820246TCS CARRIER BAG MIDI   0000001000+00000035+00000+0001T   00000035+0000001656          1400 YK7090               1AZ
127708000127708               127708               170213DF     1400+00000+DF0000000876+0000000876+000000000+000000123+0000000990+0000000009+I20000000000+0000000990+Z
127708001127708903-003081     127708005907029004697SWT SNACK STIX YOGH 50g0000001000+00000876+00000+0001T   00000876+0000001659          1400 YK7150               1AZ
A17021300                                          09083090DFSLAVE 1                       YK72IC
A17021301                                          13491113DFSLAVE 1                       YK72IC
A17021302                                          13542244DFSLAVE 1                       YK71IC
A17021303                                          14122179DFSLAVE 1                       YK71IC
A17021304                                          14551324DFSLAVE 1                       YK72IC
A17021305                                          14565030DFSLAVE 1                       YK71IC
A17021306                                          16435261DFSLAVE 1                       YK72IC
M17021301                              SHIEHAAM    DFCASH BANKING==2212.10                           C/CARDS==2240.67                                Z-READING==4452.37                              OVER==.40c                                      THANKS DESSERY
M17021302                              GLADWYN     DFLAST TILL SLIPNR==127708                        THANKS DESSERY
M17021391                              CASH        DFSLAVE 1                       Z-REPORT No.   541TOTAL (Sales - Refunds)           4452.37       CASH TO BE BANKED                 2212.10       DEBIT CARDS                          0.00       CREDIT CARDS                      2240.67       Z-READING                         4452.37       AIRTIME DEBIT CARD SALES             0.00       AIRTIME CARD SALES                   0.00       OVERS/UNDERS                         0.40       AIRTIME CASH SALES                   0.00       GIFT CARDS                           0.00       GIFT CARD CASH SALES                 0.00       T O T A L  CASH PAYOUTS              0.00                                                                                                                                                                                                                                                                                                                                                      Z
M17021392                              CASH        DFABSENT                                                                                                                                                                                          ANNUAL LEAVE                                                                                                                                                                                    DAY OFF                                                                                                                                                                                         COMMENTS                                                                                                                                                                                                                                                                                                                                                                                       Z
Y17021300                                          DF00000000407939+000075
ZDF17021319283 SLAVE 1      SALES DATA                     NEXT INVOICE NO.  127709 0541
F094852463-000501         1702110810030000062ICSLAVE 1
F094852562-000080         1702110810030000012ICSLAVE 1
X DF Slave 1 First invoice 127632 170213 Last invoice 127708 170213 Next invoice 127709 Total number of records 000000258 clbackup completed 19:28:33
