131935000131935               131935               170213DF     1400+00000+DF0000001051+0000001051+000000000+000000148+0000001190+0000000009+I20000000000+0000001190+Z
131935001131935033-000125     131935006009654960658COMBS GENTS MINI 2PC   0000001000+00001051+00000+0001T   00001051+0000000859          1400 MO6200               2AZ
131936000131936               131936               170213DF     1400+00000+DF0000000876+0000000876+000000000+000000123+0000000990+0000000009+I20000000000+0000000990+Z
131936001131936306-000021-A   131936006001023891358EARBUDS COTTON 100PCE  0000001000+00000876+00000+0001T   00000876+0000001012          1400 MO6200               2AZ
131937000131937               131937               170213DF     1400+00000+DF0000010261+0000010261+000000000+000001437+0000011698+0000000000+I40000011698+0000000000+Z
131937001131937031-000924     131937006001023669964P/FRAME COLLAGE PL     0000001000+00008771+00000+0001T   00008771+0000001105          1400 MO6510               2AZ
131937002131937077-000299     131937006003000395576G/BAG 32x25cm LRG LOVE 0000001000+00001490+00000+0001T   00001490+0000001105          1400 MO6112               2AZ
131938000131938               131938               170213DF     1400+00000+DF0000014182+0000014182+000000000+000001989+0000016170+0000000001+I20000000000+0000016170+Z
131938001131938077-000381     131938006003000247707GIFT-BAG 25X32CM S/COL 0000001000+00001753+00000+0001T   00001753+0000001107          1400 MO6112               2AZ
131938002131938077-000299     131938006003000395576G/BAG 32x25cm LRG LOVE 0000001000+00001490+00000+0001T   00001490+0000001107          1400 MO6112               2AZ
131938003131938018-000127     131938006001023380289MUG OCC STRAIGHT LOVE  0000001000+00001578+00000+0001T   00001753+0006471107          1400 MO6515               2AZ
131938004131938903-000200     131938006009826020234SWT CHOC RP CHOCO 23G  0000001000+00000788+00000+0001T   00000788+0000001107          1400 MO6150               2AZ
131938005131938089-060027     131938006003000245871KEY-CHAIN HEART 6X6cm  0000002000+00003069+00000+0001T   00003069+0000001107          1400 MO6205               2AZ
131938006131938018-000127     131938006001023380289MUG OCC STRAIGHT LOVE  0000001000+00001578+00000+0001T   00001753+0006471107          1400 MO6515               2AZ
131938007131938903-000200     131938006009826020234SWT CHOC RP CHOCO 23G  0000001000+00000788+00000+0001T   00000788+0000001107          1400 MO6150               2AZ
131938008131938112-116053     131938006006438002399TCS CARRIER BAG 38L    0000001000+00000069+00000+0001T   00000069+0000001107          1400 MO6090               2AZ
131939000131939               131939               170213DF     1400+00000+DF0000001613+0000001613+000000000+000000226+0000001830+0000000009+I20000000000+0000001830+Z
131939001131939018-000127     131939006001023380289MUG OCC STRAIGHT LOVE  0000001000+00001578+00000+0001T   00001753+0006471108          1400 MO6515               2AZ
131939002131939112-116038     131939006009681820246TCS CARRIER BAG MIDI   0000001000+00000035+00000+0001T   00000035+0000001108          1400 MO6090               2AZ
131940000131940               131940               170213DF     1400+00000+DF0000007365+0000007365+000000000+000001032+0000008390+0000000007+I20000000000+0000008390+Z
131940001131940047-000006-H   131940006001023704054M/PLUG 3x16A+3x5A+CARD 0000001000+00006665+00000+0001T   00006665+0000001108          1400 MO6880               2AZ
131940002131940903-000126     131940006002099003591SWT ZILLIONS MINT 50G  0000001000+00000700+00000+0001T   00000700+0000001108          1400 MO6150               2AZ
131941000131941               131941               170213DF     1400+00000+DF0000002192+0000002192+000000000+000000307+0000002490+0000000009+I20000000000+0000002490+Z
131941001131941566-000359     131941006003000582709STICKER BOOK LOVE SPARK0000001000+00002192+00000+0001T   00002192+0000001111          1400 MO6130               2AZ
131942000131942               131942               170213DF     1400+00000+DF0000016258+0000016258+000000000+000002278+0000018530+0000000006+I20000000000+0000018530+Z
131942001131942301-085001     131942006003000297610ORN WATERBALL LOVE ASST0000001000+00004823+00000+0001T   00004823+0000001120          1400 MO6505               2AZ
131942002131942018-000136     131942006001023659026MUG OCC LOVE W/PLUSH   0000001000+00003507+00000+0001T   00003507+0000001120          1400 MO6515               2AZ
131942003131942301-085007     131942006003000673698ORN OCC. LOVE S/PLAQUE 0000001000+00007893+00000+0001T   00007893+0000001120          1400 MO6505               2AZ
131942004131942112-116038     131942006009681820246TCS CARRIER BAG MIDI   0000001000+00000035+00000+0001T   00000035+0000001120          1400 MO6090               2AZ
131943000131943               131943               170213DF     1400+00000+DF0000003682+0000003682+000000000+000000516+0000004190+0000000008+I20000000000+0000004190+Z
131943001131943077-000299     131943006003000395576G/BAG 32x25cm LRG LOVE 0000001000+00001490+00000+0001T   00001490+0000001122          1400 MO6112               2AZ
131943002131943077-000926     131943006003000414178G/WRAP 700mmx2m LOVE   0000001000+00002192+00000+0001T   00002192+0000001122          1400 MO6112               2AZ
131944000131944               131944               170213DF     1400+00000+DF0000006750+0000006750+000000000+000000946+0000007696+0000000000+I40000007696+0000000000+Z
131944001131944077-000934     131944006003000409921G/WRAP 700mmx5m BIRTHDA0000001000+00003507+00000+0001T   00003507+0000001237          1400 MO6112               2AZ
131944002131944080-000102     131944006003000236855CARD&ENVLP FEMALE AFR  0000001000+00001753+00000+0001T   00001753+0000001237          1400 MO6112               2AZ
131944003131944024-000100     131944006003000173310CAKE TESTER            0000001000+00001490+00000+0001T   00001490+0000001237          1400 MO6300               2AZ
131945000131945               131945               170213DF     1400+00000+DF0000007064+0000007064+000000000+000000990+0000008050+0000000004+I20000000000+0000008050+Z
131945001131945105-002016     131945006003000568130CANISTER SET 30PC BPA  0000001000+00007016+00000+0001T   00007016+0000001319          1400 YK7210               2AZ
131945002131945112-116069     131945006009681820277TCS CARRIER BAG JUMBO  0000001000+00000048+00000+0001T   00000048+0000001319          1400 YK7090               2AZ
131946000131946               131946               170213DF     1400+00000+DF0000001490+0000001490+000000000+000000209+0000001699+0000000000+I40000001699+0000000000+Z
131946001131946019-071605     131946006003000675418PEBBLES R/STONES 500G  0000001000+00001490+00000+0001T   00001490+0000001425          1400 MO6510               2AZ
131947000131947               131947               170213DF     1400+00000+DF0000001050+0000001050+000000000+000000148+0000001190+0000000008+I20000000000+0000001190+Z
131947001131947304-001308-A   131947006003000442041FLWR HEART SHAPED 38CM 0000002000+00000525+00000+0001T   00000525+0000001546          1400 MO6510               2AZ
131948000131948               131948               170213DF     1400+00000+DF0000008592+0000008592+000000000+000001204+0000009790+0000000006+I20000000000+0000009790+Z
131948001131948039-000502     131948006001023816382CANDLE SET ASSTD       0000001000+00001753+00000+0001T   00001753+0000001547          1400 MO6510               2AZ
131948002131948089-060027     131948006003000245871KEY-CHAIN HEART 6X6cm  0000001000+00003069+00000+0001T   00003069+0000001547          1400 MO6205               2AZ
131948003131948018-000170     131948006001023775528MUG OCC. LOVE 2PC MINI 0000001000+00002192+00000+0001T   00002192+0000001547          1400 MO6515               2AZ
131948004131948077-000303     131948006001023593757GIFT-BAG PAPER MED     0000001000+00001578+00000+0001T   00001578+0000001547          1400 MO6112               2AZ
131949000131949               131949               170213DF     1400+00000+DF0000005085+0000005085+000000000+000000712+0000005790+0000000007+I20000000000+0000005790+Z
131949001131949077-000303     131949006001023593757GIFT-BAG PAPER MED     0000001000+00001578+00000+0001T   00001578+0000001552          1400 MO6112               2AZ
131949002131949018-000136     131949006001023659026MUG OCC LOVE W/PLUSH   0000001000+00003507+00000+0001T   00003507+0000001552          1400 MO6515               2AZ
131950000131950               131950               170213DF     1400+00000+DF0000012092+0000012092+000000000+000001698+0000013790+0000000000+I20000000000+0000013790+Z
131950001131950018-000127     131950006001023380289MUG OCC STRAIGHT LOVE  0000001000+00001578+00000+0001T   00001753+0006471558          1400 MO6515               2AZ
131950002131950077-000010-C   131950006001023123879CREPE-PAPER RED        0000006000+00000788+00000+0001T   00000788+0000001558          1400 MO6112               2AZ
131950003131950018-000129     131950006001023403353MUG OCC. LOVE V-SHAPE  0000001000+00002630+00000+0001T   00002630+0000001558          1400 MO6515               2AZ
131950004131950018-000127     131950006001023380289MUG OCC STRAIGHT LOVE  0000002000+00001578+00000+0001T   00001753+0006471558          1400 MO6515               2AZ
131951000131951               131951               170213DF     1400+00000+DF0000006836+0000006836+000000000+000000959+0000007790+0000000005+I20000000000+0000007790+Z
131951001131951018-000129     131951006001023403353MUG OCC. LOVE V-SHAPE  0000001000+00002630+00000+0001T   00002630+0000001601          1400 MO6515               2AZ
131951002131951033-010721     131951006001023678669SAFETY-PINS 20PCE ASSTD0000001000+00000700+00000+0001T   00000700+0000001601          1400 MO6200               2AZ
131951003131951006-000120     131951006001023346889BALLOONS 10PC MIX COL  0000002000+00001753+00000+0001T   00001753+0000001601          1400 MO6131               2AZ
131952000131952               131952               170213DF     1400+00000+DF0000006576+0000006576+000000000+000000921+0000007490+0000000007+I20000000000+0000007490+Z
131952001131952077-000926     131952006003000414178G/WRAP 700mmx2m LOVE   0000003000+00002192+00000+0001T   00002192+0000001603          1400 MO6112               2AZ
131953000131953               131953               170213DF     1400+00000+DF0000006345+0000006345+000000000+000000890+0000007230+0000000005+I20000000000+0000007230+Z
131953001131953903-000087     131953006001704000161SWT SPECKLED-EGGS 50G  0000001000+00001139+00000+0001T   00001139+0000001609          1400 MO6150               2AZ
131953002131953263-000506     131953006001023790231CAR SET 3PK CONSTRUCT  0000001000+00003507+00000+0001T   00003507+0000001609          1400 MO6710               2AZ
131953003131953903-002853     131953000000087108019MENTOS ROLL MINT       0000001000+00001051+00000+0001T   00001051+0000001609          1400 MO6150               2AZ
131953004131953083-000055     131953006003000003853LIGHTER ELCTRNC REFILBL0000001000+00000613+00000+0001T   00000613+0000001609          1400 MO6315               2AZ
131953005131953112-116038     131953006009681820246TCS CARRIER BAG MIDI   0000001000+00000035+00000+0001T   00000035+0000001609          1400 MO6090               2AZ
131954000131954               131954               170213DF     1400+00000+DF0000005260+0000005260+000000000+000000737+0000005990+0000000007+I20000000000+0000005990+Z
131954001131954084-006995     131954006003000092802NAIL CLIPPER 8cm TOE   0000001000+00001753+00000+0001T   00001753+0000001647          1400 MO6200               2AZ
131954002131954084-000364     131954006001023624581MANICURE-SET 7PCE LTHR 0000001000+00003507+00000+0001T   00003507+0000001647          1400 MO6200               2AZ
131955000131955               131955               170213DF     1400+00000+DF0000000613+0000000613+000000000+000000086+0000000690+0000000009+I20000000000+0000000690+Z
131955001131955077-000311     131955006001023608666GIFT-BAG 11X14CM GLOSS 0000001000+00000613+00000+0001T   00000613+0000001704          1400 MO6112               2AZ
131956000131956               131956               170213DF     1400+00000+DF0000002192+0000002192+000000000+000000307+0000002490+0000000009+I20000000000+0000002490+Z
131956001131956039-000635     131956006001023774521CANDLE VTV 4PC WHITE   0000001000+00002192+00000+0001T   00002192+0000001719          1400 MO6510               2AZ
131957000131957               131957               170213DF     1400+00000+DF0000005698+0000005698+000000000+000000799+0000006497+0000000000+I40000006497+0000000000+Z
131957001131957032-000336     131957006001023369109MIRROR HANGING MAGNETIC0000001000+00002192+00000+0001T   00002192+0000001728          1400 MO6510               2AZ
131957002131957077-000381     131957006003000247707GIFT-BAG 25X32CM S/COL 0000001000+00001753+00000+0001T   00001753+0000001728          1400 MO6112               2AZ
131957003131957077-000290     131957006001023902023GIFT BOX 26x32x13cm    0000001000+00001753+00000+0001T   00001753+0000001728          1400 MO6112               2AZ
131958000131958               131958               170213DF     1400+00000+DF0000003067+0000003067+000000000+000000430+0000003490+0000000007+I20000000000+0000003490+Z
131958001131958077-000240     131958006003000326259G/RIBBON 4PC PEARLIZED 0000001000+00001753+00000+0001T   00001753+0000001729          1400 MO6112               2AZ
131958002131958006-000167-C   131958006003000516971BALLOONS PINK METALLIC 0000001000+00001314+00000+0001T   00001314+0000001729          1400 MO6131               2AZ
131959000131959               131959               170213DF     1400+00000+DF0000000657+0000000657+000000000+000000092+0000000749+0000000000+I40000000749+0000000000+Z
131959001131959162-086954     131959006001492869544SS A/BAND-BRWN,GOLD    0000001000+00000657+00000+0001T   00000657+0000001735          1400 MO6160               2AZ
A17021300                                          08031702DFSLAVE 2                       MO62IC
A17021301                                          09082543DFSLAVE 2                       MO62IC
A17021302                                          09215238DFSLAVE 2                       JK11IC
A17021303                                          15493448DFSLAVE 2                       MO61IC
A17021304                                          16105987DFSLAVE 2                       MO61IC
A17021305                                          16464280DFSLAVE 2                       MO62IC
M17021301                              SHIEHAAM    DFCASH BANKING==1275.00                           C/CARDS==283.39                                 Z-READING==1558.99                              SHORT==0.60                                     YHANKS RUBEN
M17021302                              GLADWYN     DFLAST TILL SIP NR==131959                        THANKS RUBEN
M17021391                              CASH        DFSLAVE 2                       Z-REPORT No.   602TOTAL (Sales - Refunds)           1558.99       CASH TO BE BANKED                 1275.00       DEBIT CARDS                          0.00       CREDIT CARDS                       283.39       Z-READING                         1558.99       AIRTIME DEBIT CARD SALES             0.00       AIRTIME CARD SALES                   0.00       OVERS/UNDERS                         0.60-      AIRTIME CASH SALES                   0.00       GIFT CARDS                           0.00       GIFT CARD CASH SALES                 0.00       T O T A L  CASH PAYOUTS              0.00                                                                                                                                                                                                                                                                                                                                                      Z
M17021392                              CASH        DFABSENT                                                                                                                                                                                          ANNUAL LEAVE                                                                                                                                                                                    DAY OFF                                                                                                                                                                                         COMMENTS                                                                                                                                                                                                                                                                                                                                                                                       Z
Y17021300                                          DF00000000136847+000025
ZDF17021319283 SLAVE 2      SALES DATA                     NEXT INVOICE NO.  131960 0602
F094852463-000501         1702110810420000062ICSLAVE 2
F094852562-000080         1702110810420000012ICSLAVE 2
X DF Slave 2 First invoice 131935 170213 Last invoice 131959 170213 Next invoice 131960 Total number of records 000000098 clbackup completed 19:28:35
