ZDG17021319282 SLAVE 3      NO SALES DATA                  NEXT INVOICE NO.  244999 0678
F093779496-028604         1701111446140000021ICSLAVE 3
F093779496-056483         1701111446140000151ICSLAVE 3
F094831112-116038         1702100919510002501ICSLAVE 3
F094859077-000010-D       1702110918260000252ICSLAVE 3
F094860006-000166-D       1702110919030000022ICSLAVE 3
F094860006-000166-H       1702110919030000022ICSLAVE 3
F094886006-000166-H       1702110920330000022ICSLAVE 3
F094887304-001011         1702110921080000102ICSLAVE 3
F094888006-000166-H       1702131007140000001ICSLAVE 3
X DG Slave 3 First invoice 000000 000000 Last invoice 000000 000000 Next invoice 244999 Total number of records 000000010 clbackup completed 19:28:40
