214195000214195               214195               170213DJ     1400+00000+DJ0000001226+0000001226+000000000+000000172+0000001390+0000000008+I20000000000+0000001390+Z
214195001214195077-000311     214195006001023608666GIFT-BAG 11X14CM GLOSS 0000002000+00000613+00000+0001T   00000613+0000000908          1400 EM6112               1AZ
214196000214196               214196               170213DJ     1400+00000+DJ0000007627+0000007627+000000000+000001070+0000008690+0000000007+I20000000000+0000008690+Z
214196001214196050-000364-Z   214196006001023777133PADLOCK IRON 38mm CARD 0000001000+00002630+00000+0001T   00002630+0000000951          1400 EM6855               1AZ
214196002214196046-002016-PK2 214196004897006175056BATTERIES CR-2016  2PCE0000001000+00001753+00000+0001T   00001753+0000000951          1400 EM6312               1AZ
214196003214196046-000400     214196006001023804983BATT ALKALINE 1.5Vx30PC0000001000+00003244+00000+0001T   00003244+0000000951          1400 EM6312               1AZ
214197000214197               214197               170213DJ     1400+00000+DJ0000004383+0000004383+000000000+000000615+0000004990+0000000008+I20000000000+0000004990+Z
214197001214197077-000316     214197006001023609731GIFT-BAG 25X32CM MATT  0000001000+00001753+00000+0001T   00001753+0000001005          1400 EM6112               1AZ
214197002214197077-000005-B   214197006003000326617PAPER TISSUE PATTERN   0000001000+00002630+00000+0001T   00002630+0000001005          1400 EM6112               1AZ
214198000214198               214198               170213DJ     1400+00000+DJ0000005262+0000005262+000000000+000000737+0000005999+0000000000+I40000005999+0000000000+Z
214198001214198361-000113     214198006001023680204DOLL 30cm RAG          0000001000+00005262+00000+0001T   00005262+0000001009          1400 EM6725               1AZ
214199000214199               214199               170213DJ     1400+00000+DJ0000004997+0000004997+000000000+000000700+0000005690+0000000007+I20000000000+0000005690+Z
214199001214199046-000005     214199004897006174844BATTERY 9VOLT ALKALINE 0000001000+00003507+00000+0001T   00003507+0000001027          1400 EM6312               1AZ
214199002214199046-000010     214199004897006172987BATTERIES AAA ALKLN 2PC0000001000+00001490+00000+0001T   00001490+0000001027          1400 EM6312               1AZ
214200000214200               214200               170213DJ     1400+00000+DJ0000006139+0000006139+000000000+000000860+0000006990+0000000009+I20000000000+0000006990+Z
214200001214200007-000890-17  214200006003000645671CALENDAR 2017 ASSTD    0000001000+00006139+00000+0001T   00006139+0000001030          1400 EM6130               1AZ
214201000214201               214201               170213DJ     1400+00000+DJ0000001753+0000001753+000000000+000000246+0000001990+0000000009+I20000000000+0000001990+Z
214201001214201046-002032-PK2 214201004897006175063BATTERIES CR-2032  2PCE0000001000+00001753+00000+0001T   00001753+0000001031          1400 EM6312               1AZ
214202000214202               214202               170213DJ     1400+00000+DJ0000007500+0000007500+000000000+000001052+0000008550+0000000002+I20000000000+0000008550+Z
214202001214202046-002016-PK2 214202004897006175056BATTERIES CR-2016  2PCE0000001000+00001753+00000+0001T   00001753+0000001032          1400 EM6312               1AZ
214202002214202024-000083     214202006001023770943SIEVE FLOUR 20cm MTL-RI0000001000+00001753+00000+0001T   00001753+0000001032          1400 EM6300               1AZ
214202003214202024-000002     214202006001023741899S/BURNER-COVER SILV/BLK0000001000+00003946+00000+0001T   00004385+0008191032          1400 EM6300               1AZ
214202004214202112-116069     214202006009681820277TCS CARRIER BAG JUMBO  0000001000+00000048+00000+0001T   00000048+0000001032          1400 EM6090               1AZ
214203000214203               214203               170213DJ     1400+00000+DJ0000002628+0000002628+000000000+000000368+0000002990+0000000006+I20000000000+0000002990+Z
214203001214203006-000166-F   214203006003000516735BALLOONS LRG 6PC PURPLE0000001000+00001314+00000+0001T   00001314+0000001037          1400 EM6131               1AZ
214203002214203006-000166-C   214203006003000516377BALLOONS LRG 6PC PINK  0000001000+00001314+00000+0001T   00001314+0000001037          1400 EM6131               1AZ
214204000214204               214204               170213DJ     1400+00000+DJ0000001578+0000001578+000000000+000000221+0000001790+0000000009+I20000000000+0000001790+Z
214204001214204565-000885     214204006003000122929NOVELTY PRICKLY BALL   0000001000+00001578+00000+0001T   00001578+0000001054          1400 EM6745               1AZ
214205000214205               214205               170213DJ     1400+00000+DJ0000003977+0000003977+000000000+000000557+0000004530+0000000004+I20000000000+0000004530+Z
214205001214205006-000166-D   214205006003000516490BALLOONS LRG 6PC RED   0000001000+00001314+00000+0001T   00001314+0000001056          1400 EM6131               1AZ
214205002214205006-000166-H   214205006003000608096BALLOONS HELIUM 6PC WHT0000002000+00001314+00000+0001T   00001314+0000001056          1400 EM6131               1AZ
214205003214205112-116038     214205006009681820246TCS CARRIER BAG MIDI   0000001000+00000035+00000+0001T   00000035+0000001056          1400 EM6090               1AZ
214206000214206               214206               170213DJ     1400+00000+DJ0000000613+0000000613+000000000+000000086+0000000690+0000000009+I20000000000+0000000690+Z
214206001214206077-000311     214206006001023608666GIFT-BAG 11X14CM GLOSS 0000001000+00000613+00000+0001T   00000613+0000001113          1400 EM6112               1AZ
214207000214207               214207               170213DJ     1400+00000+DJ0000001227+0000001227+000000000+000000172+0000001390+0000000009+I20000000000+0000001390+Z
214207001214207903-000504     214207006001704012416SWT CHOC JELLY BEANS   0000001000+00001227+00000+0001T   00001227+0000001115          1400 EM6150               1AZ
214208000214208               214208               170213DJ     1400+00000+DJ0000002103+0000002103+000000000+000000295+0000002390+0000000008+I20000000000+0000002390+Z
214208001214208071-000010     214208006003000589135PEN BANKNOTE TESTER    0000001000+00001227+00000+0001T   00001227+0000001141          1400 EM6130               1AZ
214208002214208028-000797     214208006001023812124SKEWERS 15cm 100PCE    0000001000+00000876+00000+0001T   00000876+0000001141          1400 EM6305               1AZ
214209000214209               214209               170213DJ     1400+00000+DJ0000007893-0000007893-000000000+000001106-0000009000-0000000001+I20000000000+0000009000-Z
214209001214209082-000125     214209006003000646395READING GLASS TWIN 2   0000001000-00007893+00000+0001T   00007893+0000001149          1400 NY81603IC            1 Z
214210000214210               214210               170213DJ     1400+00000+DJ0000006174+0000006174+000000000+000000865+0000007030+0000000009+I20000000000+0000007030+Z
214210001214210018-050000     214210006003000412679MUG OCC LOVE TWIN BEAR 0000001000+00006139+00000+0001T   00006139+0000001218          1400 EM6515               1AZ
214210002214210112-116038     214210006009681820246TCS CARRIER BAG MIDI   0000001000+00000035+00000+0001T   00000035+0000001218          1400 EM6090               1AZ
214211000214211               214211               170213DJ     1400+00000+DJ0000006752+0000006752+000000000+000000946+0000007698+0000000000+I40000007698+0000000000+Z
214211001214211018-019000     214211006003000557288MUG OCC. LOVE JUMBO    0000001000+00005262+00000+0001T   00005262+0000001325          1400 NY8515               1AZ
214211002214211077-000299     214211006003000395576G/BAG 32x25cm LRG LOVE 0000001000+00001490+00000+0001T   00001490+0000001325          1400 NY8112               1AZ
214212000214212               214212               170213DJ     1400+00000+DJ0000001753+0000001753+000000000+000000246+0000001990+0000000009+I20000000000+0000001990+Z
214212001214212080-000100     214212006003000236114CARD & ENVELOPE BDAY   0000001000+00001753+00000+0001T   00001753+0000001342          1400 EM6112               1AZ
214213000214213               214213               170213DJ     1400+00000+DJ0000001227+0000001227+000000000+000000172+0000001390+0000000009+I20000000000+0000001390+Z
214213001214213077-000322     214213006001023677532GIFT-BAG 18X23CM E/D FL0000001000+00001227+00000+0001T   00001227+0000001512          1400 1IC112               1AZ
214214000214214               214214               170213DJ     1400+00000+DJ0000000876+0000000876+000000000+000000123+0000000990+0000000009+I20000000000+0000000990+Z
214214001214214077-000408     214214006003000145218G/BAG PP 15X21X7CM     0000001000+00000876+00000+0001T   00000876+0000001514          1400 1IC112               1AZ
214215000214215               214215               170213DJ     1400+00000+DJ0000041162+0000041162+000000000+000005772+0000046934+0000000000+I40000046934+0000000000+Z
214215001214215006-000167-B   214215006003000516858BALLOONS BLUE METALLIC 0000005000+00001314+00000+0001T   00001314+0000001519          1400 1IC131               1AZ
214215002214215006-000166-H   214215006003000608096BALLOONS HELIUM 6PC WHT0000003000+00001314+00000+0001T   00001314+0000001519          1400 1IC131               1AZ
214215003214215006-001000     214215006003000093779HELIUM BALLOON FILL    0000050000+00000613+00000+0001T   00000613+0000001519          1400 1IC131               1AZ
214216000214216               214216               170213DJ     1400+00000+DJ0000005123+0000005123+000000000+000000720+0000005843+0000000000+I40000005843+0000000000+Z
214216001214216006-001000     214216006003000093779HELIUM BALLOON FILL    0000003000+00000613+00000+0001T   00000613+0000001628          1400 NY8131               1AZ
214216002214216006-000171-A   214216006003000608935BALLOONS 1PC PINK PRNT 0000003000+00000218+00000+0001T   00000218+0000001628          1400 NY8131               1AZ
214216003214216006-000111     214216006003000519385BALLOONS LARGE 12PCE   0000001000+00002630+00000+0001T   00002630+0000001628          1400 NY8131               1AZ
214217000214217               214217               170213DJ     1400+00000+DJ0000001311+0000001311+000000000+000000186+0000001490+0000000007+I20000000000+0000001490+Z
214217001214217080-000133     214217006003000535613CARD&ENV MINI ASTD DSGN0000001000+00000437+00000+0001T   00000437+0000001629          1400 NY8112               1AZ
214217002214217080-000133-A   214217006003000647019MINI VALENTINES CARD   0000002000+00000437+00000+0001T   00000437+0000001629          1400 NY8112               1AZ
214218000214218               214218               170213DJ     1400+00000+DJ0000006137+0000006137+000000000+000000860+0000006997+0000000000+I40000006997+0000000000+Z
214218001214218077-000270     214218006003000395453GIFT-BAG PPR JMB 33X45 0000001000+00002630+00000+0001T   00002630+0000001652          1400 EM6112               1AZ
214218002214218018-000136     214218006001023659026MUG OCC LOVE W/PLUSH   0000001000+00003507+00000+0001T   00003507+0000001652          1400 EM6515               1AZ
214219000214219               214219               170213DJ     1400+00000+DJ0000000048+0000000048+000000000+000000007+0000000050+0000000005+I20000000000+0000000050+Z
214219001214219112-116069     214219006009681820277TCS CARRIER BAG JUMBO  0000001000+00000048+00000+0001T   00000048+0000001653          1400 EM6090               1AZ
C21419900                                          170213DJ082-007580     10231986SLAVE 1     EM61IC0000000000+0000000000+0010000001000+
M17021301                              GLADWIN     DJLAST TILL SLIP NR.SL ONE 214219                 THANKS                                          DJ
M17021302                              FC2         DJFC2 OF TODAY 24                                 THANKS                                          DJ
M17021303                              SHIEHAAM    DJCASH SL ONE R560.10                             C-CARDS R734.10                                 NO ABORTED SALES                                NO AIRTIME                                      DELETED LINES R59.99                            NO PAY OUT                                      Z-READING R1294.81 AND NR.637                   THANKS                                          DJ
M17021391                              CASH        DJSLAVE 1                       Z-REPORT No.   637TOTAL (Sales - Refunds)           1294.81       CASH TO BE BANKED                  560.10       DEBIT CARDS                          0.00       CREDIT CARDS                       734.71       Z-READING                         1294.81       AIRTIME DEBIT CARD SALES             0.00       AIRTIME CARD SALES                   0.00       OVERS/UNDERS                         0.00       AIRTIME CASH SALES                   0.00       GIFT CARDS                           0.00       GIFT CARD CASH SALES                 0.00       T O T A L  CASH PAYOUTS              0.00                                                                                                                                                                                                                                                                                                                                                      Z
M17021392                              CASH        DJABSENT                                                                                                                                                                                          ANNUAL LEAVE                                                                                                                                                                                    DAY OFF                                                                                                                                                                                         COMMENTS                                                                                                                                                                                                                                                                                                                                                                                       Z
Y17021300                                          DJ00002400121576+000024
ZDJ17021319283 SLAVE 1      SALES DATA                     NEXT INVOICE NO.  214220 0637
X DJ Slave 1 First invoice 214195 170213 Last invoice 214219 170213 Next invoice 214220 Total number of records 000000077 clbackup completed 19:28:55
