229298000229298               229298               170213DJ     1400+00000+DJ0000001314+0000001314+000000000+000000184+0000001490+0000000008+I20000000000+0000001490+Z
229298001229298565-000042     229298006003000252459NOVELTY STRESS BALL    0000001000+00001314+00000+0001T   00001314+0000000916          1400 NY8745               2AZ
229299000229299               229299               170213DJ     1400+00000+DJ0000003505+0000003505+000000000+000000492+0000003990+0000000007+I20000000000+0000003990+Z
229299001229299903-000494     229299006001704009911SWT GUMMY TEENY TEDDIES0000002000+00000876+00000+0001T   00000876+0000000924          1400 NY8150               2AZ
229299002229299037-000004     229299006001023763679ASHTRAY PL TUB 8X11CM  0000001000+00001753+00000+0001T   00002192+0008190924          1400 NY8515               2AZ
229300000229300               229300               170213DJ     1400+00000+DJ0000001753+0000001753+000000000+000000246+0000001990+0000000009+I20000000000+0000001990+Z
229300001229300079-006496     229300006003000160105GLITTER SHAKERS        0000001000+00001753+00000+0001T   00001753+0000000935          1400 NY8130               2AZ
229301000229301               229301               170213DJ     1400+00000+DJ0000013630+0000013630+000000000+000001911+0000015540+0000000001+I20000000000+0000015540+Z
229301001229301006-000124     229301006003000625888BALLOONS 10PC MIX COL  0000001000+00001753+00000+0001T   00001753+0000000953          1400 NY8131               2AZ
229301002229301006-001000     229301006003000093779HELIUM BALLOON FILL    0000005000+00000613+00000+0001T   00000613+0000000953          1400 NY8131               2AZ
229301003229301006-000170-K   229301006003000609284BALLOONS 1PC PURPLE    0000001000+00000218+00000+0001T   00000218+0000000953          1400 NY8131               2AZ
229301004229301077-000303     229301006001023593757GIFT-BAG PAPER MED     0000001000+00001578+00000+0001T   00001578+0000000953          1400 NY8112               2AZ
229301005229301041-093000     229301006003000320882B/GIFT SET 4PC B/RANGE 0000001000+00007016+00000+0001T   00007016+0000000953          1400 NY8200               2AZ
229302000229302               229302               170213DJ     1400+00000+DJ0000002717+0000002717+000000000+000000381+0000003090+0000000008+I20000000000+0000003090+Z
229302001229302565-000071     229302006003000643387NOVELTY WIND UP CHATTER0000001000+00001139+00000+0001T   00001139+0000001003          1400 NY8745               2AZ
229302002229302565-000885     229302006003000122929NOVELTY PRICKLY BALL   0000001000+00001578+00000+0001T   00001578+0000001003          1400 NY8745               2AZ
229303000229303               229303               170213DJ     1400+00000+DJ0000008242+0000008242+000000000+000001155+0000009397+0000000000+I40000009397+0000000000+Z
229303001229303006-000805     229303000013994092418STREAMERS 10-ROLLS     0000002000+00001490+00000+0001T   00001490+0000001010          1400 NY8131               2AZ
229303002229303006-000106     229303006003000471331WATERBOMBS 150PCE 6-COL0000001000+00005262+00000+0001T   00005262+0000001010          1400 NY8131               2AZ
229304000229304               229304               170213DJ     1400+00000+DJ0000005830+0000005830+000000000+000000818+0000006648+0000000000+I40000006648+0000000000+Z
229304001229304566-000062     229304006001023689641S/BOOK STICKER GLITTER 0000002000+00000700+00000+0001T   00000876+0008151055          1400 NY8130               2AZ
229304002229304566-000027     229304006003000215843STICKERS FOIL ASSTD    0000001000+00000876+00000+0001T   00000876+0000001055          1400 NY8130               2AZ
229304003229304566-020154     229304000728502803607STICKERS PUFFY ASSTD   0000001000+00000876+00000+0001T   00000876+0000001055          1400 NY8130               2AZ
229304004229304200-000208     229304006003000293728BAKING ALUM FOIL 5PCE  0000001000+00002630+00000+0001T   00002630+0000001055          1400 NY8214               2AZ
229304005229304112-116069     229304006009681820277TCS CARRIER BAG JUMBO  0000001000+00000048+00000+0001T   00000048+0000001055          1400 NY8090               2AZ
229305000229305               229305               170213DJ     1400+00000+DJ0000011402-0000011402-000000000+000001597-0000013000-0000000001+I20000000000+0000013000-Z
229305001229305586-012460     229305006001492124605WATCH LDS QUILTED BEIGE0000001000-00011402+00000+0001T   00011402+0000001059          1400 NY81601IC            2 Z
229306000229306               229306               170213DJ     1400+00000+DJ0000005260+0000005260+000000000+000000738+0000005990+0000000008+I20000000000+0000005990+Z
229306001229306463-000366     229306006001023789136SWIM W/NOODLE 150cm    0000002000+00002630+00000+0001T   00002630+0000001059          1400 NY8785               2AZ
229307000229307               229307               170213DJ     1400+00000+DJ0000004385+0000004385+000000000+000000614+0000004999+0000000000+I40000004999+0000000000+Z
229307001229307162-097719     229307006001492977195#TAG NECKLACE          0000001000+00004385+00000+0001T   00004385+0000001102          1400 NY8160               2AZ
229308000229308               229308               170213DJ     1400+00000+DJ0000009555+0000009555+000000000+000001340+0000010890+0000000005+I20000000000+0000010890+Z
229308001229308046-000014     229308006001023725387BATTERIES SIZE:AAA 4PCE0000001000+00001139+00000+0001T   00001139+0000001103          1400 NY8312               2AZ
229308002229308903-000090     229308006009826020821SWT GS CHOCO COINS 60g 0000004000+00002104+00000+0001T   00002104+0000001103          1400 NY8150               2AZ
229309000229309               229309               170213DJ     1400+00000+DJ0000000035+0000000035+000000000+000000005+0000000040+0000000000+I20000000000+0000000040+Z
229309001229309112-116038     229309006009681820246TCS CARRIER BAG MIDI   0000001000+00000035+00000+0001T   00000035+0000001104          1400 NY8090               2AZ
229310000229310               229310               170213DJ     1400+00000+DJ0000002016+0000002016+000000000+000000283+0000002290+0000000009+I20000000000+0000002290+Z
229310001229310174-008025     229310006009654960399TRAVEL TUBS 4-PACK 30ml0000001000+00002016+00000+0001T   00002016+0000001108          1400 NY8205               2AZ
229311000229311               229311               170213DJ     1400+00000+DJ0000001139+0000001139+000000000+000000160+0000001290+0000000009+I20000000000+0000001290+Z
229311001229311903-000087     229311006001704000161SWT SPECKLED-EGGS 50G  0000001000+00001139+00000+0001T   00001139+0000001112          1400 NY8150               2AZ
229312000229312               229312               170213DJ     1400+00000+DJ0000002192+0000002192+000000000+000000307+0000002490+0000000009+I20000000000+0000002490+Z
229312001229312027-008814     229312006001023797155DUSTER POLYESTER 58cm  0000001000+00002192+00000+0001T   00002192+0000001118          1400 NY8212               2AZ
229313000229313               229313               170213DJ     1400+00000+DJ0000005262+0000005262+000000000+000000737+0000005990+0000000009+I20000000000+0000005990+Z
229313001229313494-059258     229313000078257592586INTEX TUBE 76cm        0000001000+00005262+00000+0001T   00005262+0000001123          1400 NY8787               2AZ
229314000229314               229314               170213DJ     1400+00000+DJ0000005262+0000005262+000000000+000000737+0000005990+0000000009+I20000000000+0000005990+Z
229314001229314027-008816     229314006003000481644DUSTER SYNTHETIC 1.6m  0000001000+00005262+00000+0001T   00005262+0000001126          1400 NY8212               2AZ
229315000229315               229315               170213DJ     1400+00000+DJ0000001314+0000001314+000000000+000000184+0000001490+0000000008+I20000000000+0000001490+Z
229315001229315566-000013     229315006001023888952S/BOOK CORNERS GLITTER 0000001000+00001314+00000+0001T   00001753+0008151131          1400 NY8130               2AZ
229316000229316               229316               170213DJ     1400+00000+DJ0000024075+0000024075+000000000+000003374+0000027449+0000000000+I40000027449+0000000000+Z
229316001229316262-000415     229316006003000013265DIE CAST TRANSPORTERS  0000001000+00002630+00000+0001T   00002630+0000001133          1400 NY8710               2AZ
229316002229316002-000721     229316006003000442119C/BOARD PL 43x27x0.6cm 0000001000+00008771+00000+0001T   00008771+0000001133          1400 NY8300               2AZ
229316003229316566-000320     229316006003000422890STICKERS R/DEC. NATURE 0000001000+00005262+00000+0001T   00005262+0000001133          1400 NY8130               2AZ
229316004229316206-000220     229316006003000631704EGG TIMER COLOUR-CHANGE0000001000+00002630+00000+0001T   00002630+0000001133          1400 NY8321               2AZ
229316005229316466-000056     229316006001023839053BALLS 35mm   SET-OF-3  0000001000+00003244+00000+0001T   00003244+0000001133          1400 NY8785               2AZ
229316006229316466-001801     229316006001023343482BALLS TABLE-TENNIS BOX60000001000+00001490+00000+0001T   00001490+0000001133          1400 NY8785               2AZ
229316007229316112-116069     229316006009681820277TCS CARRIER BAG JUMBO  0000001000+00000048+00000+0001T   00000048+0000001133          1400 NY8090               2AZ
229317000229317               229317               170213DJ     1400+00000+DJ0000008243-0000008243-000000000+000001155-0000009400-0000000002+I20000000000+0000009400-Z
229317001229317001-999906     229317000000000999906STATIONERY(PHOTOCOPIES)0000001000-00008243+00000+0001T   00000000+0000001139          1400 NY89061IC            2 Z
229318000229318               229318               170213DJ     1400+00000+DJ0000001839+0000001839+000000000+000000258+0000002090+0000000007+I20000000000+0000002090+Z
229318001229318200-000065     229318006001023323675DRINKING-STRAWS 38PCE  0000003000+00000613+00000+0001T   00000613+0000001140          1400 NY8214               2AZ
229319000229319               229319               170213DJ     1400+00000+DJ0000005429-0000005429-000000000+000000761-0000006190-0000000000+I20000000000+0000006190-Z
229319001229319001-999906     229319000000000999906STATIONERY(PHOTOCOPIES)0000001000-00005429+00000+0001T   00000000+0000001141          1400 NY89061IC            2 Z
229320000229320               229320               170213DJ     1400+00000+DJ0000007893+0000007893+000000000+000001106+0000008999+0000000000+I40000008999+0000000000+Z
229320001229320082-000125     229320006003000646395READING GLASS TWIN 2   0000001000+00007893+00000+0001T   00007893+0000001142          1400 NY8160               2AZ
229321000229321               229321               170213DJ     1400+00000+DJ0000004734+0000004734+000000000+000000664+0000005390+0000000008+I20000000000+0000005390+Z
229321001229321903-000922     229321006914204008158SWT ST NOVELTY CAR     0000001000+00002630+00000+0001T   00002630+0000001146          1400 NY8150               2AZ
229321002229321903-000090     229321006009826020821SWT GS CHOCO COINS 60g 0000001000+00002104+00000+0001T   00002104+0000001146          1400 NY8150               2AZ
229322000229322               229322               170213DJ     1400+00000+DJ0000007014+0000007014+000000000+000000982+0000007996+0000000000+I40000007996+0000000000+Z
229322001229322492-055603     229322000078257556038SWIM-GOGGLES FUN       0000002000+00003507+00000+0001T   00003507+0000001154          1400 NY8787               2AZ
229323000229323               229323               170213DJ     1400+00000+DJ0000006171+0000006171+000000000+000000866+0000007037+0000000000+I40000007037+0000000000+Z
229323001229323079-000282     229323006001023493309PAINT TUBS POSTER 12COL0000001000+00002630+00000+0001T   00002630+0000001200          1400 NY8130               2AZ
229323002229323079-006522     229323006001023149442ART+CRAFT GLUE ASSORTED0000001000+00001753+00000+0001T   00001753+0000001200          1400 NY8130               2AZ
229323003229323366-004047     229323006001023834850DRESS UP ACCESS TEETH  0000001000+00001753+00000+0001T   00001753+0000001200          1400 NY8131               2AZ
229323004229323112-116038     229323006009681820246TCS CARRIER BAG MIDI   0000001000+00000035+00000+0001T   00000035+0000001200          1400 NY8090               2AZ
229324000229324               229324               170213DJ     1400+00000+DJ0000003069+0000003069+000000000+000000430+0000003499+0000000000+I40000003499+0000000000+Z
229324001229324072-020298     229324006003000561629DOG-TOY TUG-ROPE ASSTD 0000001000+00003069+00000+0001T   00003069+0000001203          1400 NY8870               2AZ
229325000229325               229325               170213DJ     1400+00000+DJ0000002192+0000002192+000000000+000000307+0000002490+0000000009+I20000000000+0000002490+Z
229325001229325046-000012-A   229325006003000208296BATTERIES H/POWER SZ:AA0000001000+00002192+00000+0001T   00002192+0000001211          1400 NY8312               2AZ
229326000229326               229326               170213DJ     1400+00000+DJ0000001839+0000001839+000000000+000000258+0000002090+0000000007+I20000000000+0000002090+Z
229326001229326083-000055     229326006003000003853LIGHTER ELCTRNC REFILBL0000003000+00000613+00000+0001T   00000613+0000001212          1400 NY8315               2AZ
229327000229327               229327               170213DJ     1400+00000+DJ0000002454+0000002454+000000000+000000344+0000002790+0000000008+I20000000000+0000002790+Z
229327001229327018-000127     229327006001023380289MUG OCC STRAIGHT LOVE  0000001000+00001578+00000+0001T   00001753+0006471214          1400 NY8515               2AZ
229327002229327077-000314     229327006003000181148GIFT-BAG 11X14CM MATT  0000001000+00000876+00000+0001T   00000876+0000001214          1400 NY8112               2AZ
229328000229328               229328               170213DJ     1400+00000+DJ0000001578+0000001578+000000000+000000221+0000001790+0000000009+I20000000000+0000001790+Z
229328001229328077-000303     229328006001023593757GIFT-BAG PAPER MED     0000001000+00001578+00000+0001T   00001578+0000001214          1400 NY8112               2AZ
229329000229329               229329               170213DJ     1400+00000+DJ0000007185+0000007185+000000000+000001007+0000008190+0000000002+I20000000000+0000008190+Z
229329001229329006-001000     229329006003000093779HELIUM BALLOON FILL    0000006000+00000613+00000+0001T   00000613+0000001221          1400 NY8131               2AZ
229329002229329018-000136     229329006001023659026MUG OCC LOVE W/PLUSH   0000001000+00003507+00000+0001T   00003507+0000001221          1400 NY8515               2AZ
229330000229330               229330               170213DJ     1400+00000+DJ0000003542+0000003542+000000000+000000496+0000004030+0000000008+I20000000000+0000004030+Z
229330001229330306-000027     229330006009654960900COTTON WOOL PADS 2-PACK0000001000+00003507+00000+0001T   00003507+0000001222          1400 NY8200               2AZ
229330002229330112-116038     229330006009681820246TCS CARRIER BAG MIDI   0000001000+00000035+00000+0001T   00000035+0000001222          1400 NY8090               2AZ
229331000229331               229331               170213DJ     1400+00000+DJ0000004208+0000004208+000000000+000000590+0000004798+0000000000+I40000004798+0000000000+Z
229331001229331080-000124     229331006003000297733CARD & ENV VALENTINES  0000001000+00001578+00000+0001T   00001578+0000001227          1400 NY8112               2AZ
229331002229331304-000720     229331006001023843050F/BUNCH ROSE 6-HEAD AST0000001000+00002630+00000+0001T   00002630+0000001227          1400 NY8510               2AZ
229332000229332               229332               170213DJ     1400+00000+DJ0000001012+0000001012+000000000+000000142+0000001150+0000000004+I20000000000+0000001150+Z
229332001229332107-002127     229332006003000697793BASIN PL 30cm SQUARE   0000001000+00000964+00000+0001T   00000964+0000001236          1400 NY8210               2AZ
229332002229332112-116069     229332006009681820277TCS CARRIER BAG JUMBO  0000001000+00000048+00000+0001T   00000048+0000001236          1400 NY8090               2AZ
229333000229333               229333               170213DJ     1400+00000+DJ0000014031+0000014031+000000000+000001966+0000015990+0000000007+I20000000000+0000015990+Z
229333001229333159-000099     229333006003000401123BATH CADDY CHROME      0000001000+00007016+00000+0001T   00008771+0008131249          1400 NY8200               2AZ
229333002229333082-092844     229333006001492928449#TAG SPECTACLE POUCH   0000001000+00002630+00000+0001T   00002630+0000001249          1400 NY8160               2AZ
229333003229333082-007587     229333006003000654338SUNGLASS DESIGNER ASST 0000001000+00004385+00000+0001T   00004385+0000001249          1400 NY8160               2AZ
229334000229334               229334               170213DJ     1400+00000+DJ0000001578+0000001578+000000000+000000221+0000001790+0000000009+I20000000000+0000001790+Z
229334001229334077-000303     229334006001023593757GIFT-BAG PAPER MED     0000001000+00001578+00000+0001T   00001578+0000001250          1400 NY8112               2AZ
229335000229335               229335               170213DJ     1400+00000+DJ0000001753+0000001753+000000000+000000246+0000001990+0000000009+I20000000000+0000001990+Z
229335001229335566-001118     229335006003000682171STICKERS CELL PHONE    0000001000+00001753+00000+0001T   00001753+0000001255          1400 NY8130               2AZ
229336000229336               229336               170213DJ     1400+00000+DJ0000003507+0000003507+000000000+000000491+0000003998+0000000000+I40000003998+0000000000+Z
229336001229336031-000868-C   229336006001023798596P/FRAME PL BLCK 20X25CM0000001000+00003507+00000+0001T   00003507+0000001257          1400 NY8510               2AZ
229337000229337               229337               170213DJ     1400+00000+DJ0000005260+0000005260+000000000+000000738+0000005990+0000000008+I20000000000+0000005990+Z
229337001229337463-000366     229337006001023789136SWIM W/NOODLE 150cm    0000002000+00002630+00000+0001T   00002630+0000001258          1400 NY8785               2AZ
229338000229338               229338               170213DJ     1400+00000+DJ0000010347+0000010347+000000000+000001449+0000011790+0000000006+I20000000000+0000011790+Z
229338001229338018-000177     229338006001023797513MUG MINI LOVE ASSTD    0000001000+00000700+00000+0001T   00000700+0000001304          1400 NY8515               2AZ
229338002229338368-000049     229338006003000536955PLUSH BEAR 15cm LOVE   0000001000+00004385+00000+0001T   00004385+0000001304          1400 NY8745               2AZ
229338003229338368-000171     229338006003000233250PLUSH BEAR 14cm        0000001000+00005262+00000+0001T   00005262+0000001304          1400 NY8745               2AZ
229339000229339               229339               170213DJ     1400+00000+DJ0000004420+0000004420+000000000+000000619+0000005030+0000000009+I20000000000+0000005030+Z
229339001229339031-080508     229339006001023802415P/FRAME PL 22X11CM LOVE0000001000+00004385+00000+0001T   00004385+0000001305          1400 NY8510               2AZ
229339002229339112-116038     229339006009681820246TCS CARRIER BAG MIDI   0000001000+00000035+00000+0001T   00000035+0000001305          1400 NY8090               2AZ
229340000229340               229340               170213DJ     1400+00000+DJ0000001314+0000001314+000000000+000000184+0000001490+0000000008+I20000000000+0000001490+Z
229340001229340903-000194     229340006009826020616SWT CHOC RP LOLLY 25G  0000001000+00001314+00000+0001T   00001314+0000001306          1400 NY8150               2AZ
229341000229341               229341               170213DJ     1400+00000+DJ0000006171+0000006171+000000000+000000866+0000007030+0000000007+I20000000000+0000007030+Z
229341001229341031-005918     229341006003000580453P/FRAME PL PLAIN 10X15 0000002000+00002630+00000+0001T   00002630+0000001307          1400 NY8510               2AZ
229341002229341077-000408     229341006003000145218G/BAG PP 15X21X7CM     0000001000+00000876+00000+0001T   00000876+0000001307          1400 NY8112               2AZ
229341003229341112-116038     229341006009681820246TCS CARRIER BAG MIDI   0000001000+00000035+00000+0001T   00000035+0000001307          1400 NY8090               2AZ
229342000229342               229342               170213DJ     1400+00000+DJ0000001788+0000001788+000000000+000000251+0000002030+0000000009+I20000000000+0000002030+Z
229342001229342051-002402     229342006001023518347TRIGGER-SPRAYER  500ml 0000001000+00001753+00000+0001T   00001753+0000001308          1400 NY8820               2AZ
229342002229342112-116038     229342006009681820246TCS CARRIER BAG MIDI   0000001000+00000035+00000+0001T   00000035+0000001308          1400 NY8090               2AZ
229343000229343               229343               170213DJ     1400+00000+DJ0000009678+0000009678+000000000+000001357+0000011030+0000000005+I20000000000+0000011030+Z
229343001229343203-001247     229343006001023770813C/SCREW WAITER'S-FRIEND0000002000+00002630+00000+0001T   00002630+0000001309          1400 NY8300               2AZ
229343002229343200-000063     229343006003000577590CUTLERY SODA SPOON PL  0000001000+00001314+00000+0001T   00001753+0008171309          1400 NY8214               2AZ
229343003229343002-000722     229343006003000673360C/BOARD+KNIFE 3-ASSTD  0000001000+00003069+00000+0001T   00003069+0000001309          1400 NY8300               2AZ
229343004229343112-116038     229343006009681820246TCS CARRIER BAG MIDI   0000001000+00000035+00000+0001T   00000035+0000001309          1400 NY8090               2AZ
229344000229344               229344               170213DJ     1400+00000+DJ0000002366+0000002366+000000000+000000332+0000002690+0000000008+I20000000000+0000002690+Z
229344001229344140-001004     229344006001023880932FLY-RIBBONS 4PCE PL    0000001000+00001490+00000+0001T   00001490+0000001313          1400 NY8830               2AZ
229344002229344150-004032-H   229344006003000645367BASIN-PLUG 2PCE BLACK  0000001000+00000876+00000+0001T   00000876+0000001313          1400 NY8810               2AZ
229345000229345               229345               170213DJ     1400+00000+DJ0000008800+0000008800+000000000+000001234+0000010034+0000000000+I40000010034+0000000000+Z
229345001229345077-000314     229345006003000181148GIFT-BAG 11X14CM MATT  0000003000+00000876+00000+0001T   00000876+0000001319          1400 3IC112               2AZ
229345002229345566-000064     229345006001023689702STICKERS GLITTER BORDER0000001000+00003507+00000+0001T   00003507+0000001319          1400 3IC130               2AZ
229345003229345566-000004     229345006003000062270STICKER BOOK ABC/BORDER0000001000+00002630+00000+0001T   00002630+0000001319          1400 3IC130               2AZ
229345004229345112-116038     229345006009681820246TCS CARRIER BAG MIDI   0000001000+00000035+00000+0001T   00000035+0000001319          1400 3IC090               2AZ
229346000229346               229346               170213DJ     1400+00000+DJ0000000035+0000000035+000000000+000000005+0000000040+0000000000+I20000000000+0000000040+Z
229346001229346112-116038     229346006009681820246TCS CARRIER BAG MIDI   0000001000+00000035+00000+0001T   00000035+0000001320          1400 3IC090               2AZ
229347000229347               229347               170213DJ     1400+00000+DJ0000003542+0000003542+000000000+000000496+0000004030+0000000008+I20000000000+0000004030+Z
229347001229347018-005009     229347006001023725608MUG W/PLUSH-BEAR LOVE  0000001000+00003507+00000+0001T   00003507+0000001321          1400 3IC515               2AZ
229347002229347112-116038     229347006009681820246TCS CARRIER BAG MIDI   0000001000+00000035+00000+0001T   00000035+0000001321          1400 3IC090               2AZ
229348000229348               229348               170213DJ     1400+00000+DJ0000002630+0000002630+000000000+000000369+0000002990+0000000009+I20000000000+0000002990+Z
229348001229348403-000509     229348006001023699664MONEY-BANK PL. PIGGY   0000001000+00002630+00000+0001T   00002630+0000001321          1400 3IC510               2AZ
229349000229349               229349               170213DJ     1400+00000+DJ0000002628+0000002628+000000000+000000368+0000002990+0000000006+I20000000000+0000002990+Z
229349001229349046-000012     229349006904708013062BATTERIES AA  CARD-OF-40000002000+00001314+00000+0001T   00001314+0000001321          1400 3IC312               2AZ
229350000229350               229350               170213DJ     1400+00000+DJ0000007940+0000007940+000000000+000001113+0000009053+0000000000+I40000009053+0000000000+Z
229350001229350018-019000     229350006003000557288MUG OCC. LOVE JUMBO    0000001000+00005262+00000+0001T   00005262+0000001324          1400 3IC515               2AZ
229350002229350077-000270     229350006003000395453GIFT-BAG PPR JMB 33X45 0000001000+00002630+00000+0001T   00002630+0000001324          1400 3IC112               2AZ
229350003229350112-116069     229350006009681820277TCS CARRIER BAG JUMBO  0000001000+00000048+00000+0001T   00000048+0000001324          1400 3IC090               2AZ
229351000229351               229351               170213DJ     1400+00000+DJ0000001314+0000001314+000000000+000000184+0000001490+0000000008+I20000000000+0000001490+Z
229351001229351006-000166-C   229351006003000516377BALLOONS LRG 6PC PINK  0000001000+00001314+00000+0001T   00001314+0000001326          1400 NY8131               2AZ
229352000229352               229352               170213DJ     1400+00000+DJ0000005168+0000005168+000000000+000000726+0000005890+0000000004+I20000000000+0000005890+Z
229352001229352077-000299-A   229352006003000670888GIFT-BAG PAPER JMB LOVE0000002000+00001753+00000+0001T   00001753+0000001327          1400 NY8112               2AZ
229352002229352006-001000     229352006003000093779HELIUM BALLOON FILL    0000002000+00000613+00000+0001T   00000613+0000001327          1400 NY8131               2AZ
229352003229352006-000170-K   229352006003000609284BALLOONS 1PC PURPLE    0000001000+00000218+00000+0001T   00000218+0000001327          1400 NY8131               2AZ
229352004229352006-000171-A   229352006003000608935BALLOONS 1PC PINK PRNT 0000001000+00000218+00000+0001T   00000218+0000001327          1400 NY8131               2AZ
229353000229353               229353               170213DJ     1400+00000+DJ0000003331+0000003331+000000000+000000467+0000003798+0000000000+I40000003798+0000000000+Z
229353001229353077-000299-A   229353006003000670888GIFT-BAG PAPER JMB LOVE0000001000+00001753+00000+0001T   00001753+0000001329          1400 NY8112               2AZ
229353002229353080-000124     229353006003000297733CARD & ENV VALENTINES  0000001000+00001578+00000+0001T   00001578+0000001329          1400 NY8112               2AZ
229354000229354               229354               170213DJ     1400+00000+DJ0000003507+0000003507+000000000+000000491+0000003990+0000000008+I20000000000+0000003990+Z
229354001229354200-000011     229354006003000613489DISPOSABLE BAG ZIPER   0000001000+00003507+00000+0001T   00003507+0000001335          1400 NY8214               2AZ
229355000229355               229355               170213DJ     1400+00000+DJ0000014064+0000014064+000000000+000001971+0000016035+0000000000+I40000016035+0000000000+Z
229355001229355206-000620     229355006003000631797BACK SCRATCHER EXTEND  0000001000+00002630+00000+0001T   00002630+0000001339          1400 NY8321               2AZ
229355002229355206-000170     229355006003000631100POT HOLDER MTL MAN 20CM0000001000+00006139+00000+0001T   00006139+0000001339          1400 NY8321               2AZ
229355003229355206-000245     229355006003000680818BOTTLE CLEANER PLASTIC 0000002000+00002192+00000+0001T   00002192+0000001339          1400 NY8321               2AZ
229355004229355082-026204     229355006001023816443R/GLASSES STRINGS 2PCE 0000001000+00000876+00000+0001T   00000876+0000001339          1400 NY8160               2AZ
229355005229355112-116038     229355006009681820246TCS CARRIER BAG MIDI   0000001000+00000035+00000+0001T   00000035+0000001339          1400 NY8090               2AZ
229356000229356               229356               170213DJ     1400+00000+DJ0000002192+0000002192+000000000+000000307+0000002490+0000000009+I20000000000+0000002490+Z
229356001229356366-000451     229356006003000653508DRESS UP HEADBAND ASSTD0000001000+00002192+00000+0001T   00002192+0000001344          1400 NY8131               2AZ
229357000229357               229357               170213DJ     1400+00000+DJ0000002630+0000002630+000000000+000000369+0000002999+0000000000+I40000002999+0000000000+Z
229357001229357082-011564     229357006001492115641#SUNGLASS POUCH AZTEC  0000001000+00002630+00000+0001T   00002630+0000001345          1400 NY8160               2AZ
229358000229358               229358               170213DJ     1400+00000+DJ0000011402+0000011402+000000000+000001597+0000012990+0000000009+I20000000000+0000012990+Z
229358001229358003-009213     229358006003000483334O/INSECT STONE 22CM    0000001000+00011402+00000+0001T   00011402+0000001346          1400 NY8505               2AZ
229359000229359               229359               170213DJ     1400+00000+DJ0000015836+0000015836+000000000+000002218+0000018054+0000000000+I40000018054+0000000000+Z
229359001229359560-000779     229359006001023492760ANIMAL FARM P/SET 45PC 0000001000+00015788+00000+0001T   00015788+0000001358          1400 2IC745               2AZ
229359002229359112-116069     229359006009681820277TCS CARRIER BAG JUMBO  0000001000+00000048+00000+0001T   00000048+0000001358          1400 2IC090               2AZ
229360000229360               229360               170213DJ     1400+00000+DJ0000005120+0000005120+000000000+000000717+0000005830+0000000007+I20000000000+0000005830+Z
229360001229360077-000303     229360006001023593757GIFT-BAG PAPER MED     0000001000+00001578+00000+0001T   00001578+0000001358          1400 2IC112               2AZ
229360002229360018-000136     229360006001023659026MUG OCC LOVE W/PLUSH   0000001000+00003507+00000+0001T   00003507+0000001358          1400 2IC515               2AZ
229360003229360112-116038     229360006009681820246TCS CARRIER BAG MIDI   0000001000+00000035+00000+0001T   00000035+0000001358          1400 2IC090               2AZ
229361000229361               229361               170213DJ     1400+00000+DJ0000015819+0000015819+000000000+000002217+0000018030+0000000006+I20000000000+0000018030+Z
229361001229361206-000170     229361006003000631100POT HOLDER MTL MAN 20CM0000002000+00006139+00000+0001T   00006139+0000001400          1400 EM6321               2AZ
229361002229361006-000118     229361006001023730725BALLOONS 6PC TWISTER   0000001000+00001753+00000+0001T   00001753+0000001400          1400 EM6131               2AZ
229361003229361006-000093     229361006003000539932PARTY BANNER FLAGS ASST0000001000+00001753+00000+0001T   00001753+0000001400          1400 EM6131               2AZ
229361004229361112-116038     229361006009681820246TCS CARRIER BAG MIDI   0000001000+00000035+00000+0001T   00000035+0000001400          1400 EM6090               2AZ
229362000229362               229362               170213DJ     1400+00000+DJ0000004383+0000004383+000000000+000000615+0000004990+0000000008+I20000000000+0000004990+Z
229362001229362079-013032-D   229362006003000389643RIBBONS                0000001000+00002630+00000+0001T   00002630+0000001401          1400 EM6130               2AZ
229362002229362566-001118     229362006003000682171STICKERS CELL PHONE    0000001000+00001753+00000+0001T   00001753+0000001401          1400 EM6130               2AZ
229363000229363               229363               170213DJ     1400+00000+DJ0000014941+0000014941+000000000+000002093+0000017034+0000000000+I40000017034+0000000000+Z
229363001229363903-000595     229363006003000564170SWT TOY WATER FLUTE    0000001000+00001753+00000+0001T   00001753+0000001404          1400 EM6150               2AZ
229363002229363089-000018     229363006003000176724KEY CHAIN INSPIRATION  0000002000+00003507+00000+0001T   00003507+0000001404          1400 EM6205               2AZ
229363003229363301-000013     229363006001023781604ORN SENTIMENT STONE 4-A0000001000+00006139+00000+0001T   00006139+0000001404          1400 EM6505               2AZ
229363004229363112-116038     229363006009681820246TCS CARRIER BAG MIDI   0000001000+00000035+00000+0001T   00000035+0000001404          1400 EM6090               2AZ
229364000229364               229364               170213DJ     1400+00000+DJ0000011871+0000011871+000000000+000001664+0000013535+0000000000+I40000013535+0000000000+Z
229364001229364079-013032-H   229364006003000496501GLITTER PRINCESS ACC   0000001000+00002630+00000+0001T   00002630+0000001406          1400 EM6130               2AZ
229364002229364082-098780     229364006001492987804SUNGLASS KIDS HEART    0000001000+00003507+00000+0001T   00003507+0000001406          1400 EM6160               2AZ
229364003229364079-013101     229364006001023863706CRAFT SET DIY PIPE-CLNR0000001000+00002630+00000+0001T   00002630+0000001406          1400 EM6130               2AZ
229364004229364079-013106     229364006003000081998ART+CRAFT PIPE-CLEANERS0000001000+00003069+00000+0001T   00003069+0000001406          1400 EM6130               2AZ
229364005229364112-116038     229364006009681820246TCS CARRIER BAG MIDI   0000001000+00000035+00000+0001T   00000035+0000001406          1400 EM6090               2AZ
229365000229365               229365               170213DJ     1400+00000+DJ0000010992+0000010992+000000000+000001540+0000012530+0000000002+I20000000000+0000012530+Z
229365001229365006-000120     229365006001023346889BALLOONS 10PC MIX COL  0000001000+00001753+00000+0001T   00001753+0000001410          1400 EM6131               2AZ
229365002229365006-000166-H   229365006003000608096BALLOONS HELIUM 6PC WHT0000001000+00001314+00000+0001T   00001314+0000001410          1400 EM6131               2AZ
229365003229365031-006228     229365006003000142293P/FRAME+PLAQUE 10X15CM 0000001000+00003507+00000+0001T   00003507+0000001410          1400 EM6510               2AZ
229365004229365077-000386     229365006003000275489G/BAG POP UP 18x23CM   0000002000+00001578+00000+0001T   00001578+0000001410          1400 EM6112               2AZ
229365005229365077-000319     229365006001023609779GIFT-BAG 18X23CM BIRTHD0000001000+00001227+00000+0001T   00001227+0000001410          1400 EM6112               2AZ
229365006229365112-116038     229365006009681820246TCS CARRIER BAG MIDI   0000001000+00000035+00000+0001T   00000035+0000001410          1400 EM6090               2AZ
229366000229366               229366               170213DJ     1400+00000+DJ0000006611+0000006611+000000000+000000926+0000007530+0000000007+I20000000000+0000007530+Z
229366001229366903-000194     229366006009826020616SWT CHOC RP LOLLY 25G  0000001000+00001314+00000+0001T   00001314+0000001411          1400 EM6150               2AZ
229366002229366301-085003     229366006003000420827ORN OCCASION LOVE KEY  0000001000+00005262+00000+0001T   00005262+0000001411          1400 EM6505               2AZ
229366003229366112-116038     229366006009681820246TCS CARRIER BAG MIDI   0000001000+00000035+00000+0001T   00000035+0000001411          1400 EM6090               2AZ
229367000229367               229367               170213DJ     1400+00000+DJ0000005555+0000005555+000000000+000000779+0000006334+0000000000+I40000006334+0000000000+Z
229367001229367903-000911     229367006009802868454SWT ST GUM TAPE BARBIE 0000001000+00001753+00000+0001T   00001753+0000001416          1400 EM6150               2AZ
229367002229367903-000087     229367006001704000161SWT SPECKLED-EGGS 50G  0000001000+00001139+00000+0001T   00001139+0000001416          1400 EM6150               2AZ
229367003229367903-000194     229367006009826020616SWT CHOC RP LOLLY 25G  0000002000+00001314+00000+0001T   00001314+0000001416          1400 EM6150               2AZ
229367004229367112-116038     229367006009681820246TCS CARRIER BAG MIDI   0000001000+00000035+00000+0001T   00000035+0000001416          1400 EM6090               2AZ
229368000229368               229368               170213DJ     1400+00000+DJ0000001753+0000001753+000000000+000000246+0000001990+0000000009+I20000000000+0000001990+Z
229368001229368089-000004     229368006003000137749KEY CHAIN MTL CHARMS   0000001000+00001753+00000+0001T   00001753+0000001431          1400 EM6205               2AZ
229369000229369               229369               170213DJ     1400+00000+DJ0000000876+0000000876+000000000+000000123+0000000990+0000000009+I20000000000+0000000990+Z
229369001229369162-087876     229369006001492878768#TAG 2PK HEADBANDS     0000001000+00000876+00000+0001T   00001753+0008161433          1400 EM6160               2AZ
229370000229370               229370               170213DJ     1400+00000+DJ0000000612+0000000612+000000000+000000086+0000000690+0000000008+I20000000000+0000000690+Z
229370001229370079-009700-D   229370006003000545711PAPER SIRIO A4 RED COL.0000002000+00000306+00000+0001T   00000306+0000001434          1400 EM6130               2AZ
229371000229371               229371               170213DJ     1400+00000+DJ0000002630+0000002630+000000000+000000369+0000002990+0000000009+I20000000000+0000002990+Z
229371001229371006-000111     229371006003000519385BALLOONS LARGE 12PCE   0000001000+00002630+00000+0001T   00002630+0000001437          1400 EM6131               2AZ
229372000229372               229372               170213DJ     1400+00000+DJ0000000613+0000000613+000000000+000000086+0000000690+0000000009+I20000000000+0000000690+Z
229372001229372150-004030-H   229372006001023435798BATH-PLUG RUBBER WHITE 0000001000+00000613+00000+0001T   00000613+0000001438          1400 EM6810               2AZ
229373000229373               229373               170213DJ     1400+00000+DJ0000005262+0000005262+000000000+000000737+0000005990+0000000009+I20000000000+0000005990+Z
229373001229373263-000188     229373006001023790927CAR RACER 24cm         0000001000+00005262+00000+0001T   00005262+0000001440          1400 EM6710               2AZ
229374000229374               229374               170213DJ     1400+00000+DJ0000005291+0000005291+000000000+000000741+0000006030+0000000002+I20000000000+0000006030+Z
229374001229374006-000167-C   229374006003000516971BALLOONS PINK METALLIC 0000002000+00001314+00000+0001T   00001314+0000001441          1400 EM6131               2AZ
229374002229374006-000166-H   229374006003000608096BALLOONS HELIUM 6PC WHT0000002000+00001314+00000+0001T   00001314+0000001441          1400 EM6131               2AZ
229374003229374112-116038     229374006009681820246TCS CARRIER BAG MIDI   0000001000+00000035+00000+0001T   00000035+0000001441          1400 EM6090               2AZ
229375000229375               229375               170213DJ     1400+00000+DJ0000002630+0000002630+000000000+000000369+0000002990+0000000009+I20000000000+0000002990+Z
229375001229375019-071601     229375006001023771995RIVER-STONES 1kg WHITE 0000001000+00002630+00000+0001T   00002630+0000001442          1400 EM6510               2AZ
229376000229376               229376               170213DJ     1400+00000+DJ0000007712+0000007712+000000000+000001082+0000008790+0000000004+I20000000000+0000008790+Z
229376001229376088-000084     229376006001023798060P/POURRI 120G ASSTD    0000002000+00001753+00000+0001T   00001753+0000001449          1400 NY8212               2AZ
229376002229376039-001023     229376006003000466337CANDLE TEA-LITE METALIC0000002000+00001753+00000+0001T   00001753+0000001449          1400 NY8510               2AZ
229376003229376088-000103     229376006008766127102INCENSE 20PCE ASSTD    0000001000+00000700+00000+0001T   00000700+0000001449          1400 NY8212               2AZ
229377000229377               229377               170213DJ     1400+00000+DJ0000008815+0000008815+000000000+000001236+0000010051+0000000000+I40000010051+0000000000+Z
229377001229377366-007917     229377006003000653621DRESS UP MASK ANIMALS  0000001000+00000876+00000+0001T   00000876+0000001451          1400 NY8131               2AZ
229377002229377030-000031-A   229377006003000457588PLAQUE W/WORDS ASSTD   0000001000+00004385+00000+0001T   00004823+0006471451          1400 NY8505               2AZ
229377003229377080-000113     229377006003000237449CARD&ENVLPE - LOVE     0000001000+00001753+00000+0001T   00001753+0000001451          1400 NY8112               2AZ
229377004229377019-000103     229377006003000280957VASE GLASS BUD 14CM ASS0000001000+00001753+00000+0001T   00001753+0000001451          1400 NY8510               2AZ
229377005229377112-116069     229377006009681820277TCS CARRIER BAG JUMBO  0000001000+00000048+00000+0001T   00000048+0000001451          1400 NY8090               2AZ
229378000229378               229378               170213DJ     1400+00000+DJ0000003507+0000003507+000000000+000000491+0000003990+0000000008+I20000000000+0000003990+Z
229378001229378065-000053     229378006001023756879MUSICAL HAMMER         0000001000+00003507+00000+0001T   00003507+0000001454          1400 NY8745               2AZ
229379000229379               229379               170213DJ     1400+00000+DJ0000001753+0000001753+000000000+000000246+0000001990+0000000009+I20000000000+0000001990+Z
229379001229379046-002032-PK2 229379004897006175063BATTERIES CR-2032  2PCE0000001000+00001753+00000+0001T   00001753+0000001455          1400 NY8312               2AZ
229380000229380               229380               170213DJ     1400+00000+DJ0000001753+0000001753+000000000+000000246+0000001990+0000000009+I20000000000+0000001990+Z
229380001229380027-056191     229380006916920933134DISH-BRUSH+HOOK RECT   0000001000+00001753+00000+0001T   00001753+0000001456          1400 NY8212               2AZ
229381000229381               229381               170213DJ     1400+00000+DJ0000009382+0000009382+000000000+000001315+0000010690+0000000007+I20000000000+0000010690+Z
229381001229381080-000113     229381006003000237449CARD&ENVLPE - LOVE     0000001000+00001753+00000+0001T   00001753+0000001456          1400 NY8112               2AZ
229381002229381018-050000     229381006003000412679MUG OCC LOVE TWIN BEAR 0000001000+00006139+00000+0001T   00006139+0000001456          1400 NY8515               2AZ
229381003229381077-000299     229381006003000395576G/BAG 32x25cm LRG LOVE 0000001000+00001490+00000+0001T   00001490+0000001456          1400 NY8112               2AZ
229382000229382               229382               170213DJ     1400+00000+DJ0000000876+0000000876+000000000+000000123+0000000990+0000000009+I20000000000+0000000990+Z
229382001229382077-000302     229382008010410010195GIFT-BAG 18X23CM E/D   0000001000+00000876+00000+0001T   00000876+0000001457          1400 NY8112               2AZ
229383000229383               229383               170213DJ     1400+00000+DJ0000004239+0000004239+000000000+000000597+0000004830+0000000006+I20000000000+0000004830+Z
229383001229383079-009702-D   229383006003000546671PAPER SIRIO A2 RED COL 0000004000+00001051+00000+0001T   00001051+0000001459          1400 NY8130               2AZ
229383002229383112-116038     229383006009681820246TCS CARRIER BAG MIDI   0000001000+00000035+00000+0001T   00000035+0000001459          1400 NY8090               2AZ
229384000229384               229384               170213DJ     1400+00000+DJ0000000876+0000000876+000000000+000000123+0000000990+0000000009+I20000000000+0000000990+Z
229384001229384903-000673     229384006009803358237SWT SHERBET GRAPE 4PK  0000001000+00000876+00000+0001T   00000876+0000001500          1400 NY8150               2AZ
229385000229385               229385               170213DJ     1400+00000+DJ0000003946+0000003946+000000000+000000553+0000004490+0000000009+I20000000000+0000004490+Z
229385001229385566-000358     229385006003000582587STICKER ROOM DECOR WORD0000001000+00003946+00000+0001T   00003946+0000001502          1400 NY8130               2AZ
229386000229386               229386               170213DJ     1400+00000+DJ0000002104+0000002104+000000000+000000295+0000002390+0000000009+I20000000000+0000002390+Z
229386001229386903-000095     229386006001704011495SWT SPECKLED-EGGS 100G 0000001000+00002104+00000+0001T   00002104+0000001502          1400 NY8150               2AZ
229387000229387               229387               170213DJ     1400+00000+DJ0000000048+0000000048+000000000+000000007+0000000050+0000000005+I20000000000+0000000050+Z
229387001229387112-116069     229387006009681820277TCS CARRIER BAG JUMBO  0000001000+00000048+00000+0001T   00000048+0000001502          1400 NY8090               2AZ
229388000229388               229388               170213DJ     1400+00000+DJ0000017410+0000017410+000000000+000002440+0000019850+0000000000+I40000019850+0000000000+Z
229388001229388077-000011-E   229388006001023808646TISSUE-WRAP PINK 10PCE 0000001000+00000876+00000+0001T   00000876+0000001505          1400 NY8112               2AZ
229388002229388077-000386     229388006003000275489G/BAG POP UP 18x23CM   0000001000+00001578+00000+0001T   00001578+0000001505          1400 NY8112               2AZ
229388003229388024-000039     229388006003000114030MEASURING-JUG PL 1,0L  0000001000+00003946+00000+0001T   00005262+0008121505          1400 NY8300               2AZ
229388004229388082-098789     229388006001492987897#SUNGLASS GIRLS OVAL   0000001000+00003946+00000+0001T   00003946+0000001505          1400 NY8160               2AZ
229388005229388566-000302     229388006003000444281GLOW IN THE DARK ROOM D0000001000+00007016+00000+0001T   00007016+0000001505          1400 NY8130               2AZ
229388006229388112-116069     229388006009681820277TCS CARRIER BAG JUMBO  0000001000+00000048+00000+0001T   00000048+0000001505          1400 NY8090               2AZ
229389000229389               229389               170213DJ     1400+00000+DJ0000010349+0000010349+000000000+000001449+0000011790+0000000008+I20000000000+0000011790+Z
229389001229389077-000386     229389006003000275489G/BAG POP UP 18x23CM   0000001000+00001578+00000+0001T   00001578+0000001507          1400 NY8112               2AZ
229389002229389264-000917     229389000090159150305MAISTO DIRT DEMONS     0000001000+00008771+00000+0001T   00008771+0000001507          1400 NY8710               2AZ
229390000229390               229390               170213DJ     1400+00000+DJ0000000393+0000000393+000000000+000000056+0000000440+0000000009+I20000000000+0000000440+Z
229390001229390001-000001     229390006001023507266SHOT-GLASS 25ml        0000001000+00000393+00000+0001T   00000393+0000001508          1400 NY8515               2AZ
229391000229391               229391               170213DJ     1400+00000+DJ0000001753+0000001753+000000000+000000246+0000001990+0000000009+I20000000000+0000001990+Z
229391001229391366-002809     229391006003000222643DRESS UP MOUSTACHE SET 0000001000+00001753+00000+0001T   00001753+0000001508          1400 NY8131               2AZ
229392000229392               229392               170213DJ     1400+00000+DJ0000018852+0000018852+000000000+000002643+0000021495+0000000000+I40000021495+0000000000+Z
229392001229392077-000303     229392006001023593757GIFT-BAG PAPER MED     0000001000+00001578+00000+0001T   00001578+0000001511          1400 NY8112               2AZ
229392002229392903-000920     229392000041396002155SWT CANDY STICK/TATT   0000001000+00000700+00000+0001T   00000700+0000001511          1400 NY8150               2AZ
229392003229392562-000011     229392006001023782182PLAY DOUGH NEON TUBE   0000001000+00003507+00000+0001T   00003507+0000001511          1400 NY8755               2AZ
229392004229392903-000670     229392006009803358008SWT SHERBET RED LIPS   0000001000+00000218+00000+0001T   00000218+0000001511          1400 NY8150               2AZ
229392005229392903-000221     229392006001704007382SWT EENY-MEENY-MOS 60G 0000001000+00000876+00000+0001T   00000876+0000001511          1400 NY8150               2AZ
229392006229392002-000094     229392006001023489753PIZZA-CUTTER           0000001000+00002630+00000+0001T   00002630+0000001511          1400 NY8300               2AZ
229392007229392206-000620     229392006003000631797BACK SCRATCHER EXTEND  0000001000+00002630+00000+0001T   00002630+0000001511          1400 NY8321               2AZ
229392008229392047-000006-H   229392006001023704054M/PLUG 3x16A+3x5A+CARD 0000001000+00006665+00000+0001T   00006665+0000001511          1400 NY8880               2AZ
229392009229392112-116069     229392006009681820277TCS CARRIER BAG JUMBO  0000001000+00000048+00000+0001T   00000048+0000001511          1400 NY8090               2AZ
229393000229393               229393               170213DJ     1400+00000+DJ0000005310+0000005310+000000000+000000744+0000006054+0000000000+I40000006054+0000000000+Z
229393001229393174-000004     229393006003000583317SHOE BAG 9-POCKETS     0000001000+00005262+00000+0001T   00005262+0000001512          1400 NY8205               2AZ
229393002229393112-116069     229393006009681820277TCS CARRIER BAG JUMBO  0000001000+00000048+00000+0001T   00000048+0000001512          1400 NY8090               2AZ
229394000229394               229394               170213DJ     1400+00000+DJ0000021088+0000021088+000000000+000002955+0000024043+0000000000+I40000024043+0000000000+Z
229394001229394112-116069     229394006009681820277TCS CARRIER BAG JUMBO  0000001000+00000048+00000+0001T   00000048+0000001514          1400 NY8090               2AZ
229394002229394361-000664     229394006003000157402DOLL BIG EYE BEAUTY    0000001000+00003507+00000+0001T   00004385+0008191514          1400 NY8725               2AZ
229394003229394065-003644     229394006003000396283MUSICAL 4PC PLAYSET    0000001000+00003507+00000+0001T   00003507+0000001514          1400 NY8745               2AZ
229394004229394266-005280     229394006003000656691BOYS PLAYSET SOLDIERS  0000002000+00003507+00000+0001T   00003507+0000001514          1400 NY8710               2AZ
229394005229394077-000316     229394006001023609731GIFT-BAG 25X32CM MATT  0000004000+00001753+00000+0001T   00001753+0000001514          1400 NY8112               2AZ
229395000229395               229395               170213DJ     1400+00000+DJ0000004294+0000004294+000000000+000000603+0000004897+0000000000+I40000004897+0000000000+Z
229395001229395903-000095     229395006001704011495SWT SPECKLED-EGGS 100G 0000001000+00002104+00000+0001T   00002104+0000001515          1400 NY8150               2AZ
229395002229395077-000457     229395006003000285662G/BAG METALLIC JMB SOL 0000001000+00001753+00000+0001T   00001753+0000001515          1400 NY8112               2AZ
229395003229395080-000133     229395006003000535613CARD&ENV MINI ASTD DSGN0000001000+00000437+00000+0001T   00000437+0000001515          1400 NY8112               2AZ
229396000229396               229396               170213DJ     1400+00000+DJ0000005260+0000005260+000000000+000000737+0000005990+0000000007+I20000000000+0000005990+Z
229396001229396031-000002-A   229396006003000247103P/FRAME LOVE 7.5X7.5CM 0000001000+00003507+00000+0001T   00003507+0000001516          1400 NY8510               2AZ
229396002229396077-000299-A   229396006003000670888GIFT-BAG PAPER JMB LOVE0000001000+00001753+00000+0001T   00001753+0000001516          1400 NY8112               2AZ
229397000229397               229397               170213DJ     1400+00000+DJ0000001753+0000001753+000000000+000000246+0000001990+0000000009+I20000000000+0000001990+Z
229397001229397079-002000     229397006003000658152MODELLING CLAY         0000001000+00001753+00000+0001T   00001753+0000001518          1400 NY8130               2AZ
229398000229398               229398               170213DJ     1400+00000+DJ0000001578+0000001578+000000000+000000221+0000001790+0000000009+I20000000000+0000001790+Z
229398001229398077-000303     229398006001023593757GIFT-BAG PAPER MED     0000001000+00001578+00000+0001T   00001578+0000001520          1400 NY8112               2AZ
229399000229399               229399               170213DJ     1400+00000+DJ0000001490+0000001490+000000000+000000209+0000001690+0000000009+I20000000000+0000001690+Z
229399001229399084-070001     229399006001023630018NAIL FILE 12cm         0000001000+00001490+00000+0001T   00001490+0000001536          1400 NY8200               2AZ
229400000229400               229400               170213DJ     1400+00000+DJ0000002629+0000002629+000000000+000000369+0000002990+0000000008+I20000000000+0000002990+Z
229400001229400903-000087     229400006001704000161SWT SPECKLED-EGGS 50G  0000001000+00001139+00000+0001T   00001139+0000001536          1400 NY8150               2AZ
229400002229400084-070001     229400006001023630018NAIL FILE 12cm         0000001000+00001490+00000+0001T   00001490+0000001536          1400 NY8200               2AZ
229401000229401               229401               170213DJ     1400+00000+DJ0000002192+0000002192+000000000+000000307+0000002490+0000000009+I20000000000+0000002490+Z
229401001229401077-000309-A   229401006003000671007GIFT-BAG HOLOGRAM JMB  0000001000+00002192+00000+0001T   00002192+0000001538          1400 NY8112               2AZ
229402000229402               229402               170213DJ     1400+00000+DJ0000013183+0000013183+000000000+000001850+0000015030+0000000003+I20000000000+0000015030+Z
229402001229402200-003021     229402006003000276370REFUSE BAGS 30xSCENTED 0000001000+00002630+00000+0001T   00002630+0000001541          1400 NY8214               2AZ
229402002229402200-003026     229402006003000276448REFUSE BAGS 10PCE GREEN0000006000+00001753+00000+0001T   00001753+0000001541          1400 NY8214               2AZ
229402003229402112-116038     229402006009681820246TCS CARRIER BAG MIDI   0000001000+00000035+00000+0001T   00000035+0000001541          1400 NY8090               2AZ
229403000229403               229403               170213DJ     1400+00000+DJ0000002102+0000002102+000000000+000000296+0000002398+0000000000+I40000002398+0000000000+Z
229403001229403039-000026     229403006001023551610C/TAPERED 25CM M/RED   0000002000+00001051+00000+0001T   00001051+0000001542          1400 NY8510               2AZ
229404000229404               229404               170213DJ     1400+00000+DJ0000003541+0000003541+000000000+000000497+0000004030+0000000008+I20000000000+0000004030+Z
229404001229404903-000503     229404006001704006118SWT VAMPIRE FANGS 60G  0000001000+00000876+00000+0001T   00000876+0000001543          1400 NY8150               2AZ
229404002229404567-011308     229404006003000598472BOOK COLOURING COPY    0000001000+00002630+00000+0001T   00002630+0000001543          1400 NY8757               2AZ
229404003229404112-116038     229404006009681820246TCS CARRIER BAG MIDI   0000001000+00000035+00000+0001T   00000035+0000001543          1400 NY8090               2AZ
229405000229405               229405               170213DJ     1400+00000+DJ0000010032+0000010032+000000000+000001405+0000011430+0000000007+I20000000000+0000011430+Z
229405001229405261-000121     229405006001023341600GUN-CAPS 8-SHOT CARD-9 0000004000+00000700+00000+0001T   00000700+0000001550          1400 NY8710               2AZ
229405002229405261-008349     229405006001023787590CAP-GUN 8-SHOT         0000001000+00002192+00000+0001T   00002192+0000001550          1400 NY8710               2AZ
229405003229405261-000121     229405006001023341600GUN-CAPS 8-SHOT CARD-9 0000004000+00000700+00000+0001T   00000700+0000001550          1400 NY8710               2AZ
229405004229405261-008349     229405006001023787590CAP-GUN 8-SHOT         0000001000+00002192+00000+0001T   00002192+0000001550          1400 NY8710               2AZ
229405005229405112-116069     229405006009681820277TCS CARRIER BAG JUMBO  0000001000+00000048+00000+0001T   00000048+0000001550          1400 NY8090               2AZ
229406000229406               229406               170213DJ     1400+00000+DJ0000009152+0000009152+000000000+000001282+0000010434+0000000000+I40000010434+0000000000+Z
229406001229406077-000311     229406006001023608666GIFT-BAG 11X14CM GLOSS 0000002000+00000613+00000+0001T   00000613+0000001552          1400 NY8112               2AZ
229406002229406301-000835     229406006003000035014ORN FAIRY SITTING 4ASST0000001000+00003507+00000+0001T   00003507+0000001552          1400 NY8505               2AZ
229406003229406003-002259     229406006001023860330ORN CERAMIC HEDGEHOG   0000002000+00002192+00000+0001T   00002192+0000001552          1400 NY8505               2AZ
229406004229406112-116038     229406006009681820246TCS CARRIER BAG MIDI   0000001000+00000035+00000+0001T   00000035+0000001552          1400 NY8090               2AZ
229407000229407               229407               170213DJ     1400+00000+DJ0000004207+0000004207+000000000+000000589+0000004790+0000000006+I20000000000+0000004790+Z
229407001229407018-000130     229407006001023867537MUG OCC LOVE MINI+HEART0000001000+00003507+00000+0001T   00003507+0000001553          1400 NY8515               2AZ
229407002229407018-000177     229407006001023797513MUG MINI LOVE ASSTD    0000001000+00000700+00000+0001T   00000700+0000001553          1400 NY8515               2AZ
229408000229408               229408               170213DJ     1400+00000+DJ0000007016+0000007016+000000000+000000983+0000007990+0000000009+I20000000000+0000007990+Z
229408001229408024-000123     229408006001023902368N/STICK 6 L/PAN MINI   0000001000+00007016+00000+0001T   00008771+0008121555          1400 NY8300               2AZ
229409000229409               229409               170213DJ     1400+00000+DJ0000003507+0000003507+000000000+000000491+0000003990+0000000008+I20000000000+0000003990+Z
229409001229409567-011344     229409006003000630714BK COLOURING THERAPY 640000001000+00003507+00000+0001T   00003507+0000001556          1400 NY8757               2AZ
229410000229410               229410               170213DJ     1400+00000+DJ0000008550+0000008550+000000000+000001200+0000009750+0000000000+I20000000000+0000009750+Z
229410001229410055-009258     229410006001023426215P/HOOK+PIN 2PNx7PCE H&H0000001000+00001490+00000+0001T   00001490+0000001557          1400 NY8810               2AZ
229410002229410200-003024     229410006001023657299REFUSE BAGS 20PCE BLACK0000002000+00001753+00000+0001T   00001753+0000001557          1400 NY8214               2AZ
229410003229410200-003026     229410006003000276448REFUSE BAGS 10PCE GREEN0000002000+00001753+00000+0001T   00001753+0000001557          1400 NY8214               2AZ
229410004229410112-116069     229410006009681820277TCS CARRIER BAG JUMBO  0000001000+00000048+00000+0001T   00000048+0000001557          1400 NY8090               2AZ
229411000229411               229411               170213DJ     1400+00000+DJ0000006838+0000006838+000000000+000000958+0000007796+0000000000+I40000007796+0000000000+Z
229411001229411018-000136     229411006001023659026MUG OCC LOVE W/PLUSH   0000001000+00003507+00000+0001T   00003507+0000001558          1400 NY8515               2AZ
229411002229411080-000113     229411006003000237449CARD&ENVLPE - LOVE     0000001000+00001753+00000+0001T   00001753+0000001558          1400 NY8112               2AZ
229411003229411077-000303     229411006001023593757GIFT-BAG PAPER MED     0000001000+00001578+00000+0001T   00001578+0000001558          1400 NY8112               2AZ
229412000229412               229412               170213DJ     1400+00000+DJ0000003067+0000003067+000000000+000000430+0000003490+0000000007+I20000000000+0000003490+Z
229412001229412006-000166-H   229412006003000608096BALLOONS HELIUM 6PC WHT0000001000+00001314+00000+0001T   00001314+0000001559          1400 NY8131               2AZ
229412002229412006-000120     229412006001023346889BALLOONS 10PC MIX COL  0000001000+00001753+00000+0001T   00001753+0000001559          1400 NY8131               2AZ
229413000229413               229413               170213DJ     1400+00000+DJ0000005996+0000005996+000000000+000000840+0000006836+0000000000+I40000006836+0000000000+Z
229413001229413368-000049     229413006003000536955PLUSH BEAR 15cm LOVE   0000001000+00004385+00000+0001T   00004385+0000001600          1400 NY8745               2AZ
229413002229413018-000177     229413006001023797513MUG MINI LOVE ASSTD    0000001000+00000700+00000+0001T   00000700+0000001600          1400 NY8515               2AZ
229413003229413077-000314     229413006003000181148GIFT-BAG 11X14CM MATT  0000001000+00000876+00000+0001T   00000876+0000001600          1400 NY8112               2AZ
229413004229413112-116038     229413006009681820246TCS CARRIER BAG MIDI   0000001000+00000035+00000+0001T   00000035+0000001600          1400 NY8090               2AZ
229414000229414               229414               170213DJ     1400+00000+DJ0000002630+0000002630+000000000+000000369+0000002990+0000000009+I20000000000+0000002990+Z
229414001229414006-000111     229414006003000519385BALLOONS LARGE 12PCE   0000001000+00002630+00000+0001T   00002630+0000001601          1400 NY8131               2AZ
229415000229415               229415               170213DJ     1400+00000+DJ0000002227+0000002227+000000000+000000312+0000002530+0000000009+I20000000000+0000002530+Z
229415001229415018-000170     229415006001023775528MUG OCC. LOVE 2PC MINI 0000001000+00002192+00000+0001T   00002192+0000001609          1400 NY8515               2AZ
229415002229415112-116038     229415006009681820246TCS CARRIER BAG MIDI   0000001000+00000035+00000+0001T   00000035+0000001609          1400 NY8090               2AZ
229416000229416               229416               170213DJ     1400+00000+DJ0000004208+0000004208+000000000+000000590+0000004790+0000000008+I20000000000+0000004790+Z
229416001229416903-000090     229416006009826020821SWT GS CHOCO COINS 60g 0000002000+00002104+00000+0001T   00002104+0000001611          1400 NY8150               2AZ
229417000229417               229417               170213DJ     1400+00000+DJ0000004858+0000004858+000000000+000000681+0000005530+0000000009+I20000000000+0000005530+Z
229417001229417301-085001     229417006003000297610ORN WATERBALL LOVE ASST0000001000+00004823+00000+0001T   00004823+0000001616          1400 NY8505               2AZ
229417002229417112-116038     229417006009681820246TCS CARRIER BAG MIDI   0000001000+00000035+00000+0001T   00000035+0000001616          1400 NY8090               2AZ
229418000229418               229418               170213DJ     1400+00000+DJ0000002657+0000002657+000000000+000000377+0000003030+0000000004+I20000000000+0000003030+Z
229418001229418080-000133-A   229418006003000647019MINI VALENTINES CARD   0000006000+00000437+00000+0001T   00000437+0000001617          1400 NY8112               2AZ
229418002229418112-116038     229418006009681820246TCS CARRIER BAG MIDI   0000001000+00000035+00000+0001T   00000035+0000001617          1400 NY8090               2AZ
229419000229419               229419               170213DJ     1400+00000+DJ0000000035+0000000035+000000000+000000005+0000000040+0000000000+I20000000000+0000000040+Z
229419001229419112-116038     229419006009681820246TCS CARRIER BAG MIDI   0000001000+00000035+00000+0001T   00000035+0000001629          1400 NY8090               2AZ
229420000229420               229420               170213DJ     1400+00000+DJ0000006174+0000006174+000000000+000000865+0000007030+0000000009+I20000000000+0000007030+Z
229420001229420039-000798     229420006001023617774CANDLES TEALITE BOX-50 0000001000+00006139+00000+0001T   00006139+0000001642          1400 NY8510               2AZ
229420002229420112-116038     229420006009681820246TCS CARRIER BAG MIDI   0000001000+00000035+00000+0001T   00000035+0000001642          1400 NY8090               2AZ
229421000229421               229421               170213DJ     1400+00000+DJ0000000437+0000000437+000000000+000000062+0000000490+0000000009+I20000000000+0000000490+Z
229421001229421080-000133-A   229421006003000647019MINI VALENTINES CARD   0000001000+00000437+00000+0001T   00000437+0000001642          1400 NY8112               2AZ
229422000229422               229422               170213DJ     1400+00000+DJ0000002630+0000002630+000000000+000000369+0000002990+0000000009+I20000000000+0000002990+Z
229422001229422301-000830     229422006003000462216ORN STANDING ANGEL 13CM0000001000+00002630+00000+0001T   00002630+0000001643          1400 NY8505               2AZ
229423000229423               229423               170213DJ     1400+00000+DJ0000001578+0000001578+000000000+000000221+0000001790+0000000009+I20000000000+0000001790+Z
229423001229423077-000303     229423006001023593757GIFT-BAG PAPER MED     0000001000+00001578+00000+0001T   00001578+0000001644          1400 NY8112               2AZ
229424000229424               229424               170213DJ     1400+00000+DJ0000001578+0000001578+000000000+000000221+0000001790+0000000009+I20000000000+0000001790+Z
229424001229424018-000127     229424006001023380289MUG OCC STRAIGHT LOVE  0000001000+00001578+00000+0001T   00001753+0006471644          1400 NY8515               2AZ
229425000229425               229425               170213DJ     1400+00000+DJ0000003854+0000003854+000000000+000000541+0000004390+0000000005+I20000000000+0000004390+Z
229425001229425903-000137     229425006002099004130SWEET GS JELLY BEAN 60G0000001000+00000788+00000+0001T   00000788+0000001649          1400 NY8150               2AZ
229425002229425903-000121     229425006002099001689SWT GS ZILLIONS SOURS  0000001000+00000700+00000+0001T   00000700+0000001649          1400 NY8150               2AZ
229425003229425903-000087     229425006001704000161SWT SPECKLED-EGGS 50G  0000001000+00001139+00000+0001T   00001139+0000001649          1400 NY8150               2AZ
229425004229425903-004951     229425006002580020328SWT MALLOW MINI M/SHAKE0000001000+00001227+00000+0001T   00001227+0000001649          1400 NY8150               2AZ
229426000229426               229426               170213DJ     1400+00000+DJ0000013642+0000013642+000000000+000001911+0000015553+0000000000+I40000015553+0000000000+Z
229426001229426024-091102     229426006003453000010BAKING-CUP PAPER 50PC  0000001000+00002192+00000+0001T   00002192+0000001652          1400 NY8300               2AZ
229426002229426024-000122     229426006003000240746NON-STICK CUP CAKE PAN 0000001000+00011402+00000+0001T   00011402+0000001652          1400 NY8300               2AZ
229426003229426112-116069     229426006009681820277TCS CARRIER BAG JUMBO  0000001000+00000048+00000+0001T   00000048+0000001652          1400 NY8090               2AZ
229427000229427               229427               170213DJ     1400+00000+DJ0000011432+0000011432+000000000+000001602+0000013030+0000000004+I20000000000+0000013030+Z
229427001229427071-005214     229427006003000152544CELLOTAPE SUPER REFILL 0000001000+00001490+00000+0001T   00001490+0000001655          1400 NY8130               2AZ
229427002229427082-098782     229427006001492987828SUNGLASS KIDS GIRLS CAT0000001000+00003507+00000+0001T   00003507+0000001655          1400 NY8160               2AZ
229427003229427082-098784     229427006001492987842SUNGLASS KIDS GIRLS    0000001000+00003946+00000+0001T   00003946+0000001655          1400 NY8160               2AZ
229427004229427077-000322     229427006001023677532GIFT-BAG 18X23CM E/D FL0000002000+00001227+00000+0001T   00001227+0000001655          1400 NY8112               2AZ
229427005229427112-116038     229427006009681820246TCS CARRIER BAG MIDI   0000001000+00000035+00000+0001T   00000035+0000001655          1400 NY8090               2AZ
229428000229428               229428               170213DJ     1400+00000+DJ0000002630+0000002630+000000000+000000369+0000002990+0000000009+I20000000000+0000002990+Z
229428001229428006-000111     229428006003000519385BALLOONS LARGE 12PCE   0000001000+00002630+00000+0001T   00002630+0000001659          1400 NY8131               2AZ
229429000229429               229429               170213DJ     1400+00000+DJ0000010557+0000010557+000000000+000001479+0000012036+0000000000+I40000012036+0000000000+Z
229429001229429018-000129     229429006001023403353MUG OCC. LOVE V-SHAPE  0000001000+00002630+00000+0001T   00002630+0000001704          1400 NY8515               2AZ
229429002229429018-000130     229429006001023867537MUG OCC LOVE MINI+HEART0000001000+00003507+00000+0001T   00003507+0000001704          1400 NY8515               2AZ
229429003229429082-007586     229429006003000654291SUNGLASS DESIGNER ASST 0000001000+00004385+00000+0001T   00004385+0000001704          1400 NY8160               2AZ
229429004229429112-116038     229429006009681820246TCS CARRIER BAG MIDI   0000001000+00000035+00000+0001T   00000035+0000001704          1400 NY8090               2AZ
229430000229430               229430               170213DJ     1400+00000+DJ0000009340+0000009340+000000000+000001309+0000010640+0000000009+I20000000000+0000010640+Z
229430001229430018-000177     229430006001023797513MUG MINI LOVE ASSTD    0000002000+00000700+00000+0001T   00000700+0000001705          1400 NY8515               2AZ
229430002229430077-000358     229430006003000329977GIFT-BAG KIDS 25X32CM  0000001000+00001753+00000+0001T   00001753+0000001705          1400 NY8112               2AZ
229430003229430261-003899     229430006003000398836GUN CROSSBOW SET 11PCE 0000001000+00006139+00000+0001T   00006139+0000001705          1400 NY8710               2AZ
229430004229430112-116069     229430006009681820277TCS CARRIER BAG JUMBO  0000001000+00000048+00000+0001T   00000048+0000001705          1400 NY8090               2AZ
229431000229431               229431               170213DJ     1400+00000+DJ0000027231+0000027231+000000000+000003813+0000031040+0000000004+I20000000000+0000031040+Z
229431001229431267-000182     229431006003000390274PUZZLE 24pc ASSTD      0000003000+00004385+00000+0001T   00004385+0000001707          1400 NY8755               2AZ
229431002229431464-001701     229431006001023332691DOMINOES IVORY DBL-SIX 0000004000+00003507+00000+0001T   00003507+0000001707          1400 NY8785               2AZ
229431003229431112-116069     229431006009681820277TCS CARRIER BAG JUMBO  0000001000+00000048+00000+0001T   00000048+0000001707          1400 NY8090               2AZ
229432000229432               229432               170213DJ     1400+00000+DJ0000002629+0000002629+000000000+000000369+0000002990+0000000008+I20000000000+0000002990+Z
229432001229432089-000099     229432006003000677566KEY CHAIN MTL SPORT AST0000001000+00000876+00000+0001T   00000876+0000001708          1400 NY8205               2AZ
229432002229432089-000004     229432006003000137749KEY CHAIN MTL CHARMS   0000001000+00001753+00000+0001T   00001753+0000001708          1400 NY8205               2AZ
229433000229433               229433               170213DJ     1400+00000+DJ0000002630+0000002630+000000000+000000369+0000002990+0000000009+I20000000000+0000002990+Z
229433001229433306-007303     229433006003000532476MASSAGER (FOR HEAD)    0000001000+00002630+00000+0001T   00002630+0000001708          1400 NY8200               2AZ
229434000229434               229434               170213DJ     1400+00000+DJ0000002629+0000002629+000000000+000000369+0000002998+0000000000+I40000002998+0000000000+Z
229434001229434047-000505     229434006009636901976PLUG-ADAPTOR 2-PIN     0000001000+00000876+00000+0001T   00000876+0000001709          1400 NY8880               2AZ
229434002229434051-002407     229434006003000452491SPRAYER TRIGGER 550ml  0000001000+00001753+00000+0001T   00001753+0000001709          1400 NY8820               2AZ
229435000229435               229435               170213DJ     1400+00000+DJ0000004900+0000004900+000000000+000000686+0000005580+0000000006+I20000000000+0000005580+Z
229435001229435018-000177     229435006001023797513MUG MINI LOVE ASSTD    0000007000+00000700+00000+0001T   00000700+0000001710          1400 NY8515               2AZ
229436000229436               229436               170213DJ     1400+00000+DJ0000004168+0000004168+000000000+000000584+0000004750+0000000002+I20000000000+0000004750+Z
229436001229436080-000127     229436006003000424351VALENTINES DAY 36x24CM 0000001000+00002192+00000+0001T   00002192+0000001711          1400 NY8112               2AZ
229436002229436106-001115     229436006009654960313WATER-BOTTLE PL 750ml  0000001000+00001928+00000+0001T   00001928+0000001711          1400 NY8210               2AZ
229436003229436112-116069     229436006009681820277TCS CARRIER BAG JUMBO  0000001000+00000048+00000+0001T   00000048+0000001711          1400 NY8090               2AZ
229437000229437               229437               170213DJ     1400+00000+DJ0000001578+0000001578+000000000+000000221+0000001790+0000000009+I20000000000+0000001790+Z
229437001229437077-000303     229437006001023593757GIFT-BAG PAPER MED     0000001000+00001578+00000+0001T   00001578+0000001716          1400 NY8112               2AZ
229438000229438               229438               170213DJ     1400+00000+DJ0000006272+0000006272+000000000+000000879+0000007150+0000000001+I20000000000+0000007150+Z
229438001229438031-000864-B   229438006001023798381P/FRAME MAHOGANY 13X18 0000001000+00003507+00000+0001T   00003507+0000001718          1400 NY8510               2AZ
229438002229438077-000315     229438006003000181186GIFT-BAG 20x28cm MATT  0000001000+00001578+00000+0001T   00001578+0000001718          1400 NY8112               2AZ
229438003229438903-000087     229438006001704000161SWT SPECKLED-EGGS 50G  0000001000+00001139+00000+0001T   00001139+0000001718          1400 NY8150               2AZ
229438004229438112-116069     229438006009681820277TCS CARRIER BAG JUMBO  0000001000+00000048+00000+0001T   00000048+0000001718          1400 NY8090               2AZ
229439000229439               229439               170213DJ     1400+00000+DJ0000004732+0000004732+000000000+000000665+0000005397+0000000000+I40000005397+0000000000+Z
229439001229439007-000601     229439006003000541195BOOK COVER ADHESIVE 2M 0000001000+00002630+00000+0001T   00002630+0000001720          1400 NY8130               2AZ
229439002229439079-009702-A   229439008427973059408PAPER SIRIO A2 BLACK   0000002000+00001051+00000+0001T   00001051+0000001720          1400 NY8130               2AZ
229440000229440               229440               170213DJ     1400+00000+DJ0000002663+0000002663+000000000+000000373+0000003030+0000000006+I20000000000+0000003030+Z
229440001229440006-000166-C   229440006003000516377BALLOONS LRG 6PC PINK  0000002000+00001314+00000+0001T   00001314+0000001723          1400 NY8131               2AZ
229440002229440112-116038     229440006009681820246TCS CARRIER BAG MIDI   0000001000+00000035+00000+0001T   00000035+0000001723          1400 NY8090               2AZ
229441000229441               229441               170213DJ     1400+00000+DJ0000002630+0000002630+000000000+000000369+0000002990+0000000009+I20000000000+0000002990+Z
229441001229441033-000008     229441006003000226818PILL REMINDER 28-COMPAR0000001000+00002630+00000+0001T   00002630+0000001724          1400 NY8200               2AZ
229442000229442               229442               170213DJ     1400+00000+DJ0000001314+0000001314+000000000+000000184+0000001490+0000000008+I20000000000+0000001490+Z
229442001229442006-000167-C   229442006003000516971BALLOONS PINK METALLIC 0000001000+00001314+00000+0001T   00001314+0000001724          1400 NY8131               2AZ
229443000229443               229443               170213DJ     1400+00000+DJ0000003554+0000003554+000000000+000000499+0000004050+0000000003+I20000000000+0000004050+Z
229443001229443083-000295     229443006001023898562LIGHTER-GAS BUTANE 18ml0000001000+00000876+00000+0001T   00000876+0000001725          1400 NY8315               2AZ
229443002229443028-000899     229443006001023509932BBQ-GRILL-CLEANER LONG 0000001000+00002630+00000+0001T   00002630+0000001725          1400 NY8305               2AZ
229443003229443112-116069     229443006009681820277TCS CARRIER BAG JUMBO  0000001000+00000048+00000+0001T   00000048+0000001725          1400 NY8090               2AZ
229444000229444               229444               170213DJ     1400+00000+DJ0000002192+0000002192+000000000+000000307+0000002490+0000000009+I20000000000+0000002490+Z
229444001229444024-091103     229444006003453014307BAKING-CUP MUFFIN 50PCE0000001000+00002192+00000+0001T   00002192+0000001726          1400 NY8300               2AZ
229445000229445               229445               170213DJ     1400+00000+DJ0000000613+0000000613+000000000+000000086+0000000690+0000000009+I20000000000+0000000690+Z
229445001229445304-001011     229445006001023806727FLWR ROSE RED W/BEAR   0000001000+00000613+00000+0001T   00000788+0006471726          1400 NY8510               2AZ
229446000229446               229446               170213DJ     1400+00000+DJ0000004385+0000004385+000000000+000000614+0000004990+0000000009+I20000000000+0000004990+Z
229446001229446031-005921     229446006001023667847P/FRAME PL PLAIN       0000001000+00004385+00000+0001T   00004385+0000001727          1400 NY8510               2AZ
229447000229447               229447               170213DJ     1400+00000+DJ0000002892+0000002892+000000000+000000406+0000003290+0000000008+I20000000000+0000003290+Z
229447001229447077-000299-A   229447006003000670888GIFT-BAG PAPER JMB LOVE0000001000+00001753+00000+0001T   00001753+0000001728          1400 NY8112               2AZ
229447002229447089-000150     229447006003000674268K/CHAIN PLUSH EMOTICON 0000001000+00001139+00000+0001T   00001139+0000001728          1400 NY8205               2AZ
229448000229448               229448               170213DJ     1400+00000+DJ0000001402+0000001402+000000000+000000197+0000001590+0000000009+I20000000000+0000001590+Z
229448001229448903-000925     229448006009706300296SWT NOVELTY SURPRISE   0000001000+00001402+00000+0001T   00001402+0000001729          1400 NY8150               2AZ
229449000229449               229449               170213DJ     1400+00000+DJ0000003507+0000003507+000000000+000000491+0000003990+0000000008+I20000000000+0000003990+Z
229449001229449077-000934     229449006003000409921G/WRAP 700mmx5m BIRTHDA0000001000+00003507+00000+0001T   00003507+0000001732          1400 NY8112               2AZ
229450000229450               229450               170213DJ     1400+00000+DJ0000003857+0000003857+000000000+000000540+0000004390+0000000007+I20000000000+0000004390+Z
229450001229450466-006156     229450006003000537204GOLF-SET PUTTER W/BALL 0000001000+00003507+00000+0001T   00003507+0000001733          1400 NY8785               2AZ
229450002229450903-000159     229450006003000417629SWT LB SMALL DUMMIE    0000001000+00000350+00000+0001T   00000350+0000001733          1400 NY8150               2AZ
229451000229451               229451               170213DJ     1400+00000+DJ0000006139+0000006139+000000000+000000860+0000006999+0000000000+I40000006999+0000000000+Z
229451001229451174-000014     229451006003000653324LAUNDRY BAG W/DRAWSTRIN0000001000+00006139+00000+0001T   00006139+0000001734          1400 NY8205               2AZ
229452000229452               229452               170213DJ     1400+00000+DJ0000001578+0000001578+000000000+000000221+0000001790+0000000009+I20000000000+0000001790+Z
229452001229452077-000303     229452006001023593757GIFT-BAG PAPER MED     0000001000+00001578+00000+0001T   00001578+0000001735          1400 NY8112               2AZ
229453000229453               229453               170213DJ     1400+00000+DJ0000002102+0000002102+000000000+000000296+0000002390+0000000008+I20000000000+0000002390+Z
229453001229453039-000026     229453006001023551610C/TAPERED 25CM M/RED   0000002000+00001051+00000+0001T   00001051+0000001742          1400 NY8510               2AZ
229454000229454               229454               170213DJ     1400+00000+DJ0000002630+0000002630+000000000+000000369+0000002990+0000000009+I20000000000+0000002990+Z
229454001229454565-000040     229454006008766115635NOVELTY ICON BEANIE    0000001000+00002630+00000+0001T   00002630+0000001745          1400 NY8745               2AZ
229455000229455               229455               170213DJ     1400+00000+DJ0000005308+0000005308+000000000+000000744+0000006050+0000000002+I20000000000+0000006050+Z
229455001229455077-000289     229455006001023901996GIFT BOX 20x25x11cm    0000001000+00001753+00000+0001T   00001753+0000001746          1400 NY8112               2AZ
229455002229455301-085004     229455006003000420469ORN LOVE PLAQUE 21X10CM0000001000+00003507+00000+0001T   00003946+0006471746          1400 NY8505               2AZ
229455003229455112-116069     229455006009681820277TCS CARRIER BAG JUMBO  0000001000+00000048+00000+0001T   00000048+0000001746          1400 NY8090               2AZ
229456000229456               229456               170213DJ     1400+00000+DJ0000004433+0000004433+000000000+000000621+0000005050+0000000004+I20000000000+0000005050+Z
229456001229456024-000118     229456006001023422316N/STICK C/PAN HEART    0000001000+00004385+00000+0001T   00004385+0000001747          1400 NY8300               2AZ
229456002229456112-116069     229456006009681820277TCS CARRIER BAG JUMBO  0000001000+00000048+00000+0001T   00000048+0000001747          1400 NY8090               2AZ
229457000229457               229457               170213DJ     1400+00000+DJ0000005747+0000005747+000000000+000000806+0000006553+0000000000+I40000006553+0000000000+Z
229457001229457072-020311     229457006003000494132PET DOG TOY VINYL BALL 0000001000+00003069+00000+0001T   00003069+0000001752          1400 NY8870               2AZ
229457002229457027-009025     229457006003962000747DUSTPAN-SET PL         0000001000+00002630+00000+0001T   00002630+0000001752          1400 NY8212               2AZ
229457003229457112-116069     229457006009681820277TCS CARRIER BAG JUMBO  0000001000+00000048+00000+0001T   00000048+0000001752          1400 NY8090               2AZ
229458000229458               229458               170213DJ     1400+00000+DJ0000006884+0000006884+000000000+000000966+0000007850+0000000000+I40000007850+0000000000+Z
229458001229458034-000336     229458006005387186105BABY FEEDING PLATE     0000001000+00000700+00000+0001T   00000876+0008151753          1400 NY8215               2AZ
229458002229458079-000282     229458006001023493309PAINT TUBS POSTER 12COL0000001000+00002630+00000+0001T   00002630+0000001753          1400 NY8130               2AZ
229458003229458566-000535     229458006003000284719STICKER SPARKLE EMBOSS 0000001000+00001753+00000+0001T   00001753+0000001753          1400 NY8130               2AZ
229458004229458080-000113     229458006003000237449CARD&ENVLPE - LOVE     0000001000+00001753+00000+0001T   00001753+0000001753          1400 NY8112               2AZ
229458005229458112-116069     229458006009681820277TCS CARRIER BAG JUMBO  0000001000+00000048+00000+0001T   00000048+0000001753          1400 NY8090               2AZ
229459000229459               229459               170213DJ     1400+00000+DJ0000001578+0000001578+000000000+000000221+0000001790+0000000009+I20000000000+0000001790+Z
229459001229459077-000303     229459006001023593757GIFT-BAG PAPER MED     0000001000+00001578+00000+0001T   00001578+0000001754          1400 NY8112               2AZ
229460000229460               229460               170213DJ     1400+00000+DJ0000000613+0000000613+000000000+000000086+0000000699+0000000000+I40000000699+0000000000+Z
229460001229460304-001011     229460006001023806727FLWR ROSE RED W/BEAR   0000001000+00000613+00000+0001T   00000788+0006471756          1400 NY8510               2AZ
229461000229461               229461               170213DJ     1400+00000+DJ0000005085+0000005085+000000000+000000712+0000005790+0000000007+I20000000000+0000005790+Z
229461001229461077-000303     229461006001023593757GIFT-BAG PAPER MED     0000001000+00001578+00000+0001T   00001578+0000001756          1400 NY8112               2AZ
229461002229461018-005009     229461006001023725608MUG W/PLUSH-BEAR LOVE  0000001000+00003507+00000+0001T   00003507+0000001756          1400 NY8515               2AZ
229462000229462               229462               170213DJ     1400+00000+DJ0000008771+0000008771+000000000+000001228+0000009990+0000000009+I20000000000+0000009990+Z
229462001229462019-000047-A   229462006001023749048VASE GLASS 30CM CLEAR  0000001000+00008771+00000+0001T   00008771+0000001756          1400 NY8510               2AZ
229463000229463               229463               170213DJ     1400+00000+DJ0000002102+0000002102+000000000+000000296+0000002390+0000000008+I20000000000+0000002390+Z
229463001229463039-000026     229463006001023551610C/TAPERED 25CM M/RED   0000002000+00001051+00000+0001T   00001051+0000001757          1400 NY8510               2AZ
229464000229464               229464               170213DJ     1400+00000+DJ0000001753+0000001753+000000000+000000246+0000001999+0000000000+I40000001999+0000000000+Z
229464001229464077-000299-A   229464006003000670888GIFT-BAG PAPER JMB LOVE0000001000+00001753+00000+0001T   00001753+0000001800          1400 NY8112               2AZ
229465000229465               229465               170213DJ     1400+00000+DJ0000001753+0000001753+000000000+000000246+0000001990+0000000009+I20000000000+0000001990+Z
229465001229465077-000357     229465006003000139354GIFT-BAG 18X23CM B/DAY 0000001000+00001753+00000+0001T   00001753+0000001804          1400 NY8112               2AZ
229466000229466               229466               170213DJ     1400+00000+DJ0000001227+0000001227+000000000+000000172+0000001390+0000000009+I20000000000+0000001390+Z
229466001229466903-000518     229466006001704012782SWT STRAWS S/BERRY 100g0000001000+00001227+00000+0001T   00001227+0000001806          1400 NY8150               2AZ
229467000229467               229467               170213DJ     1400+00000+DJ0000004385+0000004385+000000000+000000614+0000004990+0000000009+I20000000000+0000004990+Z
229467001229467030-000031-A   229467006003000457588PLAQUE W/WORDS ASSTD   0000001000+00004385+00000+0001T   00004823+0006471813          1400 NY8505               2AZ
A17021300                                          08262938DJSLAVE 2                       1IC1IC
A17021301                                          08532853DJSLAVE 2                       NY81IC
A17021302                                          13311764DJSLAVE 2                       NY81IC
M17021301                              GLADWIN     DJLAST TILL SLIP NR.SL TWO 2249467                THANKS                                          DJ
M17021302                              FC2         DJFC2 OF TODAY 167                                THANKS                                          DJ
M17021303                              SHIEHAAM    DJCASH SL TWO R5717.80                            C-CARDS R3556.34                                PAY OUT(R155.88 STATIONARY PHOTOCOPIES          NO ABORTED SALES                                NO AIRTIME3                                     NO DELETED LINES                                Z-READING R9430.04 AND NR.629                   THANKS                                          DJ
M17021391                              CASH        DJSLAVE 2                       Z-REPORT No.   629TOTAL (Sales - Refunds)           9430.04       CASH TO BE BANKED                 5717.80       DEBIT CARDS                          0.00       CREDIT CARDS                      3556.34       Z-READING                         9274.14       AIRTIME DEBIT CARD SALES             0.00       AIRTIME CARD SALES                   0.00       OVERS/UNDERS                         0.00       AIRTIME CASH SALES                   0.00       GIFT CARDS                           0.00       GIFT CARD CASH SALES                 0.00       STATIONERY(PHOTOCOPIES)            155.88       ROUNDING                             0.02       T O T A L  CASH PAYOUTS            155.90                                                                                                                                                                                                                                                      Z
M17021392                              CASH        DJABSENT                                                                                                                                                                                          ANNUAL LEAVE                                                                                                                                                                                    DAY OFF                                                                                                                                                                                         COMMENTS                                                                                                                                                                                                                                                                                                                                                                                       Z
Y17021300                                          DJ00016700839293+000167
ZDJ17021319283 SLAVE 2      SALES DATA                     NEXT INVOICE NO.  229468 0630
X DJ Slave 2 First invoice 229298 170213 Last invoice 229467 170213 Next invoice 229468 Total number of records 000000526 clbackup completed 19:28:57
