240391000240391               240391               170213DJ     1400+00000+DJ0000021441+0000021441+000000000+000003004+0000024445+           I90000000000+0000000000+Z
240391001240391016-006509     240391006003000567355S/JAR GLS MINI LABEL   0000002000+00001753+00000+0001T023457160000                    1400 1IC3001ICV             Z
240391002240391019-000047-A   240391006001023749048VASE GLASS 30CM CLEAR  0000002000+00008771+00000+0001T023457160000                    1400 1IC5101ICV             Z
240391003240391001-000001     240391006001023507266SHOT-GLASS 25ml        0000001000+00000393+00000+0001T023457160000                    1400 1IC5151ICV             Z
M17021391                              CASH        DJSLAVE 4                       Z-REPORT No.    57TOTAL (Sales - Refunds)              0.00       CASH TO BE BANKED                    0.00       DEBIT CARDS                          0.00       CREDIT CARDS                         0.00       Z-READING                            0.00       AIRTIME DEBIT CARD SALES             0.00       AIRTIME CARD SALES                   0.00       OVERS/UNDERS                         0.00       AIRTIME CASH SALES                   0.00       GIFT CARDS                           0.00       GIFT CARD CASH SALES                 0.00       T O T A L  CASH PAYOUTS              0.00                                                                                                                                                                                                                                                                                                                                                      Z
M17021392                              CASH        DJABSENT                                                                                                                                                                                          ANNUAL LEAVE                                                                                                                                                                                    DAY OFF                                                                                                                                                                                         COMMENTS                                                                                                                                                                                                                                                                                                                                                                                       Z
Y17021300                                          DJ00000000000000+000000
ZDJ17021408233 SLAVE 4      SALES DATA                     NEXT INVOICE NO.  240392 0058
L53760400345716-001-009       DJ1702061217222ICBERTRUM RUDOLPH                                                                                                                                                                                                                                                                                                                                                                                                                                                                                                                                                                                                                                                                                                                                                                                                                                                                                                                                                                                      Z
L53760400345716-002-009       DJ1702061217312ICBERTRUM RUDOLPH                                                                                                                                                                                                                                                                                                                                                                                                                                                                                                                                                                                                                                                                                                                                                                                                                                                                                                                                                                                      Z
L53760400345716-003-009       DJ1702061217402ICBERTRUM RUDOLPH                                                                                                                                                                                                                                                                                                                                                                                                                                                                                                                                                                                                                                                                                                                                                                                                                                                                                                                                                                                      Z
L53760400345716-004-009       DJ1702061217562ICBERTRUM RUDOLPH                                                                                                                                                                                                                                                                                                                                                                                                                                                                                                                                                                                                                                                                                                                                                                                                                                                                                                                                                                                      Z
L53760400345716-005-009       DJ1702061218042ICBERTRUM RUDOLPH                                                                                                                                                                                                                                                                                                                                                                                                                                                                                                                                                                                                                                                                                                                                                                                                                                                                                                                                                                                      Z
L53760400345716-006-009       DJ1702061218122ICBERTRUM RUDOLPH                                                                                                                                                                                                                                                                                                                                                                                                                                                                                                                                                                                                                                                                                                                                                                                                                                                                                                                                                                                      Z
L53760400345716-007-009       DJ1702061218202ICBERTRUM RUDOLPH                                                                                                                                                                                                                                                                                                                                                                                                                                                                                                                                                                                                                                                                                                                                                                                                                                                                                                                                                                                      Z
L53760400345716-008-009       DJ1702061218272ICBERTRUM RUDOLPH                                                                                                                                                                                                                                                                                                                                                                                                                                                                                                                                                                                                                                                                                                                                                                                                                                                                                                                                                                                      Z
L53760400345716-009-009       DJ1702061218352ICBERTRUM RUDOLPH                                                                                                                                                                                                                                                                                                                                                                                                                                                                                                                                                                                                                                                                                                                                                                                                                                                                                                                                                                                      Z
L53767400341095-001-001       DJ1702061211362ICBERTRUM RUDOLPH                                                                                                                                                                                                                                                                                                                                                                                                                                                                                                                                                                                                                                                                                                                                                                                                                                                                                                                                                                                      Z
L53780300346646-001-004       DJ1702061212152ICBERTRUM RUDOLPH                                                                                                                                                                                                                                                                                                                                                                                                                                                                                                                                                                                                                                                                                                                                                                                                                                                                                                                                                                                      Z
L53780300346646-002-004       DJ1702061212262ICBERTRUM RUDOLPH                                                                                                                                                                                                                                                                                                                                                                                                                                                                                                                                                                                                                                                                                                                                                                                                                                                                                                                                                                                      Z
L53780300346646-003-004       DJ1702061212382ICBERTRUM RUDOLPH                                                                                                                                                                                                                                                                                                                                                                                                                                                                                                                                                                                                                                                                                                                                                                                                                                                                                                                                                                                      Z
L53780300346646-004-004       DJ1702061212472ICBERTRUM RUDOLPH                                                                                                                                                                                                                                                                                                                                                                                                                                                                                                                                                                                                                                                                                                                                                                                                                                                                                                                                                                                      Z
L55975400340255-001-001       DJ1702061155532ICBERTRUM RUDOLPH                                                                                                                                                                                                                                                                                                                                                                                                                                                                                                                                                                                                                                                                                                                                                                                                                                                                                                                                                                                      Z
L56030300344543-001-003       DJ1702061222292ICBERTRUM RUDOLPH                                                                                                                                                                                                                                                                                                                                                                                                                                                                                                                                                                                                                                                                                                                                                                                                                                                                                                                                                                                      Z
L56030300344543-002-003       DJ1702061222362ICBERTRUM RUDOLPH                                                                                                                                                                                                                                                                                                                                                                                                                                                                                                                                                                                                                                                                                                                                                                                                                                                                                                                                                                                      Z
L56030300344543-003-003       DJ1702061222442ICBERTRUM RUDOLPH                                                                                                                                                                                                                                                                                                                                                                                                                                                                                                                                                                                                                                                                                                                                                                                                                                                                                                                                                                                      Z
L57176700343105-001-002       DJ1702061154402ICBERTRUM RUDOLPH                                                                                                                                                                                                                                                                                                                                                                                                                                                                                                                                                                                                                                                                                                                                                                                                                                                                                                                                                                                      Z
L57176700343105-002-002       DJ1702061154482ICBERTRUM RUDOLPH                                                                                                                                                                                                                                                                                                                                                                                                                                                                                                                                                                                                                                                                                                                                                                                                                                                                                                                                                                                      Z
L57193600348995-001-002       DJ1702061154042ICBERTRUM RUDOLPH                                                                                                                                                                                                                                                                                                                                                                                                                                                                                                                                                                                                                                                                                                                                                                                                                                                                                                                                                                                      Z
L57193600348995-002-002       DJ1702061154122ICBERTRUM RUDOLPH                                                                                                                                                                                                                                                                                                                                                                                                                                                                                                                                                                                                                                                                                                                                                                                                                                                                                                                                                                                      Z
L57199600347793-001-001       DJ1702061226462ICBERTRUM RUDOLPH                                                                                                                                                                                                                                                                                                                                                                                                                                                                                                                                                                                                                                                                                                                                                                                                                                                                                                                                                                                      Z
L57743300349580-001-001       DJ1702061240141ICSHARON DYERSN                                                                                                                                                                                                                                                                                                                                                                                                                                                                                                                                                                                                                                                                                                                                                                                                                                                                                                                                                                                        Z
L58075200350258-001-001       DJ1702061216552ICBERTRUM RUDOLPH                                                                                                                                                                                                                                                                                                                                                                                                                                                                                                                                                                                                                                                                                                                                                                                                                                                                                                                                                                                      Z
L58077000349557-001-001       DJ1702061220492ICBERTRUM RUDOLPH                                                                                                                                                                                                                                                                                                                                                                                                                                                                                                                                                                                                                                                                                                                                                                                                                                                                                                                                                                                      Z
L58169500348418-001-001       DJ1702061213192ICBERTRUM RUDOLPH                                                                                                                                                                                                                                                                                                                                                                                                                                                                                                                                                                                                                                                                                                                                                                                                                                                                                                                                                                                      Z
V53760400000418-001-001       DJ1702061213192ICBERT               0000000000000001702060000001ICSLAVE 4     170213095627345716N              09
V53767400000418-001-001       DJ1702061213192ICBERT               0000000000000001702060000001ICSLAVE 4     170213100028341095N              01
V53780300000418-001-001       DJ1702061213192ICBERT               0000000000000001702060000001ICSLAVE 4     170213095604346646N              04
V55975400000418-001-001       DJ1702061213192ICBERT               0000000000000001702060000001ICSLAVE 4     170213095841340255N              01
V56030300000418-001-001       DJ1702061213192ICBERT               0000000000000001702060000001ICSLAVE 4     170213100134344543N              03
V57176700000418-001-001       DJ1702061213192ICBERT               0000000000000001702060000001ICSLAVE 4     170213095546343105N              02
V57193600000418-001-001       DJ1702061213192ICBERT               0000000000000001702060000001ICSLAVE 4     170213095822348995N              02
V57199600000418-001-001       DJ1702061213192ICBERT               0000000000000001702060000001ICSLAVE 4     170213095901347793N              01
V57743300000418-001-001       DJ1702061213192ICBERT               0000000000000001702060000001ICSLAVE 4     170213095957349580N              01
V58075200000418-001-001       DJ1702061213192ICBERT               0000000000000001702060000001ICSLAVE 4     170213095721350258N              01
V58077000000418-001-001       DJ1702061213192ICBERT               0000000000000001702060000001ICSLAVE 4     170213095643349557N              01
V58169500000418-001-001       DJ1702061213192ICBERT               0000000000000001702060000001ICSLAVE 4     170213095701348418N              01
X DJ Slave 4 First invoice 240391 170213 Last invoice 240391 170213 Next invoice 240392 Total number of records 000000047 clbackup completed 08:23:16
