214176000214176               214176               170213DK     1400+00000+DK0000008327+0000008327+000000000+000001166+0000009493+0000000000+I40000009493+0000000000+Z
214176001214176024-091102     214176006003453000010BAKING-CUP PAPER 50PC  0000001000+00002192+00000+0001T   00002192+0000001032          1400 DUI300               1BZ
214176002214176903-000844     214176005010478432567SWT CANDY DL LUV HEARTS0000002000+00001314+00000+0001T   00001314+0000001032          1400 DUI150               1BZ
214176003214176105-007800     214176006002923018913STORAGE BOX CLEAR 5.5L 0000001000+00003507+00000+0001T   00003507+0000001032          1400 DUI210               1BZ
214177000214177               214177               170213DK     1400+00000+DK0000000613+0000000613+000000000+000000086+0000000690+0000000009+I20000000000+0000000690+Z
214177001214177077-000321     214177006001023677501GIFT-BAG 11X14CM E/D FL0000001000+00000613+00000+0001T   00000613+0000001037          1400 DUI112               1BZ
214178000214178               214178               170213DK     1400+00000+DK0000001314+0000001314+000000000+000000184+0000001490+0000000008+I20000000000+0000001490+Z
214178001214178006-000167-C   214178006003000516971BALLOONS PINK METALLIC 0000001000+00001314+00000+0001T   00001314+0000001057          1400 DUI131               1BZ
214179000214179               214179               170213DK     1400+00000+DK0000001490+0000001490+000000000+000000209+0000001690+0000000009+I20000000000+0000001690+Z
214179001214179077-000452     214179006003000284986G/BAG METALLIC MED EMB 0000001000+00001490+00000+0001T   00001490+0000001058          1400 DUI112               1BZ
214180000214180               214180               170213DK     1400+00000+DK0000028943+0000028943+000000000+000004054+0000032997+0000000000+I40000032997+0000000000+Z
214180001214180104-000140     214180006002923019835WASTEPAPER BIN FLIP 24L0000002000+00011402+00000+0001T   00011402+0000001114          1400 DUI210               1BZ
214180002214180082-098769     214180006001492987699SUNGLASS LADIES AVIATOR0000001000+00006139+00000+0001T   00006139+0000001114          1400 DUI160               1BZ
214181000214181               214181               170213DK     1400+00000+DK0000011619+0000011619+000000000+000001630+0000013249+0000000000+I40000013249+0000000000+Z
214181001214181089-060027     214181006003000245871KEY-CHAIN HEART 6X6cm  0000001000+00003069+00000+0001T   00003069+0000001158          1400 DUI205               1BZ
214181002214181077-000311     214181006001023608666GIFT-BAG 11X14CM GLOSS 0000001000+00000613+00000+0001T   00000613+0000001158          1400 DUI112               1BZ
214181003214181018-000129     214181006001023403353MUG OCC. LOVE V-SHAPE  0000001000+00002630+00000+0001T   00002630+0000001158          1400 DUI515               1BZ
214181004214181018-030000     214181006003000421060MUG OCCASIONS LOVE 2PCE0000001000+00004385+00000+0001T   00004385+0000001158          1400 DUI515               1BZ
214181005214181112-116069     214181006009681820277TCS CARRIER BAG JUMBO  0000001000+00000048+00000+0001T   00000048+0000001158          1400 DUI090               1BZ
214181006214181080-000133-A   214181006003000647019MINI VALENTINES CARD   0000002000+00000437+00000+0001T   00000437+0000001158          1400 DUI112               1BZ
214182000214182               214182               170213DK     1400+00000+DK0000008769+0000008769+000000000+000001228+0000009997+0000000000+I40000009997+0000000000+Z
214182001214182266-008047     214182006001023792013COMBAT VEH&ACC IN B/PCK0000001000+00005262+00000+0001T   00005262+0000001200          1400 DUI710               1BZ
214182002214182266-005280     214182006003000656691BOYS PLAYSET SOLDIERS  0000001000+00003507+00000+0001T   00003507+0000001200          1400 DUI710               1BZ
214183000214183               214183               170213DK     1400+00000+DK0000007015+0000007015+000000000+000000983+0000007990+0000000008+I20000000000+0000007990+Z
214183001214183077-000270     214183006003000395453GIFT-BAG PPR JMB 33X45 0000001000+00002630+00000+0001T   00002630+0000001201          1400 DUI112               1BZ
214183002214183368-000001     214183006003000097982Plush Bear 25cm        0000001000+00004385+00000+0001T   00004385+0000001201          1400 DUI745               1BZ
214184000214184               214184               170213DK     1400+00000+DK0000004385+0000004385+000000000+000000614+0000004990+0000000009+I20000000000+0000004990+Z
214184001214184368-000049     214184006003000536955PLUSH BEAR 15cm LOVE   0000001000+00004385+00000+0001T   00004385+0000001203          1400 DUI745               1BZ
214185000214185               214185               170213DK     1400+00000+DK0000001753+0000001753+000000000+000000246+0000001990+0000000009+I20000000000+0000001990+Z
214185001214185366-007600     214185006001023902184MASK THEATRICAL GLITTER0000001000+00001753+00000+0001T   00001753+0000001214          1400 DUI131               1BZ
214186000214186               214186               170213DK     1400+00000+DK0000004420+0000004420+000000000+000000619+0000005030+0000000009+I20000000000+0000005030+Z
214186001214186016-006500     214186006003000618460S/JAR GLS HERMETICO    0000001000+00004385+00000+0001T   00004385+0000001224          1400 DUI300               1BZ
214186002214186112-116038     214186006009681820246TCS CARRIER BAG MIDI   0000001000+00000035+00000+0001T   00000035+0000001224          1400 DUI090               1BZ
214187000214187               214187               170213DK     1400+00000+DK0000003507+0000003507+000000000+000000491+0000003990+0000000008+I20000000000+0000003990+Z
214187001214187007-000324     21418700600968585864125 SHEETS BRIGHTS MARLI0000001000+00003507+00000+0001T   00003507+0000001225          1400 DUI130               1BZ
214188000214188               214188               170213DK     1400+00000+DK0000001753+0000001753+000000000+000000246+0000001990+0000000009+I20000000000+0000001990+Z
214188001214188046-000014-A   214188004897006177708BATTERIES SIZE:AAA 8PCE0000001000+00001753+00000+0001T   00001753+0000001226          1400 DUI312               1BZ
214189000214189               214189               170213DK     1400+00000+DK0000002891+0000002891+000000000+000000406+0000003297+0000000000+I40000003297+0000000000+Z
214189001214189071-005213     214189006001023690371CELLOTAPE 12mmx33m     0000001000+00000876+00000+0001T   00000876+0000001227          1400 DUI130               1BZ
214189002214189903-004963     214189008410525221873SWT GUMMY SOUR COLA 50g0000001000+00000964+00000+0001T   00000964+0000001227          1400 DUI150               1BZ
214189003214189903-002850     214189000000087108262MENTOS ROLL FRUIT      0000001000+00001051+00000+0001T   00001051+0000001227          1400 DUI150               1BZ
214190000214190               214190               170213DK     1400+00000+DK0000010567+0000010567+000000000+000001482+0000012040+0000000009+I20000000000+0000012040+Z
214190001214190567-011443     214190009781847506719BK PUZZLE WORDSEARCH   0000001000+00003507+00000+0001T   00003507+0000001229          1400 DUI757               1BZ
214190002214190077-000381     214190006003000247707GIFT-BAG 25X32CM S/COL 0000001000+00001753+00000+0001T   00001753+0000001229          1400 DUI112               1BZ
214190003214190077-000382     214190006003000247820GIFT-BAG MED 18X23CM   0000002000+00001753+00000+0001T   00001753+0000001229          1400 DUI112               1BZ
214190004214190077-000381     214190006003000247707GIFT-BAG 25X32CM S/COL 0000001000+00001753+00000+0001T   00001753+0000001229          1400 DUI112               1BZ
214190005214190112-116069     214190006009681820277TCS CARRIER BAG JUMBO  0000001000+00000048+00000+0001T   00000048+0000001229          1400 DUI090               1BZ
214191000214191               214191               170213DK     1400+00000+DK0000004420+0000004420+000000000+000000619+0000005039+0000000000+I40000005039+0000000000+Z
214191001214191031-080508     214191006001023802415P/FRAME PL 22X11CM LOVE0000001000+00004385+00000+0001T   00004385+0000001232          1400 DUI510               1BZ
214191002214191112-116038     214191006009681820246TCS CARRIER BAG MIDI   0000001000+00000035+00000+0001T   00000035+0000001232          1400 DUI090               1BZ
214192000214192               214192               170213DK     1400+00000+DK0000001139+0000001139+000000000+000000160+0000001290+0000000009+I20000000000+0000001290+Z
214192001214192903-000087     214192006001704000161SWT SPECKLED-EGGS 50G  0000001000+00001139+00000+0001T   00001139+0000001233          1400 DUI150               1BZ
214193000214193               214193               170213DK     1400+00000+DK0000010394+0000010394+000000000+000001457+0000011851+0000000000+I40000011851+0000000000+Z
214193001214193077-000303     214193006001023593757GIFT-BAG PAPER MED     0000001000+00001578+00000+0001T   00001578+0000001235          1400 DUI112               1BZ
214193002214193206-000620     214193006003000631797BACK SCRATCHER EXTEND  0000001000+00002630+00000+0001T   00002630+0000001235          1400 DUI321               1BZ
214193003214193001-000175     214193006001023788108B/MUG GLS LOVE 380ML   0000001000+00004385+00000+0001T   00004385+0000001235          1400 DUI515               1BZ
214193004214193112-116069     214193006009681820277TCS CARRIER BAG JUMBO  0000001000+00000048+00000+0001T   00000048+0000001235          1400 DUI090               1BZ
214193005214193565-000043     214193006003000109562NOVELTY BALL FUNNY FACE0000001000+00001753+00000+0001T   00001753+0000001235          1400 DUI745               1BZ
214194000214194               214194               170213DK     1400+00000+DK0000011795+0000011795+000000000+000001654+0000013449+0000000000+I40000013449+0000000000+Z
214194001214194112-116069     214194006009681820277TCS CARRIER BAG JUMBO  0000001000+00000048+00000+0001T   00000048+0000001239          1400 DUI090               1BZ
214194002214194077-000920     214194006003000413812G/WRAP 700mmx2m BIRTHDA0000001000+00002192+00000+0001T   00002192+0000001239          1400 DUI112               1BZ
214194003214194077-000902     214194006003000410569G/WRAP 700mmx1m BBY/KID0000001000+00001753+00000+0001T   00001753+0000001239          1400 DUI112               1BZ
214194004214194080-000133     214194006003000535613CARD&ENV MINI ASTD DSGN0000001000+00000437+00000+0001T   00000437+0000001239          1400 DUI112               1BZ
214194005214194903-000518     214194006001704012782SWT STRAWS S/BERRY 100g0000001000+00001227+00000+0001T   00001227+0000001239          1400 DUI150               1BZ
214194006214194077-000908     214194006003000410927G/WRAP 700mmx1m FLOWER 0000001000+00001753+00000+0001T   00001753+0000001239          1400 DUI112               1BZ
214194007214194082-096633     214194006001492966335SUNGLASS MENS PLASTIC  0000001000+00004385+00000+0001T   00004385+0000001239          1400 DUI160               1BZ
214195000214195               214195               170213DK     1400+00000+DK0000050045+0000050045+000000000+000007008+0000057053+0000000000+I40000057053+0000000000+Z
214195001214195497-064702     214195000078257647026AIR-BED DURA-BEAM DOUBL0000001000+00043858+00000+0001T   00043858+0000001241          1400 DUI787               1BZ
214195002214195497-068614     214195000078257686148H/PUMP HIGH-O/PUT 36cm 0000001000+00006139+00000+0001T   00006139+0000001241          1400 DUI787               1BZ
214195003214195112-116069     214195006009681820277TCS CARRIER BAG JUMBO  0000001000+00000048+00000+0001T   00000048+0000001241          1400 DUI090               1BZ
214196000214196               214196               170213DK     1400+00000+DK0000001971+0000001971+000000000+000000277+0000002240+0000000008+I20000000000+0000002240+Z
214196001214196071-000012     214196006001177101006CHALK COLOUR 12PCE     0000001000+00000481+00000+0001T   00000481+0000001241          1400 DUI130               1BZ
214196002214196077-000327     214196006001023677686GIFT-BAG 25X32CM E/D BA0000001000+00001490+00000+0001T   00001490+0000001241          1400 DUI112               1BZ
214197000214197               214197               170213DK     1400+00000+DK0000010956+0000010956+000000000+000001537+0000012493+0000000000+I40000012493+0000000000+Z
214197001214197368-000049     214197006003000536955PLUSH BEAR 15cm LOVE   0000001000+00004385+00000+0001T   00004385+0000001244          1400 DUI745               1BZ
214197002214197018-000136     214197006001023659026MUG OCC LOVE W/PLUSH   0000001000+00003507+00000+0001T   00003507+0000001244          1400 DUI515               1BZ
214197003214197077-000289     214197006001023901996GIFT BOX 20x25x11cm    0000001000+00001753+00000+0001T   00001753+0000001244          1400 DUI112               1BZ
214197004214197080-000133-A   214197006003000647019MINI VALENTINES CARD   0000003000+00000437+00000+0001T   00000437+0000001244          1400 DUI112               1BZ
214198000214198               214198               170213DK     1400+00000+DK0000012324+0000012324+000000000+000001726+0000014050+0000000000+I40000014050+0000000000+Z
214198001214198304-001167     214198006001023846099FLOWER LOTUS FLOATING  0000001000+00002192+00000+0001T   00002192+0000001247          1400 DUI510               1BZ
214198002214198304-001168     214198006003000407781FLWR FLOATING LOTUS ASS0000001000+00003507+00000+0001T   00003507+0000001247          1400 DUI510               1BZ
214198003214198563-000318-L   214198006003000407088SERVIETTES 33cm RED    0000001000+00002192+00000+0001T   00002192+0000001247          1400 DUI214               1BZ
214198004214198206-000440     214198006003000619740DRINKING-JAR LIGHTS    0000001000+00004385+00000+0001T   00004385+0000001247          1400 DUI321               1BZ
214198005214198112-116069     214198006009681820277TCS CARRIER BAG JUMBO  0000001000+00000048+00000+0001T   00000048+0000001247          1400 DUI090               1BZ
214199000214199               214199               170213DK     1400+00000+DK0000002630+0000002630+000000000+000000369+0000002990+0000000009+I20000000000+0000002990+Z
214199001214199082-000388     214199006001023774385SPECT-CASE SPRING-CLOSE0000001000+00002630+00000+0001T   00002630+0000001249          1400 DUI160               1BZ
214200000214200               214200               170213DK     1400+00000+DK0000004822+0000004822+000000000+000000676+0000005498+0000000000+I40000005498+0000000000+Z
214200001214200133-000032     214200006003000277063KITCHEN SWAB 30X30CM   0000001000+00001753+00000+0001T   00001753+0000001253          1400 DUI212               1BZ
214200002214200133-000074     214200006003000244072D/CLOTH 40x60 80g      0000001000+00003069+00000+0001T   00003069+0000001253          1400 DUI212               1BZ
214201000214201               214201               170213DK     1400+00000+DK0000003507+0000003507+000000000+000000491+0000003998+0000000000+I40000003998+0000000000+Z
214201001214201031-000002-A   214201006003000247103P/FRAME LOVE 7.5X7.5CM 0000001000+00003507+00000+0001T   00003507+0000001255          1400 DUI510               1BZ
214202000214202               214202               170213DK     1400+00000+DK0000003506+0000003506+000000000+000000492+0000003998+0000000000+I40000003998+0000000000+Z
214202001214202046-002013-PK6 214202004897006174851BATTERY BUTTON AG13 6PC0000002000+00001753+00000+0001T   00001753+0000001300          1400 DUI312               1BZ
214203000214203               214203               170213DK     1400+00000+DK0000000876+0000000876+000000000+000000123+0000000990+0000000009+I20000000000+0000000990+Z
214203001214203071-005213     214203006001023690371CELLOTAPE 12mmx33m     0000001000+00000876+00000+0001T   00000876+0000001300          1400 DUI130               1BZ
214204000214204               214204               170213DK     1400+00000+DK0000005294+0000005294+000000000+000000743+0000006037+0000000000+I40000006037+0000000000+Z
214204001214204140-006004     214204006001023628077FLY-SWATTER RUBBER     0000001000+00001139+00000+0001T   00001139+0000001302          1400 DUI830               1BZ
214204002214204034-078833     214204006001023857491SIGN BABY-ON-BOARD     0000001000+00001490+00000+0001T   00001490+0000001302          1400 DUI215               1BZ
214204003214204084-009410     214204006001023477651SCISSORS 21cm PL-HANDLE0000001000+00002630+00000+0001T   00002630+0000001302          1400 DUI200               1BZ
214204004214204112-116038     214204006009681820246TCS CARRIER BAG MIDI   0000001000+00000035+00000+0001T   00000035+0000001302          1400 DUI090               1BZ
214205000214205               214205               170213DK     1400+00000+DK0000001839+0000001839+000000000+000000258+0000002090+0000000007+I20000000000+0000002090+Z
214205001214205077-000311     214205006001023608666GIFT-BAG 11X14CM GLOSS 0000003000+00000613+00000+0001T   00000613+0000001303          1400 DUI112               1BZ
214206000214206               214206               170213DK     1400+00000+DK0000004119+0000004119+000000000+000000578+0000004697+0000000000+I40000004697+0000000000+Z
214206001214206304-001011     214206006001023806727FLWR ROSE RED W/BEAR   0000001000+00000613+00000+0001T   00000788+0006471304          1400 DUI510               1BZ
214206002214206018-000129     214206006001023403353MUG OCC. LOVE V-SHAPE  0000001000+00002630+00000+0001T   00002630+0000001304          1400 DUI515               1BZ
214206003214206077-000151     214206006008766114676GIFT-WRAP C/PHANE ASSTD0000001000+00000876+00000+0001T   00000876+0000001304          1400 DUI112               1BZ
214207000214207               214207               170213DK     1400+00000+DK0000001314+0000001314+000000000+000000184+0000001490+0000000008+I20000000000+0000001490+Z
214207001214207004-071280     214207006003000129959WRITABLE-CD SINGLE     0000001000+00001314+00000+0001T   00001314+0000001305          1400 DUI310               1BZ
214208000214208               214208               170213DK     1400+00000+DK0000001976+0000001976+000000000+000000277+0000002250+0000000003+I20000000000+0000002250+Z
214208002214208028-000795     214208006001023812063SKEWERS 10cm 100PCE 3mm0000002000+00000964+00000+0001T   00000964+0000001311          1400 DUI305               1BZ
214208003214208112-116069     214208006009681820277TCS CARRIER BAG JUMBO  0000001000+00000048+00000+0001T   00000048+0000001311          1400 DUI090               1BZ
214209000214209               214209               170213DK     1400+00000+DK0000009163+0000009163+000000000+000001286+0000010440+0000000009+I20000000000+0000010440+Z
214209001214209018-000136     214209006001023659026MUG OCC LOVE W/PLUSH   0000001000+00003507+00000+0001T   00003507+0000001312          1400 DUI515               1BZ
214209002214209079-006496     214209006003000160105GLITTER SHAKERS        0000001000+00001753+00000+0001T   00001753+0000001312          1400 DUI130               1BZ
214209003214209077-000455     214209006003000285389G/BAG METALLIC LRG SOL 0000001000+00001753+00000+0001T   00001753+0000001312          1400 DUI112               1BZ
214209004214209039-000026     214209006001023551610C/TAPERED 25CM M/RED   0000002000+00001051+00000+0001T   00001051+0000001312          1400 DUI510               1BZ
214209005214209112-116069     214209006009681820277TCS CARRIER BAG JUMBO  0000001000+00000048+00000+0001T   00000048+0000001312          1400 DUI090               1BZ
214210000214210               214210               170213DK     1400+00000+DK0000007941+0000007941+000000000+000001113+0000009050+0000000004+I20000000000+0000009050+Z
214210001214210301-085007     214210006003000673698ORN OCC. LOVE S/PLAQUE 0000001000+00007893+00000+0001T   00007893+0000001313          1400 DUI505               1BZ
214210002214210112-116069     214210006009681820277TCS CARRIER BAG JUMBO  0000001000+00000048+00000+0001T   00000048+0000001313          1400 DUI090               1BZ
214211000214211               214211               170213DK     1400+00000+DK0000008771+0000008771+000000000+000001228+0000009999+0000000000+I40000009999+0000000000+Z
214211001214211031-086302-C   214211006001023910332P/FRAME COLL. PL 3-HOLE0000001000+00008771+00000+0001T   00008771+0000001315          1400 DUI510               1BZ
214212000214212               214212               170213DK     1400+00000+DK0000007397+0000007397+000000000+000001038+0000008435+0000000000+I40000008435+0000000000+Z
214212001214212039-000322     214212006001023524157B/CANDLES W/HOLDERS 24 0000001000+00001139+00000+0001T   00001139+0000001318          1400 DUI510               1BZ
214212002214212565-000049     214212006003000548156NOVELTY SLIME "BOOGERS"0000002000+00001490+00000+0001T   00001490+0000001318          1400 DUI745               1BZ
214212003214212002-021062     214212006001023437884T/PICKS 5OPCE SA-FLAG  0000001000+00001490+00000+0001T   00001490+0000001318          1400 DUI300               1BZ
214212004214212006-000324     214212006001023818393PARTY POPPER`S PCK-OF-60000001000+00001753+00000+0001T   00001753+0000001318          1400 DUI131               1BZ
214212005214212112-116038     214212006009681820246TCS CARRIER BAG MIDI   0000001000+00000035+00000+0001T   00000035+0000001318          1400 DUI090               1BZ
214213000214213               214213               170213DK     1400+00000+DK0000003681+0000003681+000000000+000000517+0000004198+0000000000+I40000004198+0000000000+Z
214213001214213304-000720     214213006001023843050F/BUNCH ROSE 6-HEAD AST0000001000+00002630+00000+0001T   00002630+0000001320          1400 DUI510               1BZ
214213002214213079-009702-D   214213008427973059354PAPER SIRIO A2 RED COL 0000001000+00001051+00000+0001T   00001051+0000001320          1400 DUI130               1BZ
214214000214214               214214               170213DK     1400+00000+DK0000001227+0000001227+000000000+000000172+0000001399+0000000000+I40000001399+0000000000+Z
214214001214214077-000322     214214006001023677532GIFT-BAG 18X23CM E/D FL0000001000+00001227+00000+0001T   00001227+0000001321          1400 DUI112               1BZ
214215000214215               214215               170213DK     1400+00000+DK0000003506+0000003506+000000000+000000492+0000003990+0000000008+I20000000000+0000003990+Z
214215001214215046-002032-PK2 214215004897006175063BATTERIES CR-2032  2PCE0000002000+00001753+00000+0001T   00001753+0000001321          1400 DUI312               1BZ
214216000214216               214216               170213DK     1400+00000+DK0000010130+0000010130+000000000+000001420+0000011550+0000000000+I40000011550+0000000000+Z
214216001214216203-005500     214216006001023914194B/POURER PL OPEN BAR   0000001000+00002192+00000+0001T   00002192+0000001323          1400 DUI300               1BZ
214216002214216037-000006     214216006003000171996ASHTRAY PL TUB GIANT   0000001000+00002630+00000+0001T   00003069+0008191323          1400 DUI515               1BZ
214216003214216036-021493     214216006001023998996HANGERS PL 2x5TIER 37cm0000001000+00003507+00000+0001T   00003507+0000001323          1400 DUI212               1BZ
214216004214216162-081665     214216006001492816654SS 18PK HAIR ELASTICS  0000001000+00001753+00000+0001T   00001753+0000001323          1400 DUI160               1BZ
214216005214216112-116069     214216006009681820277TCS CARRIER BAG JUMBO  0000001000+00000048+00000+0001T   00000048+0000001323          1400 DUI090               1BZ
214217000214217               214217               170213DK     1400+00000+DK0000004558+0000004558+000000000+000000639+0000005197+0000000000+I40000005197+0000000000+Z
214217001214217080-000115     214217006003000237333CARD&ENVELOPE - BLANKS 0000001000+00001753+00000+0001T   00001753+0000001325          1400 DUI112               1BZ
214217002214217077-000317     214217006001023609748GIFT-BAG 11X14CM E/D AN0000001000+00000613+00000+0001T   00000613+0000001325          1400 DUI112               1BZ
214217003214217016-006517     214217006003000351626S/JAR GLS CHECK 650ML  0000001000+00002192+00000+0001T   00002192+0000001325          1400 DUI300               1BZ
214218000214218               214218               170213DK     1400+00000+DK0000009198+0000009198+000000000+000001293+0000010490+0000000001+I20000000000+0000010490+Z
214218001214218903-000809     214218006009680772232SWT CANDY FROOTEEZ 50g 0000003000+00000876+00000+0001T   00000876+0000001326          1400 DUI150               1BZ
214218002214218080-000133-A   214218006003000647019MINI VALENTINES CARD   0000005000+00000437+00000+0001T   00000437+0000001326          1400 DUI112               1BZ
214218003214218105-008005     214218006002580009484STORAGE CONTAINER 7.5L 0000001000+00004385+00000+0001T   00004385+0000001326          1400 DUI210               1BZ
214219000214219               214219               170213DK     1400+00000+DK0000004557+0000004557+000000000+000000640+0000005190+0000000007+I20000000000+0000005190+Z
214219001214219028-000014     214219006001334001316ICE-BRICK SOLID MEDIUM 0000002000+00001753+00000+0001T   00001753+0000001326          1400 DUI305               1BZ
214219002214219903-002850     214219000000087108262MENTOS ROLL FRUIT      0000001000+00001051+00000+0001T   00001051+0000001326          1400 DUI150               1BZ
214220000214220               214220               170213DK     1400+00000+DK0000001578+0000001578+000000000+000000221+0000001790+0000000009+I20000000000+0000001790+Z
214220001214220077-000315     214220006003000181186GIFT-BAG 20x28cm MATT  0000001000+00001578+00000+0001T   00001578+0000001327          1400 DUI112               1BZ
214221000214221               214221               170213DK     1400+00000+DK0000004067+0000004067+000000000+000000571+0000004638+0000000000+I40000004638+0000000000+Z
214221001214221106-001118     214221006009654960320WATER BOTTLE PL 500ml  0000002000+00002016+00000+0001T   00002016+0000001329          1400 DUI210               1BZ
214221002214221112-116038     214221006009681820246TCS CARRIER BAG MIDI   0000001000+00000035+00000+0001T   00000035+0000001329          1400 DUI090               1BZ
214222000214222               214222               170213DK     1400+00000+DK0000013201+0000013201+000000000+000001849+0000015050+0000000000+I40000015050+0000000000+Z
214222001214222112-116069     214222006009681820277TCS CARRIER BAG JUMBO  0000001000+00000048+00000+0001T   00000048+0000001331          1400 DUI090               1BZ
214222002214222368-000175     214222006003000270316PLUSH BEAR 4 ASSTD 18CM0000001000+00006139+00000+0001T   00006139+0000001331          1400 DUI745               1BZ
214222003214222018-005009     214222006001023725608MUG W/PLUSH-BEAR LOVE  0000001000+00003507+00000+0001T   00003507+0000001331          1400 DUI515               1BZ
214222004214222103-000090     214222006001023795786WOVEN HEART SHAPED     0000001000+00003507+00000+0001T   00003507+0000001331          1400 DUI300               1BZ
214223000214223               214223               170213DK     1400+00000+DK0000002630+0000002630+000000000+000000369+0000002999+0000000000+I40000002999+0000000000+Z
214223001214223206-000620     214223006003000631797BACK SCRATCHER EXTEND  0000001000+00002630+00000+0001T   00002630+0000001332          1400 DUI321               1BZ
214224000214224               214224               170213DK     1400+00000+DK0000039937+0000039937+000000000+000005601+0000045538+0000000000+I40000045538+0000000000+Z
214224001214224112-116069     214224006009681820277TCS CARRIER BAG JUMBO  0000001000+00000048+00000+0001T   00000048+0000001335          1400 DUI090               1BZ
214224002214224027-008815     214224006003000439799DUSTER 62cm RUBBER-GRIP0000001000+00004385+00000+0001T   00004385+0000001335          1400 DUI212               1BZ
214224003214224142-000814     214224006001023183910GLOVES RUBBER  MEDIUM  0000004000+00001753+00000+0001T   00001753+0000001335          1400 DUI810               1BZ
214224004214224133-000016     214224006003000240609DUSTERS ORANGE PACK-3  0000004000+00001753+00000+0001T   00001753+0000001335          1400 DUI212               1BZ
214224005214224133-061111     214224006001023775092TOWEL MAGIC ALL-PURPOSE0000005000+00002630+00000+0001T   00002630+0000001335          1400 DUI212               1BZ
214224006214224024-000033     214224006003000420278MEASURING JUG 1L H/H   0000001000+00002192+00000+0001T   00002192+0000001335          1400 DUI300               1BZ
214224007214224024-000040     214224006001023332509MEASURING-JUG 2.00L    0000002000+00003069+00000+0001T   00003069+0000001335          1400 DUI300               1BZ
214225000214225               214225               170213DK     1400+00000+DK0000003768+0000003768+000000000+000000529+0000004290+0000000007+I20000000000+0000004290+Z
214225001214225077-000011-D   214225006001023808554TISSUE-WRAP WHITE 10PCE0000001000+00000876+00000+0001T   00000876+0000001337          1400 DUI112               1BZ
214225002214225903-000087     214225006001704000161SWT SPECKLED-EGGS 50G  0000001000+00001139+00000+0001T   00001139+0000001337          1400 DUI150               1BZ
214225003214225077-000454     214225006003000285266G/BAG METALLIC LRG EMB 0000001000+00001753+00000+0001T   00001753+0000001337          1400 DUI112               1BZ
214226000214226               214226               170213DK     1400+00000+DK0000014034+0000014034+000000000+000001965+0000015999+0000000000+I40000015999+0000000000+Z
214226001214226105-009017     214226006002923012843STORAGE BOX FROSTED 55L0000001000+00014034+00000+0001T   00014034+0000001340          1400 DUI210               1BZ
214227000214227               214227               170213DK     1400+00000+DK0000003243+0000003243+000000000+000000455+0000003690+0000000008+I20000000000+0000003690+Z
214227001214227079-006494     214227006003000159864GLITTER GLUE 5PCE 11cm 0000001000+00001490+00000+0001T   00001490+0000001356          1400 DUI130               1BZ
214227002214227079-006496     214227006003000160105GLITTER SHAKERS        0000001000+00001753+00000+0001T   00001753+0000001356          1400 DUI130               1BZ
214228000214228               214228               170213DK     1400+00000+DK0000003993+0000003993+000000000+000000560+0000004550+0000000003+I20000000000+0000004550+Z
214228001214228264-000921     214228000090159150442MAISTO CAR 3" FRESH    0000001000+00001753+00000+0001T   00001753+0000001358          1400 DUI710               1BZ
214228002214228006-000789     214228006001023148612CROWN BOY              0000001000+00002192+00000+0001T   00002192+0000001358          1400 DUI131               1BZ
214228003214228112-116069     214228006009681820277TCS CARRIER BAG JUMBO  0000001000+00000048+00000+0001T   00000048+0000001358          1400 DUI090               1BZ
214229000214229               214229               170213DK     1400+00000+DK0000001490+0000001490+000000000+000000209+0000001699+0000000000+I40000001699+0000000000+Z
214229001214229077-000304     214229006001023483232GIFT-BAG 25X32CM E/DAY 0000001000+00001490+00000+0001T   00001490+0000001404          1400 DUI112               1BZ
214230000214230               214230               170213DK     1400+00000+DK0000006139+0000006139+000000000+000000860+0000006990+0000000009+I20000000000+0000006990+Z
214230001214230368-000175     214230006003000270316PLUSH BEAR 4 ASSTD 18CM0000001000+00006139+00000+0001T   00006139+0000001418          1400 DUI745               1BZ
214231000214231               214231               170213DK     1400+00000+DK0000000035+0000000035+000000000+000000005+0000000040+0000000000+I20000000000+0000000040+Z
214231001214231112-116038     214231006009681820246TCS CARRIER BAG MIDI   0000001000+00000035+00000+0001T   00000035+0000001419          1400 DUI090               1BZ
214232000214232               214232               170213DK     1400+00000+DK0000000500-0000000500-000000000+000000070-0000000570-0000000000+I20000000000+0000000570-Z
214232001214232001-999906     214232000000000999906STATIONERY(PHOTOCOPIES)0000001000-00000500+00000+0001T   00000000+0000001433          1400 DUI9061IC            1 Z
214233000214233               214233               170213DK     1400+00000+DK0000001576+0000001576+000000000+000000221+0000001790+0000000007+I20000000000+0000001790+Z
214233001214233033-010721     214233006001023678669SAFETY-PINS 20PCE ASSTD0000001000+00000700+00000+0001T   00000700+0000001442          1400 DUI200               1BZ
214233002214233033-010720     214233006001023678645SAFETY-PINS 50PCE SMALL0000001000+00000876+00000+0001T   00000876+0000001442          1400 DUI200               1BZ
214234000214234               214234               170213DK     1400+00000+DK0000001227+0000001227+000000000+000000172+0000001390+0000000009+I20000000000+0000001390+Z
214234001214234903-000517     214234006001704012768SWT STRAWS FIZZY CHERRY0000001000+00001227+00000+0001T   00001227+0000001559          1400 DUI150               1BZ
214235000214235               214235               170213DK     1400+00000+DK0000006300+0000006300+000000000+000000888+0000007188+0000000000+I40000007188+0000000000+Z
214235001214235903-000151     214235006009803374411SWT SML RND R/BOW LOLLY0000012000+00000525+00000+0001T   00000525+0000001602          1400 DUI150               1BZ
214236000214236               214236               170213DK     1400+00000+DK0000002192+0000002192+000000000+000000307+0000002490+0000000009+I20000000000+0000002490+Z
214236001214236080-000127     214236006003000424351VALENTINES DAY 36x24CM 0000001000+00002192+00000+0001T   00002192+0000001602          1400 DUI112               1BZ
214237000214237               214237               170213DK     1400+00000+DK0000017102+0000017102+000000000+000002395+0000019497+0000000000+I40000019497+0000000000+Z
214237001214237368-000099     214237006001023680259PLUSH DOG 23cm ASSTD   0000001000+00008771+00000+0001T   00008771+0000001620          1400 DUI745               1BZ
214237002214237368-000175     214237006003000270316PLUSH BEAR 4 ASSTD 18CM0000001000+00006139+00000+0001T   00006139+0000001620          1400 DUI745               1BZ
214237003214237077-000463     214237006003000321698G/BAG GLITTER MED20x28 0000001000+00002192+00000+0001T   00002192+0000001620          1400 DUI112               1BZ
214238000214238               214238               170213DK     1400+00000+DK0000001752+0000001752+000000000+000000246+0000001998+0000000000+I40000001998+0000000000+Z
214238001214238077-000011-D   214238006001023808554TISSUE-WRAP WHITE 10PCE0000001000+00000876+00000+0001T   00000876+0000001621          1400 DUI112               1BZ
214238002214238077-000011-C   214238006001023808523TISSUE 10xSHTS RED     0000001000+00000876+00000+0001T   00000876+0000001621          1400 DUI112               1BZ
214239000214239               214239               170213DK     1400+00000+DK0000003542+0000003542+000000000+000000496+0000004030+0000000008+I20000000000+0000004030+Z
214239001214239018-000136     214239006001023659026MUG OCC LOVE W/PLUSH   0000001000+00003507+00000+0001T   00003507+0000001622          1400 DUI515               1BZ
214239002214239112-116038     214239006009681820246TCS CARRIER BAG MIDI   0000001000+00000035+00000+0001T   00000035+0000001622          1400 DUI090               1BZ
214240000214240               214240               170213DK     1400+00000+DK0000002192+0000002192+000000000+000000307+0000002490+0000000009+I20000000000+0000002490+Z
214240001214240089-000501     214240006003000622900KEY CHAIN LIGHT LASER  0000001000+00002192+00000+0001T   00002192+0000001652          1400 DUI205               1BZ
214241000214241               214241               170213DK     1400+00000+DK0000001314+0000001314+000000000+000000184+0000001490+0000000008+I20000000000+0000001490+Z
214241001214241077-000310     214241006001023608635GIFT-BAG 18X23CM GLOSS 0000001000+00001314+00000+0001T   00001314+0000001656          1400 DUI112               1BZ
214242000214242               214242               170213DK     1400+00000+DK0000005699+0000005699+000000000+000000798+0000006497+0000000000+I40000006497+0000000000+Z
214242001214242024-091103     214242006003453014307BAKING-CUP MUFFIN 50PCE0000001000+00002192+00000+0001T   00002192+0000001658          1400 DUI300               1BZ
214242002214242567-011443     214242009781847506719BK PUZZLE WORDSEARCH   0000001000+00003507+00000+0001T   00003507+0000001658          1400 DUI757               1BZ
214243000214243               214243               170213DK     1400+00000+DK0000001753+0000001753+000000000+000000246+0000001990+0000000009+I20000000000+0000001990+Z
214243001214243077-000324     214243006001023677594GIFT-BAG 33X45CM E/D FL0000001000+00001753+00000+0001T   00001753+0000001659          1400 DUI112               1BZ
214244000214244               214244               170213DK     1400+00000+DK0000002630+0000002630+000000000+000000369+0000002999+0000000000+I40000002999+0000000000+Z
214244001214244071-001362     214244006003000589258HIGHLIGHTER 4 PACK     0000001000+00002630+00000+0001T   00002630+0000001701          1400 DUI130               1BZ
214245000214245               214245               170213DK     1400+00000+DK0000008803+0000008803+000000000+000001234+0000010030+0000000007+I20000000000+0000010030+Z
214245001214245018-030000     214245006003000421060MUG OCCASIONS LOVE 2PCE0000001000+00004385+00000+0001T   00004385+0000001704          1400 DUI515               1BZ
214245002214245046-000014-A   214245004897006177708BATTERIES SIZE:AAA 8PCE0000001000+00001753+00000+0001T   00001753+0000001704          1400 DUI312               1BZ
214245003214245112-116038     214245006009681820246TCS CARRIER BAG MIDI   0000001000+00000035+00000+0001T   00000035+0000001704          1400 DUI090               1BZ
214245004214245077-000115-B   214245006003000181025GIFT-WRAP PPR 700MMX2M 0000001000+00002630+00000+0001T   00002630+0000001704          1400 DUI112               1BZ
214246000214246               214246               170213DK     1400+00000+DK0000005747+0000005747+000000000+000000805+0000006550+0000000002+I20000000000+0000006550+Z
214246001214246031-000923     214246006001023669933P/FRAME BLK W/WORDS    0000001000+00003507+00000+0001T   00003507+0000001708          1400 DUI510               1BZ
214246002214246080-000127     214246006003000424351VALENTINES DAY 36x24CM 0000001000+00002192+00000+0001T   00002192+0000001708          1400 DUI112               1BZ
214246003214246112-116069     214246006009681820277TCS CARRIER BAG JUMBO  0000001000+00000048+00000+0001T   00000048+0000001708          1400 DUI090               1BZ
214247000214247               214247               170213DK     1400+00000+DK0000001227+0000001227+000000000+000000172+0000001390+0000000009+I20000000000+0000001390+Z
214247001214247077-000318     214247006001023609755GIFT-BAG 18X23CM E/D AN0000001000+00001227+00000+0001T   00001227+0000001710          1400 DUI112               1BZ
214248000214248               214248               170213DK     1400+00000+DK0000003507+0000003507+000000000+000000491+0000003998+0000000000+I40000003998+0000000000+Z
214248001214248031-086303-B   214248006003000322404P/FRM CHAMPAGNE 13X18CM0000001000+00003507+00000+0001T   00003507+0000001716          1400 DUI510               1BZ
214249000214249               214249               170213DK     1400+00000+DK0000009691+0000009691+000000000+000001360+0000011051+0000000000+I40000011051+0000000000+Z
214249001214249112-116069     214249006009681820277TCS CARRIER BAG JUMBO  0000001000+00000048+00000+0001T   00000048+0000001718          1400 DUI090               1BZ
214249002214249162-096856     214249006001492968568#TAG KIDS NECKLACE     0000001000+00002630+00000+0001T   00002630+0000001718          1400 DUI160               1BZ
214249003214249266-003012     214249006001023786128BOYS P/SET ARCHERY 4pc 0000001000+00002630+00000+0001T   00002630+0000001718          1400 DUI710               1BZ
214249004214249565-000010     214249006001023865984ROBOT ARM PL 30CM      0000001000+00002630+00000+0001T   00002630+0000001718          1400 DUI745               1BZ
214249005214249365-000001     214249006003000395262PLAY SET DOCTORS SET   0000001000+00001753+00000+0001T   00001753+0000001718          1400 DUI725               1BZ
214250000214250               214250               170213DK     1400+00000+DK0000000876+0000000876+000000000+000000123+0000000990+0000000009+I20000000000+0000000990+Z
214250001214250077-000314     214250006003000181148GIFT-BAG 11X14CM MATT  0000001000+00000876+00000+0001T   00000876+0000001721          1400 DUI112               1BZ
214251000214251               214251               170213DK     1400+00000+DK0000011401+0000011401+000000000+000001597+0000012998+0000000000+I40000012998+0000000000+Z
214251001214251019-000080     214251006001023775740VASE GLS FLORIST BALL  0000001000+00008771+00000+0001T   00008771+0000001723          1400 DUI510               1BZ
214251002214251019-071601     214251006001023771995RIVER-STONES 1kg WHITE 0000001000+00002630+00000+0001T   00002630+0000001723          1400 DUI510               1BZ
214252000214252               214252               170213DK     1400+00000+DK0000002630+0000002630+000000000+000000369+0000002990+0000000009+I20000000000+0000002990+Z
214252001214252031-000873-A   214252006003000675425P/FRAME WDN WHITE 10X150000001000+00002630+00000+0001T   00002630+0000001724          1400 DUI510               1BZ
214253000214253               214253               170213DK     1400+00000+DK0000005254-0000005254-000000000+000000736-0000005990-0000000000+I20000000000+0000005990-Z
214253001214253001-999907     214253000000000999907CLEANING-MATERIALS     0000001000-00005254+00000+0001T   00000000+0000001728          1400 DUI9071IC            1 Z
214254000214254               214254               170213DK     1400+00000+DK0000007711+0000007711+000000000+000001082+0000008790+0000000003+I20000000000+0000008790+Z
214254001214254079-000807     214254006003000670277ART+CRAFT WOODEN STICKS0000004000+00001490+00000+0001T   00001490+0000001729          1400 DUI130               1BZ
214254002214254903-005000     214254006002580020007SWT CT MALLOW FISH 120g0000001000+00001314+00000+0001T   00001314+0000001729          1400 DUI150               1BZ
214254003214254080-000133     214254006003000535613CARD&ENV MINI ASTD DSGN0000001000+00000437+00000+0001T   00000437+0000001729          1400 DUI112               1BZ
214255000214255               214255               170213DK     1400+00000+DK0000023714+0000023714+000000000+000003323+0000027037+0000000000+I40000027037+0000000000+Z
214255001214255264-025205     214255006003000642120MAISTO DINKY 4x4 REBELS0000003000+00007893+00000+0001T   00007893+0000001731          1400 DUI710               1BZ
214255002214255112-116038     214255006009681820246TCS CARRIER BAG MIDI   0000001000+00000035+00000+0001T   00000035+0000001731          1400 DUI090               1BZ
214256000214256               214256               170213DK     1400+00000+DK0000005960+0000005960+000000000+000000836+0000006790+0000000006+I20000000000+0000006790+Z
214256001214256019-071611     214256006003000513642PEBBLES W/GEM 10g CLEAR0000004000+00001490+00000+0001T   00001490+0000001732          1400 DUI510               1BZ
214257000214257               214257               170213DK     1400+00000+DK0000003507+0000003507+000000000+000000491+0000003990+0000000008+I20000000000+0000003990+Z
214257001214257031-000923     214257006001023669933P/FRAME BLK W/WORDS    0000001000+00003507+00000+0001T   00003507+0000001732          1400 DUI510               1BZ
214258000214258               214258               170213DK     1400+00000+DK0000005960+0000005960+000000000+000000836+0000006790+0000000006+I20000000000+0000006790+Z
214258001214258051-002401     214258006001023523570TRIGGER-SPRAYER   300ml0000002000+00001490+00000+0001T   00001490+0000001733          1400 DUI820               1BZ
214258002214258039-000108     214258006001023524034TEA-LITE CANDLES 8PCE  0000002000+00001490+00000+0001T   00001490+0000001733          1400 DUI510               1BZ
214259000214259               214259               170213DK     1400+00000+DK0000005785+0000005785+000000000+000000812+0000006590+0000000007+I20000000000+0000006590+Z
214259001214259027-000194     214259006001246602472MOP COMPLETE           0000001000+00002279+00000+0001T   00002279+0000001734          1400 DUI212               1BZ
214259002214259142-000815     214259006001023183903GLOVES RUBBER LARGE    0000001000+00001753+00000+0001T   00001753+0000001734          1400 DUI810               1BZ
214259003214259072-020353     214259006001023598097DOG/CAT-BOWL 17cm      0000001000+00001753+00000+0001T   00001753+0000001734          1400 DUI870               1BZ
214260000214260               214260               170213DK     1400+00000+DK0000006433+0000006433+000000000+000000902+0000007335+0000000000+I40000007335+0000000000+Z
214260001214260903-000216     214260006925925900966SWT MALLOW TWIST ERKO  0000001000+00000262+00000+0001T   00000262+0000001737          1400 DUI150               1BZ
214260002214260566-000066     214260006003000283675STICKERS GLITTER 25PCS 0000001000+00001753+00000+0001T   00001753+0000001737          1400 DUI130               1BZ
214260003214260079-000358     214260006003000591046ART+CRAFT FELT-TIP PENS0000001000+00003069+00000+0001T   00003069+0000001737          1400 DUI130               1BZ
214260004214260077-000407     214260006003000145096G/BAG PP 19X26X8CM     0000001000+00001314+00000+0001T   00001314+0000001737          1400 DUI112               1BZ
214260005214260112-116038     214260006009681820246TCS CARRIER BAG MIDI   0000001000+00000035+00000+0001T   00000035+0000001737          1400 DUI090               1BZ
214261000214261               214261               170213DK     1400+00000+DK0000009985+0000009985+000000000+000001402+0000011387+0000000000+I40000011387+0000000000+Z
214261001214261006-000118     214261006001023730725BALLOONS 6PC TWISTER   0000001000+00001753+00000+0001T   00001753+0000001741          1400 DUI131               1BZ
214261002214261079-009702-D   214261008427973059354PAPER SIRIO A2 RED COL 0000002000+00001051+00000+0001T   00001051+0000001741          1400 DUI130               1BZ
214261003214261006-001000     214261006003000093779HELIUM BALLOON FILL    0000010000+00000613+00000+0001T   00000613+0000001741          1400 DUI131               1BZ
214262000214262               214262               170213DK     1400+00000+DK0000014292+0000014292+000000000+000002003+0000016295+0000000000+I40000016295+0000000000+Z
214262001214262039-000332     214262006001023900470CANDLES 8PCE+NUMBERS   0000001000+00002630+00000+0001T   00002630+0000001743          1400 DUI510               1BZ
214262002214262077-000463     214262006003000321698G/BAG GLITTER MED20x28 0000001000+00002192+00000+0001T   00002192+0000001743          1400 DUI112               1BZ
214262003214262077-000315     214262006003000181186GIFT-BAG 20x28cm MATT  0000001000+00001578+00000+0001T   00001578+0000001743          1400 DUI112               1BZ
214262004214262492-055602     214262000078257556021SWIM-GOGGLES PLAY      0000001000+00002630+00000+0001T   00002630+0000001743          1400 DUI787               1BZ
214262005214262496-055501     214262000078257555017INTEX FUN RINGS        0000001000+00005262+00000+0001T   00005262+0000001743          1400 DUI787               1BZ
214263000214263               214263               170213DK     1400+00000+DK0000018418+0000018418+000000000+000002579+0000020997+0000000000+I40000020997+0000000000+Z
214263001214263903-000503     214263006001704006118SWT VAMPIRE FANGS 60G  0000001000+00000876+00000+0001T   00000876+0000001745          1400 DUI150               1BZ
214263002214263266-005301     214263006003000473854PLAY-SET FIREMAN       0000001000+00017542+00000+0001T   00017542+0000001745          1400 DUI710               1BZ
214264000214264               214264               170213DK     1400+00000+DK0000000876+0000000876+000000000+000000123+0000000990+0000000009+I20000000000+0000000990+Z
214264001214264077-000150-D   214264006003000054343GIFT-WRAP CELLPHANE CLR0000001000+00000876+00000+0001T   00000876+0000001745          1400 DUI112               1BZ
214265000214265               214265               170213DK     1400+00000+DK0000003507+0000003507+000000000+000000491+0000003998+0000000000+I40000003998+0000000000+Z
214265001214265018-005009     214265006001023725608MUG W/PLUSH-BEAR LOVE  0000001000+00003507+00000+0001T   00003507+0000001746          1400 DUI515               1BZ
214266000214266               214266               170213DK     1400+00000+DK0000001753+0000001753+000000000+000000246+0000001990+0000000009+I20000000000+0000001990+Z
214266001214266024-091100     214266006001023914224BAKING-CUPS PAPER 100PC0000001000+00001753+00000+0001T   00001753+0000001748          1400 DUI300               1BZ
214267000214267               214267               170213DK     1400+00000+DK0000001578+0000001578+000000000+000000221+0000001790+0000000009+I20000000000+0000001790+Z
214267001214267077-000315     214267006003000181186GIFT-BAG 20x28cm MATT  0000001000+00001578+00000+0001T   00001578+0000001748          1400 DUI112               1BZ
214268000214268               214268               170213DK     1400+00000+DK0000001314+0000001314+000000000+000000184+0000001490+0000000008+I20000000000+0000001490+Z
214268001214268077-000310     214268006001023608635GIFT-BAG 18X23CM GLOSS 0000001000+00001314+00000+0001T   00001314+0000001751          1400 DUI112               1BZ
214269000214269               214269               170213DK     1400+00000+DK0000000350+0000000350+000000000+000000049+0000000390+0000000009+I20000000000+0000000390+Z
214269001214269903-000159     214269006003000417629SWT LB SMALL DUMMIE    0000001000+00000350+00000+0001T   00000350+0000001751          1400 DUI150               1BZ
214270000214270               214270               170213DK     1400+00000+DK0000005262+0000005262+000000000+000000737+0000005990+0000000009+I20000000000+0000005990+Z
214270001214270031-000872-C   214270006001023798770P/FRAME PL BRONZE 20X250000001000+00005262+00000+0001T   00005262+0000001752          1400 DUI510               1BZ
214271000214271               214271               170213DK     1400+00000+DK0000005818+0000005818+000000000+000000818+0000006636+0000000000+I40000006636+0000000000+Z
214271001214271039-000026     214271006001023551610C/TAPERED 25CM M/RED   0000003000+00001051+00000+0001T   00001051+0000001753          1400 DUI510               1BZ
214271002214271019-071594     214271006003000505579PEBBLES GLS 250g RED   0000001000+00002630+00000+0001T   00002630+0000001753          1400 DUI510               1BZ
214271003214271112-116038     214271006009681820246TCS CARRIER BAG MIDI   0000001000+00000035+00000+0001T   00000035+0000001753          1400 DUI090               1BZ
214272000214272               214272               170213DK     1400+00000+DK0000006256+0000006256+000000000+000000878+0000007134+0000000000+I40000007134+0000000000+Z
214272001214272018-000170     214272006001023775528MUG OCC. LOVE 2PC MINI 0000001000+00002192+00000+0001T   00002192+0000001756          1400 DUI515               1BZ
214272002214272077-000310     214272006001023608635GIFT-BAG 18X23CM GLOSS 0000001000+00001314+00000+0001T   00001314+0000001756          1400 DUI112               1BZ
214272003214272112-116038     214272006009681820246TCS CARRIER BAG MIDI   0000001000+00000035+00000+0001T   00000035+0000001756          1400 DUI090               1BZ
214272004214272903-000517     214272006001704012768SWT STRAWS FIZZY CHERRY0000001000+00001227+00000+0001T   00001227+0000001756          1400 DUI150               1BZ
214272005214272080-000133-A   214272006003000647019MINI VALENTINES CARD   0000001000+00000437+00000+0001T   00000437+0000001756          1400 DUI112               1BZ
214272006214272903-002850     214272000000087108262MENTOS ROLL FRUIT      0000001000+00001051+00000+0001T   00001051+0000001756          1400 DUI150               1BZ
214273000214273               214273               170213DK     1400+00000+DK0000001753+0000001753+000000000+000000246+0000001990+0000000009+I20000000000+0000001990+Z
214273001214273200-003024     214273006001023657299REFUSE BAGS 20PCE BLACK0000001000+00001753+00000+0001T   00001753+0000001757          1400 DUI214               1BZ
214274000214274               214274               170213DK     1400+00000+DK0000005700+0000005700+000000000+000000798+0000006490+0000000008+I20000000000+0000006490+Z
214274001214274031-000922     214274006003000095100P/FRAME BIRDCAGE 9X12CM0000001000+00005700+00000+0001T   00005700+0000001757          1400 DUI510               1BZ
214275000214275               214275               170213DK     1400+00000+DK0000001314+0000001314+000000000+000000184+0000001490+0000000008+I20000000000+0000001490+Z
214275001214275046-000012     214275006904708013062BATTERIES AA  CARD-OF-40000001000+00001314+00000+0001T   00001314+0000001759          1400 DUI312               1BZ
214276000214276               214276               170213DK     1400+00000+DK0000001927+0000001927+000000000+000000271+0000002190+0000000008+I20000000000+0000002190+Z
214276001214276073-000152     214276006003000683390COSMETIC BAG 18X9X5    0000001000+00001490+00000+0001T   00001490+0000001800          1400 DUI200               1BZ
214276002214276083-000049     214276004891035200024CIG-LIGHTER DISPOSABLE 0000001000+00000437+00000+0001T   00000437+0000001800          1400 DUI315               1BZ
214277000214277               214277               170213DK     1400+00000+DK0000002630+0000002630+000000000+000000369+0000002999+0000000000+I40000002999+0000000000+Z
214277001214277077-000270     214277006003000395453GIFT-BAG PPR JMB 33X45 0000001000+00002630+00000+0001T   00002630+0000001801          1400 DUI112               1BZ
214278000214278               214278               170213DK     1400+00000+DK0000010261+0000010261+000000000+000001437+0000011698+0000000000+I40000011698+0000000000+Z
214278001214278077-000305     214278006003000395422GIFT-BAG WINE 10X35CM  0000001000+00001490+00000+0001T   00001490+0000001802          1400 DUI112               1BZ
214278002214278019-000076     214278006001023757159V/GLASS 25CM C/DESIGN  0000001000+00008771+00000+0001T   00008771+0000001802          1400 DUI510               1BZ
214279000214279               214279               170213DK     1400+00000+DK0000003980+0000003980+000000000+000000558+0000004530+0000000008+I20000000000+0000004530+Z
214279001214279112-116038     214279006009681820246TCS CARRIER BAG MIDI   0000001000+00000035+00000+0001T   00000035+0000001803          1400 DUI090               1BZ
214279002214279565-000002     214279006003000308071NOVELTY GROWING ANIMALS0000001000+00001753+00000+0001T   00001753+0000001803          1400 DUI745               1BZ
214279003214279369-001010     214279006001023864222BATH VINYL DUCK 4PC    0000001000+00002192+00000+0001T   00002192+0000001803          1400 DUI745               1BZ
214280000214280               214280               170213DK     1400+00000+DK0000004418+0000004418+000000000+000000620+0000005030+0000000008+I20000000000+0000005030+Z
214280001214280174-000025     214280006008766071603SUIT-BAG PL ZIPPERED   0000001000+00002630+00000+0001T   00002630+0000001804          1400 DUI205               1BZ
214280002214280366-006104     214280006003000616930DRESS UP FACE PAINT    0000001000+00001753+00000+0001T   00001753+0000001804          1400 DUI131               1BZ
214280003214280112-116038     214280006009681820246TCS CARRIER BAG MIDI   0000001000+00000035+00000+0001T   00000035+0000001804          1400 DUI090               1BZ
214281000214281               214281               170213DK     1400+00000+DK0000010568+0000010568+000000000+000001480+0000012040+0000000008+I20000000000+0000012040+Z
214281001214281018-005009     214281006001023725608MUG W/PLUSH-BEAR LOVE  0000001000+00003507+00000+0001T   00003507+0000001805          1400 DUI515               1BZ
214281002214281077-000310     214281006001023608635GIFT-BAG 18X23CM GLOSS 0000001000+00001314+00000+0001T   00001314+0000001805          1400 DUI112               1BZ
214281003214281031-000002-A   214281006003000247103P/FRAME LOVE 7.5X7.5CM 0000001000+00003507+00000+0001T   00003507+0000001805          1400 DUI510               1BZ
214281004214281080-000127     214281006003000424351VALENTINES DAY 36x24CM 0000001000+00002192+00000+0001T   00002192+0000001805          1400 DUI112               1BZ
214281005214281112-116069     214281006009681820277TCS CARRIER BAG JUMBO  0000001000+00000048+00000+0001T   00000048+0000001805          1400 DUI090               1BZ
214282000214282               214282               170213DK     1400+00000+DK0000001578+0000001578+000000000+000000221+0000001790+0000000009+I20000000000+0000001790+Z
214282001214282071-001028     214282008887013700385MARKER WHT-RND YM-500  0000001000+00001578+00000+0001T   00001578+0000001806          1400 DUI130               1BZ
214283000214283               214283               170213DK     1400+00000+DK0000001227+0000001227+000000000+000000172+0000001390+0000000009+I20000000000+0000001390+Z
214283001214283077-000245     214283006001023759214GIFT-RIBBON METALLICx2 0000001000+00001227+00000+0001T   00001227+0000001806          1400 DUI112               1BZ
214284000214284               214284               170213DK     1400+00000+DK0000004418+0000004418+000000000+000000619+0000005037+0000000000+I40000005037+0000000000+Z
214284001214284071-001238     214284000060107212485ERASERS  3PCE    CARDED0000001000+00000876+00000+0001T   00000876+0000001808          1400 DUI130               1BZ
214284002214284018-005009     214284006001023725608MUG W/PLUSH-BEAR LOVE  0000001000+00003507+00000+0001T   00003507+0000001808          1400 DUI515               1BZ
214284003214284112-116038     214284006009681820246TCS CARRIER BAG MIDI   0000001000+00000035+00000+0001T   00000035+0000001808          1400 DUI090               1BZ
214285000214285               214285               170213DK     1400+00000+DK0000006139+0000006139+000000000+000000860+0000006990+0000000009+I20000000000+0000006990+Z
214285001214285368-000175     214285006003000270316PLUSH BEAR 4 ASSTD 18CM0000001000+00006139+00000+0001T   00006139+0000001809          1400 DUI745               1BZ
214286000214286               214286               170213DK     1400+00000+DK0000004822+0000004822+000000000+000000676+0000005498+0000000000+I40000005498+0000000000+Z
214286001214286142-000812     214286006003000165421GLOVES LATEX 10PCE-5PRS0000001000+00002630+00000+0001T   00002630+0000001811          1400 DUI810               1BZ
214286002214286028-001050     214286006009619110128TUMBLER S/S 375ml      0000001000+00002192+00000+0001T   00002192+0000001811          1400 DUI305               1BZ
214287000214287               214287               170213DK     1400+00000+DK0000016488+0000016488+000000000+000002309+0000018790+0000000007+I20000000000+0000018790+Z
214287001214287564-000012     214287006001023130075BUBBLE BOTTLE MAGIC    0000001000+00000700+00000+0001T   00000700+0000001816          1400 DUI131               1BZ
214287002214287262-000417     214287006003000471508DIE CAST TRUCK 35cm    0000001000+00015788+00000+0001T   00015788+0000001816          1400 DUI710               1BZ
214288000214288               214288               170213DK     1400+00000+DK0000005308+0000005308+000000000+000000744+0000006050+0000000002+I20000000000+0000006050+Z
214288001214288018-000136     214288006001023659026MUG OCC LOVE W/PLUSH   0000001000+00003507+00000+0001T   00003507+0000001818          1400 DUI515               1BZ
214288002214288077-000454     214288006003000285266G/BAG METALLIC LRG EMB 0000001000+00001753+00000+0001T   00001753+0000001818          1400 DUI112               1BZ
214288003214288112-116069     214288006009681820277TCS CARRIER BAG JUMBO  0000001000+00000048+00000+0001T   00000048+0000001818          1400 DUI090               1BZ
214289000214289               214289               170213DK     1400+00000+DK0000001927+0000001927+000000000+000000270+0000002190+0000000007+I20000000000+0000002190+Z
214289001214289903-004952     214289006002580020052SWT FREAKY FACES 100G  0000001000+00001314+00000+0001T   00001314+0000001818          1400 DUI150               1BZ
214289002214289077-000311     214289006001023608666GIFT-BAG 11X14CM GLOSS 0000001000+00000613+00000+0001T   00000613+0000001818          1400 DUI112               1BZ
214290000214290               214290               170213DK     1400+00000+DK0000003287+0000003287+000000000+000000461+0000003748+0000000000+I40000003748+0000000000+Z
214290001214290077-000321     214290006001023677501GIFT-BAG 11X14CM E/D FL0000002000+00000613+00000+0001T   00000613+0000001823          1400 DUI112               1BZ
214290002214290564-000012     214290006001023130075BUBBLE BOTTLE MAGIC    0000002000+00000700+00000+0001T   00000700+0000001823          1400 DUI131               1BZ
214290003214290112-116069     214290006009681820277TCS CARRIER BAG JUMBO  0000001000+00000048+00000+0001T   00000048+0000001823          1400 DUI090               1BZ
214290005214290077-000321     214290006001023677501GIFT-BAG 11X14CM E/D FL0000001000+00000613+00000+0001T   00000613+0000001823          1400 DUI112               1BZ
214291000214291               214291               170213DK     1400+00000+DK0000002192-0000002192-000000000+000000307-0000002500-0000000001+I20000000000+0000002500-Z
214291001214291018-005009     214291006001023725608MUG W/PLUSH-BEAR LOVE  0000001000-00003507+00000+0001T   00003507+0000001826          1400 DUI5151IC            1 Z
214291002214291080-000127     214291006003000424351VALENTINES DAY 36x24CM 0000001000-00002192+00000+0001T   00002192+0000001826          1400 DUI1121IC            1 Z
214291003214291018-000130     214291006001023867537MUG OCC LOVE MINI+HEART0000001000+00003507+00000+0001T   00003507+0000001826          1400 DUI515               1 Z
214292000214292               214292               170213DK     1400+00000+DK0000017535+0000017535+000000000+000002455+0000019990+0000000000+I40000019990+0000000000+Z
214292001214292567-011429     214292009780799352603BK READER BEGIN LEES   0000001000+00003507+00000+0001T   00004823+0008141828          1400 DUI757               1BZ
214292002214292567-011429     214292009780799352580BK READER BEGIN LEES   0000001000+00003507+00000+0001T   00004823+0008141828          1400 DUI757               1BZ
214292003214292567-011429     214292009780799352597BK READER BEGIN LEES   0000001000+00003507+00000+0001T   00004823+0008141828          1400 DUI757               1BZ
214292004214292567-011429     214292009780799352610BK READER BEGIN LEES   0000001000+00003507+00000+0001T   00004823+0008141828          1400 DUI757               1BZ
214292005214292071-005060     214292006003000152186CELLOTAPE 2PACK INVSBLE0000001000+00003507+00000+0001T   00003507+0000001828          1400 DUI130               1BZ
214293000214293               214293               170213DK     1400+00000+DK0000000876+0000000876+000000000+000000123+0000000990+0000000009+I20000000000+0000000990+Z
214293001214293083-000295     214293006001023898562LIGHTER-GAS BUTANE 18ml0000001000+00000876+00000+0001T   00000876+0000001829          1400 DUI315               1BZ
214294000214294               214294               170213DK     1400+00000+DK0000003507+0000003507+000000000+000000491+0000003990+0000000008+I20000000000+0000003990+Z
214294001214294031-000923     214294006001023669933P/FRAME BLK W/WORDS    0000001000+00003507+00000+0001T   00003507+0000001830          1400 DUI510               1BZ
214295000214295               214295               170213DK     1400+00000+DK0000000613+0000000613+000000000+000000086+0000000690+0000000009+I20000000000+0000000690+Z
214295001214295304-001011     214295006001023806727FLWR ROSE RED W/BEAR   0000001000+00000613+00000+0001T   00000788+0006471830          1400 DUI510               1BZ
214296000214296               214296               170213DK     1400+00000+DK0000003190+0000003190+000000000+000000448+0000003630+0000000008+I20000000000+0000003630+Z
214296001214296105-001055     214296006003000219384LUNCH BOX 3-DIVISION   0000001000+00001753+00000+0001T   00002630+0008161833          1400 DUI210               1BZ
214296002214296105-000750     214296006003000190270CONTAINERS 4xMINI 150ml0000001000+00001402+00000+0001T   00001402+0000001833          1400 DUI210               1BZ
214296003214296112-116038     214296006009681820246TCS CARRIER BAG MIDI   0000001000+00000035+00000+0001T   00000035+0000001833          1400 DUI090               1BZ
214297000214297               214297               170213DK     1400+00000+DK0000011400+0000011400+000000000+000001597+0000012997+0000000000+I40000012997+0000000000+Z
214297001214297071-030013     214297006003000283965PEN NVLTY NEON GEL 6PC 0000001000+00002630+00000+0001T   00002630+0000001834          1400 DUI130               1BZ
214297002214297007-000547     214297006001023847966N/BOOK/DIARY+PEN ASSTD 0000001000+00004385+00000+0001T   00004385+0000001834          1400 DUI130               1BZ
214297003214297007-000653     214297006001023784469NOTE-BOOK SET+PEN+BAG  0000001000+00004385+00000+0001T   00004385+0000001834          1400 DUI130               1BZ
214298000214298               214298               170213DK     1400+00000+DK0000005262+0000005262+000000000+000000737+0000005990+0000000009+I20000000000+0000005990+Z
214298001214298567-010161     214298009780000008516BOOK TOP ASSTD MILLS   0000001000+00005262+00000+0001T   00005262+0000001836          1400 DUI757               1BZ
214299000214299               214299               170213DK     1400+00000+DK0000003507+0000003507+000000000+000000491+0000003990+0000000008+I20000000000+0000003990+Z
214299001214299079-000801     214299006003000539642ART+CRAFT COLOUR       0000001000+00003507+00000+0001T   00003507+0000001851          1400 DUI130               1BZ
214300000214300               214300               170213DK     1400+00000+DK0000003329+0000003329+000000000+000000467+0000003796+0000000000+I40000003796+0000000000+Z
214300001214300903-000087     214300006001704000161SWT SPECKLED-EGGS 50G  0000001000+00001139+00000+0001T   00001139+0000001854          1400 DUI150               1BZ
214300002214300039-000108     214300006001023524034TEA-LITE CANDLES 8PCE  0000001000+00001490+00000+0001T   00001490+0000001854          1400 DUI510               1BZ
214300003214300088-000103     214300006008766127102INCENSE 20PCE ASSTD    0000001000+00000700+00000+0001T   00000700+0000001854          1400 DUI212               1BZ
214301000214301               214301               170213DK     1400+00000+DK0000002190+0000002190+000000000+000000308+0000002490+0000000008+I20000000000+0000002490+Z
214301001214301080-000133     214301006003000535613CARD&ENV MINI ASTD DSGN0000001000+00000437+00000+0001T   00000437+0000001855          1400 DUI112               1BZ
214301002214301077-000116     214301006003000240777GIFT-WRAP 700mmx2m COL 0000001000+00001753+00000+0001T   00001753+0000001855          1400 DUI112               1BZ
214302000214302               214302               170213DK     1400+00000+DK0000003507+0000003507+000000000+000000491+0000003990+0000000008+I20000000000+0000003990+Z
214302001214302079-000801     214302006003000539642ART+CRAFT COLOUR       0000001000+00003507+00000+0001T   00003507+0000001856          1400 DUI130               1BZ
214303000214303               214303               170213DK     1400+00000+DK0000003857+0000003857+000000000+000000541+0000004390+0000000008+I20000000000+0000004390+Z
214303001214303077-000322     214303006001023677532GIFT-BAG 18X23CM E/D FL0000001000+00001227+00000+0001T   00001227+0000001904          1400 DUI112               1BZ
214303002214303018-000129     214303006001023403353MUG OCC. LOVE V-SHAPE  0000001000+00002630+00000+0001T   00002630+0000001904          1400 DUI515               1BZ
A17021300                                          14255486DKSLAVE 1                       DUI1IC
A17021301                                          14344069DKSLAVE 1                       DUI1IC
A17021302                                          17200239DKSLAVE 1                       DUI1IC
A17021303                                          18522267DKSLAVE 1                       DUI1IC
C21419400                                          170213DK586-010655     12381508SLAVE 1     DUI2IC0000000000+0000000000+0080000001000+
C21420800                                          170213DK059-011605     13112123SLAVE 1     DUI1IC0000000000+0000000000+0010000003000+
C21429000                                          170213DK077-000377     18215066SLAVE 1     DUI1IC0000000000+0000000000+0040000001000+
M17021391                              CASH        DKSLAVE 1                       Z-REPORT No.   654TOTAL (Sales - Refunds)           8642.65       CASH TO BE BANKED                 2910.00       DEBIT CARDS                          0.00       CREDIT CARDS                      5667.05       Z-READING                         8577.05       AIRTIME DEBIT CARD SALES             0.00       AIRTIME CARD SALES                   0.00       OVERS/UNDERS                         0.00       AIRTIME CASH SALES                   0.00       GIFT CARDS                           0.00       GIFT CARD CASH SALES                 0.00       STATIONERY(PHOTOCOPIES)              5.70       CLEANING-MATERIALS                  59.90       T O T A L  CASH PAYOUTS             65.60                                                                                                                                                                                                                                                      Z
M17021392                              CASH        DKABSENT                                                                                                                                                                                          ANNUAL LEAVE                                                                                                                                                                                    DAY OFF                                                                                                                                                                                         COMMENTS                                                                                                                                                                                                                                                                                                                                                                                       Z
Y17021300                                          DK00000000764202+000126
ZDK17021319283 SLAVE 1      SALES DATA                     NEXT INVOICE NO.  214304 0654
X DK Slave 1 First invoice 214176 170213 Last invoice 214303 170213 Next invoice 214304 Total number of records 000000420 clbackup completed 19:28:42
