227415000227415               227415               170213DK     1400+00000+DK0000005132+0000005132+000000000+000000720+0000005850+0000000002+I20000000000+0000005850+Z
227415001227415112-116069     227415006009681820277TCS CARRIER BAG JUMBO  0000001000+00000048+00000+0001T   00000048+0000000902          1400 R81090               2BZ
227415002227415076-000030-H   227415006001023429544WASHING-LINE 30m    H&H0000001000+00002630+00000+0001T   00002630+0000000902          1400 R81810               2BZ
227415003227415251-000041     227415006001023515889SEAL-TAPE BUFF 48mmx50m0000002000+00001227+00000+0001T   00001227+0000000902          1400 R81810               2BZ
227416000227416               227416               170213DK     1400+00000+DK0000001490+0000001490+000000000+000000209+0000001690+0000000009+I20000000000+0000001690+Z
227416001227416051-002401     227416006001023523570TRIGGER-SPRAYER   300ml0000001000+00001490+00000+0001T   00001490+0000000925          1400 R81820               2BZ
227417000227417               227417               170213DK     1400+00000+DK0000001400+0000001400+000000000+000000196+0000001590+0000000006+I20000000000+0000001590+Z
227417001227417564-000012     227417006001023130075BUBBLE BOTTLE MAGIC    0000002000+00000700+00000+0001T   00000700+0000000927          1400 R81131               2BZ
227418000227418               227418               170213DK     1400+00000+DK0000003945+0000003945+000000000+000000553+0000004490+0000000008+I20000000000+0000004490+Z
227418001227418566-000050     227418006003000163731STICKERS REWARD        0000001000+00002192+00000+0001T   00002192+0000000932          1400 R81130               2BZ
227418002227418079-013032-B   227418006003000389445MIXED SHAPES           0000001000+00001753+00000+0001T   00001753+0000000932          1400 R81130               2BZ
227419000227419               227419               170213DK     1400+00000+DK0000005259+0000005259+000000000+000000738+0000005997+0000000000+I40000005997+0000000000+Z
227419001227419038-092232     227419006001023625830TABLE-MAT N/SLIP 32x55 0000003000+00001753+00000+0001T   00001753+0000000934          1400 R81300               2BZ
227420000227420               227420               170213DK     1400+00000+DK0000017217+0000017217+000000000+000002413+0000019630+0000000000+I40000019630+0000000000+Z
227420001227420112-116038     227420006009681820246TCS CARRIER BAG MIDI   0000001000+00000035+00000+0001T   00000035+0000000939          1400 R81090               2BZ
227420002227420018-005009     227420006001023725608MUG W/PLUSH-BEAR LOVE  0000002000+00003507+00000+0001T   00003507+0000000939          1400 R81515               2BZ
227420003227420040-000200     227420006003000381586C/HLDER CERC INSP. ASST0000001000+00003069+00000+0001T   00003069+0000000939          1400 R81510               2BZ
227420004227420903-002890     227420008935001721352MENTOS GUM PURE F/MINT 0000002000+00001051+00000+0001T   00001051+0000000939          1400 R81150               2BZ
227420005227420174-008034     227420006009654960610TRAVEL BOTTLES 150ml   0000001000+00001928+00000+0001T   00001928+0000000939          1400 R81205               2BZ
227420006227420089-060027     227420006003000245871KEY-CHAIN HEART 6X6cm  0000001000+00003069+00000+0001T   00003069+0000000939          1400 R81205               2BZ
227421000227421               227421               170213DK     1400+00000+DK0000008770+0000008770+000000000+000001228+0000009998+0000000000+I40000009998+0000000000+Z
227421001227421368-000049     227421006003000536955PLUSH BEAR 15cm LOVE   0000002000+00004385+00000+0001T   00004385+0000000941          1400 R81745               2BZ
227422000227422               227422               170213DK     1400+00000+DK0000008771+0000008771+000000000+000001228+0000009999+0000000000+I40000009999+0000000000+Z
227422001227422466-001100     227422006003000470297C/SET FOAM 60cm +1 BALL0000001000+00008771+00000+0001T   00008771+0000000945          1400 R81785               2BZ
227423000227423               227423               170213DK     1400+00000+DK0000001788+0000001788+000000000+000000251+0000002030+0000000009+I20000000000+0000002030+Z
227423001227423200-003024     227423006001023657299REFUSE BAGS 20PCE BLACK0000001000+00001753+00000+0001T   00001753+0000000947          1400 R81214               2BZ
227423002227423112-116038     227423006009681820246TCS CARRIER BAG MIDI   0000001000+00000035+00000+0001T   00000035+0000000947          1400 R81090               2BZ
227424000227424               227424               170213DK     1400+00000+DK0000002192+0000002192+000000000+000000307+0000002490+0000000009+I20000000000+0000002490+Z
227424001227424027-008814     227424006001023797155DUSTER POLYESTER 58cm  0000001000+00002192+00000+0001T   00002192+0000000947          1400 R81212               2BZ
227425000227425               227425               170213DK     1400+00000+DK0000003102+0000003102+000000000+000000435+0000003530+0000000007+I20000000000+0000003530+Z
227425001227425112-116038     227425006009681820246TCS CARRIER BAG MIDI   0000001000+00000035+00000+0001T   00000035+0000000951          1400 R81090               2BZ
227425002227425078-000026     227425006936198407090SUPERGLUE 3,0g GEL     0000001000+00001753+00000+0001T   00001753+0000000951          1400 R81810               2BZ
227425003227425251-000001     227425006001023487681TAPE DBL-SIDE 18x1000mm0000001000+00001314+00000+0001T   00001314+0000000951          1400 R81810               2BZ
227426000227426               227426               170213DK     1400+00000+DK0000003506+0000003506+000000000+000000492+0000003998+0000000000+I40000003998+0000000000+Z
227426001227426006-000120     227426006001023346889BALLOONS 10PC MIX COL  0000002000+00001753+00000+0001T   00001753+0000000955          1400 R81131               2BZ
227427000227427               227427               170213DK     1400+00000+DK0000001753+0000001753+000000000+000000246+0000001990+0000000009+I20000000000+0000001990+Z
227427001227427071-002999-A   227427006003000611577PEN STICKBALL 10PCE ASS0000001000+00001753+00000+0001T   00001753+0000000957          1400 R81130               2BZ
227428000227428               227428               170213DK     1400+00000+DK0000001314+0000001314+000000000+000000184+0000001490+0000000008+I20000000000+0000001490+Z
227428001227428565-000042     227428006003000252459NOVELTY STRESS BALL    0000001000+00001314+00000+0001T   00001314+0000000958          1400 R81745               2BZ
227429000227429               227429               170213DK     1400+00000+DK0000003541+0000003541+000000000+000000497+0000004030+0000000008+I20000000000+0000004030+Z
227429001227429566-000038     227429006003000100514TATTOO METALLIC 6 ASST 0000002000+00001753+00000+0001T   00001753+0000001001          1400 R81130               2BZ
227429002227429112-116038     227429006009681820246TCS CARRIER BAG MIDI   0000001000+00000035+00000+0001T   00000035+0000001001          1400 R81090               2BZ
227430000227430               227430               170213DK     1400+00000+DK0000005262+0000005262+000000000+000000737+0000005999+0000000000+I40000005999+0000000000+Z
227430001227430566-000320     227430006003000422890STICKERS R/DEC. NATURE 0000001000+00005262+00000+0001T   00005262+0000001003          1400 R81130               2BZ
227431000227431               227431               170213DK     1400+00000+DK0000000437+0000000437+000000000+000000062+0000000490+0000000009+I20000000000+0000000490+Z
227431001227431080-000133-A   227431006003000647019MINI VALENTINES CARD   0000001000+00000437+00000+0001T   00000437+0000001006          1400 R81112               2BZ
227432000227432               227432               170213DK     1400+00000+DK0000004418+0000004418+000000000+000000620+0000005030+0000000008+I20000000000+0000005030+Z
227432001227432020-000620     227432006001023629722UTILITY-KNIFE 12cm-BLDE0000001000+00002630+00000+0001T   00002630+0000001010          1400 R81300               2BZ
227432002227432200-003024     227432006001023657299REFUSE BAGS 20PCE BLACK0000001000+00001753+00000+0001T   00001753+0000001010          1400 R81214               2BZ
227432003227432112-116038     227432006009681820246TCS CARRIER BAG MIDI   0000001000+00000035+00000+0001T   00000035+0000001010          1400 R81090               2BZ
227433000227433               227433               170213DK     1400+00000+DK0000014937+0000014937+000000000+000002096+0000017030+0000000003+I20000000000+0000017030+Z
227433001227433565-000001     227433006003000307951NOVELTY INSECT BALL    0000003000+00002630+00000+0001T   00002630+0000001018          1400 R81745               2BZ
227433002227433112-116038     227433006009681820246TCS CARRIER BAG MIDI   0000001000+00000035+00000+0001T   00000035+0000001018          1400 R81090               2BZ
227433003227433048-000859     227433006003000423422TORCH 9 LED PL 3XAAA   0000003000+00001753+00000+0001T   00001753+0000001018          1400 R81305               2BZ
227433004227433046-000014-A   227433004897006177708BATTERIES SIZE:AAA 8PCE0000001000+00001753+00000+0001T   00001753+0000001018          1400 R81312               2BZ
227434000227434               227434               170213DK     1400+00000+DK0000011400+0000011400+000000000+000001596+0000012990+0000000006+I20000000000+0000012990+Z
227434001227434159-000801     227434006001023999832BATHMAT 36x59cm ASST   0000002000+00005700+00000+0001T   00005700+0000001020          1400 R81200               2BZ
227435000227435               227435               170213DK     1400+00000+DK0000003504+0000003504+000000000+000000493+0000003990+0000000007+I20000000000+0000003990+Z
227435001227435080-000133-A   227435006003000647019MINI VALENTINES CARD   0000002000+00000437+00000+0001T   00000437+0000001033          1400 R81112               2BZ
227435002227435206-000620     227435006003000631797BACK SCRATCHER EXTEND  0000001000+00002630+00000+0001T   00002630+0000001033          1400 R81321               2BZ
227436000227436               227436               170213DK     1400+00000+DK0000011450+0000011450+000000000+000001604+0000013054+0000000000+I40000013054+0000000000+Z
227436001227436112-116069     227436006009681820277TCS CARRIER BAG JUMBO  0000001000+00000048+00000+0001T   00000048+0000001040          1400 R81090               2BZ
227436003227436040-000103     227436000694202201862C/HOLDER-SET 5PC W/TRAY0000001000+00011402+00000+0001T   00013157+0008191040          1400 R81510               2BZ
227437000227437               227437               170213DK     1400+00000+DK0000007890+0000007890+000000000+000001105+0000008990+0000000005+I20000000000+0000008990+Z
227437001227437001-000167     227437006001023679659TUMBLER 340ml WILLY    0000001000+00000876+00000+0001T   00000876+0000001044          1400 R81515               2BZ
227437002227437072-020266     227437006003000400591PET PUPPY TRAINING PAD 0000002000+00003507+00000+0001T   00003507+0000001044          1400 R81870               2BZ
227438000227438               227438               170213DK     1400+00000+DK0000015397+0000015397+000000000+000002156+0000017553+0000000000+I40000017553+0000000000+Z
227438001227438080-000127     227438006003000424351VALENTINES DAY 36x24CM 0000001000+00002192+00000+0001T   00002192+0000001046          1400 R81112               2BZ
227438002227438031-000009     227438006003000306381P/FRAME COLLAGE HEARTS 0000001000+00013157+00000+0001T   00013157+0000001046          1400 R81510               2BZ
227438003227438112-116069     227438006009681820277TCS CARRIER BAG JUMBO  0000001000+00000048+00000+0001T   00000048+0000001046          1400 R81090               2BZ
227439000227439               227439               170213DK     1400+00000+DK0000001314+0000001314+000000000+000000184+0000001490+0000000008+I20000000000+0000001490+Z
227439001227439251-000001     227439006001023487681TAPE DBL-SIDE 18x1000mm0000001000+00001314+00000+0001T   00001314+0000001047          1400 R81810               2BZ
227440000227440               227440               170213DK     1400+00000+DK0000003944+0000003944+000000000+000000553+0000004490+0000000007+I20000000000+0000004490+Z
227440001227440077-000310     227440006001023608635GIFT-BAG 18X23CM GLOSS 0000001000+00001314+00000+0001T   00001314+0000001047          1400 R81112               2BZ
227440002227440251-000012     227440006001023597915TAPE DUCT GREY 48mmx5m 0000001000+00002630+00000+0001T   00002630+0000001047          1400 R81810               2BZ
227441000227441               227441               170213DK     1400+00000+DK0000001753+0000001753+000000000+000000246+0000001990+0000000009+I20000000000+0000001990+Z
227441001227441080-000112     227441006003000252749CARD&ENVLP BDAY-MUSICAL0000001000+00001753+00000+0001T   00001753+0000001048          1400 R81112               2BZ
227442000227442               227442               170213DK     1400+00000+DK0000003507+0000003507+000000000+000000491+0000003990+0000000008+I20000000000+0000003990+Z
227442001227442050-000263-Z   227442006001023777041PADLOCK BRS 32mm CARDED0000001000+00003507+00000+0001T   00003507+0000001049          1400 R81855               2BZ
227443000227443               227443               170213DK     1400+00000+DK0000008800+0000008800+000000000+000001235+0000010035+0000000000+I40000010035+0000000000+Z
227443001227443112-116038     227443006009681820246TCS CARRIER BAG MIDI   0000001000+00000035+00000+0001T   00000035+0000001051          1400 R81090               2BZ
227443002227443051-002402     227443006001023518347TRIGGER-SPRAYER  500ml 0000005000+00001753+00000+0001T   00001753+0000001051          1400 R81820               2BZ
227444000227444               227444               170213DK     1400+00000+DK0000007482+0000007482+000000000+000001051+0000008533+0000000000+I40000008533+0000000000+Z
227444001227444903-000889     227444006009702259192SWT GUM BEECHIES S/MINT0000001000+00000788+00000+0001T   00000788+0000001053          1400 R81150               2BZ
227444002227444903-000891     227444006009702258997SWT GUM BEECHIES MUSK  0000001000+00000788+00000+0001T   00000788+0000001053          1400 R81150               2BZ
227444003227444018-000136     227444006001023659026MUG OCC LOVE W/PLUSH   0000001000+00003507+00000+0001T   00003507+0000001053          1400 R81515               2BZ
227444004227444112-116038     227444006009681820246TCS CARRIER BAG MIDI   0000001000+00000035+00000+0001T   00000035+0000001053          1400 R81090               2BZ
227444005227444903-000889     227444006009702259192SWT GUM BEECHIES S/MINT0000003000+00000788+00000+0001T   00000788+0000001053          1400 R81150               2BZ
227445000227445               227445               170213DK     1400+00000+DK0000014957+0000014957+000000000+000002095+0000017050+0000000002+I20000000000+0000017050+Z
227445001227445006-000190     227445006003000685530BALLOONS LOVE 81x91cm  0000001000+00004385+00000+0001T   00004385+0000001058          1400 R81131               2BZ
227445002227445368-000614     227445006001023705808PLUSH LOVE 30cm        0000001000+00008771+00000+0001T   00008771+0000001058          1400 R81745               2BZ
227445003227445077-000290     227445006001023902023GIFT BOX 26x32x13cm    0000001000+00001753+00000+0001T   00001753+0000001058          1400 R81112               2BZ
227445004227445112-116069     227445006009681820277TCS CARRIER BAG JUMBO  0000001000+00000048+00000+0001T   00000048+0000001058          1400 R81090               2BZ
227446000227446               227446               170213DK     1400+00000+DK0000008327+0000008327+000000000+000001168+0000009495+0000000000+I40000009495+0000000000+Z
227446001227446301-000016     227446006001023817556ORN SENTIMENT HEART ASS0000001000+00002630+00000+0001T   00002630+0000001114          1400 R81505               2BZ
227446002227446003-000119     227446006001023805409ORN MSG STONE W/GNOME  0000001000+00002630+00000+0001T   00002630+0000001114          1400 R81505               2BZ
227446003227446046-000012     227446006904708013062BATTERIES AA  CARD-OF-40000001000+00001314+00000+0001T   00001314+0000001114          1400 R81312               2BZ
227446004227446046-000014-A   227446004897006177708BATTERIES SIZE:AAA 8PCE0000001000+00001753+00000+0001T   00001753+0000001114          1400 R81312               2BZ
227447000227447               227447               170213DK     1400+00000+DK0000012277+0000012277+000000000+000001719+0000013996+0000000000+I40000013996+0000000000+Z
227447001227447266-005280     227447006003000656691BOYS PLAYSET SOLDIERS  0000001000+00003507+00000+0001T   00003507+0000001119          1400 R81710               2BZ
227447002227447072-020253     227447006001023535696PET DOG TOY RUBBER BONE0000001000+00004385+00000+0001T   00004385+0000001119          1400 R81870               2BZ
227447003227447565-000886     227447006003000337057CRITTERS PUFFER BALLS  0000001000+00004385+00000+0001T   00004385+0000001119          1400 R81745               2BZ
227448000227448               227448               170213DK     1400+00000+DK0000015778+0000015778+000000000+000002214+0000017992+0000000000+I40000017992+0000000000+Z
227448001227448368-000040     227448006003000671786PLUSH ICONS 7.5cm      0000002000+00002630+00000+0001T   00002630+0000001121          1400 R81745               2BZ
227448002227448492-055602     227448000078257556021SWIM-GOGGLES PLAY      0000001000+00002630+00000+0001T   00002630+0000001121          1400 R81787               2BZ
227448003227448566-001501     227448006003000658398STICKER PAPER EMOTION  0000001000+00001753+00000+0001T   00001753+0000001121          1400 R81130               2BZ
227448004227448566-000200     227448006003000384174STICKER PUFFY NEON     0000001000+00000876+00000+0001T   00000876+0000001121          1400 R81130               2BZ
227448005227448566-001228     227448006003000284153STICKERS CRYSTAL ASSTD 0000001000+00001753+00000+0001T   00001753+0000001121          1400 R81130               2BZ
227448006227448362-003000     227448006003000295258GIRL HEART NOTEBOOK    0000002000+00001753+00000+0001T   00002630+0008191121          1400 R81160               2BZ
227449000227449               227449               170213DK     1400+00000+DK0000015806+0000015806+000000000+000002220+0000018026+0000000000+I40000018026+0000000000+Z
227449001227449112-116038     227449006009681820246TCS CARRIER BAG MIDI   0000001000+00000035+00000+0001T   00000035+0000001126          1400 R81090               2BZ
227449002227449361-003015     227449006003000543168DOLLS 14CM MERMAIDS 4PC0000001000+00005262+00000+0001T   00005262+0000001126          1400 R81725               2BZ
227449003227449565-000082     227449006003000643639NOVELTY JUMPING BALLS  0000001000+00002192+00000+0001T   00002192+0000001126          1400 R81745               2BZ
227449004227449079-000358     227449006003000591046ART+CRAFT FELT-TIP PENS0000001000+00003069+00000+0001T   00003069+0000001126          1400 R81130               2BZ
227449005227449006-000324     227449006001023818393PARTY POPPER`S PCK-OF-60000001000+00001753+00000+0001T   00001753+0000001126          1400 R81131               2BZ
227449006227449903-000094     227449006923431501622SWT GS CANDY NECKLACE  0000005000+00000437+00000+0001T   00000437+0000001126          1400 R81150               2BZ
227449007227449903-000216     227449006925925900966SWT MALLOW TWIST ERKO  0000005000+00000262+00000+0001T   00000262+0000001126          1400 R81150               2BZ
227450000227450               227450               170213DK     1400+00000+DK0000004200+0000004200+000000000+000000588+0000004780+0000000008+I20000000000+0000004780+Z
227450001227450903-000070     227450006001704001106SWT TOFFEE CREAMY 35g  0000006000+00000700+00000+0001T   00000700+0000001127          1400 R81150               2BZ
227451000227451               227451               170213DK     1400+00000+DK0000007802+0000007802+000000000+000001093+0000008895+0000000000+I40000008895+0000000000+Z
227451001227451079-013102     227451006003000019601ART+CRAFT DIY PIPE-CLNR0000001000+00002192+00000+0001T   00002192+0000001130          1400 R81130               2BZ
227451002227451028-000796     227451006001023812094SKEWERS 25cm 50PCE 4mm 0000001000+00001490+00000+0001T   00001490+0000001130          1400 R81305               2BZ
227451003227451200-000065     227451006001023323675DRINKING-STRAWS 38PCE  0000001000+00000613+00000+0001T   00000613+0000001130          1400 R81214               2BZ
227451004227451071-005060     227451006003000152186CELLOTAPE 2PACK INVSBLE0000001000+00003507+00000+0001T   00003507+0000001130          1400 R81130               2BZ
227452000227452               227452               170213DK     1400+00000+DK0000006139-0000006139-000000000+000000860-0000007000-0000000001+I20000000000+0000007000-Z
227452001227452082-098769     227452006001492987699SUNGLASS LADIES AVIATOR0000001000-00006139+00000+0001T   00006139+0000001134          1400 R811602IC            2 Z
227453000227453               227453               170213DK     1400+00000+DK0000008818+0000008818+000000000+000001235+0000010053+0000000000+I40000010053+0000000000+Z
227453001227453112-116069     227453006009681820277TCS CARRIER BAG JUMBO  0000001000+00000048+00000+0001T   00000048+0000001143          1400 R81090               2BZ
227453002227453105-007010-B   227453006002580007381CONTAINER 9L ASSORTED  0000002000+00004385+00000+0001T   00004385+0000001143          1400 R81210               2BZ
227454000227454               227454               170213DK     1400+00000+DK0000004822+0000004822+000000000+000000676+0000005498+0000000000+I40000005498+0000000000+Z
227454001227454033-006004     227454006001023703316SEWING-KIT IN-POUCH    0000001000+00002192+00000+0001T   00002192+0000001146          1400 R81200               2BZ
227454002227454007-000327     227454006009699513406PAPER A4 80GSM WHT 100 0000001000+00002630+00000+0001T   00002630+0000001146          1400 R81130               2BZ
227455000227455               227455               170213DK     1400+00000+DK0000000874+0000000874+000000000+000000124+0000000990+0000000008+I20000000000+0000000990+Z
227455001227455080-000133-A   227455006003000647019MINI VALENTINES CARD   0000002000+00000437+00000+0001T   00000437+0000001147          1400 R81112               2BZ
227456000227456               227456               170213DK     1400+00000+DK0000009648+0000009648+000000000+000001351+0000010999+0000000000+I40000010999+0000000000+Z
227456001227456031-005924     227456006003000420889P/FRAME CERT PL ASTD A40000001000+00009648+00000+0001T   00009648+0000001149          1400 R81510               2BZ
227457000227457               227457               170213DK     1400+00000+DK0000003506+0000003506+000000000+000000492+0000003998+0000000000+I40000003998+0000000000+Z
227457001227457088-000084     227457006001023798060P/POURRI 120G ASSTD    0000001000+00001753+00000+0001T   00001753+0000001150          1400 R81212               2BZ
227457002227457019-000103     227457006003000280957VASE GLASS BUD 14CM ASS0000001000+00001753+00000+0001T   00001753+0000001150          1400 R81510               2BZ
227458000227458               227458               170213DK     1400+00000+DK0000001753+0000001753+000000000+000000246+0000001990+0000000009+I20000000000+0000001990+Z
227458001227458206-000590     227458006003000633708BAG CLIPS LIPS 2PC     0000001000+00001753+00000+0001T   00001753+0000001151          1400 R81321               2BZ
227459000227459               227459               170213DK     1400+00000+DK0000003507+0000003507+000000000+000000491+0000003990+0000000008+I20000000000+0000003990+Z
227459001227459071-005060     227459006003000152186CELLOTAPE 2PACK INVSBLE0000001000+00003507+00000+0001T   00003507+0000001151          1400 R81130               2BZ
227460000227460               227460               170213DK     1400+00000+DK0000000035+0000000035+000000000+000000005+0000000040+0000000000+I20000000000+0000000040+Z
227460001227460112-116038     227460006009681820246TCS CARRIER BAG MIDI   0000001000+00000035+00000+0001T   00000035+0000001152          1400 R81090               2BZ
227461000227461               227461               170213DK     1400+00000+DK0000001490+0000001490+000000000+000000209+0000001690+0000000009+I20000000000+0000001690+Z
227461001227461565-000049     227461006003000548156NOVELTY SLIME "BOOGERS"0000001000+00001490+00000+0001T   00001490+0000001207          1400 R81745               2BZ
227462000227462               227462               170213DK     1400+00000+DK0000000876+0000000876+000000000+000000123+0000000990+0000000009+I20000000000+0000000990+Z
227462001227462077-000011-C   227462006001023808523TISSUE 10xSHTS RED     0000001000+00000876+00000+0001T   00000876+0000001208          1400 R81112               2BZ
227463000227463               227463               170213DK     1400+00000+DK0000031953+0000031953+000000000+000004476+0000036429+0000000000+I40000036429+0000000000+Z
227463001227463567-011512     227463009781445430461BK FOOD PAR 100 RECIPES0000001000+00003244+00000+0001T   00003244+0000001217          1400 R81757               2BZ
227463002227463567-011513     227463009781445430409BK FOOD PAR 100 RECIPES0000001000+00003244+00000+0001T   00003244+0000001217          1400 R81757               2BZ
227463003227463567-011432     227463009780600621324BOOK HAMLYN 200 LOW CAL0000001000+00003507+00000+0001T   00003507+0000001217          1400 R81757               2BZ
227463004227463567-011430     227463009780600618607BOOK FOOD HAMLYN 200   0000001000+00003507+00000+0001T   00003507+0000001217          1400 R81757               2BZ
227463005227463567-011435     227463009780600625292BOOK HAMLY 200 10-MIN  0000001000+00003507+00000+0001T   00003507+0000001217          1400 R81757               2BZ
227463006227463567-011901     227463006003000677610BK PROMO CLEARANCE     0000002000+00004385+00000+0001T   00006139+0008141217          1400 R81757               2BZ
227463007227463112-116038     227463006009681820246TCS CARRIER BAG MIDI   0000001000+00000035+00000+0001T   00000035+0000001217          1400 R81090               2BZ
227463008227463567-011517     227463009781472330178BK FOOD PAR 1 MIX-100  0000001000+00006139+00000+0001T   00006139+0000001217          1400 R81757               2BZ
227464000227464               227464               170213DK     1400+00000+DK0000002366+0000002366+000000000+000000332+0000002698+0000000000+I40000002698+0000000000+Z
227464001227464903-000503     227464006001704006118SWT VAMPIRE FANGS 60G  0000001000+00000876+00000+0001T   00000876+0000001219          1400 R81150               2BZ
227464002227464565-004101     227464006003000548033BALL BOUNCING EGG      0000001000+00001490+00000+0001T   00001490+0000001219          1400 R81745               2BZ
227465000227465               227465               170213DK     1400+00000+DK0000004385+0000004385+000000000+000000614+0000004990+0000000009+I20000000000+0000004990+Z
227465001227465002-000706     227465006001023111456SPATTER-PREVENTOR 28cm 0000001000+00004385+00000+0001T   00004385+0000001220          1400 R81300               2BZ
227466000227466               227466               170213DK     1400+00000+DK0000004856+0000004856+000000000+000000680+0000005530+0000000006+I20000000000+0000005530+Z
227466001227466077-000310     227466006001023608635GIFT-BAG 18X23CM GLOSS 0000001000+00001314+00000+0001T   00001314+0000001224          1400 R81112               2BZ
227466002227466018-000136     227466006001023659026MUG OCC LOVE W/PLUSH   0000001000+00003507+00000+0001T   00003507+0000001224          1400 R81515               2BZ
227466003227466112-116038     227466006009681820246TCS CARRIER BAG MIDI   0000001000+00000035+00000+0001T   00000035+0000001224          1400 R81090               2BZ
227467000227467               227467               170213DK     1400+00000+DK0000003541+0000003541+000000000+000000497+0000004038+0000000000+I40000004038+0000000000+Z
227467001227467112-116038     227467006009681820246TCS CARRIER BAG MIDI   0000001000+00000035+00000+0001T   00000035+0000001345          1400 R81090               2BZ
227467002227467903-000082     227467006001704014892SWT MINI WINE GUMS 100G0000001000+00001753+00000+0001T   00001753+0000001345          1400 R81150               2BZ
227467003227467077-000454     227467006003000285266G/BAG METALLIC LRG EMB 0000001000+00001753+00000+0001T   00001753+0000001345          1400 R81112               2BZ
227468000227468               227468               170213DK     1400+00000+DK0000015257+0000015257+000000000+000002138+0000017395+0000000000+I40000017395+0000000000+Z
227468001227468368-000049     227468006003000536955PLUSH BEAR 15cm LOVE   0000001000+00004385+00000+0001T   00004385+0000001401          1400 R81745               2BZ
227468002227468368-000175     227468006003000270316PLUSH BEAR 4 ASSTD 18CM0000001000+00006139+00000+0001T   00006139+0000001401          1400 R81745               2BZ
227468003227468077-000322     227468006001023677532GIFT-BAG 18X23CM E/D FL0000001000+00001227+00000+0001T   00001227+0000001401          1400 R81112               2BZ
227468004227468903-000619     227468006003000672455SWT LOLLY STR/BRRY 140G0000002000+00001753+00000+0001T   00001753+0000001401          1400 R81150               2BZ
227469000227469               227469               170213DK     1400+00000+DK0000002192+0000002192+000000000+000000307+0000002490+0000000009+I20000000000+0000002490+Z
227469001227469563-000318-L   227469006003000407088SERVIETTES 33cm RED    0000001000+00002192+00000+0001T   00002192+0000001411          1400 R81214               2BZ
227470000227470               227470               170213DK     1400+00000+DK0000004385+0000004385+000000000+000000614+0000004990+0000000009+I20000000000+0000004990+Z
227470001227470368-000001     227470006003000097982Plush Bear 25cm        0000001000+00004385+00000+0001T   00004385+0000001413          1400 R81745               2BZ
227471000227471               227471               170213DK     1400+00000+DK0000001753+0000001753+000000000+000000246+0000001990+0000000009+I20000000000+0000001990+Z
227471001227471077-000454     227471006003000285266G/BAG METALLIC LRG EMB 0000001000+00001753+00000+0001T   00001753+0000001414          1400 R81112               2BZ
227472000227472               227472               170213DK     1400+00000+DK0000003946+0000003946+000000000+000000553+0000004490+0000000009+I20000000000+0000004490+Z
227472001227472050-000363-Z   227472006001023475282PADLOCK IRON 32mm CARD 0000001000-00002192+00000+0001T   00002192+0000001417          1400 R818552IC            2 Z
227472002227472050-000365-Z   227472006001023475305PADLOCK IRON 50mm CARD 0000001000+00004385+00000+0001T   00004385+0000001417          1400 R81855               2BZ
227472003227472036-007549     227472006003000275793COATHANGER SPACE SAVER 0000001000+00001753+00000+0001T   00001753+0000001417          1400 R81212               2BZ
227473000227473               227473               170213DK     1400+00000+DK0000025920+0000025920+000000000+000003630+0000029550+0000000000+I40000029550+0000000000+Z
227473001227473564-000201     227473006003000539130BUBBLE CARRIAGE SET    0000001000+00017542+00000+0001T   00017542+0000001421          1400 R81131               2BZ
227473002227473065-003639     227473006001023787620GUITAR ROCKER          0000001000+00007016+00000+0001T   00007016+0000001421          1400 R81745               2BZ
227473003227473046-000012     227473006904708013062BATTERIES AA  CARD-OF-40000001000+00001314+00000+0001T   00001314+0000001421          1400 R81312               2BZ
227473004227473112-116069     227473006009681820277TCS CARRIER BAG JUMBO  0000001000+00000048+00000+0001T   00000048+0000001421          1400 R81090               2BZ
227474000227474               227474               170213DK     1400+00000+DK0000011048+0000011048+000000000+000001548+0000012596+0000000000+I40000012596+0000000000+Z
227474001227474368-000175     227474006003000270316PLUSH BEAR 4 ASSTD 18CM0000001000+00006139+00000+0001T   00006139+0000001430          1400 R81745               2BZ
227474002227474018-000127     227474006001023380289MUG OCC STRAIGHT LOVE  0000001000+00001578+00000+0001T   00001753+0006471430          1400 R81515               2BZ
227474003227474077-000322     227474006001023677532GIFT-BAG 18X23CM E/D FL0000001000+00001227+00000+0001T   00001227+0000001430          1400 R81112               2BZ
227474004227474903-000095     227474006001704011495SWT SPECKLED-EGGS 100G 0000001000+00002104+00000+0001T   00002104+0000001430          1400 R81150               2BZ
227475000227475               227475               170213DK     1400+00000+DK0000000525+0000000525+000000000+000000074+0000000590+0000000009+I20000000000+0000000590+Z
227475001227475002-021040     227475006001023812216PARTY-PICKS 100PCE     0000001000+00000525+00000+0001T   00000525+0000001433          1400 R81300               2BZ
227476000227476               227476               170213DK     1400+00000+DK0000001753+0000001753+000000000+000000246+0000001990+0000000009+I20000000000+0000001990+Z
227476001227476077-000358     227476006003000329977GIFT-BAG KIDS 25X32CM  0000001000+00001753+00000+0001T   00001753+0000001437          1400 R81112               2BZ
227477000227477               227477               170213DK     1400+00000+DK0000003507+0000003507+000000000+000000491+0000003990+0000000008+I20000000000+0000003990+Z
227477001227477204-000012     227477006001023888518M/HOLDR 7PC DAYS WEEK  0000001000+00003507+00000+0001T   00003507+0000001440          1400 R81300               2BZ
227478000227478               227478               170213DK     1400+00000+DK0000004821+0000004821+000000000+000000675+0000005490+0000000006+I20000000000+0000005490+Z
227478001227478031-000002-A   227478006003000247103P/FRAME LOVE 7.5X7.5CM 0000001000+00003507+00000+0001T   00003507+0000001442          1400 R81510               2BZ
227478002227478077-000310     227478006001023608635GIFT-BAG 18X23CM GLOSS 0000001000+00001314+00000+0001T   00001314+0000001442          1400 R81112               2BZ
227479000227479               227479               170213DK     1400+00000+DK0000003542+0000003542+000000000+000000496+0000004030+0000000008+I20000000000+0000004030+Z
227479001227479018-000136     227479006001023659026MUG OCC LOVE W/PLUSH   0000001000+00003507+00000+0001T   00003507+0000001443          1400 R81515               2BZ
227479002227479112-116038     227479006009681820246TCS CARRIER BAG MIDI   0000001000+00000035+00000+0001T   00000035+0000001443          1400 R81090               2BZ
227480000227480               227480               170213DK     1400+00000+DK0000007048+0000007048+000000000+000000988+0000008030+0000000006+I20000000000+0000008030+Z
227480001227480080-000127     227480006003000424351VALENTINES DAY 36x24CM 0000001000+00002192+00000+0001T   00002192+0000001444          1400 R81112               2BZ
227480002227480077-000011-C   227480006001023808523TISSUE 10xSHTS RED     0000001000+00000876+00000+0001T   00000876+0000001444          1400 R81112               2BZ
227480003227480077-000382     227480006003000247820GIFT-BAG MED 18X23CM   0000001000+00001753+00000+0001T   00001753+0000001444          1400 R81112               2BZ
227480004227480080-000127     227480006003000424351VALENTINES DAY 36x24CM 0000001000+00002192+00000+0001T   00002192+0000001444          1400 R81112               2BZ
227480005227480112-116038     227480006009681820246TCS CARRIER BAG MIDI   0000001000+00000035+00000+0001T   00000035+0000001444          1400 R81090               2BZ
227481000227481               227481               170213DK     1400+00000+DK0000012279+0000012279+000000000+000001720+0000013999+0000000000+I40000013999+0000000000+Z
227481001227481368-000111     227481006001023780812PLUSH BEAR/DOG 29CM    0000001000+00012279+00000+0001T   00012279+0000001447          1400 R81745               2BZ
227482000227482               227482               170213DK     1400+00000+DK0000001752+0000001752+000000000+000000246+0000001990+0000000008+I20000000000+0000001990+Z
227482001227482082-026204     227482006001023816443R/GLASSES STRINGS 2PCE 0000002000+00000876+00000+0001T   00000876+0000001448          1400 R81160               2BZ
227483000227483               227483               170213DK     1400+00000+DK0000000700+0000000700+000000000+000000098+0000000790+0000000008+I20000000000+0000000790+Z
227483001227483566-002000     227483000721129013206STICKERS CRYSTAL ASSTD 0000001000+00000700+00000+0001T   00000700+0000001448          1400 R81130               2BZ
227484000227484               227484               170213DK     1400+00000+DK0000001753+0000001753+000000000+000000246+0000001990+0000000009+I20000000000+0000001990+Z
227484001227484264-000921     227484000090159150442MAISTO CAR 3" FRESH    0000001000+00001753+00000+0001T   00001753+0000001449          1400 R81710               2BZ
227485000227485               227485               170213DK     1400+00000+DK0000007049+0000007049+000000000+000000987+0000008030+0000000006+I20000000000+0000008030+Z
227485001227485112-116038     227485006009681820246TCS CARRIER BAG MIDI   0000001000+00000035+00000+0001T   00000035+0000001450          1400 R81090               2BZ
227485002227485018-000130     227485006001023867537MUG OCC LOVE MINI+HEART0000001000+00003507+00000+0001T   00003507+0000001450          1400 R81515               2BZ
227485003227485018-000136     227485006001023659026MUG OCC LOVE W/PLUSH   0000001000+00003507+00000+0001T   00003507+0000001450          1400 R81515               2BZ
227486000227486               227486               170213DK     1400+00000+DK0000000876+0000000876+000000000+000000123+0000000990+0000000009+I20000000000+0000000990+Z
227486001227486033-006001     227486006001023135933SEWING-KIT TRAVELLING  0000001000+00000876+00000+0001T   00000876+0000001451          1400 R81200               2BZ
227487000227487               227487               170213DK     1400+00000+DK0000005295+0000005295+000000000+000000742+0000006037+0000000000+I40000006037+0000000000+Z
227487001227487112-116038     227487006009681820246TCS CARRIER BAG MIDI   0000001000+00000035+00000+0001T   00000035+0000001453          1400 R81090               2BZ
227487002227487133-000017     227487006003000525171CLEANING-CLOTHS 5PCE   0000001000+00003507+00000+0001T   00003507+0000001453          1400 R81212               2BZ
227487003227487027-783000     227487006001023874641SCOURERS RAINBOW 5PCE  0000001000+00001753+00000+0001T   00001753+0000001453          1400 R81212               2BZ
227488000227488               227488               170213DK     1400+00000+DK0000004645+0000004645+000000000+000000651+0000005290+0000000006+I20000000000+0000005290+Z
227488001227488002-000879     227488006001023770004STRAINER TEA 7cm H/H   0000002000+00000350+00000+0001T   00000350+0000001454          1400 R81300               2BZ
227488002227488002-000015     227488006003000555604CAPPUCCINO STENCILS 12P0000001000+00001753+00000+0001T   00001753+0000001454          1400 R81300               2BZ
227488003227488002-001701     227488006003000441341TEA-BAG HOLDER 4PC     0000001000+00002192+00000+0001T   00002192+0000001454          1400 R81300               2BZ
227489000227489               227489               170213DK     1400+00000+DK0000002192+0000002192+000000000+000000307+0000002499+0000000000+I40000002499+0000000000+Z
227489001227489566-000068     227489006003000418046POP UP LOVE 2 ASSTD    0000001000+00002192+00000+0001T   00002192+0000001455          1400 R81130               2BZ
227490000227490               227490               170213DK     1400+00000+DK0000004734+0000004734+000000000+000000663+0000005390+0000000007+I20000000000+0000005390+Z
227490001227490077-000322     227490006001023677532GIFT-BAG 18X23CM E/D FL0000001000+00001227+00000+0001T   00001227+0000001456          1400 R81112               2BZ
227490002227490018-000130     227490006001023867537MUG OCC LOVE MINI+HEART0000001000+00003507+00000+0001T   00003507+0000001456          1400 R81515               2BZ
227491000227491               227491               170213DK     1400+00000+DK0000003069+0000003069+000000000+000000430+0000003499+0000000000+I40000003499+0000000000+Z
227491001227491072-000012     227491006001023602510PET DOG/CAT BRUSH 23cm 0000001000+00003069+00000+0001T   00003069+0000001500          1400 R81870               2BZ
227492000227492               227492               170213DK     1400+00000+DK0000000874+0000000874+000000000+000000124+0000000990+0000000008+I20000000000+0000000990+Z
227492001227492080-000133-A   227492006003000647019MINI VALENTINES CARD   0000002000+00000437+00000+0001T   00000437+0000001507          1400 R81112               2BZ
227493000227493               227493               170213DK     1400+00000+DK0000017881+0000017881+000000000+000002507+0000020388+0000000000+I40000020388+0000000000+Z
227493001227493206-000220     227493006003000631704EGG TIMER COLOUR-CHANGE0000001000+00002630+00000+0001T   00002630+0000001517          1400 R81321               2BZ
227493002227493206-000590     227493006003000633708BAG CLIPS LIPS 2PC     0000001000+00001753+00000+0001T   00001753+0000001517          1400 R81321               2BZ
227493003227493080-000127     227493006003000424351VALENTINES DAY 36x24CM 0000001000+00002192+00000+0001T   00002192+0000001517          1400 R81112               2BZ
227493004227493304-001011     227493006001023806727FLWR ROSE RED W/BEAR   0000007000+00000613+00000+0001T   00000788+0006471517          1400 R81510               2BZ
227493005227493018-019000     227493006003000557288MUG OCC. LOVE JUMBO    0000001000+00005262+00000+0001T   00005262+0000001517          1400 R81515               2BZ
227493006227493077-000357     227493006003000139354GIFT-BAG 18X23CM B/DAY 0000001000+00001753+00000+0001T   00001753+0000001517          1400 R81112               2BZ
227494000227494               227494               170213DK     1400+00000+DK0000000876+0000000876+000000000+000000123+0000000990+0000000009+I20000000000+0000000990+Z
227494001227494077-000011-C   227494006001023808523TISSUE 10xSHTS RED     0000001000+00000876+00000+0001T   00000876+0000001518          1400 R81112               2BZ
227495000227495               227495               170213DK     1400+00000+DK0000002192+0000002192+000000000+000000307+0000002490+0000000009+I20000000000+0000002490+Z
227495001227495080-000127     227495006003000424351VALENTINES DAY 36x24CM 0000001000+00002192+00000+0001T   00002192+0000001520          1400 R81112               2BZ
227496000227496               227496               170213DK     1400+00000+DK0000003944+0000003944+000000000+000000553+0000004497+0000000000+I40000004497+0000000000+Z
227496001227496080-000133-A   227496006003000647019MINI VALENTINES CARD   0000001000+00000437+00000+0001T   00000437+0000001522          1400 R81112               2BZ
227496002227496004-071267     227496006001023907875LCD CLEANING KIT+CLOTH 0000001000+00003507+00000+0001T   00003507+0000001522          1400 R81310               2BZ
227497000227497               227497               170213DK     1400+00000+DK0000034252+0000034252+000000000+000004798+0000039050+0000000000+I40000039050+0000000000+Z
227497001227497112-116069     227497006009681820277TCS CARRIER BAG JUMBO  0000001000+00000048+00000+0001T   00000048+0000001527          1400 R81090               2BZ
227497002227497368-000614     227497006001023705808PLUSH LOVE 30cm        0000002000+00008771+00000+0001T   00008771+0000001527          1400 R81745               2BZ
227497003227497077-000270     227497006003000395453GIFT-BAG PPR JMB 33X45 0000002000+00002630+00000+0001T   00002630+0000001527          1400 R81112               2BZ
227497004227497368-000637     227497006001023874092PLUSH BEAR SLEEPING LOV0000001000+00011402+00000+0001T   00012279+0006471527          1400 R81745               2BZ
227498000227498               227498               170213DK     1400+00000+DK0000007016+0000007016+000000000+000000983+0000007999+0000000000+I40000007999+0000000000+Z
227498001227498174-000302     227498006003000053353TRAVEL SHOULDER BAG    0000001000+00007016+00000+0001T   00007016+0000001528          1400 R81205               2BZ
227499000227499               227499               170213DK     1400+00000+DK0000011401+0000011401+000000000+000001597+0000012998+0000000000+I40000012998+0000000000+Z
227499001227499368-000012     227499006003000610464PLUSH BEAR 30cm SITTING0000001000+00008771+00000+0001T   00008771+0000001530          1400 R81745               2BZ
227499002227499077-000270     227499006003000395453GIFT-BAG PPR JMB 33X45 0000001000+00002630+00000+0001T   00002630+0000001530          1400 R81112               2BZ
227500000227500               227500               170213DK     1400+00000+DK0000001578+0000001578+000000000+000000221+0000001799+0000000000+I40000001799+0000000000+Z
227500001227500077-000315     227500006003000181186GIFT-BAG 20x28cm MATT  0000001000+00001578+00000+0001T   00001578+0000001531          1400 R81112               2BZ
227501000227501               227501               170213DK     1400+00000+DK0000005262+0000005262+000000000+000000737+0000005999+0000000000+I40000005999+0000000000+Z
227501001227501018-019000     227501006003000557288MUG OCC. LOVE JUMBO    0000001000+00005262+00000+0001T   00005262+0000001544          1400 R81515               2BZ
227502000227502               227502               170213DK     1400+00000+DK0000003191+0000003191+000000000+000000447+0000003630+0000000008+I20000000000+0000003630+Z
227502001227502018-000127     227502006001023380289MUG OCC STRAIGHT LOVE  0000002000+00001578+00000+0001T   00001753+0006471545          1400 R81515               2BZ
227502002227502112-116038     227502006009681820246TCS CARRIER BAG MIDI   0000001000+00000035+00000+0001T   00000035+0000001545          1400 R81090               2BZ
227503000227503               227503               170213DK     1400+00000+DK0000005262+0000005262+000000000+000000737+0000005990+0000000009+I20000000000+0000005990+Z
227503001227503027-008812     227503006003000465460DUSTER MICROFIBRE 58cm 0000001000+00005262+00000+0001T   00005262+0000001546          1400 R81212               2BZ
227504000227504               227504               170213DK     1400+00000+DK0000001311+0000001311+000000000+000000186+0000001490+0000000007+I20000000000+0000001490+Z
227504001227504080-000133     227504006003000535613CARD&ENV MINI ASTD DSGN0000003000+00000437+00000+0001T   00000437+0000001547          1400 R81112               2BZ
227505000227505               227505               170213DK     1400+00000+DK0000001753+0000001753+000000000+000000246+0000001990+0000000009+I20000000000+0000001990+Z
227505001227505077-000454     227505006003000285266G/BAG METALLIC LRG EMB 0000001000+00001753+00000+0001T   00001753+0000001554          1400 R81112               2BZ
227506000227506               227506               170213DK     1400+00000+DK0000003416+0000003416+000000000+000000480+0000003896+0000000000+I40000003896+0000000000+Z
227506001227506903-000619     227506006003000672455SWT LOLLY STR/BRRY 140G0000001000+00001753+00000+0001T   00001753+0000001606          1400 R81150               2BZ
227506002227506903-000216     227506006925925900966SWT MALLOW TWIST ERKO  0000002000+00000262+00000+0001T   00000262+0000001606          1400 R81150               2BZ
227506003227506903-000087     227506006001704000161SWT SPECKLED-EGGS 50G  0000001000+00001139+00000+0001T   00001139+0000001606          1400 R81150               2BZ
227507000227507               227507               170213DK     1400+00000+DK0000007921+0000007921+000000000+000001111+0000009032+0000000000+I40000009032+0000000000+Z
227507001227507112-116038     227507006009681820246TCS CARRIER BAG MIDI   0000001000+00000035+00000+0001T   00000035+0000001609          1400 R81090               2BZ
227507002227507071-081091     227507006001151010287STAED/GENKEM ALL-STICK 0000001000+00001227+00000+0001T   00001227+0000001609          1400 R81130               2BZ
227507003227507006-000094     227507006003000611089PARTY BANNER BBY SHOWER0000001000+00001490+00000+0001T   00001490+0000001609          1400 R81131               2BZ
227507004227507033-010720     227507006001023678645SAFETY-PINS 50PCE SMALL0000001000+00000876+00000+0001T   00000876+0000001609          1400 R81200               2BZ
227507005227507036-000605     227507006001023158611WASHING-PEGS WDN PCK-240000001000+00001490+00000+0001T   00001490+0000001609          1400 R81212               2BZ
227507006227507033-010720     227507006001023678645SAFETY-PINS 50PCE SMALL0000001000+00000876+00000+0001T   00000876+0000001609          1400 R81200               2BZ
227507007227507033-008209     227507006001023678607MEASURING-TAPE 150cm   0000001000+00000613+00000+0001T   00000613+0000001609          1400 R81200               2BZ
227507008227507078-009100     227507006008741002349ALL-CLEAR GLUE 25ml CRD0000001000+00001314+00000+0001T   00001314+0000001609          1400 R81810               2BZ
227508000227508               227508               170213DK     1400+00000+DK0000015512+0000015512+000000000+000002178+0000017690+0000000000+I20000000000+0000017690+Z
227508001227508566-000367     227508006003000645558STICKER WINDOW DECOR   0000001000+00002630+00000+0001T   00002630+0000001621          1400 R81130               2BZ
227508002227508077-000011-C   227508006001023808523TISSUE 10xSHTS RED     0000001000+00000876+00000+0001T   00000876+0000001621          1400 R81112               2BZ
227508003227508301-085008     227508006003000673933ORN OCC.LOVE TINSEL HRT0000001000+00003069+00000+0001T   00003069+0000001621          1400 R81505               2BZ
227508004227508565-000990     227508006001023673510NOVELTY STICKY SLAPPER 0000001000+00001490+00000+0001T   00001490+0000001621          1400 R81745               2BZ
227508005227508079-009702-D   227508008427973059354PAPER SIRIO A2 RED COL 0000004000+00001051+00000+0001T   00001051+0000001621          1400 R81130               2BZ
227508006227508140-001004     227508006001023880932FLY-RIBBONS 4PCE PL    0000001000+00001490+00000+0001T   00001490+0000001621          1400 R81830               2BZ
227508007227508565-000084     227508006003000643431NOVELTY CATAPULT B/FLY 0000001000+00001753+00000+0001T   00001753+0000001621          1400 R81745               2BZ
227509000227509               227509               170213DK     1400+00000+DK0000005259+0000005259+000000000+000000738+0000005997+0000000000+I40000005997+0000000000+Z
227509001227509034-078841     227509006003000594023MELAMINE KIDS BOWL 17cm0000002000+00001753+00000+0001T   00001753+0000001624          1400 R81215               2BZ
227509002227509108-004020     227509006003000667109PLATE PL 19cm DIA SET 20000001000+00001753+00000+0001T   00001753+0000001624          1400 R81210               2BZ
227510000227510               227510               170213DK     1400+00000+DK0000003069+0000003069+000000000+000000430+0000003490+0000000009+I20000000000+0000003490+Z
227510001227510079-013106     227510006003000081998ART+CRAFT PIPE-CLEANERS0000001000+00003069+00000+0001T   00003069+0000001625          1400 R81130               2BZ
227511000227511               227511               170213DK     1400+00000+DK0000007049+0000007049+000000000+000000987+0000008036+0000000000+I40000008036+0000000000+Z
227511001227511112-116038     227511006009681820246TCS CARRIER BAG MIDI   0000001000+00000035+00000+0001T   00000035+0000001627          1400 R81090               2BZ
227511002227511018-005009     227511006001023725608MUG W/PLUSH-BEAR LOVE  0000002000+00003507+00000+0001T   00003507+0000001627          1400 R81515               2BZ
227512000227512               227512               170213DK     1400+00000+DK0000003542+0000003542+000000000+000000496+0000004030+0000000008+I20000000000+0000004030+Z
227512001227512112-116038     227512006009681820246TCS CARRIER BAG MIDI   0000001000+00000035+00000+0001T   00000035+0000001628          1400 R81090               2BZ
227512002227512018-000136     227512006001023659026MUG OCC LOVE W/PLUSH   0000001000+00003507+00000+0001T   00003507+0000001628          1400 R81515               2BZ
227513000227513               227513               170213DK     1400+00000+DK0000003542+0000003542+000000000+000000496+0000004030+0000000008+I20000000000+0000004030+Z
227513001227513112-116038     227513006009681820246TCS CARRIER BAG MIDI   0000001000+00000035+00000+0001T   00000035+0000001629          1400 R81090               2BZ
227513002227513301-085004     227513006003000420469ORN LOVE PLAQUE 21X10CM0000001000+00003507+00000+0001T   00003946+0006471629          1400 R81505               2BZ
227514000227514               227514               170213DK     1400+00000+DK0000004383+0000004383+000000000+000000615+0000004998+0000000000+I40000004998+0000000000+Z
227514001227514077-000005-B   227514006003000326617PAPER TISSUE PATTERN   0000001000+00002630+00000+0001T   00002630+0000001631          1400 R81112               2BZ
227514002227514077-000354     227514006003000139224GIFT-BAG 25X32CM H/MADE0000001000+00001753+00000+0001T   00001753+0000001631          1400 R81112               2BZ
227515000227515               227515               170213DK     1400+00000+DK0000012307+0000012307+000000000+000001725+0000014032+0000000000+I40000014032+0000000000+Z
227515001227515112-116038     227515006009681820246TCS CARRIER BAG MIDI   0000001000+00000035+00000+0001T   00000035+0000001635          1400 R81090               2BZ
227515002227515200-000106     227515006003000510290PICNIC CUPS PAPER 250ml0000001000+00003507+00000+0001T   00003507+0000001635          1400 R81214               2BZ
227515003227515303-000804     227515006001023409751COW-BELL BRS (7-BELLS) 0000001000+00004385+00000+0001T   00004385+0000001635          1400 R81510               2BZ
227515004227515039-000319-3   227515006003000442621B/CANDLES LRG NUMBER-3 0000001000+00000876+00000+0001T   00000876+0000001635          1400 R81510               2BZ
227515005227515039-000319-0   227515006003000441273B/CANDLES LRG NUMBER-0 0000001000+00000876+00000+0001T   00000876+0000001635          1400 R81510               2BZ
227515006227515002-021057     227515006001023812032T/PICKS UMBRELLAS 10PCE0000003000+00000876+00000+0001T   00000876+0000001635          1400 R81300               2BZ
227516000227516               227516               170213DK     1400+00000+DK0000008769+0000008769+000000000+000001229+0000009998+0000000000+I40000009998+0000000000+Z
227516001227516006-006018-B   227516006003000008278PARTY-SPRAY HAIR NEON  0000001000+00002630+00000+0001T   00002630+0000001638          1400 R81131               2BZ
227516002227516007-000890-17  227516006003000645671CALENDAR 2017 ASSTD    0000001000+00006139+00000+0001T   00006139+0000001638          1400 R81130               2BZ
227517000227517               227517               170213DK     1400+00000+DK0000001753+0000001753+000000000+000000246+0000001990+0000000009+I20000000000+0000001990+Z
227517001227517077-000381     227517006003000247707GIFT-BAG 25X32CM S/COL 0000001000+00001753+00000+0001T   00001753+0000001638          1400 R81112               2BZ
227518000227518               227518               170213DK     1400+00000+DK0000001962+0000001962+000000000+000000275+0000002230+0000000007+I20000000000+0000002230+Z
227518001227518077-000312     227518006001023608697GIFT-BAG 10X35CM GLOSS 0000001000+00001314+00000+0001T   00001314+0000001640          1400 R811122IC            2BZ
227518002227518112-116038     227518006009681820246TCS CARRIER BAG MIDI   0000001000+00000035+00000+0001T   00000035+0000001640          1400 R81090               2BZ
227518003227518077-000321     227518006001023677501GIFT-BAG 11X14CM E/D FL0000001000+00000613+00000+0001T   00000613+0000001640          1400 R81112               2BZ
227519000227519               227519               170213DK     1400+00000+DK0000010556+0000010556+000000000+000001478+0000012034+0000000000+I40000012034+0000000000+Z
227519001227519018-005009     227519006001023725608MUG W/PLUSH-BEAR LOVE  0000002000+00003507+00000+0001T   00003507+0000001642          1400 R81515               2BZ
227519002227519018-000136     227519006001023659026MUG OCC LOVE W/PLUSH   0000001000+00003507+00000+0001T   00003507+0000001642          1400 R81515               2BZ
227519003227519112-116038     227519006009681820246TCS CARRIER BAG MIDI   0000001000+00000035+00000+0001T   00000035+0000001642          1400 R81090               2BZ
227520000227520               227520               170213DK     1400+00000+DK0000016661+0000016661+000000000+000002334+0000018990+0000000005+I20000000000+0000018990+Z
227520001227520071-000305     227520006001023715340RULER/STENCILS         0000001000+00001753+00000+0001T   00001753+0000001643          1400 R81130               2BZ
227520002227520567-011496     227520006003000664177BK COLOURING BY NUMBERS0000001000+00002630+00000+0001T   00002630+0000001643          1400 R81757               2BZ
227520003227520567-011483     227520006003000663453BK COLOURING 96P SMURFS0000001000+00003507+00000+0001T   00003507+0000001643          1400 R81757               2BZ
227520004227520496-059421     227520000078257594214POOL 122cm STARFISH    0000001000+00008771+00000+0001T   00008771+0000001643          1400 R81787               2BZ
227521000227521               227521               170213DK     1400+00000+DK0000001840+0000001840+000000000+000000258+0000002090+0000000008+I20000000000+0000002090+Z
227521001227521077-000321     227521006001023677501GIFT-BAG 11X14CM E/D FL0000001000+00000613+00000+0001T   00000613+0000001644          1400 R81112               2BZ
227521002227521077-000322     227521006001023677532GIFT-BAG 18X23CM E/D FL0000001000+00001227+00000+0001T   00001227+0000001644          1400 R81112               2BZ
227522000227522               227522               170213DK     1400+00000+DK0000002630+0000002630+000000000+000000369+0000002990+0000000009+I20000000000+0000002990+Z
227522001227522039-000100     22752200600300060614625CM WHITE CANDLE 6PC  0000001000+00002630+00000+0001T   00002630+0000001644          1400 R81510               2BZ
227523000227523               227523               170213DK     1400+00000+DK0000024584+0000024584+000000000+000003442+0000028026+0000000000+I40000028026+0000000000+Z
227523001227523112-116038     227523006009681820246TCS CARRIER BAG MIDI   0000001000+00000035+00000+0001T   00000035+0000001648          1400 R81090               2BZ
227523002227523028-001999     227523006001023759535G/CHAIR-COVER 60x60x1100000006000+00003507+00000+0001T   00003507+0000001648          1400 R81305               2BZ
227523003227523133-000009     227523006003000060726KITCHEN SWAB 3PC M/FIBR0000001000+00003507+00000+0001T   00003507+0000001648          1400 R81212               2BZ
227524000227524               227524               170213DK     1400+00000+DK0000002102+0000002102+000000000+000000296+0000002398+0000000000+I40000002398+0000000000+Z
227524001227524079-009702-F   227524008427973059392PAPER SIRIO A2 GREEN   0000001000+00001051+00000+0001T   00001051+0000001651          1400 R81130               2BZ
227524002227524903-000015     227524000070970459955SWT MIKE N IKE B/BLAST 0000001000+00001051+00000+0001T   00001051+0000001651          1400 R81150               2BZ
227525000227525               227525               170213DK     1400+00000+DK0000008771+0000008771+000000000+000001228+0000009990+0000000009+I20000000000+0000009990+Z
227525001227525368-000012     227525006003000610464PLUSH BEAR 30cm SITTING0000001000+00008771+00000+0001T   00008771+0000001652          1400 R81745               2BZ
227526000227526               227526               170213DK     1400+00000+DK0000002192+0000002192+000000000+000000307+0000002490+0000000009+I20000000000+0000002490+Z
227526001227526032-000336     227526006001023369109MIRROR HANGING MAGNETIC0000001000+00002192+00000+0001T   00002192+0000001652          1400 R81510               2BZ
227527000227527               227527               170213DK     1400+00000+DK0000004385+0000004385+000000000+000000614+0000004999+0000000000+I40000004999+0000000000+Z
227527001227527019-000070     227527006003000297474VASE GLS CLEAR BOTTLE  0000001000+00004385+00000+0001T   00004385+0000001654          1400 R81510               2BZ
227528000227528               227528               170213DK     1400+00000+DK0000008771+0000008771+000000000+000001228+0000009990+0000000009+I20000000000+0000009990+Z
227528001227528072-020242     227528006003000053728PET BED COTTON TEXTILE 0000001000+00008771+00000+0001T   00008771+0000001654          1400 R81870               2BZ
227529000227529               227529               170213DK     1400+00000+DK0000000048+0000000048+000000000+000000007+0000000050+0000000005+I20000000000+0000000050+Z
227529001227529112-116069     227529006009681820277TCS CARRIER BAG JUMBO  0000001000+00000048+00000+0001T   00000048+0000001655          1400 R81090               2BZ
227530000227530               227530               170213DK     1400+00000+DK0000004767+0000004767+000000000+000000669+0000005430+0000000006+I20000000000+0000005430+Z
227530001227530112-116038     227530006009681820246TCS CARRIER BAG MIDI   0000001000+00000035+00000+0001T   00000035+0000001656          1400 R81090               2BZ
227530002227530304-001011     227530006001023806727FLWR ROSE RED W/BEAR   0000002000+00000613+00000+0001T   00000788+0006471656          1400 R81510               2BZ
227530003227530077-000381     227530006003000247707GIFT-BAG 25X32CM S/COL 0000002000+00001753+00000+0001T   00001753+0000001656          1400 R81112               2BZ
227531000227531               227531               170213DK     1400+00000+DK0000001753+0000001753+000000000+000000246+0000001990+0000000009+I20000000000+0000001990+Z
227531001227531200-003024     227531006001023657299REFUSE BAGS 20PCE BLACK0000001000+00001753+00000+0001T   00001753+0000001656          1400 R81214               2BZ
227532000227532               227532               170213DK     1400+00000+DK0000012923+0000012923+000000000+000001811+0000014730+0000000004+I20000000000+0000014730+Z
227532001227532016-006500     227532006003000618460S/JAR GLS HERMETICO    0000001000+00004385+00000+0001T   00004385+0000001658          1400 R81300               2BZ
227532002227532903-000518     227532006001704012782SWT STRAWS S/BERRY 100g0000001000+00001227+00000+0001T   00001227+0000001658          1400 R81150               2BZ
227532003227532903-000517     227532006001704012768SWT STRAWS FIZZY CHERRY0000001000+00001227+00000+0001T   00001227+0000001658          1400 R81150               2BZ
227532004227532077-000010-C   227532006001023123879CREPE-PAPER RED        0000001000+00000788+00000+0001T   00000788+0000001658          1400 R81112               2BZ
227532005227532077-000011-D   227532006001023808554TISSUE-WRAP WHITE 10PCE0000001000+00000876+00000+0001T   00000876+0000001658          1400 R81112               2BZ
227532006227532016-006500     227532006003000618460S/JAR GLS HERMETICO    0000001000+00004385+00000+0001T   00004385+0000001658          1400 R81300               2BZ
227532007227532112-116038     227532006009681820246TCS CARRIER BAG MIDI   0000001000+00000035+00000+0001T   00000035+0000001658          1400 R81090               2BZ
A17021300                                          10204161DKSLAVE 2                       R812IC
A17021301                                          10221967DKSLAVE 2                       R812IC
A17021302                                          12063372DKSLAVE 2                       R812IC
A17021303                                          19262322DKSLAVE 2                       1IC1IC
B22751800                                          170213DK077-000312     16394634SLAVE 2     R812IC0000002000+0000001000+0000000000000+
C22743600                                          170213DK040-001003     10385614SLAVE 2     R812IC0000000000+0000000000+0020000001000+
C22745300                                          170213DK251-000031     11381789SLAVE 2     R812IC0000000000+0000000000+0010000001000+
C22747000                                          170213DK368-000175     14131876SLAVE 2     R812IC0000000000+0000000000+0010000001000+
C22750800                                          170213DK301-085004     16194247SLAVE 2     R812IC0000000000+0000000000+0010000001000+
C22750801                                          170213DK112-116038     16194841SLAVE 2     R812IC0000000000+0000000000+0020000001000+
M17021301                              IT          DKHI THERE                                        LAST SLIP NR                                    227522                                          REGARDS                                         DK
M17021302                              SHIEHAAM    DKZ/READ:8356.84                                  C/BANK:3070.20                                  C/CARD:5286.64                                  CASHIER:NICOLENE                                REGARDS                                         DK
M17021391                              CASH        DKSLAVE 2                       Z-REPORT No.   667TOTAL (Sales - Refunds)           8356.84       CASH TO BE BANKED                 3070.20       DEBIT CARDS                          0.00       CREDIT CARDS                      5286.64       Z-READING                         8356.84       AIRTIME DEBIT CARD SALES             0.00       AIRTIME CARD SALES                   0.00       OVERS/UNDERS                         0.00       AIRTIME CASH SALES                   0.00       GIFT CARDS                           0.00       GIFT CARD CASH SALES                 0.00       T O T A L  CASH PAYOUTS              0.00                                                                                                                                                                                                                                                                                                                                                      Z
M17021392                              CASH        DKABSENT                                                                                                                                                                                          ANNUAL LEAVE                                                                                                                                                                                    DAY OFF                                                                                                                                                                                         COMMENTS                                                                                                                                                                                                                                                                                                                                                                                       Z
Y17021300                                          DK00000000741745+000117
ZDK17021319283 SLAVE 2      SALES DATA                     NEXT INVOICE NO.  227533 0668
T077418263-000510                                          1511131455570000002ICSLAVE 2
X DK Slave 2 First invoice 227415 170213 Last invoice 227532 170213 Next invoice 227533 Total number of records 000000398 clbackup completed 19:28:44
