105261000105261               105261               170213DL     1400+00000+DL0000018723+0000018723+000000000+000002623+0000021346+0000000000+I40000021346+0000000000+Z
105261001105261368-000637     105261006001023874092PLUSH BEAR SLEEPING LOV0000001000+00011402+00000+0001T   00012279+0006470905          1400 GU6745               1BZ
105261002105261018-000177     105261006001023797513MUG MINI LOVE ASSTD    0000001000+00000700+00000+0001T   00000700+0000000905          1400 GU6515               1BZ
105261003105261903-000194     105261006009826020616SWT CHOC RP LOLLY 25G  0000002000+00001314+00000+0001T   00001314+0000000905          1400 GU6150               1BZ
105261004105261566-000068     105261006003000418046POP UP LOVE 2 ASSTD    0000001000+00002192+00000+0001T   00002192+0000000905          1400 GU6130               1BZ
105261005105261112-116069     105261006009681820277TCS CARRIER BAG JUMBO  0000001000+00000048+00000+0001T   00000048+0000000905          1400 GU6090               1BZ
105261006105261200-003026     105261006003000276448REFUSE BAGS 10PCE GREEN0000001000+00001753+00000+0001T   00001753+0000000905          1400 GU6214               1BZ
105262000105262               105262               170213DL     1400+00000+DL0000002629+0000002629+000000000+000000369+0000002990+0000000008+I20000000000+0000002990+Z
105262001105262071-002999-A   105262006003000611577PEN STICKBALL 10PCE ASS0000001000+00001753+00000+0001T   00001753+0000000914          1400 GU6130               1AZ
105262002105262071-001012     105262006001023474445MARKERS BLACK ROUND    0000001000+00000876+00000+0001T   00000876+0000000914          1400 GU6130               1AZ
105263000105263               105263               170213DL     1400+00000+DL0000001753+0000001753+000000000+000000246+0000001990+0000000009+I20000000000+0000001990+Z
105263001105263078-000030     105263006003000151141YAMAYO SUPERGLUE 8g    0000001000+00001753+00000+0001T   00001753+0000000916          1400 GU6810               1BZ
105264000105264               105264               170213DL     1400+00000+DL0000002015+0000002015+000000000+000000283+0000002290+0000000008+I20000000000+0000002290+Z
105264001105264007-000235     105264006003000134434LABELS RECTANGULAR 60pc0000001000+00000876+00000+0001T   00000876+0000000917          1400 GU6130               1AZ
105264002105264007-010192     105264006009635830536BOOK H/COVER A5 192PAGE0000001000+00001139+00000+0001T   00001139+0000000917          1400 GU6130               1AZ
105265000105265               105265               170213DL     1400+00000+DL0000005260+0000005260+000000000+000000738+0000005998+0000000000+I40000005998+0000000000+Z
105265001105265072-020357     105265006001023748089PUPPY/CAT BOWL PL DBL  0000002000+00002630+00000+0001T   00002630+0000000921          1400 GU6870               1AZ
105266000105266               105266               170213DL     1400+00000+DL0000005172+0000005172+000000000+000000725+0000005897+0000000000+I40000005897+0000000000+Z
105266001105266024-091102     105266006003453000010BAKING-CUP PAPER 50PC  0000001000+00002192+00000+0001T   00002192+0000000922          1400 GU6300               1AZ
105266002105266002-021042     105266006001023621801TOOTHPICKS 250PCE      0000001000+00001227+00000+0001T   00001227+0000000922          1400 GU6300               1AZ
105266003105266133-000018     105266006003000583218SWAB MICROFIBRE 30x30cm0000001000+00001753+00000+0001T   00001753+0000000922          1400 GU6212               1AZ
105267000105267               105267               170213DL     1400+00000+DL0000011446+0000011446+000000000+000001605+0000013051+0000000000+I40000013051+0000000000+Z
105267001105267112-116069     105267006009681820277TCS CARRIER BAG JUMBO  0000001000+00000048+00000+0001T   00000048+0000000930          1400 GU6090               1AZ
105267002105267082-000110     105267006003000360482READING GLS STRENGHT:2 0000001000+00004385+00000+0001T   00004385+0000000930          1400 GU6160               1AZ
105267003105267200-003024     105267006001023657299REFUSE BAGS 20PCE BLACK0000001000+00001753+00000+0001T   00001753+0000000930          1400 GU6214               1AZ
105267004105267133-061111     105267006001023775092TOWEL MAGIC ALL-PURPOSE0000002000+00002630+00000+0001T   00002630+0000000930          1400 GU6212               1AZ
105268000105268               105268               170213DL     1400+00000+DL0000003379+0000003379+000000000+000000474+0000003850+0000000003+I20000000000+0000003850+Z
105268001105268018-000127     105268006001023380289MUG OCC STRAIGHT LOVE  0000001000+00001578+00000+0001T   00001753+0006470931          1400 GU6515               1AZ
105268002105268105-001021     105268006003000667062CONTAINER MICRO/FREEZER0000001000+00001753+00000+0001T   00002630+0008160931          1400 GU6210               1AZ
105268003105268112-116069     105268006009681820277TCS CARRIER BAG JUMBO  0000001000+00000048+00000+0001T   00000048+0000000931          1400 GU6090               1AZ
105269000105269               105269               170213DL     1400+00000+DL0000029487+0000029487+000000000+000004138+0000033625+0000000000+I40000033625+0000000000+Z
105269001105269112-116069     105269006009681820277TCS CARRIER BAG JUMBO  0000001000+00000048+00000+0001T   00000048+0000000936          1400 GU6090               1AZ
105269002105269301-085000     105269006003000674299 ORN OCC. LOVE HEARTS  0000003000+00002192+00000+0001T   00002192+0000000936          1400 GU6505               1AZ
105269003105269039-000635     105269006001023774521CANDLE VTV 4PC WHITE   0000003000+00002192+00000+0001T   00002192+0000000936          1400 GU6510               1AZ
105269004105269903-000200     105269006009826020234SWT CHOC RP CHOCO 23G  0000009000+00000788+00000+0001T   00000788+0000000936          1400 GU6150               1AZ
105269005105269304-001011     105269006001023806727FLWR ROSE RED W/BEAR   0000012000+00000613+00000+0001T   00000788+0006470936          1400 GU6510               1AZ
105269006105269083-000055     105269006003000003853LIGHTER ELCTRNC REFILBL0000003000+00000613+00000+0001T   00000613+0000000936          1400 GU6315               1AZ
105270000105270               105270               170213DL     1400+00000+DL0000003946+0000003946+000000000+000000553+0000004490+0000000009+I20000000000+0000004490+Z
105270001105270077-000376-A   105270006003000669059GIFT-BAG 2-PACK JMB    0000001000+00003946+00000+0001T   00003946+0000000937          1400 GU6112               1AZ
105271000105271               105271               170213DL     1400+00000+DL0000003682+0000003682+000000000+000000516+0000004198+0000000000+I40000004198+0000000000+Z
105271001105271071-003858     105271006001023902276STATIONERY SET PENCIL  0000001000+00002455+00000+0001T   00002455+0000000940          1400 GU6130               1AZ
105271002105271251-000041     105271006001023515889SEAL-TAPE BUFF 48mmx50m0000001000+00001227+00000+0001T   00001227+0000000940          1400 GU6810               1AZ
105272000105272               105272               170213DL     1400+00000+DL0000014207+0000014207+000000000+000001990+0000016190+0000000007+I20000000000+0000016190+Z
105272001105272368-000637     105272006001023874092PLUSH BEAR SLEEPING LOV0000001000+00011402+00000+0001T   00012279+0006470941          1400 GU6745               1BZ
105272002105272083-000055     105272006003000003853LIGHTER ELCTRNC REFILBL0000001000+00000613+00000+0001T   00000613+0000000941          1400 GU6315               1BZ
105272003105272018-000170     105272006001023775528MUG OCC. LOVE 2PC MINI 0000001000+00002192+00000+0001T   00002192+0000000941          1400 GU6515               1BZ
105273000105273               105273               170213DL     1400+00000+DL0000002193-0000002193-000000000+000000307-0000002500-0000000000+I20000000000+0000002500-Z
105273001105273077-000376-A   105273006003000669059GIFT-BAG 2-PACK JMB    0000001000-00003946+00000+0001T   00003946+0000000943          1400 GU61121IC            1 Z
105273002105273077-000299-A   105273006003000670888GIFT-BAG PAPER JMB LOVE0000001000+00001753+00000+0001T   00001753+0000000943          1400 GU6112               1 Z
105274000105274               105274               170213DL     1400+00000+DL0000013374+0000013374+000000000+000001875+0000015240+0000000009+I20000000000+0000015240+Z
105274001105274112-116069     105274006009681820277TCS CARRIER BAG JUMBO  0000001000+00000048+00000+0001T   00000048+0000000943          1400 GU6090               1AZ
105274002105274006-000788     105274006001023990228CROWN HAPPY BIRTHDAY   0000001000+00001490+00000+0001T   00001490+0000000943          1400 GU6131               1AZ
105274003105274366-002810     105274006003000535620DRESSUP ANIMAL SET 3PCE0000002000+00002192+00000+0001T   00002192+0000000943          1400 GU6131               1AZ
105274004105274366-000302     105274006001023903013DRESSUP DEVIL/MOUSE    0000001000+00002192+00000+0001T   00002192+0000000943          1400 GU6131               1AZ
105274005105274206-000390     105274006003000631438STRAW PL BUILD A STRAW 0000001000+00002630+00000+0001T   00002630+0000000943          1400 GU6321               1AZ
105274006105274072-020295     105274006003000451609PET CAT TOY MOUSE W/ZIP0000001000+00002630+00000+0001T   00002630+0000000943          1400 GU6870               1AZ
105275000105275               105275               170213DL     1400+00000+DL0000002192+0000002192+000000000+000000307+0000002490+0000000009+I20000000000+0000002490+Z
105275001105275301-085000     105275006003000674299 ORN OCC. LOVE HEARTS  0000001000+00002192+00000+0001T   00002192+0000000944          1400 GU6505               1AZ
105276000105276               105276               170213DL     1400+00000+DL0000005658+0000005658+000000000+000000794+0000006452+0000000000+I40000006452+0000000000+Z
105276001105276306-000021-C   105276006003000567294EARBUDS 300PCE IN TUB  0000001000+00001753+00000+0001T   00001753+0000000947          1400 GU6200               1AZ
105276002105276251-000041     105276006001023515889SEAL-TAPE BUFF 48mmx50m0000001000+00001227+00000+0001T   00001227+0000000947          1400 GU6810               1AZ
105276003105276080-000134     105276006003000590988CARD & ENV GIANT BOY   0000001000+00002630+00000+0001T   00002630+0000000947          1400 GU6112               1AZ
105276004105276112-116069     105276006009681820277TCS CARRIER BAG JUMBO  0000001000+00000048+00000+0001T   00000048+0000000947          1400 GU6090               1AZ
105277000105277               105277               170213DL     1400+00000+DL0000009645+0000009645+000000000+000001352+0000010997+0000000000+I40000010997+0000000000+Z
105277001105277079-000336     105277006003000670758SUPER FINE MARKER PENS 0000001000+00005262+00000+0001T   00005262+0000000950          1400 GU6130               1AZ
105277002105277079-000201     105277006003000161430P/CRAYONS THERAPY 10PCE0000001000+00002630+00000+0001T   00002630+0000000950          1400 GU6130               1AZ
105277003105277200-003026     105277006003000276448REFUSE BAGS 10PCE GREEN0000001000+00001753+00000+0001T   00001753+0000000950          1400 GU6214               1AZ
105278000105278               105278               170213DL     1400+00000+DL0000000876+0000000876+000000000+000000123+0000000990+0000000009+I20000000000+0000000990+Z
105278001105278071-001012     105278006001023474445MARKERS BLACK ROUND    0000001000+00000876+00000+0001T   00000876+0000000958          1400 GU6130               1BZ
105279000105279               105279               170213DL     1400+00000+DL0000003068+0000003068+000000000+000000430+0000003490+0000000008+I20000000000+0000003490+Z
105279001105279024-091103     105279006003453014307BAKING-CUP MUFFIN 50PCE0000001000+00002192+00000+0001T   00002192+0000001010          1400 GU6300               1BZ
105279002105279027-078281     105279006001023767806SCOURERS BRS 8g  PACK-30000001000+00000876+00000+0001T   00000876+0000001010          1400 GU6212               1BZ
105280000105280               105280               170213DL     1400+00000+DL0000001753+0000001753+000000000+000000246+0000001990+0000000009+I20000000000+0000001990+Z
105280001105280080-000116     105280006003000253555CARD&ENVELOPE-HANDMADE 0000001000+00001753+00000+0001T   00001753+0000001019          1400 GU6112               1AZ
105281000105281               105281               170213DL     1400+00000+DL0000029626+0000029626+000000000+000004155+0000033781+0000000000+I40000033781+0000000000+Z
105281001105281903-000911     105281006009802868454SWT ST GUM TAPE BARBIE 0000001000+00001753+00000+0001T   00001753+0000001022          1400 GU6150               1AZ
105281002105281903-000924     105281006942797400615SWT HOT WHEELS SPRAY   0000002000+00001578+00000+0001T   00001578+0000001022          1400 GU6150               1AZ
105281003105281077-000315     105281006003000181186GIFT-BAG 20x28cm MATT  0000003000+00001578+00000+0001T   00001578+0000001022          1400 GU6112               1AZ
105281004105281469-000013     105281006003000303458BUILD METAL 60PC       0000001000+00002630+00000+0001T   00002630+0000001022          1400 GU6755               1AZ
105281005105281079-011221     105281006001023705952CRAFT SET EMB PLASTER  0000001000+00001753+00000+0001T   00002192+0008151022          1400 GU6130               1AZ
105281006105281563-000318-G   105281006003000404360SERVIETTES 33cm PINK   0000001000+00002192+00000+0001T   00002192+0000001022          1400 GU6214               1AZ
105281007105281562-000806     105281006001023829467EDU THREADING STRNG GME0000001000+00002630+00000+0001T   00002630+0000001022          1400 GU6755               1AZ
105281008105281038-001800     105281006003000623303DOILIE PAPER HRT 24PC  0000001000+00003507+00000+0001T   00003507+0000001022          1400 GU6300               1AZ
105281009105281903-000898     105281006922516801503SWT POPPING CANDY      0000003000+00001139+00000+0001T   00001139+0000001022          1400 GU6150               1AZ
105281010105281903-000009     105281000028000242268SWEET LAFFY TAFFY GRAPE0000001000+00001139+00000+0001T   00001139+0000001022          1400 GU6150               1AZ
105281011105281903-000007     105281000028000688776SWT LAFFY TAFFY 23G    0000001000+00001139+00000+0001T   00001139+0000001022          1400 GU6150               1AZ
105281012105281903-000009     105281000028000242268SWEET LAFFY TAFFY GRAPE0000001000+00001139+00000+0001T   00001139+0000001022          1400 GU6150               1AZ
105281013105281903-000094     105281006923431501622SWT GS CANDY NECKLACE  0000001000+00000437+00000+0001T   00000437+0000001022          1400 GU6150               1AZ
105282000105282               105282               170213DL     1400+00000+DL0000001753+0000001753+000000000+000000246+0000001990+0000000009+I20000000000+0000001990+Z
105282001105282079-000341     105282006920705495519FELT-TIP PENS 12PCE    0000001000+00001753+00000+0001T   00001753+0000001028          1400 GU6130               1BZ
105283000105283               105283               170213DL     1400+00000+DL0000001578+0000001578+000000000+000000221+0000001790+0000000009+I20000000000+0000001790+Z
105283001105283018-000127     105283006001023380289MUG OCC STRAIGHT LOVE  0000001000+00001578+00000+0001T   00001753+0006471035          1400 GU6515               1AZ
105284000105284               105284               170213DL     1400+00000+DL0000000437+0000000437+000000000+000000062+0000000490+0000000009+I20000000000+0000000490+Z
105284001105284080-000133-A   105284006003000647019MINI VALENTINES CARD   0000001000+00000437+00000+0001T   00000437+0000001035          1400 GU6112               1AZ
105285000105285               105285               170213DL     1400+00000+DL0000001788+0000001788+000000000+000000251+0000002039+0000000000+I40000002039+0000000000+Z
105285001105285006-000240     105285006003000460595PARTY INVITES 12PC     0000001000+00001753+00000+0001T   00001753+0000001046          1400 GU6131               1AZ
105285002105285112-116038     105285006009681820246TCS CARRIER BAG MIDI   0000001000+00000035+00000+0001T   00000035+0000001046          1400 GU6090               1AZ
105286000105286               105286               170213DL     1400+00000+DL0000006575+0000006575+000000000+000000922+0000007490+0000000007+I20000000000+0000007490+Z
105286001105286007-000724     105286006003000225958NOTE MAGNETIC 60SHTS   0000001000+00001753+00000+0001T   00001753+0000001047          1400 GU6130               1AZ
105286002105286038-092233     105286006003000328925TABLE-MAT N/SLIP ASST  0000001000+00003069+00000+0001T   00003507+0008191047          1400 GU6300               1AZ
105286003105286002-000975     105286006003000658053KITCHEN-GADGET FUNNEL  0000001000+00001753+00000+0001T   00001753+0000001047          1400 GU6300               1AZ
105287000105287               105287               170213DL     1400+00000+DL0000012277+0000012277+000000000+000001720+0000013997+0000000000+I40000013997+0000000000+Z
105287001105287038-092233     105287006003000328925TABLE-MAT N/SLIP ASST  0000002000+00003069+00000+0001T   00003507+0008191052          1400 GU6300               1AZ
105287002105287105-007510     105287008696287301538STORAGE BOX CLEAR 3.75L0000001000+00006139+00000+0001T   00006139+0000001052          1400 GU6210               1AZ
105288000105288               105288               170213DL     1400+00000+DL0000007012+0000007012+000000000+000000984+0000007990+0000000006+I20000000000+0000007990+Z
105288001105288078-000030     105288006003000151141YAMAYO SUPERGLUE 8g    0000001000+00001753+00000+0001T   00001753+0000001056          1400 GU6810               1AZ
105288002105288089-000004     105288006003000137749KEY CHAIN MTL CHARMS   0000003000+00001753+00000+0001T   00001753+0000001056          1400 GU6205               1AZ
105289000105289               105289               170213DL     1400+00000+DL0000000876+0000000876+000000000+000000123+0000000990+0000000009+I20000000000+0000000990+Z
105289001105289007-000235     105289006003000134434LABELS RECTANGULAR 60pc0000001000+00000876+00000+0001T   00000876+0000001056          1400 GU6130               1AZ
105290000105290               105290               170213DL     1400+00000+DL0000001752+0000001752+000000000+000000246+0000001990+0000000008+I20000000000+0000001990+Z
105290001105290903-000521     105290006001704009652SWT GUMMY SOFT GUMS    0000001000+00000876+00000+0001T   00000876+0000001057          1400 GU6150               1AZ
105290002105290903-000503     105290006001704006118SWT VAMPIRE FANGS 60G  0000001000+00000876+00000+0001T   00000876+0000001057          1400 GU6150               1AZ
105291000105291               105291               170213DL     1400+00000+DL0000007014+0000007014+000000000+000000982+0000007990+0000000006+I20000000000+0000007990+Z
105291001105291018-000136     105291006001023659026MUG OCC LOVE W/PLUSH   0000002000+00003507+00000+0001T   00003507+0000001057          1400 GU6515               1BZ
105292000105292               105292               170213DL     1400+00000+DL0000004382+0000004382+000000000+000000615+0000004990+0000000007+I20000000000+0000004990+Z
105292001105292077-000467     105292006003000329991GIFT-BAG STAMP 18X23CM 0000001000+00001753+00000+0001T   00001753+0000001058          1400 GU6112               1AZ
105292002105292366-004047     105292006001023834850DRESS UP ACCESS TEETH  0000001000+00001753+00000+0001T   00001753+0000001058          1400 GU6131               1AZ
105292003105292077-000011-L   105292006001023808585P/TISSUE BRIGHT 10SHEET0000001000+00000876+00000+0001T   00000876+0000001058          1400 GU6112               1AZ
105293000105293               105293               170213DL     1400+00000+DL0000001402+0000001402+000000000+000000197+0000001590+0000000009+I20000000000+0000001590+Z
105293001105293304-001204     105293006001023737984FLOWER OCC. TEDDY/ROSES0000001000+00001402+00000+0001T   00001490+0006471104          1400 GU6510               1BZ
105294000105294               105294               170213DL     1400+00000+DL0000017585+0000017585+000000000+000002465+0000020050+0000000000+I40000020050+0000000000+Z
105294001105294112-116069     105294006009681820277TCS CARRIER BAG JUMBO  0000001000+00000048+00000+0001T   00000048+0000001108          1400 GU6090               1AZ
105294002105294024-000065     105294006001023770424SPATULA SILICONE 25CM  0000001000+00003946+00000+0001T   00003946+0000001108          1400 GU6300               1AZ
105294003105294024-000082     105294006001023770905SIEVE FLOUR 18cm MTL-RI0000001000+00001753+00000+0001T   00001753+0000001108          1400 GU6300               1AZ
105294004105294024-000020     105294006003000108640ICING-SET PL S/S NOZZLE0000001000+00007455+00000+0001T   00007455+0000001108          1400 GU6300               1AZ
105294005105294105-006004     105294006002580007763CANNISTER 3PCE    250ml0000001000+00002630+00000+0001T   00002630+0000001108          1400 GU6210               1AZ
105294006105294024-091100     105294006001023914224BAKING-CUPS PAPER 100PC0000001000+00001753+00000+0001T   00001753+0000001108          1400 GU6300               1AZ
105295000105295               105295               170213DL     1400+00000+DL0000007016+0000007016+000000000+000000983+0000007990+0000000009+I20000000000+0000007990+Z
105295001105295567-010598     105295009781842058527BOOK DICTIONERY GG AFR 0000001000+00007016+00000+0001T   00007016+0000001109          1400 GU6757               1AZ
105296000105296               105296               170213DL     1400+00000+DL0000003501+0000003501+000000000+000000494+0000003990+0000000005+I20000000000+0000003990+Z
105296001105296080-000133     105296006003000535613CARD&ENV MINI ASTD DSGN0000004000+00000437+00000+0001T   00000437+0000001110          1400 GU6112               1AZ
105296002105296080-000115     105296006003000237333CARD&ENVELOPE - BLANKS 0000001000+00001753+00000+0001T   00001753+0000001110          1400 GU6112               1AZ
105297000105297               105297               170213DL     1400+00000+DL0000002628+0000002628+000000000+000000368+0000002990+0000000006+I20000000000+0000002990+Z
105297001105297077-000312     105297006001023608697GIFT-BAG 10X35CM GLOSS 0000002000+00001314+00000+0001T   00001314+0000001112          1400 GU6112               1AZ
105298000105298               105298               170213DL     1400+00000+DL0000001490+0000001490+000000000+000000209+0000001690+0000000009+I20000000000+0000001690+Z
105298001105298039-000324     105298006001023775221B/CANDLES+HOLDERS 24PCE0000001000+00001490+00000+0001T   00001490+0000001118          1400 GU6510               1AZ
105299000105299               105299               170213DL     1400+00000+DL0000005262+0000005262+000000000+000000737+0000005990+0000000009+I20000000000+0000005990+Z
105299001105299107-004510     105299006002580008968STEP-STOOL PL          0000001000+00005262+00000+0001T   00005262+0000001122          1400 GU6210               1AZ
105300000105300               105300               170213DL     1400+00000+DL0000002630+0000002630+000000000+000000369+0000002990+0000000009+I20000000000+0000002990+Z
105300001105300077-000270     105300006003000395453GIFT-BAG PPR JMB 33X45 0000001000+00002630+00000+0001T   00002630+0000001127          1400 GU6112               1BZ
105301000105301               105301               170213DL     1400+00000+DL0000001753+0000001753+000000000+000000246+0000001990+0000000009+I20000000000+0000001990+Z
105301001105301077-000316     105301006001023609731GIFT-BAG 25X32CM MATT  0000001000+00001753+00000+0001T   00001753+0000001127          1400 GU6112               1AZ
105302000105302               105302               170213DL     1400+00000+DL0000001753+0000001753+000000000+000000246+0000001990+0000000009+I20000000000+0000001990+Z
105302001105302080-000112     105302006003000252749CARD&ENVLP BDAY-MUSICAL0000001000+00001753+00000+0001T   00001753+0000001130          1400 GU6112               1AZ
105303000105303               105303               170213DL     1400+00000+DL0000005295+0000005295+000000000+000000743+0000006030+0000000008+I20000000000+0000006030+Z
105303001105303112-116038     105303006009681820246TCS CARRIER BAG MIDI   0000001000+00000035+00000+0001T   00000035+0000001131          1400 GU6090               1AZ
105303002105303073-000155     105303006003000571772COSMETIC BAG STRIPE    0000002000+00002630+00000+0001T   00003507+0008121131          1400 GU6200               1AZ
105304000105304               105304               170213DL     1400+00000+DL0000002192+0000002192+000000000+000000307+0000002490+0000000009+I20000000000+0000002490+Z
105304001105304002-000740     105304006001023763945GRATER 4-WAY WHITE     0000001000+00002192+00000+0001T   00002192+0000001133          1400 GU6300               1AZ
105305000105305               105305               170213DL     1400+00000+DL0000002366+0000002366+000000000+000000332+0000002698+0000000000+I40000002698+0000000000+Z
105305001105305304-001011     105305006001023806727FLWR ROSE RED W/BEAR   0000001000+00000613+00000+0001T   00000788+0006471135          1400 GU6510               1AZ
105305002105305039-001023     105305006003000466337CANDLE TEA-LITE METALIC0000001000+00001753+00000+0001T   00001753+0000001135          1400 GU6510               1AZ
105306000105306               105306               170213DL     1400+00000+DL0000004470+0000004470+000000000+000000627+0000005090+0000000007+I20000000000+0000005090+Z
105306001105306565-004101     105306006003000548033BALL BOUNCING EGG      0000003000+00001490+00000+0001T   00001490+0000001136          1400 GU6745               1AZ
105307000105307               105307               170213DL     1400+00000+DL0000021048+0000021048+000000000+000002949+0000023997+0000000000+I40000023997+0000000000+Z
105307001105307107-004500     105307006003000150557STEP STOOL PL          0000003000+00007016+00000+0001T   00007016+0000001145          1400 GU6210               1AZ
105308000105308               105308               170213DL     1400+00000+DL0000002192+0000002192+000000000+000000307+0000002490+0000000009+I20000000000+0000002490+Z
105308001105308566-000359     105308006003000582709STICKER BOOK LOVE SPARK0000001000+00002192+00000+0001T   00002192+0000001152          1400 GU6130               1AZ
105309000105309               105309               170213DL     1400+00000+DL0000001139+0000001139+000000000+000000160+0000001290+0000000009+I20000000000+0000001290+Z
105309001105309903-000087     105309006001704000161SWT SPECKLED-EGGS 50G  0000001000+00001139+00000+0001T   00001139+0000001154          1400 GU6150               1AZ
105310000105310               105310               170213DL     1400+00000+DL0000002192+0000002192+000000000+000000307+0000002490+0000000009+I20000000000+0000002490+Z
105310001105310200-000010     105310006925406841061BAG ZIPPERSEAL 35PC    0000001000+00002192+00000+0001T   00002192+0000001204          1400 GU6214               1AZ
105311000105311               105311               170213DL     1400+00000+DL0000005699+0000005699+000000000+000000798+0000006490+0000000007+I20000000000+0000006490+Z
105311001105311033-006004     105311006001023703316SEWING-KIT IN-POUCH    0000001000+00002192+00000+0001T   00002192+0000001207          1400 GU6200               1AZ
105311002105311133-000010-A   105311006001023997647CLEANING CLOTH ROLL 30 0000001000+00003507+00000+0001T   00003507+0000001207          1400 GU6212               1AZ
105312000105312               105312               170213DL     1400+00000+DL0000007884+0000007884+000000000+000001104+0000008988+0000000000+I40000008988+0000000000+Z
105312001105312071-003866     105312006003000590018PENCIL NOVELTY RULER   0000006000+00001314+00000+0001T   00001314+0000001215          1400 GU6130               1AZ
105313000105313               105313               170213DL     1400+00000+DL0000001753+0000001753+000000000+000000246+0000001990+0000000009+I20000000000+0000001990+Z
105313001105313080-000113     105313006003000237449CARD&ENVLPE - LOVE     0000001000+00001753+00000+0001T   00001753+0000001217          1400 GU6112               1AZ
105314000105314               105314               170213DL     1400+00000+DL0000002364+0000002364+000000000+000000333+0000002690+0000000007+I20000000000+0000002690+Z
105314001105314903-000200     105314006009826020234SWT CHOC RP CHOCO 23G  0000003000+00000788+00000+0001T   00000788+0000001226          1400 GU6150               1AZ
105315000105315               105315               170213DL     1400+00000+DL0000003507+0000003507+000000000+000000491+0000003998+0000000000+I40000003998+0000000000+Z
105315001105315077-000932     105315006003000409808G/WRAP 700mmx5m PATTERN0000001000+00003507+00000+0001T   00003507+0000001229          1400 GU6112               1AZ
105316000105316               105316               170213DL     1400+00000+DL0000080230+0000080230+000000000+000011250+0000091480+0000000000+I40000091480+0000000000+Z
105316001105316006-000120     105316006001023346889BALLOONS 10PC MIX COL  0000005000+00001753+00000+0001T   00001753+0000001240          1400 GU6131               1AZ
105316002105316006-001000     105316006003000093779HELIUM BALLOON FILL    0000050000+00000613+00000+0001T   00000613+0000001240          1400 GU6131               1AZ
105316003105316112-116069     105316006009681820277TCS CARRIER BAG JUMBO  0000001000+00000048+00000+0001T   00000048+0000001240          1400 GU6090               1AZ
105316004105316038-001805     105316006003000466405DOILIES PAPER 60PC 3ASS0000001000+00003069+00000+0001T   00003069+0000001240          1400 GU6300               1AZ
105316005105316200-000092     105316006003000576739PICNIC PAPER PLATES 23c0000004000+00001227+00000+0001T   00001227+0000001240          1400 GU6214               1AZ
105316006105316039-000320     105316006001023816153BIRTHDAY-CANDLES 13PCE 0000001000+00002630+00000+0001T   00002630+0000001240          1400 GU6510               1AZ
105316007105316039-000318     105316006003000406159B/DAY CANDLES SMALL NO 0000001000+00001753+00000+0001T   00001753+0000001240          1400 GU6510               1AZ
105316008105316077-000245     105316006001023759214GIFT-RIBBON METALLICx2 0000001000+00001227+00000+0001T   00001227+0000001240          1400 GU6112               1AZ
105316009105316039-000799     105316006001023692382CANDLES TEALITE 100PCE 0000001000+00008771+00000+0001T   00008771+0000001240          1400 GU6510               1AZ
105316010105316077-000311     105316006001023608666GIFT-BAG 11X14CM GLOSS 0000010000+00000613+00000+0001T   00000613+0000001240          1400 GU6112               1AZ
105316011105316133-092004     105316006003000008865TABLE CLOTH 130X160CM  0000001000+00012279+00000+0001T   00012279+0000001240          1400 GU6212               1AZ
105317000105317               105317               170213DL     1400+00000+DL0000005467+0000005467+000000000+000000767+0000006230+0000000004+I20000000000+0000006230+Z
105317001105317903-000194     105317006009826020616SWT CHOC RP LOLLY 25G  0000001000+00001314+00000+0001T   00001314+0000001246          1400 GU6150               1AZ
105317002105317304-001011     105317006001023806727FLWR ROSE RED W/BEAR   0000001000+00000613+00000+0001T   00000788+0006471246          1400 GU6510               1AZ
105317003105317903-000200     105317006009826020234SWT CHOC RP CHOCO 23G  0000001000+00000788+00000+0001T   00000788+0000001246          1400 GU6150               1AZ
105317004105317018-000127     105317006001023380289MUG OCC STRAIGHT LOVE  0000001000+00001578+00000+0001T   00001753+0006471246          1400 GU6515               1AZ
105317005105317903-000087     105317006001704000161SWT SPECKLED-EGGS 50G  0000001000+00001139+00000+0001T   00001139+0000001246          1400 GU6150               1AZ
105317006105317112-116038     105317006009681820246TCS CARRIER BAG MIDI   0000001000+00000035+00000+0001T   00000035+0000001246          1400 GU6090               1AZ
105318000105318               105318               170213DL     1400+00000+DL0000002401+0000002401+000000000+000000337+0000002730+0000000008+I20000000000+0000002730+Z
105318001105318903-000200     105318006009826020234SWT CHOC RP CHOCO 23G  0000001000+00000788+00000+0001T   00000788+0000001248          1400 GU6150               1AZ
105318002105318018-000127     105318006001023380289MUG OCC STRAIGHT LOVE  0000001000+00001578+00000+0001T   00001753+0006471248          1400 GU6515               1AZ
105318003105318112-116038     105318006009681820246TCS CARRIER BAG MIDI   0000001000+00000035+00000+0001T   00000035+0000001248          1400 GU6090               1AZ
105319000105319               105319               170213DL     1400+00000+DL0000005262+0000005262+000000000+000000737+0000005999+0000000000+I40000005999+0000000000+Z
105319001105319140-005093     105319006003000331338INSECT-KILL RAQT-SHAPED0000001000+00005262+00000+0001T   00005262+0000001249          1400 GU6830               1AZ
105320000105320               105320               170213DL     1400+00000+DL0000000876+0000000876+000000000+000000123+0000000990+0000000009+I20000000000+0000000990+Z
105320001105320071-003003     105320006003000144525PEN BALL PEN 3PCE BLACK0000001000+00000876+00000+0001T   00000876+0000001250          1400 GU6130               1AZ
105321000105321               105321               170213DL     1400+00000+DL0000007629+0000007629+000000000+000001069+0000008690+0000000008+I20000000000+0000008690+Z
105321001105321009-001302     105321006001023854544MELAMINE FLOWER PLATE  0000001000+00001490+00000+0001T   00001490+0000001258          1400 GU6210               1AZ
105321003105321368-000175     105321006003000270316PLUSH BEAR 4 ASSTD 18CM0000001000+00006139+00000+0001T   00006139+0000001258          1400 GU6745               1AZ
105322000105322               105322               170213DL     1400+00000+DL0000004385+0000004385+000000000+000000614+0000004990+0000000009+I20000000000+0000004990+Z
105322001105322082-000110     105322006003000360482READING GLS STRENGHT:2 0000001000+00004385+00000+0001T   00004385+0000001308          1400 GU6160               1AZ
105323000105323               105323               170213DL     1400+00000+DL0000001753+0000001753+000000000+000000246+0000001990+0000000009+I20000000000+0000001990+Z
105323001105323200-003026     105323006003000276448REFUSE BAGS 10PCE GREEN0000001000+00001753+00000+0001T   00001753+0000001309          1400 GU6214               1AZ
105324000105324               105324               170213DL     1400+00000+DL0000001227+0000001227+000000000+000000172+0000001390+0000000009+I20000000000+0000001390+Z
105324001105324251-000041     105324006001023515889SEAL-TAPE BUFF 48mmx50m0000001000+00001227+00000+0001T   00001227+0000001311          1400 GU6810               1AZ
105325000105325               105325               170213DL     1400+00000+DL0000080240+0000080240+000000000+000011246+0000091480+0000000006+I20000000000+0000091480+Z
105325001105325112-116069     105325006009681820277TCS CARRIER BAG JUMBO  0000001000+00000048+00000+0001T   00000048+0000001315          1400 GU6090               1AZ
105325002105325002-000651     105325006003000467778TOASTER TONGS MAGNETIC 0000002000+00001314+00000+0001T   00001314+0000001315          1400 GU6300               1AZ
105325003105325038-001804     105325006001023766618DOILIES 27cm RND PKT-100000001000+00001753+00000+0001T   00001753+0000001315          1400 GU6300               1AZ
105325004105325565-004101     105325006003000548033BALL BOUNCING EGG      0000002000+00001490+00000+0001T   00001490+0000001315          1400 GU6745               1AZ
105325005105325103-000081     105325006003000637942BAMBOO BASKET 17x13x7cm0000008000+00003946+00000+0001T   00003946+0000001315          1400 GU6300               1AZ
105325006105325103-000084     105325006003000638109BAMBOO BASKET RECT     0000006000+00004823+00000+0001T   00004823+0000001315          1400 GU6300               1AZ
105325007105325112-116069     105325006009681820277TCS CARRIER BAG JUMBO  0000001000+00000048+00000+0001T   00000048+0000001315          1400 GU6090               1AZ
105325008105325158-000167     105325006003000569588WASTEPAPER-BASKET 26cm 0000002000+00005262+00000+0001T   00005262+0000001315          1400 GU6300               1AZ
105325009105325903-000610     105325006003000610518SWEET JUMBO BUBBLE GUM 0000001000+00001753+00000+0001T   00001753+0000001315          1400 GU6150               1AZ
105326000105326               105326               170213DL     1400+00000+DL0000008452+0000008452+000000000+000001185+0000009637+0000000000+I40000009637+0000000000+Z
105326001105326018-019000     105326006003000557288MUG OCC. LOVE JUMBO    0000001000+00005262+00000+0001T   00005262+0000001320          1400 GU6515               1AZ
105326002105326565-000859     105326006001023691361SUNGLASSES GIANT       0000001000+00001753+00000+0001T   00001753+0000001320          1400 GU6745               1AZ
105326003105326304-001204     105326006001023737984FLOWER OCC. TEDDY/ROSES0000001000+00001402+00000+0001T   00001490+0006471320          1400 GU6510               1AZ
105326004105326112-116038     105326006009681820246TCS CARRIER BAG MIDI   0000001000+00000035+00000+0001T   00000035+0000001320          1400 GU6090               1AZ
105327000105327               105327               170213DL     1400+00000+DL0000007452+0000007452+000000000+000001044+0000008490+0000000006+I20000000000+0000008490+Z
105327001105327050-000262-Z   105327006001023475237PADLOCK BRS 25mm CARDED0000001000+00003069+00000+0001T   00003069+0000001321          1400 GU6855               1AZ
105327002105327567-011353     105327009780709721703BK ACTIVITY FAIRIES    0000001000+00003507+00000+0001T   00003507+0000001321          1400 GU6757               1AZ
105327003105327903-000520     105327006001704009898SWT GUMMY MINI SOUR 60g0000001000+00000876+00000+0001T   00000876+0000001321          1400 GU6150               1AZ
105328000105328               105328               170213DL     1400+00000+DL0000005387+0000005387+000000000+000000760+0000006140+0000000007+I20000000000+0000006140+Z
105328001105328903-000155     105328006009803374435SWT LOLLY I LUV U HEART0000001000+00000525+00000+0001T   00000525+0000001323          1400 GU6150               1AZ
105328002105328903-000200     105328006009826020234SWT CHOC RP CHOCO 23G  0000005000+00000788+00000+0001T   00000788+0000001323          1400 GU6150               1AZ
105328003105328080-000133-A   105328006003000647019MINI VALENTINES CARD   0000002000+00000437+00000+0001T   00000437+0000001323          1400 GU6112               1AZ
105328004105328112-116069     105328006009681820277TCS CARRIER BAG JUMBO  0000001000+00000048+00000+0001T   00000048+0000001323          1400 GU6090               1AZ
105329000105329               105329               170213DL     1400+00000+DL0000000437+0000000437+000000000+000000062+0000000490+0000000009+I20000000000+0000000490+Z
105329001105329080-000133-A   105329006003000647019MINI VALENTINES CARD   0000001000+00000437+00000+0001T   00000437+0000001325          1400 GU6112               1AZ
105330000105330               105330               170213DL     1400+00000+DL0000002401+0000002401+000000000+000000337+0000002738+0000000000+I40000002738+0000000000+Z
105330001105330018-000127     105330006001023380289MUG OCC STRAIGHT LOVE  0000001000+00001578+00000+0001T   00001753+0006471329          1400 GU6515               1AZ
105330002105330903-000137     105330006002099004130SWEET GS JELLY BEAN 60G0000001000+00000788+00000+0001T   00000788+0000001329          1400 GU6150               1AZ
105330003105330112-116038     105330006009681820246TCS CARRIER BAG MIDI   0000001000+00000035+00000+0001T   00000035+0000001329          1400 GU6090               1AZ
105331000105331               105331               170213DL     1400+00000+DL0000005295+0000005295+000000000+000000742+0000006037+0000000000+I40000006037+0000000000+Z
105331001105331204-000012     105331006001023888518M/HOLDR 7PC DAYS WEEK  0000001000+00003507+00000+0001T   00003507+0000001331          1400 GU6300               1AZ
105331002105331365-000001     105331006003000395262PLAY SET DOCTORS SET   0000001000+00001753+00000+0001T   00001753+0000001331          1400 GU6725               1AZ
105331003105331112-116038     105331006009681820246TCS CARRIER BAG MIDI   0000001000+00000035+00000+0001T   00000035+0000001331          1400 GU6090               1AZ
105332000105332               105332               170213DL     1400+00000+DL0000015434+0000015434+000000000+000002163+0000017597+0000000000+I40000017597+0000000000+Z
105332001105332077-000270     105332006003000395453GIFT-BAG PPR JMB 33X45 0000001000+00002630+00000+0001T   00002630+0000001337          1400 GU6112               1BZ
105332002105332368-000637     105332006001023874092PLUSH BEAR SLEEPING LOV0000001000+00011402+00000+0001T   00012279+0006471337          1400 GU6745               1BZ
105332003105332304-001204     105332006001023737984FLOWER OCC. TEDDY/ROSES0000001000+00001402+00000+0001T   00001490+0006471337          1400 GU6510               1BZ
105333000105333               105333               170213DL     1400+00000+DL0000003640+0000003640+000000000+000000511+0000004151+0000000000+I40000004151+0000000000+Z
105333001105333304-001205     105333006001023738011FLWR P/STER FERN SPRAY 0000003000+00000613+00000+0001T   00000613+0000001341          1400 GU6510               1BZ
105333003105333080-000113     105333006003000237449CARD&ENVLPE - LOVE     0000001000+00001753+00000+0001T   00001753+0000001341          1400 GU6112               1BZ
105333004105333112-116069     105333006009681820277TCS CARRIER BAG JUMBO  0000001000+00000048+00000+0001T   00000048+0000001341          1400 GU6090               1BZ
105334000105334               105334               170213DL     1400+00000+DL0000012236+0000012236+000000000+000001715+0000013950+0000000001+I20000000000+0000013950+Z
105334001105334903-000891     105334006009702258997SWT GUM BEECHIES MUSK  0000001000+00000788+00000+0001T   00000788+0000001343          1400 GU6150               1AZ
105334002105334079-003020     105334006003000662944PAINT ACRYLIC SET TUBE 0000001000+00005262+00000+0001T   00005262+0000001343          1400 GU6130               1AZ
105334003105334079-000275     105334006003000160488PAINT-BRUSHES 6PCE PRO 0000001000+00001753+00000+0001T   00001753+0000001343          1400 GU6130               1AZ
105334004105334079-001001     105334006003000448593CANVAS A3 WOOD MOUNTED 0000001000+00004385+00000+0001T   00004385+0000001343          1400 GU6130               1AZ
105334005105334112-116069     105334006009681820277TCS CARRIER BAG JUMBO  0000001000+00000048+00000+0001T   00000048+0000001343          1400 GU6090               1AZ
105335000105335               105335               170213DL     1400+00000+DL0000009994+0000009994+000000000+000001400+0000011390+0000000004+I20000000000+0000011390+Z
105335001105335564-000036     105335006001023708694BUBBLE W/PUZZLE        0000002000+00001490+00000+0001T   00001490+0000001345          1400 GU6131               1AZ
105335002105335362-002467     105335006003000167623HAIR EXT LONG 61cm     0000002000+00003507+00000+0001T   00003507+0000001345          1400 GU6160               1AZ
105336000105336               105336               170213DL     1400+00000+DL0000001753+0000001753+000000000+000000246+0000001990+0000000009+I20000000000+0000001990+Z
105336001105336084-006995     105336006003000092802NAIL CLIPPER 8cm TOE   0000001000+00001753+00000+0001T   00001753+0000001346          1400 GU6200               1AZ
105337000105337               105337               170213DL     1400+00000+DL0000002980+0000002980+000000000+000000418+0000003390+0000000008+I20000000000+0000003390+Z
105337001105337565-004101     105337006003000548033BALL BOUNCING EGG      0000002000+00001490+00000+0001T   00001490+0000001347          1400 GU6745               1AZ
105338000105338               105338               170213DL     1400+00000+DL0000003417+0000003417+000000000+000000480+0000003890+0000000007+I20000000000+0000003890+Z
105338001105338903-000087     105338006001704000161SWT SPECKLED-EGGS 50G  0000001000+00001139+00000+0001T   00001139+0000001348          1400 GU6150               1AZ
105338002105338903-000138     105338006002099004314SWT GS WINE GUMS 60G   0000001000+00000788+00000+0001T   00000788+0000001348          1400 GU6150               1AZ
105338003105338077-000299     105338006003000395576G/BAG 32x25cm LRG LOVE 0000001000+00001490+00000+0001T   00001490+0000001348          1400 GU6112               1AZ
105339000105339               105339               170213DL     1400+00000+DL0000003542+0000003542+000000000+000000496+0000004030+0000000008+I20000000000+0000004030+Z
105339001105339018-000136     105339006001023659026MUG OCC LOVE W/PLUSH   0000001000+00003507+00000+0001T   00003507+0000001349          1400 GU6515               1BZ
105339002105339112-116038     105339006009681820246TCS CARRIER BAG MIDI   0000001000+00000035+00000+0001T   00000035+0000001349          1400 GU6090               1BZ
105340000105340               105340               170213DL     1400+00000+DL0000007016+0000007016+000000000+000000983+0000007990+0000000009+I20000000000+0000007990+Z
105340001105340031-086219-C   105340006001023808905P/FRAME WDN A4 30X40CM 0000001000+00007016+00000+0001T   00007016+0000001349          1400 GU6510               1AZ
105341000105341               105341               170213DL     1400+00000+DL0000014502+0000014502+000000000+000002032+0000016534+0000000000+I40000016534+0000000000+Z
105341001105341080-000133     105341006003000535613CARD&ENV MINI ASTD DSGN0000001000+00000437+00000+0001T   00000437+0000001406          1400 GU6112               1AZ
105341002105341031-000002     105341006001023851338FRAME FRIENDS 7.5x7.5cm0000001000+00003507+00000+0001T   00003507+0000001406          1400 GU6510               1AZ
105341003105341079-000335     105341006003000670550THERAPY P/CRAYONS 30   0000001000+00007016+00000+0001T   00007016+0000001406          1400 GU6130               1AZ
105341004105341567-011343     105341006003000630592BK COLOURING THERAPY   0000001000+00003507+00000+0001T   00003507+0000001406          1400 GU6757               1AZ
105341005105341112-116038     105341006009681820246TCS CARRIER BAG MIDI   0000001000+00000035+00000+0001T   00000035+0000001406          1400 GU6090               1AZ
105342000105342               105342               170213DL     1400+00000+DL0000000788+0000000788+000000000+000000111+0000000890+0000000009+I20000000000+0000000890+Z
105342001105342077-000383     105342006003000247943GIFT-BAG 11X14CM S/COL 0000001000+00000788+00000+0001T   00000788+0000001407          1400 GU6112               1BZ
105343000105343               105343               170213DL     1400+00000+DL0000026288+0000026288+000000000+000003686+0000029974+0000000000+I40000029974+0000000000+Z
105343001105343079-009702-D   105343008427973059354PAPER SIRIO A2 RED COL 0000002000+00001051+00000+0001T   00001051+0000001413          1400 GU6130               1AZ
105343002105343077-000303     105343006001023593757GIFT-BAG PAPER MED     0000002000+00001578+00000+0001T   00001578+0000001413          1400 GU6112               1AZ
105343003105343368-000049     105343006003000536955PLUSH BEAR 15cm LOVE   0000002000+00004385+00000+0001T   00004385+0000001413          1400 GU6745               1AZ
105343004105343006-001000     105343006003000093779HELIUM BALLOON FILL    0000020000+00000613+00000+0001T   00000613+0000001413          1400 GU6131               1AZ
105344000105344               105344               170213DL     1400+00000+DL0000005562+0000005562+000000000+000000783+0000006345+0000000000+I40000006345+0000000000+Z
105344001105344079-006495     105344006003000159987GLITTER SHAKERS 6PK    0000001000+00002630+00000+0001T   00002630+0000001418          1400 GU6130               1AZ
105344002105344566-001500     105344006003000658275STICKER PUFFY EMOTION  0000001000+00001753+00000+0001T   00001753+0000001418          1400 GU6130               1AZ
105344003105344903-000183     105344006003000451043SWT LB HEART LOLLY     0000003000+00000393+00000+0001T   00000393+0000001418          1400 GU6150               1AZ
105345000105345               105345               170213DL     1400+00000+DL0000001227+0000001227+000000000+000000172+0000001390+0000000009+I20000000000+0000001390+Z
105345001105345071-081091     105345006001151010287STAED/GENKEM ALL-STICK 0000001000+00001227+00000+0001T   00001227+0000001419          1400 GU6130               1AZ
105346000105346               105346               170213DL     1400+00000+DL0000001753+0000001753+000000000+000000246+0000001990+0000000009+I20000000000+0000001990+Z
105346001105346038-092232     105346006001023625830TABLE-MAT N/SLIP 32x55 0000001000+00001753+00000+0001T   00001753+0000001421          1400 GU6300               1AZ
105347000105347               105347               170213DL     1400+00000+DL0000001663+0000001663+000000000+000000234+0000001890+0000000007+I20000000000+0000001890+Z
105347001105347077-000151     105347006008766114676GIFT-WRAP C/PHANE ASSTD0000001000+00000876+00000+0001T   00000876+0000001423          1400 GU6112               1AZ
105347002105347903-000159     105347006003000417629SWT LB SMALL DUMMIE    0000001000+00000350+00000+0001T   00000350+0000001423          1400 GU6150               1AZ
105347003105347080-000133     105347006003000535613CARD&ENV MINI ASTD DSGN0000001000+00000437+00000+0001T   00000437+0000001423          1400 GU6112               1AZ
105348000105348               105348               170213DL     1400+00000+DL0000008819+0000008819+000000000+000001235+0000010050+0000000004+I20000000000+0000010050+Z
105348001105348112-116069     105348006009681820277TCS CARRIER BAG JUMBO  0000001000+00000048+00000+0001T   00000048+0000001424          1400 GU6090               1AZ
105348002105348031-086302-C   105348006001023910332P/FRAME COLL. PL 3-HOLE0000001000+00008771+00000+0001T   00008771+0000001424          1400 GU6510               1AZ
105349000105349               105349               170213DL     1400+00000+DL0000003506+0000003506+000000000+000000492+0000003990+0000000008+I20000000000+0000003990+Z
105349001105349077-000299-A   105349006003000670888GIFT-BAG PAPER JMB LOVE0000001000+00001753+00000+0001T   00001753+0000001427          1400 GU6112               1AZ
105349002105349080-000113     105349006003000237449CARD&ENVLPE - LOVE     0000001000+00001753+00000+0001T   00001753+0000001427          1400 GU6112               1AZ
105350000105350               105350               170213DL     1400+00000+DL0000002630+0000002630+000000000+000000369+0000002990+0000000009+I20000000000+0000002990+Z
105350001105350366-000300     105350006001023902955DRESSUP TIARA FEATHER  0000001000+00002630+00000+0001T   00002630+0000001428          1400 GU6131               1AZ
105351000105351               105351               170213DL     1400+00000+DL0000000000+0000000000+000000000+000000000+0000000000+0000000000+I20000000000+0000000000+Z
105351001105351082-000105     105351006003000360369READING GLS STRNGHT:1.50000001000-00004385+00000+0001T   00004385+0000001434          1400 GU61602IC            1 Z
105351002105351082-000100     105351006003000360246READING GLS STRENGHT:1 0000001000+00004385+00000+0001T   00004385+0000001434          1400 GU6160               1 Z
105352000105352               105352               170213DL     1400+00000+DL0000003191+0000003191+000000000+000000447+0000003638+0000000000+I40000003638+0000000000+Z
105352001105352018-000127     105352006001023380289MUG OCC STRAIGHT LOVE  0000001000+00001578+00000+0001T   00001753+0006471438          1400 GU6515               1AZ
105352002105352077-000303     105352006001023593757GIFT-BAG PAPER MED     0000001000+00001578+00000+0001T   00001578+0000001438          1400 GU6112               1AZ
105352003105352112-116038     105352006009681820246TCS CARRIER BAG MIDI   0000001000+00000035+00000+0001T   00000035+0000001438          1400 GU6090               1AZ
105353000105353               105353               170213DL     1400+00000+DL0000002678+0000002678+000000000+000000376+0000003050+0000000004+I20000000000+0000003050+Z
105353001105353112-116069     105353006009681820277TCS CARRIER BAG JUMBO  0000001000+00000048+00000+0001T   00000048+0000001439          1400 GU6090               1AZ
105353002105353077-000235     105353006003000160211GIFT-RIBBON ROLL METALC0000001000+00002630+00000+0001T   00002630+0000001439          1400 GU6112               1AZ
105354000105354               105354               170213DL     1400+00000+DL0000002540+0000002540+000000000+000000357+0000002890+0000000007+I20000000000+0000002890+Z
105354001105354077-000299     105354006003000395576G/BAG 32x25cm LRG LOVE 0000001000+00001490+00000+0001T   00001490+0000001440          1400 GU6112               1AZ
105354002105354903-000155     105354006009803374435SWT LOLLY I LUV U HEART0000002000+00000525+00000+0001T   00000525+0000001440          1400 GU6150               1AZ
105355000105355               105355               170213DL     1400+00000+DL0000002630+0000002630+000000000+000000369+0000002999+0000000000+I40000002999+0000000000+Z
105355001105355466-000515     105355006001023477408BALLS TENNIS BAG-OF-3  0000001000+00002630+00000+0001T   00002630+0000001448          1400 GU6785               1AZ
105356000105356               105356               170213DL     1400+00000+DL0000001400+0000001400+000000000+000000196+0000001590+0000000006+I20000000000+0000001590+Z
105356001105356018-000177     105356006001023797513MUG MINI LOVE ASSTD    0000002000+00000700+00000+0001T   00000700+0000001450          1400 GU6515               1AZ
105357000105357               105357               170213DL     1400+00000+DL0000000393+0000000393+000000000+000000056+0000000440+0000000009+I20000000000+0000000440+Z
105357001105357903-000183     105357006003000451043SWT LB HEART LOLLY     0000001000+00000393+00000+0001T   00000393+0000001451          1400 GU6150               1AZ
105358000105358               105358               170213DL     1400+00000+DL0000001490+0000001490+000000000+000000209+0000001690+0000000009+I20000000000+0000001690+Z
105358001105358077-000299     105358006003000395576G/BAG 32x25cm LRG LOVE 0000001000+00001490+00000+0001T   00001490+0000001452          1400 GU6112               1AZ
105359000105359               105359               170213DL     1400+00000+DL0000001753+0000001753+000000000+000000246+0000001990+0000000009+I20000000000+0000001990+Z
105359001105359077-000240     105359006003000326259G/RIBBON 4PC PEARLIZED 0000001000+00001753+00000+0001T   00001753+0000001453          1400 GU6112               1AZ
105360000105360               105360               170213DL     1400+00000+DL0000001490+0000001490+000000000+000000209+0000001690+0000000009+I20000000000+0000001690+Z
105360001105360077-000299     105360006003000395576G/BAG 32x25cm LRG LOVE 0000001000+00001490+00000+0001T   00001490+0000001503          1400 GU6112               1AZ
105361000105361               105361               170213DL     1400+00000+DL0000010521+0000010521+000000000+000001473+0000011994+0000000000+I40000011994+0000000000+Z
105361001105361018-000136     105361006001023659026MUG OCC LOVE W/PLUSH   0000003000+00003507+00000+0001T   00003507+0000001505          1400 GU6515               1AZ
105362000105362               105362               170213DL     1400+00000+DL0000000048+0000000048+000000000+000000007+0000000050+0000000005+I20000000000+0000000050+Z
105362001105362112-116069     105362006009681820277TCS CARRIER BAG JUMBO  0000001000+00000048+00000+0001T   00000048+0000001506          1400 GU6090               1AZ
105363000105363               105363               170213DL     1400+00000+DL0000001753+0000001753+000000000+000000246+0000001990+0000000009+I20000000000+0000001990+Z
105363001105363072-000232     105363006003000236060DOG-COL REFLCTV 35-51cm0000001000+00001753+00000+0001T   00001753+0000001507          1400 GU6870               1AZ
105364000105364               105364               170213DL     1400+00000+DL0000001753+0000001753+000000000+000000246+0000001990+0000000009+I20000000000+0000001990+Z
105364001105364080-000113     105364006003000237449CARD&ENVLPE - LOVE     0000001000+00001753+00000+0001T   00001753+0000001508          1400 GU6112               1AZ
105365000105365               105365               170213DL     1400+00000+DL0000002453+0000002453+000000000+000000344+0000002797+0000000000+I40000002797+0000000000+Z
105365001105365089-000030     105365006003000575671K/CHAIN LOVE MTL ASSTD 0000001000+00001753+00000+0001T   00001753+0000001512          1400 GU6205               1AZ
105365002105365018-000177     105365006001023797513MUG MINI LOVE ASSTD    0000001000+00000700+00000+0001T   00000700+0000001512          1400 GU6515               1AZ
105366000105366               105366               170213DL     1400+00000+DL0000002980+0000002980+000000000+000000418+0000003390+0000000008+I20000000000+0000003390+Z
105366001105366006-000102     105366006001023806819BALLOONS W/BOMBS 50PCE 0000002000+00001490+00000+0001T   00001490+0000001514          1400 GU6131               1AZ
105367000105367               105367               170213DL     1400+00000+DL0000001450+0000001450+000000000+000000204+0000001650+0000000004+I20000000000+0000001650+Z
105367001105367112-116069     105367006009681820277TCS CARRIER BAG JUMBO  0000001000+00000048+00000+0001T   00000048+0000001520          1400 GU6090               1AZ
105367002105367304-001204     105367006001023737984FLOWER OCC. TEDDY/ROSES0000001000+00001402+00000+0001T   00001490+0006471520          1400 GU6510               1AZ
105368000105368               105368               170213DL     1400+00000+DL0000005810+0000005810+000000000+000000819+0000006620+0000000009+I20000000000+0000006620+Z
105368001105368903-000155     105368006009803374435SWT LOLLY I LUV U HEART0000011000+00000525+00000+0001T   00000525+0000001523          1400 GU6150               1AZ
105368002105368112-116038     105368006009681820246TCS CARRIER BAG MIDI   0000001000+00000035+00000+0001T   00000035+0000001523          1400 GU6090               1AZ
105369000105369               105369               170213DL     1400+00000+DL0000002627+0000002627+000000000+000000370+0000002997+0000000000+I40000002997+0000000000+Z
105369001105369080-000133-A   105369006003000647019MINI VALENTINES CARD   0000001000+00000437+00000+0001T   00000437+0000001531          1400 GU6112               1AZ
105369002105369080-000133     105369006003000535613CARD&ENV MINI ASTD DSGN0000001000+00000437+00000+0001T   00000437+0000001531          1400 GU6112               1AZ
105369003105369077-000333     105369006001023745316GIFT-BAG 25X32CM EVERYD0000001000+00001753+00000+0001T   00001753+0000001531          1400 GU6112               1AZ
105370000105370               105370               170213DL     1400+00000+DL0000016220+0000016220+000000000+000002273+0000018490+0000000003+I20000000000+0000018490+Z
105370001105370140-002197     105370006009801166001VIBRANT INSECT-CHALK 2P0000005000+00002192+00000+0001T   00002192+0000001532          1400 GU6830               1AZ
105370002105370076-000030-H   105370006001023429544WASHING-LINE 30m    H&H0000001000+00002630+00000+0001T   00002630+0000001532          1400 GU6810               1AZ
105370003105370076-000750     105370006003000423347CORD STRETCH 2-CLAW    0000001000+00002630+00000+0001T   00002630+0000001532          1400 GU6810               1AZ
105371000105371               105371               170213DL     1400+00000+DL0000023945+0000023945+000000000+000003368+0000027313+0000000000+I40000027313+0000000000+Z
105371001105371112-116069     105371006009681820277TCS CARRIER BAG JUMBO  0000001000+00000048+00000+0001T   00000048+0000001537          1400 GU6090               1AZ
105371002105371903-004950     105371006002580020304SWT APRICOT SURPRISE   0000002000+00001314+00000+0001T   00001314+0000001537          1400 GU6150               1AZ
105371003105371903-000211     105371006002099001238SWT GS MALLOW ICE CREAM0000002000+00001753+00000+0001T   00001753+0000001537          1400 GU6150               1AZ
105371004105371030-000031-A   105371006003000457588PLAQUE W/WORDS ASSTD   0000001000+00004385+00000+0001T   00004823+0006471537          1400 GU6505               1AZ
105371005105371903-000155     105371006009803374435SWT LOLLY I LUV U HEART0000008000+00000525+00000+0001T   00000525+0000001537          1400 GU6150               1AZ
105371006105371903-000151     105371006009803374411SWT SML RND R/BOW LOLLY0000008000+00000525+00000+0001T   00000525+0000001537          1400 GU6150               1AZ
105371007105371903-000099     105371006923431501646SWT CANDY GS WTCH B/LET0000019000+00000262+00000+0001T   00000262+0000001537          1400 GU6150               1AZ
105372000105372               105372               170213DL     1400+00000+DL0000001578+0000001578+000000000+000000221+0000001790+0000000009+I20000000000+0000001790+Z
105372001105372077-000303     105372006001023593757GIFT-BAG PAPER MED     0000001000+00001578+00000+0001T   00001578+0000001540          1400 GU6112               1AZ
105373000105373               105373               170213DL     1400+00000+DL0000001402+0000001402+000000000+000000197+0000001590+0000000009+I20000000000+0000001590+Z
105373001105373304-001204     105373006001023737984FLOWER OCC. TEDDY/ROSES0000001000+00001402+00000+0001T   00001490+0006471541          1400 GU6510               1AZ
105374000105374               105374               170213DL     1400+00000+DL0000001578+0000001578+000000000+000000221+0000001790+0000000009+I20000000000+0000001790+Z
105374001105374077-000303     105374006001023593757GIFT-BAG PAPER MED     0000001000+00001578+00000+0001T   00001578+0000001543          1400 GU6112               1AZ
105375000105375               105375               170213DL     1400+00000+DL0000005908+0000005908+000000000+000000828+0000006730+0000000006+I20000000000+0000006730+Z
105375001105375024-000018     105375006001023610232CAKE-DEC S/S NOZZLE    0000001000+00003946+00000+0001T   00003946+0000001545          1400 GU6300               1AZ
105375002105375077-000319     105375006001023609779GIFT-BAG 18X23CM BIRTHD0000001000+00001227+00000+0001T   00001227+0000001545          1400 GU6112               1AZ
105375003105375077-000349     105375006001023875488GIFT-BAG 18X23CM BEAD H0000001000+00000700+00000+0001T   00000700+0000001545          1400 GU6112               1AZ
105375004105375112-116038     105375006009681820246TCS CARRIER BAG MIDI   0000001000+00000035+00000+0001T   00000035+0000001545          1400 GU6090               1AZ
105376000105376               105376               170213DL     1400+00000+DL0000002455+0000002455+000000000+000000344+0000002799+0000000000+I40000002799+0000000000+Z
105376001105376562-059809     105376006003000542284EDU LETTERS/NRS GLOW   0000001000+00002455+00000+0001T   00002455+0000001547          1400 GU6755               1AZ
105377000105377               105377               170213DL     1400+00000+DL0000023674+0000023674+000000000+000003317+0000026990+0000000001+I20000000000+0000026990+Z
105377001105377027-009025     105377006003962000747DUSTPAN-SET PL         0000001000+00002630+00000+0001T   00002630+0000001549          1400 GU6212               1AZ
105377002105377251-000070     105377006003000451777PROTECTION-PADS BLK ADH0000001000+00001753+00000+0001T   00001753+0000001549          1400 GU6810               1AZ
105377003105377159-003605     105377006001023156242TOILET-BRUSH+STAND COLR0000001000+00004385+00000+0001T   00004385+0000001549          1400 GU6200               1AZ
105377004105377012-000002     105377006003000331079MICRO PLATE-COVER 26X9 0000001000+00003507+00000+0001T   00003507+0000001549          1400 GU6300               1AZ
105377005105377041-007001-B   105377006003000636983H/GLOW LIQUID LAVENDER 0000001000+00002192+00000+0001T   00002192+0000001549          1400 GU6200               1AZ
105377006105377041-007001-C   105377006003000637102H/GLOW LIQUID VANILLA  0000001000+00002192+00000+0001T   00002192+0000001549          1400 GU6200               1AZ
105377007105377159-003625     105377006001023902061TOILET-BRUSH W/STD 40cm0000001000+00005262+00000+0001T   00005262+0000001549          1400 GU6200               1AZ
105377008105377047-000507     105377006001023684479PLUG-ADAPTOR EURO TWIN 0000001000+00001753+00000+0001T   00001753+0000001549          1400 GU6880               1AZ
105378000105378               105378               170213DL     1400+00000+DL0000005435+0000005435+000000000+000000762+0000006190+0000000007+I20000000000+0000006190+Z
105378001105378079-009702-D   105378008427973059354PAPER SIRIO A2 RED COL 0000001000+00001051+00000+0001T   00001051+0000001550          1400 GU6130               1AZ
105378002105378563-000318-L   105378006003000407088SERVIETTES 33cm RED    0000002000+00002192+00000+0001T   00002192+0000001550          1400 GU6214               1AZ
105379000105379               105379               170213DL     1400+00000+DL0000001753+0000001753+000000000+000000246+0000001990+0000000009+I20000000000+0000001990+Z
105379001105379200-003026     105379006003000276448REFUSE BAGS 10PCE GREEN0000001000+00001753+00000+0001T   00001753+0000001552          1400 GU6214               1AZ
105380000105380               105380               170213DL     1400+00000+DL0000005260+0000005260+000000000+000000737+0000005997+0000000000+I40000005997+0000000000+Z
105380001105380018-000136     105380006001023659026MUG OCC LOVE W/PLUSH   0000001000+00003507+00000+0001T   00003507+0000001554          1400 GU6515               1BZ
105380002105380077-000299-A   105380006003000670888GIFT-BAG PAPER JMB LOVE0000001000+00001753+00000+0001T   00001753+0000001554          1400 GU6112               1BZ
105381000105381               105381               170213DL     1400+00000+DL0000001578+0000001578+000000000+000000221+0000001790+0000000009+I20000000000+0000001790+Z
105381001105381018-000127     105381006001023380289MUG OCC STRAIGHT LOVE  0000001000+00001578+00000+0001T   00001753+0006471555          1400 GU6515               1AZ
105382000105382               105382               170213DL     1400+00000+DL0000004382+0000004382+000000000+000000615+0000004990+0000000007+I20000000000+0000004990+Z
105382001105382306-000023     105382006001023606976COTTON-WOOL-BALLS 50PCE0000002000+00000876+00000+0001T   00000876+0000001556          1400 GU6200               1AZ
105382002105382034-078810     105382006001023856838DIAPER DISPOSE-BAGSx1000000001000+00002630+00000+0001T   00002630+0000001556          1400 GU6215               1AZ
105383000105383               105383               170213DL     1400+00000+DL0000003507+0000003507+000000000+000000491+0000003990+0000000008+I20000000000+0000003990+Z
105383001105383019-000124     105383006003000329502PLANTER GALV ROUND SML 0000001000+00003507+00000+0001T   00004385+0008171557          1400 GU6510               1AZ
105384000105384               105384               170213DL     1400+00000+DL0000004294+0000004294+000000000+000000603+0000004890+0000000007+I20000000000+0000004890+Z
105384001105384047-000502-H   105384006001023780041PLUG 2x2PIN EURO       0000001000+00001753+00000+0001T   00001753+0000001558          1400 GU6880               1AZ
105384002105384047-000505     105384006009636901976PLUG-ADAPTOR 2-PIN     0000001000+00000876+00000+0001T   00000876+0000001558          1400 GU6880               1AZ
105384003105384047-000504-H   105384006001023589958PLUG EURODAPTOR 2PIN HH0000001000+00001665+00000+0001T   00001665+0000001558          1400 GU6880               1AZ
105385000105385               105385               170213DL     1400+00000+DL0000004642+0000004642+000000000+000000653+0000005295+0000000000+I40000005295+0000000000+Z
105385001105385080-000133     105385006003000535613CARD&ENV MINI ASTD DSGN0000002000+00000437+00000+0001T   00000437+0000001602          1400 GU6112               1AZ
105385002105385080-000133-A   105385006003000647019MINI VALENTINES CARD   0000001000+00000437+00000+0001T   00000437+0000001602          1400 GU6112               1AZ
105385003105385080-000124     105385006003000297733CARD & ENV VALENTINES  0000001000+00001578+00000+0001T   00001578+0000001602          1400 GU6112               1AZ
105385004105385077-000906     105385006003000410804G/WRAP 700mmx1m BIRTHDA0000001000+00001753+00000+0001T   00001753+0000001602          1400 GU6112               1AZ
105386000105386               105386               170213DL     1400+00000+DL0000007035+0000007035+000000000+000000985+0000008020+0000000000+I20000000000+0000008020+Z
105386001105386018-000177     105386006001023797513MUG MINI LOVE ASSTD    0000010000+00000700+00000+0001T   00000700+0000001603          1400 GU6515               1AZ
105386002105386112-116038     105386006009681820246TCS CARRIER BAG MIDI   0000001000+00000035+00000+0001T   00000035+0000001603          1400 GU6090               1AZ
105387000105387               105387               170213DL     1400+00000+DL0000006626+0000006626+000000000+000000928+0000007550+0000000004+I20000000000+0000007550+Z
105387001105387486-002065     105387006003000057030C/ALARM QTZ PL SQUARE  0000001000+00006578+00000+0001T   00006578+0000001604          1400 GU6510               1AZ
105387002105387112-116069     105387006009681820277TCS CARRIER BAG JUMBO  0000001000+00000048+00000+0001T   00000048+0000001604          1400 GU6090               1AZ
105388000105388               105388               170213DL     1400+00000+DL0000007233+0000007233+000000000+000001014+0000008247+0000000000+I40000008247+0000000000+Z
105388001105388368-000171     105388006003000233250PLUSH BEAR 14cm        0000001000+00005262+00000+0001T   00005262+0000001606          1400 GU6745               1AZ
105388002105388903-000183     105388006003000451043SWT LB HEART LOLLY     0000001000+00000393+00000+0001T   00000393+0000001606          1400 GU6150               1AZ
105388003105388077-000303     105388006001023593757GIFT-BAG PAPER MED     0000001000+00001578+00000+0001T   00001578+0000001606          1400 GU6112               1AZ
105389000105389               105389               170213DL     1400+00000+DL0000011401+0000011401+000000000+000001597+0000012990+0000000008+I20000000000+0000012990+Z
105389001105389107-004510     105389006002580008968STEP-STOOL PL          0000001000+00005262+00000+0001T   00005262+0000001607          1400 GU6210               1AZ
105389002105389108-007000     105389006008766085105SERVING-TABLE          0000001000+00006139+00000+0001T   00006139+0000001607          1400 GU6210               1AZ
105390000105390               105390               170213DL     1400+00000+DL0000000035+0000000035+000000000+000000005+0000000040+0000000000+I20000000000+0000000040+Z
105390001105390112-116038     105390006009681820246TCS CARRIER BAG MIDI   0000001000+00000035+00000+0001T   00000035+0000001608          1400 GU6090               1AZ
105391000105391               105391               170213DL     1400+00000+DL0000008014+0000008014+000000000+000001123+0000009137+0000000000+I40000009137+0000000000+Z
105391001105391112-116038     105391006009681820246TCS CARRIER BAG MIDI   0000001000+00000035+00000+0001T   00000035+0000001646          1400 GU6090               1AZ
105391002105391903-000087     105391006001704000161SWT SPECKLED-EGGS 50G  0000001000+00001139+00000+0001T   00001139+0000001646          1400 GU6150               1AZ
105391003105391079-000510     105391006001023509079CRAYONS WAX 12-COLOUR  0000001000+00002455+00000+0001T   00002455+0000001646          1400 GU6130               1AZ
105391004105391567-010597     105391009781472337108BOOK COLOURING FROZEN  0000001000+00004385+00000+0001T   00004385+0000001646          1400 GU6757               1AZ
105392000105392               105392               170213DL     1400+00000+DL0000005739+0000005739+000000000+000000805+0000006540+0000000004+I20000000000+0000006540+Z
105392001105392564-000012     105392006001023130075BUBBLE BOTTLE MAGIC    0000002000+00000700+00000+0001T   00000700+0000001651          1400 GU6131               1AZ
105392002105392304-001011     105392006001023806727FLWR ROSE RED W/BEAR   0000007000+00000613+00000+0001T   00000788+0006471651          1400 GU6510               1AZ
105392003105392112-116069     105392006009681820277TCS CARRIER BAG JUMBO  0000001000+00000048+00000+0001T   00000048+0000001651          1400 GU6090               1AZ
105393000105393               105393               170213DL     1400+00000+DL0000002980+0000002980+000000000+000000418+0000003390+0000000008+I20000000000+0000003390+Z
105393001105393077-000327     105393006001023677686GIFT-BAG 25X32CM E/D BA0000001000+00001490+00000+0001T   00001490+0000001703          1400 GU6112               1AZ
105393002105393565-004101     105393006003000548033BALL BOUNCING EGG      0000001000+00001490+00000+0001T   00001490+0000001703          1400 GU6745               1AZ
105394000105394               105394               170213DL     1400+00000+DL0000007012+0000007012+000000000+000000984+0000007996+0000000000+I40000007996+0000000000+Z
105394001105394006-006013     105394006001023735195PARTY-SPRAY STRING     0000001000+00002630+00000+0001T   00002630+0000001709          1400 GU6131               1AZ
105394002105394366-000282     105394006003000611027DRESS UP SLEEVE TATTOO 0000001000+00001753+00000+0001T   00001753+0000001709          1400 GU6131               1AZ
105394003105394366-002810     105394006003000535620DRESSUP ANIMAL SET 3PCE0000001000+00002192+00000+0001T   00002192+0000001709          1400 GU6131               1AZ
105394004105394080-000133     105394006003000535613CARD&ENV MINI ASTD DSGN0000001000+00000437+00000+0001T   00000437+0000001709          1400 GU6112               1AZ
105395000105395               105395               170213DL     1400+00000+DL0000001788+0000001788+000000000+000000251+0000002030+0000000009+I20000000000+0000002030+Z
105395001105395024-000038     105395006001023477026MEASURING-JUG 1L (4CUP)0000001000+00001753+00000+0001T   00001753+0000001711          1400 GU6300               1AZ
105395002105395112-116038     105395006009681820246TCS CARRIER BAG MIDI   0000001000+00000035+00000+0001T   00000035+0000001711          1400 GU6090               1AZ
105396000105396               105396               170213DL     1400+00000+DL0000000700+0000000700+000000000+000000098+0000000790+0000000008+I20000000000+0000000790+Z
105396001105396903-000121     105396006002099001689SWT GS ZILLIONS SOURS  0000001000+00000700+00000+0001T   00000700+0000001715          1400 GU6150               1AZ
105397000105397               105397               170213DL     1400+00000+DL0000002192+0000002192+000000000+000000307+0000002499+0000000000+I40000002499+0000000000+Z
105397001105397080-000127     105397006003000424351VALENTINES DAY 36x24CM 0000001000+00002192+00000+0001T   00002192+0000001718          1400 GU6112               1AZ
105398000105398               105398               170213DL     1400+00000+DL0000009647+0000009647+000000000+000001351+0000010998+0000000000+I40000010998+0000000000+Z
105398001105398903-000520     105398006001704009898SWT GUMMY MINI SOUR 60g0000001000+00000876+00000+0001T   00000876+0000001722          1400 GU6150               1AZ
105398002105398072-020242     105398006003000053728PET BED COTTON TEXTILE 0000001000+00008771+00000+0001T   00008771+0000001722          1400 GU6870               1AZ
105399000105399               105399               170213DL     1400+00000+DL0000001753+0000001753+000000000+000000246+0000001990+0000000009+I20000000000+0000001990+Z
105399001105399466-000103     105399006001023642134BALL 20cm ASSTD        0000001000+00001753+00000+0001T   00001753+0000001722          1400 GU6785               1AZ
105400000105400               105400               170213DL     1400+00000+DL0000005262+0000005262+000000000+000000737+0000005990+0000000009+I20000000000+0000005990+Z
105400001105400079-000336     105400006003000670758SUPER FINE MARKER PENS 0000001000+00005262+00000+0001T   00005262+0000001723          1400 GU6130               1AZ
105401000105401               105401               170213DL     1400+00000+DL0000002533+0000002533+000000000+000000355+0000002880+0000000008+I20000000000+0000002880+Z
105401001105401079-009700-B   105401006003000547661PAPER SIRIO A4 WHITE   0000001000+00000306+00000+0001T   00000306+0000001724          1400 GU6130               1AZ
105401002105401566-000068     105401006003000418046POP UP LOVE 2 ASSTD    0000001000+00002192+00000+0001T   00002192+0000001724          1400 GU6130               1AZ
105401003105401112-116038     105401006009681820246TCS CARRIER BAG MIDI   0000001000+00000035+00000+0001T   00000035+0000001724          1400 GU6090               1AZ
105402000105402               105402               170213DL     1400+00000+DL0000001227+0000001227+000000000+000000172+0000001390+0000000009+I20000000000+0000001390+Z
105402001105402077-000322     105402006001023677532GIFT-BAG 18X23CM E/D FL0000001000+00001227+00000+0001T   00001227+0000001725          1400 GU6112               1AZ
105403000105403               105403               170213DL     1400+00000+DL0000022650+0000022650+000000000+000003181+0000025831+0000000000+I40000025831+0000000000+Z
105403001105403903-000155     105403006009803374435SWT LOLLY I LUV U HEART0000018000+00000525+00000+0001T   00000525+0000001730          1400 GU6150               1AZ
105403002105403018-005009     105403006001023725608MUG W/PLUSH-BEAR LOVE  0000002000+00003507+00000+0001T   00003507+0000001730          1400 GU6515               1AZ
105403003105403301-085008     105403006003000673933ORN OCC.LOVE TINSEL HRT0000002000+00003069+00000+0001T   00003069+0000001730          1400 GU6505               1AZ
105403004105403112-116069     105403006009681820277TCS CARRIER BAG JUMBO  0000001000+00000048+00000+0001T   00000048+0000001730          1400 GU6090               1AZ
105404000105404               105404               170213DL     1400+00000+DL0000005478+0000005478+000000000+000000771+0000006249+0000000000+I40000006249+0000000000+Z
105404001105404304-001204     105404006001023737984FLOWER OCC. TEDDY/ROSES0000002000+00001402+00000+0001T   00001490+0006471741          1400 GU6510               1AZ
105404002105404903-000200     105404006009826020234SWT CHOC RP CHOCO 23G  0000002000+00000788+00000+0001T   00000788+0000001741          1400 GU6150               1AZ
105404003105404903-000155     105404006009803374435SWT LOLLY I LUV U HEART0000002000+00000525+00000+0001T   00000525+0000001741          1400 GU6150               1AZ
105404004105404112-116069     105404006009681820277TCS CARRIER BAG JUMBO  0000001000+00000048+00000+0001T   00000048+0000001741          1400 GU6090               1AZ
105405000105405               105405               170213DL     1400+00000+DL0000002190+0000002190+000000000+000000308+0000002490+0000000008+I20000000000+0000002490+Z
105405001105405304-001204     105405006001023737984FLOWER OCC. TEDDY/ROSES0000001000+00001402+00000+0001T   00001490+0006471741          1400 GU6510               1AZ
105405002105405903-000200     105405006009826020234SWT CHOC RP CHOCO 23G  0000001000+00000788+00000+0001T   00000788+0000001741          1400 GU6150               1AZ
105406000105406               105406               170213DL     1400+00000+DL0000003069+0000003069+000000000+000000430+0000003499+0000000000+I40000003499+0000000000+Z
105406001105406366-000256     105406006001023918406DRESS UP TIARA&EARRINGS0000001000+00003069+00000+0001T   00003069+0000001745          1400 GU6131               1AZ
105407000105407               105407               170213DL     1400+00000+DL0000014720-0000000000+000000000+000000000+0000014720-0000000000+I20000000000+0000014720-Z
105407001105407001-999901     105407000000000999901CASUAL WAGES           0000001000-00014720+00000+0001X  9903080558089 0800KFAAS 0000000000 GU69011IC            1 Z
C10532100                                          170213DL368-000049     12573116SLAVE 1     GU61IC0000000000+0000000000+0020000001000+
C10533300                                          170213DL031-000922     13403668SLAVE 1     GU62IC0000000000+0000000000+0020000001000+
C10536300                                          170213DL072-000620     15072452SLAVE 1     GU61IC0000000000+0000000000+0020000001000+
M17021391                              CASH        DLSLAVE 1                       Z-REPORT No.   602TOTAL (Sales - Refunds)          10631.29       CASH TO BE BANKED                 5065.20       DEBIT CARDS                          0.00       CREDIT CARDS                      5418.89       Z-READING                        10484.09       AIRTIME DEBIT CARD SALES             0.00       AIRTIME CARD SALES                   0.00       OVERS/UNDERS                         0.00       AIRTIME CASH SALES                   0.00       GIFT CARDS                           0.00       GIFT CARD CASH SALES                 0.00       CASUAL WAGES                       147.20       T O T A L  CASH PAYOUTS            147.20                                                                                                                                                                                                                                                                                                      Z
M17021392                              CASH        DLABSENT                                                                                                                                                                                          ANNUAL LEAVE                                                                                                                                                                                    DAY OFF                                                                                                                                                                                         COMMENTS          BALANCED                                                                                                                                                                                                                                                                                                                                                                     Z
Y17021300                                          DL00000000941373+000146
ZDL17021407593 SLAVE 1      SALES DATA                     NEXT INVOICE NO.  105408 0602
X DL Slave 1 First invoice 105261 170213 Last invoice 105407 170213 Next invoice 105408 Total number of records 000000488 clbackup completed 07:59:34
