110412000110412               110412               170213DL     1400+00000+DL0000002678+0000002678+000000000+000000376+0000003050+0000000004+I20000000000+0000003050+Z
110412001110412076-000030-H   110412006001023429544WASHING-LINE 30m    H&H0000001000+00002630+00000+0001T   00002630+0000001145          1400 AW6810               2AZ
110412002110412112-116069     110412006009681820277TCS CARRIER BAG JUMBO  0000001000+00000048+00000+0001T   00000048+0000001145          1400 AW6090               2AZ
110413000110413               110413               170213DL     1400+00000+DL0000001578+0000001578+000000000+000000221+0000001790+0000000009+I20000000000+0000001790+Z
110413001110413078-013424     110413006008741000338CONTACT-ADHESIVE 50ml  0000001000+00001578+00000+0001T   00001578+0000001149          1400 AW6810               2AZ
110414000110414               110414               170213DL     1400+00000+DL0000003416+0000003416+000000000+000000479+0000003890+0000000005+I20000000000+0000003890+Z
110414001110414903-000194     110414006009826020616SWT CHOC RP LOLLY 25G  0000002000+00001314+00000+0001T   00001314+0000001217          1400 AW6150               2AZ
110414002110414903-000200     110414006009826020234SWT CHOC RP CHOCO 23G  0000001000+00000788+00000+0001T   00000788+0000001217          1400 AW6150               2AZ
110415000110415               110415               170213DL     1400+00000+DL0000001787+0000001787+000000000+000000251+0000002030+0000000008+I20000000000+0000002030+Z
110415001110415007-000045     110415006009608640438DISPLAY-POCKETS A4 10PC0000002000+00000876+00000+0001T   00000876+0000001218          1400 AW6130               2AZ
110415002110415112-116038     110415006009681820246TCS CARRIER BAG MIDI   0000001000+00000035+00000+0001T   00000035+0000001218          1400 AW6090               2AZ
110416000110416               110416               170213DL     1400+00000+DL0000049092+0000049092+000000000+000006884+0000055970+0000000006+I20000000000+0000055970+Z
110416001110416006-000800     110416006001023902801HAT CABARET 14x18cm    0000001000+00001753+00000+0001T   00001753+0000001223          1400 AW6131               2AZ
110416002110416903-000611     110416006003000617326SWT SNAPPER 20cm       0000001000+00001753+00000+0001T   00001753+0000001223          1400 AW6150               2AZ
110416003110416080-000113     110416006003000237449CARD&ENVLPE - LOVE     0000002000+00001753+00000+0001T   00001753+0000001223          1400 AW6112               2AZ
110416004110416080-000124     110416006003000297733CARD & ENV VALENTINES  0000001000+00001578+00000+0001T   00001578+0000001223          1400 AW6112               2AZ
110416005110416567-011372     110416009781845316969BK STICKER SPOOKY ALIEN0000001000+00002192+00000+0001T   00003069+0008141223          1400 AW6757               2AZ
110416006110416080-000100     110416006003000236114CARD & ENVELOPE BDAY   0000001000+00001753+00000+0001T   00001753+0000001223          1400 AW6112               2AZ
110416007110416006-000120     110416006001023346889BALLOONS 10PC MIX COL  0000002000+00001753+00000+0001T   00001753+0000001223          1400 AW6131               2AZ
110416008110416024-000212-A   110416006003000420155C/CUTTER SET ASSTD     0000001000+00002630+00000+0001T   00002630+0000001223          1400 AW6300               2AZ
110416009110416080-000110     110416006003000237326CARD&ENVLPE BDAY-FUNNY 0000001000+00001753+00000+0001T   00001753+0000001223          1400 AW6112               2AZ
110416010110416080-000103     110416006003000236961CARD&ENVLOPE BDAY-MALE 0000001000+00001753+00000+0001T   00001753+0000001223          1400 AW6112               2AZ
110416011110416080-000111     110416006003000252695CARD&ENVELPE - MUSICAL 0000001000+00001753+00000+0001T   00001753+0000001223          1400 AW6112               2AZ
110416012110416079-011526     110416006003000408375GLITTER & SAND ART     0000001000+00003507+00000+0001T   00003507+0000001223          1400 AW6130               2AZ
110416013110416077-000240     110416006003000326259G/RIBBON 4PC PEARLIZED 0000001000+00001753+00000+0001T   00001753+0000001223          1400 AW6112               2AZ
110416014110416366-006103     110416006001023786944DRESS UP FACE PAINT SET0000001000+00002630+00000+0001T   00002630+0000001223          1400 AW6131               2AZ
110416015110416031-000902-D   110416006003000462957P/FRAME PL INNER-RIDGES0000001000+00008771+00000+0001T   00008771+0000001223          1400 AW6510               2AZ
110416016110416080-000134     110416006003000590988CARD & ENV GIANT BOY   0000001000+00002630+00000+0001T   00002630+0000001223          1400 AW6112               2AZ
110416017110416464-000515     110416006003000645725DART BOARD W/2x DARTS  0000001000+00003507+00000+0001T   00003507+0000001223          1400 AW6785               2AZ
110416018110416903-000200     110416006009826020234SWT CHOC RP CHOCO 23G  0000003000+00000788+00000+0001T   00000788+0000001223          1400 AW6150               2AZ
110417000110417               110417               170213DL     1400+00000+DL0000006137+0000006137+000000000+000000860+0000006997+0000000000+I40000006997+0000000000+Z
110417001110417204-000004     110417006003000416318MEMO HOLDERS ASSTD 7PCE0000001000+00002630+00000+0001T   00002630+0000001245          1400 AW6300               2AZ
110417002110417105-006955     110417006003000685325CONTAINER CLEAR BASE 8L0000001000+00003507+00000+0001T   00003507+0000001245          1400 AW6210               2AZ
110418000110418               110418               170213DL     1400+00000+DL0000002493+0000002493+000000000+000000351+0000002840+0000000004+I20000000000+0000002840+Z
110418001110418006-000172-B   110418006003000609819BALLOONS METALLIC L/GRN0000003000+00000218+00000+0001T   00000218+0000001250          1400 AW6131               2AZ
110418002110418006-001000     110418006003000093779HELIUM BALLOON FILL    0000003000+00000613+00000+0001T   00000613+0000001250          1400 AW6131               2AZ
110419000110419               110419               170213DL     1400+00000+DL0000006187+0000006187+000000000+000000867+0000007054+0000000000+I40000007054+0000000000+Z
110419001110419002-003725     110419006001023849557COLANDER S/S 24x10cm   0000001000+00006139+00000+0001T   00006139+0000001342          1400 AW6300               2AZ
110419002110419112-116069     110419006009681820277TCS CARRIER BAG JUMBO  0000001000+00000048+00000+0001T   00000048+0000001342          1400 AW6090               2AZ
110420000110420               110420               170213DL     1400+00000+DL0000005085+0000005085+000000000+000000712+0000005790+0000000007+I20000000000+0000005790+Z
110420001110420077-000303     110420006001023593757GIFT-BAG PAPER MED     0000001000+00001578+00000+0001T   00001578+0000001343          1400 AW6112               2AZ
110420002110420018-000136     110420006001023659026MUG OCC LOVE W/PLUSH   0000001000+00003507+00000+0001T   00003507+0000001343          1400 AW6515               2AZ
110421000110421               110421               170213DL     1400+00000+DL0000001576+0000001576+000000000+000000221+0000001790+0000000007+I20000000000+0000001790+Z
110421001110421071-005213     110421006001023690371CELLOTAPE 12mmx33m     0000001000+00000876+00000+0001T   00000876+0000001434          1400 AW6130               2AZ
110421002110421007-000104     110421006009685854865BK COVER BRWN KRFT ROLL0000002000+00000350+00000+0001T   00000350+0000001434          1400 AW6130               2AZ
110422000110422               110422               170213DL     1400+00000+DL0000010524+0000010524+000000000+000001474+0000011990+0000000008+I20000000000+0000011990+Z
110422001110422039-000799     110422006001023692382CANDLES TEALITE 100PCE 0000001000+00008771+00000+0001T   00008771+0000001435          1400 AW6510               2AZ
110422002110422200-003026     110422006003000276448REFUSE BAGS 10PCE GREEN0000001000+00001753+00000+0001T   00001753+0000001435          1400 AW6214               2AZ
110423000110423               110423               170213DL     1400+00000+DL0000009692+0000009692+000000000+000001358+0000011050+0000000000+I20000000000+0000011050+Z
110423001110423031-005853     110423006003000442416P/FRAME WDN TWIN HEARTS0000001000+00003507+00000+0001T   00003507+0000001612          1400 AW6510               2AZ
110423002110423204-000003     110423006003000593583MEMO HOLDERS POLY 4ASST0000001000+00003507+00000+0001T   00003507+0000001612          1400 AW6300               2AZ
110423003110423112-116069     110423006009681820277TCS CARRIER BAG JUMBO  0000001000+00000048+00000+0001T   00000048+0000001612          1400 AW6090               2AZ
110423004110423206-000620     110423006003000631797BACK SCRATCHER EXTEND  0000001000+00002630+00000+0001T   00002630+0000001612          1400 AW6321               2AZ
110424000110424               110424               170213DL     1400+00000+DL0000002678+0000002678+000000000+000000376+0000003050+0000000004+I20000000000+0000003050+Z
110424001110424112-116069     110424006009681820277TCS CARRIER BAG JUMBO  0000001000+00000048+00000+0001T   00000048+0000001614          1400 AW6090               2AZ
110424002110424077-000270     110424006003000395453GIFT-BAG PPR JMB 33X45 0000001000+00002630+00000+0001T   00002630+0000001614          1400 AW6112               2AZ
110425000110425               110425               170213DL     1400+00000+DL0000002401+0000002401+000000000+000000337+0000002730+0000000008+I20000000000+0000002730+Z
110425001110425080-000124     110425006003000297733CARD & ENV VALENTINES  0000001000+00001578+00000+0001T   00001578+0000001618          1400 AW6112               2AZ
110425002110425903-000200     110425006009826020234SWT CHOC RP CHOCO 23G  0000001000+00000788+00000+0001T   00000788+0000001618          1400 AW6150               2AZ
110425003110425112-116038     110425006009681820246TCS CARRIER BAG MIDI   0000001000+00000035+00000+0001T   00000035+0000001618          1400 AW6090               2AZ
110426000110426               110426               170213DL     1400+00000+DL0000000700+0000000700+000000000+000000098+0000000790+0000000008+I20000000000+0000000790+Z
110426001110426564-000012     110426006001023130075BUBBLE BOTTLE MAGIC    0000001000+00000700+00000+0001T   00000700+0000001623          1400 AW6131               2AZ
110427000110427               110427               170213DL     1400+00000+DL0000002804+0000002804+000000000+000000394+0000003190+0000000008+I20000000000+0000003190+Z
110427001110427304-001204     110427006001023737984FLOWER OCC. TEDDY/ROSES0000002000+00001402+00000+0001T   00001490+0006471624          1400 AW6510               2AZ
110428000110428               110428               170213DL     1400+00000+DL0000008770+0000008770+000000000+000001228+0000009990+0000000008+I20000000000+0000009990+Z
110428001110428368-000001     110428006003000097982Plush Bear 25cm        0000002000+00004385+00000+0001T   00004385+0000001625          1400 AW6745               2AZ
110429000110429               110429               170213DL     1400+00000+DL0000001753+0000001753+000000000+000000246+0000001990+0000000009+I20000000000+0000001990+Z
110429001110429077-000116     110429006003000240777GIFT-WRAP 700mmx2m COL 0000001000+00001753+00000+0001T   00001753+0000001628          1400 AW6112               2AZ
110430000110430               110430               170213DL     1400+00000+DL0000007049+0000007049+000000000+000000987+0000008030+0000000006+I20000000000+0000008030+Z
110430001110430031-000002     110430006001023851338FRAME FRIENDS 7.5x7.5cm0000002000+00003507+00000+0001T   00003507+0000001630          1400 AW6510               2AZ
110430002110430112-116038     110430006009681820246TCS CARRIER BAG MIDI   0000001000+00000035+00000+0001T   00000035+0000001630          1400 AW6090               2AZ
110431000110431               110431               170213DL     1400+00000+DL0000002630+0000002630+000000000+000000369+0000002999+0000000000+I40000002999+0000000000+Z
110431001110431039-000332     110431006001023900470CANDLES 8PCE+NUMBERS   0000001000+00002630+00000+0001T   00002630+0000001636          1400 AW6510               2AZ
110432000110432               110432               170213DL     1400+00000+DL0000001313+0000001313+000000000+000000184+0000001490+0000000007+I20000000000+0000001490+Z
110432001110432083-000055     110432006003000003853LIGHTER ELCTRNC REFILBL0000001000+00000613+00000+0001T   00000613+0000001637          1400 AW6315               2AZ
110432002110432306-000023-A   110432006003000110148COTTON WOOL BALLS 50PCE0000001000+00000700+00000+0001T   00001314+0008171637          1400 AW6200               2AZ
110433000110433               110433               170213DL     1400+00000+DL0000003542+0000003542+000000000+000000496+0000004030+0000000008+I20000000000+0000004030+Z
110433001110433018-000136     110433006001023659026MUG OCC LOVE W/PLUSH   0000001000+00003507+00000+0001T   00003507+0000001638          1400 AW6515               2AZ
110433002110433112-116038     110433006009681820246TCS CARRIER BAG MIDI   0000001000+00000035+00000+0001T   00000035+0000001638          1400 AW6090               2AZ
110434000110434               110434               170213DL     1400+00000+DL0000006132+0000006132+000000000+000000861+0000006993+0000000000+I40000006993+0000000000+Z
110434001110434077-000150-D   110434006003000054343GIFT-WRAP CELLPHANE CLR0000007000+00000876+00000+0001T   00000876+0000001640          1400 AW6112               2AZ
110435000110435               110435               170213DL     1400+00000+DL0000003818+0000003818+000000000+000000535+0000004350+0000000003+I20000000000+0000004350+Z
110435001110435080-000127     110435006003000424351VALENTINES DAY 36x24CM 0000001000+00002192+00000+0001T   00002192+0000001641          1400 AW6112               2AZ
110435002110435018-000127     110435006001023380289MUG OCC STRAIGHT LOVE  0000001000+00001578+00000+0001T   00001753+0006471641          1400 AW6515               2AZ
110435003110435112-116069     110435006009681820277TCS CARRIER BAG JUMBO  0000001000+00000048+00000+0001T   00000048+0000001641          1400 AW6090               2AZ
M17021391                              CASH        DLSLAVE 2                       Z-REPORT No.   224TOTAL (Sales - Refunds)           1638.73       CASH TO BE BANKED                 1398.30       DEBIT CARDS                          0.00       CREDIT CARDS                       240.43       Z-READING                         1638.73       AIRTIME DEBIT CARD SALES             0.00       AIRTIME CARD SALES                   0.00       OVERS/UNDERS                         0.00       AIRTIME CASH SALES                   0.00       GIFT CARDS                           0.00       GIFT CARD CASH SALES                 0.00       T O T A L  CASH PAYOUTS              0.00                                                                                                                                                                                                                                                                                                                                                      Z
M17021392                              CASH        DLABSENT                                                                                                                                                                                          ANNUAL LEAVE                                                                                                                                                                                    DAY OFF                                                                                                                                                                                         COMMENTS                                                          BALANCED                                                                                                                                                                                                                                                                                                                     Z
Y17021300                                          DL00000000143835+000024
ZDL17021407593 SLAVE 2      SALES DATA                     NEXT INVOICE NO.  110436 0224
X DL Slave 2 First invoice 110412 170213 Last invoice 110435 170213 Next invoice 110436 Total number of records 000000089 clbackup completed 07:59:36
