137015000137015               137015               170213DM     1400+00000+DM0000001928+0000001928+000000000+000000270+0000002190+0000000008+I20000000000+0000002190+Z
137015001137015028-000795     137015006001023812063SKEWERS 10cm 100PCE 3mm0000002000+00000964+00000+0001T   00000964+0000000942          1400 1IC305               1AZ
137016000137016               137016               170213DM     1400+00000+DM0000000613+0000000613+000000000+000000086+0000000690+0000000009+I20000000000+0000000690+Z
137016001137016304-001011     137016006001023806727FLWR ROSE RED W/BEAR   0000001000+00000613+00000+0001T   00000788+0006471014          1400 1IC510               1AZ
137017000137017               137017               170213DM     1400+00000+DM0000008373+0000008373+000000000+000001175+0000009540+0000000008+I20000000000+0000009540+Z
137017001137017001-000168     137017008992787110268TUMBLER 340ml ZOMBI    0000006000+00000876+00000+0001T   00000876+0000001042          1400 1IC515               1AZ
137017002137017112-116069     137017006009681820277TCS CARRIER BAG JUMBO  0000001000+00000048+00000+0001T   00000048+0000001042          1400 1IC090               1AZ
137017003137017002-000652     137017006001023553188M/SPOON WDN 3PC H/HOUSE0000001000+00003069+00000+0001T   00003069+0000001042          1400 1IC300               1AZ
137018000137018               137018               170213DM     1400+00000+DM0000015829+0000015829+000000000+000002217+0000018046+0000000000+I40000018046+0000000000+Z
137018001137018560-000300     137018006001023714879DINOSAURS 12PC         0000003000+00003507+00000+0001T   00003507+0000001044          1400 1IC745               1AZ
137018002137018263-000010     137018006003000551293VEHICLE ANIMAL WORLD 3p0000001000+00001753+00000+0001T   00001753+0000001044          1400 1IC710               1AZ
137018003137018560-000302     137018006001023834874DINOSAUR ASSTD DESIGNS 0000001000+00003507+00000+0001T   00003507+0000001044          1400 1IC745               1AZ
137018004137018112-116069     137018006009681820277TCS CARRIER BAG JUMBO  0000001000+00000048+00000+0001T   00000048+0000001044          1400 1IC090               1AZ
137019000137019               137019               170213DM     1400+00000+DM0000003506+0000003506+000000000+000000492+0000003998+0000000000+I40000003998+0000000000+Z
137019001137019006-000124     137019006003000625888BALLOONS 10PC MIX COL  0000001000+00001753+00000+0001T   00001753+0000001047          1400 1IC131               1AZ
137019002137019301-085002     137019006003000420704ORN OCC. LOVE BELL ASST0000001000+00001753+00000+0001T   00002630+0008121047          1400 1IC505               1AZ
137020000137020               137020               170213DM     1400+00000+DM0000003507+0000003507+000000000+000000491+0000003990+0000000008+I20000000000+0000003990+Z
137020001137020071-000701     137020006001023852830CLIPBOARD A4  23x30cm  0000001000+00003507+00000+0001T   00003507+0000001052          1400 1IC130               1AZ
137021000137021               137021               170213DM     1400+00000+DM0000006443+0000006443+000000000+000000905+0000007340+0000000008+I20000000000+0000007340+Z
137021001137021304-001011     137021006001023806727FLWR ROSE RED W/BEAR   0000003000+00000613+00000+0001T   00000788+0006471054          1400 1IC510               1AZ
137021002137021903-000200     137021006009826020234SWT CHOC RP CHOCO 23G  0000003000+00000788+00000+0001T   00000788+0000001054          1400 1IC150               1AZ
137021003137021566-000068     137021006003000418046POP UP LOVE 2 ASSTD    0000001000+00002192+00000+0001T   00002192+0000001054          1400 1IC130               1AZ
137021004137021112-116069     137021006009681820277TCS CARRIER BAG JUMBO  0000001000+00000048+00000+0001T   00000048+0000001054          1400 1IC090               1AZ
137022000137022               137022               170213DM     1400+00000+DM0000001578+0000001578+000000000+000000221+0000001790+0000000009+I20000000000+0000001790+Z
137022001137022080-000124     137022006003000297733CARD & ENV VALENTINES  0000001000+00001578+00000+0001T   00001578+0000001055          1400 1IC112               1AZ
137023000137023               137023               170213DM     1400+00000+DM0000000350+0000000350+000000000+000000049+0000000390+0000000009+I20000000000+0000000390+Z
137023001137023007-000167     137023006009685857347SPIRAL NOTES A7 72PG   0000001000+00000350+00000+0001T   00000350+0000001058          1400 1IC130               1AZ
137024000137024               137024               170213DM     1400+00000+DM0000007136+0000007136+000000000+000001000+0000008130+0000000006+I20000000000+0000008130+Z
137024001137024018-000170     137024006001023775528MUG OCC. LOVE 2PC MINI 0000002000+00002192+00000+0001T   00002192+0000001119          1400 1IC515               1AZ
137024002137024306-000985     137024006003000559831FIRSTAID PLASTER 10PC  0000001000+00001490+00000+0001T   00001490+0000001119          1400 1IC200               1AZ
137024003137024206-000630     137024006003000631919SPECTACLE CLEANING BRUS0000001000+00001227+00000+0001T   00001227+0000001119          1400 1IC321               1AZ
137024004137024112-116038     137024006009681820246TCS CARRIER BAG MIDI   0000001000+00000035+00000+0001T   00000035+0000001119          1400 1IC090               1AZ
137025000137025               137025               170213DM     1400+00000+DM0000020117+0000020117+000000000+000002824+0000022941+0000000000+I40000022941+0000000000+Z
137025001137025051-006100     137025006003000267170GARDEN KID TOOLSET 3PCE0000001000+00002630+00000+0001T   00002630+0000001124          1400 1IC820               1AZ
137025002137025056-065302     137025006001023759566CAR SUN-SHIELD ALM-FOIL0000001000+00002630+00000+0001T   00002630+0000001124          1400 1IC860               1AZ
137025003137025022-002107     137025006002600025814MUG ENAMEL 8cm WHITE   0000001000+00001051+00000+0001T   00001051+0000001124          1400 1IC305               1AZ
137025004137025306-000024-A   137025006003000577309COTTON-WOOL-PADS 80PC  0000001000+00001753+00000+0001T   00001753+0000001124          1400 1IC200               1AZ
137025005137025140-001004     137025006001023880932FLY-RIBBONS 4PCE PL    0000001000+00001490+00000+0001T   00001490+0000001124          1400 1IC830               1AZ
137025006137025002-000878     137025006001023770967STRAINER TEA WIRE 7cm  0000001000+00001490+00000+0001T   00001490+0000001124          1400 1IC300               1AZ
137025007137025027-077605     137025006001023997678STEELWOOL PADS 12PC 72g0000001000+00001753+00000+0001T   00001753+0000001124          1400 1IC212               1AZ
137025008137025022-002107     137025006002600025814MUG ENAMEL 8cm WHITE   0000001000+00001051+00000+0001T   00001051+0000001124          1400 1IC305               1AZ
137025009137025306-001135-A   137025006003000359110FIRSTAID SUPPORT HAND  0000001000+00001314+00000+0001T   00001753+0008171124          1400 1IC200               1AZ
137025010137025027-783002     137025006001023874658SCOURERS FOAM PACK OF 30000001000+00001490+00000+0001T   00001490+0000001124          1400 1IC212               1AZ
137025011137025082-026204     137025006001023816443R/GLASSES STRINGS 2PCE 0000001000+00000876+00000+0001T   00000876+0000001124          1400 1IC160               1AZ
137025012137025903-002853     137025000000087108019MENTOS ROLL MINT       0000001000+00001051+00000+0001T   00001051+0000001124          1400 1IC150               1AZ
137025013137025112-116069     137025006009681820277TCS CARRIER BAG JUMBO  0000001000+00000048+00000+0001T   00000048+0000001124          1400 1IC090               1AZ
137025014137025084-070000     137025006001023629982TWEEZER CHROME H/GLOW  0000001000+00001490+00000+0001T   00001490+0000001124          1400 1IC200               1AZ
137026000137026               137026               170213DM     1400+00000+DM0000001788+0000001788+000000000+000000251+0000002030+0000000009+I20000000000+0000002030+Z
137026001137026054-000801     137026006001023119230WIRE-BRUSH+HANDLE FINE 0000001000+00001753+00000+0001T   00001753+0000001124          1400 1IC810               1AZ
137026002137026112-116038     137026006009681820246TCS CARRIER BAG MIDI   0000001000+00000035+00000+0001T   00000035+0000001124          1400 1IC090               1AZ
137027000137027               137027               170213DM     1400+00000+DM0000015743+0000015743+000000000+000002207+0000017950+0000000000+I40000017950+0000000000+Z
137027001137027903-000709     137027006002099007070SWT QUENCHERS FRUIT    0000003000+00001139+00000+0001T   00001139+0000001126          1400 1IC150               1AZ
137027002137027566-000316     137027006003000521821STICKERS MIRRORS HOME  0000002000+00006139+00000+0001T   00006139+0000001126          1400 1IC130               1AZ
137027003137027112-116069     137027006009681820277TCS CARRIER BAG JUMBO  0000001000+00000048+00000+0001T   00000048+0000001126          1400 1IC090               1AZ
137028000137028               137028               170213DM     1400+00000+DM0000001753+0000001753+000000000+000000246+0000001990+0000000009+I20000000000+0000001990+Z
137028001137028077-000005-D   137028006003000414567PAPER TISSUE 50x70cm   0000001000+00001753+00000+0001T   00001753+0000001126          1400 1IC112               1AZ
137029000137029               137029               170213DM     1400+00000+DM0000027969+0000027969+000000000+000003919+0000031880+0000000008+I20000000000+0000031880+Z
137029001137029077-000299     137029006003000395576G/BAG 32x25cm LRG LOVE 0000002000+00001490+00000+0001T   00001490+0000001127          1400 1IC112               1AZ
137029002137029361-000296     137029006001023750402DOLL 27cm GLITZY/ANGEL 0000002000+00002630+00000+0001T   00002630+0000001127          1400 1IC725               1AZ
137029003137029566-000070     137029006003000283798STICKERS POP UP ASSTD  0000001000+00001753+00000+0001T   00001753+0000001127          1400 1IC130               1AZ
137029004137029566-000068     137029006003000418046POP UP LOVE 2 ASSTD    0000001000+00002192+00000+0001T   00002192+0000001127          1400 1IC130               1AZ
137029005137029162-092943     137029006001492929439#TAG SWEETY NK & WR SET0000001000+00004385+00000+0001T   00004385+0000001127          1400 1IC160               1AZ
137029006137029162-095026     137029006001492950266#TAG KIDS NK&WR B/FLY  0000001000+00004385+00000+0001T   00004385+0000001127          1400 1IC160               1AZ
137029007137029366-000400     137029006001023918468DRESS UP SHOES IN BOX  0000002000+00003507+00000+0001T   00003507+0000001127          1400 1IC131               1AZ
137030000137030               137030               170213DM     1400+00000+DM0000004294+0000004294+000000000+000000602+0000004890+0000000006+I20000000000+0000004890+Z
137030001137030080-000127     137030006003000424351VALENTINES DAY 36x24CM 0000001000+00002192+00000+0001T   00002192+0000001128          1400 1IC112               1AZ
137030002137030903-000200     137030006009826020234SWT CHOC RP CHOCO 23G  0000001000+00000788+00000+0001T   00000788+0000001128          1400 1IC150               1AZ
137030003137030903-000194     137030006009826020616SWT CHOC RP LOLLY 25G  0000001000+00001314+00000+0001T   00001314+0000001128          1400 1IC150               1AZ
137031000137031               137031               170213DM     1400+00000+DM0000012655+0000012655+000000000+000001777+0000014432+0000000000+I40000014432+0000000000+Z
137031001137031079-009702-A   137031008427973059408PAPER SIRIO A2 BLACK   0000002000+00001051+00000+0001T   00001051+0000001135          1400 IO8130               1AZ
137031002137031077-000005-B   137031006003000326617PAPER TISSUE PATTERN   0000001000+00002630+00000+0001T   00002630+0000001135          1400 IO8112               1AZ
137031003137031077-000011-D   137031006001023808554TISSUE-WRAP WHITE 10PCE0000001000+00000876+00000+0001T   00000876+0000001135          1400 IO8112               1AZ
137031004137031563-000317-J   137031006001023776419SERVIETTE 2PLY 33cm    0000002000+00001753+00000+0001T   00001753+0000001135          1400 IO8214               1AZ
137031005137031105-001077     137031006003000532872CONTAINER CLIP LOCK 1L 0000002000+00001753+00000+0001T   00002279+0008161135          1400 IO8210               1AZ
137031006137031112-116038     137031006009681820246TCS CARRIER BAG MIDI   0000001000+00000035+00000+0001T   00000035+0000001135          1400 IO8090               1AZ
137032000137032               137032               170213DM     1400+00000+DM0000004120+0000004120+000000000+000000577+0000004690+0000000007+I20000000000+0000004690+Z
137032001137032106-007105     137032006001023857644JUG 1,8L FRIDGE-DOOR   0000001000+00003507+00000+0001T   00003507+0000001144          1400 IO8210               1AZ
137032002137032083-000055     137032006003000003853LIGHTER ELCTRNC REFILBL0000001000+00000613+00000+0001T   00000613+0000001144          1400 IO8315               1AZ
137033000137033               137033               170213DM     1400+00000+DM0000006171+0000006171+000000000+000000866+0000007037+0000000000+I40000007037+0000000000+Z
137033001137033200-003026     137033006003000276448REFUSE BAGS 10PCE GREEN0000001000+00001753+00000+0001T   00001753+0000001152          1400 IO8214               1AZ
137033002137033200-003021     137033006003000276370REFUSE BAGS 30xSCENTED 0000001000+00002630+00000+0001T   00002630+0000001152          1400 IO8214               1AZ
137033003137033037-000004     137033006001023763679ASHTRAY PL TUB 8X11CM  0000001000+00001753+00000+0001T   00002192+0008191152          1400 IO8515               1AZ
137033004137033112-116038     137033006009681820246TCS CARRIER BAG MIDI   0000001000+00000035+00000+0001T   00000035+0000001152          1400 IO8090               1AZ
137034000137034               137034               170213DM     1400+00000+DM0000014024+0000014024+000000000+000001964+0000015988+0000000000+I40000015988+0000000000+Z
137034001137034903-000194     137034006009826020616SWT CHOC RP LOLLY 25G  0000002000+00001314+00000+0001T   00001314+0000001155          1400 IO8150               1AZ
137034002137034001-000175     137034006001023788108B/MUG GLS LOVE 380ML   0000001000+00004385+00000+0001T   00004385+0000001155          1400 IO8515               1AZ
137034003137034077-000310     137034006001023608635GIFT-BAG 18X23CM GLOSS 0000001000+00001314+00000+0001T   00001314+0000001155          1400 IO8112               1AZ
137034004137034031-005853     137034006003000442416P/FRAME WDN TWIN HEARTS0000001000+00003507+00000+0001T   00003507+0000001155          1400 IO8510               1AZ
137034005137034077-000310     137034006001023608635GIFT-BAG 18X23CM GLOSS 0000001000+00001314+00000+0001T   00001314+0000001155          1400 IO8112               1AZ
137034006137034077-000011-C   137034006001023808523TISSUE 10xSHTS RED     0000001000+00000876+00000+0001T   00000876+0000001155          1400 IO8112               1AZ
137035000137035               137035               170213DM     1400+00000+DM0000027399+0000027399+000000000+000003841+0000031240+0000000000+I40000031240+0000000000+Z
137035001137035563-000317-A   137035006001023776167SERVIETTES 20PK PATTERN0000001000+00002630+00000+0001T   00002630+0000001157          1400 IO8214               1AZ
137035002137035264-000921     137035000090159150442MAISTO CAR 3" FRESH    0000003000+00001753+00000+0001T   00001753+0000001157          1400 IO8710               1AZ
137035003137035004-071204     137035006003000624904USB IN-CAR CHARGER 2.1A0000001000+00003507+00000+0001T   00003507+0000001157          1400 IO8310               1AZ
137035004137035306-000021     137035006001023169433EARBUDS 100PCE IN BAG  0000001000+00000613+00000+0001T   00000613+0000001157          1400 IO8200               1AZ
137035005137035251-000012     137035006001023597915TAPE DUCT GREY 48mmx5m 0000001000+00002630+00000+0001T   00002630+0000001157          1400 IO8810               1AZ
137035006137035006-000120     137035006001023346889BALLOONS 10PC MIX COL  0000001000+00001753+00000+0001T   00001753+0000001157          1400 IO8131               1AZ
137035007137035566-000009     137035006003000180943STICKER-BOOK HOLOGRAM  0000001000+00001753+00000+0001T   00001753+0000001157          1400 IO8130               1AZ
137035008137035267-000200     137035006001023892379PUZZLE 24pc CARTOON    0000001000+00002192+00000+0001T   00002192+0000001157          1400 IO8755               1AZ
137035009137035567-011449     137035009780857260284BOOK STICKER TRAVEL    0000001000+00003507+00000+0001T   00003507+0000001157          1400 IO8757               1AZ
137035010137035267-000233     137035006001023688576PUZZLE 48pc EDUCATIONAL0000001000+00003507+00000+0001T   00003507+0000001157          1400 IO8755               1AZ
137035011137035112-116069     137035006009681820277TCS CARRIER BAG JUMBO  0000001000+00000048+00000+0001T   00000048+0000001157          1400 IO8090               1AZ
137036000137036               137036               170213DM     1400+00000+DM0000001752+0000001752+000000000+000000246+0000001990+0000000008+I20000000000+0000001990+Z
137036001137036033-000106     137036006001023678027ELASTIC  6mmx3m  CARDED0000002000+00000876+00000+0001T   00000876+0000001157          1400 IO8200               1AZ
137037000137037               137037               170213DM     1400+00000+DM0000005295+0000005295+000000000+000000743+0000006030+0000000008+I20000000000+0000006030+Z
137037001137037016-006710     137037006003000674725S/JAR GLS RHEA 425ml   0000002000+00002630+00000+0001T   00002630+0000001158          1400 IO8300               1AZ
137037002137037112-116038     137037006009681820246TCS CARRIER BAG MIDI   0000001000+00000035+00000+0001T   00000035+0000001158          1400 IO8090               1AZ
137038000137038               137038               170213DM     1400+00000+DM0000008804+0000008804+000000000+000001233+0000010037+0000000000+I40000010037+0000000000+Z
137038001137038106-001120     137038006922286920282W/BOTTLE ALUM 750ml    0000001000+00005262+00000+0001T   00005262+0000001200          1400 IO8210               1AZ
137038002137038004-078990     137038006001023994431EARPHONES MINI 1.2m    0000001000+00003507+00000+0001T   00003507+0000001200          1400 IO8310               1AZ
137038003137038112-116038     137038006009681820246TCS CARRIER BAG MIDI   0000001000+00000035+00000+0001T   00000035+0000001200          1400 IO8090               1AZ
137039000137039               137039               170213DM     1400+00000+DM0000002102+0000002102+000000000+000000295+0000002390+0000000007+I20000000000+0000002390+Z
137039001137039903-000194     137039006009826020616SWT CHOC RP LOLLY 25G  0000001000+00001314+00000+0001T   00001314+0000001201          1400 IO8150               1AZ
137039002137039903-000200     137039006009826020234SWT CHOC RP CHOCO 23G  0000001000+00000788+00000+0001T   00000788+0000001201          1400 IO8150               1AZ
137040000137040               137040               170213DM     1400+00000+DM0000000876+0000000876+000000000+000000123+0000000990+0000000009+I20000000000+0000000990+Z
137040001137040903-000520     137040006001704009898SWT GUMMY MINI SOUR 60g0000001000+00000876+00000+0001T   00000876+0000001202          1400 IO8150               1AZ
137041000137041               137041               170213DM     1400+00000+DM0000003069+0000003069+000000000+000000430+0000003490+0000000009+I20000000000+0000003490+Z
137041001137041089-000005     137041006003000094806KEY CHAIN CARDS MTL    0000001000+00003069+00000+0001T   00003069+0000001204          1400 IO8205               1AZ
137042000137042               137042               170213DM     1400+00000+DM0000011354+0000011354+000000000+000001594+0000012940+0000000008+I20000000000+0000012940+Z
137042001137042077-000010-C   137042006001023123879CREPE-PAPER RED        0000001000+00000788+00000+0001T   00000788+0000001215          1400 IO8112               1AZ
137042002137042031-005820     137042006001023667816P/FRAME-CLIP 15X20CM   0000004000+00001753+00000+0001T   00001753+0000001215          1400 IO8510               1AZ
137042003137042088-000108     137042006001023765536POTPOURRI-OIL 10ml ASST0000001000+00001753+00000+0001T   00001753+0000001215          1400 IO8212               1AZ
137042004137042077-000299-A   137042006003000670888GIFT-BAG PAPER JMB LOVE0000001000+00001753+00000+0001T   00001753+0000001215          1400 IO8112               1AZ
137042005137042112-116069     137042006009681820277TCS CARRIER BAG JUMBO  0000001000+00000048+00000+0001T   00000048+0000001215          1400 IO8090               1AZ
137043000137043               137043               170213DM     1400+00000+DM0000003506+0000003506+000000000+000000492+0000003990+0000000008+I20000000000+0000003990+Z
137043001137043077-000005-D   137043006003000414567PAPER TISSUE 50x70cm   0000002000+00001753+00000+0001T   00001753+0000001219          1400 IO8112               1AZ
137044000137044               137044               170213DM     1400+00000+DM0000010525+0000010525+000000000+000001474+0000011990+0000000009+I20000000000+0000011990+Z
137044001137044079-001003     137044006003000588640ART+CRAFT PAINT CANVAS 0000001000+00010525+00000+0001T   00010525+0000001229          1400 IO8130               1AZ
137045000137045               137045               170213DM     1400+00000+DM0000003506+0000003506+000000000+000000492+0000003990+0000000008+I20000000000+0000003990+Z
137045001137045036-000521     137045006003000338184HOOK-HANGER 8-HOOK     0000002000+00001753+00000+0001T   00001753+0000001235          1400 IO8212               1AZ
137046000137046               137046               170213DM     1400+00000+DM0000006837+0000006837+000000000+000000959+0000007790+0000000006+I20000000000+0000007790+Z
137046001137046077-000455     137046006003000285389G/BAG METALLIC LRG SOL 0000001000+00001753+00000+0001T   00001753+0000001238          1400 IO8112               1AZ
137046002137046077-000472     137046006003000330133G-BAG DESGNR LRG 25X32 0000001000+00001753+00000+0001T   00001753+0000001238          1400 IO8112               1AZ
137046003137046080-000104     137046006003000236978CARD&ENVLP MALE AFR    0000001000+00001753+00000+0001T   00001753+0000001238          1400 IO8112               1AZ
137046004137046018-000127     137046006001023380289MUG OCC STRAIGHT LOVE  0000001000+00001578+00000+0001T   00001753+0006471238          1400 IO8515               1AZ
137047000137047               137047               170213DM     1400+00000+DM0000002093+0000002093+000000000+000000294+0000002380+0000000007+I20000000000+0000002380+Z
137047001137047150-000772     137047006005387000227UTILITY-BOX SMALL      0000001000+00000657+00000+0001T   00000657+0000001246          1400 IO8810               1AZ
137047002137047077-000311     137047006001023608666GIFT-BAG 11X14CM GLOSS 0000001000+00000613+00000+0001T   00000613+0000001246          1400 IO8112               1AZ
137047003137047077-000010-D   137047006001023123886CREPE-PAPER WHITE      0000001000+00000788+00000+0001T   00000788+0000001246          1400 IO8112               1AZ
137047004137047112-116038     137047006009681820246TCS CARRIER BAG MIDI   0000001000+00000035+00000+0001T   00000035+0000001246          1400 IO8090               1AZ
137048000137048               137048               170213DM     1400+00000+DM0000001788+0000001788+000000000+000000251+0000002039+0000000000+I40000002039+0000000000+Z
137048001137048034-078841     137048006003000594023MELAMINE KIDS BOWL 17cm0000001000+00001753+00000+0001T   00001753+0000001252          1400 IO8215               1AZ
137048002137048112-116038     137048006009681820246TCS CARRIER BAG MIDI   0000001000+00000035+00000+0001T   00000035+0000001252          1400 IO8090               1AZ
137049000137049               137049               170213DM     1400+00000+DM0000004822+0000004822+000000000+000000676+0000005498+0000000000+I40000005498+0000000000+Z
137049001137049046-002032-PK2 137049004897006175063BATTERIES CR-2032  2PCE0000001000+00001753+00000+0001T   00001753+0000001253          1400 IO8312               1AZ
137049002137049034-078835     137049006001023857521FEEDING-BOWLS 3PCE     0000001000+00003069+00000+0001T   00003069+0000001253          1400 IO8215               1AZ
137050000137050               137050               170213DM     1400+00000+DM0000002630+0000002630+000000000+000000369+0000002990+0000000009+I20000000000+0000002990+Z
137050001137050077-000235     137050006003000160211GIFT-RIBBON ROLL METALC0000001000+00002630+00000+0001T   00002630+0000001303          1400 IO8112               1AZ
137051000137051               137051               170213DM     1400+00000+DM0000002190+0000002190+000000000+000000308+0000002490+0000000008+I20000000000+0000002490+Z
137051001137051007-010192     137051006009635830536BOOK H/COVER A5 192PAGE0000001000+00001139+00000+0001T   00001139+0000001306          1400 IO8130               1AZ
137051002137051903-002853     137051000000087108019MENTOS ROLL MINT       0000001000+00001051+00000+0001T   00001051+0000001306          1400 IO8150               1AZ
137052000137052               137052               170213DM     1400+00000+DM0000004738+0000004738+000000000+000000664+0000005402+0000000000+I40000005402+0000000000+Z
137052001137052007-000234     137052006009685850638LABELS 24PK            0000001000+00000306+00000+0001T   00000306+0000001310          1400 IO8130               1AZ
137052002137052158-008936     137052006001023653758PAPER-TOWEL-HOLDER FLWR0000002000+00002192+00000+0001T   00002192+0000001310          1400 IO8300               1AZ
137052003137052112-116069     137052006009681820277TCS CARRIER BAG JUMBO  0000001000+00000048+00000+0001T   00000048+0000001310          1400 IO8090               1AZ
137053000137053               137053               170213DM     1400+00000+DM0000002192+0000002192+000000000+000000307+0000002490+0000000009+I20000000000+0000002490+Z
137053001137053046-000012-A   137053006003000208296BATTERIES H/POWER SZ:AA0000001000+00002192+00000+0001T   00002192+0000001310          1400 IO8312               1AZ
137054000137054               137054               170213DM     1400+00000+DM0000002630+0000002630+000000000+000000369+0000002990+0000000009+I20000000000+0000002990+Z
137054001137054019-071600     137054006001023771971RIVER-STONES 1kg MIXED 0000001000+00002630+00000+0001T   00002630+0000001316          1400 IO8510               1AZ
137055000137055               137055               170213DM     1400+00000+DM0000011400+0000011400+000000000+000001597+0000012990+0000000007+I20000000000+0000012990+Z
137055001137055009-001710     137055006001023807793MELAMINE TRAY 36x25cm  0000001000+00002630+00000+0001T   00002630+0000001320          1400 IO8210               1AZ
137055002137055009-001712     137055006001023807823MELAMINE TRAY RECT DSGN0000002000+00004385+00000+0001T   00004385+0000001320          1400 IO8210               1AZ
137056000137056               137056               170213DM     1400+00000+DM0000001753+0000001753+000000000+000000246+0000001990+0000000009+I20000000000+0000001990+Z
137056001137056080-000110     137056006003000237326CARD&ENVLPE BDAY-FUNNY 0000001000+00001753+00000+0001T   00001753+0000001320          1400 IO8112               1AZ
137057000137057               137057               170213DM     1400+00000+DM0000003069+0000003069+000000000+000000430+0000003499+0000000000+I40000003499+0000000000+Z
137057001137057079-000271     137057006003000160082PAINT-BRUSHES LRGE ART 0000001000+00003069+00000+0001T   00003069+0000001322          1400 IO8130               1AZ
137058000137058               137058               170213DM     1400+00000+DM0000004821+0000004821+000000000+000000675+0000005496+0000000000+I40000005496+0000000000+Z
137058001137058903-000194     137058006009826020616SWT CHOC RP LOLLY 25G  0000001000+00001314+00000+0001T   00001314+0000001327          1400 IO8150               1AZ
137058002137058018-000130     137058006001023867537MUG OCC LOVE MINI+HEART0000001000+00003507+00000+0001T   00003507+0000001327          1400 IO8515               1AZ
137059000137059               137059               170213DM     1400+00000+DM0000001490+0000001490+000000000+000000209+0000001690+0000000009+I20000000000+0000001690+Z
137059001137059140-001004     137059006001023880932FLY-RIBBONS 4PCE PL    0000001000+00001490+00000+0001T   00001490+0000001328          1400 IO8830               1AZ
137060000137060               137060               170213DM     1400+00000+DM0000004155+0000004155+000000000+000000583+0000004730+0000000008+I20000000000+0000004730+Z
137060001137060024-000007     137060006003000061846SPATULA LONG 32CM      0000001000+00002630+00000+0001T   00002630+0000001330          1400 IO8300               1AZ
137060002137060002-000878     137060006001023770967STRAINER TEA WIRE 7cm  0000001000+00001490+00000+0001T   00001490+0000001330          1400 IO8300               1AZ
137060003137060112-116038     137060006009681820246TCS CARRIER BAG MIDI   0000001000+00000035+00000+0001T   00000035+0000001330          1400 IO8090               1AZ
137061000137061               137061               170213DM     1400+00000+DM0000002059+0000002059+000000000+000000289+0000002348+0000000000+I40000002348+0000000000+Z
137061001137061071-000012     137061006001177101006CHALK COLOUR 12PCE     0000001000+00000481+00000+0001T   00000481+0000001335          1400 IO8130               1AZ
137061002137061077-000315     137061006003000181186GIFT-BAG 20x28cm MATT  0000001000+00001578+00000+0001T   00001578+0000001335          1400 IO8112               1AZ
137062000137062               137062               170213DM     1400+00000+DM0000001927+0000001927+000000000+000000270+0000002190+0000000007+I20000000000+0000002190+Z
137062001137062304-001011     137062006001023806727FLWR ROSE RED W/BEAR   0000001000+00000613+00000+0001T   00000788+0006471338          1400 IO8510               1AZ
137062002137062903-000844     137062005010478432567SWT CANDY DL LUV HEARTS0000001000+00001314+00000+0001T   00001314+0000001338          1400 IO8150               1AZ
137063000137063               137063               170213DM     1400+00000+DM0000001139+0000001139+000000000+000000160+0000001290+0000000009+I20000000000+0000001290+Z
137063001137063903-000087     137063006001704000161SWT SPECKLED-EGGS 50G  0000001000+00001139+00000+0001T   00001139+0000001358          1400 IO8150               1AZ
137064000137064               137064               170213DM     1400+00000+DM0000001753+0000001753+000000000+000000246+0000001990+0000000009+I20000000000+0000001990+Z
137064001137064079-013032-A   137064006003000389322SEA WORLD STICKERS     0000001000+00001753+00000+0001T   00001753+0000001407          1400 IO8130               1AZ
137065000137065               137065               170213DM     1400+00000+DM0000006272+0000006272+000000000+000000880+0000007152+0000000000+I40000007152+0000000000+Z
137065001137065077-000270     137065006003000395453GIFT-BAG PPR JMB 33X45 0000001000+00002630+00000+0001T   00002630+0000001420          1400 IO8112               1AZ
137065002137065304-001204     137065006001023737984FLOWER OCC. TEDDY/ROSES0000001000+00001402+00000+0001T   00001490+0006471420          1400 IO8510               1AZ
137065003137065080-000127     137065006003000424351VALENTINES DAY 36x24CM 0000001000+00002192+00000+0001T   00002192+0000001420          1400 IO8112               1AZ
137065004137065112-116069     137065006009681820277TCS CARRIER BAG JUMBO  0000001000+00000048+00000+0001T   00000048+0000001420          1400 IO8090               1AZ
137066000137066               137066               170213DM     1400+00000+DM0000010963+0000010963+000000000+000001535+0000012490+0000000008+I20000000000+0000012490+Z
137066001137066586-011943     137066006001492119434WATCH KIDS BEZEL STRAP 0000001000+00008771+00000+0001T   00008771+0000001423          1400 IO8160               1AZ
137066002137066046-000012-A   137066006003000208296BATTERIES H/POWER SZ:AA0000001000+00002192+00000+0001T   00002192+0000001423          1400 IO8312               1AZ
137067000137067               137067               170213DM     1400+00000+DM0000011518+0000011518+000000000+000001615+0000013133+0000000000+I40000013133+0000000000+Z
137067001137067565-000045     137067006003000295890NOVELTY HEADS 8PCE     0000002000+00002630+00000+0001T   00002630+0000001427          1400 IO8745               1AZ
137067002137067566-001118     137067006003000682171STICKERS CELL PHONE    0000001000+00001753+00000+0001T   00001753+0000001427          1400 IO8130               1AZ
137067003137067566-000202     137067006003000443567STCKRS SPARKLE RIM ASST0000001000+00001314+00000+0001T   00001314+0000001427          1400 IO8130               1AZ
137067004137067079-105603     137067006003000230907ART+CRAFT STAMP ROUND  0000002000+00001578+00000+0001T   00001578+0000001427          1400 IO8130               1AZ
137067005137067112-116038     137067006009681820246TCS CARRIER BAG MIDI   0000001000+00000035+00000+0001T   00000035+0000001427          1400 IO8090               1AZ
137068000137068               137068               170213DM     1400+00000+DM0000005644+0000005644+000000000+000000792+0000006436+0000000000+I40000006436+0000000000+Z
137068001137068077-000299     137068006003000395576G/BAG 32x25cm LRG LOVE 0000001000+00001490+00000+0001T   00001490+0000001428          1400 IO8112               1AZ
137068002137068077-000311     137068006001023608666GIFT-BAG 11X14CM GLOSS 0000001000+00000613+00000+0001T   00000613+0000001428          1400 IO8112               1AZ
137068003137068903-000211     137068006002099001238SWT GS MALLOW ICE CREAM0000002000+00001753+00000+0001T   00001753+0000001428          1400 IO8150               1AZ
137068004137068112-116038     137068006009681820246TCS CARRIER BAG MIDI   0000001000+00000035+00000+0001T   00000035+0000001428          1400 IO8090               1AZ
137069000137069               137069               170213DM     1400+00000+DM0000001578+0000001578+000000000+000000221+0000001790+0000000009+I20000000000+0000001790+Z
137069001137069077-000303     137069006001023593757GIFT-BAG PAPER MED     0000001000+00001578+00000+0001T   00001578+0000001430          1400 IO8112               1AZ
137070000137070               137070               170213DM     1400+00000+DM0000011255+0000011255+000000000+000001578+0000012833+0000000000+I40000012833+0000000000+Z
137070001137070584-002037     137070007619943788000ASSORTED MUSIC CD 1-CD 0000001000+00000700+00000+0001T   00000876+0008141437          1400 IO8310               1AZ
137070002137070077-000310     137070006001023608635GIFT-BAG 18X23CM GLOSS 0000001000+00001314+00000+0001T   00001314+0000001437          1400 IO8112               1AZ
137070003137070004-071218     137070006003000443369C/PHONE STAND ASSTD-COL0000001000+00001753+00000+0001T   00001753+0000001437          1400 IO8310               1AZ
137070004137070046-000012-VP  137070006003000537914BATTERIES H/P SIZE:AA  0000001000+00004823+00000+0001T   00004823+0000001437          1400 IO8312               1AZ
137070005137070089-000145     137070006003000576616K/CHAIN LIGHT W/COMPASS0000001000+00002630+00000+0001T   00003069+0008121437          1400 IO8205               1AZ
137070006137070112-116038     137070006009681820246TCS CARRIER BAG MIDI   0000001000+00000035+00000+0001T   00000035+0000001437          1400 IO8090               1AZ
137071000137071               137071               170213DM     1400+00000+DM0000015128+0000015128+000000000+000002120+0000017248+0000000000+I40000017248+0000000000+Z
137071001137071080-000127     137071006003000424351VALENTINES DAY 36x24CM 0000001000+00002192+00000+0001T   00002192+0000001442          1400 IO8112               1AZ
137071002137071301-085002     137071006003000420704ORN OCC. LOVE BELL ASST0000001000+00001753+00000+0001T   00002630+0008121442          1400 IO8505               1AZ
137071003137071077-000321     137071006001023677501GIFT-BAG 11X14CM E/D FL0000001000+00000613+00000+0001T   00000613+0000001442          1400 IO8112               1AZ
137071004137071001-000175     137071006001023788108B/MUG GLS LOVE 380ML   0000001000+00004385+00000+0001T   00004385+0000001442          1400 IO8515               1AZ
137071005137071301-085001     137071006003000297610ORN WATERBALL LOVE ASST0000001000+00004823+00000+0001T   00004823+0000001442          1400 IO8505               1AZ
137071006137071077-000310     137071006001023608635GIFT-BAG 18X23CM GLOSS 0000001000+00001314+00000+0001T   00001314+0000001442          1400 IO8112               1AZ
137071007137071112-116069     137071006009681820277TCS CARRIER BAG JUMBO  0000001000+00000048+00000+0001T   00000048+0000001442          1400 IO8090               1AZ
137072000137072               137072               170213DM     1400+00000+DM0000026746+0000026746+000000000+000003747+0000030493+0000000000+I40000030493+0000000000+Z
137072001137072469-004001     137072006003000241927B/BLOCKS 66PC POLICE   0000001000+00015788+00000+0001T   00015788+0000001521          1400 1IC755               1AZ
137072002137072083-000049     137072004891035200024CIG-LIGHTER DISPOSABLE 0000001000+00000437+00000+0001T   00000437+0000001521          1400 1IC315               1AZ
137072003137072018-005009     137072006001023725608MUG W/PLUSH-BEAR LOVE  0000001000+00003507+00000+0001T   00003507+0000001521          1400 1IC515               1AZ
137072004137072080-000111     137072006003000252695CARD&ENVELPE - MUSICAL 0000001000+00001753+00000+0001T   00001753+0000001521          1400 1IC112               1AZ
137072005137072071-010484     137072006003000620296MAGNIFYING-GLASS CARD  0000001000+00000876+00000+0001T   00000876+0000001521          1400 1IC130               1AZ
137072006137072204-000008     137072006003000567652MEMO HLDR MOM POLY     0000001000+00004385+00000+0001T   00004385+0000001521          1400 1IC300               1AZ
137073000137073               137073               170213DM     1400+00000+DM0000002192+0000002192+000000000+000000307+0000002490+0000000009+I20000000000+0000002490+Z
137073001137073565-000015     137073006003000672035NOVELTY SLIME ANIMAL   0000001000+00002192+00000+0001T   00002192+0000001522          1400 1IC745               1AZ
137074000137074               137074               170213DM     1400+00000+DM0000003994+0000003994+000000000+000000560+0000004554+0000000000+I40000004554+0000000000+Z
137074001137074365-000027     137074006001023786852P/SET TEA-SET PL 9PCS  0000001000+00003946+00000+0001T   00003946+0000001524          1400 1IC725               1AZ
137074002137074112-116069     137074006009681820277TCS CARRIER BAG JUMBO  0000001000+00000048+00000+0001T   00000048+0000001524          1400 1IC090               1AZ
137075000137075               137075               170213DM     1400+00000+DM0000001927+0000001927+000000000+000000271+0000002190+0000000008+I20000000000+0000002190+Z
137075001137075079-009702-F   137075008427973059392PAPER SIRIO A2 GREEN   0000001000+00001051+00000+0001T   00001051+0000001550          1400 IO8130               1AZ
137075002137075077-000150-D   137075006003000054343GIFT-WRAP CELLPHANE CLR0000001000+00000876+00000+0001T   00000876+0000001550          1400 IO8112               1AZ
137076000137076               137076               170213DM     1400+00000+DM0000004384+0000004384+000000000+000000614+0000004990+0000000008+I20000000000+0000004990+Z
137076001137076566-000359     137076006003000582709STICKER BOOK LOVE SPARK0000002000+00002192+00000+0001T   00002192+0000001550          1400 IO8130               1AZ
137077000137077               137077               170213DM     1400+00000+DM0000002102+0000002102+000000000+000000296+0000002390+0000000008+I20000000000+0000002390+Z
137077001137077079-009702-C   137077008427973059309PAPER SIRIO A2 VIOLET  0000001000+00001051+00000+0001T   00001051+0000001554          1400 IO8130               1AZ
137077002137077079-009702-G   137077008427973060787PAPER SIRIO A2 FUSHIA  0000001000+00001051+00000+0001T   00001051+0000001554          1400 IO8130               1AZ
137078000137078               137078               170213DM     1400+00000+DM0000001664+0000001664+000000000+000000234+0000001890+0000000008+I20000000000+0000001890+Z
137078002137078077-000010-Z   137078006001023157874CREPE-PAPER BLK/ORG/PUR0000001000+00000788+00000+0001T   00000788+0000001555          1400 IO8112               1AZ
137078003137078077-000314     137078006003000181148GIFT-BAG 11X14CM MATT  0000001000+00000876+00000+0001T   00000876+0000001555          1400 IO8112               1AZ
137079000137079               137079               170213DM     1400+00000+DM0000006174+0000006174+000000000+000000865+0000007030+0000000009+I20000000000+0000007030+Z
137079001137079018-050000     137079006003000412679MUG OCC LOVE TWIN BEAR 0000001000+00006139+00000+0001T   00006139+0000001603          1400 IO8515               1AZ
137079002137079112-116038     137079006009681820246TCS CARRIER BAG MIDI   0000001000+00000035+00000+0001T   00000035+0000001603          1400 IO8090               1AZ
137080000137080               137080               170213DM     1400+00000+DM0000003507+0000003507+000000000+000000491+0000003990+0000000008+I20000000000+0000003990+Z
137080001137080072-020278     137080006003000024100PET CAT LITTER PAN PL  0000001000+00003507+00000+0001T   00003507+0000001604          1400 IO8870               1AZ
137081000137081               137081               170213DM     1400+00000+DM0000052050+0000052050+000000000+000007292+0000059342+0000000000+I40000059342+0000000000+Z
137081001137081032-000940     137081006001023862631MIRROR WALL W/ROPE 28CM0000001000+00021928+00000+0001T   00021928+0000001608          1400 IO8510               1AZ
137081002137081106-003130     137081006001023625755ICE CUBE TRAY 21-CUBE  0000002000+00002192+00000+0001T   00002192+0000001608          1400 IO8210               1AZ
137081003137081002-000698-B   137081006003000292295K/GADGET SPOON 41.5CM  0000001000+00002192+00000+0001T   00002192+0000001608          1400 IO8300               1AZ
137081004137081306-000024-A   137081006003000577309COTTON-WOOL-PADS 80PC  0000001000+00001753+00000+0001T   00001753+0000001608          1400 IO8200               1AZ
137081005137081159-003615     137081006001246045460TOILET-BRUSH W/STAND   0000001000+00003069+00000+0001T   00003069+0000001608          1400 IO8200               1AZ
137081006137081072-020346     137081006003000453047PET DRY TOWEL M/FIBRE  0000001000+00004385+00000+0001T   00004385+0000001608          1400 IO8870               1AZ
137081007137081174-000308     137081006003000684939TRAVEL NECK-PILLOW FOAM0000001000+00007893+00000+0001T   00007893+0000001608          1400 IO8205               1AZ
137081008137081072-000014     137081006003000451845PET DOG/CAT BRUSH 20cm 0000001000+00003069+00000+0001T   00003069+0000001608          1400 IO8870               1AZ
137081009137081200-003024     137081006001023657299REFUSE BAGS 20PCE BLACK0000001000+00001753+00000+0001T   00001753+0000001608          1400 IO8214               1AZ
137081010137081903-000119     137081006001704007337SWT COCONUT-WHEEL      0000002000+00000788+00000+0001T   00000788+0000001608          1400 IO8150               1AZ
137081011137081112-116069     137081006009681820277TCS CARRIER BAG JUMBO  0000001000+00000048+00000+0001T   00000048+0000001608          1400 IO8090               1AZ
137082000137082               137082               170213DM     1400+00000+DM0000006136+0000006136+000000000+000000860+0000006996+0000000000+I40000006996+0000000000+Z
137082001137082903-004950     137082006002580020304SWT APRICOT SURPRISE   0000001000+00001314+00000+0001T   00001314+0000001611          1400 IO8150               1AZ
137082002137082031-000864-A   137082006001023798350P/FRAME MAHOGANY 10X15 0000001000+00003069+00000+0001T   00003069+0000001611          1400 IO8510               1AZ
137082003137082077-000316     137082006001023609731GIFT-BAG 25X32CM MATT  0000001000+00001753+00000+0001T   00001753+0000001611          1400 IO8112               1AZ
137083000137083               137083               170213DM     1400+00000+DM0000001578+0000001578+000000000+000000221+0000001790+0000000009+I20000000000+0000001790+Z
137083001137083018-000127     137083006001023380289MUG OCC STRAIGHT LOVE  0000001000+00001578+00000+0001T   00001753+0006471612          1400 IO8515               1AZ
137084000137084               137084               170213DM     1400+00000+DM0000000035+0000000035+000000000+000000005+0000000040+0000000000+I20000000000+0000000040+Z
137084001137084112-116038     137084006009681820246TCS CARRIER BAG MIDI   0000001000+00000035+00000+0001T   00000035+0000001613          1400 IO8090               1AZ
137085000137085               137085               170213DM     1400+00000+DM0000009646+0000009646+000000000+000001352+0000010998+0000000000+I40000010998+0000000000+Z
137085001137085562-006275     137085006001023836182EDU BOARD W/MARKER ASST0000001000+00007016+00000+0001T   00007016+0000001617          1400 IO8755               1AZ
137085002137085466-000584     137085006001023628787SKIPPING-ROPE          0000001000+00002630+00000+0001T   00002630+0000001617          1400 IO8785               1AZ
137086000137086               137086               170213DM     1400+00000+DM0000013591+0000013591+000000000+000001905+0000015496+0000000000+I40000015496+0000000000+Z
137086001137086018-050000     137086006003000412679MUG OCC LOVE TWIN BEAR 0000001000+00006139+00000+0001T   00006139+0000001619          1400 IO8515               1AZ
137086002137086080-000127     137086006003000424351VALENTINES DAY 36x24CM 0000001000+00002192+00000+0001T   00002192+0000001619          1400 IO8112               1AZ
137086003137086072-020300     137086006008632000430DOG-TOY TUG-A-BALL SML 0000001000+00002630+00000+0001T   00002630+0000001619          1400 IO8870               1AZ
137086004137086072-020305     137086006003000024261PET DOG ASST CANVAS TOY0000001000+00002630+00000+0001T   00002630+0000001619          1400 IO8870               1AZ
137087000137087               137087               170213DM     1400+00000+DM0000003979+0000003979+000000000+000000558+0000004530+0000000007+I20000000000+0000004530+Z
137087001137087018-005009     137087006001023725608MUG W/PLUSH-BEAR LOVE  0000001000+00003507+00000+0001T   00003507+0000001620          1400 IO8515               1AZ
137087002137087112-116038     137087006009681820246TCS CARRIER BAG MIDI   0000001000+00000035+00000+0001T   00000035+0000001620          1400 IO8090               1AZ
137087003137087080-000133-A   137087006003000647019MINI VALENTINES CARD   0000001000+00000437+00000+0001T   00000437+0000001620          1400 IO8112               1AZ
137088000137088               137088               170213DM     1400+00000+DM0000016517+0000016517+000000000+000002316+0000018833+0000000000+I40000018833+0000000000+Z
137088001137088077-000303     137088006001023593757GIFT-BAG PAPER MED     0000001000+00001578+00000+0001T   00001578+0000001624          1400 IO8112               1AZ
137088002137088301-085007     137088006003000673698ORN OCC. LOVE S/PLAQUE 0000001000+00007893+00000+0001T   00007893+0000001624          1400 IO8505               1AZ
137088003137088080-000133-A   137088006003000647019MINI VALENTINES CARD   0000002000+00000437+00000+0001T   00000437+0000001624          1400 IO8112               1AZ
137088004137088071-000009     137088006003000098194STATIONERY SET 11 PIECE0000001000+00002630+00000+0001T   00002630+0000001624          1400 IO8130               1AZ
137088005137088018-005009     137088006001023725608MUG W/PLUSH-BEAR LOVE  0000001000+00003507+00000+0001T   00003507+0000001624          1400 IO8515               1AZ
137088006137088112-116038     137088006009681820246TCS CARRIER BAG MIDI   0000001000+00000035+00000+0001T   00000035+0000001624          1400 IO8090               1AZ
137089000137089               137089               170213DM     1400+00000+DM0000007482+0000007482+000000000+000001051+0000008533+0000000000+I40000008533+0000000000+Z
137089001137089077-000926     137089006003000414178G/WRAP 700mmx2m LOVE   0000001000+00002192+00000+0001T   00002192+0000001627          1400 IO8112               1AZ
137089003137089018-005009     137089006001023725608MUG W/PLUSH-BEAR LOVE  0000001000+00003507+00000+0001T   00003507+0000001627          1400 IO8515               1AZ
137089004137089080-000133-A   137089006003000647019MINI VALENTINES CARD   0000004000+00000437+00000+0001T   00000437+0000001627          1400 IO8112               1AZ
137089005137089112-116038     137089006009681820246TCS CARRIER BAG MIDI   0000001000+00000035+00000+0001T   00000035+0000001627          1400 IO8090               1AZ
137090000137090               137090               170213DM     1400+00000+DM0000001227+0000001227+000000000+000000172+0000001390+0000000009+I20000000000+0000001390+Z
137090001137090077-000245     137090006001023759214GIFT-RIBBON METALLICx2 0000001000+00001227+00000+0001T   00001227+0000001627          1400 IO8112               1AZ
137091000137091               137091               170213DM     1400+00000+DM0000009994+0000009994+000000000+000001400+0000011390+0000000004+I20000000000+0000011390+Z
137091001137091034-000329     137091006001023564290BOTTLE-BRUSHES WHT 2PCE0000001000+00001314+00000+0001T   00001314+0000001629          1400 IO8215               1AZ
137091002137091034-079078     137091006001023996565COOEY BABY MANICURE-SET0000001000+00003507+00000+0001T   00003507+0000001629          1400 IO8215               1AZ
137091003137091903-000889     137091006009702259192SWT GUM BEECHIES S/MINT0000001000+00000788+00000+0001T   00000788+0000001629          1400 IO8150               1AZ
137091004137091082-000110     137091006003000360482READING GLS STRENGHT:2 0000001000+00004385+00000+0001T   00004385+0000001629          1400 IO8160               1AZ
137092000137092               137092               170213DM     1400+00000+DM0000024149+0000024149+000000000+000003384+0000027533+0000000000+I40000027533+0000000000+Z
137092001137092566-000320     137092006003000422890STICKERS R/DEC. NATURE 0000003000+00005262+00000+0001T   00005262+0000001634          1400 IO8130               1AZ
137092002137092369-001034     137092006003000105632BABY RATTLE SINGLE ASST0000001000+00001753+00000+0001T   00001753+0000001634          1400 IO8745               1AZ
137092003137092369-000235     137092006001023857194LEARNING-LINKS 12PCE   0000001000+00002630+00000+0001T   00002630+0000001634          1400 IO8745               1AZ
137092004137092369-001034     137092006003000105632BABY RATTLE SINGLE ASST0000001000+00001753+00000+0001T   00001753+0000001634          1400 IO8745               1AZ
137092005137092112-116038     137092006009681820246TCS CARRIER BAG MIDI   0000001000+00000035+00000+0001T   00000035+0000001634          1400 IO8090               1AZ
137092006137092080-000127     137092006003000424351VALENTINES DAY 36x24CM 0000001000+00002192+00000+0001T   00002192+0000001634          1400 IO8112               1AZ
137093000137093               137093               170213DM     1400+00000+DM0000001400+0000001400+000000000+000000196+0000001590+0000000006+I20000000000+0000001590+Z
137093001137093565-000735     137093006003000615674NOVELTY PUTTY BOUNCING 0000002000+00000700+00000+0001T   00000700+0000001636          1400 IO8745               1AZ
137094000137094               137094               170213DM     1400+00000+DM0000007927+0000007927+000000000+000001110+0000009030+0000000007+I20000000000+0000009030+Z
137094001137094018-000130     137094006001023867537MUG OCC LOVE MINI+HEART0000001000+00003507+00000+0001T   00003507+0000001637          1400 IO8515               1AZ
137094002137094030-000031-A   137094006003000457588PLAQUE W/WORDS ASSTD   0000001000+00004385+00000+0001T   00004823+0006471637          1400 IO8505               1AZ
137094003137094112-116038     137094006009681820246TCS CARRIER BAG MIDI   0000001000+00000035+00000+0001T   00000035+0000001637          1400 IO8090               1AZ
137095000137095               137095               170213DM     1400+00000+DM0000024113+0000024113+000000000+000003377+0000027490+0000000000+I40000027490+0000000000+Z
137095001137095903-000843     137095008693029031067SWT GUMMY JELAXY 80G   0000003000+00000964+00000+0001T   00000964+0000001647          1400 IO8150               1AZ
137095002137095077-000245     137095006001023759214GIFT-RIBBON METALLICx2 0000003000+00001227+00000+0001T   00001227+0000001647          1400 IO8112               1AZ
137095003137095051-500104     137095006003000399680GARDEN KIDS RAKE ASSTD 0000002000+00004385+00000+0001T   00004385+0000001647          1400 IO8820               1AZ
137095004137095051-500102     137095006003000399567GARDEN KIDS RAKE ASSTD 0000002000+00004385+00000+0001T   00004385+0000001647          1400 IO8820               1AZ
137096000137096               137096               170213DM     1400+00000+DM0000011398+0000011398+000000000+000001598+0000012996+0000000000+I40000012996+0000000000+Z
137096001137096027-783006     137096006003000060719SCOURERS SPONGE        0000001000+00000876+00000+0001T   00000876+0000001650          1400 IO8212               1AZ
137096002137096107-002117     137096006002580008890BASIN PL 32cm(VIRGIN)4L0000002000+00001753+00000+0001T   00001753+0000001650          1400 IO8210               1AZ
137096003137096024-000111     137096006001023504197ROASTER NON-STICK OBLNG0000001000+00007016+00000+0001T   00007016+0000001650          1400 IO8300               1AZ
137097000137097               137097               170213DM     1400+00000+DM0000003507+0000003507+000000000+000000491+0000003990+0000000008+I20000000000+0000003990+Z
137097001137097018-000136     137097006001023659026MUG OCC LOVE W/PLUSH   0000001000+00003507+00000+0001T   00003507+0000001652          1400 IO8515               1AZ
137098000137098               137098               170213DM     1400+00000+DM0000000035+0000000035+000000000+000000005+0000000040+0000000000+I20000000000+0000000040+Z
137098001137098112-116038     137098006009681820246TCS CARRIER BAG MIDI   0000001000+00000035+00000+0001T   00000035+0000001652          1400 IO8090               1AZ
137099000137099               137099               170213DM     1400+00000+DM0000001311+0000001311+000000000+000000186+0000001490+0000000007+I20000000000+0000001490+Z
137099001137099080-000133-A   137099006003000647019MINI VALENTINES CARD   0000001000+00000437+00000+0001T   00000437+0000001655          1400 IO8112               1AZ
137099002137099080-000133     137099006003000535613CARD&ENV MINI ASTD DSGN0000001000+00000437+00000+0001T   00000437+0000001655          1400 IO8112               1AZ
137099003137099080-000133-A   137099006003000647019MINI VALENTINES CARD   0000001000+00000437+00000+0001T   00000437+0000001655          1400 IO8112               1AZ
137100000137100               137100               170213DM     1400+00000+DM0000002630+0000002630+000000000+000000369+0000002999+0000000000+I40000002999+0000000000+Z
137100001137100079-013101     137100006001023863706CRAFT SET DIY PIPE-CLNR0000001000+00002630+00000+0001T   00002630+0000001657          1400 IO8130               1AZ
137101000137101               137101               170213DM     1400+00000+DM0000007392+0000007392+000000000+000001038+0000008430+0000000000+I40000008430+0000000000+Z
137101001137101080-000133-A   137101006003000647019MINI VALENTINES CARD   0000002000+00000437+00000+0001T   00000437+0000001704          1400 IO8112               1AZ
137101002137101903-000077     137101006939873501687SWT GS MAGIC ROCK FRUIT0000001000+00000525+00000+0001T   00000525+0000001704          1400 IO8150               1AZ
137101003137101903-000844     137101005010478432567SWT CANDY DL LUV HEARTS0000001000+00001314+00000+0001T   00001314+0000001704          1400 IO8150               1AZ
137101004137101903-000619     137101006003000672455SWT LOLLY STR/BRRY 140G0000001000+00001753+00000+0001T   00001753+0000001704          1400 IO8150               1AZ
137101005137101903-000844     137101005010478432567SWT CANDY DL LUV HEARTS0000001000+00001314+00000+0001T   00001314+0000001704          1400 IO8150               1AZ
137101006137101903-000843     137101008693029031067SWT GUMMY JELAXY 80G   0000001000+00000964+00000+0001T   00000964+0000001704          1400 IO8150               1AZ
137101007137101304-001011     137101006001023806727FLWR ROSE RED W/BEAR   0000001000+00000613+00000+0001T   00000788+0006471704          1400 IO8510               1AZ
137101008137101112-116038     137101006009681820246TCS CARRIER BAG MIDI   0000001000+00000035+00000+0001T   00000035+0000001704          1400 IO8090               1AZ
137102000137102               137102               170213DM     1400+00000+DM0000002190+0000002190+000000000+000000308+0000002490+0000000008+I20000000000+0000002490+Z
137102001137102080-000133-A   137102006003000647019MINI VALENTINES CARD   0000001000+00000437+00000+0001T   00000437+0000001708          1400 IO8112               1AZ
137102002137102077-000316     137102006001023609731GIFT-BAG 25X32CM MATT  0000001000+00001753+00000+0001T   00001753+0000001708          1400 IO8112               1AZ
137103000137103               137103               170213DM     1400+00000+DM0000003506+0000003506+000000000+000000491+0000003990+0000000007+I20000000000+0000003990+Z
137103001137103107-004105     137103006009703860984BUCKET 9L OPEN         0000001000+00001314+00000+0001T   00001314+0000001709          1400 IO8210               1AZ
137103002137103467-000004     137103006001023347596NET FISHING 100cm LONG 0000001000+00002192+00000+0001T   00002192+0000001709          1400 IO8785               1AZ
137104000137104               137104               170213DM     1400+00000+DM0000005258+0000005258+000000000+000000738+0000005990+0000000006+I20000000000+0000005990+Z
137104001137104903-000090     137104006009826020821SWT GS CHOCO COINS 60g 0000002000+00002104+00000+0001T   00002104+0000001723          1400 IO8150               1AZ
137104002137104903-000151     137104006009803374411SWT SML RND R/BOW LOLLY0000002000+00000525+00000+0001T   00000525+0000001723          1400 IO8150               1AZ
137105000137105               137105               170213DM     1400+00000+DM0000002313+0000002313+000000000+000000325+0000002630+0000000008+I20000000000+0000002630+Z
137105001137105046-002013-PK6 137105004897006174851BATTERY BUTTON AG13 6PC0000001000+00001753+00000+0001T   00001753+0000001724          1400 IO8312               1AZ
137105002137105903-000155     137105006009803374435SWT LOLLY I LUV U HEART0000001000+00000525+00000+0001T   00000525+0000001724          1400 IO8150               1AZ
137105003137105112-116038     137105006009681820246TCS CARRIER BAG MIDI   0000001000+00000035+00000+0001T   00000035+0000001724          1400 IO8090               1AZ
A17021300                                          09363326DMSLAVE 1                       L671IC
A17021301                                          11415909DMSLAVE 1                       IO83IC
A17021302                                          13550991DMSLAVE 1                       IO83IC
A17021303                                          14114835DMSLAVE 1                       IO83IC
C13704200                                          170213DM031-005921     12103202SLAVE 1     IO82IC0000000000+0000000000+0010000001000+
C13707800                                          170213DM077-000470     15552726SLAVE 1     IO82IC0000000000+0000000000+0010000001000+
C13708900                                          170213DM080-008102     16254538SLAVE 1     IO83IC0000000000+0000000000+0020000001000+
M17021391                              CASH        DMSLAVE 1                       Z-REPORT No.   642TOTAL (Sales - Refunds)           7224.16       CASH TO BE BANKED                 2649.70       DEBIT CARDS                          0.00       CREDIT CARDS                      4574.46       Z-READING                         7224.16       AIRTIME DEBIT CARD SALES             0.00       AIRTIME CARD SALES                   0.00       OVERS/UNDERS                         0.00       AIRTIME CASH SALES                   0.00       GIFT CARDS                           0.00       GIFT CARD CASH SALES                 0.00       T O T A L  CASH PAYOUTS              0.00                                                                                                                                                                                                                                                                                                                                                      Z
M17021392                              CASH        DMABSENT                                                                                                                                                                                          ANNUAL LEAVE                                                                                                                                                                                    DAY OFF                                                                                                                                                                                         COMMENTS                                                                                                                                                                                                                                                                                                                                                                                       Z
Y17021300                                          DM00000000633983+000091
ZDM17021319293 SLAVE 1      SALES DATA                     NEXT INVOICE NO.  137106 0642
X DM Slave 1 First invoice 137015 170213 Last invoice 137105 170213 Next invoice 137106 Total number of records 000000365 clbackup completed 19:29:44
