146625000146625               146625               170213DM     1400+00000+DM0000009646+0000009646+000000000+000001351+0000010997+0000000000+I40000010997+0000000000+Z
146625001146625072-020261     146625006003000305131PET DOG-CHEW TYRE SMALL0000001000+00002192+00000+0001T   00002192+0000000915          1400 L67870               2AZ
146625002146625072-020255     146625006003000451487PET DOG CHEW BONE PK-2 0000001000+00004385+00000+0001T   00004385+0000000915          1400 L67870               2AZ
146625003146625072-020314     146625006003000605453PET TOY PUP VINYL CHICK0000001000+00003069+00000+0001T   00003069+0000000915          1400 L67870               2AZ
146626000146626               146626               170213DM     1400+00000+DM0000003507+0000003507+000000000+000000491+0000003990+0000000008+I20000000000+0000003990+Z
146626001146626159-006347     146626006001023713193HOOKS SET-2 ASSTD BOX  0000001000+00003507+00000+0001T   00003507+0000000915          1400 L67200               2AZ
146627000146627               146627               170213DM     1400+00000+DM0000013157-0000013157-000000000+000001842-0000015000-0000000001+I20000000000+0000015000-Z
146627001146627467-096020     146627006001023679024BOOGIE-BOARD 66cm ASSTD0000001000-00013157+00000+0001T   00013157+0000000918          1400 L677853IC            2 Z
146628000146628               146628               170213DM     1400+00000+DM0000003507+0000003507+000000000+000000491+0000003990+0000000008+I20000000000+0000003990+Z
146628001146628018-000136     146628006001023659026MUG OCC LOVE W/PLUSH   0000001000+00003507+00000+0001T   00003507+0000000919          1400 L67515               2AZ
146629000146629               146629               170213DM     1400+00000+DM0000004820+0000004820+000000000+000000676+0000005496+0000000000+I40000005496+0000000000+Z
146629001146629077-000385     146629006003000275366G/BAG GLITTER 18x23CM  0000001000+00001314+00000+0001T   00001314+0000000932          1400 L67112               2AZ
146629002146629036-000063     146629006009654960436COATHANGERS VIRGIN 5PCE0000002000+00001753+00000+0001T   00001753+0000000932          1400 L67212               2AZ
146630000146630               146630               170213DM     1400+00000+DM0000001051+0000001051+000000000+000000148+0000001190+0000000009+I20000000000+0000001190+Z
146630001146630079-009702-B   146630008427973059491PAPER SIRIO A2 WHITE   0000001000+00001051+00000+0001T   00001051+0000000934          1400 L67130               2AZ
146631000146631               146631               170213DM     1400+00000+DM0000001753+0000001753+000000000+000000246+0000001999+0000000000+I40000001999+0000000000+Z
146631001146631080-000111     146631006003000252695CARD&ENVELPE - MUSICAL 0000001000+00001753+00000+0001T   00001753+0000000940          1400 L67112               2AZ
146632000146632               146632               170213DM     1400+00000+DM0000029759+0000029759+000000000+000004171+0000033930+0000000000+I20000000000+0000033930+Z
146632001146632027-000194     146632006001246602472MOP COMPLETE           0000001000+00002279+00000+0001T   00002279+0000000943          1400 L67212               2AZ
146632002146632027-000029     146632006003000439676FLOOR-BROOM 1.2m ASSTD 0000001000+00006139+00000+0001T   00006139+0000000943          1400 L67212               2AZ
146632003146632133-000381     146632006001023713674TABLE-CLOTH 132x178cm  0000001000+00001753+00000+0001T   00001753+0000000943          1400 L67212               2AZ
146632004146632002-000883     146632006001023770394CAN-OPENER             0000001000+00001753+00000+0001T   00001753+0000000943          1400 L67300               2AZ
146632005146632566-000997     146632006001023554086STICKERS TATTOOS BOOK  0000001000+00003507+00000+0001T   00003507+0000000943          1400 L67130               2AZ
146632006146632027-009025     146632006003962000747DUSTPAN-SET PL         0000001000+00002630+00000+0001T   00002630+0000000943          1400 L67212               2AZ
146632007146632565-004101     146632006003000548033BALL BOUNCING EGG      0000001000+00001490+00000+0001T   00001490+0000000943          1400 L67745               2AZ
146632008146632112-116038     146632006009681820246TCS CARRIER BAG MIDI   0000001000+00000035+00000+0001T   00000035+0000000943          1400 L67090               2AZ
146632009146632562-006275     146632006001023836182EDU BOARD W/MARKER ASST0000001000+00007016+00000+0001T   00007016+0000000943          1400 L67755               2AZ
146632010146632263-001084     146632006001023673060BIKE FRICTION 19cm     0000001000+00003157+00000+0001T   00003157+0000000943          1400 L67710               2AZ
146633000146633               146633               170213DM     1400+00000+DM0000023983+0000023983+000000000+000003359+0000027342+0000000000+I40000027342+0000000000+Z
146633001146633362-004001     146633000613153010385PRINCESS ASSTD TRINKETS0000001000+00000700+00000+0001T   00000876+0008180948          1400 L67160               2AZ
146633002146633560-000300     146633006001023714879DINOSAURS 12PC         0000003000+00003507+00000+0001T   00003507+0000000948          1400 L67745               2AZ
146633003146633464-000007     146633006003000619566EGG & SPOON RACE SET   0000001000+00003069+00000+0001T   00003069+0000000948          1400 L67785               2AZ
146633004146633267-000310     146633006003000163090PUZZLE WOOD TRAY ASSTD 0000001000+00001753+00000+0001T   00001753+0000000948          1400 L67755               2AZ
146633005146633112-116069     146633006009681820277TCS CARRIER BAG JUMBO  0000001000+00000048+00000+0001T   00000048+0000000948          1400 L67090               2AZ
146633006146633267-000044     146633000047754666069PUZZLE LICENSED TRAY   0000001000+00003507+00000+0001T   00004385+0008140948          1400 L67755               2AZ
146633007146633082-007585     146633006003000654093SUNGLASS DESIGNER ASST 0000001000+00004385+00000+0001T   00004385+0000000948          1400 L67160               2AZ
146634000146634               146634               170213DM     1400+00000+DM0000004385-0000004385-000000000+000000614-0000004999-0000000000+I40000004999-0000000000+Z
146634001146634566-000007     146634006001023761187S/BOOK SUPER VALUE     0000001000+00001753+00000+0001T   00001753+0000001005          1400 L67130               2 Z
146634002146634261-000912     146634006001023707437GUN PL SET OF 2+6 DARTS0000001000+00004385+00000+0001T   00004385+0000001005          1400 L67710               2 Z
146634003146634566-000997     146634006001023554086STICKERS TATTOOS BOOK  0000001000-00003507+00000+0001T   00003507+0000001005          1400 L671301IC            2 Z
146634004146634562-006275     146634006001023836182EDU BOARD W/MARKER ASST0000001000-00007016+00000+0001T   00007016+0000001005          1400 L677551IC            2 Z
146635000146635               146635               170213DM     1400+00000+DM0000004385-0000004385-000000000+000000614-0000005000-0000000001+I20000000000+0000005000-Z
146635001146635261-000912     146635006001023707437GUN PL SET OF 2+6 DARTS0000001000+00004385+00000+0001T   00004385+0000001011          1400 L677101IC            2 Z
146635002146635562-006275     146635006001023836182EDU BOARD W/MARKER ASST0000001000-00007016+00000+0001T   00007016+0000001011          1400 L677551IC            2 Z
146635003146635566-000007     146635006001023671219S/BOOK SUPER VALUE     0000001000+00001753+00000+0001T   00001753+0000001011          1400 L67130               2 Z
146635004146635566-000997     146635006001023554086STICKERS TATTOOS BOOK  0000001000-00003507+00000+0001T   00003507+0000001011          1400 L671301IC            2 Z
146636000146636               146636               170213DM     1400+00000+DM0000014148+0000014148+000000000+000001982+0000016130+0000000000+I40000016130+0000000000+Z
146636001146636020-000142     146636006003000223138KNIFE-SET 3PCE UTILITY 0000001000+00003069+00000+0001T   00003069+0000001021          1400 L67300               2AZ
146636002146636200-000130     146636006001023645067DESSERT-SPOONS 10PCE   0000002000+00000613+00000+0001T   00000613+0000001021          1400 L67214               2AZ
146636003146636006-000096     146636006003000610969BANNER CELEBRATION     0000001000+00001490+00000+0001T   00001490+0000001021          1400 L67131               2AZ
146636004146636200-000091     146636006003000499762PICNIC PLATES PL 12PCE 0000002000+00003507+00000+0001T   00003507+0000001021          1400 L67214               2AZ
146636005146636563-000317-B   146636006001023776174SERVIETTES PLN WHT PK400000001000+00001314+00000+0001T   00001314+0000001021          1400 L67214               2AZ
146636006146636112-116038     146636006009681820246TCS CARRIER BAG MIDI   0000001000+00000035+00000+0001T   00000035+0000001021          1400 L67090               2AZ
146637000146637               146637               170213DM     1400+00000+DM0000018025+0000018025+000000000+000002525+0000020550+0000000000+I40000020550+0000000000+Z
146637001146637466-000076     146637006003000669363BALL SOCCER MESH 30.4cm0000001000+00006139+00000+0001T   00006139+0000001033          1400 L67785               2AZ
146637002146637464-000012     146637006003000537259GAME MAN SHAPED BUZZER 0000001000+00005262+00000+0001T   00005262+0000001033          1400 L67785               2AZ
146637003146637046-000012     146637006904708013062BATTERIES AA  CARD-OF-40000001000+00001314+00000+0001T   00001314+0000001033          1400 L67312               2AZ
146637004146637112-116069     146637006009681820277TCS CARRIER BAG JUMBO  0000001000+00000048+00000+0001T   00000048+0000001033          1400 L67090               2AZ
146637005146637466-000615     146637006003000535828BALL SOC MINI HOLOGRAM 0000001000+00005262+00000+0001T   00005262+0000001033          1400 L67785               2AZ
146638000146638               146638               170213DM     1400+00000+DM0000006575+0000006575+000000000+000000922+0000007490+0000000007+I20000000000+0000007490+Z
146638001146638159-000636     146638006003000036035BATH PUMICE,BRUSH,FILE 0000001000+00001753+00000+0001T   00001753+0000001044          1400 L67200               2AZ
146638002146638084-000889     146638006003000293674NAIL FILE EMERY 18CM   0000001000+00001753+00000+0001T   00001753+0000001044          1400 L67200               2AZ
146638003146638020-000142     146638006003000223138KNIFE-SET 3PCE UTILITY 0000001000+00003069+00000+0001T   00003069+0000001044          1400 L67300               2AZ
146639000146639               146639               170213DM     1400+00000+DM0000001613+0000001613+000000000+000000226+0000001830+0000000009+I20000000000+0000001830+Z
146639001146639266-010101     146639006001023331885MARBLES 16mm 90 PC     0000001000+00001578+00000+0001T   00001578+0000001046          1400 L67710               2AZ
146639002146639112-116038     146639006009681820246TCS CARRIER BAG MIDI   0000001000+00000035+00000+0001T   00000035+0000001046          1400 L67090               2AZ
146640000146640               146640               170213DM     1400+00000+DM0000002226+0000002226+000000000+000000312+0000002538+0000000000+I40000002538+0000000000+Z
146640001146640018-000127     146640006001023380289MUG OCC STRAIGHT LOVE  0000001000+00001578+00000+0001T   00001753+0006471106          1400 L67515               2AZ
146640002146640304-001011     146640006001023806727FLWR ROSE RED W/BEAR   0000001000+00000613+00000+0001T   00000788+0006471106          1400 L67510               2AZ
146640003146640112-116038     146640006009681820246TCS CARRIER BAG MIDI   0000001000+00000035+00000+0001T   00000035+0000001106          1400 L67090               2AZ
146641000146641               146641               170213DM     1400+00000+DM0000001099+0000001099+000000000+000000155+0000001254+0000000000+I40000001254+0000000000+Z
146641001146641079-009702-E   146641008427973059439PAPER SIRIO A2 BLUE    0000001000+00001051+00000+0001T   00001051+0000001110          1400 L67130               2AZ
146641002146641112-116069     146641006009681820277TCS CARRIER BAG JUMBO  0000001000+00000048+00000+0001T   00000048+0000001110          1400 L67090               2AZ
146642000146642               146642               170213DM     1400+00000+DM0000001314+0000001314+000000000+000000184+0000001490+0000000008+I20000000000+0000001490+Z
146642001146642046-000012     146642006904708013062BATTERIES AA  CARD-OF-40000001000+00001314+00000+0001T   00001314+0000001112          1400 L67312               2AZ
146643000146643               146643               170213DM     1400+00000+DM0000012574+0000012574+000000000+000001762+0000014336+0000000000+I40000014336+0000000000+Z
146643001146643071-001124     146643006001023802873MARKERS WHITEBOARD 3PCE0000001000+00002630+00000+0001T   00002630+0000001119          1400 L67130               2AZ
146643002146643071-001002     146643006003000217540PENCIL-SHARPNER DOUBLE 0000001000+00001578+00000+0001T   00001578+0000001119          1400 L67130               2AZ
146643003146643566-000359     146643006003000582709STICKER BOOK LOVE SPARK0000001000+00002192+00000+0001T   00002192+0000001119          1400 L67130               2AZ
146643004146643007-010500     146643006003000455034WIPE & CHALK 30X20CM   0000001000+00006139+00000+0001T   00006139+0000001119          1400 L67130               2AZ
146643005146643112-116038     146643006009681820246TCS CARRIER BAG MIDI   0000001000+00000035+00000+0001T   00000035+0000001119          1400 L67090               2AZ
146644000146644               146644               170213DM     1400+00000+DM0000001578+0000001578+000000000+000000221+0000001790+0000000009+I20000000000+0000001790+Z
146644001146644077-000315     146644006003000181186GIFT-BAG 20x28cm MATT  0000001000+00001578+00000+0001T   00001578+0000001119          1400 L67112               2AZ
146645000146645               146645               170213DM     1400+00000+DM0000005643+0000005643+000000000+000000793+0000006436+0000000000+I40000006436+0000000000+Z
146645001146645039-000100     14664500600300060614625CM WHITE CANDLE 6PC  0000001000+00002630+00000+0001T   00002630+0000001124          1400 L67510               2AZ
146645002146645039-000026     146645006001023551610C/TAPERED 25CM M/RED   0000001000+00001051+00000+0001T   00001051+0000001124          1400 L67510               2AZ
146645003146645039-000025     146645006003000286423CANDLE LONG 25CM DARK  0000001000+00001051+00000+0001T   00001051+0000001124          1400 L67510               2AZ
146645004146645078-000025     146645008887013700064SUPERGLUE 3g 1PCE CARD 0000001000+00000876+00000+0001T   00000876+0000001124          1400 L67810               2AZ
146645005146645112-116038     146645006009681820246TCS CARRIER BAG MIDI   0000001000+00000035+00000+0001T   00000035+0000001124          1400 L67090               2AZ
146646000146646               146646               170213DM     1400+00000+DM0000025022+0000025022+000000000+000003506+0000028528+0000000000+I40000028528+0000000000+Z
146646001146646304-001167     146646006001023846099FLOWER LOTUS FLOATING  0000003000+00002192+00000+0001T   00002192+0000001128          1400 L67510               2AZ
146646002146646301-000835     146646006003000035014ORN FAIRY SITTING 4ASST0000002000+00003507+00000+0001T   00003507+0000001128          1400 L67505               2AZ
146646003146646003-008016     146646006001023765000ORN GNOME STANDING 15CM0000002000+00003069+00000+0001T   00003069+0000001128          1400 L67505               2AZ
146646004146646003-000141     146646006001023806758ORN FROG ON MUSHROOM   0000001000+00004385+00000+0001T   00004385+0000001128          1400 L67505               2AZ
146646005146646112-116038     146646006009681820246TCS CARRIER BAG MIDI   0000001000+00000035+00000+0001T   00000035+0000001128          1400 L67090               2AZ
146646006146646080-000133-A   146646006003000647019MINI VALENTINES CARD   0000002000+00000437+00000+0001T   00000437+0000001128          1400 L67112               2AZ
146647000146647               146647               170213DM     1400+00000+DM0000046648+0000046648+000000000+000006531+0000053179+0000000000+I40000053179+0000000000+Z
146647001146647903-000843     146647008693029031067SWT GUMMY JELAXY 80G   0000007000+00000964+00000+0001T   00000964+0000001253          1400 L67150               2AZ
146647002146647018-000177     146647006001023797513MUG MINI LOVE ASSTD    0000057000+00000700+00000+0001T   00000700+0000001253          1400 L67515               2AZ
146648000146648               146648               170213DM     1400+00000+DM0000007919+0000007919+000000000+000001113+0000009030+0000000002+I20000000000+0000009030+Z
146648001146648903-000504     146648006001704012416SWT CHOC JELLY BEANS   0000002000+00001227+00000+0001T   00001227+0000001310          1400 L67150               2AZ
146648002146648903-000094     146648006923431501622SWT GS CANDY NECKLACE  0000002000+00000437+00000+0001T   00000437+0000001310          1400 L67150               2AZ
146648003146648903-000151     146648006009803374411SWT SML RND R/BOW LOLLY0000001000+00000525+00000+0001T   00000525+0000001310          1400 L67150               2AZ
146648004146648903-000155     146648006009803374435SWT LOLLY I LUV U HEART0000001000+00000525+00000+0001T   00000525+0000001310          1400 L67150               2AZ
146648005146648080-000115     146648006003000237333CARD&ENVELOPE - BLANKS 0000002000+00001753+00000+0001T   00001753+0000001310          1400 L67112               2AZ
146648006146648112-116038     146648006009681820246TCS CARRIER BAG MIDI   0000001000+00000035+00000+0001T   00000035+0000001310          1400 L67090               2AZ
146649000146649               146649               170213DM     1400+00000+DM0000011608+0000011608+000000000+000001627+0000013235+0000000000+I40000013235+0000000000+Z
146649001146649077-000926     146649006003000414178G/WRAP 700mmx2m LOVE   0000001000+00002192+00000+0001T   00002192+0000001340          1400 L67112               2AZ
146649002146649071-005214     146649006003000152544CELLOTAPE SUPER REFILL 0000001000+00001490+00000+0001T   00001490+0000001340          1400 L67130               2AZ
146649003146649077-000382     146649006003000247820GIFT-BAG MED 18X23CM   0000002000+00001753+00000+0001T   00001753+0000001340          1400 L67112               2AZ
146649004146649031-000870-A   146649006001023798626P/FRAME WOOD WHITE-PINE0000001000+00004385+00000+0001T   00004385+0000001340          1400 L67510               2AZ
146649005146649112-116038     146649006009681820246TCS CARRIER BAG MIDI   0000001000+00000035+00000+0001T   00000035+0000001340          1400 L67090               2AZ
146650000146650               146650               170213DM     1400+00000+DM0000014470+0000014470+000000000+000002027+0000016497+0000000000+I40000016497+0000000000+Z
146650001146650048-000703     146650006003000269686HEAD-LAMP 4+2LED(3xAAA)0000001000+00006139+00000+0001T   00006139+0000001414          1400 L67305               2AZ
146650002146650497-068614     146650000078257686148H/PUMP HIGH-O/PUT 36cm 0000001000+00006139+00000+0001T   00006139+0000001414          1400 L67787               2AZ
146650003146650108-000999     146650006003000667185TUMBLER PL 8-PACK 200ML0000001000+00002192+00000+0001T   00002192+0000001414          1400 L67210               2AZ
146651000146651               146651               170213DM     1400+00000+DM0000001490+0000001490+000000000+000000209+0000001690+0000000009+I20000000000+0000001690+Z
146651001146651077-000305     146651006003000395422GIFT-BAG WINE 10X35CM  0000001000+00001490+00000+0001T   00001490+0000001416          1400 L67112               2AZ
146652000146652               146652               170213DM     1400+00000+DM0000008768+0000008768+000000000+000001229+0000009990+0000000007+I20000000000+0000009990+Z
146652001146652024-091102-A   146652006003000328314BAKING-CUP CUPCAKE 75PC0000001000+00001753+00000+0001T   00001753+0000001418          1400 L67300               2AZ
146652002146652034-078836     146652006003000622122COOEY FEEDING BOWLS 3PC0000001000+00003069+00000+0001T   00003069+0000001418          1400 L67215               2AZ
146652003146652073-000521     146652006003000571697COSMETIC-BAG+ZIP RECT  0000001000+00003946+00000+0001T   00005262+0008121418          1400 L67200               2AZ
146653000146653               146653               170213DM     1400+00000+DM0000002630+0000002630+000000000+000000369+0000002990+0000000009+I20000000000+0000002990+Z
146653001146653056-065302     146653006001023759566CAR SUN-SHIELD ALM-FOIL0000001000+00002630+00000+0001T   00002630+0000001418          1400 L67860               2AZ
146654000146654               146654               170213DM     1400+00000+DM0000040825+0000040825+000000000+000005720+0000046545+0000000000+I40000046545+0000000000+Z
146654001146654077-000270     146654006003000395453GIFT-BAG PPR JMB 33X45 0000001000+00002630+00000+0001T   00002630+0000001422          1400 L67112               2AZ
146654002146654077-000916     146654006003000413577G/WRAP 700mmx2m BBY/KID0000001000+00002192+00000+0001T   00002192+0000001422          1400 L67112               2AZ
146654003146654077-000926     146654006003000414178G/WRAP 700mmx2m LOVE   0000001000+00002192+00000+0001T   00002192+0000001422          1400 L67112               2AZ
146654004146654301-085002     146654006003000420704ORN OCC. LOVE BELL ASST0000001000+00001753+00000+0001T   00002630+0008121422          1400 L67505               2AZ
146654005146654301-085008     146654006003000673933ORN OCC.LOVE TINSEL HRT0000001000+00003069+00000+0001T   00003069+0000001422          1400 L67505               2AZ
146654006146654018-019000     146654006003000557288MUG OCC. LOVE JUMBO    0000001000+00005262+00000+0001T   00005262+0000001422          1400 L67515               2AZ
146654007146654047-000512-H   146654006001023657473EXT-CORD 3m DBL-J   H&H0000001000+00006578+00000+0001T   00006578+0000001422          1400 L67880               2AZ
146654008146654080-000127     146654006003000424351VALENTINES DAY 36x24CM 0000001000+00002192+00000+0001T   00002192+0000001422          1400 L67112               2AZ
146654009146654072-020309     146654006001023700995DOG-TOY DUMBELL F/BALL 0000001000+00002630+00000+0001T   00002630+0000001422          1400 L67870               2AZ
146654010146654112-116069     146654006009681820277TCS CARRIER BAG JUMBO  0000001000+00000048+00000+0001T   00000048+0000001422          1400 L67090               2AZ
146654011146654368-000111     146654006001023780812PLUSH BEAR/DOG 29CM    0000001000+00012279+00000+0001T   00012279+0000001422          1400 L67745               2AZ
146655000146655               146655               170213DM     1400+00000+DM0000008817+0000008817+000000000+000001236+0000010053+0000000000+I40000010053+0000000000+Z
146655001146655112-116069     146655006009681820277TCS CARRIER BAG JUMBO  0000001000+00000048+00000+0001T   00000048+0000001424          1400 L67090               2AZ
146655002146655361-009104     146655006001023619365DOLL ACCESSORY STROLLER0000001000+00007016+00000+0001T   00007016+0000001424          1400 L67725               2AZ
146655003146655106-007125     146655006003000057689MILK-SACHET-JUG 1,0L   0000001000+00001753+00000+0001T   00001753+0000001424          1400 L67210               2AZ
146656000146656               146656               170213DM     1400+00000+DM0000054352+0000054352+000000000+000007626+0000061978+0000000000+I40000061978+0000000000+Z
146656001146656463-000366     146656006001023789136SWIM W/NOODLE 150cm    0000015000+00002630+00000+0001T   00002630+0000001434          1400 L67785               2AZ
146656002146656047-001337-H   146656006001023429971INS-TAPE 20m BLACK     0000001000+00001753+00000+0001T   00001753+0000001434          1400 L67880               2AZ
146656003146656251-000012     146656006001023597915TAPE DUCT GREY 48mmx5m 0000003000+00002630+00000+0001T   00002630+0000001434          1400 L67810               2AZ
146656004146656466-000200     146656006001023621665HULA-HOOP     ASSTD    0000003000+00001753+00000+0001T   00001753+0000001434          1400 L67785               2AZ
146657000146657               146657               170213DM     1400+00000+DM0000006576+0000006576+000000000+000000921+0000007497+0000000000+I40000007497+0000000000+Z
146657001146657080-000127     146657006003000424351VALENTINES DAY 36x24CM 0000003000+00002192+00000+0001T   00002192+0000001436          1400 L67112               2AZ
146658000146658               146658               170213DM     1400+00000+DM0000001753+0000001753+000000000+000000246+0000001990+0000000009+I20000000000+0000001990+Z
146658001146658006-000800     146658006001023902801HAT CABARET 14x18cm    0000001000+00001753+00000+0001T   00001753+0000001439          1400 L67131               2AZ
146659000146659               146659               170213DM     1400+00000+DM0000005296+0000005296+000000000+000000742+0000006030+0000000008+I20000000000+0000006030+Z
146659001146659001-000175     146659006001023788108B/MUG GLS LOVE 380ML   0000001000+00004385+00000+0001T   00004385+0000001443          1400 L67515               2AZ
146659002146659077-000011-C   146659006001023808523TISSUE 10xSHTS RED     0000001000+00000876+00000+0001T   00000876+0000001443          1400 L67112               2AZ
146659003146659112-116038     146659006009681820246TCS CARRIER BAG MIDI   0000001000+00000035+00000+0001T   00000035+0000001443          1400 L67090               2AZ
146660000146660               146660               170213DM     1400+00000+DM0000007015+0000007015+000000000+000000983+0000007990+0000000008+I20000000000+0000007990+Z
146660001146660018-000170     146660006001023775528MUG OCC. LOVE 2PC MINI 0000001000+00002192+00000+0001T   00002192+0000001444          1400 L67515               2AZ
146660002146660046-000012-VP  146660006003000537914BATTERIES H/P SIZE:AA  0000001000+00004823+00000+0001T   00004823+0000001444          1400 L67312               2AZ
146661000146661               146661               170213DM     1400+00000+DM0000006523+0000006523+000000000+000000916+0000007439+0000000000+I40000007439+0000000000+Z
146661001146661304-001011     146661006001023806727FLWR ROSE RED W/BEAR   0000010000+00000613+00000+0001T   00000788+0006471451          1400 L67510               2AZ
146661002146661903-000183     146661006003000451043SWT LB HEART LOLLY     0000001000+00000393+00000+0001T   00000393+0000001451          1400 L67150               2AZ
146662000146662               146662               170213DM     1400+00000+DM0000004821+0000004821+000000000+000000676+0000005490+0000000007+I20000000000+0000005490+Z
146662001146662047-005127     146662006003000093861CABLETIES 100/150/200mm0000001000+00002192+00000+0001T   00002192+0000001457          1400 L67880               2AZ
146662002146662027-009030     146662006002814400100DUSTPAN PL             0000001000+00001402+00000+0001T   00001402+0000001457          1400 L67212               2AZ
146662003146662033-001400     146662006009654960474HAIR-CURLERS 10PCE SML 0000001000+00001227+00000+0001T   00001227+0000001457          1400 L67200               2AZ
146663000146663               146663               170213DM     1400+00000+DM0000000525+0000000525+000000000+000000074+0000000590+0000000009+I20000000000+0000000590+Z
146663001146663002-021040     146663006001023812216PARTY-PICKS 100PCE     0000001000+00000525+00000+0001T   00000525+0000001457          1400 L67300               2AZ
146664000146664               146664               170213DM     1400+00000+DM0000001578+0000001578+000000000+000000221+0000001790+0000000009+I20000000000+0000001790+Z
146664001146664018-000127     146664006001023380289MUG OCC STRAIGHT LOVE  0000001000+00001578+00000+0001T   00001753+0006471459          1400 L67515               2AZ
146665000146665               146665               170213DM     1400+00000+DM0000004385+0000004385+000000000+000000614+0000004990+0000000009+I20000000000+0000004990+Z
146665001146665024-000118     146665006001023422316N/STICK C/PAN HEART    0000001000+00004385+00000+0001T   00004385+0000001501          1400 L67300               2AZ
146666000146666               146666               170213DM     1400+00000+DM0000000647+0000000647+000000000+000000091+0000000738+0000000000+I40000000738+0000000000+Z
146666001146666079-009700-E   146666006003000545797PAPER SIRIO A4 GREY    0000002000+00000306+00000+0001T   00000306+0000001505          1400 L67130               2AZ
146666002146666112-116038     146666006009681820246TCS CARRIER BAG MIDI   0000001000+00000035+00000+0001T   00000035+0000001505          1400 L67090               2AZ
146667000146667               146667               170213DM     1400+00000+DM0000000876+0000000876+000000000+000000123+0000000999+0000000000+I40000000999+0000000000+Z
146667001146667078-000025     146667008887013700064SUPERGLUE 3g 1PCE CARD 0000001000+00000876+00000+0001T   00000876+0000001506          1400 L67810               2AZ
146668000146668               146668               170213DM     1400+00000+DM0000020870+0000020870+000000000+000002924+0000023794+0000000000+I40000023794+0000000000+Z
146668001146668036-000151     146668006001023810588COATHANGERS    PACK-10 0000001000+00002893+00000+0001T   00002893+0000001508          1400 L67212               2AZ
146668002146668263-000219     146668006001023547880TRACTOR FARM WHEEL 30cm0000001000+00010525+00000+0001T   00010525+0000001508          1400 L67710               2AZ
146668003146668567-011306     146668006003000598434BOOK ACTIVITY TRACE    0000001000+00003069+00000+0001T   00003069+0000001508          1400 L67757               2AZ
146668004146668560-000300     146668006001023714879DINOSAURS 12PC         0000001000+00003507+00000+0001T   00003507+0000001508          1400 L67745               2AZ
146668005146668039-000319-4   146668006003000442744B/CANDLES LRG NUMBER-4 0000001000+00000876+00000+0001T   00000876+0000001508          1400 L67510               2AZ
146669000146669               146669               170213DM     1400+00000+DM0000001314+0000001314+000000000+000000184+0000001490+0000000008+I20000000000+0000001490+Z
146669001146669159-000149     146669006003000010998SOAP-DISH FOUR-LEAF    0000001000+00001314+00000+0001T   00001314+0000001509          1400 L67200               2AZ
146670000146670               146670               170213DM     1400+00000+DM0000010773+0000010773+000000000+000001510+0000012280+0000000003+I20000000000+0000012280+Z
146670001146670563-000318-G   146670006003000404360SERVIETTES 33cm PINK   0000001000+00002192+00000+0001T   00002192+0000001510          1400 L67214               2AZ
146670002146670006-000094     146670006003000611089PARTY BANNER BBY SHOWER0000001000+00001490+00000+0001T   00001490+0000001510          1400 L67131               2AZ
146670003146670071-005214     146670006003000152544CELLOTAPE SUPER REFILL 0000001000+00001490+00000+0001T   00001490+0000001510          1400 L67130               2AZ
146670004146670200-000106     146670006003000510290PICNIC CUPS PAPER 250ml0000001000+00003507+00000+0001T   00003507+0000001510          1400 L67214               2AZ
146670005146670006-000107     146670006003000587872BALLOONS ITS BOY/GIRL  0000001000+00001753+00000+0001T   00001753+0000001510          1400 L67131               2AZ
146670006146670079-009700-I   146670006003000546114PAPER SIRIO A4 LILAC   0000001000+00000306+00000+0001T   00000306+0000001510          1400 L67130               2AZ
146670007146670112-116038     146670006009681820246TCS CARRIER BAG MIDI   0000001000+00000035+00000+0001T   00000035+0000001510          1400 L67090               2AZ
146671000146671               146671               170213DM     1400+00000+DM0000005963+0000005963+000000000+000000835+0000006798+0000000000+I40000006798+0000000000+Z
146671001146671028-000488     146671006001023458926TABLE-CLAMPS 4PCE   H&L0000001000+00004385+00000+0001T   00004385+0000001514          1400 L67305               2AZ
146671002146671024-000034     146671006001023495235MEASURING-JUG 1-CUP    0000001000+00001578+00000+0001T   00001578+0000001514          1400 L67300               2AZ
146672000146672               146672               170213DM     1400+00000+DM0000017145+0000017145+000000000+000002404+0000019549+0000000000+I40000019549+0000000000+Z
146672001146672018-000055     146672006003000086498SOUP-MUG CER. SOLD COL.0000001000+00002630+00000+0001T   00002630+0000001516          1400 L67515               2AZ
146672002146672077-000005-B   146672006003000326617PAPER TISSUE PATTERN   0000001000+00002630+00000+0001T   00002630+0000001516          1400 L67112               2AZ
146672003146672018-019000     146672006003000557288MUG OCC. LOVE JUMBO    0000001000+00005262+00000+0001T   00005262+0000001516          1400 L67515               2AZ
146672004146672031-005821     146672006001023667786P/FRAME-GLS CLIP 21X30 0000001000+00002630+00000+0001T   00002630+0000001516          1400 L67510               2AZ
146672005146672206-000150     146672006003000628667SLICER CUCUMBER        0000001000+00002192+00000+0001T   00002192+0000001516          1400 L67321               2AZ
146672006146672206-000120     146672006003000628308PEELER CARROT SHARPENER0000001000+00001753+00000+0001T   00001753+0000001516          1400 L67321               2AZ
146672007146672112-116069     146672006009681820277TCS CARRIER BAG JUMBO  0000001000+00000048+00000+0001T   00000048+0000001516          1400 L67090               2AZ
146673000146673               146673               170213DM     1400+00000+DM0000004470+0000004470+000000000+000000627+0000005097+0000000000+I40000005097+0000000000+Z
146673001146673140-001004     146673006001023880932FLY-RIBBONS 4PCE PL    0000001000+00001490+00000+0001T   00001490+0000001518          1400 L67830               2AZ
146673002146673039-000108     146673006001023524034TEA-LITE CANDLES 8PCE  0000002000+00001490+00000+0001T   00001490+0000001518          1400 L67510               2AZ
146674000146674               146674               170213DM     1400+00000+DM0000008769+0000008769+000000000+000001229+0000009998+0000000000+I40000009998+0000000000+Z
146674001146674031-005821     146674006001023667786P/FRAME-GLS CLIP 21X30 0000001000+00002630+00000+0001T   00002630+0000001520          1400 L67510               2AZ
146674002146674486-000010     146674006001023544254WALL-CLOCK ROUND 25cm  0000001000+00006139+00000+0001T   00006139+0000001520          1400 L67510               2AZ
146675000146675               146675               170213DM     1400+00000+DM0000031301+0000031301+000000000+000004387+0000035688+0000000000+I40000035688+0000000000+Z
146675001146675033-000008     146675006003000226818PILL REMINDER 28-COMPAR0000002000+00002630+00000+0001T   00002630+0000001524          1400 L67200               2AZ
146675002146675264-000925-351 146675006003000642205BURAGO 1:64 FERRARI    0000001000+00004385+00000+0001T   00006139+0008131524          1400 L67710               2AZ
146675003146675031-005853     146675006003000442416P/FRAME WDN TWIN HEARTS0000001000+00003507+00000+0001T   00003507+0000001524          1400 L67510               2AZ
146675004146675306-000993     146675006003000560110FIRSTAID PLASTER 75PC  0000001000+00002630+00000+0001T   00002630+0000001524          1400 L67200               2AZ
146675005146675077-000010-C   146675006001023123879CREPE-PAPER RED        0000001000+00000788+00000+0001T   00000788+0000001524          1400 L67112               2AZ
146675006146675039-081008     146675006008766081008CANDLES 9PCE SCENTED   0000001000+00002630+00000+0001T   00002630+0000001524          1400 L67510               2AZ
146675007146675001-091415     146675006003000329113W/GLS OCC. LOVE 2PC 2800000001000+00008771+00000+0001T   00009648+0006471524          1400 L67515               2AZ
146675008146675077-000270     146675006003000395453GIFT-BAG PPR JMB 33X45 0000001000+00002630+00000+0001T   00002630+0000001524          1400 L67112               2AZ
146675009146675018-000177     146675006001023797513MUG MINI LOVE ASSTD    0000001000+00000700+00000+0001T   00000700+0000001524          1400 L67515               2AZ
146676000146676               146676               170213DM     1400+00000+DM0000002626+0000002626+000000000+000000368+0000002994+0000000000+I40000002994+0000000000+Z
146676001146676304-001011     146676006001023806727FLWR ROSE RED W/BEAR   0000002000+00000613+00000+0001T   00000788+0006471526          1400 L67510               2AZ
146676002146676903-000121     146676006002099001689SWT GS ZILLIONS SOURS  0000001000+00000700+00000+0001T   00000700+0000001526          1400 L67150               2AZ
146676003146676903-000120     146676006002099001665SWEET GS ZILLIONS 50g  0000001000+00000700+00000+0001T   00000700+0000001526          1400 L67150               2AZ
146677000146677               146677               170213DM     1400+00000+DM0000003944+0000003944+000000000+000000553+0000004490+0000000007+I20000000000+0000004490+Z
146677001146677903-005007     146677006002580020311SWT MALLOW BEAR M/SHAKE0000001000+00001314+00000+0001T   00001314+0000001528          1400 L67150               2AZ
146677002146677039-081008     146677006008766081008CANDLES 9PCE SCENTED   0000001000+00002630+00000+0001T   00002630+0000001528          1400 L67510               2AZ
146678000146678               146678               170213DM     1400+00000+DM0000003542+0000003542+000000000+000000496+0000004030+0000000008+I20000000000+0000004030+Z
146678001146678031-005853     146678006003000442416P/FRAME WDN TWIN HEARTS0000001000+00003507+00000+0001T   00003507+0000001529          1400 L67510               2AZ
146678002146678112-116038     146678006009681820246TCS CARRIER BAG MIDI   0000001000+00000035+00000+0001T   00000035+0000001529          1400 L67090               2AZ
146679000146679               146679               170213DM     1400+00000+DM0000004255+0000004255+000000000+000000597+0000004850+0000000002+I20000000000+0000004850+Z
146679001146679077-000299-A   146679006003000670888GIFT-BAG PAPER JMB LOVE0000001000+00001753+00000+0001T   00001753+0000001530          1400 L67112               2AZ
146679002146679080-000124     146679006003000297733CARD & ENV VALENTINES  0000001000+00001578+00000+0001T   00001578+0000001530          1400 L67112               2AZ
146679003146679077-000011-D   146679006001023808554TISSUE-WRAP WHITE 10PCE0000001000+00000876+00000+0001T   00000876+0000001530          1400 L67112               2AZ
146679004146679112-116069     146679006009681820277TCS CARRIER BAG JUMBO  0000001000+00000048+00000+0001T   00000048+0000001530          1400 L67090               2AZ
146680000146680               146680               170213DM     1400+00000+DM0000001753+0000001753+000000000+000000246+0000001990+0000000009+I20000000000+0000001990+Z
146680001146680077-000382     146680006003000247820GIFT-BAG MED 18X23CM   0000001000+00001753+00000+0001T   00001753+0000001539          1400 L67112               2AZ
146681000146681               146681               170213DM     1400+00000+DM0000000876+0000000876+000000000+000000123+0000000990+0000000009+I20000000000+0000000990+Z
146681001146681007-000045     146681006009608640438DISPLAY-POCKETS A4 10PC0000001000+00000876+00000+0001T   00000876+0000001543          1400 L67130               2AZ
146682000146682               146682               170213DM     1400+00000+DM0000001120+0000001120+000000000+000000158+0000001270+0000000008+I20000000000+0000001270+Z
146682001146682079-009702-E   146682008427973059439PAPER SIRIO A2 BLUE    0000001000+00001051+00000+0001T   00001051+0000001545          1400 L67130               2AZ
146682002146682112-116053     146682006006438002399TCS CARRIER BAG 38L    0000001000+00000069+00000+0001T   00000069+0000001545          1400 L67090               2AZ
146683000146683               146683               170213DM     1400+00000+DM0000007016+0000007016+000000000+000000983+0000007999+0000000000+I40000007999+0000000000+Z
146683001146683174-000305     146683006003000105502TRAVEL NECK-PILLOW     0000001000+00007016+00000+0001T   00007016+0000001547          1400 L67205               2AZ
146684000146684               146684               170213DM     1400+00000+DM0000010291+0000010291+000000000+000001442+0000011730+0000000003+I20000000000+0000011730+Z
146684001146684486-002065     146684006003000057030C/ALARM QTZ PL SQUARE  0000001000+00006578+00000+0001T   00006578+0000001550          1400 L67510               2AZ
146684002146684046-000011     146684004897006172994BATTERIES SIZE:AA  2PCE0000001000+00001402+00000+0001T   00001402+0000001550          1400 L67312               2AZ
146684003146684903-000503     146684006001704006118SWT VAMPIRE FANGS 60G  0000001000+00000876+00000+0001T   00000876+0000001550          1400 L67150               2AZ
146684004146684112-116038     146684006009681820246TCS CARRIER BAG MIDI   0000001000+00000035+00000+0001T   00000035+0000001550          1400 L67090               2AZ
146684005146684564-000012     146684006001023130075BUBBLE BOTTLE MAGIC    0000002000+00000700+00000+0001T   00000700+0000001550          1400 L67131               2AZ
146685000146685               146685               170213DM     1400+00000+DM0000001489+0000001489+000000000+000000209+0000001690+0000000008+I20000000000+0000001690+Z
146685001146685903-000077     146685006939873501687SWT GS MAGIC ROCK FRUIT0000001000+00000525+00000+0001T   00000525+0000001551          1400 L67150               2AZ
146685002146685903-000843     146685008693029031067SWT GUMMY JELAXY 80G   0000001000+00000964+00000+0001T   00000964+0000001551          1400 L67150               2AZ
146686000146686               146686               170213DM     1400+00000+DM0000001753+0000001753+000000000+000000246+0000001990+0000000009+I20000000000+0000001990+Z
146686001146686566-000028     146686006003000265541STICKER BK ASSTD 250PCE0000001000+00001753+00000+0001T   00001753+0000001617          1400 L67130               2AZ
146687000146687               146687               170213DM     1400+00000+DM0000015396+0000015396+000000000+000002156+0000017552+0000000000+I40000017552+0000000000+Z
146687001146687001-091415     146687006003000329113W/GLS OCC. LOVE 2PC 2800000001000+00008771+00000+0001T   00009648+0006471619          1400 L67515               2AZ
146687002146687080-000127     146687006003000424351VALENTINES DAY 36x24CM 0000001000+00002192+00000+0001T   00002192+0000001619          1400 L67112               2AZ
146687003146687018-030000     146687006003000421060MUG OCCASIONS LOVE 2PCE0000001000+00004385+00000+0001T   00004385+0000001619          1400 L67515               2AZ
146687004146687112-116069     146687006009681820277TCS CARRIER BAG JUMBO  0000001000+00000048+00000+0001T   00000048+0000001619          1400 L67090               2AZ
146688000146688               146688               170213DM     1400+00000+DM0000008185+0000008185+000000000+000001149+0000009334+0000000000+I40000009334+0000000000+Z
146688001146688369-001137     146688006003000555062VINYL 5.7cm THEMED DUCK0000001000+00001753+00000+0001T   00001753+0000001628          1400 L67745               2AZ
146688002146688071-001002     146688006003000217540PENCIL-SHARPNER DOUBLE 0000001000+00001578+00000+0001T   00001578+0000001628          1400 L67130               2AZ
146688003146688903-002850     146688000000087108262MENTOS ROLL FRUIT      0000001000+00001051+00000+0001T   00001051+0000001628          1400 L67150               2AZ
146688004146688071-008229     146688006003000216017PENCIL-BAG ASTD COL A5 0000001000+00001753+00000+0001T   00001753+0000001628          1400 L67130               2AZ
146688005146688903-000087     146688006001704000161SWT SPECKLED-EGGS 50G  0000001000+00001139+00000+0001T   00001139+0000001628          1400 L67150               2AZ
146688006146688903-000503     146688006001704006118SWT VAMPIRE FANGS 60G  0000001000+00000876+00000+0001T   00000876+0000001628          1400 L67150               2AZ
146688007146688112-116038     146688006009681820246TCS CARRIER BAG MIDI   0000001000+00000035+00000+0001T   00000035+0000001628          1400 L67090               2AZ
146689000146689               146689               170213DM     1400+00000+DM0000002192+0000002192+000000000+000000307+0000002490+0000000009+I20000000000+0000002490+Z
146689001146689080-000127     146689006003000424351VALENTINES DAY 36x24CM 0000001000+00002192+00000+0001T   00002192+0000001633          1400 L67112               2AZ
146690000146690               146690               170213DM     1400+00000+DM0000000874+0000000874+000000000+000000124+0000000990+0000000008+I20000000000+0000000990+Z
146690001146690080-000133-A   146690006003000647019MINI VALENTINES CARD   0000002000+00000437+00000+0001T   00000437+0000001648          1400 L67112               2AZ
146691000146691               146691               170213DM     1400+00000+DM0000001490+0000001490+000000000+000000209+0000001690+0000000009+I20000000000+0000001690+Z
146691001146691077-000327     146691006001023677686GIFT-BAG 25X32CM E/D BA0000001000+00001490+00000+0001T   00001490+0000001650          1400 L67112               2AZ
146692000146692               146692               170213DM     1400+00000+DM0000032186+0000032186+000000000+000004508+0000036694+0000000000+I40000036694+0000000000+Z
146692001146692001-091415     146692006003000329113W/GLS OCC. LOVE 2PC 2800000001000+00008771+00000+0001T   00009648+0006471657          1400 L67515               2AZ
146692002146692031-000924     146692006001023669964P/FRAME COLLAGE PL     0000001000+00008771+00000+0001T   00008771+0000001657          1400 L67510               2AZ
146692003146692368-000175     146692006003000270316PLUSH BEAR 4 ASSTD 18CM0000001000+00006139+00000+0001T   00006139+0000001657          1400 L67745               2AZ
146692004146692018-019000     146692006003000557288MUG OCC. LOVE JUMBO    0000001000+00005262+00000+0001T   00005262+0000001657          1400 L67515               2AZ
146692005146692077-000270     146692006003000395453GIFT-BAG PPR JMB 33X45 0000001000+00002630+00000+0001T   00002630+0000001657          1400 L67112               2AZ
146692006146692304-001011     146692006001023806727FLWR ROSE RED W/BEAR   0000001000+00000613+00000+0001T   00000788+0006471657          1400 L67510               2AZ
146693000146693               146693               170213DM     1400+00000+DM0000024825+0000024825+000000000+000003490+0000028315+0000000000+I40000028315+0000000000+Z
146693001146693206-000370     146693006003000631315STRAW P/DRINKING GLASS 0000001000+00001753+00000+0001T   00001753+0000001706          1400 L67321               2AZ
146693002146693903-000862     146693005010478533912SWT DOUBLE DIP 19G     0000001000+00001139+00000+0001T   00001139+0000001706          1400 L67150               2AZ
146693003146693206-000180     146693006003000631223TEA INFUSER TEAMAN     0000001000+00004385+00000+0001T   00004385+0000001706          1400 L67321               2AZ
146693004146693080-000133-A   146693006003000647019MINI VALENTINES CARD   0000008000+00000437+00000+0001T   00000437+0000001706          1400 L67112               2AZ
146693005146693080-000133     146693006003000535613CARD&ENV MINI ASTD DSGN0000001000+00000437+00000+0001T   00000437+0000001706          1400 L67112               2AZ
146693006146693080-000133-A   146693006003000647019MINI VALENTINES CARD   0000007000+00000437+00000+0001T   00000437+0000001706          1400 L67112               2AZ
146693007146693018-000130     146693006001023867537MUG OCC LOVE MINI+HEART0000003000+00003507+00000+0001T   00003507+0000001706          1400 L67515               2AZ
146693008146693112-116038     146693006009681820246TCS CARRIER BAG MIDI   0000001000+00000035+00000+0001T   00000035+0000001706          1400 L67090               2AZ
146694000146694               146694               170213DM     1400+00000+DM0000002630+0000002630+000000000+000000369+0000002999+0000000000+I40000002999+0000000000+Z
146694001146694024-091102-B   146694006003000111725BAKING-CUP MUFFIN 40PCE0000001000+00002630+00000+0001T   00002630+0000001708          1400 L67300               2AZ
146695000146695               146695               170213DM     1400+00000+DM0000001314+0000001314+000000000+000000184+0000001490+0000000008+I20000000000+0000001490+Z
146695001146695077-000310     146695006001023608635GIFT-BAG 18X23CM GLOSS 0000001000+00001314+00000+0001T   00001314+0000001708          1400 L67112               2AZ
146696000146696               146696               170213DM     1400+00000+DM0000008549+0000008549+000000000+000001199+0000009748+0000000000+I40000009748+0000000000+Z
146696001146696077-000321     146696006001023677501GIFT-BAG 11X14CM E/D FL0000004000+00000613+00000+0001T   00000613+0000001710          1400 L67112               2AZ
146696002146696077-000399     146696006003000139514GIFT BAG 18X23CM E/DAY 0000002000+00001490+00000+0001T   00001490+0000001710          1400 L67112               2AZ
146696003146696077-000376     146696006003000444427GIFT-BAG 25X32CM 2PK   0000001000+00003069+00000+0001T   00003069+0000001710          1400 L67112               2AZ
146696004146696112-116069     146696006009681820277TCS CARRIER BAG JUMBO  0000001000+00000048+00000+0001T   00000048+0000001710          1400 L67090               2AZ
146697000146697               146697               170213DM     1400+00000+DM0000001753+0000001753+000000000+000000246+0000001990+0000000009+I20000000000+0000001990+Z
146697001146697200-000080     146697005024418420439ICE-CUBE-MAKER 336PCE  0000001000+00001753+00000+0001T   00001753+0000001715          1400 L67214               2AZ
146698000146698               146698               170213DM     1400+00000+DM0000014149+0000014149+000000000+000001983+0000016130+0000000002+I20000000000+0000016130+Z
146698001146698105-001023     146698006003000571406CONTAINER FROSTED 2-TIE0000001000+00002630+00000+0001T   00003507+0008161717          1400 L67210               2AZ
146698002146698566-000359     146698006003000582709STICKER BOOK LOVE SPARK0000001000+00002192+00000+0001T   00002192+0000001717          1400 L67130               2AZ
146698003146698007-000324     14669800600968585864125 SHEETS BRIGHTS MARLI0000001000+00003507+00000+0001T   00003507+0000001717          1400 L67130               2AZ
146698004146698018-005009     146698006001023725608MUG W/PLUSH-BEAR LOVE  0000001000+00003507+00000+0001T   00003507+0000001717          1400 L67515               2AZ
146698005146698112-116038     146698006009681820246TCS CARRIER BAG MIDI   0000001000+00000035+00000+0001T   00000035+0000001717          1400 L67090               2AZ
146698006146698903-000087     146698006001704000161SWT SPECKLED-EGGS 50G  0000002000+00001139+00000+0001T   00001139+0000001717          1400 L67150               2AZ
146699000146699               146699               170213DM     1400+00000+DM0000000876+0000000876+000000000+000000123+0000000990+0000000009+I20000000000+0000000990+Z
146699001146699903-000481     146699006001704007481SWT MOO MILK-SHAKES 60G0000001000+00000876+00000+0001T   00000876+0000001718          1400 L67150               2AZ
146700000146700               146700               170213DM     1400+00000+DM0000008771+0000008771+000000000+000001228+0000009990+0000000009+I20000000000+0000009990+Z
146700001146700368-000665     146700006003000169016PLUSH BEAR 30cm        0000001000+00008771+00000+0001T   00008771+0000001718          1400 L67745               2AZ
146701000146701               146701               170213DM     1400+00000+DM0000010996+0000010996+000000000+000001541+0000012537+0000000000+I40000012537+0000000000+Z
146701001146701046-000400     146701006001023804983BATT ALKALINE 1.5Vx30PC0000001000+00003244+00000+0001T   00003244+0000001721          1400 L67312               2AZ
146701002146701018-050000     146701006003000412679MUG OCC LOVE TWIN BEAR 0000001000+00006139+00000+0001T   00006139+0000001721          1400 L67515               2AZ
146701003146701077-000303     146701006001023593757GIFT-BAG PAPER MED     0000001000+00001578+00000+0001T   00001578+0000001721          1400 L67112               2AZ
146701004146701112-116038     146701006009681820246TCS CARRIER BAG MIDI   0000001000+00000035+00000+0001T   00000035+0000001721          1400 L67090               2AZ
146702000146702               146702               170213DM     1400+00000+DM0000001490+0000001490+000000000+000000209+0000001690+0000000009+I20000000000+0000001690+Z
146702001146702077-000299     146702006003000395576G/BAG 32x25cm LRG LOVE 0000001000+00001490+00000+0001T   00001490+0000001722          1400 L67112               2AZ
146703000146703               146703               170213DM     1400+00000+DM0000004385+0000004385+000000000+000000614+0000004999+0000000000+I40000004999+0000000000+Z
146703001146703031-000851     146703006001023851994P/FRAME COL 4-H 31X17CM0000001000+00004385+00000+0001T   00004385+0000001725          1400 L67510               2AZ
146704000146704               146704               170213DM     1400+00000+DM0000000876+0000000876+000000000+000000123+0000000990+0000000009+I20000000000+0000000990+Z
146704001146704078-000025     146704008887013700064SUPERGLUE 3g 1PCE CARD 0000001000+00000876+00000+0001T   00000876+0000001725          1400 L67810               2AZ
146705000146705               146705               170213DM     1400+00000+DM0000010081+0000010081+000000000+000001414+0000011490+0000000005+I20000000000+0000011490+Z
146705001146705079-000271     146705006003000160082PAINT-BRUSHES LRGE ART 0000001000+00003069+00000+0001T   00003069+0000001727          1400 L67130               2AZ
146705002146705079-000275     146705006003000160488PAINT-BRUSHES 6PCE PRO 0000001000+00001753+00000+0001T   00001753+0000001727          1400 L67130               2AZ
146705003146705492-055609     146705000078257556090EAR-PLUGS+NOSE-CLIP SET0000001000+00001753+00000+0001T   00001753+0000001727          1400 L67787               2AZ
146705004146705079-003000     146705006003000448838A/TUBE 75ML WHITE      0000001000+00001753+00000+0001T   00001753+0000001727          1400 L67130               2AZ
146705005146705079-003001     146705006003000448951A/TUBE 75ML BLACK      0000001000+00001753+00000+0001T   00001753+0000001727          1400 L67130               2AZ
146706000146706               146706               170213DM     1400+00000+DM0000007661+0000007661+000000000+000001075+0000008730+0000000006+I20000000000+0000008730+Z
146706001146706079-013101     146706006001023863706CRAFT SET DIY PIPE-CLNR0000002000+00002630+00000+0001T   00002630+0000001729          1400 L67130               2AZ
146706002146706078-000030     146706006003000151141YAMAYO SUPERGLUE 8g    0000001000+00001753+00000+0001T   00001753+0000001729          1400 L67810               2AZ
146706003146706200-000065     146706006001023323675DRINKING-STRAWS 38PCE  0000001000+00000613+00000+0001T   00000613+0000001729          1400 L67214               2AZ
146706004146706112-116038     146706006009681820246TCS CARRIER BAG MIDI   0000001000+00000035+00000+0001T   00000035+0000001729          1400 L67090               2AZ
146707000146707               146707               170213DM     1400+00000+DM0000001490+0000001490+000000000+000000209+0000001690+0000000009+I20000000000+0000001690+Z
146707001146707028-000796     146707006001023812094SKEWERS 25cm 50PCE 4mm 0000001000+00001490+00000+0001T   00001490+0000001732          1400 L67305               2AZ
146708000146708               146708               170213DM     1400+00000+DM0000005260+0000005260+000000000+000000738+0000005990+0000000008+I20000000000+0000005990+Z
146708001146708562-000010     146708006001023762528KID'S PLAY DOUGH       0000002000+00002630+00000+0001T   00002630+0000001732          1400 L67755               2AZ
146709000146709               146709               170213DM     1400+00000+DM0000014029+0000014029+000000000+000001966+0000015995+0000000000+I40000015995+0000000000+Z
146709001146709075-000419     146709006003000675746BAG SHOPPER NON-WOVEN  0000001000+00002630+00000+0001T   00002630+0000001737          1400 L67160               2AZ
146709002146709041-007029     146709006003000178049H/GLO BUBBLE-BATH 2L   0000001000+00006139+00000+0001T   00006139+0000001737          1400 L67200               2AZ
146709003146709030-004070     146709006003000674381P/WDN SIGN 12X20CM ASS 0000001000+00003507+00000+0001T   00003507+0000001737          1400 L67505               2AZ
146709004146709301-085002     146709006003000420704ORN OCC. LOVE BELL ASST0000001000+00001753+00000+0001T   00002630+0008121737          1400 L67505               2AZ
146710000146710               146710               170213DM     1400+00000+DM0000000876+0000000876+000000000+000000123+0000000990+0000000009+I20000000000+0000000990+Z
146710001146710903-000503     146710006001704006118SWT VAMPIRE FANGS 60G  0000001000+00000876+00000+0001T   00000876+0000001737          1400 L67150               2AZ
146711000146711               146711               170213DM     1400+00000+DM0000003419+0000003419+000000000+000000479+0000003898+0000000000+I40000003898+0000000000+Z
146711001146711077-000245     146711006001023759214GIFT-RIBBON METALLICx2 0000001000+00001227+00000+0001T   00001227+0000001739          1400 L67112               2AZ
146711002146711566-000359     146711006003000582709STICKER BOOK LOVE SPARK0000001000+00002192+00000+0001T   00002192+0000001739          1400 L67130               2AZ
146712000146712               146712               170213DM     1400+00000+DM0000008114+0000008114+000000000+000001137+0000009251+0000000000+I40000009251+0000000000+Z
146712001146712105-001024-A   146712006009654960986CONTAINERS CLEAR 3PCE  0000001000+00001928+00000+0001T   00001928+0000001740          1400 L67210               2AZ
146712002146712020-000141     146712006001023629524STEAK-KNIVES P.P.CARD-60000001000+00004385+00000+0001T   00004385+0000001740          1400 L67300               2AZ
146712003146712112-116069     146712006009681820277TCS CARRIER BAG JUMBO  0000001000+00000048+00000+0001T   00000048+0000001740          1400 L67090               2AZ
146712004146712104-000010     146712006001023507822BASKET 30x23cm RECT.   0000001000+00001753+00000+0001T   00001753+0000001740          1400 L67210               2AZ
A17021300                                          13495368DMSLAVE 2                       L673IC
A17021301                                          14090622DMSLAVE 2                       L673IC
C14663600                                          170213DM261-000912     10160123SLAVE 2     L671IC0000000000+0000000000+0010000001000-
C14663601                                          170213DM562-006275     10160567SLAVE 2     L671IC0000000000+0000000000+0020000001000-
M17021391                              CASH        DMSLAVE 2                       Z-REPORT No.   635TOTAL (Sales - Refunds)           8144.06       CASH TO BE BANKED                 2024.00       DEBIT CARDS                          0.00       CREDIT CARDS                      6120.06       Z-READING                         8144.06       AIRTIME DEBIT CARD SALES             0.00       AIRTIME CARD SALES                   0.00       OVERS/UNDERS                         0.00       AIRTIME CASH SALES                   0.00       GIFT CARDS                           0.00       GIFT CARD CASH SALES                 0.00       T O T A L  CASH PAYOUTS              0.00                                                                                                                                                                                                                                                                                                                                                      Z
M17021392                              CASH        DMABSENT                                                                                                                                                                                          ANNUAL LEAVE                                                                                                                                                                                    DAY OFF                                                                                                                                                                                         COMMENTS                                                                                                                                                                                                                                                                                                                                                                                       Z
Y17021300                                          DM00015900748778+000087
ZDM17021319293 SLAVE 2      SALES DATA                     NEXT INVOICE NO.  146713 0635
X DM Slave 2 First invoice 146625 170213 Last invoice 146712 170213 Next invoice 146713 Total number of records 000000358 clbackup completed 19:29:58
