186337000186337               186337               170213DO     1400+00000+DO0000001753+0000001753+000000000+000000246+0000001990+0000000009+I20000000000+0000001990+Z
186337001186337051-002406     186337006003000139415SPRAY PL TRIGGER 700ml 0000001000+00001753+00000+0001T   00001753+0000000848          1400 HY7820               1DZ
186338000186338               186338               170213DO     1400+00000+DO0000004207+0000004207+000000000+000000590+0000004790+0000000007+I20000000000+0000004790+Z
186338001186338077-000303     186338006001023593757GIFT-BAG PAPER MED     0000001000+00001578+00000+0001T   00001578+0000000906          1400 HY7112               1DZ
186338002186338077-000011-C   186338006001023808523TISSUE 10xSHTS RED     0000001000+00000876+00000+0001T   00000876+0000000906          1400 HY7112               1DZ
186338003186338080-000123     186338006003000237722CARD&ENVELOPE-SYMPATHY 0000001000+00001753+00000+0001T   00001753+0000000906          1400 HY7112               1DZ
186339000186339               186339               170213DO     1400+00000+DO0000001137+0000001137+000000000+000000160+0000001290+0000000007+I20000000000+0000001290+Z
186339001186339018-000177     186339006001023797513MUG MINI LOVE ASSTD    0000001000+00000700+00000+0001T   00000700+0000000908          1400 HY7515               1DZ
186339002186339080-000133-A   186339006003000647019MINI VALENTINES CARD   0000001000+00000437+00000+0001T   00000437+0000000908          1400 HY7112               1DZ
186340000186340               186340               170213DO     1400+00000+DO0000003152+0000003152+000000000+000000444+0000003596+0000000000+I40000003596+0000000000+Z
186340001186340903-000200     186340006009826020234SWT CHOC RP CHOCO 23G  0000004000+00000788+00000+0001T   00000788+0000000910          1400 HY7150               1DZ
186341000186341               186341               170213DO     1400+00000+DO0000009867+0000009867+000000000+000001384+0000011251+0000000000+I40000011251+0000000000+Z
186341001186341463-000366     186341006001023789136SWIM W/NOODLE 150cm    0000002000+00002630+00000+0001T   00002630+0000000919          1400 HY7785               1DZ
186341002186341089-000141-H   186341006001023416568KEY-CHAINS 6PCE     H&H0000001000+00001490+00000+0001T   00001490+0000000919          1400 HY7205               1DZ
186341003186341174-000015     186341006003000559060LAUNDRY BAG LARGE 68x520000001000+00003069+00000+0001T   00003069+0000000919          1400 HY7205               1DZ
186341004186341112-116069     186341006009681820277TCS CARRIER BAG JUMBO  0000001000+00000048+00000+0001T   00000048+0000000919          1400 HY7090               1DZ
186342000186342               186342               170213DO     1400+00000+DO0000007413+0000007413+000000000+000001039+0000008452+0000000000+I40000008452+0000000000+Z
186342001186342018-050000     186342006003000412679MUG OCC LOVE TWIN BEAR 0000001000+00006139+00000+0001T   00006139+0000000922          1400 HY7515               1DZ
186342002186342304-001011     186342006001023806727FLWR ROSE RED W/BEAR   0000002000+00000613+00000+0001T   00000788+0006470922          1400 HY7510               1DZ
186342003186342112-116069     186342006009681820277TCS CARRIER BAG JUMBO  0000001000+00000048+00000+0001T   00000048+0000000922          1400 HY7090               1DZ
186343000186343               186343               170213DO     1400+00000+DO0000018719+0000018719+000000000+000002625+0000021344+0000000000+I40000021344+0000000000+Z
186343001186343158-008328     186343006001023595713SOAP-DISH CHR OVAL     0000001000+00003069+00000+0001T   00003069+0000000927          1400 HY7300               1DZ
186343002186343027-000091     186343006003000343966WINDOW CLEANER 22CM    0000001000+00001753+00000+0001T   00001753+0000000927          1400 HY7212               1DZ
186343003186343106-008105     186343006009654960566S/DRESSING BOTTLE 500ml0000001000+00001490+00000+0001T   00001490+0000000927          1400 HY7210               1DZ
186343004186343006-000804     186343006003000574445STREAMERS 6-ROLLS 2.5cm0000001000+00001753+00000+0001T   00001753+0000000927          1400 HY7131               1DZ
186343005186343039-000336     186343006001023169129B'DAY-CANDLES MAGIC 10P0000001000+00000964+00000+0001T   00000964+0000000927          1400 HY7510               1DZ
186343006186343002-011120     186343006003000099559EGG CUP SILICONE KIDDIE0000002000+00000876+00000+0001T   00001314+0008120927          1400 HY7300               1DZ
186343007186343084-060100     186343006003000092710TWEEZERS SCISSORS 8CM  0000001000+00001753+00000+0001T   00001753+0000000927          1400 HY7200               1DZ
186343008186343027-056186     186343006003000638215DISH BRUSH DUCK DESIGN 0000001000+00002630+00000+0001T   00002630+0000000927          1400 HY7212               1DZ
186343009186343133-000017     186343006003000525171CLEANING-CLOTHS 5PCE   0000001000+00003507+00000+0001T   00003507+0000000927          1400 HY7212               1DZ
186343010186343112-116069     186343006009681820277TCS CARRIER BAG JUMBO  0000001000+00000048+00000+0001T   00000048+0000000927          1400 HY7090               1DZ
186344000186344               186344               170213DO     1400+00000+DO0000012625+0000012625+000000000+000001770+0000014395+0000000000+I40000014395+0000000000+Z
186344001186344088-000108     186344006001023765536POTPOURRI-OIL 10ml ASST0000002000+00001753+00000+0001T   00001753+0000000930          1400 HY7212               1DZ
186344002186344564-000015     186344006003000140862BUBBLE TEST TUBE       0000001000+00001753+00000+0001T   00001753+0000000930          1400 HY7131               1DZ
186344003186344022-002109     186344006001023501745MUG 6cm DEC            0000001000+00001227+00000+0001T   00001227+0000000930          1400 HY7305               1DZ
186344004186344486-000010     186344006001023544254WALL-CLOCK ROUND 25cm  0000001000+00006139+00000+0001T   00006139+0000000930          1400 HY7510               1DZ
186345000186345               186345               170213DO     1400+00000+DO0000014911+0000014911+000000000+000002088+0000016990+0000000009+I20000000000+0000016990+Z
186345001186345031-007003     186345006003000462834P/FRAME WDN DIST. COLL.0000001000+00014911+00000+0001T   00014911+0000000934          1400 HY7510               1DZ
186346000186346               186346               170213DO     1400+00000+DO0000009646+0000009646+000000000+000001352+0000010990+0000000008+I20000000000+0000010990+Z
186346001186346563-000317-C   186346006001023776204SERVIETTES 20PK  FLOWER0000001000+00002630+00000+0001T   00002630+0000000941          1400 HY7214               1DZ
186346002186346174-000302     186346006003000053353TRAVEL SHOULDER BAG    0000001000+00007016+00000+0001T   00007016+0000000941          1400 HY7205               1DZ
186347000186347               186347               170213DO     1400+00000+DO0000010259+0000010259+000000000+000001438+0000011697+0000000000+I40000011697+0000000000+Z
186347001186347077-000384     186347006003000275243G/BAG HOT STMP 18x23CM 0000001000+00001490+00000+0001T   00001490+0000000947          1400 HY7112               1DZ
186347002186347368-000175     186347006003000270316PLUSH BEAR 4 ASSTD 18CM0000001000+00006139+00000+0001T   00006139+0000000947          1400 HY7745               1DZ
186347003186347463-000366     186347006001023789136SWIM W/NOODLE 150cm    0000001000+00002630+00000+0001T   00002630+0000000947          1400 HY7785               1DZ
186348000186348               186348               170213DO     1400+00000+DO0000061445+0000061445+000000000+000008603+0000070040+0000000008+I20000000000+0000070040+Z
186348001186348019-000080     186348006001023775740VASE GLS FLORIST BALL  0000004000+00008771+00000+0001T   00008771+0000000949          1400 HY7510               1DZ
186348002186348039-000799     186348006001023692382CANDLES TEALITE 100PCE 0000002000+00008771+00000+0001T   00008771+0000000949          1400 HY7510               1DZ
186348003186348019-000040     186348006001023673640VASE GLS 30CM CYLINDER 0000001000+00008771+00000+0001T   00008771+0000000949          1400 HY7510               1DZ
186348004186348112-116069     186348006009681820277TCS CARRIER BAG JUMBO  0000001000+00000048+00000+0001T   00000048+0000000949          1400 HY7090               1DZ
186349000186349               186349               170213DO     1400+00000+DO0000028063+0000028063+000000000+000003935+0000031998+0000000000+I40000031998+0000000000+Z
186349001186349112-116069     186349006009681820277TCS CARRIER BAG JUMBO  0000001000+00000048+00000+0001T   00000048+0000000952          1400 HY7090               1DZ
186349002186349903-000200     186349006009826020234SWT CHOC RP CHOCO 23G  0000001000+00000788+00000+0001T   00000788+0000000952          1400 HY7150               1DZ
186349003186349105-001079     186349000700371655921CONTAINER 2.2L CLIP LOC0000001000+00002455+00000+0001T   00002455+0000000952          1400 HY7210               1DZ
186349004186349027-783002     186349006001023874658SCOURERS FOAM PACK OF 30000001000+00001490+00000+0001T   00001490+0000000952          1400 HY7212               1DZ
186349005186349159-000653     186349006001023688859BATH-SPONGE MESH W/ROPE0000002000+00001753+00000+0001T   00001753+0000000952          1400 HY7200               1DZ
186349006186349084-000895     186349006003000576968NAIL FILES 4PC INCL    0000001000+00002630+00000+0001T   00002630+0000000952          1400 HY7200               1DZ
186349007186349077-000305     186349006003000395422GIFT-BAG WINE 10X35CM  0000001000+00001490+00000+0001T   00001490+0000000952          1400 HY7112               1DZ
186349008186349133-000009     186349006003000060726KITCHEN SWAB 3PC M/FIBR0000001000+00003507+00000+0001T   00003507+0000000952          1400 HY7212               1DZ
186349009186349133-000086     186349006003000221929D/CLOTHS CTN 65g PK-3  0000001000+00007893+00000+0001T   00007893+0000000952          1400 HY7212               1DZ
186349010186349112-116069     186349006009681820277TCS CARRIER BAG JUMBO  0000001000+00000048+00000+0001T   00000048+0000000952          1400 HY7090               1DZ
186349011186349133-000010     186349006001023905215CLEANING CLOTHS 6PCE   0000001000+00001753+00000+0001T   00001753+0000000952          1400 HY7212               1DZ
186349012186349105-001079     186349000700371655921CONTAINER 2.2L CLIP LOC0000001000+00002455+00000+0001T   00002455+0000000952          1400 HY7210               1DZ
186350000186350               186350               170213DO     1400+00000+DO0000003933+0000003933+000000000+000000558+0000004491+0000000000+I40000004491+0000000000+Z
186350001186350080-000133     186350006003000535613CARD&ENV MINI ASTD DSGN0000009000+00000437+00000+0001T   00000437+0000000955          1400 HY7112               1DZ
186351000186351               186351               170213DO     1400+00000+DO0000008329+0000008329+000000000+000001167+0000009496+0000000000+I40000009496+0000000000+Z
186351001186351024-091102     186351006003453000010BAKING-CUP PAPER 50PC  0000002000+00002192+00000+0001T   00002192+0000001013          1400 HY7300               1DZ
186351002186351024-091103     186351006003453014307BAKING-CUP MUFFIN 50PCE0000001000+00002192+00000+0001T   00002192+0000001013          1400 HY7300               1DZ
186351003186351024-091100     186351006001023914224BAKING-CUPS PAPER 100PC0000001000+00001753+00000+0001T   00001753+0000001013          1400 HY7300               1DZ
186352000186352               186352               170213DO     1400+00000+DO0000004385+0000004385+000000000+000000614+0000004990+0000000009+I20000000000+0000004990+Z
186352001186352082-007587     186352006003000654338SUNGLASS DESIGNER ASST 0000001000+00004385+00000+0001T   00004385+0000001018          1400 HY7160               1DZ
186353000186353               186353               170213DO     1400+00000+DO0000004385+0000004385+000000000+000000614+0000004990+0000000009+I20000000000+0000004990+Z
186353001186353079-001001     186353006003000448593CANVAS A3 WOOD MOUNTED 0000001000+00004385+00000+0001T   00004385+0000001020          1400 HY7130               1DZ
186354000186354               186354               170213DO     1400+00000+DO0000005608+0000005608+000000000+000000786+0000006390+0000000004+I20000000000+0000006390+Z
186354001186354077-000380     186354006003000247585GIFT-BAG 33X45CM S/COL 0000001000+00002455+00000+0001T   00002455+0000001021          1400 HY7112               1DZ
186354002186354077-000011-Y   186354006001023809858TISSUE-WRAP GOLD 10PCE 0000001000+00001753+00000+0001T   00001753+0000001021          1400 HY7112               1DZ
186354003186354018-000177     186354006001023797513MUG MINI LOVE ASSTD    0000002000+00000700+00000+0001T   00000700+0000001021          1400 HY7515               1DZ
186355000186355               186355               170213DO     1400+00000+DO0000002192+0000002192+000000000+000000307+0000002490+0000000009+I20000000000+0000002490+Z
186355001186355080-000127     186355006003000424351VALENTINES DAY 36x24CM 0000001000+00002192+00000+0001T   00002192+0000001024          1400 HY7112               1DZ
186356000186356               186356               170213DO     1400+00000+DO0000007452+0000007452+000000000+000001045+0000008490+0000000007+I20000000000+0000008490+Z
186356001186356200-000208     186356006003000293728BAKING ALUM FOIL 5PCE  0000001000+00002630+00000+0001T   00002630+0000001027          1400 HY7214               1DZ
186356002186356200-000230     186356006008766126990BAKEPANS 5PC RND 23x3cm0000001000+00002630+00000+0001T   00002630+0000001027          1400 HY7214               1DZ
186356003186356200-000200     186356006008766091144BAKING ALUM FOIL 2PCE  0000001000+00002192+00000+0001T   00002192+0000001027          1400 HY7214               1DZ
186357000186357               186357               170213DO     1400+00000+DO0000000876+0000000876+000000000+000000123+0000000990+0000000009+I20000000000+0000000990+Z
186357001186357078-000025     186357008887013700064SUPERGLUE 3g 1PCE CARD 0000001000+00000876+00000+0001T   00000876+0000001044          1400 HY7810               1DZ
186358000186358               186358               170213DO     1400+00000+DO0000004385+0000004385+000000000+000000614+0000004990+0000000009+I20000000000+0000004990+Z
186358001186358082-000110     186358006003000360482READING GLS STRENGHT:2 0000001000+00004385+00000+0001T   00004385+0000001045          1400 HY7160               1DZ
186359000186359               186359               170213DO     1400+00000+DO0000003555+0000003555+000000000+000000498+0000004053+0000000000+I40000004053+0000000000+Z
186359001186359036-000160     186359006001023559562COATHANGERS 12PCE      0000001000+00003507+00000+0001T   00003507+0000001052          1400 HY7212               1DZ
186359002186359112-116069     186359006009681820277TCS CARRIER BAG JUMBO  0000001000+00000048+00000+0001T   00000048+0000001052          1400 HY7090               1DZ
186360000186360               186360               170213DO     1400+00000+DO0000001227+0000001227+000000000+000000172+0000001399+0000000000+I40000001399+0000000000+Z
186360001186360071-081091     186360006001151010287STAED/GENKEM ALL-STICK 0000001000+00001227+00000+0001T   00001227+0000001054          1400 HY7130               1DZ
186361000186361               186361               170213DO     1400+00000+DO0000002240+0000002240+000000000+000000314+0000002554+0000000000+I40000002554+0000000000+Z
186361001186361002-000684     186361006001023693778K/TOOL TURNER H/HOUSE  0000001000+00002192+00000+0001T   00002192+0000001100          1400 HY7300               1DZ
186361002186361112-116069     186361006009681820277TCS CARRIER BAG JUMBO  0000001000+00000048+00000+0001T   00000048+0000001100          1400 HY7090               1DZ
186362000186362               186362               170213DO     1400+00000+DO0000004820+0000004820+000000000+000000676+0000005496+0000000000+I40000005496+0000000000+Z
186362001186362077-000384     186362006003000275243G/BAG HOT STMP 18x23CM 0000001000+00001490+00000+0001T   00001490+0000001101          1400 HY7112               1DZ
186362002186362018-000177     186362006001023797513MUG MINI LOVE ASSTD    0000001000+00000700+00000+0001T   00000700+0000001101          1400 HY7515               1DZ
186362003186362206-000110     186362006003000628186CHOPSTICKS PLASTIC KIDS0000001000+00002630+00000+0001T   00002630+0000001101          1400 HY7321               1DZ
186363000186363               186363               170213DO     1400+00000+DO0000003803+0000003803+000000000+000000534+0000004337+0000000000+I40000004337+0000000000+Z
186363001186363018-000127     186363006001023380289MUG OCC STRAIGHT LOVE  0000001000+00001578+00000+0001T   00001753+0006471105          1400 HY7515               1DZ
186363002186363903-000200     186363006009826020234SWT CHOC RP CHOCO 23G  0000001000+00000788+00000+0001T   00000788+0000001105          1400 HY7150               1DZ
186363003186363304-001204     186363006001023737984FLOWER OCC. TEDDY/ROSES0000001000+00001402+00000+0001T   00001490+0006471105          1400 HY7510               1DZ
186363004186363112-116038     186363006009681820246TCS CARRIER BAG MIDI   0000001000+00000035+00000+0001T   00000035+0000001105          1400 HY7090               1DZ
186364000186364               186364               170213DO     1400+00000+DO0000004592+0000004592+000000000+000000644+0000005230+0000000006+I20000000000+0000005230+Z
186364001186364251-000040     186364006001023515865SEALTAPE CLEAR 48mmx50m0000003000+00001227+00000+0001T   00001227+0000001105          1400 HY7810               1DZ
186364002186364071-001012     186364006001023474445MARKERS BLACK ROUND    0000001000+00000876+00000+0001T   00000876+0000001105          1400 HY7130               1DZ
186364003186364112-116038     186364006009681820246TCS CARRIER BAG MIDI   0000001000+00000035+00000+0001T   00000035+0000001105          1400 HY7090               1DZ
186365000186365               186365               170213DO     1400+00000+DO0000006516+0000006516+000000000+000000913+0000007429+0000000000+I40000007429+0000000000+Z
186365001186365018-000177     186365006001023797513MUG MINI LOVE ASSTD    0000004000+00000700+00000+0001T   00000700+0000001112          1400 HY7515               1DZ
186365002186365089-060027     186365006003000245871KEY-CHAIN HEART 6X6cm  0000001000+00003069+00000+0001T   00003069+0000001112          1400 HY7205               1DZ
186365003186365079-009700-A   186365006003000547746PAPER SIRIO A4 BLACK   0000001000+00000306+00000+0001T   00000306+0000001112          1400 HY7130               1DZ
186365004186365079-009700-B   186365006003000547661PAPER SIRIO A4 WHITE   0000001000+00000306+00000+0001T   00000306+0000001112          1400 HY7130               1DZ
186365005186365112-116038     186365006009681820246TCS CARRIER BAG MIDI   0000001000+00000035+00000+0001T   00000035+0000001112          1400 HY7090               1DZ
186366000186366               186366               170213DO     1400+00000+DO0000003069+0000003069+000000000+000000430+0000003490+0000000009+I20000000000+0000003490+Z
186366001186366133-000001     186366006003000329342CLEANING CLOTHS 3-PK   0000001000+00003069+00000+0001T   00003069+0000001113          1400 HY7212               1DZ
186367000186367               186367               170213DO     1400+00000+DO0000006186+0000006186+000000000+000000867+0000007050+0000000003+I20000000000+0000007050+Z
186367001186367032-000334     186367006003000352395MIRROR HAND PL 23X31CM 0000001000+00004385+00000+0001T   00004385+0000001116          1400 HY7510               1DZ
186367002186367107-002117     186367006002580008890BASIN PL 32cm(VIRGIN)4L0000001000+00001753+00000+0001T   00001753+0000001116          1400 HY7210               1DZ
186367003186367112-116069     186367006009681820277TCS CARRIER BAG JUMBO  0000001000+00000048+00000+0001T   00000048+0000001116          1400 HY7090               1DZ
186368000186368               186368               170213DO     1400+00000+DO0000004120+0000004120+000000000+000000578+0000004690+0000000008+I20000000000+0000004690+Z
186368001186368036-000151     186368006001023810588COATHANGERS    PACK-10 0000001000+00002893+00000+0001T   00002893+0000001117          1400 HY7212               1DZ
186368002186368133-000030     186368006001023755414KITCHEN-SWAB 30cm ASSTD0000001000+00001227+00000+0001T   00001227+0000001117          1400 HY7212               1DZ
186369000186369               186369               170213DO     1400+00000+DO0000014030+0000014030+000000000+000001965+0000015995+0000000000+I40000015995+0000000000+Z
186369001186369562-058911     186369006001023705778EDU MAGNETIC UPPER CASE0000002000+00003507+00000+0001T   00003507+0000001118          1400 HY7755               1DZ
186369002186369562-006275     186369006001023836182EDU BOARD W/MARKER ASST0000001000+00007016+00000+0001T   00007016+0000001118          1400 HY7755               1DZ
186370000186370               186370               170213DO     1400+00000+DO0000004330+0000004330+000000000+000000607+0000004930+0000000007+I20000000000+0000004930+Z
186370001186370018-000136     186370006001023659026MUG OCC LOVE W/PLUSH   0000001000+00003507+00000+0001T   00003507+0000001119          1400 HY7515               1DZ
186370002186370903-000200     186370006009826020234SWT CHOC RP CHOCO 23G  0000001000+00000788+00000+0001T   00000788+0000001119          1400 HY7150               1DZ
186370003186370112-116038     186370006009681820246TCS CARRIER BAG MIDI   0000001000+00000035+00000+0001T   00000035+0000001119          1400 HY7090               1DZ
186371000186371               186371               170213DO     1400+00000+DO0000013195+0000013195+000000000+000001852+0000015047+0000000000+I40000015047+0000000000+Z
186371001186371112-116069     186371006009681820277TCS CARRIER BAG JUMBO  0000001000+00000048+00000+0001T   00000048+0000001138          1400 HY7090               1DZ
186371002186371106-001118     186371006009654960320WATER BOTTLE PL 500ml  0000005000+00002016+00000+0001T   00002016+0000001138          1400 HY7210               1DZ
186371003186371034-000329     186371006001023564290BOTTLE-BRUSHES WHT 2PCE0000001000+00001314+00000+0001T   00001314+0000001138          1400 HY7215               1DZ
186371004186371105-001255     186371006003000573110CONTAINER FROSTED 1400m0000001000+00001753+00000+0001T   00001753+0000001138          1400 HY7210               1DZ
186372000186372               186372               170213DO     1400+00000+DO0000009152+0000009152+000000000+000001284+0000010436+0000000000+I40000010436+0000000000+Z
186372001186372031-086219-B   186372006001023808875P/FRAME 10x15cm CURVED 0000003000+00002630+00000+0001T   00002630+0000001201          1400 HY7510               1DZ
186372002186372071-081091     186372006001151010287STAED/GENKEM ALL-STICK 0000001000+00001227+00000+0001T   00001227+0000001201          1400 HY7130               1DZ
186372003186372112-116038     186372006009681820246TCS CARRIER BAG MIDI   0000001000+00000035+00000+0001T   00000035+0000001201          1400 HY7090               1DZ
186373000186373               186373               170213DO     1400+00000+DO0000004294+0000004294+000000000+000000602+0000004896+0000000000+I40000004896+0000000000+Z
186373001186373077-000299     186373006003000395576G/BAG 32x25cm LRG LOVE 0000002000+00001490+00000+0001T   00001490+0000001202          1400 HY7112               1DZ
186373002186373077-000310     186373006001023608635GIFT-BAG 18X23CM GLOSS 0000001000+00001314+00000+0001T   00001314+0000001202          1400 HY7112               1DZ
186374000186374               186374               170213DO     1400+00000+DO0000001576+0000001576+000000000+000000222+0000001790+0000000008+I20000000000+0000001790+Z
186374001186374903-000200     186374006009826020234SWT CHOC RP CHOCO 23G  0000002000+00000788+00000+0001T   00000788+0000001216          1400 HY7150               1DZ
186375000186375               186375               170213DO     1400+00000+DO0000002059+0000002059+000000000+000000289+0000002340+0000000008+I20000000000+0000002340+Z
186375001186375079-009700-D   186375006003000545711PAPER SIRIO A4 RED COL.0000001000+00000306+00000+0001T   00000306+0000001218          1400 HY7130               1DZ
186375002186375077-000308     186375006001023595812GIFT-BAG 33X45CM E/DAY 0000001000+00001753+00000+0001T   00001753+0000001218          1400 HY7112               1DZ
186376000186376               186376               170213DO     1400+00000+DO0000003243+0000003243+000000000+000000455+0000003690+0000000008+I20000000000+0000003690+Z
186376001186376077-000289     186376006001023901996GIFT BOX 20x25x11cm    0000001000+00001753+00000+0001T   00001753+0000001219          1400 HY7112               1DZ
186376002186376077-000299     186376006003000395576G/BAG 32x25cm LRG LOVE 0000001000+00001490+00000+0001T   00001490+0000001219          1400 HY7112               1DZ
186377000186377               186377               170213DO     1400+00000+DO0000002366+0000002366+000000000+000000332+0000002690+0000000008+I20000000000+0000002690+Z
186377001186377903-000200     186377006009826020234SWT CHOC RP CHOCO 23G  0000001000+00000788+00000+0001T   00000788+0000001221          1400 HY7150               1DZ
186377002186377080-000124     186377006003000297733CARD & ENV VALENTINES  0000001000+00001578+00000+0001T   00001578+0000001221          1400 HY7112               1DZ
186378000186378               186378               170213DO     1400+00000+DO0000004208+0000004208+000000000+000000590+0000004790+0000000008+I20000000000+0000004790+Z
186378001186378304-001126     186378006001023845047FLWR BUNCH GERBERA 31cm0000001000+00002630+00000+0001T   00002630+0000001228          1400 HY7510               1DZ
186378002186378078-013424     186378006008741000338CONTACT-ADHESIVE 50ml  0000001000+00001578+00000+0001T   00001578+0000001228          1400 HY7810               1DZ
186379000186379               186379               170213DO     1400+00000+DO0000006139-0000006139-000000000+000000860-0000007000-0000000001+I20000000000+0000007000-Z
186379001186379486-001004     186379006001023800039ALARM 3-FUNCTN  7x4.5cm0000001000-00006139+00000+0001T   00006139+0000001231          1400 HY75101IC            1 Z
186380000186380               186380               170213DO     1400+00000+DO0000013022+0000013022+000000000+000001827+0000014840+0000000009+I20000000000+0000014840+Z
186380001186380200-003026     186380006003000276448REFUSE BAGS 10PCE GREEN0000003000+00001753+00000+0001T   00001753+0000001232          1400 HY7214               1DZ
186380002186380079-000510     186380006001023509079CRAYONS WAX 12-COLOUR  0000001000+00002455+00000+0001T   00002455+0000001232          1400 HY7130               1DZ
186380003186380079-000270     186380006001023886071ARTIST APRON-SET 3PCE  0000001000+00002630+00000+0001T   00002630+0000001232          1400 HY7130               1DZ
186380004186380562-000010     186380006001023762528KID'S PLAY DOUGH       0000001000+00002630+00000+0001T   00002630+0000001232          1400 HY7755               1DZ
186380005186380112-116069     186380006009681820277TCS CARRIER BAG JUMBO  0000001000+00000048+00000+0001T   00000048+0000001232          1400 HY7090               1DZ
186381000186381               186381               170213DO     1400+00000+DO0000002366+0000002366+000000000+000000332+0000002690+0000000008+I20000000000+0000002690+Z
186381001186381464-000031     186381006003000647439GAME TIC TAC TOE       0000001000+00000876+00000+0001T   00000876+0000001233          1400 HY7785               1DZ
186381002186381140-001004     186381006001023880932FLY-RIBBONS 4PCE PL    0000001000+00001490+00000+0001T   00001490+0000001233          1400 HY7830               1DZ
186382000186382               186382               170213DO     1400+00000+DO0000002677+0000002677+000000000+000000376+0000003050+0000000003+I20000000000+0000003050+Z
186382001186382077-000011-F   186382006001023808431TISSUE-WRAP BLUE/LILAC 0000001000+00000876+00000+0001T   00000876+0000001234          1400 HY7112               1DZ
186382002186382077-000457     186382006003000285662G/BAG METALLIC JMB SOL 0000001000+00001753+00000+0001T   00001753+0000001234          1400 HY7112               1DZ
186382003186382112-116069     186382006009681820277TCS CARRIER BAG JUMBO  0000001000+00000048+00000+0001T   00000048+0000001234          1400 HY7090               1DZ
186383000186383               186383               170213DO     1400+00000+DO0000002364+0000002364+000000000+000000333+0000002690+0000000007+I20000000000+0000002690+Z
186383001186383903-000200     186383006009826020234SWT CHOC RP CHOCO 23G  0000003000+00000788+00000+0001T   00000788+0000001244          1400 HY7150               1DZ
186384000186384               186384               170213DO     1400+00000+DO0000005260+0000005260+000000000+000000737+0000005997+0000000000+I40000005997+0000000000+Z
186384001186384039-001023     186384006003000466337CANDLE TEA-LITE METALIC0000001000+00001753+00000+0001T   00001753+0000001245          1400 HY7510               1DZ
186384002186384039-091783     186384006003000275434 CANDLE VOTIVE 4PC 50G 0000001000+00003507+00000+0001T   00003507+0000001245          1400 HY7510               1DZ
186385000186385               186385               170213DO     1400+00000+DO0000006866+0000006866+000000000+000000965+0000007830+0000000001+I20000000000+0000007830+Z
186385001186385018-000127     186385006001023380289MUG OCC STRAIGHT LOVE  0000001000+00001578+00000+0001T   00001753+0006471247          1400 HY7515               1DZ
186385002186385030-000010     186385006003000084395P/DOOR HANGER 2-ASSTD  0000001000+00001314+00000+0001T   00001490+0008181247          1400 HY7505               1DZ
186385003186385903-000200     186385006009826020234SWT CHOC RP CHOCO 23G  0000003000+00000788+00000+0001T   00000788+0000001247          1400 HY7150               1DZ
186385004186385903-000155     186385006009803374435SWT LOLLY I LUV U HEART0000003000+00000525+00000+0001T   00000525+0000001247          1400 HY7150               1DZ
186385005186385112-116038     186385006009681820246TCS CARRIER BAG MIDI   0000001000+00000035+00000+0001T   00000035+0000001247          1400 HY7090               1DZ
186386000186386               186386               170213DO     1400+00000+DO0000003942+0000003942+000000000+000000552+0000004494+0000000000+I40000004494+0000000000+Z
186386001186386903-000194     186386006009826020616SWT CHOC RP LOLLY 25G  0000003000+00001314+00000+0001T   00001314+0000001250          1400 HY7150               1DZ
186387000186387               186387               170213DO     1400+00000+DO0000003506+0000003506+000000000+000000492+0000003990+0000000008+I20000000000+0000003990+Z
186387001186387089-000004     186387006003000137749KEY CHAIN MTL CHARMS   0000002000+00001753+00000+0001T   00001753+0000001336          1400 HY7205               1DZ
186388000186388               186388               170213DO     1400+00000+DO0000002102+0000002102+000000000+000000295+0000002390+0000000007+I20000000000+0000002390+Z
186388001186388903-000200     186388006009826020234SWT CHOC RP CHOCO 23G  0000001000+00000788+00000+0001T   00000788+0000001336          1400 HY7150               1DZ
186388002186388080-000114     186388006003000246472CARD&ENV LOVE-MUSICAL  0000001000+00001314+00000+0001T   00001753+0008151336          1400 HY7112               1DZ
186389000186389               186389               170213DO     1400+00000+DO0000013904+0000013904+000000000+000001947+0000015851+0000000000+I40000015851+0000000000+Z
186389001186389018-000177     186389006001023797513MUG MINI LOVE ASSTD    0000001000+00000700+00000+0001T   00000700+0000001454          1400 HY7515               1DZ
186389002186389001-000175     186389006001023788108B/MUG GLS LOVE 380ML   0000001000+00004385+00000+0001T   00004385+0000001454          1400 HY7515               1DZ
186389003186389001-091415     186389006003000329113W/GLS OCC. LOVE 2PC 2800000001000+00008771+00000+0001T   00009648+0006471454          1400 HY7515               1DZ
186389004186389112-116069     186389006009681820277TCS CARRIER BAG JUMBO  0000001000+00000048+00000+0001T   00000048+0000001454          1400 HY7090               1DZ
186390000186390               186390               170213DO     1400+00000+DO0000015787+0000015787+000000000+000002211+0000017998+0000000000+I40000017998+0000000000+Z
186390001186390019-000050     186390006001023673749VASE GLS FOOTED WINE   0000001000+00013157+00000+0001T   00013157+0000001455          1400 HY7510               1DZ
186390002186390077-000316-A   186390006003000681457GIFT-BAG METALLIC PPR  0000001000+00002630+00000+0001T   00002630+0000001455          1400 HY7112               1DZ
186391000186391               186391               170213DO     1400+00000+DO0000006576+0000006576+000000000+000000921+0000007490+0000000007+I20000000000+0000007490+Z
186391001186391031-000868-A   186391006001023798534P/FRAME PL BLCK 10X15CM0000003000+00002192+00000+0001T   00002192+0000001456          1400 HY7510               1DZ
186392000186392               186392               170213DO     1400+00000+DO0000002192+0000002192+000000000+000000307+0000002490+0000000009+I20000000000+0000002490+Z
186392001186392031-000868-A   186392006001023798534P/FRAME PL BLCK 10X15CM0000001000+00002192+00000+0001T   00002192+0000001459          1400 HY7510               1DZ
186393000186393               186393               170213DO     1400+00000+DO0000019340+0000019340+000000000+000002710+0000022050+0000000000+I20000000000+0000022050+Z
186393001186393019-000079     186393006001023775726VASE 30cm CRACK-DESIGN 0000001000+00012279+00000+0001T   00012279+0000001508          1400 HY7510               1DZ
186393002186393077-000926     186393006003000414178G/WRAP 700mmx2m LOVE   0000001000+00002192+00000+0001T   00002192+0000001508          1400 HY7112               1DZ
186393003186393077-000011-E   186393006001023808646TISSUE-WRAP PINK 10PCE 0000001000+00000876+00000+0001T   00000876+0000001508          1400 HY7112               1DZ
186393004186393077-000354     186393006003000139224GIFT-BAG 25X32CM H/MADE0000001000+00001753+00000+0001T   00001753+0000001508          1400 HY7112               1DZ
186393005186393112-116069     186393006009681820277TCS CARRIER BAG JUMBO  0000001000+00000048+00000+0001T   00000048+0000001508          1400 HY7090               1DZ
186393006186393018-000170     186393006001023775528MUG OCC. LOVE 2PC MINI 0000001000+00002192+00000+0001T   00002192+0000001508          1400 HY7515               1DZ
186394000186394               186394               170213DO     1400+00000+DO0000017498+0000017498+000000000+000002451+0000019949+0000000000+I40000019949+0000000000+Z
186394001186394082-000110     186394006003000360482READING GLS STRENGHT:2 0000001000+00004385+00000+0001T   00004385+0000001511          1400 HY7160               1DZ
186394002186394080-000114     186394006003000246472CARD&ENV LOVE-MUSICAL  0000001000+00001314+00000+0001T   00001753+0008151511          1400 HY7112               1DZ
186394003186394077-000305     186394006003000395422GIFT-BAG WINE 10X35CM  0000001000+00001490+00000+0001T   00001490+0000001511          1400 HY7112               1DZ
186394004186394368-000614     186394006001023705808PLUSH LOVE 30cm        0000001000+00008771+00000+0001T   00008771+0000001511          1400 HY7745               1DZ
186394005186394077-000299     186394006003000395576G/BAG 32x25cm LRG LOVE 0000001000+00001490+00000+0001T   00001490+0000001511          1400 HY7112               1DZ
186394006186394112-116069     186394006009681820277TCS CARRIER BAG JUMBO  0000001000+00000048+00000+0001T   00000048+0000001511          1400 HY7090               1DZ
186395000186395               186395               170213DO     1400+00000+DO0000003068+0000003068+000000000+000000430+0000003490+0000000008+I20000000000+0000003490+Z
186395001186395903-002900     186395005996071650648QUICK MILK 5 CHOCO 5PC 0000001000+00001578+00000+0001T   00001578+0000001511          1400 HY7150               1DZ
186395002186395007-000208     186395006001023582096NOTE-PAD S/STICK 100'S 0000001000+00001490+00000+0001T   00001490+0000001511          1400 HY7130               1DZ
186396000186396               186396               170213DO     1400+00000+DO0000005260+0000005260+000000000+000000738+0000005990+0000000008+I20000000000+0000005990+Z
186396001186396562-000504     186396006001023619327EDU CUBE RUBIX         0000002000+00002630+00000+0001T   00002630+0000001528          1400 HY7755               1DZ
186397000186397               186397               170213DO     1400+00000+DO0000002234+0000002234+000000000+000000314+0000002540+0000000008+I20000000000+0000002540+Z
186397001186397071-000012     186397006001177101006CHALK COLOUR 12PCE     0000001000+00000481+00000+0001T   00000481+0000001528          1400 HY7130               1DZ
186397002186397079-000623     186397006001023836274CHALK MARBLE 5PCE      0000001000+00001753+00000+0001T   00001753+0000001528          1400 HY7130               1DZ
186398000186398               186398               170213DO     1400+00000+DO0000006486+0000006486+000000000+000000909+0000007395+0000000000+I40000007395+0000000000+Z
186398001186398206-000630     186398006003000631919SPECTACLE CLEANING BRUS0000004000+00001227+00000+0001T   00001227+0000001531          1400 HY7321               1DZ
186398002186398077-000303     186398006001023593757GIFT-BAG PAPER MED     0000001000+00001578+00000+0001T   00001578+0000001531          1400 HY7112               1DZ
186399000186399               186399               170213DO     1400+00000+DO0000002630+0000002630+000000000+000000369+0000002990+0000000009+I20000000000+0000002990+Z
186399001186399106-008100     186399006001023764126MEASURING-SHAKER 500ml 0000001000+00002630+00000+0001T   00002630+0000001531          1400 HY7210               1DZ
186400000186400               186400               170213DO     1400+00000+DO0000004065+0000004065+000000000+000000571+0000004636+0000000000+I40000004636+0000000000+Z
186400001186400903-000520     186400006001704009898SWT GUMMY MINI SOUR 60g0000001000+00000876+00000+0001T   00000876+0000001534          1400 HY7150               1DZ
186400002186400903-000087     186400006001704000161SWT SPECKLED-EGGS 50G  0000002000+00001139+00000+0001T   00001139+0000001534          1400 HY7150               1DZ
186400003186400366-007916     186400006001023419309MASK PL CHARACTER ASS  0000001000+00000876+00000+0001T   00000876+0000001534          1400 HY7131               1DZ
186400004186400112-116038     186400006009681820246TCS CARRIER BAG MIDI   0000001000+00000035+00000+0001T   00000035+0000001534          1400 HY7090               1DZ
186401000186401               186401               170213DO     1400+00000+DO0000001753+0000001753+000000000+000000246+0000001990+0000000009+I20000000000+0000001990+Z
186401001186401080-000104     186401006003000236978CARD&ENVLP MALE AFR    0000001000+00001753+00000+0001T   00001753+0000001539          1400 HY7112               1DZ
186402000186402               186402               170213DO     1400+00000+DO0000008771+0000008771+000000000+000001228+0000009990+0000000009+I20000000000+0000009990+Z
186402001186402001-091415     186402006003000329113W/GLS OCC. LOVE 2PC 2800000001000+00008771+00000+0001T   00009648+0006471623          1400 HY7515               1DZ
186403000186403               186403               170213DO     1400+00000+DO0000003417+0000003417+000000000+000000479+0000003890+0000000006+I20000000000+0000003890+Z
186403001186403080-000114     186403006003000246472CARD&ENV LOVE-MUSICAL  0000001000+00001314+00000+0001T   00001753+0008151627          1400 HY7112               1DZ
186403002186403018-000127     186403006001023380289MUG OCC STRAIGHT LOVE  0000001000+00001578+00000+0001T   00001753+0006471627          1400 HY7515               1DZ
186403003186403903-000155     186403006009803374435SWT LOLLY I LUV U HEART0000001000+00000525+00000+0001T   00000525+0000001627          1400 HY7150               1DZ
186404000186404               186404               170213DO     1400+00000+DO0000001578+0000001578+000000000+000000221+0000001790+0000000009+I20000000000+0000001790+Z
186404001186404078-013424     186404006008741000338CONTACT-ADHESIVE 50ml  0000001000+00001578+00000+0001T   00001578+0000001627          1400 HY7810               1DZ
186405000186405               186405               170213DO     1400+00000+DO0000002540+0000002540+000000000+000000356+0000002890+0000000006+I20000000000+0000002890+Z
186405001186405304-001011     186405006001023806727FLWR ROSE RED W/BEAR   0000002000+00000613+00000+0001T   00000788+0006471631          1400 HY7510               1DZ
186405002186405080-000114     186405006003000246472CARD&ENV LOVE-MUSICAL  0000001000+00001314+00000+0001T   00001753+0008151631          1400 HY7112               1DZ
186406000186406               186406               170213DO     1400+00000+DO0000010655+0000010655+000000000+000001494+0000012149+0000000000+I40000012149+0000000000+Z
186406001186406106-005105     186406006003000667154WATER BOTTLE 1,6L      0000001000+00003507+00000+0001T   00003507+0000001634          1400 HY7210               1DZ
186406002186406089-023424     186406006001023759740K/CHAIN W/BELT HOOK 28 0000001000+00002630+00000+0001T   00002630+0000001634          1400 HY7205               1DZ
186406003186406080-000127     186406006003000424351VALENTINES DAY 36x24CM 0000001000+00002192+00000+0001T   00002192+0000001634          1400 HY7112               1DZ
186406004186406112-116069     186406006009681820277TCS CARRIER BAG JUMBO  0000001000+00000048+00000+0001T   00000048+0000001634          1400 HY7090               1DZ
186406005186406903-000155     186406006009803374435SWT LOLLY I LUV U HEART0000001000+00000525+00000+0001T   00000525+0000001634          1400 HY7150               1DZ
186406006186406105-001255     186406006003000573110CONTAINER FROSTED 1400m0000001000+00001753+00000+0001T   00001753+0000001634          1400 HY7210               1DZ
186407000186407               186407               170213DO     1400+00000+DO0000001051+0000001051+000000000+000000148+0000001190+0000000009+I20000000000+0000001190+Z
186407001186407007-000119     186407006002324004126BOOK COVER PL          0000001000+00001051+00000+0001T   00001051+0000001635          1400 HY7130               1DZ
186408000186408               186408               170213DO     1400+00000+DO0000004854+0000004854+000000000+000000680+0000005530+0000000004+I20000000000+0000005530+Z
186408001186408903-000194     186408006009826020616SWT CHOC RP LOLLY 25G  0000002000+00001314+00000+0001T   00001314+0000001638          1400 HY7150               1DZ
186408002186408304-001011     186408006001023806727FLWR ROSE RED W/BEAR   0000001000+00000613+00000+0001T   00000788+0006471638          1400 HY7510               1DZ
186408003186408080-000124     186408006003000297733CARD & ENV VALENTINES  0000001000+00001578+00000+0001T   00001578+0000001638          1400 HY7112               1DZ
186408004186408112-116038     186408006009681820246TCS CARRIER BAG MIDI   0000001000+00000035+00000+0001T   00000035+0000001638          1400 HY7090               1DZ
186409000186409               186409               170213DO     1400+00000+DO0000021952+0000021952+000000000+000003076+0000025028+0000000000+I40000025028+0000000000+Z
186409001186409304-001011     186409006001023806727FLWR ROSE RED W/BEAR   0000003000+00000613+00000+0001T   00000788+0006471642          1400 HY7510               1DZ
186409002186409903-000194     186409006009826020616SWT CHOC RP LOLLY 25G  0000001000+00001314+00000+0001T   00001314+0000001642          1400 HY7150               1DZ
186409003186409004-079102     186409006003000605033USB POWER BANK 1200MAH 0000001000+00006139+00000+0001T   00006139+0000001642          1400 HY7310               1DZ
186409004186409080-000114     186409006003000246472CARD&ENV LOVE-MUSICAL  0000001000+00001314+00000+0001T   00001753+0008151642          1400 HY7112               1DZ
186409005186409903-000194     186409006009826020616SWT CHOC RP LOLLY 25G  0000001000+00001314+00000+0001T   00001314+0000001642          1400 HY7150               1DZ
186409006186409564-000012     186409006001023130075BUBBLE BOTTLE MAGIC    0000002000+00000700+00000+0001T   00000700+0000001642          1400 HY7131               1DZ
186409007186409077-000408     186409006003000145218G/BAG PP 15X21X7CM     0000001000+00000876+00000+0001T   00000876+0000001642          1400 HY7112               1DZ
186409008186409565-000043     186409006003000109562NOVELTY BALL FUNNY FACE0000001000+00001753+00000+0001T   00001753+0000001642          1400 HY7745               1DZ
186409009186409077-000317     186409006001023609748GIFT-BAG 11X14CM E/D AN0000001000+00000613+00000+0001T   00000613+0000001642          1400 HY7112               1DZ
186409010186409903-000194     186409006009826020616SWT CHOC RP LOLLY 25G  0000003000+00001314+00000+0001T   00001314+0000001642          1400 HY7150               1DZ
186409011186409018-000177     186409006001023797513MUG MINI LOVE ASSTD    0000001000+00000700+00000+0001T   00000700+0000001642          1400 HY7515               1DZ
186409012186409564-000012     186409006001023130075BUBBLE BOTTLE MAGIC    0000001000+00000700+00000+0001T   00000700+0000001642          1400 HY7131               1DZ
186409013186409112-116069     186409006009681820277TCS CARRIER BAG JUMBO  0000001000+00000048+00000+0001T   00000048+0000001642          1400 HY7090               1DZ
186410000186410               186410               170213DO     1400+00000+DO0000005295+0000005295+000000000+000000743+0000006030+0000000008+I20000000000+0000006030+Z
186410001186410018-000129     186410006001023403353MUG OCC. LOVE V-SHAPE  0000001000+00002630+00000+0001T   00002630+0000001646          1400 HY7515               1DZ
186410002186410263-001003     186410006001023789846CARS RACING SET-OF-2   0000001000+00002630+00000+0001T   00002630+0000001646          1400 HY7710               1DZ
186410003186410112-116038     186410006009681820246TCS CARRIER BAG MIDI   0000001000+00000035+00000+0001T   00000035+0000001646          1400 HY7090               1DZ
186411000186411               186411               170213DO     1400+00000+DO0000001753+0000001753+000000000+000000246+0000001990+0000000009+I20000000000+0000001990+Z
186411001186411200-003026     186411006003000276448REFUSE BAGS 10PCE GREEN0000001000+00001753+00000+0001T   00001753+0000001651          1400 HY7214               1DZ
186412000186412               186412               170213DO     1400+00000+DO0000016711+0000016711+000000000+000002340+0000019050+0000000001+I20000000000+0000019050+Z
186412001186412077-000934     186412006003000409921G/WRAP 700mmx5m BIRTHDA0000001000+00003507+00000+0001T   00003507+0000001656          1400 HY7112               1DZ
186412002186412368-000012     186412006003000610464PLUSH BEAR 30cm SITTING0000001000+00008771+00000+0001T   00008771+0000001656          1400 HY7745               1DZ
186412003186412030-000031-A   186412006003000457588PLAQUE W/WORDS ASSTD   0000001000+00004385+00000+0001T   00004823+0006471656          1400 HY7505               1DZ
186412004186412112-116069     186412006009681820277TCS CARRIER BAG JUMBO  0000001000+00000048+00000+0001T   00000048+0000001656          1400 HY7090               1DZ
186413000186413               186413               170213DO     1400+00000+DO0000007048+0000007048+000000000+000000987+0000008035+0000000000+I40000008035+0000000000+Z
186413001186413018-005009     186413006001023725608MUG W/PLUSH-BEAR LOVE  0000001000+00003507+00000+0001T   00003507+0000001700          1400 HY7515               1DZ
186413002186413903-000194     186413006009826020616SWT CHOC RP LOLLY 25G  0000001000+00001314+00000+0001T   00001314+0000001700          1400 HY7150               1DZ
186413003186413018-000170     186413006001023775528MUG OCC. LOVE 2PC MINI 0000001000+00002192+00000+0001T   00002192+0000001700          1400 HY7515               1DZ
186413004186413112-116038     186413006009681820246TCS CARRIER BAG MIDI   0000001000+00000035+00000+0001T   00000035+0000001700          1400 HY7090               1DZ
186414000186414               186414               170213DO     1400+00000+DO0000003594+0000003594+000000000+000000504+0000004098+0000000000+I40000004098+0000000000+Z
186414001186414018-000170     186414006001023775528MUG OCC. LOVE 2PC MINI 0000001000+00002192+00000+0001T   00002192+0000001701          1400 HY7515               1DZ
186414002186414304-001204     186414006001023737984FLOWER OCC. TEDDY/ROSES0000001000+00001402+00000+0001T   00001490+0006471701          1400 HY7510               1DZ
186415000186415               186415               170213DO     1400+00000+DO0000002311+0000002311+000000000+000000324+0000002630+0000000005+I20000000000+0000002630+Z
186415001186415018-000177     186415006001023797513MUG MINI LOVE ASSTD    0000001000+00000700+00000+0001T   00000700+0000001702          1400 HY7515               1DZ
186415002186415261-000121     186415006001023341600GUN-CAPS 8-SHOT CARD-9 0000001000+00000700+00000+0001T   00000700+0000001702          1400 HY7710               1DZ
186415003186415112-116038     186415006009681820246TCS CARRIER BAG MIDI   0000001000+00000035+00000+0001T   00000035+0000001702          1400 HY7090               1DZ
186415004186415077-000314     186415006003000181148GIFT-BAG 11X14CM MATT  0000001000+00000876+00000+0001T   00000876+0000001702          1400 HY7112               1DZ
186416000186416               186416               170213DO     1400+00000+DO0000003542+0000003542+000000000+000000496+0000004030+0000000008+I20000000000+0000004030+Z
186416001186416031-000002-A   186416006003000247103P/FRAME LOVE 7.5X7.5CM 0000001000+00003507+00000+0001T   00003507+0000001703          1400 HY7510               1DZ
186416002186416112-116038     186416006009681820246TCS CARRIER BAG MIDI   0000001000+00000035+00000+0001T   00000035+0000001703          1400 HY7090               1DZ
186417000186417               186417               170213DO     1400+00000+DO0000016950+0000016950+000000000+000002374+0000019324+0000000000+I40000019324+0000000000+Z
186417001186417079-130010     186417006003000496624ART+CRAFT FOAM DOLLS   0000001000+00004385+00000+0001T   00004385+0000001706          1400 HY7130               1DZ
186417002186417301-006010     186417006001023861245ORN BEAR POLY W/JERSEY 0000001000+00002192+00000+0001T   00002192+0000001706          1400 HY7505               1DZ
186417003186417903-004960     186417008410525221842SWT GUMMY STR/BERRY 50G0000001000+00000964+00000+0001T   00000964+0000001706          1400 HY7150               1DZ
186417004186417903-000194     186417006009826020616SWT CHOC RP LOLLY 25G  0000006000+00001314+00000+0001T   00001314+0000001706          1400 HY7150               1DZ
186417005186417112-116038     186417006009681820246TCS CARRIER BAG MIDI   0000001000+00000035+00000+0001T   00000035+0000001706          1400 HY7090               1DZ
186417006186417009-001301     186417006001023854513MELAMINE FLOWER TUMBLER0000001000+00001490+00000+0001T   00001490+0000001706          1400 HY7210               1DZ
186418000186418               186418               170213DO     1400+00000+DO0000006622+0000006622+000000000+000000929+0000007551+0000000000+I40000007551+0000000000+Z
186418001186418080-000114     186418006003000246472CARD&ENV LOVE-MUSICAL  0000001000+00001314+00000+0001T   00001753+0008151708          1400 HY7112               1DZ
186418002186418077-000270     186418006003000395453GIFT-BAG PPR JMB 33X45 0000001000+00002630+00000+0001T   00002630+0000001708          1400 HY7112               1DZ
186418003186418018-000129     186418006001023403353MUG OCC. LOVE V-SHAPE  0000001000+00002630+00000+0001T   00002630+0000001708          1400 HY7515               1DZ
186418004186418112-116069     186418006009681820277TCS CARRIER BAG JUMBO  0000001000+00000048+00000+0001T   00000048+0000001708          1400 HY7090               1DZ
186419000186419               186419               170213DO     1400+00000+DO0000002630+0000002630+000000000+000000369+0000002990+0000000009+I20000000000+0000002990+Z
186419001186419566-000367     186419006003000645558STICKER WINDOW DECOR   0000001000+00002630+00000+0001T   00002630+0000001711          1400 HY7130               1DZ
186420000186420               186420               170213DO     1400+00000+DO0000007015+0000007015+000000000+000000983+0000007998+0000000000+I40000007998+0000000000+Z
186420001186420065-001008     186420006001023673190XYLOPHONE 8-KEYS SHAPES0000001000+00004385+00000+0001T   00004385+0000001713          1400 HY7745               1DZ
186420002186420105-006005     186420006003000666195CANNISTER PL 600ml     0000001000+00002630+00000+0001T   00002630+0000001713          1400 HY7210               1DZ
186421000186421               186421               170213DO     1400+00000+DO0000013203+0000013203+000000000+000001849+0000015050+0000000002+I20000000000+0000015050+Z
186421001186421079-001001     186421006003000448593CANVAS A3 WOOD MOUNTED 0000003000+00004385+00000+0001T   00004385+0000001714          1400 HY7130               1DZ
186421002186421112-116069     186421006009681820277TCS CARRIER BAG JUMBO  0000001000+00000048+00000+0001T   00000048+0000001714          1400 HY7090               1DZ
186422000186422               186422               170213DO     1400+00000+DO0000001613+0000001613+000000000+000000226+0000001830+0000000009+I20000000000+0000001830+Z
186422001186422018-000127     186422006001023380289MUG OCC STRAIGHT LOVE  0000001000+00001578+00000+0001T   00001753+0006471715          1400 HY7515               1DZ
186422002186422112-116038     186422006009681820246TCS CARRIER BAG MIDI   0000001000+00000035+00000+0001T   00000035+0000001715          1400 HY7090               1DZ
186423000186423               186423               170213DO     1400+00000+DO0000008376+0000008376+000000000+000001175+0000009551+0000000000+I40000009551+0000000000+Z
186423001186423072-020314     186423006003000605453PET TOY PUP VINYL CHICK0000001000+00003069+00000+0001T   00003069+0000001717          1400 HY7870               1DZ
186423002186423072-020353     186423006001023598097DOG/CAT-BOWL 17cm      0000001000+00001753+00000+0001T   00001753+0000001717          1400 HY7870               1DZ
186423003186423306-000529     186423006003000571338TOOTHBRUSH HOLDER 20cm 0000001000+00001753+00000+0001T   00001753+0000001717          1400 HY7200               1DZ
186423004186423200-003024     186423006001023657299REFUSE BAGS 20PCE BLACK0000001000+00001753+00000+0001T   00001753+0000001717          1400 HY7214               1DZ
186423005186423112-116069     186423006009681820277TCS CARRIER BAG JUMBO  0000001000+00000048+00000+0001T   00000048+0000001717          1400 HY7090               1DZ
186424000186424               186424               170213DO     1400+00000+DO0000004800-0000000000+000000000+000000000+0000004800-0000000000+I20000000000+0000004800-Z
186424001186424001-999911     186424000000000999911SUNDRIES               0000001000-00004800+00000+0001X   00000000+0000001719          0000 HY79111IC            1 Z
A17021300                                          11310779DOSLAVE 1                       HY72IC
A17021301                                          11522054DOSLAVE 1                       HY72IC
M17021391                              CASH        DOSLAVE 1                       Z-REPORT No.   655TOTAL (Sales - Refunds)           6969.16       CASH TO BE BANKED                    0.00       DEBIT CARDS                          0.00       CREDIT CARDS                         0.00       Z-READING                         6921.16       AIRTIME DEBIT CARD SALES             0.00       AIRTIME CARD SALES                   0.00       OVERS/UNDERS                      6921.16-      AIRTIME CASH SALES                   0.00       GIFT CARDS                           0.00       GIFT CARD CASH SALES                 0.00       SUNDRIES                            48.00       T O T A L  CASH PAYOUTS             48.00                                                                                                                                                                                                                                                                                                      Z
M17021392                              CASH        DOABSENT                                                                                                                                                                                          ANNUAL LEAVE                                                                                                                                                                                    DAY OFF                                                                                                                                                                                         COMMENTS                                                                                                                                                                                                                                                                                                                                                                                       Z
Y17021300                                          DO00000000617702+000086
ZDO17021321053 SLAVE 1      SALES DATA                     NEXT INVOICE NO.  186425 0655
F094078496-028122         1701180827350000021ICSLAVE 1
F094144463-000501         1701180827420000051ICSLAVE 1
X DO Slave 1 First invoice 186337 170213 Last invoice 186424 170213 Next invoice 186425 Total number of records 000000340 clbackup completed 21:05:50
