198310000198310               198310               170213DO     1400+00000+DO0000002455+0000002455+000000000+000000344+0000002790+0000000009+I20000000000+0000002790+Z
198310001198310077-000380     198310006003000247585GIFT-BAG 33X45CM S/COL 0000001000+00002455+00000+0001T   00002455+0000000842          1400 1IC112               2AZ
198311000198311               198311               170213DO     1400+00000+DO0000050914+0000050914+000000000+000007131+0000058040+0000000005+I20000000000+0000058040+Z
198311001198311267-000182     198311006003000390274PUZZLE 24pc ASSTD      0000002000+00004385+00000+0001T   00004385+0000001003          1400 1IC755               2AZ
198311002198311362-002430     198311006001023707314HAIR ACCESS SHINY PURSE0000001000+00004385+00000+0001T   00004385+0000001003          1400 1IC160               2AZ
198311003198311007-000657     198311006003000081905STATIONERY SET GIRL    0000001000+00005262+00000+0001T   00005262+0000001003          1400 1IC130               2AZ
198311004198311560-000100     198311006001023834904DRAGON 15cm            0000002000+00005262+00000+0001T   00005262+0000001003          1400 1IC745               2AZ
198311005198311362-002430     198311006001023707314HAIR ACCESS SHINY PURSE0000001000+00004385+00000+0001T   00004385+0000001003          1400 1IC160               2AZ
198311006198311560-000100     198311006001023834904DRAGON 15cm            0000001000+00005262+00000+0001T   00005262+0000001003          1400 1IC745               2AZ
198311007198311264-000922     198311000090159250012MAISTO CAR PULL-BACK   0000002000+00006139+00000+0001T   00007016+0008191003          1400 1IC710               2AZ
198311008198311112-116069     198311006009681820277TCS CARRIER BAG JUMBO  0000001000+00000048+00000+0001T   00000048+0000001003          1400 1IC090               2AZ
198312000198312               198312               170213DO     1400+00000+DO0000001578+0000001578+000000000+000000221+0000001790+0000000009+I20000000000+0000001790+Z
198312001198312251-000031     198312006001023515827MASKING-TAPE 24mmx40m  0000001000+00001578+00000+0001T   00001578+0000001008          1400 1IC810               2AZ
198313000198313               198313               170213DO     1400+00000+DO0000010960+0000010960+000000000+000001535+0000012490+0000000005+I20000000000+0000012490+Z
198313001198313077-000509     198313006003000082582GIFT-BAG SML 6PCE ORG P0000005000+00002192+00000+0001T   00002192+0000001027          1400 1IC112               2AZ
198314000198314               198314               170213DO     1400+00000+DO0000003945+0000003945+000000000+000000553+0000004490+0000000008+I20000000000+0000004490+Z
198314001198314075-002020     198314006003000622054MULIFUCTION HEADWEAR   0000001000+00002192+00000+0001T   00002192+0000001028          1400 1IC160               2AZ
198314002198314362-003004     198314006003000294961HAIR CLIPS             0000001000+00001753+00000+0001T   00001753+0000001028          1400 1IC160               2AZ
198315000198315               198315               170213DO     1400+00000+DO0000007060+0000007060+000000000+000000990+0000008050+0000000000+I20000000000+0000008050+Z
198315001198315565-000876     198315006003000305759NOVELTY FUNKY SUNGLASS 0000001000+00003507+00000+0001T   00003507+0000001032          1400 1IC745               2AZ
198315002198315366-007600     198315006001023902184MASK THEATRICAL GLITTER0000001000+00001753+00000+0001T   00001753+0000001032          1400 1IC131               2AZ
198315003198315366-007601     198315006003000655472DRESS UP MASK THEATRICA0000001000+00000876+00000+0001T   00000876+0000001032          1400 1IC131               2AZ
198315004198315006-000223     198315006001023891327PARTY EYE-MASK 6PCE    0000001000+00000876+00000+0001T   00000876+0000001032          1400 1IC131               2AZ
198315005198315112-116069     198315006009681820277TCS CARRIER BAG JUMBO  0000001000+00000048+00000+0001T   00000048+0000001032          1400 1IC090               2AZ
198316000198316               198316               170213DO     1400+00000+DO0000004385+0000004385+000000000+000000614+0000004990+0000000009+I20000000000+0000004990+Z
198316001198316301-000015     198316006001023479907ORN SENTIMENT STONE    0000001000+00004385+00000+0001T   00004385+0000001032          1400 1IC505               2AZ
198317000198317               198317               170213DO     1400+00000+DO0000002453+0000002453+000000000+000000344+0000002790+0000000007+I20000000000+0000002790+Z
198317001198317564-000012     198317006001023130075BUBBLE BOTTLE MAGIC    0000001000+00000700+00000+0001T   00000700+0000001042          1400 1IC131               2AZ
198317002198317031-005820     198317006001023667816P/FRAME-CLIP 15X20CM   0000001000+00001753+00000+0001T   00001753+0000001042          1400 1IC510               2AZ
198318000198318               198318               170213DO     1400+00000+DO0000002138+0000002138+000000000+000000300+0000002430+0000000008+I20000000000+0000002430+Z
198318001198318077-000602     198318006003000395545GIFT-BAG MED 18X23CM   0000001000+00001227+00000+0001T   00001227+0000001042          1400 1IC112               2AZ
198318002198318077-000011-L   198318006001023808585P/TISSUE BRIGHT 10SHEET0000001000+00000876+00000+0001T   00000876+0000001042          1400 1IC112               2AZ
198318003198318112-116038     198318006009681820246TCS CARRIER BAG MIDI   0000001000+00000035+00000+0001T   00000035+0000001042          1400 1IC090               2AZ
198319000198319               198319               170213DO     1400+00000+DO0000004385+0000004385+000000000+000000614+0000004990+0000000009+I20000000000+0000004990+Z
198319001198319031-000001-A   198319006003000246908P/FRAME GLS LOVE 9X13cm0000001000+00004385+00000+0001T   00004385+0000001125          1400 1IC510               2AZ
198320000198320               198320               170213DO     1400+00000+DO0000000700+0000000700+000000000+000000098+0000000790+0000000008+I20000000000+0000000790+Z
198320001198320088-000103     198320006008766127102INCENSE 20PCE ASSTD    0000001000+00000700+00000+0001T   00000700+0000001126          1400 1IC212               2AZ
198321000198321               198321               170213DO     1400+00000+DO0000002366+0000002366+000000000+000000332+0000002690+0000000008+I20000000000+0000002690+Z
198321001198321083-000055     198321006003000003853LIGHTER ELCTRNC REFILBL0000001000+00000613+00000+0001T   00000613+0000001130          1400 1IC315               2AZ
198321002198321077-000906     198321006003000410804G/WRAP 700mmx1m BIRTHDA0000001000+00001753+00000+0001T   00001753+0000001130          1400 1IC112               2AZ
198322000198322               198322               170213DO     1400+00000+DO0000001753+0000001753+000000000+000000246+0000001990+0000000009+I20000000000+0000001990+Z
198322001198322065-006042     198322006001023712998MARACAS 2PCE CHA-CHA   0000001000+00001753+00000+0001T   00001753+0000001136          1400 1IC745               2AZ
198323000198323               198323               170213DO     1400+00000+DO0000001578+0000001578+000000000+000000221+0000001790+0000000009+I20000000000+0000001790+Z
198323001198323071-001002     198323006003000217540PENCIL-SHARPNER DOUBLE 0000001000+00001578+00000+0001T   00001578+0000001148          1400 1IC130               2AZ
198324000198324               198324               170213DO     1400+00000+DO0000002278+0000002278+000000000+000000320+0000002590+0000000008+I20000000000+0000002590+Z
198324001198324140-006004     198324006001023628077FLY-SWATTER RUBBER     0000002000+00001139+00000+0001T   00001139+0000001152          1400 1IC830               2AZ
198325000198325               198325               170213DO     1400+00000+DO0000001314+0000001314+000000000+000000184+0000001490+0000000008+I20000000000+0000001490+Z
198325001198325107-004105     198325006002923010504BUCKET 9L OPEN         0000001000+00001314+00000+0001T   00001314+0000001153          1400 1IC210               2AZ
198326000198326               198326               170213DO     1400+00000+DO0000001051+0000001051+000000000+000000148+0000001190+0000000009+I20000000000+0000001190+Z
198326001198326079-009702-B   198326008427973059491PAPER SIRIO A2 WHITE   0000001000+00001051+00000+0001T   00001051+0000001206          1400 1IC130               2AZ
198327000198327               198327               170213DO     1400+00000+DO0000002630+0000002630+000000000+000000369+0000002990+0000000009+I20000000000+0000002990+Z
198327001198327056-065302     198327006001023759566CAR SUN-SHIELD ALM-FOIL0000001000+00002630+00000+0001T   00002630+0000001254          1400 R91860               2DZ
198328000198328               198328               170213DO     1400+00000+DO0000008771+0000008771+000000000+000001228+0000009990+0000000009+I20000000000+0000009990+Z
198328001198328039-000799     198328006001023692382CANDLES TEALITE 100PCE 0000001000+00008771+00000+0001T   00008771+0000001255          1400 R91510               2DZ
198329000198329               198329               170213DO     1400+00000+DO0000009696+0000009696+000000000+000001358+0000011054+0000000000+I40000011054+0000000000+Z
198329001198329024-000107     198329006001023422071MUFFIN-PAN 12-CUP      0000001000+00009648+00000+0001T   00009648+0000001307          1400 R91300               2DZ
198329002198329112-116069     198329006009681820277TCS CARRIER BAG JUMBO  0000001000+00000048+00000+0001T   00000048+0000001307          1400 R91090               2DZ
198330000198330               198330               170213DO     1400+00000+DO0000007064+0000007064+000000000+000000990+0000008050+0000000004+I20000000000+0000008050+Z
198330001198330015-002070     198330006001023893932BOWL S/STEEL SALAD 30cm0000001000+00007016+00000+0001T   00007016+0000001316          1400 R91515               2DZ
198330002198330112-116069     198330006009681820277TCS CARRIER BAG JUMBO  0000001000+00000048+00000+0001T   00000048+0000001316          1400 R91090               2DZ
198331000198331               198331               170213DO     1400+00000+DO0000006523+0000006523+000000000+000000914+0000007430+0000000007+I20000000000+0000007430+Z
198331001198331018-000170     198331006001023775528MUG OCC. LOVE 2PC MINI 0000002000+00002192+00000+0001T   00002192+0000001317          1400 R91515               2DZ
198331002198331903-000095     198331006001704011495SWT SPECKLED-EGGS 100G 0000001000+00002104+00000+0001T   00002104+0000001317          1400 R91150               2DZ
198331003198331112-116038     198331006009681820246TCS CARRIER BAG MIDI   0000001000+00000035+00000+0001T   00000035+0000001317          1400 R91090               2DZ
198332000198332               198332               170213DO     1400+00000+DO0000003507+0000003507+000000000+000000491+0000003990+0000000008+I20000000000+0000003990+Z
198332001198332006-000113     198332006003000671816BALLOONS WATER FILLER  0000001000+00003507+00000+0001T   00003507+0000001318          1400 R91131               2DZ
198333000198333               198333               170213DO     1400+00000+DO0000010642+0000010642+000000000+000001492+0000012130+0000000004+I20000000000+0000012130+Z
198333001198333366-006104     198333006003000616930DRESS UP FACE PAINT    0000001000+00001753+00000+0001T   00001753+0000001320          1400 R91131               2DZ
198333002198333089-000200     198333006003000485840KEY CHAIN POLY LOVE IS 0000001000+00003507+00000+0001T   00004385+0008121320          1400 R91205               2DZ
198333003198333368-000100     198333006001023474742PLUSH MD BEAR 12cm     0000001000+00002630+00000+0001T   00002630+0000001320          1400 R91745               2DZ
198333004198333903-000155     198333006009803374435SWT LOLLY I LUV U HEART0000001000+00000525+00000+0001T   00000525+0000001320          1400 R91150               2DZ
198333005198333018-000170     198333006001023775528MUG OCC. LOVE 2PC MINI 0000001000+00002192+00000+0001T   00002192+0000001320          1400 R91515               2DZ
198333006198333112-116038     198333006009681820246TCS CARRIER BAG MIDI   0000001000+00000035+00000+0001T   00000035+0000001320          1400 R91090               2DZ
198334000198334               198334               170213DO     1400+00000+DO0000005259+0000005259+000000000+000000738+0000005990+0000000007+I20000000000+0000005990+Z
198334001198334027-000091     198334006003000343966WINDOW CLEANER 22CM    0000001000+00001753+00000+0001T   00001753+0000001321          1400 R91212               2DZ
198334002198334088-000051     198334006001023760289T/FRESHENER RIM-BLOCK  0000002000+00001753+00000+0001T   00001753+0000001321          1400 R91212               2DZ
198335000198335               198335               170213DO     1400+00000+DO0000002628+0000002628+000000000+000000368+0000002990+0000000006+I20000000000+0000002990+Z
198335001198335080-000114     198335006003000246472CARD&ENV LOVE-MUSICAL  0000002000+00001314+00000+0001T   00001753+0008151322          1400 R91112               2DZ
198336000198336               198336               170213DO     1400+00000+DO0000002630+0000002630+000000000+000000369+0000002999+0000000000+I40000002999+0000000000+Z
198336001198336007-000588     198336006001023810090NOTES SHOPPING-LIST+RIB0000001000+00002630+00000+0001T   00002630+0000001331          1400 R91130               2DZ
198337000198337               198337               170213DO     1400+00000+DO0000012322+0000012322+000000000+000001728+0000014050+0000000000+I40000014050+0000000000+Z
198337001198337079-013101     198337006001023863706CRAFT SET DIY PIPE-CLNR0000001000+00002630+00000+0001T   00002630+0000001336          1400 R91130               2DZ
198337002198337079-006496     198337006003000160105GLITTER SHAKERS        0000001000+00001753+00000+0001T   00001753+0000001336          1400 R91130               2DZ
198337003198337079-013032-I   198337006003000542550ART+CRAFT DIY EVA FOAM 0000001000+00001753+00000+0001T   00001753+0000001336          1400 R91130               2DZ
198337004198337079-011524     198337006003000408139ART+CRFT FINGER PUPPETS0000001000+00004385+00000+0001T   00004385+0000001336          1400 R91130               2DZ
198337005198337079-006522     198337006001023149442ART+CRAFT GLUE ASSORTED0000001000+00001753+00000+0001T   00001753+0000001336          1400 R91130               2DZ
198337006198337112-116069     198337006009681820277TCS CARRIER BAG JUMBO  0000001000+00000048+00000+0001T   00000048+0000001336          1400 R91090               2DZ
198338000198338               198338               170213DO     1400+00000+DO0000002663+0000002663+000000000+000000373+0000003030+0000000006+I20000000000+0000003030+Z
198338001198338105-001031     198338000700371696627FOODSAVER 800ml        0000002000+00001314+00000+0001T   00001314+0000001340          1400 R91210               2DZ
198338002198338112-116038     198338006009681820246TCS CARRIER BAG MIDI   0000001000+00000035+00000+0001T   00000035+0000001340          1400 R91090               2DZ
198339000198339               198339               170213DO     1400+00000+DO0000000962+0000000962+000000000+000000135+0000001090+0000000007+I20000000000+0000001090+Z
198339001198339007-000405     198339006009635830369EXERCISE-BOOK A5 72PAGE0000001000+00000262+00000+0001T   00000262+0000001342          1400 R91130               2DZ
198339002198339007-000406     198339006009635830659NATURE-STUDY-BOOK 72PG 0000001000+00000700+00000+0001T   00000700+0000001342          1400 R91130               2DZ
198340000198340               198340               170213DO     1400+00000+DO0000005260+0000005260+000000000+000000738+0000005998+0000000000+I40000005998+0000000000+Z
198340001198340463-000366     198340006001023789136SWIM W/NOODLE 150cm    0000002000+00002630+00000+0001T   00002630+0000001348          1400 R91785               2DZ
198341000198341               198341               170213DO     1400+00000+DO0000015990+0000015990+000000000+000002242+0000018232+0000000000+I40000018232+0000000000+Z
198341001198341903-000200     198341006009826020234SWT CHOC RP CHOCO 23G  0000003000+00000788+00000+0001T   00000788+0000001351          1400 R91150               2DZ
198341002198341079-013032-D   198341006003000389643RIBBONS                0000001000+00002630+00000+0001T   00002630+0000001351          1400 R91130               2DZ
198341003198341079-000336     198341006003000670758SUPER FINE MARKER PENS 0000001000+00005262+00000+0001T   00005262+0000001351          1400 R91130               2DZ
198341004198341566-000359     198341006003000582709STICKER BOOK LOVE SPARK0000001000+00002192+00000+0001T   00002192+0000001351          1400 R91130               2DZ
198341005198341112-116038     198341006009681820246TCS CARRIER BAG MIDI   0000001000+00000035+00000+0001T   00000035+0000001351          1400 R91090               2DZ
198341006198341162-010922     198341006001492109220#TAG KIDS HEADBANDS 2PK0000001000+00003507+00000+0001T   00003507+0000001351          1400 R91160               2DZ
198342000198342               198342               170213DO     1400+00000+DO0000001753+0000001753+000000000+000000246+0000001999+0000000000+I40000001999+0000000000+Z
198342001198342077-000308     198342006001023595812GIFT-BAG 33X45CM E/DAY 0000001000+00001753+00000+0001T   00001753+0000001355          1400 R91112               2DZ
198343000198343               198343               170213DO     1400+00000+DO0000002101+0000002101+000000000+000000296+0000002390+0000000007+I20000000000+0000002390+Z
198343001198343903-000155     198343006009803374435SWT LOLLY I LUV U HEART0000001000+00000525+00000+0001T   00000525+0000001356          1400 R91150               2DZ
198343002198343903-000200     198343006009826020234SWT CHOC RP CHOCO 23G  0000002000+00000788+00000+0001T   00000788+0000001356          1400 R91150               2DZ
198344000198344               198344               170213DO     1400+00000+DO0000003507+0000003507+000000000+000000491+0000003998+0000000000+I40000003998+0000000000+Z
198344001198344106-007105     198344006001023857644JUG 1,8L FRIDGE-DOOR   0000001000+00003507+00000+0001T   00003507+0000001404          1400 R91210               2DZ
198345000198345               198345               170213DO     1400+00000+DO0000011397+0000011397+000000000+000001598+0000012995+0000000000+I40000012995+0000000000+Z
198345001198345080-000101     198345006003000236732CARD&ENVLPE FEMALE     0000001000+00001753+00000+0001T   00001753+0000001408          1400 R91112               2DZ
198345002198345080-000105     198345006003000236237CARD & ENVELOPE BDAY   0000001000+00001753+00000+0001T   00001753+0000001408          1400 R91112               2DZ
198345003198345080-000100     198345006003000236114CARD & ENVELOPE BDAY   0000001000+00001753+00000+0001T   00001753+0000001408          1400 R91112               2DZ
198345004198345080-000102     198345006003000236855CARD&ENVLP FEMALE AFR  0000001000+00001753+00000+0001T   00001753+0000001408          1400 R91112               2DZ
198345005198345082-096628     198345006001492966281SUNGLASS LDS PLASTIC   0000001000+00004385+00000+0001T   00004385+0000001408          1400 R91160               2DZ
198346000198346               198346               170213DO     1400+00000+DO0000021180+0000021180+000000000+000002968+0000024148+0000000000+I40000024148+0000000000+Z
198346001198346105-007016     198346006003000685059CONTAINER ROUND CLR    0000002000+00002192+00000+0001T   00002192+0000001415          1400 R91210               2DZ
198346002198346105-007017     198346006003000684694CONTAINER 1.5L SQUARE  0000001000+00003069+00000+0001T   00003069+0000001415          1400 R91210               2DZ
198346003198346200-000104     198346006003000677412PICNIC CUPS PL 6PCE    0000001000+00002630+00000+0001T   00002630+0000001415          1400 R91214               2DZ
198346004198346012-000020     198346006003000442102M/WAVE STEAMER 2-TIER  0000001000+00008771+00000+0001T   00008771+0000001415          1400 R91300               2DZ
198346005198346903-000087     198346006001704000161SWT SPECKLED-EGGS 50G  0000002000+00001139+00000+0001T   00001139+0000001415          1400 R91150               2DZ
198346006198346112-116069     198346006009681820277TCS CARRIER BAG JUMBO  0000001000+00000048+00000+0001T   00000048+0000001415          1400 R91090               2DZ
198347000198347               198347               170213DO     1400+00000+DO0000001227+0000001227+000000000+000000172+0000001390+0000000009+I20000000000+0000001390+Z
198347001198347077-000602     198347006003000395545GIFT-BAG MED 18X23CM   0000001000+00001227+00000+0001T   00001227+0000001415          1400 R91112               2DZ
198348000198348               198348               170213DO     1400+00000+DO0000001435+0000001435+000000000+000000201+0000001630+0000000006+I20000000000+0000001630+Z
198348001198348018-000177     198348006001023797513MUG MINI LOVE ASSTD    0000002000+00000700+00000+0001T   00000700+0000001416          1400 R91515               2DZ
198348002198348112-116038     198348006009681820246TCS CARRIER BAG MIDI   0000001000+00000035+00000+0001T   00000035+0000001416          1400 R91090               2DZ
198349000198349               198349               170213DO     1400+00000+DO0000002630+0000002630+000000000+000000369+0000002990+0000000009+I20000000000+0000002990+Z
198349001198349206-000220     198349006003000631704EGG TIMER COLOUR-CHANGE0000001000+00002630+00000+0001T   00002630+0000001417          1400 R91321               2DZ
198350000198350               198350               170213DO     1400+00000+DO0000009206+0000009206+000000000+000001289+0000010490+0000000005+I20000000000+0000010490+Z
198350001198350031-000844     198350006001023851789P/FRAME WDN WORDS 2ASS 0000001000+00003507+00000+0001T   00003507+0000001418          1400 R91510               2DZ
198350002198350030-000010     198350006003000084395P/DOOR HANGER 2-ASSTD  0000001000+00001314+00000+0001T   00001490+0008181418          1400 R91505               2DZ
198350003198350024-000118     198350006001023422316N/STICK C/PAN HEART    0000001000+00004385+00000+0001T   00004385+0000001418          1400 R91300               2DZ
198351000198351               198351               170213DO     1400+00000+DO0000004385+0000004385+000000000+000000614+0000004999+0000000000+I40000004999+0000000000+Z
198351001198351082-000100     198351006003000360246READING GLS STRENGHT:1 0000001000+00004385+00000+0001T   00004385+0000001420          1400 R91160               2DZ
198352000198352               198352               170213DO     1400+00000+DO0000007064+0000007064+000000000+000000990+0000008054+0000000000+I40000008054+0000000000+Z
198352001198352107-004500     198352006003000150557STEP STOOL PL          0000001000+00007016+00000+0001T   00007016+0000001422          1400 R91210               2DZ
198352002198352112-116069     198352006009681820277TCS CARRIER BAG JUMBO  0000001000+00000048+00000+0001T   00000048+0000001422          1400 R91090               2DZ
198353000198353               198353               170213DO     1400+00000+DO0000001490+0000001490+000000000+000000209+0000001690+0000000009+I20000000000+0000001690+Z
198353001198353016-006516     198353006003000351503S/JAR GLS CHECK 150ML  0000001000+00001490+00000+0001T   00001490+0000001429          1400 R91300               2DZ
198354000198354               198354               170213DO     1400+00000+DO0000005262+0000005262+000000000+000000737+0000005999+0000000000+I40000005999+0000000000+Z
198354001198354031-000858     198354006001023852175P/FRAME BROWN 20X25CM  0000001000+00005262+00000+0001T   00005262+0000001439          1400 R91510               2DZ
198355000198355               198355               170213DO     1400+00000+DO0000003507+0000003507+000000000+000000491+0000003990+0000000008+I20000000000+0000003990+Z
198355001198355007-000324     19835500600968585864125 SHEETS BRIGHTS MARLI0000001000+00003507+00000+0001T   00003507+0000001441          1400 R91130               2DZ
198356000198356               198356               170213DO     1400+00000+DO0000028549+0000028549+000000000+000003999+0000032548+0000000000+I40000032548+0000000000+Z
198356001198356206-000130     198356006003000628421CONDIMENT GUN 3PC      0000001000+00007016+00000+0001T   00008771+0008171443          1400 R91321               2DZ
198356002198356018-000136     198356006001023659026MUG OCC LOVE W/PLUSH   0000001000+00003507+00000+0001T   00003507+0000001443          1400 R91515               2DZ
198356003198356301-085008     198356006003000673933ORN OCC.LOVE TINSEL HRT0000001000+00003069+00000+0001T   00003069+0000001443          1400 R91505               2DZ
198356004198356368-000637     198356006001023874092PLUSH BEAR SLEEPING LOV0000001000+00011402+00000+0001T   00012279+0006471443          1400 R91745               2DZ
198356005198356018-005009     198356006001023725608MUG W/PLUSH-BEAR LOVE  0000001000+00003507+00000+0001T   00003507+0000001443          1400 R91515               2DZ
198356006198356112-116069     198356006009681820277TCS CARRIER BAG JUMBO  0000001000+00000048+00000+0001T   00000048+0000001443          1400 R91090               2DZ
198357000198357               198357               170213DO     1400+00000+DO0000006139+0000006139+000000000+000000860+0000006990+0000000009+I20000000000+0000006990+Z
198357001198357004-079102     198357006003000605033USB POWER BANK 1200MAH 0000001000+00006139+00000+0001T   00006139+0000001444          1400 R91310               2DZ
198358000198358               198358               170213DO     1400+00000+DO0000008715+0000008715+000000000+000001221+0000009936+0000000000+I40000009936+0000000000+Z
198358001198358368-000049     198358006003000536955PLUSH BEAR 15cm LOVE   0000001000+00004385+00000+0001T   00004385+0000001446          1400 R91745               2DZ
198358002198358903-000155     198358006009803374435SWT LOLLY I LUV U HEART0000001000+00000525+00000+0001T   00000525+0000001446          1400 R91150               2DZ
198358003198358566-000068     198358006003000418046POP UP LOVE 2 ASSTD    0000001000+00002192+00000+0001T   00002192+0000001446          1400 R91130               2DZ
198358004198358077-000315     198358006003000181186GIFT-BAG 20x28cm MATT  0000001000+00001578+00000+0001T   00001578+0000001446          1400 R91112               2DZ
198358005198358112-116038     198358006009681820246TCS CARRIER BAG MIDI   0000001000+00000035+00000+0001T   00000035+0000001446          1400 R91090               2DZ
198359000198359               198359               170213DO     1400+00000+DO0000002630+0000002630+000000000+000000369+0000002990+0000000009+I20000000000+0000002990+Z
198359001198359251-000003     198359006003000266159TAPE D/S 18x300mm V/PCK0000001000+00002630+00000+0001T   00002630+0000001446          1400 R91810               2DZ
198360000198360               198360               170213DO     1400+00000+DO0000008705+0000008705+000000000+000001224+0000009929+0000000000+I40000009929+0000000000+Z
198360001198360903-000082     198360006001704014892SWT MINI WINE GUMS 100G0000001000+00001753+00000+0001T   00001753+0000001454          1400 R91150               2DZ
198360002198360903-000155     198360006009803374435SWT LOLLY I LUV U HEART0000008000+00000525+00000+0001T   00000525+0000001454          1400 R91150               2DZ
198360003198360089-000030     198360006003000575671K/CHAIN LOVE MTL ASSTD 0000001000+00001753+00000+0001T   00001753+0000001454          1400 R91205               2DZ
198360004198360903-000843     198360008693029031067SWT GUMMY JELAXY 80G   0000001000+00000964+00000+0001T   00000964+0000001454          1400 R91150               2DZ
198360005198360112-116038     198360006009681820246TCS CARRIER BAG MIDI   0000001000+00000035+00000+0001T   00000035+0000001454          1400 R91090               2DZ
198361000198361               198361               170213DO     1400+00000+DO0000002190+0000002190+000000000+000000308+0000002490+0000000008+I20000000000+0000002490+Z
198361001198361077-000381     198361006003000247707GIFT-BAG 25X32CM S/COL 0000001000+00001753+00000+0001T   00001753+0000001502          1400 R91112               2DZ
198361002198361080-000133-A   198361006003000647019MINI VALENTINES CARD   0000001000+00000437+00000+0001T   00000437+0000001502          1400 R91112               2DZ
198362000198362               198362               170213DO     1400+00000+DO0000003506+0000003506+000000000+000000492+0000003990+0000000008+I20000000000+0000003990+Z
198362001198362080-000120     198362006003000236473CARD & ENVELOPE WEDDING0000001000+00001753+00000+0001T   00001753+0000001503          1400 R91112               2DZ
198362002198362080-000116     198362006003000253555CARD&ENVELOPE-HANDMADE 0000001000+00001753+00000+0001T   00001753+0000001503          1400 R91112               2DZ
198363000198363               198363               170213DO     1400+00000+DO0000002104+0000002104+000000000+000000295+0000002390+0000000009+I20000000000+0000002390+Z
198363001198363903-000095     198363006001704011495SWT SPECKLED-EGGS 100G 0000001000+00002104+00000+0001T   00002104+0000001540          1400 R91150               2DZ
198364000198364               198364               170213DO     1400+00000+DO0000001753+0000001753+000000000+000000246+0000001999+0000000000+I40000001999+0000000000+Z
198364001198364039-001023     198364006003000466337CANDLE TEA-LITE METALIC0000001000+00001753+00000+0001T   00001753+0000001542          1400 R91510               2DZ
198365000198365               198365               170213DO     1400+00000+DO0000004120+0000004120+000000000+000000578+0000004690+0000000008+I20000000000+0000004690+Z
198365001198365019-071611     198365006003000513642PEBBLES W/GEM 10g CLEAR0000001000+00001490+00000+0001T   00001490+0000001542          1400 R91510               2DZ
198365002198365016-002020     198365006003000674565S/BOTTLE GLS W/STRAW   0000001000+00002630+00000+0001T   00002630+0000001542          1400 R91300               2DZ
198366000198366               198366               170213DO     1400+00000+DO0000002630+0000002630+000000000+000000369+0000002999+0000000000+I40000002999+0000000000+Z
198366001198366016-002020     198366006003000674565S/BOTTLE GLS W/STRAW   0000001000+00002630+00000+0001T   00002630+0000001544          1400 R91300               2DZ
198367000198367               198367               170213DO     1400+00000+DO0000000700+0000000700+000000000+000000098+0000000790+0000000008+I20000000000+0000000790+Z
198367001198367903-000070     198367006001704001106SWT TOFFEE CREAMY 35g  0000001000+00000700+00000+0001T   00000700+0000001544          1400 R91150               2DZ
198368000198368               198368               170213DO     1400+00000+DO0000010344+0000010344+000000000+000001450+0000011790+0000000004+I20000000000+0000011790+Z
198368001198368077-000005-B   198368006003000326617PAPER TISSUE PATTERN   0000001000+00002630+00000+0001T   00002630+0000001546          1400 R91112               2DZ
198368002198368077-000311     198368006001023608666GIFT-BAG 11X14CM GLOSS 0000004000+00000613+00000+0001T   00000613+0000001546          1400 R91112               2DZ
198368003198368263-000623     198368006001023905697VEHICLE HELICOPTER 30cm0000001000+00005262+00000+0001T   00005262+0000001546          1400 R91710               2DZ
198369000198369               198369               170213DO     1400+00000+DO0000003891+0000003891+000000000+000000545+0000004430+0000000006+I20000000000+0000004430+Z
198369001198369105-001025-A   198369006009654960979CONTAINERS CLEAR 4PCE  0000002000+00001928+00000+0001T   00001928+0000001551          1400 R91210               2DZ
198369002198369112-116038     198369006009681820246TCS CARRIER BAG MIDI   0000001000+00000035+00000+0001T   00000035+0000001551          1400 R91090               2DZ
198370000198370               198370               170213DO     1400+00000+DO0000002892+0000002892+000000000+000000405+0000003290+0000000007+I20000000000+0000003290+Z
198370001198370077-000348     198370006001023483287GIFT-BOWS 4,5cm 8PCE   0000001000+00001578+00000+0001T   00001578+0000001552          1400 R91112               2DZ
198370002198370080-000114     198370006003000246472CARD&ENV LOVE-MUSICAL  0000001000+00001314+00000+0001T   00001753+0008151552          1400 R91112               2DZ
198371000198371               198371               170213DO     1400+00000+DO0000013978+0000013978+000000000+000001958+0000015936+0000000000+I40000015936+0000000000+Z
198371001198371028-000795     198371006001023812063SKEWERS 10cm 100PCE 3mm0000001000+00000964+00000+0001T   00000964+0000001554          1400 R91305               2DZ
198371002198371079-013032-C   198371006003000389520POLY SHAPES            0000001000+00001578+00000+0001T   00001578+0000001554          1400 R91130               2DZ
198371003198371079-013101     198371006001023863706CRAFT SET DIY PIPE-CLNR0000001000+00002630+00000+0001T   00002630+0000001554          1400 R91130               2DZ
198371004198371073-000524     198371006003000669943COSMETIC-BAG SET 3PC   0000001000+00008771+00000+0001T   00008771+0000001554          1400 R91200               2DZ
198371005198371112-116038     198371006009681820246TCS CARRIER BAG MIDI   0000001000+00000035+00000+0001T   00000035+0000001554          1400 R91090               2DZ
198372000198372               198372               170213DO     1400+00000+DO0000022702+0000022702+000000000+000003197+0000025899+0000000000+I40000025899+0000000000+Z
198372001198372018-000177     198372006001023797513MUG MINI LOVE ASSTD    0000001000+00000700+00000+0001T   00000700+0000001559          1400 R91515               2DZ
198372002198372903-000155     198372006009803374435SWT LOLLY I LUV U HEART0000036000+00000525+00000+0001T   00000525+0000001559          1400 R91150               2DZ
198372003198372903-000194     198372006009826020616SWT CHOC RP LOLLY 25G  0000001000+00001314+00000+0001T   00001314+0000001559          1400 R91150               2DZ
198372004198372565-000888     198372006003000607846NOVELTY MESH BALL      0000001000+00001753+00000+0001T   00001753+0000001559          1400 R91745               2DZ
198372005198372112-116038     198372006009681820246TCS CARRIER BAG MIDI   0000001000+00000035+00000+0001T   00000035+0000001559          1400 R91090               2DZ
198373000198373               198373               170213DO     1400+00000+DO0000002102+0000002102+000000000+000000295+0000002390+0000000007+I20000000000+0000002390+Z
198373001198373903-000200     198373006009826020234SWT CHOC RP CHOCO 23G  0000001000+00000788+00000+0001T   00000788+0000001600          1400 R91150               2DZ
198373002198373080-000114     198373006003000246472CARD&ENV LOVE-MUSICAL  0000001000+00001314+00000+0001T   00001753+0008151600          1400 R91112               2DZ
198374000198374               198374               170213DO     1400+00000+DO0000001753+0000001753+000000000+000000246+0000001990+0000000009+I20000000000+0000001990+Z
198374001198374204-000001     198374006001023533722M/HOLD BOTTLE OPENER   0000001000+00001753+00000+0001T   00001753+0000001601          1400 R91300               2DZ
198375000198375               198375               170213DO     1400+00000+DO0000003769+0000003769+000000000+000000528+0000004290+0000000007+I20000000000+0000004290+Z
198375001198375083-000054     198375006001023729071LIGHTER REFILLABLE LED 0000001000+00001578+00000+0001T   00001578+0000001602          1400 R91315               2DZ
198375002198375903-000843     198375008693029031067SWT GUMMY JELAXY 80G   0000001000+00000964+00000+0001T   00000964+0000001602          1400 R91150               2DZ
198375003198375077-000602     198375006003000395545GIFT-BAG MED 18X23CM   0000001000+00001227+00000+0001T   00001227+0000001602          1400 R91112               2DZ
198376000198376               198376               170213DO     1400+00000+DO0000006222+0000006222+000000000+000000872+0000007090+0000000004+I20000000000+0000007090+Z
198376001198376077-000311     198376006001023608666GIFT-BAG 11X14CM GLOSS 0000001000+00000613+00000+0001T   00000613+0000001607          1400 R91112               2DZ
198376002198376304-001011     198376006001023806727FLWR ROSE RED W/BEAR   0000001000+00000613+00000+0001T   00000788+0006471607          1400 R91510               2DZ
198376003198376089-060027     198376006003000245871KEY-CHAIN HEART 6X6cm  0000001000+00003069+00000+0001T   00003069+0000001607          1400 R91205               2DZ
198376004198376080-000114     198376006003000246472CARD&ENV LOVE-MUSICAL  0000001000+00001314+00000+0001T   00001753+0008151607          1400 R91112               2DZ
198376005198376304-001011     198376006001023806727FLWR ROSE RED W/BEAR   0000001000+00000613+00000+0001T   00000788+0006471607          1400 R91510               2DZ
198377000198377               198377               170213DO     1400+00000+DO0000000035+0000000035+000000000+000000005+0000000040+0000000000+I20000000000+0000000040+Z
198377001198377112-116038     198377006009681820246TCS CARRIER BAG MIDI   0000001000+00000035+00000+0001T   00000035+0000001608          1400 R91090               2DZ
198378000198378               198378               170213DO     1400+00000+DO0000025124+0000025124+000000000+000003520+0000028640+0000000004+I20000000000+0000028640+Z
198378001198378077-000299-A   198378006003000670888GIFT-BAG PAPER JMB LOVE0000001000+00001753+00000+0001T   00001753+0000001612          1400 R91112               2DZ
198378002198378903-000087     198378006001704000161SWT SPECKLED-EGGS 50G  0000001000+00001139+00000+0001T   00001139+0000001612          1400 R91150               2DZ
198378003198378077-000310     198378006001023608635GIFT-BAG 18X23CM GLOSS 0000002000+00001314+00000+0001T   00001314+0000001612          1400 R91112               2DZ
198378004198378368-000049     198378006003000536955PLUSH BEAR 15cm LOVE   0000002000+00004385+00000+0001T   00004385+0000001612          1400 R91745               2DZ
198378005198378903-000087     198378006001704000161SWT SPECKLED-EGGS 50G  0000001000+00001139+00000+0001T   00001139+0000001612          1400 R91150               2DZ
198378006198378077-000011-D   198378006001023808554TISSUE-WRAP WHITE 10PCE0000001000+00000876+00000+0001T   00000876+0000001612          1400 R91112               2DZ
198378007198378031-000924     198378006001023669964P/FRAME COLLAGE PL     0000001000+00008771+00000+0001T   00008771+0000001612          1400 R91510               2DZ
198378008198378112-116069     198378006009681820277TCS CARRIER BAG JUMBO  0000001000+00000048+00000+0001T   00000048+0000001612          1400 R91090               2DZ
198379000198379               198379               170213DO     1400+00000+DO0000000876+0000000876+000000000+000000123+0000000990+0000000009+I20000000000+0000000990+Z
198379001198379903-000482     198379006001704001397SWT SOFT-MINTS 60G     0000001000+00000876+00000+0001T   00000876+0000001613          1400 R91150               2DZ
198380000198380               198380               170213DO     1400+00000+DO0000003942+0000003942+000000000+000000552+0000004490+0000000004+I20000000000+0000004490+Z
198380001198380903-000194     198380006009826020616SWT CHOC RP LOLLY 25G  0000003000+00001314+00000+0001T   00001314+0000001613          1400 R91150               2DZ
198381000198381               198381               170213DO     1400+00000+DO0000001753+0000001753+000000000+000000246+0000001990+0000000009+I20000000000+0000001990+Z
198381001198381004-078985     198381006003000093267EARPHONES MINI ASST COL0000001000+00001753+00000+0001T   00001753+0000001615          1400 R91310               2DZ
198382000198382               198382               170213DO     1400+00000+DO0000005295+0000005295+000000000+000000742+0000006030+0000000007+I20000000000+0000006030+Z
198382001198382362-101405     198382006003000229703BEAD PLASTIC DIY SET   0000001000+00001753+00000+0001T   00001753+0000001623          1400 R91160               2DZ
198382002198382362-101406     198382006003000229741BEAD PLASTIC DIY SET   0000001000+00003507+00000+0001T   00003507+0000001623          1400 R91160               2DZ
198382003198382112-116038     198382006009681820246TCS CARRIER BAG MIDI   0000001000+00000035+00000+0001T   00000035+0000001623          1400 R91090               2DZ
198383000198383               198383               170213DO     1400+00000+DO0000000876+0000000876+000000000+000000123+0000000990+0000000009+I20000000000+0000000990+Z
198383001198383027-783006     198383006003000060719SCOURERS SPONGE        0000001000+00000876+00000+0001T   00000876+0000001624          1400 R91212               2DZ
198384000198384               198384               170213DO     1400+00000+DO0000001753+0000001753+000000000+000000246+0000001990+0000000009+I20000000000+0000001990+Z
198384001198384077-000301     198384008010410010188BAG LRG 25X32CM B/DAY  0000001000+00001753+00000+0001T   00001753+0000001629          1400 R91112               2DZ
198385000198385               198385               170213DO     1400+00000+DO0000004385+0000004385+000000000+000000614+0000004990+0000000009+I20000000000+0000004990+Z
198385001198385368-000151     198385006003000166725PLUSH BEAR 14cm        0000001000+00004385+00000+0001T   00004385+0000001629          1400 R91745               2DZ
198386000198386               198386               170213DO     1400+00000+DO0000015360+0000015360+000000000+000002155+0000017515+0000000000+I40000017515+0000000000+Z
198386001198386077-000311     198386006001023608666GIFT-BAG 11X14CM GLOSS 0000025000+00000613+00000+0001T   00000613+0000001633          1400 R91112               2DZ
198386002198386112-116038     198386006009681820246TCS CARRIER BAG MIDI   0000001000+00000035+00000+0001T   00000035+0000001633          1400 R91090               2DZ
198387000198387               198387               170213DO     1400+00000+DO0000000437+0000000437+000000000+000000062+0000000490+0000000009+I20000000000+0000000490+Z
198387001198387903-000011     198387006002099007315SWT MALLOW CHOC 15G    0000001000+00000437+00000+0001T   00000437+0000001634          1400 R91150               2DZ
198388000198388               198388               170213DO     1400+00000+DO0000008329+0000008329+000000000+000001167+0000009496+0000000000+I40000009496+0000000000+Z
198388001198388072-020298     198388006003000561629DOG-TOY TUG-ROPE ASSTD 0000001000+00003069+00000+0001T   00003069+0000001638          1400 R91870               2DZ
198388002198388566-000067     198388006003000349180STICKERS GLITTER       0000001000+00001753+00000+0001T   00002192+0008151638          1400 R91130               2DZ
198388003198388566-000064     198388006001023689702STICKERS GLITTER BORDER0000001000+00003507+00000+0001T   00003507+0000001638          1400 R91130               2DZ
198389000198389               198389               170213DO     1400+00000+DO0000011395+0000011395+000000000+000001599+0000012990+0000000004+I20000000000+0000012990+Z
198389001198389566-001500     198389006003000658275STICKER PUFFY EMOTION  0000001000+00001753+00000+0001T   00001753+0000001640          1400 R91130               2DZ
198389002198389566-002004     198389006001023672421STICKERS CRYSTAL SHAPES0000002000+00001753+00000+0001T   00001753+0000001640          1400 R91130               2DZ
198389003198389566-020150     198389006001023889126STICKERS FOAM 3D ASSTD 0000002000+00001753+00000+0001T   00001753+0000001640          1400 R91130               2DZ
198389004198389566-000203     198389006003000443925STCKRS VELVET PUFFY ASS0000001000+00002630+00000+0001T   00002630+0000001640          1400 R91130               2DZ
198390000198390               198390               170213DO     1400+00000+DO0000002804+0000002804+000000000+000000394+0000003198+0000000000+I40000003198+0000000000+Z
198390001198390264-000921     198390000090159150442MAISTO CAR 3" FRESH    0000001000+00001753+00000+0001T   00001753+0000001641          1400 R91710               2DZ
198390002198390903-002891     198390008935001721376MENTOS GUM WINTERGREEN 0000001000+00001051+00000+0001T   00001051+0000001641          1400 R91150               2DZ
198391000198391               198391               170213DO     1400+00000+DO0000001402+0000001402+000000000+000000197+0000001599+0000000000+I40000001599+0000000000+Z
198391001198391007-000326     198391006009699513833PAPER A4 80GSM 10'S BLK0000001000+00001402+00000+0001T   00001402+0000001647          1400 R91130               2DZ
198392000198392               198392               170213DO     1400+00000+DO0000002192+0000002192+000000000+000000307+0000002490+0000000009+I20000000000+0000002490+Z
198392001198392007-000095     198392006003000530434ENVELOPES WHITE 20PK C60000001000+00002192+00000+0001T   00002192+0000001653          1400 R91130               2DZ
198393000198393               198393               170213DO     1400+00000+DO0000001490+0000001490+000000000+000000209+0000001690+0000000009+I20000000000+0000001690+Z
198393001198393077-000299     198393006003000395576G/BAG 32x25cm LRG LOVE 0000001000+00001490+00000+0001T   00001490+0000001702          1400 R91112               2DZ
198394000198394               198394               170213DO     1400+00000+DO0000031441+0000031441+000000000+000004406+0000035847+0000000000+I40000035847+0000000000+Z
198394001198394368-000637     198394006001023874092PLUSH BEAR SLEEPING LOV0000002000+00011402+00000+0001T   00012279+0006471706          1400 R91745               2DZ
198394002198394108-003023     198394006003000665471TUMBLER W/STRAW 550ml  0000002000+00002630+00000+0001T   00002630+0000001706          1400 R91210               2DZ
198394003198394080-000133-A   198394006003000647019MINI VALENTINES CARD   0000001000+00000437+00000+0001T   00000437+0000001706          1400 R91112               2DZ
198394004198394018-000127     198394006001023380289MUG OCC STRAIGHT LOVE  0000001000+00001578+00000+0001T   00001753+0006471706          1400 R91515               2DZ
198394005198394077-000310     198394006001023608635GIFT-BAG 18X23CM GLOSS 0000001000+00001314+00000+0001T   00001314+0000001706          1400 R91112               2DZ
198394006198394112-116069     198394006009681820277TCS CARRIER BAG JUMBO  0000001000+00000048+00000+0001T   00000048+0000001706          1400 R91090               2DZ
198395000198395               198395               170213DO     1400+00000+DO0000001490+0000001490+000000000+000000209+0000001690+0000000009+I20000000000+0000001690+Z
198395001198395071-000307     198395006003000535118RULER FLEXI 30cm       0000001000+00001490+00000+0001T   00001490+0000001706          1400 R91130               2DZ
198396000198396               198396               170213DO     1400+00000+DO0000001753+0000001753+000000000+000000246+0000001990+0000000009+I20000000000+0000001990+Z
198396001198396464-000122     198396006003000638987PLAYING CARDS POKER 2PK0000001000+00001753+00000+0001T   00001753+0000001707          1400 R91785               2DZ
198397000198397               198397               170213DO     1400+00000+DO0000005310+0000005310+000000000+000000744+0000006054+0000000000+I40000006054+0000000000+Z
198397001198397464-009104     198397006001023620279GAME POOL-TABLE 25x42cm0000001000+00005262+00000+0001T   00005262+0000001710          1400 R91785               2DZ
198397002198397112-116069     198397006009681820277TCS CARRIER BAG JUMBO  0000001000+00000048+00000+0001T   00000048+0000001710          1400 R91090               2DZ
198398000198398               198398               170213DO     1400+00000+DO0000005262+0000005262+000000000+000000737+0000005990+0000000009+I20000000000+0000005990+Z
198398001198398085-007026     198398006003000528714P/KNIFE 9cm 15-FUNCTION0000001000+00005262+00000+0001T   00005262+0000001715          1400 R91305               2DZ
198399000198399               198399               170213DO     1400+00000+DO0000002630+0000002630+000000000+000000369+0000002990+0000000009+I20000000000+0000002990+Z
198399001198399079-001002     198399006003000448715CANVAS A4 WOOD MOUNTED 0000001000+00002630+00000+0001T   00002630+0000001722          1400 R91130               2DZ
198400000198400               198400               170213DO     1400+00000+DO0000002630+0000002630+000000000+000000369+0000002999+0000000000+I40000002999+0000000000+Z
198400001198400031-005919     198400006003000580576P/FRAME PL PLAIN 13X18 0000001000+00002630+00000+0001T   00002630+0000001724          1400 R91510               2DZ
198401000198401               198401               170213DO     1400+00000+DO0000000437+0000000437+000000000+000000062+0000000490+0000000009+I20000000000+0000000490+Z
198401001198401080-000133-A   198401006003000647019MINI VALENTINES CARD   0000001000+00000437+00000+0001T   00000437+0000001724          1400 R91112               2DZ
198402000198402               198402               170213DO     1400+00000+DO0000001490+0000001490+000000000+000000209+0000001690+0000000009+I20000000000+0000001690+Z
198402001198402077-000452     198402006003000284986G/BAG METALLIC MED EMB 0000001000+00001490+00000+0001T   00001490+0000001724          1400 R91112               2DZ
198403000198403               198403               170213DO     1400+00000+DO0000018200+0000018200+000000000+000002550+0000020750+0000000000+I40000020750+0000000000+Z
198403001198403001-091415     198403006003000329113W/GLS OCC. LOVE 2PC 2800000001000+00008771+00000+0001T   00009648+0006471729          1400 R91515               2DZ
198403002198403030-000031-A   198403006003000457588PLAQUE W/WORDS ASSTD   0000001000+00004385+00000+0001T   00004823+0006471729          1400 R91505               2DZ
198403003198403080-000127     198403006003000424351VALENTINES DAY 36x24CM 0000001000+00002192+00000+0001T   00002192+0000001729          1400 R91112               2DZ
198403004198403304-001204     198403006001023737984FLOWER OCC. TEDDY/ROSES0000002000+00001402+00000+0001T   00001490+0006471729          1400 R91510               2DZ
198403005198403112-116069     198403006009681820277TCS CARRIER BAG JUMBO  0000001000+00000048+00000+0001T   00000048+0000001729          1400 R91090               2DZ
198404000198404               198404               170213DO     1400+00000+DO0000012102+0000012102+000000000+000001695+0000013797+0000000000+I40000013797+0000000000+Z
198404001198404564-000012     198404006001023130075BUBBLE BOTTLE MAGIC    0000001000+00000700+00000+0001T   00000700+0000001732          1400 R91131               2DZ
198404002198404586-010659     198404006001492106595WATCH BOYS SUNNIES CAMO0000001000+00011402+00000+0001T   00011402+0000001732          1400 R91160               2DZ
198405000198405               198405               170213DO     1400+00000+DO0000001314+0000001314+000000000+000000184+0000001490+0000000008+I20000000000+0000001490+Z
198405001198405080-000114     198405006003000246472CARD&ENV LOVE-MUSICAL  0000001000+00001314+00000+0001T   00001753+0008151733          1400 R91112               2DZ
198406000198406               198406               170213DO     1400+00000+DO0000018008+0000018008+000000000+000002525+0000020533+0000000000+I40000020533+0000000000+Z
198406001198406039-000100     19840600600300060614625CM WHITE CANDLE 6PC  0000001000+00002630+00000+0001T   00002630+0000001736          1400 R91510               2DZ
198406002198406039-000796     198406006001023617750CANDLES TEALITE BOX-8  0000001000+00004385+00000+0001T   00004385+0000001736          1400 R91510               2DZ
198406003198406039-000635     198406006001023774521CANDLE VTV 4PC WHITE   0000001000+00002192+00000+0001T   00002192+0000001736          1400 R91510               2DZ
198406004198406040-000170     198406006001023774613C/HOLDER GLASS CUP 6CM 0000002000+00002630+00000+0001T   00002630+0000001736          1400 R91510               2DZ
198406005198406040-000923     198406006001023587831CANDLE-HOLDER GLS 13.5 0000002000+00001753+00000+0001T   00001753+0000001736          1400 R91510               2DZ
198406006198406112-116038     198406006009681820246TCS CARRIER BAG MIDI   0000001000+00000035+00000+0001T   00000035+0000001736          1400 R91090               2DZ
198407000198407               198407               170213DO     1400+00000+DO0000009206+0000009206+000000000+000001290+0000010496+0000000000+I40000010496+0000000000+Z
198407001198407301-085003     198407006003000420827ORN OCCASION LOVE KEY  0000001000+00005262+00000+0001T   00005262+0000001737          1400 R91505               2DZ
198407002198407071-081100-A   198407006003000326426GLUE-STICK 25g 2pk     0000001000+00001490+00000+0001T   00001490+0000001737          1400 R91130               2DZ
198407003198407077-000303     198407006001023593757GIFT-BAG PAPER MED     0000001000+00001578+00000+0001T   00001578+0000001737          1400 R91112               2DZ
198407004198407077-000408     198407006003000145218G/BAG PP 15X21X7CM     0000001000+00000876+00000+0001T   00000876+0000001737          1400 R91112               2DZ
198408000198408               198408               170213DO     1400+00000+DO0000001578+0000001578+000000000+000000221+0000001790+0000000009+I20000000000+0000001790+Z
198408001198408077-000323     198408006001023677563G/BAG 25X32CM E/DAY FLO0000001000+00001578+00000+0001T   00001578+0000001737          1400 R91112               2DZ
198409000198409               198409               170213DO     1400+00000+DO0000009680+0000009680+000000000+000001357+0000011037+0000000000+I40000011037+0000000000+Z
198409001198409006-000106     198409006003000471331WATERBOMBS 150PCE 6-COL0000001000+00005262+00000+0001T   00005262+0000001739          1400 R91131               2DZ
198409002198409006-000804     198409006003000574445STREAMERS 6-ROLLS 2.5cm0000001000+00001753+00000+0001T   00001753+0000001739          1400 R91131               2DZ
198409003198409006-006013     198409006001023735195PARTY-SPRAY STRING     0000001000+00002630+00000+0001T   00002630+0000001739          1400 R91131               2DZ
198409004198409112-116038     198409006009681820246TCS CARRIER BAG MIDI   0000001000+00000035+00000+0001T   00000035+0000001739          1400 R91090               2DZ
198410000198410               198410               170213DO     1400+00000+DO0000005819+0000005819+000000000+000000815+0000006634+0000000000+I40000006634+0000000000+Z
198410001198410903-000843     198410008693029031067SWT GUMMY JELAXY 80G   0000001000+00000964+00000+0001T   00000964+0000001740          1400 R91150               2DZ
198410002198410566-000359     198410006003000582709STICKER BOOK LOVE SPARK0000001000+00002192+00000+0001T   00002192+0000001740          1400 R91130               2DZ
198410003198410903-005001     198410006002580020014SWT CT MALLOW MICE 120g0000002000+00001314+00000+0001T   00001314+0000001740          1400 R91150               2DZ
198410004198410112-116038     198410006009681820246TCS CARRIER BAG MIDI   0000001000+00000035+00000+0001T   00000035+0000001740          1400 R91090               2DZ
198411000198411               198411               170213DO     1400+00000+DO0000014720-0000000000+000000000+000000000+0000014720-0000000000+I20000000000+0000014720-Z
198411001198411001-999901     198411000000000999901CASUAL WAGES           0000001000-00014720+00000+0001X  8905310173085 0008S BOOI0000000000 R919011IC DS         2 Z
198412000198412               198412               170213DO     1400+00000+DO0000014495-0000000000+000000000+000000000+0000014500-0000000005+I20000000000+0000014500-Z
198412001198412001-999909     198412000000000999909STAFF-REFRESHMENTS     0000001000-00014495+00000+0001X   00000000+0000001749          0000 1IC9092IC            2 Z
A17021300                                          13455517DOSLAVE 2                       R912IC
A17021301                                          14473758DOSLAVE 2                       R911IC
B19836100                                          170213DO079-009700-B   15014435SLAVE 2     R911IC0000013000+0000003000+0000000000000+
C19836100                                          170213DO079-009700-B   15014980SLAVE 2     R911IC0000000000+0000000000+0010000003000+
C19836101                                          170213DO079-009700-D   15015810SLAVE 2     R911IC0000000000+0000000000+0020000013000+
C19836102                                          170213DO112-116038     15020138SLAVE 2     R911IC0000000000+0000000000+0030000001000+
C19839900                                          170213DO083-000055     17200905SLAVE 2     R911IC0000000000+0000000000+0010000002000+
C19839901                                          170213DO903-000121     17201215SLAVE 2     R911IC0000000000+0000000000+0020000001000+
C19839902                                          170213DO903-000211     17222336SLAVE 2     R911IC0000000000+0000000000+0010000002000+
M17021391                              CASH        DOSLAVE 2                       Z-REPORT No.   640TOTAL (Sales - Refunds)           7168.86       CASH TO BE BANKED                 3139.40       DEBIT CARDS                          0.00       CREDIT CARDS                      3737.26       Z-READING                         6876.66       AIRTIME DEBIT CARD SALES             0.00       AIRTIME CARD SALES                   0.00       OVERS/UNDERS                         0.00       AIRTIME CASH SALES                   0.00       GIFT CARDS                           0.00       GIFT CARD CASH SALES                 0.00       CASUAL WAGES                       147.20       STAFF-REFRESHMENTS                 144.95       ROUNDING                             0.05       T O T A L  CASH PAYOUTS            292.20                                                                                                                                                                                                      Z
M17021392                              CASH        DOABSENT                                                                                                                                                                                          ANNUAL LEAVE                                                                                                                                                                                    DAY OFF                                                                                                           .                                                                             COMMENTS                                                                                                                                                                                                                                                                                                                                                                                       Z
Y17021300                                          DO00000000629196+000101
ZDO17021321053 SLAVE 2      SALES DATA                     NEXT INVOICE NO.  198413 0640
X DO Slave 2 First invoice 198310 170213 Last invoice 198412 170213 Next invoice 198413 Total number of records 000000347 clbackup completed 21:05:52
