167440000167440               167440               170213DP     1400+00000+DP0000003680+0000003680+000000000+000000516+0000004190+0000000006+I20000000000+0000004190+Z
167440001167440018-000170     167440006001023775528MUG OCC. LOVE 2PC MINI 0000001000+00002192+00000+0001T   00002192+0000001001          1400 NT6515               2AZ
167440002167440018-000177     167440006001023797513MUG MINI LOVE ASSTD    0000001000+00000700+00000+0001T   00000700+0000001001          1400 NT6515               2AZ
167440003167440903-000200     167440006009826020234SWT CHOC RP CHOCO 23G  0000001000+00000788+00000+0001T   00000788+0000001001          1400 NT6150               2AZ
167441000167441               167441               170213DP     1400+00000+DP0000000613+0000000613+000000000+000000086+0000000690+0000000009+I20000000000+0000000690+Z
167441001167441903-000848     167441008692806080076SWT SNACK BISCUIT 70g  0000001000+00000613+00000+0001T   00000613+0000001005          1400 NT6150               2AZ
167442000167442               167442               170213DP     1400+00000+DP0000003068+0000003068+000000000+000000430+0000003490+0000000008+I20000000000+0000003490+Z
167442001167442080-000124     167442006003000297733CARD & ENV VALENTINES  0000001000+00001578+00000+0001T   00001578+0000001009          1400 NT6112               2AZ
167442002167442077-000299     167442006003000395576G/BAG 32x25cm LRG LOVE 0000001000+00001490+00000+0001T   00001490+0000001009          1400 NT6112               2AZ
167443000167443               167443               170213DP     1400+00000+DP0000001753+0000001753+000000000+000000246+0000001990+0000000009+I20000000000+0000001990+Z
167443001167443080-000117     167443006003000236350CARD & ENVELOPE THANK U0000001000+00001753+00000+0001T   00001753+0000001023          1400 NT6112               2AZ
167444000167444               167444               170213DP     1400+00000+DP0000001753+0000001753+000000000+000000246+0000001999+0000000000+I40000001999+0000000000+Z
167444001167444077-000308     167444006001023595812GIFT-BAG 33X45CM E/DAY 0000001000+00001753+00000+0001T   00001753+0000001027          1400 NT6112               2AZ
167445000167445               167445               170213DP     1400+00000+DP0000001752+0000001752+000000000+000000246+0000001990+0000000008+I20000000000+0000001990+Z
167445001167445007-000127     167445006009685853431BOOK H/COVER MEMO 144PG0000001000+00000876+00000+0001T   00000876+0000001032          1400 NT6130               2AZ
167445002167445071-003000     167445006003000543229PEN BALL PEN 3PCE MULTI0000001000+00000876+00000+0001T   00000876+0000001032          1400 NT6130               2AZ
167446000167446               167446               170213DP     1400+00000+DP0000006521+0000006521+000000000+000000915+0000007436+0000000000+I40000007436+0000000000+Z
167446001167446006-000325     167446006001023886347G/STICKS 3x20cm+3 CONN.0000002000+00001490+00000+0001T   00001490+0000001036          1400 NT6131               2AZ
167446002167446112-116038     167446006009681820246TCS CARRIER BAG MIDI   0000001000+00000035+00000+0001T   00000035+0000001036          1400 NT6090               2AZ
167446003167446903-000911     167446006009802868454SWT ST GUM TAPE BARBIE 0000001000+00001753+00000+0001T   00001753+0000001036          1400 NT6150               2AZ
167446004167446903-000918     167446006009802868522SWEET GUM TAPE H/KITTY 0000001000+00001753+00000+0001T   00001753+0000001036          1400 NT6150               2AZ
167447000167447               167447               170213DP     1400+00000+DP0000032496+0000032496+000000000+000004551+0000037047+0000000000+I40000037047+0000000000+Z
167447001167447565-001965     167447006003000028207NOVELTY BINOCULARS PL  0000001000+00003507+00000+0001T   00003507+0000001048          1400 NT6745               2AZ
167447002167447466-000004     167447006003000469819PLAY-TENT POP-UP BOY   0000001000+00021928+00000+0001T   00021928+0000001048          1400 NT6785               2AZ
167447003167447077-000354     167447006003000139224GIFT-BAG 25X32CM H/MADE0000001000+00001753+00000+0001T   00001753+0000001048          1400 NT6112               2AZ
167447004167447077-000299-A   167447006003000670888GIFT-BAG PAPER JMB LOVE0000001000+00001753+00000+0001T   00001753+0000001048          1400 NT6112               2AZ
167447005167447112-116069     167447006009681820277TCS CARRIER BAG JUMBO  0000001000+00000048+00000+0001T   00000048+0000001048          1400 NT6090               2AZ
167447006167447200-000012     167447006003000399536BAG 50PCE 165x146mm    0000001000+00003507+00000+0001T   00003507+0000001048          1400 NT6214               2AZ
167448000167448               167448               170213DP     1400+00000+DP0000006139+0000006139+000000000+000000860+0000006990+0000000009+I20000000000+0000006990+Z
167448001167448018-050000     167448006003000412679MUG OCC LOVE TWIN BEAR 0000001000+00006139+00000+0001T   00006139+0000001108          1400 NT6515               2AZ
167449000167449               167449               170213DP     1400+00000+DP0000004384+0000004384+000000000+000000614+0000004990+0000000008+I20000000000+0000004990+Z
167449001167449051-600515     167449006003000491957FLORAL FOAM BRICK GREEN0000002000+00002192+00000+0001T   00002192+0000001118          1400 NT6820               2AZ
167450000167450               167450               170213DP     1400+00000+DP0000009851+0000009851+000000000+000001382+0000011233+0000000000+I40000011233+0000000000+Z
167450001167450266-001305     167450006001023560735MARBLES 45MM 3PC PLANET0000001000+00001578+00000+0001T   00001578+0000001149          1400 NT6710               2AZ
167450002167450566-000858     167450006001023760975STCKRS G/OUTLINE ASSTD 0000001000+00000788+00000+0001T   00000788+0000001149          1400 NT6130               2AZ
167450003167450079-006494     167450006003000159864GLITTER GLUE 5PCE 11cm 0000001000+00001490+00000+0001T   00001490+0000001149          1400 NT6130               2AZ
167450004167450566-002000     167450000721129013206STICKERS CRYSTAL ASSTD 0000001000+00000700+00000+0001T   00000700+0000001149          1400 NT6130               2AZ
167450005167450562-000808     167450006003000651573EDU PEG BOARD SML      0000002000+00002630+00000+0001T   00002630+0000001149          1400 NT6755               2AZ
167450006167450112-116038     167450006009681820246TCS CARRIER BAG MIDI   0000001000+00000035+00000+0001T   00000035+0000001149          1400 NT6090               2AZ
167451000167451               167451               170213DP     1400+00000+DP0000007049+0000007049+000000000+000000987+0000008030+0000000006+I20000000000+0000008030+Z
167451001167451018-000130     167451006001023867537MUG OCC LOVE MINI+HEART0000002000+00003507+00000+0001T   00003507+0000001152          1400 NT6515               2AZ
167451002167451112-116038     167451006009681820246TCS CARRIER BAG MIDI   0000001000+00000035+00000+0001T   00000035+0000001152          1400 NT6090               2AZ
167452000167452               167452               170213DP     1400+00000+DP0000013205+0000013205+000000000+000001849+0000015050+0000000004+I20000000000+0000015050+Z
167452001167452065-005337     167452006001023619303KEYBOARD B/O 32-KEYS   0000001000+00013157+00000+0001T   00013157+0000001153          1400 NT6745               2AZ
167452002167452112-116069     167452006009681820277TCS CARRIER BAG JUMBO  0000001000+00000048+00000+0001T   00000048+0000001153          1400 NT6090               2AZ
167453000167453               167453               170213DP     1400+00000+DP0000006187+0000006187+000000000+000000867+0000007050+0000000004+I20000000000+0000007050+Z
167453001167453031-007009     167453006003000467822P/FRAME WDN CERTIFICATE0000001000+00006139+00000+0001T   00006139+0000001200          1400 NT6510               2AZ
167453002167453112-116069     167453006009681820277TCS CARRIER BAG JUMBO  0000001000+00000048+00000+0001T   00000048+0000001200          1400 NT6090               2AZ
167454000167454               167454               170213DP     1400+00000+DP0000008889+0000008889+000000000+000001246+0000010135+0000000000+I40000010135+0000000000+Z
167454001167454106-005120     167454006001023897336ICE-LOLLY-MAKER 6PCE   0000001000+00003069+00000+0001T   00003069+0000001203          1400 NT6210               2AZ
167454002167454079-006494     167454006003000159864GLITTER GLUE 5PCE 11cm 0000001000+00001490+00000+0001T   00001490+0000001203          1400 NT6130               2AZ
167454003167454566-000858     167454006001023760975STCKRS G/OUTLINE ASSTD 0000001000+00000788+00000+0001T   00000788+0000001203          1400 NT6130               2AZ
167454004167454050-000263-Z   167454006001023777041PADLOCK BRS 32mm CARDED0000001000+00003507+00000+0001T   00003507+0000001203          1400 NT6855               2AZ
167454005167454112-116038     167454006009681820246TCS CARRIER BAG MIDI   0000001000+00000035+00000+0001T   00000035+0000001203          1400 NT6090               2AZ
167455000167455               167455               170213DP     1400+00000+DP0000001314+0000001314+000000000+000000184+0000001490+0000000008+I20000000000+0000001490+Z
167455001167455046-000012     167455006904708013062BATTERIES AA  CARD-OF-40000001000+00001314+00000+0001T   00001314+0000001203          1400 NT6312               2AZ
167456000167456               167456               170213DP     1400+00000+DP0000000306+0000000306+000000000+000000043+0000000349+0000000000+I40000000349+0000000000+Z
167456001167456306-000020     167456006001023743145POCKET-TISSUES 10PCE   0000001000+00000306+00000+0001T   00000306+0000001204          1400 NT6200               2AZ
167457000167457               167457               170213DP     1400+00000+DP0000004032+0000004032+000000000+000000566+0000004590+0000000008+I20000000000+0000004590+Z
167457001167457304-001204     167457006001023737984FLOWER OCC. TEDDY/ROSES0000001000+00001402+00000+0001T   00001490+0006471210          1400 NT6510               2AZ
167457002167457304-000720     167457006001023843050F/BUNCH ROSE 6-HEAD AST0000001000+00002630+00000+0001T   00002630+0000001210          1400 NT6510               2AZ
167458000167458               167458               170213DP     1400+00000+DP0000015385+0000015385+000000000+000002158+0000017540+0000000003+I20000000000+0000017540+Z
167458001167458077-000011     167458006003000542352PAPER RAFFIA ASSTD COL 0000002000+00001753+00000+0001T   00001753+0000001211          1400 NT6112               2AZ
167458002167458006-000111     167458006003000519385BALLOONS LARGE 12PCE   0000001000+00002630+00000+0001T   00002630+0000001211          1400 NT6131               2AZ
167458003167458006-000124     167458006003000625888BALLOONS 10PC MIX COL  0000003000+00001753+00000+0001T   00001753+0000001211          1400 NT6131               2AZ
167458004167458006-000167-B   167458006003000516858BALLOONS BLUE METALLIC 0000001000+00001314+00000+0001T   00001314+0000001211          1400 NT6131               2AZ
167458005167458006-000166-E   167458006003000516612BALLOONS LRG 6PC GREEN 0000001000+00001314+00000+0001T   00001314+0000001211          1400 NT6131               2AZ
167458006167458006-000167-D   167458006003000517091BALLOONS PRPLE METALLIC0000001000+00001314+00000+0001T   00001314+0000001211          1400 NT6131               2AZ
167458007167458112-116069     167458006009681820277TCS CARRIER BAG JUMBO  0000001000+00000048+00000+0001T   00000048+0000001211          1400 NT6090               2AZ
167459000167459               167459               170213DP     1400+00000+DP0000006137+0000006137+000000000+000000860+0000006990+0000000007+I20000000000+0000006990+Z
167459001167459301-085001     167459006003000297610ORN WATERBALL LOVE ASST0000001000+00004823+00000+0001T   00004823+0000001212          1400 NT6505               2AZ
167459002167459077-000470     167459006003000330171G-BAG DESGN SML 11X14CM0000001000+00001314+00000+0001T   00001314+0000001212          1400 NT6112               2AZ
167460000167460               167460               170213DP     1400+00000+DP0000003680+0000003680+000000000+000000516+0000004196+0000000000+I40000004196+0000000000+Z
167460001167460077-000311     167460006001023608666GIFT-BAG 11X14CM GLOSS 0000001000+00000613+00000+0001T   00000613+0000001214          1400 NT6112               2AZ
167460002167460903-000194     167460006009826020616SWT CHOC RP LOLLY 25G  0000001000+00001314+00000+0001T   00001314+0000001214          1400 NT6150               2AZ
167460003167460089-000030     167460006003000575671K/CHAIN LOVE MTL ASSTD 0000001000+00001753+00000+0001T   00001753+0000001214          1400 NT6205               2AZ
167461000167461               167461               170213DP     1400+00000+DP0000001753+0000001753+000000000+000000246+0000001990+0000000009+I20000000000+0000001990+Z
167461001167461077-000324     167461006001023677594GIFT-BAG 33X45CM E/D FL0000001000+00001753+00000+0001T   00001753+0000001214          1400 NT6112               2AZ
167462000167462               167462               170213DP     1400+00000+DP0000001753+0000001753+000000000+000000246+0000001990+0000000009+I20000000000+0000001990+Z
167462001167462079-000572     167462006003000533633ART+CRAFT O/PASTEL 12PC0000001000+00001753+00000+0001T   00001753+0000001220          1400 NT6130               2AZ
167463000167463               167463               170213DP     1400+00000+DP0000004418+0000004418+000000000+000000620+0000005030+0000000008+I20000000000+0000005030+Z
167463001167463112-116038     167463006009681820246TCS CARRIER BAG MIDI   0000001000+00000035+00000+0001T   00000035+0000001222          1400 NT6090               2AZ
167463002167463072-020312     167463006003000605330PET TOY PUP STARTER PCK0000001000+00002630+00000+0001T   00002630+0000001222          1400 NT6870               2AZ
167463003167463072-020353     167463006001023598097DOG/CAT-BOWL 17cm      0000001000+00001753+00000+0001T   00001753+0000001222          1400 NT6870               2AZ
167464000167464               167464               170213DP     1400+00000+DP0000003506+0000003506+000000000+000000492+0000003990+0000000008+I20000000000+0000003990+Z
167464001167464077-000299-A   167464006003000670888GIFT-BAG PAPER JMB LOVE0000002000+00001753+00000+0001T   00001753+0000001224          1400 NT6112               2AZ
167465000167465               167465               170213DP     1400+00000+DP0000002192+0000002192+000000000+000000307+0000002490+0000000009+I20000000000+0000002490+Z
167465001167465080-000127     167465006003000424351VALENTINES DAY 36x24CM 0000001000+00002192+00000+0001T   00002192+0000001224          1400 NT6112               2AZ
167466000167466               167466               170213DP     1400+00000+DP0000003993+0000003993+000000000+000000560+0000004550+0000000003+I20000000000+0000004550+Z
167466001167466033-001390     167466006003000667642HAIR PINS 4PC BUTTERFLY0000001000+00001753+00000+0001T   00001753+0000001227          1400 NT6200               2AZ
167466002167466080-000127     167466006003000424351VALENTINES DAY 36x24CM 0000001000+00002192+00000+0001T   00002192+0000001227          1400 NT6112               2AZ
167466003167466112-116069     167466006009681820277TCS CARRIER BAG JUMBO  0000001000+00000048+00000+0001T   00000048+0000001227          1400 NT6090               2AZ
167467000167467               167467               170213DP     1400+00000+DP0000001753+0000001753+000000000+000000246+0000001990+0000000009+I20000000000+0000001990+Z
167467001167467046-000014-A   167467004897006177708BATTERIES SIZE:AAA 8PCE0000001000+00001753+00000+0001T   00001753+0000001228          1400 NT6312               2AZ
167468000167468               167468               170213DP     1400+00000+DP0000010570+0000010570+000000000+000001482+0000012050+0000000002+I20000000000+0000012050+Z
167468001167468077-000011-D   167468006001023808554TISSUE-WRAP WHITE 10PCE0000001000+00000876+00000+0001T   00000876+0000001229          1400 NT6112               2AZ
167468002167468077-000299-A   167468006003000670888GIFT-BAG PAPER JMB LOVE0000001000+00001753+00000+0001T   00001753+0000001229          1400 NT6112               2AZ
167468003167468004-071209     167468006003000604678MOBILE IN CAR HOLDER   0000001000+00007893+00000+0001T   00007893+0000001229          1400 NT6310               2AZ
167468004167468112-116069     167468006009681820277TCS CARRIER BAG JUMBO  0000001000+00000048+00000+0001T   00000048+0000001229          1400 NT6090               2AZ
167469000167469               167469               170213DP     1400+00000+DP0000013205+0000013205+000000000+000001849+0000015050+0000000004+I20000000000+0000015050+Z
167469001167469497-068615     167469000078257686155H/PUMP HIGH-O/PUT 48cm 0000001000+00013157+00000+0001T   00013157+0000001231          1400 NT6787               2AZ
167469002167469112-116069     167469006009681820277TCS CARRIER BAG JUMBO  0000001000+00000048+00000+0001T   00000048+0000001231          1400 NT6090               2AZ
167470000167470               167470               170213DP     1400+00000+DP0000005345+0000005345+000000000+000000750+0000006095+0000000000+I40000006095+0000000000+Z
167470001167470903-000087     167470006001704000161SWT SPECKLED-EGGS 50G  0000002000+00001139+00000+0001T   00001139+0000001234          1400 NT6150               2AZ
167470002167470563-000318-E   167470006003000404124SERVIETTES 33cm GREEN  0000001000+00001314+00000+0001T   00001314+0000001234          1400 NT6214               2AZ
167470003167470563-000318-I   167470006003000404605SERVIETTES 33cm L/GREEN0000001000+00001753+00000+0001T   00001753+0000001234          1400 NT6214               2AZ
167471000167471               167471               170213DP     1400+00000+DP0000005262+0000005262+000000000+000000737+0000005990+0000000009+I20000000000+0000005990+Z
167471001167471007-000657     167471006003000081905STATIONERY SET GIRL    0000001000+00005262+00000+0001T   00005262+0000001236          1400 NT6130               2AZ
167472000167472               167472               170213DP     1400+00000+DP0000001578+0000001578+000000000+000000221+0000001790+0000000009+I20000000000+0000001790+Z
167472001167472018-000127     167472006001023380289MUG OCC STRAIGHT LOVE  0000001000+00001578+00000+0001T   00001753+0006471237          1400 NT6515               2AZ
167473000167473               167473               170213DP     1400+00000+DP0000001753+0000001753+000000000+000000246+0000001990+0000000009+I20000000000+0000001990+Z
167473001167473077-000324     167473006001023677594GIFT-BAG 33X45CM E/D FL0000001000+00001753+00000+0001T   00001753+0000001238          1400 NT6112               2AZ
167474000167474               167474               170213DP     1400+00000+DP0000001753+0000001753+000000000+000000246+0000001990+0000000009+I20000000000+0000001990+Z
167474001167474077-000301     167474008010410010188BAG LRG 25X32CM B/DAY  0000001000+00001753+00000+0001T   00001753+0000001240          1400 NT6112               2AZ
167475000167475               167475               170213DP     1400+00000+DP0000015786-0000015786-000000000+000002212-0000018000-0000000002+I20000000000+0000018000-Z
167475001167475467-000019     167475006001023746832BEACH-SET 16PCE BUCKET 0000002000-00007893+00000+0001T   00007893+0000001240          1400 NT67853IC            2 Z
167476000167476               167476               170213DP     1400+00000+DP0000005998+0000005998+000000000+000000840+0000006830+0000000008+I20000000000+0000006830+Z
167476001167476301-000014     167476006001023784117ORN SENTIMENT ASSTD    0000001000+00004385+00000+0001T   00004385+0000001252          1400 NT6505               2AZ
167476002167476018-000127     167476006001023380289MUG OCC STRAIGHT LOVE  0000001000+00001578+00000+0001T   00001753+0006471252          1400 NT6515               2AZ
167476003167476112-116038     167476006009681820246TCS CARRIER BAG MIDI   0000001000+00000035+00000+0001T   00000035+0000001252          1400 NT6090               2AZ
167477000167477               167477               170213DP     1400+00000+DP0000001753+0000001753+000000000+000000246+0000001990+0000000009+I20000000000+0000001990+Z
167477001167477079-013099     167477006003000081875ART+CRAFT EYES ASSTD   0000001000+00001753+00000+0001T   00001753+0000001253          1400 NT6130               2AZ
167478000167478               167478               170213DP     1400+00000+DP0000008589+0000008589+000000000+000001204+0000009790+0000000003+I20000000000+0000009790+Z
167478001167478080-000118     167478006003000237562CARD&ENVLPE-CONGRATS   0000001000+00001753+00000+0001T   00001753+0000001258          1400 NT6112               2AZ
167478002167478903-004950     167478006002580020304SWT APRICOT SURPRISE   0000001000+00001314+00000+0001T   00001314+0000001258          1400 NT6150               2AZ
167478003167478174-000304     167478006001023754349TRAVEL NECK-PILLOW     0000001000+00003507+00000+0001T   00003507+0000001258          1400 NT6205               2AZ
167478004167478077-000302     167478008010410010195GIFT-BAG 18X23CM E/D   0000001000+00000876+00000+0001T   00000876+0000001258          1400 NT6112               2AZ
167478005167478007-000302     167478006009635830000BOOK H/COVER A4 96-PAGE0000001000+00001139+00000+0001T   00001139+0000001258          1400 NT6130               2AZ
167479000167479               167479               170213DP     1400+00000+DP0000000048+0000000048+000000000+000000007+0000000050+0000000005+I20000000000+0000000050+Z
167479001167479112-116069     167479006009681820277TCS CARRIER BAG JUMBO  0000001000+00000048+00000+0001T   00000048+0000001258          1400 NT6090               2AZ
167480000167480               167480               170213DP     1400+00000+DP0000007015+0000007015+000000000+000000983+0000007990+0000000008+I20000000000+0000007990+Z
167480001167480140-005093     167480006003000331338INSECT-KILL RAQT-SHAPED0000001000+00005262+00000+0001T   00005262+0000001259          1400 NT6830               2AZ
167480002167480037-000004     167480006001023763679ASHTRAY PL TUB 8X11CM  0000001000+00001753+00000+0001T   00002192+0008191259          1400 NT6515               2AZ
167481000167481               167481               170213DP     1400+00000+DP0000002453+0000002453+000000000+000000344+0000002797+0000000000+I40000002797+0000000000+Z
167481001167481566-000007     167481006001023761187S/BOOK SUPER VALUE     0000001000+00001753+00000+0001T   00001753+0000001305          1400 NT6130               2AZ
167481002167481266-001505     167481006001023641816TOP,TWINE & MARBLES    0000001000+00000700+00000+0001T   00000700+0000001305          1400 NT6710               2AZ
167482000167482               167482               170213DP     1400+00000+DP0000001314+0000001314+000000000+000000184+0000001490+0000000008+I20000000000+0000001490+Z
167482001167482046-000012     167482006904708013062BATTERIES AA  CARD-OF-40000001000+00001314+00000+0001T   00001314+0000001305          1400 NT6312               2AZ
167483000167483               167483               170213DP     1400+00000+DP0000003507+0000003507+000000000+000000491+0000003990+0000000008+I20000000000+0000003990+Z
167483001167483034-091339     167483006003000568253BABY BIB 33x39cm 4ASSTD0000001000+00003507+00000+0001T   00003507+0000001314          1400 NT6215               2AZ
167484000167484               167484               170213DP     1400+00000+DP0000003542+0000003542+000000000+000000496+0000004030+0000000008+I20000000000+0000004030+Z
167484001167484018-005009     167484006001023725608MUG W/PLUSH-BEAR LOVE  0000001000+00003507+00000+0001T   00003507+0000001320          1400 NT6515               2AZ
167484002167484112-116038     167484006009681820246TCS CARRIER BAG MIDI   0000001000+00000035+00000+0001T   00000035+0000001320          1400 NT6090               2AZ
167485000167485               167485               170213DP     1400+00000+DP0000010118+0000010118+000000000+000001417+0000011535+0000000000+I40000011535+0000000000+Z
167485001167485079-000345     167485006001023890146FELT-TIP PENS 8PCE     0000001000+00003069+00000+0001T   00003069+0000001324          1400 NT6130               2AZ
167485002167485079-000013     167485006001023463890P/CRAYONS 24COL 18cm   0000001000+00003507+00000+0001T   00003507+0000001324          1400 NT6130               2AZ
167485003167485079-000342     167485006001023913326FELT-TIP PENS 24PCE    0000001000+00003507+00000+0001T   00003507+0000001324          1400 NT6130               2AZ
167485004167485112-116038     167485006009681820246TCS CARRIER BAG MIDI   0000001000+00000035+00000+0001T   00000035+0000001324          1400 NT6090               2AZ
167486000167486               167486               170213DP     1400+00000+DP0000015741+0000015741+000000000+000002206+0000017947+0000000000+I40000017947+0000000000+Z
167486001167486077-000384     167486006003000275243G/BAG HOT STMP 18x23CM 0000001000+00001490+00000+0001T   00001490+0000001327          1400 NT6112               2AZ
167486002167486018-030000     167486006003000421060MUG OCCASIONS LOVE 2PCE0000001000+00004385+00000+0001T   00004385+0000001327          1400 NT6515               2AZ
167486003167486106-003115     167486006002689011357ICE CUBE-TRAYS 2PCE WHT0000001000+00001578+00000+0001T   00001578+0000001327          1400 NT6210               2AZ
167486004167486036-000063     167486006009654960436COATHANGERS VIRGIN 5PCE0000001000+00001753+00000+0001T   00001753+0000001327          1400 NT6212               2AZ
167486005167486251-000041     167486006001023515889SEAL-TAPE BUFF 48mmx50m0000001000+00001227+00000+0001T   00001227+0000001327          1400 NT6810               2AZ
167486006167486306-001130-A   167486006003000359271FIRSTAID SUPPORT ANKLE 0000001000+00001753+00000+0001T   00001753+0000001327          1400 NT6200               2AZ
167486007167486028-002101     167486006002580009507CHAIR JUNIOR    ASSTD  0000001000+00003507+00000+0001T   00003507+0000001327          1400 NT6305               2AZ
167486008167486112-116069     167486006009681820277TCS CARRIER BAG JUMBO  0000001000+00000048+00000+0001T   00000048+0000001327          1400 NT6090               2AZ
167487000167487               167487               170213DP     1400+00000+DP0000005558+0000005558+000000000+000000779+0000006330+0000000007+I20000000000+0000006330+Z
167487001167487079-000510     167487006001023509079CRAYONS WAX 12-COLOUR  0000001000+00002455+00000+0001T   00002455+0000001328          1400 NT6130               2AZ
167487002167487079-000289     167487006001023493217PAINT WTR COL CAKE 6COL0000001000+00001578+00000+0001T   00001578+0000001328          1400 NT6130               2AZ
167487003167487567-014133     167487006003000560103BOOK COLOURING 48 PAGE 0000001000+00001490+00000+0001T   00001490+0000001328          1400 NT6757               2AZ
167487004167487112-116038     167487006009681820246TCS CARRIER BAG MIDI   0000001000+00000035+00000+0001T   00000035+0000001328          1400 NT6090               2AZ
167488000167488               167488               170213DP     1400+00000+DP0000000876+0000000876+000000000+000000123+0000000990+0000000009+I20000000000+0000000990+Z
167488001167488071-005213     167488006001023690371CELLOTAPE 12mmx33m     0000001000+00000876+00000+0001T   00000876+0000001331          1400 NT6130               2AZ
167489000167489               167489               170213DP     1400+00000+DP0000001753+0000001753+000000000+000000246+0000001999+0000000000+I40000001999+0000000000+Z
167489001167489301-085002     167489006003000420704ORN OCC. LOVE BELL ASST0000001000+00001753+00000+0001T   00002630+0008121333          1400 NT6505               2AZ
167490000167490               167490               170213DP     1400+00000+DP0000003506+0000003506+000000000+000000492+0000003990+0000000008+I20000000000+0000003990+Z
167490001167490077-000116     167490006003000240777GIFT-WRAP 700mmx2m COL 0000002000+00001753+00000+0001T   00001753+0000001339          1400 NT6112               2AZ
167491000167491               167491               170213DP     1400+00000+DP0000010559+0000010559+000000000+000001479+0000012030+0000000008+I20000000000+0000012030+Z
167491001167491567-010161     167491009780000008516BOOK TOP ASSTD MILLS   0000002000+00005262+00000+0001T   00005262+0000001342          1400 NT6757               2AZ
167491002167491112-116038     167491006009681820246TCS CARRIER BAG MIDI   0000001000+00000035+00000+0001T   00000035+0000001342          1400 NT6090               2AZ
167492000167492               167492               170213DP     1400+00000+DP0000004904+0000004904+000000000+000000690+0000005594+0000000000+I40000005594+0000000000+Z
167492001167492080-000124     167492006003000297733CARD & ENV VALENTINES  0000001000+00001578+00000+0001T   00001578+0000001343          1400 NT6112               2AZ
167492002167492077-000303     167492006001023593757GIFT-BAG PAPER MED     0000001000+00001578+00000+0001T   00001578+0000001343          1400 NT6112               2AZ
167492003167492903-000012     167492006002099007308SWT MALLOW S/BERRY     0000004000+00000437+00000+0001T   00000437+0000001343          1400 NT6150               2AZ
167493000167493               167493               170213DP     1400+00000+DP0000004869+0000004869+000000000+000000682+0000005550+0000000001+I20000000000+0000005550+Z
167493001167493263-000613     167493006003000241538CAR FLIP & SHOOT + 3CAR0000001000+00003507+00000+0001T   00003507+0000001501          1400 NT6710               2AZ
167493002167493107-004105     167493006009703860984BUCKET 9L OPEN         0000001000+00001314+00000+0001T   00001314+0000001501          1400 NT6210               2AZ
167493003167493112-116069     167493006009681820277TCS CARRIER BAG JUMBO  0000001000+00000048+00000+0001T   00000048+0000001501          1400 NT6090               2AZ
167494000167494               167494               170213DP     1400+00000+DP0000009681+0000009681+000000000+000001356+0000011030+0000000007+I20000000000+0000011030+Z
167494001167494031-005853     167494006003000442416P/FRAME WDN TWIN HEARTS0000001000+00003507+00000+0001T   00003507+0000001508          1400 NT6510               2AZ
167494002167494018-050000     167494006003000412679MUG OCC LOVE TWIN BEAR 0000001000+00006139+00000+0001T   00006139+0000001508          1400 NT6515               2AZ
167494003167494112-116038     167494006009681820246TCS CARRIER BAG MIDI   0000001000+00000035+00000+0001T   00000035+0000001508          1400 NT6090               2AZ
167495000167495               167495               170213DP     1400+00000+DP0000002630+0000002630+000000000+000000369+0000002990+0000000009+I20000000000+0000002990+Z
167495001167495077-000270     167495006003000395453GIFT-BAG PPR JMB 33X45 0000001000+00002630+00000+0001T   00002630+0000001511          1400 NT6112               2AZ
167496000167496               167496               170213DP     1400+00000+DP0000000700+0000000700+000000000+000000098+0000000790+0000000008+I20000000000+0000000790+Z
167496001167496564-000012     167496006001023130075BUBBLE BOTTLE MAGIC    0000001000+00000700+00000+0001T   00000700+0000001512          1400 NT6131               2AZ
167497000167497               167497               170213DP     1400+00000+DP0000001578+0000001578+000000000+000000221+0000001790+0000000009+I20000000000+0000001790+Z
167497001167497080-000124     167497006003000297733CARD & ENV VALENTINES  0000001000+00001578+00000+0001T   00001578+0000001514          1400 NT6112               2AZ
167498000167498               167498               170213DP     1400+00000+DP0000006139+0000006139+000000000+000000860+0000006990+0000000009+I20000000000+0000006990+Z
167498001167498018-050000     167498006003000412679MUG OCC LOVE TWIN BEAR 0000001000+00006139+00000+0001T   00006139+0000001521          1400 NT6515               2AZ
167499000167499               167499               170213DP     1400+00000+DP0000003507+0000003507+000000000+000000491+0000003990+0000000008+I20000000000+0000003990+Z
167499001167499079-006498     167499006001023836151GLITTER SET 10PCE      0000001000+00003507+00000+0001T   00003507+0000001523          1400 NT6130               2AZ
167500000167500               167500               170213DP     1400+00000+DP0000000350+0000000350+000000000+000000049+0000000390+0000000009+I20000000000+0000000390+Z
167500001167500007-000167     167500006009685857347SPIRAL NOTES A7 72PG   0000001000+00000350+00000+0001T   00000350+0000001535          1400 NT6130               2AZ
167501000167501               167501               170213DP     1400+00000+DP0000008287+0000008287+000000000+000001163+0000009450+0000000000+I20000000000+0000009450+Z
167501001167501264-000921     167501000090159150442MAISTO CAR 3" FRESH    0000003000+00001753+00000+0001T   00001753+0000001617          1400 NT6710               2AZ
167501002167501077-000299     167501006003000395576G/BAG 32x25cm LRG LOVE 0000002000+00001490+00000+0001T   00001490+0000001617          1400 NT6112               2AZ
167501003167501112-116069     167501006009681820277TCS CARRIER BAG JUMBO  0000001000+00000048+00000+0001T   00000048+0000001617          1400 NT6090               2AZ
167502000167502               167502               170213DP     1400+00000+DP0000008819+0000008819+000000000+000001235+0000010054+0000000000+I40000010054+0000000000+Z
167502001167502030-004030     167502006003000406418WALL MOUNTED LETTER    0000001000+00008771+00000+0001T   00012279+0008121620          1400 NT6505               2AZ
167502002167502112-116069     167502006009681820277TCS CARRIER BAG JUMBO  0000001000+00000048+00000+0001T   00000048+0000001620          1400 NT6090               2AZ
167503000167503               167503               170213DP     1400+00000+DP0000005260+0000005260+000000000+000000738+0000005998+0000000000+I40000005998+0000000000+Z
167503001167503018-000129     167503006001023403353MUG OCC. LOVE V-SHAPE  0000001000+00002630+00000+0001T   00002630+0000001621          1400 NT6515               2AZ
167503002167503368-000100     167503006001023474742PLUSH MD BEAR 12cm     0000001000+00002630+00000+0001T   00002630+0000001621          1400 NT6745               2AZ
167504000167504               167504               170213DP     1400+00000+DP0000016270+0000016270+000000000+000002280+0000018550+0000000000+I40000018550+0000000000+Z
167504001167504079-006500     167504006001023557186GLUE GLITTER 6/10 PCE  0000001000+00001753+00000+0001T   00001753+0000001622          1400 NT6130               2AZ
167504002167504079-013111     167504006003000683024CREATE A HAT SET       0000001000+00003946+00000+0001T   00003946+0000001622          1400 NT6130               2AZ
167504003167504079-000590     167504006003000543236SKETCH PAD & PAINT SET 0000001000+00007016+00000+0001T   00007016+0000001622          1400 NT6130               2AZ
167504004167504079-000600     167504006003000160990ART-SHEETS FOAM ASSTD-C0000001000+00003507+00000+0001T   00003507+0000001622          1400 NT6130               2AZ
167504005167504112-116069     167504006009681820277TCS CARRIER BAG JUMBO  0000001000+00000048+00000+0001T   00000048+0000001622          1400 NT6090               2AZ
167505000167505               167505               170213DP     1400+00000+DP0000001788+0000001788+000000000+000000251+0000002030+0000000009+I20000000000+0000002030+Z
167505001167505266-000503     167505006001023791740TRANSFORMER WARRIOR 8cm0000001000+00001753+00000+0001T   00001753+0000001624          1400 NT6710               2AZ
167505002167505112-116038     167505006009681820246TCS CARRIER BAG MIDI   0000001000+00000035+00000+0001T   00000035+0000001624          1400 NT6090               2AZ
167506000167506               167506               170213DP     1400+00000+DP0000003117+0000003117+000000000+000000437+0000003550+0000000004+I20000000000+0000003550+Z
167506001167506301-085008     167506006003000673933ORN OCC.LOVE TINSEL HRT0000001000+00003069+00000+0001T   00003069+0000001625          1400 NT6505               2AZ
167506002167506112-116069     167506006009681820277TCS CARRIER BAG JUMBO  0000001000+00000048+00000+0001T   00000048+0000001625          1400 NT6090               2AZ
167507000167507               167507               170213DP     1400+00000+DP0000005923+0000005923+000000000+000000830+0000006753+0000000000+I40000006753+0000000000+Z
167507001167507077-000299     167507006003000395576G/BAG 32x25cm LRG LOVE 0000001000+00001490+00000+0001T   00001490+0000001627          1400 NT6112               2AZ
167507002167507368-000001     167507006003000097982Plush Bear 25cm        0000001000+00004385+00000+0001T   00004385+0000001627          1400 NT6745               2AZ
167507003167507112-116069     167507006009681820277TCS CARRIER BAG JUMBO  0000001000+00000048+00000+0001T   00000048+0000001627          1400 NT6090               2AZ
167508000167508               167508               170213DP     1400+00000+DP0000004385+0000004385+000000000+000000614+0000004990+0000000009+I20000000000+0000004990+Z
167508001167508368-000001     167508006003000097982Plush Bear 25cm        0000001000+00004385+00000+0001T   00004385+0000001640          1400 NT6745               2AZ
167509000167509               167509               170213DP     1400+00000+DP0000004420+0000004420+000000000+000000619+0000005030+0000000009+I20000000000+0000005030+Z
167509001167509024-000118     167509006001023422316N/STICK C/PAN HEART    0000001000+00004385+00000+0001T   00004385+0000001641          1400 NT6300               2AZ
167509002167509112-116038     167509006009681820246TCS CARRIER BAG MIDI   0000001000+00000035+00000+0001T   00000035+0000001641          1400 NT6090               2AZ
167510000167510               167510               170213DP     1400+00000+DP0000004385+0000004385+000000000+000000614+0000004990+0000000009+I20000000000+0000004990+Z
167510001167510082-000100     167510006003000360246READING GLS STRENGHT:1 0000001000+00004385+00000+0001T   00004385+0000001642          1400 NT6160               2AZ
167511000167511               167511               170213DP     1400+00000+DP0000011184+0000011184+000000000+000001567+0000012750+0000000001+I20000000000+0000012750+Z
167511001167511018-050000     167511006003000412679MUG OCC LOVE TWIN BEAR 0000001000+00006139+00000+0001T   00006139+0000001645          1400 NT6515               2AZ
167511002167511301-085004     167511006003000420469ORN LOVE PLAQUE 21X10CM0000001000+00003507+00000+0001T   00003946+0006471645          1400 NT6505               2AZ
167511003167511077-000299     167511006003000395576G/BAG 32x25cm LRG LOVE 0000001000+00001490+00000+0001T   00001490+0000001645          1400 NT6112               2AZ
167511004167511112-116069     167511006009681820277TCS CARRIER BAG JUMBO  0000001000+00000048+00000+0001T   00000048+0000001645          1400 NT6090               2AZ
167512000167512               167512               170213DP     1400+00000+DP0000008816+0000008816+000000000+000001236+0000010050+0000000002+I20000000000+0000010050+Z
167512001167512031-006528     167512006001023670083FRAME 13x18cm FLOWERS  0000001000+00002630+00000+0001T   00002630+0000001646          1400 NT6510               2AZ
167512002167512089-060027     167512006003000245871KEY-CHAIN HEART 6X6cm  0000001000+00003069+00000+0001T   00003069+0000001646          1400 NT6205               2AZ
167512003167512301-085008     167512006003000673933ORN OCC.LOVE TINSEL HRT0000001000+00003069+00000+0001T   00003069+0000001646          1400 NT6505               2AZ
167512004167512112-116069     167512006009681820277TCS CARRIER BAG JUMBO  0000001000+00000048+00000+0001T   00000048+0000001646          1400 NT6090               2AZ
167513000167513               167513               170213DP     1400+00000+DP0000002192+0000002192+000000000+000000307+0000002490+0000000009+I20000000000+0000002490+Z
167513001167513077-000926     167513006003000414178G/WRAP 700mmx2m LOVE   0000001000+00002192+00000+0001T   00002192+0000001647          1400 NT6112               2AZ
167514000167514               167514               170213DP     1400+00000+DP0000004732+0000004732+000000000+000000664+0000005390+0000000006+I20000000000+0000005390+Z
167514001167514077-000289     167514006001023901996GIFT BOX 20x25x11cm    0000001000+00001753+00000+0001T   00001753+0000001649          1400 NT6112               2AZ
167514002167514077-000314     167514006003000181148GIFT-BAG 11X14CM MATT  0000001000+00000876+00000+0001T   00000876+0000001649          1400 NT6112               2AZ
167514003167514903-000504     167514006001704012416SWT CHOC JELLY BEANS   0000001000+00001227+00000+0001T   00001227+0000001649          1400 NT6150               2AZ
167514004167514903-000494     167514006001704009911SWT GUMMY TEENY TEDDIES0000001000+00000876+00000+0001T   00000876+0000001649          1400 NT6150               2AZ
167515000167515               167515               170213DP     1400+00000+DP0000000876+0000000876+000000000+000000123+0000000999+0000000000+I40000000999+0000000000+Z
167515001167515077-000314     167515006003000181148GIFT-BAG 11X14CM MATT  0000001000+00000876+00000+0001T   00000876+0000001651          1400 NT6112               2AZ
167516000167516               167516               170213DP     1400+00000+DP0000014555+0000014555+000000000+000002039+0000016594+0000000000+I40000016594+0000000000+Z
167516001167516567-011423     167516006003000641345BK COLOURING THERAPY A50000001000+00006139+00000+0001T   00006139+0000001652          1400 NT6757               2AZ
167516002167516564-000012     167516006001023130075BUBBLE BOTTLE MAGIC    0000001000+00000700+00000+0001T   00000700+0000001652          1400 NT6131               2AZ
167516003167516079-000335     167516006003000670550THERAPY P/CRAYONS 30   0000001000+00007016+00000+0001T   00007016+0000001652          1400 NT6130               2AZ
167516004167516564-000012     167516006001023130075BUBBLE BOTTLE MAGIC    0000001000+00000700+00000+0001T   00000700+0000001652          1400 NT6131               2AZ
167517000167517               167517               170213DP     1400+00000+DP0000002100+0000002100+000000000+000000296+0000002390+0000000006+I20000000000+0000002390+Z
167517001167517903-000077     167517006939873501687SWT GS MAGIC ROCK FRUIT0000004000+00000525+00000+0001T   00000525+0000001652          1400 NT6150               2AZ
167518000167518               167518               170213DP     1400+00000+DP0000011435+0000011435+000000000+000001602+0000013030+0000000007+I20000000000+0000013030+Z
167518001167518566-000309     167518006003000523283STICKER CHALK-BOARD    0000001000+00001753+00000+0001T   00001753+0000001655          1400 NT6130               2AZ
167518002167518016-006524     167518006003000579358S/JAR GLS 750ml ASSTD  0000001000+00005262+00000+0001T   00005262+0000001655          1400 NT6300               2AZ
167518003167518016-006497     167518006003000120055S/JAR-SET 4PCE MINI    0000001000+00004385+00000+0001T   00004385+0000001655          1400 NT6300               2AZ
167518004167518112-116038     167518006009681820246TCS CARRIER BAG MIDI   0000001000+00000035+00000+0001T   00000035+0000001655          1400 NT6090               2AZ
167519000167519               167519               170213DP     1400+00000+DP0000011401+0000011401+000000000+000001597+0000012998+0000000000+I40000012998+0000000000+Z
167519001167519366-002195     167519006001023990549DRESS UP WINGS FEATHER 0000001000+00005262+00000+0001T   00005262+0000001657          1400 NT6131               2AZ
167519002167519266-001002     167519006001023914163PLAYSET SWORD & WEAPON 0000001000+00006139+00000+0001T   00006139+0000001657          1400 NT6710               2AZ
167520000167520               167520               170213DP     1400+00000+DP0000001578+0000001578+000000000+000000221+0000001790+0000000009+I20000000000+0000001790+Z
167520001167520903-002901     167520005996071650655QUICK MILK 5 S/BERRY   0000001000+00001578+00000+0001T   00001578+0000001657          1400 NT6150               2AZ
167521000167521               167521               170213DP     1400+00000+DP0000002191+0000002191+000000000+000000307+0000002498+0000000000+I40000002498+0000000000+Z
167521001167521903-000518     167521006001704012782SWT STRAWS S/BERRY 100g0000001000+00001227+00000+0001T   00001227+0000001701          1400 NT6150               2AZ
167521002167521903-004960     167521008410525221842SWT GUMMY STR/BERRY 50G0000001000+00000964+00000+0001T   00000964+0000001701          1400 NT6150               2AZ
167522000167522               167522               170213DP     1400+00000+DP0000004768+0000004768+000000000+000000669+0000005430+0000000007+I20000000000+0000005430+Z
167522001167522301-085000     167522006003000674299 ORN OCC. LOVE HEARTS  0000001000+00002192+00000+0001T   00002192+0000001702          1400 NT6505               2AZ
167522002167522077-000010-U   167522006001023168863CREPE-PAPER CERISE-PINK0000001000+00000788+00000+0001T   00000788+0000001702          1400 NT6112               2AZ
167522003167522006-000120     167522006001023346889BALLOONS 10PC MIX COL  0000001000+00001753+00000+0001T   00001753+0000001702          1400 NT6131               2AZ
167522004167522112-116038     167522006009681820246TCS CARRIER BAG MIDI   0000001000+00000035+00000+0001T   00000035+0000001702          1400 NT6090               2AZ
167523000167523               167523               170213DP     1400+00000+DP0000002104+0000002104+000000000+000000295+0000002390+0000000009+I20000000000+0000002390+Z
167523001167523903-000095     167523006001704011495SWT SPECKLED-EGGS 100G 0000001000+00002104+00000+0001T   00002104+0000001730          1400 NT6150               2AZ
167524000167524               167524               170213DP     1400+00000+DP0000002630+0000002630+000000000+000000369+0000002990+0000000009+I20000000000+0000002990+Z
167524001167524077-000456     167524006003000285549G/BAG METALLIC JMB EMB 0000001000+00002630+00000+0001T   00002630+0000001731          1400 NT6112               2AZ
167525000167525               167525               170213DP     1400+00000+DP0000003506+0000003506+000000000+000000492+0000003990+0000000008+I20000000000+0000003990+Z
167525001167525006-000120     167525006001023346889BALLOONS 10PC MIX COL  0000002000+00001753+00000+0001T   00001753+0000001734          1400 NT6131               2AZ
167526000167526               167526               170213DP     1400+00000+DP0000002192-0000002192-000000000+000000307-0000002500-0000000001+I20000000000+0000002500-Z
167526001167526080-000127     167526006003000424351VALENTINES DAY 36x24CM 0000001000-00002192+00000+0001T   00002192+0000001736          1400 NT61123IC            2 Z
167527000167527               167527               170213DP     1400+00000+DP0000001402+0000001402+000000000+000000197+0000001590+0000000009+I20000000000+0000001590+Z
167527001167527304-001204     167527006001023737984FLOWER OCC. TEDDY/ROSES0000001000+00001402+00000+0001T   00001490+0006471736          1400 NT6510               2AZ
167528000167528               167528               170213DP     1400+00000+DP0000002979+0000002979+000000000+000000418+0000003390+0000000007+I20000000000+0000003390+Z
167528001167528903-000220     167528006001704007368SWT JELLY BEANS 60G    0000001000+00000876+00000+0001T   00000876+0000001737          1400 NT6150               2AZ
167528002167528903-000849     167528008692806080083SWT SNACK BISCUIT 70g  0000001000+00000613+00000+0001T   00000613+0000001737          1400 NT6150               2AZ
167528003167528077-000299     167528006003000395576G/BAG 32x25cm LRG LOVE 0000001000+00001490+00000+0001T   00001490+0000001737          1400 NT6112               2AZ
167529000167529               167529               170213DP     1400+00000+DP0000003506+0000003506+000000000+000000492+0000003990+0000000008+I20000000000+0000003990+Z
167529001167529301-085002     167529006003000420704ORN OCC. LOVE BELL ASST0000001000+00001753+00000+0001T   00002630+0008121739          1400 NT6505               2AZ
167529002167529037-000004     167529006001023763679ASHTRAY PL TUB 8X11CM  0000001000+00001753+00000+0001T   00002192+0008191739          1400 NT6515               2AZ
167530000167530               167530               170213DP     1400+00000+DP0000002146+0000002146+000000000+000000301+0000002440+0000000007+I20000000000+0000002440+Z
167530001167530105-001037     167530006003000615438CONTAINER W/VENT 700ml 0000001000+00001314+00000+0001T   00001753+0008161740          1400 NT6210               2AZ
167530002167530159-000150-B   167530006003000058440SOAP-BOX PL ASSORTED   0000001000+00000832+00000+0001T   00000832+0000001740          1400 NT6200               2AZ
167531000167531               167531               170213DP     1400+00000+DP0000015217+0000015217+000000000+000002132+0000017340+0000000009+I20000000000+0000017340+Z
167531001167531105-000605     167531006005387000517STORAGE CONTAINRS 250ml0000001000+00003771+00000+0001T   00003771+0000001744          1400 NT6210               2AZ
167531002167531105-001010     167531006002580007329LUNCH-BOX 1L  ASSTD    0000003000+00000876+00000+0001T   00000876+0000001744          1400 NT6210               2AZ
167531003167531028-000030     167531006001023810908COOLER-BAG 6PACK       0000002000+00004385+00000+0001T   00004385+0000001744          1400 NT6305               2AZ
167531004167531112-116069     167531006009681820277TCS CARRIER BAG JUMBO  0000001000+00000048+00000+0001T   00000048+0000001744          1400 NT6090               2AZ
167532000167532               167532               170213DP     1400+00000+DP0000003507+0000003507+000000000+000000491+0000003990+0000000008+I20000000000+0000003990+Z
167532001167532018-005009     167532006001023725608MUG W/PLUSH-BEAR LOVE  0000001000+00003507+00000+0001T   00003507+0000001746          1400 NT6515               2AZ
167533000167533               167533               170213DP     1400+00000+DP0000001578+0000001578+000000000+000000221+0000001790+0000000009+I20000000000+0000001790+Z
167533001167533077-000303     167533006001023593757GIFT-BAG PAPER MED     0000001000+00001578+00000+0001T   00001578+0000001747          1400 NT6112               2AZ
167534000167534               167534               170213DP     1400+00000+DP0000016710+0000016710+000000000+000002341+0000019050+0000000001+I20000000000+0000019050+Z
167534001167534466-000021     167534006003000668960FRISBEE 26cm           0000001000+00006139+00000+0001T   00006139+0000001749          1400 NT6785               2AZ
167534002167534565-000888     167534006003000607846NOVELTY MESH BALL      0000001000+00001753+00000+0001T   00001753+0000001749          1400 NT6745               2AZ
167534003167534368-000049     167534006003000536955PLUSH BEAR 15cm LOVE   0000001000+00004385+00000+0001T   00004385+0000001749          1400 NT6745               2AZ
167534004167534112-116069     167534006009681820277TCS CARRIER BAG JUMBO  0000001000+00000048+00000+0001T   00000048+0000001749          1400 NT6090               2AZ
167534005167534368-000049     167534006003000536955PLUSH BEAR 15cm LOVE   0000001000+00004385+00000+0001T   00004385+0000001749          1400 NT6745               2AZ
167535000167535               167535               170213DP     1400+00000+DP0000000874+0000000874+000000000+000000124+0000000990+0000000008+I20000000000+0000000990+Z
167535001167535903-000012     167535006002099007308SWT MALLOW S/BERRY     0000002000+00000437+00000+0001T   00000437+0000001751          1400 NT6150               2AZ
167536000167536               167536               170213DP     1400+00000+DP0000000788+0000000788+000000000+000000111+0000000890+0000000009+I20000000000+0000000890+Z
167536001167536903-000138     167536006002099004314SWT GS WINE GUMS 60G   0000001000+00000788+00000+0001T   00000788+0000001751          1400 NT6150               2AZ
167537000167537               167537               170213DP     1400+00000+DP0000001578+0000001578+000000000+000000221+0000001790+0000000009+I20000000000+0000001790+Z
167537001167537077-000303     167537006001023593757GIFT-BAG PAPER MED     0000001000+00001578+00000+0001T   00001578+0000001758          1400 NT6112               2AZ
167538000167538               167538               170213DP     1400+00000+DP0000001450+0000001450+000000000+000000204+0000001650+0000000004+I20000000000+0000001650+Z
167538001167538304-001204     167538006001023737984FLOWER OCC. TEDDY/ROSES0000001000+00001402+00000+0001T   00001490+0006471758          1400 NT6510               2AZ
167538002167538112-116069     167538006009681820277TCS CARRIER BAG JUMBO  0000001000+00000048+00000+0001T   00000048+0000001758          1400 NT6090               2AZ
167539000167539               167539               170213DP     1400+00000+DP0000000437+0000000437+000000000+000000062+0000000490+0000000009+I20000000000+0000000490+Z
167539001167539080-000133-A   167539006003000647019MINI VALENTINES CARD   0000001000+00000437+00000+0001T   00000437+0000001759          1400 NT6112               2AZ
167540000167540               167540               170213DP     1400+00000+DP0000001753+0000001753+000000000+000000246+0000001990+0000000009+I20000000000+0000001990+Z
167540001167540362-002464     167540006003000167388HAIR EXT 30cm 6PCS COL 0000001000+00001753+00000+0001T   00001753+0000001800          1400 NT6160               2AZ
167541000167541               167541               170213DP     1400+00000+DP0000006133+0000006133+000000000+000000861+0000006994+0000000000+I40000006994+0000000000+Z
167541001167541033-000780     167541006001023752611COSMETIC-BRUSH-SET 7PCE0000001000+00002192+00000+0001T   00002192+0000001806          1400 NT6200               2AZ
167541002167541084-006996     167541006003000092833NAIL CLIPPER 6cm       0000001000+00001753+00000+0001T   00001753+0000001806          1400 NT6200               2AZ
167541003167541903-000194     167541006009826020616SWT CHOC RP LOLLY 25G  0000001000+00001314+00000+0001T   00001314+0000001806          1400 NT6150               2AZ
167541004167541903-000012     167541006002099007308SWT MALLOW S/BERRY     0000002000+00000437+00000+0001T   00000437+0000001806          1400 NT6150               2AZ
167542000167542               167542               170213DP     1400+00000+DP0000001753+0000001753+000000000+000000246+0000001990+0000000009+I20000000000+0000001990+Z
167542001167542565-000859     167542006001023691361SUNGLASSES GIANT       0000001000+00001753+00000+0001T   00001753+0000001806          1400 NT6745               2AZ
167543000167543               167543               170213DP     1400+00000+DP0000006139+0000006139+000000000+000000860+0000006990+0000000009+I20000000000+0000006990+Z
167543001167543366-000900     167543006003000006960DRESS UP WINGS BUG     0000001000+00006139+00000+0001T   00006139+0000001806          1400 NT6131               2AZ
167544000167544               167544               170213DP     1400+00000+DP0000001226+0000001226+000000000+000000172+0000001390+0000000008+I20000000000+0000001390+Z
167544001167544903-000849     167544008692806080083SWT SNACK BISCUIT 70g  0000002000+00000613+00000+0001T   00000613+0000001807          1400 NT6150               2AZ
167545000167545               167545               170213DP     1400+00000+DP0000038614+0000038614+000000000+000005413+0000044027+0000000000+I40000044027+0000000000+Z
167545001167545304-001204     167545006001023737984FLOWER OCC. TEDDY/ROSES0000005000+00001402+00000+0001T   00001490+0006471810          1400 NT6510               2AZ
167545002167545077-000303     167545006001023593757GIFT-BAG PAPER MED     0000001000+00001578+00000+0001T   00001578+0000001810          1400 NT6112               2AZ
167545003167545262-000651     167545006001023754561DIE CAST SET 5PC RACER 0000003000+00002630+00000+0001T   00002630+0000001810          1400 NT6710               2AZ
167545004167545018-000136     167545006001023659026MUG OCC LOVE W/PLUSH   0000002000+00003507+00000+0001T   00003507+0000001810          1400 NT6515               2AZ
167545005167545903-000194     167545006009826020616SWT CHOC RP LOLLY 25G  0000005000+00001314+00000+0001T   00001314+0000001810          1400 NT6150               2AZ
167545006167545077-000303     167545006001023593757GIFT-BAG PAPER MED     0000004000+00001578+00000+0001T   00001578+0000001810          1400 NT6112               2AZ
167545007167545080-000127     167545006003000424351VALENTINES DAY 36x24CM 0000001000+00002192+00000+0001T   00002192+0000001810          1400 NT6112               2AZ
167545008167545112-116069     167545006009681820277TCS CARRIER BAG JUMBO  0000001000+00000048+00000+0001T   00000048+0000001810          1400 NT6090               2AZ
167546000167546               167546               170213DP     1400+00000+DP0000002192+0000002192+000000000+000000307+0000002490+0000000009+I20000000000+0000002490+Z
167546001167546071-000672     167546006003000138975STATIONERY CLIPS PAPER 0000001000+00002192+00000+0001T   00002192+0000001810          1400 NT6130               2AZ
167547000167547               167547               170213DP     1400+00000+DP0000006137+0000006137+000000000+000000860+0000006990+0000000007+I20000000000+0000006990+Z
167547001167547047-000014-A   167547006001023904072ADAPTOR 16AX5ARNDX5A2PN0000001000+00003507+00000+0001T   00003507+0000001811          1400 NT6880               2AZ
167547002167547567-011497     167547000814625012795BK COLOURING 96P GHOUL 0000001000+00002630+00000+0001T   00002630+0000001811          1400 NT6757               2AZ
167548000167548               167548               170213DP     1400+00000+DP0000024602+0000024602+000000000+000003448+0000028050+0000000000+I40000028050+0000000000+Z
167548001167548030-000031-A   167548006003000457588PLAQUE W/WORDS ASSTD   0000001000+00004385+00000+0001T   00004823+0006471813          1400 NT6505               2AZ
167548002167548077-000251     167548006003000639106GIFT-DECOR RIBBON      0000001000+00002630+00000+0001T   00002630+0000001813          1400 NT6112               2AZ
167548003167548566-000367     167548006003000645558STICKER WINDOW DECOR   0000001000+00002630+00000+0001T   00002630+0000001813          1400 NT6130               2AZ
167548004167548368-000111     167548006001023780812PLUSH BEAR/DOG 29CM    0000001000+00012279+00000+0001T   00012279+0000001813          1400 NT6745               2AZ
167548005167548077-000270     167548006003000395453GIFT-BAG PPR JMB 33X45 0000001000+00002630+00000+0001T   00002630+0000001813          1400 NT6112               2AZ
167548006167548112-116069     167548006009681820277TCS CARRIER BAG JUMBO  0000001000+00000048+00000+0001T   00000048+0000001813          1400 NT6090               2AZ
167549000167549               167549               170213DP     1400+00000+DP0000005045+0000005045+000000000+000000707+0000005752+0000000000+I40000005752+0000000000+Z
167549001167549018-005009     167549006001023725608MUG W/PLUSH-BEAR LOVE  0000001000+00003507+00000+0001T   00003507+0000001815          1400 NT6515               2AZ
167549002167549077-000299     167549006003000395576G/BAG 32x25cm LRG LOVE 0000001000+00001490+00000+0001T   00001490+0000001815          1400 NT6112               2AZ
167549003167549112-116069     167549006009681820277TCS CARRIER BAG JUMBO  0000001000+00000048+00000+0001T   00000048+0000001815          1400 NT6090               2AZ
167550000167550               167550               170213DP     1400+00000+DP0000010525+0000010525+000000000+000001474+0000011990+0000000009+I20000000000+0000011990+Z
167550001167550004-071261     167550006003000438242COMPUTER MOUSE CAR     0000001000+00010525+00000+0001T   00010525+0000001816          1400 NT6310               2AZ
167551000167551               167551               170213DP     1400+00000+DP0000009076+0000009076+000000000+000001271+0000010347+0000000000+I40000010347+0000000000+Z
167551001167551112-116069     167551006009681820277TCS CARRIER BAG JUMBO  0000001000+00000048+00000+0001T   00000048+0000001817          1400 NT6090               2AZ
167551002167551079-014004     167551006003000080045ART+CRAFT JEWELRY ASSTD0000001000+00003507+00000+0001T   00003507+0000001817          1400 NT6130               2AZ
167551003167551564-000012     167551006001023130075BUBBLE BOTTLE MAGIC    0000001000+00000700+00000+0001T   00000700+0000001817          1400 NT6131               2AZ
167551004167551362-019282     167551006003000258079H/ACCESS 16PC BEAD HNDL0000001000+00003507+00000+0001T   00003507+0000001817          1400 NT6160               2AZ
167551005167551903-005000     167551006002580020007SWT CT MALLOW FISH 120g0000001000+00001314+00000+0001T   00001314+0000001817          1400 NT6150               2AZ
167552000167552               167552               170213DP     1400+00000+DP0000006958+0000006958+000000000+000000976+0000007930+0000000004+I20000000000+0000007930+Z
167552001167552304-001204     167552006001023737984FLOWER OCC. TEDDY/ROSES0000001000+00001402+00000+0001T   00001490+0006471818          1400 NT6510               2AZ
167552002167552903-000194     167552006009826020616SWT CHOC RP LOLLY 25G  0000001000+00001314+00000+0001T   00001314+0000001818          1400 NT6150               2AZ
167552003167552903-000619     167552006003000672455SWT LOLLY STR/BRRY 140G0000001000+00001753+00000+0001T   00001753+0000001818          1400 NT6150               2AZ
167552004167552077-000011-D   167552006001023808554TISSUE-WRAP WHITE 10PCE0000001000+00000876+00000+0001T   00000876+0000001818          1400 NT6112               2AZ
167552005167552077-000303     167552006001023593757GIFT-BAG PAPER MED     0000001000+00001578+00000+0001T   00001578+0000001818          1400 NT6112               2AZ
167552006167552112-116038     167552006009681820246TCS CARRIER BAG MIDI   0000001000+00000035+00000+0001T   00000035+0000001818          1400 NT6090               2AZ
167553000167553               167553               170213DP     1400+00000+DP0000002630+0000002630+000000000+000000369+0000002999+0000000000+I40000002999+0000000000+Z
167553001167553077-000270     167553006003000395453GIFT-BAG PPR JMB 33X45 0000001000+00002630+00000+0001T   00002630+0000001819          1400 NT6112               2AZ
167554000167554               167554               170213DP     1400+00000+DP0000003507+0000003507+000000000+000000491+0000003990+0000000008+I20000000000+0000003990+Z
167554001167554031-000002-A   167554006003000247103P/FRAME LOVE 7.5X7.5CM 0000001000+00003507+00000+0001T   00003507+0000001819          1400 NT6510               2AZ
167555000167555               167555               170213DP     1400+00000+DP0000004822+0000004822+000000000+000000676+0000005490+0000000008+I20000000000+0000005490+Z
167555001167555080-000127     167555006003000424351VALENTINES DAY 36x24CM 0000001000+00002192+00000+0001T   00002192+0000001820          1400 NT6112               2AZ
167555002167555077-000270     167555006003000395453GIFT-BAG PPR JMB 33X45 0000001000+00002630+00000+0001T   00002630+0000001820          1400 NT6112               2AZ
167556000167556               167556               170213DP     1400+00000+DP0000003542+0000003542+000000000+000000496+0000004030+0000000008+I20000000000+0000004030+Z
167556001167556369-000035     167556006001023795885EDU STACKING-SET ASSTD 0000001000+00003507+00000+0001T   00003507+0000001820          1400 NT6745               2AZ
167556002167556112-116038     167556006009681820246TCS CARRIER BAG MIDI   0000001000+00000035+00000+0001T   00000035+0000001820          1400 NT6090               2AZ
167557000167557               167557               170213DP     1400+00000+DP0000004645+0000004645+000000000+000000651+0000005296+0000000000+I40000005296+0000000000+Z
167557001167557027-000409     167557006001023731012SCRUBBING-BRUSH 15,5cm 0000001000+00001753+00000+0001T   00001753+0000001822          1400 NT6212               2AZ
167557002167557077-000303     167557006001023593757GIFT-BAG PAPER MED     0000001000+00001578+00000+0001T   00001578+0000001822          1400 NT6112               2AZ
167557003167557077-000470     167557006003000330171G-BAG DESGN SML 11X14CM0000001000+00001314+00000+0001T   00001314+0000001822          1400 NT6112               2AZ
167558000167558               167558               170213DP     1400+00000+DP0000001752+0000001752+000000000+000000246+0000001990+0000000008+I20000000000+0000001990+Z
167558001167558028-000797     167558006001023812124SKEWERS 15cm 100PCE    0000002000+00000876+00000+0001T   00000876+0000001822          1400 NT6305               2AZ
167559000167559               167559               170213DP     1400+00000+DP0000014496+0000014496+000000000+000002034+0000016530+0000000000+I40000016530+0000000000+Z
167559001167559206-000370     167559006003000631315STRAW P/DRINKING GLASS 0000003000+00001753+00000+0001T   00001753+0000001824          1400 NT6321               2AZ
167559002167559007-000127     167559006009685853431BOOK H/COVER MEMO 144PG0000001000+00000876+00000+0001T   00000876+0000001824          1400 NT6130               2AZ
167559003167559046-000012     167559006904708013062BATTERIES AA  CARD-OF-40000001000+00001314+00000+0001T   00001314+0000001824          1400 NT6312               2AZ
167559004167559046-000002     167559006001023585202BATTERIES SIZE:C   2PCE0000002000+00001753+00000+0001T   00001753+0000001824          1400 NT6312               2AZ
167559005167559466-000200     167559006001023621665HULA-HOOP     ASSTD    0000002000+00001753+00000+0001T   00001753+0000001824          1400 NT6785               2AZ
167559006167559112-116038     167559006009681820246TCS CARRIER BAG MIDI   0000001000+00000035+00000+0001T   00000035+0000001824          1400 NT6090               2AZ
167560000167560               167560               170213DP     1400+00000+DP0000004781+0000004781+000000000+000000671+0000005450+0000000002+I20000000000+0000005450+Z
167560001167560077-000299     167560006003000395576G/BAG 32x25cm LRG LOVE 0000001000+00001490+00000+0001T   00001490+0000001825          1400 NT6112               2AZ
167560002167560080-000116     167560006003000253555CARD&ENVELOPE-HANDMADE 0000001000+00001753+00000+0001T   00001753+0000001825          1400 NT6112               2AZ
167560003167560077-000299     167560006003000395576G/BAG 32x25cm LRG LOVE 0000001000+00001490+00000+0001T   00001490+0000001825          1400 NT6112               2AZ
167560004167560112-116069     167560006009681820277TCS CARRIER BAG JUMBO  0000001000+00000048+00000+0001T   00000048+0000001825          1400 NT6090               2AZ
167561000167561               167561               170213DP     1400+00000+DP0000006798+0000006798+000000000+000000953+0000007751+0000000000+I40000007751+0000000000+Z
167561001167561018-000130     167561006001023867537MUG OCC LOVE MINI+HEART0000001000+00003507+00000+0001T   00003507+0000001826          1400 NT6515               2AZ
167561002167561080-000100     167561006003000236114CARD & ENVELOPE BDAY   0000001000+00001753+00000+0001T   00001753+0000001826          1400 NT6112               2AZ
167561003167561077-000299     167561006003000395576G/BAG 32x25cm LRG LOVE 0000001000+00001490+00000+0001T   00001490+0000001826          1400 NT6112               2AZ
167561004167561112-116069     167561006009681820277TCS CARRIER BAG JUMBO  0000001000+00000048+00000+0001T   00000048+0000001826          1400 NT6090               2AZ
167562000167562               167562               170213DP     1400+00000+DP0000004385+0000004385+000000000+000000614+0000004990+0000000009+I20000000000+0000004990+Z
167562001167562082-000105     167562006003000360369READING GLS STRNGHT:1.50000001000+00004385+00000+0001T   00004385+0000001827          1400 NT6160               2AZ
167563000167563               167563               170213DP     1400+00000+DP0000001313+0000001313+000000000+000000184+0000001490+0000000007+I20000000000+0000001490+Z
167563001167563018-000177     167563006001023797513MUG MINI LOVE ASSTD    0000001000+00000700+00000+0001T   00000700+0000001828          1400 NT6515               2AZ
167563002167563077-000311     167563006001023608666GIFT-BAG 11X14CM GLOSS 0000001000+00000613+00000+0001T   00000613+0000001828          1400 NT6112               2AZ
167564000167564               167564               170213DP     1400+00000+DP0000002240+0000002240+000000000+000000314+0000002550+0000000004+I20000000000+0000002550+Z
167564001167564080-000127     167564006003000424351VALENTINES DAY 36x24CM 0000001000+00002192+00000+0001T   00002192+0000001830          1400 NT6112               2AZ
167564002167564112-116069     167564006009681820277TCS CARRIER BAG JUMBO  0000001000+00000048+00000+0001T   00000048+0000001830          1400 NT6090               2AZ
167565000167565               167565               170213DP     1400+00000+DP0000009762+0000009762+000000000+000001368+0000011130+0000000000+I40000011130+0000000000+Z
167565001167565567-010161     167565009780000008516BOOK TOP ASSTD MILLS   0000001000+00005262+00000+0001T   00005262+0000001832          1400 NT6757               2AZ
167565002167565077-000314     167565006003000181148GIFT-BAG 11X14CM MATT  0000001000+00000876+00000+0001T   00000876+0000001832          1400 NT6112               2AZ
167565003167565077-000311     167565006001023608666GIFT-BAG 11X14CM GLOSS 0000001000+00000613+00000+0001T   00000613+0000001832          1400 NT6112               2AZ
167565004167565077-000314     167565006003000181148GIFT-BAG 11X14CM MATT  0000001000+00000876+00000+0001T   00000876+0000001832          1400 NT6112               2AZ
167565005167565018-000177     167565006001023797513MUG MINI LOVE ASSTD    0000003000+00000700+00000+0001T   00000700+0000001832          1400 NT6515               2AZ
167565006167565112-116038     167565006009681820246TCS CARRIER BAG MIDI   0000001000+00000035+00000+0001T   00000035+0000001832          1400 NT6090               2AZ
167566000167566               167566               170213DP     1400+00000+DP0000000613+0000000613+000000000+000000086+0000000690+0000000009+I20000000000+0000000690+Z
167566001167566083-000055     167566006003000003853LIGHTER ELCTRNC REFILBL0000001000+00000613+00000+0001T   00000613+0000001832          1400 NT6315               2AZ
167567000167567               167567               170213DP     1400+00000+DP0000002192+0000002192+000000000+000000307+0000002490+0000000009+I20000000000+0000002490+Z
167567001167567080-000127     167567006003000424351VALENTINES DAY 36x24CM 0000001000+00002192+00000+0001T   00002192+0000001832          1400 NT6112               2AZ
167568000167568               167568               170213DP     1400+00000+DP0000008804+0000008804+000000000+000001234+0000010030+0000000008+I20000000000+0000010030+Z
167568001167568304-000720     167568006001023843050F/BUNCH ROSE 6-HEAD AST0000001000+00002630+00000+0001T   00002630+0000001833          1400 NT6510               2AZ
167568002167568018-050000     167568006003000412679MUG OCC LOVE TWIN BEAR 0000001000+00006139+00000+0001T   00006139+0000001833          1400 NT6515               2AZ
167568003167568112-116038     167568006009681820246TCS CARRIER BAG MIDI   0000001000+00000035+00000+0001T   00000035+0000001833          1400 NT6090               2AZ
167569000167569               167569               170213DP     1400+00000+DP0000010740+0000010740+000000000+000001508+0000012240+0000000008+I20000000000+0000012240+Z
167569001167569018-000129     167569006001023403353MUG OCC. LOVE V-SHAPE  0000002000+00002630+00000+0001T   00002630+0000001835          1400 NT6515               2AZ
167569002167569077-000151     167569006008766114676GIFT-WRAP C/PHANE ASSTD0000002000+00000876+00000+0001T   00000876+0000001835          1400 NT6112               2AZ
167569003167569903-000151     167569006009803374411SWT SML RND R/BOW LOLLY0000002000+00000525+00000+0001T   00000525+0000001835          1400 NT6150               2AZ
167569004167569077-000235     167569006003000160211GIFT-RIBBON ROLL METALC0000001000+00002630+00000+0001T   00002630+0000001835          1400 NT6112               2AZ
167569005167569112-116069     167569006009681820277TCS CARRIER BAG JUMBO  0000001000+00000048+00000+0001T   00000048+0000001835          1400 NT6090               2AZ
167570000167570               167570               170213DP     1400+00000+DP0000001490+0000001490+000000000+000000209+0000001699+0000000000+I40000001699+0000000000+Z
167570001167570079-000807     167570006003000670277ART+CRAFT WOODEN STICKS0000001000+00001490+00000+0001T   00001490+0000001836          1400 NT6130               2AZ
167571000167571               167571               170213DP     1400+00000+DP0000001753+0000001753+000000000+000000246+0000001990+0000000009+I20000000000+0000001990+Z
167571001167571006-000120     167571006001023346889BALLOONS 10PC MIX COL  0000001000+00001753+00000+0001T   00001753+0000001836          1400 NT6131               2AZ
167572000167572               167572               170213DP     1400+00000+DP0000004645+0000004645+000000000+000000652+0000005290+0000000007+I20000000000+0000005290+Z
167572001167572080-000100     167572006003000236114CARD & ENVELOPE BDAY   0000001000+00001753+00000+0001T   00001753+0000001838          1400 NT6112               2AZ
167572002167572903-000087     167572006001704000161SWT SPECKLED-EGGS 50G  0000001000+00001139+00000+0001T   00001139+0000001838          1400 NT61503IC            2AZ
167572003167572903-000615     167572006003000617456SWT JET PLANE J/B 5G   0000001000+00001753+00000+0001T   00001753+0000001838          1400 NT6150               2AZ
167573000167573               167573               170213DP     1400+00000+DP0000006169+0000006169+000000000+000000866+0000007030+0000000005+I20000000000+0000007030+Z
167573001167573065-006041     167573006001023712974TAMBOURINE 15cm P/BAND 0000002000+00001753+00000+0001T   00001753+0000001838          1400 NT6745               2AZ
167573002167573903-000520     167573006001704009898SWT GUMMY MINI SOUR 60g0000003000+00000876+00000+0001T   00000876+0000001838          1400 NT6150               2AZ
167573003167573112-116038     167573006009681820246TCS CARRIER BAG MIDI   0000001000+00000035+00000+0001T   00000035+0000001838          1400 NT6090               2AZ
167574000167574               167574               170213DP     1400+00000+DP0000010525+0000010525+000000000+000001474+0000011999+0000000000+I40000011999+0000000000+Z
167574001167574369-061024     167574006008766061024SOFT BALLS W/BELL 4PC  0000001000+00010525+00000+0001T   00010525+0000001840          1400 NT6745               2AZ
167575000167575               167575               170213DP     1400+00000+DP0000003542+0000003542+000000000+000000496+0000004030+0000000008+I20000000000+0000004030+Z
167575001167575018-005009     167575006001023725608MUG W/PLUSH-BEAR LOVE  0000001000+00003507+00000+0001T   00003507+0000001840          1400 NT6515               2AZ
167575002167575112-116038     167575006009681820246TCS CARRIER BAG MIDI   0000001000+00000035+00000+0001T   00000035+0000001840          1400 NT6090               2AZ
167576000167576               167576               170213DP     1400+00000+DP0000002630+0000002630+000000000+000000369+0000002990+0000000009+I20000000000+0000002990+Z
167576001167576007-000581     167576006001023710154NOTE-BOOK SET ASSTD    0000001000+00002630+00000+0001T   00002630+0000001841          1400 NT6130               2AZ
167577000167577               167577               170213DP     1400+00000+DP0000007015+0000007015+000000000+000000983+0000007990+0000000008+I20000000000+0000007990+Z
167577001167577051-500100     167577006003000399444GARDEN KIDS SPADE ASSTD0000001000+00004385+00000+0001T   00004385+0000001841          1400 NT6820               2AZ
167577002167577463-000366     167577006001023789136SWIM W/NOODLE 150cm    0000001000+00002630+00000+0001T   00002630+0000001841          1400 NT6785               2AZ
167578000167578               167578               170213DP     1400+00000+DP0000000876+0000000876+000000000+000000123+0000000990+0000000009+I20000000000+0000000990+Z
167578001167578077-000011-D   167578006001023808554TISSUE-WRAP WHITE 10PCE0000001000+00000876+00000+0001T   00000876+0000001841          1400 NT6112               2AZ
167579000167579               167579               170213DP     1400+00000+DP0000000876+0000000876+000000000+000000123+0000000990+0000000009+I20000000000+0000000990+Z
167579001167579077-000302     167579008010410010195GIFT-BAG 18X23CM E/D   0000001000+00000876+00000+0001T   00000876+0000001843          1400 NT6112               2AZ
167580000167580               167580               170213DP     1400+00000+DP0000040914+0000040914+000000000+000005730+0000046644+0000000000+I40000046644+0000000000+Z
167580001167580304-001204     167580006001023737984FLOWER OCC. TEDDY/ROSES0000001000+00001402+00000+0001T   00001490+0006471845          1400 NT6510               2AZ
167580002167580072-020346     167580006003000453047PET DRY TOWEL M/FIBRE  0000001000+00004385+00000+0001T   00004385+0000001845          1400 NT6870               2AZ
167580003167580072-020352     167580006003000561667DOG/CAT BOWL PL 19cm   0000002000+00003069+00000+0001T   00003069+0000001845          1400 NT6870               2AZ
167580004167580072-020266     167580006003000400591PET PUPPY TRAINING PAD 0000001000+00003507+00000+0001T   00003507+0000001845          1400 NT6870               2AZ
167580005167580072-020262     167580006003000305254PET DOG-CHEW TYRE LARGE0000001000+00004385+00000+0001T   00004385+0000001845          1400 NT6870               2AZ
167580006167580072-020237     167580006003000623402PET BED COTTON TEXTILE 0000001000+00017542+00000+0001T   00017542+0000001845          1400 NT6870               2AZ
167580007167580567-010159     167580006003000484881BOOK TOP ASSTD CHILDREN0000001000+00003507+00000+0001T   00003507+0000001845          1400 NT6757               2AZ
167580008167580112-116069     167580006009681820277TCS CARRIER BAG JUMBO  0000001000+00000048+00000+0001T   00000048+0000001845          1400 NT6090               2AZ
167581000167581               167581               170213DP     1400+00000+DP0000008805+0000008805+000000000+000001233+0000010038+0000000000+I40000010038+0000000000+Z
167581001167581031-000903-A   167581006003000457113P/FRAME PL STRESSESD   0000001000+00004385+00000+0001T   00004385+0000001846          1400 NT6510               2AZ
167581002167581368-000001     167581006003000097982Plush Bear 25cm        0000001000+00004385+00000+0001T   00004385+0000001846          1400 NT6745               2AZ
167581003167581112-116038     167581006009681820246TCS CARRIER BAG MIDI   0000001000+00000035+00000+0001T   00000035+0000001846          1400 NT6090               2AZ
167582000167582               167582               170213DP     1400+00000+DP0000027231+0000027231+000000000+000003816+0000031047+0000000000+I40000031047+0000000000+Z
167582001167582077-000299-A   167582006003000670888GIFT-BAG PAPER JMB LOVE0000001000+00001753+00000+0001T   00001753+0000001848          1400 NT6112               2AZ
167582002167582004-071205     167582006003000073368USB 2.0 COMPUTER 4 HUB 0000001000+00003507+00000+0001T   00003507+0000001848          1400 NT6310               2AZ
167582003167582080-000101     167582006003000236732CARD&ENVLPE FEMALE     0000001000+00001753+00000+0001T   00001753+0000001848          1400 NT6112               2AZ
167582004167582007-000614     167582006001023768667DIARY W/LOCK+PEN LOVE  0000001000+00005262+00000+0001T   00005262+0000001848          1400 NT6130               2AZ
167582005167582006-000124     167582006003000625888BALLOONS 10PC MIX COL  0000002000+00001753+00000+0001T   00001753+0000001848          1400 NT6131               2AZ
167582006167582368-000637     167582006001023874092PLUSH BEAR SLEEPING LOV0000001000+00011402+00000+0001T   00012279+0006471848          1400 NT6745               2AZ
167582007167582112-116069     167582006009681820277TCS CARRIER BAG JUMBO  0000001000+00000048+00000+0001T   00000048+0000001848          1400 NT6090               2AZ
167583000167583               167583               170213DP     1400+00000+DP0000005435+0000005435+000000000+000000762+0000006190+0000000007+I20000000000+0000006190+Z
167583001167583077-000299     167583006003000395576G/BAG 32x25cm LRG LOVE 0000001000+00001490+00000+0001T   00001490+0000001849          1400 NT6112               2AZ
167583002167583080-000127     167583006003000424351VALENTINES DAY 36x24CM 0000001000+00002192+00000+0001T   00002192+0000001849          1400 NT6112               2AZ
167583003167583903-000619     167583006003000672455SWT LOLLY STR/BRRY 140G0000001000+00001753+00000+0001T   00001753+0000001849          1400 NT6150               2AZ
167584000167584               167584               170213DP     1400+00000+DP0000001753+0000001753+000000000+000000246+0000001990+0000000009+I20000000000+0000001990+Z
167584001167584078-000480     167584006008741002332BOSTIK SHOE-REPAIR 25ml0000001000+00001753+00000+0001T   00001753+0000001849          1400 NT6810               2AZ
167585000167585               167585               170213DP     1400+00000+DP0000004415+0000004415+000000000+000000621+0000005030+0000000006+I20000000000+0000005030+Z
167585001167585108-001005     167585006001023803276MUG SIPPER W/STRAW     0000002000+00001753+00000+0001T   00001753+0000001851          1400 NT6210               2AZ
167585002167585112-116038     167585006009681820246TCS CARRIER BAG MIDI   0000001000+00000035+00000+0001T   00000035+0000001851          1400 NT6090               2AZ
167585003167585903-000094     167585006923431501622SWT GS CANDY NECKLACE  0000002000+00000437+00000+0001T   00000437+0000001851          1400 NT6150               2AZ
167586000167586               167586               170213DP     1400+00000+DP0000009118+0000009118+000000000+000001278+0000010390+0000000006+I20000000000+0000010390+Z
167586001167586018-000130     167586006001023867537MUG OCC LOVE MINI+HEART0000001000+00003507+00000+0001T   00003507+0000001852          1400 NT6515               2AZ
167586002167586301-085001     167586006003000297610ORN WATERBALL LOVE ASST0000001000+00004823+00000+0001T   00004823+0000001852          1400 NT6505               2AZ
167586003167586903-000200     167586006009826020234SWT CHOC RP CHOCO 23G  0000001000+00000788+00000+0001T   00000788+0000001852          1400 NT6150               2AZ
167587000167587               167587               170213DP     1400+00000+DP0000006750+0000006750+000000000+000000946+0000007690+0000000006+I20000000000+0000007690+Z
167587001167587077-000299     167587006003000395576G/BAG 32x25cm LRG LOVE 0000001000+00001490+00000+0001T   00001490+0000001853          1400 NT6112               2AZ
167587002167587077-000299-A   167587006003000670888GIFT-BAG PAPER JMB LOVE0000001000+00001753+00000+0001T   00001753+0000001853          1400 NT6112               2AZ
167587003167587031-005853     167587006003000442416P/FRAME WDN TWIN HEARTS0000001000+00003507+00000+0001T   00003507+0000001853          1400 NT6510               2AZ
167588000167588               167588               170213DP     1400+00000+DP0000013190+0000013190+000000000+000001847+0000015037+0000000000+I40000015037+0000000000+Z
167588001167588368-000049     167588006003000536955PLUSH BEAR 15cm LOVE   0000003000+00004385+00000+0001T   00004385+0000001854          1400 NT6745               2AZ
167588002167588112-116038     167588006009681820246TCS CARRIER BAG MIDI   0000001000+00000035+00000+0001T   00000035+0000001854          1400 NT6090               2AZ
167589000167589               167589               170213DP     1400+00000+DP0000003066+0000003066+000000000+000000431+0000003490+0000000007+I20000000000+0000003490+Z
167589001167589080-000127     167589006003000424351VALENTINES DAY 36x24CM 0000001000+00002192+00000+0001T   00002192+0000001855          1400 NT6112               2AZ
167589002167589080-000133-A   167589006003000647019MINI VALENTINES CARD   0000002000+00000437+00000+0001T   00000437+0000001855          1400 NT6112               2AZ
167590000167590               167590               170213DP     1400+00000+DP0000007453+0000007453+000000000+000001044+0000008497+0000000000+I40000008497+0000000000+Z
167590001167590486-000010     167590006001023544254WALL-CLOCK ROUND 25cm  0000001000+00006139+00000+0001T   00006139+0000001857          1400 NT6510               2AZ
167590002167590046-000012     167590006904708013062BATTERIES AA  CARD-OF-40000001000+00001314+00000+0001T   00001314+0000001857          1400 NT6312               2AZ
167591000167591               167591               170213DP     1400+00000+DP0000001400+0000001400+000000000+000000196+0000001596+0000000000+I40000001596+0000000000+Z
167591001167591564-000012     167591006001023130075BUBBLE BOTTLE MAGIC    0000002000+00000700+00000+0001T   00000700+0000001858          1400 NT6131               2AZ
167592000167592               167592               170213DP     1400+00000+DP0000002190+0000002190+000000000+000000307+0000002490+0000000007+I20000000000+0000002490+Z
167592001167592046-000012     167592006904708013062BATTERIES AA  CARD-OF-40000001000+00001314+00000+0001T   00001314+0000001900          1400 NT6312               2AZ
167592002167592083-000050     167592006001023898593LIGHTERS DISPOSABLE    0000001000+00000876+00000+0001T   00000876+0000001900          1400 NT6315               2AZ
167593000167593               167593               170213DP     1400+00000+DP0000002192+0000002192+000000000+000000307+0000002490+0000000009+I20000000000+0000002490+Z
167593001167593200-000200     167593006008766091144BAKING ALUM FOIL 2PCE  0000001000+00002192+00000+0001T   00002192+0000001908          1400 NT6214               2AZ
B16757200                                          170213DP903-000087     18374851SLAVE 2     NT63IC0000040000+0000001000+0000000000000+
C16746300                                          170213DP903-000087     12221260SLAVE 2     NT63IC0000000000+0000000000+0010000001000+
C16747800                                          170213DP174-000304     12572405SLAVE 2     NT63IC0000000000+0000000000+0010000001000+
C16747801                                          170213DP077-000302     12572813SLAVE 2     NT63IC0000000000+0000000000+0020000001000+
C16747802                                          170213DP903-004950     12573182SLAVE 2     NT63IC0000000000+0000000000+0030000001000+
C16747803                                          170213DP007-000302     12573592SLAVE 2     NT63IC0000000000+0000000000+0040000001000+
M17021391                              CASH        DPSLAVE 2                       Z-REPORT No.   677TOTAL (Sales - Refunds)           9970.89       CASH TO BE BANKED                 5388.50       DEBIT CARDS                          0.00       CREDIT CARDS                      4582.39       Z-READING                         9970.89       AIRTIME DEBIT CARD SALES             0.00       AIRTIME CARD SALES                   0.00       OVERS/UNDERS                         0.00       AIRTIME CASH SALES                   0.00       GIFT CARDS                           0.00       GIFT CARD CASH SALES                 0.00       T O T A L  CASH PAYOUTS              0.00                                                                                                                                                                                                                                                                                                                                                      Z
M17021392                              CASH        DPABSENT                                                                                                                                                                                          ANNUAL LEAVE                                                                                                                                                                                    DAY OFF                                                                                                                                                                                         COMMENTS                                                                                                                                                                                                                                                                                                                                                                                       Z
Y17021300                                          DP00000000893218+000152
ZDP17021319303 SLAVE 2      SALES DATA                     NEXT INVOICE NO.  167594 0677
F093766496-057489         1701151159530000032ICSLAVE 2
F093773496-028120         1701151159570000032ICSLAVE 2
F094146463-000501         1701151200120000062ICSLAVE 2
F094863022-002107         1702110937350000153ICSLAVE 2
X DP Slave 2 First invoice 167440 170213 Last invoice 167593 170213 Next invoice 167594 Total number of records 000000528 clbackup completed 19:30:17
