174076000174076               174076               170213DP     1400+00000+DP0000003507+0000003507+000000000+000000491+0000003998+0000000000+I40000003998+0000000000+Z
174076001174076071-005667     174076006003000153060STAPLER SET MTL W/STPLS0000001000+00003507+00000+0001T   00003507+0000000926          1400 CN5130               3AZ
174077000174077               174077               170213DP     1400+00000+DP0000002630+0000002630+000000000+000000369+0000002990+0000000009+I20000000000+0000002990+Z
174077001174077486-000001     174077006001023507969ALARM-CLOCK SQ ASS     0000001000+00002630+00000+0001T   00002630+0000000938          1400 CN5510               3AZ
174078000174078               174078               170213DP     1400+00000+DP0000001926+0000001926+000000000+000000271+0000002190+0000000007+I20000000000+0000002190+Z
174078001174078077-000311     174078006001023608666GIFT-BAG 11X14CM GLOSS 0000001000+00000613+00000+0001T   00000613+0000000950          1400 CN5112               3AZ
174078002174078080-000133-A   174078006003000647019MINI VALENTINES CARD   0000001000+00000437+00000+0001T   00000437+0000000950          1400 CN5112               3AZ
174078003174078077-000011-D   174078006001023808554TISSUE-WRAP WHITE 10PCE0000001000+00000876+00000+0001T   00000876+0000000950          1400 CN5112               3AZ
174079000174079               174079               170213DP     1400+00000+DP0000004385+0000004385+000000000+000000614+0000004990+0000000009+I20000000000+0000004990+Z
174079001174079018-030000     174079006003000421060MUG OCCASIONS LOVE 2PCE0000001000+00004385+00000+0001T   00004385+0000000950          1400 CN5515               3AZ
174080000174080               174080               170213DP     1400+00000+DP0000000437+0000000437+000000000+000000062+0000000490+0000000009+I20000000000+0000000490+Z
174080001174080080-000133-A   174080006003000647019MINI VALENTINES CARD   0000001000+00000437+00000+0001T   00000437+0000000953          1400 CN5112               3AZ
174081000174081               174081               170213DP     1400+00000+DP0000001578+0000001578+000000000+000000221+0000001790+0000000009+I20000000000+0000001790+Z
174081001174081077-000303     174081006001023593757GIFT-BAG PAPER MED     0000001000+00001578+00000+0001T   00001578+0000001001          1400 CN5112               3AZ
174082000174082               174082               170213DP     1400+00000+DP0000000700+0000000700+000000000+000000098+0000000790+0000000008+I20000000000+0000000790+Z
174082001174082564-000012     174082006001023130075BUBBLE BOTTLE MAGIC    0000001000+00000700+00000+0001T   00000700+0000001103          1400 CN5131               3AZ
174083000174083               174083               170213DP     1400+00000+DP0000008806+0000008806+000000000+000001233+0000010030+0000000009+I20000000000+0000010030+Z
174083001174083001-091415     174083006003000329113W/GLS OCC. LOVE 2PC 2800000001000+00008771+00000+0001T   00009648+0006471105          1400 CN5515               3AZ
174083002174083112-116038     174083006009681820246TCS CARRIER BAG MIDI   0000001000+00000035+00000+0001T   00000035+0000001105          1400 CN5090               3AZ
174084000174084               174084               170213DP     1400+00000+DP0000002630+0000002630+000000000+000000369+0000002990+0000000009+I20000000000+0000002990+Z
174084001174084206-000620     174084006003000631797BACK SCRATCHER EXTEND  0000001000+00002630+00000+0001T   00002630+0000001121          1400 CN5321               3AZ
174085000174085               174085               170213DP     1400+00000+DP0000003419+0000003419+000000000+000000479+0000003898+0000000000+I40000003898+0000000000+Z
174085001174085007-000167     174085006009685857347SPIRAL NOTES A7 72PG   0000001000+00000350+00000+0001T   00000350+0000001132          1400 CN5130               3AZ
174085002174085016-006513     174085006003000295739S/JAR GLS EMBOSS. 950ML0000001000+00003069+00000+0001T   00003069+0000001132          1400 CN5300               3AZ
174086000174086               174086               170213DP     1400+00000+DP0000002279+0000002279+000000000+000000320+0000002590+0000000009+I20000000000+0000002590+Z
174086001174086027-001020     174086006001246602519BROOM FLOOR W/HANDLE   0000001000+00002279+00000+0001T   00002279+0000001133          1400 CN5212               3AZ
174087000174087               174087               170213DP     1400+00000+DP0000001578+0000001578+000000000+000000221+0000001790+0000000009+I20000000000+0000001790+Z
174087001174087466-000616     174087006003000661862BALL-PUMP NEEDLES 3PC  0000001000+00001578+00000+0001T   00001578+0000001133          1400 CN5785               3AZ
174088000174088               174088               170213DP     1400+00000+DP0000004385+0000004385+000000000+000000614+0000004990+0000000009+I20000000000+0000004990+Z
174088001174088082-000115     174088006003000360604READING GLS STRNGHT:2.50000001000+00004385+00000+0001T   00004385+0000001134          1400 CN5160               3AZ
174089000174089               174089               170213DP     1400+00000+DP0000003332+0000003332+000000000+000000467+0000003790+0000000009+I20000000000+0000003790+Z
174089001174089203-006000     174089006001023994493ICE-BALL IN-BAG    16PC0000001000+00003332+00000+0001T   00003332+0000001135          1400 CN5300               3AZ
174090000174090               174090               170213DP     1400+00000+DP0000007710+0000007710+000000000+000001082+0000008790+0000000002+I20000000000+0000008790+Z
174090001174090018-000127     174090006001023380289MUG OCC STRAIGHT LOVE  0000001000+00001578+00000+0001T   00001753+0006471144          1400 CN5515               3AZ
174090002174090077-000303     174090006001023593757GIFT-BAG PAPER MED     0000001000+00001578+00000+0001T   00001578+0000001144          1400 CN5112               3AZ
174090003174090903-000087     174090006001704000161SWT SPECKLED-EGGS 50G  0000001000+00001139+00000+0001T   00001139+0000001144          1400 CN5150               3AZ
174090004174090903-004961     174090008410525221866SWT GUMMY FINI WILD 50g0000001000+00000964+00000+0001T   00000964+0000001144          1400 CN5150               3AZ
174090005174090903-000077     174090006939873501687SWT GS MAGIC ROCK FRUIT0000001000+00000525+00000+0001T   00000525+0000001144          1400 CN5150               3AZ
174090006174090903-000151     174090006009803374411SWT SML RND R/BOW LOLLY0000001000+00000525+00000+0001T   00000525+0000001144          1400 CN5150               3AZ
174090007174090083-000295     174090006001023898562LIGHTER-GAS BUTANE 18ml0000001000+00000876+00000+0001T   00000876+0000001144          1400 CN5315               3AZ
174090008174090903-000155     174090006009803374435SWT LOLLY I LUV U HEART0000001000+00000525+00000+0001T   00000525+0000001144          1400 CN5150               3AZ
174091000174091               174091               170213DP     1400+00000+DP0000002190+0000002190+000000000+000000307+0000002490+0000000007+I20000000000+0000002490+Z
174091001174091903-000920     174091000041396002155SWT CANDY STICK/TATT   0000001000+00000700+00000+0001T   00000700+0000001149          1400 CN5150               3AZ
174091002174091903-005003     174091006002580020106SWT DINKY DUMMIES 5PK  0000001000+00001490+00000+0001T   00001490+0000001149          1400 CN5150               3AZ
174092000174092               174092               170213DP     1400+00000+DP0000000700+0000000700+000000000+000000098+0000000790+0000000008+I20000000000+0000000790+Z
174092001174092903-000920     174092000041396002155SWT CANDY STICK/TATT   0000001000+00000700+00000+0001T   00000700+0000001149          1400 CN5150               3AZ
174093000174093               174093               170213DP     1400+00000+DP0000002192+0000002192+000000000+000000307+0000002490+0000000009+I20000000000+0000002490+Z
174093001174093080-000127     174093006003000424351VALENTINES DAY 36x24CM 0000001000+00002192+00000+0001T   00002192+0000001155          1400 CN5112               3AZ
174094000174094               174094               170213DP     1400+00000+DP0000001490+0000001490+000000000+000000209+0000001690+0000000009+I20000000000+0000001690+Z
174094001174094140-001004     174094006001023880932FLY-RIBBONS 4PCE PL    0000001000+00001490+00000+0001T   00001490+0000001155          1400 CN5830               3AZ
174095000174095               174095               170213DP     1400+00000+DP0000003507+0000003507+000000000+000000491+0000003990+0000000008+I20000000000+0000003990+Z
174095001174095079-000013     174095006001023463890P/CRAYONS 24COL 18cm   0000001000+00003507+00000+0001T   00003507+0000001303          1400 CN5130               3AZ
174096000174096               174096               170213DP     1400+00000+DP0000008502+0000008502+000000000+000001193+0000009695+0000000000+I40000009695+0000000000+Z
174096001174096105-001077     174096006003000532872CONTAINER CLIP LOCK 1L 0000004000+00001753+00000+0001T   00002279+0008161325          1400 CN5210               3AZ
174096002174096077-000299     174096006003000395576G/BAG 32x25cm LRG LOVE 0000001000+00001490+00000+0001T   00001490+0000001325          1400 CN5112               3AZ
174097000174097               174097               170213DP     1400+00000+DP0000001575+0000001575+000000000+000000222+0000001797+0000000000+I40000001797+0000000000+Z
174097001174097903-000151     174097006009803374411SWT SML RND R/BOW LOLLY0000003000+00000525+00000+0001T   00000525+0000001347          1400 CN5150               3AZ
174098000174098               174098               170213DP     1400+00000+DP0000001753+0000001753+000000000+000000246+0000001990+0000000009+I20000000000+0000001990+Z
174098001174098078-000480     174098006008741002332BOSTIK SHOE-REPAIR 25ml0000001000+00001753+00000+0001T   00001753+0000001348          1400 CN5810               3AZ
174099000174099               174099               170213DP     1400+00000+DP0000001578+0000001578+000000000+000000221+0000001790+0000000009+I20000000000+0000001790+Z
174099001174099077-000303     174099006001023593757GIFT-BAG PAPER MED     0000001000+00001578+00000+0001T   00001578+0000001348          1400 CN5112               3AZ
174100000174100               174100               170213DP     1400+00000+DP0000003507+0000003507+000000000+000000491+0000003990+0000000008+I20000000000+0000003990+Z
174100001174100047-009003     174100006001023810427CABLE TWIRLY 1.8m      0000001000+00003507+00000+0001T   00003507+0000001353          1400 CN5880               3AZ
174101000174101               174101               170213DP     1400+00000+DP0000002278+0000002278+000000000+000000319+0000002597+0000000000+I40000002597+0000000000+Z
174101001174101362-003007     174101006003000295401GIRL FASHION SUNGLASSES0000001000+00001578+00000+0001T   00001753+0008191354          1400 CN5160               3AZ
174101002174101362-000311     174101006003000089895HAIR/WRIST BAND SET 6PC0000001000+00000700+00000+0001T   00000876+0008181354          1400 CN5160               3AZ
174102000174102               174102               170213DP     1400+00000+DP0000004420+0000004420+000000000+000000619+0000005030+0000000009+I20000000000+0000005030+Z
174102001174102017-000220     174102006003000239160P/ALBUM ADHESIVE 10 PGE0000001000+00004385+00000+0001T   00004385+0000001357          1400 CN5510               3AZ
174102002174102112-116038     174102006009681820246TCS CARRIER BAG MIDI   0000001000+00000035+00000+0001T   00000035+0000001357          1400 CN5090               3AZ
174103000174103               174103               170213DP     1400+00000+DP0000001314+0000001314+000000000+000000184+0000001490+0000000008+I20000000000+0000001490+Z
174103001174103903-000194     174103006009826020616SWT CHOC RP LOLLY 25G  0000001000+00001314+00000+0001T   00001314+0000001401          1400 CN5150               3AZ
174104000174104               174104               170213DP     1400+00000+DP0000001402+0000001402+000000000+000000197+0000001590+0000000009+I20000000000+0000001590+Z
174104001174104007-000610     174104006009685851017DIARY HOMEWORK UNDATED 0000001000+00001402+00000+0001T   00001402+0000001402          1400 CN5130               3AZ
174105000174105               174105               170213DP     1400+00000+DP0000002192+0000002192+000000000+000000307+0000002499+0000000000+I40000002499+0000000000+Z
174105001174105046-000012-A   174105006003000208296BATTERIES H/POWER SZ:AA0000001000+00002192+00000+0001T   00002192+0000001406          1400 CN5312               3AZ
174106000174106               174106               170213DP     1400+00000+DP0000001489+0000001489+000000000+000000209+0000001698+0000000000+I40000001698+0000000000+Z
174106001174106903-000849     174106008692806080083SWT SNACK BISCUIT 70g  0000001000+00000613+00000+0001T   00000613+0000001407          1400 CN5150               3AZ
174106002174106903-000897     174106008692806325207SWT CHOC DBL MINI ROLL 0000001000+00000876+00000+0001T   00000876+0000001407          1400 CN5150               3AZ
174107000174107               174107               170213DP     1400+00000+DP0000007015+0000007015+000000000+000000983+0000007990+0000000008+I20000000000+0000007990+Z
174107002174107079-000261     174107006003000159727PAINT WATER COLOUR CAKE0000001000+00004385+00000+0001T   00004385+0000001411          1400 CN5130               3AZ
174107003174107007-000327     174107006009699513406PAPER A4 80GSM WHT 100 0000001000+00002630+00000+0001T   00002630+0000001411          1400 CN5130               3AZ
174108000174108               174108               170213DP     1400+00000+DP0000001313+0000001313+000000000+000000185+0000001490+0000000008+I20000000000+0000001490+Z
174108001174108080-000133-A   174108006003000647019MINI VALENTINES CARD   0000001000+00000437+00000+0001T   00000437+0000001413          1400 CN5112               3AZ
174108002174108089-000192-A   174108006001023901774KEY-CHAIN ACRYLIC      0000001000+00000876+00000+0001T   00000876+0000001413          1400 CN5205               3AZ
174109000174109               174109               170213DP     1400+00000+DP0000002630+0000002630+000000000+000000369+0000002990+0000000009+I20000000000+0000002990+Z
174109001174109088-000112     174109006003000622221DEHUMIDIFIER CUPBOARD  0000001000+00002630+00000+0001T   00002630+0000001414          1400 CN5212               3AZ
174110000174110               174110               170213DP     1400+00000+DP0000001578+0000001578+000000000+000000221+0000001790+0000000009+I20000000000+0000001790+Z
174110001174110077-000303     174110006001023593757GIFT-BAG PAPER MED     0000001000+00001578+00000+0001T   00001578+0000001415          1400 CN5112               3AZ
174111000174111               174111               170213DP     1400+00000+DP0000001139+0000001139+000000000+000000160+0000001290+0000000009+I20000000000+0000001290+Z
174111001174111039-000322     174111006001023524157B/CANDLES W/HOLDERS 24 0000001000+00001139+00000+0001T   00001139+0000001425          1400 CN5510               3AZ
174112000174112               174112               170213DP     1400+00000+DP0000001490+0000001490+000000000+000000209+0000001690+0000000009+I20000000000+0000001690+Z
174112001174112077-000299     174112006003000395576G/BAG 32x25cm LRG LOVE 0000001000+00001490+00000+0001T   00001490+0000001430          1400 CN5112               3AZ
174113000174113               174113               170213DP     1400+00000+DP0000004420+0000004420+000000000+000000619+0000005039+0000000000+I40000005039+0000000000+Z
174113001174113368-000049     174113006003000536955PLUSH BEAR 15cm LOVE   0000001000+00004385+00000+0001T   00004385+0000001431          1400 CN5745               3AZ
174113002174113112-116038     174113006009681820246TCS CARRIER BAG MIDI   0000001000+00000035+00000+0001T   00000035+0000001431          1400 CN5090               3AZ
174114000174114               174114               170213DP     1400+00000+DP0000001314+0000001314+000000000+000000184+0000001490+0000000008+I20000000000+0000001490+Z
174114001174114903-004950     174114006002580020304SWT APRICOT SURPRISE   0000001000+00001314+00000+0001T   00001314+0000001436          1400 CN5150               3AZ
174115000174115               174115               170213DP     1400+00000+DP0000003730+0000003730+000000000+000000523+0000004250+0000000003+I20000000000+0000004250+Z
174115001174115080-000127     174115006003000424351VALENTINES DAY 36x24CM 0000001000+00002192+00000+0001T   00002192+0000001440          1400 CN5112               3AZ
174115002174115077-000299     174115006003000395576G/BAG 32x25cm LRG LOVE 0000001000+00001490+00000+0001T   00001490+0000001440          1400 CN5112               3AZ
174115003174115112-116069     174115006009681820277TCS CARRIER BAG JUMBO  0000001000+00000048+00000+0001T   00000048+0000001440          1400 CN5090               3AZ
174116000174116               174116               170213DP     1400+00000+DP0000005997+0000005997+000000000+000000840+0000006830+0000000007+I20000000000+0000006830+Z
174116001174116080-000139     174116006003000611690CARD & ENV MINI SET 6PC0000001000+00002192+00000+0001T   00002192+0000001446          1400 CN5112               3AZ
174116002174116016-006517     174116006003000351626S/JAR GLS CHECK 650ML  0000001000+00002192+00000+0001T   00002192+0000001446          1400 CN5300               3AZ
174116003174116112-116038     174116006009681820246TCS CARRIER BAG MIDI   0000001000+00000035+00000+0001T   00000035+0000001446          1400 CN5090               3AZ
174116004174116077-000348     174116006001023483287GIFT-BOWS 4,5cm 8PCE   0000001000+00001578+00000+0001T   00001578+0000001446          1400 CN5112               3AZ
174117000174117               174117               170213DP     1400+00000+DP0000012278+0000012278+000000000+000001720+0000013998+0000000000+I40000013998+0000000000+Z
174117001174117466-000802     174117003523930009754BOXING-SET GLOVES+BAG  0000001000+00010525+00000+0001T   00010525+0000001448          1400 CN5785               3AZ
174117002174117077-000906     174117006003000410804G/WRAP 700mmx1m BIRTHDA0000001000+00001753+00000+0001T   00001753+0000001448          1400 CN5112               3AZ
174118000174118               174118               170213DP     1400+00000+DP0000003891+0000003891+000000000+000000546+0000004430+0000000007+I20000000000+0000004430+Z
174118001174118567-014133     174118006003000560103BOOK COLOURING 48 PAGE 0000002000+00001490+00000+0001T   00001490+0000001449          1400 CN5757               3AZ
174118002174118903-000220     174118006001704007368SWT JELLY BEANS 60G    0000001000+00000876+00000+0001T   00000876+0000001449          1400 CN5150               3AZ
174118003174118112-116038     174118006009681820246TCS CARRIER BAG MIDI   0000001000+00000035+00000+0001T   00000035+0000001449          1400 CN5090               3AZ
174119000174119               174119               170213DP     1400+00000+DP0000001313+0000001313+000000000+000000184+0000001490+0000000007+I20000000000+0000001490+Z
174119001174119033-010721     174119006001023678669SAFETY-PINS 20PCE ASSTD0000001000+00000700+00000+0001T   00000700+0000001449          1400 CN5200               3AZ
174119002174119033-005994     174119006001023789570SEWING-NEEDLES 16PCE   0000001000+00000613+00000+0001T   00000613+0000001449          1400 CN5200               3AZ
174120000174120               174120               170213DP     1400+00000+DP0000001402+0000001402+000000000+000000197+0000001590+0000000009+I20000000000+0000001590+Z
174120001174120304-001204     174120006001023737984FLOWER OCC. TEDDY/ROSES0000001000+00001402+00000+0001T   00001490+0006471450          1400 CN5510               3AZ
174121000174121               174121               170213DP     1400+00000+DP0000011825+0000011825+000000000+000001685+0000013510+0000000000+I40000013510+0000000000+Z
174121001174121903-000183     174121006003000451043SWT LB HEART LOLLY     0000030000+00000393+00000+0001T   00000393+0000001522          1400 CN5150               3AZ
174121002174121112-116038     174121006009681820246TCS CARRIER BAG MIDI   0000001000+00000035+00000+0001T   00000035+0000001522          1400 CN5090               3AZ
174122000174122               174122               170213DP     1400+00000+DP0000002364+0000002364+000000000+000000333+0000002690+0000000007+I20000000000+0000002690+Z
174122001174122903-000200     174122006009826020234SWT CHOC RP CHOCO 23G  0000003000+00000788+00000+0001T   00000788+0000001524          1400 CN5150               3AZ
174123000174123               174123               170213DP     1400+00000+DP0000008805+0000008805+000000000+000001233+0000010030+0000000008+I20000000000+0000010030+Z
174123001174123039-082103     174123006001023845788CANDLE FLOATING 6PC    0000001000+00004385+00000+0001T   00004385+0000001526          1400 CN5510               3AZ
174123002174123040-000216     174123006003000456444C/HOLDER GLS FLORAL    0000001000+00004385+00000+0001T   00004385+0000001526          1400 CN5510               3AZ
174123003174123112-116038     174123006009681820246TCS CARRIER BAG MIDI   0000001000+00000035+00000+0001T   00000035+0000001526          1400 CN5090               3AZ
174124000174124               174124               170213DP     1400+00000+DP0000007013+0000007013+000000000+000000983+0000007996+0000000000+I40000007996+0000000000+Z
174124001174124079-000206     174124006003000639700PENCIL CRAYONS THERAPY 0000001000+00001753+00000+0001T   00001753+0000001527          1400 CN5130               3AZ
174124002174124080-000116     174124006003000253555CARD&ENVELOPE-HANDMADE 0000001000+00001753+00000+0001T   00001753+0000001527          1400 CN5112               3AZ
174124003174124567-011343     174124006003000630592BK COLOURING THERAPY   0000001000+00003507+00000+0001T   00003507+0000001527          1400 CN5757               3AZ
174125000174125               174125               170213DP     1400+00000+DP0000002452+0000002452+000000000+000000344+0000002796+0000000000+I40000002796+0000000000+Z
174125001174125083-000055     174125006003000003853LIGHTER ELCTRNC REFILBL0000004000+00000613+00000+0001T   00000613+0000001530          1400 CN5315               3AZ
174126000174126               174126               170213DP     1400+00000+DP0000003069+0000003069+000000000+000000430+0000003490+0000000009+I20000000000+0000003490+Z
174126001174126050-000262-Z   174126006001023475237PADLOCK BRS 25mm CARDED0000001000+00003069+00000+0001T   00003069+0000001536          1400 CN5855               3AZ
174127000174127               174127               170213DP     1400+00000+DP0000005295+0000005295+000000000+000000743+0000006030+0000000008+I20000000000+0000006030+Z
174127001174127072-020285     174127006003000451364PET CAT TOY BALLS PK-4 0000001000+00002630+00000+0001T   00002630+0000001537          1400 CN5870               3AZ
174127002174127072-020274     174127006001023858443LITTER-LINERS-BAGS 10PC0000001000+00002630+00000+0001T   00002630+0000001537          1400 CN5870               3AZ
174127003174127112-116038     174127006009681820246TCS CARRIER BAG MIDI   0000001000+00000035+00000+0001T   00000035+0000001537          1400 CN5090               3AZ
174128000174128               174128               170213DP     1400+00000+DP0000004383+0000004383+000000000+000000615+0000004990+0000000008+I20000000000+0000004990+Z
174128001174128080-000113     174128006003000237449CARD&ENVLPE - LOVE     0000001000+00001753+00000+0001T   00001753+0000001538          1400 CN5112               3AZ
174128002174128031-000873-A   174128006003000675425P/FRAME WDN WHITE 10X150000001000+00002630+00000+0001T   00002630+0000001538          1400 CN5510               3AZ
174129000174129               174129               170213DP     1400+00000+DP0000005961+0000005961+000000000+000000836+0000006797+0000000000+I40000006797+0000000000+Z
174129001174129566-000352     174129006001023809261STICKERS LASER ASSTD   0000001000+00002192+00000+0001T   00002192+0000001539          1400 CN5130               3AZ
174129002174129077-000251     174129006003000639106GIFT-DECOR RIBBON      0000001000+00002630+00000+0001T   00002630+0000001539          1400 CN5112               3AZ
174129003174129903-000087     174129006001704000161SWT SPECKLED-EGGS 50G  0000001000+00001139+00000+0001T   00001139+0000001539          1400 CN5150               3AZ
174130000174130               174130               170213DP     1400+00000+DP0000002630+0000002630+000000000+000000369+0000002990+0000000009+I20000000000+0000002990+Z
174130001174130562-000010     174130006001023762528KID'S PLAY DOUGH       0000001000+00002630+00000+0001T   00002630+0000001540          1400 CN5755               3AZ
174131000174131               174131               170213DP     1400+00000+DP0000001578+0000001578+000000000+000000221+0000001790+0000000009+I20000000000+0000001790+Z
174131001174131080-000124     174131006003000297733CARD & ENV VALENTINES  0000001000+00001578+00000+0001T   00001578+0000001540          1400 CN5112               3AZ
174132000174132               174132               170213DP     1400+00000+DP0000001752+0000001752+000000000+000000246+0000001990+0000000008+I20000000000+0000001990+Z
174132001174132566-000200     174132006003000384174STICKER PUFFY NEON     0000002000+00000876+00000+0001T   00000876+0000001545          1400 CN5130               3AZ
174133000174133               174133               170213DP     1400+00000+DP0000000876+0000000876+000000000+000000123+0000000990+0000000009+I20000000000+0000000990+Z
174133001174133077-000314     174133006003000181148GIFT-BAG 11X14CM MATT  0000001000+00000876+00000+0001T   00000876+0000001545          1400 CN5112               3AZ
174134000174134               174134               170213DP     1400+00000+DP0000001753+0000001753+000000000+000000246+0000001990+0000000009+I20000000000+0000001990+Z
174134001174134077-000299-A   174134006003000670888GIFT-BAG PAPER JMB LOVE0000001000+00001753+00000+0001T   00001753+0000001546          1400 CN5112               3AZ
174135000174135               174135               170213DP     1400+00000+DP0000006870+0000006870+000000000+000000964+0000007834+0000000000+I40000007834+0000000000+Z
174135001174135002-021042     174135006001023621801TOOTHPICKS 250PCE      0000001000+00001227+00000+0001T   00001227+0000001553          1400 CN5300               3AZ
174135002174135028-000797     174135006001023812124SKEWERS 15cm 100PCE    0000001000+00000876+00000+0001T   00000876+0000001553          1400 CN5305               3AZ
174135003174135046-000011     174135004897006172994BATTERIES SIZE:AA  2PCE0000001000+00001402+00000+0001T   00001402+0000001553          1400 CN5312               3AZ
174135004174135046-000011-A   174135006003000438891BATTERIES SIZE:AA  4PCE0000001000+00002630+00000+0001T   00002630+0000001553          1400 CN5312               3AZ
174135005174135566-002000     174135000721129013206STICKERS CRYSTAL ASSTD 0000001000+00000700+00000+0001T   00000700+0000001553          1400 CN5130               3AZ
174135006174135112-116038     174135006009681820246TCS CARRIER BAG MIDI   0000001000+00000035+00000+0001T   00000035+0000001553          1400 CN5090               3AZ
174136000174136               174136               170213DP     1400+00000+DP0000001051+0000001051+000000000+000000148+0000001190+0000000009+I20000000000+0000001190+Z
174136001174136033-000125     174136006009654960658COMBS GENTS MINI 2PC   0000001000+00001051+00000+0001T   00001051+0000001555          1400 CN5200               3AZ
174137000174137               174137               170213DP     1400+00000+DP0000004856+0000004856+000000000+000000680+0000005536+0000000000+I40000005536+0000000000+Z
174137001174137077-000310     174137006001023608635GIFT-BAG 18X23CM GLOSS 0000001000+00001314+00000+0001T   00001314+0000001600          1400 CN5112               3AZ
174137002174137031-000872-B   174137006001023798749P/FRAME PL BRONZA 13X180000001000+00003507+00000+0001T   00003507+0000001600          1400 CN5510               3AZ
174137003174137112-116038     174137006009681820246TCS CARRIER BAG MIDI   0000001000+00000035+00000+0001T   00000035+0000001600          1400 CN5090               3AZ
174138000174138               174138               170213DP     1400+00000+DP0000017542+0000017542+000000000+000002456+0000019990+0000000008+I20000000000+0000019990+Z
174138001174138264-015055     174138000090159150558ALL-STARS ELITE TRNS   0000001000+00017542+00000+0001T   00017542+0000001602          1400 CN5710               3AZ
174139000174139               174139               170213DP     1400+00000+DP0000017590+0000017590+000000000+000002463+0000020050+0000000003+I20000000000+0000020050+Z
174139001174139079-000197     174139006003000155972ART+CRAFT ART SET 163PC0000001000+00017542+00000+0001T   00017542+0000001603          1400 CN5130               3AZ
174139002174139112-116069     174139006009681820277TCS CARRIER BAG JUMBO  0000001000+00000048+00000+0001T   00000048+0000001603          1400 CN5090               3AZ
174140000174140               174140               170213DP     1400+00000+DP0000011402+0000011402+000000000+000001597+0000012990+0000000009+I20000000000+0000012990+Z
174140001174140368-000637     174140006001023874092PLUSH BEAR SLEEPING LOV0000001000+00011402+00000+0001T   00012279+0006471603          1400 CN5745               3AZ
174141000174141               174141               170213DP     1400+00000+DP0000001753+0000001753+000000000+000000246+0000001990+0000000009+I20000000000+0000001990+Z
174141001174141077-000467     174141006003000329991GIFT-BAG STAMP 18X23CM 0000001000+00001753+00000+0001T   00001753+0000001604          1400 CN5112               3AZ
174142000174142               174142               170213DP     1400+00000+DP0000001753+0000001753+000000000+000000246+0000001990+0000000009+I20000000000+0000001990+Z
174142001174142566-000362     174142006003000583065STICKER LETTER & NUMBER0000001000+00001753+00000+0001T   00001753+0000001613          1400 CN5130               3AZ
174143000174143               174143               170213DP     1400+00000+DP0000001314+0000001314+000000000+000000184+0000001490+0000000008+I20000000000+0000001490+Z
174143001174143077-000470     174143006003000330171G-BAG DESGN SML 11X14CM0000001000+00001314+00000+0001T   00001314+0000001614          1400 CN5112               3AZ
174144000174144               174144               170213DP     1400+00000+DP0000006171+0000006171+000000000+000000866+0000007030+0000000007+I20000000000+0000007030+Z
174144001174144162-094831     174144006001492948317#TAG KIDS ELASTIC TUBES0000001000+00001753+00000+0001T   00001753+0000001615          1400 CN5160               3AZ
174144002174144078-000026     174144006936198407090SUPERGLUE 3,0g GEL     0000001000+00001753+00000+0001T   00001753+0000001615          1400 CN5810               3AZ
174144003174144079-000282     174144006001023493309PAINT TUBS POSTER 12COL0000001000+00002630+00000+0001T   00002630+0000001615          1400 CN5130               3AZ
174144004174144112-116038     174144006009681820246TCS CARRIER BAG MIDI   0000001000+00000035+00000+0001T   00000035+0000001615          1400 CN5090               3AZ
174145000174145               174145               170213DP     1400+00000+DP0000002366+0000002366+000000000+000000332+0000002690+0000000008+I20000000000+0000002690+Z
174145001174145077-000322     174145006001023677532GIFT-BAG 18X23CM E/D FL0000001000+00001227+00000+0001T   00001227+0000001616          1400 CN5112               3AZ
174145002174145903-000087     174145006001704000161SWT SPECKLED-EGGS 50G  0000001000+00001139+00000+0001T   00001139+0000001616          1400 CN5150               3AZ
174146000174146               174146               170213DP     1400+00000+DP0000003594+0000003594+000000000+000000504+0000004090+0000000008+I20000000000+0000004090+Z
174146001174146007-000204     174146006009635835272EXAM-PAD 60SHT PUNCHED 0000001000+00000964+00000+0001T   00000964+0000001616          1400 CN5130               3AZ
174146002174146007-000196     174146006002324002375FILE LEVER ARCH A4     0000001000+00002630+00000+0001T   00002630+0000001616          1400 CN5130               3AZ
174147000174147               174147               170213DP     1400+00000+DP0000002630+0000002630+000000000+000000369+0000002990+0000000009+I20000000000+0000002990+Z
174147001174147251-000003     174147006003000266159TAPE D/S 18x300mm V/PCK0000001000+00002630+00000+0001T   00002630+0000001617          1400 CN5810               3AZ
174148000174148               174148               170213DP     1400+00000+DP0000034638+0000034638+000000000+000004856+0000039494+0000000000+I40000039494+0000000000+Z
174148001174148018-000127     174148006001023380289MUG OCC STRAIGHT LOVE  0000001000+00001578+00000+0001T   00001753+0006471623          1400 CN5515               3AZ
174148002174148077-000290     174148006001023902023GIFT BOX 26x32x13cm    0000002000+00001753+00000+0001T   00001753+0000001623          1400 CN5112               3AZ
174148003174148466-000020     174148006001023167941FRISBEE 25cm           0000001000+00002192+00000+0001T   00002192+0000001623          1400 CN5785               3AZ
174148004174148006-000789     174148006001023148612CROWN BOY              0000001000+00002192+00000+0001T   00002192+0000001623          1400 CN5131               3AZ
174148005174148466-009008     174148006003000301713CATCHBALL W/2 BALLS    0000001000+00002630+00000+0001T   00002630+0000001623          1400 CN5785               3AZ
174148006174148366-002101     174148006003000617715DRESS UP MASK LIGHT UP 0000001000+00002630+00000+0001T   00002630+0000001623          1400 CN5131               3AZ
174148007174148016-006710     174148006003000674725S/JAR GLS RHEA 425ml   0000001000+00002630+00000+0001T   00002630+0000001623          1400 CN5300               3AZ
174148008174148016-006517     174148006003000351626S/JAR GLS CHECK 650ML  0000002000+00002192+00000+0001T   00002192+0000001623          1400 CN5300               3AZ
174148009174148016-006710     174148006003000674725S/JAR GLS RHEA 425ml   0000001000+00002630+00000+0001T   00002630+0000001623          1400 CN5300               3AZ
174148011174148261-000004     174148006003000599578GUN SPACE PING PONG    0000001000+00003507+00000+0001T   00003507+0000001623          1400 CN5710               3AZ
174148012174148016-006710     174148006003000674725S/JAR GLS RHEA 425ml   0000001000+00002630+00000+0001T   00002630+0000001623          1400 CN5300               3AZ
174148013174148028-000795     174148006001023812063SKEWERS 10cm 100PCE 3mm0000001000+00000964+00000+0001T   00000964+0000001623          1400 CN5305               3AZ
174148014174148263-000114     174148006001023827609CARS P/BACK RACER  4PCE0000001000+00003069+00000+0001T   00003069+0000001623          1400 CN5710               3AZ
174148015174148112-116069     174148006009681820277TCS CARRIER BAG JUMBO  0000002000+00000048+00000+0001T   00000048+0000001623          1400 CN5090               3AZ
174149000174149               174149               170213DP     1400+00000+DP0000005521+0000005521+000000000+000000774+0000006290+0000000005+I20000000000+0000006290+Z
174149001174149034-000329     174149006001023564290BOTTLE-BRUSHES WHT 2PCE0000001000+00001314+00000+0001T   00001314+0000001625          1400 CN5215               3AZ
174149002174149034-001487     174149006003000622405COOEY BABY FOOD CONTAIN0000001000+00002192+00000+0001T   00002192+0000001625          1400 CN5215               3AZ
174149003174149304-001204     174149006001023737984FLOWER OCC. TEDDY/ROSES0000001000+00001402+00000+0001T   00001490+0006471625          1400 CN5510               3AZ
174149004174149565-000044     174149006003000128280BARREL OF SLIME 100g   0000001000+00000613+00000+0001T   00000613+0000001625          1400 CN5745               3AZ
174150000174150               174150               170213DP     1400+00000+DP0000023722+0000023722+000000000+000003324+0000027046+0000000000+I40000027046+0000000000+Z
174150001174150079-014004     174150006003000080045ART+CRAFT JEWELRY ASSTD0000001000+00003507+00000+0001T   00003507+0000001627          1400 CN5130               3AZ
174150002174150077-000011-L   174150006001023808585P/TISSUE BRIGHT 10SHEET0000002000+00000876+00000+0001T   00000876+0000001627          1400 CN5112               3AZ
174150003174150079-014004     174150006003000080045ART+CRAFT JEWELRY ASSTD0000001000+00003507+00000+0001T   00003507+0000001627          1400 CN5130               3AZ
174150004174150079-008998     174150006003000339686ART+CRAFT  CANVAS      0000001000+00002630+00000+0001T   00002630+0000001627          1400 CN5130               3AZ
174150005174150077-000354     174150006003000139224GIFT-BAG 25X32CM H/MADE0000001000+00001753+00000+0001T   00001753+0000001627          1400 CN5112               3AZ
174150006174150361-008869     174150006003000541416DOLL BODICE SET STYLING0000001000+00010525+00000+0001T   00010525+0000001627          1400 CN5725               3AZ
174150007174150112-116069     174150006009681820277TCS CARRIER BAG JUMBO  0000001000+00000048+00000+0001T   00000048+0000001627          1400 CN5090               3AZ
174151000174151               174151               170213DP     1400+00000+DP0000007063+0000007063+000000000+000000990+0000008053+0000000000+I40000008053+0000000000+Z
174151001174151077-000270     174151006003000395453GIFT-BAG PPR JMB 33X45 0000001000+00002630+00000+0001T   00002630+0000001632          1400 CN5112               3AZ
174151002174151368-000049     174151006003000536955PLUSH BEAR 15cm LOVE   0000001000+00004385+00000+0001T   00004385+0000001632          1400 CN5745               3AZ
174151003174151112-116069     174151006009681820277TCS CARRIER BAG JUMBO  0000001000+00000048+00000+0001T   00000048+0000001632          1400 CN5090               3AZ
174152000174152               174152               170213DP     1400+00000+DP0000003507+0000003507+000000000+000000491+0000003990+0000000008+I20000000000+0000003990+Z
174152001174152031-000873-B   174152006003000673391P/FRAME WDN WHITE 13X180000001000+00003507+00000+0001T   00003507+0000001633          1400 CN5510               3AZ
174153000174153               174153               170213DP     1400+00000+DP0000003979+0000003979+000000000+000000558+0000004530+0000000007+I20000000000+0000004530+Z
174153001174153077-000310     174153006001023608635GIFT-BAG 18X23CM GLOSS 0000001000+00001314+00000+0001T   00001314+0000001640          1400 CN5112               3AZ
174153002174153112-116038     174153006009681820246TCS CARRIER BAG MIDI   0000001000+00000035+00000+0001T   00000035+0000001640          1400 CN5090               3AZ
174153003174153031-086219     174153006001023761729P/FRAME 9x13cm CURVED  0000001000+00002630+00000+0001T   00002630+0000001640          1400 CN5510               3AZ
174154000174154               174154               170213DP     1400+00000+DP0000018900+0000018900+000000000+000002648+0000021540+0000000008+I20000000000+0000021540+Z
174154001174154016-009100     174154006001023710284CERAMIC CREAMER & SUGAR0000001000+00008771+00000+0001T   00008771+0000001702          1400 CN5300               3AZ
174154002174154016-009604     174154006001023519559SHAKERS 2PC COW-DESIGNS0000001000+00003507+00000+0001T   00003507+0000001702          1400 CN5300               3AZ
174154003174154903-005000     174154006002580020007SWT CT MALLOW FISH 120g0000001000+00001314+00000+0001T   00001314+0000001702          1400 CN5150               3AZ
174154004174154006-000220-A   174154006001023890849PARTY TABLE-CLOTH GIRL 0000002000+00002630+00000+0001T   00002630+0000001702          1400 CN5131               3AZ
174154005174154112-116069     174154006009681820277TCS CARRIER BAG JUMBO  0000001000+00000048+00000+0001T   00000048+0000001702          1400 CN5090               3AZ
174155000174155               174155               170213DP     1400+00000+DP0000001578+0000001578+000000000+000000221+0000001790+0000000009+I20000000000+0000001790+Z
174155001174155077-000303     174155006001023593757GIFT-BAG PAPER MED     0000001000+00001578+00000+0001T   00001578+0000001702          1400 CN5112               3AZ
174156000174156               174156               170213DP     1400+00000+DP0000003506+0000003506+000000000+000000492+0000003990+0000000008+I20000000000+0000003990+Z
174156001174156266-000503     174156006001023791740TRANSFORMER WARRIOR 8cm0000001000+00001753+00000+0001T   00001753+0000001705          1400 CN5710               3AZ
174156002174156903-000610     174156006003000610518SWEET JUMBO BUBBLE GUM 0000001000+00001753+00000+0001T   00001753+0000001705          1400 CN5150               3AZ
174157000174157               174157               170213DP     1400+00000+DP0000002103+0000002103+000000000+000000295+0000002390+0000000008+I20000000000+0000002390+Z
174157001174157077-000299     174157006003000395576G/BAG 32x25cm LRG LOVE 0000001000+00001490+00000+0001T   00001490+0000001706          1400 CN5112               3AZ
174157002174157304-001011     174157006001023806727FLWR ROSE RED W/BEAR   0000001000+00000613+00000+0001T   00000788+0006471706          1400 CN5510               3AZ
174158000174158               174158               170213DP     1400+00000+DP0000002227+0000002227+000000000+000000312+0000002530+0000000009+I20000000000+0000002530+Z
174158001174158080-000127     174158006003000424351VALENTINES DAY 36x24CM 0000001000+00002192+00000+0001T   00002192+0000001712          1400 CN5112               3AZ
174158002174158112-116038     174158006009681820246TCS CARRIER BAG MIDI   0000001000+00000035+00000+0001T   00000035+0000001712          1400 CN5090               3AZ
174159000174159               174159               170213DP     1400+00000+DP0000012497+0000012497+000000000+000001752+0000014249+0000000000+I40000014249+0000000000+Z
174159001174159046-000011-A   174159006003000438891BATTERIES SIZE:AA  4PCE0000001000+00002630+00000+0001T   00002630+0000001717          1400 CN5312               3AZ
174159002174159369-000035     174159006001023795885EDU STACKING-SET ASSTD 0000001000+00003507+00000+0001T   00003507+0000001717          1400 CN5745               3AZ
174159003174159306-001130-A   174159006003000359271FIRSTAID SUPPORT ANKLE 0000001000+00001753+00000+0001T   00001753+0000001717          1400 CN5200               3AZ
174159004174159071-000873     174159006001023758743RUB-BANDS CLR BAG-100  0000001000+00001490+00000+0001T   00001490+0000001717          1400 CN5130               3AZ
174159005174159034-091340     174159006001023754370BABY-BIB PRINT MUM/DAD 0000001000+00003069+00000+0001T   00003069+0000001717          1400 CN5215               3AZ
174159006174159112-116069     174159006009681820277TCS CARRIER BAG JUMBO  0000001000+00000048+00000+0001T   00000048+0000001717          1400 CN5090               3AZ
174160000174160               174160               170213DP     1400+00000+DP0000002892+0000002892+000000000+000000405+0000003297+0000000000+I40000003297+0000000000+Z
174160001174160077-000470     174160006003000330171G-BAG DESGN SML 11X14CM0000001000+00001314+00000+0001T   00001314+0000001718          1400 CN5112               3AZ
174160002174160077-000303     174160006001023593757GIFT-BAG PAPER MED     0000001000+00001578+00000+0001T   00001578+0000001718          1400 CN5112               3AZ
174161000174161               174161               170213DP     1400+00000+DP0000004470+0000004470+000000000+000000627+0000005090+0000000007+I20000000000+0000005090+Z
174161001174161903-000087     174161006001704000161SWT SPECKLED-EGGS 50G  0000002000+00001139+00000+0001T   00001139+0000001719          1400 CN5150               3AZ
174161002174161080-000127     174161006003000424351VALENTINES DAY 36x24CM 0000001000+00002192+00000+0001T   00002192+0000001719          1400 CN5112               3AZ
174162000174162               174162               170213DP     1400+00000+DP0000003818+0000003818+000000000+000000535+0000004350+0000000003+I20000000000+0000004350+Z
174162001174162080-000127     174162006003000424351VALENTINES DAY 36x24CM 0000001000+00002192+00000+0001T   00002192+0000001719          1400 CN5112               3AZ
174162002174162077-000303     174162006001023593757GIFT-BAG PAPER MED     0000001000+00001578+00000+0001T   00001578+0000001719          1400 CN5112               3AZ
174162003174162112-116069     174162006009681820277TCS CARRIER BAG JUMBO  0000001000+00000048+00000+0001T   00000048+0000001719          1400 CN5090               3AZ
174163000174163               174163               170213DP     1400+00000+DP0000000613+0000000613+000000000+000000086+0000000690+0000000009+I20000000000+0000000690+Z
174163001174163083-000055     174163006003000003853LIGHTER ELCTRNC REFILBL0000001000+00000613+00000+0001T   00000613+0000001720          1400 CN5315               3AZ
174164000174164               174164               170213DP     1400+00000+DP0000002240+0000002240+000000000+000000314+0000002550+0000000004+I20000000000+0000002550+Z
174164001174164080-000127     174164006003000424351VALENTINES DAY 36x24CM 0000001000+00002192+00000+0001T   00002192+0000001722          1400 CN5112               3AZ
174164002174164112-116069     174164006009681820277TCS CARRIER BAG JUMBO  0000001000+00000048+00000+0001T   00000048+0000001722          1400 CN5090               3AZ
174165000174165               174165               170213DP     1400+00000+DP0000003993+0000003993+000000000+000000560+0000004550+0000000003+I20000000000+0000004550+Z
174165001174165031-000878-A   174165006001023798985P/FRAME 10x15cm PL-SLID0000001000+00000876+00000+0001T   00000876+0000001724          1400 CN5510               3AZ
174165002174165031-005830     174165009320760100040P/FRAME-CLIP 24X30CM   0000001000+00003069+00000+0001T   00003069+0000001724          1400 CN5510               3AZ
174165003174165112-116069     174165006009681820277TCS CARRIER BAG JUMBO  0000001000+00000048+00000+0001T   00000048+0000001724          1400 CN5090               3AZ
174166000174166               174166               170213DP     1400+00000+DP0000003945+0000003945+000000000+000000553+0000004498+0000000000+I40000004498+0000000000+Z
174166001174166566-000031     174166006003000283910STICKER BK TEACHER STIC0000001000+00002192+00000+0001T   00002192+0000001726          1400 CN5130               3AZ
174166002174166077-000382     174166006003000247820GIFT-BAG MED 18X23CM   0000001000+00001753+00000+0001T   00001753+0000001726          1400 CN5112               3AZ
174167000174167               174167               170213DP     1400+00000+DP0000001753+0000001753+000000000+000000246+0000001990+0000000009+I20000000000+0000001990+Z
174167001174167080-000101     174167006003000236732CARD&ENVLPE FEMALE     0000001000+00001753+00000+0001T   00001753+0000001726          1400 CN5112               3AZ
174168000174168               174168               170213DP     1400+00000+DP0000002630+0000002630+000000000+000000369+0000002990+0000000009+I20000000000+0000002990+Z
174168001174168108-003021     174168006003000343911MUG SUPER SIPPER 450ml 0000001000+00002630+00000+0001T   00002630+0000001729          1400 CN5210               3AZ
174169000174169               174169               170213DP     1400+00000+DP0000007048+0000007048+000000000+000000989+0000008030+0000000007+I20000000000+0000008030+Z
174169001174169027-077605     174169006001023997678STEELWOOL PADS 12PC 72g0000001000+00001753+00000+0001T   00001753+0000001731          1400 CN5212               3AZ
174169002174169105-006005     174169006003000666195CANNISTER PL 600ml     0000002000+00002630+00000+0001T   00002630+0000001731          1400 CN5210               3AZ
174169003174169112-116038     174169006009681820246TCS CARRIER BAG MIDI   0000001000+00000035+00000+0001T   00000035+0000001731          1400 CN5090               3AZ
174170000174170               174170               170213DP     1400+00000+DP0000000437+0000000437+000000000+000000062+0000000490+0000000009+I20000000000+0000000490+Z
174170001174170080-000133     174170006003000535613CARD&ENV MINI ASTD DSGN0000001000+00000437+00000+0001T   00000437+0000001732          1400 CN5112               3AZ
C17410700                                          170213DP007-000094     14103869SLAVE 3     CN53IC0000000000+0000000000+0010000001000+
C17414800                                          170213DP018-005009     16215616SLAVE 3     CN53IC0000000000+0000000000+0100000001000+
M17021391                              CASH        DPSLAVE 3                       Z-REPORT No.   624TOTAL (Sales - Refunds)           4904.35       CASH TO BE BANKED                 3041.10       DEBIT CARDS                          0.00       CREDIT CARDS                      1863.25       Z-READING                         4904.35       AIRTIME DEBIT CARD SALES             0.00       AIRTIME CARD SALES                   0.00       OVERS/UNDERS                         0.00       AIRTIME CASH SALES                   0.00       GIFT CARDS                           0.00       GIFT CARD CASH SALES                 0.00       T O T A L  CASH PAYOUTS              0.00                                                                                                                                                                                                                                                                                                                                                      Z
M17021392                              CASH        DPABSENT                                                                                                                                                                                          ANNUAL LEAVE                                                                                                                                                                                    DAY OFF                                                                                                                                                                                         COMMENTS                                                                                                                                                                                                                                                                                                                                                                                       Z
Y17021300                                          DP00000000430629+000095
ZDP17021319303 SLAVE 3      SALES DATA                     NEXT INVOICE NO.  174171 0624
F093766496-057489         1701151158280000032ICSLAVE 3
F093773496-028120         1701151158360000032ICSLAVE 3
F094146463-000501         1701151159020000062ICSLAVE 3
F094863022-002107         1702110937550000153ICSLAVE 3
X DP Slave 3 First invoice 174076 170213 Last invoice 174170 170213 Next invoice 174171 Total number of records 000000299 clbackup completed 19:30:19
