328450000328450               328450               170213DR     1400+00000+DR0000005084+0000005084+000000000+000000713+0000005797+0000000000+I40000005797+0000000000+Z
328450001328450077-000382     328450006003000247820GIFT-BAG MED 18X23CM   0000001000+00001753+00000+0001T   00001753+0000000906          1400 JC8112               2AZ
328450002328450077-000011-D   328450006001023808554TISSUE-WRAP WHITE 10PCE0000001000+00000876+00000+0001T   00000876+0000000906          1400 JC8112               2AZ
328450003328450077-000380     328450006003000247585GIFT-BAG 33X45CM S/COL 0000001000+00002455+00000+0001T   00002455+0000000906          1400 JC8112               2AZ
328451000328451               328451               170213DR     1400+00000+DR0000004385+0000004385+000000000+000000614+0000004990+0000000009+I20000000000+0000004990+Z
328451001328451082-000105     328451006003000360369READING GLS STRNGHT:1.50000001000+00004385+00000+0001T   00004385+0000000909          1400 JC8160               2AZ
328452000328452               328452               170213DR     1400+00000+DR0000014145+0000014145+000000000+000001985+0000016130+0000000000+I40000016130+0000000000+Z
328452001328452006-000166-D   328452006003000516490BALLOONS LRG 6PC RED   0000001000+00001314+00000+0001T   00001314+0000000913          1400 JC8131               2AZ
328452002328452006-000172-G   328452006003000610167BALLOONS METALLIC SILV 0000005000+00000218+00000+0001T   00000218+0000000913          1400 JC8131               2AZ
328452003328452006-000190     328452006003000685530BALLOONS LOVE 81x91cm  0000001000+00004385+00000+0001T   00004385+0000000913          1400 JC8131               2AZ
328452004328452006-001000     328452006003000093779HELIUM BALLOON FILL    0000012000+00000613+00000+0001T   00000613+0000000913          1400 JC8131               2AZ
328453000328453               328453               170213DR     1400+00000+DR0000001227+0000001227+000000000+000000172+0000001390+0000000009+I20000000000+0000001390+Z
328453001328453251-000040     328453006001023515865SEALTAPE CLEAR 48mmx50m0000001000+00001227+00000+0001T   00001227+0000000935          1400 JC8810               2AZ
328454000328454               328454               170213DR     1400+00000+DR0000013154+0000013154+000000000+000001843+0000014997+0000000000+I40000014997+0000000000+Z
328454001328454027-009025     328454006003962000747DUSTPAN-SET PL         0000001000+00002630+00000+0001T   00002630+0000000938          1400 JC8212               2AZ
328454002328454466-000589     328454006003000027538THROWING RINGSx5 SET   0000001000+00005262+00000+0001T   00005262+0000000938          1400 JC8785               2AZ
328454003328454133-000083     328454006003000450510DISH DRAINING MAT      0000001000+00005262+00000+0001T   00005262+0000000938          1400 JC8212               2AZ
328455000328455               328455               170213DR     1400+00000+DR0000001314+0000001314+000000000+000000184+0000001490+0000000008+I20000000000+0000001490+Z
328455001328455107-004105     328455006009703860984BUCKET 9L OPEN         0000001000+00001314+00000+0001T   00001314+0000000947          1400 JC8210               2AZ
328456000328456               328456               170213DR     1400+00000+DR0000010553+0000010553+000000000+000001479+0000012032+0000000000+I40000012032+0000000000+Z
328456001328456105-007405     328456006003000629558CONTAINER MINI 300ml   0000001000+00002630+00000+0001T   00003069+0008170953          1400 JC8210               2AZ
328456002328456369-001034     328456006003000105632BABY RATTLE SINGLE ASST0000001000+00001753+00000+0001T   00001753+0000000953          1400 JC8745               2AZ
328456003328456464-000238     328456006001023644039GAME SNAKES+LADDERS    0000001000+00001314+00000+0001T   00001314+0000000953          1400 JC8785               2AZ
328456004328456464-000253     328456006001023341402GAME LUDO       POLYBAG0000001000+00001314+00000+0001T   00001314+0000000953          1400 JC8785               2AZ
328456005328456105-003027     328456006001023114129CONTAINERS PL MINI 4PC 0000001000+00003507+00000+0001T   00004385+0008160953          1400 JC8210               2AZ
328456006328456112-116038     328456006009681820246TCS CARRIER BAG MIDI   0000001000+00000035+00000+0001T   00000035+0000000953          1400 JC8090               2AZ
328457000328457               328457               170213DR     1400+00000+DR0000009416+0000009416+000000000+000001320+0000010730+0000000006+I20000000000+0000010730+Z
328457001328457002-000047     328457006001023730107S/REST CER.28CM 2-ASSTD0000001000+00004385+00000+0001T   00004385+0000000954          1400 JC8300               2AZ
328457002328457016-006516     328457006003000351503S/JAR GLS CHECK 150ML  0000001000+00001490+00000+0001T   00001490+0000000954          1400 JC8300               2AZ
328457003328457027-000091     328457006003000343966WINDOW CLEANER 22CM    0000001000+00001753+00000+0001T   00001753+0000000954          1400 JC8212               2AZ
328457004328457112-116038     328457006009681820246TCS CARRIER BAG MIDI   0000001000+00000035+00000+0001T   00000035+0000000954          1400 JC8090               2AZ
328457005328457200-003024     328457006001023657299REFUSE BAGS 20PCE BLACK0000001000+00001753+00000+0001T   00001753+0000000954          1400 JC8214               2AZ
328458000328458               328458               170213DR     1400+00000+DR0000003069+0000003069+000000000+000000430+0000003499+0000000000+I40000003499+0000000000+Z
328458001328458038-092233     328458006003000328925TABLE-MAT N/SLIP ASST  0000001000+00003069+00000+0001T   00003507+0008190955          1400 JC8300               2AZ
328459000328459               328459               170213DR     1400+00000+DR0000017101+0000017101+000000000+000002396+0000019490+0000000007+I20000000000+0000019490+Z
328459002328459007-000046     328459006009635831366DISPLAY-BOOK PL A4 30PG0000001000+00002192+00000+0001T   00002192+0000001006          1400 JC8130               2AZ
328459003328459007-000714     328459006003000227150NOTE-BK A6 WIRO 80SHTS 0000001000+00002630+00000+0001T   00002630+0000001006          1400 JC8130               2AZ
328459004328459464-003002     328459006003000328550GAME THINK:CHESS KIDS  0000001000+00012279+00000+0001T   00012279+0000001006          1400 JC8785               2AZ
328460000328460               328460               170213DR     1400+00000+DR0000006576+0000006576+000000000+000000922+0000007490+0000000008+I20000000000+0000007490+Z
328460001328460007-000718     328460006003000226672NOTE MAGNETIC WKLY PLNR0000001000+00002630+00000+0001T   00002630+0000001007          1400 JC8130               2AZ
328460002328460007-000047     328460006009635833698FILE DISPLAY-BK A4 50PG0000001000+00003946+00000+0001T   00003946+0000001007          1400 JC8130               2AZ
328461000328461               328461               170213DR     1400+00000+DR0000002630+0000002630+000000000+000000369+0000002990+0000000009+I20000000000+0000002990+Z
328461001328461563-000317-C   328461006001023776204SERVIETTES 20PK  FLOWER0000001000+00002630+00000+0001T   00002630+0000001013          1400 JC8214               2AZ
328462000328462               328462               170213DR     1400+00000+DR0000003507+0000003507+000000000+000000491+0000003990+0000000008+I20000000000+0000003990+Z
328462001328462007-000324     32846200600968585864125 SHEETS BRIGHTS MARLI0000001000+00003507+00000+0001T   00003507+0000001014          1400 JC8130               2AZ
328463000328463               328463               170213DR     1400+00000+DR0000004903+0000004903+000000000+000000690+0000005590+0000000003+I20000000000+0000005590+Z
328463001328463903-000155     328463006009803374435SWT LOLLY I LUV U HEART0000006000+00000525+00000+0001T   00000525+0000001017          1400 JC8150               2AZ
328463002328463051-600653     328463006003000267774PLANT SEED TRAY 60CUP  0000001000+00001753+00000+0001T   00001753+0000001017          1400 JC8820               2AZ
328464000328464               328464               170213DR     1400+00000+DR0000003857+0000003857+000000000+000000541+0000004390+0000000008+I20000000000+0000004390+Z
328464001328464033-000013     328464006001023567215PILL-REMINDER PL       0000001000+00001227+00000+0001T   00001227+0000001019          1400 JC8200               2AZ
328464002328464563-000317-C   328464006001023776204SERVIETTES 20PK  FLOWER0000001000+00002630+00000+0001T   00002630+0000001019          1400 JC8214               2AZ
328465000328465               328465               170213DR     1400+00000+DR0000003506+0000003506+000000000+000000492+0000003990+0000000008+I20000000000+0000003990+Z
328465001328465051-002402     328465006001023518347TRIGGER-SPRAYER  500ml 0000002000+00001753+00000+0001T   00001753+0000001021          1400 JC8820               2AZ
328466000328466               328466               170213DR     1400+00000+DR0000019720+0000019720+000000000+000002766+0000022486+0000000000+I40000022486+0000000000+Z
328466001328466077-000457     328466006003000285662G/BAG METALLIC JMB SOL 0000001000+00001753+00000+0001T   00001753+0000001024          1400 JC8112               2AZ
328466002328466002-220002     328466006001023677877F/COVER SQ 31cm WHT    0000002000+00002630+00000+0001T   00002630+0000001024          1400 JC8300               2AZ
328466003328466564-000012     328466006001023130075BUBBLE BOTTLE MAGIC    0000001000+00000700+00000+0001T   00000700+0000001024          1400 JC8131               2AZ
328466004328466024-000034     328466006001023495235MEASURING-JUG 1-CUP    0000001000+00001578+00000+0001T   00001578+0000001024          1400 JC8300               2AZ
328466005328466024-006874     328466006001023769978PASTRY-BRUSH SQ WHITE  0000001000+00001753+00000+0001T   00001753+0000001024          1400 JC8300               2AZ
328466006328466903-000070     328466006001704001106SWT TOFFEE CREAMY 35g  0000001000+00000700+00000+0001T   00000700+0000001024          1400 JC8150               2AZ
328466007328466903-000593     328466006003000563890SWT WATER GUN 15cm     0000001000+00001753+00000+0001T   00001753+0000001024          1400 JC8150               2AZ
328466008328466267-000020     328466006001023892355PUZZLE 4x16PCE COLOR-IN0000001000+00001753+00000+0001T   00001753+0000001024          1400 JC8755               2AZ
328466009328466007-000610     328466006009685851017DIARY HOMEWORK UNDATED 0000001000+00001402+00000+0001T   00001402+0000001024          1400 JC8130               2AZ
328466010328466027-783006     328466006003000060719SCOURERS SPONGE        0000001000+00000876+00000+0001T   00000876+0000001024          1400 JC8212               2AZ
328466011328466018-000170     328466006001023775528MUG OCC. LOVE 2PC MINI 0000001000+00002192+00000+0001T   00002192+0000001024          1400 JC8515               2AZ
328467000328467               328467               170213DR     1400+00000+DR0000004207+0000004207+000000000+000000589+0000004790+0000000006+I20000000000+0000004790+Z
328467001328467362-019282     328467006003000258079H/ACCESS 16PC BEAD HNDL0000001000+00003507+00000+0001T   00003507+0000001025          1400 JC8160               2AZ
328467002328467564-000012     328467006001023130075BUBBLE BOTTLE MAGIC    0000001000+00000700+00000+0001T   00000700+0000001025          1400 JC8131               2AZ
328468000328468               328468               170213DR     1400+00000+DR0000003945+0000003945+000000000+000000553+0000004498+0000000000+I40000004498+0000000000+Z
328468001328468031-000868-A   328468006001023798534P/FRAME PL BLCK 10X15CM0000001000+00002192+00000+0001T   00002192+0000001028          1400 JC8510               2AZ
328468002328468200-003024     328468006001023657299REFUSE BAGS 20PCE BLACK0000001000+00001753+00000+0001T   00001753+0000001028          1400 JC8214               2AZ
328469000328469               328469               170213DR     1400+00000+DR0000004384+0000004384+000000000+000000614+0000004990+0000000008+I20000000000+0000004990+Z
328469001328469046-000012-A   328469006003000208296BATTERIES H/POWER SZ:AA0000002000+00002192+00000+0001T   00002192+0000001035          1400 JC8312               2AZ
328470000328470               328470               170213DR     1400+00000+DR0000003945+0000003945+000000000+000000553+0000004490+0000000008+I20000000000+0000004490+Z
328470001328470203-005500     328470006001023914194B/POURER PL OPEN BAR   0000001000+00002192+00000+0001T   00002192+0000001037          1400 JC8300               2AZ
328470002328470200-003024     328470006001023657299REFUSE BAGS 20PCE BLACK0000001000+00001753+00000+0001T   00001753+0000001037          1400 JC8214               2AZ
328471000328471               328471               170213DR     1400+00000+DR0000016662+0000016662+000000000+000002334+0000018996+0000000000+I40000018996+0000000000+Z
328471001328471903-000215     328471006002099001214SWT GS MALLOW TWIST PAC0000001000+00001753+00000+0001T   00001753+0000001042          1400 JC8150               2AZ
328471002328471079-130010     328471006003000496624ART+CRAFT FOAM DOLLS   0000001000+00004385+00000+0001T   00004385+0000001042          1400 JC8130               2AZ
328471003328471494-059258     328471000078257592586INTEX TUBE 76cm        0000002000+00005262+00000+0001T   00005262+0000001042          1400 JC8787               2AZ
328472000328472               328472               170213DR     1400+00000+DR0000001753+0000001753+000000000+000000246+0000001990+0000000009+I20000000000+0000001990+Z
328472001328472084-006995     328472006003000092802NAIL CLIPPER 8cm TOE   0000001000+00001753+00000+0001T   00001753+0000001047          1400 JC8200               2AZ
328473000328473               328473               170213DR     1400+00000+DR0000003855+0000003855+000000000+000000541+0000004396+0000000000+I40000004396+0000000000+Z
328473001328473071-081104-A   328473006003000326662GLUE-STICK 8g CRD-OF-3 0000001000+00001227+00000+0001T   00001227+0000001051          1400 JC8130               2AZ
328473002328473077-000011-E   328473006001023808646TISSUE-WRAP PINK 10PCE 0000003000+00000876+00000+0001T   00000876+0000001051          1400 JC8112               2AZ
328474000328474               328474               170213DR     1400+00000+DR0000003506+0000003506+000000000+000000492+0000003990+0000000008+I20000000000+0000003990+Z
328474001328474200-003024     328474006001023657299REFUSE BAGS 20PCE BLACK0000002000+00001753+00000+0001T   00001753+0000001055          1400 JC8214               2AZ
328475000328475               328475               170213DR     1400+00000+DR0000007133+0000007133+000000000+000001001+0000008134+0000000000+I40000008134+0000000000+Z
328475001328475903-002890     328475008935001721352MENTOS GUM PURE F/MINT 0000001000+00001051+00000+0001T   00001051+0000001057          1400 JC8150               2AZ
328475002328475089-000141-H   328475006001023416568KEY-CHAINS 6PCE     H&H0000002000+00001490+00000+0001T   00001490+0000001057          1400 JC8205               2AZ
328475003328475046-000012     328475006904708013062BATTERIES AA  CARD-OF-40000001000+00001314+00000+0001T   00001314+0000001057          1400 JC8312               2AZ
328475004328475112-116038     328475006009681820246TCS CARRIER BAG MIDI   0000001000+00000035+00000+0001T   00000035+0000001057          1400 JC8090               2AZ
328475005328475200-003024     328475006001023657299REFUSE BAGS 20PCE BLACK0000001000+00001753+00000+0001T   00001753+0000001057          1400 JC8214               2AZ
328476000328476               328476               170213DR     1400+00000+DR0000006139+0000006139+000000000+000000860+0000006990+0000000009+I20000000000+0000006990+Z
328476001328476463-000363     328476006001023400673SWIM-SET MASK+SNORKEL  0000001000+00006139+00000+0001T   00006139+0000001058          1400 JC8785               2AZ
328477000328477               328477               170213DR     1400+00000+DR0000008770+0000008770+000000000+000001228+0000009998+0000000000+I40000009998+0000000000+Z
328477001328477082-000110     328477006003000360482READING GLS STRENGHT:2 0000001000+00004385+00000+0001T   00004385+0000001100          1400 JC8160               2AZ
328477002328477082-000105     328477006003000360369READING GLS STRNGHT:1.50000001000+00004385+00000+0001T   00004385+0000001100          1400 JC8160               2AZ
328478000328478               328478               170213DR     1400+00000+DR0000024557+0000024557+000000000+000003440+0000027990+0000000007+I20000000000+0000027990+Z
328478001328478071-001124     328478006001023802873MARKERS WHITEBOARD 3PCE0000001000+00002630+00000+0001T   00002630+0000001101          1400 JC8130               2AZ
328478002328478007-010502     328478006003000455270WIPE & CHALK 60X45CM   0000001000+00015788+00000+0001T   00015788+0000001101          1400 JC8130               2AZ
328478003328478007-010500     328478006003000455034WIPE & CHALK 30X20CM   0000001000+00006139+00000+0001T   00006139+0000001101          1400 JC8130               2AZ
328479000328479               328479               170213DR     1400+00000+DR0000012277+0000012277+000000000+000001720+0000013997+0000000000+I40000013997+0000000000+Z
328479001328479133-000001     328479006003000329342CLEANING CLOTHS 3-PK   0000001000+00003069+00000+0001T   00003069+0000001103          1400 JC8212               2AZ
328479002328479200-003024     328479006001023657299REFUSE BAGS 20PCE BLACK0000001000+00001753+00000+0001T   00001753+0000001103          1400 JC8214               2AZ
328479003328479002-000711     328479006003000442775C/BOARD WDN 24x33.5x1.60000001000+00007455+00000+0001T   00007455+0000001103          1400 JC8300               2AZ
328480000328480               328480               170213DR     1400+00000+DR0000019761+0000019761+000000000+000002768+0000022520+0000000009+I20000000000+0000022520+Z
328480001328480566-000317     328480006003000524204STICKER TAPE 2PCS      0000001000+00003507+00000+0001T   00003507+0000001104          1400 JC8130               2AZ
328480002328480079-000600     328480006003000160990ART-SHEETS FOAM ASSTD-C0000001000+00003507+00000+0001T   00003507+0000001104          1400 JC8130               2AZ
328480003328480079-006525     328480006003000681938MASKING FABRIC 10PC    0000001000+00002630+00000+0001T   00002630+0000001104          1400 JC8130               2AZ
328480004328480077-000303     328480006001023593757GIFT-BAG PAPER MED     0000001000+00001578+00000+0001T   00001578+0000001104          1400 JC8112               2AZ
328480005328480079-000807     328480006003000670277ART+CRAFT WOODEN STICKS0000001000+00001490+00000+0001T   00001490+0000001104          1400 JC8130               2AZ
328480006328480566-000561     328480006003000068715S/BOOK PAPER CRAFT 12SH0000001000+00003507+00000+0001T   00003507+0000001104          1400 JC8130               2AZ
328480007328480112-116038     328480006009681820246TCS CARRIER BAG MIDI   0000001000+00000035+00000+0001T   00000035+0000001104          1400 JC8090               2AZ
328480008328480077-000934     328480006003000409921G/WRAP 700mmx5m BIRTHDA0000001000+00003507+00000+0001T   00003507+0000001104          1400 JC8112               2AZ
328481000328481               328481               170213DR     1400+00000+DR0000006623+0000006623+000000000+000000929+0000007552+0000000000+I40000007552+0000000000+Z
328481001328481566-000352     328481006001023809261STICKERS LASER ASSTD   0000001000+00002192+00000+0001T   00002192+0000001108          1400 JC8130               2AZ
328481002328481200-003024     328481006001023657299REFUSE BAGS 20PCE BLACK0000001000+00001753+00000+0001T   00001753+0000001108          1400 JC8214               2AZ
328481003328481080-000142     328481006003000662456CARD & ENV GIANT AFRI  0000001000+00002630+00000+0001T   00002630+0000001108          1400 JC8112               2AZ
328481004328481112-116069     328481006009681820277TCS CARRIER BAG JUMBO  0000001000+00000048+00000+0001T   00000048+0000001108          1400 JC8090               2AZ
328482000328482               328482               170213DR     1400+00000+DR0000011923+0000011923+000000000+000001671+0000013594+0000000000+I40000013594+0000000000+Z
328482001328482303-000750     328482006003000370818KEY-HOLDER BRASS ANTIQU0000001000+00006139+00000+0001T   00006139+0000001110          1400 JC8510               2AZ
328482002328482077-000318     328482006001023609755GIFT-BAG 18X23CM E/D AN0000002000+00001227+00000+0001T   00001227+0000001110          1400 JC8112               2AZ
328482003328482077-000011-D   328482006001023808554TISSUE-WRAP WHITE 10PCE0000001000+00000876+00000+0001T   00000876+0000001110          1400 JC8112               2AZ
328482004328482077-000319     328482006001023609779GIFT-BAG 18X23CM BIRTHD0000002000+00001227+00000+0001T   00001227+0000001110          1400 JC8112               2AZ
328483000328483               328483               170213DR     1400+00000+DR0000009241+0000009241+000000000+000001295+0000010536+0000000000+I40000010536+0000000000+Z
328483001328483566-000031     328483006003000283910STICKER BK TEACHER STIC0000001000+00002192+00000+0001T   00002192+0000001115          1400 JC8130               2AZ
328483002328483566-000006     328483006001023671189STICKER-BOOK DRESS-UP  0000001000+00002630+00000+0001T   00002630+0000001115          1400 JC8130               2AZ
328483003328483567-004965     328483009780636049215SPF G03 AFRIKAANS      0000002000+00002192+00000+0001T   00002192+0000001115          1400 JC8757               2AZ
328483004328483112-116038     328483006009681820246TCS CARRIER BAG MIDI   0000001000+00000035+00000+0001T   00000035+0000001115          1400 JC8090               2AZ
328484000328484               328484               170213DR     1400+00000+DR0000007048+0000007048+000000000+000000989+0000008030+0000000007+I20000000000+0000008030+Z
328484001328484019-071601     328484006001023771995RIVER-STONES 1kg WHITE 0000002000+00002630+00000+0001T   00002630+0000001125          1400 JC8510               2AZ
328484002328484200-003024     328484006001023657299REFUSE BAGS 20PCE BLACK0000001000+00001753+00000+0001T   00001753+0000001125          1400 JC8214               2AZ
328484003328484112-116038     328484006009681820246TCS CARRIER BAG MIDI   0000001000+00000035+00000+0001T   00000035+0000001125          1400 JC8090               2AZ
328485000328485               328485               170213DR     1400+00000+DR0000004385+0000004385+000000000+000000614+0000004990+0000000009+I20000000000+0000004990+Z
328485001328485024-000003     328485006001023462206S/BURNER COVERS ASSTD  0000001000+00004385+00000+0001T   00004385+0000001127          1400 JC8300               2AZ
328486000328486               328486               170213DR     1400+00000+DR0000002979+0000002979+000000000+000000418+0000003390+0000000007+I20000000000+0000003390+Z
328486001328486903-002851     328486000000087108538MENTOS ROLL STRAWBERRY 0000001000+00001051+00000+0001T   00001051+0000001128          1400 JC8150               2AZ
328486002328486007-000204     328486006009635835272EXAM-PAD 60SHT PUNCHED 0000002000+00000964+00000+0001T   00000964+0000001128          1400 JC8130               2AZ
328487000328487               328487               170213DR     1400+00000+DR0000006971+0000006971+000000000+000000979+0000007950+0000000000+I20000000000+0000007950+Z
328487001328487142-000814     328487006001023183910GLOVES RUBBER  MEDIUM  0000002000+00001753+00000+0001T   00001753+0000001134          1400 JC8810               2AZ
328487002328487112-116069     328487006009681820277TCS CARRIER BAG JUMBO  0000001000+00000048+00000+0001T   00000048+0000001134          1400 JC8090               2AZ
328487003328487140-006004     328487006001023628077FLY-SWATTER RUBBER     0000003000+00001139+00000+0001T   00001139+0000001134          1400 JC8830               2AZ
328488000328488               328488               170213DR     1400+00000+DR0000016531+0000016531+000000000+000002318+0000018840+0000000009+I20000000000+0000018840+Z
328488001328488046-000010-VP  328488006003000537792BATTERIES SIZE:AAA 12PC0000001000+00006139+00000+0001T   00006139+0000001139          1400 JC8312               2AZ
328488002328488036-000151     328488006001023810588COATHANGERS    PACK-10 0000001000+00002893+00000+0001T   00002893+0000001139          1400 JC8212               2AZ
328488003328488046-000012-A   328488006003000208296BATTERIES H/POWER SZ:AA0000001000+00002192+00000+0001T   00002192+0000001139          1400 JC8312               2AZ
328488004328488071-003003     328488006003000144525PEN BALL PEN 3PCE BLACK0000001000+00000876+00000+0001T   00000876+0000001139          1400 JC8130               2AZ
328488005328488027-000090     328488006001023588265WINDOW-CLEANER LONG-HND0000001000+00002630+00000+0001T   00002630+0000001139          1400 JC8212               2AZ
328488006328488112-116069     328488006009681820277TCS CARRIER BAG JUMBO  0000001000+00000048+00000+0001T   00000048+0000001139          1400 JC8090               2AZ
328488007328488200-003024     328488006001023657299REFUSE BAGS 20PCE BLACK0000001000+00001753+00000+0001T   00001753+0000001139          1400 JC8214               2AZ
328489000328489               328489               170213DR     1400+00000+DR0000003390-0000000000+000000000+000000000+0000003390-0000000000+I20000000000+0000003390-Z
328489001328489001-999909     328489000000000999909STAFF-REFRESHMENTS     0000001000-00003390+00000+0001X   00000000+0000001142          0000 JC89092IC            2 Z
328490000328490               328490               170213DR     1400+00000+DR0000004764+0000004764+000000000+000000670+0000005430+0000000004+I20000000000+0000005430+Z
328490001328490903-003080     328490005907029004673SWT SNACK STIX CHOC 50g0000001000+00000876+00000+0001T   00000876+0000001143          1400 JC8150               2AZ
328490002328490903-000155     328490006009803374435SWT LOLLY I LUV U HEART0000001000+00000525+00000+0001T   00000525+0000001143          1400 JC8150               2AZ
328490003328490903-000087     328490006001704000161SWT SPECKLED-EGGS 50G  0000001000+00001139+00000+0001T   00001139+0000001143          1400 JC8150               2AZ
328490004328490301-085002     328490006003000420704ORN OCC. LOVE BELL ASST0000001000+00001753+00000+0001T   00002630+0008121143          1400 JC8505               2AZ
328490005328490112-116038     328490006009681820246TCS CARRIER BAG MIDI   0000001000+00000035+00000+0001T   00000035+0000001143          1400 JC8090               2AZ
328490006328490006-000172-K   328490006003000610334BALLOONS METALLIC PURPL0000001000+00000218+00000+0001T   00000218+0000001143          1400 JC8131               2AZ
328490007328490006-000172-G   328490006003000610167BALLOONS METALLIC SILV 0000001000+00000218+00000+0001T   00000218+0000001143          1400 JC8131               2AZ
328491000328491               328491               170213DR     1400+00000+DR0000009857+0000009857+000000000+000001381+0000011230+0000000008+I20000000000+0000011230+Z
328491001328491903-002890     328491008935001721352MENTOS GUM PURE F/MINT 0000001000+00001051+00000+0001T   00001051+0000001146          1400 JC8150               2AZ
328491002328491567-010162     328491006003000485123BOOK TOP ASSTD NOVELS  0000001000+00008771+00000+0001T   00008771+0000001146          1400 JC8757               2AZ
328491003328491112-116038     328491006009681820246TCS CARRIER BAG MIDI   0000001000+00000035+00000+0001T   00000035+0000001146          1400 JC8090               2AZ
328492000328492               328492               170213DR     1400+00000+DR0000010995+0000010995+000000000+000001541+0000012530+0000000006+I20000000000+0000012530+Z
328492001328492200-003024     328492006001023657299REFUSE BAGS 20PCE BLACK0000002000+00001753+00000+0001T   00001753+0000001148          1400 JC8214               2AZ
328492002328492303-000806     328492006001023409768COW-BELL BRASS(5BELLS) 0000001000+00005262+00000+0001T   00005262+0000001148          1400 JC8510               2AZ
328492003328492046-000012-A   328492006003000208296BATTERIES H/POWER SZ:AA0000001000+00002192+00000+0001T   00002192+0000001148          1400 JC8312               2AZ
328492004328492112-116038     328492006009681820246TCS CARRIER BAG MIDI   0000001000+00000035+00000+0001T   00000035+0000001148          1400 JC8090               2AZ
328493000328493               328493               170213DR     1400+00000+DR0000008590+0000008590+000000000+000001205+0000009790+0000000005+I20000000000+0000009790+Z
328493001328493251-000031     328493006001023515827MASKING-TAPE 24mmx40m  0000001000+00001578+00000+0001T   00001578+0000001149          1400 JC8810               2AZ
328493002328493054-000801     328493006001023119230WIRE-BRUSH+HANDLE FINE 0000002000+00001753+00000+0001T   00001753+0000001149          1400 JC8810               2AZ
328493003328493151-000620     328493006001023653345WIRE-BRUSH-SET SML 3PCE0000001000+00001753+00000+0001T   00001753+0000001149          1400 JC8810               2AZ
328493004328493051-002402     328493006001023518347TRIGGER-SPRAYER  500ml 0000001000+00001753+00000+0001T   00001753+0000001149          1400 JC8820               2AZ
328494000328494               328494               170213DR     1400+00000+DR0000003069+0000003069+000000000+000000430+0000003490+0000000009+I20000000000+0000003490+Z
328494001328494365-003056     328494006009635021453KIDDIES WOODEN BROOM   0000001000+00003069+00000+0001T   00003069+0000001155          1400 JC8725               2AZ
328495000328495               328495               170213DR     1400+00000+DR0000002630+0000002630+000000000+000000369+0000002990+0000000009+I20000000000+0000002990+Z
328495001328495077-000512     328495006003000590223GIFT-BAG DESIGNER LRG  0000001000+00002630+00000+0001T   00002630+0000001156          1400 JC8112               2AZ
328496000328496               328496               170213DR     1400+00000+DR0000006573+0000006573+000000000+000000923+0000007490+0000000006+I20000000000+0000007490+Z
328496001328496080-000133-A   328496006003000647019MINI VALENTINES CARD   0000001000+00000437+00000+0001T   00000437+0000001158          1400 JC8112               2AZ
328496002328496085-007001     328496006001023909329P/TOOL MINI 7in1       0000001000+00002630+00000+0001T   00002630+0000001158          1400 JC8305               2AZ
328496003328496105-001021     328496006003000667062CONTAINER MICRO/FREEZER0000001000+00001753+00000+0001T   00002630+0008161158          1400 JC8210               2AZ
328496004328496080-000100     328496006003000236114CARD & ENVELOPE BDAY   0000001000+00001753+00000+0001T   00001753+0000001158          1400 JC8112               2AZ
328497000328497               328497               170213DR     1400+00000+DR0000011401+0000011401+000000000+000001597+0000012990+0000000008+I20000000000+0000012990+Z
328497001328497124-000003     328497006003000576814STORAGE TIN ROUND ASTD 0000001000+00001753+00000+0001T   00002630+0008171159          1400 JC8300               2AZ
328497002328497495-058889     328497000078257588893LOUNGER PILLOW-BACK    0000001000+00009648+00000+0001T   00009648+0000001159          1400 JC8787               2AZ
328498000328498               328498               170213DR     1400+00000+DR0000015781+0000015781+000000000+000002210+0000017991+0000000000+I40000017991+0000000000+Z
328498001328498133-000009     328498006003000060726KITCHEN SWAB 3PC M/FIBR0000004000+00003507+00000+0001T   00003507+0000001203          1400 JC8212               2AZ
328498002328498200-003024     328498006001023657299REFUSE BAGS 20PCE BLACK0000001000+00001753+00000+0001T   00001753+0000001203          1400 JC8214               2AZ
328499000328499               328499               170213DR     1400+00000+DR0000005262+0000005262+000000000+000000737+0000005999+0000000000+I40000005999+0000000000+Z
328499001328499368-000101     328499006003000449859PLUSH CAT 17cm KITTY   0000001000+00005262+00000+0001T   00005262+0000001204          1400 JC8745               2AZ
328500000328500               328500               170213DR     1400+00000+DR0000004121+0000004121+000000000+000000577+0000004690+0000000008+I20000000000+0000004690+Z
328500001328500046-000014-VP  328500006003000537952BATTERIES H/P SIZE:AAA 0000001000+00004121+00000+0001T   00004121+0000001205          1400 JC8312               2AZ
328501000328501               328501               170213DR     1400+00000+DR0000002664+0000002664+000000000+000000374+0000003030+0000000008+I20000000000+0000003030+Z
328501001328501204-000009     328501006003000577200MEMO HOLDER CUPCAKE    0000001000+00000876+00000+0001T   00001490+0008131206          1400 JC8300               2AZ
328501002328501009-001709     328501006001023807762SALAD BOWL 23cm SWIRL  0000001000+00001753+00000+0001T   00001753+0000001206          1400 JC8210               2AZ
328501003328501112-116038     328501006009681820246TCS CARRIER BAG MIDI   0000001000+00000035+00000+0001T   00000035+0000001206          1400 JC8090               2AZ
328502000328502               328502               170213DR     1400+00000+DR0000005784+0000005784+000000000+000000812+0000006596+0000000000+I40000006596+0000000000+Z
328502001328502903-000155     328502006009803374435SWT LOLLY I LUV U HEART0000001000+00000525+00000+0001T   00000525+0000001212          1400 JC8150               2AZ
328502002328502039-081008     328502006008766081008CANDLES 9PCE SCENTED   0000001000+00002630+00000+0001T   00002630+0000001212          1400 JC8510               2AZ
328502003328502077-000011-L   328502006001023808585P/TISSUE BRIGHT 10SHEET0000001000+00000876+00000+0001T   00000876+0000001212          1400 JC8112               2AZ
328502004328502077-000289     328502006001023901996GIFT BOX 20x25x11cm    0000001000+00001753+00000+0001T   00001753+0000001212          1400 JC8112               2AZ
328503000328503               328503               170213DR     1400+00000+DR0000009242+0000009242+000000000+000001295+0000010537+0000000000+I40000010537+0000000000+Z
328503001328503079-013032-D   328503006003000389643RIBBONS                0000001000+00002630+00000+0001T   00002630+0000001214          1400 JC8130               2AZ
328503002328503566-000359     328503006003000582709STICKER BOOK LOVE SPARK0000001000+00002192+00000+0001T   00002192+0000001214          1400 JC8130               2AZ
328503003328503104-000030     328503006001023803481BASKET PL 28x20x12cm   0000001000+00004385+00000+0001T   00004385+0000001214          1400 JC8210               2AZ
328503004328503112-116038     328503006009681820246TCS CARRIER BAG MIDI   0000001000+00000035+00000+0001T   00000035+0000001214          1400 JC8090               2AZ
328504000328504               328504               170213DR     1400+00000+DR0000008449+0000008449+000000000+000001186+0000009630+0000000005+I20000000000+0000009630+Z
328504001328504033-000013     328504006001023567215PILL-REMINDER PL       0000001000+00001227+00000+0001T   00001227+0000001216          1400 JC8200               2AZ
328504002328504033-000008     328504006003000226818PILL REMINDER 28-COMPAR0000001000+00002630+00000+0001T   00002630+0000001216          1400 JC8200               2AZ
328504003328504105-000750     328504006003000190270CONTAINERS 4xMINI 150ml0000002000+00001402+00000+0001T   00001402+0000001216          1400 JC8210               2AZ
328504004328504112-116038     328504006009681820246TCS CARRIER BAG MIDI   0000001000+00000035+00000+0001T   00000035+0000001216          1400 JC8090               2AZ
328504005328504200-003024     328504006001023657299REFUSE BAGS 20PCE BLACK0000001000+00001753+00000+0001T   00001753+0000001216          1400 JC8214               2AZ
328505000328505               328505               170213DR     1400+00000+DR0000004853+0000004853+000000000+000000681+0000005530+0000000004+I20000000000+0000005530+Z
328505001328505903-000194     328505006009826020616SWT CHOC RP LOLLY 25G  0000002000+00001314+00000+0001T   00001314+0000001222          1400 JC8150               2AZ
328505002328505080-000133-A   328505006003000647019MINI VALENTINES CARD   0000001000+00000437+00000+0001T   00000437+0000001222          1400 JC8112               2AZ
328505003328505112-116038     328505006009681820246TCS CARRIER BAG MIDI   0000001000+00000035+00000+0001T   00000035+0000001222          1400 JC8090               2AZ
328505004328505200-003024     328505006001023657299REFUSE BAGS 20PCE BLACK0000001000+00001753+00000+0001T   00001753+0000001222          1400 JC8214               2AZ
328506000328506               328506               170213DR     1400+00000+DR0000006137+0000006137+000000000+000000860+0000006990+0000000007+I20000000000+0000006990+Z
328506001328506133-083230     328506006001023714305T/CLOTH 132x183cm OBLNG0000001000+00003507+00000+0001T   00003507+0000001222          1400 JC8212               2AZ
328506002328506159-000117     328506006003000450398SHOWER CAP PVC ASSTD   0000001000+00002630+00000+0001T   00002630+0000001222          1400 JC8200               2AZ
328507000328507               328507               170213DR     1400+00000+DR0000011272+0000011272+000000000+000001579+0000012850+0000000001+I20000000000+0000012850+Z
328507001328507263-000504     328507006001023790590TRACTOR+TRAILER 30cm   0000001000+00005262+00000+0001T   00005262+0000001223          1400 JC8710               2AZ
328507002328507464-000665     328507006001023751980GAME BOWLING 17cm      0000001000+00005262+00000+0001T   00005262+0000001223          1400 JC8785               2AZ
328507003328507112-116069     328507006009681820277TCS CARRIER BAG JUMBO  0000001000+00000048+00000+0001T   00000048+0000001223          1400 JC8090               2AZ
328507004328507903-000120     328507006002099001665SWEET GS ZILLIONS 50g  0000001000+00000700+00000+0001T   00000700+0000001223          1400 JC8150               2AZ
328508000328508               328508               170213DR     1400+00000+DR0000003944+0000003944+000000000+000000553+0000004490+0000000007+I20000000000+0000004490+Z
328508001328508563-000318-A   328508006003000403646SERVIETTES 33cm CHARCOL0000001000+00001314+00000+0001T   00001314+0000001224          1400 JC8214               2AZ
328508002328508563-000317-A   328508006001023776167SERVIETTES 20PK PATTERN0000001000+00002630+00000+0001T   00002630+0000001224          1400 JC8214               2AZ
328509000328509               328509               170213DR     1400+00000+DR0000001753+0000001753+000000000+000000246+0000001990+0000000009+I20000000000+0000001990+Z
328509001328509051-002407     328509006003000452491SPRAYER TRIGGER 550ml  0000001000+00001753+00000+0001T   00001753+0000001225          1400 JC8820               2AZ
328510000328510               328510               170213DR     1400+00000+DR0000004383+0000004383+000000000+000000615+0000004990+0000000008+I20000000000+0000004990+Z
328510001328510200-003024     328510006001023657299REFUSE BAGS 20PCE BLACK0000001000+00001753+00000+0001T   00001753+0000001225          1400 JC8214               2AZ
328510002328510006-000220-B   328510006001023890870PARTY TABLE-CLOTH BOY  0000001000+00002630+00000+0001T   00002630+0000001225          1400 JC8131               2AZ
328511000328511               328511               170213DR     1400+00000+DR0000002279+0000002279+000000000+000000320+0000002590+0000000009+I20000000000+0000002590+Z
328511001328511027-001020     328511006001246602519BROOM FLOOR W/HANDLE   0000001000+00002279+00000+0001T   00002279+0000001227          1400 JC8212               2AZ
328512000328512               328512               170213DR     1400+00000+DR0000002630+0000002630+000000000+000000369+0000002990+0000000009+I20000000000+0000002990+Z
328512001328512466-000515     328512006001023477408BALLS TENNIS BAG-OF-3  0000001000+00002630+00000+0001T   00002630+0000001232          1400 JC8785               2AZ
328513000328513               328513               170213DR     1400+00000+DR0000006174+0000006174+000000000+000000865+0000007030+0000000009+I20000000000+0000007030+Z
328513001328513368-000175     328513006003000270316PLUSH BEAR 4 ASSTD 18CM0000001000+00006139+00000+0001T   00006139+0000001234          1400 JC8745               2AZ
328513002328513112-116038     328513006009681820246TCS CARRIER BAG MIDI   0000001000+00000035+00000+0001T   00000035+0000001234          1400 JC8090               2AZ
328514000328514               328514               170213DR     1400+00000+DR0000005698+0000005698+000000000+000000799+0000006490+0000000007+I20000000000+0000006490+Z
328514001328514050-000363-Z   328514006001023475282PADLOCK IRON 32mm CARD 0000001000+00002192+00000+0001T   00002192+0000001235          1400 JC8855               2AZ
328514002328514076-000710-H   328514006001023426482SKI-ROPE 7mmx10m       0000001000+00001753+00000+0001T   00001753+0000001235          1400 JC8810               2AZ
328514003328514012-000001     328514006003000331048MICRO PLATE-COVER 26X6 0000001000+00001753+00000+0001T   00002192+0008191235          1400 JC8300               2AZ
328515000328515               328515               170213DR     1400+00000+DR0000001227+0000001227+000000000+000000172+0000001390+0000000009+I20000000000+0000001390+Z
328515001328515077-000245     328515006001023759214GIFT-RIBBON METALLICx2 0000001000+00001227+00000+0001T   00001227+0000001239          1400 JC8112               2AZ
328516000328516               328516               170213DR     1400+00000+DR0000005262+0000005262+000000000+000000737+0000005990+0000000009+I20000000000+0000005990+Z
328516001328516562-000001     328516006009801541556MARLIN PLASTIC ABACUS  0000001000+00005262+00000+0001T   00005262+0000001241          1400 JC8755               2AZ
328517000328517               328517               170213DR     1400+00000+DR0000003328+0000003328+000000000+000000468+0000003796+0000000000+I40000003796+0000000000+Z
328517001328517903-000087     328517006001704000161SWT SPECKLED-EGGS 50G  0000002000+00001139+00000+0001T   00001139+0000001247          1400 JC8150               2AZ
328517002328517903-000155     328517006009803374435SWT LOLLY I LUV U HEART0000002000+00000525+00000+0001T   00000525+0000001247          1400 JC8150               2AZ
328518000328518               328518               170213DR     1400+00000+DR0000004383+0000004383+000000000+000000615+0000004990+0000000008+I20000000000+0000004990+Z
328518001328518006-000111     328518006003000519385BALLOONS LARGE 12PCE   0000001000+00002630+00000+0001T   00002630+0000001248          1400 JC8131               2AZ
328518002328518006-000093     328518006003000539932PARTY BANNER FLAGS ASST0000001000+00001753+00000+0001T   00001753+0000001248          1400 JC8131               2AZ
328519000328519               328519               170213DR     1400+00000+DR0000007891+0000007891+000000000+000001106+0000008997+0000000000+I40000008997+0000000000+Z
328519001328519903-000221     328519006001704007382SWT EENY-MEENY-MOS 60G 0000001000+00000876+00000+0001T   00000876+0000001250          1400 JC8150               2AZ
328519002328519562-006274     328519006001023744432EDU SKETCH-BOARD       0000001000+00005262+00000+0001T   00005262+0000001250          1400 JC8755               2AZ
328519003328519200-003024     328519006001023657299REFUSE BAGS 20PCE BLACK0000001000+00001753+00000+0001T   00001753+0000001250          1400 JC8214               2AZ
328520000328520               328520               170213DR     1400+00000+DR0000000876+0000000876+000000000+000000123+0000000990+0000000009+I20000000000+0000000990+Z
328520001328520903-000221     328520006001704007382SWT EENY-MEENY-MOS 60G 0000001000+00000876+00000+0001T   00000876+0000001251          1400 JC8150               2AZ
328521000328521               328521               170213DR     1400+00000+DR0000004384+0000004384+000000000+000000614+0000004990+0000000008+I20000000000+0000004990+Z
328521001328521080-000127     328521006003000424351VALENTINES DAY 36x24CM 0000002000+00002192+00000+0001T   00002192+0000001252          1400 JC8112               2AZ
328522000328522               328522               170213DR     1400+00000+DR0000009469+0000009469+000000000+000001326+0000010795+0000000000+I40000010795+0000000000+Z
328522001328522106-001120     328522006922286920282W/BOTTLE ALUM 750ml    0000001000+00005262+00000+0001T   00005262+0000001255          1400 JC8210               2AZ
328522002328522113-000001     328522006003000088690TRAVEL MUG 400ml S/S   0000001000+00003507+00000+0001T   00003507+0000001255          1400 JC8305               2AZ
328522003328522007-000104     328522006009685854865BK COVER BRWN KRFT ROLL0000002000+00000350+00000+0001T   00000350+0000001255          1400 JC8130               2AZ
328523000328523               328523               170213DR     1400+00000+DR0000001753+0000001753+000000000+000000246+0000001990+0000000009+I20000000000+0000001990+Z
328523001328523034-078800     328523006001023856555COOEY WET-WIPES 60PCE  0000001000+00001753+00000+0001T   00001753+0000001256          1400 JC8215               2AZ
328524000328524               328524               170213DR     1400+00000+DR0000013014+0000013014+000000000+000001823+0000014830+0000000007+I20000000000+0000014830+Z
328524001328524083-000058     328524006003000400331LIGHTER JET CIGAR REFIL0000001000+00002630+00000+0001T   00002630+0000001257          1400 JC8315               2AZ
328524002328524264-000927     328524000090159393009MAISTO MOTORBIKE 1:18  0000001000+00008771+00000+0001T   00008771+0000001257          1400 JC8710               2AZ
328524003328524077-000303     328524006001023593757GIFT-BAG PAPER MED     0000001000+00001578+00000+0001T   00001578+0000001257          1400 JC8112               2AZ
328524004328524112-116038     328524006009681820246TCS CARRIER BAG MIDI   0000001000+00000035+00000+0001T   00000035+0000001257          1400 JC8090               2AZ
328525000328525               328525               170213DR     1400+00000+DR0000002630+0000002630+000000000+000000369+0000002999+0000000000+I40000002999+0000000000+Z
328525001328525027-009025     328525006003962000747DUSTPAN-SET PL         0000001000+00002630+00000+0001T   00002630+0000001258          1400 JC8212               2AZ
328526000328526               328526               170213DR     1400+00000+DR0000018353+0000018353+000000000+000002573+0000020926+0000000000+I40000020926+0000000000+Z
328526001328526206-000220     328526006003000631704EGG TIMER COLOUR-CHANGE0000001000+00002630+00000+0001T   00002630+0000001302          1400 JC8321               2AZ
328526002328526206-000180     328526006003000631223TEA INFUSER TEAMAN     0000001000+00004385+00000+0001T   00004385+0000001302          1400 JC8321               2AZ
328526003328526089-000141-H   328526006001023416568KEY-CHAINS 6PCE     H&H0000001000+00001490+00000+0001T   00001490+0000001302          1400 JC8205               2AZ
328526004328526200-000040     328526006001023729620BAG SEALERS 5PC CLIPS  0000001000+00002630+00000+0001T   00002630+0000001302          1400 JC8214               2AZ
328526005328526200-000042     328526006001023868886BAG-SEALERS 10PCE      0000001000+00002630+00000+0001T   00002630+0000001302          1400 JC8214               2AZ
328526006328526112-116038     328526006009681820246TCS CARRIER BAG MIDI   0000001000+00000035+00000+0001T   00000035+0000001302          1400 JC8090               2AZ
328526007328526018-000177     328526006001023797513MUG MINI LOVE ASSTD    0000004000+00000700+00000+0001T   00000700+0000001302          1400 JC8515               2AZ
328526008328526200-003024     328526006001023657299REFUSE BAGS 20PCE BLACK0000001000+00001753+00000+0001T   00001753+0000001302          1400 JC8214               2AZ
328527000328527               328527               170213DR     1400+00000+DR0000020243+0000020243+000000000+000002838+0000023080+0000000001+I20000000000+0000023080+Z
328527001328527007-000234     328527006009685850638LABELS 24PK            0000016000+00000306+00000+0001T   00000306+0000001305          1400 JC8130               2AZ
328527002328527083-000030     328527006001023851154CIGARETTE CASE ASSTD   0000001000+00003946+00000+0001T   00003946+0000001305          1400 JC8315               2AZ
328527003328527017-000050     328527006003000008223P/ALBUM 200-PHOTO PLAIN0000001000+00007016+00000+0001T   00007016+0000001305          1400 JC8510               2AZ
328527004328527027-009027     328527006003000235803BROOM FLAT 1.2m HANDLE 0000001000+00004385+00000+0001T   00004385+0000001305          1400 JC8212               2AZ
328528000328528               328528               170213DR     1400+00000+DR0000003768+0000003768+000000000+000000529+0000004290+0000000007+I20000000000+0000004290+Z
328528001328528079-013032-J   328528006003000542710A&C DIY COLOUR P/FLOWER0000001000+00001753+00000+0001T   00001753+0000001306          1400 JC8130               2AZ
328528002328528903-000891     328528006009702258997SWT GUM BEECHIES MUSK  0000001000+00000788+00000+0001T   00000788+0000001306          1400 JC8150               2AZ
328528003328528077-000245     328528006001023759214GIFT-RIBBON METALLICx2 0000001000+00001227+00000+0001T   00001227+0000001306          1400 JC8112               2AZ
328529000328529               328529               170213DR     1400+00000+DR0000005206+0000005206+000000000+000000730+0000005930+0000000006+I20000000000+0000005930+Z
328529001328529080-000133     328529006003000535613CARD&ENV MINI ASTD DSGN0000001000+00000437+00000+0001T   00000437+0000001309          1400 JC8112               2AZ
328529002328529018-000136     328529006001023659026MUG OCC LOVE W/PLUSH   0000001000+00003507+00000+0001T   00003507+0000001309          1400 JC8515               2AZ
328529003328529077-000319     328529006001023609779GIFT-BAG 18X23CM BIRTHD0000001000+00001227+00000+0001T   00001227+0000001309          1400 JC8112               2AZ
328529004328529112-116038     328529006009681820246TCS CARRIER BAG MIDI   0000001000+00000035+00000+0001T   00000035+0000001309          1400 JC8090               2AZ
328530000328530               328530               170213DR     1400+00000+DR0000001051+0000001051+000000000+000000148+0000001190+0000000009+I20000000000+0000001190+Z
328530001328530079-009702-D   328530008427973059354PAPER SIRIO A2 RED COL 0000001000+00001051+00000+0001T   00001051+0000001311          1400 JC8130               2AZ
328531000328531               328531               170213DR     1400+00000+DR0000001314+0000001314+000000000+000000184+0000001490+0000000008+I20000000000+0000001490+Z
328531001328531107-004105     328531006009703860984BUCKET 9L OPEN         0000001000+00001314+00000+0001T   00001314+0000001313          1400 JC8210               2AZ
328532000328532               328532               170213DR     1400+00000+DR0000011521+0000011521+000000000+000001615+0000013130+0000000006+I20000000000+0000013130+Z
328532001328532562-006274     328532006001023744432EDU SKETCH-BOARD       0000001000+00005262+00000+0001T   00005262+0000001315          1400 JC8755               2AZ
328532002328532079-008998     328532006003000339686ART+CRAFT  CANVAS      0000002000+00002630+00000+0001T   00002630+0000001315          1400 JC8130               2AZ
328532003328532007-000204     328532006009635835272EXAM-PAD 60SHT PUNCHED 0000001000+00000964+00000+0001T   00000964+0000001315          1400 JC8130               2AZ
328532004328532112-116038     328532006009681820246TCS CARRIER BAG MIDI   0000001000+00000035+00000+0001T   00000035+0000001315          1400 JC8090               2AZ
328533000328533               328533               170213DR     1400+00000+DR0000025126+0000025126+000000000+000003521+0000028647+0000000000+I40000028647+0000000000+Z
328533001328533001-091415     328533006003000329113W/GLS OCC. LOVE 2PC 2800000001000+00008771+00000+0001T   00009648+0006471323          1400 JC8515               2AZ
328533002328533080-000127     328533006003000424351VALENTINES DAY 36x24CM 0000001000+00002192+00000+0001T   00002192+0000001323          1400 JC8112               2AZ
328533003328533001-000175     328533006001023788108B/MUG GLS LOVE 380ML   0000001000+00004385+00000+0001T   00004385+0000001323          1400 JC8515               2AZ
328533004328533024-091102-B   328533006003000111725BAKING-CUP MUFFIN 40PCE0000001000+00002630+00000+0001T   00002630+0000001323          1400 JC8300               2AZ
328533005328533072-020311     328533006003000494132PET DOG TOY VINYL BALL 0000001000+00003069+00000+0001T   00003069+0000001323          1400 JC8870               2AZ
328533006328533112-116069     328533006009681820277TCS CARRIER BAG JUMBO  0000001000+00000048+00000+0001T   00000048+0000001323          1400 JC8090               2AZ
328533007328533903-000087     328533006001704000161SWT SPECKLED-EGGS 50G  0000002000+00001139+00000+0001T   00001139+0000001323          1400 JC8150               2AZ
328533008328533200-003024     328533006001023657299REFUSE BAGS 20PCE BLACK0000001000+00001753+00000+0001T   00001753+0000001323          1400 JC8214               2AZ
328534000328534               328534               170213DR     1400+00000+DR0000003331+0000003331+000000000+000000467+0000003790+0000000008+I20000000000+0000003790+Z
328534001328534046-000014     328534006001023725387BATTERIES SIZE:AAA 4PCE0000001000+00001139+00000+0001T   00001139+0000001338          1400 JC8312               2AZ
328534002328534046-000012-A   328534006003000208296BATTERIES H/POWER SZ:AA0000001000+00002192+00000+0001T   00002192+0000001338          1400 JC8312               2AZ
328535000328535               328535               170213DR     1400+00000+DR0000008330+0000008330+000000000+000001167+0000009497+0000000000+I40000009497+0000000000+Z
328535001328535133-000080     328535006001023911322DISH-CLOTH CHECK 2PCE  0000001000+00002630+00000+0001T   00002630+0000001346          1400 JC8212               2AZ
328535002328535075-000412     328535006001023855299SHOPPER-BASKET PL      0000001000+00005700+00000+0001T   00005700+0000001346          1400 JC8160               2AZ
328536000328536               328536               170213DR     1400+00000+DR0000008448+0000008448+000000000+000001185+0000009633+0000000000+I40000009633+0000000000+Z
328536001328536565-000052     328536006003000615551NOVELTY PUTTY FARTS    0000002000+00001578+00000+0001T   00001578+0000001350          1400 JC8745               2AZ
328536002328536903-002850     328536000000087108262MENTOS ROLL FRUIT      0000001000+00001051+00000+0001T   00001051+0000001350          1400 JC8150               2AZ
328536003328536046-000014     328536006001023725387BATTERIES SIZE:AAA 4PCE0000001000+00001139+00000+0001T   00001139+0000001350          1400 JC8312               2AZ
328536004328536046-000012     328536006904708013062BATTERIES AA  CARD-OF-40000001000+00001314+00000+0001T   00001314+0000001350          1400 JC8312               2AZ
328536005328536046-002032-PK2 328536004897006175063BATTERIES CR-2032  2PCE0000001000+00001753+00000+0001T   00001753+0000001350          1400 JC8312               2AZ
328536006328536112-116038     328536006009681820246TCS CARRIER BAG MIDI   0000001000+00000035+00000+0001T   00000035+0000001350          1400 JC8090               2AZ
328537000328537               328537               170213DR     1400+00000+DR0000002630+0000002630+000000000+000000369+0000002990+0000000009+I20000000000+0000002990+Z
328537001328537079-013101     328537006001023863706CRAFT SET DIY PIPE-CLNR0000001000+00002630+00000+0001T   00002630+0000001351          1400 JC8130               2AZ
328538000328538               328538               170213DR     1400+00000+DR0000002804+0000002804+000000000+000000393+0000003190+0000000007+I20000000000+0000003190+Z
328538001328538903-000844     328538005010478432567SWT CANDY DL LUV HEARTS0000001000+00001314+00000+0001T   00001314+0000001351          1400 JC8150               2AZ
328538002328538077-000299     328538006003000395576G/BAG 32x25cm LRG LOVE 0000001000+00001490+00000+0001T   00001490+0000001351          1400 JC8112               2AZ
328539000328539               328539               170213DR     1400+00000+DR0000016703+0000016703+000000000+000002344+0000019040+0000000007+I20000000000+0000019040+Z
328539001328539079-003012     328539006003000447893A/TUBE 75ML VIOLET     0000001000+00001753+00000+0001T   00001753+0000001353          1400 JC8130               2AZ
328539002328539079-003001     328539006003000448951A/TUBE 75ML BLACK      0000001000+00001753+00000+0001T   00001753+0000001353          1400 JC8130               2AZ
328539003328539079-003000     328539006003000448838A/TUBE 75ML WHITE      0000001000+00001753+00000+0001T   00001753+0000001353          1400 JC8130               2AZ
328539004328539079-003011     328539006003000448968A/TUBE 75ML ORANGE     0000001000+00001753+00000+0001T   00001753+0000001353          1400 JC8130               2AZ
328539005328539079-003009     328539006003000448722A/TUBE 75ML NATURAL    0000001000+00001753+00000+0001T   00001753+0000001353          1400 JC8130               2AZ
328539006328539079-105310     328539006003000588947ART+CRAFT PAINT PALETTE0000001000+00002630+00000+0001T   00002630+0000001353          1400 JC8130               2AZ
328539007328539079-001002     328539006003000448715CANVAS A4 WOOD MOUNTED 0000002000+00002630+00000+0001T   00002630+0000001353          1400 JC8130               2AZ
328539008328539112-116069     328539006009681820277TCS CARRIER BAG JUMBO  0000001000+00000048+00000+0001T   00000048+0000001353          1400 JC8090               2AZ
328540000328540               328540               170213DR     1400+00000+DR0000004331+0000004331+000000000+000000607+0000004930+0000000008+I20000000000+0000004930+Z
328540001328540563-000318-L   328540006003000407088SERVIETTES 33cm RED    0000001000+00002192+00000+0001T   00002192+0000001354          1400 JC8214               2AZ
328540002328540903-000090     328540006009826020821SWT GS CHOCO COINS 60g 0000001000+00002104+00000+0001T   00002104+0000001354          1400 JC8150               2AZ
328540003328540112-116038     328540006009681820246TCS CARRIER BAG MIDI   0000001000+00000035+00000+0001T   00000035+0000001354          1400 JC8090               2AZ
328541000328541               328541               170213DR     1400+00000+DR0000001753+0000001753+000000000+000000246+0000001990+0000000009+I20000000000+0000001990+Z
328541001328541566-001501     328541006003000658398STICKER PAPER EMOTION  0000001000+00001753+00000+0001T   00001753+0000001458          1400 JC8130               2AZ
328542000328542               328542               170213DR     1400+00000+DR0000006007+0000006007+000000000+000000843+0000006850+0000000000+I20000000000+0000006850+Z
328542001328542112-116069     328542006009681820277TCS CARRIER BAG JUMBO  0000001000+00000048+00000+0001T   00000048+0000001500          1400 JC8090               2AZ
328542002328542200-003024     328542006001023657299REFUSE BAGS 20PCE BLACK0000001000+00001753+00000+0001T   00001753+0000001500          1400 JC8214               2AZ
328542003328542565-001212     328542006001023658173NOVELTY MAGIC-SPRING   0000001000+00001753+00000+0001T   00001753+0000001500          1400 JC8745               2AZ
328542004328542466-000103     328542006001023642134BALL 20cm ASSTD        0000001000+00001753+00000+0001T   00001753+0000001500          1400 JC8785               2AZ
328542005328542564-000012     328542006001023130075BUBBLE BOTTLE MAGIC    0000001000+00000700+00000+0001T   00000700+0000001500          1400 JC8131               2AZ
328543000328543               328543               170213DR     1400+00000+DR0000001753+0000001753+000000000+000000246+0000001990+0000000009+I20000000000+0000001990+Z
328543001328543071-081103     328543006003000197002GLUE STICKS LIQUID 3PCE0000001000+00001753+00000+0001T   00001753+0000001500          1400 JC8130               2AZ
328544000328544               328544               170213DR     1400+00000+DR0000023898+0000023898+000000000+000003347+0000027240+0000000005+I20000000000+0000027240+Z
328544001328544112-116069     328544006009681820277TCS CARRIER BAG JUMBO  0000001000+00000048+00000+0001T   00000048+0000001502          1400 JC8090               2AZ
328544002328544469-003002     328544006001023878595BUILDING METAL VEHICLES0000001000+00008771+00000+0001T   00008771+0000001502          1400 JC8755               2AZ
328544003328544262-000602     328544006003000105038DIE CAST AUTO CARRIER  0000001000+00003507+00000+0001T   00003507+0000001502          1400 JC8710               2AZ
328544004328544262-000616     328544006001023708991CARS MDC 8PCE CITY     0000001000+00003507+00000+0001T   00003507+0000001502          1400 JC8710               2AZ
328544005328544033-010720     328544006001023678645SAFETY-PINS 50PCE SMALL0000001000+00000876+00000+0001T   00000876+0000001502          1400 JC8200               2AZ
328544006328544079-000512     328544006001023635853CRAYONS WAX 12-COLOUR  0000001000+00001490+00000+0001T   00001490+0000001502          1400 JC8130               2AZ
328544007328544567-011439     328544009781847508690BK COLOURING BOYS      0000001000+00003507+00000+0001T   00003507+0000001502          1400 JC8757               2AZ
328544008328544077-000920     328544006003000413812G/WRAP 700mmx2m BIRTHDA0000001000+00002192+00000+0001T   00002192+0000001502          1400 JC8112               2AZ
328545000328545               328545               170213DR     1400+00000+DR0000001753+0000001753+000000000+000000246+0000001990+0000000009+I20000000000+0000001990+Z
328545001328545301-085002     328545006003000420704ORN OCC. LOVE BELL ASST0000001000+00001753+00000+0001T   00002630+0008121503          1400 JC8505               2AZ
328546000328546               328546               170213DR     1400+00000+DR0000004730+0000004730+000000000+000000665+0000005390+0000000005+I20000000000+0000005390+Z
328546001328546903-000155     328546006009803374435SWT LOLLY I LUV U HEART0000001000+00000525+00000+0001T   00000525+0000001504          1400 JC8150               2AZ
328546002328546077-000303     328546006001023593757GIFT-BAG PAPER MED     0000001000+00001578+00000+0001T   00001578+0000001504          1400 JC8112               2AZ
328546003328546080-000133-A   328546006003000647019MINI VALENTINES CARD   0000002000+00000437+00000+0001T   00000437+0000001504          1400 JC8112               2AZ
328546004328546200-003024     328546006001023657299REFUSE BAGS 20PCE BLACK0000001000+00001753+00000+0001T   00001753+0000001504          1400 JC8214               2AZ
328547000328547               328547               170213DR     1400+00000+DR0000016256+0000016256+000000000+000002278+0000018534+0000000000+I40000018534+0000000000+Z
328547001328547077-000239     328547006003000160419GIFT-RIBBON ROLL PEARL 0000002000+00001753+00000+0001T   00001753+0000001508          1400 JC8112               2AZ
328547002328547563-000318-L   328547006003000407088SERVIETTES 33cm RED    0000003000+00002192+00000+0001T   00002192+0000001508          1400 JC8214               2AZ
328547003328547039-000798     328547006001023617774CANDLES TEALITE BOX-50 0000001000+00006139+00000+0001T   00006139+0000001508          1400 JC8510               2AZ
328547004328547112-116038     328547006009681820246TCS CARRIER BAG MIDI   0000001000+00000035+00000+0001T   00000035+0000001508          1400 JC8090               2AZ
328548000328548               328548               170213DR     1400+00000+DR0000008328+0000008328+000000000+000001168+0000009496+0000000000+I40000009496+0000000000+Z
328548001328548089-060027     328548006003000245871KEY-CHAIN HEART 6X6cm  0000001000+00003069+00000+0001T   00003069+0000001510          1400 JC8205               2AZ
328548002328548077-000303     328548006001023593757GIFT-BAG PAPER MED     0000001000+00001578+00000+0001T   00001578+0000001510          1400 JC8112               2AZ
328548003328548018-000129     328548006001023403353MUG OCC. LOVE V-SHAPE  0000001000+00002630+00000+0001T   00002630+0000001510          1400 JC8515               2AZ
328548004328548079-009702-B   328548008427973059491PAPER SIRIO A2 WHITE   0000001000+00001051+00000+0001T   00001051+0000001510          1400 JC8130               2AZ
328549000328549               328549               170213DR     1400+00000+DR0000000437+0000000437+000000000+000000062+0000000490+0000000009+I20000000000+0000000490+Z
328549001328549080-000133-A   328549006003000647019MINI VALENTINES CARD   0000001000+00000437+00000+0001T   00000437+0000001513          1400 JC8112               2AZ
328550000328550               328550               170213DR     1400+00000+DR0000010786+0000010786+000000000+000001511+0000012290+0000000007+I20000000000+0000012290+Z
328550001328550001-091415     328550006003000329113W/GLS OCC. LOVE 2PC 2800000001000+00008771+00000+0001T   00009648+0006471515          1400 JC8515               2AZ
328550002328550080-000133-A   328550006003000647019MINI VALENTINES CARD   0000001000+00000437+00000+0001T   00000437+0000001515          1400 JC8112               2AZ
328550003328550077-000303     328550006001023593757GIFT-BAG PAPER MED     0000001000+00001578+00000+0001T   00001578+0000001515          1400 JC8112               2AZ
328551000328551               328551               170213DR     1400+00000+DR0000001926+0000001926+000000000+000000271+0000002190+0000000007+I20000000000+0000002190+Z
328551001328551077-000311     328551006001023608666GIFT-BAG 11X14CM GLOSS 0000001000+00000613+00000+0001T   00000613+0000001516          1400 JC8112               2AZ
328551002328551903-000094     328551006923431501622SWT GS CANDY NECKLACE  0000001000+00000437+00000+0001T   00000437+0000001516          1400 JC8150               2AZ
328551003328551903-000221     328551006001704007382SWT EENY-MEENY-MOS 60G 0000001000+00000876+00000+0001T   00000876+0000001516          1400 JC8150               2AZ
328552000328552               328552               170213DR     1400+00000+DR0000001226+0000001226+000000000+000000172+0000001398+0000000000+I40000001398+0000000000+Z
328552001328552006-001000     328552006003000093779HELIUM BALLOON FILL    0000002000+00000613+00000+0001T   00000613+0000001520          1400 JC8131               2AZ
328553000328553               328553               170213DR     1400+00000+DR0000003068+0000003068+000000000+000000430+0000003490+0000000008+I20000000000+0000003490+Z
328553001328553077-000463     328553006003000321698G/BAG GLITTER MED20x28 0000001000+00002192+00000+0001T   00002192+0000001523          1400 JC8112               2AZ
328553002328553077-000151     328553006008766114676GIFT-WRAP C/PHANE ASSTD0000001000+00000876+00000+0001T   00000876+0000001523          1400 JC8112               2AZ
328554000328554               328554               170213DR     1400+00000+DR0000002192+0000002192+000000000+000000307+0000002490+0000000009+I20000000000+0000002490+Z
328554001328554079-013102     328554006003000019601ART+CRAFT DIY PIPE-CLNR0000001000+00002192+00000+0001T   00002192+0000001524          1400 JC8130               2AZ
328555000328555               328555               170213DR     1400+00000+DR0000002278+0000002278+000000000+000000320+0000002598+0000000000+I40000002598+0000000000+Z
328555001328555366-007600     328555006001023902184MASK THEATRICAL GLITTER0000001000+00001753+00000+0001T   00001753+0000001525          1400 JC8131               2AZ
328555002328555903-000155     328555006009803374435SWT LOLLY I LUV U HEART0000001000+00000525+00000+0001T   00000525+0000001525          1400 JC8150               2AZ
328556000328556               328556               170213DR     1400+00000+DR0000008098+0000008098+000000000+000001137+0000009235+0000000000+I40000009235+0000000000+Z
328556001328556112-116038     328556006009681820246TCS CARRIER BAG MIDI   0000001000+00000035+00000+0001T   00000035+0000001526          1400 JC8090               2AZ
328556002328556903-002853     328556000000087108019MENTOS ROLL MINT       0000001000+00001051+00000+0001T   00001051+0000001526          1400 JC8150               2AZ
328556003328556264-000921     328556000090159150442MAISTO CAR 3" FRESH    0000004000+00001753+00000+0001T   00001753+0000001526          1400 JC8710               2AZ
328557000328557               328557               170213DR     1400+00000+DR0000006575+0000006575+000000000+000000921+0000007496+0000000000+I40000007496+0000000000+Z
328557001328557077-000315     328557006003000181186GIFT-BAG 20x28cm MATT  0000001000+00001578+00000+0001T   00001578+0000001528          1400 JC8112               2AZ
328557002328557077-000452     328557006003000284986G/BAG METALLIC MED EMB 0000001000+00001490+00000+0001T   00001490+0000001528          1400 JC8112               2AZ
328557003328557018-000136     328557006001023659026MUG OCC LOVE W/PLUSH   0000001000+00003507+00000+0001T   00003507+0000001528          1400 JC8515               2AZ
328558000328558               328558               170213DR     1400+00000+DR0000008505+0000008505+000000000+000001192+0000009697+0000000000+I40000009697+0000000000+Z
328558001328558368-000265     328558006001023750914PLUSH BEAR 23CM ASSTD C0000001000+00006139+00000+0001T   00006139+0000001535          1400 JC8745               2AZ
328558002328558077-000303     328558006001023593757GIFT-BAG PAPER MED     0000001000+00001578+00000+0001T   00001578+0000001535          1400 JC8112               2AZ
328558003328558077-000010-C   328558006001023123879CREPE-PAPER RED        0000001000+00000788+00000+0001T   00000788+0000001535          1400 JC8112               2AZ
328559000328559               328559               170213DR     1400+00000+DR0000002630-0000002630-000000000+000000369-0000003000-0000000001+I20000000000+0000003000-Z
328559001328559002-220002     328559006001023677877F/COVER SQ 31cm WHT    0000001000-00002630+00000+0001T   00002630+0000001540          1400 JC83002IC            2 Z
328560000328560               328560               170213DR     1400+00000+DR0000035125+0000035125+000000000+000004920+0000040045+0000000000+I40000040045+0000000000+Z
328560001328560034-078800     328560006001023856555COOEY WET-WIPES 60PCE  0000001000+00001753+00000+0001T   00001753+0000001544          1400 JC8215               2AZ
328560002328560072-020266     328560006003000400591PET PUPPY TRAINING PAD 0000001000+00003507+00000+0001T   00003507+0000001544          1400 JC8870               2AZ
328560003328560112-116069     328560006009681820277TCS CARRIER BAG JUMBO  0000001000+00000048+00000+0001T   00000048+0000001544          1400 JC8090               2AZ
328560004328560567-011344     328560006003000630714BK COLOURING THERAPY 640000001000+00003507+00000+0001T   00003507+0000001544          1400 JC8757               2AZ
328560005328560031-086303-C   328560006003000322527P/FRM CHAMPAGNE 20X25CM0000005000+00005262+00000+0001T   00005262+0000001544          1400 JC8510               2AZ
328561000328561               328561               170213DR     1400+00000+DR0000018544+0000018544+000000000+000002601+0000021145+0000000000+I40000021145+0000000000+Z
328561001328561112-116069     328561006009681820277TCS CARRIER BAG JUMBO  0000001000+00000048+00000+0001T   00000048+0000001546          1400 JC8090               2AZ
328561002328561080-000139     328561006003000611690CARD & ENV MINI SET 6PC0000001000+00002192+00000+0001T   00002192+0000001546          1400 JC8112               2AZ
328561003328561366-004050     328561006003000308330DRESS UP TEEN BADGES   0000001000+00001490+00000+0001T   00001490+0000001546          1400 JC8131               2AZ
328561004328561903-000087     328561006001704000161SWT SPECKLED-EGGS 50G  0000002000+00001139+00000+0001T   00001139+0000001546          1400 JC8150               2AZ
328561005328561077-000384     328561006003000275243G/BAG HOT STMP 18x23CM 0000001000+00001490+00000+0001T   00001490+0000001546          1400 JC8112               2AZ
328561006328561077-000299     328561006003000395576G/BAG 32x25cm LRG LOVE 0000001000+00001490+00000+0001T   00001490+0000001546          1400 JC8112               2AZ
328561007328561077-000010-C   328561006001023123879CREPE-PAPER RED        0000001000+00000788+00000+0001T   00000788+0000001546          1400 JC8112               2AZ
328561008328561362-001052     328561006001023915078NAIL TEEN ART SET 5PCE 0000001000+00002630+00000+0001T   00002630+0000001546          1400 JC8160               2AZ
328561009328561077-000309     328561006001023608604GIFT-BAG 25X32CM GLOSS 0000001000+00001753+00000+0001T   00001753+0000001546          1400 JC8112               2AZ
328561010328561469-000801     328561006003000652402BUILDING BLOCKS AGE BAG0000001000+00004385+00000+0001T   00004385+0000001546          1400 JC8755               2AZ
328562000328562               328562               170213DR     1400+00000+DR0000040246+0000040246+000000000+000005638+0000045884+0000000000+I40000045884+0000000000+Z
328562001328562106-001109     328562006003000666355W/BOTTLE 650ml         0000001000+00002630+00000+0001T   00002630+0000001553          1400 JC8210               2AZ
328562002328562105-001010     328562006002580007329LUNCH-BOX 1L  ASSTD    0000001000+00000876+00000+0001T   00000876+0000001553          1400 JC8210               2AZ
328562003328562106-001118     328562006009654960320WATER BOTTLE PL 500ml  0000001000+00002016+00000+0001T   00002016+0000001553          1400 JC8210               2AZ
328562004328562019-000049     328562006001023673732V/GLASS FOOTED 17X25CM 0000001000+00017542+00000+0001T   00017542+0000001553          1400 JC8510               2AZ
328562005328562112-116069     328562006009681820277TCS CARRIER BAG JUMBO  0000001000+00000048+00000+0001T   00000048+0000001553          1400 JC8090               2AZ
328562006328562112-116038     328562006009681820246TCS CARRIER BAG MIDI   0000001000+00000035+00000+0001T   00000035+0000001553          1400 JC8090               2AZ
328562007328562264-000927     328562000090159393009MAISTO MOTORBIKE 1:18  0000001000+00008771+00000+0001T   00008771+0000001553          1400 JC8710               2AZ
328562008328562200-003024     328562006001023657299REFUSE BAGS 20PCE BLACK0000001000+00001753+00000+0001T   00001753+0000001553          1400 JC8214               2AZ
328562009328562018-000177     328562006001023797513MUG MINI LOVE ASSTD    0000001000+00000700+00000+0001T   00000700+0000001553          1400 JC8515               2AZ
328562010328562560-000250     328562006001023831040ANIMALS STRETCHABLE    0000001000+00004385+00000+0001T   00004385+0000001553          1400 JC8745               2AZ
328562011328562466-001801     328562006001023343482BALLS TABLE-TENNIS BOX60000001000+00001490+00000+0001T   00001490+0000001553          1400 JC8785               2AZ
328563000328563               328563               170213DR     1400+00000+DR0000008977+0000008977+000000000+000001258+0000010230+0000000005+I20000000000+0000010230+Z
328563001328563301-085002     328563006003000420704ORN OCC. LOVE BELL ASST0000001000+00001753+00000+0001T   00002630+0008121556          1400 JC8505               2AZ
328563002328563028-000907     328563006001023459626BBQ GRILL-CLEANER      0000001000+00002192+00000+0001T   00002192+0000001556          1400 JC8305               2AZ
328563003328563112-116038     328563006009681820246TCS CARRIER BAG MIDI   0000001000+00000035+00000+0001T   00000035+0000001556          1400 JC8090               2AZ
328563004328563018-000130     328563006001023867537MUG OCC LOVE MINI+HEART0000001000+00003507+00000+0001T   00003507+0000001556          1400 JC8515               2AZ
328563005328563077-000299     328563006003000395576G/BAG 32x25cm LRG LOVE 0000001000+00001490+00000+0001T   00001490+0000001556          1400 JC8112               2AZ
328564000328564               328564               170213DR     1400+00000+DR0000005260+0000005260+000000000+000000738+0000005998+0000000000+I40000005998+0000000000+Z
328564001328564028-002000     328564006002580009521STOOL                  0000002000+00002630+00000+0001T   00002630+0000001557          1400 JC8305               2AZ
328565000328565               328565               170213DR     1400+00000+DR0000020829+0000020829+000000000+000002920+0000023749+0000000000+I40000023749+0000000000+Z
328565001328565071-008229     328565006003000216017PENCIL-BAG ASTD COL A5 0000001000+00001753+00000+0001T   00001753+0000001610          1400 JC8130               2AZ
328565002328565368-000113     328565006001023780874PLUSH BLINGED LOVE 30cm0000001000+00012279+00000+0001T   00012279+0000001610          1400 JC8745               2AZ
328565003328565112-116069     328565006009681820277TCS CARRIER BAG JUMBO  0000001000+00000048+00000+0001T   00000048+0000001610          1400 JC8090               2AZ
328565004328565084-006996     328565006003000092833NAIL CLIPPER 6cm       0000001000+00001753+00000+0001T   00001753+0000001610          1400 JC8200               2AZ
328565005328565306-000021     328565006001023169433EARBUDS 100PCE IN BAG  0000001000+00000613+00000+0001T   00000613+0000001610          1400 JC8200               2AZ
328565006328565306-001720     328565006003000276257HAND SANITIZER WIPES   0000001000+00001753+00000+0001T   00001753+0000001610          1400 JC8200               2AZ
328565007328565077-000456     328565006003000285549G/BAG METALLIC JMB EMB 0000001000+00002630+00000+0001T   00002630+0000001610          1400 JC8112               2AZ
328566000328566               328566               170213DR     1400+00000+DR0000004241+0000004241+000000000+000000596+0000004830+0000000007+I20000000000+0000004830+Z
328566002328566089-000191     328566006003000430185KEY CHAIN BEAR 10CM    0000001000+00002630+00000+0001T   00002630+0000001614          1400 JC8205               2AZ
328566003328566077-000383     328566006003000247943GIFT-BAG 11X14CM S/COL 0000001000+00000788+00000+0001T   00000788+0000001614          1400 JC8112               2AZ
328566005328566903-000119     328566006001704007337SWT COCONUT-WHEEL      0000001000+00000788+00000+0001T   00000788+0000001614          1400 JC8150               2AZ
328566006328566112-116038     328566006009681820246TCS CARRIER BAG MIDI   0000001000+00000035+00000+0001T   00000035+0000001614          1400 JC8090               2AZ
328567000328567               328567               170213DR     1400+00000+DR0000005611+0000005611+000000000+000000786+0000006397+0000000000+I40000006397+0000000000+Z
328567001328567006-000190     328567006003000685530BALLOONS LOVE 81x91cm  0000001000+00004385+00000+0001T   00004385+0000001618          1400 JC8131               2AZ
328567002328567006-001000     328567006003000093779HELIUM BALLOON FILL    0000002000+00000613+00000+0001T   00000613+0000001618          1400 JC8131               2AZ
328568000328568               328568               170213DR     1400+00000+DR0000003634+0000003634+000000000+000000510+0000004140+0000000004+I20000000000+0000004140+Z
328568001328568006-000180     328568006003000610402BALLOONS BIRTHDAY ASSTD0000001000+00000876+00000+0001T   00000876+0000001626          1400 JC8131               2AZ
328568002328568006-000166-H   328568006003000608096BALLOONS HELIUM 6PC WHT0000001000+00001314+00000+0001T   00001314+0000001626          1400 JC8131               2AZ
328568003328568006-001000     328568006003000093779HELIUM BALLOON FILL    0000002000+00000613+00000+0001T   00000613+0000001626          1400 JC8131               2AZ
328568004328568006-000170-K   328568006003000609284BALLOONS 1PC PURPLE    0000001000+00000218+00000+0001T   00000218+0000001626          1400 JC8131               2AZ
328569000328569               328569               170213DR     1400+00000+DR0000004710+0000004710+000000000+000000661+0000005370+0000000001+I20000000000+0000005370+Z
328569001328569566-000359     328569006003000582709STICKER BOOK LOVE SPARK0000001000+00002192+00000+0001T   00002192+0000001629          1400 JC8130               2AZ
328569002328569079-009700-D   328569006003000545711PAPER SIRIO A4 RED COL.0000008000+00000306+00000+0001T   00000306+0000001629          1400 JC8130               2AZ
328569003328569112-116038     328569006009681820246TCS CARRIER BAG MIDI   0000002000+00000035+00000+0001T   00000035+0000001629          1400 JC8090               2AZ
328570000328570               328570               170213DR     1400+00000+DR0000004384+0000004384+000000000+000000614+0000004990+0000000008+I20000000000+0000004990+Z
328570001328570077-000926     328570006003000414178G/WRAP 700mmx2m LOVE   0000002000+00002192+00000+0001T   00002192+0000001630          1400 JC8112               2AZ
328571000328571               328571               170213DR     1400+00000+DR0000004645+0000004645+000000000+000000652+0000005297+0000000000+I40000005297+0000000000+Z
328571001328571466-000584     328571006001023628787SKIPPING-ROPE          0000001000+00002630+00000+0001T   00002630+0000001633          1400 JC8785               2AZ
328571002328571903-000494     328571006001704009911SWT GUMMY TEENY TEDDIES0000001000+00000876+00000+0001T   00000876+0000001633          1400 JC8150               2AZ
328571003328571046-000014     328571006001023725387BATTERIES SIZE:AAA 4PCE0000001000+00001139+00000+0001T   00001139+0000001633          1400 JC8312               2AZ
328572000328572               328572               170213DR     1400+00000+DR0000001838+0000001838+000000000+000000258+0000002096+0000000000+I40000002096+0000000000+Z
328572001328572903-000070     328572006001704001106SWT TOFFEE CREAMY 35g  0000001000+00000700+00000+0001T   00000700+0000001635          1400 JC8150               2AZ
328572002328572903-000155     328572006009803374435SWT LOLLY I LUV U HEART0000001000+00000525+00000+0001T   00000525+0000001635          1400 JC8150               2AZ
328572003328572304-001502     328572006003000035533FLWR SATIN R/BUD 55CM  0000001000+00000613+00000+0001T   00000613+0000001635          1400 JC8510               2AZ
328573000328573               328573               170213DR     1400+00000+DR0000002630+0000002630+000000000+000000369+0000002990+0000000009+I20000000000+0000002990+Z
328573001328573006-006018     328573006001023735256PARTY-SPRAY HAIR ASSORT0000001000+00002630+00000+0001T   00002630+0000001638          1400 JC8131               2AZ
328574000328574               328574               170213DR     1400+00000+DR0000002980+0000002980+000000000+000000418+0000003390+0000000008+I20000000000+0000003390+Z
328574001328574565-000100     328574006003000571147NOVELTY SHOELACES 6 COL0000002000+00001490+00000+0001T   00001490+0000001639          1400 JC8745               2AZ
328575000328575               328575               170213DR     1400+00000+DR0000003678+0000003678+000000000+000000516+0000004190+0000000004+I20000000000+0000004190+Z
328575001328575304-001205     328575006001023738011FLWR P/STER FERN SPRAY 0000005000+00000613+00000+0001T   00000613+0000001639          1400 JC8510               2AZ
328575002328575566-000012     328575000721129023502S/BOOK H/MADE BORDERS  0000001000+00000613+00000+0001T   00000613+0000001639          1400 JC8130               2AZ
328576000328576               328576               170213DR     1400+00000+DR0000001490+0000001490+000000000+000000209+0000001690+0000000009+I20000000000+0000001690+Z
328576001328576077-000452     328576006003000284986G/BAG METALLIC MED EMB 0000001000+00001490+00000+0001T   00001490+0000001640          1400 JC8112               2AZ
328577000328577               328577               170213DR     1400+00000+DR0000018108+0000018108+000000000+000002539+0000020647+0000000000+I40000020647+0000000000+Z
328577001328577366-002101     328577006003000617715DRESS UP MASK LIGHT UP 0000001000+00002630+00000+0001T   00002630+0000001643          1400 JC8131               2AZ
328577002328577079-000514     328577009556341898321CRAYONS WAX 24-COLOUR  0000001000+00002630+00000+0001T   00002630+0000001643          1400 JC8130               2AZ
328577003328577079-000277     328577006003000160600PAINT-BRUSHES 15PCE    0000001000+00002630+00000+0001T   00002630+0000001643          1400 JC8130               2AZ
328577004328577079-000510     328577006001023509079CRAYONS WAX 12-COLOUR  0000001000+00002455+00000+0001T   00002455+0000001643          1400 JC8130               2AZ
328577005328577071-004202     328577006001023417176SCISSORS-SCHOOL PL/MTL 0000001000+00001139+00000+0001T   00001139+0000001643          1400 JC8130               2AZ
328577006328577567-014135     328577006003000560264BOOK COLOURING 240P    0000001000+00003069+00000+0001T   00003507+0008191643          1400 JC8757               2AZ
328577007328577112-116069     328577006009681820277TCS CARRIER BAG JUMBO  0000001000+00000048+00000+0001T   00000048+0000001643          1400 JC8090               2AZ
328577008328577007-000199     328577006002324001200FILE RING-BINDER A4    0000001000+00003507+00000+0001T   00003507+0000001643          1400 JC8130               2AZ
328578000328578               328578               170213DR     1400+00000+DR0000010084+0000010084+000000000+000001413+0000011497+0000000000+I40000011497+0000000000+Z
328578001328578200-003024     328578006001023657299REFUSE BAGS 20PCE BLACK0000001000+00001753+00000+0001T   00001753+0000001644          1400 JC8214               2AZ
328578002328578024-000093-A   328578006003000430697MEASURING-CUPS ASSTD   0000001000+00004385+00000+0001T   00004385+0000001644          1400 JC8300               2AZ
328578003328578024-000039     328578006003000114030MEASURING-JUG PL 1,0L  0000001000+00003946+00000+0001T   00005262+0008121644          1400 JC8300               2AZ
328579000328579               328579               170213DR     1400+00000+DR0000001314+0000001314+000000000+000000184+0000001490+0000000008+I20000000000+0000001490+Z
328579001328579563-000317-B   328579006001023776174SERVIETTES PLN WHT PK400000001000+00001314+00000+0001T   00001314+0000001647          1400 JC8214               2AZ
328580000328580               328580               170213DR     1400+00000+DR0000001753+0000001753+000000000+000000246+0000001990+0000000009+I20000000000+0000001990+Z
328580001328580071-010481     328580006001023417220MAGNIFYING-GLASS 90mm-D0000001000+00001753+00000+0001T   00001753+0000001650          1400 JC8130               2AZ
328581000328581               328581               170213DR     1400+00000+DR0000006748+0000006748+000000000+000000946+0000007690+0000000004+I20000000000+0000007690+Z
328581001328581301-085008     328581006003000673933ORN OCC.LOVE TINSEL HRT0000001000+00003069+00000+0001T   00003069+0000001653          1400 JC8505               2AZ
328581002328581006-000166-H   328581006003000608096BALLOONS HELIUM 6PC WHT0000002000+00001314+00000+0001T   00001314+0000001653          1400 JC8131               2AZ
328581003328581079-009702-D   328581008427973059354PAPER SIRIO A2 RED COL 0000001000+00001051+00000+0001T   00001051+0000001653          1400 JC8130               2AZ
328582000328582               328582               170213DR     1400+00000+DR0000001139+0000001139+000000000+000000160+0000001290+0000000009+I20000000000+0000001290+Z
328582001328582033-001363     328582006001023802057HAIR-CLIPS 50mm 48PCE  0000001000+00001139+00000+0001T   00001139+0000001653          1400 JC8200               2AZ
328583000328583               328583               170213DR     1400+00000+DR0000019160+0000019160+000000000+000002686+0000021840+0000000006+I20000000000+0000021840+Z
328583001328583073-000518     328583006003000283743COSMETIC BAG 2-DIV     0000001000+00008771+00000+0001T   00008771+0000001656          1400 JC8200               2AZ
328583002328583112-116069     328583006009681820277TCS CARRIER BAG JUMBO  0000001000+00000048+00000+0001T   00000048+0000001656          1400 JC8090               2AZ
328583003328583009-001300     328583006003000135059MELAMINE MUG 250ml     0000001000+00001753+00000+0001T   00001753+0000001656          1400 JC8210               2AZ
328583004328583009-001451     328583006001023695970MELAMINE S/BOWL 15cm   0000001000+00001753+00000+0001T   00001753+0000001656          1400 JC8210               2AZ
328583005328583306-000529     328583006003000571338TOOTHBRUSH HOLDER 20cm 0000002000+00001753+00000+0001T   00001753+0000001656          1400 JC8200               2AZ
328583006328583903-000120     328583006002099001665SWEET GS ZILLIONS 50g  0000001000+00000700+00000+0001T   00000700+0000001656          1400 JC8150               2AZ
328583007328583009-001455     328583006001023696038MELAMINE PLATE 25cm    0000001000+00001753+00000+0001T   00001753+0000001656          1400 JC8210               2AZ
328583008328583903-000503     328583006001704006118SWT VAMPIRE FANGS 60G  0000001000+00000876+00000+0001T   00000876+0000001656          1400 JC8150               2AZ
328584000328584               328584               170213DR     1400+00000+DR0000011887+0000011887+000000000+000001666+0000013550+0000000003+I20000000000+0000013550+Z
328584001328584080-000133-A   328584006003000647019MINI VALENTINES CARD   0000001000+00000437+00000+0001T   00000437+0000001701          1400 JC8112               2AZ
328584002328584368-000637     328584006001023874092PLUSH BEAR SLEEPING LOV0000001000+00011402+00000+0001T   00012279+0006471701          1400 JC8745               2AZ
328584003328584112-116069     328584006009681820277TCS CARRIER BAG JUMBO  0000001000+00000048+00000+0001T   00000048+0000001701          1400 JC8090               2AZ
328585000328585               328585               170213DR     1400+00000+DR0000003506+0000003506+000000000+000000492+0000003990+0000000008+I20000000000+0000003990+Z
328585001328585565-000859     328585006001023691361SUNGLASSES GIANT       0000001000+00001753+00000+0001T   00001753+0000001703          1400 JC8745               2AZ
328585002328585366-002809     328585006003000222490DRESS UP MOUSTACHE SET 0000001000+00001753+00000+0001T   00001753+0000001703          1400 JC8131               2AZ
328586000328586               328586               170213DR     1400+00000+DR0000004823+0000004823+000000000+000000676+0000005490+0000000009+I20000000000+0000005490+Z
328586001328586266-001020     328586006001023791689MASK & 2 SWORDS PL SET 0000001000+00004823+00000+0001T   00004823+0000001704          1400 JC8710               2AZ
328587000328587               328587               170213DR     1400+00000+DR0000004768+0000004768+000000000+000000669+0000005437+0000000000+I40000005437+0000000000+Z
328587001328587903-000155     328587006009803374435SWT LOLLY I LUV U HEART0000001000+00000525+00000+0001T   00000525+0000001709          1400 JC8150               2AZ
328587002328587018-000129     328587006001023403353MUG OCC. LOVE V-SHAPE  0000001000+00002630+00000+0001T   00002630+0000001709          1400 JC8515               2AZ
328587003328587077-000303     328587006001023593757GIFT-BAG PAPER MED     0000001000+00001578+00000+0001T   00001578+0000001709          1400 JC8112               2AZ
328587004328587112-116038     328587006009681820246TCS CARRIER BAG MIDI   0000001000+00000035+00000+0001T   00000035+0000001709          1400 JC8090               2AZ
328588000328588               328588               170213DR     1400+00000+DR0000005344+0000005344+000000000+000000751+0000006090+0000000005+I20000000000+0000006090+Z
328588001328588903-000077     328588006939873501687SWT GS MAGIC ROCK FRUIT0000002000+00000525+00000+0001T   00000525+0000001710          1400 JC8150               2AZ
328588002328588077-000251     328588006003000639106GIFT-DECOR RIBBON      0000001000+00002630+00000+0001T   00002630+0000001710          1400 JC8112               2AZ
328588003328588903-000077     328588006939873501687SWT GS MAGIC ROCK FRUIT0000001000+00000525+00000+0001T   00000525+0000001710          1400 JC8150               2AZ
328588004328588903-000087     328588006001704000161SWT SPECKLED-EGGS 50G  0000001000+00001139+00000+0001T   00001139+0000001710          1400 JC8150               2AZ
328589000328589               328589               170213DR     1400+00000+DR0000008771+0000008771+000000000+000001228+0000009990+0000000009+I20000000000+0000009990+Z
328589001328589368-000099     328589006001023680259PLUSH DOG 23cm ASSTD   0000001000+00008771+00000+0001T   00008771+0000001714          1400 JC8745               2AZ
328590000328590               328590               170213DR     1400+00000+DR0000005460+0000005460+000000000+000000770+0000006230+0000000000+I20000000000+0000006230+Z
328590001328590006-000120     328590006001023346889BALLOONS 10PC MIX COL  0000001000+00001753+00000+0001T   00001753+0000001718          1400 JC8131               2AZ
328590002328590077-000010-C   328590006001023123879CREPE-PAPER RED        0000002000+00000788+00000+0001T   00000788+0000001718          1400 JC8112               2AZ
328590003328590077-000010-D   328590006001023123886CREPE-PAPER WHITE      0000001000+00000788+00000+0001T   00000788+0000001718          1400 JC8112               2AZ
328590004328590006-000172-G   328590006003000610167BALLOONS METALLIC SILV 0000006000+00000218+00000+0001T   00000218+0000001718          1400 JC8131               2AZ
328590005328590112-116038     328590006009681820246TCS CARRIER BAG MIDI   0000001000+00000035+00000+0001T   00000035+0000001718          1400 JC8090               2AZ
328591000328591               328591               170213DR     1400+00000+DR0000002455+0000002455+000000000+000000344+0000002790+0000000009+I20000000000+0000002790+Z
328591001328591077-000380     328591006003000247585GIFT-BAG 33X45CM S/COL 0000001000+00002455+00000+0001T   00002455+0000001720          1400 JC8112               2AZ
328592000328592               328592               170213DR     1400+00000+DR0000007749+0000007749+000000000+000001087+0000008830+0000000006+I20000000000+0000008830+Z
328592001328592077-000245     328592006001023759214GIFT-RIBBON METALLICx2 0000002000+00001227+00000+0001T   00001227+0000001721          1400 JC8112               2AZ
328592002328592566-000006     328592006001023671189STICKER-BOOK DRESS-UP  0000001000+00002630+00000+0001T   00002630+0000001721          1400 JC8130               2AZ
328592003328592200-000003     328592006003000532360DISPOSABLE BAG 100PC   0000001000+00002630+00000+0001T   00002630+0000001721          1400 JC8214               2AZ
328592004328592112-116038     328592006009681820246TCS CARRIER BAG MIDI   0000001000+00000035+00000+0001T   00000035+0000001721          1400 JC8090               2AZ
328593000328593               328593               170213DR     1400+00000+DR0000007629+0000007629+000000000+000001069+0000008698+0000000000+I40000008698+0000000000+Z
328593001328593039-000624     328593006003000054923C/SET 4PC PILLARS 5X8CM0000001000+00007016+00000+0001T   00007016+0000001722          1400 JC8510               2AZ
328593002328593083-000055     328593006003000003853LIGHTER ELCTRNC REFILBL0000001000+00000613+00000+0001T   00000613+0000001722          1400 JC8315               2AZ
328594000328594               328594               170213DR     1400+00000+DR0000006306+0000006306+000000000+000000888+0000007190+0000000004+I20000000000+0000007190+Z
328594001328594079-009702-D   328594008427973059354PAPER SIRIO A2 RED COL 0000006000+00001051+00000+0001T   00001051+0000001723          1400 JC8130               2AZ
328595000328595               328595               170213DR     1400+00000+DR0000026304+0000026304+000000000+000003686+0000029990+0000000000+I40000029990+0000000000+Z
328595001328595089-000184     328595006003000577323KEY CHAIN OWL POLY MINI0000002000+00003069+00000+0001T   00003069+0000001726          1400 JC8205               2AZ
328595002328595077-000384     328595006003000275243G/BAG HOT STMP 18x23CM 0000002000+00001490+00000+0001T   00001490+0000001726          1400 JC8112               2AZ
328595003328595039-000799     328595006001023692382CANDLES TEALITE 100PCE 0000001000+00008771+00000+0001T   00008771+0000001726          1400 JC8510               2AZ
328595004328595039-001020     328595006001023617798CANDLES FLOATING BOX-4 0000002000+00002455+00000+0001T   00002455+0000001726          1400 JC8510               2AZ
328595005328595200-003024     328595006001023657299REFUSE BAGS 20PCE BLACK0000001000+00001753+00000+0001T   00001753+0000001726          1400 JC8214               2AZ
328595006328595077-000151     328595006008766114676GIFT-WRAP C/PHANE ASSTD0000002000+00000876+00000+0001T   00000876+0000001726          1400 JC8112               2AZ
328596000328596               328596               170213DR     1400+00000+DR0000005699+0000005699+000000000+000000798+0000006490+0000000007+I20000000000+0000006490+Z
328596001328596003-009201     328596006003000407798O/WELCOME STONE RND ASS0000001000+00004385+00000+0001T   00004385+0000001727          1400 JC8505               2AZ
328596002328596077-000310     328596006001023608635GIFT-BAG 18X23CM GLOSS 0000001000+00001314+00000+0001T   00001314+0000001727          1400 JC8112               2AZ
328597000328597               328597               170213DR     1400+00000+DR0000001752+0000001752+000000000+000000246+0000001990+0000000008+I20000000000+0000001990+Z
328597001328597077-000319     328597006001023609779GIFT-BAG 18X23CM BIRTHD0000001000+00001227+00000+0001T   00001227+0000001728          1400 JC8112               2AZ
328597002328597903-000155     328597006009803374435SWT LOLLY I LUV U HEART0000001000+00000525+00000+0001T   00000525+0000001728          1400 JC8150               2AZ
328598000328598               328598               170213DR     1400+00000+DR0000007048+0000007048+000000000+000000988+0000008030+0000000006+I20000000000+0000008030+Z
328598001328598018-000130     328598006001023867537MUG OCC LOVE MINI+HEART0000001000+00003507+00000+0001T   00003507+0000001729          1400 JC8515               2AZ
328598002328598133-000062     328598006001023822086FACE-CLOTH PLAIN ASSTD 0000002000+00001753+00000+0001T   00001753+0000001729          1400 JC8212               2AZ
328598003328598112-116038     328598006009681820246TCS CARRIER BAG MIDI   0000001000+00000035+00000+0001T   00000035+0000001729          1400 JC8090               2AZ
328599000328599               328599               170213DR     1400+00000+DR0000002278+0000002278+000000000+000000320+0000002590+0000000008+I20000000000+0000002590+Z
328599001328599006-000214-D   328599006003000310029P/BOYZ INVITE 6PCE     0000002000+00001139+00000+0001T   00001490+0008181729          1400 JC8131               2AZ
328600000328600               328600               170213DR     1400+00000+DR0000007042+0000007042+000000000+000000990+0000008030+0000000002+I20000000000+0000008030+Z
328600001328600903-000155     328600006009803374435SWT LOLLY I LUV U HEART0000003000+00000525+00000+0001T   00000525+0000001730          1400 JC8150               2AZ
328600002328600039-000026     328600006001023551610C/TAPERED 25CM M/RED   0000002000+00001051+00000+0001T   00001051+0000001730          1400 JC8510               2AZ
328600003328600040-000213     328600006001023617736CANDLE-HOLDER DAISY    0000002000+00001227+00000+0001T   00001227+0000001730          1400 JC8510               2AZ
328600004328600071-003000     328600006003000543229PEN BALL PEN 3PCE MULTI0000001000+00000876+00000+0001T   00000876+0000001730          1400 JC8130               2AZ
328600005328600112-116038     328600006009681820246TCS CARRIER BAG MIDI   0000001000+00000035+00000+0001T   00000035+0000001730          1400 JC8090               2AZ
328601000328601               328601               170213DR     1400+00000+DR0000004383+0000004383+000000000+000000614+0000004990+0000000007+I20000000000+0000004990+Z
328601001328601903-000844     328601005010478432567SWT CANDY DL LUV HEARTS0000001000+00001314+00000+0001T   00001314+0000001731          1400 JC8150               2AZ
