331642000331642               331642               170213DR     1400+00000+DR0000003507+0000003507+000000000+000000491+0000003990+0000000008+I20000000000+0000003990+Z
331642001331642567-011443     331642009781847506719BK PUZZLE WORDSEARCH   0000001000+00003507+00000+0001T   00003507+0000000951          1400 VM4757               3AZ
331643000331643               331643               170213DR     1400+00000+DR0000018236+0000018236+000000000+000002557+0000020793+0000000000+I40000020793+0000000000+Z
331643001331643080-000133-A   331643006003000647019MINI VALENTINES CARD   0000002000+00000437+00000+0001T   00000437+0000001006          1400 VM4112               3AZ
331643002331643903-000155     331643006009803374435SWT LOLLY I LUV U HEART0000003000+00000525+00000+0001T   00000525+0000001006          1400 VM4150               3AZ
331643003331643031-000851     331643006001023851994P/FRAME COL 4-H 31X17CM0000001000+00004385+00000+0001T   00004385+0000001006          1400 VM4510               3AZ
331643004331643105-009015     331643006003000467204STORAGE BOX 32L FROSTED0000001000+00011402+00000+0001T   00011402+0000001006          1400 VM4210               3AZ
331644000331644               331644               170213DR     1400+00000+DR0000008678+0000008678+000000000+000001216+0000009890+0000000004+I20000000000+0000009890+Z
331644001331644012-000002     331644006003000331079MICRO PLATE-COVER 26X9 0000001000+00003507+00000+0001T   00003507+0000001026          1400 VM4300               3AZ
331644002331644027-000081     331644006001023760371SCOURING PADS 10PCE    0000001000+00001139+00000+0001T   00001139+0000001026          1400 VM4212               3AZ
331644003331644306-000021     331644006001023169433EARBUDS 100PCE IN BAG  0000001000+00000613+00000+0001T   00000613+0000001026          1400 VM4200               3AZ
331644004331644251-000002     331644006003000093991TAPE D-SIDED 24x1000mm 0000001000+00002192+00000+0001T   00002192+0000001026          1400 VM4810               3AZ
331644005331644903-000111     331644006001704006378SWT LIQUORICE-TWISTS   0000001000+00001227+00000+0001T   00001227+0000001026          1400 VM4150               3AZ
331645000331645               331645               170213DR     1400+00000+DR0000001753+0000001753+000000000+000000246+0000001990+0000000009+I20000000000+0000001990+Z
331645001331645054-000801     331645006001023119230WIRE-BRUSH+HANDLE FINE 0000001000+00001753+00000+0001T   00001753+0000001035          1400 VM4810               3AZ
331646000331646               331646               170213DR     1400+00000+DR0000000437+0000000437+000000000+000000062+0000000490+0000000009+I20000000000+0000000490+Z
331646001331646080-000133     331646006003000535613CARD&ENV MINI ASTD DSGN0000001000+00000437+00000+0001T   00000437+0000001036          1400 VM4112               3AZ
331647000331647               331647               170213DR     1400+00000+DR0000012387+0000012387+000000000+000001739+0000014120+0000000006+I20000000000+0000014120+Z
331647001331647200-003024     331647006001023657299REFUSE BAGS 20PCE BLACK0000001000+00001753+00000+0001T   00001753+0000001038          1400 VM4214               3AZ
331647002331647018-000127     331647006001023380289MUG OCC STRAIGHT LOVE  0000001000+00001578+00000+0001T   00001753+0006471038          1400 VM4515               3AZ
331647003331647903-000194     331647006009826020616SWT CHOC RP LOLLY 25G  0000002000+00001314+00000+0001T   00001314+0000001038          1400 VM4150               3AZ
331647004331647903-000220     331647006001704007368SWT JELLY BEANS 60G    0000001000+00000876+00000+0001T   00000876+0000001038          1400 VM4150               3AZ
331647005331647903-000087     331647006001704000161SWT SPECKLED-EGGS 50G  0000001000+00001139+00000+0001T   00001139+0000001038          1400 VM4150               3AZ
331647006331647903-000155     331647006009803374435SWT LOLLY I LUV U HEART0000005000+00000525+00000+0001T   00000525+0000001038          1400 VM4150               3AZ
331647007331647112-116038     331647006009681820246TCS CARRIER BAG MIDI   0000001000+00000035+00000+0001T   00000035+0000001038          1400 VM4090               3AZ
331647008331647200-003024     331647006001023657299REFUSE BAGS 20PCE BLACK0000001000+00001753+00000+0001T   00001753+0000001038          1400 VM4214               3AZ
331648000331648               331648               170213DR     1400+00000+DR0000002629+0000002629+000000000+000000369+0000002990+0000000008+I20000000000+0000002990+Z
331648001331648903-000709     331648006002099007070SWT QUENCHERS FRUIT    0000001000+00001139+00000+0001T   00001139+0000001039          1400 VM4150               3AZ
331648002331648077-000305     331648006003000395422GIFT-BAG WINE 10X35CM  0000001000+00001490+00000+0001T   00001490+0000001039          1400 VM4112               3AZ
331649000331649               331649               170213DR     1400+00000+DR0000000525+0000000525+000000000+000000074+0000000590+0000000009+I20000000000+0000000590+Z
331649001331649002-021040     331649006001023812216PARTY-PICKS 100PCE     0000001000+00000525+00000+0001T   00000525+0000001116          1400 VM4300               3AZ
331650000331650               331650               170213DR     1400+00000+DR0000001753+0000001753+000000000+000000246+0000001990+0000000009+I20000000000+0000001990+Z
331650001331650162-093280     331650006001492932804#TAG ER CRYSTAL DROP   0000001000+00001753+00000+0001T   00003507+0008161120          1400 VM4160               3AZ
331651000331651               331651               170213DR     1400+00000+DR0000003506+0000003506+000000000+000000492+0000003990+0000000008+I20000000000+0000003990+Z
331651001331651159-006355     331651006003000576487HOOK TOWEL STAINLESS   0000002000+00001753+00000+0001T   00001753+0000001122          1400 VM4200               3AZ
331652000331652               331652               170213DR     1400+00000+DR0000002630+0000002630+000000000+000000369+0000002990+0000000009+I20000000000+0000002990+Z
331652001331652200-000042     331652006001023868886BAG-SEALERS 10PCE      0000001000+00002630+00000+0001T   00002630+0000001129          1400 VM4214               3AZ
331653000331653               331653               170213DR     1400+00000+DR0000010960+0000010960+000000000+000001536+0000012496+0000000000+I40000012496+0000000000+Z
331653001331653077-000316     331653006001023609731GIFT-BAG 25X32CM MATT  0000001000+00001753+00000+0001T   00001753+0000001138          1400 VM4112               3AZ
331653002331653018-030000     331653006003000421060MUG OCCASIONS LOVE 2PCE0000001000+00004385+00000+0001T   00004385+0000001138          1400 VM4515               3AZ
331653003331653089-060027     331653006003000245871KEY-CHAIN HEART 6X6cm  0000001000+00003069+00000+0001T   00003069+0000001138          1400 VM4205               3AZ
331653004331653200-003024     331653006001023657299REFUSE BAGS 20PCE BLACK0000001000+00001753+00000+0001T   00001753+0000001138          1400 VM4214               3AZ
331654000331654               331654               170213DR     1400+00000+DR0000010640+0000010640+000000000+000001491+0000012131+0000000000+I40000012131+0000000000+Z
331654001331654006-000325     331654006001023886347G/STICKS 3x20cm+3 CONN.0000003000+00001490+00000+0001T   00001490+0000001149          1400 VM4131               3AZ
331654002331654562-000011     331654006001023782182PLAY DOUGH NEON TUBE   0000001000+00003507+00000+0001T   00003507+0000001149          1400 VM4755               3AZ
331654003331654903-000844     331654005010478432567SWT CANDY DL LUV HEARTS0000002000+00001314+00000+0001T   00001314+0000001149          1400 VM4150               3AZ
331654004331654112-116038     331654006009681820246TCS CARRIER BAG MIDI   0000001000+00000035+00000+0001T   00000035+0000001149          1400 VM4090               3AZ
331655000331655               331655               170213DR     1400+00000+DR0000006170+0000006170+000000000+000000866+0000007030+0000000006+I20000000000+0000007030+Z
331655001331655200-003024     331655006001023657299REFUSE BAGS 20PCE BLACK0000001000+00001753+00000+0001T   00001753+0000001151          1400 VM4214               3AZ
331655002331655133-000018     331655006003000583218SWAB MICROFIBRE 30x30cm0000001000+00001753+00000+0001T   00001753+0000001151          1400 VM4212               3AZ
331655003331655077-000011-D   331655006001023808554TISSUE-WRAP WHITE 10PCE0000001000+00000876+00000+0001T   00000876+0000001151          1400 VM4112               3AZ
331655004331655027-000091     331655006003000343966WINDOW CLEANER 22CM    0000001000+00001753+00000+0001T   00001753+0000001151          1400 VM4212               3AZ
331655005331655112-116038     331655006009681820246TCS CARRIER BAG MIDI   0000001000+00000035+00000+0001T   00000035+0000001151          1400 VM4090               3AZ
331656000331656               331656               170213DR     1400+00000+DR0000019410+0000019410+000000000+000002720+0000022130+0000000000+I20000000000+0000022130+Z
331656001331656112-116038     331656006009681820246TCS CARRIER BAG MIDI   0000001000+00000035+00000+0001T   00000035+0000001200          1400 VM4090               3AZ
331656002331656018-000127     331656006001023380289MUG OCC STRAIGHT LOVE  0000001000+00001578+00000+0001T   00001753+0006471200          1400 VM4515               3AZ
331656003331656077-000303     331656006001023593757GIFT-BAG PAPER MED     0000002000+00001578+00000+0001T   00001578+0000001200          1400 VM4112               3AZ
331656004331656077-000319     331656006001023609779GIFT-BAG 18X23CM BIRTHD0000001000+00001227+00000+0001T   00001227+0000001200          1400 VM4112               3AZ
331656005331656077-000289     331656006001023901996GIFT BOX 20x25x11cm    0000001000+00001753+00000+0001T   00001753+0000001200          1400 VM4112               3AZ
331656006331656903-000220     331656006001704007368SWT JELLY BEANS 60G    0000001000+00000876+00000+0001T   00000876+0000001200          1400 VM4150               3AZ
331656007331656903-000087     331656006001704000161SWT SPECKLED-EGGS 50G  0000001000+00001139+00000+0001T   00001139+0000001200          1400 VM4150               3AZ
331656008331656903-000221     331656006001704007382SWT EENY-MEENY-MOS 60G 0000001000+00000876+00000+0001T   00000876+0000001200          1400 VM4150               3AZ
331656009331656031-000870-A   331656006001023798626P/FRAME WOOD WHITE-PINE0000001000+00004385+00000+0001T   00004385+0000001200          1400 VM4510               3AZ
331656010331656031-086301-A   331656006001023910189P/FRAME PL BRONZE 10X150000001000+00004385+00000+0001T   00004385+0000001200          1400 VM4510               3AZ
331657000331657               331657               170213DR     1400+00000+DR0000004383+0000004383+000000000+000000614+0000004990+0000000007+I20000000000+0000004990+Z
331657001331657565-000876     331657006003000305759NOVELTY FUNKY SUNGLASS 0000001000+00003507+00000+0001T   00003507+0000001203          1400 VM4745               3AZ
331657002331657006-000223     331657006001023891327PARTY EYE-MASK 6PCE    0000001000+00000876+00000+0001T   00000876+0000001203          1400 VM4131               3AZ
331658000331658               331658               170213DR     1400+00000+DR0000001753+0000001753+000000000+000000246+0000001990+0000000009+I20000000000+0000001990+Z
331658001331658251-000071     331658006003000451890PROTECTION-PADS BLK ADH0000001000+00001753+00000+0001T   00001753+0000001304          1400 VM4810               3AZ
331659000331659               331659               170213DR     1400+00000+DR0000007485+0000007485+000000000+000001049+0000008530+0000000004+I20000000000+0000008530+Z
331659001331659018-000130     331659006001023867537MUG OCC LOVE MINI+HEART0000001000+00003507+00000+0001T   00003507+0000001310          1400 VM4515               3AZ
331659002331659304-001011     331659006001023806727FLWR ROSE RED W/BEAR   0000001000+00000613+00000+0001T   00000788+0006471310          1400 VM4510               3AZ
331659003331659080-000124     331659006003000297733CARD & ENV VALENTINES  0000001000+00001578+00000+0001T   00001578+0000001310          1400 VM4112               3AZ
331659004331659077-000319     331659006001023609779GIFT-BAG 18X23CM BIRTHD0000001000+00001227+00000+0001T   00001227+0000001310          1400 VM4112               3AZ
331659005331659903-000155     331659006009803374435SWT LOLLY I LUV U HEART0000001000+00000525+00000+0001T   00000525+0000001310          1400 VM4150               3AZ
331659006331659112-116038     331659006009681820246TCS CARRIER BAG MIDI   0000001000+00000035+00000+0001T   00000035+0000001310          1400 VM4090               3AZ
331660000331660               331660               170213DR     1400+00000+DR0000000700+0000000700+000000000+000000098+0000000790+0000000008+I20000000000+0000000790+Z
331660001331660564-000012     331660006001023130075BUBBLE BOTTLE MAGIC    0000001000+00000700+00000+0001T   00000700+0000001320          1400 VM4131               3AZ
331661000331661               331661               170213DR     1400+00000+DR0000012277+0000012277+000000000+000001720+0000013997+0000000000+I40000013997+0000000000+Z
331661001331661019-000080     331661006001023775740VASE GLS FLORIST BALL  0000001000+00008771+00000+0001T   00008771+0000001321          1400 VM4510               3AZ
331661002331661200-003024     331661006001023657299REFUSE BAGS 20PCE BLACK0000002000+00001753+00000+0001T   00001753+0000001321          1400 VM4214               3AZ
331662000331662               331662               170213DR     1400+00000+DR0000004120+0000004120+000000000+000000578+0000004690+0000000008+I20000000000+0000004690+Z
331662001331662039-000108     331662006001023524034TEA-LITE CANDLES 8PCE  0000001000+00001490+00000+0001T   00001490+0000001328          1400 VM4510               3AZ
331662002331662174-000175     331662006001023730985LAUNDRY-BAG FOLD-AWAY  0000001000+00002630+00000+0001T   00002630+0000001328          1400 VM4205               3AZ
331663000331663               331663               170213DR     1400+00000+DR0000002628+0000002628+000000000+000000368+0000002990+0000000006+I20000000000+0000002990+Z
331663001331663006-000166-D   331663006003000516490BALLOONS LRG 6PC RED   0000002000+00001314+00000+0001T   00001314+0000001352          1400 VM4131               3AZ
331664000331664               331664               170213DR     1400+00000+DR0000009503+0000009503+000000000+000001333+0000010830+0000000006+I20000000000+0000010830+Z
331664001331664112-116038     331664006009681820246TCS CARRIER BAG MIDI   0000001000+00000035+00000+0001T   00000035+0000001354          1400 VM4090               3AZ
331664002331664159-002369     331664006001023999191TOOTHBRUSH HOLDER PL 3 0000001000+00002630+00000+0001T   00002630+0000001354          1400 VM4200               3AZ
331664003331664071-003858     331664006001023902276STATIONERY SET PENCIL  0000001000+00002455+00000+0001T   00002455+0000001354          1400 VM4130               3AZ
331664004331664051-500115     331664006003000528059GARDEN KID SPRAY BOTTLE0000001000+00001753+00000+0001T   00001753+0000001354          1400 VM4820               3AZ
331664005331664306-000039     331664006003000622566COTTON EARBUDS HOLDER  0000001000+00002630+00000+0001T   00002630+0000001354          1400 VM4200               3AZ
331665000331665               331665               170213DR     1400+00000+DR0000001753+0000001753+000000000+000000246+0000001990+0000000009+I20000000000+0000001990+Z
331665001331665033-001300     331665006003000667390HAIR PINS 4PC SNAP CLIP0000001000+00001753+00000+0001T   00001753+0000001355          1400 VM4200               3AZ
331666000331666               331666               170213DR     1400+00000+DR0000001314+0000001314+000000000+000000184+0000001490+0000000008+I20000000000+0000001490+Z
331666001331666077-000312     331666006001023608697GIFT-BAG 10X35CM GLOSS 0000001000+00001314+00000+0001T   00001314+0000001357          1400 VM4112               3AZ
331667000331667               331667               170213DR     1400+00000+DR0000008184+0000008184+000000000+000001149+0000009333+0000000000+I40000009333+0000000000+Z
331667001331667112-116038     331667006009681820246TCS CARRIER BAG MIDI   0000001000+00000035+00000+0001T   00000035+0000001359          1400 VM4090               3AZ
331667002331667018-005009     331667006001023725608MUG W/PLUSH-BEAR LOVE  0000001000+00003507+00000+0001T   00003507+0000001359          1400 VM4515               3AZ
331667003331667903-000155     331667006009803374435SWT LOLLY I LUV U HEART0000001000+00000525+00000+0001T   00000525+0000001359          1400 VM4150               3AZ
331667004331667080-000133-A   331667006003000647019MINI VALENTINES CARD   0000001000+00000437+00000+0001T   00000437+0000001359          1400 VM4112               3AZ
331667005331667077-000408     331667006003000145218G/BAG PP 15X21X7CM     0000001000+00000876+00000+0001T   00000876+0000001359          1400 VM4112               3AZ
331667006331667903-002850     331667000000087108262MENTOS ROLL FRUIT      0000001000+00001051+00000+0001T   00001051+0000001359          1400 VM4150               3AZ
331667007331667200-003024     331667006001023657299REFUSE BAGS 20PCE BLACK0000001000+00001753+00000+0001T   00001753+0000001359          1400 VM4214               3AZ
331668000331668               331668               170213DR     1400+00000+DR0000002630+0000002630+000000000+000000369+0000002990+0000000009+I20000000000+0000002990+Z
331668001331668200-000003     331668006003000532360DISPOSABLE BAG 100PC   0000001000+00002630+00000+0001T   00002630+0000001408          1400 VM4214               3AZ
331669000331669               331669               170213DR     1400+00000+DR0000027782+0000027782+000000000+000003896+0000031678+0000000000+I40000031678+0000000000+Z
331669001331669009-001451     331669006001023695970MELAMINE S/BOWL 15cm   0000004000+00001753+00000+0001T   00001753+0000001411          1400 VM4210               3AZ
331669002331669306-000021     331669006001023169433EARBUDS 100PCE IN BAG  0000001000+00000613+00000+0001T   00000613+0000001411          1400 VM4200               3AZ
331669003331669159-000041     331669006001023767684HOOK-HANGER 2PCE S/S   0000001000+00001753+00000+0001T   00001753+0000001411          1400 VM4200               3AZ
331669004331669133-000017     331669006003000525171CLEANING-CLOTHS 5PCE   0000001000+00003507+00000+0001T   00003507+0000001411          1400 VM4212               3AZ
331669005331669105-001027     331669006003000364916LUNCH BOX W/CLIPS 2-DIV0000001000+00002192+00000+0001T   00002192+0000001411          1400 VM4210               3AZ
331669006331669105-001032     331669000700371696634CONTAINER FOODSAVER 1.20000002000+00001753+00000+0001T   00001753+0000001411          1400 VM4210               3AZ
331669007331669108-001225     331669006003000010240SALAD BOWL MINI 380ML  0000004000+00000876+00000+0001T   00000876+0000001411          1400 VM4210               3AZ
331669008331669105-001031     331669000700371696627FOODSAVER 800ml        0000003000+00001314+00000+0001T   00001314+0000001411          1400 VM4210               3AZ
331669009331669200-003024     331669006001023657299REFUSE BAGS 20PCE BLACK0000001000+00001753+00000+0001T   00001753+0000001411          1400 VM4214               3AZ
331670000331670               331670               170213DR     1400+00000+DR0000000876+0000000876+000000000+000000123+0000000990+0000000009+I20000000000+0000000990+Z
331670001331670078-000025     331670008887013700064SUPERGLUE 3g 1PCE CARD 0000001000+00000876+00000+0001T   00000876+0000001411          1400 VM4810               3AZ
331671000331671               331671               170213DR     1400+00000+DR0000003507+0000003507+000000000+000000491+0000003990+0000000008+I20000000000+0000003990+Z
331671001331671031-005853     331671006003000442416P/FRAME WDN TWIN HEARTS0000001000+00003507+00000+0001T   00003507+0000001412          1400 VM4510               3AZ
331672000331672               331672               170213DR     1400+00000+DR0000006048+0000006048+000000000+000000847+0000006890+0000000005+I20000000000+0000006890+Z
331672001331672077-000303     331672006001023593757GIFT-BAG PAPER MED     0000003000+00001578+00000+0001T   00001578+0000001412          1400 VM4112               3AZ
331672002331672077-000312     331672006001023608697GIFT-BAG 10X35CM GLOSS 0000001000+00001314+00000+0001T   00001314+0000001412          1400 VM4112               3AZ
331673000331673               331673               170213DR     1400+00000+DR0000011572+0000011572+000000000+000001622+0000013190+0000000004+I20000000000+0000013190+Z
331673001331673079-105603     331673006003000230907ART+CRAFT STAMP ROUND  0000004000+00001578+00000+0001T   00001578+0000001414          1400 VM4130               3AZ
331673002331673079-105611     331673006003000249596ART+CRAFT INK PAD 1CLR 0000002000+00002630+00000+0001T   00002630+0000001414          1400 VM4130               3AZ
331674000331674               331674               170213DR     1400+00000+DR0000001226+0000001226+000000000+000000172+0000001398+0000000000+I40000001398+0000000000+Z
331674002331674006-001000     331674006003000093779HELIUM BALLOON FILL    0000002000+00000613+00000+0001T   00000613+0000001419          1400 VM4131               3AZ
331675000331675               331675               170213DR     1400+00000+DR0000008975+0000008975+000000000+000001259+0000010234+0000000000+I40000010234+0000000000+Z
331675001331675112-116038     331675006009681820246TCS CARRIER BAG MIDI   0000001000+00000035+00000+0001T   00000035+0000001421          1400 VM4090               3AZ
331675002331675051-005576     331675006001023534026GARDEN-FORK 240mm      0000001000+00002630+00000+0001T   00002630+0000001421          1400 VM4820               3AZ
331675003331675903-000221     331675006001704007382SWT EENY-MEENY-MOS 60G 0000001000+00000876+00000+0001T   00000876+0000001421          1400 VM4150               3AZ
331675004331675903-000481     331675006001704007481SWT MOO MILK-SHAKES 60G0000001000+00000876+00000+0001T   00000876+0000001421          1400 VM4150               3AZ
331675005331675903-000504     331675006001704012416SWT CHOC JELLY BEANS   0000001000+00001227+00000+0001T   00001227+0000001421          1400 VM4150               3AZ
331675006331675142-063201     331675006001023112538GARDEN-GLOVES POLKA-DOT0000001000+00002192+00000+0001T   00002192+0000001421          1400 VM4810               3AZ
331675007331675903-000087     331675006001704000161SWT SPECKLED-EGGS 50G  0000001000+00001139+00000+0001T   00001139+0000001421          1400 VM4150               3AZ
331676000331676               331676               170213DR     1400+00000+DR0000006347+0000006347+000000000+000000889+0000007230+0000000006+I20000000000+0000007230+Z
331676001331676046-000012-A   331676006003000208296BATTERIES H/POWER SZ:AA0000001000+00002192+00000+0001T   00002192+0000001421          1400 VM4312               3AZ
331676002331676083-000055     331676006003000003853LIGHTER ELCTRNC REFILBL0000001000+00000613+00000+0001T   00000613+0000001421          1400 VM4315               3AZ
331676003331676048-000751     331676006001023849779CAMPING-LANTERN B/O    0000001000+00003507+00000+0001T   00003507+0000001421          1400 VM4305               3AZ
331676004331676112-116038     331676006009681820246TCS CARRIER BAG MIDI   0000001000+00000035+00000+0001T   00000035+0000001421          1400 VM4090               3AZ
331677000331677               331677               170213DR     1400+00000+DR0000004498+0000004498+000000000+000000633+0000005130+0000000001+I20000000000+0000005130+Z
331677001331677306-000021     331677006001023169433EARBUDS 100PCE IN BAG  0000001000+00000613+00000+0001T   00000613+0000001422          1400 VM4200               3AZ
331677002331677018-000177     331677006001023797513MUG MINI LOVE ASSTD    0000001000+00000700+00000+0001T   00000700+0000001422          1400 VM4515               3AZ
331677003331677903-000155     331677006009803374435SWT LOLLY I LUV U HEART0000006000+00000525+00000+0001T   00000525+0000001422          1400 VM4150               3AZ
331677004331677112-116038     331677006009681820246TCS CARRIER BAG MIDI   0000001000+00000035+00000+0001T   00000035+0000001422          1400 VM4090               3AZ
331678000331678               331678               170213DR     1400+00000+DR0000000525+0000000525+000000000+000000074+0000000590+0000000009+I20000000000+0000000590+Z
331678001331678903-000155     331678006009803374435SWT LOLLY I LUV U HEART0000001000+00000525+00000+0001T   00000525+0000001423          1400 VM4150               3AZ
331679000331679               331679               170213DR     1400+00000+DR0000013157+0000013157+000000000+000001842+0000014999+0000000000+I40000014999+0000000000+Z
331679001331679403-000031     331679006003000302222J/HOLDER MTL LRG 2-ASST0000001000+00013157+00000+0001T   00013157+0000001425          1400 VM4510               3AZ
331680000331680               331680               170213DR     1400+00000+DR0000011395+0000011395+000000000+000001599+0000012990+0000000004+I20000000000+0000012990+Z
331680001331680033-006003     331680006001023678584SEWING-KIT             0000001000+00002630+00000+0001T   00002630+0000001429          1400 VM4200               3AZ
331680002331680903-003075     331680003800065783125SWT CHOC FAFL WAFER 52g0000002000+00000876+00000+0001T   00000876+0000001429          1400 VM4150               3AZ
331680003331680903-000885     331680008690997017147SWT L/BIRD CHOC BISCUIT0000002000+00000437+00000+0001T   00000437+0000001429          1400 VM4150               3AZ
331680004331680486-001004     331680006001023800039ALARM 3-FUNCTN  7x4.5cm0000001000+00006139+00000+0001T   00006139+0000001429          1400 VM4510               3AZ
331681000331681               331681               170213DR     1400+00000+DR0000003945+0000003945+000000000+000000553+0000004498+0000000000+I40000004498+0000000000+Z
331681001331681047-005126     331681006001023451255CABLETIES 100/150/200mm0000001000+00002192+00000+0001T   00002192+0000001431          1400 VM4880               3AZ
331681002331681027-000409     331681006001023731012SCRUBBING-BRUSH 15,5cm 0000001000+00001753+00000+0001T   00001753+0000001431          1400 VM4212               3AZ
331682000331682               331682               170213DR     1400+00000+DR0000007394+0000007394+000000000+000001038+0000008430+0000000002+I20000000000+0000008430+Z
331682001331682018-000129     331682006001023403353MUG OCC. LOVE V-SHAPE  0000001000+00002630+00000+0001T   00002630+0000001432          1400 VM4515               3AZ
331682002331682077-000312     331682006001023608697GIFT-BAG 10X35CM GLOSS 0000001000+00001314+00000+0001T   00001314+0000001432          1400 VM4112               3AZ
331682003331682903-000155     331682006009803374435SWT LOLLY I LUV U HEART0000001000+00000525+00000+0001T   00000525+0000001432          1400 VM4150               3AZ
331682004331682903-000194     331682006009826020616SWT CHOC RP LOLLY 25G  0000001000+00001314+00000+0001T   00001314+0000001432          1400 VM4150               3AZ
331682005331682080-000133-A   331682006003000647019MINI VALENTINES CARD   0000001000+00000437+00000+0001T   00000437+0000001432          1400 VM4112               3AZ
331682006331682903-000087     331682006001704000161SWT SPECKLED-EGGS 50G  0000001000+00001139+00000+0001T   00001139+0000001432          1400 VM4150               3AZ
331682007331682112-116038     331682006009681820246TCS CARRIER BAG MIDI   0000001000+00000035+00000+0001T   00000035+0000001432          1400 VM4090               3AZ
331683000331683               331683               170213DR     1400+00000+DR0000003944+0000003944+000000000+000000553+0000004490+0000000007+I20000000000+0000004490+Z
331683001331683566-000863     331683006001023788351STICKERS LASER 20x25cm 0000001000+00002630+00000+0001T   00002630+0000001434          1400 VM4130               3AZ
331683002331683566-001212     331683000721129014166STICKERS MICRO ASSTD   0000002000+00000657+00000+0001T   00000657+0000001434          1400 VM4130               3AZ
331684000331684               331684               170213DR     1400+00000+DR0000009025+0000009025+000000000+000001267+0000010292+0000000000+I40000010292+0000000000+Z
331684001331684079-009702-B   331684008427973059491PAPER SIRIO A2 WHITE   0000001000+00001051+00000+0001T   00001051+0000001437          1400 VM4130               3AZ
331684002331684079-009702-D   331684008427973059354PAPER SIRIO A2 RED COL 0000001000+00001051+00000+0001T   00001051+0000001437          1400 VM4130               3AZ
331684003331684079-000341     331684006920705495519FELT-TIP PENS 12PCE    0000001000+00001753+00000+0001T   00001753+0000001437          1400 VM4130               3AZ
331684004331684566-000992     331684006001023600639STICKERS GLOW-IN-DARK  0000001000+00001314+00000+0001T   00001314+0000001437          1400 VM4130               3AZ
331684005331684566-000065     331684006003000217915STICKERS GLITTER ASSTD 0000001000+00001753+00000+0001T   00001753+0000001437          1400 VM4130               3AZ
331684006331684566-000049     331684006003000159215STICKERS RIBBON/SLIDERS0000001000+00000876+00000+0001T   00001490+0008151437          1400 VM4130               3AZ
331684007331684071-081104-A   331684006003000326662GLUE-STICK 8g CRD-OF-3 0000001000+00001227+00000+0001T   00001227+0000001437          1400 VM4130               3AZ
331685000331685               331685               170213DR     1400+00000+DR0000000613+0000000613+000000000+000000086+0000000690+0000000009+I20000000000+0000000690+Z
331685001331685077-000311     331685006001023608666GIFT-BAG 11X14CM GLOSS 0000001000+00000613+00000+0001T   00000613+0000001438          1400 VM4112               3AZ
331686000331686               331686               170213DR     1400+00000+DR0000002192+0000002192+000000000+000000307+0000002490+0000000009+I20000000000+0000002490+Z
331686001331686028-000907     331686006001023459626BBQ GRILL-CLEANER      0000001000+00002192+00000+0001T   00002192+0000001441          1400 VM4305               3AZ
331687000331687               331687               170213DR     1400+00000+DR0000012014+0000012014+000000000+000001683+0000013690+0000000007+I20000000000+0000013690+Z
331687001331687466-000593     331687006003000027569SPORT SOCCER-SET       0000001000+00008771+00000+0001T   00008771+0000001444          1400 VM4785               3AZ
331687002331687306-000021     331687006001023169433EARBUDS 100PCE IN BAG  0000001000+00000613+00000+0001T   00000613+0000001444          1400 VM4200               3AZ
331687003331687903-000599     331687006003000608119SWEET BALLOONPUMP 18cm 0000001000+00002630+00000+0001T   00002630+0000001444          1400 VM4150               3AZ
331688000331688               331688               170213DR     1400+00000+DR0000007051+0000007051+000000000+000000988+0000008039+0000000000+I40000008039+0000000000+Z
331688001331688079-000335     331688006003000670550THERAPY P/CRAYONS 30   0000001000+00007016+00000+0001T   00007016+0000001448          1400 VM4130               3AZ
331688002331688112-116038     331688006009681820246TCS CARRIER BAG MIDI   0000001000+00000035+00000+0001T   00000035+0000001448          1400 VM4090               3AZ
331689000331689               331689               170213DR     1400+00000+DR0000009987+0000009987+000000000+000001402+0000011380+0000000009+I20000000000+0000011380+Z
331689001331689077-000151     331689006008766114676GIFT-WRAP C/PHANE ASSTD0000010000+00000876+00000+0001T   00000876+0000001449          1400 VM4112               3AZ
331689002331689077-000245     331689006001023759214GIFT-RIBBON METALLICx2 0000001000+00001227+00000+0001T   00001227+0000001449          1400 VM4112               3AZ
331690000331690               331690               170213DR     1400+00000+DR0000005436+0000005436+000000000+000000762+0000006190+0000000008+I20000000000+0000006190+Z
331690001331690079-009702-E   331690008427973059439PAPER SIRIO A2 BLUE    0000001000+00001051+00000+0001T   00001051+0000001450          1400 VM4130               3AZ
331690002331690050-000365-Z   331690006001023475305PADLOCK IRON 50mm CARD 0000001000+00004385+00000+0001T   00004385+0000001450          1400 VM4855               3AZ
331691000331691               331691               170213DR     1400+00000+DR0000003675+0000003675+000000000+000000518+0000004190+0000000003+I20000000000+0000004190+Z
331691001331691007-000145     331691006009635833087BK EXERCISE 72PG A4    0000007000+00000525+00000+0001T   00000525+0000001450          1400 VM4130               3AZ
331692000331692               331692               170213DR     1400+00000+DR0000005260+0000005260+000000000+000000738+0000005990+0000000008+I20000000000+0000005990+Z
331692001331692366-002101     331692006003000617715DRESS UP MASK LIGHT UP 0000002000+00002630+00000+0001T   00002630+0000001451          1400 VM4131               3AZ
331693000331693               331693               170213DR     1400+00000+DR0000002630+0000002630+000000000+000000369+0000002990+0000000009+I20000000000+0000002990+Z
331693001331693006-006018     331693006001023735256PARTY-SPRAY HAIR ASSORT0000001000+00002630+00000+0001T   00002630+0000001451          1400 VM4131               3AZ
331694000331694               331694               170213DR     1400+00000+DR0000001578+0000001578+000000000+000000221+0000001790+0000000009+I20000000000+0000001790+Z
331694001331694077-000303     331694006001023593757GIFT-BAG PAPER MED     0000001000+00001578+00000+0001T   00001578+0000001452          1400 VM4112               3AZ
331695000331695               331695               170213DR     1400+00000+DR0000001753+0000001753+000000000+000000246+0000001990+0000000009+I20000000000+0000001990+Z
331695001331695159-000670     331695006003000577187BATH SPONGE MESH BACK  0000001000+00001753+00000+0001T   00002630+0008131452          1400 VM4200               3AZ
331696000331696               331696               170213DR     1400+00000+DR0000003059+0000003059+000000000+000000434+0000003490+0000000003+I20000000000+0000003490+Z
331696001331696007-000203     331696006009685850409FILE DISPLAY FLDR ASSTD0000007000+00000437+00000+0001T   00000437+0000001456          1400 VM4130               3AZ
331697000331697               331697               170213DR     1400+00000+DR0000026314-0000026314-000000000+000003684-0000030000-0000000002+I20000000000+0000030000-Z
331697001331697486-010001     331697006003000283323WALL-CLOCK QTZ 60CM RND0000001000-00026314+00000+0001T   00026314+0000001458          1400 VM45101IC            3BZ
331698000331698               331698               170213DR     1400+00000+DR0000003945+0000003945+000000000+000000553+0000004490+0000000008+I20000000000+0000004490+Z
331698001331698077-000116     331698006003000240777GIFT-WRAP 700mmx2m COL 0000001000+00001753+00000+0001T   00001753+0000001500          1400 VM4112               3AZ
331698002331698077-000300     331698006001023483249GIFT BOX OCCASIONS HEXG0000001000+00002192+00000+0001T   00002192+0000001500          1400 VM4112               3AZ
331699000331699               331699               170213DR     1400+00000+DR0000000437+0000000437+000000000+000000062+0000000490+0000000009+I20000000000+0000000490+Z
331699001331699080-000133     331699006003000535613CARD&ENV MINI ASTD DSGN0000001000+00000437+00000+0001T   00000437+0000001500          1400 VM4112               3AZ
331700000331700               331700               170213DR     1400+00000+DR0000003554+0000003554+000000000+000000499+0000004050+0000000003+I20000000000+0000004050+Z
331700001331700566-000011     331700000721129022987STICKER SCRAPBOOK-KIT  0000002000+00001753+00000+0001T   00002630+0008151501          1400 VM4130               3AZ
331700002331700112-116069     331700006009681820277TCS CARRIER BAG JUMBO  0000001000+00000048+00000+0001T   00000048+0000001501          1400 VM4090               3AZ
331701000331701               331701               170213DR     1400+00000+DR0000045685+0000045685+000000000+000006402+0000052080+0000000007+I20000000000+0000052080+Z
331701001331701019-000079     331701006001023775726VASE 30cm CRACK-DESIGN 0000001000+00012279+00000+0001T   00012279+0000001506          1400 VM4510               3AZ
331701002331701019-000040     331701006001023673640VASE GLS 30CM CYLINDER 0000001000+00008771+00000+0001T   00008771+0000001506          1400 VM4510               3AZ
331701003331701019-071600     331701006001023771971RIVER-STONES 1kg MIXED 0000001000+00002630+00000+0001T   00002630+0000001506          1400 VM4510               3AZ
331701004331701019-071601     331701006001023771995RIVER-STONES 1kg WHITE 0000002000+00002630+00000+0001T   00002630+0000001506          1400 VM4510               3AZ
331701005331701019-071603     331701006001023772039RIVER-STONES 1kg PEACH 0000001000+00002630+00000+0001T   00002630+0000001506          1400 VM4510               3AZ
331701006331701112-116069     331701006009681820277TCS CARRIER BAG JUMBO  0000001000+00000048+00000+0001T   00000048+0000001506          1400 VM4090               3AZ
331701007331701112-116038     331701006009681820246TCS CARRIER BAG MIDI   0000001000+00000035+00000+0001T   00000035+0000001506          1400 VM4090               3AZ
331701008331701019-071596     331701006001023733078PEBBLES GLS 250g ASSTD.0000001000+00001753+00000+0001T   00001753+0000001506          1400 VM4510               3AZ
331701009331701019-000079     331701006001023775726VASE 30cm CRACK-DESIGN 0000001000+00012279+00000+0001T   00012279+0000001506          1400 VM4510               3AZ
331702000331702               331702               170213DR     1400+00000+DR0000000437+0000000437+000000000+000000062+0000000490+0000000009+I20000000000+0000000490+Z
331702001331702080-000133-A   331702006003000647019MINI VALENTINES CARD   0000001000+00000437+00000+0001T   00000437+0000001507          1400 VM4112               3AZ
331703000331703               331703               170213DR     1400+00000+DR0000003946+0000003946+000000000+000000553+0000004499+0000000000+I40000004499+0000000000+Z
331703001331703566-000358     331703006003000582587STICKER ROOM DECOR WORD0000001000+00003946+00000+0001T   00003946+0000001509          1400 VM4130               3AZ
331704000331704               331704               170213DR     1400+00000+DR0000002630+0000002630+000000000+000000369+0000002990+0000000009+I20000000000+0000002990+Z
331704001331704056-065302     331704006001023759566CAR SUN-SHIELD ALM-FOIL0000001000+00002630+00000+0001T   00002630+0000001520          1400 VM4860               3AZ
331705000331705               331705               170213DR     1400+00000+DR0000012443+0000012443+000000000+000001745+0000014188+0000000000+I40000014188+0000000000+Z
331705001331705077-000315     331705006003000181186GIFT-BAG 20x28cm MATT  0000001000+00001578+00000+0001T   00001578+0000001523          1400 VM4112               3AZ
331705002331705006-000166-D   331705006003000516490BALLOONS LRG 6PC RED   0000002000+00001314+00000+0001T   00001314+0000001523          1400 VM4131               3AZ
331705003331705077-000010-C   331705006001023123879CREPE-PAPER RED        0000001000+00000788+00000+0001T   00000788+0000001523          1400 VM4112               3AZ
331705004331705077-000011-D   331705006001023808554TISSUE-WRAP WHITE 10PCE0000001000+00000876+00000+0001T   00000876+0000001523          1400 VM4112               3AZ
331705005331705301-085004     331705006003000420469ORN LOVE PLAQUE 21X10CM0000001000+00003507+00000+0001T   00003946+0006471523          1400 VM4505               3AZ
331705006331705080-000133     331705006003000535613CARD&ENV MINI ASTD DSGN0000002000+00000437+00000+0001T   00000437+0000001523          1400 VM4112               3AZ
331705007331705077-000309-A   331705006003000671007GIFT-BAG HOLOGRAM JMB  0000001000+00002192+00000+0001T   00002192+0000001523          1400 VM4112               3AZ
331706000331706               331706               170213DR     1400+00000+DR0000012276+0000012276+000000000+000001720+0000013996+0000000000+I40000013996+0000000000+Z
331706001331706105-007018     331706006003000684731CONTAINER ROUND CLR    0000002000+00004385+00000+0001T   00004385+0000001527          1400 VM4210               3AZ
331706002331706264-000921     331706000090159150442MAISTO CAR 3" FRESH    0000001000+00001753+00000+0001T   00001753+0000001527          1400 VM4710               3AZ
331706003331706080-000105     331706006003000236237CARD & ENVELOPE BDAY   0000001000+00001753+00000+0001T   00001753+0000001527          1400 VM4112               3AZ
331707000331707               331707               170213DR     1400+00000+DR0000008154+0000008154+000000000+000001143+0000009297+0000000000+I40000009297+0000000000+Z
331707001331707368-000265     331707006001023750914PLUSH BEAR 23CM ASSTD C0000001000+00006139+00000+0001T   00006139+0000001536          1400 VM4745               3AZ
331707002331707077-000319     331707006001023609779GIFT-BAG 18X23CM BIRTHD0000001000+00001227+00000+0001T   00001227+0000001536          1400 VM4112               3AZ
331707003331707077-000010-C   331707006001023123879CREPE-PAPER RED        0000001000+00000788+00000+0001T   00000788+0000001536          1400 VM4112               3AZ
331708000331708               331708               170213DR     1400+00000+DR0000009646+0000009646+000000000+000001352+0000010990+0000000008+I20000000000+0000010990+Z
331708001331708262-000653     331708006008766060553DIE CAST SET AIRPORT   0000001000+00007893+00000+0001T   00007893+0000001537          1400 VM4710               3AZ
331708002331708200-003024     331708006001023657299REFUSE BAGS 20PCE BLACK0000001000+00001753+00000+0001T   00001753+0000001537          1400 VM4214               3AZ
331709000331709               331709               170213DR     1400+00000+DR0000016866+0000016866+000000000+000002363+0000019220+0000000009+I20000000000+0000019220+Z
331709001331709112-116038     331709006009681820246TCS CARRIER BAG MIDI   0000001000+00000035+00000+0001T   00000035+0000001540          1400 VM4090               3AZ
331709002331709018-000136     331709006001023659026MUG OCC LOVE W/PLUSH   0000003000+00003507+00000+0001T   00003507+0000001540          1400 VM4515               3AZ
331709003331709077-000383     331709006003000247943GIFT-BAG 11X14CM S/COL 0000002000+00000788+00000+0001T   00000788+0000001540          1400 VM4112               3AZ
331709004331709077-000303     331709006001023593757GIFT-BAG PAPER MED     0000003000+00001578+00000+0001T   00001578+0000001540          1400 VM4112               3AZ
331710000331710               331710               170213DR     1400+00000+DR0000020785+0000020785+000000000+000002911+0000023696+0000000000+I40000023696+0000000000+Z
331710001331710077-000299     331710006003000395576G/BAG 32x25cm LRG LOVE 0000001000+00001490+00000+0001T   00001490+0000001542          1400 VM4112               3AZ
331710002331710301-001123     331710000694202803967ORN FOUNTAIN MEDITATION0000001000+00015788+00000+0001T   00015788+0000001542          1400 VM4505               3AZ
331710003331710018-000136     331710006001023659026MUG OCC LOVE W/PLUSH   0000001000+00003507+00000+0001T   00003507+0000001542          1400 VM4515               3AZ
331711000331711               331711               170213DR     1400+00000+DR0000005645+0000005645+000000000+000000791+0000006430+0000000006+I20000000000+0000006430+Z
331711001331711018-005009     331711006001023725608MUG W/PLUSH-BEAR LOVE  0000001000+00003507+00000+0001T   00003507+0000001543          1400 VM4515               3AZ
331711002331711903-000155     331711006009803374435SWT LOLLY I LUV U HEART0000001000+00000525+00000+0001T   00000525+0000001543          1400 VM4150               3AZ
331711003331711080-000124     331711006003000297733CARD & ENV VALENTINES  0000001000+00001578+00000+0001T   00001578+0000001543          1400 VM4112               3AZ
331711004331711112-116038     331711006009681820246TCS CARRIER BAG MIDI   0000001000+00000035+00000+0001T   00000035+0000001543          1400 VM4090               3AZ
331712000331712               331712               170213DR     1400+00000+DR0000013681+0000013681+000000000+000001917+0000015598+0000000000+I40000015598+0000000000+Z
331712001331712049-004579     331712006002868010027DOORMAT COIR  40X60cm  0000001000+00012279+00000+0001T   00012279+0000001545          1400 VM4510               3AZ
331712002331712027-009030     331712006002814400100DUSTPAN PL             0000001000+00001402+00000+0001T   00001402+0000001545          1400 VM4212               3AZ
331713000331713               331713               170213DR     1400+00000+DR0000007629+0000007629+000000000+000001069+0000008690+0000000008+I20000000000+0000008690+Z
331713002331713018-050000     331713006003000412679MUG OCC LOVE TWIN BEAR 0000001000+00006139+00000+0001T   00006139+0000001550          1400 VM4515               3AZ
331713003331713077-000299     331713006003000395576G/BAG 32x25cm LRG LOVE 0000001000+00001490+00000+0001T   00001490+0000001550          1400 VM4112               3AZ
331714000331714               331714               170213DR     1400+00000+DR0000001753+0000001753+000000000+000000246+0000001990+0000000009+I20000000000+0000001990+Z
331714001331714903-000912     331714006009802868461SWT GUM TAPE HOT WHEELS0000001000+00001753+00000+0001T   00001753+0000001550          1400 VM4150               3AZ
331715000331715               331715               170213DR     1400+00000+DR0000006785+0000006785+000000000+000000952+0000007730+0000000007+I20000000000+0000007730+Z
331715001331715071-005678     331715006001023496294PUNCH 2 HOLE           0000001000+00002630+00000+0001T   00002630+0000001557          1400 VM4130               3AZ
331715002331715079-013101     331715006001023863706CRAFT SET DIY PIPE-CLNR0000001000+00002630+00000+0001T   00002630+0000001557          1400 VM4130               3AZ
331715003331715071-005214     331715006003000152544CELLOTAPE SUPER REFILL 0000001000+00001490+00000+0001T   00001490+0000001557          1400 VM4130               3AZ
331715004331715112-116038     331715006009681820246TCS CARRIER BAG MIDI   0000001000+00000035+00000+0001T   00000035+0000001557          1400 VM4090               3AZ
331716000331716               331716               170213DR     1400+00000+DR0000001314+0000001314+000000000+000000184+0000001490+0000000008+I20000000000+0000001490+Z
331716001331716006-000166-C   331716006003000516377BALLOONS LRG 6PC PINK  0000001000+00001314+00000+0001T   00001314+0000001611          1400 VM4131               3AZ
331717000331717               331717               170213DR     1400+00000+DR0000004413+0000004413+000000000+000000621+0000005030+0000000004+I20000000000+0000005030+Z
331717001331717200-003024     331717006001023657299REFUSE BAGS 20PCE BLACK0000001000+00001753+00000+0001T   00001753+0000001618          1400 VM4214               3AZ
331717002331717903-000155     331717006009803374435SWT LOLLY I LUV U HEART0000005000+00000525+00000+0001T   00000525+0000001618          1400 VM4150               3AZ
331717003331717112-116038     331717006009681820246TCS CARRIER BAG MIDI   0000001000+00000035+00000+0001T   00000035+0000001618          1400 VM4090               3AZ
331718000331718               331718               170213DR     1400+00000+DR0000001139+0000001139+000000000+000000160+0000001290+0000000009+I20000000000+0000001290+Z
331718001331718027-000081     331718006001023760371SCOURING PADS 10PCE    0000001000+00001139+00000+0001T   00001139+0000001618          1400 VM4212               3AZ
331719000331719               331719               170213DR     1400+00000+DR0000009150+0000009150+000000000+000001283+0000010433+0000000000+I40000010433+0000000000+Z
331719001331719007-000597     331719006009699511129MARLIN SLF ADHESIVE 2M 0000001000+00002192+00000+0001T   00002192+0000001626          1400 VM4130               3AZ
331719002331719306-000027     331719006009654960900COTTON WOOL PADS 2-PACK0000001000+00003507+00000+0001T   00003507+0000001626          1400 VM4200               3AZ
331719003331719033-005931     331719006001023678447PINS ON-WHEEL PEARLIZED0000001000+00000876+00000+0001T   00000876+0000001626          1400 VM4200               3AZ
331719004331719033-005917     331719006001023678201SEAM-RIP+THIMBLE-SET   0000001000+00000788+00000+0001T   00000788+0000001626          1400 VM4200               3AZ
331719005331719033-010720     331719006001023678645SAFETY-PINS 50PCE SMALL0000001000+00000876+00000+0001T   00000876+0000001626          1400 VM4200               3AZ
331719006331719071-001019     331719006001023474513MARKER BLACK NAME-PEN  0000001000+00000876+00000+0001T   00000876+0000001626          1400 VM4130               3AZ
331719007331719112-116038     331719006009681820246TCS CARRIER BAG MIDI   0000001000+00000035+00000+0001T   00000035+0000001626          1400 VM4090               3AZ
331720000331720               331720               170213DR     1400+00000+DR0000001753+0000001753+000000000+000000246+0000001990+0000000009+I20000000000+0000001990+Z
331720001331720077-000240     331720006003000326259G/RIBBON 4PC PEARLIZED 0000001000+00001753+00000+0001T   00001753+0000001628          1400 VM4112               3AZ
331721000331721               331721               170213DR     1400+00000+DR0000003069+0000003069+000000000+000000430+0000003490+0000000009+I20000000000+0000003490+Z
331721001331721366-000153     331721006003000601806DRESS UP GLITTER 27cm  0000001000+00003069+00000+0001T   00003069+0000001633          1400 VM4131               3AZ
331722000331722               331722               170213DR     1400+00000+DR0000004385+0000004385+000000000+000000614+0000004990+0000000009+I20000000000+0000004990+Z
331722001331722082-000105     331722006003000360369READING GLS STRNGHT:1.50000001000+00004385+00000+0001T   00004385+0000001634          1400 VM4160               3AZ
331723000331723               331723               170213DR     1400+00000+DR0000011390+0000011390+000000000+000001598+0000012980+0000000008+I20000000000+0000012980+Z
331723001331723903-000155     331723006009803374435SWT LOLLY I LUV U HEART0000006000+00000525+00000+0001T   00000525+0000001649          1400 VM4150               3AZ
331723002331723567-075490     331723006003000641154BK NOVEL ROMANCE AFR   0000001000+00003507+00000+0001T   00003507+0000001649          1400 VM4757               3AZ
331723003331723567-075490     331723009780799376470BK NOVEL ROMANCE AFR   0000001000+00003507+00000+0001T   00003507+0000001649          1400 VM4757               3AZ
331723004331723006-001000     331723006003000093779HELIUM BALLOON FILL    0000002000+00000613+00000+0001T   00000613+0000001649          1400 VM4131               3AZ
331724000331724               331724               170213DR     1400+00000+DR0000026746+0000026746+000000000+000003748+0000030494+0000000000+I40000030494+0000000000+Z
331724001331724206-000120     331724006003000628308PEELER CARROT SHARPENER0000002000+00001753+00000+0001T   00001753+0000001655          1400 VM4321               3AZ
331724002331724368-000113     331724006001023780874PLUSH BLINGED LOVE 30cm0000001000+00012279+00000+0001T   00012279+0000001655          1400 VM4745               3AZ
331724003331724077-000299-A   331724006003000670888GIFT-BAG PAPER JMB LOVE0000001000+00001753+00000+0001T   00001753+0000001655          1400 VM4112               3AZ
331724004331724368-000183     331724006003000668175PLUSH BEAR 15cm        0000001000+00005262+00000+0001T   00005262+0000001655          1400 VM4745               3AZ
331724005331724006-000852     331724006009541801866PARTY LUCKY-PCKT UNISEX0000001000+00003946+00000+0001T   00003946+0000001655          1400 VM4131               3AZ
331725000331725               331725               170213DR     1400+00000+DR0000007747+0000007747+000000000+000001087+0000008834+0000000000+I40000008834+0000000000+Z
331725001331725112-116038     331725006009681820246TCS CARRIER BAG MIDI   0000001000+00000035+00000+0001T   00000035+0000001658          1400 VM4090               3AZ
331725002331725018-005009     331725006001023725608MUG W/PLUSH-BEAR LOVE  0000001000+00003507+00000+0001T   00003507+0000001658          1400 VM4515               3AZ
331725003331725368-000100     331725006001023474742PLUSH MD BEAR 12cm     0000001000+00002630+00000+0001T   00002630+0000001658          1400 VM4745               3AZ
331725004331725903-000155     331725006009803374435SWT LOLLY I LUV U HEART0000003000+00000525+00000+0001T   00000525+0000001658          1400 VM4150               3AZ
331726000331726               331726               170213DR     1400+00000+DR0000008099+0000008099+000000000+000001136+0000009235+0000000000+I40000009235+0000000000+Z
331726001331726112-116038     331726006009681820246TCS CARRIER BAG MIDI   0000001000+00000035+00000+0001T   00000035+0000001701          1400 VM4090               3AZ
331726002331726304-001204     331726006001023737984FLOWER OCC. TEDDY/ROSES0000002000+00001402+00000+0001T   00001490+0006471701          1400 VM4510               3AZ
331726003331726565-000876     331726006003000305759NOVELTY FUNKY SUNGLASS 0000001000+00003507+00000+0001T   00003507+0000001701          1400 VM4745               3AZ
331726004331726366-002809     331726006003000222643DRESS UP MOUSTACHE SET 0000001000+00001753+00000+0001T   00001753+0000001701          1400 VM4131               3AZ
331727000331727               331727               170213DR     1400+00000+DR0000000525+0000000525+000000000+000000074+0000000590+0000000009+I20000000000+0000000590+Z
331727001331727903-000155     331727006009803374435SWT LOLLY I LUV U HEART0000001000+00000525+00000+0001T   00000525+0000001703          1400 VM4150               3AZ
331728000331728               331728               170213DR     1400+00000+DR0000000613+0000000613+000000000+000000086+0000000690+0000000009+I20000000000+0000000690+Z
331728001331728304-001011     331728006001023806727FLWR ROSE RED W/BEAR   0000001000+00000613+00000+0001T   00000788+0006471710          1400 VM4510               3AZ
A17021300                                          09321293DRSLAVE 3                       VM42IC
C33167400                                          170213DR565-000100     14184515SLAVE 3     VM41IC0000000000+0000000000+0010000001000+
C33171300                                          170213DR077-000303     15501532SLAVE 3     VM42IC0000000000+0000000000+0010000001000+
M17021301                              IT          DRSLAVE 3                                         LAST C/SLIP  331728                                                                             MANY THANX                                      M/BAY 2 DR                                      CHERIN
M17021302                              SHIEHAAM    DRSLAVE 3                                         C/BANK    R3544.50                              C/CARDS   R2901.58                              Z/READ    R6446.08                              VANESSA                                                                                                                                         MANY THANKS                                     M/BAY 2 DR                                      CHERIN
M17021391                              CASH        DRSLAVE 3                       Z-REPORT No.   600TOTAL (Sales - Refunds)           6446.08       CASH TO BE BANKED                 3544.50       DEBIT CARDS                          0.00       CREDIT CARDS                      2901.58       Z-READING                         6446.08       AIRTIME DEBIT CARD SALES             0.00       AIRTIME CARD SALES                   0.00       OVERS/UNDERS                         0.00       AIRTIME CASH SALES                   0.00       GIFT CARDS                           0.00       GIFT CARD CASH SALES                 0.00       T O T A L  CASH PAYOUTS              0.00                                                                                                                                                                                                                                                                                                                                                      Z
M17021392                              CASH        DRABSENT                                                                                                                                                                                          ANNUAL LEAVE                                                                                                                                                                                    DAY OFF                                                                                                                                                                                         COMMENTS                                                                                                                                                                                                                                                                                                                                                                                       Z
Y17021300                                          DR00000000592055+000086
ZDR17021319303 SLAVE 3      SALES DATA                     NEXT INVOICE NO.  331729 0600
X DR Slave 3 First invoice 331642 170213 Last invoice 331728 170213 Next invoice 331729 Total number of records 000000334 clbackup completed 19:30:39
