341334000341334               341334               170213DR     1400+00000+DR0000021036+0000021036+000000000+000002952+0000023988+           I90000000000+0000000000+Z
341334001341334077-000472     341334006003000330133G-BAG DESGNR LRG 25X32 0000012000+00001753+00000+0001T303592350000                    1400 1IC1121ICV             Z
341335000341335               341335               170213DR     1400+00000+DR0000004734+0000004734+000000000+000000663+0000005397+           I90000000000+0000000000+Z
341335001341335016-006515-A   341335006003000461707S/JAR GLS W/HANDLE 500 0000003000+00001578+00000+0001T023594670000                    1400 1IC3001ICV             Z
M17021301                              IT          DRSLAVE 4                                         RECEIPTING                                                                                      MANY THANKS                                     M/BAY 2 DR                                      CHERIN
M17021391                              CASH        DRSLAVE 4                       Z-REPORT No.   577TOTAL (Sales - Refunds)              0.00       CASH TO BE BANKED                    0.00       DEBIT CARDS                          0.00       CREDIT CARDS                         0.00       Z-READING                            0.00       AIRTIME DEBIT CARD SALES             0.00       AIRTIME CARD SALES                   0.00       OVERS/UNDERS                         0.00       AIRTIME CASH SALES                   0.00       GIFT CARDS                           0.00       GIFT CARD CASH SALES                 0.00       T O T A L  CASH PAYOUTS              0.00                                                                                                                                                                                                                                                                                                                                                      Z
M17021392                              CASH        DRABSENT                                                                                                                                                                                          ANNUAL LEAVE                                                                                                                                                                                    DAY OFF                                                                                                                                                                                         COMMENTS                                                                                                                                                                                                                                                                                                                                                                                       Z
Y17021300                                          DR00000000000000+000000
ZDR17021319303 SLAVE 4      SALES DATA                     NEXT INVOICE NO.  341336 0577
L52950800358099-001-001       DR1702130959512ICWESLEY CLAASEN                                                                                                                                                                                                                                                                                                                                                                                                                                                                                                                                                                                                                                                                                                                                                                                                                                                                                                                                                                                       Z
L56456500358343-001-002       DR1702130953482ICWESLEY CLAASEN                                                                                                                                                                                                                                                                                                                                                                                                                                                                                                                                                                                                                                                                                                                                                                                                                                                                                                                                                                                       Z
L56456500358343-002-002       DR1702130953522ICWESLEY CLAASEN                                                                                                                                                                                                                                                                                                                                                                                                                                                                                                                                                                                                                                                                                                                                                                                                                                                                                                                                                                                       Z
L56460000359235-001-002       DR1702130950492ICWESLEY CLAASEN                                                                                                                                                                                                                                                                                                                                                                                                                                                                                                                                                                                                                                                                                                                                                                                                                                                                                                                                                                                       Z
L56460000359235-002-002       DR1702130950522ICWESLEY CLAASEN                                                                                                                                                                                                                                                                                                                                                                                                                                                                                                                                                                                                                                                                                                                                                                                                                                                                                                                                                                                       Z
L56470600361569-001-001       DR1702131000442ICWESLEY CLAASEN                                                                                                                                                                                                                                                                                                                                                                                                                                                                                                                                                                                                                                                                                                                                                                                                                                                                                                                                                                                       Z
L56481100355816-001-002       DR1702130953372ICWESLEY CLAASEN                                                                                                                                                                                                                                                                                                                                                                                                                                                                                                                                                                                                                                                                                                                                                                                                                                                                                                                                                                                       Z
L56481100355816-002-002       DR1702130952382ICWESLEY CLAASEN                                                                                                                                                                                                                                                                                                                                                                                                                                                                                                                                                                                                                                                                                                                                                                                                                                                                                                                                                                                       Z
L57318300359595-001-003       DR1702130956522ICWESLEY CLAASEN                                                                                                                                                                                                                                                                                                                                                                                                                                                                                                                                                                                                                                                                                                                                                                                                                                                                                                                                                                                       Z
L57318300359595-002-003       DR1702130956572ICWESLEY CLAASEN                                                                                                                                                                                                                                                                                                                                                                                                                                                                                                                                                                                                                                                                                                                                                                                                                                                                                                                                                                                       Z
L57318300359595-003-003       DR1702130957272ICWESLEY CLAASEN                                                                                                                                                                                                                                                                                                                                                                                                                                                                                                                                                                                                                                                                                                                                                                                                                                                                                                                                                                                       Z
L57321800359598-001-002       DR1702131000172ICWESLEY CLAASEN                                                                                                                                                                                                                                                                                                                                                                                                                                                                                                                                                                                                                                                                                                                                                                                                                                                                                                                                                                                       Z
L57321800359598-002-002       DR1702131000192ICWESLEY CLAASEN                                                                                                                                                                                                                                                                                                                                                                                                                                                                                                                                                                                                                                                                                                                                                                                                                                                                                                                                                                                       Z
L57325300359080-001-002       DR1702131001492ICWESLEY CLAASEN                                                                                                                                                                                                                                                                                                                                                                                                                                                                                                                                                                                                                                                                                                                                                                                                                                                                                                                                                                                       Z
L57325300359080-002-002       DR1702131003112ICWESLEY CLAASEN                                                                                                                                                                                                                                                                                                                                                                                                                                                                                                                                                                                                                                                                                                                                                                                                                                                                                                                                                                                       Z
L57339100360683-001-001       DR1702130958532ICWESLEY CLAASEN                                                                                                                                                                                                                                                                                                                                                                                                                                                                                                                                                                                                                                                                                                                                                                                                                                                                                                                                                                                       Z
L57584800353179-001-002       DR1702130952142ICWESLEY CLAASEN                                                                                                                                                                                                                                                                                                                                                                                                                                                                                                                                                                                                                                                                                                                                                                                                                                                                                                                                                                                       Z
L57584800353179-002-002       DR1702130952192ICWESLEY CLAASEN                                                                                                                                                                                                                                                                                                                                                                                                                                                                                                                                                                                                                                                                                                                                                                                                                                                                                                                                                                                       Z
L57925300358039-001-001       DR1702130955112ICWESLEY CLAASEN                                                                                                                                                                                                                                                                                                                                                                                                                                                                                                                                                                                                                                                                                                                                                                                                                                                                                                                                                                                       Z
L58028700357037-001-002       DR1702130951092ICWESLEY CLAASEN                                                                                                                                                                                                                                                                                                                                                                                                                                                                                                                                                                                                                                                                                                                                                                                                                                                                                                                                                                                       Z
L58028700357037-002-002       DR1702130951512ICWESLEY CLAASEN                                                                                                                                                                                                                                                                                                                                                                                                                                                                                                                                                                                                                                                                                                                                                                                                                                                                                                                                                                                       Z
L58055200362150-001-001       DR1702131000302ICWESLEY CLAASEN                                                                                                                                                                                                                                                                                                                                                                                                                                                                                                                                                                                                                                                                                                                                                                                                                                                                                                                                                                                       Z
L58198500358665-001-001       DR1702130957332ICWESLEY CLAASEN                                                                                                                                                                                                                                                                                                                                                                                                                                                                                                                                                                                                                                                                                                                                                                                                                                                                                                                                                                                       Z
L58205900360882-001-001       DR1702130957502ICWESLEY CLAASEN                                                                                                                                                                                                                                                                                                                                                                                                                                                                                                                                                                                                                                                                                                                                                                                                                                                                                                                                                                                       Z
L58291400362275-001-005       DR1702130956222ICWESLEY CLAASEN                                                                                                                                                                                                                                                                                                                                                                                                                                                                                                                                                                                                                                                                                                                                                                                                                                                                                                                                                                                       Z
L58291400362275-002-005       DR1702130956002ICWESLEY CLAASEN                                                                                                                                                                                                                                                                                                                                                                                                                                                                                                                                                                                                                                                                                                                                                                                                                                                                                                                                                                                       Z
L58291400362275-003-005       DR1702130955452ICWESLEY CLAASEN                                                                                                                                                                                                                                                                                                                                                                                                                                                                                                                                                                                                                                                                                                                                                                                                                                                                                                                                                                                       Z
L58291400362275-004-005       DR1702130956192ICWESLEY CLAASEN                                                                                                                                                                                                                                                                                                                                                                                                                                                                                                                                                                                                                                                                                                                                                                                                                                                                                                                                                                                       Z
L58291400362275-005-005       DR1702130956022ICWESLEY CLAASEN                                                                                                                                                                                                                                                                                                                                                                                                                                                                                                                                                                                                                                                                                                                                                                                                                                                                                                                                                                                       Z
L58356800360112-001-001       DR1702130955132ICWESLEY CLAASEN                                                                                                                                                                                                                                                                                                                                                                                                                                                                                                                                                                                                                                                                                                                                                                                                                                                                                                                                                                                       Z
L58554500359484-001-003       DR1702131002132ICWESLEY CLAASEN                                                                                                                                                                                                                                                                                                                                                                                                                                                                                                                                                                                                                                                                                                                                                                                                                                                                                                                                                                                       Z
L58554500359484-002-003       DR1702131002172ICWESLEY CLAASEN                                                                                                                                                                                                                                                                                                                                                                                                                                                                                                                                                                                                                                                                                                                                                                                                                                                                                                                                                                                       Z
L58554500359484-003-003       DR1702131003052ICWESLEY CLAASEN                                                                                                                                                                                                                                                                                                                                                                                                                                                                                                                                                                                                                                                                                                                                                                                                                                                                                                                                                                                       Z
L58559000359467-001-001       DR1702131004032ICWESLEY CLAASEN                                                                                                                                                                                                                                                                                                                                                                                                                                                                                                                                                                                                                                                                                                                                                                                                                                                                                                                                                                                       Z
L58562100360980-001-002       DR1702130955322ICWESLEY CLAASEN                                                                                                                                                                                                                                                                                                                                                                                                                                                                                                                                                                                                                                                                                                                                                                                                                                                                                                                                                                                       Z
L58562100360980-002-002       DR1702130954222ICWESLEY CLAASEN                                                                                                                                                                                                                                                                                                                                                                                                                                                                                                                                                                                                                                                                                                                                                                                                                                                                                                                                                                                       Z
L58567200359301-001-002       DR1702130956372ICWESLEY CLAASEN                                                                                                                                                                                                                                                                                                                                                                                                                                                                                                                                                                                                                                                                                                                                                                                                                                                                                                                                                                                       Z
L58567200359301-002-002       DR1702130956342ICWESLEY CLAASEN                                                                                                                                                                                                                                                                                                                                                                                                                                                                                                                                                                                                                                                                                                                                                                                                                                                                                                                                                                                       Z
L58870800359545-001-001       DR1702131002492ICWESLEY CLAASEN                                                                                                                                                                                                                                                                                                                                                                                                                                                                                                                                                                                                                                                                                                                                                                                                                                                                                                                                                                                       Z
L58884800359431-001-001       DR1702130959462ICWESLEY CLAASEN                                                                                                                                                                                                                                                                                                                                                                                                                                                                                                                                                                                                                                                                                                                                                                                                                                                                                                                                                                                       Z
L58921000359541-001-001       DR1702130950162ICWESLEY CLAASEN                                                                                                                                                                                                                                                                                                                                                                                                                                                                                                                                                                                                                                                                                                                                                                                                                                                                                                                                                                                       Z
L58932100361080-001-002       DR1702130958142ICWESLEY CLAASEN                                                                                                                                                                                                                                                                                                                                                                                                                                                                                                                                                                                                                                                                                                                                                                                                                                                                                                                                                                                       Z
L58932100361080-002-002       DR1702130958172ICWESLEY CLAASEN                                                                                                                                                                                                                                                                                                                                                                                                                                                                                                                                                                                                                                                                                                                                                                                                                                                                                                                                                                                       Z
L58943100361425-001-001       DR1702131002022ICWESLEY CLAASEN                                                                                                                                                                                                                                                                                                                                                                                                                                                                                                                                                                                                                                                                                                                                                                                                                                                                                                                                                                                       Z
L59165600359861-001-001       DR1702130958272ICWESLEY CLAASEN                                                                                                                                                                                                                                                                                                                                                                                                                                                                                                                                                                                                                                                                                                                                                                                                                                                                                                                                                                                       Z
T094759016-006456                                          1702130942210000011ICSLAVE 4
T094759220-000140                                          1702130942210000021ICSLAVE 4
V5295080000000140                                                 0000000000000001702130000002ICSLAVE 4     170213164434358099N              01
V5645650000000140                                                 0000000000000001702130000002ICSLAVE 4     170213162139358343N              02
V5646000000000140                                                 0000000000000001702130000001ICSLAVE 4     170213171347359235N              02
V5647060000000140                                                 0000000000000001702130000002ICSLAVE 4     170213164625361569N              01
V5648110000000140                                                 0000000000000001702130000002ICSLAVE 4     170213161522355816N              02
V5731830000000140                                                 0000000000000001702130000002ICSLAVE 4     170213161818359595N              03
V5732180000000140                                                 0000000000000001702130000002ICSLAVE 4     170213163548359598N              02
V5732530000000140                                                 0000000000000001702130000002ICSLAVE 4     170213161906359080N              02
V5733910000000140                                                 0000000000000001702130000002ICSLAVE 4     170213164318360683N              01
V5758480000000140                                                 0000000000000001702130000002ICSLAVE 4     170213164826353179N              02
V5792530000000140                                                 0000000000000001702130000002ICSLAVE 4     170213163247358039N              01
V5802870000000140                                                 0000000000000001702130000001ICSLAVE 4     170213170145357037N              02
V5805520000000140                                                 0000000000000001702130000002ICSLAVE 4     170213164525362150N              01
V5819850000000140                                                 0000000000000001702130000002ICSLAVE 4     170213162050358665N              01
V5820590000000140                                                 0000000000000001702130000002ICSLAVE 4     170213161953360882N              01
V5829140000000140                                                 0000000000000001702130000001ICSLAVE 4     170213180213362275N              05
V5835680000000140                                                 0000000000000001702130000002ICSLAVE 4     170213163337360112N              01
V5855450000000140                                                 0000000000000001702130000002ICSLAVE 4     170213164710359484N              03
V5855900000000140                                                 0000000000000001702130000001ICSLAVE 4     170213174750359467Y              01
V5856210000000140                                                 0000000000000001702130000002ICSLAVE 4     170213161611360980N              02
V5856720000000140                                                 0000000000000001702130000002ICSLAVE 4     170213161656359301N              02
V5887080000000140                                                 0000000000000001702130000001ICSLAVE 4     170213175618359545N              01
V5888480000000140                                                 0000000000000001702130000002ICSLAVE 4     170213164353359431N              01
V5892100000000140                                                 0000000000000001702130000001ICSLAVE 4     170213173742359541N              01
V5893210000000140                                                 0000000000000001702130000002ICSLAVE 4     170213163503361080N              02
V5894310000000140                                                 0000000000000001702130000002ICSLAVE 4     170213163417361425N              01
V5916560000000140                                                 0000000000000001702130000002ICSLAVE 4     170213163007359861N              01
X DR Slave 4 First invoice 341334 170213 Last invoice 341335 170213 Next invoice 341336 Total number of records 000000083 clbackup completed 19:30:41
