157289000157289               157289               170213DT     1400+00000+DT0000016665+0000016665+000000000+000002334+0000018999+0000000000+I40000018999+0000000000+Z
157289001157289105-007525     157289006003000487707STORAGE BOX CLEAR 21L  0000001000+00016665+00000+0001T   00016665+0000000856          1400 EV6210               1BZ
157290000157290               157290               170213DT     1400+00000+DT0000003946+0000003946+000000000+000000553+0000004490+0000000009+I20000000000+0000004490+Z
157290001157290403-000501     157290006003000247677M/BANK PL POSTBOX 20CM 0000001000+00003946+00000+0001T   00003946+0000000857          1400 EV6510               1BZ
157291000157291               157291               170213DT     1400+00000+DT0000035901+0000035901+000000000+000005031+0000040932+0000000000+I40000040932+0000000000+Z
157291001157291112-116069     157291006009681820277TCS CARRIER BAG JUMBO  0000001000+00000048+00000+0001T   00000048+0000000901          1400 EV6090               1BZ
157291002157291150-000774     157291006005387000234UTILITY-BOX MEDIUM     0000008000+00000964+00000+0001T   00000964+0000000901          1400 EV6810               1BZ
157291003157291200-000065     157291006001023323675DRINKING-STRAWS 38PCE  0000003000+00000613+00000+0001T   00000613+0000000901          1400 EV6214               1BZ
157291004157291079-014101     157291006001023908612ART+CRAFT SCOUBIDOUx50 0000001000+00003507+00000+0001T   00003507+0000000901          1400 EV6130               1BZ
157291005157291065-001008     157291006001023673190XYLOPHONE 8-KEYS SHAPES0000001000+00004385+00000+0001T   00004385+0000000901          1400 EV6745               1BZ
157291006157291306-000024-A   157291006003000577309COTTON-WOOL-PADS 80PC  0000002000+00001753+00000+0001T   00001753+0000000901          1400 EV6200               1BZ
157291007157291306-000993     157291006003000560110FIRSTAID PLASTER 75PC  0000003000+00002630+00000+0001T   00002630+0000000901          1400 EV6200               1BZ
157291008157291562-000520     157291006003000112777EDU BLOCKS WDN ALPHABET0000002000+00003507+00000+0001T   00003507+0000000901          1400 EV6755               1BZ
157292000157292               157292               170213DT     1400+00000+DT0000002630+0000002630+000000000+000000369+0000002990+0000000009+I20000000000+0000002990+Z
157292001157292203-000470     157292006003000329793BOTTLE-STOPPER/OPENER  0000001000+00002630+00000+0001T   00002630+0000000902          1400 EV6300               1BZ
157293000157293               157293               170213DT     1400+00000+DT0000004385+0000004385+000000000+000000614+0000004990+0000000009+I20000000000+0000004990+Z
157293001157293082-000105     157293006003000360369READING GLS STRNGHT:1.50000001000+00004385+00000+0001T   00004385+0000001034          1400 EV6160               1BZ
157294000157294               157294               170213DT     1400+00000+DT0000002630+0000002630+000000000+000000369+0000002990+0000000009+I20000000000+0000002990+Z
157294001157294567-075466     157294009780263919943BK NOVEL ROMANCE       0000001000+00002630+00000+0001T   00002630+0000001034          1400 EV6757               1BZ
157295000157295               157295               170213DT     1400+00000+DT0000001753+0000001753+000000000+000000246+0000001990+0000000009+I20000000000+0000001990+Z
157295001157295084-000889     157295006003000293674NAIL FILE EMERY 18CM   0000001000+00001753+00000+0001T   00001753+0000001036          1400 EV6200               1BZ
157296000157296               157296               170213DT     1400+00000+DT0000009423+0000009423+000000000+000001320+0000010740+0000000003+I20000000000+0000010740+Z
157296001157296200-000200     157296006008766091144BAKING ALUM FOIL 2PCE  0000001000+00002192+00000+0001T   00002192+0000001037          1400 EV6214               1BZ
157296002157296038-001805     157296006003000466405DOILIES PAPER 60PC 3ASS0000001000+00003069+00000+0001T   00003069+0000001037          1400 EV6300               1BZ
157296003157296903-000194     157296006009826020616SWT CHOC RP LOLLY 25G  0000001000+00001314+00000+0001T   00001314+0000001037          1400 EV6150               1BZ
157296004157296567-010542     157296009781743461778PIXIE HELLO KITTY ASSTD0000001000+00000700+00000+0001T   00000876+0008131037          1400 EV6757               1BZ
157296005157296567-010542     157296009781743461747PIXIE HELLO KITTY ASSTD0000001000+00000700+00000+0001T   00000876+0008131037          1400 EV6757               1BZ
157296006157296567-010542     157296009781743461792PIXIE HELLO KITTY ASSTD0000001000+00000700+00000+0001T   00000876+0008131037          1400 EV6757               1BZ
157296007157296567-010542     157296009781743461761PIXIE HELLO KITTY ASSTD0000001000+00000700+00000+0001T   00000876+0008131037          1400 EV6757               1BZ
157296008157296112-116069     157296006009681820277TCS CARRIER BAG JUMBO  0000001000+00000048+00000+0001T   00000048+0000001037          1400 EV6090               1BZ
157297000157297               157297               170213DT     1400+00000+DT0000002630+0000002630+000000000+000000369+0000002990+0000000009+I20000000000+0000002990+Z
157297001157297567-075466     157297009780263915709BK NOVEL ROMANCE       0000001000+00002630+00000+0001T   00002630+0000001038          1400 EV6757               1BZ
157298000157298               157298               170213DT     1400+00000+DT0000001753+0000001753+000000000+000000246+0000001990+0000000009+I20000000000+0000001990+Z
157298001157298003-000250     157298006003000035045ORN DECOR NOVELTY GRASS0000001000+00001753+00000+0001T   00001753+0000001039          1400 EV6505               1BZ
157299000157299               157299               170213DT     1400+00000+DT0000019343+0000019343+000000000+000002709+0000022052+0000000000+I40000022052+0000000000+Z
157299001157299264-000928     157299000090159393603MAISTO MOTORBIKE HARLEY0000001000+00013157+00000+0001T   00013157+0000001154          1400 EV6710               1AZ
157299002157299466-000599     157299006001023630339BALL AMERICAN F/BALL   0000001000+00004385+00000+0001T   00004385+0000001154          1400 EV6785               1AZ
157299003157299369-001138     157299006003000555185VINYL 8.5cm THEMED DUCK0000001000+00001753+00000+0001T   00002630+0008141154          1400 EV6745               1AZ
157299004157299112-116069     157299006009681820277TCS CARRIER BAG JUMBO  0000001000+00000048+00000+0001T   00000048+0000001154          1400 EV6090               1AZ
157300000157300               157300               170213DT     1400+00000+DT0000005085+0000005085+000000000+000000712+0000005797+0000000000+I40000005797+0000000000+Z
157300001157300206-000260     157300006003000632183ICE TRAY BUILDING BLOCK0000001000+00003507+00000+0001T   00003507+0000001156          1400 EV6321               1BZ
157300002157300077-000303     157300006001023593757GIFT-BAG PAPER MED     0000001000+00001578+00000+0001T   00001578+0000001156          1400 EV6112               1BZ
157301000157301               157301               170213DT     1400+00000+DT0000015783+0000015783+000000000+000002211+0000017994+0000000000+I40000017994+0000000000+Z
157301001157301079-006498     157301006001023836151GLITTER SET 10PCE      0000001000+00003507+00000+0001T   00003507+0000001201          1400 EV6130               1BZ
157301002157301079-011520     157301006003000160549ART+CRAFT SET SAND BOTL0000001000+00007016+00000+0001T   00007893+0008191201          1400 EV6130               1BZ
157301003157301567-013439     157301009781775785750EK KAN LEES ASSTD      0000001000+00003507+00000+0001T   00003507+0000001201          1400 EV6757               1BZ
157301004157301077-000324     157301006001023677594GIFT-BAG 33X45CM E/D FL0000001000+00001753+00000+0001T   00001753+0000001201          1400 EV6112               1BZ
157302000157302               157302               170213DT     1400+00000+DT0000003541+0000003541+000000000+000000497+0000004030+0000000008+I20000000000+0000004030+Z
157302001157302027-009025     157302006003962000747DUSTPAN-SET PL         0000001000+00002630+00000+0001T   00002630+0000001204          1400 EV6212               1BZ
157302002157302306-000021-D   157302006003000622108COTTON EARBUDS COSMETIC0000001000+00000876+00000+0001T   00001139+0008171204          1400 EV6200               1BZ
157302003157302112-116038     157302006009681820246TCS CARRIER BAG MIDI   0000001000+00000035+00000+0001T   00000035+0000001204          1400 EV6090               1BZ
157303000157303               157303               170213DT     1400+00000+DT0000001578+0000001578+000000000+000000221+0000001790+0000000009+I20000000000+0000001790+Z
157303001157303080-000124     157303006003000297733CARD & ENV VALENTINES  0000001000+00001578+00000+0001T   00001578+0000001205          1400 EV6112               1AZ
157304000157304               157304               170213DT     1400+00000+DT0000004681+0000004681+000000000+000000656+0000005337+0000000000+I40000005337+0000000000+Z
157304001157304365-000027     157304006001023786852P/SET TEA-SET PL 9PCS  0000001000+00003946+00000+0001T   00003946+0000001207          1400 EV6725               1BZ
157304002157304564-000012     157304006001023130075BUBBLE BOTTLE MAGIC    0000001000+00000700+00000+0001T   00000700+0000001207          1400 EV6131               1BZ
157304003157304112-116038     157304006009681820246TCS CARRIER BAG MIDI   0000001000+00000035+00000+0001T   00000035+0000001207          1400 EV6090               1BZ
157305000157305               157305               170213DT     1400+00000+DT0000004155+0000004155+000000000+000000583+0000004738+0000000000+I40000004738+0000000000+Z
157305001157305077-000305     157305006003000395422GIFT-BAG WINE 10X35CM  0000001000+00001490+00000+0001T   00001490+0000001302          1400 EV6112               1BZ
157305002157305018-000129     157305006001023403353MUG OCC. LOVE V-SHAPE  0000001000+00002630+00000+0001T   00002630+0000001302          1400 EV6515               1BZ
157305003157305112-116038     157305006009681820246TCS CARRIER BAG MIDI   0000001000+00000035+00000+0001T   00000035+0000001302          1400 EV6090               1BZ
157306000157306               157306               170213DT     1400+00000+DT0000005260+0000005260+000000000+000000738+0000005990+0000000008+I20000000000+0000005990+Z
157306001157306106-003112     157306006003000593460ICE CUBE TRAY 25X12X3CM0000002000+00002630+00000+0001T   00002630+0000001305          1400 EV6210               1BZ
157307000157307               157307               170213DT     1400+00000+DT0000001753+0000001753+000000000+000000246+0000001990+0000000009+I20000000000+0000001990+Z
157307001157307012-000001     157307006003000331048MICRO PLATE-COVER 26X6 0000001000+00001753+00000+0001T   00002192+0008191306          1400 EV6300               1BZ
157308000157308               157308               170213DT     1400+00000+DT0000001226+0000001226+000000000+000000172+0000001390+0000000008+I20000000000+0000001390+Z
157308001157308077-000311     157308006001023608666GIFT-BAG 11X14CM GLOSS 0000002000+00000613+00000+0001T   00000613+0000001314          1400 EV6112               1BZ
157309000157309               157309               170213DT     1400+00000+DT0000006139+0000006139+000000000+000000860+0000006990+0000000009+I20000000000+0000006990+Z
157309001157309046-000010-VP  157309006003000537792BATTERIES SIZE:AAA 12PC0000001000+00006139+00000+0001T   00006139+0000001318          1400 EV6312               1BZ
157310000157310               157310               170213DT     1400+00000+DT0000001662+0000001662+000000000+000000234+0000001890+0000000006+I20000000000+0000001890+Z
157310001157310903-000155     157310006009803374435SWT LOLLY I LUV U HEART0000001000+00000525+00000+0001T   00000525+0000001322          1400 EV6150               1BZ
157310002157310007-000537     157310000651728791017NOTE-PAD RND SMILE-FACE0000001000+00000700+00000+0001T   00000700+0000001322          1400 EV6130               1BZ
157310003157310080-000133-A   157310006003000647019MINI VALENTINES CARD   0000001000+00000437+00000+0001T   00000437+0000001322          1400 EV6112               1BZ
157311000157311               157311               170213DT     1400+00000+DT0000002630+0000002630+000000000+000000369+0000002990+0000000009+I20000000000+0000002990+Z
157311001157311104-000031     157311006003000614950BASKET PL 27x18x12cm   0000001000+00002630+00000+0001T   00002630+0000001322          1400 EV6210               1BZ
157312000157312               157312               170213DT     1400+00000+DT0000000437+0000000437+000000000+000000062+0000000490+0000000009+I20000000000+0000000490+Z
157312001157312080-000133     157312006003000535613CARD&ENV MINI ASTD DSGN0000001000+00000437+00000+0001T   00000437+0000001323          1400 EV6112               1BZ
157313000157313               157313               170213DT     1400+00000+DT0000005260+0000005260+000000000+000000738+0000005998+0000000000+I40000005998+0000000000+Z
157313001157313369-000235     157313006001023857194LEARNING-LINKS 12PCE   0000001000+00002630+00000+0001T   00002630+0000001325          1400 EV6745               1BZ
157313002157313562-000806     157313006001023829467EDU THREADING STRNG GME0000001000+00002630+00000+0001T   00002630+0000001325          1400 EV6755               1BZ
157314000157314               157314               170213DT     1400+00000+DT0000007224+0000007224+000000000+000001012+0000008230+0000000006+I20000000000+0000008230+Z
157314001157314266-008032     157314006003000023899BOYS PLAYSET FIG COMBAT0000001000+00001490+00000+0001T   00001490+0000001328          1400 EV6710               1BZ
157314002157314266-005278     157314006001023829801COMBAT FIGURINE 29cm   0000001000+00004385+00000+0001T   00004385+0000001328          1400 EV6710               1BZ
157314003157314112-116038     157314006009681820246TCS CARRIER BAG MIDI   0000001000+00000035+00000+0001T   00000035+0000001328          1400 EV6090               1BZ
157314004157314046-000012     157314006904708013062BATTERIES AA  CARD-OF-40000001000+00001314+00000+0001T   00001314+0000001328          1400 EV6312               1BZ
157315000157315               157315               170213DT     1400+00000+DT0000001753+0000001753+000000000+000000246+0000001990+0000000009+I20000000000+0000001990+Z
157315001157315200-003024     157315006001023657299REFUSE BAGS 20PCE BLACK0000001000+00001753+00000+0001T   00001753+0000001340          1400 EV6214               1BZ
157316000157316               157316               170213DT     1400+00000+DT0000002665+0000002665+000000000+000000374+0000003030+0000000009+I20000000000+0000003030+Z
157316001157316106-001125     157316006003000666270WATER BOTTLE 600ml     0000001000+00002630+00000+0001T   00002630+0000001341          1400 EV6210               1CZ
157316002157316112-116038     157316006009681820246TCS CARRIER BAG MIDI   0000001000+00000035+00000+0001T   00000035+0000001341          1400 EV6090               1CZ
157317000157317               157317               170213DT     1400+00000+DT0000028834+0000028834+000000000+000004039+0000032873+0000000000+I40000032873+0000000000+Z
157317001157317077-000303     157317006001023593757GIFT-BAG PAPER MED     0000001000+00001578+00000+0001T   00001578+0000001345          1400 EV6112               1BZ
157317002157317365-003115     157317006001023494191PLAY-SET IRON+BOARD+ACC0000001000+00016665+00000+0001T   00016665+0000001345          1400 EV6725               1BZ
157317003157317112-116053     157317006006438002399TCS CARRIER BAG 38L    0000001000+00000069+00000+0001T   00000069+0000001345          1400 EV6090               1BZ
157317004157317031-000923     157317006001023669933P/FRAME BLK W/WORDS    0000001000+00003507+00000+0001T   00003507+0000001345          1400 EV6510               1BZ
157317005157317267-000902     157317006003000635931PUZZLE WOOD JIGSAW 26PC0000001000+00006139+00000+0001T   00006139+0000001345          1400 EV6755               1BZ
157317006157317903-000673     157317006009803358237SWT SHERBET GRAPE 4PK  0000001000+00000876+00000+0001T   00000876+0000001345          1400 EV6150               1BZ
157318000157318               157318               170213DT     1400+00000+DT0000032225+0000032225+000000000+000004518+0000036743+0000000000+I40000036743+0000000000+Z
157318001157318566-000316     157318006003000521821STICKERS MIRRORS HOME  0000001000+00006139+00000+0001T   00006139+0000001354          1400 EV6130               1BZ
157318002157318486-002320     157318006003000290932W/CLOCK QTZ PL W/LIFE  0000001000+00011402+00000+0001T   00011402+0000001354          1400 EV6510               1BZ
157318003157318046-000012     157318006904708013062BATTERIES AA  CARD-OF-40000001000+00001314+00000+0001T   00001314+0000001354          1400 EV6312               1BZ
157318004157318105-001100     157318006003000667536CONTAINER SET LITE 2PC 0000001000+00002630+00000+0001T   00002630+0000001354          1400 EV6210               1BZ
157318005157318039-000108     157318006001023524034TEA-LITE CANDLES 8PCE  0000001000+00001490+00000+0001T   00001490+0000001354          1400 EV6510               1BZ
157318006157318105-001033     157318000700371696641CONTAINER FOODSAVER 1.60000001000+00002192+00000+0001T   00002192+0000001354          1400 EV6210               1BZ
157318007157318251-000070     157318006003000451777PROTECTION-PADS BLK ADH0000002000+00001753+00000+0001T   00001753+0000001354          1400 EV6810               1BZ
157318008157318112-116069     157318006009681820277TCS CARRIER BAG JUMBO  0000001000+00000048+00000+0001T   00000048+0000001354          1400 EV6090               1BZ
157318009157318077-000456     157318006003000285549G/BAG METALLIC JMB EMB 0000001000+00002630+00000+0001T   00002630+0000001354          1400 EV6112               1BZ
157318010157318080-000133     157318006003000535613CARD&ENV MINI ASTD DSGN0000002000+00000437+00000+0001T   00000437+0000001354          1400 EV6112               1BZ
157319000157319               157319               170213DT     1400+00000+DT0000005085+0000005085+000000000+000000712+0000005790+0000000007+I20000000000+0000005790+Z
157319002157319077-000303     157319006001023593757GIFT-BAG PAPER MED     0000001000+00001578+00000+0001T   00001578+0000001356          1400 EV6112               1BZ
157319003157319018-005009     157319006001023725608MUG W/PLUSH-BEAR LOVE  0000001000+00003507+00000+0001T   00003507+0000001356          1400 EV6515               1BZ
157320000157320               157320               170213DT     1400+00000+DT0000004385+0000004385+000000000+000000614+0000004990+0000000009+I20000000000+0000004990+Z
157320001157320082-000110     157320006003000360482READING GLS STRENGHT:2 0000001000+00004385+00000+0001T   00004385+0000001358          1400 EV6160               1BZ
157321000157321               157321               170213DT     1400+00000+DT0000000876+0000000876+000000000+000000123+0000000990+0000000009+I20000000000+0000000990+Z
157321001157321082-026204     157321006001023816443R/GLASSES STRINGS 2PCE 0000001000+00000876+00000+0001T   00000876+0000001358          1400 EV6160               1BZ
157322000157322               157322               170213DT     1400+00000+DT0000002630+0000002630+000000000+000000369+0000002990+0000000009+I20000000000+0000002990+Z
157322001157322030-003700     157322006003000416790WALL DEC WDN ASTD WHT  0000001000+00002630+00000+0001T   00002630+0000001359          1400 EV6505               1BZ
157323000157323               157323               170213DT     1400+00000+DT0000006749+0000006749+000000000+000000946+0000007690+0000000005+I20000000000+0000007690+Z
157323001157323304-001011     157323006001023806727FLWR ROSE RED W/BEAR   0000001000+00000613+00000+0001T   00000788+0006471539          1400 EV6510               1CZ
157323002157323903-000849     157323008692806080083SWT SNACK BISCUIT 70g  0000001000+00000613+00000+0001T   00000613+0000001539          1400 EV6150               1CZ
157323003157323077-000302     157323008010410010195GIFT-BAG 18X23CM E/D   0000001000+00000876+00000+0001T   00000876+0000001539          1400 EV6112               1CZ
157323004157323030-000030-A   157323006003000249305PLAQUE GLASS LOVE      0000001000+00003069+00000+0001T   00003069+0000001539          1400 EV6505               1CZ
157323005157323018-000127     157323006001023380289MUG OCC STRAIGHT LOVE  0000001000+00001578+00000+0001T   00001753+0006471539          1400 EV6515               1CZ
157324000157324               157324               170213DT     1400+00000+DT0000014068+0000014068+000000000+000001970+0000016038+0000000000+I40000016038+0000000000+Z
157324001157324018-019000     157324006003000557288MUG OCC. LOVE JUMBO    0000001000+00005262+00000+0001T   00005262+0000001541          1400 EV6515               1BZ
157324002157324001-091415     157324006003000329113W/GLS OCC. LOVE 2PC 2800000001000+00008771+00000+0001T   00009648+0006471541          1400 EV6515               1BZ
157324003157324112-116038     157324006009681820246TCS CARRIER BAG MIDI   0000001000+00000035+00000+0001T   00000035+0000001541          1400 EV6090               1BZ
157325000157325               157325               170213DT     1400+00000+DT0000002192+0000002192+000000000+000000307+0000002490+0000000009+I20000000000+0000002490+Z
157325001157325077-000926     157325006003000414178G/WRAP 700mmx2m LOVE   0000001000+00002192+00000+0001T   00002192+0000001542          1400 EV6112               1BZ
157326000157326               157326               170213DT     1400+00000+DT0000003945+0000003945+000000000+000000553+0000004490+0000000008+I20000000000+0000004490+Z
157326001157326080-000127     157326006003000424351VALENTINES DAY 36x24CM 0000001000+00002192+00000+0001T   00002192+0000001611          1400 EV6112               1BZ
157326002157326301-085006     157326006001023502940ORN LOVE MSG TUBE W/HRT0000001000+00001753+00000+0001T   00001753+0000001611          1400 EV6505               1BZ
157327000157327               157327               170213DT     1400+00000+DT0000003680+0000003680+000000000+000000516+0000004196+0000000000+I40000004196+0000000000+Z
157327001157327034-000329     157327006001023564290BOTTLE-BRUSHES WHT 2PCE0000001000+00001314+00000+0001T   00001314+0000001626          1400 EV6215               1BZ
157327002157327142-000814     157327006001023183910GLOVES RUBBER  MEDIUM  0000001000+00001753+00000+0001T   00001753+0000001626          1400 EV6810               1BZ
157327003157327027-078282     157327006001023767837SCOURER 25g SPIRAL-BALL0000001000+00000613+00000+0001T   00000613+0000001626          1400 EV6212               1BZ
157328000157328               157328               170213DT     1400+00000+DT0000005260+0000005260+000000000+000000737+0000005990+0000000007+I20000000000+0000005990+Z
157328001157328071-001010     157328006001023893314MARKERS-METALIC 3PCE   0000001000+00003507+00000+0001T   00003507+0000001627          1400 EV6130               1BZ
157328002157328071-001015     157328006001023910387MARKERS PERMANENT 3PK  0000001000+00001753+00000+0001T   00001753+0000001627          1400 EV6130               1BZ
157329000157329               157329               170213DT     1400+00000+DT0000003506+0000003506+000000000+000000492+0000003990+0000000008+I20000000000+0000003990+Z
157329001157329080-000113     157329006003000237449CARD&ENVLPE - LOVE     0000002000+00001753+00000+0001T   00001753+0000001628          1400 EV6112               1BZ
157330000157330               157330               170213DT     1400+00000+DT0000066264+0000066264+000000000+000009288+0000075552+0000000000+I40000075552+0000000000+Z
157330001157330112-116053     157330006006438002399TCS CARRIER BAG 38L    0000001000+00000069+00000+0001T   00000069+0000001637          1400 EV6090               1BZ
157330002157330200-003024     157330006001023657299REFUSE BAGS 20PCE BLACK0000002000+00001753+00000+0001T   00001753+0000001637          1400 EV6214               1BZ
157330003157330466-000103     157330000681070950312BALL 20cm ASSTD        0000001000+00001753+00000+0001T   00001753+0000001637          1400 EV6785               1BZ
157330004157330368-000185     157330006003000672325PLUSH STEERING WHEEL   0000001000+00007016+00000+0001T   00007016+0000001637          1400 EV6745               1BZ
157330005157330006-000166-H   157330006003000608096BALLOONS HELIUM 6PC WHT0000001000+00001314+00000+0001T   00001314+0000001637          1400 EV6131               1BZ
157330006157330006-000166-D   157330006003000516490BALLOONS LRG 6PC RED   0000001000+00001314+00000+0001T   00001314+0000001637          1400 EV6131               1BZ
157330007157330493-059010     157330000078257590100BEACH-BALL COLOR-PANELS0000002000+00001490+00000+0001T   00001490+0000001637          1400 EV6787               1BZ
157330008157330028-002100     157330006003000243754CHAIR KIDDIES 68x50x48 0000001000+00008771+00000+0001T   00008771+0000001637          1400 EV6305               1BZ
157330009157330493-059010     157330000078257590100BEACH-BALL COLOR-PANELS0000001000+00001490+00000+0001T   00001490+0000001637          1400 EV6787               1BZ
157330010157330133-000086     157330006003000221929D/CLOTHS CTN 65g PK-3  0000001000+00007893+00000+0001T   00007893+0000001637          1400 EV6212               1BZ
157330011157330133-000017     157330006003000525171CLEANING-CLOTHS 5PCE   0000001000+00003507+00000+0001T   00003507+0000001637          1400 EV6212               1BZ
157330012157330027-009025     157330006003962000747DUSTPAN-SET PL         0000002000+00002630+00000+0001T   00002630+0000001637          1400 EV6212               1BZ
157330013157330056-065300     157330006001023625854CAR SUNSHIELD ALUM FOIL0000001000+00005262+00000+0001L   00005262+0000001637          1400 EV6860               1BZ
157330014157330467-000005     157330006001023584472NET FISHING 45-50 SHORT0000002000+00001753+00000+0001T   00001753+0000001637          1400 EV6785               1BZ
157330015157330072-020302     157330006001023858818PET-DOG STICK/RING 24cm0000001000+00002630+00000+0001T   00002630+0000001637          1400 EV6870               1BZ
157330016157330027-785005     157330006003000631063CLEANING WIPES 40-PACK 0000001000+00002630+00000+0001T   00002630+0000001637          1400 EV6212               1BZ
157330017157330036-000615     157330006003000218769WASH-PEGS PL PCK-24    0000001000+00001753+00000+0001T   00001753+0000001637          1400 EV6212               1BZ
157330018157330150-004028-H   157330006003000649976BATH-PLUG RUBBER BLACK 0000002000+00000613+00000+0001T   00000613+0000001637          1400 EV6810               1BZ
157330019157330301-085000     157330006003000674299 ORN OCC. LOVE HEARTS  0000002000+00002192+00000+0001T   00002192+0000001637          1400 EV6505               1BZ
157331000157331               157331               170213DT     1400+00000+DT0000018325+0000018325+000000000+000002567+0000020890+0000000002+I20000000000+0000020890+Z
157331001157331080-000127     157331006003000424351VALENTINES DAY 36x24CM 0000001000+00002192+00000+0001T   00002192+0000001640          1400 EV6112               1BZ
157331002157331903-000848     157331008692806080076SWT SNACK BISCUIT 70g  0000001000+00000613+00000+0001T   00000613+0000001640          1400 EV6150               1BZ
157331003157331301-085000     157331006003000674299 ORN OCC. LOVE HEARTS  0000001000+00002192+00000+0001T   00002192+0000001640          1400 EV6505               1BZ
157331004157331903-000194     157331006009826020616SWT CHOC RP LOLLY 25G  0000001000+00001314+00000+0001T   00001314+0000001640          1400 EV6150               1BZ
157331005157331368-000614     157331006001023705808PLUSH LOVE 30cm        0000001000+00008771+00000+0001T   00008771+0000001640          1400 EV6745               1BZ
157331006157331077-000299     157331006003000395576G/BAG 32x25cm LRG LOVE 0000001000+00001490+00000+0001T   00001490+0000001640          1400 EV6112               1BZ
157331007157331903-000919     157331006009802868577SWEET NOVELTY LASER POP0000001000+00001753+00000+0001T   00001753+0000001640          1400 EV6150               1BZ
157332000157332               157332               170213DT     1400+00000+DT0000009207+0000009207+000000000+000001290+0000010497+0000000000+I40000010497+0000000000+Z
157332001157332072-020314     157332006003000605453PET TOY PUP VINYL CHICK0000003000+00003069+00000+0001T   00003069+0000001641          1400 EV6870               1BZ
157333000157333               157333               170213DT     1400+00000+DT0000002630+0000002630+000000000+000000369+0000002990+0000000009+I20000000000+0000002990+Z
157333001157333018-000129     157333006001023403353MUG OCC. LOVE V-SHAPE  0000001000+00002630+00000+0001T   00002630+0000001650          1400 FB2515               1BZ
157334000157334               157334               170213DT     1400+00000+DT0000013726+0000013726+000000000+000001925+0000015651+0000000000+I40000015651+0000000000+Z
157334001157334018-000129     157334006001023403353MUG OCC. LOVE V-SHAPE  0000001000+00002630+00000+0001T   00002630+0000001653          1400 FB2515               1BZ
157334002157334304-001204     157334006001023737984FLOWER OCC. TEDDY/ROSES0000001000+00001402+00000+0001T   00001490+0006471653          1400 FB2510               1BZ
157334003157334301-085007     157334006003000673698ORN OCC. LOVE S/PLAQUE 0000001000+00007893+00000+0001T   00007893+0000001653          1400 FB2505               1BZ
157334004157334077-000299-A   157334006003000670888GIFT-BAG PAPER JMB LOVE0000001000+00001753+00000+0001T   00001753+0000001653          1400 FB2112               1BZ
157334005157334112-116069     157334006009681820277TCS CARRIER BAG JUMBO  0000001000+00000048+00000+0001T   00000048+0000001653          1400 FB2090               1BZ
157335000157335               157335               170213DT     1400+00000+DT0000001314+0000001314+000000000+000000184+0000001490+0000000008+I20000000000+0000001490+Z
157335001157335078-009100     157335006008741002349ALL-CLEAR GLUE 25ml CRD0000001000+00001314+00000+0001T   00001314+0000001653          1400 FB2810               1BZ
157336000157336               157336               170213DT     1400+00000+DT0000001578+0000001578+000000000+000000221+0000001790+0000000009+I20000000000+0000001790+Z
157336001157336018-000127     157336006001023380289MUG OCC STRAIGHT LOVE  0000001000+00001578+00000+0001T   00001753+0006471654          1400 FB2515               1AZ
157337000157337               157337               170213DT     1400+00000+DT0000001578+0000001578+000000000+000000221+0000001790+0000000009+I20000000000+0000001790+Z
157337001157337018-000127     157337006001023380289MUG OCC STRAIGHT LOVE  0000001000+00001578+00000+0001T   00001753+0006471654          1400 FB2515               1AZ
157338000157338               157338               170213DT     1400+00000+DT0000013155+0000013155+000000000+000001843+0000014990+0000000008+I20000000000+0000014990+Z
157338001157338077-000299-A   157338006003000670888GIFT-BAG PAPER JMB LOVE0000001000+00001753+00000+0001T   00001753+0000001707          1400 EV6112               1BZ
157338002157338368-000637     157338006001023874092PLUSH BEAR SLEEPING LOV0000001000+00011402+00000+0001T   00012279+0006471707          1400 EV6745               1BZ
157339000157339               157339               170213DT     1400+00000+DT0000003507+0000003507+000000000+000000491+0000003990+0000000008+I20000000000+0000003990+Z
157339001157339028-000031     157339006003000270897COOLER-BAG THERMAL 6PK 0000001000+00003507+00000+0001T   00003507+0000001709          1400 EV6305               1BZ
157340000157340               157340               170213DT     1400+00000+DT0000004734+0000004734+000000000+000000663+0000005390+0000000007+I20000000000+0000005390+Z
157340001157340018-000127     157340006001023380289MUG OCC STRAIGHT LOVE  0000003000+00001578+00000+0001T   00001753+0006471718          1400 EV6515               1BZ
157341000157341               157341               170213DT     1400+00000+DT0000015788+0000015788+000000000+000002211+0000017990+0000000009+I20000000000+0000017990+Z
157341001157341560-000779     157341006001023492760ANIMAL FARM P/SET 45PC 0000001000+00015788+00000+0001T   00015788+0000001719          1400 EV6745               1BZ
157342000157342               157342               170213DT     1400+00000+DT0000001314+0000001314+000000000+000000184+0000001490+0000000008+I20000000000+0000001490+Z
157342001157342077-000310     157342006001023608635GIFT-BAG 18X23CM GLOSS 0000001000+00001314+00000+0001T   00001314+0000001722          1400 EV6112               1BZ
157343000157343               157343               170213DT     1400+00000+DT0000005262+0000005262+000000000+000000737+0000005999+0000000000+I40000005999+0000000000+Z
157343001157343301-085003     157343006003000420827ORN OCCASION LOVE KEY  0000001000+00005262+00000+0001T   00005262+0000001723          1400 EV6505               1BZ
157344000157344               157344               170213DT     1400+00000+DT0000001753+0000001753+000000000+000000246+0000001990+0000000009+I20000000000+0000001990+Z
157344001157344133-000018     157344006003000583218SWAB MICROFIBRE 30x30cm0000001000+00001753+00000+0001T   00001753+0000001724          1400 EV6212               1BZ
157345000157345               157345               170213DT     1400+00000+DT0000003243+0000003243+000000000+000000455+0000003690+0000000008+I20000000000+0000003690+Z
157345001157345080-000113     157345006003000237449CARD&ENVLPE - LOVE     0000001000+00001753+00000+0001T   00001753+0000001738          1400 EV6112               1BZ
157345002157345077-000299     157345006003000395576G/BAG 32x25cm LRG LOVE 0000001000+00001490+00000+0001T   00001490+0000001738          1400 EV6112               1BZ
157346000157346               157346               170213DT     1400+00000+DT0000000613+0000000613+000000000+000000086+0000000690+0000000009+I20000000000+0000000690+Z
157346001157346304-001011     157346006001023806727FLWR ROSE RED W/BEAR   0000001000+00000613+00000+0001T   00000788+0006471739          1400 EV6510               1BZ
157347000157347               157347               170213DT     1400+00000+DT0000007050+0000007050+000000000+000000988+0000008030+0000000008+I20000000000+0000008030+Z
157347001157347031-080509     157347006001023802446P/FRAME COLLAGE 10X15CM0000001000+00006139+00000+0001T   00006139+0000001742          1400 EV6510               1BZ
157347002157347077-000151     157347006008766114676GIFT-WRAP C/PHANE ASSTD0000001000+00000876+00000+0001T   00000876+0000001742          1400 EV6112               1BZ
157347003157347112-116038     157347006009681820246TCS CARRIER BAG MIDI   0000001000+00000035+00000+0001T   00000035+0000001742          1400 EV6090               1BZ
A17021300                                          08510368DTSLAVE 1                       EV62IC
A17021301                                          09191172DTSLAVE 1                       EV62IC
C15731900                                          170213DT903-000095     13555866SLAVE 1     EV62IC0000000000+0000000000+0010000001000+
M17021301                              GLADWYN     DTATT:GLADWYN                                     LAST TRANS SLAVE 1 157347                       GANSBAAI DT
M17021302                              SHIEHAAM    DTATT:SHIEHAAM                                    Z-READ     R5199.76                             CASH       R2005.80                             DC         R00.00                               CC          R3193.96                            GANSBAAI DT
M17021391                              CASH        DTSLAVE 1                       Z-REPORT No.   644TOTAL (Sales - Refunds)           5199.76       CASH TO BE BANKED                 2005.80       DEBIT CARDS                          0.00       CREDIT CARDS                      3193.96       Z-READING                         5199.76       AIRTIME DEBIT CARD SALES             0.00       AIRTIME CARD SALES                   0.00       OVERS/UNDERS                         0.00       AIRTIME CASH SALES                   0.00       GIFT CARDS                           0.00       GIFT CARD CASH SALES                 0.00       T O T A L  CASH PAYOUTS              0.00                                                                                                                                                                                                                                                                                                                                                      Z
M17021392                              CASH        DTABSENT                                                                                                                                                                                          ANNUAL LEAVE                                                                                                                                                                                    DAY OFF                                                                                                                                                                                         COMMENTS          Z-READ   R5199.76                               BALANCE                                                                                                                                                                                                                                                                                                                      Z
Y17021300                                          DT00000000456367+000059
ZDT17021319303 SLAVE 1      SALES DATA                     NEXT INVOICE NO.  157348 0644
T094765466-000005                                          1702131433450000032ICSLAVE 1
X DT Slave 1 First invoice 157289 170213 Last invoice 157347 170213 Next invoice 157348 Total number of records 000000219 clbackup completed 19:30:41
