167668000167668               167668               170213DT     1400+00000+DT0000008327+0000008327+000000000+000001166+0000009490+0000000003+I20000000000+0000009490+Z
167668001167668006-000190     167668006003000685530BALLOONS LOVE 81x91cm  0000001000+00004385+00000+0001T   00004385+0000000830          1400 CD7131               2BZ
167668002167668006-000166-D   167668006003000516490BALLOONS LRG 6PC RED   0000003000+00001314+00000+0001T   00001314+0000000830          1400 CD7131               2BZ
167669000167669               167669               170213DT     1400+00000+DT0000007311+0000007311+000000000+000001026+0000008330+0000000007+I20000000000+0000008330+Z
167669001167669174-008025     167669006009654960399TRAVEL TUBS 4-PACK 30ml0000001000+00002016+00000+0001T   00002016+0000000917          1400 CD7205               2BZ
167669002167669037-000012     167669006003000556526ASHTRAY ROUND S/STEEL  0000001000+00002630+00000+0001T   00002630+0000000917          1400 CD7515               2BZ
167669003167669206-000620     167669006003000631797BACK SCRATCHER EXTEND  0000001000+00002630+00000+0001T   00002630+0000000917          1400 CD7321               2BZ
167669004167669112-116038     167669006009681820246TCS CARRIER BAG MIDI   0000001000+00000035+00000+0001T   00000035+0000000917          1400 CD7090               2BZ
167670000167670               167670               170213DT     1400+00000+DT0000016690+0000016690+000000000+000002340+0000019030+0000000000+I20000000000+0000019030+Z
167670001167670200-003019     167670006003000510856REFUSE BAGS 10PC D/STRN0000002000+00001314+00000+0001T   00001753+0008170920          1400 CD7214               2BZ
167670002167670251-000070     167670006003000451777PROTECTION-PADS BLK ADH0000001000+00001753+00000+0001T   00001753+0000000920          1400 CD7810               2BZ
167670003167670002-000117     167670006001023110879EGG POACHERS 2PC       0000001000+00003069+00000+0001T   00003069+0000000920          1400 CD7300               2BZ
167670004167670206-000620     167670006003000631797BACK SCRATCHER EXTEND  0000001000+00002630+00000+0001T   00002630+0000000920          1400 CD7321               2BZ
167670005167670206-000220     167670006003000631704EGG TIMER COLOUR-CHANGE0000001000+00002630+00000+0001T   00002630+0000000920          1400 CD7321               2BZ
167670006167670206-000245     167670006003000680818BOTTLE CLEANER PLASTIC 0000001000+00002192+00000+0001T   00002192+0000000920          1400 CD7321               2BZ
167670007167670088-000011     167670006001023752826AIR-FRESHNER GEL ASSTD 0000001000+00001753+00000+0001T   00001753+0000000920          1400 CD7212               2BZ
167670008167670112-116038     167670006009681820246TCS CARRIER BAG MIDI   0000001000+00000035+00000+0001T   00000035+0000000920          1400 CD7090               2BZ
167671000167671               167671               170213DT     1400+00000+DT0000003857+0000003857+000000000+000000541+0000004390+0000000008+I20000000000+0000004390+Z
167671001167671206-000630     167671006003000631919SPECTACLE CLEANING BRUS0000001000+00001227+00000+0001T   00001227+0000000921          1400 CD7321               2BZ
167671002167671206-000620     167671006003000631797BACK SCRATCHER EXTEND  0000001000+00002630+00000+0001T   00002630+0000000921          1400 CD7321               2BZ
167672000167672               167672               170213DT     1400+00000+DT0000001753+0000001753+000000000+000000246+0000001990+0000000009+I20000000000+0000001990+Z
167672001167672037-000004     167672006001023763679ASHTRAY PL TUB 8X11CM  0000001000+00001753+00000+0001T   00002192+0008190932          1400 CD7515               2BZ
167673000167673               167673               170213DT     1400+00000+DT0000001227+0000001227+000000000+000000172+0000001390+0000000009+I20000000000+0000001390+Z
167673001167673206-000630     167673006003000631919SPECTACLE CLEANING BRUS0000001000+00001227+00000+0001T   00001227+0000000948          1400 CD7321               2BZ
167674000167674               167674               170213DT     1400+00000+DT0000001314+0000001314+000000000+000000184+0000001490+0000000008+I20000000000+0000001490+Z
167674001167674046-000012     167674006904708013062BATTERIES AA  CARD-OF-40000001000+00001314+00000+0001T   00001314+0000000957          1400 CD7312               2BZ
167675000167675               167675               170213DT     1400+00000+DT0000003507+0000003507+000000000+000000491+0000003990+0000000008+I20000000000+0000003990+Z
167675001167675133-000010-B   167675006003000682850CLEANING CLOTH ROLL 25 0000001000+00003507+00000+0001T   00003507+0000001009          1400 CD7212               2BZ
167676000167676               167676               170213DT     1400+00000+DT0000003330+0000003330+000000000+000000467+0000003790+0000000007+I20000000000+0000003790+Z
167676001167676018-000177     167676006001023797513MUG MINI LOVE ASSTD    0000001000+00000700+00000+0001T   00000700+0000001016          1400 CD7515               2BZ
167676002167676089-000191     167676006003000430185KEY CHAIN BEAR 10CM    0000001000+00002630+00000+0001T   00002630+0000001016          1400 CD7205               2BZ
167677000167677               167677               170213DT     1400+00000+DT0000001314+0000001314+000000000+000000184+0000001490+0000000008+I20000000000+0000001490+Z
167677001167677046-000012     167677006904708013062BATTERIES AA  CARD-OF-40000001000+00001314+00000+0001T   00001314+0000001019          1400 CD7312               2BZ
167678000167678               167678               170213DT     1400+00000+DT0000003803+0000003803+000000000+000000534+0000004337+0000000000+I40000004337+0000000000+Z
167678001167678071-081101-A   167678006003000326549GLUE-STICK 25g BLISTER 0000001000+00000788+00000+0001T   00000788+0000001041          1400 CD7130               2BZ
167678002167678007-010496     167678006003000640652MARKER WHITEBOARD 4PCE 0000001000+00001753+00000+0001T   00001753+0000001041          1400 CD7130               2BZ
167678003167678071-081091     167678006001151010287STAED/GENKEM ALL-STICK 0000001000+00001227+00000+0001T   00001227+0000001041          1400 CD7130               2BZ
167678004167678112-116038     167678006009681820246TCS CARRIER BAG MIDI   0000001000+00000035+00000+0001T   00000035+0000001041          1400 CD7090               2BZ
167679000167679               167679               170213DT     1400+00000+DT0000003946+0000003946+000000000+000000553+0000004490+0000000009+I20000000000+0000004490+Z
167679001167679024-000002     167679006001023741899S/BURNER-COVER SILV/BLK0000001000+00003946+00000+0001T   00004385+0008191052          1400 CD7300               2BZ
167680000167680               167680               170213DT     1400+00000+DT0000005962+0000005962+000000000+000000835+0000006790+0000000007+I20000000000+0000006790+Z
167680001167680200-000220     167680006008766126976BAKEPANS 5PCE          0000001000+00002455+00000+0001T   00002455+0000001053          1400 CD7214               2BZ
167680002167680002-000738     167680006001023770189GRATER 3-WAY PYRAMID   0000001000+00003507+00000+0001T   00003507+0000001053          1400 CD7300               2BZ
167681000167681               167681               170213DT     1400+00000+DT0000001050+0000001050+000000000+000000147+0000001190+0000000007+I20000000000+0000001190+Z
167681001167681007-000104     167681006009685854865BK COVER BRWN KRFT ROLL0000003000+00000350+00000+0001T   00000350+0000001056          1400 CD7130               2BZ
167682000167682               167682               170213DT     1400+00000+DT0000021005+0000021005+000000000+000002944+0000023949+0000000000+I40000023949+0000000000+Z
167682001167682112-116069     167682006009681820277TCS CARRIER BAG JUMBO  0000001000+00000048+00000+0001T   00000048+0000001104          1400 CD7090               2BZ
167682002167682105-007555     167682008696287302542STORAGE BOX CLEAR NICHE0000001000+00009648+00000+0001T   00009648+0000001104          1400 CD7210               2BZ
167682003167682200-000200     167682006008766091144BAKING ALUM FOIL 2PCE  0000001000+00002192+00000+0001T   00002192+0000001104          1400 CD7214               2BZ
167682004167682200-000208     167682006003000293728BAKING ALUM FOIL 5PCE  0000001000+00002630+00000+0001T   00002630+0000001104          1400 CD7214               2BZ
167682005167682200-000225     167682006008766126952BAKEPANS 5PCE          0000001000+00002630+00000+0001T   00002630+0000001104          1400 CD7214               2BZ
167682006167682200-000211     167682006003000671847BAKING-PANS ALUM-FOIL  0000001000+00001753+00000+0001T   00001753+0000001104          1400 CD7214               2BZ
167682007167682903-000095     167682006001704011495SWT SPECKLED-EGGS 100G 0000001000+00002104+00000+0001T   00002104+0000001104          1400 CD7150               2BZ
167683000167683               167683               170213DT     1400+00000+DT0000000876+0000000876+000000000+000000123+0000000990+0000000009+I20000000000+0000000990+Z
167683001167683039-000319-2   167683006003000442508B/CANDLES LRG NUMBER-2 0000001000+00000876+00000+0001T   00000876+0000001105          1400 CD7510               2BZ
167684000167684               167684               170213DT     1400+00000+DT0000003507+0000003507+000000000+000000491+0000003990+0000000008+I20000000000+0000003990+Z
167684001167684562-000052     167684006003000112333EDU EXCAVATION DIAMOND 0000001000+00003507+00000+0001T   00003507+0000001109          1400 CD7755               2BZ
167685000167685               167685               170213DT     1400+00000+DT0000003453+0000003453+000000000+000000485+0000003938+0000000000+I40000003938+0000000000+Z
167685001167685306-007303     167685006003000532476MASSAGER (FOR HEAD)    0000001000+00002630+00000+0001T   00002630+0000001110          1400 CD7200               2BZ
167685002167685566-000858     167685006001023760975STCKRS G/OUTLINE ASSTD 0000001000+00000788+00000+0001T   00000788+0000001110          1400 CD7130               2BZ
167685003167685112-116038     167685006009681820246TCS CARRIER BAG MIDI   0000001000+00000035+00000+0001T   00000035+0000001110          1400 CD7090               2BZ
167686000167686               167686               170213DT     1400+00000+DT0000014030+0000014030+000000000+000001965+0000015990+0000000005+I20000000000+0000015990+Z
167686001167686200-003019     167686006003000510856REFUSE BAGS 10PC D/STRN0000002000+00001314+00000+0001T   00001753+0008171111          1400 CD7214               2BZ
167686002167686104-000140     167686006002923019835WASTEPAPER BIN FLIP 24L0000001000+00011402+00000+0001T   00011402+0000001111          1400 CD7210               2BZ
167687000167687               167687               170213DT     1400+00000+DT0000001752+0000001752+000000000+000000246+0000001990+0000000008+I20000000000+0000001990+Z
167687001167687077-000151     167687006008766114676GIFT-WRAP C/PHANE ASSTD0000002000+00000876+00000+0001T   00000876+0000001112          1400 CD7112               2BZ
167688000167688               167688               170213DT     1400+00000+DT0000012584+0000012584+000000000+000001763+0000014347+0000000000+I40000014347+0000000000+Z
167688001167688112-116069     167688006009681820277TCS CARRIER BAG JUMBO  0000001000+00000048+00000+0001T   00000048+0000001117          1400 CD7090               2BZ
167688002167688159-003625     167688006001023902061TOILET-BRUSH W/STD 40cm0000001000+00005262+00000+0001T   00005262+0000001117          1400 CD7200               2BZ
167688003167688006-000166-D   167688006003000516490BALLOONS LRG 6PC RED   0000001000+00001314+00000+0001T   00001314+0000001117          1400 CD7131               2BZ
167688004167688077-000311     167688006001023608666GIFT-BAG 11X14CM GLOSS 0000002000+00000613+00000+0001T   00000613+0000001117          1400 CD7112               2BZ
167688005167688077-000303     167688006001023593757GIFT-BAG PAPER MED     0000003000+00001578+00000+0001T   00001578+0000001117          1400 CD7112               2BZ
167689000167689               167689               170213DT     1400+00000+DT0000001753+0000001753+000000000+000000246+0000001990+0000000009+I20000000000+0000001990+Z
167689001167689047-001337-H   167689006001023429971INS-TAPE 20m BLACK     0000001000+00001753+00000+0001T   00001753+0000001118          1400 CD7880               2BZ
167690000167690               167690               170213DT     1400+00000+DT0000003068+0000003068+000000000+000000430+0000003498+0000000000+I40000003498+0000000000+Z
167690001167690016-006515-A   167690006003000461707S/JAR GLS W/HANDLE 500 0000001000+00001578+00000+0001T   00001753+0008191120          1400 CD7300               2BZ
167690002167690362-000306     167690006003000450039HAIR BAND SET 18PC     0000001000+00001490+00000+0001T   00001490+0000001120          1400 CD7160               2BZ
167691000167691               167691               170213DT     1400+00000+DT0000008767+0000008767+000000000+000001228+0000009990+0000000005+I20000000000+0000009990+Z
167691001167691002-001676     167691006001023110183SIMMER-PLATE WDN-HANDL 0000002000+00003507+00000+0001T   00003507+0000001124          1400 CD7300               2BZ
167691002167691002-001068     167691006001023812001DISP. BOTTLES PL H/H   0000001000+00001753+00000+0001T   00001753+0000001124          1400 CD7300               2BZ
167692000167692               167692               170213DT     1400+00000+DT0000000000+0000000000+000000000+000000000+0000000000+0000000000+I20000000000+0000000000+Z
167692001167692077-000151     167692006008766114676GIFT-WRAP C/PHANE ASSTD0000002000-00000876+00000+0001T   00000876+0000001130          1400 CD71122IC            2 Z
167692002167692077-000150-D   167692006003000054343GIFT-WRAP CELLPHANE CLR0000002000+00000876+00000+0001T   00000876+0000001130          1400 CD7112               2 Z
167693000167693               167693               170213DT     1400+00000+DT0000007488+0000007488+000000000+000001049+0000008530+0000000007+I20000000000+0000008530+Z
167693001167693080-000114     167693006003000246472CARD&ENV LOVE-MUSICAL  0000001000+00001314+00000+0001T   00001753+0008151138          1400 CD7112               2BZ
167693002167693018-050000     167693006003000412679MUG OCC LOVE TWIN BEAR 0000001000+00006139+00000+0001T   00006139+0000001138          1400 CD7515               2BZ
167693003167693112-116038     167693006009681820246TCS CARRIER BAG MIDI   0000001000+00000035+00000+0001T   00000035+0000001138          1400 CD7090               2BZ
167694000167694               167694               170213DT     1400+00000+DT0000026375+0000026375+000000000+000003696+0000030070+0000000001+I20000000000+0000030070+Z
167694001167694082-000120     167694006003000360727READING GLS STRENGTH:3 0000001000+00004385+00000+0001T   00004385+0000001142          1400 CD7160               2BZ
167694002167694174-000308     167694006003000684939TRAVEL NECK-PILLOW FOAM0000001000+00007893+00000+0001T   00007893+0000001142          1400 CD7205               2BZ
167694003167694036-000063     167694006009654960436COATHANGERS VIRGIN 5PCE0000002000+00001753+00000+0001T   00001753+0000001142          1400 CD7212               2BZ
167694004167694159-003625     167694006001023902061TOILET-BRUSH W/STD 40cm0000001000+00005262+00000+0001T   00005262+0000001142          1400 CD7200               2BZ
167694005167694050-000263-Z   167694006001023777041PADLOCK BRS 32mm CARDED0000001000+00003507+00000+0001T   00003507+0000001142          1400 CD7855               2BZ
167694006167694012-000001     167694006003000331048MICRO PLATE-COVER 26X6 0000001000+00001753+00000+0001T   00002192+0008191142          1400 CD7300               2BZ
167694007167694112-116053     167694006006438002399TCS CARRIER BAG 38L    0000001000+00000069+00000+0001T   00000069+0000001142          1400 CD7090               2BZ
167695000167695               167695               170213DT     1400+00000+DT0000001665+0000001665+000000000+000000234+0000001890+0000000009+I20000000000+0000001890+Z
167695001167695047-000504-H   167695006001023589958PLUG EURODAPTOR 2PIN HH0000001000+00001665+00000+0001T   00001665+0000001147          1400 CD7880               2BZ
167696000167696               167696               170213DT     1400+00000+DT0000006577+0000006577+000000000+000000921+0000007490+0000000008+I20000000000+0000007490+Z
167696001167696006-000190     167696006003000685530BALLOONS LOVE 81x91cm  0000001000+00004385+00000+0001T   00004385+0000001151          1400 CD7131               2BZ
167696002167696301-085000     167696006003000674299 ORN OCC. LOVE HEARTS  0000001000+00002192+00000+0001T   00002192+0000001151          1400 CD7505               2BZ
167697000167697               167697               170213DT     1400+00000+DT0000000700+0000000700+000000000+000000098+0000000790+0000000008+I20000000000+0000000790+Z
167697001167697018-000177     167697006001023797513MUG MINI LOVE ASSTD    0000001000+00000700+00000+0001T   00000700+0000001152          1400 CD7515               2BZ
167698000167698               167698               170213DT     1400+00000+DT0000002630+0000002630+000000000+000000369+0000002990+0000000009+I20000000000+0000002990+Z
167698001167698106-001104     167698006003000364794WATER BOTTLE 600ml PL  0000001000+00002630+00000+0001T   00002630+0000001153          1400 CD7210               2BZ
167699000167699               167699               170213DT     1400+00000+DT0000009678+0000009678+000000000+000001357+0000011035+0000000000+I40000011035+0000000000+Z
167699001167699031-000847     167699006001023851871P/FRAME TWIN 10X15CM   0000001000+00003507+00000+0001T   00003507+0000001206          1400 CD7510               2BZ
167699002167699079-000206     167699006003000639700PENCIL CRAYONS THERAPY 0000001000+00001753+00000+0001T   00001753+0000001206          1400 CD7130               2BZ
167699003167699079-000201     167699006003000161430P/CRAYONS THERAPY 10PCE0000001000+00002630+00000+0001T   00002630+0000001206          1400 CD7130               2BZ
167699004167699007-000724     167699006003000225958NOTE MAGNETIC 60SHTS   0000001000+00001753+00000+0001T   00001753+0000001206          1400 CD7130               2BZ
167699005167699112-116038     167699006009681820246TCS CARRIER BAG MIDI   0000001000+00000035+00000+0001T   00000035+0000001206          1400 CD7090               2BZ
167700000167700               167700               170213DT     1400+00000+DT0000003507+0000003507+000000000+000000491+0000003990+0000000008+I20000000000+0000003990+Z
167700001167700018-000136     167700006001023659026MUG OCC LOVE W/PLUSH   0000001000+00003507+00000+0001T   00003507+0000001207          1400 CD7515               2BZ
167701000167701               167701               170213DT     1400+00000+DT0000000035+0000000035+000000000+000000005+0000000040+0000000000+I20000000000+0000000040+Z
167701001167701112-116038     167701006009681820246TCS CARRIER BAG MIDI   0000001000+00000035+00000+0001T   00000035+0000001208          1400 CD7090               2BZ
167702000167702               167702               170213DT     1400+00000+DT0000001227+0000001227+000000000+000000172+0000001390+0000000009+I20000000000+0000001390+Z
167702001167702251-000041     167702006001023515889SEAL-TAPE BUFF 48mmx50m0000001000+00001227+00000+0001T   00001227+0000001217          1400 CD7810               2BZ
167703000167703               167703               170213DT     1400+00000+DT0000003542+0000003542+000000000+000000496+0000004038+0000000000+I40000004038+0000000000+Z
167703001167703018-005009     167703006001023725608MUG W/PLUSH-BEAR LOVE  0000001000+00003507+00000+0001T   00003507+0000001222          1400 CD7515               2BZ
167703002167703112-116038     167703006009681820246TCS CARRIER BAG MIDI   0000001000+00000035+00000+0001T   00000035+0000001222          1400 CD7090               2BZ
167704000167704               167704               170213DT     1400+00000+DT0000000700+0000000700+000000000+000000098+0000000790+0000000008+I20000000000+0000000790+Z
167704001167704033-005920-A   167704006001023678249SEWING-THREAD 100m WHT 0000001000+00000700+00000+0001T   00000700+0000001223          1400 CD7200               2BZ
167705000167705               167705               170213DT     1400+00000+DT0000003507+0000003507+000000000+000000491+0000003990+0000000008+I20000000000+0000003990+Z
167705001167705018-000136     167705006001023659026MUG OCC LOVE W/PLUSH   0000001000+00003507+00000+0001T   00003507+0000001225          1400 CD7515               2BZ
167706000167706               167706               170213DT     1400+00000+DT0000021488+0000021488+000000000+000003009+0000024497+0000000000+I40000024497+0000000000+Z
167706001167706024-091103     167706006003453014307BAKING-CUP MUFFIN 50PCE0000001000+00002192+00000+0001T   00002192+0000001241          1400 CD7300               2BZ
167706002167706024-000107     167706006001023422071MUFFIN-PAN 12-CUP      0000002000+00009648+00000+0001T   00009648+0000001241          1400 CD7300               2BZ
167707000167707               167707               170213DT     1400+00000+DT0000001753+0000001753+000000000+000000246+0000001990+0000000009+I20000000000+0000001990+Z
167707001167707200-003024     167707006001023657299REFUSE BAGS 20PCE BLACK0000001000+00001753+00000+0001T   00001753+0000001241          1400 CD7214               2BZ
167708000167708               167708               170213DT     1400+00000+DT0000007454+0000007454+000000000+000001044+0000008498+0000000000+I40000008498+0000000000+Z
167708001167708051-600671     167708006001023552730GARDEN-FENCE PL-CTD 5PC0000001000+00004385+00000+0001T   00004385+0000001246          1400 CD7820               2BZ
167708002167708038-092233     167708006003000328925TABLE-MAT N/SLIP ASST  0000001000+00003069+00000+0001T   00003507+0008191246          1400 CD7300               2BZ
167709000167709               167709               170213DT     1400+00000+DT0000002192+0000002192+000000000+000000307+0000002490+0000000009+I20000000000+0000002490+Z
167709001167709051-002400     167709006001023616180TRIGGER-SPRAYER 900ml  0000001000+00002192+00000+0001T   00002192+0000001247          1400 CD7820               2BZ
167710000167710               167710               170213DT     1400+00000+DT0000005261+0000005261+000000000+000000737+0000005990+0000000008+I20000000000+0000005990+Z
167710001167710082-007587     167710006003000654338SUNGLASS DESIGNER ASST 0000001000+00004385+00000+0001T   00004385+0000001247          1400 CD7160               2BZ
167710002167710082-026204     167710006001023816443R/GLASSES STRINGS 2PCE 0000001000+00000876+00000+0001T   00000876+0000001247          1400 CD7160               2BZ
167711000167711               167711               170213DT     1400+00000+DT0000010004+0000010004+000000000+000001402+0000011400+0000000006+I20000000000+0000011400+Z
167711001167711903-005000     167711006002580020007SWT CT MALLOW FISH 120g0000001000+00001314+00000+0001T   00001314+0000001254          1400 CD7150               2BZ
167711002167711077-000303     167711006001023593757GIFT-BAG PAPER MED     0000001000+00001578+00000+0001T   00001578+0000001254          1400 CD7112               2BZ
167711003167711024-000111     167711006001023504197ROASTER NON-STICK OBLNG0000001000+00007016+00000+0001T   00007016+0000001254          1400 CD7300               2BZ
167711004167711112-116069     167711006009681820277TCS CARRIER BAG JUMBO  0000002000+00000048+00000+0001T   00000048+0000001254          1400 CD7090               2BZ
167712000167712               167712               170213DT     1400+00000+DT0000001578+0000001578+000000000+000000221+0000001790+0000000009+I20000000000+0000001790+Z
167712001167712018-000127     167712006001023380289MUG OCC STRAIGHT LOVE  0000001000+00001578+00000+0001T   00001753+0006471258          1400 CD7515               2BZ
167713000167713               167713               170213DT     1400+00000+DT0000001753+0000001753+000000000+000000246+0000001990+0000000009+I20000000000+0000001990+Z
167713001167713200-003024     167713006001023657299REFUSE BAGS 20PCE BLACK0000001000+00001753+00000+0001T   00001753+0000001258          1400 CD7214               2BZ
167714000167714               167714               170213DT     1400+00000+DT0000023724+0000023724+000000000+000003324+0000027048+0000000000+I40000027048+0000000000+Z
167714001167714105-001020     167714006001023898159LUNCH BOX 13.5x6.5cm   0000001000+00002192+00000+0001T   00002192+0000001301          1400 CD7210               2BZ
167714002167714030-003700     167714006003000416790WALL DEC WDN ASTD WHT  0000001000+00002630+00000+0001T   00002630+0000001301          1400 CD7505               2BZ
167714003167714002-000097     167714006001023489784CAN-OPENER             0000001000+00006139+00000+0001T   00006139+0000001301          1400 CD7300               2BZ
167714004167714159-003625     167714006001023902061TOILET-BRUSH W/STD 40cm0000001000+00005262+00000+0001T   00005262+0000001301          1400 CD7200               2BZ
167714005167714030-004025     167714006003000416912WALL DEC KEY-RACK      0000001000+00006139+00000+0001T   00006139+0000001301          1400 CD7505               2BZ
167714006167714903-000598     167714006003000607990SWEET CRAYON 15cm J/B  0000001000+00001314+00000+0001T   00001314+0000001301          1400 CD7150               2BZ
167714007167714112-116069     167714006009681820277TCS CARRIER BAG JUMBO  0000001000+00000048+00000+0001T   00000048+0000001301          1400 CD7090               2BZ
167715000167715               167715               170213DT     1400+00000+DT0000007629+0000007629+000000000+000001069+0000008690+0000000008+I20000000000+0000008690+Z
167715001167715077-000299     167715006003000395576G/BAG 32x25cm LRG LOVE 0000001000+00001490+00000+0001T   00001490+0000001302          1400 CD7112               2BZ
167715002167715018-050000     167715006003000412679MUG OCC LOVE TWIN BEAR 0000001000+00006139+00000+0001T   00006139+0000001302          1400 CD7515               2BZ
167716000167716               167716               170213DT     1400+00000+DT0000008283+0000008283+000000000+000001162+0000009440+0000000005+I20000000000+0000009440+Z
167716001167716047-001337-H   167716006001023429971INS-TAPE 20m BLACK     0000001000+00001753+00000+0001T   00001753+0000001404          1400 CD7880               2BZ
167716002167716159-000150-B   167716006003000058440SOAP-BOX PL ASSORTED   0000001000+00000832+00000+0001T   00000832+0000001404          1400 CD7200               2BZ
167716003167716467-000001     167716006002923008280BEACH BUCKET PL 17x16cm0000001000+00001578+00000+0001T   00001578+0000001404          1400 CD7785               2BZ
167716004167716051-006100     167716006003000267170GARDEN KID TOOLSET 3PCE0000001000+00002630+00000+0001T   00002630+0000001404          1400 CD7820               2BZ
167716005167716159-000114     167716006001023507945SHOWER CAP PVC ASSTD   0000001000+00001490+00000+0001T   00001490+0000001404          1400 CD7200               2BZ
167717000167717               167717               170213DT     1400+00000+DT0000001753+0000001753+000000000+000000246+0000001990+0000000009+I20000000000+0000001990+Z
167717001167717080-000113     167717006003000237449CARD&ENVLPE - LOVE     0000001000+00001753+00000+0001T   00001753+0000001410          1400 CD7112               2BZ
167718000167718               167718               170213DT     1400+00000+DT0000007850+0000007850+000000000+000001100+0000008950+0000000000+I40000008950+0000000000+Z
167718001167718016-006515-A   167718006003000461707S/JAR GLS W/HANDLE 500 0000001000+00001578+00000+0001T   00001753+0008191412          1400 CD7300               2BZ
167718002167718004-071206     167718006003000605156USB CABLE CHARGER      0000001000+00003507+00000+0001T   00003507+0000001412          1400 CD7310               2BZ
167718003167718108-005005     167718006003000667451TRAY PL 29x21cm RECT   0000001000+00001753+00000+0001T   00001753+0000001412          1400 CD7210               2BZ
167718004167718107-002127     167718006003000697793BASIN PL 30cm SQUARE   0000001000+00000964+00000+0001T   00000964+0000001412          1400 CD7210               2BZ
167718005167718112-116069     167718006009681820277TCS CARRIER BAG JUMBO  0000001000+00000048+00000+0001T   00000048+0000001412          1400 CD7090               2BZ
167719000167719               167719               170213DT     1400+00000+DT0000007048+0000007048+000000000+000000988+0000008030+0000000006+I20000000000+0000008030+Z
167719001167719030-000030-A   167719006003000249305PLAQUE GLASS LOVE      0000001000+00003069+00000+0001T   00003069+0000001415          1400 CD7505               2BZ
167719002167719077-000289     167719006001023901996GIFT BOX 20x25x11cm    0000001000+00001753+00000+0001T   00001753+0000001415          1400 CD7112               2BZ
167719003167719018-000127     167719006001023380289MUG OCC STRAIGHT LOVE  0000001000+00001578+00000+0001T   00001753+0006471415          1400 CD7515               2BZ
167719004167719304-001011     167719006001023806727FLWR ROSE RED W/BEAR   0000001000+00000613+00000+0001T   00000788+0006471415          1400 CD7510               2BZ
167719005167719112-116038     167719006009681820246TCS CARRIER BAG MIDI   0000001000+00000035+00000+0001T   00000035+0000001415          1400 CD7090               2BZ
167720000167720               167720               170213DT     1400+00000+DT0000014471+0000014471+000000000+000002026+0000016497+0000000000+I40000016497+0000000000+Z
167720001167720497-068615     167720000078257686155H/PUMP HIGH-O/PUT 48cm 0000001000+00013157+00000+0001T   00013157+0000001417          1400 CD7787               2BZ
167720002167720903-000194     167720006009826020616SWT CHOC RP LOLLY 25G  0000001000+00001314+00000+0001T   00001314+0000001417          1400 CD7150               2BZ
167721000167721               167721               170213DT     1400+00000+DT0000008800+0000008800+000000000+000001235+0000010030+0000000005+I20000000000+0000010030+Z
167721001167721009-001308     167721006001023854636MELAMINE FLOWER BOWL   0000002000+00001753+00000+0001T   00001753+0000001423          1400 CD7210               2BZ
167721002167721009-001708     167721006001023807731SALAD BOWL 15cm SWIRL  0000002000+00001753+00000+0001T   00001753+0000001423          1400 CD7210               2BZ
167721003167721009-001709     167721006001023807762SALAD BOWL 23cm SWIRL  0000001000+00001753+00000+0001T   00001753+0000001423          1400 CD7210               2BZ
167721004167721112-116038     167721006009681820246TCS CARRIER BAG MIDI   0000001000+00000035+00000+0001T   00000035+0000001423          1400 CD7090               2BZ
167722000167722               167722               170213DT     1400+00000+DT0000001753+0000001753+000000000+000000246+0000001990+0000000009+I20000000000+0000001990+Z
167722001167722466-000200     167722006001023621665HULA-HOOP     ASSTD    0000001000+00001753+00000+0001T   00001753+0000001428          1400 CD7785               2BZ
167723000167723               167723               170213DT     1400+00000+DT0000004206+0000004206+000000000+000000589+0000004790+0000000005+I20000000000+0000004790+Z
167723001167723077-000310     167723006001023608635GIFT-BAG 18X23CM GLOSS 0000001000+00001314+00000+0001T   00001314+0000001432          1400 CD7112               2BZ
167723002167723018-000127     167723006001023380289MUG OCC STRAIGHT LOVE  0000001000+00001578+00000+0001T   00001753+0006471432          1400 CD7515               2BZ
167723003167723080-000114     167723006003000246472CARD&ENV LOVE-MUSICAL  0000001000+00001314+00000+0001T   00001753+0008151432          1400 CD7112               2BZ
167724000167724               167724               170213DT     1400+00000+DT0000001753+0000001753+000000000+000000246+0000001990+0000000009+I20000000000+0000001990+Z
167724001167724007-000029     167724006003000577736PRICE FLASH 17x11cm    0000001000+00001753+00000+0001T   00001753+0000001443          1400 CD7130               2BZ
167725000167725               167725               170213DT     1400+00000+DT0000007629+0000007629+000000000+000001069+0000008690+0000000008+I20000000000+0000008690+Z
167725001167725369-000823     167725006001023796035BABY PULL ALONG S/SORT 0000001000+00006139+00000+0001T   00006139+0000001444          1400 CD7745               2BZ
167725002167725034-078833     167725006001023857491SIGN BABY-ON-BOARD     0000001000+00001490+00000+0001T   00001490+0000001444          1400 CD7215               2BZ
167726000167726               167726               170213DT     1400+00000+DT0000004385+0000004385+000000000+000000614+0000004999+0000000000+I40000004999+0000000000+Z
167726001167726104-000135     167726006001023846419WASTEBIN SWING-LID 28cm0000001000+00004385+00000+0001T   00004385+0000001450          1400 CD7210               2BZ
167727000167727               167727               170213DT     1400+00000+DT0000003507+0000003507+000000000+000000491+0000003990+0000000008+I20000000000+0000003990+Z
167727001167727079-000342     167727006001023913326FELT-TIP PENS 24PCE    0000001000+00003507+00000+0001T   00003507+0000001451          1400 CD7130               2BZ
167728000167728               167728               170213DT     1400+00000+DT0000000035+0000000035+000000000+000000005+0000000040+0000000000+I20000000000+0000000040+Z
167728001167728112-116038     167728006009681820246TCS CARRIER BAG MIDI   0000001000+00000035+00000+0001T   00000035+0000001451          1400 CD7090               2BZ
167729000167729               167729               170213DT     1400+00000+DT0000001314+0000001314+000000000+000000184+0000001490+0000000008+I20000000000+0000001490+Z
167729001167729006-000166-D   167729006003000516490BALLOONS LRG 6PC RED   0000001000+00001314+00000+0001T   00001314+0000001456          1400 CD7131               2BZ
167730000167730               167730               170213DT     1400+00000+DT0000008800+0000008800+000000000+000001235+0000010030+0000000005+I20000000000+0000010030+Z
167730001167730024-091100     167730006001023914224BAKING-CUPS PAPER 100PC0000005000+00001753+00000+0001T   00001753+0000001457          1400 CD7300               2BZ
167730002167730112-116038     167730006009681820246TCS CARRIER BAG MIDI   0000001000+00000035+00000+0001T   00000035+0000001457          1400 CD7090               2BZ
167731000167731               167731               170213DT     1400+00000+DT0000001227+0000001227+000000000+000000172+0000001390+0000000009+I20000000000+0000001390+Z
167731001167731033-000013     167731006001023567215PILL-REMINDER PL       0000001000+00001227+00000+0001T   00001227+0000001457          1400 CD7200               2BZ
167732000167732               167732               170213DT     1400+00000+DT0000005262+0000005262+000000000+000000737+0000005990+0000000009+I20000000000+0000005990+Z
167732001167732018-019000     167732006003000557288MUG OCC. LOVE JUMBO    0000001000+00005262+00000+0001T   00005262+0000001508          1400 CD7515               2BZ
167733000167733               167733               170213DT     1400+00000+DT0000000560+0000000560+000000000+000000079+0000000630+0000000009+I20000000000+0000000630+Z
167733001167733903-000155     167733006009803374435SWT LOLLY I LUV U HEART0000001000+00000525+00000+0001T   00000525+0000001510          1400 CD7150               2BZ
167733002167733112-116038     167733006009681820246TCS CARRIER BAG MIDI   0000001000+00000035+00000+0001T   00000035+0000001510          1400 CD7090               2BZ
167734000167734               167734               170213DT     1400+00000+DT0000008540+0000008540+000000000+000001196+0000009730+0000000006+I20000000000+0000009730+Z
167734001167734018-030000     167734006003000421060MUG OCCASIONS LOVE 2PCE0000001000+00004385+00000+0001T   00004385+0000001512          1400 CD7515               2BZ
167734002167734018-000136     167734006001023659026MUG OCC LOVE W/PLUSH   0000001000+00003507+00000+0001T   00003507+0000001512          1400 CD7515               2BZ
167734003167734304-001011     167734006001023806727FLWR ROSE RED W/BEAR   0000001000+00000613+00000+0001T   00000788+0006471512          1400 CD7510               2BZ
167734004167734112-116038     167734006009681820246TCS CARRIER BAG MIDI   0000001000+00000035+00000+0001T   00000035+0000001512          1400 CD7090               2BZ
167735000167735               167735               170213DT     1400+00000+DT0000026094+0000026094+000000000+000003654+0000029740+0000000008+I20000000000+0000029740+Z
167735001167735005-005403     167735000694202400074SOCKETSET MET 69PCE    0000001000+00017542+00000+0001T   00017542+0000001514          1400 CD7840               2BZ
167735002167735079-006494     167735006003000159864GLITTER GLUE 5PCE 11cm 0000001000+00001490+00000+0001T   00001490+0000001514          1400 CD7130               2BZ
167735003167735007-000324     16773500600968585864125 SHEETS BRIGHTS MARLI0000001000+00003507+00000+0001T   00003507+0000001514          1400 CD7130               2BZ
167735004167735030-004070     167735006003000674381P/WDN SIGN 12X20CM ASS 0000001000+00003507+00000+0001T   00003507+0000001514          1400 CD7505               2BZ
167735005167735112-116069     167735006009681820277TCS CARRIER BAG JUMBO  0000001000+00000048+00000+0001T   00000048+0000001514          1400 CD7090               2BZ
167736000167736               167736               170213DT     1400+00000+DT0000006312+0000006312+000000000+000000885+0000007197+0000000000+I40000007197+0000000000+Z
167736001167736903-000090     167736006009826020821SWT GS CHOCO COINS 60g 0000003000+00002104+00000+0001T   00002104+0000001516          1400 CD7150               2BZ
167737000167737               167737               170213DT     1400+00000+DT0000002192+0000002192+000000000+000000307+0000002490+0000000009+I20000000000+0000002490+Z
167737001167737077-000918     167737006003000413690G/WRAP 700mmx2m PATTERN0000001000+00002192+00000+0001T   00002192+0000001520          1400 CD7112               2BZ
167738000167738               167738               170213DT     1400+00000+DT0000007891+0000007891+000000000+000001106+0000008997+0000000000+I40000008997+0000000000+Z
167738001167738080-000133-A   167738006003000647019MINI VALENTINES CARD   0000001000+00000437+00000+0001T   00000437+0000001521          1400 CD7112               2BZ
167738002167738089-000017     167738006003000331147KEYCHAIN MOM POLY BOX  0000001000+00004385+00000+0001T   00004385+0000001521          1400 CD7205               2BZ
167738003167738089-060027     167738006003000245871KEY-CHAIN HEART 6X6cm  0000001000+00003069+00000+0001T   00003069+0000001521          1400 CD7205               2BZ
167739000167739               167739               170213DT     1400+00000+DT0000007890+0000007890+000000000+000001107+0000008990+0000000007+I20000000000+0000008990+Z
167739001167739366-006103     167739006001023786944DRESS UP FACE PAINT SET0000003000+00002630+00000+0001T   00002630+0000001526          1400 CD7131               2BZ
167740000167740               167740               170213DT     1400+00000+DT0000025314+0000025314+000000000+000003548+0000028862+0000000000+I40000028862+0000000000+Z
167740001167740041-000300     167740006003000421862EVERYDAY BATH SET 3pc  0000001000+00005262+00000+0001T   00005262+0000001531          1400 CD7200               2BZ
167740002167740079-013032-E   167740006003000389766ART+CRAFT COL/PAPER    0000001000+00002630+00000+0001T   00002630+0000001531          1400 CD7130               2BZ
167740003167740079-013032-B   167740006003000389445MIXED SHAPES           0000001000+00001753+00000+0001T   00001753+0000001531          1400 CD7130               2BZ
167740004167740079-013099     167740006003000081875ART+CRAFT EYES ASSTD   0000001000+00001753+00000+0001T   00001753+0000001531          1400 CD7130               2BZ
167740005167740071-081091     167740006001151010287STAED/GENKEM ALL-STICK 0000001000+00001227+00000+0001T   00001227+0000001531          1400 CD7130               2BZ
167740006167740263-000419     167740006003000599349LOOP TRACK RACER P/SET 0000001000+00012279+00000+0001T   00012279+0000001531          1400 CD7710               2BZ
167740007167740079-009700-I   167740006003000546114PAPER SIRIO A4 LILAC   0000001000+00000306+00000+0001T   00000306+0000001531          1400 CD7130               2BZ
167740008167740112-116053     167740006006438002399TCS CARRIER BAG 38L    0000001000+00000069+00000+0001T   00000069+0000001531          1400 CD7090               2BZ
167740009167740112-116038     167740006009681820246TCS CARRIER BAG MIDI   0000001000+00000035+00000+0001T   00000035+0000001531          1400 CD7090               2BZ
167741000167741               167741               170213DT     1400+00000+DT0000004470+0000004470+000000000+000000627+0000005090+0000000007+I20000000000+0000005090+Z
167741001167741304-000717     167741006001023712578FLWRS STAR 51CM     (F)0000003000+00001490+00000+0001T   00001490+0000001532          1400 CD7510               2BZ
167742000167742               167742               170213DT     1400+00000+DT0000005610+0000005610+000000000+000000787+0000006390+0000000007+I20000000000+0000006390+Z
167742001167742018-000129     167742006001023403353MUG OCC. LOVE V-SHAPE  0000001000+00002630+00000+0001T   00002630+0000001536          1400 CD7515               2BZ
167742002167742080-000113     167742006003000237449CARD&ENVLPE - LOVE     0000001000+00001753+00000+0001T   00001753+0000001536          1400 CD7112               2BZ
167742003167742077-000318     167742006001023609755GIFT-BAG 18X23CM E/D AN0000001000+00001227+00000+0001T   00001227+0000001536          1400 CD7112               2BZ
167743000167743               167743               170213DT     1400+00000+DT0000003945+0000003945+000000000+000000553+0000004490+0000000008+I20000000000+0000004490+Z
167743001167743030-000030-A   167743006003000249305PLAQUE GLASS LOVE      0000001000+00003069+00000+0001T   00003069+0000001537          1400 CD7505               2BZ
167743002167743077-000302     167743008010410010195GIFT-BAG 18X23CM E/D   0000001000+00000876+00000+0001T   00000876+0000001537          1400 CD7112               2BZ
167744000167744               167744               170213DT     1400+00000+DT0000009471+0000009471+000000000+000001326+0000010797+0000000000+I40000010797+0000000000+Z
167744001167744047-000011-H   167744006001023879943M/PLUG 6-WAY-SURGE     0000001000+00008771+00000+0001T   00008771+0000001538          1400 CD7880               2BZ
167744002167744007-000406     167744006009635830659NATURE-STUDY-BOOK 72PG 0000001000+00000700+00000+0001T   00000700+0000001538          1400 CD7130               2BZ
167745000167745               167745               170213DT     1400+00000+DT0000007488+0000007488+000000000+000001049+0000008537+0000000000+I40000008537+0000000000+Z
167745001167745903-000194     167745006009826020616SWT CHOC RP LOLLY 25G  0000001000+00001314+00000+0001T   00001314+0000001542          1400 CD7150               2BZ
167745002167745018-005007     167745006003000515516MUG OCC. LOVE W/HEARTS 0000001000+00006139+00000+0001T   00006139+0000001542          1400 CD7515               2BZ
167745003167745112-116038     167745006009681820246TCS CARRIER BAG MIDI   0000001000+00000035+00000+0001T   00000035+0000001542          1400 CD7090               2BZ
167746000167746               167746               170213DT     1400+00000+DT0000001490+0000001490+000000000+000000209+0000001690+0000000009+I20000000000+0000001690+Z
167746001167746077-000299     167746006003000395576G/BAG 32x25cm LRG LOVE 0000001000+00001490+00000+0001T   00001490+0000001542          1400 CD7112               2BZ
167747000167747               167747               170213DT     1400+00000+DT0000015395+0000015395+000000000+000002157+0000017552+0000000000+I40000017552+0000000000+Z
167747001167747112-116069     167747006009681820277TCS CARRIER BAG JUMBO  0000001000+00000048+00000+0001T   00000048+0000001556          1400 CD7090               2BZ
167747002167747077-000299     167747006003000395576G/BAG 32x25cm LRG LOVE 0000001000+00001490+00000+0001T   00001490+0000001556          1400 CD7112               2BZ
167747003167747368-000111     167747006001023780812PLUSH BEAR/DOG 29CM    0000001000+00012279+00000+0001T   00012279+0000001556          1400 CD7745               2BZ
167747004167747018-000127     167747006001023380289MUG OCC STRAIGHT LOVE  0000001000+00001578+00000+0001T   00001753+0006471556          1400 CD7515               2BZ
167748000167748               167748               170213DT     1400+00000+DT0000005260+0000005260+000000000+000000738+0000005990+0000000008+I20000000000+0000005990+Z
167748001167748077-000005-B   167748006003000326617PAPER TISSUE PATTERN   0000001000+00002630+00000+0001T   00002630+0000001557          1400 CD7112               2BZ
167748002167748077-000456     167748006003000285549G/BAG METALLIC JMB EMB 0000001000+00002630+00000+0001T   00002630+0000001557          1400 CD7112               2BZ
167749000167749               167749               170213DT     1400+00000+DT0000026479+0000026479+000000000+000003712+0000030191+0000000000+I40000030191+0000000000+Z
167749001167749077-000324     167749006001023677594GIFT-BAG 33X45CM E/D FL0000001000+00001753+00000+0001T   00001753+0000001605          1400 CD7112               2BZ
167749002167749567-011924     167749009785000189825BOOK ACTIVITY DOODLE   0000001000+00001753+00000+0001T   00001753+0000001605          1400 CD7757               2BZ
167749003167749077-000304     167749006001023483232GIFT-BAG 25X32CM E/DAY 0000001000+00001490+00000+0001T   00001490+0000001605          1400 CD7112               2BZ
167749004167749077-000301     167749008010410010188BAG LRG 25X32CM B/DAY  0000001000+00001753+00000+0001T   00001753+0000001605          1400 CD7112               2BZ
167749005167749366-000105     167749006001023866103DRESSUP WINGS AND SKIRT0000001000+00007016+00000+0001T   00007016+0000001605          1400 CD7131               2BZ
167749006167749567-010552     167749000000003339916FACES STICKER BOOKS    0000001000+00001753+00000+0001T   00001753+0000001605          1400 CD7757               2BZ
167749007167749567-010561     167749009780755492442BOOK STICKER FUN PINK  0000001000+00001753+00000+0001T   00002630+0008131605          1400 CD7757               2BZ
167749008167749265-000381     167749006001023827852BATTERY OPERATED BOAT  0000001000+00005262+00000+0001T   00005262+0000001605          1400 CD7710               2BZ
167749009167749403-000501     167749006003000247677M/BANK PL POSTBOX 20CM 0000001000+00003946+00000+0001T   00003946+0000001605          1400 CD7510               2BZ
167750000167750               167750               170213DT     1400+00000+DT0000005260+0000005260+000000000+000000738+0000005990+0000000008+I20000000000+0000005990+Z
167750001167750077-000475     167750006003000640775GIFT-BAG DESIGNER MED  0000002000+00002630+00000+0001T   00002630+0000001606          1400 CD7112               2BZ
167751000167751               167751               170213DT     1400+00000+DT0000012850+0000012850+000000000+000001801+0000014651+0000000000+I40000014651+0000000000+Z
167751001167751024-000038     167751006001023477026MEASURING-JUG 1L (4CUP)0000001000+00001753+00000+0001T   00001753+0000001614          1400 CD7300               2BZ
167751002167751140-006004     167751006001023628077FLY-SWATTER RUBBER     0000002000+00001139+00000+0001T   00001139+0000001614          1400 CD7830               2BZ
167751003167751464-000635     167751006001023830821GAME BINGO LOTTOMACHINE0000001000+00008771+00000+0001T   00008771+0000001614          1400 CD7785               2BZ
167751004167751112-116069     167751006009681820277TCS CARRIER BAG JUMBO  0000001000+00000048+00000+0001T   00000048+0000001614          1400 CD7090               2BZ
167752000167752               167752               170213DT     1400+00000+DT0000005699+0000005699+000000000+000000798+0000006490+0000000007+I20000000000+0000006490+Z
167752001167752024-091102     167752006003453000010BAKING-CUP PAPER 50PC  0000001000+00002192+00000+0001T   00002192+0000001635          1400 CD7300               2BZ
167752002167752065-000053     167752006001023756879MUSICAL HAMMER         0000001000+00003507+00000+0001T   00003507+0000001635          1400 CD7745               2BZ
167753000167753               167753               170213DT     1400+00000+DT0000003592+0000003592+000000000+000000504+0000004090+0000000006+I20000000000+0000004090+Z
167753001167753083-000055     167753006003000003853LIGHTER ELCTRNC REFILBL0000003000+00000613+00000+0001T   00000613+0000001636          1400 CD7315               2BZ
167753002167753037-000004     167753006001023763679ASHTRAY PL TUB 8X11CM  0000001000+00001753+00000+0001T   00002192+0008191636          1400 CD7515               2BZ
167754000167754               167754               170213DT     1400+00000+DT0000002840+0000002840+000000000+000000398+0000003238+0000000000+I40000003238+0000000000+Z
167754001167754566-001234     167754006003000217793STICKERS LASER ASSTD   0000001000+00001578+00000+0001T   00001578+0000001638          1400 CD7130               2BZ
167754002167754079-001006     167754006003000677979ART+CRAFT STENCIL      0000001000+00001227+00000+0001T   00001227+0000001638          1400 CD7130               2BZ
167754003167754112-116038     167754006009681820246TCS CARRIER BAG MIDI   0000001000+00000035+00000+0001T   00000035+0000001638          1400 CD7090               2BZ
167755000167755               167755               170213DT     1400+00000+DT0000004385+0000004385+000000000+000000614+0000004990+0000000009+I20000000000+0000004990+Z
167755001167755368-000049     167755006003000536955PLUSH BEAR 15cm LOVE   0000001000+00004385+00000+0001T   00004385+0000001641          1400 CD7745               2BZ
167756000167756               167756               170213DT     1400+00000+DT0000018115+0000018115+000000000+000002539+0000020654+0000000000+I40000020654+0000000000+Z
167756001167756077-000270     167756006003000395453GIFT-BAG PPR JMB 33X45 0000001000+00002630+00000+0001T   00002630+0000001644          1400 CD7112               2BZ
167756002167756080-000127     167756006003000424351VALENTINES DAY 36x24CM 0000001000+00002192+00000+0001T   00002192+0000001644          1400 CD7112               2BZ
167756003167756301-085007     167756006003000673698ORN OCC. LOVE S/PLAQUE 0000001000+00007893+00000+0001T   00007893+0000001644          1400 CD7505               2BZ
167756004167756018-019000     167756006003000557288MUG OCC. LOVE JUMBO    0000001000+00005262+00000+0001T   00005262+0000001644          1400 CD7515               2BZ
167756005167756112-116053     167756006006438002399TCS CARRIER BAG 38L    0000002000+00000069+00000+0001T   00000069+0000001644          1400 CD7090               2BZ
167757000167757               167757               170213DT     1400+00000+DT0000009692+0000009692+000000000+000001358+0000011050+0000000000+I40000011050+0000000000+Z
167757001167757018-000129     167757006001023403353MUG OCC. LOVE V-SHAPE  0000001000+00002630+00000+0001T   00002630+0000001650          1400 CD7515               2BZ
167757002167757018-000130     167757006001023867537MUG OCC LOVE MINI+HEART0000001000+00003507+00000+0001T   00003507+0000001650          1400 CD7515               2BZ
167757003167757112-116069     167757006009681820277TCS CARRIER BAG JUMBO  0000001000+00000048+00000+0001T   00000048+0000001650          1400 CD7090               2BZ
167757004167757012-000002     167757006003000152766MICRO PLATE-COVER 26X9 0000001000+00003507+00000+0001T   00003507+0000001650          1400 CD7300               2BZ
167758000167758               167758               170213DT     1400+00000+DT0000014957+0000014957+000000000+000002095+0000017052+0000000000+I40000017052+0000000000+Z
167758001167758088-000080     167758006003000622863DRAWER LINERS SCENTED  0000001000+00005262+00000+0001T   00005262+0000001652          1400 CD7212               2BZ
167758002167758162-096643     167758006001492966434#TAG NK CHUNKY BEADED  0000001000+00005262+00000+0001T   00005262+0000001652          1400 CD7160               2BZ
167758003167758162-010773     167758006001492107738#TAG LDS WRISTWEAR     0000001000+00004385+00000+0001T   00004385+0000001652          1400 CD7160               2BZ
167758004167758112-116069     167758006009681820277TCS CARRIER BAG JUMBO  0000001000+00000048+00000+0001T   00000048+0000001652          1400 CD7090               2BZ
167759000167759               167759               170213DT     1400+00000+DT0000005294+0000005294+000000000+000000743+0000006030+0000000007+I20000000000+0000006030+Z
167759001167759028-000014     167759006001334001316ICE-BRICK SOLID MEDIUM 0000003000+00001753+00000+0001T   00001753+0000001653          1400 CD7305               2BZ
167759002167759112-116038     167759006009681820246TCS CARRIER BAG MIDI   0000001000+00000035+00000+0001T   00000035+0000001653          1400 CD7090               2BZ
167760000167760               167760               170213DT     1400+00000+DT0000006575+0000006575+000000000+000000921+0000007496+0000000000+I40000007496+0000000000+Z
167760001167760077-000310     167760006001023608635GIFT-BAG 18X23CM GLOSS 0000001000+00001314+00000+0001T   00001314+0000001655          1400 CD7112               2BZ
167760002167760903-000123     167760006925925909280SWEET GS MINI MALLOWS  0000001000+00000876+00000+0001T   00000876+0000001655          1400 CD7150               2BZ
167760003167760039-080944     167760006001023758897C/PILLAR RND WHT 12X7CM0000001000+00004385+00000+0001T   00004385+0000001655          1400 CD7510               2BZ
167761000167761               167761               170213DT     1400+00000+DT0000002191+0000002191+000000000+000000307+0000002490+0000000008+I20000000000+0000002490+Z
167761001167761903-000849     167761008692806080083SWT SNACK BISCUIT 70g  0000001000+00000613+00000+0001T   00000613+0000001701          1400 CD7150               2BZ
167761002167761077-000303     167761006001023593757GIFT-BAG PAPER MED     0000001000+00001578+00000+0001T   00001578+0000001701          1400 CD7112               2BZ
167762000167762               167762               170213DT     1400+00000+DT0000004821+0000004821+000000000+000000675+0000005496+0000000000+I40000005496+0000000000+Z
167762001167762018-000136     167762006001023659026MUG OCC LOVE W/PLUSH   0000001000+00003507+00000+0001T   00003507+0000001703          1400 CD7515               2BZ
167762002167762077-000310     167762006001023608635GIFT-BAG 18X23CM GLOSS 0000001000+00001314+00000+0001T   00001314+0000001703          1400 CD7112               2BZ
167763000167763               167763               170213DT     1400+00000+DT0000007049+0000007049+000000000+000000987+0000008030+0000000006+I20000000000+0000008030+Z
167763001167763018-000136     167763006001023659026MUG OCC LOVE W/PLUSH   0000001000+00003507+00000+0001T   00003507+0000001704          1400 CD7515               2BZ
167763002167763018-005009     167763006001023725608MUG W/PLUSH-BEAR LOVE  0000001000+00003507+00000+0001T   00003507+0000001704          1400 CD7515               2BZ
167763003167763112-116038     167763006009681820246TCS CARRIER BAG MIDI   0000001000+00000035+00000+0001T   00000035+0000001704          1400 CD7090               2BZ
167764000167764               167764               170213DT     1400+00000+DT0000020902+0000020902+000000000+000002929+0000023831+0000000000+I40000023831+0000000000+Z
167764001167764112-116038     167764006009681820246TCS CARRIER BAG MIDI   0000001000+00000035+00000+0001T   00000035+0000001709          1400 CD7090               2BZ
167764002167764567-014135     167764006003000560264BOOK COLOURING 240P    0000001000+00003069+00000+0001T   00003507+0008191709          1400 CD7757               2BZ
167764003167764566-000043     167764006003000142590SCRAPBOOK KIT 20PCE    0000001000+00001139+00000+0001T   00001578+0008151709          1400 CD7130               2BZ
167764004167764567-011422     167764006003000641222BK COLOURING THERAPY   0000001000+00003507+00000+0001T   00003507+0000001709          1400 CD7757               2BZ
167764005167764200-003024     167764006001023657299REFUSE BAGS 20PCE BLACK0000001000+00001753+00000+0001T   00001753+0000001709          1400 CD7214               2BZ
167764006167764079-000336     167764006003000670758SUPER FINE MARKER PENS 0000001000+00005262+00000+0001T   00005262+0000001709          1400 CD7130               2BZ
167764007167764162-093172     167764006001492931722#TAG SILV/BLK CHAIN    0000001000+00002630+00000+0001T   00005262+0008161709          1400 CD7160               2BZ
167764008167764162-096637     167764006001492966373#TAG CLIPS ASSORTED    0000001000+00003507+00000+0001T   00003507+0000001709          1400 CD7160               2BZ
A17021300                                          08430448DTSLAVE 2                       EK42IC
A17021301                                          08504052DTSLAVE 2                       CD72IC
A17021302                                          09184496DTSLAVE 2                       CD72IC
M17021301                              GLADWYN     DTATT:GLADWYN                                     LAST TRANS SLAVE 2 167764                       GANSBAAI DT
M17021302                              SHIEHAAM    DTATT:SHIEHAAM                                    Z-READ     R7535.42                             CASH       R3823.10                             DC         R00.00                               CC         R3712.32                             GANSBAAI DT
M17021391                              CASH        DTSLAVE 2                       Z-REPORT No.   644TOTAL (Sales - Refunds)           7535.42       CASH TO BE BANKED                 3823.10       DEBIT CARDS                          0.00       CREDIT CARDS                      3712.32       Z-READING                         7535.42       AIRTIME DEBIT CARD SALES             0.00       AIRTIME CARD SALES                   0.00       OVERS/UNDERS                         0.00       AIRTIME CASH SALES                   0.00       GIFT CARDS                           0.00       GIFT CARD CASH SALES                 0.00       T O T A L  CASH PAYOUTS              0.00                                                                                                                                                                                                                                                                                                                                                      Z
M17021392                              CASH        DTABSENT                                                                                                                                                                                          ANNUAL LEAVE                                                                                                                                                                                    DAY OFF                                                                                                                                                                                         COMMENTS          Z-READ  R7535.42                                BALANCE                                                                                                                                                                                                                                                                                                                      Z
Y17021300                                          DT00000000663104+000097
ZDT17021319303 SLAVE 2      SALES DATA                     NEXT INVOICE NO.  167765 0644
T094765466-000005                                          1702131435200000032ICSLAVE 2
X DT Slave 2 First invoice 167668 170213 Last invoice 167764 170213 Next invoice 167765 Total number of records 000000351 clbackup completed 19:30:42
