913230000913230               913230               170213DW     1400+00000+DW0000002016+0000002016+000000000+000000283+0000002290+0000000009+I20000000000+0000002290+Z
913230001913230050-000362-Z   913230006001023475275PADLOCK IRON 25mm CARD 0000001000+00002016+00000+0001T   00002016+0000000904          1400 ED2855               1DZ
913231000913231               913231               170213DW     1400+00000+DW0000004031+0000004031+000000000+000000565+0000004596+0000000000+I40000004596+0000000000+Z
913231001913231903-000194     913231006009826020616SWT CHOC RP LOLLY 25G  0000001000+00001314+00000+0001T   00001314+0000000920          1400 3IC150               1AZ
913231002913231903-000843     913231008693029031067SWT GUMMY JELAXY 80G   0000001000+00000964+00000+0001T   00000964+0000000920          1400 3IC150               1AZ
913231003913231903-000215     913231006002099001214SWT GS MALLOW TWIST PAC0000001000+00001753+00000+0001T   00001753+0000000920          1400 3IC150               1AZ
913232000913232               913232               170213DW     1400+00000+DW0000012580+0000012580+000000000+000001765+0000014345+0000000000+I40000014345+0000000000+Z
913232001913232079-009702-G   913232008427973060787PAPER SIRIO A2 FUSHIA  0000001000+00001051+00000+0001T   00001051+0000000943          1400 3IC130               1AZ
913232002913232079-009702-D   913232008427973059354PAPER SIRIO A2 RED COL 0000001000+00001051+00000+0001T   00001051+0000000943          1400 3IC130               1AZ
913232003913232112-116069     913232006003000535064TCS CARRIER BAG JUMBO  0000001000+00000048+00000+0001T   00000048+0000000943          1400 3IC090               1AZ
913232004913232038-001800     913232006003000623303DOILIE PAPER HRT 24PC  0000001000+00003507+00000+0001T   00003507+0000000943          1400 3IC300               1AZ
913232005913232903-000843     913232008693029031067SWT GUMMY JELAXY 80G   0000002000+00000964+00000+0001T   00000964+0000000943          1400 3IC150               1AZ
913232006913232039-001023     913232006003000466337CANDLE TEA-LITE METALIC0000001000+00001753+00000+0001T   00001753+0000000943          1400 3IC510               1AZ
913232007913232080-000139     913232006003000611690CARD & ENV MINI SET 6PC0000001000+00002192+00000+0001T   00002192+0000000943          1400 3IC112               1AZ
913232008913232903-000155     913232006009803374435SWT LOLLY I LUV U HEART0000002000+00000525+00000+0001T   00000525+0000000943          1400 3IC150               1AZ
913233000913233               913233               170213DW     1400+00000+DW0000011532+0000011532+000000000+000001618+0000013150+0000000000+I40000013150+0000000000+Z
913233001913233072-020350     913233006001023598035PET DOG/CAT BOWL DOUBLE0000001000+00002630+00000+0001T   00002630+0000000949          1400 3IC870               1AZ
913233002913233072-000350     913233006003000304882PET CAT TOY PLUSH W/BEL0000001000+00003069+00000+0001T   00003069+0000000949          1400 3IC870               1AZ
913233003913233072-020274     913233006001023858443LITTER-LINERS-BAGS 10PC0000001000+00002630+00000+0001T   00002630+0000000949          1400 3IC870               1AZ
913233004913233072-020276     913233006001023858474CAT LITTER-PAN PL      0000001000+00002630+00000+0001T   00002630+0000000949          1400 3IC870               1AZ
913233005913233903-000155     913233006009803374435SWT LOLLY I LUV U HEART0000001000+00000525+00000+0001T   00000525+0000000949          1400 3IC150               1AZ
913233006913233112-116069     913233006003000535064TCS CARRIER BAG JUMBO  0000001000+00000048+00000+0001T   00000048+0000000949          1400 3IC090               1AZ
913234000913234               913234               170213DW     1400+00000+DW0000004385+0000004385+000000000+000000614+0000004990+0000000009+I20000000000+0000004990+Z
913234001913234036-000501     913234006003000417407HOOK HANGER CHROME     0000001000+00004385+00000+0001T   00004385+0000000959          1400 3IC212               1AZ
913235000913235               913235               170213DW     1400+00000+DW0000004385+0000004385+000000000+000000614+0000004999+0000000000+I40000004999+0000000000+Z
913235001913235304-001117     913235006001023786630FLOWER CROSS 50CM      0000001000+00004385+00000+0001T   00004385+0000001003          1400 3IC510               1AZ
913236000913236               913236               170213DW     1400+00000+DW0000014063+0000014063+000000000+000001969+0000016030+0000000002+I20000000000+0000016030+Z
913236001913236567-075490     913236009780799376470BK NOVEL ROMANCE AFR   0000001000+00003507+00000+0001T   00003507+0000001010          1400 3IC757               1AZ
913236002913236567-075490     913236009780799376272BK NOVEL ROMANCE AFR   0000001000+00003507+00000+0001T   00003507+0000001010          1400 3IC757               1AZ
913236003913236567-075490     913236009780799372298BK NOVEL ROMANCE AFR   0000001000+00003507+00000+0001T   00003507+0000001010          1400 3IC757               1AZ
913236004913236567-075490     913236009780799375145BK NOVEL ROMANCE AFR   0000001000+00003507+00000+0001T   00003507+0000001010          1400 3IC757               1AZ
913236005913236112-116038     913236006003000534906TCS CARRIER BAG MIDI   0000001000+00000035+00000+0001T   00000035+0000001010          1400 3IC090               1AZ
913237000913237               913237               170213DW     1400+00000+DW0000004364+0000004364+000000000+000000617+0000004981+0000000000+I40000004981+0000000000+Z
913237001913237304-001011     913237006001023806727FLWR ROSE RED W/BEAR   0000002000+00000613+00000+0001T   00000788+0006471103          1400 AE6510               1DZ
913237002913237903-000155     913237006009803374435SWT LOLLY I LUV U HEART0000002000+00000525+00000+0001T   00000525+0000001103          1400 AE6150               1DZ
913237003913237112-116038     913237006009681820246TCS CARRIER BAG MIDI   0000001000+00000035+00000+0001T   00000035+0000001103          1400 AE6090               1DZ
913237004913237903-000183     913237006003000451043SWT LB HEART LOLLY     0000003000+00000393+00000+0001T   00000393+0000001103          1400 AE6150               1DZ
913237005913237080-000133-A   913237006003000647019MINI VALENTINES CARD   0000002000+00000437+00000+0001T   00000437+0000001103          1400 AE6112               1DZ
913238000913238               913238               170213DW     1400+00000+DW0000008622+0000008622+000000000+000001211+0000009830+0000000003+I20000000000+0000009830+Z
913238001913238077-000311     913238006001023608666GIFT-BAG 11X14CM GLOSS 0000001000+00000613+00000+0001T   00000613+0000001105          1400 AE6112               1DZ
913238002913238080-000133-A   913238006003000647019MINI VALENTINES CARD   0000001000+00000437+00000+0001T   00000437+0000001105          1400 AE6112               1DZ
913238003913238903-000155     913238006009803374435SWT LOLLY I LUV U HEART0000001000+00000525+00000+0001T   00000525+0000001105          1400 AE6150               1DZ
913238004913238494-059230     913238000078257592302INTEX SWIN RING 51cm   0000001000+00001753+00000+0001T   00001753+0000001105          1400 AE6787               1DZ
913238005913238466-000200     913238006001023621665HULA-HOOP     ASSTD    0000003000+00001753+00000+0001T   00001753+0000001105          1400 AE6785               1DZ
913238006913238112-116038     913238006009681820246TCS CARRIER BAG MIDI   0000001000+00000035+00000+0001T   00000035+0000001105          1400 AE6090               1DZ
913239000913239               913239               170213DW     1400+00000+DW0000006169+0000006169+000000000+000000865+0000007030+0000000004+I20000000000+0000007030+Z
913239001913239078-009100     913239006008741002349ALL-CLEAR GLUE 25ml CRD0000001000+00001314+00000+0001T   00001314+0000001107          1400 AE6810               1AZ
913239002913239159-000040     913239006001023767691HOOK-HANGER 4PC S/S    0000001000+00002630+00000+0001T   00002630+0000001107          1400 AE6200               1AZ
913239003913239251-000001     913239006001023487681TAPE DBL-SIDE 18x1000mm0000001000+00001314+00000+0001T   00001314+0000001107          1400 AE6810               1AZ
913239004913239071-000677     913239006001023110282THUMB-TACKS            0000001000+00000876+00000+0001T   00000876+0000001107          1400 AE6130               1AZ
913239005913239112-116038     913239006003000534906TCS CARRIER BAG MIDI   0000001000+00000035+00000+0001T   00000035+0000001107          1400 AE6090               1AZ
913240000913240               913240               170213DW     1400+00000+DW0000007925+0000007925+000000000+000001111+0000009036+0000000000+I40000009036+0000000000+Z
913240001913240018-005009     913240006001023725608MUG W/PLUSH-BEAR LOVE  0000001000+00003507+00000+0001T   00003507+0000001109          1400 AE6515               1AZ
913240002913240174-000011     913240006001023523778W/MACHINE-BAG 50x40cm  0000001000+00001753+00000+0001T   00001753+0000001109          1400 AE6205               1AZ
913240003913240079-001002     913240006003000448715CANVAS A4 WOOD MOUNTED 0000001000+00002630+00000+0001T   00002630+0000001109          1400 AE6130               1AZ
913240004913240112-116038     913240006003000534906TCS CARRIER BAG MIDI   0000001000+00000035+00000+0001T   00000035+0000001109          1400 AE6090               1AZ
913241000913241               913241               170213DW     1400+00000+DW0000002192+0000002192+000000000+000000307+0000002490+0000000009+I20000000000+0000002490+Z
913241001913241018-000170     913241006001023775528MUG OCC. LOVE 2PC MINI 0000001000+00002192+00000+0001T   00002192+0000001112          1400 AE6515               1DZ
913242000913242               913242               170213DW     1400+00000+DW0000001753+0000001753+000000000+000000246+0000001990+0000000009+I20000000000+0000001990+Z
913242001913242174-000010     913242006001023462381W/MACHINE-BAG 25x40cm  0000001000+00001753+00000+0001T   00001753+0000001113          1400 AE6205               1DZ
913243000913243               913243               170213DW     1400+00000+DW0000006312+0000006312+000000000+000000884+0000007196+0000000000+I40000007196+0000000000+Z
913243001913243079-105603     913243006003000230907ART+CRAFT STAMP ROUND  0000004000+00001578+00000+0001T   00001578+0000001115          1400 AE6130               1DZ
913244000913244               913244               170213DW     1400+00000+DW0000002980+0000002980+000000000+000000418+0000003390+0000000008+I20000000000+0000003390+Z
913244001913244566-001118     913244006003000682171STICKERS CELL PHONE    0000001000+00001753+00000+0001T   00001753+0000001115          1400 AE6130               1DZ
913244002913244007-000206     913244006009635830215X/PAD 80-SHEETS PUNCHED0000001000+00001227+00000+0001T   00001227+0000001115          1400 AE6130               1DZ
913245000913245               913245               170213DW     1400+00000+DW0000001753+0000001753+000000000+000000246+0000001990+0000000009+I20000000000+0000001990+Z
913245001913245072-000327     913245006001023858504CAT-COLLAR+BELL        0000001000+00001753+00000+0001T   00001753+0000001116          1400 AE6870               1DZ
913246000913246               913246               170213DW     1400+00000+DW0000007450+0000007450+000000000+000001046+0000008496+0000000000+I40000008496+0000000000+Z
913246001913246083-000049     913246004891035200024CIG-LIGHTER DISPOSABLE 0000001000+00000437+00000+0001T   00000437+0000001231          1400 AE6315               1DZ
913246002913246080-000113     913246006003000237449CARD&ENVLPE - LOVE     0000001000+00001753+00000+0001T   00001753+0000001231          1400 AE6112               1DZ
913246003913246206-000620     913246006003000631797BACK SCRATCHER EXTEND  0000002000+00002630+00000+0001T   00002630+0000001231          1400 AE6321               1DZ
913247000913247               913247               170213DW     1400+00000+DW0000005608+0000005608+000000000+000000786+0000006394+0000000000+I40000006394+0000000000+Z
913247001913247006-000166-D   913247006003000516490BALLOONS LRG 6PC RED   0000001000+00001314+00000+0001T   00001314+0000001246          1400 AE6131               1DZ
913247002913247006-000166-H   913247006003000608096BALLOONS HELIUM 6PC WHT0000001000+00001314+00000+0001T   00001314+0000001246          1400 AE6131               1DZ
913247003913247077-000245     913247006001023759214GIFT-RIBBON METALLICx2 0000001000+00001227+00000+0001T   00001227+0000001246          1400 AE6112               1DZ
913247004913247006-000120     913247006001023346889BALLOONS 10PC MIX COL  0000001000+00001753+00000+0001T   00001753+0000001246          1400 AE6131               1DZ
913248000913248               913248               170213DW     1400+00000+DW0000005260+0000005260+000000000+000000738+0000005998+0000000000+I40000005998+0000000000+Z
913248001913248002-012267     913248006001023110886SERVING-TONGS SCISSORS 0000001000+00002630+00000+0001T   00002630+0000001303          1400 AE6300               1DZ
913248002913248103-000060     913248006001023795489BAMBOO BASKET RECT     0000001000+00002630+00000+0001T   00002630+0000001303          1400 AE6300               1DZ
913249000913249               913249               170213DW     1400+00000+DW0000007487+0000007487+000000000+000001049+0000008530+0000000006+I20000000000+0000008530+Z
913249001913249034-091340     913249006001023754370BABY-BIB PRINT MUM/DAD 0000001000+00003069+00000+0001T   00003069+0000001305          1400 AE6215               1DZ
913249002913249150-004032-H   913249006003000645367BASIN-PLUG 2PCE BLACK  0000001000+00000876+00000+0001T   00000876+0000001305          1400 AE6810               1DZ
913249003913249024-000168-A   913249006003000674794TINPLATE LOAF PAN      0000001000+00003507+00000+0001T   00003507+0000001305          1400 AE6300               1DZ
913249004913249112-116038     913249006009681820246TCS CARRIER BAG MIDI   0000001000+00000035+00000+0001T   00000035+0000001305          1400 AE6090               1DZ
913250000913250               913250               170213DW     1400+00000+DW0000001050+0000001050+000000000+000000148+0000001190+0000000008+I20000000000+0000001190+Z
913250001913250903-000077     913250006939873501687SWT GS MAGIC ROCK FRUIT0000002000+00000525+00000+0001T   00000525+0000001306          1400 AE6150               1DZ
913251000913251               913251               170213DW     1400+00000+DW0000002455+0000002455+000000000+000000344+0000002790+0000000009+I20000000000+0000002790+Z
913251001913251562-000009     913251000490810407180PLAY MODELLING CARDED  0000001000+00002455+00000+0001T   00002455+0000001312          1400 AE6755               1DZ
913252000913252               913252               170213DW     1400+00000+DW0000010553+0000010553+000000000+000001481+0000012030+0000000004+I20000000000+0000012030+Z
913252001913252006-000800     913252006001023902801HAT CABARET 14x18cm    0000006000+00001753+00000+0001T   00001753+0000001315          1400 AE6131               1DZ
913252002913252112-116038     913252006009681820246TCS CARRIER BAG MIDI   0000001000+00000035+00000+0001T   00000035+0000001315          1400 AE6090               1DZ
913253000913253               913253               170213DW     1400+00000+DW0000000525+0000000525+000000000+000000074+0000000590+0000000009+I20000000000+0000000590+Z
913253001913253903-000155     913253006009803374435SWT LOLLY I LUV U HEART0000001000+00000525+00000+0001T   00000525+0000001315          1400 AE6150               1DZ
913254000913254               913254               170213DW     1400+00000+DW0000009328+0000009328+000000000+000001308+0000010636+0000000000+I40000010636+0000000000+Z
913254001913254046-000012-A   913254006003000208296BATTERIES H/POWER SZ:AA0000001000+00002192+00000+0001T   00002192+0000001317          1400 AE6312               1DZ
913254002913254007-000657     913254006003000081905STATIONERY SET GIRL    0000001000+00005262+00000+0001T   00005262+0000001317          1400 AE6130               1DZ
913254003913254007-000610     913254006009685851017DIARY HOMEWORK UNDATED 0000001000+00001402+00000+0001T   00001402+0000001317          1400 AE6130               1DZ
913254004913254112-116038     913254006009681820246TCS CARRIER BAG MIDI   0000001000+00000035+00000+0001T   00000035+0000001317          1400 AE6090               1DZ
913254005913254080-000133-A   913254006003000647019MINI VALENTINES CARD   0000001000+00000437+00000+0001T   00000437+0000001317          1400 AE6112               1DZ
913255000913255               913255               170213DW     1400+00000+DW0000001490+0000001490+000000000+000000209+0000001690+0000000009+I20000000000+0000001690+Z
913255001913255077-000299     913255006003000395576G/BAG 32x25cm LRG LOVE 0000001000+00001490+00000+0001T   00001490+0000001319          1400 AE6112               1DZ
913256000913256               913256               170213DW     1400+00000+DW0000004385+0000004385+000000000+000000614+0000004990+0000000009+I20000000000+0000004990+Z
913256001913256366-000356     913256006003000006908DRESS UP WINGS FAIRY   0000001000+00004385+00000+0001T   00004385+0000001321          1400 AE6131               1DZ
913257000913257               913257               170213DW     1400+00000+DW0000002192+0000002192+000000000+000000307+0000002490+0000000009+I20000000000+0000002490+Z
913257001913257031-000878-C   913257006001023799043P/FRAME 20x25cm PL-SLID0000001000+00002192+00000+0001T   00002192+0000001327          1400 AE6510               1AZ
913258000913258               913258               170213DW     1400+00000+DW0000002192+0000002192+000000000+000000307+0000002490+0000000009+I20000000000+0000002490+Z
913258001913258077-000309-A   913258006003000671007GIFT-BAG HOLOGRAM JMB  0000001000+00002192+00000+0001T   00002192+0000001328          1400 AE6112               1AZ
913259000913259               913259               170213DW     1400+00000+DW0000007893+0000007893+000000000+000001106+0000008999+0000000000+I40000008999+0000000000+Z
913259001913259206-000480     913259006003000620227MOP SHOES CHENILLE 2PC 0000001000+00007893+00000+0001T   00007893+0000001333          1400 AE6321               1DZ
913260000913260               913260               170213DW     1400+00000+DW0000007051+0000007051+000000000+000000988+0000008039+0000000000+I40000008039+0000000000+Z
913260001913260203-000006     913260006001023752789COASTER-SET 4PCE       0000001000+00007016+00000+0001T   00008771+0008191334          1400 AE6300               1DZ
913260002913260112-116038     913260006009681820246TCS CARRIER BAG MIDI   0000001000+00000035+00000+0001T   00000035+0000001334          1400 AE6090               1DZ
913261000913261               913261               170213DW     1400+00000+DW0000001050+0000001050+000000000+000000148+0000001190+0000000008+I20000000000+0000001190+Z
913261001913261903-000155     913261006009803374435SWT LOLLY I LUV U HEART0000002000+00000525+00000+0001T   00000525+0000001335          1400 AE6150               1DZ
913262000913262               913262               170213DW     1400+00000+DW0000019322+0000019322+000000000+000002708+0000022030+0000000000+I40000022030+0000000000+Z
913262001913262037-000002     913262006001023994745ASHTRAY SPIN METAL 9cm 0000002000+00003507+00000+0001T   00003507+0000001337          1400 AE6515               1DZ
913262002913262046-000014     913262006001023725387BATTERIES SIZE:AAA 4PCE0000001000+00001139+00000+0001T   00001139+0000001337          1400 AE6312               1DZ
913262003913262046-000012-VP  913262006003000537914BATTERIES H/P SIZE:AA  0000001000+00004823+00000+0001T   00004823+0000001337          1400 AE6312               1DZ
913262004913262567-011488     913262000805219343531BK COLOURING 96P MINI  0000001000+00003507+00000+0001T   00003507+0000001337          1400 AE6757               1DZ
913262005913262112-116038     913262006009681820246TCS CARRIER BAG MIDI   0000001000+00000035+00000+0001T   00000035+0000001337          1400 AE6090               1DZ
913262006913262903-000925     913262006009706300296SWT NOVELTY SURPRISE   0000002000+00001402+00000+0001T   00001402+0000001337          1400 AE6150               1DZ
913263000913263               913263               170213DW     1400+00000+DW0000003366+0000003366+000000000+000000472+0000003830+0000000008+I20000000000+0000003830+Z
913263001913263039-000114     913263006001023524058CANDLE T/LITE RED 3.5CM0000001000+00001753+00000+0001T   00001753+0000001338          1400 AE6510               1DZ
913263002913263077-000303     913263006001023593757GIFT-BAG PAPER MED     0000001000+00001578+00000+0001T   00001578+0000001338          1400 AE6112               1DZ
913263003913263112-116038     913263006009681820246TCS CARRIER BAG MIDI   0000001000+00000035+00000+0001T   00000035+0000001338          1400 AE6090               1DZ
913264000913264               913264               170213DW     1400+00000+DW0000007927+0000007927+000000000+000001110+0000009030+0000000007+I20000000000+0000009030+Z
913264001913264018-005009     913264006001023725608MUG W/PLUSH-BEAR LOVE  0000001000+00003507+00000+0001T   00003507+0000001340          1400 AE6515               1DZ
913264002913264006-000190     913264006003000685530BALLOONS LOVE 81x91cm  0000001000+00004385+00000+0001T   00004385+0000001340          1400 AE6131               1DZ
913264003913264112-116038     913264006009681820246TCS CARRIER BAG MIDI   0000001000+00000035+00000+0001T   00000035+0000001340          1400 AE6090               1DZ
913265000913265               913265               170213DW     1400+00000+DW0000002454+0000002454+000000000+000000344+0000002790+0000000008+I20000000000+0000002790+Z
913265001913265033-000013     913265006001023567215PILL-REMINDER PL       0000002000+00001227+00000+0001T   00001227+0000001342          1400 AE6200               1DZ
913266000913266               913266               170213DW     1400+00000+DW0000010117+0000010117+000000000+000001418+0000011530+0000000005+I20000000000+0000011530+Z
913266001913266112-116038     913266006009681820246TCS CARRIER BAG MIDI   0000001000+00000035+00000+0001T   00000035+0000001344          1400 AE6090               1DZ
913266002913266174-000011     913266006001023523778W/MACHINE-BAG 50x40cm  0000001000+00001753+00000+0001T   00001753+0000001344          1400 AE6205               1DZ
913266003913266046-000012     913266006904708013062BATTERIES AA  CARD-OF-40000001000+00001314+00000+0001T   00001314+0000001344          1400 AE6312               1DZ
913266004913266088-000008     913266006003000623181AIR FRESHENER GEL ASSTD0000001000+00002630+00000+0001T   00002630+0000001344          1400 AE6212               1DZ
913266005913266486-001012     913266006001023820907CLOCK ALARM SQR 10X12CM0000001000+00004385+00000+0001T   00004385+0000001344          1400 AE6510               1DZ
913267000913267               913267               170213DW     1400+00000+DW0000001314+0000001314+000000000+000000184+0000001490+0000000008+I20000000000+0000001490+Z
913267001913267077-000385     913267006003000275366G/BAG GLITTER 18x23CM  0000001000+00001314+00000+0001T   00001314+0000001346          1400 AE6112               1DZ
913268000913268               913268               170213DW     1400+00000+DW0000002192+0000002192+000000000+000000307+0000002490+0000000009+I20000000000+0000002490+Z
913268001913268080-000127     913268006003000424351VALENTINES DAY 36x24CM 0000001000+00002192+00000+0001T   00002192+0000001353          1400 AE6112               1DZ
913269000913269               913269               170213DW     1400+00000+DW0000004385+0000004385+000000000+000000614+0000004990+0000000009+I20000000000+0000004990+Z
913269001913269263-091238     913269006003000298471VEHICLE MILITARY TRUCK 0000001000+00004385+00000+0001T   00004385+0000001358          1400 AE6710               1DZ
913270000913270               913270               170213DW     1400+00000+DW0000008506+0000008506+000000000+000001192+0000009690+0000000008+I20000000000+0000009690+Z
913270001913270077-000305     913270006003000395422GIFT-BAG WINE 10X35CM  0000001000+00001490+00000+0001T   00001490+0000001403          1400 AE6112               1DZ
913270002913270041-093000     913270006003000320882B/GIFT SET 4PC B/RANGE 0000001000+00007016+00000+0001T   00007016+0000001403          1400 AE6200               1DZ
913271000913271               913271               170213DW     1400+00000+DW0000002192+0000002192+000000000+000000307+0000002490+0000000009+I20000000000+0000002490+Z
913271001913271206-000245     913271006003000680818BOTTLE CLEANER PLASTIC 0000001000+00002192+00000+0001T   00002192+0000001415          1400 AE6321               1DZ
913272000913272               913272               170213DW     1400+00000+DW0000001578+0000001578+000000000+000000221+0000001790+0000000009+I20000000000+0000001790+Z
913272001913272077-000303     913272006001023593757GIFT-BAG PAPER MED     0000001000+00001578+00000+0001T   00001578+0000001416          1400 AE6112               1DZ
913273000913273               913273               170213DW     1400+00000+DW0000003507+0000003507+000000000+000000491+0000003998+0000000000+I40000003998+0000000000+Z
913273001913273018-005009     913273006001023725608MUG W/PLUSH-BEAR LOVE  0000001000+00003507+00000+0001T   00003507+0000001428          1400 AE6515               1DZ
913274000913274               913274               170213DW     1400+00000+DW0000018901+0000018901+000000000+000002648+0000021540+0000000009+I20000000000+0000021540+Z
913274001913274104-000027     913274006003000571284BASKET RECTANGULAR     0000001000+00003507+00000+0001T   00003507+0000001430          1400 AE6210               1DZ
913274002913274104-000010     913274006001023507822BASKET 30x23cm RECT.   0000001000+00001753+00000+0001T   00001753+0000001430          1400 AE6210               1DZ
913274003913274020-000142     913274006003000223138KNIFE-SET 3PCE UTILITY 0000001000+00003069+00000+0001T   00003069+0000001430          1400 AE6300               1DZ
913274004913274104-000060     913274006003000632350BASKET PL 33x23x15cm   0000002000+00005262+00000+0001T   00005262+0000001430          1400 AE6210               1DZ
913274005913274112-116069     913274006003000535064TCS CARRIER BAG JUMBO  0000001000+00000048+00000+0001T   00000048+0000001430          1400 AE6090               1DZ
913275000913275               913275               170213DW     1400+00000+DW0000000525+0000000525+000000000+000000074+0000000599+0000000000+I40000000599+0000000000+Z
913275001913275903-000155     913275006009803374435SWT LOLLY I LUV U HEART0000001000+00000525+00000+0001T   00000525+0000001432          1400 AE6150               1DZ
913276000913276               913276               170213DW     1400+00000+DW0000001400+0000001400+000000000+000000196+0000001590+0000000006+I20000000000+0000001590+Z
913276001913276018-000177     913276006001023797513MUG MINI LOVE ASSTD    0000002000+00000700+00000+0001T   00000700+0000001503          1400 3IC515               1AZ
913277000913277               913277               170213DW     1400+00000+DW0000007015+0000007015+000000000+000000983+0000007990+0000000008+I20000000000+0000007990+Z
913277001913277082-007587     913277006003000654338SUNGLASS DESIGNER ASST 0000001000+00004385+00000+0001T   00004385+0000001504          1400 3IC160               1AZ
913277002913277056-065303     913277006001023821041SUN-SHIELD 2PCE ANIMAL 0000001000+00002630+00000+0001T   00002630+0000001504          1400 3IC860               1AZ
913278000913278               913278               170213DW     1400+00000+DW0000002240+0000002240+000000000+000000314+0000002554+0000000000+I40000002554+0000000000+Z
913278001913278080-000127     913278006003000424351VALENTINES DAY 36x24CM 0000001000+00002192+00000+0001T   00002192+0000001531          1400 3IC112               1AZ
913278002913278112-116069     913278006003000535064TCS CARRIER BAG JUMBO  0000001000+00000048+00000+0001T   00000048+0000001531          1400 3IC090               1AZ
913279000913279               913279               170213DW     1400+00000+DW0000007102+0000007102+000000000+000000995+0000008090+0000000007+I20000000000+0000008090+Z
913279001913279162-095026     913279006001492950266#TAG KIDS NK&WR B/FLY  0000001000+00004385+00000+0001T   00004385+0000001532          1400 3IC160               1AZ
913279002913279079-000341     913279006920705495519FELT-TIP PENS 12PCE    0000001000+00001753+00000+0001T   00001753+0000001532          1400 3IC130               1AZ
913279003913279007-000204     913279006009635835272EXAM-PAD 60SHT PUNCHED 0000001000+00000964+00000+0001T   00000964+0000001532          1400 3IC130               1AZ
913280000913280               913280               170213DW     1400+00000+DW0000002539+0000002539+000000000+000000357+0000002896+0000000000+I40000002896+0000000000+Z
913280001913280028-000795     913280006001023812063SKEWERS 10cm 100PCE 3mm0000001000+00000964+00000+0001T   00000964+0000001534          1400 3IC305               1AZ
913280002913280903-000155     913280006009803374435SWT LOLLY I LUV U HEART0000003000+00000525+00000+0001T   00000525+0000001534          1400 3IC150               1AZ
913281000913281               913281               170213DW     1400+00000+DW0000004385+0000004385+000000000+000000614+0000004990+0000000009+I20000000000+0000004990+Z
913281001913281004-071211     913281006003000625130MOBILE SCREEN ENLARGER 0000001000+00004385+00000+0001T   00004385+0000001555          1400 AE6310               1DZ
913282000913282               913282               170213DW     1400+00000+DW0000005876+0000005876+000000000+000000823+0000006690+0000000009+I20000000000+0000006690+Z
913282001913282050-000264-Z   913282006001023777072PADLOCK BRS 38mm CARDED0000001000+00005876+00000+0001T   00005876+0000001559          1400 AE6855               1DZ
913283000913283               913283               170213DW     1400+00000+DW0000003945+0000003945+000000000+000000553+0000004498+0000000000+I40000004498+0000000000+Z
913283001913283077-000239     913283006003000160419GIFT-RIBBON ROLL PEARL 0000001000+00001753+00000+0001T   00001753+0000001603          1400 AE6112               1DZ
913283002913283016-006517     913283006003000351626S/JAR GLS CHECK 650ML  0000001000+00002192+00000+0001T   00002192+0000001603          1400 AE6300               1DZ
913284000913284               913284               170213DW     1400+00000+DW0000016313+0000016313+000000000+000002284+0000018590+0000000007+I20000000000+0000018590+Z
913284001913284031-000009     913284006003000306381P/FRAME COLLAGE HEARTS 0000001000+00013157+00000+0001T   00013157+0000001604          1400 AE6510               1DZ
913284002913284080-000124     913284006003000297733CARD & ENV VALENTINES  0000001000+00001578+00000+0001T   00001578+0000001604          1400 AE6112               1DZ
913284003913284077-000303     913284006001023593757GIFT-BAG PAPER MED     0000001000+00001578+00000+0001T   00001578+0000001604          1400 AE6112               1DZ
913285000913285               913285               170213DW     1400+00000+DW0000011358+0000011358+000000000+000001592+0000012950+0000000000+I20000000000+0000012950+Z
913285001913285018-000136     913285006001023659026MUG OCC LOVE W/PLUSH   0000001000+00003507+00000+0001T   00003507+0000001605          1400 AE6515               1DZ
913285002913285041-000300     913285006003000421862EVERYDAY BATH SET 3pc  0000001000+00005262+00000+0001T   00005262+0000001605          1400 AE6200               1DZ
913285003913285077-000309     913285006001023608604GIFT-BAG 25X32CM GLOSS 0000001000+00001753+00000+0001T   00001753+0000001605          1400 AE6112               1DZ
913285004913285077-000010-D   913285006001023123886CREPE-PAPER WHITE      0000001000+00000788+00000+0001T   00000788+0000001605          1400 AE6112               1DZ
913285005913285112-116069     913285006009681820277TCS CARRIER BAG JUMBO  0000001000+00000048+00000+0001T   00000048+0000001605          1400 AE6090               1DZ
913286000913286               913286               170213DW     1400+00000+DW0000004418+0000004418+000000000+000000620+0000005030+0000000008+I20000000000+0000005030+Z
913286001913286006-000111     913286006003000519385BALLOONS LARGE 12PCE   0000001000+00002630+00000+0001T   00002630+0000001607          1400 AE6131               1DZ
913286002913286080-000115     913286006003000237333CARD&ENVELOPE - BLANKS 0000001000+00001753+00000+0001T   00001753+0000001607          1400 AE6112               1DZ
913286003913286112-116038     913286006009681820246TCS CARRIER BAG MIDI   0000001000+00000035+00000+0001T   00000035+0000001607          1400 AE6090               1DZ
913287000913287               913287               170213DW     1400+00000+DW0000013188+0000013188+000000000+000001848+0000015036+0000000000+I40000015036+0000000000+Z
913287001913287002-000117     913287006001023110879EGG POACHERS 2PC       0000001000+00003069+00000+0001T   00003069+0000001610          1400 AE6300               1DZ
913287002913287565-000889     913287006003000626953NOVELTY SPACE BALLOONS 0000001000+00001753+00000+0001T   00001753+0000001610          1400 AE6745               1DZ
913287003913287563-000318-L   913287006003000407088SERVIETTES 33cm RED    0000001000+00002192+00000+0001T   00002192+0000001610          1400 AE6214               1DZ
913287004913287567-075497     913287009780799381658BK NOVEL ROMANCE AFR   0000001000+00006139+00000+0001T   00006139+0000001610          1400 AE6757               1DZ
913287005913287112-116038     913287006009681820246TCS CARRIER BAG MIDI   0000001000+00000035+00000+0001T   00000035+0000001610          1400 AE6090               1DZ
913288000913288               913288               170213DW     1400+00000+DW0000007454+0000007454+000000000+000001044+0000008490+0000000008+I20000000000+0000008490+Z
913288001913288072-000350     913288006003000304882PET CAT TOY PLUSH W/BEL0000001000+00003069+00000+0001T   00003069+0000001613          1400 AE6870               1DZ
913288002913288072-020299     913288006001023700957PET DOG TOY RING RUBBER0000001000+00004385+00000+0001T   00004385+0000001613          1400 AE6870               1DZ
913289000913289               913289               170213DW     1400+00000+DW0000006010+0000006010+000000000+000000842+0000006850+0000000002+I20000000000+0000006850+Z
913289001913289562-000009     913289000730589212029PLAY MODELLING CARDED  0000001000+00002455+00000+0001T   00002455+0000001621          1400 AE6755               1DZ
913289002913289267-000233     913289006001023688576PUZZLE 48pc EDUCATIONAL0000001000+00003507+00000+0001T   00003507+0000001621          1400 AE6755               1DZ
913289003913289112-116069     913289006009681820277TCS CARRIER BAG JUMBO  0000001000+00000048+00000+0001T   00000048+0000001621          1400 AE6090               1DZ
913290000913290               913290               170213DW     1400+00000+DW0000007062+0000007062+000000000+000000989+0000008051+0000000000+I40000008051+0000000000+Z
913290001913290365-005267     913290006001023584366P/SET KITCHEN BAKING PL0000001000+00003507+00000+0001T   00003507+0000001624          1400 AE6725               1DZ
913290002913290466-006141     913290006001023800459GOLF+CROQUET-SET+BALLS 0000001000+00003507+00000+0001T   00003507+0000001624          1400 AE6785               1DZ
913290003913290112-116069     913290006009681820277TCS CARRIER BAG JUMBO  0000001000+00000048+00000+0001T   00000048+0000001624          1400 AE6090               1DZ
913291000913291               913291               170213DW     1400+00000+DW0000001490+0000001490+000000000+000000209+0000001690+0000000009+I20000000000+0000001690+Z
913291001913291077-000305     913291006003000395422GIFT-BAG WINE 10X35CM  0000001000+00001490+00000+0001T   00001490+0000001624          1400 AE6112               1DZ
913292000913292               913292               170213DW     1400+00000+DW0000000525+0000000525+000000000+000000074+0000000590+0000000009+I20000000000+0000000590+Z
913292001913292903-000155     913292006009803374435SWT LOLLY I LUV U HEART0000001000+00000525+00000+0001T   00000525+0000001625          1400 AE6150               1DZ
913293000913293               913293               170213DW     1400+00000+DW0000003542+0000003542+000000000+000000496+0000004030+0000000008+I20000000000+0000004030+Z
913293001913293018-000136     913293006001023659026MUG OCC LOVE W/PLUSH   0000001000+00003507+00000+0001T   00003507+0000001630          1400 AE6515               1DZ
913293002913293112-116038     913293006009681820246TCS CARRIER BAG MIDI   0000001000+00000035+00000+0001T   00000035+0000001630          1400 AE6090               1DZ
913294000913294               913294               170213DW     1400+00000+DW0000006172+0000006172+000000000+000000865+0000007030+0000000007+I20000000000+0000007030+Z
913294001913294018-000129     913294006001023403353MUG OCC. LOVE V-SHAPE  0000001000+00002630+00000+0001T   00002630+0000001634          1400 AE6515               1DZ
913294002913294031-005853     913294006003000442416P/FRAME WDN TWIN HEARTS0000001000+00003507+00000+0001T   00003507+0000001634          1400 AE6510               1DZ
913294003913294112-116038     913294006009681820246TCS CARRIER BAG MIDI   0000001000+00000035+00000+0001T   00000035+0000001634          1400 AE6090               1DZ
913295000913295               913295               170213DW     1400+00000+DW0000002192+0000002192+000000000+000000307+0000002490+0000000009+I20000000000+0000002490+Z
913295001913295566-000359     913295006003000582709STICKER BOOK LOVE SPARK0000001000+00002192+00000+0001T   00002192+0000001635          1400 AE6130               1DZ
913296000913296               913296               170213DW     1400+00000+DW0000001226+0000001226+000000000+000000172+0000001398+0000000000+I40000001398+0000000000+Z
913296001913296077-000311     913296006001023608666GIFT-BAG 11X14CM GLOSS 0000002000+00000613+00000+0001T   00000613+0000001637          1400 AE6112               1DZ
913297000913297               913297               170213DW     1400+00000+DW0000002630-0000002630-000000000+000000369-0000003000-0000000001+I20000000000+0000003000-Z
913297001913297018-000129     913297006001023403353MUG OCC. LOVE V-SHAPE  0000001000-00002630+00000+0001T   00002630+0000001639          1400 AE65153IC            1 Z
913298000913298               913298               170213DW     1400+00000+DW0000008199+0000008199+000000000+000001150+0000009349+0000000000+I40000009349+0000000000+Z
913298001913298080-000127     913298006003000424351VALENTINES DAY 36x24CM 0000001000+00002192+00000+0001T   00002192+0000001640          1400 AE6112               1DZ
913298002913298903-000912     913298006009802868461SWT GUM TAPE HOT WHEELS0000001000+00001753+00000+0001T   00001753+0000001640          1400 AE6150               1DZ
913298003913298301-085002     913298006003000420704ORN OCC. LOVE BELL ASST0000002000+00001753+00000+0001T   00002630+0008121640          1400 AE6505               1DZ
913298004913298018-000177     913298006001023797513MUG MINI LOVE ASSTD    0000001000+00000700+00000+0001T   00000700+0000001640          1400 AE6515               1DZ
913298005913298112-116069     913298006009681820277TCS CARRIER BAG JUMBO  0000001000+00000048+00000+0001T   00000048+0000001640          1400 AE6090               1DZ
913299000913299               913299               170213DW     1400+00000+DW0000014768+0000014768+000000000+000002069+0000016837+0000000000+I40000016837+0000000000+Z
913299001913299041-093000     913299006003000320882B/GIFT SET 4PC B/RANGE 0000001000+00007016+00000+0001T   00007016+0000001642          1400 AE6200               1DZ
913299002913299077-000303     913299006001023593757GIFT-BAG PAPER MED     0000001000+00001578+00000+0001T   00001578+0000001642          1400 AE6112               1DZ
913299003913299368-000175     913299006003000270316PLUSH BEAR 4 ASSTD 18CM0000001000+00006139+00000+0001T   00006139+0000001642          1400 AE6745               1DZ
913299004913299112-116038     913299006009681820246TCS CARRIER BAG MIDI   0000001000+00000035+00000+0001T   00000035+0000001642          1400 AE6090               1DZ
913300000913300               913300               170213DW     1400+00000+DW0000002630+0000002630+000000000+000000369+0000002990+0000000009+I20000000000+0000002990+Z
913300001913300463-000366     913300006001023789136SWIM W/NOODLE 150cm    0000001000+00002630+00000+0001T   00002630+0000001643          1400 AE6785               1DZ
913301000913301               913301               170213DW     1400+00000+DW0000003506+0000003506+000000000+000000492+0000003990+0000000008+I20000000000+0000003990+Z
913301001913301565-000859     913301006001023691361SUNGLASSES GIANT       0000002000+00001753+00000+0001T   00001753+0000001645          1400 AE6745               1DZ
913302000913302               913302               170213DW     1400+00000+DW0000017542+0000017542+000000000+000002456+0000019990+0000000008+I20000000000+0000019990+Z
913302001913302264-000927     913302000090159393009MAISTO MOTORBIKE 1:18  0000002000+00008771+00000+0001T   00008771+0000001646          1400 AE6710               1DZ
913303000913303               913303               170213DW     1400+00000+DW0000002453+0000002453+000000000+000000344+0000002790+0000000007+I20000000000+0000002790+Z
913303001913303046-000014     913303006001023725387BATTERIES SIZE:AAA 4PCE0000001000+00001139+00000+0001T   00001139+0000001647          1400 AE6312               1DZ
913303002913303046-000012     913303006904708013062BATTERIES AA  CARD-OF-40000001000+00001314+00000+0001T   00001314+0000001647          1400 AE6312               1DZ
913304000913304               913304               170213DW     1400+00000+DW0000003507+0000003507+000000000+000000491+0000003990+0000000008+I20000000000+0000003990+Z
913304001913304018-005009     913304006001023725608MUG W/PLUSH-BEAR LOVE  0000001000+00003507+00000+0001T   00003507+0000001651          1400 AE6515               1DZ
913305000913305               913305               170213DW     1400+00000+DW0000008066+0000008066+000000000+000001130+0000009196+0000000000+I40000009196+0000000000+Z
913305001913305018-019000     913305006003000557288MUG OCC. LOVE JUMBO    0000001000+00005262+00000+0001T   00005262+0000001654          1400 AE6515               1DZ
913305002913305903-000095     913305006001704011495SWT SPECKLED-EGGS 100G 0000001000+00002104+00000+0001T   00002104+0000001654          1400 AE6150               1DZ
913305003913305903-000126     913305006002099003591SWT ZILLIONS MINT 50G  0000001000+00000700+00000+0001T   00000700+0000001654          1400 AE6150               1DZ
913306000913306               913306               170213DW     1400+00000+DW0000003507-0000003507-000000000+000000491-0000004000-0000000002+I20000000000+0000004000-Z
913306001913306018-005009     913306006001023725608MUG W/PLUSH-BEAR LOVE  0000001000-00003507+00000+0001T   00003507+0000001655          1400 AE65153IC            1 Z
913307000913307               913307               170213DW     1400+00000+DW0000002630+0000002630+000000000+000000369+0000002990+0000000009+I20000000000+0000002990+Z
913307001913307077-000475     913307006003000640775GIFT-BAG DESIGNER MED  0000001000+00002630+00000+0001T   00002630+0000001656          1400 AE6112               1DZ
913308000913308               913308               170213DW     1400+00000+DW0000018020+0000018020+000000000+000002525+0000020545+0000000000+I40000020545+0000000000+Z
913308001913308077-000299     913308006003000395576G/BAG 32x25cm LRG LOVE 0000001000+00001490+00000+0001T   00001490+0000001658          1400 AE6112               1DZ
913308002913308077-000303     913308006001023593757GIFT-BAG PAPER MED     0000002000+00001578+00000+0001T   00001578+0000001658          1400 AE6112               1DZ
913308003913308903-000155     913308006009803374435SWT LOLLY I LUV U HEART0000002000+00000525+00000+0001T   00000525+0000001658          1400 AE6150               1DZ
913308004913308018-000130     913308006001023867537MUG OCC LOVE MINI+HEART0000002000+00003507+00000+0001T   00003507+0000001658          1400 AE6515               1DZ
913308005913308018-019000     913308006003000557288MUG OCC. LOVE JUMBO    0000001000+00005262+00000+0001T   00005262+0000001658          1400 AE6515               1DZ
913308006913308112-116069     913308006009681820277TCS CARRIER BAG JUMBO  0000001000+00000048+00000+0001T   00000048+0000001658          1400 AE6090               1DZ
913309000913309               913309               170213DW     1400+00000+DW0000002804+0000002804+000000000+000000394+0000003198+0000000000+I40000003198+0000000000+Z
913309001913309304-001204     913309006001023737984FLOWER OCC. TEDDY/ROSES0000002000+00001402+00000+0001T   00001490+0006471705          1400 AE6510               1DZ
913310000913310               913310               170213DW     1400+00000+DW0000008377+0000008377+000000000+000001174+0000009550+0000000001+I20000000000+0000009550+Z
913310001913310018-000136     913310006001023659026MUG OCC LOVE W/PLUSH   0000001000+00003507+00000+0001T   00003507+0000001706          1400 AE6515               1DZ
913310002913310080-000127     913310006003000424351VALENTINES DAY 36x24CM 0000001000+00002192+00000+0001T   00002192+0000001706          1400 AE6112               1DZ
913310003913310077-000270     913310006003000395453GIFT-BAG PPR JMB 33X45 0000001000+00002630+00000+0001T   00002630+0000001706          1400 AE6112               1DZ
913310004913310112-116069     913310006009681820277TCS CARRIER BAG JUMBO  0000001000+00000048+00000+0001T   00000048+0000001706          1400 AE6090               1DZ
913311000913311               913311               170213DW     1400+00000+DW0000004856+0000004856+000000000+000000681+0000005537+0000000000+I40000005537+0000000000+Z
913311001913311077-000303     913311006001023593757GIFT-BAG PAPER MED     0000001000+00001578+00000+0001T   00001578+0000001709          1400 AE6112               1DZ
913311002913311077-000299     913311006003000395576G/BAG 32x25cm LRG LOVE 0000001000+00001490+00000+0001T   00001490+0000001709          1400 AE6112               1DZ
913311003913311089-000004     913311006003000137749KEY CHAIN MTL CHARMS   0000001000+00001753+00000+0001T   00001753+0000001709          1400 AE6205               1DZ
913311004913311112-116038     913311006009681820246TCS CARRIER BAG MIDI   0000001000+00000035+00000+0001T   00000035+0000001709          1400 AE6090               1DZ
913312000913312               913312               170213DW     1400+00000+DW0000004646+0000004646+000000000+000000651+0000005290+0000000007+I20000000000+0000005290+Z
913312001913312903-000087     913312006001704000161SWT SPECKLED-EGGS 50G  0000001000+00001139+00000+0001T   00001139+0000001710          1400 AE6150               1DZ
913312002913312018-005009     913312006001023725608MUG W/PLUSH-BEAR LOVE  0000001000+00003507+00000+0001T   00003507+0000001710          1400 AE6515               1DZ
913313000913313               913313               170213DW     1400+00000+DW0000001490+0000001490+000000000+000000209+0000001690+0000000009+I20000000000+0000001690+Z
913313001913313024-000100     913313006003000173310CAKE TESTER            0000001000+00001490+00000+0001T   00001490+0000001710          1400 AE6300               1DZ
913314000913314               913314               170213DW     1400+00000+DW0000000525+0000000525+000000000+000000074+0000000590+0000000009+I20000000000+0000000590+Z
913314001913314903-000155     913314006009803374435SWT LOLLY I LUV U HEART0000001000+00000525+00000+0001T   00000525+0000001712          1400 AE6150               1DZ
913315000913315               913315               170213DW     1400+00000+DW0000001575+0000001575+000000000+000000222+0000001797+0000000000+I40000001797+0000000000+Z
913315001913315903-000155     913315006009803374435SWT LOLLY I LUV U HEART0000003000+00000525+00000+0001T   00000525+0000001714          1400 AE6150               1DZ
913316000913316               913316               170213DW     1400+00000+DW0000001490+0000001490+000000000+000000209+0000001690+0000000009+I20000000000+0000001690+Z
913316001913316077-000299     913316006003000395576G/BAG 32x25cm LRG LOVE 0000001000+00001490+00000+0001T   00001490+0000001715          1400 AE6112               1DZ
913317000913317               913317               170213DW     1400+00000+DW0000016819+0000016819+000000000+000002363+0000019182+0000000000+I40000019182+0000000000+Z
913317001913317104-000010     913317006001023507822BASKET 30x23cm RECT.   0000004000+00001753+00000+0001T   00001753+0000001720          1400 AE6210               1DZ
913317002913317108-005007     913317006003000323159TRAY PL 40cm ROUND     0000001000+00003507+00000+0001T   00003507+0000001720          1400 AE6210               1DZ
913317003913317903-000155     913317006009803374435SWT LOLLY I LUV U HEART0000012000+00000525+00000+0001T   00000525+0000001720          1400 AE6150               1DZ
913318000913318               913318               170213DW     1400+00000+DW0000003332+0000003332+000000000+000000467+0000003790+0000000009+I20000000000+0000003790+Z
913318001913318203-006000     913318006001023994493ICE-BALL IN-BAG    16PC0000001000+00003332+00000+0001T   00003332+0000001720          1400 AE6300               1DZ
913319000913319               913319               170213DW     1400+00000+DW0000005435+0000005435+000000000+000000762+0000006197+0000000000+I40000006197+0000000000+Z
913319001913319563-000318-L   913319006003000407088SERVIETTES 33cm RED    0000001000+00002192+00000+0001T   00002192+0000001724          1400 AE6214               1DZ
913319002913319039-000108     913319006001023524034TEA-LITE CANDLES 8PCE  0000001000+00001490+00000+0001T   00001490+0000001724          1400 AE65101IC            1DZ
913319003913319039-001023     913319006003000466337CANDLE TEA-LITE METALIC0000001000+00001753+00000+0001T   00001753+0000001724          1400 AE6510               1DZ
913320000913320               913320               170213DW     1400+00000+DW0000001578+0000001578+000000000+000000221+0000001790+0000000009+I20000000000+0000001790+Z
913320001913320077-000303     913320006001023593757GIFT-BAG PAPER MED     0000001000+00001578+00000+0001T   00001578+0000001725          1400 AE6112               1DZ
913321000913321               913321               170213DW     1400+00000+DW0000002227+0000002227+000000000+000000312+0000002530+0000000009+I20000000000+0000002530+Z
913321001913321027-000023     913321006003000666881SCRUBBING BRUSH 20cm   0000001000+00002192+00000+0001T   00002192+0000001728          1400 AE6212               1DZ
913321002913321112-116038     913321006009681820246TCS CARRIER BAG MIDI   0000001000+00000035+00000+0001T   00000035+0000001728          1400 AE6090               1DZ
913322000913322               913322               170213DW     1400+00000+DW0000003507+0000003507+000000000+000000491+0000003990+0000000008+I20000000000+0000003990+Z
913322001913322031-000923     913322006001023669933P/FRAME BLK W/WORDS    0000001000+00003507+00000+0001T   00003507+0000001729          1400 AE6510               1DZ
913323000913323               913323               170213DW     1400+00000+DW0000001522+0000001522+000000000+000000215+0000001737+0000000000+I40000001737+0000000000+Z
913323001913323080-000133-A   913323006003000647019MINI VALENTINES CARD   0000001000+00000437+00000+0001T   00000437+0000001732          1400 AE6112               1DZ
913323002913323903-000155     913323006009803374435SWT LOLLY I LUV U HEART0000002000+00000525+00000+0001T   00000525+0000001732          1400 AE6150               1DZ
913323003913323112-116038     913323006009681820246TCS CARRIER BAG MIDI   0000001000+00000035+00000+0001T   00000035+0000001732          1400 AE6090               1DZ
913324000913324               913324               170213DW     1400+00000+DW0000005260+0000005260+000000000+000000737+0000005990+0000000007+I20000000000+0000005990+Z
913324001913324903-000619     913324006003000672455SWT LOLLY STR/BRRY 140G0000001000+00001753+00000+0001T   00001753+0000001732          1400 AE6150               1DZ
913324002913324018-005009     913324006001023725608MUG W/PLUSH-BEAR LOVE  0000001000+00003507+00000+0001T   00003507+0000001732          1400 AE6515               1DZ
913325000913325               913325               170213DW     1400+00000+DW0000002192+0000002192+000000000+000000307+0000002490+0000000009+I20000000000+0000002490+Z
913325001913325077-000509     913325006003000082582GIFT-BAG SML 6PCE ORG P0000001000+00002192+00000+0001T   00002192+0000001733          1400 AE6112               1DZ
913326000913326               913326               170213DW     1400+00000+DW0000001753+0000001753+000000000+000000246+0000001999+0000000000+I40000001999+0000000000+Z
913326001913326046-002032-PK2 913326004897006175063BATTERIES CR-2032  2PCE0000001000+00001753+00000+0001T   00001753+0000001735          1400 AE6312               1DZ
913327000913327               913327               170213DW     1400+00000+DW0000001752+0000001752+000000000+000000246+0000001990+0000000008+I20000000000+0000001990+Z
913327001913327077-000151     913327006008766114676GIFT-WRAP C/PHANE ASSTD0000002000+00000876+00000+0001T   00000876+0000001735          1400 AE6112               1DZ
913328000913328               913328               170213DW     1400+00000+DW0000000877-0000000877-000000000+000000122-0000001000-0000000001+I20000000000+0000001000-Z
913328001913328018-005009     913328006001023725608MUG W/PLUSH-BEAR LOVE  0000001000-00003507+00000+0001T   00003507+0000001737          1400 AE65151IC            1 Z
913328002913328018-000129     913328006001023403353MUG OCC. LOVE V-SHAPE  0000001000+00002630+00000+0001T   00002630+0000001737          1400 AE6515               1 Z
913329000913329               913329               170213DW     1400+00000+DW0000002665+0000002665+000000000+000000374+0000003039+0000000000+I40000003039+0000000000+Z
913329001913329031-086219     913329006001023761729P/FRAME 9x13cm CURVED  0000001000+00002630+00000+0001T   00002630+0000001747          1400 AE6510               1DZ
913329002913329112-116038     913329006009681820246TCS CARRIER BAG MIDI   0000001000+00000035+00000+0001T   00000035+0000001747          1400 AE6090               1DZ
913330000913330               913330               170213DW     1400+00000+DW0000002664+0000002664+000000000+000000374+0000003030+0000000008+I20000000000+0000003030+Z
913330001913330077-000239     913330006003000160419GIFT-RIBBON ROLL PEARL 0000001000+00001753+00000+0001T   00001753+0000001806          1400 AE6112               1DZ
913330002913330077-000151     913330006008766114676GIFT-WRAP C/PHANE ASSTD0000001000+00000876+00000+0001T   00000876+0000001806          1400 AE6112               1DZ
913330003913330112-116038     913330006009681820246TCS CARRIER BAG MIDI   0000001000+00000035+00000+0001T   00000035+0000001806          1400 AE6090               1DZ
913331000913331               913331               170213DW     1400+00000+DW0000007312+0000007312+000000000+000001025+0000008337+0000000000+I40000008337+0000000000+Z
913331001913331080-000124     913331006003000297733CARD & ENV VALENTINES  0000001000+00001578+00000+0001T   00001578+0000001808          1400 AE6112               1DZ
913331002913331031-005918     913331006003000580453P/FRAME PL PLAIN 10X15 0000001000+00002630+00000+0001T   00002630+0000001808          1400 AE6510               1DZ
913331003913331031-000864-A   913331006001023798350P/FRAME MAHOGANY 10X15 0000001000+00003069+00000+0001T   00003069+0000001808          1400 AE6510               1DZ
913331004913331112-116038     913331006009681820246TCS CARRIER BAG MIDI   0000001000+00000035+00000+0001T   00000035+0000001808          1400 AE6090               1DZ
913332000913332               913332               170213DW     1400+00000+DW0000009996+0000009996+000000000+000001400+0000011396+0000000000+I40000011396+0000000000+Z
913332001913332267-006052     913332000047754164862PUZZLE LICENSED MINIONS0000001000+00004385+00000+0001T   00004385+0000001815          1400 AE6755               1DZ
913332002913332006-000190     913332006003000685530BALLOONS LOVE 81x91cm  0000001000+00004385+00000+0001T   00004385+0000001815          1400 AE6131               1DZ
913332003913332006-001000     913332006003000093779HELIUM BALLOON FILL    0000002000+00000613+00000+0001T   00000613+0000001815          1400 AE6131               1DZ
913333000913333               913333               170213DW     1400+00000+DW0000008977+0000008977+000000000+000001258+0000010235+0000000000+I40000010235+0000000000+Z
913333001913333368-000049     913333006003000536955PLUSH BEAR 15cm LOVE   0000001000+00004385+00000+0001T   00004385+0000001819          1400 AE6745               1DZ
913333002913333018-000136     913333006001023659026MUG OCC LOVE W/PLUSH   0000001000+00003507+00000+0001T   00003507+0000001819          1400 AE6515               1DZ
913333003913333903-000155     913333006009803374435SWT LOLLY I LUV U HEART0000002000+00000525+00000+0001T   00000525+0000001819          1400 AE6150               1DZ
913333004913333112-116038     913333006009681820246TCS CARRIER BAG MIDI   0000001000+00000035+00000+0001T   00000035+0000001819          1400 AE6090               1DZ
913334000913334               913334               170213DW     1400+00000+DW0000005260+0000005260+000000000+000000738+0000005990+0000000008+I20000000000+0000005990+Z
913334001913334565-000602     913334006003000643790NOVELTY NINJA'S 3PACK  0000001000+00002630+00000+0001T   00002630+0000001819          1400 AE6745               1DZ
913334002913334565-000045     913334006003000295890NOVELTY HEADS 8PCE     0000001000+00002630+00000+0001T   00002630+0000001819          1400 AE6745               1DZ
913335000913335               913335               170213DW     1400+00000+DW0000007455+0000007455+000000000+000001044+0000008490+0000000009+I20000000000+0000008490+Z
913335001913335024-000170     913335006003000120642SILICONE CAKE-PAN RND  0000001000+00007455+00000+0001T   00007455+0000001830          1400 AE6300               1DZ
913336000913336               913336               170213DW     1400+00000+DW0000009057+0000009057+000000000+000001273+0000010330+0000000000+I20000000000+0000010330+Z
913336001913336903-000087     913336006001704000161SWT SPECKLED-EGGS 50G  0000001000+00001139+00000+0001T   00001139+0000001833          1400 AE6150               1DZ
913336002913336903-000521     913336006001704009652SWT GUMMY SOFT GUMS    0000001000+00000876+00000+0001T   00000876+0000001833          1400 AE6150               1DZ
913336003913336903-000504     913336006001704012416SWT CHOC JELLY BEANS   0000001000+00001227+00000+0001T   00001227+0000001833          1400 AE6150               1DZ
913336004913336903-000155     913336006009803374435SWT LOLLY I LUV U HEART0000002000+00000525+00000+0001T   00000525+0000001833          1400 AE6150               1DZ
913336005913336903-000519     913336006001704012805SWT MS LIQ-O-GHETTI    0000001000+00001227+00000+0001T   00001227+0000001833          1400 AE6150               1DZ
913336006913336903-000483     913336006001704001410SWT LIQUOR SML SORT 60G0000001000+00000876+00000+0001T   00000876+0000001833          1400 AE6150               1DZ
913336007913336903-000624     913336006003000671793SWEET LOLLY BLU/BRRY   0000001000+00001753+00000+0001T   00001753+0000001833          1400 AE6150               1DZ
913336008913336112-116038     913336006009681820246TCS CARRIER BAG MIDI   0000001000+00000035+00000+0001T   00000035+0000001833          1400 AE6090               1DZ
913336009913336080-000133-A   913336006003000647019MINI VALENTINES CARD   0000002000+00000437+00000+0001T   00000437+0000001833          1400 AE6112               1DZ
913337000913337               913337               170213DW     1400+00000+DW0000005295+0000005295+000000000+000000743+0000006038+0000000000+I40000006038+0000000000+Z
913337001913337206-000110     913337006003000628186CHOPSTICKS PLASTIC KIDS0000002000+00002630+00000+0001T   00002630+0000001835          1400 AE6321               1DZ
913337002913337112-116038     913337006009681820246TCS CARRIER BAG MIDI   0000001000+00000035+00000+0001T   00000035+0000001835          1400 AE6090               1DZ
913338000913338               913338               170213DW     1400+00000+DW0000007014+0000007014+000000000+000000982+0000007990+0000000006+I20000000000+0000007990+Z
913338001913338018-000136     913338006001023659026MUG OCC LOVE W/PLUSH   0000002000+00003507+00000+0001T   00003507+0000001837          1400 AE6515               1DZ
913339000913339               913339               170213DW     1400+00000+DW0000008363+0000008363+000000000+000001173+0000009536+0000000000+I40000009536+0000000000+Z
913339001913339077-000250     913339006003000541997CONFETTI TABLE DECOR   0000001000+00001753+00000+0001T   00001753+0000001839          1400 AE6112               1DZ
913339002913339006-000093     913339006003000539932PARTY BANNER FLAGS ASST0000001000+00001753+00000+0001T   00001753+0000001839          1400 AE6131               1DZ
913339003913339006-000220-A   913339006001023890849PARTY TABLE-CLOTH GIRL 0000001000+00002630+00000+0001T   00002630+0000001839          1400 AE6131               1DZ
913339004913339366-000451     913339006003000653508DRESS UP HEADBAND ASSTD0000001000+00002192+00000+0001T   00002192+0000001839          1400 AE6131               1DZ
913339005913339112-116038     913339006009681820246TCS CARRIER BAG MIDI   0000001000+00000035+00000+0001T   00000035+0000001839          1400 AE6090               1DZ
913340000913340               913340               170213DW     1400+00000+DW0000025513+0000025513+000000000+000003576+0000029089+0000000000+I40000029089+0000000000+Z
913340001913340018-030000     913340006003000421060MUG OCCASIONS LOVE 2PCE0000001000+00004385+00000+0001T   00004385+0000001844          1400 AE6515               1DZ
913340002913340006-000800     913340006001023902801HAT CABARET 14x18cm    0000002000+00001753+00000+0001T   00001753+0000001844          1400 AE6131               1DZ
913340003913340304-001486     913340006003000035335FLWR BUNCH ROSE        0000001000+00002630+00000+0001T   00002630+0000001844          1400 AE65101IC            1DZ
913340004913340368-000113     913340006001023780874PLUSH BLINGED LOVE 30cm0000001000+00012279+00000+0001T   00012279+0000001844          1400 AE6745               1DZ
913340005913340112-116069     913340006009681820277TCS CARRIER BAG JUMBO  0000001000+00000048+00000+0001T   00000048+0000001844          1400 AE6090               1DZ
913340006913340112-116038     913340006009681820246TCS CARRIER BAG MIDI   0000001000+00000035+00000+0001T   00000035+0000001844          1400 AE6090               1DZ
913340007913340304-000720     913340006001023843050F/BUNCH ROSE 6-HEAD AST0000001000+00002630+00000+0001T   00002630+0000001844          1400 AE6510               1DZ
913341000913341               913341               170213DW     1400+00000+DW0000014992+0000014992+000000000+000002101+0000017093+0000000000+I40000017093+0000000000+Z
913341001913341903-000194     913341006009826020616SWT CHOC RP LOLLY 25G  0000001000+00001314+00000+0001T   00001314+0000001858          1400 AE6150               1DZ
913341002913341563-000318-L   913341006003000407088SERVIETTES 33cm RED    0000001000+00002192+00000+0001T   00002192+0000001858          1400 AE6214               1DZ
913341003913341133-046633     913341009300601747016TABLECLOTH VINYL ASSTD 0000001000+00006139+00000+0001T   00006139+0000001858          1400 AE6212               1DZ
913341004913341077-000299-A   913341006003000670888GIFT-BAG PAPER JMB LOVE0000001000+00001753+00000+0001T   00001753+0000001858          1400 AE6112               1DZ
913341005913341080-000127     913341006003000424351VALENTINES DAY 36x24CM 0000001000+00002192+00000+0001T   00002192+0000001858          1400 AE6112               1DZ
913341006913341304-001204     913341006001023737984FLOWER OCC. TEDDY/ROSES0000001000+00001402+00000+0001T   00001490+0006471858          1400 AE6510               1DZ
913342000913342               913342               170213DW     1400+00000+DW0000007539+0000007539+000000000+000001057+0000008596+0000000000+I40000008596+0000000000+Z
913342001913342018-000136     913342006001023659026MUG OCC LOVE W/PLUSH   0000001000+00003507+00000+0001T   00003507+0000001900          1400 AE6515               1DZ
913342002913342304-001204     913342006001023737984FLOWER OCC. TEDDY/ROSES0000001000+00001402+00000+0001T   00001490+0006471900          1400 AE6510               1DZ
913342003913342077-000270     913342006003000395453GIFT-BAG PPR JMB 33X45 0000001000+00002630+00000+0001T   00002630+0000001900          1400 AE6112               1DZ
913343000913343               913343               170213DW     1400+00000+DW0000003507-0000003507-000000000+000000491-0000004000-0000000002+I20000000000+0000004000-Z
913343001913343018-000136     913343006001023659026MUG OCC LOVE W/PLUSH   0000001000-00003507+00000+0001T   00003507+0000001902          1400 AE65151IC            1 Z
913344000913344               913344               170213DW     1400+00000+DW0000003507-0000003507-000000000+000000491-0000004000-0000000002+I20000000000+0000004000-Z
913344001913344018-000136     913344006001023659026MUG OCC LOVE W/PLUSH   0000001000-00003507+00000+0001T   00003507+0000001902          1400 AE65151IC            1 Z
913345000913345               913345               170213DW     1400+00000+DW0000001402+0000001402+000000000+000000197+0000001590+0000000009+I20000000000+0000001590+Z
913345001913345304-001204     913345006001023737984FLOWER OCC. TEDDY/ROSES0000001000+00001402+00000+0001T   00001490+0006471903          1400 AE6510               1DZ
913346000913346               913346               170213DW     1400+00000+DW0000006085+0000006085+000000000+000000853+0000006930+0000000008+I20000000000+0000006930+Z
913346001913346018-019000     913346006003000557288MUG OCC. LOVE JUMBO    0000001000+00005262+00000+0001T   00005262+0000001904          1400 AE6515               1DZ
913346002913346077-000010-D   913346006001023123886CREPE-PAPER WHITE      0000001000+00000788+00000+0001T   00000788+0000001904          1400 AE6112               1DZ
913346003913346112-116038     913346006009681820246TCS CARRIER BAG MIDI   0000001000+00000035+00000+0001T   00000035+0000001904          1400 AE6090               1DZ
913347000913347               913347               170213DW     1400+00000+DW0000005262+0000005262+000000000+000000737+0000005999+0000000000+I40000005999+0000000000+Z
913347001913347018-019000     913347006003000557288MUG OCC. LOVE JUMBO    0000001000+00005262+00000+0001T   00005262+0000001906          1400 AE6515               1DZ
913348000913348               913348               170213DW     1400+00000+DW0000019956+0000019956+000000000+000002796+0000022752+0000000000+I40000022752+0000000000+Z
913348001913348018-050000     913348006003000412679MUG OCC LOVE TWIN BEAR 0000001000+00006139+00000+0001T   00006139+0000001926          1400 AE6515               1DZ
913348002913348077-000299     913348006003000395576G/BAG 32x25cm LRG LOVE 0000001000+00001490+00000+0001T   00001490+0000001926          1400 AE6112               1DZ
913348003913348368-000111     913348006001023780812PLUSH BEAR/DOG 29CM    0000001000+00012279+00000+0001T   00012279+0000001926          1400 AE6745               1DZ
913348004913348112-116069     913348006009681820277TCS CARRIER BAG JUMBO  0000001000+00000048+00000+0001T   00000048+0000001926          1400 AE6090               1DZ
913349000913349               913349               170213DW     1400+00000+DW0000001753+0000001753+000000000+000000246+0000001990+0000000009+I20000000000+0000001990+Z
913349001913349006-000120     913349006001023346889BALLOONS 10PC MIX COL  0000001000+00001753+00000+0001T   00001753+0000001927          1400 AE6131               1DZ
913350000913350               913350               170213DW     1400+00000+DW0000002630+0000002630+000000000+000000369+0000002990+0000000009+I20000000000+0000002990+Z
913350001913350466-000514     913350006001023196620BALLS TENNIS COLR BAG-30000001000+00002630+00000+0001T   00002630+0000001927          1400 AE6785               1DZ
A17021300                                          08541917DWSLAVE 1                       ED21IC
A17021301                                          10252356DWSLAVE 1                       AE63IC
B91331900                                          170213DW039-000108     17233830SLAVE 1     AE61IC0000002000+0000001000+0000000000000+
B91334000                                          170213DW304-001486     18432981SLAVE 1     AE61IC0000002000+0000001000+0000000000000+
C91328900                                          170213DW466-000071     16143286SLAVE 1     AE63IC0000000000+0000000000+0010000001000+
M17021391                              CASH        DWSLAVE 1                       Z-REPORT No.   705TOTAL (Sales - Refunds)           7638.19       CASH TO BE BANKED                 3682.10       DEBIT CARDS                          0.00       CREDIT CARDS                      3956.09       Z-READING                         7638.19       AIRTIME DEBIT CARD SALES             0.00       AIRTIME CARD SALES                   0.00       OVERS/UNDERS                         0.00       AIRTIME CASH SALES                   0.00       GIFT CARDS                           0.00       GIFT CARD CASH SALES                 0.00       T O T A L  CASH PAYOUTS              0.00                                                                                                                                                                                                                                                                                                                                                      Z
M17021392                              CASH        DWABSENT                                                                                                                                                                                          ANNUAL LEAVE                                                                                                                                                                                    DAY OFF                                                                                                                                                                                         COMMENTS                                                                                                                                                                                                                                                                                                                                                                                       Z
Y17021300                                          DW00000000687050+000117
ZDW17021321053 SLAVE 1      SALES DATA                     NEXT INVOICE NO.  913351 0705
F093777496-057190         1701201126360000023ICSLAVE 1
F093780496-056475         1701201126520000043ICSLAVE 1
F093780496-057190         1701201126520000023ICSLAVE 1
F093781496-028120         1701201127090000043ICSLAVE 1
F093781496-056475         1701201127090000053ICSLAVE 1
F093784496-058484         1701201127190000143ICSLAVE 1
F094147463-000501         1701201127560000063ICSLAVE 1
F094712016-006509         1702040854110000082ICSLAVE 1
X DW Slave 1 First invoice 913230 170213 Last invoice 913350 170213 Next invoice 913351 Total number of records 000000427 clbackup completed 21:05:39
