921858000921858               921858               170213DW     1400+00000+DW0000002630+0000002630+000000000+000000369+0000002999+0000000000+I40000002999+0000000000+Z
921858001921858050-000261-Z   921858006001023535351PADLOCK BRS 20mm CARDED0000001000+00002630+00000+0001T   00002630+0000000912          1400 AW5855               2AZ
921859000921859               921859               170213DW     1400+00000+DW0000002489+0000002489+000000000+000000349+0000002830+0000000008+I20000000000+0000002830+Z
921859001921859251-000041     921859006001023515889SEAL-TAPE BUFF 48mmx50m0000002000+00001227+00000+0001T   00001227+0000000918          1400 AW5810               2AZ
921859002921859112-116038     921859006003000534906TCS CARRIER BAG MIDI   0000001000+00000035+00000+0001T   00000035+0000000918          1400 AW5090               2AZ
921860000921860               921860               170213DW     1400+00000+DW0000002628+0000002628+000000000+000000368+0000002990+0000000006+I20000000000+0000002990+Z
921860001921860006-000166-H   921860006003000608096BALLOONS HELIUM 6PC WHT0000001000+00001314+00000+0001T   00001314+0000000927          1400 AW5131               2AZ
921860002921860006-000166-D   921860006003000516490BALLOONS LRG 6PC RED   0000001000+00001314+00000+0001T   00001314+0000000927          1400 AW5131               2AZ
921861000921861               921861               170213DW     1400+00000+DW0000008328+0000008328+000000000+000001168+0000009490+0000000006+I20000000000+0000009490+Z
921861001921861009-001596     921861006003000655182MELAMINE PARTY TRAY    0000001000+00003069+00000+0001T   00003069+0000000942          1400 AW5210               2AZ
921861002921861037-000004     921861006001023763679ASHTRAY PL TUB 8X11CM  0000001000+00001753+00000+0001T   00002192+0008190942          1400 AW5515               2AZ
921861003921861104-000020     921861006916920023026BASKET 25x14x10cm      0000001000+00001753+00000+0001T   00001753+0000000942          1400 AW5210               2AZ
921861004921861104-000010     921861006001023507822BASKET 30x23cm RECT.   0000001000+00001753+00000+0001T   00001753+0000000942          1400 AW5210               2AZ
921862000921862               921862               170213DW     1400+00000+DW0000013676+0000013676+000000000+000001916+0000015590+0000000002+I20000000000+0000015590+Z
921862001921862077-000303     921862006001023593757GIFT-BAG PAPER MED     0000002000+00001578+00000+0001T   00001578+0000000943          1400 AW5112               2AZ
921862002921862368-000048     921862006003000537075PLUSH FINGER PUPPETS   0000002000+00003507+00000+0001T   00003507+0000000943          1400 AW5745               2AZ
921862003921862903-000619     921862006003000672455SWT LOLLY STR/BRRY 140G0000002000+00001753+00000+0001T   00001753+0000000943          1400 AW5150               2AZ
921863000921863               921863               170213DW     1400+00000+DW0000004418+0000004418+000000000+000000620+0000005030+0000000008+I20000000000+0000005030+Z
921863001921863077-000201     921863006003000152612GIFT-BOX WEDDING PVC   0000001000+00002630+00000+0001T   00002630+0000001022          1400 AW5112               2AZ
921863002921863200-000211     921863006003000671847BAKING-PANS ALUM-FOIL  0000001000+00001753+00000+0001T   00001753+0000001022          1400 AW5214               2AZ
921863003921863112-116038     921863006009681820246TCS CARRIER BAG MIDI   0000001000+00000035+00000+0001T   00000035+0000001022          1400 AW5090               2AZ
921864000921864               921864               170213DW     1400+00000+DW0000010133+0000010133+000000000+000001420+0000011553+0000000000+I40000011553+0000000000+Z
921864001921864174-000175     921864006001023730985LAUNDRY-BAG FOLD-AWAY  0000001000+00002630+00000+0001T   00002630+0000001027          1400 AW5205               2AZ
921864002921864002-000711     921864006003000442775C/BOARD WDN 24x33.5x1.60000001000+00007455+00000+0001T   00007455+0000001027          1400 AW5300               2AZ
921864003921864112-116069     921864006003000535064TCS CARRIER BAG JUMBO  0000001000+00000048+00000+0001T   00000048+0000001027          1400 AW5090               2AZ
921865000921865               921865               170213DW     1400+00000+DW0000002192+0000002192+000000000+000000307+0000002490+0000000009+I20000000000+0000002490+Z
921865001921865002-001700     921865006003000333707ONION-KEEPER PL        0000001000+00002192+00000+0001T   00002192+0000001029          1400 AW5300               2AZ
921866000921866               921866               170213DW     1400+00000+DW0000007925+0000007925+000000000+000001112+0000009037+0000000000+I40000009037+0000000000+Z
921866001921866036-005010     921866006002580008739COATHANGER KIDDIES PL  0000003000+00002630+00000+0001T   00002630+0000001041          1400 AW5212               2AZ
921866002921866112-116038     921866006009681820246TCS CARRIER BAG MIDI   0000001000+00000035+00000+0001T   00000035+0000001041          1400 AW5090               2AZ
921867000921867               921867               170213DW     1400+00000+DW0000008771+0000008771+000000000+000001228+0000009999+0000000000+I40000009999+0000000000+Z
921867001921867203-000107     921867006001023820358ICE-BUCKET T/PLATE DECO0000001000+00008771+00000+0001T   00008771+0000001043          1400 AW5300               2AZ
921868000921868               921868               170213DW     1400+00000+DW0000006169+0000006169+000000000+000000865+0000007030+0000000004+I20000000000+0000007030+Z
921868001921868077-000239     921868006003000160419GIFT-RIBBON ROLL PEARL 0000002000+00001753+00000+0001T   00001753+0000001046          1400 AW5112               2AZ
921868002921868006-000166-H   921868006003000608096BALLOONS HELIUM 6PC WHT0000001000+00001314+00000+0001T   00001314+0000001046          1400 AW5131               2AZ
921868003921868006-000166-D   921868006003000516490BALLOONS LRG 6PC RED   0000001000+00001314+00000+0001T   00001314+0000001046          1400 AW5131               2AZ
921868004921868112-116038     921868006009681820246TCS CARRIER BAG MIDI   0000001000+00000035+00000+0001T   00000035+0000001046          1400 AW5090               2AZ
921869000921869               921869               170213DW     1400+00000+DW0000014060+0000014060+000000000+000001973+0000016030+0000000003+I20000000000+0000016030+Z
921869001921869088-000084     921869006001023798060P/POURRI 120G ASSTD    0000005000+00001753+00000+0001T   00001753+0000001048          1400 AW5212               2AZ
921869002921869077-000270     921869006003000395453GIFT-BAG PPR JMB 33X45 0000002000+00002630+00000+0001T   00002630+0000001048          1400 AW5112               2AZ
921869003921869112-116038     921869006009681820246TCS CARRIER BAG MIDI   0000001000+00000035+00000+0001T   00000035+0000001048          1400 AW5090               2AZ
921870000921870               921870               170213DW     1400+00000+DW0000001927+0000001927+000000000+000000271+0000002190+0000000008+I20000000000+0000002190+Z
921870001921870080-000133     921870006003000535613CARD&ENV MINI ASTD DSGN0000001000+00000437+00000+0001T   00000437+0000001051          1400 AW5112               2AZ
921870002921870077-000299     921870006003000395576G/BAG 32x25cm LRG LOVE 0000001000+00001490+00000+0001T   00001490+0000001051          1400 AW5112               2AZ
921871000921871               921871               170213DW     1400+00000+DW0000000527-0000000527-000000000+000000073-0000000600-0000000000+I20000000000+0000000600-Z
921871001921871301-085004     921871006003000420469ORN LOVE PLAQUE 21X10CM0000001000-00003507+00000+0001T   00003946+0006471053          1400 AW55052IC            2 Z
921871002921871077-000299     921871006003000395576G/BAG 32x25cm LRG LOVE 0000002000+00001490+00000+0001T   00001490+0000001053          1400 AW5112               2 Z
921872000921872               921872               170213DW     1400+00000+DW0000003506+0000003506+000000000+000000492+0000003990+0000000008+I20000000000+0000003990+Z
921872001921872080-000112     921872006003000252749CARD&ENVLP BDAY-MUSICAL0000002000+00001753+00000+0001T   00001753+0000001121          1400 AW5112               2AZ
921873000921873               921873               170213DW     1400+00000+DW0000007940+0000007940+000000000+000001113+0000009050+0000000003+I20000000000+0000009050+Z
921873001921873031-007009     921873006003000467822P/FRAME WDN CERTIFICATE0000001000+00006139+00000+0001T   00006139+0000001125          1400 AW5510               2AZ
921873002921873077-000299-A   921873006003000670888GIFT-BAG PAPER JMB LOVE0000001000+00001753+00000+0001T   00001753+0000001125          1400 AW5112               2AZ
921873003921873112-116069     921873006009681820277TCS CARRIER BAG JUMBO  0000001000+00000048+00000+0001T   00000048+0000001125          1400 AW5090               2AZ
921874000921874               921874               170213DW     1400+00000+DW0000002630+0000002630+000000000+000000369+0000002990+0000000009+I20000000000+0000002990+Z
921874001921874159-000684     921874006001023776532BATH BODY-GLOVE 18cm   0000001000+00002630+00000+0001T   00002630+0000001137          1400 AW5200               2AZ
921875000921875               921875               170213DW     1400+00000+DW0000000035+0000000035+000000000+000000005+0000000040+0000000000+I20000000000+0000000040+Z
921875001921875112-116038     921875006009681820246TCS CARRIER BAG MIDI   0000001000+00000035+00000+0001T   00000035+0000001138          1400 AW5090               2AZ
921876000921876               921876               170213DW     1400+00000+DW0000005295+0000005295+000000000+000000743+0000006030+0000000008+I20000000000+0000006030+Z
921876001921876016-006425     921876006001023998170S/JAR GLS CLIP W/RIBBON0000002000+00002630+00000+0001T   00002630+0000001140          1400 AW5300               2AZ
921876002921876112-116038     921876006009681820246TCS CARRIER BAG MIDI   0000001000+00000035+00000+0001T   00000035+0000001140          1400 AW5090               2AZ
921877000921877               921877               170213DW     1400+00000+DW0000015788+0000015788+000000000+000002211+0000017990+0000000009+I20000000000+0000017990+Z
921877001921877365-000009     921877006003000166305P/SET DOCTOR SET LIGHT 0000001000+00015788+00000+0001T   00017542+0008191141          1400 AW5725               2AZ
921878000921878               921878               170213DW     1400+00000+DW0000004768+0000004768+000000000+000000669+0000005430+0000000007+I20000000000+0000005430+Z
921878001921878028-000795     921878006001023812063SKEWERS 10cm 100PCE 3mm0000001000+00000964+00000+0001T   00000964+0000001142          1400 AW5305               2AZ
921878002921878368-000100     921878006001023474742PLUSH MD BEAR 12cm     0000001000+00002630+00000+0001T   00002630+0000001142          1400 AW5745               2AZ
921878003921878903-000087     921878006001704000161SWT SPECKLED-EGGS 50G  0000001000+00001139+00000+0001T   00001139+0000001142          1400 AW5150               2AZ
921878004921878112-116038     921878006009681820246TCS CARRIER BAG MIDI   0000001000+00000035+00000+0001T   00000035+0000001142          1400 AW5090               2AZ
921879000921879               921879               170213DW     1400+00000+DW0000008505+0000008505+000000000+000001192+0000009690+0000000007+I20000000000+0000009690+Z
921879001921879036-000405     921879006001023630247CLOTHES DRYER PL 18-PEG0000001000+00004385+00000+0001T   00004385+0000001143          1400 AW5212               2AZ
921879002921879046-000010-A   921879006003000438778BATTERIES SIZE:AAA 4PCE0000001000+00002367+00000+0001T   00002367+0000001143          1400 AW5312               2AZ
921879003921879048-000859     921879006003000423422TORCH 9 LED PL 3XAAA   0000001000+00001753+00000+0001T   00001753+0000001143          1400 AW5305               2AZ
921880000921880               921880               170213DW     1400+00000+DW0000001753+0000001753+000000000+000000246+0000001990+0000000009+I20000000000+0000001990+Z
921880001921880200-003024     921880006001023657299REFUSE BAGS 20PCE BLACK0000001000+00001753+00000+0001T   00001753+0000001144          1400 AW5214               2AZ
921881000921881               921881               170213DW     1400+00000+DW0000004385+0000004385+000000000+000000614+0000004990+0000000009+I20000000000+0000004990+Z
921881001921881082-000115     921881006003000360604READING GLS STRNGHT:2.50000001000+00004385+00000+0001T   00004385+0000001145          1400 AW5160               2AZ
921882000921882               921882               170213DW     1400+00000+DW0000006172+0000006172+000000000+000000865+0000007037+0000000000+I40000007037+0000000000+Z
921882001921882079-000282     921882006001023493309PAINT TUBS POSTER 12COL0000001000+00002630+00000+0001T   00002630+0000001147          1400 AW5130               2AZ
921882002921882079-000017     921882006003000098347ART+CRAFT COLOUR ME    0000001000+00003507+00000+0001T   00003507+0000001147          1400 AW5130               2AZ
921882003921882112-116038     921882006009681820246TCS CARRIER BAG MIDI   0000001000+00000035+00000+0001T   00000035+0000001147          1400 AW5090               2AZ
921883000921883               921883               170213DW     1400+00000+DW0000004382+0000004382+000000000+000000615+0000004990+0000000007+I20000000000+0000004990+Z
921883001921883077-000151     921883006008766114676GIFT-WRAP C/PHANE ASSTD0000002000+00000876+00000+0001T   00000876+0000001148          1400 AW5112               2AZ
921883002921883103-000060     921883006001023795489BAMBOO BASKET RECT     0000001000+00002630+00000+0001T   00002630+0000001148          1400 AW5300               2AZ
921884000921884               921884               170213DW     1400+00000+DW0000001752+0000001752+000000000+000000246+0000001998+0000000000+I40000001998+0000000000+Z
921884001921884077-000151     921884006008766114676GIFT-WRAP C/PHANE ASSTD0000002000+00000876+00000+0001T   00000876+0000001149          1400 AW5112               2AZ
921885000921885               921885               170213DW     1400+00000+DW0000002630+0000002630+000000000+000000369+0000002990+0000000009+I20000000000+0000002990+Z
921885001921885019-071603     921885006001023772039RIVER-STONES 1kg PEACH 0000001000+00002630+00000+0001T   00002630+0000001150          1400 AW5510               2AZ
921886000921886               921886               170213DW     1400+00000+DW0000004208+0000004208+000000000+000000590+0000004790+0000000008+I20000000000+0000004790+Z
921886001921886018-000129     921886006001023403353MUG OCC. LOVE V-SHAPE  0000001000+00002630+00000+0001T   00002630+0000001153          1400 AW5515               2AZ
921886002921886077-000303     921886006001023593757GIFT-BAG PAPER MED     0000001000+00001578+00000+0001T   00001578+0000001153          1400 AW5112               2AZ
921887000921887               921887               170213DW     1400+00000+DW0000003680+0000003680+000000000+000000517+0000004190+0000000007+I20000000000+0000004190+Z
921887001921887079-000270     921887006001023886071ARTIST APRON-SET 3PCE  0000001000+00002630+00000+0001T   00002630+0000001154          1400 AW5130               2AZ
921887002921887903-000155     921887006009803374435SWT LOLLY I LUV U HEART0000002000+00000525+00000+0001T   00000525+0000001154          1400 AW5150               2AZ
921888000921888               921888               170213DW     1400+00000+DW0000006607+0000006607+000000000+000000926+0000007533+0000000000+I40000007533+0000000000+Z
921888001921888006-000803     921888006003000653676STREAMERS SET 3ROLLS   0000001000+00002630+00000+0001T   00002630+0000001157          1400 AW5131               2AZ
921888002921888006-000167-C   921888006003000516971BALLOONS PINK METALLIC 0000003000+00001314+00000+0001T   00001314+0000001157          1400 AW5131               2AZ
921888003921888112-116038     921888006009681820246TCS CARRIER BAG MIDI   0000001000+00000035+00000+0001T   00000035+0000001157          1400 AW5090               2AZ
921889000921889               921889               170213DW     1400+00000+DW0000006347+0000006347+000000000+000000889+0000007236+0000000000+I40000007236+0000000000+Z
921889001921889018-000170     921889006001023775528MUG OCC. LOVE 2PC MINI 0000002000+00002192+00000+0001T   00002192+0000001159          1400 AW5515               2AZ
921889002921889903-000843     921889008693029031067SWT GUMMY JELAXY 80G   0000002000+00000964+00000+0001T   00000964+0000001159          1400 AW5150               2AZ
921889003921889112-116038     921889006009681820246TCS CARRIER BAG MIDI   0000001000+00000035+00000+0001T   00000035+0000001159          1400 AW5090               2AZ
921890000921890               921890               170213DW     1400+00000+DW0000000525+0000000525+000000000+000000074+0000000590+0000000009+I20000000000+0000000590+Z
921890001921890903-000155     921890006009803374435SWT LOLLY I LUV U HEART0000001000+00000525+00000+0001T   00000525+0000001200          1400 AW5150               2AZ
921891000921891               921891               170213DW     1400+00000+DW0000002978+0000002978+000000000+000000418+0000003390+0000000006+I20000000000+0000003390+Z
921891001921891903-000155     921891006009803374435SWT LOLLY I LUV U HEART0000002000+00000525+00000+0001T   00000525+0000001200          1400 AW5150               2AZ
921891002921891903-000843     921891008693029031067SWT GUMMY JELAXY 80G   0000002000+00000964+00000+0001T   00000964+0000001200          1400 AW5150               2AZ
921892000921892               921892               170213DW     1400+00000+DW0000001753+0000001753+000000000+000000246+0000001990+0000000009+I20000000000+0000001990+Z
921892001921892077-000381     921892006003000247707GIFT-BAG 25X32CM S/COL 0000001000+00001753+00000+0001T   00001753+0000001201          1400 AW5112               2AZ
921893000921893               921893               170213DW     1400+00000+DW0000003373+0000003373+000000000+000000474+0000003847+0000000000+I40000003847+0000000000+Z
921893001921893077-000303     921893006001023593757GIFT-BAG PAPER MED     0000001000+00001578+00000+0001T   00001578+0000001202          1400 AW5112               2AZ
921893002921893304-001204     921893006001023737984FLOWER OCC. TEDDY/ROSES0000001000+00001402+00000+0001T   00001490+0006471202          1400 AW5510               2AZ
921893003921893903-000183     921893006003000451043SWT LB HEART LOLLY     0000001000+00000393+00000+0001T   00000393+0000001202          1400 AW5150               2AZ
921894000921894               921894               170213DW     1400+00000+DW0000002630+0000002630+000000000+000000369+0000002990+0000000009+I20000000000+0000002990+Z
921894001921894077-000115-B   921894006003000181025GIFT-WRAP PPR 700MMX2M 0000001000+00002630+00000+0001T   00002630+0000001215          1400 AW5112               2AZ
921895000921895               921895               170213DW     1400+00000+DW0000009646+0000009646+000000000+000001352+0000010990+0000000008+I20000000000+0000010990+Z
921895001921895077-000328     921895006003000668939GIFT-BAG PAPER JMB     0000001000+00001753+00000+0001T   00001753+0000001216          1400 AW5112               2AZ
921895002921895566-000041     921895006003000265701SCRAPBOOK ALBUM 10PCKTS0000001000+00007893+00000+0001T   00007893+0000001216          1400 AW5130               2AZ
921896000921896               921896               170213DW     1400+00000+DW0000002453+0000002453+000000000+000000344+0000002790+0000000007+I20000000000+0000002790+Z
921896001921896037-050016     921896006001023674128ASHTRAY 9CM RND CLUB   0000001000+00001753+00000+0001T   00001753+0000001217          1400 AW5515               2AZ
921896002921896007-000166     921896006009685857316SPIRAL NOTES A6 100PG  0000001000+00000700+00000+0001T   00000700+0000001217          1400 AW5130               2AZ
921897000921897               921897               170213DW     1400+00000+DW0000003067+0000003067+000000000+000000430+0000003490+0000000007+I20000000000+0000003490+Z
921897001921897903-004950     921897006002580020304SWT APRICOT SURPRISE   0000001000+00001314+00000+0001T   00001314+0000001218          1400 AW5150               2AZ
921897002921897174-000011     921897006001023523778W/MACHINE-BAG 50x40cm  0000001000+00001753+00000+0001T   00001753+0000001218          1400 AW5205               2AZ
921898000921898               921898               170213DW     1400+00000+DW0000001578+0000001578+000000000+000000221+0000001790+0000000009+I20000000000+0000001790+Z
921898001921898078-013424     921898006008741000338CONTACT-ADHESIVE 50ml  0000001000+00001578+00000+0001T   00001578+0000001218          1400 AW5810               2AZ
921899000921899               921899               170213DW     1400+00000+DW0000001753+0000001753+000000000+000000246+0000001999+0000000000+I40000001999+0000000000+Z
921899001921899039-000114     921899006001023524058CANDLE T/LITE RED 3.5CM0000001000+00001753+00000+0001T   00001753+0000001221          1400 AW5510               2AZ
921900000921900               921900               170213DW     1400+00000+DW0000000876+0000000876+000000000+000000123+0000000990+0000000009+I20000000000+0000000990+Z
921900001921900078-000025     921900008887013700064SUPERGLUE 3g 1PCE CARD 0000001000+00000876+00000+0001T   00000876+0000001225          1400 AW5810               2AZ
921901000921901               921901               170213DW     1400+00000+DW0000001753+0000001753+000000000+000000246+0000001990+0000000009+I20000000000+0000001990+Z
921901001921901071-002907     921901006003000588374PEN BALLPOINT REFILL   0000001000+00001753+00000+0001T   00001753+0000001226          1400 AW5130               2AZ
921902000921902               921902               170213DW     1400+00000+DW0000007309+0000007309+000000000+000001025+0000008334+0000000000+I40000008334+0000000000+Z
921902001921902007-000166     921902006009685857316SPIRAL NOTES A6 100PG  0000001000+00000700+00000+0001T   00000700+0000001229          1400 AW5130               2AZ
921902002921902079-000510     921902006001023509079CRAYONS WAX 12-COLOUR  0000001000+00002455+00000+0001T   00002455+0000001229          1400 AW5130               2AZ
921902003921902566-000344     921902006001023994806STICKER ALBUM+STICKERS 0000001000+00001753+00000+0001T   00001753+0000001229          1400 AW5130               2AZ
921902004921902567-014133     921902006003000560103BOOK COLOURING 48 PAGE 0000001000+00001490+00000+0001T   00001490+0000001229          1400 AW5757               2AZ
921902005921902903-000123     921902006925925909280SWEET GS MINI MALLOWS  0000001000+00000876+00000+0001T   00000876+0000001229          1400 AW5150               2AZ
921902006921902112-116038     921902006009681820246TCS CARRIER BAG MIDI   0000001000+00000035+00000+0001T   00000035+0000001229          1400 AW5090               2AZ
921903000921903               921903               170213DW     1400+00000+DW0000007453+0000007453+000000000+000001044+0000008490+0000000007+I20000000000+0000008490+Z
921903001921903004-078900     921903006003000061655MICROPHONE O/F SWT 21cm0000001000+00004385+00000+0001T   00004385+0000001230          1400 AW5310               2AZ
921903002921903078-000025     921903008887013700064SUPERGLUE 3g 1PCE CARD 0000001000+00000876+00000+0001T   00000876+0000001230          1400 AW5810               2AZ
921903003921903566-000951     921903006003000217670STICKERS 3 STYLES ASSTD0000001000+00002192+00000+0001T   00002192+0000001230          1400 AW5130               2AZ
921904000921904               921904               170213DW     1400+00000+DW0000002630+0000002630+000000000+000000369+0000002990+0000000009+I20000000000+0000002990+Z
921904001921904304-001016     921904006003000427116FLOWER DAHLIA POLY.65CM0000001000+00002630+00000+0001T   00002630+0000001245          1400 AW5510               2AZ
921905000921905               921905               170213DW     1400+00000+DW0000004385+0000004385+000000000+000000614+0000004990+0000000009+I20000000000+0000004990+Z
921905001921905028-000030     921905006001023810908COOLER-BAG 6PACK       0000001000+00004385+00000+0001T   00004385+0000001246          1400 AW5305               2AZ
921906000921906               921906               170213DW     1400+00000+DW0000000876+0000000876+000000000+000000123+0000000990+0000000009+I20000000000+0000000990+Z
921906001921906082-026204     921906006001023816443R/GLASSES STRINGS 2PCE 0000001000+00000876+00000+0001T   00000876+0000001249          1400 AW5160               2AZ
921907000921907               921907               170213DW     1400+00000+DW0000027204+0000027204+000000000+000003820+0000031024+0000000000+I40000031024+0000000000+Z
921907001921907567-014132     921907006003000560028BOOK COLOURING 24 PAGE 0000031000+00000876+00000+0001T   00000876+0000001259          1400 AW5757               2AZ
921907002921907112-116069     921907006009681820277TCS CARRIER BAG JUMBO  0000001000+00000048+00000+0001T   00000048+0000001259          1400 AW5090               2AZ
921908000921908               921908               170213DW     1400+00000+DW0000010998+0000010998+000000000+000001540+0000012530+0000000008+I20000000000+0000012530+Z
921908001921908486-001012     921908006001023820907CLOCK ALARM SQR 10X12CM0000001000+00004385+00000+0001T   00004385+0000001408          1400 AW5510               2AZ
921908002921908486-002065     921908006003000057030C/ALARM QTZ PL SQUARE  0000001000+00006578+00000+0001T   00006578+0000001408          1400 AW5510               2AZ
921908003921908112-116038     921908006009681820246TCS CARRIER BAG MIDI   0000001000+00000035+00000+0001T   00000035+0000001408          1400 AW5090               2AZ
921909000921909               921909               170213DW     1400+00000+DW0000002804+0000002804+000000000+000000394+0000003190+0000000008+I20000000000+0000003190+Z
921909001921909304-001204     921909006001023737984FLOWER OCC. TEDDY/ROSES0000002000+00001402+00000+0001T   00001490+0006471408          1400 AW5510               2AZ
921910000921910               921910               170213DW     1400+00000+DW0000001753+0000001753+000000000+000000246+0000001990+0000000009+I20000000000+0000001990+Z
921910001921910077-000309     921910006001023608604GIFT-BAG 25X32CM GLOSS 0000001000+00001753+00000+0001T   00001753+0000001412          1400 AW5112               2AZ
921911000921911               921911               170213DW     1400+00000+DW0000003542+0000003542+000000000+000000496+0000004038+0000000000+I40000004038+0000000000+Z
921911001921911018-005009     921911006001023725608MUG W/PLUSH-BEAR LOVE  0000001000+00003507+00000+0001T   00003507+0000001417          1400 AW5515               2AZ
921911002921911112-116038     921911006009681820246TCS CARRIER BAG MIDI   0000001000+00000035+00000+0001T   00000035+0000001417          1400 AW5090               2AZ
921912000921912               921912               170213DW     1400+00000+DW0000005167+0000005167+000000000+000000726+0000005893+0000000000+I40000005893+0000000000+Z
921912001921912006-000120     921912006001023346889BALLOONS 10PC MIX COL  0000001000+00001753+00000+0001T   00001753+0000001419          1400 AW5131               2AZ
921912002921912566-000202     921912006003000443567STCKRS SPARKLE RIM ASST0000001000+00001314+00000+0001T   00001314+0000001419          1400 AW5130               2AZ
921912003921912903-000155     921912006009803374435SWT LOLLY I LUV U HEART0000004000+00000525+00000+0001T   00000525+0000001419          1400 AW5150               2AZ
921913000921913               921913               170213DW     1400+00000+DW0000005875+0000005875+000000000+000000823+0000006698+0000000000+I40000006698+0000000000+Z
921913001921913082-007587     921913006003000654338SUNGLASS DESIGNER ASST 0000001000+00004385+00000+0001T   00004385+0000001420          1400 AW5160               2AZ
921913002921913077-000299     921913006003000395576G/BAG 32x25cm LRG LOVE 0000001000+00001490+00000+0001T   00001490+0000001420          1400 AW5112               2AZ
921914000921914               921914               170213DW     1400+00000+DW0000004385+0000004385+000000000+000000614+0000004999+0000000000+I40000004999+0000000000+Z
921914001921914031-005840     921914006001023481412P/FRAME-CLIP 30X40CM   0000001000+00004385+00000+0001T   00004385+0000001427          1400 AW5510               2AZ
921915000921915               921915               170213DW     1400+00000+DW0000006486+0000006486+000000000+000000910+0000007396+0000000000+I40000007396+0000000000+Z
921915001921915046-002032-PK2 921915004897006175063BATTERIES CR-2032  2PCE0000001000+00001753+00000+0001T   00001753+0000001430          1400 AW5312               2AZ
921915002921915031-000878-B   921915006001023799012P/FRAME 13x18cm PL-SLID0000002000+00001490+00000+0001T   00001490+0000001430          1400 AW5510               2AZ
921915003921915200-003026     921915006003000276448REFUSE BAGS 10PCE GREEN0000001000+00001753+00000+0001T   00001753+0000001430          1400 AW5214               2AZ
921916000921916               921916               170213DW     1400+00000+DW0000004383+0000004383+000000000+000000615+0000004990+0000000008+I20000000000+0000004990+Z
921916001921916024-006874     921916006001023769978PASTRY-BRUSH SQ WHITE  0000001000+00001753+00000+0001T   00001753+0000001431          1400 AW5300               2AZ
921916002921916133-000103     921916006003000060900PEG BAG ASSTD 29x29cm  0000001000+00002630+00000+0001T   00002630+0000001431          1400 AW5212               2AZ
921917000921917               921917               170213DW     1400+00000+DW0000002630+0000002630+000000000+000000369+0000002990+0000000009+I20000000000+0000002990+Z
921917001921917072-020309     921917006001023700995DOG-TOY DUMBELL F/BALL 0000001000+00002630+00000+0001T   00002630+0000001433          1400 AW5870               2AZ
921918000921918               921918               170213DW     1400+00000+DW0000017223+0000017223+000000000+000002413+0000019636+0000000000+I40000019636+0000000000+Z
921918001921918565-000255     921918006003000585168NOVELTY GLOW SLIME     0000002000+00002455+00000+0001T   00002455+0000001434          1400 AW5745               2AZ
921918002921918368-000265     921918006001023750914PLUSH BEAR 23CM ASSTD C0000002000+00006139+00000+0001T   00006139+0000001434          1400 AW5745               2AZ
921918003921918112-116038     921918006009681820246TCS CARRIER BAG MIDI   0000001000+00000035+00000+0001T   00000035+0000001434          1400 AW5090               2AZ
921919000921919               921919               170213DW     1400+00000+DW0000002630+0000002630+000000000+000000369+0000002990+0000000009+I20000000000+0000002990+Z
921919001921919206-000620     921919006003000631797BACK SCRATCHER EXTEND  0000001000+00002630+00000+0001T   00002630+0000001435          1400 AW5321               2AZ
921920000921920               921920               170213DW     1400+00000+DW0000001753+0000001753+000000000+000000246+0000001990+0000000009+I20000000000+0000001990+Z
921920001921920565-001212     921920006001023658173NOVELTY MAGIC-SPRING   0000001000+00001753+00000+0001T   00001753+0000001438          1400 AW5745               2AZ
921921000921921               921921               170213DW     1400+00000+DW0000002665+0000002665+000000000+000000374+0000003030+0000000009+I20000000000+0000003030+Z
921921001921921204-000059     921921006001023528162MEMO HOLDER APPS 18PC  0000001000+00002630+00000+0001T   00002630+0000001441          1400 AW5300               2AZ
921921002921921112-116038     921921006009681820246TCS CARRIER BAG MIDI   0000001000+00000035+00000+0001T   00000035+0000001441          1400 AW5090               2AZ
921922000921922               921922               170213DW     1400+00000+DW0000012661+0000012661+000000000+000001774+0000014430+0000000005+I20000000000+0000014430+Z
921922001921922077-000303     921922006001023593757GIFT-BAG PAPER MED     0000001000+00001578+00000+0001T   00001578+0000001447          1400 AW5112               2AZ
921922002921922112-116038     921922006009681820246TCS CARRIER BAG MIDI   0000001000+00000035+00000+0001T   00000035+0000001447          1400 AW5090               2AZ
921922003921922368-000175     921922006003000270316PLUSH BEAR 4 ASSTD 18CM0000001000+00006139+00000+0001T   00006139+0000001447          1400 AW5745               2AZ
921922004921922304-001204     921922006001023737984FLOWER OCC. TEDDY/ROSES0000001000+00001402+00000+0001T   00001490+0006471447          1400 AW5510               2AZ
921922005921922301-085004     921922006003000420469ORN LOVE PLAQUE 21X10CM0000001000+00003507+00000+0001T   00003946+0006471447          1400 AW5505               2AZ
921923000921923               921923               170213DW     1400+00000+DW0000061402-0000061402-000000000+000008597-0000070000-0000000001+I20000000000+0000070000-Z
921923001921923496-056475     921923000078257564750INTEX POOL: 229x229x66 0000001000-00061402+00000+0001T   00061402+0000001452          1400 AW57873IC            2 Z
921924000921924               921924               170213DW     1400+00000+DW0000003507+0000003507+000000000+000000491+0000003990+0000000008+I20000000000+0000003990+Z
921924001921924031-086102     921924006001023900722P/FRAME PL WORD-TOP 4AS0000001000+00003507+00000+0001T   00003507+0000001454          1400 AW5510               2AZ
921925000921925               921925               170213DW     1400+00000+DW0000001314+0000001314+000000000+000000184+0000001490+0000000008+I20000000000+0000001490+Z
921925001921925107-004105     921925006002923010504BUCKET 9L OPEN         0000001000+00001314+00000+0001T   00001314+0000001500          1400 AW5210               2AZ
921926000921926               921926               170213DW     1400+00000+DW0000007663+0000007663+000000000+000001074+0000008730+0000000007+I20000000000+0000008730+Z
921926001921926056-005752     921926006003000491674CAR AIR-FRESH FISH ASST0000001000+00001753+00000+0001T   00001753+0000001503          1400 AW5860               2AZ
921926002921926055-009258     921926006001023426215P/HOOK+PIN 2PNx7PCE H&H0000001000+00001490+00000+0001T   00001490+0000001503          1400 AW5810               2AZ
921926003921926303-000804     921926006001023409751COW-BELL BRS (7-BELLS) 0000001000+00004385+00000+0001T   00004385+0000001503          1400 AW5510               2AZ
921926004921926112-116038     921926006009681820246TCS CARRIER BAG MIDI   0000001000+00000035+00000+0001T   00000035+0000001503          1400 AW5090               2AZ
921927000921927               921927               170213DW     1400+00000+DW0000002366+0000002366+000000000+000000332+0000002690+0000000008+I20000000000+0000002690+Z
921927001921927077-000011-L   921927006001023808585P/TISSUE BRIGHT 10SHEET0000001000+00000876+00000+0001T   00000876+0000001504          1400 AW5112               2AZ
921927002921927077-000299     921927006003000395576G/BAG 32x25cm LRG LOVE 0000001000+00001490+00000+0001T   00001490+0000001504          1400 AW5112               2AZ
921928000921928               921928               170213DW     1400+00000+DW0000001753+0000001753+000000000+000000246+0000001990+0000000009+I20000000000+0000001990+Z
921928001921928361-000127     921928006003000602216DOLL SML 15cm MERMAID  0000001000+00001753+00000+0001T   00001753+0000001505          1400 AW5725               2AZ
921929000921929               921929               170213DW     1400+00000+DW0000005085+0000005085+000000000+000000712+0000005797+0000000000+I40000005797+0000000000+Z
921929001921929077-000303     921929006001023593757GIFT-BAG PAPER MED     0000001000+00001578+00000+0001T   00001578+0000001532          1400 AW5112               2AZ
921929002921929018-000136     921929006001023659026MUG OCC LOVE W/PLUSH   0000001000+00003507+00000+0001T   00003507+0000001532          1400 AW5515               2AZ
921930000921930               921930               170213DW     1400+00000+DW0000003680+0000003680+000000000+000000517+0000004190+0000000007+I20000000000+0000004190+Z
921930001921930089-000192-A   921930006001023901774KEY-CHAIN ACRYLIC      0000001000+00000876+00000+0001T   00000876+0000001812          1400 1IC205               2DZ
921930002921930304-001204     921930006001023737984FLOWER OCC. TEDDY/ROSES0000002000+00001402+00000+0001T   00001490+0006471812          1400 1IC510               2DZ
921931000921931               921931               170213DW     1400+00000+DW0000001753+0000001753+000000000+000000246+0000001990+0000000009+I20000000000+0000001990+Z
921931001921931080-000117     921931006003000236350CARD & ENVELOPE THANK U0000001000+00001753+00000+0001T   00001753+0000001812          1400 1IC112               2DZ
921932000921932               921932               170213DW     1400+00000+DW0000003068+0000003068+000000000+000000430+0000003498+0000000000+I40000003498+0000000000+Z
921932001921932077-000920     921932006003000413812G/WRAP 700mmx2m BIRTHDA0000001000+00002192+00000+0001T   00002192+0000001842          1400 1IC112               2DZ
921932002921932071-005213     921932006001023690371CELLOTAPE 12mmx33m     0000001000+00000876+00000+0001T   00000876+0000001842          1400 1IC130               2DZ
921933000921933               921933               170213DW     1400+00000+DW0000005260+0000005260+000000000+000000738+0000005998+0000000000+I40000005998+0000000000+Z
921933001921933077-000005-B   921933006003000326617PAPER TISSUE PATTERN   0000001000+00002630+00000+0001T   00002630+0000001903          1400 1IC112               2DZ
921933002921933006-000220-B   921933006001023890870PARTY TABLE-CLOTH BOY  0000001000+00002630+00000+0001T   00002630+0000001903          1400 1IC131               2DZ
921934000921934               921934               170213DW     1400+00000+DW0000001402+0000001402+000000000+000000197+0000001599+0000000000+I40000001599+0000000000+Z
921934001921934304-001204     921934006001023737984FLOWER OCC. TEDDY/ROSES0000001000+00001402+00000+0001T   00001490+0006471905          1400 1IC510               2DZ
921935000921935               921935               170213DW     1400+00000+DW0000005260+0000005260+000000000+000000737+0000005997+0000000000+I40000005997+0000000000+Z
921935001921935200-000012     921935006003000399536BAG 50PCE 165x146mm    0000001000+00003507+00000+0001T   00003507+0000001906          1400 1IC214               2DZ
921935002921935012-000001     921935006003000331048MICRO PLATE-COVER 26X6 0000001000+00001753+00000+0001T   00002192+0008191906          1400 1IC300               2DZ
921936000921936               921936               170213DW     1400+00000+DW0000002892+0000002892+000000000+000000406+0000003290+0000000008+I20000000000+0000003290+Z
921936001921936264-000921     921936000090159150442MAISTO CAR 3" FRESH    0000001000+00001753+00000+0001T   00001753+0000001915          1400 1IC710               2DZ
921936002921936903-000087     921936006001704000161SWT SPECKLED-EGGS 50G  0000001000+00001139+00000+0001T   00001139+0000001915          1400 1IC150               2DZ
A17021300                                          16551925DWSLAVE 2                       1IC1IC
C92190400                                          170213DW050-000262-Z   12451110SLAVE 2     AW53IC0000000000+0000000000+0010000003000+
M17021391                              CASH        DWSLAVE 2                       Z-REPORT No.   703TOTAL (Sales - Refunds)           3713.15       CASH TO BE BANKED                 1971.70       DEBIT CARDS                          0.00       CREDIT CARDS                      1741.45       Z-READING                         3713.15       AIRTIME DEBIT CARD SALES             0.00       AIRTIME CARD SALES                   0.00       OVERS/UNDERS                         0.00       AIRTIME CASH SALES                   0.00       GIFT CARDS                           0.00       GIFT CARD CASH SALES                 0.00       T O T A L  CASH PAYOUTS              0.00                                                                                                                                                                                                                                                                                                                                                      Z
M17021392                              CASH        DWABSENT                                                                                                                                                                                          ANNUAL LEAVE                                                                                                                                                                                    DAY OFF                                                                                                                                                                                         COMMENTS                                                                                                                                                                                                                                                                                                                                                                                       Z
Y17021300                                          DW00000000390909+000078
ZDW17021321053 SLAVE 2      SALES DATA                     NEXT INVOICE NO.  921937 0703
F093777496-057190         1701171241360000021ICSLAVE 2
F093780496-056475         1701171228470000041ICSLAVE 2
F093780496-057190         1701171228470000021ICSLAVE 2
F093781496-028120         1701171218460000041ICSLAVE 2
F093781496-056475         1701171218460000051ICSLAVE 2
F093784496-058484         1701171153050000141ICSLAVE 2
F094147463-000501         1701171240560000061ICSLAVE 2
F094712016-006509         1702040855080000082ICSLAVE 2
X DW Slave 2 First invoice 921858 170213 Last invoice 921936 170213 Next invoice 921937 Total number of records 000000248 clbackup completed 21:05:41
