936603000936603               936603               170213DW     1400+00000+DW0000002192+0000002192+000000000+000000307+0000002490+0000000009+I20000000000+0000002490+Z
936603001936603080-000127     936603006003000424351VALENTINES DAY 36x24CM 0000001000+00002192+00000+0001T   00002192+0000001028          1400 VG3112               3AZ
936604000936604               936604               170213DW     1400+00000+DW0000008766+0000008766+000000000+000001229+0000009990+0000000005+I20000000000+0000009990+Z
936604001936604174-000011     936604006001023523778W/MACHINE-BAG 50x40cm  0000002000+00001753+00000+0001T   00001753+0000001104          1400 VG3205               3AZ
936604002936604174-000010     936604006001023462381W/MACHINE-BAG 25x40cm  0000001000+00001753+00000+0001T   00001753+0000001104          1400 VG3205               3AZ
936604003936604204-000030     936604006003000683536MEMO HOLDER SAYINGS    0000001000+00003507+00000+0001T   00003507+0000001104          1400 VG3300               3AZ
936605000936605               936605               170213DW     1400+00000+DW0000001753+0000001753+000000000+000000246+0000001999+0000000000+I40000001999+0000000000+Z
936605001936605037-000004     936605006001023763679ASHTRAY PL TUB 8X11CM  0000001000+00001753+00000+0001T   00002192+0008191107          1400 VG3515               3AZ
936606000936606               936606               170213DW     1400+00000+DW0000000700+0000000700+000000000+000000098+0000000790+0000000008+I20000000000+0000000790+Z
936606001936606566-002000     936606000721129013206STICKERS CRYSTAL ASSTD 0000001000+00000700+00000+0001T   00000700+0000001108          1400 VG3130               3AZ
936607000936607               936607               170213DW     1400+00000+DW0000004822+0000004822+000000000+000000676+0000005490+0000000008+I20000000000+0000005490+Z
936607001936607046-000011-A   936607006003000438891BATTERIES SIZE:AA  4PCE0000001000+00002630+00000+0001T   00002630+0000001335          1400 VG3312               3AZ
936607002936607077-000334     936607006001023760562GIFT-BAG PP ASSTD JUMBO0000001000+00002192+00000+0001T   00002192+0000001335          1400 VG3112               3AZ
936608000936608               936608               170213DW     1400+00000+DW0000003717+0000003717+000000000+000000521+0000004238+0000000000+I40000004238+0000000000+Z
936608001936608566-000359     936608006003000582709STICKER BOOK LOVE SPARK0000001000+00002192+00000+0001T   00002192+0000001506          1400 VG3130               3AZ
936608002936608077-000299     936608006003000395576G/BAG 32x25cm LRG LOVE 0000001000+00001490+00000+0001T   00001490+0000001506          1400 VG3112               3AZ
936608003936608112-116038     936608006009681820246TCS CARRIER BAG MIDI   0000001000+00000035+00000+0001T   00000035+0000001506          1400 VG3090               3AZ
936609000936609               936609               170213DW     1400+00000+DW0000003507+0000003507+000000000+000000491+0000003990+0000000008+I20000000000+0000003990+Z
936609001936609105-001250     936609006003000572991CONTAINER FROSTED 2000m0000001000+00003507+00000+0001T   00003507+0000001507          1400 VG3210               3AZ
936610000936610               936610               170213DW     1400+00000+DW0000001314+0000001314+000000000+000000184+0000001490+0000000008+I20000000000+0000001490+Z
936610001936610903-000194     936610006009826020616SWT CHOC RP LOLLY 25G  0000001000+00001314+00000+0001T   00001314+0000001508          1400 VG3150               3AZ
936611000936611               936611               170213DW     1400+00000+DW0000009382+0000009382+000000000+000001314+0000010690+0000000006+I20000000000+0000010690+Z
936611001936611018-005009     936611006001023725608MUG W/PLUSH-BEAR LOVE  0000001000+00003507+00000+0001T   00003507+0000001508          1400 VG3515               3AZ
936611002936611031-080508     936611006001023802415P/FRAME PL 22X11CM LOVE0000001000+00004385+00000+0001T   00004385+0000001508          1400 VG3510               3AZ
936611003936611077-000299     936611006003000395576G/BAG 32x25cm LRG LOVE 0000001000+00001490+00000+0001T   00001490+0000001508          1400 VG3112               3AZ
936612000936612               936612               170213DW     1400+00000+DW0000009253+0000009253+000000000+000001298+0000010551+0000000000+I40000010551+0000000000+Z
936612001936612206-000620     936612006003000631797BACK SCRATCHER EXTEND  0000001000+00002630+00000+0001T   00002630+0000001510          1400 VG3321               3AZ
936612002936612206-000210     936612006003000631582TOOTHPICK HOLDER FLOWER0000001000+00003069+00000+0001T   00003069+0000001510          1400 VG3321               3AZ
936612003936612077-000381     936612006003000247707GIFT-BAG 25X32CM S/COL 0000001000+00001753+00000+0001T   00001753+0000001510          1400 VG3112               3AZ
936612004936612077-000382     936612006003000247820GIFT-BAG MED 18X23CM   0000001000+00001753+00000+0001T   00001753+0000001510          1400 VG3112               3AZ
936612005936612112-116069     936612006009681820277TCS CARRIER BAG JUMBO  0000001000+00000048+00000+0001T   00000048+0000001510          1400 VG3090               3AZ
936613000936613               936613               170213DW     1400+00000+DW0000002630+0000002630+000000000+000000369+0000002990+0000000009+I20000000000+0000002990+Z
936613001936613220-005001     936613006003000565917ELOFF TABLE FORKS 4PC  0000001000+00002630+00000+0001T   00002630+0000001513          1400 VG3300               3AZ
936614000936614               936614               170213DW     1400+00000+DW0000010569+0000010569+000000000+000001480+0000012040+0000000009+I20000000000+0000012040+Z
936614001936614031-005923     936614006003000040322P/FRAME CERT PL 21x29.70000003000+00003507+00000+0001T   00003507+0000001514          1400 VG3510               3AZ
936614002936614112-116069     936614006009681820277TCS CARRIER BAG JUMBO  0000001000+00000048+00000+0001T   00000048+0000001514          1400 VG3090               3AZ
936615000936615               936615               170213DW     1400+00000+DW0000005310+0000005310+000000000+000000744+0000006050+0000000004+I20000000000+0000006050+Z
936615001936615140-005093     936615006003000331338INSECT-KILL RAQT-SHAPED0000001000+00005262+00000+0001T   00005262+0000001515          1400 VG3830               3AZ
936615002936615112-116069     936615006009681820277TCS CARRIER BAG JUMBO  0000001000+00000048+00000+0001T   00000048+0000001515          1400 VG3090               3AZ
936616000936616               936616               170213DW     1400+00000+DW0000000700+0000000700+000000000+000000098+0000000790+0000000008+I20000000000+0000000790+Z
936616001936616903-000126     936616006002099003591SWT ZILLIONS MINT 50G  0000001000+00000700+00000+0001T   00000700+0000001516          1400 VG3150               3AZ
936617000936617               936617               170213DW     1400+00000+DW0000001402+0000001402+000000000+000000197+0000001590+0000000009+I20000000000+0000001590+Z
936617001936617304-001204     936617006001023737984FLOWER OCC. TEDDY/ROSES0000001000+00001402+00000+0001T   00001490+0006471516          1400 VG3510               3AZ
936618000936618               936618               170213DW     1400+00000+DW0000014378+0000014378+000000000+000002015+0000016393+0000000000+I40000016393+0000000000+Z
936618001936618016-006517     936618006003000351626S/JAR GLS CHECK 650ML  0000001000+00002192+00000+0001T   00002192+0000001520          1400 VG3300               3AZ
936618002936618566-000068     936618006003000418046POP UP LOVE 2 ASSTD    0000002000+00002192+00000+0001T   00002192+0000001520          1400 VG3130               3AZ
936618003936618077-000299     936618006003000395576G/BAG 32x25cm LRG LOVE 0000001000+00001490+00000+0001T   00001490+0000001520          1400 VG3112               3AZ
936618004936618108-003023     936618006003000665471TUMBLER W/STRAW 550ml  0000001000+00002630+00000+0001T   00002630+0000001520          1400 VG3210               3AZ
936618005936618077-000305     936618006003000395422GIFT-BAG WINE 10X35CM  0000001000+00001490+00000+0001T   00001490+0000001520          1400 VG3112               3AZ
936618006936618080-000127     936618006003000424351VALENTINES DAY 36x24CM 0000001000+00002192+00000+0001T   00002192+0000001520          1400 VG3112               3AZ
936619000936619               936619               170213DW     1400+00000+DW0000002100+0000002100+000000000+000000294+0000002390+0000000004+I20000000000+0000002390+Z
936619001936619106-002110     936619006002580007312JUICE-BOTTLE JUMBO     0000003000+00000700+00000+0001T   00000700+0000001521          1400 VG3210               3AZ
936620000936620               936620               170213DW     1400+00000+DW0000009503+0000009503+000000000+000001332+0000010835+0000000000+I40000010835+0000000000+Z
936620001936620007-000047     936620006009635833698FILE DISPLAY-BK A4 50PG0000001000+00003946+00000+0001T   00003946+0000001525          1400 VG3130               3AZ
936620002936620562-000200     936620006001023732941PUSH-IN TRANSPORT      0000001000+00003507+00000+0001T   00003507+0000001525          1400 VG3755               3AZ
936620003936620903-000087     936620006001704000161SWT SPECKLED-EGGS 50G  0000001000+00001139+00000+0001T   00001139+0000001525          1400 VG3150               3AZ
936620004936620903-000482     936620006001704001397SWT SOFT-MINTS 60G     0000001000+00000876+00000+0001T   00000876+0000001525          1400 VG3150               3AZ
936620005936620112-116038     936620006009681820246TCS CARRIER BAG MIDI   0000001000+00000035+00000+0001T   00000035+0000001525          1400 VG3090               3AZ
936621000936621               936621               170213DW     1400+00000+DW0000002630+0000002630+000000000+000000369+0000002990+0000000009+I20000000000+0000002990+Z
936621001936621050-000261-Z   936621006001023535351PADLOCK BRS 20mm CARDED0000001000+00002630+00000+0001T   00002630+0000001526          1400 VG3855               3AZ
936622000936622               936622               170213DW     1400+00000+DW0000007890+0000007890+000000000+000001107+0000008997+0000000000+I40000008997+0000000000+Z
936622001936622080-000133-A   936622006003000647019MINI VALENTINES CARD   0000001000+00000437+00000+0001T   00000437+0000001531          1400 VG3112               3AZ
936622002936622206-000620     936622006003000631797BACK SCRATCHER EXTEND  0000001000+00002630+00000+0001T   00002630+0000001531          1400 VG3321               3AZ
936622003936622301-085001     936622006003000297610ORN WATERBALL LOVE ASST0000001000+00004823+00000+0001T   00004823+0000001531          1400 VG3505               3AZ
936623000936623               936623               170213DW     1400+00000+DW0000005698+0000005698+000000000+000000799+0000006497+0000000000+I40000006497+0000000000+Z
936623001936623563-000318-L   936623006003000407088SERVIETTES 33cm RED    0000001000+00002192+00000+0001T   00002192+0000001534          1400 VG3214               3AZ
936623002936623040-000922     936623006001023587817CANDLE-HOLDER GLS 18cm 0000002000+00001753+00000+0001T   00001753+0000001534          1400 VG3510               3AZ
936624000936624               936624               170213DW     1400+00000+DW0000003331+0000003331+000000000+000000467+0000003798+0000000000+I40000003798+0000000000+Z
936624001936624077-000303     936624006001023593757GIFT-BAG PAPER MED     0000001000+00001578+00000+0001T   00001578+0000001537          1400 VG3112               3AZ
936624002936624046-002032-PK2 936624004897006175063BATTERIES CR-2032  2PCE0000001000+00001753+00000+0001T   00001753+0000001537          1400 VG3312               3AZ
936625000936625               936625               170213DW     1400+00000+DW0000005787+0000005787+000000000+000000811+0000006590+0000000008+I20000000000+0000006590+Z
936625001936625304-001204     936625006001023737984FLOWER OCC. TEDDY/ROSES0000001000+00001402+00000+0001T   00001490+0006471537          1400 VG3510               3AZ
936625002936625261-003901     936625006001023707451GUN SET PL POLICE+ACCES0000001000+00004385+00000+0001T   00004385+0000001537          1400 VG3710               3AZ
936626000936626               936626               170213DW     1400+00000+DW0000009643+0000009643+000000000+000001352+0000010990+0000000005+I20000000000+0000010990+Z
936626001936626566-000031     936626006003000283910STICKER BK TEACHER STIC0000002000+00002192+00000+0001T   00002192+0000001538          1400 VG3130               3AZ
936626002936626566-000028     936626006003000265541STICKER BK ASSTD 250PCE0000003000+00001753+00000+0001T   00001753+0000001538          1400 VG3130               3AZ
936627000936627               936627               170213DW     1400+00000+DW0000001753+0000001753+000000000+000000246+0000001999+0000000000+I40000001999+0000000000+Z
936627001936627077-000299-A   936627006003000670888GIFT-BAG PAPER JMB LOVE0000001000+00001753+00000+0001T   00001753+0000001613          1400 VG3112               3AZ
936628000936628               936628               170213DW     1400+00000+DW0000004385+0000004385+000000000+000000614+0000004999+0000000000+I40000004999+0000000000+Z
936628001936628082-000100     936628006003000360246READING GLS STRENGHT:1 0000001000+00004385+00000+0001T   00004385+0000001628          1400 VG3160               3AZ
936629000936629               936629               170213DW     1400+00000+DW0000007049+0000007049+000000000+000000987+0000008036+0000000000+I40000008036+0000000000+Z
936629001936629560-000704     936629006003000592234ANIMALS BUGS&LIZARDS   0000002000+00003507+00000+0001T   00003507+0000001630          1400 VG3745               3AZ
936629002936629112-116038     936629006003000534906TCS CARRIER BAG MIDI   0000001000+00000035+00000+0001T   00000035+0000001630          1400 VG3090               3AZ
936630000936630               936630               170213DW     1400+00000+DW0000003507+0000003507+000000000+000000491+0000003990+0000000008+I20000000000+0000003990+Z
936630001936630051-600708     936630006003000604319S/GARDEN LIGHT 35cm S/S0000001000+00003507+00000+0001T   00003507+0000001631          1400 VG3820               3AZ
936631000936631               936631               170213DW     1400+00000+DW0000029502+0000029502+000000000+000004134+0000033636+0000000000+I40000033636+0000000000+Z
936631001936631079-013032-C   936631006003000389520POLY SHAPES            0000002000+00001578+00000+0001T   00001578+0000001636          1400 VG3130               3AZ
936631002936631006-000167-C   936631006003000516971BALLOONS PINK METALLIC 0000002000+00001314+00000+0001T   00001314+0000001636          1400 VG3131               3AZ
936631003936631006-000166-H   936631006003000608096BALLOONS HELIUM 6PC WHT0000001000+00001314+00000+0001T   00001314+0000001636          1400 VG3131               3AZ
936631004936631006-000111     936631006003000519385BALLOONS LARGE 12PCE   0000001000+00002630+00000+0001T   00002630+0000001636          1400 VG3131               3AZ
936631005936631018-000130     936631006001023867537MUG OCC LOVE MINI+HEART0000001000+00003507+00000+0001T   00003507+0000001636          1400 VG3515               3AZ
936631006936631018-000170     936631006001023775528MUG OCC. LOVE 2PC MINI 0000005000+00002192+00000+0001T   00002192+0000001636          1400 VG3515               3AZ
936631007936631006-000201-B   936631006003000601271PARTY BOYS DSGN A 8PC  0000001000+00001753+00000+0001T   00001753+0000001636          1400 VG3131               3AZ
936631008936631006-000208-H   936631006003000412945PINK/BLUE PLATES 23cm  0000002000+00001753+00000+0001T   00001753+0000001636          1400 VG3131               3AZ
936631009936631112-116069     936631006009681820277TCS CARRIER BAG JUMBO  0000001000+00000048+00000+0001T   00000048+0000001636          1400 VG3090               3AZ
936632000936632               936632               170213DW     1400+00000+DW0000001753+0000001753+000000000+000000246+0000001990+0000000009+I20000000000+0000001990+Z
936632001936632077-000299-A   936632006003000670888GIFT-BAG PAPER JMB LOVE0000001000+00001753+00000+0001T   00001753+0000001642          1400 VG3112               3AZ
936633000936633               936633               170213DW     1400+00000+DW0000001753+0000001753+000000000+000000246+0000001999+0000000000+I40000001999+0000000000+Z
936633001936633466-008889     936633006001023835376WHISTLE SPORTS+STRING  0000001000+00001753+00000+0001T   00001753+0000001644          1400 VG3785               3AZ
936634000936634               936634               170213DW     1400+00000+DW0000008943+0000008943+000000000+000001253+0000010190+0000000006+I20000000000+0000010190+Z
936634001936634565-000080     936634006003000643424NOVELTY BENDY          0000003000+00002192+00000+0001T   00002192+0000001644          1400 VG3745               3AZ
936634002936634046-000010-A   936634006003000438778BATTERIES SIZE:AAA 4PCE0000001000+00002367+00000+0001T   00002367+0000001644          1400 VG3312               3AZ
936635000936635               936635               170213DW     1400+00000+DW0000000876+0000000876+000000000+000000123+0000000990+0000000009+I20000000000+0000000990+Z
936635001936635031-000878-A   936635006001023798985P/FRAME 10x15cm PL-SLID0000001000+00000876+00000+0001T   00000876+0000001651          1400 VG3510               3AZ
936636000936636               936636               170213DW     1400+00000+DW0000005262+0000005262+000000000+000000737+0000005990+0000000009+I20000000000+0000005990+Z
936636001936636567-010161     936636009780000008516BOOK TOP ASSTD MILLS   0000001000+00005262+00000+0001T   00005262+0000001654          1400 VG3757               3AZ
936637000936637               936637               170213DW     1400+00000+DW0000012279+0000012279+000000000+000001720+0000013990+0000000009+I20000000000+0000013990+Z
936637001936637368-000113     936637006001023780874PLUSH BLINGED LOVE 30cm0000001000+00012279+00000+0001T   00012279+0000001655          1400 VG3745               3AZ
936638000936638               936638               170213DW     1400+00000+DW0000017622+0000017622+000000000+000002470+0000020092+0000000000+I40000020092+0000000000+Z
936638001936638565-000042     936638006003000252459NOVELTY STRESS BALL    0000001000+00001314+00000+0001T   00001314+0000001658          1400 VG3745               3AZ
936638002936638565-000002     936638006003000308071NOVELTY GROWING ANIMALS0000001000+00001753+00000+0001T   00001753+0000001658          1400 VG3745               3AZ
936638003936638007-000557     936638006003000379484DIARY GIRL W/LOCK 50PG 0000001000+00002630+00000+0001T   00002630+0000001658          1400 VG3130               3AZ
936638004936638560-000700     936638006001023865830GROWING ANIMALS ASSTD  0000001000+00001578+00000+0001T   00001578+0000001658          1400 VG3745               3AZ
936638005936638077-000303     936638006001023593757GIFT-BAG PAPER MED     0000001000+00001578+00000+0001T   00001578+0000001658          1400 VG3112               3AZ
936638006936638077-000299-A   936638006003000670888GIFT-BAG PAPER JMB LOVE0000001000+00001753+00000+0001T   00001753+0000001658          1400 VG3112               3AZ
936638007936638263-000417     936638006003000598984VEHICLES MONSTER FRICT.0000001000+00007016+00000+0001T   00007016+0000001658          1400 VG3710               3AZ
936639000936639               936639               170213DW     1400+00000+DW0000005262+0000005262+000000000+000000737+0000005990+0000000009+I20000000000+0000005990+Z
936639001936639464-000256     936639006003000523559GAME CHESS 20x20cm     0000001000+00005262+00000+0001T   00005262+0000001658          1400 VG3785               3AZ
936640000936640               936640               170213DW     1400+00000+DW0000008327+0000008327+000000000+000001168+0000009495+0000000000+I40000009495+0000000000+Z
936640001936640077-000385     936640006003000275366G/BAG GLITTER 18x23CM  0000001000+00001314+00000+0001T   00001314+0000001701          1400 VG3112               3AZ
936640002936640159-000636     936640006003000036035BATH PUMICE,BRUSH,FILE 0000001000+00001753+00000+0001T   00001753+0000001701          1400 VG3200               3AZ
936640003936640033-000140     936640006003000676972HAIR BRUSH BRIGHT      0000002000+00002630+00000+0001T   00002630+0000001701          1400 VG3200               3AZ
936641000936641               936641               170213DW     1400+00000+DW0000003507+0000003507+000000000+000000491+0000003990+0000000008+I20000000000+0000003990+Z
936641001936641301-085004     936641006003000420469ORN LOVE PLAQUE 21X10CM0000001000+00003507+00000+0001T   00003946+0006471710          1400 VG3505               3AZ
936642000936642               936642               170213DW     1400+00000+DW0000003244+0000003244+000000000+000000455+0000003690+0000000009+I20000000000+0000003690+Z
936642001936642046-000400     936642006001023804983BATT ALKALINE 1.5Vx30PC0000001000+00003244+00000+0001T   00003244+0000001713          1400 VG3312               3AZ
936643000936643               936643               170213DW     1400+00000+DW0000010070+0000010070+000000000+000001414+0000011480+0000000004+I20000000000+0000011480+Z
936643001936643304-001204     936643006001023737984FLOWER OCC. TEDDY/ROSES0000002000+00001402+00000+0001T   00001490+0006471714          1400 VG3510               3AZ
936643002936643903-000094     936643006923431501622SWT GS CANDY NECKLACE  0000001000+00000437+00000+0001T   00000437+0000001714          1400 VG3150               3AZ
936643003936643018-000129     936643006001023403353MUG OCC. LOVE V-SHAPE  0000001000+00002630+00000+0001T   00002630+0000001714          1400 VG3515               3AZ
936643004936643006-000850     936643006009645926649PARTY LUCKY-PACKET GIRL0000001000+00003946+00000+0001T   00003946+0000001714          1400 VG3131               3AZ
936643005936643006-000172-K   936643006003000610334BALLOONS METALLIC PURPL0000001000+00000218+00000+0001T   00000218+0000001714          1400 VG3131               3AZ
936643006936643112-116038     936643006009681820246TCS CARRIER BAG MIDI   0000001000+00000035+00000+0001T   00000035+0000001714          1400 VG3090               3AZ
936644000936644               936644               170213DW     1400+00000+DW0000014066+0000014066+000000000+000001970+0000016036+0000000000+I40000016036+0000000000+Z
936644001936644368-000183     936644006003000668175PLUSH BEAR 15cm        0000001000+00005262+00000+0001T   00005262+0000001716          1400 VG3745               3AZ
936644002936644031-000864-C   936644006001023798411P/FRAME MAHOGANY 20X25 0000001000+00005262+00000+0001T   00005262+0000001716          1400 VG3510               3AZ
936644003936644031-000864-B   936644006001023798381P/FRAME MAHOGANY 13X18 0000001000+00003507+00000+0001T   00003507+0000001716          1400 VG3510               3AZ
936644004936644112-116038     936644006009681820246TCS CARRIER BAG MIDI   0000001000+00000035+00000+0001T   00000035+0000001716          1400 VG3090               3AZ
936645000936645               936645               170213DW     1400+00000+DW0000004385-0000004385-000000000+000000614-0000005000-0000000001+I20000000000+0000005000-Z
936645001936645159-000216     936645006001023195371SHOWER-CURTAIN 183cm   0000001000-00004385+00000+0001T   00004385+0000001720          1400 VG32001IC            3DZ
936646000936646               936646               170213DW     1400+00000+DW0000007760+0000007760+000000000+000001087+0000008847+0000000000+I40000008847+0000000000+Z
936646001936646200-000100     936646006001023764003CUPS 25PCE DISPOSABLE  0000004000+00001928+00000+0001T   00001928+0000001723          1400 VG3214               3AZ
936646002936646112-116069     936646006009681820277TCS CARRIER BAG JUMBO  0000001000+00000048+00000+0001T   00000048+0000001723          1400 VG3090               3AZ
936647000936647               936647               170213DW     1400+00000+DW0000004208+0000004208+000000000+000000590+0000004798+0000000000+I40000004798+0000000000+Z
936647001936647903-002900     936647005996071650648QUICK MILK 5 CHOCO 5PC 0000001000+00001578+00000+0001T   00001578+0000001725          1400 VG3150               3AZ
936647002936647206-000620     936647006003000631797BACK SCRATCHER EXTEND  0000001000+00002630+00000+0001T   00002630+0000001725          1400 VG3321               3AZ
936648000936648               936648               170213DW     1400+00000+DW0000000876+0000000876+000000000+000000123+0000000999+0000000000+I40000000999+0000000000+Z
936648001936648077-000151     936648006008766114676GIFT-WRAP C/PHANE ASSTD0000001000+00000876+00000+0001T   00000876+0000001751          1400 VG3112               3AZ
936649000936649               936649               170213DW     1400+00000+DW0000003507+0000003507+000000000+000000491+0000003998+0000000000+I40000003998+0000000000+Z
936649001936649018-005009     936649006001023725608MUG W/PLUSH-BEAR LOVE  0000001000+00003507+00000+0001T   00003507+0000001752          1400 VG3515               3AZ
936650000936650               936650               170213DW     1400+00000+DW0000008771+0000008771+000000000+000001228+0000009990+0000000009+I20000000000+0000009990+Z
936650001936650039-000799     936650006001023692382CANDLES TEALITE 100PCE 0000001000+00008771+00000+0001T   00008771+0000001752          1400 VG3510               3AZ
936651000936651               936651               170213DW     1400+00000+DW0000001314+0000001314+000000000+000000184+0000001490+0000000008+I20000000000+0000001490+Z
936651001936651903-000194     936651006009826020616SWT CHOC RP LOLLY 25G  0000001000+00001314+00000+0001T   00001314+0000001754          1400 VG3150               3AZ
936652000936652               936652               170213DW     1400+00000+DW0000004556+0000004556+000000000+000000640+0000005196+0000000000+I40000005196+0000000000+Z
936652001936652903-000709     936652006002099007070SWT QUENCHERS FRUIT    0000002000+00001139+00000+0001T   00001139+0000001756          1400 VG3150               3AZ
936652002936652903-000710     936652006002099007056SWT REFRESHERS MINT    0000002000+00001139+00000+0001T   00001139+0000001756          1400 VG3150               3AZ
936653000936653               936653               170213DW     1400+00000+DW0000007189+0000007189+000000000+000001008+0000008197+0000000000+I40000008197+0000000000+Z
936653001936653306-000021-A   936653006001023891358EARBUDS COTTON 100PCE  0000001000+00000876+00000+0001T   00000876+0000001759          1400 VG3200               3AZ
936653002936653033-000124     936653006009654960597COMBS HANDLE + TAIL 2PC0000001000+00001051+00000+0001T   00001051+0000001759          1400 VG3200               3AZ
936653003936653265-001659     936653006003000294527BOAT PL B/O            0000001000+00005262+00000+0001T   00005262+0000001759          1400 VG3710               3AZ
936654000936654               936654               170213DW     1400+00000+DW0000006083+0000006083+000000000+000000853+0000006930+0000000006+I20000000000+0000006930+Z
936654001936654304-001204     936654006001023737984FLOWER OCC. TEDDY/ROSES0000001000+00001402+00000+0001T   00001490+0006471800          1400 VG3510               3AZ
936654002936654089-000192-A   936654006001023901774KEY-CHAIN ACRYLIC      0000001000+00000876+00000+0001T   00000876+0000001800          1400 VG3205               3AZ
936654003936654077-000303     936654006001023593757GIFT-BAG PAPER MED     0000001000+00001578+00000+0001T   00001578+0000001800          1400 VG3112               3AZ
936654004936654112-116038     936654006009681820246TCS CARRIER BAG MIDI   0000001000+00000035+00000+0001T   00000035+0000001800          1400 VG3090               3AZ
936654005936654031-000868-A   936654006001023798534P/FRAME PL BLCK 10X15CM0000001000+00002192+00000+0001T   00002192+0000001800          1400 VG3510               3AZ
936655000936655               936655               170213DW     1400+00000+DW0000010518-0000010518-000000000+000001476-0000012000-0000000006+I20000000000+0000012000-Z
936655001936655009-001455     936655006001023696038MELAMINE PLATE 25cm    0000006000-00001753+00000+0001T   00001753+0000001802          1400 VG32101IC            3 Z
936656000936656               936656               170213DW     1400+00000+DW0000004153+0000004153+000000000+000000583+0000004736+0000000000+I40000004736+0000000000+Z
936656001936656031-000878-A   936656006001023798985P/FRAME 10x15cm PL-SLID0000003000+00000876+00000+0001T   00000876+0000001804          1400 VG3510               3AZ
936656002936656031-000878-B   936656006001023799012P/FRAME 13x18cm PL-SLID0000001000+00001490+00000+0001T   00001490+0000001804          1400 VG3510               3AZ
936656003936656112-116038     936656006009681820246TCS CARRIER BAG MIDI   0000001000+00000035+00000+0001T   00000035+0000001804          1400 VG3090               3AZ
936657000936657               936657               170213DW     1400+00000+DW0000008806+0000008806+000000000+000001233+0000010030+0000000009+I20000000000+0000010030+Z
936657001936657031-000924     936657006001023669964P/FRAME COLLAGE PL     0000001000+00008771+00000+0001T   00008771+0000001807          1400 VG3510               3AZ
936657002936657112-116038     936657006009681820246TCS CARRIER BAG MIDI   0000001000+00000035+00000+0001T   00000035+0000001807          1400 VG3090               3AZ
936658000936658               936658               170213DW     1400+00000+DW0000009377+0000009377+000000000+000001315+0000010692+0000000000+I40000010692+0000000000+Z
936658001936658079-006496     936658006003000160105GLITTER SHAKERS        0000001000+00001753+00000+0001T   00001753+0000001809          1400 VG3130               3AZ
936658002936658077-000239     936658006003000160419GIFT-RIBBON ROLL PEARL 0000001000+00001753+00000+0001T   00001753+0000001809          1400 VG3112               3AZ
936658003936658006-000166-G   936658006003000607976BALLOONS HELIUM 6PC BLK0000001000+00001314+00000+0001T   00001314+0000001809          1400 VG3131               3AZ
936658004936658006-000166-H   936658006003000608096BALLOONS HELIUM 6PC WHT0000001000+00001314+00000+0001T   00001314+0000001809          1400 VG3131               3AZ
936658005936658039-000108     936658006001023524034TEA-LITE CANDLES 8PCE  0000001000+00001490+00000+0001T   00001490+0000001809          1400 VG3510               3AZ
936658006936658563-000317-J   936658006001023776419SERVIETTE 2PLY 33cm    0000001000+00001753+00000+0001T   00001753+0000001809          1400 VG3214               3AZ
936659000936659               936659               170213DW     1400+00000+DW0000007927+0000007927+000000000+000001111+0000009038+0000000000+I40000009038+0000000000+Z
936659001936659159-000636     936659006003000036035BATH PUMICE,BRUSH,FILE 0000001000+00001753+00000+0001T   00001753+0000001810          1400 VG3200               3AZ
936659002936659007-000323     936659006009697791042PAPER A4 80GSM 100'S   0000001000+00006139+00000+0001T   00006139+0000001810          1400 VG3130               3AZ
936659003936659112-116038     936659006009681820246TCS CARRIER BAG MIDI   0000001000+00000035+00000+0001T   00000035+0000001810          1400 VG3090               3AZ
936660000936660               936660               170213DW     1400+00000+DW0000003506+0000003506+000000000+000000492+0000003990+0000000008+I20000000000+0000003990+Z
936660001936660037-000004     936660006001023763679ASHTRAY PL TUB 8X11CM  0000002000+00001753+00000+0001T   00002192+0008191811          1400 VG3515               3AZ
936661000936661               936661               170213DW     1400+00000+DW0000004385+0000004385+000000000+000000614+0000004990+0000000009+I20000000000+0000004990+Z
936661001936661369-001032     936661006001023796158BABY RATTLE SET 6PCE   0000001000+00004385+00000+0001T   00004385+0000001811          1400 VG3745               3AZ
936662000936662               936662               170213DW     1400+00000+DW0000000876+0000000876+000000000+000000123+0000000990+0000000009+I20000000000+0000000990+Z
936662001936662028-000797     936662006001023812124SKEWERS 15cm 100PCE    0000001000+00000876+00000+0001T   00000876+0000001812          1400 VG33051IC            3AZ
936663000936663               936663               170213DW     1400+00000+DW0000000876+0000000876+000000000+000000123+0000000990+0000000009+I20000000000+0000000990+Z
936663001936663903-000673     936663006009803358237SWT SHERBET GRAPE 4PK  0000001000+00000876+00000+0001T   00000876+0000001814          1400 VG3150               3AZ
936664000936664               936664               170213DW     1400+00000+DW0000007924+0000007924+000000000+000001112+0000009030+0000000006+I20000000000+0000009030+Z
936664001936664078-000025     936664008887013700064SUPERGLUE 3g 1PCE CARD 0000001000+00000876+00000+0001T   00000876+0000001818          1400 VG3810               3AZ
936664002936664159-000040     936664006001023767691HOOK-HANGER 4PC S/S    0000001000+00002630+00000+0001T   00002630+0000001818          1400 VG3200               3AZ
936664003936664077-000358     936664006003000329977GIFT-BAG KIDS 25X32CM  0000001000+00001753+00000+0001T   00001753+0000001818          1400 VG3112               3AZ
936664004936664056-065303     936664006001023821041SUN-SHIELD 2PCE ANIMAL 0000001000+00002630+00000+0001T   00002630+0000001818          1400 VG3860               3AZ
936664005936664112-116038     936664006009681820246TCS CARRIER BAG MIDI   0000001000+00000035+00000+0001T   00000035+0000001818          1400 VG3090               3AZ
936665000936665               936665               170213DW     1400+00000+DW0000006139+0000006139+000000000+000000860+0000006990+0000000009+I20000000000+0000006990+Z
936665001936665018-050000     936665006003000412679MUG OCC LOVE TWIN BEAR 0000001000+00006139+00000+0001T   00006139+0000001819          1400 VG3515               3AZ
936666000936666               936666               170213DW     1400+00000+DW0000002629+0000002629+000000000+000000369+0000002990+0000000008+I20000000000+0000002990+Z
936666001936666028-000797     936666006001023812124SKEWERS 15cm 100PCE    0000001000+00000876+00000+0001T   00000876+0000001819          1400 VG3305               3AZ
936666002936666079-013099     936666006003000081875ART+CRAFT EYES ASSTD   0000001000+00001753+00000+0001T   00001753+0000001819          1400 VG3130               3AZ
936667000936667               936667               170213DW     1400+00000+DW0000001753+0000001753+000000000+000000246+0000001990+0000000009+I20000000000+0000001990+Z
936667001936667566-000362     936667006003000583065STICKER LETTER & NUMBER0000001000+00001753+00000+0001T   00001753+0000001819          1400 VG3130               3AZ
936668000936668               936668               170213DW     1400+00000+DW0000006139+0000006139+000000000+000000860+0000006999+0000000000+I40000006999+0000000000+Z
936668001936668368-000265     936668006001023750914PLUSH BEAR 23CM ASSTD C0000001000+00006139+00000+0001T   00006139+0000001821          1400 VG3745               3AZ
936669000936669               936669               170213DW     1400+00000+DW0000007892+0000007892+000000000+000001106+0000008998+0000000000+I40000008998+0000000000+Z
936669001936669077-000455     936669006003000285389G/BAG METALLIC LRG SOL 0000001000+00001753+00000+0001T   00001753+0000001831          1400 VG3112               3AZ
936669002936669018-050000     936669006003000412679MUG OCC LOVE TWIN BEAR 0000001000+00006139+00000+0001T   00006139+0000001831          1400 VG3515               3AZ
936670000936670               936670               170213DW     1400+00000+DW0000007834+0000007834+000000000+000001100+0000008934+0000000000+I40000008934+0000000000+Z
936670001936670560-000703     936670006003000332403INSECTS 9PC ASSTD      0000001000+00001753+00000+0001T   00001753+0000001833          1400 VG3745               3AZ
936670002936670903-000211     936670006002099001238SWT GS MALLOW ICE CREAM0000001000+00001753+00000+0001T   00001753+0000001833          1400 VG3150               3AZ
936670003936670903-000123     936670006925925909280SWEET GS MINI MALLOWS  0000001000+00000876+00000+0001T   00000876+0000001833          1400 VG3150               3AZ
936670004936670903-000087     936670006001704000161SWT SPECKLED-EGGS 50G  0000003000+00001139+00000+0001T   00001139+0000001833          1400 VG3150               3AZ
936670005936670112-116038     936670006009681820246TCS CARRIER BAG MIDI   0000001000+00000035+00000+0001T   00000035+0000001833          1400 VG3090               3AZ
936671000936671               936671               170213DW     1400+00000+DW0000000876+0000000876+000000000+000000123+0000000990+0000000009+I20000000000+0000000990+Z
936671001936671078-000025     936671008887013700064SUPERGLUE 3g 1PCE CARD 0000001000+00000876+00000+0001T   00000876+0000001833          1400 VG3810               3AZ
936672000936672               936672               170213DW     1400+00000+DW0000007050+0000007050+000000000+000000988+0000008038+0000000000+I40000008038+0000000000+Z
936672001936672469-003001     936672006003000541560BUILDING BLOCKS VEHICLE0000001000+00001753+00000+0001T   00001753+0000001841          1400 VG3755               3AZ
936672002936672031-086301-B   936672006001023910219P/FRAME PL BRONZE 13X180000001000+00005262+00000+0001T   00005262+0000001841          1400 VG3510               3AZ
936672003936672112-116038     936672006009681820246TCS CARRIER BAG MIDI   0000001000+00000035+00000+0001T   00000035+0000001841          1400 VG3090               3AZ
936673000936673               936673               170213DW     1400+00000+DW0000001753+0000001753+000000000+000000246+0000001990+0000000009+I20000000000+0000001990+Z
936673001936673077-000299-A   936673006003000670888GIFT-BAG PAPER JMB LOVE0000001000+00001753+00000+0001T   00001753+0000001841          1400 VG3112               3AZ
936674000936674               936674               170213DW     1400+00000+DW0000001927+0000001927+000000000+000000271+0000002190+0000000008+I20000000000+0000002190+Z
936674001936674039-000108     936674006001023524034TEA-LITE CANDLES 8PCE  0000001000+00001490+00000+0001T   00001490+0000001846          1400 VG3510               3AZ
936674002936674083-000049     936674004891035200024CIG-LIGHTER DISPOSABLE 0000001000+00000437+00000+0001T   00000437+0000001846          1400 VG3315               3AZ
936675000936675               936675               170213DW     1400+00000+DW0000002630+0000002630+000000000+000000369+0000002990+0000000009+I20000000000+0000002990+Z
936675001936675018-000129     936675006001023403353MUG OCC. LOVE V-SHAPE  0000001000+00002630+00000+0001T   00002630+0000001847          1400 VG3515               3AZ
936676000936676               936676               170213DW     1400+00000+DW0000007364+0000007364+000000000+000001033+0000008397+0000000000+I40000008397+0000000000+Z
936676001936676079-009702-A   936676008427973059408PAPER SIRIO A2 BLACK   0000002000+00001051+00000+0001T   00001051+0000001850          1400 VG3130               3AZ
936676002936676366-002195     936676006001023990549DRESS UP WINGS FEATHER 0000001000+00005262+00000+0001T   00005262+0000001850          1400 VG3131               3AZ
936677000936677               936677               170213DW     1400+00000+DW0000004385+0000004385+000000000+000000614+0000004990+0000000009+I20000000000+0000004990+Z
936677001936677079-001001     936677006003000448593CANVAS A3 WOOD MOUNTED 0000001000+00004385+00000+0001T   00004385+0000001851          1400 VG3130               3AZ
936678000936678               936678               170213DW     1400+00000+DW0000000700+0000000700+000000000+000000098+0000000790+0000000008+I20000000000+0000000790+Z
936678001936678564-000012     936678006001023130075BUBBLE BOTTLE MAGIC    0000001000+00000700+00000+0001T   00000700+0000001852          1400 VG3131               3AZ
936679000936679               936679               170213DW     1400+00000+DW0000002278+0000002278+000000000+000000320+0000002590+0000000008+I20000000000+0000002590+Z
936679001936679903-000483     936679006001704001410SWT LIQUOR SML SORT 60G0000001000+00000876+00000+0001T   00000876+0000001853          1400 VG3150               3AZ
936679002936679304-001204     936679006001023737984FLOWER OCC. TEDDY/ROSES0000001000+00001402+00000+0001T   00001490+0006471853          1400 VG3510               3AZ
936680000936680               936680               170213DW     1400+00000+DW0000004207+0000004207+000000000+000000590+0000004797+0000000000+I40000004797+0000000000+Z
936680001936680077-000303     936680006001023593757GIFT-BAG PAPER MED     0000002000+00001578+00000+0001T   00001578+0000001859          1400 VG3112               3AZ
936680002936680903-002891     936680008935001721376MENTOS GUM WINTERGREEN 0000001000+00001051+00000+0001T   00001051+0000001859          1400 VG3150               3AZ
936681000936681               936681               170213DW     1400+00000+DW0000003678+0000003678+000000000+000000516+0000004194+0000000000+I40000004194+0000000000+Z
936681001936681006-001000     936681006003000093779HELIUM BALLOON FILL    0000006000+00000613+00000+0001T   00000613+0000001909          1400 VG3131               3AZ
936682000936682               936682               170213DW     1400+00000+DW0000016448+0000016448+000000000+000002304+0000018752+0000000000+I40000018752+0000000000+Z
936682001936682077-000299     936682006003000395576G/BAG 32x25cm LRG LOVE 0000001000+00001490+00000+0001T   00001490+0000001911          1400 VG3112               3AZ
936682002936682018-050000     936682006003000412679MUG OCC LOVE TWIN BEAR 0000001000+00006139+00000+0001T   00006139+0000001911          1400 VG3515               3AZ
936682003936682368-000614     936682006001023705808PLUSH LOVE 30cm        0000001000+00008771+00000+0001T   00008771+0000001911          1400 VG3745               3AZ
936682004936682112-116069     936682006009681820277TCS CARRIER BAG JUMBO  0000001000+00000048+00000+0001T   00000048+0000001911          1400 VG3090               3AZ
936683000936683               936683               170213DW     1400+00000+DW0000001753+0000001753+000000000+000000246+0000001990+0000000009+I20000000000+0000001990+Z
936683001936683046-000014-A   936683004897006177708BATTERIES SIZE:AAA 8PCE0000001000+00001753+00000+0001T   00001753+0000001912          1400 VG3312               3AZ
936684000936684               936684               170213DW     1400+00000+DW0000050650+0000050650+000000000+000007096+0000057740+0000000006+I20000000000+0000057740+Z
936684001936684264-015494     936684000090159154945MAISTO DINKY MUSCLE CAR0000002000+00007893+00000+0001T   00007893+0000001915          1400 VG3710               3AZ
936684002936684018-030000     936684006003000421060MUG OCCASIONS LOVE 2PCE0000001000+00004385+00000+0001T   00004385+0000001915          1400 VG3515               3AZ
936684003936684077-000270     936684006003000395453GIFT-BAG PPR JMB 33X45 0000001000+00002630+00000+0001T   00002630+0000001915          1400 VG3112               3AZ
936684004936684077-000299     936684006003000395576G/BAG 32x25cm LRG LOVE 0000001000+00001490+00000+0001T   00001490+0000001915          1400 VG3112               3AZ
936684005936684368-000001     936684006003000097982Plush Bear 25cm        0000001000+00004385+00000+0001T   00004385+0000001915          1400 VG3745               3AZ
936684006936684368-000113     936684006001023780874PLUSH BLINGED LOVE 30cm0000001000+00012279+00000+0001T   00012279+0000001915          1400 VG3745               3AZ
936684007936684301-085003     936684006003000420827ORN OCCASION LOVE KEY  0000001000+00005262+00000+0001T   00005262+0000001915          1400 VG3505               3AZ
936684008936684368-000001     936684006003000097982Plush Bear 25cm        0000001000+00004385+00000+0001T   00004385+0000001915          1400 VG3745               3AZ
936684009936684112-116069     936684006009681820277TCS CARRIER BAG JUMBO  0000001000+00000048+00000+0001T   00000048+0000001915          1400 VG3090               3AZ
936685000936685               936685               170213DW     1400+00000+DW0000000876+0000000876+000000000+000000123+0000000990+0000000009+I20000000000+0000000990+Z
936685001936685047-000505     936685006009636901976PLUG-ADAPTOR 2-PIN     0000001000+00000876+00000+0001T   00000876+0000001919          1400 VG3880               3AZ
936686000936686               936686               170213DW     1400+00000+DW0000003507+0000003507+000000000+000000491+0000003990+0000000008+I20000000000+0000003990+Z
936686001936686018-005009     936686006001023725608MUG W/PLUSH-BEAR LOVE  0000001000+00003507+00000+0001T   00003507+0000001923          1400 VG3515               3AZ
936687000936687               936687               170213DW     1400+00000+DW0000003507+0000003507+000000000+000000491+0000003998+0000000000+I40000003998+0000000000+Z
936687001936687162-093281     936687006001492932811#TAG STATEMENT STUDS   0000001000+00003507+00000+0001T   00003507+0000001926          1400 VG3160               3AZ
936688000936688               936688               170213DW     1400+00000+DW0000002366+0000002366+000000000+000000332+0000002690+0000000008+I20000000000+0000002690+Z
936688001936688077-000303     936688006001023593757GIFT-BAG PAPER MED     0000001000+00001578+00000+0001T   00001578+0000001927          1400 VG3112               3AZ
936688002936688077-000010-D   936688006001023123886CREPE-PAPER WHITE      0000001000+00000788+00000+0001T   00000788+0000001927          1400 VG3112               3AZ
936689000936689               936689               170213DW     1400+00000+DW0000005646+0000005646+000000000+000000791+0000006430+0000000007+I20000000000+0000006430+Z
936689001936689018-000136     936689006001023659026MUG OCC LOVE W/PLUSH   0000001000+00003507+00000+0001T   00003507+0000001928          1400 VG3515               3AZ
936689002936689903-000095     936689006001704011495SWT SPECKLED-EGGS 100G 0000001000+00002104+00000+0001T   00002104+0000001928          1400 VG3150               3AZ
936689003936689112-116038     936689006009681820246TCS CARRIER BAG MIDI   0000001000+00000035+00000+0001T   00000035+0000001928          1400 VG3090               3AZ
936690000936690               936690               170213DW     1400+00000+DW0000006138+0000006138+000000000+000000860+0000006998+0000000000+I40000006998+0000000000+Z
936690001936690567-010161     936690009780000008516BOOK TOP ASSTD MILLS   0000001000+00005262+00000+0001T   00005262+0000001930          1400 VG3757               3AZ
936690002936690077-000151     936690006008766114676GIFT-WRAP C/PHANE ASSTD0000001000+00000876+00000+0001T   00000876+0000001930          1400 VG3112               3AZ
936691000936691               936691               170213DW     1400+00000+DW0000003507+0000003507+000000000+000000491+0000003990+0000000008+I20000000000+0000003990+Z
936691001936691018-005009     936691006001023725608MUG W/PLUSH-BEAR LOVE  0000001000+00003507+00000+0001T   00003507+0000001931          1400 VG3515               3AZ
936692000936692               936692               170213DW     1400+00000+DW0000006138+0000006138+000000000+000000860+0000006998+0000000000+I40000006998+0000000000+Z
936692001936692368-000001     936692006003000097982Plush Bear 25cm        0000001000+00004385+00000+0001T   00004385+0000001944          1400 VG3745               3AZ
936692002936692077-000309     936692006001023608604GIFT-BAG 25X32CM GLOSS 0000001000+00001753+00000+0001T   00001753+0000001944          1400 VG3112               3AZ
936693000936693               936693               170213DW     1400+00000+DW0000004870+0000004870+000000000+000000683+0000005550+0000000003+I20000000000+0000005550+Z
936693001936693018-000129     936693006001023403353MUG OCC. LOVE V-SHAPE  0000001000+00002630+00000+0001T   00002630+0000001945          1400 VG3515               3AZ
936693002936693080-000127     936693006003000424351VALENTINES DAY 36x24CM 0000001000+00002192+00000+0001T   00002192+0000001945          1400 VG3112               3AZ
936693003936693112-116069     936693006009681820277TCS CARRIER BAG JUMBO  0000001000+00000048+00000+0001T   00000048+0000001945          1400 VG3090               3AZ
936694000936694               936694               170213DW     1400+00000+DW0000007050+0000007050+000000000+000000988+0000008030+0000000008+I20000000000+0000008030+Z
936694001936694565-000056     936694006003000643325NOVELTY FINGER BEAMS   0000001000+00001753+00000+0001T   00001753+0000001946          1400 VG3745               3AZ
936694002936694562-000211     936694006001023851536PUSH-IN BOARD ALPHABET 0000001000+00005262+00000+0001T   00005262+0000001946          1400 VG3755               3AZ
936694003936694112-116038     936694006009681820246TCS CARRIER BAG MIDI   0000001000+00000035+00000+0001T   00000035+0000001946          1400 VG3090               3AZ
936695000936695               936695               170213DW     1400+00000+DW0000002630+0000002630+000000000+000000369+0000002990+0000000009+I20000000000+0000002990+Z
936695001936695083-000058     936695006003000400331LIGHTER JET CIGAR REFIL0000001000+00002630+00000+0001T   00002630+0000001947          1400 VG3315               3AZ
936696000936696               936696               170213DW     1400+00000+DW0000000525+0000000525+000000000+000000074+0000000590+0000000009+I20000000000+0000000590+Z
936696001936696903-000155     936696006009803374435SWT LOLLY I LUV U HEART0000001000+00000525+00000+0001T   00000525+0000001947          1400 VG3150               3AZ
936697000936697               936697               170213DW     1400+00000+DW0000000786+0000000786+000000000+000000112+0000000890+0000000008+I20000000000+0000000890+Z
936697001936697001-000001     936697006001023507266SHOT-GLASS 25ml        0000002000+00000393+00000+0001T   00000393+0000001950          1400 VG3515               3AZ
936698000936698               936698               170213DW     1400+00000+DW0000003507+0000003507+000000000+000000491+0000003998+0000000000+I40000003998+0000000000+Z
936698001936698301-085004     936698006003000420469ORN LOVE PLAQUE 21X10CM0000001000+00003507+00000+0001T   00003946+0006471954          1400 VG3505               3AZ
936699000936699               936699               170213DW     1400+00000+DW0000021047+0000021047+000000000+000002949+0000023996+0000000000+I40000023996+0000000000+Z
936699001936699079-000590     936699006003000543236SKETCH PAD & PAINT SET 0000001000+00007016+00000+0001T   00007016+0000001955          1400 VG3130               3AZ
936699002936699466-072725     936699006001023622532YO-YO PL               0000001000+00002630+00000+0001T   00002630+0000001955          1400 VG3785               3AZ
936699003936699464-008106     936699006003000611966GAME 3 IN 1 CHESS      0000001000+00008771+00000+0001T   00008771+0000001955          1400 VG3785               3AZ
936699004936699046-000011-A   936699006003000438891BATTERIES SIZE:AA  4PCE0000001000+00002630+00000+0001T   00002630+0000001955          1400 VG3312               3AZ
A17021300                                          19234002DWSLAVE 3                       VG31IC
A17021301                                          19371637DWSLAVE 3                       VG31IC
B93666200                                          170213DW028-000797     18122785SLAVE 3     VG31IC0000002000+0000001000+0000000000000+
C93660500                                          170213DW039-000799     11065358SLAVE 3     VG31IC0000000000+0000000000+0020000001000+
C93662000                                          170213DW206-000620     15240627SLAVE 3     VG33IC0000000000+0000000000+0010000001000+
C93662001                                          170213DW301-085001     15241608SLAVE 3     VG33IC0000000000+0000000000+0020000001000+
M17021391                              CASH        DWSLAVE 3                       Z-REPORT No.   697TOTAL (Sales - Refunds)           6306.38       CASH TO BE BANKED                 2994.40       DEBIT CARDS                          0.00       CREDIT CARDS                      3311.98       Z-READING                         6306.38       AIRTIME DEBIT CARD SALES             0.00       AIRTIME CARD SALES                   0.00       OVERS/UNDERS                         0.00       AIRTIME CASH SALES                   0.00       GIFT CARDS                           0.00       GIFT CARD CASH SALES                 0.00       T O T A L  CASH PAYOUTS              0.00                                                                                                                                                                                                                                                                                                                                                      Z
M17021392                              CASH        DWABSENT                                                                                                                                                                                          ANNUAL LEAVE                                                                                                                                                                                    DAY OFF                                                                                                                                                                                         COMMENTS                                                                                                                                                                                                                                                                                                                                                                                       Z
Y17021300                                          DW00000000568416+000095
ZDW17021321053 SLAVE 3      SALES DATA                     NEXT INVOICE NO.  936700 0697
F093777496-057190         1701171242020000021ICSLAVE 3
F093780496-056475         1701171229120000041ICSLAVE 3
F093780496-057190         1701171229120000021ICSLAVE 3
F093781496-028120         1701171219200000041ICSLAVE 3
F093781496-056475         1701171219200000051ICSLAVE 3
F093784496-058484         1701171154320000141ICSLAVE 3
F094147463-000501         1701171241130000061ICSLAVE 3
F094712016-006509         1702040855310000082ICSLAVE 3
X DW Slave 3 First invoice 936603 170213 Last invoice 936699 170213 Next invoice 936700 Total number of records 000000324 clbackup completed 21:05:43
