377851000377851               377851               170213DX     1400+00000+DX0000004385-0000004385-000000000+000000614-0000004999-0000000000+I40000004999-0000000000+Z
377851001377851486-001012     377851006001023820907CLOCK ALARM SQR 10X12CM0000001000-00004385+00000+0001T   00004385+0000000853          1400 AM55101IC            1 Z
377852000377852               377852               170213DX     1400+00000+DX0000003945+0000003945+000000000+000000553+0000004490+0000000008+I20000000000+0000004490+Z
377852001377852071-010481     377852006001023417220MAGNIFYING-GLASS 90mm-D0000001000+00001753+00000+0001T   00001753+0000000903          1400 AM5130               1AZ
377852002377852071-001017     377852006001023892676MARKER DVD FINE+MED 3PC0000001000+00002192+00000+0001T   00002192+0000000903          1400 AM5130               1AZ
377853000377853               377853               170213DX     1400+00000+DX0000000876+0000000876+000000000+000000123+0000000990+0000000009+I20000000000+0000000990+Z
377853001377853162-087876     377853006001492878768#TAG 2PK HEADBANDS     0000001000+00000876+00000+0001T   00001753+0008160906          1400 AM5160               1AZ
377854000377854               377854               170213DX     1400+00000+DX0000004383+0000004383+000000000+000000615+0000004998+0000000000+I40000004998+0000000000+Z
377854001377854566-000065     377854006003000217915STICKERS GLITTER ASSTD 0000001000+00001753+00000+0001T   00001753+0000000912          1400 AM5130               1AZ
377854002377854079-013032-H   377854006003000496501GLITTER PRINCESS ACC   0000001000+00002630+00000+0001T   00002630+0000000912          1400 AM5130               1AZ
377855000377855               377855               170213DX     1400+00000+DX0000032274+0000032274+000000000+000004529+0000036803+0000000000+I40000036803+0000000000+Z
377855001377855079-009700-I   377855006003000546114PAPER SIRIO A4 LILAC   0000020000+00000306+00000+0001T   00000306+0000000934          1400 AM5130               1AZ
377855002377855079-009700-D   377855006003000545711PAPER SIRIO A4 RED COL.0000020000+00000306+00000+0001T   00000306+0000000934          1400 AM5130               1AZ
377855003377855112-116069     377855006009681820277TCS CARRIER BAG JUMBO  0000001000+00000048+00000+0001T   00000048+0000000934          1400 AM5090               1AZ
377855004377855200-000100     377855006001023764003CUPS 25PCE DISPOSABLE  0000001000+00001928+00000+0001T   00001928+0000000934          1400 AM52142IC            1AZ
377855005377855077-000011-C   377855006001023808523TISSUE 10xSHTS RED     0000001000+00000876+00000+0001T   00000876+0000000934          1400 AM5112               1AZ
377855006377855077-000011-E   377855006001023808646TISSUE-WRAP PINK 10PCE 0000001000+00000876+00000+0001T   00000876+0000000934          1400 AM5112               1AZ
377855007377855077-000245     377855006001023759214GIFT-RIBBON METALLICx2 0000002000+00001227+00000+0001T   00001227+0000000934          1400 AM5112               1AZ
377855008377855077-000235     377855006003000160211GIFT-RIBBON ROLL METALC0000001000+00002630+00000+0001T   00002630+0000000934          1400 AM5112               1AZ
377855009377855566-000006     377855006001023671189STICKER-BOOK DRESS-UP  0000001000+00002630+00000+0001T   00002630+0000000934          1400 AM5130               1AZ
377855010377855564-001028     377855006001023708663BUBBLE CELEBRATION 6ml 0000002000+00003069+00000+0001T   00003069+0000000934          1400 AM5131               1AZ
377855011377855200-000092     377855006003000576739PICNIC PAPER PLATES 23c0000002000+00001227+00000+0001T   00001227+0000000934          1400 AM5214               1AZ
377856000377856               377856               170213DX     1400+00000+DX0000002630+0000002630+000000000+000000369+0000002990+0000000009+I20000000000+0000002990+Z
377856001377856084-000359     377856006003000642960NAIL MANICURE SET S/STE0000001000+00002630+00000+0001T   00002630+0000001009          1400 AM5200               1AZ
377857000377857               377857               170213DX     1400+00000+DX0000002630+0000002630+000000000+000000369+0000002990+0000000009+I20000000000+0000002990+Z
377857001377857071-030014     377857006003000284085PEN NVLTY METALLIC 6PC 0000001000+00002630+00000+0001T   00002630+0000001010          1400 AM5130               1AZ
377858000377858               377858               170213DX     1400+00000+DX0000026314+0000026314+000000000+000003684+0000029998+0000000000+I40000029998+0000000000+Z
377858001377858007-010503     377858006003000455393WIPE & CHALK 90X60CM   0000001000+00026314+00000+0001T   00026314+0000001045          1400 AM5130               1AZ
377859000377859               377859               170213DX     1400+00000+DX0000003981+0000003981+000000000+000000559+0000004540+0000000000+I20000000000+0000004540+Z
377859001377859903-000120     377859006002099001665SWEET GS ZILLIONS 50g  0000003000+00000700+00000+0001T   00000700+0000001049          1400 AM5150               1AZ
377859002377859903-000155     377859006009803374435SWT LOLLY I LUV U HEART0000003000+00000525+00000+0001T   00000525+0000001049          1400 AM5150               1AZ
377859003377859079-009700-D   377859006003000545711PAPER SIRIO A4 RED COL.0000001000+00000306+00000+0001T   00000306+0000001049          1400 AM5130               1AZ
377860000377860               377860               170213DX     1400+00000+DX0000019690+0000019690+000000000+000002760+0000022450+0000000000+I40000022450+0000000000+Z
377860001377860047-000512-H   377860006001023657473EXT-CORD 3m DBL-J   H&H0000001000+00006578+00000+0001T   00006578+0000001147          1400 AM5880               1AZ
377860002377860050-000364-Z   377860006001023777133PADLOCK IRON 38mm CARD 0000001000+00002630+00000+0001T   00002630+0000001147          1400 AM5855               1AZ
377860003377860047-000006-H   377860006001023704054M/PLUG 3x16A+3x5A+CARD 0000001000+00006665+00000+0001T   00006665+0000001147          1400 AM5880               1AZ
377860004377860046-000014     377860006001023725387BATTERIES SIZE:AAA 4PCE0000001000+00001139+00000+0001T   00001139+0000001147          1400 AM5312               1AZ
377860005377860050-000364-Z   377860006001023777133PADLOCK IRON 38mm CARD 0000001000+00002630+00000+0001T   00002630+0000001147          1400 AM5855               1AZ
377860006377860112-116069     377860006009681820277TCS CARRIER BAG JUMBO  0000001000+00000048+00000+0001T   00000048+0000001147          1400 AM5090               1AZ
377861000377861               377861               170213DX     1400+00000+DX0000000525+0000000525+000000000+000000074+0000000590+0000000009+I20000000000+0000000590+Z
377861001377861903-000155     377861006009803374435SWT LOLLY I LUV U HEART0000001000+00000525+00000+0001T   00000525+0000001158          1400 AM5150               1AZ
377862000377862               377862               170213DX     1400+00000+DX0000001402+0000001402+000000000+000000197+0000001590+0000000009+I20000000000+0000001590+Z
377862001377862046-000011     377862004897006172994BATTERIES SIZE:AA  2PCE0000001000+00001402+00000+0001T   00001402+0000001159          1400 AM5312               1AZ
377863000377863               377863               170213DX     1400+00000+DX0000004645+0000004645+000000000+000000652+0000005290+0000000007+I20000000000+0000005290+Z
377863001377863200-003024     377863006001023657299REFUSE BAGS 20PCE BLACK0000002000+00001753+00000+0001T   00001753+0000001220          1400 AM5214               1AZ
377863002377863903-000087     377863006001704000161SWT SPECKLED-EGGS 50G  0000001000+00001139+00000+0001T   00001139+0000001220          1400 AM5150               1AZ
377864000377864               377864               170213DX     1400+00000+DX0000006172+0000006172+000000000+000000865+0000007030+0000000007+I20000000000+0000007030+Z
377864001377864004-078990     377864006001023994431EARPHONES MINI 1.2m    0000001000+00003507+00000+0001T   00003507+0000001227          1400 AM5310               1AZ
377864002377864046-000011-A   377864006003000438891BATTERIES SIZE:AA  4PCE0000001000+00002630+00000+0001T   00002630+0000001227          1400 AM5312               1AZ
377864003377864112-116038     377864006009681820246TCS CARRIER BAG MIDI   0000001000+00000035+00000+0001T   00000035+0000001227          1400 AM5090               1AZ
377865000377865               377865               170213DX     1400+00000+DX0000037715+0000037715+000000000+000005281+0000042996+0000000000+I40000042996+0000000000+Z
377865001377865490-049600     377865000078257496006FUN-BALLS 100PCE 8cm   0000001000+00021928+00000+0001T   00021928+0000001230          1400 AM5787               1AZ
377865002377865496-057105     377865000078257571055INTEX POOL BABY GIRAFFE0000001000+00014034+00000+0001T   00014034+0000001230          1400 AM5787               1AZ
377865003377865251-000073     377865006003000452132PROTECTION-PADS BLK ADH0000001000+00001753+00000+0001T   00001753+0000001230          1400 AM5810               1AZ
377866000377866               377866               170213DX     1400+00000+DX0000006139+0000006139+000000000+000000860+0000006990+0000000009+I20000000000+0000006990+Z
377866001377866565-000008     377866006003000548828NOVELTY B/O ROBOT FISH 0000001000+00006139+00000+0001T   00006139+0000001230          1400 AM5745               1AZ
377867000377867               377867               170213DX     1400+00000+DX0000001753+0000001753+000000000+000000246+0000001990+0000000009+I20000000000+0000001990+Z
377867001377867077-000308     377867006001023595812GIFT-BAG 33X45CM E/DAY 0000001000+00001753+00000+0001T   00001753+0000001231          1400 AM5112               1AZ
377868000377868               377868               170213DX     1400+00000+DX0000001490+0000001490+000000000+000000209+0000001690+0000000009+I20000000000+0000001690+Z
377868001377868036-000605     377868006001023158611WASHING-PEGS WDN PCK-240000001000+00001490+00000+0001T   00001490+0000001232          1400 AM5212               1AZ
377869000377869               377869               170213DX     1400+00000+DX0000002366+0000002366+000000000+000000332+0000002690+0000000008+I20000000000+0000002690+Z
377869001377869027-078281     377869006001023767806SCOURERS BRS 8g  PACK-30000001000+00000876+00000+0001T   00000876+0000001239          1400 AM5212               1AZ
377869002377869027-783002     377869006001023874658SCOURERS FOAM PACK OF 30000001000+00001490+00000+0001T   00001490+0000001239          1400 AM5212               1AZ
377870000377870               377870               170213DX     1400+00000+DX0000003506+0000003506+000000000+000000492+0000003998+0000000000+I40000003998+0000000000+Z
377870001377870006-000800     377870006001023902801HAT CABARET 14x18cm    0000001000+00001753+00000+0001T   00001753+0000001240          1400 AM5131               1AZ
377870002377870079-013099     377870006003000081875ART+CRAFT EYES ASSTD   0000001000+00001753+00000+0001T   00001753+0000001240          1400 AM5130               1AZ
377871000377871               377871               170213DX     1400+00000+DX0000021048+0000021048+000000000+000002949+0000023990+0000000007+I20000000000+0000023990+Z
377871001377871024-000123     377871006001023902368N/STICK 6 L/PAN MINI   0000003000+00007016+00000+0001T   00008771+0008121244          1400 AM5300               1AZ
377872000377872               377872               170213DX     1400+00000+DX0000002625+0000002625+000000000+000000370+0000002995+0000000000+I40000002995+0000000000+Z
377872001377872903-000155     377872006009803374435SWT LOLLY I LUV U HEART0000005000+00000525+00000+0001T   00000525+0000001245          1400 AM5150               1AZ
377873000377873               377873               170213DX     1400+00000+DX0000001753+0000001753+000000000+000000246+0000001999+0000000000+I40000001999+0000000000+Z
377873001377873077-000239     377873006003000160419GIFT-RIBBON ROLL PEARL 0000001000+00001753+00000+0001T   00001753+0000001246          1400 AM5112               1AZ
377874000377874               377874               170213DX     1400+00000+DX0000005699+0000005699+000000000+000000798+0000006490+0000000007+I20000000000+0000006490+Z
377874001377874133-000004     377874006001926055918D/CLOTH MICROFIBRE 2PCK0000001000+00004385+00000+0001T   00004385+0000001247          1400 AM5212               1AZ
377874002377874107-004105     377874006009703860984BUCKET 9L OPEN         0000001000+00001314+00000+0001T   00001314+0000001247          1400 AM5210               1AZ
377875000377875               377875               170213DX     1400+00000+DX0000001051+0000001051+000000000+000000148+0000001190+0000000009+I20000000000+0000001190+Z
377875001377875903-002890     377875008935001721352MENTOS GUM PURE F/MINT 0000001000+00001051+00000+0001T   00001051+0000001248          1400 AM5150               1AZ
377876000377876               377876               170213DX     1400+00000+DX0000002453+0000002453+000000000+000000344+0000002790+0000000007+I20000000000+0000002790+Z
377876001377876018-000177     377876006001023797513MUG MINI LOVE ASSTD    0000001000+00000700+00000+0001T   00000700+0000001251          1400 AM5515               1AZ
377876002377876007-000184     377876006003000135424NOTEBOOK               0000001000+00001753+00000+0001T   00001753+0000001251          1400 AM5130               1AZ
377877000377877               377877               170213DX     1400+00000+DX0000001576+0000001576+000000000+000000222+0000001790+0000000008+I20000000000+0000001790+Z
377877001377877903-000200     377877006009826020234SWT CHOC RP CHOCO 23G  0000002000+00000788+00000+0001T   00000788+0000001259          1400 AM5150               1AZ
377878000377878               377878               170213DX     1400+00000+DX0000022790+0000022790+000000000+000003198+0000025980+0000000008+I20000000000+0000025980+Z
377878001377878466-000200     377878006001023621665HULA-HOOP     ASSTD    0000010000+00001753+00000+0001T   00001753+0000001338          1400 AM57852IC            1AZ
377878002377878466-000515     377878006001023477408BALLS TENNIS BAG-OF-3  0000002000+00002630+00000+0001T   00002630+0000001338          1400 AM5785               1AZ
377879000377879               377879               170213DX     1400+00000+DX0000001753+0000001753+000000000+000000246+0000001990+0000000009+I20000000000+0000001990+Z
377879001377879366-007600     377879006001023902184MASK THEATRICAL GLITTER0000001000+00001753+00000+0001T   00001753+0000001338          1400 AM5131               1AZ
377880000377880               377880               170213DX     1400+00000+DX0000003506+0000003506+000000000+000000492+0000003990+0000000008+I20000000000+0000003990+Z
377880001377880220-009101     377880006001023706829ROSE TEASPOONS 4PCE    0000002000+00001753+00000+0001T   00001753+0000001340          1400 AM5300               1AZ
377881000377881               377881               170213DX     1400+00000+DX0000005258+0000005258+000000000+000000738+0000005990+0000000006+I20000000000+0000005990+Z
377881001377881077-000240     377881006003000326259G/RIBBON 4PC PEARLIZED 0000001000+00001753+00000+0001T   00001753+0000001342          1400 AM5112               1AZ
377881002377881071-001102     377881006003000274598MARKER PERM MED 2PCE   0000001000+00001753+00000+0001T   00001753+0000001342          1400 AM5130               1AZ
377881003377881903-000221     377881006001704007382SWT EENY-MEENY-MOS 60G 0000001000+00000876+00000+0001T   00000876+0000001342          1400 AM5150               1AZ
377881004377881903-000481     377881006001704007481SWT MOO MILK-SHAKES 60G0000001000+00000876+00000+0001T   00000876+0000001342          1400 AM5150               1AZ
377882000377882               377882               170213DX     1400+00000+DX0000053880+0000053880+000000000+000007551+0000061431+0000000000+I40000061431+0000000000+Z
377882001377882112-116069     377882006009681820277TCS CARRIER BAG JUMBO  0000001000+00000048+00000+0001T   00000048+0000001346          1400 AM5090               1AZ
377882002377882200-003024     377882006001023657299REFUSE BAGS 20PCE BLACK0000002000+00001753+00000+0001T   00001753+0000001346          1400 AM5214               1AZ
377882003377882301-000009     377882006001023781406ORN POLY MSG IN PVC BOX0000001000+00005262+00000+0001T   00005262+0000001346          1400 AM5505               1AZ
377882004377882301-000015     377882006001023479907ORN SENTIMENT STONE    0000002000+00004385+00000+0001T   00004385+0000001346          1400 AM5505               1AZ
377882005377882301-000009     377882006001023781406ORN POLY MSG IN PVC BOX0000001000+00005262+00000+0001T   00005262+0000001346          1400 AM5505               1AZ
377882006377882089-000018     377882006003000176724KEY CHAIN INSPIRATION  0000001000+00003507+00000+0001T   00003507+0000001346          1400 AM5205               1AZ
377882007377882204-000003     377882006003000593583MEMO HOLDERS POLY 4ASST0000001000+00003507+00000+0001T   00003507+0000001346          1400 AM5300               1AZ
377882008377882301-000013     377882006001023781604ORN SENTIMENT STONE 4-A0000001000+00006139+00000+0001T   00006139+0000001346          1400 AM5505               1AZ
377882009377882019-071594     377882006003000505579PEBBLES GLS 250g RED   0000001000+00002630+00000+0001T   00002630+0000001346          1400 AM5510               1AZ
377882010377882019-071597     377882006008766071597PEBBLES 250g CLEAR  BAG0000001000+00002192+00000+0001T   00002192+0000001346          1400 AM5510               1AZ
377882011377882019-071594     377882006003000505579PEBBLES GLS 250g RED   0000001000+00002630+00000+0001T   00002630+0000001346          1400 AM5510               1AZ
377882012377882305-074102     377882006003000239788WIND-TWISTER ASST 70CM 0000002000+00001753+00000+0001T   00001753+0000001346          1400 AM5505               1AZ
377882013377882077-000317     377882006001023609748GIFT-BAG 11X14CM E/D AN0000007000+00000613+00000+0001T   00000613+0000001346          1400 AM5112               1AZ
377882014377882142-000812     377882006003000165421GLOVES LATEX 10PCE-5PRS0000001000+00002630+00000+0001T   00002630+0000001346          1400 AM5810               1AZ
377883000377883               377883               170213DX     1400+00000+DX0000001753+0000001753+000000000+000000246+0000001999+0000000000+I40000001999+0000000000+Z
377883001377883079-013099     377883006003000081875ART+CRAFT EYES ASSTD   0000001000+00001753+00000+0001T   00001753+0000001347          1400 AM5130               1AZ
377884000377884               377884               170213DX     1400+00000+DX0000017149+0000017149+000000000+000002402+0000019551+0000000000+I40000019551+0000000000+Z
377884001377884047-000512-H   377884006001023657473EXT-CORD 3m DBL-J   H&H0000001000+00006578+00000+0001T   00006578+0000001349          1400 AM5880               1AZ
377884002377884002-000684     377884006001023693778K/TOOL TURNER H/HOUSE  0000001000+00002192+00000+0001T   00002192+0000001349          1400 AM5300               1AZ
377884003377884024-000103     377884006001023421982B/TRAY NON-STICK LARGE 0000001000+00007455+00000+0001T   00007455+0000001349          1400 AM5300               1AZ
377884004377884112-116069     377884006009681820277TCS CARRIER BAG JUMBO  0000001000+00000048+00000+0001T   00000048+0000001349          1400 AM5090               1AZ
377884005377884047-001333     377884006001838000495PLUGTOP CHUBBY         0000001000+00000876+00000+0001T   00000876+0000001349          1400 AM5880               1AZ
377885000377885               377885               170213DX     1400+00000+DX0000015208+0000015208+000000000+000002133+0000017341+0000000000+I40000017341+0000000000+Z
377885001377885077-000317     377885006001023609748GIFT-BAG 11X14CM E/D AN0000001000+00000613+00000+0001T   00000613+0000001354          1400 AM5112               1AZ
377885002377885077-000908     377885006003000410927G/WRAP 700mmx1m FLOWER 0000001000+00001753+00000+0001T   00001753+0000001354          1400 AM5112               1AZ
377885003377885264-000921     377885000090159150442MAISTO CAR 3" FRESH    0000002000+00001753+00000+0001T   00001753+0000001354          1400 AM5710               1AZ
377885004377885903-000194     377885006009826020616SWT CHOC RP LOLLY 25G  0000003000+00001314+00000+0001T   00001314+0000001354          1400 AM5150               1AZ
377885005377885080-000133-A   377885006003000647019MINI VALENTINES CARD   0000001000+00000437+00000+0001T   00000437+0000001354          1400 AM5112               1AZ
377885006377885077-000299-A   377885006003000670888GIFT-BAG PAPER JMB LOVE0000001000+00001753+00000+0001T   00001753+0000001354          1400 AM5112               1AZ
377885007377885080-000124     377885006003000297733CARD & ENV VALENTINES  0000001000+00001578+00000+0001T   00001578+0000001354          1400 AM5112               1AZ
377885008377885077-000348     377885006001023483287GIFT-BOWS 4,5cm 8PCE   0000001000+00001578+00000+0001T   00001578+0000001354          1400 AM5112               1AZ
377885009377885112-116069     377885006009681820277TCS CARRIER BAG JUMBO  0000001000+00000048+00000+0001T   00000048+0000001354          1400 AM5090               1AZ
377886000377886               377886               170213DX     1400+00000+DX0000013153+0000013153+000000000+000001843+0000014996+0000000000+I40000014996+0000000000+Z
377886001377886366-000356     377886006003000006908DRESS UP WINGS FAIRY   0000002000+00004385+00000+0001T   00004385+0000001355          1400 AM5131               1AZ
377886002377886903-000619     377886006003000672455SWT LOLLY STR/BRRY 140G0000001000+00001753+00000+0001T   00001753+0000001355          1400 AM5150               1AZ
377886003377886006-006018-B   377886006003000008278PARTY-SPRAY HAIR NEON  0000001000+00002630+00000+0001T   00002630+0000001355          1400 AM5131               1AZ
377887000377887               377887               170213DX     1400+00000+DX0000007751+0000007751+000000000+000001086+0000008830+0000000007+I20000000000+0000008830+Z
377887001377887368-000171     377887006003000233250PLUSH BEAR 14cm        0000001000+00005262+00000+0001T   00005262+0000001355          1400 AM5745               1AZ
377887002377887022-002109     377887006001023501745MUG 6cm DEC            0000002000+00001227+00000+0001T   00001227+0000001355          1400 AM5305               1AZ
377887003377887112-116038     377887006009681820246TCS CARRIER BAG MIDI   0000001000+00000035+00000+0001T   00000035+0000001355          1400 AM5090               1AZ
377888000377888               377888               170213DX     1400+00000+DX0000014776+0000014776+000000000+000002072+0000016848+0000000000+I40000016848+0000000000+Z
377888001377888366-000356     377888006003000006908DRESS UP WINGS FAIRY   0000001000+00004385+00000+0001T   00004385+0000001358          1400 AM5131               1AZ
377888002377888251-000074     377888006003000452255PROTECTION-PADS BLK ADH0000001000+00001753+00000+0001T   00001753+0000001358          1400 AM5810               1AZ
377888003377888200-000061     377888006003000506996STRAWS DRINKING CURLY  0000004000+00001490+00000+0001T   00001490+0000001358          1400 AM5214               1AZ
377888004377888006-006018-B   377888006003000008278PARTY-SPRAY HAIR NEON  0000001000+00002630+00000+0001T   00002630+0000001358          1400 AM5131               1AZ
377888005377888112-116069     377888006009681820277TCS CARRIER BAG JUMBO  0000001000+00000048+00000+0001T   00000048+0000001358          1400 AM5090               1AZ
377889000377889               377889               170213DX     1400+00000+DX0000002192+0000002192+000000000+000000307+0000002490+0000000009+I20000000000+0000002490+Z
377889001377889079-013102     377889006003000019601ART+CRAFT DIY PIPE-CLNR0000001000+00002192+00000+0001T   00002192+0000001358          1400 AM5130               1AZ
377890000377890               377890               170213DX     1400+00000+DX0000007940+0000007940+000000000+000001113+0000009053+0000000000+I40000009053+0000000000+Z
377890001377890494-059252     377890000078257592524TIRE-TUBE 91cm GIANT   0000001000+00005262+00000+0001T   00005262+0000001404          1400 AM5787               1AZ
377890002377890497-069613     377890000078257696130HAND-PUMP PL DBL-QUICK 0000001000+00002630+00000+0001T   00002630+0000001404          1400 AM5787               1AZ
377890003377890112-116069     377890006009681820277TCS CARRIER BAG JUMBO  0000001000+00000048+00000+0001T   00000048+0000001404          1400 AM5090               1AZ
377891000377891               377891               170213DX     1400+00000+DX0000001578+0000001578+000000000+000000221+0000001790+0000000009+I20000000000+0000001790+Z
377891001377891018-000127     377891006001023380289MUG OCC STRAIGHT LOVE  0000001000+00001578+00000+0001T   00001753+0006471404          1400 AM5515               1AZ
377892000377892               377892               170213DX     1400+00000+DX0000002192+0000002192+000000000+000000307+0000002499+0000000000+I40000002499+0000000000+Z
377892001377892046-000012-A   377892006003000208296BATTERIES H/POWER SZ:AA0000001000+00002192+00000+0001T   00002192+0000001406          1400 AM5312               1AZ
377893000377893               377893               170213DX     1400+00000+DX0000004822+0000004822+000000000+000000676+0000005498+0000000000+I40000005498+0000000000+Z
377893001377893080-000500     377893006001023846211CARD&ENV 6PK GLITTER   0000001000+00001753+00000+0001T   00001753+0000001408          1400 AM5112               1AZ
377893002377893038-001805     377893006003000466405DOILIES PAPER 60PC 3ASS0000001000+00003069+00000+0001T   00003069+0000001408          1400 AM5300               1AZ
377894000377894               377894               170213DX     1400+00000+DX0000003594+0000003594+000000000+000000504+0000004098+0000000000+I40000004098+0000000000+Z
377894001377894366-002101     377894006003000617715DRESS UP MASK LIGHT UP 0000001000+00002630+00000+0001T   00002630+0000001428          1400 AM5131               1AZ
377894002377894007-000204     377894006009635835272EXAM-PAD 60SHT PUNCHED 0000001000+00000964+00000+0001T   00000964+0000001428          1400 AM5130               1AZ
377895000377895               377895               170213DX     1400+00000+DX0000007884+0000007884+000000000+000001107+0000008990+0000000001+I20000000000+0000008990+Z
377895001377895007-000045     377895006009608640438DISPLAY-POCKETS A4 10PC0000007000+00000876+00000+0001T   00000876+0000001428          1400 AM5130               1AZ
377895002377895071-005213     377895006001023690371CELLOTAPE 12mmx33m     0000002000+00000876+00000+0001T   00000876+0000001428          1400 AM5130               1AZ
377896000377896               377896               170213DX     1400+00000+DX0000006136+0000006136+000000000+000000861+0000006990+0000000007+I20000000000+0000006990+Z
377896001377896077-000235     377896006003000160211GIFT-RIBBON ROLL METALC0000001000+00002630+00000+0001T   00002630+0000001429          1400 AM5112               1AZ
377896002377896366-004047     377896006001023834850DRESS UP ACCESS TEETH  0000002000+00001753+00000+0001T   00001753+0000001429          1400 AM5131               1AZ
377897000377897               377897               170213DX     1400+00000+DX0000011137+0000011137+000000000+000001560+0000012697+0000000000+I40000012697+0000000000+Z
377897001377897031-080508     377897006001023802415P/FRAME PL 22X11CM LOVE0000001000+00004385+00000+0001T   00004385+0000001432          1400 AM5510               1AZ
377897002377897077-000299     377897006003000395576G/BAG 32x25cm LRG LOVE 0000001000+00001490+00000+0001T   00001490+0000001432          1400 AM5112               1AZ
377897003377897565-004004     377897006001023744357NOVELTY INSCT COLLECTOR0000001000+00005262+00000+0001T   00005262+0000001432          1400 AM5745               1AZ
377898000377898               377898               170213DX     1400+00000+DX0000001490+0000001490+000000000+000000209+0000001690+0000000009+I20000000000+0000001690+Z
377898001377898077-000299     377898006003000395576G/BAG 32x25cm LRG LOVE 0000001000+00001490+00000+0001T   00001490+0000001445          1400 AM5112               1AZ
377899000377899               377899               170213DX     1400+00000+DX0000002804+0000002804+000000000+000000394+0000003190+0000000008+I20000000000+0000003190+Z
377899001377899071-001102     377899006003000274598MARKER PERM MED 2PCE   0000001000+00001753+00000+0001T   00001753+0000001445          1400 AM5130               1AZ
377899002377899079-009702-D   377899008427973059354PAPER SIRIO A2 RED COL 0000001000+00001051+00000+0001T   00001051+0000001445          1400 AM5130               1AZ
377900000377900               377900               170213DX     1400+00000+DX0000003507+0000003507+000000000+000000491+0000003990+0000000008+I20000000000+0000003990+Z
377900001377900018-000136     377900006001023659026MUG OCC LOVE W/PLUSH   0000001000+00003507+00000+0001T   00003507+0000001446          1400 AM5515               1AZ
377901000377901               377901               170213DX     1400+00000+DX0000001490+0000001490+000000000+000000209+0000001690+0000000009+I20000000000+0000001690+Z
377901001377901077-000299     377901006003000395576G/BAG 32x25cm LRG LOVE 0000001000+00001490+00000+0001T   00001490+0000001447          1400 AM5112               1AZ
377902000377902               377902               170213DX     1400+00000+DX0000004120+0000004120+000000000+000000578+0000004690+0000000008+I20000000000+0000004690+Z
377902001377902006-000102     377902006001023806819BALLOONS W/BOMBS 50PCE 0000001000+00001490+00000+0001T   00001490+0000001448          1400 AM5131               1AZ
377902002377902362-019381     377902006001023869579HAIR BAND SET 100PCE   0000001000+00002630+00000+0001T   00002630+0000001448          1400 AM5160               1AZ
377903000377903               377903               170213DX     1400+00000+DX0000003680+0000003680+000000000+000000516+0000004190+0000000006+I20000000000+0000004190+Z
377903001377903080-000124     377903006003000297733CARD & ENV VALENTINES  0000001000+00001578+00000+0001T   00001578+0000001450          1400 AM5112               1AZ
377903002377903304-001204     377903006001023737984FLOWER OCC. TEDDY/ROSES0000001000+00001402+00000+0001T   00001490+0006471450          1400 AM5510               1AZ
377903003377903018-000177     377903006001023797513MUG MINI LOVE ASSTD    0000001000+00000700+00000+0001T   00000700+0000001450          1400 AM5515               1AZ
377904000377904               377904               170213DX     1400+00000+DX0000012892+0000012892+000000000+000001806+0000014698+0000000000+I40000014698+0000000000+Z
377904001377904077-000299     377904006003000395576G/BAG 32x25cm LRG LOVE 0000001000+00001490+00000+0001T   00001490+0000001500          1400 AM5112               1AZ
377904002377904368-000637     377904006001023874092PLUSH BEAR SLEEPING LOV0000001000+00011402+00000+0001T   00012279+0006471500          1400 AM5745               1AZ
377905000377905               377905               170213DX     1400+00000+DX0000000876+0000000876+000000000+000000123+0000000990+0000000009+I20000000000+0000000990+Z
377905001377905077-000151     377905006008766114676GIFT-WRAP C/PHANE ASSTD0000001000+00000876+00000+0001T   00000876+0000001511          1400 AM5112               1AZ
377906000377906               377906               170213DX     1400+00000+DX0000001578+0000001578+000000000+000000221+0000001799+0000000000+I40000001799+0000000000+Z
377906001377906077-000315     377906006003000181186GIFT-BAG 20x28cm MATT  0000001000+00001578+00000+0001T   00001578+0000001513          1400 AM5112               1AZ
377907000377907               377907               170213DX     1400+00000+DX0000001314+0000001314+000000000+000000184+0000001490+0000000008+I20000000000+0000001490+Z
377907001377907009-001808     377907006003000568956MELAMINE SALAD BOWL    0000001000+00001314+00000+0001T   00001314+0000001514          1400 AM5210               1AZ
377908000377908               377908               170213DX     1400+00000+DX0000001139+0000001139+000000000+000000160+0000001290+0000000009+I20000000000+0000001290+Z
377908001377908046-000014     377908006001023725387BATTERIES SIZE:AAA 4PCE0000001000+00001139+00000+0001T   00001139+0000001516          1400 AM5312               1AZ
377909000377909               377909               170213DX     1400+00000+DX0000001226+0000001226+000000000+000000172+0000001390+0000000008+I20000000000+0000001390+Z
377909001377909089-000021     377909006009697230923KEY CHAIN ID           0000002000+00000613+00000+0001T   00000613+0000001520          1400 AM5205               1AZ
377910000377910               377910               170213DX     1400+00000+DX0000001753+0000001753+000000000+000000246+0000001990+0000000009+I20000000000+0000001990+Z
377910001377910077-000240     377910006003000326259G/RIBBON 4PC PEARLIZED 0000001000+00001753+00000+0001T   00001753+0000001530          1400 AM5112               1AZ
377911000377911               377911               170213DX     1400+00000+DX0000001748+0000001748+000000000+000000248+0000001990+0000000006+I20000000000+0000001990+Z
377911001377911080-000133     377911006003000535613CARD&ENV MINI ASTD DSGN0000004000+00000437+00000+0001T   00000437+0000001530          1400 AM5112               1AZ
377912000377912               377912               170213DX     1400+00000+DX0000002892+0000002892+000000000+000000405+0000003297+0000000000+I40000003297+0000000000+Z
377912001377912903-000194     377912006009826020616SWT CHOC RP LOLLY 25G  0000001000+00001314+00000+0001T   00001314+0000001541          1400 AM5150               1AZ
377912002377912080-000124     377912006003000297733CARD & ENV VALENTINES  0000001000+00001578+00000+0001T   00001578+0000001541          1400 AM5112               1AZ
377913000377913               377913               170213DX     1400+00000+DX0000004385+0000004385+000000000+000000614+0000004990+0000000009+I20000000000+0000004990+Z
377913001377913486-001012     377913006001023820907CLOCK ALARM SQR 10X12CM0000001000+00004385+00000+0001T   00004385+0000001544          1400 AM5510               1AZ
377914000377914               377914               170213DX     1400+00000+DX0000003944+0000003944+000000000+000000553+0000004497+0000000000+I40000004497+0000000000+Z
377914001377914903-004950     377914006002580020304SWT APRICOT SURPRISE   0000001000+00001314+00000+0001T   00001314+0000001546          1400 AM5150               1AZ
377914002377914088-000113     377914006001023858399DEHUMIDIFIER SCENTED   0000001000+00002630+00000+0001T   00002630+0000001546          1400 AM5212               1AZ
377915000377915               377915               170213DX     1400+00000+DX0000014904+0000014904+000000000+000002089+0000016993+0000000000+I40000016993+0000000000+Z
377915001377915018-019000     377915006003000557288MUG OCC. LOVE JUMBO    0000001000+00005262+00000+0001T   00005262+0000001548          1400 AM5515               1AZ
377915002377915077-000303     377915006001023593757GIFT-BAG PAPER MED     0000001000+00001578+00000+0001T   00001578+0000001548          1400 AM5112               1AZ
377915003377915018-000177     377915006001023797513MUG MINI LOVE ASSTD    0000001000+00000700+00000+0001T   00000700+0000001548          1400 AM5515               1AZ
377915004377915301-085003     377915006003000420827ORN OCCASION LOVE KEY  0000001000+00005262+00000+0001T   00005262+0000001548          1400 AM5505               1AZ
377915005377915903-002852     377915000000087108040MENTOS ROLL SPEARMINT  0000002000+00001051+00000+0001T   00001051+0000001548          1400 AM5150               1AZ
377916000377916               377916               170213DX     1400+00000+DX0000010520+0000010520+000000000+000001476+0000011996+0000000000+I40000011996+0000000000+Z
377916001377916369-001138-B   377916006003000564972BABY BATH ROYAL DUCKS  0000003000+00002630+00000+0001T   00002630+0000001550          1400 AM5745               1AZ
377916002377916565-000602     377916006003000643790NOVELTY NINJA'S 3PACK  0000001000+00002630+00000+0001T   00002630+0000001550          1400 AM5745               1AZ
377917000377917               377917               170213DX     1400+00000+DX0000016263+0000016263+000000000+000002282+0000018540+0000000005+I20000000000+0000018540+Z
377917001377917077-000908     377917006003000410927G/WRAP 700mmx1m FLOWER 0000001000+00001753+00000+0001T   00001753+0000001555          1400 AM5112               1AZ
377917002377917077-000924     377917006003000414055G/WRAP 700mmx2m WEDDING0000001000+00002192+00000+0001T   00002192+0000001555          1400 AM5112               1AZ
377917003377917001-000168     377917008992787110268TUMBLER 340ml ZOMBI    0000003000+00000876+00000+0001T   00000876+0000001555          1400 AM5515               1AZ
377917004377917018-000200     377917006001023816573M/DAILY V-SHAPE PSYCH  0000003000+00001753+00000+0001T   00001753+0000001555          1400 AM5515               1AZ
377917005377917105-001039-B   377917006003000632596CONTAINER W/VENT 12x16 0000001000+00001753+00000+0001T   00002630+0008161555          1400 AM5210               1AZ
377917006377917105-006950     377917006003000638635CONTAINER 1.2L ASSORTED0000001000+00002630+00000+0001T   00002630+0000001555          1400 AM5210               1AZ
377917007377917112-116069     377917006009681820277TCS CARRIER BAG JUMBO  0000001000+00000048+00000+0001T   00000048+0000001555          1400 AM5090               1AZ
377918000377918               377918               170213DX     1400+00000+DX0000001578+0000001578+000000000+000000221+0000001799+0000000000+I40000001799+0000000000+Z
377918001377918077-000386     377918006003000275489G/BAG POP UP 18x23CM   0000001000+00001578+00000+0001T   00001578+0000001612          1400 AM5112               1AZ
377919000377919               377919               170213DX     1400+00000+DX0000001753+0000001753+000000000+000000246+0000001990+0000000009+I20000000000+0000001990+Z
377919001377919051-002402     377919006001023518347TRIGGER-SPRAYER  500ml 0000001000+00001753+00000+0001T   00001753+0000001613          1400 AM5820               1AZ
377920000377920               377920               170213DX     1400+00000+DX0000010261+0000010261+000000000+000001437+0000011698+0000000000+I40000011698+0000000000+Z
377920001377920077-000299     377920006003000395576G/BAG 32x25cm LRG LOVE 0000001000+00001490+00000+0001T   00001490+0000001621          1400 AM5112               1AZ
377920002377920368-000614     377920006001023705808PLUSH LOVE 30cm        0000001000+00008771+00000+0001T   00008771+0000001621          1400 AM5745               1AZ
377921000377921               377921               170213DX     1400+00000+DX0000001753+0000001753+000000000+000000246+0000001990+0000000009+I20000000000+0000001990+Z
377921001377921089-000030     377921006003000575671K/CHAIN LOVE MTL ASSTD 0000001000+00001753+00000+0001T   00001753+0000001622          1400 AM5205               1AZ
377922000377922               377922               170213DX     1400+00000+DX0000009648+0000009648+000000000+000001351+0000010990+0000000009+I20000000000+0000010990+Z
377922001377922403-000030     377922006003000282159J/HOLDER MTL SML 2-ASST0000001000+00009648+00000+0001T   00009648+0000001623          1400 AM5510               1AZ
377923000377923               377923               170213DX     1400+00000+DX0000000876+0000000876+000000000+000000123+0000000990+0000000009+I20000000000+0000000990+Z
377923001377923077-000011-D   377923006001023808554TISSUE-WRAP WHITE 10PCE0000001000+00000876+00000+0001T   00000876+0000001624          1400 AM5112               1AZ
377924000377924               377924               170213DX     1400+00000+DX0000008237+0000008237+000000000+000001157+0000009390+0000000004+I20000000000+0000009390+Z
377924001377924200-003024     377924006001023657299REFUSE BAGS 20PCE BLACK0000001000+00001753+00000+0001T   00001753+0000001630          1400 AM5214               1AZ
377924002377924033-000140     377924006003000676972HAIR BRUSH BRIGHT      0000001000+00002630+00000+0001T   00002630+0000001630          1400 AM5200               1AZ
377924003377924039-000030     377924006003000286942CANDLE 25cm MTL-YELLOW 0000002000+00000876+00000+0001T   00000876+0000001630          1400 AM5510               1AZ
377924004377924039-000020     377924006003000285785CANDLE BASIC 25CM GOLD 0000002000+00001051+00000+0001T   00001051+0000001630          1400 AM5510               1AZ
377925000377925               377925               170213DX     1400+00000+DX0000000613+0000000613+000000000+000000086+0000000690+0000000009+I20000000000+0000000690+Z
377925001377925200-000065     377925006001023323675DRINKING-STRAWS 38PCE  0000001000+00000613+00000+0001T   00000613+0000001631          1400 AM5214               1AZ
377926000377926               377926               170213DX     1400+00000+DX0000023283+0000023283+000000000+000003262+0000026545+0000000000+I40000026545+0000000000+Z
377926001377926112-116069     377926006009681820277TCS CARRIER BAG JUMBO  0000001000+00000048+00000+0001T   00000048+0000001634          1400 AM5090               1AZ
377926002377926362-019271     377926006003000006663HAIR ACCESS SET CARDED 0000001000+00003507+00000+0001T   00003507+0000001634          1400 AM5160               1AZ
377926003377926079-000600     377926006003000160990ART-SHEETS FOAM ASSTD-C0000001000+00003507+00000+0001T   00003507+0000001634          1400 AM5130               1AZ
377926004377926362-000307     377926006003000519750HAIR HEADBAND PRINTED  0000001000+00001314+00000+0001T   00001314+0000001634          1400 AM5160               1AZ
377926005377926079-013098     377926006003000197040ART+CRAFT SET DIY      0000001000+00003069+00000+0001T   00003069+0000001634          1400 AM5130               1AZ
377926006377926079-013111     377926006003000683024CREATE A HAT SET       0000003000+00003946+00000+0001T   00003946+0000001634          1400 AM5130               1AZ
377927000377927               377927               170213DX     1400+00000+DX0000004337+0000004337+000000000+000000609+0000004946+0000000000+I40000004946+0000000000+Z
377927001377927079-003002     377927006003000447886A/TUBE 75ML RED        0000002000+00001753+00000+0001T   00001753+0000001636          1400 AM5130               1AZ
377927002377927006-001000     377927006003000093779HELIUM BALLOON FILL    0000001000+00000613+00000+0001T   00000613+0000001636          1400 AM5131               1AZ
377927003377927006-000171-D   377927006003000609291BALLOONS 1PC ORANGE PRN0000001000+00000218+00000+0001T   00000218+0000001636          1400 AM5131               1AZ
377928000377928               377928               170213DX     1400+00000+DX0000007361+0000007361+000000000+000001034+0000008395+0000000000+I40000008395+0000000000+Z
377928001377928040-000181     377928006001023870575C/HOLDER GLS ROUND     0000002000+00001753+00000+0001T   00001753+0000001638          1400 AM5510               1AZ
377928002377928039-000029     377928006003000286829C/TAPERED 25CM M/PINK  0000002000+00001051+00000+0001T   00001051+0000001638          1400 AM5510               1AZ
377928003377928039-000114     377928006001023524058CANDLE T/LITE RED 3.5CM0000001000+00001753+00000+0001T   00001753+0000001638          1400 AM5510               1AZ
377929000377929               377929               170213DX     1400+00000+DX0000035729+0000035729+000000000+000005011+0000040740+0000000000+I40000040740+0000000000+Z
377929001377929082-007583     377929006003000465842SUNGLASSES POLARIZE    0000001000+00007893+00000+0001T   00007893+0000001648          1400 AM5160               1AZ
377929002377929903-000095     377929006001704011495SWT SPECKLED-EGGS 100G 0000002000+00002104+00000+0001T   00002104+0000001648          1400 AM5150               1AZ
377929003377929031-000878-B   377929006001023799012P/FRAME 13x18cm PL-SLID0000007000+00001490+00000+0001T   00001490+0000001648          1400 AM5510               1AZ
377929004377929031-005919     377929006003000580576P/FRAME PL PLAIN 13X18 0000003000+00002630+00000+0001T   00002630+0000001648          1400 AM5510               1AZ
377929005377929031-000868-B   377929006001023798565P/FRAME PL BLCK 13X18CM0000002000+00002630+00000+0001T   00002630+0000001648          1400 AM5510               1AZ
377929006377929112-116069     377929006009681820277TCS CARRIER BAG JUMBO  0000001000+00000048+00000+0001T   00000048+0000001648          1400 AM5090               1AZ
377930000377930               377930               170213DX     1400+00000+DX0000010259+0000010259+000000000+000001437+0000011696+0000000000+I40000011696+0000000000+Z
377930001377930079-000807     377930006003000670277ART+CRAFT WOODEN STICKS0000001000+00001490+00000+0001T   00001490+0000001649          1400 AM5130               1AZ
377930002377930089-000018     377930006003000176724KEY CHAIN INSPIRATION  0000001000+00003507+00000+0001T   00003507+0000001649          1400 AM5205               1AZ
377930003377930301-085003     377930006003000420827ORN OCCASION LOVE KEY  0000001000+00005262+00000+0001T   00005262+0000001649          1400 AM5505               1AZ
377931000377931               377931               170213DX     1400+00000+DX0000001927+0000001927+000000000+000000271+0000002190+0000000008+I20000000000+0000002190+Z
377931001377931083-000049     377931004891035200024CIG-LIGHTER DISPOSABLE 0000001000+00000437+00000+0001T   00000437+0000001651          1400 AM5315               1AZ
377931002377931039-000108     377931006001023524034TEA-LITE CANDLES 8PCE  0000001000+00001490+00000+0001T   00001490+0000001651          1400 AM5510               1AZ
377932000377932               377932               170213DX     1400+00000+DX0000004466+0000004466+000000000+000000627+0000005093+0000000000+I40000005093+0000000000+Z
377932001377932903-000194     377932006009826020616SWT CHOC RP LOLLY 25G  0000001000+00001314+00000+0001T   00001314+0000001654          1400 AM5150               1AZ
377932002377932080-000124     377932006003000297733CARD & ENV VALENTINES  0000001000+00001578+00000+0001T   00001578+0000001654          1400 AM5112               1AZ
377932003377932018-000177     377932006001023797513MUG MINI LOVE ASSTD    0000001000+00000700+00000+0001T   00000700+0000001654          1400 AM5515               1AZ
377932004377932080-000133-A   377932006003000647019MINI VALENTINES CARD   0000002000+00000437+00000+0001T   00000437+0000001654          1400 AM5112               1AZ
377933000377933               377933               170213DX     1400+00000+DX0000000436+0000000436+000000000+000000062+0000000490+0000000008+I20000000000+0000000490+Z
377933001377933006-000170-K   377933006003000609284BALLOONS 1PC PURPLE    0000002000+00000218+00000+0001T   00000218+0000001654          1400 AM5131               1AZ
377934000377934               377934               170213DX     1400+00000+DX0000005262+0000005262+000000000+000000737+0000005990+0000000009+I20000000000+0000005990+Z
377934001377934301-000009     377934006001023781406ORN POLY MSG IN PVC BOX0000001000+00005262+00000+0001T   00005262+0000001655          1400 AM5505               1AZ
377935000377935               377935               170213DX     1400+00000+DX0000003816+0000003816+000000000+000000536+0000004352+0000000000+I40000004352+0000000000+Z
377935001377935077-000299     377935006003000395576G/BAG 32x25cm LRG LOVE 0000001000+00001490+00000+0001T   00001490+0000001658          1400 AM5112               1AZ
377935002377935903-000862     377935005010478533912SWT DOUBLE DIP 19G     0000001000+00001139+00000+0001T   00001139+0000001658          1400 AM5150               1AZ
377935003377935903-000087     377935006001704000161SWT SPECKLED-EGGS 50G  0000001000+00001139+00000+0001T   00001139+0000001658          1400 AM5150               1AZ
377935004377935112-116069     377935006009681820277TCS CARRIER BAG JUMBO  0000001000+00000048+00000+0001T   00000048+0000001658          1400 AM5090               1AZ
377936000377936               377936               170213DX     1400+00000+DX0000009381+0000009381+000000000+000001315+0000010696+0000000000+I40000010696+0000000000+Z
377936001377936077-000299     377936006003000395576G/BAG 32x25cm LRG LOVE 0000001000+00001490+00000+0001T   00001490+0000001707          1400 AM5112               1AZ
377936002377936039-000635     377936006001023774521CANDLE VTV 4PC WHITE   0000001000+00002192+00000+0001T   00002192+0000001707          1400 AM5510               1AZ
377936003377936083-000058     377936006003000400331LIGHTER JET CIGAR REFIL0000001000+00002630+00000+0001T   00002630+0000001707          1400 AM5315               1AZ
377936004377936040-000051     377936006001023799494C/HOLDER GLASS LANTERN 0000001000+00003069+00000+0001T   00003069+0000001707          1400 AM5510               1AZ
377937000377937               377937               170213DX     1400+00000+DX0000007892+0000007892+000000000+000001106+0000008998+0000000000+I40000008998+0000000000+Z
377937001377937158-000167     377937006003000569588WASTEPAPER-BASKET 26cm 0000001000+00005262+00000+0001T   00005262+0000001708          1400 AM5300               1AZ
377937002377937006-006018-B   377937006003000008278PARTY-SPRAY HAIR NEON  0000001000+00002630+00000+0001T   00002630+0000001708          1400 AM5131               1AZ
377938000377938               377938               170213DX     1400+00000+DX0000002192+0000002192+000000000+000000307+0000002490+0000000009+I20000000000+0000002490+Z
377938001377938077-000309-A   377938006003000671007GIFT-BAG HOLOGRAM JMB  0000001000+00002192+00000+0001T   00002192+0000001725          1400 AM5112               1AZ
377939000377939               377939               170213DX     1400+00000+DX0000012763+0000012763+000000000+000001788+0000014551+0000000000+I40000014551+0000000000+Z
377939001377939018-000119     377939006003000336074MUG DAILY STRAIGHT     0000001000+00001314+00000+0001T   00001753+0008171729          1400 AM5515               1AZ
377939002377939039-081008     377939006008766081008CANDLES 9PCE SCENTED   0000001000+00002630+00000+0001T   00002630+0000001729          1400 AM5510               1AZ
377939003377939368-000614     377939006001023705808PLUSH LOVE 30cm        0000001000+00008771+00000+0001T   00008771+0000001729          1400 AM5745               1AZ
377939004377939112-116069     377939006009681820277TCS CARRIER BAG JUMBO  0000001000+00000048+00000+0001T   00000048+0000001729          1400 AM5090               1AZ
377940000377940               377940               170213DX     1400+00000+DX0000002192+0000002192+000000000+000000307+0000002490+0000000009+I20000000000+0000002490+Z
377940001377940071-000672     377940006003000138975STATIONERY CLIPS PAPER 0000001000+00002192+00000+0001T   00002192+0000001729          1400 AM5130               1AZ
377941000377941               377941               170213DX     1400+00000+DX0000007717+0000007717+000000000+000001081+0000008798+0000000000+I40000008798+0000000000+Z
377941001377941077-000315     377941006003000181186GIFT-BAG 20x28cm MATT  0000001000+00001578+00000+0001T   00001578+0000001731          1400 AM5112               1AZ
377941002377941018-050000     377941006003000412679MUG OCC LOVE TWIN BEAR 0000001000+00006139+00000+0001T   00006139+0000001731          1400 AM5515               1AZ
377942000377942               377942               170213DX     1400+00000+DX0000001578+0000001578+000000000+000000221+0000001790+0000000009+I20000000000+0000001790+Z
377942001377942369-001137-B   377942006003000626373BABY BATH VINYL DUCK   0000001000+00001578+00000+0001T   00001578+0000001731          1400 AM5745               1AZ
377943000377943               377943               170213DX     1400+00000+DX0000012395+0000012395+000000000+000001737+0000014132+0000000000+I40000014132+0000000000+Z
377943001377943089-000184     377943006003000577323KEY CHAIN OWL POLY MINI0000001000+00003069+00000+0001T   00003069+0000001733          1400 AM5205               1AZ
377943002377943083-000077     377943006003000092581LIGHTER LONG-REACH 18cm0000001000+00003507+00000+0001T   00003507+0000001733          1400 AM5315               1AZ
377943003377943079-013099     377943006003000081875ART+CRAFT EYES ASSTD   0000001000+00001753+00000+0001T   00001753+0000001733          1400 AM5130               1AZ
377943004377943007-000537     377943000651728791017NOTE-PAD RND SMILE-FACE0000001000+00000700+00000+0001T   00000700+0000001733          1400 AM5130               1AZ
377943005377943007-000211     377943006003000005796STATIONERY N/PAD 3PCK  0000001000+00001578+00000+0001T   00001578+0000001733          1400 AM5130               1AZ
377943006377943006-000124     377943006003000625888BALLOONS 10PC MIX COL  0000001000+00001753+00000+0001T   00001753+0000001733          1400 AM5131               1AZ
377943007377943112-116038     377943006009681820246TCS CARRIER BAG MIDI   0000001000+00000035+00000+0001T   00000035+0000001733          1400 AM5090               1AZ
377944000377944               377944               170213DX     1400+00000+DX0000001490+0000001490+000000000+000000209+0000001699+0000000000+I40000001699+0000000000+Z
377944001377944077-000452     377944006003000284986G/BAG METALLIC MED EMB 0000001000+00001490+00000+0001T   00001490+0000001735          1400 AM5112               1AZ
377945000377945               377945               170213DX     1400+00000+DX0000002630-0000002630-000000000+000000369-0000003000-0000000001+I20000000000+0000003000-Z
377945001377945220-009001     377945006001023167804ROSE TEASPOON 6PCE     0000001000-00002630+00000+0001T   00002630+0000001736          1400 AM53002IC            1 Z
377946000377946               377946               170213DX     1400+00000+DX0000003541+0000003541+000000000+000000497+0000004030+0000000008+I20000000000+0000004030+Z
377946001377946366-002101     377946006003000617715DRESS UP MASK LIGHT UP 0000001000+00002630+00000+0001T   00002630+0000001737          1400 AM5131               1AZ
377946002377946006-000223     377946006001023891327PARTY EYE-MASK 6PCE    0000001000+00000876+00000+0001T   00000876+0000001737          1400 AM5131               1AZ
377946003377946112-116038     377946006009681820246TCS CARRIER BAG MIDI   0000001000+00000035+00000+0001T   00000035+0000001737          1400 AM5090               1AZ
377947000377947               377947               170213DX     1400+00000+DX0000012712+0000012712+000000000+000001782+0000014494+0000000000+I40000014494+0000000000+Z
377947001377947075-000412     377947006001023855299SHOPPER-BASKET PL      0000001000+00005700+00000+0001T   00005700+0000001738          1400 AM5160               1AZ
377947002377947079-006495     377947006003000159987GLITTER SHAKERS 6PK    0000001000+00002630+00000+0001T   00002630+0000001738          1400 AM5130               1AZ
377947003377947077-000011-D   377947006001023808554TISSUE-WRAP WHITE 10PCE0000001000+00000876+00000+0001T   00000876+0000001738          1400 AM5112               1AZ
377947004377947079-003002     377947006003000447886A/TUBE 75ML RED        0000001000+00001753+00000+0001T   00001753+0000001738          1400 AM5130               1AZ
377947005377947077-000239     377947006003000160419GIFT-RIBBON ROLL PEARL 0000001000+00001753+00000+0001T   00001753+0000001738          1400 AM5112               1AZ
377948000377948               377948               170213DX     1400+00000+DX0000004822+0000004822+000000000+000000676+0000005490+0000000008+I20000000000+0000005490+Z
377948001377948174-000312     377948006003000053483TRAVEL PADLCK CMB RESET0000001000+00002630+00000+0001T   00003069+0008171739          1400 AM5205               1AZ
377948002377948050-000363-Z   377948006001023475282PADLOCK IRON 32mm CARD 0000001000+00002192+00000+0001T   00002192+0000001739          1400 AM5855               1AZ
377949000377949               377949               170213DX     1400+00000+DX0000004384+0000004384+000000000+000000614+0000004990+0000000008+I20000000000+0000004990+Z
377949001377949071-000672     377949006003000138975STATIONERY CLIPS PAPER 0000001000+00002192+00000+0001T   00002192+0000001739          1400 AM5130               1AZ
377949002377949079-013102     377949006003000019601ART+CRAFT DIY PIPE-CLNR0000001000+00002192+00000+0001T   00002192+0000001739          1400 AM5130               1AZ
377950000377950               377950               170213DX     1400+00000+DX0000008331+0000008331+000000000+000001167+0000009490+0000000008+I20000000000+0000009490+Z
377950001377950003-009216     377950006003000662630ORN WELCOME STONE HEART0000001000+00006139+00000+0001T   00006139+0000001744          1400 AM5505               1AZ
377950002377950047-005127     377950006003000093861CABLETIES 100/150/200mm0000001000+00002192+00000+0001T   00002192+0000001744          1400 AM5880               1AZ
377951000377951               377951               170213DX     1400+00000+DX0000008770+0000008770+000000000+000001228+0000009998+0000000000+I40000009998+0000000000+Z
377951001377951303-000804     377951006001023409751COW-BELL BRS (7-BELLS) 0000001000+00004385+00000+0001T   00004385+0000001747          1400 AM5510               1AZ
377951002377951003-002363     377951006001023764775O/ANIMAL L/PAD 3-ASSTD 0000001000+00004385+00000+0001T   00004385+0000001747          1400 AM5505               1AZ
B37785500                                          170213DX200-000100     09330369SLAVE 1     AM52IC0000002000+0000001000+0000000000000+
B37787800                                          170213DX466-000200     13375906SLAVE 1     AM52IC0000020000+0000010000+0000000000000+
M17021391                              CASH        DXSLAVE 1                       Z-REPORT No.   627TOTAL (Sales - Refunds)           8208.99       CASH TO BE BANKED                 2617.40       DEBIT CARDS                          0.00       CREDIT CARDS                      5591.59       Z-READING                         8208.99       AIRTIME DEBIT CARD SALES             0.00       AIRTIME CARD SALES                   0.00       OVERS/UNDERS                         0.00       AIRTIME CASH SALES                   0.00       GIFT CARDS                           0.00       GIFT CARD CASH SALES                 0.00       T O T A L  CASH PAYOUTS              0.00                                                                                                                                                                                                                                                                                                                                                      Z
M17021392                              CASH        DXABSENT                                                                                                                                                                                          ANNUAL LEAVE                                                                                                                                                                                    DAY OFF                                                                                                                                                                                         COMMENTS                                                                                                                                                                                                                                                                                                                                                                                       Z
Y17021300                                          DX00000000727373+000099
ZDX17021319303 SLAVE 1      SALES DATA                     NEXT INVOICE NO.  377952 0627
X DX Slave 1 First invoice 377851 170213 Last invoice 377951 170213 Next invoice 377952 Total number of records 000000350 clbackup completed 19:30:49
