136064000136064               136064               170213DY     1400+00000+DY0000011399+0000011399+000000000+000001596+0000012995+0000000000+I40000012995+0000000000+Z
136064001136064566-001012     136064006001023528070STICKERS GLOW IN DARK  0000002000+00001314+00000+0001T   00001314+0000000910          1400 JK3130               2BZ
136064002136064039-000799     136064006001023692382CANDLES TEALITE 100PCE 0000001000+00008771+00000+0001T   00008771+0000000910          1400 JK3510               2BZ
136065000136065               136065               170213DY     1400+00000+DY0000007478+0000007478+000000000+000001048+0000008526+0000000000+I40000008526+0000000000+Z
136065001136065564-000012     136065006001023130075BUBBLE BOTTLE MAGIC    0000003000+00000700+00000+0001T   00000700+0000000912          1400 JK3131               2BZ
136065002136065079-009700-B   136065006003000547661PAPER SIRIO A4 WHITE   0000003000+00000306+00000+0001T   00000306+0000000912          1400 JK3130               2BZ
136065003136065079-009700-A   136065006003000547746PAPER SIRIO A4 BLACK   0000003000+00000306+00000+0001T   00000306+0000000912          1400 JK3130               2BZ
136065004136065007-000324     13606500600968585864125 SHEETS BRIGHTS MARLI0000001000+00003507+00000+0001T   00003507+0000000912          1400 JK3130               2BZ
136065005136065112-116038     136065006009681820246TCS CARRIER BAG MIDI   0000001000+00000035+00000+0001T   00000035+0000000912          1400 JK3090               2BZ
136066000136066               136066               170213DY     1400+00000+DY0000015989+0000015989+000000000+000002242+0000018231+0000000000+I40000018231+0000000000+Z
136066001136066071-001010     136066006001023893314MARKERS-METALIC 3PCE   0000001000+00003507+00000+0001T   00003507+0000000920          1400 JK3130               2BZ
136066002136066903-000843     136066008693029031067SWT GUMMY JELAXY 80G   0000002000+00000964+00000+0001T   00000964+0000000920          1400 JK3150               2BZ
136066003136066079-003002     136066006003000447886A/TUBE 75ML RED        0000001000+00001753+00000+0001T   00001753+0000000920          1400 JK3130               2BZ
136066004136066079-001002     136066006003000448715CANVAS A4 WOOD MOUNTED 0000002000+00002630+00000+0001T   00002630+0000000920          1400 JK3130               2BZ
136066005136066077-000316     136066006001023609731GIFT-BAG 25X32CM MATT  0000002000+00001753+00000+0001T   00001753+0000000920          1400 JK3112               2BZ
136066006136066112-116038     136066006009681820246TCS CARRIER BAG MIDI   0000001000+00000035+00000+0001T   00000035+0000000920          1400 JK3090               2BZ
136067000136067               136067               170213DY     1400+00000+DY0000001752+0000001752+000000000+000000246+0000001990+0000000008+I20000000000+0000001990+Z
136067001136067077-000011-C   136067006001023808523TISSUE 10xSHTS RED     0000001000+00000876+00000+0001T   00000876+0000000921          1400 JK3112               2BZ
136067002136067077-000151     136067006008766114676GIFT-WRAP C/PHANE ASSTD0000001000+00000876+00000+0001T   00000876+0000000921          1400 JK3112               2BZ
136068000136068               136068               170213DY     1400+00000+DY0000002452+0000002452+000000000+000000344+0000002790+0000000006+I20000000000+0000002790+Z
136068001136068566-002000     136068000721129013206STICKERS CRYSTAL ASSTD 0000001000+00000700+00000+0001T   00000700+0000000922          1400 JK3130               2BZ
136068002136068077-000151     136068006008766114676GIFT-WRAP C/PHANE ASSTD0000002000+00000876+00000+0001T   00000876+0000000922          1400 JK3112               2BZ
136069000136069               136069               170213DY     1400+00000+DY0000008760+0000008760+000000000+000001230+0000009990+0000000000+I40000009990+0000000000+Z
136069001136069077-000314     136069006003000181148GIFT-BAG 11X14CM MATT  0000005000+00000876+00000+0001T   00000876+0000000923          1400 JK3112               2BZ
136069002136069077-000408     136069006003000145218G/BAG PP 15X21X7CM     0000005000+00000876+00000+0001T   00000876+0000000923          1400 JK3112               2BZ
136070000136070               136070               170213DY     1400+00000+DY0000001227+0000001227+000000000+000000172+0000001390+0000000009+I20000000000+0000001390+Z
136070001136070566-000010     136070006001023761217S/ALBUM+STICKERS ASSTD 0000001000+00001227+00000+0001T   00001227+0000000926          1400 JK3130               2BZ
136071000136071               136071               170213DY     1400+00000+DY0000002630+0000002630+000000000+000000369+0000002990+0000000009+I20000000000+0000002990+Z
136071001136071079-000201     136071006003000161430P/CRAYONS THERAPY 10PCE0000001000+00002630+00000+0001T   00002630+0000000926          1400 JK3130               2BZ
136072000136072               136072               170213DY     1400+00000+DY0000005120+0000005120+000000000+000000717+0000005830+0000000007+I20000000000+0000005830+Z
136072001136072071-001005     136072006001023558169PENCIL-SHARPENER DOUBLE0000001000+00001578+00000+0001T   00001578+0000000928          1400 JK3130               2BZ
136072002136072036-000519     136072006003000560752HOOK HANGER CHROME PL  0000001000+00003507+00000+0001T   00003507+0000000928          1400 JK3212               2BZ
136072003136072112-116038     136072006009681820246TCS CARRIER BAG MIDI   0000001000+00000035+00000+0001T   00000035+0000000928          1400 JK3090               2BZ
136073000136073               136073               170213DY     1400+00000+DY0000001314+0000001314+000000000+000000184+0000001490+0000000008+I20000000000+0000001490+Z
136073001136073077-000407     136073006003000145096G/BAG PP 19X26X8CM     0000001000+00001314+00000+0001T   00001314+0000001000          1400 JK3112               2BZ
136074000136074               136074               170213DY     1400+00000+DY0000063726+0000063726+000000000+000008926+0000072652+0000000000+I40000072652+0000000000+Z
136074001136074365-000009     136074006003000166305P/SET DOCTOR SET LIGHT 0000001000+00015788+00000+0001T   00017542+0008191021          1400 JK3725               2BZ
136074002136074562-000019     136074006001023800305EDU PLAY DOUGH BOXED   0000002000+00007893+00000+0001T   00008771+0008191021          1400 JK3755               2BZ
136074003136074024-000216     136074006001023766557KIDDIES B/WARE ACC 3PC 0000001000+00003069+00000+0001T   00003069+0000001021          1400 JK3300               2BZ
136074004136074564-000010     136074006003000395477BUBBLE REFILL 1 LITRE  0000001000+00004385+00000+0001T   00004385+0000001021          1400 JK3131               2BZ
136074005136074365-004004     136074006003000242993PLAY-SET SEWING MACHINE0000001000+00024560+00000+0001T   00024560+0000001021          1400 JK3725               2BZ
136074006136074112-116053     136074006006438002399TCS CARRIER BAG 38L    0000002000+00000069+00000+0001T   00000069+0000001021          1400 JK3090               2BZ
136075000136075               136075               170213DY     1400+00000+DY0000008770+0000008770+000000000+000001228+0000009998+0000000000+I40000009998+0000000000+Z
136075001136075368-000049     136075006003000536955PLUSH BEAR 15cm LOVE   0000002000+00004385+00000+0001T   00004385+0000001022          1400 JK3745               2BZ
136076000136076               136076               170213DY     1400+00000+DY0000005295+0000005295+000000000+000000743+0000006038+0000000000+I40000006038+0000000000+Z
136076001136076566-000367     136076006003000645558STICKER WINDOW DECOR   0000001000+00002630+00000+0001T   00002630+0000001025          1400 JK3130               2BZ
136076002136076200-000104     136076006003000677412PICNIC CUPS PL 6PCE    0000001000+00002630+00000+0001T   00002630+0000001025          1400 JK3214               2BZ
136076003136076112-116038     136076006009681820246TCS CARRIER BAG MIDI   0000001000+00000035+00000+0001T   00000035+0000001025          1400 JK3090               2BZ
136077000136077               136077               170213DY     1400+00000+DY0000010556+0000010556+000000000+000001478+0000012034+0000000000+I40000012034+0000000000+Z
136077001136077018-000130     136077006001023867537MUG OCC LOVE MINI+HEART0000003000+00003507+00000+0001T   00003507+0000001028          1400 JK3515               2BZ
136077002136077112-116038     136077006009681820246TCS CARRIER BAG MIDI   0000001000+00000035+00000+0001T   00000035+0000001028          1400 JK3090               2BZ
136078000136078               136078               170213DY     1400+00000+DY0000007925+0000007925+000000000+000001110+0000009035+0000000000+I40000009035+0000000000+Z
136078001136078072-020311     136078006003000494132PET DOG TOY VINYL BALL 0000001000+00003069+00000+0001T   00003069+0000001045          1400 JK3870               2BZ
136078002136078072-020264     136078006001023602565PET DOG CLEAN-UP BAGS  0000001000+00003507+00000+0001T   00003507+0000001045          1400 JK3870               2BZ
136078003136078565-000892-A   136078006003000690725NOVELTY FUN BALL       0000001000+00001314+00000+0001T   00001753+0008141045          1400 JK3745               2BZ
136078004136078112-116038     136078006009681820246TCS CARRIER BAG MIDI   0000001000+00000035+00000+0001T   00000035+0000001045          1400 JK3090               2BZ
136079000136079               136079               170213DY     1400+00000+DY0000005262+0000005262+000000000+000000737+0000005999+0000000000+I40000005999+0000000000+Z
136079001136079107-004510     136079006002580008968STEP-STOOL PL          0000001000+00005262+00000+0001T   00005262+0000001048          1400 JK3210               2BZ
136080000136080               136080               170213DY     1400+00000+DY0000004118+0000004118+000000000+000000577+0000004695+0000000000+I40000004695+0000000000+Z
136080001136080077-000310     136080006001023608635GIFT-BAG 18X23CM GLOSS 0000002000+00001314+00000+0001T   00001314+0000001051          1400 JK3112               2BZ
136080002136080077-000305     136080006003000395422GIFT-BAG WINE 10X35CM  0000001000+00001490+00000+0001T   00001490+0000001051          1400 JK3112               2BZ
136081000136081               136081               170213DY     1400+00000+DY0000004385+0000004385+000000000+000000614+0000004990+0000000009+I20000000000+0000004990+Z
136081001136081368-000001     136081006003000097982Plush Bear 25cm        0000001000+00004385+00000+0001T   00004385+0000001051          1400 JK3745               2BZ
136082000136082               136082               170213DY     1400+00000+DY0000008771+0000008771+000000000+000001228+0000009990+0000000009+I20000000000+0000009990+Z
136082001136082031-006227     136082006001024004627P/FRAME COLLAGE 50X28CM0000001000+00008771+00000+0001T   00008771+0000001058          1400 JK3510               2AZ
136083000136083               136083               170213DY     1400+00000+DY0000002980+0000002980+000000000+000000418+0000003390+0000000008+I20000000000+0000003390+Z
136083001136083077-000322     136083006001023677532GIFT-BAG 18X23CM E/D FL0000001000+00001227+00000+0001T   00001227+0000001101          1400 JK3112               2BZ
136083002136083088-000084     136083006001023798060P/POURRI 120G ASSTD    0000001000+00001753+00000+0001T   00001753+0000001101          1400 JK3212               2BZ
136084000136084               136084               170213DY     1400+00000+DY0000007629+0000007629+000000000+000001069+0000008690+0000000008+I20000000000+0000008690+Z
136084001136084077-000299     136084006003000395576G/BAG 32x25cm LRG LOVE 0000001000+00001490+00000+0001T   00001490+0000001102          1400 JK3112               2BZ
136084002136084018-050000     136084006003000412679MUG OCC LOVE TWIN BEAR 0000001000+00006139+00000+0001T   00006139+0000001102          1400 JK3515               2BZ
136085000136085               136085               170213DY     1400+00000+DY0000001578+0000001578+000000000+000000221+0000001790+0000000009+I20000000000+0000001790+Z
136085001136085024-000034     136085006001023495235MEASURING-JUG 1-CUP    0000001000+00001578+00000+0001T   00001578+0000001104          1400 JK3300               2BZ
136086000136086               136086               170213DY     1400+00000+DY0000005609+0000005609+000000000+000000787+0000006390+0000000006+I20000000000+0000006390+Z
136086001136086079-009702-A   136086008427973059408PAPER SIRIO A2 BLACK   0000001000+00001051+00000+0001T   00001051+0000001107          1400 JK3130               2BZ
136086002136086079-009702-G   136086008427973060787PAPER SIRIO A2 FUSHIA  0000001000+00001051+00000+0001T   00001051+0000001107          1400 JK3130               2BZ
136086003136086566-000317     136086006003000524204STICKER TAPE 2PCS      0000001000+00003507+00000+0001T   00003507+0000001107          1400 JK3130               2BZ
136087000136087               136087               170213DY     1400+00000+DY0000002454+0000002454+000000000+000000344+0000002798+0000000000+I40000002798+0000000000+Z
136087001136087077-000319     136087006001023609779GIFT-BAG 18X23CM BIRTHD0000002000+00001227+00000+0001T   00001227+0000001108          1400 JK3112               2BZ
136088000136088               136088               170213DY     1400+00000+DY0000003945+0000003945+000000000+000000553+0000004490+0000000008+I20000000000+0000004490+Z
136088001136088142-000815     136088006001023183903GLOVES RUBBER LARGE    0000001000+00001753+00000+0001T   00001753+0000001114          1400 JK3810               2BZ
136088002136088007-000597     136088006009699511129MARLIN SLF ADHESIVE 2M 0000001000+00002192+00000+0001T   00002192+0000001114          1400 JK3130               2BZ
136089000136089               136089               170213DY     1400+00000+DY0000006131+0000006131+000000000+000000860+0000006991+0000000000+I40000006991+0000000000+Z
136089001136089564-000012     136089006001023130075BUBBLE BOTTLE MAGIC    0000001000+00000700+00000+0001T   00000700+0000001117          1400 JK3131               2BZ
136089002136089006-000124     136089006003000625888BALLOONS 10PC MIX COL  0000001000+00001753+00000+0001T   00001753+0000001117          1400 JK3131               2BZ
136089003136089006-001000     136089006003000093779HELIUM BALLOON FILL    0000006000+00000613+00000+0001T   00000613+0000001117          1400 JK3131               2BZ
136090000136090               136090               170213DY     1400+00000+DY0000003506+0000003506+000000000+000000492+0000003998+0000000000+I40000003998+0000000000+Z
136090001136090006-000120     136090006001023346889BALLOONS 10PC MIX COL  0000001000+00001753+00000+0001T   00001753+0000001118          1400 JK3131               2BZ
136090002136090903-000610     136090006003000610518SWEET JUMBO BUBBLE GUM 0000001000+00001753+00000+0001T   00001753+0000001118          1400 JK3150               2BZ
136091000136091               136091               170213DY     1400+00000+DY0000008325+0000008325+000000000+000001168+0000009493+0000000000+I40000009493+0000000000+Z
136091001136091079-009702-D   136091008427973059354PAPER SIRIO A2 RED COL 0000001000+00001051+00000+0001T   00001051+0000001121          1400 JK3130               2BZ
136091002136091024-091103-E   136091006003000596300CAKE BOX 2PC SQUARE    0000001000+00001753+00000+0001T   00001753+0000001121          1400 JK3300               2BZ
136091003136091903-000844     136091005010478432567SWT CANDY DL LUV HEARTS0000001000+00001314+00000+0001T   00001314+0000001121          1400 JK3150               2BZ
136091004136091079-013099     136091006003000081875ART+CRAFT EYES ASSTD   0000001000+00001753+00000+0001T   00001753+0000001121          1400 JK3130               2BZ
136091005136091306-000021-D   136091006003000622108COTTON EARBUDS COSMETIC0000001000+00000876+00000+0001T   00001139+0008171121          1400 JK3200               2BZ
136091006136091018-000127     136091006001023380289MUG OCC STRAIGHT LOVE  0000001000+00001578+00000+0001T   00001753+0006471121          1400 JK3515               2BZ
136092000136092               136092               170213DY     1400+00000+DY0000012486+0000012486+000000000+000001749+0000014230+0000000005+I20000000000+0000014230+Z
136092001136092301-085008     136092006003000673933ORN OCC.LOVE TINSEL HRT0000001000+00003069+00000+0001T   00003069+0000001122          1400 JK3505               2BZ
136092002136092077-000303     136092006001023593757GIFT-BAG PAPER MED     0000003000+00001578+00000+0001T   00001578+0000001122          1400 JK3112               2BZ
136092003136092105-001081     136092000700371699888CLIP LOCK 4L OBLONG    0000001000+00004648+00000+0001T   00004648+0000001122          1400 JK3210               2BZ
136092004136092112-116038     136092006009681820246TCS CARRIER BAG MIDI   0000001000+00000035+00000+0001T   00000035+0000001122          1400 JK3090               2BZ
136093000136093               136093               170213DY     1400+00000+DY0000027247+0000027247+000000000+000003822+0000031069+0000000000+I40000031069+0000000000+Z
136093001136093076-000710-H   136093006001023426482SKI-ROPE 7mmx10m       0000001000+00001753+00000+0001T   00001753+0000001127          1400 JK3810               2BZ
136093002136093140-005093     136093006003000331338INSECT-KILL RAQT-SHAPED0000001000+00005262+00000+0001T   00005262+0000001127          1400 JK3830               2BZ
136093003136093076-000710-H   136093006001023426482SKI-ROPE 7mmx10m       0000001000+00001753+00000+0001T   00001753+0000001127          1400 JK3810               2BZ
136093004136093466-000515     136093006001023477408BALLS TENNIS BAG-OF-3  0000007000+00002630+00000+0001T   00002630+0000001127          1400 JK3785               2BZ
136093005136093112-116053     136093006006438002399TCS CARRIER BAG 38L    0000001000+00000069+00000+0001T   00000069+0000001127          1400 JK3090               2BZ
136094000136094               136094               170213DY     1400+00000+DY0000001227+0000001227+000000000+000000172+0000001390+0000000009+I20000000000+0000001390+Z
136094001136094007-000160     136094006009685857286NOTE-BOOK A5 SHORTHAND 0000001000+00001227+00000+0001T   00001227+0000001128          1400 JK3130               2BZ
136095000136095               136095               170213DY     1400+00000+DY0000002629+0000002629+000000000+000000369+0000002990+0000000008+I20000000000+0000002990+Z
136095001136095007-000127     136095006009685853431BOOK H/COVER MEMO 144PG0000001000+00000876+00000+0001T   00000876+0000001128          1400 JK3130               2BZ
136095002136095080-000113     136095006003000237449CARD&ENVLPE - LOVE     0000001000+00001753+00000+0001T   00001753+0000001128          1400 JK3112               2BZ
136096000136096               136096               170213DY     1400+00000+DY0000013157+0000013157+000000000+000001842+0000014999+0000000000+I40000014999+0000000000+Z
136096001136096567-075700     136096006003000339389BOOK NOVEL 3-PACK ASSTD0000001000+00013157+00000+0001T   00013157+0000001130          1400 JK3757               2BZ
136097000136097               136097               170213DY     1400+00000+DY0000001753+0000001753+000000000+000000246+0000001990+0000000009+I20000000000+0000001990+Z
136097001136097142-000810     136097006003000429844GLOVES LATEX PRNT CUFFS0000001000+00001753+00000+0001T   00001753+0000001134          1400 JK3810               2BZ
136098000136098               136098               170213DY     1400+00000+DY0000004384+0000004384+000000000+000000614+0000004990+0000000008+I20000000000+0000004990+Z
136098001136098046-000012-A   136098006003000208296BATTERIES H/POWER SZ:AA0000002000+00002192+00000+0001T   00002192+0000001148          1400 JK3312               2BZ
136099000136099               136099               170213DY     1400+00000+DY0000001753+0000001753+000000000+000000246+0000001990+0000000009+I20000000000+0000001990+Z
136099001136099080-000111     136099006003000252695CARD&ENVELPE - MUSICAL 0000001000+00001753+00000+0001T   00001753+0000001152          1400 JK3112               2BZ
136100000136100               136100               170213DY     1400+00000+DY0000006873+0000006873+000000000+000000964+0000007837+0000000000+I40000007837+0000000000+Z
136100001136100174-000172     136100006003000519279STORAGE BOX NON-WOVEN  0000001000+00003946+00000+0001T   00005262+0008171154          1400 JK3205               2BZ
136100003136100159-000445     136100006001023669728SOAP-BOX PL OVAL       0000001000+00001139+00000+0001T   00001139+0000001154          1400 JK3200               2BZ
136100004136100112-116038     136100006009681820246TCS CARRIER BAG MIDI   0000001000+00000035+00000+0001T   00000035+0000001154          1400 JK3090               2BZ
136100005136100051-002406     136100006003000139415SPRAY PL TRIGGER 700ml 0000001000+00001753+00000+0001T   00001753+0000001154          1400 JK3820               2BZ
136101000136101               136101               170213DY     1400+00000+DY0000003682+0000003682+000000000+000000516+0000004198+0000000000+I40000004198+0000000000+Z
136101001136101566-000359     136101006003000582709STICKER BOOK LOVE SPARK0000001000+00002192+00000+0001T   00002192+0000001156          1400 JK3130               2BZ
136101002136101077-000299     136101006003000395576G/BAG 32x25cm LRG LOVE 0000001000+00001490+00000+0001T   00001490+0000001156          1400 JK3112               2BZ
136102000136102               136102               170213DY     1400+00000+DY0000012308+0000012308+000000000+000001725+0000014030+0000000003+I20000000000+0000014030+Z
136102001136102016-006517     136102006003000351626S/JAR GLS CHECK 650ML  0000003000+00002192+00000+0001T   00002192+0000001158          1400 JK3300               2BZ
136102002136102200-003024     136102006001023657299REFUSE BAGS 20PCE BLACK0000001000+00001753+00000+0001T   00001753+0000001158          1400 JK3214               2BZ
136102003136102028-000799     136102006001023812186SKEWERS BAMBOO 100PCE  0000001000+00001578+00000+0001T   00001578+0000001158          1400 JK3305               2BZ
136102004136102028-000797     136102006001023812124SKEWERS 15cm 100PCE    0000001000+00000876+00000+0001T   00000876+0000001158          1400 JK3305               2BZ
136102005136102002-021064     136102006001023822246TOOTHPICKS IN-HOLDER   0000001000+00001490+00000+0001T   00001490+0000001158          1400 JK3300               2BZ
136102006136102112-116038     136102006009681820246TCS CARRIER BAG MIDI   0000001000+00000035+00000+0001T   00000035+0000001158          1400 JK3090               2BZ
136103000136103               136103               170213DY     1400+00000+DY0000001753+0000001753+000000000+000000246+0000001990+0000000009+I20000000000+0000001990+Z
136103001136103079-000275     136103006003000160488PAINT-BRUSHES 6PCE PRO 0000001000+00001753+00000+0001T   00001753+0000001159          1400 JK3130               2BZ
136104000136104               136104               170213DY     1400+00000+DY0000007012+0000007012+000000000+000000984+0000007990+0000000006+I20000000000+0000007990+Z
136104001136104466-000200     136104006001023621665HULA-HOOP     ASSTD    0000004000+00001753+00000+0001T   00001753+0000001159          1400 JK3785               2BZ
136105000136105               136105               170213DY     1400+00000+DY0000021551+0000021551+000000000+000003021+0000024572+0000000000+I40000024572+0000000000+Z
136105001136105077-000303     136105006001023593757GIFT-BAG PAPER MED     0000001000+00001578+00000+0001T   00001578+0000001209          1400 JK3112               2BZ
136105002136105077-000005-D   136105006003000414567PAPER TISSUE 50x70cm   0000001000+00001753+00000+0001T   00001753+0000001209          1400 JK3112               2BZ
136105003136105077-000299-A   136105006003000670888GIFT-BAG PAPER JMB LOVE0000001000+00001753+00000+0001T   00001753+0000001209          1400 JK3112               2BZ
136105004136105077-000299     136105006003000395576G/BAG 32x25cm LRG LOVE 0000001000+00001490+00000+0001T   00001490+0000001209          1400 JK3112               2BZ
136105005136105077-000299-A   136105006003000670888GIFT-BAG PAPER JMB LOVE0000001000+00001753+00000+0001T   00001753+0000001209          1400 JK3112               2BZ
136105006136105368-000637     136105006001023874092PLUSH BEAR SLEEPING LOV0000001000+00011402+00000+0001T   00012279+0006471209          1400 JK3745               2BZ
136105007136105112-116053     136105006006438002399TCS CARRIER BAG 38L    0000001000+00000069+00000+0001T   00000069+0000001209          1400 JK3090               2BZ
136105008136105080-000113     136105006003000237449CARD&ENVLPE - LOVE     0000001000+00001753+00000+0001T   00001753+0000001209          1400 JK3112               2BZ
136106000136106               136106               170213DY     1400+00000+DY0000010730+0000010730+000000000+000001504+0000012234+0000000000+I40000012234+0000000000+Z
136106001136106361-009103     136106006001023706607DOLL BOTTLES 10cm 2PCE 0000001000+00002192+00000+0001T   00002192+0000001216          1400 JK3725               2BZ
136106002136106362-000315     136106006003000096008HAIR HEADBAND FLOWERS  0000001000+00001753+00000+0001T   00001753+0000001216          1400 JK3160               2BZ
136106003136106366-002803     136106006003000531875DRESS UP POMPOM 2PC SET0000001000+00003507+00000+0001T   00003507+0000001216          1400 JK3131               2BZ
136106004136106362-003004     136106006003000294961HAIR CLIPS             0000001000+00001753+00000+0001T   00001753+0000001216          1400 JK3160               2BZ
136106005136106077-000327     136106006001023677686GIFT-BAG 25X32CM E/D BA0000001000+00001490+00000+0001T   00001490+0000001216          1400 JK3112               2BZ
136106006136106112-116038     136106006009681820246TCS CARRIER BAG MIDI   0000001000+00000035+00000+0001T   00000035+0000001216          1400 JK3090               2BZ
136107000136107               136107               170213DY     1400+00000+DY0000000613+0000000613+000000000+000000086+0000000690+0000000009+I20000000000+0000000690+Z
136107001136107566-001226     136107006001023672360STICKERS 3-D POP-UP    0000001000+00000613+00000+0001T   00000613+0000001219          1400 JK3130               2BZ
136108000136108               136108               170213DY     1400+00000+DY0000012747+0000012747+000000000+000001787+0000014534+0000000000+I40000014534+0000000000+Z
136108001136108566-000066     136108006003000283675STICKERS GLITTER 25PCS 0000001000+00001753+00000+0001T   00001753+0000001222          1400 JK3130               2BZ
136108002136108079-013099     136108006003000081875ART+CRAFT EYES ASSTD   0000001000+00001753+00000+0001T   00001753+0000001222          1400 JK3130               2BZ
136108003136108079-013106     136108006003000081998ART+CRAFT PIPE-CLEANERS0000001000+00003069+00000+0001T   00003069+0000001222          1400 JK3130               2BZ
136108004136108079-000600     136108006003000160990ART-SHEETS FOAM ASSTD-C0000001000+00003507+00000+0001T   00003507+0000001222          1400 JK3130               2BZ
136108005136108566-000006     136108006001023671189STICKER-BOOK DRESS-UP  0000001000+00002630+00000+0001T   00002630+0000001222          1400 JK3130               2BZ
136108006136108112-116038     136108006009681820246TCS CARRIER BAG MIDI   0000001000+00000035+00000+0001T   00000035+0000001222          1400 JK3090               2BZ
136109000136109               136109               170213DY     1400+00000+DY0000001490+0000001490+000000000+000000209+0000001690+0000000009+I20000000000+0000001690+Z
136109001136109077-000304     136109006001023483232GIFT-BAG 25X32CM E/DAY 0000001000+00001490+00000+0001T   00001490+0000001223          1400 JK3112               2BZ
136110000136110               136110               170213DY     1400+00000+DY0000001227+0000001227+000000000+000000172+0000001390+0000000009+I20000000000+0000001390+Z
136110001136110251-000040     136110006001023515865SEALTAPE CLEAR 48mmx50m0000001000+00001227+00000+0001T   00001227+0000001230          1400 JK3810               2BZ
136111000136111               136111               170213DY     1400+00000+DY0000003069+0000003069+000000000+000000430+0000003490+0000000009+I20000000000+0000003490+Z
136111001136111024-000069     136111006001023849571EGG-WHISK S/S 30cm     0000001000+00003069+00000+0001T   00003069+0000001231          1400 JK3300               2BZ
136112000136112               136112               170213DY     1400+00000+DY0000004822+0000004822+000000000+000000676+0000005490+0000000008+I20000000000+0000005490+Z
136112001136112200-003026     136112006003000276448REFUSE BAGS 10PCE GREEN0000001000+00001753+00000+0001T   00001753+0000001231          1400 JK3214               2BZ
136112002136112038-001805     136112006003000466405DOILIES PAPER 60PC 3ASS0000001000+00003069+00000+0001T   00003069+0000001231          1400 JK3300               2BZ
136113000136113               136113               170213DY     1400+00000+DY0000003238+0000003238+000000000+000000457+0000003690+0000000005+I20000000000+0000003690+Z
136113001136113077-000452     136113006003000284986G/BAG METALLIC MED EMB 0000001000+00001490+00000+0001T   00001490+0000001232          1400 JK3112               2BZ
136113002136113083-000049     136113004891035200024CIG-LIGHTER DISPOSABLE 0000004000+00000437+00000+0001T   00000437+0000001232          1400 JK3315               2BZ
136114000136114               136114               170213DY     1400+00000+DY0000002630+0000002630+000000000+000000369+0000002999+0000000000+I40000002999+0000000000+Z
136114001136114031-006530     136114006001023995803P/FRAME COL BABY 2ASSTD0000001000+00002630+00000+0001T   00002630+0000001301          1400 JK3510               2BZ
136115000136115               136115               170213DY     1400+00000+DY0000011402+0000011402+000000000+000001597+0000012999+0000000000+I40000012999+0000000000+Z
136115001136115562-000209     136115006003000104710EDU 32PCS BLOCKS WAGON 0000001000+00011402+00000+0001T   00011402+0000001413          1400 JK3755               2BZ
136116000136116               136116               170213DY     1400+00000+DY0000002104+0000002104+000000000+000000295+0000002390+0000000009+I20000000000+0000002390+Z
136116001136116903-000090     136116006009826020821SWT GS CHOCO COINS 60g 0000001000+00002104+00000+0001T   00002104+0000001415          1400 JK3150               2BZ
136117000136117               136117               170213DY     1400+00000+DY0000004995+0000004995+000000000+000000701+0000005696+0000000000+I40000005696+0000000000+Z
136117001136117306-000529     136117006003000571338TOOTHBRUSH HOLDER 20cm 0000001000+00001753+00000+0001T   00001753+0000001417          1400 JK3200               2BZ
136117002136117159-000445     136117006001023669728SOAP-BOX PL OVAL       0000001000+00001139+00000+0001T   00001139+0000001417          1400 JK3200               2BZ
136117003136117033-000013     136117006001023567215PILL-REMINDER PL       0000001000+00001227+00000+0001T   00001227+0000001417          1400 JK3200               2BZ
136117004136117033-001364     136117006001023802088HAIR-CLIPS 65mm 24PCE  0000001000+00000876+00000+0001T   00000876+0000001417          1400 JK3200               2BZ
136118000136118               136118               170213DY     1400+00000+DY0000006139+0000006139+000000000+000000860+0000006999+0000000000+I40000006999+0000000000+Z
136118001136118361-009988     136118006001023866011PONY 24cm W/SIDE-SADDLE0000001000+00006139+00000+0001T   00006139+0000001440          1400 JK3725               2BZ
136119000136119               136119               170213DY     1400+00000+DY0000008802+0000008802+000000000+000001234+0000010030+0000000006+I20000000000+0000010030+Z
136119001136119159-006347     136119006001023713193HOOKS SET-2 ASSTD BOX  0000001000+00003507+00000+0001T   00003507+0000001441          1400 JK3200               2BZ
136119002136119567-075466     136119009780263921144BK NOVEL ROMANCE       0000001000+00002630+00000+0001T   00002630+0000001441          1400 JK3757               2BZ
136119003136119567-075466     136119009780263252880BK NOVEL ROMANCE       0000001000+00002630+00000+0001T   00002630+0000001441          1400 JK3757               2BZ
136119004136119112-116038     136119006009681820246TCS CARRIER BAG MIDI   0000001000+00000035+00000+0001T   00000035+0000001441          1400 JK3090               2BZ
136120000136120               136120               170213DY     1400+00000+DY0000003506+0000003506+000000000+000000492+0000003990+0000000008+I20000000000+0000003990+Z
136120001136120006-000120     136120006001023346889BALLOONS 10PC MIX COL  0000002000+00001753+00000+0001T   00001753+0000001441          1400 JK3131               2BZ
136121000136121               136121               170213DY     1400+00000+DY0000003153+0000003153+000000000+000000444+0000003597+0000000000+I40000003597+0000000000+Z
136121001136121079-009702-G   136121008427973060787PAPER SIRIO A2 FUSHIA  0000001000+00001051+00000+0001T   00001051+0000001443          1400 JK3130               2BZ
136121002136121079-009702-A   136121008427973059408PAPER SIRIO A2 BLACK   0000001000+00001051+00000+0001T   00001051+0000001443          1400 JK3130               2BZ
136121003136121079-009702-C   136121008427973059309PAPER SIRIO A2 VIOLET  0000001000+00001051+00000+0001T   00001051+0000001443          1400 JK3130               2BZ
136122000136122               136122               170213DY     1400+00000+DY0000002192+0000002192+000000000+000000307+0000002490+0000000009+I20000000000+0000002490+Z
136122001136122566-000068     136122006003000418046POP UP LOVE 2 ASSTD    0000001000+00002192+00000+0001T   00002192+0000001443          1400 JK3130               2BZ
136123000136123               136123               170213DY     1400+00000+DY0000001051+0000001051+000000000+000000148+0000001190+0000000009+I20000000000+0000001190+Z
136123001136123079-009702-F   136123008427973059392PAPER SIRIO A2 GREEN   0000001000+00001051+00000+0001T   00001051+0000001444          1400 JK3130               2BZ
136124000136124               136124               170213DY     1400+00000+DY0000008771+0000008771+000000000+000001228+0000009990+0000000009+I20000000000+0000009990+Z
136124001136124039-000799     136124006001023692382CANDLES TEALITE 100PCE 0000001000+00008771+00000+0001T   00008771+0000001446          1400 JK3510               2BZ
136125000136125               136125               170213DY     1400+00000+DY0000000876+0000000876+000000000+000000123+0000000990+0000000009+I20000000000+0000000990+Z
136125001136125077-000302     136125008010410010195GIFT-BAG 18X23CM E/D   0000001000+00000876+00000+0001T   00000876+0000001449          1400 JK3112               2BZ
136126000136126               136126               170213DY     1400+00000+DY0000005961+0000005961+000000000+000000835+0000006790+0000000006+I20000000000+0000006790+Z
136126001136126080-000124     136126006003000297733CARD & ENV VALENTINES  0000001000+00001578+00000+0001T   00001578+0000001449          1400 JK3112               2BZ
136126002136126030-000030-A   136126006003000249305PLAQUE GLASS LOVE      0000001000+00003069+00000+0001T   00003069+0000001449          1400 JK3505               2BZ
136126003136126077-000310     136126006001023608635GIFT-BAG 18X23CM GLOSS 0000001000+00001314+00000+0001T   00001314+0000001449          1400 JK3112               2BZ
136127000136127               136127               170213DY     1400+00000+DY0000009676+0000009676+000000000+000001356+0000011030+0000000002+I20000000000+0000011030+Z
136127001136127261-000121     136127006001023341600GUN-CAPS 8-SHOT CARD-9 0000003000+00000700+00000+0001T   00000700+0000001451          1400 JK3710               2BZ
136127002136127261-008552     136127006001023832580CAP-GUN           ASSTD0000001000+00007016+00000+0001T   00007016+0000001451          1400 JK3710               2BZ
136127003136127112-116038     136127006009681820246TCS CARRIER BAG MIDI   0000001000+00000035+00000+0001T   00000035+0000001451          1400 JK3090               2BZ
136127004136127903-000151     136127006009803374411SWT SML RND R/BOW LOLLY0000001000+00000525+00000+0001T   00000525+0000001451          1400 JK3150               2BZ
136128000136128               136128               170213DY     1400+00000+DY0000010383+0000010383+000000000+000001454+0000011837+0000000000+I40000011837+0000000000+Z
136128001136128030-004015     136128006003000467624PLAQUE WDN SIGN 30X20CM0000001000+00009648+00000+0001T   00009648+0000001452          1400 JK3505               2BZ
136128002136128112-116038     136128006009681820246TCS CARRIER BAG MIDI   0000001000+00000035+00000+0001T   00000035+0000001452          1400 JK3090               2BZ
136128003136128018-000177     136128006001023797513MUG MINI LOVE ASSTD    0000001000+00000700+00000+0001T   00000700+0000001452          1400 JK3515               2BZ
136129000136129               136129               170213DY     1400+00000+DY0000002451+0000002451+000000000+000000344+0000002790+0000000005+I20000000000+0000002790+Z
136129001136129079-009702-C   136129008427973059309PAPER SIRIO A2 VIOLET  0000001000+00001051+00000+0001T   00001051+0000001453          1400 JK3130               2BZ
136129002136129018-000177     136129006001023797513MUG MINI LOVE ASSTD    0000002000+00000700+00000+0001T   00000700+0000001453          1400 JK3515               2BZ
136130000136130               136130               170213DY     1400+00000+DY0000004768+0000004768+000000000+000000669+0000005437+0000000000+I40000005437+0000000000+Z
136130001136130077-000382     136130006003000247820GIFT-BAG MED 18X23CM   0000001000+00001753+00000+0001T   00001753+0000001505          1400 JK3112               2BZ
136130002136130006-000120     136130006001023346889BALLOONS 10PC MIX COL  0000001000+00001753+00000+0001T   00001753+0000001505          1400 JK3131               2BZ
136130003136130077-000245     136130006001023759214GIFT-RIBBON METALLICx2 0000001000+00001227+00000+0001T   00001227+0000001505          1400 JK3112               2BZ
136130004136130112-116038     136130006009681820246TCS CARRIER BAG MIDI   0000001000+00000035+00000+0001T   00000035+0000001505          1400 JK3090               2BZ
136131000136131               136131               170213DY     1400+00000+DY0000000876+0000000876+000000000+000000123+0000000990+0000000009+I20000000000+0000000990+Z
136131001136131039-000323     136131006001023524171BIRTHDAY-CANDLES 24PCE 0000001000+00000876+00000+0001T   00000876+0000001506          1400 JK3510               2BZ
136132000136132               136132               170213DY     1400+00000+DY0000002278+0000002278+000000000+000000319+0000002590+0000000007+I20000000000+0000002590+Z
136132001136132077-000303     136132006001023593757GIFT-BAG PAPER MED     0000001000+00001578+00000+0001T   00001578+0000001506          1400 JK3112               2BZ
136132002136132018-000177     136132006001023797513MUG MINI LOVE ASSTD    0000001000+00000700+00000+0001T   00000700+0000001506          1400 JK3515               2BZ
136133000136133               136133               170213DY     1400+00000+DY0000005297+0000005297+000000000+000000742+0000006030+0000000009+I20000000000+0000006030+Z
136133001136133018-019000     136133006003000557288MUG OCC. LOVE JUMBO    0000001000+00005262+00000+0001T   00005262+0000001518          1400 JK3515               2BZ
136133002136133112-116038     136133006009681820246TCS CARRIER BAG MIDI   0000001000+00000035+00000+0001T   00000035+0000001518          1400 JK3090               2BZ
136134000136134               136134               170213DY     1400+00000+DY0000001753+0000001753+000000000+000000246+0000001990+0000000009+I20000000000+0000001990+Z
136134001136134903-000215     136134006002099001214SWT GS MALLOW TWIST PAC0000001000+00001753+00000+0001T   00001753+0000001520          1400 JK3150               2BZ
136135000136135               136135               170213DY     1400+00000+DY0000003504+0000003504+000000000+000000492+0000003990+0000000006+I20000000000+0000003990+Z
136135001136135007-000166     136135006009685857316SPIRAL NOTES A6 100PG  0000001000+00000700+00000+0001T   00000700+0000001524          1400 JK3130               2BZ
136135002136135033-000125     136135006009654960658COMBS GENTS MINI 2PC   0000001000+00001051+00000+0001T   00001051+0000001524          1400 JK3200               2BZ
136135003136135033-001300     136135006003000667390HAIR PINS 4PC SNAP CLIP0000001000+00001753+00000+0001T   00001753+0000001524          1400 JK3200               2BZ
136136000136136               136136               170213DY     1400+00000+DY0000007016+0000007016+000000000+000000983+0000007990+0000000009+I20000000000+0000007990+Z
136136001136136031-007000     136136006003000462476P/FRAME WDN DIST.10X15 0000001000+00007016+00000+0001T   00007016+0000001525          1400 JK3510               2BZ
136137000136137               136137               170213DY     1400+00000+DY0000010293+0000010293+000000000+000001443+0000011736+0000000000+I40000011736+0000000000+Z
136137001136137077-000467     136137006003000329991GIFT-BAG STAMP 18X23CM 0000001000+00001753+00000+0001T   00001753+0000001528          1400 JK3112               2BZ
136137002136137071-005213     136137006001023690371CELLOTAPE 12mmx33m     0000001000+00000876+00000+0001T   00000876+0000001528          1400 JK3130               2BZ
136137003136137079-000807     136137006003000670277ART+CRAFT WOODEN STICKS0000001000+00001490+00000+0001T   00001490+0000001528          1400 JK3130               2BZ
136137004136137301-000300     136137006003000456840ORN INSPIRATIONAL CROSS0000001000+00006139+00000+0001T   00006139+0000001528          1400 JK3505               2BZ
136137005136137112-116038     136137006009681820246TCS CARRIER BAG MIDI   0000001000+00000035+00000+0001T   00000035+0000001528          1400 JK3090               2BZ
136138000136138               136138               170213DY     1400+00000+DY0000014590+0000014590+000000000+000002045+0000016635+0000000000+I40000016635+0000000000+Z
136138001136138466-064838     136138006001023835031BALLS MASSAGE 8cm SET-30000001000+00001753+00000+0001T   00001753+0000001529          1400 JK3785               2BZ
136138002136138567-009984     136138006003000380145BOOK ASSTD BOARD BOOKS 0000001000+00001402+00000+0001T   00001402+0000001529          1400 JK3757               2BZ
136138003136138567-011429     136138009780799352597BK READER BEGIN LEES   0000001000+00003507+00000+0001T   00004823+0008141529          1400 JK3757               2BZ
136138004136138369-000040     136138006001023826589BABY TOY EDU MUSICAL AS0000001000+00007893+00000+0001T   00007893+0000001529          1400 JK3745               2BZ
136138005136138112-116038     136138006009681820246TCS CARRIER BAG MIDI   0000001000+00000035+00000+0001T   00000035+0000001529          1400 JK3090               2BZ
136139000136139               136139               170213DY     1400+00000+DY0000007629+0000007629+000000000+000001069+0000008690+0000000008+I20000000000+0000008690+Z
136139001136139077-000452     136139006003000284986G/BAG METALLIC MED EMB 0000001000+00001490+00000+0001T   00001490+0000001532          1400 JK3112               2BZ
136139002136139368-000175     136139006003000270316PLUSH BEAR 4 ASSTD 18CM0000001000+00006139+00000+0001T   00006139+0000001532          1400 JK3745               2BZ
136140000136140               136140               170213DY     1400+00000+DY0000006576+0000006576+000000000+000000922+0000007498+0000000000+I40000007498+0000000000+Z
136140001136140017-000251     136140006003000242689P/ALBUM 36-PHOTO PLAIN 0000001000+00003946+00000+0001T   00003946+0000001535          1400 JK3510               2BZ
136140002136140018-000025     136140006003000095056MUG S/WARE V-SHAPE CER.0000001000+00002630+00000+0001T   00002630+0000001535          1400 JK3515               2BZ
136141000136141               136141               170213DY     1400+00000+DY0000002630+0000002630+000000000+000000369+0000002990+0000000009+I20000000000+0000002990+Z
136141001136141077-000475     136141006003000640775GIFT-BAG DESIGNER MED  0000001000+00002630+00000+0001T   00002630+0000001536          1400 JK3112               2BZ
136142000136142               136142               170213DY     1400+00000+DY0000005260+0000005260+000000000+000000738+0000005998+0000000000+I40000005998+0000000000+Z
136142001136142466-000515     136142006001023477408BALLS TENNIS BAG-OF-3  0000002000+00002630+00000+0001T   00002630+0000001539          1400 JK3785               2BZ
136143000136143               136143               170213DY     1400+00000+DY0000000437+0000000437+000000000+000000062+0000000490+0000000009+I20000000000+0000000490+Z
136143001136143080-000133     136143006003000535613CARD&ENV MINI ASTD DSGN0000001000+00000437+00000+0001T   00000437+0000001544          1400 JK3112               2BZ
136144000136144               136144               170213DY     1400+00000+DY0000011081+0000011081+000000000+000001552+0000012633+0000000000+I40000012633+0000000000+Z
136144001136144566-000359     136144006003000582709STICKER BOOK LOVE SPARK0000001000+00002192+00000+0001T   00002192+0000001546          1400 JK3130               2BZ
136144002136144563-000318-L   136144006003000407088SERVIETTES 33cm RED    0000001000+00002192+00000+0001T   00002192+0000001546          1400 JK3214               2BZ
136144003136144018-000177     136144006001023797513MUG MINI LOVE ASSTD    0000002000+00000700+00000+0001T   00000700+0000001546          1400 JK3515               2BZ
136144004136144304-001116     136144006003000426164F/BUNCH ROSES 12-HEAD  0000001000+00005262+00000+0001T   00005262+0000001546          1400 JK3510               2BZ
136144005136144112-116038     136144006009681820246TCS CARRIER BAG MIDI   0000001000+00000035+00000+0001T   00000035+0000001546          1400 JK3090               2BZ
136145000136145               136145               170213DY     1400+00000+DY0000000481+0000000481+000000000+000000068+0000000540+0000000009+I20000000000+0000000540+Z
136145001136145071-000012     136145006001177101006CHALK COLOUR 12PCE     0000001000+00000481+00000+0001T   00000481+0000001546          1400 JK3130               2BZ
136146000136146               136146               170213DY     1400+00000+DY0000012661+0000012661+000000000+000001774+0000014435+0000000000+I40000014435+0000000000+Z
136146001136146565-004101     136146006003000548033BALL BOUNCING EGG      0000002000+00001490+00000+0001T   00001490+0000001547          1400 JK3745               2BZ
136146002136146903-000123     136146006925925909280SWEET GS MINI MALLOWS  0000001000+00000876+00000+0001T   00000876+0000001547          1400 JK3150               2BZ
136146003136146565-000886     136146006003000337057CRITTERS PUFFER BALLS  0000002000+00004385+00000+0001T   00004385+0000001547          1400 JK3745               2BZ
136146004136146112-116038     136146006009681820246TCS CARRIER BAG MIDI   0000001000+00000035+00000+0001T   00000035+0000001547          1400 JK3090               2BZ
136147000136147               136147               170213DY     1400+00000+DY0000015818+0000015818+000000000+000002216+0000018034+0000000000+I40000018034+0000000000+Z
136147001136147162-010794     136147006001492107943#TAG KIDS ALICE BAND   0000001000+00003507+00000+0001T   00003507+0000001548          1400 JK3160               2BZ
136147002136147018-000136     136147006001023659026MUG OCC LOVE W/PLUSH   0000001000+00003507+00000+0001T   00003507+0000001548          1400 JK3515               2BZ
136147003136147368-000175     136147006003000270316PLUSH BEAR 4 ASSTD 18CM0000001000+00006139+00000+0001T   00006139+0000001548          1400 JK3745               2BZ
136147004136147368-000040     136147006003000671786PLUSH ICONS 7.5cm      0000001000+00002630+00000+0001T   00002630+0000001548          1400 JK3745               2BZ
136147005136147112-116038     136147006009681820246TCS CARRIER BAG MIDI   0000001000+00000035+00000+0001T   00000035+0000001548          1400 JK3090               2BZ
136148000136148               136148               170213DY     1400+00000+DY0000016866+0000016866+000000000+000002366+0000019232+0000000000+I40000019232+0000000000+Z
136148001136148159-000020     136148006001023905543HAIR DRYING MICROFIBRE 0000001000+00002630+00000+0001T   00002630+0000001551          1400 JK3200               2BZ
136148002136148007-000050     136148006001023528285DISPLAY-ENVELOPE A4    0000001000+00001753+00000+0001T   00001753+0000001551          1400 JK3130               2BZ
136148003136148306-000021-A   136148006001023891358EARBUDS COTTON 100PCE  0000001000+00000876+00000+0001T   00000876+0000001551          1400 JK3200               2BZ
136148004136148567-011369     136148009781848171510BK ACTIVITY&STICKER    0000001000+00002630+00000+0001T   00003507+0008141551          1400 JK3757               2BZ
136148005136148007-000326     136148006009699513833PAPER A4 80GSM 10'S BLK0000001000+00001402+00000+0001T   00001402+0000001551          1400 JK3130               2BZ
136148006136148007-000322     136148006009685858634PAPER A4 80GSM 100'S   0000001000+00005262+00000+0001T   00005262+0000001551          1400 JK3130               2BZ
136148007136148051-002401     136148006001023523570TRIGGER-SPRAYER   300ml0000001000+00001490+00000+0001T   00001490+0000001551          1400 JK3820               2BZ
136148008136148903-000889     136148006009702259192SWT GUM BEECHIES S/MINT0000001000+00000788+00000+0001T   00000788+0000001551          1400 JK3150               2BZ
136148009136148112-116038     136148006009681820246TCS CARRIER BAG MIDI   0000001000+00000035+00000+0001T   00000035+0000001551          1400 JK3090               2BZ
136149000136149               136149               170213DY     1400+00000+DY0000004903+0000004903+000000000+000000691+0000005594+0000000000+I40000005594+0000000000+Z
136149001136149903-000123     136149006925925909280SWEET GS MINI MALLOWS  0000001000+00000876+00000+0001T   00000876+0000001552          1400 JK3150               2BZ
136149002136149039-000024     136149006003000286300C/TAPERED 25CM M/WHITE 0000002000+00001051+00000+0001T   00001051+0000001552          1400 JK3510               2BZ
136149003136149039-000029     136149006003000286829C/TAPERED 25CM M/PINK  0000001000+00001051+00000+0001T   00001051+0000001552          1400 JK3510               2BZ
136149004136149080-000133-A   136149006003000647019MINI VALENTINES CARD   0000002000+00000437+00000+0001T   00000437+0000001552          1400 JK3112               2BZ
136150000136150               136150               170213DY     1400+00000+DY0000006174+0000006174+000000000+000000865+0000007030+0000000009+I20000000000+0000007030+Z
136150001136150018-050000     136150006003000412679MUG OCC LOVE TWIN BEAR 0000001000+00006139+00000+0001T   00006139+0000001554          1400 JK3515               2BZ
136150002136150112-116038     136150006009681820246TCS CARRIER BAG MIDI   0000001000+00000035+00000+0001T   00000035+0000001554          1400 JK3090               2BZ
136151000136151               136151               170213DY     1400+00000+DY0000001664+0000001664+000000000+000000234+0000001890+0000000008+I20000000000+0000001890+Z
136151001136151903-000503     136151006001704006118SWT VAMPIRE FANGS 60G  0000001000+00000876+00000+0001T   00000876+0000001557          1400 JK3150               2BZ
136151002136151903-000890     136151006009702259000SWT BEECHIES S/BERRY   0000001000+00000788+00000+0001T   00000788+0000001557          1400 JK3150               2BZ
136152000136152               136152               170213DY     1400+00000+DY0000003892+0000003892+000000000+000000546+0000004438+0000000000+I40000004438+0000000000+Z
136152001136152077-000309     136152006001023608604GIFT-BAG 25X32CM GLOSS 0000001000+00001753+00000+0001T   00001753+0000001559          1400 JK3112               2BZ
136152002136152903-000095     136152006001704011495SWT SPECKLED-EGGS 100G 0000001000+00002104+00000+0001T   00002104+0000001559          1400 JK3150               2BZ
136152003136152112-116038     136152006009681820246TCS CARRIER BAG MIDI   0000001000+00000035+00000+0001T   00000035+0000001559          1400 JK3090               2BZ
136153000136153               136153               170213DY     1400+00000+DY0000008771+0000008771+000000000+000001228+0000009990+0000000009+I20000000000+0000009990+Z
136153001136153031-086302-C   136153006001023910332P/FRAME COLL. PL 3-HOLE0000001000+00008771+00000+0001T   00008771+0000001559          1400 JK3510               2BZ
136154000136154               136154               170213DY     1400+00000+DY0000003066+0000003066+000000000+000000430+0000003496+0000000000+I40000003496+0000000000+Z
136154001136154077-000314     136154006003000181148GIFT-BAG 11X14CM MATT  0000001000+00000876+00000+0001T   00000876+0000001600          1400 JK3112               2BZ
136154002136154077-000011-E   136154006001023808646TISSUE-WRAP PINK 10PCE 0000001000+00000876+00000+0001T   00000876+0000001600          1400 JK3112               2BZ
136154003136154077-000310     136154006001023608635GIFT-BAG 18X23CM GLOSS 0000001000+00001314+00000+0001T   00001314+0000001600          1400 JK3112               2BZ
136155000136155               136155               170213DY     1400+00000+DY0000001224+0000001224+000000000+000000172+0000001390+0000000006+I20000000000+0000001390+Z
136155001136155079-009700-D   136155006003000545711PAPER SIRIO A4 RED COL.0000004000+00000306+00000+0001T   00000306+0000001602          1400 JK3130               2BZ
136156000136156               136156               170213DY     1400+00000+DY0000001314+0000001314+000000000+000000184+0000001490+0000000008+I20000000000+0000001490+Z
136156001136156077-000310     136156006001023608635GIFT-BAG 18X23CM GLOSS 0000001000+00001314+00000+0001T   00001314+0000001604          1400 JK3112               2BZ
136157000136157               136157               170213DY     1400+00000+DY0000001314+0000001314+000000000+000000184+0000001490+0000000008+I20000000000+0000001490+Z
136157001136157077-000310     136157006001023608635GIFT-BAG 18X23CM GLOSS 0000001000+00001314+00000+0001T   00001314+0000001605          1400 JK3112               2BZ
136158000136158               136158               170213DY     1400+00000+DY0000005173+0000005173+000000000+000000725+0000005898+0000000000+I40000005898+0000000000+Z
136158001136158206-000180     136158006003000631223TEA INFUSER TEAMAN     0000001000+00004385+00000+0001T   00004385+0000001606          1400 JK3321               2BZ
136158002136158077-000383     136158006003000247943GIFT-BAG 11X14CM S/COL 0000001000+00000788+00000+0001T   00000788+0000001606          1400 JK3112               2BZ
136159000136159               136159               170213DY     1400+00000+DY0000002800+0000002800+000000000+000000392+0000003190+0000000002+I20000000000+0000003190+Z
136159001136159018-000177     136159006001023797513MUG MINI LOVE ASSTD    0000004000+00000700+00000+0001T   00000700+0000001606          1400 JK3515               2BZ
136160000136160               136160               170213DY     1400+00000+DY0000042310+0000042310+000000000+000005930+0000048240+0000000000+I40000048240+0000000000+Z
136160001136160105-008005     136160006002580009484STORAGE CONTAINER 7.5L 0000002000+00004385+00000+0001T   00004385+0000001609          1400 JK3210               2BZ
136160002136160903-000095     136160006001704011495SWT SPECKLED-EGGS 100G 0000001000+00002104+00000+0001T   00002104+0000001609          1400 JK3150               2BZ
136160003136160040-010105     136160006001023162359CANDLE-HOLDER MTL SMALL0000002000+00001314+00000+0001T   00001314+0000001609          1400 JK3510               2BZ
136160004136160088-000113     136160006001023858399DEHUMIDIFIER SCENTED   0000001000+00002630+00000+0001T   00002630+0000001609          1400 JK3212               2BZ
136160005136160150-004028-H   136160006003000649976BATH-PLUG RUBBER BLACK 0000001000+00000613+00000+0001T   00000613+0000001609          1400 JK3810               2BZ
136160006136160150-012228-H   136160006001023416773DOOR-STOPPERS SET-OF-2 0000001000+00001753+00000+0001T   00001753+0000001609          1400 JK3810               2BZ
136160007136160133-000083     136160006003000450510DISH DRAINING MAT      0000001000+00005262+00000+0001T   00005262+0000001609          1400 JK3212               2BZ
136160008136160039-000794     136160006946859289958CANDLE T/LITE 3PC LED  0000001000+00004385+00000+0001T   00004385+0000001609          1400 JK3510               2BZ
136160009136160142-000815     136160006001023183903GLOVES RUBBER LARGE    0000001000+00001753+00000+0001T   00001753+0000001609          1400 JK3810               2BZ
136160010136160027-783000     136160006001023874641SCOURERS RAINBOW 5PCE  0000001000+00001753+00000+0001T   00001753+0000001609          1400 JK3212               2BZ
136160011136160027-785005     136160006003000631063CLEANING WIPES 40-PACK 0000001000+00002630+00000+0001T   00002630+0000001609          1400 JK3212               2BZ
136160012136160027-056191     136160006916920933134DISH-BRUSH+HOOK RECT   0000001000+00001753+00000+0001T   00001753+0000001609          1400 JK3212               2BZ
136160013136160112-116053     136160006006438002399TCS CARRIER BAG 38L    0000002000+00000069+00000+0001T   00000069+0000001609          1400 JK3090               2BZ
136160014136160089-000095     136160006003000457281K/CHAIN SILV 4.3cm     0000002000+00003069+00000+0001T   00003946+0008121609          1400 JK3205               2BZ
136161000136161               136161               170213DY     1400+00000+DY0000005875+0000005875+000000000+000000823+0000006698+0000000000+I40000006698+0000000000+Z
136161001136161018-030000     136161006003000421060MUG OCCASIONS LOVE 2PCE0000001000+00004385+00000+0001T   00004385+0000001611          1400 JK3515               2BZ
136161002136161077-000452     136161006003000284986G/BAG METALLIC MED EMB 0000001000+00001490+00000+0001T   00001490+0000001611          1400 JK3112               2BZ
136162000136162               136162               170213DY     1400+00000+DY0000013187+0000013187+000000000+000001848+0000015030+0000000005+I20000000000+0000015030+Z
136162001136162566-000068     136162006003000418046POP UP LOVE 2 ASSTD    0000002000+00002192+00000+0001T   00002192+0000001633          1400 JK3130               2BZ
136162002136162006-000803     136162006003000653676STREAMERS SET 3ROLLS   0000001000+00002630+00000+0001T   00002630+0000001633          1400 JK3131               2BZ
136162003136162203-007003     136162006003000116331SHOT-GLASS DISPOSABLE  0000002000+00003069+00000+0001T   00003069+0000001633          1400 JK3300               2BZ
136162004136162112-116038     136162006009681820246TCS CARRIER BAG MIDI   0000001000+00000035+00000+0001T   00000035+0000001633          1400 JK3090               2BZ
136163000136163               136163               170213DY     1400+00000+DY0000003243+0000003243+000000000+000000455+0000003690+0000000008+I20000000000+0000003690+Z
136163001136163039-000108     136163006001023524034TEA-LITE CANDLES 8PCE  0000001000+00001490+00000+0001T   00001490+0000001633          1400 JK3510               2BZ
136163002136163306-000024-A   136163006003000577309COTTON-WOOL-PADS 80PC  0000001000+00001753+00000+0001T   00001753+0000001633          1400 JK3200               2BZ
136164000136164               136164               170213DY     1400+00000+DY0000006138+0000006138+000000000+000000860+0000006990+0000000008+I20000000000+0000006990+Z
136164001136164105-001180     136164006003000666522CONTAINER SET LITE 3PC 0000002000+00003069+00000+0001T   00003069+0000001634          1400 JK3210               2BZ
136165000136165               136165               170213DY     1400+00000+DY0000001490+0000001490+000000000+000000209+0000001690+0000000009+I20000000000+0000001690+Z
136165001136165077-000305     136165006003000395422GIFT-BAG WINE 10X35CM  0000001000+00001490+00000+0001T   00001490+0000001635          1400 JK3112               2BZ
136166000136166               136166               170213DY     1400+00000+DY0000002366+0000002366+000000000+000000332+0000002698+0000000000+I40000002698+0000000000+Z
136166001136166077-000299     136166006003000395576G/BAG 32x25cm LRG LOVE 0000001000+00001490+00000+0001T   00001490+0000001636          1400 JK3112               2BZ
136166002136166077-000011-D   136166006001023808554TISSUE-WRAP WHITE 10PCE0000001000+00000876+00000+0001T   00000876+0000001636          1400 JK3112               2BZ
136167000136167               136167               170213DY     1400+00000+DY0000003507+0000003507+000000000+000000491+0000003998+0000000000+I40000003998+0000000000+Z
136167001136167200-000105     136167006003000199693PICNIC CUPS PL 40PCE   0000001000+00003507+00000+0001T   00003507+0000001637          1400 JK3214               2BZ
136168000136168               136168               170213DY     1400+00000+DY0000002190+0000002190+000000000+000000307+0000002490+0000000007+I20000000000+0000002490+Z
136168001136168018-000177     136168006001023797513MUG MINI LOVE ASSTD    0000001000+00000700+00000+0001T   00000700+0000001637          1400 JK3515               2BZ
136168002136168077-000452     136168006003000284986G/BAG METALLIC MED EMB 0000001000+00001490+00000+0001T   00001490+0000001637          1400 JK3112               2BZ
136169000136169               136169               170213DY     1400+00000+DY0000019148+0000019148+000000000+000002685+0000021830+0000000003+I20000000000+0000021830+Z
136169001136169903-000087     136169006001704000161SWT SPECKLED-EGGS 50G  0000001000+00001139+00000+0001T   00001139+0000001659          1400 JK3150               2BZ
136169002136169566-000068     136169006003000418046POP UP LOVE 2 ASSTD    0000001000+00002192+00000+0001T   00002192+0000001659          1400 JK3130               2BZ
136169003136169368-000100     136169006001023474742PLUSH MD BEAR 12cm     0000003000+00002630+00000+0001T   00002630+0000001659          1400 JK3745               2BZ
136169004136169368-000171     136169006003000233250PLUSH BEAR 14cm        0000001000+00005262+00000+0001T   00005262+0000001659          1400 JK3745               2BZ
136169005136169077-000115-B   136169006003000181025GIFT-WRAP PPR 700MMX2M 0000001000+00002630+00000+0001T   00002630+0000001659          1400 JK3112               2BZ
136169006136169112-116038     136169006009681820246TCS CARRIER BAG MIDI   0000001000+00000035+00000+0001T   00000035+0000001659          1400 JK3090               2BZ
136170000136170               136170               170213DY     1400+00000+DY0000004385+0000004385+000000000+000000614+0000004999+0000000000+I40000004999+0000000000+Z
136170001136170036-000405     136170006001023630247CLOTHES DRYER PL 18-PEG0000001000+00004385+00000+0001T   00004385+0000001700          1400 JK3212               2BZ
136171000136171               136171               170213DY     1400+00000+DY0000004385+0000004385+000000000+000000614+0000004999+0000000000+I40000004999+0000000000+Z
136171001136171019-000070     136171006003000297474VASE GLS CLEAR BOTTLE  0000001000+00004385+00000+0001T   00004385+0000001701          1400 JK3510               2BZ
136172000136172               136172               170213DY     1400+00000+DY0000008503+0000008503+000000000+000001191+0000009690+0000000004+I20000000000+0000009690+Z
136172001136172018-000177     136172006001023797513MUG MINI LOVE ASSTD    0000001000+00000700+00000+0001T   00000700+0000001704          1400 JK3515               2BZ
136172002136172006-000190     136172006003000685530BALLOONS LOVE 81x91cm  0000001000+00004385+00000+0001T   00004385+0000001704          1400 JK3131               2BZ
136172003136172006-001000     136172006003000093779HELIUM BALLOON FILL    0000001000+00000613+00000+0001T   00000613+0000001704          1400 JK3131               2BZ
136172004136172080-000127     136172006003000424351VALENTINES DAY 36x24CM 0000001000+00002192+00000+0001T   00002192+0000001704          1400 JK3112               2BZ
136172005136172006-001000     136172006003000093779HELIUM BALLOON FILL    0000001000+00000613+00000+0001T   00000613+0000001704          1400 JK3131               2BZ
136173000136173               136173               170213DY     1400+00000+DY0000001137+0000001137+000000000+000000160+0000001290+0000000007+I20000000000+0000001290+Z
136173001136173080-000133     136173006003000535613CARD&ENV MINI ASTD DSGN0000001000+00000437+00000+0001T   00000437+0000001705          1400 JK3112               2BZ
136173002136173018-000177     136173006001023797513MUG MINI LOVE ASSTD    0000001000+00000700+00000+0001T   00000700+0000001705          1400 JK3515               2BZ
136174000136174               136174               170213DY     1400+00000+DY0000004418+0000004418+000000000+000000620+0000005038+0000000000+I40000005038+0000000000+Z
136174001136174007-000588     136174006001023810090NOTES SHOPPING-LIST+RIB0000001000+00002630+00000+0001T   00002630+0000001707          1400 JK3130               2BZ
136174002136174108-005005     136174006003000667451TRAY PL 29x21cm RECT   0000001000+00001753+00000+0001T   00001753+0000001707          1400 JK3210               2BZ
136174003136174112-116038     136174006009681820246TCS CARRIER BAG MIDI   0000001000+00000035+00000+0001T   00000035+0000001707          1400 JK3090               2BZ
136175000136175               136175               170213DY     1400+00000+DY0000004645+0000004645+000000000+000000652+0000005290+0000000007+I20000000000+0000005290+Z
136175001136175903-000087     136175006001704000161SWT SPECKLED-EGGS 50G  0000001000+00001139+00000+0001T   00001139+0000001716          1400 JK3150               2BZ
136175002136175034-078800     136175006001023856555COOEY WET-WIPES 60PCE  0000001000+00001753+00000+0001T   00001753+0000001716          1400 JK3215               2BZ
136175003136175361-000127     136175006003000602216DOLL SML 15cm MERMAID  0000001000+00001753+00000+0001T   00001753+0000001716          1400 JK3725               2BZ
136176000136176               136176               170213DY     1400+00000+DY0000008771+0000008771+000000000+000001228+0000009999+0000000000+I40000009999+0000000000+Z
136176001136176368-000614     136176006001023705808PLUSH LOVE 30cm        0000001000+00008771+00000+0001T   00008771+0000001718          1400 JK3745               2BZ
136177000136177               136177               170213DY     1400+00000+DY0000002630+0000002630+000000000+000000369+0000002990+0000000009+I20000000000+0000002990+Z
136177001136177261-000950     136177006001023547828GUN SPACE W/6 FOAM     0000001000+00002630+00000+0001T   00002630+0000001718          1400 JK3710               2BZ
136178000136178               136178               170213DY     1400+00000+DY0000000876+0000000876+000000000+000000123+0000000990+0000000009+I20000000000+0000000990+Z
136178001136178071-005213     136178006001023690371CELLOTAPE 12mmx33m     0000001000+00000876+00000+0001T   00000876+0000001719          1400 JK3130               2BZ
136179000136179               136179               170213DY     1400+00000+DY0000000876+0000000876+000000000+000000123+0000000990+0000000009+I20000000000+0000000990+Z
136179001136179077-000151     136179006008766114676GIFT-WRAP C/PHANE ASSTD0000001000+00000876+00000+0001T   00000876+0000001719          1400 JK3112               2BZ
136180000136180               136180               170213DY     1400+00000+DY0000002630+0000002630+000000000+000000369+0000002990+0000000009+I20000000000+0000002990+Z
136180001136180072-020312     136180006003000605330PET TOY PUP STARTER PCK0000001000+00002630+00000+0001T   00002630+0000001720          1400 JK3870               2BZ
136181000136181               136181               170213DY     1400+00000+DY0000006137+0000006137+000000000+000000860+0000006990+0000000007+I20000000000+0000006990+Z
136181001136181077-000270     136181006003000395453GIFT-BAG PPR JMB 33X45 0000001000+00002630+00000+0001T   00002630+0000001723          1400 JK3112               2BZ
136181002136181200-000011     136181006003000613489DISPOSABLE BAG ZIPER   0000001000+00003507+00000+0001T   00003507+0000001723          1400 JK3214               2BZ
136182000136182               136182               170213DY     1400+00000+DY0000002192+0000002192+000000000+000000307+0000002490+0000000009+I20000000000+0000002490+Z
136182001136182566-000359     136182006003000582709STICKER BOOK LOVE SPARK0000001000+00002192+00000+0001T   00002192+0000001726          1400 JK3130               2BZ
136183000136183               136183               170213DY     1400+00000+DY0000001050+0000001050+000000000+000000148+0000001190+0000000008+I20000000000+0000001190+Z
136183001136183903-000151     136183006009803374411SWT SML RND R/BOW LOLLY0000002000+00000525+00000+0001T   00000525+0000001727          1400 JK3150               2BZ
136184000136184               136184               170213DY     1400+00000+DY0000035864+0000035864+000000000+000005026+0000040890+0000000000+I40000040890+0000000000+Z
136184001136184903-000087     136184006001704000161SWT SPECKLED-EGGS 50G  0000004000+00001139+00000+0001T   00001139+0000001733          1400 JK31502IC            2BZ
136184002136184560-000020     136184006003000653270ANIMALS ASSTD SET      0000001000+00006139+00000+0001T   00006139+0000001733          1400 JK3745               2BZ
136184003136184560-000100     136184006001023834904DRAGON 15cm            0000001000+00005262+00000+0001T   00005262+0000001733          1400 JK3745               2BZ
136184004136184077-000455     136184006003000285389G/BAG METALLIC LRG SOL 0000001000+00001753+00000+0001T   00001753+0000001733          1400 JK3112               2BZ
136184005136184077-000327     136184006001023677686GIFT-BAG 25X32CM E/D BA0000001000+00001490+00000+0001T   00001490+0000001733          1400 JK3112               2BZ
136184006136184366-000125     136184006003000006786DRESSUP WINGS/WAND/BAND0000001000+00005262+00000+0001T   00005262+0000001733          1400 JK3131               2BZ
136184007136184368-000637     136184006001023874092PLUSH BEAR SLEEPING LOV0000001000+00011402+00000+0001T   00012279+0006471733          1400 JK3745               2BZ
136185000136185               136185               170213DY     1400+00000+DY0000001753+0000001753+000000000+000000246+0000001990+0000000009+I20000000000+0000001990+Z
136185001136185566-000066     136185006003000283675STICKERS GLITTER 25PCS 0000001000+00001753+00000+0001T   00001753+0000001734          1400 JK3130               2BZ
136186000136186               136186               170213DY     1400+00000+DY0000003069+0000003069+000000000+000000430+0000003490+0000000009+I20000000000+0000003490+Z
136186001136186174-000015     136186006003000559060LAUNDRY BAG LARGE 68x520000001000+00003069+00000+0001T   00003069+0000001735          1400 JK3205               2BZ
136187000136187               136187               170213DY     1400+00000+DY0000001227+0000001227+000000000+000000172+0000001390+0000000009+I20000000000+0000001390+Z
136187001136187077-000245     136187006001023759214GIFT-RIBBON METALLICx2 0000001000+00001227+00000+0001T   00001227+0000001735          1400 JK3112               2BZ
136188000136188               136188               170213DY     1400+00000+DY0000007627+0000007627+000000000+000001069+0000008696+0000000000+I40000008696+0000000000+Z
136188001136188366-006103     136188006001023786944DRESS UP FACE PAINT SET0000001000+00002630+00000+0001T   00002630+0000001737          1400 JK3131               2BZ
136188002136188562-000215     136188006003000113514EDU PUSH-IN WDN BOARD  0000001000+00003507+00000+0001T   00003507+0000001737          1400 JK3755               2BZ
136188003136188077-000327     136188006001023677686GIFT-BAG 25X32CM E/D BA0000001000+00001490+00000+0001T   00001490+0000001737          1400 JK3112               2BZ
136189000136189               136189               170213DY     1400+00000+DY0000006139+0000006139+000000000+000000860+0000006990+0000000009+I20000000000+0000006990+Z
136189001136189368-000265     136189006001023750914PLUSH BEAR 23CM ASSTD C0000001000+00006139+00000+0001T   00006139+0000001737          1400 JK3745               2BZ
136190000136190               136190               170213DY     1400+00000+DY0000020990+0000020990+000000000+000002941+0000023931+0000000000+I40000023931+0000000000+Z
136190001136190018-000130     136190006001023867537MUG OCC LOVE MINI+HEART0000002000+00003507+00000+0001T   00003507+0000001738          1400 JK3515               2BZ
136190002136190039-000500     136190006001023816450C/VOTIVE 8PC RAINBOW   0000001000+00005262+00000+0001T   00005262+0000001738          1400 JK3510               2BZ
136190003136190019-071598     136190006001023693228PEBBLES GLS 250g WHITE 0000002000+00001753+00000+0001T   00001753+0000001738          1400 JK3510               2BZ
136190004136190040-000051     136190006001023799494C/HOLDER GLASS LANTERN 0000001000+00003069+00000+0001T   00003069+0000001738          1400 JK3510               2BZ
136190005136190903-000090     136190006009826020821SWT GS CHOCO COINS 60g 0000001000+00002104+00000+0001T   00002104+0000001738          1400 JK3150               2BZ
136190006136190112-116038     136190006009681820246TCS CARRIER BAG MIDI   0000001000+00000035+00000+0001T   00000035+0000001738          1400 JK3090               2BZ
136191000136191               136191               170213DY     1400+00000+DY0000005734+0000005734+000000000+000000803+0000006537+0000000000+I40000006537+0000000000+Z
136191001136191301-086007     136191006003000426706ORN OCC DAD WDN LETTERS0000001000+00004385+00000+0001T   00004385+0000001739          1400 JK3505               2BZ
136191002136191903-004952     136191006002580020052SWT FREAKY FACES 100G  0000001000+00001314+00000+0001T   00001314+0000001739          1400 JK3150               2BZ
136191003136191112-116038     136191006009681820246TCS CARRIER BAG MIDI   0000001000+00000035+00000+0001T   00000035+0000001739          1400 JK3090               2BZ
136192000136192               136192               170213DY     1400+00000+DY0000002664+0000002664+000000000+000000374+0000003030+0000000008+I20000000000+0000003030+Z
136192001136192080-000133-A   136192006003000647019MINI VALENTINES CARD   0000001000+00000437+00000+0001T   00000437+0000001740          1400 JK3112               2BZ
136192002136192566-000068     136192006003000418046POP UP LOVE 2 ASSTD    0000001000+00002192+00000+0001T   00002192+0000001740          1400 JK3130               2BZ
136192003136192112-116038     136192006009681820246TCS CARRIER BAG MIDI   0000001000+00000035+00000+0001T   00000035+0000001740          1400 JK3090               2BZ
136193000136193               136193               170213DY     1400+00000+DY0000003507+0000003507+000000000+000000491+0000003990+0000000008+I20000000000+0000003990+Z
136193001136193018-005009     136193006001023725608MUG W/PLUSH-BEAR LOVE  0000001000+00003507+00000+0001T   00003507+0000001741          1400 JK3515               2BZ
136194000136194               136194               170213DY     1400+00000+DY0000009505+0000009505+000000000+000001332+0000010830+0000000007+I20000000000+0000010830+Z
136194001136194079-000590     136194006003000543236SKETCH PAD & PAINT SET 0000001000+00007016+00000+0001T   00007016+0000001742          1400 JK3130               2BZ
136194002136194039-000336     136194006001023169129B'DAY-CANDLES MAGIC 10P0000001000+00000964+00000+0001T   00000964+0000001742          1400 JK3510               2BZ
136194003136194006-000096     136194006003000610969BANNER CELEBRATION     0000001000+00001490+00000+0001T   00001490+0000001742          1400 JK31311IC            2BZ
136194004136194112-116038     136194006009681820246TCS CARRIER BAG MIDI   0000001000+00000035+00000+0001T   00000035+0000001742          1400 JK3090               2BZ
136195000136195               136195               170213DY     1400+00000+DY0000001753+0000001753+000000000+000000246+0000001990+0000000009+I20000000000+0000001990+Z
136195001136195077-000316     136195006001023609731GIFT-BAG 25X32CM MATT  0000001000+00001753+00000+0001T   00001753+0000001742          1400 JK3112               2BZ
136196000136196               136196               170213DY     1400+00000+DY0000008803+0000008803+000000000+000001233+0000010036+0000000000+I40000010036+0000000000+Z
136196001136196018-000136     136196006001023659026MUG OCC LOVE W/PLUSH   0000001000+00003507+00000+0001T   00003507+0000001744          1400 JK3515               2BZ
136196002136196080-000127     136196006003000424351VALENTINES DAY 36x24CM 0000001000+00002192+00000+0001T   00002192+0000001744          1400 JK3112               2BZ
136196003136196030-000030-A   136196006003000249305PLAQUE GLASS LOVE      0000001000+00003069+00000+0001T   00003069+0000001744          1400 JK3505               2BZ
136196004136196112-116038     136196006009681820246TCS CARRIER BAG MIDI   0000001000+00000035+00000+0001T   00000035+0000001744          1400 JK3090               2BZ
136197000136197               136197               170213DY     1400+00000+DY0000003068+0000003068+000000000+000000430+0000003490+0000000008+I20000000000+0000003490+Z
136197001136197566-000068     136197006003000418046POP UP LOVE 2 ASSTD    0000001000+00002192+00000+0001T   00002192+0000001744          1400 JK3130               2BZ
136197002136197077-000151     136197006008766114676GIFT-WRAP C/PHANE ASSTD0000001000+00000876+00000+0001T   00000876+0000001744          1400 JK3112               2BZ
136198000136198               136198               170213DY     1400+00000+DY0000006434+0000006434+000000000+000000901+0000007335+0000000000+I40000007335+0000000000+Z
136198001136198018-000136     136198006001023659026MUG OCC LOVE W/PLUSH   0000001000+00003507+00000+0001T   00003507+0000001746          1400 JK3515               2BZ
136198002136198080-000124     136198006003000297733CARD & ENV VALENTINES  0000001000+00001578+00000+0001T   00001578+0000001746          1400 JK3112               2BZ
136198003136198077-000310     136198006001023608635GIFT-BAG 18X23CM GLOSS 0000001000+00001314+00000+0001T   00001314+0000001746          1400 JK3112               2BZ
136198004136198112-116038     136198006009681820246TCS CARRIER BAG MIDI   0000001000+00000035+00000+0001T   00000035+0000001746          1400 JK3090               2BZ
136199000136199               136199               170213DY     1400+00000+DY0000008806+0000008806+000000000+000001233+0000010039+0000000000+I40000010039+0000000000+Z
136199001136199112-116038     136199006009681820246TCS CARRIER BAG MIDI   0000001000+00000035+00000+0001T   00000035+0000001748          1400 JK3090               2BZ
136199002136199001-091415     136199006003000329113W/GLS OCC. LOVE 2PC 2800000001000+00008771+00000+0001T   00009648+0006471748          1400 JK3515               2BZ
136200000136200               136200               170213DY     1400+00000+DY0000024619+0000024619+000000000+000003450+0000028069+0000000000+I40000028069+0000000000+Z
136200001136200077-000324     136200006001023677594GIFT-BAG 33X45CM E/D FL0000002000+00001753+00000+0001T   00001753+0000001749          1400 JK3112               2BZ
136200002136200088-000080     136200006003000622863DRAWER LINERS SCENTED  0000002000+00005262+00000+0001T   00005262+0000001749          1400 JK3212               2BZ
136200003136200077-000011-D   136200006001023808554TISSUE-WRAP WHITE 10PCE0000001000+00000876+00000+0001T   00000876+0000001749          1400 JK3112               2BZ
136200004136200027-009025     136200006003962000747DUSTPAN-SET PL         0000001000+00002630+00000+0001T   00002630+0000001749          1400 JK3212               2BZ
136200005136200089-000018     136200006003000176724KEY CHAIN INSPIRATION  0000002000+00003507+00000+0001T   00003507+0000001749          1400 JK3205               2BZ
136200006136200112-116053     136200006006438002399TCS CARRIER BAG 38L    0000001000+00000069+00000+0001T   00000069+0000001749          1400 JK3090               2BZ
136201000136201               136201               170213DY     1400+00000+DY0000004733+0000004733+000000000+000000664+0000005390+0000000007+I20000000000+0000005390+Z
136201001136201046-002430-PK2 136201004897006178422BATTERY LITHIUM CR-24300000001000+00002630+00000+0001T   00002630+0000001750          1400 JK3312               2BZ
136201002136201007-000167     136201006009685857347SPIRAL NOTES A7 72PG   0000001000+00000350+00000+0001T   00000350+0000001750          1400 JK3130               2BZ
136201003136201007-000551     136201006001023848079NOTE-PAD SHOP-LIST ASST0000001000+00001753+00000+0001T   00001753+0000001750          1400 JK3130               2BZ
136202000136202               136202               170213DY     1400+00000+DY0000005262+0000005262+000000000+000000737+0000005999+0000000000+I40000005999+0000000000+Z
136202001136202304-001116     136202006003000426164F/BUNCH ROSES 12-HEAD  0000001000+00005262+00000+0001T   00005262+0000001751          1400 JK3510               2BZ
136203000136203               136203               170213DY     1400+00000+DY0000001753+0000001753+000000000+000000246+0000001999+0000000000+I40000001999+0000000000+Z
136203001136203077-000011     136203006003000542352PAPER RAFFIA ASSTD COL 0000001000+00001753+00000+0001T   00001753+0000001800          1400 JK3112               2BZ
136204000136204               136204               170213DY     1400+00000+DY0000000700+0000000700+000000000+000000098+0000000790+0000000008+I20000000000+0000000790+Z
136204001136204018-000177     136204006001023797513MUG MINI LOVE ASSTD    0000001000+00000700+00000+0001T   00000700+0000001801          1400 JK3515               2BZ
136205000136205               136205               170213DY     1400+00000+DY0000006784+0000006784+000000000+000000952+0000007730+0000000006+I20000000000+0000007730+Z
136205001136205079-000280     136205006003000160723PAINT READYMIX 6PCE    0000001000+00002630+00000+0001T   00002630+0000001802          1400 JK3130               2BZ
136205002136205078-000025     136205008887013700064SUPERGLUE 3g 1PCE CARD 0000001000+00000876+00000+0001T   00000876+0000001802          1400 JK3810               2BZ
136205003136205079-000807     136205006003000670277ART+CRAFT WOODEN STICKS0000001000+00001490+00000+0001T   00001490+0000001802          1400 JK3130               2BZ
136205004136205072-000327     136205006001023858504CAT-COLLAR+BELL        0000001000+00001753+00000+0001T   00001753+0000001802          1400 JK3870               2BZ
136205005136205112-116038     136205006009681820246TCS CARRIER BAG MIDI   0000001000+00000035+00000+0001T   00000035+0000001802          1400 JK3090               2BZ
136206000136206               136206               170213DY     1400+00000+DY0000005504+0000005504+000000000+000000772+0000006276+0000000000+I40000006276+0000000000+Z
136206001136206080-000124     136206006003000297733CARD & ENV VALENTINES  0000001000+00001578+00000+0001T   00001578+0000001803          1400 JK3112               2BZ
136206002136206077-000322     136206006001023677532GIFT-BAG 18X23CM E/D FL0000001000+00001227+00000+0001T   00001227+0000001803          1400 JK3112               2BZ
136206003136206077-000270     136206006003000395453GIFT-BAG PPR JMB 33X45 0000001000+00002630+00000+0001T   00002630+0000001803          1400 JK3112               2BZ
136206004136206112-116053     136206006006438002399TCS CARRIER BAG 38L    0000001000+00000069+00000+0001T   00000069+0000001803          1400 JK3090               2BZ
136207000136207               136207               170213DY     1400+00000+DY0000001753+0000001753+000000000+000000246+0000001990+0000000009+I20000000000+0000001990+Z
136207001136207206-000370     136207006003000631315STRAW P/DRINKING GLASS 0000001000+00001753+00000+0001T   00001753+0000001803          1400 JK3321               2BZ
136208000136208               136208               170213DY     1400+00000+DY0000003156+0000003156+000000000+000000442+0000003598+0000000000+I40000003598+0000000000+Z
136208001136208080-000124     136208006003000297733CARD & ENV VALENTINES  0000002000+00001578+00000+0001T   00001578+0000001804          1400 JK3112               2BZ
136209000136209               136209               170213DY     1400+00000+DY0000003507+0000003507+000000000+000000491+0000003998+0000000000+I40000003998+0000000000+Z
136209001136209007-000096     136209006001023855114ENVELOPES WHT    BOX-400000001000+00003507+00000+0001T   00003507+0000001805          1400 JK3130               2BZ
A17021300                                          12015419DYSLAVE 2                       JK33IC
A17021301                                          14161381DYSLAVE 2                       JK33IC
A17021302                                          15240844DYSLAVE 2                       JK33IC
B13618400                                          170213DY903-000087     17312751SLAVE 2     JK32IC0000044000+0000004000+0000000000000+
B13619400                                          170213DY006-000096     17420209SLAVE 2     JK31IC0000002000+0000001000+0000000000000+
C13610000                                          170213DY174-008026     11540990SLAVE 2     JK31IC0000000000+0000000000+0020000001000+
M17021391                              CASH        DYSLAVE 2                       Z-REPORT No.   663TOTAL (Sales - Refunds)          11005.69       CASH TO BE BANKED                 3783.90       DEBIT CARDS                          0.00       CREDIT CARDS                      7221.79       Z-READING                        11005.69       AIRTIME DEBIT CARD SALES             0.00       AIRTIME CARD SALES                   0.00       OVERS/UNDERS                         0.00       AIRTIME CASH SALES                   0.00       GIFT CARDS                           0.00       GIFT CARD CASH SALES                 0.00       T O T A L  CASH PAYOUTS              0.00                                                                                                                                                                                                                                                                                                                                                      Z
M17021392                              CASH        DYABSENT                                                                                                                                                                                          ANNUAL LEAVE                                                                                                                                                                                    DAY OFF                                                                                                                                                                                         COMMENTS                                                                                                                                                                                                                                                                                                                                                                                       Z
Y17021300                                          DY00000000965841+000146
ZDY17021319313 SLAVE 2      SALES DATA                     NEXT INVOICE NO.  136210 0663
F094872079-000279         1702110926200000011ICSLAVE 2
X DY Slave 2 First invoice 136064 170213 Last invoice 136209 170213 Next invoice 136210 Total number of records 000000518 clbackup completed 19:31:28
