140963000140963               140963               170213DY     1400+00000+DY0000238061+0000238061+000000000+000033338+0000271399+           I90000000000+0000000000+Z
140963001140963261-003901     140963006001023707451GUN SET PL POLICE+ACCES0000001000+00004385+00000+0001T032905760000                    1400 2IC7102ICV             Z
140963002140963065-003635     140963006001023834782GUITAR STRING FLAME    0000002000+00013157+00000+0001T032905760000                    1400 2IC7452ICV             Z
140963003140963486-001016     140963006001023847416W/CLOCK QTZ PL RND 25CM0000001000+00008771+00000+0001T032905760000                    1400 2IC5102ICV             Z
140963004140963486-002316     140963006003000335602WALL-CLOCK QTZ RND 30CM0000001000+00008771+00000+0001T032905760000                    1400 2IC5102ICV             Z
140963005140963486-002065     140963006003000057030C/ALARM QTZ PL SQUARE  0000001000+00006578+00000+0001T032905760000                    1400 2IC5102ICV             Z
140963006140963486-001003     140963006003000100798CLOCK WALL ROUND 32CM  0000001000+00010525+00000+0001T032905760000                    1400 2IC5102ICV             Z
140963007140963486-001015     140963006001023885838WALL CLOCK SQ 26CM ASST0000001000+00008771+00000+0001T032905760000                    1400 2IC5102ICV             Z
140963008140963301-007005     140963006001023848505ORN ANIMAL W/LIFE 20CM 0000001000+00007016+00000+0001T032905760000                    1400 2IC5052ICV             Z
140963009140963106-003130     140963006001023625755ICE CUBE TRAY 21-CUBE  0000001000+00002192+00000+0001T032905760000                    1400 2IC2102ICV             Z
140963010140963051-600708     140963006003000604319S/GARDEN LIGHT 35cm S/S0000001000+00003507+00000+0001T032905760000                    1400 2IC8202ICV             Z
140963011140963467-000020     140963006001023755896B/SET 21cm BUCKET+ACCES0000001000+00008771+00000+0001T032905760000                    1400 2IC7852ICV             Z
140963012140963560-000025     140963006003000651252ANIMALS RHINO          0000001000+00013157+00000+0001T032905760000                    1400 2IC7452ICV             Z
140963013140963072-020311     140963006003000494132PET DOG TOY VINYL BALL 0000001000+00003069+00000+0001T032905760000                    1400 2IC8702ICV             Z
140963014140963466-064838     140963006001023835031BALLS MASSAGE 8cm SET-30000001000+00001753+00000+0001T032905760000                    1400 2IC7852ICV             Z
140963015140963264-000921     140963000090159150442MAISTO CAR 3" FRESH    0000001000+00001753+00000+0001T032905760000                    1400 2IC7102ICV             Z
140963016140963040-001011-A   140963006003000698370LANTERN PLASTIC W/LIGHT0000001000+00008771+00000+0001T032905760000                    1400 2IC5102ICV             Z
140963017140963366-000401     140963006003000242047DRESS UP PRINCESS SET  0000001000+00004385+00000+0001T032905760000                    1400 2IC1312ICV             Z
140963018140963050-000263-Z   140963006001023777041PADLOCK BRS 32mm CARDED0000001000+00003507+00000+0001T032905760000                    1400 2IC8552ICV             Z
140963019140963047-009010     140963006001023120267DOOR-WINDOW-ALARM B/O  0000001000+00004385+00000+0001T032905760000                    1400 2IC8802ICV             Z
140963020140963486-002316     140963006003000335602WALL-CLOCK QTZ RND 30CM0000001000+00008771+00000+0001T032905760000                    1400 2IC5102ICV             Z
140963021140963048-000859     140963006003000423422TORCH 9 LED PL 3XAAA   0000001000+00001753+00000+0001T032905760000                    1400 2IC3052ICV             Z
140963022140963051-600706     140963006003000604197S/GARDEN LIGHT 35cm PL 0000001000+00002367+00000+0001T032905760000                    1400 2IC8202ICV             Z
140963023140963495-059726     140963000078257597260INTEX LOUNGER DELUXE   0000001000+00010525+00000+0001T032905760000                    1400 2IC7872ICV             Z
140963024140963140-005093     140963006003000331338INSECT-KILL RAQT-SHAPED0000002000+00005262+00000+0001T032905760000                    1400 2IC8302ICV             Z
140963025140963562-006274     140963006001023744432EDU SKETCH-BOARD       0000001000+00005262+00000+0001T032905760000                    1400 2IC7552ICV             Z
140963026140963265-000011     140963006003000609581B/O HOVER BALL         0000001000+00017542+00000+0001T032905760000                    1400 2IC7102ICV             Z
140963027140963486-002321     140963006003000384624WALL-CLOCK QTZ 33CM    0000001000+00007016+00000+0001T032905760000                    1400 2IC5102ICV             Z
140963028140963361-000600     140963006003000678594DOLL B/O 12cm MERMAID  0000001000+00007016+00000+0001T032905760000                    1400 2IC7252ICV             Z
140963029140963301-087001     140963006003000427789ORN OCCASION DAD TROPHY0000002000+00002192+00000+0001T032905760000                    1400 2IC5052ICV             Z
140963030140963366-000401     140963006003000242047DRESS UP PRINCESS SET  0000001000+00004385+00000+0001T032905760000                    1400 2IC1312ICV             Z
140963031140963112-116053     140963006006438002399TCS CARRIER BAG 38L    0000001000+00000069+00000+0001T032905760000                    1400 2IC0902ICV             Z
140963032140963112-116053     140963006006438002399TCS CARRIER BAG 38L    0000001000+00000069+00000+0001T032905760000                    1400 2IC0902ICV             Z
140963033140963112-116038     140963006009681820246TCS CARRIER BAG MIDI   0000002000+00000035+00000+0001T032905760000                    1400 2IC0902ICV             Z
140963034140963368-000161     140963006003000167760PLUSH BEAR BABY ASSTD  0000001000+00017542+00000+0001T032905760000                    1400 2IC7452ICV             Z
140963035140963031-080508     140963006001023802415P/FRAME PL 22X11CM LOVE0000001000+00004385+00000+0001T032905760000                    1400 2IC5102ICV             Z
140964000140964               140964               170213DY     1400+00000+DY0000076995+0000076995+000000000+000010785+0000087780+           I00000000000+0000000000+Z
140964001140964104-000131     140964006003000676996BASKET/ORGANISER ROUND 0000001000+00002630+00000+0001T                                1400 2IC2102ICD             Z
140964002140964001-000001     140964006001023507266SHOT-GLASS 25ml        0000001000+00000350+00000+0001T                                1400 2IC5152ICD             Z
140964003140964032-000138     140964006003000466191MIRROR STANDING PL SQR 0000001000+00003069+00000+0001T                                1400 2IC5102ICD             Z
140964004140964016-006461     140964006003000397273S/JAR-SET GLS 7PC S/SET0000001000+00011402+00000+0001T                                1400 2IC3002ICD             Z
140964005140964104-000135     140964006001023846419WASTEBIN SWING-LID 28cm0000001000+00004385+00000+0001T                                1400 2IC2102ICD             Z
140964006140964304-001500     140964006003000427352FLWR C/FLWR SPRAY 3HEAD0000001000+00000700+00000+0001T                                1400 2IC5102ICD             Z
140964007140964304-001516     140964006003000036486FLOWER GERBERA 57CM    0000001000+00000876+00000+0001T                                1400 2IC5102ICD             Z
140964008140964403-000508     140964006001023691309M-BANK PIGGY W/HAMMER  0000001000+00004385+00000+0001T                                1400 2IC5102ICD             Z
140964009140964015-000100     140964006001023821683WHITEWARE CUP+SAUCER   0000001000+00001753+00000+0001T                                1400 2IC5152ICD             Z
140964010140964304-001516     140964006003000036486FLOWER GERBERA 57CM    0000001000+00000876+00000+0001T                                1400 2IC5102ICD             Z
140964011140964304-001499     140964006003000035496FLOWER ANEMONE SPRAY   0000002000+00000700+00000+0001T                                1400 2IC5102ICD             Z
140964012140964018-000129-A   140964006003000441396MUG CERAMIC JUMBO      0000001000+00005262+00000+0001T                                1400 2IC5152ICD             Z
140964013140964051-600684     140964006003000267163BIRD FEEDER 15x17cm RND0000001000+00003069+00000+0001T                                1400 2IC8202ICD             Z
140964014140964125-000006     140964006003000649983RIBBON-HELIUM BALLOON  0000001000+00000001+00000+0001T                                1400 2IC0912ICD             Z
140964015140964019-000081     140964006003000406272VASE GLASS 30cm ASSTD  0000002000+00008771+00000+0001T                                1400 2IC5102ICD             Z
140964016140964019-000087     140964006001023797223VASE GLASS FOOTED ASSTD0000001000+00008771+00000+0001T                                1400 2IC5102ICD             Z
140964017140964019-000285     140964006001023889829VASE CERAMIC 25CM ASSTD0000002000+00005262+00000+0001T                                1400 2IC5102ICD             Z
M17021391                              CASH        DYSLAVE 3                       Z-REPORT No.   378TOTAL (Sales - Refunds)              0.00       CASH TO BE BANKED                    0.00       DEBIT CARDS                          0.00       CREDIT CARDS                         0.00       Z-READING                            0.00       AIRTIME DEBIT CARD SALES             0.00       AIRTIME CARD SALES                   0.00       OVERS/UNDERS                         0.00       AIRTIME CASH SALES                   0.00       GIFT CARDS                           0.00       GIFT CARD CASH SALES                 0.00       T O T A L  CASH PAYOUTS              0.00                                                                                                                                                                                                                                                                                                                                                      Z
M17021392                              CASH        DYABSENT                                                                                                                                                                                          ANNUAL LEAVE                                                                                                                                                                                    DAY OFF                                                                                                                                                                                         COMMENTS                                                                                                                                                                                                                                                                                                                                                                                       Z
Y17021300                                          DY00000000000000+000000
ZDY17021319313 SLAVE 3      SALES DATA                     NEXT INVOICE NO.  140965 0378
L56602900356819-001-001       DY1702130937202ICYOLANDE BREKFIS                                                                                                                                                                                                                                                                                                                                                                                                                                                                                                                                                                                                                                                                                                                                                                                                                                                                                                                                                                                      Z
L56871900358675-001-005       DY1702130933182ICYOLANDE BREKFIS                                                                                                                                                                                                                                                                                                                                                                                                                                                                                                                                                                                                                                                                                                                                                                                                                                                                                                                                                                                      Z
L56871900358675-002-005       DY1702130926392ICYOLANDE BREKFIS                                                                                                                                                                                                                                                                                                                                                                                                                                                                                                                                                                                                                                                                                                                                                                                                                                                                                                                                                                                      Z
L56871900358675-003-005       DY1702130934502ICYOLANDE BREKFIS                                                                                                                                                                                                                                                                                                                                                                                                                                                                                                                                                                                                                                                                                                                                                                                                                                                                                                                                                                                      Z
L56871900358675-004-005       DY1702130932362ICYOLANDE BREKFIS                                                                                                                                                                                                                                                                                                                                                                                                                                                                                                                                                                                                                                                                                                                                                                                                                                                                                                                                                                                      Z
L56871900358675-005-005       DY1702130931502ICYOLANDE BREKFIS                                                                                                                                                                                                                                                                                                                                                                                                                                                                                                                                                                                                                                                                                                                                                                                                                                                                                                                                                                                      Z
L56873700356954-001-001       DY1702130926232ICYOLANDE BREKFIS                                                                                                                                                                                                                                                                                                                                                                                                                                                                                                                                                                                                                                                                                                                                                                                                                                                                                                                                                                                      Z
L57100300357184-001-003       DY1702130933442ICYOLANDE BREKFIS                                                                                                                                                                                                                                                                                                                                                                                                                                                                                                                                                                                                                                                                                                                                                                                                                                                                                                                                                                                      Z
L57100300357184-002-003       DY1702130923562ICYOLANDE BREKFIS                                                                                                                                                                                                                                                                                                                                                                                                                                                                                                                                                                                                                                                                                                                                                                                                                                                                                                                                                                                      Z
L57100300357184-003-003       DY1702130936072ICYOLANDE BREKFIS                                                                                                                                                                                                                                                                                                                                                                                                                                                                                                                                                                                                                                                                                                                                                                                                                                                                                                                                                                                      Z
L58195400358754-001-003       DY1702130926312ICYOLANDE BREKFIS                                                                                                                                                                                                                                                                                                                                                                                                                                                                                                                                                                                                                                                                                                                                                                                                                                                                                                                                                                                      Z
L58195400358754-002-003       DY1702130926262ICYOLANDE BREKFIS                                                                                                                                                                                                                                                                                                                                                                                                                                                                                                                                                                                                                                                                                                                                                                                                                                                                                                                                                                                      Z
L58195400358754-003-003       DY1702130934462ICYOLANDE BREKFIS                                                                                                                                                                                                                                                                                                                                                                                                                                                                                                                                                                                                                                                                                                                                                                                                                                                                                                                                                                                      Z
L58202800358847-001-002       DY1702130935252ICYOLANDE BREKFIS                                                                                                                                                                                                                                                                                                                                                                                                                                                                                                                                                                                                                                                                                                                                                                                                                                                                                                                                                                                      Z
L58202800358847-002-002       DY1702130924502ICYOLANDE BREKFIS                                                                                                                                                                                                                                                                                                                                                                                                                                                                                                                                                                                                                                                                                                                                                                                                                                                                                                                                                                                      Z
L58343500359512-001-002       DY1702130926372ICYOLANDE BREKFIS                                                                                                                                                                                                                                                                                                                                                                                                                                                                                                                                                                                                                                                                                                                                                                                                                                                                                                                                                                                      Z
L58343500359512-002-002       DY1702130929512ICYOLANDE BREKFIS                                                                                                                                                                                                                                                                                                                                                                                                                                                                                                                                                                                                                                                                                                                                                                                                                                                                                                                                                                                      Z
L58356200361014-001-002       DY1702130932112ICYOLANDE BREKFIS                                                                                                                                                                                                                                                                                                                                                                                                                                                                                                                                                                                                                                                                                                                                                                                                                                                                                                                                                                                      Z
L58356200361014-002-002       DY1702130934002ICYOLANDE BREKFIS                                                                                                                                                                                                                                                                                                                                                                                                                                                                                                                                                                                                                                                                                                                                                                                                                                                                                                                                                                                      Z
L58366700360401-001-001       DY1702130937412ICYOLANDE BREKFIS                                                                                                                                                                                                                                                                                                                                                                                                                                                                                                                                                                                                                                                                                                                                                                                                                                                                                                                                                                                      Z
V56602900000401-001-001       DY1702130937412ICYOLA               000000000000000170213000000   SLAVE 3     000000000000356819               01
V56871900000401-001-001       DY1702130937412ICYOLA               000000000000000170213000000   SLAVE 3     000000000000358675               05
V56873700000401-001-001       DY1702130937412ICYOLA               000000000000000170213000000   SLAVE 3     000000000000356954               01
V57100300000401-001-001       DY1702130937412ICYOLA               000000000000000170213000000   SLAVE 3     000000000000357184               03
V58195400000401-001-001       DY1702130937412ICYOLA               000000000000000170213000000   SLAVE 3     000000000000358754               03
V58202800000401-001-001       DY1702130937412ICYOLA               000000000000000170213000000   SLAVE 3     000000000000358847               02
V58343500000401-001-001       DY1702130937412ICYOLA               000000000000000170213000000   SLAVE 3     000000000000359512               02
V58356200000401-001-001       DY1702130937412ICYOLA               000000000000000170213000000   SLAVE 3     000000000000361014               02
V58366700000401-001-001       DY1702130937412ICYOLA               000000000000000170213000000   SLAVE 3     000000000000360401               01
X DY Slave 3 First invoice 140963 170213 Last invoice 140964 170213 Next invoice 140965 Total number of records 000000087 clbackup completed 19:31:31
