105103000105103               105103               170213DZ     1400+00000+DZ0000006172+0000006172+000000000+000000865+0000007030+0000000007+I20000000000+0000007030+Z
105103001105103079-000201     105103006003000161430P/CRAYONS THERAPY 10PCE0000001000+00002630+00000+0001T   00002630+0000001046          1400 NB8130               1BZ
105103002105103567-011422     105103006003000641222BK COLOURING THERAPY   0000001000+00003507+00000+0001T   00003507+0000001046          1400 NB8757               1BZ
105103003105103112-116038     105103006009681820246TCS CARRIER BAG MIDI   0000001000+00000035+00000+0001T   00000035+0000001046          1400 NB8090               1BZ
105104000105104               105104               170213DZ     1400+00000+DZ0000007663+0000007663+000000000+000001074+0000008737+0000000000+I40000008737+0000000000+Z
105104001105104903-000710     105104006002099007056SWT REFRESHERS MINT    0000001000+00001139+00000+0001T   00001139+0000001049          1400 NB8150               1BZ
105104002105104903-000504     105104006001704012416SWT CHOC JELLY BEANS   0000001000+00001227+00000+0001T   00001227+0000001049          1400 NB8150               1BZ
105104003105104018-019000     105104006003000557288MUG OCC. LOVE JUMBO    0000001000+00005262+00000+0001T   00005262+0000001049          1400 NB8515               1BZ
105104004105104112-116038     105104006009681820246TCS CARRIER BAG MIDI   0000001000+00000035+00000+0001T   00000035+0000001049          1400 NB8090               1BZ
105105000105105               105105               170213DZ     1400+00000+DZ0000009241+0000009241+000000000+000001294+0000010535+0000000000+I40000010535+0000000000+Z
105105001105105564-000001     105105006003000140589BUBBLE B/O GUN PL      0000001000+00004385+00000+0001T   00004385+0000001051          1400 NB8131               1BZ
105105002105105034-000329     105105006001023564290BOTTLE-BRUSHES WHT 2PCE0000001000+00001314+00000+0001T   00001314+0000001051          1400 NB8215               1BZ
105105003105105466-000073     105105006003000669127BALL SOCCER MESH 15.2cm0000001000+00003507+00000+0001T   00003507+0000001051          1400 NB8785               1BZ
105105004105105112-116038     105105006009681820246TCS CARRIER BAG MIDI   0000001000+00000035+00000+0001T   00000035+0000001051          1400 NB8090               1BZ
105106000105106               105106               170213DZ     1400+00000+DZ0000002890+0000002890+000000000+000000406+0000003296+0000000000+I40000003296+0000000000+Z
105106001105106903-000094     105106006923431501622SWT GS CANDY NECKLACE  0000001000+00000437+00000+0001T   00000437+0000001052          1400 NB8150               1BZ
105106002105106079-011221     105106006001023705952CRAFT SET EMB PLASTER  0000001000+00001753+00000+0001T   00002192+0008151052          1400 NB8130               1BZ
105106003105106564-000012     105106006001023130075BUBBLE BOTTLE MAGIC    0000001000+00000700+00000+0001T   00000700+0000001052          1400 NB8131               1BZ
105107000105107               105107               170213DZ     1400+00000+DZ0000000525+0000000525+000000000+000000074+0000000590+0000000009+I20000000000+0000000590+Z
105107001105107007-000402     105107006009635830864EXERCISE-BOOK A4 72PGE 0000001000+00000525+00000+0001T   00000525+0000001057          1400 NB8130               1BZ
105108000105108               105108               170213DZ     1400+00000+DZ0000001490+0000001490+000000000+000000209+0000001690+0000000009+I20000000000+0000001690+Z
105108001105108159-080352     105108006916920733314HOOKS 3PCE             0000001000+00001490+00000+0001T   00001490+0000001059          1400 NB8200               1BZ
105109000105109               105109               170213DZ     1400+00000+DZ0000012277+0000012277+000000000+000001720+0000013997+0000000000+I40000013997+0000000000+Z
105109001105109200-003021     105109006003000276370REFUSE BAGS 30xSCENTED 0000001000+00002630+00000+0001T   00002630+0000001106          1400 NB8214               1BZ
105109002105109036-000501     105109006003000417407HOOK HANGER CHROME     0000001000+00004385+00000+0001T   00004385+0000001106          1400 NB8212               1BZ
105109003105109027-008812     105109006003000465460DUSTER MICROFIBRE 58cm 0000001000+00005262+00000+0001T   00005262+0000001106          1400 NB8212               1BZ
105110000105110               105110               170213DZ     1400+00000+DZ0000002630+0000002630+000000000+000000369+0000002990+0000000009+I20000000000+0000002990+Z
105110001105110033-000140     105110006003000676972HAIR BRUSH BRIGHT      0000001000+00002630+00000+0001T   00002630+0000001106          1400 NB8200               1BZ
105111000105111               105111               170213DZ     1400+00000+DZ0000001490+0000001490+000000000+000000209+0000001690+0000000009+I20000000000+0000001690+Z
105111001105111565-004101     105111006003000548033BALL BOUNCING EGG      0000001000+00001490+00000+0001T   00001490+0000001110          1400 NB8745               1BZ
105112000105112               105112               170213DZ     1400+00000+DZ0000004769+0000004769+000000000+000000668+0000005430+0000000007+I20000000000+0000005430+Z
105112001105112018-000127     105112006001023380289MUG OCC STRAIGHT LOVE  0000003000+00001578+00000+0001T   00001753+0006471119          1400 NB8515               1BZ
105112002105112112-116038     105112006009681820246TCS CARRIER BAG MIDI   0000001000+00000035+00000+0001T   00000035+0000001119          1400 NB8090               1BZ
105113000105113               105113               170213DZ     1400+00000+DZ0000003278+0000003278+000000000+000000460+0000003738+0000000000+I40000003738+0000000000+Z
105113001105113089-000030     105113006003000575671K/CHAIN LOVE MTL ASSTD 0000001000+00001753+00000+0001T   00001753+0000001136          1400 NB8205               1BZ
105113002105113903-000613     105113006003000617173SWT LIPS DUMMY 10G     0000001000+00001490+00000+0001T   00001490+0000001136          1400 NB8150               1BZ
105113003105113112-116038     105113006009681820246TCS CARRIER BAG MIDI   0000001000+00000035+00000+0001T   00000035+0000001136          1400 NB8090               1BZ
105114000105114               105114               170213DZ     1400+00000+DZ0000003507+0000003507+000000000+000000491+0000003990+0000000008+I20000000000+0000003990+Z
105114001105114007-000325     105114006009698066514PAPER A4 160GSM 25SHTS 0000001000+00003507+00000+0001T   00003507+0000001137          1400 NB8130               1BZ
105115000105115               105115               170213DZ     1400+00000+DZ0000001314+0000001314+000000000+000000184+0000001490+0000000008+I20000000000+0000001490+Z
105115001105115046-000012     105115006904708013062BATTERIES AA  CARD-OF-40000001000+00001314+00000+0001T   00001314+0000001138          1400 NB8312               1BZ
105116000105116               105116               170213DZ     1400+00000+DZ0000044376+0000044376+000000000+000006215+0000050590+0000000001+I20000000000+0000050590+Z
105116001105116105-009015     105116006002923000009STORAGE BOX 32L FROSTED0000001000+00011402+00000+0001T   00011402+0000001141          1400 NB8210               1BZ
105116002105116203-000115     105116006001023839985ICE BUCKET PL 26X32CM  0000002000+00004385+00000+0001T   00004385+0000001141          1400 NB8300               1BZ
105116003105116200-000305     105116006003000622467FOOD OVEN ROASTING BAGS0000001000+00001753+00000+0001T   00002630+0008171141          1400 NB8214               1BZ
105116004105116006-000112     105116006003000657353BALLOON PUMPER         0000001000+00008771+00000+0001T   00008771+0000001141          1400 NB8131               1BZ
105116005105116006-000106     105116006003000471331WATERBOMBS 150PCE 6-COL0000002000+00005262+00000+0001T   00005262+0000001141          1400 NB8131               1BZ
105116006105116071-001002     105116006003000217540PENCIL-SHARPNER DOUBLE 0000002000+00001578+00000+0001T   00001578+0000001141          1400 NB8130               1BZ
105117000105117               105117               170213DZ     1400+00000+DZ0000007008+0000007008+000000000+000000984+0000007990+0000000002+I20000000000+0000007990+Z
105117001105117001-000168     105117008992787110268TUMBLER 340ml ZOMBI    0000008000+00000876+00000+0001T   00000876+0000001144          1400 NB8515               1BZ
105118000105118               105118               170213DZ     1400+00000+DZ0000002630+0000002630+000000000+000000369+0000002990+0000000009+I20000000000+0000002990+Z
105118001105118466-000515     105118006001023477408BALLS TENNIS BAG-OF-3  0000001000+00002630+00000+0001T   00002630+0000001146          1400 NB8785               1BZ
105119000105119               105119               170213DZ     1400+00000+DZ0000002103+0000002103+000000000+000000295+0000002398+0000000000+I40000002398+0000000000+Z
105119001105119903-000510     105119006001704012621SWEET MS ZBDZ S/BERRY  0000001000+00001227+00000+0001T   00001227+0000001235          1400 NB8150               1BZ
105119002105119903-000123     105119006925925909280SWEET GS MINI MALLOWS  0000001000+00000876+00000+0001T   00000876+0000001235          1400 NB8150               1BZ
105120000105120               105120               170213DZ     1400+00000+DZ0000005119+0000005119+000000000+000000718+0000005837+0000000000+I40000005837+0000000000+Z
105120001105120206-000290     105120006003000632541BOTTLE OPENER SILICONE 0000001000+00002630+00000+0001T   00002630+0000001307          1400 NB8321               1BZ
105120002105120206-000630     105120006003000631919SPECTACLE CLEANING BRUS0000002000+00001227+00000+0001T   00001227+0000001307          1400 NB8321               1BZ
105120003105120112-116038     105120006009681820246TCS CARRIER BAG MIDI   0000001000+00000035+00000+0001T   00000035+0000001307          1400 NB8090               1BZ
105121000105121               105121               170213DZ     1400+00000+DZ0000026314+0000026314+000000000+000003684+0000029990+0000000008+I20000000000+0000029990+Z
105121001105121030-004000     105121006003000394364WALL-SCONCE INTERLINK  0000002000+00013157+00000+0001T   00013157+0000001308          1400 NB8505               1BZ
105122000105122               105122               170213DZ     1400+00000+DZ0000010522+0000010522+000000000+000001475+0000011990+0000000007+I20000000000+0000011990+Z
105122001105122079-000293     105122006003000159673PAINT SET RAINBOW ASSTD0000001000+00007893+00000+0001T   00007893+0000001310          1400 NB8130               1BZ
105122002105122079-011247     105122006003000534999PAINT ROLLERS PATTERNS 0000001000+00000876+00000+0001T   00001314+0008151310          1400 NB8130               1BZ
105122003105122077-000354     105122006003000139224GIFT-BAG 25X32CM H/MADE0000001000+00001753+00000+0001T   00001753+0000001310          1400 NB8112               1BZ
105123000105123               105123               170213DZ     1400+00000+DZ0000011394+0000011394+000000000+000001598+0000012992+0000000000+I40000012992+0000000000+Z
105123001105123089-000200     105123006003000485840KEY CHAIN POLY LOVE IS 0000001000+00003507+00000+0001T   00004385+0008121312          1400 KC9205               1BZ
105123002105123903-000119     105123006001704007337SWT COCONUT-WHEEL      0000001000+00000788+00000+0001T   00000788+0000001312          1400 KC9150               1BZ
105123003105123088-000108     105123006001023765536POTPOURRI-OIL 10ml ASST0000002000+00001753+00000+0001T   00001753+0000001312          1400 KC9212               1BZ
105123004105123039-000108     105123006001023524034TEA-LITE CANDLES 8PCE  0000002000+00001490+00000+0001T   00001490+0000001312          1400 KC9510               1BZ
105123005105123077-000311     105123006001023608666GIFT-BAG 11X14CM GLOSS 0000001000+00000613+00000+0001T   00000613+0000001312          1400 KC9112               1BZ
105124000105124               105124               170213DZ     1400+00000+DZ0000004382+0000004382+000000000+000000615+0000004990+0000000007+I20000000000+0000004990+Z
105124001105124077-000302     105124008010410010195GIFT-BAG 18X23CM E/D   0000001000+00000876+00000+0001T   00000876+0000001312          1400 KC9112               1BZ
105124002105124200-003024     105124006001023657299REFUSE BAGS 20PCE BLACK0000002000+00001753+00000+0001T   00001753+0000001312          1400 KC9214               1BZ
105125000105125               105125               170213DZ     1400+00000+DZ0000079804+0000079804+000000000+000011180+0000090980+0000000004+I20000000000+0000090980+Z
105125001105125496-058431     105125000078257584314POOL SOFT-SIDE 188x46cm0000002000+00024560+00000+0001T   00024560+0000001316          1400 KC9787               1BZ
105125002105125497-068615     105125000078257686155H/PUMP HIGH-O/PUT 48cm 0000001000+00013157+00000+0001T   00013157+0000001316          1400 KC9787               1BZ
105125003105125133-000381     105125006001023713674TABLE-CLOTH 132x178cm  0000007000+00001753+00000+0001T   00001753+0000001316          1400 KC9212               1BZ
105125004105125001-000168     105125008992787110268TUMBLER 340ml ZOMBI    0000006000+00000876+00000+0001T   00000876+0000001316          1400 KC9515               1BZ
105126000105126               105126               170213DZ     1400+00000+DZ0000000048+0000000048+000000000+000000007+0000000050+0000000005+I20000000000+0000000050+Z
105126001105126112-116069     105126006009681820277TCS CARRIER BAG JUMBO  0000001000+00000048+00000+0001T   00000048+0000001317          1400 KC9090               1BZ
105127000105127               105127               170213DZ     1400+00000+DZ0000008806+0000008806+000000000+000001233+0000010030+0000000009+I20000000000+0000010030+Z
105127001105127001-091415     105127006003000329113W/GLS OCC. LOVE 2PC 2800000001000+00008771+00000+0001T   00009648+0006471322          1400 KC9515               1BZ
105127002105127112-116038     105127006009681820246TCS CARRIER BAG MIDI   0000001000+00000035+00000+0001T   00000035+0000001322          1400 KC9090               1BZ
105128000105128               105128               170213DZ     1400+00000+DZ0000001613+0000001613+000000000+000000226+0000001830+0000000009+I20000000000+0000001830+Z
105128001105128077-000303     105128006001023593757GIFT-BAG PAPER MED     0000001000+00001578+00000+0001T   00001578+0000001324          1400 KC9112               1BZ
105128002105128112-116038     105128006009681820246TCS CARRIER BAG MIDI   0000001000+00000035+00000+0001T   00000035+0000001324          1400 KC9090               1BZ
105129000105129               105129               170213DZ     1400+00000+DZ0000005295+0000005295+000000000+000000743+0000006038+0000000000+I40000006038+0000000000+Z
105129001105129159-000038     105129006003000393954HOOKS HANGER S/S 2PCE  0000002000+00002630+00000+0001T   00002630+0000001326          1400 KC9200               1BZ
105129002105129112-116038     105129006009681820246TCS CARRIER BAG MIDI   0000001000+00000035+00000+0001T   00000035+0000001326          1400 KC9090               1BZ
105130000105130               105130               170213DZ     1400+00000+DZ0000004415+0000004415+000000000+000000620+0000005030+0000000005+I20000000000+0000005030+Z
105130001105130040-000209     105130006003000673872C/HOLDER GLS CLEAR 6.5 0000005000+00000876+00000+0001T   00000876+0000001333          1400 KC9510               1BZ
105130002105130112-116038     105130006009681820246TCS CARRIER BAG MIDI   0000001000+00000035+00000+0001T   00000035+0000001333          1400 KC9090               1BZ
105131000105131               105131               170213DZ     1400+00000+DZ0000005909+0000005909+000000000+000000828+0000006730+0000000007+I20000000000+0000006730+Z
105131001105131304-001011     105131006001023806727FLWR ROSE RED W/BEAR   0000001000+00000613+00000+0001T   00000788+0006471335          1400 KC9510               1BZ
105131002105131077-000011-E   105131006001023808646TISSUE-WRAP PINK 10PCE 0000001000+00000876+00000+0001T   00000876+0000001335          1400 KC9112               1BZ
105131003105131024-000118     105131006001023422316N/STICK C/PAN HEART    0000001000+00004385+00000+0001T   00004385+0000001335          1400 KC9300               1BZ
105131004105131112-116038     105131006009681820246TCS CARRIER BAG MIDI   0000001000+00000035+00000+0001T   00000035+0000001335          1400 KC9090               1BZ
105132000105132               105132               170213DZ     1400+00000+DZ0000000613+0000000613+000000000+000000086+0000000690+0000000009+I20000000000+0000000690+Z
105132001105132304-001011     105132006001023806727FLWR ROSE RED W/BEAR   0000001000+00000613+00000+0001T   00000788+0006471335          1400 KC9510               1BZ
105133000105133               105133               170213DZ     1400+00000+DZ0000003068+0000003068+000000000+000000430+0000003490+0000000008+I20000000000+0000003490+Z
105133001105133077-000299     105133006003000395576G/BAG 32x25cm LRG LOVE 0000001000+00001490+00000+0001T   00001490+0000001336          1400 KC9112               1BZ
105133002105133018-000127     105133006001023380289MUG OCC STRAIGHT LOVE  0000001000+00001578+00000+0001T   00001753+0006471336          1400 KC9515               1BZ
105134000105134               105134               170213DZ     1400+00000+DZ0000025826+0000025826+000000000+000003619+0000029445+0000000000+I40000029445+0000000000+Z
105134001105134039-809558     105134006003000344376CANDLE PILLAR 12CM 4AST0000001000+00006139+00000+0001T   00006139+0000001345          1400 KC9510               1BZ
105134002105134016-006710     105134006003000674725S/JAR GLS RHEA 425ml   0000001000+00002630+00000+0001T   00002630+0000001345          1400 KC9300               1BZ
105134003105134018-050000     105134006003000412679MUG OCC LOVE TWIN BEAR 0000001000+00006139+00000+0001T   00006139+0000001345          1400 KC9515               1BZ
105134004105134031-000001-A   105134006003000246908P/FRAME GLS LOVE 9X13cm0000001000+00004385+00000+0001T   00004385+0000001345          1400 KC9510               1BZ
105134005105134903-000843     105134008693029031067SWT GUMMY JELAXY 80G   0000003000+00000964+00000+0001T   00000964+0000001345          1400 KC9150               1BZ
105134006105134077-000299     105134006003000395576G/BAG 32x25cm LRG LOVE 0000002000+00001490+00000+0001T   00001490+0000001345          1400 KC9112               1BZ
105134007105134112-116069     105134006009681820277TCS CARRIER BAG JUMBO  0000001000+00000048+00000+0001T   00000048+0000001345          1400 KC9090               1BZ
105134008105134304-001011     105134006001023806727FLWR ROSE RED W/BEAR   0000001000+00000613+00000+0001T   00000788+0006471345          1400 KC9510               1BZ
105135000105135               105135               170213DZ     1400+00000+DZ0000011437+0000011437+000000000+000001602+0000013030+0000000009+I20000000000+0000013030+Z
105135001105135368-000637     105135006001023874092PLUSH BEAR SLEEPING LOV0000001000+00011402+00000+0001T   00012279+0006471347          1400 KC9745               1BZ
105135002105135112-116038     105135006009681820246TCS CARRIER BAG MIDI   0000001000+00000035+00000+0001T   00000035+0000001347          1400 KC9090               1BZ
105136000105136               105136               170213DZ     1400+00000+DZ0000003891+0000003891+000000000+000000546+0000004437+0000000000+I40000004437+0000000000+Z
105136001105136040-000210     105136006003000657810CANDLE+HOLDER GLS 6cm  0000002000+00001139+00000+0001T   00001139+0000001517          1400 KC9510               1BZ
105136002105136077-000303     105136006001023593757GIFT-BAG PAPER MED     0000001000+00001578+00000+0001T   00001578+0000001517          1400 KC9112               1BZ
105136003105136112-116038     105136006009681820246TCS CARRIER BAG MIDI   0000001000+00000035+00000+0001T   00000035+0000001517          1400 KC9090               1BZ
105137000105137               105137               170213DZ     1400+00000+DZ0000002192+0000002192+000000000+000000307+0000002490+0000000009+I20000000000+0000002490+Z
105137001105137046-000012-A   105137006003000208296BATTERIES H/POWER SZ:AA0000001000+00002192+00000+0001T   00002192+0000001544          1400 KC9312               1BZ
105138000105138               105138               170213DZ     1400+00000+DZ0000000788+0000000788+000000000+000000111+0000000890+0000000009+I20000000000+0000000890+Z
105138001105138077-000010-C   105138006001023123879CREPE-PAPER RED        0000001000+00000788+00000+0001T   00000788+0000001549          1400 KC9112               1BZ
105139000105139               105139               170213DZ     1400+00000+DZ0000007660+0000007660+000000000+000001075+0000008735+0000000000+I40000008735+0000000000+Z
105139001105139077-000452     105139006003000284986G/BAG METALLIC MED EMB 0000001000+00001490+00000+0001T   00001490+0000001557          1400 KC9112               1BZ
105139002105139077-000382     105139006003000247820GIFT-BAG MED 18X23CM   0000001000+00001753+00000+0001T   00001753+0000001557          1400 KC9112               1BZ
105139003105139077-000452     105139006003000284986G/BAG METALLIC MED EMB 0000001000+00001490+00000+0001T   00001490+0000001557          1400 KC9112               1BZ
105139004105139077-000011-X   105139006001023809827TISSUE-WRAP SILVER 10PC0000001000+00001753+00000+0001T   00001753+0000001557          1400 KC9112               1BZ
105139005105139903-000709     105139006002099007070SWT QUENCHERS FRUIT    0000001000+00001139+00000+0001T   00001139+0000001557          1400 KC9150               1BZ
105139006105139112-116038     105139006009681820246TCS CARRIER BAG MIDI   0000001000+00000035+00000+0001T   00000035+0000001557          1400 KC9090               1BZ
105140000105140               105140               170213DZ     1400+00000+DZ0000011402+0000011402+000000000+000001597+0000012990+0000000009+I20000000000+0000012990+Z
105140001105140368-000637     105140006001023874092PLUSH BEAR SLEEPING LOV0000001000+00011402+00000+0001T   00012279+0006471558          1400 KC9745               1BZ
105141000105141               105141               170213DZ     1400+00000+DZ0000001314+0000001314+000000000+000000184+0000001490+0000000008+I20000000000+0000001490+Z
105141001105141903-004950     105141006002580020304SWT APRICOT SURPRISE   0000001000+00001314+00000+0001T   00001314+0000001558          1400 KC9150               1BZ
105142000105142               105142               170213DZ     1400+00000+DZ0000004994+0000004994+000000000+000000701+0000005695+0000000000+I40000005695+0000000000+Z
105142001105142077-000011-C   105142006001023808523TISSUE 10xSHTS RED     0000001000+00000876+00000+0001T   00000876+0000001608          1400 KC9112               1BZ
105142002105142566-000858     105142006001023760975STCKRS G/OUTLINE ASSTD 0000001000+00000788+00000+0001T   00000788+0000001608          1400 KC9130               1BZ
105142003105142566-002000     105142000721129013206STICKERS CRYSTAL ASSTD 0000001000+00000700+00000+0001T   00000700+0000001608          1400 KC9130               1BZ
105142004105142566-000863     105142006001023788351STICKERS LASER 20x25cm 0000001000+00002630+00000+0001T   00002630+0000001608          1400 KC9130               1BZ
105143000105143               105143               170213DZ     1400+00000+DZ0000004420+0000004420+000000000+000000619+0000005030+0000000009+I20000000000+0000005030+Z
105143001105143047-009010     105143006001023120267DOOR-WINDOW-ALARM B/O  0000001000+00004385+00000+0001T   00004385+0000001610          1400 KC9880               1BZ
105143002105143112-116038     105143006009681820246TCS CARRIER BAG MIDI   0000001000+00000035+00000+0001T   00000035+0000001610          1400 KC9090               1BZ
105144000105144               105144               170213DZ     1400+00000+DZ0000010609+0000010609+000000000+000001486+0000012095+0000000000+I40000012095+0000000000+Z
105144001105144077-000314     105144006003000181148GIFT-BAG 11X14CM MATT  0000001000+00000876+00000+0001T   00000876+0000001613          1400 KC9112               1BZ
105144002105144001-000175     105144006001023788108B/MUG GLS LOVE 380ML   0000001000+00004385+00000+0001T   00004385+0000001613          1400 KC9515               1BZ
105144003105144080-000124     105144006003000297733CARD & ENV VALENTINES  0000001000+00001578+00000+0001T   00001578+0000001613          1400 KC9112               1BZ
105144004105144018-000170     105144006001023775528MUG OCC. LOVE 2PC MINI 0000001000+00002192+00000+0001T   00002192+0000001613          1400 KC9515               1BZ
105144005105144077-000303     105144006001023593757GIFT-BAG PAPER MED     0000001000+00001578+00000+0001T   00001578+0000001613          1400 KC9112               1BZ
105145000105145               105145               170213DZ     1400+00000+DZ0000033353+0000033353+000000000+000004671+0000038024+0000000000+I40000038024+0000000000+Z
105145001105145566-000068     105145006003000418046POP UP LOVE 2 ASSTD    0000001000+00002192+00000+0001T   00002192+0000001622          1400 KC9130               1BZ
105145002105145567-010555     105145009780799363142TIPPIE READERS ASSORTED0000003000+00003069+00000+0001T   00003069+0000001622          1400 KC9757               1BZ
105145003105145566-000359     105145006003000582709STICKER BOOK LOVE SPARK0000002000+00002192+00000+0001T   00002192+0000001622          1400 KC9130               1BZ
105145004105145567-010565     105145006003000572472BOOK AFRIKAANS CAT 2   0000004000+00003507+00000+0001T   00003507+0000001622          1400 KC9757               1BZ
105145005105145038-001800     105145006003000623303DOILIE PAPER HRT 24PC  0000001000+00003507+00000+0001T   00003507+0000001622          1400 KC9300               1BZ
105145006105145112-116038     105145006009681820246TCS CARRIER BAG MIDI   0000001000+00000035+00000+0001T   00000035+0000001622          1400 KC9090               1BZ
105146000105146               105146               170213DZ     1400+00000+DZ0000004383+0000004383+000000000+000000615+0000004998+0000000000+I40000004998+0000000000+Z
105146001105146304-000720     105146006001023843050F/BUNCH ROSE 6-HEAD AST0000001000+00002630+00000+0001T   00002630+0000001626          1400 KC9510               1BZ
105146002105146200-003024     105146006001023657299REFUSE BAGS 20PCE BLACK0000001000+00001753+00000+0001T   00001753+0000001626          1400 KC9214               1BZ
105147000105147               105147               170213DZ     1400+00000+DZ0000000393+0000000393+000000000+000000056+0000000440+0000000009+I20000000000+0000000440+Z
105147001105147903-000495     105147006006920001565SWT MS TOFFEE ORIG 38g 0000001000+00000393+00000+0001T   00000393+0000001627          1400 KC9150               1BZ
105148000105148               105148               170213DZ     1400+00000+DZ0000005521+0000005521+000000000+000000774+0000006290+0000000005+I20000000000+0000006290+Z
105148001105148077-000312     105148006001023608697GIFT-BAG 10X35CM GLOSS 0000001000+00001314+00000+0001T   00001314+0000001636          1400 KC9112               1BZ
105148002105148903-000504     105148006001704012416SWT CHOC JELLY BEANS   0000001000+00001227+00000+0001T   00001227+0000001636          1400 KC9150               1BZ
105148003105148903-000499     105148006001704012492SWT CHOC MALLOWS 50g   0000001000+00001227+00000+0001T   00001227+0000001636          1400 KC9150               1BZ
105148004105148903-000619     105148006003000672455SWT LOLLY STR/BRRY 140G0000001000+00001753+00000+0001T   00001753+0000001636          1400 KC9150               1BZ
105149000105149               105149               170213DZ     1400+00000+DZ0000001578+0000001578+000000000+000000221+0000001790+0000000009+I20000000000+0000001790+Z
105149001105149077-000303     105149006001023593757GIFT-BAG PAPER MED     0000001000+00001578+00000+0001T   00001578+0000001710          1400 KC9112               1BZ
105150000105150               105150               170213DZ     1400+00000+DZ0000014032+0000014032+000000000+000001966+0000015990+0000000008+I20000000000+0000015990+Z
105150001105150077-000270     105150006003000395453GIFT-BAG PPR JMB 33X45 0000001000+00002630+00000+0001T   00002630+0000001715          1400 KC9112               1BZ
105150002105150368-000637     105150006001023874092PLUSH BEAR SLEEPING LOV0000001000+00011402+00000+0001T   00012279+0006471715          1400 KC9745               1BZ
105151000105151               105151               170213DZ     1400+00000+DZ0000007927+0000007927+000000000+000001111+0000009038+0000000000+I40000009038+0000000000+Z
105151001105151088-000084     105151006001023798060P/POURRI 120G ASSTD    0000001000+00001753+00000+0001T   00001753+0000001717          1400 KC9212               1BZ
105151002105151039-000798     105151006001023617774CANDLES TEALITE BOX-50 0000001000+00006139+00000+0001T   00006139+0000001717          1400 KC9510               1BZ
105151003105151112-116038     105151006009681820246TCS CARRIER BAG MIDI   0000001000+00000035+00000+0001T   00000035+0000001717          1400 KC9090               1BZ
105152000105152               105152               170213DZ     1400+00000+DZ0000000613+0000000613+000000000+000000086+0000000690+0000000009+I20000000000+0000000690+Z
105152001105152047-000001-BB  105152006001023723536INS-TAPE BLACK 18mmx10m0000001000+00000613+00000+0001T   00000613+0000001718          1400 KC9880               1BZ
A17021300                                          08135662DZSLAVE 1                       KC91IC
A17021301                                          10325045DZSLAVE 1                       NB81IC
M17021391                              CASH        DZSLAVE 1                       Z-REPORT No.   581TOTAL (Sales - Refunds)           4934.25       CASH TO BE BANKED                 3133.90       DEBIT CARDS                          0.00       CREDIT CARDS                      1800.35       Z-READING                         4934.25       AIRTIME DEBIT CARD SALES             0.00       AIRTIME CARD SALES                   0.00       OVERS/UNDERS                         0.00       AIRTIME CASH SALES                   0.00       GIFT CARDS                           0.00       GIFT CARD CASH SALES                 0.00       T O T A L  CASH PAYOUTS              0.00                                                                                                                                                                                                                                                                                                                                                      Z
M17021392                              CASH        DZABSENT                                                                                                                                                                                          ANNUAL LEAVE                                                                                                                                                                                    DAY OFF                                                                                                                                                                                         COMMENTS                                                                                                                                                                                                                                                                                                                                                                                       Z
Y17021300                                          DZ00000000432998+000050
ZDZ17021319313 SLAVE 1      SALES DATA                     NEXT INVOICE NO.  105153 0581
X DZ Slave 1 First invoice 105103 170213 Last invoice 105152 170213 Next invoice 105153 Total number of records 000000182 clbackup completed 19:31:10
