201602000201602               201602               170213DZ     1400+00000+DZ0000014032+0000014032+000000000+000001965+0000015997+0000000000+I40000015997+0000000000+Z
201602001201602004-071204     201602006003000624904USB IN-CAR CHARGER 2.1A0000001000+00003507+00000+0001T   00003507+0000000859          1400 NB8310               2AZ
201602002201602028-003601     201602006001023361387BEACH-UMBRELLA 170cm   0000001000+00010525+00000+0001T   00010525+0000000859          1400 NB8305               2AZ
201603000201603               201603               170213DZ     1400+00000+DZ0000000262+0000000262+000000000+000000037+0000000290+0000000009+I20000000000+0000000290+Z
201603001201603108-003007     201603006002923006590MUG PL 375ml           0000001000+00000262+00000+0001T   00000262+0000000924          1400 NB8210               2AZ
201604000201604               201604               170213DZ     1400+00000+DZ0000001139+0000001139+000000000+000000160+0000001290+0000000009+I20000000000+0000001290+Z
201604001201604565-000071     201604006003000643387NOVELTY WIND UP CHATTER0000001000+00001139+00000+0001T   00001139+0000000940          1400 NB8745               2AZ
201605000201605               201605               170213DZ     1400+00000+DZ0000005259+0000005259+000000000+000000738+0000005990+0000000007+I20000000000+0000005990+Z
201605001201605088-000108     201605006001023765536POTPOURRI-OIL 10ml ASST0000003000+00001753+00000+0001T   00001753+0000000941          1400 NB8212               2AZ
201606000201606               201606               170213DZ     1400+00000+DZ0000002980+0000002980+000000000+000000418+0000003390+0000000008+I20000000000+0000003390+Z
201606001201606077-000299     201606006003000395576G/BAG 32x25cm LRG LOVE 0000002000+00001490+00000+0001T   00001490+0000000949          1400 NB8112               2AZ
201607000201607               201607               170213DZ     1400+00000+DZ0000008240+0000008240+000000000+000001155+0000009390+0000000005+I20000000000+0000009390+Z
201607001201607039-000108     201607006001023524034TEA-LITE CANDLES 8PCE  0000003000+00001490+00000+0001T   00001490+0000000950          1400 NB8510               2AZ
201607002201607080-000139     201607006003000611690CARD & ENV MINI SET 6PC0000001000+00002192+00000+0001T   00002192+0000000950          1400 NB8112               2AZ
201607003201607077-000303     201607006001023593757GIFT-BAG PAPER MED     0000001000+00001578+00000+0001T   00001578+0000000950          1400 NB8112               2AZ
201608000201608               201608               170213DZ     1400+00000+DZ0000003507+0000003507+000000000+000000491+0000003998+0000000000+I40000003998+0000000000+Z
201608001201608562-000200     201608006001023732941PUSH-IN TRANSPORT      0000001000+00003507+00000+0001T   00003507+0000000957          1400 NB8755               2AZ
201609000201609               201609               170213DZ     1400+00000+DZ0000004384+0000004384+000000000+000000614+0000004990+0000000008+I20000000000+0000004990+Z
201609001201609051-002400     201609006001023616180TRIGGER-SPRAYER 900ml  0000002000+00002192+00000+0001T   00002192+0000001002          1400 NB8820               2AZ
201610000201610               201610               170213DZ     1400+00000+DZ0000003506+0000003506+000000000+000000492+0000003998+0000000000+I40000003998+0000000000+Z
201610001201610088-000011     201610006001023752826AIR-FRESHNER GEL ASSTD 0000001000+00001753+00000+0001T   00001753+0000001025          1400 NB8212               2AZ
201610002201610088-000013     201610006001023797131AIR-FRESH GEL TWIST ASS0000001000+00001753+00000+0001T   00001753+0000001025          1400 NB8212               2AZ
201611000201611               201611               170213DZ     1400+00000+DZ0000002630+0000002630+000000000+000000369+0000002990+0000000009+I20000000000+0000002990+Z
201611001201611077-000270     201611006003000395453GIFT-BAG PPR JMB 33X45 0000001000+00002630+00000+0001T   00002630+0000001031          1400 NB8112               2AZ
201612000201612               201612               170213DZ     1400+00000+DZ0000002628+0000002628+000000000+000000369+0000002997+0000000000+I40000002997+0000000000+Z
201612001201612077-000150-D   201612006003000054343GIFT-WRAP CELLPHANE CLR0000001000+00000876+00000+0001T   00000876+0000001034          1400 NB8112               2AZ
201612002201612077-000151     201612006008766114676GIFT-WRAP C/PHANE ASSTD0000001000+00000876+00000+0001T   00000876+0000001034          1400 NB8112               2AZ
201612003201612077-000150-D   201612006003000054343GIFT-WRAP CELLPHANE CLR0000001000+00000876+00000+0001T   00000876+0000001034          1400 NB8112               2AZ
201613000201613               201613               170213DZ     1400+00000+DZ0000004385-0000004385-000000000+000000614-0000005000-0000000001+I20000000000+0000005000-Z
201613001201613001-999902     201613000000000999902MAINTENANCE+REPAIR-EQP 0000001000-00004385+00000+0001T   00000000+0000001037          1400 NB89021IC            2 Z
201614000201614               201614               170213DZ     1400+00000+DZ0000014952+0000014952+000000000+000002096+0000017048+0000000000+I40000017048+0000000000+Z
201614001201614159-000102     201614006001023552891SHOWER-CADDY 48cm      0000002000+00003507+00000+0001T   00003507+0000001039          1400 NB8200               2AZ
201614002201614037-000006     201614006003000171996ASHTRAY PL TUB GIANT   0000003000+00002630+00000+0001T   00003069+0008191039          1400 NB8515               2AZ
201614003201614112-116069     201614006009681820277TCS CARRIER BAG JUMBO  0000001000+00000048+00000+0001T   00000048+0000001039          1400 NB8090               2AZ
201615000201615               201615               170213DZ     1400+00000+DZ0000008767+0000008767+000000000+000001229+0000009990+0000000006+I20000000000+0000009990+Z
201615001201615466-000514     201615006001023196620BALLS TENNIS COLR BAG-30000001000+00002630+00000+0001T   00002630+0000001040          1400 NB8785               2AZ
201615002201615072-020300     201615006008632000430DOG-TOY TUG-A-BALL SML 0000001000+00002630+00000+0001T   00002630+0000001040          1400 NB8870               2AZ
201615003201615206-000260     201615006003000632183ICE TRAY BUILDING BLOCK0000001000+00003507+00000+0001T   00003507+0000001040          1400 NB8321               2AZ
201616000201616               201616               170213DZ     1400+00000+DZ0000018949+0000018949+000000000+000002655+0000021604+0000000000+I40000021604+0000000000+Z
201616001201616104-000187     201616006003000138586FRIDGE CONDIMENT CADDY 0000001000+00003069+00000+0001T   00003069+0000001043          1400 NB8210               2AZ
201616002201616105-007510     201616006003000487424STORAGE BOX CLEAR 3.75L0000001000+00006139+00000+0001T   00006139+0000001043          1400 NB8210               2AZ
201616003201616024-000040     201616006001023332509MEASURING-JUG 2.00L    0000001000+00003069+00000+0001T   00003069+0000001043          1400 NB8300               2AZ
201616004201616105-007805     201616006002923018920STORAGE BOX CLEAR 9.5L 0000001000+00005262+00000+0001T   00005262+0000001043          1400 NB8210               2AZ
201616005201616112-116069     201616006009681820277TCS CARRIER BAG JUMBO  0000002000+00000048+00000+0001T   00000048+0000001043          1400 NB8090               2AZ
201616006201616903-005007     201616006002580020311SWT MALLOW BEAR M/SHAKE0000001000+00001314+00000+0001T   00001314+0000001043          1400 NB8150               2AZ
201617000201617               201617               170213DZ     1400+00000+DZ0000001753+0000001753+000000000+000000246+0000001999+0000000000+I40000001999+0000000000+Z
201617001201617142-000814     201617006001023183910GLOVES RUBBER  MEDIUM  0000001000+00001753+00000+0001T   00001753+0000001045          1400 NB8810               2AZ
201618000201618               201618               170213DZ     1400+00000+DZ0000005699+0000005699+000000000+000000798+0000006490+0000000007+I20000000000+0000006490+Z
201618001201618560-000101     201618006001023548740ANIMALS OCEAN-IN-TUBE  0000001000+00003507+00000+0001T   00003507+0000001156          1400 NB8745               2AZ
201618002201618206-000150     201618006003000628667SLICER CUCUMBER        0000001000+00002192+00000+0001T   00002192+0000001156          1400 NB8321               2AZ
201619000201619               201619               170213DZ     1400+00000+DZ0000011450+0000011450+000000000+000001604+0000013050+0000000004+I20000000000+0000013050+Z
201619001201619040-000103     201619000694202201862C/HOLDER-SET 5PC W/TRAY0000001000+00011402+00000+0001T   00013157+0008191209          1400 NB8510               2AZ
201619002201619112-116069     201619006009681820277TCS CARRIER BAG JUMBO  0000001000+00000048+00000+0001T   00000048+0000001209          1400 NB8090               2AZ
201620000201620               201620               170213DZ     1400+00000+DZ0000001578+0000001578+000000000+000000221+0000001790+0000000009+I20000000000+0000001790+Z
201620001201620080-000124     201620006003000297733CARD & ENV VALENTINES  0000001000+00001578+00000+0001T   00001578+0000001211          1400 NB8112               2AZ
201621000201621               201621               170213DZ     1400+00000+DZ0000001314+0000001314+000000000+000000184+0000001490+0000000008+I20000000000+0000001490+Z
201621001201621077-000310     201621006001023608635GIFT-BAG 18X23CM GLOSS 0000001000+00001314+00000+0001T   00001314+0000001215          1400 NB8112               2AZ
201622000201622               201622               170213DZ     1400+00000+DZ0000005610+0000005610+000000000+000000787+0000006390+0000000007+I20000000000+0000006390+Z
201622001201622306-000993     201622006003000560110FIRSTAID PLASTER 75PC  0000001000+00002630+00000+0001T   00002630+0000001215          1400 NB8200               2AZ
201622002201622306-000981     201622006003000559718FIRSTAID PLASTER 1PC   0000001000+00001753+00000+0001T   00001753+0000001215          1400 NB8200               2AZ
201622003201622903-000111     201622006001704006378SWT LIQUORICE-TWISTS   0000001000+00001227+00000+0001T   00001227+0000001215          1400 NB8150               2AZ
201623000201623               201623               170213DZ     1400+00000+DZ0000003979+0000003979+000000000+000000558+0000004530+0000000007+I20000000000+0000004530+Z
201623001201623031-000002-A   201623006003000247103P/FRAME LOVE 7.5X7.5CM 0000001000+00003507+00000+0001T   00003507+0000001223          1400 NB8510               2AZ
201623002201623112-116038     201623006009681820246TCS CARRIER BAG MIDI   0000001000+00000035+00000+0001T   00000035+0000001223          1400 NB8090               2AZ
201623003201623080-000133-A   201623006003000647019MINI VALENTINES CARD   0000001000+00000437+00000+0001T   00000437+0000001223          1400 NB8112               2AZ
201624000201624               201624               170213DZ     1400+00000+DZ0000007890+0000007890+000000000+000001107+0000008997+0000000000+I40000008997+0000000000+Z
201624001201624006-006018     201624006001023735256PARTY-SPRAY HAIR ASSORT0000003000+00002630+00000+0001T   00002630+0000001234          1400 NB8131               2AZ
201625000201625               201625               170213DZ     1400+00000+DZ0000005295+0000005295+000000000+000000743+0000006030+0000000008+I20000000000+0000006030+Z
201625001201625027-785000     201625006003000630905CLEANING WIPES 40-PACK 0000001000+00002630+00000+0001T   00002630+0000001236          1400 NB8212               2AZ
201625002201625027-785005     201625006003000631063CLEANING WIPES 40-PACK 0000001000+00002630+00000+0001T   00002630+0000001236          1400 NB8212               2AZ
201625003201625112-116038     201625006009681820246TCS CARRIER BAG MIDI   0000001000+00000035+00000+0001T   00000035+0000001236          1400 NB8090               2AZ
201626000201626               201626               170213DZ     1400+00000+DZ0000003541+0000003541+000000000+000000497+0000004030+0000000008+I20000000000+0000004030+Z
201626001201626080-000113     201626006003000237449CARD&ENVLPE - LOVE     0000002000+00001753+00000+0001T   00001753+0000001238          1400 NB8112               2AZ
201626002201626112-116038     201626006009681820246TCS CARRIER BAG MIDI   0000001000+00000035+00000+0001T   00000035+0000001238          1400 NB8090               2AZ
201627000201627               201627               170213DZ     1400+00000+DZ0000004207+0000004207+000000000+000000590+0000004797+0000000000+I40000004797+0000000000+Z
201627001201627206-000135     201627006003000680450T/BAG HLDR SILICONE    0000001000+00001753+00000+0001T   00001753+0000001312          1400 NB8321               2AZ
201627002201627206-000630     201627006003000631919SPECTACLE CLEANING BRUS0000002000+00001227+00000+0001T   00001227+0000001312          1400 NB8321               2AZ
201628000201628               201628               170213DZ     1400+00000+DZ0000001753+0000001753+000000000+000000246+0000001990+0000000009+I20000000000+0000001990+Z
201628001201628206-000135     201628006003000680450T/BAG HLDR SILICONE    0000001000+00001753+00000+0001T   00001753+0000001312          1400 NB8321               2AZ
201629000201629               201629               170213DZ     1400+00000+DZ0000001753+0000001753+000000000+000000246+0000001990+0000000009+I20000000000+0000001990+Z
201629001201629006-000124     201629006003000625888BALLOONS 10PC MIX COL  0000001000+00001753+00000+0001T   00001753+0000001318          1400 NB8131               2AZ
201630000201630               201630               170213DZ     1400+00000+DZ0000004727+0000004727+000000000+000000662+0000005380+0000000009+I20000000000+0000005380+Z
201630001201630903-000518     201630006001704012782SWT STRAWS S/BERRY 100g0000001000+00001227+00000+0001T   00001227+0000001344          1400 NB8150               2AZ
201630002201630903-000070     201630006001704001106SWT TOFFEE CREAMY 35g  0000003000+00000700+00000+0001T   00000700+0000001344          1400 NB8150               2AZ
201630003201630903-000071     201630006001704001120SWT TOFFEE LIQURICE 35g0000002000+00000700+00000+0001T   00000700+0000001344          1400 NB8150               2AZ
201631000201631               201631               170213DZ     1400+00000+DZ0000000613+0000000613+000000000+000000086+0000000690+0000000009+I20000000000+0000000690+Z
201631001201631047-000001-BB  201631006001023723536INS-TAPE BLACK 18mmx10m0000001000+00000613+00000+0001T   00000613+0000001345          1400 NB8880               2AZ
201632000201632               201632               170213DZ     1400+00000+DZ0000012892+0000012892+000000000+000001806+0000014690+0000000008+I20000000000+0000014690+Z
201632001201632077-000299     201632006003000395576G/BAG 32x25cm LRG LOVE 0000001000+00001490+00000+0001T   00001490+0000001346          1400 NB8112               2AZ
201632002201632368-000637     201632006001023874092PLUSH BEAR SLEEPING LOV0000001000+00011402+00000+0001T   00012279+0006471346          1400 NB8745               2AZ
201633000201633               201633               170213DZ     1400+00000+DZ0000001753+0000001753+000000000+000000246+0000001990+0000000009+I20000000000+0000001990+Z
201633001201633077-000297     201633006001023869814GIFT BOX OCCASIONS SQRE0000001000+00001753+00000+0001T   00001753+0000001415          1400 NB8112               2AZ
201634000201634               201634               170213DZ     1400+00000+DZ0000000613+0000000613+000000000+000000086+0000000690+0000000009+I20000000000+0000000690+Z
201634001201634077-000321     201634006001023677501GIFT-BAG 11X14CM E/D FL0000001000+00000613+00000+0001T   00000613+0000001417          1400 NB8112               2AZ
201635000201635               201635               170213DZ     1400+00000+DZ0000000035+0000000035+000000000+000000005+0000000040+0000000000+I20000000000+0000000040+Z
201635001201635112-116038     201635006009681820246TCS CARRIER BAG MIDI   0000001000+00000035+00000+0001T   00000035+0000001418          1400 NB8090               2AZ
201636000201636               201636               170213DZ     1400+00000+DZ0000002630+0000002630+000000000+000000369+0000002990+0000000009+I20000000000+0000002990+Z
201636001201636466-000400     201636006003000137497DART SET-OF-3          0000001000+00002630+00000+0001T   00002630+0000001421          1400 NB8785               2AZ
201637000201637               201637               170213DZ     1400+00000+DZ0000000700+0000000700+000000000+000000098+0000000790+0000000008+I20000000000+0000000790+Z
201637001201637018-000177     201637006001023797513MUG MINI LOVE ASSTD    0000001000+00000700+00000+0001T   00000700+0000001433          1400 NB8515               2AZ
201638000201638               201638               170213DZ     1400+00000+DZ0000001578+0000001578+000000000+000000221+0000001790+0000000009+I20000000000+0000001790+Z
201638001201638077-000303     201638006001023593757GIFT-BAG PAPER MED     0000001000+00001578+00000+0001T   00001578+0000001433          1400 NB8112               2AZ
201639000201639               201639               170213DZ     1400+00000+DZ0000004383+0000004383+000000000+000000615+0000004990+0000000008+I20000000000+0000004990+Z
201639001201639200-000029     201639006003000593668DISPOSABLE ROLL BAKING 0000001000+00002630+00000+0001T   00002630+0000001440          1400 NB8214               2AZ
201639002201639047-000507     201639006001023684479PLUG-ADAPTOR EURO TWIN 0000001000+00001753+00000+0001T   00001753+0000001440          1400 NB8880               2AZ
201640000201640               201640               170213DZ     1400+00000+DZ0000005260+0000005260+000000000+000000737+0000005990+0000000007+I20000000000+0000005990+Z
201640001201640089-000006     201640006003000094929KEY CHAIN HAND-BAG MTL 0000001000+00003507+00000+0001T   00003507+0000001442          1400 NB8205               2AZ
201640002201640077-000297     201640006001023869814GIFT BOX OCCASIONS SQRE0000001000+00001753+00000+0001T   00001753+0000001442          1400 NB8112               2AZ
201641000201641               201641               170213DZ     1400+00000+DZ0000001753+0000001753+000000000+000000246+0000001990+0000000009+I20000000000+0000001990+Z
201641001201641051-002407     201641006003000452491SPRAYER TRIGGER 550ml  0000001000+00001753+00000+0001T   00001753+0000001446          1400 NB8820               2AZ
201642000201642               201642               170213DZ     1400+00000+DZ0000003101+0000003101+000000000+000000436+0000003530+0000000007+I20000000000+0000003530+Z
201642001201642565-000055     201642006003000028252NOVELTY B/O FINGR-BEAMS0000001000+00001753+00000+0001T   00001753+0000001447          1400 NB8745               2AZ
201642002201642903-000155     201642006009803374435SWT LOLLY I LUV U HEART0000001000+00000525+00000+0001T   00000525+0000001447          1400 NB8150               2AZ
201642003201642112-116038     201642006009681820246TCS CARRIER BAG MIDI   0000001000+00000035+00000+0001T   00000035+0000001447          1400 NB8090               2AZ
201642004201642903-000137     201642006002099004130SWEET GS JELLY BEAN 60G0000001000+00000788+00000+0001T   00000788+0000001447          1400 NB8150               2AZ
201643000201643               201643               170213DZ     1400+00000+DZ0000000874+0000000874+000000000+000000124+0000000990+0000000008+I20000000000+0000000990+Z
201643001201643080-000133-A   201643006003000647019MINI VALENTINES CARD   0000001000+00000437+00000+0001T   00000437+0000001458          1400 NB8112               2AZ
201643002201643080-000133     201643006003000535613CARD&ENV MINI ASTD DSGN0000001000+00000437+00000+0001T   00000437+0000001458          1400 NB8112               2AZ
201644000201644               201644               170213DZ     1400+00000+DZ0000005120+0000005120+000000000+000000717+0000005830+0000000007+I20000000000+0000005830+Z
201644001201644018-000136     201644006001023659026MUG OCC LOVE W/PLUSH   0000001000+00003507+00000+0001T   00003507+0000001459          1400 NB8515               2AZ
201644002201644077-000303     201644006001023593757GIFT-BAG PAPER MED     0000001000+00001578+00000+0001T   00001578+0000001459          1400 NB8112               2AZ
201644003201644112-116038     201644006009681820246TCS CARRIER BAG MIDI   0000001000+00000035+00000+0001T   00000035+0000001459          1400 NB8090               2AZ
201645000201645               201645               170213DZ     1400+00000+DZ0000018441+0000018441+000000000+000002586+0000021020+0000000007+I20000000000+0000021020+Z
201645001201645903-000087     201645006001704000161SWT SPECKLED-EGGS 50G  0000001000+00001139+00000+0001T   00001139+0000001501          1400 NB8150               2AZ
201645002201645903-000499     201645006001704012492SWT CHOC MALLOWS 50g   0000001000+00001227+00000+0001T   00001227+0000001501          1400 NB8150               2AZ
201645003201645903-000295     201645006001704002899SWT MS FRUITY RASCALS  0000001000+00000876+00000+0001T   00000876+0000001501          1400 NB8150               2AZ
201645004201645368-000049     201645006003000536955PLUSH BEAR 15cm LOVE   0000001000+00004385+00000+0001T   00004385+0000001501          1400 NB8745               2AZ
201645005201645077-000303     201645006001023593757GIFT-BAG PAPER MED     0000001000+00001578+00000+0001T   00001578+0000001501          1400 NB8112               2AZ
201645006201645077-000010-C   201645006001023123879CREPE-PAPER RED        0000001000+00000788+00000+0001T   00000788+0000001501          1400 NB8112               2AZ
201645007201645903-000499     201645006001704012492SWT CHOC MALLOWS 50g   0000003000+00001227+00000+0001T   00001227+0000001501          1400 NB8150               2AZ
201645008201645903-000221     201645006001704007382SWT EENY-MEENY-MOS 60G 0000003000+00000876+00000+0001T   00000876+0000001501          1400 NB8150               2AZ
201645009201645903-000095     201645006001704011495SWT SPECKLED-EGGS 100G 0000001000+00002104+00000+0001T   00002104+0000001501          1400 NB8150               2AZ
201645010201645112-116038     201645006009681820246TCS CARRIER BAG MIDI   0000001000+00000035+00000+0001T   00000035+0000001501          1400 NB8090               2AZ
201646000201646               201646               170213DZ     1400+00000+DZ0000005262+0000005262+000000000+000000737+0000005990+0000000009+I20000000000+0000005990+Z
201646001201646368-000101     201646006003000449859PLUSH CAT 17cm KITTY   0000001000+00005262+00000+0001T   00005262+0000001502          1400 NB8745               2AZ
201647000201647               201647               170213DZ     1400+00000+DZ0000004385+0000004385+000000000+000000614+0000004990+0000000009+I20000000000+0000004990+Z
201647001201647162-097719     201647006001492977195#TAG NECKLACE          0000001000+00004385+00000+0001T   00004385+0000001503          1400 NB8160               2AZ
201648000201648               201648               170213DZ     1400+00000+DZ0000001314+0000001314+000000000+000000184+0000001490+0000000008+I20000000000+0000001490+Z
201648001201648565-000042     201648006003000252459NOVELTY STRESS BALL    0000001000+00001314+00000+0001T   00001314+0000001644          1400 NB8745               2AZ
201649000201649               201649               170213DZ     1400+00000+DZ0000009644+0000009644+000000000+000001351+0000010990+0000000005+I20000000000+0000010990+Z
201649001201649006-000230     201649006003000573998STRAW PARTY MOUSTACHE  0000001000+00002630+00000+0001T   00002630+0000001647          1400 NB8131               2AZ
201649002201649200-000012     201649006003000399536BAG 50PCE 165x146mm    0000002000+00003507+00000+0001T   00003507+0000001647          1400 NB8214               2AZ
201650000201650               201650               170213DZ     1400+00000+DZ0000008771+0000008771+000000000+000001228+0000009999+0000000000+I40000009999+0000000000+Z
201650001201650079-000198     201650006003000542475ART+CRAFT SET 66PCE    0000001000+00008771+00000+0001T   00008771+0000001653          1400 NB8130               2AZ
201651000201651               201651               170213DZ     1400+00000+DZ0000001753+0000001753+000000000+000000246+0000001990+0000000009+I20000000000+0000001990+Z
201651001201651004-071309     201651006001023730862HOLDER DISC SINGLE PK-60000001000+00001753+00000+0001T   00001753+0000001655          1400 NB8310               2AZ
201652000201652               201652               170213DZ     1400+00000+DZ0000000481+0000000481+000000000+000000068+0000000540+0000000009+I20000000000+0000000540+Z
201652001201652071-000012     201652006001177101006CHALK COLOUR 12PCE     0000001000+00000481+00000+0001T   00000481+0000001710          1400 NB8130               2AZ
201653000201653               201653               170213DZ     1400+00000+DZ0000001753+0000001753+000000000+000000246+0000001990+0000000009+I20000000000+0000001990+Z
201653001201653089-000030     201653006003000575671K/CHAIN LOVE MTL ASSTD 0000001000+00001753+00000+0001T   00001753+0000001711          1400 NB8205               2AZ
201654000201654               201654               170213DZ     1400+00000+DZ0000000876+0000000876+000000000+000000123+0000000999+0000000000+I40000000999+0000000000+Z
201654001201654903-000123     201654006925925909280SWEET GS MINI MALLOWS  0000001000+00000876+00000+0001T   00000876+0000001721          1400 NB8150               2AZ
201655000201655               201655               170213DZ     1400+00000+DZ0000006139+0000006139+000000000+000000860+0000006999+0000000000+I40000006999+0000000000+Z
201655001201655497-068614     201655000078257686148H/PUMP HIGH-O/PUT 36cm 0000001000+00006139+00000+0001T   00006139+0000001723          1400 NB8787               2AZ
201656000201656               201656               170213DZ     1400+00000+DZ0000005256+0000005256+000000000+000000738+0000005990+0000000004+I20000000000+0000005990+Z
201656001201656077-000303     201656006001023593757GIFT-BAG PAPER MED     0000002000+00001578+00000+0001T   00001578+0000001724          1400 NB8112               2AZ
201656002201656903-000155     201656006009803374435SWT LOLLY I LUV U HEART0000004000+00000525+00000+0001T   00000525+0000001724          1400 NB8150               2AZ
201657000201657               201657               170213DZ     1400+00000+DZ0000001575+0000001575+000000000+000000222+0000001790+0000000007+I20000000000+0000001790+Z
201657001201657903-000155     201657006009803374435SWT LOLLY I LUV U HEART0000003000+00000525+00000+0001T   00000525+0000001726          1400 NB8150               2AZ
201658000201658               201658               170213DZ     1400+00000+DZ0000003243+0000003243+000000000+000000455+0000003698+0000000000+I40000003698+0000000000+Z
201658001201658077-000384     201658006003000275243G/BAG HOT STMP 18x23CM 0000001000+00001490+00000+0001T   00001490+0000001728          1400 NB8112               2AZ
201658002201658077-000316     201658006001023609731GIFT-BAG 25X32CM MATT  0000001000+00001753+00000+0001T   00001753+0000001728          1400 NB8112               2AZ
201659000201659               201659               170213DZ     1400+00000+DZ0000001928+0000001928+000000000+000000270+0000002190+0000000008+I20000000000+0000002190+Z
201659001201659150-000774     201659006001023287427UTILITY-BOX MEDIUM     0000002000+00000964+00000+0001T   00000964+0000001729          1400 NB8810               2AZ
201660000201660               201660               170213DZ     1400+00000+DZ0000019291+0000019291+000000000+000002702+0000021990+0000000003+I20000000000+0000021990+Z
201660001201660466-000106     201660006003000128112BALL PL 20CM BASKETBALL0000001000+00003507+00000+0001T   00003507+0000001731          1400 NB8785               2AZ
201660002201660562-006274     201660006001023744432EDU SKETCH-BOARD       0000001000+00005262+00000+0001T   00005262+0000001731          1400 NB8755               2AZ
201660003201660562-000026     201660006001023910578KID'S DOUGH SET 9PCE   0000001000+00004385+00000+0001T   00004385+0000001731          1400 NB8755               2AZ
201660004201660466-000515     201660006001023477408BALLS TENNIS BAG-OF-3  0000001000+00002630+00000+0001T   00002630+0000001731          1400 NB8785               2AZ
201660005201660562-000020     201660006003000600861EDU PLAY DOUGH 60g 4PC 0000001000+00003507+00000+0001T   00003507+0000001731          1400 NB8755               2AZ
201661000201661               201661               170213DZ     1400+00000+DZ0000001487+0000001487+000000000+000000210+0000001690+0000000007+I20000000000+0000001690+Z
201661001201661903-000155     201661006009803374435SWT LOLLY I LUV U HEART0000002000+00000525+00000+0001T   00000525+0000001732          1400 NB8150               2AZ
201661002201661080-000133-A   201661006003000647019MINI VALENTINES CARD   0000001000+00000437+00000+0001T   00000437+0000001732          1400 NB8112               2AZ
M17021391                              CASH        DZSLAVE 2                       Z-REPORT No.   643TOTAL (Sales - Refunds)           3242.50       CASH TO BE BANKED                 2161.20       DEBIT CARDS                          0.00       CREDIT CARDS                      1031.30       Z-READING                         3192.50       AIRTIME DEBIT CARD SALES             0.00       AIRTIME CARD SALES                   0.00       OVERS/UNDERS                         0.00       AIRTIME CASH SALES                   0.00       GIFT CARDS                           0.00       GIFT CARD CASH SALES                 0.00       MAINTENANCE+REPAIR-EQP              49.99       ROUNDING                             0.01       T O T A L  CASH PAYOUTS             50.00                                                                                                                                                                                                                                                      Z
M17021392                              CASH        DZABSENT                                                                                                                                                                                          ANNUAL LEAVE                                                                                                                                                                                    DAY OFF                                                                                                                                                                                         COMMENTS                                                                                                                                                                                                                                                                                                                                                                                       Z
Y17021300                                          DZ00000000284688+000059
ZDZ17021319313 SLAVE 2      SALES DATA                     NEXT INVOICE NO.  201662 0643
X DZ Slave 2 First invoice 201602 170213 Last invoice 201661 170213 Next invoice 201662 Total number of records 000000177 clbackup completed 19:31:11
