208644000208644               208644               170213E1     1400+00000+E10000007750+0000007750+000000000+000001086+0000008830+0000000006+I20000000000+0000008830+Z
208644001208644365-000001     208644006003000395262PLAY SET DOCTORS SET   0000001000+00001753+00000+0001T   00001753+0000000911          1400 SK5725               1AZ
208644002208644079-000510     208644006001023509079CRAYONS WAX 12-COLOUR  0000001000+00002455+00000+0001T   00002455+0000000911          1400 SK5130               1AZ
208644003208644567-011351     208644009780709722373BK STICKER AND COLOURIN0000001000+00003507+00000+0001T   00003507+0000000911          1400 SK5757               1AZ
208644004208644112-116038     208644006009681820246TCS CARRIER BAG MIDI   0000001000+00000035+00000+0001T   00000035+0000000911          1400 SK5090               1AZ
208645000208645               208645               170213E1     1400+00000+E10000011256+0000011256+000000000+000001578+0000012834+0000000000+I40000012834+0000000000+Z
208645001208645079-000280     208645006003000160723PAINT READYMIX 6PCE    0000001000+00002630+00000+0001T   00002630+0000000913          1400 SK5130               1AZ
208645002208645079-000286     208645006001023797032FINGER-PAINT 4PCE      0000001000+00003507+00000+0001T   00003507+0000000913          1400 SK5130               1AZ
208645003208645903-000510     208645006001704012621SWEET MS ZBDZ S/BERRY  0000001000+00001227+00000+0001T   00001227+0000000913          1400 SK5150               1AZ
208645004208645079-000271     208645006003000160082PAINT-BRUSHES LRGE ART 0000001000+00003069+00000+0001T   00003069+0000000913          1400 SK5130               1AZ
208645005208645112-116038     208645006009681820246TCS CARRIER BAG MIDI   0000001000+00000035+00000+0001T   00000035+0000000913          1400 SK5090               1AZ
208645006208645903-000138     208645006002099004314SWT GS WINE GUMS 60G   0000001000+00000788+00000+0001T   00000788+0000000913          1400 SK5150               1AZ
208646000208646               208646               170213E1     1400+00000+E10000007455+0000007455+000000000+000001045+0000008500+0000000000+I20000000000+0000008500+Z
208646001208646018-000130     208646006001023867537MUG OCC LOVE MINI+HEART0000001000+00003507+00000+0001T   00003507+0000000920          1400 SK5515               1AZ
208646002208646018-005009     208646006001023725608MUG W/PLUSH-BEAR LOVE  0000001000+00003507+00000+0001T   00003507+0000000920          1400 SK5515               1AZ
208646003208646903-000183     208646006003000451043SWT LB HEART LOLLY     0000001000+00000393+00000+0001T   00000393+0000000920          1400 SK5150               1AZ
208646004208646112-116069     208646006009681820277TCS CARRIER BAG JUMBO  0000001000+00000048+00000+0001T   00000048+0000000920          1400 SK5090               1AZ
208647000208647               208647               170213E1     1400+00000+E10000003507+0000003507+000000000+000000491+0000003990+0000000008+I20000000000+0000003990+Z
208647001208647263-000506     208647006001023790231CAR SET 3PK CONSTRUCT  0000001000+00003507+00000+0001T   00003507+0000000931          1400 SK5710               1AZ
208648000208648               208648               170213E1     1400+00000+E10000001788+0000001788+000000000+000000251+0000002039+0000000000+I40000002039+0000000000+Z
208648001208648079-000206     208648006003000639700PENCIL CRAYONS THERAPY 0000001000+00001753+00000+0001T   00001753+0000000933          1400 SK5130               1AZ
208648002208648112-116038     208648006009681820246TCS CARRIER BAG MIDI   0000001000+00000035+00000+0001T   00000035+0000000933          1400 SK5090               1AZ
208649000208649               208649               170213E1     1400+00000+E10000005746+0000005746+000000000+000000806+0000006550+0000000002+I20000000000+0000006550+Z
208649001208649039-000319-2   208649006003000442508B/CANDLES LRG NUMBER-2 0000001000+00000876+00000+0001T   00000876+0000000945          1400 SK5510               1AZ
208649002208649159-000887     208649006001023730817HOOKS PL SUCTION 9PCE  0000001000+00002192+00000+0001T   00002192+0000000945          1400 SK5200               1AZ
208649003208649027-000092     208649006003000365739BLIND CLEANER MICROFIBR0000001000+00002630+00000+0001T   00002630+0000000945          1400 SK5212               1AZ
208649004208649112-116069     208649006009681820277TCS CARRIER BAG JUMBO  0000001000+00000048+00000+0001T   00000048+0000000945          1400 SK5090               1AZ
208650000208650               208650               170213E1     1400+00000+E10000003507+0000003507+000000000+000000491+0000003990+0000000008+I20000000000+0000003990+Z
208650001208650133-000017     208650006003000525171CLEANING-CLOTHS 5PCE   0000001000+00003507+00000+0001T   00003507+0000000950          1400 SK5212               1AZ
208651000208651               208651               170213E1     1400+00000+E10000001753+0000001753+000000000+000000246+0000001990+0000000009+I20000000000+0000001990+Z
208651001208651162-083941     208651006001492839417SS HEADBANDS           0000001000+00001753+00000+0001T   00001753+0000000954          1400 SK5160               1AZ
208652000208652               208652               170213E1     1400+00000+E10000003069+0000003069+000000000+000000430+0000003490+0000000009+I20000000000+0000003490+Z
208652001208652031-000864-A   208652006001023798350P/FRAME MAHOGANY 10X15 0000001000+00003069+00000+0001T   00003069+0000001004          1400 SK5510               1AZ
208653000208653               208653               170213E1     1400+00000+E10000004782+0000004782+000000000+000000670+0000005452+0000000000+I40000005452+0000000000+Z
208653001208653018-000136     208653006001023659026MUG OCC LOVE W/PLUSH   0000001000+00003507+00000+0001T   00003507+0000001009          1400 SK5515               1AZ
208653002208653077-000319     208653006001023609779GIFT-BAG 18X23CM BIRTHD0000001000+00001227+00000+0001T   00001227+0000001009          1400 SK5112               1AZ
208653003208653112-116069     208653006009681820277TCS CARRIER BAG JUMBO  0000001000+00000048+00000+0001T   00000048+0000001009          1400 SK5090               1AZ
208654000208654               208654               170213E1     1400+00000+E10000005295+0000005295+000000000+000000743+0000006030+0000000008+I20000000000+0000006030+Z
208654001208654006-006018-B   208654006003000008278PARTY-SPRAY HAIR NEON  0000002000+00002630+00000+0001T   00002630+0000001012          1400 SK5131               1AZ
208654002208654112-116038     208654006009681820246TCS CARRIER BAG MIDI   0000001000+00000035+00000+0001T   00000035+0000001012          1400 SK5090               1AZ
208655000208655               208655               170213E1     1400+00000+E10000002452+0000002452+000000000+000000344+0000002790+0000000006+I20000000000+0000002790+Z
208655001208655903-000861     208655005010478430822SWT LOVE HEARTS SML    0000001000+00000876+00000+0001T   00000876+0000001013          1400 SK5150               1AZ
208655002208655903-000120     208655006002099001665SWEET GS ZILLIONS 50g  0000001000+00000700+00000+0001T   00000700+0000001013          1400 SK5150               1AZ
208655003208655077-000314     208655006003000181148GIFT-BAG 11X14CM MATT  0000001000+00000876+00000+0001T   00000876+0000001013          1400 SK5112               1AZ
208656000208656               208656               170213E1     1400+00000+E10000025433+0000025433+000000000+000003561+0000028994+0000000000+I40000028994+0000000000+Z
208656001208656565-000735     208656006003000615674NOVELTY PUTTY BOUNCING 0000020000+00000700+00000+0001T   00000700+0000001016          1400 SK5745               1AZ
208656002208656469-000801     208656006003000652402BUILDING BLOCKS AGE BAG0000001000+00004385+00000+0001T   00004385+0000001016          1400 SK5755               1AZ
208656003208656007-000537     208656000651728791017NOTE-PAD RND SMILE-FACE0000010000+00000700+00000+0001T   00000700+0000001016          1400 SK5130               1AZ
208656004208656112-116069     208656006009681820277TCS CARRIER BAG JUMBO  0000001000+00000048+00000+0001T   00000048+0000001016          1400 SK5090               1AZ
208657000208657               208657               170213E1     1400+00000+E10000001752+0000001752+000000000+000000246+0000001990+0000000008+I20000000000+0000001990+Z
208657001208657566-000200     208657006003000384174STICKER PUFFY NEON     0000002000+00000876+00000+0001T   00000876+0000001018          1400 SK5130               1AZ
208658000208658               208658               170213E1     1400+00000+E10000003329+0000003329+000000000+000000467+0000003796+0000000000+I40000003796+0000000000+Z
208658001208658077-000310     208658006001023608635GIFT-BAG 18X23CM GLOSS 0000001000+00001314+00000+0001T   00001314+0000001019          1400 SK5112               1AZ
208658002208658018-000127     208658006001023380289MUG OCC STRAIGHT LOVE  0000001000+00001578+00000+0001T   00001753+0006471019          1400 SK5515               1AZ
208658003208658080-000133-A   208658006003000647019MINI VALENTINES CARD   0000001000+00000437+00000+0001T   00000437+0000001019          1400 SK5112               1AZ
208659000208659               208659               170213E1     1400+00000+E10000004821+0000004821+000000000+000000676+0000005490+0000000007+I20000000000+0000005490+Z
208659001208659306-000021-A   208659006001023891358EARBUDS COTTON 100PCE  0000001000+00000876+00000+0001T   00000876+0000001021          1400 SK5200               1AZ
208659002208659200-000025-A   208659006925406841054BAG ZIPPERSEAL 15PC    0000001000+00002192+00000+0001T   00002192+0000001021          1400 SK5214               1AZ
208659003208659306-000024-A   208659006003000577309COTTON-WOOL-PADS 80PC  0000001000+00001753+00000+0001T   00001753+0000001021          1400 SK5200               1AZ
208660000208660               208660               170213E1     1400+00000+E10000002628+0000002628+000000000+000000369+0000002990+0000000007+I20000000000+0000002990+Z
208660001208660077-000314     208660006003000181148GIFT-BAG 11X14CM MATT  0000003000+00000876+00000+0001T   00000876+0000001021          1400 SK5112               1AZ
208661000208661               208661               170213E1     1400+00000+E10000007699+0000007699+000000000+000001083+0000008782+0000000000+I40000008782+0000000000+Z
208661001208661903-000183     208661006003000451043SWT LB HEART LOLLY     0000003000+00000393+00000+0001T   00000393+0000001057          1400 SK5150               1AZ
208661002208661077-000311     208661006001023608666GIFT-BAG 11X14CM GLOSS 0000002000+00000613+00000+0001T   00000613+0000001057          1400 SK5112               1AZ
208661003208661368-000049     208661006003000536955PLUSH BEAR 15cm LOVE   0000001000+00004385+00000+0001T   00004385+0000001057          1400 SK5745               1AZ
208661004208661080-000133-A   208661006003000647019MINI VALENTINES CARD   0000002000+00000437+00000+0001T   00000437+0000001057          1400 SK5112               1AZ
208661005208661112-116038     208661006009681820246TCS CARRIER BAG MIDI   0000001000+00000035+00000+0001T   00000035+0000001057          1400 SK5090               1AZ
208662000208662               208662               170213E1     1400+00000+E10000001139+0000001139+000000000+000000160+0000001290+0000000009+I20000000000+0000001290+Z
208662001208662903-000087     208662006001704000161SWT SPECKLED-EGGS 50G  0000001000+00001139+00000+0001T   00001139+0000001106          1400 SK5150               1AZ
208663000208663               208663               170213E1     1400+00000+E10000001402+0000001402+000000000+000000197+0000001590+0000000009+I20000000000+0000001590+Z
208663001208663046-000011     208663004897006172994BATTERIES SIZE:AA  2PCE0000001000+00001402+00000+0001T   00001402+0000001117          1400 SK5312               1AZ
208664000208664               208664               170213E1     1400+00000+E10000006487+0000006487+000000000+000000909+0000007396+0000000000+I40000007396+0000000000+Z
208664001208664051-002401     208664006001023523570TRIGGER-SPRAYER   300ml0000001000+00001490+00000+0001T   00001490+0000001120          1400 SK5820               1AZ
208664002208664200-000205     208664006008766127027BAKEPANS 36PCE (PIE)   0000001000+00003507+00000+0001T   00003507+0000001120          1400 SK5214               1AZ
208664003208664071-005214     208664006003000152544CELLOTAPE SUPER REFILL 0000001000+00001490+00000+0001T   00001490+0000001120          1400 SK5130               1AZ
208665000208665               208665               170213E1     1400+00000+E10000004385+0000004385+000000000+000000614+0000004990+0000000009+I20000000000+0000004990+Z
208665001208665039-000794     208665006946859289958CANDLE T/LITE 3PC LED  0000001000+00004385+00000+0001T   00004385+0000001120          1400 SK5510               1AZ
208666000208666               208666               170213E1     1400+00000+E10000001753+0000001753+000000000+000000246+0000001990+0000000009+I20000000000+0000001990+Z
208666001208666084-009407     208666006001023861726SCISSORS 13cm MTL PL-H 0000001000+00001753+00000+0001T   00001753+0000001120          1400 SK5200               1AZ
208667000208667               208667               170213E1     1400+00000+E10000003241+0000003241+000000000+000000455+0000003690+0000000006+I20000000000+0000003690+Z
208667001208667903-000482     208667006001704001397SWT SOFT-MINTS 60G     0000001000+00000876+00000+0001T   00000876+0000001126          1400 SK5150               1AZ
208667002208667903-000844     208667005010478432567SWT CANDY DL LUV HEARTS0000001000+00001314+00000+0001T   00001314+0000001126          1400 SK5150               1AZ
208667003208667079-009702-C   208667008427973059309PAPER SIRIO A2 VIOLET  0000001000+00001051+00000+0001T   00001051+0000001126          1400 SK5130               1AZ
208668000208668               208668               170213E1     1400+00000+E10000003677+0000003677+000000000+000000516+0000004190+0000000003+I20000000000+0000004190+Z
208668001208668903-000155     208668006009803374435SWT LOLLY I LUV U HEART0000002000+00000525+00000+0001T   00000525+0000001144          1400 SK5150               1AZ
208668002208668018-000177     208668006001023797513MUG MINI LOVE ASSTD    0000002000+00000700+00000+0001T   00000700+0000001144          1400 SK5515               1AZ
208668003208668077-000322     208668006001023677532GIFT-BAG 18X23CM E/D FL0000001000+00001227+00000+0001T   00001227+0000001144          1400 SK5112               1AZ
208669000208669               208669               170213E1     1400+00000+E10000004822+0000004822+000000000+000000676+0000005498+0000000000+I40000005498+0000000000+Z
208669001208669206-000120     208669006003000628308PEELER CARROT SHARPENER0000001000+00001753+00000+0001T   00001753+0000001149          1400 SK5321               1AZ
208669002208669072-020315     208669006003000623891PET TOY PUPPY RING 3in10000001000+00003069+00000+0001T   00003069+0000001149          1400 SK5870               1AZ
208670000208670               208670               170213E1     1400+00000+E10000001578+0000001578+000000000+000000221+0000001790+0000000009+I20000000000+0000001790+Z
208670001208670467-000001     208670006002923008280BEACH BUCKET PL 17x16cm0000001000+00001578+00000+0001T   00001578+0000001151          1400 SK5785               1AZ
208671000208671               208671               170213E1     1400+00000+E10000007892+0000007892+000000000+000001106+0000008990+0000000008+I20000000000+0000008990+Z
208671001208671080-000109     208671006003000237203CARD&ENVLPE BDAY-BRIGHT0000001000+00001753+00000+0001T   00001753+0000001154          1400 SK5112               1AZ
208671002208671567-075470     208671006003000643264BK NOVEL CATEGORY B    0000001000+00006139+00000+0001T   00006139+0000001154          1400 SK5757               1AZ
208672000208672               208672               170213E1     1400+00000+E10000005260+0000005260+000000000+000000737+0000005990+0000000007+I20000000000+0000005990+Z
208672001208672142-000814     208672006001023183910GLOVES RUBBER  MEDIUM  0000001000+00001753+00000+0001T   00001753+0000001159          1400 SK5810               1AZ
208672002208672007-000324     20867200600968585864125 SHEETS BRIGHTS MARLI0000001000+00003507+00000+0001T   00003507+0000001159          1400 SK5130               1AZ
208673000208673               208673               170213E1     1400+00000+E10000007661+0000007661+000000000+000001075+0000008730+0000000006+I20000000000+0000008730+Z
208673001208673903-000709     208673006002099007070SWT QUENCHERS FRUIT    0000001000+00001139+00000+0001T   00001139+0000001202          1400 SK5150               1AZ
208673002208673903-000517     208673006001704012768SWT STRAWS FIZZY CHERRY0000001000+00001227+00000+0001T   00001227+0000001202          1400 SK5150               1AZ
208673003208673019-071600     208673006001023771971RIVER-STONES 1kg MIXED 0000001000+00002630+00000+0001T   00002630+0000001202          1400 SK5510               1AZ
208673004208673019-071603     208673006001023772039RIVER-STONES 1kg PEACH 0000001000+00002630+00000+0001T   00002630+0000001202          1400 SK5510               1AZ
208673005208673112-116038     208673006009681820246TCS CARRIER BAG MIDI   0000001000+00000035+00000+0001T   00000035+0000001202          1400 SK5090               1AZ
208674000208674               208674               170213E1     1400+00000+E10000006139+0000006139+000000000+000000860+0000006990+0000000009+I20000000000+0000006990+Z
208674001208674007-000323     208674006009697791042PAPER A4 80GSM 100'S   0000001000+00006139+00000+0001T   00006139+0000001203          1400 SK5130               1AZ
208675000208675               208675               170213E1     1400+00000+E10000001314+0000001314+000000000+000000184+0000001490+0000000008+I20000000000+0000001490+Z
208675001208675046-000012     208675006904708013062BATTERIES AA  CARD-OF-40000001000+00001314+00000+0001T   00001314+0000001205          1400 SK5312               1AZ
208676000208676               208676               170213E1     1400+00000+E10000007893+0000007893+000000000+000001106+0000008999+0000000000+I40000008999+0000000000+Z
208676001208676301-085007     208676006003000673698ORN OCC. LOVE S/PLAQUE 0000001000+00007893+00000+0001T   00007893+0000001208          1400 SK5505               1AZ
208677000208677               208677               170213E1     1400+00000+E10000006172+0000006172+000000000+000000865+0000007037+0000000000+I40000007037+0000000000+Z
208677001208677031-000878-A   208677006001023798985P/FRAME 10x15cm PL-SLID0000002000+00000876+00000+0001T   00000876+0000001209          1400 SK5510               1AZ
208677002208677031-080508     208677006001023802415P/FRAME PL 22X11CM LOVE0000001000+00004385+00000+0001T   00004385+0000001209          1400 SK5510               1AZ
208677003208677112-116038     208677006009681820246TCS CARRIER BAG MIDI   0000001000+00000035+00000+0001T   00000035+0000001209          1400 SK5090               1AZ
208678000208678               208678               170213E1     1400+00000+E10000003067+0000003067+000000000+000000430+0000003490+0000000007+I20000000000+0000003490+Z
208678001208678077-000470     208678006003000330171G-BAG DESGN SML 11X14CM0000001000+00001314+00000+0001T   00001314+0000001210          1400 SK5112               1AZ
208678002208678077-000351     208678006003000139033GIFT-BAG 18X23CM E/D P 0000001000+00001753+00000+0001T   00001753+0000001210          1400 SK5112               1AZ
208679000208679               208679               170213E1     1400+00000+E10000003244+0000003244+000000000+000000455+0000003690+0000000009+I20000000000+0000003690+Z
208679001208679046-000400     208679006001023804983BATT ALKALINE 1.5Vx30PC0000001000+00003244+00000+0001T   00003244+0000001217          1400 SK5312               1AZ
208680000208680               208680               170213E1     1400+00000+E10000012278+0000012278+000000000+000001720+0000013990+0000000008+I20000000000+0000013990+Z
208680001208680301-085007     208680006003000673698ORN OCC. LOVE S/PLAQUE 0000001000+00007893+00000+0001T   00007893+0000001236          1400 SK5505               1AZ
208680002208680031-080508     208680006001023802415P/FRAME PL 22X11CM LOVE0000001000+00004385+00000+0001T   00004385+0000001236          1400 SK5510               1AZ
208681000208681               208681               170213E1     1400+00000+E10000003946+0000003946+000000000+000000553+0000004490+0000000009+I20000000000+0000004490+Z
208681001208681006-000851     208681006007151000273PARTY LUCKY-PACKET BOY 0000001000+00003946+00000+0001T   00003946+0000001237          1400 SK5131               1AZ
208682000208682               208682               170213E1     1400+00000+E10000005262+0000005262+000000000+000000737+0000005999+0000000000+I40000005999+0000000000+Z
208682001208682030-001122     208682006003000253487PLAQUE-WALL W/SAYING   0000001000+00005262+00000+0001T   00007016+0008121241          1400 SK5505               1AZ
208683000208683               208683               170213E1     1400+00000+E10000007051+0000007051+000000000+000000988+0000008030+0000000009+I20000000000+0000008030+Z
208683001208683368-000156     208683006003000167241PLUSH BUG 20cm ASST-COL0000001000+00007016+00000+0001T   00007016+0000001243          1400 SK5745               1AZ
208683002208683112-116038     208683006009681820246TCS CARRIER BAG MIDI   0000001000+00000035+00000+0001T   00000035+0000001243          1400 SK5090               1AZ
208684000208684               208684               170213E1     1400+00000+E10000001928+0000001928+000000000+000000270+0000002198+0000000000+I40000002198+0000000000+Z
208684001208684174-008024     208684006009654960368TRAVEL BOTTLES 2-PACK  0000001000+00001928+00000+0001T   00001928+0000001300          1400 SK5205               1AZ
208685000208685               208685               170213E1     1400+00000+E10000002630+0000002630+000000000+000000369+0000002999+0000000000+I40000002999+0000000000+Z
208685001208685006-000323-D   208685006003000126248CONFETTI H/BIRTHDAY 3PK0000001000+00002630+00000+0001T   00002630+0000001415          1400 SK5131               1AZ
208686000208686               208686               170213E1     1400+00000+E10000001578+0000001578+000000000+000000221+0000001790+0000000009+I20000000000+0000001790+Z
208686001208686080-000124     208686006003000297733CARD & ENV VALENTINES  0000001000+00001578+00000+0001T   00001578+0000001417          1400 SK5112               1AZ
208687000208687               208687               170213E1     1400+00000+E10000003507+0000003507+000000000+000000491+0000003990+0000000008+I20000000000+0000003990+Z
208687001208687077-000934     208687006003000409921G/WRAP 700mmx5m BIRTHDA0000001000+00003507+00000+0001T   00003507+0000001426          1400 SK51123IC            1AZ
208688000208688               208688               170213E1     1400+00000+E10000012133+0000012133+000000000+000001701+0000013830+0000000004+I20000000000+0000013830+Z
208688001208688048-000859     208688006003000423422TORCH 9 LED PL 3XAAA   0000001000+00001753+00000+0001T   00001753+0000001428          1400 SK5305               1AZ
208688002208688046-000010-A   208688006003000438778BATTERIES SIZE:AAA 4PCE0000001000+00002367+00000+0001T   00002367+0000001428          1400 SK5312               1AZ
208688003208688018-000127     208688006001023380289MUG OCC STRAIGHT LOVE  0000002000+00001578+00000+0001T   00001753+0006471428          1400 SK5515               1AZ
208688004208688084-009417     208688006001023783493SCISSORS 21+14cm 2PCE  0000001000+00003069+00000+0001T   00003069+0000001428          1400 SK5200               1AZ
208688005208688036-000610     208688006001023627230WASHING-PEGS PL PACK-240000001000+00001753+00000+0001T   00001753+0000001428          1400 SK5212               1AZ
208688006208688112-116038     208688006009681820246TCS CARRIER BAG MIDI   0000001000+00000035+00000+0001T   00000035+0000001428          1400 SK5090               1AZ
208689000208689               208689               170213E1     1400+00000+E10000004421+0000004421+000000000+000000622+0000005040+0000000003+I20000000000+0000005040+Z
208689001208689903-000077     208689006939873501687SWT GS MAGIC ROCK FRUIT0000001000+00000525+00000+0001T   00000525+0000001431          1400 SK5150               1AZ
208689002208689903-000123     208689006925925909280SWEET GS MINI MALLOWS  0000001000+00000876+00000+0001T   00000876+0000001431          1400 SK5150               1AZ
208689003208689903-000861     208689005010478430822SWT LOVE HEARTS SML    0000002000+00000876+00000+0001T   00000876+0000001431          1400 SK5150               1AZ
208689004208689083-000055     208689006003000003853LIGHTER ELCTRNC REFILBL0000001000+00000613+00000+0001T   00000613+0000001431          1400 SK5315               1AZ
208689005208689903-000670     208689006009803358008SWT SHERBET RED LIPS   0000001000+00000218+00000+0001T   00000218+0000001431          1400 SK5150               1AZ
208689006208689903-000094     208689006923431501622SWT GS CANDY NECKLACE  0000001000+00000437+00000+0001T   00000437+0000001431          1400 SK5150               1AZ
208690000208690               208690               170213E1     1400+00000+E10000008802+0000008802+000000000+000001233+0000010035+0000000000+I40000010035+0000000000+Z
208690001208690031-000868-A   208690006001023798534P/FRAME PL BLCK 10X15CM0000002000+00002192+00000+0001T   00002192+0000001441          1400 SK5510               1AZ
208690002208690031-000864-A   208690006001023798350P/FRAME MAHOGANY 10X15 0000001000+00003069+00000+0001T   00003069+0000001441          1400 SK5510               1AZ
208690003208690077-000310     208690006001023608635GIFT-BAG 18X23CM GLOSS 0000001000+00001314+00000+0001T   00001314+0000001441          1400 SK5112               1AZ
208690004208690112-116038     208690006009681820246TCS CARRIER BAG MIDI   0000001000+00000035+00000+0001T   00000035+0000001441          1400 SK5090               1AZ
208691000208691               208691               170213E1     1400+00000+E10000002664+0000002664+000000000+000000374+0000003030+0000000008+I20000000000+0000003030+Z
208691001208691007-000302     208691006009635830000BOOK H/COVER A4 96-PAGE0000001000+00001139+00000+0001T   00001139+0000001442          1400 SK5130               1AZ
208691002208691071-009836     208691006001023591067BACK-TO-SCHOOL SET     0000001000+00001490+00000+0001T   00001490+0000001442          1400 SK5130               1AZ
208691003208691112-116038     208691006009681820246TCS CARRIER BAG MIDI   0000001000+00000035+00000+0001T   00000035+0000001442          1400 SK5090               1AZ
208692000208692               208692               170213E1     1400+00000+E10000003331+0000003331+000000000+000000467+0000003790+0000000008+I20000000000+0000003790+Z
208692001208692903-000517     208692006001704012768SWT STRAWS FIZZY CHERRY0000001000+00001227+00000+0001T   00001227+0000001506          1400 SK5150               1AZ
208692002208692903-000095     208692006001704011495SWT SPECKLED-EGGS 100G 0000001000+00002104+00000+0001T   00002104+0000001506          1400 SK5150               1AZ
208693000208693               208693               170213E1     1400+00000+E10000005659+0000005659+000000000+000000793+0000006452+0000000000+I40000006452+0000000000+Z
208693001208693566-001226     208693006001023672360STICKERS 3-D POP-UP    0000002000+00000613+00000+0001T   00000613+0000001532          1400 SK5130               1AZ
208693002208693031-005840     208693006001023481412P/FRAME-CLIP 30X40CM   0000001000+00004385+00000+0001T   00004385+0000001532          1400 SK5510               1AZ
208693003208693112-116069     208693006009681820277TCS CARRIER BAG JUMBO  0000001000+00000048+00000+0001T   00000048+0000001532          1400 SK5090               1AZ
208694000208694               208694               170213E1     1400+00000+E10000002192+0000002192+000000000+000000307+0000002499+0000000000+I40000002499+0000000000+Z
208694001208694080-000127     208694006003000424351VALENTINES DAY 36x24CM 0000001000+00002192+00000+0001T   00002192+0000001548          1400 SK5112               1AZ
208695000208695               208695               170213E1     1400+00000+E10000007049+0000007049+000000000+000000987+0000008036+0000000000+I40000008036+0000000000+Z
208695001208695018-005009     208695006001023725608MUG W/PLUSH-BEAR LOVE  0000001000+00003507+00000+0001T   00003507+0000001606          1400 SK5515               1AZ
208695002208695031-005853     208695006003000442416P/FRAME WDN TWIN HEARTS0000001000+00003507+00000+0001T   00003507+0000001606          1400 SK5510               1AZ
208695003208695112-116038     208695006009681820246TCS CARRIER BAG MIDI   0000001000+00000035+00000+0001T   00000035+0000001606          1400 SK5090               1AZ
208696000208696               208696               170213E1     1400+00000+E10000001578+0000001578+000000000+000000221+0000001790+0000000009+I20000000000+0000001790+Z
208696001208696018-000127     208696006001023380289MUG OCC STRAIGHT LOVE  0000001000+00001578+00000+0001T   00001753+0006471619          1400 SK5515               1AZ
208697000208697               208697               170213E1     1400+00000+E10000004385+0000004385+000000000+000000614+0000004990+0000000009+I20000000000+0000004990+Z
208697001208697050-000365-Z   208697006001023475305PADLOCK IRON 50mm CARD 0000001000+00004385+00000+0001T   00004385+0000001621          1400 SK5855               1AZ
208698000208698               208698               170213E1     1400+00000+E10000007012+0000007012+000000000+000000984+0000007996+0000000000+I40000007996+0000000000+Z
208698001208698019-071601     208698006001023771995RIVER-STONES 1kg WHITE 0000001000+00002630+00000+0001T   00002630+0000001622          1400 SK5510               1AZ
208698002208698903-000861     208698005010478430822SWT LOVE HEARTS SML    0000002000+00000876+00000+0001T   00000876+0000001622          1400 SK5150               1AZ
208698003208698206-000620     208698006003000631797BACK SCRATCHER EXTEND  0000001000+00002630+00000+0001T   00002630+0000001622          1400 SK5321               1AZ
208699000208699               208699               170213E1     1400+00000+E10000001314+0000001314+000000000+000000184+0000001490+0000000008+I20000000000+0000001490+Z
208699001208699077-000312     208699006001023608697GIFT-BAG 10X35CM GLOSS 0000001000+00001314+00000+0001T   00001314+0000001623          1400 SK5112               1AZ
208700000208700               208700               170213E1     1400+00000+E10000016711+0000016711+000000000+000002341+0000019050+0000000002+I20000000000+0000019050+Z
208700001208700266-000509     208700006003000109821BOYS PLAYSET TRANSFORM 0000001000+00007016+00000+0001T   00007016+0000001630          1400 SK5710               1AZ
208700002208700007-000547     208700006001023847966N/BOOK/DIARY+PEN ASSTD 0000001000+00004385+00000+0001T   00004385+0000001630          1400 SK5130               1AZ
208700003208700264-000918     208700000090159150268MAISTO MDC ATV         0000001000+00005262+00000+0001T   00005262+0000001630          1400 SK5710               1AZ
208700004208700112-116069     208700006009681820277TCS CARRIER BAG JUMBO  0000001000+00000048+00000+0001T   00000048+0000001630          1400 SK5090               1AZ
208701000208701               208701               170213E1     1400+00000+E10000004823+0000004823+000000000+000000676+0000005490+0000000009+I20000000000+0000005490+Z
208701001208701301-085001     208701006003000297610ORN WATERBALL LOVE ASST0000001000+00004823+00000+0001T   00004823+0000001633          1400 SK5505               1AZ
208702000208702               208702               170213E1     1400+00000+E10000004384+0000004384+000000000+000000614+0000004998+0000000000+I40000004998+0000000000+Z
208702001208702077-000509     208702006003000082582GIFT-BAG SML 6PCE ORG P0000002000+00002192+00000+0001T   00002192+0000001635          1400 SK5112               1AZ
208703000208703               208703               170213E1     1400+00000+E10000004385-0000004385-000000000+000000614-0000005000-0000000001+I20000000000+0000005000-Z
208703001208703050-000365-Z   208703006001023475305PADLOCK IRON 50mm CARD 0000001000-00004385+00000+0001T   00004385+0000001642          1400 SK58553IC            1 Z
208704000208704               208704               170213E1     1400+00000+E10000001314+0000001314+000000000+000000184+0000001490+0000000008+I20000000000+0000001490+Z
208704001208704078-009100     208704006008741002349ALL-CLEAR GLUE 25ml CRD0000001000+00001314+00000+0001T   00001314+0000001700          1400 SK5810               1AZ
208705000208705               208705               170213E1     1400+00000+E10000007013+0000007013+000000000+000000982+0000007990+0000000005+I20000000000+0000007990+Z
208705001208705903-000194     208705006009826020616SWT CHOC RP LOLLY 25G  0000002000+00001314+00000+0001T   00001314+0000001731          1400 SK5150               1AZ
208705002208705368-000049     208705006003000536955PLUSH BEAR 15cm LOVE   0000001000+00004385+00000+0001T   00004385+0000001731          1400 SK5745               1AZ
208706000208706               208706               170213E1     1400+00000+E10000005260+0000005260+000000000+000000738+0000005990+0000000008+I20000000000+0000005990+Z
208706001208706006-006018     208706006001023735256PARTY-SPRAY HAIR ASSORT0000001000+00002630+00000+0001T   00002630+0000001732          1400 SK5131               1AZ
208706002208706006-006018-B   208706006003000008278PARTY-SPRAY HAIR NEON  0000001000+00002630+00000+0001T   00002630+0000001732          1400 SK5131               1AZ
208707000208707               208707               170213E1     1400+00000+E10000004909+0000004909+000000000+000000688+0000005590+0000000007+I20000000000+0000005590+Z
208707001208707304-001204     208707006001023737984FLOWER OCC. TEDDY/ROSES0000001000+00001402+00000+0001T   00001490+0006471733          1400 SK5510               1AZ
208707002208707031-000923     208707006001023669933P/FRAME BLK W/WORDS    0000001000+00003507+00000+0001T   00003507+0000001733          1400 SK5510               1AZ
208708000208708               208708               170213E1     1400+00000+E10000000699-0000000000+000000000+000000000+0000000700-0000000001+I20000000000+0000000700-Z
208708001208708001-999909     208708000000000999909STAFF-REFRESHMENTS     0000001000-00000699+00000+0001X   00000000+0000001736          0000 SK59093IC            1 Z
A17021300                                          09575709E1SLAVE 1                       SK52IC
A17021301                                          09584801E1SLAVE 1                       SK52IC
B20868700                                          170213E1077-000934     14261745SLAVE 1     SK53IC0000002000+0000001000+0000000000000+
M17021391                              CASH        E1SLAVE 1                       Z-REPORT No.   641TOTAL (Sales - Refunds)           3644.19       CASH TO BE BANKED                 2216.80       DEBIT CARDS                          0.00       CREDIT CARDS                      1420.39       Z-READING                         3637.19       AIRTIME DEBIT CARD SALES             0.00       AIRTIME CARD SALES                   0.00       OVERS/UNDERS                         0.00       AIRTIME CASH SALES                   0.00       GIFT CARDS                           0.00       GIFT CARD CASH SALES                 0.00       STAFF-REFRESHMENTS                   6.99       ROUNDING                             0.01       T O T A L  CASH PAYOUTS              7.00                                                                                                                                                                                                                                                      Z
M17021392                              CASH        E1ABSENT                                                                                                                                                                                          ANNUAL LEAVE                                                                                                                                                                                    DAY OFF                                                                                                                                                                                         COMMENTS                                                                                                                                                                                                                                                                                                                                                                                       Z
Y17021300                                          E100000000324282+000063
ZE117021319313 SLAVE 1      SALES DATA                     NEXT INVOICE NO.  208709 0642
X E1 Slave 1 First invoice 208644 170213 Last invoice 208708 170213 Next invoice 208709 Total number of records 000000214 clbackup completed 19:31:58
