418087000418087               418087               170213EB     1400+00000+EB0000001753+0000001753+000000000+000000246+0000001990+0000000009+I20000000000+0000001990+Z
418087001418087007-000094     418087006003000659289ENVELOPES WHT 5PK C4   0000001000+00001753+00000+0001T   00001753+0000001123          1400 A84130               1AZ
418088000418088               418088               170213EB     1400+00000+EB0000000700+0000000700+000000000+000000098+0000000790+0000000008+I20000000000+0000000790+Z
418088001418088564-000012     418088006001023130075BUBBLE BOTTLE MAGIC    0000001000+00000700+00000+0001T   00000700+0000001229          1400 A84131               1AZ
418089000418089               418089               170213EB     1400+00000+EB0000010655+0000010655+000000000+000001493+0000012148+0000000000+I40000012148+0000000000+Z
418089001418089039-000799     418089006001023692382CANDLES TEALITE 100PCE 0000001000+00008771+00000+0001T   00008771+0000001252          1400 A84510               1AZ
418089002418089079-009700-D   418089006003000545711PAPER SIRIO A4 RED COL.0000006000+00000306+00000+0001T   00000306+0000001252          1400 A84130               1AZ
418089003418089112-116069     418089006009681820277TCS CARRIER BAG JUMBO  0000001000+00000048+00000+0001T   00000048+0000001252          1400 A84090               1AZ
418090000418090               418090               170213EB     1400+00000+EB0000012326+0000012326+000000000+000001727+0000014050+0000000003+I20000000000+0000014050+Z
418090001418090079-000590     418090006003000543236SKETCH PAD & PAINT SET 0000001000+00007016+00000+0001T   00007016+0000001254          1400 A84130               1AZ
418090002418090079-001007     418090006003000682454PAINT CANVAS ROUND/OVAL0000001000+00005262+00000+0001T   00005262+0000001254          1400 A84130               1AZ
418090003418090112-116069     418090006009681820277TCS CARRIER BAG JUMBO  0000001000+00000048+00000+0001T   00000048+0000001254          1400 A84090               1AZ
418091000418091               418091               170213EB     1400+00000+EB0000001490+0000001490+000000000+000000209+0000001690+0000000009+I20000000000+0000001690+Z
418091001418091565-004101     418091006003000548033BALL BOUNCING EGG      0000001000+00001490+00000+0001T   00001490+0000001254          1400 A84745               1AZ
418092000418092               418092               170213EB     1400+00000+EB0000013155+0000013155+000000000+000001843+0000014990+0000000008+I20000000000+0000014990+Z
418092001418092003-009130     418092006003000673445ORN WELCOME STONE OVAL 0000001000+00005262+00000+0001T   00005262+0000001255          1400 A84505               1AZ
418092002418092059-011604     418092006001023384065LANTERN 28cm ASSTD-CLRS0000001000+00007893+00000+0001T   00007893+0000001255          1400 A84305               1AZ
418093000418093               418093               170213EB     1400+00000+EB0000007277+0000007277+000000000+000001021+0000008298+0000000000+I40000008298+0000000000+Z
418093001418093007-000602     418093006003000541270BOOK COVER 2M SOLID COL0000001000+00002630+00000+0001T   00002630+0000001409          1400 A84130               1AZ
418093002418093079-009700-D   418093006003000545711PAPER SIRIO A4 RED COL.0000005000+00000306+00000+0001T   00000306+0000001409          1400 A84130               1AZ
418093003418093038-001805     418093006003000466405DOILIES PAPER 60PC 3ASS0000001000+00003069+00000+0001T   00003069+0000001409          1400 A84300               1AZ
418093004418093112-116069     418093006009681820277TCS CARRIER BAG JUMBO  0000001000+00000048+00000+0001T   00000048+0000001409          1400 A84090               1AZ
418094000418094               418094               170213EB     1400+00000+EB0000013545+0000013545+000000000+000001900+0000015445+0000000000+I40000015445+0000000000+Z
418094001418094018-005009     418094006001023725608MUG W/PLUSH-BEAR LOVE  0000002000+00003507+00000+0001T   00003507+0000001412          1400 A84515               1AZ
418094002418094018-000127     418094006001023380289MUG OCC STRAIGHT LOVE  0000002000+00001578+00000+0001T   00001753+0006471412          1400 A84515               1AZ
418094003418094142-000814     418094006001023183910GLOVES RUBBER  MEDIUM  0000001000+00001753+00000+0001T   00001753+0000001412          1400 A84810               1AZ
418094004418094903-000183     418094006003000451043SWT LB HEART LOLLY     0000002000+00000393+00000+0001T   00000393+0000001412          1400 A84150               1AZ
418094005418094077-000010-C   418094006001023123879CREPE-PAPER RED        0000001000+00000788+00000+0001T   00000788+0000001412          1400 A84112               1AZ
418094006418094112-116069     418094006009681820277TCS CARRIER BAG JUMBO  0000001000+00000048+00000+0001T   00000048+0000001412          1400 A84090               1AZ
418095000418095               418095               170213EB     1400+00000+EB0000006186+0000006186+000000000+000000867+0000007053+0000000000+I40000007053+0000000000+Z
418095001418095077-000151     418095006008766114676GIFT-WRAP C/PHANE ASSTD0000001000+00000876+00000+0001T   00000876+0000001415          1400 A84112               1AZ
418095002418095103-000083     418095006003000638062BAMBOO BASKET 27x20x8cm0000001000+00005262+00000+0001T   00005262+0000001415          1400 A84300               1AZ
418095003418095112-116069     418095006009681820277TCS CARRIER BAG JUMBO  0000001000+00000048+00000+0001T   00000048+0000001415          1400 A84090               1AZ
418096000418096               418096               170213EB     1400+00000+EB0000003555+0000003555+000000000+000000498+0000004050+0000000003+I20000000000+0000004050+Z
418096001418096567-011344     418096006003000630714BK COLOURING THERAPY 640000001000+00003507+00000+0001T   00003507+0000001525          1400 A84757               1AZ
418096002418096112-116069     418096006009681820277TCS CARRIER BAG JUMBO  0000001000+00000048+00000+0001T   00000048+0000001525          1400 A84090               1AZ
418097000418097               418097               170213EB     1400+00000+EB0000004905+0000004905+000000000+000000690+0000005590+0000000005+I20000000000+0000005590+Z
418097001418097903-003075     418097003800065783125SWT CHOC FAFL WAFER 52g0000002000+00000876+00000+0001T   00000876+0000001553          1400 A84150               1AZ
418097002418097079-009702-B   418097008427973059491PAPER SIRIO A2 WHITE   0000003000+00001051+00000+0001T   00001051+0000001553          1400 A84130               1AZ
418098000418098               418098               170213EB     1400+00000+EB0000004822+0000004822+000000000+000000676+0000005498+0000000000+I40000005498+0000000000+Z
418098001418098566-000308     418098006003000522521STICKER TAPE 3PCS      0000001000+00002630+00000+0001T   00002630+0000001555          1400 A84130               1AZ
418098002418098566-000352     418098006001023809261STICKERS LASER ASSTD   0000001000+00002192+00000+0001T   00002192+0000001555          1400 A84130               1AZ
418099000418099               418099               170213EB     1400+00000+EB0000002189+0000002189+000000000+000000308+0000002490+0000000007+I20000000000+0000002490+Z
418099001418099566-000200     418099006003000384174STICKER PUFFY NEON     0000001000+00000876+00000+0001T   00000876+0000001702          1400 A84130               1AZ
418099002418099566-000848     418099006001023760791STICKERS G/OUTLINE BOY 0000001000+00000525+00000+0001T   00000525+0000001702          1400 A84130               1AZ
418099003418099566-000858     418099006001023760975STCKRS G/OUTLINE ASSTD 0000001000+00000788+00000+0001T   00000788+0000001702          1400 A84130               1AZ
418100000418100               418100               170213EB     1400+00000+EB0000009243+0000009243+000000000+000001297+0000010540+0000000000+I20000000000+0000010540+Z
418100001418100304-001011     418100006001023806727FLWR ROSE RED W/BEAR   0000015000+00000613+00000+0001T   00000788+0006471704          1400 A84510               1AZ
418100002418100112-116069     418100006009681820277TCS CARRIER BAG JUMBO  0000001000+00000048+00000+0001T   00000048+0000001704          1400 A84090               1AZ
418101000418101               418101               170213EB     1400+00000+EB0000008310+0000008310+000000000+000001170+0000009480+0000000000+I40000009480+0000000000+Z
418101001418101006-000171-K   418101006003000609697BALLOONS 1PC PURPLE PRN0000004000+00000218+00000+0001T   00000218+0000001707          1400 A84131               1AZ
418101002418101006-000171-A   418101006003000608935BALLOONS 1PC PINK PRNT 0000005000+00000218+00000+0001T   00000218+0000001707          1400 A84131               1AZ
418101003418101006-001000     418101006003000093779HELIUM BALLOON FILL    0000009000+00000613+00000+0001T   00000613+0000001707          1400 A84131               1AZ
418101004418101006-000171-K   418101006003000609697BALLOONS 1PC PURPLE PRN0000001000+00000218+00000+0001T   00000218+0000001707          1400 A84131               1AZ
418101005418101006-001000     418101006003000093779HELIUM BALLOON FILL    0000001000+00000613+00000+0001T   00000613+0000001707          1400 A84131               1AZ
418102000418102               418102               170213EB     1400+00000+EB0000019337+0000019337+000000000+000002709+0000022040+0000000006+I20000000000+0000022040+Z
418102001418102018-050000     418102006003000412679MUG OCC LOVE TWIN BEAR 0000001000+00006139+00000+0001T   00006139+0000001708          1400 A84515               1AZ
418102002418102018-000130     418102006001023867537MUG OCC LOVE MINI+HEART0000001000+00003507+00000+0001T   00003507+0000001708          1400 A84515               1AZ
418102003418102018-005009     418102006001023725608MUG W/PLUSH-BEAR LOVE  0000001000+00003507+00000+0001T   00003507+0000001708          1400 A84515               1AZ
418102004418102077-000452     418102006003000284986G/BAG METALLIC MED EMB 0000002000+00001490+00000+0001T   00001490+0000001708          1400 A84112               1AZ
418102005418102077-000303     418102006001023593757GIFT-BAG PAPER MED     0000002000+00001578+00000+0001T   00001578+0000001708          1400 A84112               1AZ
418102006418102112-116069     418102006009681820277TCS CARRIER BAG JUMBO  0000001000+00000048+00000+0001T   00000048+0000001708          1400 A84090               1AZ
418103000418103               418103               170213EB     1400+00000+EB0000003506+0000003506+000000000+000000492+0000003990+0000000008+I20000000000+0000003990+Z
418103001418103036-000063     418103006009654960436COATHANGERS VIRGIN 5PCE0000002000+00001753+00000+0001T   00001753+0000001709          1400 A84212               1AZ
418104000418104               418104               170213EB     1400+00000+EB0000003058+0000003058+000000000+000000430+0000003480+0000000008+I20000000000+0000003480+Z
418104001418104051-006100     418104006003000267170GARDEN KID TOOLSET 3PCE0000001000+00002630+00000+0001T   00002630+0000001713          1400 A84820               1AZ
418104002418104903-000183     418104006003000451043SWT LB HEART LOLLY     0000001000+00000393+00000+0001T   00000393+0000001713          1400 A84150               1AZ
418104003418104112-116038     418104006009681820246TCS CARRIER BAG MIDI   0000001000+00000035+00000+0001T   00000035+0000001713          1400 A84090               1AZ
418105000418105               418105               170213EB     1400+00000+EB0000004383+0000004383+000000000+000000614+0000004990+0000000007+I20000000000+0000004990+Z
418105001418105306-000021-A   418105006001023891358EARBUDS COTTON 100PCE  0000001000+00000876+00000+0001T   00000876+0000001719          1400 A84200               1AZ
418105002418105031-000002     418105006001023851338FRAME FRIENDS 7.5x7.5cm0000001000+00003507+00000+0001T   00003507+0000001719          1400 A84510               1AZ
418106000418106               418106               170213EB     1400+00000+EB0000002630+0000002630+000000000+000000369+0000002999+0000000000+I10000001999+0000001000+Z
418106001418106466-000584     418106006001023628787SKIPPING-ROPE          0000001000+00002630+00000+0001T   00002630+0000001723          1400 A84785               1AZ
418107000418107               418107               170213EB     1400+00000+EB0000007499+0000007499+000000000+000001052+0000008550+0000000001+I20000000000+0000008550+Z
418107001418107077-000011-F   418107006001023808431TISSUE-WRAP BLUE/LILAC 0000001000+00000876+00000+0001T   00000876+0000001729          1400 A84112               1AZ
418107002418107077-000150-D   418107006003000054343GIFT-WRAP CELLPHANE CLR0000001000+00000876+00000+0001T   00000876+0000001729          1400 A84112               1AZ
418107003418107077-000239     418107006003000160419GIFT-RIBBON ROLL PEARL 0000001000+00001753+00000+0001T   00001753+0000001729          1400 A84112               1AZ
418107004418107103-000473     418107006003000631087BAMBOO FLOWER BASKET   0000001000+00003946+00000+0001T   00003946+0000001729          1400 A84300               1AZ
418107005418107112-116069     418107006009681820277TCS CARRIER BAG JUMBO  0000001000+00000048+00000+0001T   00000048+0000001729          1400 A84090               1AZ
418108000418108               418108               170213EB     1400+00000+EB0000007762+0000007762+000000000+000001089+0000008850+0000000001+I20000000000+0000008850+Z
418108001418108077-000303     418108006001023593757GIFT-BAG PAPER MED     0000001000+00001578+00000+0001T   00001578+0000001730          1400 A84112               1AZ
418108002418108018-000129     418108006001023403353MUG OCC. LOVE V-SHAPE  0000002000+00002630+00000+0001T   00002630+0000001730          1400 A84515               1AZ
418108003418108077-000011-D   418108006001023808554TISSUE-WRAP WHITE 10PCE0000001000+00000876+00000+0001T   00000876+0000001730          1400 A84112               1AZ
418108004418108112-116069     418108006009681820277TCS CARRIER BAG JUMBO  0000001000+00000048+00000+0001T   00000048+0000001730          1400 A84090               1AZ
418109000418109               418109               170213EB     1400+00000+EB0000000876+0000000876+000000000+000000123+0000000990+0000000009+I20000000000+0000000990+Z
418109001418109903-000520     418109006001704009898SWT GUMMY MINI SOUR 60g0000001000+00000876+00000+0001T   00000876+0000001731          1400 A84150               1AZ
418110000418110               418110               170213EB     1400+00000+EB0000003945+0000003945+000000000+000000553+0000004490+0000000008+I20000000000+0000004490+Z
418110001418110033-000782     418110006001023905482COSMETIC SPONGES 12PC  0000001000+00002192+00000+0001T   00002192+0000001732          1400 A84200               1AZ
418110002418110007-000043     418110006009635831496DISPLAY-BOOK PL A4 20PG0000001000+00001753+00000+0001T   00001753+0000001732          1400 A84130               1AZ
418111000418111               418111               170213EB     1400+00000+EB0000007014+0000007014+000000000+000000983+0000007990+0000000007+I20000000000+0000007990+Z
418111001418111566-000031     418111006003000283910STICKER BK TEACHER STIC0000001000+00002192+00000+0001T   00002192+0000001732          1400 A84130               1AZ
418111002418111030-083576     418111006003000431236PLAQUE WDN GARDEN 12X8 0000001000+00002192+00000+0001T   00002192+0000001732          1400 A84505               1AZ
418111003418111174-000025     418111006008766071603SUIT-BAG PL ZIPPERED   0000001000+00002630+00000+0001T   00002630+0000001732          1400 A84205               1AZ
418112000418112               418112               170213EB     1400+00000+EB0000011838+0000011838+000000000+000001659+0000013497+0000000000+I40000013497+0000000000+Z
418112001418112077-000270     418112006003000395453GIFT-BAG PPR JMB 33X45 0000001000+00002630+00000+0001T   00002630+0000001734          1400 A84112               1AZ
418112002418112040-000200     418112006003000381586C/HLDER CERC INSP. ASST0000001000+00003069+00000+0001T   00003069+0000001734          1400 A84510               1AZ
418112003418112018-005007     418112006003000515516MUG OCC. LOVE W/HEARTS 0000001000+00006139+00000+0001T   00006139+0000001734          1400 A84515               1AZ
418113000418113               418113               170213EB     1400+00000+EB0000001753+0000001753+000000000+000000246+0000001990+0000000009+I20000000000+0000001990+Z
418113001418113046-002032-PK2 418113004897006175063BATTERIES CR-2032  2PCE0000001000+00001753+00000+0001T   00001753+0000001734          1400 A84312               1AZ
A17021300                                          09525071EBSLAVE 1                       A843IC
M17021301                              I:T         EBATT I:T                                                                                         THE LAST TILL SLIP NUMBER USE:418113                                                            EB                                                                                              THANK YOU
M17021391                              CASH        EBSLAVE 1                       Z-REPORT No.   532TOTAL (Sales - Refunds)           1979.58       CASH TO BE BANKED                 1245.40       DEBIT CARDS                          0.00       CREDIT CARDS                       734.18       Z-READING                         1979.58       AIRTIME DEBIT CARD SALES             0.00       AIRTIME CARD SALES                   0.00       OVERS/UNDERS                         0.00       AIRTIME CASH SALES                   0.00       GIFT CARDS                           0.00       GIFT CARD CASH SALES                 0.00       T O T A L  CASH PAYOUTS              0.00                                                                                                                                                                                                                                                                                                                                                      Z
M17021392                              CASH        EBABSENT                                                                                                                                                                                          ANNUAL LEAVE                                                                                                                                                                                    DAY OFF                                                                                                                                                                                         COMMENTS                                                                                                                                                                                                                                                                                                                                                                                       Z
Y17021300                                          EB00000000173712+000027
ZEB17021319323 SLAVE 1      SALES DATA                     NEXT INVOICE NO.  418114 0532
X EB Slave 1 First invoice 418087 170213 Last invoice 418113 170213 Next invoice 418114 Total number of records 000000105 clbackup completed 19:32:29
