438038000438038               438038               170213EB     1400+00000+EB0000000000+0000000000+000000000+000000000+0000000000+0000000000+ 00000000000+0000000000+Z
438039000438039               438039               170213EB     1400+00000+EB0000002455+0000002455+000000000+000000344+0000002790+0000000009+I20000000000+0000002790+Z
438039001438039079-000802     438039006001023528902ART+CRAFT STICKS 100PCE0000001000+00002455+00000+0001T   00002455+0000000907          1400 NH5130               3AZ
438040000438040               438040               170213EB     1400+00000+EB0000007540+0000007540+000000000+000001057+0000008590+0000000007+I20000000000+0000008590+Z
438040001438040019-000020     438040006003000673612VASE GLS 22CM BAUBLE   0000001000+00005262+00000+0001T   00005262+0000000912          1400 NH5510               3AZ
438040002438040304-001141     438040006003000679133FLOWER MINI SUCCULENT  0000002000+00001139+00000+0001T   00001139+0000000912          1400 NH5510               3AZ
438041000438041               438041               170213EB     1400+00000+EB0000001753+0000001753+000000000+000000246+0000001990+0000000009+I20000000000+0000001990+Z
438041001438041071-002907     438041006003000588374PEN BALLPOINT REFILL   0000001000+00001753+00000+0001T   00001753+0000000912          1400 NH5130               3AZ
438042000438042               438042               170213EB     1400+00000+EB0000001490+0000001490+000000000+000000209+0000001690+0000000009+I20000000000+0000001690+Z
438042001438042077-000299     438042006003000395576G/BAG 32x25cm LRG LOVE 0000001000+00001490+00000+0001T   00001490+0000000919          1400 NH5112               3AZ
438043000438043               438043               170213EB     1400+00000+EB0000002678+0000002678+000000000+000000376+0000003050+0000000004+I20000000000+0000003050+Z
438043001438043159-000800     438043006001023167972BATHMAT ANTI-SLIP      0000001000+00002630+00000+0001T   00002630+0000000924          1400 NH5200               3AZ
438043002438043112-116069     438043006009681820277TCS CARRIER BAG JUMBO  0000001000+00000048+00000+0001T   00000048+0000000924          1400 NH5090               3AZ
438044000438044               438044               170213EB     1400+00000+EB0000004384+0000004384+000000000+000000614+0000004990+0000000008+I20000000000+0000004990+Z
438044001438044079-013102     438044006003000019601ART+CRAFT DIY PIPE-CLNR0000002000+00002192+00000+0001T   00002192+0000000924          1400 NH5130               3AZ
438045000438045               438045               170213EB     1400+00000+EB0000005261+0000005261+000000000+000000737+0000005990+0000000008+I20000000000+0000005990+Z
438045001438045103-000781     438045006003000637867BAMBOO BASKET ROUND 23c0000001000+00004385+00000+0001T   00004385+0000000926          1400 NH5300               3AZ
438045002438045903-000482     438045006001704001397SWT SOFT-MINTS 60G     0000001000+00000876+00000+0001T   00000876+0000000926          1400 NH5150               3AZ
438046000438046               438046               170213EB     1400+00000+EB0000006135+0000006135+000000000+000000861+0000006990+0000000006+I20000000000+0000006990+Z
438046001438046306-000021-C   438046006003000567294EARBUDS 300PCE IN TUB  0000001000+00001753+00000+0001T   00001753+0000000928          1400 NH5200               3AZ
438046002438046133-000016     438046006003000240609DUSTERS ORANGE PACK-3  0000001000+00001753+00000+0001T   00001753+0000000928          1400 NH5212               3AZ
438046003438046033-000119     438046006003000285563COMBS PL STYLING 3PC   0000001000+00001753+00000+0001T   00001753+0000000928          1400 NH5200               3AZ
438046004438046089-000192-A   438046006001023901774KEY-CHAIN ACRYLIC      0000001000+00000876+00000+0001T   00000876+0000000928          1400 NH5205               3AZ
438047000438047               438047               170213EB     1400+00000+EB0000004385+0000004385+000000000+000000614+0000004990+0000000009+I20000000000+0000004990+Z
438047001438047075-000002     438047006001023866257BAG SLING LADIES 2-ZIP 0000001000+00004385+00000+0001T   00004385+0000000932          1400 NH5160               3AZ
438048000438048               438048               170213EB     1400+00000+EB0000003507+0000003507+000000000+000000491+0000003990+0000000008+I20000000000+0000003990+Z
438048001438048089-000010     438048006003000106523KEY CHAIN REFLECTOR 2PC0000001000+00003507+00000+0001T   00003507+0000000935          1400 NH5205               3AZ
438049000438049               438049               170213EB     1400+00000+EB0000001753+0000001753+000000000+000000246+0000001990+0000000009+I20000000000+0000001990+Z
438049001438049264-000921     438049000090159150442MAISTO CAR 3" FRESH    0000001000+00001753+00000+0001T   00001753+0000000939          1400 NH5710               3AZ
438050000438050               438050               170213EB     1400+00000+EB0000003541+0000003541+000000000+000000497+0000004030+0000000008+I20000000000+0000004030+Z
438050001438050009-001300     438050006003000135059MELAMINE MUG 250ml     0000002000+00001753+00000+0001T   00001753+0000000944          1400 NH5210               3AZ
438050002438050112-116038     438050006009681820246TCS CARRIER BAG MIDI   0000001000+00000035+00000+0001T   00000035+0000000944          1400 NH5090               3AZ
438051000438051               438051               170213EB     1400+00000+EB0000004385+0000004385+000000000+000000614+0000004990+0000000009+I20000000000+0000004990+Z
438051001438051082-000105     438051006003000360369READING GLS STRNGHT:1.50000001000+00004385+00000+0001T   00004385+0000000945          1400 NH5160               3AZ
438052000438052               438052               170213EB     1400+00000+EB0000013801+0000013801+000000000+000001934+0000015730+0000000005+I20000000000+0000015730+Z
438052001438052304-000720     438052006001023843050F/BUNCH ROSE 6-HEAD AST0000001000+00002630+00000+0001T   00002630+0000000953          1400 NH5510               3AZ
438052002438052304-001011     438052006001023806727FLWR ROSE RED W/BEAR   0000002000+00000613+00000+0001T   00000788+0006470953          1400 NH5510               3AZ
438052003438052903-000087     438052006001704000161SWT SPECKLED-EGGS 50G  0000001000+00001139+00000+0001T   00001139+0000000953          1400 NH5150               3AZ
438052004438052586-010755     438052006001492107554WATCH LDS HOT DEAL ASST0000001000+00008771+00000+0001T   00008771+0000000953          1400 NH5160               3AZ
438052005438052112-116038     438052006009681820246TCS CARRIER BAG MIDI   0000001000+00000035+00000+0001T   00000035+0000000953          1400 NH5090               3AZ
438053000438053               438053               170213EB     1400+00000+EB0000001490+0000001490+000000000+000000209+0000001690+0000000009+I20000000000+0000001690+Z
438053001438053071-081110     438053006936198405454CORRECTION FLUID PEN   0000001000+00001490+00000+0001T   00001490+0000000954          1400 NH5130               3AZ
438054000438054               438054               170213EB     1400+00000+EB0000001753+0000001753+000000000+000000246+0000001990+0000000009+I20000000000+0000001990+Z
438054001438054566-000028     438054006003000265541STICKER BK ASSTD 250PCE0000001000+00001753+00000+0001T   00001753+0000001017          1400 NH5130               3AZ
438055000438055               438055               170213EB     1400+00000+EB0000003419+0000003419+000000000+000000479+0000003890+0000000008+I20000000000+0000003890+Z
438055001438055251-000041     438055006001023515889SEAL-TAPE BUFF 48mmx50m0000001000+00001227+00000+0001T   00001227+0000001017          1400 NH5810               3AZ
438055002438055007-000095     438055006003000530434ENVELOPES WHITE 20PK C60000001000+00002192+00000+0001T   00002192+0000001017          1400 NH5130               3AZ
438056000438056               438056               170213EB     1400+00000+EB0000001578+0000001578+000000000+000000221+0000001790+0000000009+I20000000000+0000001790+Z
438056001438056077-000303     438056006001023593757GIFT-BAG PAPER MED     0000001000+00001578+00000+0001T   00001578+0000001018          1400 NH5112               3AZ
438057000438057               438057               170213EB     1400+00000+EB0000000437+0000000437+000000000+000000062+0000000490+0000000009+I20000000000+0000000490+Z
438057001438057903-000094     438057006923431501622SWT GS CANDY NECKLACE  0000001000+00000437+00000+0001T   00000437+0000001018          1400 NH5150               3AZ
438058000438058               438058               170213EB     1400+00000+EB0000010525+0000010525+000000000+000001474+0000011999+0000000000+I40000011999+0000000000+Z
438058001438058469-006554     438058006003000542123B/BLOCKS STORAGE TRUCK 0000001000+00010525+00000+0001T   00010525+0000001020          1400 NH5755               3AZ
438059000438059               438059               170213EB     1400+00000+EB0000002015+0000002015+000000000+000000283+0000002290+0000000008+I20000000000+0000002290+Z
438059001438059304-001204     438059006001023737984FLOWER OCC. TEDDY/ROSES0000001000+00001402+00000+0001T   00001490+0006471023          1400 NH5510               3AZ
438059002438059304-001011     438059006001023806727FLWR ROSE RED W/BEAR   0000001000+00000613+00000+0001T   00000788+0006471023          1400 NH5510               3AZ
438060000438060               438060               170213EB     1400+00000+EB0000002192+0000002192+000000000+000000307+0000002490+0000000009+I20000000000+0000002490+Z
438060001438060046-000012-A   438060006003000208296BATTERIES H/POWER SZ:AA0000001000+00002192+00000+0001T   00002192+0000001026          1400 NH5312               3AZ
438061000438061               438061               170213EB     1400+00000+EB0000002192+0000002192+000000000+000000307+0000002490+0000000009+I20000000000+0000002490+Z
438061001438061080-000127     438061006003000424351VALENTINES DAY 36x24CM 0000001000+00002192+00000+0001T   00002192+0000001029          1400 NH5112               3AZ
438062000438062               438062               170213EB     1400+00000+EB0000007014+0000007014+000000000+000000982+0000007990+0000000006+I20000000000+0000007990+Z
438062001438062047-000014-A   438062006001023904072ADAPTOR 16AX5ARNDX5A2PN0000002000+00003507+00000+0001T   00003507+0000001039          1400 NH5880               3AZ
438063000438063               438063               170213EB     1400+00000+EB0000002925+0000002925+000000000+000000410+0000003335+0000000000+I40000003335+0000000000+Z
438063001438063903-000121     438063006002099001689SWT GS ZILLIONS SOURS  0000001000+00000700+00000+0001T   00000700+0000001042          1400 NH5150               3AZ
438063002438063200-000062     438063006003000519514STRAWS DRINKING PL 4PC 0000001000+00001490+00000+0001T   00001490+0000001042          1400 NH5214               3AZ
438063003438063903-000120     438063006002099001665SWEET GS ZILLIONS 50g  0000001000+00000700+00000+0001T   00000700+0000001042          1400 NH5150               3AZ
438063004438063112-116038     438063006009681820246TCS CARRIER BAG MIDI   0000001000+00000035+00000+0001T   00000035+0000001042          1400 NH5090               3AZ
438064000438064               438064               170213EB     1400+00000+EB0000008630+0000008630+000000000+000001211+0000009840+0000000001+I20000000000+0000009840+Z
438064001438064304-001011     438064006001023806727FLWR ROSE RED W/BEAR   0000014000+00000613+00000+0001T   00000788+0006471048          1400 NH5510               3AZ
438064002438064112-116069     438064006009681820277TCS CARRIER BAG JUMBO  0000001000+00000048+00000+0001T   00000048+0000001048          1400 NH5090               3AZ
438065000438065               438065               170213EB     1400+00000+EB0000004383+0000004383+000000000+000000615+0000004998+0000000000+I40000004998+0000000000+Z
438065001438065162-093160     438065006001492931609#TAG BLK OR BURGUNDY   0000001000+00001753+00000+0001T   00001753+0000001050          1400 NH5160               3AZ
438065002438065162-093203     438065006001492932033#TAG CHOCOLATE CHAIN   0000001000+00002630+00000+0001T   00006139+0008161050          1400 NH5160               3AZ
438066000438066               438066               170213EB     1400+00000+EB0000002980+0000002980+000000000+000000418+0000003398+0000000000+I40000003398+0000000000+Z
438066001438066089-000141-H   438066006001023416568KEY-CHAINS 6PCE     H&H0000002000+00001490+00000+0001T   00001490+0000001205          1400 NH5205               3AZ
438067000438067               438067               170213EB     1400+00000+EB0000012496+0000012496+000000000+000001751+0000014247+0000000000+I40000014247+0000000000+Z
438067001438067112-116069     438067006009681820277TCS CARRIER BAG JUMBO  0000001000+00000048+00000+0001T   00000048+0000001209          1400 NH5090               3AZ
438067002438067903-000844     438067005010478432567SWT CANDY DL LUV HEARTS0000002000+00001314+00000+0001T   00001314+0000001209          1400 NH5150               3AZ
438067003438067206-000150     438067006003000628667SLICER CUCUMBER        0000001000+00002192+00000+0001T   00002192+0000001209          1400 NH5321               3AZ
438067004438067080-000113     438067006003000237449CARD&ENVLPE - LOVE     0000001000+00001753+00000+0001T   00001753+0000001209          1400 NH5112               3AZ
438067005438067002-000706     438067006001023111456SPATTER-PREVENTOR 28cm 0000001000+00004385+00000+0001T   00004385+0000001209          1400 NH5300               3AZ
438067006438067077-000299     438067006003000395576G/BAG 32x25cm LRG LOVE 0000001000+00001490+00000+0001T   00001490+0000001209          1400 NH5112               3AZ
438068000438068               438068               170213EB     1400+00000+EB0000001490+0000001490+000000000+000000209+0000001690+0000000009+I20000000000+0000001690+Z
438068001438068077-000452     438068006003000284986G/BAG METALLIC MED EMB 0000001000+00001490+00000+0001T   00001490+0000001218          1400 NH5112               3AZ
438069000438069               438069               170213EB     1400+00000+EB0000001753+0000001753+000000000+000000246+0000001990+0000000009+I20000000000+0000001990+Z
438069001438069089-000504     438069006001023701886KEY-CHAIN SNAP-HOOK    0000001000+00001753+00000+0001T   00001753+0000001221          1400 NH5205               3AZ
438070000438070               438070               170213EB     1400+00000+EB0000001753-0000001753-000000000+000000246-0000002000-0000000001+I20000000000+0000002000-Z
438070001438070089-000504     438070006001023701886KEY-CHAIN SNAP-HOOK    0000001000-00001753+00000+0001T   00001753+0000001223          1400 NH52053IC            3 Z
438071000438071               438071               170213EB     1400+00000+EB0000009115+0000009115+000000000+000001279+0000010394+0000000000+I40000010394+0000000000+Z
438071001438071566-000317     438071006003000524204STICKER TAPE 2PCS      0000001000+00003507+00000+0001T   00003507+0000001228          1400 NH5130               3AZ
438071002438071566-000858     438071006001023760975STCKRS G/OUTLINE ASSTD 0000002000+00000788+00000+0001T   00000788+0000001228          1400 NH5130               3AZ
438071003438071105-001005     438071006001023858214CONTAINERS MINI 6PCE   0000001000+00001402+00000+0001T   00001402+0000001228          1400 NH5210               3AZ
438071004438071079-014153     438071006003000253166ART+CRAFT DRAGON PK6   0000001000+00002630+00000+0001T   00002630+0000001228          1400 NH5130               3AZ
438072000438072               438072               170213EB     1400+00000+EB0000003540+0000003540+000000000+000000497+0000004030+0000000007+I20000000000+0000004030+Z
438072001438072039-000108     438072006001023524034TEA-LITE CANDLES 8PCE  0000001000+00001490+00000+0001T   00001490+0000001233          1400 NH5510               3AZ
438072002438072036-000605     438072006001023158611WASHING-PEGS WDN PCK-240000001000+00001490+00000+0001T   00001490+0000001233          1400 NH5212               3AZ
438072003438072002-021040     438072006001023812216PARTY-PICKS 100PCE     0000001000+00000525+00000+0001T   00000525+0000001233          1400 NH5300               3AZ
438072004438072112-116038     438072006009681820246TCS CARRIER BAG MIDI   0000001000+00000035+00000+0001T   00000035+0000001233          1400 NH5090               3AZ
438073000438073               438073               170213EB     1400+00000+EB0000000613+0000000613+000000000+000000086+0000000690+0000000009+I20000000000+0000000690+Z
438073001438073077-000321     438073006001023677501GIFT-BAG 11X14CM E/D FL0000001000+00000613+00000+0001T   00000613+0000001234          1400 NH5112               3AZ
438074000438074               438074               170213EB     1400+00000+EB0000002192+0000002192+000000000+000000307+0000002490+0000000009+I20000000000+0000002490+Z
438074001438074071-001346     438074006001023912985HIGHLIGHTERS 4PCE CARD 0000001000+00002192+00000+0001T   00002192+0000001236          1400 NH5130               3AZ
438075000438075               438075               170213EB     1400+00000+EB0000001274+0000001274+000000000+000000179+0000001450+0000000003+I20000000000+0000001450+Z
438075001438075304-001011     438075006001023806727FLWR ROSE RED W/BEAR   0000002000+00000613+00000+0001T   00000788+0006471240          1400 NH5510               3AZ
438075002438075112-116069     438075006009681820277TCS CARRIER BAG JUMBO  0000001000+00000048+00000+0001T   00000048+0000001240          1400 NH5090               3AZ
438076000438076               438076               170213EB     1400+00000+EB0000001752+0000001752+000000000+000000246+0000001998+0000000000+I40000001998+0000000000+Z
438076001438076084-070005     438076006001023627902NAIL FILES 6PCE H/GLOW 0000001000+00000876+00000+0001T   00000876+0000001246          1400 NH5200               3AZ
438076002438076306-000016     438076006001023887955T/BRUSH KIDDIES W/CAP  0000001000+00000876+00000+0001T   00000876+0000001246          1400 NH5200               3AZ
438077000438077               438077               170213EB     1400+00000+EB0000005699+0000005699+000000000+000000798+0000006490+0000000007+I20000000000+0000006490+Z
438077001438077077-000310     438077006001023608635GIFT-BAG 18X23CM GLOSS 0000001000+00001314+00000+0001T   00001314+0000001249          1400 NH5112               3AZ
438077002438077003-000141     438077006001023806758ORN FROG ON MUSHROOM   0000001000+00004385+00000+0001T   00004385+0000001249          1400 NH5505               3AZ
438078000438078               438078               170213EB     1400+00000+EB0000003682+0000003682+000000000+000000516+0000004190+0000000008+I20000000000+0000004190+Z
438078001438078077-000452     438078006003000284986G/BAG METALLIC MED EMB 0000001000+00001490+00000+0001T   00001490+0000001250          1400 NH5112               3AZ
438078002438078024-091103     438078006003453014307BAKING-CUP MUFFIN 50PCE0000001000+00002192+00000+0001T   00002192+0000001250          1400 NH5300               3AZ
438079000438079               438079               170213EB     1400+00000+EB0000010524+0000010524+000000000+000001474+0000011990+0000000008+I20000000000+0000011990+Z
438079001438079077-000301     438079008010410010188BAG LRG 25X32CM B/DAY  0000001000+00001753+00000+0001T   00001753+0000001253          1400 NH5112               3AZ
438079002438079361-000110     438079006001023837509RAG-DOLL 46cm RAG      0000001000+00008771+00000+0001T   00008771+0000001253          1400 NH5725               3AZ
438080000438080               438080               170213EB     1400+00000+EB0000005908+0000005908+000000000+000000828+0000006730+0000000006+I20000000000+0000006730+Z
438080001438080018-005009     438080006001023725608MUG W/PLUSH-BEAR LOVE  0000001000+00003507+00000+0001T   00003507+0000001254          1400 NH5515               3AZ
438080002438080903-000499     438080006001704012492SWT CHOC MALLOWS 50g   0000001000+00001227+00000+0001T   00001227+0000001254          1400 NH5150               3AZ
438080003438080903-000087     438080006001704000161SWT SPECKLED-EGGS 50G  0000001000+00001139+00000+0001T   00001139+0000001254          1400 NH5150               3AZ
438080004438080112-116038     438080006009681820246TCS CARRIER BAG MIDI   0000001000+00000035+00000+0001T   00000035+0000001254          1400 NH5090               3AZ
438081000438081               438081               170213EB     1400+00000+EB0000011292+0000011292+000000000+000001587+0000012879+0000000000+I40000012879+0000000000+Z
438081001438081903-000087     438081006001704000161SWT SPECKLED-EGGS 50G  0000002000+00001139+00000+0001T   00001139+0000001256          1400 NH5150               3AZ
438081002438081018-005009     438081006001023725608MUG W/PLUSH-BEAR LOVE  0000002000+00003507+00000+0001T   00003507+0000001256          1400 NH5515               3AZ
438081003438081903-000183     438081006003000451043SWT LB HEART LOLLY     0000005000+00000393+00000+0001T   00000393+0000001256          1400 NH5150               3AZ
438081004438081112-116038     438081006009681820246TCS CARRIER BAG MIDI   0000001000+00000035+00000+0001T   00000035+0000001256          1400 NH5090               3AZ
438082000438082               438082               170213EB     1400+00000+EB0000000876+0000000876+000000000+000000123+0000000990+0000000009+I20000000000+0000000990+Z
438082001438082077-000314     438082006003000181148GIFT-BAG 11X14CM MATT  0000001000+00000876+00000+0001T   00000876+0000001257          1400 NH5112               3AZ
438083000438083               438083               170213EB     1400+00000+EB0000001490+0000001490+000000000+000000209+0000001690+0000000009+I20000000000+0000001690+Z
438083001438083077-000452     438083006003000284986G/BAG METALLIC MED EMB 0000001000+00001490+00000+0001T   00001490+0000001300          1400 NH5112               3AZ
438084000438084               438084               170213EB     1400+00000+EB0000025874+0000025874+000000000+000003623+0000029490+0000000007+I20000000000+0000029490+Z
438084001438084024-000002     438084006001023741899S/BURNER-COVER SILV/BLK0000001000+00003946+00000+0001T   00004385+0008191303          1400 NH5300               3AZ
438084002438084466-000005     438084006003000508174PLAY-TENT POP-UP GIRL  0000001000+00021928+00000+0001T   00021928+0000001303          1400 NH5785               3AZ
438085000438085               438085               170213EB     1400+00000+EB0000000613+0000000613+000000000+000000086+0000000690+0000000009+I20000000000+0000000690+Z
438085001438085304-001011     438085006001023806727FLWR ROSE RED W/BEAR   0000001000+00000613+00000+0001T   00000788+0006471304          1400 NH5510               3AZ
438086000438086               438086               170213EB     1400+00000+EB0000001227+0000001227+000000000+000000172+0000001390+0000000009+I20000000000+0000001390+Z
438086001438086251-000040     438086006001023515865SEALTAPE CLEAR 48mmx50m0000001000+00001227+00000+0001T   00001227+0000001304          1400 NH5810               3AZ
438087000438087               438087               170213EB     1400+00000+EB0000000786+0000000786+000000000+000000112+0000000890+0000000008+I20000000000+0000000890+Z
438087001438087903-000183     438087006003000451043SWT LB HEART LOLLY     0000002000+00000393+00000+0001T   00000393+0000001306          1400 NH5150               3AZ
438088000438088               438088               170213EB     1400+00000+EB0000002665+0000002665+000000000+000000374+0000003030+0000000009+I20000000000+0000003030+Z
438088001438088106-008100     438088006001023764126MEASURING-SHAKER 500ml 0000001000+00002630+00000+0001T   00002630+0000001308          1400 NH5210               3AZ
438088002438088112-116038     438088006009681820246TCS CARRIER BAG MIDI   0000001000+00000035+00000+0001T   00000035+0000001308          1400 NH5090               3AZ
438089000438089               438089               170213EB     1400+00000+EB0000008099+0000008099+000000000+000001136+0000009235+0000000000+I40000009235+0000000000+Z
438089001438089079-009702-G   438089008427973060787PAPER SIRIO A2 FUSHIA  0000001000+00001051+00000+0001T   00001051+0000001310          1400 NH5130               3AZ
438089002438089566-000056     438089006003000661381STICKER DRESS UP GIRL  0000001000+00001753+00000+0001T   00001753+0000001310          1400 NH5130               3AZ
438089003438089071-081103     438089006003000197002GLUE STICKS LIQUID 3PCE0000001000+00001753+00000+0001T   00001753+0000001310          1400 NH5130               3AZ
438089004438089079-006498     438089006001023836151GLITTER SET 10PCE      0000001000+00003507+00000+0001T   00003507+0000001310          1400 NH5130               3AZ
438089005438089112-116038     438089006009681820246TCS CARRIER BAG MIDI   0000001000+00000035+00000+0001T   00000035+0000001310          1400 NH5090               3AZ
438090000438090               438090               170213EB     1400+00000+EB0000004823+0000004823+000000000+000000676+0000005499+0000000000+I40000005499+0000000000+Z
438090001438090301-085001     438090006003000297610ORN WATERBALL LOVE ASST0000001000+00004823+00000+0001T   00004823+0000001315          1400 NH5505               3AZ
438091000438091               438091               170213EB     1400+00000+EB0000001753+0000001753+000000000+000000246+0000001990+0000000009+I20000000000+0000001990+Z
438091001438091466-000583     438091006001023156617SKIPPING-ROPE 224cm    0000001000+00001753+00000+0001T   00001753+0000001319          1400 NH5785               3AZ
438092000438092               438092               170213EB     1400+00000+EB0000007893+0000007893+000000000+000001106+0000008999+0000000000+I40000008999+0000000000+Z
438092001438092082-094485     438092006001492944852#SUNGLASS GIRLS WRAP   0000001000+00002631+00000+0001T   00002631+0000001321          1400 NH5160               3AZ
438092002438092104-000190     438092006004779016334DISH DRAINER PL ASSTD  0000001000+00005262+00000+0001T   00005262+0000001321          1400 NH5210               3AZ
438093000438093               438093               170213EB     1400+00000+EB0000007090+0000007090+000000000+000000994+0000008080+0000000004+I20000000000+0000008080+Z
438093001438093304-001011     438093006001023806727FLWR ROSE RED W/BEAR   0000001000+00000613+00000+0001T   00000788+0006471323          1400 NH5510               3AZ
438093002438093368-000049     438093006003000536955PLUSH BEAR 15cm LOVE   0000001000+00004385+00000+0001T   00004385+0000001323          1400 NH5745               3AZ
438093003438093018-000177     438093006001023797513MUG MINI LOVE ASSTD    0000001000+00000700+00000+0001T   00000700+0000001323          1400 NH5515               3AZ
438093004438093903-000843     438093008693029031067SWT GUMMY JELAXY 80G   0000001000+00000964+00000+0001T   00000964+0000001323          1400 NH5150               3AZ
438093005438093903-000183     438093006003000451043SWT LB HEART LOLLY     0000001000+00000393+00000+0001T   00000393+0000001323          1400 NH5150               3AZ
438093006438093112-116038     438093006009681820246TCS CARRIER BAG MIDI   0000001000+00000035+00000+0001T   00000035+0000001323          1400 NH5090               3AZ
438094000438094               438094               170213EB     1400+00000+EB0000000786+0000000786+000000000+000000112+0000000890+0000000008+I20000000000+0000000890+Z
438094001438094903-000183     438094006003000451043SWT LB HEART LOLLY     0000002000+00000393+00000+0001T   00000393+0000001326          1400 NH5150               3AZ
438095000438095               438095               170213EB     1400+00000+EB0000011011+0000011011+000000000+000001542+0000012553+0000000000+I40000012553+0000000000+Z
438095001438095019-071597     438095006008766071597PEBBLES 250g CLEAR  BAG0000001000+00002192+00000+0001T   00002192+0000001331          1400 NH5510               3AZ
438095002438095019-000080     438095006001023775740VASE GLS FLORIST BALL  0000001000+00008771+00000+0001T   00008771+0000001331          1400 NH5510               3AZ
438095003438095112-116069     438095006009681820277TCS CARRIER BAG JUMBO  0000001000+00000048+00000+0001T   00000048+0000001331          1400 NH5090               3AZ
438096000438096               438096               170213EB     1400+00000+EB0000003506+0000003506+000000000+000000492+0000003998+0000000000+I40000003998+0000000000+Z
438096001438096106-007125     438096006003000057689MILK-SACHET-JUG 1,0L   0000001000+00001753+00000+0001T   00001753+0000001333          1400 NH5210               3AZ
438096002438096080-000120     438096006003000236473CARD & ENVELOPE WEDDING0000001000+00001753+00000+0001T   00001753+0000001333          1400 NH5112               3AZ
438097000438097               438097               170213EB     1400+00000+EB0000007012+0000007012+000000000+000000982+0000007990+0000000004+I20000000000+0000007990+Z
438097001438097566-000451     438097006001023788443STICKERS GLITTER ASSTD 0000002000+00001314+00000+0001T   00001753+0008151338          1400 NH5130               3AZ
438097002438097033-000782     438097006001023905482COSMETIC SPONGES 12PC  0000002000+00002192+00000+0001T   00002192+0000001338          1400 NH5200               3AZ
438098000438098               438098               170213EB     1400+00000+EB0000005699+0000005699+000000000+000000798+0000006490+0000000007+I20000000000+0000006490+Z
438098001438098018-000136     438098006001023659026MUG OCC LOVE W/PLUSH   0000001000+00003507+00000+0001T   00003507+0000001341          1400 NH5515               3AZ
438098002438098077-000309-A   438098006003000671007GIFT-BAG HOLOGRAM JMB  0000001000+00002192+00000+0001T   00002192+0000001341          1400 NH5112               3AZ
438099000438099               438099               170213EB     1400+00000+EB0000000911+0000000911+000000000+000000128+0000001030+0000000009+I20000000000+0000001030+Z
438099001438099071-005213     438099006001023690371CELLOTAPE 12mmx33m     0000001000+00000876+00000+0001T   00000876+0000001343          1400 NH5130               3AZ
438099002438099112-116038     438099006009681820246TCS CARRIER BAG MIDI   0000001000+00000035+00000+0001T   00000035+0000001343          1400 NH5090               3AZ
438100000438100               438100               170213EB     1400+00000+EB0000008817+0000008817+000000000+000001235+0000010052+0000000000+I40000010052+0000000000+Z
438100001438100031-005853     438100006003000442416P/FRAME WDN TWIN HEARTS0000001000+00003507+00000+0001T   00003507+0000001346          1400 NH5510               3AZ
438100002438100018-019000     438100006003000557288MUG OCC. LOVE JUMBO    0000001000+00005262+00000+0001T   00005262+0000001346          1400 NH5515               3AZ
438100003438100112-116069     438100006009681820277TCS CARRIER BAG JUMBO  0000001000+00000048+00000+0001T   00000048+0000001346          1400 NH5090               3AZ
438101000438101               438101               170213EB     1400+00000+EB0000007892+0000007892+000000000+000001106+0000008990+0000000008+I20000000000+0000008990+Z
438101001438101077-000309     438101006001023608604GIFT-BAG 25X32CM GLOSS 0000001000+00001753+00000+0001T   00001753+0000001347          1400 NH5112               3AZ
438101002438101018-005007     438101006003000515516MUG OCC. LOVE W/HEARTS 0000001000+00006139+00000+0001T   00006139+0000001347          1400 NH5515               3AZ
438102000438102               438102               170213EB     1400+00000+EB0000007891+0000007891+000000000+000001106+0000008997+0000000000+I40000008997+0000000000+Z
438102001438102024-000003     438102006001023462206S/BURNER COVERS ASSTD  0000001000+00004385+00000+0001T   00004385+0000001348          1400 NH5300               3AZ
438102002438102220-005003     438102006003000566150ELOFF TEASPOONS 4PC    0000002000+00001753+00000+0001T   00001753+0000001348          1400 NH5300               3AZ
438103000438103               438103               170213EB     1400+00000+EB0000001576+0000001576+000000000+000000221+0000001790+0000000007+I20000000000+0000001790+Z
438103001438103071-001019     438103006001023474513MARKER BLACK NAME-PEN  0000001000+00000876+00000+0001T   00000876+0000001349          1400 NH5130               3AZ
438103002438103564-000012     438103006001023130075BUBBLE BOTTLE MAGIC    0000001000+00000700+00000+0001T   00000700+0000001349          1400 NH5131               3AZ
438104000438104               438104               170213EB     1400+00000+EB0000003104+0000003104+000000000+000000435+0000003530+0000000009+I20000000000+0000003530+Z
438104001438104305-075000     438104006003000620555W/CHIMES HEART SHAPE   0000001000+00003069+00000+0001T   00003069+0000001350          1400 NH5505               3AZ
438104002438104112-116038     438104006009681820246TCS CARRIER BAG MIDI   0000001000+00000035+00000+0001T   00000035+0000001350          1400 NH5090               3AZ
438105000438105               438105               170213EB     1400+00000+EB0000000437-0000000437-000000000+000000061-0000000500-0000000002+I20000000000+0000000500-Z
438105001438105018-000136     438105006001023659026MUG OCC LOVE W/PLUSH   0000001000-00003507+00000+0001T   00003507+0000001352          1400 NH55152IC            3 Z
438105003438105077-000309-A   438105006003000671007GIFT-BAG HOLOGRAM JMB  0000001000-00002192+00000+0001T   00002192+0000001352          1400 NH51122IC            3 Z
438105004438105085-007022     438105004711412009401P/KNIFE S/S 10-FUNCTION0000001000+00005262+00000+0001T   00005262+0000001352          1400 NH5305               3 Z
438106000438106               438106               170213EB     1400+00000+EB0000002192+0000002192+000000000+000000307+0000002490+0000000009+I20000000000+0000002490+Z
438106001438106267-000200     438106006001023892379PUZZLE 24pc CARTOON    0000001000+00002192+00000+0001T   00002192+0000001353          1400 NH5755               3AZ
438107000438107               438107               170213EB     1400+00000+EB0000002485+0000002485+000000000+000000350+0000002830+0000000005+I20000000000+0000002830+Z
438107001438107089-000192-A   438107006001023901774KEY-CHAIN ACRYLIC      0000001000+00000876+00000+0001T   00000876+0000001356          1400 NH5205               3AZ
438107002438107018-000177     438107006001023797513MUG MINI LOVE ASSTD    0000001000+00000700+00000+0001T   00000700+0000001356          1400 NH5515               3AZ
438107003438107903-000885     438107008690997017147SWT L/BIRD CHOC BISCUIT0000001000+00000437+00000+0001T   00000437+0000001356          1400 NH5150               3AZ
438107004438107112-116038     438107006009681820246TCS CARRIER BAG MIDI   0000001000+00000035+00000+0001T   00000035+0000001356          1400 NH5090               3AZ
438107005438107080-000133     438107006003000535613CARD&ENV MINI ASTD DSGN0000001000+00000437+00000+0001T   00000437+0000001356          1400 NH5112               3AZ
438108000438108               438108               170213EB     1400+00000+EB0000000786+0000000786+000000000+000000112+0000000890+0000000008+I20000000000+0000000890+Z
438108001438108903-000183     438108006003000451043SWT LB HEART LOLLY     0000002000+00000393+00000+0001T   00000393+0000001357          1400 NH5150               3AZ
438109000438109               438109               170213EB     1400+00000+EB0000006776+0000006776+000000000+000000953+0000007729+0000000000+I40000007729+0000000000+Z
438109001438109078-013424     438109006008741000338CONTACT-ADHESIVE 50ml  0000001000+00001578+00000+0001T   00001578+0000001401          1400 NH5810               3AZ
438109002438109018-000127     438109006001023380289MUG OCC STRAIGHT LOVE  0000001000+00001578+00000+0001T   00001753+0006471401          1400 NH5515               3AZ
438109003438109018-000177     438109006001023797513MUG MINI LOVE ASSTD    0000002000+00000700+00000+0001T   00000700+0000001401          1400 NH5515               3AZ
438109004438109047-000001-AA  438109006001023723529INS-TAPE WHITE 18mmx10m0000001000+00000613+00000+0001T   00000613+0000001401          1400 NH5880               3AZ
438109005438109903-000183     438109006003000451043SWT LB HEART LOLLY     0000004000+00000393+00000+0001T   00000393+0000001401          1400 NH5150               3AZ
438109006438109112-116038     438109006009681820246TCS CARRIER BAG MIDI   0000001000+00000035+00000+0001T   00000035+0000001401          1400 NH5090               3AZ
438110000438110               438110               170213EB     1400+00000+EB0000003803+0000003803+000000000+000000534+0000004330+0000000007+I20000000000+0000004330+Z
438110001438110903-000499     438110006001704012492SWT CHOC MALLOWS 50g   0000001000+00001227+00000+0001T   00001227+0000001419          1400 NH5150               3AZ
438110002438110077-000010-C   438110006001023123879CREPE-PAPER RED        0000001000+00000788+00000+0001T   00000788+0000001419          1400 NH5112               3AZ
438110003438110080-000113     438110006003000237449CARD&ENVLPE - LOVE     0000001000+00001753+00000+0001T   00001753+0000001419          1400 NH5112               3AZ
438110004438110112-116038     438110006009681820246TCS CARRIER BAG MIDI   0000001000+00000035+00000+0001T   00000035+0000001419          1400 NH5090               3AZ
438111000438111               438111               170213EB     1400+00000+EB0000001753+0000001753+000000000+000000246+0000001990+0000000009+I20000000000+0000001990+Z
438111001438111362-101405     438111006003000229703BEAD PLASTIC DIY SET   0000001000+00001753+00000+0001T   00001753+0000001422          1400 NH5160               3AZ
438112000438112               438112               170213EB     1400+00000+EB0000003541+0000003541+000000000+000000497+0000004030+0000000008+I20000000000+0000004030+Z
438112001438112046-000014-A   438112004897006177708BATTERIES SIZE:AAA 8PCE0000001000+00001753+00000+0001T   00001753+0000001425          1400 NH5312               3AZ
438112002438112048-000859     438112006003000423422TORCH 9 LED PL 3XAAA   0000001000+00001753+00000+0001T   00001753+0000001425          1400 NH5305               3AZ
438112003438112112-116038     438112006009681820246TCS CARRIER BAG MIDI   0000001000+00000035+00000+0001T   00000035+0000001425          1400 NH5090               3AZ
438113000438113               438113               170213EB     1400+00000+EB0000001753+0000001753+000000000+000000246+0000001990+0000000009+I20000000000+0000001990+Z
438113001438113079-013099     438113006003000081875ART+CRAFT EYES ASSTD   0000001000+00001753+00000+0001T   00001753+0000001429          1400 NH5130               3AZ
438114000438114               438114               170213EB     1400+00000+EB0000007891+0000007891+000000000+000001106+0000008997+0000000000+I40000008997+0000000000+Z
438114001438114077-000472     438114006003000330133G-BAG DESGNR LRG 25X32 0000001000+00001753+00000+0001T   00001753+0000001433          1400 NH5112               3AZ
438114002438114085-007022     438114004711412009401P/KNIFE S/S 10-FUNCTION0000001000+00005262+00000+0001T   00005262+0000001433          1400 NH5305               3AZ
438114003438114077-000011-F   438114006001023808431TISSUE-WRAP BLUE/LILAC 0000001000+00000876+00000+0001T   00000876+0000001433          1400 NH5112               3AZ
438115000438115               438115               170213EB     1400+00000+EB0000001707+0000001707+000000000+000000240+0000001940+0000000007+I20000000000+0000001940+Z
438115001438115903-000844     438115005010478432567SWT CANDY DL LUV HEARTS0000001000+00001314+00000+0001T   00001314+0000001441          1400 NH5150               3AZ
438115002438115903-000183     438115006003000451043SWT LB HEART LOLLY     0000001000+00000393+00000+0001T   00000393+0000001441          1400 NH5150               3AZ
438116000438116               438116               170213EB     1400+00000+EB0000000350+0000000350+000000000+000000049+0000000390+0000000009+I20000000000+0000000390+Z
438116001438116002-000879     438116006001023770004STRAINER TEA 7cm H/H   0000001000+00000350+00000+0001T   00000350+0000001442          1400 NH5300               3AZ
438117000438117               438117               170213EB     1400+00000+EB0000002192+0000002192+000000000+000000307+0000002490+0000000009+I20000000000+0000002490+Z
438117001438117080-000127     438117006003000424351VALENTINES DAY 36x24CM 0000001000+00002192+00000+0001T   00002192+0000001444          1400 NH5112               3AZ
438118000438118               438118               170213EB     1400+00000+EB0000009254+0000009254+000000000+000001296+0000010550+0000000000+I40000010550+0000000000+Z
438118001438118493-059050     438118000078257590506BEACH-BALL 61cm LIVELY 0000001000+00002192+00000+0001T   00002192+0000001449          1400 NH5787               3AZ
438118002438118495-059703     438118000078257597031LOUNGER AIR-MAT ECONO  0000002000+00003507+00000+0001T   00003507+0000001449          1400 NH5787               3AZ
438118003438118112-116069     438118006009681820277TCS CARRIER BAG JUMBO  0000001000+00000048+00000+0001T   00000048+0000001449          1400 NH5090               3AZ
438119000438119               438119               170213EB     1400+00000+EB0000000876+0000000876+000000000+000000123+0000000990+0000000009+I20000000000+0000000990+Z
438119001438119903-000482     438119006001704001397SWT SOFT-MINTS 60G     0000001000+00000876+00000+0001T   00000876+0000001450          1400 NH5150               3AZ
438120000438120               438120               170213EB     1400+00000+EB0000006139+0000006139+000000000+000000860+0000006990+0000000009+I20000000000+0000006990+Z
438120001438120046-000010-VP  438120006003000537792BATTERIES SIZE:AAA 12PC0000001000+00006139+00000+0001T   00006139+0000001451          1400 NH5312               3AZ
438121000438121               438121               170213EB     1400+00000+EB0000001752+0000001752+000000000+000000246+0000001990+0000000008+I20000000000+0000001990+Z
438121001438121036-000011     438121006003000675890LINT REMOVER REFILL    0000002000+00000876+00000+0001T   00000876+0000001453          1400 NH5212               3AZ
438122000438122               438122               170213EB     1400+00000+EB0000008819+0000008819+000000000+000001235+0000010050+0000000004+I20000000000+0000010050+Z
438122001438122203-000107     438122006001023820358ICE-BUCKET T/PLATE DECO0000001000+00008771+00000+0001T   00008771+0000001455          1400 NH5300               3AZ
438122002438122112-116069     438122006009681820277TCS CARRIER BAG JUMBO  0000001000+00000048+00000+0001T   00000048+0000001455          1400 NH5090               3AZ
438123000438123               438123               170213EB     1400+00000+EB0000009204+0000009204+000000000+000001290+0000010494+0000000000+I40000010494+0000000000+Z
438123001438123079-000280     438123006003000160723PAINT READYMIX 6PCE    0000001000+00002630+00000+0001T   00002630+0000001457          1400 NH5130               3AZ
438123002438123079-013099     438123006003000081875ART+CRAFT EYES ASSTD   0000001000+00001753+00000+0001T   00001753+0000001457          1400 NH5130               3AZ
438123003438123078-009100     438123006008741002349ALL-CLEAR GLUE 25ml CRD0000001000+00001314+00000+0001T   00001314+0000001457          1400 NH5810               3AZ
438123004438123079-000600     438123006003000160990ART-SHEETS FOAM ASSTD-C0000001000+00003507+00000+0001T   00003507+0000001457          1400 NH5130               3AZ
438124000438124               438124               170213EB     1400+00000+EB0000003770+0000003770+000000000+000000528+0000004290+0000000008+I20000000000+0000004290+Z
438124001438124077-000303     438124006001023593757GIFT-BAG PAPER MED     0000001000+00001578+00000+0001T   00001578+0000001459          1400 NH5112               3AZ
438124002438124080-000127     438124006003000424351VALENTINES DAY 36x24CM 0000001000+00002192+00000+0001T   00002192+0000001459          1400 NH5112               3AZ
438125000438125               438125               170213EB     1400+00000+EB0000003682+0000003682+000000000+000000516+0000004190+0000000008+I20000000000+0000004190+Z
438125001438125080-000127     438125006003000424351VALENTINES DAY 36x24CM 0000001000+00002192+00000+0001T   00002192+0000001500          1400 NH5112               3AZ
438125002438125077-000299     438125006003000395576G/BAG 32x25cm LRG LOVE 0000001000+00001490+00000+0001T   00001490+0000001500          1400 NH5112               3AZ
438126000438126               438126               170213EB     1400+00000+EB0000001314+0000001314+000000000+000000184+0000001490+0000000008+I20000000000+0000001490+Z
438126001438126018-000119     438126006003000336074MUG DAILY STRAIGHT     0000001000+00001314+00000+0001T   00001753+0008171518          1400 NH5515               3AZ
438127000438127               438127               170213EB     1400+00000+EB0000006534+0000006534+000000000+000000916+0000007450+0000000000+I20000000000+0000007450+Z
438127001438127077-000299     438127006003000395576G/BAG 32x25cm LRG LOVE 0000001000+00001490+00000+0001T   00001490+0000001527          1400 NH5112               3AZ
438127002438127018-000136     438127006001023659026MUG OCC LOVE W/PLUSH   0000001000+00003507+00000+0001T   00003507+0000001527          1400 NH5515               3AZ
438127003438127077-000011-E   438127006001023808646TISSUE-WRAP PINK 10PCE 0000001000+00000876+00000+0001T   00000876+0000001527          1400 NH5112               3AZ
438127004438127304-001011     438127006001023806727FLWR ROSE RED W/BEAR   0000001000+00000613+00000+0001T   00000788+0006471527          1400 NH5510               3AZ
438127005438127112-116069     438127006009681820277TCS CARRIER BAG JUMBO  0000001000+00000048+00000+0001T   00000048+0000001527          1400 NH5090               3AZ
438128000438128               438128               170213EB     1400+00000+EB0000003507+0000003507+000000000+000000491+0000003990+0000000008+I20000000000+0000003990+Z
438128001438128567-011350     438128009780709716686BK STICKER COLOUR DOT  0000001000+00003507+00000+0001T   00003507+0000001528          1400 NH5757               3AZ
438129000438129               438129               170213EB     1400+00000+EB0000002100+0000002100+000000000+000000294+0000002390+0000000004+I20000000000+0000002390+Z
438129001438129018-000177     438129006001023797513MUG MINI LOVE ASSTD    0000003000+00000700+00000+0001T   00000700+0000001530          1400 NH5515               3AZ
438130000438130               438130               170213EB     1400+00000+EB0000003506+0000003506+000000000+000000492+0000003990+0000000008+I20000000000+0000003990+Z
438130001438130079-000341     438130006920705495519FELT-TIP PENS 12PCE    0000001000+00001753+00000+0001T   00001753+0000001532          1400 NH5130               3AZ
438130002438130079-000012     438130006001023655332P/CRAYONS 12-COL LONG  0000001000+00001753+00000+0001T   00001753+0000001532          1400 NH5130               3AZ
438131000438131               438131               170213EB     1400+00000+EB0000006438+0000006438+000000000+000000906+0000007340+0000000004+I20000000000+0000007340+Z
438131001438131903-000183     438131006003000451043SWT LB HEART LOLLY     0000003000+00000393+00000+0001T   00000393+0000001535          1400 NH5150               3AZ
438131002438131903-000619     438131006003000672455SWT LOLLY STR/BRRY 140G0000003000+00001753+00000+0001T   00001753+0000001535          1400 NH5150               3AZ
438132000438132               438132               170213EB     1400+00000+EB0000007172+0000007172+000000000+000001009+0000008180+0000000001+I20000000000+0000008180+Z
438132001438132903-000848     438132008692806080076SWT SNACK BISCUIT 70g  0000002000+00000613+00000+0001T   00000613+0000001539          1400 NH5150               3AZ
438132002438132018-000127     438132006001023380289MUG OCC STRAIGHT LOVE  0000002000+00001578+00000+0001T   00001753+0006471539          1400 NH5515               3AZ
438132003438132903-000183     438132006003000451043SWT LB HEART LOLLY     0000003000+00000393+00000+0001T   00000393+0000001539          1400 NH5150               3AZ
438132004438132077-000010-F   438132006003453000461CREPE-PAPER BLUE       0000001000+00000788+00000+0001T   00000788+0000001539          1400 NH5112               3AZ
438132005438132077-000010-C   438132006001023123879CREPE-PAPER RED        0000001000+00000788+00000+0001T   00000788+0000001539          1400 NH5112               3AZ
438132006438132112-116038     438132006009681820246TCS CARRIER BAG MIDI   0000001000+00000035+00000+0001T   00000035+0000001539          1400 NH5090               3AZ
438133000438133               438133               170213EB     1400+00000+EB0000002630+0000002630+000000000+000000369+0000002990+0000000009+I20000000000+0000002990+Z
438133001438133079-000280     438133006003000160723PAINT READYMIX 6PCE    0000001000+00002630+00000+0001T   00002630+0000001543          1400 NH5130               3AZ
438134000438134               438134               170213EB     1400+00000+EB0000005700+0000005700+000000000+000000798+0000006490+0000000008+I20000000000+0000006490+Z
438134001438134046-002023-C   438134006001023698254BATTERIES ALKALN CARD-50000001000+00005700+00000+0001T   00005700+0000001554          1400 NH5312               3AZ
438135000438135               438135               170213EB     1400+00000+EB0000013157+0000013157+000000000+000001842+0000014999+0000000000+I40000014999+0000000000+Z
438135001438135031-001012     438135006003000675104P/FRAME WDN COLLAGE    0000001000+00013157+00000+0001T   00013157+0000001556          1400 NH5510               3AZ
438136000438136               438136               170213EB     1400+00000+EB0000004420+0000004420+000000000+000000619+0000005039+0000000000+I40000005039+0000000000+Z
438136001438136001-000175     438136006001023788108B/MUG GLS LOVE 380ML   0000001000+00004385+00000+0001T   00004385+0000001605          1400 NH5515               3AZ
438136002438136112-116038     438136006009681820246TCS CARRIER BAG MIDI   0000001000+00000035+00000+0001T   00000035+0000001605          1400 NH5090               3AZ
438137000438137               438137               170213EB     1400+00000+EB0000004384+0000004384+000000000+000000614+0000004990+0000000008+I20000000000+0000004990+Z
438137001438137566-000031     438137006003000283910STICKER BK TEACHER STIC0000002000+00002192+00000+0001T   00002192+0000001606          1400 NH5130               3AZ
438138000438138               438138               170213EB     1400+00000+EB0000012762+0000012762+000000000+000001789+0000014551+0000000000+I40000014551+0000000000+Z
438138001438138077-000926     438138006003000414178G/WRAP 700mmx2m LOVE   0000001000+00002192+00000+0001T   00002192+0000001613          1400 NH5112               3AZ
438138002438138562-000070     438138006003000600748EDU PLAY DOUGH 50g 8pc 0000001000+00007016+00000+0001T   00007016+0000001613          1400 NH5755               3AZ
438138003438138491-059640     438138000078257596409INTEX:ARMBAND 3-6YRS   0000002000+00001753+00000+0001T   00001753+0000001613          1400 NH5787               3AZ
438138004438138112-116069     438138006009681820277TCS CARRIER BAG JUMBO  0000001000+00000048+00000+0001T   00000048+0000001613          1400 NH5090               3AZ
438139000438139               438139               170213EB     1400+00000+EB0000000613+0000000613+000000000+000000086+0000000690+0000000009+I20000000000+0000000690+Z
438139001438139304-001011     438139006001023806727FLWR ROSE RED W/BEAR   0000001000+00000613+00000+0001T   00000788+0006471615          1400 NH5510               3AZ
438140000438140               438140               170213EB     1400+00000+EB0000003068+0000003068+000000000+000000430+0000003498+0000000000+I40000003498+0000000000+Z
438140001438140071-005214     438140006003000152544CELLOTAPE SUPER REFILL 0000001000+00001490+00000+0001T   00001490+0000001621          1400 NH5130               3AZ
438140002438140077-000348     438140006001023483287GIFT-BOWS 4,5cm 8PCE   0000001000+00001578+00000+0001T   00001578+0000001621          1400 NH5112               3AZ
438141000438141               438141               170213EB     1400+00000+EB0000000613+0000000613+000000000+000000086+0000000690+0000000009+I20000000000+0000000690+Z
438141001438141304-001011     438141006001023806727FLWR ROSE RED W/BEAR   0000001000+00000613+00000+0001T   00000788+0006471622          1400 NH5510               3AZ
438142000438142               438142               170213EB     1400+00000+EB0000001752+0000001752+000000000+000000246+0000001998+0000000000+I40000001998+0000000000+Z
438142001438142036-000011     438142006003000675890LINT REMOVER REFILL    0000002000+00000876+00000+0001T   00000876+0000001627          1400 NH5212               3AZ
438143000438143               438143               170213EB     1400+00000+EB0000001490+0000001490+000000000+000000209+0000001699+0000000000+I40000001699+0000000000+Z
438143001438143077-000452     438143006003000284986G/BAG METALLIC MED EMB 0000001000+00001490+00000+0001T   00001490+0000001635          1400 NH5112               3AZ
438144000438144               438144               170213EB     1400+00000+EB0000002015+0000002015+000000000+000000283+0000002290+0000000008+I20000000000+0000002290+Z
438144001438144903-000087     438144006001704000161SWT SPECKLED-EGGS 50G  0000001000+00001139+00000+0001T   00001139+0000001637          1400 NH5150               3AZ
438144002438144903-000295     438144006001704002899SWT MS FRUITY RASCALS  0000001000+00000876+00000+0001T   00000876+0000001637          1400 NH5150               3AZ
438145000438145               438145               170213EB     1400+00000+EB0000017572+0000017572+000000000+000002462+0000020034+0000000000+I40000020034+0000000000+Z
438145001438145071-003040     438145006003000543342PEN CLUTCH+LEAD 5pce   0000001000+00001753+00000+0001T   00001753+0000001643          1400 NH5130               3AZ
438145002438145301-085004     438145006003000420469ORN LOVE PLAQUE 21X10CM0000001000+00003507+00000+0001T   00003946+0006471643          1400 NH5505               3AZ
438145003438145077-000408     438145006003000145218G/BAG PP 15X21X7CM     0000001000+00000876+00000+0001T   00000876+0000001643          1400 NH5112               3AZ
438145004438145563-000317-A   438145006001023776167SERVIETTES 20PK PATTERN0000001000+00002630+00000+0001T   00002630+0000001643          1400 NH5214               3AZ
438145005438145040-000501     438145006003000250295C/HOLDER W/CUPS 2ASSTD 0000001000+00008771+00000+0001T   00008771+0000001643          1400 NH5510               3AZ
438145006438145112-116038     438145006009681820246TCS CARRIER BAG MIDI   0000001000+00000035+00000+0001T   00000035+0000001643          1400 NH5090               3AZ
438146000438146               438146               170213EB     1400+00000+EB0000008817+0000008817+000000000+000001236+0000010050+0000000003+I20000000000+0000010050+Z
438146001438146049-001820     438146006003000019311DOORMAT RUBBER MOULDED 0000001000+00007893+00000+0001T   00007893+0000001646          1400 NH5510               3AZ
438146002438146047-000505     438146006009636901976PLUG-ADAPTOR 2-PIN     0000001000+00000876+00000+0001T   00000876+0000001646          1400 NH5880               3AZ
438146003438146112-116069     438146006009681820277TCS CARRIER BAG JUMBO  0000001000+00000048+00000+0001T   00000048+0000001646          1400 NH5090               3AZ
438147000438147               438147               170213EB     1400+00000+EB0000003069+0000003069+000000000+000000430+0000003490+0000000009+I20000000000+0000003490+Z
438147001438147072-020250     438147006003000188864PET BLANKET BUDGET     0000001000+00003069+00000+0001T   00003069+0000001649          1400 NH5870               3AZ
438148000438148               438148               170213EB     1400+00000+EB0000012015+0000012015+000000000+000001683+0000013690+0000000008+I20000000000+0000013690+Z
438148001438148368-000637     438148006001023874092PLUSH BEAR SLEEPING LOV0000001000+00011402+00000+0001T   00012279+0006471710          1400 NH5745               3AZ
438148002438148304-001011     438148006001023806727FLWR ROSE RED W/BEAR   0000001000+00000613+00000+0001T   00000788+0006471710          1400 NH5510               3AZ
438149000438149               438149               170213EB     1400+00000+EB0000000876+0000000876+000000000+000000123+0000000990+0000000009+I20000000000+0000000990+Z
438149001438149077-000150-D   438149006003000054343GIFT-WRAP CELLPHANE CLR0000001000+00000876+00000+0001T   00000876+0000001711          1400 NH5112               3AZ
C43810500                                          170213EB085-007022     13512650SLAVE 3     NH52IC0000000000+0000000000+0020000001000+
C43814800                                          170213EB077-000324     17103024SLAVE 3     NH53IC0000000000+0000000000+0030000001000+
M17021301                              IT          EBATT:it                                                                                          LAST TILL SLIP NO;438149                                                                        THANK YOU                                                                                       EB
M17021391                              CASH        EBSLAVE 3                       Z-REPORT No.   640TOTAL (Sales - Refunds)           5801.69       CASH TO BE BANKED                 3580.00       DEBIT CARDS                          0.00       CREDIT CARDS                      2221.69       Z-READING                         5801.69       AIRTIME DEBIT CARD SALES             0.00       AIRTIME CARD SALES                   0.00       OVERS/UNDERS                         0.00       AIRTIME CASH SALES                   0.00       GIFT CARDS                           0.00       GIFT CARD CASH SALES                 0.00       T O T A L  CASH PAYOUTS              0.00                                                                                                                                                                                                                                                                                                                                                      Z
M17021392                              CASH        EBABSENT                                                                                                                                                                                          ANNUAL LEAVE                                                                                                                                                                                    DAY OFF                                                                                                                                                                                         COMMENTS                                                                                                                                                                                                                                                                                                                                                                                       Z
Y17021300                                          EB00000000516836+000110
ZEB17021319323 SLAVE 3      SALES DATA                     NEXT INVOICE NO.  438150 0640
X EB Slave 3 First invoice 438038 170213 Last invoice 438149 170213 Next invoice 438150 Total number of records 000000346 clbackup completed 19:32:37
