443059000443059               443059               170213EB     1400+00000+EB0000003507+0000003507+000000000+000000491+0000003998+           I90000000000+0000000000+Z
443059001443059133-000017     443059006001926019682CLEANING-CLOTHS 5PCE   0000001000+00003507+00000+0001T063271670000                    1400 2IC2122ICV             Z
443060000443060               443060               170213EB     1400+00000+EB0000002192+0000002192+000000000+000000307+0000002499+           I90000000000+0000000000+Z
443060001443060566-000991     443060000721129013121STICKERS GLOW-IN-DARK  0000001000+00002192+00000+0001T063416670000                    1400 2IC1302ICV             Z
443061000443061               443061               170213EB     1400+00000+EB0000015788+0000015788+000000000+000002211+0000017999+           I90000000000+0000000000+Z
443061001443061031-001004     443061006003000334643P/FRAME CERTIFICATE 4PC0000001000+00015788+00000+0001T023364000000                    1400 2IC5102ICV             Z
443062000443062               443062               170213EB     1400+00000+EB0000014911+0000014911+000000000+000002088+0000016999+           I90000000000+0000000000+Z
443062001443062072-020245     443062006001023617996PET BED FLEECE W/SIDES 0000001000+00014911+00000+0001T023270740000                    1400 2IC8702ICV             Z
443063000443063               443063               170213EB     1400+00000+EB0000005262+0000005262+000000000+000000737+0000005999+           I90000000000+0000000000+Z
443063001443063018-000129-A   443063006003000441396MUG CERAMIC JUMBO      0000001000+00005262+00000+0001T023218460000                    1400 2IC5152ICV             Z
443064000443064               443064               170213EB     1400+00000+EB0000003506+0000003506+000000000+000000492+0000003998+           I90000000000+0000000000+Z
443064001443064007-000050     443064006001023528285DISPLAY-ENVELOPE A4    0000002000+00001753+00000+0001T063256940000                    1400 2IC1302ICV             Z
443065000443065               443065               170213EB     1400+00000+EB0000005262+0000005262+000000000+000000737+0000005999+           I90000000000+0000000000+Z
443065001443065018-000129-A   443065006003000441396MUG CERAMIC JUMBO      0000001000+00005262+00000+0001T023218460000                    1400 2IC5152ICV             Z
443066000443066               443066               170213EB     1400+00000+EB0000008771+0000008771+000000000+000001228+0000009999+           I90000000000+0000000000+Z
443066001443066019-000076     443066006001023757159V/GLASS 25CM C/DESIGN  0000001000+00008771+00000+0001T023494690000                    1400 2IC5102ICV             Z
443067000443067               443067               170213EB     1400+00000+EB0000023656+0000023656+000000000+000003321+0000026977+           I90000000000+0000000000+Z
443067001443067162-093305     443067006001492933054#TAG PINKS WRISTWEAR   0000002000+00001753+00000+0001T103081091701C                   1400 2IC1602ICV             Z
443067002443067162-093299     443067006001492932996SS ANIMAL PRINT A/BAND 0000001000+00000876+00000+0001T103081091701C                   1400 2IC1602ICV             Z
443067003443067586-094977     443067006001492949772WATCH KIDS FUN SILICONE0000001000+00001753+00000+0001T103081091701C                   1400 2IC1602ICV             Z
443067004443067162-093171     443067006001492931715#TAG BLU B/FLY PENDANT 0000001000+00001753+00000+0001T103081091701C                   1400 2IC1602ICV             Z
443067005443067162-092950     443067006001492929507#TAG KIDS 4PK HAIR CLIP0000003000+00000876+00000+0001T103081091701C                   1400 2IC1602ICV             Z
443067006443067082-094489     443067006001492944890#SUNGLASS BOYS WRAP    0000001000+00000876+00000+0001T103081091701C                   1400 2IC1602ICV             Z
443067007443067162-081666     443067006001492816661SS NEW 3PK GOLD STUDS  0000008000+00000876+00000+0001T103081091701C                   1400 2IC1602ICV             Z
443067008443067082-094465     443067006001492944654#SUNGLASS LDS CAT      0000005000+00000876+00000+0001T103081091701C                   1400 2IC1602ICV             Z
443067009443067162-093149     443067006001492931494#TAG PINKS FLOWER DROP 0000001000+00000876+00000+0001T103081091701C                   1400 2IC1602ICV             Z
443068000443068               443068               170213EB     1400+00000+EB0000004385+0000004385+000000000+000000614+0000004999+           I90000000000+0000000000+Z
443068001443068105-008005     443068006002580009484STORAGE CONTAINER 7.5L 0000001000+00004385+00000+0001T023364400000                    1400 2IC2102ICV             Z
443069000443069               443069               170213EB     1400+00000+EB0000004385+0000004385+000000000+000000614+0000004999+           I90000000000+0000000000+Z
443069001443069051-600632     443069006001023868404PLANTER W/TRAY PL RECT 0000001000+00004385+00000+0001T025471350000                    1400 2IC8202ICV             Z
M17021301                              I.T         EBATT I.T                                                                                         NO SALES                                                                                        EB
M17021391                              CASH        EBSLAVE 4                       Z-REPORT No.    66TOTAL (Sales - Refunds)              0.00       CASH TO BE BANKED                    0.00       DEBIT CARDS                          0.00       CREDIT CARDS                         0.00       Z-READING                            0.00       AIRTIME DEBIT CARD SALES             0.00       AIRTIME CARD SALES                   0.00       OVERS/UNDERS                         0.00       AIRTIME CASH SALES                   0.00       GIFT CARDS                           0.00       GIFT CARD CASH SALES                 0.00       T O T A L  CASH PAYOUTS              0.00                                                                                                                                                                                                                                                                                                                                                      Z
M17021392                              CASH        EBABSENT                                                                                                                                                                                          ANNUAL LEAVE                                                                                                                                                                                    DAY OFF                                                                                                                                                                                         COMMENTS                                                                                                                                                                                                                                                                                                                                                                                       Z
Y17021300                                          EB00000000000000+000000
ZEB17021319323 SLAVE 4      SALES DATA                     NEXT INVOICE NO.  443070 0066
L58403700349469-001-002       EB1702131328102ICCONELLY HAYLON                                                                                                                                                                                                                                                                                                                                                                                                                                                                                                                                                                                                                                                                                                                                                                                                                                                                                                                                                                                       Z
L58403700349469-002-002       EB1702131328272ICCONELLY HAYLON                                                                                                                                                                                                                                                                                                                                                                                                                                                                                                                                                                                                                                                                                                                                                                                                                                                                                                                                                                                       Z
F094837366-002702         1702110831180000072ICSLAVE 4
V5840370000002702         1702110831180000072ICSLAV               0000000000000001702130000002ICSLAVE 4     170213132908349469N              02
X EB Slave 4 First invoice 443059 170213 Last invoice 443069 170213 Next invoice 443070 Total number of records 000000039 clbackup completed 19:32:40
