479251000479251               479251               170213EC     1400+00000+EC0000008819+0000008819+000000000+000001235+0000010050+0000000004+I20000000000+0000010050+Z
479251001479251031-007004     479251006003000463077P/FRAME A3 CERTIFICATE 0000001000+00008771+00000+0001T   00008771+0000001003          1400 BT9510               1AZ
479251002479251112-116069     479251006009681820277TCS CARRIER BAG JUMBO  0000001000+00000048+00000+0001T   00000048+0000001003          1400 BT9090               1AZ
479252000479252               479252               170213EC     1400+00000+EC0000001314+0000001314+000000000+000000184+0000001490+0000000008+I20000000000+0000001490+Z
479252001479252105-001019     479252006002638007585LUNCH BOX 1LT          0000001000+00001314+00000+0001T   00001314+0000001005          1400 BT9210               1AZ
479253000479253               479253               170213EC     1400+00000+EC0000000035+0000000035+000000000+000000005+0000000040+0000000000+I20000000000+0000000040+Z
479253001479253112-116038     479253006009681820246TCS CARRIER BAG MIDI   0000001000+00000035+00000+0001T   00000035+0000001005          1400 BT9090               1AZ
479254000479254               479254               170213EC     1400+00000+EC0000020821+0000020821+000000000+000002919+0000023740+0000000000+I40000023740+0000000000+Z
479254001479254072-020356     479254006001023701077DOG/CAT-BOWL+SELF-FEED 0000001000+00004385+00000+0001T   00004385+0000001019          1400 BT9870               1AZ
479254002479254047-005126     479254006001023451255CABLETIES 100/150/200mm0000001000+00002192+00000+0001T   00002192+0000001019          1400 BT9880               1AZ
479254003479254078-013424     479254006008741000338CONTACT-ADHESIVE 50ml  0000001000+00001578+00000+0001T   00001578+0000001019          1400 BT9810               1AZ
479254004479254058-000061     479254006001023759597KNIFE SNAPOFF+5PCE BLDE0000001000+00002630+00000+0001T   00002630+0000001019          1400 BT9840               1AZ
479254005479254046-000014     479254006001023725387BATTERIES SIZE:AAA 4PCE0000002000+00001139+00000+0001T   00001139+0000001019          1400 BT9312               1AZ
479254006479254046-000012     479254006904708013062BATTERIES AA  CARD-OF-40000002000+00001314+00000+0001T   00001314+0000001019          1400 BT9312               1AZ
479254007479254078-000480     479254006008741002332BOSTIK SHOE-REPAIR 25ml0000001000+00001753+00000+0001T   00001753+0000001019          1400 BT9810               1AZ
479254008479254046-000012     479254006904708013062BATTERIES AA  CARD-OF-40000001000+00001314+00000+0001T   00001314+0000001019          1400 BT9312               1AZ
479254009479254046-000014     479254006001023725387BATTERIES SIZE:AAA 4PCE0000001000+00001139+00000+0001T   00001139+0000001019          1400 BT9312               1AZ
479254010479254071-005213     479254006001023690371CELLOTAPE 12mmx33m     0000001000+00000876+00000+0001T   00000876+0000001019          1400 BT9130               1AZ
479254011479254112-116069     479254006009681820277TCS CARRIER BAG JUMBO  0000001000+00000048+00000+0001T   00000048+0000001019          1400 BT9090               1AZ
479255000479255               479255               170213EC     1400+00000+EC0000007849+0000007849+000000000+000001100+0000008949+0000000000+I40000008949+0000000000+Z
479255001479255077-000311     479255006001023608666GIFT-BAG 11X14CM GLOSS 0000002000+00000613+00000+0001T   00000613+0000001021          1400 BT9112               1AZ
479255002479255031-000002     479255006001023851338FRAME FRIENDS 7.5x7.5cm0000001000+00003507+00000+0001T   00003507+0000001021          1400 BT9510               1AZ
479255003479255080-000127     479255006003000424351VALENTINES DAY 36x24CM 0000001000+00002192+00000+0001T   00002192+0000001021          1400 BT9112               1AZ
479255004479255903-003075     479255003800065783125SWT CHOC FAFL WAFER 52g0000001000+00000876+00000+0001T   00000876+0000001021          1400 BT9150               1AZ
479255005479255112-116069     479255006009681820277TCS CARRIER BAG JUMBO  0000001000+00000048+00000+0001T   00000048+0000001021          1400 BT9090               1AZ
479256000479256               479256               170213EC     1400+00000+EC0000006576+0000006576+000000000+000000921+0000007490+0000000007+I20000000000+0000007490+Z
479256001479256016-006513     479256006003000295739S/JAR GLS EMBOSS. 950ML0000001000+00003069+00000+0001T   00003069+0000001031          1400 BT9300               1AZ
479256002479256133-000017     479256006003000525171CLEANING-CLOTHS 5PCE   0000001000+00003507+00000+0001T   00003507+0000001031          1400 BT9212               1AZ
479257000479257               479257               170213EC     1400+00000+EC0000002192+0000002192+000000000+000000307+0000002490+0000000009+I20000000000+0000002490+Z
479257001479257077-000509     479257006003000082582GIFT-BAG SML 6PCE ORG P0000001000+00002192+00000+0001T   00002192+0000001211          1400 BT9112               1AZ
479258000479258               479258               170213EC     1400+00000+EC0000016712+0000016712+000000000+000002341+0000019050+0000000003+I20000000000+0000019050+Z
479258001479258030-000031-A   479258006003000457588PLAQUE W/WORDS ASSTD   0000001000+00004385+00000+0001T   00004823+0006471212          1400 BT9505               1AZ
479258002479258368-000111     479258006001023780812PLUSH BEAR/DOG 29CM    0000001000+00012279+00000+0001T   00012279+0000001212          1400 BT9745               1AZ
479258003479258112-116069     479258006009681820277TCS CARRIER BAG JUMBO  0000001000+00000048+00000+0001T   00000048+0000001212          1400 BT9090               1AZ
479259000479259               479259               170213EC     1400+00000+EC0000005294+0000005294+000000000+000000743+0000006037+0000000000+I40000006037+0000000000+Z
479259001479259200-003026     479259006003000276448REFUSE BAGS 10PCE GREEN0000001000+00001753+00000+0001T   00001753+0000001214          1400 BT9214               1AZ
479259002479259200-003024     479259006001023657299REFUSE BAGS 20PCE BLACK0000001000+00001753+00000+0001T   00001753+0000001214          1400 BT9214               1AZ
479259003479259027-783000     479259006001023874641SCOURERS RAINBOW 5PCE  0000001000+00001753+00000+0001T   00001753+0000001214          1400 BT9212               1AZ
479259004479259112-116038     479259006009681820246TCS CARRIER BAG MIDI   0000001000+00000035+00000+0001T   00000035+0000001214          1400 BT9090               1AZ
479260000479260               479260               170213EC     1400+00000+EC0000001753+0000001753+000000000+000000246+0000001990+0000000009+I20000000000+0000001990+Z
479260001479260080-000100     479260006003000236114CARD & ENVELOPE BDAY   0000001000+00001753+00000+0001T   00001753+0000001215          1400 BT9112               1AZ
479261000479261               479261               170213EC     1400+00000+EC0000003419+0000003419+000000000+000000479+0000003890+0000000008+I20000000000+0000003890+Z
479261001479261493-059050     479261000078257590506BEACH-BALL 61cm LIVELY 0000001000+00002192+00000+0001T   00002192+0000001223          1400 BT9787               1AZ
479261002479261077-000322     479261006001023677532GIFT-BAG 18X23CM E/D FL0000001000+00001227+00000+0001T   00001227+0000001223          1400 BT9112               1AZ
479262000479262               479262               170213EC     1400+00000+EC0000004385+0000004385+000000000+000000614+0000004999+0000000000+I40000004999+0000000000+Z
479262001479262018-030000     479262006003000421060MUG OCCASIONS LOVE 2PCE0000001000+00004385+00000+0001T   00004385+0000001224          1400 BT9515               1AZ
479263000479263               479263               170213EC     1400+00000+EC0000014954+0000014954+000000000+000002096+0000017050+0000000000+I40000017050+0000000000+Z
479263001479263077-000005-B   479263006003000326617PAPER TISSUE PATTERN   0000001000+00002630+00000+0001T   00002630+0000001230          1400 BT9112               1AZ
479263002479263077-000381     479263006003000247707GIFT-BAG 25X32CM S/COL 0000001000+00001753+00000+0001T   00001753+0000001230          1400 BT9112               1AZ
479263003479263077-000316     479263006001023609731GIFT-BAG 25X32CM MATT  0000001000+00001753+00000+0001T   00001753+0000001230          1400 BT9112               1AZ
479263004479263031-000873-C   479263006003000673513P/FRAME WDN WHITE 20X250000002000+00004385+00000+0001T   00004385+0000001230          1400 BT9510               1AZ
479263005479263112-116069     479263006009681820277TCS CARRIER BAG JUMBO  0000001000+00000048+00000+0001T   00000048+0000001230          1400 BT9090               1AZ
479264000479264               479264               170213EC     1400+00000+EC0000003022+0000003022+000000000+000000425+0000003447+0000000000+I40000003447+0000000000+Z
479264001479264077-000011-C   479264006001023808523TISSUE 10xSHTS RED     0000001000+00000876+00000+0001T   00000876+0000001235          1400 BT9112               1AZ
479264002479264077-000289     479264006001023901996GIFT BOX 20x25x11cm    0000001000+00001753+00000+0001T   00001753+0000001235          1400 BT9112               1AZ
479264003479264903-000183     479264006003000451043SWT LB HEART LOLLY     0000001000+00000393+00000+0001T   00000393+0000001235          1400 BT9150               1AZ
479265000479265               479265               170213EC     1400+00000+EC0000006137+0000006137+000000000+000000860+0000006990+0000000007+I20000000000+0000006990+Z
479265001479265004-071204     479265006003000624904USB IN-CAR CHARGER 2.1A0000001000+00003507+00000+0001T   00003507+0000001237          1400 BT9310               1AZ
479265002479265004-071192     479265006003000528813USB CABLE 1.0m         0000001000+00002630+00000+0001T   00002630+0000001237          1400 BT9310               1AZ
479266000479266               479266               170213EC     1400+00000+EC0000000876+0000000876+000000000+000000123+0000000990+0000000009+I20000000000+0000000990+Z
479266001479266077-000314     479266006003000181148GIFT-BAG 11X14CM MATT  0000001000+00000876+00000+0001T   00000876+0000001238          1400 BT9112               1AZ
479267000479267               479267               170213EC     1400+00000+EC0000001753+0000001753+000000000+000000246+0000001990+0000000009+I20000000000+0000001990+Z
479267001479267080-000101     479267006003000236732CARD&ENVLPE FEMALE     0000001000+00001753+00000+0001T   00001753+0000001241          1400 BT9112               1AZ
479268000479268               479268               170213EC     1400+00000+EC0000004385+0000004385+000000000+000000614+0000004990+0000000009+I20000000000+0000004990+Z
479268001479268261-003344     479268006001023186294GUN RIFLE PL CAP       0000001000+00004385+00000+0001T   00004385+0000001242          1400 BT9710               1AZ
479269000479269               479269               170213EC     1400+00000+EC0000005431+0000005431+000000000+000000762+0000006190+0000000003+I20000000000+0000006190+Z
479269001479269077-000240     479269006003000326259G/RIBBON 4PC PEARLIZED 0000001000+00001753+00000+0001T   00001753+0000001243          1400 BT9112               1AZ
479269002479269006-001000     479269006003000093779HELIUM BALLOON FILL    0000006000+00000613+00000+0001T   00000613+0000001243          1400 BT9131               1AZ
479270000479270               479270               170213EC     1400+00000+EC0000003542+0000003542+000000000+000000496+0000004030+0000000008+I20000000000+0000004030+Z
479270001479270018-000136     479270006001023659026MUG OCC LOVE W/PLUSH   0000001000+00003507+00000+0001T   00003507+0000001245          1400 BT9515               1AZ
479270002479270112-116038     479270006003000534906TCS CARRIER BAG MIDI   0000001000+00000035+00000+0001T   00000035+0000001245          1400 BT9090               1AZ
479271000479271               479271               170213EC     1400+00000+EC0000001490+0000001490+000000000+000000209+0000001690+0000000009+I20000000000+0000001690+Z
479271001479271077-000305     479271006003000395422GIFT-BAG WINE 10X35CM  0000001000+00001490+00000+0001T   00001490+0000001253          1400 BT9112               1AZ
479272000479272               479272               170213EC     1400+00000+EC0000003507+0000003507+000000000+000000491+0000003990+0000000008+I20000000000+0000003990+Z
479272001479272018-000136     479272006001023659026MUG OCC LOVE W/PLUSH   0000001000+00003507+00000+0001T   00003507+0000001253          1400 BT9515               1AZ
479273000479273               479273               170213EC     1400+00000+EC0000001227+0000001227+000000000+000000172+0000001390+0000000009+I20000000000+0000001390+Z
479273001479273077-000322     479273006001023677532GIFT-BAG 18X23CM E/D FL0000001000+00001227+00000+0001T   00001227+0000001300          1400 BT9112               1AZ
479274000479274               479274               170213EC     1400+00000+EC0000018901+0000018901+000000000+000002648+0000021549+0000000000+I40000021549+0000000000+Z
479274001479274562-002001     479274006003000228652EDU GAME               0000001000+00006139+00000+0001T   00006139+0000001302          1400 BT9755               1AZ
479274002479274566-000037     479274006003000383948STICKER 3D GEL         0000001000+00001753+00000+0001T   00001753+0000001302          1400 BT9130               1AZ
479274003479274566-000352     479274006001023809261STICKERS LASER ASSTD   0000001000+00002192+00000+0001T   00002192+0000001302          1400 BT9130               1AZ
479274004479274267-000044     479274000047754666069PUZZLE LICENSED TRAY   0000001000+00003507+00000+0001T   00004385+0008141302          1400 BT9755               1AZ
479274005479274562-000211     479274006001023851536PUSH-IN BOARD ALPHABET 0000001000+00005262+00000+0001T   00005262+0000001302          1400 BT9755               1AZ
479274006479274112-116069     479274006009681820277TCS CARRIER BAG JUMBO  0000001000+00000048+00000+0001T   00000048+0000001302          1400 BT9090               1AZ
479275000479275               479275               170213EC     1400+00000+EC0000001753+0000001753+000000000+000000246+0000001990+0000000009+I20000000000+0000001990+Z
479275001479275080-000500     479275006001023846211CARD&ENV 6PK GLITTER   0000001000+00001753+00000+0001T   00001753+0000001304          1400 BT9112               1AZ
479276000479276               479276               170213EC     1400+00000+EC0000006137-0000006137-000000000+000000860-0000007000-0000000003+I20000000000+0000007000-Z
479276001479276004-071192     479276006003000528813USB CABLE 1.0m         0000001000-00002630+00000+0001T   00002630+0000001309          1400 BT93103IC            1 Z
479276002479276004-071204     479276006003000624904USB IN-CAR CHARGER 2.1A0000001000-00003507+00000+0001T   00003507+0000001309          1400 BT93103IC            1 Z
479277000479277               479277               170213EC     1400+00000+EC0000000876+0000000876+000000000+000000123+0000000990+0000000009+I20000000000+0000000990+Z
479277001479277903-000483     479277006001704001410SWT LIQUOR SML SORT 60G0000001000+00000876+00000+0001T   00000876+0000001310          1400 BT9150               1AZ
479278000479278               479278               170213EC     1400+00000+EC0000012326+0000012326+000000000+000001727+0000014053+0000000000+I40000014053+0000000000+Z
479278001479278077-000270     479278006003000395453GIFT-BAG PPR JMB 33X45 0000001000+00002630+00000+0001T   00002630+0000001313          1400 BT9112               1AZ
479278002479278009-002000     479278006003000593903MELAMINE DINNER SET    0000001000+00009648+00000+0001T   00014911+0008151313          1400 BT9210               1AZ
479278003479278112-116069     479278006009681820277TCS CARRIER BAG JUMBO  0000001000+00000048+00000+0001T   00000048+0000001313          1400 BT9090               1AZ
479279000479279               479279               170213EC     1400+00000+EC0000007276+0000007276+000000000+000001020+0000008290+0000000006+I20000000000+0000008290+Z
479279001479279133-000017     479279006003000525171CLEANING-CLOTHS 5PCE   0000001000+00003507+00000+0001T   00003507+0000001314          1400 BT9212               1AZ
479279002479279027-000081     479279006001023760371SCOURING PADS 10PCE    0000001000+00001139+00000+0001T   00001139+0000001314          1400 BT9212               1AZ
479279003479279027-056188     479279006003000570539DISH BRUSH LADY SHAPE  0000001000+00002630+00000+0001T   00002630+0000001314          1400 BT9212               1AZ
479280000479280               479280               170213EC     1400+00000+EC0000000876+0000000876+000000000+000000123+0000000990+0000000009+I20000000000+0000000990+Z
479280001479280077-000314     479280006003000181148GIFT-BAG 11X14CM MATT  0000001000+00000876+00000+0001T   00000876+0000001315          1400 BT9112               1AZ
479281000479281               479281               170213EC     1400+00000+EC0000001753+0000001753+000000000+000000246+0000001990+0000000009+I20000000000+0000001990+Z
479281001479281077-000457     479281006003000285662G/BAG METALLIC JMB SOL 0000001000+00001753+00000+0001T   00001753+0000001315          1400 BT9112               1AZ
479282000479282               479282               170213EC     1400+00000+EC0000001578+0000001578+000000000+000000221+0000001790+0000000009+I20000000000+0000001790+Z
479282001479282080-000124     479282006003000297733CARD & ENV VALENTINES  0000001000+00001578+00000+0001T   00001578+0000001316          1400 BT9112               1AZ
479283000479283               479283               170213EC     1400+00000+EC0000004813+0000004813+000000000+000000675+0000005480+0000000008+I20000000000+0000005480+Z
479283001479283001-000175     479283006001023788108B/MUG GLS LOVE 380ML   0000001000+00004385+00000+0001T   00004385+0000001317          1400 BT9515               1AZ
479283002479283903-000183     479283006003000451043SWT LB HEART LOLLY     0000001000+00000393+00000+0001T   00000393+0000001317          1400 BT9150               1AZ
479283003479283112-116038     479283006009681820246TCS CARRIER BAG MIDI   0000001000+00000035+00000+0001T   00000035+0000001317          1400 BT9090               1AZ
479284000479284               479284               170213EC     1400+00000+EC0000009242+0000009242+000000000+000001295+0000010530+0000000007+I20000000000+0000010530+Z
479284001479284072-020314     479284006003000605453PET TOY PUP VINYL CHICK0000003000+00003069+00000+0001T   00003069+0000001319          1400 BT9870               1AZ
479284002479284112-116038     479284006009681820246TCS CARRIER BAG MIDI   0000001000+00000035+00000+0001T   00000035+0000001319          1400 BT9090               1AZ
479285000479285               479285               170213EC     1400+00000+EC0000010118+0000010118+000000000+000001418+0000011530+0000000006+I20000000000+0000011530+Z
479285001479285079-006522     479285006001023149442ART+CRAFT GLUE ASSORTED0000001000+00001753+00000+0001T   00001753+0000001321          1400 BT9130               1AZ
479285002479285024-091102     479285006003453000010BAKING-CUP PAPER 50PC  0000002000+00002192+00000+0001T   00002192+0000001321          1400 BT9300               1AZ
479285003479285024-000018     479285006001023610232CAKE-DEC S/S NOZZLE    0000001000+00003946+00000+0001T   00003946+0000001321          1400 BT9300               1AZ
479285004479285112-116038     479285006009681820246TCS CARRIER BAG MIDI   0000001000+00000035+00000+0001T   00000035+0000001321          1400 BT9090               1AZ
479286000479286               479286               170213EC     1400+00000+EC0000020470+0000020470+000000000+000002871+0000023341+0000000000+I40000023341+0000000000+Z
479286001479286089-000191     479286006003000430185KEY CHAIN BEAR 10CM    0000001000+00002630+00000+0001T   00002630+0000001324          1400 BT9205               1AZ
479286002479286018-005009     479286006001023725608MUG W/PLUSH-BEAR LOVE  0000001000+00003507+00000+0001T   00003507+0000001324          1400 BT9515               1AZ
479286003479286368-000171     479286006003000233250PLUSH BEAR 14cm        0000002000+00005262+00000+0001T   00005262+0000001324          1400 BT9745               1AZ
479286004479286077-000270     479286006003000395453GIFT-BAG PPR JMB 33X45 0000001000+00002630+00000+0001T   00002630+0000001324          1400 BT9112               1AZ
479286005479286903-000183     479286006003000451043SWT LB HEART LOLLY     0000003000+00000393+00000+0001T   00000393+0000001324          1400 BT9150               1AZ
479287000479287               479287               170213EC     1400+00000+EC0000004030+0000004030+000000000+000000566+0000004590+0000000006+I20000000000+0000004590+Z
479287001479287903-003075     479287003800065783125SWT CHOC FAFL WAFER 52g0000001000+00000876+00000+0001T   00000876+0000001329          1400 BT9150               1AZ
479287002479287077-000245     479287006001023759214GIFT-RIBBON METALLICx2 0000001000+00001227+00000+0001T   00001227+0000001329          1400 BT9112               1AZ
479287003479287903-000087     479287006001704000161SWT SPECKLED-EGGS 50G  0000001000+00001139+00000+0001T   00001139+0000001329          1400 BT9150               1AZ
479287004479287903-000119     479287006001704007337SWT COCONUT-WHEEL      0000001000+00000788+00000+0001T   00000788+0000001329          1400 BT9150               1AZ
479288000479288               479288               170213EC     1400+00000+EC0000005297+0000005297+000000000+000000742+0000006030+0000000009+I20000000000+0000006030+Z
479288001479288007-000614     479288006001023768667DIARY W/LOCK+PEN LOVE  0000001000+00005262+00000+0001T   00005262+0000001331          1400 BT9130               1AZ
479288002479288112-116038     479288006009681820246TCS CARRIER BAG MIDI   0000001000+00000035+00000+0001T   00000035+0000001331          1400 BT9090               1AZ
479289000479289               479289               170213EC     1400+00000+EC0000002541+0000002541+000000000+000000356+0000002897+0000000000+I40000002897+0000000000+Z
479289001479289077-000312     479289006001023608697GIFT-BAG 10X35CM GLOSS 0000001000+00001314+00000+0001T   00001314+0000001333          1400 BT9112               1AZ
479289002479289903-000499     479289006001704012492SWT CHOC MALLOWS 50g   0000001000+00001227+00000+0001T   00001227+0000001333          1400 BT9150               1AZ
479290000479290               479290               170213EC     1400+00000+EC0000002629+0000002629+000000000+000000369+0000002998+0000000000+I40000002998+0000000000+Z
479290001479290077-000011-D   479290006001023808554TISSUE-WRAP WHITE 10PCE0000001000+00000876+00000+0001T   00000876+0000001350          1400 BT9112               1AZ
479290002479290077-000309     479290006001023608604GIFT-BAG 25X32CM GLOSS 0000001000+00001753+00000+0001T   00001753+0000001350          1400 BT9112               1AZ
479291000479291               479291               170213EC     1400+00000+EC0000003506+0000003506+000000000+000000492+0000003990+0000000008+I20000000000+0000003990+Z
479291001479291301-085006     479291006001023502940ORN LOVE MSG TUBE W/HRT0000002000+00001753+00000+0001T   00001753+0000001418          1400 BT9505               1AZ
479292000479292               479292               170213EC     1400+00000+EC0000001752+0000001752+000000000+000000246+0000001990+0000000008+I20000000000+0000001990+Z
479292001479292252-000013     479292006001023488107CURTN-HOOK R6 ACETYLx500000001000+00000876+00000+0001T   00000876+0000001449          1400 BT9810               1AZ
479292002479292252-000011     479292006001023475190CURTN-GLIDER ACETYL x500000001000+00000876+00000+0001T   00000876+0000001449          1400 BT9810               1AZ
479293000479293               479293               170213EC     1400+00000+EC0000017496+0000017496+000000000+000002453+0000019940+0000000009+I20000000000+0000019940+Z
479293001479293565-000045     479293006003000295890NOVELTY HEADS 8PCE     0000001000+00002630+00000+0001T   00002630+0000001451          1400 BT9745               1AZ
479293002479293564-001028     479293006001023708663BUBBLE CELEBRATION 6ml 0000001000+00003069+00000+0001T   00003069+0000001451          1400 BT9131               1AZ
479293003479293263-000803     479293006003000548286POLICE 12PC MINI CAR   0000001000+00007016+00000+0001T   00007016+0000001451          1400 BT9710               1AZ
479293004479293466-000054     479293006001023831552BALLS HI-BOUNCE 3CM    0000001000+00002630+00000+0001T   00002630+0000001451          1400 BT9785               1AZ
479293005479293565-000044     479293006003000128280BARREL OF SLIME 100g   0000001000+00000613+00000+0001T   00000613+0000001451          1400 BT9745               1AZ
479293006479293366-004050     479293006003000308330DRESS UP TEEN BADGES   0000001000+00001490+00000+0001T   00001490+0000001451          1400 BT9131               1AZ
479293007479293112-116069     479293006009681820277TCS CARRIER BAG JUMBO  0000001000+00000048+00000+0001T   00000048+0000001451          1400 BT9090               1AZ
479294000479294               479294               170213EC     1400+00000+EC0000003857+0000003857+000000000+000000541+0000004390+0000000008+I20000000000+0000004390+Z
479294001479294903-000090     479294006009826020821SWT GS CHOCO COINS 60g 0000001000+00002104+00000+0001T   00002104+0000001454          1400 BT9150               1AZ
479294002479294088-000108     479294006001023765536POTPOURRI-OIL 10ml ASST0000001000+00001753+00000+0001T   00001753+0000001454          1400 BT9212               1AZ
479295000479295               479295               170213EC     1400+00000+EC0000019987+0000019987+000000000+000002802+0000022789+0000000000+I40000022789+0000000000+Z
479295001479295079-000512     479295006001023635853CRAYONS WAX 12-COLOUR  0000003000+00001490+00000+0001T   00001490+0000001503          1400 JT4130               1AZ
479295002479295079-000510     479295006001023509079CRAYONS WAX 12-COLOUR  0000003000+00002455+00000+0001T   00002455+0000001503          1400 JT4130               1AZ
479295003479295077-000309-A   479295006003000671007GIFT-BAG HOLOGRAM JMB  0000001000+00002192+00000+0001T   00002192+0000001503          1400 JT4112               1AZ
479295004479295084-009418     479295006003000450305SCISSORS 13cm ASSTD COL0000004000+00001490+00000+0001T   00001490+0000001503          1400 JT4200               1AZ
479296000479296               479296               170213EC     1400+00000+EC0000001051+0000001051+000000000+000000148+0000001199+0000000000+I40000001199+0000000000+Z
479296001479296079-009702-D   479296008427973059354PAPER SIRIO A2 RED COL 0000001000+00001051+00000+0001T   00001051+0000001510          1400 JT4130               1AZ
479297000479297               479297               170213EC     1400+00000+EC0000006750+0000006750+000000000+000000947+0000007690+0000000007+I20000000000+0000007690+Z
479297001479297034-078833     479297006001023857491SIGN BABY-ON-BOARD     0000001000+00001490+00000+0001T   00001490+0000001511          1400 JT4215               1AZ
479297002479297089-000191     479297006003000430185KEY CHAIN BEAR 10CM    0000002000+00002630+00000+0001T   00002630+0000001511          1400 JT4205               1AZ
479298000479298               479298               170213EC     1400+00000+EC0000006139+0000006139+000000000+000000860+0000006990+0000000009+I20000000000+0000006990+Z
479298001479298368-000184     479298006003000668298PLUSH LAMB 23cm        0000001000+00006139+00000+0001T   00006139+0000001511          1400 JT4745               1AZ
479299000479299               479299               170213EC     1400+00000+EC0000001490+0000001490+000000000+000000209+0000001690+0000000009+I20000000000+0000001690+Z
479299001479299565-004101     479299006003000548033BALL BOUNCING EGG      0000001000+00001490+00000+0001T   00001490+0000001512          1400 JT4745               1AZ
479300000479300               479300               170213EC     1400+00000+EC0000013199+0000013199+000000000+000001850+0000015049+0000000000+I40000015049+0000000000+Z
479300001479300464-000665     479300006001023751980GAME BOWLING 17cm      0000001000+00005262+00000+0001T   00005262+0000001518          1400 JT4785               1AZ
479300002479300071-001012     479300006001023474445MARKERS BLACK ROUND    0000001000+00000876+00000+0001T   00000876+0000001518          1400 JT4130               1AZ
479300003479300079-013032-I   479300006003000542550ART+CRAFT DIY EVA FOAM 0000001000+00001753+00000+0001T   00001753+0000001518          1400 JT4130               1AZ
479300004479300071-000701     479300006001023852830CLIPBOARD A4  23x30cm  0000001000+00003507+00000+0001T   00003507+0000001518          1400 JT4130               1AZ
479300005479300466-000200     479300006001023621665HULA-HOOP     ASSTD    0000001000+00001753+00000+0001T   00001753+0000001518          1400 JT4785               1AZ
479300006479300112-116069     479300006009681820277TCS CARRIER BAG JUMBO  0000001000+00000048+00000+0001T   00000048+0000001518          1400 JT4090               1AZ
479301000479301               479301               170213EC     1400+00000+EC0000004385+0000004385+000000000+000000614+0000004999+0000000000+I40000004999+0000000000+Z
479301001479301030-000031-A   479301006003000457588PLAQUE W/WORDS ASSTD   0000001000+00004385+00000+0001T   00004823+0006471519          1400 JT4505               1AZ
479302000479302               479302               170213EC     1400+00000+EC0000001753+0000001753+000000000+000000246+0000001990+0000000009+I20000000000+0000001990+Z
479302001479302024-091100     479302006001023914224BAKING-CUPS PAPER 100PC0000001000+00001753+00000+0001T   00001753+0000001520          1400 JT4300               1AZ
479303000479303               479303               170213EC     1400+00000+EC0000003506+0000003506+000000000+000000492+0000003990+0000000008+I20000000000+0000003990+Z
479303001479303301-085006     479303006001023502940ORN LOVE MSG TUBE W/HRT0000002000+00001753+00000+0001T   00001753+0000001521          1400 JT4505               1AZ
479304000479304               479304               170213EC     1400+00000+EC0000001578+0000001578+000000000+000000221+0000001790+0000000009+I20000000000+0000001790+Z
479304001479304077-000315     479304006003000181186GIFT-BAG 20x28cm MATT  0000001000+00001578+00000+0001T   00001578+0000001530          1400 JT4112               1AZ
479305000479305               479305               170213EC     1400+00000+EC0000000876+0000000876+000000000+000000123+0000000990+0000000009+I20000000000+0000000990+Z
479305001479305039-000323     479305006001023524171BIRTHDAY-CANDLES 24PCE 0000001000+00000876+00000+0001T   00000876+0000001540          1400 JT4510               1AZ
479306000479306               479306               170213EC     1400+00000+EC0000004943+0000004943+000000000+000000694+0000005630+0000000007+I20000000000+0000005630+Z
479306001479306071-081103     479306006003000197002GLUE STICKS LIQUID 3PCE0000002000+00001753+00000+0001T   00001753+0000001541          1400 JT4130               1CZ
479306002479306105-001005     479306006001023858214CONTAINERS MINI 6PCE   0000001000+00001402+00000+0001T   00001402+0000001541          1400 JT4210               1CZ
479306003479306112-116038     479306006009681820246TCS CARRIER BAG MIDI   0000001000+00000035+00000+0001T   00000035+0000001541          1400 JT4090               1CZ
479307000479307               479307               170213EC     1400+00000+EC0000008770+0000008770+000000000+000001228+0000009990+0000000008+I20000000000+0000009990+Z
479307001479307016-006523     479307006003000297825S/JAR GLS 550ml W/WORDS0000002000+00004385+00000+0001T   00004385+0000001544          1400 JT4300               1AZ
479308000479308               479308               170213EC     1400+00000+EC0000001525+0000001525+000000000+000000214+0000001730+0000000009+I20000000000+0000001730+Z
479308001479308006-000788     479308006001023990228CROWN HAPPY BIRTHDAY   0000001000+00001490+00000+0001T   00001490+0000001557          1400 JT4131               1AZ
479308002479308112-116038     479308006009681820246TCS CARRIER BAG MIDI   0000001000+00000035+00000+0001T   00000035+0000001557          1400 JT4090               1AZ
479309000479309               479309               170213EC     1400+00000+EC0000017978+0000017978+000000000+000002518+0000020496+0000000000+I40000020496+0000000000+Z
479309001479309368-000113     479309006001023780874PLUSH BLINGED LOVE 30cm0000001000+00012279+00000+0001T   00012279+0000001653          1400 BT9745               1AZ
479309002479309018-000136     479309006001023659026MUG OCC LOVE W/PLUSH   0000001000+00003507+00000+0001T   00003507+0000001653          1400 BT9515               1AZ
479309003479309077-000309-A   479309006003000671007GIFT-BAG HOLOGRAM JMB  0000001000+00002192+00000+0001T   00002192+0000001653          1400 BT9112               1AZ
479310000479310               479310               170213EC     1400+00000+EC0000003506+0000003506+000000000+000000492+0000003990+0000000008+I20000000000+0000003990+Z
479310001479310200-003024     479310006001023657299REFUSE BAGS 20PCE BLACK0000002000+00001753+00000+0001T   00001753+0000001656          1400 BT9214               1AZ
479311000479311               479311               170213EC     1400+00000+EC0000002240+0000002240+000000000+000000314+0000002550+0000000004+I20000000000+0000002550+Z
479311001479311080-000127     479311006003000424351VALENTINES DAY 36x24CM 0000001000+00002192+00000+0001T   00002192+0000001706          1400 JT4112               1AZ
479311002479311112-116069     479311006009681820277TCS CARRIER BAG JUMBO  0000001000+00000048+00000+0001T   00000048+0000001706          1400 JT4090               1AZ
479312000479312               479312               170213EC     1400+00000+EC0000004383+0000004383+000000000+000000614+0000004990+0000000007+I20000000000+0000004990+Z
479312001479312018-005009     479312006001023725608MUG W/PLUSH-BEAR LOVE  0000001000+00003507+00000+0001T   00003507+0000001707          1400 JT4515               1AZ
479312002479312903-000897     479312008692806325207SWT CHOC DBL MINI ROLL 0000001000+00000876+00000+0001T   00000876+0000001707          1400 JT4150               1AZ
479313000479313               479313               170213EC     1400+00000+EC0000002630+0000002630+000000000+000000369+0000002990+0000000009+I20000000000+0000002990+Z
479313001479313079-013032-D   479313006003000389643RIBBONS                0000001000+00002630+00000+0001T   00002630+0000001708          1400 JT4130               1AZ
479314000479314               479314               170213EC     1400+00000+EC0000001138+0000001138+000000000+000000160+0000001290+0000000008+I20000000000+0000001290+Z
479314001479314566-000847     479314006001023761033STICKERS G/OUTLINE ASTD0000001000+00000350+00000+0001T   00000350+0000001712          1400 JT4130               1AZ
479314002479314566-000858     479314006001023760975STCKRS G/OUTLINE ASSTD 0000001000+00000788+00000+0001T   00000788+0000001712          1400 JT4130               1AZ
479315000479315               479315               170213EC     1400+00000+EC0000003542+0000003542+000000000+000000496+0000004030+0000000008+I20000000000+0000004030+Z
479315001479315018-000136     479315006001023659026MUG OCC LOVE W/PLUSH   0000001000+00003507+00000+0001T   00003507+0000001713          1400 JT4515               1AZ
479315002479315112-116038     479315006009681820246TCS CARRIER BAG MIDI   0000001000+00000035+00000+0001T   00000035+0000001713          1400 JT4090               1AZ
479316000479316               479316               170213EC     1400+00000+EC0000002455+0000002455+000000000+000000344+0000002790+0000000009+I20000000000+0000002790+Z
479316001479316079-000802     479316006001023528902ART+CRAFT STICKS 100PCE0000001000+00002455+00000+0001T   00002455+0000001727          1400 JT4130               1AZ
479317000479317               479317               170213EC     1400+00000+EC0000004384+0000004384+000000000+000000614+0000004990+0000000008+I20000000000+0000004990+Z
479317001479317024-091103     479317006003453014307BAKING-CUP MUFFIN 50PCE0000002000+00002192+00000+0001T   00002192+0000001742          1400 JT4300               1AZ
479318000479318               479318               170213EC     1400+00000+EC0000008815+0000008815+000000000+000001236+0000010050+0000000001+I20000000000+0000010050+Z
479318001479318077-000309     479318006001023608604GIFT-BAG 25X32CM GLOSS 0000001000+00001753+00000+0001T   00001753+0000001743          1400 JT4112               1AZ
479318002479318030-000030-A   479318006003000249305PLAQUE GLASS LOVE      0000001000+00003069+00000+0001T   00003069+0000001743          1400 JT4505               1AZ
479318003479318080-000127     479318006003000424351VALENTINES DAY 36x24CM 0000001000+00002192+00000+0001T   00002192+0000001743          1400 JT4112               1AZ
479318004479318200-003024     479318006001023657299REFUSE BAGS 20PCE BLACK0000001000+00001753+00000+0001T   00001753+0000001743          1400 JT4214               1AZ
479318005479318112-116069     479318006009681820277TCS CARRIER BAG JUMBO  0000001000+00000048+00000+0001T   00000048+0000001743          1400 JT4090               1AZ
479319000479319               479319               170213EC     1400+00000+EC0000003542+0000003542+000000000+000000496+0000004038+0000000000+I40000004038+0000000000+Z
479319001479319018-005009     479319006001023725608MUG W/PLUSH-BEAR LOVE  0000001000+00003507+00000+0001T   00003507+0000001745          1400 JT4515               1AZ
479319002479319112-116038     479319006009681820246TCS CARRIER BAG MIDI   0000001000+00000035+00000+0001T   00000035+0000001745          1400 JT4090               1AZ
479320000479320               479320               170213EC     1400+00000+EC0000005748+0000005748+000000000+000000805+0000006553+0000000000+I40000006553+0000000000+Z
479320001479320075-000412     479320006001023855299SHOPPER-BASKET PL      0000001000+00005700+00000+0001T   00005700+0000001746          1400 JT4160               1AZ
479320002479320112-116069     479320006009681820277TCS CARRIER BAG JUMBO  0000001000+00000048+00000+0001T   00000048+0000001746          1400 JT4090               1AZ
479321000479321               479321               170213EC     1400+00000+EC0000017232+0000017232+000000000+000002416+0000019640+0000000008+I20000000000+0000019640+Z
479321001479321001-000175     479321006001023788108B/MUG GLS LOVE 380ML   0000002000+00004385+00000+0001T   00004385+0000001747          1400 JT4515               1AZ
479321002479321366-002101     479321006003000617715DRESS UP MASK LIGHT UP 0000002000+00002630+00000+0001T   00002630+0000001747          1400 JT4131               1AZ
479321003479321006-000223     479321006001023891327PARTY EYE-MASK 6PCE    0000001000+00000876+00000+0001T   00000876+0000001747          1400 JT4131               1AZ
479321004479321112-116069     479321006009681820277TCS CARRIER BAG JUMBO  0000001000+00000048+00000+0001T   00000048+0000001747          1400 JT4090               1AZ
479321005479321903-000087     479321006001704000161SWT SPECKLED-EGGS 50G  0000002000+00001139+00000+0001T   00001139+0000001747          1400 JT4150               1AZ
479322000479322               479322               170213EC     1400+00000+EC0000010573+0000010573+000000000+000001481+0000012050+0000000004+I20000000000+0000012050+Z
479322001479322403-000500     479322006003000247592MONEY-BANK DECOR PIGGY 0000001000+00010525+00000+0001T   00010525+0000001749          1400 JT4510               1AZ
479322002479322112-116069     479322006009681820277TCS CARRIER BAG JUMBO  0000001000+00000048+00000+0001T   00000048+0000001749          1400 JT4090               1AZ
479323000479323               479323               170213EC     1400+00000+EC0000004385+0000004385+000000000+000000614+0000004990+0000000009+I20000000000+0000004990+Z
479323001479323082-000105     479323006003000360369READING GLS STRNGHT:1.50000001000+00004385+00000+0001T   00004385+0000001749          1400 JT4160               1AZ
479324000479324               479324               170213EC     1400+00000+EC0000001753+0000001753+000000000+000000246+0000001990+0000000009+I20000000000+0000001990+Z
479324001479324046-002032-PK2 479324004897006175063BATTERIES CR-2032  2PCE0000001000+00001753+00000+0001T   00001753+0000001750          1400 JT4312               1AZ
479325000479325               479325               170213EC     1400+00000+EC0000016967+0000016967+000000000+000002379+0000019346+0000000000+I40000019346+0000000000+Z
479325001479325079-003005     479325006003000448241A/TUBE 75ML BLUE       0000001000+00001753+00000+0001T   00001753+0000001752          1400 JT4130               1AZ
479325002479325007-000555     479325006001023848239MEMO-PAD MINI LOVE     0000003000+00000613+00000+0001T   00000613+0000001752          1400 JT4130               1AZ
479325003479325007-000900     479325006003000541515NOTE BOOK SET + PEN    0000001000+00004385+00000+0001T   00004385+0000001752          1400 JT4130               1AZ
479325004479325080-000127     479325006003000424351VALENTINES DAY 36x24CM 0000001000+00002192+00000+0001T   00002192+0000001752          1400 JT4112               1AZ
479325005479325112-116069     479325006009681820277TCS CARRIER BAG JUMBO  0000001000+00000048+00000+0001T   00000048+0000001752          1400 JT4090               1AZ
479325006479325089-000191     479325006003000430185KEY CHAIN BEAR 10CM    0000001000+00002630+00000+0001T   00002630+0000001752          1400 JT4205               1AZ
479325007479325077-000299     479325006003000395576G/BAG 32x25cm LRG LOVE 0000001000+00001490+00000+0001T   00001490+0000001752          1400 JT4112               1AZ
479325008479325018-000129     479325006001023403353MUG OCC. LOVE V-SHAPE  0000001000+00002630+00000+0001T   00002630+0000001752          1400 JT4515               1AZ
479326000479326               479326               170213EC     1400+00000+EC0000003506+0000003506+000000000+000000492+0000003998+0000000000+I40000003998+0000000000+Z
479326001479326009-001451     479326006001023695970MELAMINE S/BOWL 15cm   0000002000+00001753+00000+0001T   00001753+0000001753          1400 JT4210               1AZ
479327000479327               479327               170213EC     1400+00000+EC0000022359+0000022359+000000000+000003131+0000025490+0000000000+I20000000000+0000025490+Z
479327001479327368-000175     479327006003000270316PLUSH BEAR 4 ASSTD 18CM0000001000+00006139+00000+0001T   00006139+0000001754          1400 JT4745               1AZ
479327002479327079-012208     479327006001023801081ART + CRAFT SET STAMP  0000001000+00003507+00000+0001T   00003507+0000001754          1400 JT4130               1AZ
479327003479327079-105610     479327006003000249473ART+CRAFT SPONGE INK PA0000001000+00003507+00000+0001T   00003507+0000001754          1400 JT4130               1AZ
479327004479327079-012208     479327006001023801081ART + CRAFT SET STAMP  0000001000+00003507+00000+0001T   00003507+0000001754          1400 JT4130               1AZ
479327005479327079-105610     479327006003000249473ART+CRAFT SPONGE INK PA0000001000+00003507+00000+0001T   00003507+0000001754          1400 JT4130               1AZ
479327006479327080-000127     479327006003000424351VALENTINES DAY 36x24CM 0000001000+00002192+00000+0001T   00002192+0000001754          1400 JT4112               1AZ
479328000479328               479328               170213EC     1400+00000+EC0000001753+0000001753+000000000+000000246+0000001990+0000000009+I20000000000+0000001990+Z
479328001479328567-010740     479328009780710511041BOOK EDU. ASSTD CAT 3  0000001000+00001753+00000+0001T   00001753+0000001755          1400 JT4757               1AZ
479329000479329               479329               170213EC     1400+00000+EC0000007662+0000007662+000000000+000001074+0000008730+0000000006+I20000000000+0000008730+Z
479329001479329301-000015     479329006001023479907ORN SENTIMENT STONE    0000001000+00004385+00000+0001T   00004385+0000001756          1400 JT4505               1AZ
479329002479329077-000311     479329006001023608666GIFT-BAG 11X14CM GLOSS 0000001000+00000613+00000+0001T   00000613+0000001756          1400 JT4112               1AZ
479329003479329006-000223     479329006001023891327PARTY EYE-MASK 6PCE    0000001000+00000876+00000+0001T   00000876+0000001756          1400 JT4131               1AZ
479329004479329039-000318     479329006003000406159B/DAY CANDLES SMALL NO 0000001000+00001753+00000+0001T   00001753+0000001756          1400 JT4510               1AZ
479329005479329112-116038     479329006009681820246TCS CARRIER BAG MIDI   0000001000+00000035+00000+0001T   00000035+0000001756          1400 JT4090               1AZ
479330000479330               479330               170213EC     1400+00000+EC0000015476+0000015476+000000000+000002172+0000017648+0000000000+I40000017648+0000000000+Z
479330001479330403-000502-A   479330006003000467099M/BANK TIN 8x12.5cm    0000002000+00002630+00000+0001T   00002630+0000001759          1400 JT4510               1AZ
479330002479330047-000505     479330006009636901976PLUG-ADAPTOR 2-PIN     0000001000+00000876+00000+0001T   00000876+0000001759          1400 JT4880               1AZ
479330003479330036-000151     479330006001023810588COATHANGERS    PACK-10 0000002000+00002893+00000+0001T   00002893+0000001759          1400 JT4212               1AZ
479330004479330036-000615     479330006003000218769WASH-PEGS PL PCK-24    0000002000+00001753+00000+0001T   00001753+0000001759          1400 JT4212               1AZ
479330005479330112-116069     479330006009681820277TCS CARRIER BAG JUMBO  0000001000+00000048+00000+0001T   00000048+0000001759          1400 JT4090               1AZ
479331000479331               479331               170213EC     1400+00000+EC0000005260+0000005260+000000000+000000738+0000005990+0000000008+I20000000000+0000005990+Z
479331001479331366-006103     479331006001023786944DRESS UP FACE PAINT SET0000002000+00002630+00000+0001T   00002630+0000001759          1400 JT4131               1AZ
479332000479332               479332               170213EC     1400+00000+EC0000004769+0000004769+000000000+000000668+0000005430+0000000007+I20000000000+0000005430+Z
479332001479332077-000322     479332006001023677532GIFT-BAG 18X23CM E/D FL0000001000+00001227+00000+0001T   00001227+0000001800          1400 JT4112               1AZ
479332002479332018-000136     479332006001023659026MUG OCC LOVE W/PLUSH   0000001000+00003507+00000+0001T   00003507+0000001800          1400 JT4515               1AZ
479332003479332112-116038     479332006009681820246TCS CARRIER BAG MIDI   0000001000+00000035+00000+0001T   00000035+0000001800          1400 JT4090               1AZ
479333000479333               479333               170213EC     1400+00000+EC0000008770+0000008770+000000000+000001228+0000009990+0000000008+I20000000000+0000009990+Z
479333001479333051-600636     479333006003000400324PLANTER WALL MOUNT PL  0000002000+00004385+00000+0001T   00004385+0000001801          1400 JT4820               1AZ
479334000479334               479334               170213EC     1400+00000+EC0000004769+0000004769+000000000+000000668+0000005430+0000000007+I20000000000+0000005430+Z
479334001479334077-000322     479334006001023677532GIFT-BAG 18X23CM E/D FL0000001000+00001227+00000+0001T   00001227+0000001802          1400 JT4112               1AZ
479334002479334018-000136     479334006001023659026MUG OCC LOVE W/PLUSH   0000001000+00003507+00000+0001T   00003507+0000001802          1400 JT4515               1AZ
479334003479334112-116038     479334006009681820246TCS CARRIER BAG MIDI   0000001000+00000035+00000+0001T   00000035+0000001802          1400 JT4090               1AZ
479335000479335               479335               170213EC     1400+00000+EC0000011838+0000011838+000000000+000001658+0000013490+0000000006+I20000000000+0000013490+Z
479335001479335267-000250     479335006001023892386PUZZLE 500pc LANDSCAPE 0000001000+00005262+00000+0001T   00005262+0000001803          1400 JT4755               1AZ
479335002479335028-002101     479335006002580009507CHAIR JUNIOR    ASSTD  0000001000+00003507+00000+0001T   00003507+0000001803          1400 JT4305               1AZ
479335003479335464-000107     479335000073854318089PLAY-CARDS 2nd (SINGLE)0000001000+00003069+00000+0001T   00003069+0000001803          1400 JT4785               1AZ
479336000479336               479336               170213EC     1400+00000+EC0000000831+0000000831+000000000+000000117+0000000940+0000000008+I20000000000+0000000940+Z
479336001479336006-000171-C   479336006003000609178BALLOONS 1PC D/GRN PRNT0000001000+00000218+00000+0001T   00000218+0000001804          1400 JT4131               1AZ
479336002479336006-001000     479336006003000093779HELIUM BALLOON FILL    0000001000+00000613+00000+0001T   00000613+0000001804          1400 JT4131               1AZ
479337000479337               479337               170213EC     1400+00000+EC0000000788+0000000788+000000000+000000111+0000000890+0000000009+I20000000000+0000000890+Z
479337001479337903-000200     479337006009826020234SWT CHOC RP CHOCO 23G  0000001000+00000788+00000+0001T   00000788+0000001805          1400 JT4150               1AZ
A17021300                                          10571918ECSLAVE 1                       BT93IC
C47931200                                          170213EC903-002850     17065932SLAVE 1     JT43IC0000000000+0000000000+0020000001000+
M17021301                              IT          ECATT IT                                          THE LAST TILL SLIP NUMBER FOR SLAVE 1 IS        479337                                          THANK YOU                                       EC
M17021391                              CASH        ECSLAVE 1                       Z-REPORT No.   587TOTAL (Sales - Refunds)           5986.15       CASH TO BE BANKED                 3533.40       DEBIT CARDS                          0.00       CREDIT CARDS                      2451.75       Z-READING                         5986.15       AIRTIME DEBIT CARD SALES             0.00       AIRTIME CARD SALES                   0.00       OVERS/UNDERS                         1.00-      AIRTIME CASH SALES                   0.00       GIFT CARDS                           0.00       GIFT CARD CASH SALES                 0.00       T O T A L  CASH PAYOUTS              0.00                                                                                                                                                                                                                                                                                                                                                      Z
M17021392                              CASH        ECABSENT                                                                                                                                                                                          ANNUAL LEAVE                                                                                                                                                                                    DAY OFF                                                                                                                                                                                         COMMENTS                                                          EC                                                                                                                                                                                                                                                                                                                           Z
Y17021300                                          EC00000000531587+000086
ZEC17021319323 SLAVE 1      SALES DATA                     NEXT INVOICE NO.  479338 0587
X EC Slave 1 First invoice 479251 170213 Last invoice 479337 170213 Next invoice 479338 Total number of records 000000302 clbackup completed 19:32:09
