468487000468487               468487               170213EC     1400+00000+EC0000002893+0000002893+000000000+000000406+0000003290+0000000009+I20000000000+0000003290+Z
468487001468487036-000151     468487006001023810588COATHANGERS    PACK-10 0000001000+00002893+00000+0001T   00002893+0000000901          1400 JT4212               2AZ
468488000468488               468488               170213EC     1400+00000+EC0000010963+0000010963+000000000+000001535+0000012498+0000000000+I40000012498+0000000000+Z
468488001468488113-000011     468488006001023711793FLASK S/S 350ml        0000001000+00008771+00000+0001T   00008771+0000000912          1400 JT4305               2AZ
468488002468488024-091103     468488006003453014307BAKING-CUP MUFFIN 50PCE0000001000+00002192+00000+0001T   00002192+0000000912          1400 JT4300               2AZ
468489000468489               468489               170213EC     1400+00000+EC0000003946+0000003946+000000000+000000553+0000004490+0000000009+I20000000000+0000004490+Z
468489001468489036-000013     468489006001246500860LINT REMOVER REFILLS   0000001000+00003946+00000+0001T   00003946+0000000916          1400 JT4212               2AZ
468490000468490               468490               170213EC     1400+00000+EC0000004385-0000004385-000000000+000000614-0000005000-0000000001+I20000000000+0000005000-Z
468490001468490007-000711     468490006003000227518NOTE-BK A5 WIRE 80SHTS 0000001000-00004385+00000+0001T   00004385+0000000917          1400 JT41303IC            2 Z
468491000468491               468491               170213EC     1400+00000+EC0000008803+0000008803+000000000+000001234+0000010030+0000000007+I20000000000+0000010030+Z
468491001468491071-003009     468491006001024011373PEN CLICK BALL+SFT GRIP0000001000+00002630+00000+0001T   00002630+0000000920          1400 JT4130               2AZ
468491002468491080-000112     468491006003000252749CARD&ENVLP BDAY-MUSICAL0000001000+00001753+00000+0001T   00001753+0000000920          1400 JT4112               2AZ
468491003468491007-000578     468491006001023810175NOTES STATIONERY SET   0000001000+00004385+00000+0001T   00004385+0000000920          1400 JT4130               2AZ
468491004468491112-116038     468491006009681820246TCS CARRIER BAG MIDI   0000001000+00000035+00000+0001T   00000035+0000000920          1400 JT4090               2AZ
468492000468492               468492               170213EC     1400+00000+EC0000042101+0000042101+000000000+000005896+0000047990+0000000007+I20000000000+0000047990+Z
468492001468492466-000007     468492006003000611300PLAY-TENT PIRATE       0000001000+00020174+00000+0001T   00020174+0000000924          1400 JT4785               2AZ
468492002468492466-000008     468492006003000611423PLAY-TENT PRINCESS     0000001000+00020174+00000+0001T   00020174+0000000924          1400 JT4785               2AZ
468492003468492071-001015     468492006001023910387MARKERS PERMANENT 3PK  0000001000+00001753+00000+0001T   00001753+0000000924          1400 JT4130               2AZ
468493000468493               468493               170213EC     1400+00000+EC0000003542+0000003542+000000000+000000496+0000004038+0000000000+I40000004038+0000000000+Z
468493001468493567-011343     468493006003000630592BK COLOURING THERAPY   0000001000+00003507+00000+0001T   00003507+0000000928          1400 JT4757               2AZ
468493002468493112-116038     468493006009681820246TCS CARRIER BAG MIDI   0000001000+00000035+00000+0001T   00000035+0000000928          1400 JT4090               2AZ
468494000468494               468494               170213EC     1400+00000+EC0000004155+0000004155+000000000+000000585+0000004740+0000000000+I20000000000+0000004740+Z
468494001468494006-000171-H   468494006003000609574BALLOONS 1PC RED PRINT 0000005000+00000218+00000+0001T   00000218+0000000930          1400 JT4131               2AZ
468494002468494006-001000     468494006003000093779HELIUM BALLOON FILL    0000005000+00000613+00000+0001T   00000613+0000000930          1400 JT4131               2AZ
468495000468495               468495               170213EC     1400+00000+EC0000003067+0000003067+000000000+000000430+0000003497+0000000000+I40000003497+0000000000+Z
468495001468495105-001019     468495006002638007585LUNCH BOX 1LT          0000001000+00001314+00000+0001T   00001314+0000000936          1400 JT4210               2AZ
468495002468495080-000111     468495006003000252695CARD&ENVELPE - MUSICAL 0000001000+00001753+00000+0001T   00001753+0000000936          1400 JT4112               2AZ
468496000468496               468496               170213EC     1400+00000+EC0000001753+0000001753+000000000+000000246+0000001990+0000000009+I20000000000+0000001990+Z
468496001468496566-000040     468496006003000142316SCRAPBOOK 12xDESIGN AST0000001000+00001753+00000+0001T   00002630+0008150936          1400 JT4130               2AZ
468497000468497               468497               170213EC     1400+00000+EC0000000657+0000000657+000000000+000000092+0000000740+0000000009+I20000000000+0000000740+Z
468497001468497108-001040     468497006005387103003TUMBLER 280ml CLEAR    0000001000+00000657+00000+0001T   00000657+0000000937          1400 JT4210               2AZ
468498000468498               468498               170213EC     1400+00000+EC0000005787+0000005787+000000000+000000811+0000006598+0000000000+I40000006598+0000000000+Z
468498001468498486-001012     468498006001023820907CLOCK ALARM SQR 10X12CM0000001000+00004385+00000+0001T   00004385+0000000940          1400 JT4510               2AZ
468498002468498046-000011     468498004897006172994BATTERIES SIZE:AA  2PCE0000001000+00001402+00000+0001T   00001402+0000000940          1400 JT4312               2AZ
468499000468499               468499               170213EC     1400+00000+EC0000016656+0000016656+000000000+000002337+0000018990+0000000003+I20000000000+0000018990+Z
468499001468499079-013032-D   468499006003000389643RIBBONS                0000001000+00002630+00000+0001T   00002630+0000000957          1400 JT4130               2AZ
468499002468499368-000701     468499006003000477432PLUSH DOG              0000001000+00006139+00000+0001T   00006139+0000000957          1400 JT4745               2AZ
468499003468499007-000890-17  468499006003000645671CALENDAR 2017 ASSTD    0000001000+00006139+00000+0001T   00006139+0000000957          1400 JT4130               2AZ
468499004468499080-000133     468499006003000535613CARD&ENV MINI ASTD DSGN0000004000+00000437+00000+0001T   00000437+0000000957          1400 JT4112               2AZ
468500000468500               468500               170213EC     1400+00000+EC0000008021+0000008021+000000000+000001125+0000009140+0000000006+I20000000000+0000009140+Z
468500001468500903-000183     468500006003000451043SWT LB HEART LOLLY     0000001000+00000393+00000+0001T   00000393+0000001003          1400 JT4150               2AZ
468500002468500368-000001     468500006003000097982Plush Bear 25cm        0000001000+00004385+00000+0001T   00004385+0000001003          1400 JT4745               2AZ
468500003468500077-000303     468500006001023593757GIFT-BAG PAPER MED     0000001000+00001578+00000+0001T   00001578+0000001003          1400 JT4112               2AZ
468500004468500047-000504-H   468500006001023589958PLUG EURODAPTOR 2PIN HH0000001000+00001665+00000+0001T   00001665+0000001003          1400 JT4880               2AZ
468501000468501               468501               170213EC     1400+00000+EC0000008803+0000008803+000000000+000001233+0000010036+0000000000+I40000010036+0000000000+Z
468501001468501031-000002-A   468501006003000247103P/FRAME LOVE 7.5X7.5CM 0000001000+00003507+00000+0001T   00003507+0000001004          1400 JT4510               2AZ
468501002468501089-060027     468501006003000245871KEY-CHAIN HEART 6X6cm  0000001000+00003069+00000+0001T   00003069+0000001004          1400 JT4205               2AZ
468501003468501080-000127     468501006003000424351VALENTINES DAY 36x24CM 0000001000+00002192+00000+0001T   00002192+0000001004          1400 JT4112               2AZ
468501004468501112-116038     468501006009681820246TCS CARRIER BAG MIDI   0000001000+00000035+00000+0001T   00000035+0000001004          1400 JT4090               2AZ
468502000468502               468502               170213EC     1400+00000+EC0000004385+0000004385+000000000+000000614+0000004990+0000000009+I20000000000+0000004990+Z
468502001468502082-007587     468502006003000654338SUNGLASS DESIGNER ASST 0000001000+00004385+00000+0001T   00004385+0000001009          1400 JT4160               2AZ
468503000468503               468503               170213EC     1400+00000+EC0000007015+0000007015+000000000+000000983+0000007990+0000000008+I20000000000+0000007990+Z
468503001468503072-020352     468503006003000561667DOG/CAT BOWL PL 19cm   0000001000+00003069+00000+0001T   00003069+0000001011          1400 JT4870               2AZ
468503002468503082-000386     468503006001023718211SPEC-CASE ZIP-OPENING  0000001000+00003946+00000+0001T   00003946+0000001011          1400 JT4160               2AZ
468504000468504               468504               170213EC     1400+00000+EC0000010259+0000010259+000000000+000001437+0000011690+0000000006+I20000000000+0000011690+Z
468504001468504003-008016     468504006001023765000ORN GNOME STANDING 15CM0000001000+00003069+00000+0001T   00003069+0000001045          1400 JT4505               2AZ
468504002468504003-008010     468504006001023711373ORN FIG. FARMER ASST   0000001000+00005262+00000+0001T   00005262+0000001045          1400 JT4505               2AZ
468504003468504903-004963     468504008410525221873SWT GUMMY SOUR COLA 50g0000002000+00000964+00000+0001T   00000964+0000001045          1400 JT4150               2AZ
468505000468505               468505               170213EC     1400+00000+EC0000011397+0000011397+000000000+000001598+0000012995+0000000000+I40000012995+0000000000+Z
468505001468505077-000302     468505008010410010195GIFT-BAG 18X23CM E/D   0000004000+00000876+00000+0001T   00000876+0000001051          1400 JT4112               2AZ
468505002468505174-000001     468505006001023759412SHOE/CLOTHES-STORER    0000001000+00007893+00000+0001T   00007893+0000001051          1400 JT4205               2AZ
468506000468506               468506               170213EC     1400+00000+EC0000028988+0000028988+000000000+000004061+0000033049+0000000000+I40000033049+0000000000+Z
468506001468506263-000800     468506006003000332281TRUCK PL CONSTRUCTION  0000001000+00011402+00000+0001T   00011402+0000001053          1400 JT4710               2AZ
468506002468506262-000018     468506006003000644506DIE CAST CAR 8.2cm     0000001000+00003507+00000+0001T   00003507+0000001053          1400 JT4710               2AZ
468506003468506264-000922     468506000090159250012MAISTO CAR PULL-BACK   0000002000+00006139+00000+0001T   00007016+0008191053          1400 JT4710               2AZ
468506004468506903-000211     468506006002099001238SWT GS MALLOW ICE CREAM0000001000+00001753+00000+0001T   00001753+0000001053          1400 JT4150               2AZ
468506005468506112-116069     468506006009681820277TCS CARRIER BAG JUMBO  0000001000+00000048+00000+0001T   00000048+0000001053          1400 JT4090               2AZ
468507000468507               468507               170213EC     1400+00000+EC0000014945+0000014945+000000000+000002093+0000017038+0000000000+I40000017038+0000000000+Z
468507001468507368-000265     468507006001023750914PLUSH BEAR 23CM ASSTD C0000001000+00006139+00000+0001T   00006139+0000001055          1400 JT4745               2AZ
468507002468507039-000799     468507006001023692382CANDLES TEALITE 100PCE 0000001000+00008771+00000+0001T   00008771+0000001055          1400 JT4510               2AZ
468507003468507112-116038     468507006009681820246TCS CARRIER BAG MIDI   0000001000+00000035+00000+0001T   00000035+0000001055          1400 JT4090               2AZ
468508000468508               468508               170213EC     1400+00000+EC0000009378+0000009378+000000000+000001315+0000010690+0000000003+I20000000000+0000010690+Z
468508001468508077-000299     468508006003000395576G/BAG 32x25cm LRG LOVE 0000001000+00001490+00000+0001T   00001490+0000001056          1400 JT4112               2AZ
468508002468508030-000031-A   468508006003000457588PLAQUE W/WORDS ASSTD   0000001000+00004385+00000+0001T   00004823+0006471056          1400 JT4505               2AZ
468508003468508903-000844     468508005010478432567SWT CANDY DL LUV HEARTS0000001000+00001314+00000+0001T   00001314+0000001056          1400 JT4150               2AZ
468508004468508206-000590     468508006003000633708BAG CLIPS LIPS 2PC     0000001000+00001753+00000+0001T   00001753+0000001056          1400 JT4321               2AZ
468508005468508903-000671     468508006009803358015SWT SHERBET BLUE LIPS  0000001000+00000218+00000+0001T   00000218+0000001056          1400 JT4150               2AZ
468508006468508903-000670     468508006009803358008SWT SHERBET RED LIPS   0000001000+00000218+00000+0001T   00000218+0000001056          1400 JT4150               2AZ
468509000468509               468509               170213EC     1400+00000+EC0000009426+0000009426+000000000+000001321+0000010747+0000000000+I40000010747+0000000000+Z
468509001468509566-001012     468509006001023528070STICKERS GLOW IN DARK  0000003000+00001314+00000+0001T   00001314+0000001102          1400 JT4130               2AZ
468509002468509024-000092     468509006003000426805MEASURING-SET 6PC      0000001000+00003946+00000+0001T   00003946+0000001102          1400 JT4300               2AZ
468509003468509106-008105     468509006009654960566S/DRESSING BOTTLE 500ml0000001000+00001490+00000+0001T   00001490+0000001102          1400 JT4210               2AZ
468509004468509112-116069     468509006009681820277TCS CARRIER BAG JUMBO  0000001000+00000048+00000+0001T   00000048+0000001102          1400 JT4090               2AZ
468510000468510               468510               170213EC     1400+00000+EC0000010518+0000010518+000000000+000001476+0000011990+0000000004+I20000000000+0000011990+Z
468510001468510903-000624     468510006003000671793SWEET LOLLY BLU/BRRY   0000003000+00001753+00000+0001T   00001753+0000001105          1400 JT4150               2AZ
468510002468510903-000619     468510006003000672455SWT LOLLY STR/BRRY 140G0000001000+00001753+00000+0001T   00001753+0000001105          1400 JT4150               2AZ
468510003468510077-000309     468510006001023608604GIFT-BAG 25X32CM GLOSS 0000002000+00001753+00000+0001T   00001753+0000001105          1400 JT4112               2AZ
468511000468511               468511               170213EC     1400+00000+EC0000009647+0000009647+000000000+000001351+0000010990+0000000008+I20000000000+0000010990+Z
468511001468511562-006274     468511006001023744432EDU SKETCH-BOARD       0000001000+00005262+00000+0001T   00005262+0000001107          1400 JT4755               2AZ
468511002468511079-130010     468511006003000496624ART+CRAFT FOAM DOLLS   0000001000+00004385+00000+0001T   00004385+0000001107          1400 JT4130               2AZ
468512000468512               468512               170213EC     1400+00000+EC0000007890+0000007890+000000000+000001107+0000008997+0000000000+I40000008997+0000000000+Z
468512001468512200-000031-A   468512006003000598717DISPOSABLE ROLL FOIL   0000002000+00002630+00000+0001T   00002630+0000001116          1400 JT4214               2AZ
468512002468512200-000035     468512006001023768810FOOD-BOWL-COVERS 5PCE  0000001000+00002630+00000+0001T   00002630+0000001116          1400 JT4214               2AZ
468513000468513               468513               170213EC     1400+00000+EC0000003681+0000003681+000000000+000000516+0000004190+0000000007+I20000000000+0000004190+Z
468513001468513077-000151     468513006008766114676GIFT-WRAP C/PHANE ASSTD0000001000+00000876+00000+0001T   00000876+0000001117          1400 JT4112               2AZ
468513002468513077-000321     468513006001023677501GIFT-BAG 11X14CM E/D FL0000001000+00000613+00000+0001T   00000613+0000001117          1400 JT4112               2AZ
468513003468513206-000150     468513006003000628667SLICER CUCUMBER        0000001000+00002192+00000+0001T   00002192+0000001117          1400 JT4321               2AZ
468514000468514               468514               170213EC     1400+00000+EC0000026310+0000026310+000000000+000003684+0000029990+0000000004+I20000000000+0000029990+Z
468514001468514079-001001     468514006003000448593CANVAS A3 WOOD MOUNTED 0000006000+00004385+00000+0001T   00004385+0000001119          1400 JT4130               2AZ
468515000468515               468515               170213EC     1400+00000+EC0000011534+0000011534+000000000+000001616+0000013150+0000000000+I20000000000+0000013150+Z
468515001468515564-001028     468515006001023708663BUBBLE CELEBRATION 6ml 0000001000+00003069+00000+0001T   00003069+0000001120          1400 JT4131               2AZ
468515002468515079-000286     468515006001023797032FINGER-PAINT 4PCE      0000001000+00003507+00000+0001T   00003507+0000001120          1400 JT4130               2AZ
468515003468515266-000607     468515006003000657339BOYS PLAYSET FOAM SET  0000002000+00002455+00000+0001T   00002455+0000001120          1400 JT4710               2AZ
468515004468515112-116069     468515006009681820277TCS CARRIER BAG JUMBO  0000001000+00000048+00000+0001T   00000048+0000001120          1400 JT4090               2AZ
468516000468516               468516               170213EC     1400+00000+EC0000006133+0000006133+000000000+000000861+0000006990+0000000004+I20000000000+0000006990+Z
468516001468516077-000240     468516006003000326259G/RIBBON 4PC PEARLIZED 0000001000+00001753+00000+0001T   00001753+0000001124          1400 JT4112               2AZ
468516002468516077-000150-D   468516006003000054343GIFT-WRAP CELLPHANE CLR0000005000+00000876+00000+0001T   00000876+0000001124          1400 JT4112               2AZ
468517000468517               468517               170213EC     1400+00000+EC0000002630+0000002630+000000000+000000369+0000002990+0000000009+I20000000000+0000002990+Z
468517001468517368-000040     468517006003000671786PLUSH ICONS 7.5cm      0000001000+00002630+00000+0001T   00002630+0000001125          1400 JT4745               2AZ
468518000468518               468518               170213EC     1400+00000+EC0000001179+0000001179+000000000+000000168+0000001347+0000000000+I40000001347+0000000000+Z
468518001468518903-000183     468518006003000451043SWT LB HEART LOLLY     0000003000+00000393+00000+0001T   00000393+0000001137          1400 JT4150               2AZ
468519000468519               468519               170213EC     1400+00000+EC0000001753+0000001753+000000000+000000246+0000001990+0000000009+I20000000000+0000001990+Z
468519001468519301-085006     468519006001023502940ORN LOVE MSG TUBE W/HRT0000001000+00001753+00000+0001T   00001753+0000001148          1400 JT4505               2AZ
468520000468520               468520               170213EC     1400+00000+EC0000008451+0000008451+000000000+000001185+0000009630+0000000006+I20000000000+0000009630+Z
468520001468520084-000895     468520006003000576968NAIL FILES 4PC INCL    0000001000+00002630+00000+0001T   00002630+0000001149          1400 JT4200               2AZ
468520002468520072-000234     468520006003000691487DOG-COLLAR REFLECTIVE  0000001000+00002192+00000+0001T   00002192+0000001149          1400 JT4870               2AZ
468520003468520077-000399     468520006003000139514GIFT BAG 18X23CM E/DAY 0000001000+00001490+00000+0001T   00001490+0000001149          1400 JT4112               2AZ
468520004468520903-000095     468520006001704011495SWT SPECKLED-EGGS 100G 0000001000+00002104+00000+0001T   00002104+0000001149          1400 JT4150               2AZ
468520005468520112-116038     468520006009681820246TCS CARRIER BAG MIDI   0000001000+00000035+00000+0001T   00000035+0000001149          1400 JT4090               2AZ
468521000468521               468521               170213EC     1400+00000+EC0000007892+0000007892+000000000+000001105+0000008990+0000000007+I20000000000+0000008990+Z
468521001468521261-003342     468521006001023484895GUN RIFLE ACTION-TEAM  0000001000+00004385+00000+0001T   00004385+0000001151          1400 JT4710               2AZ
468521002468521560-000300     468521006001023714879DINOSAURS 12PC         0000001000+00003507+00000+0001T   00003507+0000001151          1400 JT4745               2AZ
468522000468522               468522               170213EC     1400+00000+EC0000003507+0000003507+000000000+000000491+0000003990+0000000008+I20000000000+0000003990+Z
468522001468522261-000947     468522006001023832610GUN FRICTION           0000001000+00003507+00000+0001T   00003507+0000001152          1400 JT4710               2AZ
468523000468523               468523               170213EC     1400+00000+EC0000067950+0000067950+000000000+000009527+0000077477+0000000000+I40000077477+0000000000+Z
468523001468523006-000788     468523006001023990228CROWN HAPPY BIRTHDAY   0000001000+00001490+00000+0001T   00001490+0000001157          1400 JT4131               2AZ
468523002468523112-116069     468523006009681820277TCS CARRIER BAG JUMBO  0000002000+00000048+00000+0001T   00000048+0000001157          1400 JT4090               2AZ
468523003468523039-000319-7   468523006003000443109B/CANDLES LRG NUMBER-7 0000001000+00000876+00000+0001T   00000876+0000001157          1400 JT4510               2AZ
468523004468523039-000319-1   468523006003000442386B/CANDLES LRG NUMBER-1 0000002000+00000876+00000+0001T   00000876+0000001157          1400 JT4510               2AZ
468523005468523039-000319-3   468523006003000442621B/CANDLES LRG NUMBER-3 0000001000+00000876+00000+0001T   00000876+0000001157          1400 JT4510               2AZ
468523006468523039-000320     468523006001023816153BIRTHDAY-CANDLES 13PCE 0000001000+00002630+00000+0001T   00002630+0000001157          1400 JT4510               2AZ
468523007468523006-000165     468523006001023758392BALLOONS LRG BAG-OF-1000000001000+00008771+00000+0001T   00008771+0000001157          1400 JT4131               2AZ
468523008468523006-000104     468523006001023990112BALLOONS 40PC AIR PUMP 0000001000+00002630+00000+0001T   00002630+0000001157          1400 JT4131               2AZ
468523009468523039-000319-9   468523006003000443345B/CANDLES LRG NUMBER-9 0000001000+00000876+00000+0001T   00000876+0000001157          1400 JT4510               2AZ
468523010468523071-000307     468523006003000535118RULER FLEXI 30cm       0000001000+00001490+00000+0001T   00001490+0000001157          1400 JT4130               2AZ
468523011468523071-004200     468523006001023835901SAFETY SCISSOR         0000001000+00001753+00000+0001T   00001753+0000001157          1400 JT4130               2AZ
468523012468523079-000300     468523006001023902245PAINTSET LEARN TO PAINT0000001000+00002630+00000+0001T   00002630+0000001157          1400 JT4130               2AZ
468523013468523071-081104-A   468523006003000326662GLUE-STICK 8g CRD-OF-3 0000001000+00001227+00000+0001T   00001227+0000001157          1400 JT4130               2AZ
468523014468523071-003853     468523006001023715579PENCIL BASIC HB 12PCE  0000001000+00001753+00000+0001T   00001753+0000001157          1400 JT4130               2AZ
468523015468523079-000013     468523006001023463890P/CRAYONS 24COL 18cm   0000001000+00003507+00000+0001T   00003507+0000001157          1400 JT4130               2AZ
468523016468523079-000510     468523006001023509079CRAYONS WAX 12-COLOUR  0000001000+00002455+00000+0001T   00002455+0000001157          1400 JT4130               2AZ
468523017468523079-002909     468523006003000639410ART+CRAFT MAGIC MARKERS0000001000+00002630+00000+0001T   00002630+0000001157          1400 JT4130               2AZ
468523018468523071-001002     468523006003000217540PENCIL-SHARPNER DOUBLE 0000001000+00001578+00000+0001T   00001578+0000001157          1400 JT4130               2AZ
468523019468523071-003850     468523006001023893253PENCIL 5PCE RAINBOW WDN0000001000+00002630+00000+0001T   00002630+0000001157          1400 JT4130               2AZ
468523020468523071-002909     468523006003000612888PENCIL MECHANICAL 0.5MM0000001000+00001753+00000+0001T   00001753+0000001157          1400 JT4130               2AZ
468523021468523071-000001-A   468523006003000129607PENCIL LEAD 0.5mm  2PK 0000001000+00000788+00000+0001T   00000788+0000001157          1400 JT4130               2AZ
468523022468523071-008229     468523006003000216017PENCIL-BAG ASTD COL A5 0000002000+00001753+00000+0001T   00001753+0000001157          1400 JT4130               2AZ
468523023468523071-000306     468523006001023715371STENCILS ART FUN SET   0000002000+00003507+00000+0001T   00003507+0000001157          1400 JT4130               2AZ
468523024468523071-000307     468523006003000535118RULER FLEXI 30cm       0000001000+00001490+00000+0001T   00001490+0000001157          1400 JT4130               2AZ
468523025468523071-001002     468523006003000217540PENCIL-SHARPNER DOUBLE 0000001000+00001578+00000+0001T   00001578+0000001157          1400 JT4130               2AZ
468523026468523071-000307     468523006003000535118RULER FLEXI 30cm       0000001000+00001490+00000+0001T   00001490+0000001157          1400 JT4130               2AZ
468523027468523071-000001-A   468523006003000129607PENCIL LEAD 0.5mm  2PK 0000001000+00000788+00000+0001T   00000788+0000001157          1400 JT4130               2AZ
468523028468523562-000019     468523006001023800305EDU PLAY DOUGH BOXED   0000001000+00007893+00000+0001T   00008771+0008191157          1400 JT4755               2AZ
468524000468524               468524               170213EC     1400+00000+EC0000018108+0000018108+000000000+000002540+0000020648+0000000000+I40000020648+0000000000+Z
468524001468524039-000318     468524006003000406159B/DAY CANDLES SMALL NO 0000001000+00001753+00000+0001T   00001753+0000001159          1400 JT4510               2AZ
468524002468524203-006502     468524006003000257454DRINK STIRRERS ASSTD   0000001000+00002630+00000+0001T   00002630+0000001159          1400 JT4300               2AZ
468524003468524105-007022     468524006003000684892CONTAINER ROUND CLR 2L 0000002000+00002630+00000+0001T   00002630+0000001159          1400 JT4210               2AZ
468524004468524002-000016     468524006001023760173CAPPUCCINO-FROTHER B/O 0000001000+00002630+00000+0001T   00002630+0000001159          1400 JT4300               2AZ
468524005468524012-000003     468524006003000331192 MICROWAVE CORN STEAMER0000001000+00004385+00000+0001T   00004385+0000001159          1400 JT4300               2AZ
468524006468524112-116069     468524006009681820277TCS CARRIER BAG JUMBO  0000001000+00000048+00000+0001T   00000048+0000001159          1400 JT4090               2AZ
468524007468524046-000011     468524004897006172994BATTERIES SIZE:AA  2PCE0000001000+00001402+00000+0001T   00001402+0000001159          1400 JT4312               2AZ
468525000468525               468525               170213EC     1400+00000+EC0000002630+0000002630+000000000+000000369+0000002990+0000000009+I20000000000+0000002990+Z
468525001468525567-075699     468525006003000641277BK NOVEL CATEGORY A    0000001000+00002630+00000+0001T   00003069+0008191202          1400 JT4757               2AZ
468526000468526               468526               170213EC     1400+00000+EC0000024845+0000024845+000000000+000003485+0000028330+0000000000+I20000000000+0000028330+Z
468526001468526019-071601     468526006001023771995RIVER-STONES 1kg WHITE 0000002000+00002630+00000+0001T   00002630+0000001204          1400 JT4510               2AZ
468526002468526019-071606     468526006003000678891PEBBLES 500G 3MM WHITE.0000002000+00001490+00000+0001T   00001490+0000001204          1400 JT4510               2AZ
468526003468526039-000100     46852600600300060614625CM WHITE CANDLE 6PC  0000002000+00002630+00000+0001T   00002630+0000001204          1400 JT4510               2AZ
468526004468526039-082106     468526006001023847348C/VOTIVE 8PC VANILLA   0000002000+00005262+00000+0001T   00005262+0000001204          1400 JT4510               2AZ
468526005468526112-116038     468526006009681820246TCS CARRIER BAG MIDI   0000001000+00000035+00000+0001T   00000035+0000001204          1400 JT4090               2AZ
468526006468526903-000183     468526006003000451043SWT LB HEART LOLLY     0000002000+00000393+00000+0001T   00000393+0000001204          1400 JT4150               2AZ
468527000468527               468527               170213EC     1400+00000+EC0000003945+0000003945+000000000+000000553+0000004498+0000000000+I40000004498+0000000000+Z
468527001468527077-000299-A   468527006003000670888GIFT-BAG PAPER JMB LOVE0000001000+00001753+00000+0001T   00001753+0000001311          1400 JT4112               2AZ
468527002468527080-000127     468527006003000424351VALENTINES DAY 36x24CM 0000001000+00002192+00000+0001T   00002192+0000001311          1400 JT4112               2AZ
468528000468528               468528               170213EC     1400+00000+EC0000002980+0000002980+000000000+000000418+0000003398+0000000000+I40000003398+0000000000+Z
468528001468528077-000245     468528006001023759214GIFT-RIBBON METALLICx2 0000001000+00001227+00000+0001T   00001227+0000001313          1400 JT4112               2AZ
468528002468528077-000240     468528006003000326259G/RIBBON 4PC PEARLIZED 0000001000+00001753+00000+0001T   00001753+0000001313          1400 JT4112               2AZ
468529000468529               468529               170213EC     1400+00000+EC0000007174+0000007174+000000000+000001009+0000008183+0000000000+I40000008183+0000000000+Z
468529001468529071-030012     468529006003000283842PEN NVLTY GLITTER 6PC  0000001000+00002630+00000+0001T   00002630+0000001315          1400 JT4130               2AZ
468529002468529077-000315     468529006003000181186GIFT-BAG 20x28cm MATT  0000001000+00001578+00000+0001T   00001578+0000001315          1400 JT4112               2AZ
468529003468529077-000314     468529006003000181148GIFT-BAG 11X14CM MATT  0000002000+00000876+00000+0001T   00000876+0000001315          1400 JT4112               2AZ
468529004468529903-000183     468529006003000451043SWT LB HEART LOLLY     0000003000+00000393+00000+0001T   00000393+0000001315          1400 JT4150               2AZ
468529005468529112-116038     468529006009681820246TCS CARRIER BAG MIDI   0000001000+00000035+00000+0001T   00000035+0000001315          1400 JT4090               2AZ
468530000468530               468530               170213EC     1400+00000+EC0000002192+0000002192+000000000+000000307+0000002490+0000000009+I20000000000+0000002490+Z
468530001468530080-000127     468530006003000424351VALENTINES DAY 36x24CM 0000001000+00002192+00000+0001T   00002192+0000001324          1400 JT4112               2AZ
468531000468531               468531               170213EC     1400+00000+EC0000001179+0000001179+000000000+000000168+0000001340+0000000007+I20000000000+0000001340+Z
468531001468531903-000183     468531006003000451043SWT LB HEART LOLLY     0000003000+00000393+00000+0001T   00000393+0000001333          1400 JT4150               2AZ
468532000468532               468532               170213EC     1400+00000+EC0000005434+0000005434+000000000+000000762+0000006190+0000000006+I20000000000+0000006190+Z
468532001468532018-000136     468532006001023659026MUG OCC LOVE W/PLUSH   0000001000+00003507+00000+0001T   00003507+0000001333          1400 JT4515               2AZ
468532002468532903-002853     468532000000087108019MENTOS ROLL MINT       0000001000+00001051+00000+0001T   00001051+0000001333          1400 JT4150               2AZ
468532003468532903-000483     468532006001704001410SWT LIQUOR SML SORT 60G0000001000+00000876+00000+0001T   00000876+0000001333          1400 JT4150               2AZ
468533000468533               468533               170213EC     1400+00000+EC0000002751+0000002751+000000000+000000392+0000003140+0000000003+I20000000000+0000003140+Z
468533001468533903-000183     468533006003000451043SWT LB HEART LOLLY     0000007000+00000393+00000+0001T   00000393+0000001337          1400 JT4150               2AZ
468534000468534               468534               170213EC     1400+00000+EC0000001753+0000001753+000000000+000000246+0000001999+0000000000+I40000001999+0000000000+Z
468534001468534491-059642     468534000078257596423INTEX ARMBAND 6-12YRS  0000001000+00001753+00000+0001T   00001753+0000001340          1400 JT47873IC            2AZ
468535000468535               468535               170213EC     1400+00000+EC0000005390+0000005390+000000000+000000756+0000006146+0000000000+I40000006146+0000000000+Z
468535001468535018-005009     468535006001023725608MUG W/PLUSH-BEAR LOVE  0000001000+00003507+00000+0001T   00003507+0000001342          1400 JT4515               2AZ
468535002468535077-000299     468535006003000395576G/BAG 32x25cm LRG LOVE 0000001000+00001490+00000+0001T   00001490+0000001342          1400 JT4112               2AZ
468535003468535903-000183     468535006003000451043SWT LB HEART LOLLY     0000001000+00000393+00000+0001T   00000393+0000001342          1400 JT4150               2AZ
468536000468536               468536               170213EC     1400+00000+EC0000016463+0000016463+000000000+000002314+0000018770+0000000007+I20000000000+0000018770+Z
468536001468536077-000240     468536006003000326259G/RIBBON 4PC PEARLIZED 0000001000+00001753+00000+0001T   00001753+0000001346          1400 JT4112               2AZ
468536002468536080-000110     468536006003000237326CARD&ENVLPE BDAY-FUNNY 0000001000+00001753+00000+0001T   00001753+0000001346          1400 JT4112               2AZ
468536003468536080-000100     468536006003000236114CARD & ENVELOPE BDAY   0000001000+00001753+00000+0001T   00001753+0000001346          1400 JT4112               2AZ
468536004468536006-000171-K   468536006003000609697BALLOONS 1PC PURPLE PRN0000004000+00000218+00000+0001T   00000218+0000001346          1400 JT4131               2AZ
468536005468536006-000171-A   468536006003000608935BALLOONS 1PC PINK PRNT 0000004000+00000218+00000+0001T   00000218+0000001346          1400 JT4131               2AZ
468536006468536006-001000     468536006003000093779HELIUM BALLOON FILL    0000008000+00000613+00000+0001T   00000613+0000001346          1400 JT4131               2AZ
468536007468536903-000699     468536006002099007018SWT CANDY FRUIT CHEWS  0000002000+00001139+00000+0001T   00001139+0000001346          1400 JT4150               2AZ
468536008468536903-000087     468536006001704000161SWT SPECKLED-EGGS 50G  0000002000+00001139+00000+0001T   00001139+0000001346          1400 JT4150               2AZ
468537000468537               468537               170213EC     1400+00000+EC0000002665+0000002665+000000000+000000374+0000003039+0000000000+I40000003039+0000000000+Z
468537001468537112-116038     468537006009681820246TCS CARRIER BAG MIDI   0000001000+00000035+00000+0001T   00000035+0000001348          1400 JT4090               2AZ
468537002468537032-000235     468537006001023468444MIRROR HAND 13X15CM    0000001000+00002630+00000+0001T   00002630+0000001348          1400 JT4510               2AZ
468538000468538               468538               170213EC     1400+00000+EC0000006136+0000006136+000000000+000000861+0000006997+0000000000+I40000006997+0000000000+Z
468538001468538036-000010     468538006003000675777LINT REMOVER STICKY    0000002000+00001753+00000+0001T   00001753+0000001353          1400 JT4212               2AZ
468538002468538073-000157     468538006003000571734COSMETIC QUILTED BAG   0000001000+00002630+00000+0001T   00002630+0000001353          1400 JT4200               2AZ
468539000468539               468539               170213EC     1400+00000+EC0000007047+0000007047+000000000+000000989+0000008036+0000000000+I40000008036+0000000000+Z
468539001468539072-020359     468539006003000399758PET DOG/CAT BOWL SMALL 0000004000+00001753+00000+0001T   00001753+0000001354          1400 JT4870               2AZ
468539002468539112-116038     468539006009681820246TCS CARRIER BAG MIDI   0000001000+00000035+00000+0001T   00000035+0000001354          1400 JT4090               2AZ
468540000468540               468540               170213EC     1400+00000+EC0000011400+0000011400+000000000+000001597+0000012990+0000000007+I20000000000+0000012990+Z
468540001468540016-006512     468540006001023908032S/JAR GLS EAPPLE 3.7L  0000001000+00007016+00000+0001T   00007016+0000001355          1400 JT4300               2AZ
468540002468540033-000002     468540006003000621781TINTING BOTTLES 2PC    0000002000+00002192+00000+0001T   00002192+0000001355          1400 JT4200               2AZ
468541000468541               468541               170213EC     1400+00000+EC0000001753+0000001753+000000000+000000246+0000001990+0000000009+I20000000000+0000001990+Z
468541001468541077-000309     468541006001023608604GIFT-BAG 25X32CM GLOSS 0000001000+00001753+00000+0001T   00001753+0000001400          1400 JT4112               2AZ
468542000468542               468542               170213EC     1400+00000+EC0000003506+0000003506+000000000+000000492+0000003998+0000000000+I40000003998+0000000000+Z
468542001468542077-000309     468542006001023608604GIFT-BAG 25X32CM GLOSS 0000001000+00001753+00000+0001T   00001753+0000001401          1400 JT4112               2AZ
468542002468542080-000107     468542006003000237081CARD&ENVELPE BDAY BOY  0000001000+00001753+00000+0001T   00001753+0000001401          1400 JT4112               2AZ
468543000468543               468543               170213EC     1400+00000+EC0000008329+0000008329+000000000+000001168+0000009497+0000000000+I40000009497+0000000000+Z
468543001468543200-003026     468543006003000276448REFUSE BAGS 10PCE GREEN0000001000+00001753+00000+0001T   00001753+0000001403          1400 JT4214               2AZ
468543002468543032-000235     468543006001023468444MIRROR HAND 13X15CM    0000001000+00002630+00000+0001T   00002630+0000001403          1400 JT4510               2AZ
468543003468543036-000013     468543006001246500860LINT REMOVER REFILLS   0000001000+00003946+00000+0001T   00003946+0000001403          1400 JT4212               2AZ
468544000468544               468544               170213EC     1400+00000+EC0000001139+0000001139+000000000+000000160+0000001290+0000000009+I20000000000+0000001290+Z
468544001468544046-000014     468544006001023725387BATTERIES SIZE:AAA 4PCE0000001000+00001139+00000+0001T   00001139+0000001403          1400 JT4312               2AZ
468545000468545               468545               170213EC     1400+00000+EC0000021530+0000021530+000000000+000003017+0000024547+0000000000+I40000024547+0000000000+Z
468545001468545077-000309     468545006001023608604GIFT-BAG 25X32CM GLOSS 0000002000+00001753+00000+0001T   00001753+0000001407          1400 JT4112               2AZ
468545002468545024-091103     468545006003453014307BAKING-CUP MUFFIN 50PCE0000001000+00002192+00000+0001T   00002192+0000001407          1400 JT4300               2AZ
468545003468545024-000175     468545006003000120765SILICONE C/PAN 12-CUPS 0000001000+00010525+00000+0001T   00010525+0000001407          1400 JT4300               2AZ
468545004468545024-091106     468545006003000443130C/STAND PAPER 3-TIER   0000001000+00003507+00000+0001T   00003507+0000001407          1400 JT4300               2AZ
468545005468545112-116069     468545006009681820277TCS CARRIER BAG JUMBO  0000001000+00000048+00000+0001T   00000048+0000001407          1400 JT4090               2AZ
468545006468545077-000150-D   468545006003000054343GIFT-WRAP CELLPHANE CLR0000002000+00000876+00000+0001T   00000876+0000001407          1400 JT4112               2AZ
468546000468546               468546               170213EC     1400+00000+EC0000003944+0000003944+000000000+000000553+0000004490+0000000007+I20000000000+0000004490+Z
468546001468546071-001362     468546006003000589258HIGHLIGHTER 4 PACK     0000001000+00002630+00000+0001T   00002630+0000001408          1400 JT4130               2AZ
468546002468546007-000209     468546006001023582102NOTE STICKY FILE MARKER0000001000+00001314+00000+0001T   00001314+0000001408          1400 JT4130               2AZ
468547000468547               468547               170213EC     1400+00000+EC0000003067+0000003067+000000000+000000430+0000003490+0000000007+I20000000000+0000003490+Z
468547001468547566-001012     468547006001023528070STICKERS GLOW IN DARK  0000001000+00001314+00000+0001T   00001314+0000001411          1400 JT4130               2AZ
468547002468547566-000362     468547006003000583065STICKER LETTER & NUMBER0000001000+00001753+00000+0001T   00001753+0000001411          1400 JT4130               2AZ
468548000468548               468548               170213EC     1400+00000+EC0000005260+0000005260+000000000+000000737+0000005990+0000000007+I20000000000+0000005990+Z
468548001468548018-000136     468548006001023659026MUG OCC LOVE W/PLUSH   0000001000+00003507+00000+0001T   00003507+0000001414          1400 JT4515               2AZ
468548002468548200-003024     468548006001023657299REFUSE BAGS 20PCE BLACK0000001000+00001753+00000+0001T   00001753+0000001414          1400 JT4214               2AZ
468549000468549               468549               170213EC     1400+00000+EC0000011620+0000011620+000000000+000001629+0000013249+0000000000+I40000013249+0000000000+Z
468549001468549072-020354     468549006001023649980DOG/CAT-BOWL LARGE     0000001000+00002630+00000+0001T   00002630+0000001418          1400 JT4870               2AZ
468549002468549036-000400     468549006001023886132CLOTHES-DRYER PL 8-PEG 0000001000+00002192+00000+0001T   00002192+0000001418          1400 JT4212               2AZ
468549003468549028-000400     468549006001023421661PLATE-HOLDERS 4PCE     0000001000+00001490+00000+0001T   00001490+0000001418          1400 JT4305               2AZ
468549004468549033-000119     468549006003000285563COMBS PL STYLING 3PC   0000001000+00001753+00000+0001T   00001753+0000001418          1400 JT4200               2AZ
468549005468549174-000314     468549006003000053575TRAVEL SEWING KIT      0000001000+00003507+00000+0001T   00003507+0000001418          1400 JT4205               2AZ
468549006468549112-116069     468549006009681820277TCS CARRIER BAG JUMBO  0000001000+00000048+00000+0001T   00000048+0000001418          1400 JT4090               2AZ
468550000468550               468550               170213EC     1400+00000+EC0000004329+0000004329+000000000+000000607+0000004936+0000000000+I40000004936+0000000000+Z
468550001468550903-000619     468550006003000672455SWT LOLLY STR/BRRY 140G0000001000+00001753+00000+0001T   00001753+0000001424          1400 JT4150               2AZ
468550002468550903-000510     468550006001704012621SWEET MS ZBDZ S/BERRY  0000001000+00001227+00000+0001T   00001227+0000001424          1400 JT4150               2AZ
468550003468550112-116038     468550006009681820246TCS CARRIER BAG MIDI   0000001000+00000035+00000+0001T   00000035+0000001424          1400 JT4090               2AZ
468550004468550006-000166-C   468550006003000516377BALLOONS LRG 6PC PINK  0000001000+00001314+00000+0001T   00001314+0000001424          1400 JT4131               2AZ
468551000468551               468551               170213EC     1400+00000+EC0000013814+0000013814+000000000+000001935+0000015749+0000000000+I40000015749+0000000000+Z
468551001468551566-000359     468551006003000582709STICKER BOOK LOVE SPARK0000001000+00002192+00000+0001T   00002192+0000001426          1400 JT4130               2AZ
468551002468551077-000299     468551006003000395576G/BAG 32x25cm LRG LOVE 0000001000+00001490+00000+0001T   00001490+0000001426          1400 JT4112               2AZ
468551003468551001-000175     468551006001023788108B/MUG GLS LOVE 380ML   0000001000+00004385+00000+0001T   00004385+0000001426          1400 JT4515               2AZ
468551004468551031-000874-B   468551006001023798831P/FRAME WDN P/BOX 13X180000001000+00004385+00000+0001T   00004385+0000001426          1400 JT4510               2AZ
468551005468551004-071280     468551006003000129959WRITABLE-CD SINGLE     0000001000+00001314+00000+0001T   00001314+0000001426          1400 JT4310               2AZ
468551006468551112-116069     468551006009681820277TCS CARRIER BAG JUMBO  0000001000+00000048+00000+0001T   00000048+0000001426          1400 JT4090               2AZ
468552000468552               468552               170213EC     1400+00000+EC0000006139+0000006139+000000000+000000860+0000006999+0000000000+I40000006999+0000000000+Z
468552001468552368-000265     468552006001023750914PLUSH BEAR 23CM ASSTD C0000001000+00006139+00000+0001T   00006139+0000001431          1400 JT4745               2AZ
468553000468553               468553               170213EC     1400+00000+EC0000010419+0000010419+000000000+000001461+0000011880+0000000000+I40000011880+0000000000+Z
468553001468553301-086007     468553006003000426706ORN OCC DAD WDN LETTERS0000001000+00004385+00000+0001T   00004385+0000001434          1400 JT4505               2AZ
468553002468553007-000326     468553006009699513833PAPER A4 80GSM 10'S BLK0000001000+00001402+00000+0001T   00001402+0000001434          1400 JT4130               2AZ
468553003468553007-000044     468553006009635831489DISPLAY-BOOK A4 10-PAGE0000001000+00001314+00000+0001T   00001314+0000001434          1400 JT4130               2AZ
468553004468553071-081112     468553006936198404945CORRECTION TAPE 10mx5mm0000001000+00001753+00000+0001T   00001753+0000001434          1400 JT4130               2AZ
468553005468553079-009700-D   468553006003000545711PAPER SIRIO A4 RED COL.0000005000+00000306+00000+0001T   00000306+0000001434          1400 JT4130               2AZ
468553006468553112-116038     468553006009681820246TCS CARRIER BAG MIDI   0000001000+00000035+00000+0001T   00000035+0000001434          1400 JT4090               2AZ
468554000468554               468554               170213EC     1400+00000+EC0000001753+0000001753+000000000+000000246+0000001990+0000000009+I20000000000+0000001990+Z
468554001468554077-000309     468554006001023608604GIFT-BAG 25X32CM GLOSS 0000001000+00001753+00000+0001T   00001753+0000001434          1400 JT4112               2AZ
468555000468555               468555               170213EC     1400+00000+EC0000003592+0000003592+000000000+000000504+0000004096+0000000000+I40000004096+0000000000+Z
468555001468555903-000121     468555006002099001689SWT GS ZILLIONS SOURS  0000001000+00000700+00000+0001T   00000700+0000001436          1400 JT4150               2AZ
468555002468555903-000087     468555006001704000161SWT SPECKLED-EGGS 50G  0000001000+00001139+00000+0001T   00001139+0000001436          1400 JT4150               2AZ
468555003468555080-000123     468555006003000237722CARD&ENVELOPE-SYMPATHY 0000001000+00001753+00000+0001T   00001753+0000001436          1400 JT4112               2AZ
468556000468556               468556               170213EC     1400+00000+EC0000021973+0000021973+000000000+000003077+0000025050+0000000000+I20000000000+0000025050+Z
468556001468556031-080508     468556006001023802415P/FRAME PL 22X11CM LOVE0000005000+00004385+00000+0001T   00004385+0000001437          1400 JT4510               2AZ
468556002468556112-116069     468556006009681820277TCS CARRIER BAG JUMBO  0000001000+00000048+00000+0001T   00000048+0000001437          1400 JT4090               2AZ
468557000468557               468557               170213EC     1400+00000+EC0000007892+0000007892+000000000+000001105+0000008990+0000000007+I20000000000+0000008990+Z
468557001468557072-020346     468557006003000453047PET DRY TOWEL M/FIBRE  0000001000+00004385+00000+0001T   00004385+0000001438          1400 JT4870               2AZ
468557002468557002-012271     468557006001023849120TONGS 23cm RUBBER-GRIP 0000001000+00003507+00000+0001T   00003507+0000001438          1400 JT4300               2AZ
468558000468558               468558               170213EC     1400+00000+EC0000026314+0000026314+000000000+000003684+0000029990+0000000008+I20000000000+0000029990+Z
468558001468558028-003602     468558006003000605224UMBRELLA-BEACH 200cm   0000002000+00013157+00000+0001T   00013157+0000001441          1400 JT4305               2AZ
468559000468559               468559               170213EC     1400+00000+EC0000003506+0000003506+000000000+000000492+0000003990+0000000008+I20000000000+0000003990+Z
468559001468559077-000316     468559006001023609731GIFT-BAG 25X32CM MATT  0000002000+00001753+00000+0001T   00001753+0000001443          1400 JT4112               2AZ
468560000468560               468560               170213EC     1400+00000+EC0000005120+0000005120+000000000+000000717+0000005830+0000000007+I20000000000+0000005830+Z
468560001468560018-000136     468560006001023659026MUG OCC LOVE W/PLUSH   0000001000+00003507+00000+0001T   00003507+0000001444          1400 JT4515               2AZ
468560002468560077-000303     468560006001023593757GIFT-BAG PAPER MED     0000001000+00001578+00000+0001T   00001578+0000001444          1400 JT4112               2AZ
468560003468560112-116038     468560006009681820246TCS CARRIER BAG MIDI   0000001000+00000035+00000+0001T   00000035+0000001444          1400 JT4090               2AZ
468561000468561               468561               170213EC     1400+00000+EC0000007838+0000007838+000000000+000001098+0000008930+0000000006+I20000000000+0000008930+Z
468561001468561108-000500     468561006003000667161TUMBLER DOUBLE WALL    0000001000+00004385+00000+0001T   00004385+0000001445          1400 JT4210               2AZ
468561002468561077-000312     468561006001023608697GIFT-BAG 10X35CM GLOSS 0000001000+00001314+00000+0001T   00001314+0000001445          1400 JT4112               2AZ
468561003468561903-000095     468561006001704011495SWT SPECKLED-EGGS 100G 0000001000+00002104+00000+0001T   00002104+0000001445          1400 JT4150               2AZ
468561004468561112-116038     468561006009681820246TCS CARRIER BAG MIDI   0000001000+00000035+00000+0001T   00000035+0000001445          1400 JT4090               2AZ
468562000468562               468562               170213EC     1400+00000+EC0000001752+0000001752+000000000+000000246+0000001990+0000000008+I20000000000+0000001990+Z
468562001468562077-000314     468562006003000181148GIFT-BAG 11X14CM MATT  0000001000+00000876+00000+0001T   00000876+0000001449          1400 JT4112               2AZ
468562002468562077-000011-C   468562006001023808523TISSUE 10xSHTS RED     0000001000+00000876+00000+0001T   00000876+0000001449          1400 JT4112               2AZ
468563000468563               468563               170213EC     1400+00000+EC0000000876+0000000876+000000000+000000123+0000000990+0000000009+I20000000000+0000000990+Z
468563001468563078-000025     468563008887013700064SUPERGLUE 3g 1PCE CARD 0000001000+00000876+00000+0001T   00000876+0000001449          1400 JT4810               2AZ
468564000468564               468564               170213EC     1400+00000+EC0000019120+0000019120+000000000+000002677+0000021797+0000000000+I40000021797+0000000000+Z
468564001468564072-020242     468564006003000053728PET BED COTTON TEXTILE 0000002000+00008771+00000+0001T   00008771+0000001450          1400 JT4870               2AZ
468564002468564024-000036     468564006001023477002MEASURING-JUG 500ml    0000001000+00001578+00000+0001T   00001578+0000001450          1400 JT4300               2AZ
468565000468565               468565               170213EC     1400+00000+EC0000005524+0000005524+000000000+000000774+0000006298+0000000000+I40000006298+0000000000+Z
468565001468565079-000802     468565006001023528902ART+CRAFT STICKS 100PCE0000001000+00002455+00000+0001T   00002455+0000001452          1400 JT4130               2AZ
468565002468565079-014152     468565006003000253074ART+CRAFT PK50 ASSTD   0000001000+00003069+00000+0001T   00003069+0000001452          1400 JT4130               2AZ
468566000468566               468566               170213EC     1400+00000+EC0000004910+0000004910+000000000+000000688+0000005590+0000000008+I20000000000+0000005590+Z
468566001468566562-000009     468566006001023460134PLAY MODELLING CARDED  0000002000+00002455+00000+0001T   00002455+0000001455          1400 JT4755               2AZ
468567000468567               468567               170213EC     1400+00000+EC0000001226+0000001226+000000000+000000172+0000001390+0000000008+I20000000000+0000001390+Z
468567001468567006-001000     468567006003000093779HELIUM BALLOON FILL    0000002000+00000613+00000+0001T   00000613+0000001500          1400 JT4131               2AZ
468568000468568               468568               170213EC     1400+00000+EC0000002584+0000002584+000000000+000000363+0000002940+0000000007+I20000000000+0000002940+Z
468568001468568006-000172-D   468568006003000609932METALLIC GOLD          0000001000+00000218+00000+0001T   00000218+0000001504          1400 JT4131               2AZ
468568002468568006-001000     468568006003000093779HELIUM BALLOON FILL    0000001000+00000613+00000+0001T   00000613+0000001504          1400 JT4131               2AZ
468568003468568077-000289     468568006001023901996GIFT BOX 20x25x11cm    0000001000+00001753+00000+0001T   00001753+0000001504          1400 JT4112               2AZ
468569000468569               468569               170213EC     1400+00000+EC0000013639+0000013639+000000000+000001911+0000015550+0000000000+I40000015550+0000000000+Z
468569001468569077-000299-A   468569006003000670888GIFT-BAG PAPER JMB LOVE0000001000+00001753+00000+0001T   00001753+0000001507          1400 JT4112               2AZ
468569002468569486-002307     468569006003000443086W/CLOCK QTZ PL ANTIQUE 0000001000+00008771+00000+0001T   00008771+0000001507          1400 JT4510               2AZ
468569003468569046-000014-A   468569004897006177708BATTERIES SIZE:AAA 8PCE0000001000+00001753+00000+0001T   00001753+0000001507          1400 JT4312               2AZ
468569004468569046-000012     468569006904708013062BATTERIES AA  CARD-OF-40000001000+00001314+00000+0001T   00001314+0000001507          1400 JT4312               2AZ
468569005468569112-116069     468569006009681820277TCS CARRIER BAG JUMBO  0000001000+00000048+00000+0001T   00000048+0000001507          1400 JT4090               2AZ
468570000468570               468570               170213EC     1400+00000+EC0000000613+0000000613+000000000+000000086+0000000690+0000000009+I20000000000+0000000690+Z
468570001468570006-001000     468570006003000093779HELIUM BALLOON FILL    0000001000+00000613+00000+0001T   00000613+0000001510          1400 JT4131               2AZ
468571000468571               468571               170213EC     1400+00000+EC0000003542+0000003542+000000000+000000496+0000004030+0000000008+I20000000000+0000004030+Z
468571001468571018-000136     468571006001023659026MUG OCC LOVE W/PLUSH   0000001000+00003507+00000+0001T   00003507+0000001518          1400 BN6515               2AZ
468571002468571112-116038     468571006009681820246TCS CARRIER BAG MIDI   0000001000+00000035+00000+0001T   00000035+0000001518          1400 BN6090               2AZ
468572000468572               468572               170213EC     1400+00000+EC0000019201+0000019201+000000000+000002692+0000021893+0000000000+I40000021893+0000000000+Z
468572001468572036-000151     468572006001023810588COATHANGERS    PACK-10 0000003000+00002893+00000+0001T   00002893+0000001520          1400 BN6212               2AZ
468572002468572038-092233     468572006003000328925TABLE-MAT N/SLIP ASST  0000002000+00003069+00000+0001T   00003507+0008191520          1400 BN6300               2AZ
468572003468572106-003130     468572006001023625755ICE CUBE TRAY 21-CUBE  0000002000+00002192+00000+0001T   00002192+0000001520          1400 BN6210               2AZ
468573000468573               468573               170213EC     1400+00000+EC0000006138+0000006138+000000000+000000860+0000006990+0000000008+I20000000000+0000006990+Z
468573001468573565-000889     468573006003000626953NOVELTY SPACE BALLOONS 0000001000+00001753+00000+0001T   00001753+0000001522          1400 BN6745               2AZ
468573002468573007-000578     468573006001023810175NOTES STATIONERY SET   0000001000+00004385+00000+0001T   00004385+0000001522          1400 BN6130               2AZ
468574000468574               468574               170213EC     1400+00000+EC0000001400+0000001400+000000000+000000196+0000001590+0000000006+I20000000000+0000001590+Z
468574001468574903-000121     468574006002099001689SWT GS ZILLIONS SOURS  0000001000+00000700+00000+0001T   00000700+0000001522          1400 BN6150               2AZ
468574002468574566-002000     468574000721129013206STICKERS CRYSTAL ASSTD 0000001000+00000700+00000+0001T   00000700+0000001522          1400 BN6130               2AZ
468575000468575               468575               170213EC     1400+00000+EC0000000700+0000000700+000000000+000000098+0000000790+0000000008+I20000000000+0000000790+Z
468575001468575077-000349     468575006001023875488GIFT-BAG 18X23CM BEAD H0000001000+00000700+00000+0001T   00000700+0000001524          1400 JT4112               2AZ
468576000468576               468576               170213EC     1400+00000+EC0000010084+0000010084+000000000+000001413+0000011497+0000000000+I40000011497+0000000000+Z
468576001468576077-000309-A   468576006003000671007GIFT-BAG HOLOGRAM JMB  0000001000+00002192+00000+0001T   00002192+0000001526          1400 JT4112               2AZ
468576002468576267-001998     468576008711147355350PUZZLE 300pc FAIRY-TALE0000001000+00005262+00000+0001T   00005262+0000001526          1400 JT4755               2AZ
468576003468576466-000061     468576006003000611188BALL WATER 15CM ASSTD  0000001000+00002630+00000+0001T   00002630+0000001526          1400 JT4785               2AZ
468577000468577               468577               170213EC     1400+00000+EC0000003507+0000003507+000000000+000000491+0000003998+0000000000+I40000003998+0000000000+Z
468577001468577018-000136     468577006001023659026MUG OCC LOVE W/PLUSH   0000001000+00003507+00000+0001T   00003507+0000001529          1400 JT4515               2AZ
468578000468578               468578               170213EC     1400+00000+EC0000002227+0000002227+000000000+000000312+0000002530+0000000009+I20000000000+0000002530+Z
468578001468578036-000400     468578006001023886132CLOTHES-DRYER PL 8-PEG 0000001000+00002192+00000+0001T   00002192+0000001530          1400 JT4212               2AZ
468578002468578112-116038     468578006009681820246TCS CARRIER BAG MIDI   0000001000+00000035+00000+0001T   00000035+0000001530          1400 JT4090               2AZ
468579000468579               468579               170213EC     1400+00000+EC0000003542+0000003542+000000000+000000496+0000004038+0000000000+I40000004038+0000000000+Z
468579001468579018-005009     468579006001023725608MUG W/PLUSH-BEAR LOVE  0000001000+00003507+00000+0001T   00003507+0000001532          1400 JT4515               2AZ
468579002468579112-116038     468579006009681820246TCS CARRIER BAG MIDI   0000001000+00000035+00000+0001T   00000035+0000001532          1400 JT4090               2AZ
468580000468580               468580               170213EC     1400+00000+EC0000019418+0000019418+000000000+000002722+0000022140+0000000000+I20000000000+0000022140+Z
468580001468580263-000613     468580006003000241538CAR FLIP & SHOOT + 3CAR0000001000+00003507+00000+0001T   00003507+0000001538          1400 JT4710               2AZ
468580002468580566-001226     468580006001023672360STICKERS 3-D POP-UP    0000001000+00000613+00000+0001T   00000613+0000001538          1400 JT4130               2AZ
468580003468580466-000514     468580006001023196620BALLS TENNIS COLR BAG-30000001000+00002630+00000+0001T   00002630+0000001538          1400 JT4785               2AZ
468580004468580079-000341     468580006920705495519FELT-TIP PENS 12PCE    0000001000+00001753+00000+0001T   00001753+0000001538          1400 JT4130               2AZ
468580005468580007-000204     468580006009635835272EXAM-PAD 60SHT PUNCHED 0000001000+00000964+00000+0001T   00000964+0000001538          1400 JT4130               2AZ
468580006468580077-000311     468580006001023608666GIFT-BAG 11X14CM GLOSS 0000001000+00000613+00000+0001T   00000613+0000001538          1400 JT4112               2AZ
468580007468580564-000012     468580006001023130075BUBBLE BOTTLE MAGIC    0000002000+00000700+00000+0001T   00000700+0000001538          1400 JT4131               2AZ
468580008468580112-116069     468580006009681820277TCS CARRIER BAG JUMBO  0000001000+00000048+00000+0001T   00000048+0000001538          1400 JT4090               2AZ
468580009468580903-000596     468580006003000607754SWEET MONEYBOX 12cm J/B0000001000+00003507+00000+0001T   00003507+0000001538          1400 JT4150               2AZ
468580010468580903-000594     468580006003000564057SWT SWORD 18cm J/BEAN  0000001000+00002630+00000+0001T   00002630+0000001538          1400 JT4150               2AZ
468580011468580903-000612     468580006003000617449SWT TRUMPET 20cm       0000001000+00001753+00000+0001T   00001753+0000001538          1400 JT4150               2AZ
468581000468581               468581               170213EC     1400+00000+EC0000018418+0000018418+000000000+000002580+0000020990+0000000008+I20000000000+0000020990+Z
468581001468581368-000113     468581006001023780874PLUSH BLINGED LOVE 30cm0000001000+00012279+00000+0001T   00012279+0000001539          1400 JT4745               2AZ
468581002468581368-000175     468581006003000270316PLUSH BEAR 4 ASSTD 18CM0000001000+00006139+00000+0001T   00006139+0000001539          1400 JT4745               2AZ
468582000468582               468582               170213EC     1400+00000+EC0000006696+0000006696+000000000+000000940+0000007636+0000000000+I40000007636+0000000000+Z
468582001468582903-000211     468582006002099001238SWT GS MALLOW ICE CREAM0000001000+00001753+00000+0001T   00001753+0000001540          1400 JT4150               2AZ
468582002468582466-000514     468582006001023196620BALLS TENNIS COLR BAG-30000001000+00002630+00000+0001T   00002630+0000001540          1400 JT4785               2AZ
468582003468582082-094490     468582006001492944906#SUNGLASS HALFRIM WRAP 0000001000+00001753+00000+0001T   00002631+0008161540          1400 JT4160               2AZ
468582004468582903-000151     468582006009803374411SWT SML RND R/BOW LOLLY0000001000+00000525+00000+0001T   00000525+0000001540          1400 JT4150               2AZ
468582005468582112-116038     468582006009681820246TCS CARRIER BAG MIDI   0000001000+00000035+00000+0001T   00000035+0000001540          1400 JT4090               2AZ
468583000468583               468583               170213EC     1400+00000+EC0000001753+0000001753+000000000+000000246+0000001999+0000000000+I40000001999+0000000000+Z
468583001468583104-000040     468583006001023846280BASKET HEART-SHAPED    0000001000+00001753+00000+0001T   00001753+0000001546          1400 JT4210               2AZ
468584000468584               468584               170213EC     1400+00000+EC0000100193+0000100193+000000000+000014036+0000114229+0000000000+I40000114229+0000000000+Z
468584001468584007-010501     468584006003000455157WIPE & CHALK 45X35CM   0000001000+00008771+00000+0001T   00008771+0000001550          1400 JT4130               2AZ
468584002468584105-009010     468584006002923011518STORAGE BOX 16L GLIDER 0000001000+00007893+00000+0001T   00007893+0000001550          1400 JT4210               2AZ
468584003468584071-000308     468584006001023914811CUTTER PAPER TRIM+BLADE0000001000+00003507+00000+0001T   00003507+0000001550          1400 JT4130               2AZ
468584004468584072-000622     468584006003000148516PET DOG-LEAD 15mmx1.8M 0000002000+00005262+00000+0001T   00005262+0000001550          1400 JT4870               2AZ
468584005468584072-000162     468584006003000094462PET DOG SHIRT GIRL MED 0000002000+00006139+00000+0001T   00006139+0000001550          1400 JT4870               2AZ
468584006468584072-020314     468584006003000605453PET TOY PUP VINYL CHICK0000001000+00003069+00000+0001T   00003069+0000001550          1400 JT4870               2AZ
468584007468584046-002032-PK2 468584004897006175063BATTERIES CR-2032  2PCE0000001000+00001753+00000+0001T   00001753+0000001550          1400 JT4312               2AZ
468584008468584056-080200     468584006003000625420CAR BOOT MAT ANTISLIP  0000001000+00005262+00000+0001T   00005262+0000001550          1400 JT4860               2AZ
468584009468584047-000512-H   468584006001023657473EXT-CORD 3m DBL-J   H&H0000002000+00006578+00000+0001T   00006578+0000001550          1400 JT4880               2AZ
468584010468584047-000508     468584006009636901983PLG EURODAPTOR 3x5A-2PN0000002000+00001753+00000+0001T   00001753+0000001550          1400 JT4880               2AZ
468584011468584071-081112     468584006936198404945CORRECTION TAPE 10mx5mm0000001000+00001753+00000+0001T   00001753+0000001550          1400 JT4130               2AZ
468584012468584071-000307     468584006003000535118RULER FLEXI 30cm       0000001000+00001490+00000+0001T   00001490+0000001550          1400 JT4130               2AZ
468584013468584112-116069     468584006009681820277TCS CARRIER BAG JUMBO  0000001000+00000048+00000+0001T   00000048+0000001550          1400 JT4090               2AZ
468584014468584072-020367     468584006003000190751PET PLACE MAT NO MESS  0000002000+00002192+00000+0001T   00002192+0000001550          1400 JT4870               2AZ
468584015468584024-000168-E   468584006003000675272T/PLATE ROUND CAKE PAN 0000002000+00003507+00000+0001T   00003507+0000001550          1400 JT4300               2AZ
468584016468584368-000111     468584006001023780812PLUSH BEAR/DOG 29CM    0000001000+00012279+00000+0001T   00012279+0000001550          1400 JT4745               2AZ
468584017468584036-000063     468584006009654960436COATHANGERS VIRGIN 5PCE0000002000+00001753+00000+0001T   00001753+0000001550          1400 JT4212               2AZ
468585000468585               468585               170213EC     1400+00000+EC0000000306+0000000306+000000000+000000043+0000000340+0000000009+I20000000000+0000000340+Z
468585001468585079-009700-D   468585006003000545711PAPER SIRIO A4 RED COL.0000001000+00000306+00000+0001T   00000306+0000001552          1400 JT4130               2AZ
468586000468586               468586               170213EC     1400+00000+EC0000000876+0000000876+000000000+000000123+0000000990+0000000009+I20000000000+0000000990+Z
468586001468586077-000314     468586006003000181148GIFT-BAG 11X14CM MATT  0000001000+00000876+00000+0001T   00000876+0000001555          1400 JT4112               2AZ
468587000468587               468587               170213EC     1400+00000+EC0000003542+0000003542+000000000+000000496+0000004030+0000000008+I20000000000+0000004030+Z
468587001468587018-000136     468587006001023659026MUG OCC LOVE W/PLUSH   0000001000+00003507+00000+0001T   00003507+0000001556          1400 JT4515               2AZ
468587002468587112-116038     468587006009681820246TCS CARRIER BAG MIDI   0000001000+00000035+00000+0001T   00000035+0000001556          1400 JT4090               2AZ
468588000468588               468588               170213EC     1400+00000+EC0000012309+0000012309+000000000+000001725+0000014030+0000000004+I20000000000+0000014030+Z
468588001468588077-000150-D   468588006003000054343GIFT-WRAP CELLPHANE CLR0000001000+00000876+00000+0001T   00000876+0000001559          1400 JT4112               2AZ
468588002468588001-000175     468588006001023788108B/MUG GLS LOVE 380ML   0000001000+00004385+00000+0001T   00004385+0000001559          1400 JT4515               2AZ
468588003468588018-000136     468588006001023659026MUG OCC LOVE W/PLUSH   0000001000+00003507+00000+0001T   00003507+0000001559          1400 JT4515               2AZ
468588004468588039-080962     468588006001023736055C/SET 3PC(GLS-CUP+2CAN)0000001000+00001753+00000+0001T   00001753+0000001559          1400 JT4510               2AZ
468588005468588301-085006     468588006001023502940ORN LOVE MSG TUBE W/HRT0000001000+00001753+00000+0001T   00001753+0000001559          1400 JT4505               2AZ
468588006468588112-116038     468588006009681820246TCS CARRIER BAG MIDI   0000001000+00000035+00000+0001T   00000035+0000001559          1400 JT4090               2AZ
468589000468589               468589               170213EC     1400+00000+EC0000002628+0000002628+000000000+000000368+0000002990+0000000006+I20000000000+0000002990+Z
468589001468589903-000844     468589005010478432567SWT CANDY DL LUV HEARTS0000002000+00001314+00000+0001T   00001314+0000001604          1400 JT4150               2AZ
468590000468590               468590               170213EC     1400+00000+EC0000004420+0000004420+000000000+000000619+0000005030+0000000009+I20000000000+0000005030+Z
468590001468590112-116038     468590006009681820246TCS CARRIER BAG MIDI   0000001000+00000035+00000+0001T   00000035+0000001606          1400 JT4090               2AZ
468590002468590031-000851     468590006001023851994P/FRAME COL 4-H 31X17CM0000001000+00004385+00000+0001T   00004385+0000001606          1400 JT4510               2AZ
468591000468591               468591               170213EC     1400+00000+EC0000007051+0000007051+000000000+000000988+0000008030+0000000009+I20000000000+0000008030+Z
468591001468591174-000305     468591006003000105502TRAVEL NECK-PILLOW     0000001000+00007016+00000+0001T   00007016+0000001607          1400 JT4205               2AZ
468591002468591112-116038     468591006009681820246TCS CARRIER BAG MIDI   0000001000+00000035+00000+0001T   00000035+0000001607          1400 JT4090               2AZ
468592000468592               468592               170213EC     1400+00000+EC0000001753+0000001753+000000000+000000246+0000001990+0000000009+I20000000000+0000001990+Z
468592001468592077-000455     468592006003000285389G/BAG METALLIC LRG SOL 0000001000+00001753+00000+0001T   00001753+0000001609          1400 JT4112               2AZ
468593000468593               468593               170213EC     1400+00000+EC0000007016+0000007016+000000000+000000983+0000007999+0000000000+I40000007999+0000000000+Z
468593001468593030-000038     468593006003000455706P/WALL CANVAS 20X20CM  0000001000+00007016+00000+0001T   00007016+0000001614          1400 JT4505               2AZ
468594000468594               468594               170213EC     1400+00000+EC0000019690+0000019690+000000000+000002759+0000022449+0000000000+I40000022449+0000000000+Z
468594001468594024-000107     468594006001023422071MUFFIN-PAN 12-CUP      0000001000+00009648+00000+0001T   00009648+0000001616          1400 JT4300               2AZ
468594002468594077-000311     468594006001023608666GIFT-BAG 11X14CM GLOSS 0000001000+00000613+00000+0001T   00000613+0000001616          1400 JT4112               2AZ
468594003468594082-007587     468594006003000654338SUNGLASS DESIGNER ASST 0000001000+00004385+00000+0001T   00004385+0000001616          1400 JT4160               2AZ
468594004468594162-097717     468594006001492977171#TAG NEW SILVER E/PIERC0000001000+00001139+00000+0001T   00001139+0000001616          1400 JT4160               2AZ
468594005468594200-003024     468594006001023657299REFUSE BAGS 20PCE BLACK0000001000+00001753+00000+0001T   00001753+0000001616          1400 JT4214               2AZ
468594006468594112-116069     468594006009681820277TCS CARRIER BAG JUMBO  0000001000+00000048+00000+0001T   00000048+0000001616          1400 JT4090               2AZ
468594007468594903-000095     468594006001704011495SWT SPECKLED-EGGS 100G 0000001000+00002104+00000+0001T   00002104+0000001616          1400 JT4150               2AZ
468595000468595               468595               170213EC     1400+00000+EC0000001226+0000001226+000000000+000000172+0000001390+0000000008+I20000000000+0000001390+Z
468595001468595006-001000     468595006003000093779HELIUM BALLOON FILL    0000002000+00000613+00000+0001T   00000613+0000001619          1400 JT4131               2AZ
468596000468596               468596               170213EC     1400+00000+EC0000008242+0000008242+000000000+000001155+0000009397+0000000000+I40000009397+0000000000+Z
468596001468596368-000175     468596006003000270316PLUSH BEAR 4 ASSTD 18CM0000001000+00006139+00000+0001T   00006139+0000001621          1400 JT4745               2AZ
468596002468596077-000315     468596006003000181186GIFT-BAG 20x28cm MATT  0000001000+00001578+00000+0001T   00001578+0000001621          1400 JT4112               2AZ
468596003468596903-000155     468596006009803374435SWT LOLLY I LUV U HEART0000001000+00000525+00000+0001T   00000525+0000001621          1400 JT4150               2AZ
468597000468597               468597               170213EC     1400+00000+EC0000003855+0000003855+000000000+000000541+0000004396+0000000000+I40000004396+0000000000+Z
468597001468597077-000010-U   468597006001023168863CREPE-PAPER CERISE-PINK0000001000+00000788+00000+0001T   00000788+0000001624          1400 JT4112               2AZ
468597002468597077-000407     468597006003000145096G/BAG PP 19X26X8CM     0000001000+00001314+00000+0001T   00001314+0000001624          1400 JT4112               2AZ
468597003468597071-003030     468597006003000006007PENS NOVELTY 2PCE      0000001000+00001753+00000+0001T   00001753+0000001624          1400 JT4130               2AZ
468598000468598               468598               170213EC     1400+00000+EC0000028991+0000028991+000000000+000004060+0000033050+0000000001+I20000000000+0000033050+Z
468598001468598018-000136     468598006001023659026MUG OCC LOVE W/PLUSH   0000001000+00003507+00000+0001T   00003507+0000001628          1400 JT4515               2AZ
468598002468598019-000070     468598006003000297474VASE GLS CLEAR BOTTLE  0000001000+00004385+00000+0001T   00004385+0000001628          1400 JT4510               2AZ
468598003468598265-000316     468598006001023877536CAR RADIO-CONTROL      0000001000+00021051+00000+0001T   00021928+0008191628          1400 JT4710               2AZ
468598004468598112-116069     468598006009681820277TCS CARRIER BAG JUMBO  0000001000+00000048+00000+0001T   00000048+0000001628          1400 JT4090               2AZ
468599000468599               468599               170213EC     1400+00000+EC0000005873+0000005873+000000000+000000823+0000006690+0000000006+I20000000000+0000006690+Z
468599001468599077-000311     468599006001023608666GIFT-BAG 11X14CM GLOSS 0000001000+00000613+00000+0001T   00000613+0000001630          1400 JT4112               2AZ
468599002468599301-085006     468599006001023502940ORN LOVE MSG TUBE W/HRT0000001000+00001753+00000+0001T   00001753+0000001630          1400 JT4505               2AZ
468599003468599018-005009     468599006001023725608MUG W/PLUSH-BEAR LOVE  0000001000+00003507+00000+0001T   00003507+0000001630          1400 JT4515               2AZ
468600000468600               468600               170213EC     1400+00000+EC0000014032+0000014032+000000000+000001966+0000015998+0000000000+I40000015998+0000000000+Z
468600001468600368-000111     468600006001023780812PLUSH BEAR/DOG 29CM    0000001000+00012279+00000+0001T   00012279+0000001631          1400 JT4745               2AZ
468600002468600077-000457     468600006003000285662G/BAG METALLIC JMB SOL 0000001000+00001753+00000+0001T   00001753+0000001631          1400 JT4112               2AZ
468601000468601               468601               170213EC     1400+00000+EC0000007891+0000007891+000000000+000001106+0000008990+0000000007+I20000000000+0000008990+Z
468601001468601368-000151     468601006003000166725PLUSH BEAR 14cm        0000001000+00004385+00000+0001T   00004385+0000001633          1400 JT4745               2AZ
468601002468601018-000108     468601006001023380265MUG NOVELTY ICON ASST  0000001000+00001753+00000+0001T   00001753+0000001633          1400 JT4515               2AZ
468601003468601903-000624     468601006003000671793SWEET LOLLY BLU/BRRY   0000001000+00001753+00000+0001T   00001753+0000001633          1400 JT4150               2AZ
468602000468602               468602               170213EC     1400+00000+EC0000006139+0000006139+000000000+000000860+0000006999+0000000000+I40000006999+0000000000+Z
468602001468602368-000175     468602006003000270316PLUSH BEAR 4 ASSTD 18CM0000001000+00006139+00000+0001T   00006139+0000001637          1400 JT4745               2AZ
468603000468603               468603               170213EC     1400+00000+EC0000017146+0000017146+000000000+000002403+0000019549+0000000000+I40000019549+0000000000+Z
468603001468603206-000370     468603006003000631315STRAW P/DRINKING GLASS 0000002000+00001753+00000+0001T   00001753+0000001640          1400 JT4321               2AZ
468603002468603368-000265     468603006001023750914PLUSH BEAR 23CM ASSTD C0000001000+00006139+00000+0001T   00006139+0000001640          1400 JT4745               2AZ
468603003468603105-003027     468603006001023114129CONTAINERS PL MINI 4PC 0000001000+00003507+00000+0001T   00004385+0008161640          1400 JT4210               2AZ
468603004468603112-116069     468603006009681820277TCS CARRIER BAG JUMBO  0000001000+00000048+00000+0001T   00000048+0000001640          1400 JT4090               2AZ
468603005468603493-058031     468603000078257580316INTEX B/BALL AQUARIUM  0000001000+00003946+00000+0001T   00003946+0000001640          1400 JT4787               2AZ
468604000468604               468604               170213EC     1400+00000+EC0000007890+0000007890+000000000+000001106+0000008996+0000000000+I40000008996+0000000000+Z
468604001468604077-000457     468604006003000285662G/BAG METALLIC JMB SOL 0000001000+00001753+00000+0001T   00001753+0000001641          1400 JT4112               2AZ
468604002468604001-000175     468604006001023788108B/MUG GLS LOVE 380ML   0000001000+00004385+00000+0001T   00004385+0000001641          1400 JT4515               2AZ
468604003468604089-000192-A   468604006001023901774KEY-CHAIN ACRYLIC      0000002000+00000876+00000+0001T   00000876+0000001641          1400 JT4205               2AZ
468605000468605               468605               170213EC     1400+00000+EC0000010518+0000010518+000000000+000001474+0000011990+0000000002+I20000000000+0000011990+Z
468605001468605103-000459     468605006003000630929FLOWER BASKET ASSORTED 0000002000+00003507+00000+0001T   00003507+0000001642          1400 JT4300               2AZ
468605002468605077-000150-D   468605006003000054343GIFT-WRAP CELLPHANE CLR0000004000+00000876+00000+0001T   00000876+0000001642          1400 JT4112               2AZ
468606000468606               468606               170213EC     1400+00000+EC0000013233+0000013233+000000000+000001857+0000015090+0000000000+I40000015090+0000000000+Z
468606001468606007-000713     468606006003000227273NOTE-BK DIARY W/LOCK   0000001000+00003507+00000+0001T   00003507+0000001643          1400 JT4130               2AZ
468606002468606006-000092     468606006001023739650BANNER BIRTHDAY PAPER  0000001000+00001753+00000+0001T   00001753+0000001643          1400 JT4131               2AZ
468606003468606903-000087     468606006001704000161SWT SPECKLED-EGGS 50G  0000007000+00001139+00000+0001T   00001139+0000001643          1400 JT4150               2AZ
468607000468607               468607               170213EC     1400+00000+EC0000024068+0000024068+000000000+000003373+0000027441+0000000000+I40000027441+0000000000+Z
468607001468607077-000289     468607006001023901996GIFT BOX 20x25x11cm    0000002000+00001753+00000+0001T   00001753+0000001646          1400 JT4112               2AZ
468607002468607007-000561     468607006003000589128NOVELTY NOTEBOOK       0000002000+00003507+00000+0001T   00003507+0000001646          1400 JT4130               2AZ
468607003468607159-000114     468607006001023507945SHOWER CAP PVC ASSTD   0000002000+00001490+00000+0001T   00001490+0000001646          1400 JT4200               2AZ
468607004468607018-005009     468607006001023725608MUG W/PLUSH-BEAR LOVE  0000002000+00003507+00000+0001T   00003507+0000001646          1400 JT4515               2AZ
468607005468607112-116069     468607006009681820277TCS CARRIER BAG JUMBO  0000001000+00000048+00000+0001T   00000048+0000001646          1400 JT4090               2AZ
468607006468607903-000911     468607006009802868454SWT ST GUM TAPE BARBIE 0000002000+00001753+00000+0001T   00001753+0000001646          1400 JT4150               2AZ
468608000468608               468608               170213EC     1400+00000+EC0000008804+0000008804+000000000+000001233+0000010030+0000000007+I20000000000+0000010030+Z
468608001468608018-019000     468608006003000557288MUG OCC. LOVE JUMBO    0000001000+00005262+00000+0001T   00005262+0000001649          1400 JT4515               2AZ
468608002468608031-000844     468608006001023851789P/FRAME WDN WORDS 2ASS 0000001000+00003507+00000+0001T   00003507+0000001649          1400 JT4510               2AZ
468608003468608112-116038     468608006009681820246TCS CARRIER BAG MIDI   0000001000+00000035+00000+0001T   00000035+0000001649          1400 JT4090               2AZ
468609000468609               468609               170213EC     1400+00000+EC0000010169+0000010169+000000000+000001426+0000011595+0000000000+I40000011595+0000000000+Z
468609001468609566-001228     468609006003000284153STICKERS CRYSTAL ASSTD 0000001000+00001753+00000+0001T   00001753+0000001651          1400 JT4130               2AZ
468609002468609903-000090     468609006009826020821SWT GS CHOCO COINS 60g 0000004000+00002104+00000+0001T   00002104+0000001651          1400 JT4150               2AZ
468610000468610               468610               170213EC     1400+00000+EC0000005297+0000005297+000000000+000000742+0000006030+0000000009+I20000000000+0000006030+Z
468610001468610263-000145     468610006001023708298MOTORBIKE PL           0000001000+00005262+00000+0001T   00005262+0000001651          1400 JT4710               2AZ
468610002468610112-116038     468610006009681820246TCS CARRIER BAG MIDI   0000001000+00000035+00000+0001T   00000035+0000001651          1400 JT4090               2AZ
468611000468611               468611               170213EC     1400+00000+EC0000001753+0000001753+000000000+000000246+0000001999+0000000000+I40000001999+0000000000+Z
468611001468611047-000012     468611006002521079279PLUG 1x16A+2x5A-2PIN   0000001000+00001753+00000+0001T   00001753+0000001653          1400 JT4880               2AZ
468612000468612               468612               170213EC     1400+00000+EC0000064730+0000064730+000000000+000009068+0000073798+0000000000+I40000073798+0000000000+Z
468612001468612077-000316     468612006001023609731GIFT-BAG 25X32CM MATT  0000001000+00001753+00000+0001T   00001753+0000001657          1400 JT4112               2AZ
468612002468612077-000330     468612006001023745408GIFT-BAG 18X23CM WEDGE 0000001000+00001753+00000+0001T   00001753+0000001657          1400 JT4112               2AZ
468612003468612077-000472     468612006003000330133G-BAG DESGNR LRG 25X32 0000001000+00001753+00000+0001T   00001753+0000001657          1400 JT4112               2AZ
468612004468612077-000299     468612006003000395576G/BAG 32x25cm LRG LOVE 0000001000+00001490+00000+0001T   00001490+0000001657          1400 JT4112               2AZ
468612005468612368-000111     468612006001023780812PLUSH BEAR/DOG 29CM    0000002000+00012279+00000+0001T   00012279+0000001657          1400 JT4745               2AZ
468612006468612263-001000     468612006003000600212VEHICLE PICK UP SET    0000001000+00004385+00000+0001T   00004385+0000001657          1400 JT4710               2AZ
468612007468612041-092015     468612006003000384761BATH VINTAGE WIRE CADDY0000001000+00012279+00000+0001T   00012279+0000001657          1400 JT4200               2AZ
468612008468612031-001011     468612006003000579099P/FRAME COLLAGE WAVE   0000001000+00008771+00000+0001T   00008771+0000001657          1400 JT4510               2AZ
468612009468612018-000136     468612006001023659026MUG OCC LOVE W/PLUSH   0000001000+00003507+00000+0001T   00003507+0000001657          1400 JT4515               2AZ
468612010468612159-003600     468612006001023606174TOILET-BRUSH W/STAND PL0000001000+00004385+00000+0001T   00004385+0000001657          1400 JT4200               2AZ
468612011468612112-116069     468612006009681820277TCS CARRIER BAG JUMBO  0000002000+00000048+00000+0001T   00000048+0000001657          1400 JT4090               2AZ
468613000468613               468613               170213EC     1400+00000+EC0000004385+0000004385+000000000+000000614+0000004990+0000000009+I20000000000+0000004990+Z
468613001468613030-000031-A   468613006003000457588PLAQUE W/WORDS ASSTD   0000001000+00004385+00000+0001T   00004823+0006471658          1400 JT4505               2AZ
468614000468614               468614               170213EC     1400+00000+EC0000003328+0000003328+000000000+000000468+0000003790+0000000006+I20000000000+0000003790+Z
468614001468614077-000011-C   468614006001023808523TISSUE 10xSHTS RED     0000002000+00000876+00000+0001T   00000876+0000001659          1400 JT4112               2AZ
468614002468614077-000010-D   468614006001023123886CREPE-PAPER WHITE      0000002000+00000788+00000+0001T   00000788+0000001659          1400 JT4112               2AZ
468615000468615               468615               170213EC     1400+00000+EC0000001753+0000001753+000000000+000000246+0000001990+0000000009+I20000000000+0000001990+Z
468615001468615200-003026     468615006003000276448REFUSE BAGS 10PCE GREEN0000001000+00001753+00000+0001T   00001753+0000001701          1400 JT4214               2AZ
468616000468616               468616               170213EC     1400+00000+EC0000001753+0000001753+000000000+000000246+0000001990+0000000009+I20000000000+0000001990+Z
468616001468616200-003026     468616006003000276448REFUSE BAGS 10PCE GREEN0000001000+00001753+00000+0001T   00001753+0000001703          1400 JT4214               2AZ
468617000468617               468617               170213EC     1400+00000+EC0000014467+0000014467+000000000+000002027+0000016494+0000000000+I40000016494+0000000000+Z
468617001468617003-009130     468617006003000673445ORN WELCOME STONE OVAL 0000001000+00005262+00000+0001T   00005262+0000001706          1400 JT4505               2AZ
468617002468617077-000302     468617008010410010195GIFT-BAG 18X23CM E/D   0000001000+00000876+00000+0001T   00000876+0000001706          1400 JT4112               2AZ
468617003468617077-000310     468617006001023608635GIFT-BAG 18X23CM GLOSS 0000001000+00001314+00000+0001T   00001314+0000001706          1400 JT4112               2AZ
468617004468617077-000308     468617006001023595812GIFT-BAG 33X45CM E/DAY 0000001000+00001753+00000+0001T   00001753+0000001706          1400 JT4112               2AZ
468617005468617056-065300     468617006001023625854CAR SUNSHIELD ALUM FOIL0000001000+00005262+00000+0001L   00005262+0000001706          1400 JT4860               2AZ
468618000468618               468618               170213EC     1400+00000+EC0000007926+0000007926+000000000+000001111+0000009030+0000000007+I20000000000+0000009030+Z
468618001468618077-000309     468618006001023608604GIFT-BAG 25X32CM GLOSS 0000002000+00001753+00000+0001T   00001753+0000001707          1400 JT4112               2AZ
468618002468618001-000175     468618006001023788108B/MUG GLS LOVE 380ML   0000001000+00004385+00000+0001T   00004385+0000001707          1400 JT4515               2AZ
468618003468618112-116038     468618006009681820246TCS CARRIER BAG MIDI   0000001000+00000035+00000+0001T   00000035+0000001707          1400 JT4090               2AZ
468619000468619               468619               170213EC     1400+00000+EC0000003682+0000003682+000000000+000000516+0000004190+0000000008+I20000000000+0000004190+Z
468619001468619080-000127     468619006003000424351VALENTINES DAY 36x24CM 0000001000+00002192+00000+0001T   00002192+0000001707          1400 JT4112               2AZ
468619002468619089-001021     468619006003000112319KEY CHAIN MINI BIBLE   0000001000+00001490+00000+0001T   00001490+0000001707          1400 JT4205               2AZ
468620000468620               468620               170213EC     1400+00000+EC0000001051+0000001051+000000000+000000148+0000001190+0000000009+I20000000000+0000001190+Z
468620001468620079-009702-G   468620008427973060787PAPER SIRIO A2 FUSHIA  0000001000+00001051+00000+0001T   00001051+0000001709          1400 JT4130               2AZ
468621000468621               468621               170213EC     1400+00000+EC0000008064+0000008064+000000000+000001130+0000009194+0000000000+I40000009194+0000000000+Z
468621001468621027-001010     468621006001023171481FEATHER-DUSTER PL-HNDLE0000001000+00001753+00000+0001T   00001753+0000001712          1400 JT4212               2AZ
468621002468621016-006510     468621006003000593330STORAGE-JAR 6PC 10ml   0000001000+00001490+00000+0001T   00001490+0000001712          1400 JT4300               2AZ
468621003468621261-000035     468621006003000550258GUN 4PC POLICE SET     0000001000+00003507+00000+0001T   00003507+0000001712          1400 JT4710               2AZ
468621004468621077-000310     468621006001023608635GIFT-BAG 18X23CM GLOSS 0000001000+00001314+00000+0001T   00001314+0000001712          1400 JT4112               2AZ
468622000468622               468622               170213EC     1400+00000+EC0000001753+0000001753+000000000+000000246+0000001990+0000000009+I20000000000+0000001990+Z
468622001468622006-000800     468622006001023902801HAT CABARET 14x18cm    0000001000+00001753+00000+0001T   00001753+0000001714          1400 JT4131               2AZ
468623000468623               468623               170213EC     1400+00000+EC0000002192+0000002192+000000000+000000307+0000002499+0000000000+I40000002499+0000000000+Z
468623001468623080-000127     468623006003000424351VALENTINES DAY 36x24CM 0000001000+00002192+00000+0001T   00002192+0000001715          1400 JT4112               2AZ
468624000468624               468624               170213EC     1400+00000+EC0000010522+0000010522+000000000+000001475+0000011990+0000000007+I20000000000+0000011990+Z
468624001468624006-000111     468624006003000519385BALLOONS LARGE 12PCE   0000002000+00002630+00000+0001T   00002630+0000001720          1400 JT4131               2AZ
468624002468624366-002699     468624006003000536733DRESS UP HAT COWGIRL   0000001000+00005262+00000+0001T   00005262+0000001720          1400 JT4131               2AZ
468625000468625               468625               170213EC     1400+00000+EC0000002453+0000002453+000000000+000000344+0000002790+0000000007+I20000000000+0000002790+Z
468625001468625366-007600     468625006001023902184MASK THEATRICAL GLITTER0000001000+00001753+00000+0001T   00001753+0000001729          1400 JT4131               2AZ
468625002468625564-000012     468625006001023130075BUBBLE BOTTLE MAGIC    0000001000+00000700+00000+0001T   00000700+0000001729          1400 JT4131               2AZ
468626000468626               468626               170213EC     1400+00000+EC0000003453+0000003453+000000000+000000484+0000003930+0000000007+I20000000000+0000003930+Z
468626001468626007-000204     468626006009635835272EXAM-PAD 60SHT PUNCHED 0000002000+00000964+00000+0001T   00000964+0000001731          1400 JT4130               2AZ
468626002468626071-009836     468626006001023591067BACK-TO-SCHOOL SET     0000001000+00001490+00000+0001T   00001490+0000001731          1400 JT4130               2AZ
468626003468626112-116038     468626006009681820246TCS CARRIER BAG MIDI   0000001000+00000035+00000+0001T   00000035+0000001731          1400 JT4090               2AZ
468627000468627               468627               170213EC     1400+00000+EC0000007502+0000007502+000000000+000001051+0000008550+0000000003+I20000000000+0000008550+Z
468627001468627080-000127     468627006003000424351VALENTINES DAY 36x24CM 0000001000+00002192+00000+0001T   00002192+0000001732          1400 JT4112               2AZ
468627002468627264-000918     468627000090159150268MAISTO MDC ATV         0000001000+00005262+00000+0001T   00005262+0000001732          1400 JT4710               2AZ
468627003468627112-116069     468627006009681820277TCS CARRIER BAG JUMBO  0000001000+00000048+00000+0001T   00000048+0000001732          1400 JT4090               2AZ
468628000468628               468628               170213EC     1400+00000+EC0000005262+0000005262+000000000+000000737+0000005990+0000000009+I20000000000+0000005990+Z
468628001468628366-000125     468628006003000006786DRESSUP WINGS/WAND/BAND0000001000+00005262+00000+0001T   00005262+0000001733          1400 JT4131               2AZ
468629000468629               468629               170213EC     1400+00000+EC0000000048+0000000048+000000000+000000007+0000000050+0000000005+I20000000000+0000000050+Z
468629001468629112-116069     468629006009681820277TCS CARRIER BAG JUMBO  0000001000+00000048+00000+0001T   00000048+0000001734          1400 JT4090               2AZ
468630000468630               468630               170213EC     1400+00000+EC0000001753+0000001753+000000000+000000246+0000001990+0000000009+I20000000000+0000001990+Z
468630001468630024-091100     468630006001023914224BAKING-CUPS PAPER 100PC0000001000+00001753+00000+0001T   00001753+0000001735          1400 JT4300               2AZ
468631000468631               468631               170213EC     1400+00000+EC0000004420+0000004420+000000000+000000619+0000005030+0000000009+I20000000000+0000005030+Z
468631001468631001-000175     468631006001023788108B/MUG GLS LOVE 380ML   0000001000+00004385+00000+0001T   00004385+0000001736          1400 JT4515               2AZ
468631002468631112-116038     468631006009681820246TCS CARRIER BAG MIDI   0000001000+00000035+00000+0001T   00000035+0000001736          1400 JT4090               2AZ
468632000468632               468632               170213EC     1400+00000+EC0000000876+0000000876+000000000+000000123+0000000990+0000000009+I20000000000+0000000990+Z
468632001468632077-000408     468632006003000145218G/BAG PP 15X21X7CM     0000001000+00000876+00000+0001T   00000876+0000001740          1400 JT4112               2AZ
468633000468633               468633               170213EC     1400+00000+EC0000002192+0000002192+000000000+000000307+0000002490+0000000009+I20000000000+0000002490+Z
468633001468633080-000127     468633006003000424351VALENTINES DAY 36x24CM 0000001000+00002192+00000+0001T   00002192+0000001741          1400 JT4112               2AZ
A17021300                                          10084033ECSLAVE 2                       JT43IC
B46853400                                          170213EC491-059642     13395515SLAVE 2     JT43IC0000002000+0000001000+0000000000000+
M17021301                              IT          ECATT:IT                                                                                                                                          THE LAST TILL SLIP NUMBER FOR SLAVE 2 IS                                                        468633                                                                                          THANK YOU                                                                                       EC
M17021391                              CASH        ECSLAVE 2                       Z-REPORT No.   533TOTAL (Sales - Refunds)          14951.60       CASH TO BE BANKED                 6761.30       DEBIT CARDS                          0.00       CREDIT CARDS                      8190.40       Z-READING                        14951.60       AIRTIME DEBIT CARD SALES             0.00       AIRTIME CARD SALES                   0.00       OVERS/UNDERS                         0.10       AIRTIME CASH SALES                   0.00       GIFT CARDS                           0.00       GIFT CARD CASH SALES                 0.00       T O T A L  CASH PAYOUTS              0.00                                                                                                                                                                                                                                                                                                                                                      Z
M17021392                              CASH        ECABSENT                                                                                                                                                                                          ANNUAL LEAVE                                                                                                                                                                                    DAY OFF                                                                                                                                                                                         COMMENTS          EC                                                                                                                                                                                                                                                                                                                                                                           Z
Y17021300                                          EC00000001316290+000146
ZEC17021319323 SLAVE 2      SALES DATA                     NEXT INVOICE NO.  468634 0533
X EC Slave 2 First invoice 468487 170213 Last invoice 468633 170213 Next invoice 468634 Total number of records 000000571 clbackup completed 19:32:09
