339509000339509               339509               170213ED     1400+00000+ED0000001753+0000001753+000000000+000000246+0000001990+0000000009+I20000000000+0000001990+Z
339509001339509007-000192     339509006009635830062BOOK H/COVER A4 192PAGE0000001000+00001753+00000+0001T   00001753+0000000835          1400 NT6130               1AZ
339510000339510               339510               170213ED     1400+00000+ED0000001262+0000001262+000000000+000000177+0000001430+0000000009+I20000000000+0000001430+Z
339510001339510112-116038     339510006009681820246TCS CARRIER BAG MIDI   0000001000+00000035+00000+0001T   00000035+0000000842          1400 NT6090               1AZ
339510002339510251-000040     339510006001023515865SEALTAPE CLEAR 48mmx50m0000001000+00001227+00000+0001T   00001227+0000000842          1400 NT6810               1AZ
339511000339511               339511               170213ED     1400+00000+ED0000011342+0000011342+000000000+000001591+0000012933+0000000000+I40000012933+0000000000+Z
339511001339511566-000362     339511006003000583065STICKER LETTER & NUMBER0000001000+00001753+00000+0001T   00001753+0000000852          1400 NT6130               1AZ
339511002339511071-001346     339511006001023912985HIGHLIGHTERS 4PCE CARD 0000001000+00002192+00000+0001T   00002192+0000000852          1400 NT6130               1AZ
339511003339511071-001010     339511006001023893314MARKERS-METALIC 3PCE   0000001000+00003507+00000+0001T   00003507+0000000852          1400 NT6130               1AZ
339511004339511566-001500     339511006003000658275STICKER PUFFY EMOTION  0000001000+00001753+00000+0001T   00001753+0000000852          1400 NT6130               1AZ
339511005339511079-009702-B   339511008427973059491PAPER SIRIO A2 WHITE   0000001000+00001051+00000+0001T   00001051+0000000852          1400 NT6130               1AZ
339511006339511079-009702-E   339511008427973059439PAPER SIRIO A2 BLUE    0000001000+00001051+00000+0001T   00001051+0000000852          1400 NT6130               1AZ
339511007339511112-116038     339511006009681820246TCS CARRIER BAG MIDI   0000001000+00000035+00000+0001T   00000035+0000000852          1400 NT6090               1AZ
339512000339512               339512               170213ED     1400+00000+ED0000003506+0000003506+000000000+000000492+0000003990+0000000008+I20000000000+0000003990+Z
339512001339512369-001138     339512006003000555185VINYL 8.5cm THEMED DUCK0000002000+00001753+00000+0001T   00002630+0008140946          1400 NT6745               1AZ
339513000339513               339513               170213ED     1400+00000+ED0000001753+0000001753+000000000+000000246+0000001990+0000000009+I20000000000+0000001990+Z
339513001339513106-007125     339513006003000057689MILK-SACHET-JUG 1,0L   0000001000+00001753+00000+0001T   00001753+0000000948          1400 NT6210               1AZ
339514000339514               339514               170213ED     1400+00000+ED0000007038+0000007038+000000000+000000992+0000008030+0000000000+I40000008030+0000000000+Z
339514001339514080-000114     339514006003000246472CARD&ENV LOVE-MUSICAL  0000001000+00001314+00000+0001T   00001753+0008150952          1400 NT6112               1AZ
339514002339514903-000592     339514006003000563777SWT CELLPHONE 12cm     0000001000+00002630+00000+0001T   00002630+0000000952          1400 NT6150               1AZ
339514003339514112-116038     339514006009681820246TCS CARRIER BAG MIDI   0000001000+00000035+00000+0001T   00000035+0000000952          1400 NT6090               1AZ
339514004339514080-000133-A   339514006003000647019MINI VALENTINES CARD   0000007000+00000437+00000+0001T   00000437+0000000952          1400 NT6112               1AZ
339515000339515               339515               170213ED     1400+00000+ED0000009675+0000009675+000000000+000001358+0000011030+0000000003+I20000000000+0000011030+Z
339515001339515077-000311     339515006001023608666GIFT-BAG 11X14CM GLOSS 0000002000+00000613+00000+0001T   00000613+0000001001          1400 NT6112               1AZ
339515002339515077-000245     339515006001023759214GIFT-RIBBON METALLICx2 0000001000+00001227+00000+0001T   00001227+0000001001          1400 NT6112               1AZ
339515003339515039-001023     339515006003000466337CANDLE TEA-LITE METALIC0000001000+00001753+00000+0001T   00001753+0000001001          1400 NT6510               1AZ
339515004339515006-000323-D   339515006003000126248CONFETTI H/BIRTHDAY 3PK0000001000+00002630+00000+0001T   00002630+0000001001          1400 NT6131               1AZ
339515005339515304-001204     339515006001023737984FLOWER OCC. TEDDY/ROSES0000002000+00001402+00000+0001T   00001490+0006471001          1400 NT6510               1AZ
339515006339515112-116038     339515006009681820246TCS CARRIER BAG MIDI   0000001000+00000035+00000+0001T   00000035+0000001001          1400 NT6090               1AZ
339516000339516               339516               170213ED     1400+00000+ED0000005699+0000005699+000000000+000000798+0000006490+0000000007+I20000000000+0000006490+Z
339516001339516077-000924     339516006003000414055G/WRAP 700mmx2m WEDDING0000001000+00002192+00000+0001T   00002192+0000001004          1400 NT6112               1AZ
339516002339516133-000010-B   339516006003000577422CLEANING CLOTH ROLL 25 0000001000+00003507+00000+0001T   00003507+0000001004          1400 NT6212               1AZ
339517000339517               339517               170213ED     1400+00000+ED0000002278+0000002278+000000000+000000320+0000002590+0000000008+I20000000000+0000002590+Z
339517001339517565-000071     339517006003000643387NOVELTY WIND UP CHATTER0000002000+00001139+00000+0001T   00001139+0000001010          1400 NT6745               1AZ
339518000339518               339518               170213ED     1400+00000+ED0000001801+0000001801+000000000+000000253+0000002050+0000000004+I20000000000+0000002050+Z
339518001339518077-000520     339518006001023908254GIFT-BAG 25X32CM       0000001000+00001753+00000+0001T   00001753+0000001011          1400 NT6112               1AZ
339518002339518112-116069     339518006009681820277TCS CARRIER BAG JUMBO  0000001000+00000048+00000+0001T   00000048+0000001011          1400 NT6090               1AZ
339519000339519               339519               170213ED     1400+00000+ED0000001753+0000001753+000000000+000000246+0000001990+0000000009+I20000000000+0000001990+Z
339519001339519046-000014-A   339519004897006177708BATTERIES SIZE:AAA 8PCE0000001000+00001753+00000+0001T   00001753+0000001022          1400 NT6312               1AZ
339520000339520               339520               170213ED     1400+00000+ED0000013770+0000013770+000000000+000001935+0000015700+0000000005+I20000000000+0000015700+Z
339520001339520079-009700-D   339520006003000545711PAPER SIRIO A4 RED COL.0000045000+00000306+00000+0001T   00000306+0000001036          1400 NT6130               1AZ
339521000339521               339521               170213ED     1400+00000+ED0000004383-0000004383-000000000+000000615-0000005000-0000000002+I20000000000+0000005000-Z
339521001339521006-000323-D   339521006003000126248CONFETTI H/BIRTHDAY 3PK0000001000-00002630+00000+0001T   00002630+0000001041          1400 NT61313IC            1 Z
339521002339521039-001023     339521006003000466337CANDLE TEA-LITE METALIC0000001000-00001753+00000+0001T   00001753+0000001041          1400 NT65103IC            1 Z
339522000339522               339522               170213ED     1400+00000+ED0000005262+0000005262+000000000+000000737+0000005999+0000000000+I40000005999+0000000000+Z
339522001339522056-065300     339522006001023625854CAR SUNSHIELD ALUM FOIL0000001000+00005262+00000+0001L   00005262+0000001047          1400 NT6860               1AZ
339523000339523               339523               170213ED     1400+00000+ED0000004418+0000004418+000000000+000000620+0000005030+0000000008+I20000000000+0000005030+Z
339523001339523027-785010     339523006003000628995CLEANING WIPES 40-PACK 0000001000+00002630+00000+0001T   00002630+0000001102          1400 NT6212               1AZ
339523002339523200-003026     339523006003000276448REFUSE BAGS 10PCE GREEN0000001000+00001753+00000+0001T   00001753+0000001102          1400 NT6214               1AZ
339523003339523112-116038     339523006009681820246TCS CARRIER BAG MIDI   0000001000+00000035+00000+0001T   00000035+0000001102          1400 NT6090               1AZ
339524000339524               339524               170213ED     1400+00000+ED0000022049+0000022049+000000000+000003088+0000025137+0000000000+I40000025137+0000000000+Z
339524001339524024-000036     339524006001023477002MEASURING-JUG 500ml    0000002000+00001578+00000+0001T   00001578+0000001124          1400 NT6300               1AZ
339524002339524018-005009     339524006001023725608MUG W/PLUSH-BEAR LOVE  0000002000+00003507+00000+0001T   00003507+0000001124          1400 NT6515               1AZ
339524003339524001-000175     339524006001023788108B/MUG GLS LOVE 380ML   0000001000+00004385+00000+0001T   00004385+0000001124          1400 NT6515               1AZ
339524004339524077-000310     339524006001023608635GIFT-BAG 18X23CM GLOSS 0000004000+00001314+00000+0001T   00001314+0000001124          1400 NT6112               1AZ
339524005339524077-000011-C   339524006001023808523TISSUE 10xSHTS RED     0000001000+00000876+00000+0001T   00000876+0000001124          1400 NT6112               1AZ
339524006339524077-000310     339524006001023608635GIFT-BAG 18X23CM GLOSS 0000001000+00001314+00000+0001T   00001314+0000001124          1400 NT6112               1AZ
339524007339524112-116069     339524006009681820277TCS CARRIER BAG JUMBO  0000001000+00000048+00000+0001T   00000048+0000001124          1400 NT6090               1AZ
339525000339525               339525               170213ED     1400+00000+ED0000006172+0000006172+000000000+000000865+0000007030+0000000007+I20000000000+0000007030+Z
339525001339525903-000200     339525006009826020234SWT CHOC RP CHOCO 23G  0000001000+00000788+00000+0001T   00000788+0000001150          1400 NT6150               1AZ
339525002339525028-000795     339525006001023812063SKEWERS 10cm 100PCE 3mm0000001000+00000964+00000+0001T   00000964+0000001150          1400 NT6305               1AZ
339525003339525024-000118     339525006001023422316N/STICK C/PAN HEART    0000001000+00004385+00000+0001T   00004385+0000001150          1400 NT6300               1AZ
339525004339525112-116038     339525006009681820246TCS CARRIER BAG MIDI   0000001000+00000035+00000+0001T   00000035+0000001150          1400 NT6090               1AZ
339526000339526               339526               170213ED     1400+00000+ED0000001753+0000001753+000000000+000000246+0000001990+0000000009+I20000000000+0000001990+Z
339526001339526077-000373     339526006003000395217G/BAG MED 18X23CM DESGN0000001000+00001753+00000+0001T   00001753+0000001216          1400 SW1112               1AZ
339527000339527               339527               170213ED     1400+00000+ED0000003506+0000003506+000000000+000000492+0000003990+0000000008+I20000000000+0000003990+Z
339527001339527006-000120     339527006001023346889BALLOONS 10PC MIX COL  0000002000+00001753+00000+0001T   00001753+0000001219          1400 NT6131               1AZ
339528000339528               339528               170213ED     1400+00000+ED0000004385+0000004385+000000000+000000614+0000004990+0000000009+I20000000000+0000004990+Z
339528001339528082-000105     339528006003000360369READING GLS STRNGHT:1.50000001000+00004385+00000+0001T   00004385+0000001249          1400 NT6160               1AZ
339529000339529               339529               170213ED     1400+00000+ED0000006048+0000006048+000000000+000000848+0000006890+0000000006+I20000000000+0000006890+Z
339529001339529903-002852     339529000000087108040MENTOS ROLL SPEARMINT  0000001000+00001051+00000+0001T   00001051+0000001257          1400 NT6150               1AZ
339529002339529567-014133     339529006003000560103BOOK COLOURING 48 PAGE 0000001000+00001490+00000+0001T   00001490+0000001257          1400 NT6757               1AZ
339529003339529007-000325     339529006009698066514PAPER A4 160GSM 25SHTS 0000001000+00003507+00000+0001T   00003507+0000001257          1400 NT6130               1AZ
339530000339530               339530               170213ED     1400+00000+ED0000002628+0000002628+000000000+000000369+0000002990+0000000007+I20000000000+0000002990+Z
339530001339530077-000151     339530006008766114676GIFT-WRAP C/PHANE ASSTD0000003000+00000876+00000+0001T   00000876+0000001257          1400 NT6112               1AZ
339531000339531               339531               170213ED     1400+00000+ED0000009683+0000009683+000000000+000001356+0000011030+0000000009+I20000000000+0000011030+Z
339531001339531030-004015     339531006003000467624PLAQUE WDN SIGN 30X20CM0000001000+00009648+00000+0001T   00009648+0000001420          1400 NT6505               1AZ
339531002339531112-116038     339531006009681820246TCS CARRIER BAG MIDI   0000001000+00000035+00000+0001T   00000035+0000001420          1400 NT6090               1AZ
339532000339532               339532               170213ED     1400+00000+ED0000023445+0000023445+000000000+000003317+0000026762+0000000000+I40000026762+0000000000+Z
339532001339532903-000183     339532006003000451043SWT LB HEART LOLLY     0000032000+00000393+00000+0001T   00000393+0000001433          1400 NT6150               1AZ
339532002339532077-000470     339532006003000330171G-BAG DESGN SML 11X14CM0000001000+00001314+00000+0001T   00001314+0000001433          1400 NT6112               1AZ
339532003339532006-000111     339532006003000519385BALLOONS LARGE 12PCE   0000001000+00002630+00000+0001T   00002630+0000001433          1400 NT6131               1AZ
339532004339532077-000470     339532006003000330171G-BAG DESGN SML 11X14CM0000001000+00001314+00000+0001T   00001314+0000001433          1400 NT6112               1AZ
339532005339532903-000892     339532008693029700420SWT NOVELTY CHOCO CREAM0000001000+00000788+00000+0001T   00000788+0000001433          1400 NT6150               1AZ
339532006339532077-000310     339532006001023608635GIFT-BAG 18X23CM GLOSS 0000001000+00001314+00000+0001T   00001314+0000001433          1400 NT6112               1AZ
339532007339532903-000006     339532006923431571571SWEET GS SOUR BELT 50g 0000001000+00000876+00000+0001T   00000876+0000001433          1400 NT6150               1AZ
339532008339532080-000127     339532006003000424351VALENTINES DAY 36x24CM 0000001000+00002192+00000+0001T   00002192+0000001433          1400 NT6112               1AZ
339532009339532112-116069     339532006009681820277TCS CARRIER BAG JUMBO  0000001000+00000048+00000+0001T   00000048+0000001433          1400 NT6090               1AZ
339532010339532903-000183     339532006003000451043SWT LB HEART LOLLY     0000001000+00000393+00000+0001T   00000393+0000001433          1400 NT6150               1AZ
339533000339533               339533               170213ED     1400+00000+ED0000002138+0000002138+000000000+000000300+0000002438+0000000000+I40000002438+0000000000+Z
339533001339533071-001012     339533006001023474445MARKERS BLACK ROUND    0000001000+00000876+00000+0001T   00000876+0000001435          1400 NT6130               1AZ
339533002339533071-081091     339533006001151010287STAED/GENKEM ALL-STICK 0000001000+00001227+00000+0001T   00001227+0000001435          1400 NT6130               1AZ
339533003339533112-116038     339533006009681820246TCS CARRIER BAG MIDI   0000001000+00000035+00000+0001T   00000035+0000001435          1400 NT6090               1AZ
339534000339534               339534               170213ED     1400+00000+ED0000001227+0000001227+000000000+000000172+0000001399+0000000000+I40000001399+0000000000+Z
339534001339534071-081091     339534006001151010287STAED/GENKEM ALL-STICK 0000001000+00001227+00000+0001T   00001227+0000001436          1400 NT6130               1AZ
339535000339535               339535               170213ED     1400+00000+ED0000001753+0000001753+000000000+000000246+0000001990+0000000009+I20000000000+0000001990+Z
339535001339535150-012228-H   339535006001023416773DOOR-STOPPERS SET-OF-2 0000001000+00001753+00000+0001T   00001753+0000001451          1400 NT6810               1AZ
339536000339536               339536               170213ED     1400+00000+ED0000004592+0000004592+000000000+000000644+0000005230+0000000006+I20000000000+0000005230+Z
339536001339536002-021040     339536006001023812216PARTY-PICKS 100PCE     0000002000+00000525+00000+0001T   00000525+0000001458          1400 NT6300               1AZ
339536002339536567-011906     339536006003000676286BK PROMO CLEARANCE     0000001000+00003507+00000+0001T   00004385+0008141458          1400 NT6757               1AZ
339536003339536112-116038     339536006009681820246TCS CARRIER BAG MIDI   0000001000+00000035+00000+0001T   00000035+0000001458          1400 NT6090               1AZ
339537000339537               339537               170213ED     1400+00000+ED0000003507+0000003507+000000000+000000491+0000003990+0000000008+I20000000000+0000003990+Z
339537001339537018-005009     339537006001023725608MUG W/PLUSH-BEAR LOVE  0000001000+00003507+00000+0001T   00003507+0000001504          1400 NT6515               1AZ
339538000339538               339538               170213ED     1400+00000+ED0000006926+0000006926+000000000+000000971+0000007890+0000000007+I20000000000+0000007890+Z
339538001339538002-000800     339538006001023770660PEELER MTL/PL WHITE    0000001000+00001139+00000+0001T   00001139+0000001505          1400 NT6300               1AZ
339538002339538105-001005     339538006001023858214CONTAINERS MINI 6PCE   0000001000+00001402+00000+0001T   00001402+0000001505          1400 NT6210               1AZ
339538003339538104-000135     339538006001023846419WASTEBIN SWING-LID 28cm0000001000+00004385+00000+0001T   00004385+0000001505          1400 NT6210               1AZ
339539000339539               339539               170213ED     1400+00000+ED0000000437+0000000437+000000000+000000062+0000000490+0000000009+I20000000000+0000000490+Z
339539001339539080-000133-A   339539006003000647019MINI VALENTINES CARD   0000001000+00000437+00000+0001T   00000437+0000001506          1400 NT6112               1AZ
339540000339540               339540               170213ED     1400+00000+ED0000003507+0000003507+000000000+000000491+0000003990+0000000008+I20000000000+0000003990+Z
339540001339540018-000130     339540006001023867537MUG OCC LOVE MINI+HEART0000001000+00003507+00000+0001T   00003507+0000001508          1400 NT6515               1AZ
339541000339541               339541               170213ED     1400+00000+ED0000005295+0000005295+000000000+000000743+0000006030+0000000008+I20000000000+0000006030+Z
339541001339541018-000129     339541006001023403353MUG OCC. LOVE V-SHAPE  0000002000+00002630+00000+0001T   00002630+0000001512          1400 NT6515               1AZ
339541002339541112-116038     339541006009681820246TCS CARRIER BAG MIDI   0000001000+00000035+00000+0001T   00000035+0000001512          1400 NT6090               1AZ
339542000339542               339542               170213ED     1400+00000+ED0000021463+0000021463+000000000+000003007+0000024470+0000000000+I40000024470+0000000000+Z
339542001339542077-000011-E   339542006001023808646TISSUE-WRAP PINK 10PCE 0000001000+00000876+00000+0001T   00000876+0000001515          1400 NT6112               1AZ
339542002339542077-000309     339542006001023608604GIFT-BAG 25X32CM GLOSS 0000001000+00001753+00000+0001T   00001753+0000001515          1400 NT6112               1AZ
339542003339542077-000011-C   339542006001023808523TISSUE 10xSHTS RED     0000001000+00000876+00000+0001T   00000876+0000001515          1400 NT6112               1AZ
339542004339542016-006517     339542006003000351626S/JAR GLS CHECK 650ML  0000001000+00002192+00000+0001T   00002192+0000001515          1400 NT6300               1AZ
339542005339542039-080944     339542006001023758897C/PILLAR RND WHT 12X7CM0000002000+00004385+00000+0001T   00004385+0000001515          1400 NT6510               1AZ
339542006339542075-000412     339542006001023855299SHOPPER-BASKET PL      0000001000+00005700+00000+0001T   00005700+0000001515          1400 NT6160               1AZ
339542007339542903-000510     339542006001704012621SWEET MS ZBDZ S/BERRY  0000001000+00001227+00000+0001T   00001227+0000001515          1400 NT6150               1AZ
339542008339542112-116053     339542006006438002399TCS CARRIER BAG 38L    0000001000+00000069+00000+0001T   00000069+0000001515          1400 NT6090               1AZ
339543000339543               339543               170213ED     1400+00000+ED0000003069+0000003069+000000000+000000430+0000003490+0000000009+I20000000000+0000003490+Z
339543001339543133-000074     339543006003000244072D/CLOTH 40x60 80g      0000001000+00003069+00000+0001T   00003069+0000001516          1400 NT6212               1AZ
339544000339544               339544               170213ED     1400+00000+ED0000001927+0000001927+000000000+000000271+0000002190+0000000008+I20000000000+0000002190+Z
339544001339544464-000106     339544006001023171153PLAYING-CARDS (SINGLE) 0000001000+00001490+00000+0001T   00001490+0000001518          1400 NT6785               1AZ
339544002339544080-000133-A   339544006003000647019MINI VALENTINES CARD   0000001000+00000437+00000+0001T   00000437+0000001518          1400 NT6112               1AZ
339545000339545               339545               170213ED     1400+00000+ED0000007062+0000007062+000000000+000000989+0000008050+0000000001+I20000000000+0000008050+Z
339545001339545018-000136     339545006001023659026MUG OCC LOVE W/PLUSH   0000002000+00003507+00000+0001T   00003507+0000001519          1400 NT6515               1AZ
339545002339545112-116069     339545006009681820277TCS CARRIER BAG JUMBO  0000001000+00000048+00000+0001T   00000048+0000001519          1400 NT6090               1AZ
339546000339546               339546               170213ED     1400+00000+ED0000003099+0000003099+000000000+000000436+0000003530+0000000005+I20000000000+0000003530+Z
339546001339546080-000133-A   339546006003000647019MINI VALENTINES CARD   0000002000+00000437+00000+0001T   00000437+0000001527          1400 NT6112               1AZ
339546002339546112-116038     339546006009681820246TCS CARRIER BAG MIDI   0000001000+00000035+00000+0001T   00000035+0000001527          1400 NT6090               1AZ
339546003339546077-000302     339546008010410010195GIFT-BAG 18X23CM E/D   0000001000+00000876+00000+0001T   00000876+0000001527          1400 NT6112               1AZ
339546004339546077-000310     339546006001023608635GIFT-BAG 18X23CM GLOSS 0000001000+00001314+00000+0001T   00001314+0000001527          1400 NT6112               1AZ
339547000339547               339547               170213ED     1400+00000+ED0000018240+0000018240+000000000+000002555+0000020790+0000000005+I20000000000+0000020790+Z
339547001339547018-000127     339547006001023380289MUG OCC STRAIGHT LOVE  0000001000+00001578+00000+0001T   00001753+0006471545          1400 NT6515               1AZ
339547002339547077-000309     339547006001023608604GIFT-BAG 25X32CM GLOSS 0000001000+00001753+00000+0001T   00001753+0000001545          1400 NT6112               1AZ
339547003339547368-000637     339547006001023874092PLUSH BEAR SLEEPING LOV0000001000+00011402+00000+0001T   00012279+0006471545          1400 NT6745               1AZ
339547004339547301-085004     339547006003000420469ORN LOVE PLAQUE 21X10CM0000001000+00003507+00000+0001T   00003946+0006471545          1400 NT6505               1AZ
339548000339548               339548               170213ED     1400+00000+ED0000017521+0000017521+000000000+000002455+0000019976+0000000000+I40000019976+0000000000+Z
339548001339548368-000637     339548006001023874092PLUSH BEAR SLEEPING LOV0000001000+00011402+00000+0001T   00012279+0006471546          1400 NT6745               1AZ
339548002339548301-085001     339548006003000297610ORN WATERBALL LOVE ASST0000001000+00004823+00000+0001T   00004823+0000001546          1400 NT6505               1AZ
339548003339548077-000318     339548006001023609755GIFT-BAG 18X23CM E/D AN0000001000+00001227+00000+0001T   00001227+0000001546          1400 NT6112               1AZ
339548004339548112-116053     339548006006438002399TCS CARRIER BAG 38L    0000001000+00000069+00000+0001T   00000069+0000001546          1400 NT6090               1AZ
339549000339549               339549               170213ED     1400+00000+ED0000021552+0000021552+000000000+000003019+0000024571+0000000000+I40000024571+0000000000+Z
339549001339549018-005009     339549006001023725608MUG W/PLUSH-BEAR LOVE  0000001000+00003507+00000+0001T   00003507+0000001551          1400 NT6515               1AZ
339549002339549002-012268     339549006001023555526TONGS NYLON 26CM LNG   0000001000+00003946+00000+0001T   00003946+0000001551          1400 NT6300               1AZ
339549003339549024-000019     339549006001023822277HILLHOUSE ICING-SET    0000001000+00005262+00000+0001T   00005262+0000001551          1400 NT6300               1AZ
339549004339549024-091103     339549006003453014307BAKING-CUP MUFFIN 50PCE0000001000+00002192+00000+0001T   00002192+0000001551          1400 NT6300               1AZ
339549005339549072-020311     339549006003000494132PET DOG TOY VINYL BALL 0000001000+00003069+00000+0001T   00003069+0000001551          1400 NT6870               1AZ
339549006339549072-020278     339549006003000024100PET CAT LITTER PAN PL  0000001000+00003507+00000+0001T   00003507+0000001551          1400 NT6870               1AZ
339549007339549112-116053     339549006006438002399TCS CARRIER BAG 38L    0000001000+00000069+00000+0001T   00000069+0000001551          1400 NT6090               1AZ
339550000339550               339550               170213ED     1400+00000+ED0000012344+0000012344+000000000+000001731+0000014075+0000000000+I40000014075+0000000000+Z
339550001339550162-093147     339550006001492931470#TAG PINKS FEATHER ER  0000001000+00001753+00000+0001T   00003507+0008161554          1400 NT6160               1AZ
339550002339550366-007601     339550006003000655472DRESS UP MASK THEATRICA0000001000+00000876+00000+0001T   00000876+0000001554          1400 NT6131               1AZ
339550003339550266-003012     339550006001023786128BOYS P/SET ARCHERY 4pc 0000001000+00002630+00000+0001T   00002630+0000001554          1400 NT6710               1AZ
339550004339550366-000105     339550006001023866103DRESSUP WINGS AND SKIRT0000001000+00007016+00000+0001T   00007016+0000001554          1400 NT6131               1AZ
339550005339550112-116053     339550006006438002399TCS CARRIER BAG 38L    0000001000+00000069+00000+0001T   00000069+0000001554          1400 NT6090               1AZ
339551000339551               339551               170213ED     1400+00000+ED0000011994+0000011994+000000000+000001681+0000013675+0000000000+I40000013675+0000000000+Z
339551001339551002-000711     339551006003000442775C/BOARD WDN 24x33.5x1.60000001000+00007455+00000+0001T   00007455+0000001559          1400 NT6300               1AZ
339551002339551019-071606     339551006003000678891PEBBLES 500G 3MM WHITE.0000003000+00001490+00000+0001T   00001490+0000001559          1400 NT6510               1AZ
339551003339551112-116053     339551006006438002399TCS CARRIER BAG 38L    0000001000+00000069+00000+0001T   00000069+0000001559          1400 NT6090               1AZ
339552000339552               339552               170213ED     1400+00000+ED0000003153+0000003153+000000000+000000444+0000003590+0000000007+I20000000000+0000003590+Z
339552001339552079-009702-D   339552008427973059354PAPER SIRIO A2 RED COL 0000003000+00001051+00000+0001T   00001051+0000001600          1400 NT6130               1AZ
339553000339553               339553               170213ED     1400+00000+ED0000009989+0000009989+000000000+000001402+0000011390+0000000001+I20000000000+0000011390+Z
339553001339553077-000245     339553006001023759214GIFT-RIBBON METALLICx2 0000003000+00001227+00000+0001T   00001227+0000001601          1400 NT6112               1AZ
339553002339553903-002851     339553000000087108538MENTOS ROLL STRAWBERRY 0000002000+00001051+00000+0001T   00001051+0000001601          1400 NT6150               1AZ
339553003339553200-000100     339553006001023764003CUPS 25PCE DISPOSABLE  0000001000+00001928+00000+0001T   00001928+0000001601          1400 NT6214               1AZ
339553004339553466-000517     339553006001023752017BALL TENNIS RED CRICKET0000002000+00001139+00000+0001T   00001139+0000001601          1400 NT6785               1AZ
339554000339554               339554               170213ED     1400+00000+ED0000001576+0000001576+000000000+000000222+0000001790+0000000008+I20000000000+0000001790+Z
339554001339554077-000010-C   339554006001023123879CREPE-PAPER RED        0000001000+00000788+00000+0001T   00000788+0000001607          1400 NT6112               1AZ
339554002339554077-000010-U   339554006001023168863CREPE-PAPER CERISE-PINK0000001000+00000788+00000+0001T   00000788+0000001607          1400 NT6112               1AZ
339555000339555               339555               170213ED     1400+00000+ED0000016710+0000016710+000000000+000002341+0000019050+0000000001+I20000000000+0000019050+Z
339555001339555565-000043     339555006003000109562NOVELTY BALL FUNNY FACE0000001000+00001753+00000+0001T   00001753+0000001618          1400 NT6745               1AZ
339555002339555088-000107     339555006001023555823DIFFUSER SET FLOWER    0000001000+00004385+00000+0001T   00004385+0000001618          1400 NT6212               1AZ
339555003339555080-000120     339555006003000236473CARD & ENVELOPE WEDDING0000001000+00001753+00000+0001T   00001753+0000001618          1400 NT6112               1AZ
339555004339555031-000924     339555006001023669964P/FRAME COLLAGE PL     0000001000+00008771+00000+0001T   00008771+0000001618          1400 NT6510               1AZ
339555005339555112-116069     339555006009681820277TCS CARRIER BAG JUMBO  0000001000+00000048+00000+0001T   00000048+0000001618          1400 NT6090               1AZ
339556000339556               339556               170213ED     1400+00000+ED0000000048+0000000048+000000000+000000007+0000000050+0000000005+I20000000000+0000000050+Z
339556001339556112-116069     339556006009681820277TCS CARRIER BAG JUMBO  0000001000+00000048+00000+0001T   00000048+0000001619          1400 NT6090               1AZ
339557000339557               339557               170213ED     1400+00000+ED0000003114+0000003114+000000000+000000438+0000003552+0000000000+I40000003552+0000000000+Z
339557001339557077-000151     339557006008766114676GIFT-WRAP C/PHANE ASSTD0000001000+00000876+00000+0001T   00000876+0000001621          1400 NT6112               1AZ
339557002339557077-000382     339557006003000247820GIFT-BAG MED 18X23CM   0000001000+00001753+00000+0001T   00001753+0000001621          1400 NT6112               1AZ
339557003339557080-000133-A   339557006003000647019MINI VALENTINES CARD   0000001000+00000437+00000+0001T   00000437+0000001621          1400 NT6112               1AZ
339557004339557112-116069     339557006009681820277TCS CARRIER BAG JUMBO  0000001000+00000048+00000+0001T   00000048+0000001621          1400 NT6090               1AZ
339558000339558               339558               170213ED     1400+00000+ED0000009645+0000009645+000000000+000001352+0000010997+0000000000+I40000010997+0000000000+Z
339558001339558018-000022     339558006001023648082MUG N/BONE 320ML BARREL0000002000+00002630+00000+0001T   00002630+0000001628          1400 NT6515               1BZ
339558002339558009-001312     339558006001023854728MELAMINE FLOWER TRAY RE0000001000+00004385+00000+0001T   00004385+0000001628          1400 NT6210               1BZ
339559000339559               339559               170213ED     1400+00000+ED0000010960+0000010960+000000000+000001536+0000012496+0000000000+I40000012496+0000000000+Z
339559001339559030-000031-A   339559006003000457588PLAQUE W/WORDS ASSTD   0000001000+00004385+00000+0001T   00004823+0006471630          1400 NT6505               1BZ
339559002339559089-000501     339559006003000622900KEY CHAIN LIGHT LASER  0000001000+00002192+00000+0001T   00002192+0000001630          1400 NT6205               1BZ
339559003339559562-000808     339559006003000651573EDU PEG BOARD SML      0000001000+00002630+00000+0001T   00002630+0000001630          1400 NT6755               1BZ
339559004339559077-000316     339559006001023609731GIFT-BAG 25X32CM MATT  0000001000+00001753+00000+0001T   00001753+0000001630          1400 NT6112               1BZ
339560000339560               339560               170213ED     1400+00000+ED0000008593+0000008593+000000000+000001204+0000009790+0000000007+I20000000000+0000009790+Z
339560001339560018-000177     339560006001023797513MUG MINI LOVE ASSTD    0000001000+00000700+00000+0001T   00000700+0000001639          1400 SW1515               1CZ
339560002339560301-085007     339560006003000673698ORN OCC. LOVE S/PLAQUE 0000001000+00007893+00000+0001T   00007893+0000001639          1400 SW1505               1CZ
339561000339561               339561               170213ED     1400+00000+ED0000001752+0000001752+000000000+000000246+0000001990+0000000008+I20000000000+0000001990+Z
339561001339561077-000150-D   339561006003000054343GIFT-WRAP CELLPHANE CLR0000002000+00000876+00000+0001T   00000876+0000001640          1400 SW1112               1BZ
339562000339562               339562               170213ED     1400+00000+ED0000000437+0000000437+000000000+000000062+0000000490+0000000009+I20000000000+0000000490+Z
339562001339562080-000133-A   339562006003000647019MINI VALENTINES CARD   0000001000+00000437+00000+0001T   00000437+0000001640          1400 SW1112               1CZ
339563000339563               339563               170213ED     1400+00000+ED0000009678+0000009678+000000000+000001356+0000011030+0000000004+I20000000000+0000011030+Z
339563001339563031-000923     339563006001023669933P/FRAME BLK W/WORDS    0000001000+00003507+00000+0001T   00003507+0000001642          1400 SW1510               1BZ
339563002339563080-000133-A   339563006003000647019MINI VALENTINES CARD   0000001000+00000437+00000+0001T   00000437+0000001642          1400 SW1112               1BZ
339563003339563031-005853     339563006003000442416P/FRAME WDN TWIN HEARTS0000001000+00003507+00000+0001T   00003507+0000001642          1400 SW1510               1BZ
339563004339563018-000170     339563006001023775528MUG OCC. LOVE 2PC MINI 0000001000+00002192+00000+0001T   00002192+0000001642          1400 SW1515               1BZ
339563005339563112-116038     339563006009681820246TCS CARRIER BAG MIDI   0000001000+00000035+00000+0001T   00000035+0000001642          1400 SW1090               1BZ
339564000339564               339564               170213ED     1400+00000+ED0000002103+0000002103+000000000+000000295+0000002390+0000000008+I20000000000+0000002390+Z
339564001339564077-000245     339564006001023759214GIFT-RIBBON METALLICx2 0000001000+00001227+00000+0001T   00001227+0000001647          1400 SW1112               1BZ
339564002339564077-000150-D   339564006003000054343GIFT-WRAP CELLPHANE CLR0000001000+00000876+00000+0001T   00000876+0000001647          1400 SW1112               1BZ
339565000339565               339565               170213ED     1400+00000+ED0000000437+0000000437+000000000+000000062+0000000490+0000000009+I20000000000+0000000490+Z
339565001339565080-000133-A   339565006003000647019MINI VALENTINES CARD   0000001000+00000437+00000+0001T   00000437+0000001647          1400 SW1112               1BZ
339566000339566               339566               170213ED     1400+00000+ED0000005696+0000005696+000000000+000000799+0000006490+0000000005+I20000000000+0000006490+Z
339566001339566565-000733     339566006001023876751NOVELTY PUTTY FOAM     0000001000+00001753+00000+0001T   00001753+0000001653          1400 NT6745               1BZ
339566002339566564-000036     339566006001023708694BUBBLE W/PUZZLE        0000001000+00001490+00000+0001T   00001490+0000001653          1400 NT6131               1BZ
339566003339566565-000256     339566006003000609826NOVELTY GLOW SLIME     0000001000+00000700+00000+0001T   00000700+0000001653          1400 NT6745               1BZ
339566004339566565-000002     339566006003000308071NOVELTY GROWING ANIMALS0000001000+00001753+00000+0001T   00001753+0000001653          1400 NT6745               1BZ
339567000339567               339567               170213ED     1400+00000+ED0000003892+0000003892+000000000+000000546+0000004430+0000000008+I20000000000+0000004430+Z
339567001339567077-000472     339567006003000330133G-BAG DESGNR LRG 25X32 0000001000+00001753+00000+0001T   00001753+0000001701          1400 NT6112               1BZ
339567002339567903-000095     339567006001704011495SWT SPECKLED-EGGS 100G 0000001000+00002104+00000+0001T   00002104+0000001701          1400 NT61502IC            1BZ
339567003339567112-116038     339567006009681820246TCS CARRIER BAG MIDI   0000001000+00000035+00000+0001T   00000035+0000001701          1400 NT6090               1BZ
339568000339568               339568               170213ED     1400+00000+ED0000002717+0000002717+000000000+000000381+0000003090+0000000008+I20000000000+0000003090+Z
339568001339568903-000087     339568006001704000161SWT SPECKLED-EGGS 50G  0000001000+00001139+00000+0001T   00001139+0000001708          1400 NT6150               1BZ
339568002339568018-000127     339568006001023380289MUG OCC STRAIGHT LOVE  0000001000+00001578+00000+0001T   00001753+0006471708          1400 NT6515               1BZ
339569000339569               339569               170213ED     1400+00000+ED0000008806+0000008806+000000000+000001233+0000010030+0000000009+I20000000000+0000010030+Z
339569001339569039-000799     339569006001023692382CANDLES TEALITE 100PCE 0000001000+00008771+00000+0001T   00008771+0000001718          1400 NT6510               1BZ
339569002339569112-116038     339569006009681820246TCS CARRIER BAG MIDI   0000001000+00000035+00000+0001T   00000035+0000001718          1400 NT6090               1BZ
339570000339570               339570               170213ED     1400+00000+ED0000010556+0000010556+000000000+000001479+0000012035+0000000000+I40000012035+0000000000+Z
339570001339570566-000031     339570006003000283910STICKER BK TEACHER STIC0000004000+00002192+00000+0001T   00002192+0000001721          1400 NT6130               1BZ
339570002339570566-000070     339570006003000283798STICKERS POP UP ASSTD  0000001000+00001753+00000+0001T   00001753+0000001721          1400 NT6130               1BZ
339570003339570112-116038     339570006009681820246TCS CARRIER BAG MIDI   0000001000+00000035+00000+0001T   00000035+0000001721          1400 NT6090               1BZ
339571000339571               339571               170213ED     1400+00000+ED0000001752+0000001752+000000000+000000246+0000001990+0000000008+I20000000000+0000001990+Z
339571001339571252-000011     339571006001023475190CURTN-GLIDER ACETYL x500000001000+00000876+00000+0001T   00000876+0000001722          1400 NT6810               1BZ
339571002339571252-000013     339571006001023488107CURTN-HOOK R6 ACETYLx500000001000+00000876+00000+0001T   00000876+0000001722          1400 NT6810               1BZ
339572000339572               339572               170213ED     1400+00000+ED0000002630+0000002630+000000000+000000369+0000002990+0000000009+I20000000000+0000002990+Z
339572001339572206-000620     339572006003000631797BACK SCRATCHER EXTEND  0000001000+00002630+00000+0001T   00002630+0000001725          1400 NT6321               1BZ
339573000339573               339573               170213ED     1400+00000+ED0000008771-0000008771-000000000+000001228-0000010000-0000000001+I20000000000+0000010000-Z
339573001339573001-999904     339573000000000999904PROMO/ADVERTISING      0000001000-00008771+00000+0001T   00000000+0000001727          1400 NT69042IC            1 Z
339574000339574               339574               170213ED     1400+00000+ED0000001927+0000001927+000000000+000000270+0000002190+0000000007+I20000000000+0000002190+Z
339574001339574077-000310     339574006001023608635GIFT-BAG 18X23CM GLOSS 0000001000+00001314+00000+0001T   00001314+0000001731          1400 NT6112               1BZ
339574002339574304-001011     339574006001023806727FLWR ROSE RED W/BEAR   0000001000+00000613+00000+0001T   00000788+0006471731          1400 NT6510               1BZ
339575000339575               339575               170213ED     1400+00000+ED0000000613+0000000613+000000000+000000086+0000000690+0000000009+I20000000000+0000000690+Z
339575001339575304-001011     339575006001023806727FLWR ROSE RED W/BEAR   0000001000+00000613+00000+0001T   00000788+0006471732          1400 NT6510               1BZ
339576000339576               339576               170213ED     1400+00000+ED0000005699+0000005699+000000000+000000798+0000006490+0000000007+I20000000000+0000006490+Z
339576001339576368-000049     339576006003000536955PLUSH BEAR 15cm LOVE   0000001000+00004385+00000+0001T   00004385+0000001733          1400 NT6745               1BZ
339576002339576077-000310     339576006001023608635GIFT-BAG 18X23CM GLOSS 0000001000+00001314+00000+0001T   00001314+0000001733          1400 NT6112               1BZ
B33956700                                          170213ED903-000095     17012123SLAVE 1     NT62IC0000002000+0000001000+0000000000000+
C33952100                                          170213ED039-001023     10401267SLAVE 1     NT63IC0000000000+0000000000+0020000001000+
C33952101                                          170213ED006-000323-D   10404260SLAVE 1     NT63IC0000000000+0000000000+0010000001000+
C33956000                                          170213ED030-004020     16374292SLAVE 1     NT63IC0000000000+0000000000+0010000001000+
C33956001                                          170213ED112-116069     16375549SLAVE 1     NT63IC0000000000+0000000000+0020000001000+
M17021391                              CASH        EDSLAVE 1                       Z-REPORT No.   590TOTAL (Sales - Refunds)           4748.35       CASH TO BE BANKED                 2462.90       DEBIT CARDS                          0.00       CREDIT CARDS                      2185.45       Z-READING                         4648.35       AIRTIME DEBIT CARD SALES             0.00       AIRTIME CARD SALES                   0.00       OVERS/UNDERS                         0.00       AIRTIME CASH SALES                   0.00       GIFT CARDS                           0.00       GIFT CARD CASH SALES                 0.00       PROMO/ADVERTISING                   99.99       ROUNDING                             0.01       T O T A L  CASH PAYOUTS            100.00                                                                                                                                                                                                                                                      Z
M17021392                              CASH        EDABSENT                                                                                                                                                                                          ANNUAL LEAVE                                                                                                                                                                                    DAY OFF                                                                                                                                                                                         COMMENTS                                                                                                                                                                                                                                                                                                                                                                                       Z
Y17021300                                          ED00000000421115+000066
ZED17021319323 SLAVE 1      SALES DATA                     NEXT INVOICE NO.  339577 0590
X ED Slave 1 First invoice 339509 170213 Last invoice 339576 170213 Next invoice 339577 Total number of records 000000256 clbackup completed 19:32:36
