350387000350387               350387               170213ED     1400+00000+ED0000112691+0000112691+000000000+000015786+0000128477+           I00000000000+0000000000+Z
350387001350387067-001101     350387006001023704290XMAS SANTA-HAT         0000002000+00001051+00000+0001T                                1400 2IC1102ICD             Z
350387002350387467-000022     350387006001023787361BEACH WHEEL-BARROW+ACC 0000001000+00013157+00000+0001T                                1400 2IC7852ICD             Z
350387003350387266-001025     350387006003000108756BOYS TOYS SWORD 75cm   0000001000+00005262+00000+0001T                                1400 2IC7102ICD             Z
350387004350387015-000100     350387006001023821683WHITEWARE CUP+SAUCER   0000001000+00001753+00000+0001T                                1400 2IC5152ICD             Z
350387005350387469-000400     350387006003000213924BUILD CONNECTOR BEADS  0000001000+00007016+00000+0001T                                1400 2IC7552ICD             Z
350387006350387027-009025     350387006001246013216DUSTPAN-SET PL         0000001000+00002630+00000+0001T                                1400 2IC2122ICD             Z
350387007350387027-009025     350387006003000155750DUSTPAN-SET PL         0000001000+00002630+00000+0001T                                1400 2IC2122ICD             Z
350387008350387261-003340     350387006001023491527GUN RIFLE MACHINE GUN  0000002000+00004385+00000+0001T                                1400 2IC7102ICD             Z
350387009350387903-000892     350387008693029700420SWT NOVELTY CHOCO CREAM0000001000+00000788+00000+0001T                                1400 2IC1502ICD             Z
350387010350387105-001005     350387006001023858214CONTAINERS MINI 6PCE   0000001000+00001402+00000+0001T                                1400 2IC2102ICD             Z
350387011350387566-001108     350387000721129017341NAIL-JEWELLERY ASSTD   0000001000+00000876+00000+0001T                                1400 2IC1302ICD             Z
350387012350387466-000004     350387006003000469819PLAY-TENT POP-UP BOY   0000001000+00021928+00000+0001T                                1400 2IC7852ICD             Z
350387013350387077-000382     350387006003000247820GIFT-BAG MED 18X23CM   0000001000+00001753+00000+0001T                                1400 2IC1122ICD             Z
350387014350387903-000151     350387006009803374411SWT SML RND R/BOW LOLLY0000001000+00000525+00000+0001T                                1400 2IC1502ICD             Z
350387015350387031-007004     350387006003000463077P/FRAME A3 CERTIFICATE 0000001000+00008771+00000+0001T                                1400 2IC5102ICD             Z
350387016350387079-012216     350387006003000295944ART+CRAFT SUPER ART SET0000001000+00021928+00000+0001T                                1400 2IC1302ICD             Z
350387017350387035-000023     350387006001023898944UMBRELLA WITH PL COVER 0000001000+00007893+00000+0001T                                1400 2IC2052ICD             Z
350387018350387105-007050-B   350387006002580007411CEREAL-STORE 3L ASSTD  0000001000+00003507+00000+0001T                                1400 2IC2102ICD             Z
350388000350388               350388               170213ED     1400+00000+ED0000029639+0000029639+000000000+000004153+0000033792+           I90000000000+0000000000+Z
350388001350388024-000036     350388006001023477002MEASURING-JUG 500ml    0000001000+00001578+00000+0001T039337070000                    1400 2IC3002ICV             Z
350388002350388106-008100     350388006001023764126MEASURING-SHAKER 500ml 0000001000+00002630+00000+0001T039337070000                    1400 2IC2102ICV             Z
350388003350388027-009027     350388006003000235803BROOM FLAT 1.2m HANDLE 0000001000+00004385+00000+0001T039337070000                    1400 2IC2122ICV             Z
350388004350388027-009027     350388006003000235803BROOM FLAT 1.2m HANDLE 0000001000+00004385+00000+0001T039337070000                    1400 2IC2122ICV             Z
350388005350388071-002887     350388006001023821935CALCULATOR DESKTOP 12DG0000001000+00005262+00000+0001T039337070000                    1400 2IC1302ICV             Z
350388006350388027-000207     350388006003000061570BROOM RUBBER BRISTLES  0000001000+00007016+00000+0001T039337070000                    1400 2IC2122ICV             Z
350388007350388079-000280     350388006003000160723PAINT READYMIX 6PCE    0000001000+00002630+00000+0001T039337070000                    1400 2IC1302ICV             Z
350388008350388466-000103     350388000681070950312BALL 20cm ASSTD        0000001000+00001753+00000+0001T039337070000                    1400 2IC7852ICV             Z
350389000350389               350389               170213ED     1400+00000+ED0000162163+0000162163+000000000+000022755+0000184918+           I90000000000+0000000000+Z
350389001350389079-003005     350389006003000448241A/TUBE 75ML BLUE       0000001000+00001753+00000+0001T072937080000                    1400 2IC1302ICV             Z
350389002350389079-003005     350389006003000448241A/TUBE 75ML BLUE       0000001000+00001753+00000+0001T072937080000                    1400 2IC1302ICV             Z
350389003350389079-003009     350389006003000448722A/TUBE 75ML NATURAL    0000006000+00001753+00000+0001T072937080000                    1400 2IC1302ICV             Z
350389004350389079-003002     350389006003000447886A/TUBE 75ML RED        0000009000+00001753+00000+0001T072937080000                    1400 2IC1302ICV             Z
350389005350389079-003007     350389006003000448487A/TUBE 75ML BROWN      0000004000+00001753+00000+0001T072937080000                    1400 2IC1302ICV             Z
350389006350389079-003000     350389006003000448838A/TUBE 75ML WHITE      0000009000+00001753+00000+0001T072937080000                    1400 2IC1302ICV             Z
350389007350389079-003012     350389006003000447893A/TUBE 75ML VIOLET     0000003000+00001753+00000+0001T072937080000                    1400 2IC1302ICV             Z
350389008350389079-003008     350389006003000448609A/TUBE 75ML GREY       0000004000+00001753+00000+0001T072937080000                    1400 2IC1302ICV             Z
350389009350389079-003001     350389006003000448951A/TUBE 75ML BLACK      0000002000+00001753+00000+0001T072937080000                    1400 2IC1302ICV             Z
350389010350389079-003013     350389006003000633838PAINT ACRYLIC TUBE BRNZ0000006000+00002630+00000+0001T072937080000                    1400 2IC1302ICV             Z
350389011350389079-003004     350389006003000448128TUBE 75ML LIGHT GREEN  0000002000+00001753+00000+0001T072937080000                    1400 2IC1302ICV             Z
350389012350389079-003011     350389006003000448968A/TUBE 75ML ORANGE     0000004000+00001753+00000+0001T072937080000                    1400 2IC1302ICV             Z
350389013350389079-003014     350389006003000633951PAINT ACRYLIC 75ml SILV0000008000+00002630+00000+0001T072937080000                    1400 2IC1302ICV             Z
350389014350389079-003010     350389006003000448845A/TUBE 75ML YELLOW     0000006000+00001753+00000+0001T072937080000                    1400 2IC1302ICV             Z
350389015350389079-003015     350389006003000634071PAINT ACRYLIC 75ml GOLD0000007000+00002630+00000+0001T072937080000                    1400 2IC1302ICV             Z
350389016350389079-003004     350389006003000448128TUBE 75ML LIGHT GREEN  0000007000+00001753+00000+0001T072937080000                    1400 2IC1302ICV             Z
350389017350389034-078800     350389006001023856555COOEY WET-WIPES 60PCE  0000003000+00001753+00000+0001T072937080000                    1400 2IC2152ICV             Z
C35039000                                          170213ED567-075466     10502683SLAVE 3     ZE62IC0000000000+0000000000+0010000001000+
M17021391                              CASH        EDSLAVE 3                       Z-REPORT No.   412TOTAL (Sales - Refunds)              0.00       CASH TO BE BANKED                    0.00       DEBIT CARDS                          0.00       CREDIT CARDS                         0.00       Z-READING                            0.00       AIRTIME DEBIT CARD SALES             0.00       AIRTIME CARD SALES                   0.00       OVERS/UNDERS                         0.00       AIRTIME CASH SALES                   0.00       GIFT CARDS                           0.00       GIFT CARD CASH SALES                 0.00       T O T A L  CASH PAYOUTS              0.00                                                                                                                                                                                                                                                                                                                                                      Z
M17021392                              CASH        EDABSENT                                                                                                                                                                                          ANNUAL LEAVE                                                                                                                                                                                    DAY OFF                                                                                                                                                                                         COMMENTS                                                                                                                                                                                                                                                                                                                                                                                       Z
Y17021300                                          ED00000000000000+000000
ZED17021319323 SLAVE 3      SALES DATA                     NEXT INVOICE NO.  350390 0412
L59315600356235-001-001       ED1702131004371ICKHOLIWE BANGANI                                                                                                                                                                                                                                                                                                                                                                                                                                                                                                                                                                                                                                                                                                                                                                                                                                                                                                                                                                                      Z
V59315600000235-001-001       ED1702131004371ICKHOL               0000000000000001702130000001ICSLAVE 3     170213100737356235N              01
X ED Slave 3 First invoice 350387 170213 Last invoice 350389 170213 Next invoice 350390 Total number of records 000000053 clbackup completed 19:32:40
