312767000312767               312767               170213EF     1400+00000+EF0000005907+0000005907+000000000+000000829+0000006736+0000000000+I40000006736+0000000000+Z
312767001312767903-002890     312767008935001721352MENTOS GUM PURE F/MINT 0000001000+00001051+00000+0001T   00001051+0000000910          1400 AC4150               1AZ
312767002312767206-000590     312767006003000633708BAG CLIPS LIPS 2PC     0000001000+00001753+00000+0001T   00001753+0000000910          1400 AC4321               1AZ
312767003312767006-000223     312767006001023891327PARTY EYE-MASK 6PCE    0000001000+00000876+00000+0001T   00000876+0000000910          1400 AC4131               1AZ
312767004312767563-000318-L   312767006003000407088SERVIETTES 33cm RED    0000001000+00002192+00000+0001T   00002192+0000000910          1400 AC4214               1AZ
312767005312767112-116038     312767006009681820246TCS CARRIER BAG MIDI   0000001000+00000035+00000+0001T   00000035+0000000910          1400 AC4090               1AZ
312768000312768               312768               170213EF     1400+00000+EF0000007049+0000007049+000000000+000000987+0000008036+0000000000+I40000008036+0000000000+Z
312768001312768018-005009     312768006001023725608MUG W/PLUSH-BEAR LOVE  0000002000+00003507+00000+0001T   00003507+0000000912          1400 AC4515               1AZ
312768002312768112-116038     312768006009681820246TCS CARRIER BAG MIDI   0000001000+00000035+00000+0001T   00000035+0000000912          1400 AC4090               1AZ
312769000312769               312769               170213EF     1400+00000+EF0000001753+0000001753+000000000+000000246+0000001990+0000000009+I20000000000+0000001990+Z
312769001312769007-000724     312769006003000225958NOTE MAGNETIC 60SHTS   0000001000+00001753+00000+0001T   00001753+0000000918          1400 AC4130               1AZ
312770000312770               312770               170213EF     1400+00000+EF0000009430+0000009430+000000000+000001322+0000010752+0000000000+I40000010752+0000000000+Z
312770001312770065-003642     312770006003000396405GUITAR ROCKER 2 TONE   0000001000+00005262+00000+0001T   00005262+0000000928          1400 AC4745               1AZ
312770002312770036-000605     312770006001023158611WASHING-PEGS WDN PCK-240000001000+00001490+00000+0001T   00001490+0000000928          1400 AC4212               1AZ
312770003312770220-005001     312770006003000565917ELOFF TABLE FORKS 4PC  0000001000+00002630+00000+0001T   00002630+0000000928          1400 AC4300               1AZ
312770004312770112-116069     312770006009681820277TCS CARRIER BAG JUMBO  0000001000+00000048+00000+0001T   00000048+0000000928          1400 AC4090               1AZ
312771000312771               312771               170213EF     1400+00000+EF0000010393+0000010393+000000000+000001456+0000011849+0000000000+I40000011849+0000000000+Z
312771001312771018-000136     312771006001023659026MUG OCC LOVE W/PLUSH   0000001000+00003507+00000+0001T   00003507+0000000931          1400 AC4515               1AZ
312771002312771018-005009     312771006001023725608MUG W/PLUSH-BEAR LOVE  0000001000+00003507+00000+0001T   00003507+0000000931          1400 AC4515               1AZ
312771003312771007-000043     312771006009635831496DISPLAY-BOOK PL A4 20PG0000001000+00001753+00000+0001T   00001753+0000000931          1400 AC4130               1AZ
312771004312771018-000127     312771006001023380289MUG OCC STRAIGHT LOVE  0000001000+00001578+00000+0001T   00001753+0006470931          1400 AC4515               1AZ
312771005312771112-116069     312771006009681820277TCS CARRIER BAG JUMBO  0000001000+00000048+00000+0001T   00000048+0000000931          1400 AC4090               1AZ
312772000312772               312772               170213EF     1400+00000+EF0000005875+0000005875+000000000+000000823+0000006690+0000000008+I20000000000+0000006690+Z
312772001312772077-000299     312772006003000395576G/BAG 32x25cm LRG LOVE 0000001000+00001490+00000+0001T   00001490+0000000936          1400 AC4112               1AZ
312772002312772001-000175     312772006001023788108B/MUG GLS LOVE 380ML   0000001000+00004385+00000+0001T   00004385+0000000936          1400 AC4515               1AZ
312773000312773               312773               170213EF     1400+00000+EF0000001753+0000001753+000000000+000000246+0000001990+0000000009+I20000000000+0000001990+Z
312773001312773566-000314     312773006003000523177STCKERS ROOM DEC MIRROR0000001000+00001753+00000+0001T   00002630+0008150944          1400 AC4130               1AZ
312774000312774               312774               170213EF     1400+00000+EF0000004385+0000004385+000000000+000000614+0000004990+0000000009+I20000000000+0000004990+Z
312774001312774368-006004     312774006003000671076PLUSH DOLPHIN          0000001000+00004385+00000+0001T   00004385+0000000949          1400 AC4745               1AZ
312775000312775               312775               170213EF     1400+00000+EF0000004385+0000004385+000000000+000000614+0000004990+0000000009+I20000000000+0000004990+Z
312775001312775071-010483     312775006001023912695MAGNIFY-GLASS F/FULL PG0000001000+00004385+00000+0001T   00004385+0000000949          1400 AC4130               1AZ
312776000312776               312776               170213EF     1400+00000+EF0000004385+0000004385+000000000+000000614+0000004990+0000000009+I20000000000+0000004990+Z
312776001312776071-010483     312776006001023912695MAGNIFY-GLASS F/FULL PG0000001000+00004385+00000+0001T   00004385+0000000950          1400 AC4130               1AZ
312777000312777               312777               170213EF     1400+00000+EF0000000876+0000000876+000000000+000000123+0000000990+0000000009+I20000000000+0000000990+Z
312777001312777078-000025     312777008887013700064SUPERGLUE 3g 1PCE CARD 0000001000+00000876+00000+0001T   00000876+0000000957          1400 AC4810               1AZ
312778000312778               312778               170213EF     1400+00000+EF0000001753+0000001753+000000000+000000246+0000001990+0000000009+I20000000000+0000001990+Z
312778001312778142-000814     312778006001023183910GLOVES RUBBER  MEDIUM  0000001000+00001753+00000+0001T   00001753+0000001000          1400 AC4810               1AZ
312779000312779               312779               170213EF     1400+00000+EF0000005260+0000005260+000000000+000000737+0000005990+0000000007+I20000000000+0000005990+Z
312779001312779079-000012     312779006001023655332P/CRAYONS 12-COL LONG  0000001000+00001753+00000+0001T   00001753+0000001004          1400 AC4130               1AZ
312779002312779567-011344     312779006003000630714BK COLOURING THERAPY 640000001000+00003507+00000+0001T   00003507+0000001004          1400 AC4757               1AZ
312780000312780               312780               170213EF     1400+00000+EF0000011184+0000011184+000000000+000001567+0000012750+0000000001+I20000000000+0000012750+Z
312780001312780016-006500     312780006003000618460S/JAR GLS HERMETICO    0000002000+00004385+00000+0001T   00004385+0000001006          1400 AC4300               1AZ
312780002312780077-000011-D   312780006001023808554TISSUE-WRAP WHITE 10PCE0000001000+00000876+00000+0001T   00000876+0000001006          1400 AC4112               1AZ
312780003312780077-000299     312780006003000395576G/BAG 32x25cm LRG LOVE 0000001000+00001490+00000+0001T   00001490+0000001006          1400 AC4112               1AZ
312780004312780112-116069     312780006009681820277TCS CARRIER BAG JUMBO  0000001000+00000048+00000+0001T   00000048+0000001006          1400 AC4090               1AZ
312781000312781               312781               170213EF     1400+00000+EF0000001578+0000001578+000000000+000000221+0000001790+0000000009+I20000000000+0000001790+Z
312781001312781018-000127     312781006001023380289MUG OCC STRAIGHT LOVE  0000001000+00001578+00000+0001T   00001753+0006471007          1400 AC4515               1AZ
312782000312782               312782               170213EF     1400+00000+EF0000002189+0000002189+000000000+000000307+0000002490+0000000006+I20000000000+0000002490+Z
312782001312782903-000087     312782006001704000161SWT SPECKLED-EGGS 50G  0000001000+00001139+00000+0001T   00001139+0000001008          1400 AC4150               1AZ
312782002312782903-000120     312782006002099001665SWEET GS ZILLIONS 50g  0000001000+00000700+00000+0001T   00000700+0000001008          1400 AC4150               1AZ
312782003312782007-000167     312782006009685857347SPIRAL NOTES A7 72PG   0000001000+00000350+00000+0001T   00000350+0000001008          1400 AC4130               1AZ
312783000312783               312783               170213EF     1400+00000+EF0000017743+0000017743+000000000+000002489+0000020230+0000000002+I20000000000+0000020230+Z
312783001312783079-013032-F   312783006003000496266FOAM NUMBERS           0000001000+00002192+00000+0001T   00002192+0000001014          1400 AC4130               1AZ
312783002312783079-013032     312783006003000389209SET LETTERS 2 ASSTD    0000001000+00001753+00000+0001T   00001753+0000001014          1400 AC4130               1AZ
312783003312783200-000042     312783006001023868886BAG-SEALERS 10PCE      0000001000+00002630+00000+0001T   00002630+0000001014          1400 AC4214               1AZ
312783004312783007-000588     312783006001023810090NOTES SHOPPING-LIST+RIB0000001000+00002630+00000+0001T   00002630+0000001014          1400 AC4130               1AZ
312783005312783007-010495     312783006003000533510BOARD DRY WIPE & PEN   0000001000+00002630+00000+0001T   00002630+0000001014          1400 AC4130               1AZ
312783006312783028-000796     312783006001023812094SKEWERS 25cm 50PCE 4mm 0000001000+00001490+00000+0001T   00001490+0000001014          1400 AC4305               1AZ
312783007312783562-000808     312783006003000651573EDU PEG BOARD SML      0000001000+00002630+00000+0001T   00002630+0000001014          1400 AC4755               1AZ
312783008312783566-000028     312783006003000265541STICKER BK ASSTD 250PCE0000001000+00001753+00000+0001T   00001753+0000001014          1400 AC4130               1AZ
312783009312783112-116038     312783006009681820246TCS CARRIER BAG MIDI   0000001000+00000035+00000+0001T   00000035+0000001014          1400 AC4090               1AZ
312784000312784               312784               170213EF     1400+00000+EF0000002630+0000002630+000000000+000000369+0000002990+0000000009+I20000000000+0000002990+Z
312784001312784077-000270     312784006003000395453GIFT-BAG PPR JMB 33X45 0000001000+00002630+00000+0001T   00002630+0000001016          1400 AC4112               1AZ
312785000312785               312785               170213EF     1400+00000+EF0000004384+0000004384+000000000+000000614+0000004998+0000000000+I40000004998+0000000000+Z
312785001312785563-000318-L   312785006003000407088SERVIETTES 33cm RED    0000002000+00002192+00000+0001T   00002192+0000001018          1400 AC4214               1AZ
312786000312786               312786               170213EF     1400+00000+EF0000003156+0000003156+000000000+000000442+0000003590+0000000008+I20000000000+0000003590+Z
312786001312786077-000303     312786006001023593757GIFT-BAG PAPER MED     0000002000+00001578+00000+0001T   00001578+0000001018          1400 AC4112               1AZ
312787000312787               312787               170213EF     1400+00000+EF0000002192+0000002192+000000000+000000307+0000002490+0000000009+I20000000000+0000002490+Z
312787001312787077-000309-A   312787006003000671007GIFT-BAG HOLOGRAM JMB  0000001000+00002192+00000+0001T   00002192+0000001019          1400 AC4112               1AZ
312788000312788               312788               170213EF     1400+00000+EF0000001578+0000001578+000000000+000000221+0000001790+0000000009+I20000000000+0000001790+Z
312788001312788018-000127     312788006001023380289MUG OCC STRAIGHT LOVE  0000001000+00001578+00000+0001T   00001753+0006471019          1400 AC4515               1AZ
312789000312789               312789               170213EF     1400+00000+EF0000000788+0000000788+000000000+000000111+0000000890+0000000009+I20000000000+0000000890+Z
312789001312789903-000138     312789006002099004314SWT GS WINE GUMS 60G   0000001000+00000788+00000+0001T   00000788+0000001020          1400 AC4150               1AZ
312790000312790               312790               170213EF     1400+00000+EF0000007891+0000007891+000000000+000001106+0000008997+0000000000+I40000008997+0000000000+Z
312790001312790039-080962     312790006001023736055C/SET 3PC(GLS-CUP+2CAN)0000001000+00001753+00000+0001T   00001753+0000001023          1400 AC4510               1AZ
312790002312790077-000314     312790006003000181148GIFT-BAG 11X14CM MATT  0000001000+00000876+00000+0001T   00000876+0000001023          1400 AC4112               1AZ
312790003312790301-085003     312790006003000420827ORN OCCASION LOVE KEY  0000001000+00005262+00000+0001T   00005262+0000001023          1400 AC4505               1AZ
312791000312791               312791               170213EF     1400+00000+EF0000001490-0000001490-000000000+000000209-0000001700-0000000001+I20000000000+0000001700-Z
312791001312791033-000013     312791006001023567215PILL-REMINDER PL       0000002000-00001227+00000+0001T   00001227+0000001030          1400 AC42002IC            1 Z
312791002312791107-002127     312791006003000697793BASIN PL 30cm SQUARE   0000001000+00000964+00000+0001T   00000964+0000001030          1400 AC4210               1 Z
312792000312792               312792               170213EF     1400+00000+EF0000005347+0000005347+000000000+000000750+0000006090+0000000007+I20000000000+0000006090+Z
312792001312792028-001016     312792006003000365272CUTLERY SET 18PC CARDED0000001000+00003069+00000+0001T   00003069+0000001031          1400 AC4305               1AZ
312792002312792903-000087     312792006001704000161SWT SPECKLED-EGGS 50G  0000002000+00001139+00000+0001T   00001139+0000001031          1400 AC4150               1AZ
312793000312793               312793               170213EF     1400+00000+EF0000001753+0000001753+000000000+000000246+0000001990+0000000009+I20000000000+0000001990+Z
312793001312793051-500115     312793006003000528059GARDEN KID SPRAY BOTTLE0000001000+00001753+00000+0001T   00001753+0000001036          1400 AC4820               1AZ
312794000312794               312794               170213EF     1400+00000+EF0000003507+0000003507+000000000+000000491+0000003998+0000000000+I40000003998+0000000000+Z
312794001312794560-000189     312794006003000592357ANIMALS SNAKE 78cm     0000001000+00003507+00000+0001T   00003507+0000001039          1400 AC4745               1AZ
312795000312795               312795               170213EF     1400+00000+EF0000003506+0000003506+000000000+000000492+0000003990+0000000008+I20000000000+0000003990+Z
312795001312795078-000025     312795008887013700064SUPERGLUE 3g 1PCE CARD 0000001000+00000876+00000+0001T   00000876+0000001041          1400 AC4810               1AZ
312795002312795019-000131     312795006003000456253PLANT. T/PLATE 10X12.5 0000001000+00002630+00000+0001T   00002630+0000001041          1400 AC4510               1AZ
312796000312796               312796               170213EF     1400+00000+EF0000005262+0000005262+000000000+000000737+0000005990+0000000009+I20000000000+0000005990+Z
312796001312796035-000013     312796006001023450180UMBRELLA KIDDIES 34cm  0000001000+00005262+00000+0001T   00005262+0000001042          1400 AC4205               1AZ
312797000312797               312797               170213EF     1400+00000+EF0000001139+0000001139+000000000+000000160+0000001290+0000000009+I20000000000+0000001290+Z
312797001312797903-000087     312797006001704000161SWT SPECKLED-EGGS 50G  0000001000+00001139+00000+0001T   00001139+0000001044          1400 AC4150               1AZ
312798000312798               312798               170213EF     1400+00000+EF0000007891+0000007891+000000000+000001106+0000008990+0000000007+I20000000000+0000008990+Z
312798001312798104-000010     312798006001023507822BASKET 30x23cm RECT.   0000002000+00001753+00000+0001T   00001753+0000001047          1400 AC4210               1AZ
312798002312798028-000030     312798006001023810908COOLER-BAG 6PACK       0000001000+00004385+00000+0001T   00004385+0000001047          1400 AC4305               1AZ
312799000312799               312799               170213EF     1400+00000+EF0000014455+0000014455+000000000+000002028+0000016483+0000000000+I40000016483+0000000000+Z
312799001312799006-001000     312799006003000093779HELIUM BALLOON FILL    0000015000+00000613+00000+0001T   00000613+0000001052          1400 AC4131               1AZ
312799005312799566-000367     312799006003000645558STICKER WINDOW DECOR   0000002000+00002630+00000+0001T   00002630+0000001052          1400 AC4130               1AZ
312800000312800               312800               170213EF     1400+00000+EF0000008189+0000008189+000000000+000001147+0000009336+0000000000+I40000009336+0000000000+Z
312800001312800018-000127     312800006001023380289MUG OCC STRAIGHT LOVE  0000001000+00001578+00000+0001T   00001753+0006471054          1400 AC4515               1AZ
312800002312800040-000172     312800006001023794536C/HOLDER GLS FRIENDSHIP0000001000+00003069+00000+0001T   00003069+0000001054          1400 AC4510               1AZ
312800003312800018-005009     312800006001023725608MUG W/PLUSH-BEAR LOVE  0000001000+00003507+00000+0001T   00003507+0000001054          1400 AC4515               1AZ
312800004312800112-116038     312800006009681820246TCS CARRIER BAG MIDI   0000001000+00000035+00000+0001T   00000035+0000001054          1400 AC4090               1AZ
312801000312801               312801               170213EF     1400+00000+EF0000009502+0000009502+000000000+000001332+0000010834+0000000000+I40000010834+0000000000+Z
312801001312801903-000087     312801006001704000161SWT SPECKLED-EGGS 50G  0000001000+00001139+00000+0001T   00001139+0000001056          1400 AC4150               1AZ
312801002312801903-005007     312801006002580020311SWT MALLOW BEAR M/SHAKE0000001000+00001314+00000+0001T   00001314+0000001056          1400 AC4150               1AZ
312801003312801903-000897     312801008692806325207SWT CHOC DBL MINI ROLL 0000001000+00000876+00000+0001T   00000876+0000001056          1400 AC4150               1AZ
312801004312801566-000067     312801006003000349180STICKERS GLITTER       0000001000+00001753+00000+0001T   00002192+0008151056          1400 AC4130               1AZ
312801005312801002-000706     312801006001023111456SPATTER-PREVENTOR 28cm 0000001000+00004385+00000+0001T   00004385+0000001056          1400 AC4300               1AZ
312801006312801112-116038     312801006009681820246TCS CARRIER BAG MIDI   0000001000+00000035+00000+0001T   00000035+0000001056          1400 AC4090               1AZ
312802000312802               312802               170213EF     1400+00000+EF0000001226+0000001226+000000000+000000172+0000001398+0000000000+I40000001398+0000000000+Z
312802001312802077-000311     312802006001023608666GIFT-BAG 11X14CM GLOSS 0000002000+00000613+00000+0001T   00000613+0000001142          1400 1IC112               1AZ
312803000312803               312803               170213EF     1400+00000+EF0000006136+0000006136+000000000+000000861+0000006990+0000000007+I20000000000+0000006990+Z
312803001312803050-000261-Z   312803006001023535351PADLOCK BRS 20mm CARDED0000001000+00002630+00000+0001T   00002630+0000001147          1400 1IC855               1AZ
312803002312803040-000109-B   312803006001023918512C/HOLDER CERAMIC FLOWER0000002000+00001753+00000+0001T   00002630+0008171147          1400 1IC510               1AZ
312804000312804               312804               170213EF     1400+00000+EF0000002630+0000002630+000000000+000000369+0000002990+0000000009+I20000000000+0000002990+Z
312804001312804304-001126     312804006001023845047FLWR BUNCH GERBERA 31cm0000001000+00002630+00000+0001T   00002630+0000001204          1400 AC4510               1AZ
312805000312805               312805               170213EF     1400+00000+EF0000000876+0000000876+000000000+000000123+0000000990+0000000009+I20000000000+0000000990+Z
312805001312805089-000192-A   312805006001023901774KEY-CHAIN ACRYLIC      0000001000+00000876+00000+0001T   00000876+0000001209          1400 AC4205               1AZ
312806000312806               312806               170213EF     1400+00000+EF0000002630+0000002630+000000000+000000369+0000002990+0000000009+I20000000000+0000002990+Z
312806001312806124-002023     312806006003000367252BISCUIT TIN HEART SHAPE0000001000+00002630+00000+0001T   00003507+0008171213          1400 AC4300               1AZ
312807000312807               312807               170213EF     1400+00000+EF0000013588+0000013588+000000000+000001903+0000015491+0000000000+I40000015491+0000000000+Z
312807001312807018-000136     312807006001023659026MUG OCC LOVE W/PLUSH   0000001000+00003507+00000+0001T   00003507+0000001215          1400 AC4515               1AZ
312807002312807018-050000     312807006003000412679MUG OCC LOVE TWIN BEAR 0000001000+00006139+00000+0001T   00006139+0000001215          1400 AC4515               1AZ
312807003312807903-000194     312807006009826020616SWT CHOC RP LOLLY 25G  0000003000+00001314+00000+0001T   00001314+0000001215          1400 AC4150               1AZ
312808000312808               312808               170213EF     1400+00000+EF0000002630+0000002630+000000000+000000369+0000002990+0000000009+I20000000000+0000002990+Z
312808001312808089-000191     312808006003000430185KEY CHAIN BEAR 10CM    0000001000+00002630+00000+0001T   00002630+0000001216          1400 AC4205               1AZ
312809000312809               312809               170213EF     1400+00000+EF0000004206+0000004206+000000000+000000590+0000004796+0000000000+I40000004796+0000000000+Z
312809001312809306-000023-A   312809006003000110148COTTON WOOL BALLS 50PCE0000001000+00000700+00000+0001T   00001314+0008171218          1400 AC4200               1AZ
312809002312809306-000024-A   312809006003000577309COTTON-WOOL-PADS 80PC  0000001000+00001753+00000+0001T   00001753+0000001218          1400 AC4200               1AZ
312809003312809047-000510     312809006003000304080PLUG-ADAPTOR 2x2P EURO 0000001000+00001753+00000+0001T   00001753+0000001218          1400 AC4880               1AZ
312810000312810               312810               170213EF     1400+00000+EF0000003418+0000003418+000000000+000000480+0000003898+0000000000+I40000003898+0000000000+Z
312810001312810903-000200     312810006009826020234SWT CHOC RP CHOCO 23G  0000001000+00000788+00000+0001T   00000788+0000001220          1400 AC4150               1AZ
312810002312810206-000600     312810006003000631551TOILET PAPER SUDUKO    0000001000+00002630+00000+0001T   00002630+0000001220          1400 AC4321               1AZ
312811000312811               312811               170213EF     1400+00000+EF0000005082+0000005082+000000000+000000713+0000005790+0000000005+I20000000000+0000005790+Z
312811001312811078-009100     312811006008741002349ALL-CLEAR GLUE 25ml CRD0000001000+00001314+00000+0001T   00001314+0000001221          1400 AC4810               1AZ
312811002312811018-000170     312811006001023775528MUG OCC. LOVE 2PC MINI 0000001000+00002192+00000+0001T   00002192+0000001221          1400 AC4515               1AZ
312811003312811903-000200     312811006009826020234SWT CHOC RP CHOCO 23G  0000002000+00000788+00000+0001T   00000788+0000001221          1400 AC4150               1AZ
312812000312812               312812               170213EF     1400+00000+EF0000001490+0000001490+000000000+000000209+0000001690+0000000009+I20000000000+0000001690+Z
312812001312812077-000299     312812006003000395576G/BAG 32x25cm LRG LOVE 0000001000+00001490+00000+0001T   00001490+0000001222          1400 AC4112               1AZ
312813000312813               312813               170213EF     1400+00000+EF0000018189+0000018189+000000000+000002548+0000020730+0000000007+I20000000000+0000020730+Z
312813001312813301-085007     312813006003000673698ORN OCC. LOVE S/PLAQUE 0000001000+00007893+00000+0001T   00007893+0000001223          1400 AC4505               1AZ
312813002312813001-091415     312813006003000329113W/GLS OCC. LOVE 2PC 2800000001000+00008771+00000+0001T   00009648+0006471223          1400 AC4515               1AZ
312813003312813077-000299     312813006003000395576G/BAG 32x25cm LRG LOVE 0000001000+00001490+00000+0001T   00001490+0000001223          1400 AC4112               1AZ
312813004312813112-116038     312813006009681820246TCS CARRIER BAG MIDI   0000001000+00000035+00000+0001T   00000035+0000001223          1400 AC4090               1AZ
312814000312814               312814               170213EF     1400+00000+EF0000006173+0000006173+000000000+000000865+0000007038+0000000000+I40000007038+0000000000+Z
312814001312814001-000175     312814006001023788108B/MUG GLS LOVE 380ML   0000001000+00004385+00000+0001T   00004385+0000001225          1400 AC4515               1AZ
312814002312814077-000357     312814006003000139354GIFT-BAG 18X23CM B/DAY 0000001000+00001753+00000+0001T   00001753+0000001225          1400 AC4112               1AZ
312814003312814112-116038     312814006009681820246TCS CARRIER BAG MIDI   0000001000+00000035+00000+0001T   00000035+0000001225          1400 AC4090               1AZ
312815000312815               312815               170213EF     1400+00000+EF0000003946+0000003946+000000000+000000553+0000004490+0000000009+I20000000000+0000004490+Z
312815001312815036-000014     312815006001246500822LINT REMOVER 40x SHEET 0000001000+00003946+00000+0001T   00003946+0000001225          1400 AC4212               1AZ
312816000312816               312816               170213EF     1400+00000+EF0000002454+0000002454+000000000+000000344+0000002790+0000000008+I20000000000+0000002790+Z
312816001312816251-000040     312816006001023515865SEALTAPE CLEAR 48mmx50m0000002000+00001227+00000+0001T   00001227+0000001225          1400 AC4810               1AZ
312817000312817               312817               170213EF     1400+00000+EF0000013155+0000013155+000000000+000001843+0000014998+0000000000+I40000014998+0000000000+Z
312817001312817368-000637     312817006001023874092PLUSH BEAR SLEEPING LOV0000001000+00011402+00000+0001T   00012279+0006471227          1400 AC4745               1AZ
312817002312817077-000316     312817006001023609731GIFT-BAG 25X32CM MATT  0000001000+00001753+00000+0001T   00001753+0000001227          1400 AC4112               1AZ
312818000312818               312818               170213EF     1400+00000+EF0000004032+0000004032+000000000+000000566+0000004590+0000000008+I20000000000+0000004590+Z
312818001312818027-000194     312818006001246602472MOP COMPLETE           0000001000+00002279+00000+0001T   00002279+0000001227          1400 AC4212               1AZ
312818002312818084-009407     312818006001023861726SCISSORS 13cm MTL PL-H 0000001000+00001753+00000+0001T   00001753+0000001227          1400 AC4200               1AZ
312819000312819               312819               170213EF     1400+00000+EF0000002192+0000002192+000000000+000000307+0000002490+0000000009+I20000000000+0000002490+Z
312819001312819050-000363-Z   312819006001023475282PADLOCK IRON 32mm CARD 0000001000+00002192+00000+0001T   00002192+0000001231          1400 AC4855               1AZ
312820000312820               312820               170213EF     1400+00000+EF0000018181+0000018181+000000000+000002550+0000020731+0000000000+I40000020731+0000000000+Z
312820001312820105-000750     312820006003000190270CONTAINERS 4xMINI 150ml0000002000+00001402+00000+0001T   00001402+0000001234          1400 AC4210               1AZ
312820002312820028-000014     312820006001334001316ICE-BRICK SOLID MEDIUM 0000002000+00001753+00000+0001T   00001753+0000001234          1400 AC4305               1AZ
312820003312820002-000117     312820006001023110879EGG POACHERS 2PC       0000001000+00003069+00000+0001T   00003069+0000001234          1400 AC4300               1AZ
312820004312820030-083577     312820006003000632152THERMOMETER MAGNETIC   0000001000+00001753+00000+0001T   00001753+0000001234          1400 AC4505               1AZ
312820005312820071-010484     312820006003000620296MAGNIFYING-GLASS CARD  0000002000+00000876+00000+0001T   00000876+0000001234          1400 AC4130               1AZ
312820006312820024-000174     312820006003000504664SILICONE CUP-PAN 6-CUP 0000001000+00005262+00000+0001T   00005262+0000001234          1400 AC4300               1AZ
312820007312820112-116038     312820006009681820246TCS CARRIER BAG MIDI   0000001000+00000035+00000+0001T   00000035+0000001234          1400 AC4090               1AZ
312821000312821               312821               170213EF     1400+00000+EF0000008360+0000008360+000000000+000001173+0000009533+0000000000+I40000009533+0000000000+Z
312821001312821566-000068     312821006003000418046POP UP LOVE 2 ASSTD    0000001000+00002192+00000+0001T   00002192+0000001238          1400 AC4130               1AZ
312821002312821200-003026     312821006003000276448REFUSE BAGS 10PCE GREEN0000001000+00001753+00000+0001T   00001753+0000001238          1400 AC4214               1AZ
312821003312821105-001024-A   312821006009654960986CONTAINERS CLEAR 3PCE  0000001000+00001928+00000+0001T   00001928+0000001238          1400 AC4210               1AZ
312821004312821071-003003     312821006003000144525PEN BALL PEN 3PCE BLACK0000001000+00000876+00000+0001T   00000876+0000001238          1400 AC4130               1AZ
312821005312821077-000010-C   312821006001023123879CREPE-PAPER RED        0000002000+00000788+00000+0001T   00000788+0000001238          1400 AC4112               1AZ
312821006312821112-116038     312821006009681820246TCS CARRIER BAG MIDI   0000001000+00000035+00000+0001T   00000035+0000001238          1400 AC4090               1AZ
312822000312822               312822               170213EF     1400+00000+EF0000000876+0000000876+000000000+000000123+0000000990+0000000009+I20000000000+0000000990+Z
312822001312822903-000483     312822006001704001410SWT LIQUOR SML SORT 60G0000001000+00000876+00000+0001T   00000876+0000001239          1400 AC4150               1AZ
312823000312823               312823               170213EF     1400+00000+EF0000001400+0000001400+000000000+000000196+0000001590+0000000006+I20000000000+0000001590+Z
312823001312823007-000128     312823006009635830475BOOK H/COVER A5 96-PAGE0000002000+00000700+00000+0001T   00000700+0000001241          1400 AC4130               1AZ
312824000312824               312824               170213EF     1400+00000+EF0000002630+0000002630+000000000+000000369+0000002990+0000000009+I20000000000+0000002990+Z
312824001312824206-000350     312824006003000633265EGG MOULD SUNRISE      0000001000+00002630+00000+0001T   00002630+0000001241          1400 AC4321               1AZ
312825000312825               312825               170213EF     1400+00000+EF0000001752+0000001752+000000000+000000246+0000001990+0000000008+I20000000000+0000001990+Z
312825001312825567-014132     312825006003000560028BOOK COLOURING 24 PAGE 0000002000+00000876+00000+0001T   00000876+0000001243          1400 AC4757               1AZ
312826000312826               312826               170213EF     1400+00000+EF0000007925+0000007925+000000000+000001112+0000009030+0000000007+I20000000000+0000009030+Z
312826001312826051-006100     312826006003000267170GARDEN KID TOOLSET 3PCE0000003000+00002630+00000+0001T   00002630+0000001244          1400 AC4820               1AZ
312826002312826112-116038     312826006009681820246TCS CARRIER BAG MIDI   0000001000+00000035+00000+0001T   00000035+0000001244          1400 AC4090               1AZ
312827000312827               312827               170213EF     1400+00000+EF0000001753+0000001753+000000000+000000246+0000001990+0000000009+I20000000000+0000001990+Z
312827001312827369-001034     312827006003000105632BABY RATTLE SINGLE ASST0000001000+00001753+00000+0001T   00001753+0000001246          1400 AC4745               1AZ
312828000312828               312828               170213EF     1400+00000+EF0000003069+0000003069+000000000+000000430+0000003499+0000000000+I40000003499+0000000000+Z
312828001312828038-001805     312828006003000466405DOILIES PAPER 60PC 3ASS0000001000+00003069+00000+0001T   00003069+0000001252          1400 AC4300               1AZ
312829000312829               312829               170213EF     1400+00000+EF0000005259+0000005259+000000000+000000738+0000005990+0000000007+I20000000000+0000005990+Z
312829001312829142-000814     312829006001023183910GLOVES RUBBER  MEDIUM  0000003000+00001753+00000+0001T   00001753+0000001253          1400 AC4810               1AZ
312830000312830               312830               170213EF     1400+00000+EF0000005910+0000005910+000000000+000000828+0000006738+0000000000+I40000006738+0000000000+Z
312830001312830077-000299     312830006003000395576G/BAG 32x25cm LRG LOVE 0000001000+00001490+00000+0001T   00001490+0000001256          1400 AC4112               1AZ
312830002312830001-000175     312830006001023788108B/MUG GLS LOVE 380ML   0000001000+00004385+00000+0001T   00004385+0000001256          1400 AC4515               1AZ
312830003312830112-116038     312830006003000534906TCS CARRIER BAG MIDI   0000001000+00000035+00000+0001T   00000035+0000001256          1400 AC4090               1AZ
312831000312831               312831               170213EF     1400+00000+EF0000001753+0000001753+000000000+000000246+0000001990+0000000009+I20000000000+0000001990+Z
312831001312831080-000113     312831006003000237449CARD&ENVLPE - LOVE     0000001000+00001753+00000+0001T   00001753+0000001256          1400 AC4112               1AZ
312832000312832               312832               170213EF     1400+00000+EF0000004823+0000004823+000000000+000000676+0000005490+0000000009+I20000000000+0000005490+Z
312832001312832301-085001     312832006003000297610ORN WATERBALL LOVE ASST0000001000+00004823+00000+0001T   00004823+0000001257          1400 AC4505               1AZ
312833000312833               312833               170213EF     1400+00000+EF0000000876+0000000876+000000000+000000123+0000000990+0000000009+I20000000000+0000000990+Z
312833001312833903-000861     312833005010478430822SWT LOVE HEARTS SML    0000001000+00000876+00000+0001T   00000876+0000001258          1400 AC4150               1AZ
312834000312834               312834               170213EF     1400+00000+EF0000014030+0000014030+000000000+000001966+0000015996+0000000000+I40000015996+0000000000+Z
312834001312834567-010162     312834006003000485123BOOK TOP ASSTD NOVELS  0000001000+00008771+00000+0001T   00008771+0000001306          1400 AC4757               1AZ
312834002312834080-000115     312834006003000237333CARD&ENVELOPE - BLANKS 0000001000+00001753+00000+0001T   00001753+0000001306          1400 AC4112               1AZ
312834003312834080-000107     312834006003000237081CARD&ENVELPE BDAY BOY  0000001000+00001753+00000+0001T   00001753+0000001306          1400 AC4112               1AZ
312834004312834200-003024     312834006001023657299REFUSE BAGS 20PCE BLACK0000001000+00001753+00000+0001T   00001753+0000001306          1400 AC4214               1AZ
312835000312835               312835               170213EF     1400+00000+EF0000004385+0000004385+000000000+000000614+0000004990+0000000009+I20000000000+0000004990+Z
312835001312835082-000120     312835006003000360727READING GLS STRENGTH:3 0000001000+00004385+00000+0001T   00004385+0000001307          1400 AC4160               1AZ
312836000312836               312836               170213EF     1400+00000+EF0000003243+0000003243+000000000+000000455+0000003698+0000000000+I40000003698+0000000000+Z
312836001312836200-003026     312836006003000276448REFUSE BAGS 10PCE GREEN0000001000+00001753+00000+0001T   00001753+0000001308          1400 AC4214               1AZ
312836002312836077-000299     312836006003000395576G/BAG 32x25cm LRG LOVE 0000001000+00001490+00000+0001T   00001490+0000001308          1400 AC4112               1AZ
312837000312837               312837               170213EF     1400+00000+EF0000005262+0000005262+000000000+000000737+0000005990+0000000009+I20000000000+0000005990+Z
312837001312837046-000030     312837006001023878120BATTERY-TESTER (15V+9V)0000001000+00005262+00000+0001T   00005262+0000001308          1400 AC4312               1AZ
312838000312838               312838               170213EF     1400+00000+EF0000000700+0000000700+000000000+000000098+0000000790+0000000008+I20000000000+0000000790+Z
312838001312838018-000177     312838006001023797513MUG MINI LOVE ASSTD    0000001000+00000700+00000+0001T   00000700+0000001309          1400 AC4515               1AZ
312839000312839               312839               170213EF     1400+00000+EF0000001051+0000001051+000000000+000000148+0000001190+0000000009+I20000000000+0000001190+Z
312839001312839903-002890     312839008935001721352MENTOS GUM PURE F/MINT 0000001000+00001051+00000+0001T   00001051+0000001313          1400 AC4150               1AZ
312840000312840               312840               170213EF     1400+00000+EF0000002192+0000002192+000000000+000000307+0000002490+0000000009+I20000000000+0000002490+Z
312840001312840072-020261     312840006003000305131PET DOG-CHEW TYRE SMALL0000001000+00002192+00000+0001T   00002192+0000001313          1400 AC4870               1AZ
312841000312841               312841               170213EF     1400+00000+EF0000005115+0000005115+000000000+000000717+0000005830+0000000002+I20000000000+0000005830+Z
312841001312841007-000167     312841006009685857347SPIRAL NOTES A7 72PG   0000003000+00000350+00000+0001T   00000350+0000001316          1400 AC4130               1AZ
312841002312841007-000166     312841006009685857316SPIRAL NOTES A6 100PG  0000002000+00000700+00000+0001T   00000700+0000001316          1400 AC4130               1AZ
312841003312841007-000534     312841006001023847836NOTE-BOOK H/C ASSTD    0000001000+00002630+00000+0001T   00002630+0000001316          1400 AC4130               1AZ
312841004312841112-116038     312841006009681820246TCS CARRIER BAG MIDI   0000001000+00000035+00000+0001T   00000035+0000001316          1400 AC4090               1AZ
312842000312842               312842               170213EF     1400+00000+EF0000001753+0000001753+000000000+000000246+0000001999+0000000000+I40000001999+0000000000+Z
312842001312842200-003024     312842006001023657299REFUSE BAGS 20PCE BLACK0000001000+00001753+00000+0001T   00001753+0000001319          1400 AC4214               1AZ
312843000312843               312843               170213EF     1400+00000+EF0000004385+0000004385+000000000+000000614+0000004999+0000000000+I40000004999+0000000000+Z
312843001312843024-000118     312843006001023422316N/STICK C/PAN HEART    0000001000+00004385+00000+0001T   00004385+0000001321          1400 AC4300               1AZ
312844000312844               312844               170213EF     1400+00000+EF0000003507+0000003507+000000000+000000491+0000003998+0000000000+I40000003998+0000000000+Z
312844001312844004-071203     312844006003000183555COMPUTOR LIGHT LED USB 0000001000+00003507+00000+0001T   00003507+0000001325          1400 AC4310               1AZ
312845000312845               312845               170213EF     1400+00000+EF0000001660+0000001660+000000000+000000236+0000001890+0000000006+I20000000000+0000001890+Z
312845001312845903-000012     312845006002099007308SWT MALLOW S/BERRY     0000002000+00000437+00000+0001T   00000437+0000001326          1400 AC4150               1AZ
312845002312845903-000183     312845006003000451043SWT LB HEART LOLLY     0000002000+00000393+00000+0001T   00000393+0000001326          1400 AC4150               1AZ
312846000312846               312846               170213EF     1400+00000+EF0000002630+0000002630+000000000+000000369+0000002990+0000000009+I20000000000+0000002990+Z
312846001312846039-081008     312846006008766081008CANDLES 9PCE SCENTED   0000001000+00002630+00000+0001T   00002630+0000001328          1400 AC4510               1AZ
312847000312847               312847               170213EF     1400+00000+EF0000002630+0000002630+000000000+000000369+0000002990+0000000009+I20000000000+0000002990+Z
312847001312847366-002702     312847006003000006939DRESS UP HAWAI SKIRT   0000001000+00002630+00000+0001T   00002630+0000001332          1400 AC4131               1AZ
312848000312848               312848               170213EF     1400+00000+EF0000001314+0000001314+000000000+000000184+0000001498+0000000000+I40000001498+0000000000+Z
312848001312848077-000310     312848006001023608635GIFT-BAG 18X23CM GLOSS 0000001000+00001314+00000+0001T   00001314+0000001335          1400 AC4112               1AZ
312849000312849               312849               170213EF     1400+00000+EF0000024447+0000024447+000000000+000003426+0000027873+0000000000+I40000027873+0000000000+Z
312849001312849368-000152     312849006003000166886PLUSH BEAR 15cm        0000002000+00003946+00000+0001T   00005262+0008141337          1400 AC4745               1AZ
312849002312849903-000095     312849006001704011495SWT SPECKLED-EGGS 100G 0000002000+00002104+00000+0001T   00002104+0000001337          1400 AC4150               1AZ
312849003312849266-008043     312849006003000474134BOYS FIG. P/SET 55pc   0000001000+00007016+00000+0001T   00007016+0000001337          1400 AC4710               1AZ
312849004312849266-005279     312849006003000657094BOYS PLAYSET FIG 22 PC 0000001000+00005262+00000+0001T   00005262+0000001337          1400 AC4710               1AZ
312849005312849112-116053     312849006006438002399TCS CARRIER BAG 38L    0000001000+00000069+00000+0001T   00000069+0000001337          1400 AC4090               1AZ
312850000312850               312850               170213EF     1400+00000+EF0000018481+0000018481+000000000+000002589+0000021070+0000000000+I40000021070+0000000000+Z
312850001312850466-002096     312850006001023800398CATCHBALL VELCRO W/BALL0000002000+00005262+00000+0001T   00005262+0000001339          1400 AC4785               1AZ
312850002312850466-000103     312850000681070950312BALL 20cm ASSTD        0000001000+00001753+00000+0001T   00001753+0000001339          1400 AC4785               1AZ
312850003312850903-005007     312850006002580020311SWT MALLOW BEAR M/SHAKE0000001000+00001314+00000+0001T   00001314+0000001339          1400 AC4150               1AZ
312850004312850903-005000     312850006002580020007SWT CT MALLOW FISH 120g0000001000+00001314+00000+0001T   00001314+0000001339          1400 AC4150               1AZ
312850005312850466-000106     312850006003000128112BALL PL 20CM BASKETBALL0000001000+00003507+00000+0001T   00003507+0000001339          1400 AC4785               1AZ
312850006312850112-116053     312850006006438002399TCS CARRIER BAG 38L    0000001000+00000069+00000+0001T   00000069+0000001339          1400 AC4090               1AZ
312851000312851               312851               170213EF     1400+00000+EF0000012924+0000012924+000000000+000001810+0000014734+0000000000+I40000014734+0000000000+Z
312851001312851007-000713     312851006003000227273NOTE-BK DIARY W/LOCK   0000001000+00003507+00000+0001T   00003507+0000001341          1400 AC4130               1AZ
312851002312851039-091794     312851006001023655875C/SET 6PC 16G RED-HEART0000001000+00003507+00000+0001T   00003507+0000001341          1400 AC4510               1AZ
312851003312851024-000118     312851006001023422316N/STICK C/PAN HEART    0000001000+00004385+00000+0001T   00004385+0000001341          1400 AC4300               1AZ
312851004312851077-000299     312851006003000395576G/BAG 32x25cm LRG LOVE 0000001000+00001490+00000+0001T   00001490+0000001341          1400 AC4112               1AZ
312851005312851112-116038     312851006009681820246TCS CARRIER BAG MIDI   0000001000+00000035+00000+0001T   00000035+0000001341          1400 AC4090               1AZ
312852000312852               312852               170213EF     1400+00000+EF0000000964+0000000964+000000000+000000135+0000001090+0000000009+I20000000000+0000001090+Z
312852001312852028-000795     312852006001023812063SKEWERS 10cm 100PCE 3mm0000001000+00000964+00000+0001T   00000964+0000001341          1400 AC4305               1AZ
312853000312853               312853               170213EF     1400+00000+EF0000001578+0000001578+000000000+000000221+0000001790+0000000009+I20000000000+0000001790+Z
312853001312853018-000127     312853006001023380289MUG OCC STRAIGHT LOVE  0000001000+00001578+00000+0001T   00001753+0006471343          1400 AC4515               1AZ
312854000312854               312854               170213EF     1400+00000+EF0000002276+0000002276+000000000+000000321+0000002590+0000000007+I20000000000+0000002590+Z
312854001312854105-001005     312854006001023858214CONTAINERS MINI 6PCE   0000001000+00001402+00000+0001T   00001402+0000001344          1400 AC4210               1AZ
312854002312854080-000133     312854006003000535613CARD&ENV MINI ASTD DSGN0000002000+00000437+00000+0001T   00000437+0000001344          1400 AC4112               1AZ
312855000312855               312855               170213EF     1400+00000+EF0000021103+0000021103+000000000+000002956+0000024059+0000000000+I40000024059+0000000000+Z
312855001312855105-007500     312855006003000487189STORAGE BOX CLEAR 1.25L0000003000+00003507+00000+0001T   00003507+0000001346          1400 AC4210               1AZ
312855002312855028-000797     312855006001023812124SKEWERS 15cm 100PCE    0000001000+00000876+00000+0001T   00000876+0000001346          1400 AC4305               1AZ
312855003312855077-000289     312855006001023901996GIFT BOX 20x25x11cm    0000001000+00001753+00000+0001T   00001753+0000001346          1400 AC4112               1AZ
312855004312855077-000310     312855006001023608635GIFT-BAG 18X23CM GLOSS 0000006000+00001314+00000+0001T   00001314+0000001346          1400 AC4112               1AZ
312855005312855112-116053     312855006006438002399TCS CARRIER BAG 38L    0000001000+00000069+00000+0001T   00000069+0000001346          1400 AC4090               1AZ
312856000312856               312856               170213EF     1400+00000+EF0000032356+0000032356+000000000+000004532+0000036888+0000000000+I40000036888+0000000000+Z
312856001312856105-006955     312856006003000685325CONTAINER CLEAR BASE 8L0000001000+00003507+00000+0001T   00003507+0000001351          1400 AC4210               1AZ
312856002312856565-000889     312856006003000626953NOVELTY SPACE BALLOONS 0000001000+00001753+00000+0001T   00001753+0000001351          1400 AC4745               1AZ
312856003312856072-000162     312856006003000094462PET DOG SHIRT GIRL MED 0000001000+00006139+00000+0001T   00006139+0000001351          1400 AC4870               1AZ
312856004312856072-020257     312856006001023598110DOG-CHEW SHOE 13cm     0000002000+00002192+00000+0001T   00002192+0000001351          1400 AC4870               1AZ
312856005312856105-006955     312856006003000685325CONTAINER CLEAR BASE 8L0000002000+00003507+00000+0001T   00003507+0000001351          1400 AC4210               1AZ
312856006312856903-000137     312856006002099004130SWEET GS JELLY BEAN 60G0000001000+00000788+00000+0001T   00000788+0000001351          1400 AC4150               1AZ
312856007312856158-008935     312856006003000621880TOILET ROLL HOLDER 66cm0000001000+00008771+00000+0001T   00008771+0000001351          1400 AC4300               1AZ
312857000312857               312857               170213EF     1400+00000+EF0000000876+0000000876+000000000+000000123+0000000990+0000000009+I20000000000+0000000990+Z
312857001312857047-000505     312857006009636901976PLUG-ADAPTOR 2-PIN     0000001000+00000876+00000+0001T   00000876+0000001352          1400 AC4880               1AZ
312858000312858               312858               170213EF     1400+00000+EF0000014034+0000014034+000000000+000001965+0000015999+0000000000+I40000015999+0000000000+Z
312858001312858140-092001     312858006001023819154MOSQ-NET 900x230x60cm  0000001000+00014034+00000+0001T   00014034+0000001354          1400 AC4830               1AZ
312859000312859               312859               170213EF     1400+00000+EF0000002192+0000002192+000000000+000000307+0000002490+0000000009+I20000000000+0000002490+Z
312859001312859077-000309-A   312859006003000671007GIFT-BAG HOLOGRAM JMB  0000001000+00002192+00000+0001T   00002192+0000001354          1400 AC4112               1AZ
312860000312860               312860               170213EF     1400+00000+EF0000002192+0000002192+000000000+000000307+0000002490+0000000009+I20000000000+0000002490+Z
312860001312860301-085000     312860006003000674299 ORN OCC. LOVE HEARTS  0000001000+00002192+00000+0001T   00002192+0000001357          1400 AC4505               1AZ
312861000312861               312861               170213EF     1400+00000+EF0000001313+0000001313+000000000+000000184+0000001490+0000000007+I20000000000+0000001490+Z
312861001312861564-000012     312861006001023130075BUBBLE BOTTLE MAGIC    0000001000+00000700+00000+0001T   00000700+0000001357          1400 AC4131               1AZ
312861002312861083-000055     312861006003000003853LIGHTER ELCTRNC REFILBL0000001000+00000613+00000+0001T   00000613+0000001357          1400 AC4315               1AZ
312862000312862               312862               170213EF     1400+00000+EF0000004385+0000004385+000000000+000000614+0000004990+0000000009+I20000000000+0000004990+Z
312862001312862366-000356     312862006003000006908DRESS UP WINGS FAIRY   0000001000+00004385+00000+0001T   00004385+0000001358          1400 AC4131               1AZ
312863000312863               312863               170213EF     1400+00000+EF0000003766+0000003766+000000000+000000529+0000004295+0000000000+I40000004295+0000000000+Z
312863001312863077-000010-U   312863006001023168863CREPE-PAPER CERISE-PINK0000001000+00000788+00000+0001T   00000788+0000001401          1400 AC4112               1AZ
312863002312863077-000010-Z   312863006001023157874CREPE-PAPER BLK/ORG/PUR0000001000+00000788+00000+0001T   00000788+0000001401          1400 AC4112               1AZ
312863003312863200-000066     312863006003000365975STRAWS 12PCE W/UMBRELLA0000001000+00001314+00000+0001T   00001314+0000001401          1400 AC4214               1AZ
312863004312863002-021057     312863006001023812032T/PICKS UMBRELLAS 10PCE0000001000+00000876+00000+0001T   00000876+0000001401          1400 AC4300               1AZ
312864000312864               312864               170213EF     1400+00000+EF0000002192+0000002192+000000000+000000307+0000002499+0000000000+I40000002499+0000000000+Z
312864001312864027-000023     312864006003000666881SCRUBBING BRUSH 20cm   0000001000+00002192+00000+0001T   00002192+0000001403          1400 AC4212               1AZ
312865000312865               312865               170213EF     1400+00000+EF0000000786+0000000786+000000000+000000112+0000000890+0000000008+I20000000000+0000000890+Z
312865001312865903-000183     312865006003000451043SWT LB HEART LOLLY     0000002000+00000393+00000+0001T   00000393+0000001404          1400 AC4150               1AZ
312866000312866               312866               170213EF     1400+00000+EF0000003069+0000003069+000000000+000000430+0000003490+0000000009+I20000000000+0000003490+Z
312866001312866301-000819     312866006001023716323ORN FAIRY SITTING ASSTD0000001000+00003069+00000+0001T   00003069+0000001405          1400 AC4505               1AZ
312867000312867               312867               170213EF     1400+00000+EF0000002630+0000002630+000000000+000000369+0000002999+0000000000+I40000002999+0000000000+Z
312867001312867088-000082     312867006001023798008P/POURRI SACHETS 5x10ml0000001000+00002630+00000+0001T   00002630+0000001408          1400 AC4212               1AZ
312868000312868               312868               170213EF     1400+00000+EF0000003506+0000003506+000000000+000000492+0000003998+0000000000+I40000003998+0000000000+Z
312868001312868077-000115-B   312868006003000181025GIFT-WRAP PPR 700MMX2M 0000001000+00002630+00000+0001T   00002630+0000001410          1400 AC4112               1AZ
312868002312868071-005213     312868006001023690371CELLOTAPE 12mmx33m     0000001000+00000876+00000+0001T   00000876+0000001410          1400 AC4130               1AZ
312869000312869               312869               170213EF     1400+00000+EF0000006137+0000006137+000000000+000000860+0000006990+0000000007+I20000000000+0000006990+Z
312869001312869018-005009     312869006001023725608MUG W/PLUSH-BEAR LOVE  0000001000+00003507+00000+0001T   00003507+0000001411          1400 AC4515               1AZ
312869002312869077-000270     312869006003000395453GIFT-BAG PPR JMB 33X45 0000001000+00002630+00000+0001T   00002630+0000001411          1400 AC4112               1AZ
312870000312870               312870               170213EF     1400+00000+EF0000005732+0000005732+000000000+000000804+0000006530+0000000006+I20000000000+0000006530+Z
312870001312870206-000630     312870006003000631919SPECTACLE CLEANING BRUS0000001000+00001227+00000+0001T   00001227+0000001411          1400 AC4321               1AZ
312870002312870077-000384     312870006003000275243G/BAG HOT STMP 18x23CM 0000003000+00001490+00000+0001T   00001490+0000001411          1400 AC4112               1AZ
312870003312870112-116038     312870006009681820246TCS CARRIER BAG MIDI   0000001000+00000035+00000+0001T   00000035+0000001411          1400 AC4090               1AZ
312871000312871               312871               170213EF     1400+00000+EF0000001490+0000001490+000000000+000000209+0000001690+0000000009+I20000000000+0000001690+Z
312871001312871051-002401     312871006001023523570TRIGGER-SPRAYER   300ml0000001000+00001490+00000+0001T   00001490+0000001413          1400 AC4820               1AZ
312872000312872               312872               170213EF     1400+00000+EF0000006090+0000006090+000000000+000000855+0000006945+0000000000+I40000006945+0000000000+Z
312872001312872080-000133     312872006003000535613CARD&ENV MINI ASTD DSGN0000001000+00000437+00000+0001T   00000437+0000001418          1400 AC4112               1AZ
312872002312872077-000312     312872006001023608697GIFT-BAG 10X35CM GLOSS 0000001000+00001314+00000+0001T   00001314+0000001418          1400 AC4112               1AZ
312872003312872030-000039     312872006003000465873PLAQUE ORN SENTIMENT   0000001000+00003946+00000+0001T   00005262+0008121418          1400 AC4505               1AZ
312872004312872903-000183     312872006003000451043SWT LB HEART LOLLY     0000001000+00000393+00000+0001T   00000393+0000001418          1400 AC4150               1AZ
312873000312873               312873               170213EF     1400+00000+EF0000007890+0000007890+000000000+000001107+0000008997+0000000000+I40000008997+0000000000+Z
312873001312873251-000057     312873006003000451654LABELS SKID-PROTECTORS 0000003000+00002630+00000+0001T   00002630+0000001419          1400 AC4810               1AZ
312874000312874               312874               170213EF     1400+00000+EF0000029836+0000029836+000000000+000004187+0000034023+0000000000+I40000034023+0000000000+Z
312874001312874080-000101     312874006003000236732CARD&ENVLPE FEMALE     0000002000+00001753+00000+0001T   00001753+0000001423          1400 AC4112               1AZ
312874002312874080-000106     312874006003000237098CARD&ENVLPE BDAY GIRL  0000002000+00001753+00000+0001T   00001753+0000001423          1400 AC4112               1AZ
312874003312874080-000101     312874006003000236732CARD&ENVLPE FEMALE     0000004000+00001753+00000+0001T   00001753+0000001423          1400 AC4112               1AZ
312874004312874080-000100     312874006003000236114CARD & ENVELOPE BDAY   0000002000+00001753+00000+0001T   00001753+0000001423          1400 AC4112               1AZ
312874005312874080-000101     312874006003000236732CARD&ENVLPE FEMALE     0000004000+00001753+00000+0001T   00001753+0000001423          1400 AC4112               1AZ
312874006312874080-000100     312874006003000236114CARD & ENVELOPE BDAY   0000001000+00001753+00000+0001T   00001753+0000001423          1400 AC4112               1AZ
312874007312874080-000106     312874006003000237098CARD&ENVLPE BDAY GIRL  0000002000+00001753+00000+0001T   00001753+0000001423          1400 AC4112               1AZ
312874008312874112-116038     312874006009681820246TCS CARRIER BAG MIDI   0000001000+00000035+00000+0001T   00000035+0000001423          1400 AC4090               1AZ
312875000312875               312875               170213EF     1400+00000+EF0000005260+0000005260+000000000+000000738+0000005990+0000000008+I20000000000+0000005990+Z
312875001312875079-008998     312875006003000339686ART+CRAFT  CANVAS      0000001000+00002630+00000+0001T   00002630+0000001433          1400 AC4130               1AZ
312875002312875079-001002     312875006003000448715CANVAS A4 WOOD MOUNTED 0000001000+00002630+00000+0001T   00002630+0000001433          1400 AC4130               1AZ
312876000312876               312876               170213EF     1400+00000+EF0000007453+0000007453+000000000+000001044+0000008490+0000000007+I20000000000+0000008490+Z
312876001312876018-005007     312876006003000515516MUG OCC. LOVE W/HEARTS 0000001000+00006139+00000+0001T   00006139+0000001435          1400 AC4515               1AZ
312876002312876077-000312     312876006001023608697GIFT-BAG 10X35CM GLOSS 0000001000+00001314+00000+0001T   00001314+0000001435          1400 AC4112               1AZ
312877000312877               312877               170213EF     1400+00000+EF0000003542+0000003542+000000000+000000496+0000004030+0000000008+I20000000000+0000004030+Z
312877001312877018-005009     312877006001023725608MUG W/PLUSH-BEAR LOVE  0000001000+00003507+00000+0001T   00003507+0000001440          1400 AC4515               1AZ
312877002312877112-116038     312877006009681820246TCS CARRIER BAG MIDI   0000001000+00000035+00000+0001T   00000035+0000001440          1400 AC4090               1AZ
312878000312878               312878               170213EF     1400+00000+EF0000005262+0000005262+000000000+000000737+0000005990+0000000009+I20000000000+0000005990+Z
312878001312878085-000056     312878006001023602220P/KNIFE 8in1 SWISS     0000001000+00005262+00000+0001T   00005262+0000001441          1400 AC4305               1AZ
312879000312879               312879               170213EF     1400+00000+EF0000002630+0000002630+000000000+000000369+0000002990+0000000009+I20000000000+0000002990+Z
312879001312879105-003025     312879006001023594662CONTAINER RECT 28x19cm 0000001000+00002630+00000+0001T   00002630+0000001442          1400 AC4210               1AZ
312880000312880               312880               170213EF     1400+00000+EF0000001400+0000001400+000000000+000000196+0000001590+0000000006+I20000000000+0000001590+Z
312880001312880362-004000     312880000613153000225DISNEY T/BELL TRINKETS 0000002000+00000700+00000+0001T   00000876+0008181445          1400 AC4160               1AZ
312881000312881               312881               170213EF     1400+00000+EF0000007015+0000007015+000000000+000000983+0000007998+0000000000+I40000007998+0000000000+Z
312881001312881366-001100     312881006003000031443DRESS UP HAT PIRATE    0000001000+00005262+00000+0001T   00005262+0000001447          1400 AC4131               1AZ
312881002312881366-002809     312881006003000222643DRESS UP MOUSTACHE SET 0000001000+00001753+00000+0001T   00001753+0000001447          1400 AC4131               1AZ
312882000312882               312882               170213EF     1400+00000+EF0000000035+0000000035+000000000+000000005+0000000040+0000000000+I20000000000+0000000040+Z
312882001312882112-116038     312882006009681820246TCS CARRIER BAG MIDI   0000001000+00000035+00000+0001T   00000035+0000001448          1400 AC4090               1AZ
312883000312883               312883               170213EF     1400+00000+EF0000006172+0000006172+000000000+000000865+0000007037+0000000000+I40000007037+0000000000+Z
312883001312883079-000359     312883006003000639823FELT-TIP PENS THERAPY  0000001000+00002630+00000+0001T   00002630+0000001453          1400 AC4130               1AZ
312883002312883567-011344     312883006003000630714BK COLOURING THERAPY 640000001000+00003507+00000+0001T   00003507+0000001453          1400 AC4757               1AZ
312883003312883112-116038     312883006009681820246TCS CARRIER BAG MIDI   0000001000+00000035+00000+0001T   00000035+0000001453          1400 AC4090               1AZ
312884000312884               312884               170213EF     1400+00000+EF0000051325+0000051325+000000000+000007200+0000058525+0000000000+I40000058525+0000000000+Z
312884001312884019-000131     312884006003000456253PLANT. T/PLATE 10X12.5 0000006000+00002630+00000+0001T   00002630+0000001457          1400 AC4510               1AZ
312884002312884563-000317-K   312884006003000697885SERVIETTE 2PLY 33cm    0000001000+00001753+00000+0001T   00001753+0000001457          1400 AC4214               1AZ
312884003312884903-000295     312884006001704002899SWT MS FRUITY RASCALS  0000001000+00000876+00000+0001T   00000876+0000001457          1400 AC4150               1AZ
312884004312884039-000798     312884006001023617774CANDLES TEALITE BOX-50 0000001000+00006139+00000+0001T   00006139+0000001457          1400 AC4510               1AZ
312884005312884563-000318-J   312884006003000404728SERVIETTES 33cm YELLOW 0000001000+00002192+00000+0001T   00002192+0000001457          1400 AC4214               1AZ
312884006312884563-000317-K   312884006003000697885SERVIETTE 2PLY 33cm    0000001000+00001753+00000+0001T   00001753+0000001457          1400 AC4214               1AZ
312884007312884563-000318-K   312884006003000404841SERVIETTES 33cm L/BLUE 0000002000+00002192+00000+0001T   00002192+0000001457          1400 AC4214               1AZ
312884008312884563-000317-K   312884006003000697885SERVIETTE 2PLY 33cm    0000001000+00001753+00000+0001T   00001753+0000001457          1400 AC4214               1AZ
312884009312884040-000208     312884006003000673599C/HOLDER GLS COL. 5.5CM0000013000+00000876+00000+0001T   00000876+0000001457          1400 AC4510               1AZ
312884010312884006-000092     312884006001023739650BANNER BIRTHDAY PAPER  0000003000+00001753+00000+0001T   00001753+0000001457          1400 AC4131               1AZ
312884011312884112-116069     312884006009681820277TCS CARRIER BAG JUMBO  0000001000+00000048+00000+0001T   00000048+0000001457          1400 AC4090               1AZ
312885000312885               312885               170213EF     1400+00000+EF0000001752+0000001752+000000000+000000246+0000001990+0000000008+I20000000000+0000001990+Z
312885001312885089-000192-A   312885006001023901774KEY-CHAIN ACRYLIC      0000002000+00000876+00000+0001T   00000876+0000001459          1400 AC4205               1AZ
312886000312886               312886               170213EF     1400+00000+EF0000010510+0000010510+000000000+000001480+0000011990+0000000000+I20000000000+0000011990+Z
312886001312886079-009702-F   312886008427973059392PAPER SIRIO A2 GREEN   0000010000+00001051+00000+0001T   00001051+0000001502          1400 AC4130               1AZ
312887000312887               312887               170213EF     1400+00000+EF0000002630+0000002630+000000000+000000369+0000002999+0000000000+I40000002999+0000000000+Z
312887001312887004-078991     312887006001023996855EARPHONES+EAR-CLIP 1.0m0000001000+00002630+00000+0001T   00002630+0000001503          1400 AC4310               1AZ
312888000312888               312888               170213EF     1400+00000+EF0000020108+0000020108+000000000+000002816+0000022920+0000000004+I20000000000+0000022920+Z
312888001312888018-005009     312888006001023725608MUG W/PLUSH-BEAR LOVE  0000001000+00003507+00000+0001T   00003507+0000001505          1400 AC4515               1AZ
312888002312888018-019000     312888006003000557288MUG OCC. LOVE JUMBO    0000001000+00005262+00000+0001T   00005262+0000001505          1400 AC4515               1AZ
312888003312888018-000177     312888006001023797513MUG MINI LOVE ASSTD    0000005000+00000700+00000+0001T   00000700+0000001505          1400 AC4515               1AZ
312888004312888903-000499     312888006001704012492SWT CHOC MALLOWS 50g   0000001000+00001227+00000+0001T   00001227+0000001505          1400 AC4150               1AZ
312888005312888024-000118     312888006001023422316N/STICK C/PAN HEART    0000001000+00004385+00000+0001T   00004385+0000001505          1400 AC4300               1AZ
312888006312888112-116038     312888006009681820246TCS CARRIER BAG MIDI   0000001000+00000035+00000+0001T   00000035+0000001505          1400 AC4090               1AZ
312888007312888566-000068     312888006003000418046POP UP LOVE 2 ASSTD    0000001000+00002192+00000+0001T   00002192+0000001505          1400 AC4130               1AZ
312889000312889               312889               170213EF     1400+00000+EF0000003244+0000003244+000000000+000000455+0000003690+0000000009+I20000000000+0000003690+Z
312889001312889150-000770     312889006005387000128UTILITY BOX MEGA       0000001000+00003244+00000+0001T   00003244+0000001506          1400 AC4810               1AZ
312890000312890               312890               170213EF     1400+00000+EF0000014692+0000014692+000000000+000002059+0000016751+0000000000+I40000016751+0000000000+Z
312890001312890018-000129     312890006001023403353MUG OCC. LOVE V-SHAPE  0000001000+00002630+00000+0001T   00002630+0000001514          1400 AA5515               1AZ
312890002312890077-000010-C   312890006001023123879CREPE-PAPER RED        0000001000+00000788+00000+0001T   00000788+0000001514          1400 AA5112               1AZ
312890003312890077-000380     312890006003000247585GIFT-BAG 33X45CM S/COL 0000001000+00002455+00000+0001T   00002455+0000001514          1400 AA5112               1AZ
312890004312890031-086302-C   312890006001023910332P/FRAME COLL. PL 3-HOLE0000001000+00008771+00000+0001T   00008771+0000001514          1400 AA5510               1AZ
312890005312890112-116069     312890006009681820277TCS CARRIER BAG JUMBO  0000001000+00000048+00000+0001T   00000048+0000001514          1400 AA5090               1AZ
312891000312891               312891               170213EF     1400+00000+EF0000003506+0000003506+000000000+000000492+0000003990+0000000008+I20000000000+0000003990+Z
312891001312891903-000610     312891006003000610518SWEET JUMBO BUBBLE GUM 0000002000+00001753+00000+0001T   00001753+0000001518          1400 AA5150               1AZ
312892000312892               312892               170213EF     1400+00000+EF0000003155+0000003155+000000000+000000443+0000003590+0000000008+I20000000000+0000003590+Z
312892001312892002-021040     312892006001023812216PARTY-PICKS 100PCE     0000001000+00000525+00000+0001T   00000525+0000001520          1400 AA5300               1AZ
312892002312892071-001362     312892006003000589258HIGHLIGHTER 4 PACK     0000001000+00002630+00000+0001T   00002630+0000001520          1400 AA5130               1AZ
312893000312893               312893               170213EF     1400+00000+EF0000018764+0000018764+000000000+000002630+0000021394+0000000000+I40000021394+0000000000+Z
312893001312893007-010502     312893006003000455270WIPE & CHALK 60X45CM   0000001000+00015788+00000+0001T   00015788+0000001522          1400 AA5130               1AZ
312893002312893903-000151     312893006009803374411SWT SML RND R/BOW LOLLY0000004000+00000525+00000+0001T   00000525+0000001522          1400 AA5150               1AZ
312893003312893903-000897     312893008692806325207SWT CHOC DBL MINI ROLL 0000001000+00000876+00000+0001T   00000876+0000001522          1400 AA5150               1AZ
312894000312894               312894               170213EF     1400+00000+EF0000020467+0000020467+000000000+000002869+0000023330+0000000006+I20000000000+0000023330+Z
312894001312894112-116069     312894006009681820277TCS CARRIER BAG JUMBO  0000001000+00000048+00000+0001T   00000048+0000001528          1400 AA5090               1AZ
312894002312894018-005009     312894006001023725608MUG W/PLUSH-BEAR LOVE  0000002000+00003507+00000+0001T   00003507+0000001528          1400 AA5515               1AZ
312894003312894565-001212     312894006001023658173NOVELTY MAGIC-SPRING   0000002000+00001753+00000+0001T   00001753+0000001528          1400 AA5745               1AZ
312894004312894567-004961     312894009780636049017TYB G01 MATHS          0000001000+00002192+00000+0001T   00002192+0000001528          1400 AA5757               1AZ
312894005312894079-006494     312894006003000159864GLITTER GLUE 5PCE 11cm 0000001000+00001490+00000+0001T   00001490+0000001528          1400 AA5130               1AZ
312894006312894903-000499     312894006001704012492SWT CHOC MALLOWS 50g   0000001000+00001227+00000+0001T   00001227+0000001528          1400 AA5150               1AZ
312894007312894007-000537     312894000651728791017NOTE-PAD RND SMILE-FACE0000001000+00000700+00000+0001T   00000700+0000001528          1400 AA5130               1AZ
312894008312894018-000177     312894006001023797513MUG MINI LOVE ASSTD    0000003000+00000700+00000+0001T   00000700+0000001528          1400 AA5515               1AZ
312894009312894565-000071     312894006003000643387NOVELTY WIND UP CHATTER0000001000+00001139+00000+0001T   00001139+0000001528          1400 AA5745               1AZ
312894010312894079-009702-D   312894008427973059354PAPER SIRIO A2 RED COL 0000001000+00001051+00000+0001T   00001051+0000001528          1400 AA5130               1AZ
312895000312895               312895               170213EF     1400+00000+EF0000001179+0000001179+000000000+000000168+0000001340+0000000007+I20000000000+0000001340+Z
312895001312895903-000183     312895006003000451043SWT LB HEART LOLLY     0000003000+00000393+00000+0001T   00000393+0000001529          1400 AA5150               1AZ
312896000312896               312896               170213EF     1400+00000+EF0000009646+0000009646+000000000+000001352+0000010990+0000000008+I20000000000+0000010990+Z
312896001312896082-000124     312896006003000646272READING GLASS TWIN 1.5 0000001000+00007893+00000+0001T   00007893+0000001530          1400 AA5160               1AZ
312896002312896002-000883     312896006001023770394CAN-OPENER             0000001000+00001753+00000+0001T   00001753+0000001530          1400 AA5300               1AZ
312897000312897               312897               170213EF     1400+00000+EF0000018924+0000018924+000000000+000002651+0000021575+0000000000+I40000021575+0000000000+Z
312897001312897019-000084     312897006001023797247VASE GLASS GEOMETRIC   0000002000+00006139+00000+0001T   00006139+0000001533          1400 AA5510               1AZ
312897002312897019-000083     312897006001023797209V/GLASS CUT 3-ASST 20CM0000001000+00004385+00000+0001T   00006139+0008171533          1400 AA5510               1AZ
312897003312897077-000309-A   312897006003000671007GIFT-BAG HOLOGRAM JMB  0000001000+00002192+00000+0001T   00002192+0000001533          1400 AA5112               1AZ
312897004312897112-116053     312897006006438002399TCS CARRIER BAG 38L    0000001000+00000069+00000+0001T   00000069+0000001533          1400 AA5090               1AZ
312898000312898               312898               170213EF     1400+00000+EF0000015257+0000015257+000000000+000002138+0000017395+0000000000+I40000017395+0000000000+Z
312898001312898077-000245     312898006001023759214GIFT-RIBBON METALLICx2 0000001000+00001227+00000+0001T   00001227+0000001535          1400 AC4112               1AZ
312898002312898206-000135     312898006003000680450T/BAG HLDR SILICONE    0000002000+00001753+00000+0001T   00001753+0000001535          1400 AC4321               1AZ
312898003312898001-091415     312898006003000329113W/GLS OCC. LOVE 2PC 2800000001000+00008771+00000+0001T   00009648+0006471535          1400 AC4515               1AZ
312898004312898077-000316     312898006001023609731GIFT-BAG 25X32CM MATT  0000001000+00001753+00000+0001T   00001753+0000001535          1400 AC4112               1AZ
312899000312899               312899               170213EF     1400+00000+EF0000006577+0000006577+000000000+000000921+0000007490+0000000008+I20000000000+0000007490+Z
312899001312899072-020257     312899006001023598110DOG-CHEW SHOE 13cm     0000001000+00002192+00000+0001T   00002192+0000001536          1400 AC4870               1AZ
312899002312899072-020262     312899006003000305254PET DOG-CHEW TYRE LARGE0000001000+00004385+00000+0001T   00004385+0000001536          1400 AC4870               1AZ
312900000312900               312900               170213EF     1400+00000+EF0000002192+0000002192+000000000+000000307+0000002490+0000000009+I20000000000+0000002490+Z
312900001312900566-000068     312900006003000418046POP UP LOVE 2 ASSTD    0000001000+00002192+00000+0001T   00002192+0000001536          1400 AC4130               1AZ
312901000312901               312901               170213EF     1400+00000+EF0000001578+0000001578+000000000+000000221+0000001790+0000000009+I20000000000+0000001790+Z
312901001312901018-000127     312901006001023380289MUG OCC STRAIGHT LOVE  0000001000+00001578+00000+0001T   00001753+0006471537          1400 AC4515               1AZ
312902000312902               312902               170213EF     1400+00000+EF0000008151+0000008151+000000000+000001144+0000009290+0000000005+I20000000000+0000009290+Z
312902001312902162-097717     312902006001492977171#TAG NEW SILVER E/PIERC0000001000+00001139+00000+0001T   00001139+0000001545          1400 AC4160               1AZ
312902002312902079-003002     312902006003000447886A/TUBE 75ML RED        0000001000+00001753+00000+0001T   00001753+0000001545          1400 AC4130               1AZ
312902003312902079-003003     312902006003000448005A/TUBE 75ML DARK GREEN 0000001000+00001753+00000+0001T   00001753+0000001545          1400 AC4130               1AZ
312902004312902079-003005     312902006003000448241A/TUBE 75ML BLUE       0000001000+00001753+00000+0001T   00001753+0000001545          1400 AC4130               1AZ
312902005312902079-003004     312902006003000448128TUBE 75ML LIGHT GREEN  0000001000+00001753+00000+0001T   00001753+0000001545          1400 AC4130               1AZ
312903000312903               312903               170213EF     1400+00000+EF0000003856+0000003856+000000000+000000540+0000004390+0000000006+I20000000000+0000004390+Z
312903001312903105-001025-A   312903006009654960979CONTAINERS CLEAR 4PCE  0000002000+00001928+00000+0001T   00001928+0000001545          1400 AC4210               1AZ
312904000312904               312904               170213EF     1400+00000+EF0000001753+0000001753+000000000+000000246+0000001990+0000000009+I20000000000+0000001990+Z
312904001312904200-003024     312904006001023657299REFUSE BAGS 20PCE BLACK0000001000+00001753+00000+0001T   00001753+0000001546          1400 AC4214               1AZ
312905000312905               312905               170213EF     1400+00000+EF0000002622+0000002622+000000000+000000372+0000002990+0000000004+I20000000000+0000002990+Z
312905001312905080-000133     312905006003000535613CARD&ENV MINI ASTD DSGN0000006000+00000437+00000+0001T   00000437+0000001550          1400 AC4112               1AZ
312906000312906               312906               170213EF     1400+00000+EF0000001227+0000001227+000000000+000000172+0000001390+0000000009+I20000000000+0000001390+Z
312906001312906251-000040     312906006001023515865SEALTAPE CLEAR 48mmx50m0000001000+00001227+00000+0001T   00001227+0000001552          1400 AC4810               1AZ
312907000312907               312907               170213EF     1400+00000+EF0000010868+0000010868+000000000+000001522+0000012390+0000000000+I40000012390+0000000000+Z
312907001312907007-000537     312907000651728791017NOTE-PAD RND SMILE-FACE0000002000+00000700+00000+0001T   00000700+0000001601          1400 AC4130               1AZ
312907002312907903-002901     312907005996071650655QUICK MILK 5 S/BERRY   0000006000+00001578+00000+0001T   00001578+0000001601          1400 AC4150               1AZ
312908000312908               312908               170213EF     1400+00000+EF0000011836+0000011836+000000000+000001659+0000013490+0000000005+I20000000000+0000013490+Z
312908001312908080-000118     312908006003000237562CARD&ENVLPE-CONGRATS   0000001000+00001753+00000+0001T   00001753+0000001605          1400 AC4112               1AZ
312908002312908080-000115     312908006003000237333CARD&ENVELOPE - BLANKS 0000001000+00001753+00000+0001T   00001753+0000001605          1400 AC4112               1AZ
312908003312908080-000117     312908006003000236350CARD & ENVELOPE THANK U0000001000+00001753+00000+0001T   00001753+0000001605          1400 AC4112               1AZ
312908004312908050-000887-Z   312908006001023821966PADLOCK COMB 10-DIGIT  0000001000+00004385+00000+0001T   00004385+0000001605          1400 AC4855               1AZ
312908005312908046-000012-A   312908006003000208296BATTERIES H/POWER SZ:AA0000001000+00002192+00000+0001T   00002192+0000001605          1400 AC4312               1AZ
312909000312909               312909               170213EF     1400+00000+EF0000024319+0000024319+000000000+000003410+0000027729+0000000000+I40000027729+0000000000+Z
312909001312909051-500115     312909006003000528059GARDEN KID SPRAY BOTTLE0000001000+00001753+00000+0001T   00001753+0000001607          1400 AC4820               1AZ
312909002312909072-000350     312909006003000304882PET CAT TOY PLUSH W/BEL0000001000+00003069+00000+0001T   00003069+0000001607          1400 AC4870               1AZ
312909003312909036-000605     312909006001023158611WASHING-PEGS WDN PCK-240000001000+00001490+00000+0001T   00001490+0000001607          1400 AC4212               1AZ
312909004312909079-013101     312909006001023863706CRAFT SET DIY PIPE-CLNR0000001000+00002630+00000+0001T   00002630+0000001607          1400 AC4130               1AZ
312909005312909566-000863     312909006001023788351STICKERS LASER 20x25cm 0000002000+00002630+00000+0001T   00002630+0000001607          1400 AC4130               1AZ
312909006312909566-000667     312909006003000658039STICKER FOIL EMBOSSED  0000001000+00002192+00000+0001T   00002192+0000001607          1400 AC4130               1AZ
312909007312909566-000007     312909006001023761187S/BOOK SUPER VALUE     0000002000+00001753+00000+0001T   00001753+0000001607          1400 AC4130               1AZ
312909008312909566-000667     312909006003000658039STICKER FOIL EMBOSSED  0000002000+00002192+00000+0001T   00002192+0000001607          1400 AC4130               1AZ
312909009312909112-116038     312909006009681820246TCS CARRIER BAG MIDI   0000001000+00000035+00000+0001T   00000035+0000001607          1400 AC4090               1AZ
312910000312910               312910               170213EF     1400+00000+EF0000005259+0000005259+000000000+000000738+0000005990+0000000007+I20000000000+0000005990+Z
312910001312910200-003026     312910006003000276448REFUSE BAGS 10PCE GREEN0000003000+00001753+00000+0001T   00001753+0000001608          1400 AC4214               1AZ
312911000312911               312911               170213EF     1400+00000+EF0000003069+0000003069+000000000+000000430+0000003490+0000000009+I20000000000+0000003490+Z
312911001312911072-020315     312911006003000623891PET TOY PUPPY RING 3in10000001000+00003069+00000+0001T   00003069+0000001619          1400 AC4870               1AZ
312912000312912               312912               170213EF     1400+00000+EF0000002892+0000002892+000000000+000000406+0000003290+0000000008+I20000000000+0000003290+Z
312912001312912903-000087     312912006001704000161SWT SPECKLED-EGGS 50G  0000001000+00001139+00000+0001T   00001139+0000001623          1400 AC4150               1AZ
312912002312912077-000316     312912006001023609731GIFT-BAG 25X32CM MATT  0000001000+00001753+00000+0001T   00001753+0000001623          1400 AC4112               1AZ
312913000312913               312913               170213EF     1400+00000+EF0000001753+0000001753+000000000+000000246+0000001990+0000000009+I20000000000+0000001990+Z
312913001312913200-003024     312913006001023657299REFUSE BAGS 20PCE BLACK0000001000+00001753+00000+0001T   00001753+0000001623          1400 AC4214               1AZ
312914000312914               312914               170213EF     1400+00000+EF0000004821+0000004821+000000000+000000675+0000005490+0000000006+I20000000000+0000005490+Z
312914001312914031-000856     312914006001023852113P/FRAME PL BROWN 10X15 0000001000+00003507+00000+0001T   00003507+0000001627          1400 AC4510               1AZ
312914002312914077-000310     312914006001023608635GIFT-BAG 18X23CM GLOSS 0000001000+00001314+00000+0001T   00001314+0000001627          1400 AC4112               1AZ
312915000312915               312915               170213EF     1400+00000+EF0000101970+0000101970+000000000+000014288+0000116258+0000000000+I40000116258+0000000000+Z
312915001312915562-006275     312915006001023836182EDU BOARD W/MARKER ASST0000002000+00007016+00000+0001T   00007016+0000001633          1400 AC4755               1AZ
312915002312915007-010495     312915006003000533510BOARD DRY WIPE & PEN   0000001000+00002630+00000+0001T   00002630+0000001633          1400 AC4130               1AZ
312915003312915104-000040     312915006001023846280BASKET HEART-SHAPED    0000006000+00001753+00000+0001T   00001753+0000001633          1400 AC4210               1AZ
312915004312915079-013032-F   312915006003000496266FOAM NUMBERS           0000001000+00002192+00000+0001T   00002192+0000001633          1400 AC4130               1AZ
312915005312915079-013032-G   312915006003000496389FOAM BUTTERFLIES       0000001000+00002192+00000+0001T   00002192+0000001633          1400 AC4130               1AZ
312915006312915079-013032     312915006003000389209SET LETTERS 2 ASSTD    0000001000+00001753+00000+0001T   00001753+0000001633          1400 AC4130               1AZ
312915007312915079-013032-D   312915006003000389643RIBBONS                0000001000+00002630+00000+0001T   00002630+0000001633          1400 AC4130               1AZ
312915008312915567-014132     312915006003000560028BOOK COLOURING 24 PAGE 0000003000+00000876+00000+0001T   00000876+0000001633          1400 AC4757               1AZ
312915009312915079-000510     312915006001023509079CRAYONS WAX 12-COLOUR  0000006000+00002455+00000+0001T   00002455+0000001633          1400 AC4130               1AZ
312915010312915007-000325     312915006009698066514PAPER A4 160GSM 25SHTS 0000001000+00003507+00000+0001T   00003507+0000001633          1400 AC4130               1AZ
312915011312915007-000324     31291500600968585864125 SHEETS BRIGHTS MARLI0000004000+00003507+00000+0001T   00003507+0000001633          1400 AC4130               1AZ
312915012312915267-000233     312915006001023688576PUZZLE 48pc EDUCATIONAL0000003000+00003507+00000+0001T   00003507+0000001633          1400 AC4755               1AZ
312915013312915267-000202     312915006003000339808PUZZLE 48pc DINOSAUR   0000003000+00003069+00000+0001T   00003069+0000001633          1400 AC4755               1AZ
312915014312915105-009015     312915006002923007627STORAGE BOX 32L FROSTED0000001000+00011402+00000+0001T   00011402+0000001633          1400 AC4210               1AZ
312916000312916               312916               170213EF     1400+00000+EF0000001490+0000001490+000000000+000000209+0000001690+0000000009+I20000000000+0000001690+Z
312916001312916089-001021     312916006003000112319KEY CHAIN MINI BIBLE   0000001000+00001490+00000+0001T   00001490+0000001636          1400 AC4205               1AZ
312917000312917               312917               170213EF     1400+00000+EF0000001139+0000001139+000000000+000000160+0000001290+0000000009+I20000000000+0000001290+Z
312917001312917565-000071     312917006003000643387NOVELTY WIND UP CHATTER0000001000+00001139+00000+0001T   00001139+0000001641          1400 AC4745               1AZ
312918000312918               312918               170213EF     1400+00000+EF0000002192+0000002192+000000000+000000307+0000002499+0000000000+I40000002499+0000000000+Z
312918001312918080-000127     312918006003000424351VALENTINES DAY 36x24CM 0000001000+00002192+00000+0001T   00002192+0000001643          1400 AC4112               1AZ
312919000312919               312919               170213EF     1400+00000+EF0000009206+0000009206+000000000+000001290+0000010496+0000000000+I40000010496+0000000000+Z
312919001312919082-000100     312919006003000360246READING GLS STRENGHT:1 0000001000+00004385+00000+0001T   00004385+0000001648          1400 AC4160               1AZ
312919002312919566-000200     312919006003000384174STICKER PUFFY NEON     0000001000+00000876+00000+0001T   00000876+0000001648          1400 AC4130               1AZ
312919003312919079-013032-G   312919006003000496389FOAM BUTTERFLIES       0000001000+00002192+00000+0001T   00002192+0000001648          1400 AC4130               1AZ
312919004312919079-013032-B   312919006003000389445MIXED SHAPES           0000001000+00001753+00000+0001T   00001753+0000001648          1400 AC4130               1AZ
312920000312920               312920               170213EF     1400+00000+EF0000004384+0000004384+000000000+000000614+0000004990+0000000008+I20000000000+0000004990+Z
312920001312920077-000509     312920006003000082582GIFT-BAG SML 6PCE ORG P0000002000+00002192+00000+0001T   00002192+0000001649          1400 AC4112               1AZ
312921000312921               312921               170213EF     1400+00000+EF0000004760+0000004760+000000000+000000671+0000005430+0000000001+I20000000000+0000005430+Z
312921001312921077-000310     312921006001023608635GIFT-BAG 18X23CM GLOSS 0000001000+00001314+00000+0001T   00001314+0000001652          1400 AC4112               1AZ
312921002312921077-000311     312921006001023608666GIFT-BAG 11X14CM GLOSS 0000003000+00000613+00000+0001T   00000613+0000001652          1400 AC4112               1AZ
312921003312921903-000183     312921006003000451043SWT LB HEART LOLLY     0000004000+00000393+00000+0001T   00000393+0000001652          1400 AC4150               1AZ
312921004312921112-116038     312921006009681820246TCS CARRIER BAG MIDI   0000001000+00000035+00000+0001T   00000035+0000001652          1400 AC4090               1AZ
312922000312922               312922               170213EF     1400+00000+EF0000007749+0000007749+000000000+000001086+0000008830+0000000005+I20000000000+0000008830+Z
312922001312922133-000016     312922006003000240609DUSTERS ORANGE PACK-3  0000001000+00001753+00000+0001T   00001753+0000001653          1400 AC4212               1AZ
312922002312922033-001402     312922006009654960498HAIR-CURLERS 6PCE LRG  0000002000+00001227+00000+0001T   00001227+0000001653          1400 AC4200               1AZ
312922003312922133-000010-A   312922006001023997647CLEANING CLOTH ROLL 30 0000001000+00003507+00000+0001T   00003507+0000001653          1400 AC4212               1AZ
312922004312922112-116038     312922006009681820246TCS CARRIER BAG MIDI   0000001000+00000035+00000+0001T   00000035+0000001653          1400 AC4090               1AZ
312923000312923               312923               170213EF     1400+00000+EF0000007890+0000007890+000000000+000001107+0000008990+0000000007+I20000000000+0000008990+Z
312923001312923073-000157     312923006003000571734COSMETIC QUILTED BAG   0000003000+00002630+00000+0001T   00002630+0000001653          1400 AC4200               1AZ
312924000312924               312924               170213EF     1400+00000+EF0000003506+0000003506+000000000+000000492+0000003990+0000000008+I20000000000+0000003990+Z
312924001312924046-000002     312924006001023585202BATTERIES SIZE:C   2PCE0000002000+00001753+00000+0001T   00001753+0000001654          1400 AC4312               1AZ
312925000312925               312925               170213EF     1400+00000+EF0000009678+0000009678+000000000+000001357+0000011030+0000000005+I20000000000+0000011030+Z
312925001312925077-000150-D   312925006003000054343GIFT-WRAP CELLPHANE CLR0000002000+00000876+00000+0001T   00000876+0000001655          1400 AC4112               1AZ
312925002312925903-000861     312925005010478430822SWT LOVE HEARTS SML    0000001000+00000876+00000+0001T   00000876+0000001655          1400 AC4150               1AZ
312925003312925368-000265     312925006001023750914PLUSH BEAR 23CM ASSTD C0000001000+00006139+00000+0001T   00006139+0000001655          1400 AC4745               1AZ
312925004312925077-000011-C   312925006001023808523TISSUE 10xSHTS RED     0000001000+00000876+00000+0001T   00000876+0000001655          1400 AC4112               1AZ
312925005312925112-116038     312925006009681820246TCS CARRIER BAG MIDI   0000001000+00000035+00000+0001T   00000035+0000001655          1400 AC4090               1AZ
312926000312926               312926               170213EF     1400+00000+EF0000003066+0000003066+000000000+000000430+0000003496+0000000000+I40000003496+0000000000+Z
312926001312926077-000310     312926006001023608635GIFT-BAG 18X23CM GLOSS 0000001000+00001314+00000+0001T   00001314+0000001657          1400 AC4112               1AZ
312926002312926903-000699     312926006002099007018SWT CANDY FRUIT CHEWS  0000001000+00001139+00000+0001T   00001139+0000001657          1400 AC4150               1AZ
312926003312926083-000055     312926006003000003853LIGHTER ELCTRNC REFILBL0000001000+00000613+00000+0001T   00000613+0000001657          1400 AC4315               1AZ
312927000312927               312927               170213EF     1400+00000+EF0000001753+0000001753+000000000+000000246+0000001990+0000000009+I20000000000+0000001990+Z
312927001312927039-001023     312927006003000466337CANDLE TEA-LITE METALIC0000001000+00001753+00000+0001T   00001753+0000001704          1400 AC4510               1AZ
312928000312928               312928               170213EF     1400+00000+EF0000000786+0000000786+000000000+000000112+0000000890+0000000008+I20000000000+0000000890+Z
312928001312928903-000183     312928006003000451043SWT LB HEART LOLLY     0000002000+00000393+00000+0001T   00000393+0000001705          1400 AC4150               1AZ
312929000312929               312929               170213EF     1400+00000+EF0000007016+0000007016+000000000+000000983+0000007990+0000000009+I20000000000+0000007990+Z
312929001312929562-002007     312929006003000228188LEARNING EDU ALPHABET  0000001000+00007016+00000+0001T   00007016+0000001707          1400 AC4755               1AZ
312930000312930               312930               170213EF     1400+00000+EF0000009648+0000009648+000000000+000001351+0000010990+0000000009+I20000000000+0000010990+Z
312930001312930024-000107     312930006001023422071MUFFIN-PAN 12-CUP      0000001000+00009648+00000+0001T   00009648+0000001708          1400 AC4300               1AZ
312931000312931               312931               170213EF     1400+00000+EF0000006139+0000006139+000000000+000000860+0000006990+0000000009+I20000000000+0000006990+Z
312931001312931018-050000     312931006003000412679MUG OCC LOVE TWIN BEAR 0000001000+00006139+00000+0001T   00006139+0000001710          1400 AC4515               1AZ
312932000312932               312932               170213EF     1400+00000+EF0000000035+0000000035+000000000+000000005+0000000040+0000000000+I20000000000+0000000040+Z
312932001312932112-116038     312932006009681820246TCS CARRIER BAG MIDI   0000001000+00000035+00000+0001T   00000035+0000001711          1400 AC4090               1AZ
312933000312933               312933               170213EF     1400+00000+EF0000007099+0000007099+000000000+000000994+0000008093+0000000000+I40000008093+0000000000+Z
312933001312933002-000679     312933006003000426188K/TOOL SET NYLON 3PC   0000001000+00003507+00000+0001T   00003507+0000001713          1400 AC4300               1AZ
312933002312933077-000303     312933006001023593757GIFT-BAG PAPER MED     0000001000+00001578+00000+0001T   00001578+0000001713          1400 AC4112               1AZ
312933003312933018-000177     312933006001023797513MUG MINI LOVE ASSTD    0000001000+00000700+00000+0001T   00000700+0000001713          1400 AC4515               1AZ
312933004312933903-000194     312933006009826020616SWT CHOC RP LOLLY 25G  0000001000+00001314+00000+0001T   00001314+0000001713          1400 AC4150               1AZ
312934000312934               312934               170213EF     1400+00000+EF0000003857+0000003857+000000000+000000541+0000004390+0000000008+I20000000000+0000004390+Z
312934001312934903-000095     312934006001704011495SWT SPECKLED-EGGS 100G 0000001000+00002104+00000+0001T   00002104+0000001714          1400 AC4150               1AZ
312934002312934080-000111     312934006003000252695CARD&ENVELPE - MUSICAL 0000001000+00001753+00000+0001T   00001753+0000001714          1400 AC4112               1AZ
312935000312935               312935               170213EF     1400+00000+EF0000013200+0000013200+000000000+000001850+0000015050+0000000000+I20000000000+0000015050+Z
312935001312935031-005853     312935006003000442416P/FRAME WDN TWIN HEARTS0000001000+00003507+00000+0001T   00003507+0000001717          1400 AC4510               1AZ
312935002312935024-000118     312935006001023422316N/STICK C/PAN HEART    0000001000+00004385+00000+0001T   00004385+0000001717          1400 AC4300               1AZ
312935003312935002-000717     312935006001023775184CHOPPING-MATS FLEX 2PCE0000001000+00002630+00000+0001T   00002630+0000001717          1400 AC4300               1AZ
312935004312935112-116069     312935006009681820277TCS CARRIER BAG JUMBO  0000001000+00000048+00000+0001T   00000048+0000001717          1400 AC4090               1AZ
312935005312935903-000594     312935006003000564057SWT SWORD 18cm J/BEAN  0000001000+00002630+00000+0001T   00002630+0000001717          1400 AC4150               1AZ
312936000312936               312936               170213EF     1400+00000+EF0000001578+0000001578+000000000+000000221+0000001790+0000000009+I20000000000+0000001790+Z
312936001312936077-000303     312936006001023593757GIFT-BAG PAPER MED     0000001000+00001578+00000+0001T   00001578+0000001718          1400 AC4112               1AZ
312937000312937               312937               170213EF     1400+00000+EF0000001753+0000001753+000000000+000000246+0000001990+0000000009+I20000000000+0000001990+Z
312937001312937027-056191     312937006916920933134DISH-BRUSH+HOOK RECT   0000001000+00001753+00000+0001T   00001753+0000001718          1400 AC4212               1AZ
312938000312938               312938               170213EF     1400+00000+EF0000000876+0000000876+000000000+000000123+0000000990+0000000009+I20000000000+0000000990+Z
312938001312938039-000323     312938006001023524171BIRTHDAY-CANDLES 24PCE 0000001000+00000876+00000+0001T   00000876+0000001719          1400 AC4510               1AZ
312939000312939               312939               170213EF     1400+00000+EF0000008327+0000008327+000000000+000001168+0000009495+0000000000+I40000009495+0000000000+Z
312939001312939306-001619     312939006003000571451INNER SOLES 2-PAIR     0000001000+00002630+00000+0001T   00002630+0000001721          1400 AC4200               1AZ
312939002312939306-001130-A   312939006003000359271FIRSTAID SUPPORT ANKLE 0000001000+00001753+00000+0001T   00001753+0000001721          1400 AC4200               1AZ
312939003312939306-001125-A   312939006003000359127FIRSTAID SUPPORT KNEE  0000001000+00002630+00000+0001T   00002630+0000001721          1400 AC4200               1AZ
312939004312939306-001135-A   312939006003000359110FIRSTAID SUPPORT HAND  0000001000+00001314+00000+0001T   00001753+0008171721          1400 AC4200               1AZ
312940000312940               312940               170213EF     1400+00000+EF0000002135+0000002135+000000000+000000299+0000002434+0000000000+I40000002434+0000000000+Z
312940001312940018-000177     312940006001023797513MUG MINI LOVE ASSTD    0000003000+00000700+00000+0001T   00000700+0000001722          1400 AC4515               1AZ
312940002312940112-116038     312940006009681820246TCS CARRIER BAG MIDI   0000001000+00000035+00000+0001T   00000035+0000001722          1400 AC4090               1AZ
312941000312941               312941               170213EF     1400+00000+EF0000006839+0000006839+000000000+000000958+0000007797+0000000000+I40000007797+0000000000+Z
312941001312941903-000120     312941006002099001665SWEET GS ZILLIONS 50g  0000001000+00000700+00000+0001T   00000700+0000001724          1400 AC4150               1AZ
312941002312941035-000021     312941006002596020206UMBRELLA GENTS         0000001000+00006139+00000+0001T   00006139+0000001724          1400 AC4205               1AZ
312942000312942               312942               170213EF     1400+00000+EF0000006139+0000006139+000000000+000000860+0000006999+0000000000+I40000006999+0000000000+Z
312942001312942035-000021     312942006002596020206UMBRELLA GENTS         0000001000+00006139+00000+0001T   00006139+0000001725          1400 AC4205               1AZ
A17021300                                          12302568EFSLAVE 1                       AC42IC
C31279900                                          170213EF018-000127     10512397SLAVE 1     AC41IC0000000000+0000000000+0020000001000+
C31279901                                          170213EF018-005009     10512903SLAVE 1     AC41IC0000000000+0000000000+0030000001000+
C31279902                                          170213EF040-000172     10513501SLAVE 1     AC41IC0000000000+0000000000+0040000001000+
C31290800                                          170213EF046-000011-VP  16045156SLAVE 1     AC41IC0000000000+0000000000+0050000001000+
M17021391                              CASH        EFSLAVE 1                       Z-REPORT No.   629TOTAL (Sales - Refunds)          13253.96       CASH TO BE BANKED                 5473.30       DEBIT CARDS                          0.00       CREDIT CARDS                      7780.66       Z-READING                        13253.96       AIRTIME DEBIT CARD SALES             0.00       AIRTIME CARD SALES                   0.00       OVERS/UNDERS                         0.00       AIRTIME CASH SALES                   0.00       GIFT CARDS                           0.00       GIFT CARD CASH SALES                 0.00       T O T A L  CASH PAYOUTS              0.00                                                                                                                                                                                                                                                                                                                                                      Z
M17021392                              CASH        EFABSENT                                                                                                                                                                                          ANNUAL LEAVE                                                                                                                                                                                    DAY OFF                                                                                                                                                                                         COMMENTS                                                                                                                                                                                                                                                                                                                                                                                       Z
Y17021300                                          EF00000001165665+000176
ZEF17021319333 SLAVE 1      SALES DATA                     NEXT INVOICE NO.  312943 0629
X EF Slave 1 First invoice 312767 170213 Last invoice 312942 170213 Next invoice 312943 Total number of records 000000588 clbackup completed 19:33:12
