107017000107017               107017               170213EJ     1400+00000+EJ0000012271+0000012271+000000000+000001722+0000013990+0000000003+I20000000000+0000013990+Z
107017001107017080-000100     107017006003000236114CARD & ENVELOPE BDAY   0000001000+00001753+00000+0001T   00001753+0000000955          1400 E3D112               1AZ
107017002107017080-000109     107017006003000237203CARD&ENVLPE BDAY-BRIGHT0000001000+00001753+00000+0001T   00001753+0000000955          1400 E3D112               1AZ
107017003107017080-000103     107017006003000236961CARD&ENVLOPE BDAY-MALE 0000001000+00001753+00000+0001T   00001753+0000000955          1400 E3D112               1AZ
107017004107017080-000101     107017006003000236732CARD&ENVLPE FEMALE     0000001000+00001753+00000+0001T   00001753+0000000955          1400 E3D112               1AZ
107017005107017080-000100     107017006003000236114CARD & ENVELOPE BDAY   0000001000+00001753+00000+0001T   00001753+0000000955          1400 E3D112               1AZ
107017006107017080-000110     107017006003000237326CARD&ENVLPE BDAY-FUNNY 0000001000+00001753+00000+0001T   00001753+0000000955          1400 E3D112               1AZ
107017007107017080-000109     107017006003000237203CARD&ENVLPE BDAY-BRIGHT0000001000+00001753+00000+0001T   00001753+0000000955          1400 E3D112               1AZ
107018000107018               107018               170213EJ     1400+00000+EJ0000005297+0000005297+000000000+000000742+0000006030+0000000009+I20000000000+0000006030+Z
107018001107018303-000806     107018006001023409768COW-BELL BRASS(5BELLS) 0000001000+00005262+00000+0001T   00005262+0000001002          1400 E3D510               1AZ
107018002107018112-116038     107018006009681820246TCS CARRIER BAG MIDI   0000001000+00000035+00000+0001T   00000035+0000001002          1400 E3D090               1AZ
107019000107019               107019               170213EJ     1400+00000+EJ0000001753+0000001753+000000000+000000246+0000001990+0000000009+I20000000000+0000001990+Z
107019001107019089-000093     107019006003000457526K/CHAIN SILV SPORTS    0000001000+00001753+00000+0001T   00002630+0008121018          1400 E3D205               1AZ
107020000107020               107020               170213EJ     1400+00000+EJ0000002100+0000002100+000000000+000000294+0000002390+0000000004+I20000000000+0000002390+Z
107020001107020464-000121     107020006003000640492PLAYING CARDS MINI     0000003000+00000700+00000+0001T   00000700+0000001020          1400 E3D785               1AZ
107021000107021               107021               170213EJ     1400+00000+EJ0000013155+0000013155+000000000+000001843+0000014990+0000000008+I20000000000+0000014990+Z
107021001107021077-000299-A   107021006003000670888GIFT-BAG PAPER JMB LOVE0000001000+00001753+00000+0001T   00001753+0000001025          1400 E3D112               1AZ
107021002107021368-000637     107021006001023874092PLUSH BEAR SLEEPING LOV0000001000+00011402+00000+0001T   00012279+0006471025          1400 E3D745               1AZ
107022000107022               107022               170213EJ     1400+00000+EJ0000007488+0000007488+000000000+000001049+0000008530+0000000007+I20000000000+0000008530+Z
107022001107022133-000017     107022006003000525171CLEANING-CLOTHS 5PCE   0000001000+00003507+00000+0001T   00003507+0000001026          1400 E3D212               1AZ
107022002107022024-000002     107022006001023741899S/BURNER-COVER SILV/BLK0000001000+00003946+00000+0001T   00004385+0008191026          1400 E3D300               1AZ
107022003107022112-116038     107022006009681820246TCS CARRIER BAG MIDI   0000001000+00000035+00000+0001T   00000035+0000001026          1400 E3D090               1AZ
107023000107023               107023               170213EJ     1400+00000+EJ0000003946+0000003946+000000000+000000553+0000004490+0000000009+I20000000000+0000004490+Z
107023001107023024-000002     107023006001023741899S/BURNER-COVER SILV/BLK0000001000+00003946+00000+0001T   00004385+0008191026          1400 E3D300               1AZ
107024000107024               107024               170213EJ     1400+00000+EJ0000008441+0000008441+000000000+000001186+0000009620+0000000007+I20000000000+0000009620+Z
107024001107024112-116038     107024006009681820246TCS CARRIER BAG MIDI   0000001000+00000035+00000+0001T   00000035+0000001044          1400 E3D090               1AZ
107024002107024567-010161     107024009780000008516BOOK TOP ASSTD MILLS   0000001000+00005262+00000+0001T   00005262+0000001044          1400 E3D757               1AZ
107024003107024903-000216     107024006925925900966SWT MALLOW TWIST ERKO  0000012000+00000262+00000+0001T   00000262+0000001044          1400 E3D150               1AZ
107025000107025               107025               170213EJ     1400+00000+EJ0000011338+0000011338+000000000+000001589+0000012927+0000000000+I40000012927+0000000000+Z
107025001107025105-001015     107025006002638001293LUNCH BOX WITH CLIP    0000002000+00001314+00000+0001T   00001314+0000001053          1400 E3D210               1AZ
107025002107025006-000120     107025006001023346889BALLOONS 10PC MIX COL  0000002000+00001753+00000+0001T   00001753+0000001053          1400 E3D131               1AZ
107025003107025903-000518     107025006001704012782SWT STRAWS S/BERRY 100g0000001000+00001227+00000+0001T   00001227+0000001053          1400 E3D150               1AZ
107025004107025077-000312     107025006001023608697GIFT-BAG 10X35CM GLOSS 0000001000+00001314+00000+0001T   00001314+0000001053          1400 E3D112               1AZ
107025005107025077-000407     107025006003000145096G/BAG PP 19X26X8CM     0000002000+00001314+00000+0001T   00001314+0000001053          1400 E3D112               1AZ
107025006107025112-116038     107025006009681820246TCS CARRIER BAG MIDI   0000001000+00000035+00000+0001T   00000035+0000001053          1400 E3D090               1AZ
107026000107026               107026               170213EJ     1400+00000+EJ0000003278+0000003278+000000000+000000460+0000003730+0000000008+I20000000000+0000003730+Z
107026001107026077-000311     107026006001023608666GIFT-BAG 11X14CM GLOSS 0000001000+00000613+00000+0001T   00000613+0000001058          1400 E3D112               1AZ
107026002107026006-000104     107026006001023990112BALLOONS 40PC AIR PUMP 0000001000+00002630+00000+0001T   00002630+0000001058          1400 E3D131               1AZ
107026003107026112-116038     107026006009681820246TCS CARRIER BAG MIDI   0000001000+00000035+00000+0001T   00000035+0000001058          1400 E3D090               1AZ
107027000107027               107027               170213EJ     1400+00000+EJ0000000437+0000000437+000000000+000000062+0000000490+0000000009+I20000000000+0000000490+Z
107027001107027080-000133     107027006003000535613CARD&ENV MINI ASTD DSGN0000001000+00000437+00000+0001T   00000437+0000001058          1400 E3D112               1AZ
107028000107028               107028               170213EJ     1400+00000+EJ0000008771+0000008771+000000000+000001228+0000009999+0000000000+I10000004999+0000005000+Z
107028001107028031-007004     107028006003000463077P/FRAME A3 CERTIFICATE 0000001000+00008771+00000+0001T   00008771+0000001104          1400 E3D510               1AZ
107029000107029               107029               170213EJ     1400+00000+EJ0000001924+0000001924+000000000+000000272+0000002190+0000000006+I20000000000+0000002190+Z
107029001107029903-000155     107029006009803374435SWT LOLLY I LUV U HEART0000002000+00000525+00000+0001T   00000525+0000001110          1400 E3D150               1AZ
107029002107029080-000133-A   107029006003000647019MINI VALENTINES CARD   0000002000+00000437+00000+0001T   00000437+0000001110          1400 E3D112               1AZ
107030000107030               107030               170213EJ     1400+00000+EJ0000005921+0000005921+000000000+000000831+0000006752+0000000000+I40000006752+0000000000+Z
107030001107030018-000129     107030006001023403353MUG OCC. LOVE V-SHAPE  0000001000+00002630+00000+0001T   00002630+0000001114          1400 E3D515               1AZ
107030002107030077-000299     107030006003000395576G/BAG 32x25cm LRG LOVE 0000001000+00001490+00000+0001T   00001490+0000001114          1400 E3D112               1AZ
107030003107030080-000113     107030006003000237449CARD&ENVLPE - LOVE     0000001000+00001753+00000+0001T   00001753+0000001114          1400 E3D112               1AZ
107030004107030112-116069     107030006009681820277TCS CARRIER BAG JUMBO  0000001000+00000048+00000+0001T   00000048+0000001114          1400 E3D090               1AZ
107031000107031               107031               170213EJ     1400+00000+EJ0000005780+0000005780+000000000+000000812+0000006592+0000000000+I40000006592+0000000000+Z
107031001107031903-000194     107031006009826020616SWT CHOC RP LOLLY 25G  0000002000+00001314+00000+0001T   00001314+0000001116          1400 E3D150               1AZ
107031002107031565-000071     107031006003000643387NOVELTY WIND UP CHATTER0000002000+00001139+00000+0001T   00001139+0000001116          1400 E3D745               1AZ
107031003107031080-000133-A   107031006003000647019MINI VALENTINES CARD   0000002000+00000437+00000+0001T   00000437+0000001116          1400 E3D112               1AZ
107032000107032               107032               170213EJ     1400+00000+EJ0000004855+0000004855+000000000+000000681+0000005536+0000000000+I40000005536+0000000000+Z
107032001107032200-003024     107032006001023657299REFUSE BAGS 20PCE BLACK0000001000+00001753+00000+0001T   00001753+0000001118          1400 E3D214               1AZ
107032002107032150-001234-1   107032005019190010015PLATE-HANGER P/C SIZE-10000001000+00001314+00000+0001T   00001314+0000001118          1400 E3D810               1AZ
107032003107032077-000005-D   107032006003000414567PAPER TISSUE 50x70cm   0000001000+00001753+00000+0001T   00001753+0000001118          1400 E3D112               1AZ
107032004107032112-116038     107032006009681820246TCS CARRIER BAG MIDI   0000001000+00000035+00000+0001T   00000035+0000001118          1400 E3D090               1AZ
107033000107033               107033               170213EJ     1400+00000+EJ0000021081+0000021081+000000000+000002954+0000024035+0000000000+I40000024035+0000000000+Z
107033001107033031-000902-C   107033006001023726315P/FRAME WDN OAK 13X18CM0000002000+00005262+00000+0001T   00005262+0000001122          1400 E3D510               1AZ
107033002107033031-000902-B   107033006001023726285P/FRAME WDN OAK 10X15CM0000002000+00003946+00000+0001T   00003946+0000001122          1400 E3D510               1AZ
107033003107033206-000110     107033006003000628186CHOPSTICKS PLASTIC KIDS0000001000+00002630+00000+0001T   00002630+0000001122          1400 E3D321               1AZ
107033004107033112-116038     107033006009681820246TCS CARRIER BAG MIDI   0000001000+00000035+00000+0001T   00000035+0000001122          1400 E3D090               1AZ
107034000107034               107034               170213EJ     1400+00000+EJ0000004120+0000004120+000000000+000000578+0000004698+0000000000+I40000004698+0000000000+Z
107034001107034077-000299     107034006003000395576G/BAG 32x25cm LRG LOVE 0000001000+00001490+00000+0001T   00001490+0000001127          1400 E3D112               1AZ
107034002107034050-000889     107034006001023821102PADLOCK COMB RESETABLE 0000001000+00002630+00000+0001T   00002630+0000001127          1400 E3D855               1AZ
107035000107035               107035               170213EJ     1400+00000+EJ0000004587+0000004587+000000000+000000643+0000005230+0000000000+I20000000000+0000005230+Z
107035001107035002-000800     107035006001023770660PEELER MTL/PL WHITE    0000001000+00001139+00000+0001T   00001139+0000001130          1400 E3D300               1AZ
107035002107035304-001011     107035006001023806727FLWR ROSE RED W/BEAR   0000001000+00000613+00000+0001T   00000788+0006471130          1400 E3D510               1AZ
107035003107035018-000177     107035006001023797513MUG MINI LOVE ASSTD    0000004000+00000700+00000+0001T   00000700+0000001130          1400 E3D515               1AZ
107035004107035112-116038     107035006009681820246TCS CARRIER BAG MIDI   0000001000+00000035+00000+0001T   00000035+0000001130          1400 E3D090               1AZ
107036000107036               107036               170213EJ     1400+00000+EJ0000003507+0000003507+000000000+000000491+0000003998+0000000000+I40000003998+0000000000+Z
107036001107036105-001000     107036006003000520275CONTAINER:CEREAL TO GO 0000001000+00003507+00000+0001T   00004823+0008161135          1400 E3D210               1AZ
107037000107037               107037               170213EJ     1400+00000+EJ0000007136+0000007136+000000000+000001001+0000008137+0000000000+I40000008137+0000000000+Z
107037001107037046-000015     107037006001023680839BATTERIES SIZE:D   2PCE0000003000+00002367+00000+0001T   00002367+0000001141          1400 E3D312               1AZ
107037002107037112-116038     107037006009681820246TCS CARRIER BAG MIDI   0000001000+00000035+00000+0001T   00000035+0000001141          1400 E3D090               1AZ
107038000107038               107038               170213EJ     1400+00000+EJ0000009376+0000009376+000000000+000001316+0000010692+0000000000+I40000010692+0000000000+Z
107038001107038206-000370     107038006003000631315STRAW P/DRINKING GLASS 0000002000+00001753+00000+0001T   00001753+0000001152          1400 E3D321               1AZ
107038002107038018-000170     107038006001023775528MUG OCC. LOVE 2PC MINI 0000001000+00002192+00000+0001T   00002192+0000001152          1400 E3D515               1AZ
107038003107038903-000200     107038006009826020234SWT CHOC RP CHOCO 23G  0000003000+00000788+00000+0001T   00000788+0000001152          1400 E3D150               1AZ
107038004107038903-004950     107038006002580020304SWT APRICOT SURPRISE   0000001000+00001314+00000+0001T   00001314+0000001152          1400 E3D150               1AZ
107039000107039               107039               170213EJ     1400+00000+EJ0000010133+0000010133+000000000+000001419+0000011550+0000000002+I20000000000+0000011550+Z
107039001107039486-002307     107039006003000443086W/CLOCK QTZ PL ANTIQUE 0000001000+00008771+00000+0001T   00008771+0000001156          1400 E3D510               1AZ
107039002107039046-000012     107039006904708013062BATTERIES AA  CARD-OF-40000001000+00001314+00000+0001T   00001314+0000001156          1400 E3D312               1AZ
107039003107039112-116069     107039006009681820277TCS CARRIER BAG JUMBO  0000001000+00000048+00000+0001T   00000048+0000001156          1400 E3D090               1AZ
107040000107040               107040               170213EJ     1400+00000+EJ0000001538+0000001538+000000000+000000216+0000001750+0000000004+I20000000000+0000001750+Z
107040001107040077-000299     107040006003000395576G/BAG 32x25cm LRG LOVE 0000001000+00001490+00000+0001T   00001490+0000001200          1400 E3D112               1AZ
107040002107040112-116069     107040006009681820277TCS CARRIER BAG JUMBO  0000001000+00000048+00000+0001T   00000048+0000001200          1400 E3D090               1AZ
107041000107041               107041               170213EJ     1400+00000+EJ0000011437+0000011437+000000000+000001602+0000013039+0000000000+I40000013039+0000000000+Z
107041001107041003-009213     107041006003000483334O/INSECT STONE 22CM    0000001000+00011402+00000+0001T   00011402+0000001311          1400 E3D505               1AZ
107041002107041112-116038     107041006009681820246TCS CARRIER BAG MIDI   0000001000+00000035+00000+0001T   00000035+0000001311          1400 E3D090               1AZ
107042000107042               107042               170213EJ     1400+00000+EJ0000003506+0000003506+000000000+000000492+0000003990+0000000008+I20000000000+0000003990+Z
107042001107042088-000108     107042006001023765536POTPOURRI-OIL 10ml ASST0000002000+00001753+00000+0001T   00001753+0000001316          1400 E3D212               1AZ
107043000107043               107043               170213EJ     1400+00000+EJ0000001490+0000001490+000000000+000000209+0000001690+0000000009+I20000000000+0000001690+Z
107043001107043077-000327     107043006001023677686GIFT-BAG 25X32CM E/D BA0000001000+00001490+00000+0001T   00001490+0000001316          1400 E3D112               1AZ
107044000107044               107044               170213EJ     1400+00000+EJ0000000876+0000000876+000000000+000000123+0000000990+0000000009+I20000000000+0000000990+Z
107044001107044105-001036     107044006003000621118CONTAINER W/VENT 350ml 0000001000+00000876+00000+0001T   00001490+0008161325          1400 E3D210               1AZ
107045000107045               107045               170213EJ     1400+00000+EJ0000001873+0000001873+000000000+000000264+0000002137+0000000000+I40000002137+0000000000+Z
107045001107045077-000010-C   107045006001023123879CREPE-PAPER RED        0000001000+00000788+00000+0001T   00000788+0000001330          1400 E3D112               1AZ
107045002107045903-000155     107045006009803374435SWT LOLLY I LUV U HEART0000002000+00000525+00000+0001T   00000525+0000001330          1400 E3D150               1AZ
107045003107045112-116038     107045006009681820246TCS CARRIER BAG MIDI   0000001000+00000035+00000+0001T   00000035+0000001330          1400 E3D090               1AZ
107046000107046               107046               170213EJ     1400+00000+EJ0000007015+0000007015+000000000+000000983+0000007990+0000000008+I20000000000+0000007990+Z
107046001107046071-009832     107046006003000152674STATIONERY SET 4PCE    0000001000+00005262+00000+0001T   00005262+0000001333          1400 E3D130               1AZ
107046002107046007-000192     107046006009635830062BOOK H/COVER A4 192PAGE0000001000+00001753+00000+0001T   00001753+0000001333          1400 E3D130               1AZ
107047000107047               107047               170213EJ     1400+00000+EJ0000003542+0000003542+000000000+000000496+0000004030+0000000008+I20000000000+0000004030+Z
107047001107047018-000136     107047006001023659026MUG OCC LOVE W/PLUSH   0000001000+00003507+00000+0001T   00003507+0000001334          1400 E3D515               1AZ
107047002107047112-116038     107047006009681820246TCS CARRIER BAG MIDI   0000001000+00000035+00000+0001T   00000035+0000001334          1400 E3D090               1AZ
107048000107048               107048               170213EJ     1400+00000+EJ0000010327+0000010327+000000000+000001450+0000011777+0000000000+I40000011777+0000000000+Z
107048001107048112-116038     107048006009681820246TCS CARRIER BAG MIDI   0000001000+00000035+00000+0001T   00000035+0000001339          1400 E3D090               1AZ
107048002107048304-001011     107048006001023806727FLWR ROSE RED W/BEAR   0000008000+00000613+00000+0001T   00000788+0006471339          1400 E3D510               1AZ
107048003107048903-000155     107048006009803374435SWT LOLLY I LUV U HEART0000002000+00000525+00000+0001T   00000525+0000001339          1400 E3D150               1AZ
107048004107048903-000482     107048006001704001397SWT SOFT-MINTS 60G     0000001000+00000876+00000+0001T   00000876+0000001339          1400 E3D150               1AZ
107048005107048089-060027     107048006003000245871KEY-CHAIN HEART 6X6cm  0000001000+00003069+00000+0001T   00003069+0000001339          1400 E3D205               1AZ
107048006107048903-000183     107048006003000451043SWT LB HEART LOLLY     0000001000+00000393+00000+0001T   00000393+0000001339          1400 E3D150               1AZ
107049000107049               107049               170213EJ     1400+00000+EJ0000005262+0000005262+000000000+000000737+0000005999+0000000000+I40000005999+0000000000+Z
107049001107049016-006524     107049006003000579358S/JAR GLS 750ml ASSTD  0000001000+00005262+00000+0001T   00005262+0000001340          1400 E3D300               1AZ
107050000107050               107050               170213EJ     1400+00000+EJ0000015013+0000015013+000000000+000002107+0000017120+0000000000+I40000017120+0000000000+Z
107050001107050112-116038     107050006009681820246TCS CARRIER BAG MIDI   0000001000+00000035+00000+0001T   00000035+0000001404          1400 E3D090               1AZ
107050002107050903-000843     107050008693029031067SWT GUMMY JELAXY 80G   0000003000+00000964+00000+0001T   00000964+0000001404          1400 E3D150               1AZ
107050003107050903-000155     107050006009803374435SWT LOLLY I LUV U HEART0000008000+00000525+00000+0001T   00000525+0000001404          1400 E3D150               1AZ
107050004107050903-000844     107050005010478432567SWT CANDY DL LUV HEARTS0000004000+00001314+00000+0001T   00001314+0000001404          1400 E3D150               1AZ
107050005107050016-006425     107050006001023998170S/JAR GLS CLIP W/RIBBON0000001000+00002630+00000+0001T   00002630+0000001404          1400 E3D300               1AZ
107051000107051               107051               170213EJ     1400+00000+EJ0000007221+0000007221+000000000+000001014+0000008235+0000000000+I40000008235+0000000000+Z
107051001107051301-000821     107051006001023762245ORN FAIRY DOOR 4-ASSTD 0000001000+00004385+00000+0001T   00004385+0000001413          1400 E3D505               1AZ
107051002107051903-000200     107051006009826020234SWT CHOC RP CHOCO 23G  0000003000+00000788+00000+0001T   00000788+0000001413          1400 E3D150               1AZ
107051003107051080-000133-A   107051006003000647019MINI VALENTINES CARD   0000001000+00000437+00000+0001T   00000437+0000001413          1400 E3D112               1AZ
107051004107051112-116038     107051006009681820246TCS CARRIER BAG MIDI   0000001000+00000035+00000+0001T   00000035+0000001413          1400 E3D090               1AZ
107052000107052               107052               170213EJ     1400+00000+EJ0000001490+0000001490+000000000+000000209+0000001690+0000000009+I20000000000+0000001690+Z
107052001107052002-000878     107052006001023770967STRAINER TEA WIRE 7cm  0000001000+00001490+00000+0001T   00001490+0000001420          1400 E3D300               1AZ
107053000107053               107053               170213EJ     1400+00000+EJ0000000876+0000000876+000000000+000000123+0000000999+0000000000+I40000000999+0000000000+Z
107053001107053903-000482     107053006001704001397SWT SOFT-MINTS 60G     0000001000+00000876+00000+0001T   00000876+0000001432          1400 E3D150               1AZ
107054000107054               107054               170213EJ     1400+00000+EJ0000003496+0000003496+000000000+000000496+0000003992+0000000000+I40000003992+0000000000+Z
107054001107054080-000133-A   107054006003000647019MINI VALENTINES CARD   0000008000+00000437+00000+0001T   00000437+0000001435          1400 E3D112               1AZ
107055000107055               107055               170213EJ     1400+00000+EJ0000005259+0000005259+000000000+000000738+0000005997+0000000000+I40000005997+0000000000+Z
107055001107055220-005003     107055006003000566150ELOFF TEASPOONS 4PC    0000003000+00001753+00000+0001T   00001753+0000001437          1400 E3D300               1AZ
107056000107056               107056               170213EJ     1400+00000+EJ0000003542+0000003542+000000000+000000496+0000004030+0000000008+I20000000000+0000004030+Z
107056001107056018-000130     107056006001023867537MUG OCC LOVE MINI+HEART0000001000+00003507+00000+0001T   00003507+0000001446          1400 E3D515               1AZ
107056002107056112-116038     107056006009681820246TCS CARRIER BAG MIDI   0000001000+00000035+00000+0001T   00000035+0000001446          1400 E3D090               1AZ
107057000107057               107057               170213EJ     1400+00000+EJ0000010520+0000010520+000000000+000001476+0000011996+0000000000+I40000011996+0000000000+Z
107057001107057463-000366     107057006001023789136SWIM W/NOODLE 150cm    0000004000+00002630+00000+0001T   00002630+0000001448          1400 E3D785               1AZ
107058000107058               107058               170213EJ     1400+00000+EJ0000002227+0000002227+000000000+000000312+0000002530+0000000009+I20000000000+0000002530+Z
107058001107058159-000887     107058006001023730817HOOKS PL SUCTION 9PCE  0000001000+00002192+00000+0001T   00002192+0000001451          1400 E3D200               1AZ
107058002107058112-116038     107058006009681820246TCS CARRIER BAG MIDI   0000001000+00000035+00000+0001T   00000035+0000001451          1400 E3D090               1AZ
107059000107059               107059               170213EJ     1400+00000+EJ0000010379+0000010379+000000000+000001456+0000011830+0000000005+I20000000000+0000011830+Z
107059001107059903-000087     107059006001704000161SWT SPECKLED-EGGS 50G  0000001000+00001139+00000+0001T   00001139+0000001455          1400 E3D150               1AZ
107059002107059034-078810     107059006001023856838DIAPER DISPOSE-BAGSx1000000002000+00002630+00000+0001T   00002630+0000001455          1400 E3D215               1AZ
107059003107059051-002400     107059006001023616180TRIGGER-SPRAYER 900ml  0000001000+00002192+00000+0001T   00002192+0000001455          1400 E3D820               1AZ
107059004107059051-002402     107059006001023518347TRIGGER-SPRAYER  500ml 0000001000+00001753+00000+0001T   00001753+0000001455          1400 E3D820               1AZ
107059005107059112-116038     107059006009681820246TCS CARRIER BAG MIDI   0000001000+00000035+00000+0001T   00000035+0000001455          1400 E3D090               1AZ
107060000107060               107060               170213EJ     1400+00000+EJ0000024904+0000024904+000000000+000003489+0000028393+0000000000+I40000028393+0000000000+Z
107060001107060082-011564     107060006001492115641#SUNGLASS POUCH AZTEC  0000001000+00002630+00000+0001T   00002630+0000001457          1400 E3D160               1AZ
107060002107060082-096630     107060006001492966304SUNGLASS LDS METAL FRAM0000001000+00006139+00000+0001T   00006139+0000001457          1400 E3D160               1AZ
107060003107060903-000123     107060006925925909280SWEET GS MINI MALLOWS  0000001000+00000876+00000+0001T   00000876+0000001457          1400 E3D150               1AZ
107060004107060903-000095     107060006001704011495SWT SPECKLED-EGGS 100G 0000001000+00002104+00000+0001T   00002104+0000001457          1400 E3D150               1AZ
107060005107060030-004015     107060006003000467624PLAQUE WDN SIGN 30X20CM0000001000+00009648+00000+0001T   00009648+0000001457          1400 E3D505               1AZ
107060006107060016-006508     107060006003000181537S/JAR GLASS 10X12CM    0000001000+00003507+00000+0001T   00003507+0000001457          1400 E3D300               1AZ
107061000107061               107061               170213EJ     1400+00000+EJ0000001753+0000001753+000000000+000000246+0000001999+0000000000+I40000001999+0000000000+Z
107061001107061077-000308     107061006001023595812GIFT-BAG 33X45CM E/DAY 0000001000+00001753+00000+0001T   00001753+0000001534          1400 E3D112               1AZ
107062000107062               107062               170213EJ     1400+00000+EJ0000006657+0000006657+000000000+000000934+0000007590+0000000001+I20000000000+0000007590+Z
107062001107062304-001011     107062006001023806727FLWR ROSE RED W/BEAR   0000008000+00000613+00000+0001T   00000788+0006471535          1400 E3D510               1AZ
107062002107062903-000918     107062006009802868522SWEET GUM TAPE H/KITTY 0000001000+00001753+00000+0001T   00001753+0000001535          1400 E3D150               1AZ
107063000107063               107063               170213EJ     1400+00000+EJ0000005295+0000005295+000000000+000000743+0000006038+0000000000+I40000006038+0000000000+Z
107063001107063567-075466     107063006001023644572BK NOVEL ROMANCE       0000002000+00002630+00000+0001T   00002630+0000001539          1400 E3D757               1AZ
107063002107063112-116038     107063006009681820246TCS CARRIER BAG MIDI   0000001000+00000035+00000+0001T   00000035+0000001539          1400 E3D090               1AZ
107064000107064               107064               170213EJ     1400+00000+EJ0000001490+0000001490+000000000+000000209+0000001690+0000000009+I20000000000+0000001690+Z
107064001107064032-000309     107064006001023477804MIRROR STANDING PL SML 0000001000+00001490+00000+0001T   00001490+0000001545          1400 E3D510               1AZ
107065000107065               107065               170213EJ     1400+00000+EJ0000002142+0000002142+000000000+000000301+0000002440+0000000003+I20000000000+0000002440+Z
107065001107065079-009700-D   107065006003000545711PAPER SIRIO A4 RED COL.0000007000+00000306+00000+0001T   00000306+0000001550          1400 E3D130               1AZ
107066000107066               107066               170213EJ     1400+00000+EJ0000000035+0000000035+000000000+000000005+0000000040+0000000000+I20000000000+0000000040+Z
107066001107066112-116038     107066006009681820246TCS CARRIER BAG MIDI   0000001000+00000035+00000+0001T   00000035+0000001550          1400 E3D090               1AZ
107067000107067               107067               170213EJ     1400+00000+EJ0000009643+0000009643+000000000+000001352+0000010995+0000000000+I40000010995+0000000000+Z
107067001107067564-000010     107067006003000395477BUBBLE REFILL 1 LITRE  0000001000+00004385+00000+0001T   00004385+0000001556          1400 E3D131               1AZ
107067002107067077-000011-E   107067006001023808646TISSUE-WRAP PINK 10PCE 0000002000+00000876+00000+0001T   00000876+0000001556          1400 E3D112               1AZ
107067003107067077-000011-D   107067006001023808554TISSUE-WRAP WHITE 10PCE0000001000+00000876+00000+0001T   00000876+0000001556          1400 E3D112               1AZ
107067004107067027-001018     107067006003000622702BROOM COVER MICROFIBRE 0000001000+00002630+00000+0001T   00002630+0000001556          1400 E3D212               1AZ
107068000107068               107068               170213EJ     1400+00000+EJ0000006610+0000006610+000000000+000000927+0000007537+0000000000+I40000007537+0000000000+Z
107068001107068080-000127     107068006003000424351VALENTINES DAY 36x24CM 0000001000+00002192+00000+0001T   00002192+0000001558          1400 E3D112               1AZ
107068002107068306-007302     107068006001023730954BACK-SCRATCH+MASSAGE-WH0000001000+00001753+00000+0001T   00001753+0000001558          1400 E3D200               1AZ
107068003107068562-000504     107068006001023619327EDU CUBE RUBIX         0000001000+00002630+00000+0001T   00002630+0000001558          1400 E3D755               1AZ
107068004107068112-116038     107068006009681820246TCS CARRIER BAG MIDI   0000001000+00000035+00000+0001T   00000035+0000001558          1400 E3D090               1AZ
107069000107069               107069               170213EJ     1400+00000+EJ0000002138+0000002138+000000000+000000300+0000002438+0000000000+I40000002438+0000000000+Z
107069001107069071-001012     107069006001023474445MARKERS BLACK ROUND    0000001000+00000876+00000+0001T   00000876+0000001600          1400 E3D130               1AZ
107069002107069007-000206     107069006009635830215X/PAD 80-SHEETS PUNCHED0000001000+00001227+00000+0001T   00001227+0000001600          1400 E3D130               1AZ
107069003107069112-116038     107069006009681820246TCS CARRIER BAG MIDI   0000001000+00000035+00000+0001T   00000035+0000001600          1400 E3D090               1AZ
107070000107070               107070               170213EJ     1400+00000+EJ0000004385+0000004385+000000000+000000614+0000004990+0000000009+I20000000000+0000004990+Z
107070001107070082-000115     107070006003000360604READING GLS STRNGHT:2.50000001000+00004385+00000+0001T   00004385+0000001601          1400 E3D160               1AZ
107071000107071               107071               170213EJ     1400+00000+EJ0000003973+0000003973+000000000+000000559+0000004530+0000000002+I20000000000+0000004530+Z
107071001107071077-000331     107071006001023745255GIFT-BAG 11X14CM E/DAY 0000002000+00000876+00000+0001T   00000876+0000001603          1400 E3D112               1AZ
107071002107071018-000177     107071006001023797513MUG MINI LOVE ASSTD    0000002000+00000700+00000+0001T   00000700+0000001603          1400 E3D515               1AZ
107071003107071903-000183     107071006003000451043SWT LB HEART LOLLY     0000002000+00000393+00000+0001T   00000393+0000001603          1400 E3D150               1AZ
107071004107071112-116038     107071006009681820246TCS CARRIER BAG MIDI   0000001000+00000035+00000+0001T   00000035+0000001603          1400 E3D090               1AZ
107072000107072               107072               170213EJ     1400+00000+EJ0000005297+0000005297+000000000+000000742+0000006030+0000000009+I20000000000+0000006030+Z
107072001107072304-001116     107072006003000426164F/BUNCH ROSES 12-HEAD  0000001000+00005262+00000+0001T   00005262+0000001607          1400 E3D510               1AZ
107072002107072112-116038     107072006009681820246TCS CARRIER BAG MIDI   0000001000+00000035+00000+0001T   00000035+0000001607          1400 E3D090               1AZ
107073000107073               107073               170213EJ     1400+00000+EJ0000003244+0000003244+000000000+000000455+0000003690+0000000009+I20000000000+0000003690+Z
107073001107073046-000400     107073006001023804983BATT ALKALINE 1.5Vx30PC0000001000+00003244+00000+0001T   00003244+0000001613          1400 E3D312               1AZ
107074000107074               107074               170213EJ     1400+00000+EJ0000001402+0000001402+000000000+000000197+0000001590+0000000009+I20000000000+0000001590+Z
107074001107074046-000011     107074004897006172994BATTERIES SIZE:AA  2PCE0000001000+00001402+00000+0001T   00001402+0000001614          1400 E3D312               1AZ
107075000107075               107075               170213EJ     1400+00000+EJ0000001226+0000001226+000000000+000000172+0000001390+0000000008+I20000000000+0000001390+Z
107075001107075304-001011     107075006001023806727FLWR ROSE RED W/BEAR   0000002000+00000613+00000+0001T   00000788+0006471623          1400 E3D510               1AZ
107076000107076               107076               170213EJ     1400+00000+EJ0000022045+0000022045+000000000+000003089+0000025134+0000000000+I40000025134+0000000000+Z
107076001107076039-809558     107076006003000344376CANDLE PILLAR 12CM 4AST0000003000+00006139+00000+0001T   00006139+0000001634          1400 E3D510               1AZ
107076002107076018-000127     107076006001023380289MUG OCC STRAIGHT LOVE  0000001000+00001578+00000+0001T   00001753+0006471634          1400 E3D515               1AZ
107076003107076903-000510     107076006001704012621SWEET MS ZBDZ S/BERRY  0000001000+00001227+00000+0001T   00001227+0000001634          1400 E3D150               1AZ
107076004107076903-000200     107076006009826020234SWT CHOC RP CHOCO 23G  0000001000+00000788+00000+0001T   00000788+0000001634          1400 E3D150               1AZ
107076005107076112-116038     107076006009681820246TCS CARRIER BAG MIDI   0000001000+00000035+00000+0001T   00000035+0000001634          1400 E3D090               1AZ
107077000107077               107077               170213EJ     1400+00000+EJ0000012911+0000012911+000000000+000001815+0000014726+0000000000+I40000014726+0000000000+Z
107077001107077112-116038     107077006009681820246TCS CARRIER BAG MIDI   0000001000+00000035+00000+0001T   00000035+0000001637          1400 E3D090               1AZ
107077002107077903-000200     107077006009826020234SWT CHOC RP CHOCO 23G  0000006000+00000788+00000+0001T   00000788+0000001637          1400 E3D150               1AZ
107077003107077903-000499     107077006001704012492SWT CHOC MALLOWS 50g   0000001000+00001227+00000+0001T   00001227+0000001637          1400 E3D150               1AZ
107077004107077903-000087     107077006001704000161SWT SPECKLED-EGGS 50G  0000003000+00001139+00000+0001T   00001139+0000001637          1400 E3D150               1AZ
107077005107077903-000220     107077006001704007368SWT JELLY BEANS 60G    0000002000+00000876+00000+0001T   00000876+0000001637          1400 E3D150               1AZ
107077006107077089-000192-A   107077006001023901774KEY-CHAIN ACRYLIC      0000002000+00000876+00000+0001T   00000876+0000001637          1400 E3D205               1AZ
107078000107078               107078               170213EJ     1400+00000+EJ0000003013+0000003013+000000000+000000422+0000003435+0000000000+I40000003435+0000000000+Z
107078001107078018-000127     107078006001023380289MUG OCC STRAIGHT LOVE  0000001000+00001578+00000+0001T   00001753+0006471638          1400 E3D515               1AZ
107078002107078018-000177     107078006001023797513MUG MINI LOVE ASSTD    0000002000+00000700+00000+0001T   00000700+0000001638          1400 E3D515               1AZ
107078003107078112-116038     107078006009681820246TCS CARRIER BAG MIDI   0000001000+00000035+00000+0001T   00000035+0000001638          1400 E3D090               1AZ
107079000107079               107079               170213EJ     1400+00000+EJ0000002192+0000002192+000000000+000000307+0000002490+0000000009+I20000000000+0000002490+Z
107079001107079016-006506     107079006003000456048S/JAR GLS COLOUR BUBBLE0000001000+00002192+00000+0001T   00002192+0000001642          1400 E3D300               1AZ
107080000107080               107080               170213EJ     1400+00000+EJ0000005120+0000005120+000000000+000000717+0000005830+0000000007+I20000000000+0000005830+Z
107080001107080018-000130     107080006001023867537MUG OCC LOVE MINI+HEART0000001000+00003507+00000+0001T   00003507+0000001643          1400 E3D515               1AZ
107080002107080077-000303     107080006001023593757GIFT-BAG PAPER MED     0000001000+00001578+00000+0001T   00001578+0000001643          1400 E3D112               1AZ
107080003107080112-116038     107080006009681820246TCS CARRIER BAG MIDI   0000001000+00000035+00000+0001T   00000035+0000001643          1400 E3D090               1AZ
107081000107081               107081               170213EJ     1400+00000+EJ0000002630+0000002630+000000000+000000369+0000002990+0000000009+I20000000000+0000002990+Z
107081001107081368-000100     107081006001023474742PLUSH MD BEAR 12cm     0000001000+00002630+00000+0001T   00002630+0000001646          1400 E3D745               1AZ
107082000107082               107082               170213EJ     1400+00000+EJ0000015524+0000015524+000000000+000002176+0000017700+0000000000+I20000000000+0000017700+Z
107082001107082112-116069     107082006009681820277TCS CARRIER BAG JUMBO  0000001000+00000048+00000+0001T   00000048+0000001652          1400 E3D090               1AZ
107082002107082001-091415     107082006003000329113W/GLS OCC. LOVE 2PC 2800000001000+00008771+00000+0001T   00009648+0006471652          1400 E3D515               1AZ
107082003107082077-000342     107082006003000273942G/BAG PAPER LRG 25X32CM0000001000+00001490+00000+0001T   00001490+0000001652          1400 E3D112               1AZ
107082004107082051-006100     107082006003000267170GARDEN KID TOOLSET 3PCE0000001000+00002630+00000+0001T   00002630+0000001652          1400 E3D820               1AZ
107082005107082080-000127     107082006003000424351VALENTINES DAY 36x24CM 0000001000+00002192+00000+0001T   00002192+0000001652          1400 E3D112               1AZ
107082006107082903-000183     107082006003000451043SWT LB HEART LOLLY     0000001000+00000393+00000+0001T   00000393+0000001652          1400 E3D150               1AZ
107083000107083               107083               170213EJ     1400+00000+EJ0000027832+0000027832+000000000+000003953+0000031785+0000000000+I40000031785+0000000000+Z
107083001107083080-000133     107083006003000535613CARD&ENV MINI ASTD DSGN0000009000+00000437+00000+0001T   00000437+0000001657          1400 E3D112               1AZ
107083002107083080-000133-A   107083006003000647019MINI VALENTINES CARD   0000021000+00000437+00000+0001T   00000437+0000001657          1400 E3D112               1AZ
107083003107083903-000183     107083006003000451043SWT LB HEART LOLLY     0000030000+00000393+00000+0001T   00000393+0000001657          1400 E3D150               1AZ
107083004107083080-000133     107083006003000535613CARD&ENV MINI ASTD DSGN0000001000+00000437+00000+0001T   00000437+0000001657          1400 E3D112               1AZ
107083005107083903-000183     107083006003000451043SWT LB HEART LOLLY     0000001000+00000393+00000+0001T   00000393+0000001657          1400 E3D150               1AZ
107083006107083903-000137     107083006002099004130SWEET GS JELLY BEAN 60G0000001000+00000788+00000+0001T   00000788+0000001657          1400 E3D150               1AZ
107083007107083903-005000     107083006002580020007SWT CT MALLOW FISH 120g0000001000+00001314+00000+0001T   00001314+0000001657          1400 E3D150               1AZ
A17021300                                          09215850EJSLAVE 1                       E3D2IC
A17021301                                          12121535EJSLAVE 1                       D6G1IC
A17021302                                          14532940EJSLAVE 1                       E3D2IC
A17021303                                          15043520EJSLAVE 1                       E3D2IC
C10704600                                          170213EJ007-000288     13330565SLAVE 1     E3D1IC0000000000+0000000000+0020000001000+
M17021391                              CASH        EJSLAVE 1                       Z-REPORT No.   628TOTAL (Sales - Refunds)           4958.67       CASH TO BE BANKED                 1937.30       DEBIT CARDS                          0.00       CREDIT CARDS                      3021.37       Z-READING                         4958.67       AIRTIME DEBIT CARD SALES             0.00       AIRTIME CARD SALES                   0.00       OVERS/UNDERS                         0.00       AIRTIME CASH SALES                   0.00       GIFT CARDS                           0.00       GIFT CARD CASH SALES                 0.00       T O T A L  CASH PAYOUTS              0.00                                                                                                                                                                                                                                                                                                                                                      Z
M17021392                              CASH        EJABSENT                                                                                                                                                                                          ANNUAL LEAVE                                                                                                                                                                                    DAY OFF                                                                                                                                                                                         COMMENTS                                                                                                                                                                                                                                                                                                                                                                                       Z
Y17021300                                          EJ00000000435045+000067
ZEJ17021319333 SLAVE 1      SALES DATA                     NEXT INVOICE NO.  107084 0628
X EJ Slave 1 First invoice 107017 170213 Last invoice 107083 170213 Next invoice 107084 Total number of records 000000251 clbackup completed 19:33:24
