206402000206402               206402               170213EJ     1400+00000+EJ0000011437+0000011437+000000000+000001602+0000013030+0000000009+I20000000000+0000013030+Z
206402001206402075-000206     206402006001023782953PLUSH BAG ANIMAL 30x30 0000001000+00011402+00000+0001T   00011402+0000000912          1400 K5V160               2AZ
206402002206402112-116038     206402006003000534906TCS CARRIER BAG MIDI   0000001000+00000035+00000+0001T   00000035+0000000912          1400 K5V090               2AZ
206403000206403               206403               170213EJ     1400+00000+EJ0000002630+0000002630+000000000+000000369+0000002990+0000000009+I20000000000+0000002990+Z
206403001206403304-000720     206403006001023843050F/BUNCH ROSE 6-HEAD AST0000001000+00002630+00000+0001T   00002630+0000000923          1400 K5V510               2AZ
206404000206404               206404               170213EJ     1400+00000+EJ0000014062+0000014062+000000000+000001971+0000016030+0000000003+I20000000000+0000016030+Z
206404001206404403-000033     206404006003000674053JEWELLERY HOLDER MTL   0000001000+00004385+00000+0001T   00004385+0000001208          1400 K5V510               2AZ
206404002206404089-000004     206404006003000137749KEY CHAIN MTL CHARMS   0000003000+00001753+00000+0001T   00001753+0000001208          1400 K5V205               2AZ
206404003206404903-000844     206404005010478432567SWT CANDY DL LUV HEARTS0000001000+00001314+00000+0001T   00001314+0000001208          1400 K5V150               2AZ
206404004206404089-060027     206404006003000245871KEY-CHAIN HEART 6X6cm  0000001000+00003069+00000+0001T   00003069+0000001208          1400 K5V205               2AZ
206404005206404112-116038     206404006003000534906TCS CARRIER BAG MIDI   0000001000+00000035+00000+0001T   00000035+0000001208          1400 K5V090               2AZ
206405000206405               206405               170213EJ     1400+00000+EJ0000009585+0000009585+000000000+000001343+0000010920+0000000008+I20000000000+0000010920+Z
206405001206405077-000310     206405006001023608635GIFT-BAG 18X23CM GLOSS 0000005000+00001314+00000+0001T   00001314+0000001211          1400 K5V112               2AZ
206405002206405077-000452     206405006003000284986G/BAG METALLIC MED EMB 0000002000+00001490+00000+0001T   00001490+0000001211          1400 K5V112               2AZ
206405003206405112-116038     206405006003000534906TCS CARRIER BAG MIDI   0000001000+00000035+00000+0001T   00000035+0000001211          1400 K5V090               2AZ
206406000206406               206406               170213EJ     1400+00000+EJ0000008806+0000008806+000000000+000001233+0000010030+0000000009+I20000000000+0000010030+Z
206406001206406368-000020     206406006003000672028PLUSH DINOSAUR 37cm    0000001000+00008771+00000+0001T   00008771+0000001225          1400 K5V745               2AZ
206406002206406112-116038     206406006003000534906TCS CARRIER BAG MIDI   0000001000+00000035+00000+0001T   00000035+0000001225          1400 K5V090               2AZ
206407000206407               206407               170213EJ     1400+00000+EJ0000004383+0000004383+000000000+000000615+0000004998+0000000000+I40000004998+0000000000+Z
206407001206407304-000720     206407006001023843050F/BUNCH ROSE 6-HEAD AST0000001000+00002630+00000+0001T   00002630+0000001241          1400 K5V510               2AZ
206407002206407040-000923     206407006001023587831CANDLE-HOLDER GLS 13.5 0000001000+00001753+00000+0001T   00001753+0000001241          1400 K5V510               2AZ
206408000206408               206408               170213EJ     1400+00000+EJ0000017978+0000017978+000000000+000002518+0000020496+0000000000+I40000020496+0000000000+Z
206408001206408105-007805     206408006002923018920STORAGE BOX CLEAR 9.5L 0000001000+00005262+00000+0001T   00005262+0000001245          1400 K5V210               2AZ
206408002206408306-000989     206408006003000559954FIRSTAID PLASTER 30PC  0000001000+00001753+00000+0001T   00001753+0000001245          1400 K5V200               2AZ
206408003206408002-250010     206408006001023621931KITCHEN-SCALE 2kg      0000001000+00008771+00000+0001T   00008771+0000001245          1400 K5V300               2AZ
206408004206408563-000318-L   206408006003000407088SERVIETTES 33cm RED    0000001000+00002192+00000+0001T   00002192+0000001245          1400 K5V214               2AZ
206409000206409               206409               170213EJ     1400+00000+EJ0000003015+0000003015+000000000+000000423+0000003438+0000000000+I40000003438+0000000000+Z
206409001206409007-000160     206409006009685857286NOTE-BOOK A5 SHORTHAND 0000001000+00001227+00000+0001T   00001227+0000001249          1400 K5V130               2AZ
206409002206409007-000724     206409006003000225958NOTE MAGNETIC 60SHTS   0000001000+00001753+00000+0001T   00001753+0000001249          1400 K5V130               2AZ
206409003206409112-116038     206409006003000534906TCS CARRIER BAG MIDI   0000001000+00000035+00000+0001T   00000035+0000001249          1400 K5V090               2AZ
206410000206410               206410               170213EJ     1400+00000+EJ0000007659+0000007659+000000000+000001075+0000008730+0000000004+I20000000000+0000008730+Z
206410001206410304-001011     206410006001023806727FLWR ROSE RED W/BEAR   0000001000+00000613+00000+0001T   00000788+0006471254          1400 K5V510               2AZ
206410002206410252-000013     206410006001023488107CURTN-HOOK R6 ACETYLx500000002000+00000876+00000+0001T   00000876+0000001254          1400 K5V810               2AZ
206410003206410252-000011     206410006001023475190CURTN-GLIDER ACETYL x500000001000+00000876+00000+0001T   00000876+0000001254          1400 K5V810               2AZ
206410004206410047-000507     206410006001023684479PLUG-ADAPTOR EURO TWIN 0000001000+00001753+00000+0001T   00001753+0000001254          1400 K5V880               2AZ
206410005206410039-000100     20641000600300060614625CM WHITE CANDLE 6PC  0000001000+00002630+00000+0001T   00002630+0000001254          1400 K5V510               2AZ
206410006206410112-116038     206410006003000534906TCS CARRIER BAG MIDI   0000001000+00000035+00000+0001T   00000035+0000001254          1400 K5V090               2AZ
206411000206411               206411               170213EJ     1400+00000+EJ0000005698+0000005698+000000000+000000799+0000006490+0000000007+I20000000000+0000006490+Z
206411001206411072-020308     206411006001023700971DOG-TOY FOOTBALL 11,5cm0000001000+00001753+00000+0001T   00001753+0000001258          1400 K5V870               2AZ
206411002206411046-002025-PK2 206411004897006174868BATTERIES CR-2025  2PCE0000001000+00001753+00000+0001T   00001753+0000001258          1400 K5V312               2AZ
206411003206411200-000010     206411006925406841061BAG ZIPPERSEAL 35PC    0000001000+00002192+00000+0001T   00002192+0000001258          1400 K5V214               2AZ
206412000206412               206412               170213EJ     1400+00000+EJ0000011955+0000011955+000000000+000001677+0000013630+0000000002+I20000000000+0000013630+Z
206412001206412028-000400     206412006001023421661PLATE-HOLDERS 4PCE     0000008000+00001490+00000+0001T   00001490+0000001302          1400 K5V305               2AZ
206412002206412112-116038     206412006003000534906TCS CARRIER BAG MIDI   0000001000+00000035+00000+0001T   00000035+0000001302          1400 K5V090               2AZ
206413000206413               206413               170213EJ     1400+00000+EJ0000007838+0000007838+000000000+000001099+0000008937+0000000000+I40000008937+0000000000+Z
206413001206413018-019000     206413006003000557288MUG OCC. LOVE JUMBO    0000001000+00005262+00000+0001T   00005262+0000001307          1400 K5V515               2AZ
206413002206413903-000200     206413006009826020234SWT CHOC RP CHOCO 23G  0000001000+00000788+00000+0001T   00000788+0000001307          1400 K5V150               2AZ
206413003206413002-000015     206413006003000555604CAPPUCCINO STENCILS 12P0000001000+00001753+00000+0001T   00001753+0000001307          1400 K5V300               2AZ
206413004206413112-116038     206413006003000534906TCS CARRIER BAG MIDI   0000001000+00000035+00000+0001T   00000035+0000001307          1400 K5V090               2AZ
206414000206414               206414               170213EJ     1400+00000+EJ0000010521+0000010521+000000000+000001473+0000011994+0000000000+I40000011994+0000000000+Z
206414001206414028-002101     206414006002580009507CHAIR JUNIOR    ASSTD  0000003000+00003507+00000+0001T   00003507+0000001333          1400 D6G305               2AZ
206415000206415               206415               170213EJ     1400+00000+EJ0000011402+0000011402+000000000+000001597+0000012990+0000000009+I20000000000+0000012990+Z
206415001206415586-012461     206415006001492124612WATCH LDS QUILTED WHT  0000001000+00011402+00000+0001T   00011402+0000001335          1400 D6G160               2AZ
206416000206416               206416               170213EJ     1400+00000+EJ0000003275+0000003275+000000000+000000460+0000003735+0000000000+I40000003735+0000000000+Z
206416001206416903-000155     206416006009803374435SWT LOLLY I LUV U HEART0000002000+00000525+00000+0001T   00000525+0000001345          1400 K5V150               2AZ
206416002206416903-000194     206416006009826020616SWT CHOC RP LOLLY 25G  0000001000+00001314+00000+0001T   00001314+0000001345          1400 K5V150               2AZ
206416003206416077-000011-L   206416006001023808585P/TISSUE BRIGHT 10SHEET0000001000+00000876+00000+0001T   00000876+0000001345          1400 K5V112               2AZ
206416004206416112-116038     206416006003000534906TCS CARRIER BAG MIDI   0000001000+00000035+00000+0001T   00000035+0000001345          1400 K5V090               2AZ
206417000206417               206417               170213EJ     1400+00000+EJ0000002663+0000002663+000000000+000000374+0000003030+0000000007+I20000000000+0000003030+Z
206417001206417047-000001-AA  206417006001023723529INS-TAPE WHITE 18mmx10m0000001000+00000613+00000+0001T   00000613+0000001424          1400 K5V880               2AZ
206417002206417033-001402     206417006009654960498HAIR-CURLERS 6PCE LRG  0000001000+00001227+00000+0001T   00001227+0000001424          1400 K5V200               2AZ
206417003206417033-005991     206417006001023678546NEEDLES H/HOLD-REPAIR  0000001000+00000788+00000+0001T   00000788+0000001424          1400 K5V200               2AZ
206417004206417112-116038     206417006003000534906TCS CARRIER BAG MIDI   0000001000+00000035+00000+0001T   00000035+0000001424          1400 K5V090               2AZ
206418000206418               206418               170213EJ     1400+00000+EJ0000018619+0000018619+000000000+000002612+0000021231+0000000000+I40000021231+0000000000+Z
206418001206418018-030000     206418006003000421060MUG OCCASIONS LOVE 2PCE0000001000+00004385+00000+0001T   00004385+0000001510          1400 K5V515               2AZ
206418002206418048-000836     206418006001023765208TORCH RUBBER 3LED MED  0000001000+00004385+00000+0001T   00004385+0000001510          1400 K5V305               2AZ
206418003206418112-116038     206418006003000534906TCS CARRIER BAG MIDI   0000001000+00000035+00000+0001T   00000035+0000001510          1400 K5V090               2AZ
206418004206418085-007038     206418006001024039896P/KNIFE 8cm-BLD PL/GRIP0000001000+00002630+00000+0001T   00002630+0000001510          1400 K5V305               2AZ
206418005206418089-060027     206418006003000245871KEY-CHAIN HEART 6X6cm  0000001000+00003069+00000+0001T   00003069+0000001510          1400 K5V205               2AZ
206418006206418046-000015     206418006001023680839BATTERIES SIZE:D   2PCE0000001000+00002367+00000+0001T   00002367+0000001510          1400 K5V312               2AZ
206418007206418080-000133-A   206418006003000647019MINI VALENTINES CARD   0000004000+00000437+00000+0001T   00000437+0000001510          1400 K5V112               2AZ
206419000206419               206419               170213EJ     1400+00000+EJ0000012800+0000012800+000000000+000001795+0000014590+0000000005+I20000000000+0000014590+Z
206419001206419001-091415     206419006003000329113W/GLS OCC. LOVE 2PC 2800000001000+00008771+00000+0001T   00009648+0006471516          1400 K5V515               2AZ
206419002206419077-000299     206419006003000395576G/BAG 32x25cm LRG LOVE 0000001000+00001490+00000+0001T   00001490+0000001516          1400 K5V112               2AZ
206419003206419006-000118     206419006001023730725BALLOONS 6PC TWISTER   0000001000+00001753+00000+0001T   00001753+0000001516          1400 K5V131               2AZ
206419004206419903-000183     206419006003000451043SWT LB HEART LOLLY     0000002000+00000393+00000+0001T   00000393+0000001516          1400 K5V150               2AZ
206420000206420               206420               170213EJ     1400+00000+EJ0000002630+0000002630+000000000+000000369+0000002990+0000000009+I20000000000+0000002990+Z
206420001206420403-000509     206420006001023699664MONEY-BANK PL. PIGGY   0000001000+00002630+00000+0001T   00002630+0000001517          1400 K5V510               2AZ
206421000206421               206421               170213EJ     1400+00000+EJ0000002629+0000002629+000000000+000000369+0000002998+0000000000+I40000002998+0000000000+Z
206421001206421077-000299-A   206421006003000670888GIFT-BAG PAPER JMB LOVE0000001000+00001753+00000+0001T   00001753+0000001524          1400 K5V112               2AZ
206421002206421071-003000     206421006003000543229PEN BALL PEN 3PCE MULTI0000001000+00000876+00000+0001T   00000876+0000001524          1400 K5V130               2AZ
206422000206422               206422               170213EJ     1400+00000+EJ0000001753+0000001753+000000000+000000246+0000001990+0000000009+I20000000000+0000001990+Z
206422001206422566-000009     206422006003000180943STICKER-BOOK HOLOGRAM  0000001000+00001753+00000+0001T   00001753+0000001707          1400 K5V130               2AZ
206423000206423               206423               170213EJ     1400+00000+EJ0000002630+0000002630+000000000+000000369+0000002990+0000000009+I20000000000+0000002990+Z
206423001206423027-785010     206423006003000628995CLEANING WIPES 40-PACK 0000001000+00002630+00000+0001T   00002630+0000001715          1400 K5V212               2AZ
206424000206424               206424               170213EJ     1400+00000+EJ0000009495+0000009495+000000000+000001335+0000010830+0000000000+I40000010830+0000000000+Z
206424001206424112-116038     206424006003000534906TCS CARRIER BAG MIDI   0000001000+00000035+00000+0001T   00000035+0000001727          1400 K5V090               2AZ
206424002206424006-006018     206424006001023735256PARTY-SPRAY HAIR ASSORT0000001000+00002630+00000+0001T   00002630+0000001727          1400 K5V131               2AZ
206424003206424006-006018-B   206424006003000008278PARTY-SPRAY HAIR NEON  0000001000+00002630+00000+0001T   00002630+0000001727          1400 K5V131               2AZ
206424004206424903-000155     206424006009803374435SWT LOLLY I LUV U HEART0000008000+00000525+00000+0001T   00000525+0000001727          1400 K5V150               2AZ
206425000206425               206425               170213EJ     1400+00000+EJ0000004418+0000004418+000000000+000000619+0000005037+0000000000+I40000005037+0000000000+Z
206425001206425030-000030-A   206425006003000249305PLAQUE GLASS LOVE      0000001000+00003069+00000+0001T   00003069+0000001733          1400 K5V505               2AZ
206425002206425018-000119     206425006003000336074MUG DAILY STRAIGHT     0000001000+00001314+00000+0001T   00001753+0008171733          1400 K5V515               2AZ
206425003206425112-116038     206425006003000534906TCS CARRIER BAG MIDI   0000001000+00000035+00000+0001T   00000035+0000001733          1400 K5V090               2AZ
A17021300                                          09224127EJSLAVE 2                       K5V2IC
A17021301                                          10184543EJSLAVE 2                       D6G1IC
A17021302                                          14525077EJSLAVE 2                       K5V3IC
A17021303                                          17165508EJSLAVE 2                       K5V2IC
C20641500                                          170213EJ586-012461     13343632SLAVE 2     D6G1IC0000000000+0000000000+0010000001000+
M17021391                              CASH        EJSLAVE 2                       Z-REPORT No.   586TOTAL (Sales - Refunds)           2141.24       CASH TO BE BANKED                 1204.30       DEBIT CARDS                          0.00       CREDIT CARDS                       936.94       Z-READING                         2141.24       AIRTIME DEBIT CARD SALES             0.00       AIRTIME CARD SALES                   0.00       OVERS/UNDERS                         0.00       AIRTIME CASH SALES                   0.00       GIFT CARDS                           0.00       GIFT CARD CASH SALES                 0.00       T O T A L  CASH PAYOUTS              0.00                                                                                                                                                                                                                                                                                                                                                      Z
M17021392                              CASH        EJABSENT                                                                                                                                                                                          ANNUAL LEAVE                                                                                                                                                                                    DAY OFF                                                                                                                                                                                         COMMENTS                                                                                                                                                                                                                                                                                                                                                                                       Z
Y17021300                                          EJ00000000187881+000024
ZEJ17021319333 SLAVE 2      SALES DATA                     NEXT INVOICE NO.  206426 0586
X EJ Slave 2 First invoice 206402 170213 Last invoice 206425 170213 Next invoice 206426 Total number of records 000000103 clbackup completed 19:33:27
