305292000305292               305292               170213EK     1400+00000+EK0000005520+0000005520+000000000+000000775+0000006295+0000000000+I40000006295+0000000000+Z
305292001305292039-000319-1   305292006003000442386B/CANDLES LRG NUMBER-1 0000001000+00000876+00000+0001T   00000876+0000000949          1400 CF8510               1AZ
305292002305292039-000319-3   305292006003000442621B/CANDLES LRG NUMBER-3 0000001000+00000876+00000+0001T   00000876+0000000949          1400 CF8510               1AZ
305292003305292039-000322     305292006001023524157B/CANDLES W/HOLDERS 24 0000001000+00001139+00000+0001T   00001139+0000000949          1400 CF8510               1AZ
305292004305292018-000170     305292006001023775528MUG OCC. LOVE 2PC MINI 0000001000+00002192+00000+0001T   00002192+0000000949          1400 CF8515               1AZ
305292005305292080-000133-A   305292006003000647019MINI VALENTINES CARD   0000001000+00000437+00000+0001T   00000437+0000000949          1400 CF8112               1AZ
305293000305293               305293               170213EK     1400+00000+EK0000006174+0000006174+000000000+000000865+0000007030+0000000009+I20000000000+0000007030+Z
305293001305293018-005007     305293006003000515516MUG OCC. LOVE W/HEARTS 0000001000+00006139+00000+0001T   00006139+0000000956          1400 CF8515               1AZ
305293002305293112-116038     305293006009681820246TCS CARRIER BAG MIDI   0000001000+00000035+00000+0001T   00000035+0000000956          1400 CF8090               1AZ
305294000305294               305294               170213EK     1400+00000+EK0000000700+0000000700+000000000+000000098+0000000790+0000000008+I20000000000+0000000790+Z
305294001305294007-000128     305294006009635830475BOOK H/COVER A5 96-PAGE0000001000+00000700+00000+0001T   00000700+0000001008          1400 CF8130               1AZ
305295000305295               305295               170213EK     1400+00000+EK0000061402+0000061402+000000000+000008597+0000069990+0000000009+I20000000000+0000069990+Z
305295001305295496-056475     305295000078257564750INTEX POOL: 229x229x66 0000001000+00061402+00000+0001T   00061402+0000001009          1400 CF8787               1AZ
305296000305296               305296               170213EK     1400+00000+EK0000013416+0000013416+000000000+000001879+0000015295+0000000000+I40000015295+0000000000+Z
305296001305296104-000051     305296006003000615193BASKET PL 36x24x13cm   0000001000+00003507+00000+0001T   00003507+0000001014          1400 CF8210               1AZ
305296002305296105-008005     305296006002580009484STORAGE CONTAINER 7.5L 0000001000+00004385+00000+0001T   00004385+0000001014          1400 CF8210               1AZ
305296003305296140-006004     305296006001023628077FLY-SWATTER RUBBER     0000001000+00001139+00000+0001T   00001139+0000001014          1400 CF8830               1AZ
305296004305296047-002035-H   305296006001023586087P/ADAPTOR 3-WAY-2PIN   0000001000+00004385+00000+0001T   00004385+0000001014          1400 CF8880               1AZ
305297000305297               305297               170213EK     1400+00000+EK0000014066+0000014066+000000000+000001970+0000016030+0000000006+I20000000000+0000016030+Z
305297001305297162-093280     305297006001492932804#TAG ER CRYSTAL DROP   0000001000+00001753+00000+0001T   00003507+0008161039          1400 CF8160               1AZ
305297002305297162-093279     305297006001492932798#TAG 2PK DROP SET      0000001000+00003507+00000+0001T   00003507+0000001039          1400 CF8160               1AZ
305297003305297031-000924     305297006001023669964P/FRAME COLLAGE PL     0000001000+00008771+00000+0001T   00008771+0000001039          1400 CF8510               1AZ
305297004305297112-116038     305297006009681820246TCS CARRIER BAG MIDI   0000001000+00000035+00000+0001T   00000035+0000001039          1400 CF8090               1AZ
305298000305298               305298               170213EK     1400+00000+EK0000013157+0000013157+000000000+000001842+0000014999+0000000000+I40000014999+0000000000+Z
305298001305298031-001012     305298006003000675104P/FRAME WDN COLLAGE    0000001000+00013157+00000+0001T   00013157+0000001042          1400 AN6510               1AZ
305299000305299               305299               170213EK     1400+00000+EK0000017542+0000017542+000000000+000002456+0000019998+0000000000+I40000019998+0000000000+Z
305299001305299463-000501     305299006003000574551SLIP & SLIDE 4.88mx71cm0000001000+00017542+00000+0001T   00017542+0000001044          1400 CF8785               1AZ
305300000305300               305300               170213EK     1400+00000+EK0000008852+0000008852+000000000+000001242+0000010094+0000000000+I40000010094+0000000000+Z
305300001305300079-009702-D   305300008427973059354PAPER SIRIO A2 RED COL 0000001000+00001051+00000+0001T   00001051+0000001046          1400 CF8130               1AZ
305300002305300903-000510     305300006001704012621SWEET MS ZBDZ S/BERRY  0000001000+00001227+00000+0001T   00001227+0000001046          1400 CF8150               1AZ
305300003305300079-006522     305300006001023149442ART+CRAFT GLUE ASSORTED0000001000+00001753+00000+0001T   00001753+0000001046          1400 CF8130               1AZ
305300004305300566-000359     305300006003000582709STICKER BOOK LOVE SPARK0000001000+00002192+00000+0001T   00002192+0000001046          1400 CF8130               1AZ
305300005305300024-000214     305300006001023587855COOKIE-CUTTERS PL 6PC  0000001000+00001753+00000+0001T   00001753+0000001046          1400 CF8300               1AZ
305300006305300028-000797     305300006001023812124SKEWERS 15cm 100PCE    0000001000+00000876+00000+0001T   00000876+0000001046          1400 CF8305               1AZ
305301000305301               305301               170213EK     1400+00000+EK0000003506+0000003506+000000000+000000492+0000003998+0000000000+I40000003998+0000000000+Z
305301001305301071-008229     305301006003000216017PENCIL-BAG ASTD COL A5 0000002000+00001753+00000+0001T   00001753+0000001102          1400 CF8130               1AZ
305302000305302               305302               170213EK     1400+00000+EK0000004384+0000004384+000000000+000000614+0000004998+0000000000+I40000004998+0000000000+Z
305302001305302566-000359     305302006003000582709STICKER BOOK LOVE SPARK0000002000+00002192+00000+0001T   00002192+0000001103          1400 CF8130               1AZ
305303000305303               305303               170213EK     1400+00000+EK0000004646+0000004646+000000000+000000652+0000005290+0000000008+I20000000000+0000005290+Z
305303001305303036-000063     305303006009654960436COATHANGERS VIRGIN 5PCE0000001000+00001753+00000+0001T   00001753+0000001135          1400 CF8212               1AZ
305303002305303036-000151     305303006001023810588COATHANGERS    PACK-10 0000001000+00002893+00000+0001T   00002893+0000001135          1400 CF8212               1AZ
305304000305304               305304               170213EK     1400+00000+EK0000001753+0000001753+000000000+000000246+0000001990+0000000009+I20000000000+0000001990+Z
305304001305304304-001140     305304006003000679010FLOWER MINI MOSS 40G   0000001000+00001753+00000+0001T   00001753+0000001137          1400 CF8510               1AZ
305305000305305               305305               170213EK     1400+00000+EK0000002630+0000002630+000000000+000000369+0000002990+0000000009+I20000000000+0000002990+Z
305305001305305077-000270     305305006003000395453GIFT-BAG PPR JMB 33X45 0000001000+00002630+00000+0001T   00002630+0000001204          1400 CF8112               1AZ
305306000305306               305306               170213EK     1400+00000+EK0000005555+0000005555+000000000+000000779+0000006334+0000000000+I40000006334+0000000000+Z
305306001305306266-000503     305306006001023791740TRANSFORMER WARRIOR 8cm0000001000+00001753+00000+0001T   00001753+0000001206          1400 CF8710               1AZ
305306002305306046-000012     305306006904708013062BATTERIES AA  CARD-OF-40000002000+00001314+00000+0001T   00001314+0000001206          1400 CF8312               1AZ
305306003305306046-000014     305306006001023725387BATTERIES SIZE:AAA 4PCE0000001000+00001139+00000+0001T   00001139+0000001206          1400 CF8312               1AZ
305306004305306112-116038     305306006009681820246TCS CARRIER BAG MIDI   0000001000+00000035+00000+0001T   00000035+0000001206          1400 CF8090               1AZ
305307000305307               305307               170213EK     1400+00000+EK0000001753+0000001753+000000000+000000246+0000001990+0000000009+I20000000000+0000001990+Z
305307001305307077-000240     305307006003000326259G/RIBBON 4PC PEARLIZED 0000001000+00001753+00000+0001T   00001753+0000001207          1400 CF8112               1AZ
305308000305308               305308               170213EK     1400+00000+EK0000003592+0000003592+000000000+000000504+0000004090+0000000006+I20000000000+0000004090+Z
305308001305308566-000451     305308006001023788443STICKERS GLITTER ASSTD 0000001000+00001314+00000+0001T   00001753+0008151208          1400 CF8130               1AZ
305308002305308903-000137     305308006002099004130SWEET GS JELLY BEAN 60G0000001000+00000788+00000+0001T   00000788+0000001208          1400 CF8150               1AZ
305308003305308016-006505     305308006001023617576S/JAR GLS MINI CLIP    0000001000+00001490+00000+0001T   00001490+0000001208          1400 CF8300               1AZ
305309000305309               305309               170213EK     1400+00000+EK0000008771+0000008771+000000000+000001228+0000009990+0000000009+I20000000000+0000009990+Z
305309001305309039-000799     305309006001023692382CANDLES TEALITE 100PCE 0000001000+00008771+00000+0001T   00008771+0000001213          1400 CF8510               1AZ
305310000305310               305310               170213EK     1400+00000+EK0000076793+0000076793+000000000+000010753+0000087546+0000000000+I40000087546+0000000000+Z
305310001305310112-116053     305310006006438002399TCS CARRIER BAG 38L    0000001000+00000069+00000+0001T   00000069+0000001223          1400 CF8090               1AZ
305310002305310567-011307     305310006003000598557BOOK ACTIVITY FUN WATER0000003000+00003069+00000+0001T   00003069+0000001223          1400 CF87572IC            1AZ
305310003305310567-011305     305310009781928231240BOOK RELIGIOUS AFR     0000001000+00017542+00000+0001T   00017542+0000001223          1400 CF8757               1AZ
305310004305310567-010565     305310006003000572472BOOK AFRIKAANS CAT 2   0000007000+00003507+00000+0001T   00003507+0000001223          1400 CF8757               1AZ
305310005305310567-013439     305310009781775785798EK KAN LEES ASSTD      0000001000+00003507+00000+0001T   00003507+0000001223          1400 CF8757               1AZ
305310006305310567-013439     305310009781775785590EK KAN LEES ASSTD      0000001000+00003507+00000+0001T   00003507+0000001223          1400 CF8757               1AZ
305310007305310567-013439     305310009781775785750EK KAN LEES ASSTD      0000001000+00003507+00000+0001T   00003507+0000001223          1400 CF8757               1AZ
305310008305310567-013439     305310009781775785781EK KAN LEES ASSTD      0000001000+00003507+00000+0001T   00003507+0000001223          1400 CF8757               1AZ
305310009305310567-013439     305310009781775785590EK KAN LEES ASSTD      0000001000+00003507+00000+0001T   00003507+0000001223          1400 CF8757               1AZ
305310010305310567-013439     305310009781775785767EK KAN LEES ASSTD      0000001000+00003507+00000+0001T   00003507+0000001223          1400 CF8757               1AZ
305310011305310567-010392     305310006002242053435GENERIC AFRIKAANS READE0000002000+00002192+00000+0001T   00002192+0000001223          1400 CF8757               1AZ
305311000305311               305311               170213EK     1400+00000+EK0000003507+0000003507+000000000+000000491+0000003990+0000000008+I20000000000+0000003990+Z
305311001305311567-011313     305311009780799358827DIERESTORIES AFR ASSTD 0000001000+00003507+00000+0001T   00003507+0000001227          1400 CF8757               1AZ
305312000305312               305312               170213EK     1400+00000+EK0000003507+0000003507+000000000+000000491+0000003990+0000000008+I20000000000+0000003990+Z
305312001305312077-000932     305312006003000409808G/WRAP 700mmx5m PATTERN0000001000+00003507+00000+0001T   00003507+0000001240          1400 CF8112               1AZ
305313000305313               305313               170213EK     1400+00000+EK0000001314+0000001314+000000000+000000184+0000001490+0000000008+I20000000000+0000001490+Z
305313001305313007-000209     305313006001023582102NOTE STICKY FILE MARKER0000001000+00001314+00000+0001T   00001314+0000001241          1400 CF8130               1AZ
305314000305314               305314               170213EK     1400+00000+EK0000001753+0000001753+000000000+000000246+0000001990+0000000009+I20000000000+0000001990+Z
305314001305314024-000214     305314006001023587855COOKIE-CUTTERS PL 6PC  0000001000+00001753+00000+0001T   00001753+0000001250          1400 CF8300               1AZ
305315000305315               305315               170213EK     1400+00000+EK0000009412+0000009412+000000000+000001319+0000010731+0000000000+I40000010731+0000000000+Z
305315001305315368-000049     305315006003000536955PLUSH BEAR 15cm LOVE   0000001000+00004385+00000+0001T   00004385+0000001253          1400 CF8745               1AZ
305315002305315077-000312     305315006001023608697GIFT-BAG 10X35CM GLOSS 0000001000+00001314+00000+0001T   00001314+0000001253          1400 CF8112               1AZ
305315003305315077-000321     305315006001023677501GIFT-BAG 11X14CM E/D FL0000004000+00000613+00000+0001T   00000613+0000001253          1400 CF8112               1AZ
305315004305315112-116038     305315006009681820246TCS CARRIER BAG MIDI   0000001000+00000035+00000+0001T   00000035+0000001253          1400 CF8090               1AZ
305315005305315077-000321     305315006001023677501GIFT-BAG 11X14CM E/D FL0000002000+00000613+00000+0001T   00000613+0000001253          1400 CF8112               1AZ
305316000305316               305316               170213EK     1400+00000+EK0000002630+0000002630+000000000+000000369+0000002990+0000000009+I20000000000+0000002990+Z
305316001305316027-000092     305316006003000365739BLIND CLEANER MICROFIBR0000001000+00002630+00000+0001T   00002630+0000001255          1400 CF8212               1AZ
305317000305317               305317               170213EK     1400+00000+EK0000003069+0000003069+000000000+000000430+0000003499+0000000000+I40000003499+0000000000+Z
305317001305317301-085008     305317006003000673933ORN OCC.LOVE TINSEL HRT0000001000+00003069+00000+0001T   00003069+0000001408          1400 CF8505               1AZ
305318000305318               305318               170213EK     1400+00000+EK0000000525+0000000525+000000000+000000074+0000000590+0000000009+I20000000000+0000000590+Z
305318001305318071-000874     305318006003000010110RUB-BANDS PLN BAG-30   0000001000+00000525+00000+0001T   00000525+0000001412          1400 CF8130               1AZ
305319000305319               305319               170213EK     1400+00000+EK0000006137+0000006137+000000000+000000860+0000006990+0000000007+I20000000000+0000006990+Z
305319001305319368-000049     305319006003000536955PLUSH BEAR 15cm LOVE   0000001000+00004385+00000+0001T   00004385+0000001423          1400 CF8745               1AZ
305319002305319077-000314     305319006003000181148GIFT-BAG 11X14CM MATT  0000002000+00000876+00000+0001T   00000876+0000001423          1400 CF8112               1AZ
305320000305320               305320               170213EK     1400+00000+EK0000003507+0000003507+000000000+000000491+0000003990+0000000008+I20000000000+0000003990+Z
305320001305320031-005923     305320006003000040322P/FRAME CERT PL 21x29.70000001000+00003507+00000+0001T   00003507+0000001424          1400 CF8510               1AZ
305321000305321               305321               170213EK     1400+00000+EK0000007892+0000007892+000000000+000001106+0000008998+0000000000+I40000008998+0000000000+Z
305321001305321017-000221     305321006003000238019P/ALBUM ADHESIVE 20PG  0000001000+00006139+00000+0001T   00006139+0000001428          1400 CF8510               1AZ
305321002305321566-000036     305321006003000384051STICKERS MOTIVATION    0000001000+00001753+00000+0001T   00001753+0000001428          1400 CF8130               1AZ
305322000305322               305322               170213EK     1400+00000+EK0000003942+0000003942+000000000+000000552+0000004490+0000000004+I20000000000+0000004490+Z
305322001305322903-000194     305322006009826020616SWT CHOC RP LOLLY 25G  0000003000+00001314+00000+0001T   00001314+0000001429          1400 CF8150               1AZ
305323000305323               305323               170213EK     1400+00000+EK0000005696+0000005696+000000000+000000800+0000006490+0000000006+I20000000000+0000006490+Z
305323001305323080-000108     305323006003000237210CARD&ENVLPE BDAY-BOY   0000001000+00001753+00000+0001T   00001753+0000001442          1400 CF8112               1AZ
305323002305323564-000015     305323006003000140862BUBBLE TEST TUBE       0000001000+00001753+00000+0001T   00001753+0000001442          1400 CF8131               1AZ
305323003305323077-000309     305323006001023608604GIFT-BAG 25X32CM GLOSS 0000001000+00001753+00000+0001T   00001753+0000001442          1400 CF8112               1AZ
305323004305323080-000133-A   305323006003000647019MINI VALENTINES CARD   0000001000+00000437+00000+0001T   00000437+0000001442          1400 CF8112               1AZ
305324000305324               305324               170213EK     1400+00000+EK0000005260+0000005260+000000000+000000738+0000005990+0000000008+I20000000000+0000005990+Z
305324001305324077-000270     305324006003000395453GIFT-BAG PPR JMB 33X45 0000001000+00002630+00000+0001T   00002630+0000001446          1400 CF8112               1AZ
305324002305324077-000251     305324006003000639106GIFT-DECOR RIBBON      0000001000+00002630+00000+0001T   00002630+0000001446          1400 CF8112               1AZ
305325000305325               305325               170213EK     1400+00000+EK0000007014+0000007014+000000000+000000982+0000007996+0000000000+I40000007996+0000000000+Z
305325001305325031-005853     305325006003000442416P/FRAME WDN TWIN HEARTS0000001000+00003507+00000+0001T   00003507+0000001448          1400 CF8510               1AZ
305325002305325018-000136     305325006001023659026MUG OCC LOVE W/PLUSH   0000001000+00003507+00000+0001T   00003507+0000001448          1400 CF8515               1AZ
305326000305326               305326               170213EK     1400+00000+EK0000010113+0000010113+000000000+000001419+0000011530+0000000002+I20000000000+0000011530+Z
305326001305326112-116038     305326006009681820246TCS CARRIER BAG MIDI   0000001000+00000035+00000+0001T   00000035+0000001456          1400 CF8090               1AZ
305326002305326031-000873-A   305326006003000675425P/FRAME WDN WHITE 10X150000001000+00002630+00000+0001T   00002630+0000001456          1400 CF8510               1AZ
305326003305326039-000108     305326006001023524034TEA-LITE CANDLES 8PCE  0000002000+00001490+00000+0001T   00001490+0000001456          1400 CF8510               1AZ
305326004305326903-004950     305326006002580020304SWT APRICOT SURPRISE   0000001000+00001314+00000+0001T   00001314+0000001456          1400 CF8150               1AZ
305326005305326903-000006     305326006923431571571SWEET GS SOUR BELT 50g 0000001000+00000876+00000+0001T   00000876+0000001456          1400 CF8150               1AZ
305326006305326903-000009     305326000028000242268SWEET LAFFY TAFFY GRAPE0000001000+00001139+00000+0001T   00001139+0000001456          1400 CF8150               1AZ
305326007305326903-000008     305326000002800082262SWT LAFFY TAFFY CHERRY 0000001000+00001139+00000+0001T   00001139+0000001456          1400 CF8150               1AZ
305327000305327               305327               170213EK     1400+00000+EK0000004433+0000004433+000000000+000000621+0000005050+0000000004+I20000000000+0000005050+Z
305327001305327051-600671     305327006001023552730GARDEN-FENCE PL-CTD 5PC0000001000+00004385+00000+0001T   00004385+0000001457          1400 CF8820               1AZ
305327002305327112-116069     305327006009681820277TCS CARRIER BAG JUMBO  0000001000+00000048+00000+0001T   00000048+0000001457          1400 CF8090               1AZ
305328000305328               305328               170213EK     1400+00000+EK0000002630+0000002630+000000000+000000369+0000002990+0000000009+I20000000000+0000002990+Z
305328001305328133-000034     305328006001023559586OVEN GLOVE & POTHOLDER 0000001000+00002630+00000+0001T   00002630+0000001504          1400 AN6212               1AZ
305329000305329               305329               170213EK     1400+00000+EK0000001402-0000001402-000000000+000000197-0000001600-0000000001+I20000000000+0000001600-Z
305329001305329007-000610     305329006009685851017DIARY HOMEWORK UNDATED 0000001000-00001402+00000+0001T   00001402+0000001506          1400 CF81301IC            1 Z
305330000305330               305330               170213EK     1400+00000+EK0000007940+0000007940+000000000+000001112+0000009050+0000000002+I20000000000+0000009050+Z
305330001305330112-116069     305330006009681820277TCS CARRIER BAG JUMBO  0000001000+00000048+00000+0001T   00000048+0000001510          1400 CF8090               1AZ
305330002305330266-005278     305330006001023829801COMBAT FIGURINE 29cm   0000001000+00004385+00000+0001T   00004385+0000001510          1400 CF8710               1AZ
305330003305330261-003818     305330006001023839206GUN RIFLE PL CARNIVAL  0000001000+00003507+00000+0001T   00003507+0000001510          1400 CF8710               1AZ
305331000305331               305331               170213EK     1400+00000+EK0000008276+0000008276+000000000+000001159+0000009430+0000000005+I20000000000+0000009430+Z
305331001305331018-000136     305331006001023659026MUG OCC LOVE W/PLUSH   0000001000+00003507+00000+0001T   00003507+0000001530          1400 CF8515               1AZ
305331002305331018-000127     305331006001023380289MUG OCC STRAIGHT LOVE  0000003000+00001578+00000+0001T   00001753+0006471530          1400 CF8515               1AZ
305331003305331112-116038     305331006009681820246TCS CARRIER BAG MIDI   0000001000+00000035+00000+0001T   00000035+0000001530          1400 CF8090               1AZ
305332000305332               305332               170213EK     1400+00000+EK0000001050+0000001050+000000000+000000148+0000001190+0000000008+I20000000000+0000001190+Z
305332001305332007-000120     305332006009698062714BOOK DRAWING A4 24-PAGE0000002000+00000525+00000+0001T   00000525+0000001533          1400 CF8130               1AZ
305333000305333               305333               170213EK     1400+00000+EK0000007835+0000007835+000000000+000001100+0000008930+0000000005+I20000000000+0000008930+Z
305333001305333112-116038     305333006009681820246TCS CARRIER BAG MIDI   0000001000+00000035+00000+0001T   00000035+0000001542          1400 CF8090               1AZ
305333002305333206-000360     305333006003000631193CITRUS SPRAYER 3PC     0000001000+00001753+00000+0001T   00001753+0000001542          1400 CF8321               1AZ
305333003305333078-000025     305333008887013700064SUPERGLUE 3g 1PCE CARD 0000001000+00000876+00000+0001T   00000876+0000001542          1400 CF8810               1AZ
305333004305333034-078810     305333006001023856838DIAPER DISPOSE-BAGSx1000000001000+00002630+00000+0001T   00002630+0000001542          1400 CF8215               1AZ
305333005305333206-000135     305333006003000680450T/BAG HLDR SILICONE    0000001000+00001753+00000+0001T   00001753+0000001542          1400 CF8321               1AZ
305333006305333033-001305     305333006003000667314HAIR PINS 4PC SNAP CLIP0000001000+00000788+00000+0001T   00000788+0000001542          1400 CF8200               1AZ
305334000305334               305334               170213EK     1400+00000+EK0000005297+0000005297+000000000+000000742+0000006039+0000000000+I40000006039+0000000000+Z
305334001305334018-019000     305334006003000557288MUG OCC. LOVE JUMBO    0000001000+00005262+00000+0001T   00005262+0000001550          1400 CF8515               1AZ
305334002305334112-116038     305334006009681820246TCS CARRIER BAG MIDI   0000001000+00000035+00000+0001T   00000035+0000001550          1400 CF8090               1AZ
305335000305335               305335               170213EK     1400+00000+EK0000001490+0000001490+000000000+000000209+0000001690+0000000009+I20000000000+0000001690+Z
305335001305335079-130100     305335006003000542635A&C DIY COLOUR EYES 24P0000001000+00001490+00000+0001T   00001490+0000001554          1400 CF8130               1AZ
305336000305336               305336               170213EK     1400+00000+EK0000008769+0000008769+000000000+000001229+0000009990+0000000008+I20000000000+0000009990+Z
305336001305336018-020000     305336006003000420940MUG OCCASIONS MOM 2PCE 0000001000+00006139+00000+0001T   00006139+0000001555          1400 CF8515               1AZ
305336002305336204-000007     305336006003000427062M/HOLDER MAGN POLY LOVE0000001000+00002630+00000+0001T   00003507+0008131555          1400 CF8300               1AZ
305337000305337               305337               170213EK     1400+00000+EK0000004338+0000004338+000000000+000000608+0000004940+0000000006+I20000000000+0000004940+Z
305337001305337018-000136     305337006001023659026MUG OCC LOVE W/PLUSH   0000001000+00003507+00000+0001T   00003507+0000001602          1400 CF8515               1AZ
305337002305337006-000173-B   305337006003000636358BALLOONS HELIUM 1PC WHT0000001000+00000218+00000+0001T   00000218+0000001602          1400 CF8131               1AZ
305337003305337006-001000     305337006003000093779HELIUM BALLOON FILL    0000001000+00000613+00000+0001T   00000613+0000001602          1400 CF8131               1AZ
305338000305338               305338               170213EK     1400+00000+EK0000000437+0000000437+000000000+000000062+0000000490+0000000009+I20000000000+0000000490+Z
305338001305338080-000133-A   305338006003000647019MINI VALENTINES CARD   0000001000+00000437+00000+0001T   00000437+0000001603          1400 CF8112               1AZ
305339000305339               305339               170213EK     1400+00000+EK0000006139+0000006139+000000000+000000860+0000006990+0000000009+I20000000000+0000006990+Z
305339001305339018-050000     305339006003000412679MUG OCC LOVE TWIN BEAR 0000001000+00006139+00000+0001T   00006139+0000001603          1400 CF8515               1AZ
305340000305340               305340               170213EK     1400+00000+EK0000000035+0000000035+000000000+000000005+0000000040+0000000000+I20000000000+0000000040+Z
305340001305340112-116038     305340006009681820246TCS CARRIER BAG MIDI   0000001000+00000035+00000+0001T   00000035+0000001604          1400 CF8090               1AZ
305341000305341               305341               170213EK     1400+00000+EK0000001578+0000001578+000000000+000000221+0000001790+0000000009+I20000000000+0000001790+Z
305341001305341018-000127     305341006001023380289MUG OCC STRAIGHT LOVE  0000001000+00001578+00000+0001T   00001753+0006471605          1400 CF8515               1AZ
305342000305342               305342               170213EK     1400+00000+EK0000006611+0000006611+000000000+000000926+0000007530+0000000007+I20000000000+0000007530+Z
305342001305342301-085000     305342006003000674299 ORN OCC. LOVE HEARTS  0000002000+00002192+00000+0001T   00002192+0000001608          1400 CF8505               1AZ
305342002305342566-000359     305342006003000582709STICKER BOOK LOVE SPARK0000001000+00002192+00000+0001T   00002192+0000001608          1400 CF8130               1AZ
305342003305342112-116038     305342006009681820246TCS CARRIER BAG MIDI   0000001000+00000035+00000+0001T   00000035+0000001608          1400 CF8090               1AZ
305343000305343               305343               170213EK     1400+00000+EK0000001314+0000001314+000000000+000000184+0000001490+0000000008+I20000000000+0000001490+Z
305343001305343563-000317-B   305343006001023776174SERVIETTES PLN WHT PK400000001000+00001314+00000+0001T   00001314+0000001609          1400 CF8214               1AZ
305344000305344               305344               170213EK     1400+00000+EK0000007927+0000007927+000000000+000001110+0000009037+0000000000+I40000009037+0000000000+Z
305344001305344018-000136     305344006001023659026MUG OCC LOVE W/PLUSH   0000001000+00003507+00000+0001T   00003507+0000001611          1400 CF8515               1AZ
305344002305344031-080508     305344006001023802415P/FRAME PL 22X11CM LOVE0000001000+00004385+00000+0001T   00004385+0000001611          1400 CF8510               1AZ
305344003305344112-116038     305344006009681820246TCS CARRIER BAG MIDI   0000001000+00000035+00000+0001T   00000035+0000001611          1400 CF8090               1AZ
305345000305345               305345               170213EK     1400+00000+EK0000001753+0000001753+000000000+000000246+0000001990+0000000009+I20000000000+0000001990+Z
305345001305345024-091100     305345006001023914224BAKING-CUPS PAPER 100PC0000001000+00001753+00000+0001T   00001753+0000001613          1400 CF8300               1AZ
305346000305346               305346               170213EK     1400+00000+EK0000018887+0000018887+000000000+000002646+0000021533+0000000000+I40000021533+0000000000+Z
305346001305346112-116038     305346006009681820246TCS CARRIER BAG MIDI   0000001000+00000035+00000+0001T   00000035+0000001620          1400 CF8090               1AZ
305346002305346368-000175     305346006003000270316PLUSH BEAR 4 ASSTD 18CM0000001000+00006139+00000+0001T   00006139+0000001620          1400 CF8745               1AZ
305346003305346018-000136     305346006001023659026MUG OCC LOVE W/PLUSH   0000001000+00003507+00000+0001T   00003507+0000001620          1400 CF8515               1AZ
305346004305346301-085003     305346006003000420827ORN OCCASION LOVE KEY  0000001000+00005262+00000+0001T   00005262+0000001620          1400 CF8505               1AZ
305346005305346080-000133-A   305346006003000647019MINI VALENTINES CARD   0000001000+00000437+00000+0001T   00000437+0000001620          1400 CF8112               1AZ
305346006305346031-005853     305346006003000442416P/FRAME WDN TWIN HEARTS0000001000+00003507+00000+0001T   00003507+0000001620          1400 CF8510               1AZ
305347000305347               305347               170213EK     1400+00000+EK0000007220+0000007220+000000000+000001013+0000008233+0000000000+I40000008233+0000000000+Z
305347001305347112-116038     305347006009681820246TCS CARRIER BAG MIDI   0000001000+00000035+00000+0001T   00000035+0000001622          1400 CF8090               1AZ
305347002305347080-000114     305347006003000246472CARD&ENV LOVE-MUSICAL  0000001000+00001314+00000+0001T   00001753+0008151622          1400 CF8112               1AZ
305347003305347048-000865     305347006003000371433TORCH KEY CHAIN 5LED   0000001000+00002630+00000+0001T   00002630+0000001622          1400 CF8305               1AZ
305347004305347077-000321     305347006001023677501GIFT-BAG 11X14CM E/D FL0000001000+00000613+00000+0001T   00000613+0000001622          1400 CF8112               1AZ
305347005305347903-003075     305347003800065783125SWT CHOC FAFL WAFER 52g0000003000+00000876+00000+0001T   00000876+0000001622          1400 CF8150               1AZ
305348000305348               305348               170213EK     1400+00000+EK0000012626+0000012626+000000000+000001769+0000014395+0000000000+I40000014395+0000000000+Z
305348001305348018-050000     305348006003000412679MUG OCC LOVE TWIN BEAR 0000001000+00006139+00000+0001T   00006139+0000001630          1400 CF8515               1AZ
305348002305348077-000299     305348006003000395576G/BAG 32x25cm LRG LOVE 0000001000+00001490+00000+0001T   00001490+0000001630          1400 CF8112               1AZ
305348003305348018-000130     305348006001023867537MUG OCC LOVE MINI+HEART0000001000+00003507+00000+0001T   00003507+0000001630          1400 CF8515               1AZ
305348004305348077-000452     305348006003000284986G/BAG METALLIC MED EMB 0000001000+00001490+00000+0001T   00001490+0000001630          1400 CF8112               1AZ
305349000305349               305349               170213EK     1400+00000+EK0000002629+0000002629+000000000+000000369+0000002990+0000000008+I20000000000+0000002990+Z
305349001305349262-000003     305349006003000597338DIE CAST SINGLE TRUCK  0000001000+00001753+00000+0001T   00001753+0000001630          1400 CF8710               1AZ
305349002305349071-003004     305349006003000662821PEN BALL POINT 3PC BLUE0000001000+00000876+00000+0001T   00000876+0000001630          1400 CF8130               1AZ
305350000305350               305350               170213EK     1400+00000+EK0000003506+0000003506+000000000+000000492+0000003990+0000000008+I20000000000+0000003990+Z
305350001305350077-000357     305350006003000139354GIFT-BAG 18X23CM B/DAY 0000002000+00001753+00000+0001T   00001753+0000001635          1400 CF8112               1AZ
305351000305351               305351               170213EK     1400+00000+EK0000002192+0000002192+000000000+000000307+0000002499+0000000000+I40000002499+0000000000+Z
305351001305351080-000127     305351006003000424351VALENTINES DAY 36x24CM 0000001000+00002192+00000+0001T   00002192+0000001648          1400 CF8112               1AZ
305352000305352               305352               170213EK     1400+00000+EK0000023568+0000023568+000000000+000003303+0000026871+0000000000+I40000026871+0000000000+Z
305352001305352112-116053     305352006006438002399TCS CARRIER BAG 38L    0000001000+00000069+00000+0001T   00000069+0000001654          1400 CF8090               1AZ
305352002305352080-000127     305352006003000424351VALENTINES DAY 36x24CM 0000002000+00002192+00000+0001T   00002192+0000001654          1400 CF8112               1AZ
305352003305352077-000299-A   305352006003000670888GIFT-BAG PAPER JMB LOVE0000001000+00001753+00000+0001T   00001753+0000001654          1400 CF8112               1AZ
305352004305352077-000270     305352006003000395453GIFT-BAG PPR JMB 33X45 0000001000+00002630+00000+0001T   00002630+0000001654          1400 CF8112               1AZ
305352005305352018-050000     305352006003000412679MUG OCC LOVE TWIN BEAR 0000001000+00006139+00000+0001T   00006139+0000001654          1400 CF8515               1AZ
305352006305352566-000359     305352006003000582709STICKER BOOK LOVE SPARK0000001000+00002192+00000+0001T   00002192+0000001654          1400 CF8130               1AZ
305352007305352903-000087     305352006001704000161SWT SPECKLED-EGGS 50G  0000001000+00001139+00000+0001T   00001139+0000001654          1400 CF8150               1AZ
305352008305352018-019000     305352006003000557288MUG OCC. LOVE JUMBO    0000001000+00005262+00000+0001T   00005262+0000001654          1400 CF8515               1AZ
305353000305353               305353               170213EK     1400+00000+EK0000008803+0000008803+000000000+000001234+0000010030+0000000007+I20000000000+0000010030+Z
305353001305353112-116038     305353006009681820246TCS CARRIER BAG MIDI   0000001000+00000035+00000+0001T   00000035+0000001711          1400 CF8090               1AZ
305353002305353001-000175     305353006001023788108B/MUG GLS LOVE 380ML   0000001000+00004385+00000+0001T   00004385+0000001711          1400 CF8515               1AZ
305353003305353019-000103     305353006003000280957VASE GLASS BUD 14CM ASS0000001000+00001753+00000+0001T   00001753+0000001711          1400 CF8510               1AZ
305353004305353039-000100     30535300600300060614625CM WHITE CANDLE 6PC  0000001000+00002630+00000+0001T   00002630+0000001711          1400 CF8510               1AZ
305354000305354               305354               170213EK     1400+00000+EK0000003068+0000003068+000000000+000000430+0000003498+0000000000+I40000003498+0000000000+Z
305354001305354018-000127     305354006001023380289MUG OCC STRAIGHT LOVE  0000001000+00001578+00000+0001T   00001753+0006471715          1400 CF8515               1AZ
305354002305354077-000342     305354006003000273942G/BAG PAPER LRG 25X32CM0000001000+00001490+00000+0001T   00001490+0000001715          1400 CF8112               1AZ
305355000305355               305355               170213EK     1400+00000+EK0000002192+0000002192+000000000+000000307+0000002490+0000000009+I20000000000+0000002490+Z
305355001305355047-005126     305355006001023451255CABLETIES 100/150/200mm0000001000+00002192+00000+0001T   00002192+0000001725          1400 CF8880               1AZ
305356000305356               305356               170213EK     1400+00000+EK0000003507+0000003507+000000000+000000491+0000003990+0000000008+I20000000000+0000003990+Z
305356001305356018-005009     305356006001023725608MUG W/PLUSH-BEAR LOVE  0000001000+00003507+00000+0001T   00003507+0000001726          1400 CF8515               1AZ
305357000305357               305357               170213EK     1400+00000+EK0000005699+0000005699+000000000+000000799+0000006498+0000000000+I40000006498+0000000000+Z
305357002305357301-085001     305357006003000297610ORN WATERBALL LOVE ASST0000001000+00004823+00000+0001T   00004823+0000001728          1400 CF8505               1AZ
305357003305357077-000314     305357006003000181148GIFT-BAG 11X14CM MATT  0000001000+00000876+00000+0001T   00000876+0000001728          1400 CF8112               1AZ
A17021300                                          09520978EKSLAVE 1                       AN61IC
A17021301                                          12442259EKSLAVE 1                       CF82IC
B30531000                                          170213EK567-011307     12212828SLAVE 1     CF82IC0000004000+0000003000+0000000000000+
B30531001                                          170213EK567-010565     12213523SLAVE 1     CF82IC0000004000+0000002000+0000000000000+
B30531002                                          170213EK567-010565     12213639SLAVE 1     CF82IC0000004000+0000003000+0000000000000+
B30531003                                          170213EK567-010392     12223394SLAVE 1     CF82IC0000004000+0000002000+0000000000000+
C30535700                                          170213EK301-085007     17273700SLAVE 1     CF82IC0000000000+0000000000+0010000001000+
M17021391                              CASH        EKSLAVE 1                       Z-REPORT No.   636TOTAL (Sales - Refunds)           5695.54       CASH TO BE BANKED                 2701.70       DEBIT CARDS                          0.00       CREDIT CARDS                      2993.84       Z-READING                         5695.54       AIRTIME DEBIT CARD SALES             0.00       AIRTIME CARD SALES                   0.00       OVERS/UNDERS                         0.00       AIRTIME CASH SALES                   0.00       GIFT CARDS                           0.00       GIFT CARD CASH SALES                 0.00       T O T A L  CASH PAYOUTS              0.00                                                                                                                                                                                                                                                                                                                                                      Z
M17021392                              CASH        EKABSENT                                                                                                                                                                                          ANNUAL LEAVE                                                                                                                                                                                    DAY OFF                                                                                                                                                                                         COMMENTS                                                                                                                                                                                                                                                                                                                                                                                       Z
Y17021300                                          EK00000000501239+000065
ZEK17021319333 SLAVE 1      SALES DATA                     NEXT INVOICE NO.  305358 0636
X EK Slave 1 First invoice 305292 170213 Last invoice 305357 170213 Next invoice 305358 Total number of records 000000235 clbackup completed 19:33:25
