118776000118776               118776               170213EL     1400+00000+EL0000008770+0000008770+000000000+000001228+0000009990+0000000008+I20000000000+0000009990+Z
118776001118776088-000107     118776006001023555823DIFFUSER SET FLOWER    0000002000+00004385+00000+0001T   00004385+0000000904          1400 AY6212               1AZ
118777000118777               118777               170213EL     1400+00000+EL0000004385+0000004385+000000000+000000614+0000004990+0000000009+I20000000000+0000004990+Z
118777001118777027-000030     118777006003000621750MOP COTTON HEAD 160g   0000001000+00004385+00000+0001T   00004385+0000000906          1400 AY6212               1AZ
118778000118778               118778               170213EL     1400+00000+EL0000003944+0000003944+000000000+000000553+0000004490+0000000007+I20000000000+0000004490+Z
118778001118778016-006425     118778006001023998170S/JAR GLS CLIP W/RIBBON0000001000+00002630+00000+0001T   00002630+0000000911          1400 AY6300               1AZ
118778002118778566-000022     118778006001023995070STICKERS HANDMADE ASST 0000001000+00001314+00000+0001T   00001753+0008150911          1400 AY6130               1AZ
118779000118779               118779               170213EL     1400+00000+EL0000005913+0000005913+000000000+000000831+0000006744+0000000000+I40000006744+0000000000+Z
118779001118779001-000001     118779006001023507266SHOT-GLASS 25ml        0000001000+00000393+00000+0001T   00000393+0000000924          1400 AY6515               1AZ
118779002118779464-000121     118779006003000640492PLAYING CARDS MINI     0000001000+00000700+00000+0001T   00000700+0000000924          1400 AY6785               1AZ
118779003118779077-000357     118779006003000139354GIFT-BAG 18X23CM B/DAY 0000001000+00001753+00000+0001T   00001753+0000000924          1400 AY6112               1AZ
118779004118779267-006048     118779000047754184303PUZZLE LICENSED STAR   0000001000+00002630+00000+0001T   00003507+0008140924          1400 AY6755               1AZ
118779005118779083-000049     118779004891035200024CIG-LIGHTER DISPOSABLE 0000001000+00000437+00000+0001T   00000437+0000000924          1400 AY6315               1AZ
118780000118780               118780               170213EL     1400+00000+EL0000101729+0000101729+000000000+000014250+0000115979+0000000000+I40000115979+0000000000+Z
118780001118780105-009015     118780006003000467204STORAGE BOX 32L FROSTED0000004000+00011402+00000+0001T   00011402+0000000936          1400 AY6210               1AZ
118780002118780105-007800     118780006002923018913STORAGE BOX CLEAR 5.5L 0000004000+00003507+00000+0001T   00003507+0000000936          1400 AY6210               1AZ
118780003118780079-001000     118780006003000448470CANVAS A2 WOOD MOUNTED 0000004000+00007016+00000+0001T   00007016+0000000936          1400 AY6130               1AZ
118780004118780306-000529     118780006003000571338TOOTHBRUSH HOLDER 20cm 0000001000+00001753+00000+0001T   00001753+0000000936          1400 AY6200               1AZ
118780005118780133-046633     118780009300601747016TABLECLOTH VINYL ASSTD 0000001000+00006139+00000+0001T   00006139+0000000936          1400 AY6212               1AZ
118780006118780146-000430     118780006003000304639SPRAYER START-KIT 4PCE 0000001000+00003507+00000+0001T   00003507+0000000936          1400 AY6820               1AZ
118780007118780369-000235     118780006001023857194LEARNING-LINKS 12PCE   0000001000+00002630+00000+0001T   00002630+0000000936          1400 AY6745               1AZ
118781000118781               118781               170213EL     1400+00000+EL0000011130+0000011130+000000000+000001561+0000012691+0000000000+I40000012691+0000000000+Z
118781001118781903-000211     118781006002099001238SWT GS MALLOW ICE CREAM0000001000+00001753+00000+0001T   00001753+0000000939          1400 AY6150               1AZ
118781002118781306-000529     118781006003000571338TOOTHBRUSH HOLDER 20cm 0000001000+00001753+00000+0001T   00001753+0000000939          1400 AY6200               1AZ
118781003118781306-000020     118781006001023743145POCKET-TISSUES 10PCE   0000001000+00000306+00000+0001T   00000306+0000000939          1400 AY6200               1AZ
118781004118781033-000782     118781006001023905482COSMETIC SPONGES 12PC  0000001000+00002192+00000+0001T   00002192+0000000939          1400 AY6200               1AZ
118781005118781104-000020     118781006916920023026BASKET 25x14x10cm      0000002000+00001753+00000+0001T   00001753+0000000939          1400 AY6210               1AZ
118781006118781306-000020     118781006001023743145POCKET-TISSUES 10PCE   0000001000+00000306+00000+0001T   00000306+0000000939          1400 AY6200               1AZ
118781007118781107-004105     118781006009703860984BUCKET 9L OPEN         0000001000+00001314+00000+0001T   00001314+0000000939          1400 AY6210               1AZ
118782000118782               118782               170213EL     1400+00000+EL0000015786+0000015786+000000000+000002212+0000017990+0000000008+I20000000000+0000017990+Z
118782001118782075-000361     118782006003000507573PURSE LADIES ASTD COLOU0000002000+00007893+00000+0001T   00007893+0000000952          1400 AY6160               1AZ
118783000118783               118783               170213EL     1400+00000+EL0000017542+0000017542+000000000+000002456+0000019990+0000000008+I20000000000+0000019990+Z
118783001118783463-000501     118783006003000574551SLIP & SLIDE 4.88mx71cm0000001000+00017542+00000+0001T   00017542+0000000952          1400 AY6785               1AZ
118784000118784               118784               170213EL     1400+00000+EL0000010525+0000010525+000000000+000001474+0000011999+0000000000+I40000011999+0000000000+Z
118784001118784028-003601     118784006001023361387BEACH-UMBRELLA 170cm   0000001000+00010525+00000+0001T   00010525+0000000957          1400 AY6305               1AZ
118785000118785               118785               170213EL     1400+00000+EL0000000613+0000000613+000000000+000000086+0000000690+0000000009+I20000000000+0000000690+Z
118785001118785304-001011     118785006001023806727FLWR ROSE RED W/BEAR   0000001000+00000613+00000+0001T   00000788+0006470958          1400 AY6510               1AZ
118786000118786               118786               170213EL     1400+00000+EL0000010128+0000010128+000000000+000001421+0000011549+0000000000+I40000011549+0000000000+Z
118786001118786006-000171-G   118786006003000609529BALLOONS 1PC YELLOW PRN0000001000+00000218+00000+0001T   00000218+0000001026          1400 AY6131               1AZ
118786002118786006-000171-E   118786006003000609406BALLOONS 1PC BLUE PRNT 0000001000+00000218+00000+0001T   00000218+0000001026          1400 AY6131               1AZ
118786003118786006-000171-C   118786006003000609178BALLOONS 1PC D/GRN PRNT0000001000+00000218+00000+0001T   00000218+0000001026          1400 AY6131               1AZ
118786004118786006-000171-H   118786006003000609574BALLOONS 1PC RED PRINT 0000001000+00000218+00000+0001T   00000218+0000001026          1400 AY6131               1AZ
118786005118786006-000090     118786006001023538505BANNER HAPPY-BIRTHDAY  0000001000+00002192+00000+0001T   00002192+0000001026          1400 AY6131               1AZ
118786006118786174-000305     118786006003000105502TRAVEL NECK-PILLOW     0000001000+00007016+00000+0001T   00007016+0000001026          1400 AY6205               1AZ
118786007118786112-116069     118786006009681820277TCS CARRIER BAG JUMBO  0000001000+00000048+00000+0001T   00000048+0000001026          1400 AY6090               1AZ
118787000118787               118787               170213EL     1400+00000+EL0000003507+0000003507+000000000+000000491+0000003990+0000000008+I20000000000+0000003990+Z
118787001118787089-000200     118787006003000485840KEY CHAIN POLY LOVE IS 0000001000+00003507+00000+0001T   00004385+0008121030          1400 AY6205               1AZ
118788000118788               118788               170213EL     1400+00000+EL0000005699+0000005699+000000000+000000799+0000006490+0000000008+I20000000000+0000006490+Z
118788001118788002-220002     118788006001023677877F/COVER SQ 31cm WHT    0000001000+00002630+00000+0001T   00002630+0000001031          1400 AY6300               1AZ
118788002118788105-001025     118788006009654960771CONTAINERS CLEAR 4PCE  0000001000+00003069+00000+0001T   00003069+0000001031          1400 AY6210               1AZ
118789000118789               118789               170213EL     1400+00000+EL0000009990+0000009990+000000000+000001403+0000011393+0000000000+I40000011393+0000000000+Z
118789001118789077-000408     118789006003000145218G/BAG PP 15X21X7CM     0000001000+00000876+00000+0001T   00000876+0000001036          1400 AY6112               1AZ
118789002118789077-000380     118789006003000247585GIFT-BAG 33X45CM S/COL 0000002000+00002455+00000+0001T   00002455+0000001036          1400 AY6112               1AZ
118789003118789903-002853     118789000000087108019MENTOS ROLL MINT       0000002000+00001051+00000+0001T   00001051+0000001036          1400 AY6150               1AZ
118789004118789903-002850     118789000000087108262MENTOS ROLL FRUIT      0000001000+00001051+00000+0001T   00001051+0000001036          1400 AY6150               1AZ
118789005118789903-002851     118789000000087108538MENTOS ROLL STRAWBERRY 0000001000+00001051+00000+0001T   00001051+0000001036          1400 AY6150               1AZ
118790000118790               118790               170213EL     1400+00000+EL0000002629+0000002629+000000000+000000369+0000002990+0000000008+I20000000000+0000002990+Z
118790001118790047-000505     118790006009636901976PLUG-ADAPTOR 2-PIN     0000001000+00000876+00000+0001T   00000876+0000001055          1400 AY6880               1AZ
118790002118790047-000508     118790006009636901983PLG EURODAPTOR 3x5A-2PN0000001000+00001753+00000+0001T   00001753+0000001055          1400 AY6880               1AZ
118791000118791               118791               170213EL     1400+00000+EL0000016661+0000016661+000000000+000002335+0000018996+0000000000+I40000018996+0000000000+Z
118791001118791039-000320     118791006001023816153BIRTHDAY-CANDLES 13PCE 0000001000+00002630+00000+0001T   00002630+0000001058          1400 AY6510               1AZ
118791002118791366-002005     118791006003000031757DRESS UP WIGS CHARACTER0000001000+00006139+00000+0001T   00006139+0000001058          1400 AY6131               1AZ
118791003118791006-000098     118791006003000601325PARTY PHOTO BOOTH 20PC 0000001000+00005262+00000+0001T   00005262+0000001058          1400 AY6131               1AZ
118791004118791006-000230     118791006003000573998STRAW PARTY MOUSTACHE  0000001000+00002630+00000+0001T   00002630+0000001058          1400 AY6131               1AZ
118792000118792               118792               170213EL     1400+00000+EL0000002102+0000002102+000000000+000000296+0000002390+0000000008+I20000000000+0000002390+Z
118792001118792903-002891     118792008935001721376MENTOS GUM WINTERGREEN 0000001000+00001051+00000+0001T   00001051+0000001059          1400 AY6150               1AZ
118792002118792903-002850     118792000000087108262MENTOS ROLL FRUIT      0000001000+00001051+00000+0001T   00001051+0000001059          1400 AY6150               1AZ
118793000118793               118793               170213EL     1400+00000+EL0000000876+0000000876+000000000+000000123+0000000990+0000000009+I20000000000+0000000990+Z
118793001118793084-001598     118793006003000576609FOOT FILE PL 22cm      0000001000+00000876+00000+0001T   00000876+0000001059          1400 AY6200               1AZ
118794000118794               118794               170213EL     1400+00000+EL0000017542+0000017542+000000000+000002456+0000019990+0000000008+I20000000000+0000019990+Z
118794001118794072-020241     118794006946859290039PET CAVE 42x45x40cm    0000001000+00017542+00000+0001T   00017542+0000001104          1400 AY6870               1AZ
118795000118795               118795               170213EL     1400+00000+EL0000007892+0000007892+000000000+000001106+0000008998+0000000000+I40000008998+0000000000+Z
118795001118795024-000119-A   118795006003000407613N/STICK MINI TART LOSE 0000002000+00003946+00000+0001T   00003946+0000001118          1400 AY6300               1AZ
118796000118796               118796               170213EL     1400+00000+EL0000000035+0000000035+000000000+000000005+0000000040+0000000000+I20000000000+0000000040+Z
118796001118796112-116038     118796006009681820246TCS CARRIER BAG MIDI   0000001000+00000035+00000+0001T   00000035+0000001120          1400 AY6090               1AZ
118797000118797               118797               170213EL     1400+00000+EL0000003507+0000003507+000000000+000000491+0000003990+0000000008+I20000000000+0000003990+Z
118797001118797018-000136     118797006001023659026MUG OCC LOVE W/PLUSH   0000001000+00003507+00000+0001T   00003507+0000001120          1400 AY6515               1AZ
118798000118798               118798               170213EL     1400+00000+EL0000001227+0000001227+000000000+000000172+0000001390+0000000009+I20000000000+0000001390+Z
118798001118798077-000245     118798006001023759214GIFT-RIBBON METALLICx2 0000001000+00001227+00000+0001T   00001227+0000001123          1400 AY6112               1AZ
118799000118799               118799               170213EL     1400+00000+EL0000003507+0000003507+000000000+000000491+0000003990+0000000008+I20000000000+0000003990+Z
118799001118799018-000136     118799006001023659026MUG OCC LOVE W/PLUSH   0000001000+00003507+00000+0001T   00003507+0000001124          1400 AY6515               1AZ
118800000118800               118800               170213EL     1400+00000+EL0000000035+0000000035+000000000+000000005+0000000040+0000000000+I20000000000+0000000040+Z
118800001118800112-116038     118800006009681820246TCS CARRIER BAG MIDI   0000001000+00000035+00000+0001T   00000035+0000001125          1400 AY6090               1AZ
118801000118801               118801               170213EL     1400+00000+EL0000001435+0000001435+000000000+000000201+0000001630+0000000006+I20000000000+0000001630+Z
118801001118801018-000177     118801006001023797513MUG MINI LOVE ASSTD    0000002000+00000700+00000+0001T   00000700+0000001137          1400 AY6515               1AZ
118801002118801112-116038     118801006009681820246TCS CARRIER BAG MIDI   0000001000+00000035+00000+0001T   00000035+0000001137          1400 AY6090               1AZ
118802000118802               118802               170213EL     1400+00000+EL0000005819+0000005819+000000000+000000815+0000006634+0000000000+I40000006634+0000000000+Z
118802001118802105-001024-A   118802006009654960986CONTAINERS CLEAR 3PCE  0000003000+00001928+00000+0001T   00001928+0000001139          1400 AY6210               1AZ
118802002118802112-116038     118802006009681820246TCS CARRIER BAG MIDI   0000001000+00000035+00000+0001T   00000035+0000001139          1400 AY6090               1AZ
118803000118803               118803               170213EL     1400+00000+EL0000000964+0000000964+000000000+000000135+0000001090+0000000009+I20000000000+0000001090+Z
118803001118803007-000204     118803006009635835272EXAM-PAD 60SHT PUNCHED 0000001000+00000964+00000+0001T   00000964+0000001146          1400 AY6130               1AZ
118804000118804               118804               170213EL     1400+00000+EL0000000035+0000000035+000000000+000000005+0000000040+0000000000+I20000000000+0000000040+Z
118804001118804112-116038     118804006009681820246TCS CARRIER BAG MIDI   0000001000+00000035+00000+0001T   00000035+0000001146          1400 AY6090               1AZ
118805000118805               118805               170213EL     1400+00000+EL0000001578+0000001578+000000000+000000221+0000001790+0000000009+I20000000000+0000001790+Z
118805001118805028-000799     118805006001023812186SKEWERS BAMBOO 100PCE  0000001000+00001578+00000+0001T   00001578+0000001152          1400 AY6305               1AZ
118806000118806               118806               170213EL     1400+00000+EL0000004207+0000004207+000000000+000000590+0000004797+0000000000+I40000004797+0000000000+Z
118806001118806204-000001     118806006003000575558M/HOLD BOTTLE OPENER   0000001000+00001753+00000+0001T   00001753+0000001200          1400 AY6300               1AZ
118806002118806077-000151     118806006008766114676GIFT-WRAP C/PHANE ASSTD0000001000+00000876+00000+0001T   00000876+0000001200          1400 AY6112               1AZ
118806003118806080-000124     118806006003000297733CARD & ENV VALENTINES  0000001000+00001578+00000+0001T   00001578+0000001200          1400 AY6112               1AZ
118807000118807               118807               170213EL     1400+00000+EL0000013155+0000013155+000000000+000001842+0000014997+0000000000+I40000014997+0000000000+Z
118807001118807107-003127     118807006003000491629BATH TUB W/HANDLES     0000003000+00004385+00000+0001T   00004385+0000001203          1400 AY6210               1AZ
118808000118808               118808               170213EL     1400+00000+EL0000003507+0000003507+000000000+000000491+0000003990+0000000008+I20000000000+0000003990+Z
118808001118808002-001686     118808006003000441587JUICER PL WITH MEASURIN0000001000+00003507+00000+0001T   00003507+0000001203          1400 AY6300               1AZ
118809000118809               118809               170213EL     1400+00000+EL0000003506+0000003506+000000000+000000491+0000003990+0000000007+I20000000000+0000003990+Z
118809001118809046-000012-A   118809006003000208296BATTERIES H/POWER SZ:AA0000001000+00002192+00000+0001T   00002192+0000001221          1400 AY6312               1AZ
118809002118809046-000012     118809006904708013062BATTERIES AA  CARD-OF-40000001000+00001314+00000+0001T   00001314+0000001221          1400 AY6312               1AZ
118810000118810               118810               170213EL     1400+00000+EL0000007187+0000007187+000000000+000001008+0000008190+0000000005+I20000000000+0000008190+Z
118810001118810079-009702-A   118810008427973059408PAPER SIRIO A2 BLACK   0000001000+00001051+00000+0001T   00001051+0000001222          1400 AY6130               1AZ
118810002118810007-000127     118810006009685853431BOOK H/COVER MEMO 144PG0000001000+00000876+00000+0001T   00000876+0000001222          1400 AY6130               1AZ
118810003118810071-000682     118810006003000196920ACCESSORIES DESKTOP ASS0000001000+00003507+00000+0001T   00003507+0000001222          1400 AY6130               1AZ
118810004118810200-003024     118810006001023657299REFUSE BAGS 20PCE BLACK0000001000+00001753+00000+0001T   00001753+0000001222          1400 AY6214               1AZ
118811000118811               118811               170213EL     1400+00000+EL0000000035+0000000035+000000000+000000005+0000000040+0000000000+I20000000000+0000000040+Z
118811001118811112-116038     118811006009681820246TCS CARRIER BAG MIDI   0000001000+00000035+00000+0001T   00000035+0000001223          1400 AY6090               1AZ
118812000118812               118812               170213EL     1400+00000+EL0000030700+0000030700+000000000+000004298+0000034998+0000000000+I40000034998+0000000000+Z
118812001118812072-020247     118812006001246272705PET BED PL MEDIUM      0000002000+00015350+00000+0001T   00015350+0000001328          1400 AY6870               1AZ
118813000118813               118813               170213EL     1400+00000+EL0000008767+0000008767+000000000+000001228+0000009995+0000000000+I40000009995+0000000000+Z
118813001118813200-003024     118813006001023657299REFUSE BAGS 20PCE BLACK0000001000+00001753+00000+0001T   00001753+0000001337          1400 AY6214               1AZ
118813002118813028-000031     118813006003000270897COOLER-BAG THERMAL 6PK 0000002000+00003507+00000+0001T   00003507+0000001337          1400 AY6305               1AZ
118814000118814               118814               170213EL     1400+00000+EL0000009254+0000009254+000000000+000001298+0000010552+0000000000+I40000010552+0000000000+Z
118814001118814365-000027     118814006001023786852P/SET TEA-SET PL 9PCS  0000001000+00003946+00000+0001T   00003946+0000001338          1400 AY6725               1AZ
118814002118814562-000005     118814006001023584212EDU TOY MONEY & CASH   0000001000+00002630+00000+0001T   00002630+0000001338          1400 AY6755               1AZ
118814003118814065-003671     118814006003000644650MUSICAL FLUTE 22cm     0000001000+00002630+00000+0001T   00002630+0000001338          1400 AY6745               1AZ
118814004118814112-116069     118814006009681820277TCS CARRIER BAG JUMBO  0000001000+00000048+00000+0001T   00000048+0000001338          1400 AY6090               1AZ
118815000118815               118815               170213EL     1400+00000+EL0000008627+0000008627+000000000+000001208+0000009835+0000000000+I40000009835+0000000000+Z
118815001118815112-116038     118815006009681820246TCS CARRIER BAG MIDI   0000001000+00000035+00000+0001T   00000035+0000001340          1400 AY6090               1AZ
118815002118815018-005009     118815006001023725608MUG W/PLUSH-BEAR LOVE  0000001000+00003507+00000+0001T   00003507+0000001340          1400 AY6515               1AZ
118815003118815031-006228     118815006003000142293P/FRAME+PLAQUE 10X15CM 0000001000+00003507+00000+0001T   00003507+0000001340          1400 AY6510               1AZ
118815004118815077-000303     118815006001023593757GIFT-BAG PAPER MED     0000001000+00001578+00000+0001T   00001578+0000001340          1400 AY6112               1AZ
118816000118816               118816               170213EL     1400+00000+EL0000012060+0000012060+000000000+000001690+0000013750+0000000000+I40000013750+0000000000+Z
118816001118816112-116069     118816006009681820277TCS CARRIER BAG JUMBO  0000001000+00000048+00000+0001T   00000048+0000001342          1400 AY6090               1AZ
118816002118816104-000180     118816006001023765758CUTLERY-TRAY PL        0000001000+00003507+00000+0001T   00003507+0000001342          1400 AY6210               1AZ
118816003118816106-000890     118816000876416080628WATER BOTTLE PL 700ml  0000001000+00005262+00000+0001T   00005262+0000001342          1400 AY6210               1AZ
118816004118816078-000020     118816008887013700071YAMAYO CONTACT-CEMENT  0000001000+00001753+00000+0001T   00001753+0000001342          1400 AY6810               1AZ
118816005118816027-783002     118816006001023874658SCOURERS FOAM PACK OF 30000001000+00001490+00000+0001T   00001490+0000001342          1400 AY6212               1AZ
118817000118817               118817               170213EL     1400+00000+EL0000004822+0000004822+000000000+000000676+0000005490+0000000008+I20000000000+0000005490+Z
118817001118817048-071500     118817006003000104420LIGHT LED AUTO 3xAG13  0000001000+00001753+00000+0001T   00002630+0008191343          1400 AY6305               1AZ
118817002118817072-020298     118817006003000561629DOG-TOY TUG-ROPE ASSTD 0000001000+00003069+00000+0001T   00003069+0000001343          1400 AY6870               1AZ
118818000118818               118818               170213EL     1400+00000+EL0000018417+0000018417+000000000+000002580+0000020997+0000000000+I40000020997+0000000000+Z
118818001118818031-007009     118818006003000467822P/FRAME WDN CERTIFICATE0000003000+00006139+00000+0001T   00006139+0000001348          1400 AY6510               1AZ
118819000118819               118819               170213EL     1400+00000+EL0000001490+0000001490+000000000+000000209+0000001690+0000000009+I20000000000+0000001690+Z
118819001118819077-000452     118819006003000284986G/BAG METALLIC MED EMB 0000001000+00001490+00000+0001T   00001490+0000001349          1400 AY6112               1AZ
118820000118820               118820               170213EL     1400+00000+EL0000010467+0000010467+000000000+000001468+0000011935+0000000000+I40000011935+0000000000+Z
118820001118820566-000304     1188200060030004440453-D POP-UP ROUND       0000001000+00002455+00000+0001T   00002455+0000001351          1400 AY6130               1AZ
118820002118820566-000065     118820006003000217915STICKERS GLITTER ASSTD 0000001000+00001753+00000+0001T   00001753+0000001351          1400 AY6130               1AZ
118820003118820566-000304     1188200060030004440453-D POP-UP ROUND       0000001000+00002455+00000+0001T   00002455+0000001351          1400 AY6130               1AZ
118820004118820566-000004-A   118820006001023614629STICKER BOOK VELVET    0000001000+00001139+00000+0001T   00001578+0008151351          1400 AY6130               1AZ
118820005118820079-000123     118820006003000589746ART+CRAFT ENGRAVING ART0000001000+00002630+00000+0001T   00002630+0000001351          1400 AY6130               1AZ
118820006118820112-116038     118820006009681820246TCS CARRIER BAG MIDI   0000001000+00000035+00000+0001T   00000035+0000001351          1400 AY6090               1AZ
118821000118821               118821               170213EL     1400+00000+EL0000017797+0000017797+000000000+000002494+0000020291+0000000000+I40000020291+0000000000+Z
118821001118821106-007105     118821006001023857644JUG 1,8L FRIDGE-DOOR   0000001000+00003507+00000+0001T   00003507+0000001354          1400 AY6210               1AZ
118821002118821105-002013     118821006002580008494CONTAINER SET 18PCE    0000001000+00007016+00000+0001T   00007016+0000001354          1400 AY6210               1AZ
118821003118821028-085274     118821006001023641571BBQ LIGHTER         H&L0000001000+00002192+00000+0001T   00002192+0000001354          1400 AY6305               1AZ
118821004118821033-000013     118821006001023567215PILL-REMINDER PL       0000002000+00001227+00000+0001T   00001227+0000001354          1400 AY6200               1AZ
118821005118821047-001333     118821006001838000495PLUGTOP CHUBBY         0000003000+00000876+00000+0001T   00000876+0000001354          1400 AY6880               1AZ
118822000118822               118822               170213EL     1400+00000+EL0000005262+0000005262+000000000+000000737+0000005990+0000000009+I20000000000+0000005990+Z
118822001118822158-003092     118822006003000621644PAPER TOWEL HOLDER CHR 0000001000+00005262+00000+0001T   00005262+0000001355          1400 AY6300               1AZ
118823000118823               118823               170213EL     1400+00000+EL0000003507+0000003507+000000000+000000491+0000003998+0000000000+I40000003998+0000000000+Z
118823001118823301-085004     118823006003000420469ORN LOVE PLAQUE 21X10CM0000001000+00003507+00000+0001T   00003946+0006471357          1400 AY6505               1AZ
118824000118824               118824               170213EL     1400+00000+EL0000000437+0000000437+000000000+000000062+0000000490+0000000009+I20000000000+0000000490+Z
118824001118824080-000133-A   118824006003000647019MINI VALENTINES CARD   0000001000+00000437+00000+0001T   00000437+0000001358          1400 AY6112               1AZ
118825000118825               118825               170213EL     1400+00000+EL0000005259+0000005259+000000000+000000738+0000005990+0000000007+I20000000000+0000005990+Z
118825001118825007-000598     118825006009608642333MARLIN FILE DIVIDER 10 0000003000+00001753+00000+0001T   00001753+0000001402          1400 AY6130               1AZ
118826000118826               118826               170213EL     1400+00000+EL0000010524+0000010524+000000000+000001474+0000011990+0000000008+I20000000000+0000011990+Z
118826001118826071-002886     118826006925625423024CALCULATOR SCIENTIFIC  0000002000+00005262+00000+0001T   00005262+0000001402          1400 AY6130               1AZ
118827000118827               118827               170213EL     1400+00000+EL0000006139+0000006139+000000000+000000860+0000006990+0000000009+I20000000000+0000006990+Z
118827001118827018-050000     118827006003000412679MUG OCC LOVE TWIN BEAR 0000001000+00006139+00000+0001T   00006139+0000001403          1400 AY6515               1AZ
118828000118828               118828               170213EL     1400+00000+EL0000001578+0000001578+000000000+000000221+0000001790+0000000009+I20000000000+0000001790+Z
118828001118828077-000315     118828006003000181186GIFT-BAG 20x28cm MATT  0000001000+00001578+00000+0001T   00001578+0000001404          1400 AY6112               1AZ
118829000118829               118829               170213EL     1400+00000+EL0000001578+0000001578+000000000+000000221+0000001790+0000000009+I20000000000+0000001790+Z
118829001118829077-000315     118829006003000181186GIFT-BAG 20x28cm MATT  0000001000+00001578+00000+0001T   00001578+0000001405          1400 AY6112               1AZ
118830000118830               118830               170213EL     1400+00000+EL0000005995+0000005995+000000000+000000841+0000006830+0000000006+I20000000000+0000006830+Z
118830001118830466-000515     118830006001023477408BALLS TENNIS BAG-OF-3  0000002000+00002630+00000+0001T   00002630+0000001410          1400 AY6785               1AZ
118830002118830564-000012     118830006001023130075BUBBLE BOTTLE MAGIC    0000001000+00000700+00000+0001T   00000700+0000001410          1400 AY6131               1AZ
118830003118830112-116038     118830006009681820246TCS CARRIER BAG MIDI   0000001000+00000035+00000+0001T   00000035+0000001410          1400 AY6090               1AZ
118831000118831               118831               170213EL     1400+00000+EL0000004558+0000004558+000000000+000000639+0000005190+0000000007+I20000000000+0000005190+Z
118831001118831028-000799     118831006001023812186SKEWERS BAMBOO 100PCE  0000001000+00001578+00000+0001T   00001578+0000001416          1400 AY6305               1AZ
118831002118831028-000796     118831006001023812094SKEWERS 25cm 50PCE 4mm 0000002000+00001490+00000+0001T   00001490+0000001416          1400 AY6305               1AZ
118832000118832               118832               170213EL     1400+00000+EL0000010521+0000010521+000000000+000001473+0000011994+0000000000+I40000011994+0000000000+Z
118832001118832206-000610     118832006003000631674BOMB SHOTS PL 10PC     0000003000+00003507+00000+0001T   00003507+0000001419          1400 AY6321               1AZ
118833000118833               118833               170213EL     1400+00000+EL0000006138+0000006138+000000000+000000860+0000006998+0000000000+I40000006998+0000000000+Z
118833001118833027-078281     118833006001023767806SCOURERS BRS 8g  PACK-30000001000+00000876+00000+0001T   00000876+0000001424          1400 AY6212               1AZ
118833002118833133-000046     118833006003000366446POT-HOLDER-SET 3PCE    0000001000+00005262+00000+0001T   00005262+0000001424          1400 AY6212               1AZ
118834000118834               118834               170213EL     1400+00000+EL0000006173+0000006173+000000000+000000865+0000007030+0000000008+I20000000000+0000007030+Z
118834001118834103-000083     118834006003000638062BAMBOO BASKET 27x20x8cm0000001000+00005262+00000+0001T   00005262+0000001428          1400 AY6300               1AZ
118834002118834077-000150-D   118834006003000054343GIFT-WRAP CELLPHANE CLR0000001000+00000876+00000+0001T   00000876+0000001428          1400 AY6112               1AZ
118834003118834112-116038     118834006009681820246TCS CARRIER BAG MIDI   0000001000+00000035+00000+0001T   00000035+0000001428          1400 AY6090               1AZ
118835000118835               118835               170213EL     1400+00000+EL0000003542+0000003542+000000000+000000496+0000004030+0000000008+I20000000000+0000004030+Z
118835001118835018-000136     118835006001023659026MUG OCC LOVE W/PLUSH   0000001000+00003507+00000+0001T   00003507+0000001431          1400 AY6515               1AZ
118835002118835112-116038     118835006009681820246TCS CARRIER BAG MIDI   0000001000+00000035+00000+0001T   00000035+0000001431          1400 AY6090               1AZ
118836000118836               118836               170213EL     1400+00000+EL0000000437+0000000437+000000000+000000062+0000000490+0000000009+I20000000000+0000000490+Z
118836001118836080-000133-A   118836006003000647019MINI VALENTINES CARD   0000001000+00000437+00000+0001T   00000437+0000001432          1400 AY6112               1AZ
118837000118837               118837               170213EL     1400+00000+EL0000003542+0000003542+000000000+000000496+0000004030+0000000008+I20000000000+0000004030+Z
118837001118837133-000017     118837006003000525171CLEANING-CLOTHS 5PCE   0000001000+00003507+00000+0001T   00003507+0000001432          1400 AY6212               1AZ
118837002118837112-116038     118837006009681820246TCS CARRIER BAG MIDI   0000001000+00000035+00000+0001T   00000035+0000001432          1400 AY6090               1AZ
118838000118838               118838               170213EL     1400+00000+EL0000000876+0000000876+000000000+000000123+0000000990+0000000009+I20000000000+0000000990+Z
118838001118838366-007917     118838006003000653621DRESS UP MASK ANIMALS  0000001000+00000876+00000+0001T   00000876+0000001433          1400 AY6131               1AZ
118839000118839               118839               170213EL     1400+00000+EL0000001753+0000001753+000000000+000000246+0000001990+0000000009+I20000000000+0000001990+Z
118839001118839077-000290     118839006001023902023GIFT BOX 26x32x13cm    0000001000+00001753+00000+0001T   00001753+0000001435          1400 AY6112               1AZ
118840000118840               118840               170213EL     1400+00000+EL0000005961+0000005961+000000000+000000836+0000006797+0000000000+I40000006797+0000000000+Z
118840001118840077-000289     118840006001023901996GIFT BOX 20x25x11cm    0000001000+00001753+00000+0001T   00001753+0000001445          1400 AY6112               1AZ
118840002118840565-000071     118840006003000643387NOVELTY WIND UP CHATTER0000001000+00001139+00000+0001T   00001139+0000001445          1400 AY6745               1AZ
118840003118840203-006005     118840006003000364671ICE BALL 18-PC IN PVC  0000001000+00003069+00000+0001T   00003069+0000001445          1400 AY6300               1AZ
118841000118841               118841               170213EL     1400+00000+EL0000001753+0000001753+000000000+000000246+0000001990+0000000009+I20000000000+0000001990+Z
118841001118841004-071213     118841006003000578337TABLET/IPAD STAND ADJ  0000001000+00001753+00000+0001T   00001753+0000001456          1400 AY6310               1AZ
118842000118842               118842               170213EL     1400+00000+EL0000004383+0000004383+000000000+000000615+0000004990+0000000008+I20000000000+0000004990+Z
118842001118842047-000507     118842006001023684479PLUG-ADAPTOR EURO TWIN 0000001000+00001753+00000+0001T   00001753+0000001500          1400 AY6880               1AZ
118842002118842563-000317-G   118842006001023776341SERVIETTES BRIGHT ASSTD0000001000+00002630+00000+0001T   00002630+0000001500          1400 AY6214               1AZ
118843000118843               118843               170213EL     1400+00000+EL0000002980+0000002980+000000000+000000418+0000003390+0000000008+I20000000000+0000003390+Z
118843001118843140-001004     118843006001023880932FLY-RIBBONS 4PCE PL    0000002000+00001490+00000+0001T   00001490+0000001503          1400 AY6830               1AZ
118844000118844               118844               170213EL     1400+00000+EL0000004154+0000004154+000000000+000000583+0000004730+0000000007+I20000000000+0000004730+Z
118844001118844200-003024     118844006001023657299REFUSE BAGS 20PCE BLACK0000001000+00001753+00000+0001T   00001753+0000001518          1400 AY6214               1AZ
118844002118844083-000055     118844006003000003853LIGHTER ELCTRNC REFILBL0000001000+00000613+00000+0001T   00000613+0000001518          1400 AY6315               1AZ
118844003118844206-000370     118844006003000631315STRAW P/DRINKING GLASS 0000001000+00001753+00000+0001T   00001753+0000001518          1400 AY6321               1AZ
118844004118844112-116038     118844006009681820246TCS CARRIER BAG MIDI   0000001000+00000035+00000+0001T   00000035+0000001518          1400 AY6090               1AZ
118845000118845               118845               170213EL     1400+00000+EL0000002803+0000002803+000000000+000000394+0000003190+0000000007+I20000000000+0000003190+Z
118845001118845200-003024     118845006001023657299REFUSE BAGS 20PCE BLACK0000001000+00001753+00000+0001T   00001753+0000001519          1400 AY6214               1AZ
118845002118845083-000055     118845006003000003853LIGHTER ELCTRNC REFILBL0000001000+00000613+00000+0001T   00000613+0000001519          1400 AY6315               1AZ
118845003118845080-000133-A   118845006003000647019MINI VALENTINES CARD   0000001000+00000437+00000+0001T   00000437+0000001519          1400 AY6112               1AZ
118846000118846               118846               170213EL     1400+00000+EL0000006134+0000006134+000000000+000000861+0000006990+0000000005+I20000000000+0000006990+Z
118846001118846105-003025     118846006001023594662CONTAINER RECT 28x19cm 0000001000+00002630+00000+0001T   00002630+0000001521          1400 AY6210               1AZ
118846002118846077-000407     118846006003000145096G/BAG PP 19X26X8CM     0000001000+00001314+00000+0001T   00001314+0000001521          1400 AY6112               1AZ
118846003118846200-003026     118846006003000276448REFUSE BAGS 10PCE GREEN0000001000+00001753+00000+0001T   00001753+0000001521          1400 AY6214               1AZ
118846004118846080-000133     118846006003000535613CARD&ENV MINI ASTD DSGN0000001000+00000437+00000+0001T   00000437+0000001521          1400 AY6112               1AZ
118847000118847               118847               170213EL     1400+00000+EL0000006136+0000006136+000000000+000000860+0000006990+0000000006+I20000000000+0000006990+Z
118847001118847018-000129     118847006001023403353MUG OCC. LOVE V-SHAPE  0000001000+00002630+00000+0001T   00002630+0000001526          1400 AY6515               1AZ
118847002118847077-000310     118847006001023608635GIFT-BAG 18X23CM GLOSS 0000001000+00001314+00000+0001T   00001314+0000001526          1400 AY6112               1AZ
118847003118847018-000170     118847006001023775528MUG OCC. LOVE 2PC MINI 0000001000+00002192+00000+0001T   00002192+0000001526          1400 AY6515               1AZ
118848000118848               118848               170213EL     1400+00000+EL0000004733+0000004733+000000000+000000664+0000005390+0000000007+I20000000000+0000005390+Z
118848001118848071-001004     118848006001023439154PENCIL-SHARPENER       0000001000+00001227+00000+0001T   00001227+0000001526          1400 AY6130               1AZ
118848002118848206-000120     118848006003000628308PEELER CARROT SHARPENER0000001000+00001753+00000+0001T   00001753+0000001526          1400 AY6321               1AZ
118848003118848071-000006     118848006001023732613PENCIL REFILLABLE 6PK  0000001000+00001753+00000+0001T   00001753+0000001526          1400 AY6130               1AZ
118849000118849               118849               170213EL     1400+00000+EL0000005259+0000005259+000000000+000000738+0000005990+0000000007+I20000000000+0000005990+Z
118849001118849006-000324     118849006001023818393PARTY POPPER`S PCK-OF-60000002000+00001753+00000+0001T   00001753+0000001538          1400 AY6131               1AZ
118849002118849006-000118     118849006001023730725BALLOONS 6PC TWISTER   0000001000+00001753+00000+0001T   00001753+0000001538          1400 AY6131               1AZ
118850000118850               118850               170213EL     1400+00000+EL0000005609+0000005609+000000000+000000787+0000006390+0000000006+I20000000000+0000006390+Z
118850001118850079-009702-D   118850008427973059354PAPER SIRIO A2 RED COL 0000002000+00001051+00000+0001T   00001051+0000001539          1400 AY6130               1AZ
118850002118850071-001010     118850006001023893314MARKERS-METALIC 3PCE   0000001000+00003507+00000+0001T   00003507+0000001539          1400 AY6130               1AZ
118851000118851               118851               170213EL     1400+00000+EL0000001753+0000001753+000000000+000000246+0000001990+0000000009+I20000000000+0000001990+Z
118851001118851080-000117     118851006003000236350CARD & ENVELOPE THANK U0000001000+00001753+00000+0001T   00001753+0000001542          1400 AY6112               1AZ
118852000118852               118852               170213EL     1400+00000+EL0000037163+0000037163+000000000+000005207+0000042370+0000000000+I20000000000+0000042370+Z
118852001118852466-009006     118852006003000639335BALL FOR BEACH BAT 52mm0000002000+00002630+00000+0001T   00002630+0000001545          1400 AY6785               1AZ
118852002118852467-000001     118852006002923008280BEACH BUCKET PL 17x16cm0000001000+00001578+00000+0001T   00001578+0000001545          1400 AY6785               1AZ
118852003118852467-000028     118852006003000397990BEACH-SET TRUCK 7PCE   0000001000+00010525+00000+0001T   00010525+0000001545          1400 AY6785               1AZ
118852004118852466-009004     118852006001023189288BEACH-BAT-SET W/BALL   0000002000+00005262+00000+0001T   00005262+0000001545          1400 AY6785               1AZ
118852005118852466-000020     118852006001023167941FRISBEE 25cm           0000001000+00002192+00000+0001T   00002192+0000001545          1400 AY6785               1AZ
118852006118852079-000275     118852006003000160488PAINT-BRUSHES 6PCE PRO 0000001000+00001753+00000+0001T   00001753+0000001545          1400 AY6130               1AZ
118852007118852265-000381     118852006001023827852BATTERY OPERATED BOAT  0000001000+00005262+00000+0001T   00005262+0000001545          1400 AY6710               1AZ
118852008118852112-116053     118852006006438002399TCS CARRIER BAG 38L    0000001000+00000069+00000+0001T   00000069+0000001545          1400 AY6090               1AZ
118853000118853               118853               170213EL     1400+00000+EL0000007016+0000007016+000000000+000000983+0000007990+0000000009+I20000000000+0000007990+Z
118853001118853366-002006     118853006001023902696DRESS UP WIGS PARTY ASS0000001000+00007016+00000+0001T   00007016+0000001546          1400 AY6131               1AZ
118854000118854               118854               170213EL     1400+00000+EL0000007661+0000007661+000000000+000001073+0000008734+0000000000+I40000008734+0000000000+Z
118854001118854077-000310     118854006001023608635GIFT-BAG 18X23CM GLOSS 0000002000+00001314+00000+0001T   00001314+0000001551          1400 AY6112               1AZ
118854002118854368-000049     118854006003000536955PLUSH BEAR 15cm LOVE   0000001000+00004385+00000+0001T   00004385+0000001551          1400 AY6745               1AZ
118854003118854304-001011     118854006001023806727FLWR ROSE RED W/BEAR   0000001000+00000613+00000+0001T   00000788+0006471551          1400 AY6510               1AZ
118854004118854112-116038     118854006009681820246TCS CARRIER BAG MIDI   0000001000+00000035+00000+0001T   00000035+0000001551          1400 AY6090               1AZ
118855000118855               118855               170213EL     1400+00000+EL0000007014+0000007014+000000000+000000982+0000007990+0000000006+I20000000000+0000007990+Z
118855001118855028-002101     118855006002580009507CHAIR JUNIOR    ASSTD  0000002000+00003507+00000+0001T   00003507+0000001610          1400 AY6305               1AZ
118856000118856               118856               170213EL     1400+00000+EL0000000876+0000000876+000000000+000000123+0000000990+0000000009+I20000000000+0000000990+Z
118856001118856071-001012     118856006001023474445MARKERS BLACK ROUND    0000001000+00000876+00000+0001T   00000876+0000001611          1400 AY6130               1AZ
118857000118857               118857               170213EL     1400+00000+EL0000000786+0000000786+000000000+000000112+0000000890+0000000008+I20000000000+0000000890+Z
118857001118857903-000183     118857006003000451043SWT LB HEART LOLLY     0000002000+00000393+00000+0001T   00000393+0000001612          1400 AY6150               1AZ
118858000118858               118858               170213EL     1400+00000+EL0000001753+0000001753+000000000+000000246+0000001990+0000000009+I20000000000+0000001990+Z
118858001118858051-002402     118858006001023518347TRIGGER-SPRAYER  500ml 0000001000+00001753+00000+0001T   00001753+0000001612          1400 AY6820               1AZ
118859000118859               118859               170213EL     1400+00000+EL0000035002+0000035002+000000000+000004913+0000039910+0000000005+I20000000000+0000039910+Z
118859001118859079-013109     118859006003000078912ART+CFT N/POINT 33X22CM0000002000+00004385+00000+0001T   00004385+0000001617          1400 AY6130               1AZ
118859002118859304-001011     118859006001023806727FLWR ROSE RED W/BEAR   0000004000+00000613+00000+0001T   00000788+0006471617          1400 AY6510               1AZ
118859003118859301-085001     118859006003000297610ORN WATERBALL LOVE ASST0000002000+00004823+00000+0001T   00004823+0000001617          1400 AY6505               1AZ
118859004118859565-000500     118859006003000636792NOVELTY CUSHION        0000001000+00001753+00000+0001T   00001753+0000001617          1400 AY6745               1AZ
118859005118859903-000844     118859005010478432567SWT CANDY DL LUV HEARTS0000002000+00001314+00000+0001T   00001314+0000001617          1400 AY6150               1AZ
118859006118859903-000194     118859006009826020616SWT CHOC RP LOLLY 25G  0000001000+00001314+00000+0001T   00001314+0000001617          1400 AY6150               1AZ
118859007118859903-000599     118859006003000608119SWEET BALLOONPUMP 18cm 0000002000+00002630+00000+0001T   00002630+0000001617          1400 AY6150               1AZ
118859008118859903-000183     118859006003000451043SWT LB HEART LOLLY     0000008000+00000393+00000+0001T   00000393+0000001617          1400 AY6150               1AZ
118859009118859112-116038     118859006009681820246TCS CARRIER BAG MIDI   0000001000+00000035+00000+0001T   00000035+0000001617          1400 AY6090               1AZ
118860000118860               118860               170213EL     1400+00000+EL0000002366+0000002366+000000000+000000332+0000002690+0000000008+I20000000000+0000002690+Z
118860001118860304-001011     118860006001023806727FLWR ROSE RED W/BEAR   0000001000+00000613+00000+0001T   00000788+0006471617          1400 AY6510               1AZ
118860002118860301-085006     118860006001023502940ORN LOVE MSG TUBE W/HRT0000001000+00001753+00000+0001T   00001753+0000001617          1400 AY6505               1AZ
118861000118861               118861               170213EL     1400+00000+EL0000007488+0000007488+000000000+000001049+0000008537+0000000000+I40000008537+0000000000+Z
118861001118861031-000851     118861006001023851994P/FRAME COL 4-H 31X17CM0000001000+00004385+00000+0001T   00004385+0000001623          1400 AY6510               1AZ
118861002118861366-007917     118861006003000653621DRESS UP MASK ANIMALS  0000001000+00000876+00000+0001T   00000876+0000001623          1400 AY6131               1AZ
118861003118861366-002810     118861006003000535620DRESSUP ANIMAL SET 3PCE0000001000+00002192+00000+0001T   00002192+0000001623          1400 AY6131               1AZ
118861004118861112-116038     118861006009681820246TCS CARRIER BAG MIDI   0000001000+00000035+00000+0001T   00000035+0000001623          1400 AY6090               1AZ
118862000118862               118862               170213EL     1400+00000+EL0000002192+0000002192+000000000+000000307+0000002490+0000000009+I20000000000+0000002490+Z
118862001118862563-000318-C   118862006003000403882SERVIETTES 33cm LIME   0000001000+00002192+00000+0001T   00002192+0000001629          1400 AY6214               1AZ
118863000118863               118863               170213EL     1400+00000+EL0000007049+0000007049+000000000+000000987+0000008030+0000000006+I20000000000+0000008030+Z
118863001118863018-000136     118863006001023659026MUG OCC LOVE W/PLUSH   0000001000+00003507+00000+0001T   00003507+0000001631          1400 AY6515               1AZ
118863002118863018-000130     118863006001023867537MUG OCC LOVE MINI+HEART0000001000+00003507+00000+0001T   00003507+0000001631          1400 AY6515               1AZ
118863003118863112-116038     118863006009681820246TCS CARRIER BAG MIDI   0000001000+00000035+00000+0001T   00000035+0000001631          1400 AY6090               1AZ
118864000118864               118864               170213EL     1400+00000+EL0000000734+0000000734+000000000+000000104+0000000830+0000000008+I20000000000+0000000830+Z
118864001118864079-009700-D   118864006003000545711PAPER SIRIO A4 RED COL.0000001000+00000306+00000+0001T   00000306+0000001636          1400 AY6130               1AZ
118864002118864903-000183     118864006003000451043SWT LB HEART LOLLY     0000001000+00000393+00000+0001T   00000393+0000001636          1400 AY6150               1AZ
118864003118864112-116038     118864006009681820246TCS CARRIER BAG MIDI   0000001000+00000035+00000+0001T   00000035+0000001636          1400 AY6090               1AZ
118865000118865               118865               170213EL     1400+00000+EL0000005295+0000005295+000000000+000000743+0000006038+0000000000+I40000006038+0000000000+Z
118865001118865006-000203-A   118865006003453011856SNACK BOX 6PCE ASSTD   0000001000+00002630+00000+0001T   00002630+0000001638          1400 AY6131               1AZ
118865002118865006-000203-A   118865006003453010965SNACK BOX 6PCE ASSTD   0000001000+00002630+00000+0001T   00002630+0000001638          1400 AY6131               1AZ
118865003118865112-116038     118865006009681820246TCS CARRIER BAG MIDI   0000001000+00000035+00000+0001T   00000035+0000001638          1400 AY6090               1AZ
118866000118866               118866               170213EL     1400+00000+EL0000007013+0000007013+000000000+000000983+0000007996+0000000000+I40000007996+0000000000+Z
118866001118866079-006500     118866006001023557186GLUE GLITTER 6/10 PCE  0000001000+00001753+00000+0001T   00001753+0000001639          1400 AY6130               1AZ
118866002118866566-001228     118866006003000284153STICKERS CRYSTAL ASSTD 0000001000+00001753+00000+0001T   00001753+0000001639          1400 AY6130               1AZ
118866003118866007-000324     11886600600968585864125 SHEETS BRIGHTS MARLI0000001000+00003507+00000+0001T   00003507+0000001639          1400 AY6130               1AZ
118867000118867               118867               170213EL     1400+00000+EL0000005254-0000005254-000000000+000000736-0000005990-0000000000+I20000000000+0000005990-Z
118867001118867001-999904     118867000000000999904PROMO/ADVERTISING      0000001000-00005254+00000+0001T   00000000+0000001643          1400 AY69042IC            1 Z
118868000118868               118868               170213EL     1400+00000+EL0000011399+0000011399+000000000+000001597+0000012996+0000000000+I40000012996+0000000000+Z
118868001118868105-001010     118868006002580007329LUNCH-BOX 1L  ASSTD    0000003000+00000876+00000+0001T   00000876+0000001652          1400 AY6210               1AZ
118868003118868028-000027     118868006003000275816C/BAG+POCKET 27x18x23cm0000001000+00008771+00000+0001T   00008771+0000001652          1400 AY6305               1AZ
118869000118869               118869               170213EL     1400+00000+EL0000000613+0000000613+000000000+000000086+0000000690+0000000009+I20000000000+0000000690+Z
118869001118869077-000311     118869006001023608666GIFT-BAG 11X14CM GLOSS 0000001000+00000613+00000+0001T   00000613+0000001653          1400 AY6112               1AZ
118870000118870               118870               170213EL     1400+00000+EL0000004822+0000004822+000000000+000000676+0000005490+0000000008+I20000000000+0000005490+Z
118870001118870082-007584     118870006003000653973SUNGLASS DESIGNER ASST 0000001000+00004385+00000+0001T   00004385+0000001653          1400 AY6160               1AZ
118870002118870083-000049     118870004891035200024CIG-LIGHTER DISPOSABLE 0000001000+00000437+00000+0001T   00000437+0000001653          1400 AY6315               1AZ
118871000118871               118871               170213EL     1400+00000+EL0000004385+0000004385+000000000+000000614+0000004999+0000000000+I40000004999+0000000000+Z
118871001118871082-007587     118871006003000654338SUNGLASS DESIGNER ASST 0000001000+00004385+00000+0001T   00004385+0000001700          1400 AY6160               1AZ
118872000118872               118872               170213EL     1400+00000+EL0000001753+0000001753+000000000+000000246+0000001990+0000000009+I20000000000+0000001990+Z
118872001118872046-000014-A   118872004897006177708BATTERIES SIZE:AAA 8PCE0000001000+00001753+00000+0001T   00001753+0000001702          1400 AY6312               1AZ
118873000118873               118873               170213EL     1400+00000+EL0000005260+0000005260+000000000+000000738+0000005998+0000000000+I40000005998+0000000000+Z
118873001118873463-000366     118873006001023789136SWIM W/NOODLE 150cm    0000002000+00002630+00000+0001T   00002630+0000001704          1400 AY6785               1AZ
118874000118874               118874               170213EL     1400+00000+EL0000004384+0000004384+000000000+000000614+0000004998+0000000000+I40000004998+0000000000+Z
118874001118874563-000318-L   118874006003000407088SERVIETTES 33cm RED    0000001000+00002192+00000+0001T   00002192+0000001707          1400 AY6214               1AZ
118874002118874080-000127     118874006003000424351VALENTINES DAY 36x24CM 0000001000+00002192+00000+0001T   00002192+0000001707          1400 AY6112               1AZ
118875000118875               118875               170213EL     1400+00000+EL0000000048+0000000048+000000000+000000007+0000000050+0000000005+I20000000000+0000000050+Z
118875001118875112-116069     118875006009681820277TCS CARRIER BAG JUMBO  0000001000+00000048+00000+0001T   00000048+0000001707          1400 AY6090               1AZ
118876000118876               118876               170213EL     1400+00000+EL0000001927+0000001927+000000000+000000271+0000002190+0000000008+I20000000000+0000002190+Z
118876001118876077-000299     118876006003000395576G/BAG 32x25cm LRG LOVE 0000001000+00001490+00000+0001T   00001490+0000001711          1400 AY6112               1AZ
118876002118876080-000133-A   118876006003000647019MINI VALENTINES CARD   0000001000+00000437+00000+0001T   00000437+0000001711          1400 AY6112               1AZ
118877000118877               118877               170213EL     1400+00000+EL0000000831+0000000831+000000000+000000117+0000000940+0000000008+I20000000000+0000000940+Z
118877001118877006-001000     118877006003000093779HELIUM BALLOON FILL    0000001000+00000613+00000+0001T   00000613+0000001712          1400 AY6131               1AZ
118877002118877006-000171-C   118877006003000609178BALLOONS 1PC D/GRN PRNT0000001000+00000218+00000+0001T   00000218+0000001712          1400 AY6131               1AZ
118878000118878               118878               170213EL     1400+00000+EL0000001578+0000001578+000000000+000000221+0000001799+0000000000+I40000001799+0000000000+Z
118878001118878024-000036     118878006001023477002MEASURING-JUG 500ml    0000001000+00001578+00000+0001T   00001578+0000001715          1400 AY6300               1AZ
118879000118879               118879               170213EL     1400+00000+EL0000005260+0000005260+000000000+000000737+0000005997+0000000000+I40000005997+0000000000+Z
118879001118879016-006518     118879006003000351749S/JAR GLS CHECK 350ML  0000001000+00001753+00000+0001T   00001753+0000001716          1400 AY6300               1AZ
118879002118879054-009026     118879006001023627735PAINT-BRUSH ASSTD      0000001000+00003507+00000+0001T   00003507+0000001716          1400 AY6810               1AZ
118880000118880               118880               170213EL     1400+00000+EL0000001490+0000001490+000000000+000000209+0000001699+0000000000+I40000001699+0000000000+Z
118880001118880077-000299     118880006003000395576G/BAG 32x25cm LRG LOVE 0000001000+00001490+00000+0001T   00001490+0000001732          1400 AY6112               1AZ
118881000118881               118881               170213EL     1400+00000+EL0000008802+0000008802+000000000+000001234+0000010036+0000000000+I40000010036+0000000000+Z
118881001118881361-090311     118881006003000542895PONY 8cmx9cm PERFECT   0000001000+00002630+00000+0001T   00002630+0000001733          1400 AY6725               1AZ
118881002118881562-000052     118881006003000112333EDU EXCAVATION DIAMOND 0000001000+00003507+00000+0001T   00003507+0000001733          1400 AY6755               1AZ
118881003118881562-000504     118881006001023619327EDU CUBE RUBIX         0000001000+00002630+00000+0001T   00002630+0000001733          1400 AY6755               1AZ
118881004118881112-116038     118881006009681820246TCS CARRIER BAG MIDI   0000001000+00000035+00000+0001T   00000035+0000001733          1400 AY6090               1AZ
A17021300                                          12190682ELSLAVE 1                       AY62IC
A17021301                                          14480616ELSLAVE 1                       AY61IC
A17021302                                          17203618ELSLAVE 1                       AY63IC
C11882500                                          170213EL077-000315     14012578SLAVE 1     AY62IC0000000000+0000000000+0010000001000+
C11886800                                          170213EL028-000030     16500092SLAVE 1     AY63IC0000000000+0000000000+0020000001000+
M17021391                              CASH        ELSLAVE 1                       Z-REPORT No.   594TOTAL (Sales - Refunds)           8442.74       CASH TO BE BANKED                 3715.40       DEBIT CARDS                          0.00       CREDIT CARDS                      4667.44       Z-READING                         8382.84       AIRTIME DEBIT CARD SALES             0.00       AIRTIME CARD SALES                   0.00       OVERS/UNDERS                         0.00       AIRTIME CASH SALES                   0.00       GIFT CARDS                           0.00       GIFT CARD CASH SALES                 0.00       PROMO/ADVERTISING                   59.90       T O T A L  CASH PAYOUTS             59.90                                                                                                                                                                                                                                                                                                      Z
M17021392                              CASH        ELABSENT                                                                                                                                                                                          ANNUAL LEAVE                                                                                                                                                                                    DAY OFF                                                                                                                                                                                         COMMENTS                                                                                                                                                                                                                                                                                                                                                                                       Z
Y17021300                                          EL00000000740940+000105
ZEL17021319333 SLAVE 1      SALES DATA                     NEXT INVOICE NO.  118882 0594
X EL Slave 1 First invoice 118776 170213 Last invoice 118881 170213 Next invoice 118882 Total number of records 000000347 clbackup completed 19:33:57
