126364000126364               126364               170213EL     1400+00000+EL0000011616+0000011616+000000000+000001630+0000013246+0000000000+I40000013246+0000000000+Z
126364001126364001-000167     126364006001023679659TUMBLER 340ml WILLY    0000006000+00000876+00000+0001T   00000876+0000000941          1400 KE7515               2AZ
126364002126364903-000095     126364006001704011495SWT SPECKLED-EGGS 100G 0000003000+00002104+00000+0001T   00002104+0000000941          1400 KE7150               2AZ
126364003126364112-116069     126364006009681820277TCS CARRIER BAG JUMBO  0000001000+00000048+00000+0001T   00000048+0000000941          1400 KE7090               2AZ
126365000126365               126365               170213EL     1400+00000+EL0000007927+0000007927+000000000+000001110+0000009030+0000000007+I20000000000+0000009030+Z
126365001126365031-000002-A   126365006003000247103P/FRAME LOVE 7.5X7.5CM 0000001000+00003507+00000+0001T   00003507+0000001238          1400 KE7510               2AZ
126365002126365031-000001-A   126365006003000246908P/FRAME GLS LOVE 9X13cm0000001000+00004385+00000+0001T   00004385+0000001238          1400 KE7510               2AZ
126365003126365112-116038     126365006009681820246TCS CARRIER BAG MIDI   0000001000+00000035+00000+0001T   00000035+0000001238          1400 KE7090               2AZ
126366000126366               126366               170213EL     1400+00000+EL0000016006+0000016006+000000000+000002243+0000018240+0000000009+I20000000000+0000018240+Z
126366001126366080-000114     126366006003000246472CARD&ENV LOVE-MUSICAL  0000001000+00001314+00000+0001T   00001753+0008151244          1400 KE7112               2AZ
126366002126366368-000049     126366006003000536955PLUSH BEAR 15cm LOVE   0000001000+00004385+00000+0001T   00004385+0000001244          1400 KE7745               2AZ
126366003126366361-009988     126366006001023866011PONY 24cm W/SIDE-SADDLE0000001000+00006139+00000+0001T   00006139+0000001244          1400 KE7725               2AZ
126366004126366565-004101     126366006003000548033BALL BOUNCING EGG      0000001000+00001490+00000+0001T   00001490+0000001244          1400 KE7745               2AZ
126366005126366565-000893     126366006003000643516NOVELTY FLASHING BALL  0000001000+00002630+00000+0001T   00002630+0000001244          1400 KE7745               2AZ
126366006126366112-116069     126366006009681820277TCS CARRIER BAG JUMBO  0000001000+00000048+00000+0001T   00000048+0000001244          1400 KE7090               2AZ
126367000126367               126367               170213EL     1400+00000+EL0000004384+0000004384+000000000+000000614+0000004990+0000000008+I20000000000+0000004990+Z
126367001126367077-000926     126367006003000414178G/WRAP 700mmx2m LOVE   0000002000+00002192+00000+0001T   00002192+0000001255          1400 KE7112               2AZ
126368000126368               126368               170213EL     1400+00000+EL0000008641+0000008641+000000000+000001211+0000009850+0000000002+I20000000000+0000009850+Z
126368001126368369-001000     126368006003000551446SQUEEZE CARS 2PC VINYL 0000001000+00002630+00000+0001T   00002630+0000001303          1400 KE7745               2AZ
126368002126368369-001029     126368006001023795854BABY RATTLE/TEETHER ASS0000001000+00001578+00000+0001T   00001578+0000001303          1400 KE7745               2AZ
126368003126368065-003701     126368006001023712912MUSICAL SAXOPHONE      0000001000+00004385+00000+0001T   00004385+0000001303          1400 KE7745               2AZ
126368004126368112-116069     126368006009681820277TCS CARRIER BAG JUMBO  0000001000+00000048+00000+0001T   00000048+0000001303          1400 KE7090               2AZ
126369000126369               126369               170213EL     1400+00000+EL0000010995+0000010995+000000000+000001540+0000012530+0000000005+I20000000000+0000012530+Z
126369001126369563-000318-L   126369006003000407088SERVIETTES 33cm RED    0000005000+00002192+00000+0001T   00002192+0000001306          1400 KE7214               2AZ
126369002126369112-116038     126369006009681820246TCS CARRIER BAG MIDI   0000001000+00000035+00000+0001T   00000035+0000001306          1400 KE7090               2AZ
126370000126370               126370               170213EL     1400+00000+EL0000009208+0000009208+000000000+000001290+0000010490+0000000008+I20000000000+0000010490+Z
126370001126370566-000320     126370006003000422890STICKERS R/DEC. NATURE 0000001000+00005262+00000+0001T   00005262+0000001310          1400 KE7130               2AZ
126370002126370159-000103     126370006001023890214SHOWER CADDY PL-COATED 0000001000+00003946+00000+0001T   00003946+0000001310          1400 KE7200               2AZ
126371000126371               126371               170213EL     1400+00000+EL0000005262+0000005262+000000000+000000737+0000005990+0000000009+I20000000000+0000005990+Z
126371001126371301-086004     126371006001023860422ORN SENTIMENT PLAQ/FRAM0000001000+00005262+00000+0001T   00005262+0000001313          1400 KE7505               2AZ
126372000126372               126372               170213EL     1400+00000+EL0000000876+0000000876+000000000+000000123+0000000990+0000000009+I20000000000+0000000990+Z
126372001126372077-000302     126372008010410010195GIFT-BAG 18X23CM E/D   0000001000+00000876+00000+0001T   00000876+0000001325          1400 KE7112               2AZ
126373000126373               126373               170213EL     1400+00000+EL0000001753+0000001753+000000000+000000246+0000001990+0000000009+I20000000000+0000001990+Z
126373001126373080-000123     126373006003000237722CARD&ENVELOPE-SYMPATHY 0000001000+00001753+00000+0001T   00001753+0000001436          1400 KE7112               2AZ
126374000126374               126374               170213EL     1400+00000+EL0000000437+0000000437+000000000+000000062+0000000490+0000000009+I20000000000+0000000490+Z
126374001126374083-000049     126374004891035200024CIG-LIGHTER DISPOSABLE 0000001000+00000437+00000+0001T   00000437+0000001533          1400 KE7315               2AZ
126375000126375               126375               170213EL     1400+00000+EL0000002192+0000002192+000000000+000000307+0000002490+0000000009+I20000000000+0000002490+Z
126375001126375047-005126     126375006001023451255CABLETIES 100/150/200mm0000001000+00002192+00000+0001T   00002192+0000001536          1400 KE7880               2AZ
126376000126376               126376               170213EL     1400+00000+EL0000028135+0000028135+000000000+000003940+0000032070+0000000005+I20000000000+0000032070+Z
126376001126376040-000229     126376006001023845467C/HOLDER MTL WHITE CRWN0000001000+00005262+00000+0001T   00005262+0000001555          1400 KE7510               2AZ
126376002126376301-006020     126376006003000461493ORN OWL 8x6.5cm 4-ASSTD0000001000+00005262+00000+0001T   00005262+0000001555          1400 KE7505               2AZ
126376003126376361-000663     126376006001023747884DOLLS 26CM TWINS SOFT  0000001000+00017542+00000+0001T   00017542+0000001555          1400 KE7725               2AZ
126376004126376112-116053     126376006006438002399TCS CARRIER BAG 38L    0000001000+00000069+00000+0001T   00000069+0000001555          1400 KE7090               2AZ
126377000126377               126377               170213EL     1400+00000+EL0000004385+0000004385+000000000+000000614+0000004990+0000000009+I20000000000+0000004990+Z
126377001126377006-000190     126377006003000685530BALLOONS LOVE 81x91cm  0000001000+00004385+00000+0001T   00004385+0000001556          1400 KE7131               2AZ
126378000126378               126378               170213EL     1400+00000+EL0000006611+0000006611+000000000+000000926+0000007530+0000000007+I20000000000+0000007530+Z
126378001126378033-005907     126378006003000433506SHOE LACES 4-PAIR SET  0000003000+00002192+00000+0001T   00002192+0000001558          1400 KE7200               2AZ
126378002126378112-116038     126378006009681820246TCS CARRIER BAG MIDI   0000001000+00000035+00000+0001T   00000035+0000001558          1400 KE7090               2AZ
126379000126379               126379               170213EL     1400+00000+EL0000001227+0000001227+000000000+000000172+0000001390+0000000009+I20000000000+0000001390+Z
126379001126379077-000319     126379006001023609779GIFT-BAG 18X23CM BIRTHD0000001000+00001227+00000+0001T   00001227+0000001706          1400 KE7112               2AZ
126380000126380               126380               170213EL     1400+00000+EL0000002630+0000002630+000000000+000000369+0000002999+0000000000+I40000002999+0000000000+Z
126380001126380466-000515     126380006001023477408BALLS TENNIS BAG-OF-3  0000001000+00002630+00000+0001T   00002630+0000001713          1400 KE7785               2AZ
126381000126381               126381               170213EL     1400+00000+EL0000004908+0000004908+000000000+000000688+0000005596+0000000000+I40000005596+0000000000+Z
126381001126381033-001400     126381006009654960474HAIR-CURLERS 10PCE SML 0000001000+00001227+00000+0001T   00001227+0000001714          1400 KE7200               2AZ
126381002126381033-001401     126381006009654960481HAIR-CURLERS 8PCE MED  0000003000+00001227+00000+0001T   00001227+0000001714          1400 KE7200               2AZ
126382000126382               126382               170213EL     1400+00000+EL0000002454+0000002454+000000000+000000344+0000002790+0000000008+I20000000000+0000002790+Z
126382001126382077-000245     126382006001023759214GIFT-RIBBON METALLICx2 0000002000+00001227+00000+0001T   00001227+0000001715          1400 KE7112               2AZ
126383000126383               126383               170213EL     1400+00000+EL0000008451+0000008451+000000000+000001184+0000009635+0000000000+I40000009635+0000000000+Z
126383001126383368-000049     126383006003000536955PLUSH BEAR 15cm LOVE   0000001000+00004385+00000+0001T   00004385+0000001740          1400 KE7745               2AZ
126383002126383077-000303     126383006001023593757GIFT-BAG PAPER MED     0000001000+00001578+00000+0001T   00001578+0000001740          1400 KE7112               2AZ
126383003126383903-000087     126383006001704000161SWT SPECKLED-EGGS 50G  0000001000+00001139+00000+0001T   00001139+0000001740          1400 KE7150               2AZ
126383004126383903-004950     126383006002580020304SWT APRICOT SURPRISE   0000001000+00001314+00000+0001T   00001314+0000001740          1400 KE7150               2AZ
126383005126383112-116038     126383006009681820246TCS CARRIER BAG MIDI   0000001000+00000035+00000+0001T   00000035+0000001740          1400 KE7090               2AZ
126384000126384               126384               170213EL     1400+00000+EL0000001753+0000001753+000000000+000000246+0000001990+0000000009+I20000000000+0000001990+Z
126384001126384200-003024     126384006001023657299REFUSE BAGS 20PCE BLACK0000001000+00001753+00000+0001T   00001753+0000001740          1400 KE7214               2AZ
126385000126385               126385               170213EL     1400+00000+EL0000005217+0000005217+000000000+000000731+0000005948+0000000000+I40000005948+0000000000+Z
126385001126385082-000105     126385006003000360369READING GLS STRNGHT:1.50000001000+00004385+00000+0001T   00004385+0000001750          1400 KE7160               2AZ
126385002126385159-000150-B   126385006003000058440SOAP-BOX PL ASSORTED   0000001000+00000832+00000+0001T   00000832+0000001750          1400 KE7200               2AZ
126386000126386               126386               170213EL     1400+00000+EL0000007891+0000007891+000000000+000001106+0000008990+0000000007+I20000000000+0000008990+Z
126386001126386567-010556     126386009780755484393BOOK WOBBLY EYE BUGS   0000001000+00001753+00000+0001T   00001753+0000001754          1400 KE7757               2AZ
126386002126386567-011010     126386000780001754678BOOK CHILDREN'S READER 0000001000+00001753+00000+0001T   00002630+0008131754          1400 KE7757               2AZ
126386003126386567-010568     126386009781472364807BOOK AND CD FAIRYTALES 0000001000+00004385+00000+0001T   00004385+0000001754          1400 KE7757               2AZ
126387000126387               126387               170213EL     1400+00000+EL0000000874+0000000874+000000000+000000124+0000000990+0000000008+I20000000000+0000000990+Z
126387001126387007-000203     126387006009685850409FILE DISPLAY FLDR ASSTD0000002000+00000437+00000+0001T   00000437+0000001755          1400 KE7130               2AZ
126388000126388               126388               170213EL     1400+00000+EL0000000700+0000000700+000000000+000000098+0000000790+0000000008+I20000000000+0000000790+Z
126388001126388903-000120     126388006002099001665SWEET GS ZILLIONS 50g  0000001000+00000700+00000+0001T   00000700+0000001756          1400 KE7150               2AZ
126389000126389               126389               170213EL     1400+00000+EL0000002192+0000002192+000000000+000000307+0000002490+0000000009+I20000000000+0000002490+Z
126389001126389366-002810     126389006003000535620DRESSUP ANIMAL SET 3PCE0000001000+00002192+00000+0001T   00002192+0000001800          1400 KE7131               2AZ
A17021300                                          12221392ELSLAVE 2                       KE71IC
M17021391                              CASH        ELSLAVE 2                       Z-REPORT No.   598TOTAL (Sales - Refunds)           1785.24       CASH TO BE BANKED                 1411.00       DEBIT CARDS                          0.00       CREDIT CARDS                       374.24       Z-READING                         1785.24       AIRTIME DEBIT CARD SALES             0.00       AIRTIME CARD SALES                   0.00       OVERS/UNDERS                         0.00       AIRTIME CASH SALES                   0.00       GIFT CARDS                           0.00       GIFT CARD CASH SALES                 0.00       T O T A L  CASH PAYOUTS              0.00                                                                                                                                                                                                                                                                                                                                                      Z
M17021392                              CASH        ELABSENT                                                                                                                                                                                          ANNUAL LEAVE                                                                                                                                                                                    DAY OFF                                                                                                                                                                                         COMMENTS                                                                                                                                                                                                                                                                                                                                                                                       Z
Y17021300                                          EL00000000156725+000026
ZEL17021319333 SLAVE 2      SALES DATA                     NEXT INVOICE NO.  126390 0598
X EL Slave 2 First invoice 126364 170213 Last invoice 126389 170213 Next invoice 126390 Total number of records 000000083 clbackup completed 19:33:59
