674243000674243               674243               170213EM     1400+00000+EM0000001750+0000001750+000000000+000000245+0000001990+0000000005+I20000000000+0000001990+Z
674243001674243007-000167     674243006009685857347SPIRAL NOTES A7 72PG   0000005000+00000350+00000+0001T   00000350+0000000900          1400 VR6130               2BZ
674244000674244               674244               170213EM     1400+00000+EM0000002892+0000002892+000000000+000000406+0000003290+0000000008+I20000000000+0000003290+Z
674244001674244002-000801     674244006003000555994PEELER PL/MTL Y-SHAPE  0000001000+00001139+00000+0001T   00001139+0000001007          1400 VR6300               2BZ
674244002674244020-006200     674244006001023488510KNIVES PARING 2PCE H/H 0000001000+00001753+00000+0001T   00001753+0000001007          1400 VR6300               2BZ
674245000674245               674245               170213EM     1400+00000+EM0000013715+0000013715+000000000+000001927+0000015640+0000000002+I20000000000+0000015640+Z
674245001674245077-000299     674245006003000395576G/BAG 32x25cm LRG LOVE 0000001000+00001490+00000+0001T   00001490+0000001009          1400 VR6112               2BZ
674245002674245077-000311     674245006001023608666GIFT-BAG 11X14CM GLOSS 0000002000+00000613+00000+0001T   00000613+0000001009          1400 VR6112               2BZ
674245003674245018-000129     674245006001023403353MUG OCC. LOVE V-SHAPE  0000002000+00002630+00000+0001T   00002630+0000001009          1400 VR6515               2BZ
674245004674245903-000155     674245006009803374435SWT LOLLY I LUV U HEART0000005000+00000525+00000+0001T   00000525+0000001009          1400 VR6150               2BZ
674245005674245112-116069     674245006009681820277TCS CARRIER BAG JUMBO  0000001000+00000048+00000+0001T   00000048+0000001009          1400 VR6090               2BZ
674245006674245903-000613     674245006003000617173SWT LIPS DUMMY 10G     0000001000+00001490+00000+0001T   00001490+0000001009          1400 VR6150               2BZ
674245007674245903-000200     674245006009826020234SWT CHOC RP CHOCO 23G  0000002000+00000788+00000+0001T   00000788+0000001009          1400 VR6150               2BZ
674246000674246               674246               170213EM     1400+00000+EM0000001753+0000001753+000000000+000000246+0000001990+0000000009+I20000000000+0000001990+Z
674246001674246046-002032-PK2 674246004897006175063BATTERIES CR-2032  2PCE0000001000+00001753+00000+0001T   00001753+0000001010          1400 VR6312               2BZ
674247000674247               674247               170213EM     1400+00000+EM0000001753+0000001753+000000000+000000246+0000001990+0000000009+I20000000000+0000001990+Z
674247001674247200-003024     674247006001023657299REFUSE BAGS 20PCE BLACK0000001000+00001753+00000+0001T   00001753+0000001011          1400 VR6214               2BZ
674248000674248               674248               170213EM     1400+00000+EM0000014886+0000014886+000000000+000002087+0000016970+0000000003+I20000000000+0000016970+Z
674248001674248306-000021-A   674248006001023891358EARBUDS COTTON 100PCE  0000002000+00000876+00000+0001T   00000876+0000001016          1400 VR6200               2BZ
674248002674248071-081101-A   674248006003000326549GLUE-STICK 25g BLISTER 0000001000+00000788+00000+0001T   00000788+0000001016          1400 VR6130               2BZ
674248003674248108-005005     674248006003000667451TRAY PL 29x21cm RECT   0000002000+00001753+00000+0001T   00001753+0000001016          1400 VR6210               2BZ
674248004674248112-116053     674248006006438002399TCS CARRIER BAG 38L    0000001000+00000069+00000+0001T   00000069+0000001016          1400 VR6090               2BZ
674248005674248073-000518     674248006003000283743COSMETIC BAG 2-DIV     0000001000+00008771+00000+0001T   00008771+0000001016          1400 VR6200               2BZ
674249000674249               674249               170213EM     1400+00000+EM0000005262+0000005262+000000000+000000737+0000005990+0000000009+I20000000000+0000005990+Z
674249001674249266-001025     674249006003000108756BOYS TOYS SWORD 75cm   0000001000+00005262+00000+0001T   00005262+0000001016          1400 VR6710               2BZ
674250000674250               674250               170213EM     1400+00000+EM0000002630+0000002630+000000000+000000369+0000002990+0000000009+I20000000000+0000002990+Z
674250001674250903-000591     674250006003000563616SWEET ANIMAL 24cm      0000001000+00002630+00000+0001T   00002630+0000001017          1400 VR6150               2BZ
674251000674251               674251               170213EM     1400+00000+EM0000004293+0000004293+000000000+000000602+0000004890+0000000005+I20000000000+0000004890+Z
674251001674251903-000194     674251006009826020616SWT CHOC RP LOLLY 25G  0000001000+00001314+00000+0001T   00001314+0000001059          1400 VR6150               2BZ
674251002674251018-000127     674251006001023380289MUG OCC STRAIGHT LOVE  0000001000+00001578+00000+0001T   00001753+0006471059          1400 VR6515               2BZ
674251003674251080-000133-A   674251006003000647019MINI VALENTINES CARD   0000001000+00000437+00000+0001T   00000437+0000001059          1400 VR6112               2BZ
674251004674251903-000843     674251008693029031067SWT GUMMY JELAXY 80G   0000001000+00000964+00000+0001T   00000964+0000001059          1400 VR6150               2BZ
674252000674252               674252               170213EM     1400+00000+EM0000000613+0000000613+000000000+000000086+0000000690+0000000009+I20000000000+0000000690+Z
674252001674252077-000311     674252006001023608666GIFT-BAG 11X14CM GLOSS 0000001000+00000613+00000+0001T   00000613+0000001119          1400 VR6112               2BZ
674253000674253               674253               170213EM     1400+00000+EM0000008592+0000008592+000000000+000001203+0000009790+0000000005+I20000000000+0000009790+Z
674253001674253018-000136     674253006001023659026MUG OCC LOVE W/PLUSH   0000001000+00003507+00000+0001T   00003507+0000001121          1400 VR6515               2BZ
674253002674253301-085004     674253006003000420469ORN LOVE PLAQUE 21X10CM0000001000+00003507+00000+0001T   00003946+0006471121          1400 VR6505               2BZ
674253003674253077-000303     674253006001023593757GIFT-BAG PAPER MED     0000001000+00001578+00000+0001T   00001578+0000001121          1400 VR6112               2BZ
674254000674254               674254               170213EM     1400+00000+EM0000000876+0000000876+000000000+000000123+0000000990+0000000009+I20000000000+0000000990+Z
674254001674254903-003080     674254005907029004673SWT SNACK STIX CHOC 50g0000001000+00000876+00000+0001T   00000876+0000001122          1400 VR6150               2BZ
674255000674255               674255               170213EM     1400+00000+EM0000002192+0000002192+000000000+000000307+0000002490+0000000009+I20000000000+0000002490+Z
674255001674255019-071597     674255006008766071597PEBBLES 250g CLEAR  BAG0000001000+00002192+00000+0001T   00002192+0000001126          1400 VR6510               2BZ
674256000674256               674256               170213EM     1400+00000+EM0000008770+0000008770+000000000+000001228+0000009998+0000000000+I40000009998+0000000000+Z
674256001674256368-000049     674256006003000536955PLUSH BEAR 15cm LOVE   0000002000+00004385+00000+0001T   00004385+0000001129          1400 VR6745               2BZ
674257000674257               674257               170213EM     1400+00000+EM0000000876+0000000876+000000000+000000123+0000000990+0000000009+I20000000000+0000000990+Z
674257001674257566-000200     674257006003000384174STICKER PUFFY NEON     0000001000+00000876+00000+0001T   00000876+0000001129          1400 VR6130               2BZ
674258000674258               674258               170213EM     1400+00000+EM0000009382+0000009382+000000000+000001315+0000010697+0000000000+I40000010697+0000000000+Z
674258001674258046-000015     674258006001023680839BATTERIES SIZE:D   2PCE0000001000+00002367+00000+0001T   00002367+0000001131          1400 VR6312               2BZ
674258002674258036-000405     674258006001023630247CLOTHES DRYER PL 18-PEG0000001000+00004385+00000+0001T   00004385+0000001131          1400 VR6212               2BZ
674258003674258036-000402     674258006003000572250CLOTHES DRYER WITH PEGS0000001000+00002630+00000+0001T   00002630+0000001131          1400 VR6212               2BZ
674259000674259               674259               170213EM     1400+00000+EM0000034006+0000034006+000000000+000004763+0000038769+0000000000+I40000038769+0000000000+Z
674259001674259112-116053     674259006006438002399TCS CARRIER BAG 38L    0000001000+00000069+00000+0001T   00000069+0000001133          1400 VR6090               2BZ
674259002674259031-000924     674259006001023669964P/FRAME COLLAGE PL     0000001000+00008771+00000+0001T   00008771+0000001133          1400 VR6510               2BZ
674259003674259001-091415     674259006003000329113W/GLS OCC. LOVE 2PC 2800000001000+00008771+00000+0001T   00009648+0006471133          1400 VR6515               2BZ
674259004674259031-000923     674259006001023669933P/FRAME BLK W/WORDS    0000001000+00003507+00000+0001T   00003507+0000001133          1400 VR6510               2BZ
674259005674259077-000299     674259006003000395576G/BAG 32x25cm LRG LOVE 0000001000+00001490+00000+0001T   00001490+0000001133          1400 VR6112               2BZ
674259006674259368-000003     674259006003000098231PLUSH PONY 23cm        0000001000+00007016+00000+0001T   00007016+0000001133          1400 VR6745               2BZ
674259007674259077-000303     674259006001023593757GIFT-BAG PAPER MED     0000001000+00001578+00000+0001T   00001578+0000001133          1400 VR6112               2BZ
674259008674259903-000194     674259006009826020616SWT CHOC RP LOLLY 25G  0000001000+00001314+00000+0001T   00001314+0000001133          1400 VR6150               2BZ
674259009674259903-000613     674259006003000617173SWT LIPS DUMMY 10G     0000001000+00001490+00000+0001T   00001490+0000001133          1400 VR6150               2BZ
674260000674260               674260               170213EM     1400+00000+EM0000007060+0000007060+000000000+000000990+0000008050+0000000000+I20000000000+0000008050+Z
674260001674260103-000054     674260006003000676170BAMBOO BASKET RECT     0000002000+00002192+00000+0001T   00002192+0000001134          1400 VR6300               2BZ
674260002674260077-000151     674260006008766114676GIFT-WRAP C/PHANE ASSTD0000003000+00000876+00000+0001T   00000876+0000001134          1400 VR6112               2BZ
674260003674260112-116069     674260006009681820277TCS CARRIER BAG JUMBO  0000001000+00000048+00000+0001T   00000048+0000001134          1400 VR6090               2BZ
674261000674261               674261               170213EM     1400+00000+EM0000002240+0000002240+000000000+000000314+0000002550+0000000004+I20000000000+0000002550+Z
674261001674261080-000127     674261006003000424351VALENTINES DAY 36x24CM 0000001000+00002192+00000+0001T   00002192+0000001134          1400 VR6112               2BZ
674261002674261112-116069     674261006009681820277TCS CARRIER BAG JUMBO  0000001000+00000048+00000+0001T   00000048+0000001134          1400 VR6090               2BZ
674262000674262               674262               170213EM     1400+00000+EM0000004644+0000004644+000000000+000000651+0000005295+0000000000+I40000005295+0000000000+Z
674262001674262106-002110     674262006002580007312JUICE-BOTTLE JUMBO     0000001000+00000700+00000+0001T   00000700+0000001135          1400 VR6210               2BZ
674262002674262105-001031     674262000700371696627FOODSAVER 800ml        0000001000+00001314+00000+0001T   00001314+0000001135          1400 VR6210               2BZ
674262003674262072-020351     674262006001023598059DOG/CAT BOWL PL 16cm   0000001000+00002630+00000+0001T   00002630+0000001135          1400 VR6870               2BZ
674263000674263               674263               170213EM     1400+00000+EM0000002190+0000002190+000000000+000000308+0000002490+0000000008+I20000000000+0000002490+Z
674263001674263903-000087     674263006001704000161SWT SPECKLED-EGGS 50G  0000001000+00001139+00000+0001T   00001139+0000001136          1400 VR6150               2BZ
674263002674263033-000124     674263006009654960597COMBS HANDLE + TAIL 2PC0000001000+00001051+00000+0001T   00001051+0000001136          1400 VR6200               2BZ
674264000674264               674264               170213EM     1400+00000+EM0000003946+0000003946+000000000+000000553+0000004490+0000000009+I20000000000+0000004490+Z
674264001674264159-000103     674264006001023890214SHOWER CADDY PL-COATED 0000001000+00003946+00000+0001T   00003946+0000001137          1400 VR6200               2BZ
674265000674265               674265               170213EM     1400+00000+EM0000007714+0000007714+000000000+000001081+0000008795+0000000000+I40000008795+0000000000+Z
674265001674265077-000303     674265006001023593757GIFT-BAG PAPER MED     0000001000+00001578+00000+0001T   00001578+0000001140          1400 VR6112               2BZ
674265002674265077-000011-C   674265006001023808523TISSUE 10xSHTS RED     0000001000+00000876+00000+0001T   00000876+0000001140          1400 VR6112               2BZ
674265003674265002-000905     674265006003000657933CAN-OPENER JAR GRIP    0000001000+00001753+00000+0001T   00001753+0000001140          1400 VR6300               2BZ
674265004674265104-000070     674265006003000684359BASKET PL 22x27cm LACE 0000001000+00003507+00000+0001T   00003507+0000001140          1400 VR6210               2BZ
674266000674266               674266               170213EM     1400+00000+EM0000002630+0000002630+000000000+000000369+0000002990+0000000009+I20000000000+0000002990+Z
674266001674266079-000277     674266006003000160600PAINT-BRUSHES 15PCE    0000001000+00002630+00000+0001T   00002630+0000001141          1400 VR6130               2BZ
674267000674267               674267               170213EM     1400+00000+EM0000001227+0000001227+000000000+000000172+0000001390+0000000009+I20000000000+0000001390+Z
674267001674267206-000630     674267006003000631919SPECTACLE CLEANING BRUS0000001000+00001227+00000+0001T   00001227+0000001142          1400 VR6321               2BZ
674268000674268               674268               170213EM     1400+00000+EM0000002630+0000002630+000000000+000000369+0000002990+0000000009+I20000000000+0000002990+Z
674268001674268027-056188     674268006003000570539DISH BRUSH LADY SHAPE  0000001000+00002630+00000+0001T   00002630+0000001142          1400 VR6212               2BZ
674269000674269               674269               170213EM     1400+00000+EM0000008771+0000008771+000000000+000001228+0000009990+0000000009+I20000000000+0000009990+Z
674269001674269028-000027     674269006003000275816C/BAG+POCKET 27x18x23cm0000001000+00008771+00000+0001T   00008771+0000001146          1400 VR6305               2BZ
674270000674270               674270               170213EM     1400+00000+EM0000003680+0000003680+000000000+000000517+0000004190+0000000007+I20000000000+0000004190+Z
674270001674270016-006425     674270006001023998170S/JAR GLS CLIP W/RIBBON0000001000+00002630+00000+0001T   00002630+0000001147          1400 VR6300               2BZ
674270002674270080-000133     674270006003000535613CARD&ENV MINI ASTD DSGN0000001000+00000437+00000+0001T   00000437+0000001147          1400 VR6112               2BZ
674270003674270304-001011     674270006001023806727FLWR ROSE RED W/BEAR   0000001000+00000613+00000+0001T   00000788+0006471147          1400 VR6510               2BZ
674271000674271               674271               170213EM     1400+00000+EM0000015348+0000015348+000000000+000002149+0000017490+0000000007+I20000000000+0000017490+Z
674271001674271031-000922     674271006003000095100P/FRAME BIRDCAGE 9X12CM0000001000+00005700+00000+0001T   00005700+0000001150          1400 VR6510               2BZ
674271002674271030-004015     674271006003000467624PLAQUE WDN SIGN 30X20CM0000001000+00009648+00000+0001T   00009648+0000001150          1400 VR6505               2BZ
674272000674272               674272               170213EM     1400+00000+EM0000004385+0000004385+000000000+000000614+0000004990+0000000009+I20000000000+0000004990+Z
674272001674272368-000049     674272006003000536955PLUSH BEAR 15cm LOVE   0000001000+00004385+00000+0001T   00004385+0000001151          1400 VR6745               2BZ
674273000674273               674273               170213EM     1400+00000+EM0000001753+0000001753+000000000+000000246+0000001990+0000000009+I20000000000+0000001990+Z
674273001674273077-000301     674273008010410010188BAG LRG 25X32CM B/DAY  0000001000+00001753+00000+0001T   00001753+0000001154          1400 VR6112               2BZ
674274000674274               674274               170213EM     1400+00000+EM0000013856+0000013856+000000000+000001941+0000015790+0000000007+I20000000000+0000015790+Z
674274001674274162-093295     674274006001492932958#TAG BLUES BEADED NK   0000001000+00004385+00000+0001T   00004385+0000001156          1400 VR6160               2BZ
674274002674274159-000647     674274006001023995551BRISTLE-BRUSH WDN HNDLE0000001000+00004823+00000+0001T   00004823+0000001156          1400 VR6200               2BZ
674274003674274105-001081     674274000700371699888CLIP LOCK 4L OBLONG    0000001000+00004648+00000+0001T   00004648+0000001156          1400 VR6210               2BZ
674275000674275               674275               170213EM     1400+00000+EM0000000048+0000000048+000000000+000000007+0000000050+0000000005+I20000000000+0000000050+Z
674275001674275112-116069     674275006009681820277TCS CARRIER BAG JUMBO  0000001000+00000048+00000+0001T   00000048+0000001157          1400 VR6090               2BZ
674276000674276               674276               170213EM     1400+00000+EM0000004385-0000004385-000000000+000000614-0000005000-0000000001+I20000000000+0000005000-Z
674276001674276486-001012     674276006001023820907CLOCK ALARM SQR 10X12CM0000001000-00004385+00000+0001T   00004385+0000001158          1400 VR65102IC            2 Z
674277000674277               674277               170213EM     1400+00000+EM0000009627+0000009627+000000000+000001349+0000010970+0000000006+I20000000000+0000010970+Z
674277001674277565-004101     674277006003000548033BALL BOUNCING EGG      0000001000+00001490+00000+0001T   00001490+0000001200          1400 VR6745               2BZ
674277002674277200-000065     674277006001023323675DRINKING-STRAWS 38PCE  0000001000+00000613+00000+0001T   00000613+0000001200          1400 VR6214               2BZ
674277003674277024-000103     674277006001023421982B/TRAY NON-STICK LARGE 0000001000+00007455+00000+0001T   00007455+0000001200          1400 VR6300               2BZ
674277004674277112-116053     674277006006438002399TCS CARRIER BAG 38L    0000001000+00000069+00000+0001T   00000069+0000001200          1400 VR6090               2BZ
674278000674278               674278               170213EM     1400+00000+EM0000000876+0000000876+000000000+000000123+0000000990+0000000009+I20000000000+0000000990+Z
674278001674278076-000017     674278006001811010022TWINE COTTON 50g-BALL  0000001000+00000876+00000+0001T   00000876+0000001200          1400 VR6810               2BZ
674279000674279               674279               170213EM     1400+00000+EM0000031527+0000031527+000000000+000004416+0000035943+0000000000+I40000035943+0000000000+Z
674279001674279082-007580     674279006003000698523SUNGLASS MENS DESIGNER 0000002000+00005262+00000+0001T   00005262+0000001203          1400 VR6160               2BZ
674279002674279036-000020     674279006001023666512LINT-REMOVER B/O SMALL 0000001000+00003507+00000+0001T   00003507+0000001203          1400 VR6212               2BZ
674279003674279012-000002     674279006003000331079MICRO PLATE-COVER 26X9 0000001000+00003507+00000+0001T   00003507+0000001203          1400 VR6300               2BZ
674279004674279903-000499     674279006001704012492SWT CHOC MALLOWS 50g   0000001000+00001227+00000+0001T   00001227+0000001203          1400 VR6150               2BZ
674279005674279012-000001-A   674279006003000697663MICROWAVES PLATE-COVER 0000001000+00001314+00000+0001T   00001314+0000001203          1400 VR6300               2BZ
674279006674279903-000520     674279006001704009898SWT GUMMY MINI SOUR 60g0000001000+00000876+00000+0001T   00000876+0000001203          1400 VR6150               2BZ
674279007674279024-000003     674279006001023462206S/BURNER COVERS ASSTD  0000001000+00004385+00000+0001T   00004385+0000001203          1400 VR6300               2BZ
674279008674279112-116069     674279006009681820277TCS CARRIER BAG JUMBO  0000001000+00000048+00000+0001T   00000048+0000001203          1400 VR6090               2BZ
674279009674279303-000750     674279006003000370818KEY-HOLDER BRASS ANTIQU0000001000+00006139+00000+0001T   00006139+0000001203          1400 VR6510               2BZ
674280000674280               674280               170213EM     1400+00000+EM0000007014+0000007014+000000000+000000982+0000007996+0000000000+I40000007996+0000000000+Z
674280001674280072-020254     674280006001023775962PET DOG CHEW BALL 6cm  0000002000+00003507+00000+0001T   00003507+0000001204          1400 VR6870               2BZ
674281000674281               674281               170213EM     1400+00000+EM0000003506+0000003506+000000000+000000492+0000003990+0000000008+I20000000000+0000003990+Z
674281001674281038-000205     674281006001926001205PLACE-MATS PVC ASSTD-C 0000002000+00001753+00000+0001T   00001753+0000001313          1400 VR6300               2BZ
674282000674282               674282               170213EM     1400+00000+EM0000008766+0000008766+000000000+000001229+0000009995+0000000000+I40000009995+0000000000+Z
674282001674282024-000100     674282006003000173310CAKE TESTER            0000001000+00001490+00000+0001T   00001490+0000001315          1400 VR6300               2BZ
674282002674282046-000014     674282006001023725387BATTERIES SIZE:AAA 4PCE0000001000+00001139+00000+0001T   00001139+0000001315          1400 VR6312               2BZ
674282003674282072-020264     674282006001023602565PET DOG CLEAN-UP BAGS  0000001000+00003507+00000+0001T   00003507+0000001315          1400 VR6870               2BZ
674282004674282028-000899     674282006001023509932BBQ-GRILL-CLEANER LONG 0000001000+00002630+00000+0001T   00002630+0000001315          1400 VR6305               2BZ
674283000674283               674283               170213EM     1400+00000+EM0000014430+0000014430+000000000+000002022+0000016452+0000000000+I40000016452+0000000000+Z
674283001674283304-001204     674283006001023737984FLOWER OCC. TEDDY/ROSES0000001000+00001402+00000+0001T   00001490+0006471316          1400 VR6510               2BZ
674283002674283368-000637     674283006001023874092PLUSH BEAR SLEEPING LOV0000001000+00011402+00000+0001T   00012279+0006471316          1400 VR6745               2BZ
674283003674283112-116069     674283006009681820277TCS CARRIER BAG JUMBO  0000001000+00000048+00000+0001T   00000048+0000001316          1400 VR6090               2BZ
674283004674283077-000303     674283006001023593757GIFT-BAG PAPER MED     0000001000+00001578+00000+0001T   00001578+0000001316          1400 VR6112               2BZ
674284000674284               674284               170213EM     1400+00000+EM0000003730+0000003730+000000000+000000523+0000004253+0000000000+I40000004253+0000000000+Z
674284001674284158-008936     674284006001023653758PAPER-TOWEL-HOLDER FLWR0000001000+00002192+00000+0001T   00002192+0000001318          1400 VR6300               2BZ
674284002674284039-000108     674284006001023524034TEA-LITE CANDLES 8PCE  0000001000+00001490+00000+0001T   00001490+0000001318          1400 VR6510               2BZ
674284003674284112-116069     674284006009681820277TCS CARRIER BAG JUMBO  0000001000+00000048+00000+0001T   00000048+0000001318          1400 VR6090               2BZ
674285000674285               674285               170213EM     1400+00000+EM0000010960+0000010960+000000000+000001535+0000012490+0000000005+I20000000000+0000012490+Z
674285001674285158-008936     674285006001023653758PAPER-TOWEL-HOLDER FLWR0000001000+00002192+00000+0001T   00002192+0000001319          1400 VR6300               2BZ
674285002674285082-026204     674285006001023816443R/GLASSES STRINGS 2PCE 0000001000+00000876+00000+0001T   00000876+0000001319          1400 VR6160               2BZ
674285003674285082-000120     674285006003000360727READING GLS STRENGTH:3 0000001000+00004385+00000+0001T   00004385+0000001319          1400 VR6160               2BZ
674285004674285004-071206     674285006003000605156USB CABLE CHARGER      0000001000+00003507+00000+0001T   00003507+0000001319          1400 VR6310               2BZ
674286000674286               674286               170213EM     1400+00000+EM0000003157+0000003157+000000000+000000442+0000003590+0000000009+I20000000000+0000003590+Z
674286001674286047-002041     674286006002521079170PLUG-ADAPTOR 2x16A 2x5A0000001000+00003157+00000+0001T   00003157+0000001320          1400 VR6880               2BZ
674287000674287               674287               170213EM     1400+00000+EM0000009157+0000009157+000000000+000001285+0000010442+0000000000+I40000010442+0000000000+Z
674287001674287304-001011     674287006001023806727FLWR ROSE RED W/BEAR   0000012000+00000613+00000+0001T   00000788+0006471338          1400 VR6510               2BZ
674287002674287071-002907     674287006003000588374PEN BALLPOINT REFILL   0000001000+00001753+00000+0001T   00001753+0000001338          1400 VR6130               2BZ
674287003674287112-116069     674287006009681820277TCS CARRIER BAG JUMBO  0000001000+00000048+00000+0001T   00000048+0000001338          1400 VR6090               2BZ
674288000674288               674288               170213EM     1400+00000+EM0000011396+0000011396+000000000+000001598+0000012990+0000000004+I20000000000+0000012990+Z
674288001674288001-091415     674288006003000329113W/GLS OCC. LOVE 2PC 2800000001000+00008771+00000+0001T   00009648+0006471341          1400 1IC515               2AZ
674288002674288903-000151     674288006009803374411SWT SML RND R/BOW LOLLY0000005000+00000525+00000+0001T   00000525+0000001341          1400 1IC150               2AZ
674289000674289               674289               170213EM     1400+00000+EM0000001226+0000001226+000000000+000000172+0000001390+0000000008+I20000000000+0000001390+Z
674289001674289304-001011     674289006001023806727FLWR ROSE RED W/BEAR   0000002000+00000613+00000+0001T   00000788+0006471503          1400 VR6510               2BZ
674290000674290               674290               170213EM     1400+00000+EM0000005039+0000005039+000000000+000000707+0000005746+0000000000+I40000005746+0000000000+Z
674290001674290006-000172-H   674290006003000610211BALLOONS METALLIC RED  0000003000+00000218+00000+0001T   00000218+0000001505          1400 VR6131               2BZ
674290002674290368-000049     674290006003000536955PLUSH BEAR 15cm LOVE   0000001000+00004385+00000+0001T   00004385+0000001505          1400 VR6745               2BZ
674291000674291               674291               170213EM     1400+00000+EM0000003069+0000003069+000000000+000000430+0000003490+0000000009+I20000000000+0000003490+Z
674291001674291106-005120     674291006001023897336ICE-LOLLY-MAKER 6PCE   0000001000+00003069+00000+0001T   00003069+0000001506          1400 VR6210               2BZ
674292000674292               674292               170213EM     1400+00000+EM0000000048+0000000048+000000000+000000007+0000000050+0000000005+I20000000000+0000000050+Z
674292001674292112-116069     674292006009681820277TCS CARRIER BAG JUMBO  0000001000+00000048+00000+0001T   00000048+0000001507          1400 VR6090               2BZ
674293000674293               674293               170213EM     1400+00000+EM0000004433+0000004433+000000000+000000621+0000005050+0000000004+I20000000000+0000005050+Z
674293001674293031-005921     674293006001023667847P/FRAME PL PLAIN       0000001000+00004385+00000+0001T   00004385+0000001507          1400 VR6510               2BZ
674293002674293112-116069     674293006009681820277TCS CARRIER BAG JUMBO  0000001000+00000048+00000+0001T   00000048+0000001507          1400 VR6090               2BZ
674294000674294               674294               170213EM     1400+00000+EM0000002630+0000002630+000000000+000000369+0000002990+0000000009+I20000000000+0000002990+Z
674294001674294567-075466     674294006001023644572BK NOVEL ROMANCE       0000001000+00002630+00000+0001T   00002630+0000001508          1400 VR6757               2BZ
674295000674295               674295               170213EM     1400+00000+EM0000001753+0000001753+000000000+000000246+0000001990+0000000009+I20000000000+0000001990+Z
674295001674295051-002402     674295006001023518347TRIGGER-SPRAYER  500ml 0000001000+00001753+00000+0001T   00001753+0000001509          1400 VR6820               2BZ
674296000674296               674296               170213EM     1400+00000+EM0000011305+0000011305+000000000+000001586+0000012890+0000000001+I20000000000+0000012890+Z
674296001674296028-000797     674296006001023812124SKEWERS 15cm 100PCE    0000002000+00000876+00000+0001T   00000876+0000001514          1400 VR6305               2BZ
674296002674296028-000795     674296006001023812063SKEWERS 10cm 100PCE 3mm0000002000+00000964+00000+0001T   00000964+0000001514          1400 VR6305               2BZ
674296003674296368-000040     674296006003000671786PLUSH ICONS 7.5cm      0000002000+00002630+00000+0001T   00002630+0000001514          1400 VR6745               2BZ
674296004674296903-000155     674296006009803374435SWT LOLLY I LUV U HEART0000001000+00000525+00000+0001T   00000525+0000001514          1400 VR6150               2BZ
674296005674296903-000843     674296008693029031067SWT GUMMY JELAXY 80G   0000001000+00000964+00000+0001T   00000964+0000001514          1400 VR6150               2BZ
674296006674296077-000314     674296006003000181148GIFT-BAG 11X14CM MATT  0000001000+00000876+00000+0001T   00000876+0000001514          1400 VR6112               2BZ
674297000674297               674297               170213EM     1400+00000+EM0000001314+0000001314+000000000+000000184+0000001490+0000000008+I20000000000+0000001490+Z
674297001674297200-000066     674297006003000365975STRAWS 12PCE W/UMBRELLA0000001000+00001314+00000+0001T   00001314+0000001518          1400 VR6214               2BZ
674298000674298               674298               170213EM     1400+00000+EM0000003682+0000003682+000000000+000000516+0000004190+0000000008+I20000000000+0000004190+Z
674298001674298077-000299     674298006003000395576G/BAG 32x25cm LRG LOVE 0000001000+00001490+00000+0001T   00001490+0000001547          1400 VR6112               2BZ
674298002674298080-000127     674298006003000424351VALENTINES DAY 36x24CM 0000001000+00002192+00000+0001T   00002192+0000001547          1400 VR6112               2BZ
674299000674299               674299               170213EM     1400+00000+EM0000007714+0000007714+000000000+000001082+0000008790+0000000006+I20000000000+0000008790+Z
674299001674299077-000380     674299006003000247585GIFT-BAG 33X45CM S/COL 0000001000+00002455+00000+0001T   00002455+0000001549          1400 VR6112               2BZ
674299002674299251-000070     674299006003000451777PROTECTION-PADS BLK ADH0000001000+00001753+00000+0001T   00001753+0000001549          1400 VR6810               2BZ
674299003674299038-047250     674299006001023816009PLACE MAT ASSORTED     0000002000+00001753+00000+0001T   00001753+0000001549          1400 VR6300               2BZ
674300000674300               674300               170213EM     1400+00000+EM0000014908+0000014908+000000000+000002088+0000016996+0000000000+I40000016996+0000000000+Z
674300001674300105-009015     674300006002923000009STORAGE BOX 32L FROSTED0000001000+00011402+00000+0001T   00011402+0000001553          1400 VR6210               2BZ
674300002674300012-000001-A   674300006003000697663MICROWAVES PLATE-COVER 0000001000+00001314+00000+0001T   00001314+0000001553          1400 VR6300               2BZ
674300003674300105-007016     674300006003000685059CONTAINER ROUND CLR    0000001000+00002192+00000+0001T   00002192+0000001553          1400 VR6210               2BZ
674301000674301               674301               170213EM     1400+00000+EM0000011443+0000011443+000000000+000001606+0000013049+0000000000+I40000013049+0000000000+Z
674301001674301079-003005     674301006003000448241A/TUBE 75ML BLUE       0000002000+00001753+00000+0001T   00001753+0000001555          1400 VR6130               2BZ
674301002674301079-006495     674301006003000159987GLITTER SHAKERS 6PK    0000001000+00002630+00000+0001T   00002630+0000001555          1400 VR6130               2BZ
674301003674301079-000275     674301006003000160488PAINT-BRUSHES 6PCE PRO 0000001000+00001753+00000+0001T   00001753+0000001555          1400 VR6130               2BZ
674301004674301903-000215     674301006002099001214SWT GS MALLOW TWIST PAC0000002000+00001753+00000+0001T   00001753+0000001555          1400 VR6150               2BZ
674301005674301112-116069     674301006009681820277TCS CARRIER BAG JUMBO  0000001000+00000048+00000+0001T   00000048+0000001555          1400 VR6090               2BZ
674302000674302               674302               170213EM     1400+00000+EM0000001753+0000001753+000000000+000000246+0000001990+0000000009+I20000000000+0000001990+Z
674302001674302036-000063     674302006009654960436COATHANGERS VIRGIN 5PCE0000001000+00001753+00000+0001T   00001753+0000001557          1400 VR6212               2BZ
674303000674303               674303               170213EM     1400+00000+EM0000007709+0000007709+000000000+000001080+0000008789+0000000000+I40000008789+0000000000+Z
674303001674303903-000194     674303006009826020616SWT CHOC RP LOLLY 25G  0000004000+00001314+00000+0001T   00001314+0000001600          1400 VR6150               2BZ
674303002674303903-000155     674303006009803374435SWT LOLLY I LUV U HEART0000001000+00000525+00000+0001T   00000525+0000001600          1400 VR6150               2BZ
674303003674303903-000843     674303008693029031067SWT GUMMY JELAXY 80G   0000002000+00000964+00000+0001T   00000964+0000001600          1400 VR6150               2BZ
674304000674304               674304               170213EM     1400+00000+EM0000097760+0000097760+000000000+000013696+0000111456+0000000000+I40000111456+0000000000+Z
674304001674304112-116053     674304006006438002399TCS CARRIER BAG 38L    0000001000+00000069+00000+0001T   00000069+0000001634          1400 VR6090               2BZ
674304002674304002-000600     674304006001023587329KITCHEN-TOOL-SET STAND 0000001000+00014911+00000+0001T   00014911+0000001634          1400 VR6300               2BZ
674304003674304047-005126     674304006001023451255CABLETIES 100/150/200mm0000001000+00002192+00000+0001T   00002192+0000001634          1400 VR6880               2BZ
674304004674304251-000002     674304006003000093991TAPE D-SIDED 24x1000mm 0000001000+00002192+00000+0001T   00002192+0000001634          1400 VR6810               2BZ
674304005674304047-000006-H   674304006001023704054M/PLUG 3x16A+3x5A+CARD 0000001000+00006665+00000+0001T   00006665+0000001634          1400 VR6880               2BZ
674304006674304046-000011     674304004897006172994BATTERIES SIZE:AA  2PCE0000001000+00001402+00000+0001T   00001402+0000001634          1400 VR6312               2BZ
674304007674304046-000010-A   674304006003000438778BATTERIES SIZE:AAA 4PCE0000001000+00002367+00000+0001T   00002367+0000001634          1400 VR6312               2BZ
674304008674304046-002430-PK2 674304004897006178422BATTERY LITHIUM CR-24300000001000+00002630+00000+0001T   00002630+0000001634          1400 VR6312               2BZ
674304009674304020-000210     674304006003000352913K/SET 5PC BREAKFAST SET0000001000+00015788+00000+0001T   00015788+0000001634          1400 VR6300               2BZ
674304010674304142-000815     674304006001023183903GLOVES RUBBER LARGE    0000001000+00001753+00000+0001T   00001753+0000001634          1400 VR6810               2BZ
674304011674304056-005719     674304006001023820983CAR AIR-FRESHENER ASSTD0000001000+00002192+00000+0001T   00002192+0000001634          1400 VR6860               2BZ
674304012674304046-002016-PK2 674304004897006175056BATTERIES CR-2016  2PCE0000001000+00001753+00000+0001T   00001753+0000001634          1400 VR6312               2BZ
674304013674304047-000018-H   674304006001023909954PLUG 1x16A+2x5A SUNKEN 0000001000+00002630+00000+0001T   00002630+0000001634          1400 VR6880               2BZ
674304014674304047-000512-H   674304006001023657473EXT-CORD 3m DBL-J   H&H0000001000+00006578+00000+0001T   00006578+0000001634          1400 VR6880               2BZ
674304015674304486-000010     674304006001023544254WALL-CLOCK ROUND 25cm  0000001000+00006139+00000+0001T   00006139+0000001634          1400 VR6510               2BZ
674304016674304158-003092     674304006003000621644PAPER TOWEL HOLDER CHR 0000002000+00005262+00000+0001T   00005262+0000001634          1400 VR6300               2BZ
674304017674304158-003007     674304006003000638116FRUIT BASKET CHROME    0000001000+00006139+00000+0001T   00006139+0000001634          1400 VR6300               2BZ
674304018674304306-000498     674304006003000519392TOOTHBRUSH 3PC ASTD    0000001000+00001753+00000+0001T   00001753+0000001634          1400 VR6200               2BZ
674304019674304024-000301     674304006001023820174SHAKER S/S FLOUR/SALT  0000002000+00003507+00000+0001T   00003507+0000001634          1400 VR6300               2BZ
674304020674304002-003733     674304006001023849182STRAINER D/FRY 20CM    0000001000+00003069+00000+0001T   00003069+0000001634          1400 VR6300               2BZ
674305000674305               674305               170213EM     1400+00000+EM0000003507+0000003507+000000000+000000491+0000003998+0000000000+I40000003998+0000000000+Z
674305001674305082-098794     674305006001492987941SUNGLASS KIDS BOYS WRAP0000001000+00003507+00000+0001T   00003507+0000001638          1400 VR6160               2BZ
674306000674306               674306               170213EM     1400+00000+EM0000005260+0000005260+000000000+000000738+0000005998+0000000000+I40000005998+0000000000+Z
674306001674306133-000111     674306006001023842732OVEN-MITTEN 19x30cm    0000002000+00002630+00000+0001T   00002630+0000001640          1400 VR6212               2BZ
674307000674307               674307               170213EM     1400+00000+EM0000002630+0000002630+000000000+000000369+0000002990+0000000009+I20000000000+0000002990+Z
674307001674307028-002000     674307006002580009521STOOL                  0000001000+00002630+00000+0001T   00002630+0000001657          1400 VR6305               2BZ
674308000674308               674308               170213EM     1400+00000+EM0000014978+0000014978+000000000+000002098+0000017070+0000000006+I20000000000+0000017070+Z
674308001674308018-000136     674308006001023659026MUG OCC LOVE W/PLUSH   0000001000+00003507+00000+0001T   00003507+0000001658          1400 VR6515               2BZ
674308002674308112-116053     674308006006438002399TCS CARRIER BAG 38L    0000001000+00000069+00000+0001T   00000069+0000001658          1400 VR6090               2BZ
674308003674308368-000637     674308006001023874092PLUSH BEAR SLEEPING LOV0000001000+00011402+00000+0001T   00012279+0006471658          1400 VR6745               2BZ
674309000674309               674309               170213EM     1400+00000+EM0000000876+0000000876+000000000+000000123+0000000990+0000000009+I20000000000+0000000990+Z
674309001674309077-000011-C   674309006001023808523TISSUE 10xSHTS RED     0000001000+00000876+00000+0001T   00000876+0000001659          1400 VR6112               2BZ
674310000674310               674310               170213EM     1400+00000+EM0000003506+0000003506+000000000+000000492+0000003990+0000000008+I20000000000+0000003990+Z
674310001674310565-000859     674310006001023691361SUNGLASSES GIANT       0000002000+00001753+00000+0001T   00001753+0000001709          1400 VR6745               2BZ
674311000674311               674311               170213EM     1400+00000+EM0000001753+0000001753+000000000+000000246+0000001990+0000000009+I20000000000+0000001990+Z
674311001674311077-000381     674311006003000247707GIFT-BAG 25X32CM S/COL 0000001000+00001753+00000+0001T   00001753+0000001710          1400 VR6112               2BZ
674312000674312               674312               170213EM     1400+00000+EM0000016708+0000016708+000000000+000002340+0000019040+0000000008+I20000000000+0000019040+Z
674312001674312018-030000     674312006003000421060MUG OCCASIONS LOVE 2PCE0000001000+00004385+00000+0001T   00004385+0000001716          1400 VR6515               2BZ
674312002674312012-000001-A   674312006003000697663MICROWAVES PLATE-COVER 0000001000+00001314+00000+0001T   00001314+0000001716          1400 VR6300               2BZ
674312003674312077-000315     674312006003000181186GIFT-BAG 20x28cm MATT  0000001000+00001578+00000+0001T   00001578+0000001716          1400 VR6112               2BZ
674312004674312027-078282     674312006001023767837SCOURER 25g SPIRAL-BALL0000001000+00000613+00000+0001T   00000613+0000001716          1400 VR6212               2BZ
674312005674312368-000049     674312006003000536955PLUSH BEAR 15cm LOVE   0000001000+00004385+00000+0001T   00004385+0000001716          1400 VR6745               2BZ
674312006674312001-000175     674312006001023788108B/MUG GLS LOVE 380ML   0000001000+00004385+00000+0001T   00004385+0000001716          1400 VR6515               2BZ
674312007674312112-116069     674312006009681820277TCS CARRIER BAG JUMBO  0000001000+00000048+00000+0001T   00000048+0000001716          1400 VR6090               2BZ
674313000674313               674313               170213EM     1400+00000+EM0000001753+0000001753+000000000+000000246+0000001990+0000000009+I20000000000+0000001990+Z
674313001674313077-000290     674313006001023902023GIFT BOX 26x32x13cm    0000001000+00001753+00000+0001T   00001753+0000001717          1400 VR6112               2BZ
674314000674314               674314               170213EM     1400+00000+EM0000010344+0000010344+000000000+000001452+0000011796+0000000000+I40000011796+0000000000+Z
674314001674314018-000170     674314006001023775528MUG OCC. LOVE 2PC MINI 0000001000+00002192+00000+0001T   00002192+0000001720          1400 VR6515               2BZ
674314002674314006-000166-C   674314006003000516377BALLOONS LRG 6PC PINK  0000001000+00001314+00000+0001T   00001314+0000001720          1400 VR6131               2BZ
674314003674314006-000220-B   674314006001023890870PARTY TABLE-CLOTH BOY  0000001000+00002630+00000+0001T   00002630+0000001720          1400 VR6131               2BZ
674314004674314038-001804     674314006001023766618DOILIES 27cm RND PKT-100000001000+00001753+00000+0001T   00001753+0000001720          1400 VR6300               2BZ
674314005674314563-000317-K   674314006003000697885SERVIETTE 2PLY 33cm    0000001000+00001753+00000+0001T   00001753+0000001720          1400 VR6214               2BZ
674314006674314006-000170-E   674314006003000608546BALLOONS 1PC BLUE      0000003000+00000218+00000+0001T   00000218+0000001720          1400 VR6131               2BZ
674314007674314112-116069     674314006009681820277TCS CARRIER BAG JUMBO  0000001000+00000048+00000+0001T   00000048+0000001720          1400 VR6090               2BZ
674315000674315               674315               170213EM     1400+00000+EM0000003506+0000003506+000000000+000000492+0000003990+0000000008+I20000000000+0000003990+Z
674315001674315077-000471     674315006003000330096G-BAG DESGN MED 18X23CM0000001000+00001753+00000+0001T   00001753+0000001720          1400 VR6112               2BZ
674315002674315077-000324     674315006001023677594GIFT-BAG 33X45CM E/D FL0000001000+00001753+00000+0001T   00001753+0000001720          1400 VR6112               2BZ
674316000674316               674316               170213EM     1400+00000+EM0000001753+0000001753+000000000+000000246+0000001990+0000000009+I20000000000+0000001990+Z
674316001674316251-000032     674316006001023515841MASKING-TAPE 36mmx40m  0000001000+00001753+00000+0001T   00001753+0000001720          1400 VR6810               2BZ
674317000674317               674317               170213EM     1400+00000+EM0000001753+0000001753+000000000+000000246+0000001990+0000000009+I20000000000+0000001990+Z
674317001674317046-002025-PK2 674317004897006174868BATTERIES CR-2025  2PCE0000001000+00001753+00000+0001T   00001753+0000001721          1400 VR6312               2BZ
674318000674318               674318               170213EM     1400+00000+EM0000010524+0000010524+000000000+000001474+0000011998+0000000000+I40000011998+0000000000+Z
674318001674318261-003901     674318006001023707451GUN SET PL POLICE+ACCES0000001000+00004385+00000+0001T   00004385+0000001722          1400 VR6710               2BZ
674318002674318266-001002     674318006001023914163PLAYSET SWORD & WEAPON 0000001000+00006139+00000+0001T   00006139+0000001722          1400 VR6710               2BZ
674319000674319               674319               170213EM     1400+00000+EM0000002630+0000002630+000000000+000000369+0000002999+0000000000+I40000002999+0000000000+Z
674319001674319034-078810     674319006001023856838DIAPER DISPOSE-BAGSx1000000001000+00002630+00000+0001T   00002630+0000001723          1400 VR6215               2BZ
674320000674320               674320               170213EM     1400+00000+EM0000007325+0000007325+000000000+000001026+0000008350+0000000001+I20000000000+0000008350+Z
674320001674320368-000001     674320006003000097982Plush Bear 25cm        0000001000+00004385+00000+0001T   00004385+0000001723          1400 VR6745               2BZ
674320002674320071-001028     674320008887013700385MARKER WHT-RND YM-500  0000001000+00001578+00000+0001T   00001578+0000001723          1400 VR6130               2BZ
674320003674320077-000310     674320006001023608635GIFT-BAG 18X23CM GLOSS 0000001000+00001314+00000+0001T   00001314+0000001723          1400 VR6112               2BZ
674320004674320112-116069     674320006009681820277TCS CARRIER BAG JUMBO  0000001000+00000048+00000+0001T   00000048+0000001723          1400 VR6090               2BZ
674321000674321               674321               170213EM     1400+00000+EM0000005346+0000005346+000000000+000000749+0000006090+0000000005+I20000000000+0000006090+Z
674321001674321077-000321     674321006001023677501GIFT-BAG 11X14CM E/D FL0000003000+00000613+00000+0001T   00000613+0000001724          1400 VR6112               2BZ
674321002674321018-005009     674321006001023725608MUG W/PLUSH-BEAR LOVE  0000001000+00003507+00000+0001T   00003507+0000001724          1400 VR6515               2BZ
674322000674322               674322               170213EM     1400+00000+EM0000027074+0000027074+000000000+000003795+0000030869+0000000000+I40000030869+0000000000+Z
674322001674322031-005853     674322006003000442416P/FRAME WDN TWIN HEARTS0000001000+00003507+00000+0001T   00003507+0000001726          1400 VR6510               2BZ
674322002674322368-000049     674322006003000536955PLUSH BEAR 15cm LOVE   0000001000+00004385+00000+0001T   00004385+0000001726          1400 VR6745               2BZ
674322003674322112-116053     674322006006438002399TCS CARRIER BAG 38L    0000001000+00000069+00000+0001T   00000069+0000001726          1400 VR6090               2BZ
674322004674322368-000113     674322006001023780874PLUSH BLINGED LOVE 30cm0000001000+00012279+00000+0001T   00012279+0000001726          1400 VR6745               2BZ
674322005674322077-000270     674322006003000395453GIFT-BAG PPR JMB 33X45 0000001000+00002630+00000+0001T   00002630+0000001726          1400 VR6112               2BZ
674322006674322077-000303     674322006001023593757GIFT-BAG PAPER MED     0000001000+00001578+00000+0001T   00001578+0000001726          1400 VR6112               2BZ
674322007674322080-000133-A   674322006003000647019MINI VALENTINES CARD   0000002000+00000437+00000+0001T   00000437+0000001726          1400 VR6112               2BZ
674322008674322903-000861     674322005010478430822SWT LOVE HEARTS SML    0000002000+00000876+00000+0001T   00000876+0000001726          1400 VR6150               2BZ
674323000674323               674323               170213EM     1400+00000+EM0000003506+0000003506+000000000+000000492+0000003990+0000000008+I20000000000+0000003990+Z
674323001674323200-003024     674323006001023657299REFUSE BAGS 20PCE BLACK0000002000+00001753+00000+0001T   00001753+0000001727          1400 VR6214               2BZ
674324000674324               674324               170213EM     1400+00000+EM0000002192+0000002192+000000000+000000307+0000002490+0000000009+I20000000000+0000002490+Z
674324001674324016-006517     674324006003000351626S/JAR GLS CHECK 650ML  0000001000+00002192+00000+0001T   00002192+0000001727          1400 VR6300               2BZ
674325000674325               674325               170213EM     1400+00000+EM0000004996+0000004996+000000000+000000701+0000005690+0000000007+I20000000000+0000005690+Z
674325001674325039-000108     674325006001023524034TEA-LITE CANDLES 8PCE  0000001000+00001490+00000+0001T   00001490+0000001728          1400 VR6510               2BZ
674325002674325039-000114     674325006001023524058CANDLE T/LITE RED 3.5CM0000001000+00001753+00000+0001T   00001753+0000001728          1400 VR6510               2BZ
674325003674325088-000084     674325006001023798060P/POURRI 120G ASSTD    0000001000+00001753+00000+0001T   00001753+0000001728          1400 VR6212               2BZ
674326000674326               674326               170213EM     1400+00000+EM0000000438+0000000438+000000000+000000062+0000000500+0000000000+I20000000000+0000000500+Z
674326001674326016-006517     674326006003000351626S/JAR GLS CHECK 650ML  0000001000-00002192+00000+0001T   00002192+0000001729          1400 VR63001IC            2 Z
674326002674326124-002023     674326006003000367252BISCUIT TIN HEART SHAPE0000001000+00002630+00000+0001T   00003507+0008171729          1400 VR6300               2BZ
674327000674327               674327               170213EM     1400+00000+EM0000001753+0000001753+000000000+000000246+0000001999+0000000000+I40000001999+0000000000+Z
674327001674327089-000004     674327006003000137749KEY CHAIN MTL CHARMS   0000001000+00001753+00000+0001T   00001753+0000001730          1400 VR6205               2BZ
A17021300                                          17110250EMSLAVE 2                       VR61IC
C67425200                                          170213EM016-006515-A   11185516SLAVE 2     VR61IC0000000000+0000000000+0010000001000+
C67428200                                          170213EM112-116069     13142230SLAVE 2     VR61IC0000000000+0000000000+0050000001000+
C67428900                                          170213EM304-001204     15033811SLAVE 2     VR61IC0000000000+0000000000+0010000001000+
M17021391                              CASH        EMSLAVE 2                       Z-REPORT No.   629TOTAL (Sales - Refunds)           7019.28       CASH TO BE BANKED                 3176.00       DEBIT CARDS                          0.00       CREDIT CARDS                      3843.28       Z-READING                         7019.28       AIRTIME DEBIT CARD SALES             0.00       AIRTIME CARD SALES                   0.00       OVERS/UNDERS                         0.00       AIRTIME CASH SALES                   0.00       GIFT CARDS                           0.00       GIFT CARD CASH SALES                 0.00       T O T A L  CASH PAYOUTS              0.00                                                                                                                                                                                                                                                                                                                                                      Z
M17021392                              CASH        EMABSENT                                                                                                                                                                                          ANNUAL LEAVE                                                                                                                                                                                    DAY OFF                                                                                                                                                                                         COMMENTS                                                                                                                                                                                                                                                                                                                                                                                       Z
Y17021300                                          EM00000000622598+000084
ZEM17021321063 SLAVE 2      SALES DATA                     NEXT INVOICE NO.  674328 0629
X EM Slave 2 First invoice 674243 170213 Last invoice 674327 170213 Next invoice 674328 Total number of records 000000310 clbackup completed 21:06:03
