889267000889267               889267               170213EO     1400+00000+EO0000003100+0000003100+000000000+000000435+0000003530+0000000005+I20000000000+0000003530+Z
889267001889267077-000311     889267006001023608666GIFT-BAG 11X14CM GLOSS 0000005000+00000613+00000+0001T   00000613+0000000833          1400 GE6112               1DZ
889267002889267112-116038     889267006009681820246TCS CARRIER BAG MIDI   0000001000+00000035+00000+0001T   00000035+0000000833          1400 GE6090               1DZ
889268000889268               889268               170213EO     1400+00000+EO0000001139+0000001139+000000000+000000160+0000001290+0000000009+I20000000000+0000001290+Z
889268001889268903-000709     889268006002099007070SWT QUENCHERS FRUIT    0000001000+00001139+00000+0001T   00001139+0000000854          1400 SC6150               1CZ
889269000889269               889269               170213EO     1400+00000+EO0000001753+0000001753+000000000+000000246+0000001990+0000000009+I20000000000+0000001990+Z
889269001889269084-006996     889269006003000092833NAIL CLIPPER 6cm       0000001000+00001753+00000+0001T   00001753+0000000917          1400 GE6200               1CZ
889270000889270               889270               170213EO     1400+00000+EO0000001752+0000001752+000000000+000000246+0000001990+0000000008+I20000000000+0000001990+Z
889270001889270077-000150-D   889270006003000054343GIFT-WRAP CELLPHANE CLR0000001000+00000876+00000+0001T   00000876+0000000929          1400 GE6112               1CZ
889270002889270077-000151     889270006008766114676GIFT-WRAP C/PHANE ASSTD0000001000+00000876+00000+0001T   00000876+0000000929          1400 GE6112               1CZ
889271000889271               889271               170213EO     1400+00000+EO0000003945+0000003945+000000000+000000553+0000004490+0000000008+I20000000000+0000004490+Z
889271001889271024-000069     889271006001023849571EGG-WHISK S/S 30cm     0000001000+00003069+00000+0001T   00003069+0000000935          1400 GE6300               1CZ
889271002889271071-005213     889271006001023690371CELLOTAPE 12mmx33m     0000001000+00000876+00000+0001T   00000876+0000000935          1400 GE6130               1CZ
889272000889272               889272               170213EO     1400+00000+EO0000003542+0000003542+000000000+000000496+0000004030+0000000008+I20000000000+0000004030+Z
889272001889272104-000095     889272006003000614714BASKET PL 23x15x12cm   0000001000+00003507+00000+0001T   00003507+0000001004          1400 GE6210               1CZ
889272002889272112-116038     889272006009681820246TCS CARRIER BAG MIDI   0000001000+00000035+00000+0001T   00000035+0000001004          1400 GE6090               1CZ
889273000889273               889273               170213EO     1400+00000+EO0000006657-0000006657-000000000+000000932-0000007590-0000000001+I20000000000+0000007590-Z
889273001889273001-999902     889273000000000999902MAINTENANCE+REPAIR-EQP 0000001000-00006657+00000+0001T   00000000+0000001038          1400 GE69022IC            1 Z
889274000889274               889274               170213EO     1400+00000+EO0000003769+0000003769+000000000+000000529+0000004290+0000000008+I20000000000+0000004290+Z
889274001889274082-026205     889274006001023816528R/GLASSES STRINGS 2PCE 0000001000+00002630+00000+0001T   00002630+0000001058          1400 GE6160               1AZ
889274002889274903-000087     889274006001704000161SWT SPECKLED-EGGS 50G  0000001000+00001139+00000+0001T   00001139+0000001058          1400 GE6150               1AZ
889275000889275               889275               170213EO     1400+00000+EO0000012327+0000012327+000000000+000001727+0000014050+0000000004+I20000000000+0000014050+Z
889275001889275261-003348     889275006003000398478GUN AIR BLASTER 27CM   0000001000+00012279+00000+0001T   00012279+0000001108          1400 GE6710               1AZ
889275002889275112-116069     889275006009681820277TCS CARRIER BAG JUMBO  0000001000+00000048+00000+0001T   00000048+0000001108          1400 GE6090               1AZ
889276000889276               889276               170213EO     1400+00000+EO0000005172+0000005172+000000000+000000725+0000005897+0000000000+I40000005897+0000000000+Z
889276001889276150-001222     889276006001023495334PLATE-STAND TRANSPARENT0000001000+00001490+00000+0001T   00001490+0000001118          1400 GE6810               1DZ
889276002889276301-000600     889276006003000597024O/TURTLE DANGLING FEET 0000001000+00001490+00000+0001T   00001490+0000001118          1400 GE6505               1DZ
889276003889276018-000170     889276006001023775528MUG OCC. LOVE 2PC MINI 0000001000+00002192+00000+0001T   00002192+0000001118          1400 GE6515               1DZ
889277000889277               889277               170213EO     1400+00000+EO0000005960+0000005960+000000000+000000836+0000006790+0000000006+I20000000000+0000006790+Z
889277001889277079-000512     889277006001023635853CRAYONS WAX 12-COLOUR  0000004000+00001490+00000+0001T   00001490+0000001118          1400 GE6130               1CZ
889278000889278               889278               170213EO     1400+00000+EO0000003682+0000003682+000000000+000000516+0000004190+0000000008+I20000000000+0000004190+Z
889278001889278002-000878     889278006001023770967STRAINER TEA WIRE 7cm  0000001000+00001490+00000+0001T   00001490+0000001122          1400 GE6300               1BZ
889278002889278028-000907     889278006001023459626BBQ GRILL-CLEANER      0000001000+00002192+00000+0001T   00002192+0000001122          1400 GE6305               1BZ
889279000889279               889279               170213EO     1400+00000+EO0000016353+0000016353+000000000+000002293+0000018646+0000000000+I40000018646+0000000000+Z
889279001889279089-000192-A   889279006001023901774KEY-CHAIN ACRYLIC      0000001000+00000876+00000+0001T   00000876+0000001152          1400 GE6205               1BZ
889279002889279089-001021     889279006003000112319KEY CHAIN MINI BIBLE   0000001000+00001490+00000+0001T   00001490+0000001152          1400 GE6205               1BZ
889279003889279112-116069     889279006009681820277TCS CARRIER BAG JUMBO  0000001000+00000048+00000+0001T   00000048+0000001152          1400 GE6090               1BZ
889279004889279304-001011     889279006001023806727FLWR ROSE RED W/BEAR   0000002000+00000613+00000+0001T   00000788+0006471152          1400 GE6510               1BZ
889279005889279077-000235     889279006003000160211GIFT-RIBBON ROLL METALC0000001000+00002630+00000+0001T   00002630+0000001152          1400 GE6112               1BZ
889279006889279006-000120     889279006001023346889BALLOONS 10PC MIX COL  0000001000+00001753+00000+0001T   00001753+0000001152          1400 GE6131               1BZ
889279007889279301-085000     889279006003000674299 ORN OCC. LOVE HEARTS  0000001000+00002192+00000+0001T   00002192+0000001152          1400 GE6505               1BZ
889279008889279301-085008     889279006003000673933ORN OCC.LOVE TINSEL HRT0000002000+00003069+00000+0001T   00003069+0000001152          1400 GE6505               1BZ
889280000889280               889280               170213EO     1400+00000+EO0000007014+0000007014+000000000+000000982+0000007990+0000000006+I20000000000+0000007990+Z
889280001889280560-000300     889280006001023714879DINOSAURS 12PC         0000002000+00003507+00000+0001T   00003507+0000001205          1400 GE6745               1AZ
889281000889281               889281               170213EO     1400+00000+EO0000003507+0000003507+000000000+000000491+0000003990+0000000008+I20000000000+0000003990+Z
889281001889281562-000051     889281006003000308798EDU EXCAVATION KIT ASST0000001000+00003507+00000+0001T   00003507+0000001206          1400 GE6755               1AZ
889282000889282               889282               170213EO     1400+00000+EO0000029682+0000029682+000000000+000004161+0000033843+0000000000+I40000033843+0000000000+Z
889282001889282903-000087     889282006001704000161SWT SPECKLED-EGGS 50G  0000001000+00001139+00000+0001T   00001139+0000001214          1400 GE6150               1BZ
889282002889282903-000619     889282006003000672455SWT LOLLY STR/BRRY 140G0000003000+00001753+00000+0001T   00001753+0000001214          1400 GE6150               1BZ
889282003889282072-020311     889282006003000494132PET DOG TOY VINYL BALL 0000001000+00003069+00000+0001T   00003069+0000001214          1400 GE6870               1BZ
889282004889282072-020359     889282006003000399758PET DOG/CAT BOWL SMALL 0000002000+00001753+00000+0001T   00001753+0000001214          1400 GE6870               1BZ
889282005889282084-091590     889282006003000092864FOOT FILE 17cm         0000001000+00001753+00000+0001T   00001753+0000001214          1400 GE6200               1BZ
889282006889282492-055602     889282000078257556021SWIM-GOGGLES PLAY      0000001000+00002630+00000+0001T   00002630+0000001214          1400 GE6787               1BZ
889282007889282072-020266     889282006003000400591PET PUPPY TRAINING PAD 0000001000+00003507+00000+0001T   00003507+0000001214          1400 GE6870               1BZ
889282008889282072-020242     889282006003000053728PET BED COTTON TEXTILE 0000001000+00008771+00000+0001T   00008771+0000001214          1400 GE6870               1BZ
889282009889282112-116069     889282006009681820277TCS CARRIER BAG JUMBO  0000001000+00000048+00000+0001T   00000048+0000001214          1400 GE6090               1BZ
889283000889283               889283               170213EO     1400+00000+EO0000001753+0000001753+000000000+000000246+0000001990+0000000009+I20000000000+0000001990+Z
889283001889283080-000113     889283006003000237449CARD&ENVLPE - LOVE     0000001000+00001753+00000+0001T   00001753+0000001218          1400 GE6112               1CZ
889284000889284               889284               170213EO     1400+00000+EO0000004385+0000004385+000000000+000000614+0000004990+0000000009+I20000000000+0000004990+Z
889284001889284104-000030     889284006001023803481BASKET PL 28x20x12cm   0000001000+00004385+00000+0001T   00004385+0000001221          1400 GE6210               1CZ
889285000889285               889285               170213EO     1400+00000+EO0000003541+0000003541+000000000+000000497+0000004030+0000000008+I20000000000+0000004030+Z
889285001889285006-000800     889285006001023902801HAT CABARET 14x18cm    0000001000+00001753+00000+0001T   00001753+0000001223          1400 GE6131               1BZ
889285002889285079-013032-B   889285006003000389445MIXED SHAPES           0000001000+00001753+00000+0001T   00001753+0000001223          1400 GE6130               1BZ
889285003889285112-116038     889285006009681820246TCS CARRIER BAG MIDI   0000001000+00000035+00000+0001T   00000035+0000001223          1400 GE6090               1BZ
889286000889286               889286               170213EO     1400+00000+EO0000028604+0000028604+000000000+000004017+0000032620+0000000001+I20000000000+0000032620+Z
889286001889286077-000150-D   889286006003000054343GIFT-WRAP CELLPHANE CLR0000002000+00000876+00000+0001T   00000876+0000001234          1400 GE6112               1BZ
889286002889286079-009702-B   889286008427973059491PAPER SIRIO A2 WHITE   0000001000+00001051+00000+0001T   00001051+0000001234          1400 GE6130               1BZ
889286003889286079-009702-G   889286008427973060787PAPER SIRIO A2 FUSHIA  0000001000+00001051+00000+0001T   00001051+0000001234          1400 GE6130               1BZ
889286004889286112-116069     889286006009681820277TCS CARRIER BAG JUMBO  0000001000+00000048+00000+0001T   00000048+0000001234          1400 GE6090               1BZ
889286005889286304-001011     889286006001023806727FLWR ROSE RED W/BEAR   0000022000+00000613+00000+0001T   00000788+0006471234          1400 GE6510               1BZ
889286006889286304-001204     889286006001023737984FLOWER OCC. TEDDY/ROSES0000008000+00001402+00000+0001T   00001490+0006471234          1400 GE6510               1BZ
889287000889287               889287               170213EO     1400+00000+EO0000000876+0000000876+000000000+000000123+0000000990+0000000009+I20000000000+0000000990+Z
889287001889287077-000314     889287006003000181148GIFT-BAG 11X14CM MATT  0000001000+00000876+00000+0001T   00000876+0000001235          1400 GE6112               1CZ
889288000889288               889288               170213EO     1400+00000+EO0000001099+0000001099+000000000+000000155+0000001250+0000000004+I20000000000+0000001250+Z
889288001889288112-116069     889288006009681820277TCS CARRIER BAG JUMBO  0000001000+00000048+00000+0001T   00000048+0000001244          1400 GE6090               1CZ
889288002889288079-009702-C   889288008427973059309PAPER SIRIO A2 VIOLET  0000001000+00001051+00000+0001T   00001051+0000001244          1400 GE6130               1CZ
889289000889289               889289               170213EO     1400+00000+EO0000006139+0000006139+000000000+000000860+0000006990+0000000009+I20000000000+0000006990+Z
889289001889289018-050000     889289006003000412679MUG OCC LOVE TWIN BEAR 0000001000+00006139+00000+0001T   00006139+0000001246          1400 GE6515               1CZ
889290000889290               889290               170213EO     1400+00000+EO0000002278+0000002278+000000000+000000320+0000002590+0000000008+I20000000000+0000002590+Z
889290001889290077-000010-C   889290006001023123879CREPE-PAPER RED        0000001000+00000788+00000+0001T   00000788+0000001248          1400 GE6112               1AZ
889290002889290077-000299     889290006003000395576G/BAG 32x25cm LRG LOVE 0000001000+00001490+00000+0001T   00001490+0000001248          1400 GE6112               1AZ
889291000889291               889291               170213EO     1400+00000+EO0000004997+0000004997+000000000+000000700+0000005697+0000000000+I40000005697+0000000000+Z
889291001889291018-005009     889291006001023725608MUG W/PLUSH-BEAR LOVE  0000001000+00003507+00000+0001T   00003507+0000001252          1400 GE6515               1DZ
889291002889291077-000299     889291006003000395576G/BAG 32x25cm LRG LOVE 0000001000+00001490+00000+0001T   00001490+0000001252          1400 GE6112               1DZ
889292000889292               889292               170213EO     1400+00000+EO0000003857+0000003857+000000000+000000541+0000004390+0000000008+I20000000000+0000004390+Z
889292001889292206-000630     889292006003000631919SPECTACLE CLEANING BRUS0000001000+00001227+00000+0001T   00001227+0000001258          1400 GE6321               1AZ
889292002889292206-000290     889292006003000632541BOTTLE OPENER SILICONE 0000001000+00002630+00000+0001T   00002630+0000001258          1400 GE6321               1AZ
889293000889293               889293               170213EO     1400+00000+EO0000008806+0000008806+000000000+000001233+0000010039+0000000000+I40000010039+0000000000+Z
889293001889293001-091415     889293006003000329113W/GLS OCC. LOVE 2PC 2800000001000+00008771+00000+0001T   00009648+0006471304          1400 GE6515               1AZ
889293002889293112-116038     889293006009681820246TCS CARRIER BAG MIDI   0000001000+00000035+00000+0001T   00000035+0000001304          1400 GE6090               1AZ
889294000889294               889294               170213EO     1400+00000+EO0000000613+0000000613+000000000+000000086+0000000690+0000000009+I20000000000+0000000690+Z
889294001889294077-000321     889294006001023677501GIFT-BAG 11X14CM E/D FL0000001000+00000613+00000+0001T   00000613+0000001319          1400 GE6112               1BZ
889295000889295               889295               170213EO     1400+00000+EO0000000612+0000000612+000000000+000000086+0000000690+0000000008+I20000000000+0000000690+Z
889295001889295007-000234     889295006009685850638LABELS 24PK            0000002000+00000306+00000+0001T   00000306+0000001323          1400 GE6130               1CZ
889296000889296               889296               170213EO     1400+00000+EO0000006139+0000006139+000000000+000000860+0000006999+0000000000+I40000006999+0000000000+Z
889296001889296106-000901     889296006003000538058WATER BOTTLE 600ml     0000001000+00006139+00000+0001T   00006139+0000001330          1400 GE6210               1AZ
889297000889297               889297               170213EO     1400+00000+EO0000003506+0000003506+000000000+000000492+0000003990+0000000008+I20000000000+0000003990+Z
889297001889297071-000873     889297006001023758743RUB-BANDS CLR BAG-100  0000001000+00001490+00000+0001T   00001490+0000001333          1400 GE6130               1AZ
889297002889297174-008025     889297006009654960399TRAVEL TUBS 4-PACK 30ml0000001000+00002016+00000+0001T   00002016+0000001333          1400 GE6205               1AZ
889298000889298               889298               170213EO     1400+00000+EO0000002104+0000002104+000000000+000000295+0000002399+0000000000+I40000002399+0000000000+Z
889298001889298150-000024     889298006001023435217BASIN-PLUG RUBBER/CHR  0000001000+00002104+00000+0001T   00002104+0000001410          1400 JK4810               1AZ
889299000889299               889299               170213EO     1400+00000+EO0000009646+0000009646+000000000+000001352+0000010998+0000000000+I40000010998+0000000000+Z
889299001889299466-006134     889299006001023647658GOLF-SET PL 3PCE       0000001000+00002630+00000+0001T   00002630+0000001415          1400 JK4785               1AZ
889299002889299265-001658     889299006003000123896BOAT PL B/O BUMP&GO    0000001000+00007016+00000+0001T   00007016+0000001415          1400 JK4710               1AZ
889300000889300               889300               170213EO     1400+00000+EO0000009499+0000009499+000000000+000001333+0000010830+0000000002+I20000000000+0000010830+Z
889300001889300112-116038     889300006009681820246TCS CARRIER BAG MIDI   0000001000+00000035+00000+0001T   00000035+0000001438          1400 GE6090               1AZ
889300002889300264-000921     889300000090159150442MAISTO CAR 3" FRESH    0000002000+00001753+00000+0001T   00001753+0000001438          1400 GE6710               1AZ
889300003889300903-003080     889300005907029004673SWT SNACK STIX CHOC 50g0000002000+00000876+00000+0001T   00000876+0000001438          1400 GE6150               1AZ
889300004889300903-000849     889300008692806080083SWT SNACK BISCUIT 70g  0000002000+00000613+00000+0001T   00000613+0000001438          1400 GE6150               1AZ
889300005889300362-000306     889300006003000450039HAIR BAND SET 18PC     0000002000+00001490+00000+0001T   00001490+0000001438          1400 GE6160               1AZ
889301000889301               889301               170213EO     1400+00000+EO0000004418+0000004418+000000000+000000620+0000005030+0000000008+I20000000000+0000005030+Z
889301001889301031-086219     889301006001023761729P/FRAME 9x13cm CURVED  0000001000+00002630+00000+0001T   00002630+0000001445          1400 GE6510               1CZ
889301002889301077-000472     889301006003000330133G-BAG DESGNR LRG 25X32 0000001000+00001753+00000+0001T   00001753+0000001445          1400 GE6112               1CZ
889301003889301112-116038     889301006009681820246TCS CARRIER BAG MIDI   0000001000+00000035+00000+0001T   00000035+0000001445          1400 GE6090               1CZ
889302000889302               889302               170213EO     1400+00000+EO0000033341+0000033341+000000000+000004680+0000038021+0000000000+I40000038021+0000000000+Z
889302001889302112-116038     889302006009681820246TCS CARRIER BAG MIDI   0000001000+00000035+00000+0001T   00000035+0000001451          1400 GE6090               1AZ
889302002889302089-000192-A   889302006001023901774KEY-CHAIN ACRYLIC      0000001000+00000876+00000+0001T   00000876+0000001451          1400 GE6205               1AZ
889302003889302206-000370     889302006003000631315STRAW P/DRINKING GLASS 0000002000+00001753+00000+0001T   00001753+0000001451          1400 GE6321               1AZ
889302004889302903-000215     889302006002099001214SWT GS MALLOW TWIST PAC0000001000+00001753+00000+0001T   00001753+0000001451          1400 GE6150               1AZ
889302005889302903-000087     889302006001704000161SWT SPECKLED-EGGS 50G  0000002000+00001139+00000+0001T   00001139+0000001451          1400 GE6150               1AZ
889302006889302301-087002     889302006003000425952ORN OCCASION DAD FIG.  0000001000+00001139+00000+0001T   00001578+0008121451          1400 GE6505               1AZ
889302007889302301-085001     889302006003000297610ORN WATERBALL LOVE ASST0000003000+00004823+00000+0001T   00004823+0000001451          1400 GE6505               1AZ
889302008889302903-003080     889302005907029004673SWT SNACK STIX CHOC 50g0000001000+00000876+00000+0001T   00000876+0000001451          1400 GE6150               1AZ
889302009889302903-002851     889302000000087108538MENTOS ROLL STRAWBERRY 0000001000+00001051+00000+0001T   00001051+0000001451          1400 GE6150               1AZ
889302010889302565-000040     889302006008766115635NOVELTY ICON BEANIE    0000001000+00002630+00000+0001T   00002630+0000001451          1400 GE6745               1AZ
889302011889302903-000200     889302006009826020234SWT CHOC RP CHOCO 23G  0000006000+00000788+00000+0001T   00000788+0000001451          1400 GE6150               1AZ
889303000889303               889303               170213EO     1400+00000+EO0000008364+0000008364+000000000+000001173+0000009530+0000000007+I20000000000+0000009530+Z
889303001889303077-000289     889303006001023901996GIFT BOX 20x25x11cm    0000001000+00001753+00000+0001T   00001753+0000001455          1400 GE6112               1CZ
889303002889303018-050000     889303006003000412679MUG OCC LOVE TWIN BEAR 0000001000+00006139+00000+0001T   00006139+0000001455          1400 GE6515               1CZ
889303003889303080-000133     889303006003000535613CARD&ENV MINI ASTD DSGN0000001000+00000437+00000+0001T   00000437+0000001455          1400 GE6112               1CZ
889303004889303112-116038     889303006009681820246TCS CARRIER BAG MIDI   0000001000+00000035+00000+0001T   00000035+0000001455          1400 GE6090               1CZ
889304000889304               889304               170213EO     1400+00000+EO0000056118+0000056118+000000000+000007860+0000063978+0000000000+I40000063978+0000000000+Z
889304001889304174-008032     889304006009654960603TRAVEL BOTTLES 50ml    0000010000+00001928+00000+0001T   00001928+0000001511          1400 GE6205               1CZ
889304002889304158-000167     889304006003000569588WASTEPAPER-BASKET 26cm 0000001000+00005262+00000+0001T   00005262+0000001511          1400 GE6300               1CZ
889304003889304174-008032     889304006009654960603TRAVEL BOTTLES 50ml    0000001000+00001928+00000+0001T   00001928+0000001511          1400 GE6205               1CZ
889304004889304174-008034     889304006009654960610TRAVEL BOTTLES 150ml   0000001000+00001928+00000+0001T   00001928+0000001511          1400 GE6205               1CZ
889304005889304158-000167     889304006003000569588WASTEPAPER-BASKET 26cm 0000001000+00005262+00000+0001T   00005262+0000001511          1400 GE6300               1CZ
889304006889304112-116069     889304006009681820277TCS CARRIER BAG JUMBO  0000001000+00000048+00000+0001T   00000048+0000001511          1400 GE6090               1CZ
889304007889304566-000322     889304006003000423132STICKER R/DEC CHANDELIE0000002000+00005262+00000+0001T   00005262+0000001511          1400 GE6130               1CZ
889304008889304566-000320     889304006003000422890STICKERS R/DEC. NATURE 0000002000+00005262+00000+0001T   00005262+0000001511          1400 GE6130               1CZ
889304009889304107-004105     889304006002923010504BUCKET 9L OPEN         0000001000+00001314+00000+0001T   00001314+0000001511          1400 GE6210               1CZ
889304010889304112-116069     889304006009681820277TCS CARRIER BAG JUMBO  0000001000+00000048+00000+0001T   00000048+0000001511          1400 GE6090               1CZ
889305000889305               889305               170213EO     1400+00000+EO0000002630+0000002630+000000000+000000369+0000002990+0000000009+I20000000000+0000002990+Z
889305001889305306-000001     889305006003000450152NAIL BRUSH SET 7/9/14cm0000001000+00002630+00000+0001T   00002630+0000001519          1400 GE6200               1CZ
889306000889306               889306               170213EO     1400+00000+EO0000009470+0000009470+000000000+000001326+0000010790+0000000006+I20000000000+0000010790+Z
889306001889306001-000175     889306006001023788108B/MUG GLS LOVE 380ML   0000001000+00004385+00000+0001T   00004385+0000001523          1400 GE6515               1CZ
889306002889306018-005009     889306006001023725608MUG W/PLUSH-BEAR LOVE  0000001000+00003507+00000+0001T   00003507+0000001523          1400 GE6515               1CZ
889306003889306077-000303     889306006001023593757GIFT-BAG PAPER MED     0000001000+00001578+00000+0001T   00001578+0000001523          1400 GE6112               1CZ
889307000889307               889307               170213EO     1400+00000+EO0000002964-0000002964-000000000+000000416-0000003380-0000000000+I20000000000+0000003380-Z
889307001889307089-000141-H   889307006001023416568KEY-CHAINS 6PCE     H&H0000002000-00001482+00000+0001T   00001490+0000001530          1400 GE62052IC            1 Z
889308000889308               889308               170213EO     1400+00000+EO0000000964+0000000964+000000000+000000135+0000001090+0000000009+I20000000000+0000001090+Z
889308001889308007-000204     889308006009635835272EXAM-PAD 60SHT PUNCHED 0000001000+00000964+00000+0001T   00000964+0000001532          1400 GE6130               1CZ
889309000889309               889309               170213EO     1400+00000+EO0000001490+0000001490+000000000+000000209+0000001690+0000000009+I20000000000+0000001690+Z
889309001889309077-000384     889309006003000275243G/BAG HOT STMP 18x23CM 0000001000+00001490+00000+0001T   00001490+0000001541          1400 GE6112               1CZ
889310000889310               889310               170213EO     1400+00000+EO0000019146+0000019146+000000000+000002684+0000021830+0000000000+I40000021830+0000000000+Z
889310001889310077-000382     889310006003000247820GIFT-BAG MED 18X23CM   0000001000+00001753+00000+0001T   00001753+0000001543          1400 GE6112               1AZ
889310002889310077-000312     889310006001023608697GIFT-BAG 10X35CM GLOSS 0000001000+00001314+00000+0001T   00001314+0000001543          1400 GE6112               1AZ
889310003889310304-001204     889310006001023737984FLOWER OCC. TEDDY/ROSES0000001000+00001402+00000+0001T   00001490+0006471543          1400 GE6510               1AZ
889310004889310007-000552     889310006001023848086NOTE-CASE 200 MEMO SHTS0000001000+00003069+00000+0001T   00003069+0000001543          1400 GE6130               1AZ
889310005889310089-000017     889310006003000331147KEYCHAIN MOM POLY BOX  0000001000+00004385+00000+0001T   00004385+0000001543          1400 GE6205               1AZ
889310006889310903-000155     889310006009803374435SWT LOLLY I LUV U HEART0000001000+00000525+00000+0001T   00000525+0000001543          1400 GE6150               1AZ
889310007889310903-000087     889310006001704000161SWT SPECKLED-EGGS 50G  0000002000+00001139+00000+0001T   00001139+0000001543          1400 GE6150               1AZ
889310008889310368-000049     889310006003000536955PLUSH BEAR 15cm LOVE   0000001000+00004385+00000+0001T   00004385+0000001543          1400 GE6745               1AZ
889310009889310112-116038     889310006009681820246TCS CARRIER BAG MIDI   0000001000+00000035+00000+0001T   00000035+0000001543          1400 GE6090               1AZ
889311000889311               889311               170213EO     1400+00000+EO0000001752+0000001752+000000000+000000246+0000001990+0000000008+I20000000000+0000001990+Z
889311001889311903-003051     889311008024431008703SWT CHOCO PARTY 25G    0000002000+00000876+00000+0001T   00000876+0000001546          1400 GE6150               1DZ
889312000889312               889312               170213EO     1400+00000+EO0000006139+0000006139+000000000+000000860+0000006990+0000000009+I20000000000+0000006990+Z
889312001889312368-000175     889312006003000270316PLUSH BEAR 4 ASSTD 18CM0000001000+00006139+00000+0001T   00006139+0000001547          1400 GE6745               1CZ
889313000889313               889313               170213EO     1400+00000+EO0000002630+0000002630+000000000+000000369+0000002990+0000000009+I20000000000+0000002990+Z
889313001889313077-000251     889313006003000639106GIFT-DECOR RIBBON      0000001000+00002630+00000+0001T   00002630+0000001553          1400 GE6112               1AZ
889314000889314               889314               170213EO     1400+00000+EO0000002100+0000002100+000000000+000000296+0000002396+0000000000+I40000002396+0000000000+Z
889314001889314903-000155     889314006009803374435SWT LOLLY I LUV U HEART0000004000+00000525+00000+0001T   00000525+0000001554          1400 GE6150               1AZ
889315000889315               889315               170213EO     1400+00000+EO0000002846+0000002846+000000000+000000400+0000003240+0000000006+I20000000000+0000003240+Z
889315001889315079-006494     889315006003000159864GLITTER GLUE 5PCE 11cm 0000001000+00001490+00000+0001T   00001490+0000001556          1400 GE6130               1AZ
889315002889315903-000155     889315006009803374435SWT LOLLY I LUV U HEART0000002000+00000525+00000+0001T   00000525+0000001556          1400 GE6150               1AZ
889315003889315079-009700-A   889315006003000547746PAPER SIRIO A4 BLACK   0000001000+00000306+00000+0001T   00000306+0000001556          1400 GE6130               1AZ
889316000889316               889316               170213EO     1400+00000+EO0000003244+0000003244+000000000+000000455+0000003690+0000000009+I20000000000+0000003690+Z
889316001889316046-000400     889316006001023804983BATT ALKALINE 1.5Vx30PC0000001000+00003244+00000+0001T   00003244+0000001601          1400 GE6312               1CZ
889317000889317               889317               170213EO     1400+00000+EO0000006172+0000006172+000000000+000000865+0000007030+0000000007+I20000000000+0000007030+Z
889317001889317263-001003     889317006001023789846CARS RACING SET-OF-2   0000001000+00002630+00000+0001T   00002630+0000001609          1400 JK4710               1AZ
889317002889317560-000300     889317006001023714879DINOSAURS 12PC         0000001000+00003507+00000+0001T   00003507+0000001609          1400 JK4745               1AZ
889317003889317112-116038     889317006009681820246TCS CARRIER BAG MIDI   0000001000+00000035+00000+0001T   00000035+0000001609          1400 JK4090               1AZ
889318000889318               889318               170213EO     1400+00000+EO0000004384+0000004384+000000000+000000614+0000004990+0000000008+I20000000000+0000004990+Z
889318001889318108-001002     889318006003000503810TUMBLER PL 4PC 400ml   0000001000+00002192+00000+0001T   00002192+0000001610          1400 JK4210               1AZ
889318002889318024-091103     889318006003453014307BAKING-CUP MUFFIN 50PCE0000001000+00002192+00000+0001T   00002192+0000001610          1400 JK4300               1AZ
889319000889319               889319               170213EO     1400+00000+EO0000003506+0000003506+000000000+000000492+0000003990+0000000008+I20000000000+0000003990+Z
889319001889319077-000472     889319006003000330133G-BAG DESGNR LRG 25X32 0000002000+00001753+00000+0001T   00001753+0000001611          1400 JK4112               1AZ
889320000889320               889320               170213EO     1400+00000+EO0000012307+0000012307+000000000+000001726+0000014030+0000000003+I20000000000+0000014030+Z
889320001889320040-000208     889320006003000673599C/HOLDER GLS COL. 5.5CM0000003000+00000876+00000+0001T   00000876+0000001616          1400 GE6510               1CZ
889320002889320024-091102-B   889320006003000111725BAKING-CUP MUFFIN 40PCE0000002000+00002630+00000+0001T   00002630+0000001616          1400 GE6300               1CZ
889320003889320563-000318-L   889320006003000407088SERVIETTES 33cm RED    0000001000+00002192+00000+0001T   00002192+0000001616          1400 GE6214               1CZ
889320004889320563-000318-J   889320006003000404728SERVIETTES 33cm YELLOW 0000001000+00002192+00000+0001T   00002192+0000001616          1400 GE6214               1CZ
889320005889320112-116038     889320006009681820246TCS CARRIER BAG MIDI   0000001000+00000035+00000+0001T   00000035+0000001616          1400 GE6090               1CZ
889321000889321               889321               170213EO     1400+00000+EO0000000035+0000000035+000000000+000000005+0000000040+0000000000+I20000000000+0000000040+Z
889321001889321112-116038     889321006003000534906TCS CARRIER BAG MIDI   0000001000+00000035+00000+0001T   00000035+0000001617          1400 GE6090               1AZ
889322000889322               889322               170213EO     1400+00000+EO0000005260+0000005260+000000000+000000737+0000005990+0000000007+I20000000000+0000005990+Z
889322001889322562-000011     889322006003000600984PLAY DOUGH NEON TUBE   0000001000+00003507+00000+0001T   00003507+0000001619          1400 GE6755               1CZ
889322002889322079-003007     889322006003000448487A/TUBE 75ML BROWN      0000001000+00001753+00000+0001T   00001753+0000001619          1400 GE6130               1CZ
889323000889323               889323               170213EO     1400+00000+EO0000001490+0000001490+000000000+000000209+0000001690+0000000009+I20000000000+0000001690+Z
889323001889323565-000990     889323006001023673510NOVELTY STICKY SLAPPER 0000001000+00001490+00000+0001T   00001490+0000001620          1400 GE6745               1CZ
889324000889324               889324               170213EO     1400+00000+EO0000017363+0000017363+000000000+000002432+0000019795+0000000000+I40000019795+0000000000+Z
889324001889324007-000206     889324006009635830215X/PAD 80-SHEETS PUNCHED0000002000+00001227+00000+0001T   00001227+0000001622          1400 GE6130               1CZ
889324002889324024-000118     889324006001023422316N/STICK C/PAN HEART    0000001000+00004385+00000+0001T   00004385+0000001622          1400 GE6300               1CZ
889324003889324024-000165-E   889324006003000674558N/STICK BAKING TRAY    0000002000+00005262+00000+0001T   00005262+0000001622          1400 GE6300               1CZ
889325000889325               889325               170213EO     1400+00000+EO0000007011+0000007011+000000000+000000982+0000007990+0000000003+I20000000000+0000007990+Z
889325001889325046-000012     889325006904708013062BATTERIES AA  CARD-OF-40000001000+00001314+00000+0001T   00001314+0000001624          1400 GE6312               1CZ
889325002889325486-002083     889325006001023740403A/CLOCK QTZ PL SQR     0000001000+00003507+00000+0001T   00003507+0000001624          1400 GE6510               1CZ
889325003889325077-000310     889325006001023608635GIFT-BAG 18X23CM GLOSS 0000001000+00001314+00000+0001T   00001314+0000001624          1400 GE6112               1CZ
889325004889325903-003080     889325005907029004673SWT SNACK STIX CHOC 50g0000001000+00000876+00000+0001T   00000876+0000001624          1400 GE6150               1CZ
889326000889326               889326               170213EO     1400+00000+EO0000001578+0000001578+000000000+000000221+0000001790+0000000009+I20000000000+0000001790+Z
889326001889326077-000303     889326006001023593757GIFT-BAG PAPER MED     0000001000+00001578+00000+0001T   00001578+0000001625          1400 GE6112               1CZ
889327000889327               889327               170213EO     1400+00000+EO0000001575+0000001575+000000000+000000222+0000001790+0000000007+I20000000000+0000001790+Z
889327001889327903-000155     889327006009803374435SWT LOLLY I LUV U HEART0000003000+00000525+00000+0001T   00000525+0000001626          1400 GE6150               1AZ
889328000889328               889328               170213EO     1400+00000+EO0000005998+0000005998+000000000+000000840+0000006830+0000000008+I20000000000+0000006830+Z
889328001889328018-030000     889328006003000421060MUG OCCASIONS LOVE 2PCE0000001000+00004385+00000+0001T   00004385+0000001627          1400 GE6515               1CZ
889328002889328077-000303     889328006001023593757GIFT-BAG PAPER MED     0000001000+00001578+00000+0001T   00001578+0000001627          1400 GE6112               1CZ
889328003889328112-116038     889328006009681820246TCS CARRIER BAG MIDI   0000001000+00000035+00000+0001T   00000035+0000001627          1400 GE6090               1CZ
889329000889329               889329               170213EO     1400+00000+EO0000000035+0000000035+000000000+000000005+0000000040+0000000000+I20000000000+0000000040+Z
889329001889329112-116038     889329006003000534906TCS CARRIER BAG MIDI   0000001000+00000035+00000+0001T   00000035+0000001628          1400 GE6090               1CZ
889330000889330               889330               170213EO     1400+00000+EO0000002102+0000002102+000000000+000000295+0000002390+0000000007+I20000000000+0000002390+Z
889330001889330304-001204     889330006001023737984FLOWER OCC. TEDDY/ROSES0000001000+00001402+00000+0001T   00001490+0006471629          1400 GE6510               1CZ
889330002889330018-000177     889330006001023797513MUG MINI LOVE ASSTD    0000001000+00000700+00000+0001T   00000700+0000001629          1400 GE6515               1CZ
889331000889331               889331               170213EO     1400+00000+EO0000000613+0000000613+000000000+000000086+0000000690+0000000009+I20000000000+0000000690+Z
889331001889331306-000021     889331006001023169433EARBUDS 100PCE IN BAG  0000001000+00000613+00000+0001T   00000613+0000001630          1400 GE6200               1CZ
889332000889332               889332               170213EO     1400+00000+EO0000001753+0000001753+000000000+000000246+0000001990+0000000009+I20000000000+0000001990+Z
889332001889332079-002000     889332006003000658152MODELLING CLAY         0000001000+00001753+00000+0001T   00001753+0000001631          1400 GE6130               1CZ
889333000889333               889333               170213EO     1400+00000+EO0000001613+0000001613+000000000+000000226+0000001830+0000000009+I20000000000+0000001830+Z
889333001889333077-000303     889333006001023593757GIFT-BAG PAPER MED     0000001000+00001578+00000+0001T   00001578+0000001640          1400 GE6112               1CZ
889333002889333112-116038     889333006009681820246TCS CARRIER BAG MIDI   0000001000+00000035+00000+0001T   00000035+0000001640          1400 GE6090               1CZ
889334000889334               889334               170213EO     1400+00000+EO0000004120+0000004120+000000000+000000577+0000004690+0000000007+I20000000000+0000004690+Z
889334001889334079-000286     889334006001023797032FINGER-PAINT 4PCE      0000001000+00003507+00000+0001T   00003507+0000001641          1400 GE6130               1CZ
889334002889334077-000311     889334006001023608666GIFT-BAG 11X14CM GLOSS 0000001000+00000613+00000+0001T   00000613+0000001641          1400 GE6112               1CZ
889335000889335               889335               170213EO     1400+00000+EO0000001402+0000001402+000000000+000000197+0000001590+0000000009+I20000000000+0000001590+Z
889335001889335027-009030     889335006002814400100DUSTPAN PL             0000001000+00001402+00000+0001T   00001402+0000001642          1400 GE6212               1CZ
889336000889336               889336               170213EO     1400+00000+EO0000006136+0000006136+000000000+000000861+0000006990+0000000007+I20000000000+0000006990+Z
889336001889336027-056185     889336006003000638093DISH BRUSH DUCK DESIGN 0000001000+00002630+00000+0001T   00002630+0000001643          1400 GE6212               1CZ
889336002889336080-000107     889336006003000237081CARD&ENVELPE BDAY BOY  0000001000+00001753+00000+0001T   00001753+0000001643          1400 GE6112               1CZ
889336003889336080-000123     889336006003000237722CARD&ENVELOPE-SYMPATHY 0000001000+00001753+00000+0001T   00001753+0000001643          1400 GE6112               1CZ
889337000889337               889337               170213EO     1400+00000+EO0000004385+0000004385+000000000+000000614+0000004999+0000000000+I40000004999+0000000000+Z
889337001889337104-000030     889337006001023803481BASKET PL 28x20x12cm   0000001000+00004385+00000+0001T   00004385+0000001647          1400 GE6210               1CZ
889338000889338               889338               170213EO     1400+00000+EO0000006487+0000006487+000000000+000000909+0000007390+0000000006+I20000000000+0000007390+Z
889338001889338080-000124     889338006003000297733CARD & ENV VALENTINES  0000001000+00001578+00000+0001T   00001578+0000001648          1400 GE6112               1CZ
889338002889338304-001204     889338006001023737984FLOWER OCC. TEDDY/ROSES0000001000+00001402+00000+0001T   00001490+0006471648          1400 GE6510               1CZ
889338003889338018-005009     889338006001023725608MUG W/PLUSH-BEAR LOVE  0000001000+00003507+00000+0001T   00003507+0000001648          1400 GE6515               1CZ
889339000889339               889339               170213EO     1400+00000+EO0000004593+0000004593+000000000+000000644+0000005230+0000000007+I20000000000+0000005230+Z
889339001889339028-000796     889339006001023812094SKEWERS 25cm 50PCE 4mm 0000001000+00001490+00000+0001T   00001490+0000001649          1400 GE6305               1AZ
889339002889339200-000067     889339006003000330683STRAWS DRINKING 100PC  0000001000+00002192+00000+0001T   00002192+0000001649          1400 GE6214               1AZ
889339003889339076-000017     889339006001811010022TWINE COTTON 50g-BALL  0000001000+00000876+00000+0001T   00000876+0000001649          1400 GE6810               1AZ
889339004889339112-116038     889339006009681820246TCS CARRIER BAG MIDI   0000001000+00000035+00000+0001T   00000035+0000001649          1400 GE6090               1AZ
889340000889340               889340               170213EO     1400+00000+EO0000001753+0000001753+000000000+000000246+0000001990+0000000009+I20000000000+0000001990+Z
889340001889340077-000904     889340006003000410682G/WRAP 700mmx1m PATTERN0000001000+00001753+00000+0001T   00001753+0000001652          1400 GE6112               1CZ
889341000889341               889341               170213EO     1400+00000+EO0000001437+0000001437+000000000+000000202+0000001630+0000000009+I20000000000+0000001630+Z
889341001889341304-001204     889341006001023737984FLOWER OCC. TEDDY/ROSES0000001000+00001402+00000+0001T   00001490+0006471653          1400 GE6510               1BZ
889341002889341112-116038     889341006009681820246TCS CARRIER BAG MIDI   0000001000+00000035+00000+0001T   00000035+0000001653          1400 GE6090               1BZ
889342000889342               889342               170213EO     1400+00000+EO0000000437+0000000437+000000000+000000062+0000000490+0000000009+I20000000000+0000000490+Z
889342001889342080-000133     889342006003000535613CARD&ENV MINI ASTD DSGN0000001000+00000437+00000+0001T   00000437+0000001653          1400 GE6112               1BZ
889343000889343               889343               170213EO     1400+00000+EO0000013153+0000013153+000000000+000001843+0000014990+0000000006+I20000000000+0000014990+Z
889343001889343019-000500-A   889343006003000245161VASE CER INSPIRATIONS  0000001000+00003507+00000+0001T   00003507+0000001655          1400 GE6510               1CZ
889343002889343301-085007     889343006003000673698ORN OCC. LOVE S/PLAQUE 0000001000+00007893+00000+0001T   00007893+0000001655          1400 GE6505               1CZ
889343003889343077-000378     889343006003000507955G/BAG LRG 25x32cm MOM  0000001000+00001753+00000+0001T   00001753+0000001655          1400 GE6112               1CZ
889344000889344               889344               170213EO     1400+00000+EO0000001578+0000001578+000000000+000000221+0000001790+0000000009+I20000000000+0000001790+Z
889344001889344077-000303     889344006001023593757GIFT-BAG PAPER MED     0000001000+00001578+00000+0001T   00001578+0000001655          1400 GE6112               1CZ
889345000889345               889345               170213EO     1400+00000+EO0000010129+0000010129+000000000+000001421+0000011550+0000000000+I40000011550+0000000000+Z
889345001889345065-003639     889345006001023787620GUITAR ROCKER          0000001000+00007016+00000+0001T   00007016+0000001658          1400 GE6745               1BZ
889345002889345903-000710     889345006002099007056SWT REFRESHERS MINT    0000001000+00001139+00000+0001T   00001139+0000001658          1400 GE6150               1BZ
889345003889345903-000521     889345006001704009652SWT GUMMY SOFT GUMS    0000001000+00000876+00000+0001T   00000876+0000001658          1400 GE6150               1BZ
889345004889345112-116069     889345006009681820277TCS CARRIER BAG JUMBO  0000001000+00000048+00000+0001T   00000048+0000001658          1400 GE6090               1BZ
889345005889345903-000155     889345006009803374435SWT LOLLY I LUV U HEART0000002000+00000525+00000+0001T   00000525+0000001658          1400 GE6150               1BZ
889346000889346               889346               170213EO     1400+00000+EO0000004032+0000004032+000000000+000000565+0000004597+0000000000+I40000004597+0000000000+Z
889346001889346263-000506     889346006001023790231CAR SET 3PK CONSTRUCT  0000001000+00003507+00000+0001T   00003507+0000001702          1400 GE6710               1CZ
889346002889346903-000155     889346006009803374435SWT LOLLY I LUV U HEART0000001000+00000525+00000+0001T   00000525+0000001702          1400 GE6150               1CZ
889347000889347               889347               170213EO     1400+00000+EO0000013198+0000013198+000000000+000001851+0000015049+0000000000+I40000015049+0000000000+Z
889347001889347567-004961     889347009780636049017TYB G01 MATHS          0000001000+00002192+00000+0001T   00002192+0000001709          1400 GE6757               1CZ
889347002889347567-011360     889347009780709721932BK EDU FIRST NUMBERS   0000001000+00006139+00000+0001T   00006139+0000001709          1400 GE6757               1CZ
889347003889347077-000151     889347006008766114676GIFT-WRAP C/PHANE ASSTD0000002000+00000876+00000+0001T   00000876+0000001709          1400 GE6112               1CZ
889347004889347077-000235     889347006003000160211GIFT-RIBBON ROLL METALC0000001000+00002630+00000+0001T   00002630+0000001709          1400 GE6112               1CZ
889347005889347080-000133     889347006003000535613CARD&ENV MINI ASTD DSGN0000001000+00000437+00000+0001T   00000437+0000001709          1400 GE6112               1CZ
889347006889347112-116069     889347006009681820277TCS CARRIER BAG JUMBO  0000001000+00000048+00000+0001T   00000048+0000001709          1400 GE6090               1CZ
889348000889348               889348               170213EO     1400+00000+EO0000015435+0000015435+000000000+000002162+0000017590+0000000007+I20000000000+0000017590+Z
889348001889348466-000041     889348006003000590100BALL FOOTBALL IN BOX   0000001000+00007893+00000+0001T   00007893+0000001710          1400 GE6785               1DZ
889348002889348105-000605     889348006005387000517STORAGE CONTAINRS 250ml0000002000+00003771+00000+0001T   00003771+0000001710          1400 GE6210               1DZ
889349000889349               889349               170213EO     1400+00000+EO0000014409+0000014409+000000000+000002022+0000016430+0000000001+I20000000000+0000016430+Z
889349001889349903-000155     889349006009803374435SWT LOLLY I LUV U HEART0000001000+00000525+00000+0001T   00000525+0000001713          1400 GE6150               1AZ
889349002889349112-116038     889349006009681820246TCS CARRIER BAG MIDI   0000001000+00000035+00000+0001T   00000035+0000001713          1400 GE6090               1AZ
889349003889349077-000303     889349006001023593757GIFT-BAG PAPER MED     0000002000+00001578+00000+0001T   00001578+0000001713          1400 GE6112               1AZ
889349004889349077-000011-D   889349006001023808554TISSUE-WRAP WHITE 10PCE0000001000+00000876+00000+0001T   00000876+0000001713          1400 GE6112               1AZ
889349005889349565-000040     889349006008766115635NOVELTY ICON BEANIE    0000001000+00002630+00000+0001T   00002630+0000001713          1400 GE6745               1AZ
889349006889349903-000921     889349006939495519107SWT NOVELTY SLUSH PUPPY0000001000+00002016+00000+0001T   00002016+0000001713          1400 GE6150               1AZ
889349007889349077-000299     889349006003000395576G/BAG 32x25cm LRG LOVE 0000001000+00001490+00000+0001T   00001490+0000001713          1400 GE6112               1AZ
889349008889349903-002853     889349000000087108019MENTOS ROLL MINT       0000001000+00001051+00000+0001T   00001051+0000001713          1400 GE6150               1AZ
889349009889349565-000040     889349006008766115635NOVELTY ICON BEANIE    0000001000+00002630+00000+0001T   00002630+0000001713          1400 GE6745               1AZ
889350000889350               889350               170213EO     1400+00000+EO0000001314+0000001314+000000000+000000184+0000001490+0000000008+I20000000000+0000001490+Z
889350001889350903-004950     889350006002580020304SWT APRICOT SURPRISE   0000001000+00001314+00000+0001T   00001314+0000001715          1400 GE6150               1CZ
889351000889351               889351               170213EO     1400+00000+EO0000001753+0000001753+000000000+000000246+0000001990+0000000009+I20000000000+0000001990+Z
889351001889351079-006496     889351006003000160105GLITTER SHAKERS        0000001000+00001753+00000+0001T   00001753+0000001716          1400 GE6130               1CZ
889352000889352               889352               170213EO     1400+00000+EO0000004242+0000004242+000000000+000000594+0000004836+0000000000+I40000004836+0000000000+Z
889352001889352306-000023-A   889352006003000110148COTTON WOOL BALLS 50PCE0000001000+00000700+00000+0001T   00001314+0008171718          1400 GE6200               1CZ
889352002889352007-000324     88935200600968585864125 SHEETS BRIGHTS MARLI0000001000+00003507+00000+0001T   00003507+0000001718          1400 GE6130               1CZ
889352003889352112-116038     889352006009681820246TCS CARRIER BAG MIDI   0000001000+00000035+00000+0001T   00000035+0000001718          1400 GE6090               1CZ
889353000889353               889353               170213EO     1400+00000+EO0000006781+0000006781+000000000+000000952+0000007733+0000000000+I40000007733+0000000000+Z
889353001889353200-000010-A   889353006003000625079BAG ZIPPERSEAL 35PC    0000001000+00001314+00000+0001T   00001753+0008171720          1400 GE6214               1CZ
889353002889353006-000203-A   889353006003453010965SNACK BOX 6PCE ASSTD   0000001000+00002630+00000+0001T   00002630+0000001720          1400 GE6131               1CZ
889353003889353903-000295     889353006001704002899SWT MS FRUITY RASCALS  0000002000+00000876+00000+0001T   00000876+0000001720          1400 GE6150               1CZ
889353004889353903-000155     889353006009803374435SWT LOLLY I LUV U HEART0000002000+00000525+00000+0001T   00000525+0000001720          1400 GE6150               1CZ
889353005889353112-116038     889353006009681820246TCS CARRIER BAG MIDI   0000001000+00000035+00000+0001T   00000035+0000001720          1400 GE6090               1CZ
889354000889354               889354               170213EO     1400+00000+EO0000005032+0000005032+000000000+000000705+0000005730+0000000007+I20000000000+0000005730+Z
889354001889354077-000299     889354006003000395576G/BAG 32x25cm LRG LOVE 0000001000+00001490+00000+0001T   00001490+0000001721          1400 GE6112               1DZ
889354002889354018-005009     889354006001023725608MUG W/PLUSH-BEAR LOVE  0000001000+00003507+00000+0001T   00003507+0000001721          1400 GE6515               1DZ
889354003889354112-116038     889354006009681820246TCS CARRIER BAG MIDI   0000001000+00000035+00000+0001T   00000035+0000001721          1400 GE6090               1DZ
889355000889355               889355               170213EO     1400+00000+EO0000005259+0000005259+000000000+000000738+0000005990+0000000007+I20000000000+0000005990+Z
889355001889355006-000120     889355006001023346889BALLOONS 10PC MIX COL  0000003000+00001753+00000+0001T   00001753+0000001722          1400 GE6131               1CZ
889356000889356               889356               170213EO     1400+00000+EO0000008799+0000008799+000000000+000001235+0000010030+0000000004+I20000000000+0000010030+Z
889356001889356001-000175     889356006001023788108B/MUG GLS LOVE 380ML   0000001000+00004385+00000+0001T   00004385+0000001730          1400 JK4515               1AZ
889356002889356077-000384     889356006003000275243G/BAG HOT STMP 18x23CM 0000001000+00001490+00000+0001T   00001490+0000001730          1400 JK4112               1AZ
889356003889356903-000200     889356006009826020234SWT CHOC RP CHOCO 23G  0000001000+00000788+00000+0001T   00000788+0000001730          1400 JK4150               1AZ
889356004889356903-002892     889356008935001721338MENTOS JUICEBLAST BERRY0000001000+00001051+00000+0001T   00001051+0000001730          1400 JK4150               1AZ
889356005889356903-000216     889356006925925900966SWT MALLOW TWIST ERKO  0000001000+00000262+00000+0001T   00000262+0000001730          1400 JK4150               1AZ
889356006889356903-000200     889356006009826020234SWT CHOC RP CHOCO 23G  0000001000+00000788+00000+0001T   00000788+0000001730          1400 JK4150               1AZ
889356007889356112-116038     889356006009681820246TCS CARRIER BAG MIDI   0000001000+00000035+00000+0001T   00000035+0000001730          1400 JK4090               1AZ
889357000889357               889357               170213EO     1400+00000+EO0000001402+0000001402+000000000+000000197+0000001590+0000000009+I20000000000+0000001590+Z
889357001889357304-001204     889357006001023737984FLOWER OCC. TEDDY/ROSES0000001000+00001402+00000+0001T   00001490+0006471731          1400 JK4510               1AZ
889358000889358               889358               170213EO     1400+00000+EO0000007219+0000007219+000000000+000001014+0000008230+0000000003+I20000000000+0000008230+Z
889358001889358903-000082     889358006001704014892SWT MINI WINE GUMS 100G0000001000+00001753+00000+0001T   00001753+0000001748          1400 JK4150               1AZ
889358002889358903-000849     889358008692806080083SWT SNACK BISCUIT 70g  0000002000+00000613+00000+0001T   00000613+0000001748          1400 JK4150               1AZ
889358003889358304-001204     889358006001023737984FLOWER OCC. TEDDY/ROSES0000001000+00001402+00000+0001T   00001490+0006471748          1400 JK4510               1AZ
889358004889358903-000155     889358006009803374435SWT LOLLY I LUV U HEART0000001000+00000525+00000+0001T   00000525+0000001748          1400 JK4150               1AZ
889358005889358903-000612     889358006003000617449SWT TRUMPET 20cm       0000001000+00001753+00000+0001T   00001753+0000001748          1400 JK4150               1AZ
889358006889358112-116038     889358006009681820246TCS CARRIER BAG MIDI   0000001000+00000035+00000+0001T   00000035+0000001748          1400 JK4090               1AZ
889358007889358903-000155     889358006009803374435SWT LOLLY I LUV U HEART0000001000+00000525+00000+0001T   00000525+0000001748          1400 JK4150               1AZ
889359000889359               889359               170213EO     1400+00000+EO0000004383+0000004383+000000000+000000615+0000004998+0000000000+I40000004998+0000000000+Z
889359001889359077-000115     889359006001023834225WRAP METALLIC 700mmx1m 0000001000+00001753+00000+0001T   00001753+0000001750          1400 JK4112               1AZ
889359002889359304-000720     889359006001023843050F/BUNCH ROSE 6-HEAD AST0000001000+00002630+00000+0001T   00002630+0000001750          1400 JK4510               1AZ
889360000889360               889360               170213EO     1400+00000+EO0000000048+0000000048+000000000+000000007+0000000050+0000000005+I20000000000+0000000050+Z
889360001889360112-116069     889360006009681820277TCS CARRIER BAG JUMBO  0000001000+00000048+00000+0001T   00000048+0000001751          1400 JK4090               1AZ
A17021300                                          08350971EOSLAVE 1                       GE63IC
A17021301                                          09055009EOSLAVE 1                       GE63IC
A17021302                                          09390070EOSLAVE 1                       GE63IC
A17021303                                          10122410EOSLAVE 1                       GE63IC
A17021304                                          10164947EOSLAVE 1                       GE62IC
A17021305                                          10340335EOSLAVE 1                       GE63IC
A17021306                                          10390048EOSLAVE 1                       GE62IC
A17021307                                          14000121EOSLAVE 1                       GE63IC
A17021308                                          14204201EOSLAVE 1                       SC63IC
A17021309                                          15481949EOSLAVE 1                       GE63IC
A17021310                                          16134738EOSLAVE 1                       GE63IC
A17021311                                          16140082EOSLAVE 1                       GE63IC
C88927300                                          170213EO001-999902     10354160SLAVE 1     GE63IC0000000000+0000000000+0010000001000-
C88927301                                          170213EO001-999902     10370277SLAVE 1     GE63IC0000000000+0000000000+0010000001000-
M17021391                              CASH        EOSLAVE 1                       Z-REPORT No.   600TOTAL (Sales - Refunds)           6546.00       CASH TO BE BANKED                 3527.10       DEBIT CARDS                          0.00       CREDIT CARDS                      2943.00       Z-READING                         6470.10       AIRTIME DEBIT CARD SALES             0.00       AIRTIME CARD SALES                   0.00       OVERS/UNDERS                         0.00       AIRTIME CASH SALES                   0.00       GIFT CARDS                           0.00       GIFT CARD CASH SALES                 0.00       MAINTENANCE+REPAIR-EQP              75.89       ROUNDING                             0.01       T O T A L  CASH PAYOUTS             75.90                                                                                                                                                                                                                                                      Z
M17021392                              CASH        EOABSENT                                                                                                                                                                                          ANNUAL LEAVE                                                                                                                                                                                    DAY OFF                                                                                                                                                                                         COMMENTS          MAIN & REPAIRS   75.90                                                                                                                                                                                                                                                                                                                                                       Z
Y17021300                                          EO00000000577514+000092
ZEO17021319343 SLAVE 1      SALES DATA                     NEXT INVOICE NO.  889361 0600
X EO Slave 1 First invoice 889267 170213 Last invoice 889360 170213 Next invoice 889361 Total number of records 000000352 clbackup completed 19:34:32
