890608000890608               890608               170213EO     1400+00000+EO0000006139+0000006139+000000000+000000860+0000006999+0000000000+I40000006999+0000000000+Z
890608001890608562-001043     890608006003000478200NUMBERS&ALPHABET MAGNET0000001000+00006139+00000+0001T   00006139+0000000841          1400 AZ1755               2CZ
890609000890609               890609               170213EO     1400+00000+EO0000002979+0000002979+000000000+000000418+0000003390+0000000007+I20000000000+0000003390+Z
890609001890609077-000311     890609006001023608666GIFT-BAG 11X14CM GLOSS 0000001000+00000613+00000+0001T   00000613+0000000842          1400 AZ1112               2CZ
890609002890609077-000314     890609006003000181148GIFT-BAG 11X14CM MATT  0000001000+00000876+00000+0001T   00000876+0000000842          1400 AZ1112               2CZ
890609003890609077-000452     890609006003000284986G/BAG METALLIC MED EMB 0000001000+00001490+00000+0001T   00001490+0000000842          1400 AZ1112               2CZ
890610000890610               890610               170213EO     1400+00000+EO0000010572+0000010572+000000000+000001481+0000012050+0000000003+I20000000000+0000012050+Z
890610002890610112-116069     890610006009681820277TCS CARRIER BAG JUMBO  0000001000+00000048+00000+0001T   00000048+0000000901          1400 AZ1090               2CZ
890610003890610304-001116     890610006003000426164F/BUNCH ROSES 12-HEAD  0000002000+00005262+00000+0001T   00005262+0000000901          1400 AZ1510               2CZ
890611000890611               890611               170213EO     1400+00000+EO0000003507+0000003507+000000000+000000491+0000003990+0000000008+I20000000000+0000003990+Z
890611001890611018-000130     890611006001023867537MUG OCC LOVE MINI+HEART0000001000+00003507+00000+0001T   00003507+0000000910          1400 AZ1515               2CZ
890612000890612               890612               170213EO     1400+00000+EO0000007716+0000007716+000000000+000001081+0000008797+0000000000+I40000008797+0000000000+Z
890612001890612077-000382     890612006003000247820GIFT-BAG MED 18X23CM   0000001000+00001753+00000+0001T   00001753+0000000918          1400 AZ1112               2CZ
890612002890612368-000049     890612006003000536955PLUSH BEAR 15cm LOVE   0000001000+00004385+00000+0001T   00004385+0000000918          1400 AZ1745               2CZ
890612003890612018-000127     890612006001023380289MUG OCC STRAIGHT LOVE  0000001000+00001578+00000+0001T   00001753+0006470918          1400 AZ1515               2CZ
890613000890613               890613               170213EO     1400+00000+EO0000001490+0000001490+000000000+000000209+0000001690+0000000009+I20000000000+0000001690+Z
890613001890613028-000796     890613006001023812094SKEWERS 25cm 50PCE 4mm 0000001000+00001490+00000+0001T   00001490+0000000937          1400 AZ1305               2CZ
890614000890614               890614               170213EO     1400+00000+EO0000005170+0000005170+000000000+000000726+0000005896+0000000000+I40000005896+0000000000+Z
890614001890614006-000800     890614006001023902801HAT CABARET 14x18cm    0000001000+00001753+00000+0001T   00001753+0000001000          1400 AZ1131               2CZ
890614002890614566-000066     890614006003000283675STICKERS GLITTER 25PCS 0000001000+00001753+00000+0001T   00001753+0000001000          1400 AZ1130               2CZ
890614003890614077-000010-D   890614006001023123886CREPE-PAPER WHITE      0000001000+00000788+00000+0001T   00000788+0000001000          1400 AZ1112               2CZ
890614004890614903-000521     890614006001704009652SWT GUMMY SOFT GUMS    0000001000+00000876+00000+0001T   00000876+0000001000          1400 AZ1150               2CZ
890615000890615               890615               170213EO     1400+00000+EO0000036873+0000036873+000000000+000005163+0000042036+0000000000+I40000042036+0000000000+Z
890615001890615019-000122     890615006001023809582PLANTER GALV 22cm ROUND0000001000+00005262+00000+0001T   00005262+0000001005          1400 AZ1510               2CZ
890615002890615003-000200     890615006003000378166ORN ANGEL INSPIRATIONAL0000002000+00013157+00000+0001T   00013157+0000001005          1400 AZ1505               2CZ
890615003890615003-009210     890615006003000461851ORN W/STONE 16X14X16CM 0000001000+00005262+00000+0001T   00005262+0000001005          1400 AZ1505               2CZ
890615004890615112-116038     890615006003000534906TCS CARRIER BAG MIDI   0000001000+00000035+00000+0001T   00000035+0000001005          1400 AZ1090               2CZ
890616000890616               890616               170213EO     1400+00000+EO0000003507+0000003507+000000000+000000491+0000003990+0000000008+I20000000000+0000003990+Z
890616001890616028-002101     890616006002580009507CHAIR JUNIOR    ASSTD  0000001000+00003507+00000+0001T   00003507+0000001009          1400 AZ1305               2CZ
890617000890617               890617               170213EO     1400+00000+EO0000003770+0000003770+000000000+000000528+0000004290+0000000008+I20000000000+0000004290+Z
890617001890617024-000042     890617006002580009255M/CUP MINI 30ML H/HOUSE0000001000+00002192+00000+0001T   00002192+0000001010          1400 AZ1300               2CZ
890617002890617024-000034     890617006001023495235MEASURING-JUG 1-CUP    0000001000+00001578+00000+0001T   00001578+0000001010          1400 AZ1300               2CZ
890618000890618               890618               170213EO     1400+00000+EO0000001753+0000001753+000000000+000000246+0000001990+0000000009+I20000000000+0000001990+Z
890618001890618200-003026     890618006003000276448REFUSE BAGS 10PCE GREEN0000001000+00001753+00000+0001T   00001753+0000001010          1400 AZ1214               2CZ
890619000890619               890619               170213EO     1400+00000+EO0000018854+0000018854+000000000+000002641+0000021495+0000000000+I40000021495+0000000000+Z
890619001890619007-000597     890619006009699511129MARLIN SLF ADHESIVE 2M 0000003000+00002192+00000+0001T   00002192+0000001018          1400 AZ1130               2CZ
890619002890619566-000316     890619006003000521821STICKERS MIRRORS HOME  0000002000+00006139+00000+0001T   00006139+0000001018          1400 AZ1130               2CZ
890620000890620               890620               170213EO     1400+00000+EO0000008771+0000008771+000000000+000001228+0000009990+0000000009+I20000000000+0000009990+Z
890620001890620001-091415     890620006003000329113W/GLS OCC. LOVE 2PC 2800000001000+00008771+00000+0001T   00009648+0006471026          1400 AZ1515               2CZ
890621000890621               890621               170213EO     1400+00000+EO0000000070+0000000070+000000000+000000010+0000000080+0000000000+I20000000000+0000000080+Z
890621001890621112-116038     890621006003000534906TCS CARRIER BAG MIDI   0000002000+00000035+00000+0001T   00000035+0000001027          1400 AZ10902IC            2CZ
890622000890622               890622               170213EO     1400+00000+EO0000010215+0000010215+000000000+000001433+0000011640+0000000008+I20000000000+0000011640+Z
890622001890622080-000113     890622006003000237449CARD&ENVLPE - LOVE     0000001000+00001753+00000+0001T   00001753+0000001033          1400 AZ1112               2CZ
890622002890622018-005009     890622006001023725608MUG W/PLUSH-BEAR LOVE  0000001000+00003507+00000+0001T   00003507+0000001033          1400 AZ1515               2CZ
890622003890622077-000299     890622006003000395576G/BAG 32x25cm LRG LOVE 0000003000+00001490+00000+0001T   00001490+0000001033          1400 AZ1112               2CZ
890622004890622083-000049     890622004891035200024CIG-LIGHTER DISPOSABLE 0000001000+00000437+00000+0001T   00000437+0000001033          1400 AZ1315               2CZ
890622005890622112-116069     890622006009681820277TCS CARRIER BAG JUMBO  0000001000+00000048+00000+0001T   00000048+0000001033          1400 AZ1090               2CZ
890623000890623               890623               170213EO     1400+00000+EO0000005262+0000005262+000000000+000000737+0000005990+0000000009+I20000000000+0000005990+Z
890623001890623304-001116     890623006003000426164F/BUNCH ROSES 12-HEAD  0000001000+00005262+00000+0001T   00005262+0000001033          1400 AZ1510               2CZ
890624000890624               890624               170213EO     1400+00000+EO0000003769+0000003769+000000000+000000529+0000004290+0000000008+I20000000000+0000004290+Z
890624001890624046-000011     890624004897006172994BATTERIES SIZE:AA  2PCE0000001000+00001402+00000+0001T   00001402+0000001036          1400 AZ1312               2CZ
890624002890624046-000010-A   890624006003000438778BATTERIES SIZE:AAA 4PCE0000001000+00002367+00000+0001T   00002367+0000001036          1400 AZ1312               2CZ
890625000890625               890625               170213EO     1400+00000+EO0000004385+0000004385+000000000+000000614+0000004990+0000000009+I20000000000+0000004990+Z
890625001890625562-002006     890625006003000228065LEARNING THE OPPOSITES 0000001000+00004385+00000+0001T   00006139+0008141124          1400 AZ1755               2CZ
890626000890626               890626               170213EO     1400+00000+EO0000026308+0000026308+000000000+000003695+0000030000+0000000003+I20000000000+0000030000+Z
890626001890626112-116038     890626006009681820246TCS CARRIER BAG MIDI   0000001000+00000035+00000+0001T   00000035+0000001136          1400 AZ1090               2CZ
890626002890626071-003863     890626006003000145102PENCIL NOVELTY ERASER  0000001000+00002630+00000+0001T   00002630+0000001136          1400 AZ1130               2CZ
890626003890626007-000555     890626006001023848239MEMO-PAD MINI LOVE     0000009000+00000613+00000+0001T   00000613+0000001136          1400 AZ1130               2CZ
890626004890626071-001241     890626006003000244270NOVELTY ERASER ASSTD   0000009000+00000525+00000+0001T   00000525+0000001136          1400 AZ1130               2CZ
890626005890626903-000520     890626006001704009898SWT GUMMY MINI SOUR 60g0000009000+00000876+00000+0001T   00000876+0000001136          1400 AZ1150               2CZ
890626006890626077-000311     890626006001023608666GIFT-BAG 11X14CM GLOSS 0000009000+00000613+00000+0001T   00000613+0000001136          1400 AZ1112               2CZ
890627000890627               890627               170213EO     1400+00000+EO0000001753+0000001753+000000000+000000246+0000001999+0000000000+I40000001999+0000000000+Z
890627001890627077-000520     890627006001023908254GIFT-BAG 25X32CM       0000001000+00001753+00000+0001T   00001753+0000001146          1400 AZ1112               2CZ
890628000890628               890628               170213EO     1400+00000+EO0000003506+0000003506+000000000+000000492+0000003990+0000000008+I20000000000+0000003990+Z
890628001890628077-000299-A   890628006003000670888GIFT-BAG PAPER JMB LOVE0000002000+00001753+00000+0001T   00001753+0000001227          1400 AZ1112               2CZ
890629000890629               890629               170213EO     1400+00000+EO0000007482+0000007482+000000000+000001051+0000008530+0000000003+I20000000000+0000008530+Z
890629001890629018-005009     890629006001023725608MUG W/PLUSH-BEAR LOVE  0000001000+00003507+00000+0001T   00003507+0000001228          1400 AZ1515               2CZ
890629002890629903-000200     890629006009826020234SWT CHOC RP CHOCO 23G  0000003000+00000788+00000+0001T   00000788+0000001228          1400 AZ1150               2CZ
890629003890629112-116038     890629006009681820246TCS CARRIER BAG MIDI   0000001000+00000035+00000+0001T   00000035+0000001228          1400 AZ1090               2CZ
890629004890629903-000200     890629006009826020234SWT CHOC RP CHOCO 23G  0000002000+00000788+00000+0001T   00000788+0000001228          1400 AZ1150               2CZ
890630000890630               890630               170213EO     1400+00000+EO0000006139+0000006139+000000000+000000860+0000006990+0000000009+I20000000000+0000006990+Z
890630001890630018-050000     890630006003000412679MUG OCC LOVE TWIN BEAR 0000001000+00006139+00000+0001T   00006139+0000001233          1400 JK4515               2AZ
890631000890631               890631               170213EO     1400+00000+EO0000006696+0000006696+000000000+000000939+0000007635+0000000000+I40000007635+0000000000+Z
890631001890631018-000130     890631006001023867537MUG OCC LOVE MINI+HEART0000001000+00003507+00000+0001T   00003507+0000001306          1400 SC6515               2CZ
890631002890631903-000200     890631006009826020234SWT CHOC RP CHOCO 23G  0000002000+00000788+00000+0001T   00000788+0000001306          1400 SC6150               2CZ
890631003890631077-000303     890631006001023593757GIFT-BAG PAPER MED     0000001000+00001578+00000+0001T   00001578+0000001306          1400 SC6112               2CZ
890631004890631112-116038     890631006003000534906TCS CARRIER BAG MIDI   0000001000+00000035+00000+0001T   00000035+0000001306          1400 SC6090               2CZ
890632000890632               890632               170213EO     1400+00000+EO0000002400+0000002400+000000000+000000337+0000002730+0000000007+I20000000000+0000002730+Z
890632001890632077-000240     890632006003000326259G/RIBBON 4PC PEARLIZED 0000001000+00001753+00000+0001T   00001753+0000001307          1400 SC6112               2DZ
890632002890632079-009700-M   890632006003000634101PAPER SIRIO A4 PINK COL0000002000+00000306+00000+0001T   00000306+0000001307          1400 SC6130               2DZ
890632003890632112-116038     890632006003000534906TCS CARRIER BAG MIDI   0000001000+00000035+00000+0001T   00000035+0000001307          1400 SC6090               2DZ
890633000890633               890633               170213EO     1400+00000+EO0000001753+0000001753+000000000+000000246+0000001990+0000000009+I20000000000+0000001990+Z
890633001890633077-000289     890633006001023901996GIFT BOX 20x25x11cm    0000001000+00001753+00000+0001T   00001753+0000001337          1400 AZ1112               2CZ
890634000890634               890634               170213EO     1400+00000+EO0000000876+0000000876+000000000+000000123+0000000990+0000000009+I20000000000+0000000990+Z
890634001890634078-000025     890634008887013700064SUPERGLUE 3g 1PCE CARD 0000001000+00000876+00000+0001T   00000876+0000001340          1400 AZ1810               2CZ
890635000890635               890635               170213EO     1400+00000+EO0000001753+0000001753+000000000+000000246+0000001990+0000000009+I20000000000+0000001990+Z
890635001890635079-002000     890635006003000658152MODELLING CLAY         0000001000+00001753+00000+0001T   00001753+0000001349          1400 AZ1130               2CZ
890636000890636               890636               170213EO     1400+00000+EO0000003979+0000003979+000000000+000000558+0000004530+0000000007+I20000000000+0000004530+Z
890636001890636567-075466     890636009780263254228BK NOVEL ROMANCE       0000001000+00002630+00000+0001T   00002630+0000001357          1400 AZ1757               2CZ
890636002890636007-000209     890636006001023582102NOTE STICKY FILE MARKER0000001000+00001314+00000+0001T   00001314+0000001357          1400 AZ1130               2CZ
890636003890636112-116038     890636006003000534906TCS CARRIER BAG MIDI   0000001000+00000035+00000+0001T   00000035+0000001357          1400 AZ1090               2CZ
890637000890637               890637               170213EO     1400+00000+EO0000001314+0000001314+000000000+000000184+0000001490+0000000008+I20000000000+0000001490+Z
890637002890637107-004105     890637006009703860984BUCKET 9L OPEN         0000001000+00001314+00000+0001T   00001314+0000001402          1400 AZ1210               2CZ
890638000890638               890638               170213EO     1400+00000+EO0000007452+0000007452+000000000+000001045+0000008490+0000000007+I20000000000+0000008490+Z
890638001890638077-000512     890638006003000590223GIFT-BAG DESIGNER LRG  0000002000+00002630+00000+0001T   00002630+0000001409          1400 AZ1112               2CZ
890638002890638200-000025-A   890638006925406841054BAG ZIPPERSEAL 15PC    0000001000+00002192+00000+0001T   00002192+0000001409          1400 AZ1214               2CZ
890639000890639               890639               170213EO     1400+00000+EO0000005259+0000005259+000000000+000000738+0000005990+0000000007+I20000000000+0000005990+Z
890639001890639200-003024     890639006001023657299REFUSE BAGS 20PCE BLACK0000003000+00001753+00000+0001T   00001753+0000001410          1400 AZ1214               2CZ
890640000890640               890640               170213EO     1400+00000+EO0000016270+0000016270+000000000+000002280+0000018550+0000000000+I20000000000+0000018550+Z
890640001890640080-000127     890640006003000424351VALENTINES DAY 36x24CM 0000001000+00002192+00000+0001T   00002192+0000001417          1400 AZ1112               2CZ
890640002890640018-000129     890640006001023403353MUG OCC. LOVE V-SHAPE  0000001000+00002630+00000+0001T   00002630+0000001417          1400 AZ1515               2CZ
890640003890640077-000299-A   890640006003000670888GIFT-BAG PAPER JMB LOVE0000001000+00001753+00000+0001T   00001753+0000001417          1400 AZ1112               2CZ
890640004890640304-001116     890640006003000426164F/BUNCH ROSES 12-HEAD  0000001000+00005262+00000+0001T   00005262+0000001417          1400 AZ1510               2CZ
890640005890640019-000083     890640006001023797209V/GLASS CUT 3-ASST 20CM0000001000+00004385+00000+0001T   00006139+0008171417          1400 AZ1510               2CZ
890640006890640112-116069     890640006009681820277TCS CARRIER BAG JUMBO  0000001000+00000048+00000+0001T   00000048+0000001417          1400 AZ1090               2CZ
890641000890641               890641               170213EO     1400+00000+EO0000002630+0000002630+000000000+000000369+0000002990+0000000009+I20000000000+0000002990+Z
890641001890641200-000022     890641006003000399291BAG SLIDE LOCK 15PC    0000001000+00002630+00000+0001T   00002630+0000001418          1400 AZ1214               2CZ
890642000890642               890642               170213EO     1400+00000+EO0000003014+0000003014+000000000+000000423+0000003430+0000000007+I20000000000+0000003430+Z
890642001890642200-003024     890642006001023657299REFUSE BAGS 20PCE BLACK0000001000+00001753+00000+0001T   00001753+0000001420          1400 AZ1214               2CZ
890642002890642007-000167     890642006009685857347SPIRAL NOTES A7 72PG   0000001000+00000350+00000+0001T   00000350+0000001420          1400 AZ1130               2CZ
890642003890642007-000127     890642006009685853431BOOK H/COVER MEMO 144PG0000001000+00000876+00000+0001T   00000876+0000001420          1400 AZ1130               2CZ
890642004890642112-116038     890642006003000534906TCS CARRIER BAG MIDI   0000001000+00000035+00000+0001T   00000035+0000001420          1400 AZ1090               2CZ
890643000890643               890643               170213EO     1400+00000+EO0000007396+0000007396+000000000+000001037+0000008430+0000000003+I20000000000+0000008430+Z
890643001890643903-000155     890643006009803374435SWT LOLLY I LUV U HEART0000001000+00000525+00000+0001T   00000525+0000001423          1400 AZ1150               2CZ
890643002890643080-000133     890643006003000535613CARD&ENV MINI ASTD DSGN0000001000+00000437+00000+0001T   00000437+0000001423          1400 AZ1112               2CZ
890643003890643301-085004     890643006003000420469ORN LOVE PLAQUE 21X10CM0000001000+00003507+00000+0001T   00003946+0006471423          1400 AZ1505               2CZ
890643004890643566-000359     890643006003000582709STICKER BOOK LOVE SPARK0000001000+00002192+00000+0001T   00002192+0000001423          1400 AZ1130               2CZ
890643005890643018-000177     890643006001023797513MUG MINI LOVE ASSTD    0000001000+00000700+00000+0001T   00000700+0000001423          1400 AZ1515               2CZ
890643006890643112-116038     890643006009681820246TCS CARRIER BAG MIDI   0000001000+00000035+00000+0001T   00000035+0000001423          1400 AZ1090               2CZ
890644000890644               890644               170213EO     1400+00000+EO0000002574+0000002574+000000000+000000362+0000002936+0000000000+I40000002936+0000000000+Z
890644001890644077-000357     890644006003000139354GIFT-BAG 18X23CM B/DAY 0000001000+00001753+00000+0001T   00001753+0000001425          1400 AZ1112               2CZ
890644002890644903-000216     890644006925925900966SWT MALLOW TWIST ERKO  0000003000+00000262+00000+0001T   00000262+0000001425          1400 AZ1150               2CZ
890644003890644112-116038     890644006009681820246TCS CARRIER BAG MIDI   0000001000+00000035+00000+0001T   00000035+0000001425          1400 AZ1090               2CZ
890645000890645               890645               170213EO     1400+00000+EO0000001489+0000001489+000000000+000000209+0000001690+0000000008+I20000000000+0000001690+Z
890645001890645083-000295     890645006001023898562LIGHTER-GAS BUTANE 18ml0000001000+00000876+00000+0001T   00000876+0000001431          1400 AZ1315               2CZ
890645002890645083-000055     890645006003000003853LIGHTER ELCTRNC REFILBL0000001000+00000613+00000+0001T   00000613+0000001431          1400 AZ1315               2CZ
890646000890646               890646               170213EO     1400+00000+EO0000002192+0000002192+000000000+000000307+0000002490+0000000009+I20000000000+0000002490+Z
890646001890646002-000685     890646006001023693785K/TOOL P/MASHER H/HOUSE0000001000+00002192+00000+0001T   00002192+0000001433          1400 AZ1300               2CZ
890647000890647               890647               170213EO     1400+00000+EO0000001099+0000001099+000000000+000000155+0000001250+0000000004+I20000000000+0000001250+Z
890647001890647079-009702-G   890647008427973060787PAPER SIRIO A2 FUSHIA  0000001000+00001051+00000+0001T   00001051+0000001434          1400 AZ1130               2CZ
890647002890647112-116069     890647006009681820277TCS CARRIER BAG JUMBO  0000001000+00000048+00000+0001T   00000048+0000001434          1400 AZ1090               2CZ
890648000890648               890648               170213EO     1400+00000+EO0000000876+0000000876+000000000+000000123+0000000990+0000000009+I20000000000+0000000990+Z
890648001890648083-000295     890648006001023898562LIGHTER-GAS BUTANE 18ml0000001000+00000876+00000+0001T   00000876+0000001435          1400 AZ1315               2CZ
890649000890649               890649               170213EO     1400+00000+EO0000001099+0000001099+000000000+000000155+0000001250+0000000004+I20000000000+0000001250+Z
890649001890649079-009702-C   890649008427973059309PAPER SIRIO A2 VIOLET  0000001000+00001051+00000+0001T   00001051+0000001436          1400 AZ1130               2CZ
890649002890649112-116069     890649006009681820277TCS CARRIER BAG JUMBO  0000001000+00000048+00000+0001T   00000048+0000001436          1400 AZ1090               2CZ
890650000890650               890650               170213EO     1400+00000+EO0000012325+0000012325+000000000+000001726+0000014050+0000000001+I20000000000+0000014050+Z
890650001890650112-116069     890650006009681820277TCS CARRIER BAG JUMBO  0000001000+00000048+00000+0001T   00000048+0000001501          1400 AZ1090               2CZ
890650002890650365-003053     890650006001023542250PLAY DOCTOR MEDICAL-CNT0000001000+00004385+00000+0001T   00004385+0000001501          1400 AZ1725               2CZ
890650003890650562-000810     890650006003000158867EDU PEG BOARD ART SETS 0000001000+00004385+00000+0001T   00004385+0000001501          1400 AZ1755               2CZ
890650004890650079-000269     890650006003000159963PAINT-BRUSHES SPONGETIP0000001000+00003507+00000+0001T   00003507+0000001501          1400 AZ1130               2CZ
890651000890651               890651               170213EO     1400+00000+EO0000001753+0000001753+000000000+000000246+0000001990+0000000009+I20000000000+0000001990+Z
890651001890651306-000024-A   890651006003000577309COTTON-WOOL-PADS 80PC  0000001000+00001753+00000+0001T   00001753+0000001502          1400 AZ1200               2CZ
890652000890652               890652               170213EO     1400+00000+EO0000002014+0000002014+000000000+000000283+0000002290+0000000007+I20000000000+0000002290+Z
890652001890652903-000155     890652006009803374435SWT LOLLY I LUV U HEART0000002000+00000525+00000+0001T   00000525+0000001504          1400 AZ1150               2CZ
890652002890652903-004960     890652008410525221842SWT GUMMY STR/BERRY 50G0000001000+00000964+00000+0001T   00000964+0000001504          1400 AZ1150               2CZ
890653000890653               890653               170213EO     1400+00000+EO0000002192+0000002192+000000000+000000307+0000002490+0000000009+I20000000000+0000002490+Z
890653001890653306-000026     890653006003000207626COTTON WOOL ROLL 100G  0000001000+00002192+00000+0001T   00002192+0000001507          1400 AZ1200               2CZ
890654000890654               890654               170213EO     1400+00000+EO0000008769+0000008769+000000000+000001228+0000009997+0000000000+I40000009997+0000000000+Z
890654001890654261-000947     890654006001023832610GUN FRICTION           0000001000+00003507+00000+0001T   00003507+0000001511          1400 AZ1710               2CZ
890654002890654035-000013     890654006001023450180UMBRELLA KIDDIES 34cm  0000001000+00005262+00000+0001T   00005262+0000001511          1400 AZ1205               2CZ
890655000890655               890655               170213EO     1400+00000+EO0000027233+0000027233+000000000+000003815+0000031040+0000000008+I20000000000+0000031040+Z
890655001890655112-116069     890655006009681820277TCS CARRIER BAG JUMBO  0000001000+00000048+00000+0001T   00000048+0000001528          1400 AZ1090               2CZ
890655002890655019-000133     890655006003000602353PLANTER TINPLATE W/HNDL0000005000+00004385+00000+0001T   00004385+0000001528          1400 AZ1510               2CZ
890655003890655019-071603     890655006001023772039RIVER-STONES 1kg PEACH 0000002000+00002630+00000+0001T   00002630+0000001528          1400 AZ1510               2CZ
890656000890656               890656               170213EO     1400+00000+EO0000000700+0000000700+000000000+000000098+0000000790+0000000008+I20000000000+0000000790+Z
890656001890656018-000177     890656006001023797513MUG MINI LOVE ASSTD    0000001000+00000700+00000+0001T   00000700+0000001543          1400 JK4515               2AZ
890657000890657               890657               170213EO     1400+00000+EO0000011218+0000011218+000000000+000001573+0000012790+0000000001+I20000000000+0000012790+Z
890657001890657903-000155     890657006009803374435SWT LOLLY I LUV U HEART0000002000+00000525+00000+0001T   00000525+0000001545          1400 AZ1150               2CZ
890657002890657018-000136     890657006001023659026MUG OCC LOVE W/PLUSH   0000001000+00003507+00000+0001T   00003507+0000001545          1400 AZ1515               2CZ
890657003890657018-005009     890657006001023725608MUG W/PLUSH-BEAR LOVE  0000001000+00003507+00000+0001T   00003507+0000001545          1400 AZ1515               2CZ
890657004890657077-000299     890657006003000395576G/BAG 32x25cm LRG LOVE 0000001000+00001490+00000+0001T   00001490+0000001545          1400 AZ1112               2CZ
890657005890657903-000897     890657008692806325207SWT CHOC DBL MINI ROLL 0000001000+00000876+00000+0001T   00000876+0000001545          1400 AZ1150               2CZ
890657006890657903-000200     890657006009826020234SWT CHOC RP CHOCO 23G  0000001000+00000788+00000+0001T   00000788+0000001545          1400 AZ1150               2CZ
890658000890658               890658               170213EO     1400+00000+EO0000003506+0000003506+000000000+000000492+0000003990+0000000008+I20000000000+0000003990+Z
890658001890658077-000357     890658006003000139354GIFT-BAG 18X23CM B/DAY 0000001000+00001753+00000+0001T   00001753+0000001546          1400 AZ1112               2CZ
890658002890658018-000108     890658006001023380265MUG NOVELTY ICON ASST  0000001000+00001753+00000+0001T   00001753+0000001546          1400 AZ1515               2CZ
890659000890659               890659               170213EO     1400+00000+EO0000001613+0000001613+000000000+000000226+0000001830+0000000009+I20000000000+0000001830+Z
890659001890659018-000127     890659006001023380289MUG OCC STRAIGHT LOVE  0000001000+00001578+00000+0001T   00001753+0006471547          1400 AZ1515               2CZ
890659002890659112-116038     890659006003000534906TCS CARRIER BAG MIDI   0000001000+00000035+00000+0001T   00000035+0000001547          1400 AZ1090               2CZ
890660000890660               890660               170213EO     1400+00000+EO0000003507+0000003507+000000000+000000491+0000003990+0000000008+I20000000000+0000003990+Z
890660001890660018-005009     890660006001023725608MUG W/PLUSH-BEAR LOVE  0000001000+00003507+00000+0001T   00003507+0000001547          1400 AZ1515               2CZ
890661000890661               890661               170213EO     1400+00000+EO0000003507+0000003507+000000000+000000491+0000003990+0000000008+I20000000000+0000003990+Z
890661001890661018-005009     890661006001023725608MUG W/PLUSH-BEAR LOVE  0000001000+00003507+00000+0001T   00003507+0000001555          1400 AZ1515               2CZ
890662000890662               890662               170213EO     1400+00000+EO0000000876+0000000876+000000000+000000123+0000000990+0000000009+I20000000000+0000000990+Z
890662001890662077-000302     890662008010410010195GIFT-BAG 18X23CM E/D   0000001000+00000876+00000+0001T   00000876+0000001559          1400 AZ1112               2CZ
890663000890663               890663               170213EO     1400+00000+EO0000026314+0000026314+000000000+000003684+0000029990+0000000008+I20000000000+0000029990+Z
890663001890663007-010503     890663006003000455393WIPE & CHALK 90X60CM   0000001000+00026314+00000+0001T   00026314+0000001602          1400 AZ1130               2CZ
890664000890664               890664               170213EO     1400+00000+EO0000016428+0000016428+000000000+000002304+0000018732+0000000000+I40000018732+0000000000+Z
890664001890664039-001023     890664006003000466337CANDLE TEA-LITE METALIC0000001000+00001753+00000+0001T   00001753+0000001609          1400 AZ1510               2CZ
890664002890664039-000026     890664006001023551610C/TAPERED 25CM M/RED   0000002000+00001051+00000+0001T   00001051+0000001609          1400 AZ1510               2CZ
890664003890664039-080959     890664006003000048922CANDLE PILLAR BALL 8CM 0000001000+00003069+00000+0001T   00003069+0000001609          1400 AZ1510               2CZ
890664004890664040-000213     890664006001023617736CANDLE-HOLDER DAISY    0000002000+00001227+00000+0001T   00001227+0000001609          1400 AZ1510               2CZ
890664005890664019-000083     890664006001023797209V/GLASS CUT 3-ASST 20CM0000001000+00004385+00000+0001T   00006139+0008171609          1400 AZ1510               2CZ
890664006890664304-000720     890664006001023843050F/BUNCH ROSE 6-HEAD AST0000001000+00002630+00000+0001T   00002630+0000001609          1400 AZ1510               2CZ
890664007890664112-116038     890664006009681820246TCS CARRIER BAG MIDI   0000001000+00000035+00000+0001T   00000035+0000001609          1400 AZ1090               2CZ
890665000890665               890665               170213EO     1400+00000+EO0000001753+0000001753+000000000+000000246+0000001990+0000000009+I20000000000+0000001990+Z
890665001890665079-002000     890665006003000658152MODELLING CLAY         0000001000+00001753+00000+0001T   00001753+0000001610          1400 AZ1130               2CZ
890666000890666               890666               170213EO     1400+00000+EO0000011185+0000011185+000000000+000001567+0000012750+0000000002+I20000000000+0000012750+Z
890666001890666077-000299     890666006003000395576G/BAG 32x25cm LRG LOVE 0000001000+00001490+00000+0001T   00001490+0000001611          1400 AZ1112               2CZ
890666002890666112-116069     890666006009681820277TCS CARRIER BAG JUMBO  0000001000+00000048+00000+0001T   00000048+0000001611          1400 AZ1090               2CZ
890666003890666368-000171     890666006003000233250PLUSH BEAR 14cm        0000001000+00005262+00000+0001T   00005262+0000001611          1400 AZ1745               2CZ
890666004890666018-030000     890666006003000421060MUG OCCASIONS LOVE 2PCE0000001000+00004385+00000+0001T   00004385+0000001611          1400 AZ1515               2CZ
890667000890667               890667               170213EO     1400+00000+EO0000001575+0000001575+000000000+000000222+0000001790+0000000007+I20000000000+0000001790+Z
890667001890667903-000155     890667006009803374435SWT LOLLY I LUV U HEART0000003000+00000525+00000+0001T   00000525+0000001612          1400 AZ1150               2CZ
890668000890668               890668               170213EO     1400+00000+EO0000003979+0000003979+000000000+000000558+0000004530+0000000007+I20000000000+0000004530+Z
890668001890668031-000002     890668006001023851338FRAME FRIENDS 7.5x7.5cm0000001000+00003507+00000+0001T   00003507+0000001613          1400 AZ1510               2CZ
890668002890668112-116038     890668006003000534906TCS CARRIER BAG MIDI   0000001000+00000035+00000+0001T   00000035+0000001613          1400 AZ1090               2CZ
890668003890668080-000133     890668006003000535613CARD&ENV MINI ASTD DSGN0000001000+00000437+00000+0001T   00000437+0000001613          1400 AZ1112               2CZ
890669000890669               890669               170213EO     1400+00000+EO0000010261+0000010261+000000000+000001437+0000011690+0000000008+I20000000000+0000011690+Z
890669001890669077-000299     890669006003000395576G/BAG 32x25cm LRG LOVE 0000001000+00001490+00000+0001T   00001490+0000001618          1400 AZ1112               2CZ
890669002890669001-091415     890669006003000329113W/GLS OCC. LOVE 2PC 2800000001000+00008771+00000+0001T   00009648+0006471618          1400 AZ1515               2CZ
890670000890670               890670               170213EO     1400+00000+EO0000011402+0000011402+000000000+000001597+0000012990+0000000009+I20000000000+0000012990+Z
890670002890670562-058925     890670006003000599998EDU B/O TOY TABLET     0000001000+00011402+00000+0001T   00011402+0000001628          1400 AZ1755               2CZ
890671000890671               890671               170213EO     1400+00000+EO0000016798+0000016798+000000000+000002353+0000019150+0000000001+I20000000000+0000019150+Z
890671001890671018-000127     890671006001023380289MUG OCC STRAIGHT LOVE  0000002000+00001578+00000+0001T   00001753+0006471634          1400 AZ1515               2CZ
890671004890671368-000637     890671006001023874092PLUSH BEAR SLEEPING LOV0000001000+00011402+00000+0001T   00012279+0006471634          1400 AZ1745               2CZ
890671005890671077-000309-A   890671006003000671007GIFT-BAG HOLOGRAM JMB  0000001000+00002192+00000+0001T   00002192+0000001634          1400 AZ1112               2CZ
890671006890671112-116069     890671006009681820277TCS CARRIER BAG JUMBO  0000001000+00000048+00000+0001T   00000048+0000001634          1400 AZ1090               2CZ
890672000890672               890672               170213EO     1400+00000+EO0000005345+0000005345+000000000+000000751+0000006090+0000000006+I20000000000+0000006090+Z
890672001890672903-000200     890672006009826020234SWT CHOC RP CHOCO 23G  0000001000+00000788+00000+0001T   00000788+0000001637          1400 AZ1150               2CZ
890672002890672077-000299-A   890672006003000670888GIFT-BAG PAPER JMB LOVE0000001000+00001753+00000+0001T   00001753+0000001637          1400 AZ1112               2CZ
890672003890672304-001204     890672006001023737984FLOWER OCC. TEDDY/ROSES0000002000+00001402+00000+0001T   00001490+0006471637          1400 AZ1510               2CZ
890673000890673               890673               170213EO     1400+00000+EO0000007927+0000007927+000000000+000001110+0000009037+0000000000+I40000009037+0000000000+Z
890673001890673104-000030     890673006001023803481BASKET PL 28x20x12cm   0000001000+00004385+00000+0001T   00004385+0000001643          1400 AZ1210               2CZ
890673002890673162-092945     890673006001492929453#TAG KIDS 6PK PURPLE   0000001000+00003507+00000+0001T   00003507+0000001643          1400 AZ1160               2CZ
890673003890673112-116038     890673006009681820246TCS CARRIER BAG MIDI   0000001000+00000035+00000+0001T   00000035+0000001643          1400 AZ1090               2CZ
890674000890674               890674               170213EO     1400+00000+EO0000010572+0000010572+000000000+000001481+0000012053+0000000000+I40000012053+0000000000+Z
890674001890674046-002025-PK2 890674004897006174868BATTERIES CR-2025  2PCE0000001000+00001753+00000+0001T   00001753+0000001644          1400 AZ1312               2CZ
890674002890674031-006227     890674006001024004627P/FRAME COLLAGE 50X28CM0000001000+00008771+00000+0001T   00008771+0000001644          1400 AZ1510               2CZ
890674003890674112-116069     890674006009681820277TCS CARRIER BAG JUMBO  0000001000+00000048+00000+0001T   00000048+0000001644          1400 AZ1090               2CZ
890675000890675               890675               170213EO     1400+00000+EO0000000700+0000000700+000000000+000000098+0000000790+0000000008+I20000000000+0000000790+Z
890675001890675018-000177     890675006001023797513MUG MINI LOVE ASSTD    0000001000+00000700+00000+0001T   00000700+0000001645          1400 AZ1515               2CZ
890676000890676               890676               170213EO     1400+00000+EO0000000788+0000000788+000000000+000000111+0000000890+0000000009+I20000000000+0000000890+Z
890676001890676903-000200     890676006009826020234SWT CHOC RP CHOCO 23G  0000001000+00000788+00000+0001T   00000788+0000001645          1400 AZ1150               2CZ
890677000890677               890677               170213EO     1400+00000+EO0000010730+0000010730+000000000+000001504+0000012234+0000000000+I40000012234+0000000000+Z
890677001890677301-085004     890677006003000420469ORN LOVE PLAQUE 21X10CM0000001000+00003507+00000+0001T   00003946+0006471651          1400 SC6505               2CZ
890677002890677079-000282     890677006001023493309PAINT TUBS POSTER 12COL0000001000+00002630+00000+0001T   00002630+0000001651          1400 SC6130               2CZ
890677003890677079-000510     890677006001023509079CRAYONS WAX 12-COLOUR  0000001000+00002455+00000+0001T   00002455+0000001651          1400 SC6130               2CZ
890677004890677077-000303     890677006001023593757GIFT-BAG PAPER MED     0000001000+00001578+00000+0001T   00001578+0000001651          1400 SC6112               2CZ
890677005890677903-000155     890677006009803374435SWT LOLLY I LUV U HEART0000001000+00000525+00000+0001T   00000525+0000001651          1400 SC6150               2CZ
890677006890677112-116038     890677006003000534906TCS CARRIER BAG MIDI   0000001000+00000035+00000+0001T   00000035+0000001651          1400 SC6090               2CZ
890678000890678               890678               170213EO     1400+00000+EO0000000437+0000000437+000000000+000000062+0000000490+0000000009+I20000000000+0000000490+Z
890678001890678080-000133     890678006003000535613CARD&ENV MINI ASTD DSGN0000001000+00000437+00000+0001T   00000437+0000001652          1400 SC6112               2DZ
890679000890679               890679               170213EO     1400+00000+EO0000006136+0000006136+000000000+000000860+0000006990+0000000006+I20000000000+0000006990+Z
890679001890679083-000295     890679006001023898562LIGHTER-GAS BUTANE 18ml0000001000+00000876+00000+0001T   00000876+0000001706          1400 JK4315               2AZ
890679002890679903-000619     890679006003000672455SWT LOLLY STR/BRRY 140G0000001000+00001753+00000+0001T   00001753+0000001706          1400 JK4150               2AZ
890679003890679162-097718     890679006001492977188#TAG CHARM BRACELET    0000001000+00003507+00000+0001T   00003507+0000001706          1400 JK4160               2AZ
890680000890680               890680               170213EO     1400+00000+EO0000001753+0000001753+000000000+000000246+0000001990+0000000009+I20000000000+0000001990+Z
890680001890680159-000636     890680006003000036035BATH PUMICE,BRUSH,FILE 0000001000+00001753+00000+0001T   00001753+0000001707          1400 JK4200               2AZ
890681000890681               890681               170213EO     1400+00000+EO0000001753+0000001753+000000000+000000246+0000001990+0000000009+I20000000000+0000001990+Z
890681001890681077-000357     890681006003000139354GIFT-BAG 18X23CM B/DAY 0000001000+00001753+00000+0001T   00001753+0000001707          1400 JK4112               2AZ
890682000890682               890682               170213EO     1400+00000+EO0000014032+0000014032+000000000+000001966+0000015998+0000000000+I40000015998+0000000000+Z
890682001890682562-002008     890682006003000228300EDU THINK SIMPLE SUMS  0000001000+00007016+00000+0001T   00007016+0000001719          1400 AZ1755               2CZ
890682002890682562-002009     890682006003000228423EDU SPELLING PUZZLES   0000001000+00007016+00000+0001T   00007016+0000001719          1400 AZ1755               2CZ
890683000890683               890683               170213EO     1400+00000+EO0000005085+0000005085+000000000+000000712+0000005797+0000000000+I40000005797+0000000000+Z
890683001890683018-000130     890683006001023867537MUG OCC LOVE MINI+HEART0000001000+00003507+00000+0001T   00003507+0000001725          1400 SC6515               2CZ
890683002890683018-000127     890683006001023380289MUG OCC STRAIGHT LOVE  0000001000+00001578+00000+0001T   00001753+0006471725          1400 SC6515               2CZ
890684000890684               890684               170213EO     1400+00000+EO0000012451+0000012451+000000000+000001744+0000014190+0000000005+I20000000000+0000014190+Z
890684001890684018-000127     890684006001023380289MUG OCC STRAIGHT LOVE  0000004000+00001578+00000+0001T   00001753+0006471728          1400 SC6515               2CZ
890684002890684368-000175     890684006003000270316PLUSH BEAR 4 ASSTD 18CM0000001000+00006139+00000+0001T   00006139+0000001728          1400 SC6745               2CZ
890685000890685               890685               170213EO     1400+00000+EO0000001753+0000001753+000000000+000000246+0000001990+0000000009+I20000000000+0000001990+Z
890685001890685006-000120     890685006001023346889BALLOONS 10PC MIX COL  0000001000+00001753+00000+0001T   00001753+0000001729          1400 AZ1131               2CZ
890686000890686               890686               170213EO     1400+00000+EO0000000876+0000000876+000000000+000000123+0000000990+0000000009+I20000000000+0000000990+Z
890686001890686089-000192-A   890686006001023901774KEY-CHAIN ACRYLIC      0000001000+00000876+00000+0001T   00000876+0000001729          1400 AZ1205               2CZ
890687000890687               890687               170213EO     1400+00000+EO0000022146+0000022146+000000000+000003104+0000025250+0000000000+I20000000000+0000025250+Z
890687001890687903-000151     890687006009803374411SWT SML RND R/BOW LOLLY0000002000+00000525+00000+0001T   00000525+0000001731          1400 AZ1150               2CZ
890687002890687112-116069     890687006009681820277TCS CARRIER BAG JUMBO  0000001000+00000048+00000+0001T   00000048+0000001731          1400 AZ1090               2CZ
890687003890687263-000220     890687006001023708458VEHICLE JEEP PICK-UP   0000001000+00007016+00000+0001T   00007016+0000001731          1400 AZ1710               2CZ
890687004890687266-000509     890687006003000109821BOYS PLAYSET TRANSFORM 0000001000+00007016+00000+0001T   00007016+0000001731          1400 AZ1710               2CZ
890687005890687562-006275     890687006001023836182EDU BOARD W/MARKER ASST0000001000+00007016+00000+0001T   00007016+0000001731          1400 AZ1755               2CZ
890688000890688               890688               170213EO     1400+00000+EO0000003506+0000003506+000000000+000000492+0000003998+0000000000+I40000003998+0000000000+Z
890688001890688206-000620     890688006003000631797BACK SCRATCHER EXTEND  0000001000+00002630+00000+0001T   00002630+0000001733          1400 AZ1321               2CZ
890688002890688077-000314     890688006003000181148GIFT-BAG 11X14CM MATT  0000001000+00000876+00000+0001T   00000876+0000001733          1400 AZ1112               2CZ
890689000890689               890689               170213EO     1400+00000+EO0000002665+0000002665+000000000+000000374+0000003030+0000000009+I20000000000+0000003030+Z
890689001890689077-000235     890689006003000160211GIFT-RIBBON ROLL METALC0000001000+00002630+00000+0001T   00002630+0000001734          1400 AZ1112               2AZ
890689002890689112-116038     890689006009681820246TCS CARRIER BAG MIDI   0000001000+00000035+00000+0001T   00000035+0000001734          1400 AZ1090               2AZ
890690000890690               890690               170213EO     1400+00000+EO0000001490+0000001490+000000000+000000209+0000001690+0000000009+I20000000000+0000001690+Z
890690001890690019-071610     890690006001023904560PEBBLES WATER GEMS 10g 0000001000+00001490+00000+0001T   00001490+0000001735          1400 AZ1510               2CZ
890691000890691               890691               170213EO     1400+00000+EO0000000876+0000000876+000000000+000000123+0000000990+0000000009+I20000000000+0000000990+Z
890691001890691078-000025     890691008887013700064SUPERGLUE 3g 1PCE CARD 0000001000+00000876+00000+0001T   00000876+0000001736          1400 AZ1810               2CZ
890692000890692               890692               170213EO     1400+00000+EO0000000876+0000000876+000000000+000000123+0000000999+0000000000+I40000000999+0000000000+Z
890692001890692077-000314     890692006003000181148GIFT-BAG 11X14CM MATT  0000001000+00000876+00000+0001T   00000876+0000001740          1400 AZ1112               2CZ
890693000890693               890693               170213EO     1400+00000+EO0000015787+0000015787+000000000+000002211+0000017998+0000000000+I40000017998+0000000000+Z
890693004890693031-000009     890693006003000306381P/FRAME COLLAGE HEARTS 0000001000+00013157+00000+0001T   00013157+0000001748          1400 AZ1510               2CZ
890693005890693077-000115-B   890693006003000181025GIFT-WRAP PPR 700MMX2M 0000001000+00002630+00000+0001T   00002630+0000001748          1400 AZ1112               2CZ
890694000890694               890694               170213EO     1400+00000+EO0000004120+0000004120+000000000+000000578+0000004698+0000000000+I40000004698+0000000000+Z
890694001890694220-009100     890694006001023706928ROSE PLACE-SETTING 3PCE0000001000+00002630+00000+0001T   00002630+0000001750          1400 AZ1300               2CZ
890694002890694009-001702     890694006001023807649PLATE 19cm SWIRL       0000001000+00001490+00000+0001T   00001490+0000001750          1400 AZ1210               2CZ
890695000890695               890695               170213EO     1400+00000+EO0000002765+0000002765+000000000+000000388+0000003153+0000000000+I40000003153+0000000000+Z
890695001890695903-000155     890695006009803374435SWT LOLLY I LUV U HEART0000001000+00000525+00000+0001T   00000525+0000001751          1400 AZ1150               2CZ
890695002890695080-000127     890695006003000424351VALENTINES DAY 36x24CM 0000001000+00002192+00000+0001T   00002192+0000001751          1400 AZ1112               2CZ
890695003890695112-116069     890695006009681820277TCS CARRIER BAG JUMBO  0000001000+00000048+00000+0001T   00000048+0000001751          1400 AZ1090               2CZ
890696000890696               890696               170213EO     1400+00000+EO0000001578+0000001578+000000000+000000221+0000001790+0000000009+I20000000000+0000001790+Z
890696001890696080-000124     890696006003000297733CARD & ENV VALENTINES  0000001000+00001578+00000+0001T   00001578+0000001752          1400 AZ1112               2CZ
890697000890697               890697               170213EO     1400+00000+EO0000004243+0000004243+000000000+000000595+0000004830+0000000008+I20000000000+0000004830+Z
890697001890697903-000095     890697006001704011495SWT SPECKLED-EGGS 100G 0000002000+00002104+00000+0001T   00002104+0000001756          1400 AZ1150               2CZ
890697002890697112-116038     890697006009681820246TCS CARRIER BAG MIDI   0000001000+00000035+00000+0001T   00000035+0000001756          1400 AZ1090               2CZ
890698000890698               890698               170213EO     1400+00000+EO0000057381+0000057381+000000000+000008043+0000065424+0000000000+I40000065424+0000000000+Z
890698001890698112-116069     890698006009681820277TCS CARRIER BAG JUMBO  0000001000+00000048+00000+0001T   00000048+0000001802          1400 AZ1090               2CZ
890698002890698565-000040     890698006008766115635NOVELTY ICON BEANIE    0000001000+00002630+00000+0001T   00002630+0000001802          1400 AZ1745               2CZ
890698003890698368-000048     890698006003000596133PLUSH FINGER PUPPETS   0000001000+00003507+00000+0001T   00003507+0000001802          1400 AZ1745               2CZ
890698004890698903-000126     890698006002099003591SWT ZILLIONS MINT 50G  0000002000+00000700+00000+0001T   00000700+0000001802          1400 AZ1150               2CZ
890698005890698903-000510     890698006001704012621SWEET MS ZBDZ S/BERRY  0000001000+00001227+00000+0001T   00001227+0000001802          1400 AZ1150               2CZ
890698006890698903-000077     890698006939873501687SWT GS MAGIC ROCK FRUIT0000002000+00000525+00000+0001T   00000525+0000001802          1400 AZ1150               2CZ
890698007890698903-000861     890698005010478430822SWT LOVE HEARTS SML    0000002000+00000876+00000+0001T   00000876+0000001802          1400 AZ1150               2CZ
890698008890698903-004960     890698008410525221842SWT GUMMY STR/BERRY 50G0000002000+00000964+00000+0001T   00000964+0000001802          1400 AZ1150               2CZ
890698009890698903-000520     890698006001704009898SWT GUMMY MINI SOUR 60g0000001000+00000876+00000+0001T   00000876+0000001802          1400 AZ1150               2CZ
890698010890698903-000510     890698006001704012621SWEET MS ZBDZ S/BERRY  0000002000+00001227+00000+0001T   00001227+0000001802          1400 AZ1150               2CZ
890698011890698903-000494     890698006001704009911SWT GUMMY TEENY TEDDIES0000002000+00000876+00000+0001T   00000876+0000001802          1400 AZ1150               2CZ
890698012890698368-000040     890698006003000671786PLUSH ICONS 7.5cm      0000001000+00002630+00000+0001T   00002630+0000001802          1400 AZ1745               2CZ
890698013890698565-000040     890698006008766115635NOVELTY ICON BEANIE    0000001000+00002630+00000+0001T   00002630+0000001802          1400 AZ1745               2CZ
890698014890698903-000520     890698006001704009898SWT GUMMY MINI SOUR 60g0000001000+00000876+00000+0001T   00000876+0000001802          1400 AZ1150               2CZ
890698015890698368-000005     890698006003000616862PLUSH MONSTER 24cm     0000002000+00010525+00000+0001T   00010525+0000001802          1400 AZ1745               2CZ
890698016890698369-001137-B   890698006003000626373BABY BATH VINYL DUCK   0000001000+00001578+00000+0001T   00001578+0000001802          1400 AZ1745               2CZ
890698017890698077-000299     890698006003000395576G/BAG 32x25cm LRG LOVE 0000001000+00001490+00000+0001T   00001490+0000001802          1400 AZ1112               2CZ
890698018890698077-000299-A   890698006003000670888GIFT-BAG PAPER JMB LOVE0000002000+00001753+00000+0001T   00001753+0000001802          1400 AZ1112               2CZ
890698019890698080-000127     890698006003000424351VALENTINES DAY 36x24CM 0000002000+00002192+00000+0001T   00002192+0000001802          1400 AZ1112               2CZ
890698020890698083-000055     890698006003000003853LIGHTER ELCTRNC REFILBL0000001000+00000613+00000+0001T   00000613+0000001802          1400 AZ1315               2CZ
A17021300                                          10201342EOSLAVE 2                       AZ12IC
A17021301                                          16185816EOSLAVE 2                       AZ13IC
B89061000                                          170213EO304-000720     08570613SLAVE 2     AZ11IC0000017000+0000004000+0000000000000+
B89062100                                          170213EO112-116038     10274755SLAVE 2     AZ12IC0000025000+0000002000+0000000000000+
C89061000                                          170213EO304-001011     08570076SLAVE 2     AZ11IC0000000000+0000000000+0010000017000+
C89061001                                          170213EO304-000720     09010808SLAVE 2     AZ11IC0000000000+0000000000+0030000004000+
C89063700                                          170213EO159-003615     14021454SLAVE 2     AZ12IC0000000000+0000000000+0010000001000+
C89067000                                          170213EO046-000010-A   16274003SLAVE 2     AZ12IC0000000000+0000000000+0010000001000+
C89067100                                          170213EO077-000315     16331554SLAVE 2     AZ12IC0000000000+0000000000+0020000001000+
C89067101                                          170213EO112-116038     16332879SLAVE 2     AZ12IC0000000000+0000000000+0030000001000+
C89069300                                          170213EO030-004015     17455177SLAVE 2     AZ12IC0000000000+0000000000+0010000001000+
C89069301                                          170213EO077-000457     17472989SLAVE 2     AZ11IC0000000000+0000000000+0020000001000+
C89069302                                          170213EO112-116069     17473356SLAVE 2     AZ11IC0000000000+0000000000+0030000001000+
M17021391                              CASH        EOSLAVE 2                       Z-REPORT No.   595TOTAL (Sales - Refunds)           7141.51       CASH TO BE BANKED                 4362.40       DEBIT CARDS                          0.00       CREDIT CARDS                      2779.11       Z-READING                         7141.51       AIRTIME DEBIT CARD SALES             0.00       AIRTIME CARD SALES                   0.00       OVERS/UNDERS                         0.00       AIRTIME CASH SALES                   0.00       GIFT CARDS                           0.00       GIFT CARD CASH SALES                 0.00       T O T A L  CASH PAYOUTS              0.00                                                                                                                                                                                                                                                                                                                                                      Z
M17021392                              CASH        EOABSENT                                                                                                                                                                                          ANNUAL LEAVE                                                                                                                                                                                    DAY OFF                                                                                                                                                                                         COMMENTS                                                                                                                                                                                                                                                                                                                                                                                       Z
Y17021300                                          EO00000000626790+000091
ZEO17021319343 SLAVE 2      SALES DATA                     NEXT INVOICE NO.  890699 0595
X EO Slave 2 First invoice 890608 170213 Last invoice 890698 170213 Next invoice 890699 Total number of records 000000326 clbackup completed 19:34:34
