116685000116685               116685               170213EP     1400+00000+EP0000005698+0000005698+000000000+000000799+0000006490+0000000007+I20000000000+0000006490+Z
116685001116685080-000109     116685006003000237203CARD&ENVLPE BDAY-BRIGHT0000002000+00001753+00000+0001T   00001753+0000000941          1400 HT2112               1AZ
116685002116685077-000918     116685006003000413690G/WRAP 700mmx2m PATTERN0000001000+00002192+00000+0001T   00002192+0000000941          1400 HT2112               1AZ
116686000116686               116686               170213EP     1400+00000+EP0000007940+0000007940+000000000+000001113+0000009050+0000000003+I20000000000+0000009050+Z
116686001116686266-003012     116686006001023786128BOYS P/SET ARCHERY 4pc 0000001000+00002630+00000+0001T   00002630+0000000944          1400 HT2710               1AZ
116686002116686103-000474     116686006003000630363BAMBOO FLOWER BASKET   0000001000+00005262+00000+0001T   00005262+0000000944          1400 HT2300               1AZ
116686003116686112-116069     116686006009681820277TCS CARRIER BAG JUMBO  0000001000+00000048+00000+0001T   00000048+0000000944          1400 HT2090               1AZ
116687000116687               116687               170213EP     1400+00000+EP0000004431+0000004431+000000000+000000622+0000005050+0000000003+I20000000000+0000005050+Z
116687001116687027-000090     116687006001023588265WINDOW-CLEANER LONG-HND0000001000+00002630+00000+0001T   00002630+0000000950          1400 HT2212               1AZ
116687002116687306-000024-A   116687006003000577309COTTON-WOOL-PADS 80PC  0000001000+00001753+00000+0001T   00001753+0000000950          1400 HT2200               1AZ
116687003116687112-116069     116687006009681820277TCS CARRIER BAG JUMBO  0000001000+00000048+00000+0001T   00000048+0000000950          1400 HT2090               1AZ
116688000116688               116688               170213EP     1400+00000+EP0000001578+0000001578+000000000+000000221+0000001790+0000000009+I20000000000+0000001790+Z
116688001116688077-000303     116688006001023593757GIFT-BAG PAPER MED     0000001000+00001578+00000+0001T   00001578+0000000952          1400 HT2112               1AZ
116689000116689               116689               170213EP     1400+00000+EP0000001490+0000001490+000000000+000000209+0000001690+0000000009+I20000000000+0000001690+Z
116689001116689077-000299     116689006003000395576G/BAG 32x25cm LRG LOVE 0000001000+00001490+00000+0001T   00001490+0000000953          1400 HT2112               1AZ
116690000116690               116690               170213EP     1400+00000+EP0000002493+0000002493+000000000+000000352+0000002840+0000000005+I20000000000+0000002840+Z
116690001116690024-091103-C   116690006003000596546CAKE BOX 2PC HLDS-6-C/C0000001000+00001314+00000+0001T   00001753+0008120956          1400 HT2300               1AZ
116690002116690903-000183     116690006003000451043SWT LB HEART LOLLY     0000003000+00000393+00000+0001T   00000393+0000000956          1400 HT2150               1AZ
116691000116691               116691               170213EP     1400+00000+EP0000001578+0000001578+000000000+000000221+0000001790+0000000009+I20000000000+0000001790+Z
116691001116691080-000124     116691006003000297733CARD & ENV VALENTINES  0000001000+00001578+00000+0001T   00001578+0000001016          1400 HT2112               1AZ
116692000116692               116692               170213EP     1400+00000+EP0000003506+0000003506+000000000+000000492+0000003990+0000000008+I20000000000+0000003990+Z
116692001116692080-000101     116692006003000236732CARD&ENVLPE FEMALE     0000001000+00001753+00000+0001T   00001753+0000001019          1400 HT2112               1AZ
116692002116692200-003024     116692006001023657299REFUSE BAGS 20PCE BLACK0000001000+00001753+00000+0001T   00001753+0000001019          1400 HT2214               1AZ
116693000116693               116693               170213EP     1400+00000+EP0000007893+0000007893+000000000+000001106+0000008990+0000000009+I20000000000+0000008990+Z
116693001116693050-004107-Z   116693006001023812629PADLOCK DISCUS S/S 70mm0000001000+00007893+00000+0001T   00007893+0000001020          1400 HT2855               1AZ
116694000116694               116694               170213EP     1400+00000+EP0000008326+0000008326+000000000+000001168+0000009490+0000000004+I20000000000+0000009490+Z
116694001116694077-000381     116694006003000247707GIFT-BAG 25X32CM S/COL 0000001000+00001753+00000+0001T   00001753+0000001025          1400 HT2112               1AZ
116694002116694080-000103     116694006003000236961CARD&ENVLOPE BDAY-MALE 0000001000+00001753+00000+0001T   00001753+0000001025          1400 HT2112               1AZ
116694003116694206-000370     116694006003000631315STRAW P/DRINKING GLASS 0000001000+00001753+00000+0001T   00001753+0000001025          1400 HT2321               1AZ
116694004116694206-000540     116694006003000620944BIRTHDAY CANDLES BLOCKS0000001000+00001314+00000+0001T   00001753+0008181025          1400 HT2321               1AZ
116694005116694084-006995     116694006003000092802NAIL CLIPPER 8cm TOE   0000001000+00001753+00000+0001T   00001753+0000001025          1400 HT2200               1AZ
116695000116695               116695               170213EP     1400+00000+EP0000003943+0000003943+000000000+000000554+0000004490+0000000007+I20000000000+0000004490+Z
116695001116695105-000750     116695006003000190270CONTAINERS 4xMINI 150ml0000001000+00001402+00000+0001T   00001402+0000001032          1400 HT2210               1AZ
116695002116695083-000295     116695006001023898562LIGHTER-GAS BUTANE 18ml0000001000+00000876+00000+0001T   00000876+0000001032          1400 HT2315               1AZ
116695003116695047-000504-H   116695006001023589958PLUG EURODAPTOR 2PIN HH0000001000+00001665+00000+0001T   00001665+0000001032          1400 HT2880               1AZ
116696000116696               116696               170213EP     1400+00000+EP0000006138+0000006138+000000000+000000860+0000006990+0000000008+I20000000000+0000006990+Z
116696001116696082-007582     116696006003000465804SUNGLASSES EMPORIUM    0000001000+00004385+00000+0001T   00004385+0000001033          1400 HT2160               1AZ
116696002116696566-000007     116696006001023761187S/BOOK SUPER VALUE     0000001000+00001753+00000+0001T   00001753+0000001033          1400 HT2130               1AZ
116697000116697               116697               170213EP     1400+00000+EP0000002630+0000002630+000000000+000000369+0000002999+0000000000+I40000002999+0000000000+Z
116697001116697041-007020     116697006003000089499H/GLO H+B LOTION 300ml 0000001000+00002630+00000+0001T   00002630+0000001035          1400 HT2200               1AZ
116698000116698               116698               170213EP     1400+00000+EP0000016184+0000016184+000000000+000002267+0000018450+0000000001+I20000000000+0000018450+Z
116698001116698368-000181     116698006003000668052PLUSH BUNNY 27cm       0000001000+00011402+00000+0001T   00011402+0000001037          1400 HT2745               1AZ
116698002116698903-000510     116698006001704012621SWEET MS ZBDZ S/BERRY  0000001000+00001227+00000+0001T   00001227+0000001037          1400 HT2150               1AZ
116698003116698301-085004     116698006003000420469ORN LOVE PLAQUE 21X10CM0000001000+00003507+00000+0001T   00003946+0006471037          1400 HT2505               1AZ
116698004116698112-116069     116698006009681820277TCS CARRIER BAG JUMBO  0000001000+00000048+00000+0001T   00000048+0000001037          1400 HT2090               1AZ
116699000116699               116699               170213EP     1400+00000+EP0000012313+0000012313+000000000+000001724+0000014030+0000000007+I20000000000+0000014030+Z
116699001116699001-091415     116699006003000329113W/GLS OCC. LOVE 2PC 2800000001000+00008771+00000+0001T   00009648+0006471049          1400 HT2515               1AZ
116699002116699018-000136     116699006001023659026MUG OCC LOVE W/PLUSH   0000001000+00003507+00000+0001T   00003507+0000001049          1400 HT2515               1AZ
116699003116699112-116038     116699006009681820246TCS CARRIER BAG MIDI   0000001000+00000035+00000+0001T   00000035+0000001049          1400 HT2090               1AZ
116700000116700               116700               170213EP     1400+00000+EP0000002192+0000002192+000000000+000000307+0000002490+0000000009+I20000000000+0000002490+Z
116700001116700024-000033     116700006003000420278MEASURING JUG 1L H/H   0000001000+00002192+00000+0001T   00002192+0000001054          1400 HT2300               1AZ
116701000116701               116701               170213EP     1400+00000+EP0000000613+0000000613+000000000+000000086+0000000690+0000000009+I20000000000+0000000690+Z
116701001116701007-000555     116701006001023848239MEMO-PAD MINI LOVE     0000001000+00000613+00000+0001T   00000613+0000001101          1400 HT2130               1AZ
116702000116702               116702               170213EP     1400+00000+EP0000011215+0000011215+000000000+000001574+0000012789+0000000000+I40000012789+0000000000+Z
116702001116702304-001204     116702006001023737984FLOWER OCC. TEDDY/ROSES0000001000+00001402+00000+0001T   00001490+0006471108          1400 HT2510               1AZ
116702002116702304-001011     116702006001023806727FLWR ROSE RED W/BEAR   0000001000+00000613+00000+0001T   00000788+0006471108          1400 HT2510               1AZ
116702003116702368-000100     116702006001023474742PLUSH MD BEAR 12cm     0000001000+00002630+00000+0001T   00002630+0000001108          1400 HT2745               1AZ
116702004116702018-000177     116702006001023797513MUG MINI LOVE ASSTD    0000001000+00000700+00000+0001T   00000700+0000001108          1400 HT2515               1AZ
116702005116702080-000124     116702006003000297733CARD & ENV VALENTINES  0000001000+00001578+00000+0001T   00001578+0000001108          1400 HT2112               1AZ
116702006116702903-000194     116702006009826020616SWT CHOC RP LOLLY 25G  0000001000+00001314+00000+0001T   00001314+0000001108          1400 HT2150               1AZ
116702007116702903-000183     116702006003000451043SWT LB HEART LOLLY     0000002000+00000393+00000+0001T   00000393+0000001108          1400 HT2150               1AZ
116702008116702080-000127     116702006003000424351VALENTINES DAY 36x24CM 0000001000+00002192+00000+0001T   00002192+0000001108          1400 HT2112               1AZ
116703000116703               116703               170213EP     1400+00000+EP0000007011+0000007011+000000000+000000982+0000007990+0000000003+I20000000000+0000007990+Z
116703001116703089-060027     116703006003000245871KEY-CHAIN HEART 6X6cm  0000001000+00003069+00000+0001T   00003069+0000001109          1400 HT2205               1AZ
116703002116703903-000194     116703006009826020616SWT CHOC RP LOLLY 25G  0000003000+00001314+00000+0001T   00001314+0000001109          1400 HT2150               1AZ
116704000116704               116704               170213EP     1400+00000+EP0000021486+0000021486+000000000+000003010+0000024490+0000000006+I20000000000+0000024490+Z
116704001116704077-000303     116704006001023593757GIFT-BAG PAPER MED     0000001000+00001578+00000+0001T   00001578+0000001112          1400 HT2112               1AZ
116704002116704077-000299     116704006003000395576G/BAG 32x25cm LRG LOVE 0000001000+00001490+00000+0001T   00001490+0000001112          1400 HT2112               1AZ
116704003116704368-000265     116704006001023750914PLUSH BEAR 23CM ASSTD C0000001000+00006139+00000+0001T   00006139+0000001112          1400 HT2745               1AZ
116704004116704368-000111     116704006001023780812PLUSH BEAR/DOG 29CM    0000001000+00012279+00000+0001T   00012279+0000001112          1400 HT2745               1AZ
116705000116705               116705               170213EP     1400+00000+EP0000025918+0000025918+000000000+000003631+0000029549+0000000000+I40000029549+0000000000+Z
116705001116705002-220004     116705006001023467614F/COVER HEXAGONAL 70cm 0000001000+00003069+00000+0001T   00003069+0000001118          1400 HT2300               1AZ
116705002116705306-000498     116705006003000519392TOOTHBRUSH 3PC ASTD    0000001000+00001753+00000+0001T   00001753+0000001118          1400 HT2200               1AZ
116705003116705464-008012     116705006003000091126GAME COMPENDIUM 51     0000001000+00008771+00000+0001T   00008771+0000001118          1400 HT2785               1AZ
116705004116705562-000010     116705006001023762528KID'S PLAY DOUGH       0000001000+00002630+00000+0001T   00002630+0000001118          1400 HT2755               1AZ
116705005116705027-009027     116705006003000235803BROOM FLAT 1.2m HANDLE 0000001000+00004385+00000+0001T   00004385+0000001118          1400 HT2212               1AZ
116705006116705082-007580     116705006003000698523SUNGLASS MENS DESIGNER 0000001000+00005262+00000+0001T   00005262+0000001118          1400 HT2160               1AZ
116705007116705112-116069     116705006009681820277TCS CARRIER BAG JUMBO  0000001000+00000048+00000+0001T   00000048+0000001118          1400 HT2090               1AZ
116706000116706               116706               170213EP     1400+00000+EP0000003507+0000003507+000000000+000000491+0000003990+0000000008+I20000000000+0000003990+Z
116706001116706082-098792     116706006001492987927SUNGLASS KIDS BOYS     0000001000+00003507+00000+0001T   00003507+0000001121          1400 HT2160               1AZ
116707000116707               116707               170213EP     1400+00000+EP0000001051+0000001051+000000000+000000148+0000001190+0000000009+I20000000000+0000001190+Z
116707001116707079-009702-D   116707008427973059354PAPER SIRIO A2 RED COL 0000001000+00001051+00000+0001T   00001051+0000001128          1400 HT2130               1AZ
116708000116708               116708               170213EP     1400+00000+EP0000010524+0000010524+000000000+000001474+0000011998+0000000000+I40000011998+0000000000+Z
116708001116708001-091415     116708006003000329113W/GLS OCC. LOVE 2PC 2800000001000+00008771+00000+0001T   00009648+0006471137          1400 HT2515               1AZ
116708002116708077-000457     116708006003000285662G/BAG METALLIC JMB SOL 0000001000+00001753+00000+0001T   00001753+0000001137          1400 HT2112               1AZ
116709000116709               116709               170213EP     1400+00000+EP0000007015+0000007015+000000000+000000983+0000007998+0000000000+I40000007998+0000000000+Z
116709001116709159-080358     116709006001023742315SHOWER /DRAIN FILTER   0000001000+00002630+00000+0001T   00002630+0000001142          1400 HT2200               1AZ
116709002116709082-000110     116709006003000360482READING GLS STRENGHT:2 0000001000+00004385+00000+0001T   00004385+0000001142          1400 HT2160               1AZ
116710000116710               116710               170213EP     1400+00000+EP0000002192+0000002192+000000000+000000307+0000002490+0000000009+I20000000000+0000002490+Z
116710001116710041-007001-C   116710006003000637102H/GLOW LIQUID VANILLA  0000001000+00002192+00000+0001T   00002192+0000001143          1400 HT2200               1AZ
116711000116711               116711               170213EP     1400+00000+EP0000000918+0000000918+000000000+000000129+0000001040+0000000007+I20000000000+0000001040+Z
116711001116711007-000123     116711006003000533879BOOK COVER 450mmx1.5m  0000003000+00000306+00000+0001T   00000306+0000001154          1400 HT2130               1AZ
116712000116712               116712               170213EP     1400+00000+EP0000005259+0000005259+000000000+000000738+0000005990+0000000007+I20000000000+0000005990+Z
116712001116712088-000108     116712006001023765536POTPOURRI-OIL 10ml ASST0000003000+00001753+00000+0001T   00001753+0000001157          1400 KU1212               1AZ
116713000116713               116713               170213EP     1400+00000+EP0000001753+0000001753+000000000+000000246+0000001990+0000000009+I20000000000+0000001990+Z
116713001116713080-000112     116713006003000252749CARD&ENVLP BDAY-MUSICAL0000001000+00001753+00000+0001T   00001753+0000001158          1400 KU1112               1AZ
116714000116714               116714               170213EP     1400+00000+EP0000006522+0000006522+000000000+000000915+0000007430+0000000007+I20000000000+0000007430+Z
116714001116714037-000004     116714006001023763679ASHTRAY PL TUB 8X11CM  0000001000+00001753+00000+0001T   00002192+0008191203          1400 KU1515               1AZ
116714002116714105-001300     116714006003000572618CONTAINER COLOUR RIM   0000001000+00002630+00000+0001T   00002630+0000001203          1400 KU1210               1AZ
116714003116714903-000095     116714006001704011495SWT SPECKLED-EGGS 100G 0000001000+00002104+00000+0001T   00002104+0000001203          1400 KU1150               1AZ
116714004116714112-116038     116714006009681820246TCS CARRIER BAG MIDI   0000001000+00000035+00000+0001T   00000035+0000001203          1400 KU1090               1AZ
116715000116715               116715               170213EP     1400+00000+EP0000007014+0000007014+000000000+000000982+0000007996+0000000000+I40000007996+0000000000+Z
116715001116715018-000136     116715006001023659026MUG OCC LOVE W/PLUSH   0000002000+00003507+00000+0001T   00003507+0000001216          1400 HT2515               1AZ
116716000116716               116716               170213EP     1400+00000+EP0000001572+0000001572+000000000+000000224+0000001790+0000000006+I20000000000+0000001790+Z
116716001116716903-000183     116716006003000451043SWT LB HEART LOLLY     0000004000+00000393+00000+0001T   00000393+0000001217          1400 HT2150               1AZ
116717000116717               116717               170213EP     1400+00000+EP0000010524+0000010524+000000000+000001474+0000011998+0000000000+I40000011998+0000000000+Z
116717001116717304-001116     116717006003000426164F/BUNCH ROSES 12-HEAD  0000002000+00005262+00000+0001T   00005262+0000001219          1400 HT2510               1AZ
116718000116718               116718               170213EP     1400+00000+EP0000007890+0000007890+000000000+000001107+0000008990+0000000007+I20000000000+0000008990+Z
116718001116718251-000003     116718006003000266159TAPE D/S 18x300mm V/PCK0000003000+00002630+00000+0001T   00002630+0000001220          1400 HT2810               1AZ
116719000116719               116719               170213EP     1400+00000+EP0000002630+0000002630+000000000+000000369+0000002990+0000000009+I20000000000+0000002990+Z
116719001116719204-000007     116719006003000427062M/HOLDER MAGN POLY LOVE0000001000+00002630+00000+0001T   00003507+0008131221          1400 HT2300               1AZ
116720000116720               116720               170213EP     1400+00000+EP0000015902+0000015902+000000000+000002230+0000018130+0000000002+I20000000000+0000018130+Z
116720001116720112-116038     116720006009681820246TCS CARRIER BAG MIDI   0000001000+00000035+00000+0001T   00000035+0000001224          1400 HT2090               1AZ
116720002116720046-000004     116720006001023606525BATTERY 9VOLT H/POWER  0000003000+00001490+00000+0001T   00001490+0000001224          1400 HT2312               1AZ
116720003116720083-000058     116720006003000400331LIGHTER JET CIGAR REFIL0000001000+00002630+00000+0001T   00002630+0000001224          1400 HT2315               1AZ
116720004116720018-019000     116720006003000557288MUG OCC. LOVE JUMBO    0000001000+00005262+00000+0001T   00005262+0000001224          1400 HT2515               1AZ
116720005116720083-000295     116720006001023898562LIGHTER-GAS BUTANE 18ml0000002000+00000876+00000+0001T   00000876+0000001224          1400 HT2315               1AZ
116720006116720077-000467     116720006003000329991GIFT-BAG STAMP 18X23CM 0000001000+00001753+00000+0001T   00001753+0000001224          1400 HT2112               1AZ
116721000116721               116721               170213EP     1400+00000+EP0000001753+0000001753+000000000+000000246+0000001990+0000000009+I20000000000+0000001990+Z
116721001116721007-000551     116721006001023848079NOTE-PAD SHOP-LIST ASST0000001000+00001753+00000+0001T   00001753+0000001225          1400 HT2130               1AZ
116722000116722               116722               170213EP     1400+00000+EP0000008802+0000008802+000000000+000001233+0000010030+0000000005+I20000000000+0000010030+Z
116722001116722080-000101     116722006003000236732CARD&ENVLPE FEMALE     0000001000+00001753+00000+0001T   00001753+0000001226          1400 HT2112               1AZ
116722002116722018-005009     116722006001023725608MUG W/PLUSH-BEAR LOVE  0000002000+00003507+00000+0001T   00003507+0000001226          1400 HT2515               1AZ
116722003116722112-116038     116722006009681820246TCS CARRIER BAG MIDI   0000001000+00000035+00000+0001T   00000035+0000001226          1400 HT2090               1AZ
116723000116723               116723               170213EP     1400+00000+EP0000009694+0000009694+000000000+000001358+0000011050+0000000002+I20000000000+0000011050+Z
116723001116723031-000864-B   116723006001023798381P/FRAME MAHOGANY 13X18 0000001000+00003507+00000+0001T   00003507+0000001230          1400 HT2510               1AZ
116723002116723031-007009     116723006003000467822P/FRAME WDN CERTIFICATE0000001000+00006139+00000+0001T   00006139+0000001230          1400 HT2510               1AZ
116723003116723112-116069     116723006009681820277TCS CARRIER BAG JUMBO  0000001000+00000048+00000+0001T   00000048+0000001230          1400 HT2090               1AZ
116724000116724               116724               170213EP     1400+00000+EP0000010961+0000010961+000000000+000001536+0000012497+0000000000+I40000012497+0000000000+Z
116724001116724018-050000     116724006003000412679MUG OCC LOVE TWIN BEAR 0000001000+00006139+00000+0001T   00006139+0000001237          1400 HT2515               1AZ
116724002116724030-000030-A   116724006003000249305PLAQUE GLASS LOVE      0000001000+00003069+00000+0001T   00003069+0000001237          1400 HT2505               1AZ
116724003116724077-000309     116724006001023608604GIFT-BAG 25X32CM GLOSS 0000001000+00001753+00000+0001T   00001753+0000001237          1400 HT2112               1AZ
116725000116725               116725               170213EP     1400+00000+EP0000006695+0000006695+000000000+000000940+0000007630+0000000005+I20000000000+0000007630+Z
116725001116725077-000245     116725006001023759214GIFT-RIBBON METALLICx2 0000001000+00001227+00000+0001T   00001227+0000001243          1400 HT2112               1AZ
116725002116725079-014152     116725006003000253074ART+CRAFT PK50 ASSTD   0000001000+00003069+00000+0001T   00003069+0000001243          1400 HT2130               1AZ
116725003116725077-000010-D   116725006001023123886CREPE-PAPER WHITE      0000001000+00000788+00000+0001T   00000788+0000001243          1400 HT2112               1AZ
116725004116725903-000155     116725006009803374435SWT LOLLY I LUV U HEART0000001000+00000525+00000+0001T   00000525+0000001243          1400 HT2150               1AZ
116725005116725079-009702-D   116725008427973059354PAPER SIRIO A2 RED COL 0000001000+00001051+00000+0001T   00001051+0000001243          1400 HT2130               1AZ
116725006116725112-116038     116725006009681820246TCS CARRIER BAG MIDI   0000001000+00000035+00000+0001T   00000035+0000001243          1400 HT2090               1AZ
116726000116726               116726               170213EP     1400+00000+EP0000003946+0000003946+000000000+000000553+0000004490+0000000009+I20000000000+0000004490+Z
116726001116726031-000845     116726006001023851819PICTURE-FRAME ASSTD    0000001000+00003946+00000+0001T   00003946+0000001335          1400 HT2510               1AZ
116727000116727               116727               170213EP     1400+00000+EP0000001753+0000001753+000000000+000000246+0000001990+0000000009+I20000000000+0000001990+Z
116727001116727077-000354     116727006003000139224GIFT-BAG 25X32CM H/MADE0000001000+00001753+00000+0001T   00001753+0000001337          1400 HT2112               1AZ
116728000116728               116728               170213EP     1400+00000+EP0000005260+0000005260+000000000+000000737+0000005990+0000000007+I20000000000+0000005990+Z
116728001116728108-001216     116728006003000010882SALAD BOWL PL 4.9L     0000001000+00003507+00000+0001T   00003507+0000001357          1400 HT2210               1AZ
116728002116728107-002117     116728006002580008890BASIN PL 32cm(VIRGIN)4L0000001000+00001753+00000+0001T   00001753+0000001357          1400 HT2210               1AZ
116729000116729               116729               170213EP     1400+00000+EP0000010467+0000010467+000000000+000001468+0000011935+0000000000+I40000011935+0000000000+Z
116729001116729301-085001     116729006003000297610ORN WATERBALL LOVE ASST0000001000+00004823+00000+0001T   00004823+0000001405          1400 HT2505               1AZ
116729002116729124-002023     116729006003000367252BISCUIT TIN HEART SHAPE0000001000+00002630+00000+0001T   00003507+0008171405          1400 HT2300               1AZ
116729003116729112-116038     116729006009681820246TCS CARRIER BAG MIDI   0000001000+00000035+00000+0001T   00000035+0000001405          1400 HT2090               1AZ
116729004116729903-004962     116729008410525221880SWT FINI BLCK/RED 50g  0000002000+00000964+00000+0001T   00000964+0000001405          1400 HT2150               1AZ
116729005116729903-002892     116729008935001721338MENTOS JUICEBLAST BERRY0000001000+00001051+00000+0001T   00001051+0000001405          1400 HT2150               1AZ
116730000116730               116730               170213EP     1400+00000+EP0000006166+0000006166+000000000+000000867+0000007033+0000000000+I40000007033+0000000000+Z
116730001116730304-001011     116730006001023806727FLWR ROSE RED W/BEAR   0000002000+00000613+00000+0001T   00000788+0006471408          1400 HT2510               1AZ
116730002116730903-000183     116730006003000451043SWT LB HEART LOLLY     0000002000+00000393+00000+0001T   00000393+0000001408          1400 HT2150               1AZ
116730003116730077-000010-D   116730006001023123886CREPE-PAPER WHITE      0000001000+00000788+00000+0001T   00000788+0000001408          1400 HT2112               1AZ
116730004116730077-000303     116730006001023593757GIFT-BAG PAPER MED     0000001000+00001578+00000+0001T   00001578+0000001408          1400 HT2112               1AZ
116730005116730077-000382     116730006003000247820GIFT-BAG MED 18X23CM   0000001000+00001753+00000+0001T   00001753+0000001408          1400 HT2112               1AZ
116730006116730112-116038     116730006009681820246TCS CARRIER BAG MIDI   0000001000+00000035+00000+0001T   00000035+0000001408          1400 HT2090               1AZ
116731000116731               116731               170213EP     1400+00000+EP0000002892+0000002892+000000000+000000405+0000003290+0000000007+I20000000000+0000003290+Z
116731001116731261-000121     116731006001023341600GUN-CAPS 8-SHOT CARD-9 0000001000+00000700+00000+0001T   00000700+0000001410          1400 HT2710               1AZ
116731002116731104-000036     116731006003000501038BASKET W/HANGER HOOK   0000001000+00002192+00000+0001T   00002192+0000001410          1400 HT2210               1AZ
116732000116732               116732               170213EP     1400+00000+EP0000003507+0000003507+000000000+000000491+0000003990+0000000008+I20000000000+0000003990+Z
116732001116732048-000826     116732006001023753045TORCH LED W/ZOOM SMALL 0000001000+00003507+00000+0001T   00003507+0000001428          1400 HT2305               1AZ
116733000116733               116733               170213EP     1400+00000+EP0000005699+0000005699+000000000+000000798+0000006490+0000000007+I20000000000+0000006490+Z
116733001116733031-000870-A   116733006001023798626P/FRAME WOOD WHITE-PINE0000001000+00004385+00000+0001T   00004385+0000001429          1400 HT2510               1AZ
116733002116733903-000194     116733006009826020616SWT CHOC RP LOLLY 25G  0000001000+00001314+00000+0001T   00001314+0000001429          1400 HT2150               1AZ
116734000116734               116734               170213EP     1400+00000+EP0000004384+0000004384+000000000+000000614+0000004990+0000000008+I20000000000+0000004990+Z
116734001116734077-000509     116734006003000082582GIFT-BAG SML 6PCE ORG P0000002000+00002192+00000+0001T   00002192+0000001430          1400 HT2112               1AZ
116735000116735               116735               170213EP     1400+00000+EP0000000876+0000000876+000000000+000000123+0000000990+0000000009+I20000000000+0000000990+Z
116735001116735071-003000     116735006003000543229PEN BALL PEN 3PCE MULTI0000001000+00000876+00000+0001T   00000876+0000001435          1400 HT2130               1AZ
116736000116736               116736               170213EP     1400+00000+EP0000002628+0000002628+000000000+000000368+0000002990+0000000006+I20000000000+0000002990+Z
116736001116736006-000167-C   116736006003000516971BALLOONS PINK METALLIC 0000002000+00001314+00000+0001T   00001314+0000001436          1400 HT2131               1AZ
116737000116737               116737               170213EP     1400+00000+EP0000008364+0000008364+000000000+000001172+0000009536+0000000000+I40000009536+0000000000+Z
116737001116737003-009207     116737006003000406326O/WALL PLAQUE 13X19CM  0000001000+00005262+00000+0001T   00005262+0000001439          1400 HT2505               1AZ
116737002116737080-000120     116737006003000236473CARD & ENVELOPE WEDDING0000001000+00001753+00000+0001T   00001753+0000001439          1400 HT2112               1AZ
116737003116737077-000310     116737006001023608635GIFT-BAG 18X23CM GLOSS 0000001000+00001314+00000+0001T   00001314+0000001439          1400 HT2112               1AZ
116737004116737112-116038     116737006009681820246TCS CARRIER BAG MIDI   0000001000+00000035+00000+0001T   00000035+0000001439          1400 HT2090               1AZ
116738000116738               116738               170213EP     1400+00000+EP0000002678+0000002678+000000000+000000376+0000003054+0000000000+I40000003054+0000000000+Z
116738001116738105-003025     116738006001023594662CONTAINER RECT 28x19cm 0000001000+00002630+00000+0001T   00002630+0000001441          1400 HT2210               1AZ
116738002116738112-116069     116738006009681820277TCS CARRIER BAG JUMBO  0000001000+00000048+00000+0001T   00000048+0000001441          1400 HT2090               1AZ
116739000116739               116739               170213EP     1400+00000+EP0000007014+0000007014+000000000+000000982+0000007996+0000000000+I40000007996+0000000000+Z
116739001116739162-010767     116739006001492107677#TAG LDS RING          0000001000+00003507+00000+0001T   00003507+0000001445          1400 HT2160               1AZ
116739002116739018-000136     116739006001023659026MUG OCC LOVE W/PLUSH   0000001000+00003507+00000+0001T   00003507+0000001445          1400 HT2515               1AZ
116740000116740               116740               170213EP     1400+00000+EP0000001400+0000001400+000000000+000000196+0000001596+0000000000+I40000001596+0000000000+Z
116740001116740018-000177     116740006001023797513MUG MINI LOVE ASSTD    0000002000+00000700+00000+0001T   00000700+0000001451          1400 HT2515               1AZ
116741000116741               116741               170213EP     1400+00000+EP0000021098+0000021098+000000000+000002955+0000024053+0000000000+I40000024053+0000000000+Z
116741001116741024-000175     116741006003000120765SILICONE C/PAN 12-CUPS 0000002000+00010525+00000+0001T   00010525+0000001454          1400 HT2300               1AZ
116741002116741112-116069     116741006009681820277TCS CARRIER BAG JUMBO  0000001000+00000048+00000+0001T   00000048+0000001454          1400 HT2090               1AZ
116742000116742               116742               170213EP     1400+00000+EP0000005259+0000005259+000000000+000000738+0000005990+0000000007+I20000000000+0000005990+Z
116742001116742077-000382     116742006003000247820GIFT-BAG MED 18X23CM   0000003000+00001753+00000+0001T   00001753+0000001455          1400 HT2112               1AZ
116743000116743               116743               170213EP     1400+00000+EP0000006995+0000006995+000000000+000000983+0000007978+0000000000+I40000007978+0000000000+Z
116743001116743903-000183     116743006003000451043SWT LB HEART LOLLY     0000003000+00000393+00000+0001T   00000393+0000001459          1400 HT2150               1AZ
116743002116743903-000194     116743006009826020616SWT CHOC RP LOLLY 25G  0000003000+00001314+00000+0001T   00001314+0000001459          1400 HT2150               1AZ
116743003116743304-001011     116743006001023806727FLWR ROSE RED W/BEAR   0000003000+00000613+00000+0001T   00000788+0006471459          1400 HT2510               1AZ
116743004116743112-116038     116743006009681820246TCS CARRIER BAG MIDI   0000001000+00000035+00000+0001T   00000035+0000001459          1400 HT2090               1AZ
116744000116744               116744               170213EP     1400+00000+EP0000006139+0000006139+000000000+000000860+0000006999+0000000000+I40000006999+0000000000+Z
116744001116744159-000095     116744006003000399178SHOWER-CADDY CHROME    0000001000+00006139+00000+0001T   00006139+0000001502          1400 HT2200               1AZ
116745000116745               116745               170213EP     1400+00000+EP0000008639+0000008639+000000000+000001210+0000009849+0000000000+I40000009849+0000000000+Z
116745001116745261-008349     116745006001023787590CAP-GUN 8-SHOT         0000001000+00002192+00000+0001T   00002192+0000001505          1400 HT2710               1AZ
116745002116745261-000121     116745006001023341600GUN-CAPS 8-SHOT CARD-9 0000001000+00000700+00000+0001T   00000700+0000001505          1400 HT2710               1AZ
116745003116745369-000035     116745006001023795885EDU STACKING-SET ASSTD 0000001000+00003507+00000+0001T   00003507+0000001505          1400 HT2745               1AZ
116745004116745112-116069     116745006009681820277TCS CARRIER BAG JUMBO  0000001000+00000048+00000+0001T   00000048+0000001505          1400 HT2090               1AZ
116745005116745080-000127     116745006003000424351VALENTINES DAY 36x24CM 0000001000+00002192+00000+0001T   00002192+0000001505          1400 HT2112               1AZ
116746000116746               116746               170213EP     1400+00000+EP0000008063+0000008063+000000000+000001131+0000009190+0000000004+I20000000000+0000009190+Z
116746001116746304-001204     116746006001023737984FLOWER OCC. TEDDY/ROSES0000002000+00001402+00000+0001T   00001490+0006471507          1400 HT2510               1AZ
116746002116746301-085004     116746006003000420469ORN LOVE PLAQUE 21X10CM0000001000+00003507+00000+0001T   00003946+0006471507          1400 HT2505               1AZ
116746003116746077-000302     116746008010410010195GIFT-BAG 18X23CM E/D   0000002000+00000876+00000+0001T   00000876+0000001507          1400 HT2112               1AZ
116747000116747               116747               170213EP     1400+00000+EP0000004909+0000004909+000000000+000000688+0000005590+0000000007+I20000000000+0000005590+Z
116747001116747304-001204     116747006001023737984FLOWER OCC. TEDDY/ROSES0000001000+00001402+00000+0001T   00001490+0006471507          1400 HT2510               1AZ
116747002116747018-005009     116747006001023725608MUG W/PLUSH-BEAR LOVE  0000001000+00003507+00000+0001T   00003507+0000001507          1400 HT2515               1AZ
116748000116748               116748               170213EP     1400+00000+EP0000003507+0000003507+000000000+000000491+0000003990+0000000008+I20000000000+0000003990+Z
116748001116748018-000130     116748006001023867537MUG OCC LOVE MINI+HEART0000001000+00003507+00000+0001T   00003507+0000001511          1400 HT2515               1AZ
116749000116749               116749               170213EP     1400+00000+EP0000000876+0000000876+000000000+000000123+0000000990+0000000009+I20000000000+0000000990+Z
116749001116749077-000302     116749008010410010195GIFT-BAG 18X23CM E/D   0000001000+00000876+00000+0001T   00000876+0000001513          1400 HT2112               1AZ
116750000116750               116750               170213EP     1400+00000+EP0000000613+0000000613+000000000+000000086+0000000690+0000000009+I20000000000+0000000690+Z
116750001116750304-001011     116750006001023806727FLWR ROSE RED W/BEAR   0000001000+00000613+00000+0001T   00000788+0006471514          1400 HT2510               1AZ
116751000116751               116751               170213EP     1400+00000+EP0000012327+0000012327+000000000+000001727+0000014054+0000000000+I40000014054+0000000000+Z
116751001116751368-000113     116751006001023780874PLUSH BLINGED LOVE 30cm0000001000+00012279+00000+0001T   00012279+0000001519          1400 HT2745               1AZ
116751002116751112-116069     116751006009681820277TCS CARRIER BAG JUMBO  0000001000+00000048+00000+0001T   00000048+0000001519          1400 HT2090               1AZ
116752000116752               116752               170213EP     1400+00000+EP0000008973+0000008973+000000000+000001258+0000010231+0000000000+I40000010231+0000000000+Z
116752001116752077-000471     116752006003000330096G-BAG DESGN MED 18X23CM0000001000+00001753+00000+0001T   00001753+0000001521          1400 HT2112               1AZ
116752002116752903-000194     116752006009826020616SWT CHOC RP LOLLY 25G  0000002000+00001314+00000+0001T   00001314+0000001521          1400 HT2150               1AZ
116752003116752903-000155     116752006009803374435SWT LOLLY I LUV U HEART0000002000+00000525+00000+0001T   00000525+0000001521          1400 HT2150               1AZ
116752004116752018-005009     116752006001023725608MUG W/PLUSH-BEAR LOVE  0000001000+00003507+00000+0001T   00003507+0000001521          1400 HT2515               1AZ
116752005116752112-116038     116752006009681820246TCS CARRIER BAG MIDI   0000001000+00000035+00000+0001T   00000035+0000001521          1400 HT2090               1AZ
116753000116753               116753               170213EP     1400+00000+EP0000023021+0000023021+000000000+000003225+0000026246+0000000000+I40000026246+0000000000+Z
116753001116753080-000127     116753006003000424351VALENTINES DAY 36x24CM 0000001000+00002192+00000+0001T   00002192+0000001525          1400 HT2112               1AZ
116753002116753304-001011     116753006001023806727FLWR ROSE RED W/BEAR   0000001000+00000613+00000+0001T   00000788+0006471525          1400 HT2510               1AZ
116753003116753030-000031-A   116753006003000457588PLAQUE W/WORDS ASSTD   0000001000+00004385+00000+0001T   00004823+0006471525          1400 HT2505               1AZ
116753004116753018-050000     116753006003000412679MUG OCC LOVE TWIN BEAR 0000001000+00006139+00000+0001T   00006139+0000001525          1400 HT2515               1AZ
116753005116753031-000923     116753006001023669933P/FRAME BLK W/WORDS    0000001000+00003507+00000+0001T   00003507+0000001525          1400 HT2510               1AZ
116753006116753204-000007     116753006003000427062M/HOLDER MAGN POLY LOVE0000001000+00002630+00000+0001T   00003507+0008131525          1400 HT2300               1AZ
116753007116753077-000465     116753006003000681570GIFT-BAG MTLC GLIT LRG 0000001000+00003507+00000+0001T   00003507+0000001525          1400 HT2112               1AZ
116753008116753112-116069     116753006009681820277TCS CARRIER BAG JUMBO  0000001000+00000048+00000+0001T   00000048+0000001525          1400 HT2090               1AZ
116754000116754               116754               170213EP     1400+00000+EP0000005873+0000005873+000000000+000000823+0000006696+0000000000+I40000006696+0000000000+Z
116754001116754077-000399     116754006003000139514GIFT BAG 18X23CM E/DAY 0000001000+00001490+00000+0001T   00001490+0000001526          1400 HT2112               1AZ
116754002116754018-000130     116754006001023867537MUG OCC LOVE MINI+HEART0000001000+00003507+00000+0001T   00003507+0000001526          1400 HT2515               1AZ
116754003116754903-000123     116754006925925909280SWEET GS MINI MALLOWS  0000001000+00000876+00000+0001T   00000876+0000001526          1400 HT2150               1AZ
116755000116755               116755               170213EP     1400+00000+EP0000001753+0000001753+000000000+000000246+0000001990+0000000009+I20000000000+0000001990+Z
116755001116755036-000063     116755006009654960436COATHANGERS VIRGIN 5PCE0000001000+00001753+00000+0001T   00001753+0000001527          1400 HT2212               1AZ
116756000116756               116756               170213EP     1400+00000+EP0000007629+0000007629+000000000+000001069+0000008690+0000000008+I20000000000+0000008690+Z
116756001116756077-000299     116756006003000395576G/BAG 32x25cm LRG LOVE 0000001000+00001490+00000+0001T   00001490+0000001528          1400 HT2112               1AZ
116756002116756018-050000     116756006003000412679MUG OCC LOVE TWIN BEAR 0000001000+00006139+00000+0001T   00006139+0000001528          1400 HT2515               1AZ
116757000116757               116757               170213EP     1400+00000+EP0000007184+0000007184+000000000+000001006+0000008190+0000000000+I40000008190+0000000000+Z
116757001116757018-000170     116757006001023775528MUG OCC. LOVE 2PC MINI 0000001000+00002192+00000+0001T   00002192+0000001531          1400 HT2515               1AZ
116757002116757018-000177     116757006001023797513MUG MINI LOVE ASSTD    0000004000+00000700+00000+0001T   00000700+0000001531          1400 HT2515               1AZ
116757003116757018-000170     116757006001023775528MUG OCC. LOVE 2PC MINI 0000001000+00002192+00000+0001T   00002192+0000001531          1400 HT2515               1AZ
116758000116758               116758               170213EP     1400+00000+EP0000005045+0000005045+000000000+000000707+0000005752+0000000000+I40000005752+0000000000+Z
116758001116758018-005009     116758006001023725608MUG W/PLUSH-BEAR LOVE  0000001000+00003507+00000+0001T   00003507+0000001534          1400 HT2515               1AZ
116758002116758077-000299     116758006003000395576G/BAG 32x25cm LRG LOVE 0000001000+00001490+00000+0001T   00001490+0000001534          1400 HT2112               1AZ
116758003116758112-116069     116758006009681820277TCS CARRIER BAG JUMBO  0000001000+00000048+00000+0001T   00000048+0000001534          1400 HT20902IC            1AZ
116759000116759               116759               170213EP     1400+00000+EP0000005260+0000005260+000000000+000000738+0000005990+0000000008+I20000000000+0000005990+Z
116759001116759019-000131     116759006003000456253PLANT. T/PLATE 10X12.5 0000002000+00002630+00000+0001T   00002630+0000001534          1400 HT2510               1AZ
116760000116760               116760               170213EP     1400+00000+EP0000003243+0000003243+000000000+000000455+0000003690+0000000008+I20000000000+0000003690+Z
116760001116760903-000095     116760006001704011495SWT SPECKLED-EGGS 100G 0000001000+00002104+00000+0001T   00002104+0000001542          1400 HT2150               1AZ
116760002116760903-000087     116760006001704000161SWT SPECKLED-EGGS 50G  0000001000+00001139+00000+0001T   00001139+0000001542          1400 HT2150               1AZ
116761000116761               116761               170213EP     1400+00000+EP0000008593+0000008593+000000000+000001204+0000009797+0000000000+I40000009797+0000000000+Z
116761001116761019-000133     116761006003000602353PLANTER TINPLATE W/HNDL0000001000+00004385+00000+0001T   00004385+0000001544          1400 HT2510               1AZ
116761002116761903-000095     116761006001704011495SWT SPECKLED-EGGS 100G 0000002000+00002104+00000+0001T   00002104+0000001544          1400 HT2150               1AZ
116762000116762               116762               170213EP     1400+00000+EP0000017269+0000017269+000000000+000002419+0000019680+0000000008+I20000000000+0000019680+Z
116762001116762368-000001     116762006003000097982Plush Bear 25cm        0000001000+00004385+00000+0001T   00004385+0000001546          1400 HT2745               1AZ
116762002116762077-000310     116762006001023608635GIFT-BAG 18X23CM GLOSS 0000003000+00001314+00000+0001T   00001314+0000001546          1400 HT2112               1AZ
116762003116762368-000001     116762006003000097982Plush Bear 25cm        0000001000+00004385+00000+0001T   00004385+0000001546          1400 HT2745               1AZ
116762004116762304-001011     116762006001023806727FLWR ROSE RED W/BEAR   0000001000+00000613+00000+0001T   00000788+0006471546          1400 HT2510               1AZ
116762005116762018-000129     116762006001023403353MUG OCC. LOVE V-SHAPE  0000001000+00002630+00000+0001T   00002630+0000001546          1400 HT2515               1AZ
116762006116762046-000012     116762006904708013062BATTERIES AA  CARD-OF-40000001000+00001314+00000+0001T   00001314+0000001546          1400 HT2312               1AZ
116763000116763               116763               170213EP     1400+00000+EP0000005875+0000005875+000000000+000000823+0000006698+0000000000+I40000006698+0000000000+Z
116763001116763077-000399     116763006003000139514GIFT BAG 18X23CM E/DAY 0000001000+00001490+00000+0001T   00001490+0000001547          1400 HT2112               1AZ
116763002116763366-000154     116763006003000601929DRESS UP BRACES COL ASS0000001000+00004385+00000+0001T   00004385+0000001547          1400 HT2131               1AZ
116764000116764               116764               170213EP     1400+00000+EP0000002665+0000002665+000000000+000000374+0000003030+0000000009+I20000000000+0000003030+Z
116764001116764018-000129     116764006001023403353MUG OCC. LOVE V-SHAPE  0000001000+00002630+00000+0001T   00002630+0000001553          1400 HT2515               1AZ
116764002116764112-116038     116764006009681820246TCS CARRIER BAG MIDI   0000001000+00000035+00000+0001T   00000035+0000001553          1400 HT2090               1AZ
116765000116765               116765               170213EP     1400+00000+EP0000016223+0000016223+000000000+000002273+0000018496+0000000000+I40000018496+0000000000+Z
116765001116765024-000109     116765006001023902337MINI-CUP PAN 12CUP     0000001000+00007016+00000+0001T   00007016+0000001557          1400 HT2300               1AZ
116765002116765080-000127     116765006003000424351VALENTINES DAY 36x24CM 0000001000+00002192+00000+0001T   00002192+0000001557          1400 HT2112               1AZ
116765003116765001-000175     116765006001023788108B/MUG GLS LOVE 380ML   0000001000+00004385+00000+0001T   00004385+0000001557          1400 HT2515               1AZ
116765004116765159-002369     116765006001023999191TOOTHBRUSH HOLDER PL 3 0000001000+00002630+00000+0001T   00002630+0000001557          1400 HT2200               1AZ
116766000116766               116766               170213EP     1400+00000+EP0000005699+0000005699+000000000+000000798+0000006490+0000000007+I20000000000+0000006490+Z
116766001116766206-000180     116766006003000631223TEA INFUSER TEAMAN     0000001000+00004385+00000+0001T   00004385+0000001558          1400 HT2321               1AZ
116766002116766362-000307     116766006003000519750HAIR HEADBAND PRINTED  0000001000+00001314+00000+0001T   00001314+0000001558          1400 HT2160               1AZ
116767000116767               116767               170213EP     1400+00000+EP0000015919+0000015919+000000000+000002230+0000018140+0000000009+I20000000000+0000018140+Z
116767001116767903-004950     116767006002580020304SWT APRICOT SURPRISE   0000001000+00001314+00000+0001T   00001314+0000001600          1400 HT2150               1AZ
116767002116767304-001204     116767006001023737984FLOWER OCC. TEDDY/ROSES0000001000+00001402+00000+0001T   00001490+0006471600          1400 HT2510               1AZ
116767003116767018-030000     116767006003000421060MUG OCCASIONS LOVE 2PCE0000003000+00004385+00000+0001T   00004385+0000001600          1400 HT2515               1AZ
116767004116767112-116069     116767006009681820277TCS CARRIER BAG JUMBO  0000001000+00000048+00000+0001T   00000048+0000001600          1400 HT2090               1AZ
116768000116768               116768               170213EP     1400+00000+EP0000003419+0000003419+000000000+000000481+0000003900+0000000000+I20000000000+0000003900+Z
116768001116768077-000381     116768006003000247707GIFT-BAG 25X32CM S/COL 0000001000+00001753+00000+0001T   00001753+0000001602          1400 HT2112               1AZ
116768002116768018-000177     116768006001023797513MUG MINI LOVE ASSTD    0000001000+00000700+00000+0001T   00000700+0000001602          1400 HT2515               1AZ
116768003116768903-000183     116768006003000451043SWT LB HEART LOLLY     0000001000+00000393+00000+0001T   00000393+0000001602          1400 HT2150               1AZ
116768004116768903-000155     116768006009803374435SWT LOLLY I LUV U HEART0000001000+00000525+00000+0001T   00000525+0000001602          1400 HT2150               1AZ
116768005116768112-116069     116768006009681820277TCS CARRIER BAG JUMBO  0000001000+00000048+00000+0001T   00000048+0000001602          1400 HT2090               1AZ
116769000116769               116769               170213EP     1400+00000+EP0000001402+0000001402+000000000+000000197+0000001590+0000000009+I20000000000+0000001590+Z
116769001116769304-001204     116769006001023737984FLOWER OCC. TEDDY/ROSES0000001000+00001402+00000+0001T   00001490+0006471605          1400 HT2510               1AZ
116770000116770               116770               170213EP     1400+00000+EP0000003291+0000003291+000000000+000000462+0000003750+0000000003+I20000000000+0000003750+Z
116770001116770304-001011     116770006001023806727FLWR ROSE RED W/BEAR   0000001000+00000613+00000+0001T   00000788+0006471607          1400 HT2510               1AZ
116770002116770566-000367     116770006003000645558STICKER WINDOW DECOR   0000001000+00002630+00000+0001T   00002630+0000001607          1400 HT2130               1AZ
116770003116770112-116069     116770006009681820277TCS CARRIER BAG JUMBO  0000001000+00000048+00000+0001T   00000048+0000001607          1400 HT2090               1AZ
116771000116771               116771               170213EP     1400+00000+EP0000003285+0000003285+000000000+000000461+0000003740+0000000006+I20000000000+0000003740+Z
116771001116771018-000177     116771006001023797513MUG MINI LOVE ASSTD    0000001000+00000700+00000+0001T   00000700+0000001610          1400 HT2515               1AZ
116771002116771903-000183     116771006003000451043SWT LB HEART LOLLY     0000001000+00000393+00000+0001T   00000393+0000001610          1400 HT2150               1AZ
116771003116771080-000139     116771006003000611690CARD & ENV MINI SET 6PC0000001000+00002192+00000+0001T   00002192+0000001610          1400 HT2112               1AZ
116772000116772               116772               170213EP     1400+00000+EP0000005646+0000005646+000000000+000000791+0000006430+0000000007+I20000000000+0000006430+Z
116772001116772903-000090     116772006009826020821SWT GS CHOCO COINS 60g 0000001000+00002104+00000+0001T   00002104+0000001617          1400 HT2150               1AZ
116772002116772018-005009     116772006001023725608MUG W/PLUSH-BEAR LOVE  0000001000+00003507+00000+0001T   00003507+0000001617          1400 HT2515               1AZ
116772003116772112-116038     116772006009681820246TCS CARRIER BAG MIDI   0000001000+00000035+00000+0001T   00000035+0000001617          1400 HT2090               1AZ
116773000116773               116773               170213EP     1400+00000+EP0000005308+0000005308+000000000+000000745+0000006050+0000000003+I20000000000+0000006050+Z
116773001116773077-000456     116773006003000285549G/BAG METALLIC JMB EMB 0000001000+00002630+00000+0001T   00002630+0000001622          1400 HT2112               1AZ
116773002116773027-001018     116773006003000622702BROOM COVER MICROFIBRE 0000001000+00002630+00000+0001T   00002630+0000001622          1400 HT2212               1AZ
116773003116773112-116069     116773006009681820277TCS CARRIER BAG JUMBO  0000001000+00000048+00000+0001T   00000048+0000001622          1400 HT2090               1AZ
116774000116774               116774               170213EP     1400+00000+EP0000005730+0000005730+000000000+000000805+0000006535+0000000000+I40000006535+0000000000+Z
116774001116774304-001011     116774006001023806727FLWR ROSE RED W/BEAR   0000001000+00000613+00000+0001T   00000788+0006471625          1400 HT2510               1AZ
116774002116774304-001204     116774006001023737984FLOWER OCC. TEDDY/ROSES0000001000+00001402+00000+0001T   00001490+0006471625          1400 HT2510               1AZ
116774003116774903-000155     116774006009803374435SWT LOLLY I LUV U HEART0000002000+00000525+00000+0001T   00000525+0000001625          1400 HT2150               1AZ
116774004116774034-000830     116774006001023480750BABY-BOTTLE 250ml      0000001000+00002630+00000+0001T   00002630+0000001625          1400 HT2215               1AZ
116774005116774112-116038     116774006009681820246TCS CARRIER BAG MIDI   0000001000+00000035+00000+0001T   00000035+0000001625          1400 HT2090               1AZ
116775000116775               116775               170213EP     1400+00000+EP0000002279+0000002279+000000000+000000320+0000002590+0000000009+I20000000000+0000002590+Z
116775001116775027-001020     116775006001246602519BROOM FLOOR W/HANDLE   0000001000+00002279+00000+0001T   00002279+0000001627          1400 HT2212               1AZ
116776000116776               116776               170213EP     1400+00000+EP0000000437+0000000437+000000000+000000062+0000000490+0000000009+I20000000000+0000000490+Z
116776001116776080-000133     116776006003000535613CARD&ENV MINI ASTD DSGN0000001000+00000437+00000+0001T   00000437+0000001628          1400 HT2112               1AZ
116777000116777               116777               170213EP     1400+00000+EP0000006488+0000006488+000000000+000000909+0000007390+0000000007+I20000000000+0000007390+Z
116777001116777077-000299     116777006003000395576G/BAG 32x25cm LRG LOVE 0000001000+00001490+00000+0001T   00001490+0000001629          1400 HT2112               1AZ
116777002116777368-000001     116777006003000097982Plush Bear 25cm        0000001000+00004385+00000+0001T   00004385+0000001629          1400 HT2745               1AZ
116777003116777304-001011     116777006001023806727FLWR ROSE RED W/BEAR   0000001000+00000613+00000+0001T   00000788+0006471629          1400 HT2510               1AZ
116778000116778               116778               170213EP     1400+00000+EP0000000437+0000000437+000000000+000000062+0000000490+0000000009+I20000000000+0000000490+Z
116778001116778080-000133     116778006003000535613CARD&ENV MINI ASTD DSGN0000001000+00000437+00000+0001T   00000437+0000001632          1400 HT2112               1AZ
116779000116779               116779               170213EP     1400+00000+EP0000011399+0000011399+000000000+000001597+0000012996+0000000000+I40000012996+0000000000+Z
116779001116779301-085003     116779006003000420827ORN OCCASION LOVE KEY  0000001000+00005262+00000+0001T   00005262+0000001635          1400 HT2505               1AZ
116779002116779031-000860-A   116779006001023798176P/FRAME PL ANTIQUE-BLK 0000001000+00003507+00000+0001T   00003507+0000001635          1400 HT2510               1AZ
116779003116779007-000601     116779006003000541195BOOK COVER ADHESIVE 2M 0000001000+00002630+00000+0001T   00002630+0000001635          1400 HT2130               1AZ
116780000116780               116780               170213EP     1400+00000+EP0000002278+0000002278+000000000+000000320+0000002590+0000000008+I20000000000+0000002590+Z
116780001116780077-000240     116780006003000326259G/RIBBON 4PC PEARLIZED 0000001000+00001753+00000+0001T   00001753+0000001635          1400 HT2112               1AZ
116780002116780903-000155     116780006009803374435SWT LOLLY I LUV U HEART0000001000+00000525+00000+0001T   00000525+0000001635          1400 HT2150               1AZ
116781000116781               116781               170213EP     1400+00000+EP0000002240+0000002240+000000000+000000314+0000002550+0000000004+I20000000000+0000002550+Z
116781001116781080-000127     116781006003000424351VALENTINES DAY 36x24CM 0000001000+00002192+00000+0001T   00002192+0000001636          1400 HT2112               1AZ
116781002116781112-116069     116781006009681820277TCS CARRIER BAG JUMBO  0000001000+00000048+00000+0001T   00000048+0000001636          1400 HT2090               1AZ
116782000116782               116782               170213EP     1400+00000+EP0000005260+0000005260+000000000+000000738+0000005990+0000000008+I20000000000+0000005990+Z
116782001116782306-000993     116782006003000560110FIRSTAID PLASTER 75PC  0000001000+00002630+00000+0001T   00002630+0000001638          1400 HT2200               1AZ
116782002116782306-001001     116782006003000519804FIRSTAID PLASTER FABRIC0000001000+00002630+00000+0001T   00002630+0000001638          1400 HT2200               1AZ
116783000116783               116783               170213EP     1400+00000+EP0000001753+0000001753+000000000+000000246+0000001990+0000000009+I20000000000+0000001990+Z
116783001116783077-000381     116783006003000247707GIFT-BAG 25X32CM S/COL 0000001000+00001753+00000+0001T   00001753+0000001638          1400 HT2112               1AZ
116784000116784               116784               170213EP     1400+00000+EP0000001050+0000001050+000000000+000000148+0000001190+0000000008+I20000000000+0000001190+Z
116784001116784903-000155     116784006009803374435SWT LOLLY I LUV U HEART0000002000+00000525+00000+0001T   00000525+0000001641          1400 HT2150               1AZ
116785000116785               116785               170213EP     1400+00000+EP0000000876+0000000876+000000000+000000123+0000000990+0000000009+I20000000000+0000000990+Z
116785001116785903-000295     116785006001704002899SWT MS FRUITY RASCALS  0000001000+00000876+00000+0001T   00000876+0000001642          1400 HT2150               1AZ
116786000116786               116786               170213EP     1400+00000+EP0000000035+0000000035+000000000+000000005+0000000040+0000000000+I20000000000+0000000040+Z
116786001116786112-116038     116786006009681820246TCS CARRIER BAG MIDI   0000001000+00000035+00000+0001T   00000035+0000001642          1400 HT2090               1AZ
116787000116787               116787               170213EP     1400+00000+EP0000000393+0000000393+000000000+000000056+0000000440+0000000009+I20000000000+0000000440+Z
116787001116787903-000183     116787006003000451043SWT LB HEART LOLLY     0000001000+00000393+00000+0001T   00000393+0000001646          1400 HT2150               1AZ
116788000116788               116788               170213EP     1400+00000+EP0000007225+0000007225+000000000+000001017+0000008240+0000000002+I20000000000+0000008240+Z
116788001116788077-000316     116788006001023609731GIFT-BAG 25X32CM MATT  0000001000+00001753+00000+0001T   00001753+0000001649          1400 HT2112               1AZ
116788002116788007-000713     116788006003000227273NOTE-BK DIARY W/LOCK   0000001000+00003507+00000+0001T   00003507+0000001649          1400 HT2130               1AZ
116788003116788903-000183     116788006003000451043SWT LB HEART LOLLY     0000005000+00000393+00000+0001T   00000393+0000001649          1400 HT2150               1AZ
116789000116789               116789               170213EP     1400+00000+EP0000001753+0000001753+000000000+000000246+0000001990+0000000009+I20000000000+0000001990+Z
116789001116789158-000005     116789006001023594839CELLPHONE STAND 10.5cm 0000001000+00001753+00000+0001T   00002630+0008171650          1400 HT2300               1AZ
116790000116790               116790               170213EP     1400+00000+EP0000007717+0000007717+000000000+000001081+0000008790+0000000008+I20000000000+0000008790+Z
116790001116790368-000265     116790006001023750914PLUSH BEAR 23CM ASSTD C0000001000+00006139+00000+0001T   00006139+0000001653          1400 HT2745               1AZ
116790002116790077-000303     116790006001023593757GIFT-BAG PAPER MED     0000001000+00001578+00000+0001T   00001578+0000001653          1400 HT2112               1AZ
116791000116791               116791               170213EP     1400+00000+EP0000000786+0000000786+000000000+000000112+0000000890+0000000008+I20000000000+0000000890+Z
116791001116791903-000183     116791006003000451043SWT LB HEART LOLLY     0000002000+00000393+00000+0001T   00000393+0000001656          1400 HT2150               1AZ
116792000116792               116792               170213EP     1400+00000+EP0000003504+0000003504+000000000+000000492+0000003990+0000000006+I20000000000+0000003990+Z
116792001116792077-000151     116792006008766114676GIFT-WRAP C/PHANE ASSTD0000004000+00000876+00000+0001T   00000876+0000001658          1400 HT2112               1AZ
116793000116793               116793               170213EP     1400+00000+EP0000002936+0000002936+000000000+000000412+0000003340+0000000008+I20000000000+0000003340+Z
116793001116793079-009700-D   116793006003000545711PAPER SIRIO A4 RED COL.0000001000+00000306+00000+0001T   00000306+0000001659          1400 HT2130               1AZ
116793002116793079-013032-H   116793006003000496501GLITTER PRINCESS ACC   0000001000+00002630+00000+0001T   00002630+0000001659          1400 HT2130               1AZ
116794000116794               116794               170213EP     1400+00000+EP0000000876+0000000876+000000000+000000123+0000000990+0000000009+I20000000000+0000000990+Z
116794001116794903-000481     116794006001704007481SWT MOO MILK-SHAKES 60G0000001000+00000876+00000+0001T   00000876+0000001701          1400 HT2150               1AZ
116795000116795               116795               170213EP     1400+00000+EP0000005297+0000005297+000000000+000000742+0000006030+0000000009+I20000000000+0000006030+Z
116795001116795018-019000     116795006003000557288MUG OCC. LOVE JUMBO    0000001000+00005262+00000+0001T   00005262+0000001703          1400 HT2515               1AZ
116795002116795112-116038     116795006009681820246TCS CARRIER BAG MIDI   0000001000+00000035+00000+0001T   00000035+0000001703          1400 HT2090               1AZ
116796000116796               116796               170213EP     1400+00000+EP0000001753+0000001753+000000000+000000246+0000001990+0000000009+I20000000000+0000001990+Z
116796001116796077-000240     116796006003000326259G/RIBBON 4PC PEARLIZED 0000001000+00001753+00000+0001T   00001753+0000001704          1400 HT2112               1AZ
116797000116797               116797               170213EP     1400+00000+EP0000007927+0000007927+000000000+000001110+0000009030+0000000007+I20000000000+0000009030+Z
116797001116797018-005009     116797006001023725608MUG W/PLUSH-BEAR LOVE  0000001000+00003507+00000+0001T   00003507+0000001707          1400 HT2515               1AZ
116797002116797368-000001     116797006003000097982Plush Bear 25cm        0000001000+00004385+00000+0001T   00004385+0000001707          1400 HT2745               1AZ
116797003116797112-116038     116797006009681820246TCS CARRIER BAG MIDI   0000001000+00000035+00000+0001T   00000035+0000001707          1400 HT2090               1AZ
116798000116798               116798               170213EP     1400+00000+EP0000003507+0000003507+000000000+000000491+0000003990+0000000008+I20000000000+0000003990+Z
116798001116798018-005009     116798006001023725608MUG W/PLUSH-BEAR LOVE  0000001000+00003507+00000+0001T   00003507+0000001708          1400 HT2515               1AZ
116799000116799               116799               170213EP     1400+00000+EP0000035128+0000035128+000000000+000004921+0000040040+0000000009+I20000000000+0000040040+Z
116799001116799018-019000     116799006003000557288MUG OCC. LOVE JUMBO    0000002000+00005262+00000+0001T   00005262+0000001710          1400 HT2515               1AZ
116799002116799077-000454     116799006003000285266G/BAG METALLIC LRG EMB 0000001000+00001753+00000+0001T   00001753+0000001710          1400 HT2112               1AZ
116799003116799077-000316     116799006001023609731GIFT-BAG 25X32CM MATT  0000001000+00001753+00000+0001T   00001753+0000001710          1400 HT2112               1AZ
116799004116799368-000111     116799006001023780812PLUSH BEAR/DOG 29CM    0000001000+00012279+00000+0001T   00012279+0000001710          1400 HT2745               1AZ
116799005116799368-000614     116799006001023705808PLUSH LOVE 30cm        0000001000+00008771+00000+0001T   00008771+0000001710          1400 HT2745               1AZ
116799006116799112-116069     116799006009681820277TCS CARRIER BAG JUMBO  0000001000+00000048+00000+0001T   00000048+0000001710          1400 HT2090               1AZ
116800000116800               116800               170213EP     1400+00000+EP0000009681+0000009681+000000000+000001356+0000011037+0000000000+I40000011037+0000000000+Z
116800001116800368-000265     116800006001023750914PLUSH BEAR 23CM ASSTD C0000001000+00006139+00000+0001T   00006139+0000001718          1400 HT2745               1AZ
116800002116800018-005009     116800006001023725608MUG W/PLUSH-BEAR LOVE  0000001000+00003507+00000+0001T   00003507+0000001718          1400 HT2515               1AZ
116800003116800112-116038     116800006009681820246TCS CARRIER BAG MIDI   0000001000+00000035+00000+0001T   00000035+0000001718          1400 HT2090               1AZ
116801000116801               116801               170213EP     1400+00000+EP0000011400+0000011400+000000000+000001597+0000012990+0000000007+I20000000000+0000012990+Z
116801001116801001-091415     116801006003000329113W/GLS OCC. LOVE 2PC 2800000001000+00008771+00000+0001T   00009648+0006471720          1400 HT2515               1AZ
116801002116801077-000289     116801006001023901996GIFT BOX 20x25x11cm    0000001000+00001753+00000+0001T   00001753+0000001720          1400 HT2112               1AZ
116801003116801077-000302     116801008010410010195GIFT-BAG 18X23CM E/D   0000001000+00000876+00000+0001T   00000876+0000001720          1400 HT2112               1AZ
116802000116802               116802               170213EP     1400+00000+EP0000001139+0000001139+000000000+000000160+0000001290+0000000009+I20000000000+0000001290+Z
116802001116802046-000014     116802006001023725387BATTERIES SIZE:AAA 4PCE0000001000+00001139+00000+0001T   00001139+0000001721          1400 HT2312               1AZ
116803000116803               116803               170213EP     1400+00000+EP0000015787+0000015787+000000000+000002211+0000017998+0000000000+I40000017998+0000000000+Z
116803001116803368-000637     116803006001023874092PLUSH BEAR SLEEPING LOV0000001000+00011402+00000+0001T   00012279+0006471723          1400 HT2745               1AZ
116803002116803077-000466     116803006003000681693GIFT-BAG MTLC GLIT JMB 0000001000+00004385+00000+0001T   00004385+0000001723          1400 HT2112               1AZ
116804000116804               116804               170213EP     1400+00000+EP0000004385+0000004385+000000000+000000614+0000004990+0000000009+I20000000000+0000004990+Z
116804001116804001-000175     116804006001023788108B/MUG GLS LOVE 380ML   0000001000+00004385+00000+0001T   00004385+0000001723          1400 HT2515               1AZ
116805000116805               116805               170213EP     1400+00000+EP0000000428+0000000428+000000000+000000061+0000000480+0000000009+I20000000000+0000000480+Z
116805001116805903-000183     116805006003000451043SWT LB HEART LOLLY     0000001000+00000393+00000+0001T   00000393+0000001729          1400 HT2150               1AZ
116805002116805112-116038     116805006009681820246TCS CARRIER BAG MIDI   0000001000+00000035+00000+0001T   00000035+0000001729          1400 HT2090               1AZ
116806000116806               116806               170213EP     1400+00000+EP0000005120+0000005120+000000000+000000717+0000005837+0000000000+I40000005837+0000000000+Z
116806001116806018-000177     116806006001023797513MUG MINI LOVE ASSTD    0000001000+00000700+00000+0001T   00000700+0000001733          1400 HT2515               1AZ
116806002116806001-000175     116806006001023788108B/MUG GLS LOVE 380ML   0000001000+00004385+00000+0001T   00004385+0000001733          1400 HT2515               1AZ
116806003116806112-116038     116806006009681820246TCS CARRIER BAG MIDI   0000001000+00000035+00000+0001T   00000035+0000001733          1400 HT2090               1AZ
116807000116807               116807               170213EP     1400+00000+EP0000000437+0000000437+000000000+000000062+0000000490+0000000009+I20000000000+0000000490+Z
116807001116807080-000133     116807006003000535613CARD&ENV MINI ASTD DSGN0000001000+00000437+00000+0001T   00000437+0000001734          1400 HT2112               1AZ
116808000116808               116808               170213EP     1400+00000+EP0000006139+0000006139+000000000+000000860+0000006990+0000000009+I20000000000+0000006990+Z
116808001116808017-000221     116808006003000238019P/ALBUM ADHESIVE 20PG  0000001000+00006139+00000+0001T   00006139+0000001735          1400 HT2510               1AZ
116809000116809               116809               170213EP     1400+00000+EP0000003011+0000003011+000000000+000000425+0000003436+0000000000+I40000003436+0000000000+Z
116809001116809080-000133     116809006003000535613CARD&ENV MINI ASTD DSGN0000001000+00000437+00000+0001T   00000437+0000001737          1400 HT2112               1AZ
116809002116809903-000183     116809006003000451043SWT LB HEART LOLLY     0000002000+00000393+00000+0001T   00000393+0000001737          1400 HT2150               1AZ
116809003116809079-006500     116809006001023557186GLUE GLITTER 6/10 PCE  0000001000+00001753+00000+0001T   00001753+0000001737          1400 HT2130               1AZ
116809004116809112-116038     116809006009681820246TCS CARRIER BAG MIDI   0000001000+00000035+00000+0001T   00000035+0000001737          1400 HT2090               1AZ
116810000116810               116810               170213EP     1400+00000+EP0000015657+0000015657+000000000+000002194+0000017850+0000000001+I20000000000+0000017850+Z
116810001116810304-001204     116810006001023737984FLOWER OCC. TEDDY/ROSES0000001000+00001402+00000+0001T   00001490+0006471738          1400 HT2510               1AZ
116810002116810077-000299     116810006003000395576G/BAG 32x25cm LRG LOVE 0000001000+00001490+00000+0001T   00001490+0000001738          1400 HT2112               1AZ
116810003116810368-000005     116810006003000616862PLUSH MONSTER 24cm     0000001000+00010525+00000+0001T   00010525+0000001738          1400 HT2745               1AZ
116810004116810080-000127     116810006003000424351VALENTINES DAY 36x24CM 0000001000+00002192+00000+0001T   00002192+0000001738          1400 HT2112               1AZ
116810005116810112-116069     116810006009681820277TCS CARRIER BAG JUMBO  0000001000+00000048+00000+0001T   00000048+0000001738          1400 HT2090               1AZ
116811000116811               116811               170213EP     1400+00000+EP0000002630+0000002630+000000000+000000369+0000002999+0000000000+I40000002999+0000000000+Z
116811001116811077-000270     116811006003000395453GIFT-BAG PPR JMB 33X45 0000001000+00002630+00000+0001T   00002630+0000001740          1400 HT2112               1AZ
116812000116812               116812               170213EP     1400+00000+EP0000011185+0000011185+000000000+000001567+0000012750+0000000002+I20000000000+0000012750+Z
116812001116812206-000180     116812006003000631223TEA INFUSER TEAMAN     0000001000+00004385+00000+0001T   00004385+0000001741          1400 HT2321               1AZ
116812002116812301-085003     116812006003000420827ORN OCCASION LOVE KEY  0000001000+00005262+00000+0001T   00005262+0000001741          1400 HT2505               1AZ
116812003116812077-000299     116812006003000395576G/BAG 32x25cm LRG LOVE 0000001000+00001490+00000+0001T   00001490+0000001741          1400 HT2112               1AZ
116812004116812112-116069     116812006009681820277TCS CARRIER BAG JUMBO  0000001000+00000048+00000+0001T   00000048+0000001741          1400 HT2090               1AZ
116813000116813               116813               170213EP     1400+00000+EP0000004385+0000004385+000000000+000000614+0000004999+0000000000+I40000004999+0000000000+Z
116813001116813030-000031-A   116813006003000457588PLAQUE W/WORDS ASSTD   0000001000+00004385+00000+0001T   00004823+0006471744          1400 HT2505               1AZ
116814000116814               116814               170213EP     1400+00000+EP0000003594+0000003594+000000000+000000504+0000004090+0000000008+I20000000000+0000004090+Z
116814001116814077-000926     116814006003000414178G/WRAP 700mmx2m LOVE   0000001000+00002192+00000+0001T   00002192+0000001747          1400 HT2112               1AZ
116814002116814304-001204     116814006001023737984FLOWER OCC. TEDDY/ROSES0000001000+00001402+00000+0001T   00001490+0006471747          1400 HT2510               1AZ
116815000116815               116815               170213EP     1400+00000+EP0000005612+0000005612+000000000+000000786+0000006390+0000000008+I20000000000+0000006390+Z
116815001116815082-000120     116815006003000360727READING GLS STRENGTH:3 0000001000+00004385+00000+0001T   00004385+0000001748          1400 HT2160               1AZ
116815002116815206-000630     116815006003000631919SPECTACLE CLEANING BRUS0000001000+00001227+00000+0001T   00001227+0000001748          1400 HT2321               1AZ
B11675800                                          170213EP112-116069     15330492SLAVE 1     HT22IC0000002000+0000001000+0000000000000+
C11677500                                          170213EP304-001011     16265979SLAVE 1     HT21IC0000000000+0000000000+0010000001000+
C11681400                                          170213EP077-000299     17465659SLAVE 1     HT22IC0000000000+0000000000+0010000001000+
M17021301                              IT          EPATT IT                                                                                          LAST TILL SLIP NO IS 116815                                                                     THANK YOU                                       GONUBIE EP
M17021391                              CASH        EPSLAVE 1                       Z-REPORT No.   590TOTAL (Sales - Refunds)           9165.30       CASH TO BE BANKED                 5566.80       DEBIT CARDS                          0.00       CREDIT CARDS                      3598.50       Z-READING                         9165.30       AIRTIME DEBIT CARD SALES             0.00       AIRTIME CARD SALES                   0.00       OVERS/UNDERS                         0.00       AIRTIME CASH SALES                   0.00       GIFT CARDS                           0.00       GIFT CARD CASH SALES                 0.00       T O T A L  CASH PAYOUTS              0.00                                                                                                                                                                                                                                                                                                                                                      Z
M17021392                              CASH        EPABSENT                                                                                                                                                                                          ANNUAL LEAVE                                                                                                                                                                                    DAY OFF                                                                                                                                                                                         COMMENTS                                                                                                                                                                                                                                                                                                                                                                                       Z
Y17021300                                          EP00000000804442+000131
ZEP17021319353 SLAVE 1      SALES DATA                     NEXT INVOICE NO.  116816 0590
X EP Slave 1 First invoice 116685 170213 Last invoice 116815 170213 Next invoice 116816 Total number of records 000000445 clbackup completed 19:35:16
