126002000126002               126002               170213EP     1400+00000+EP0000001227+0000001227+000000000+000000172+0000001399+0000000000+I40000001399+0000000000+Z
126002001126002071-081091     126002006001151010287STAED/GENKEM ALL-STICK 0000001000+00001227+00000+0001T   00001227+0000001113          1400 KU1130               2AZ
126003000126003               126003               170213EP     1400+00000+EP0000003506+0000003506+000000000+000000492+0000003990+0000000008+I20000000000+0000003990+Z
126003001126003077-000354     126003006003000139224GIFT-BAG 25X32CM H/MADE0000001000+00001753+00000+0001T   00001753+0000001153          1400 JY9112               2AZ
126003002126003903-000215     126003006002099001214SWT GS MALLOW TWIST PAC0000001000+00001753+00000+0001T   00001753+0000001153          1400 JY9150               2AZ
126004000126004               126004               170213EP     1400+00000+EP0000008768+0000008768+000000000+000001229+0000009990+0000000007+I20000000000+0000009990+Z
126004001126004072-000012     126004006001023602510PET DOG/CAT BRUSH 23cm 0000001000+00003069+00000+0001T   00003069+0000001220          1400 JY9870               2AZ
126004002126004036-000013     126004006001246500860LINT REMOVER REFILLS   0000001000+00003946+00000+0001T   00003946+0000001220          1400 JY9212               2AZ
126004003126004206-000360     126004006003000631193CITRUS SPRAYER 3PC     0000001000+00001753+00000+0001T   00001753+0000001220          1400 JY9321               2AZ
126005000126005               126005               170213EP     1400+00000+EP0000004420+0000004420+000000000+000000619+0000005039+0000000000+I40000005039+0000000000+Z
126005001126005368-000049     126005006003000536955PLUSH BEAR 15cm LOVE   0000001000+00004385+00000+0001T   00004385+0000001231          1400 KU1745               2AZ
126005002126005112-116038     126005006009681820246TCS CARRIER BAG MIDI   0000001000+00000035+00000+0001T   00000035+0000001231          1400 KU1090               2AZ
126006000126006               126006               170213EP     1400+00000+EP0000001578+0000001578+000000000+000000221+0000001790+0000000009+I20000000000+0000001790+Z
126006001126006018-000127     126006006001023380289MUG OCC STRAIGHT LOVE  0000001000+00001578+00000+0001T   00001753+0006471254          1400 NY1515               2AZ
126007000126007               126007               170213EP     1400+00000+EP0000003243+0000003243+000000000+000000455+0000003698+0000000000+I40000003698+0000000000+Z
126007001126007079-009702-D   126007008427973059354PAPER SIRIO A2 RED COL 0000001000+00001051+00000+0001T   00001051+0000001256          1400 NY1130               2AZ
126007002126007018-000170     126007006001023775528MUG OCC. LOVE 2PC MINI 0000001000+00002192+00000+0001T   00002192+0000001256          1400 NY1515               2AZ
126008000126008               126008               170213EP     1400+00000+EP0000021970+0000021970+000000000+000003078+0000025048+0000000000+I40000025048+0000000000+Z
126008001126008158-008937     126008006003000571642TOILET ROLL HOLDER     0000001000+00004385+00000+0001T   00004385+0000001259          1400 NY1300               2AZ
126008002126008158-008939     126008006003000571765TOILET ROLL HOLDER     0000001000+00001314+00000+0001T   00001753+0008171259          1400 NY1300               2AZ
126008003126008082-098787     126008006001492987873SUNGLASS KIDS FOIL     0000001000+00003946+00000+0001T   00003946+0000001259          1400 NY1160               2AZ
126008004126008366-000125     126008006003000006786DRESSUP WINGS/WAND/BAND0000001000+00005262+00000+0001T   00005262+0000001259          1400 NY1131               2AZ
126008005126008036-005010     126008006002580008739COATHANGER KIDDIES PL  0000001000+00002630+00000+0001T   00002630+0000001259          1400 NY1212               2AZ
126008006126008104-000135     126008006001023846419WASTEBIN SWING-LID 28cm0000001000+00004385+00000+0001T   00004385+0000001259          1400 NY1210               2AZ
126008007126008112-116069     126008006009681820277TCS CARRIER BAG JUMBO  0000001000+00000048+00000+0001T   00000048+0000001259          1400 NY1090               2AZ
126009000126009               126009               170213EP     1400+00000+EP0000001137+0000001137+000000000+000000160+0000001290+0000000007+I20000000000+0000001290+Z
126009001126009018-000177     126009006001023797513MUG MINI LOVE ASSTD    0000001000+00000700+00000+0001T   00000700+0000001303          1400 NY1515               2AZ
126009002126009080-000133     126009006003000535613CARD&ENV MINI ASTD DSGN0000001000+00000437+00000+0001T   00000437+0000001303          1400 NY1112               2AZ
126010000126010               126010               170213EP     1400+00000+EP0000002450+0000002450+000000000+000000344+0000002790+0000000004+I20000000000+0000002790+Z
126010001126010018-000177     126010006001023797513MUG MINI LOVE ASSTD    0000002000+00000700+00000+0001T   00000700+0000001309          1400 NY1515               2AZ
126010002126010903-000155     126010006009803374435SWT LOLLY I LUV U HEART0000002000+00000525+00000+0001T   00000525+0000001309          1400 NY1150               2AZ
126011000126011               126011               170213EP     1400+00000+EP0000000035+0000000035+000000000+000000005+0000000040+0000000000+I20000000000+0000000040+Z
126011001126011112-116038     126011006009681820246TCS CARRIER BAG MIDI   0000001000+00000035+00000+0001T   00000035+0000001310          1400 NY1090               2AZ
126012000126012               126012               170213EP     1400+00000+EP0000026358+0000026358+000000000+000003692+0000030050+0000000000+I40000030050+0000000000+Z
126012001126012112-116069     126012006009681820277TCS CARRIER BAG JUMBO  0000001000+00000048+00000+0001T   00000048+0000001323          1400 NY1090               2AZ
126012002126012140-092001     126012006001023819154MOSQ-NET 900x230x60cm  0000001000+00014034+00000+0001T   00014034+0000001323          1400 NY1830               2AZ
126012003126012051-002402     126012006001023518347TRIGGER-SPRAYER  500ml 0000001000+00001753+00000+0001T   00001753+0000001323          1400 NY1820               2AZ
126012004126012051-002406     126012006003000139415SPRAY PL TRIGGER 700ml 0000001000+00001753+00000+0001T   00001753+0000001323          1400 NY1820               2AZ
126012005126012107-004000     126012006001023889256BASIN PL OBLONG        0000002000+00004385+00000+0001T   00004385+0000001323          1400 NY1210               2AZ
126013000126013               126013               170213EP     1400+00000+EP0000002192+0000002192+000000000+000000307+0000002490+0000000009+I20000000000+0000002490+Z
126013001126013200-000020     126013006925406841030BAG ZIPPERSEAL 25PC    0000001000+00002192+00000+0001T   00002192+0000001330          1400 NY1214               2AZ
126014000126014               126014               170213EP     1400+00000+EP0000006139+0000006139+000000000+000000860+0000006999+0000000000+I40000006999+0000000000+Z
126014001126014368-000175     126014006003000270316PLUSH BEAR 4 ASSTD 18CM0000001000+00006139+00000+0001T   00006139+0000001342          1400 KU1745               2AZ
126015000126015               126015               170213EP     1400+00000+EP0000003418+0000003418+000000000+000000479+0000003890+0000000007+I20000000000+0000003890+Z
126015001126015077-000321     126015006001023677501GIFT-BAG 11X14CM E/D FL0000002000+00000613+00000+0001T   00000613+0000001454          1400 NY1112               2AZ
126015002126015088-000104     126015006001023765444INCENSE SET ASSTD FRAG 0000001000+00002192+00000+0001T   00002192+0000001454          1400 NY1212               2AZ
126016000126016               126016               170213EP     1400+00000+EP0000008769+0000008769+000000000+000001228+0000009990+0000000007+I20000000000+0000009990+Z
126016001126016018-005009     126016006001023725608MUG W/PLUSH-BEAR LOVE  0000001000+00003507+00000+0001T   00003507+0000001508          1400 NY1515               2AZ
126016002126016567-010161     126016009780000008516BOOK TOP ASSTD MILLS   0000001000+00005262+00000+0001T   00005262+0000001508          1400 NY1757               2AZ
126017000126017               126017               170213EP     1400+00000+EP0000009208+0000009208+000000000+000001290+0000010490+0000000008+I20000000000+0000010490+Z
126017001126017006-000190     126017006003000685530BALLOONS LOVE 81x91cm  0000001000+00004385+00000+0001T   00004385+0000001518          1400 NY1131               2AZ
126017002126017301-085001     126017006003000297610ORN WATERBALL LOVE ASST0000001000+00004823+00000+0001T   00004823+0000001518          1400 NY1505               2AZ
126018000126018               126018               170213EP     1400+00000+EP0000009645+0000009645+000000000+000001351+0000010990+0000000006+I20000000000+0000010990+Z
126018001126018077-000316     126018006001023609731GIFT-BAG 25X32CM MATT  0000001000+00001753+00000+0001T   00001753+0000001520          1400 NY1112               2AZ
126018002126018368-000049     126018006003000536955PLUSH BEAR 15cm LOVE   0000001000+00004385+00000+0001T   00004385+0000001520          1400 NY1745               2AZ
126018003126018018-005009     126018006001023725608MUG W/PLUSH-BEAR LOVE  0000001000+00003507+00000+0001T   00003507+0000001520          1400 NY1515               2AZ
126019000126019               126019               170213EP     1400+00000+EP0000041652+0000041652+000000000+000005833+0000047480+0000000005+I20000000000+0000047480+Z
126019001126019018-000127     126019006001023380289MUG OCC STRAIGHT LOVE  0000009000+00001578+00000+0001T   00001753+0006471528          1400 JY9515               2AZ
126019002126019112-116069     126019006009681820277TCS CARRIER BAG JUMBO  0000001000+00000048+00000+0001T   00000048+0000001528          1400 JY9090               2AZ
126019003126019018-000127     126019006001023380289MUG OCC STRAIGHT LOVE  0000004000+00001578+00000+0001T   00001753+0006471528          1400 JY9515               2AZ
126019004126019018-005009     126019006001023725608MUG W/PLUSH-BEAR LOVE  0000005000+00003507+00000+0001T   00003507+0000001528          1400 JY9515               2AZ
126019005126019112-116069     126019006009681820277TCS CARRIER BAG JUMBO  0000001000+00000048+00000+0001T   00000048+0000001528          1400 JY9090               2AZ
126019006126019018-005009     126019006001023725608MUG W/PLUSH-BEAR LOVE  0000001000+00003507+00000+0001T   00003507+0000001528          1400 JY9515               2AZ
126020000126020               126020               170213EP     1400+00000+EP0000006139+0000006139+000000000+000000860+0000006990+0000000009+I20000000000+0000006990+Z
126020001126020368-000175     126020006003000270316PLUSH BEAR 4 ASSTD 18CM0000001000+00006139+00000+0001T   00006139+0000001530          1400 JY9745               2AZ
126021000126021               126021               170213EP     1400+00000+EP0000007049+0000007049+000000000+000000987+0000008036+0000000000+I40000008036+0000000000+Z
126021001126021018-005009     126021006001023725608MUG W/PLUSH-BEAR LOVE  0000002000+00003507+00000+0001T   00003507+0000001532          1400 JY9515               2AZ
126021002126021112-116038     126021006009681820246TCS CARRIER BAG MIDI   0000001000+00000035+00000+0001T   00000035+0000001532          1400 JY9090               2AZ
126022000126022               126022               170213EP     1400+00000+EP0000003507+0000003507+000000000+000000491+0000003998+0000000000+I40000003998+0000000000+Z
126022001126022031-000923     126022006001023669933P/FRAME BLK W/WORDS    0000001000+00003507+00000+0001T   00003507+0000001534          1400 NY1510               2AZ
126023000126023               126023               170213EP     1400+00000+EP0000009555+0000009555+000000000+000001340+0000010890+0000000005+I20000000000+0000010890+Z
126023001126023077-000381     126023006003000247707GIFT-BAG 25X32CM S/COL 0000001000+00001753+00000+0001T   00001753+0000001546          1400 NY1112               2AZ
126023002126023080-000133     126023006003000535613CARD&ENV MINI ASTD DSGN0000001000+00000437+00000+0001T   00000437+0000001546          1400 NY1112               2AZ
126023003126023903-000518     126023006001704012782SWT STRAWS S/BERRY 100g0000001000+00001227+00000+0001T   00001227+0000001546          1400 NY1150               2AZ
126023004126023903-000081     126023006001704014076SWT F/PASTILLES 100G   0000001000+00001753+00000+0001T   00001753+0000001546          1400 NY1150               2AZ
126023005126023368-000001     126023006003000097982Plush Bear 25cm        0000001000+00004385+00000+0001T   00004385+0000001546          1400 NY1745               2AZ
126024000126024               126024               170213EP     1400+00000+EP0000002192+0000002192+000000000+000000307+0000002499+0000000000+I40000002499+0000000000+Z
126024001126024046-000012-A   126024006003000208296BATTERIES H/POWER SZ:AA0000001000+00002192+00000+0001T   00002192+0000001547          1400 NY1312               2AZ
126025000126025               126025               170213EP     1400+00000+EP0000004420+0000004420+000000000+000000619+0000005030+0000000009+I20000000000+0000005030+Z
126025001126025031-000848     126025006001023851901P/FRAME COLLAGE 2ASSTD 0000001000+00004385+00000+0001T   00004385+0000001553          1400 NY1510               2AZ
126025002126025112-116038     126025006009681820246TCS CARRIER BAG MIDI   0000001000+00000035+00000+0001T   00000035+0000001553          1400 NY1090               2AZ
126026000126026               126026               170213EP     1400+00000+EP0000000700+0000000700+000000000+000000098+0000000790+0000000008+I20000000000+0000000790+Z
126026001126026018-000177     126026006001023797513MUG MINI LOVE ASSTD    0000001000+00000700+00000+0001T   00000700+0000001554          1400 NY1515               2AZ
126027000126027               126027               170213EP     1400+00000+EP0000012573+0000012573+000000000+000001761+0000014334+0000000000+I40000014334+0000000000+Z
126027001126027018-005009     126027006001023725608MUG W/PLUSH-BEAR LOVE  0000001000+00003507+00000+0001T   00003507+0000001557          1400 NY1515               2AZ
126027002126027112-116038     126027006009681820246TCS CARRIER BAG MIDI   0000001000+00000035+00000+0001T   00000035+0000001557          1400 NY1090               2AZ
126027003126027088-000103     126027006008766127102INCENSE 20PCE ASSTD    0000001000+00000700+00000+0001T   00000700+0000001557          1400 NY1212               2AZ
126027004126027039-082106     126027006001023847348C/VOTIVE 8PC VANILLA   0000001000+00005262+00000+0001T   00005262+0000001557          1400 NY1510               2AZ
126027005126027040-000200     126027006003000381586C/HLDER CERC INSP. ASST0000001000+00003069+00000+0001T   00003069+0000001557          1400 NY1510               2AZ
126028000126028               126028               170213EP     1400+00000+EP0000004420+0000004420+000000000+000000619+0000005030+0000000009+I20000000000+0000005030+Z
126028001126028368-000049     126028006003000536955PLUSH BEAR 15cm LOVE   0000001000+00004385+00000+0001T   00004385+0000001558          1400 NY1745               2AZ
126028002126028112-116038     126028006009681820246TCS CARRIER BAG MIDI   0000001000+00000035+00000+0001T   00000035+0000001558          1400 NY1090               2AZ
126029000126029               126029               170213EP     1400+00000+EP0000003506+0000003506+000000000+000000492+0000003998+0000000000+I40000003998+0000000000+Z
126029001126029079-013099     126029006003000081875ART+CRAFT EYES ASSTD   0000002000+00001753+00000+0001T   00001753+0000001559          1400 NY1130               2AZ
126030000126030               126030               170213EP     1400+00000+EP0000000437+0000000437+000000000+000000062+0000000499+0000000000+I40000000499+0000000000+Z
126030001126030080-000133     126030006003000535613CARD&ENV MINI ASTD DSGN0000001000+00000437+00000+0001T   00000437+0000001710          1400 JY9112               2AZ
126031000126031               126031               170213EP     1400+00000+EP0000001753+0000001753+000000000+000000246+0000001999+0000000000+I40000001999+0000000000+Z
126031001126031077-000299-A   126031006003000670888GIFT-BAG PAPER JMB LOVE0000001000+00001753+00000+0001T   00001753+0000001711          1400 JY9112               2AZ
126032000126032               126032               170213EP     1400+00000+EP0000015476+0000015476+000000000+000002172+0000017640+0000000008+I20000000000+0000017640+Z
126032001126032039-000026     126032006001023551610C/TAPERED 25CM M/RED   0000002000+00001051+00000+0001T   00001051+0000001724          1400 NY1510               2AZ
126032002126032031-000872-A   126032006001023798718P/FRAME PL BRONZE 10X150000002000+00002630+00000+0001T   00002630+0000001724          1400 NY1510               2AZ
126032003126032077-000299     126032006003000395576G/BAG 32x25cm LRG LOVE 0000001000+00001490+00000+0001T   00001490+0000001724          1400 NY1112               2AZ
126032004126032368-000175     126032006003000270316PLUSH BEAR 4 ASSTD 18CM0000001000+00006139+00000+0001T   00006139+0000001724          1400 NY1745               2AZ
126032005126032112-116069     126032006009681820277TCS CARRIER BAG JUMBO  0000001000+00000048+00000+0001T   00000048+0000001724          1400 NY1090               2AZ
126032006126032080-000133     126032006003000535613CARD&ENV MINI ASTD DSGN0000001000+00000437+00000+0001T   00000437+0000001724          1400 NY1112               2AZ
126033000126033               126033               170213EP     1400+00000+EP0000006446+0000006446+000000000+000000904+0000007350+0000000000+I20000000000+0000007350+Z
126033001126033903-000081     126033006001704014076SWT F/PASTILLES 100G   0000001000+00001753+00000+0001T   00001753+0000001735          1400 JY9150               2AZ
126033002126033903-000082     126033006001704014892SWT MINI WINE GUMS 100G0000001000+00001753+00000+0001T   00001753+0000001735          1400 JY9150               2AZ
126033003126033077-000926     126033006003000414178G/WRAP 700mmx2m LOVE   0000001000+00002192+00000+0001T   00002192+0000001735          1400 JY9112               2AZ
126033004126033018-000177     126033006001023797513MUG MINI LOVE ASSTD    0000001000+00000700+00000+0001T   00000700+0000001735          1400 JY9515               2AZ
126033005126033112-116069     126033006009681820277TCS CARRIER BAG JUMBO  0000001000+00000048+00000+0001T   00000048+0000001735          1400 JY9090               2AZ
126034000126034               126034               170213EP     1400+00000+EP0000003241+0000003241+000000000+000000455+0000003696+0000000000+I40000003696+0000000000+Z
126034001126034077-000010-C   126034006001023123879CREPE-PAPER RED        0000001000+00000788+00000+0001T   00000788+0000001736          1400 JY9112               2AZ
126034002126034077-000011-X   126034006001023809827TISSUE-WRAP SILVER 10PC0000001000+00001753+00000+0001T   00001753+0000001736          1400 JY9112               2AZ
126034003126034018-000177     126034006001023797513MUG MINI LOVE ASSTD    0000001000+00000700+00000+0001T   00000700+0000001736          1400 JY9515               2AZ
126035000126035               126035               170213EP     1400+00000+EP0000006432+0000006432+000000000+000000907+0000007339+0000000000+I40000007339+0000000000+Z
126035001126035304-001011     126035006001023806727FLWR ROSE RED W/BEAR   0000002000+00000613+00000+0001T   00000788+0006471739          1400 JY9510               2AZ
126035002126035903-000183     126035006003000451043SWT LB HEART LOLLY     0000006000+00000393+00000+0001T   00000393+0000001739          1400 JY9150               2AZ
126035003126035018-000177     126035006001023797513MUG MINI LOVE ASSTD    0000003000+00000700+00000+0001T   00000700+0000001739          1400 JY9515               2AZ
126035004126035903-000126     126035006002099003591SWT ZILLIONS MINT 50G  0000001000+00000700+00000+0001T   00000700+0000001739          1400 JY9150               2AZ
126035005126035112-116069     126035006009681820277TCS CARRIER BAG JUMBO  0000001000+00000048+00000+0001T   00000048+0000001739          1400 JY9090               2AZ
126036000126036               126036               170213EP     1400+00000+EP0000005045+0000005045+000000000+000000707+0000005750+0000000002+I20000000000+0000005750+Z
126036001126036018-005009     126036006001023725608MUG W/PLUSH-BEAR LOVE  0000001000+00003507+00000+0001T   00003507+0000001739          1400 JY9515               2AZ
126036002126036077-000299     126036006003000395576G/BAG 32x25cm LRG LOVE 0000001000+00001490+00000+0001T   00001490+0000001739          1400 JY9112               2AZ
126036003126036112-116069     126036006009681820277TCS CARRIER BAG JUMBO  0000001000+00000048+00000+0001T   00000048+0000001739          1400 JY9090               2AZ
126037000126037               126037               170213EP     1400+00000+EP0000003507+0000003507+000000000+000000491+0000003990+0000000008+I20000000000+0000003990+Z
126037001126037162-093281     126037006001492932811#TAG STATEMENT STUDS   0000001000+00003507+00000+0001T   00003507+0000001740          1400 JY9160               2AZ
126038000126038               126038               170213EP     1400+00000+EP0000000393+0000000393+000000000+000000056+0000000440+0000000009+I20000000000+0000000440+Z
126038001126038903-000183     126038006003000451043SWT LB HEART LOLLY     0000001000+00000393+00000+0001T   00000393+0000001741          1400 JY9150               2AZ
126039000126039               126039               170213EP     1400+00000+EP0000003594+0000003594+000000000+000000504+0000004090+0000000008+I20000000000+0000004090+Z
126039001126039077-000299     126039006003000395576G/BAG 32x25cm LRG LOVE 0000001000+00001490+00000+0001T   00001490+0000001744          1400 NY1112               2AZ
126039002126039903-000095     126039006001704011495SWT SPECKLED-EGGS 100G 0000001000+00002104+00000+0001T   00002104+0000001744          1400 NY1150               2AZ
126040000126040               126040               170213EP     1400+00000+EP0000001753+0000001753+000000000+000000246+0000001990+0000000009+I20000000000+0000001990+Z
126040001126040077-000382     126040006003000247820GIFT-BAG MED 18X23CM   0000001000+00001753+00000+0001T   00001753+0000001745          1400 NY1112               2AZ
126041000126041               126041               170213EP     1400+00000+EP0000005215+0000005215+000000000+000000732+0000005940+0000000007+I20000000000+0000005940+Z
126041001126041018-000129     126041006001023403353MUG OCC. LOVE V-SHAPE  0000001000+00002630+00000+0001T   00002630+0000001749          1400 NY1515               2AZ
126041002126041080-000127     126041006003000424351VALENTINES DAY 36x24CM 0000001000+00002192+00000+0001T   00002192+0000001749          1400 NY1112               2AZ
126041003126041903-000183     126041006003000451043SWT LB HEART LOLLY     0000001000+00000393+00000+0001T   00000393+0000001749          1400 NY1150               2AZ
126042000126042               126042               170213EP     1400+00000+EP0000000612+0000000612+000000000+000000086+0000000690+0000000008+I20000000000+0000000690+Z
126042001126042007-000234     126042006009685850638LABELS 24PK            0000002000+00000306+00000+0001T   00000306+0000001749          1400 NY1130               2AZ
126043000126043               126043               170213EP     1400+00000+EP0000000876+0000000876+000000000+000000123+0000000990+0000000009+I20000000000+0000000990+Z
126043001126043077-000302     126043008010410010195GIFT-BAG 18X23CM E/D   0000001000+00000876+00000+0001T   00000876+0000001750          1400 NY1112               2AZ
126044000126044               126044               170213EP     1400+00000+EP0000015688+0000015688+000000000+000002199+0000017887+0000000000+I40000017887+0000000000+Z
126044001126044306-000027     126044006009654960900COTTON WOOL PADS 2-PACK0000001000+00003507+00000+0001T   00003507+0000001752          1400 NY1200               2AZ
126044002126044080-000139     126044006003000611690CARD & ENV MINI SET 6PC0000001000+00002192+00000+0001T   00002192+0000001752          1400 NY1112               2AZ
126044003126044077-000303     126044006001023593757GIFT-BAG PAPER MED     0000001000+00001578+00000+0001T   00001578+0000001752          1400 NY1112               2AZ
126044004126044024-091103-C   126044006003000596546CAKE BOX 2PC HLDS-6-C/C0000002000+00001314+00000+0001T   00001753+0008121752          1400 NY1300               2AZ
126044005126044077-000452     126044006003000284986G/BAG METALLIC MED EMB 0000001000+00001490+00000+0001T   00001490+0000001752          1400 NY1112               2AZ
126044006126044018-005009     126044006001023725608MUG W/PLUSH-BEAR LOVE  0000001000+00003507+00000+0001T   00003507+0000001752          1400 NY1515               2AZ
126044007126044903-000183     126044006003000451043SWT LB HEART LOLLY     0000002000+00000393+00000+0001T   00000393+0000001752          1400 NY1150               2AZ
126045000126045               126045               170213EP     1400+00000+EP0000001402+0000001402+000000000+000000197+0000001590+0000000009+I20000000000+0000001590+Z
126045001126045304-001204     126045006001023737984FLOWER OCC. TEDDY/ROSES0000001000+00001402+00000+0001T   00001490+0006471752          1400 NY1510               2AZ
126046000126046               126046               170213EP     1400+00000+EP0000004645+0000004645+000000000+000000652+0000005290+0000000007+I20000000000+0000005290+Z
126046001126046080-000113     126046006003000237449CARD&ENVLPE - LOVE     0000001000+00001753+00000+0001T   00001753+0000001754          1400 NY1112               2AZ
126046002126046046-002013-PK6 126046004897006174851BATTERY BUTTON AG13 6PC0000001000+00001753+00000+0001T   00001753+0000001754          1400 NY1312               2AZ
126046003126046903-000087     126046006001704000161SWT SPECKLED-EGGS 50G  0000001000+00001139+00000+0001T   00001139+0000001754          1400 NY1150               2AZ
126047000126047               126047               170213EP     1400+00000+EP0000001753+0000001753+000000000+000000246+0000001990+0000000009+I20000000000+0000001990+Z
126047001126047002-000883     126047006001023770394CAN-OPENER             0000001000+00001753+00000+0001T   00001753+0000001755          1400 NY1300               2AZ
126048000126048               126048               170213EP     1400+00000+EP0000011450+0000011450+000000000+000001604+0000013050+0000000004+I20000000000+0000013050+Z
126048001126048368-000637     126048006001023874092PLUSH BEAR SLEEPING LOV0000001000+00011402+00000+0001T   00012279+0006471756          1400 NY1745               2AZ
126048002126048112-116069     126048006009681820277TCS CARRIER BAG JUMBO  0000001000+00000048+00000+0001T   00000048+0000001756          1400 NY1090               2AZ
126049000126049               126049               170213EP     1400+00000+EP0000003507+0000003507+000000000+000000491+0000003998+0000000000+I40000003998+0000000000+Z
126049001126049018-000130     126049006001023867537MUG OCC LOVE MINI+HEART0000001000+00003507+00000+0001T   00003507+0000001757          1400 NY1515               2AZ
126050000126050               126050               170213EP     1400+00000+EP0000004385+0000004385+000000000+000000614+0000004990+0000000009+I20000000000+0000004990+Z
126050001126050031-080508     126050006001023802415P/FRAME PL 22X11CM LOVE0000001000+00004385+00000+0001T   00004385+0000001757          1400 NY1510               2AZ
126051000126051               126051               170213EP     1400+00000+EP0000004957+0000004957+000000000+000000695+0000005652+0000000000+I40000005652+0000000000+Z
126051001126051304-001204     126051006001023737984FLOWER OCC. TEDDY/ROSES0000001000+00001402+00000+0001T   00001490+0006471759          1400 NY1510               2AZ
126051002126051018-005009     126051006001023725608MUG W/PLUSH-BEAR LOVE  0000001000+00003507+00000+0001T   00003507+0000001759          1400 NY1515               2AZ
126051003126051112-116069     126051006009681820277TCS CARRIER BAG JUMBO  0000001000+00000048+00000+0001T   00000048+0000001759          1400 NY1090               2AZ
126052000126052               126052               170213EP     1400+00000+EP0000005611+0000005611+000000000+000000786+0000006397+0000000000+I40000006397+0000000000+Z
126052001126052903-000095     126052006001704011495SWT SPECKLED-EGGS 100G 0000001000+00002104+00000+0001T   00002104+0000001800          1400 NY1150               2AZ
126052002126052018-005009     126052006001023725608MUG W/PLUSH-BEAR LOVE  0000001000+00003507+00000+0001T   00003507+0000001800          1400 NY1515               2AZ
126053000126053               126053               170213EP     1400+00000+EP0000001490+0000001490+000000000+000000209+0000001690+0000000009+I20000000000+0000001690+Z
126053001126053077-000299     126053006003000395576G/BAG 32x25cm LRG LOVE 0000001000+00001490+00000+0001T   00001490+0000001800          1400 NY1112               2AZ
126054000126054               126054               170213EP     1400+00000+EP0000001314+0000001314+000000000+000000184+0000001490+0000000008+I20000000000+0000001490+Z
126054001126054107-004105     126054006009703860984BUCKET 9L OPEN         0000001000+00001314+00000+0001T   00001314+0000001803          1400 NY1210               2AZ
126055000126055               126055               170213EP     1400+00000+EP0000004634+0000004634+000000000+000000651+0000005280+0000000005+I20000000000+0000005280+Z
126055001126055903-000095     126055006001704011495SWT SPECKLED-EGGS 100G 0000001000+00002104+00000+0001T   00002104+0000001805          1400 NY1150               2AZ
126055002126055304-001204     126055006001023737984FLOWER OCC. TEDDY/ROSES0000001000+00001402+00000+0001T   00001490+0006471805          1400 NY1510               2AZ
126055003126055018-000177     126055006001023797513MUG MINI LOVE ASSTD    0000001000+00000700+00000+0001T   00000700+0000001805          1400 NY1515               2AZ
126055004126055903-000183     126055006003000451043SWT LB HEART LOLLY     0000001000+00000393+00000+0001T   00000393+0000001805          1400 NY1150               2AZ
126055005126055112-116038     126055006009681820246TCS CARRIER BAG MIDI   0000001000+00000035+00000+0001T   00000035+0000001805          1400 NY1090               2AZ
A17021300                                          10450936EPSLAVE 2                       2IC1IC
M17021301                              IT          EPATT IT                                                                                          LAST TILL SLIP NO IS 126055                                                                     THANK YOU                                                                                       GONUBIE EP
M17021391                              CASH        EPSLAVE 2                       Z-REPORT No.   592TOTAL (Sales - Refunds)           3707.55       CASH TO BE BANKED                 2181.90       DEBIT CARDS                          0.00       CREDIT CARDS                      1525.65       Z-READING                         3707.55       AIRTIME DEBIT CARD SALES             0.00       AIRTIME CARD SALES                   0.00       OVERS/UNDERS                         0.00       AIRTIME CASH SALES                   0.00       GIFT CARDS                           0.00       GIFT CARD CASH SALES                 0.00       T O T A L  CASH PAYOUTS              0.00                                                                                                                                                                                                                                                                                                                                                      Z
M17021392                              CASH        EPABSENT                                                                                                                                                                                          ANNUAL LEAVE                                                                                                                                                                                    DAY OFF                                                                                                                                                                                         COMMENTS                                                                                                                                                                                                                                                                                                                                                                                       Z
Y17021300                                          EP00000000325392+000054
ZEP17021319353 SLAVE 2      SALES DATA                     NEXT INVOICE NO.  126056 0592
X EP Slave 2 First invoice 126002 170213 Last invoice 126055 170213 Next invoice 126056 Total number of records 000000188 clbackup completed 19:35:18
