114656000114656               114656               170213ER     1400+00000+ER0000001525+0000001525+000000000+000000214+0000001730+0000000009+I20000000000+0000001730+Z
114656001114656039-000108     114656006001023524034TEA-LITE CANDLES 8PCE  0000001000+00001490+00000+0001T   00001490+0000001102          1400 TW7510               1AZ
114656002114656112-116038     114656006009681820246TCS CARRIER BAG MIDI   0000001000+00000035+00000+0001T   00000035+0000001102          1400 TW7090               1AZ
114657000114657               114657               170213ER     1400+00000+ER0000003507+0000003507+000000000+000000491+0000003990+0000000008+I20000000000+0000003990+Z
114657001114657560-000189     114657006003000592357ANIMALS SNAKE 78cm     0000001000+00003507+00000+0001T   00003507+0000001103          1400 TW7745               1AZ
114658000114658               114658               170213ER     1400+00000+ER0000011081+0000011081+000000000+000001553+0000012634+0000000000+I40000012634+0000000000+Z
114658001114658112-116038     114658006009681820246TCS CARRIER BAG MIDI   0000001000+00000035+00000+0001T   00000035+0000001110          1400 TW7090               1AZ
114658002114658104-000184     114658006003000666157CUTLERY HOLDER PL 3-DIV0000001000+00003507+00000+0001T   00003507+0000001110          1400 TW7210               1AZ
114658003114658089-060027     114658006003000245871KEY-CHAIN HEART 6X6cm  0000001000+00003069+00000+0001T   00003069+0000001110          1400 TW7205               1AZ
114658004114658071-005214     114658006003000152544CELLOTAPE SUPER REFILL 0000003000+00001490+00000+0001T   00001490+0000001110          1400 TW7130               1AZ
114659000114659               114659               170213ER     1400+00000+ER0000001788+0000001788+000000000+000000251+0000002030+0000000009+I20000000000+0000002030+Z
114659001114659012-000001     114659006003000331048MICRO PLATE-COVER 26X6 0000001000+00001753+00000+0001T   00002192+0008191112          1400 TW7300               1AZ
114659002114659112-116038     114659006009681820246TCS CARRIER BAG MIDI   0000001000+00000035+00000+0001T   00000035+0000001112          1400 TW7090               1AZ
114660000114660               114660               170213ER     1400+00000+ER0000001753+0000001753+000000000+000000246+0000001990+0000000009+I20000000000+0000001990+Z
114660001114660006-000800     114660006001023902801HAT CABARET 14x18cm    0000001000+00001753+00000+0001T   00001753+0000001115          1400 TW7131               1AZ
114661000114661               114661               170213ER     1400+00000+ER0000001490+0000001490+000000000+000000209+0000001690+0000000009+I20000000000+0000001690+Z
114661001114661077-000299     114661006003000395576G/BAG 32x25cm LRG LOVE 0000001000+00001490+00000+0001T   00001490+0000001118          1400 TW7112               1AZ
114662000114662               114662               170213ER     1400+00000+ER0000015349+0000015349+000000000+000002149+0000017490+0000000008+I20000000000+0000017490+Z
114662001114662031-001012     114662006003000675104P/FRAME WDN COLLAGE    0000001000+00013157+00000+0001T   00013157+0000001127          1400 TW7510               1AZ
114662002114662077-000926     114662006003000414178G/WRAP 700mmx2m LOVE   0000001000+00002192+00000+0001T   00002192+0000001127          1400 TW7112               1AZ
114663000114663               114663               170213ER     1400+00000+ER0000013152+0000013152+000000000+000001842+0000014990+0000000004+I20000000000+0000014990+Z
114663001114663006-000789     114663006001023148612CROWN BOY              0000006000+00002192+00000+0001T   00002192+0000001139          1400 TW7131               1AZ
114664000114664               114664               170213ER     1400+00000+ER0000017792+0000017792+000000000+000002500+0000020292+0000000000+I40000020292+0000000000+Z
114664001114664112-116069     114664006009681820277TCS CARRIER BAG JUMBO  0000001000+00000048+00000+0001T   00000048+0000001147          1400 TW7090               1AZ
114664002114664001-000168     114664008992787110268TUMBLER 340ml ZOMBI    0000004000+00000876+00000+0001T   00000876+0000001147          1400 TW7515               1AZ
114664003114664001-000169     114664006005231103302TUMBLER 240ml HI-BALL  0000008000+00000788+00000+0001T   00000788+0000001147          1400 TW7515               1AZ
114664004114664015-000110     114664006001023854889WHITEWARE MUG 350ML    0000002000+00002192+00000+0001T   00002192+0000001147          1400 TW7515               1AZ
114664005114664001-000167     114664006001023679659TUMBLER 340ml WILLY    0000004000+00000876+00000+0001T   00000876+0000001147          1400 TW7515               1AZ
114664006114664112-116069     114664006009681820277TCS CARRIER BAG JUMBO  0000001000+00000048+00000+0001T   00000048+0000001147          1400 TW7090               1AZ
114665000114665               114665               170213ER     1400+00000+ER0000003156+0000003156+000000000+000000442+0000003590+0000000008+I20000000000+0000003590+Z
114665001114665018-000127     114665006001023380289MUG OCC STRAIGHT LOVE  0000002000+00001578+00000+0001T   00001753+0006471149          1400 TW7515               1AZ
114666000114666               114666               170213ER     1400+00000+ER0000007063+0000007063+000000000+000000990+0000008053+0000000000+I40000008053+0000000000+Z
114666001114666077-000270     114666006003000395453GIFT-BAG PPR JMB 33X45 0000001000+00002630+00000+0001T   00002630+0000001155          1400 TW7112               1AZ
114666002114666031-080508     114666006001023802415P/FRAME PL 22X11CM LOVE0000001000+00004385+00000+0001T   00004385+0000001155          1400 TW7510               1AZ
114666003114666112-116069     114666006009681820277TCS CARRIER BAG JUMBO  0000001000+00000048+00000+0001T   00000048+0000001155          1400 TW7090               1AZ
114667000114667               114667               170213ER     1400+00000+ER0000001400+0000001400+000000000+000000196+0000001590+0000000006+I20000000000+0000001590+Z
114667001114667903-000121     114667006002099001689SWT GS ZILLIONS SOURS  0000001000+00000700+00000+0001T   00000700+0000001325          1400 TW7150               1AZ
114667002114667903-000120     114667006002099001665SWEET GS ZILLIONS 50g  0000001000+00000700+00000+0001T   00000700+0000001325          1400 TW7150               1AZ
114668000114668               114668               170213ER     1400+00000+ER0000001753+0000001753+000000000+000000246+0000001999+0000000000+I40000001999+0000000000+Z
114668001114668366-007600     114668006001023902184MASK THEATRICAL GLITTER0000001000+00001753+00000+0001T   00001753+0000001327          1400 TW7131               1AZ
114669000114669               114669               170213ER     1400+00000+ER0000004385+0000004385+000000000+000000614+0000004999+0000000000+I40000004999+0000000000+Z
114669001114669004-071270     114669006001023802156CD-DISCS WRITABLE 10PCE0000001000+00004385+00000+0001T   00004385+0000001329          1400 TW7310               1AZ
114670000114670               114670               170213ER     1400+00000+ER0000009690+0000009690+000000000+000001360+0000011050+0000000000+I20000000000+0000011050+Z
114670001114670077-000299-A   114670006003000670888GIFT-BAG PAPER JMB LOVE0000003000+00001753+00000+0001T   00001753+0000001331          1400 TW7112               1AZ
114670002114670162-092939     114670006001492929392#TAG KIDS H/CLIPS ASSTD0000001000+00001753+00000+0001T   00002630+0008161331          1400 TW7160               1AZ
114670003114670162-096646     114670006001492966465#TAG HOT DEALS KIDS HR 0000001000+00002630+00000+0001T   00002630+0000001331          1400 TW7160               1AZ
114670004114670112-116069     114670006009681820277TCS CARRIER BAG JUMBO  0000001000+00000048+00000+0001T   00000048+0000001331          1400 TW7090               1AZ
114671000114671               114671               170213ER     1400+00000+ER0000003067+0000003067+000000000+000000430+0000003497+0000000000+I40000003497+0000000000+Z
114671001114671077-000316     114671006001023609731GIFT-BAG 25X32CM MATT  0000001000+00001753+00000+0001T   00001753+0000001333          1400 TW7112               1AZ
114671002114671206-000520     114671006003000620708NOVELTY BIRTHDAY CANDLE0000001000+00001314+00000+0001T   00001753+0008181333          1400 TW7321               1AZ
114672000114672               114672               170213ER     1400+00000+ER0000005262+0000005262+000000000+000000737+0000005990+0000000009+I20000000000+0000005990+Z
114672001114672082-007580     114672006003000698523SUNGLASS MENS DESIGNER 0000001000+00005262+00000+0001T   00005262+0000001333          1400 TW7160               1AZ
114673000114673               114673               170213ER     1400+00000+ER0000005262+0000005262+000000000+000000737+0000005999+0000000000+I40000005999+0000000000+Z
114673001114673082-007580     114673006003000698523SUNGLASS MENS DESIGNER 0000001000+00005262+00000+0001T   00005262+0000001335          1400 TW7160               1AZ
114674000114674               114674               170213ER     1400+00000+ER0000001752+0000001752+000000000+000000246+0000001990+0000000008+I20000000000+0000001990+Z
114674001114674077-000150-D   114674006003000054343GIFT-WRAP CELLPHANE CLR0000002000+00000876+00000+0001T   00000876+0000001346          1400 TW7112               1AZ
114675000114675               114675               170213ER     1400+00000+ER0000003187+0000003187+000000000+000000448+0000003630+0000000005+I20000000000+0000003630+Z
114675001114675077-000010-C   114675006001023123879CREPE-PAPER RED        0000001000+00000788+00000+0001T   00000788+0000001347          1400 TW7112               1AZ
114675002114675903-000077     114675006939873501687SWT GS MAGIC ROCK FRUIT0000002000+00000525+00000+0001T   00000525+0000001347          1400 TW7150               1AZ
114675003114675903-000194     114675006009826020616SWT CHOC RP LOLLY 25G  0000001000+00001314+00000+0001T   00001314+0000001347          1400 TW7150               1AZ
114675004114675112-116038     114675006009681820246TCS CARRIER BAG MIDI   0000001000+00000035+00000+0001T   00000035+0000001347          1400 TW7090               1AZ
114676000114676               114676               170213ER     1400+00000+ER0000007049+0000007049+000000000+000000987+0000008030+0000000006+I20000000000+0000008030+Z
114676001114676018-000136     114676006001023659026MUG OCC LOVE W/PLUSH   0000001000+00003507+00000+0001T   00003507+0000001348          1400 TW7515               1AZ
114676002114676018-005009     114676006001023725608MUG W/PLUSH-BEAR LOVE  0000001000+00003507+00000+0001T   00003507+0000001348          1400 TW7515               1AZ
114676003114676112-116038     114676006009681820246TCS CARRIER BAG MIDI   0000001000+00000035+00000+0001T   00000035+0000001348          1400 TW7090               1AZ
114677000114677               114677               170213ER     1400+00000+ER0000002630+0000002630+000000000+000000369+0000002990+0000000009+I20000000000+0000002990+Z
114677001114677567-075466     114677009780263252378BK NOVEL ROMANCE       0000001000+00002630+00000+0001T   00002630+0000001349          1400 TW7757               1AZ
114678000114678               114678               170213ER     1400+00000+ER0000000788+0000000788+000000000+000000111+0000000890+0000000009+I20000000000+0000000890+Z
114678001114678077-000010-C   114678006001023123879CREPE-PAPER RED        0000001000+00000788+00000+0001T   00000788+0000001351          1400 TW7112               1AZ
114679000114679               114679               170213ER     1400+00000+ER0000000613+0000000613+000000000+000000086+0000000690+0000000009+I20000000000+0000000690+Z
114679001114679077-000311     114679006001023608666GIFT-BAG 11X14CM GLOSS 0000001000+00000613+00000+0001T   00000613+0000001356          1400 TW7112               1AZ
114680000114680               114680               170213ER     1400+00000+ER0000003155+0000003155+000000000+000000443+0000003598+0000000000+I40000003598+0000000000+Z
114680001114680077-000299-A   114680006003000670888GIFT-BAG PAPER JMB LOVE0000001000+00001753+00000+0001T   00001753+0000001404          1400 TW7112               1AZ
114680002114680304-001204     114680006001023737984FLOWER OCC. TEDDY/ROSES0000001000+00001402+00000+0001T   00001490+0006471404          1400 TW7510               1AZ
114681000114681               114681               170213ER     1400+00000+ER0000003507+0000003507+000000000+000000491+0000003998+0000000000+I40000003998+0000000000+Z
114681002114681018-000136     114681006001023659026MUG OCC LOVE W/PLUSH   0000001000+00003507+00000+0001T   00003507+0000001409          1400 TW7515               1AZ
114682000114682               114682               170213ER     1400+00000+ER0000001227+0000001227+000000000+000000172+0000001390+0000000009+I20000000000+0000001390+Z
114682001114682077-000319     114682006001023609779GIFT-BAG 18X23CM BIRTHD0000001000+00001227+00000+0001T   00001227+0000001410          1400 TW7112               1AZ
114683000114683               114683               170213ER     1400+00000+ER0000005262+0000005262+000000000+000000737+0000005999+0000000000+I40000005999+0000000000+Z
114683001114683159-000107     114683006001023640406SHOWER-CURTAIN 180cm   0000001000+00005262+00000+0001T   00006139+0008191542          1400 TW7200               1AZ
114684000114684               114684               170213ER     1400+00000+ER0000010381+0000010381+000000000+000001455+0000011830+0000000006+I20000000000+0000011830+Z
114684001114684112-116038     114684006009681820246TCS CARRIER BAG MIDI   0000001000+00000035+00000+0001T   00000035+0000001555          1400 TW7090               1AZ
114684002114684080-000124     114684006003000297733CARD & ENV VALENTINES  0000001000+00001578+00000+0001T   00001578+0000001555          1400 TW7112               1AZ
114684003114684031-080508     114684006001023802415P/FRAME PL 22X11CM LOVE0000001000+00004385+00000+0001T   00004385+0000001555          1400 TW7510               1AZ
114684004114684077-000309     114684006001023608604GIFT-BAG 25X32CM GLOSS 0000001000+00001753+00000+0001T   00001753+0000001555          1400 TW7112               1AZ
114684005114684018-000129     114684006001023403353MUG OCC. LOVE V-SHAPE  0000001000+00002630+00000+0001T   00002630+0000001555          1400 TW7515               1AZ
114685000114685               114685               170213ER     1400+00000+ER0000013803+0000013803+000000000+000001933+0000015736+0000000000+I40000015736+0000000000+Z
114685001114685112-116038     114685006009681820246TCS CARRIER BAG MIDI   0000001000+00000035+00000+0001T   00000035+0000001557          1400 TW7090               1AZ
114685002114685368-000049     114685006003000536955PLUSH BEAR 15cm LOVE   0000003000+00004385+00000+0001T   00004385+0000001557          1400 TW7745               1AZ
114685003114685007-000555     114685006001023848239MEMO-PAD MINI LOVE     0000001000+00000613+00000+0001T   00000613+0000001557          1400 TW7130               1AZ
114686000114686               114686               170213ER     1400+00000+ER0000008273+0000008273+000000000+000001161+0000009434+0000000000+I40000009434+0000000000+Z
114686001114686112-116038     114686006009681820246TCS CARRIER BAG MIDI   0000001000+00000035+00000+0001T   00000035+0000001559          1400 TW7090               1AZ
114686002114686104-000020     114686006916920023026BASKET 25x14x10cm      0000003000+00001753+00000+0001T   00001753+0000001559          1400 TW7210               1AZ
114686003114686077-000245     114686006001023759214GIFT-RIBBON METALLICx2 0000001000+00001227+00000+0001T   00001227+0000001559          1400 TW7112               1AZ
114686004114686077-000151     114686006008766114676GIFT-WRAP C/PHANE ASSTD0000002000+00000876+00000+0001T   00000876+0000001559          1400 TW7112               1AZ
114687000114687               114687               170213ER     1400+00000+ER0000001928+0000001928+000000000+000000270+0000002198+0000000000+I40000002198+0000000000+Z
114687001114687174-008034     114687006009654960610TRAVEL BOTTLES 150ml   0000001000+00001928+00000+0001T   00001928+0000001600          1400 TW7205               1AZ
114688000114688               114688               170213ER     1400+00000+ER0000002453+0000002453+000000000+000000344+0000002797+0000000000+I40000002797+0000000000+Z
114688001114688034-000329     114688006001023564290BOTTLE-BRUSHES WHT 2PCE0000001000+00001314+00000+0001T   00001314+0000001602          1400 TW7215               1AZ
114688002114688466-000517     114688006001023752017BALL TENNIS RED CRICKET0000001000+00001139+00000+0001T   00001139+0000001602          1400 TW7785               1AZ
114689000114689               114689               170213ER     1400+00000+ER0000001227+0000001227+000000000+000000172+0000001390+0000000009+I20000000000+0000001390+Z
114689001114689077-000245     114689006001023759214GIFT-RIBBON METALLICx2 0000001000+00001227+00000+0001T   00001227+0000001602          1400 TW7112               1AZ
114690000114690               114690               170213ER     1400+00000+ER0000008277+0000008277+000000000+000001160+0000009430+0000000007+I20000000000+0000009430+Z
114690001114690112-116038     114690006009681820246TCS CARRIER BAG MIDI   0000001000+00000035+00000+0001T   00000035+0000001612          1400 TW7090               1AZ
114690002114690007-000104     114690006009685854865BK COVER BRWN KRFT ROLL0000001000+00000350+00000+0001T   00000350+0000001612          1400 TW7130               1AZ
114690003114690031-080509     114690006001023802446P/FRAME COLLAGE 10X15CM0000001000+00006139+00000+0001T   00006139+0000001612          1400 TW7510               1AZ
114690004114690566-000865     114690006001023788412STICKER ASSTD          0000001000+00001753+00000+0001T   00001753+0000001612          1400 TW7130               1AZ
114691000114691               114691               170213ER     1400+00000+ER0000004902+0000004902+000000000+000000690+0000005592+0000000000+I40000005592+0000000000+Z
114691001114691903-000151     114691006009803374411SWT SML RND R/BOW LOLLY0000006000+00000525+00000+0001T   00000525+0000001655          1400 TW7150               1AZ
114691002114691077-000314     114691006003000181148GIFT-BAG 11X14CM MATT  0000002000+00000876+00000+0001T   00000876+0000001655          1400 TW7112               1AZ
114692000114692               114692               170213ER     1400+00000+ER0000005998+0000005998+000000000+000000840+0000006830+0000000008+I20000000000+0000006830+Z
114692001114692368-000049     114692006003000536955PLUSH BEAR 15cm LOVE   0000001000+00004385+00000+0001T   00004385+0000001656          1400 TW7745               1AZ
114692002114692077-000303     114692006001023593757GIFT-BAG PAPER MED     0000001000+00001578+00000+0001T   00001578+0000001656          1400 TW7112               1AZ
114692003114692112-116038     114692006009681820246TCS CARRIER BAG MIDI   0000001000+00000035+00000+0001T   00000035+0000001656          1400 TW7090               1AZ
114693000114693               114693               170213ER     1400+00000+ER0000001139+0000001139+000000000+000000160+0000001290+0000000009+I20000000000+0000001290+Z
114693001114693903-000087     114693006001704000161SWT SPECKLED-EGGS 50G  0000001000+00001139+00000+0001T   00001139+0000001728          1400 TW7150               1AZ
114694000114694               114694               170213ER     1400+00000+ER0000001753+0000001753+000000000+000000246+0000001990+0000000009+I20000000000+0000001990+Z
114694001114694366-006102     114694006003000648474DRESSUP S/ADH FACE STIK0000001000+00001753+00000+0001T   00001753+0000001729          1400 TW7131               1AZ
114695000114695               114695               170213ER     1400+00000+ER0000005907+0000005907+000000000+000000829+0000006736+0000000000+I40000006736+0000000000+Z
114695001114695903-000151     114695006009803374411SWT SML RND R/BOW LOLLY0000002000+00000525+00000+0001T   00000525+0000001734          1400 TW7150               1AZ
114695002114695039-000223     114695006001023852458CANDLE PILLAR 10x3cm   0000001000+00003069+00000+0001T   00003069+0000001734          1400 TW7510               1AZ
114695003114695019-000130     114695006003000456130PLANTER T/PLATE W/HNDL 0000001000+00001753+00000+0001T   00001753+0000001734          1400 TW7510               1AZ
114695004114695112-116038     114695006009681820246TCS CARRIER BAG MIDI   0000001000+00000035+00000+0001T   00000035+0000001734          1400 TW7090               1AZ
114696000114696               114696               170213ER     1400+00000+ER0000005747+0000005747+000000000+000000805+0000006550+0000000002+I20000000000+0000006550+Z
114696001114696112-116069     114696006009681820277TCS CARRIER BAG JUMBO  0000001000+00000048+00000+0001T   00000048+0000001736          1400 TW7090               1AZ
114696002114696080-000127     114696006003000424351VALENTINES DAY 36x24CM 0000001000+00002192+00000+0001T   00002192+0000001736          1400 TW7112               1AZ
114696003114696018-000136     114696006001023659026MUG OCC LOVE W/PLUSH   0000001000+00003507+00000+0001T   00003507+0000001736          1400 TW7515               1AZ
114697000114697               114697               170213ER     1400+00000+ER0000001928+0000001928+000000000+000000270+0000002190+0000000008+I20000000000+0000002190+Z
114697001114697903-000843     114697008693029031067SWT GUMMY JELAXY 80G   0000002000+00000964+00000+0001T   00000964+0000001753          1400 TW7150               1AZ
114698000114698               114698               170213ER     1400+00000+ER0000010119+0000010119+000000000+000001418+0000011530+0000000007+I20000000000+0000011530+Z
114698001114698159-003605     114698006001023156242TOILET-BRUSH+STAND COLR0000001000+00004385+00000+0001T   00004385+0000001801          1400 TW7200               1AZ
114698002114698084-091594     114698006003000620692FOOT FILE/GRATER       0000001000+00004823+00000+0001T   00004823+0000001801          1400 TW7200               1AZ
114698003114698033-000128     114698006009654960214HAIR COMB PLASTIC 2PC  0000001000+00000876+00000+0001T   00000876+0000001801          1400 TW7200               1AZ
114698004114698112-116038     114698006009681820246TCS CARRIER BAG MIDI   0000001000+00000035+00000+0001T   00000035+0000001801          1400 TW7090               1AZ
A17021300                                          09555533ERSLAVE 1                       TW72IC
C11468100                                          170213ER077-000319     14084271SLAVE 1     TW72IC0000000000+0000000000+0010000001000+
M17021391                              CASH        ERSLAVE 1                       Z-REPORT No.   618TOTAL (Sales - Refunds)           2523.31       CASH TO BE BANKED                 1387.70       DEBIT CARDS                          0.00       CREDIT CARDS                      1135.61       Z-READING                         2523.31       AIRTIME DEBIT CARD SALES             0.00       AIRTIME CARD SALES                   0.00       OVERS/UNDERS                         0.00       AIRTIME CASH SALES                   0.00       GIFT CARDS                           0.00       GIFT CARD CASH SALES                 0.00       T O T A L  CASH PAYOUTS              0.00                                                                                                                                                                                                                                                                                                                                                      Z
M17021392                              CASH        ERABSENT                                                                                                                                                                                          ANNUAL LEAVE                                                                                                                                                                                    DAY OFF                                                                                                                                                                                         COMMENTS                                                                                                                                                                                                                                                                                                                                                                                       Z
Y17021300                                          ER00000000221480+000043
ZER17021319343 SLAVE 1      SALES DATA                     NEXT INVOICE NO.  114699 0618
F094637105-001000         1702010957060000032ICSLAVE 1
T094779018-000127                                          1702131003430000031ICSLAVE 1
X ER Slave 1 First invoice 114656 170213 Last invoice 114698 170213 Next invoice 114699 Total number of records 000000142 clbackup completed 19:34:54
