124613000124613               124613               170213ER     1400+00000+ER0000008771+0000008771+000000000+000001228+0000009990+0000000009+I20000000000+0000009990+Z
124613001124613039-000799     124613006001023692382CANDLES TEALITE 100PCE 0000001000+00008771+00000+0001T   00008771+0000000901          1400 FM8510               2AZ
124614000124614               124614               170213ER     1400+00000+ER0000002630+0000002630+000000000+000000369+0000002990+0000000009+I20000000000+0000002990+Z
124614001124614466-000515     124614006001023477408BALLS TENNIS BAG-OF-3  0000001000+00002630+00000+0001T   00002630+0000000908          1400 FM8785               2AZ
124615000124615               124615               170213ER     1400+00000+ER0000001139+0000001139+000000000+000000160+0000001290+0000000009+I20000000000+0000001290+Z
124615001124615046-000014     124615006001023725387BATTERIES SIZE:AAA 4PCE0000001000+00001139+00000+0001T   00001139+0000000938          1400 FM8312               2AZ
124616000124616               124616               170213ER     1400+00000+ER0000003681+0000003681+000000000+000000516+0000004190+0000000007+I20000000000+0000004190+Z
124616001124616077-000245     124616006001023759214GIFT-RIBBON METALLICx2 0000003000+00001227+00000+0001T   00001227+0000000940          1400 FM8112               2AZ
124617000124617               124617               170213ER     1400+00000+ER0000000876+0000000876+000000000+000000123+0000000990+0000000009+I20000000000+0000000990+Z
124617001124617903-000482     124617006001704001397SWT SOFT-MINTS 60G     0000001000+00000876+00000+0001T   00000876+0000000942          1400 FM8150               2AZ
124618000124618               124618               170213ER     1400+00000+ER0000004733+0000004733+000000000+000000664+0000005397+0000000000+I40000005397+0000000000+Z
124618001124618077-000303     124618006001023593757GIFT-BAG PAPER MED     0000001000+00001578+00000+0001T   00001578+0000000949          1400 FM8112               2AZ
124618002124618080-000113     124618006003000237449CARD&ENVLPE - LOVE     0000001000+00001753+00000+0001T   00001753+0000000949          1400 FM8112               2AZ
124618003124618304-001204     124618006001023737984FLOWER OCC. TEDDY/ROSES0000001000+00001402+00000+0001T   00001490+0006470949          1400 FM8510               2AZ
124619000124619               124619               170213ER     1400+00000+ER0000000876+0000000876+000000000+000000123+0000000990+0000000009+I20000000000+0000000990+Z
124619001124619078-000025     124619008887013700064SUPERGLUE 3g 1PCE CARD 0000001000+00000876+00000+0001T   00000876+0000000953          1400 FM8810               2AZ
124620000124620               124620               170213ER     1400+00000+ER0000006138+0000006138+000000000+000000860+0000006990+0000000008+I20000000000+0000006990+Z
124620001124620133-000011     124620006001023905246CLOTH FIBRE 4-PACK BOX 0000001000+00004385+00000+0001T   00004385+0000000957          1400 FM8212               2AZ
124620002124620162-083941     124620006001492839417SS HEADBANDS           0000001000+00001753+00000+0001T   00001753+0000000957          1400 FM8160               2AZ
124621000124621               124621               170213ER     1400+00000+ER0000001754-0000001754-000000000+000000246-0000002000-0000000000+I20000000000+0000002000-Z
124621001124621001-999906     124621000000000999906STATIONERY(PHOTOCOPIES)0000001000-00001754+00000+0001T   00000000+0000000958          1400 FM89061IC            2 Z
124622000124622               124622               170213ER     1400+00000+ER0000007941+0000007941+000000000+000001113+0000009054+0000000000+I40000009054+0000000000+Z
124622001124622366-000901     124622006003000563807DRESS UP WINGS B/FLY   0000001000+00007893+00000+0001T   00007893+0000001004          1400 FM8131               2AZ
124622002124622112-116069     124622006009681820277TCS CARRIER BAG JUMBO  0000001000+00000048+00000+0001T   00000048+0000001004          1400 FM8090               2AZ
124623000124623               124623               170213ER     1400+00000+ER0000002630+0000002630+000000000+000000369+0000002990+0000000009+I20000000000+0000002990+Z
124623001124623077-000115-B   124623006003000181025GIFT-WRAP PPR 700MMX2M 0000001000+00002630+00000+0001T   00002630+0000001004          1400 FM8112               2AZ
124624000124624               124624               170213ER     1400+00000+ER0000009506+0000009506+000000000+000001332+0000010838+0000000000+I40000010838+0000000000+Z
124624001124624031-006544     124624006003000279401P/FRAME WDN DISTRESSED 0000001000+00007893+00000+0001T   00007893+0000001018          1400 FM8510               2AZ
124624002124624112-116038     124624006009681820246TCS CARRIER BAG MIDI   0000001000+00000035+00000+0001T   00000035+0000001018          1400 FM8090               2AZ
124624003124624077-000303     124624006001023593757GIFT-BAG PAPER MED     0000001000+00001578+00000+0001T   00001578+0000001018          1400 FM8112               2AZ
124625000124625               124625               170213ER     1400+00000+ER0000013857+0000013857+000000000+000001941+0000015790+0000000008+I20000000000+0000015790+Z
124625001124625077-000315     124625006003000181186GIFT-BAG 20x28cm MATT  0000001000+00001578+00000+0001T   00001578+0000001021          1400 FM8112               2AZ
124625002124625368-000111     124625006001023780812PLUSH BEAR/DOG 29CM    0000001000+00012279+00000+0001T   00012279+0000001021          1400 FM8745               2AZ
124626000124626               124626               170213ER     1400+00000+ER0000000700+0000000700+000000000+000000098+0000000790+0000000008+I20000000000+0000000790+Z
124626001124626018-000177     124626006001023797513MUG MINI LOVE ASSTD    0000001000+00000700+00000+0001T   00000700+0000001031          1400 FM8515               2AZ
124627000124627               124627               170213ER     1400+00000+ER0000025254+0000025254+000000000+000003539+0000028790+0000000003+I20000000000+0000028790+Z
124627001124627159-000678     124627006001023729750BATH-SPONGE 2-TONE OVAL0000001000+00002630+00000+0001T   00002630+0000001054          1400 FM8200               2AZ
124627002124627031-001005     124627006003000334520P/FRAME COLL WDN 35X35C0000001000+00017542+00000+0001T   00017542+0000001054          1400 FM8510               2AZ
124627003124627903-000610     124627006003000610518SWEET JUMBO BUBBLE GUM 0000002000+00001753+00000+0001T   00001753+0000001054          1400 FM8150               2AZ
124627004124627903-000895     124627006009680772256SWT MINI BOTZ S/BERRY  0000002000+00000788+00000+0001T   00000788+0000001054          1400 FM8150               2AZ
124628000124628               124628               170213ER     1400+00000+ER0000004433+0000004433+000000000+000000621+0000005050+0000000004+I20000000000+0000005050+Z
124628001124628079-001001     124628006003000448593CANVAS A3 WOOD MOUNTED 0000001000+00004385+00000+0001T   00004385+0000001057          1400 FM8130               2AZ
124628002124628112-116069     124628006009681820277TCS CARRIER BAG JUMBO  0000001000+00000048+00000+0001T   00000048+0000001057          1400 FM8090               2AZ
124629000124629               124629               170213ER     1400+00000+ER0000001314+0000001314+000000000+000000184+0000001498+0000000000+I40000001498+0000000000+Z
124629001124629903-000844     124629005010478432567SWT CANDY DL LUV HEARTS0000001000+00001314+00000+0001T   00001314+0000001207          1400 FM8150               2AZ
124630000124630               124630               170213ER     1400+00000+ER0000010521+0000010521+000000000+000001473+0000011994+0000000000+I40000011994+0000000000+Z
124630001124630104-000025     124630006001023780287BASKET PL 28x17x11cm   0000001000+00003507+00000+0001T   00003507+0000001209          1400 FM8210               2AZ
124630002124630104-000051     124630006003000615193BASKET PL 36x24x13cm   0000002000+00003507+00000+0001T   00003507+0000001209          1400 FM8210               2AZ
124631000124631               124631               170213ER     1400+00000+ER0000007939+0000007939+000000000+000001113+0000009050+0000000002+I20000000000+0000009050+Z
124631001124631112-116069     124631006009681820277TCS CARRIER BAG JUMBO  0000001000+00000048+00000+0001T   00000048+0000001216          1400 FM8090               2AZ
124631002124631041-007031     124631006003000178124H/GLO BUBBLE-BATH 480ml0000001000+00003069+00000+0001T   00003069+0000001216          1400 FM8200               2AZ
124631003124631200-000104     124631006003000677412PICNIC CUPS PL 6PCE    0000001000+00002630+00000+0001T   00002630+0000001216          1400 FM8214               2AZ
124631004124631007-000046     124631006009635831366DISPLAY-BOOK PL A4 30PG0000001000+00002192+00000+0001T   00002192+0000001216          1400 FM8130               2AZ
124632000124632               124632               170213ER     1400+00000+ER0000006575+0000006575+000000000+000000922+0000007490+0000000007+I20000000000+0000007490+Z
124632001124632030-000030-A   124632006003000249305PLAQUE GLASS LOVE      0000001000+00003069+00000+0001T   00003069+0000001219          1400 FM8505               2AZ
124632002124632088-000084     124632006001023798060P/POURRI 120G ASSTD    0000001000+00001753+00000+0001T   00001753+0000001219          1400 FM8212               2AZ
124632003124632039-000114     124632006001023524058CANDLE T/LITE RED 3.5CM0000001000+00001753+00000+0001T   00001753+0000001219          1400 FM8510               2AZ
124633000124633               124633               170213ER     1400+00000+ER0000020482+0000020482+000000000+000002868+0000023350+0000000000+I20000000000+0000023350+Z
124633001124633112-116069     124633006009681820277TCS CARRIER BAG JUMBO  0000001000+00000048+00000+0001T   00000048+0000001221          1400 FM8090               2AZ
124633002124633006-000165     124633006001023758392BALLOONS LRG BAG-OF-1000000002000+00008771+00000+0001T   00008771+0000001221          1400 FM8131               2AZ
124633003124633033-010721     124633006001023678669SAFETY-PINS 20PCE ASSTD0000001000+00000700+00000+0001T   00000700+0000001221          1400 FM8200               2AZ
124633004124633033-006004     124633006001023703316SEWING-KIT IN-POUCH    0000001000+00002192+00000+0001T   00002192+0000001221          1400 FM8200               2AZ
124634000124634               124634               170213ER     1400+00000+ER0000004418+0000004418+000000000+000000619+0000005030+0000000007+I20000000000+0000005030+Z
124634001124634112-116038     124634006009681820246TCS CARRIER BAG MIDI   0000001000+00000035+00000+0001T   00000035+0000001222          1400 FM8090               2AZ
124634002124634030-000030-A   124634006003000249305PLAQUE GLASS LOVE      0000001000+00003069+00000+0001T   00003069+0000001222          1400 FM8505               2AZ
124634003124634077-000310     124634006001023608635GIFT-BAG 18X23CM GLOSS 0000001000+00001314+00000+0001T   00001314+0000001222          1400 FM8112               2AZ
124635000124635               124635               170213ER     1400+00000+ER0000002665+0000002665+000000000+000000374+0000003030+0000000009+I20000000000+0000003030+Z
124635001124635112-116038     124635006009681820246TCS CARRIER BAG MIDI   0000001000+00000035+00000+0001T   00000035+0000001232          1400 FM8090               2AZ
124635002124635366-002101     124635006003000617715DRESS UP MASK LIGHT UP 0000001000+00002630+00000+0001T   00002630+0000001232          1400 FM8131               2AZ
124636000124636               124636               170213ER     1400+00000+ER0000001753+0000001753+000000000+000000246+0000001990+0000000009+I20000000000+0000001990+Z
124636001124636077-000299-A   124636006003000670888GIFT-BAG PAPER JMB LOVE0000001000+00001753+00000+0001T   00001753+0000001233          1400 FM8112               2AZ
124637000124637               124637               170213ER     1400+00000+ER0000017578+0000017578+000000000+000002467+0000020040+0000000005+I20000000000+0000020040+Z
124637001124637112-116069     124637006009681820277TCS CARRIER BAG JUMBO  0000001000+00000048+00000+0001T   00000048+0000001235          1400 FM8090               2AZ
124637002124637200-003024     124637006001023657299REFUSE BAGS 20PCE BLACK0000001000+00001753+00000+0001T   00001753+0000001235          1400 FM8214               2AZ
124637003124637200-003026     124637006003000276448REFUSE BAGS 10PCE GREEN0000001000+00001753+00000+0001T   00001753+0000001235          1400 FM8214               2AZ
124637004124637200-003024     124637006001023657299REFUSE BAGS 20PCE BLACK0000001000+00001753+00000+0001T   00001753+0000001235          1400 FM8214               2AZ
124637005124637200-003026     124637006003000276448REFUSE BAGS 10PCE GREEN0000001000+00001753+00000+0001T   00001753+0000001235          1400 FM8214               2AZ
124637006124637200-003024     124637006001023657299REFUSE BAGS 20PCE BLACK0000001000+00001753+00000+0001T   00001753+0000001235          1400 FM8214               2AZ
124637007124637200-003026     124637006003000276448REFUSE BAGS 10PCE GREEN0000001000+00001753+00000+0001T   00001753+0000001235          1400 FM8214               2AZ
124637008124637306-000529     124637006003000571338TOOTHBRUSH HOLDER 20cm 0000001000+00001753+00000+0001T   00001753+0000001235          1400 FM8200               2AZ
124637009124637028-000014     124637006001334001316ICE-BRICK SOLID MEDIUM 0000002000+00001753+00000+0001T   00001753+0000001235          1400 FM8305               2AZ
124637010124637046-002032-PK2 124637004897006175063BATTERIES CR-2032  2PCE0000001000+00001753+00000+0001T   00001753+0000001235          1400 FM8312               2AZ
124638000124638               124638               170213ER     1400+00000+ER0000011355+0000011355+000000000+000001592+0000012947+0000000000+I40000012947+0000000000+Z
124638001124638112-116069     124638006009681820277TCS CARRIER BAG JUMBO  0000001000+00000048+00000+0001T   00000048+0000001239          1400 FM8090               2AZ
124638002124638071-081110     124638006936198405454CORRECTION FLUID PEN   0000001000+00001490+00000+0001T   00001490+0000001239          1400 FM8130               2AZ
124638003124638071-081091     124638006001151010287STAED/GENKEM ALL-STICK 0000002000+00001227+00000+0001T   00001227+0000001239          1400 FM8130               2AZ
124638004124638027-000023     124638006003000666881SCRUBBING BRUSH 20cm   0000001000+00002192+00000+0001T   00002192+0000001239          1400 FM8212               2AZ
124638005124638027-783000     124638006001023874641SCOURERS RAINBOW 5PCE  0000001000+00001753+00000+0001T   00001753+0000001239          1400 FM8212               2AZ
124638006124638050-000361-Z   124638006001023535382PADLOCK IRON 20mm CARD 0000001000+00001928+00000+0001T   00001928+0000001239          1400 FM8855               2AZ
124638007124638071-081110     124638006936198405454CORRECTION FLUID PEN   0000001000+00001490+00000+0001T   00001490+0000001239          1400 FM8130               2AZ
124639000124639               124639               170213ER     1400+00000+ER0000001753+0000001753+000000000+000000246+0000001990+0000000009+I20000000000+0000001990+Z
124639001124639200-003024     124639006001023657299REFUSE BAGS 20PCE BLACK0000001000+00001753+00000+0001T   00001753+0000001253          1400 FM8214               2AZ
124640000124640               124640               170213ER     1400+00000+ER0000000035+0000000035+000000000+000000005+0000000040+0000000000+I20000000000+0000000040+Z
124640001124640112-116038     124640006009681820246TCS CARRIER BAG MIDI   0000001000+00000035+00000+0001T   00000035+0000001254          1400 FM8090               2AZ
124641000124641               124641               170213ER     1400+00000+ER0000007583+0000007583+000000000+000001066+0000008640+0000000009+I20000000000+0000008640+Z
124641001124641112-116069     124641006009681820277TCS CARRIER BAG JUMBO  0000001000+00000048+00000+0001T   00000048+0000001256          1400 FM8090               2AZ
124641002124641038-047250     124641006001023816009PLACE MAT ASSORTED     0000002000+00001753+00000+0001T   00001753+0000001256          1400 FM8300               2AZ
124641003124641903-000848     124641008692806080076SWT SNACK BISCUIT 70g  0000001000+00000613+00000+0001T   00000613+0000001256          1400 FM8150               2AZ
124641004124641016-002000     124641006003000674404S/BOTTLE GLS W/PL CAP  0000001000+00002630+00000+0001T   00002630+0000001256          1400 FM8300               2AZ
124641005124641903-000183     124641006003000451043SWT LB HEART LOLLY     0000002000+00000393+00000+0001T   00000393+0000001256          1400 FM8150               2AZ
124642000124642               124642               170213ER     1400+00000+ER0000008817+0000008817+000000000+000001236+0000010053+0000000000+I40000010053+0000000000+Z
124642001124642112-116069     124642006009681820277TCS CARRIER BAG JUMBO  0000001000+00000048+00000+0001T   00000048+0000001259          1400 FM8090               2AZ
124642002124642019-000084     124642006001023797247VASE GLASS GEOMETRIC   0000001000+00006139+00000+0001T   00006139+0000001259          1400 FM8510               2AZ
124642003124642567-075466     124642009780263252880BK NOVEL ROMANCE       0000001000+00002630+00000+0001T   00002630+0000001259          1400 FM8757               2AZ
124643000124643               124643               170213ER     1400+00000+ER0000014341+0000014341+000000000+000002010+0000016350+0000000001+I20000000000+0000016350+Z
124643001124643112-116069     124643006009681820277TCS CARRIER BAG JUMBO  0000001000+00000048+00000+0001T   00000048+0000001301          1400 FM8090               2AZ
124643002124643159-000043-H   124643006001023416629HOOKS ADHESIVE 3PCE SQR0000001000+00001139+00000+0001T   00001139+0000001301          1400 FM8200               2AZ
124643003124643567-075497     124643009780799369526BK NOVEL ROMANCE AFR   0000001000+00006139+00000+0001T   00006139+0000001301          1400 FM8757               2AZ
124643004124643002-000015     124643006003000555604CAPPUCCINO STENCILS 12P0000001000+00001753+00000+0001T   00001753+0000001301          1400 FM8300               2AZ
124643005124643018-019000     124643006003000557288MUG OCC. LOVE JUMBO    0000001000+00005262+00000+0001T   00005262+0000001301          1400 FM8515               2AZ
124644000124644               124644               170213ER     1400+00000+ER0000007061+0000007061+000000000+000000990+0000008050+0000000001+I20000000000+0000008050+Z
124644001124644112-116069     124644006009681820277TCS CARRIER BAG JUMBO  0000001000+00000048+00000+0001T   00000048+0000001302          1400 FM8090               2AZ
124644002124644039-001023     124644006003000466337CANDLE TEA-LITE METALIC0000001000+00001753+00000+0001T   00001753+0000001302          1400 FM8510               2AZ
124644003124644031-086102     124644006001023900722P/FRAME PL WORD-TOP 4AS0000001000+00003507+00000+0001T   00003507+0000001302          1400 FM8510               2AZ
124644004124644077-000299-A   124644006003000670888GIFT-BAG PAPER JMB LOVE0000001000+00001753+00000+0001T   00001753+0000001302          1400 FM8112               2AZ
124645000124645               124645               170213ER     1400+00000+ER0000005297+0000005297+000000000+000000742+0000006030+0000000009+I20000000000+0000006030+Z
124645001124645366-002195     124645006001023990549DRESS UP WINGS FEATHER 0000001000+00005262+00000+0001T   00005262+0000001304          1400 FM8131               2AZ
124645002124645112-116038     124645006009681820246TCS CARRIER BAG MIDI   0000001000+00000035+00000+0001T   00000035+0000001304          1400 FM8090               2AZ
124646000124646               124646               170213ER     1400+00000+ER0000001753+0000001753+000000000+000000246+0000001990+0000000009+I20000000000+0000001990+Z
124646001124646019-071595     124646006001023756428PEBBLES 250g SKY-BLUE  0000001000+00001753+00000+0001T   00001753+0000001304          1400 FM8510               2AZ
124647000124647               124647               170213ER     1400+00000+ER0000001753+0000001753+000000000+000000246+0000001990+0000000009+I20000000000+0000001990+Z
124647001124647077-000373     124647006003000395217G/BAG MED 18X23CM DESGN0000001000+00001753+00000+0001T   00001753+0000001311          1400 FM8112               2AZ
124648000124648               124648               170213ER     1400+00000+ER0000002192+0000002192+000000000+000000307+0000002490+0000000009+I20000000000+0000002490+Z
124648001124648080-000139     124648006003000611690CARD & ENV MINI SET 6PC0000001000+00002192+00000+0001T   00002192+0000001312          1400 FM8112               2AZ
124649000124649               124649               170213ER     1400+00000+ER0000086240+0000086240+000000000+000012074+0000098310+0000000004+I20000000000+0000098310+Z
124649001124649018-000177     124649006001023797513MUG MINI LOVE ASSTD    0000120000+00000700+00000+0001T   00000700+0000001322          1400 FM8515               2AZ
124649002124649112-116069     124649006009681820277TCS CARRIER BAG JUMBO  0000001000+00000048+00000+0001T   00000048+0000001322          1400 FM8090               2AZ
124649003124649018-000170     124649006001023775528MUG OCC. LOVE 2PC MINI 0000001000+00002192+00000+0001T   00002192+0000001322          1400 FM8515               2AZ
124650000124650               124650               170213ER     1400+00000+ER0000000613+0000000613+000000000+000000086+0000000690+0000000009+I20000000000+0000000690+Z
124650001124650077-000311     124650006001023608666GIFT-BAG 11X14CM GLOSS 0000001000+00000613+00000+0001T   00000613+0000001341          1400 FM8112               2AZ
124651000124651               124651               170213ER     1400+00000+ER0000003507+0000003507+000000000+000000491+0000003990+0000000008+I20000000000+0000003990+Z
124651001124651089-000018     124651006003000176724KEY CHAIN INSPIRATION  0000001000+00003507+00000+0001T   00003507+0000001342          1400 FM8205               2AZ
124652000124652               124652               170213ER     1400+00000+ER0000000613+0000000613+000000000+000000086+0000000690+0000000009+I20000000000+0000000690+Z
124652001124652083-000055     124652006003000003853LIGHTER ELCTRNC REFILBL0000001000+00000613+00000+0001T   00000613+0000001343          1400 FM8315               2AZ
124653000124653               124653               170213ER     1400+00000+ER0000002278+0000002278+000000000+000000320+0000002598+0000000000+I40000002598+0000000000+Z
124653001124653007-000326     124653006009699513833PAPER A4 80GSM 10'S BLK0000001000+00001402+00000+0001T   00001402+0000001403          1400 FM8130               2AZ
124653002124653077-000011-D   124653006001023808554TISSUE-WRAP WHITE 10PCE0000001000+00000876+00000+0001T   00000876+0000001403          1400 FM8112               2AZ
124654000124654               124654               170213ER     1400+00000+ER0000007061+0000007061+000000000+000000990+0000008050+0000000001+I20000000000+0000008050+Z
124654001124654112-116069     124654006009681820277TCS CARRIER BAG JUMBO  0000001000+00000048+00000+0001T   00000048+0000001405          1400 FM8090               2AZ
124654002124654080-000103     124654006003000236961CARD&ENVLOPE BDAY-MALE 0000001000+00001753+00000+0001T   00001753+0000001405          1400 FM8112               2AZ
124654003124654080-000113     124654006003000237449CARD&ENVLPE - LOVE     0000001000+00001753+00000+0001T   00001753+0000001405          1400 FM8112               2AZ
124654004124654019-000104     124654006003000658176VASE GLASSBUD 16CM     0000001000+00003507+00000+0001T   00003507+0000001405          1400 FM8510               2AZ
124655000124655               124655               170213ER     1400+00000+ER0000017918+0000017918+000000000+000002512+0000020430+0000000000+I20000000000+0000020430+Z
124655001124655112-116038     124655006009681820246TCS CARRIER BAG MIDI   0000001000+00000035+00000+0001T   00000035+0000001408          1400 FM8090               2AZ
124655002124655032-000334     124655006003000352395MIRROR HAND PL 23X31CM 0000001000+00004385+00000+0001T   00004385+0000001408          1400 FM8510               2AZ
124655003124655007-000120     124655006009698062714BOOK DRAWING A4 24-PAGE0000001000+00000525+00000+0001T   00000525+0000001408          1400 FM8130               2AZ
124655004124655007-000160     124655006009685857286NOTE-BOOK A5 SHORTHAND 0000001000+00001227+00000+0001T   00001227+0000001408          1400 FM8130               2AZ
124655005124655033-001389     124655006003000622344HAIR PINS BLACK 3PC 12c0000001000+00002192+00000+0001T   00002192+0000001408          1400 FM8200               2AZ
124655006124655033-001365     124655006001023802118HAIR CLIPS 200PC ASSTD 0000001000+00002630+00000+0001T   00002630+0000001408          1400 FM8200               2AZ
124655007124655079-003009     124655006003000448722A/TUBE 75ML NATURAL    0000001000+00001753+00000+0001T   00001753+0000001408          1400 FM8130               2AZ
124655008124655079-003010     124655006003000448845A/TUBE 75ML YELLOW     0000001000+00001753+00000+0001T   00001753+0000001408          1400 FM8130               2AZ
124655009124655174-008034     124655006009654960610TRAVEL BOTTLES 150ml   0000001000+00001928+00000+0001T   00001928+0000001408          1400 FM8205               2AZ
124655010124655051-002401     124655006001023523570TRIGGER-SPRAYER   300ml0000001000+00001490+00000+0001T   00001490+0000001408          1400 FM8820               2AZ
124656000124656               124656               170213ER     1400+00000+ER0000008770+0000008770+000000000+000001228+0000009990+0000000008+I20000000000+0000009990+Z
124656001124656006-000190     124656006003000685530BALLOONS LOVE 81x91cm  0000002000+00004385+00000+0001T   00004385+0000001409          1400 FM8131               2AZ
124657000124657               124657               170213ER     1400+00000+ER0000002366+0000002366+000000000+000000332+0000002690+0000000008+I20000000000+0000002690+Z
124657001124657565-004101     124657006003000548033BALL BOUNCING EGG      0000001000+00001490+00000+0001T   00001490+0000001413          1400 FM8745               2AZ
124657002124657089-000192-A   124657006001023901774KEY-CHAIN ACRYLIC      0000001000+00000876+00000+0001T   00000876+0000001413          1400 FM8205               2AZ
124658000124658               124658               170213ER     1400+00000+ER0000003507+0000003507+000000000+000000491+0000003990+0000000008+I20000000000+0000003990+Z
124658001124658031-086102     124658006001023900722P/FRAME PL WORD-TOP 4AS0000001000+00003507+00000+0001T   00003507+0000001417          1400 FM8510               2AZ
124659000124659               124659               170213ER     1400+00000+ER0000006138+0000006138+000000000+000000860+0000006990+0000000008+I20000000000+0000006990+Z
124659001124659037-000004     124659006001023763679ASHTRAY PL TUB 8X11CM  0000001000+00001753+00000+0001T   00002192+0008191422          1400 FM8515               2AZ
124659002124659031-000860-B   124659006001023798206P/FRAME PL ANTIQUE-BLK 0000001000+00004385+00000+0001T   00004385+0000001422          1400 FM8510               2AZ
124660000124660               124660               170213ER     1400+00000+ER0000008372+0000008372+000000000+000001176+0000009540+0000000008+I20000000000+0000009540+Z
124660001124660112-116069     124660006009681820277TCS CARRIER BAG JUMBO  0000001000+00000048+00000+0001T   00000048+0000001426          1400 FM8090               2AZ
124660002124660039-001020     124660006001023617798CANDLES FLOATING BOX-4 0000001000+00002455+00000+0001T   00002455+0000001426          1400 FM8510               2AZ
124660003124660039-000026     124660006001023551610C/TAPERED 25CM M/RED   0000001000+00001051+00000+0001T   00001051+0000001426          1400 FM8510               2AZ
124660004124660903-000077     124660006939873501687SWT GS MAGIC ROCK FRUIT0000002000+00000525+00000+0001T   00000525+0000001426          1400 FM8150               2AZ
124660005124660903-000200     124660006009826020234SWT CHOC RP CHOCO 23G  0000001000+00000788+00000+0001T   00000788+0000001426          1400 FM8150               2AZ
124660006124660077-000010-C   124660006001023123879CREPE-PAPER RED        0000001000+00000788+00000+0001T   00000788+0000001426          1400 FM8112               2AZ
124660007124660080-000127     124660006003000424351VALENTINES DAY 36x24CM 0000001000+00002192+00000+0001T   00002192+0000001426          1400 FM8112               2AZ
124661000124661               124661               170213ER     1400+00000+ER0000004385+0000004385+000000000+000000614+0000004990+0000000009+I20000000000+0000004990+Z
124661001124661368-000049     124661006003000536955PLUSH BEAR 15cm LOVE   0000001000+00004385+00000+0001T   00004385+0000001432          1400 FM8745               2AZ
124662000124662               124662               170213ER     1400+00000+ER0000007062+0000007062+000000000+000000989+0000008050+0000000001+I20000000000+0000008050+Z
124662001124662112-116069     124662006009681820277TCS CARRIER BAG JUMBO  0000001000+00000048+00000+0001T   00000048+0000001435          1400 FM8090               2AZ
124662002124662018-000136     124662006001023659026MUG OCC LOVE W/PLUSH   0000002000+00003507+00000+0001T   00003507+0000001435          1400 FM8515               2AZ
124663000124663               124663               170213ER     1400+00000+ER0000003542+0000003542+000000000+000000496+0000004038+0000000000+I40000004038+0000000000+Z
124663001124663018-000136     124663006001023659026MUG OCC LOVE W/PLUSH   0000001000+00003507+00000+0001T   00003507+0000001439          1400 FM8515               2AZ
124663002124663112-116038     124663006009681820246TCS CARRIER BAG MIDI   0000001000+00000035+00000+0001T   00000035+0000001439          1400 FM8090               2AZ
124664000124664               124664               170213ER     1400+00000+ER0000004821+0000004821+000000000+000000675+0000005496+0000000000+I40000005496+0000000000+Z
124664001124664200-003019     124664006003000510856REFUSE BAGS 10PC D/STRN0000001000+00001314+00000+0001T   00001753+0008171441          1400 FM8214               2AZ
124664002124664263-000506     124664006001023790231CAR SET 3PK CONSTRUCT  0000001000+00003507+00000+0001T   00003507+0000001441          1400 FM8710               2AZ
124665000124665               124665               170213ER     1400+00000+ER0000002630+0000002630+000000000+000000369+0000002990+0000000009+I20000000000+0000002990+Z
124665001124665162-096854     124665006001492968544#TAG KIDS 6PK EARING   0000001000+00002630+00000+0001T   00002630+0000001445          1400 FM8160               2AZ
124666000124666               124666               170213ER     1400+00000+ER0000008199+0000008199+000000000+000001150+0000009340+0000000009+I20000000000+0000009340+Z
124666001124666112-116069     124666006009681820277TCS CARRIER BAG JUMBO  0000001000+00000048+00000+0001T   00000048+0000001451          1400 FM8090               2AZ
124666002124666563-000318-L   124666006003000407088SERVIETTES 33cm RED    0000001000+00002192+00000+0001T   00002192+0000001451          1400 FM8214               2AZ
124666003124666077-000245     124666006001023759214GIFT-RIBBON METALLICx2 0000001000+00001227+00000+0001T   00001227+0000001451          1400 FM8112               2AZ
124666004124666077-000010-C   124666006001023123879CREPE-PAPER RED        0000001000+00000788+00000+0001T   00000788+0000001451          1400 FM8112               2AZ
124666005124666566-001012     124666006001023528070STICKERS GLOW IN DARK  0000001000+00001314+00000+0001T   00001314+0000001451          1400 FM8130               2AZ
124666006124666566-000367     124666006003000645558STICKER WINDOW DECOR   0000001000+00002630+00000+0001T   00002630+0000001451          1400 FM8130               2AZ
124667000124667               124667               170213ER     1400+00000+ER0000004383+0000004383+000000000+000000615+0000004990+0000000008+I20000000000+0000004990+Z
124667001124667039-000318     124667006003000406159B/DAY CANDLES SMALL NO 0000001000+00001753+00000+0001T   00001753+0000001452          1400 FM8510               2AZ
124667002124667039-000320     124667006001023816153BIRTHDAY-CANDLES 13PCE 0000001000+00002630+00000+0001T   00002630+0000001452          1400 FM8510               2AZ
124668000124668               124668               170213ER     1400+00000+ER0000000876+0000000876+000000000+000000123+0000000990+0000000009+I20000000000+0000000990+Z
124668001124668077-000150-D   124668006003000054343GIFT-WRAP CELLPHANE CLR0000001000+00000876+00000+0001T   00000876+0000001455          1400 FM8112               2AZ
124669000124669               124669               170213ER     1400+00000+ER0000007752+0000007752+000000000+000001086+0000008830+0000000008+I20000000000+0000008830+Z
124669001124669018-050000     124669006003000412679MUG OCC LOVE TWIN BEAR 0000001000+00006139+00000+0001T   00006139+0000001512          1400 FM8515               2AZ
124669002124669077-000303     124669006001023593757GIFT-BAG PAPER MED     0000001000+00001578+00000+0001T   00001578+0000001512          1400 FM8112               2AZ
124669003124669112-116038     124669006009681820246TCS CARRIER BAG MIDI   0000001000+00000035+00000+0001T   00000035+0000001512          1400 FM8090               2AZ
124670000124670               124670               170213ER     1400+00000+ER0000011402+0000011402+000000000+000001597+0000012990+0000000009+I20000000000+0000012990+Z
124670001124670368-000637     124670006001023874092PLUSH BEAR SLEEPING LOV0000001000+00011402+00000+0001T   00012279+0006471514          1400 FM8745               2AZ
124671000124671               124671               170213ER     1400+00000+ER0000001753+0000001753+000000000+000000246+0000001990+0000000009+I20000000000+0000001990+Z
124671001124671084-006995     124671006003000092802NAIL CLIPPER 8cm TOE   0000001000+00001753+00000+0001T   00001753+0000001518          1400 FM8200               2AZ
124672000124672               124672               170213ER     1400+00000+ER0000001788+0000001788+000000000+000000251+0000002030+0000000009+I20000000000+0000002030+Z
124672001124672027-077605     124672006001023997678STEELWOOL PADS 12PC 72g0000001000+00001753+00000+0001T   00001753+0000001524          1400 FM8212               2AZ
124672002124672112-116038     124672006009681820246TCS CARRIER BAG MIDI   0000001000+00000035+00000+0001T   00000035+0000001524          1400 FM8090               2AZ
124673000124673               124673               170213ER     1400+00000+ER0000007836+0000007836+000000000+000001099+0000008930+0000000005+I20000000000+0000008930+Z
124673001124673112-116038     124673006009681820246TCS CARRIER BAG MIDI   0000001000+00000035+00000+0001T   00000035+0000001525          1400 FM8090               2AZ
124673002124673018-000136     124673006001023659026MUG OCC LOVE W/PLUSH   0000001000+00003507+00000+0001T   00003507+0000001525          1400 FM8515               2AZ
124673003124673903-000710     124673006002099007056SWT REFRESHERS MINT    0000001000+00001139+00000+0001T   00001139+0000001525          1400 FM8150               2AZ
124673004124673018-000138     124673006003000547104MUG NOVELTY CER. T-SHPE0000001000+00001753+00000+0001T   00002192+0008171525          1400 FM8515               2AZ
124673005124673304-001204     124673006001023737984FLOWER OCC. TEDDY/ROSES0000001000+00001402+00000+0001T   00001490+0006471525          1400 FM8510               2AZ
124674000124674               124674               170213ER     1400+00000+ER0000003507+0000003507+000000000+000000491+0000003990+0000000008+I20000000000+0000003990+Z
124674001124674018-000136     124674006001023659026MUG OCC LOVE W/PLUSH   0000001000+00003507+00000+0001T   00003507+0000001526          1400 FM8515               2AZ
124675000124675               124675               170213ER     1400+00000+ER0000003507+0000003507+000000000+000000491+0000003990+0000000008+I20000000000+0000003990+Z
124675001124675018-000136     124675006001023659026MUG OCC LOVE W/PLUSH   0000001000+00003507+00000+0001T   00003507+0000001527          1400 FM8515               2AZ
124676000124676               124676               170213ER     1400+00000+ER0000007064+0000007064+000000000+000000990+0000008054+0000000000+I40000008054+0000000000+Z
124676001124676065-003639     124676006001023787620GUITAR ROCKER          0000001000+00007016+00000+0001T   00007016+0000001534          1400 FM8745               2AZ
124676002124676112-116069     124676006009681820277TCS CARRIER BAG JUMBO  0000001000+00000048+00000+0001T   00000048+0000001534          1400 FM8090               2AZ
124677000124677               124677               170213ER     1400+00000+ER0000004822+0000004822+000000000+000000676+0000005490+0000000008+I20000000000+0000005490+Z
124677001124677077-000926     124677006003000414178G/WRAP 700mmx2m LOVE   0000001000+00002192+00000+0001T   00002192+0000001537          1400 FM8112               2AZ
124677002124677077-000349-B   124677006001023908315G/RIBBON 3ROLLS 12BOWS 0000001000+00002630+00000+0001T   00002630+0000001537          1400 FM8112               2AZ
124678000124678               124678               170213ER     1400+00000+ER0000003507+0000003507+000000000+000000491+0000003990+0000000008+I20000000000+0000003990+Z
124678001124678089-000200     124678006003000485840KEY CHAIN POLY LOVE IS 0000001000+00003507+00000+0001T   00004385+0008121540          1400 FM8205               2AZ
124679000124679               124679               170213ER     1400+00000+ER0000008329+0000008329+000000000+000001167+0000009490+0000000006+I20000000000+0000009490+Z
124679001124679018-000136     124679006001023659026MUG OCC LOVE W/PLUSH   0000001000+00003507+00000+0001T   00003507+0000001547          1400 FM8515               2AZ
124679002124679077-000475     124679006003000640775GIFT-BAG DESIGNER MED  0000001000+00002630+00000+0001T   00002630+0000001547          1400 FM8112               2AZ
124679003124679080-000127     124679006003000424351VALENTINES DAY 36x24CM 0000001000+00002192+00000+0001T   00002192+0000001547          1400 FM8112               2AZ
124680000124680               124680               170213ER     1400+00000+ER0000003069+0000003069+000000000+000000430+0000003490+0000000009+I20000000000+0000003490+Z
124680001124680079-013098     124680006003000197040ART+CRAFT SET DIY      0000001000+00003069+00000+0001T   00003069+0000001547          1400 FM8130               2AZ
124681000124681               124681               170213ER     1400+00000+ER0000002628+0000002628+000000000+000000368+0000002990+0000000006+I20000000000+0000002990+Z
124681001124681903-000844     124681005010478432567SWT CANDY DL LUV HEARTS0000002000+00001314+00000+0001T   00001314+0000001548          1400 FM8150               2AZ
124682000124682               124682               170213ER     1400+00000+ER0000005260+0000005260+000000000+000000738+0000005990+0000000008+I20000000000+0000005990+Z
124682001124682077-000235     124682006003000160211GIFT-RIBBON ROLL METALC0000002000+00002630+00000+0001T   00002630+0000001549          1400 FM8112               2AZ
124683000124683               124683               170213ER     1400+00000+ER0000009255+0000009255+000000000+000001297+0000010550+0000000002+I20000000000+0000010550+Z
124683001124683112-116069     124683006009681820277TCS CARRIER BAG JUMBO  0000001000+00000048+00000+0001T   00000048+0000001601          1400 FM8090               2AZ
124683002124683080-000127     124683006003000424351VALENTINES DAY 36x24CM 0000001000+00002192+00000+0001T   00002192+0000001601          1400 FM8112               2AZ
124683003124683018-050000     124683006003000412679MUG OCC LOVE TWIN BEAR 0000001000+00006139+00000+0001T   00006139+0000001601          1400 FM8515               2AZ
124683004124683903-003080     124683005907029004673SWT SNACK STIX CHOC 50g0000001000+00000876+00000+0001T   00000876+0000001601          1400 FM8150               2AZ
124684000124684               124684               170213ER     1400+00000+ER0000007454+0000007454+000000000+000001044+0000008490+0000000008+I20000000000+0000008490+Z
124684001124684301-085003     124684006003000420827ORN OCCASION LOVE KEY  0000001000+00005262+00000+0001T   00005262+0000001602          1400 FM8505               2AZ
124684002124684033-000782     124684006001023905482COSMETIC SPONGES 12PC  0000001000+00002192+00000+0001T   00002192+0000001602          1400 FM8200               2AZ
124685000124685               124685               170213ER     1400+00000+ER0000003507+0000003507+000000000+000000491+0000003998+0000000000+I40000003998+0000000000+Z
124685002124685079-105607     124685006003000231164ART+CRAFT WDN RUBER+INK0000001000+00003507+00000+0001T   00003507+0000001620          1400 FM8130               2AZ
124686000124686               124686               170213ER     1400+00000+ER0000025043+0000025043+000000000+000003508+0000028551+0000000000+I40000028551+0000000000+Z
124686001124686104-000140     124686006002923019835WASTEPAPER BIN FLIP 24L0000001000+00011402+00000+0001T   00011402+0000001625          1400 FM8210               2AZ
124686002124686112-116069     124686006009681820277TCS CARRIER BAG JUMBO  0000001000+00000048+00000+0001T   00000048+0000001625          1400 FM8090               2AZ
124686003124686080-000127     124686006003000424351VALENTINES DAY 36x24CM 0000001000+00002192+00000+0001T   00002192+0000001625          1400 FM8112               2AZ
124686004124686301-085003     124686006003000420827ORN OCCASION LOVE KEY  0000001000+00005262+00000+0001T   00005262+0000001625          1400 FM8505               2AZ
124686005124686018-050000     124686006003000412679MUG OCC LOVE TWIN BEAR 0000001000+00006139+00000+0001T   00006139+0000001625          1400 FM8515               2AZ
124687000124687               124687               170213ER     1400+00000+ER0000001314+0000001314+000000000+000000184+0000001490+0000000008+I20000000000+0000001490+Z
124687001124687159-000149     124687006003000010998SOAP-DISH FOUR-LEAF    0000001000+00001314+00000+0001T   00001314+0000001626          1400 FM8200               2AZ
124688000124688               124688               170213ER     1400+00000+ER0000010744+0000010744+000000000+000001506+0000012250+0000000000+I40000012250+0000000000+Z
124688001124688112-116069     124688006009681820277TCS CARRIER BAG JUMBO  0000001000+00000048+00000+0001T   00000048+0000001629          1400 FM8090               2AZ
124688002124688077-000452     124688006003000284986G/BAG METALLIC MED EMB 0000001000+00001490+00000+0001T   00001490+0000001629          1400 FM8112               2AZ
124688003124688077-000311     124688006001023608666GIFT-BAG 11X14CM GLOSS 0000001000+00000613+00000+0001T   00000613+0000001629          1400 FM8112               2AZ
124688004124688018-000170     124688006001023775528MUG OCC. LOVE 2PC MINI 0000001000+00002192+00000+0001T   00002192+0000001629          1400 FM8515               2AZ
124688005124688018-019000     124688006003000557288MUG OCC. LOVE JUMBO    0000001000+00005262+00000+0001T   00005262+0000001629          1400 FM8515               2AZ
124688006124688903-000087     124688006001704000161SWT SPECKLED-EGGS 50G  0000001000+00001139+00000+0001T   00001139+0000001629          1400 FM8150               2AZ
124689000124689               124689               170213ER     1400+00000+ER0000005297+0000005297+000000000+000000742+0000006030+0000000009+I20000000000+0000006030+Z
124689001124689018-019000     124689006003000557288MUG OCC. LOVE JUMBO    0000001000+00005262+00000+0001T   00005262+0000001640          1400 FM8515               2AZ
124689002124689112-116038     124689006009681820246TCS CARRIER BAG MIDI   0000001000+00000035+00000+0001T   00000035+0000001640          1400 FM8090               2AZ
124690000124690               124690               170213ER     1400+00000+ER0000006519+0000006519+000000000+000000915+0000007434+0000000000+I40000007434+0000000000+Z
124690001124690112-116038     124690006009681820246TCS CARRIER BAG MIDI   0000001000+00000035+00000+0001T   00000035+0000001642          1400 FM8090               2AZ
124690002124690077-000322     124690006001023677532GIFT-BAG 18X23CM E/D FL0000001000+00001227+00000+0001T   00001227+0000001642          1400 FM8112               2AZ
124690003124690903-002853     124690000000087108019MENTOS ROLL MINT       0000001000+00001051+00000+0001T   00001051+0000001642          1400 FM8150               2AZ
124690004124690362-003000     124690006003000295258GIRL HEART NOTEBOOK    0000001000+00001753+00000+0001T   00002630+0008191642          1400 FM8160               2AZ
124690005124690071-003040     124690006003000543342PEN CLUTCH+LEAD 5pce   0000001000+00001753+00000+0001T   00001753+0000001642          1400 FM8130               2AZ
124690006124690266-001499     124690006001023624925TOP & STRING 2 PACK    0000001000+00000700+00000+0001T   00000700+0000001642          1400 FM8710               2AZ
124691000124691               124691               170213ER     1400+00000+ER0000007016+0000007016+000000000+000000983+0000007990+0000000009+I20000000000+0000007990+Z
124691001124691105-002013     124691006002580008494CONTAINER SET 18PCE    0000001000+00007016+00000+0001T   00007016+0000001648          1400 FM8210               2AZ
124692000124692               124692               170213ER     1400+00000+ER0000003069+0000003069+000000000+000000430+0000003499+0000000000+I40000003499+0000000000+Z
124692001124692030-000040     124692006003000396375PLAQUE WDN HANGING HRTS0000001000+00003069+00000+0001T   00003069+0000001651          1400 FM8505               2AZ
124693000124693               124693               170213ER     1400+00000+ER0000003539+0000003539+000000000+000000497+0000004036+0000000000+I40000004036+0000000000+Z
124693001124693112-116038     124693006009681820246TCS CARRIER BAG MIDI   0000001000+00000035+00000+0001T   00000035+0000001653          1400 FM8090               2AZ
124693002124693903-000503     124693006001704006118SWT VAMPIRE FANGS 60G  0000004000+00000876+00000+0001T   00000876+0000001653          1400 FM8150               2AZ
124694000124694               124694               170213ER     1400+00000+ER0000014720-0000000000+000000000+000000000+0000014720-0000000000+I20000000000+0000014720-Z
124694001124694001-999901     124694000000000999901CASUAL WAGES           0000001000-00014720+00000+0001X  9007220490086 0800AHLAFA0000000000 FM89011IC            2 Z
124695000124695               124695               170213ER     1400+00000+ER0000002630+0000002630+000000000+000000369+0000002990+0000000009+I20000000000+0000002990+Z
124695001124695050-000364-Z   124695006001023777133PADLOCK IRON 38mm CARD 0000001000+00002630+00000+0001T   00002630+0000001703          1400 FM8855               2AZ
124696000124696               124696               170213ER     1400+00000+ER0000005294+0000005294+000000000+000000743+0000006037+0000000000+I40000006037+0000000000+Z
124696001124696306-007302     124696006001023730954BACK-SCRATCH+MASSAGE-WH0000001000+00001753+00000+0001T   00001753+0000001707          1400 FM8200               2AZ
124696002124696566-000007     124696006001023761187S/BOOK SUPER VALUE     0000001000+00001753+00000+0001T   00001753+0000001707          1400 FM8130               2AZ
124696003124696007-000723     124696006003000226078MEMO BOOK W/PEN 100SHTS0000001000+00001753+00000+0001T   00001753+0000001707          1400 FM8130               2AZ
124696004124696112-116038     124696006009681820246TCS CARRIER BAG MIDI   0000001000+00000035+00000+0001T   00000035+0000001707          1400 FM8090               2AZ
124697000124697               124697               170213ER     1400+00000+ER0000006139+0000006139+000000000+000000860+0000006999+0000000000+I40000006999+0000000000+Z
124697001124697018-005007     124697006003000515516MUG OCC. LOVE W/HEARTS 0000001000+00006139+00000+0001T   00006139+0000001711          1400 FM8515               2AZ
124698000124698               124698               170213ER     1400+00000+ER0000000035+0000000035+000000000+000000005+0000000040+0000000000+I20000000000+0000000040+Z
124698001124698112-116038     124698006009681820246TCS CARRIER BAG MIDI   0000001000+00000035+00000+0001T   00000035+0000001712          1400 FM8090               2AZ
124699000124699               124699               170213ER     1400+00000+ER0000003681+0000003681+000000000+000000517+0000004190+0000000008+I20000000000+0000004190+Z
124699001124699077-000270     124699006003000395453GIFT-BAG PPR JMB 33X45 0000001000+00002630+00000+0001T   00002630+0000001712          1400 FM8112               2AZ
124699002124699903-002850     124699000000087108262MENTOS ROLL FRUIT      0000001000+00001051+00000+0001T   00001051+0000001712          1400 FM8150               2AZ
124700000124700               124700               170213ER     1400+00000+ER0000002102+0000002102+000000000+000000295+0000002390+0000000007+I20000000000+0000002390+Z
124700001124700567-010542     124700009781743461778PIXIE HELLO KITTY ASSTD0000001000+00000700+00000+0001T   00000876+0008131713          1400 FM8757               2AZ
124700002124700903-000925     124700006009706300296SWT NOVELTY SURPRISE   0000001000+00001402+00000+0001T   00001402+0000001713          1400 FM8150               2AZ
124701000124701               124701               170213ER     1400+00000+ER0000008768+0000008768+000000000+000001229+0000009990+0000000007+I20000000000+0000009990+Z
124701001124701065-006072     124701006003000466627WOODEN HARMONICA 12.7cm0000001000+00005262+00000+0001T   00005262+0000001716          1400 FM8745               2AZ
124701002124701565-000050     124701006001023906199SLIME BOMB DISPLAY BOX 0000001000+00001753+00000+0001T   00001753+0000001716          1400 FM8745               2AZ
124701003124701903-000610     124701006003000610518SWEET JUMBO BUBBLE GUM 0000001000+00001753+00000+0001T   00001753+0000001716          1400 FM8150               2AZ
124702000124702               124702               170213ER     1400+00000+ER0000004642+0000004642+000000000+000000652+0000005290+0000000004+I20000000000+0000005290+Z
124702001124702105-001005     124702006001023858214CONTAINERS MINI 6PCE   0000001000+00001402+00000+0001T   00001402+0000001717          1400 FM8210               2AZ
124702002124702078-009100     124702006008741002349ALL-CLEAR GLUE 25ml CRD0000001000+00001314+00000+0001T   00001314+0000001717          1400 FM8810               2AZ
124702003124702903-000897     124702008692806325207SWT CHOC DBL MINI ROLL 0000001000+00000876+00000+0001T   00000876+0000001717          1400 FM8150               2AZ
124702004124702903-000151     124702006009803374411SWT SML RND R/BOW LOLLY0000002000+00000525+00000+0001T   00000525+0000001717          1400 FM8150               2AZ
124703000124703               124703               170213ER     1400+00000+ER0000003069+0000003069+000000000+000000430+0000003499+0000000000+I40000003499+0000000000+Z
124703001124703203-007003     124703006003000116331SHOT-GLASS DISPOSABLE  0000001000+00003069+00000+0001T   00003069+0000001719          1400 FM8300               2AZ
124704000124704               124704               170213ER     1400+00000+ER0000005995+0000005995+000000000+000000841+0000006836+0000000000+I40000006836+0000000000+Z
124704001124704564-000012     124704006001023130075BUBBLE BOTTLE MAGIC    0000001000+00000700+00000+0001T   00000700+0000001721          1400 FM8131               2AZ
124704002124704564-000011     124704006001023865892BUBBLE REFILL 350ml    0000001000+00002630+00000+0001T   00002630+0000001721          1400 FM8131               2AZ
124704003124704564-000024     124704006003000140985BUBBLE W/PAN PLAY SET  0000001000+00002630+00000+0001T   00002630+0000001721          1400 FM8131               2AZ
124704004124704112-116038     124704006009681820246TCS CARRIER BAG MIDI   0000001000+00000035+00000+0001T   00000035+0000001721          1400 FM8090               2AZ
124705000124705               124705               170213ER     1400+00000+ER0000014426+0000014426+000000000+000002021+0000016440+0000000007+I20000000000+0000016440+Z
124705001124705112-116069     124705006009681820277TCS CARRIER BAG JUMBO  0000001000+00000048+00000+0001T   00000048+0000001725          1400 FM8090               2AZ
124705002124705018-000170     124705006001023775528MUG OCC. LOVE 2PC MINI 0000002000+00002192+00000+0001T   00002192+0000001725          1400 FM8515               2AZ
124705003124705089-000017     124705006003000331147KEYCHAIN MOM POLY BOX  0000001000+00004385+00000+0001T   00004385+0000001725          1400 FM8205               2AZ
124705004124705030-000030-A   124705006003000249305PLAQUE GLASS LOVE      0000001000+00003069+00000+0001T   00003069+0000001725          1400 FM8505               2AZ
124705005124705077-000312     124705006001023608697GIFT-BAG 10X35CM GLOSS 0000001000+00001314+00000+0001T   00001314+0000001725          1400 FM8112               2AZ
124705006124705077-000311     124705006001023608666GIFT-BAG 11X14CM GLOSS 0000002000+00000613+00000+0001T   00000613+0000001725          1400 FM8112               2AZ
124706000124706               124706               170213ER     1400+00000+ER0000003156+0000003156+000000000+000000442+0000003590+0000000008+I20000000000+0000003590+Z
124706001124706077-000303     124706006001023593757GIFT-BAG PAPER MED     0000002000+00001578+00000+0001T   00001578+0000001726          1400 FM8112               2AZ
124707000124707               124707               170213ER     1400+00000+ER0000000048+0000000048+000000000+000000007+0000000050+0000000005+I20000000000+0000000050+Z
124707001124707112-116069     124707006009681820277TCS CARRIER BAG JUMBO  0000001000+00000048+00000+0001T   00000048+0000001726          1400 FM8090               2AZ
124708000124708               124708               170213ER     1400+00000+ER0000004820+0000004820+000000000+000000676+0000005490+0000000006+I20000000000+0000005490+Z
124708001124708080-000111     124708006003000252695CARD&ENVELPE - MUSICAL 0000001000+00001753+00000+0001T   00001753+0000001733          1400 FM8112               2AZ
124708002124708080-000114     124708006003000246472CARD&ENV LOVE-MUSICAL  0000001000+00001314+00000+0001T   00001753+0008151733          1400 FM8112               2AZ
124708003124708080-000116     124708006003000253555CARD&ENVELOPE-HANDMADE 0000001000+00001753+00000+0001T   00001753+0000001733          1400 FM8112               2AZ
124709000124709               124709               170213ER     1400+00000+ER0000000035+0000000035+000000000+000000005+0000000040+0000000000+I20000000000+0000000040+Z
124709001124709112-116038     124709006009681820246TCS CARRIER BAG MIDI   0000001000+00000035+00000+0001T   00000035+0000001734          1400 FM8090               2AZ
124710000124710               124710               170213ER     1400+00000+ER0000005611+0000005611+000000000+000000786+0000006397+0000000000+I40000006397+0000000000+Z
124710001124710028-000795     124710006001023812063SKEWERS 10cm 100PCE 3mm0000001000+00000964+00000+0001T   00000964+0000001736          1400 FM8305               2AZ
124710002124710366-000451     124710006003000653508DRESS UP HEADBAND ASSTD0000001000+00002192+00000+0001T   00002192+0000001736          1400 FM8131               2AZ
124710003124710562-000009     124710000490810407180PLAY MODELLING CARDED  0000001000+00002455+00000+0001T   00002455+0000001736          1400 FM8755               2AZ
124711000124711               124711               170213ER     1400+00000+ER0000003506+0000003506+000000000+000000492+0000003990+0000000008+I20000000000+0000003990+Z
124711001124711080-000101     124711006003000236732CARD&ENVLPE FEMALE     0000001000+00001753+00000+0001T   00001753+0000001739          1400 FM8112               2AZ
124711002124711080-000100     124711006003000236114CARD & ENVELOPE BDAY   0000001000+00001753+00000+0001T   00001753+0000001739          1400 FM8112               2AZ
124712000124712               124712               170213ER     1400+00000+ER0000003507+0000003507+000000000+000000491+0000003998+0000000000+I40000003998+0000000000+Z
124712001124712002-000679     124712006003000426188K/TOOL SET NYLON 3PC   0000001000+00003507+00000+0001T   00003507+0000001742          1400 FM8300               2AZ
124713000124713               124713               170213ER     1400+00000+ER0000004254+0000004254+000000000+000000598+0000004850+0000000002+I20000000000+0000004850+Z
124713001124713304-001204     124713006001023737984FLOWER OCC. TEDDY/ROSES0000003000+00001402+00000+0001T   00001490+0006471747          1400 FM8510               2AZ
124713002124713112-116069     124713006009681820277TCS CARRIER BAG JUMBO  0000001000+00000048+00000+0001T   00000048+0000001747          1400 FM8090               2AZ
124714000124714               124714               170213ER     1400+00000+ER0000002629+0000002629+000000000+000000369+0000002990+0000000008+I20000000000+0000002990+Z
124714001124714006-000804     124714006003000574445STREAMERS 6-ROLLS 2.5cm0000001000+00001753+00000+0001T   00001753+0000001748          1400 FM8131               2AZ
124714002124714077-000011-E   124714006001023808646TISSUE-WRAP PINK 10PCE 0000001000+00000876+00000+0001T   00000876+0000001748          1400 FM8112               2AZ
124715000124715               124715               170213ER     1400+00000+ER0000013198+0000013198+000000000+000001851+0000015049+0000000000+I40000015049+0000000000+Z
124715001124715077-000475     124715006003000640775GIFT-BAG DESIGNER MED  0000001000+00002630+00000+0001T   00002630+0000001750          1400 FM8112               2AZ
124715002124715301-085001     124715006003000297610ORN WATERBALL LOVE ASST0000001000+00004823+00000+0001T   00004823+0000001750          1400 FM8505               2AZ
124715003124715301-085006     124715006001023502940ORN LOVE MSG TUBE W/HRT0000001000+00001753+00000+0001T   00001753+0000001750          1400 FM8505               2AZ
124715004124715301-085004     124715006003000420469ORN LOVE PLAQUE 21X10CM0000001000+00003507+00000+0001T   00003946+0006471750          1400 FM8505               2AZ
124715005124715112-116069     124715006009681820277TCS CARRIER BAG JUMBO  0000001000+00000048+00000+0001T   00000048+0000001750          1400 FM8090               2AZ
124715006124715080-000133     124715006003000535613CARD&ENV MINI ASTD DSGN0000001000+00000437+00000+0001T   00000437+0000001750          1400 FM8112               2AZ
124716000124716               124716               170213ER     1400+00000+ER0000002455-0000002455-000000000+000000344-0000002800-0000000001+I20000000000+0000002800-Z
124716001124716562-000009     124716000490810407180PLAY MODELLING CARDED  0000001000-00002455+00000+0001T   00002455+0000001751          1400 FM87552IC            2 Z
A17021300                                          07291985ERSLAVE 2                       TW71IC
A17021301                                          08552724ERSLAVE 2                       FM81IC
C12468500                                          170213ER077-000380     16190742SLAVE 2     FM83IC0000000000+0000000000+0010000001000+
M17021391                              CASH        ERSLAVE 2                       Z-REPORT No.   618TOTAL (Sales - Refunds)           7539.20       CASH TO BE BANKED                 5466.50       DEBIT CARDS                          0.00       CREDIT CARDS                      1905.50       Z-READING                         7372.00       AIRTIME DEBIT CARD SALES             0.00       AIRTIME CARD SALES                   0.00       OVERS/UNDERS                         0.00       AIRTIME CASH SALES                   0.00       GIFT CARDS                           0.00       GIFT CARD CASH SALES                 0.00       STATIONERY(PHOTOCOPIES)             20.00       CASUAL WAGES                       147.20       T O T A L  CASH PAYOUTS            167.20                                                                                                                                                                                                                                                      Z
M17021392                              CASH        ERABSENT                                                                                                                                                                                          ANNUAL LEAVE                                                                                                                                                                                    DAY OFF                                                                                                                                                                                         COMMENTS                                                                                                                                                                                                                                                                                                                                                                                       Z
Y17021300                                          ER00000000664157+000101
ZER17021319343 SLAVE 2      SALES DATA                     NEXT INVOICE NO.  124717 0618
F094637105-001000         1702010956260000032ICSLAVE 2
T094779018-000127                                          1702131005170000031ICSLAVE 2
X ER Slave 2 First invoice 124613 170213 Last invoice 124716 170213 Next invoice 124717 Total number of records 000000362 clbackup completed 19:34:56
