140561000140561               140561               170213ES     1400+00000+ES0000359944+0000359944+000000000+000050431+0000410375+           I00000000000+0000000000+Z
140561001140561079-105745     140561006003000539963ART+CRAFT MUG DIY      0000001000+00009648+00000+0001T                                1400 1IC1301ICD             Z
140561002140561003-000027     140561006003000419807P/STICK WDN KIDS GARDEN0000002000+00001314+00000+0001T                                1400 1IC5051ICD             Z
140561003140561903-000200     140561006009826020234SWT CHOC RP CHOCO 23G  0000003000+00000788+00000+0001T                                1400 1IC1501ICD             Z
140561004140561018-000177     140561006001023797513MUG MINI LOVE ASSTD    0000002000+00000700+00000+0001T                                1400 1IC5151ICD             Z
140561005140561564-000012     140561006001023130075BUBBLE BOTTLE MAGIC    0000001000+00000700+00000+0001T                                1400 1IC1311ICD             Z
140561006140561301-086004     140561006001023860422ORN SENTIMENT PLAQ/FRAM0000001000+00005262+00000+0001T                                1400 1IC5051ICD             Z
140561007140561108-001235     140561006003000462766SALAD BOWL PS 16cm-DIA 0000001000+00001314+00000+0001T                                1400 1IC2101ICD             Z
140561008140561903-000200     140561006009826020234SWT CHOC RP CHOCO 23G  0000002000+00000788+00000+0001T                                1400 1IC1501ICD             Z
140561009140561031-000878-A   140561006001023798985P/FRAME 10x15cm PL-SLID0000001000+00000876+00000+0001T                                1400 1IC5101ICD             Z
140561010140561032-000234     140561006003000191833M/HAND W/COMB 2PC PL   0000001000+00002192+00000+0001T                                1400 1IC5101ICD             Z
140561011140561079-000510     140561006001023509079CRAYONS WAX 12-COLOUR  0000001000+00002455+00000+0001T                                1400 1IC1301ICD             Z
140561012140561903-000183     140561006003000451043SWT LB HEART LOLLY     0000001000+00000393+00000+0001T                                1400 1IC1501ICD             Z
140561013140561467-000016     140561006001023705334BEACH-SET 6PCE TRUCK   0000001000+00026314+00000+0001T                                1400 1IC7851ICD             Z
140561014140561463-000141     140561006003000521609WATER BLASTER LONG     0000003000+00003507+00000+0001T                                1400 1IC7851ICD             Z
140561015140561467-000004     140561006001023347596NET FISHING 100cm LONG 0000001000+00002192+00000+0001T                                1400 1IC7851ICD             Z
140561016140561105-007525     140561008696287301569STORAGE BOX CLEAR 21L  0000001000+00016665+00000+0001T                                1400 1IC2101ICD             Z
140561017140561105-007510     140561006003000487424STORAGE BOX CLEAR 3.75L0000001000+00006139+00000+0001T                                1400 1IC2101ICD             Z
140561018140561032-000864-A   140561006001023836403MIRROR WDN 20X25 W/FRME0000001000+00007016+00000+0001T                                1400 1IC5101ICD             Z
140561019140561031-001008     140561006003000406531P/FRAME COLLAGE PLASTIC0000001000+00012279+00000+0001T                                1400 1IC5101ICD             Z
140561020140561105-007510     140561008696287301538STORAGE BOX CLEAR 3.75L0000001000+00006139+00000+0001T                                1400 1IC2101ICD             Z
140561021140561105-007510     140561006003000487424STORAGE BOX CLEAR 3.75L0000001000+00006139+00000+0001T                                1400 1IC2101ICD             Z
140561022140561027-009025     140561006003962000747DUSTPAN-SET PL         0000001000+00002630+00000+0001T                                1400 1IC2121ICD             Z
140561023140561560-000700     140561006001023865830GROWING ANIMALS ASSTD  0000001000+00001578+00000+0001T                                1400 1IC7451ICD             Z
140561024140561565-000050     140561006001023906199SLIME BOMB DISPLAY BOX 0000001000+00001753+00000+0001T                                1400 1IC7451ICD             Z
140561025140561565-000044     140561006003000128280BARREL OF SLIME 100g   0000001000+00000613+00000+0001T                                1400 1IC7451ICD             Z
140561026140561261-000121     140561006001023341600GUN-CAPS 8-SHOT CARD-9 0000001000+00000700+00000+0001T                                1400 1IC7101ICD             Z
140561027140561089-000100     140561006003000565665K/CHAIN PET LOVERS     0000001000+00002630+00000+0001T                                1400 1IC2051ICD             Z
140561028140561067-002201     140561006003000416073XMAS LOLLY RED/GRN CANE0000001000+00000525+00000+0001T                                1400 1IC1101ICD             Z
140561029140561124-001300     140561006003000486861STORAGE TIN WASHING    0000008000+00006139+00000+0001T                                1400 1IC3001ICD             Z
140561030140561306-001003     140561006003000560356BANDAGE ELASTIC 1PC    0000001000+00001753+00000+0001T                                1400 1IC2001ICD             Z
140561031140561162-097718     140561006001492977188#TAG CHARM BRACELET    0000001000+00003507+00000+0001T                                1400 1IC1601ICD             Z
140561032140561105-007050-B   140561006002580007411CEREAL-STORE 3L ASSTD  0000001000+00003507+00000+0001T                                1400 1IC2101ICD             Z
140561033140561079-009700-C   140561006003000545636PAPER SIRIO A4 VIOLET  0000002000+00000306+00000+0001T                                1400 1IC1301ICD             Z
140561034140561366-000256     140561006001023918406DRESS UP TIARA&EARRINGS0000001000+00003069+00000+0001T                                1400 1IC1311ICD             Z
140561035140561065-006076     140561006003000466863WOODEN 2PC MARACAS 19cm0000001000+00004385+00000+0001T                                1400 1IC7451ICD             Z
140561036140561565-000889     140561006003000626953NOVELTY SPACE BALLOONS 0000001000+00001753+00000+0001T                                1400 1IC7451ICD             Z
140561037140561565-001212     140561006001023658173NOVELTY MAGIC-SPRING   0000002000+00001753+00000+0001T                                1400 1IC7451ICD             Z
140561038140561159-062909     140561006001023716200HOOK-HANGER ASSTD      0000001000+00001753+00000+0001T                                1400 1IC2001ICD             Z
140561039140561027-056186     140561006003000638215DISH BRUSH DUCK DESIGN 0000001000+00002630+00000+0001T                                1400 1IC2121ICD             Z
140561040140561305-074102     140561006003000239788WIND-TWISTER ASST 70CM 0000001000+00001753+00000+0001T                                1400 1IC5051ICD             Z
140561041140561463-000124     140561006001023678768SWIM-GOGGLES           0000001000+00001753+00000+0001T                                1400 1IC7851ICD             Z
140561042140561032-000313     140561006003000192076MIRROR POCKET PL ROUND 0000001000+00001753+00000+0001T                                1400 1IC5101ICD             Z
140561043140561150-000776     140561006001023839756UTILITY/TOOL-BOX PL    0000002000+00003507+00000+0001T                                1400 1IC8101ICD             Z
140561044140561031-006535     140561006003000456543P/FRAME POLY PRINCE/CES0000001000+00001753+00000+0001T                                1400 1IC5101ICD             Z
140561045140561104-000131     140561006003000676996BASKET/ORGANISER ROUND 0000001000+00002630+00000+0001T                                1400 1IC2101ICD             Z
140561046140561032-000334     140561006003000352395MIRROR HAND PL 23X31CM 0000001000+00004385+00000+0001T                                1400 1IC5101ICD             Z
140561047140561162-093137     140561006001492931371#TAG Earring           0000001000+00003507+00000+0001T                                1400 1IC1601ICD             Z
140561048140561072-020278     140561006003000024100PET CAT LITTER PAN PL  0000002000+00003507+00000+0001T                                1400 1IC8701ICD             Z
140561049140561071-000012     140561006001177101006CHALK COLOUR 12PCE     0000001000+00000481+00000+0001T                                1400 1IC1301ICD             Z
140561050140561107-002106     140561006003000507115BASIN W/HANDLE/ICE BCKT0000001000+00003507+00000+0001T                                1400 1IC2101ICD             Z
140561051140561001-000001     140561006001023507266SHOT-GLASS 25ml        0000001000+00000350+00000+0001T                                1400 1IC5151ICD             Z
140561052140561903-000674     140561006009803358220SWT SHERBET W/LOLLY 4PK0000001000+00001314+00000+0001T                                1400 1IC1501ICD             Z
140561053140561903-000673     140561006009803358237SWT SHERBET GRAPE 4PK  0000001000+00000876+00000+0001T                                1400 1IC1501ICD             Z
140561054140561252-000013     140561006001023488107CURTN-HOOK R6 ACETYLx500000001000+00000876+00000+0001T                                1400 1IC8101ICD             Z
140561055140561051-600640     140561006001023868435PLANTER W/TRAY 69x23x160000001000+00007016+00000+0001T                                1400 1IC8201ICD             Z
140561056140561162-096641     140561006001492966410#TAG EARRINGS PEARL    0000001000+00000876+00000+0001T                                1400 1IC1601ICD             Z
140561057140561105-008005     140561006002580009484STORAGE CONTAINER 7.5L 0000001000+00004385+00000+0001T                                1400 1IC2101ICD             Z
140561058140561105-001315     140561006003000572854CONTAINER COLOUR RIM   0000001000+00002630+00000+0001T                                1400 1IC2101ICD             Z
140561059140561031-006540     140561006001023695031P/FRAME PL 3-(10X15CM) 0000001000+00006139+00000+0001T                                1400 1IC5101ICD             Z
140561060140561105-001300     140561006003000572618CONTAINER COLOUR RIM   0000001000+00002630+00000+0001T                                1400 1IC2101ICD             Z
140561061140561107-004105     140561006002923010504BUCKET 9L OPEN         0000001000+00001314+00000+0001T                                1400 1IC2101ICD             Z
140561062140561006-000230     140561006003000573998STRAW PARTY MOUSTACHE  0000001000+00002630+00000+0001T                                1400 1IC1311ICD             Z
140561063140561301-006020     140561006003000461493ORN OWL 8x6.5cm 4-ASSTD0000001000+00005262+00000+0001T                                1400 1IC5051ICD             Z
140561064140561079-009700-A   140561006003000547746PAPER SIRIO A4 BLACK   0000001000+00000306+00000+0001T                                1400 1IC1301ICD             Z
140561065140561079-009702-B   140561006003000546510PAPER SIRIO A2 WHITE   0000001000+00001051+00000+0001T                                1400 1IC1301ICD             Z
140561066140561031-000866-A   140561006001023798442P/FRAME WDN SEASIDE    0000001000+00006139+00000+0001T                                1400 1IC5101ICD             Z
140561067140561107-003102     140561006002580007657BASIN  34X48X16cm OVAL 0000001000+00004385+00000+0001T                                1400 1IC2101ICD             Z
140561068140561077-000916     140561006003000413577G/WRAP 700mmx2m BBY/KID0000001000+00002192+00000+0001T                                1400 1IC1121ICD             Z
140561069140561077-000920     140561006003000413812G/WRAP 700mmx2m BIRTHDA0000001000+00002192+00000+0001T                                1400 1IC1121ICD             Z
140561070140561203-007000     140561006001023886040SHOT-GLASS DISPOSABLE  0000001000+00003507+00000+0001T                                1400 1IC3001ICD             Z
140561071140561040-001007     140561006003000466382C/HOLDER SET TWSTY 50CM0000001000+00017542+00000+0001T                                1400 1IC5101ICD             Z
140561072140561362-003005     140561006003000295166HAIR H/BAND SET 2PCE   0000001000+00002192+00000+0001T                                1400 1IC1601ICD             Z
140561073140561039-000100     14056100600300060614625CM WHITE CANDLE 6PC  0000001000+00002630+00000+0001T                                1400 1IC5101ICD             Z
140561074140561039-000799     140561006001023692382CANDLES TEALITE 100PCE 0000001000+00008771+00000+0001T                                1400 1IC5101ICD             Z
140561075140561162-096647     140561006001492966472#TAG EARRINGS KIDS     0000001000+00001753+00000+0001T                                1400 1IC1601ICD             Z
140561076140561032-000334     140561006003000352395MIRROR HAND PL 23X31CM 0000001000+00004385+00000+0001T                                1400 1IC5101ICD             Z
140561077140561108-004000-B   140561006003000058419PLATE DINNER ASSTD CLR 0000001000+00000744+00000+0001T                                1400 1IC2101ICD             Z
140561078140561040-000172     140561006001023794536C/HOLDER GLS FRIENDSHIP0000001000+00003069+00000+0001T                                1400 1IC5101ICD             Z
140561079140561033-001403     140561006009654960504HAIR-CURLERS 4PC X-LRG 0000001000+00001227+00000+0001T                                1400 1IC2001ICD             Z
140561080140561089-000089     140561006003000576005KEY-CHAIN TROPHY DAD   0000001000+00002630+00000+0001T                                1400 1IC2051ICD             Z
140561081140561204-000003     140561006003000593583MEMO HOLDERS POLY 4ASST0000001000+00003507+00000+0001T                                1400 1IC3001ICD             Z
140561082140561007-000526     140561006001023637994STATIONERY GIRL FLOWER 0000001000+00007016+00000+0001T                                1400 1IC1301ICD             Z
140561083140561159-002369     140561006001023999191TOOTHBRUSH HOLDER PL 3 0000001000+00002630+00000+0001T                                1400 1IC2001ICD             Z
140562000140562               140562               170213ES     1400+00000+ES0000309576+0000309576+000000000+000043368+0000352944+           I90000000000+0000000000+Z
140562001140562261-003342     140562006001023484895GUN RIFLE ACTION-TEAM  0000001000+00004385+00000+0001T032979050000                    1400 1IC7101ICV             Z
140562002140562203-000007     140562006001023762856COASTER-SET 4PCE ROUND 0000001000+00007016+00000+0001T032979050000                    1400 1IC3001ICV             Z
140562003140562369-000201     140562006003000636655BABY TOY PLAY/LEARN    0000001000+00008771+00000+0001T032979050000                    1400 1IC7451ICV             Z
140562004140562032-000137     140562006001023763068MIRROR PL SWIVEL OVAL  0000001000+00002630+00000+0001T032979050000                    1400 1IC5101ICV             Z
140562005140562105-001075     140562006001023844873LUNCH BOX 17x11x7cm    0000001000+00003069+00000+0001T032979050000                    1400 1IC2101ICV             Z
140562006140562206-000140     140562006003000628544TEA INFUSER SIL. SUB.  0000001000+00003069+00000+0001T032979050000                    1400 1IC3211ICV             Z
140562007140562089-000501     140562006003000622900KEY CHAIN LIGHT LASER  0000001000+00002192+00000+0001T032979050000                    1400 1IC2051ICV             Z
140562008140562586-010753     140562006001492107530WATCH LDS MTL ASSTD    0000001000+00011402+00000+0001T032979050000                    1400 1IC1601ICV             Z
140562009140562365-003115     140562006003000157525PLAY-SET IRON+BOARD+ACC0000001000+00016665+00000+0001T032979050000                    1400 1IC7251ICV             Z
140562010140562018-000129     140562006001023403353MUG OCC. LOVE V-SHAPE  0000001000+00002630+00000+0001T032979050000                    1400 1IC5151ICV             Z
140562011140562082-026204     140562006001023816443R/GLASSES STRINGS 2PCE 0000001000+00000876+00000+0001T032979050000                    1400 1IC1601ICV             Z
140562012140562027-056185     140562006003000638093DISH BRUSH DUCK DESIGN 0000001000+00002630+00000+0001T032979050000                    1400 1IC2121ICV             Z
140562013140562022-002106     140562006003000142712MUG EN 6cm ASSTD COLORS0000001000+00001139+00000+0001T032979050000                    1400 1IC3051ICV             Z
140562014140562466-000806     140562006003000537303BOXING STAND WITH BALL 0000001000+00019297+00000+0001T032979050000                    1400 1IC7851ICV             Z
140562015140562266-001024     140562006003000022274SWORD SET MEDIEVAL     0000001000+00015788+00000+0001T032979050000                    1400 1IC7101ICV             Z
140562016140562263-000130     140562006003000305742MOTORBIKE B/BACK 11CM  0000001000+00002630+00000+0001T032979050000                    1400 1IC7101ICV             Z
140562017140562020-000010     140562006003000405718KNIFE SHARPENER SUCTION0000001000+00002630+00000+0001T032979050000                    1400 1IC3001ICV             Z
140562018140562466-001013     140562006001023508171CRICKET-SET SIZE-5     0000001000+00013157+00000+0001T032979050000                    1400 1IC7851ICV             Z
140562019140562306-000011     140562006003000108527TOOTH DENTURE BRUSH    0000001000+00002630+00000+0001T032979050000                    1400 1IC2001ICV             Z
140562020140562366-001112-C   140562006003000450404DRESSUP ANIMALS 7-9YRS 0000001000+00007016+00000+0001T032979050000                    1400 1IC1311ICV             Z
140562021140562079-001003     140562006003000588640ART+CRAFT PAINT CANVAS 0000001000+00010525+00000+0001T032979050000                    1400 1IC1301ICV             Z
140562022140562028-003602     140562006003000605224UMBRELLA-BEACH 200cm   0000001000+00013157+00000+0001T032979050000                    1400 1IC3051ICV             Z
140562023140562028-003601     140562006001023361387BEACH-UMBRELLA 170cm   0000003000+00010525+00000+0001T032979050000                    1400 1IC3051ICV             Z
140562024140562497-058330     140562000078257583300BOAT EXPLORER 200      0000001000+00017542+00000+0001T032979050000                    1400 1IC7871ICV             Z
140562025140562027-000230     140562006001023606198MOP COMPLETE WONDERMOP 0000001000+00008771+00000+0001T032979050000                    1400 1IC2121ICV             Z
140562026140562140-005093     140562006003000331338INSECT-KILL RAQT-SHAPED0000001000+00005262+00000+0001T032979050000                    1400 1IC8301ICV             Z
140562027140562065-003661     140562006003000308149DRUM JAZZ SET          0000001000+00022806+00000+0001T032979050000                    1400 1IC7451ICV             Z
140562028140562004-071205     140562006003000073368USB 2.0 COMPUTER 4 HUB 0000001000+00003507+00000+0001T032979050000                    1400 1IC3101ICV             Z
140562029140562004-071206     140562006003000605156USB CABLE CHARGER      0000001000+00003507+00000+0001T032979050000                    1400 1IC3101ICV             Z
140562030140562265-001646     140562006001023755902BATTERY OPERATED CAR   0000001000+00004385+00000+0001T032979050000                    1400 1IC7101ICV             Z
140562031140562004-071192     140562006003000528813USB CABLE 1.0m         0000001000+00002630+00000+0001T032979050000                    1400 1IC3101ICV             Z
140562032140562174-000010     140562006001023462381W/MACHINE-BAG 25x40cm  0000001000+00001753+00000+0001T032979050000                    1400 1IC2051ICV             Z
140562033140562365-008629     140562006001023494009PLAY C/PHONE B/O MUSIC 0000001000+00002630+00000+0001T032979050000                    1400 1IC7251ICV             Z
140562034140562261-000035     140562006003000550258GUN 4PC POLICE SET     0000001000-00003507+00000+0001T032979050000                    1400 1IC7101ICV             Z
140562035140562261-008349     140562006001023787590CAP-GUN 8-SHOT         0000001000+00002192+00000+0001T032979050000                    1400 1IC7101ICV             Z
140562036140562065-003671     140562006003000644650MUSICAL FLUTE 22cm     0000001000+00002630+00000+0001T032979050000                    1400 1IC7451ICV             Z
140562037140562159-006333     140562006001023909527TOWEL HOLDER PL/MTL    0000001000+00001314+00000+0001T032979050000                    1400 1IC2001ICV             Z
140562038140562175-000803     140562000772078200421HOTWATER BOTTLE RUBBER 0000001000+00005262+00000+0001T032979050000                    1400 1IC5201ICV             Z
140562039140562565-000017     140562006003000672516NOVELTY TONGUE SLING   0000001000+00001753+00000+0001T032979050000                    1400 1IC7451ICV             Z
140562040140562464-000111     140562006001023114624GAME SKITTLES WOODEN   0000001000+00006139+00000+0001T032979050000                    1400 1IC7851ICV             Z
140562041140562466-000075     140562006003000669288BALL RUGBY MESH 27.9cm 0000001000+00007016+00000+0001T032979050000                    1400 1IC7851ICV             Z
140562042140562051-500115     140562006003000528059GARDEN KID SPRAY BOTTLE0000001000+00001753+00000+0001T032979050000                    1400 1IC8201ICV             Z
140562043140562565-000001     140562006003000307951NOVELTY INSECT BALL    0000001000+00002630+00000+0001T032979050000                    1400 1IC7451ICV             Z
140562044140562046-000002     140562004897006175742BATTERIES SIZE:C   2PCE0000001000+00001753+00000+0001T032979050000                    1400 1IC3121ICV             Z
140562045140562565-001987     140562006001023801258NOVELTY CELLPHONE      0000001000+00002630+00000+0001T032979050000                    1400 1IC7451ICV             Z
140562046140562565-000888     140562006003000607846NOVELTY MESH BALL      0000002000+00001753+00000+0001T032979050000                    1400 1IC7451ICV             Z
140562047140562565-000041     140562006008766115642NOVELTY BALL ICON 5.5cm0000001000+00002630+00000+0001T032979050000                    1400 1IC7451ICV             Z
140562048140562565-007000     140562006003000321605NOVELTY SURPRISE EGGS  0000001000+00001051+00000+0001T032979050000                    1400 1IC7451ICV             Z
140562049140562565-000500     140562006003000636792NOVELTY CUSHION        0000001000+00001753+00000+0001T032979050000                    1400 1IC7451ICV             Z
140562050140562261-009935     140562006001023665256WATER-PISTOL 18x11cm   0000001000+00001753+00000+0001T032979050000                    1400 1IC7101ICV             Z
140562051140562067-003536     140562006003000663910XMAS LIGHTS B/O 24PC   0000001000+00007893+00000+0001T032979050000                    1400 1IC1101ICV             Z
140562052140562463-000122     140562006001023188069SWIM-GOGGLES           0000001000+00001753+00000+0001T032979050000                    1400 1IC7851ICV             Z
M17021391                              CASH        ESSLAVE 4                       Z-REPORT No.   435TOTAL (Sales - Refunds)              0.00       CASH TO BE BANKED                    0.00       DEBIT CARDS                          0.00       CREDIT CARDS                         0.00       Z-READING                            0.00       AIRTIME DEBIT CARD SALES             0.00       AIRTIME CARD SALES                   0.00       OVERS/UNDERS                         0.00       AIRTIME CASH SALES                   0.00       GIFT CARDS                           0.00       GIFT CARD CASH SALES                 0.00       T O T A L  CASH PAYOUTS              0.00                                                                                                                                                                                                                                                                                                                                                      Z
M17021392                              CASH        ESABSENT                                                                                                                                                                                          ANNUAL LEAVE                                                                                                                                                                                    DAY OFF                                                                                                                                                                                         COMMENTS                                                                                                                                                                                                                                                                                                                                                                                       Z
Y17021300                                          ES00000000000000+000000
ZES17021321053 SLAVE 4      SALES DATA                     NEXT INVOICE NO.  140563 0435
F094838040-000127         1702110956020000011ICSLAVE 4
T094868366-002195                                          1702131032430000021ICSLAVE 4
X ES Slave 4 First invoice 140561 170213 Last invoice 140562 170213 Next invoice 140563 Total number of records 000000143 clbackup completed 21:05:54
