104464000104464               104464               170213ET     1400+00000+ET0000003507+0000003507+000000000+000000491+0000003990+0000000008+I20000000000+0000003990+Z
104464001104464007-000324     10446400600968585864125 SHEETS BRIGHTS MARLI0000001000+00003507+00000+0001T   00003507+0000000914          1400 NG7130               1AZ
104465000104465               104465               170213ET     1400+00000+ET0000010525+0000010525+000000000+000001474+0000011999+0000000000+I40000011999+0000000000+Z
104465001104465263-000218     104465006001023813565VEHICLE PICK UP TRUCK  0000001000+00010525+00000+0001T   00010525+0000000920          1400 NG7710               1AZ
104466000104466               104466               170213ET     1400+00000+ET0000019509+0000019509+000000000+000002735+0000022244+0000000000+I40000022244+0000000000+Z
104466001104466112-116069     104466006009681820277TCS CARRIER BAG JUMBO  0000001000+00000048+00000+0001T   00000048+0000000922          1400 NG7090               1AZ
104466002104466034-000329     104466006001023564290BOTTLE-BRUSHES WHT 2PCE0000001000+00001314+00000+0001T   00001314+0000000922          1400 NG7215               1AZ
104466003104466020-006200     104466006001023488510KNIVES PARING 2PCE H/H 0000001000+00001753+00000+0001T   00001753+0000000922          1400 NG7300               1AZ
104466004104466036-000020     104466006001023666512LINT-REMOVER B/O SMALL 0000001000+00003507+00000+0001T   00003507+0000000922          1400 NG7212               1AZ
104466005104466038-001803     104466006001023766588DOILIES 17cm RND 18PC  0000001000+00001753+00000+0001T   00001753+0000000922          1400 NG7300               1AZ
104466006104466264-000921     104466000090159150442MAISTO CAR 3" FRESH    0000002000+00001753+00000+0001T   00001753+0000000922          1400 NG7710               1AZ
104466007104466002-000741     104466006001023124777GRATER MINI W/CONTAINER0000001000+00001490+00000+0001T   00001490+0000000922          1400 NG7300               1AZ
104466008104466369-001034     104466006003000105632BABY RATTLE SINGLE ASST0000001000+00001753+00000+0001T   00001753+0000000922          1400 NG7745               1AZ
104466009104466369-000042     104466006001023993854BABY BEAR RATTLE ASSTD 0000001000+00004385+00000+0001T   00004385+0000000922          1400 NG7745               1AZ
104467000104467               104467               170213ET     1400+00000+ET0000001490+0000001490+000000000+000000209+0000001690+0000000009+I20000000000+0000001690+Z
104467001104467006-000788     104467006001023990228CROWN HAPPY BIRTHDAY   0000001000+00001490+00000+0001T   00001490+0000000922          1400 NG7131               1AZ
104468000104468               104468               170213ET     1400+00000+ET0000001490+0000001490+000000000+000000209+0000001690+0000000009+I20000000000+0000001690+Z
104468001104468306-000540     104468006003000165780T/BRUSH+GUM PROTECTION 0000001000+00001490+00000+0001T   00001490+0000000923          1400 NG7200               1AZ
104469000104469               104469               170213ET     1400+00000+ET0000002192+0000002192+000000000+000000307+0000002499+0000000000+I40000002499+0000000000+Z
104469001104469251-000002     104469006003000093991TAPE D-SIDED 24x1000mm 0000001000+00002192+00000+0001T   00002192+0000000949          1400 NG7810               1AZ
104470000104470               104470               170213ET     1400+00000+ET0000008449+0000008449+000000000+000001185+0000009630+0000000004+I20000000000+0000009630+Z
104470001104470007-000166     104470006009685857316SPIRAL NOTES A6 100PG  0000001000+00000700+00000+0001T   00000700+0000001026          1400 NG7130               1AZ
104470002104470047-001337-H   104470006001023429971INS-TAPE 20m BLACK     0000001000+00001753+00000+0001T   00001753+0000001026          1400 NG7880               1AZ
104470003104470046-002032-PK2 104470004897006175063BATTERIES CR-2032  2PCE0000001000+00001753+00000+0001T   00001753+0000001026          1400 NG7312               1AZ
104470004104470251-000031     104470006001023515827MASKING-TAPE 24mmx40m  0000001000+00001578+00000+0001T   00001578+0000001026          1400 NG7810               1AZ
104470005104470046-000011-A   104470006003000438891BATTERIES SIZE:AA  4PCE0000001000+00002630+00000+0001T   00002630+0000001026          1400 NG7312               1AZ
104470006104470112-116038     104470006009681820246TCS CARRIER BAG MIDI   0000001000+00000035+00000+0001T   00000035+0000001026          1400 NG7090               1AZ
104471000104471               104471               170213ET     1400+00000+ET0000003506+0000003506+000000000+000000492+0000003990+0000000008+I20000000000+0000003990+Z
104471001104471007-000192     104471006009635830062BOOK H/COVER A4 192PAGE0000002000+00001753+00000+0001T   00001753+0000001042          1400 NG7130               1AZ
104472000104472               104472               170213ET     1400+00000+ET0000003506+0000003506+000000000+000000492+0000003998+0000000000+I40000003998+0000000000+Z
104472001104472142-000815     104472006001023183903GLOVES RUBBER LARGE    0000002000+00001753+00000+0001T   00001753+0000001053          1400 NG7810               1AZ
104473000104473               104473               170213ET     1400+00000+ET0000002454+0000002454+000000000+000000344+0000002790+0000000008+I20000000000+0000002790+Z
104473001104473251-000041     104473006001023515889SEAL-TAPE BUFF 48mmx50m0000002000+00001227+00000+0001T   00001227+0000001121          1400 NG7810               1AZ
104474000104474               104474               170213ET     1400+00000+ET0000013152+0000013152+000000000+000001843+0000014990+0000000005+I20000000000+0000014990+Z
104474001104474306-000024-A   104474006003000577309COTTON-WOOL-PADS 80PC  0000001000+00001753+00000+0001T   00001753+0000001122          1400 NG7200               1AZ
104474002104474036-000519     104474006003000560752HOOK HANGER CHROME PL  0000001000+00003507+00000+0001T   00003507+0000001122          1400 NG7212               1AZ
104474003104474002-000460     104474006001023770219K/TOOL-RACK 6-PRONG    0000002000+00003946+00000+0001T   00003946+0000001122          1400 NG7300               1AZ
104475000104475               104475               170213ET     1400+00000+ET0000012278+0000012278+000000000+000001720+0000013998+0000000000+I40000013998+0000000000+Z
104475001104475203-005003     104475006003000088515GAME-ROULETTE W/6 GLASS0000001000+00010525+00000+0001T   00010525+0000001127          1400 NG7300               1AZ
104475002104475077-000908     104475006003000410927G/WRAP 700mmx1m FLOWER 0000001000+00001753+00000+0001T   00001753+0000001127          1400 NG7112               1AZ
104476000104476               104476               170213ET     1400+00000+ET0000001753-0000001753-000000000+000000246-0000002000-0000000001+I20000000000+0000002000-Z
104476001104476071-081103     104476006003000197002GLUE STICKS LIQUID 3PCE0000001000-00001753+00000+0001T   00001753+0000001129          1400 NG71301IC            1 Z
104477000104477               104477               170213ET     1400+00000+ET0000006137+0000006137+000000000+000000860+0000006990+0000000007+I20000000000+0000006990+Z
104477001104477107-003102     104477006002580007657BASIN  34X48X16cm OVAL 0000001000+00004385+00000+0001T   00004385+0000001137          1400 NG7210               1AZ
104477002104477002-021057     104477006001023812032T/PICKS UMBRELLAS 10PCE0000001000+00000876+00000+0001T   00000876+0000001137          1400 NG7300               1AZ
104477003104477028-000797     104477006001023812124SKEWERS 15cm 100PCE    0000001000+00000876+00000+0001T   00000876+0000001137          1400 NG7305               1AZ
104478000104478               104478               170213ET     1400+00000+ET0000001753+0000001753+000000000+000000246+0000001990+0000000009+I20000000000+0000001990+Z
104478001104478206-000590     104478006003000633708BAG CLIPS LIPS 2PC     0000001000+00001753+00000+0001T   00001753+0000001241          1400 NG7321               1AZ
104479000104479               104479               170213ET     1400+00000+ET0000006875+0000006875+000000000+000000963+0000007830+0000000008+I20000000000+0000007830+Z
104479001104479018-019000     104479006003000557288MUG OCC. LOVE JUMBO    0000001000+00005262+00000+0001T   00005262+0000001253          1400 NG7515               1AZ
104479002104479018-000127     104479006001023380289MUG OCC STRAIGHT LOVE  0000001000+00001578+00000+0001T   00001753+0006471253          1400 NG7515               1AZ
104479003104479112-116038     104479006009681820246TCS CARRIER BAG MIDI   0000001000+00000035+00000+0001T   00000035+0000001253          1400 NG7090               1AZ
104480000104480               104480               170213ET     1400+00000+ET0000002366+0000002366+000000000+000000332+0000002690+0000000008+I20000000000+0000002690+Z
104480001104480002-000741     104480006001023124777GRATER MINI W/CONTAINER0000001000+00001490+00000+0001T   00001490+0000001306          1400 NG7300               1AZ
104480002104480252-000013     104480006001023488107CURTN-HOOK R6 ACETYLx500000001000+00000876+00000+0001T   00000876+0000001306          1400 NG7810               1AZ
104481000104481               104481               170213ET     1400+00000+ET0000002630+0000002630+000000000+000000369+0000002990+0000000009+I20000000000+0000002990+Z
104481001104481027-008813     104481006001023552334DUSTER RETRCTABLE 122cm0000001000+00002630+00000+0001T   00002630+0000001310          1400 NG7212               1AZ
104482000104482               104482               170213ET     1400+00000+ET0000019994+0000019994+000000000+000002801+0000022795+0000000000+I40000022795+0000000000+Z
104482001104482077-000926     104482006003000414178G/WRAP 700mmx2m LOVE   0000001000+00002192+00000+0001T   00002192+0000001325          1400 NG7112               1AZ
104482002104482071-005213     104482006001023690371CELLOTAPE 12mmx33m     0000001000+00000876+00000+0001T   00000876+0000001325          1400 NG7130               1AZ
104482003104482368-000111     104482006001023780812PLUSH BEAR/DOG 29CM    0000001000+00012279+00000+0001T   00012279+0000001325          1400 NG7745               1AZ
104482004104482018-000170     104482006001023775528MUG OCC. LOVE 2PC MINI 0000001000+00002192+00000+0001T   00002192+0000001325          1400 NG7515               1AZ
104482005104482039-001020     104482006001023617798CANDLES FLOATING BOX-4 0000001000+00002455+00000+0001T   00002455+0000001325          1400 NG7510               1AZ
104483000104483               104483               170213ET     1400+00000+ET0000006659+0000006659+000000000+000000933+0000007590+0000000002+I20000000000+0000007590+Z
104483001104483018-000177     104483006001023797513MUG MINI LOVE ASSTD    0000001000+00000700+00000+0001T   00000700+0000001326          1400 NG7515               1AZ
104483002104483089-060027     104483006003000245871KEY-CHAIN HEART 6X6cm  0000001000+00003069+00000+0001T   00003069+0000001326          1400 NG7205               1AZ
104483003104483903-000861     104483005010478430822SWT LOVE HEARTS SML    0000001000+00000876+00000+0001T   00000876+0000001326          1400 NG7150               1AZ
104483004104483903-000844     104483005010478432567SWT CANDY DL LUV HEARTS0000001000+00001314+00000+0001T   00001314+0000001326          1400 NG7150               1AZ
104483005104483018-000177     104483006001023797513MUG MINI LOVE ASSTD    0000001000+00000700+00000+0001T   00000700+0000001326          1400 NG7515               1AZ
104484000104484               104484               170213ET     1400+00000+ET0000008243+0000008243+000000000+000001155+0000009398+0000000000+I40000009398+0000000000+Z
104484002104484266-001302     104484006001023331892MARBLES 16MM 45PC      0000001000+00001227+00000+0001T   00001227+0000001336          1400 NG7710               1AZ
104484003104484562-000002     104484006001023491015COUNTING-FRAME 30x20cm 0000001000+00007016+00000+0001T   00007016+0000001336          1400 NG7755               1AZ
104485000104485               104485               170213ET     1400+00000+ET0000001314+0000001314+000000000+000000184+0000001490+0000000008+I20000000000+0000001490+Z
104485001104485006-000166-C   104485006003000516377BALLOONS LRG 6PC PINK  0000001000+00001314+00000+0001T   00001314+0000001353          1400 NG7131               1AZ
104486000104486               104486               170213ET     1400+00000+ET0000003507+0000003507+000000000+000000491+0000003990+0000000008+I20000000000+0000003990+Z
104486001104486079-014101     104486006001023908612ART+CRAFT SCOUBIDOUx50 0000001000+00003507+00000+0001T   00003507+0000001457          1400 NG7130               1AZ
104487000104487               104487               170213ET     1400+00000+ET0000002804+0000002804+000000000+000000394+0000003190+0000000008+I20000000000+0000003190+Z
104487001104487366-007600     104487006001023902184MASK THEATRICAL GLITTER0000001000+00001753+00000+0001T   00001753+0000001458          1400 NG7131               1AZ
104487002104487903-002850     104487000000087108262MENTOS ROLL FRUIT      0000001000+00001051+00000+0001T   00001051+0000001458          1400 NG7150               1AZ
104488000104488               104488               170213ET     1400+00000+ET0000006049+0000006049+000000000+000000848+0000006890+0000000007+I20000000000+0000006890+Z
104488001104488077-000245     104488006001023759214GIFT-RIBBON METALLICx2 0000001000+00001227+00000+0001T   00001227+0000001506          1400 NG7112               1AZ
104488002104488077-000150-D   104488006003000054343GIFT-WRAP CELLPHANE CLR0000001000+00000876+00000+0001T   00000876+0000001506          1400 NG7112               1AZ
104488003104488103-000473     104488006003000631087BAMBOO FLOWER BASKET   0000001000+00003946+00000+0001T   00003946+0000001506          1400 NG7300               1AZ
104489000104489               104489               170213ET     1400+00000+ET0000006433+0000006433+000000000+000000902+0000007330+0000000005+I20000000000+0000007330+Z
104489001104489903-002851     104489000000087108538MENTOS ROLL STRAWBERRY 0000001000+00001051+00000+0001T   00001051+0000001518          1400 NG7150               1AZ
104489002104489031-000002-A   104489006003000247103P/FRAME LOVE 7.5X7.5CM 0000001000+00003507+00000+0001T   00003507+0000001518          1400 NG7510               1AZ
104489003104489077-000151     104489006008766114676GIFT-WRAP C/PHANE ASSTD0000001000+00000876+00000+0001T   00000876+0000001518          1400 NG7112               1AZ
104489004104489112-116038     104489006009681820246TCS CARRIER BAG MIDI   0000001000+00000035+00000+0001T   00000035+0000001518          1400 NG7090               1AZ
104489005104489903-000843     104489008693029031067SWT GUMMY JELAXY 80G   0000001000+00000964+00000+0001T   00000964+0000001518          1400 NG7150               1AZ
104490000104490               104490               170213ET     1400+00000+ET0000004382+0000004382+000000000+000000615+0000004990+0000000007+I20000000000+0000004990+Z
104490001104490077-000408     104490006003000145218G/BAG PP 15X21X7CM     0000002000+00000876+00000+0001T   00000876+0000001519          1400 NG7112               1AZ
104490002104490368-000100     104490006001023474742PLUSH MD BEAR 12cm     0000001000+00002630+00000+0001T   00002630+0000001519          1400 NG7745               1AZ
104491000104491               104491               170213ET     1400+00000+ET0000002630+0000002630+000000000+000000369+0000002990+0000000009+I20000000000+0000002990+Z
104491001104491368-000100     104491006001023474742PLUSH MD BEAR 12cm     0000001000+00002630+00000+0001T   00002630+0000001520          1400 NG7745               1AZ
104492000104492               104492               170213ET     1400+00000+ET0000005085+0000005085+000000000+000000712+0000005790+0000000007+I20000000000+0000005790+Z
104492001104492018-000136     104492006001023659026MUG OCC LOVE W/PLUSH   0000001000+00003507+00000+0001T   00003507+0000001520          1400 NG7515               1AZ
104492002104492077-000303     104492006001023593757GIFT-BAG PAPER MED     0000001000+00001578+00000+0001T   00001578+0000001520          1400 NG7112               1AZ
104493000104493               104493               170213ET     1400+00000+ET0000000035+0000000035+000000000+000000005+0000000040+0000000000+I20000000000+0000000040+Z
104493001104493112-116038     104493006009681820246TCS CARRIER BAG MIDI   0000001000+00000035+00000+0001T   00000035+0000001521          1400 NG7090               1AZ
104494000104494               104494               170213ET     1400+00000+ET0000009382+0000009382+000000000+000001314+0000010690+0000000006+I20000000000+0000010690+Z
104494001104494018-000136     104494006001023659026MUG OCC LOVE W/PLUSH   0000001000+00003507+00000+0001T   00003507+0000001523          1400 NG7515               1AZ
104494002104494031-080508     104494006001023802415P/FRAME PL 22X11CM LOVE0000001000+00004385+00000+0001T   00004385+0000001523          1400 NG7510               1AZ
104494003104494077-000299     104494006003000395576G/BAG 32x25cm LRG LOVE 0000001000+00001490+00000+0001T   00001490+0000001523          1400 NG7112               1AZ
104495000104495               104495               170213ET     1400+00000+ET0000006575+0000006575+000000000+000000921+0000007496+0000000000+I40000007496+0000000000+Z
104495001104495018-005009     104495006001023725608MUG W/PLUSH-BEAR LOVE  0000001000+00003507+00000+0001T   00003507+0000001525          1400 NG7515               1AZ
104495002104495077-000303     104495006001023593757GIFT-BAG PAPER MED     0000001000+00001578+00000+0001T   00001578+0000001525          1400 NG7112               1AZ
104495003104495903-000613     104495006003000617173SWT LIPS DUMMY 10G     0000001000+00001490+00000+0001T   00001490+0000001525          1400 NG7150               1AZ
104496000104496               104496               170213ET     1400+00000+ET0000006487+0000006487+000000000+000000910+0000007397+0000000000+I40000007397+0000000000+Z
104496001104496077-000318     104496006001023609755GIFT-BAG 18X23CM E/D AN0000001000+00001227+00000+0001T   00001227+0000001527          1400 NG7112               1AZ
104496002104496079-013104     104496006001023863799CRAFT DIY HAND-BAG     0000001000+00002630+00000+0001T   00002630+0000001527          1400 NG7130               1AZ
104496003104496077-000270     104496006003000395453GIFT-BAG PPR JMB 33X45 0000001000+00002630+00000+0001T   00002630+0000001527          1400 NG7112               1AZ
104497000104497               104497               170213ET     1400+00000+ET0000003418+0000003418+000000000+000000479+0000003890+0000000007+I20000000000+0000003890+Z
104497001104497903-000518     104497006001704012782SWT STRAWS S/BERRY 100g0000001000+00001227+00000+0001T   00001227+0000001531          1400 NG7150               1AZ
104497002104497903-000843     104497008693029031067SWT GUMMY JELAXY 80G   0000001000+00000964+00000+0001T   00000964+0000001531          1400 NG7150               1AZ
104497003104497903-000519     104497006001704012805SWT MS LIQ-O-GHETTI    0000001000+00001227+00000+0001T   00001227+0000001531          1400 NG7150               1AZ
104498000104498               104498               170213ET     1400+00000+ET0000007016+0000007016+000000000+000000983+0000007990+0000000009+I20000000000+0000007990+Z
104498001104498017-000050     104498006003000008223P/ALBUM 200-PHOTO PLAIN0000001000+00007016+00000+0001T   00007016+0000001532          1400 NG7510               1AZ
104499000104499               104499               170213ET     1400+00000+ET0000000035+0000000035+000000000+000000005+0000000040+0000000000+I20000000000+0000000040+Z
104499001104499112-116038     104499006009681820246TCS CARRIER BAG MIDI   0000001000+00000035+00000+0001T   00000035+0000001533          1400 NG7090               1AZ
104500000104500               104500               170213ET     1400+00000+ET0000001314+0000001314+000000000+000000184+0000001490+0000000008+I20000000000+0000001490+Z
104500001104500567-011411     104500009781621919087BK PUZZLE CLASSIC WORD 0000001000+00001314+00000+0001T   00001314+0000001540          1400 NG7757               1AZ
104501000104501               104501               170213ET     1400+00000+ET0000001753+0000001753+000000000+000000246+0000001990+0000000009+I20000000000+0000001990+Z
104501001104501079-003000     104501006003000448838A/TUBE 75ML WHITE      0000001000+00001753+00000+0001T   00001753+0000001543          1400 NG7130               1AZ
104502000104502               104502               170213ET     1400+00000+ET0000002665+0000002665+000000000+000000374+0000003030+0000000009+I20000000000+0000003030+Z
104502001104502018-000129     104502006001023403353MUG OCC. LOVE V-SHAPE  0000001000+00002630+00000+0001T   00002630+0000001547          1400 NG7515               1AZ
104502002104502112-116038     104502006009681820246TCS CARRIER BAG MIDI   0000001000+00000035+00000+0001T   00000035+0000001547          1400 NG7090               1AZ
104503000104503               104503               170213ET     1400+00000+ET0000007050+0000007050+000000000+000000988+0000008030+0000000008+I20000000000+0000008030+Z
104503001104503362-002430     104503006001023707314HAIR ACCESS SHINY PURSE0000001000+00004385+00000+0001T   00004385+0000001549          1400 NG7160               1AZ
104503002104503361-000296     104503006001023750402DOLL 27cm GLITZY/ANGEL 0000001000+00002630+00000+0001T   00002630+0000001549          1400 NG7725               1AZ
104503003104503112-116038     104503006009681820246TCS CARRIER BAG MIDI   0000001000+00000035+00000+0001T   00000035+0000001549          1400 NG7090               1AZ
104504000104504               104504               170213ET     1400+00000+ET0000001051+0000001051+000000000+000000148+0000001190+0000000009+I20000000000+0000001190+Z
104504001104504903-002851     104504000000087108538MENTOS ROLL STRAWBERRY 0000001000+00001051+00000+0001T   00001051+0000001552          1400 NG7150               1AZ
104505000104505               104505               170213ET     1400+00000+ET0000002455+0000002455+000000000+000000344+0000002790+0000000009+I20000000000+0000002790+Z
104505001104505077-000380     104505006003000247585GIFT-BAG 33X45CM S/COL 0000001000+00002455+00000+0001T   00002455+0000001554          1400 NG7112               1AZ
104506000104506               104506               170213ET     1400+00000+ET0000010518+0000010518+000000000+000001476+0000011990+0000000004+I20000000000+0000011990+Z
104506001104506566-000007     104506006001023761187S/BOOK SUPER VALUE     0000003000+00001753+00000+0001T   00001753+0000001629          1400 NG7130               1AZ
104506002104506566-000028     104506006003000265541STICKER BK ASSTD 250PCE0000003000+00001753+00000+0001T   00001753+0000001629          1400 NG7130               1AZ
104507000104507               104507               170213ET     1400+00000+ET0000010346+0000010346+000000000+000001449+0000011795+0000000000+I40000011795+0000000000+Z
104507001104507077-000303     104507006001023593757GIFT-BAG PAPER MED     0000001000+00001578+00000+0001T   00001578+0000001631          1400 NG7112               1AZ
104507002104507301-085004     104507006003000420469ORN LOVE PLAQUE 21X10CM0000001000+00003507+00000+0001T   00003946+0006471631          1400 NG7505               1AZ
104507003104507089-060027     104507006003000245871KEY-CHAIN HEART 6X6cm  0000001000+00003069+00000+0001T   00003069+0000001631          1400 NG7205               1AZ
104507004104507080-000127     104507006003000424351VALENTINES DAY 36x24CM 0000001000+00002192+00000+0001T   00002192+0000001631          1400 NG7112               1AZ
104508000104508               104508               170213ET     1400+00000+ET0000001490+0000001490+000000000+000000209+0000001690+0000000009+I20000000000+0000001690+Z
104508001104508028-000796     104508006001023812094SKEWERS 25cm 50PCE 4mm 0000001000+00001490+00000+0001T   00001490+0000001638          1400 NG7305               1AZ
104509000104509               104509               170213ET     1400+00000+ET0000003682+0000003682+000000000+000000516+0000004198+0000000000+I40000004198+0000000000+Z
104509001104509565-000990     104509006001023673510NOVELTY STICKY SLAPPER 0000001000+00001490+00000+0001T   00001490+0000001651          1400 NG7745               1AZ
104509002104509565-000015     104509006003000672035NOVELTY SLIME ANIMAL   0000001000+00002192+00000+0001T   00002192+0000001651          1400 NG7745               1AZ
104510000104510               104510               170213ET     1400+00000+ET0000000613+0000000613+000000000+000000086+0000000690+0000000009+I20000000000+0000000690+Z
104510001104510304-001011     104510006001023806727FLWR ROSE RED W/BEAR   0000001000+00000613+00000+0001T   00000788+0006471652          1400 NG7510               1AZ
104511000104511               104511               170213ET     1400+00000+ET0000005963+0000005963+000000000+000000835+0000006790+0000000008+I20000000000+0000006790+Z
104511001104511077-000303     104511006001023593757GIFT-BAG PAPER MED     0000001000+00001578+00000+0001T   00001578+0000001656          1400 NG7112               1AZ
104511002104511368-000001     104511006003000097982Plush Bear 25cm        0000001000+00004385+00000+0001T   00004385+0000001656          1400 NG7745               1AZ
104512000104512               104512               170213ET     1400+00000+ET0000001753+0000001753+000000000+000000246+0000001990+0000000009+I20000000000+0000001990+Z
104512001104512071-004200     104512006001023835901SAFETY SCISSOR         0000001000+00001753+00000+0001T   00001753+0000001656          1400 NG7130               1AZ
104513000104513               104513               170213ET     1400+00000+ET0000003507+0000003507+000000000+000000491+0000003990+0000000008+I20000000000+0000003990+Z
104513001104513018-005009     104513006001023725608MUG W/PLUSH-BEAR LOVE  0000001000+00003507+00000+0001T   00003507+0000001704          1400 NG7515               1AZ
104514000104514               104514               170213ET     1400+00000+ET0000000035+0000000035+000000000+000000005+0000000040+0000000000+I20000000000+0000000040+Z
104514001104514112-116038     104514006009681820246TCS CARRIER BAG MIDI   0000001000+00000035+00000+0001T   00000035+0000001705          1400 NG7090               1AZ
104515000104515               104515               170213ET     1400+00000+ET0000012627+0000012627+000000000+000001769+0000014396+0000000000+I40000014396+0000000000+Z
104515001104515304-001011     104515006001023806727FLWR ROSE RED W/BEAR   0000001000+00000613+00000+0001T   00000788+0006471707          1400 NG7510               1AZ
104515002104515080-000113     104515006003000237449CARD&ENVLPE - LOVE     0000001000+00001753+00000+0001T   00001753+0000001707          1400 NG7112               1AZ
104515003104515001-091415     104515006003000329113W/GLS OCC. LOVE 2PC 2800000001000+00008771+00000+0001T   00009648+0006471707          1400 NG7515               1AZ
104515004104515077-000299     104515006003000395576G/BAG 32x25cm LRG LOVE 0000001000+00001490+00000+0001T   00001490+0000001707          1400 NG7112               1AZ
104516000104516               104516               170213ET     1400+00000+ET0000000613+0000000613+000000000+000000086+0000000690+0000000009+I20000000000+0000000690+Z
104516001104516304-001011     104516006001023806727FLWR ROSE RED W/BEAR   0000001000+00000613+00000+0001T   00000788+0006471708          1400 NG7510               1AZ
104517000104517               104517               170213ET     1400+00000+ET0000000035+0000000035+000000000+000000005+0000000040+0000000000+I20000000000+0000000040+Z
104517001104517112-116038     104517006009681820246TCS CARRIER BAG MIDI   0000001000+00000035+00000+0001T   00000035+0000001715          1400 NG7090               1AZ
104518000104518               104518               170213ET     1400+00000+ET0000004383+0000004383+000000000+000000614+0000004990+0000000007+I20000000000+0000004990+Z
104518001104518007-000561     104518006003000589128NOVELTY NOTEBOOK       0000001000+00003507+00000+0001T   00003507+0000001716          1400 NG7130               1AZ
104518002104518077-000302     104518008010410010195GIFT-BAG 18X23CM E/D   0000001000+00000876+00000+0001T   00000876+0000001716          1400 NG7112               1AZ
104519000104519               104519               170213ET     1400+00000+ET0000006223+0000006223+000000000+000000872+0000007090+0000000005+I20000000000+0000007090+Z
104519001104519018-000136     104519006001023659026MUG OCC LOVE W/PLUSH   0000001000+00003507+00000+0001T   00003507+0000001717          1400 NG7515               1AZ
104519002104519304-001011     104519006001023806727FLWR ROSE RED W/BEAR   0000002000+00000613+00000+0001T   00000788+0006471717          1400 NG7510               1AZ
104519003104519077-000299     104519006003000395576G/BAG 32x25cm LRG LOVE 0000001000+00001490+00000+0001T   00001490+0000001717          1400 NG7112               1AZ
104520000104520               104520               170213ET     1400+00000+ET0000005033+0000005033+000000000+000000705+0000005730+0000000008+I20000000000+0000005730+Z
104520001104520031-080508     104520006001023802415P/FRAME PL 22X11CM LOVE0000001000+00004385+00000+0001T   00004385+0000001718          1400 NG7510               1AZ
104520002104520304-001011     104520006001023806727FLWR ROSE RED W/BEAR   0000001000+00000613+00000+0001T   00000788+0006471718          1400 NG7510               1AZ
104520003104520112-116038     104520006009681820246TCS CARRIER BAG MIDI   0000001000+00000035+00000+0001T   00000035+0000001718          1400 NG7090               1AZ
104521000104521               104521               170213ET     1400+00000+ET0000017542+0000017542+000000000+000002456+0000019998+0000000000+I40000019998+0000000000+Z
104521001104521263-000501     104521006001023790804TRUCK+TRAILR CONVEYANCE0000001000+00017542+00000+0001T   00017542+0000001724          1400 NG7710               1AZ
104522000104522               104522               170213ET     1400+00000+ET0000000613+0000000613+000000000+000000086+0000000690+0000000009+I20000000000+0000000690+Z
104522001104522304-001011     104522006001023806727FLWR ROSE RED W/BEAR   0000001000+00000613+00000+0001T   00000788+0006471726          1400 NG7510               1AZ
104523000104523               104523               170213ET     1400+00000+ET0000003507+0000003507+000000000+000000491+0000003998+0000000000+I40000003998+0000000000+Z
104523001104523082-000385     104523006001023694164SPECTACLE-CASE ASSTD   0000001000+00003507+00000+0001T   00003507+0000001730          1400 NG7160               1AZ
104524000104524               104524               170213ET     1400+00000+ET0000002630+0000002630+000000000+000000369+0000002999+0000000000+I40000002999+0000000000+Z
104524001104524077-000270     104524006003000395453GIFT-BAG PPR JMB 33X45 0000001000+00002630+00000+0001T   00002630+0000001731          1400 NG7112               1AZ
104525000104525               104525               170213ET     1400+00000+ET0000001753+0000001753+000000000+000000246+0000001999+0000000000+I40000001999+0000000000+Z
104525001104525039-000114     104525006001023524058CANDLE T/LITE RED 3.5CM0000001000+00001753+00000+0001T   00001753+0000001734          1400 NG7510               1AZ
104526000104526               104526               170213ET     1400+00000+ET0000008154+0000008154+000000000+000001142+0000009296+0000000000+I40000009296+0000000000+Z
104526001104526089-060027     104526006003000245871KEY-CHAIN HEART 6X6cm  0000001000+00003069+00000+0001T   00003069+0000001739          1400 NG7205               1AZ
104526002104526018-005009     104526006001023725608MUG W/PLUSH-BEAR LOVE  0000001000+00003507+00000+0001T   00003507+0000001739          1400 NG7515               1AZ
104526003104526077-000303     104526006001023593757GIFT-BAG PAPER MED     0000001000+00001578+00000+0001T   00001578+0000001739          1400 NG7112               1AZ
104527000104527               104527               170213ET     1400+00000+ET0000018008+0000018008+000000000+000002524+0000020532+0000000000+I40000020532+0000000000+Z
104527001104527039-809558     104527006003000344376CANDLE PILLAR 12CM 4AST0000001000+00006139+00000+0001T   00006139+0000001743          1400 NG7510               1AZ
104527002104527083-000050     104527006001023898593LIGHTERS DISPOSABLE    0000001000+00000876+00000+0001T   00000876+0000001743          1400 NG7315               1AZ
104527003104527027-785010     104527006003000628995CLEANING WIPES 40-PACK 0000001000+00002630+00000+0001T   00002630+0000001743          1400 NG7212               1AZ
104527004104527159-000020     104527006001023905543HAIR DRYING MICROFIBRE 0000001000+00002630+00000+0001T   00002630+0000001743          1400 NG7200               1AZ
104527005104527018-005009     104527006001023725608MUG W/PLUSH-BEAR LOVE  0000001000+00003507+00000+0001T   00003507+0000001743          1400 NG7515               1AZ
104527006104527077-000303     104527006001023593757GIFT-BAG PAPER MED     0000001000+00001578+00000+0001T   00001578+0000001743          1400 NG7112               1AZ
104527007104527304-001011     104527006001023806727FLWR ROSE RED W/BEAR   0000001000+00000613+00000+0001T   00000788+0006471743          1400 NG7510               1AZ
104527008104527112-116038     104527006009681820246TCS CARRIER BAG MIDI   0000001000+00000035+00000+0001T   00000035+0000001743          1400 NG7090               1AZ
104528000104528               104528               170213ET     1400+00000+ET0000001578+0000001578+000000000+000000221+0000001790+0000000009+I20000000000+0000001790+Z
104528001104528078-013424     104528006008741000338CONTACT-ADHESIVE 50ml  0000001000+00001578+00000+0001T   00001578+0000001747          1400 NG7810               1AZ
104529000104529               104529               170213ET     1400+00000+ET0000005733+0000005733+000000000+000000803+0000006530+0000000006+I20000000000+0000006530+Z
104529001104529304-001011     104529006001023806727FLWR ROSE RED W/BEAR   0000001000+00000613+00000+0001T   00000788+0006471749          1400 NG7510               1AZ
104529002104529018-005009     104529006001023725608MUG W/PLUSH-BEAR LOVE  0000001000+00003507+00000+0001T   00003507+0000001749          1400 NG7515               1AZ
104529003104529077-000315     104529006003000181186GIFT-BAG 20x28cm MATT  0000001000+00001578+00000+0001T   00001578+0000001749          1400 NG7112               1AZ
104529004104529112-116038     104529006009681820246TCS CARRIER BAG MIDI   0000001000+00000035+00000+0001T   00000035+0000001749          1400 NG7090               1AZ
A17021300                                          09234653ETSLAVE 1                       NG71IC
A17021301                                          10130829ETSLAVE 1                       NG72IC
A17021302                                          10453338ETSLAVE 1                       NG71IC
A17021303                                          12282715ETSLAVE 1                       NG72IC
C10448400                                          170213ET562-000001     13350462SLAVE 1     NG71IC0000000000+0000000000+0010000001000+
M17021391                              CASH        ETSLAVE 1                       Z-REPORT No.   597TOTAL (Sales - Refunds)           3904.45       CASH TO BE BANKED                 1994.10       DEBIT CARDS                          0.00       CREDIT CARDS                      1910.35       Z-READING                         3904.45       AIRTIME DEBIT CARD SALES             0.00       AIRTIME CARD SALES                   0.00       OVERS/UNDERS                         0.00       AIRTIME CASH SALES                   0.00       GIFT CARDS                           0.00       GIFT CARD CASH SALES                 0.00       T O T A L  CASH PAYOUTS              0.00                                                                                                                                                                                                                                                                                                                                                      Z
M17021392                              CASH        ETABSENT                                                                                                                                                                                          ANNUAL LEAVE                                                                                                                                                                                    DAY OFF                                                                                                                                                                                         COMMENTS          AMALINDA ET                                                                                                                                                                                                                                                                                                                                                                  Z
Y17021300                                          ET00000000344494+000065
ZET17021319353 SLAVE 1      SALES DATA                     NEXT INVOICE NO.  104530 0597
X ET Slave 1 First invoice 104464 170213 Last invoice 104529 170213 Next invoice 104530 Total number of records 000000217 clbackup completed 19:35:27
