487816000487816               487816               170213EU     1400+00000+EU0000001664+0000001664+000000000+000000234+0000001890+0000000008+I20000000000+0000001890+Z
487816001487816033-005921-B   487816006001023678348SEWING-THREAD 200m BLK 0000001000+00000876+00000+0001T   00000876+0000000905          1400 LB7200               1AZ
487816002487816033-005991     487816006001023678546NEEDLES H/HOLD-REPAIR  0000001000+00000788+00000+0001T   00000788+0000000905          1400 LB7200               1AZ
487817000487817               487817               170213EU     1400+00000+EU0000002192+0000002192+000000000+000000307+0000002490+0000000009+I20000000000+0000002490+Z
487817001487817051-002400     487817006001023616180TRIGGER-SPRAYER 900ml  0000001000+00002192+00000+0001T   00002192+0000000926          1400 LB7820               1AZ
487818000487818               487818               170213EU     1400+00000+EU0000005085+0000005085+000000000+000000712+0000005797+0000000000+I40000005797+0000000000+Z
487818001487818077-000303     487818006001023593757GIFT-BAG PAPER MED     0000001000+00001578+00000+0001T   00001578+0000000936          1400 LB7112               1AZ
487818002487818018-005009     487818006001023725608MUG W/PLUSH-BEAR LOVE  0000001000+00003507+00000+0001T   00003507+0000000936          1400 LB7515               1AZ
487819000487819               487819               170213EU     1400+00000+EU0000001753+0000001753+000000000+000000246+0000001990+0000000009+I20000000000+0000001990+Z
487819001487819077-000301     487819008010410010188BAG LRG 25X32CM B/DAY  0000001000+00001753+00000+0001T   00001753+0000000940          1400 LB7112               1AZ
487820000487820               487820               170213EU     1400+00000+EU0000004775+0000004775+000000000+000000671+0000005440+0000000006+I20000000000+0000005440+Z
487820001487820903-000183     487820006003000451043SWT LB HEART LOLLY     0000001000+00000393+00000+0001T   00000393+0000000940          1400 LB7150               1AZ
487820002487820077-000235     487820006003000160211GIFT-RIBBON ROLL METALC0000001000+00002630+00000+0001T   00002630+0000000940          1400 LB7112               1AZ
487820003487820077-000151     487820006008766114676GIFT-WRAP C/PHANE ASSTD0000002000+00000876+00000+0001T   00000876+0000000940          1400 LB7112               1AZ
487821000487821               487821               170213EU     1400+00000+EU0000007489+0000007489+000000000+000001049+0000008530+0000000008+I20000000000+0000008530+Z
487821001487821368-000049     487821006003000536955PLUSH BEAR 15cm LOVE   0000001000+00004385+00000+0001T   00004385+0000001000          1400 LR7745               1AZ
487821002487821089-060027     487821006003000245871KEY-CHAIN HEART 6X6cm  0000001000+00003069+00000+0001T   00003069+0000001000          1400 LR7205               1AZ
487821003487821112-116038     487821006003000534906TCS CARRIER BAG MIDI   0000001000+00000035+00000+0001T   00000035+0000001000          1400 LR7090               1AZ
487822000487822               487822               170213EU     1400+00000+EU0000007891+0000007891+000000000+000001106+0000008990+0000000007+I20000000000+0000008990+Z
487822001487822078-000025     487822008887013700064SUPERGLUE 3g 1PCE CARD 0000002000+00000876+00000+0001T   00000876+0000001003          1400 LR7810               1AZ
487822003487822027-000029     487822006003000439676FLOOR-BROOM 1.2m ASSTD 0000001000+00006139+00000+0001T   00006139+0000001003          1400 LR7212               1AZ
487823000487823               487823               170213EU     1400+00000+EU0000001490+0000001490+000000000+000000209+0000001690+0000000009+I20000000000+0000001690+Z
487823001487823019-071606     487823006003000678891PEBBLES 500G 3MM WHITE.0000001000+00001490+00000+0001T   00001490+0000001007          1400 LR7510               1AZ
487824000487824               487824               170213EU     1400+00000+EU0000002663+0000002663+000000000+000000373+0000003030+0000000006+I20000000000+0000003030+Z
487824001487824150-000772     487824006005387000227UTILITY-BOX SMALL      0000004000+00000657+00000+0001T   00000657+0000001028          1400 LB7810               1AZ
487824002487824112-116038     487824006003000534906TCS CARRIER BAG MIDI   0000001000+00000035+00000+0001T   00000035+0000001028          1400 LB7090               1AZ
487825000487825               487825               170213EU     1400+00000+EU0000001753+0000001753+000000000+000000246+0000001990+0000000009+I20000000000+0000001990+Z
487825001487825047-001337-H   487825006001023429971INS-TAPE 20m BLACK     0000001000+00001753+00000+0001T   00001753+0000001029          1400 LB7880               1AZ
487826000487826               487826               170213EU     1400+00000+EU0000016273+0000016273+000000000+000002280+0000018550+0000000003+I20000000000+0000018550+Z
487826001487826368-000637     487826006001023874092PLUSH BEAR SLEEPING LOV0000001000+00011402+00000+0001T   00012279+0006471032          1400 LB7745               1AZ
487826002487826301-085001     487826006003000297610ORN WATERBALL LOVE ASST0000001000+00004823+00000+0001T   00004823+0000001032          1400 LB7505               1AZ
487826003487826112-116069     487826006009681820277TCS CARRIER BAG JUMBO  0000001000+00000048+00000+0001T   00000048+0000001032          1400 LB7090               1AZ
487827000487827               487827               170213EU     1400+00000+EU0000015833+0000015833+000000000+000002218+0000018050+0000000001+I20000000000+0000018050+Z
487827001487827304-001168     487827006003000407781FLWR FLOATING LOTUS ASS0000001000+00003507+00000+0001T   00003507+0000001033          1400 LB7510               1AZ
487827002487827051-600638     487827006003000421909PLANTER W/TRAY 50x21x140000002000+00006139+00000+0001T   00006139+0000001033          1400 LB7820               1AZ
487827003487827112-116069     487827006009681820277TCS CARRIER BAG JUMBO  0000001000+00000048+00000+0001T   00000048+0000001033          1400 LB7090               1AZ
487828000487828               487828               170213EU     1400+00000+EU0000002630+0000002630+000000000+000000369+0000002990+0000000009+I20000000000+0000002990+Z
487828001487828006-006018-B   487828006003000008278PARTY-SPRAY HAIR NEON  0000001000+00002630+00000+0001T   00002630+0000001036          1400 LB7131               1AZ
487829000487829               487829               170213EU     1400+00000+EU0000004385+0000004385+000000000+000000614+0000004990+0000000009+I20000000000+0000004990+Z
487829001487829065-001008     487829006001023673190XYLOPHONE 8-KEYS SHAPES0000001000+00004385+00000+0001T   00004385+0000001044          1400 LB7745               1AZ
487830000487830               487830               170213EU     1400+00000+EU0000008370+0000008370+000000000+000001174+0000009544+0000000000+I40000009544+0000000000+Z
487830001487830200-000010     487830006925406841061BAG ZIPPERSEAL 35PC    0000001000+00002192+00000+0001T   00002192+0000001108          1400 LB7214               1AZ
487830002487830200-000012     487830006003000399536BAG 50PCE 165x146mm    0000001000+00003507+00000+0001T   00003507+0000001108          1400 LB7214               1AZ
487830003487830565-000071     487830006003000643387NOVELTY WIND UP CHATTER0000002000+00001139+00000+0001T   00001139+0000001108          1400 LB7745               1AZ
487830004487830903-000183     487830006003000451043SWT LB HEART LOLLY     0000001000+00000393+00000+0001T   00000393+0000001108          1400 LB7150               1AZ
487831000487831               487831               170213EU     1400+00000+EU0000001490+0000001490+000000000+000000209+0000001690+0000000009+I20000000000+0000001690+Z
487831001487831077-000299     487831006003000395576G/BAG 32x25cm LRG LOVE 0000001000+00001490+00000+0001T   00001490+0000001109          1400 LB7112               1AZ
487832000487832               487832               170213EU     1400+00000+EU0000008771+0000008771+000000000+000001228+0000009990+0000000009+I20000000000+0000009990+Z
487832001487832031-086302-C   487832006001023910332P/FRAME COLL. PL 3-HOLE0000001000+00008771+00000+0001T   00008771+0000001110          1400 LB7510               1AZ
487833000487833               487833               170213EU     1400+00000+EU0000001753+0000001753+000000000+000000246+0000001990+0000000009+I20000000000+0000001990+Z
487833001487833046-000014-A   487833004897006177708BATTERIES SIZE:AAA 8PCE0000001000+00001753+00000+0001T   00001753+0000001150          1400 LB7312               1AZ
487834000487834               487834               170213EU     1400+00000+EU0000001752+0000001752+000000000+000000246+0000001990+0000000008+I20000000000+0000001990+Z
487834001487834077-000314     487834006003000181148GIFT-BAG 11X14CM MATT  0000002000+00000876+00000+0001T   00000876+0000001151          1400 LB7112               1AZ
487835000487835               487835               170213EU     1400+00000+EU0000001753+0000001753+000000000+000000246+0000001990+0000000009+I20000000000+0000001990+Z
487835001487835076-000710-H   487835006001023426482SKI-ROPE 7mmx10m       0000001000+00001753+00000+0001T   00001753+0000001151          1400 LB7810               1AZ
487836000487836               487836               170213EU     1400+00000+EU0000000876+0000000876+000000000+000000123+0000000990+0000000009+I20000000000+0000000990+Z
487836001487836076-000017     487836006001811010022TWINE COTTON 50g-BALL  0000001000+00000876+00000+0001T   00000876+0000001155          1400 LB7810               1AZ
487837000487837               487837               170213EU     1400+00000+EU0000002630+0000002630+000000000+000000369+0000002990+0000000009+I20000000000+0000002990+Z
487837001487837037-000006     487837006003000171996ASHTRAY PL TUB GIANT   0000001000+00002630+00000+0001T   00003069+0008191224          1400 IG7515               1AZ
487838000487838               487838               170213EU     1400+00000+EU0000010119+0000010119+000000000+000001418+0000011530+0000000007+I20000000000+0000011530+Z
487838001487838088-000080     487838006003000622863DRAWER LINERS SCENTED  0000001000+00005262+00000+0001T   00005262+0000001228          1400 IG7212               1AZ
487838002487838018-000129     487838006001023403353MUG OCC. LOVE V-SHAPE  0000001000+00002630+00000+0001T   00002630+0000001228          1400 IG7515               1AZ
487838003487838566-000068     487838006003000418046POP UP LOVE 2 ASSTD    0000001000+00002192+00000+0001T   00002192+0000001228          1400 IG7130               1AZ
487838004487838112-116038     487838006009681820246TCS CARRIER BAG MIDI   0000001000+00000035+00000+0001T   00000035+0000001228          1400 IG7090               1AZ
487839000487839               487839               170213EU     1400+00000+EU0000012921+0000012921+000000000+000001812+0000014733+0000000000+I40000014733+0000000000+Z
487839001487839077-000303     487839006001023593757GIFT-BAG PAPER MED     0000001000+00001578+00000+0001T   00001578+0000001233          1400 IG7112               1AZ
487839002487839368-000049     487839006003000536955PLUSH BEAR 15cm LOVE   0000001000+00004385+00000+0001T   00004385+0000001233          1400 IG7745               1AZ
487839003487839018-000129     487839006001023403353MUG OCC. LOVE V-SHAPE  0000001000+00002630+00000+0001T   00002630+0000001233          1400 IG7515               1AZ
487839004487839018-005009     487839006001023725608MUG W/PLUSH-BEAR LOVE  0000001000+00003507+00000+0001T   00003507+0000001233          1400 IG7515               1AZ
487839005487839112-116038     487839006009681820246TCS CARRIER BAG MIDI   0000001000+00000035+00000+0001T   00000035+0000001233          1400 IG7090               1AZ
487839006487839903-000183     487839006003000451043SWT LB HEART LOLLY     0000002000+00000393+00000+0001T   00000393+0000001233          1400 IG7150               1AZ
487840000487840               487840               170213EU     1400+00000+EU0000016428+0000016428+000000000+000002303+0000018731+0000000000+I40000018731+0000000000+Z
487840001487840071-009836     487840006001023591067BACK-TO-SCHOOL SET     0000001000+00001490+00000+0001T   00001490+0000001234          1400 IG7130               1AZ
487840002487840566-000997     487840006001023554086STICKERS TATTOOS BOOK  0000001000+00003507+00000+0001T   00003507+0000001234          1400 IG7130               1AZ
487840003487840071-030014     487840006003000284085PEN NVLTY METALLIC 6PC 0000001000+00002630+00000+0001T   00002630+0000001234          1400 IG7130               1AZ
487840004487840566-002004     487840006001023672421STICKERS CRYSTAL SHAPES0000003000+00001753+00000+0001T   00001753+0000001234          1400 IG7130               1AZ
487840005487840007-000324     48784000600968585864125 SHEETS BRIGHTS MARLI0000001000+00003507+00000+0001T   00003507+0000001234          1400 IG7130               1AZ
487840006487840112-116038     487840006009681820246TCS CARRIER BAG MIDI   0000001000+00000035+00000+0001T   00000035+0000001234          1400 IG7090               1AZ
487841000487841               487841               170213EU     1400+00000+EU0000003770+0000003770+000000000+000000528+0000004290+0000000008+I20000000000+0000004290+Z
487841001487841077-000303     487841006001023593757GIFT-BAG PAPER MED     0000001000+00001578+00000+0001T   00001578+0000001235          1400 IG7112               1AZ
487841002487841567-010395     487841006002242053466GENERIC AFRIKAANS READE0000001000+00002192+00000+0001T   00002192+0000001235          1400 IG7757               1AZ
487842000487842               487842               170213EU     1400+00000+EU0000008229+0000008229+000000000+000001156+0000009385+0000000000+I40000009385+0000000000+Z
487842001487842072-020274     487842006001023858443LITTER-LINERS-BAGS 10PC0000001000+00002630+00000+0001T   00002630+0000001305          1400 LB7870               1AZ
487842002487842001-000175     487842006001023788108B/MUG GLS LOVE 380ML   0000001000+00004385+00000+0001T   00004385+0000001305          1400 LB7515               1AZ
487842003487842112-116038     487842006003000534906TCS CARRIER BAG MIDI   0000001000+00000035+00000+0001T   00000035+0000001305          1400 LB7090               1AZ
487842004487842903-000183     487842006003000451043SWT LB HEART LOLLY     0000003000+00000393+00000+0001T   00000393+0000001305          1400 LB7150               1AZ
487843000487843               487843               170213EU     1400+00000+EU0000005998+0000005998+000000000+000000840+0000006830+0000000008+I20000000000+0000006830+Z
487843001487843001-000175     487843006001023788108B/MUG GLS LOVE 380ML   0000001000+00004385+00000+0001T   00004385+0000001306          1400 LB7515               1AZ
487843002487843077-000303     487843006001023593757GIFT-BAG PAPER MED     0000001000+00001578+00000+0001T   00001578+0000001306          1400 LB7112               1AZ
487843003487843112-116038     487843006009681820246TCS CARRIER BAG MIDI   0000001000+00000035+00000+0001T   00000035+0000001306          1400 LB7090               1AZ
487844000487844               487844               170213EU     1400+00000+EU0000002630+0000002630+000000000+000000369+0000002990+0000000009+I20000000000+0000002990+Z
487844001487844306-000993     487844006003000560110FIRSTAID PLASTER 75PC  0000001000+00002630+00000+0001T   00002630+0000001307          1400 LB7200               1AZ
487845000487845               487845               170213EU     1400+00000+EU0000011437+0000011437+000000000+000001602+0000013039+0000000000+I40000013039+0000000000+Z
487845001487845085-007021     487845006003000136902P/KNIFE LED 16-FUNCTION0000001000+00011402+00000+0001T   00011402+0000001311          1400 LB7305               1AZ
487845002487845112-116038     487845006003000534906TCS CARRIER BAG MIDI   0000001000+00000035+00000+0001T   00000035+0000001311          1400 LB7090               1AZ
487846000487846               487846               170213EU     1400+00000+EU0000001753+0000001753+000000000+000000246+0000001990+0000000009+I20000000000+0000001990+Z
487846001487846039-000114     487846006001023524058CANDLE T/LITE RED 3.5CM0000001000+00001753+00000+0001T   00001753+0000001312          1400 LB7510               1AZ
487847000487847               487847               170213EU     1400+00000+EU0000003243+0000003243+000000000+000000455+0000003690+0000000008+I20000000000+0000003690+Z
487847001487847039-000114     487847006001023524058CANDLE T/LITE RED 3.5CM0000001000+00001753+00000+0001T   00001753+0000001312          1400 LB7510               1AZ
487847002487847039-000108     487847006001023524034TEA-LITE CANDLES 8PCE  0000001000+00001490+00000+0001T   00001490+0000001312          1400 LB7510               1AZ
487848000487848               487848               170213EU     1400+00000+EU0000003069+0000003069+000000000+000000430+0000003499+0000000000+I40000003499+0000000000+Z
487848001487848089-060027     487848006003000245871KEY-CHAIN HEART 6X6cm  0000001000+00003069+00000+0001T   00003069+0000001318          1400 LB7205               1AZ
487849000487849               487849               170213EU     1400+00000+EU0000009647+0000009647+000000000+000001351+0000010990+0000000008+I20000000000+0000010990+Z
487849001487849368-000053     487849006003000633449PLUSH BEAR 15.5cm MUM  0000001000+00005262+00000+0001T   00005262+0000001319          1400 LB7745               1AZ
487849002487849368-000049     487849006003000536955PLUSH BEAR 15cm LOVE   0000001000+00004385+00000+0001T   00004385+0000001319          1400 LB7745               1AZ
487850000487850               487850               170213EU     1400+00000+EU0000004420+0000004420+000000000+000000619+0000005039+0000000000+I40000005039+0000000000+Z
487850001487850018-030000     487850006003000421060MUG OCCASIONS LOVE 2PCE0000001000+00004385+00000+0001T   00004385+0000001320          1400 LB7515               1AZ
487850002487850112-116038     487850006003000534906TCS CARRIER BAG MIDI   0000001000+00000035+00000+0001T   00000035+0000001320          1400 LB7090               1AZ
487851000487851               487851               170213EU     1400+00000+EU0000033896+0000033896+000000000+000004749+0000038640+0000000005+I20000000000+0000038640+Z
487851001487851567-075497     487851009780799381627BK NOVEL ROMANCE AFR   0000001000+00006139+00000+0001T   00006139+0000001321          1400 LB7757               1AZ
487851002487851567-075497     487851009780799381634BK NOVEL ROMANCE AFR   0000001000+00006139+00000+0001T   00006139+0000001321          1400 LB7757               1AZ
487851003487851567-075497     487851009780799381658BK NOVEL ROMANCE AFR   0000001000+00006139+00000+0001T   00006139+0000001321          1400 LB7757               1AZ
487851004487851368-000175     487851006003000270316PLUSH BEAR 4 ASSTD 18CM0000001000+00006139+00000+0001T   00006139+0000001321          1400 LB7745               1AZ
487851005487851903-000087     487851006001704000161SWT SPECKLED-EGGS 50G  0000002000+00001139+00000+0001T   00001139+0000001321          1400 LB7150               1AZ
487851006487851567-011441     487851009781842395752BK STICKER FAIRY PRINCE0000001000+00003507+00000+0001T   00003507+0000001321          1400 LB7757               1AZ
487851007487851567-011438     487851009780857260628BK ACTIVITY BOYS STICKE0000001000+00003507+00000+0001T   00003507+0000001321          1400 LB7757               1AZ
487851008487851112-116069     487851006009681820277TCS CARRIER BAG JUMBO  0000001000+00000048+00000+0001T   00000048+0000001321          1400 LB7090               1AZ
487852000487852               487852               170213EU     1400+00000+EU0000013203+0000013203+000000000+000001850+0000015053+0000000000+I40000015053+0000000000+Z
487852001487852040-000103     487852000694202201862C/HOLDER-SET 5PC W/TRAY0000001000+00011402+00000+0001T   00013157+0008191326          1400 LB7510               1AZ
487852002487852112-116069     487852006009681820277TCS CARRIER BAG JUMBO  0000001000+00000048+00000+0001T   00000048+0000001326          1400 LB7090               1AZ
487852003487852036-000010     487852006003000675777LINT REMOVER STICKY    0000001000+00001753+00000+0001T   00001753+0000001326          1400 LB7212               1AZ
487853000487853               487853               170213EU     1400+00000+EU0000005259+0000005259+000000000+000000738+0000005990+0000000007+I20000000000+0000005990+Z
487853001487853039-000114     487853006001023524058CANDLE T/LITE RED 3.5CM0000003000+00001753+00000+0001T   00001753+0000001328          1400 LB7510               1AZ
487854000487854               487854               170213EU     1400+00000+EU0000001227+0000001227+000000000+000000172+0000001390+0000000009+I20000000000+0000001390+Z
487854001487854903-004951     487854006002580020328SWT MALLOW MINI M/SHAKE0000001000+00001227+00000+0001T   00001227+0000001336          1400 LB7150               1AZ
487855000487855               487855               170213EU     1400+00000+EU0000016269+0000016269+000000000+000002280+0000018540+0000000009+I20000000000+0000018540+Z
487855001487855104-000020     487855006916920023026BASKET 25x14x10cm      0000001000+00001753+00000+0001T   00001753+0000001346          1400 LB7210               1AZ
487855002487855079-000269     487855006003000159963PAINT-BRUSHES SPONGETIP0000001000+00003507+00000+0001T   00003507+0000001346          1400 LB7130               1AZ
487855003487855079-000271     487855006003000160082PAINT-BRUSHES LRGE ART 0000001000+00003069+00000+0001T   00003069+0000001346          1400 LB7130               1AZ
487855004487855027-001018     487855006003000622702BROOM COVER MICROFIBRE 0000001000+00002630+00000+0001T   00002630+0000001346          1400 LB7212               1AZ
487855005487855112-116069     487855006009681820277TCS CARRIER BAG JUMBO  0000001000+00000048+00000+0001T   00000048+0000001346          1400 LB7090               1AZ
487855006487855088-000080     487855006003000622863DRAWER LINERS SCENTED  0000001000+00005262+00000+0001T   00005262+0000001346          1400 LB7212               1AZ
487856000487856               487856               170213EU     1400+00000+EU0000003542+0000003542+000000000+000000496+0000004030+0000000008+I20000000000+0000004030+Z
487856001487856018-005009     487856006001023725608MUG W/PLUSH-BEAR LOVE  0000001000+00003507+00000+0001T   00003507+0000001347          1400 LB7515               1AZ
487856002487856112-116038     487856006003000534906TCS CARRIER BAG MIDI   0000001000+00000035+00000+0001T   00000035+0000001347          1400 LB7090               1AZ
487857000487857               487857               170213EU     1400+00000+EU0000005295+0000005295+000000000+000000743+0000006030+0000000008+I20000000000+0000006030+Z
487857001487857362-019381     487857006001023869579HAIR BAND SET 100PCE   0000001000+00002630+00000+0001T   00002630+0000001357          1400 LB7160               1AZ
487857002487857027-001018     487857006003000622702BROOM COVER MICROFIBRE 0000001000+00002630+00000+0001T   00002630+0000001357          1400 LB7212               1AZ
487857003487857112-116038     487857006003000534906TCS CARRIER BAG MIDI   0000001000+00000035+00000+0001T   00000035+0000001357          1400 LB7090               1AZ
487858000487858               487858               170213EU     1400+00000+EU0000001402+0000001402+000000000+000000197+0000001590+0000000009+I20000000000+0000001590+Z
487858001487858046-000011     487858004897006172994BATTERIES SIZE:AA  2PCE0000001000+00001402+00000+0001T   00001402+0000001358          1400 LB7312               1AZ
487859000487859               487859               170213EU     1400+00000+EU0000001752+0000001752+000000000+000000246+0000001990+0000000008+I20000000000+0000001990+Z
487859001487859077-000314     487859006003000181148GIFT-BAG 11X14CM MATT  0000001000+00000876+00000+0001T   00000876+0000001400          1400 LB7112               1AZ
487859002487859077-000011-E   487859006001023808646TISSUE-WRAP PINK 10PCE 0000001000+00000876+00000+0001T   00000876+0000001400          1400 LB7112               1AZ
487860000487860               487860               170213EU     1400+00000+EU0000002630+0000002630+000000000+000000369+0000002990+0000000009+I20000000000+0000002990+Z
487860001487860039-081008     487860006008766081008CANDLES 9PCE SCENTED   0000001000+00002630+00000+0001T   00002630+0000001401          1400 LB7510               1AZ
487861000487861               487861               170213EU     1400+00000+EU0000001139+0000001139+000000000+000000160+0000001290+0000000009+I20000000000+0000001290+Z
487861001487861466-000517     487861006001023752017BALL TENNIS RED CRICKET0000001000+00001139+00000+0001T   00001139+0000001411          1400 LB7785               1AZ
487862000487862               487862               170213EU     1400+00000+EU0000001490+0000001490+000000000+000000209+0000001690+0000000009+I20000000000+0000001690+Z
487862001487862077-000299     487862006003000395576G/BAG 32x25cm LRG LOVE 0000001000+00001490+00000+0001T   00001490+0000001414          1400 LB7112               1AZ
487863000487863               487863               170213EU     1400+00000+EU0000014778+0000014778+000000000+000002071+0000016840+0000000009+I20000000000+0000016840+Z
487863001487863562-000020     487863006003000600861EDU PLAY DOUGH 60g 4PC 0000001000+00003507+00000+0001T   00003507+0000001417          1400 LB7755               1AZ
487863002487863079-000260     487863006001023886385PAINT TUBS WT BASE 4COL0000001000+00002630+00000+0001T   00002630+0000001417          1400 LB7130               1AZ
487863003487863007-000047     487863006009635833698FILE DISPLAY-BK A4 50PG0000001000+00003946+00000+0001T   00003946+0000001417          1400 LB7130               1AZ
487863004487863079-000510     487863006001023509079CRAYONS WAX 12-COLOUR  0000001000+00002455+00000+0001T   00002455+0000001417          1400 LB7130               1AZ
487863005487863077-000926     487863006003000414178G/WRAP 700mmx2m LOVE   0000001000+00002192+00000+0001T   00002192+0000001417          1400 LB7112               1AZ
487863006487863112-116069     487863006009681820277TCS CARRIER BAG JUMBO  0000001000+00000048+00000+0001T   00000048+0000001417          1400 LB7090               1AZ
487864000487864               487864               170213EU     1400+00000+EU0000001051+0000001051+000000000+000000148+0000001190+0000000009+I20000000000+0000001190+Z
487864001487864079-009702-G   487864008427973060787PAPER SIRIO A2 FUSHIA  0000001000+00001051+00000+0001T   00001051+0000001418          1400 LB7130               1AZ
487865000487865               487865               170213EU     1400+00000+EU0000006611+0000006611+000000000+000000926+0000007530+0000000007+I20000000000+0000007530+Z
487865001487865562-000199     487865006001023732910PUSH-IN BOARD WDN ASSTD0000001000+00005262+00000+0001T   00005262+0000001423          1400 LB7755               1AZ
487865002487865046-000012     487865006904708013062BATTERIES AA  CARD-OF-40000001000+00001314+00000+0001T   00001314+0000001423          1400 LB7312               1AZ
487865003487865112-116038     487865006003000534906TCS CARRIER BAG MIDI   0000001000+00000035+00000+0001T   00000035+0000001423          1400 LB7090               1AZ
487866000487866               487866               170213EU     1400+00000+EU0000006092+0000006092+000000000+000000854+0000006946+0000000000+I40000006946+0000000000+Z
487866001487866368-000049     487866006003000536955PLUSH BEAR 15cm LOVE   0000001000+00004385+00000+0001T   00004385+0000001426          1400 LB7745               1AZ
487866002487866006-000171-C   487866006003000609178BALLOONS 1PC D/GRN PRNT0000001000+00000218+00000+0001T   00000218+0000001426          1400 LB7131               1AZ
487866003487866006-001000     487866006003000093779HELIUM BALLOON FILL    0000001000+00000613+00000+0001T   00000613+0000001426          1400 LB7131               1AZ
487866004487866077-000151     487866006008766114676GIFT-WRAP C/PHANE ASSTD0000001000+00000876+00000+0001T   00000876+0000001426          1400 LB7112               1AZ
487867000487867               487867               170213EU     1400+00000+EU0000007015+0000007015+000000000+000000983+0000007998+0000000000+I40000007998+0000000000+Z
487867001487867007-000614     487867006001023768667DIARY W/LOCK+PEN LOVE  0000001000+00005262+00000+0001T   00005262+0000001455          1400 LB7130               1AZ
487867002487867077-000472     487867006003000330133G-BAG DESGNR LRG 25X32 0000001000+00001753+00000+0001T   00001753+0000001455          1400 LB7112               1AZ
487868000487868               487868               170213EU     1400+00000+EU0000003069+0000003069+000000000+000000430+0000003490+0000000009+I20000000000+0000003490+Z
487868001487868038-092233     487868006003000328925TABLE-MAT N/SLIP ASST  0000001000+00003069+00000+0001T   00003507+0008191513          1400 LB7300               1AZ
487869000487869               487869               170213EU     1400+00000+EU0000008804+0000008804+000000000+000001233+0000010037+0000000000+I40000010037+0000000000+Z
487869001487869566-000991     487869000721129013121STICKERS GLOW-IN-DARK  0000002000+00002192+00000+0001T   00002192+0000001515          1400 LB7130               1AZ
487869002487869368-006004     487869006003000671076PLUSH DOLPHIN          0000001000+00004385+00000+0001T   00004385+0000001515          1400 LB7745               1AZ
487869003487869112-116038     487869006009681820246TCS CARRIER BAG MIDI   0000001000+00000035+00000+0001T   00000035+0000001515          1400 LB7090               1AZ
487870000487870               487870               170213EU     1400+00000+EU0000001490+0000001490+000000000+000000209+0000001690+0000000009+I20000000000+0000001690+Z
487870001487870077-000299     487870006003000395576G/BAG 32x25cm LRG LOVE 0000001000+00001490+00000+0001T   00001490+0000001516          1400 LB7112               1AZ
487871000487871               487871               170213EU     1400+00000+EU0000014028+0000014028+000000000+000001964+0000015990+0000000002+I20000000000+0000015990+Z
487871001487871567-075490     487871009780799376944BK NOVEL ROMANCE AFR   0000004000+00003507+00000+0001T   00003507+0000001520          1400 LB7757               1AZ
487872000487872               487872               170213EU     1400+00000+EU0000004385+0000004385+000000000+000000614+0000004999+0000000000+I40000004999+0000000000+Z
487872001487872079-013052     487872000795229385143CHALK S/WALK 15PCS ASST0000001000+00004385+00000+0001T   00004385+0000001521          1400 LB7130               1AZ
487873000487873               487873               170213EU     1400+00000+EU0000002630+0000002630+000000000+000000369+0000002999+0000000000+I40000002999+0000000000+Z
487873001487873071-000013     487873006003000535354BOARD DUSTER           0000001000+00002630+00000+0001T   00002630+0000001522          1400 LB7130               1AZ
487874000487874               487874               170213EU     1400+00000+EU0000000393+0000000393+000000000+000000056+0000000440+0000000009+I20000000000+0000000440+Z
487874001487874001-000001     487874006001023507266SHOT-GLASS 25ml        0000001000+00000393+00000+0001T   00000393+0000001531          1400 LB7515               1AZ
487875000487875               487875               170213EU     1400+00000+EU0000008418+0000008418+000000000+000001180+0000009590+0000000008+I20000000000+0000009590+Z
487875001487875027-000194     487875006001246602472MOP COMPLETE           0000001000+00002279+00000+0001T   00002279+0000001537          1400 LB7212               1AZ
487875002487875027-000029     487875006003000439676FLOOR-BROOM 1.2m ASSTD 0000001000+00006139+00000+0001T   00006139+0000001537          1400 LB7212               1AZ
487876000487876               487876               170213EU     1400+00000+EU0000001139+0000001139+000000000+000000160+0000001290+0000000009+I20000000000+0000001290+Z
487876001487876903-000087     487876006001704000161SWT SPECKLED-EGGS 50G  0000001000+00001139+00000+0001T   00001139+0000001539          1400 LB7150               1AZ
487877000487877               487877               170213EU     1400+00000+EU0000013769+0000013769+000000000+000001929+0000015698+0000000000+I40000015698+0000000000+Z
487877001487877368-000113     487877006001023780874PLUSH BLINGED LOVE 30cm0000001000+00012279+00000+0001T   00012279+0000001543          1400 LB7745               1AZ
487877002487877077-000299     487877006003000395576G/BAG 32x25cm LRG LOVE 0000001000+00001490+00000+0001T   00001490+0000001543          1400 LB7112               1AZ
487878000487878               487878               170213EU     1400+00000+EU0000001753+0000001753+000000000+000000246+0000001990+0000000009+I20000000000+0000001990+Z
487878001487878006-000120     487878006001023346889BALLOONS 10PC MIX COL  0000001000+00001753+00000+0001T   00001753+0000001552          1400 LB7131               1AZ
487879000487879               487879               170213EU     1400+00000+EU0000004385+0000004385+000000000+000000614+0000004990+0000000009+I20000000000+0000004990+Z
487879001487879039-091784     487879006003000275311CANDLE LED CLR CHANGE  0000001000+00004385+00000+0001T   00004385+0000001606          1400 LB7510               1AZ
487880000487880               487880               170213EU     1400+00000+EU0000004206+0000004206+000000000+000000590+0000004790+0000000006+I20000000000+0000004790+Z
487880001487880304-001204     487880006001023737984FLOWER OCC. TEDDY/ROSES0000001000+00001402+00000+0001T   00001490+0006471609          1400 LB7510               1AZ
487880002487880030-000010     487880006003000084395P/DOOR HANGER 2-ASSTD  0000001000+00001314+00000+0001T   00001490+0008181609          1400 LB7505               1AZ
487880003487880077-000299     487880006003000395576G/BAG 32x25cm LRG LOVE 0000001000+00001490+00000+0001T   00001490+0000001609          1400 LB7112               1AZ
487881000487881               487881               170213EU     1400+00000+EU0000001402+0000001402+000000000+000000197+0000001590+0000000009+I20000000000+0000001590+Z
487881001487881304-001204     487881006001023737984FLOWER OCC. TEDDY/ROSES0000001000+00001402+00000+0001T   00001490+0006471610          1400 LB7510               1AZ
487882000487882               487882               170213EU     1400+00000+EU0000003542+0000003542+000000000+000000496+0000004030+0000000008+I20000000000+0000004030+Z
487882001487882018-000130     487882006001023867537MUG OCC LOVE MINI+HEART0000001000+00003507+00000+0001T   00003507+0000001615          1400 LB7515               1AZ
487882002487882112-116038     487882006003000534906TCS CARRIER BAG MIDI   0000001000+00000035+00000+0001T   00000035+0000001615          1400 LB7090               1AZ
487883000487883               487883               170213EU     1400+00000+EU0000008943+0000008943+000000000+000001253+0000010196+0000000000+I40000010196+0000000000+Z
487883001487883369-001029     487883006001023795854BABY RATTLE/TEETHER ASS0000001000+00001578+00000+0001T   00001578+0000001616          1400 LB7745               1AZ
487883002487883369-001010     487883006001023864222BATH VINYL DUCK 4PC    0000001000+00002192+00000+0001T   00002192+0000001616          1400 LB7745               1AZ
487883003487883567-000042     487883009781842057889BK DICTIONARY 399PG ENG0000001000+00003946+00000+0001T   00003946+0000001616          1400 LB7757               1AZ
487883004487883200-000092     487883006003000576739PICNIC PAPER PLATES 23c0000001000+00001227+00000+0001T   00001227+0000001616          1400 LB7214               1AZ
487884000487884               487884               170213EU     1400+00000+EU0000004822+0000004822+000000000+000000676+0000005498+0000000000+I40000005498+0000000000+Z
487884001487884001-000175     487884006001023788108B/MUG GLS LOVE 380ML   0000001000+00004385+00000+0001T   00004385+0000001617          1400 LB7515               1AZ
487884002487884080-000133     487884006003000535613CARD&ENV MINI ASTD DSGN0000001000+00000437+00000+0001T   00000437+0000001617          1400 LB7112               1AZ
487885000487885               487885               170213EU     1400+00000+EU0000003945+0000003945+000000000+000000553+0000004490+0000000008+I20000000000+0000004490+Z
487885001487885016-006518     487885006003000351749S/JAR GLS CHECK 350ML  0000001000+00001753+00000+0001T   00001753+0000001618          1400 LB7300               1AZ
487885002487885016-006517     487885006003000351626S/JAR GLS CHECK 650ML  0000001000+00002192+00000+0001T   00002192+0000001618          1400 LB7300               1AZ
487886000487886               487886               170213EU     1400+00000+EU0000007629+0000007629+000000000+000001069+0000008690+0000000008+I20000000000+0000008690+Z
487886001487886018-050000     487886006003000412679MUG OCC LOVE TWIN BEAR 0000001000+00006139+00000+0001T   00006139+0000001637          1400 LB7515               1AZ
487886002487886077-000299     487886006003000395576G/BAG 32x25cm LRG LOVE 0000001000+00001490+00000+0001T   00001490+0000001637          1400 LB7112               1AZ
487887000487887               487887               170213EU     1400+00000+EU0000001314+0000001314+000000000+000000184+0000001490+0000000008+I20000000000+0000001490+Z
487887001487887903-000194     487887006009826020616SWT CHOC RP LOLLY 25G  0000001000+00001314+00000+0001T   00001314+0000001640          1400 LB7150               1AZ
487888000487888               487888               170213EU     1400+00000+EU0000003015+0000003015+000000000+000000423+0000003430+0000000008+I20000000000+0000003430+Z
487888001487888018-000127     487888006001023380289MUG OCC STRAIGHT LOVE  0000001000+00001578+00000+0001T   00001753+0006471641          1400 LB7515               1AZ
487888002487888304-001204     487888006001023737984FLOWER OCC. TEDDY/ROSES0000001000+00001402+00000+0001T   00001490+0006471641          1400 LB7510               1AZ
487888003487888112-116038     487888006003000534906TCS CARRIER BAG MIDI   0000001000+00000035+00000+0001T   00000035+0000001641          1400 LB7090               1AZ
487889000487889               487889               170213EU     1400+00000+EU0000001227+0000001227+000000000+000000172+0000001390+0000000009+I20000000000+0000001390+Z
487889001487889077-000322     487889006001023677532GIFT-BAG 18X23CM E/D FL0000001000+00001227+00000+0001T   00001227+0000001646          1400 LB7112               1AZ
487890000487890               487890               170213EU     1400+00000+EU0000001490+0000001490+000000000+000000209+0000001690+0000000009+I20000000000+0000001690+Z
487890001487890077-000299     487890006003000395576G/BAG 32x25cm LRG LOVE 0000001000+00001490+00000+0001T   00001490+0000001647          1400 LB7112               1AZ
487891000487891               487891               170213EU     1400+00000+EU0000007016+0000007016+000000000+000000983+0000007990+0000000009+I20000000000+0000007990+Z
487891001487891031-000017     487891006003000411436P/FRAME COLLAGE 3-HOLE 0000001000+00007016+00000+0001T   00007016+0000001651          1400 LB7510               1AZ
487892000487892               487892               170213EU     1400+00000+EU0000015202+0000015202+000000000+000002130+0000017332+0000000000+I40000017332+0000000000+Z
487892001487892080-000124     487892006003000297733CARD & ENV VALENTINES  0000001000+00001578+00000+0001T   00001578+0000001658          1400 LB7112               1AZ
487892002487892080-000113     487892006003000237449CARD&ENVLPE - LOVE     0000001000+00001753+00000+0001T   00001753+0000001658          1400 LB7112               1AZ
487892003487892018-000130     487892006001023867537MUG OCC LOVE MINI+HEART0000001000+00003507+00000+0001T   00003507+0000001658          1400 LB7515               1AZ
487892004487892903-000194     487892006009826020616SWT CHOC RP LOLLY 25G  0000001000+00001314+00000+0001T   00001314+0000001658          1400 LB7150               1AZ
487892005487892002-000097     487892006001023489784CAN-OPENER             0000001000+00006139+00000+0001T   00006139+0000001658          1400 LB7300               1AZ
487892006487892903-003080     487892005907029004673SWT SNACK STIX CHOC 50g0000001000+00000876+00000+0001T   00000876+0000001658          1400 LB7150               1AZ
487892007487892112-116038     487892006009681820246TCS CARRIER BAG MIDI   0000001000+00000035+00000+0001T   00000035+0000001658          1400 LB7090               1AZ
487893000487893               487893               170213EU     1400+00000+EU0000014464+0000014464+000000000+000002028+0000016490+0000000002+I20000000000+0000016490+Z
487893001487893562-059811     487893006003000158164EDU MAGNETIC NUMBERS   0000001000+00001753+00000+0001T   00001753+0000001710          1400 LB7755               1AZ
487893002487893077-000150-D   487893006003000054343GIFT-WRAP CELLPHANE CLR0000002000+00000876+00000+0001T   00000876+0000001710          1400 LB7112               1AZ
487893003487893206-000620     487893006003000631797BACK SCRATCHER EXTEND  0000001000+00002630+00000+0001T   00002630+0000001710          1400 LB7321               1AZ
487893004487893080-000139     487893006003000611690CARD & ENV MINI SET 6PC0000001000+00002192+00000+0001T   00002192+0000001710          1400 LB7112               1AZ
487893005487893566-000036     487893006003000384051STICKERS MOTIVATION    0000001000+00001753+00000+0001T   00001753+0000001710          1400 LB7130               1AZ
487893006487893566-000031     487893006003000283910STICKER BK TEACHER STIC0000001000+00002192+00000+0001T   00002192+0000001710          1400 LB7130               1AZ
487893007487893080-000127     487893006003000424351VALENTINES DAY 36x24CM 0000001000+00002192+00000+0001T   00002192+0000001710          1400 LB7112               1AZ
487894000487894               487894               170213EU     1400+00000+EU0000001753+0000001753+000000000+000000246+0000001990+0000000009+I20000000000+0000001990+Z
487894001487894903-000211     487894006002099001238SWT GS MALLOW ICE CREAM0000001000+00001753+00000+0001T   00001753+0000001710          1400 LB7150               1AZ
487895000487895               487895               170213EU     1400+00000+EU0000006837+0000006837+000000000+000000958+0000007795+0000000000+I40000007795+0000000000+Z
487895001487895006-000190     487895006003000685530BALLOONS LOVE 81x91cm  0000001000+00004385+00000+0001T   00004385+0000001716          1400 LB7131               1AZ
487895002487895006-001000     487895006003000093779HELIUM BALLOON FILL    0000004000+00000613+00000+0001T   00000613+0000001716          1400 LB7131               1AZ
A17021300                                          09090495EUSLAVE 1                       LB72IC
A17021301                                          14211742EUSLAVE 1                       LR72IC
A17021302                                          16412959EUSLAVE 1                       LB72IC
C48782200                                          170213EU027-000027     10020390SLAVE 1     LR72IC0000000000+0000000000+0020000001000+
C48785200                                          170213EU040-000214     13241203SLAVE 1     LB71IC0000000000+0000000000+0010000001000+
M17021391                              CASH        EUSLAVE 1                       Z-REPORT No.   625TOTAL (Sales - Refunds)           5361.38       CASH TO BE BANKED                 3518.20       DEBIT CARDS                          0.00       CREDIT CARDS                      1843.18       Z-READING                         5361.38       AIRTIME DEBIT CARD SALES             0.00       AIRTIME CARD SALES                   0.00       OVERS/UNDERS                         0.00       AIRTIME CASH SALES                   0.00       GIFT CARDS                           0.00       GIFT CARD CASH SALES                 0.00       T O T A L  CASH PAYOUTS              0.00                                                                                                                                                                                                                                                                                                                                                      Z
M17021392                              CASH        EUABSENT                                                                                                                                                                                          ANNUAL LEAVE                                                                                                                                                                                    DAY OFF                                                                                                                                                                                         COMMENTS                                                                                                                                                                                                                                                                                                                                                                                       Z
Y17021300                                          EU00000000470656+000080
ZEU17021319353 SLAVE 1      SALES DATA                     NEXT INVOICE NO.  487896 0625
X EU Slave 1 First invoice 487816 170213 Last invoice 487895 170213 Next invoice 487896 Total number of records 000000264 clbackup completed 19:35:29
