490527000490527               490527               170213EU     1400+00000+EU0000014720-0000000000+000000000+000000000+0000014720-0000000000+I20000000000+0000014720-Z
490527001490527001-999901     490527000000000999901CASUAL WAGES           0000001000-00014720+00000+0001X  9601110311087 0800OBOTHA0000000000 CP59012IC            2 Z
490528000490528               490528               170213EU     1400+00000+EU0000007013+0000007013+000000000+000000983+0000007990+0000000006+I20000000000+0000007990+Z
490528001490528566-000367     490528006003000645558STICKER WINDOW DECOR   0000001000+00002630+00000+0001T   00002630+0000000907          1400 LR7130               2AZ
490528002490528089-000192-A   490528006001023901774KEY-CHAIN ACRYLIC      0000001000+00000876+00000+0001T   00000876+0000000907          1400 LR7205               2AZ
490528003490528301-085004     490528006003000420469ORN LOVE PLAQUE 21X10CM0000001000+00003507+00000+0001T   00003946+0006470907          1400 LR7505               2AZ
490529000490529               490529               170213EU     1400+00000+EU0000009990+0000009990+000000000+000001401+0000011390+0000000001+I20000000000+0000011390+Z
490529001490529036-000615     490529004713928167880WASH-PEGS PL PCK-24    0000001000+00001753+00000+0001T   00001753+0000000911          1400 CP5212               2AZ
490529002490529077-000245     490529006001023759214GIFT-RIBBON METALLICx2 0000001000+00001227+00000+0001T   00001227+0000000911          1400 CP5112               2AZ
490529003490529077-000010-D   490529006001023123886CREPE-PAPER WHITE      0000001000+00000788+00000+0001T   00000788+0000000911          1400 CP5112               2AZ
490529004490529077-000010-C   490529006001023123879CREPE-PAPER RED        0000001000+00000788+00000+0001T   00000788+0000000911          1400 CP5112               2AZ
490529005490529903-000843     490529008693029031067SWT GUMMY JELAXY 80G   0000004000+00000964+00000+0001T   00000964+0000000911          1400 CP5150               2AZ
490529006490529566-001234     490529006003000217793STICKERS LASER ASSTD   0000001000+00001578+00000+0001T   00001578+0000000911          1400 CP5130               2AZ
490530000490530               490530               170213EU     1400+00000+EU0000001402+0000001402+000000000+000000197+0000001590+0000000009+I20000000000+0000001590+Z
490530001490530046-000011     490530004897006172994BATTERIES SIZE:AA  2PCE0000001000+00001402+00000+0001T   00001402+0000000917          1400 CP5312               2AZ
490531000490531               490531               170213EU     1400+00000+EU0000007013+0000007013+000000000+000000983+0000007990+0000000006+I20000000000+0000007990+Z
490531001490531018-000136     490531006001023659026MUG OCC LOVE W/PLUSH   0000001000+00003507+00000+0001T   00003507+0000000918          1400 CP5515               2AZ
490531002490531077-000309     490531006001023608604GIFT-BAG 25X32CM GLOSS 0000001000+00001753+00000+0001T   00001753+0000000918          1400 CP5112               2AZ
490531003490531077-000316     490531006001023609731GIFT-BAG 25X32CM MATT  0000001000+00001753+00000+0001T   00001753+0000000918          1400 CP5112               2AZ
490532000490532               490532               170213EU     1400+00000+EU0000000876+0000000876+000000000+000000123+0000000990+0000000009+I20000000000+0000000990+Z
490532001490532078-000025     490532008887013700064SUPERGLUE 3g 1PCE CARD 0000001000+00000876+00000+0001T   00000876+0000000919          1400 CP5810               2AZ
490533000490533               490533               170213EU     1400+00000+EU0000002892+0000002892+000000000+000000406+0000003298+0000000000+I40000003298+0000000000+Z
490533001490533046-000004     490533000043297016095BATTERY 9VOLT H/POWER  0000001000+00001490+00000+0001T   00001490+0000000921          1400 CP5312               2AZ
490533002490533046-000011     490533004897006172994BATTERIES SIZE:AA  2PCE0000001000+00001402+00000+0001T   00001402+0000000921          1400 CP5312               2AZ
490534000490534               490534               170213EU     1400+00000+EU0000002630+0000002630+000000000+000000369+0000002990+0000000009+I20000000000+0000002990+Z
490534001490534046-000016-VP  490534006003000537990BATTERIES HP AAx8+AAAx40000001000+00002630+00000+0001T   00002630+0000000946          1400 LR7312               2AZ
490535000490535               490535               170213EU     1400+00000+EU0000000035+0000000035+000000000+000000005+0000000040+0000000000+I20000000000+0000000040+Z
490535001490535112-116038     490535006003000534906TCS CARRIER BAG MIDI   0000001000+00000035+00000+0001T   00000035+0000000946          1400 LR7090               2AZ
490536000490536               490536               170213EU     1400+00000+EU0000002630+0000002630+000000000+000000369+0000002990+0000000009+I20000000000+0000002990+Z
490536001490536084-000359     490536006003000642960NAIL MANICURE SET S/STE0000001000+00002630+00000+0001T   00002630+0000000949          1400 LR7200               2AZ
490537000490537               490537               170213EU     1400+00000+EU0000004680+0000004680+000000000+000000656+0000005336+0000000000+I40000005336+0000000000+Z
490537001490537080-000114     490537006003000246472CARD&ENV LOVE-MUSICAL  0000001000+00001314+00000+0001T   00001753+0008150951          1400 CP5112               2AZ
490537002490537018-000127     490537006001023380289MUG OCC STRAIGHT LOVE  0000001000+00001578+00000+0001T   00001753+0006470951          1400 CP5515               2AZ
490537003490537016-006518     490537006003000351749S/JAR GLS CHECK 350ML  0000001000+00001753+00000+0001T   00001753+0000000951          1400 CP5300               2AZ
490537004490537112-116038     490537006009681820246TCS CARRIER BAG MIDI   0000001000+00000035+00000+0001T   00000035+0000000951          1400 CP5090               2AZ
490538000490538               490538               170213EU     1400+00000+EU0000003331+0000003331+000000000+000000467+0000003790+0000000008+I20000000000+0000003790+Z
490538001490538078-013424     490538006008741000338CONTACT-ADHESIVE 50ml  0000001000+00001578+00000+0001T   00001578+0000000951          1400 CP5810               2AZ
490538002490538078-000480     490538006008741002332BOSTIK SHOE-REPAIR 25ml0000001000+00001753+00000+0001T   00001753+0000000951          1400 CP5810               2AZ
490539000490539               490539               170213EU     1400+00000+EU0000007190+0000007190+000000000+000001007+0000008190+0000000007+I20000000000+0000008190+Z
490539001490539264-000925-403 490539004893993300006BURAGO 1:43 STREET FIRE0000001000+00005700+00000+0001T   00005700+0000000953          1400 CP5710               2AZ
490539002490539071-000873     490539006001023758743RUB-BANDS CLR BAG-100  0000001000+00001490+00000+0001T   00001490+0000000953          1400 CP5130               2AZ
490540000490540               490540               170213EU     1400+00000+EU0000036825-0000036825-000000000+000005159-0000041990-0000000006+I20000000000+0000041990-Z
490540001490540048-000751     490540006001023849779CAMPING-LANTERN B/O    0000003000-00003507+00000+0001T   00003507+0000001000          1400 CP53052IC            2 Z
490540002490540048-000820     490540006003000269846LANTERN B/O 15 LED     0000003000-00004385+00000+0001T   00004385+0000001000          1400 CP53052IC            2 Z
490540003490540046-000015     490540006001023680839BATTERIES SIZE:D   2PCE0000005000-00002367+00000+0001T   00002367+0000001000          1400 CP53122IC            2 Z
490540004490540046-000012     490540006904708013062BATTERIES AA  CARD-OF-40000001000-00001314+00000+0001T   00001314+0000001000          1400 CP53121IC            2 Z
490541000490541               490541               170213EU     1400+00000+EU0000003542+0000003542+000000000+000000496+0000004030+0000000008+I20000000000+0000004030+Z
490541001490541018-005009     490541006001023725608MUG W/PLUSH-BEAR LOVE  0000001000+00003507+00000+0001T   00003507+0000001004          1400 CP5515               2AZ
490541002490541112-116038     490541006009681820246TCS CARRIER BAG MIDI   0000001000+00000035+00000+0001T   00000035+0000001004          1400 CP5090               2AZ
490542000490542               490542               170213EU     1400+00000+EU0000003243+0000003243+000000000+000000455+0000003698+0000000000+I40000003698+0000000000+Z
490542001490542077-000299     490542006003000395576G/BAG 32x25cm LRG LOVE 0000001000+00001490+00000+0001T   00001490+0000001013          1400 CP5112               2AZ
490542002490542080-000113     490542006003000237449CARD&ENVLPE - LOVE     0000001000+00001753+00000+0001T   00001753+0000001013          1400 CP5112               2AZ
490543000490543               490543               170213EU     1400+00000+EU0000002629+0000002629+000000000+000000369+0000002990+0000000008+I20000000000+0000002990+Z
490543001490543079-000275     490543006003000160488PAINT-BRUSHES 6PCE PRO 0000001000+00001753+00000+0001T   00001753+0000001055          1400 CP5130               2AZ
490543002490543903-000482     490543006001704001397SWT SOFT-MINTS 60G     0000001000+00000876+00000+0001T   00000876+0000001055          1400 CP5150               2AZ
490544000490544               490544               170213EU     1400+00000+EU0000004822+0000004822+000000000+000000676+0000005498+0000000000+I40000005498+0000000000+Z
490544001490544077-000926     490544006003000414178G/WRAP 700mmx2m LOVE   0000001000+00002192+00000+0001T   00002192+0000001100          1400 CP5112               2AZ
490544002490544567-075466     490544006001023644572BK NOVEL ROMANCE       0000001000+00002630+00000+0001T   00002630+0000001100          1400 CP5757               2AZ
490545000490545               490545               170213EU     1400+00000+EU0000000437+0000000437+000000000+000000062+0000000490+0000000009+I20000000000+0000000490+Z
490545001490545080-000133     490545006003000535613CARD&ENV MINI ASTD DSGN0000001000+00000437+00000+0001T   00000437+0000001100          1400 CP5112               2AZ
490546000490546               490546               170213EU     1400+00000+EU0000001227+0000001227+000000000+000000172+0000001390+0000000009+I20000000000+0000001390+Z
490546001490546071-081091     490546006001151010287STAED/GENKEM ALL-STICK 0000001000+00001227+00000+0001T   00001227+0000001117          1400 CP5130               2AZ
490547000490547               490547               170213EU     1400+00000+EU0000023195+0000023195+000000000+000003250+0000026445+0000000000+I40000026445+0000000000+Z
490547001490547112-116069     490547006009681820277TCS CARRIER BAG JUMBO  0000001000+00000048+00000+0001T   00000048+0000001127          1400 CP5090               2AZ
490547002490547031-005923     490547006003000040322P/FRAME CERT PL 21x29.70000003000+00003507+00000+0001T   00003507+0000001127          1400 CP5510               2AZ
490547003490547036-000063     490547006009654960436COATHANGERS VIRGIN 5PCE0000002000+00001753+00000+0001T   00001753+0000001127          1400 CP5212               2AZ
490547004490547047-000513-H   490547006001023427496EXT-CORD 5M JANUS 10A  0000001000+00007893+00000+0001T   00007893+0000001127          1400 CP5880               2AZ
490547005490547033-000013     490547006001023567215PILL-REMINDER PL       0000001000+00001227+00000+0001T   00001227+0000001127          1400 CP5200               2AZ
490548000490548               490548               170213EU     1400+00000+EU0000004064+0000004064+000000000+000000570+0000004630+0000000004+I20000000000+0000004630+Z
490548001490548079-013099     490548006003000081875ART+CRAFT EYES ASSTD   0000001000+00001753+00000+0001T   00001753+0000001128          1400 CP5130               2AZ
490548002490548903-000121     490548006002099001689SWT GS ZILLIONS SOURS  0000001000+00000700+00000+0001T   00000700+0000001128          1400 CP5150               2AZ
490548003490548903-000295     490548006001704002899SWT MS FRUITY RASCALS  0000001000+00000876+00000+0001T   00000876+0000001128          1400 CP5150               2AZ
490548004490548903-000070     490548006001704001106SWT TOFFEE CREAMY 35g  0000001000+00000700+00000+0001T   00000700+0000001128          1400 CP5150               2AZ
490548005490548112-116038     490548006009681820246TCS CARRIER BAG MIDI   0000001000+00000035+00000+0001T   00000035+0000001128          1400 CP5090               2AZ
490549000490549               490549               170213EU     1400+00000+EU0000006138+0000006138+000000000+000000860+0000006990+0000000008+I20000000000+0000006990+Z
490549001490549033-000123     490549006003000622382HAIR COMB STRAIGHTENING0000001000+00001753+00000+0001T   00001753+0000001130          1400 CP5200               2AZ
490549002490549264-000925-351 490549006003000642205BURAGO 1:64 FERRARI    0000001000+00004385+00000+0001T   00006139+0008131130          1400 CP5710               2AZ
490550000490550               490550               170213EU     1400+00000+EU0000000876+0000000876+000000000+000000123+0000000990+0000000009+I20000000000+0000000990+Z
490550001490550083-000295     490550006001023898562LIGHTER-GAS BUTANE 18ml0000001000+00000876+00000+0001T   00000876+0000001137          1400 CP5315               2AZ
490551000490551               490551               170213EU     1400+00000+EU0000002192+0000002192+000000000+000000307+0000002499+0000000000+I40000002499+0000000000+Z
490551001490551007-000597     490551006009699511129MARLIN SLF ADHESIVE 2M 0000001000+00002192+00000+0001T   00002192+0000001143          1400 CP5130               2AZ
490552000490552               490552               170213EU     1400+00000+EU0000014908+0000014908+000000000+000002088+0000016996+0000000000+I40000016996+0000000000+Z
490552001490552903-000194     490552006009826020616SWT CHOC RP LOLLY 25G  0000001000+00001314+00000+0001T   00001314+0000001145          1400 CP5150               2AZ
490552002490552083-000049     490552004891035200024CIG-LIGHTER DISPOSABLE 0000001000+00000437+00000+0001T   00000437+0000001145          1400 CP5315               2AZ
490552003490552030-004020     490552006003000394609PLAQUE WDN SIGN 40X25CM0000001000+00013157+00000+0001T   00013157+0000001145          1400 CP5505               2AZ
490553000490553               490553               170213EU     1400+00000+EU0000001227+0000001227+000000000+000000172+0000001390+0000000009+I20000000000+0000001390+Z
490553001490553251-000041     490553006001023515889SEAL-TAPE BUFF 48mmx50m0000001000+00001227+00000+0001T   00001227+0000001146          1400 CP5810               2AZ
490554000490554               490554               170213EU     1400+00000+EU0000003069+0000003069+000000000+000000430+0000003499+0000000000+I40000003499+0000000000+Z
490554001490554016-006530     490554006003000618668S/JAR GLS COUNTER 2SIDE0000001000+00003069+00000+0001T   00003069+0000001201          1400 CP5300               2AZ
490555000490555               490555               170213EU     1400+00000+EU0000003507+0000003507+000000000+000000491+0000003990+0000000008+I20000000000+0000003990+Z
490555001490555206-000610     490555006003000631674BOMB SHOTS PL 10PC     0000001000+00003507+00000+0001T   00003507+0000001210          1400 CP5321               2AZ
490556000490556               490556               170213EU     1400+00000+EU0000001314+0000001314+000000000+000000184+0000001490+0000000008+I20000000000+0000001490+Z
490556001490556046-000012     490556006904708013062BATTERIES AA  CARD-OF-40000001000+00001314+00000+0001T   00001314+0000001213          1400 CP5312               2AZ
490557000490557               490557               170213EU     1400+00000+EU0000013724+0000013724+000000000+000001923+0000015640+0000000007+I20000000000+0000015640+Z
490557001490557112-116069     490557006009681820277TCS CARRIER BAG JUMBO  0000001000+00000048+00000+0001T   00000048+0000001217          1400 CP5090               2AZ
490557002490557032-000138     490557006003000466191MIRROR STANDING PL SQR 0000001000+00003069+00000+0001T   00003069+0000001217          1400 CP5510               2AZ
490557003490557104-000183     490557006003000593729CUTLERY DRAINER 3DIV PL0000001000+00005262+00000+0001T   00005262+0000001217          1400 CP5210               2AZ
490557004490557007-000167     490557006009685857347SPIRAL NOTES A7 72PG   0000004000+00000350+00000+0001T   00000350+0000001217          1400 CP5130               2AZ
490557005490557046-000014-A   490557004897006177708BATTERIES SIZE:AAA 8PCE0000001000+00001753+00000+0001T   00001753+0000001217          1400 CP5312               2AZ
490557006490557046-000012-A   490557006003000208296BATTERIES H/POWER SZ:AA0000001000+00002192+00000+0001T   00002192+0000001217          1400 CP5312               2AZ
490558000490558               490558               170213EU     1400+00000+EU0000002497+0000002497+000000000+000000351+0000002840+0000000008+I20000000000+0000002840+Z
490558001490558108-001035     490558006001023582546TUMBLER HI-BALL CLEAR  0000001000+00000744+00000+0001T   00000744+0000001218          1400 CP5210               2AZ
490558002490558306-000529     490558006003000571338TOOTHBRUSH HOLDER 20cm 0000001000+00001753+00000+0001T   00001753+0000001218          1400 CP5200               2AZ
490559000490559               490559               170213EU     1400+00000+EU0000004856+0000004856+000000000+000000680+0000005530+0000000006+I20000000000+0000005530+Z
490559001490559903-000194     490559006009826020616SWT CHOC RP LOLLY 25G  0000001000+00001314+00000+0001T   00001314+0000001220          1400 CP5150               2AZ
490559002490559018-005009     490559006001023725608MUG W/PLUSH-BEAR LOVE  0000001000+00003507+00000+0001T   00003507+0000001220          1400 CP5515               2AZ
490559003490559112-116038     490559006009681820246TCS CARRIER BAG MIDI   0000001000+00000035+00000+0001T   00000035+0000001220          1400 CP5090               2AZ
490560000490560               490560               170213EU     1400+00000+EU0000000876+0000000876+000000000+000000123+0000000990+0000000009+I20000000000+0000000990+Z
490560001490560089-000192-A   490560006001023901774KEY-CHAIN ACRYLIC      0000001000+00000876+00000+0001T   00000876+0000001220          1400 CP5205               2AZ
490561000490561               490561               170213EU     1400+00000+EU0000018464+0000018464+000000000+000002587+0000021050+0000000001+I20000000000+0000021050+Z
490561001490561077-000011-R   490561006001023808462P/TISSUE DARK 10-SHEETS0000002000+00000876+00000+0001T   00000876+0000001242          1400 CP5112               2AZ
490561002490561140-092001     490561006001023819154MOSQ-NET 900x230x60cm  0000001000+00014034+00000+0001T   00014034+0000001242          1400 CP5830               2AZ
490561003490561032-000137     490561006001023763068MIRROR PL SWIVEL OVAL  0000001000+00002630+00000+0001T   00003507+0008171242          1400 CP5510               2AZ
490561004490561112-116069     490561006009681820277TCS CARRIER BAG JUMBO  0000001000+00000048+00000+0001T   00000048+0000001242          1400 CP5090               2AZ
490562000490562               490562               170213EU     1400+00000+EU0000002192+0000002192+000000000+000000307+0000002490+0000000009+I20000000000+0000002490+Z
490562001490562002-000684     490562006001023693778K/TOOL TURNER H/HOUSE  0000001000+00002192+00000+0001T   00002192+0000001242          1400 CP5300               2AZ
490563000490563               490563               170213EU     1400+00000+EU0000001402+0000001402+000000000+000000197+0000001590+0000000009+I20000000000+0000001590+Z
490563001490563007-000326     490563006009699513833PAPER A4 80GSM 10'S BLK0000001000+00001402+00000+0001T   00001402+0000001246          1400 CP5130               2AZ
490564000490564               490564               170213EU     1400+00000+EU0000012919+0000012919+000000000+000001812+0000014730+0000000001+I20000000000+0000014730+Z
490564001490564078-009100     490564006008741002349ALL-CLEAR GLUE 25ml CRD0000001000+00001314+00000+0001T   00001314+0000001247          1400 CP5810               2AZ
490564002490564078-000480     490564006008741002332BOSTIK SHOE-REPAIR 25ml0000001000+00001753+00000+0001T   00001753+0000001247          1400 CP5810               2AZ
490564003490564006-000788     490564006001023990228CROWN HAPPY BIRTHDAY   0000001000+00001490+00000+0001T   00001490+0000001247          1400 CP5131               2AZ
490564004490564079-013099     490564006003000081875ART+CRAFT EYES ASSTD   0000001000+00001753+00000+0001T   00001753+0000001247          1400 CP5130               2AZ
490564005490564079-130100     490564006003000542635A&C DIY COLOUR EYES 24P0000001000+00001490+00000+0001T   00001490+0000001247          1400 CP5130               2AZ
490564006490564033-000106     490564006001023678027ELASTIC  6mmx3m  CARDED0000001000+00000876+00000+0001T   00000876+0000001247          1400 CP5200               2AZ
490564007490564903-000095     490564006001704011495SWT SPECKLED-EGGS 100G 0000002000+00002104+00000+0001T   00002104+0000001247          1400 CP5150               2AZ
490564008490564112-116038     490564006009681820246TCS CARRIER BAG MIDI   0000001000+00000035+00000+0001T   00000035+0000001247          1400 CP5090               2AZ
490565000490565               490565               170213EU     1400+00000+EU0000009681+0000009681+000000000+000001356+0000011037+0000000000+I40000011037+0000000000+Z
490565001490565105-007400     490565006003000629435CONTAINER MINI 140ml   0000001000+00003507+00000+0001T   00003507+0000001250          1400 CP5210               2AZ
490565002490565361-009988     490565006001023866011PONY 24cm W/SIDE-SADDLE0000001000+00006139+00000+0001T   00006139+0000001250          1400 CP5725               2AZ
490565003490565112-116038     490565006009681820246TCS CARRIER BAG MIDI   0000001000+00000035+00000+0001T   00000035+0000001250          1400 CP5090               2AZ
490566000490566               490566               170213EU     1400+00000+EU0000002892+0000002892+000000000+000000406+0000003290+0000000008+I20000000000+0000003290+Z
490566001490566133-000012     490566006001023561084CLEANING-CLOTH GREEN   0000001000+00001753+00000+0001T   00001753+0000001251          1400 CP5212               2AZ
490566002490566903-000699     490566006002099007018SWT CANDY FRUIT CHEWS  0000001000+00001139+00000+0001T   00001139+0000001251          1400 CP5150               2AZ
490567000490567               490567               170213EU     1400+00000+EU0000008850+0000008850+000000000+000001242+0000010090+0000000002+I20000000000+0000010090+Z
490567001490567903-000503     490567006001704006118SWT VAMPIRE FANGS 60G  0000001000+00000876+00000+0001T   00000876+0000001300          1400 CP5150               2AZ
490567002490567903-000849     490567008692806080083SWT SNACK BISCUIT 70g  0000001000+00000613+00000+0001T   00000613+0000001300          1400 CP5150               2AZ
490567003490567903-000670     490567006009803358008SWT SHERBET RED LIPS   0000001000+00000218+00000+0001T   00000218+0000001300          1400 CP5150               2AZ
490567004490567903-000183     490567006003000451043SWT LB HEART LOLLY     0000001000+00000393+00000+0001T   00000393+0000001300          1400 CP5150               2AZ
490567005490567903-002891     490567008935001721376MENTOS GUM WINTERGREEN 0000001000+00001051+00000+0001T   00001051+0000001300          1400 CP5150               2AZ
490567006490567903-000194     490567006009826020616SWT CHOC RP LOLLY 25G  0000001000+00001314+00000+0001T   00001314+0000001300          1400 CP5150               2AZ
490567007490567082-000100     490567006003000360246READING GLS STRENGHT:1 0000001000+00004385+00000+0001T   00004385+0000001300          1400 CP5160               2AZ
490568000490568               490568               170213EU     1400+00000+EU0000005875+0000005875+000000000+000000823+0000006698+0000000000+I40000006698+0000000000+Z
490568001490568018-030000     490568006003000421060MUG OCCASIONS LOVE 2PCE0000001000+00004385+00000+0001T   00004385+0000001307          1400 CP5515               2AZ
490568002490568077-000299     490568006003000395576G/BAG 32x25cm LRG LOVE 0000001000+00001490+00000+0001T   00001490+0000001307          1400 CP5112               2AZ
490569000490569               490569               170213EU     1400+00000+EU0000000035+0000000035+000000000+000000005+0000000040+0000000000+I20000000000+0000000040+Z
490569001490569112-116038     490569006003000534906TCS CARRIER BAG MIDI   0000001000+00000035+00000+0001T   00000035+0000001404          1400 CP5090               2AZ
490570000490570               490570               170213EU     1400+00000+EU0000003682+0000003682+000000000+000000516+0000004190+0000000008+I20000000000+0000004190+Z
490570001490570077-000299     490570006003000395576G/BAG 32x25cm LRG LOVE 0000001000+00001490+00000+0001T   00001490+0000001405          1400 CP5112               2AZ
490570002490570080-000127     490570006003000424351VALENTINES DAY 36x24CM 0000001000+00002192+00000+0001T   00002192+0000001405          1400 CP5112               2AZ
490571000490571               490571               170213EU     1400+00000+EU0000003507+0000003507+000000000+000000491+0000003990+0000000008+I20000000000+0000003990+Z
490571001490571105-001246     490571006003000621194CONTAINER RECTANGULAR  0000001000+00003507+00000+0001T   00003507+0000001434          1400 CP5210               2AZ
490572000490572               490572               170213EU     1400+00000+EU0000015306+0000015306+000000000+000002145+0000017450+0000000001+I20000000000+0000017450+Z
490572001490572903-000519     490572006001704012805SWT MS LIQ-O-GHETTI    0000001000+00001227+00000+0001T   00001227+0000001437          1400 CP5150               2AZ
490572002490572077-000309     490572006001023608604GIFT-BAG 25X32CM GLOSS 0000002000+00001753+00000+0001T   00001753+0000001437          1400 CP5112               2AZ
490572003490572368-000005     490572006003000616862PLUSH MONSTER 24cm     0000001000+00010525+00000+0001T   00010525+0000001437          1400 CP5745               2AZ
490572004490572112-116069     490572006009681820277TCS CARRIER BAG JUMBO  0000001000+00000048+00000+0001T   00000048+0000001437          1400 CP5090               2AZ
490573000490573               490573               170213EU     1400+00000+EU0000003678+0000003678+000000000+000000516+0000004190+0000000004+I20000000000+0000004190+Z
490573001490573006-001000     490573006003000093779HELIUM BALLOON FILL    0000006000+00000613+00000+0001T   00000613+0000001439          1400 CP5131               2AZ
490574000490574               490574               170213EU     1400+00000+EU0000003507+0000003507+000000000+000000491+0000003990+0000000008+I20000000000+0000003990+Z
490574001490574031-000873-B   490574006003000673391P/FRAME WDN WHITE 13X180000001000+00003507+00000+0001T   00003507+0000001444          1400 CP5510               2AZ
490575000490575               490575               170213EU     1400+00000+EU0000006433+0000006433+000000000+000000901+0000007330+0000000004+I20000000000+0000007330+Z
490575001490575018-000127     490575006001023380289MUG OCC STRAIGHT LOVE  0000001000+00001578+00000+0001T   00001753+0006471446          1400 CP5515               2AZ
490575002490575903-000194     490575006009826020616SWT CHOC RP LOLLY 25G  0000002000+00001314+00000+0001T   00001314+0000001446          1400 CP5150               2AZ
490575003490575566-000068     490575006003000418046POP UP LOVE 2 ASSTD    0000001000+00002192+00000+0001T   00002192+0000001446          1400 CP5130               2AZ
490575004490575112-116038     490575006009681820246TCS CARRIER BAG MIDI   0000001000+00000035+00000+0001T   00000035+0000001446          1400 CP5090               2AZ
490576000490576               490576               170213EU     1400+00000+EU0000002192+0000002192+000000000+000000307+0000002490+0000000009+I20000000000+0000002490+Z
490576001490576089-000501     490576006003000622900KEY CHAIN LIGHT LASER  0000001000+00002192+00000+0001T   00002192+0000001447          1400 CP5205               2AZ
490577000490577               490577               170213EU     1400+00000+EU0000006138+0000006138+000000000+000000860+0000006998+0000000000+I40000006998+0000000000+Z
490577001490577368-000171     490577006003000233250PLUSH BEAR 14cm        0000001000+00005262+00000+0001T   00005262+0000001450          1400 CP5745               2AZ
490577002490577077-000314     490577006003000181148GIFT-BAG 11X14CM MATT  0000001000+00000876+00000+0001T   00000876+0000001450          1400 CP5112               2AZ
490578000490578               490578               170213EU     1400+00000+EU0000002104+0000002104+000000000+000000295+0000002390+0000000009+I20000000000+0000002390+Z
490578001490578903-000057     490578006005929000173SWT GS NOVELTY GIANT AL0000001000+00002104+00000+0001T   00002104+0000001451          1400 CP5150               2AZ
490579000490579               490579               170213EU     1400+00000+EU0000004997+0000004997+000000000+000000700+0000005697+0000000000+I40000005697+0000000000+Z
490579001490579077-000452     490579006003000284986G/BAG METALLIC MED EMB 0000001000+00001490+00000+0001T   00001490+0000001453          1400 CP5112               2AZ
490579002490579031-005853     490579006003000442416P/FRAME WDN TWIN HEARTS0000001000+00003507+00000+0001T   00003507+0000001453          1400 CP5510               2AZ
490580000490580               490580               170213EU     1400+00000+EU0000008767+0000008767+000000000+000001229+0000009996+0000000000+I40000009996+0000000000+Z
490580001490580105-007014     490580006003000593606CONTAINER CLEAR 1L     0000002000+00002630+00000+0001T   00003507+0008171456          1400 CP5210               2AZ
490580002490580016-009750     490580006001023888341CONDIMENTS OIL BOTTLES 0000001000+00003507+00000+0001T   00003507+0000001456          1400 CP5300               2AZ
490581000490581               490581               170213EU     1400+00000+EU0000002104+0000002104+000000000+000000295+0000002390+0000000009+I20000000000+0000002390+Z
490581001490581903-000057     490581006005929000173SWT GS NOVELTY GIANT AL0000001000+00002104+00000+0001T   00002104+0000001457          1400 CP5150               2AZ
490582000490582               490582               170213EU     1400+00000+EU0000006139+0000006139+000000000+000000860+0000006990+0000000009+I20000000000+0000006990+Z
490582001490582018-050000     490582006003000412679MUG OCC LOVE TWIN BEAR 0000001000+00006139+00000+0001T   00006139+0000001457          1400 CP5515               2AZ
490583000490583               490583               170213EU     1400+00000+EU0000002630+0000002630+000000000+000000369+0000002990+0000000009+I20000000000+0000002990+Z
490583001490583050-000364-Z   490583006001023777133PADLOCK IRON 38mm CARD 0000001000+00002630+00000+0001T   00002630+0000001458          1400 CP5855               2AZ
490584000490584               490584               170213EU     1400+00000+EU0000018410+0000018410+000000000+000002579+0000020980+0000000009+I20000000000+0000020980+Z
490584001490584077-000314     490584006003000181148GIFT-BAG 11X14CM MATT  0000001000+00000876+00000+0001T   00000876+0000001500          1400 CP5112               2AZ
490584002490584368-000049     490584006003000536955PLUSH BEAR 15cm LOVE   0000001000+00004385+00000+0001T   00004385+0000001500          1400 CP5745               2AZ
490584003490584903-000194     490584006009826020616SWT CHOC RP LOLLY 25G  0000001000+00001314+00000+0001T   00001314+0000001500          1400 CP5150               2AZ
490584004490584368-000049     490584006003000536955PLUSH BEAR 15cm LOVE   0000001000+00004385+00000+0001T   00004385+0000001500          1400 CP5745               2AZ
490584005490584077-000314     490584006003000181148GIFT-BAG 11X14CM MATT  0000001000+00000876+00000+0001T   00000876+0000001500          1400 CP5112               2AZ
490584006490584077-000301     490584008010410010188BAG LRG 25X32CM B/DAY  0000001000+00001753+00000+0001T   00001753+0000001500          1400 CP5112               2AZ
490584007490584006-000113     490584006003000671816BALLOONS WATER FILLER  0000001000+00003507+00000+0001T   00003507+0000001500          1400 CP5131               2AZ
490584008490584903-000194     490584006009826020616SWT CHOC RP LOLLY 25G  0000001000+00001314+00000+0001T   00001314+0000001500          1400 CP5150               2AZ
490585000490585               490585               170213EU     1400+00000+EU0000006139+0000006139+000000000+000000860+0000006990+0000000009+I20000000000+0000006990+Z
490585001490585018-050000     490585006003000412679MUG OCC LOVE TWIN BEAR 0000001000+00006139+00000+0001T   00006139+0000001507          1400 CP5515               2AZ
490586000490586               490586               170213EU     1400+00000+EU0000016534+0000016534+000000000+000002316+0000018850+0000000000+I40000018850+0000000000+Z
490586001490586018-000136     490586006001023659026MUG OCC LOVE W/PLUSH   0000001000+00003507+00000+0001T   00003507+0000001527          1400 CP5515               2AZ
490586002490586077-000299-A   490586006003000670888GIFT-BAG PAPER JMB LOVE0000001000+00001753+00000+0001T   00001753+0000001527          1400 CP5112               2AZ
490586003490586030-004015     490586006003000467624PLAQUE WDN SIGN 30X20CM0000001000+00009648+00000+0001T   00009648+0000001527          1400 CP5505               2AZ
490586004490586112-116069     490586006009681820277TCS CARRIER BAG JUMBO  0000001000+00000048+00000+0001T   00000048+0000001527          1400 CP5090               2AZ
490586005490586080-000124     490586006003000297733CARD & ENV VALENTINES  0000001000+00001578+00000+0001T   00001578+0000001527          1400 CP5112               2AZ
490587000490587               490587               170213EU     1400+00000+EU0000003630+0000003630+000000000+000000509+0000004130+0000000009+I20000000000+0000004130+Z
490587001490587079-009700-D   490587006003000545711PAPER SIRIO A4 RED COL.0000005000+00000306+00000+0001T   00000306+0000001528          1400 CP5130               2AZ
490587002490587566-000016     490587006001023889003STICKERS H/MADE-SHAKE  0000003000+00000700+00000+0001T   00000876+0008151528          1400 CP5130               2AZ
490588000490588               490588               170213EU     1400+00000+EU0000007016+0000007016+000000000+000000983+0000007990+0000000009+I20000000000+0000007990+Z
490588001490588301-007005     490588006001023848505ORN ANIMAL W/LIFE 20CM 0000001000+00007016+00000+0001T   00008771+0008121528          1400 CP5505               2AZ
490589000490589               490589               170213EU     1400+00000+EU0000001490+0000001490+000000000+000000209+0000001690+0000000009+I20000000000+0000001690+Z
490589001490589077-000299     490589006003000395576G/BAG 32x25cm LRG LOVE 0000001000+00001490+00000+0001T   00001490+0000001529          1400 CP5112               2AZ
490590000490590               490590               170213EU     1400+00000+EU0000002628+0000002628+000000000+000000368+0000002990+0000000006+I20000000000+0000002990+Z
490590001490590903-000194     490590006009826020616SWT CHOC RP LOLLY 25G  0000002000+00001314+00000+0001T   00001314+0000001529          1400 CP5150               2AZ
490591000490591               490591               170213EU     1400+00000+EU0000004763+0000004763+000000000+000000667+0000005430+0000000000+I40000005430+0000000000+Z
490591001490591903-000194     490591006009826020616SWT CHOC RP LOLLY 25G  0000002000+00001314+00000+0001T   00001314+0000001532          1400 CP5150               2AZ
490591002490591018-000177     490591006001023797513MUG MINI LOVE ASSTD    0000001000+00000700+00000+0001T   00000700+0000001532          1400 CP5515               2AZ
490591003490591903-000121     490591006002099001689SWT GS ZILLIONS SOURS  0000002000+00000700+00000+0001T   00000700+0000001532          1400 CP5150               2AZ
490591004490591112-116038     490591006009681820246TCS CARRIER BAG MIDI   0000001000+00000035+00000+0001T   00000035+0000001532          1400 CP5090               2AZ
490592000490592               490592               170213EU     1400+00000+EU0000001314+0000001314+000000000+000000184+0000001490+0000000008+I20000000000+0000001490+Z
490592001490592077-000470     490592006003000330171G-BAG DESGN SML 11X14CM0000001000+00001314+00000+0001T   00001314+0000001533          1400 CP5112               2AZ
490593000490593               490593               170213EU     1400+00000+EU0000001314+0000001314+000000000+000000184+0000001490+0000000008+I20000000000+0000001490+Z
490593001490593077-000385     490593006003000275366G/BAG GLITTER 18x23CM  0000001000+00001314+00000+0001T   00001314+0000001542          1400 CP5112               2AZ
490594000490594               490594               170213EU     1400+00000+EU0000003066+0000003066+000000000+000000430+0000003490+0000000006+I20000000000+0000003490+Z
490594001490594077-000150-D   490594006003000054343GIFT-WRAP CELLPHANE CLR0000002000+00000876+00000+0001T   00000876+0000001554          1400 CP5112               2AZ
490594002490594903-000194     490594006009826020616SWT CHOC RP LOLLY 25G  0000001000+00001314+00000+0001T   00001314+0000001554          1400 CP5150               2AZ
490595000490595               490595               170213EU     1400+00000+EU0000003507+0000003507+000000000+000000491+0000003998+0000000000+I40000003998+0000000000+Z
490595001490595301-085004     490595006003000420469ORN LOVE PLAQUE 21X10CM0000001000+00003507+00000+0001T   00003946+0006471558          1400 CP5505               2AZ
490596000490596               490596               170213EU     1400+00000+EU0000007892+0000007892+000000000+000001106+0000008998+0000000000+I40000008998+0000000000+Z
490596001490596018-050000     490596006003000412679MUG OCC LOVE TWIN BEAR 0000001000+00006139+00000+0001T   00006139+0000001559          1400 CP5515               2AZ
490596002490596089-000033     490596006003000621217KEY CHAIN MOM POLY ASST0000001000+00001753+00000+0001T   00002630+0008121559          1400 CP5205               2AZ
490597000490597               490597               170213EU     1400+00000+EU0000001402+0000001402+000000000+000000197+0000001590+0000000009+I20000000000+0000001590+Z
490597001490597105-001005     490597006001023858214CONTAINERS MINI 6PCE   0000001000+00001402+00000+0001T   00001402+0000001559          1400 CP5210               2AZ
490598000490598               490598               170213EU     1400+00000+EU0000001664+0000001664+000000000+000000233+0000001890+0000000007+I20000000000+0000001890+Z
490598001490598039-000336     490598006001023169129B'DAY-CANDLES MAGIC 10P0000001000+00000964+00000+0001T   00000964+0000001602          1400 CP5510               2AZ
490598002490598564-000012     490598006001023130075BUBBLE BOTTLE MAGIC    0000001000+00000700+00000+0001T   00000700+0000001602          1400 CP5131               2AZ
490599000490599               490599               170213EU     1400+00000+EU0000001753+0000001753+000000000+000000246+0000001990+0000000009+I20000000000+0000001990+Z
490599002490599080-000112     490599006003000252749CARD&ENVLP BDAY-MUSICAL0000001000+00001753+00000+0001T   00001753+0000001603          1400 CP5112               2AZ
490600000490600               490600               170213EU     1400+00000+EU0000013155+0000013155+000000000+000001843+0000014990+0000000008+I20000000000+0000014990+Z
490600001490600368-000637     490600006001023874092PLUSH BEAR SLEEPING LOV0000001000+00011402+00000+0001T   00012279+0006471604          1400 CP5745               2AZ
490600002490600077-000299-A   490600006003000670888GIFT-BAG PAPER JMB LOVE0000001000+00001753+00000+0001T   00001753+0000001604          1400 CP5112               2AZ
490601000490601               490601               170213EU     1400+00000+EU0000001490+0000001490+000000000+000000209+0000001699+0000000000+I40000001699+0000000000+Z
490601001490601077-000299     490601006003000395576G/BAG 32x25cm LRG LOVE 0000001000+00001490+00000+0001T   00001490+0000001608          1400 CP5112               2AZ
490602000490602               490602               170213EU     1400+00000+EU0000027886+0000027886+000000000+000003911+0000031797+0000000000+I40000031797+0000000000+Z
490602001490602301-085001     490602006003000297610ORN WATERBALL LOVE ASST0000001000+00004823+00000+0001T   00004823+0000001618          1400 CP5505               2AZ
490602002490602368-000111     490602006001023780812PLUSH BEAR/DOG 29CM    0000001000+00012279+00000+0001T   00012279+0000001618          1400 CP5745               2AZ
490602003490602001-091415     490602006003000329113W/GLS OCC. LOVE 2PC 2800000001000+00008771+00000+0001T   00009648+0006471618          1400 CP5515               2AZ
490602004490602112-116069     490602006009681820277TCS CARRIER BAG JUMBO  0000001000+00000048+00000+0001T   00000048+0000001618          1400 CP5090               2AZ
490602005490602903-000183     490602006003000451043SWT LB HEART LOLLY     0000005000+00000393+00000+0001T   00000393+0000001618          1400 CP5150               2AZ
490603000490603               490603               170213EU     1400+00000+EU0000002630+0000002630+000000000+000000369+0000002990+0000000009+I20000000000+0000002990+Z
490603001490603560-000202     490603006003000322008SNAKE PVC ASSTD        0000001000+00002630+00000+0001T   00002630+0000001619          1400 CP5745               2AZ
490604000490604               490604               170213EU     1400+00000+EU0000002227+0000002227+000000000+000000312+0000002530+0000000009+I20000000000+0000002530+Z
490604001490604031-000868-A   490604006001023798534P/FRAME PL BLCK 10X15CM0000001000+00002192+00000+0001T   00002192+0000001621          1400 CP5510               2AZ
490604002490604112-116038     490604006009681820246TCS CARRIER BAG MIDI   0000001000+00000035+00000+0001T   00000035+0000001621          1400 CP5090               2AZ
490605000490605               490605               170213EU     1400+00000+EU0000007892+0000007892+000000000+000001105+0000008997+0000000000+I40000008997+0000000000+Z
490605001490605050-000263-Z   490605006001023777041PADLOCK BRS 32mm CARDED0000001000+00003507+00000+0001T   00003507+0000001624          1400 CP5855               2AZ
490605002490605050-000887-Z   490605006001023821966PADLOCK COMB 10-DIGIT  0000001000+00004385+00000+0001T   00004385+0000001624          1400 CP5855               2AZ
490606000490606               490606               170213EU     1400+00000+EU0000001578+0000001578+000000000+000000221+0000001790+0000000009+I20000000000+0000001790+Z
490606001490606080-000124     490606006003000297733CARD & ENV VALENTINES  0000001000+00001578+00000+0001T   00001578+0000001625          1400 CP5112               2AZ
490607000490607               490607               170213EU     1400+00000+EU0000004997+0000004997+000000000+000000700+0000005690+0000000007+I20000000000+0000005690+Z
490607001490607079-006494     490607006003000159864GLITTER GLUE 5PCE 11cm 0000001000+00001490+00000+0001T   00001490+0000001626          1400 CP5130               2AZ
490607002490607039-080942     490607006001023669872C/PILLAR RND WHT 10X7CM0000001000+00003507+00000+0001T   00003507+0000001626          1400 CP5510               2AZ
490608000490608               490608               170213EU     1400+00000+EU0000005262+0000005262+000000000+000000737+0000005999+0000000000+I40000005999+0000000000+Z
490608001490608041-000300     490608006003000421862EVERYDAY BATH SET 3pc  0000001000+00005262+00000+0001T   00005262+0000001627          1400 CP5200               2AZ
490609000490609               490609               170213EU     1400+00000+EU0000003189+0000003189+000000000+000000452+0000003641+0000000000+I40000003641+0000000000+Z
490609001490609079-009700-L   490609006003000546350PAPER SIRIO A4 YELLOW  0000002000+00000306+00000+0001T   00000306+0000001632          1400 CP5130               2AZ
490609002490609079-009700-D   490609006003000545711PAPER SIRIO A4 RED COL.0000002000+00000306+00000+0001T   00000306+0000001632          1400 CP5130               2AZ
490609003490609903-000183     490609006003000451043SWT LB HEART LOLLY     0000005000+00000393+00000+0001T   00000393+0000001632          1400 CP5150               2AZ
490610000490610               490610               170213EU     1400+00000+EU0000001839+0000001839+000000000+000000258+0000002090+0000000007+I20000000000+0000002090+Z
490610001490610077-000311     490610006001023608666GIFT-BAG 11X14CM GLOSS 0000003000+00000613+00000+0001T   00000613+0000001632          1400 CP5112               2AZ
490611000490611               490611               170213EU     1400+00000+EU0000006139+0000006139+000000000+000000860+0000006990+0000000009+I20000000000+0000006990+Z
490611001490611039-000798     490611006001023617774CANDLES TEALITE BOX-50 0000001000+00006139+00000+0001T   00006139+0000001638          1400 CP5510               2AZ
490612000490612               490612               170213EU     1400+00000+EU0000001752+0000001752+000000000+000000246+0000001990+0000000008+I20000000000+0000001990+Z
490612001490612077-000314     490612006003000181148GIFT-BAG 11X14CM MATT  0000001000+00000876+00000+0001T   00000876+0000001649          1400 CP5112               2AZ
490612002490612903-000295     490612006001704002899SWT MS FRUITY RASCALS  0000001000+00000876+00000+0001T   00000876+0000001649          1400 CP5150               2AZ
490613000490613               490613               170213EU     1400+00000+EU0000005120+0000005120+000000000+000000717+0000005830+0000000007+I20000000000+0000005830+Z
490613001490613077-000303     490613006001023593757GIFT-BAG PAPER MED     0000001000+00001578+00000+0001T   00001578+0000001650          1400 CP5112               2AZ
490613002490613018-000136     490613006001023659026MUG OCC LOVE W/PLUSH   0000001000+00003507+00000+0001T   00003507+0000001650          1400 CP5515               2AZ
490613003490613112-116038     490613006009681820246TCS CARRIER BAG MIDI   0000001000+00000035+00000+0001T   00000035+0000001650          1400 CP5090               2AZ
490614000490614               490614               170213EU     1400+00000+EU0000014556+0000014556+000000000+000002039+0000016595+0000000000+I40000016595+0000000000+Z
490614001490614001-000430     490614006003000662128BEER-TUMBLER GLASS     0000001000+00010525+00000+0001T   00010525+0000001653          1400 CP5515               2AZ
490614002490614564-000012     490614006001023130075BUBBLE BOTTLE MAGIC    0000001000+00000700+00000+0001T   00000700+0000001653          1400 CP5131               2AZ
490614003490614077-000303     490614006001023593757GIFT-BAG PAPER MED     0000001000+00001578+00000+0001T   00001578+0000001653          1400 CP5112               2AZ
490614004490614077-000301     490614008010410010188BAG LRG 25X32CM B/DAY  0000001000+00001753+00000+0001T   00001753+0000001653          1400 CP5112               2AZ
490615000490615               490615               170213EU     1400+00000+EU0000002366+0000002366+000000000+000000332+0000002690+0000000008+I20000000000+0000002690+Z
490615001490615200-000065     490615006001023323675DRINKING-STRAWS 38PCE  0000001000+00000613+00000+0001T   00000613+0000001654          1400 CP5214               2AZ
490615002490615078-000030     490615006003000151141YAMAYO SUPERGLUE 8g    0000001000+00001753+00000+0001T   00001753+0000001654          1400 CP5810               2AZ
490616000490616               490616               170213EU     1400+00000+EU0000003993+0000003993+000000000+000000560+0000004550+0000000003+I20000000000+0000004550+Z
490616001490616077-000299-A   490616006003000670888GIFT-BAG PAPER JMB LOVE0000001000+00001753+00000+0001T   00001753+0000001657          1400 IG7112               2AZ
490616002490616080-000127     490616006003000424351VALENTINES DAY 36x24CM 0000001000+00002192+00000+0001T   00002192+0000001657          1400 IG7112               2AZ
490616003490616112-116069     490616006009681820277TCS CARRIER BAG JUMBO  0000001000+00000048+00000+0001T   00000048+0000001657          1400 IG7090               2AZ
490617000490617               490617               170213EU     1400+00000+EU0000005609+0000005609+000000000+000000787+0000006390+0000000006+I20000000000+0000006390+Z
490617001490617103-000030     490617006003000510085BASKET WOVE ROUND 17X170000001000+00001753+00000+0001T   00002192+0008161706          1400 CP5300               2AZ
490617002490617903-000095     490617006001704011495SWT SPECKLED-EGGS 100G 0000001000+00002104+00000+0001T   00002104+0000001706          1400 CP5150               2AZ
490617003490617903-000521     490617006001704009652SWT GUMMY SOFT GUMS    0000001000+00000876+00000+0001T   00000876+0000001706          1400 CP5150               2AZ
490617004490617077-000151     490617006008766114676GIFT-WRAP C/PHANE ASSTD0000001000+00000876+00000+0001T   00000876+0000001706          1400 CP5112               2AZ
490618000490618               490618               170213EU     1400+00000+EU0000009027+0000009027+000000000+000001267+0000010290+0000000004+I20000000000+0000010290+Z
490618001490618077-000304     490618006001023483232GIFT-BAG 25X32CM E/DAY 0000001000+00001490+00000+0001T   00001490+0000001708          1400 CP5112               2AZ
490618002490618565-004101     490618006003000548033BALL BOUNCING EGG      0000001000+00001490+00000+0001T   00001490+0000001708          1400 CP5745               2AZ
490618003490618206-000245     490618006003000680818BOTTLE CLEANER PLASTIC 0000001000+00002192+00000+0001T   00002192+0000001708          1400 CP5321               2AZ
490618004490618051-002406     490618006003000139415SPRAY PL TRIGGER 700ml 0000001000+00001753+00000+0001T   00001753+0000001708          1400 CP5820               2AZ
490618005490618903-002850     490618000000087108262MENTOS ROLL FRUIT      0000002000+00001051+00000+0001T   00001051+0000001708          1400 CP5150               2AZ
490619000490619               490619               170213EU     1400+00000+EU0000040171+0000040171+000000000+000005625+0000045796+0000000000+I40000045796+0000000000+Z
490619001490619018-000127     490619006001023380289MUG OCC STRAIGHT LOVE  0000001000+00001578+00000+0001T   00001753+0006471717          1400 CP5515               2AZ
490619002490619030-004015     490619006003000467624PLAQUE WDN SIGN 30X20CM0000002000+00009648+00000+0001T   00009648+0000001717          1400 CP5505               2AZ
490619003490619072-020243     490619006003000519583PET MAT QUILTED 80x58cm0000001000+00019297+00000+0001T   00019297+0000001717          1400 CP5870               2AZ
490620000490620               490620               170213EU     1400+00000+EU0000000350+0000000350+000000000+000000049+0000000390+0000000009+I20000000000+0000000390+Z
490620001490620002-000879     490620006001023770004STRAINER TEA 7cm H/H   0000001000+00000350+00000+0001T   00000350+0000001721          1400 CP5300               2AZ
490621000490621               490621               170213EU     1400+00000+EU0000001753+0000001753+000000000+000000246+0000001990+0000000009+I20000000000+0000001990+Z
490621001490621080-000109     490621006003000237203CARD&ENVLPE BDAY-BRIGHT0000001000+00001753+00000+0001T   00001753+0000001724          1400 CP5112               2AZ
490622000490622               490622               170213EU     1400+00000+EU0000002192+0000002192+000000000+000000307+0000002490+0000000009+I20000000000+0000002490+Z
490622001490622047-005127     490622006003000093861CABLETIES 100/150/200mm0000001000+00002192+00000+0001T   00002192+0000001728          1400 LR7880               2AZ
490623000490623               490623               170213EU     1400+00000+EU0000002192+0000002192+000000000+000000307+0000002490+0000000009+I20000000000+0000002490+Z
490623001490623077-000926     490623006003000414178G/WRAP 700mmx2m LOVE   0000001000+00002192+00000+0001T   00002192+0000001728          1400 LR7112               2AZ
490624000490624               490624               170213EU     1400+00000+EU0000004385+0000004385+000000000+000000614+0000004990+0000000009+I20000000000+0000004990+Z
490624001490624082-000105     490624006003000360369READING GLS STRNGHT:1.50000001000+00004385+00000+0001T   00004385+0000001729          1400 LR7160               2AZ
490625000490625               490625               170213EU     1400+00000+EU0000004385+0000004385+000000000+000000614+0000004990+0000000009+I20000000000+0000004990+Z
490625001490625018-030000     490625006003000421060MUG OCCASIONS LOVE 2PCE0000001000+00004385+00000+0001T   00004385+0000001730          1400 LR7515               2AZ
490626000490626               490626               170213EU     1400+00000+EU0000001490+0000001490+000000000+000000209+0000001690+0000000009+I20000000000+0000001690+Z
490626001490626077-000305     490626006003000395422GIFT-BAG WINE 10X35CM  0000001000+00001490+00000+0001T   00001490+0000001731          1400 LR7112               2AZ
490627000490627               490627               170213EU     1400+00000+EU0000004207+0000004207+000000000+000000589+0000004790+0000000006+I20000000000+0000004790+Z
490627001490627018-000136     490627006001023659026MUG OCC LOVE W/PLUSH   0000001000+00003507+00000+0001T   00003507+0000001734          1400 LR7515               2AZ
490627002490627018-000177     490627006001023797513MUG MINI LOVE ASSTD    0000001000+00000700+00000+0001T   00000700+0000001734          1400 LR7515               2AZ
490628000490628               490628               170213EU     1400+00000+EU0000006434+0000006434+000000000+000000901+0000007335+0000000000+I40000007335+0000000000+Z
490628001490628018-000136     490628006001023659026MUG OCC LOVE W/PLUSH   0000001000+00003507+00000+0001T   00003507+0000001736          1400 LR7515               2AZ
490628002490628077-000303     490628006001023593757GIFT-BAG PAPER MED     0000001000+00001578+00000+0001T   00001578+0000001736          1400 LR7112               2AZ
490628003490628077-000470     490628006003000330171G-BAG DESGN SML 11X14CM0000001000+00001314+00000+0001T   00001314+0000001736          1400 LR7112               2AZ
490628004490628112-116038     490628006009681820246TCS CARRIER BAG MIDI   0000001000+00000035+00000+0001T   00000035+0000001736          1400 LR7090               2AZ
A17021300                                          17251228EUSLAVE 2                       CP52IC
C49059900                                          170213EU080-000106     16033979SLAVE 2     CP52IC0000000000+0000000000+0010000001000+
C49062100                                          170213EU004-071214     17225260SLAVE 2     CP52IC0000000000+0000000000+0010000001000+
M17021391                              CASH        EUSLAVE 2                       Z-REPORT No.   632TOTAL (Sales - Refunds)           5871.80       CASH TO BE BANKED                 3056.30       DEBIT CARDS                          0.00       CREDIT CARDS                      2668.30       Z-READING                         5724.60       AIRTIME DEBIT CARD SALES             0.00       AIRTIME CARD SALES                   0.00       OVERS/UNDERS                         0.00       AIRTIME CASH SALES                   0.00       GIFT CARDS                           0.00       GIFT CARD CASH SALES                 0.00       CASUAL WAGES                       147.20       T O T A L  CASH PAYOUTS            147.20                                                                                                                                                                                                                                                                                                      Z
M17021392                              CASH        EUABSENT                                                                                                                                                                                          ANNUAL LEAVE                                                                                                                                                                                    DAY OFF                                                                                                                                                                                         COMMENTS                                                                                                                                                                                                                                                                                                                                                                                       Z
Y17021300                                          EU00000000552307+000100
ZEU17021319353 SLAVE 2      SALES DATA                     NEXT INVOICE NO.  490629 0632
X EU Slave 2 First invoice 490527 170213 Last invoice 490628 170213 Next invoice 490629 Total number of records 000000332 clbackup completed 19:35:31
