507532000507532               507532               170213EU     1400+00000+EU0000136384+0000136384+000000000+000019139+0000155523+           I90000000000+0000000000+Z
507532001507532903-005001     507532006002580020014SWT CT MALLOW MICE 120g0000008000+00001314+00000+0001T072609430000                    1400 1IC1501ICV             Z
507532002507532903-005002     507532006002580020021SWT MALLOW SNAKE 120g  0000016000+00001314+00000+0001T072609430000                    1400 1IC1501ICV             Z
507532003507532903-005001     507532006002580020014SWT CT MALLOW MICE 120g0000001000+00001314+00000+0001T072609430000                    1400 1IC1501ICV             Z
507532004507532903-000123     507532006925925909280SWEET GS MINI MALLOWS  0000019000+00000876+00000+0001T072609430000                    1400 1IC1501ICV             Z
507532005507532903-004951     507532006002580020328SWT MALLOW MINI M/SHAKE0000004000+00001227+00000+0001T072609430000                    1400 1IC1501ICV             Z
507532006507532006-000851     507532006007151000273PARTY LUCKY-PACKET BOY 0000002000+00003946+00000+0001T072609430000                    1400 1IC1311ICV             Z
507532007507532903-000710     507532006002099007056SWT REFRESHERS MINT    0000004000+00001139+00000+0001T072609430000                    1400 1IC1501ICV             Z
507532008507532903-000504     507532006001704012416SWT CHOC JELLY BEANS   0000008000+00001227+00000+0001T072609430000                    1400 1IC1501ICV             Z
507532009507532903-000499     507532006001704012492SWT CHOC MALLOWS 50g   0000007000+00001227+00000+0001T072609430000                    1400 1IC1501ICV             Z
507532010507532903-000498     507532006001704013048SWT CHOC MIGHTY MALTS  0000003000+00001227+00000+0001T072609430000                    1400 1IC1501ICV             Z
507532011507532903-000483     507532006001704001410SWT LIQUOR SML SORT 60G0000020000+00000876+00000+0001T072609430000                    1400 1IC1501ICV             Z
507532012507532903-000151     507532006009803374411SWT SML RND R/BOW LOLLY0000014000+00000525+00000+0001T072609430000                    1400 1IC1501ICV             Z
507532013507532903-000913     507532007501186882341SWT LOLLIPOP BARBIE    0000002000+00000876+00000+0001T072609430000                    1400 1IC1501ICV             Z
507532014507532903-005003     507532006002580020106SWT DINKY DUMMIES 5PK  0000001000+00001490+00000+0001T072609430000                    1400 1IC1501ICV             Z
507532015507532903-004952     507532006002580020052SWT FREAKY FACES 100G  0000001000+00001314+00000+0001T072609430000                    1400 1IC1501ICV             Z
507532016507532903-002505     507532006003000417254SWT SHORT SUGAR STICK  0000001000+00000174+00000+0001T072609430000                    1400 1IC1501ICV             Z
507532017507532903-000155     507532006009803374435SWT LOLLY I LUV U HEART0000001000+00000525+00000+0001T072609430000                    1400 1IC1501ICV             Z
507532018507532067-002201     507532006003000416073XMAS LOLLY RED/GRN CANE0000001000+00000525+00000+0001T072609430000                    1400 1IC1101ICV             Z
507532019507532903-000494     507532006001704009911SWT GUMMY TEENY TEDDIES0000004000+00000876+00000+0001T072609430000                    1400 1IC1501ICV             Z
507532020507532903-000159     507532006003000417629SWT LB SMALL DUMMIE    0000003000+00000350+00000+0001T072609430000                    1400 1IC1501ICV             Z
507532021507532903-000510     507532006001704012621SWEET MS ZBDZ S/BERRY  0000001000+00001227+00000+0001T072609430000                    1400 1IC1501ICV             Z
507532022507532903-000900     507532009338329012208SWT ANGRY FRUITY APPLE 0000001000+00000262+00000+0001T072609430000                    1400 1IC1501ICV             Z
507532023507532903-000674     507532006009803358220SWT SHERBET W/LOLLY 4PK0000001000+00001314+00000+0001T072609430000                    1400 1IC1501ICV             Z
507532024507532903-002852     507532000000087108040MENTOS ROLL SPEARMINT  0000003000+00001051+00000+0001T072609430000                    1400 1IC1501ICV             Z
507532025507532903-000216     507532006925925900966SWT MALLOW TWIST ERKO  0000024000+00000262+00000+0001T072609430000                    1400 1IC1501ICV             Z
507533000507533               507533               170213EU     1400+00000+EU0000295762+0000295762+000000000+000041432+0000337194+           I00000000000+0000000000+Z
507533001507533112-116038     507533006009681820246TCS CARRIER BAG MIDI   0000002000+00000035+00000+0001T                                1400 2IC0902ICD             Z
507533002507533112-116069     507533006009681820277TCS CARRIER BAG JUMBO  0000001000+00000048+00000+0001T                                1400 2IC0902ICD             Z
507533003507533112-116038     507533006009681820246TCS CARRIER BAG MIDI   0000007000+00000035+00000+0001T                                1400 2IC0902ICD             Z
507533004507533031-001000     507533006003000253210P/FRAME CERTIFICATE    0000001000+00014034+00000+0001T                                1400 2IC5102ICD             Z
507533005507533031-005924     507533006003000420889P/FRAME CERT PL ASTD A40000001000+00009648+00000+0001T                                1400 2IC5102ICD             Z
507533006507533486-001017     507533006003000384501C/WALL QTZ PL RND 31cm 0000001000+00010525+00000+0001T                                1400 2IC5102ICD             Z
507533007507533003-002360     507533006001023996008 ORN SOLAR LIGHT GNOME 0000001000+00005262+00000+0001T                                1400 2IC5052ICD             Z
507533008507533003-000016     507533006001023764805PLANT-STICK CER. ASSTD 0000001000+00001314+00000+0001T                                1400 2IC5052ICD             Z
507533009507533003-009208     507533006003000461615O/WALL PLAQUE 19X13.5cm0000001000+00007893+00000+0001T                                1400 2IC5052ICD             Z
507533010507533003-009200     507533006003000407675O/ANIMALS 3-ASS W/FLWER0000001000+00004385+00000+0001T                                1400 2IC5052ICD             Z
507533011507533301-000300     507533006003000456840ORN INSPIRATIONAL CROSS0000001000+00006139+00000+0001T                                1400 2IC5052ICD             Z
507533012507533039-000024     507533006003000286300C/TAPERED 25CM M/WHITE 0000001000+00001051+00000+0001T                                1400 2IC5102ICD             Z
507533013507533204-000009     507533006003000577200MEMO HOLDER CUPCAKE    0000001000+00000876+00000+0001T                                1400 2IC3002ICD             Z
507533014507533067-000461     507533006003000663316XMAS TREE DEC BALL 4PC 0000001000+00002630+00000+0001T                                1400 2IC1102ICD             Z
507533015507533018-000177     507533006001023797513MUG MINI LOVE ASSTD    0000002000+00000700+00000+0001T                                1400 2IC5152ICD             Z
507533016507533072-020278     507533006003000024100PET CAT LITTER PAN PL  0000002000+00003507+00000+0001T                                1400 2IC8702ICD             Z
507533017507533104-000205     507533006003000512645STORAGE TRAY 22x15x5cm 0000001000+00001314+00000+0001T                                1400 2IC2102ICD             Z
507533018507533261-003903     507533006001023827746GUN SET ARMY ASSTD     0000001000+00006139+00000+0001T                                1400 2IC7102ICD             Z
507533019507533105-001255     507533006003000573110CONTAINER FROSTED 1400m0000001000+00001753+00000+0001T                                1400 2IC2102ICD             Z
507533020507533051-600684     507533006003000267163BIRD FEEDER 15x17cm RND0000001000+00003069+00000+0001T                                1400 2IC8202ICD             Z
507533021507533019-000079     507533006001023775726VASE 30cm CRACK-DESIGN 0000001000+00012279+00000+0001T                                1400 2IC5102ICD             Z
507533022507533564-000301     507533006003000539376BUBBLE PLAY BOTTLE     0000001000+00001753+00000+0001T                                1400 2IC1312ICD             Z
507533023507533031-000860-C   507533006001023798237P/FRAME PL ANTIQUE-BLK 0000001000+00006139+00000+0001T                                1400 2IC5102ICD             Z
507533024507533105-006950     507533006003000638635CONTAINER 1.2L ASSORTED0000002000+00002630+00000+0001T                                1400 2IC2102ICD             Z
507533025507533003-009213     507533006003000483334O/INSECT STONE 22CM    0000001000+00011402+00000+0001T                                1400 2IC5052ICD             Z
507533026507533016-000826     507533006001023774675BOTTLE GLS W/LID ASSTD 0000002000+00003069+00000+0001T                                1400 2IC3002ICD             Z
507533027507533019-000079     507533006001023775726VASE 30cm CRACK-DESIGN 0000001000+00012279+00000+0001T                                1400 2IC5102ICD             Z
507533028507533003-008014     507533006003000378043ORN GNOME POLY 22-25CM 0000001000+00009648+00000+0001T                                1400 2IC5052ICD             Z
507533029507533031-000844     507533006001023851789P/FRAME WDN WORDS 2ASS 0000001000+00003507+00000+0001T                                1400 2IC5102ICD             Z
507533030507533467-000022     507533006001023787361BEACH WHEEL-BARROW+ACC 0000001000+00013157+00000+0001T                                1400 2IC7852ICD             Z
507533031507533006-000113     507533006003000671816BALLOONS WATER FILLER  0000001000+00003507+00000+0001T                                1400 2IC1312ICD             Z
507533032507533563-000318-J   507533006003000404728SERVIETTES 33cm YELLOW 0000001000+00002192+00000+0001T                                1400 2IC2142ICD             Z
507533033507533565-000071     507533006003000643387NOVELTY WIND UP CHATTER0000001000+00001139+00000+0001T                                1400 2IC7452ICD             Z
507533034507533018-000177     507533006001023797513MUG MINI LOVE ASSTD    0000001000+00000700+00000+0001T                                1400 2IC5152ICD             Z
507533035507533059-011605     507533006001023384072LANTERN 24cm ASSTD-CLRS0000001000+00003946+00000+0001T                                1400 2IC3052ICD             Z
507533036507533031-001004     507533006003000334643P/FRAME CERTIFICATE 4PC0000001000+00015788+00000+0001T                                1400 2IC5102ICD             Z
507533037507533019-000070     507533006003000297474VASE GLS CLEAR BOTTLE  0000001000+00004385+00000+0001T                                1400 2IC5102ICD             Z
507533038507533486-002308     507533006003000580262ROUND QUARTZ WALL CLOCK0000001000+00015788+00000+0001T                                1400 2IC5102ICD             Z
507533039507533301-000009     507533006001023781406ORN POLY MSG IN PVC BOX0000002000+00005262+00000+0001T                                1400 2IC5052ICD             Z
507533040507533031-005815     507533009320760100019P/FRAME-CLIP 10x15cm   0000001000+00001227+00000+0001T                                1400 2IC5102ICD             Z
507533041507533016-006545     507533006003000579877S/JAR GLS COUNTER 2SIDE0000001000+00008771+00000+0001T                                1400 2IC3002ICD             Z
507533042507533071-000012     507533006001177101006CHALK COLOUR 12PCE     0000001000+00000481+00000+0001T                                1400 2IC1302ICD             Z
507533043507533301-005010     507533006001023996046ORN ANIMAL DOG W/FUR   0000001000+00003946+00000+0001T                                1400 2IC5052ICD             Z
507533044507533051-600706     507533006003000604197S/GARDEN LIGHT 35cm PL 0000001000+00002367+00000+0001T                                1400 2IC8202ICD             Z
507533045507533301-005010     507533006001023996046ORN ANIMAL DOG W/FUR   0000001000+00003946+00000+0001T                                1400 2IC5052ICD             Z
507533046507533003-008010     507533006001023711373ORN FIG. FARMER ASST   0000001000+00005262+00000+0001T                                1400 2IC5052ICD             Z
507533047507533301-000009     507533006001023781406ORN POLY MSG IN PVC BOX0000001000+00005262+00000+0001T                                1400 2IC5052ICD             Z
507533048507533124-001300     507533006003000486861STORAGE TIN WASHING    0000001000+00006139+00000+0001T                                1400 2IC3002ICD             Z
507533049507533079-000623     507533006001023836274CHALK MARBLE 5PCE      0000002000+00001753+00000+0001T                                1400 2IC1302ICD             Z
507533050507533051-600712     507533006003000604555S/GARDEN LIGHT CRYSTAL 0000001000+00007893+00000+0001T                                1400 2IC8202ICD             Z
507533051507533903-000594     507533006003000564057SWT SWORD 18cm J/BEAN  0000001000+00002630+00000+0001T                                1400 2IC1502ICD             Z
507533053507533031-000868-C   507533006001023798596P/FRAME PL BLCK 20X25CM0000001000+00003507+00000+0001T                                1400 2IC5102ICD             Z
507533054507533031-005919     507533006003000580576P/FRAME PL PLAIN 13X18 0000001000+00002630+00000+0001T                                1400 2IC5102ICD             Z
507533055507533113-000160     507533006001023842213VACUUM-FLASK ,45L 2TONE0000001000+00009648+00000+0001T                                1400 2IC3052ICD             Z
507533056507533105-007050-B   507533006002580007411CEREAL-STORE 3L ASSTD  0000001000+00003507+00000+0001T                                1400 2IC2102ICD             Z
507533057507533018-000177     507533006001023797513MUG MINI LOVE ASSTD    0000001000+00000700+00000+0001T                                1400 2IC5152ICD             Z
507534000507534               507534               170213EU     1400+00000+EU0000247742+0000247742+000000000+000034696+0000282438+           I90000000000+0000000000+Z
507534001507534265-000216     507534006001023681423CAR B/O RACING-SET 36PC0000003000+00021051+00000+0001T032609440000                    1400 2IC7102ICV             Z
507534002507534159-000108     507534006003000484058SHOWER CURTAIN DELUX   0000001000+00013157+00000+0001T032609440000                    1400 2IC2002ICV             Z
507534003507534467-000016     507534006001023705334BEACH-SET 6PCE TRUCK   0000001000+00026314+00000+0001T032609440000                    1400 2IC7852ICV             Z
507534004507534261-003342     507534006001023484895GUN RIFLE ACTION-TEAM  0000001000+00004385+00000+0001T032609440000                    1400 2IC7102ICV             Z
507534005507534142-000810     507534006003000429844GLOVES LATEX PRNT CUFFS0000003000+00001753+00000+0001T032609440000                    1400 2IC8102ICV             Z
507534006507534466-000103     507534000681070950312BALL 20cm ASSTD        0000001000+00001753+00000+0001T032609440000                    1400 2IC7852ICV             Z
507534007507534028-085274     507534006001023641571BBQ LIGHTER         H&L0000001000+00002192+00000+0001T032609440000                    1400 2IC3052ICV             Z
507534008507534464-000254     507534006001023840943LUDO/SNAKES+LADDERS GNT0000001000+00003069+00000+0001T032609440000                    1400 2IC7852ICV             Z
507534009507534002-000115     507534006003000368587KITCHEN GADGET 60MIN   0000002000+00003069+00000+0001T032609440000                    1400 2IC3002ICV             Z
507534010507534463-000363     507534006001023400673SWIM-SET MASK+SNORKEL  0000001000+00006139+00000+0001T032609440000                    1400 2IC7852ICV             Z
507534011507534265-001659     507534006003000294527BOAT PL B/O            0000001000+00005262+00000+0001T032609440000                    1400 2IC7102ICV             Z
507534012507534051-600708     507534006003000604319S/GARDEN LIGHT 35cm S/S0000001000+00003507+00000+0001T032609440000                    1400 2IC8202ICV             Z
507534013507534565-000735     507534006003000615674NOVELTY PUTTY BOUNCING 0000009000+00000700+00000+0001T032609440000                    1400 2IC7452ICV             Z
507534014507534263-000518     507534006003000652501VEHICLE PLAYSET 63cm   0000001000+00017542+00000+0001T032609440000                    1400 2IC7102ICV             Z
507534015507534565-000044     507534006003000128280BARREL OF SLIME 100g   0000002000+00000613+00000+0001T032609440000                    1400 2IC7452ICV             Z
507534016507534263-000514     507534006003000391080TRUCK FRICTION 52CM    0000001000+00013157+00000+0001T032609440000                    1400 2IC7102ICV             Z
507534017507534006-000167-C   507534006003000516971BALLOONS PINK METALLIC 0000001000+00001314+00000+0001T032609440000                    1400 2IC1312ICV             Z
507534018507534265-000216     507534006001023681423CAR B/O RACING-SET 36PC0000002000+00021051+00000+0001T032609440000                    1400 2IC7102ICV             Z
507534019507534565-000044     507534006003000128280BARREL OF SLIME 100g   0000001000+00000613+00000+0001T032609440000                    1400 2IC7452ICV             Z
507534020507534083-000055     507534006003000003853LIGHTER ELCTRNC REFILBL0000002000+00000613+00000+0001T032609440000                    1400 2IC3152ICV             Z
507534021507534024-007060     507534006003000289950CAKE-SERVER PL ROUND   0000001000+00008771+00000+0001T032609440000                    1400 2IC3002ICV             Z
507534022507534261-000121     507534006001023341600GUN-CAPS 8-SHOT CARD-9 0000001000+00000700+00000+0001T032609440000                    1400 2IC7102ICV             Z
507534023507534077-000370     507534006003000080915GIFT-RIBBON 2PCE ASSTD 0000001000+00002630+00000+0001T032609440000                    1400 2IC1122ICV             Z
507534024507534565-000887     507534006003000412334NOVELTY SILICONE TOY   0000001000+00002192+00000+0001T032609440000                    1400 2IC7452ICV             Z
507534025507534084-009416     507534006001023752727SCISSORS 18cm POLKA/DT 0000002000+00001314+00000+0001T032609440000                    1400 2IC2002ICV             Z
507534026507534048-000870     507534006003000525287LANTERN B/LIGHT MINI   0000001000+00003507+00000+0001T032609440000                    1400 2IC3052ICV             Z
507534027507534565-000888     507534006003000607846NOVELTY MESH BALL      0000002000+00001753+00000+0001T032609440000                    1400 2IC7452ICV             Z
M17021391                              CASH        EUSLAVE 3                       Z-REPORT No.     3TOTAL (Sales - Refunds)              0.00       CASH TO BE BANKED                    0.00       DEBIT CARDS                          0.00       CREDIT CARDS                         0.00       Z-READING                            0.00       AIRTIME DEBIT CARD SALES             0.00       AIRTIME CARD SALES                   0.00       OVERS/UNDERS                         0.00       AIRTIME CASH SALES                   0.00       GIFT CARDS                           0.00       GIFT CARD CASH SALES                 0.00       T O T A L  CASH PAYOUTS              0.00                                                                                                                                                                                                                                                                                                                                                      Z
M17021392                              CASH        EUABSENT                                                                                                                                                                                          ANNUAL LEAVE                                                                                                                                                                                    DAY OFF                                                                                                                                                                                         COMMENTS                                                                                                                                                                                                                                                                                                                                                                                       Z
Y17021300                                          EU00000000000000+000000
ZEU17021319353 SLAVE 3      SALES DATA                     NEXT INVOICE NO.  507535 0003
X EU Slave 3 First invoice 507532 170213 Last invoice 507534 170213 Next invoice 507535 Total number of records 000000115 clbackup completed 19:35:33
