205044000205044               205044               170213EX     1400+00000+EX0000007661+0000007661+000000000+000001074+0000008735+0000000000+I40000008735+0000000000+Z
205044001205044019-071599     205044006001023693242PEBBLES GLS 250g BLACK 0000001000+00001753+00000+0001T   00001753+0000000909          1400 KU1510               2AZ
205044002205044002-021042     205044006001023621801TOOTHPICKS 250PCE      0000003000+00001227+00000+0001T   00001227+0000000909          1400 KU1300               2AZ
205044003205044018-000170     205044006001023775528MUG OCC. LOVE 2PC MINI 0000001000+00002192+00000+0001T   00002192+0000000909          1400 KU1515               2AZ
205044004205044112-116038     205044006009681820246TCS CARRIER BAG MIDI   0000001000+00000035+00000+0001T   00000035+0000000909          1400 KU1090               2AZ
205045000205045               205045               170213EX     1400+00000+EX0000007662+0000007662+000000000+000001074+0000008736+0000000000+I40000008736+0000000000+Z
205045001205045018-000129     205045006001023403353MUG OCC. LOVE V-SHAPE  0000001000+00002630+00000+0001T   00002630+0000000916          1400 KU1515               2AZ
205045002205045018-000130     205045006001023867537MUG OCC LOVE MINI+HEART0000001000+00003507+00000+0001T   00003507+0000000916          1400 KU1515               2AZ
205045003205045077-000299     205045006003000395576G/BAG 32x25cm LRG LOVE 0000001000+00001490+00000+0001T   00001490+0000000916          1400 KU1112               2AZ
205045004205045112-116038     205045006009681820246TCS CARRIER BAG MIDI   0000001000+00000035+00000+0001T   00000035+0000000916          1400 KU1090               2AZ
205046000205046               205046               170213EX     1400+00000+EX0000068755+0000068755+000000000+000009645+0000078400+0000000000+I40000078400+0000000000+Z
205046001205046018-000177     205046006001023797513MUG MINI LOVE ASSTD    0000002000+00000700+00000+0001T   00000700+0000000930          1400 KU1515               2AZ
205046002205046018-000136     205046006001023659026MUG OCC LOVE W/PLUSH   0000001000+00003507+00000+0001T   00003507+0000000930          1400 KU1515               2AZ
205046003205046304-001011     205046006001023806727FLWR ROSE RED W/BEAR   0000104000+00000613+00000+0001T   00000788+0006470930          1400 KU1510               2AZ
205046004205046112-116069     205046006009681820277TCS CARRIER BAG JUMBO  0000002000+00000048+00000+0001T   00000048+0000000930          1400 KU1090               2AZ
205047000205047               205047               170213EX     1400+00000+EX0000006488-0000006488-000000000+000000909-0000007400-0000000003+I20000000000+0000007400-Z
205047001205047078-013424     205047006008741000338CONTACT-ADHESIVE 50ml  0000001000-00001578+00000+0001T   00001578+0000001040          1400 KU18101IC            2 Z
205047002205047079-000802     205047006001023528902ART+CRAFT STICKS 100PCE0000002000-00002455+00000+0001T   00002455+0000001040          1400 KU11301IC            2 Z
205048000205048               205048               170213EX     1400+00000+EX0000001578+0000001578+000000000+000000221+0000001790+0000000009+I20000000000+0000001790+Z
205048001205048077-000303     205048006001023593757GIFT-BAG PAPER MED     0000001000+00001578+00000+0001T   00001578+0000001201          1400 KU1112               2AZ
205049000205049               205049               170213EX     1400+00000+EX0000000613+0000000613+000000000+000000086+0000000690+0000000009+I20000000000+0000000690+Z
205049001205049077-000321     205049006001023677501GIFT-BAG 11X14CM E/D FL0000001000+00000613+00000+0001T   00000613+0000001315          1400 KU1112               2AZ
205050000205050               205050               170213EX     1400+00000+EX0000002192+0000002192+000000000+000000307+0000002490+0000000009+I20000000000+0000002490+Z
205050001205050080-000139     205050006003000611690CARD & ENV MINI SET 6PC0000001000+00002192+00000+0001T   00002192+0000001327          1400 KU1112               2AZ
205051000205051               205051               170213EX     1400+00000+EX0000006139+0000006139+000000000+000000860+0000006999+0000000000+I40000006999+0000000000+Z
205051001205051264-000922     205051000090159250012MAISTO CAR PULL-BACK   0000001000+00006139+00000+0001T   00007016+0008191331          1400 KU1710               2AZ
205052000205052               205052               170213EX     1400+00000+EX0000015827+0000015827+000000000+000002219+0000018046+0000000000+I40000018046+0000000000+Z
205052001205052567-075466     205052009780263917710BK NOVEL ROMANCE       0000001000+00002630+00000+0001T   00002630+0000001334          1400 KU1757               2AZ
205052002205052567-075466     205052009780263917659BK NOVEL ROMANCE       0000001000+00002630+00000+0001T   00002630+0000001334          1400 KU1757               2AZ
205052003205052104-000025     205052006001023780287BASKET PL 28x17x11cm   0000001000+00003507+00000+0001T   00003507+0000001334          1400 KU1210               2AZ
205052004205052105-001036     205052006003000621118CONTAINER W/VENT 350ml 0000002000+00000876+00000+0001T   00001490+0008161334          1400 KU1210               2AZ
205052005205052012-000001     205052006003000331048MICRO PLATE-COVER 26X6 0000001000+00001753+00000+0001T   00002192+0008191334          1400 KU1300               2AZ
205052006205052012-000002     205052006003000331079MICRO PLATE-COVER 26X9 0000001000+00003507+00000+0001T   00003507+0000001334          1400 KU1300               2AZ
205052007205052112-116069     205052006009681820277TCS CARRIER BAG JUMBO  0000001000+00000048+00000+0001T   00000048+0000001334          1400 KU1090               2AZ
205053000205053               205053               170213EX     1400+00000+EX0000024164+0000024164+000000000+000003384+0000027540+0000000008+I20000000000+0000027540+Z
205053001205053031-080508     205053006001023802415P/FRAME PL 22X11CM LOVE0000004000+00004385+00000+0001T   00004385+0000001354          1400 KU1510               2AZ
205053002205053080-000139     205053006003000611690CARD & ENV MINI SET 6PC0000003000+00002192+00000+0001T   00002192+0000001354          1400 KU1112               2AZ
205053003205053112-116069     205053006009681820277TCS CARRIER BAG JUMBO  0000001000+00000048+00000+0001T   00000048+0000001354          1400 KU1090               2AZ
205054000205054               205054               170213EX     1400+00000+EX0000012323+0000012323+000000000+000001728+0000014050+0000000001+I20000000000+0000014050+Z
205054001205054080-000116     205054006003000253555CARD&ENVELOPE-HANDMADE 0000001000+00001753+00000+0001T   00001753+0000001356          1400 KU1112               2AZ
205054002205054077-000290     205054006001023902023GIFT BOX 26x32x13cm    0000001000+00001753+00000+0001T   00001753+0000001356          1400 KU1112               2AZ
205054003205054018-050000     205054006003000412679MUG OCC LOVE TWIN BEAR 0000001000+00006139+00000+0001T   00006139+0000001356          1400 KU1515               2AZ
205054004205054077-000270     205054006003000395453GIFT-BAG PPR JMB 33X45 0000001000+00002630+00000+0001T   00002630+0000001356          1400 KU1112               2AZ
205054005205054112-116069     205054006009681820277TCS CARRIER BAG JUMBO  0000001000+00000048+00000+0001T   00000048+0000001356          1400 KU1090               2AZ
205055000205055               205055               170213EX     1400+00000+EX0000002805+0000002805+000000000+000000393+0000003198+0000000000+I40000003198+0000000000+Z
205055001205055083-000055     205055006003000003853LIGHTER ELCTRNC REFILBL0000001000+00000613+00000+0001T   00000613+0000001358          1400 KU1315               2AZ
205055002205055007-000046     205055006009635831366DISPLAY-BOOK PL A4 30PG0000001000+00002192+00000+0001T   00002192+0000001358          1400 KU1130               2AZ
205056000205056               205056               170213EX     1400+00000+EX0000008768+0000008768+000000000+000001228+0000009996+0000000000+I40000009996+0000000000+Z
205056001205056006-005909     205056006003000081301PARTY FAVOUR STAR WAND 0000004000+00002192+00000+0001T   00002192+0000001400          1400 KU1131               2AZ
205057000205057               205057               170213EX     1400+00000+EX0000004820+0000004820+000000000+000000677+0000005490+0000000007+I20000000000+0000005490+Z
205057001205057073-000157     205057006003000571734COSMETIC QUILTED BAG   0000001000+00002630+00000+0001T   00002630+0000001407          1400 KU1200               2AZ
205057002205057080-000133     205057006003000535613CARD&ENV MINI ASTD DSGN0000001000+00000437+00000+0001T   00000437+0000001407          1400 KU1112               2AZ
205057003205057077-000289     205057006001023901996GIFT BOX 20x25x11cm    0000001000+00001753+00000+0001T   00001753+0000001407          1400 KU1112               2AZ
205058000205058               205058               170213EX     1400+00000+EX0000006477+0000006477+000000000+000000908+0000007385+0000000000+I40000007385+0000000000+Z
205058001205058903-000194     205058006009826020616SWT CHOC RP LOLLY 25G  0000001000+00001314+00000+0001T   00001314+0000001412          1400 KU1150               2AZ
205058002205058079-009700-D   205058006003000545711PAPER SIRIO A4 RED COL.0000001000+00000306+00000+0001T   00000306+0000001412          1400 KU1130               2AZ
205058003205058220-005003     205058006003000566150ELOFF TEASPOONS 4PC    0000001000+00001753+00000+0001T   00001753+0000001412          1400 KU1300               2AZ
205058004205058464-009009     205058006003000647552FISHING DUCKS MAGNETIC 0000001000+00003069+00000+0001T   00003069+0000001412          1400 KU1785               2AZ
205058005205058112-116038     205058006009681820246TCS CARRIER BAG MIDI   0000001000+00000035+00000+0001T   00000035+0000001412          1400 KU1090               2AZ
205059000205059               205059               170213EX     1400+00000+EX0000026310+0000026310+000000000+000003684+0000029990+0000000004+I20000000000+0000029990+Z
205059001205059031-080508     205059006001023802415P/FRAME PL 22X11CM LOVE0000006000+00004385+00000+0001T   00004385+0000001413          1400 KU1510               2AZ
205060000205060               205060               170213EX     1400+00000+EX0000015786+0000015786+000000000+000002211+0000017990+0000000007+I20000000000+0000017990+Z
205060001205060072-020300     205060006008632000430DOG-TOY TUG-A-BALL SML 0000001000+00002630+00000+0001T   00002630+0000001419          1400 KU1870               2AZ
205060002205060072-020299     205060006001023700957PET DOG TOY RING RUBBER0000001000+00004385+00000+0001T   00004385+0000001419          1400 KU1870               2AZ
205060003205060072-020242     205060006003000053728PET BED COTTON TEXTILE 0000001000+00008771+00000+0001T   00008771+0000001419          1400 KU1870               2AZ
205061000205061               205061               170213EX     1400+00000+EX0000011742+0000011742+000000000+000001648+0000013390+0000000000+I20000000000+0000013390+Z
205061001205061018-000136     205061006001023659026MUG OCC LOVE W/PLUSH   0000002000+00003507+00000+0001T   00003507+0000001433          1400 KU1515               2AZ
205061002205061077-000303     205061006001023593757GIFT-BAG PAPER MED     0000002000+00001578+00000+0001T   00001578+0000001433          1400 KU1112               2AZ
205061003205061903-000183     205061006003000451043SWT LB HEART LOLLY     0000004000+00000393+00000+0001T   00000393+0000001433          1400 KU1150               2AZ
205062000205062               205062               170213EX     1400+00000+EX0000012279+0000012279+000000000+000001720+0000013990+0000000009+I20000000000+0000013990+Z
205062001205062019-000079     205062006001023775726VASE 30cm CRACK-DESIGN 0000001000+00012279+00000+0001T   00012279+0000001443          1400 KU1510               2AZ
205063000205063               205063               170213EX     1400+00000+EX0000012543+0000012543+000000000+000001758+0000014301+0000000000+I40000014301+0000000000+Z
205063001205063019-000070     205063006003000297474VASE GLS CLEAR BOTTLE  0000001000+00004385+00000+0001T   00004385+0000001446          1400 KU1510               2AZ
205063002205063019-000300     205063006001023845139VASE CER. ASST         0000001000+00007016+00000+0001T   00007016+0000001446          1400 KU1510               2AZ
205063003205063903-000481     205063006001704007481SWT MOO MILK-SHAKES 60G0000001000+00000876+00000+0001T   00000876+0000001446          1400 KU1150               2AZ
205063004205063903-000671     205063006009803358015SWT SHERBET BLUE LIPS  0000001000+00000218+00000+0001T   00000218+0000001446          1400 KU1150               2AZ
205063005205063112-116069     205063006009681820277TCS CARRIER BAG JUMBO  0000001000+00000048+00000+0001T   00000048+0000001446          1400 KU1090               2AZ
205064000205064               205064               170213EX     1400+00000+EX0000001753+0000001753+000000000+000000246+0000001999+0000000000+I40000001999+0000000000+Z
205064001205064077-000290     205064006001023902023GIFT BOX 26x32x13cm    0000001000+00001753+00000+0001T   00001753+0000001449          1400 KU1112               2AZ
205065000205065               205065               170213EX     1400+00000+EX0000001490+0000001490+000000000+000000209+0000001690+0000000009+I20000000000+0000001690+Z
205065001205065077-000299     205065006003000395576G/BAG 32x25cm LRG LOVE 0000001000+00001490+00000+0001T   00001490+0000001458          1400 KU1112               2AZ
205066000205066               205066               170213EX     1400+00000+EX0000004822+0000004822+000000000+000000676+0000005490+0000000008+I20000000000+0000005490+Z
205066001205066006-000090     205066006001023538505BANNER HAPPY-BIRTHDAY  0000001000+00002192+00000+0001T   00002192+0000001504          1400 KU1131               2AZ
205066002205066006-000122     205066006003000457908BALLOONS 6PC PRINTED   0000001000+00002630+00000+0001T   00002630+0000001504          1400 KU1131               2AZ
205067000205067               205067               170213EX     1400+00000+EX0000010309+0000010309+000000000+000001444+0000011753+0000000000+I40000011753+0000000000+Z
205067001205067368-000012     205067006003000610464PLUSH BEAR 30cm SITTING0000001000+00008771+00000+0001T   00008771+0000001523          1400 KU1745               2AZ
205067002205067077-000299     205067006003000395576G/BAG 32x25cm LRG LOVE 0000001000+00001490+00000+0001T   00001490+0000001523          1400 KU1112               2AZ
205067003205067112-116069     205067006009681820277TCS CARRIER BAG JUMBO  0000001000+00000048+00000+0001T   00000048+0000001523          1400 KU1090               2AZ
205068000205068               205068               170213EX     1400+00000+EX0000008765+0000008765+000000000+000001230+0000009995+0000000000+I40000009995+0000000000+Z
205068001205068903-003080     205068005907029004673SWT SNACK STIX CHOC 50g0000001000+00000876+00000+0001T   00000876+0000001526          1400 KU1150               2AZ
205068002205068903-000211     205068006002099001238SWT GS MALLOW ICE CREAM0000001000+00001753+00000+0001T   00001753+0000001526          1400 KU1150               2AZ
205068003205068903-000220     205068006001704007368SWT JELLY BEANS 60G    0000001000+00000876+00000+0001T   00000876+0000001526          1400 KU1150               2AZ
205068004205068104-000032     205068006003000099696BASKET PL 34x25x8cm    0000002000+00002630+00000+0001T   00002630+0000001526          1400 KU1210               2AZ
205069000205069               205069               170213EX     1400+00000+EX0000001753-0000001753-000000000+000000246-0000002000-0000000001+I20000000000+0000002000-Z
205069001205069466-000583     205069006001023156617SKIPPING-ROPE 224cm    0000001000-00001753+00000+0001T   00001753+0000001530          1400 KU17852IC            2 Z
205070000205070               205070               170213EX     1400+00000+EX0000002192+0000002192+000000000+000000307+0000002490+0000000009+I20000000000+0000002490+Z
205070001205070047-005127     205070006003000093861CABLETIES 100/150/200mm0000001000+00002192+00000+0001T   00002192+0000001533          1400 KU1880               2AZ
205071000205071               205071               170213EX     1400+00000+EX0000008771+0000008771+000000000+000001228+0000009999+0000000000+I40000009999+0000000000+Z
205071001205071006-000165     205071006001023758392BALLOONS LRG BAG-OF-1000000001000+00008771+00000+0001T   00008771+0000001536          1400 KU1131               2AZ
205072000205072               205072               170213EX     1400+00000+EX0000008416+0000008416+000000000+000001179+0000009590+0000000005+I20000000000+0000009590+Z
205072001205072089-000200     205072006003000485840KEY CHAIN POLY LOVE IS 0000001000+00003507+00000+0001T   00004385+0008121540          1400 KU1205               2AZ
205072002205072018-000170     205072006001023775528MUG OCC. LOVE 2PC MINI 0000001000+00002192+00000+0001T   00002192+0000001540          1400 KU1515               2AZ
205072003205072080-000124     205072006003000297733CARD & ENV VALENTINES  0000001000+00001578+00000+0001T   00001578+0000001540          1400 KU1112               2AZ
205072004205072565-000071     205072006003000643387NOVELTY WIND UP CHATTER0000001000+00001139+00000+0001T   00001139+0000001540          1400 KU1745               2AZ
205073000205073               205073               170213EX     1400+00000+EX0000001314+0000001314+000000000+000000184+0000001490+0000000008+I20000000000+0000001490+Z
205073001205073046-000012     205073006904708013062BATTERIES AA  CARD-OF-40000001000+00001314+00000+0001T   00001314+0000001543          1400 KU1312               2AZ
205074000205074               205074               170213EX     1400+00000+EX0000058048+0000058048+000000000+000008132+0000066180+0000000000+I40000066180+0000000000+Z
205074001205074018-030000     205074006003000421060MUG OCCASIONS LOVE 2PCE0000011000+00004385+00000+0001T   00004385+0000001551          1400 KU1515               2AZ
205074002205074903-000087     205074006001704000161SWT SPECKLED-EGGS 50G  0000006000+00001139+00000+0001T   00001139+0000001551          1400 KU1150               2AZ
205074003205074077-000150-D   205074006003000054343GIFT-WRAP CELLPHANE CLR0000001000+00000876+00000+0001T   00000876+0000001551          1400 KU1112               2AZ
205074004205074077-000245     205074006001023759214GIFT-RIBBON METALLICx2 0000001000+00001227+00000+0001T   00001227+0000001551          1400 KU1112               2AZ
205074005205074077-000150-D   205074006003000054343GIFT-WRAP CELLPHANE CLR0000001000+00000876+00000+0001T   00000876+0000001551          1400 KU1112               2AZ
205075000205075               205075               170213EX     1400+00000+EX0000009556+0000009556+000000000+000001340+0000010896+0000000000+I40000010896+0000000000+Z
205075001205075903-000183     205075006003000451043SWT LB HEART LOLLY     0000002000+00000393+00000+0001T   00000393+0000001554          1400 KU1150               2AZ
205075002205075006-000190     205075006003000685530BALLOONS LOVE 81x91cm  0000002000+00004385+00000+0001T   00004385+0000001554          1400 KU1131               2AZ
205076000205076               205076               170213EX     1400+00000+EX0000000876+0000000876+000000000+000000123+0000000990+0000000009+I20000000000+0000000990+Z
205076001205076077-000150-D   205076006003000054343GIFT-WRAP CELLPHANE CLR0000001000+00000876+00000+0001T   00000876+0000001556          1400 KU1112               2AZ
205077000205077               205077               170213EX     1400+00000+EX0000002628+0000002628+000000000+000000369+0000002990+0000000007+I20000000000+0000002990+Z
205077001205077077-000151     205077006008766114676GIFT-WRAP C/PHANE ASSTD0000003000+00000876+00000+0001T   00000876+0000001557          1400 KU1112               2AZ
205078000205078               205078               170213EX     1400+00000+EX0000016707+0000016707+000000000+000002342+0000019040+0000000009+I20000000000+0000019040+Z
205078001205078077-000235     205078006003000160211GIFT-RIBBON ROLL METALC0000002000+00002630+00000+0001T   00002630+0000001600          1400 KU1112               2AZ
205078002205078077-000011-C   205078006001023808523TISSUE 10xSHTS RED     0000001000+00000876+00000+0001T   00000876+0000001600          1400 KU1112               2AZ
205078003205078077-000150-D   205078006003000054343GIFT-WRAP CELLPHANE CLR0000002000+00000876+00000+0001T   00000876+0000001600          1400 KU1112               2AZ
205078004205078001-091415     205078006003000329113W/GLS OCC. LOVE 2PC 2800000001000+00008771+00000+0001T   00009648+0006471600          1400 KU1515               2AZ
205078005205078112-116069     205078006009681820277TCS CARRIER BAG JUMBO  0000001000+00000048+00000+0001T   00000048+0000001600          1400 KU1090               2AZ
205079000205079               205079               170213EX     1400+00000+EX0000003506+0000003506+000000000+000000492+0000003998+0000000000+I40000003998+0000000000+Z
205079001205079903-000211     205079006002099001238SWT GS MALLOW ICE CREAM0000001000+00001753+00000+0001T   00001753+0000001619          1400 KU1150               2AZ
205079002205079108-001028     205079006009654960733TUMBLERS PL SET-OF-6   0000001000+00001753+00000+0001T   00002630+0008171619          1400 KU1210               2AZ
205080000205080               205080               170213EX     1400+00000+EX0000006138+0000006138+000000000+000000860+0000006998+0000000000+I40000006998+0000000000+Z
205080001205080077-000381     205080006003000247707GIFT-BAG 25X32CM S/COL 0000001000+00001753+00000+0001T   00001753+0000001628          1400 KU1112               2AZ
205080002205080001-000175     205080006001023788108B/MUG GLS LOVE 380ML   0000001000+00004385+00000+0001T   00004385+0000001628          1400 KU1515               2AZ
205081000205081               205081               170213EX     1400+00000+EX0000016224+0000016224+000000000+000002273+0000018490+0000000007+I20000000000+0000018490+Z
205081001205081080-000139     205081006003000611690CARD & ENV MINI SET 6PC0000001000+00002192+00000+0001T   00002192+0000001629          1400 KU1112               2AZ
205081002205081031-086219-C   205081006001023808905P/FRAME WDN A4 30X40CM 0000002000+00007016+00000+0001T   00007016+0000001629          1400 KU1510               2AZ
205082000205082               205082               170213EX     1400+00000+EX0000004120+0000004120+000000000+000000578+0000004698+0000000000+I40000004698+0000000000+Z
205082001205082124-000001     205082000738380781690STORAGE TIN TISSUE     0000001000+00002630+00000+0001T   00003507+0008171645          1400 KU1300               2AZ
205082002205082077-000452     205082006003000284986G/BAG METALLIC MED EMB 0000001000+00001490+00000+0001T   00001490+0000001645          1400 KU1112               2AZ
205083000205083               205083               170213EX     1400+00000+EX0000006785+0000006785+000000000+000000954+0000007730+0000000009+I20000000000+0000007730+Z
205083001205083019-000131     205083006003000456253PLANT. T/PLATE 10X12.5 0000001000+00002630+00000+0001T   00002630+0000001652          1400 KU1510               2AZ
205083002205083006-000171-G   205083006003000609529BALLOONS 1PC YELLOW PRN0000002000+00000218+00000+0001T   00000218+0000001652          1400 KU1131               2AZ
205083003205083006-000170-E   205083006003000608546BALLOONS 1PC BLUE      0000001000+00000218+00000+0001T   00000218+0000001652          1400 KU1131               2AZ
205083004205083006-000170-B   205083006003000608300BALLOONS 1PC L/GREEN   0000001000+00000218+00000+0001T   00000218+0000001652          1400 KU1131               2AZ
205083005205083006-000172-D   205083006003000609932METALLIC GOLD          0000001000+00000218+00000+0001T   00000218+0000001652          1400 KU1131               2AZ
205083006205083006-001000     205083006003000093779HELIUM BALLOON FILL    0000005000+00000613+00000+0001T   00000613+0000001652          1400 KU1131               2AZ
205084000205084               205084               170213EX     1400+00000+EX0000005963+0000005963+000000000+000000835+0000006790+0000000008+I20000000000+0000006790+Z
205084001205084368-000049     205084006003000536955PLUSH BEAR 15cm LOVE   0000001000+00004385+00000+0001T   00004385+0000001659          1400 KU1745               2AZ
205084002205084077-000303     205084006001023593757GIFT-BAG PAPER MED     0000001000+00001578+00000+0001T   00001578+0000001659          1400 KU1112               2AZ
205085000205085               205085               170213EX     1400+00000+EX0000005085+0000005085+000000000+000000712+0000005790+0000000007+I20000000000+0000005790+Z
205085001205085077-000303     205085006001023593757GIFT-BAG PAPER MED     0000001000+00001578+00000+0001T   00001578+0000001700          1400 KU1112               2AZ
205085002205085031-086303-B   205085006003000322404P/FRM CHAMPAGNE 13X18CM0000001000+00003507+00000+0001T   00003507+0000001700          1400 KU1510               2AZ
205086000205086               205086               170213EX     1400+00000+EX0000003507+0000003507+000000000+000000491+0000003998+0000000000+I40000003998+0000000000+Z
205086001205086089-000200     205086006003000485840KEY CHAIN POLY LOVE IS 0000001000+00003507+00000+0001T   00004385+0008121701          1400 KU1205               2AZ
205087000205087               205087               170213EX     1400+00000+EX0000001314+0000001314+000000000+000000184+0000001490+0000000008+I20000000000+0000001490+Z
205087001205087030-000010     205087006003000084395P/DOOR HANGER 2-ASSTD  0000001000+00001314+00000+0001T   00001490+0008181702          1400 KU1505               2AZ
205088000205088               205088               170213EX     1400+00000+EX0000001051+0000001051+000000000+000000148+0000001190+0000000009+I20000000000+0000001190+Z
205088001205088903-002892     205088008935001721338MENTOS JUICEBLAST BERRY0000001000+00001051+00000+0001T   00001051+0000001714          1400 KU1150               2AZ
205089000205089               205089               170213EX     1400+00000+EX0000000048+0000000048+000000000+000000007+0000000050+0000000005+I20000000000+0000000050+Z
205089001205089112-116069     205089006003000535064TCS CARRIER BAG JUMBO  0000001000+00000048+00000+0001T   00000048+0000001721          1400 KU1090               2AZ
205090000205090               205090               170213EX     1400+00000+EX0000002980+0000002980+000000000+000000418+0000003390+0000000008+I20000000000+0000003390+Z
205090001205090077-000305     205090006003000395422GIFT-BAG WINE 10X35CM  0000002000+00001490+00000+0001T   00001490+0000001729          1400 KU1112               2AZ
205091000205091               205091               170213EX     1400+00000+EX0000006050+0000006050+000000000+000000848+0000006890+0000000008+I20000000000+0000006890+Z
205091001205091301-085003     205091006003000420827ORN OCCASION LOVE KEY  0000001000+00005262+00000+0001T   00005262+0000001730          1400 KU1505               2AZ
205091002205091077-000383     205091006003000247943GIFT-BAG 11X14CM S/COL 0000001000+00000788+00000+0001T   00000788+0000001730          1400 KU1112               2AZ
205092000205092               205092               170213EX     1400+00000+EX0000012275+0000012275+000000000+000001721+0000013990+0000000006+I20000000000+0000013990+Z
205092001205092079-000282     205092006001023493309PAINT TUBS POSTER 12COL0000001000+00002630+00000+0001T   00002630+0000001734          1400 KU1130               2AZ
205092002205092079-002909     205092006003000639410ART+CRAFT MAGIC MARKERS0000001000+00002630+00000+0001T   00002630+0000001734          1400 KU1130               2AZ
205092003205092079-001001     205092006003000448593CANVAS A3 WOOD MOUNTED 0000001000+00004385+00000+0001T   00004385+0000001734          1400 KU1130               2AZ
205092004205092016-006425     205092006001023998170S/JAR GLS CLIP W/RIBBON0000001000+00002630+00000+0001T   00002630+0000001734          1400 KU1300               2AZ
205093000205093               205093               170213EX     1400+00000+EX0000007625+0000007625+000000000+000001070+0000008695+0000000000+I40000008695+0000000000+Z
205093001205093002-021064     205093006001023822246TOOTHPICKS IN-HOLDER   0000001000+00001490+00000+0001T   00001490+0000001738          1400 KU1300               2AZ
205093002205093024-000214     205093006001023587855COOKIE-CUTTERS PL 6PC  0000001000+00001753+00000+0001T   00001753+0000001738          1400 KU1300               2AZ
205093003205093039-000114     205093006001023524058CANDLE T/LITE RED 3.5CM0000001000+00001753+00000+0001T   00001753+0000001738          1400 KU1510               2AZ
205093004205093006-000118     205093006001023730725BALLOONS 6PC TWISTER   0000001000+00001753+00000+0001T   00001753+0000001738          1400 KU1131               2AZ
205093005205093903-000123     205093006925925909280SWEET GS MINI MALLOWS  0000001000+00000876+00000+0001T   00000876+0000001738          1400 KU1150               2AZ
205094000205094               205094               170213EX     1400+00000+EX0000017183+0000017183+000000000+000002408+0000019591+0000000000+I40000019591+0000000000+Z
205094001205094028-000797     205094006001023812124SKEWERS 15cm 100PCE    0000001000+00000876+00000+0001T   00000876+0000001741          1400 KU1305               2AZ
205094002205094028-000795     205094006001023812063SKEWERS 10cm 100PCE 3mm0000001000+00000964+00000+0001T   00000964+0000001741          1400 KU1305               2AZ
205094003205094024-000170     205094006003000120642SILICONE CAKE-PAN RND  0000001000+00007455+00000+0001T   00007455+0000001741          1400 KU1300               2AZ
205094004205094083-000049     205094004891035200024CIG-LIGHTER DISPOSABLE 0000001000+00000437+00000+0001T   00000437+0000001741          1400 KU1315               2AZ
205094005205094071-001010     205094006001023893314MARKERS-METALIC 3PCE   0000001000+00003507+00000+0001T   00003507+0000001741          1400 KU1130               2AZ
205094006205094200-000104     205094006003000677412PICNIC CUPS PL 6PCE    0000001000+00002630+00000+0001T   00002630+0000001741          1400 KU1214               2AZ
205094007205094006-000167-E   205094006003000517213BALLOONS GOLD METALLIC 0000001000+00001314+00000+0001T   00001314+0000001741          1400 KU1131               2AZ
205095000205095               205095               170213EX     1400+00000+EX0000003331+0000003331+000000000+000000467+0000003798+0000000000+I40000003798+0000000000+Z
205095001205095206-000370     205095006003000631315STRAW P/DRINKING GLASS 0000001000+00001753+00000+0001T   00001753+0000001744          1400 KU1321               2AZ
205095002205095077-000303     205095006001023593757GIFT-BAG PAPER MED     0000001000+00001578+00000+0001T   00001578+0000001744          1400 KU1112               2AZ
205096000205096               205096               170213EX     1400+00000+EX0000007939+0000007939+000000000+000001113+0000009052+0000000000+I40000009052+0000000000+Z
205096001205096051-002402     205096006001023518347TRIGGER-SPRAYER  500ml 0000001000+00001753+00000+0001T   00001753+0000001747          1400 KU1820               2AZ
205096002205096159-003600     205096006001023606174TOILET-BRUSH W/STAND PL0000001000+00004385+00000+0001T   00004385+0000001747          1400 KU1200               2AZ
205096003205096112-116069     205096006009681820277TCS CARRIER BAG JUMBO  0000001000+00000048+00000+0001T   00000048+0000001747          1400 KU1090               2AZ
205096004205096038-047250     205096006001023816009PLACE MAT ASSORTED     0000001000+00001753+00000+0001T   00001753+0000001747          1400 KU1300               2AZ
205097000205097               205097               170213EX     1400+00000+EX0000005260+0000005260+000000000+000000738+0000005990+0000000008+I20000000000+0000005990+Z
205097001205097007-000049     205097006003000274994OFFICE E/LOPE A4 PK 5  0000002000+00002630+00000+0001T   00002630+0000001748          1400 KU1130               2AZ
205098000205098               205098               170213EX     1400+00000+EX0000006139+0000006139+000000000+000000860+0000006999+0000000000+I40000006999+0000000000+Z
205098001205098018-050000     205098006003000412679MUG OCC LOVE TWIN BEAR 0000001000+00006139+00000+0001T   00006139+0000001752          1400 KU1515               2AZ
205099000205099               205099               170213EX     1400+00000+EX0000000876+0000000876+000000000+000000123+0000000990+0000000009+I20000000000+0000000990+Z
205099001205099077-000302     205099008010410010195GIFT-BAG 18X23CM E/D   0000001000+00000876+00000+0001T   00000876+0000001755          1400 KU1112               2AZ
205100000205100               205100               170213EX     1400+00000+EX0000034420+0000034420+000000000+000004824+0000039240+0000000004+I20000000000+0000039240+Z
205100001205100077-000916     205100006003000413577G/WRAP 700mmx2m BBY/KID0000001000+00002192+00000+0001T   00002192+0000001759          1400 KU1112               2AZ
205100002205100082-007580     205100006003000698523SUNGLASS MENS DESIGNER 0000001000+00005262+00000+0001T   00005262+0000001759          1400 KU1160               2AZ
205100003205100903-000087     205100006001704000161SWT SPECKLED-EGGS 50G  0000001000+00001139+00000+0001T   00001139+0000001759          1400 KU1150               2AZ
205100004205100903-000151     205100006009803374411SWT SML RND R/BOW LOLLY0000001000+00000525+00000+0001T   00000525+0000001759          1400 KU1150               2AZ
205100005205100362-001052     205100006001023915078NAIL TEEN ART SET 5PCE 0000001000+00002630+00000+0001T   00002630+0000001759          1400 KU1160               2AZ
205100006205100362-001045     205100006001023843449MAKE-UP TEEN GIFT SET  0000001000+00005262+00000+0001T   00005262+0000001759          1400 KU1160               2AZ
205100007205100903-000151     205100006009803374411SWT SML RND R/BOW LOLLY0000003000+00000525+00000+0001T   00000525+0000001759          1400 KU1150               2AZ
205100008205100262-000651     205100006001023754561DIE CAST SET 5PC RACER 0000001000+00002630+00000+0001T   00002630+0000001759          1400 KU1710               2AZ
205100009205100464-003000     205100006003000328475GAME THINK:WORD BUILDER0000001000+00013157+00000+0001T   00013157+0000001759          1400 KU1785               2AZ
205100010205100112-116069     205100006009681820277TCS CARRIER BAG JUMBO  0000001000+00000048+00000+0001T   00000048+0000001759          1400 KU1090               2AZ
205101000205101               205101               170213EX     1400+00000+EX0000005697+0000005697+000000000+000000798+0000006495+0000000000+I40000006495+0000000000+Z
205101001205101018-000177     205101006001023797513MUG MINI LOVE ASSTD    0000001000+00000700+00000+0001T   00000700+0000001801          1400 KU1515               2AZ
205101002205101031-000002-A   205101006003000247103P/FRAME LOVE 7.5X7.5CM 0000001000+00003507+00000+0001T   00003507+0000001801          1400 KU1510               2AZ
205101003205101077-000299     205101006003000395576G/BAG 32x25cm LRG LOVE 0000001000+00001490+00000+0001T   00001490+0000001801          1400 KU1112               2AZ
205102000205102               205102               170213EX     1400+00000+EX0000004382+0000004382+000000000+000000615+0000004997+0000000000+I40000004997+0000000000+Z
205102001205102304-001204     205102006001023737984FLOWER OCC. TEDDY/ROSES0000001000+00001402+00000+0001T   00001490+0006471803          1400 KU1510               2AZ
205102002205102077-000299     205102006003000395576G/BAG 32x25cm LRG LOVE 0000002000+00001490+00000+0001T   00001490+0000001803          1400 KU1112               2AZ
205103000205103               205103               170213EX     1400+00000+EX0000012538+0000012538+000000000+000001758+0000014296+0000000000+I40000014296+0000000000+Z
205103001205103065-003639     205103006001023787620GUITAR ROCKER          0000001000+00007016+00000+0001T   00007016+0000001821          1400 KU1745               2AZ
205103002205103159-000038     205103006003000393954HOOKS HANGER S/S 2PCE  0000001000+00002630+00000+0001T   00002630+0000001821          1400 KU1200               2AZ
205103003205103038-047250     205103006001023816009PLACE MAT ASSORTED     0000001000+00001753+00000+0001T   00001753+0000001821          1400 KU1300               2AZ
205103004205103046-000014     205103006001023725387BATTERIES SIZE:AAA 4PCE0000001000+00001139+00000+0001T   00001139+0000001821          1400 KU1312               2AZ
205104000205104               205104               170213EX     1400+00000+EX0000012325+0000012325+000000000+000001727+0000014052+0000000000+I40000014052+0000000000+Z
205104001205104077-000455     205104006003000285389G/BAG METALLIC LRG SOL 0000001000+00001753+00000+0001T   00001753+0000001824          1400 KU1112               2AZ
205104002205104031-005921     205104006001023667847P/FRAME PL PLAIN       0000001000+00004385+00000+0001T   00004385+0000001824          1400 KU1510               2AZ
205104003205104039-000798     205104006001023617774CANDLES TEALITE BOX-50 0000001000+00006139+00000+0001T   00006139+0000001824          1400 KU1510               2AZ
205104004205104112-116069     205104006009681820277TCS CARRIER BAG JUMBO  0000001000+00000048+00000+0001T   00000048+0000001824          1400 KU1090               2AZ
205105000205105               205105               170213EX     1400+00000+EX0000002630+0000002630+000000000+000000369+0000002990+0000000009+I20000000000+0000002990+Z
205105001205105366-002101     205105006003000617715DRESS UP MASK LIGHT UP 0000001000+00002630+00000+0001T   00002630+0000001834          1400 KU1131               2AZ
A17021300                                          10392403EXSLAVE 2                       KU11IC
A17021301                                          11475767EXSLAVE 2                       1IC1IC
C20509500                                          170213EX301-085003     17423751SLAVE 2     KU12IC0000000000+0000000000+0010000001000+
M17021301                              IT          EXATT:IT                                                                                          LAST TILL SLIP NUMBER FOR SLAVE 2 IS 205105                                                     EX                                                                                              THANK YOU
M17021391                              CASH        EXSLAVE 2                       Z-REPORT No.   596TOTAL (Sales - Refunds)           6510.75       CASH TO BE BANKED                 2767.90       DEBIT CARDS                          0.00       CREDIT CARDS                      3742.85       Z-READING                         6510.75       AIRTIME DEBIT CARD SALES             0.00       AIRTIME CARD SALES                   0.00       OVERS/UNDERS                         0.00       AIRTIME CASH SALES                   0.00       GIFT CARDS                           0.00       GIFT CARD CASH SALES                 0.00       T O T A L  CASH PAYOUTS              0.00                                                                                                                                                                                                                                                                                                                                                      Z
M17021392                              CASH        EXABSENT                                                                                                                                                                                          ANNUAL LEAVE                                                                                                                                                                                    DAY OFF                                                                                                                                                                                         COMMENTS                                                                                                          EX                                                                                                                                                                                                                                                                           Z
Y17021300                                          EX00000000579482+000060
ZEX17021319363 SLAVE 2      SALES DATA                     NEXT INVOICE NO.  205106 0596
X EX Slave 2 First invoice 205044 170213 Last invoice 205105 170213 Next invoice 205106 Total number of records 000000234 clbackup completed 19:36:05
