309007000309007               309007               170213EX     1400+00000+EX0000001753+0000001753+000000000+000000246+0000001990+0000000009+I20000000000+0000001990+Z
309007001309007200-003026     309007006003000276448REFUSE BAGS 10PCE GREEN0000001000+00001753+00000+0001T   00001753+0000001005          1400 JY8214               3AZ
309008000309008               309008               170213EX     1400+00000+EX0000005132+0000005132+000000000+000000720+0000005850+0000000002+I20000000000+0000005850+Z
309008001309008077-000906     309008006003000410804G/WRAP 700mmx1m BIRTHDA0000002000+00001753+00000+0001T   00001753+0000001029          1400 JY8112               3DZ
309008002309008266-001307     309008006003000610570BOYS MARBLES 16mm 50PC 0000001000+00001578+00000+0001T   00001578+0000001029          1400 JY8710               3DZ
309008003309008112-116069     309008006009681820277TCS CARRIER BAG JUMBO  0000001000+00000048+00000+0001T   00000048+0000001029          1400 JY8090               3DZ
309009000309009               309009               170213EX     1400+00000+EX0000015785+0000015785+000000000+000002210+0000017995+0000000000+I40000017995+0000000000+Z
309009001309009077-000934     309009006003000409921G/WRAP 700mmx5m BIRTHDA0000001000+00003507+00000+0001T   00003507+0000001034          1400 JY8112               3AZ
309009002309009002-250010     309009006001023621931KITCHEN-SCALE 2kg      0000001000+00008771+00000+0001T   00008771+0000001034          1400 JY8300               3AZ
309009003309009083-000077     309009006003000092581LIGHTER LONG-REACH 18cm0000001000+00003507+00000+0001T   00003507+0000001034          1400 JY8315               3AZ
309010000309010               309010               170213EX     1400+00000+EX0000008854+0000008854+000000000+000001241+0000010095+0000000000+I40000010095+0000000000+Z
309010001309010104-000135     309010006001023846419WASTEBIN SWING-LID 28cm0000001000+00004385+00000+0001T   00004385+0000001054          1400 JY8210               3AZ
309010002309010028-000795     309010006001023812063SKEWERS 10cm 100PCE 3mm0000001000+00000964+00000+0001T   00000964+0000001054          1400 JY8305               3AZ
309010003309010028-000797     309010006001023812124SKEWERS 15cm 100PCE    0000001000+00000876+00000+0001T   00000876+0000001054          1400 JY8305               3AZ
309010004309010024-091100     309010006001023914224BAKING-CUPS PAPER 100PC0000001000+00001753+00000+0001T   00001753+0000001054          1400 JY8300               3AZ
309010005309010084-070005     309010006001023627902NAIL FILES 6PCE H/GLOW 0000001000+00000876+00000+0001T   00000876+0000001054          1400 JY8200               3AZ
309011000309011               309011               170213EX     1400+00000+EX0000001139+0000001139+000000000+000000160+0000001290+0000000009+I20000000000+0000001290+Z
309011001309011903-000087     309011006001704000161SWT SPECKLED-EGGS 50G  0000001000+00001139+00000+0001T   00001139+0000001057          1400 JY8150               3AZ
309012000309012               309012               170213EX     1400+00000+EX0000006184+0000006184+000000000+000000868+0000007050+0000000002+I20000000000+0000007050+Z
309012001309012079-014102     309012006003000101115SCISSORS SHAPES ASSTD  0000001000+00001753+00000+0001T   00001753+0000001110          1400 JY8130               3AZ
309012002309012124-002023     309012006003000367252BISCUIT TIN HEART SHAPE0000001000+00002630+00000+0001T   00003507+0008171110          1400 JY8300               3AZ
309012003309012077-000358     309012006003000329977GIFT-BAG KIDS 25X32CM  0000001000+00001753+00000+0001T   00001753+0000001110          1400 JY8112               3AZ
309012004309012112-116069     309012006009681820277TCS CARRIER BAG JUMBO  0000001000+00000048+00000+0001T   00000048+0000001110          1400 JY8090               3AZ
309013000309013               309013               170213EX     1400+00000+EX0000003542+0000003542+000000000+000000496+0000004030+0000000008+I20000000000+0000004030+Z
309013001309013018-000136     309013006001023659026MUG OCC LOVE W/PLUSH   0000001000+00003507+00000+0001T   00003507+0000001122          1400 JY8515               3AZ
309013002309013112-116038     309013006003000534906TCS CARRIER BAG MIDI   0000001000+00000035+00000+0001T   00000035+0000001122          1400 JY8090               3AZ
309014000309014               309014               170213EX     1400+00000+EX0000001753+0000001753+000000000+000000246+0000001990+0000000009+I20000000000+0000001990+Z
309014001309014200-003024     309014006001023657299REFUSE BAGS 20PCE BLACK0000001000+00001753+00000+0001T   00001753+0000001123          1400 JY8214               3AZ
309015000309015               309015               170213EX     1400+00000+EX0000016356+0000016356+000000000+000002292+0000018648+0000000000+I40000018648+0000000000+Z
309015001309015112-116069     309015006009681820277TCS CARRIER BAG JUMBO  0000001000+00000048+00000+0001T   00000048+0000001133          1400 JY8090               3AZ
309015002309015466-000584     309015006001023628787SKIPPING-ROPE          0000001000+00002630+00000+0001T   00002630+0000001133          1400 JY8785               3AZ
309015003309015903-000194     309015006009826020616SWT CHOC RP LOLLY 25G  0000001000+00001314+00000+0001T   00001314+0000001133          1400 JY8150               3AZ
309015004309015159-000684     309015006001023776532BATH BODY-GLOVE 18cm   0000001000+00002630+00000+0001T   00002630+0000001133          1400 JY8200               3AZ
309015005309015036-000405     309015006001023630247CLOTHES DRYER PL 18-PEG0000002000+00004385+00000+0001T   00004385+0000001133          1400 JY8212               3AZ
309015006309015903-000843     309015008693029031067SWT GUMMY JELAXY 80G   0000001000+00000964+00000+0001T   00000964+0000001133          1400 JY8150               3AZ
309016000309016               309016               170213EX     1400+00000+EX0000019291+0000019291+000000000+000002706+0000021990+0000000007+I20000000000+0000021990+Z
309016001309016079-006500     309016006001023557186GLUE GLITTER 6/10 PCE  0000001000+00001753+00000+0001T   00001753+0000001140          1400 JY8130               3AZ
309016002309016368-000001     309016006003000097982Plush Bear 25cm        0000001000+00004385+00000+0001T   00004385+0000001140          1400 JY8745               3AZ
309016003309016031-080508     309016006001023802415P/FRAME PL 22X11CM LOVE0000001000+00004385+00000+0001T   00004385+0000001140          1400 JY8510               3AZ
309016004309016077-000270     309016006003000395453GIFT-BAG PPR JMB 33X45 0000001000+00002630+00000+0001T   00002630+0000001140          1400 JY8112               3AZ
309016005309016304-001204     309016006001023737984FLOWER OCC. TEDDY/ROSES0000003000+00001402+00000+0001T   00001490+0006471140          1400 JY8510               3AZ
309016006309016079-009700-D   309016006003000545711PAPER SIRIO A4 RED COL.0000002000+00000306+00000+0001T   00000306+0000001140          1400 JY8130               3AZ
309016007309016079-009700-J   309016006003000546190PAPER SIRIO A4 BLUE    0000001000+00000306+00000+0001T   00000306+0000001140          1400 JY8130               3AZ
309016008309016079-009700-I   309016006003000546114PAPER SIRIO A4 LILAC   0000001000+00000306+00000+0001T   00000306+0000001140          1400 JY8130               3AZ
309016009309016079-009700-L   309016006003000546350PAPER SIRIO A4 YELLOW  0000001000+00000306+00000+0001T   00000306+0000001140          1400 JY8130               3AZ
309016010309016079-009700-M   309016006003000634101PAPER SIRIO A4 PINK COL0000001000+00000306+00000+0001T   00000306+0000001140          1400 JY8130               3AZ
309016011309016112-116069     309016006009681820277TCS CARRIER BAG JUMBO  0000002000+00000048+00000+0001T   00000048+0000001140          1400 JY8090               3AZ
309017000309017               309017               170213EX     1400+00000+EX0000017590+0000017590+000000000+000002463+0000020053+0000000000+I40000020053+0000000000+Z
309017001309017464-000667     309017006003000394791GAME BOWLING           0000001000+00017542+00000+0001T   00017542+0000001142          1400 JY8785               3AZ
309017002309017112-116069     309017006009681820277TCS CARRIER BAG JUMBO  0000001000+00000048+00000+0001T   00000048+0000001142          1400 JY8090               3AZ
309018000309018               309018               170213EX     1400+00000+EX0000032761+0000032761+000000000+000004589+0000037350+0000000000+I20000000000+0000037350+Z
309018001309018565-000071     309018006003000643387NOVELTY WIND UP CHATTER0000001000+00001139+00000+0001T   00001139+0000001148          1400 JY8745               3AZ
309018002309018261-003905     309018006003000301492GUN PL PLAYSET 19PCE   0000001000+00008771+00000+0001T   00008771+0000001148          1400 JY8710               3AZ
309018003309018266-001101     309018006003000600472BOYS FIG P/SET W/ACCESS0000001000+00004385+00000+0001T   00004385+0000001148          1400 JY8710               3AZ
309018004309018004-071209     309018006003000604678MOBILE IN CAR HOLDER   0000001000+00007893+00000+0001T   00007893+0000001148          1400 JY8310               3AZ
309018005309018112-116069     309018006009681820277TCS CARRIER BAG JUMBO  0000001000+00000048+00000+0001T   00000048+0000001148          1400 JY8090               3AZ
309018006309018261-000034     309018006003000550135GUN PL B/O MACHINE GUN 0000001000+00010525+00000+0001T   00010525+0000001148          1400 JY8710               3AZ
309019000309019               309019               170213EX     1400+00000+EX0000001578+0000001578+000000000+000000221+0000001790+0000000009+I20000000000+0000001790+Z
309019001309019078-013424     309019006008741000338CONTACT-ADHESIVE 50ml  0000001000+00001578+00000+0001T   00001578+0000001154          1400 JY8810               3AZ
309020000309020               309020               170213EX     1400+00000+EX0000016270+0000016270+000000000+000002280+0000018550+0000000000+I40000018550+0000000000+Z
309020001309020018-000136     309020006001023659026MUG OCC LOVE W/PLUSH   0000001000+00003507+00000+0001T   00003507+0000001222          1400 JY8515               3AZ
309020002309020368-000111     309020006001023780812PLUSH BEAR/DOG 29CM    0000001000+00012279+00000+0001T   00012279+0000001222          1400 JY8745               3AZ
309020003309020006-000173-B   309020006003000636358BALLOONS HELIUM 1PC WHT0000002000+00000218+00000+0001T   00000218+0000001222          1400 JY8131               3AZ
309020004309020112-116069     309020006009681820277TCS CARRIER BAG JUMBO  0000001000+00000048+00000+0001T   00000048+0000001222          1400 JY8090               3AZ
309021000309021               309021               170213EX     1400+00000+EX0000006359+0000006359+000000000+000000892+0000007250+0000000001+I20000000000+0000007250+Z
309021001309021077-000299     309021006003000395576G/BAG 32x25cm LRG LOVE 0000001000+00001490+00000+0001T   00001490+0000001223          1400 JY8112               3AZ
309021002309021077-000239     309021006003000160419GIFT-RIBBON ROLL PEARL 0000001000+00001753+00000+0001T   00001753+0000001223          1400 JY8112               3AZ
309021003309021016-006517     309021006003000351626S/JAR GLS CHECK 650ML  0000001000+00002192+00000+0001T   00002192+0000001223          1400 JY8300               3AZ
309021004309021077-000151     309021006008766114676GIFT-WRAP C/PHANE ASSTD0000001000+00000876+00000+0001T   00000876+0000001223          1400 JY8112               3AZ
309021005309021112-116069     309021006009681820277TCS CARRIER BAG JUMBO  0000001000+00000048+00000+0001T   00000048+0000001223          1400 JY8090               3AZ
309022000309022               309022               170213EX     1400+00000+EX0000000872+0000000872+000000000+000000124+0000000990+0000000006+I20000000000+0000000990+Z
309022001309022006-000170-F   309022006003000608669BALLOONS 1PC WHITE     0000004000+00000218+00000+0001T   00000218+0000001230          1400 JY8131               3AZ
309023000309023               309023               170213EX     1400+00000+EX0000017542+0000017542+000000000+000002456+0000019990+0000000008+I20000000000+0000019990+Z
309023001309023016-006545     309023006003000579877S/JAR GLS COUNTER 2SIDE0000002000+00008771+00000+0001T   00008771+0000001240          1400 JY8300               3AZ
309024000309024               309024               170213EX     1400+00000+EX0000014032+0000014032+000000000+000001966+0000015998+0000000000+I40000015998+0000000000+Z
309024001309024368-000637     309024006001023874092PLUSH BEAR SLEEPING LOV0000001000+00011402+00000+0001T   00012279+0006471250          1400 JY8745               3AZ
309024002309024077-000270     309024006003000395453GIFT-BAG PPR JMB 33X45 0000001000+00002630+00000+0001T   00002630+0000001250          1400 JY8112               3AZ
309025000309025               309025               170213EX     1400+00000+EX0000006173+0000006173+000000000+000000865+0000007038+0000000000+I40000007038+0000000000+Z
309025001309025001-000175     309025006001023788108B/MUG GLS LOVE 380ML   0000001000+00004385+00000+0001T   00004385+0000001401          1400 JY8515               3AZ
309025002309025306-001130-A   309025006003000359271FIRSTAID SUPPORT ANKLE 0000001000+00001753+00000+0001T   00001753+0000001401          1400 JY8200               3AZ
309025003309025112-116038     309025006009681820246TCS CARRIER BAG MIDI   0000001000+00000035+00000+0001T   00000035+0000001401          1400 JY8090               3AZ
309026000309026               309026               170213EX     1400+00000+EX0000001752+0000001752+000000000+000000246+0000001990+0000000008+I20000000000+0000001990+Z
309026001309026077-000151     309026006008766114676GIFT-WRAP C/PHANE ASSTD0000002000+00000876+00000+0001T   00000876+0000001430          1400 JY8112               3AZ
309027000309027               309027               170213EX     1400+00000+EX0000005921+0000005921+000000000+000000831+0000006752+0000000000+I40000006752+0000000000+Z
309027001309027078-000480     309027006008741002332BOSTIK SHOE-REPAIR 25ml0000001000+00001753+00000+0001T   00001753+0000001454          1400 JY8810               3AZ
309027002309027084-070000     309027006001023629982TWEEZER CHROME H/GLOW  0000001000+00001490+00000+0001T   00001490+0000001454          1400 JY8200               3AZ
309027003309027073-000157     309027006003000571734COSMETIC QUILTED BAG   0000001000+00002630+00000+0001T   00002630+0000001454          1400 JY8200               3AZ
309027004309027112-116069     309027006009681820277TCS CARRIER BAG JUMBO  0000001000+00000048+00000+0001T   00000048+0000001454          1400 JY8090               3AZ
309028000309028               309028               170213EX     1400+00000+EX0000008148+0000008148+000000000+000001147+0000009290+0000000005+I20000000000+0000009290+Z
309028001309028006-000173-B   309028006003000636358BALLOONS HELIUM 1PC WHT0000005000+00000218+00000+0001T   00000218+0000001456          1400 JY8131               3AZ
309028002309028304-001204     309028006001023737984FLOWER OCC. TEDDY/ROSES0000005000+00001402+00000+0001T   00001490+0006471456          1400 JY8510               3AZ
309028003309028112-116069     309028006009681820277TCS CARRIER BAG JUMBO  0000001000+00000048+00000+0001T   00000048+0000001456          1400 JY8090               3AZ
309029000309029               309029               170213EX     1400+00000+EX0000002630+0000002630+000000000+000000369+0000002990+0000000009+I20000000000+0000002990+Z
309029001309029039-081008     309029006008766081008CANDLES 9PCE SCENTED   0000001000+00002630+00000+0001T   00002630+0000001507          1400 JY8510               3AZ
309030000309030               309030               170213EX     1400+00000+EX0000000877-0000000877-000000000+000000123-0000001000-0000000000+I20000000000+0000001000-Z
309030001309030039-081008     309030006008766081008CANDLES 9PCE SCENTED   0000001000-00002630+00000+0001T   00002630+0000001510          1400 JY85102IC            3 Z
309030002309030039-000114     309030006001023524058CANDLE T/LITE RED 3.5CM0000001000+00001753+00000+0001T   00001753+0000001510          1400 JY8510               3 Z
309031000309031               309031               170213EX     1400+00000+EX0000001402+0000001402+000000000+000000197+0000001590+0000000009+I20000000000+0000001590+Z
309031001309031304-001204     309031006001023737984FLOWER OCC. TEDDY/ROSES0000001000+00001402+00000+0001T   00001490+0006471511          1400 JY8510               3AZ
309032000309032               309032               170213EX     1400+00000+EX0000002278+0000002278+000000000+000000319+0000002590+0000000007+I20000000000+0000002590+Z
309032001309032903-000120     309032006002099001665SWEET GS ZILLIONS 50g  0000001000+00000700+00000+0001T   00000700+0000001529          1400 JY8150               3AZ
309032002309032077-000386     309032006003000275489G/BAG POP UP 18x23CM   0000001000+00001578+00000+0001T   00001578+0000001529          1400 JY8112               3AZ
309033000309033               309033               170213EX     1400+00000+EX0000000700+0000000700+000000000+000000098+0000000790+0000000008+I20000000000+0000000790+Z
309033001309033903-000126     309033006002099003591SWT ZILLIONS MINT 50G  0000001000+00000700+00000+0001T   00000700+0000001530          1400 JY8150               3AZ
309034000309034               309034               170213EX     1400+00000+EX0000001578+0000001578+000000000+000000221+0000001799+0000000000+I40000001799+0000000000+Z
309034001309034077-000303     309034006001023593757GIFT-BAG PAPER MED     0000001000+00001578+00000+0001T   00001578+0000001531          1400 JY8112               3AZ
309035000309035               309035               170213EX     1400+00000+EX0000000700+0000000700+000000000+000000098+0000000790+0000000008+I20000000000+0000000790+Z
309035001309035018-000177     309035006001023797513MUG MINI LOVE ASSTD    0000001000+00000700+00000+0001T   00000700+0000001548          1400 JY8515               3AZ
309036000309036               309036               170213EX     1400+00000+EX0000005085+0000005085+000000000+000000712+0000005790+0000000007+I20000000000+0000005790+Z
309036001309036031-086102     309036006001023900722P/FRAME PL WORD-TOP 4AS0000001000+00003507+00000+0001T   00003507+0000001601          1400 JY8510               3AZ
309036002309036077-000303     309036006001023593757GIFT-BAG PAPER MED     0000001000+00001578+00000+0001T   00001578+0000001601          1400 JY8112               3AZ
309037000309037               309037               170213EX     1400+00000+EX0000003507+0000003507+000000000+000000491+0000003998+0000000000+I40000003998+0000000000+Z
309037001309037018-005009     309037006001023725608MUG W/PLUSH-BEAR LOVE  0000001000+00003507+00000+0001T   00003507+0000001614          1400 JY8515               3AZ
309038000309038               309038               170213EX     1400+00000+EX0000001578+0000001578+000000000+000000221+0000001790+0000000009+I20000000000+0000001790+Z
309038001309038080-000124     309038006003000297733CARD & ENV VALENTINES  0000001000+00001578+00000+0001T   00001578+0000001615          1400 JY8112               3AZ
309039000309039               309039               170213EX     1400+00000+EX0000018768+0000018768+000000000+000002632+0000021400+0000000000+I20000000000+0000021400+Z
309039001309039903-000183     309039006003000451043SWT LB HEART LOLLY     0000003000+00000393+00000+0001T   00000393+0000001703          1400 JY8150               3DZ
309039003309039030-001122     309039006003000253487PLAQUE-WALL W/SAYING   0000001000+00005262+00000+0001T   00007016+0008121703          1400 JY8505               3DZ
309039005309039112-116069     309039006009681820277TCS CARRIER BAG JUMBO  0000001000+00000048+00000+0001T   00000048+0000001703          1400 JY8090               3DZ
309039006309039368-000113     309039006001023780874PLUSH BLINGED LOVE 30cm0000001000+00012279+00000+0001T   00012279+0000001703          1400 JY8745               3DZ
309040000309040               309040               170213EX     1400+00000+EX0000006886+0000006886+000000000+000000965+0000007850+0000000001+I20000000000+0000007850+Z
309040001309040079-000195     309040006003000161485P/CRAYONS RETRCTBLEx10 0000001000+00003507+00000+0001T   00003507+0000001730          1400 JY8130               3AZ
309040002309040007-000046     309040006009635831366DISPLAY-BOOK PL A4 30PG0000001000+00002192+00000+0001T   00002192+0000001730          1400 JY8130               3AZ
309040003309040112-116069     309040006009681820277TCS CARRIER BAG JUMBO  0000001000+00000048+00000+0001T   00000048+0000001730          1400 JY8090               3AZ
309040004309040903-000087     309040006001704000161SWT SPECKLED-EGGS 50G  0000001000+00001139+00000+0001T   00001139+0000001730          1400 JY8150               3AZ
309041000309041               309041               170213EX     1400+00000+EX0000001753+0000001753+000000000+000000246+0000001999+0000000000+I40000001999+0000000000+Z
309041001309041077-000351     309041006003000139033GIFT-BAG 18X23CM E/D P 0000001000+00001753+00000+0001T   00001753+0000001808          1400 JY8112               3AZ
309042000309042               309042               170213EX     1400+00000+EX0000000786+0000000786+000000000+000000112+0000000890+0000000008+I20000000000+0000000890+Z
309042001309042903-000183     309042006003000451043SWT LB HEART LOLLY     0000002000+00000393+00000+0001T   00000393+0000001809          1400 JY8150               3DZ
309043000309043               309043               170213EX     1400+00000+EX0000004956+0000004956+000000000+000000696+0000005650+0000000002+I20000000000+0000005650+Z
309043001309043304-001204     309043006001023737984FLOWER OCC. TEDDY/ROSES0000001000+00001402+00000+0001T   00001490+0006471810          1400 JY8510               3AZ
309043002309043903-000211     309043006002099001238SWT GS MALLOW ICE CREAM0000002000+00001753+00000+0001T   00001753+0000001810          1400 JY8150               3AZ
309043003309043112-116069     309043006009681820277TCS CARRIER BAG JUMBO  0000001000+00000048+00000+0001T   00000048+0000001810          1400 JY8090               3AZ
309044000309044               309044               170213EX     1400+00000+EX0000004385+0000004385+000000000+000000614+0000004999+0000000000+I40000004999+0000000000+Z
309044001309044368-000049     309044006003000536955PLUSH BEAR 15cm LOVE   0000001000+00004385+00000+0001T   00004385+0000001824          1400 JY8745               3AZ
309045000309045               309045               170213EX     1400+00000+EX0000012712+0000012712+000000000+000001782+0000014494+0000000000+I40000014494+0000000000+Z
309045001309045080-000500     309045006001023846211CARD&ENV 6PK GLITTER   0000001000+00001753+00000+0001T   00001753+0000001825          1400 JY8112               3AZ
309045002309045486-000001     309045006001023507969ALARM-CLOCK SQ ASS     0000001000+00002630+00000+0001T   00002630+0000001825          1400 JY8510               3AZ
309045003309045002-003733     309045006001023849182STRAINER D/FRY 20CM    0000001000+00003069+00000+0001T   00003069+0000001825          1400 JY8300               3AZ
309045004309045089-000006     309045006003000094929KEY CHAIN HAND-BAG MTL 0000001000+00003507+00000+0001T   00003507+0000001825          1400 JY8205               3AZ
309045005309045089-000004     309045006003000137749KEY CHAIN MTL CHARMS   0000001000+00001753+00000+0001T   00001753+0000001825          1400 JY8205               3AZ
309046000309046               309046               170213EX     1400+00000+EX0000000048+0000000048+000000000+000000007+0000000050+0000000005+I20000000000+0000000050+Z
309046001309046112-116069     309046006009681820277TCS CARRIER BAG JUMBO  0000001000+00000048+00000+0001T   00000048+0000001826          1400 JY8090               3AZ
309047000309047               309047               170213EX     1400+00000+EX0000006624+0000006624+000000000+000000928+0000007550+0000000002+I20000000000+0000007550+Z
309047001309047018-000136     309047006001023659026MUG OCC LOVE W/PLUSH   0000001000+00003507+00000+0001T   00003507+0000001852          1400 JY8515               3AZ
309047002309047089-000005     309047006003000094806KEY CHAIN CARDS MTL    0000001000+00003069+00000+0001T   00003069+0000001852          1400 JY8205               3AZ
309047003309047112-116069     309047006009681820277TCS CARRIER BAG JUMBO  0000001000+00000048+00000+0001T   00000048+0000001852          1400 JY8090               3AZ
309048000309048               309048               170213EX     1400+00000+EX0000000393+0000000393+000000000+000000056+0000000449+0000000000+I40000000449+0000000000+Z
309048001309048903-000183     309048006003000451043SWT LB HEART LOLLY     0000001000+00000393+00000+0001T   00000393+0000001900          1400 JY8150               3AZ
A17021300                                          13544821EXSLAVE 3                       JY82IC
C30903900                                          170213EX006-000852     16535092SLAVE 3     JY82IC0000000000+0000000000+0020000001000+
C30903901                                          170213EX071-003043     17032702SLAVE 3     JY82IC0000000000+0000000000+0040000001000+
M17021301                              IT          EXATT IT                                                                                          THE LAST TILL SLIP NUMBER FOR SLAVE 3=309048                                                    EX HEMINGWAYS                                                                                   THANK YOU
M17021391                              CASH        EXSLAVE 3                       Z-REPORT No.   387TOTAL (Sales - Refunds)           3244.27       CASH TO BE BANKED                 1815.60       DEBIT CARDS                          0.00       CREDIT CARDS                      1428.67       Z-READING                         3244.27       AIRTIME DEBIT CARD SALES             0.00       AIRTIME CARD SALES                   0.00       OVERS/UNDERS                         0.00       AIRTIME CASH SALES                   0.00       GIFT CARDS                           0.00       GIFT CARD CASH SALES                 0.00       T O T A L  CASH PAYOUTS              0.00                                                                                                                                                                                                                                                                                                                                                      Z
M17021392                              CASH        EXABSENT                                                                                                                                                                                          ANNUAL LEAVE                                                                                                                                                                                    DAY OFF                                                                                                                                                                                         COMMENTS                                                                                                          EX                                                                                                                                                                                                                                                                           Z
Y17021300                                          EX00000000287309+000042
ZEX17021319363 SLAVE 3      SALES DATA                     NEXT INVOICE NO.  309049 0387
X EX Slave 3 First invoice 309007 170213 Last invoice 309048 170213 Next invoice 309049 Total number of records 000000157 clbackup completed 19:36:07
