107856000107856               107856               170213EY     1400+00000+EY0000009322+0000009322+000000000+000001309+0000010631+0000000000+I40000010631+0000000000+Z
107856001107856112-116038     107856006009681820246TCS CARRIER BAG MIDI   0000001000+00000035+00000+0001T   00000035+0000001014          1400 LM5090               1AZ
107856002107856563-000318-L   107856006003000407088SERVIETTES 33cm RED    0000001000+00002192+00000+0001T   00002192+0000001014          1400 LM5214               1AZ
107856003107856563-000317-B   107856006001023776174SERVIETTES PLN WHT PK400000001000+00001314+00000+0001T   00001314+0000001014          1400 LM5214               1AZ
107856004107856040-000209     107856006003000673872C/HOLDER GLS CLEAR 6.5 0000003000+00000876+00000+0001T   00000876+0000001014          1400 LM5510               1AZ
107856005107856039-000025     107856006003000286423CANDLE LONG 25CM DARK  0000002000+00001051+00000+0001T   00001051+0000001014          1400 LM5510               1AZ
107856006107856079-009702-D   107856008427973059354PAPER SIRIO A2 RED COL 0000001000+00001051+00000+0001T   00001051+0000001014          1400 LM5130               1AZ
107857000107857               107857               170213EY     1400+00000+EY0000005998+0000005998+000000000+000000840+0000006838+0000000000+I40000006838+0000000000+Z
107857001107857112-116038     107857006009681820246TCS CARRIER BAG MIDI   0000001000+00000035+00000+0001T   00000035+0000001031          1400 LM5090               1AZ
107857002107857024-000036     107857006001023477002MEASURING-JUG 500ml    0000001000+00001578+00000+0001T   00001578+0000001031          1400 LM5300               1AZ
107857003107857003-009201     107857006003000407798O/WELCOME STONE RND ASS0000001000+00004385+00000+0001T   00004385+0000001031          1400 LM5505               1AZ
107858000107858               107858               170213EY     1400+00000+EY0000002366+0000002366+000000000+000000332+0000002698+0000000000+I40000002698+0000000000+Z
107858001107858006-000804     107858006003000574445STREAMERS 6-ROLLS 2.5cm0000001000+00001753+00000+0001T   00001753+0000001048          1400 LM5131               1AZ
107858002107858200-000065     107858006001023323675DRINKING-STRAWS 38PCE  0000001000+00000613+00000+0001T   00000613+0000001048          1400 LM5214               1AZ
107859000107859               107859               170213EY     1400+00000+EY0000024579+0000024579+000000000+000003447+0000028020+0000000006+I20000000000+0000028020+Z
107859001107859112-116038     107859006009681820246TCS CARRIER BAG MIDI   0000001000+00000035+00000+0001T   00000035+0000001053          1400 LM5090               1AZ
107859002107859031-005923     107859006003000040322P/FRAME CERT PL 21x29.70000002000+00003507+00000+0001T   00003507+0000001053          1400 LM5510               1AZ
107859003107859304-001512     107859006003000036202FLOWER S/FLOWER 65CM   0000010000+00001753+00000+0001T   00001753+0000001053          1400 LM5510               1AZ
107860000107860               107860               170213EY     1400+00000+EY0000001753+0000001753+000000000+000000246+0000001990+0000000009+I20000000000+0000001990+Z
107860001107860007-010496     107860006003000640652MARKER WHITEBOARD 4PCE 0000001000+00001753+00000+0001T   00001753+0000001057          1400 LM5130               1AZ
107861000107861               107861               170213EY     1400+00000+EY0000004120+0000004120+000000000+000000578+0000004690+0000000008+I20000000000+0000004690+Z
107861001107861071-030013     107861006003000283965PEN NVLTY NEON GEL 6PC 0000001000+00002630+00000+0001T   00002630+0000001103          1400 LM5130               1AZ
107861002107861033-005903-B   107861006001023678164B/LACES FLAT 120cm ASST0000001000+00001490+00000+0001T   00001490+0000001103          1400 LM5200               1AZ
107862000107862               107862               170213EY     1400+00000+EY0000003507+0000003507+000000000+000000491+0000003990+0000000008+I20000000000+0000003990+Z
107862001107862031-005923     107862006003000040322P/FRAME CERT PL 21x29.70000001000+00003507+00000+0001T   00003507+0000001107          1400 LM5510               1AZ
107863000107863               107863               170213EY     1400+00000+EY0000017530-0000017530-000000000+000002460-0000019990-0000000000+I20000000000+0000019990-Z
107863001107863304-001512     107863006003000036202FLOWER S/FLOWER 65CM   0000010000-00001753+00000+0001T   00001753+0000001126          1400 LM55101IC            1 Z
107864000107864               107864               170213EY     1400+00000+EY0000007925+0000007925+000000000+000001111+0000009036+0000000000+I40000009036+0000000000+Z
107864001107864206-000450     107864006003000619863DRINKING JAR GLOBE     0000001000+00002630+00000+0001T   00002630+0000001200          1400 LM5321               1AZ
107864002107864018-000136     107864006001023659026MUG OCC LOVE W/PLUSH   0000001000+00003507+00000+0001T   00003507+0000001200          1400 LM5515               1AZ
107864003107864903-000610     107864006003000610518SWEET JUMBO BUBBLE GUM 0000001000+00001753+00000+0001T   00001753+0000001200          1400 LM5150               1AZ
107864004107864112-116038     107864006009681820246TCS CARRIER BAG MIDI   0000001000+00000035+00000+0001T   00000035+0000001200          1400 LM5090               1AZ
107865000107865               107865               170213EY     1400+00000+EY0000004385+0000004385+000000000+000000614+0000004990+0000000009+I20000000000+0000004990+Z
107865001107865464-008011     107865006003000137091GAME COMPENDIUM 5-IN-1 0000001000+00004385+00000+0001T   00004385+0000001201          1400 LM5785               1AZ
107866000107866               107866               170213EY     1400+00000+EY0000002804+0000002804+000000000+000000394+0000003190+0000000008+I20000000000+0000003190+Z
107866001107866007-000119     107866006002324004126BOOK COVER PL          0000001000+00001051+00000+0001T   00001051+0000001202          1400 LM5130               1AZ
107866002107866077-000904     107866006003000410682G/WRAP 700mmx1m PATTERN0000001000+00001753+00000+0001T   00001753+0000001202          1400 LM5112               1AZ
107867000107867               107867               170213EY     1400+00000+EY0000000700+0000000700+000000000+000000098+0000000790+0000000008+I20000000000+0000000790+Z
107867001107867564-000012     107867006001023130075BUBBLE BOTTLE MAGIC    0000001000+00000700+00000+0001T   00000700+0000001211          1400 LM5131               1AZ
107868000107868               107868               170213EY     1400+00000+EY0000001753+0000001753+000000000+000000246+0000001990+0000000009+I20000000000+0000001990+Z
107868001107868491-059642     107868000078257596423INTEX ARMBAND 6-12YRS  0000001000+00001753+00000+0001T   00001753+0000001212          1400 LM5787               1AZ
107869000107869               107869               170213EY     1400+00000+EY0000009693+0000009693+000000000+000001359+0000011052+0000000000+I40000011052+0000000000+Z
107869001107869112-116069     107869006009681820277TCS CARRIER BAG JUMBO  0000001000+00000048+00000+0001T   00000048+0000001223          1400 LM5090               1AZ
107869002107869466-000584     107869006001023628787SKIPPING-ROPE          0000001000+00002630+00000+0001T   00002630+0000001223          1400 LM5785               1AZ
107869003107869036-000063     107869006009654960436COATHANGERS VIRGIN 5PCE0000001000+00001753+00000+0001T   00001753+0000001223          1400 LM5212               1AZ
107869004107869174-000153     107869006003000060795STORAGE ORGANISER 3-DRW0000001000+00005262+00000+0001T   00005262+0000001223          1400 LM5205               1AZ
107870000107870               107870               170213EY     1400+00000+EY0000001753+0000001753+000000000+000000246+0000001990+0000000009+I20000000000+0000001990+Z
107870001107870016-006515     107870006003000295555S/JAR GLS EMBOSS. 250ML0000001000+00001753+00000+0001T   00001753+0000001232          1400 LM5300               1AZ
107871000107871               107871               170213EY     1400+00000+EY0000002980+0000002980+000000000+000000418+0000003390+0000000008+I20000000000+0000003390+Z
107871001107871007-000326     107871006009699513833PAPER A4 80GSM 10'S BLK0000001000+00001402+00000+0001T   00001402+0000001241          1400 LM5130               1AZ
107871002107871077-000303     107871006001023593757GIFT-BAG PAPER MED     0000001000+00001578+00000+0001T   00001578+0000001241          1400 LM5112               1AZ
107872000107872               107872               170213EY     1400+00000+EY0000001490+0000001490+000000000+000000209+0000001690+0000000009+I20000000000+0000001690+Z
107872001107872071-081110     107872006936198405454CORRECTION FLUID PEN   0000001000+00001490+00000+0001T   00001490+0000001244          1400 LM5130               1AZ
107873000107873               107873               170213EY     1400+00000+EY0000002630+0000002630+000000000+000000369+0000002990+0000000009+I20000000000+0000002990+Z
107873001107873046-000011-A   107873006003000438891BATTERIES SIZE:AA  4PCE0000001000+00002630+00000+0001T   00002630+0000001256          1400 LM5312               1AZ
107874000107874               107874               170213EY     1400+00000+EY0000024166+0000024166+000000000+000003384+0000027550+0000000000+I40000027550+0000000000+Z
107874001107874039-082852     107874006008766082852C/SET 4PC MINI PILLARS 0000001000+00005262+00000+0001T   00005262+0000001354          1400 LM5510               1AZ
107874002107874079-001004     107874006003000590827PAINT PALLET CANVAS    0000001000+00013157+00000+0001T   00013157+0000001354          1400 LM5130               1AZ
107874003107874566-000997     107874006001023554086STICKERS TATTOOS BOOK  0000001000+00003507+00000+0001T   00003507+0000001354          1400 LM5130               1AZ
107874004107874566-000359     107874006003000582709STICKER BOOK LOVE SPARK0000001000+00002192+00000+0001T   00002192+0000001354          1400 LM5130               1AZ
107874005107874112-116069     107874006009681820277TCS CARRIER BAG JUMBO  0000001000+00000048+00000+0001T   00000048+0000001354          1400 LM5090               1AZ
107875000107875               107875               170213EY     1400+00000+EY0000009766+0000009766+000000000+000001371+0000011130+0000000007+I20000000000+0000011130+Z
107875002107875007-000044     107875006009635831489DISPLAY-BOOK A4 10-PAGE0000003000+00001314+00000+0001T   00001314+0000001358          1400 LM5130               1AZ
107875003107875159-000150-B   107875006003000058440SOAP-BOX PL ASSORTED   0000007000+00000832+00000+0001T   00000832+0000001358          1400 LM5200               1AZ
107876000107876               107876               170213EY     1400+00000+EY0000015834+0000015834+000000000+000002218+0000018050+0000000002+I20000000000+0000018050+Z
107876001107876174-000153     107876006003000060795STORAGE ORGANISER 3-DRW0000003000+00005262+00000+0001T   00005262+0000001400          1400 LM5205               1AZ
107876002107876112-116069     107876006009681820277TCS CARRIER BAG JUMBO  0000001000+00000048+00000+0001T   00000048+0000001400          1400 LM5090               1AZ
107877000107877               107877               170213EY     1400+00000+EY0000017667+0000017667+000000000+000002479+0000020146+0000000000+I40000020146+0000000000+Z
107877001107877112-116069     107877006009681820277TCS CARRIER BAG JUMBO  0000001000+00000048+00000+0001T   00000048+0000001403          1400 LM5090               1AZ
107877002107877077-000299     107877006003000395576G/BAG 32x25cm LRG LOVE 0000001000+00001490+00000+0001T   00001490+0000001403          1400 LM5112               1AZ
107877003107877206-000370     107877006003000631315STRAW P/DRINKING GLASS 0000001000+00001753+00000+0001T   00001753+0000001403          1400 LM5321               1AZ
107877004107877206-000350     107877006003000633265EGG MOULD SUNRISE      0000002000+00002630+00000+0001T   00002630+0000001403          1400 LM5321               1AZ
107877005107877368-000049     107877006003000536955PLUSH BEAR 15cm LOVE   0000001000+00004385+00000+0001T   00004385+0000001403          1400 LM5745               1AZ
107877006107877046-000012-A   107877006003000208296BATTERIES H/POWER SZ:AA0000001000+00002192+00000+0001T   00002192+0000001403          1400 LM5312               1AZ
107877007107877565-000043     107877006003000109562NOVELTY BALL FUNNY FACE0000001000+00001753+00000+0001T   00001753+0000001403          1400 LM5745               1AZ
107877008107877903-000183     107877006003000451043SWT LB HEART LOLLY     0000002000+00000393+00000+0001T   00000393+0000001403          1400 LM5150               1AZ
107878000107878               107878               170213EY     1400+00000+EY0000009803+0000009803+000000000+000001377+0000011180+0000000000+I20000000000+0000011180+Z
107878001107878112-116038     107878006009681820246TCS CARRIER BAG MIDI   0000001000+00000035+00000+0001T   00000035+0000001515          1400 LM5090               1AZ
107878002107878018-000127     107878006001023380289MUG OCC STRAIGHT LOVE  0000003000+00001578+00000+0001T   00001753+0006471515          1400 LM5515               1AZ
107878003107878903-000183     107878006003000451043SWT LB HEART LOLLY     0000003000+00000393+00000+0001T   00000393+0000001515          1400 LM5150               1AZ
107878004107878903-000123     107878006925925909280SWEET GS MINI MALLOWS  0000001000+00000876+00000+0001T   00000876+0000001515          1400 LM5150               1AZ
107878005107878903-004951     107878006002580020328SWT MALLOW MINI M/SHAKE0000001000+00001227+00000+0001T   00001227+0000001515          1400 LM5150               1AZ
107878006107878077-000408     107878006003000145218G/BAG PP 15X21X7CM     0000002000+00000876+00000+0001T   00000876+0000001515          1400 LM5112               1AZ
107879000107879               107879               170213EY     1400+00000+EY0000000876+0000000876+000000000+000000123+0000000990+0000000009+I20000000000+0000000990+Z
107879001107879077-000408     107879006003000145218G/BAG PP 15X21X7CM     0000001000+00000876+00000+0001T   00000876+0000001516          1400 LM5112               1AZ
107880000107880               107880               170213EY     1400+00000+EY0000040777+0000040777+000000000+000005714+0000046491+0000000000+I40000046491+0000000000+Z
107880001107880105-009015     107880006002923000009STORAGE BOX 32L FROSTED0000001000+00011402+00000+0001T   00011402+0000001525          1400 LM5210               1AZ
107880002107880080-000134     107880006003000590988CARD & ENV GIANT BOY   0000001000+00002630+00000+0001T   00002630+0000001525          1400 LM5112               1AZ
107880003107880105-009010     107880006002923011518STORAGE BOX 16L GLIDER 0000001000+00007893+00000+0001T   00007893+0000001525          1400 LM5210               1AZ
107880004107880024-000140     107880006001023902429N/STICK S/FORM 25X6CM  0000001000+00013157+00000+0001T   00013157+0000001525          1400 LM5300               1AZ
107880005107880012-000001     107880006003000331048MICRO PLATE-COVER 26X6 0000001000+00001753+00000+0001T   00002192+0008191525          1400 LM5300               1AZ
107880006107880024-000100     107880006003000173310CAKE TESTER            0000001000+00001490+00000+0001T   00001490+0000001525          1400 LM5300               1AZ
107880007107880077-000323     107880006001023677563G/BAG 25X32CM E/DAY FLO0000001000+00001578+00000+0001T   00001578+0000001525          1400 LM5112               1AZ
107880008107880080-000133     107880006003000535613CARD&ENV MINI ASTD DSGN0000002000+00000437+00000+0001T   00000437+0000001525          1400 LM5112               1AZ
107881000107881               107881               170213EY     1400+00000+EY0000006139+0000006139+000000000+000000860+0000006990+0000000009+I20000000000+0000006990+Z
107881001107881035-000001     107881006002596010566UMBRELLA LADIES W/MINI 0000001000+00006139+00000+0001T   00006139+0000001526          1400 LM5205               1AZ
107882000107882               107882               170213EY     1400+00000+EY0000001752+0000001752+000000000+000000246+0000001990+0000000008+I20000000000+0000001990+Z
107882001107882071-003003     107882006003000144525PEN BALL PEN 3PCE BLACK0000002000+00000876+00000+0001T   00000876+0000001539          1400 LM5130               1AZ
107883000107883               107883               170213EY     1400+00000+EY0000001753+0000001753+000000000+000000246+0000001999+0000000000+I40000001999+0000000000+Z
107883001107883006-000120     107883006001023346889BALLOONS 10PC MIX COL  0000001000+00001753+00000+0001T   00001753+0000001545          1400 LM5131               1AZ
107884000107884               107884               170213EY     1400+00000+EY0000032815+0000032815+000000000+000004609+0000037424+0000000000+I40000037424+0000000000+Z
107884001107884077-000270     107884006003000395453GIFT-BAG PPR JMB 33X45 0000002000+00002630+00000+0001T   00002630+0000001553          1400 LM5112               1AZ
107884002107884368-000637     107884006001023874092PLUSH BEAR SLEEPING LOV0000002000+00011402+00000+0001T   00012279+0006471553          1400 LM5745               1AZ
107884003107884903-000183     107884006003000451043SWT LB HEART LOLLY     0000012000+00000393+00000+0001T   00000393+0000001553          1400 LM5150               1AZ
107884004107884112-116038     107884006009681820246TCS CARRIER BAG MIDI   0000001000+00000035+00000+0001T   00000035+0000001553          1400 LM5090               1AZ
107885000107885               107885               170213EY     1400+00000+EY0000005085+0000005085+000000000+000000712+0000005790+0000000007+I20000000000+0000005790+Z
107885001107885018-000136     107885006001023659026MUG OCC LOVE W/PLUSH   0000001000+00003507+00000+0001T   00003507+0000001555          1400 LM5515               1AZ
107885002107885077-000303     107885006001023593757GIFT-BAG PAPER MED     0000001000+00001578+00000+0001T   00001578+0000001555          1400 LM5112               1AZ
107886000107886               107886               170213EY     1400+00000+EY0000001788+0000001788+000000000+000000251+0000002030+0000000009+I20000000000+0000002030+Z
107886001107886039-001023     107886006003000466337CANDLE TEA-LITE METALIC0000001000+00001753+00000+0001T   00001753+0000001600          1400 LM5510               1AZ
107886002107886112-116038     107886006009681820246TCS CARRIER BAG MIDI   0000001000+00000035+00000+0001T   00000035+0000001600          1400 LM5090               1AZ
107887000107887               107887               170213EY     1400+00000+EY0000008769+0000008769+000000000+000001229+0000009990+0000000008+I20000000000+0000009990+Z
107887001107887077-000316     107887006001023609731GIFT-BAG 25X32CM MATT  0000001000+00001753+00000+0001T   00001753+0000001609          1400 LM5112               1AZ
107887002107887041-093000     107887006003000320882B/GIFT SET 4PC B/RANGE 0000001000+00007016+00000+0001T   00007016+0000001609          1400 LM5200               1AZ
107888000107888               107888               170213EY     1400+00000+EY0000003191+0000003191+000000000+000000447+0000003630+0000000008+I20000000000+0000003630+Z
107888001107888018-000127     107888006001023380289MUG OCC STRAIGHT LOVE  0000001000+00001578+00000+0001T   00001753+0006471614          1400 LM5515               1AZ
107888002107888077-000303     107888006001023593757GIFT-BAG PAPER MED     0000001000+00001578+00000+0001T   00001578+0000001614          1400 LM5112               1AZ
107888003107888112-116038     107888006009681820246TCS CARRIER BAG MIDI   0000001000+00000035+00000+0001T   00000035+0000001614          1400 LM5090               1AZ
107889000107889               107889               170213EY     1400+00000+EY0000006123+0000006123+000000000+000000866+0000006980+0000000009+I20000000000+0000006980+Z
107889001107889077-000245     107889006001023759214GIFT-RIBBON METALLICx2 0000001000+00001227+00000+0001T   00001227+0000001615          1400 LM5112               1AZ
107889002107889077-000150-D   107889006003000054343GIFT-WRAP CELLPHANE CLR0000002000+00000876+00000+0001T   00000876+0000001615          1400 LM5112               1AZ
107889003107889903-000183     107889006003000451043SWT LB HEART LOLLY     0000008000+00000393+00000+0001T   00000393+0000001615          1400 LM5150               1AZ
107890000107890               107890               170213EY     1400+00000+EY0000005733+0000005733+000000000+000000804+0000006530+0000000007+I20000000000+0000006530+Z
107890001107890031-000878-A   107890006001023798985P/FRAME 10x15cm PL-SLID0000001000+00000876+00000+0001T   00000876+0000001623          1400 LM5510               1AZ
107890002107890089-000095     107890006003000457281K/CHAIN SILV 4.3cm     0000001000+00003069+00000+0001T   00003946+0008121623          1400 LM5205               1AZ
107890003107890077-000382     107890006003000247820GIFT-BAG MED 18X23CM   0000001000+00001753+00000+0001T   00001753+0000001623          1400 LM5112               1AZ
107890004107890112-116038     107890006009681820246TCS CARRIER BAG MIDI   0000001000+00000035+00000+0001T   00000035+0000001623          1400 LM5090               1AZ
107891000107891               107891               170213EY     1400+00000+EY0000017272+0000017272+000000000+000002423+0000019695+0000000000+I40000019695+0000000000+Z
107891001107891112-116069     107891006009681820277TCS CARRIER BAG JUMBO  0000001000+00000048+00000+0001T   00000048+0000001626          1400 LM5090               1AZ
107891002107891080-000127     107891006003000424351VALENTINES DAY 36x24CM 0000001000+00002192+00000+0001T   00002192+0000001626          1400 LM5112               1AZ
107891003107891903-000219     107891006925925911450SWT ERKO MALLOW CHOC   0000001000+00001753+00000+0001T   00001753+0000001626          1400 LM5150               1AZ
107891004107891077-000303     107891006001023593757GIFT-BAG PAPER MED     0000001000+00001578+00000+0001T   00001578+0000001626          1400 LM5112               1AZ
107891005107891077-000452     107891006003000284986G/BAG METALLIC MED EMB 0000001000+00001490+00000+0001T   00001490+0000001626          1400 LM5112               1AZ
107891006107891089-060027     107891006003000245871KEY-CHAIN HEART 6X6cm  0000001000+00003069+00000+0001T   00003069+0000001626          1400 LM5205               1AZ
107891007107891001-000175     107891006001023788108B/MUG GLS LOVE 380ML   0000001000+00004385+00000+0001T   00004385+0000001626          1400 LM5515               1AZ
107891008107891018-000127     107891006001023380289MUG OCC STRAIGHT LOVE  0000001000+00001578+00000+0001T   00001753+0006471626          1400 LM5515               1AZ
107891009107891903-000183     107891006003000451043SWT LB HEART LOLLY     0000003000+00000393+00000+0001T   00000393+0000001626          1400 LM5150               1AZ
107892000107892               107892               170213EY     1400+00000+EY0000019295+0000019295+000000000+000002702+0000021997+0000000000+I40000021997+0000000000+Z
107892001107892046-000011-VP  107892006003000537839BATTERIES SIZE:AA 12PCE0000002000+00006578+00000+0001T   00006578+0000001631          1400 LM5312               1AZ
107892002107892046-000010-VP  107892006003000537792BATTERIES SIZE:AAA 12PC0000001000+00006139+00000+0001T   00006139+0000001631          1400 LM5312               1AZ
107893000107893               107893               170213EY     1400+00000+EY0000013191+0000013191+000000000+000001847+0000015038+0000000000+I40000015038+0000000000+Z
107893001107893046-000011-VP  107893006003000537839BATTERIES SIZE:AA 12PCE0000002000+00006578+00000+0001T   00006578+0000001633          1400 LM5312               1AZ
107893002107893112-116038     107893006009681820246TCS CARRIER BAG MIDI   0000001000+00000035+00000+0001T   00000035+0000001633          1400 LM5090               1AZ
107894000107894               107894               170213EY     1400+00000+EY0000006578+0000006578+000000000+000000921+0000007499+0000000000+I40000007499+0000000000+Z
107894001107894046-000011-VP  107894006003000537839BATTERIES SIZE:AA 12PCE0000001000+00006578+00000+0001T   00006578+0000001634          1400 LM5312               1AZ
107895000107895               107895               170213EY     1400+00000+EY0000009720+0000009720+000000000+000001364+0000011080+0000000004+I20000000000+0000011080+Z
107895001107895112-116038     107895006009681820246TCS CARRIER BAG MIDI   0000001000+00000035+00000+0001T   00000035+0000001636          1400 LM5090               1AZ
107895002107895089-060027     107895006003000245871KEY-CHAIN HEART 6X6cm  0000001000+00003069+00000+0001T   00003069+0000001636          1400 LM5205               1AZ
107895003107895080-000124     107895006003000297733CARD & ENV VALENTINES  0000001000+00001578+00000+0001T   00001578+0000001636          1400 LM5112               1AZ
107895004107895077-000303     107895006001023593757GIFT-BAG PAPER MED     0000001000+00001578+00000+0001T   00001578+0000001636          1400 LM5112               1AZ
107895005107895903-000183     107895006003000451043SWT LB HEART LOLLY     0000001000+00000393+00000+0001T   00000393+0000001636          1400 LM5150               1AZ
107895006107895018-000129     107895006001023403353MUG OCC. LOVE V-SHAPE  0000001000+00002630+00000+0001T   00002630+0000001636          1400 LM5515               1AZ
107895007107895903-000012     107895006002099007308SWT MALLOW S/BERRY     0000001000+00000437+00000+0001T   00000437+0000001636          1400 LM5150               1AZ
107896000107896               107896               170213EY     1400+00000+EY0000005120+0000005120+000000000+000000717+0000005830+0000000007+I20000000000+0000005830+Z
107896001107896031-000923     107896006001023669933P/FRAME BLK W/WORDS    0000001000+00003507+00000+0001T   00003507+0000001637          1400 LM5510               1AZ
107896002107896080-000124     107896006003000297733CARD & ENV VALENTINES  0000001000+00001578+00000+0001T   00001578+0000001637          1400 LM5112               1AZ
107896003107896112-116038     107896006009681820246TCS CARRIER BAG MIDI   0000001000+00000035+00000+0001T   00000035+0000001637          1400 LM5090               1AZ
107897000107897               107897               170213EY     1400+00000+EY0000003506+0000003506+000000000+000000491+0000003990+0000000007+I20000000000+0000003990+Z
107897001107897563-000317-B   107897006001023776174SERVIETTES PLN WHT PK400000001000+00001314+00000+0001T   00001314+0000001639          1400 LM5214               1AZ
107897002107897080-000139     107897006003000611690CARD & ENV MINI SET 6PC0000001000+00002192+00000+0001T   00002192+0000001639          1400 LM5112               1AZ
107898000107898               107898               170213EY     1400+00000+EY0000001179+0000001179+000000000+000000168+0000001340+0000000007+I20000000000+0000001340+Z
107898001107898903-000183     107898006003000451043SWT LB HEART LOLLY     0000003000+00000393+00000+0001T   00000393+0000001643          1400 LM5150               1AZ
107899000107899               107899               170213EY     1400+00000+EY0000003507+0000003507+000000000+000000491+0000003998+0000000000+I40000003998+0000000000+Z
107899001107899301-085004     107899006003000420469ORN LOVE PLAQUE 21X10CM0000001000+00003507+00000+0001T   00003946+0006471646          1400 LM5505               1AZ
107900000107900               107900               170213EY     1400+00000+EY0000003012+0000003012+000000000+000000423+0000003430+0000000005+I20000000000+0000003430+Z
107900001107900079-009700-B   107900006003000547661PAPER SIRIO A4 WHITE   0000004000+00000306+00000+0001T   00000306+0000001649          1400 LM5130               1AZ
107900002107900079-006500     107900006001023557186GLUE GLITTER 6/10 PCE  0000001000+00001753+00000+0001T   00001753+0000001649          1400 LM5130               1AZ
107900003107900112-116038     107900006009681820246TCS CARRIER BAG MIDI   0000001000+00000035+00000+0001T   00000035+0000001649          1400 LM5090               1AZ
107901000107901               107901               170213EY     1400+00000+EY0000001313+0000001313+000000000+000000184+0000001490+0000000007+I20000000000+0000001490+Z
107901001107901007-000537     107901000651728791017NOTE-PAD RND SMILE-FACE0000001000+00000700+00000+0001T   00000700+0000001650          1400 LM5130               1AZ
107901002107901007-000555     107901006001023848239MEMO-PAD MINI LOVE     0000001000+00000613+00000+0001T   00000613+0000001650          1400 LM5130               1AZ
107902000107902               107902               170213EY     1400+00000+EY0000002192+0000002192+000000000+000000307+0000002490+0000000009+I20000000000+0000002490+Z
107902001107902071-007064     107902006003000533794P/CASE S/LINE SPACE CAS0000001000+00002192+00000+0001T   00002192+0000001653          1400 LM5130               1AZ
107903000107903               107903               170213EY     1400+00000+EY0000005085-0000005085-000000000+000000712-0000005800-0000000003+I20000000000+0000005800-Z
107903001107903031-000923     107903006001023669933P/FRAME BLK W/WORDS    0000001000-00003507+00000+0001T   00003507+0000001654          1400 LM55101IC            1 Z
107903002107903080-000124     107903006003000297733CARD & ENV VALENTINES  0000001000-00001578+00000+0001T   00001578+0000001654          1400 LM51121IC            1 Z
107904000107904               107904               170213EY     1400+00000+EY0000010570+0000010570+000000000+000001481+0000012050+0000000001+I20000000000+0000012050+Z
107904001107904369-000042     107904006001023993854BABY BEAR RATTLE ASSTD 0000001000+00004385+00000+0001T   00004385+0000001658          1400 LM5745               1AZ
107904002107904563-000317-C   107904006001023776204SERVIETTES 20PK  FLOWER0000001000+00002630+00000+0001T   00002630+0000001658          1400 LM5214               1AZ
107904003107904072-020266     107904006003000400591PET PUPPY TRAINING PAD 0000001000+00003507+00000+0001T   00003507+0000001658          1400 LM5870               1AZ
107904004107904112-116069     107904006009681820277TCS CARRIER BAG JUMBO  0000001000+00000048+00000+0001T   00000048+0000001658          1400 LM5090               1AZ
107905000107905               107905               170213EY     1400+00000+EY0000008771+0000008771+000000000+000001228+0000009999+0000000000+I40000009999+0000000000+Z
107905001107905072-020242     107905006003000053728PET BED COTTON TEXTILE 0000001000+00008771+00000+0001T   00008771+0000001700          1400 LM5870               1AZ
107906000107906               107906               170213EY     1400+00000+EY0000017567+0000017567+000000000+000002463+0000020030+0000000000+I20000000000+0000020030+Z
107906001107906112-116038     107906006009681820246TCS CARRIER BAG MIDI   0000001000+00000035+00000+0001T   00000035+0000001704          1400 LM5090               1AZ
107906002107906089-060027     107906006003000245871KEY-CHAIN HEART 6X6cm  0000001000+00003069+00000+0001T   00003069+0000001704          1400 LM5205               1AZ
107906003107906206-000230     107906006003000631827MUFFIN TOP BAKING CUPS 0000001000+00001753+00000+0001T   00002630+0008171704          1400 LM5321               1AZ
107906004107906077-000314     107906006003000181148GIFT-BAG 11X14CM MATT  0000005000+00000876+00000+0001T   00000876+0000001704          1400 LM5112               1AZ
107906005107906079-006500     107906006001023557186GLUE GLITTER 6/10 PCE  0000001000+00001753+00000+0001T   00001753+0000001704          1400 LM5130               1AZ
107906006107906080-000139     107906006003000611690CARD & ENV MINI SET 6PC0000001000+00002192+00000+0001T   00002192+0000001704          1400 LM5112               1AZ
107906007107906006-000190     107906006003000685530BALLOONS LOVE 81x91cm  0000001000+00004385+00000+0001T   00004385+0000001704          1400 LM5131               1AZ
107907000107907               107907               170213EY     1400+00000+EY0000000876+0000000876+000000000+000000123+0000000990+0000000009+I20000000000+0000000990+Z
107907001107907076-000017     107907006001811010022TWINE COTTON 50g-BALL  0000001000+00000876+00000+0001T   00000876+0000001737          1400 LM5810               1AZ
107908000107908               107908               170213EY     1400+00000+EY0000000868-0000000868-000000000+000000122-0000000990-0000000000+I20000000000+0000000990-Z
107908001107908001-999902     107908000000000999902MAINTENANCE+REPAIR-EQP 0000001000-00000868+00000+0001T   00000000+0000001739          1400 LM59021IC            1 Z
C10787500                                          170213EY112-116069     13582325SLAVE 1     LM51IC0000000000+0000000000+0010000001000+
C10788600                                          170213EY039-001023     15594843SLAVE 1     LM51IC0000000000+0000000000+0030000001000+
C10790800                                          170213EY001-999904     17383666SLAVE 1     LM51IC0000000000+0000000000+0010000001000-
M17021301                              IT          EYATT IT                                          LAST TILL SLIP NO                               SLAVE 1 = 107908                                THANK YOU                                       EY
M17021391                              CASH        EYSLAVE 1                       Z-REPORT No.   589TOTAL (Sales - Refunds)           4340.11       CASH TO BE BANKED                 1809.30       DEBIT CARDS                          0.00       CREDIT CARDS                      2520.91       Z-READING                         4330.21       AIRTIME DEBIT CARD SALES             0.00       AIRTIME CARD SALES                   0.00       OVERS/UNDERS                         0.00       AIRTIME CASH SALES                   0.00       GIFT CARDS                           0.00       GIFT CARD CASH SALES                 0.00       MAINTENANCE+REPAIR-EQP               9.90       T O T A L  CASH PAYOUTS              9.90                                                                                                                                                                                                                                                                                                      Z
M17021392                              CASH        EYABSENT                                                                                                                                                                                          ANNUAL LEAVE                                                                                                                                                                                    DAY OFF                                                                                                                                                                                         COMMENTS          EY                                                                                                                                                                                                                                                                                                                                                                           Z
Y17021300                                          EY00000000403464+000050
ZEY17021319363 SLAVE 1      SALES DATA                     NEXT INVOICE NO.  107909 0589
X EY Slave 1 First invoice 107856 170213 Last invoice 107908 170213 Next invoice 107909 Total number of records 000000203 clbackup completed 19:36:18
