201897000201897               201897               170213EY     1400+00000+EY0000004997+0000004997+000000000+000000701+0000005698+0000000000+I40000005698+0000000000+Z
201897001201897046-000010-A   201897006003000438778BATTERIES SIZE:AAA 4PCE0000001000+00002367+00000+0001T   00002367+0000000850          1400 BT2312               2AZ
201897002201897492-055602     201897000078257556021SWIM-GOGGLES PLAY      0000001000+00002630+00000+0001T   00002630+0000000850          1400 BT2787               2AZ
201898000201898               201898               170213EY     1400+00000+EY0000006750+0000006750+000000000+000000947+0000007690+0000000007+I20000000000+0000007690+Z
201898001201898027-000023     201898006003000666881SCRUBBING BRUSH 20cm   0000001000+00002192+00000+0001T   00002192+0000000853          1400 BT2212               2AZ
201898002201898027-000194     201898006001246602472MOP COMPLETE           0000001000+00002279+00000+0001T   00002279+0000000853          1400 BT2212               2AZ
201898003201898027-001020     201898006001246602519BROOM FLOOR W/HANDLE   0000001000+00002279+00000+0001T   00002279+0000000853          1400 BT2212               2AZ
201899000201899               201899               170213EY     1400+00000+EY0000014909+0000014909+000000000+000002089+0000016990+0000000008+I20000000000+0000016990+Z
201899001201899368-000113     201899006001023780874PLUSH BLINGED LOVE 30cm0000001000+00012279+00000+0001T   00012279+0000000916          1400 BT2745               2AZ
201899002201899077-000270     201899006003000395453GIFT-BAG PPR JMB 33X45 0000001000+00002630+00000+0001T   00002630+0000000916          1400 BT2112               2AZ
201900000201900               201900               170213EY     1400+00000+EY0000010782+0000010782+000000000+000001512+0000012294+0000000000+I40000012294+0000000000+Z
201900001201900903-000123     201900006925925909280SWEET GS MINI MALLOWS  0000001000+00000876+00000+0001T   00000876+0000000922          1400 BT2150               2AZ
201900002201900903-000087     201900006001704000161SWT SPECKLED-EGGS 50G  0000001000+00001139+00000+0001T   00001139+0000000922          1400 BT2150               2AZ
201900003201900903-000521     201900006001704009652SWT GUMMY SOFT GUMS    0000001000+00000876+00000+0001T   00000876+0000000922          1400 BT2150               2AZ
201900004201900903-000911     201900006009802868454SWT ST GUM TAPE BARBIE 0000001000+00001753+00000+0001T   00001753+0000000922          1400 BT2150               2AZ
201900005201900903-000912     201900006009802868461SWT GUM TAPE HOT WHEELS0000001000+00001753+00000+0001T   00001753+0000000922          1400 BT2150               2AZ
201900006201900105-008005     201900006002580009484STORAGE CONTAINER 7.5L 0000001000+00004385+00000+0001T   00004385+0000000922          1400 BT2210               2AZ
201901000201901               201901               170213EY     1400+00000+EY0000001753+0000001753+000000000+000000246+0000001990+0000000009+I20000000000+0000001990+Z
201901001201901007-010496     201901006003000640652MARKER WHITEBOARD 4PCE 0000001000+00001753+00000+0001T   00001753+0000000923          1400 BT2130               2AZ
201902000201902               201902               170213EY     1400+00000+EY0000005733+0000005733+000000000+000000803+0000006536+0000000000+I40000006536+0000000000+Z
201902001201902077-000321     201902006001023677501GIFT-BAG 11X14CM E/D FL0000001000+00000613+00000+0001T   00000613+0000000944          1400 BT2112               2AZ
201902002201902018-000136     201902006001023659026MUG OCC LOVE W/PLUSH   0000001000+00003507+00000+0001T   00003507+0000000944          1400 BT2515               2AZ
201902003201902077-000303     201902006001023593757GIFT-BAG PAPER MED     0000001000+00001578+00000+0001T   00001578+0000000944          1400 BT2112               2AZ
201902004201902112-116038     201902006009681820246TCS CARRIER BAG MIDI   0000001000+00000035+00000+0001T   00000035+0000000944          1400 BT2090               2AZ
201903000201903               201903               170213EY     1400+00000+EY0000004385+0000004385+000000000+000000614+0000004990+0000000009+I20000000000+0000004990+Z
201903001201903030-000031-A   201903006003000457588PLAQUE W/WORDS ASSTD   0000001000+00004385+00000+0001T   00004823+0006470944          1400 BT2505               2AZ
201904000201904               201904               170213EY     1400+00000+EY0000001578+0000001578+000000000+000000221+0000001790+0000000009+I20000000000+0000001790+Z
201904001201904018-000127     201904006001023380289MUG OCC STRAIGHT LOVE  0000001000+00001578+00000+0001T   00001753+0006470945          1400 BT2515               2AZ
201905000201905               201905               170213EY     1400+00000+EY0000003507+0000003507+000000000+000000491+0000003990+0000000008+I20000000000+0000003990+Z
201905001201905018-000130     201905006001023867537MUG OCC LOVE MINI+HEART0000001000+00003507+00000+0001T   00003507+0000000946          1400 BT2515               2AZ
201906000201906               201906               170213EY     1400+00000+EY0000018277+0000018277+000000000+000002559+0000020830+0000000006+I20000000000+0000020830+Z
201906001201906077-000303     201906006001023593757GIFT-BAG PAPER MED     0000001000+00001578+00000+0001T   00001578+0000000951          1400 BT2112               2AZ
201906002201906018-000136     201906006001023659026MUG OCC LOVE W/PLUSH   0000001000+00003507+00000+0001T   00003507+0000000951          1400 BT2515               2AZ
201906003201906497-068615     201906000078257686155H/PUMP HIGH-O/PUT 48cm 0000001000+00013157+00000+0001T   00013157+0000000951          1400 BT2787               2AZ
201906004201906112-116038     201906006009681820246TCS CARRIER BAG MIDI   0000001000+00000035+00000+0001T   00000035+0000000951          1400 BT2090               2AZ
201907000201907               201907               170213EY     1400+00000+EY0000010555+0000010555+000000000+000001480+0000012030+0000000005+I20000000000+0000012030+Z
201907001201907016-006524     201907006003000579358S/JAR GLS 750ml ASSTD  0000001000+00005262+00000+0001T   00005262+0000000955          1400 BT2300               2AZ
201907002201907112-116038     201907006009681820246TCS CARRIER BAG MIDI   0000001000+00000035+00000+0001T   00000035+0000000955          1400 BT2090               2AZ
201907003201907077-000270     201907006003000395453GIFT-BAG PPR JMB 33X45 0000001000+00002630+00000+0001T   00002630+0000000955          1400 BT2112               2AZ
201907004201907903-000520     201907006001704009898SWT GUMMY MINI SOUR 60g0000003000+00000876+00000+0001T   00000876+0000000955          1400 BT2150               2AZ
201908000201908               201908               170213EY     1400+00000+EY0000006257+0000006257+000000000+000000878+0000007135+0000000000+I40000007135+0000000000+Z
201908001201908112-116038     201908006009681820246TCS CARRIER BAG MIDI   0000001000+00000035+00000+0001T   00000035+0000001003          1400 BT2090               2AZ
201908002201908083-000055     201908006003000003853LIGHTER ELCTRNC REFILBL0000002000+00000613+00000+0001T   00000613+0000001003          1400 BT2315               2AZ
201908003201908140-001004     201908006001023880932FLY-RIBBONS 4PCE PL    0000001000+00001490+00000+0001T   00001490+0000001003          1400 BT2830               2AZ
201908004201908133-000032     201908006003000277063KITCHEN SWAB 30X30CM   0000001000+00001753+00000+0001T   00001753+0000001003          1400 BT2212               2AZ
201908005201908142-000814     201908006001023183910GLOVES RUBBER  MEDIUM  0000001000+00001753+00000+0001T   00001753+0000001003          1400 BT2810               2AZ
201909000201909               201909               170213EY     1400+00000+EY0000017577+0000017577+000000000+000002461+0000020038+0000000000+I40000020038+0000000000+Z
201909001201909567-011305     201909009781928231240BOOK RELIGIOUS AFR     0000001000+00017542+00000+0001T   00017542+0000001005          1400 BT2757               2AZ
201909002201909112-116038     201909006009681820246TCS CARRIER BAG MIDI   0000001000+00000035+00000+0001T   00000035+0000001005          1400 BT2090               2AZ
201910000201910               201910               170213EY     1400+00000+EY0000001578+0000001578+000000000+000000221+0000001790+0000000009+I20000000000+0000001790+Z
201910001201910080-000124     201910006003000297733CARD & ENV VALENTINES  0000001000+00001578+00000+0001T   00001578+0000001013          1400 BT2112               2AZ
201911000201911               201911               170213EY     1400+00000+EY0000011436+0000011436+000000000+000001602+0000013030+0000000008+I20000000000+0000013030+Z
201911001201911024-000078     201911006001023849168SIEVE FLOUR 16cm PL-RIM0000001000+00004385+00000+0001T   00004385+0000001023          1400 BT2300               2AZ
201911002201911486-002315     201911006001023740526WALL-CLOCK ROUND 20CM  0000001000+00007016+00000+0001T   00007016+0000001023          1400 BT2510               2AZ
201911003201911112-116038     201911006009681820246TCS CARRIER BAG MIDI   0000001000+00000035+00000+0001T   00000035+0000001023          1400 BT2090               2AZ
201912000201912               201912               170213EY     1400+00000+EY0000013010+0000013010+000000000+000001825+0000014835+0000000000+I40000014835+0000000000+Z
201912001201912036-000615     201912006003000218769WASH-PEGS PL PCK-24    0000001000+00001753+00000+0001T   00001753+0000001026          1400 BT2212               2AZ
201912002201912301-085007     201912006003000673698ORN OCC. LOVE S/PLAQUE 0000001000+00007893+00000+0001T   00007893+0000001026          1400 BT2505               2AZ
201912003201912112-116038     201912006009681820246TCS CARRIER BAG MIDI   0000001000+00000035+00000+0001T   00000035+0000001026          1400 BT2090               2AZ
201912004201912903-000183     201912006003000451043SWT LB HEART LOLLY     0000001000+00000393+00000+0001T   00000393+0000001026          1400 BT2150               2AZ
201912005201912077-000475     201912006003000640775GIFT-BAG DESIGNER MED  0000001000+00002630+00000+0001T   00002630+0000001026          1400 BT2112               2AZ
201912006201912079-009700-D   201912006003000545711PAPER SIRIO A4 RED COL.0000001000+00000306+00000+0001T   00000306+0000001026          1400 BT2130               2AZ
201913000201913               201913               170213EY     1400+00000+EY0000001753+0000001753+000000000+000000246+0000001999+0000000000+I40000001999+0000000000+Z
201913001201913080-000116     201913006003000253555CARD&ENVELOPE-HANDMADE 0000001000+00001753+00000+0001T   00001753+0000001028          1400 BT2112               2AZ
201914000201914               201914               170213EY     1400+00000+EY0000002630+0000002630+000000000+000000369+0000002990+0000000009+I20000000000+0000002990+Z
201914001201914200-000040     201914006001023729620BAG SEALERS 5PC CLIPS  0000001000+00002630+00000+0001T   00002630+0000001031          1400 BT2214               2AZ
201915000201915               201915               170213EY     1400+00000+EY0000000876+0000000876+000000000+000000123+0000000990+0000000009+I20000000000+0000000990+Z
201915001201915071-001019     201915006001023474513MARKER BLACK NAME-PEN  0000001000+00000876+00000+0001T   00000876+0000001130          1400 BT2130               2AZ
201916000201916               201916               170213EY     1400+00000+EY0000013202+0000013202+000000000+000001850+0000015052+0000000000+I40000015052+0000000000+Z
201916001201916112-116069     201916006009681820277TCS CARRIER BAG JUMBO  0000001000+00000048+00000+0001T   00000048+0000001137          1400 BT2090               2AZ
201916002201916104-000186     201916006003000138463CUTLERY HOLDER PL 4-DIV0000001000+00002630+00000+0001T   00002630+0000001137          1400 BT2210               2AZ
201916003201916105-001076     201916006003000279166CONTAINER CLIP LOCK 2L 0000002000+00005262+00000+0001T   00005262+0000001137          1400 BT2210               2AZ
201917000201917               201917               170213EY     1400+00000+EY0000002016+0000002016+000000000+000000283+0000002290+0000000009+I20000000000+0000002290+Z
201917001201917264-015023     201917000090159150237MAISTO SLICKERS 2" CAR 0000001000+00002016+00000+0001T   00002016+0000001155          1400 BT2710               2AZ
201918000201918               201918               170213EY     1400+00000+EY0000001753+0000001753+000000000+000000246+0000001990+0000000009+I20000000000+0000001990+Z
201918001201918903-000912     201918006009802868461SWT GUM TAPE HOT WHEELS0000001000+00001753+00000+0001T   00001753+0000001155          1400 BT2150               2AZ
201919000201919               201919               170213EY     1400+00000+EY0000008819+0000008819+000000000+000001235+0000010050+0000000004+I20000000000+0000010050+Z
201919001201919112-116069     201919006009681820277TCS CARRIER BAG JUMBO  0000001000+00000048+00000+0001T   00000048+0000001204          1400 BT2090               2AZ
201919002201919368-000614     201919006001023705808PLUSH LOVE 30cm        0000001000+00008771+00000+0001T   00008771+0000001204          1400 BT2745               2AZ
201920000201920               201920               170213EY     1400+00000+EY0000001490+0000001490+000000000+000000209+0000001699+0000000000+I40000001699+0000000000+Z
201920001201920140-001004     201920006001023880932FLY-RIBBONS 4PCE PL    0000001000+00001490+00000+0001T   00001490+0000001305          1400 BT2830               2AZ
201921000201921               201921               170213EY     1400+00000+EY0000009292+0000009292+000000000+000001303+0000010590+0000000005+I20000000000+0000010590+Z
201921001201921108-003023     201921006003000665471TUMBLER W/STRAW 550ml  0000001000+00002630+00000+0001T   00002630+0000001311          1400 BT2210               2AZ
201921002201921089-060027     201921006003000245871KEY-CHAIN HEART 6X6cm  0000001000+00003069+00000+0001T   00003069+0000001311          1400 BT2205               2AZ
201921003201921903-000087     201921006001704000161SWT SPECKLED-EGGS 50G  0000001000+00001139+00000+0001T   00001139+0000001311          1400 BT2150               2AZ
201921004201921903-000481     201921006001704007481SWT MOO MILK-SHAKES 60G0000001000+00000876+00000+0001T   00000876+0000001311          1400 BT2150               2AZ
201921005201921077-000303     201921006001023593757GIFT-BAG PAPER MED     0000001000+00001578+00000+0001T   00001578+0000001311          1400 BT2112               2AZ
201922000201922               201922               170213EY     1400+00000+EY0000001753+0000001753+000000000+000000246+0000001990+0000000009+I20000000000+0000001990+Z
201922001201922466-008889     201922006001023835376WHISTLE SPORTS+STRING  0000001000+00001753+00000+0001T   00001753+0000001318          1400 BT2785               2AZ
201923000201923               201923               170213EY     1400+00000+EY0000011356+0000011356+000000000+000001593+0000012949+0000000000+I40000012949+0000000000+Z
201923001201923112-116069     201923006009681820277TCS CARRIER BAG JUMBO  0000001000+00000048+00000+0001T   00000048+0000001319          1400 BT2090               2AZ
201923002201923108-001105-B   201923006005387000258MIXING-BOWL PLTNM/BLUE 0000002000+00002367+00000+0001T   00002367+0000001319          1400 BT2210               2AZ
201923003201923903-004950     201923006002580020304SWT APRICOT SURPRISE   0000001000+00001314+00000+0001T   00001314+0000001319          1400 BT2150               2AZ
201923004201923002-000717     201923006001023775184CHOPPING-MATS FLEX 2PCE0000002000+00002630+00000+0001T   00002630+0000001319          1400 BT2300               2AZ
201924000201924               201924               170213EY     1400+00000+EY0000001227+0000001227+000000000+000000172+0000001390+0000000009+I20000000000+0000001390+Z
201924001201924306-000510     201924006001024000469T/BRUSH ADULT CROSS    0000001000+00001227+00000+0001T   00001227+0000001321          1400 BT2200               2AZ
201925000201925               201925               170213EY     1400+00000+EY0000002542+0000002542+000000000+000000356+0000002898+0000000000+I40000002898+0000000000+Z
201925001201925018-000127     201925006001023380289MUG OCC STRAIGHT LOVE  0000001000+00001578+00000+0001T   00001753+0006471325          1400 BT2515               2AZ
201925002201925903-000843     201925008693029031067SWT GUMMY JELAXY 80G   0000001000+00000964+00000+0001T   00000964+0000001325          1400 BT2150               2AZ
201926000201926               201926               170213EY     1400+00000+EY0000000000+0000000000+000000000+000000000+0000000000+0000000000+ 00000000000+0000000000+Z
201926001201926112-116069     201926006009681820277TCS CARRIER BAG JUMBO  0000001000+00000048+00000+0001T   00000048+000000              1400 BT2090               2 Z
201926002201926079-001004     201926006003000590827PAINT PALLET CANVAS    0000001000+00013157+00000+0001T   00013157+000000              1400 BT2130               2 Z
201926003201926079-001001     201926006003000448593CANVAS A3 WOOD MOUNTED 0000001000+00004385+00000+0001T   00004385+000000              1400 BT2130               2 Z
201926004201926566-000315     201926006003000521661STICKERS DEC FRAMES    0000001000+00004385+00000+0001T   00004385+000000              1400 BT2130               2 Z
201927000201927               201927               170213EY     1400+00000+EY0000034680+0000034680+000000000+000004861+0000039541+0000000000+I40000039541+0000000000+Z
201927001201927112-116069     201927006009681820277TCS CARRIER BAG JUMBO  0000001000+00000048+00000+0001T   00000048+0000001334          1400 BT2090               2AZ
201927002201927079-001001     201927006003000448593CANVAS A3 WOOD MOUNTED 0000001000+00004385+00000+0001T   00004385+0000001334          1400 BT2130               2AZ
201927003201927566-001012     201927006001023528070STICKERS GLOW IN DARK  0000001000+00001314+00000+0001T   00001314+0000001334          1400 BT2130               2AZ
201927004201927079-001004     201927006003000590827PAINT PALLET CANVAS    0000001000+00013157+00000+0001T   00013157+0000001334          1400 BT2130               2AZ
201927005201927007-000203     201927006009685850409FILE DISPLAY FLDR ASSTD0000003000+00000437+00000+0001T   00000437+0000001334          1400 BT2130               2AZ
201927006201927105-006949     201927006003000665839CONTAINER STORER 5L    0000001000+00003069+00000+0001T   00003069+0000001334          1400 BT2210               2AZ
201927007201927083-000055     201927006003000003853LIGHTER ELCTRNC REFILBL0000001000+00000613+00000+0001T   00000613+0000001334          1400 BT2315               2AZ
201927008201927903-000709     201927006002099007070SWT QUENCHERS FRUIT    0000001000+00001139+00000+0001T   00001139+0000001334          1400 BT2150               2AZ
201927009201927088-000108     201927006001023765536POTPOURRI-OIL 10ml ASST0000002000+00001753+00000+0001T   00001753+0000001334          1400 BT2212               2AZ
201927010201927566-000315     201927006003000521661STICKERS DEC FRAMES    0000001000+00004385+00000+0001T   00004385+0000001334          1400 BT2130               2AZ
201927011201927105-000600     201927006005387000500STORAGE CONTAINER 150ml0000001000+00001753+00000+0001T   00002279+0008161334          1400 BT2210               2AZ
201928000201928               201928               170213EY     1400+00000+EY0000002628+0000002628+000000000+000000368+0000002990+0000000006+I20000000000+0000002990+Z
201928001201928006-000167-C   201928006003000516971BALLOONS PINK METALLIC 0000002000+00001314+00000+0001T   00001314+0000001417          1400 BT2131               2AZ
201929000201929               201929               170213EY     1400+00000+EY0000000918+0000000918+000000000+000000130+0000001040+0000000008+I20000000000+0000001040+Z
201929001201929071-000012     201929006001177101006CHALK COLOUR 12PCE     0000001000+00000481+00000+0001T   00000481+0000001420          1400 BT2130               2AZ
201929002201929071-000212     201929006009608641190CHALK WHITE 12PCE      0000001000+00000437+00000+0001T   00000437+0000001420          1400 BT2130               2AZ
201930000201930               201930               170213EY     1400+00000+EY0000001314+0000001314+000000000+000000184+0000001490+0000000008+I20000000000+0000001490+Z
201930001201930903-004950     201930006002580020304SWT APRICOT SURPRISE   0000001000+00001314+00000+0001T   00001314+0000001423          1400 BT2150               2AZ
201931000201931               201931               170213EY     1400+00000+EY0000034248+0000034248+000000000+000004798+0000039040+0000000006+I20000000000+0000039040+Z
201931001201931566-000323     201931006003000535958STICKER ROOM DEC TOWER 0000001000+00004385+00000+0001T   00004385+0000001426          1400 BT2130               2AZ
201931002201931566-000358     201931006003000582587STICKER ROOM DECOR WORD0000001000+00003946+00000+0001T   00003946+0000001426          1400 BT2130               2AZ
201931003201931006-000190     201931006003000685530BALLOONS LOVE 81x91cm  0000001000+00004385+00000+0001T   00004385+0000001426          1400 BT2131               2AZ
201931004201931112-116069     201931006009681820277TCS CARRIER BAG JUMBO  0000001000+00000048+00000+0001T   00000048+0000001426          1400 BT2090               2AZ
201931005201931267-000250     201931006001023892386PUZZLE 500pc LANDSCAPE 0000001000+00005262+00000+0001T   00005262+0000001426          1400 BT2755               2AZ
201931006201931080-000113     201931006003000237449CARD&ENVLPE - LOVE     0000001000+00001753+00000+0001T   00001753+0000001426          1400 BT2112               2AZ
201931007201931030-000031-A   201931006003000457588PLAQUE W/WORDS ASSTD   0000001000+00004385+00000+0001T   00004823+0006471426          1400 BT2505               2AZ
201931008201931089-060027     201931006003000245871KEY-CHAIN HEART 6X6cm  0000001000+00003069+00000+0001T   00003069+0000001426          1400 BT2205               2AZ
201931009201931301-085001     201931006003000297610ORN WATERBALL LOVE ASST0000001000+00004823+00000+0001T   00004823+0000001426          1400 BT2505               2AZ
201931010201931566-000359     201931006003000582709STICKER BOOK LOVE SPARK0000001000+00002192+00000+0001T   00002192+0000001426          1400 BT2130               2AZ
201932000201932               201932               170213EY     1400+00000+EY0000001753+0000001753+000000000+000000246+0000001990+0000000009+I20000000000+0000001990+Z
201932001201932306-000006     201932006001023776440DENTAL FLOSS PICKS 50PC0000001000+00001753+00000+0001T   00001753+0000001427          1400 BT2200               2AZ
201933000201933               201933               170213EY     1400+00000+EY0000005521+0000005521+000000000+000000773+0000006294+0000000000+I40000006294+0000000000+Z
201933001201933072-020266     201933006003000400591PET PUPPY TRAINING PAD 0000001000+00003507+00000+0001T   00003507+0000001437          1400 BT2870               2AZ
201933002201933306-000023-A   201933006003000110148COTTON WOOL BALLS 50PCE0000001000+00000700+00000+0001T   00001314+0008171437          1400 BT2200               2AZ
201933003201933046-000012     201933006904708013062BATTERIES AA  CARD-OF-40000001000+00001314+00000+0001T   00001314+0000001437          1400 BT2312               2AZ
201934000201934               201934               170213EY     1400+00000+EY0000007484+0000007484+000000000+000001049+0000008533+0000000000+I40000008533+0000000000+Z
201934001201934150-000770     201934006005387000128UTILITY BOX MEGA       0000001000+00003244+00000+0001T   00003244+0000001438          1400 BT2810               2AZ
201934002201934903-000519     201934006001704012805SWT MS LIQ-O-GHETTI    0000001000+00001227+00000+0001T   00001227+0000001438          1400 BT2150               2AZ
201934003201934903-000120     201934006002099001665SWEET GS ZILLIONS 50g  0000001000+00000700+00000+0001T   00000700+0000001438          1400 BT2150               2AZ
201934004201934903-000843     201934008693029031067SWT GUMMY JELAXY 80G   0000001000+00000964+00000+0001T   00000964+0000001438          1400 BT2150               2AZ
201934005201934903-000844     201934005010478432567SWT CANDY DL LUV HEARTS0000001000+00001314+00000+0001T   00001314+0000001438          1400 BT2150               2AZ
201934006201934112-116038     201934006009681820246TCS CARRIER BAG MIDI   0000001000+00000035+00000+0001T   00000035+0000001438          1400 BT2090               2AZ
201935000201935               201935               170213EY     1400+00000+EY0000003980+0000003980+000000000+000000558+0000004530+0000000008+I20000000000+0000004530+Z
201935001201935112-116038     201935006009681820246TCS CARRIER BAG MIDI   0000001000+00000035+00000+0001T   00000035+0000001443          1400 BT2090               2AZ
201935002201935030-083577     201935006003000632152THERMOMETER MAGNETIC   0000001000+00001753+00000+0001T   00001753+0000001443          1400 BT2505               2AZ
201935003201935018-000170     201935006001023775528MUG OCC. LOVE 2PC MINI 0000001000+00002192+00000+0001T   00002192+0000001443          1400 BT2515               2AZ
201936000201936               201936               170213EY     1400+00000+EY0000012125+0000012125+000000000+000001703+0000013820+0000000008+I20000000000+0000013820+Z
201936001201936080-000115     201936006003000237333CARD&ENVELOPE - BLANKS 0000001000+00001753+00000+0001T   00001753+0000001446          1400 BT2112               2AZ
201936002201936077-000407     201936006003000145096G/BAG PP 19X26X8CM     0000002000+00001314+00000+0001T   00001314+0000001446          1400 BT2112               2AZ
201936003201936018-005009     201936006001023725608MUG W/PLUSH-BEAR LOVE  0000001000+00003507+00000+0001T   00003507+0000001446          1400 BT2515               2AZ
201936004201936112-116038     201936006009681820246TCS CARRIER BAG MIDI   0000001000+00000035+00000+0001T   00000035+0000001446          1400 BT2090               2AZ
201936005201936031-086219     201936006001023761729P/FRAME 9x13cm CURVED  0000001000+00002630+00000+0001T   00002630+0000001446          1400 BT2510               2AZ
201936006201936903-000183     201936006003000451043SWT LB HEART LOLLY     0000004000+00000393+00000+0001T   00000393+0000001446          1400 BT2150               2AZ
201937000201937               201937               170213EY     1400+00000+EY0000000788+0000000788+000000000+000000111+0000000890+0000000009+I20000000000+0000000890+Z
201937001201937071-000001-A   201937006003000129607PENCIL LEAD 0.5mm  2PK 0000001000+00000788+00000+0001T   00000788+0000001454          1400 BT2130               2AZ
201938000201938               201938               170213EY     1400+00000+EY0000001753+0000001753+000000000+000000246+0000001990+0000000009+I20000000000+0000001990+Z
201938001201938046-001220-PK2 201938004897006175049BATTERIES CR-1220  2PCE0000001000+00001753+00000+0001T   00001753+0000001501          1400 BT2312               2AZ
201939000201939               201939               170213EY     1400+00000+EY0000001753-0000001753-000000000+000000246-0000002000-0000000001+I20000000000+0000002000-Z
201939001201939046-001220-PK2 201939004897006175049BATTERIES CR-1220  2PCE0000001000-00001753+00000+0001T   00001753+0000001505          1400 BT23121IC            2 Z
201940000201940               201940               170213EY     1400+00000+EY0000022499+0000022499+000000000+000003151+0000025650+0000000000+I40000025650+0000000000+Z
201940001201940362-003007     201940006003000295401GIRL FASHION SUNGLASSES0000002000+00001578+00000+0001T   00001753+0008191517          1400 BT2160               2AZ
201940002201940464-000667     201940006003000394791GAME BOWLING           0000001000+00017542+00000+0001T   00017542+0000001517          1400 BT2785               2AZ
201940003201940112-116069     201940006009681820277TCS CARRIER BAG JUMBO  0000001000+00000048+00000+0001T   00000048+0000001517          1400 BT2090               2AZ
201940004201940903-000211     201940006002099001238SWT GS MALLOW ICE CREAM0000001000+00001753+00000+0001T   00001753+0000001517          1400 BT2150               2AZ
201941000201941               201941               170213EY     1400+00000+EY0000001971+0000001971+000000000+000000277+0000002240+0000000008+I20000000000+0000002240+Z
201941001201941077-000303     201941006001023593757GIFT-BAG PAPER MED     0000001000+00001578+00000+0001T   00001578+0000001520          1400 BT2112               2AZ
201941002201941903-000183     201941006003000451043SWT LB HEART LOLLY     0000001000+00000393+00000+0001T   00000393+0000001520          1400 BT2150               2AZ
201942000201942               201942               170213EY     1400+00000+EY0000001753+0000001753+000000000+000000246+0000001990+0000000009+I20000000000+0000001990+Z
201942001201942012-000001     201942006003000331048MICRO PLATE-COVER 26X6 0000001000+00001753+00000+0001T   00002192+0008191524          1400 BT2300               2AZ
201943000201943               201943               170213EY     1400+00000+EY0000003507+0000003507+000000000+000000491+0000003990+0000000008+I20000000000+0000003990+Z
201943001201943262-000013     201943006008766065060MOTORBIKES             0000001000+00003507+00000+0001T   00003507+0000001524          1400 BT2710               2AZ
201944000201944               201944               170213EY     1400+00000+EY0000009503+0000009503+000000000+000001333+0000010836+0000000000+I40000010836+0000000000+Z
201944001201944006-000323-D   201944006003000126248CONFETTI H/BIRTHDAY 3PK0000001000+00002630+00000+0001T   00002630+0000001633          1400 BT2131               2AZ
201944002201944565-000040     201944006008766115635NOVELTY ICON BEANIE    0000001000+00002630+00000+0001T   00002630+0000001633          1400 BT2745               2AZ
201944003201944903-000095     201944006001704011495SWT SPECKLED-EGGS 100G 0000002000+00002104+00000+0001T   00002104+0000001633          1400 BT2150               2AZ
201944004201944112-116038     201944006009681820246TCS CARRIER BAG MIDI   0000001000+00000035+00000+0001T   00000035+0000001633          1400 BT2090               2AZ
201945000201945               201945               170213EY     1400+00000+EY0000015992+0000015992+000000000+000002240+0000018230+0000000002+I20000000000+0000018230+Z
201945001201945304-001011     201945006001023806727FLWR ROSE RED W/BEAR   0000003000+00000613+00000+0001T   00000788+0006471703          1400 BT2510               2AZ
201945002201945031-000868-A   201945006001023798534P/FRAME PL BLCK 10X15CM0000001000+00002192+00000+0001T   00002192+0000001703          1400 BT2510               2AZ
201945003201945077-000303     201945006001023593757GIFT-BAG PAPER MED     0000002000+00001578+00000+0001T   00001578+0000001703          1400 BT2112               2AZ
201945004201945112-116038     201945006009681820246TCS CARRIER BAG MIDI   0000001000+00000035+00000+0001T   00000035+0000001703          1400 BT2090               2AZ
201945005201945368-000049     201945006003000536955PLUSH BEAR 15cm LOVE   0000002000+00004385+00000+0001T   00004385+0000001703          1400 BT2745               2AZ
201946000201946               201946               170213EY     1400+00000+EY0000011957+0000011957+000000000+000001677+0000013634+0000000000+I40000013634+0000000000+Z
201946001201946112-116038     201946006009681820246TCS CARRIER BAG MIDI   0000001000+00000035+00000+0001T   00000035+0000001709          1400 BT2090               2AZ
201946002201946903-000591     201946006003000563616SWEET ANIMAL 24cm      0000002000+00002630+00000+0001T   00002630+0000001709          1400 BT2150               2AZ
201946003201946903-000087     201946006001704000161SWT SPECKLED-EGGS 50G  0000002000+00001139+00000+0001T   00001139+0000001709          1400 BT2150               2AZ
201946004201946565-000887     201946006003000412334NOVELTY SILICONE TOY   0000002000+00002192+00000+0001T   00002192+0000001709          1400 BT2745               2AZ
201947000201947               201947               170213EY     1400+00000+EY0000007485+0000007485+000000000+000001050+0000008535+0000000000+I40000008535+0000000000+Z
201947001201947077-000299     201947006003000395576G/BAG 32x25cm LRG LOVE 0000001000+00001490+00000+0001T   00001490+0000001711          1400 BT2112               2AZ
201947002201947077-000348     201947006001023483287GIFT-BOWS 4,5cm 8PCE   0000001000+00001578+00000+0001T   00001578+0000001711          1400 BT2112               2AZ
201947003201947566-020150     201947006001023889126STICKERS FOAM 3D ASSTD 0000002000+00001753+00000+0001T   00001753+0000001711          1400 BT2130               2AZ
201947004201947112-116038     201947006009681820246TCS CARRIER BAG MIDI   0000001000+00000035+00000+0001T   00000035+0000001711          1400 BT2090               2AZ
201947005201947903-000520     201947006001704009898SWT GUMMY MINI SOUR 60g0000001000+00000876+00000+0001T   00000876+0000001711          1400 BT2150               2AZ
201948000201948               201948               170213EY     1400+00000+EY0000001179+0000001179+000000000+000000168+0000001340+0000000007+I20000000000+0000001340+Z
201948001201948903-000183     201948006003000451043SWT LB HEART LOLLY     0000003000+00000393+00000+0001T   00000393+0000001714          1400 BT2150               2AZ
201949000201949               201949               170213EY     1400+00000+EY0000002014+0000002014+000000000+000000282+0000002290+0000000006+I20000000000+0000002290+Z
201949001201949033-010721     201949006001023678669SAFETY-PINS 20PCE ASSTD0000001000+00000700+00000+0001T   00000700+0000001717          1400 BT2200               2AZ
201949002201949903-004950     201949006002580020304SWT APRICOT SURPRISE   0000001000+00001314+00000+0001T   00001314+0000001717          1400 BT2150               2AZ
201950000201950               201950               170213EY     1400+00000+EY0000001490+0000001490+000000000+000000209+0000001690+0000000009+I20000000000+0000001690+Z
201950001201950133-000029     201950006001023911346FACE-CLOTH 30x30cm 32g 0000001000+00001490+00000+0001T   00001490+0000001720          1400 BT2212               2AZ
201951000201951               201951               170213EY     1400+00000+EY0000008804+0000008804+000000000+000001234+0000010030+0000000008+I20000000000+0000010030+Z
201951001201951040-000222     201951006001023845344C/HOLD BUTTERFLY 14CM  0000001000+00006139+00000+0001T   00006139+0000001728          1400 BT2510               2AZ
201951002201951039-081008     201951006008766081008CANDLES 9PCE SCENTED   0000001000+00002630+00000+0001T   00002630+0000001728          1400 BT2510               2AZ
201951003201951112-116038     201951006009681820246TCS CARRIER BAG MIDI   0000001000+00000035+00000+0001T   00000035+0000001728          1400 BT2090               2AZ
201952000201952               201952               170213EY     1400+00000+EY0000002630+0000002630+000000000+000000369+0000002990+0000000009+I20000000000+0000002990+Z
201952001201952018-000129     201952006001023403353MUG OCC. LOVE V-SHAPE  0000001000+00002630+00000+0001T   00002630+0000001729          1400 BT2515               2AZ
201953000201953               201953               170213EY     1400+00000+EY0000015815+0000015815+000000000+000002216+0000018030+0000000001+I20000000000+0000018030+Z
201953001201953018-005009     201953006001023725608MUG W/PLUSH-BEAR LOVE  0000003000+00003507+00000+0001T   00003507+0000001732          1400 BT2515               2AZ
201953002201953080-000113     201953006003000237449CARD&ENVLPE - LOVE     0000003000+00001753+00000+0001T   00001753+0000001732          1400 BT2112               2AZ
201953003201953112-116038     201953006009681820246TCS CARRIER BAG MIDI   0000001000+00000035+00000+0001T   00000035+0000001732          1400 BT2090               2AZ
A17021300                                          15254517EYSLAVE 2                       BT21IC
B20194400                                          170213EY046-000011-VP  15282275SLAVE 2     BT21IC0000005000+0000004000+0000000000000+
B20194401                                          170213EY046-000011-VP  15313952SLAVE 2     BT21IC0000004000+0000003000+0000000000000+
C20194400                                          170213EY046-000011-VP  15335579SLAVE 2     BT21IC0000000000+0000000000+0010000003000+
C20194401                                          170213EY046-000010-VP  15340359SLAVE 2     BT21IC0000000000+0000000000+0020000001000+
C20194402                                          170213EY112-116038     15341024SLAVE 2     BT21IC0000000000+0000000000+0030000001000+
M17021301                              IT          EYATT IT                                          LAST TILL SLIP NO                               SLAVE 2 = 201953                                THANK YOU                                       EY
M17021391                              CASH        EYSLAVE 2                       Z-REPORT No.   564TOTAL (Sales - Refunds)           4601.56       CASH TO BE BANKED                 2460.00       DEBIT CARDS                          0.00       CREDIT CARDS                      2141.56       Z-READING                         4601.56       AIRTIME DEBIT CARD SALES             0.00       AIRTIME CARD SALES                   0.00       OVERS/UNDERS                         0.00       AIRTIME CASH SALES                   0.00       GIFT CARDS                           0.00       GIFT CARD CASH SALES                 0.00       T O T A L  CASH PAYOUTS              0.00                                                                                                                                                                                                                                                                                                                                                      Z
M17021392                              CASH        EYABSENT                                                                                                                                                                                          ANNUAL LEAVE                                                                                                                                                                                    DAY OFF                                                                                                                                                                                         COMMENTS          EY                                                                                                                                                                                                                                                                                                                                                                           Z
Y17021300                                          EY00000000405584+000055
ZEY17021319363 SLAVE 2      SALES DATA                     NEXT INVOICE NO.  201954 0564
X EY Slave 2 First invoice 201897 170213 Last invoice 201953 170213 Next invoice 201954 Total number of records 000000226 clbackup completed 19:36:18
