109907000109907               109907               170213EZ     1400+00000+EZ0000001784+0000001784+000000000+000000251+0000002030+0000000005+I20000000000+0000002030+Z
109907001109907112-116038     109907006009681820246TCS CARRIER BAG MIDI   0000001000+00000035+00000+0001T   00000035+0000001016          1400 SZ6090               1CZ
109907002109907002-021040     109907006001023812216PARTY-PICKS 100PCE     0000001000+00000525+00000+0001T   00000525+0000001016          1400 SZ6300               1CZ
109907003109907079-009700-D   109907006003000545711PAPER SIRIO A4 RED COL.0000004000+00000306+00000+0001T   00000306+0000001016          1400 SZ6130               1CZ
109908000109908               109908               170213EZ     1400+00000+EZ0000014034+0000014034+000000000+000001965+0000015990+0000000009+I20000000000+0000015990+Z
109908001109908105-009017     109908006002923006804STORAGE BOX FROSTED 55L0000001000+00014034+00000+0001T   00014034+0000001019          1400 SZ6210               1CZ
109909000109909               109909               170213EZ     1400+00000+EZ0000003507+0000003507+000000000+000000491+0000003990+0000000008+I20000000000+0000003990+Z
109909001109909089-000006     109909006003000094929KEY CHAIN HAND-BAG MTL 0000001000+00003507+00000+0001T   00003507+0000001032          1400 SZ6205               1CZ
109910000109910               109910               170213EZ     1400+00000+EZ0000038679+0000038679+000000000+000005418+0000044090+0000000007+I20000000000+0000044090+Z
109910001109910112-116069     109910006009681820277TCS CARRIER BAG JUMBO  0000001000+00000048+00000+0001T   00000048+0000001038          1400 SZ6090               1CZ
109910002109910104-000055     109910006001023889416BASKET PL 32x22x8cm    0000002000+00003507+00000+0001T   00003507+0000001038          1400 SZ6210               1CZ
109910003109910107-004000     109910006001023889256BASIN PL OBLONG        0000001000+00004385+00000+0001T   00004385+0000001038          1400 SZ6210               1CZ
109910004109910104-000033     109910006003000615070BASKET PL 30x20x11cm   0000004000+00002192+00000+0001T   00002192+0000001038          1400 SZ6210               1CZ
109910005109910104-000032     109910006003000099696BASKET PL 34x25x8cm    0000001000+00002630+00000+0001T   00002630+0000001038          1400 SZ6210               1CZ
109910006109910104-000060     109910006003000632350BASKET PL 33x23x15cm   0000003000+00005262+00000+0001T   00005262+0000001038          1400 SZ6210               1CZ
109910007109910112-116069     109910006009681820277TCS CARRIER BAG JUMBO  0000001000+00000048+00000+0001T   00000048+0000001038          1400 SZ6090               1CZ
109911000109911               109911               170213EZ     1400+00000+EZ0000001753+0000001753+000000000+000000246+0000001990+0000000009+I20000000000+0000001990+Z
109911001109911077-000357     109911006003000139354GIFT-BAG 18X23CM B/DAY 0000001000+00001753+00000+0001T   00001753+0000001044          1400 SZ6112               1CZ
109912000109912               109912               170213EZ     1400+00000+EZ0000001525+0000001525+000000000+000000214+0000001730+0000000009+I20000000000+0000001730+Z
109912001109912106-001100-B   109912006001023651693FRIDGE BOTTLE ASSORTED 0000001000+00001490+00000+0001T   00001490+0000001108          1400 SZ6210               1CZ
109912002109912112-116038     109912006009681820246TCS CARRIER BAG MIDI   0000001000+00000035+00000+0001T   00000035+0000001108          1400 SZ6090               1CZ
109913000109913               109913               170213EZ     1400+00000+EZ0000004208+0000004208+000000000+000000590+0000004790+0000000008+I20000000000+0000004790+Z
109913001109913028-000916     109913006001023776969BBQ GRILL-CLEANER 37cm 0000001000+00002630+00000+0001T   00002630+0000001110          1400 SZ6305               1CZ
109913002109913028-000799     109913006001023812186SKEWERS BAMBOO 100PCE  0000001000+00001578+00000+0001T   00001578+0000001110          1400 SZ6305               1CZ
109914000109914               109914               170213EZ     1400+00000+EZ0000005260+0000005260+000000000+000000737+0000005990+0000000007+I20000000000+0000005990+Z
109914001109914565-000043     109914006003000109562NOVELTY BALL FUNNY FACE0000001000+00001753+00000+0001T   00001753+0000001156          1400 SZ6745               1CZ
109914002109914050-000263-Z   109914006001023777041PADLOCK BRS 32mm CARDED0000001000+00003507+00000+0001T   00003507+0000001156          1400 SZ6855               1CZ
109915000109915               109915               170213EZ     1400+00000+EZ0000005120+0000005120+000000000+000000717+0000005830+0000000007+I20000000000+0000005830+Z
109915001109915077-000315     109915006003000181186GIFT-BAG 20x28cm MATT  0000001000+00001578+00000+0001T   00001578+0000001220          1400 SZ6112               1CZ
109915002109915018-005009     109915006001023725608MUG W/PLUSH-BEAR LOVE  0000001000+00003507+00000+0001T   00003507+0000001220          1400 SZ6515               1CZ
109915003109915112-116038     109915006009681820246TCS CARRIER BAG MIDI   0000001000+00000035+00000+0001T   00000035+0000001220          1400 SZ6090               1CZ
109916000109916               109916               170213EZ     1400+00000+EZ0000001578+0000001578+000000000+000000221+0000001790+0000000009+I20000000000+0000001790+Z
109916001109916018-000127     109916006001023380289MUG OCC STRAIGHT LOVE  0000001000+00001578+00000+0001T   00001753+0006471221          1400 SZ6515               1CZ
109917000109917               109917               170213EZ     1400+00000+EZ0000002192+0000002192+000000000+000000307+0000002490+0000000009+I20000000000+0000002490+Z
109917001109917567-004962     109917009780636049093TYB G03 ENGLISH        0000001000+00002192+00000+0001T   00002192+0000001226          1400 SZ6757               1CZ
109918000109918               109918               170213EZ     1400+00000+EZ0000001051+0000001051+000000000+000000148+0000001190+0000000009+I20000000000+0000001190+Z
109918001109918007-000119     109918006002324004126BOOK COVER PL          0000001000+00001051+00000+0001T   00001051+0000001227          1400 SZ6130               1CZ
109919000109919               109919               170213EZ     1400+00000+EZ0000003857+0000003857+000000000+000000541+0000004390+0000000008+I20000000000+0000004390+Z
109919001109919206-000220     109919006003000631704EGG TIMER COLOUR-CHANGE0000001000+00002630+00000+0001T   00002630+0000001245          1400 SZ6321               1CZ
109919002109919002-021042     109919006001023621801TOOTHPICKS 250PCE      0000001000+00001227+00000+0001T   00001227+0000001245          1400 SZ6300               1CZ
109920000109920               109920               170213EZ     1400+00000+EZ0000017571+0000017571+000000000+000002461+0000020030+0000000002+I20000000000+0000020030+Z
109920001109920079-013099     109920006003000081875ART+CRAFT EYES ASSTD   0000001000+00001753+00000+0001T   00001753+0000001256          1400 SZ6130               1CZ
109920002109920034-019828     109920006001023115355BABY-FEEDING-BOTTLE    0000001000+00002192+00000+0001T   00002192+0000001256          1400 SZ6215               1CZ
109920003109920200-000011     109920006003000613489DISPOSABLE BAG ZIPER   0000001000+00003507+00000+0001T   00003507+0000001256          1400 SZ6214               1CZ
109920004109920200-000012     109920006003000399536BAG 50PCE 165x146mm    0000001000+00003507+00000+0001T   00003507+0000001256          1400 SZ6214               1CZ
109920005109920567-000422     109920009780710515872BK EDU BATH EVA        0000001000+00004385+00000+0001T   00004385+0000001256          1400 SZ6757               1CZ
109920006109920369-001010     109920006001023864222BATH VINYL DUCK 4PC    0000001000+00002192+00000+0001T   00002192+0000001256          1400 SZ6745               1CZ
109920007109920112-116038     109920006009681820246TCS CARRIER BAG MIDI   0000001000+00000035+00000+0001T   00000035+0000001256          1400 SZ6090               1CZ
109921000109921               109921               170213EZ     1400+00000+EZ0000000524+0000000524+000000000+000000074+0000000590+0000000008+I20000000000+0000000590+Z
109921001109921903-000216     109921006925925900966SWT MALLOW TWIST ERKO  0000002000+00000262+00000+0001T   00000262+0000001302          1400 SZ6150               1CZ
109922000109922               109922               170213EZ     1400+00000+EZ0000007453+0000007453+000000000+000001044+0000008490+0000000007+I20000000000+0000008490+Z
109922001109922368-000049     109922006003000536955PLUSH BEAR 15cm LOVE   0000001000+00004385+00000+0001T   00004385+0000001304          1400 SZ6745               1CZ
109922002109922077-000926     109922006003000414178G/WRAP 700mmx2m LOVE   0000001000+00002192+00000+0001T   00002192+0000001304          1400 SZ6112               1CZ
109922003109922071-005213     109922006001023690371CELLOTAPE 12mmx33m     0000001000+00000876+00000+0001T   00000876+0000001304          1400 SZ6130               1CZ
109923000109923               109923               170213EZ     1400+00000+EZ0000009205+0000009205+000000000+000001290+0000010495+0000000000+I40000010495+0000000000+Z
109923001109923566-000007     109923006001023761187S/BOOK SUPER VALUE     0000001000+00001753+00000+0001T   00001753+0000001439          1400 SZ6130               1CZ
109923002109923077-000299-A   109923006003000670888GIFT-BAG PAPER JMB LOVE0000001000+00001753+00000+0001T   00001753+0000001439          1400 SZ6112               1CZ
109923003109923080-000127     109923006003000424351VALENTINES DAY 36x24CM 0000001000+00002192+00000+0001T   00002192+0000001439          1400 SZ6112               1CZ
109923004109923301-085004     109923006003000420469ORN LOVE PLAQUE 21X10CM0000001000+00003507+00000+0001T   00003946+0006471439          1400 SZ6505               1CZ
109924000109924               109924               170213EZ     1400+00000+EZ0000003285+0000003285+000000000+000000461+0000003746+0000000000+I40000003746+0000000000+Z
109924001109924903-000183     109924006003000451043SWT LB HEART LOLLY     0000001000+00000393+00000+0001T   00000393+0000001451          1400 SZ6150               1CZ
109924002109924018-000170     109924006001023775528MUG OCC. LOVE 2PC MINI 0000001000+00002192+00000+0001T   00002192+0000001451          1400 SZ6515               1CZ
109924003109924018-000177     109924006001023797513MUG MINI LOVE ASSTD    0000001000+00000700+00000+0001T   00000700+0000001451          1400 SZ6515               1CZ
109925000109925               109925               170213EZ     1400+00000+EZ0000003507+0000003507+000000000+000000491+0000003990+0000000008+I20000000000+0000003990+Z
109925001109925018-000136     109925006001023659026MUG OCC LOVE W/PLUSH   0000001000+00003507+00000+0001T   00003507+0000001455          1400 SZ6515               1CZ
109926000109926               109926               170213EZ     1400+00000+EZ0000003542+0000003542+000000000+000000496+0000004030+0000000008+I20000000000+0000004030+Z
109926001109926018-000136     109926006001023659026MUG OCC LOVE W/PLUSH   0000001000+00003507+00000+0001T   00003507+0000001456          1400 SZ6515               1CZ
109926002109926112-116038     109926006009681820246TCS CARRIER BAG MIDI   0000001000+00000035+00000+0001T   00000035+0000001456          1400 SZ6090               1CZ
109927000109927               109927               170213EZ     1400+00000+EZ0000002630+0000002630+000000000+000000369+0000002990+0000000009+I20000000000+0000002990+Z
109927001109927077-000270     109927006003000395453GIFT-BAG PPR JMB 33X45 0000001000+00002630+00000+0001T   00002630+0000001456          1400 SZ6112               1CZ
109928000109928               109928               170213EZ     1400+00000+EZ0000008771+0000008771+000000000+000001228+0000009990+0000000009+I20000000000+0000009990+Z
109928001109928031-086302-C   109928006001023910332P/FRAME COLL. PL 3-HOLE0000001000+00008771+00000+0001T   00008771+0000001459          1400 SZ6510               1CZ
109929000109929               109929               170213EZ     1400+00000+EZ0000000048+0000000048+000000000+000000007+0000000050+0000000005+I20000000000+0000000050+Z
109929001109929112-116069     109929006009681820277TCS CARRIER BAG JUMBO  0000001000+00000048+00000+0001T   00000048+0000001500          1400 SZ6090               1CZ
109930000109930               109930               170213EZ     1400+00000+EZ0000006139+0000006139+000000000+000000860+0000006999+0000000000+I40000006999+0000000000+Z
109930001109930031-007009     109930006003000467822P/FRAME WDN CERTIFICATE0000001000+00006139+00000+0001T   00006139+0000001502          1400 SZ6510               1CZ
109931000109931               109931               170213EZ     1400+00000+EZ0000007573+0000007573+000000000+000001063+0000008630+0000000006+I20000000000+0000008630+Z
109931001109931306-001619     109931006003000571451INNER SOLES 2-PAIR     0000001000+00002630+00000+0001T   00002630+0000001504          1400 SZ6200               1CZ
109931002109931306-001622     109931006003000450091INNER SOLES 1-PAIR     0000001000+00002630+00000+0001T   00002630+0000001504          1400 SZ6200               1CZ
109931003109931002-000801     109931006003000555994PEELER PL/MTL Y-SHAPE  0000001000+00001139+00000+0001T   00001139+0000001504          1400 SZ6300               1CZ
109931004109931009-001800     109931006003000568086MELAMINE MUG 250ml     0000001000+00001139+00000+0001T   00001578+0008151504          1400 SZ6210               1CZ
109931005109931112-116038     109931006009681820246TCS CARRIER BAG MIDI   0000001000+00000035+00000+0001T   00000035+0000001504          1400 SZ6090               1CZ
109932000109932               109932               170213EZ     1400+00000+EZ0000000876+0000000876+000000000+000000123+0000000990+0000000009+I20000000000+0000000990+Z
109932001109932083-000295     109932006001023898562LIGHTER-GAS BUTANE 18ml0000001000+00000876+00000+0001T   00000876+0000001514          1400 SZ6315               1CZ
109933000109933               109933               170213EZ     1400+00000+EZ0000001578+0000001578+000000000+000000221+0000001790+0000000009+I20000000000+0000001790+Z
109933001109933077-000303     109933006001023593757GIFT-BAG PAPER MED     0000001000+00001578+00000+0001T   00001578+0000001515          1400 SZ6112               1CZ
109934000109934               109934               170213EZ     1400+00000+EZ0000001753+0000001753+000000000+000000246+0000001990+0000000009+I20000000000+0000001990+Z
109934001109934200-003026     109934006003000276448REFUSE BAGS 10PCE GREEN0000001000+00001753+00000+0001T   00001753+0000001515          1400 SZ6214               1CZ
109935000109935               109935               170213EZ     1400+00000+EZ0000002192+0000002192+000000000+000000307+0000002499+0000000000+I40000002499+0000000000+Z
109935001109935566-000352     109935006001023809261STICKERS LASER ASSTD   0000001000+00002192+00000+0001T   00002192+0000001516          1400 SZ6130               1CZ
109936000109936               109936               170213EZ     1400+00000+EZ0000001314+0000001314+000000000+000000184+0000001490+0000000008+I20000000000+0000001490+Z
109936001109936903-000194     109936006009826020616SWT CHOC RP LOLLY 25G  0000001000+00001314+00000+0001T   00001314+0000001517          1400 SZ6150               1CZ
109937000109937               109937               170213EZ     1400+00000+EZ0000004420+0000004420+000000000+000000619+0000005030+0000000009+I20000000000+0000005030+Z
109937001109937368-000001     109937006003000097982Plush Bear 25cm        0000001000+00004385+00000+0001T   00004385+0000001519          1400 SZ6745               1CZ
109937002109937112-116038     109937006009681820246TCS CARRIER BAG MIDI   0000001000+00000035+00000+0001T   00000035+0000001519          1400 SZ6090               1CZ
109938000109938               109938               170213EZ     1400+00000+EZ0000003507+0000003507+000000000+000000491+0000003990+0000000008+I20000000000+0000003990+Z
109938001109938018-005009     109938006001023725608MUG W/PLUSH-BEAR LOVE  0000001000+00003507+00000+0001T   00003507+0000001519          1400 SZ6515               1CZ
109939000109939               109939               170213EZ     1400+00000+EZ0000010170+0000010170+000000000+000001424+0000011594+0000000000+I40000011594+0000000000+Z
109939001109939077-000303     109939006001023593757GIFT-BAG PAPER MED     0000002000+00001578+00000+0001T   00001578+0000001526          1400 SZ6112               1CZ
109939002109939018-000130     109939006001023867537MUG OCC LOVE MINI+HEART0000002000+00003507+00000+0001T   00003507+0000001526          1400 SZ6515               1CZ
109940000109940               109940               170213EZ     1400+00000+EZ0000002400+0000002400+000000000+000000337+0000002730+0000000007+I20000000000+0000002730+Z
109940001109940306-000021-A   109940006001023891358EARBUDS COTTON 100PCE  0000001000+00000876+00000+0001T   00000876+0000001527          1400 SZ6200               1CZ
109940002109940306-000023     109940006001023606976COTTON-WOOL-BALLS 50PCE0000001000+00000876+00000+0001T   00000876+0000001527          1400 SZ6200               1CZ
109940003109940089-000021     109940006003000677399KEY CHAIN ID           0000001000+00000613+00000+0001T   00000613+0000001527          1400 SZ6205               1CZ
109940004109940112-116038     109940006009681820246TCS CARRIER BAG MIDI   0000001000+00000035+00000+0001T   00000035+0000001527          1400 SZ6090               1CZ
109941000109941               109941               170213EZ     1400+00000+EZ0000001753+0000001753+000000000+000000246+0000001990+0000000009+I20000000000+0000001990+Z
109941001109941200-003024     109941006001023657299REFUSE BAGS 20PCE BLACK0000001000+00001753+00000+0001T   00001753+0000001528          1400 SZ6214               1CZ
109942000109942               109942               170213EZ     1400+00000+EZ0000004208+0000004208+000000000+000000590+0000004790+0000000008+I20000000000+0000004790+Z
109942001109942077-000315     109942006003000181186GIFT-BAG 20x28cm MATT  0000001000+00001578+00000+0001T   00001578+0000001528          1400 SZ6112               1CZ
109942002109942077-000270     109942006003000395453GIFT-BAG PPR JMB 33X45 0000001000+00002630+00000+0001T   00002630+0000001528          1400 SZ6112               1CZ
109943000109943               109943               170213EZ     1400+00000+EZ0000008819+0000008819+000000000+000001235+0000010054+0000000000+I40000010054+0000000000+Z
109943001109943368-000614     109943006001023705808PLUSH LOVE 30cm        0000001000+00008771+00000+0001T   00008771+0000001552          1400 SZ6745               1CZ
109943002109943112-116069     109943006009681820277TCS CARRIER BAG JUMBO  0000001000+00000048+00000+0001T   00000048+0000001552          1400 SZ6090               1CZ
109944000109944               109944               170213EZ     1400+00000+EZ0000004821+0000004821+000000000+000000675+0000005490+0000000006+I20000000000+0000005490+Z
109944001109944018-000130     109944006001023867537MUG OCC LOVE MINI+HEART0000001000+00003507+00000+0001T   00003507+0000001555          1400 SZ6515               1CZ
109944002109944077-000310     109944006001023608635GIFT-BAG 18X23CM GLOSS 0000001000+00001314+00000+0001T   00001314+0000001555          1400 SZ6112               1CZ
109945000109945               109945               170213EZ     1400+00000+EZ0000001788+0000001788+000000000+000000251+0000002030+0000000009+I20000000000+0000002030+Z
109945001109945036-000063     109945006009654960436COATHANGERS VIRGIN 5PCE0000001000+00001753+00000+0001T   00001753+0000001558          1400 SZ6212               1CZ
109945002109945112-116038     109945006003000534906TCS CARRIER BAG MIDI   0000001000+00000035+00000+0001T   00000035+0000001558          1400 SZ6090               1CZ
109946000109946               109946               170213EZ     1400+00000+EZ0000003554+0000003554+000000000+000000499+0000004050+0000000003+I20000000000+0000004050+Z
109946001109946112-116069     109946006009681820277TCS CARRIER BAG JUMBO  0000001000+00000048+00000+0001T   00000048+0000001600          1400 SZ6090               1CZ
109946002109946036-000063     109946006009654960436COATHANGERS VIRGIN 5PCE0000002000+00001753+00000+0001T   00001753+0000001600          1400 SZ6212               1CZ
109947000109947               109947               170213EZ     1400+00000+EZ0000007016+0000007016+000000000+000000983+0000007990+0000000009+I20000000000+0000007990+Z
109947001109947016-006511     109947006003000673995S/JAR GLS CHALK W/LID  0000001000+00007016+00000+0001T   00007016+0000001601          1400 SZ6300               1CZ
109948000109948               109948               170213EZ     1400+00000+EZ0000000876+0000000876+000000000+000000123+0000000990+0000000009+I20000000000+0000000990+Z
109948001109948033-005921-A   109948006001023678324SEWING-THREAD 200m WHT 0000001000+00000876+00000+0001T   00000876+0000001601          1400 SZ6200               1CZ
109949000109949               109949               170213EZ     1400+00000+EZ0000009154+0000009154+000000000+000001283+0000010430+0000000007+I20000000000+0000010430+Z
109949001109949039-809558     109949006003000344376CANDLE PILLAR 12CM 4AST0000001000+00006139+00000+0001T   00006139+0000001605          1400 SZ6510               1CZ
109949002109949903-000200     109949006009826020234SWT CHOC RP CHOCO 23G  0000001000+00000788+00000+0001T   00000788+0000001605          1400 SZ6150               1CZ
109949003109949018-000170     109949006001023775528MUG OCC. LOVE 2PC MINI 0000001000+00002192+00000+0001T   00002192+0000001605          1400 SZ6515               1CZ
109949004109949112-116038     109949006009681820246TCS CARRIER BAG MIDI   0000001000+00000035+00000+0001T   00000035+0000001605          1400 SZ6090               1CZ
109950000109950               109950               170213EZ     1400+00000+EZ0000009556+0000009556+000000000+000001340+0000010890+0000000006+I20000000000+0000010890+Z
109950001109950903-000200     109950006009826020234SWT CHOC RP CHOCO 23G  0000001000+00000788+00000+0001T   00000788+0000001607          1400 SZ6150               1CZ
109950002109950018-000170     109950006001023775528MUG OCC. LOVE 2PC MINI 0000001000+00002192+00000+0001T   00002192+0000001607          1400 SZ6515               1CZ
109950003109950039-809558     109950006003000344376CANDLE PILLAR 12CM 4AST0000001000+00006139+00000+0001T   00006139+0000001607          1400 SZ6510               1CZ
109950004109950080-000133     109950006003000535613CARD&ENV MINI ASTD DSGN0000001000+00000437+00000+0001T   00000437+0000001607          1400 SZ6112               1CZ
109951000109951               109951               170213EZ     1400+00000+EZ0000002630+0000002630+000000000+000000369+0000002990+0000000009+I20000000000+0000002990+Z
109951001109951079-000254     109951006002923016407ART APRON ASSTD        0000001000+00002630+00000+0001T   00002630+0000001610          1400 SZ6130               1CZ
109952000109952               109952               170213EZ     1400+00000+EZ0000008801+0000008801+000000000+000001234+0000010035+0000000000+I40000010035+0000000000+Z
109952001109952031-005853     109952006003000442416P/FRAME WDN TWIN HEARTS0000001000+00003507+00000+0001T   00003507+0000001615          1400 SZ6510               1CZ
109952002109952077-000382     109952006003000247820GIFT-BAG MED 18X23CM   0000001000+00001753+00000+0001T   00001753+0000001615          1400 SZ6112               1CZ
109952003109952077-000351     109952006003000139033GIFT-BAG 18X23CM E/D P 0000001000+00001753+00000+0001T   00001753+0000001615          1400 SZ6112               1CZ
109952004109952077-000455     109952006003000285389G/BAG METALLIC LRG SOL 0000001000+00001753+00000+0001T   00001753+0000001615          1400 SZ6112               1CZ
109952005109952112-116038     109952006009681820246TCS CARRIER BAG MIDI   0000001000+00000035+00000+0001T   00000035+0000001615          1400 SZ6090               1CZ
109953000109953               109953               170213EZ     1400+00000+EZ0000003507+0000003507+000000000+000000491+0000003990+0000000008+I20000000000+0000003990+Z
109953001109953079-000214     109953006001023420053ART-SET  PNT+CRAYN+PENS0000001000+00003507+00000+0001T   00003507+0000001617          1400 SZ6130               1CZ
109954000109954               109954               170213EZ     1400+00000+EZ0000002678+0000002678+000000000+000000376+0000003050+0000000004+I20000000000+0000003050+Z
109954001109954266-003012     109954006001023786128BOYS P/SET ARCHERY 4pc 0000001000+00002630+00000+0001T   00002630+0000001618          1400 SZ6710               1CZ
109954002109954112-116069     109954006009681820277TCS CARRIER BAG JUMBO  0000001000+00000048+00000+0001T   00000048+0000001618          1400 SZ6090               1CZ
109955000109955               109955               170213EZ     1400+00000+EZ0000003539+0000003539+000000000+000000497+0000004030+0000000006+I20000000000+0000004030+Z
109955001109955077-000151     109955006008766114676GIFT-WRAP C/PHANE ASSTD0000004000+00000876+00000+0001T   00000876+0000001624          1400 SZ6112               1CZ
109955002109955112-116038     109955006009681820246TCS CARRIER BAG MIDI   0000001000+00000035+00000+0001T   00000035+0000001624          1400 SZ6090               1CZ
109956000109956               109956               170213EZ     1400+00000+EZ0000006661+0000006661+000000000+000000935+0000007590+0000000006+I20000000000+0000007590+Z
109956001109956036-000063     109956006009654960436COATHANGERS VIRGIN 5PCE0000002000+00001753+00000+0001T   00001753+0000001625          1400 SZ6212               1CZ
109956002109956039-000100     10995600600300060614625CM WHITE CANDLE 6PC  0000001000+00002630+00000+0001T   00002630+0000001625          1400 SZ6510               1CZ
109956003109956903-000151     109956006009803374411SWT SML RND R/BOW LOLLY0000001000+00000525+00000+0001T   00000525+0000001625          1400 SZ6150               1CZ
109957000109957               109957               170213EZ     1400+00000+EZ0000008770+0000008770+000000000+000001228+0000009998+0000000000+I40000009998+0000000000+Z
109957001109957206-000180     109957006003000631223TEA INFUSER TEAMAN     0000002000+00004385+00000+0001T   00004385+0000001629          1400 SZ6321               1CZ
109958000109958               109958               170213EZ     1400+00000+EZ0000002630+0000002630+000000000+000000369+0000002990+0000000009+I20000000000+0000002990+Z
109958001109958079-000282     109958006001023493309PAINT TUBS POSTER 12COL0000001000+00002630+00000+0001T   00002630+0000001629          1400 SZ6130               1CZ
109959000109959               109959               170213EZ     1400+00000+EZ0000002630+0000002630+000000000+000000369+0000002990+0000000009+I20000000000+0000002990+Z
109959001109959077-000270     109959006003000395453GIFT-BAG PPR JMB 33X45 0000001000+00002630+00000+0001T   00002630+0000001630          1400 SZ6112               1CZ
109960000109960               109960               170213EZ     1400+00000+EZ0000002630+0000002630+000000000+000000369+0000002990+0000000009+I20000000000+0000002990+Z
109960001109960082-000340     109960006003000649037LENS CLOTH MOIST 30PC  0000001000+00002630+00000+0001T   00002630+0000001630          1400 SZ6160               1CZ
109961000109961               109961               170213EZ     1400+00000+EZ0000001753+0000001753+000000000+000000246+0000001990+0000000009+I20000000000+0000001990+Z
109961001109961077-000299-A   109961006003000670888GIFT-BAG PAPER JMB LOVE0000001000+00001753+00000+0001T   00001753+0000001631          1400 SZ6112               1CZ
109962000109962               109962               170213EZ     1400+00000+EZ0000003945+0000003945+000000000+000000553+0000004490+0000000008+I20000000000+0000004490+Z
109962001109962089-000192-A   109962006001023901774KEY-CHAIN ACRYLIC      0000001000+00000876+00000+0001T   00000876+0000001631          1400 SZ6205               1CZ
109962002109962089-000005     109962006003000094806KEY CHAIN CARDS MTL    0000001000+00003069+00000+0001T   00003069+0000001631          1400 SZ6205               1CZ
109963000109963               109963               170213EZ     1400+00000+EZ0000000876+0000000876+000000000+000000123+0000000990+0000000009+I20000000000+0000000990+Z
109963001109963077-000408     109963006003000145218G/BAG PP 15X21X7CM     0000001000+00000876+00000+0001T   00000876+0000001632          1400 SZ6112               1CZ
109964000109964               109964               170213EZ     1400+00000+EZ0000004420+0000004420+000000000+000000619+0000005030+0000000009+I20000000000+0000005030+Z
109964001109964368-000001     109964006003000097982Plush Bear 25cm        0000001000+00004385+00000+0001T   00004385+0000001636          1400 SZ6745               1CZ
109964002109964112-116038     109964006009681820246TCS CARRIER BAG MIDI   0000001000+00000035+00000+0001T   00000035+0000001636          1400 SZ6090               1CZ
109965000109965               109965               170213EZ     1400+00000+EZ0000002630+0000002630+000000000+000000369+0000002990+0000000009+I20000000000+0000002990+Z
109965001109965077-000270     109965006003000395453GIFT-BAG PPR JMB 33X45 0000001000+00002630+00000+0001T   00002630+0000001637          1400 SZ6112               1CZ
109966000109966               109966               170213EZ     1400+00000+EZ0000000700+0000000700+000000000+000000098+0000000790+0000000008+I20000000000+0000000790+Z
109966001109966567-010543     109966009781743008102PIXIE MY LITTLE PONY   0000001000+00000700+00000+0001T   00000876+0008131638          1400 SZ6757               1CZ
109967000109967               109967               170213EZ     1400+00000+EZ0000005875+0000005875+000000000+000000823+0000006690+0000000008+I20000000000+0000006690+Z
109967001109967031-080508     109967006001023802415P/FRAME PL 22X11CM LOVE0000001000+00004385+00000+0001T   00004385+0000001647          1400 SZ6510               1CZ
109967002109967077-000299     109967006003000395576G/BAG 32x25cm LRG LOVE 0000001000+00001490+00000+0001T   00001490+0000001647          1400 SZ6112               1CZ
109968000109968               109968               170213EZ     1400+00000+EZ0000000048+0000000048+000000000+000000007+0000000050+0000000005+I20000000000+0000000050+Z
109968001109968112-116069     109968006009681820277TCS CARRIER BAG JUMBO  0000001000+00000048+00000+0001T   00000048+0000001648          1400 SZ6090               1CZ
109969000109969               109969               170213EZ     1400+00000+EZ0000001051+0000001051+000000000+000000148+0000001190+0000000009+I20000000000+0000001190+Z
109969001109969033-000125     109969006009654960658COMBS GENTS MINI 2PC   0000001000+00001051+00000+0001T   00001051+0000001649          1400 SZ6200               1CZ
109970000109970               109970               170213EZ     1400+00000+EZ0000007063+0000007063+000000000+000000990+0000008050+0000000003+I20000000000+0000008050+Z
109970001109970077-000270     109970006003000395453GIFT-BAG PPR JMB 33X45 0000001000+00002630+00000+0001T   00002630+0000001650          1400 SZ6112               1CZ
109970002109970031-080508     109970006001023802415P/FRAME PL 22X11CM LOVE0000001000+00004385+00000+0001T   00004385+0000001650          1400 SZ6510               1CZ
109970003109970112-116069     109970006009681820277TCS CARRIER BAG JUMBO  0000001000+00000048+00000+0001T   00000048+0000001650          1400 SZ6090               1CZ
109971000109971               109971               170213EZ     1400+00000+EZ0000003507+0000003507+000000000+000000491+0000003990+0000000008+I20000000000+0000003990+Z
109971001109971267-000233     109971006001023688576PUZZLE 48pc EDUCATIONAL0000001000+00003507+00000+0001T   00003507+0000001657          1400 SZ6755               1CZ
109972000109972               109972               170213EZ     1400+00000+EZ0000005120+0000005120+000000000+000000717+0000005830+0000000007+I20000000000+0000005830+Z
109972001109972018-000127     109972006001023380289MUG OCC STRAIGHT LOVE  0000001000+00001578+00000+0001T   00001753+0006471659          1400 SZ6515               1CZ
109972002109972112-116038     109972006009681820246TCS CARRIER BAG MIDI   0000001000+00000035+00000+0001T   00000035+0000001659          1400 SZ6090               1CZ
109972003109972031-000923     109972006001023669933P/FRAME BLK W/WORDS    0000001000+00003507+00000+0001T   00003507+0000001659          1400 SZ6510               1CZ
109973000109973               109973               170213EZ     1400+00000+EZ0000005208+0000005208+000000000+000000730+0000005930+0000000008+I20000000000+0000005930+Z
109973001109973032-000500     109973006003000591152MIRROR WALL 28x10cm    0000001000+00004385+00000+0001T   00004385+0000001702          1400 SZ6510               1CZ
109973002109973112-116038     109973006009681820246TCS CARRIER BAG MIDI   0000001000+00000035+00000+0001T   00000035+0000001702          1400 SZ6090               1CZ
109973003109973903-000200     109973006009826020234SWT CHOC RP CHOCO 23G  0000001000+00000788+00000+0001T   00000788+0000001702          1400 SZ6150               1CZ
109974000109974               109974               170213EZ     1400+00000+EZ0000001490+0000001490+000000000+000000209+0000001690+0000000009+I20000000000+0000001690+Z
109974001109974019-071610     109974006001023904560PEBBLES WATER GEMS 10g 0000001000+00001490+00000+0001T   00001490+0000001703          1400 SZ6510               1CZ
109975000109975               109975               170213EZ     1400+00000+EZ0000000832+0000000832+000000000+000000117+0000000940+0000000009+I20000000000+0000000940+Z
109975001109975159-000150-B   109975006003000058440SOAP-BOX PL ASSORTED   0000001000+00000832+00000+0001T   00000832+0000001706          1400 SZ6200               1CZ
109976000109976               109976               170213EZ     1400+00000+EZ0000002750+0000002750+000000000+000000386+0000003130+0000000006+I20000000000+0000003130+Z
109976001109976903-000200     109976006009826020234SWT CHOC RP CHOCO 23G  0000001000+00000788+00000+0001T   00000788+0000001712          1400 SZ6150               1CZ
109976002109976903-000194     109976006009826020616SWT CHOC RP LOLLY 25G  0000001000+00001314+00000+0001T   00001314+0000001712          1400 SZ6150               1CZ
109976003109976007-000555     109976006001023848239MEMO-PAD MINI LOVE     0000001000+00000613+00000+0001T   00000613+0000001712          1400 SZ6130               1CZ
109976004109976112-116038     109976006009681820246TCS CARRIER BAG MIDI   0000001000+00000035+00000+0001T   00000035+0000001712          1400 SZ6090               1CZ
109977000109977               109977               170213EZ     1400+00000+EZ0000009696+0000009696+000000000+000001358+0000011050+0000000004+I20000000000+0000011050+Z
109977001109977112-116069     109977006009681820277TCS CARRIER BAG JUMBO  0000001000+00000048+00000+0001T   00000048+0000001718          1400 SZ6090               1CZ
109977002109977024-000107     109977006001023422071MUFFIN-PAN 12-CUP      0000001000+00009648+00000+0001T   00009648+0000001718          1400 SZ6300               1CZ
109978000109978               109978               170213EZ     1400+00000+EZ0000010309+0000010309+000000000+000001444+0000011750+0000000003+I20000000000+0000011750+Z
109978001109978077-000299     109978006003000395576G/BAG 32x25cm LRG LOVE 0000001000+00001490+00000+0001T   00001490+0000001720          1400 SZ6112               1CZ
109978002109978001-091415     109978006003000329113W/GLS OCC. LOVE 2PC 2800000001000+00008771+00000+0001T   00009648+0006471720          1400 SZ6515               1CZ
109978003109978112-116069     109978006009681820277TCS CARRIER BAG JUMBO  0000001000+00000048+00000+0001T   00000048+0000001720          1400 SZ6090               1CZ
109979000109979               109979               170213EZ     1400+00000+EZ0000008771+0000008771+000000000+000001228+0000009990+0000000009+I20000000000+0000009990+Z
109979001109979368-000614     109979006001023705808PLUSH LOVE 30cm        0000001000+00008771+00000+0001T   00008771+0000001720          1400 SZ6745               1CZ
109980000109980               109980               170213EZ     1400+00000+EZ0000010522+0000010522+000000000+000001474+0000011990+0000000006+I20000000000+0000011990+Z
109980001109980077-000302     109980008010410010195GIFT-BAG 18X23CM E/D   0000001000+00000876+00000+0001T   00000876+0000001723          1400 SZ6112               1CZ
109980002109980368-000049     109980006003000536955PLUSH BEAR 15cm LOVE   0000002000+00004385+00000+0001T   00004385+0000001723          1400 SZ6745               1CZ
109980003109980077-000302     109980008010410010195GIFT-BAG 18X23CM E/D   0000001000+00000876+00000+0001T   00000876+0000001723          1400 SZ6112               1CZ
109981000109981               109981               170213EZ     1400+00000+EZ0000001490+0000001490+000000000+000000209+0000001699+0000000000+I40000001699+0000000000+Z
109981001109981077-000452     109981006003000284986G/BAG METALLIC MED EMB 0000001000+00001490+00000+0001T   00001490+0000001724          1400 SZ6112               1CZ
109982000109982               109982               170213EZ     1400+00000+EZ0000009294+0000009294+000000000+000001303+0000010590+0000000007+I20000000000+0000010590+Z
109982001109982077-000324     109982006001023677594GIFT-BAG 33X45CM E/D FL0000001000+00001753+00000+0001T   00001753+0000001727          1400 SZ6112               1CZ
109982002109982903-000155     109982006009803374435SWT LOLLY I LUV U HEART0000001000+00000525+00000+0001T   00000525+0000001727          1400 SZ6150               1CZ
109982003109982562-006275     109982006001023836182EDU BOARD W/MARKER ASST0000001000+00007016+00000+0001T   00007016+0000001727          1400 SZ6755               1CZ
109983000109983               109983               170213EZ     1400+00000+EZ0000000613+0000000613+000000000+000000086+0000000690+0000000009+I20000000000+0000000690+Z
109983001109983077-000317     109983006001023609748GIFT-BAG 11X14CM E/D AN0000001000+00000613+00000+0001T   00000613+0000001728          1400 SZ6112               1CZ
109984000109984               109984               170213EZ     1400+00000+EZ0000017571+0000017571+000000000+000002463+0000020030+0000000004+I20000000000+0000020030+Z
109984001109984002-000097     109984006001023489784CAN-OPENER             0000001000+00006139+00000+0001T   00006139+0000001736          1400 SZ6300               1CZ
109984002109984220-000055     109984006003000352906CUTLERY DOTTED-SPOON 6P0000001000+00003507+00000+0001T   00003507+0000001736          1400 SZ6300               1CZ
109984003109984020-000620     109984006001023629722UTILITY-KNIFE 12cm-BLDE0000003000+00002630+00000+0001T   00002630+0000001736          1400 SZ6300               1CZ
109984004109984112-116038     109984006009681820246TCS CARRIER BAG MIDI   0000001000+00000035+00000+0001T   00000035+0000001736          1400 SZ6090               1CZ
109985000109985               109985               170213EZ     1400+00000+EZ0000002630+0000002630+000000000+000000369+0000002990+0000000009+I20000000000+0000002990+Z
109985001109985079-000254     109985006002923016407ART APRON ASSTD        0000001000+00002630+00000+0001T   00002630+0000001737          1400 SZ6130               1CZ
109986000109986               109986               170213EZ     1400+00000+EZ0000003944+0000003944+000000000+000000553+0000004490+0000000007+I20000000000+0000004490+Z
109986001109986362-000302     109986006003000095469HAIR CLIP LRG GIRLS    0000001000+00001578+00000+0001T   00001578+0000001745          1400 SZ6160               1CZ
109986002109986362-000306     109986006003000450039HAIR BAND SET 18PC     0000001000+00001490+00000+0001T   00001490+0000001745          1400 SZ6160               1CZ
109986003109986362-019375     109986006001023730664HAIR BAND SET 24PCE    0000001000+00000876+00000+0001T   00000876+0000001745          1400 SZ6160               1CZ
109987000109987               109987               170213EZ     1400+00000+EZ0000002892+0000002892+000000000+000000405+0000003290+0000000007+I20000000000+0000003290+Z
109987001109987362-000302     109987006003000095469HAIR CLIP LRG GIRLS    0000001000+00001578+00000+0001T   00001578+0000001745          1400 SZ6160               1CZ
109987002109987903-005000     109987006002580020007SWT CT MALLOW FISH 120g0000001000+00001314+00000+0001T   00001314+0000001745          1400 SZ6150               1CZ
109988000109988               109988               170213EZ     1400+00000+EZ0000002630+0000002630+000000000+000000369+0000002990+0000000009+I20000000000+0000002990+Z
109988001109988492-055602     109988000078257556021SWIM-GOGGLES PLAY      0000001000+00002630+00000+0001T   00002630+0000001749          1400 SZ6787               1CZ
109989000109989               109989               170213EZ     1400+00000+EZ0000003364+0000003364+000000000+000000473+0000003830+0000000007+I20000000000+0000003830+Z
109989001109989077-000010-C   109989006001023123879CREPE-PAPER RED        0000001000+00000788+00000+0001T   00000788+0000001751          1400 SZ6112               1CZ
109989002109989006-000802     109989006003000653553STREAMERS 5-ROLLS 2.5cm0000001000+00001753+00000+0001T   00001753+0000001751          1400 SZ6131               1CZ
109989003109989112-116038     109989006009681820246TCS CARRIER BAG MIDI   0000001000+00000035+00000+0001T   00000035+0000001751          1400 SZ6090               1CZ
109989004109989077-000010-C   109989006001023123879CREPE-PAPER RED        0000001000+00000788+00000+0001T   00000788+0000001751          1400 SZ6112               1CZ
109990000109990               109990               170213EZ     1400+00000+EZ0000001753+0000001753+000000000+000000246+0000001990+0000000009+I20000000000+0000001990+Z
109990001109990903-000215     109990006002099001214SWT GS MALLOW TWIST PAC0000001000+00001753+00000+0001T   00001753+0000001751          1400 SZ6150               1CZ
109991000109991               109991               170213EZ     1400+00000+EZ0000003944+0000003944+000000000+000000553+0000004490+0000000007+I20000000000+0000004490+Z
109991001109991903-005002     109991006002580020021SWT MALLOW SNAKE 120g  0000001000+00001314+00000+0001T   00001314+0000001753          1400 SZ6150               1CZ
109991002109991565-000890     109991006003000322107NOVELTY HIBOUNCE BALL  0000001000+00002630+00000+0001T   00002630+0000001753          1400 SZ6745               1CZ
109992000109992               109992               170213EZ     1400+00000+EZ0000001489+0000001489+000000000+000000209+0000001698+0000000000+I40000001698+0000000000+Z
109992001109992077-000317     109992006001023609748GIFT-BAG 11X14CM E/D AN0000001000+00000613+00000+0001T   00000613+0000001756          1400 SZ6112               1CZ
109992002109992903-003080     109992005907029004673SWT SNACK STIX CHOC 50g0000001000+00000876+00000+0001T   00000876+0000001756          1400 SZ6150               1CZ
109993000109993               109993               170213EZ     1400+00000+EZ0000000876+0000000876+000000000+000000123+0000000990+0000000009+I20000000000+0000000990+Z
109993001109993903-003080     109993005907029004673SWT SNACK STIX CHOC 50g0000001000+00000876+00000+0001T   00000876+0000001758          1400 SZ6150               1CZ
109994000109994               109994               170213EZ     1400+00000+EZ0000002629+0000002629+000000000+000000369+0000002990+0000000008+I20000000000+0000002990+Z
109994001109994077-000248     109994006003000160693GIFT-BOW GIANT PULL BOW0000001000+00000876+00000+0001T   00001314+0008151801          1400 SZ6112               1CZ
109994002109994566-000040     109994006003000142316SCRAPBOOK 12xDESIGN AST0000001000+00001753+00000+0001T   00002630+0008151801          1400 SZ6130               1CZ
109995000109995               109995               170213EZ     1400+00000+EZ0000008627+0000008627+000000000+000001208+0000009835+0000000000+I40000009835+0000000000+Z
109995001109995031-000844     109995006001023851789P/FRAME WDN WORDS 2ASS 0000001000+00003507+00000+0001T   00003507+0000001807          1400 SZ6510               1CZ
109995002109995018-005009     109995006001023725608MUG W/PLUSH-BEAR LOVE  0000001000+00003507+00000+0001T   00003507+0000001807          1400 SZ6515               1CZ
109995003109995077-000303     109995006001023593757GIFT-BAG PAPER MED     0000001000+00001578+00000+0001T   00001578+0000001807          1400 SZ6112               1CZ
109995004109995112-116038     109995006009681820246TCS CARRIER BAG MIDI   0000001000+00000035+00000+0001T   00000035+0000001807          1400 SZ6090               1CZ
A17021300                                          09145376EZSLAVE 1                       SZ61IC
A17021301                                          10523097EZSLAVE 1                       SZ61IC
A17021302                                          10581260EZSLAVE 1                       SZ62IC
C10990700                                          170213EZ079-009702-D   10152184SLAVE 1     SZ61IC0000000000+0000000000+0010000001000+
M17021301                              IT          EZATT:IT                                          LAST TILL SLIP NO                               FOR SLAVE 1-109995                              QUEENSTOWN(EZ)                                  THANK YOU
M17021391                              CASH        EZSLAVE 1                       Z-REPORT No.   597TOTAL (Sales - Refunds)           4889.22       CASH TO BE BANKED                 4102.70       DEBIT CARDS                          0.00       CREDIT CARDS                       786.52       Z-READING                         4889.22       AIRTIME DEBIT CARD SALES             0.00       AIRTIME CARD SALES                   0.00       OVERS/UNDERS                         0.00       AIRTIME CASH SALES                   0.00       GIFT CARDS                           0.00       GIFT CARD CASH SALES                 0.00       T O T A L  CASH PAYOUTS              0.00                                                                                                                                                                                                                                                                                                                                                      Z
M17021392                              CASH        EZABSENT                                                                                                                                                                                          ANNUAL LEAVE                                                                                                                                                                                    DAY OFF                                                                                                                                                                                         COMMENTS          EZ                                                                                                                                                                                                                                                                                                                                                                           Z
Y17021300                                          EZ00000000429339+000089
ZEZ17021319363 SLAVE 1      SALES DATA                     NEXT INVOICE NO.  109996 0597
X EZ Slave 1 First invoice 109907 170213 Last invoice 109995 170213 Next invoice 109996 Total number of records 000000277 clbackup completed 19:36:21
