967741000967741               967741               170213FC     1400+00000+FC0000003276+0000003276+000000000+000000463+0000003730+0000000009+I20000000000+0000003730+Z
967741001967741006-000166-H   967741006003000608096BALLOONS HELIUM 6PC WHT0000001000+00001314+00000+0001T   00001314+0000000753          1400 SA3131               1BZ
967741002967741006-000172-H   967741006003000610211BALLOONS METALLIC RED  0000009000+00000218+00000+0001T   00000218+0000000753          1400 SA3131               1BZ
967742000967742               967742               170213FC     1400+00000+FC0000012314+0000012314+000000000+000001725+0000014030+0000000009+I20000000000+0000014030+Z
967742001967742368-000113     967742006001023780874PLUSH BLINGED LOVE 30cm0000001000+00012279+00000+0001T   00012279+0000000846          1400 SA3745               1BZ
967742002967742112-116038     967742006009681820246TCS CARRIER BAG MIDI   0000001000+00000035+00000+0001T   00000035+0000000846          1400 SA3090               1BZ
967743000967743               967743               170213FC     1400+00000+FC0000000437+0000000437+000000000+000000062+0000000490+0000000009+I20000000000+0000000490+Z
967743001967743083-000049     967743004891035200024CIG-LIGHTER DISPOSABLE 0000001000+00000437+00000+0001T   00000437+0000000859          1400 SA3315               1BZ
967744000967744               967744               170213FC     1400+00000+FC0000001578+0000001578+000000000+000000221+0000001790+0000000009+I20000000000+0000001790+Z
967744001967744077-000303     967744006001023593757GIFT-BAG PAPER MED     0000001000+00001578+00000+0001T   00001578+0000000900          1400 SA3112               1BZ
967745000967745               967745               170213FC     1400+00000+FC0000000876+0000000876+000000000+000000123+0000000990+0000000009+I20000000000+0000000990+Z
967745001967745077-000150-D   967745006003000054343GIFT-WRAP CELLPHANE CLR0000001000+00000876+00000+0001T   00000876+0000000902          1400 SA3112               1BZ
967746000967746               967746               170213FC     1400+00000+FC0000013716+0000013716+000000000+000001924+0000015640+0000000000+I20000000000+0000015640+Z
967746001967746080-000127     967746006003000424351VALENTINES DAY 36x24CM 0000002000+00002192+00000+0001T   00002192+0000000915          1400 SA3112               1BZ
967746002967746080-000124     967746006003000297733CARD & ENV VALENTINES  0000001000+00001578+00000+0001T   00001578+0000000915          1400 SA3112               1BZ
967746003967746566-000362     967746006003000583065STICKER LETTER & NUMBER0000001000+00001753+00000+0001T   00001753+0000000915          1400 SA3130               1BZ
967746004967746566-000367     967746006003000645558STICKER WINDOW DECOR   0000001000+00002630+00000+0001T   00002630+0000000915          1400 SA3130               1BZ
967746005967746903-000183     967746006003000451043SWT LB HEART LOLLY     0000001000+00000393+00000+0001T   00000393+0000000915          1400 SA3150               1BZ
967746006967746903-000201     967746006009826020371SWT CHOC HEART 30g     0000001000+00000788+00000+0001T   00000788+0000000915          1400 SA3150               1BZ
967746007967746903-000194     967746006009826020616SWT CHOC RP LOLLY 25G  0000001000+00001314+00000+0001T   00001314+0000000915          1400 SA3150               1BZ
967746008967746071-005213     967746006001023690371CELLOTAPE 12mmx33m     0000001000+00000876+00000+0001T   00000876+0000000915          1400 SA3130               1BZ
967747000967747               967747               170213FC     1400+00000+FC0000003365+0000003365+000000000+000000472+0000003837+0000000000+I40000003837+0000000000+Z
967747001967747251-000003     967747006003000266159TAPE D/S 18x300mm V/PCK0000001000+00002630+00000+0001T   00002630+0000000926          1400 SA3810               1BZ
967747002967747018-000177     967747006001023797513MUG MINI LOVE ASSTD    0000001000+00000700+00000+0001T   00000700+0000000926          1400 SA3515               1BZ
967747003967747112-116038     967747006009681820246TCS CARRIER BAG MIDI   0000001000+00000035+00000+0001T   00000035+0000000926          1400 SA3090               1BZ
967748000967748               967748               170213FC     1400+00000+FC0000003504+0000003504+000000000+000000492+0000003990+0000000006+I20000000000+0000003990+Z
967748001967748252-000011     967748006001023475190CURTN-GLIDER ACETYL x500000001000+00000876+00000+0001T   00000876+0000000928          1400 SA3810               1BZ
967748002967748252-000013     967748006001023488107CURTN-HOOK R6 ACETYLx500000002000+00000876+00000+0001T   00000876+0000000928          1400 SA3810               1BZ
967748003967748252-000011     967748006001023475190CURTN-GLIDER ACETYL x500000001000+00000876+00000+0001T   00000876+0000000928          1400 SA3810               1BZ
967749000967749               967749               170213FC     1400+00000+FC0000002226+0000002226+000000000+000000312+0000002530+0000000008+I20000000000+0000002530+Z
967749001967749080-000124     967749006003000297733CARD & ENV VALENTINES  0000001000+00001578+00000+0001T   00001578+0000001054          1400 SA3112               1BZ
967749002967749304-001011     967749006001023806727FLWR ROSE RED W/BEAR   0000001000+00000613+00000+0001T   00000788+0006471054          1400 SA3510               1BZ
967749003967749112-116038     967749006009681820246TCS CARRIER BAG MIDI   0000001000+00000035+00000+0001T   00000035+0000001054          1400 SA3090               1BZ
967750000967750               967750               170213FC     1400+00000+FC0000003506+0000003506+000000000+000000492+0000003990+0000000008+I20000000000+0000003990+Z
967750001967750200-003026     967750006003000276448REFUSE BAGS 10PCE GREEN0000002000+00001753+00000+0001T   00001753+0000001102          1400 SA3214               1BZ
967751000967751               967751               170213FC     1400+00000+FC0000007488+0000007488+000000000+000001049+0000008537+0000000000+I40000008537+0000000000+Z
967751001967751106-001119     967751006003000449972WATER BOTTLE ALUM 750ml0000001000+00003946+00000+0001T   00005262+0008171103          1400 SA3210               1BZ
967751002967751564-000017     967751006003000654468BUBBLE NOVELTY WAND 29 0000001000+00003507+00000+0001T   00003507+0000001103          1400 SA3131               1BZ
967751003967751112-116038     967751006009681820246TCS CARRIER BAG MIDI   0000001000+00000035+00000+0001T   00000035+0000001103          1400 SA3090               1BZ
967752000967752               967752               170213FC     1400+00000+FC0000002103+0000002103+000000000+000000295+0000002390+0000000008+I20000000000+0000002390+Z
967752001967752903-000499     967752006001704012492SWT CHOC MALLOWS 50g   0000001000+00001227+00000+0001T   00001227+0000001109          1400 SA3150               1BZ
967752002967752903-003080     967752005907029004673SWT SNACK STIX CHOC 50g0000001000+00000876+00000+0001T   00000876+0000001109          1400 SA3150               1BZ
967753000967753               967753               170213FC     1400+00000+FC0000010555+0000010555+000000000+000001481+0000012036+0000000000+I40000012036+0000000000+Z
967753001967753366-006103     967753006001023786944DRESS UP FACE PAINT SET0000004000+00002630+00000+0001T   00002630+0000001213          1400 SA3131               1BZ
967753002967753112-116038     967753006009681820246TCS CARRIER BAG MIDI   0000001000+00000035+00000+0001T   00000035+0000001213          1400 SA3090               1BZ
967754000967754               967754               170213FC     1400+00000+FC0000000525+0000000525+000000000+000000074+0000000590+0000000009+I20000000000+0000000590+Z
967754001967754002-021040     967754006001023812216PARTY-PICKS 100PCE     0000001000+00000525+00000+0001T   00000525+0000001213          1400 SA3300               1BZ
967755000967755               967755               170213FC     1400+00000+FC0000003331+0000003331+000000000+000000467+0000003790+0000000008+I20000000000+0000003790+Z
967755001967755080-000113     967755006003000237449CARD&ENVLPE - LOVE     0000001000+00001753+00000+0001T   00001753+0000001219          1400 SA3112               1BZ
967755002967755077-000303     967755006001023593757GIFT-BAG PAPER MED     0000001000+00001578+00000+0001T   00001578+0000001219          1400 SA3112               1BZ
967756000967756               967756               170213FC     1400+00000+FC0000002630+0000002630+000000000+000000369+0000002990+0000000009+I20000000000+0000002990+Z
967756001967756006-006019     967756006001023908193PARTY-SPRAY GLITTER    0000001000+00002630+00000+0001T   00002630+0000001222          1400 SA3131               1BZ
967757000967757               967757               170213FC     1400+00000+FC0000000613+0000000613+000000000+000000086+0000000690+0000000009+I20000000000+0000000690+Z
967757001967757047-000001-BB  967757006001023723536INS-TAPE BLACK 18mmx10m0000001000+00000613+00000+0001T   00000613+0000001223          1400 SA3880               1BZ
967758000967758               967758               170213FC     1400+00000+FC0000007016+0000007016+000000000+000000983+0000007990+0000000009+I20000000000+0000007990+Z
967758001967758562-006275     967758006001023836182EDU BOARD W/MARKER ASST0000001000+00007016+00000+0001T   00007016+0000001234          1400 SA3755               1BZ
967759000967759               967759               170213FC     1400+00000+FC0000002227+0000002227+000000000+000000312+0000002539+0000000000+I40000002539+0000000000+Z
967759001967759016-006517     967759006003000351626S/JAR GLS CHECK 650ML  0000001000+00002192+00000+0001T   00002192+0000001236          1400 SA3300               1BZ
967759002967759112-116038     967759006009681820246TCS CARRIER BAG MIDI   0000001000+00000035+00000+0001T   00000035+0000001236          1400 SA3090               1BZ
967760000967760               967760               170213FC     1400+00000+FC0000006139+0000006139+000000000+000000860+0000006990+0000000009+I20000000000+0000006990+Z
967760001967760261-003821     967760006003000398713GUN HAND COWBOY PLAYSET0000001000+00006139+00000+0001T   00006139+0000001237          1400 SA3710               1BZ
967761000967761               967761               170213FC     1400+00000+FC0000001753+0000001753+000000000+000000246+0000001990+0000000009+I20000000000+0000001990+Z
967761001967761077-000908     967761006003000410927G/WRAP 700mmx1m FLOWER 0000001000+00001753+00000+0001T   00001753+0000001244          1400 SA3112               1BZ
967762000967762               967762               170213FC     1400+00000+FC0000005295+0000005295+000000000+000000742+0000006037+0000000000+I40000006037+0000000000+Z
967762001967762065-006041     967762006001023712974TAMBOURINE 15cm P/BAND 0000001000+00001753+00000+0001T   00001753+0000001245          1400 SA3745               1BZ
967762002967762065-006040     967762006003000118984BELL WDN HANDLE 19cm   0000001000+00003507+00000+0001T   00003507+0000001245          1400 SA3745               1BZ
967762003967762112-116038     967762006009681820246TCS CARRIER BAG MIDI   0000001000+00000035+00000+0001T   00000035+0000001245          1400 SA3090               1BZ
967763000967763               967763               170213FC     1400+00000+FC0000001139+0000001139+000000000+000000160+0000001290+0000000009+I20000000000+0000001290+Z
967763001967763046-000014     967763006001023725387BATTERIES SIZE:AAA 4PCE0000001000+00001139+00000+0001T   00001139+0000001246          1400 SA3312               1BZ
967764000967764               967764               170213FC     1400+00000+FC0000001314+0000001314+000000000+000000184+0000001490+0000000008+I20000000000+0000001490+Z
967764001967764004-071280     967764006003000129959WRITABLE-CD SINGLE     0000001000+00001314+00000+0001T   00001314+0000001255          1400 SA3310               1BZ
967765000967765               967765               170213FC     1400+00000+FC0000007127+0000007127+000000000+000001004+0000008131+0000000000+I40000008131+0000000000+Z
967765001967765903-000201     967765006009826020371SWT CHOC HEART 30g     0000009000+00000788+00000+0001T   00000788+0000001302          1400 SA3150               1BZ
967765002967765112-116038     967765006009681820246TCS CARRIER BAG MIDI   0000001000+00000035+00000+0001T   00000035+0000001302          1400 SA3090               1BZ
967766000967766               967766               170213FC     1400+00000+FC0000001314+0000001314+000000000+000000184+0000001490+0000000008+I20000000000+0000001490+Z
967766001967766078-009100     967766006008741002349ALL-CLEAR GLUE 25ml CRD0000001000+00001314+00000+0001T   00001314+0000001305          1400 SA3810               1BZ
967767000967767               967767               170213FC     1400+00000+FC0000004385+0000004385+000000000+000000614+0000004990+0000000009+I20000000000+0000004990+Z
967767001967767105-008005     967767006002580009484STORAGE CONTAINER 7.5L 0000001000+00004385+00000+0001T   00004385+0000001335          1400 SA3210               1BZ
967768000967768               967768               170213FC     1400+00000+FC0000006399+0000006399+000000000+000000897+0000007290+0000000006+I20000000000+0000007290+Z
967768001967768018-000136     967768006001023659026MUG OCC LOVE W/PLUSH   0000001000+00003507+00000+0001T   00003507+0000001336          1400 SA3515               1BZ
967768002967768304-001204     967768006001023737984FLOWER OCC. TEDDY/ROSES0000001000+00001402+00000+0001T   00001490+0006471336          1400 SA3510               1BZ
967768003967768077-000299     967768006003000395576G/BAG 32x25cm LRG LOVE 0000001000+00001490+00000+0001T   00001490+0000001336          1400 SA3112               1BZ
967769000967769               967769               170213FC     1400+00000+FC0000004031+0000004031+000000000+000000566+0000004597+0000000000+I40000004597+0000000000+Z
967769001967769903-000610     967769006003000610518SWEET JUMBO BUBBLE GUM 0000001000+00001753+00000+0001T   00001753+0000001357          1400 SA3150               1BZ
967769002967769903-000087     967769006001704000161SWT SPECKLED-EGGS 50G  0000002000+00001139+00000+0001T   00001139+0000001357          1400 SA3150               1BZ
967770000967770               967770               170213FC     1400+00000+FC0000004645+0000004645+000000000+000000651+0000005290+0000000006+I20000000000+0000005290+Z
967770001967770306-001130-A   967770006003000359271FIRSTAID SUPPORT ANKLE 0000001000+00001753+00000+0001T   00001753+0000001358          1400 SA3200               1BZ
967770002967770088-000103     967770006008766127102INCENSE 20PCE ASSTD    0000001000+00000700+00000+0001T   00000700+0000001358          1400 SA3212               1BZ
967770003967770088-000104     967770006001023765444INCENSE SET ASSTD FRAG 0000001000+00002192+00000+0001T   00002192+0000001358          1400 SA3212               1BZ
967771000967771               967771               170213FC     1400+00000+FC0000005262+0000005262+000000000+000000737+0000005990+0000000009+I20000000000+0000005990+Z
967771001967771301-085003     967771006003000420827ORN OCCASION LOVE KEY  0000001000+00005262+00000+0001T   00005262+0000001358          1400 SA3505               1BZ
967772000967772               967772               170213FC     1400+00000+FC0000001753+0000001753+000000000+000000246+0000001990+0000000009+I20000000000+0000001990+Z
967772001967772077-000902     967772006003000410569G/WRAP 700mmx1m BBY/KID0000001000+00001753+00000+0001T   00001753+0000001400          1400 SA3112               1BZ
967773000967773               967773               170213FC     1400+00000+FC0000001490+0000001490+000000000+000000209+0000001690+0000000009+I20000000000+0000001690+Z
967773001967773071-005214     967773006003000152544CELLOTAPE SUPER REFILL 0000001000+00001490+00000+0001T   00001490+0000001401          1400 SA3130               1BZ
967774000967774               967774               170213FC     1400+00000+FC0000003682+0000003682+000000000+000000516+0000004190+0000000008+I20000000000+0000004190+Z
967774001967774071-000307     967774006003000535118RULER FLEXI 30cm       0000001000+00001490+00000+0001T   00001490+0000001405          1400 SA3130               1BZ
967774002967774071-007064     967774006003000533794P/CASE S/LINE SPACE CAS0000001000+00002192+00000+0001T   00002192+0000001405          1400 SA3130               1BZ
967775000967775               967775               170213FC     1400+00000+FC0000001744+0000001744+000000000+000000248+0000001990+0000000002+I20000000000+0000001990+Z
967775001967775006-000172-A   967775006003000609765BALLOONS METALLIC PINK 0000003000+00000218+00000+0001T   00000218+0000001406          1400 SA3131               1BZ
967775002967775006-000172-H   967775006003000610211BALLOONS METALLIC RED  0000003000+00000218+00000+0001T   00000218+0000001406          1400 SA3131               1BZ
967775003967775006-000172-J   967775006003000610280BALLOONS METALLIC BLACK0000002000+00000218+00000+0001T   00000218+0000001406          1400 SA3131               1BZ
967776000967776               967776               170213FC     1400+00000+FC0000010085+0000010085+000000000+000001412+0000011497+0000000000+I40000011497+0000000000+Z
967776001967776368-000614     967776006001023705808PLUSH LOVE 30cm        0000001000+00008771+00000+0001T   00008771+0000001409          1400 SA3745               1BZ
967776002967776077-000310     967776006001023608635GIFT-BAG 18X23CM GLOSS 0000001000+00001314+00000+0001T   00001314+0000001409          1400 SA3112               1BZ
967777000967777               967777               170213FC     1400+00000+FC0000003945+0000003945+000000000+000000553+0000004490+0000000008+I20000000000+0000004490+Z
967777001967777142-000814     967777006001023183910GLOVES RUBBER  MEDIUM  0000001000+00001753+00000+0001T   00001753+0000001410          1400 SA3810               1BZ
967777002967777002-000740     967777006001023763945GRATER 4-WAY WHITE     0000001000+00002192+00000+0001T   00002192+0000001410          1400 SA3300               1BZ
967778000967778               967778               170213FC     1400+00000+FC0000008409+0000008409+000000000+000001182+0000009590+0000000001+I20000000000+0000009590+Z
967778001967778018-000127     967778006001023380289MUG OCC STRAIGHT LOVE  0000002000+00001578+00000+0001T   00001753+0006471414          1400 SA3515               1BZ
967778002967778903-000151     967778006009803374411SWT SML RND R/BOW LOLLY0000002000+00000525+00000+0001T   00000525+0000001414          1400 SA3150               1BZ
967778004967778077-000011-X   967778006001023809827TISSUE-WRAP SILVER 10PC0000001000+00001753+00000+0001T   00001753+0000001414          1400 SA3112               1BZ
967778005967778080-000133-A   967778006003000647019MINI VALENTINES CARD   0000002000+00000437+00000+0001T   00000437+0000001414          1400 SA3112               1BZ
967778006967778077-000383     967778006003000247943GIFT-BAG 11X14CM S/COL 0000002000+00000788+00000+0001T   00000788+0000001414          1400 SA3112               1BZ
967779000967779               967779               170213FC     1400+00000+FC0000010524+0000010524+000000000+000001474+0000011990+0000000008+I20000000000+0000011990+Z
967779001967779368-000614     967779006001023705808PLUSH LOVE 30cm        0000001000+00008771+00000+0001T   00008771+0000001429          1400 SA3745               1BZ
967779002967779077-000299-A   967779006003000670888GIFT-BAG PAPER JMB LOVE0000001000+00001753+00000+0001T   00001753+0000001429          1400 SA3112               1BZ
967780000967780               967780               170213FC     1400+00000+FC0000001753+0000001753+000000000+000000246+0000001990+0000000009+I20000000000+0000001990+Z
967780001967780080-000111     967780006003000252695CARD&ENVELPE - MUSICAL 0000001000+00001753+00000+0001T   00001753+0000001432          1400 SA3112               1BZ
967781000967781               967781               170213FC     1400+00000+FC0000001753+0000001753+000000000+000000246+0000001999+0000000000+I40000001999+0000000000+Z
967781001967781046-002025-PK2 967781004897006174868BATTERIES CR-2025  2PCE0000001000+00001753+00000+0001T   00001753+0000001447          1400 SA3312               1BZ
967782000967782               967782               170213FC     1400+00000+FC0000003943+0000003943+000000000+000000553+0000004496+0000000000+I40000004496+0000000000+Z
967782001967782006-000102     967782006001023806819BALLOONS W/BOMBS 50PCE 0000001000+00001490+00000+0001T   00001490+0000001448          1400 SA3131               1BZ
967782002967782077-000297     967782006001023869814GIFT BOX OCCASIONS SQRE0000001000+00001753+00000+0001T   00001753+0000001448          1400 SA3112               1BZ
967782003967782903-000070     967782006001704001106SWT TOFFEE CREAMY 35g  0000001000+00000700+00000+0001T   00000700+0000001448          1400 SA3150               1BZ
967783000967783               967783               170213FC     1400+00000+FC0000005262+0000005262+000000000+000000737+0000005990+0000000009+I20000000000+0000005990+Z
967783001967783266-001025     967783006003000108756BOYS TOYS SWORD 75cm   0000001000+00005262+00000+0001T   00005262+0000001449          1400 SA3710               1BZ
967784000967784               967784               170213FC     1400+00000+FC0000004385+0000004385+000000000+000000614+0000004990+0000000009+I20000000000+0000004990+Z
967784001967784007-000578     967784006001023810175NOTES STATIONERY SET   0000001000+00004385+00000+0001T   00004385+0000001456          1400 SA3130               1BZ
967785000967785               967785               170213FC     1400+00000+FC0000003542+0000003542+000000000+000000496+0000004030+0000000008+I20000000000+0000004030+Z
967785001967785018-000136     967785006001023659026MUG OCC LOVE W/PLUSH   0000001000+00003507+00000+0001T   00003507+0000001456          1400 SA3515               1BZ
967785002967785112-116038     967785006009681820246TCS CARRIER BAG MIDI   0000001000+00000035+00000+0001T   00000035+0000001456          1400 SA3090               1BZ
967786000967786               967786               170213FC     1400+00000+FC0000002628+0000002628+000000000+000000369+0000002990+0000000007+I20000000000+0000002990+Z
967786001967786036-000606     967786006003000322213WASHING PEGS PACK 20   0000003000+00000876+00000+0001T   00001314+0008191459          1400 SA3212               1BZ
967787000967787               967787               170213FC     1400+00000+FC0000002192+0000002192+000000000+000000307+0000002490+0000000009+I20000000000+0000002490+Z
967787001967787566-000359     967787006003000582709STICKER BOOK LOVE SPARK0000001000+00002192+00000+0001T   00002192+0000001515          1400 SA3130               1BZ
967788000967788               967788               170213FC     1400+00000+FC0000016614+0000016614+000000000+000002328+0000018942+0000000000+I40000018942+0000000000+Z
967788001967788018-000136     967788006001023659026MUG OCC LOVE W/PLUSH   0000003000+00003507+00000+0001T   00003507+0000001519          1400 SA3515               1BZ
967788002967788077-000310     967788006001023608635GIFT-BAG 18X23CM GLOSS 0000001000+00001314+00000+0001T   00001314+0000001519          1400 SA3112               1BZ
967788003967788077-000303     967788006001023593757GIFT-BAG PAPER MED     0000002000+00001578+00000+0001T   00001578+0000001519          1400 SA3112               1BZ
967788004967788112-116069     967788006009681820277TCS CARRIER BAG JUMBO  0000001000+00000048+00000+0001T   00000048+0000001519          1400 SA3090               1BZ
967788005967788903-000155     967788006009803374435SWT LOLLY I LUV U HEART0000003000+00000525+00000+0001T   00000525+0000001519          1400 SA3150               1BZ
967789000967789               967789               170213FC     1400+00000+FC0000001490+0000001490+000000000+000000209+0000001690+0000000009+I20000000000+0000001690+Z
967789001967789077-000299     967789006003000395576G/BAG 32x25cm LRG LOVE 0000001000+00001490+00000+0001T   00001490+0000001523          1400 SA3112               1BZ
967790000967790               967790               170213FC     1400+00000+FC0000001050+0000001050+000000000+000000148+0000001190+0000000008+I20000000000+0000001190+Z
967790001967790903-000151     967790006009803374411SWT SML RND R/BOW LOLLY0000002000+00000525+00000+0001T   00000525+0000001539          1400 SA3150               1BZ
967791000967791               967791               170213FC     1400+00000+FC0000027137+0000027137+000000000+000003805+0000030940+0000000002+I20000000000+0000030940+Z
967791001967791103-000068     967791006003000630486BAMBOO BASKET RECTANGLE0000001000+00006139+00000+0001T   00006139+0000001541          1400 SA3300               1BZ
967791002967791077-000150-D   967791006003000054343GIFT-WRAP CELLPHANE CLR0000003000+00000876+00000+0001T   00000876+0000001541          1400 SA3112               1BZ
967791003967791089-060027     967791006003000245871KEY-CHAIN HEART 6X6cm  0000001000+00003069+00000+0001T   00003069+0000001541          1400 SA3205               1BZ
967791004967791077-000245     967791006001023759214GIFT-RIBBON METALLICx2 0000001000+00001227+00000+0001T   00001227+0000001541          1400 SA3112               1BZ
967791005967791001-091413     967791006001023669179WINE-GLASS RED WINE    0000002000+00002630+00000+0001T   00002630+0000001541          1400 SA3515               1BZ
967791006967791018-000136     967791006001023659026MUG OCC LOVE W/PLUSH   0000001000+00003507+00000+0001T   00003507+0000001541          1400 SA3515               1BZ
967791007967791039-001023     967791006003000466337CANDLE TEA-LITE METALIC0000001000+00001753+00000+0001T   00001753+0000001541          1400 SA3510               1BZ
967791008967791080-000113     967791006003000237449CARD&ENVLPE - LOVE     0000002000+00001753+00000+0001T   00001753+0000001541          1400 SA3112               1BZ
967791009967791112-116069     967791006009681820277TCS CARRIER BAG JUMBO  0000001000+00000048+00000+0001T   00000048+0000001541          1400 SA3090               1BZ
967792000967792               967792               170213FC     1400+00000+FC0000005262+0000005262+000000000+000000737+0000005990+0000000009+I20000000000+0000005990+Z
967792001967792018-019000     967792006003000557288MUG OCC. LOVE JUMBO    0000001000+00005262+00000+0001T   00005262+0000001618          1400 SA3515               1BZ
967793000967793               967793               170213FC     1400+00000+FC0000009590+0000009590+000000000+000001343+0000010930+0000000003+I20000000000+0000010930+Z
967793001967793077-000310     967793006001023608635GIFT-BAG 18X23CM GLOSS 0000001000+00001314+00000+0001T   00001314+0000001635          1400 SA3112               1BZ
967793002967793018-005009     967793006001023725608MUG W/PLUSH-BEAR LOVE  0000001000+00003507+00000+0001T   00003507+0000001635          1400 SA3515               1BZ
967793003967793018-000127     967793006001023380289MUG OCC STRAIGHT LOVE  0000003000+00001578+00000+0001T   00001753+0006471635          1400 SA3515               1BZ
967793004967793112-116038     967793006009681820246TCS CARRIER BAG MIDI   0000001000+00000035+00000+0001T   00000035+0000001635          1400 SA3090               1BZ
967794000967794               967794               170213FC     1400+00000+FC0000010732+0000010732+000000000+000001504+0000012236+0000000000+I40000012236+0000000000+Z
967794001967794466-072727     967794006003000027712YO-YO NOVELTY ASSTD    0000001000+00001753+00000+0001T   00001753+0000001640          1400 SA3785               1BZ
967794002967794080-000124     967794006003000297733CARD & ENV VALENTINES  0000001000+00001578+00000+0001T   00001578+0000001640          1400 SA3112               1BZ
967794003967794903-000517     967794006001704012768SWT STRAWS FIZZY CHERRY0000001000+00001227+00000+0001T   00001227+0000001640          1400 SA3150               1BZ
967794004967794368-000175     967794006003000270316PLUSH BEAR 4 ASSTD 18CM0000001000+00006139+00000+0001T   00006139+0000001640          1400 SA3745               1BZ
967794005967794112-116038     967794006009681820246TCS CARRIER BAG MIDI   0000001000+00000035+00000+0001T   00000035+0000001640          1400 SA3090               1BZ
967795000967795               967795               170213FC     1400+00000+FC0000005262+0000005262+000000000+000000737+0000005999+0000000000+I40000005999+0000000000+Z
967795001967795035-000013     967795006001023450180UMBRELLA KIDDIES 34cm  0000001000+00005262+00000+0001T   00005262+0000001659          1400 SA3205               1BZ
A17021300                                          09134072FCSLAVE 1                       SA32IC
A17021301                                          09162972FCSLAVE 1                       SA32IC
A17021302                                          09251450FCSLAVE 1                       SA32IC
A17021303                                          14072758FCSLAVE 1                       SA31IC
C96777800                                          170213FC077-000314     14123537SLAVE 1     SA31IC0000000000+0000000000+0030000002000+
C96777900                                          170213FC112-116038     14282792SLAVE 1     SA32IC0000000000+0000000000+0020000001000+
C96777901                                          170213FC001-091415     14283210SLAVE 1     SA32IC0000000000+0000000000+0010000002000+
C96778100                                          170213FC001-091415     14462301SLAVE 1     SA31IC0000000000+0000000000+0010000002000+
C96778101                                          170213FC112-116038     14463208SLAVE 1     SA31IC0000000000+0000000000+0020000001000+
M17021391                              CASH        FCSLAVE 1                       Z-REPORT No.   534TOTAL (Sales - Refunds)           3124.63       CASH TO BE BANKED                 2115.80       DEBIT CARDS                          0.00       CREDIT CARDS                      1008.83       Z-READING                         3124.63       AIRTIME DEBIT CARD SALES             0.00       AIRTIME CARD SALES                   0.00       OVERS/UNDERS                         0.00       AIRTIME CASH SALES                   0.00       GIFT CARDS                           0.00       GIFT CARD CASH SALES                 0.00       T O T A L  CASH PAYOUTS              0.00                                                                                                                                                                                                                                                                                                                                                      Z
M17021392                              CASH        FCABSENT                                                                                                                                                                                          ANNUAL LEAVE                                                                                                                                                                                    DAY OFF                                                                                                                                                                                         COMMENTS                                                                                                                                                                                                                                                                                                                                                                                       Z
Y17021300                                          FC00000000274316+000055
ZFC17021319363 SLAVE 1      SALES DATA                     NEXT INVOICE NO.  967796 0534
X FC Slave 1 First invoice 967741 170213 Last invoice 967795 170213 Next invoice 967796 Total number of records 000000184 clbackup completed 19:36:49
