975667000975667               975667               170213FC     1400+00000+FC0000001308+0000001308+000000000+000000186+0000001490+0000000004+I20000000000+0000001490+Z
975667001975667006-000172-H   975667006003000610211BALLOONS METALLIC RED  0000006000+00000218+00000+0001T   00000218+0000000930          1400 TD7131               2AZ
975668000975668               975668               170213FC     1400+00000+FC0000010524+0000010524+000000000+000001474+0000011990+0000000008+I20000000000+0000011990+Z
975668001975668306-001130-A   975668006003000359271FIRSTAID SUPPORT ANKLE 0000001000+00001753+00000+0001T   00001753+0000000932          1400 TD7200               2AZ
975668002975668012-000006     975668006003000118311MICRO PRESSURE COOKER  0000001000+00008771+00000+0001T   00008771+0000000932          1400 TD7300               2AZ
975669000975669               975669               170213FC     1400+00000+FC0000011402+0000011402+000000000+000001597+0000012990+0000000009+I20000000000+0000012990+Z
975669001975669035-000030     975669006002596030229UMBRELLA GOLF 16-RIB   0000001000+00011402+00000+0001T   00011402+0000000934          1400 TD7205               2AZ
975670000975670               975670               170213FC     1400+00000+FC0000001753+0000001753+000000000+000000246+0000001990+0000000009+I20000000000+0000001990+Z
975670001975670024-091100     975670006001023914224BAKING-CUPS PAPER 100PC0000001000+00001753+00000+0001T   00001753+0000000934          1400 TD7300               2AZ
975671000975671               975671               170213FC     1400+00000+FC0000005260+0000005260+000000000+000000738+0000005990+0000000008+I20000000000+0000005990+Z
975671001975671200-000031-A   975671006003000598717DISPOSABLE ROLL FOIL   0000001000+00002630+00000+0001T   00002630+0000000936          1400 TD7214               2AZ
975671002975671079-013101     975671006001023863706CRAFT SET DIY PIPE-CLNR0000001000+00002630+00000+0001T   00002630+0000000936          1400 TD7130               2AZ
975672000975672               975672               170213FC     1400+00000+FC0000005262+0000005262+000000000+000000737+0000005990+0000000009+I20000000000+0000005990+Z
975672001975672567-010161     975672009780000008516BOOK TOP ASSTD MILLS   0000001000+00005262+00000+0001T   00005262+0000000937          1400 TD7757               2AZ
975673000975673               975673               170213FC     1400+00000+FC0000001227+0000001227+000000000+000000172+0000001390+0000000009+I20000000000+0000001390+Z
975673001975673071-081104-A   975673006003000326662GLUE-STICK 8g CRD-OF-3 0000001000+00001227+00000+0001T   00001227+0000000940          1400 TD7130               2AZ
975674000975674               975674               170213FC     1400+00000+FC0000005260+0000005260+000000000+000000737+0000005990+0000000007+I20000000000+0000005990+Z
975674001975674051-002402     975674006001023518347TRIGGER-SPRAYER  500ml 0000001000+00001753+00000+0001T   00001753+0000000941          1400 TD7820               2AZ
975674002975674146-000430     975674006003000304639SPRAYER START-KIT 4PCE 0000001000+00003507+00000+0001T   00003507+0000000941          1400 TD7820               2AZ
975675000975675               975675               170213FC     1400+00000+FC0000003156+0000003156+000000000+000000442+0000003590+0000000008+I20000000000+0000003590+Z
975675001975675083-000054     975675006001023729071LIGHTER REFILLABLE LED 0000002000+00001578+00000+0001T   00001578+0000000942          1400 TD7315               2AZ
975676000975676               975676               170213FC     1400+00000+FC0000005085+0000005085+000000000+000000712+0000005790+0000000007+I20000000000+0000005790+Z
975676001975676080-000124     975676006003000297733CARD & ENV VALENTINES  0000001000+00001578+00000+0001T   00001578+0000000955          1400 TD7112               2AZ
975676002975676007-000291     975676006003000590131REMINDER NOTES REFILL  0000001000+00003507+00000+0001T   00003507+0000000955          1400 TD7130               2AZ
975677000975677               975677               170213FC     1400+00000+FC0000004951+0000004951+000000000+000000694+0000005640+0000000005+I20000000000+0000005640+Z
975677001975677150-000772     975677006005387000227UTILITY-BOX SMALL      0000003000+00000657+00000+0001T   00000657+0000001010          1400 TD7810               2AZ
975677002975677150-000771     975677006005387003303UTILITY BOX            0000002000+00001490+00000+0001T   00001490+0000001010          1400 TD78102IC            2AZ
975678000975678               975678               170213FC     1400+00000+FC0000015566+0000015566+000000000+000002182+0000017740+0000000008+I20000000000+0000017740+Z
975678001975678158-003000     975678006003000637874FRUIT BASKET CHROME    0000001000+00005262+00000+0001T   00005262+0000001014          1400 TD7300               2AZ
975678002975678133-000010     975678006001023905215CLEANING CLOTHS 6PCE   0000001000+00001753+00000+0001T   00001753+0000001014          1400 TD7212               2AZ
975678003975678112-116069     975678006009681820277TCS CARRIER BAG JUMBO  0000001000+00000048+00000+0001T   00000048+0000001014          1400 TD7090               2AZ
975678004975678027-783000     975678006001023874641SCOURERS RAINBOW 5PCE  0000001000+00001753+00000+0001T   00001753+0000001014          1400 TD7212               2AZ
975678005975678036-000605     975678006001023158611WASHING-PEGS WDN PCK-240000001000+00001490+00000+0001T   00001490+0000001014          1400 TD7212               2AZ
975678006975678105-001032     975678000700371696634CONTAINER FOODSAVER 1.20000001000+00001753+00000+0001T   00001753+0000001014          1400 TD7210               2AZ
975678007975678028-000031     975678006003000270897COOLER-BAG THERMAL 6PK 0000001000+00003507+00000+0001T   00003507+0000001014          1400 TD7305               2AZ
975679000975679               975679               170213FC     1400+00000+FC0000009031+0000009031+000000000+000001266+0000010297+0000000000+I40000010297+0000000000+Z
975679001975679200-003024     975679006001023657299REFUSE BAGS 20PCE BLACK0000001000+00001753+00000+0001T   00001753+0000001016          1400 TD7214               2AZ
975679002975679046-000007     975679006001023814692BATTERIES D ALKALN 2PCE0000001000+00006139+00000+0001T   00006139+0000001016          1400 TD7312               2AZ
975679003975679046-000014     975679006001023725387BATTERIES SIZE:AAA 4PCE0000001000+00001139+00000+0001T   00001139+0000001016          1400 TD7312               2AZ
975680000975680               975680               170213FC     1400+00000+FC0000002192+0000002192+000000000+000000307+0000002490+0000000009+I20000000000+0000002490+Z
975680001975680566-000359     975680006003000582709STICKER BOOK LOVE SPARK0000001000+00002192+00000+0001T   00002192+0000001016          1400 TD7130               2AZ
975681000975681               975681               170213FC     1400+00000+FC0000006521+0000006521+000000000+000000914+0000007430+0000000005+I20000000000+0000007430+Z
975681001975681018-005009     975681006001023725608MUG W/PLUSH-BEAR LOVE  0000001000+00003507+00000+0001T   00003507+0000001023          1400 TD7515               2AZ
975681002975681304-001011     975681006001023806727FLWR ROSE RED W/BEAR   0000001000+00000613+00000+0001T   00000788+0006471023          1400 TD7510               2AZ
975681003975681077-000303     975681006001023593757GIFT-BAG PAPER MED     0000001000+00001578+00000+0001T   00001578+0000001023          1400 TD7112               2AZ
975681004975681903-000200     975681006009826020234SWT CHOC RP CHOCO 23G  0000001000+00000788+00000+0001T   00000788+0000001023          1400 TD7150               2AZ
975681005975681112-116038     975681006009681820246TCS CARRIER BAG MIDI   0000001000+00000035+00000+0001T   00000035+0000001023          1400 TD7090               2AZ
975682000975682               975682               170213FC     1400+00000+FC0000006578+0000006578+000000000+000000921+0000007490+0000000009+I20000000000+0000007490+Z
975682001975682486-002065     975682006003000057030C/ALARM QTZ PL SQUARE  0000001000+00006578+00000+0001T   00006578+0000001026          1400 TD7510               2AZ
975683000975683               975683               170213FC     1400+00000+FC0000001402+0000001402+000000000+000000197+0000001590+0000000009+I20000000000+0000001590+Z
975683001975683046-000011     975683004897006172994BATTERIES SIZE:AA  2PCE0000001000+00001402+00000+0001T   00001402+0000001028          1400 TD7312               2AZ
975684000975684               975684               170213FC     1400+00000+FC0000001753+0000001753+000000000+000000246+0000001990+0000000009+I20000000000+0000001990+Z
975684001975684078-000026     975684006936198407090SUPERGLUE 3,0g GEL     0000001000+00001753+00000+0001T   00001753+0000001029          1400 TD7810               2AZ
975685000975685               975685               170213FC     1400+00000+FC0000001314+0000001314+000000000+000000184+0000001490+0000000008+I20000000000+0000001490+Z
975685001975685046-000012     975685006904708013062BATTERIES AA  CARD-OF-40000001000+00001314+00000+0001T   00001314+0000001038          1400 TD7312               2AZ
975686000975686               975686               170213FC     1400+00000+FC0000002630+0000002630+000000000+000000369+0000002990+0000000009+I20000000000+0000002990+Z
975686001975686007-000588     975686006001023810090NOTES SHOPPING-LIST+RIB0000001000+00002630+00000+0001T   00002630+0000001041          1400 TD7130               2AZ
975687000975687               975687               170213FC     1400+00000+FC0000007453+0000007453+000000000+000001044+0000008490+0000000007+I20000000000+0000008490+Z
975687001975687486-000010     975687006001023544254WALL-CLOCK ROUND 25cm  0000001000+00006139+00000+0001T   00006139+0000001056          1400 TD7510               2AZ
975687002975687046-000012     975687006904708013062BATTERIES AA  CARD-OF-40000001000+00001314+00000+0001T   00001314+0000001056          1400 TD7312               2AZ
975688000975688               975688               170213FC     1400+00000+FC0000000035+0000000035+000000000+000000005+0000000040+0000000000+I20000000000+0000000040+Z
975688001975688112-116038     975688006009681820246TCS CARRIER BAG MIDI   0000001000+00000035+00000+0001T   00000035+0000001056          1400 TD7090               2AZ
975689000975689               975689               170213FC     1400+00000+FC0000001400+0000001400+000000000+000000196+0000001590+0000000006+I20000000000+0000001590+Z
975689001975689564-000012     975689006001023130075BUBBLE BOTTLE MAGIC    0000002000+00000700+00000+0001T   00000700+0000001113          1400 TD7131               2AZ
975690000975690               975690               170213FC     1400+00000+FC0000002364+0000002364+000000000+000000333+0000002697+0000000000+I40000002697+0000000000+Z
975690001975690077-000010-C   975690006001023123879CREPE-PAPER RED        0000003000+00000788+00000+0001T   00000788+0000001117          1400 TD7112               2AZ
975691000975691               975691               170213FC     1400+00000+FC0000010116+0000010116+000000000+000001419+0000011535+0000000000+I40000011535+0000000000+Z
975691001975691560-000107     975691006003000547906DOMESTIC 3PC MINI PETS 0000003000+00001753+00000+0001T   00001753+0000001120          1400 TD7745               2AZ
975691002975691560-000786     975691006003000548026ANIMALS ASSTD NATURAL  0000001000+00002630+00000+0001T   00002630+0000001120          1400 TD7745               2AZ
975691003975691566-000950     975691006003000216048STICKERS 3 STYLES 100PC0000001000+00002192+00000+0001T   00002192+0000001120          1400 TD7130               2AZ
975691004975691112-116038     975691006009681820246TCS CARRIER BAG MIDI   0000001000+00000035+00000+0001T   00000035+0000001120          1400 TD7090               2AZ
975692000975692               975692               170213FC     1400+00000+FC0000003979+0000003979+000000000+000000558+0000004530+0000000007+I20000000000+0000004530+Z
975692001975692018-000129     975692006001023403353MUG OCC. LOVE V-SHAPE  0000001000+00002630+00000+0001T   00002630+0000001121          1400 TD7515               2AZ
975692002975692077-000310     975692006001023608635GIFT-BAG 18X23CM GLOSS 0000001000+00001314+00000+0001T   00001314+0000001121          1400 TD7112               2AZ
975692003975692112-116038     975692006009681820246TCS CARRIER BAG MIDI   0000001000+00000035+00000+0001T   00000035+0000001121          1400 TD7090               2AZ
975693000975693               975693               170213FC     1400+00000+FC0000002192+0000002192+000000000+000000307+0000002490+0000000009+I20000000000+0000002490+Z
975693001975693080-000127     975693006003000424351VALENTINES DAY 36x24CM 0000001000+00002192+00000+0001T   00002192+0000001122          1400 TD7112               2AZ
975694000975694               975694               170213FC     1400+00000+FC0000010738+0000010738+000000000+000001506+0000012244+0000000000+I40000012244+0000000000+Z
975694001975694903-003080     975694005907029004673SWT SNACK STIX CHOC 50g0000002000+00000876+00000+0001T   00000876+0000001124          1400 TD7150               2AZ
975694002975694077-000245     975694006001023759214GIFT-RIBBON METALLICx2 0000001000+00001227+00000+0001T   00001227+0000001124          1400 TD7112               2AZ
975694003975694903-000087     975694006001704000161SWT SPECKLED-EGGS 50G  0000001000+00001139+00000+0001T   00001139+0000001124          1400 TD7150               2AZ
975694004975694006-000166-C   975694006003000516377BALLOONS LRG 6PC PINK  0000001000+00001314+00000+0001T   00001314+0000001124          1400 TD7131               2AZ
975694005975694006-000167-C   975694006003000516971BALLOONS PINK METALLIC 0000001000+00001314+00000+0001T   00001314+0000001124          1400 TD7131               2AZ
975694006975694006-000166-H   975694006003000608096BALLOONS HELIUM 6PC WHT0000001000+00001314+00000+0001T   00001314+0000001124          1400 TD7131               2AZ
975694007975694006-000122     975694006003000457908BALLOONS 6PC PRINTED   0000001000+00002630+00000+0001T   00002630+0000001124          1400 TD7131               2AZ
975694008975694112-116069     975694006009681820277TCS CARRIER BAG JUMBO  0000001000+00000048+00000+0001T   00000048+0000001124          1400 TD7090               2AZ
975695000975695               975695               170213FC     1400+00000+FC0000024075+0000024075+000000000+000003374+0000027440+0000000009+I20000000000+0000027440+Z
975695001975695301-085007     975695006003000673698ORN OCC. LOVE S/PLAQUE 0000001000+00007893+00000+0001T   00007893+0000001126          1400 TD7505               2AZ
975695002975695089-060027     975695006003000245871KEY-CHAIN HEART 6X6cm  0000001000+00003069+00000+0001T   00003069+0000001126          1400 TD7205               2AZ
975695003975695903-000201     975695006009826020371SWT CHOC HEART 30g     0000001000+00000788+00000+0001T   00000788+0000001126          1400 TD7150               2AZ
975695004975695368-000049     975695006003000536955PLUSH BEAR 15cm LOVE   0000001000+00004385+00000+0001T   00004385+0000001126          1400 TD7745               2AZ
975695005975695018-019000     975695006003000557288MUG OCC. LOVE JUMBO    0000001000+00005262+00000+0001T   00005262+0000001126          1400 TD7515               2AZ
975695006975695077-000270     975695006003000395453GIFT-BAG PPR JMB 33X45 0000001000+00002630+00000+0001T   00002630+0000001126          1400 TD7112               2AZ
975695007975695112-116069     975695006009681820277TCS CARRIER BAG JUMBO  0000001000+00000048+00000+0001T   00000048+0000001126          1400 TD7090               2AZ
975696000975696               975696               170213FC     1400+00000+FC0000005083+0000005083+000000000+000000713+0000005790+0000000006+I20000000000+0000005790+Z
975696001975696031-000857     975696006001023852144P/FRAME PL BROWN 13X18 0000001000+00003946+00000+0001T   00003946+0000001129          1400 TD7510               2AZ
975696002975696018-000177     975696006001023797513MUG MINI LOVE ASSTD    0000001000+00000700+00000+0001T   00000700+0000001129          1400 TD7515               2AZ
975696003975696080-000133-A   975696006003000647019MINI VALENTINES CARD   0000001000+00000437+00000+0001T   00000437+0000001129          1400 TD7112               2AZ
975697000975697               975697               170213FC     1400+00000+FC0000007927+0000007927+000000000+000001110+0000009030+0000000007+I20000000000+0000009030+Z
975697001975697018-000136     975697006001023659026MUG OCC LOVE W/PLUSH   0000001000+00003507+00000+0001T   00003507+0000001130          1400 TD7515               2AZ
975697002975697031-080508     975697006001023802415P/FRAME PL 22X11CM LOVE0000001000+00004385+00000+0001T   00004385+0000001130          1400 TD7510               2AZ
975697003975697112-116038     975697006009681820246TCS CARRIER BAG MIDI   0000001000+00000035+00000+0001T   00000035+0000001130          1400 TD7090               2AZ
975698000975698               975698               170213FC     1400+00000+FC0000012600+0000012600+000000000+000001776+0000014370+0000000006+I20000000000+0000014370+Z
975698001975698903-000155     975698006009803374435SWT LOLLY I LUV U HEART0000024000+00000525+00000+0001T   00000525+0000001132          1400 TD7150               2AZ
975699000975699               975699               170213FC     1400+00000+FC0000001753+0000001753+000000000+000000246+0000001990+0000000009+I20000000000+0000001990+Z
975699001975699200-003024     975699006001023657299REFUSE BAGS 20PCE BLACK0000001000+00001753+00000+0001T   00001753+0000001133          1400 TD7214               2AZ
975700000975700               975700               170213FC     1400+00000+FC0000001314+0000001314+000000000+000000184+0000001490+0000000008+I20000000000+0000001490+Z
975700001975700077-000310     975700006001023608635GIFT-BAG 18X23CM GLOSS 0000001000+00001314+00000+0001T   00001314+0000001135          1400 TD7112               2AZ
975701000975701               975701               170213FC     1400+00000+FC0000004420+0000004420+000000000+000000619+0000005030+0000000009+I20000000000+0000005030+Z
975701001975701112-116038     975701006009681820246TCS CARRIER BAG MIDI   0000001000+00000035+00000+0001T   00000035+0000001149          1400 TD7090               2AZ
975701002975701024-000003     975701006001023462206S/BURNER COVERS ASSTD  0000001000+00004385+00000+0001T   00004385+0000001149          1400 TD7300               2AZ
975702000975702               975702               170213FC     1400+00000+FC0000002628+0000002628+000000000+000000369+0000002990+0000000007+I20000000000+0000002990+Z
975702001975702903-000494     975702006001704009911SWT GUMMY TEENY TEDDIES0000003000+00000876+00000+0001T   00000876+0000001158          1400 TD7150               2AZ
975703000975703               975703               170213FC     1400+00000+FC0000003507+0000003507+000000000+000000491+0000003990+0000000008+I20000000000+0000003990+Z
975703001975703079-000286     975703006001023797032FINGER-PAINT 4PCE      0000001000+00003507+00000+0001T   00003507+0000001159          1400 TD7130               2AZ
975704000975704               975704               170213FC     1400+00000+FC0000000437+0000000437+000000000+000000062+0000000490+0000000009+I20000000000+0000000490+Z
975704001975704080-000133     975704006003000535613CARD&ENV MINI ASTD DSGN0000001000+00000437+00000+0001T   00000437+0000001312          1400 TD7112               2AZ
975705000975705               975705               170213FC     1400+00000+FC0000000876+0000000876+000000000+000000123+0000000990+0000000009+I20000000000+0000000990+Z
975705001975705077-000151     975705006008766114676GIFT-WRAP C/PHANE ASSTD0000001000+00000876+00000+0001T   00000876+0000001322          1400 TD7112               2AZ
975706000975706               975706               170213FC     1400+00000+FC0000002629+0000002629+000000000+000000369+0000002990+0000000008+I20000000000+0000002990+Z
975706001975706006-000214-B   975706006003000311170P/BOY JNR INVITE 6PCE  0000001000+00001490+00000+0001T   00001490+0000001344          1400 TD7131               2AZ
975706002975706039-000322     975706006001023524157B/CANDLES W/HOLDERS 24 0000001000+00001139+00000+0001T   00001139+0000001344          1400 TD7510               2AZ
975707000975707               975707               170213FC     1400+00000+FC0000009011+0000009011+000000000+000001264+0000010275+0000000000+I40000010275+0000000000+Z
975707001975707368-000175     975707006003000270316PLUSH BEAR 4 ASSTD 18CM0000001000+00006139+00000+0001T   00006139+0000001350          1400 TD7745               2AZ
975707002975707903-000012     975707006002099007308SWT MALLOW S/BERRY     0000002000+00000437+00000+0001T   00000437+0000001350          1400 TD7150               2AZ
975707003975707112-116038     975707006009681820246TCS CARRIER BAG MIDI   0000001000+00000035+00000+0001T   00000035+0000001350          1400 TD7090               2AZ
975707004975707903-000843     975707008693029031067SWT GUMMY JELAXY 80G   0000002000+00000964+00000+0001T   00000964+0000001350          1400 TD7150               2AZ
975707005975707112-116038     975707006009681820246TCS CARRIER BAG MIDI   0000001000+00000035+00000+0001T   00000035+0000001350          1400 TD7090               2AZ
975708000975708               975708               170213FC     1400+00000+FC0000002227+0000002227+000000000+000000312+0000002530+0000000009+I20000000000+0000002530+Z
975708001975708031-000878-C   975708006001023799043P/FRAME 20x25cm PL-SLID0000001000+00002192+00000+0001T   00002192+0000001351          1400 TD7510               2AZ
975708002975708112-116038     975708006009681820246TCS CARRIER BAG MIDI   0000001000+00000035+00000+0001T   00000035+0000001351          1400 TD7090               2AZ
975709000975709               975709               170213FC     1400+00000+FC0000000876+0000000876+000000000+000000123+0000000990+0000000009+I20000000000+0000000990+Z
975709001975709077-000314     975709006003000181148GIFT-BAG 11X14CM MATT  0000001000+00000876+00000+0001T   00000876+0000001354          1400 TD7112               2AZ
975710000975710               975710               170213FC     1400+00000+FC0000010559+0000010559+000000000+000001479+0000012038+0000000000+I40000012038+0000000000+Z
975710001975710024-000078     975710006001023849168SIEVE FLOUR 16cm PL-RIM0000001000+00004385+00000+0001T   00004385+0000001401          1400 TD7300               2AZ
975710002975710002-003725     975710006001023849557COLANDER S/S 24x10cm   0000001000+00006139+00000+0001T   00006139+0000001401          1400 TD7300               2AZ
975710003975710112-116038     975710006009681820246TCS CARRIER BAG MIDI   0000001000+00000035+00000+0001T   00000035+0000001401          1400 TD7090               2AZ
975711000975711               975711               170213FC     1400+00000+FC0000002628+0000002628+000000000+000000368+0000002990+0000000006+I20000000000+0000002990+Z
975711001975711566-001212     975711000721129014166STICKERS MICRO ASSTD   0000004000+00000657+00000+0001T   00000657+0000001509          1400 TD7130               2AZ
975712000975712               975712               170213FC     1400+00000+FC0000004769+0000004769+000000000+000000668+0000005430+0000000007+I20000000000+0000005430+Z
975712001975712200-000092     975712006003000576739PICNIC PAPER PLATES 23c0000001000+00001227+00000+0001T   00001227+0000001511          1400 TD7214               2AZ
975712002975712562-000020     975712006003000600861EDU PLAY DOUGH 60g 4PC 0000001000+00003507+00000+0001T   00003507+0000001511          1400 TD7755               2AZ
975712003975712112-116038     975712006009681820246TCS CARRIER BAG MIDI   0000001000+00000035+00000+0001T   00000035+0000001511          1400 TD7090               2AZ
975713000975713               975713               170213FC     1400+00000+FC0000002717+0000002717+000000000+000000381+0000003090+0000000008+I20000000000+0000003090+Z
975713001975713567-014133     975713006003000560103BOOK COLOURING 48 PAGE 0000001000+00001490+00000+0001T   00001490+0000001532          1400 TD7757               2AZ
975713002975713079-000010     975713006001023173409P/CRAYONS 12-COL SHORT 0000001000+00001227+00000+0001T   00001227+0000001532          1400 TD7130               2AZ
975714000975714               975714               170213FC     1400+00000+FC0000001753+0000001753+000000000+000000246+0000001990+0000000009+I20000000000+0000001990+Z
975714001975714306-000021-C   975714006003000567294EARBUDS 300PCE IN TUB  0000001000+00001753+00000+0001T   00001753+0000001541          1400 TD7200               2AZ
975715000975715               975715               170213FC     1400+00000+FC0000005259+0000005259+000000000+000000738+0000005990+0000000007+I20000000000+0000005990+Z
975715001975715007-000601     975715006003000541195BOOK COVER ADHESIVE 2M 0000001000+00002630+00000+0001T   00002630+0000001542          1400 TD7130               2DZ
975715002975715077-000314     975715006003000181148GIFT-BAG 11X14CM MATT  0000001000+00000876+00000+0001T   00000876+0000001542          1400 TD7112               2DZ
975715003975715077-000299-A   975715006003000670888GIFT-BAG PAPER JMB LOVE0000001000+00001753+00000+0001T   00001753+0000001542          1400 TD7112               2DZ
975716000975716               975716               170213FC     1400+00000+FC0000002630+0000002630+000000000+000000369+0000002990+0000000009+I20000000000+0000002990+Z
975716001975716124-002023     975716006003000367252BISCUIT TIN HEART SHAPE0000001000+00002630+00000+0001T   00003507+0008171546          1400 TD7300               2AZ
975717000975717               975717               170213FC     1400+00000+FC0000009430+0000009430+000000000+000001321+0000010750+0000000001+I20000000000+0000010750+Z
975717001975717018-005009     975717006001023725608MUG W/PLUSH-BEAR LOVE  0000001000+00003507+00000+0001T   00003507+0000001548          1400 TD7515               2AZ
975717002975717030-000031-A   975717006003000457588PLAQUE W/WORDS ASSTD   0000001000+00004385+00000+0001T   00004823+0006471548          1400 TD7505               2AZ
975717003975717077-000299     975717006003000395576G/BAG 32x25cm LRG LOVE 0000001000+00001490+00000+0001T   00001490+0000001548          1400 TD7112               2AZ
975717004975717112-116069     975717006009681820277TCS CARRIER BAG JUMBO  0000001000+00000048+00000+0001T   00000048+0000001548          1400 TD7090               2AZ
975718000975718               975718               170213FC     1400+00000+FC0000019731+0000019731+000000000+000002764+0000022495+0000000000+I40000022495+0000000000+Z
975718001975718072-020269     975718006009652253585PET POOP-SCOOP-SPADE   0000001000+00007016+00000+0001T   00007016+0000001600          1400 TD7870               2AZ
975718002975718072-020261     975718006003000305131PET DOG-CHEW TYRE SMALL0000001000+00002192+00000+0001T   00002192+0000001600          1400 TD7870               2AZ
975718003975718072-020254     975718006001023775962PET DOG CHEW BALL 6cm  0000001000+00003507+00000+0001T   00003507+0000001600          1400 TD7870               2AZ
975718004975718567-010598     975718009781842058527BOOK DICTIONERY GG AFR 0000001000+00007016+00000+0001T   00007016+0000001600          1400 TD7757               2AZ
975719000975719               975719               170213FC     1400+00000+FC0000001578+0000001578+000000000+000000221+0000001790+0000000009+I20000000000+0000001790+Z
975719001975719018-000127     975719006001023380289MUG OCC STRAIGHT LOVE  0000001000+00001578+00000+0001T   00001753+0006471601          1400 TD7515               2AZ
975720000975720               975720               170213FC     1400+00000+FC0000001839+0000001839+000000000+000000258+0000002090+0000000007+I20000000000+0000002090+Z
975720001975720304-001011     975720006001023806727FLWR ROSE RED W/BEAR   0000003000+00000613+00000+0001T   00000788+0006471605          1400 TD7510               2AZ
975721000975721               975721               170213FC     1400+00000+FC0000005295+0000005295+000000000+000000743+0000006030+0000000008+I20000000000+0000006030+Z
975721001975721072-020350     975721006001023598035PET DOG/CAT BOWL DOUBLE0000002000+00002630+00000+0001T   00002630+0000001613          1400 TD7870               2AZ
975721002975721112-116038     975721006009681820246TCS CARRIER BAG MIDI   0000001000+00000035+00000+0001T   00000035+0000001613          1400 TD7090               2AZ
975722000975722               975722               170213FC     1400+00000+FC0000007927+0000007927+000000000+000001110+0000009037+0000000000+I40000009037+0000000000+Z
975722001975722562-000520     975722006003000112777EDU BLOCKS WDN ALPHABET0000001000+00003507+00000+0001T   00003507+0000001615          1400 TD7755               2AZ
975722002975722469-006610     975722006003000474479B/BLOCKS COGO CARRIAGE 0000001000+00004385+00000+0001T   00004385+0000001615          1400 TD7755               2AZ
975722003975722112-116038     975722006009681820246TCS CARRIER BAG MIDI   0000001000+00000035+00000+0001T   00000035+0000001615          1400 TD7090               2AZ
975723000975723               975723               170213FC     1400+00000+FC0000002630+0000002630+000000000+000000369+0000002990+0000000009+I20000000000+0000002990+Z
975723001975723075-000419     975723006003000675746BAG SHOPPER NON-WOVEN  0000001000+00002630+00000+0001T   00002630+0000001616          1400 TD7160               2AZ
975724000975724               975724               170213FC     1400+00000+FC0000009588+0000009588+000000000+000001343+0000010931+0000000000+I40000010931+0000000000+Z
975724001975724018-000177     975724006001023797513MUG MINI LOVE ASSTD    0000002000+00000700+00000+0001T   00000700+0000001623          1400 TD7515               2AZ
975724002975724903-000087     975724006001704000161SWT SPECKLED-EGGS 50G  0000001000+00001139+00000+0001T   00001139+0000001623          1400 TD7150               2AZ
975724003975724089-000200     975724006003000485840KEY CHAIN POLY LOVE IS 0000001000+00003507+00000+0001T   00004385+0008121623          1400 TD7205               2AZ
975724004975724007-000710     975724006001023909244NOTE BOOK JOURNAL      0000001000+00003507+00000+0001T   00003507+0000001623          1400 TD7130               2AZ
975724005975724112-116038     975724006009681820246TCS CARRIER BAG MIDI   0000001000+00000035+00000+0001T   00000035+0000001623          1400 TD7090               2AZ
975725000975725               975725               170213FC     1400+00000+FC0000001227+0000001227+000000000+000000172+0000001390+0000000009+I20000000000+0000001390+Z
975725001975725077-000245     975725006001023759214GIFT-RIBBON METALLICx2 0000001000+00001227+00000+0001T   00001227+0000001624          1400 TD7112               2AZ
975726000975726               975726               170213FC     1400+00000+FC0000014855+0000014855+000000000+000002081+0000016936+0000000000+I40000016936+0000000000+Z
975726001975726366-006103     975726006001023786944DRESS UP FACE PAINT SET0000001000+00002630+00000+0001T   00002630+0000001626          1400 TD7131               2AZ
975726002975726046-000012-A   975726006003000208296BATTERIES H/POWER SZ:AA0000001000+00002192+00000+0001T   00002192+0000001626          1400 TD7312               2AZ
975726003975726077-000245     975726006001023759214GIFT-RIBBON METALLICx2 0000001000+00001227+00000+0001T   00001227+0000001626          1400 TD7112               2AZ
975726004975726001-091415     975726006003000329113W/GLS OCC. LOVE 2PC 2800000001000+00008771+00000+0001T   00009648+0006471626          1400 TD7515               2AZ
975726005975726112-116038     975726006009681820246TCS CARRIER BAG MIDI   0000001000+00000035+00000+0001T   00000035+0000001626          1400 TD7090               2AZ
975727000975727               975727               170213FC     1400+00000+FC0000004471+0000004471+000000000+000000626+0000005090+0000000007+I20000000000+0000005090+Z
975727001975727903-000843     975727008693029031067SWT GUMMY JELAXY 80G   0000001000+00000964+00000+0001T   00000964+0000001626          1400 TD7150               2AZ
975727002975727007-000324     97572700600968585864125 SHEETS BRIGHTS MARLI0000001000+00003507+00000+0001T   00003507+0000001626          1400 TD7130               2AZ
975728000975728               975728               170213FC     1400+00000+FC0000002664+0000002664+000000000+000000374+0000003030+0000000008+I20000000000+0000003030+Z
975728001975728002-021057     975728006001023812032T/PICKS UMBRELLAS 10PCE0000001000+00000876+00000+0001T   00000876+0000001627          1400 TD7300               2AZ
975728002975728006-000201-A   975728006003000601158PARTY GIRL PLATES/CUP  0000001000+00001753+00000+0001T   00001753+0000001627          1400 TD7131               2AZ
975728003975728112-116038     975728006009681820246TCS CARRIER BAG MIDI   0000001000+00000035+00000+0001T   00000035+0000001627          1400 TD7090               2AZ
975729000975729               975729               170213FC     1400+00000+FC0000019294+0000019294+000000000+000002703+0000021997+0000000000+I40000021997+0000000000+Z
975729001975729077-000270     975729006003000395453GIFT-BAG PPR JMB 33X45 0000001000+00002630+00000+0001T   00002630+0000001631          1400 TD7112               2AZ
975729002975729368-000113     975729006001023780874PLUSH BLINGED LOVE 30cm0000001000+00012279+00000+0001T   00012279+0000001631          1400 TD7745               2AZ
975729003975729006-000190     975729006003000685530BALLOONS LOVE 81x91cm  0000001000+00004385+00000+0001T   00004385+0000001631          1400 TD7131               2AZ
975730000975730               975730               170213FC     1400+00000+FC0000002630+0000002630+000000000+000000369+0000002990+0000000009+I20000000000+0000002990+Z
975730001975730071-001124     975730006001023802873MARKERS WHITEBOARD 3PCE0000001000+00002630+00000+0001T   00002630+0000001637          1400 TD7130               2AZ
975731000975731               975731               170213FC     1400+00000+FC0000005260+0000005260+000000000+000000737+0000005990+0000000007+I20000000000+0000005990+Z
975731001975731077-000299-A   975731006003000670888GIFT-BAG PAPER JMB LOVE0000001000+00001753+00000+0001T   00001753+0000001639          1400 TD7112               2AZ
975731002975731009-001595     975731006001023803450MELAMINE DISH 3-DIV    0000001000+00003507+00000+0001T   00004385+0008151639          1400 TD7210               2AZ
975732000975732               975732               170213FC     1400+00000+FC0000002453+0000002453+000000000+000000344+0000002790+0000000007+I20000000000+0000002790+Z
975732001975732071-002999-A   975732006003000611577PEN STICKBALL 10PCE ASS0000001000+00001753+00000+0001T   00001753+0000001643          1400 TD7130               2AZ
975732002975732903-000126     975732006002099003591SWT ZILLIONS MINT 50G  0000001000+00000700+00000+0001T   00000700+0000001643          1400 TD7150               2AZ
975733000975733               975733               170213FC     1400+00000+FC0000000700+0000000700+000000000+000000098+0000000790+0000000008+I20000000000+0000000790+Z
975733001975733018-000177     975733006001023797513MUG MINI LOVE ASSTD    0000001000+00000700+00000+0001T   00000700+0000001644          1400 TD7515               2AZ
975734000975734               975734               170213FC     1400+00000+FC0000010519+0000010519+000000000+000001475+0000011994+0000000000+I40000011994+0000000000+Z
975734001975734019-071610     975734006001023904560PEBBLES WATER GEMS 10g 0000001000+00001490+00000+0001T   00001490+0000001647          1400 TD7510               2AZ
975734002975734039-000320     975734006001023816153BIRTHDAY-CANDLES 13PCE 0000001000+00002630+00000+0001T   00002630+0000001647          1400 TD7510               2AZ
975734003975734006-000324     975734006001023818393PARTY POPPER`S PCK-OF-60000001000+00001753+00000+0001T   00001753+0000001647          1400 TD7131               2AZ
975734004975734903-002901     975734005996071650655QUICK MILK 5 S/BERRY   0000001000+00001578+00000+0001T   00001578+0000001647          1400 TD7150               2AZ
975734005975734903-003080     975734005907029004673SWT SNACK STIX CHOC 50g0000001000+00000876+00000+0001T   00000876+0000001647          1400 TD7150               2AZ
975734006975734080-000127     975734006003000424351VALENTINES DAY 36x24CM 0000001000+00002192+00000+0001T   00002192+0000001647          1400 TD7112               2AZ
975735000975735               975735               170213FC     1400+00000+FC0000003507+0000003507+000000000+000000491+0000003998+0000000000+I40000003998+0000000000+Z
975735001975735562-000011     975735006003000600984PLAY DOUGH NEON TUBE   0000001000+00003507+00000+0001T   00003507+0000001653          1400 TD7755               2AZ
975736000975736               975736               170213FC     1400+00000+FC0000002980+0000002980+000000000+000000418+0000003390+0000000008+I20000000000+0000003390+Z
975736001975736046-000004     975736006001023606525BATTERY 9VOLT H/POWER  0000002000+00001490+00000+0001T   00001490+0000001654          1400 TD7312               2AZ
975737000975737               975737               170213FC     1400+00000+FC0000010524+0000010524+000000000+000001474+0000011990+0000000008+I20000000000+0000011990+Z
975737001975737031-001009     975737008715055020225PICTURE-FRAME COLLAGE  0000001000+00008771+00000+0001T   00008771+0000001655          1400 TD7510               2AZ
975737002975737077-000309     975737006001023608604GIFT-BAG 25X32CM GLOSS 0000001000+00001753+00000+0001T   00001753+0000001655          1400 TD7112               2AZ
975738000975738               975738               170213FC     1400+00000+FC0000004822+0000004822+000000000+000000676+0000005490+0000000008+I20000000000+0000005490+Z
975738001975738009-001510     975738006001023737878MELAMINE CHIP&DIP 30cm 0000001000+00003069+00000+0001T   00003069+0000001659          1400 TD7210               2AZ
975738002975738077-000308     975738006001023595812GIFT-BAG 33X45CM E/DAY 0000001000+00001753+00000+0001T   00001753+0000001659          1400 TD7112               2AZ
975739000975739               975739               170213FC     1400+00000+FC0000005085+0000005085+000000000+000000712+0000005797+0000000000+I40000005797+0000000000+Z
975739001975739077-000315     975739006003000181186GIFT-BAG 20x28cm MATT  0000001000+00001578+00000+0001T   00001578+0000001703          1400 TD7112               2AZ
975739002975739018-005009     975739006001023725608MUG W/PLUSH-BEAR LOVE  0000001000+00003507+00000+0001T   00003507+0000001703          1400 TD7515               2AZ
975740000975740               975740               170213FC     1400+00000+FC0000001753+0000001753+000000000+000000246+0000001990+0000000009+I20000000000+0000001990+Z
975740001975740200-003026     975740006003000276448REFUSE BAGS 10PCE GREEN0000001000+00001753+00000+0001T   00001753+0000001703          1400 TD7214               2AZ
975741000975741               975741               170213FC     1400+00000+FC0000001753+0000001753+000000000+000000246+0000001990+0000000009+I20000000000+0000001990+Z
975741001975741024-091100     975741006001023914224BAKING-CUPS PAPER 100PC0000001000+00001753+00000+0001T   00001753+0000001717          1400 TD7300               2DZ
975742000975742               975742               170213FC     1400+00000+FC0000002664+0000002664+000000000+000000374+0000003030+0000000008+I20000000000+0000003030+Z
975742001975742077-000299     975742006003000395576G/BAG 32x25cm LRG LOVE 0000001000+00001490+00000+0001T   00001490+0000001722          1400 TD7112               2AZ
975742002975742112-116038     975742006009681820246TCS CARRIER BAG MIDI   0000001000+00000035+00000+0001T   00000035+0000001722          1400 TD7090               2AZ
975742003975742903-000087     975742006001704000161SWT SPECKLED-EGGS 50G  0000001000+00001139+00000+0001T   00001139+0000001722          1400 TD7150               2AZ
975743000975743               975743               170213FC     1400+00000+FC0000008990+0000008990+000000000+000001260+0000010250+0000000000+I20000000000+0000010250+Z
975743001975743077-000299     975743006003000395576G/BAG 32x25cm LRG LOVE 0000001000+00001490+00000+0001T   00001490+0000001732          1400 TD7112               2AZ
975743002975743018-000170     975743006001023775528MUG OCC. LOVE 2PC MINI 0000001000+00002192+00000+0001T   00002192+0000001732          1400 TD7515               2AZ
975743003975743089-000200     975743006003000485840KEY CHAIN POLY LOVE IS 0000001000+00003507+00000+0001T   00004385+0008121732          1400 TD7205               2AZ
975743004975743089-000030     975743006003000575671K/CHAIN LOVE MTL ASSTD 0000001000+00001753+00000+0001T   00001753+0000001732          1400 TD7205               2AZ
975743005975743112-116069     975743006009681820277TCS CARRIER BAG JUMBO  0000001000+00000048+00000+0001T   00000048+0000001732          1400 TD7090               2AZ
975744000975744               975744               170213FC     1400+00000+FC0000006136+0000006136+000000000+000000860+0000006990+0000000006+I20000000000+0000006990+Z
975744001975744018-005009     975744006001023725608MUG W/PLUSH-BEAR LOVE  0000001000+00003507+00000+0001T   00003507+0000001733          1400 TD7515               2AZ
975744002975744089-000030     975744006003000575671K/CHAIN LOVE MTL ASSTD 0000001000+00001753+00000+0001T   00001753+0000001733          1400 TD7205               2AZ
975744003975744903-000520     975744006001704009898SWT GUMMY MINI SOUR 60g0000001000+00000876+00000+0001T   00000876+0000001733          1400 TD7150               2AZ
975745000975745               975745               170213FC     1400+00000+FC0000003542+0000003542+000000000+000000496+0000004030+0000000008+I20000000000+0000004030+Z
975745001975745018-005009     975745006001023725608MUG W/PLUSH-BEAR LOVE  0000001000+00003507+00000+0001T   00003507+0000001738          1400 TD7515               2AZ
975745002975745112-116038     975745006009681820246TCS CARRIER BAG MIDI   0000001000+00000035+00000+0001T   00000035+0000001738          1400 TD7090               2AZ
975746000975746               975746               170213FC     1400+00000+FC0000005310+0000005310+000000000+000000744+0000006050+0000000004+I20000000000+0000006050+Z
975746001975746024-000168-B   975746006003000674916T/PLATE BAKEWARE ROASTE0000001000+00005262+00000+0001T   00005262+0000001740          1400 TD7300               2AZ
975746002975746112-116069     975746006009681820277TCS CARRIER BAG JUMBO  0000001000+00000048+00000+0001T   00000048+0000001740          1400 TD7090               2AZ
975747000975747               975747               170213FC     1400+00000+FC0000000788+0000000788+000000000+000000111+0000000890+0000000009+I20000000000+0000000890+Z
975747001975747077-000383     975747006003000247943GIFT-BAG 11X14CM S/COL 0000001000+00000788+00000+0001T   00000788+0000001741          1400 TD7112               2AZ
975748000975748               975748               170213FC     1400+00000+FC0000019603+0000019603+000000000+000002746+0000022349+0000000000+I40000022349+0000000000+Z
975748001975748304-001204     975748006001023737984FLOWER OCC. TEDDY/ROSES0000001000+00001402+00000+0001T   00001490+0006471752          1400 TD7510               2AZ
975748002975748368-000614     975748006001023705808PLUSH LOVE 30cm        0000001000+00008771+00000+0001T   00008771+0000001752          1400 TD7745               2AZ
975748003975748077-000299     975748006003000395576G/BAG 32x25cm LRG LOVE 0000001000+00001490+00000+0001T   00001490+0000001752          1400 TD7112               2AZ
975748004975748368-000049     975748006003000536955PLUSH BEAR 15cm LOVE   0000001000+00004385+00000+0001T   00004385+0000001752          1400 TD7745               2AZ
975748005975748018-005009     975748006001023725608MUG W/PLUSH-BEAR LOVE  0000001000+00003507+00000+0001T   00003507+0000001752          1400 TD7515               2AZ
975748006975748112-116069     975748006009681820277TCS CARRIER BAG JUMBO  0000001000+00000048+00000+0001T   00000048+0000001752          1400 TD7090               2AZ
975749000975749               975749               170213FC     1400+00000+FC0000004821+0000004821+000000000+000000675+0000005496+0000000000+I40000005496+0000000000+Z
975749001975749077-000310     975749006001023608635GIFT-BAG 18X23CM GLOSS 0000001000+00001314+00000+0001T   00001314+0000001753          1400 TD7112               2AZ
975749002975749018-005009     975749006001023725608MUG W/PLUSH-BEAR LOVE  0000001000+00003507+00000+0001T   00003507+0000001753          1400 TD7515               2AZ
975750000975750               975750               170213FC     1400+00000+FC0000003507+0000003507+000000000+000000491+0000003998+0000000000+I40000003998+0000000000+Z
975750001975750301-085004     975750006003000420469ORN LOVE PLAQUE 21X10CM0000001000+00003507+00000+0001T   00003946+0006471807          1400 TD7505               2AZ
975751000975751               975751               170213FC     1400+00000+FC0000000878+0000000878+000000000+000000123+0000001001+0000000000+I40000001001+0000000000+Z
975751001975751031-000001-A   975751006003000246908P/FRAME GLS LOVE 9X13cm0000001000+00004385+00000+0001T   00004385+0000001809          1400 TD7510               2BZ
975751002975751301-085004     975751006003000420469ORN LOVE PLAQUE 21X10CM0000001000-00003507+00000+0001T   00003946+0006471809          1400 TD75051IC            2 Z
A17021300                                          09174525FCSLAVE 2                       TD72IC
A17021301                                          09252498FCSLAVE 2                       TD72IC
A17021302                                          10374273FCSLAVE 2                       TD72IC
A17021303                                          13593249FCSLAVE 2                       TD71IC
A17021304                                          17061134FCSLAVE 2                       TD72IC
A17021305                                          17540966FCSLAVE 2                       TD71IC
A17021306                                          18005601FCSLAVE 2                       TD71IC
B97567700                                          170213FC150-000771     10095757SLAVE 2     TD72IC0000021000+0000002000+0000000000000+
C97575000                                          170213FC301-085007     18061865SLAVE 2     TD71IC0000000000+0000000000+0010000001000+
M17021391                              CASH        FCSLAVE 2                       Z-REPORT No.   537TOTAL (Sales - Refunds)           5227.05       CASH TO BE BANKED                 3275.90       DEBIT CARDS                          0.00       CREDIT CARDS                      1951.15       Z-READING                         5227.05       AIRTIME DEBIT CARD SALES             0.00       AIRTIME CARD SALES                   0.00       OVERS/UNDERS                         0.00       AIRTIME CASH SALES                   0.00       GIFT CARDS                           0.00       GIFT CARD CASH SALES                 0.00       T O T A L  CASH PAYOUTS              0.00                                                                                                                                                                                                                                                                                                                                                      Z
M17021392                              CASH        FCABSENT                                                                                                                                                                                          ANNUAL LEAVE                                                                                                                                                                                    DAY OFF                                                                                                                                                                                         COMMENTS                                                                                                                                                                                                                                                                                                                                                                                       Z
Y17021300                                          FC00000000462391+000085
ZFC17021319363 SLAVE 2      SALES DATA                     NEXT INVOICE NO.  975752 0537
X FC Slave 2 First invoice 975667 170213 Last invoice 975751 170213 Next invoice 975752 Total number of records 000000286 clbackup completed 19:36:53
