140250000140250               140250               170213FD     1400+00000+FD0000008768+0000008768+000000000+000001228+0000009990+0000000006+I20000000000+0000009990+Z
140250001140250079-013102     140250006003000019601ART+CRAFT DIY PIPE-CLNR0000004000+00002192+00000+0001T   00002192+0000001004          1400 SO3130               1AZ
140251000140251               140251               170213FD     1400+00000+FD0000021549+0000021549+000000000+000003020+0000024560+0000000009+I20000000000+0000024560+Z
140251001140251112-116038     140251006009681820246TCS CARRIER BAG MIDI   0000001000+00000035+00000+0001T   00000035+0000001007          1400 SO3090               1AZ
140251002140251071-001002     140251006003000217540PENCIL-SHARPNER DOUBLE 0000001000+00001578+00000+0001T   00001578+0000001007          1400 SO3130               1AZ
140251003140251071-000672     140251006003000138975STATIONERY CLIPS PAPER 0000001000+00002192+00000+0001T   00002192+0000001007          1400 SO3130               1AZ
140251004140251071-005667     140251006003000153060STAPLER SET MTL W/STPLS0000001000+00003507+00000+0001T   00003507+0000001007          1400 SO3130               1AZ
140251005140251027-009030     140251006002814400100DUSTPAN PL             0000001000+00001402+00000+0001T   00001402+0000001007          1400 SO3212               1AZ
140251006140251007-000160     140251006009685857286NOTE-BOOK A5 SHORTHAND 0000001000+00001227+00000+0001T   00001227+0000001007          1400 SO3130               1AZ
140251007140251368-000049     140251006003000536955PLUSH BEAR 15cm LOVE   0000001000+00004385+00000+0001T   00004385+0000001007          1400 SO3745               1AZ
140251008140251077-000452     140251006003000284986G/BAG METALLIC MED EMB 0000001000+00001490+00000+0001T   00001490+0000001007          1400 SO3112               1AZ
140251009140251080-000127     140251006003000424351VALENTINES DAY 36x24CM 0000001000+00002192+00000+0001T   00002192+0000001007          1400 SO3112               1AZ
140251010140251112-116038     140251006009681820246TCS CARRIER BAG MIDI   0000001000+00000035+00000+0001T   00000035+0000001007          1400 SO3090               1AZ
140251011140251036-000063     140251006009654960436COATHANGERS VIRGIN 5PCE0000002000+00001753+00000+0001T   00001753+0000001007          1400 SO3212               1AZ
140252000140252               140252               170213FD     1400+00000+FD0000014051+0000014051+000000000+000001971+0000016022+0000000000+I40000016022+0000000000+Z
140252001140252006-000166-H   140252006003000608096BALLOONS HELIUM 6PC WHT0000001000+00001314+00000+0001T   00001314+0000001014          1400 SO3131               1AZ
140252002140252006-000166-D   140252006003000516490BALLOONS LRG 6PC RED   0000001000+00001314+00000+0001T   00001314+0000001014          1400 SO3131               1AZ
140252003140252304-001011     140252006001023806727FLWR ROSE RED W/BEAR   0000010000+00000613+00000+0001T   00000788+0006471014          1400 SO3510               1AZ
140252004140252304-001204     140252006001023737984FLOWER OCC. TEDDY/ROSES0000002000+00001402+00000+0001T   00001490+0006471014          1400 SO3510               1AZ
140252005140252077-000245     140252006001023759214GIFT-RIBBON METALLICx2 0000002000+00001227+00000+0001T   00001227+0000001014          1400 SO3112               1AZ
140252006140252112-116038     140252006009681820246TCS CARRIER BAG MIDI   0000001000+00000035+00000+0001T   00000035+0000001014          1400 SO3090               1AZ
140253000140253               140253               170213FD     1400+00000+FD0000005699+0000005699+000000000+000000798+0000006497+0000000000+I40000006497+0000000000+Z
140253001140253368-000049     140253006003000536955PLUSH BEAR 15cm LOVE   0000001000+00004385+00000+0001T   00004385+0000001018          1400 SO3745               1AZ
140253002140253903-000194     140253006009826020616SWT CHOC RP LOLLY 25G  0000001000+00001314+00000+0001T   00001314+0000001018          1400 SO3150               1AZ
140254000140254               140254               170213FD     1400+00000+FD0000001753+0000001753+000000000+000000246+0000001990+0000000009+I20000000000+0000001990+Z
140254001140254080-000116     140254006003000253555CARD&ENVELOPE-HANDMADE 0000001000+00001753+00000+0001T   00001753+0000001024          1400 SO3112               1AZ
140255000140255               140255               170213FD     1400+00000+FD0000012183+0000012183+000000000+000001708+0000013891+0000000000+I40000013891+0000000000+Z
140255001140255077-000270     140255006003000395453GIFT-BAG PPR JMB 33X45 0000001000+00002630+00000+0001T   00002630+0000001044          1400 SO3112               1AZ
140255002140255304-001204     140255006001023737984FLOWER OCC. TEDDY/ROSES0000001000+00001402+00000+0001T   00001490+0006471044          1400 SO3510               1AZ
140255003140255304-000720     140255006001023843050F/BUNCH ROSE 6-HEAD AST0000001000+00002630+00000+0001T   00002630+0000001044          1400 SO3510               1AZ
140255004140255903-000194     140255006009826020616SWT CHOC RP LOLLY 25G  0000001000+00001314+00000+0001T   00001314+0000001044          1400 SO3150               1AZ
140255005140255018-005009     140255006001023725608MUG W/PLUSH-BEAR LOVE  0000001000+00003507+00000+0001T   00003507+0000001044          1400 SO3515               1AZ
140255006140255018-000177     140255006001023797513MUG MINI LOVE ASSTD    0000001000+00000700+00000+0001T   00000700+0000001044          1400 SO3515               1AZ
140256000140256               140256               170213FD     1400+00000+FD0000000876+0000000876+000000000+000000123+0000000990+0000000009+I20000000000+0000000990+Z
140256001140256084-001598     140256006003000576609FOOT FILE PL 22cm      0000001000+00000876+00000+0001T   00000876+0000001044          1400 SO3200               1AZ
140257000140257               140257               170213FD     1400+00000+FD0000011400+0000011400+000000000+000001597+0000012997+0000000000+I40000012997+0000000000+Z
140257001140257368-000049     140257006003000536955PLUSH BEAR 15cm LOVE   0000001000+00004385+00000+0001T   00004385+0000001046          1400 SO3745               1AZ
140257002140257080-000139     140257006003000611690CARD & ENV MINI SET 6PC0000001000+00002192+00000+0001T   00002192+0000001046          1400 SO3112               1AZ
140257003140257301-085001     140257006003000297610ORN WATERBALL LOVE ASST0000001000+00004823+00000+0001T   00004823+0000001046          1400 SO3505               1AZ
140258000140258               140258               170213FD     1400+00000+FD0000002192+0000002192+000000000+000000307+0000002490+0000000009+I20000000000+0000002490+Z
140258001140258046-000012-A   140258006003000208296BATTERIES H/POWER SZ:AA0000001000+00002192+00000+0001T   00002192+0000001047          1400 SO3312               1AZ
140259000140259               140259               170213FD     1400+00000+FD0000008592+0000008592+000000000+000001203+0000009790+0000000005+I20000000000+0000009790+Z
140259001140259018-000136     140259006001023659026MUG OCC LOVE W/PLUSH   0000002000+00003507+00000+0001T   00003507+0000001048          1400 SO3515               1AZ
140259002140259077-000303     140259006001023593757GIFT-BAG PAPER MED     0000001000+00001578+00000+0001T   00001578+0000001048          1400 SO3112               1AZ
140260000140260               140260               170213FD     1400+00000+FD0000006486+0000006486+000000000+000000910+0000007396+0000000000+I40000007396+0000000000+Z
140260001140260039-000108     140260006001023524034TEA-LITE CANDLES 8PCE  0000002000+00001490+00000+0001T   00001490+0000001051          1400 SO3510               1AZ
140260002140260039-001023     140260006003000466337CANDLE TEA-LITE METALIC0000002000+00001753+00000+0001T   00001753+0000001051          1400 SO3510               1AZ
140261000140261               140261               170213FD     1400+00000+FD0000004120+0000004120+000000000+000000578+0000004698+0000000000+I40000004698+0000000000+Z
140261001140261077-000384     140261006003000275243G/BAG HOT STMP 18x23CM 0000001000+00001490+00000+0001T   00001490+0000001208          1400 SO3112               1AZ
140261002140261007-000714     140261006003000227150NOTE-BK A6 WIRO 80SHTS 0000001000+00002630+00000+0001T   00002630+0000001208          1400 SO3130               1AZ
140262000140262               140262               170213FD     1400+00000+FD0000014381+0000014381+000000000+000002015+0000016396+0000000000+I40000016396+0000000000+Z
140262001140262158-000167     140262006003000569588WASTEPAPER-BASKET 26cm 0000002000+00005262+00000+0001T   00005262+0000001212          1400 SO3300               1AZ
140262002140262903-000211     140262006002099001238SWT GS MALLOW ICE CREAM0000001000+00001753+00000+0001T   00001753+0000001212          1400 SO3150               1AZ
140262003140262903-000095     140262006001704011495SWT SPECKLED-EGGS 100G 0000001000+00002104+00000+0001T   00002104+0000001212          1400 SO3150               1AZ
140263000140263               140263               170213FD     1400+00000+FD0000012278+0000012278+000000000+000001720+0000013990+0000000008+I20000000000+0000013990+Z
140263001140263007-000898     140263006001023871947BOOK JOURNAL           0000002000+00006139+00000+0001T   00006139+0000001214          1400 SO3130               1AZ
140264000140264               140264               170213FD     1400+00000+FD0000001753+0000001753+000000000+000000246+0000001990+0000000009+I20000000000+0000001990+Z
140264001140264200-003024     140264006001023657299REFUSE BAGS 20PCE BLACK0000001000+00001753+00000+0001T   00001753+0000001214          1400 SO3214               1AZ
140265000140265               140265               170213FD     1400+00000+FD0000009677+0000009677+000000000+000001355+0000011032+0000000000+I40000011032+0000000000+Z
140265001140265077-000310     140265006001023608635GIFT-BAG 18X23CM GLOSS 0000002000+00001314+00000+0001T   00001314+0000001216          1400 SO3112               1AZ
140265002140265018-005009     140265006001023725608MUG W/PLUSH-BEAR LOVE  0000002000+00003507+00000+0001T   00003507+0000001216          1400 SO3515               1AZ
140265003140265112-116038     140265006009681820246TCS CARRIER BAG MIDI   0000001000+00000035+00000+0001T   00000035+0000001216          1400 SO3090               1AZ
140266000140266               140266               170213FD     1400+00000+FD0000015595+0000015595+000000000+000002186+0000017781+0000000000+I10000002781+0000015000+Z
140266001140266006-000190     140266006003000685530BALLOONS LOVE 81x91cm  0000001000+00004385+00000+0001T   00004385+0000001219          1400 SO3131               1AZ
140266002140266006-000166-C   140266006003000516377BALLOONS LRG 6PC PINK  0000001000+00001314+00000+0001T   00001314+0000001219          1400 SO3131               1AZ
140266003140266006-000166-H   140266006003000608096BALLOONS HELIUM 6PC WHT0000001000+00001314+00000+0001T   00001314+0000001219          1400 SO3131               1AZ
140266004140266006-001000     140266006003000093779HELIUM BALLOON FILL    0000014000+00000613+00000+0001T   00000613+0000001219          1400 SO3131               1AZ
140267000140267               140267               170213FD     1400+00000+FD0000003541+0000003541+000000000+000000496+0000004030+0000000007+I20000000000+0000004030+Z
140267001140267006-000167-C   140267006003000516971BALLOONS PINK METALLIC 0000001000+00001314+00000+0001T   00001314+0000001227          1400 SO3131               1AZ
140267002140267080-000127     140267006003000424351VALENTINES DAY 36x24CM 0000001000+00002192+00000+0001T   00002192+0000001227          1400 SO3112               1AZ
140267003140267112-116038     140267006009681820246TCS CARRIER BAG MIDI   0000001000+00000035+00000+0001T   00000035+0000001227          1400 SO3090               1AZ
140268000140268               140268               170213FD     1400+00000+FD0000003891+0000003891+000000000+000000545+0000004430+0000000006+I20000000000+0000004430+Z
140268001140268174-008034     140268006009654960610TRAVEL BOTTLES 150ml   0000001000+00001928+00000+0001T   00001928+0000001234          1400 SO3205               1AZ
140268002140268174-008032     140268006009654960603TRAVEL BOTTLES 50ml    0000001000+00001928+00000+0001T   00001928+0000001234          1400 SO3205               1AZ
140268003140268112-116038     140268006009681820246TCS CARRIER BAG MIDI   0000001000+00000035+00000+0001T   00000035+0000001234          1400 SO3090               1AZ
140269000140269               140269               170213FD     1400+00000+FD0000001753+0000001753+000000000+000000246+0000001990+0000000009+I20000000000+0000001990+Z
140269001140269077-000308     140269006001023595812GIFT-BAG 33X45CM E/DAY 0000001000+00001753+00000+0001T   00001753+0000001255          1400 SO3112               1AZ
140270000140270               140270               170213FD     1400+00000+FD0000004241+0000004241+000000000+000000595+0000004830+0000000006+I20000000000+0000004830+Z
140270001140270037-000006     140270006003000171996ASHTRAY PL TUB GIANT   0000001000+00002630+00000+0001T   00003069+0008191256          1400 SO3515               1AZ
140270002140270464-000121     140270006003000640492PLAYING CARDS MINI     0000001000+00000700+00000+0001T   00000700+0000001256          1400 SO3785               1AZ
140270003140270083-000295     140270006001023898562LIGHTER-GAS BUTANE 18ml0000001000+00000876+00000+0001T   00000876+0000001256          1400 SO3315               1AZ
140270004140270112-116038     140270006009681820246TCS CARRIER BAG MIDI   0000001000+00000035+00000+0001T   00000035+0000001256          1400 SO3090               1AZ
140271000140271               140271               170213FD     1400+00000+FD0000005260+0000005260+000000000+000000737+0000005997+0000000000+I40000005997+0000000000+Z
140271001140271035-000011     140271006001023806468UMBRELLA KIDDIES +FRILL0000001000+00003507+00000+0001T   00004823+0008151257          1400 SO3205               1AZ
140271002140271903-000908     140271006009802868331SWT YOYO HOT WHEELS    0000001000+00001753+00000+0001T   00001753+0000001257          1400 SO3150               1AZ
140272000140272               140272               170213FD     1400+00000+FD0000004821+0000004821+000000000+000000675+0000005490+0000000006+I20000000000+0000005490+Z
140272001140272018-000136     140272006001023659026MUG OCC LOVE W/PLUSH   0000001000+00003507+00000+0001T   00003507+0000001258          1400 SO3515               1AZ
140272002140272077-000310     140272006001023608635GIFT-BAG 18X23CM GLOSS 0000001000+00001314+00000+0001T   00001314+0000001258          1400 SO3112               1AZ
140273000140273               140273               170213FD     1400+00000+FD0000012749+0000012749+000000000+000001787+0000014530+0000000006+I20000000000+0000014530+Z
140273001140273077-000316     140273006001023609731GIFT-BAG 25X32CM MATT  0000001000+00001753+00000+0001T   00001753+0000001300          1400 SO3112               1AZ
140273002140273077-000309-A   140273006003000671007GIFT-BAG HOLOGRAM JMB  0000001000+00002192+00000+0001T   00002192+0000001300          1400 SO3112               1AZ
140273003140273039-809558     140273006003000344376CANDLE PILLAR 12CM 4AST0000001000+00006139+00000+0001T   00006139+0000001300          1400 SO3510               1AZ
140273004140273018-000129     140273006001023403353MUG OCC. LOVE V-SHAPE  0000001000+00002630+00000+0001T   00002630+0000001300          1400 SO3515               1AZ
140273005140273112-116038     140273006009681820246TCS CARRIER BAG MIDI   0000001000+00000035+00000+0001T   00000035+0000001300          1400 SO3090               1AZ
140274000140274               140274               170213FD     1400+00000+FD0000004822+0000004822+000000000+000000676+0000005490+0000000008+I20000000000+0000005490+Z
140274001140274072-020314     140274006003000605453PET TOY PUP VINYL CHICK0000001000+00003069+00000+0001T   00003069+0000001302          1400 SO3870               1AZ
140274002140274077-000290     140274006001023902023GIFT BOX 26x32x13cm    0000001000+00001753+00000+0001T   00001753+0000001302          1400 SO3112               1AZ
140275000140275               140275               170213FD     1400+00000+FD0000012308+0000012308+000000000+000001725+0000014030+0000000003+I20000000000+0000014030+Z
140275001140275112-116038     140275006009681820246TCS CARRIER BAG MIDI   0000001000+00000035+00000+0001T   00000035+0000001305          1400 SO3090               1AZ
140275002140275903-000619     140275006003000672455SWT LOLLY STR/BRRY 140G0000001000+00001753+00000+0001T   00001753+0000001305          1400 SO3150               1AZ
140275003140275903-000624     140275006003000671793SWEET LOLLY BLU/BRRY   0000001000+00001753+00000+0001T   00001753+0000001305          1400 SO3150               1AZ
140275004140275038-001804     140275006001023766618DOILIES 27cm RND PKT-100000001000+00001753+00000+0001T   00001753+0000001305          1400 SO3300               1AZ
140275005140275079-011526     140275006003000408375GLITTER & SAND ART     0000002000+00003507+00000+0001T   00003507+0000001305          1400 SO3130               1AZ
140276000140276               140276               170213FD     1400+00000+FD0000003507+0000003507+000000000+000000491+0000003990+0000000008+I20000000000+0000003990+Z
140276001140276018-005009     140276006001023725608MUG W/PLUSH-BEAR LOVE  0000001000+00003507+00000+0001T   00003507+0000001306          1400 SO3515               1AZ
140277000140277               140277               170213FD     1400+00000+FD0000008765+0000008765+000000000+000001230+0000009990+0000000005+I20000000000+0000009990+Z
140277001140277003-000250     140277006003000035045ORN DECOR NOVELTY GRASS0000002000+00001753+00000+0001T   00001753+0000001308          1400 SO3505               1AZ
140277002140277077-000308     140277006001023595812GIFT-BAG 33X45CM E/DAY 0000003000+00001753+00000+0001T   00001753+0000001308          1400 SO3112               1AZ
140278000140278               140278               170213FD     1400+00000+FD0000000876+0000000876+000000000+000000123+0000000990+0000000009+I20000000000+0000000990+Z
140278001140278039-000319-3   140278006003000442621B/CANDLES LRG NUMBER-3 0000001000+00000876+00000+0001T   00000876+0000001309          1400 SO3510               1AZ
140279000140279               140279               170213FD     1400+00000+FD0000009118+0000009118+000000000+000001277+0000010395+0000000000+I40000010395+0000000000+Z
140279001140279077-000315     140279006003000181186GIFT-BAG 20x28cm MATT  0000001000+00001578+00000+0001T   00001578+0000001315          1400 SO3112               1AZ
140279002140279903-000843     140279008693029031067SWT GUMMY JELAXY 80G   0000001000+00000964+00000+0001T   00000964+0000001315          1400 SO3150               1AZ
140279003140279903-000504     140279006001704012416SWT CHOC JELLY BEANS   0000001000+00001227+00000+0001T   00001227+0000001315          1400 SO3150               1AZ
140279004140279903-004960     140279008410525221842SWT GUMMY STR/BERRY 50G0000001000+00000964+00000+0001T   00000964+0000001315          1400 SO3150               1AZ
140279005140279368-000001     140279006003000097982Plush Bear 25cm        0000001000+00004385+00000+0001T   00004385+0000001315          1400 SO3745               1AZ
140280000140280               140280               170213FD     1400+00000+FD0000008804+0000008804+000000000+000001234+0000010038+0000000000+I40000010038+0000000000+Z
140280001140280039-000798     140280006001023617774CANDLES TEALITE BOX-50 0000001000+00006139+00000+0001T   00006139+0000001317          1400 SO3510               1AZ
140280002140280039-000100     14028000600300060614625CM WHITE CANDLE 6PC  0000001000+00002630+00000+0001T   00002630+0000001317          1400 SO3510               1AZ
140280003140280112-116038     140280006009681820246TCS CARRIER BAG MIDI   0000001000+00000035+00000+0001T   00000035+0000001317          1400 SO3090               1AZ
140281000140281               140281               170213FD     1400+00000+FD0000001753+0000001753+000000000+000000246+0000001990+0000000009+I20000000000+0000001990+Z
140281001140281006-000120     140281006001023346889BALLOONS 10PC MIX COL  0000001000+00001753+00000+0001T   00001753+0000001318          1400 SO3131               1AZ
140282000140282               140282               170213FD     1400+00000+FD0000001314+0000001314+000000000+000000184+0000001490+0000000008+I20000000000+0000001490+Z
140282001140282077-000310     140282006001023608635GIFT-BAG 18X23CM GLOSS 0000001000+00001314+00000+0001T   00001314+0000001318          1400 SO3112               1AZ
140283000140283               140283               170213FD     1400+00000+FD0000002805+0000002805+000000000+000000393+0000003198+0000000000+I40000003198+0000000000+Z
140283001140283077-000311     140283006001023608666GIFT-BAG 11X14CM GLOSS 0000001000+00000613+00000+0001T   00000613+0000001320          1400 SO3112               1AZ
140283002140283567-004960     140283009780636049147SPF G02 WISKUNDE       0000001000+00002192+00000+0001T   00002192+0000001320          1400 SO3757               1AZ
140284000140284               140284               170213FD     1400+00000+FD0000015785+0000015785+000000000+000002212+0000017990+0000000007+I20000000000+0000017990+Z
140284001140284077-000299-A   140284006003000670888GIFT-BAG PAPER JMB LOVE0000001000+00001753+00000+0001T   00001753+0000001322          1400 SO3112               1AZ
140284002140284018-000129     140284006001023403353MUG OCC. LOVE V-SHAPE  0000001000+00002630+00000+0001T   00002630+0000001322          1400 SO3515               1AZ
140284003140284368-000637     140284006001023874092PLUSH BEAR SLEEPING LOV0000001000+00011402+00000+0001T   00012279+0006471322          1400 SO3745               1AZ
140285000140285               140285               170213FD     1400+00000+FD0000000876+0000000876+000000000+000000123+0000000990+0000000009+I20000000000+0000000990+Z
140285001140285077-000150-D   140285006003000054343GIFT-WRAP CELLPHANE CLR0000001000+00000876+00000+0001T   00000876+0000001323          1400 SO3112               1AZ
140286000140286               140286               170213FD     1400+00000+FD0000007892+0000007892+000000000+000001106+0000008990+0000000008+I20000000000+0000008990+Z
140286001140286077-000908     140286006003000410927G/WRAP 700mmx1m FLOWER 0000001000+00001753+00000+0001T   00001753+0000001324          1400 SO3112               1AZ
140286002140286031-086280     140286006001023862969P/FRAME A4 AND COLLAGE 0000001000+00006139+00000+0001T   00006139+0000001324          1400 SO3510               1AZ
140287000140287               140287               170213FD     1400+00000+FD0000002628+0000002628+000000000+000000368+0000002990+0000000006+I20000000000+0000002990+Z
140287001140287006-000167-C   140287006003000516971BALLOONS PINK METALLIC 0000001000+00001314+00000+0001T   00001314+0000001326          1400 SO3131               1AZ
140287002140287006-000166-H   140287006003000608096BALLOONS HELIUM 6PC WHT0000001000+00001314+00000+0001T   00001314+0000001326          1400 SO3131               1AZ
140288000140288               140288               170213FD     1400+00000+FD0000016835+0000016835+000000000+000002359+0000019194+0000000000+I40000019194+0000000000+Z
140288001140288047-000507     140288006001023684479PLUG-ADAPTOR EURO TWIN 0000001000+00001753+00000+0001T   00001753+0000001333          1400 SO3880               1AZ
140288002140288047-000512-H   140288006001023657473EXT-CORD 3m DBL-J   H&H0000001000+00006578+00000+0001T   00006578+0000001333          1400 SO3880               1AZ
140288003140288071-001102     140288006003000274598MARKER PERM MED 2PCE   0000001000+00001753+00000+0001T   00001753+0000001333          1400 SO3130               1AZ
140288004140288150-000770     140288006005387000128UTILITY BOX MEGA       0000001000+00003244+00000+0001T   00003244+0000001333          1400 SO3810               1AZ
140288005140288105-007800     140288006002923018913STORAGE BOX CLEAR 5.5L 0000001000+00003507+00000+0001T   00003507+0000001333          1400 SO3210               1AZ
140289000140289               140289               170213FD     1400+00000+FD0000007537+0000007537+000000000+000001056+0000008590+0000000003+I20000000000+0000008590+Z
140289001140289018-005009     140289006001023725608MUG W/PLUSH-BEAR LOVE  0000001000+00003507+00000+0001T   00003507+0000001335          1400 SO3515               1AZ
140289002140289077-000310     140289006001023608635GIFT-BAG 18X23CM GLOSS 0000001000+00001314+00000+0001T   00001314+0000001335          1400 SO3112               1AZ
140289003140289903-000844     140289005010478432567SWT CANDY DL LUV HEARTS0000001000+00001314+00000+0001T   00001314+0000001335          1400 SO3150               1AZ
140289004140289304-001204     140289006001023737984FLOWER OCC. TEDDY/ROSES0000001000+00001402+00000+0001T   00001490+0006471335          1400 SO3510               1AZ
140290000140290               140290               170213FD     1400+00000+FD0000008360+0000008360+000000000+000001174+0000009530+0000000004+I20000000000+0000009530+Z
140290001140290112-116038     140290006009681820246TCS CARRIER BAG MIDI   0000001000+00000035+00000+0001T   00000035+0000001339          1400 SO3090               1AZ
140290002140290903-000087     140290006001704000161SWT SPECKLED-EGGS 50G  0000001000+00001139+00000+0001T   00001139+0000001339          1400 SO3150               1AZ
140290003140290200-003026     140290006003000276448REFUSE BAGS 10PCE GREEN0000002000+00001753+00000+0001T   00001753+0000001339          1400 SO3214               1AZ
140290004140290306-000021-A   140290006001023891358EARBUDS COTTON 100PCE  0000001000+00000876+00000+0001T   00000876+0000001339          1400 SO3200               1AZ
140290005140290007-000119     140290006002324004126BOOK COVER PL          0000001000+00001051+00000+0001T   00001051+0000001339          1400 SO3130               1AZ
140290006140290077-000116     140290006003000240777GIFT-WRAP 700mmx2m COL 0000001000+00001753+00000+0001T   00001753+0000001339          1400 SO3112               1AZ
140291000140291               140291               170213FD     1400+00000+FD0000002630+0000002630+000000000+000000369+0000002990+0000000009+I20000000000+0000002990+Z
140291001140291403-000502-A   140291006003000467099M/BANK TIN 8x12.5cm    0000001000+00002630+00000+0001T   00002630+0000001342          1400 SO3510               1AZ
140292000140292               140292               170213FD     1400+00000+FD0000002630+0000002630+000000000+000000369+0000002990+0000000009+I20000000000+0000002990+Z
140292001140292563-000317-G   140292006001023776341SERVIETTES BRIGHT ASSTD0000001000+00002630+00000+0001T   00002630+0000001344          1400 SO3214               1AZ
140293000140293               140293               170213FD     1400+00000+FD0000004856+0000004856+000000000+000000681+0000005530+0000000007+I20000000000+0000005530+Z
140293001140293038-092233     140293006003000328925TABLE-MAT N/SLIP ASST  0000001000+00003069+00000+0001T   00003507+0008191346          1400 SO3300               1AZ
140293002140293105-001010     140293006002580007329LUNCH-BOX 1L  ASSTD    0000002000+00000876+00000+0001T   00000876+0000001346          1400 SO3210               1AZ
140293003140293112-116038     140293006009681820246TCS CARRIER BAG MIDI   0000001000+00000035+00000+0001T   00000035+0000001346          1400 SO3090               1AZ
140294000140294               140294               170213FD     1400+00000+FD0000002190+0000002190+000000000+000000307+0000002490+0000000007+I20000000000+0000002490+Z
140294001140294077-000310     140294006001023608635GIFT-BAG 18X23CM GLOSS 0000001000+00001314+00000+0001T   00001314+0000001347          1400 SO3112               1AZ
140294002140294077-000011-D   140294006001023808554TISSUE-WRAP WHITE 10PCE0000001000+00000876+00000+0001T   00000876+0000001347          1400 SO3112               1AZ
140295000140295               140295               170213FD     1400+00000+FD0000005085+0000005085+000000000+000000712+0000005790+0000000007+I20000000000+0000005790+Z
140295001140295077-000315     140295006003000181186GIFT-BAG 20x28cm MATT  0000001000+00001578+00000+0001T   00001578+0000001348          1400 SO3112               1AZ
140295002140295301-085004     140295006003000420469ORN LOVE PLAQUE 21X10CM0000001000+00003507+00000+0001T   00003946+0006471348          1400 SO3505               1AZ
140296000140296               140296               170213FD     1400+00000+FD0000012279+0000012279+000000000+000001720+0000013990+0000000009+I20000000000+0000013990+Z
140296001140296004-078982     140296006003000667680HEADPHONES FOLDABLE COL0000001000+00012279+00000+0001T   00012279+0000001349          1400 SO3310               1AZ
140297000140297               140297               170213FD     1400+00000+FD0000016661+0000016661+000000000+000002334+0000018990+0000000005+I20000000000+0000018990+Z
140297001140297035-000023     140297006001023898944UMBRELLA WITH PL COVER 0000001000+00007893+00000+0001T   00007893+0000001351          1400 SO3205               1AZ
140297002140297072-020261     140297006003000305131PET DOG-CHEW TYRE SMALL0000004000+00002192+00000+0001T   00002192+0000001351          1400 SO3870               1AZ
140298000140298               140298               170213FD     1400+00000+FD0000005907+0000005907+000000000+000000829+0000006730+0000000006+I20000000000+0000006730+Z
140298001140298112-116038     140298006009681820246TCS CARRIER BAG MIDI   0000001000+00000035+00000+0001T   00000035+0000001353          1400 SO3090               1AZ
140298002140298002-021057     140298006001023812032T/PICKS UMBRELLAS 10PCE0000001000+00000876+00000+0001T   00000876+0000001353          1400 SO3300               1AZ
140298003140298206-000120     140298006003000628308PEELER CARROT SHARPENER0000001000+00001753+00000+0001T   00001753+0000001353          1400 SO3321               1AZ
140298004140298200-000065     140298006001023323675DRINKING-STRAWS 38PCE  0000001000+00000613+00000+0001T   00000613+0000001353          1400 SO3214               1AZ
140298005140298203-006502     140298006003000257454DRINK STIRRERS ASSTD   0000001000+00002630+00000+0001T   00002630+0000001353          1400 SO3300               1AZ
140299000140299               140299               170213FD     1400+00000+FD0000004645+0000004645+000000000+000000651+0000005290+0000000006+I20000000000+0000005290+Z
140299001140299018-000177     140299006001023797513MUG MINI LOVE ASSTD    0000001000+00000700+00000+0001T   00000700+0000001407          1400 SO3515               1AZ
140299002140299080-000127     140299006003000424351VALENTINES DAY 36x24CM 0000001000+00002192+00000+0001T   00002192+0000001407          1400 SO3112               1AZ
140299003140299077-000290     140299006001023902023GIFT BOX 26x32x13cm    0000001000+00001753+00000+0001T   00001753+0000001407          1400 SO3112               1AZ
140300000140300               140300               170213FD     1400+00000+FD0000000613+0000000613+000000000+000000086+0000000690+0000000009+I20000000000+0000000690+Z
140300001140300077-000311     140300006001023608666GIFT-BAG 11X14CM GLOSS 0000001000+00000613+00000+0001T   00000613+0000001413          1400 SO3112               1AZ
140301000140301               140301               170213FD     1400+00000+FD0000003542+0000003542+000000000+000000496+0000004030+0000000008+I20000000000+0000004030+Z
140301001140301018-000136     140301006001023659026MUG OCC LOVE W/PLUSH   0000001000+00003507+00000+0001T   00003507+0000001414          1400 SO3515               1AZ
140301002140301112-116038     140301006009681820246TCS CARRIER BAG MIDI   0000001000+00000035+00000+0001T   00000035+0000001414          1400 SO3090               1AZ
140302000140302               140302               170213FD     1400+00000+FD0000008365+0000008365+000000000+000001172+0000009537+0000000000+I40000009537+0000000000+Z
140302001140302024-000018     140302006001023610232CAKE-DEC S/S NOZZLE    0000001000+00003946+00000+0001T   00003946+0000001419          1400 SO3300               1AZ
140302002140302024-091102     140302006003453000010BAKING-CUP PAPER 50PC  0000002000+00002192+00000+0001T   00002192+0000001419          1400 SO3300               1AZ
140302003140302112-116038     140302006009681820246TCS CARRIER BAG MIDI   0000001000+00000035+00000+0001T   00000035+0000001419          1400 SO3090               1AZ
140303000140303               140303               170213FD     1400+00000+FD0000005262+0000005262+000000000+000000737+0000005990+0000000009+I20000000000+0000005990+Z
140303001140303018-019000     140303006003000557288MUG OCC. LOVE JUMBO    0000001000+00005262+00000+0001T   00005262+0000001419          1400 SO3515               1AZ
140304000140304               140304               170213FD     1400+00000+FD0000004207+0000004207+000000000+000000590+0000004790+0000000007+I20000000000+0000004790+Z
140304001140304903-000481     140304006001704007481SWT MOO MILK-SHAKES 60G0000001000+00000876+00000+0001T   00000876+0000001420          1400 SO3150               1AZ
140304002140304071-003858     140304006001023902276STATIONERY SET PENCIL  0000001000+00002455+00000+0001T   00002455+0000001420          1400 SO3130               1AZ
140304003140304071-003003     140304006003000144525PEN BALL PEN 3PCE BLACK0000001000+00000876+00000+0001T   00000876+0000001420          1400 SO3130               1AZ
140305000140305               140305               170213FD     1400+00000+FD0000003768+0000003768+000000000+000000529+0000004297+0000000000+I40000004297+0000000000+Z
140305001140305048-000859     140305006003000423422TORCH 9 LED PL 3XAAA   0000001000+00001753+00000+0001T   00001753+0000001422          1400 SO3305               1AZ
140305002140305046-000014     140305006001023725387BATTERIES SIZE:AAA 4PCE0000001000+00001139+00000+0001T   00001139+0000001422          1400 SO3312               1AZ
140305003140305046-001225-PK2 140305004897006178361BATTERY LITHIUM CR-12250000001000+00000876+00000+0001T   00000876+0000001422          1400 SO3312               1AZ
140306000140306               140306               170213FD     1400+00000+FD0000003243+0000003243+000000000+000000455+0000003698+0000000000+I40000003698+0000000000+Z
140306001140306039-001023     140306006003000466337CANDLE TEA-LITE METALIC0000001000+00001753+00000+0001T   00001753+0000001427          1400 SO3510               1AZ
140306002140306039-000108     140306006001023524034TEA-LITE CANDLES 8PCE  0000001000+00001490+00000+0001T   00001490+0000001427          1400 SO3510               1AZ
140307000140307               140307               170213FD     1400+00000+FD0000003243-0000003243-000000000+000000455-0000003698-0000000000+I40000003698-0000000000+Z
140307001140307039-000108     140307006001023524034TEA-LITE CANDLES 8PCE  0000001000-00001490+00000+0001T   00001490+0000001432          1400 SO35101IC            1 Z
140307002140307039-001023     140307006003000466337CANDLE TEA-LITE METALIC0000001000-00001753+00000+0001T   00001753+0000001432          1400 SO35101IC            1 Z
140308000140308               140308               170213FD     1400+00000+FD0000003507+0000003507+000000000+000000491+0000003990+0000000008+I20000000000+0000003990+Z
140308001140308562-000011     140308006003000600984PLAY DOUGH NEON TUBE   0000001000+00003507+00000+0001T   00003507+0000001441          1400 SO3755               1AZ
140309000140309               140309               170213FD     1400+00000+FD0000005085+0000005085+000000000+000000712+0000005790+0000000007+I20000000000+0000005790+Z
140309001140309077-000315     140309006003000181186GIFT-BAG 20x28cm MATT  0000001000+00001578+00000+0001T   00001578+0000001443          1400 SO3112               1AZ
140309002140309018-000136     140309006001023659026MUG OCC LOVE W/PLUSH   0000001000+00003507+00000+0001T   00003507+0000001443          1400 SO3515               1AZ
140310000140310               140310               170213FD     1400+00000+FD0000001400+0000001400+000000000+000000196+0000001596+0000000000+I40000001596+0000000000+Z
140310001140310007-000166     140310006009685857316SPIRAL NOTES A6 100PG  0000002000+00000700+00000+0001T   00000700+0000001457          1400 SO3130               1AZ
140311000140311               140311               170213FD     1400+00000+FD0000000788+0000000788+000000000+000000111+0000000890+0000000009+I20000000000+0000000890+Z
140311001140311077-000010-D   140311006001023123886CREPE-PAPER WHITE      0000001000+00000788+00000+0001T   00000788+0000001501          1400 SO3112               1AZ
140312000140312               140312               170213FD     1400+00000+FD0000000876+0000000876+000000000+000000123+0000000990+0000000009+I20000000000+0000000990+Z
140312001140312033-010720     140312006001023678645SAFETY-PINS 50PCE SMALL0000001000+00000876+00000+0001T   00000876+0000001506          1400 SO3200               1AZ
140313000140313               140313               170213FD     1400+00000+FD0000004992+0000004992+000000000+000000700+0000005690+0000000002+I20000000000+0000005690+Z
140313001140313006-000166-F   140313006003000516735BALLOONS LRG 6PC PURPLE0000001000+00001314+00000+0001T   00001314+0000001507          1400 SO3131               1AZ
140313002140313006-001000     140313006003000093779HELIUM BALLOON FILL    0000006000+00000613+00000+0001T   00000613+0000001507          1400 SO3131               1AZ
140314000140314               140314               170213FD     1400+00000+FD0000001753+0000001753+000000000+000000246+0000001990+0000000009+I20000000000+0000001990+Z
140314001140314080-000103     140314006003000236961CARD&ENVLOPE BDAY-MALE 0000001000+00001753+00000+0001T   00001753+0000001519          1400 SO3112               1AZ
140315000140315               140315               170213FD     1400+00000+FD0000003328+0000003328+000000000+000000466+0000003794+0000000000+I40000003794+0000000000+Z
140315001140315077-000310     140315006001023608635GIFT-BAG 18X23CM GLOSS 0000002000+00001314+00000+0001T   00001314+0000001536          1400 SO3112               1AZ
140315002140315018-000177     140315006001023797513MUG MINI LOVE ASSTD    0000001000+00000700+00000+0001T   00000700+0000001536          1400 SO3515               1AZ
140316000140316               140316               170213FD     1400+00000+FD0000004383+0000004383+000000000+000000615+0000004990+0000000008+I20000000000+0000004990+Z
140316001140316566-000007     140316006001023761187S/BOOK SUPER VALUE     0000001000+00001753+00000+0001T   00001753+0000001537          1400 SO3130               1AZ
140316002140316566-100009     140316006003000102914WED STIK EMBOSSED FOIL 0000001000+00002630+00000+0001T   00002630+0000001537          1400 SO3130               1AZ
140317000140317               140317               170213FD     1400+00000+FD0000006921+0000006921+000000000+000000971+0000007890+0000000002+I20000000000+0000007890+Z
140317001140317006-000111     140317006003000519385BALLOONS LARGE 12PCE   0000001000+00002630+00000+0001T   00002630+0000001624          1400 SO3131               1AZ
140317002140317006-001000     140317006003000093779HELIUM BALLOON FILL    0000007000+00000613+00000+0001T   00000613+0000001624          1400 SO3131               1AZ
140318000140318               140318               170213FD     1400+00000+FD0000005262+0000005262+000000000+000000737+0000005990+0000000009+I20000000000+0000005990+Z
140318001140318018-019000     140318006003000557288MUG OCC. LOVE JUMBO    0000001000+00005262+00000+0001T   00005262+0000001700          1400 SO3515               1AZ
140319000140319               140319               170213FD     1400+00000+FD0000001490+0000001490+000000000+000000209+0000001690+0000000009+I20000000000+0000001690+Z
140319001140319077-000452     140319006003000284986G/BAG METALLIC MED EMB 0000001000+00001490+00000+0001T   00001490+0000001700          1400 SO3112               1AZ
140320000140320               140320               170213FD     1400+00000+FD0000006139+0000006139+000000000+000000860+0000006990+0000000009+I20000000000+0000006990+Z
140320001140320368-000104     140320006001023751348PLUSH BEAR RUFFLED-LOOK0000001000+00006139+00000+0001T   00006139+0000001702          1400 SO3745               1AZ
140321000140321               140321               170213FD     1400+00000+FD0000003067+0000003067+000000000+000000430+0000003490+0000000007+I20000000000+0000003490+Z
140321001140321077-000151     140321006008766114676GIFT-WRAP C/PHANE ASSTD0000001000+00000876+00000+0001T   00000876+0000001703          1400 SO3112               1AZ
140321002140321903-000843     140321008693029031067SWT GUMMY JELAXY 80G   0000001000+00000964+00000+0001T   00000964+0000001703          1400 SO3150               1AZ
140321003140321077-000245     140321006001023759214GIFT-RIBBON METALLICx2 0000001000+00001227+00000+0001T   00001227+0000001703          1400 SO3112               1AZ
140322000140322               140322               170213FD     1400+00000+FD0000001226+0000001226+000000000+000000172+0000001398+0000000000+I40000001398+0000000000+Z
140322001140322077-000311     140322006001023608666GIFT-BAG 11X14CM GLOSS 0000002000+00000613+00000+0001T   00000613+0000001705          1400 SO3112               1AZ
140323000140323               140323               170213FD     1400+00000+FD0000006313+0000006313+000000000+000000884+0000007197+0000000000+I40000007197+0000000000+Z
140323001140323301-086007     140323006003000426706ORN OCC DAD WDN LETTERS0000001000+00004385+00000+0001T   00004385+0000001707          1400 SO3505               1AZ
140323002140323903-000843     140323008693029031067SWT GUMMY JELAXY 80G   0000002000+00000964+00000+0001T   00000964+0000001707          1400 SO3150               1AZ
140324000140324               140324               170213FD     1400+00000+FD0000004644+0000004644+000000000+000000652+0000005296+0000000000+I40000005296+0000000000+Z
140324001140324033-000123     140324006003000622382HAIR COMB STRAIGHTENING0000001000+00001753+00000+0001T   00001753+0000001709          1400 SO3200               1AZ
140324002140324903-000519     140324006001704012805SWT MS LIQ-O-GHETTI    0000001000+00001227+00000+0001T   00001227+0000001709          1400 SO3150               1AZ
140324003140324071-081101-A   140324006003000326549GLUE-STICK 25g BLISTER 0000001000+00000788+00000+0001T   00000788+0000001709          1400 SO3130               1AZ
140324004140324083-000295     140324006001023898562LIGHTER-GAS BUTANE 18ml0000001000+00000876+00000+0001T   00000876+0000001709          1400 SO3315               1AZ
140325000140325               140325               170213FD     1400+00000+FD0000007452+0000007452+000000000+000001045+0000008490+0000000007+I20000000000+0000008490+Z
140325001140325072-020306     140325006003000024162PET DOG TENNIS BALL    0000001000+00003069+00000+0001T   00003069+0000001710          1400 SO3870               1AZ
140325002140325077-000309     140325006001023608604GIFT-BAG 25X32CM GLOSS 0000001000+00001753+00000+0001T   00001753+0000001710          1400 SO3112               1AZ
140325003140325077-000270     140325006003000395453GIFT-BAG PPR JMB 33X45 0000001000+00002630+00000+0001T   00002630+0000001710          1400 SO3112               1AZ
140326000140326               140326               170213FD     1400+00000+FD0000004203+0000004203+000000000+000000590+0000004790+0000000003+I20000000000+0000004790+Z
140326001140326006-000167-C   140326006003000516971BALLOONS PINK METALLIC 0000001000+00001314+00000+0001T   00001314+0000001712          1400 SO3131               1AZ
140326002140326080-000133-A   140326006003000647019MINI VALENTINES CARD   0000001000+00000437+00000+0001T   00000437+0000001712          1400 SO3112               1AZ
140326003140326006-001000     140326006003000093779HELIUM BALLOON FILL    0000004000+00000613+00000+0001T   00000613+0000001712          1400 SO3131               1AZ
140327000140327               140327               170213FD     1400+00000+FD0000002665+0000002665+000000000+000000374+0000003030+0000000009+I20000000000+0000003030+Z
140327001140327018-000129     140327006001023403353MUG OCC. LOVE V-SHAPE  0000001000+00002630+00000+0001T   00002630+0000001713          1400 SO3515               1AZ
140327002140327112-116038     140327006009681820246TCS CARRIER BAG MIDI   0000001000+00000035+00000+0001T   00000035+0000001713          1400 SO3090               1AZ
140328000140328               140328               170213FD     1400+00000+FD0000003945+0000003945+000000000+000000553+0000004490+0000000008+I20000000000+0000004490+Z
140328001140328077-000116     140328006003000240777GIFT-WRAP 700mmx2m COL 0000001000+00001753+00000+0001T   00001753+0000001714          1400 SO3112               1AZ
140328002140328072-000234     140328006003000691487DOG-COLLAR REFLECTIVE  0000001000+00002192+00000+0001T   00002192+0000001714          1400 SO3870               1AZ
140329000140329               140329               170213FD     1400+00000+FD0000005821+0000005821+000000000+000000816+0000006630+0000000007+I20000000000+0000006630+Z
140329001140329080-000116     140329006003000253555CARD&ENVELOPE-HANDMADE 0000001000+00001753+00000+0001T   00001753+0000001715          1400 SO3112               1AZ
140329002140329080-000124     140329006003000297733CARD & ENV VALENTINES  0000001000+00001578+00000+0001T   00001578+0000001715          1400 SO3112               1AZ
140329003140329105-001079     140329000700371655921CONTAINER 2.2L CLIP LOC0000001000+00002455+00000+0001T   00002455+0000001715          1400 SO3210               1AZ
140329004140329112-116038     140329006009681820246TCS CARRIER BAG MIDI   0000001000+00000035+00000+0001T   00000035+0000001715          1400 SO3090               1AZ
140330000140330               140330               170213FD     1400+00000+FD0000003507+0000003507+000000000+000000491+0000003998+0000000000+I40000003998+0000000000+Z
140330001140330018-005009     140330006001023725608MUG W/PLUSH-BEAR LOVE  0000001000+00003507+00000+0001T   00003507+0000001717          1400 SO3515               1AZ
140331000140331               140331               170213FD     1400+00000+FD0000004385+0000004385+000000000+000000614+0000004990+0000000009+I20000000000+0000004990+Z
140331001140331018-030000     140331006003000421060MUG OCCASIONS LOVE 2PCE0000001000+00004385+00000+0001T   00004385+0000001718          1400 SO3515               1AZ
140332000140332               140332               170213FD     1400+00000+FD0000001314+0000001314+000000000+000000184+0000001490+0000000008+I20000000000+0000001490+Z
140332001140332251-000001     140332006001023487681TAPE DBL-SIDE 18x1000mm0000001000+00001314+00000+0001T   00001314+0000001720          1400 SO3810               1AZ
140333000140333               140333               170213FD     1400+00000+FD0000002626+0000002626+000000000+000000370+0000002990+0000000006+I20000000000+0000002990+Z
140333001140333077-000314     140333006003000181148GIFT-BAG 11X14CM MATT  0000002000+00000876+00000+0001T   00000876+0000001721          1400 SO3112               1AZ
140333002140333080-000133-A   140333006003000647019MINI VALENTINES CARD   0000001000+00000437+00000+0001T   00000437+0000001721          1400 SO3112               1AZ
140333003140333080-000133     140333006003000535613CARD&ENV MINI ASTD DSGN0000001000+00000437+00000+0001T   00000437+0000001721          1400 SO3112               1AZ
140334000140334               140334               170213FD     1400+00000+FD0000006138+0000006138+000000000+000000860+0000006998+0000000000+I40000006998+0000000000+Z
140334001140334564-001028     140334006001023708663BUBBLE CELEBRATION 6ml 0000002000+00003069+00000+0001T   00003069+0000001731          1400 SO3131               1AZ
140335000140335               140335               170213FD     1400+00000+FD0000018234+0000018234+000000000+000002557+0000020790+0000000001+I20000000000+0000020790+Z
140335001140335077-000309     140335006001023608604GIFT-BAG 25X32CM GLOSS 0000001000+00001753+00000+0001T   00001753+0000001735          1400 SO3112               1AZ
140335002140335077-000316     140335006001023609731GIFT-BAG 25X32CM MATT  0000001000+00001753+00000+0001T   00001753+0000001735          1400 SO3112               1AZ
140335003140335077-000270     140335006003000395453GIFT-BAG PPR JMB 33X45 0000001000+00002630+00000+0001T   00002630+0000001735          1400 SO3112               1AZ
140335004140335566-001234     140335006003000217793STICKERS LASER ASSTD   0000001000+00001578+00000+0001T   00001578+0000001735          1400 SO3130               1AZ
140335005140335566-000065     140335006003000217915STICKERS GLITTER ASSTD 0000001000+00001753+00000+0001T   00001753+0000001735          1400 SO3130               1AZ
140335006140335566-000317     140335006003000524204STICKER TAPE 2PCS      0000001000+00003507+00000+0001T   00003507+0000001735          1400 SO3130               1AZ
140335007140335077-000251     140335006003000639106GIFT-DECOR RIBBON      0000002000+00002630+00000+0001T   00002630+0000001735          1400 SO3112               1AZ
140336000140336               140336               170213FD     1400+00000+FD0000003507+0000003507+000000000+000000491+0000003990+0000000008+I20000000000+0000003990+Z
140336001140336018-005009     140336006001023725608MUG W/PLUSH-BEAR LOVE  0000001000+00003507+00000+0001T   00003507+0000001736          1400 SO3515               1AZ
140337000140337               140337               170213FD     1400+00000+FD0000001753+0000001753+000000000+000000246+0000001990+0000000009+I20000000000+0000001990+Z
140337001140337077-000299-A   140337006003000670888GIFT-BAG PAPER JMB LOVE0000001000+00001753+00000+0001T   00001753+0000001738          1400 SO3112               1AZ
140338000140338               140338               170213FD     1400+00000+FD0000001753+0000001753+000000000+000000246+0000001990+0000000009+I20000000000+0000001990+Z
140338001140338077-000455     140338006003000285389G/BAG METALLIC LRG SOL 0000001000+00001753+00000+0001T   00001753+0000001738          1400 SO3112               1AZ
140339000140339               140339               170213FD     1400+00000+FD0000015812+0000015812+000000000+000002216+0000018020+0000000008+I20000000000+0000018020+Z
140339001140339007-000542     140339006001023847874NOTE-BOOK H/C SKETCHPAD0000002000+00003507+00000+0001T   00003507+0000001740          1400 SO3130               1AZ
140339002140339112-116038     140339006009681820246TCS CARRIER BAG MIDI   0000001000+00000035+00000+0001T   00000035+0000001740          1400 SO3090               1AZ
140339003140339080-000124     140339006003000297733CARD & ENV VALENTINES  0000001000+00001578+00000+0001T   00001578+0000001740          1400 SO3112               1AZ
140339004140339903-000907     140339006009802868324SWEET LASER BARBIE     0000002000+00002016+00000+0001T   00002016+0000001740          1400 SO3150               1AZ
140339005140339018-000177     140339006001023797513MUG MINI LOVE ASSTD    0000002000+00000700+00000+0001T   00000700+0000001740          1400 SO3515               1AZ
140339006140339301-085002     140339006003000420704ORN OCC. LOVE BELL ASST0000001000+00001753+00000+0001T   00002630+0008121740          1400 SO3505               1AZ
140340000140340               140340               170213FD     1400+00000+FD0000011924+0000011924+000000000+000001670+0000013590+0000000004+I20000000000+0000013590+Z
140340001140340007-000614     140340006001023768667DIARY W/LOCK+PEN LOVE  0000002000+00005262+00000+0001T   00005262+0000001741          1400 SO3130               1AZ
140340002140340018-000177     140340006001023797513MUG MINI LOVE ASSTD    0000002000+00000700+00000+0001T   00000700+0000001741          1400 SO3515               1AZ
M17021301                              GLADWYN     FDLAST TILL SLIP NO.140336                                                                        REGARDS                                                                                         WELKOM FD
M17021391                              CASH        FDSLAVE 1                       Z-REPORT No.   580TOTAL (Sales - Refunds)           6157.23       CASH TO BE BANKED                 4310.80       DEBIT CARDS                          0.00       CREDIT CARDS                      1846.43       Z-READING                         6157.23       AIRTIME DEBIT CARD SALES             0.00       AIRTIME CARD SALES                   0.00       OVERS/UNDERS                         0.00       AIRTIME CASH SALES                   0.00       GIFT CARDS                           0.00       GIFT CARD CASH SALES                 0.00       T O T A L  CASH PAYOUTS              0.00                                                                                                                                                                                                                                                                                                                                                      Z
M17021392                              CASH        FDABSENT                                                                                                                                                                                          ANNUAL LEAVE                                                                                                                                                                                    DAY OFF                                                                                                                                                                                         COMMENTS                                                                                                                                                                                                                                                                                                                                                                                       Z
Y17021300                                          FD00000000543690+000090
ZFD17021319373 SLAVE 1      SALES DATA                     NEXT INVOICE NO.  140341 0580
X FD Slave 1 First invoice 140250 170213 Last invoice 140340 170213 Next invoice 140341 Total number of records 000000316 clbackup completed 19:37:15
