220904000220904               220904               170213FE     1400+00000+FE0000000788+0000000788+000000000+000000111+0000000890+0000000009+I20000000000+0000000890+Z
220904001220904071-081101-A   220904006003000326549GLUE-STICK 25g BLISTER 0000001000+00000788+00000+0001T   00000788+0000000850          1400 WE4130               1BZ
220905000220905               220905               170213FE     1400+00000+FE0000001753+0000001753+000000000+000000246+0000001990+0000000009+I20000000000+0000001990+Z
220905001220905046-002016-PK2 220905004897006175056BATTERIES CR-2016  2PCE0000001000+00001753+00000+0001T   00001753+0000000858          1400 WE4312               1BZ
220906000220906               220906               170213FE     1400+00000+FE0000014692+0000014692+000000000+000002059+0000016751+0000000000+I40000016751+0000000000+Z
220906001220906903-000095     220906006001704011495SWT SPECKLED-EGGS 100G 0000001000+00002104+00000+0001T   00002104+0000000902          1400 WE4150               1BZ
220906002220906304-001011     220906006001023806727FLWR ROSE RED W/BEAR   0000001000+00000613+00000+0001T   00000788+0006470902          1400 WE4510               1BZ
220906003220906368-000637     220906006001023874092PLUSH BEAR SLEEPING LOV0000001000+00011402+00000+0001T   00012279+0006470902          1400 WE4745               1BZ
220906004220906903-000155     220906006009803374435SWT LOLLY I LUV U HEART0000001000+00000525+00000+0001T   00000525+0000000902          1400 WE4150               1BZ
220906005220906112-116069     220906006009681820277TCS CARRIER BAG JUMBO  0000001000+00000048+00000+0001T   00000048+0000000902          1400 WE4090               1BZ
220907000220907               220907               170213FE     1400+00000+FE0000001139+0000001139+000000000+000000160+0000001290+0000000009+I20000000000+0000001290+Z
220907001220907046-000014     220907006001023725387BATTERIES SIZE:AAA 4PCE0000001000+00001139+00000+0001T   00001139+0000000915          1400 WE4312               1BZ
220908000220908               220908               170213FE     1400+00000+FE0000004556+0000004556+000000000+000000640+0000005190+0000000006+I20000000000+0000005190+Z
220908001220908903-000087     220908006001704000161SWT SPECKLED-EGGS 50G  0000004000+00001139+00000+0001T   00001139+0000000928          1400 WE4150               1BZ
220909000220909               220909               170213FE     1400+00000+FE0000000035+0000000035+000000000+000000005+0000000040+0000000000+I20000000000+0000000040+Z
220909001220909112-116038     220909006009681820246TCS CARRIER BAG MIDI   0000001000+00000035+00000+0001T   00000035+0000000928          1400 WE4090               1BZ
220910000220910               220910               170213FE     1400+00000+FE0000004420+0000004420+000000000+000000619+0000005039+0000000000+I40000005039+0000000000+Z
220910001220910368-000001     220910006003000097982Plush Bear 25cm        0000001000+00004385+00000+0001T   00004385+0000000930          1400 WE4745               1BZ
220910002220910112-116038     220910006009681820246TCS CARRIER BAG MIDI   0000001000+00000035+00000+0001T   00000035+0000000930          1400 WE4090               1BZ
220911000220911               220911               170213FE     1400+00000+FE0000001753+0000001753+000000000+000000246+0000001990+0000000009+I20000000000+0000001990+Z
220911001220911200-003024     220911006001023657299REFUSE BAGS 20PCE BLACK0000001000+00001753+00000+0001T   00001753+0000000941          1400 WE4214               1BZ
220912000220912               220912               170213FE     1400+00000+FE0000000876+0000000876+000000000+000000123+0000000990+0000000009+I20000000000+0000000990+Z
220912001220912082-026204     220912006001023816443R/GLASSES STRINGS 2PCE 0000001000+00000876+00000+0001T   00000876+0000000947          1400 WE4160               1BZ
220913000220913               220913               170213FE     1400+00000+FE0000004204+0000004204+000000000+000000591+0000004790+0000000005+I20000000000+0000004790+Z
220913001220913077-000010-Z   220913006001023157874CREPE-PAPER BLK/ORG/PUR0000002000+00000788+00000+0001T   00000788+0000000948          1400 WE4112               1BZ
220913002220913077-000151     220913006008766114676GIFT-WRAP C/PHANE ASSTD0000003000+00000876+00000+0001T   00000876+0000000948          1400 WE4112               1BZ
220914000220914               220914               170213FE     1400+00000+FE0000013185+0000013185+000000000+000001850+0000015030+0000000005+I20000000000+0000015030+Z
220914001220914563-000317-A   220914006001023776167SERVIETTES 20PK PATTERN0000004000+00002630+00000+0001T   00002630+0000001031          1400 WE4214               1BZ
220914002220914112-116038     220914006009681820246TCS CARRIER BAG MIDI   0000001000+00000035+00000+0001T   00000035+0000001031          1400 WE4090               1BZ
220914003220914019-071601     220914006001023771995RIVER-STONES 1kg WHITE 0000001000+00002630+00000+0001T   00002630+0000001031          1400 WE4510               1BZ
220915000220915               220915               170213FE     1400+00000+FE0000001753+0000001753+000000000+000000246+0000001990+0000000009+I20000000000+0000001990+Z
220915001220915200-003024     220915006001023657299REFUSE BAGS 20PCE BLACK0000001000+00001753+00000+0001T   00001753+0000001031          1400 WE4214               1BZ
220916000220916               220916               170213FE     1400+00000+FE0000002629+0000002629+000000000+000000369+0000002990+0000000008+I20000000000+0000002990+Z
220916001220916080-000102     220916006003000236855CARD&ENVLP FEMALE AFR  0000001000+00001753+00000+0001T   00001753+0000001034          1400 WE4112               1BZ
220916002220916903-000481     220916006001704007481SWT MOO MILK-SHAKES 60G0000001000+00000876+00000+0001T   00000876+0000001034          1400 WE4150               1BZ
220917000220917               220917               170213FE     1400+00000+FE0000005260+0000005260+000000000+000000738+0000005990+0000000008+I20000000000+0000005990+Z
220917001220917071-008244     220917006003000639816PEN WINDOW MARKER      0000002000+00002630+00000+0001T   00002630+0000001035          1400 WE4130               1CZ
220918000220918               220918               170213FE     1400+00000+FE0000001753+0000001753+000000000+000000246+0000001990+0000000009+I20000000000+0000001990+Z
220918001220918080-000112     220918006003000252749CARD&ENVLP BDAY-MUSICAL0000001000+00001753+00000+0001T   00001753+0000001038          1400 WE4112               1BZ
220919000220919               220919               170213FE     1400+00000+FE0000012327+0000012327+000000000+000001727+0000014054+0000000000+I40000014054+0000000000+Z
220919001220919368-000113     220919006001023780874PLUSH BLINGED LOVE 30cm0000001000+00012279+00000+0001T   00012279+0000001042          1400 WE4745               1BZ
220919002220919112-116069     220919006009681820277TCS CARRIER BAG JUMBO  0000001000+00000048+00000+0001T   00000048+0000001042          1400 WE4090               1BZ
220920000220920               220920               170213FE     1400+00000+FE0000001788+0000001788+000000000+000000251+0000002030+0000000009+I20000000000+0000002030+Z
220920001220920077-000309     220920006001023608604GIFT-BAG 25X32CM GLOSS 0000001000+00001753+00000+0001T   00001753+0000001046          1400 WE4112               1BZ
220920002220920112-116038     220920006009681820246TCS CARRIER BAG MIDI   0000001000+00000035+00000+0001T   00000035+0000001046          1400 WE4090               1BZ
220921000220921               220921               170213FE     1400+00000+FE0000000874+0000000874+000000000+000000124+0000000990+0000000008+I20000000000+0000000990+Z
220921001220921083-000049     220921004891035200024CIG-LIGHTER DISPOSABLE 0000002000+00000437+00000+0001T   00000437+0000001047          1400 WE4315               1BZ
220922000220922               220922               170213FE     1400+00000+FE0000017565+0000017565+000000000+000002465+0000020030+0000000000+I20000000000+0000020030+Z
220922001220922046-002025-PK2 220922004897006174868BATTERIES CR-2025  2PCE0000010000+00001753+00000+0001T   00001753+0000001048          1400 WE4312               1BZ
220922002220922112-116038     220922006009681820246TCS CARRIER BAG MIDI   0000001000+00000035+00000+0001T   00000035+0000001048          1400 WE4090               1BZ
220923000220923               220923               170213FE     1400+00000+FE0000001000-0000000000+000000000+000000000+0000001000-0000000000+I20000000000+0000001000-Z
220923001220923001-999909     220923000000000999909STAFF-REFRESHMENTS     0000001000-00001000+00000+0001X   00000000+0000001054          0000 WE49091IC            1 Z
220924000220924               220924               170213FE     1400+00000+FE0000004066+0000004066+000000000+000000570+0000004630+0000000006+I20000000000+0000004630+Z
220924001220924080-000113     220924006003000237449CARD&ENVLPE - LOVE     0000001000+00001753+00000+0001T   00001753+0000001220          1400 WE4112               1BZ
220924002220924018-000177     220924006001023797513MUG MINI LOVE ASSTD    0000001000+00000700+00000+0001T   00000700+0000001220          1400 WE4515               1BZ
220924003220924077-000315     220924006003000181186GIFT-BAG 20x28cm MATT  0000001000+00001578+00000+0001T   00001578+0000001220          1400 WE4112               1BZ
220924004220924112-116038     220924006009681820246TCS CARRIER BAG MIDI   0000001000+00000035+00000+0001T   00000035+0000001220          1400 WE4090               1BZ
220925000220925               220925               170213FE     1400+00000+FE0000000876+0000000876+000000000+000000123+0000000990+0000000009+I20000000000+0000000990+Z
220925001220925077-000302     220925008010410010195GIFT-BAG 18X23CM E/D   0000001000+00000876+00000+0001T   00000876+0000001221          1400 WE4112               1BZ
220926000220926               220926               170213FE     1400+00000+FE0000016558+0000016558+000000000+000002319+0000018877+0000000000+I40000018877+0000000000+Z
220926001220926203-005011     220926006003000539888DRINKING GAME GLASS    0000001000+00014911+00000+0001T   00014911+0000001223          1400 WE4300               1BZ
220926002220926077-000348     220926006001023483287GIFT-BOWS 4,5cm 8PCE   0000001000+00001578+00000+0001T   00001578+0000001223          1400 WE4112               1BZ
220926003220926112-116053     220926006006438002399TCS CARRIER BAG 38L    0000001000+00000069+00000+0001T   00000069+0000001223          1400 WE4090               1BZ
220927000220927               220927               170213FE     1400+00000+FE0000002454+0000002454+000000000+000000344+0000002798+0000000000+I40000002798+0000000000+Z
220927001220927903-000518     220927006001704012782SWT STRAWS S/BERRY 100g0000001000+00001227+00000+0001T   00001227+0000001224          1400 WE4150               1BZ
220927002220927903-000510     220927006001704012621SWEET MS ZBDZ S/BERRY  0000001000+00001227+00000+0001T   00001227+0000001224          1400 WE4150               1BZ
220928000220928               220928               170213FE     1400+00000+FE0000003507+0000003507+000000000+000000491+0000003990+0000000008+I20000000000+0000003990+Z
220928001220928018-000136     220928006001023659026MUG OCC LOVE W/PLUSH   0000001000+00003507+00000+0001T   00003507+0000001229          1400 WE4515               1BZ
220929000220929               220929               170213FE     1400+00000+FE0000001753+0000001753+000000000+000000246+0000001990+0000000009+I20000000000+0000001990+Z
220929001220929200-003024     220929006001023657299REFUSE BAGS 20PCE BLACK0000001000+00001753+00000+0001T   00001753+0000001230          1400 WE4214               1BZ
220930000220930               220930               170213FE     1400+00000+FE0000007035+0000007035+000000000+000000985+0000008020+0000000000+I40000008020+0000000000+Z
220930001220930018-000177     220930006001023797513MUG MINI LOVE ASSTD    0000010000+00000700+00000+0001T   00000700+0000001236          1400 WE4515               1BZ
220930002220930112-116038     220930006009681820246TCS CARRIER BAG MIDI   0000001000+00000035+00000+0001T   00000035+0000001236          1400 WE4090               1BZ
220931000220931               220931               170213FE     1400+00000+FE0000006605+0000006605+000000000+000000925+0000007530+0000000000+I20000000000+0000007530+Z
220931001220931018-000119     220931006003000336074MUG DAILY STRAIGHT     0000005000+00001314+00000+0001T   00001753+0008171250          1400 WE4515               1BZ
220931002220931112-116038     220931006009681820246TCS CARRIER BAG MIDI   0000001000+00000035+00000+0001T   00000035+0000001250          1400 WE4090               1BZ
220932000220932               220932               170213FE     1400+00000+FE0000007047+0000007047+000000000+000000989+0000008030+0000000006+I20000000000+0000008030+Z
220932001220932079-002000     220932006003000658152MODELLING CLAY         0000004000+00001753+00000+0001T   00001753+0000001258          1400 WE4130               1BZ
220932002220932112-116038     220932006009681820246TCS CARRIER BAG MIDI   0000001000+00000035+00000+0001T   00000035+0000001258          1400 WE4090               1BZ
220933000220933               220933               170213FE     1400+00000+FE0000006184+0000006184+000000000+000000868+0000007052+0000000000+I40000007052+0000000000+Z
220933001220933079-013099     220933006003000081875ART+CRAFT EYES ASSTD   0000001000+00001753+00000+0001T   00001753+0000001304          1400 WE4130               1BZ
220933002220933204-000004     220933006003000416318MEMO HOLDERS ASSTD 7PCE0000001000+00002630+00000+0001T   00002630+0000001304          1400 WE4300               1BZ
220933003220933566-000007     220933006001023761187S/BOOK SUPER VALUE     0000001000+00001753+00000+0001T   00001753+0000001304          1400 WE4130               1BZ
220933004220933112-116069     220933006009681820277TCS CARRIER BAG JUMBO  0000001000+00000048+00000+0001T   00000048+0000001304          1400 WE4090               1BZ
220934000220934               220934               170213FE     1400+00000+FE0000002104+0000002104+000000000+000000295+0000002390+0000000009+I20000000000+0000002390+Z
220934001220934903-000095     220934006001704011495SWT SPECKLED-EGGS 100G 0000001000+00002104+00000+0001T   00002104+0000001357          1400 WE4150               1BZ
220935000220935               220935               170213FE     1400+00000+FE0000013185+0000013185+000000000+000001850+0000015035+0000000000+I40000015035+0000000000+Z
220935001220935019-071603     220935006001023772039RIVER-STONES 1kg PEACH 0000002000+00002630+00000+0001T   00002630+0000001358          1400 WE4510               1BZ
220935002220935019-071601     220935006001023771995RIVER-STONES 1kg WHITE 0000003000+00002630+00000+0001T   00002630+0000001358          1400 WE4510               1BZ
220935003220935112-116038     220935006009681820246TCS CARRIER BAG MIDI   0000001000+00000035+00000+0001T   00000035+0000001358          1400 WE4090               1BZ
220936000220936               220936               170213FE     1400+00000+FE0000004822+0000004822+000000000+000000676+0000005498+0000000000+I40000005498+0000000000+Z
220936001220936486-000001     220936006001023507969ALARM-CLOCK SQ ASS     0000001000+00002630+00000+0001T   00002630+0000001359          1400 WE4510               1BZ
220936002220936046-000012-A   220936006003000208296BATTERIES H/POWER SZ:AA0000001000+00002192+00000+0001T   00002192+0000001359          1400 WE4312               1BZ
220937000220937               220937               170213FE     1400+00000+FE0000008276+0000008276+000000000+000001160+0000009430+0000000006+I20000000000+0000009430+Z
220937001220937563-000318-L   220937006003000407088SERVIETTES 33cm RED    0000002000+00002192+00000+0001T   00002192+0000001400          1400 WE4214               1BZ
220937002220937077-000235     220937006003000160211GIFT-RIBBON ROLL METALC0000001000+00002630+00000+0001T   00002630+0000001400          1400 WE4112               1BZ
220937003220937077-000245     220937006001023759214GIFT-RIBBON METALLICx2 0000001000+00001227+00000+0001T   00001227+0000001400          1400 WE4112               1BZ
220937004220937112-116038     220937006009681820246TCS CARRIER BAG MIDI   0000001000+00000035+00000+0001T   00000035+0000001400          1400 WE4090               1BZ
220938000220938               220938               170213FE     1400+00000+FE0000003506+0000003506+000000000+000000492+0000003990+0000000008+I20000000000+0000003990+Z
220938001220938566-002004     220938006001023672421STICKERS CRYSTAL SHAPES0000002000+00001753+00000+0001T   00001753+0000001520          1400 WE4130               1BZ
220939000220939               220939               170213FE     1400+00000+FE0000002015+0000002015+000000000+000000283+0000002290+0000000008+I20000000000+0000002290+Z
220939001220939077-000315     220939006003000181186GIFT-BAG 20x28cm MATT  0000001000+00001578+00000+0001T   00001578+0000001521          1400 WE4112               1BZ
220939002220939080-000133-A   220939006003000647019MINI VALENTINES CARD   0000001000+00000437+00000+0001T   00000437+0000001521          1400 WE4112               1BZ
220940000220940               220940               170213FE     1400+00000+FE0000000035+0000000035+000000000+000000005+0000000040+0000000000+I20000000000+0000000040+Z
220940001220940112-116038     220940006009681820246TCS CARRIER BAG MIDI   0000001000+00000035+00000+0001T   00000035+0000001522          1400 WE4090               1BZ
220941000220941               220941               170213FE     1400+00000+FE0000023718+0000023718+000000000+000003323+0000027041+0000000000+I40000027041+0000000000+Z
220941001220941361-009104     220941006001023619365DOLL ACCESSORY STROLLER0000001000+00007016+00000+0001T   00007016+0000001524          1400 WE4725               1BZ
220941002220941362-019381     220941006001023869579HAIR BAND SET 100PCE   0000001000+00002630+00000+0001T   00002630+0000001524          1400 WE4160               1BZ
220941003220941361-003012     220941006001023667052DOLL MED 28cm BLOW MOUL0000001000+00000876+00000+0001T   00000876+0000001524          1400 WE4725               1BZ
220941004220941266-008040     220941006001023787002FIGURINE 6PC & ACCESS. 0000001000+00004385+00000+0001T   00004385+0000001524          1400 WE4710               1BZ
220941005220941263-000498     220941006003000473021TRUCK 20cm+TRAILER+CAR 0000001000+00003507+00000+0001T   00003507+0000001524          1400 WE4710               1BZ
220941006220941112-116069     220941006009681820277TCS CARRIER BAG JUMBO  0000001000+00000048+00000+0001T   00000048+0000001524          1400 WE4090               1BZ
220941007220941018-000100     220941006001023588098MUG DAILY TUBBY 340ML  0000004000+00001314+00000+0001T   00001753+0008171524          1400 WE4515               1BZ
220942000220942               220942               170213FE     1400+00000+FE0000007049+0000007049+000000000+000000987+0000008036+0000000000+I40000008036+0000000000+Z
220942001220942018-005009     220942006001023725608MUG W/PLUSH-BEAR LOVE  0000002000+00003507+00000+0001T   00003507+0000001526          1400 WE4515               1CZ
220942002220942112-116038     220942006009681820246TCS CARRIER BAG MIDI   0000001000+00000035+00000+0001T   00000035+0000001526          1400 WE4090               1CZ
220943000220943               220943               170213FE     1400+00000+FE0000002804+0000002804+000000000+000000394+0000003190+0000000008+I20000000000+0000003190+Z
220943001220943304-001204     220943006001023737984FLOWER OCC. TEDDY/ROSES0000002000+00001402+00000+0001T   00001490+0006471530          1400 WE4510               1BZ
220944000220944               220944               170213FE     1400+00000+FE0000001753+0000001753+000000000+000000246+0000001990+0000000009+I20000000000+0000001990+Z
220944001220944077-000358     220944006003000329977GIFT-BAG KIDS 25X32CM  0000001000+00001753+00000+0001T   00001753+0000001532          1400 WE4112               1BZ
220945000220945               220945               170213FE     1400+00000+FE0000011782+0000011782+000000000+000001652+0000013430+0000000004+I20000000000+0000013430+Z
220945001220945024-006874     220945006001023769978PASTRY-BRUSH SQ WHITE  0000001000+00001753+00000+0001T   00001753+0000001551          1400 WE4300               1BZ
220945002220945002-000015     220945006003000555604CAPPUCCINO STENCILS 12P0000001000+00001753+00000+0001T   00001753+0000001551          1400 WE4300               1BZ
220945003220945002-000970     220945006001023770578FUNNELS 3PCE WHITE     0000001000+00001227+00000+0001T   00001227+0000001551          1400 WE4300               1BZ
220945004220945563-000318-L   220945006003000407088SERVIETTES 33cm RED    0000001000+00002192+00000+0001T   00002192+0000001551          1400 WE4214               1BZ
220945005220945563-000317-A   220945006001023776167SERVIETTES 20PK PATTERN0000001000+00002630+00000+0001T   00002630+0000001551          1400 WE4214               1BZ
220945006220945024-091103     220945006003453014307BAKING-CUP MUFFIN 50PCE0000001000+00002192+00000+0001T   00002192+0000001551          1400 WE4300               1BZ
220945007220945112-116038     220945006009681820246TCS CARRIER BAG MIDI   0000001000+00000035+00000+0001T   00000035+0000001551          1400 WE4090               1BZ
220946000220946               220946               170213FE     1400+00000+FE0000004764+0000004764+000000000+000000669+0000005430+0000000003+I20000000000+0000005430+Z
220946001220946903-000619     220946006003000672455SWT LOLLY STR/BRRY 140G0000001000+00001753+00000+0001T   00001753+0000001553          1400 WE4150               1BZ
220946002220946903-000159     220946006003000417629SWT LB SMALL DUMMIE    0000004000+00000350+00000+0001T   00000350+0000001553          1400 WE4150               1BZ
220946003220946903-000119     220946006001704007337SWT COCONUT-WHEEL      0000002000+00000788+00000+0001T   00000788+0000001553          1400 WE4150               1BZ
220946004220946112-116038     220946006009681820246TCS CARRIER BAG MIDI   0000001000+00000035+00000+0001T   00000035+0000001553          1400 WE4090               1BZ
220947000220947               220947               170213FE     1400+00000+FE0000012327+0000012327+000000000+000001727+0000014050+0000000004+I20000000000+0000014050+Z
220947001220947368-000113     220947006001023780874PLUSH BLINGED LOVE 30cm0000001000+00012279+00000+0001T   00012279+0000001554          1400 WE4745               1BZ
220947002220947112-116069     220947006009681820277TCS CARRIER BAG JUMBO  0000001000+00000048+00000+0001T   00000048+0000001554          1400 WE4090               1BZ
220948000220948               220948               170213FE     1400+00000+FE0000005957+0000005957+000000000+000000835+0000006790+0000000002+I20000000000+0000006790+Z
220948001220948077-000303     220948006001023593757GIFT-BAG PAPER MED     0000001000+00001578+00000+0001T   00001578+0000001707          1400 WE4112               1BZ
220948002220948903-000844     220948005010478432567SWT CANDY DL LUV HEARTS0000003000+00001314+00000+0001T   00001314+0000001707          1400 WE41501IC            1BZ
220948003220948080-000133-A   220948006003000647019MINI VALENTINES CARD   0000001000+00000437+00000+0001T   00000437+0000001707          1400 WE4112               1BZ
A17021300                                          09563398FESLAVE 1                       WE43IC
A17021301                                          10210431FESLAVE 1                       WE43IC
A17021302                                          10424752FESLAVE 1                       WE41IC
A17021303                                          10444282FESLAVE 1                       WE41IC
A17021304                                          12304815FESLAVE 1                       WE43IC
B22094800                                          170213FE903-000844     17073058SLAVE 1     WE41IC0000005000+0000003000+0000000000000+
M17021301                              IT DEPT     FEFROM FICHARDT FE                                                                                LAST TRANSACTION SLAVE 1 - 220948                                                               THANX
M17021391                              CASH        FESLAVE 1                       Z-REPORT No.   554TOTAL (Sales - Refunds)           2865.91       CASH TO BE BANKED                 1573.90       DEBIT CARDS                          0.00       CREDIT CARDS                      1282.01       Z-READING                         2855.91       AIRTIME DEBIT CARD SALES             0.00       AIRTIME CARD SALES                   0.00       OVERS/UNDERS                         0.00       AIRTIME CASH SALES                   0.00       GIFT CARDS                           0.00       GIFT CARD CASH SALES                 0.00       STAFF-REFRESHMENTS                  10.00       T O T A L  CASH PAYOUTS             10.00                                                                                                                                                                                                                                                                                                      Z
M17021392                              CASH        FEABSENT                                                                                                                                                                                          ANNUAL LEAVE                                                                                                                                                                                    DAY OFF                                                                                                                                                                                         COMMENTS                                                                                                                                                                                                                                                                                                                                                                                       Z
Y17021300                                          FE00000000251532+000044
ZFE17021319373 SLAVE 1      SALES DATA                     NEXT INVOICE NO.  220949 0554
X FE Slave 1 First invoice 220904 170213 Last invoice 220948 170213 Next invoice 220949 Total number of records 000000151 clbackup completed 19:37:28
