237737000237737               237737               170213FE     1400+00000+FE0000013811+0000013811+000000000+000001936+0000015747+0000000000+I40000015747+0000000000+Z
237737001237737162-093137     237737006001492931371#TAG Earring           0000001000+00003507+00000+0001T   00003507+0000000928          1400 SP6160               2BZ
237737002237737162-010768     237737006001492107684#TAG LDS SQ HOOPS 2PK  0000001000+00003507+00000+0001T   00003507+0000000928          1400 SP6160               2BZ
237737003237737304-001512     237737006003000036202FLOWER S/FLOWER 65CM   0000002000+00001753+00000+0001T   00001753+0000000928          1400 SP6510               2BZ
237737004237737304-001205     237737006001023738011FLWR P/STER FERN SPRAY 0000001000+00000613+00000+0001T   00000613+0000000928          1400 SP6510               2BZ
237737005237737304-001488     237737006003000035373FLOWER GLADIOLUS 79cm  0000001000+00002630+00000+0001T   00002630+0000000928          1400 SP6510               2BZ
237737006237737112-116069     237737006009681820277TCS CARRIER BAG JUMBO  0000001000+00000048+00000+0001T   00000048+0000000928          1400 SP6090               2BZ
237738000237738               237738               170213FE     1400+00000+FE0000003506+0000003506+000000000+000000492+0000003998+0000000000+I40000003998+0000000000+Z
237738001237738200-003024     237738006001023657299REFUSE BAGS 20PCE BLACK0000002000+00001753+00000+0001T   00001753+0000000929          1400 SP6214               2BZ
237739000237739               237739               170213FE     1400+00000+FE0000012102+0000012102+000000000+000001695+0000013797+0000000000+I40000013797+0000000000+Z
237739001237739266-010101     237739006001023331885MARBLES 16mm 90 PC     0000001000+00001578+00000+0001T   00001578+0000001004          1400 SP6710               2BZ
237739002237739567-010161     237739009780000008516BOOK TOP ASSTD MILLS   0000002000+00005262+00000+0001T   00005262+0000001004          1400 SP6757               2BZ
237740000237740               237740               170213FE     1400+00000+FE0000002630+0000002630+000000000+000000369+0000002990+0000000009+I20000000000+0000002990+Z
237740001237740079-000201     237740006003000161430P/CRAYONS THERAPY 10PCE0000001000+00002630+00000+0001T   00002630+0000001024          1400 SP6130               2BZ
237741000237741               237741               170213FE     1400+00000+FE0000011890-0000000000+000000000+000000000+0000011890-0000000000+I20000000000+0000011890-Z
237741001237741001-999909     237741000000000999909STAFF-REFRESHMENTS     0000001000-00011890+00000+0001X   00000000+0000001048          0000 SP69091IC            2 Z
237742000237742               237742               170213FE     1400+00000+FE0000000262+0000000262+000000000+000000037+0000000290+0000000009+I20000000000+0000000290+Z
237742001237742903-000216     237742006925925900966SWT MALLOW TWIST ERKO  0000001000+00000262+00000+0001T   00000262+0000001054          1400 SP6150               2BZ
237743000237743               237743               170213FE     1400+00000+FE0000002980+0000002980+000000000+000000418+0000003390+0000000008+I20000000000+0000003390+Z
237743001237743200-003024     237743006001023657299REFUSE BAGS 20PCE BLACK0000001000+00001753+00000+0001T   00001753+0000001204          1400 SP6214               2BZ
237743002237743251-000040     237743006001023515865SEALTAPE CLEAR 48mmx50m0000001000+00001227+00000+0001T   00001227+0000001204          1400 SP6810               2BZ
237744000237744               237744               170213FE     1400+00000+FE0000001753+0000001753+000000000+000000246+0000001990+0000000009+I20000000000+0000001990+Z
237744001237744046-002032-PK2 237744004897006175063BATTERIES CR-2032  2PCE0000001000+00001753+00000+0001T   00001753+0000001206          1400 SP6312               2BZ
237745000237745               237745               170213FE     1400+00000+FE0000008805+0000008805+000000000+000001233+0000010030+0000000008+I20000000000+0000010030+Z
237745001237745266-000750     237745006003000301461TOOL SET 23cm HELMET   0000002000+00004385+00000+0001T   00004385+0000001208          1400 SP6710               2BZ
237745002237745112-116038     237745006009681820246TCS CARRIER BAG MIDI   0000001000+00000035+00000+0001T   00000035+0000001208          1400 SP6090               2BZ
237746000237746               237746               170213FE     1400+00000+FE0000002192+0000002192+000000000+000000307+0000002490+0000000009+I20000000000+0000002490+Z
237746001237746077-000509     237746006003000082582GIFT-BAG SML 6PCE ORG P0000001000+00002192+00000+0001T   00002192+0000001208          1400 SP6112               2BZ
237747000237747               237747               170213FE     1400+00000+FE0000014516+0000014516+000000000+000002034+0000016550+0000000000+I40000016550+0000000000+Z
237747001237747036-000405     237747006001023630247CLOTHES DRYER PL 18-PEG0000001000+00004385+00000+0001T   00004385+0000001210          1400 SP6212               2BZ
237747002237747306-001660     237747006003000620579NAIL DRYING MACHINE    0000001000+00007016+00000+0001T   00007016+0000001210          1400 SP6200               2BZ
237747003237747566-000202     237747006003000443567STCKRS SPARKLE RIM ASST0000001000+00001314+00000+0001T   00001314+0000001210          1400 SP6130               2BZ
237747004237747566-000066     237747006003000283675STICKERS GLITTER 25PCS 0000001000+00001753+00000+0001T   00001753+0000001210          1400 SP6130               2BZ
237747005237747112-116069     237747006009681820277TCS CARRIER BAG JUMBO  0000001000+00000048+00000+0001T   00000048+0000001210          1400 SP6090               2BZ
237748000237748               237748               170213FE     1400+00000+FE0000003507+0000003507+000000000+000000491+0000003990+0000000008+I20000000000+0000003990+Z
237748001237748018-000130     237748006001023867537MUG OCC LOVE MINI+HEART0000001000+00003507+00000+0001T   00003507+0000001230          1400 SP6515               2BZ
237749000237749               237749               170213FE     1400+00000+FE0000006174+0000006174+000000000+000000865+0000007030+0000000009+I20000000000+0000007030+Z
237749001237749018-050000     237749006003000412679MUG OCC LOVE TWIN BEAR 0000001000+00006139+00000+0001T   00006139+0000001231          1400 SP6515               2BZ
237749002237749112-116038     237749006009681820246TCS CARRIER BAG MIDI   0000001000+00000035+00000+0001T   00000035+0000001231          1400 SP6090               2BZ
237750000237750               237750               170213FE     1400+00000+FE0000009207+0000009207+000000000+000001290+0000010490+0000000007+I20000000000+0000010490+Z
237750001237750268-000072     237750006003000548552KITE BIRD 2ASSTD       0000001000+00004385+00000+0001T   00004385+0000001235          1400 SP6785               2BZ
237750002237750072-020257     237750006001023598110DOG-CHEW SHOE 13cm     0000001000+00002192+00000+0001T   00002192+0000001235          1400 SP6870               2BZ
237750003237750072-020366     237750006003000452927PET PLACE MAT ASSTD COL0000001000+00002630+00000+0001T   00002630+0000001235          1400 SP6870               2BZ
237751000237751               237751               170213FE     1400+00000+FE0000002630+0000002630+000000000+000000369+0000000000+0000000000+ 00000000000+0000000000+Z
237751001237751082-026205     237751006001023816528R/GLASSES STRINGS 2PCE 0000001000+00002630+00000+0001T   00002630+000000              1400 SP61601IC            2 Z
237752000237752               237752               170213FE     1400+00000+FE0000000876+0000000876+000000000+000000123+0000000990+0000000009+I20000000000+0000000990+Z
237752001237752082-026204     237752006001023816443R/GLASSES STRINGS 2PCE 0000001000+00000876+00000+0001T   00000876+0000001246          1400 SP6160               2BZ
237753000237753               237753               170213FE     1400+00000+FE0000002279+0000002279+000000000+000000320+0000002590+0000000009+I20000000000+0000002590+Z
237753001237753027-000194     237753006001246602472MOP COMPLETE           0000001000+00002279+00000+0001T   00002279+0000001247          1400 SP6212               2BZ
237754000237754               237754               170213FE     1400+00000+FE0000001402+0000001402+000000000+000000197+0000001590+0000000009+I20000000000+0000001590+Z
237754001237754304-001204     237754006001023737984FLOWER OCC. TEDDY/ROSES0000001000+00001402+00000+0001T   00001490+0006471247          1400 SP6510               2BZ
237755000237755               237755               170213FE     1400+00000+FE0000001578+0000001578+000000000+000000221+0000001790+0000000009+I20000000000+0000001790+Z
237755001237755077-000303     237755006001023593757GIFT-BAG PAPER MED     0000001000+00001578+00000+0001T   00001578+0000001249          1400 SP6112               2BZ
237756000237756               237756               170213FE     1400+00000+FE0000003507+0000003507+000000000+000000491+0000003990+0000000008+I20000000000+0000003990+Z
237756001237756018-000136     237756006001023659026MUG OCC LOVE W/PLUSH   0000001000+00003507+00000+0001T   00003507+0000001251          1400 SP6515               2BZ
237757000237757               237757               170213FE     1400+00000+FE0000004420+0000004420+000000000+000000619+0000005030+0000000009+I20000000000+0000005030+Z
237757001237757018-030000     237757006003000421060MUG OCCASIONS LOVE 2PCE0000001000+00004385+00000+0001T   00004385+0000001252          1400 SP6515               2BZ
237757002237757112-116038     237757006009681820246TCS CARRIER BAG MIDI   0000001000+00000035+00000+0001T   00000035+0000001252          1400 SP6090               2BZ
237758000237758               237758               170213FE     1400+00000+FE0000001578+0000001578+000000000+000000221+0000001799+0000000000+I40000001799+0000000000+Z
237758001237758077-000303     237758006001023593757GIFT-BAG PAPER MED     0000001000+00001578+00000+0001T   00001578+0000001420          1400 SP6112               2BZ
237759000237759               237759               170213FE     1400+00000+FE0000002192+0000002192+000000000+000000307+0000002490+0000000009+I20000000000+0000002490+Z
237759001237759080-000127     237759006003000424351VALENTINES DAY 36x24CM 0000001000+00002192+00000+0001T   00002192+0000001420          1400 SP6112               2BZ
237760000237760               237760               170213FE     1400+00000+FE0000005116+0000005116+000000000+000000718+0000005834+0000000000+I40000005834+0000000000+Z
237760001237760018-000129     237760006001023403353MUG OCC. LOVE V-SHAPE  0000001000+00002630+00000+0001T   00002630+0000001441          1400 SP6515               2BZ
237760002237760903-000216     237760006925925900966SWT MALLOW TWIST ERKO  0000001000+00000262+00000+0001T   00000262+0000001441          1400 SP6150               2BZ
237760003237760903-000849     237760008692806080083SWT SNACK BISCUIT 70g  0000001000+00000613+00000+0001T   00000613+0000001441          1400 SP6150               2BZ
237760004237760903-003080     237760005907029004673SWT SNACK STIX CHOC 50g0000001000+00000876+00000+0001T   00000876+0000001441          1400 SP6150               2BZ
237760005237760903-000121     237760006002099001689SWT GS ZILLIONS SOURS  0000001000+00000700+00000+0001T   00000700+0000001441          1400 SP6150               2BZ
237760006237760112-116038     237760006009681820246TCS CARRIER BAG MIDI   0000001000+00000035+00000+0001T   00000035+0000001441          1400 SP6090               2BZ
237761000237761               237761               170213FE     1400+00000+FE0000003416+0000003416+000000000+000000479+0000003890+0000000005+I20000000000+0000003890+Z
237761001237761077-000317     237761006001023609748GIFT-BAG 11X14CM E/D AN0000002000+00000613+00000+0001T   00000613+0000001450          1400 SP6112               2BZ
237761002237761077-000321     237761006001023677501GIFT-BAG 11X14CM E/D FL0000001000+00000613+00000+0001T   00000613+0000001450          1400 SP6112               2BZ
237761003237761007-000555     237761006001023848239MEMO-PAD MINI LOVE     0000001000+00000613+00000+0001T   00000613+0000001450          1400 SP6130               2BZ
237761004237761903-000843     237761008693029031067SWT GUMMY JELAXY 80G   0000001000+00000964+00000+0001T   00000964+0000001450          1400 SP6150               2BZ
237762000237762               237762               170213FE     1400+00000+FE0000017976+0000017976+000000000+000002519+0000020495+0000000000+I40000020495+0000000000+Z
237762001237762200-003026     237762006003000276448REFUSE BAGS 10PCE GREEN0000003000+00001753+00000+0001T   00001753+0000001507          1400 SP6214               2BZ
237762002237762077-000376-A   237762006003000669059GIFT-BAG 2-PACK JMB    0000001000+00003946+00000+0001T   00003946+0000001507          1400 SP6112               2BZ
237762003237762368-000012     237762006003000610464PLUSH BEAR 30cm SITTING0000001000+00008771+00000+0001T   00008771+0000001507          1400 SP6745               2BZ
237763000237763               237763               170213FE     1400+00000+FE0000009255+0000009255+000000000+000001297+0000010550+0000000002+I20000000000+0000010550+Z
237763001237763018-000129     237763006001023403353MUG OCC. LOVE V-SHAPE  0000001000+00002630+00000+0001T   00002630+0000001508          1400 SP6515               2BZ
237763002237763018-030000     237763006003000421060MUG OCCASIONS LOVE 2PCE0000001000+00004385+00000+0001T   00004385+0000001508          1400 SP6515               2BZ
237763003237763080-000127     237763006003000424351VALENTINES DAY 36x24CM 0000001000+00002192+00000+0001T   00002192+0000001508          1400 SP6112               2BZ
237763004237763112-116069     237763006009681820277TCS CARRIER BAG JUMBO  0000001000+00000048+00000+0001T   00000048+0000001508          1400 SP6090               2BZ
237764000237764               237764               170213FE     1400+00000+FE0000010524+0000010524+000000000+000001474+0000011990+0000000008+I20000000000+0000011990+Z
237764001237764077-000290     237764006001023902023GIFT BOX 26x32x13cm    0000001000+00001753+00000+0001T   00001753+0000001524          1400 SP6112               2BZ
237764002237764368-000012     237764006003000610464PLUSH BEAR 30cm SITTING0000001000+00008771+00000+0001T   00008771+0000001524          1400 SP6745               2BZ
237765000237765               237765               170213FE     1400+00000+FE0000002192+0000002192+000000000+000000307+0000002499+0000000000+I40000002499+0000000000+Z
237765001237765080-000127     237765006003000424351VALENTINES DAY 36x24CM 0000001000+00002192+00000+0001T   00002192+0000001525          1400 SP6112               2BZ
237766000237766               237766               170213FE     1400+00000+FE0000000876+0000000876+000000000+000000123+0000000990+0000000009+I20000000000+0000000990+Z
237766001237766077-000314     237766006003000181148GIFT-BAG 11X14CM MATT  0000001000+00000876+00000+0001T   00000876+0000001526          1400 SP6112               2BZ
237767000237767               237767               170213FE     1400+00000+FE0000008627+0000008627+000000000+000001208+0000009835+0000000000+I40000009835+0000000000+Z
237767001237767077-000303     237767006001023593757GIFT-BAG PAPER MED     0000001000+00001578+00000+0001T   00001578+0000001532          1400 SP6112               2BZ
237767002237767018-000130     237767006001023867537MUG OCC LOVE MINI+HEART0000001000+00003507+00000+0001T   00003507+0000001532          1400 SP6515               2BZ
237767003237767301-085004     237767006003000420469ORN LOVE PLAQUE 21X10CM0000001000+00003507+00000+0001T   00003946+0006471532          1400 SP6505               2BZ
237767004237767112-116038     237767006009681820246TCS CARRIER BAG MIDI   0000001000+00000035+00000+0001T   00000035+0000001532          1400 SP6090               2BZ
237768000237768               237768               170213FE     1400+00000+FE0000007664+0000007664+000000000+000001074+0000008730+0000000008+I20000000000+0000008730+Z
237768001237768046-000400     237768006001023804983BATT ALKALINE 1.5Vx30PC0000001000+00003244+00000+0001T   00003244+0000001536          1400 SP6312               2BZ
237768002237768368-000049     237768006003000536955PLUSH BEAR 15cm LOVE   0000001000+00004385+00000+0001T   00004385+0000001536          1400 SP6745               2BZ
237768003237768112-116038     237768006009681820246TCS CARRIER BAG MIDI   0000001000+00000035+00000+0001T   00000035+0000001536          1400 SP6090               2BZ
237769000237769               237769               170213FE     1400+00000+FE0000011471+0000011471+000000000+000001607+0000013070+0000000008+I20000000000+0000013070+Z
237769001237769261-003817     237769006001023536532GUN RIFLE WITH ROCKET  0000001000+00011402+00000+0001T   00011402+0000001538          1400 SP6710               2BZ
237769002237769112-116053     237769006006438002399TCS CARRIER BAG 38L    0000001000+00000069+00000+0001T   00000069+0000001538          1400 SP6090               2BZ
237770000237770               237770               170213FE     1400+00000+FE0000006138+0000006138+000000000+000000860+0000006990+0000000008+I20000000000+0000006990+Z
237770001237770104-000053     237770006003000011193BASKET PL 25X32X6cm    0000001000+00004385+00000+0001T   00004385+0000001538          1400 SP6210               2BZ
237770002237770012-000001     237770006003000331048MICRO PLATE-COVER 26X6 0000001000+00001753+00000+0001T   00002192+0008191538          1400 SP6300               2BZ
237771000237771               237771               170213FE     1400+00000+FE0000003324+0000003324+000000000+000000468+0000003790+0000000002+I20000000000+0000003790+Z
237771001237771006-000171-K   237771006003000609697BALLOONS 1PC PURPLE PRN0000001000+00000218+00000+0001T   00000218+0000001540          1400 SP6131               2BZ
237771002237771006-000172-A   237771006003000609765BALLOONS METALLIC PINK 0000001000+00000218+00000+0001T   00000218+0000001540          1400 SP6131               2BZ
237771003237771006-000172-G   237771006003000610167BALLOONS METALLIC SILV 0000001000+00000218+00000+0001T   00000218+0000001540          1400 SP6131               2BZ
237771004237771006-000173-C   237771006003000636518BALLOONS 1PC PINK      0000001000+00000218+00000+0001T   00000218+0000001540          1400 SP6131               2BZ
237771005237771006-001000     237771006003000093779HELIUM BALLOON FILL    0000004000+00000613+00000+0001T   00000613+0000001540          1400 SP6131               2BZ
237772000237772               237772               170213FE     1400+00000+FE0000001314+0000001314+000000000+000000184+0000001490+0000000008+I20000000000+0000001490+Z
237772001237772046-000012     237772006904708013062BATTERIES AA  CARD-OF-40000001000+00001314+00000+0001T   00001314+0000001541          1400 SP6312               2BZ
237773000237773               237773               170213FE     1400+00000+FE0000023532+0000023532+000000000+000003304+0000026836+0000000000+I40000026836+0000000000+Z
237773001237773112-116069     237773006009681820277TCS CARRIER BAG JUMBO  0000001000+00000048+00000+0001T   00000048+0000001559          1400 SP6090               2BZ
237773002237773200-000100     237773006001023764003CUPS 25PCE DISPOSABLE  0000002000+00001928+00000+0001T   00001928+0000001559          1400 SP6214               2BZ
237773003237773077-000011-L   237773006001023808585P/TISSUE BRIGHT 10SHEET0000001000+00000876+00000+0001T   00000876+0000001559          1400 SP6112               2BZ
237773004237773077-000010-F   237773006003453000461CREPE-PAPER BLUE       0000002000+00000788+00000+0001T   00000788+0000001559          1400 SP6112               2BZ
237773005237773565-000055     237773006003000028252NOVELTY B/O FINGR-BEAMS0000008000+00001753+00000+0001T   00001753+0000001559          1400 SP6745               2BZ
237773006237773903-000200     237773006009826020234SWT CHOC RP CHOCO 23G  0000004000+00000788+00000+0001T   00000788+0000001559          1400 SP6150               2BZ
237774000237774               237774               170213FE     1400+00000+FE0000006187+0000006187+000000000+000000867+0000007054+0000000000+I40000007054+0000000000+Z
237774001237774018-050000     237774006003000412679MUG OCC LOVE TWIN BEAR 0000001000+00006139+00000+0001T   00006139+0000001604          1400 SP6515               2BZ
237774002237774112-116069     237774006009681820277TCS CARRIER BAG JUMBO  0000001000+00000048+00000+0001T   00000048+0000001604          1400 SP6090               2BZ
237775000237775               237775               170213FE     1400+00000+FE0000003500+0000003500+000000000+000000490+0000003990+0000000000+I40000003990+0000000000+Z
237775001237775018-000177     237775006001023797513MUG MINI LOVE ASSTD    0000005000+00000700+00000+0001T   00000700+0000001606          1400 SP6515               2BZ
237776000237776               237776               170213FE     1400+00000+FE0000019334+0000019334+000000000+000002710+0000022044+0000000000+I40000022044+0000000000+Z
237776001237776006-000166-D   237776006003000516490BALLOONS LRG 6PC RED   0000001000+00001314+00000+0001T   00001314+0000001610          1400 SP6131               2BZ
237776002237776006-001000     237776006003000093779HELIUM BALLOON FILL    0000006000+00000613+00000+0001T   00000613+0000001610          1400 SP6131               2BZ
237776003237776077-000303     237776006001023593757GIFT-BAG PAPER MED     0000001000+00001578+00000+0001T   00001578+0000001610          1400 SP6112               2BZ
237776004237776368-000111     237776006001023780812PLUSH BEAR/DOG 29CM    0000001000+00012279+00000+0001T   00012279+0000001610          1400 SP6745               2BZ
237776005237776112-116069     237776006009681820277TCS CARRIER BAG JUMBO  0000001000+00000048+00000+0001T   00000048+0000001610          1400 SP6090               2BZ
237776006237776080-000133-A   237776006003000647019MINI VALENTINES CARD   0000001000+00000437+00000+0001T   00000437+0000001610          1400 SP6112               2BZ
237777000237777               237777               170213FE     1400+00000+FE0000002630+0000002630+000000000+000000369+0000002990+0000000009+I20000000000+0000002990+Z
237777001237777077-000270     237777006003000395453GIFT-BAG PPR JMB 33X45 0000001000+00002630+00000+0001T   00002630+0000001611          1400 SP6112               2BZ
237778000237778               237778               170213FE     1400+00000+FE0000001578+0000001578+000000000+000000221+0000001790+0000000009+I20000000000+0000001790+Z
237778001237778080-000124     237778006003000297733CARD & ENV VALENTINES  0000001000+00001578+00000+0001T   00001578+0000001611          1400 SP6112               2BZ
237779000237779               237779               170213FE     1400+00000+FE0000004385+0000004385+000000000+000000614+0000004990+0000000009+I20000000000+0000004990+Z
237779001237779031-080508     237779006001023802415P/FRAME PL 22X11CM LOVE0000001000+00004385+00000+0001T   00004385+0000001619          1400 SP6510               2BZ
237780000237780               237780               170213FE     1400+00000+FE0000014343+0000014343+000000000+000002009+0000016352+0000000000+I40000016352+0000000000+Z
237780001237780077-000315     237780006003000181186GIFT-BAG 20x28cm MATT  0000001000+00001578+00000+0001T   00001578+0000001621          1400 SP6112               2BZ
237780002237780006-000165     237780006001023758392BALLOONS LRG BAG-OF-1000000001000+00008771+00000+0001T   00008771+0000001621          1400 SP6131               2BZ
237780003237780059-011605     237780006001023384072LANTERN 24cm ASSTD-CLRS0000001000+00003946+00000+0001T   00005262+0008191621          1400 SP6305               2BZ
237780004237780112-116069     237780006009681820277TCS CARRIER BAG JUMBO  0000001000+00000048+00000+0001T   00000048+0000001621          1400 SP6090               2BZ
237781000237781               237781               170213FE     1400+00000+FE0000001314+0000001314+000000000+000000184+0000001490+0000000008+I20000000000+0000001490+Z
237781001237781046-000012     237781006904708013062BATTERIES AA  CARD-OF-40000001000+00001314+00000+0001T   00001314+0000001623          1400 SP6312               2BZ
237782000237782               237782               170213FE     1400+00000+FE0000005262+0000005262+000000000+000000737+0000005990+0000000009+I20000000000+0000005990+Z
237782001237782174-000141     237782006003000367573STORAGE ORGANISER 30X100000001000+00005262+00000+0001T   00005262+0000001645          1400 SP6205               2BZ
237783000237783               237783               170213FE     1400+00000+FE0000001227+0000001227+000000000+000000172+0000001390+0000000009+I20000000000+0000001390+Z
237783001237783077-000245     237783006001023759214GIFT-RIBBON METALLICx2 0000001000+00001227+00000+0001T   00001227+0000001646          1400 SP6112               2BZ
237784000237784               237784               170213FE     1400+00000+FE0000004818+0000004818+000000000+000000675+0000005493+0000000000+I40000005493+0000000000+Z
237784001237784006-000166-D   237784006003000516490BALLOONS LRG 6PC RED   0000002000+00001314+00000+0001T   00001314+0000001647          1400 SP6131               2BZ
237784002237784006-000166-H   237784006003000608096BALLOONS HELIUM 6PC WHT0000001000+00001314+00000+0001T   00001314+0000001647          1400 SP6131               2BZ
237784003237784077-000151     237784006008766114676GIFT-WRAP C/PHANE ASSTD0000001000+00000876+00000+0001T   00000876+0000001647          1400 SP6112               2BZ
237785000237785               237785               170213FE     1400+00000+FE0000002630+0000002630+000000000+000000369+0000002990+0000000009+I20000000000+0000002990+Z
237785001237785079-013032-D   237785006003000389643RIBBONS                0000001000+00002630+00000+0001T   00002630+0000001658          1400 SP6130               2BZ
237786000237786               237786               170213FE     1400+00000+FE0000003507+0000003507+000000000+000000491+0000003990+0000000008+I20000000000+0000003990+Z
237786001237786018-005009     237786006001023725608MUG W/PLUSH-BEAR LOVE  0000001000+00003507+00000+0001T   00003507+0000001700          1400 SP6515               2BZ
237787000237787               237787               170213FE     1400+00000+FE0000001753+0000001753+000000000+000000246+0000001990+0000000009+I20000000000+0000001990+Z
237787001237787200-003026     237787006003000276448REFUSE BAGS 10PCE GREEN0000001000+00001753+00000+0001T   00001753+0000001701          1400 SP6214               2BZ
237788000237788               237788               170213FE     1400+00000+FE0000000437+0000000437+000000000+000000062+0000000490+0000000009+I20000000000+0000000490+Z
237788001237788903-000012     237788006002099007308SWT MALLOW S/BERRY     0000001000+00000437+00000+0001T   00000437+0000001701          1400 SP6150               2BZ
237789000237789               237789               170213FE     1400+00000+FE0000002979+0000002979+000000000+000000418+0000003390+0000000007+I20000000000+0000003390+Z
237789001237789006-000120     237789006001023346889BALLOONS 10PC MIX COL  0000001000+00001753+00000+0001T   00001753+0000001704          1400 SP6131               2BZ
237789002237789006-001000     237789006003000093779HELIUM BALLOON FILL    0000002000+00000613+00000+0001T   00000613+0000001704          1400 SP6131               2BZ
237790000237790               237790               170213FE     1400+00000+FE0000008758+0000008758+000000000+000001228+0000009986+0000000000+I40000009986+0000000000+Z
237790001237790006-000166-H   237790006003000608096BALLOONS HELIUM 6PC WHT0000002000+00001314+00000+0001T   00001314+0000001708          1400 SP6131               2BZ
237790002237790006-001000     237790006003000093779HELIUM BALLOON FILL    0000010000+00000613+00000+0001T   00000613+0000001708          1400 SP6131               2BZ
237791000237791               237791               170213FE     1400+00000+FE0000001578+0000001578+000000000+000000221+0000001790+0000000009+I20000000000+0000001790+Z
237791001237791077-000315     237791006003000181186GIFT-BAG 20x28cm MATT  0000001000+00001578+00000+0001T   00001578+0000001712          1400 SP6112               2BZ
237792000237792               237792               170213FE     1400+00000+FE0000000613+0000000613+000000000+000000086+0000000690+0000000009+I20000000000+0000000690+Z
237792001237792304-001011     237792006001023806727FLWR ROSE RED W/BEAR   0000001000+00000613+00000+0001T   00000788+0006471713          1400 SP6510               2BZ
237793000237793               237793               170213FE     1400+00000+FE0000012210+0000012210+000000000+000001716+0000013926+0000000000+I40000013926+0000000000+Z
237793001237793903-003080     237793005907029004673SWT SNACK STIX CHOC 50g0000001000+00000876+00000+0001T   00000876+0000001720          1400 SP6150               2BZ
237793002237793903-000090     237793006009826020821SWT GS CHOCO COINS 60g 0000001000+00002104+00000+0001T   00002104+0000001720          1400 SP6150               2BZ
237793003237793903-000892     237793008693029700420SWT NOVELTY CHOCO CREAM0000001000+00000788+00000+0001T   00000788+0000001720          1400 SP6150               2BZ
237793004237793903-000221     237793006001704007382SWT EENY-MEENY-MOS 60G 0000001000+00000876+00000+0001T   00000876+0000001720          1400 SP6150               2BZ
237793005237793903-000215     237793006002099001214SWT GS MALLOW TWIST PAC0000001000+00001753+00000+0001T   00001753+0000001720          1400 SP6150               2BZ
237793006237793903-000137     237793006002099004130SWEET GS JELLY BEAN 60G0000002000+00000788+00000+0001T   00000788+0000001720          1400 SP6150               2BZ
237793007237793903-000138     237793006002099004314SWT GS WINE GUMS 60G   0000001000+00000788+00000+0001T   00000788+0000001720          1400 SP6150               2BZ
237793008237793903-004950     237793006002580020304SWT APRICOT SURPRISE   0000001000+00001314+00000+0001T   00001314+0000001720          1400 SP6150               2BZ
237793009237793903-000151     237793006009803374411SWT SML RND R/BOW LOLLY0000004000+00000525+00000+0001T   00000525+0000001720          1400 SP6150               2BZ
237793010237793112-116038     237793006009681820246TCS CARRIER BAG MIDI   0000001000+00000035+00000+0001T   00000035+0000001720          1400 SP6090               2BZ
237794000237794               237794               170213FE     1400+00000+FE0000005262+0000005262+000000000+000000737+0000005999+0000000000+I40000005999+0000000000+Z
237794001237794016-006524     237794006003000579358S/JAR GLS 750ml ASSTD  0000001000+00005262+00000+0001T   00005262+0000001724          1400 SP6300               2BZ
237795000237795               237795               170213FE     1400+00000+FE0000001313+0000001313+000000000+000000184+0000001490+0000000007+I20000000000+0000001490+Z
237795001237795304-001011     237795006001023806727FLWR ROSE RED W/BEAR   0000001000+00000613+00000+0001T   00000788+0006471729          1400 SP6510               2BZ
237795002237795018-000177     237795006001023797513MUG MINI LOVE ASSTD    0000001000+00000700+00000+0001T   00000700+0000001729          1400 SP6515               2BZ
237796000237796               237796               170213FE     1400+00000+FE0000000700+0000000700+000000000+000000098+0000000790+0000000008+I20000000000+0000000790+Z
237796001237796018-000177     237796006001023797513MUG MINI LOVE ASSTD    0000001000+00000700+00000+0001T   00000700+0000001730          1400 SP6515               2BZ
237797000237797               237797               170213FE     1400+00000+FE0000005524+0000005524+000000000+000000774+0000006298+0000000000+I40000006298+0000000000+Z
237797001237797903-000087     237797006001704000161SWT SPECKLED-EGGS 50G  0000001000+00001139+00000+0001T   00001139+0000001732          1400 SP6150               2BZ
237797002237797082-000110     237797006003000360482READING GLS STRENGHT:2 0000001000+00004385+00000+0001T   00004385+0000001732          1400 SP6160               2BZ
237798000237798               237798               170213FE     1400+00000+FE0000001402+0000001402+000000000+000000197+0000001590+0000000009+I20000000000+0000001590+Z
237798001237798304-001204     237798006001023737984FLOWER OCC. TEDDY/ROSES0000001000+00001402+00000+0001T   00001490+0006471747          1400 SP6510               2CZ
237799000237799               237799               170213FE     1400+00000+FE0000005961+0000005961+000000000+000000835+0000006790+0000000006+I20000000000+0000006790+Z
237799001237799002-003733     237799006001023849182STRAINER D/FRY 20CM    0000001000+00003069+00000+0001T   00003069+0000001748          1400 SP6300               2BZ
237799002237799077-000303     237799006001023593757GIFT-BAG PAPER MED     0000001000+00001578+00000+0001T   00001578+0000001748          1400 SP6112               2BZ
237799003237799903-000844     237799005010478432567SWT CANDY DL LUV HEARTS0000001000+00001314+00000+0001T   00001314+0000001748          1400 SP6150               2BZ
237800000237800               237800               170213FE     1400+00000+FE0000003507+0000003507+000000000+000000491+0000003990+0000000008+I20000000000+0000003990+Z
237800001237800105-007015     237800006001023168221CONTAINER PL ROUND     0000001000+00003507+00000+0001T   00003507+0000001748          1400 SP6210               2BZ
237801000237801               237801               170213FE     1400+00000+FE0000001490+0000001490+000000000+000000209+0000001699+0000000000+I40000001699+0000000000+Z
237801001237801002-000802     237801006003000426515PEELER STAINLESS STEEL 0000001000+00001490+00000+0001T   00001490+0000001750          1400 SP6300               2BZ
237802000237802               237802               170213FE     1400+00000+FE0000001490+0000001490+000000000+000000209+0000001690+0000000009+I20000000000+0000001690+Z
237802001237802089-001021     237802006003000112319KEY CHAIN MINI BIBLE   0000001000+00001490+00000+0001T   00001490+0000001750          1400 SP6205               2BZ
237803000237803               237803               170213FE     1400+00000+FE0000000788+0000000788+000000000+000000111+0000000890+0000000009+I20000000000+0000000890+Z
237803001237803903-000892     237803008693029700420SWT NOVELTY CHOCO CREAM0000001000+00000788+00000+0001T   00000788+0000001751          1400 SP6150               2BZ
237804000237804               237804               170213FE     1400+00000+FE0000001490+0000001490+000000000+000000209+0000001690+0000000009+I20000000000+0000001690+Z
237804001237804077-000299     237804006003000395576G/BAG 32x25cm LRG LOVE 0000001000+00001490+00000+0001T   00001490+0000001753          1400 SP6112               2BZ
237805000237805               237805               170213FE     1400+00000+FE0000010569+0000010569+000000000+000001480+0000012049+0000000000+I40000012049+0000000000+Z
237805001237805038-001800     237805006003000623303DOILIE PAPER HRT 24PC  0000003000+00003507+00000+0001T   00003507+0000001755          1400 SP6300               2BZ
237805002237805112-116069     237805006009681820277TCS CARRIER BAG JUMBO  0000001000+00000048+00000+0001T   00000048+0000001755          1400 SP6090               2BZ
237806000237806               237806               170213FE     1400+00000+FE0000013156+0000013156+000000000+000001842+0000014998+0000000000+I40000014998+0000000000+Z
237806001237806368-000614     237806006001023705808PLUSH LOVE 30cm        0000001000+00008771+00000+0001T   00008771+0000001756          1400 SP6745               2BZ
237806002237806368-000001     237806006003000097982Plush Bear 25cm        0000001000+00004385+00000+0001T   00004385+0000001756          1400 SP6745               2BZ
237807000237807               237807               170213FE     1400+00000+FE0000002396+0000002396+000000000+000000339+0000002730+0000000005+I20000000000+0000002730+Z
237807002237807112-116038     237807006009681820246TCS CARRIER BAG MIDI   0000001000+00000035+00000+0001T   00000035+0000001759          1400 SP6090               2BZ
237807003237807903-000012     237807006002099007308SWT MALLOW S/BERRY     0000003000+00000437+00000+0001T   00000437+0000001759          1400 SP6150               2BZ
237807004237807903-000151     237807006009803374411SWT SML RND R/BOW LOLLY0000002000+00000525+00000+0001T   00000525+0000001759          1400 SP6150               2BZ
237808000237808               237808               170213FE     1400+00000+FE0000002192+0000002192+000000000+000000307+0000002499+0000000000+I40000002499+0000000000+Z
237808001237808563-000318-L   237808006003000407088SERVIETTES 33cm RED    0000001000+00002192+00000+0001T   00002192+0000001801          1400 SP6214               2BZ
237809000237809               237809               170213FE     1400+00000+FE0000003507+0000003507+000000000+000000491+0000003990+0000000008+I20000000000+0000003990+Z
237809001237809018-000136     237809006001023659026MUG OCC LOVE W/PLUSH   0000001000+00003507+00000+0001T   00003507+0000001802          1400 SP6515               2BZ
A17021300                                          09565538FESLAVE 2                       SP63IC
A17021301                                          10192882FESLAVE 2                       SP63IC
A17021302                                          10272878FESLAVE 2                       SP61IC
C23780300                                          170213FE903-000095     17513332SLAVE 2     SP63IC0000000000+0000000000+0010000001000+
C23780700                                          170213FE903-000619     17593870SLAVE 2     SP61IC0000000000+0000000000+0010000002000+
M17021301                              IT DEPT     FEFROM FICHARDT FE                                                                                LAST TRANSACTION SLAVE 2 - 237809                                                               THANX
M17021302                              SHIEHAAM    FEFROM FICHARDT FE                                                                                CASH BANKING FOR 13/02/17 - R6746.                                                              THANX
M17021391                              CASH        FESLAVE 2                       Z-REPORT No.   548TOTAL (Sales - Refunds)           4220.37       CASH TO BE BANKED                 1703.70       DEBIT CARDS                          0.00       CREDIT CARDS                      2397.77       Z-READING                         4101.47       AIRTIME DEBIT CARD SALES             0.00       AIRTIME CARD SALES                   0.00       OVERS/UNDERS                         0.00       AIRTIME CASH SALES                   0.00       GIFT CARDS                           0.00       GIFT CARD CASH SALES                 0.00       STAFF-REFRESHMENTS                 118.90       T O T A L  CASH PAYOUTS            118.90                                                                                                                                                                                                                                                                                                      Z
M17021392                              CASH        FEABSENT                                                                                                                                                                                          ANNUAL LEAVE                                                                                                                                                                                    DAY OFF                                                                                                                                                                                         COMMENTS                                                                                                                                                                                                                                                                                                                                                                                       Z
Y17021300                                          FE00000000370492+000071
ZFE17021319373 SLAVE 2      SALES DATA                     NEXT INVOICE NO.  237810 0548
X FE Slave 2 First invoice 237737 170213 Last invoice 237809 170213 Next invoice 237810 Total number of records 000000233 clbackup completed 19:37:31
