242442000242442               242442               170213FE     1400+00000+FE0000001139+0000001139+000000000+000000160+0000001290+0000000009+I20000000000+0000001290+Z
242442001242442903-000087     242442006001704000161SWT SPECKLED-EGGS 50G  0000001000+00001139+00000+0001T   00001139+0000000904          1400 AG5150               3AZ
242443000242443               242443               170213FE     1400+00000+FE0000002980+0000002980+000000000+000000418+0000003390+0000000008+I20000000000+0000003390+Z
242443001242443036-000605     242443006001023158611WASHING-PEGS WDN PCK-240000002000+00001490+00000+0001T   00001490+0000000910          1400 AG5212               3AZ
242444000242444               242444               170213FE     1400+00000+FE0000019365+0000019365+000000000+000002712+0000022077+0000000000+I40000022077+0000000000+Z
242444001242444009-002000     242444006003000593903MELAMINE DINNER SET    0000002000+00009648+00000+0001T   00014911+0008150931          1400 AG5210               3AZ
242444002242444112-116053     242444006006438002399TCS CARRIER BAG 38L    0000001000+00000069+00000+0001T   00000069+0000000931          1400 AG5090               3AZ
242445000242445               242445               170213FE     1400+00000+FE0000005260+0000005260+000000000+000000738+0000005998+0000000000+I40000005998+0000000000+Z
242445001242445006-000220-A   242445006001023890849PARTY TABLE-CLOTH GIRL 0000001000+00002630+00000+0001T   00002630+0000000932          1400 AG5131               3AZ
242445002242445006-000220-B   242445006001023890870PARTY TABLE-CLOTH BOY  0000001000+00002630+00000+0001T   00002630+0000000932          1400 AG5131               3AZ
242446000242446               242446               170213FE     1400+00000+FE0000001578+0000001578+000000000+000000221+0000001790+0000000009+I20000000000+0000001790+Z
242446001242446077-000315     242446006003000181186GIFT-BAG 20x28cm MATT  0000001000+00001578+00000+0001T   00001578+0000001007          1400 AG5112               3AZ
242447000242447               242447               170213FE     1400+00000+FE0000004207+0000004207+000000000+000000590+0000004790+0000000007+I20000000000+0000004790+Z
242447001242447083-000054     242447006001023729071LIGHTER REFILLABLE LED 0000001000+00001578+00000+0001T   00001578+0000001009          1400 AG5315               3AZ
242447002242447002-000878     242447006001023770967STRAINER TEA WIRE 7cm  0000001000+00001490+00000+0001T   00001490+0000001009          1400 AG5300               3AZ
242447003242447903-000087     242447006001704000161SWT SPECKLED-EGGS 50G  0000001000+00001139+00000+0001T   00001139+0000001009          1400 AG5150               3AZ
242448000242448               242448               170213FE     1400+00000+FE0000002192+0000002192+000000000+000000307+0000002490+0000000009+I20000000000+0000002490+Z
242448001242448006-000090     242448006001023538505BANNER HAPPY-BIRTHDAY  0000001000+00002192+00000+0001T   00002192+0000001011          1400 AG5131               3AZ
242449000242449               242449               170213FE     1400+00000+FE0000008626+0000008626+000000000+000001210+0000009830+0000000006+I20000000000+0000009830+Z
242449001242449112-116038     242449006009681820246TCS CARRIER BAG MIDI   0000001000+00000035+00000+0001T   00000035+0000001012          1400 AG5090               3AZ
242449002242449105-001005     242449006001023858214CONTAINERS MINI 6PCE   0000003000+00001402+00000+0001T   00001402+0000001012          1400 AG5210               3AZ
242449003242449566-000315     242449006003000521661STICKERS DEC FRAMES    0000001000+00004385+00000+0001T   00004385+0000001012          1400 AG5130               3AZ
242450000242450               242450               170213FE     1400+00000+FE0000001753+0000001753+000000000+000000246+0000001990+0000000009+I20000000000+0000001990+Z
242450001242450903-000211     242450006002099001238SWT GS MALLOW ICE CREAM0000001000+00001753+00000+0001T   00001753+0000001013          1400 AG5150               3AZ
242451000242451               242451               170213FE     1400+00000+FE0000006570+0000006570+000000000+000000921+0000007490+0000000001+I20000000000+0000007490+Z
242451001242451040-010105     242451006001023162359CANDLE-HOLDER MTL SMALL0000003000+00001314+00000+0001T   00001314+0000001020          1400 AG5510               3AZ
242451002242451039-000030     242451006003000286942CANDLE 25cm MTL-YELLOW 0000003000+00000876+00000+0001T   00000876+0000001020          1400 AG5510               3AZ
242452000242452               242452               170213FE     1400+00000+FE0000004383+0000004383+000000000+000000614+0000004990+0000000007+I20000000000+0000004990+Z
242452001242452077-000302     242452008010410010195GIFT-BAG 18X23CM E/D   0000001000+00000876+00000+0001T   00000876+0000001059          1400 AG5112               3AZ
242452002242452031-000002-A   242452006003000247103P/FRAME LOVE 7.5X7.5CM 0000001000+00003507+00000+0001T   00003507+0000001059          1400 AG5510               3AZ
242453000242453               242453               170213FE     1400+00000+FE0000009468+0000009468+000000000+000001328+0000010796+0000000000+I40000010796+0000000000+Z
242453001242453051-600706     242453006003000604197S/GARDEN LIGHT 35cm PL 0000004000+00002367+00000+0001T   00002630+0008191104          1400 AG5820               3AZ
242454000242454               242454               170213FE     1400+00000+FE0000001401+0000001401+000000000+000000197+0000001590+0000000008+I20000000000+0000001590+Z
242454001242454077-000302     242454008010410010195GIFT-BAG 18X23CM E/D   0000001000+00000876+00000+0001T   00000876+0000001112          1400 AG5112               3AZ
242454002242454903-000155     242454006009803374435SWT LOLLY I LUV U HEART0000001000+00000525+00000+0001T   00000525+0000001112          1400 AG5150               3AZ
242455000242455               242455               170213FE     1400+00000+FE0000000437+0000000437+000000000+000000062+0000000490+0000000009+I20000000000+0000000490+Z
242455001242455080-000133-A   242455006003000647019MINI VALENTINES CARD   0000001000+00000437+00000+0001T   00000437+0000001113          1400 AG5112               3AZ
242456000242456               242456               170213FE     1400+00000+FE0000009647+0000009647+000000000+000001351+0000010998+0000000000+I40000010998+0000000000+Z
242456001242456018-000129-A   242456006003000441396MUG CERAMIC JUMBO      0000001000+00005262+00000+0001T   00005262+0000001117          1400 AG5515               3AZ
242456002242456486-001012     242456006001023820907CLOCK ALARM SQR 10X12CM0000001000+00004385+00000+0001T   00004385+0000001117          1400 AG5510               3AZ
242457000242457               242457               170213FE     1400+00000+FE0000006139+0000006139+000000000+000000860+0000006999+0000000000+I40000006999+0000000000+Z
242457001242457007-000893-17  242457006003000646449DIARY A5 PAGE 2017     0000001000+00006139+00000+0001T   00006139+0000001119          1400 AG5130               3AZ
242458000242458               242458               170213FE     1400+00000+FE0000000035+0000000035+000000000+000000005+0000000040+0000000000+I20000000000+0000000040+Z
242458001242458112-116038     242458006009681820246TCS CARRIER BAG MIDI   0000001000+00000035+00000+0001T   00000035+0000001119          1400 AG5090               3AZ
242459000242459               242459               170213FE     1400+00000+FE0000004385+0000004385+000000000+000000614+0000004999+0000000000+I40000004999+0000000000+Z
242459001242459368-000049     242459006003000536955PLUSH BEAR 15cm LOVE   0000001000+00004385+00000+0001T   00004385+0000001126          1400 AG5745               3AZ
242460000242460               242460               170213FE     1400+00000+FE0000001490+0000001490+000000000+000000209+0000001690+0000000009+I20000000000+0000001690+Z
242460001242460033-005903-B   242460006001023678164B/LACES FLAT 120cm ASST0000001000+00001490+00000+0001T   00001490+0000001127          1400 AG5200               3AZ
242461000242461               242461               170213FE     1400+00000+FE0000005786+0000005786+000000000+000000811+0000006597+0000000000+I40000006597+0000000000+Z
242461001242461077-000303     242461006001023593757GIFT-BAG PAPER MED     0000001000+00001578+00000+0001T   00001578+0000001129          1400 AG5112               3AZ
242461002242461903-000095     242461006001704011495SWT SPECKLED-EGGS 100G 0000002000+00002104+00000+0001T   00002104+0000001129          1400 AG5150               3AZ
242462000242462               242462               170213FE     1400+00000+FE0000000035+0000000035+000000000+000000005+0000000040+0000000000+I20000000000+0000000040+Z
242462001242462112-116038     242462006009681820246TCS CARRIER BAG MIDI   0000001000+00000035+00000+0001T   00000035+0000001130          1400 AG5090               3AZ
242463000242463               242463               170213FE     1400+00000+FE0000003507+0000003507+000000000+000000491+0000003990+0000000008+I20000000000+0000003990+Z
242463001242463018-005009     242463006001023725608MUG W/PLUSH-BEAR LOVE  0000001000+00003507+00000+0001T   00003507+0000001130          1400 AG5515               3AZ
242464000242464               242464               170213FE     1400+00000+FE0000000350+0000000350+000000000+000000049+0000000390+0000000009+I20000000000+0000000390+Z
242464001242464007-000167     242464006009685857347SPIRAL NOTES A7 72PG   0000001000+00000350+00000+0001T   00000350+0000001132          1400 AG5130               3AZ
242465000242465               242465               170213FE     1400+00000+FE0000050462+0000050462+000000000+000007073+0000057535+0000000000+I40000057535+0000000000+Z
242465001242465112-116069     242465006009681820277TCS CARRIER BAG JUMBO  0000001000+00000048+00000+0001T   00000048+0000001138          1400 AG5090               3AZ
242465002242465079-000020     242465006003000590889PENCIL DOUBLE ENDED    0000001000+00002630+00000+0001T   00002630+0000001138          1400 AG5130               3AZ
242465003242465071-003023     242465006001023836120BALLPENS 10PCE MINI GEL0000002000+00003507+00000+0001T   00003507+0000001138          1400 AG5130               3AZ
242465004242465071-003850     242465006001023893253PENCIL 5PCE RAINBOW WDN0000001000+00002630+00000+0001T   00002630+0000001138          1400 AG5130               3AZ
242465005242465071-001010     242465006001023893314MARKERS-METALIC 3PCE   0000001000+00003507+00000+0001T   00003507+0000001138          1400 AG5130               3AZ
242465006242465071-030012     242465006003000283842PEN NVLTY GLITTER 6PC  0000001000+00002630+00000+0001T   00002630+0000001138          1400 AG5130               3AZ
242465007242465903-000095     242465006001704011495SWT SPECKLED-EGGS 100G 0000002000+00002104+00000+0001T   00002104+0000001138          1400 AG5150               3AZ
242465008242465089-023424     242465006001023759740K/CHAIN W/BELT HOOK 28 0000001000+00002630+00000+0001T   00002630+0000001138          1400 AG5205               3AZ
242465009242465306-000977     242465006003000559596FIRSTAID PLASTER 75PC  0000001000+00002630+00000+0001T   00002630+0000001138          1400 AG5200               3AZ
242465010242465073-000152     242465006003000683390COSMETIC BAG 18X9X5    0000001000+00001490+00000+0001T   00001490+0000001138          1400 AG5200               3AZ
242465011242465003-008001     242465006003000580125ORN SCARECROW 15CM ASST0000001000+00003507+00000+0001T   00003507+0000001138          1400 AG5505               3AZ
242465012242465204-000300     242465006003000573141MEMO HOLDER SENTIMENT  0000001000+00001753+00000+0001T   00001753+0000001138          1400 AG5300               3AZ
242465013242465567-011423     242465006003000641345BK COLOURING THERAPY A50000001000+00006139+00000+0001T   00006139+0000001138          1400 AG5757               3AZ
242465014242465079-000344     242465006001023904010FELT-TIP PENS 12PCE    0000001000+00002630+00000+0001T   00002630+0000001138          1400 AG5130               3AZ
242465015242465079-000335     242465006003000670550THERAPY P/CRAYONS 30   0000001000+00007016+00000+0001T   00007016+0000001138          1400 AG5130               3AZ
242466000242466               242466               170213FE     1400+00000+FE0000002665+0000002665+000000000+000000374+0000003039+0000000000+I40000003039+0000000000+Z
242466001242466003-009202     242466006003000405725ORN STONE FLOWERPOT    0000001000+00002630+00000+0001T   00002630+0000001143          1400 AG5505               3AZ
242466002242466112-116038     242466006009681820246TCS CARRIER BAG MIDI   0000001000+00000035+00000+0001T   00000035+0000001143          1400 AG5090               3AZ
242467000242467               242467               170213FE     1400+00000+FE0000002630+0000002630+000000000+000000369+0000002990+0000000009+I20000000000+0000002990+Z
242467001242467033-000140     242467006003000676972HAIR BRUSH BRIGHT      0000001000+00002630+00000+0001T   00002630+0000001156          1400 AG5200               3AZ
242468000242468               242468               170213FE     1400+00000+FE0000008706+0000008706+000000000+000001221+0000009920+0000000007+I20000000000+0000009920+Z
242468001242468016-006522     242468006003000461226S/JAR GLS CHECK 17cm   0000002000+00001753+00000+0001T   00001753+0000001200          1400 AG5300               3AZ
242468002242468306-000021     242468006001023169433EARBUDS 100PCE IN BAG  0000001000+00000613+00000+0001T   00000613+0000001200          1400 AG5200               3AZ
242468003242468007-000537     242468000651728791017NOTE-PAD RND SMILE-FACE0000003000+00000700+00000+0001T   00000700+0000001200          1400 AG5130               3AZ
242468004242468007-000555     242468006001023848239MEMO-PAD MINI LOVE     0000003000+00000613+00000+0001T   00000613+0000001200          1400 AG5130               3AZ
242468005242468306-000021     242468006001023169433EARBUDS 100PCE IN BAG  0000001000+00000613+00000+0001T   00000613+0000001200          1400 AG5200               3AZ
242468006242468112-116038     242468006009681820246TCS CARRIER BAG MIDI   0000001000+00000035+00000+0001T   00000035+0000001200          1400 AG5090               3AZ
242469000242469               242469               170213FE     1400+00000+FE0000009207+0000009207+000000000+000001290+0000010490+0000000007+I20000000000+0000010490+Z
242469001242469077-000312     242469006001023608697GIFT-BAG 10X35CM GLOSS 0000001000+00001314+00000+0001T   00001314+0000001307          1400 AG5112               3AZ
242469002242469103-000069     242469006003000630561BASKET RECT 23x28x7cm  0000001000+00007893+00000+0001T   00007893+0000001307          1400 AG5300               3AZ
242470000242470               242470               170213FE     1400+00000+FE0000001578+0000001578+000000000+000000221+0000001790+0000000009+I20000000000+0000001790+Z
242470001242470080-000124     242470006003000297733CARD & ENV VALENTINES  0000001000+00001578+00000+0001T   00001578+0000001318          1400 AG5112               3AZ
242471000242471               242471               170213FE     1400+00000+FE0000006139+0000006139+000000000+000000860+0000006990+0000000009+I20000000000+0000006990+Z
242471001242471035-000021     242471006002596020206UMBRELLA GENTS         0000001000+00006139+00000+0001T   00006139+0000001319          1400 AG5205               3AZ
242472000242472               242472               170213FE     1400+00000+FE0000004385+0000004385+000000000+000000614+0000004990+0000000009+I20000000000+0000004990+Z
242472001242472368-000049     242472006003000536955PLUSH BEAR 15cm LOVE   0000001000+00004385+00000+0001T   00004385+0000001329          1400 AG5745               3AZ
242473000242473               242473               170213FE     1400+00000+FE0000003506+0000003506+000000000+000000492+0000003990+0000000008+I20000000000+0000003990+Z
242473001242473006-000120     242473006001023346889BALLOONS 10PC MIX COL  0000002000+00001753+00000+0001T   00001753+0000001341          1400 AG5131               3AZ
242474000242474               242474               170213FE     1400+00000+FE0000000918+0000000918+000000000+000000130+0000001040+0000000008+I20000000000+0000001040+Z
242474001242474071-000012     242474006001177101006CHALK COLOUR 12PCE     0000001000+00000481+00000+0001T   00000481+0000001341          1400 AG5130               3AZ
242474002242474071-000212     242474006009608641190CHALK WHITE 12PCE      0000001000+00000437+00000+0001T   00000437+0000001341          1400 AG5130               3AZ
242475000242475               242475               170213FE     1400+00000+FE0000008713+0000008713+000000000+000001222+0000009930+0000000005+I20000000000+0000009930+Z
242475001242475112-116038     242475006009681820246TCS CARRIER BAG MIDI   0000001000+00000035+00000+0001T   00000035+0000001346          1400 AG5090               3AZ
242475002242475018-000129     242475006001023403353MUG OCC. LOVE V-SHAPE  0000001000+00002630+00000+0001T   00002630+0000001346          1400 AG5515               3AZ
242475003242475566-000451     242475006001023788443STICKERS GLITTER ASSTD 0000001000+00001314+00000+0001T   00001753+0008151346          1400 AG5130               3AZ
242475004242475077-000115-B   242475006003000181025GIFT-WRAP PPR 700MMX2M 0000001000+00002630+00000+0001T   00002630+0000001346          1400 AG5112               3AZ
242475005242475903-000095     242475006001704011495SWT SPECKLED-EGGS 100G 0000001000+00002104+00000+0001T   00002104+0000001346          1400 AG5150               3AZ
242476000242476               242476               170213FE     1400+00000+FE0000002980+0000002980+000000000+000000418+0000003390+0000000008+I20000000000+0000003390+Z
242476001242476566-000068     242476006003000418046POP UP LOVE 2 ASSTD    0000001000+00002192+00000+0001T   00002192+0000001409          1400 AG5130               3AZ
242476002242476077-000010-C   242476006001023123879CREPE-PAPER RED        0000001000+00000788+00000+0001T   00000788+0000001409          1400 AG5112               3AZ
242477000242477               242477               170213FE     1400+00000+FE0000002630+0000002630+000000000+000000369+0000002990+0000000009+I20000000000+0000002990+Z
242477001242477174-000312     242477006003000053483TRAVEL PADLCK CMB RESET0000001000+00002630+00000+0001T   00003069+0008171411          1400 AG5205               3AZ
242478000242478               242478               170213FE     1400+00000+FE0000001437+0000001437+000000000+000000202+0000001630+0000000009+I20000000000+0000001630+Z
242478001242478304-001204     242478006001023737984FLOWER OCC. TEDDY/ROSES0000001000+00001402+00000+0001T   00001490+0006471420          1400 AG5510               3AZ
242478002242478112-116038     242478006009681820246TCS CARRIER BAG MIDI   0000001000+00000035+00000+0001T   00000035+0000001420          1400 AG5090               3AZ
242479000242479               242479               170213FE     1400+00000+FE0000000700+0000000700+000000000+000000098+0000000790+0000000008+I20000000000+0000000790+Z
242479001242479018-000177     242479006001023797513MUG MINI LOVE ASSTD    0000001000+00000700+00000+0001T   00000700+0000001421          1400 AG5515               3AZ
242480000242480               242480               170213FE     1400+00000+FE0000002101+0000002101+000000000+000000296+0000002390+0000000007+I20000000000+0000002390+Z
242480001242480077-000010-C   242480006001023123879CREPE-PAPER RED        0000001000+00000788+00000+0001T   00000788+0000001435          1400 AG5112               3AZ
242480002242480077-000151     242480006008766114676GIFT-WRAP C/PHANE ASSTD0000001000+00000876+00000+0001T   00000876+0000001435          1400 AG5112               3AZ
242480003242480903-000011     242480006002099007315SWT MALLOW CHOC 15G    0000001000+00000437+00000+0001T   00000437+0000001435          1400 AG5150               3AZ
242481000242481               242481               170213FE     1400+00000+FE0000001575+0000001575+000000000+000000222+0000001790+0000000007+I20000000000+0000001790+Z
242481001242481903-000077     242481006939873501687SWT GS MAGIC ROCK FRUIT0000003000+00000525+00000+0001T   00000525+0000001437          1400 AG5150               3AZ
242482000242482               242482               170213FE     1400+00000+FE0000005168+0000005168+000000000+000000727+0000005890+0000000005+I20000000000+0000005890+Z
242482001242482079-009702-B   242482008427973059491PAPER SIRIO A2 WHITE   0000001000+00001051+00000+0001T   00001051+0000001450          1400 AG5130               3AZ
242482002242482366-006103     242482006001023786944DRESS UP FACE PAINT SET0000001000+00002630+00000+0001T   00002630+0000001450          1400 AG5131               3AZ
242482003242482083-000055     242482006003000003853LIGHTER ELCTRNC REFILBL0000001000+00000613+00000+0001T   00000613+0000001450          1400 AG5315               3AZ
242482004242482083-000049     242482004891035200024CIG-LIGHTER DISPOSABLE 0000002000+00000437+00000+0001T   00000437+0000001450          1400 AG5315               3AZ
242483000242483               242483               170213FE     1400+00000+FE0000003542+0000003542+000000000+000000496+0000004030+0000000008+I20000000000+0000004030+Z
242483001242483018-000136     242483006001023659026MUG OCC LOVE W/PLUSH   0000001000+00003507+00000+0001T   00003507+0000001454          1400 AG5515               3AZ
242483002242483112-116038     242483006009681820246TCS CARRIER BAG MIDI   0000001000+00000035+00000+0001T   00000035+0000001454          1400 AG5090               3AZ
242484000242484               242484               170213FE     1400+00000+FE0000017890+0000017890+000000000+000002506+0000020396+0000000000+I40000020396+0000000000+Z
242484001242484018-050000     242484006003000412679MUG OCC LOVE TWIN BEAR 0000001000+00006139+00000+0001T   00006139+0000001501          1400 AG5515               3AZ
242484002242484077-000299     242484006003000395576G/BAG 32x25cm LRG LOVE 0000001000+00001490+00000+0001T   00001490+0000001501          1400 AG5112               3AZ
242484003242484001-091415     242484006003000329113W/GLS OCC. LOVE 2PC 2800000001000+00008771+00000+0001T   00009648+0006471501          1400 AG5515               3AZ
242484004242484077-000299     242484006003000395576G/BAG 32x25cm LRG LOVE 0000001000+00001490+00000+0001T   00001490+0000001501          1400 AG5112               3AZ
242485000242485               242485               170213FE     1400+00000+FE0000006045+0000006045+000000000+000000849+0000006894+0000000000+I40000006894+0000000000+Z
242485001242485565-000071     242485006003000643387NOVELTY WIND UP CHATTER0000003000+00001139+00000+0001T   00001139+0000001502          1400 AG5745               3AZ
242485002242485903-000861     242485005010478430822SWT LOVE HEARTS SML    0000003000+00000876+00000+0001T   00000876+0000001502          1400 AG5150               3AZ
242486000242486               242486               170213FE     1400+00000+FE0000001928+0000001928+000000000+000000270+0000002198+0000000000+I40000002198+0000000000+Z
242486001242486903-000843     242486008693029031067SWT GUMMY JELAXY 80G   0000002000+00000964+00000+0001T   00000964+0000001507          1400 AG5150               3AZ
242487000242487               242487               170213FE     1400+00000+FE0000010160+0000010160+000000000+000001424+0000011580+0000000004+I20000000000+0000011580+Z
242487001242487018-000129     242487006001023403353MUG OCC. LOVE V-SHAPE  0000002000+00002630+00000+0001T   00002630+0000001509          1400 AG5515               3AZ
242487002242487018-000177     242487006001023797513MUG MINI LOVE ASSTD    0000007000+00000700+00000+0001T   00000700+0000001509          1400 AG5515               3AZ
242488000242488               242488               170213FE     1400+00000+FE0000003542+0000003542+000000000+000000496+0000004030+0000000008+I20000000000+0000004030+Z
242488001242488112-116038     242488006009681820246TCS CARRIER BAG MIDI   0000001000+00000035+00000+0001T   00000035+0000001511          1400 AG5090               3AZ
242488002242488105-001310     242488006003000572731CONTAINER COLOUR SQUARE0000001000+00003507+00000+0001T   00003507+0000001511          1400 AG5210               3AZ
242489000242489               242489               170213FE     1400+00000+FE0000000612+0000000612+000000000+000000086+0000000690+0000000008+I20000000000+0000000690+Z
242489001242489007-000123     242489006003000533879BOOK COVER 450mmx1.5m  0000002000+00000306+00000+0001T   00000306+0000001518          1400 AG5130               3AZ
242490000242490               242490               170213FE     1400+00000+FE0000008819+0000008819+000000000+000001235+0000010054+0000000000+I40000010054+0000000000+Z
242490001242490001-091415     242490006003000329113W/GLS OCC. LOVE 2PC 2800000001000+00008771+00000+0001T   00009648+0006471520          1400 AG5515               3AZ
242490002242490112-116069     242490006009681820277TCS CARRIER BAG JUMBO  0000001000+00000048+00000+0001T   00000048+0000001520          1400 AG5090               3AZ
242491000242491               242491               170213FE     1400+00000+FE0000008771+0000008771+000000000+000001228+0000009999+0000000000+I40000009999+0000000000+Z
242491001242491368-000012     242491006003000610464PLUSH BEAR 30cm SITTING0000001000+00008771+00000+0001T   00008771+0000001522          1400 AG5745               3AZ
242492000242492               242492               170213FE     1400+00000+FE0000029885+0000029885+000000000+000004185+0000034070+0000000000+I40000034070+0000000000+Z
242492001242492031-000009     242492006003000306381P/FRAME COLLAGE HEARTS 0000001000+00013157+00000+0001T   00013157+0000001525          1400 AG5510               3AZ
242492002242492112-116053     242492006006438002399TCS CARRIER BAG 38L    0000001000+00000069+00000+0001T   00000069+0000001525          1400 AG5090               3AZ
242492003242492006-000120     242492006001023346889BALLOONS 10PC MIX COL  0000001000+00001753+00000+0001T   00001753+0000001525          1400 AG5131               3AZ
242492004242492018-030000     242492006003000421060MUG OCCASIONS LOVE 2PCE0000001000+00004385+00000+0001T   00004385+0000001525          1400 AG5515               3AZ
242492005242492018-005009     242492006001023725608MUG W/PLUSH-BEAR LOVE  0000003000+00003507+00000+0001T   00003507+0000001525          1400 AG5515               3AZ
242493000242493               242493               170213FE     1400+00000+FE0000004822+0000004822+000000000+000000676+0000005498+0000000000+I40000005498+0000000000+Z
242493001242493368-000100     242493006001023474742PLUSH MD BEAR 12cm     0000001000+00002630+00000+0001T   00002630+0000001526          1400 AG5745               3AZ
242493002242493080-000127     242493006003000424351VALENTINES DAY 36x24CM 0000001000+00002192+00000+0001T   00002192+0000001526          1400 AG5112               3AZ
242494000242494               242494               170213FE     1400+00000+FE0000000876+0000000876+000000000+000000123+0000000990+0000000009+I20000000000+0000000990+Z
242494001242494077-000314     242494006003000181148GIFT-BAG 11X14CM MATT  0000001000+00000876+00000+0001T   00000876+0000001539          1400 AG5112               3AZ
242495000242495               242495               170213FE     1400+00000+FE0000009646+0000009646+000000000+000001351+0000010997+0000000000+I40000010997+0000000000+Z
242495001242495035-000002     242495006002596010542UMBRELLA LADIES PRINTED0000001000+00006139+00000+0001T   00006139+0000001541          1400 AG5205               3AZ
242495002242495174-008023     242495006001023730695PONCHO 132x203cm TWIN-P0000001000+00003507+00000+0001T   00003507+0000001541          1400 AG5205               3AZ
242496000242496               242496               170213FE     1400+00000+FE0000000964+0000000964+000000000+000000135+0000001090+0000000009+I20000000000+0000001090+Z
242496001242496903-000843     242496008693029031067SWT GUMMY JELAXY 80G   0000001000+00000964+00000+0001T   00000964+0000001543          1400 AG5150               3AZ
242497000242497               242497               170213FE     1400+00000+FE0000004556+0000004556+000000000+000000640+0000005190+0000000006+I20000000000+0000005190+Z
242497001242497039-000026     242497006001023551610C/TAPERED 25CM M/RED   0000002000+00001051+00000+0001T   00001051+0000001548          1400 AG5510               3AZ
242497002242497040-000213     242497006001023617736CANDLE-HOLDER DAISY    0000002000+00001227+00000+0001T   00001227+0000001548          1400 AG5510               3AZ
242498000242498               242498               170213FE     1400+00000+FE0000009728+0000009728+000000000+000001364+0000011092+0000000000+I40000011092+0000000000+Z
242498001242498080-000124     242498006003000297733CARD & ENV VALENTINES  0000001000+00001578+00000+0001T   00001578+0000001550          1400 AG5112               3AZ
242498002242498903-000844     242498005010478432567SWT CANDY DL LUV HEARTS0000001000+00001314+00000+0001T   00001314+0000001550          1400 AG5150               3AZ
242498003242498903-000499     242498006001704012492SWT CHOC MALLOWS 50g   0000001000+00001227+00000+0001T   00001227+0000001550          1400 AG5150               3AZ
242498004242498903-000087     242498006001704000161SWT SPECKLED-EGGS 50G  0000001000+00001139+00000+0001T   00001139+0000001550          1400 AG5150               3AZ
242498005242498903-004962     242498008410525221880SWT FINI BLCK/RED 50g  0000001000+00000964+00000+0001T   00000964+0000001550          1400 AG5150               3AZ
242498006242498206-000590     242498006003000633708BAG CLIPS LIPS 2PC     0000002000+00001753+00000+0001T   00001753+0000001550          1400 AG5321               3AZ
242499000242499               242499               170213FE     1400+00000+FE0000000909+0000000909+000000000+000000129+0000001038+0000000000+I40000001038+0000000000+Z
242499001242499112-116038     242499006009681820246TCS CARRIER BAG MIDI   0000001000+00000035+00000+0001T   00000035+0000001552          1400 AG5090               3AZ
242499002242499903-000012     242499006002099007308SWT MALLOW S/BERRY     0000002000+00000437+00000+0001T   00000437+0000001552          1400 AG5150               3AZ
242500000242500               242500               170213FE     1400+00000+FE0000023281+0000023281+000000000+000003265+0000026546+0000000000+I40000026546+0000000000+Z
242500001242500112-116069     242500006009681820277TCS CARRIER BAG JUMBO  0000001000+00000048+00000+0001T   00000048+0000001555          1400 AG5090               3AZ
242500002242500200-000032     242500006001023815521WAX-PAPER 30cmx15m-ROLL0000001000+00002630+00000+0001T   00002630+0000001555          1400 AG5214               3AZ
242500003242500200-000029     242500006003000593668DISPOSABLE ROLL BAKING 0000004000+00002630+00000+0001T   00002630+0000001555          1400 AG5214               3AZ
242500004242500024-000093-B   242500006003000430819MEASURING-SPOONS ASSTD 0000001000+00002630+00000+0001T   00002630+0000001555          1400 AG5300               3AZ
242500005242500024-000092     242500006003000426805MEASURING-SET 6PC      0000001000+00003946+00000+0001T   00003946+0000001555          1400 AG5300               3AZ
242500006242500038-001800     242500006003000623303DOILIE PAPER HRT 24PC  0000001000+00003507+00000+0001T   00003507+0000001555          1400 AG5300               3AZ
242501000242501               242501               170213FE     1400+00000+FE0000001402+0000001402+000000000+000000197+0000001590+0000000009+I20000000000+0000001590+Z
242501001242501046-000011     242501004897006172994BATTERIES SIZE:AA  2PCE0000001000+00001402+00000+0001T   00001402+0000001557          1400 AG5312               3AZ
242502000242502               242502               170213FE     1400+00000+FE0000007453+0000007453+000000000+000001044+0000008497+0000000000+I40000008497+0000000000+Z
242502001242502073-000521     242502006003000571697COSMETIC-BAG+ZIP RECT  0000001000+00003946+00000+0001T   00005262+0008121602          1400 AG5200               3AZ
242502002242502562-000052     242502006003000112333EDU EXCAVATION DIAMOND 0000001000+00003507+00000+0001T   00003507+0000001602          1400 AG5755               3AZ
242503000242503               242503               170213FE     1400+00000+FE0000007893+0000007893+000000000+000001106+0000008990+0000000009+I20000000000+0000008990+Z
242503001242503301-085007     242503006003000673698ORN OCC. LOVE S/PLAQUE 0000001000+00007893+00000+0001T   00007893+0000001603          1400 AG5505               3AZ
242504000242504               242504               170213FE     1400+00000+FE0000002628+0000002628+000000000+000000368+0000002990+0000000006+I20000000000+0000002990+Z
242504001242504006-000166-D   242504006003000516490BALLOONS LRG 6PC RED   0000001000+00001314+00000+0001T   00001314+0000001609          1400 AG5131               3AZ
242504002242504006-000167-F   242504006003000517411BALLOONS SILV METALLIC 0000001000+00001314+00000+0001T   00001314+0000001609          1400 AG5131               3AZ
242505000242505               242505               170213FE     1400+00000+FE0000002630+0000002630+000000000+000000369+0000002990+0000000009+I20000000000+0000002990+Z
242505001242505251-000012     242505006001023597915TAPE DUCT GREY 48mmx5m 0000001000+00002630+00000+0001T   00002630+0000001613          1400 AG5810               3AZ
242506000242506               242506               170213FE     1400+00000+FE0000005258+0000005258+000000000+000000737+0000005990+0000000005+I20000000000+0000005990+Z
242506001242506566-000451     242506006001023788443STICKERS GLITTER ASSTD 0000001000+00001314+00000+0001T   00001753+0008151614          1400 AG5130               3AZ
242506002242506077-000383     242506006003000247943GIFT-BAG 11X14CM S/COL 0000001000+00000788+00000+0001T   00000788+0000001614          1400 AG5112               3AZ
242506003242506077-000303     242506006001023593757GIFT-BAG PAPER MED     0000002000+00001578+00000+0001T   00001578+0000001614          1400 AG5112               3AZ
242507000242507               242507               170213FE     1400+00000+FE0000073737+0000073737+000000000+000010330+0000084067+0000000000+I40000084067+0000000000+Z
242507001242507112-116053     242507006006438002399TCS CARRIER BAG 38L    0000001000+00000069+00000+0001T   00000069+0000001618          1400 AG5090               3AZ
242507002242507368-000265     242507006001023750914PLUSH BEAR 23CM ASSTD C0000012000+00006139+00000+0001T   00006139+0000001618          1400 AG5745               3AZ
242508000242508               242508               170213FE     1400+00000+FE0000001613+0000001613+000000000+000000226+0000001830+0000000009+I20000000000+0000001830+Z
242508001242508018-000127     242508006001023380289MUG OCC STRAIGHT LOVE  0000001000+00001578+00000+0001T   00001753+0006471619          1400 AG5515               3AZ
242508002242508112-116038     242508006009681820246TCS CARRIER BAG MIDI   0000001000+00000035+00000+0001T   00000035+0000001619          1400 AG5090               3AZ
242509000242509               242509               170213FE     1400+00000+FE0000001099+0000001099+000000000+000000155+0000001250+0000000004+I20000000000+0000001250+Z
242509001242509079-009702-A   242509008427973059408PAPER SIRIO A2 BLACK   0000001000+00001051+00000+0001T   00001051+0000001621          1400 AG5130               3AZ
242509002242509112-116069     242509006009681820277TCS CARRIER BAG JUMBO  0000001000+00000048+00000+0001T   00000048+0000001621          1400 AG5090               3AZ
242510000242510               242510               170213FE     1400+00000+FE0000003366+0000003366+000000000+000000472+0000003838+0000000000+I40000003838+0000000000+Z
242510001242510206-000370     242510006003000631315STRAW P/DRINKING GLASS 0000001000+00001753+00000+0001T   00001753+0000001627          1400 AG5321               3AZ
242510002242510080-000124     242510006003000297733CARD & ENV VALENTINES  0000001000+00001578+00000+0001T   00001578+0000001627          1400 AG5112               3AZ
242510003242510112-116038     242510006009681820246TCS CARRIER BAG MIDI   0000001000+00000035+00000+0001T   00000035+0000001627          1400 AG5090               3AZ
242511000242511               242511               170213FE     1400+00000+FE0000003507+0000003507+000000000+000000491+0000003990+0000000008+I20000000000+0000003990+Z
242511001242511031-005853     242511006003000442416P/FRAME WDN TWIN HEARTS0000001000+00003507+00000+0001T   00003507+0000001631          1400 AG5510               3AZ
242512000242512               242512               170213FE     1400+00000+FE0000003069+0000003069+000000000+000000430+0000003490+0000000009+I20000000000+0000003490+Z
242512001242512464-000107     242512000073854318089PLAY-CARDS 2nd (SINGLE)0000001000+00003069+00000+0001T   00003069+0000001631          1400 AG5785               3AZ
242513000242513               242513               170213FE     1400+00000+FE0000001139+0000001139+000000000+000000160+0000001290+0000000009+I20000000000+0000001290+Z
242513001242513903-000087     242513006001704000161SWT SPECKLED-EGGS 50G  0000001000+00001139+00000+0001T   00001139+0000001632          1400 AG5150               3AZ
242514000242514               242514               170213FE     1400+00000+FE0000000436+0000000436+000000000+000000062+0000000490+0000000008+I20000000000+0000000490+Z
242514001242514006-000170-K   242514006003000609284BALLOONS 1PC PURPLE    0000001000+00000218+00000+0001T   00000218+0000001633          1400 AG5131               3AZ
242514002242514006-000172-A   242514006003000609765BALLOONS METALLIC PINK 0000001000+00000218+00000+0001T   00000218+0000001633          1400 AG5131               3AZ
242515000242515               242515               170213FE     1400+00000+FE0000001226+0000001226+000000000+000000172+0000001390+0000000008+I20000000000+0000001390+Z
242515001242515006-001000     242515006003000093779HELIUM BALLOON FILL    0000002000+00000613+00000+0001T   00000613+0000001634          1400 AG5131               3AZ
242516000242516               242516               170213FE     1400+00000+FE0000002892+0000002892+000000000+000000405+0000003290+0000000007+I20000000000+0000003290+Z
242516001242516018-000177     242516006001023797513MUG MINI LOVE ASSTD    0000001000+00000700+00000+0001T   00000700+0000001636          1400 AG5515               3AZ
242516002242516079-013102     242516006003000019601ART+CRAFT DIY PIPE-CLNR0000001000+00002192+00000+0001T   00002192+0000001636          1400 AG5130               3AZ
242517000242517               242517               170213FE     1400+00000+FE0000000035+0000000035+000000000+000000005+0000000040+0000000000+I20000000000+0000000040+Z
242517001242517112-116038     242517006009681820246TCS CARRIER BAG MIDI   0000001000+00000035+00000+0001T   00000035+0000001637          1400 AG5090               3AZ
242518000242518               242518               170213FE     1400+00000+FE0000020042+0000020042+000000000+000002807+0000022849+0000000000+I40000022849+0000000000+Z
242518001242518112-116069     242518006009681820277TCS CARRIER BAG JUMBO  0000001000+00000048+00000+0001T   00000048+0000001640          1400 AG5090               3AZ
242518002242518368-000614     242518006001023705808PLUSH LOVE 30cm        0000001000+00008771+00000+0001T   00008771+0000001640          1400 AG5745               3AZ
242518003242518031-000923     242518006001023669933P/FRAME BLK W/WORDS    0000001000+00003507+00000+0001T   00003507+0000001640          1400 AG5510               3AZ
242518004242518031-080508     242518006001023802415P/FRAME PL 22X11CM LOVE0000001000+00004385+00000+0001T   00004385+0000001640          1400 AG5510               3AZ
242518005242518077-000303     242518006001023593757GIFT-BAG PAPER MED     0000001000+00001578+00000+0001T   00001578+0000001640          1400 AG5112               3AZ
242518006242518077-000299-A   242518006003000670888GIFT-BAG PAPER JMB LOVE0000001000+00001753+00000+0001T   00001753+0000001640          1400 AG5112               3AZ
242519000242519               242519               170213FE     1400+00000+FE0000010349+0000010349+000000000+000001449+0000011798+0000000000+I40000011798+0000000000+Z
242519001242519001-091415     242519006003000329113W/GLS OCC. LOVE 2PC 2800000001000+00008771+00000+0001T   00009648+0006471641          1400 AG5515               3AZ
242519002242519080-000124     242519006003000297733CARD & ENV VALENTINES  0000001000+00001578+00000+0001T   00001578+0000001641          1400 AG5112               3AZ
242520000242520               242520               170213FE     1400+00000+FE0000001839+0000001839+000000000+000000258+0000002090+0000000007+I20000000000+0000002090+Z
242520001242520903-000087     242520006001704000161SWT SPECKLED-EGGS 50G  0000001000+00001139+00000+0001T   00001139+0000001642          1400 AG5150               3AZ
242520002242520903-000070     242520006001704001106SWT TOFFEE CREAMY 35g  0000001000+00000700+00000+0001T   00000700+0000001642          1400 AG5150               3AZ
242521000242521               242521               170213FE     1400+00000+FE0000002185+0000002185+000000000+000000310+0000002495+0000000000+I40000002495+0000000000+Z
242521001242521080-000133-A   242521006003000647019MINI VALENTINES CARD   0000001000+00000437+00000+0001T   00000437+0000001644          1400 AG5112               3AZ
242521002242521080-000133     242521006003000535613CARD&ENV MINI ASTD DSGN0000002000+00000437+00000+0001T   00000437+0000001644          1400 AG5112               3AZ
242521003242521080-000133-A   242521006003000647019MINI VALENTINES CARD   0000002000+00000437+00000+0001T   00000437+0000001644          1400 AG5112               3AZ
242522000242522               242522               170213FE     1400+00000+FE0000016746+0000016746+000000000+000002346+0000019092+0000000000+I40000019092+0000000000+Z
242522001242522368-000614     242522006001023705808PLUSH LOVE 30cm        0000001000+00008771+00000+0001T   00008771+0000001646          1400 AG5745               3AZ
242522002242522080-000124     242522006003000297733CARD & ENV VALENTINES  0000002000+00001578+00000+0001T   00001578+0000001646          1400 AG5112               3AZ
242522003242522018-000177     242522006001023797513MUG MINI LOVE ASSTD    0000001000+00000700+00000+0001T   00000700+0000001646          1400 AG5515               3AZ
242522004242522077-000303     242522006001023593757GIFT-BAG PAPER MED     0000001000+00001578+00000+0001T   00001578+0000001646          1400 AG5112               3AZ
242522005242522077-000299-A   242522006003000670888GIFT-BAG PAPER JMB LOVE0000001000+00001753+00000+0001T   00001753+0000001646          1400 AG5112               3AZ
242522006242522903-000200     242522006009826020234SWT CHOC RP CHOCO 23G  0000001000+00000788+00000+0001T   00000788+0000001646          1400 AG5150               3AZ
242523000242523               242523               170213FE     1400+00000+FE0000006840+0000006840+000000000+000000958+0000007790+0000000008+I20000000000+0000007790+Z
242523001242523018-000129-A   242523006003000441396MUG CERAMIC JUMBO      0000001000+00005262+00000+0001T   00005262+0000001647          1400 AG5515               3AZ
242523002242523077-000315     242523006003000181186GIFT-BAG 20x28cm MATT  0000001000+00001578+00000+0001T   00001578+0000001647          1400 AG5112               3AZ
242524000242524               242524               170213FE     1400+00000+FE0000005432+0000005432+000000000+000000761+0000006193+0000000000+I40000006193+0000000000+Z
242524001242524903-000844     242524005010478432567SWT CANDY DL LUV HEARTS0000002000+00001314+00000+0001T   00001314+0000001650          1400 AG5150               3AZ
242524002242524903-000095     242524006001704011495SWT SPECKLED-EGGS 100G 0000001000+00002104+00000+0001T   00002104+0000001650          1400 AG5150               3AZ
242524003242524018-000177     242524006001023797513MUG MINI LOVE ASSTD    0000001000+00000700+00000+0001T   00000700+0000001650          1400 AG5515               3AZ
242525000242525               242525               170213FE     1400+00000+FE0000002665+0000002665+000000000+000000374+0000003030+0000000009+I20000000000+0000003030+Z
242525001242525018-000129     242525006001023403353MUG OCC. LOVE V-SHAPE  0000001000+00002630+00000+0001T   00002630+0000001650          1400 AG5515               3AZ
242525002242525112-116038     242525006009681820246TCS CARRIER BAG MIDI   0000001000+00000035+00000+0001T   00000035+0000001650          1400 AG5090               3AZ
242526000242526               242526               170213FE     1400+00000+FE0000002192+0000002192+000000000+000000307+0000002490+0000000009+I20000000000+0000002490+Z
242526001242526080-000127     242526006003000424351VALENTINES DAY 36x24CM 0000001000+00002192+00000+0001T   00002192+0000001651          1400 AG5112               3AZ
242527000242527               242527               170213FE     1400+00000+FE0000012327+0000012327+000000000+000001727+0000014050+0000000004+I20000000000+0000014050+Z
242527001242527368-000111     242527006001023780812PLUSH BEAR/DOG 29CM    0000001000+00012279+00000+0001T   00012279+0000001654          1400 AG5745               3AZ
242527002242527112-116069     242527006009681820277TCS CARRIER BAG JUMBO  0000001000+00000048+00000+0001T   00000048+0000001654          1400 AG5090               3AZ
242528000242528               242528               170213FE     1400+00000+FE0000005120+0000005120+000000000+000000717+0000005837+0000000000+I40000005837+0000000000+Z
242528001242528077-000303     242528006001023593757GIFT-BAG PAPER MED     0000001000+00001578+00000+0001T   00001578+0000001657          1400 AG5112               3AZ
242528002242528018-005009     242528006001023725608MUG W/PLUSH-BEAR LOVE  0000001000+00003507+00000+0001T   00003507+0000001657          1400 AG5515               3AZ
242528003242528112-116038     242528006009681820246TCS CARRIER BAG MIDI   0000001000+00000035+00000+0001T   00000035+0000001657          1400 AG5090               3AZ
242529000242529               242529               170213FE     1400+00000+FE0000004385+0000004385+000000000+000000614+0000004999+0000000000+I40000004999+0000000000+Z
242529001242529047-009010     242529006001023120267DOOR-WINDOW-ALARM B/O  0000001000+00004385+00000+0001T   00004385+0000001658          1400 AG5880               3AZ
242530000242530               242530               170213FE     1400+00000+FE0000016557+0000016557+000000000+000002319+0000018876+0000000000+I40000018876+0000000000+Z
242530001242530030-004020     242530006003000394609PLAQUE WDN SIGN 40X25CM0000001000+00013157+00000+0001T   00013157+0000001702          1400 AG5505               3AZ
242530002242530077-000380     242530006003000247585GIFT-BAG 33X45CM S/COL 0000001000+00002455+00000+0001T   00002455+0000001702          1400 AG5112               3AZ
242530003242530077-000011-D   242530006001023808554TISSUE-WRAP WHITE 10PCE0000001000+00000876+00000+0001T   00000876+0000001702          1400 AG5112               3AZ
242530004242530112-116053     242530006006438002399TCS CARRIER BAG 38L    0000001000+00000069+00000+0001T   00000069+0000001702          1400 AG5090               3AZ
242531000242531               242531               170213FE     1400+00000+FE0000005963+0000005963+000000000+000000835+0000006798+0000000000+I40000006798+0000000000+Z
242531001242531018-030000     242531006003000421060MUG OCCASIONS LOVE 2PCE0000001000+00004385+00000+0001T   00004385+0000001707          1400 AG5515               3AZ
242531002242531077-000303     242531006001023593757GIFT-BAG PAPER MED     0000001000+00001578+00000+0001T   00001578+0000001707          1400 AG5112               3AZ
242532000242532               242532               170213FE     1400+00000+FE0000001753+0000001753+000000000+000000246+0000001990+0000000009+I20000000000+0000001990+Z
242532001242532077-000011-X   242532006001023809827TISSUE-WRAP SILVER 10PC0000001000+00001753+00000+0001T   00001753+0000001707          1400 AG5112               3AZ
242533000242533               242533               170213FE     1400+00000+FE0000009518+0000009518+000000000+000001334+0000010850+0000000002+I20000000000+0000010850+Z
242533001242533036-000151     242533006001023810588COATHANGERS    PACK-10 0000001000+00002893+00000+0001T   00002893+0000001709          1400 AG5212               3AZ
242533002242533174-000173     242533006001023905307STORAGE-BOX COLLAPSIBLE0000001000+00004385+00000+0001T   00004385+0000001709          1400 AG5205               3AZ
242533003242533033-000780     242533006001023752611COSMETIC-BRUSH-SET 7PCE0000001000+00002192+00000+0001T   00002192+0000001709          1400 AG5200               3AZ
242533004242533112-116069     242533006009681820277TCS CARRIER BAG JUMBO  0000001000+00000048+00000+0001T   00000048+0000001709          1400 AG5090               3AZ
242534000242534               242534               170213FE     1400+00000+FE0000002630+0000002630+000000000+000000369+0000002990+0000000009+I20000000000+0000002990+Z
242534001242534007-000546     242534006001023847935NOTEBOOK 4PCE ASSTD DES0000001000+00002630+00000+0001T   00002630+0000001711          1400 AG5130               3AZ
242535000242535               242535               170213FE     1400+00000+FE0000011498+0000011498+000000000+000001611+0000013109+0000000000+I40000013109+0000000000+Z
242535001242535368-000637     242535006001023874092PLUSH BEAR SLEEPING LOV0000001000+00011402+00000+0001T   00012279+0006471713          1400 AG5745               3AZ
242535002242535112-116069     242535006009681820277TCS CARRIER BAG JUMBO  0000002000+00000048+00000+0001T   00000048+0000001713          1400 AG5090               3AZ
242536000242536               242536               170213FE     1400+00000+FE0000003506+0000003506+000000000+000000492+0000003990+0000000008+I20000000000+0000003990+Z
242536001242536051-002402     242536006001023518347TRIGGER-SPRAYER  500ml 0000002000+00001753+00000+0001T   00001753+0000001714          1400 AG5820               3AZ
242537000242537               242537               170213FE     1400+00000+FE0000005120+0000005120+000000000+000000717+0000005830+0000000007+I20000000000+0000005830+Z
242537001242537301-085004     242537006003000420469ORN LOVE PLAQUE 21X10CM0000001000+00003507+00000+0001T   00003946+0006471717          1400 AG5505               3AZ
242537002242537077-000303     242537006001023593757GIFT-BAG PAPER MED     0000001000+00001578+00000+0001T   00001578+0000001717          1400 AG5112               3AZ
242537003242537112-116038     242537006009681820246TCS CARRIER BAG MIDI   0000001000+00000035+00000+0001T   00000035+0000001717          1400 AG5090               3AZ
242538000242538               242538               170213FE     1400+00000+FE0000010744+0000010744+000000000+000001506+0000012250+0000000000+I20000000000+0000012250+Z
242538001242538077-000299     242538006003000395576G/BAG 32x25cm LRG LOVE 0000001000+00001490+00000+0001T   00001490+0000001719          1400 AG5112               3AZ
242538002242538071-003866     242538006003000590018PENCIL NOVELTY RULER   0000001000+00001314+00000+0001T   00001314+0000001719          1400 AG5130               3AZ
242538003242538018-019000     242538006003000557288MUG OCC. LOVE JUMBO    0000001000+00005262+00000+0001T   00005262+0000001719          1400 AG5515               3AZ
242538004242538016-006720     242538006003000674800S/JAR GLS RHEA 660ML   0000001000+00002630+00000+0001T   00002630+0000001719          1400 AG5300               3AZ
242538005242538112-116069     242538006009681820277TCS CARRIER BAG JUMBO  0000001000+00000048+00000+0001T   00000048+0000001719          1400 AG5090               3AZ
242539000242539               242539               170213FE     1400+00000+FE0000016399+0000016399+000000000+000002298+0000018697+0000000000+I40000018697+0000000000+Z
242539001242539077-000005-B   242539006003000326617PAPER TISSUE PATTERN   0000001000+00002630+00000+0001T   00002630+0000001721          1400 AG5112               3AZ
242539002242539077-000299     242539006003000395576G/BAG 32x25cm LRG LOVE 0000001000+00001490+00000+0001T   00001490+0000001721          1400 AG5112               3AZ
242539003242539368-000111     242539006001023780812PLUSH BEAR/DOG 29CM    0000001000+00012279+00000+0001T   00012279+0000001721          1400 AG5745               3AZ
242540000242540               242540               170213FE     1400+00000+FE0000006874+0000006874+000000000+000000963+0000007837+0000000000+I40000007837+0000000000+Z
242540001242540112-116038     242540006009681820246TCS CARRIER BAG MIDI   0000001000+00000035+00000+0001T   00000035+0000001723          1400 AG5090               3AZ
242540002242540018-030000     242540006003000421060MUG OCCASIONS LOVE 2PCE0000001000+00004385+00000+0001T   00004385+0000001723          1400 AG5515               3AZ
242540003242540077-000303     242540006001023593757GIFT-BAG PAPER MED     0000001000+00001578+00000+0001T   00001578+0000001723          1400 AG5112               3AZ
242540004242540077-000011-D   242540006001023808554TISSUE-WRAP WHITE 10PCE0000001000+00000876+00000+0001T   00000876+0000001723          1400 AG5112               3AZ
242541000242541               242541               170213FE     1400+00000+FE0000005963+0000005963+000000000+000000835+0000006798+0000000000+I40000006798+0000000000+Z
242541001242541368-000049     242541006003000536955PLUSH BEAR 15cm LOVE   0000001000+00004385+00000+0001T   00004385+0000001725          1400 AG5745               3AZ
242541002242541077-000303     242541006001023593757GIFT-BAG PAPER MED     0000001000+00001578+00000+0001T   00001578+0000001725          1400 AG5112               3AZ
242542000242542               242542               170213FE     1400+00000+FE0000015830+0000015830+000000000+000002219+0000018049+0000000000+I40000018049+0000000000+Z
242542001242542050-000364-Z   242542006001023777133PADLOCK IRON 38mm CARD 0000001000+00002630+00000+0001T   00002630+0000001729          1400 AG5855               3AZ
242542002242542019-000083     242542006001023797209V/GLASS CUT 3-ASST 20CM0000002000+00004385+00000+0001T   00006139+0008171729          1400 AG5510               3AZ
242542003242542071-001238     242542000060107212485ERASERS  3PCE    CARDED0000001000+00000876+00000+0001T   00000876+0000001729          1400 AG5130               3AZ
242542004242542071-002907     242542006003000588374PEN BALLPOINT REFILL   0000002000+00001753+00000+0001T   00001753+0000001729          1400 AG5130               3AZ
242542005242542112-116069     242542006009681820277TCS CARRIER BAG JUMBO  0000001000+00000048+00000+0001T   00000048+0000001729          1400 AG5090               3AZ
242543000242543               242543               170213FE     1400+00000+FE0000027931+0000027931+000000000+000003915+0000031840+0000000006+I20000000000+0000031840+Z
242543001242543031-000866-A   242543006001023798442P/FRAME WDN SEASIDE    0000001000+00006139+00000+0001T   00006139+0000001731          1400 AG5510               3AZ
242543002242543031-000866-B   242543006001023798473P/FRAME WDN S/BOAT     0000002000+00007016+00000+0001T   00007016+0000001731          1400 AG5510               3AZ
242543003242543077-000303     242543006001023593757GIFT-BAG PAPER MED     0000002000+00001578+00000+0001T   00001578+0000001731          1400 AG5112               3AZ
242543004242543112-116069     242543006009681820277TCS CARRIER BAG JUMBO  0000001000+00000048+00000+0001T   00000048+0000001731          1400 AG5090               3AZ
242543005242543903-000211     242543006002099001238SWT GS MALLOW ICE CREAM0000002000+00001753+00000+0001T   00001753+0000001731          1400 AG5150               3AZ
242543006242543903-000151     242543006009803374411SWT SML RND R/BOW LOLLY0000002000+00000525+00000+0001T   00000525+0000001731          1400 AG5150               3AZ
242544000242544               242544               170213FE     1400+00000+FE0000001226+0000001226+000000000+000000172+0000001390+0000000008+I20000000000+0000001390+Z
242544001242544304-001011     242544006001023806727FLWR ROSE RED W/BEAR   0000002000+00000613+00000+0001T   00000788+0006471731          1400 AG5510               3AZ
242545000242545               242545               170213FE     1400+00000+FE0000003418+0000003418+000000000+000000479+0000003890+0000000007+I20000000000+0000003890+Z
242545001242545002-021022     242545006003000530403C/TAIL STICKS 12PC 20CM0000001000+00001314+00000+0001T   00001753+0008121733          1400 AG5300               3AZ
242545002242545903-000090     242545006009826020821SWT GS CHOCO COINS 60g 0000001000+00002104+00000+0001T   00002104+0000001733          1400 AG5150               3AZ
242546000242546               242546               170213FE     1400+00000+FE0000001753+0000001753+000000000+000000246+0000001999+0000000000+I40000001999+0000000000+Z
242546001242546046-002016-PK2 242546004897006175056BATTERIES CR-2016  2PCE0000001000+00001753+00000+0001T   00001753+0000001735          1400 AG5312               3AZ
242547000242547               242547               170213FE     1400+00000+FE0000001753+0000001753+000000000+000000246+0000001990+0000000009+I20000000000+0000001990+Z
242547001242547016-006509     242547006003000567355S/JAR GLS MINI LABEL   0000001000+00001753+00000+0001T   00002192+0008191736          1400 AG5300               3AZ
242548000242548               242548               170213FE     1400+00000+FE0000003191+0000003191+000000000+000000447+0000003630+0000000008+I20000000000+0000003630+Z
242548001242548077-000303     242548006001023593757GIFT-BAG PAPER MED     0000002000+00001578+00000+0001T   00001578+0000001737          1400 AG5112               3AZ
242548002242548112-116038     242548006009681820246TCS CARRIER BAG MIDI   0000001000+00000035+00000+0001T   00000035+0000001737          1400 AG5090               3AZ
242549000242549               242549               170213FE     1400+00000+FE0000001226+0000001226+000000000+000000172+0000001390+0000000008+I20000000000+0000001390+Z
242549001242549304-001011     242549006001023806727FLWR ROSE RED W/BEAR   0000002000+00000613+00000+0001T   00000788+0006471738          1400 AG5510               3AZ
242550000242550               242550               170213FE     1400+00000+FE0000000437+0000000437+000000000+000000062+0000000490+0000000009+I20000000000+0000000490+Z
242550001242550083-000049     242550004891035200024CIG-LIGHTER DISPOSABLE 0000001000+00000437+00000+0001T   00000437+0000001739          1400 AG5315               3AZ
242551000242551               242551               170213FE     1400+00000+FE0000005958+0000005958+000000000+000000836+0000006794+0000000000+I40000006794+0000000000+Z
242551001242551077-000151     242551006008766114676GIFT-WRAP C/PHANE ASSTD0000002000+00000876+00000+0001T   00000876+0000001741          1400 AG5112               3AZ
242551002242551903-000221     242551006001704007382SWT EENY-MEENY-MOS 60G 0000001000+00000876+00000+0001T   00000876+0000001741          1400 AG5150               3AZ
242551003242551077-000322     242551006001023677532GIFT-BAG 18X23CM E/D FL0000001000+00001227+00000+0001T   00001227+0000001741          1400 AG5112               3AZ
242551004242551077-000011-D   242551006001023808554TISSUE-WRAP WHITE 10PCE0000001000+00000876+00000+0001T   00000876+0000001741          1400 AG5112               3AZ
242551005242551077-000322     242551006001023677532GIFT-BAG 18X23CM E/D FL0000001000+00001227+00000+0001T   00001227+0000001741          1400 AG5112               3AZ
242552000242552               242552               170213FE     1400+00000+FE0000009645+0000009645+000000000+000001352+0000010997+0000000000+I40000010997+0000000000+Z
242552001242552368-000156     242552006003000167241PLUSH BUG 20cm ASST-COL0000001000+00007016+00000+0001T   00007016+0000001742          1400 AG5745               3AZ
242552002242552077-000011-L   242552006001023808585P/TISSUE BRIGHT 10SHEET0000001000+00000876+00000+0001T   00000876+0000001742          1400 AG5112               3AZ
242552003242552077-000328     242552006003000668939GIFT-BAG PAPER JMB     0000001000+00001753+00000+0001T   00001753+0000001742          1400 AG5112               3AZ
242553000242553               242553               170213FE     1400+00000+FE0000003507+0000003507+000000000+000000491+0000003990+0000000008+I20000000000+0000003990+Z
242553001242553203-007000     242553006001023886040SHOT-GLASS DISPOSABLE  0000001000+00003507+00000+0001T   00003507+0000001742          1400 AG5300               3AZ
242554000242554               242554               170213FE     1400+00000+FE0000001051+0000001051+000000000+000000148+0000001190+0000000009+I20000000000+0000001190+Z
242554001242554079-009702-D   242554008427973059354PAPER SIRIO A2 RED COL 0000001000+00001051+00000+0001T   00001051+0000001743          1400 AG5130               3AZ
242555000242555               242555               170213FE     1400+00000+FE0000001578+0000001578+000000000+000000221+0000001790+0000000009+I20000000000+0000001790+Z
242555001242555077-000303     242555006001023593757GIFT-BAG PAPER MED     0000001000+00001578+00000+0001T   00001578+0000001744          1400 AG5112               3AZ
242556000242556               242556               170213FE     1400+00000+FE0000014032+0000014032+000000000+000001966+0000015998+0000000000+I40000015998+0000000000+Z
242556001242556089-000027     242556006003000254071KEY CHAIN MOM/DAD ASSTD0000001000+00001753+00000+0001T   00001753+0000001745          1400 AG5205               3AZ
242556002242556368-000111     242556006001023780812PLUSH BEAR/DOG 29CM    0000001000+00012279+00000+0001T   00012279+0000001745          1400 AG5745               3AZ
242557000242557               242557               170213FE     1400+00000+FE0000001578+0000001578+000000000+000000221+0000001790+0000000009+I20000000000+0000001790+Z
242557001242557077-000303     242557006001023593757GIFT-BAG PAPER MED     0000001000+00001578+00000+0001T   00001578+0000001747          1400 AG5112               3AZ
242558000242558               242558               170213FE     1400+00000+FE0000007035+0000007035+000000000+000000985+0000008020+0000000000+I40000008020+0000000000+Z
242558001242558903-000070     242558006001704001106SWT TOFFEE CREAMY 35g  0000010000+00000700+00000+0001T   00000700+0000001749          1400 AG5150               3AZ
242558002242558112-116038     242558006009681820246TCS CARRIER BAG MIDI   0000001000+00000035+00000+0001T   00000035+0000001749          1400 AG5090               3AZ
242559000242559               242559               170213FE     1400+00000+FE0000004556+0000004556+000000000+000000638+0000005194+0000000000+I40000005194+0000000000+Z
242559001242559077-000303     242559006001023593757GIFT-BAG PAPER MED     0000002000+00001578+00000+0001T   00001578+0000001750          1400 AG5112               3AZ
242559002242559018-000177     242559006001023797513MUG MINI LOVE ASSTD    0000002000+00000700+00000+0001T   00000700+0000001750          1400 AG5515               3AZ
242560000242560               242560               170213FE     1400+00000+FE0000004823+0000004823+000000000+000000676+0000005490+0000000009+I20000000000+0000005490+Z
242560001242560301-085001     242560006003000297610ORN WATERBALL LOVE ASST0000001000+00004823+00000+0001T   00004823+0000001751          1400 AG5505               3AZ
242561000242561               242561               170213FE     1400+00000+FE0000001314+0000001314+000000000+000000184+0000001490+0000000008+I20000000000+0000001490+Z
242561001242561362-000307     242561006003000519750HAIR HEADBAND PRINTED  0000001000+00001314+00000+0001T   00001314+0000001753          1400 AG5160               3AZ
242562000242562               242562               170213FE     1400+00000+FE0000007892+0000007892+000000000+000001106+0000008990+0000000008+I20000000000+0000008990+Z
242562001242562024-091103-A   242562006003000419876B/CUP PAPER SET 48PC   0000001000+00001753+00000+0001T   00001753+0000001753          1400 AG5300               3AZ
242562002242562368-000175     242562006003000270316PLUSH BEAR 4 ASSTD 18CM0000001000+00006139+00000+0001T   00006139+0000001753          1400 AG5745               3AZ
242563000242563               242563               170213FE     1400+00000+FE0000036440+0000036440+000000000+000005102+0000041540+0000000002+I20000000000+0000041540+Z
242563001242563072-020247     242563006001246272705PET BED PL MEDIUM      0000001000+00015350+00000+0001T   00015350+0000001755          1400 AG5870               3AZ
242563002242563112-116069     242563006009681820277TCS CARRIER BAG JUMBO  0000001000+00000048+00000+0001T   00000048+0000001755          1400 AG5090               3AZ
242563003242563031-005923     242563006003000040322P/FRAME CERT PL 21x29.70000006000+00003507+00000+0001T   00003507+0000001755          1400 AG5510               3AZ
242564000242564               242564               170213FE     1400+00000+FE0000004997+0000004997+000000000+000000700+0000005690+0000000007+I20000000000+0000005690+Z
242564001242564077-000299     242564006003000395576G/BAG 32x25cm LRG LOVE 0000001000+00001490+00000+0001T   00001490+0000001758          1400 AG5112               3AZ
242564002242564018-000136     242564006001023659026MUG OCC LOVE W/PLUSH   0000001000+00003507+00000+0001T   00003507+0000001758          1400 AG5515               3AZ
242565000242565               242565               170213FE     1400+00000+FE0000002190+0000002190+000000000+000000308+0000002498+0000000000+I40000002498+0000000000+Z
242565001242565080-000133-A   242565006003000647019MINI VALENTINES CARD   0000001000+00000437+00000+0001T   00000437+0000001800          1400 AG5112               3AZ
242565002242565077-000382     242565006003000247820GIFT-BAG MED 18X23CM   0000001000+00001753+00000+0001T   00001753+0000001800          1400 AG5112               3AZ
242566000242566               242566               170213FE     1400+00000+FE0000005381+0000005381+000000000+000000755+0000006136+0000000000+I40000006136+0000000000+Z
242566001242566077-000303     242566006001023593757GIFT-BAG PAPER MED     0000001000+00001578+00000+0001T   00001578+0000001803          1400 AG5112               3AZ
242566002242566903-000521     242566006001704009652SWT GUMMY SOFT GUMS    0000001000+00000876+00000+0001T   00000876+0000001803          1400 AG5150               3AZ
242566003242566903-000216     242566006925925900966SWT MALLOW TWIST ERKO  0000001000+00000262+00000+0001T   00000262+0000001803          1400 AG5150               3AZ
242566004242566018-000129     242566006001023403353MUG OCC. LOVE V-SHAPE  0000001000+00002630+00000+0001T   00002630+0000001803          1400 AG5515               3AZ
242566005242566112-116038     242566006009681820246TCS CARRIER BAG MIDI   0000001000+00000035+00000+0001T   00000035+0000001803          1400 AG5090               3AZ
242567000242567               242567               170213FE     1400+00000+FE0000007451+0000007451+000000000+000001045+0000008490+0000000006+I20000000000+0000008490+Z
242567001242567903-000221     242567006001704007382SWT EENY-MEENY-MOS 60G 0000001000+00000876+00000+0001T   00000876+0000001806          1400 AG5150               3AZ
242567002242567903-000220     242567006001704007368SWT JELLY BEANS 60G    0000001000+00000876+00000+0001T   00000876+0000001806          1400 AG5150               3AZ
242567003242567903-000012     242567006002099007308SWT MALLOW S/BERRY     0000001000+00000437+00000+0001T   00000437+0000001806          1400 AG5150               3AZ
242567004242567103-000474     242567006003000630363BAMBOO FLOWER BASKET   0000001000+00005262+00000+0001T   00005262+0000001806          1400 AG5300               3AZ
242568000242568               242568               170213FE     1400+00000+FE0000018799+0000018799+000000000+000002637+0000021436+0000000000+I40000021436+0000000000+Z
242568001242568018-000177     242568006001023797513MUG MINI LOVE ASSTD    0000001000+00000700+00000+0001T   00000700+0000001810          1400 AG5515               3AZ
242568002242568368-000001     242568006003000097982Plush Bear 25cm        0000001000+00004385+00000+0001T   00004385+0000001810          1400 AG5745               3AZ
242568003242568018-000177     242568006001023797513MUG MINI LOVE ASSTD    0000004000+00000700+00000+0001T   00000700+0000001810          1400 AG5515               3AZ
242568004242568903-000151     242568006009803374411SWT SML RND R/BOW LOLLY0000004000+00000525+00000+0001T   00000525+0000001810          1400 AG5150               3AZ
242568005242568077-000456     242568006003000285549G/BAG METALLIC JMB EMB 0000002000+00002630+00000+0001T   00002630+0000001810          1400 AG5112               3AZ
242568006242568903-000619     242568006003000672455SWT LOLLY STR/BRRY 140G0000002000+00001753+00000+0001T   00001753+0000001810          1400 AG5150               3AZ
242568007242568112-116069     242568006009681820277TCS CARRIER BAG JUMBO  0000001000+00000048+00000+0001T   00000048+0000001810          1400 AG5090               3AZ
242569000242569               242569               170213FE     1400+00000+FE0000002364+0000002364+000000000+000000333+0000002690+0000000007+I20000000000+0000002690+Z
242569001242569903-000200     242569006009826020234SWT CHOC RP CHOCO 23G  0000003000+00000788+00000+0001T   00000788+0000001811          1400 AG5150               3AZ
A17021300                                          08152005FESLAVE 3                       2IC2IC
A17021301                                          14425901FESLAVE 3                       AG51IC
M17021301                              IT DEPT     FEFROM FICHARDT FE                                                                                LAST TRANSACTION SLAVE 3 - 242569                                                                                                               THANX
M17021391                              CASH        FESLAVE 3                       Z-REPORT No.   549TOTAL (Sales - Refunds)           9863.21       CASH TO BE BANKED                 3796.00       DEBIT CARDS                          0.00       CREDIT CARDS                      6067.21       Z-READING                         9863.21       AIRTIME DEBIT CARD SALES             0.00       AIRTIME CARD SALES                   0.00       OVERS/UNDERS                         0.00       AIRTIME CASH SALES                   0.00       GIFT CARDS                           0.00       GIFT CARD CASH SALES                 0.00       T O T A L  CASH PAYOUTS              0.00                                                                                                                                                                                                                                                                                                                                                      Z
M17021392                              CASH        FEABSENT                                                                                                                                                                                          ANNUAL LEAVE                                                                                                                                                                                    DAY OFF                                                                                                                                                                                         COMMENTS                                                                                                                                                                                                                                                                                                                                                                                       Z
Y17021300                                          FE00000000865595+000128
ZFE17021319373 SLAVE 3      SALES DATA                     NEXT INVOICE NO.  242570 0549
X FE Slave 3 First invoice 242442 170213 Last invoice 242569 170213 Next invoice 242570 Total number of records 000000423 clbackup completed 19:37:34
