216960000216960               216960               170213FH     1400+00000+FH0000001190-0000000000+000000000+000000000+0000001190-0000000000+I20000000000+0000001190-Z
216960001216960001-999909     216960000000000999909STAFF-REFRESHMENTS     0000001000-00001190+00000+0001X   00000000+0000000830          0000 AA79092IC            1 Z
216961000216961               216961               170213FH     1400+00000+FH0000006137+0000006137+000000000+000000860+0000006997+0000000000+I40000006997+0000000000+Z
216961001216961046-000011-A   216961006003000438891BATTERIES SIZE:AA  4PCE0000001000+00002630+00000+0001T   00002630+0000000837          1400 AA7312               1AZ
216961002216961048-000751     216961006001023849779CAMPING-LANTERN B/O    0000001000+00003507+00000+0001T   00003507+0000000837          1400 AA7305               1AZ
216962000216962               216962               170213FH     1400+00000+FH0000046517+0000046517+000000000+000006518+0000053030+0000000005+I20000000000+0000053030+Z
216962001216962112-116069     216962006009681820277TCS CARRIER BAG JUMBO  0000001000+00000048+00000+0001T   00000048+0000000850          1400 AA7090               1AZ
216962002216962563-000317-B   216962006001023776174SERVIETTES PLN WHT PK400000001000+00001314+00000+0001T   00001314+0000000850          1400 AA7214               1AZ
216962003216962006-000190     216962006003000685530BALLOONS LOVE 81x91cm  0000001000+00004385+00000+0001T   00004385+0000000850          1400 AA7131               1AZ
216962004216962368-000049     216962006003000536955PLUSH BEAR 15cm LOVE   0000001000+00004385+00000+0001T   00004385+0000000850          1400 AA7745               1AZ
216962005216962080-000124     216962006003000297733CARD & ENV VALENTINES  0000001000+00001578+00000+0001T   00001578+0000000850          1400 AA7112               1AZ
216962006216962563-000318-L   216962006003000407088SERVIETTES 33cm RED    0000002000+00002192+00000+0001T   00002192+0000000850          1400 AA7214               1AZ
216962007216962077-000303     216962006001023593757GIFT-BAG PAPER MED     0000001000+00001578+00000+0001T   00001578+0000000850          1400 AA7112               1AZ
216962008216962301-085000     216962006003000674299 ORN OCC. LOVE HEARTS  0000002000+00002192+00000+0001T   00002192+0000000850          1400 AA7505               1AZ
216962009216962301-085008     216962006003000673933ORN OCC.LOVE TINSEL HRT0000002000+00003069+00000+0001T   00003069+0000000850          1400 AA7505               1AZ
216962010216962077-000115-B   216962006003000181025GIFT-WRAP PPR 700MMX2M 0000002000+00002630+00000+0001T   00002630+0000000850          1400 AA7112               1AZ
216962011216962566-000359     216962006003000582709STICKER BOOK LOVE SPARK0000001000+00002192+00000+0001T   00002192+0000000850          1400 AA7130               1AZ
216962012216962006-000190     216962006003000685530BALLOONS LOVE 81x91cm  0000001000+00004385+00000+0001T   00004385+0000000850          1400 AA7131               1AZ
216962013216962002-086259     216962006001023722201TOOTHPICK-HOLDER 2-ASST0000002000+00001753+00000+0001T   00001753+0000000850          1400 AA7300               1AZ
216962014216962002-021064     216962006001023822246TOOTHPICKS IN-HOLDER   0000002000+00001490+00000+0001T   00001490+0000000850          1400 AA7300               1AZ
216963000216963               216963               170213FH     1400+00000+FH0000007277+0000007277+000000000+000001019+0000008296+0000000000+I40000008296+0000000000+Z
216963001216963018-000170     216963006001023775528MUG OCC. LOVE 2PC MINI 0000001000+00002192+00000+0001T   00002192+0000000900          1400 AA7515               1AZ
216963002216963301-085004     216963006003000420469ORN LOVE PLAQUE 21X10CM0000001000+00003507+00000+0001T   00003946+0006470900          1400 AA7505               1AZ
216963003216963077-000303     216963006001023593757GIFT-BAG PAPER MED     0000001000+00001578+00000+0001T   00001578+0000000900          1400 AA7112               1AZ
216964000216964               216964               170213FH     1400+00000+FH0000000069+0000000069+000000000+000000010+0000000070+0000000009+I20000000000+0000000070+Z
216964001216964112-116053     216964006006438002399TCS CARRIER BAG 38L    0000001000+00000069+00000+0001T   00000069+0000000906          1400 AA7090               1AZ
216965000216965               216965               170213FH     1400+00000+FH0000009679+0000009679+000000000+000001357+0000011036+0000000000+I40000011036+0000000000+Z
216965001216965466-000109     216965006003000612345BALL RAINBOW DESIGN    0000001000+00001753+00000+0001T   00001753+0000000913          1400 AA7785               1AZ
216965002216965039-082103     216965006001023845788CANDLE FLOATING 6PC    0000001000+00004385+00000+0001T   00004385+0000000913          1400 AA7510               1AZ
216965003216965159-062909     216965006001023716200HOOK-HANGER ASSTD      0000002000+00001753+00000+0001T   00001753+0000000913          1400 AA7200               1AZ
216965004216965112-116038     216965006009681820246TCS CARRIER BAG MIDI   0000001000+00000035+00000+0001T   00000035+0000000913          1400 AA7090               1AZ
216966000216966               216966               170213FH     1400+00000+FH0000002192+0000002192+000000000+000000307+0000002490+0000000009+I20000000000+0000002490+Z
216966001216966200-000200     216966006008766091144BAKING ALUM FOIL 2PCE  0000001000+00002192+00000+0001T   00002192+0000000920          1400 AA7214               1AZ
216967000216967               216967               170213FH     1400+00000+FH0000004385+0000004385+000000000+000000614+0000004990+0000000009+I20000000000+0000004990+Z
216967001216967107-003102     216967006002580007657BASIN  34X48X16cm OVAL 0000001000+00004385+00000+0001T   00004385+0000000928          1400 AA7210               1AZ
216968000216968               216968               170213FH     1400+00000+FH0000005082+0000005082+000000000+000000714+0000005790+0000000006+I20000000000+0000005790+Z
216968001216968903-000911     216968006009802868454SWT ST GUM TAPE BARBIE 0000001000+00001753+00000+0001T   00001753+0000000946          1400 AA7150               1AZ
216968002216968903-000912     216968006009802868461SWT GUM TAPE HOT WHEELS0000001000+00001753+00000+0001T   00001753+0000000946          1400 AA7150               1AZ
216968003216968903-000892     216968008693029700420SWT NOVELTY CHOCO CREAM0000002000+00000788+00000+0001T   00000788+0000000946          1400 AA7150               1AZ
216969000216969               216969               170213FH     1400+00000+FH0000004031+0000004031+000000000+000000566+0000004590+0000000007+I20000000000+0000004590+Z
216969001216969903-000087     216969006001704000161SWT SPECKLED-EGGS 50G  0000002000+00001139+00000+0001T   00001139+0000000947          1400 AA7150               1AZ
216969002216969264-000921     216969000090159150442MAISTO CAR 3" FRESH    0000001000+00001753+00000+0001T   00001753+0000000947          1400 AA7710               1AZ
216970000216970               216970               170213FH     1400+00000+FH0000002628+0000002628+000000000+000000369+0000002997+0000000000+I40000002997+0000000000+Z
216970001216970071-001012     216970006001023474445MARKERS BLACK ROUND    0000003000+00000876+00000+0001T   00000876+0000001002          1400 AA7130               1AZ
216971000216971               216971               170213FH     1400+00000+FH0000005688+0000005688+000000000+000000798+0000006480+0000000006+I20000000000+0000006480+Z
216971001216971018-000136     216971006001023659026MUG OCC LOVE W/PLUSH   0000001000+00003507+00000+0001T   00003507+0000001006          1400 AA7515               1AZ
216971002216971108-005005     216971006003000667451TRAY PL 29x21cm RECT   0000001000+00001753+00000+0001T   00001753+0000001006          1400 AA7210               1AZ
216971003216971903-000183     216971006003000451043SWT LB HEART LOLLY     0000001000+00000393+00000+0001T   00000393+0000001006          1400 AA7150               1AZ
216971004216971112-116038     216971006009681820246TCS CARRIER BAG MIDI   0000001000+00000035+00000+0001T   00000035+0000001006          1400 AA7090               1AZ
216972000216972               216972               170213FH     1400+00000+FH0000017131+0000017131+000000000+000002399+0000019530+0000000000+I20000000000+0000019530+Z
216972001216972567-013439     216972009781775785767EK KAN LEES ASSTD      0000001000+00003507+00000+0001T   00003507+0000001008          1400 AA7757               1AZ
216972002216972567-013439     216972009781775785781EK KAN LEES ASSTD      0000001000+00003507+00000+0001T   00003507+0000001008          1400 AA7757               1AZ
216972003216972567-013439     216972009781775785590EK KAN LEES ASSTD      0000001000+00003507+00000+0001T   00003507+0000001008          1400 AA7757               1AZ
216972004216972567-013439     216972009781775785798EK KAN LEES ASSTD      0000001000+00003507+00000+0001T   00003507+0000001008          1400 AA7757               1AZ
216972005216972007-000127     216972006009685853431BOOK H/COVER MEMO 144PG0000001000+00000876+00000+0001T   00000876+0000001008          1400 AA7130               1AZ
216972006216972369-001010     216972006001023864222BATH VINYL DUCK 4PC    0000001000+00002192+00000+0001T   00002192+0000001008          1400 AA7745               1AZ
216972007216972112-116038     216972006009681820246TCS CARRIER BAG MIDI   0000001000+00000035+00000+0001T   00000035+0000001008          1400 AA7090               1AZ
216973000216973               216973               170213FH     1400+00000+FH0000010384+0000010384+000000000+000001454+0000011838+0000000000+I40000011838+0000000000+Z
216973001216973001-091415     216973006003000329113W/GLS OCC. LOVE 2PC 2800000001000+00008771+00000+0001T   00009648+0006471020          1400 AA7515               1AZ
216973002216973077-000303     216973006001023593757GIFT-BAG PAPER MED     0000001000+00001578+00000+0001T   00001578+0000001020          1400 AA7112               1AZ
216973003216973112-116038     216973006009681820246TCS CARRIER BAG MIDI   0000001000+00000035+00000+0001T   00000035+0000001020          1400 AA7090               1AZ
216974000216974               216974               170213FH     1400+00000+FH0000001227+0000001227+000000000+000000172+0000001390+0000000009+I20000000000+0000001390+Z
216974001216974251-000040     216974006001023515865SEALTAPE CLEAR 48mmx50m0000001000+00001227+00000+0001T   00001227+0000001022          1400 AA7810               1AZ
216975000216975               216975               170213FH     1400+00000+FH0000005259+0000005259+000000000+000000738+0000005990+0000000007+I20000000000+0000005990+Z
216975001216975031-006534     216975006001023995896P/FRAME AUTO 10x15cm   0000003000+00001753+00000+0001T   00001753+0000001024          1400 AA7510               1AZ
216976000216976               216976               170213FH     1400+00000+FH0000006139+0000006139+000000000+000000860+0000006999+0000000000+I40000006999+0000000000+Z
216976001216976124-001300     216976006003000486861STORAGE TIN WASHING    0000001000+00006139+00000+0001T   00006139+0000001030          1400 AA7300               1AZ
216977000216977               216977               170213FH     1400+00000+FH0000028032+0000028032+000000000+000003936+0000031960+0000000008+I20000000000+0000031960+Z
216977001216977077-000151     216977006008766114676GIFT-WRAP C/PHANE ASSTD0000032000+00000876+00000+0001T   00000876+0000001034          1400 AA7112               1AZ
216978000216978               216978               170213FH     1400+00000+FH0000002102+0000002102+000000000+000000296+0000002390+0000000008+I20000000000+0000002390+Z
216978001216978079-009702-E   216978008427973059439PAPER SIRIO A2 BLUE    0000002000+00001051+00000+0001T   00001051+0000001038          1400 AA7130               1AZ
216979000216979               216979               170213FH     1400+00000+FH0000008800+0000008800+000000000+000001235+0000010035+0000000000+I40000010035+0000000000+Z
216979001216979903-000211     216979006002099001238SWT GS MALLOW ICE CREAM0000001000+00001753+00000+0001T   00001753+0000001108          1400 AA7150               1AZ
216979002216979037-000004     216979006001023763679ASHTRAY PL TUB 8X11CM  0000004000+00001753+00000+0001T   00002192+0008191108          1400 AA7515               1AZ
216979003216979112-116038     216979006009681820246TCS CARRIER BAG MIDI   0000001000+00000035+00000+0001T   00000035+0000001108          1400 AA7090               1AZ
216980000216980               216980               170213FH     1400+00000+FH0000005610+0000005610+000000000+000000787+0000006390+0000000007+I20000000000+0000006390+Z
216980001216980079-013032-D   216980006003000389643RIBBONS                0000001000+00002630+00000+0001T   00002630+0000001113          1400 AA7130               1AZ
216980002216980077-000245     216980006001023759214GIFT-RIBBON METALLICx2 0000001000+00001227+00000+0001T   00001227+0000001113          1400 AA7112               1AZ
216980003216980077-000240     216980006003000326259G/RIBBON 4PC PEARLIZED 0000001000+00001753+00000+0001T   00001753+0000001113          1400 AA7112               1AZ
216981000216981               216981               170213FH     1400+00000+FH0000010520+0000010520+000000000+000001474+0000011990+0000000004+I20000000000+0000011990+Z
216981001216981104-000020     216981006916920023026BASKET 25x14x10cm      0000002000+00001753+00000+0001T   00001753+0000001119          1400 AA7210               1AZ
216981002216981105-001246     216981006003000621194CONTAINER RECTANGULAR  0000001000+00003507+00000+0001T   00003507+0000001119          1400 AA7210               1AZ
216981003216981104-000055     216981006001023889416BASKET PL 32x22x8cm    0000001000+00003507+00000+0001T   00003507+0000001119          1400 AA7210               1AZ
216982000216982               216982               170213FH     1400+00000+FH0000003979+0000003979+000000000+000000558+0000004537+0000000000+I40000004537+0000000000+Z
216982001216982080-000124     216982006003000297733CARD & ENV VALENTINES  0000002000+00001578+00000+0001T   00001578+0000001129          1400 AA7112               1AZ
216982002216982077-000010-C   216982006001023123879CREPE-PAPER RED        0000001000+00000788+00000+0001T   00000788+0000001129          1400 AA7112               1AZ
216982003216982112-116038     216982006009681820246TCS CARRIER BAG MIDI   0000001000+00000035+00000+0001T   00000035+0000001129          1400 AA7090               1AZ
216983000216983               216983               170213FH     1400+00000+FH0000005297+0000005297+000000000+000000742+0000006030+0000000009+I20000000000+0000006030+Z
216983001216983159-003625     216983006001023902061TOILET-BRUSH W/STD 40cm0000001000+00005262+00000+0001T   00005262+0000001130          1400 AA7200               1AZ
216983002216983112-116038     216983006009681820246TCS CARRIER BAG MIDI   0000001000+00000035+00000+0001T   00000035+0000001130          1400 AA7090               1AZ
216984000216984               216984               170213FH     1400+00000+FH0000007890+0000007890+000000000+000001106+0000008990+0000000006+I20000000000+0000008990+Z
216984001216984079-000286     216984006001023797032FINGER-PAINT 4PCE      0000001000+00003507+00000+0001T   00003507+0000001131          1400 AA7130               1AZ
216984002216984466-000515     216984006001023477408BALLS TENNIS BAG-OF-3  0000001000+00002630+00000+0001T   00002630+0000001131          1400 AA7785               1AZ
216984003216984079-006500     216984006001023557186GLUE GLITTER 6/10 PCE  0000001000+00001753+00000+0001T   00001753+0000001131          1400 AA7130               1AZ
216985000216985               216985               170213FH     1400+00000+FH0000012274+0000012274+000000000+000001721+0000013990+0000000005+I20000000000+0000013990+Z
216985001216985082-000340     216985006003000649037LENS CLOTH MOIST 30PC  0000001000+00002630+00000+0001T   00002630+0000001135          1400 AA7160               1AZ
216985002216985108-000500     216985006003000667161TUMBLER DOUBLE WALL    0000001000+00004385+00000+0001T   00004385+0000001135          1400 AA7210               1AZ
216985003216985082-000384     216985006003000329854SPECTACLE CASE W/HNDLES0000003000+00001753+00000+0001T   00002192+0008121135          1400 AA7160               1AZ
216986000216986               216986               170213FH     1400+00000+FH0000017103+0000017103+000000000+000002395+0000019490+0000000008+I20000000000+0000019490+Z
216986001216986105-009017     216986006003000582273STORAGE BOX FROSTED 55L0000001000+00014034+00000+0001T   00014034+0000001140          1400 AA7210               1AZ
216986002216986038-092233     216986006003000328925TABLE-MAT N/SLIP ASST  0000001000+00003069+00000+0001T   00003507+0008191140          1400 AA7300               1AZ
216987000216987               216987               170213FH     1400+00000+FH0000002454+0000002454+000000000+000000344+0000002790+0000000008+I20000000000+0000002790+Z
216987001216987079-001006     216987006003000677979ART+CRAFT STENCIL      0000002000+00001227+00000+0001T   00001227+0000001141          1400 AA7130               1AZ
216988000216988               216988               170213FH     1400+00000+FH0000016398+0000016398+000000000+000002298+0000018690+0000000006+I20000000000+0000018690+Z
216988001216988046-000010-A   216988006003000438778BATTERIES SIZE:AAA 4PCE0000001000+00002367+00000+0001T   00002367+0000001149          1400 AA7312               1AZ
216988002216988048-000859     216988006003000423422TORCH 9 LED PL 3XAAA   0000001000+00001753+00000+0001T   00001753+0000001149          1400 AA7305               1AZ
216988003216988082-000120-A   216988006001023755834R/GLASS  FRAME W/CASE  0000002000+00006139+00000+0001T   00006139+0000001149          1400 AA7160               1AZ
216989000216989               216989               170213FH     1400+00000+FH0000003331+0000003331+000000000+000000467+0000003790+0000000008+I20000000000+0000003790+Z
216989001216989080-000124     216989006003000297733CARD & ENV VALENTINES  0000001000+00001578+00000+0001T   00001578+0000001156          1400 AA7112               1AZ
216989002216989077-000299-A   216989006003000670888GIFT-BAG PAPER JMB LOVE0000001000+00001753+00000+0001T   00001753+0000001156          1400 AA7112               1AZ
216990000216990               216990               170213FH     1400+00000+FH0000002628+0000002628+000000000+000000368+0000002990+0000000006+I20000000000+0000002990+Z
216990001216990077-000312     216990006001023608697GIFT-BAG 10X35CM GLOSS 0000001000+00001314+00000+0001T   00001314+0000001157          1400 AA7112               1AZ
216990002216990077-000407     216990006003000145096G/BAG PP 19X26X8CM     0000001000+00001314+00000+0001T   00001314+0000001157          1400 AA7112               1AZ
216991000216991               216991               170213FH     1400+00000+FH0000007925+0000007925+000000000+000001111+0000009030+0000000006+I20000000000+0000009030+Z
216991001216991567-075490     216991009780799376456BK NOVEL ROMANCE AFR   0000001000+00003507+00000+0001T   00003507+0000001158          1400 AA7757               1AZ
216991002216991077-000235     216991006003000160211GIFT-RIBBON ROLL METALC0000001000+00002630+00000+0001T   00002630+0000001158          1400 AA7112               1AZ
216991003216991079-006496     216991006003000160105GLITTER SHAKERS        0000001000+00001753+00000+0001T   00001753+0000001158          1400 AA7130               1AZ
216991004216991112-116038     216991006009681820246TCS CARRIER BAG MIDI   0000001000+00000035+00000+0001T   00000035+0000001158          1400 AA7090               1AZ
216992000216992               216992               170213FH     1400+00000+FH0000001314+0000001314+000000000+000000184+0000001490+0000000008+I20000000000+0000001490+Z
216992001216992077-000407     216992006003000145096G/BAG PP 19X26X8CM     0000001000+00001314+00000+0001T   00001314+0000001208          1400 AA7112               1AZ
216993000216993               216993               170213FH     1400+00000+FH0000004385+0000004385+000000000+000000614+0000004990+0000000009+I20000000000+0000004990+Z
216993001216993082-000115     216993006003000360604READING GLS STRNGHT:2.50000001000+00004385+00000+0001T   00004385+0000001217          1400 AA7160               1AZ
216994000216994               216994               170213FH     1400+00000+FH0000026357+0000026357+000000000+000003693+0000030050+0000000000+I40000030050+0000000000+Z
216994001216994080-000115     216994006003000237333CARD&ENVELOPE - BLANKS 0000001000+00001753+00000+0001T   00001753+0000001225          1400 AA7112               1AZ
216994002216994080-000122     216994006003000237678CARD & ENVLPE -GET WELL0000001000+00001753+00000+0001T   00001753+0000001225          1400 AA7112               1AZ
216994003216994039-809558     216994006003000344376CANDLE PILLAR 12CM 4AST0000001000+00006139+00000+0001T   00006139+0000001225          1400 AA7510               1AZ
216994004216994049-004579     216994006002868010027DOORMAT COIR  40X60cm  0000001000+00012279+00000+0001T   00012279+0000001225          1400 AA7510               1AZ
216994005216994368-000049     216994006003000536955PLUSH BEAR 15cm LOVE   0000001000+00004385+00000+0001T   00004385+0000001225          1400 AA7745               1AZ
216994006216994112-116069     216994006009681820277TCS CARRIER BAG JUMBO  0000001000+00000048+00000+0001T   00000048+0000001225          1400 AA7090               1AZ
216995000216995               216995               170213FH     1400+00000+FH0000001400+0000001400+000000000+000000196+0000001590+0000000006+I20000000000+0000001590+Z
216995001216995018-000177     216995006001023797513MUG MINI LOVE ASSTD    0000002000+00000700+00000+0001T   00000700+0000001326          1400 AA7515               1AZ
216996000216996               216996               170213FH     1400+00000+FH0000000525+0000000525+000000000+000000074+0000000590+0000000009+I20000000000+0000000590+Z
216996001216996007-000402     216996006009635830864EXERCISE-BOOK A4 72PGE 0000001000+00000525+00000+0001T   00000525+0000001400          1400 AA7130               1AZ
216997000216997               216997               170213FH     1400+00000+FH0000001227+0000001227+000000000+000000172+0000001390+0000000009+I20000000000+0000001390+Z
216997001216997251-000041     216997006001023515889SEAL-TAPE BUFF 48mmx50m0000001000+00001227+00000+0001T   00001227+0000001405          1400 OF8810               1AZ
216998000216998               216998               170213FH     1400+00000+FH0000016079+0000016079+000000000+000002254+0000018333+0000000000+I40000018333+0000000000+Z
216998001216998112-116038     216998006009681820246TCS CARRIER BAG MIDI   0000001000+00000035+00000+0001T   00000035+0000001412          1400 OF8090               1AZ
216998002216998080-000127     216998006003000424351VALENTINES DAY 36x24CM 0000001000+00002192+00000+0001T   00002192+0000001412          1400 OF8112               1AZ
216998003216998031-000902-C   216998006001023726315P/FRAME WDN OAK 13X18CM0000001000+00005262+00000+0001T   00005262+0000001412          1400 OF8510               1AZ
216998004216998206-000620     216998006003000631797BACK SCRATCHER EXTEND  0000001000+00002630+00000+0001T   00002630+0000001412          1400 OF8321               1AZ
216998005216998019-071606     216998006003000678891PEBBLES 500G 3MM WHITE.0000004000+00001490+00000+0001T   00001490+0000001412          1400 OF8510               1AZ
216999000216999               216999               170213FH     1400+00000+FH0000005610+0000005610+000000000+000000787+0000006390+0000000007+I20000000000+0000006390+Z
216999001216999903-000211     216999006002099001238SWT GS MALLOW ICE CREAM0000001000+00001753+00000+0001T   00001753+0000001416          1400 OF8150               1AZ
216999002216999206-000630     216999006003000631919SPECTACLE CLEANING BRUS0000001000+00001227+00000+0001T   00001227+0000001416          1400 OF8321               1AZ
216999003216999206-000620     216999006003000631797BACK SCRATCHER EXTEND  0000001000+00002630+00000+0001T   00002630+0000001416          1400 OF8321               1AZ
217000000217000               217000               170213FH     1400+00000+FH0000007008+0000007008+000000000+000000986+0000007990+0000000004+I20000000000+0000007990+Z
217000001217000903-000015     217000006003000690947SWT MIKE N IKE B/BLAST 0000003000+00001051+00000+0001T   00001051+0000001422          1400 OF8150               1AZ
217000002217000903-000014     217000006003000691029SWT MIKE N IKE ORIG 23G0000002000+00001051+00000+0001T   00001051+0000001422          1400 OF81502IC            1AZ
217000003217000903-000211     217000006002099001238SWT GS MALLOW ICE CREAM0000001000+00001753+00000+0001T   00001753+0000001422          1400 OF8150               1AZ
217001000217001               217001               170213FH     1400+00000+FH0000002629+0000002629+000000000+000000369+0000002990+0000000008+I20000000000+0000002990+Z
217001001217001080-000124     217001006003000297733CARD & ENV VALENTINES  0000001000+00001578+00000+0001T   00001578+0000001426          1400 OF8112               1AZ
217001002217001903-000015     217001006003000690947SWT MIKE N IKE B/BLAST 0000001000+00001051+00000+0001T   00001051+0000001426          1400 OF8150               1AZ
217002000217002               217002               170213FH     1400+00000+FH0000006132+0000006132+000000000+000000861+0000006990+0000000003+I20000000000+0000006990+Z
217002001217002077-000151     217002006008766114676GIFT-WRAP C/PHANE ASSTD0000007000+00000876+00000+0001T   00000876+0000001439          1400 OF8112               1AZ
217003000217003               217003               170213FH     1400+00000+FH0000018942+0000018942+000000000+000002654+0000021590+0000000006+I20000000000+0000021590+Z
217003001217003080-000124     217003006003000297733CARD & ENV VALENTINES  0000001000+00001578+00000+0001T   00001578+0000001442          1400 OF8112               1AZ
217003002217003077-000303     217003006001023593757GIFT-BAG PAPER MED     0000001000+00001578+00000+0001T   00001578+0000001442          1400 OF8112               1AZ
217003003217003105-009010     217003006002923011518STORAGE BOX 16L GLIDER 0000001000+00007893+00000+0001T   00007893+0000001442          1400 OF8210               1AZ
217003004217003105-009010     217003006003000467167STORAGE BOX 16L GLIDER 0000001000+00007893+00000+0001T   00007893+0000001442          1400 OF8210               1AZ
217004000217004               217004               170213FH     1400+00000+FH0000003329+0000003329+000000000+000000467+0000003790+0000000006+I20000000000+0000003790+Z
217004001217004018-000215     217004006003000580217M/DAILY TULIP PORC LACE0000001000+00001753+00000+0001T   00001753+0000001443          1400 OF8515               1AZ
217004002217004903-000120     217004006002099001665SWEET GS ZILLIONS 50g  0000001000+00000700+00000+0001T   00000700+0000001443          1400 OF8150               1AZ
217004003217004077-000408     217004006003000145218G/BAG PP 15X21X7CM     0000001000+00000876+00000+0001T   00000876+0000001443          1400 OF8112               1AZ
217005000217005               217005               170213FH     1400+00000+FH0000003067+0000003067+000000000+000000430+0000003490+0000000007+I20000000000+0000003490+Z
217005001217005077-000407     217005006003000145096G/BAG PP 19X26X8CM     0000001000+00001314+00000+0001T   00001314+0000001445          1400 OF8112               1AZ
217005002217005018-000210     217005006003000580095MUG DAILY TEXTS 4-ASST 0000001000+00001753+00000+0001T   00001753+0000001445          1400 OF8515               1AZ
217006000217006               217006               170213FH     1400+00000+FH0000004294+0000004294+000000000+000000602+0000004896+0000000000+I40000004896+0000000000+Z
217006001217006018-000215     217006006003000580217M/DAILY TULIP PORC LACE0000001000+00001753+00000+0001T   00001753+0000001446          1400 OF8515               1AZ
217006002217006903-004951     217006006002580020328SWT MALLOW MINI M/SHAKE0000001000+00001227+00000+0001T   00001227+0000001446          1400 OF8150               1AZ
217006003217006077-000407     217006006003000145096G/BAG PP 19X26X8CM     0000001000+00001314+00000+0001T   00001314+0000001446          1400 OF8112               1AZ
217007000217007               217007               170213FH     1400+00000+FH0000000700+0000000700+000000000+000000098+0000000790+0000000008+I20000000000+0000000790+Z
217007001217007903-000120     217007006002099001665SWEET GS ZILLIONS 50g  0000001000+00000700+00000+0001T   00000700+0000001447          1400 OF8150               1AZ
217008000217008               217008               170213FH     1400+00000+FH0000002192+0000002192+000000000+000000307+0000002490+0000000009+I20000000000+0000002490+Z
217008001217008018-000170     217008006001023775528MUG OCC. LOVE 2PC MINI 0000001000+00002192+00000+0001T   00002192+0000001447          1400 OF8515               1AZ
217009000217009               217009               170213FH     1400+00000+FH0000000035+0000000035+000000000+000000005+0000000040+0000000000+I20000000000+0000000040+Z
217009001217009112-116038     217009006009681820246TCS CARRIER BAG MIDI   0000001000+00000035+00000+0001T   00000035+0000001448          1400 OF8090               1AZ
217010000217010               217010               170213FH     1400+00000+FH0000001532+0000001532+000000000+000000216+0000001740+0000000008+I20000000000+0000001740+Z
217010001217010565-000071     217010006003000643387NOVELTY WIND UP CHATTER0000001000+00001139+00000+0001T   00001139+0000001448          1400 OF8745               1AZ
217010002217010903-000183     217010006003000451043SWT LB HEART LOLLY     0000001000+00000393+00000+0001T   00000393+0000001448          1400 OF8150               1AZ
217011000217011               217011               170213FH     1400+00000+FH0000005120+0000005120+000000000+000000717+0000005830+0000000007+I20000000000+0000005830+Z
217011001217011018-005009     217011006001023725608MUG W/PLUSH-BEAR LOVE  0000001000+00003507+00000+0001T   00003507+0000001449          1400 OF8515               1AZ
217011002217011077-000303     217011006001023593757GIFT-BAG PAPER MED     0000001000+00001578+00000+0001T   00001578+0000001449          1400 OF8112               1AZ
217011003217011112-116038     217011006003000534906TCS CARRIER BAG MIDI   0000001000+00000035+00000+0001T   00000035+0000001449          1400 OF8090               1AZ
217012000217012               217012               170213FH     1400+00000+FH0000002630+0000002630+000000000+000000369+0000002999+0000000000+I40000002999+0000000000+Z
217012001217012077-000251     217012006003000639106GIFT-DECOR RIBBON      0000001000+00002630+00000+0001T   00002630+0000001452          1400 OF8112               1AZ
217013000217013               217013               170213FH     1400+00000+FH0000002979+0000002979+000000000+000000418+0000003390+0000000007+I20000000000+0000003390+Z
217013001217013033-008209     217013006001023678607MEASURING-TAPE 150cm   0000001000+00000613+00000+0001T   00000613+0000001452          1400 OF8200               1AZ
217013002217013306-001002     217013006003000560233PLASTER FABRIC 10PC    0000001000+00001490+00000+0001T   00001490+0000001452          1400 OF8200               1AZ
217013003217013903-000520     217013006001704009898SWT GUMMY MINI SOUR 60g0000001000+00000876+00000+0001T   00000876+0000001452          1400 OF8150               1AZ
217014000217014               217014               170213FH     1400+00000+FH0000000876+0000000876+000000000+000000123+0000000990+0000000009+I20000000000+0000000990+Z
217014001217014078-000025     217014008887013700064SUPERGLUE 3g 1PCE CARD 0000001000+00000876+00000+0001T   00000876+0000001453          1400 OF8810               1AZ
217015000217015               217015               170213FH     1400+00000+FH0000001179+0000001179+000000000+000000168+0000001340+0000000007+I20000000000+0000001340+Z
217015001217015903-000183     217015006003000451043SWT LB HEART LOLLY     0000003000+00000393+00000+0001T   00000393+0000001454          1400 OF8150               1AZ
217016000217016               217016               170213FH     1400+00000+FH0000001050+0000001050+000000000+000000148+0000001190+0000000008+I20000000000+0000001190+Z
217016001217016903-000155     217016006009803374435SWT LOLLY I LUV U HEART0000002000+00000525+00000+0001T   00000525+0000001455          1400 OF8150               1AZ
217017000217017               217017               170213FH     1400+00000+FH0000000393+0000000393+000000000+000000056+0000000440+0000000009+I20000000000+0000000440+Z
217017001217017903-000183     217017006003000451043SWT LB HEART LOLLY     0000001000+00000393+00000+0001T   00000393+0000001457          1400 OF8150               1AZ
217018000217018               217018               170213FH     1400+00000+FH0000022411+0000022411+000000000+000003140+0000025551+0000000000+I40000025551+0000000000+Z
217018001217018112-116069     217018006009681820277TCS CARRIER BAG JUMBO  0000001000+00000048+00000+0001T   00000048+0000001505          1400 OF8090               1AZ
217018002217018496-058446     217018000078257584468POOL 168x38cm CRSTL-BLU0000001000+00016665+00000+0001T   00016665+0000001505          1400 OF8787               1AZ
217018003217018006-000111     217018006003000519385BALLOONS LARGE 12PCE   0000001000+00002630+00000+0001T   00002630+0000001505          1400 OF8131               1AZ
217018004217018006-000090     217018006001023538505BANNER HAPPY-BIRTHDAY  0000001000+00002192+00000+0001T   00002192+0000001505          1400 OF8131               1AZ
217018005217018039-000319-3   217018006003000442621B/CANDLES LRG NUMBER-3 0000001000+00000876+00000+0001T   00000876+0000001505          1400 OF8510               1AZ
217019000217019               217019               170213FH     1400+00000+FH0000007015+0000007015+000000000+000000983+0000007998+0000000000+I40000007998+0000000000+Z
217019001217019206-000320     217019006003000632909BOTTLE STOPPER+MARKERS 0000001000+00005262+00000+0001T   00005262+0000001506          1400 OF8321               1AZ
217019002217019077-000381     217019006003000247707GIFT-BAG 25X32CM S/COL 0000001000+00001753+00000+0001T   00001753+0000001506          1400 OF8112               1AZ
217020000217020               217020               170213FH     1400+00000+FH0000002803+0000002803+000000000+000000394+0000003190+0000000007+I20000000000+0000003190+Z
217020001217020903-000155     217020006009803374435SWT LOLLY I LUV U HEART0000002000+00000525+00000+0001T   00000525+0000001516          1400 OF8150               1AZ
217020002217020903-000211     217020006002099001238SWT GS MALLOW ICE CREAM0000001000+00001753+00000+0001T   00001753+0000001516          1400 OF8150               1AZ
217021000217021               217021               170213FH     1400+00000+FH0000001753+0000001753+000000000+000000246+0000001990+0000000009+I20000000000+0000001990+Z
217021001217021007-000205     217021006002324000432FILE BINDER 2-RING A4  0000001000+00001753+00000+0001T   00001753+0000001517          1400 OF8130               1AZ
217022000217022               217022               170213FH     1400+00000+FH0000000306+0000000306+000000000+000000043+0000000340+0000000009+I20000000000+0000000340+Z
217022001217022079-009700-A   217022006003000547746PAPER SIRIO A4 BLACK   0000001000+00000306+00000+0001T   00000306+0000001518          1400 OF8130               1AZ
217023000217023               217023               170213FH     1400+00000+FH0000003944+0000003944+000000000+000000553+0000004490+0000000007+I20000000000+0000004490+Z
217023001217023018-000129     217023006001023403353MUG OCC. LOVE V-SHAPE  0000001000+00002630+00000+0001T   00002630+0000001519          1400 OF8515               1AZ
217023002217023146-000460     217023006003000528837SPRINKLER PYRAMID PL   0000001000+00001314+00000+0001T   00001314+0000001519          1400 OF8820               1AZ
217024000217024               217024               170213FH     1400+00000+FH0000002493+0000002493+000000000+000000351+0000002840+0000000004+I20000000000+0000002840+Z
217024001217024006-000170-L   217024006003000637614BALLOONS 1PC ROYAL BLUE0000003000+00000218+00000+0001T   00000218+0000001521          1400 OF8131               1AZ
217024002217024006-001000     217024006003000093779HELIUM BALLOON FILL    0000003000+00000613+00000+0001T   00000613+0000001521          1400 OF8131               1AZ
217025000217025               217025               170213FH     1400+00000+FH0000001613+0000001613+000000000+000000226+0000001830+0000000009+I20000000000+0000001830+Z
217025001217025018-000127     217025006001023380289MUG OCC STRAIGHT LOVE  0000001000+00001578+00000+0001T   00001753+0006471530          1400 OF8515               1AZ
217025002217025112-116038     217025006003000534906TCS CARRIER BAG MIDI   0000001000+00000035+00000+0001T   00000035+0000001530          1400 OF8090               1AZ
217026000217026               217026               170213FH     1400+00000+FH0000006139+0000006139+000000000+000000860+0000006990+0000000009+I20000000000+0000006990+Z
217026001217026031-000864-D   217026006003000674657P/FRAME WDN CERTIFICATE0000001000+00006139+00000+0001T   00006139+0000001531          1400 OF8510               1AZ
217027000217027               217027               170213FH     1400+00000+FH0000014329+0000014329+000000000+000002008+0000016330+0000000007+I20000000000+0000016330+Z
217027001217027077-000303     217027006001023593757GIFT-BAG PAPER MED     0000001000+00001578+00000+0001T   00001578+0000001534          1400 OF8112               1AZ
217027002217027301-085007     217027006003000673698ORN OCC. LOVE S/PLAQUE 0000001000+00007893+00000+0001T   00007893+0000001534          1400 OF8505               1AZ
217027003217027301-085001     217027006003000297610ORN WATERBALL LOVE ASST0000001000+00004823+00000+0001T   00004823+0000001534          1400 OF8505               1AZ
217027004217027112-116038     217027006009681820246TCS CARRIER BAG MIDI   0000001000+00000035+00000+0001T   00000035+0000001534          1400 OF8090               1AZ
217028000217028               217028               170213FH     1400+00000+FH0000006346+0000006346+000000000+000000891+0000007230+0000000007+I20000000000+0000007230+Z
217028001217028077-000235     217028006003000160211GIFT-RIBBON ROLL METALC0000001000+00002630+00000+0001T   00002630+0000001534          1400 OF8112               1AZ
217028002217028039-000024     217028006003000286300C/TAPERED 25CM M/WHITE 0000001000+00001051+00000+0001T   00001051+0000001534          1400 OF8510               1AZ
217028003217028107-003120     217028006003000676958BASIN W/HANDLES FLEXI  0000001000+00002630+00000+0001T   00002630+0000001534          1400 OF8210               1AZ
217028004217028112-116038     217028006009681820246TCS CARRIER BAG MIDI   0000001000+00000035+00000+0001T   00000035+0000001534          1400 OF8090               1AZ
217029000217029               217029               170213FH     1400+00000+FH0000001753+0000001753+000000000+000000246+0000001990+0000000009+I20000000000+0000001990+Z
217029001217029084-006995     217029006003000092802NAIL CLIPPER 8cm TOE   0000001000+00001753+00000+0001T   00001753+0000001536          1400 OF8200               1AZ
217030000217030               217030               170213FH     1400+00000+FH0000001578+0000001578+000000000+000000221+0000001790+0000000009+I20000000000+0000001790+Z
217030001217030018-000127     217030006001023380289MUG OCC STRAIGHT LOVE  0000001000+00001578+00000+0001T   00001753+0006471537          1400 OF8515               1AZ
217031000217031               217031               170213FH     1400+00000+FH0000005874+0000005874+000000000+000000824+0000006698+0000000000+I40000006698+0000000000+Z
217031001217031019-000126     217031006003000329571PLANTER GALV W/HANDLE  0000001000+00004823+00000+0001T   00004823+0000001541          1400 OF85102IC            1AZ
217031002217031079-009702-D   217031008427973059354PAPER SIRIO A2 RED COL 0000001000+00001051+00000+0001T   00001051+0000001541          1400 OF8130               1AZ
217032000217032               217032               170213FH     1400+00000+FH0000001227+0000001227+000000000+000000172+0000001390+0000000009+I20000000000+0000001390+Z
217032001217032077-000322     217032006001023677532GIFT-BAG 18X23CM E/D FL0000001000+00001227+00000+0001T   00001227+0000001542          1400 OF8112               1AZ
217033000217033               217033               170213FH     1400+00000+FH0000000437+0000000437+000000000+000000062+0000000490+0000000009+I20000000000+0000000490+Z
217033001217033080-000133-A   217033006003000647019MINI VALENTINES CARD   0000001000+00000437+00000+0001T   00000437+0000001542          1400 OF8112               1AZ
217034000217034               217034               170213FH     1400+00000+FH0000002192+0000002192+000000000+000000307+0000002490+0000000009+I20000000000+0000002490+Z
217034001217034077-000309-A   217034006003000671007GIFT-BAG HOLOGRAM JMB  0000001000+00002192+00000+0001T   00002192+0000001543          1400 OF8112               1AZ
217035000217035               217035               170213FH     1400+00000+FH0000003979+0000003979+000000000+000000558+0000004537+0000000000+I40000004537+0000000000+Z
217035001217035077-000407     217035006003000145096G/BAG PP 19X26X8CM     0000001000+00001314+00000+0001T   00001314+0000001545          1400 OF8112               1AZ
217035002217035016-006498-A   217035006001023774736S/JAR GLS/MTL POLKA-DOT0000001000+00002630+00000+0001T   00002630+0000001545          1400 OF8300               1AZ
217035003217035112-116038     217035006009681820246TCS CARRIER BAG MIDI   0000001000+00000035+00000+0001T   00000035+0000001545          1400 OF8090               1AZ
217036000217036               217036               170213FH     1400+00000+FH0000003506+0000003506+000000000+000000492+0000003990+0000000008+I20000000000+0000003990+Z
217036001217036080-000117     217036006003000236350CARD & ENVELOPE THANK U0000001000+00001753+00000+0001T   00001753+0000001545          1400 OF8112               1AZ
217036002217036077-000467     217036006003000329991GIFT-BAG STAMP 18X23CM 0000001000+00001753+00000+0001T   00001753+0000001545          1400 OF8112               1AZ
217037000217037               217037               170213FH     1400+00000+FH0000002192+0000002192+000000000+000000307+0000002499+0000000000+I40000002499+0000000000+Z
217037001217037080-000127     217037006003000424351VALENTINES DAY 36x24CM 0000001000+00002192+00000+0001T   00002192+0000001550          1400 OF8112               1AZ
217038000217038               217038               170213FH     1400+00000+FH0000001753+0000001753+000000000+000000246+0000001990+0000000009+I20000000000+0000001990+Z
217038001217038051-002407     217038006003000452491SPRAYER TRIGGER 550ml  0000001000+00001753+00000+0001T   00001753+0000001552          1400 OF8820               1AZ
217039000217039               217039               170213FH     1400+00000+FH0000001752+0000001752+000000000+000000246+0000001990+0000000008+I20000000000+0000001990+Z
217039001217039077-000151     217039006008766114676GIFT-WRAP C/PHANE ASSTD0000002000+00000876+00000+0001T   00000876+0000001559          1400 OF8112               1AZ
217040000217040               217040               170213FH     1400+00000+FH0000012839+0000012839+000000000+000001799+0000014630+0000000008+I20000000000+0000014630+Z
217040001217040903-000155     217040006009803374435SWT LOLLY I LUV U HEART0000001000+00000525+00000+0001T   00000525+0000001609          1400 OF8150               1AZ
217040002217040368-000111     217040006001023780812PLUSH BEAR/DOG 29CM    0000001000+00012279+00000+0001T   00012279+0000001609          1400 OF8745               1AZ
217040003217040112-116038     217040006003000534906TCS CARRIER BAG MIDI   0000001000+00000035+00000+0001T   00000035+0000001609          1400 OF8090               1AZ
217041000217041               217041               170213FH     1400+00000+FH0000002630+0000002630+000000000+000000369+0000002990+0000000009+I20000000000+0000002990+Z
217041001217041077-000316-A   217041006003000681457GIFT-BAG METALLIC PPR  0000001000+00002630+00000+0001T   00002630+0000001614          1400 OF8112               1AZ
217042000217042               217042               170213FH     1400+00000+FH0000007629+0000007629+000000000+000001069+0000008690+0000000008+I20000000000+0000008690+Z
217042001217042077-000299     217042006003000395576G/BAG 32x25cm LRG LOVE 0000001000+00001490+00000+0001T   00001490+0000001617          1400 OF8112               1AZ
217042002217042018-050000     217042006003000412679MUG OCC LOVE TWIN BEAR 0000001000+00006139+00000+0001T   00006139+0000001617          1400 OF8515               1AZ
217043000217043               217043               170213FH     1400+00000+FH0000010524+0000010524+000000000+000001474+0000011990+0000000008+I20000000000+0000011990+Z
217043001217043027-009027     217043006003000235803BROOM FLAT 1.2m HANDLE 0000001000+00004385+00000+0001T   00004385+0000001619          1400 OF8212               1AZ
217043002217043158-000020     217043006001023577979DISH-RACK EPOXY COATED 0000001000+00006139+00000+0001T   00006139+0000001619          1400 OF8300               1AZ
217044000217044               217044               170213FH     1400+00000+FH0000006174+0000006174+000000000+000000865+0000007030+0000000009+I20000000000+0000007030+Z
217044001217044368-000175     217044006003000270316PLUSH BEAR 4 ASSTD 18CM0000001000+00006139+00000+0001T   00006139+0000001621          1400 OF8745               1AZ
217044002217044112-116038     217044006009681820246TCS CARRIER BAG MIDI   0000001000+00000035+00000+0001T   00000035+0000001621          1400 OF8090               1AZ
217045000217045               217045               170213FH     1400+00000+FH0000001753+0000001753+000000000+000000246+0000001990+0000000009+I20000000000+0000001990+Z
217045001217045080-000101     217045006003000236732CARD&ENVLPE FEMALE     0000001000+00001753+00000+0001T   00001753+0000001622          1400 OF8112               1AZ
217046000217046               217046               170213FH     1400+00000+FH0000003417+0000003417+000000000+000000480+0000003890+0000000007+I20000000000+0000003890+Z
217046001217046903-000709     217046006002099007070SWT QUENCHERS FRUIT    0000003000+00001139+00000+0001T   00001139+0000001623          1400 OF8150               1AZ
217047000217047               217047               170213FH     1400+00000+FH0000009237+0000009237+000000000+000001296+0000010533+0000000000+I40000010533+0000000000+Z
217047001217047018-000129     217047006001023403353MUG OCC. LOVE V-SHAPE  0000001000+00002630+00000+0001T   00002630+0000001629          1400 OF8515               1AZ
217047002217047903-000155     217047006009803374435SWT LOLLY I LUV U HEART0000001000+00000525+00000+0001T   00000525+0000001629          1400 OF8150               1AZ
217047003217047018-005009     217047006001023725608MUG W/PLUSH-BEAR LOVE  0000001000+00003507+00000+0001T   00003507+0000001629          1400 OF8515               1AZ
217047004217047077-000314     217047006003000181148GIFT-BAG 11X14CM MATT  0000002000+00000876+00000+0001T   00000876+0000001629          1400 OF8112               1AZ
217047005217047077-000010-C   217047006001023123879CREPE-PAPER RED        0000001000+00000788+00000+0001T   00000788+0000001629          1400 OF8112               1AZ
217047006217047112-116038     217047006003000534906TCS CARRIER BAG MIDI   0000001000+00000035+00000+0001T   00000035+0000001629          1400 OF8090               1AZ
217048000217048               217048               170213FH     1400+00000+FH0000004381+0000004381+000000000+000000615+0000004990+0000000006+I20000000000+0000004990+Z
217048001217048056-005752     217048006003000491674CAR AIR-FRESH FISH ASST0000001000+00001753+00000+0001T   00001753+0000001630          1400 OF8860               1AZ
217048002217048903-000155     217048006009803374435SWT LOLLY I LUV U HEART0000002000+00000525+00000+0001T   00000525+0000001630          1400 OF8150               1AZ
217048003217048080-000124     217048006003000297733CARD & ENV VALENTINES  0000001000+00001578+00000+0001T   00001578+0000001630          1400 OF8112               1AZ
217049000217049               217049               170213FH     1400+00000+FH0000004379+0000004379+000000000+000000614+0000004990+0000000003+I20000000000+0000004990+Z
217049001217049006-000166-D   217049006003000516490BALLOONS LRG 6PC RED   0000001000+00001314+00000+0001T   00001314+0000001633          1400 OF8131               1AZ
217049002217049006-001000     217049006003000093779HELIUM BALLOON FILL    0000005000+00000613+00000+0001T   00000613+0000001633          1400 OF8131               1AZ
217050000217050               217050               170213FH     1400+00000+FH0000004120+0000004120+000000000+000000578+0000004690+0000000008+I20000000000+0000004690+Z
217050001217050077-000399     217050006003000139514GIFT BAG 18X23CM E/DAY 0000001000+00001490+00000+0001T   00001490+0000001634          1400 OF8112               1AZ
217050002217050003-009202     217050006003000405725ORN STONE FLOWERPOT    0000001000+00002630+00000+0001T   00002630+0000001634          1400 OF8505               1AZ
217051000217051               217051               170213FH     1400+00000+FH0000004385+0000004385+000000000+000000614+0000004990+0000000009+I20000000000+0000004990+Z
217051001217051368-000001     217051006003000097982Plush Bear 25cm        0000001000+00004385+00000+0001T   00004385+0000001634          1400 OF8745               1AZ
217052000217052               217052               170213FH     1400+00000+FH0000001965+0000001965+000000000+000000280+0000002245+0000000000+I40000002245+0000000000+Z
217052001217052903-000183     217052006003000451043SWT LB HEART LOLLY     0000005000+00000393+00000+0001T   00000393+0000001636          1400 OF8150               1AZ
217053000217053               217053               170213FH     1400+00000+FH0000016294+0000016294+000000000+000002284+0000018570+0000000008+I20000000000+0000018570+Z
217053001217053018-005009     217053006001023725608MUG W/PLUSH-BEAR LOVE  0000003000+00003507+00000+0001T   00003507+0000001640          1400 OF8515               1AZ
217053002217053903-000155     217053006009803374435SWT LOLLY I LUV U HEART0000001000+00000525+00000+0001T   00000525+0000001640          1400 OF8150               1AZ
217053003217053903-000194     217053006009826020616SWT CHOC RP LOLLY 25G  0000001000+00001314+00000+0001T   00001314+0000001640          1400 OF8150               1AZ
217053004217053903-000183     217053006003000451043SWT LB HEART LOLLY     0000001000+00000393+00000+0001T   00000393+0000001640          1400 OF8150               1AZ
217053005217053267-000054     217053006003000673223PUZZLE 4D MODEL PLANE  0000002000+00001753+00000+0001T   00001753+0000001640          1400 OF8755               1AZ
217053006217053112-116038     217053006003000534906TCS CARRIER BAG MIDI   0000001000+00000035+00000+0001T   00000035+0000001640          1400 OF8090               1AZ
217054000217054               217054               170213FH     1400+00000+FH0000011572+0000011572+000000000+000001621+0000000000+0000000000+ 00000000000+0000000000+Z
217054001217054301-085004     217054006003000420469ORN LOVE PLAQUE 21X10CM0000002000+00003507+00000+0001T   00003946+000647              1400 OF85051IC            1 Z
217054002217054077-000322     217054006001023677532GIFT-BAG 18X23CM E/D FL0000001000+00001227+00000+0001T   00001227+000000              1400 OF81121IC            1 Z
217054003217054077-000471     217054006003000330096G-BAG DESGN MED 18X23CM0000001000+00001753+00000+0001T   00001753+000000              1400 OF81121IC            1 Z
217054004217054080-000124     217054006003000297733CARD & ENV VALENTINES  0000001000+00001578+00000+0001T   00001578+000000              1400 OF81121IC            1 Z
217055000217055               217055               170213FH     1400+00000+FH0000010518+0000010518+000000000+000001475+0000011990+0000000003+I20000000000+0000011990+Z
217055001217055077-000321     217055006001023677501GIFT-BAG 11X14CM E/D FL0000002000+00000613+00000+0001T   00000613+0000001647          1400 OF8112               1AZ
217055002217055089-060027     217055006003000245871KEY-CHAIN HEART 6X6cm  0000002000+00003069+00000+0001T   00003069+0000001647          1400 OF8205               1AZ
217055003217055080-000124     217055006003000297733CARD & ENV VALENTINES  0000001000+00001578+00000+0001T   00001578+0000001647          1400 OF8112               1AZ
217055004217055903-000892     217055008693029700420SWT NOVELTY CHOCO CREAM0000002000+00000788+00000+0001T   00000788+0000001647          1400 OF8150               1AZ
217056000217056               217056               170213FH     1400+00000+FH0000001314+0000001314+000000000+000000184+0000001490+0000000008+I20000000000+0000001490+Z
217056001217056077-000312     217056006001023608697GIFT-BAG 10X35CM GLOSS 0000001000+00001314+00000+0001T   00001314+0000001647          1400 OF8112               1AZ
217057000217057               217057               170213FH     1400+00000+FH0000011839+0000011839+000000000+000001658+0000013490+0000000007+I20000000000+0000013490+Z
217057001217057077-000299     217057006003000395576G/BAG 32x25cm LRG LOVE 0000001000+00001490+00000+0001T   00001490+0000001650          1400 OF8112               1AZ
217057002217057080-000124     217057006003000297733CARD & ENV VALENTINES  0000001000+00001578+00000+0001T   00001578+0000001650          1400 OF8112               1AZ
217057003217057001-091415     217057006003000329113W/GLS OCC. LOVE 2PC 2800000001000+00008771+00000+0001T   00009648+0006471650          1400 OF8515               1AZ
217058000217058               217058               170213FH     1400+00000+FH0000006840+0000006840+000000000+000000958+0000007790+0000000008+I20000000000+0000007790+Z
217058001217058080-000124     217058006003000297733CARD & ENV VALENTINES  0000001000+00001578+00000+0001T   00001578+0000001651          1400 OF8112               1AZ
217058002217058056-065300     217058006001023625854CAR SUNSHIELD ALUM FOIL0000001000+00005262+00000+0001L   00005262+0000001651          1400 OF8860               1AZ
217059000217059               217059               170213FH     1400+00000+FH0000006139+0000006139+000000000+000000860+0000006999+0000000000+I40000006999+0000000000+Z
217059001217059018-050000     217059006003000412679MUG OCC LOVE TWIN BEAR 0000001000+00006139+00000+0001T   00006139+0000001656          1400 AA7515               1AZ
217060000217060               217060               170213FH     1400+00000+FH0000009344+0000009344+000000000+000001309+0000010653+0000000000+I40000010653+0000000000+Z
217060001217060112-116069     217060006009681820277TCS CARRIER BAG JUMBO  0000001000+00000048+00000+0001T   00000048+0000001658          1400 AA7090               1AZ
217060002217060368-000012     217060006003000610464PLUSH BEAR 30cm SITTING0000001000+00008771+00000+0001T   00008771+0000001658          1400 AA7745               1AZ
217060003217060903-000155     217060006009803374435SWT LOLLY I LUV U HEART0000001000+00000525+00000+0001T   00000525+0000001658          1400 AA7150               1AZ
217061000217061               217061               170213FH     1400+00000+FH0000006871+0000006871+000000000+000000963+0000007830+0000000004+I20000000000+0000007830+Z
217061001217061018-005009     217061006001023725608MUG W/PLUSH-BEAR LOVE  0000001000+00003507+00000+0001T   00003507+0000001703          1400 AA7515               1AZ
217061002217061903-000194     217061006009826020616SWT CHOC RP LOLLY 25G  0000001000+00001314+00000+0001T   00001314+0000001703          1400 AA7150               1AZ
217061003217061080-000133-A   217061006003000647019MINI VALENTINES CARD   0000001000+00000437+00000+0001T   00000437+0000001703          1400 AA7112               1AZ
217061004217061077-000303     217061006001023593757GIFT-BAG PAPER MED     0000001000+00001578+00000+0001T   00001578+0000001703          1400 AA7112               1AZ
217061005217061112-116038     217061006009681820246TCS CARRIER BAG MIDI   0000001000+00000035+00000+0001T   00000035+0000001703          1400 AA7090               1AZ
217062000217062               217062               170213FH     1400+00000+FH0000002630+0000002630+000000000+000000369+0000002990+0000000009+I20000000000+0000002990+Z
217062001217062079-000601     217062006003000640379ART+CRAFT SHEETS METAL 0000001000+00002630+00000+0001T   00002630+0000001705          1400 AA7130               1AZ
217063000217063               217063               170213FH     1400+00000+FH0000007454+0000007454+000000000+000001044+0000008498+0000000000+I40000008498+0000000000+Z
217063001217063567-011505     217063000814625012092BK COLOURING 96P PRINCE0000001000+00003069+00000+0001T   00003069+0000001708          1400 AA7757               1AZ
217063002217063567-011315     217063009780755497348BOOK READER LARGE SQUAR0000001000+00004385+00000+0001T   00004385+0000001708          1400 AA7757               1AZ
217064000217064               217064               170213FH     1400+00000+FH0000001137+0000001137+000000000+000000160+0000001290+0000000007+I20000000000+0000001290+Z
217064001217064018-000177     217064006001023797513MUG MINI LOVE ASSTD    0000001000+00000700+00000+0001T   00000700+0000001711          1400 AA7515               1AZ
217064002217064080-000133     217064006003000535613CARD&ENV MINI ASTD DSGN0000001000+00000437+00000+0001T   00000437+0000001711          1400 AA7112               1AZ
217065000217065               217065               170213FH     1400+00000+FH0000007890+0000007890+000000000+000001107+0000008990+0000000007+I20000000000+0000008990+Z
217065001217065304-000720     217065006001023843050F/BUNCH ROSE 6-HEAD AST0000003000+00002630+00000+0001T   00002630+0000001712          1400 AA7510               1AZ
217066000217066               217066               170213FH     1400+00000+FH0000012867+0000012867+000000000+000001806+0000014673+0000000000+I40000014673+0000000000+Z
217066001217066018-000127     217066006001023380289MUG OCC STRAIGHT LOVE  0000001000+00001578+00000+0001T   00001753+0006471721          1400 AA7515               1AZ
217066002217066903-000194     217066006009826020616SWT CHOC RP LOLLY 25G  0000002000+00001314+00000+0001T   00001314+0000001721          1400 AA7150               1AZ
217066003217066903-000155     217066006009803374435SWT LOLLY I LUV U HEART0000001000+00000525+00000+0001T   00000525+0000001721          1400 AA7150               1AZ
217066004217066080-000133     217066006003000535613CARD&ENV MINI ASTD DSGN0000001000+00000437+00000+0001T   00000437+0000001721          1400 AA7112               1AZ
217066005217066080-000133-A   217066006003000647019MINI VALENTINES CARD   0000001000+00000437+00000+0001T   00000437+0000001721          1400 AA7112               1AZ
217066006217066077-000317     217066006001023609748GIFT-BAG 11X14CM E/D AN0000001000+00000613+00000+0001T   00000613+0000001721          1400 AA7112               1AZ
217066007217066039-000635     217066006001023774521CANDLE VTV 4PC WHITE   0000001000+00002192+00000+0001T   00002192+0000001721          1400 AA7510               1AZ
217066008217066077-000310     217066006001023608635GIFT-BAG 18X23CM GLOSS 0000001000+00001314+00000+0001T   00001314+0000001721          1400 AA7112               1AZ
217066009217066077-000010-C   217066006001023123879CREPE-PAPER RED        0000001000+00000788+00000+0001T   00000788+0000001721          1400 AA7112               1AZ
217066010217066077-000317     217066006001023609748GIFT-BAG 11X14CM E/D AN0000001000+00000613+00000+0001T   00000613+0000001721          1400 AA7112               1AZ
217066011217066903-000194     217066006009826020616SWT CHOC RP LOLLY 25G  0000001000+00001314+00000+0001T   00001314+0000001721          1400 AA7150               1AZ
217066012217066903-000183     217066006003000451043SWT LB HEART LOLLY     0000001000+00000393+00000+0001T   00000393+0000001721          1400 AA7150               1AZ
217066013217066112-116038     217066006009681820246TCS CARRIER BAG MIDI   0000001000+00000035+00000+0001T   00000035+0000001721          1400 AA7090               1AZ
217067000217067               217067               170213FH     1400+00000+FH0000003507+0000003507+000000000+000000491+0000003990+0000000008+I20000000000+0000003990+Z
217067001217067018-000136     217067006001023659026MUG OCC LOVE W/PLUSH   0000001000+00003507+00000+0001T   00003507+0000001721          1400 AA7515               1AZ
217068000217068               217068               170213FH     1400+00000+FH0000003507+0000003507+000000000+000000491+0000003990+0000000008+I20000000000+0000003990+Z
217068001217068018-000136     217068006001023659026MUG OCC LOVE W/PLUSH   0000001000+00003507+00000+0001T   00003507+0000001721          1400 AA7515               1AZ
217069000217069               217069               170213FH     1400+00000+FH0000000035+0000000035+000000000+000000005+0000000040+0000000000+I20000000000+0000000040+Z
217069001217069112-116038     217069006009681820246TCS CARRIER BAG MIDI   0000001000+00000035+00000+0001T   00000035+0000001722          1400 AA7090               1AZ
217070000217070               217070               170213FH     1400+00000+FH0000006872+0000006872+000000000+000000963+0000007830+0000000005+I20000000000+0000007830+Z
217070001217070018-000136     217070006001023659026MUG OCC LOVE W/PLUSH   0000001000+00003507+00000+0001T   00003507+0000001722          1400 AA7515               1AZ
217070002217070903-000710     217070006002099007056SWT REFRESHERS MINT    0000001000+00001139+00000+0001T   00001139+0000001722          1400 AA7150               1AZ
217070003217070304-001011     217070006001023806727FLWR ROSE RED W/BEAR   0000001000+00000613+00000+0001T   00000788+0006471722          1400 AA7510               1AZ
217070004217070077-000303     217070006001023593757GIFT-BAG PAPER MED     0000001000+00001578+00000+0001T   00001578+0000001722          1400 AA7112               1AZ
217070005217070112-116038     217070006009681820246TCS CARRIER BAG MIDI   0000001000+00000035+00000+0001T   00000035+0000001722          1400 AA7090               1AZ
217071000217071               217071               170213FH     1400+00000+FH0000000350+0000000350+000000000+000000049+0000000390+0000000009+I20000000000+0000000390+Z
217071001217071903-000159     217071006003000417629SWT LB SMALL DUMMIE    0000001000+00000350+00000+0001T   00000350+0000001724          1400 AA7150               1AZ
217072000217072               217072               170213FH     1400+00000+FH0000014034+0000014034+000000000+000001965+0000015999+0000000000+I40000015999+0000000000+Z
217072001217072028-002102     217072006002580009514TABLE KIDDIES          0000001000+00014034+00000+0001T   00014034+0000001728          1400 AA7305               1AZ
217073000217073               217073               170213FH     1400+00000+FH0000001139+0000001139+000000000+000000160+0000001290+0000000009+I20000000000+0000001290+Z
217073001217073002-021011     217073006003000661893CHOPSTICKS WOODEN 10 PC0000001000+00001139+00000+0001T   00001578+0008121730          1400 AA7300               1AZ
217074000217074               217074               170213FH     1400+00000+FH0000004120+0000004120+000000000+000000578+0000004698+0000000000+I40000004698+0000000000+Z
217074001217074077-000299     217074006003000395576G/BAG 32x25cm LRG LOVE 0000001000+00001490+00000+0001T   00001490+0000001733          1400 AA7112               1AZ
217074002217074077-000251     217074006003000639106GIFT-DECOR RIBBON      0000001000+00002630+00000+0001T   00002630+0000001733          1400 AA7112               1AZ
A17021300                                          08295444FHSLAVE 1                       AA72IC
B21700000                                          170213FH903-000014     14213701SLAVE 1     OF82IC0000002000+0000001000+0000000000000+
B21700001                                          170213FH903-000014     14220448SLAVE 1     OF82IC0000003000+0000001000+0000000000000+
B21700002                                          170213FH903-000014     14221649SLAVE 1     OF82IC0000003000+0000002000+0000000000000+
B21703100                                          170213FH019-000126     15402288SLAVE 1     OF82IC0000002000+0000001000+0000000000000+
M17021301                              IT          FHATTENTION:GLADWYN TROMP                         FROM:ALIWAL NORTH FH                                                                            LAST TILL SLIP NO:217074 (13/02/17)                                                             THANKS                                          DENVER
M17021391                              CASH        FHSLAVE 1                       Z-REPORT No.   539TOTAL (Sales - Refunds)           7891.64       CASH TO BE BANKED                 5473.80       DEBIT CARDS                          0.00       CREDIT CARDS                      2405.94       Z-READING                         7879.74       AIRTIME DEBIT CARD SALES             0.00       AIRTIME CARD SALES                   0.00       OVERS/UNDERS                         0.00       AIRTIME CASH SALES                   0.00       GIFT CARDS                           0.00       GIFT CARD CASH SALES                 0.00       STAFF-REFRESHMENTS                  11.90       T O T A L  CASH PAYOUTS             11.90                                                                                                                                                                                                                                                                                                      Z
M17021392                              CASH        FHABSENT                                                                                                                                                                                          ANNUAL LEAVE                                                                                                                                                                                    DAY OFF                                                                                                                                                                                         COMMENTS                                                                                                                                                                                                                                                                                                                                                                                       Z
Y17021300                                          FH00000000692681+000113
ZFH17021319373 SLAVE 1      SALES DATA                     NEXT INVOICE NO.  217075 0539
X FH Slave 1 First invoice 216960 170213 Last invoice 217074 170213 Next invoice 217075 Total number of records 000000393 clbackup completed 19:37:29
