220725000220725               220725               170213FH     1400+00000+FH0000006607+0000006607+000000000+000000926+0000007530+0000000003+I20000000000+0000007530+Z
220725001220725112-116038     220725006009681820246TCS CARRIER BAG MIDI   0000001000+00000035+00000+0001T   00000035+0000000912          1400 EL7090               2AZ
220725002220725088-000058     220725006003000621699TOILET FRESHENER GEL   0000001000+00002630+00000+0001T   00002630+0000000912          1400 EL7212               2AZ
220725003220725040-010105     220725006001023162359CANDLE-HOLDER MTL SMALL0000003000+00001314+00000+0001T   00001314+0000000912          1400 EL7510               2AZ
220726000220726               220726               170213FH     1400+00000+FH0000007837+0000007837+000000000+000001099+0000008930+0000000006+I20000000000+0000008930+Z
220726001220726024-000038     220726006001023477026MEASURING-JUG 1L (4CUP)0000001000+00001753+00000+0001T   00001753+0000000928          1400 EL7300               2AZ
220726002220726002-000879     220726006001023770004STRAINER TEA 7cm H/H   0000001000+00000350+00000+0001T   00000350+0000000928          1400 EL7300               2AZ
220726003220726024-000065     220726006001023770424SPATULA SILICONE 25CM  0000001000+00003946+00000+0001T   00003946+0000000928          1400 EL7300               2AZ
220726004220726174-000011     220726006001023523778W/MACHINE-BAG 50x40cm  0000001000+00001753+00000+0001T   00001753+0000000928          1400 EL7205               2AZ
220726005220726112-116038     220726006009681820246TCS CARRIER BAG MIDI   0000001000+00000035+00000+0001T   00000035+0000000928          1400 EL7090               2AZ
220727000220727               220727               170213FH     1400+00000+FH0000002715+0000002715+000000000+000000382+0000003090+0000000007+I20000000000+0000003090+Z
220727001220727083-000049     220727004891035200024CIG-LIGHTER DISPOSABLE 0000001000+00000437+00000+0001T   00000437+0000000933          1400 EL7315               2AZ
220727002220727903-000087     220727006001704000161SWT SPECKLED-EGGS 50G  0000001000+00001139+00000+0001T   00001139+0000000933          1400 EL7150               2AZ
220727003220727140-006004     220727006001023628077FLY-SWATTER RUBBER     0000001000+00001139+00000+0001T   00001139+0000000933          1400 EL7830               2AZ
220728000220728               220728               170213FH     1400+00000+FH0000003507+0000003507+000000000+000000491+0000003990+0000000008+I20000000000+0000003990+Z
220728001220728018-005009     220728006001023725608MUG W/PLUSH-BEAR LOVE  0000001000+00003507+00000+0001T   00003507+0000000937          1400 EL7515               2AZ
220729000220729               220729               170213FH     1400+00000+FH0000005084+0000005084+000000000+000000713+0000005797+0000000000+I40000005797+0000000000+Z
220729001220729251-000041     220729006001023515889SEAL-TAPE BUFF 48mmx50m0000001000+00001227+00000+0001T   00001227+0000000945          1400 EL7810               2AZ
220729002220729077-000245     220729006001023759214GIFT-RIBBON METALLICx2 0000001000+00001227+00000+0001T   00001227+0000000945          1400 EL7112               2AZ
220729003220729077-000235     220729006003000160211GIFT-RIBBON ROLL METALC0000001000+00002630+00000+0001T   00002630+0000000945          1400 EL7112               2AZ
220730000220730               220730               170213FH     1400+00000+FH0000018980+0000018980+000000000+000002659+0000021639+0000000000+I40000021639+0000000000+Z
220730001220730586-098616     220730006001492986166WATCH TEEN CHARM HRT   0000001000+00011402+00000+0001T   00011402+0000000947          1400 EL7160               2AZ
220730002220730903-000183     220730006003000451043SWT LB HEART LOLLY     0000001000+00000393+00000+0001T   00000393+0000000947          1400 EL7150               2AZ
220730003220730082-000105     220730006003000360369READING GLS STRNGHT:1.50000001000+00004385+00000+0001T   00004385+0000000947          1400 EL7160               2AZ
220730004220730903-000071     220730006001704001120SWT TOFFEE LIQURICE 35g0000004000+00000700+00000+0001T   00000700+0000000947          1400 EL7150               2AZ
220731000220731               220731               170213FH     1400+00000+FH0000003507+0000003507+000000000+000000491+0000003990+0000000008+I20000000000+0000003990+Z
220731001220731007-000324     22073100600968585864125 SHEETS BRIGHTS MARLI0000001000+00003507+00000+0001T   00003507+0000001019          1400 EL7130               2AZ
220732000220732               220732               170213FH     1400+00000+FH0000011873+0000011873+000000000+000001664+0000013530+0000000007+I20000000000+0000013530+Z
220732001220732082-007580     220732006003000698523SUNGLASS MENS DESIGNER 0000001000+00005262+00000+0001T   00005262+0000001020          1400 EL7160               2AZ
220732002220732018-000022     220732006001023648082MUG N/BONE 320ML BARREL0000001000+00002630+00000+0001T   00002630+0000001020          1400 EL7515               2AZ
220732003220732024-000002     220732006001023741899S/BURNER-COVER SILV/BLK0000001000+00003946+00000+0001T   00004385+0008191020          1400 EL7300               2AZ
220732004220732112-116038     220732006009681820246TCS CARRIER BAG MIDI   0000001000+00000035+00000+0001T   00000035+0000001020          1400 EL7090               2AZ
220733000220733               220733               170213FH     1400+00000+FH0000002630+0000002630+000000000+000000369+0000002990+0000000009+I20000000000+0000002990+Z
220733001220733082-092844     220733006001492928449#TAG SPECTACLE POUCH   0000001000+00002630+00000+0001T   00002630+0000001020          1400 EL7160               2AZ
220734000220734               220734               170213FH     1400+00000+FH0000006257+0000006257+000000000+000000878+0000007135+0000000000+I40000007135+0000000000+Z
220734001220734903-000155     220734006009803374435SWT LOLLY I LUV U HEART0000001000+00000525+00000+0001T   00000525+0000001027          1400 EL7150               2AZ
220734002220734903-000194     220734006009826020616SWT CHOC RP LOLLY 25G  0000001000+00001314+00000+0001T   00001314+0000001027          1400 EL7150               2AZ
220734003220734071-005211     220734006003000152346CELLOTAPE MOUNTING TAPE0000001000+00001753+00000+0001T   00001753+0000001027          1400 EL7130               2AZ
220734004220734079-000601     220734006003000640379ART+CRAFT SHEETS METAL 0000001000+00002630+00000+0001T   00002630+0000001027          1400 EL7130               2AZ
220734005220734112-116038     220734006009681820246TCS CARRIER BAG MIDI   0000001000+00000035+00000+0001T   00000035+0000001027          1400 EL7090               2AZ
220735000220735               220735               170213FH     1400+00000+FH0000000000+0000000000+000000000+000000000+0000000000+0000000000+I20000000000+0000000000+Z
220735001220735077-000150-D   220735006003000054343GIFT-WRAP CELLPHANE CLR0000005000-00000876+00000+0001T   00000876+0000001028          1400 EL71121IC            2 Z
220735002220735077-000151     220735006008766114676GIFT-WRAP C/PHANE ASSTD0000005000+00000876+00000+0001T   00000876+0000001028          1400 EL7112               2 Z
220736000220736               220736               170213FH     1400+00000+FH0000001578+0000001578+000000000+000000221+0000001790+0000000009+I20000000000+0000001790+Z
220736001220736077-000303     220736006001023593757GIFT-BAG PAPER MED     0000001000+00001578+00000+0001T   00001578+0000001057          1400 EL7112               2AZ
220737000220737               220737               170213FH     1400+00000+FH0000034245+0000034245+000000000+000004797+0000039042+0000000000+I40000039042+0000000000+Z
220737001220737112-116069     220737006009681820277TCS CARRIER BAG JUMBO  0000001000+00000048+00000+0001T   00000048+0000001130          1400 EL7090               2AZ
220737002220737079-014101     220737006001023908612ART+CRAFT SCOUBIDOUx50 0000001000+00003507+00000+0001T   00003507+0000001130          1400 EL7130               2AZ
220737003220737362-001105     220737006003000635917JEWELLERY BRACELETS    0000003000+00000876+00000+0001T   00000876+0000001130          1400 EL7160               2AZ
220737004220737362-101406     220737006003000229741BEAD PLASTIC DIY SET   0000002000+00003507+00000+0001T   00003507+0000001130          1400 EL7160               2AZ
220737005220737496-057105     220737000078257571055INTEX POOL BABY GIRAFFE0000001000+00014034+00000+0001T   00014034+0000001130          1400 EL7787               2AZ
220737006220737362-001105     220737006003000635917JEWELLERY BRACELETS    0000002000+00000876+00000+0001T   00000876+0000001130          1400 EL7160               2AZ
220737007220737303-000806     220737006001023409768COW-BELL BRASS(5BELLS) 0000001000+00005262+00000+0001T   00005262+0000001130          1400 EL7510               2AZ
220738000220738               220738               170213FH     1400+00000+FH0000003770+0000003770+000000000+000000528+0000004290+0000000008+I20000000000+0000004290+Z
220738001220738077-000303     220738006001023593757GIFT-BAG PAPER MED     0000001000+00001578+00000+0001T   00001578+0000001133          1400 EL7112               2AZ
220738002220738080-000127     220738006003000424351VALENTINES DAY 36x24CM 0000001000+00002192+00000+0001T   00002192+0000001133          1400 EL7112               2AZ
220739000220739               220739               170213FH     1400+00000+FH0000004822+0000004822+000000000+000000676+0000005490+0000000008+I20000000000+0000005490+Z
220739001220739566-000359     220739006003000582709STICKER BOOK LOVE SPARK0000001000+00002192+00000+0001T   00002192+0000001135          1400 EL7130               2AZ
220739002220739566-000367     220739006003000645558STICKER WINDOW DECOR   0000001000+00002630+00000+0001T   00002630+0000001135          1400 EL7130               2AZ
220740000220740               220740               170213FH     1400+00000+FH0000018590+0000018590+000000000+000002604+0000021190+0000000004+I20000000000+0000021190+Z
220740001220740903-000095     220740006001704011495SWT SPECKLED-EGGS 100G 0000001000+00002104+00000+0001T   00002104+0000001136          1400 EL7150               2AZ
220740002220740586-098615     220740006001492986159WATCH KIDS EASY READ   0000001000+00008771+00000+0001T   00008771+0000001136          1400 EL7160               2AZ
220740003220740162-093345     220740006001492933450SS 3PK HOOP SET        0000001000+00003507+00000+0001T   00003507+0000001136          1400 EL7160               2AZ
220740004220740162-093172     220740006001492931722#TAG SILV/BLK CHAIN    0000001000+00002630+00000+0001T   00005262+0008161136          1400 EL7160               2AZ
220740005220740077-000303     220740006001023593757GIFT-BAG PAPER MED     0000001000+00001578+00000+0001T   00001578+0000001136          1400 EL7112               2AZ
220741000220741               220741               170213FH     1400+00000+FH0000015564+0000015564+000000000+000002183+0000017740+0000000007+I20000000000+0000017740+Z
220741001220741112-116069     220741006009681820277TCS CARRIER BAG JUMBO  0000001000+00000048+00000+0001T   00000048+0000001240          1400 EL7090               2AZ
220741002220741006-000803     220741006003000653676STREAMERS SET 3ROLLS   0000001000+00002630+00000+0001T   00002630+0000001240          1400 EL7131               2AZ
220741003220741006-000804     220741006003000574445STREAMERS 6-ROLLS 2.5cm0000001000+00001753+00000+0001T   00001753+0000001240          1400 EL7131               2AZ
220741004220741263-000175     220741006001023787682CAR PL FRIC RACER ASSTD0000001000+00001490+00000+0001T   00001490+0000001240          1400 EL7710               2AZ
220741005220741039-000320     220741006001023816153BIRTHDAY-CANDLES 13PCE 0000001000+00002630+00000+0001T   00002630+0000001240          1400 EL7510               2AZ
220741006220741006-000789     220741006001023148612CROWN BOY              0000001000+00002192+00000+0001T   00002192+0000001240          1400 EL7131               2AZ
220741007220741006-000090     220741006001023538505BANNER HAPPY-BIRTHDAY  0000001000+00002192+00000+0001T   00002192+0000001240          1400 EL7131               2AZ
220741008220741039-000319-1   220741006003000442386B/CANDLES LRG NUMBER-1 0000001000+00000876+00000+0001T   00000876+0000001240          1400 EL7510               2AZ
220741009220741006-000124     220741006003000625888BALLOONS 10PC MIX COL  0000001000+00001753+00000+0001T   00001753+0000001240          1400 EL7131               2AZ
220742000220742               220742               170213FH     1400+00000+FH0000017059+0000017059+000000000+000002391+0000019450+0000000000+I40000019450+0000000000+Z
220742001220742079-000351     220742006001023836090FELT-TIP PENS 8PCE     0000002000+00003244+00000+0001T   00003244+0000001242          1400 EL7130               2AZ
220742002220742071-001008     220742006003000222780MAKER WHITEBOARD MAGNET0000001000+00003507+00000+0001T   00003507+0000001242          1400 EL7130               2AZ
220742003220742562-006275     220742006001023836182EDU BOARD W/MARKER ASST0000001000+00007016+00000+0001T   00007016+0000001242          1400 EL7755               2AZ
220742004220742112-116069     220742006009681820277TCS CARRIER BAG JUMBO  0000001000+00000048+00000+0001T   00000048+0000001242          1400 EL7090               2AZ
220743000220743               220743               170213FH     1400+00000+FH0000003156+0000003156+000000000+000000442+0000003590+0000000008+I20000000000+0000003590+Z
220743001220743266-001309     220743006001023686992BOYS MARBLES 16mm 50PC 0000001000+00001578+00000+0001T   00001578+0000001243          1400 EL7710               2AZ
220743002220743266-001307     220743006003000610570BOYS MARBLES 16mm 50PC 0000001000+00001578+00000+0001T   00001578+0000001243          1400 EL7710               2AZ
220744000220744               220744               170213FH     1400+00000+FH0000007893+0000007893+000000000+000001106+0000008999+0000000000+I40000008999+0000000000+Z
220744001220744035-000023     220744006001023898944UMBRELLA WITH PL COVER 0000001000+00007893+00000+0001T   00007893+0000001257          1400 EL7205               2AZ
220745000220745               220745               170213FH     1400+00000+FH0000003857+0000003857+000000000+000000541+0000004390+0000000008+I20000000000+0000004390+Z
220745001220745082-000340     220745006003000649037LENS CLOTH MOIST 30PC  0000001000+00002630+00000+0001T   00002630+0000001300          1400 EL7160               2AZ
220745002220745206-000630     220745006003000631919SPECTACLE CLEANING BRUS0000001000+00001227+00000+0001T   00001227+0000001300          1400 EL7321               2AZ
220746000220746               220746               170213FH     1400+00000+FH0000006521+0000006521+000000000+000000914+0000007430+0000000005+I20000000000+0000007430+Z
220746001220746200-000023     220746006003000399413BAG SLIDE LOCK 10PC    0000001000+00002630+00000+0001T   00002630+0000001301          1400 EL7214               2AZ
220746002220746174-008032     220746006009654960603TRAVEL BOTTLES 50ml    0000002000+00001928+00000+0001T   00001928+0000001301          1400 EL7205               2AZ
220746003220746112-116038     220746006009681820246TCS CARRIER BAG MIDI   0000001000+00000035+00000+0001T   00000035+0000001301          1400 EL7090               2AZ
220747000220747               220747               170213FH     1400+00000+FH0000007800+0000007800+000000000+000001093+0000008893+0000000000+I40000008893+0000000000+Z
220747001220747018-000177     220747006001023797513MUG MINI LOVE ASSTD    0000002000+00000700+00000+0001T   00000700+0000001315          1400 EL7515               2AZ
220747002220747018-000170     220747006001023775528MUG OCC. LOVE 2PC MINI 0000001000+00002192+00000+0001T   00002192+0000001315          1400 EL7515               2AZ
220747003220747048-000701     220747006001023867674HEAD-LAMP CAP CLIP-ON  0000001000+00002630+00000+0001T   00002630+0000001315          1400 EL7305               2AZ
220747004220747077-000303     220747006001023593757GIFT-BAG PAPER MED     0000001000+00001578+00000+0001T   00001578+0000001315          1400 EL7112               2AZ
220748000220748               220748               170213FH     1400+00000+FH0000004383+0000004383+000000000+000000615+0000004990+0000000008+I20000000000+0000004990+Z
220748001220748046-002032-PK2 220748004897006175063BATTERIES CR-2032  2PCE0000001000+00001753+00000+0001T   00001753+0000001322          1400 EL7312               2AZ
220748002220748046-002430-PK2 220748004897006178422BATTERY LITHIUM CR-24300000001000+00002630+00000+0001T   00002630+0000001322          1400 EL7312               2AZ
220749000220749               220749               170213FH     1400+00000+FH0000001753+0000001753+000000000+000000246+0000001990+0000000009+I20000000000+0000001990+Z
220749001220749200-003026     220749006003000276448REFUSE BAGS 10PCE GREEN0000001000+00001753+00000+0001T   00001753+0000001323          1400 EL7214               2AZ
220750000220750               220750               170213FH     1400+00000+FH0000003507+0000003507+000000000+000000491+0000003990+0000000008+I20000000000+0000003990+Z
220750001220750018-000136     220750006001023659026MUG OCC LOVE W/PLUSH   0000001000+00003507+00000+0001T   00003507+0000001323          1400 EL7515               2AZ
220751000220751               220751               170213FH     1400+00000+FH0000037757+0000037757+000000000+000005290+0000043047+0000000000+I40000043047+0000000000+Z
220751001220751112-116069     220751006009681820277TCS CARRIER BAG JUMBO  0000001000+00000048+00000+0001T   00000048+0000001327          1400 EL7090               2AZ
220751002220751040-000208     220751006003000673599C/HOLDER GLS COL. 5.5CM0000004000+00000876+00000+0001T   00000876+0000001327          1400 EL7510               2AZ
220751003220751040-000500     220751006003000250417C/HOLDER LED-LIGHTS    0000002000+00011402+00000+0001T   00011402+0000001327          1400 EL7510               2AZ
220751004220751039-000799     220751006001023692382CANDLES TEALITE 100PCE 0000001000+00008771+00000+0001T   00008771+0000001327          1400 EL7510               2AZ
220751005220751019-071601     220751006001023771995RIVER-STONES 1kg WHITE 0000001000+00002630+00000+0001T   00002630+0000001327          1400 EL7510               2AZ
220752000220752               220752               170213FH     1400+00000+FH0000012314+0000012314+000000000+000001725+0000014030+0000000009+I20000000000+0000014030+Z
220752001220752496-058426     220752000078257584260POOL CRYSTAL-BLU 147x330000001000+00012279+00000+0001T   00012279+0000001329          1400 EL7787               2AZ
220752002220752112-116038     220752006009681820246TCS CARRIER BAG MIDI   0000001000+00000035+00000+0001T   00000035+0000001329          1400 EL7090               2AZ
220753000220753               220753               170213FH     1400+00000+FH0000001753+0000001753+000000000+000000246+0000001990+0000000009+I20000000000+0000001990+Z
220753001220753047-001337-H   220753006001023429971INS-TAPE 20m BLACK     0000001000+00001753+00000+0001T   00001753+0000001345          1400 EL7880               2AZ
220754000220754               220754               170213FH     1400+00000+FH0000007276+0000007276+000000000+000001020+0000008290+0000000006+I20000000000+0000008290+Z
220754001220754903-000087     220754006001704000161SWT SPECKLED-EGGS 50G  0000001000+00001139+00000+0001T   00001139+0000001350          1400 EL7150               2AZ
220754002220754200-000029     220754006003000593668DISPOSABLE ROLL BAKING 0000001000+00002630+00000+0001T   00002630+0000001350          1400 EL7214               2AZ
220754003220754065-000239     220754006001023400956DRUM "BUM BUM BAND"19cm0000001000+00003507+00000+0001T   00003507+0000001350          1400 EL7745               2AZ
220755000220755               220755               170213FH     1400+00000+FH0000008721+0000008721+000000000+000001224+0000009945+0000000000+I40000009945+0000000000+Z
220755001220755077-000270     220755006003000395453GIFT-BAG PPR JMB 33X45 0000001000+00002630+00000+0001T   00002630+0000001400          1400 EL7112               2AZ
220755002220755089-000027     220755006003000254071KEY CHAIN MOM/DAD ASSTD0000001000+00001753+00000+0001T   00001753+0000001400          1400 EL7205               2AZ
220755003220755903-000183     220755006003000451043SWT LB HEART LOLLY     0000001000+00000393+00000+0001T   00000393+0000001400          1400 EL7150               2AZ
220755004220755080-000127     220755006003000424351VALENTINES DAY 36x24CM 0000001000+00002192+00000+0001T   00002192+0000001400          1400 EL7112               2AZ
220755005220755037-000004     220755006001023763679ASHTRAY PL TUB 8X11CM  0000001000+00001753+00000+0001T   00002192+0008191400          1400 EL7515               2AZ
220756000220756               220756               170213FH     1400+00000+FH0000002629+0000002629+000000000+000000369+0000002990+0000000008+I20000000000+0000002990+Z
220756001220756077-000463     220756006003000321698G/BAG GLITTER MED20x28 0000001000+00002192+00000+0001T   00002192+0000001445          1400 EL7112               2AZ
220756002220756080-000133-A   220756006003000647019MINI VALENTINES CARD   0000001000+00000437+00000+0001T   00000437+0000001445          1400 EL7112               2AZ
220757000220757               220757               170213FH     1400+00000+FH0000000613+0000000613+000000000+000000086+0000000690+0000000009+I20000000000+0000000690+Z
220757001220757077-000311     220757006001023608666GIFT-BAG 11X14CM GLOSS 0000001000+00000613+00000+0001T   00000613+0000001445          1400 EL7112               2AZ
220758000220758               220758               170213FH     1400+00000+FH0000009251+0000009251+000000000+000001299+0000010550+0000000000+I20000000000+0000010550+Z
220758001220758077-000005-B   220758006003000326617PAPER TISSUE PATTERN   0000001000+00002630+00000+0001T   00002630+0000001447          1400 EL7112               2AZ
220758002220758077-000512     220758006003000590223GIFT-BAG DESIGNER LRG  0000001000+00002630+00000+0001T   00002630+0000001447          1400 EL7112               2AZ
220758003220758077-000011-D   220758006001023808554TISSUE-WRAP WHITE 10PCE0000001000+00000876+00000+0001T   00000876+0000001447          1400 EL7112               2AZ
220758004220758077-000005-B   220758006003000326617PAPER TISSUE PATTERN   0000001000+00002630+00000+0001T   00002630+0000001447          1400 EL7112               2AZ
220758005220758080-000133-A   220758006003000647019MINI VALENTINES CARD   0000001000+00000437+00000+0001T   00000437+0000001447          1400 EL7112               2AZ
220758006220758112-116069     220758006009681820277TCS CARRIER BAG JUMBO  0000001000+00000048+00000+0001T   00000048+0000001447          1400 EL7090               2AZ
220759000220759               220759               170213FH     1400+00000+FH0000003191+0000003191+000000000+000000447+0000003630+0000000008+I20000000000+0000003630+Z
220759001220759018-000127     220759006001023380289MUG OCC STRAIGHT LOVE  0000002000+00001578+00000+0001T   00001753+0006471449          1400 EL7515               2AZ
220759002220759112-116038     220759006009681820246TCS CARRIER BAG MIDI   0000001000+00000035+00000+0001T   00000035+0000001449          1400 EL7090               2AZ
220760000220760               220760               170213FH     1400+00000+FH0000003542+0000003542+000000000+000000496+0000004030+0000000008+I20000000000+0000004030+Z
220760001220760018-000130     220760006001023867537MUG OCC LOVE MINI+HEART0000001000+00003507+00000+0001T   00003507+0000001450          1400 EL7515               2AZ
220760002220760112-116038     220760006009681820246TCS CARRIER BAG MIDI   0000001000+00000035+00000+0001T   00000035+0000001450          1400 EL7090               2AZ
220761000220761               220761               170213FH     1400+00000+FH0000005782+0000005782+000000000+000000813+0000006595+0000000000+I40000006595+0000000000+Z
220761001220761903-000183     220761006003000451043SWT LB HEART LOLLY     0000002000+00000393+00000+0001T   00000393+0000001453          1400 EL71501IC            2AZ
220761002220761071-005214     220761006003000152544CELLOTAPE SUPER REFILL 0000001000+00001490+00000+0001T   00001490+0000001453          1400 EL7130               2AZ
220761003220761077-000314     220761006003000181148GIFT-BAG 11X14CM MATT  0000001000+00000876+00000+0001T   00000876+0000001453          1400 EL7112               2AZ
220761004220761077-000005-A   220761006003000326495TISSUE 10xSHT OCCASIONS0000001000+00002630+00000+0001T   00002630+0000001453          1400 EL7112               2AZ
220762000220762               220762               170213FH     1400+00000+FH0000004821+0000004821+000000000+000000675+0000005496+0000000000+I40000005496+0000000000+Z
220762001220762018-005009     220762006001023725608MUG W/PLUSH-BEAR LOVE  0000001000+00003507+00000+0001T   00003507+0000001454          1400 EL7515               2AZ
220762002220762077-000407     220762006003000145096G/BAG PP 19X26X8CM     0000001000+00001314+00000+0001T   00001314+0000001454          1400 EL7112               2AZ
220763000220763               220763               170213FH     1400+00000+FH0000003507+0000003507+000000000+000000491+0000003990+0000000008+I20000000000+0000003990+Z
220763001220763174-008023     220763006001023730695PONCHO 132x203cm TWIN-P0000001000+00003507+00000+0001T   00003507+0000001543          1400 EL7205               2AZ
220764000220764               220764               170213FH     1400+00000+FH0000000700+0000000700+000000000+000000098+0000000790+0000000008+I20000000000+0000000790+Z
220764001220764266-001499     220764006001023624925TOP & STRING 2 PACK    0000001000+00000700+00000+0001T   00000700+0000001558          1400 EL7710               2AZ
220765000220765               220765               170213FH     1400+00000+FH0000000437+0000000437+000000000+000000062+0000000490+0000000009+I20000000000+0000000490+Z
220765001220765080-000133-A   220765006003000647019MINI VALENTINES CARD   0000001000+00000437+00000+0001T   00000437+0000001558          1400 EL7112               2AZ
220766000220766               220766               170213FH     1400+00000+FH0000008771+0000008771+000000000+000001228+0000009990+0000000009+I20000000000+0000009990+Z
220766001220766105-007515     220766006003000487547STORAGE BOX CLEAR 6L   0000001000+00008771+00000+0001T   00008771+0000001619          1400 EL7210               2AZ
220767000220767               220767               170213FH     1400+00000+FH0000012098+0000012098+000000000+000001694+0000013792+0000000000+I40000013792+0000000000+Z
220767001220767903-000194     220767006009826020616SWT CHOC RP LOLLY 25G  0000002000+00001314+00000+0001T   00001314+0000001639          1400 EL7150               2AZ
220767002220767031-000002-A   220767006003000247103P/FRAME LOVE 7.5X7.5CM 0000001000+00003507+00000+0001T   00003507+0000001639          1400 EL7510               2AZ
220767003220767006-000190     220767006003000685530BALLOONS LOVE 81x91cm  0000001000+00004385+00000+0001T   00004385+0000001639          1400 EL7131               2AZ
220767004220767077-000303     220767006001023593757GIFT-BAG PAPER MED     0000001000+00001578+00000+0001T   00001578+0000001639          1400 EL7112               2AZ
220768000220768               220768               170213FH     1400+00000+FH0000009647+0000009647+000000000+000001351+0000010990+0000000008+I20000000000+0000010990+Z
220768001220768368-000151     220768006003000166725PLUSH BEAR 14cm        0000001000+00004385+00000+0001T   00004385+0000001640          1400 EL7745               2AZ
220768002220768368-000171     220768006003000233250PLUSH BEAR 14cm        0000001000+00005262+00000+0001T   00005262+0000001640          1400 EL7745               2AZ
220769000220769               220769               170213FH     1400+00000+FH0000014676+0000014676+000000000+000002057+0000016733+0000000000+I40000016733+0000000000+Z
220769001220769071-005214     220769006003000152544CELLOTAPE SUPER REFILL 0000001000+00001490+00000+0001T   00001490+0000001654          1400 EL7130               2AZ
220769002220769079-012208     220769006001023801081ART + CRAFT SET STAMP  0000001000+00003507+00000+0001T   00003507+0000001654          1400 EL7130               2AZ
220769003220769077-000011     220769006003000542352PAPER RAFFIA ASSTD COL 0000001000+00001753+00000+0001T   00001753+0000001654          1400 EL7112               2AZ
220769004220769007-000602     220769006003000541270BOOK COVER 2M SOLID COL0000001000+00002630+00000+0001T   00002630+0000001654          1400 EL7130               2AZ
220769005220769077-000150-D   220769006003000054343GIFT-WRAP CELLPHANE CLR0000001000+00000876+00000+0001T   00000876+0000001654          1400 EL7112               2AZ
220769006220769112-116038     220769006009681820246TCS CARRIER BAG MIDI   0000001000+00000035+00000+0001T   00000035+0000001654          1400 EL7090               2AZ
220769007220769564-000038     220769006003000470624BUBBLE SPRING 230ml    0000001000+00004385+00000+0001T   00004385+0000001654          1400 EL7131               2AZ
220770000220770               220770               170213FH     1400+00000+FH0000000613+0000000613+000000000+000000086+0000000690+0000000009+I20000000000+0000000690+Z
220770001220770200-000065     220770006001023323675DRINKING-STRAWS 38PCE  0000001000+00000613+00000+0001T   00000613+0000001655          1400 EL7214               2AZ
220771000220771               220771               170213FH     1400+00000+FH0000003507+0000003507+000000000+000000491+0000003990+0000000008+I20000000000+0000003990+Z
220771001220771018-000136     220771006001023659026MUG OCC LOVE W/PLUSH   0000001000+00003507+00000+0001T   00003507+0000001658          1400 EL7515               2AZ
220772000220772               220772               170213FH     1400+00000+FH0000004858+0000004858+000000000+000000681+0000005539+0000000000+I40000005539+0000000000+Z
220772001220772301-085001     220772006003000297610ORN WATERBALL LOVE ASST0000001000+00004823+00000+0001T   00004823+0000001701          1400 EL7505               2AZ
220772002220772112-116038     220772006009681820246TCS CARRIER BAG MIDI   0000001000+00000035+00000+0001T   00000035+0000001701          1400 EL7090               2AZ
220773000220773               220773               170213FH     1400+00000+FH0000000437+0000000437+000000000+000000062+0000000490+0000000009+I20000000000+0000000490+Z
220773001220773080-000133-A   220773006003000647019MINI VALENTINES CARD   0000001000+00000437+00000+0001T   00000437+0000001701          1400 EL7112               2AZ
220774000220774               220774               170213FH     1400+00000+FH0000013154+0000013154+000000000+000001843+0000014997+0000000000+I40000014997+0000000000+Z
220774001220774002-000097     220774006001023489784CAN-OPENER             0000001000+00006139+00000+0001T   00006139+0000001703          1400 EL7300               2AZ
220774002220774037-000004     220774006001023763679ASHTRAY PL TUB 8X11CM  0000001000+00001753+00000+0001T   00002192+0008191703          1400 EL7515               2AZ
220774003220774104-000190     220774006004779016334DISH DRAINER PL ASSTD  0000001000+00005262+00000+0001T   00005262+0000001703          1400 EL7210               2AZ
220775000220775               220775               170213FH     1400+00000+FH0000015217+0000015217+000000000+000002133+0000017350+0000000000+I20000000000+0000017350+Z
220775001220775368-000113     220775006001023780874PLUSH BLINGED LOVE 30cm0000001000+00012279+00000+0001T   00012279+0000001705          1400 EL7745               2AZ
220775002220775903-000194     220775006009826020616SWT CHOC RP LOLLY 25G  0000001000+00001314+00000+0001T   00001314+0000001705          1400 EL7150               2AZ
220775003220775077-000010-C   220775006001023123879CREPE-PAPER RED        0000002000+00000788+00000+0001T   00000788+0000001705          1400 EL7112               2AZ
220775004220775112-116069     220775006009681820277TCS CARRIER BAG JUMBO  0000001000+00000048+00000+0001T   00000048+0000001705          1400 EL7090               2AZ
A17021300                                          07581834FHSLAVE 2                       EL71IC
B22076100                                          170213FH903-000183     14512788SLAVE 2     EL71IC0000022000+0000002000+0000000000000+
M17021301                              IT          FHATTENTION:GLADWYN TROMP                         FROM:ALIWAL NORTH FH                                                                            LAST TILL SLIP NO:220775 (13/02/17)                                                             THANKS                                          DENVER
M17021302                              SHIEHAAM    FHFROM:ALIWAL NORTH FH                                                                            TOTAL BANKING FOR (13/02/17)===R7632.80                                                         THANKS                                          DENVER
M17021391                              CASH        FHSLAVE 2                       Z-REPORT No.   539TOTAL (Sales - Refunds)           4429.99       CASH TO BE BANKED                 2159.00       DEBIT CARDS                          0.00       CREDIT CARDS                      2270.99       Z-READING                         4429.99       AIRTIME DEBIT CARD SALES             0.00       AIRTIME CARD SALES                   0.00       OVERS/UNDERS                         0.00       AIRTIME CASH SALES                   0.00       GIFT CARDS                           0.00       GIFT CARD CASH SALES                 0.00       T O T A L  CASH PAYOUTS              0.00                                                                                                                                                                                                                                                                                                                                                      Z
M17021392                              CASH        FHABSENT                                                                                                                                                                                          ANNUAL LEAVE                                                                                                                                                                                    DAY OFF                                                                                                                                                                                         COMMENTS                                                                                                                                                                                                                                                                                                                                                                                       Z
Y17021300                                          FH00000000393147+000051
ZFH17021319373 SLAVE 2      SALES DATA                     NEXT INVOICE NO.  220776 0539
X FH Slave 2 First invoice 220725 170213 Last invoice 220775 170213 Next invoice 220776 Total number of records 000000201 clbackup completed 19:37:31
