129624000129624               129624               170213FL     1400+00000+FL0000021081+0000021081+000000000+000002958+0000024030+0000000009+I20000000000+0000024030+Z
129624001129624006-000124     129624006003000625888BALLOONS 10PC MIX COL  0000001000+00001753+00000+0001T   00001753+0000000847          1400 GU3131               2AZ
129624002129624006-000200-B   129624006003000096046PARTY GIRL DESIGN 12PCE0000005000+00002630+00000+0001T   00002630+0000000847          1400 GU3131               2AZ
129624003129624112-116069     129624006009681820277TCS CARRIER BAG JUMBO  0000001000+00000048+00000+0001T   00000048+0000000847          1400 GU3090               2AZ
129624004129624006-001000     129624006003000093779HELIUM BALLOON FILL    0000010000+00000613+00000+0001T   00000613+0000000847          1400 GU3131               2AZ
129625000129625               129625               170213FL     1400+00000+FL0000009967+0000009967+000000000+000001405+0000011372+0000000000+I40000011372+0000000000+Z
129625001129625561-000252     129625006003000071173ASST CHILDREN'S BOOKS  0000001000+00001314+00000+0001T   00001753+0008130900          1400 GU3757               2AZ
129625002129625567-010413     129625009780710523280DINO BOARDS BOOKS      0000001000+00001753+00000+0001T   00001753+0000000900          1400 GU3757               2AZ
129625003129625567-010595     129625009781782094784BK READER LITTLE PRESS 0000001000+00001314+00000+0001T   00001753+0008130900          1400 GU3757               2AZ
129625004129625567-010595     129625009781782094821BK READER LITTLE PRESS 0000001000+00001314+00000+0001T   00001753+0008130900          1400 GU3757               2AZ
129625005129625567-004215     129625006003000351275LADYBIRD MAD ABOUT ASST0000001000+00000700+00000+0001T   00000700+0000000900          1400 GU3757               2AZ
129625006129625903-000183     129625006003000451043SWT LB HEART LOLLY     0000009000+00000393+00000+0001T   00000393+0000000900          1400 GU3150               2AZ
129625007129625112-116038     129625006009681820246TCS CARRIER BAG MIDI   0000001000+00000035+00000+0001T   00000035+0000000900          1400 GU3090               2AZ
129626000129626               129626               170213FL     1400+00000+FL0000007012+0000007012+000000000+000000984+0000007990+0000000006+I20000000000+0000007990+Z
129626001129626028-000014     129626006001334001316ICE-BRICK SOLID MEDIUM 0000004000+00001753+00000+0001T   00001753+0000000901          1400 GU3305               2AZ
129627000129627               129627               170213FL     1400+00000+FL0000006303+0000006303+000000000+000000884+0000007180+0000000007+I20000000000+0000007180+Z
129627001129627077-000452     129627006003000284986G/BAG METALLIC MED EMB 0000001000+00001490+00000+0001T   00001490+0000000904          1400 GU3112               2AZ
129627002129627368-000049     129627006003000536955PLUSH BEAR 15cm LOVE   0000001000+00004385+00000+0001T   00004385+0000000904          1400 GU3745               2AZ
129627003129627903-000183     129627006003000451043SWT LB HEART LOLLY     0000001000+00000393+00000+0001T   00000393+0000000904          1400 GU3150               2AZ
129627004129627112-116038     129627006009681820246TCS CARRIER BAG MIDI   0000001000+00000035+00000+0001T   00000035+0000000904          1400 GU3090               2AZ
129628000129628               129628               170213FL     1400+00000+FL0000000876+0000000876+000000000+000000123+0000000990+0000000009+I20000000000+0000000990+Z
129628001129628903-000006     129628006923431571571SWEET GS SOUR BELT 50g 0000001000+00000876+00000+0001T   00000876+0000000927          1400 GU3150               2AZ
129629000129629               129629               170213FL     1400+00000+FL0000002103+0000002103+000000000+000000295+0000002390+0000000008+I20000000000+0000002390+Z
129629001129629306-001002     129629006003000560233PLASTER FABRIC 10PC    0000001000+00001490+00000+0001T   00001490+0000000933          1400 GU3200               2AZ
129629002129629306-000021     129629006001023169433EARBUDS 100PCE IN BAG  0000001000+00000613+00000+0001T   00000613+0000000933          1400 GU3200               2AZ
129630000129630               129630               170213FL     1400+00000+FL0000019164+0000019164+000000000+000002686+0000021850+0000000000+I20000000000+0000021850+Z
129630001129630041-007029     129630006003000178049H/GLO BUBBLE-BATH 2L   0000001000+00006139+00000+0001T   00006139+0000000936          1400 GU3200               2AZ
129630002129630486-001016     129630006001023847416W/CLOCK QTZ PL RND 25CM0000001000+00008771+00000+0001T   00008771+0000000936          1400 GU3510               2AZ
129630003129630112-116069     129630006009681820277TCS CARRIER BAG JUMBO  0000001000+00000048+00000+0001T   00000048+0000000936          1400 GU3090               2AZ
129630004129630046-000011     129630004897006172994BATTERIES SIZE:AA  2PCE0000003000+00001402+00000+0001T   00001402+0000000936          1400 GU3312               2AZ
129631000129631               129631               170213FL     1400+00000+FL0000000035+0000000035+000000000+000000005+0000000040+0000000000+I20000000000+0000000040+Z
129631001129631112-116038     129631006009681820246TCS CARRIER BAG MIDI   0000001000+00000035+00000+0001T   00000035+0000000938          1400 GU3090               2AZ
129632000129632               129632               170213FL     1400+00000+FL0000003506+0000003506+000000000+000000492+0000003990+0000000008+I20000000000+0000003990+Z
129632001129632038-047250     129632006001023816009PLACE MAT ASSORTED     0000002000+00001753+00000+0001T   00001753+0000000942          1400 GU3300               2AZ
129633000129633               129633               170213FL     1400+00000+FL0000019379+0000019379+000000000+000002714+0000022090+0000000003+I20000000000+0000022090+Z
129633001129633368-000049     129633006003000536955PLUSH BEAR 15cm LOVE   0000003000+00004385+00000+0001T   00004385+0000000949          1400 GU3745               2AZ
129633002129633077-000303     129633006001023593757GIFT-BAG PAPER MED     0000003000+00001578+00000+0001T   00001578+0000000949          1400 GU3112               2AZ
129633003129633077-000299     129633006003000395576G/BAG 32x25cm LRG LOVE 0000001000+00001490+00000+0001T   00001490+0000000949          1400 GU3112               2AZ
129634000129634               129634               170213FL     1400+00000+FL0000016258+0000016258+000000000+000002277+0000018535+0000000000+I40000018535+0000000000+Z
129634001129634077-000384     129634006003000275243G/BAG HOT STMP 18x23CM 0000001000+00001490+00000+0001T   00001490+0000000951          1400 GU3112               2AZ
129634002129634077-000303     129634006001023593757GIFT-BAG PAPER MED     0000001000+00001578+00000+0001T   00001578+0000000951          1400 GU3112               2AZ
129634003129634031-080508     129634006001023802415P/FRAME PL 22X11CM LOVE0000001000+00004385+00000+0001T   00004385+0000000951          1400 GU3510               2AZ
129634004129634368-000049     129634006003000536955PLUSH BEAR 15cm LOVE   0000002000+00004385+00000+0001T   00004385+0000000951          1400 GU3745               2AZ
129634005129634112-116038     129634006009681820246TCS CARRIER BAG MIDI   0000001000+00000035+00000+0001T   00000035+0000000951          1400 GU3090               2AZ
129635000129635               129635               170213FL     1400+00000+FL0000008769+0000008769+000000000+000001229+0000009990+0000000008+I20000000000+0000009990+Z
129635001129635019-071603     129635006001023772039RIVER-STONES 1kg PEACH 0000001000+00002630+00000+0001T   00002630+0000000951          1400 GU3510               2AZ
129635002129635051-600638     129635006003000421909PLANTER W/TRAY 50x21x140000001000+00006139+00000+0001T   00006139+0000000951          1400 GU3820               2AZ
129636000129636               129636               170213FL     1400+00000+FL0000013854+0000013854+000000000+000001941+0000015795+0000000000+I10000005795+0000010000+Z
129636001129636080-000124     129636006003000297733CARD & ENV VALENTINES  0000001000+00001578+00000+0001T   00001578+0000000955          1400 GU3112               2AZ
129636002129636077-000382     129636006003000247820GIFT-BAG MED 18X23CM   0000002000+00001753+00000+0001T   00001753+0000000955          1400 GU3112               2AZ
129636003129636368-000049     129636006003000536955PLUSH BEAR 15cm LOVE   0000002000+00004385+00000+0001T   00004385+0000000955          1400 GU3745               2AZ
129637000129637               129637               170213FL     1400+00000+FL0000012759+0000012759+000000000+000001788+0000014540+0000000007+I20000000000+0000014540+Z
129637001129637072-020266     129637006003000400591PET PUPPY TRAINING PAD 0000001000+00003507+00000+0001T   00003507+0000001002          1400 GU3870               2AZ
129637002129637072-020252     129637006003000452200PET DOG TOY RUBBER BONE0000001000+00003507+00000+0001T   00003507+0000001002          1400 GU3870               2AZ
129637003129637206-000120     129637006003000628308PEELER CARROT SHARPENER0000001000+00001753+00000+0001T   00001753+0000001002          1400 GU3321               2AZ
129637004129637072-020366     129637006003000452927PET PLACE MAT ASSTD COL0000001000+00002630+00000+0001T   00002630+0000001002          1400 GU3870               2AZ
129637005129637077-000385     129637006003000275366G/BAG GLITTER 18x23CM  0000001000+00001314+00000+0001T   00001314+0000001002          1400 GU3112               2AZ
129637006129637112-116069     129637006009681820277TCS CARRIER BAG JUMBO  0000001000+00000048+00000+0001T   00000048+0000001002          1400 GU3090               2AZ
129638000129638               129638               170213FL     1400+00000+FL0000001753+0000001753+000000000+000000246+0000001990+0000000009+I20000000000+0000001990+Z
129638001129638079-003000     129638006003000448838A/TUBE 75ML WHITE      0000001000+00001753+00000+0001T   00001753+0000001004          1400 GU3130               2AZ
129639000129639               129639               170213FL     1400+00000+FL0000005262+0000005262+000000000+000000737+0000005990+0000000009+I20000000000+0000005990+Z
129639001129639051-043090     129639006001023881823SHEARS PRUNING 200mm   0000001000+00005262+00000+0001T   00005262+0000001009          1400 GU3820               2AZ
129640000129640               129640               170213FL     1400+00000+FL0000002663+0000002663+000000000+000000373+0000003030+0000000006+I20000000000+0000003030+Z
129640001129640006-000166-D   129640006003000516490BALLOONS LRG 6PC RED   0000002000+00001314+00000+0001T   00001314+0000001017          1400 GU3131               2AZ
129640002129640112-116038     129640006009681820246TCS CARRIER BAG MIDI   0000001000+00000035+00000+0001T   00000035+0000001017          1400 GU3090               2AZ
129641000129641               129641               170213FL     1400+00000+FL0000006139+0000006139+000000000+000000860+0000006990+0000000009+I20000000000+0000006990+Z
129641001129641567-075497     129641009780799369526BK NOVEL ROMANCE AFR   0000001000+00006139+00000+0001T   00006139+0000001019          1400 GU3757               2AZ
129642000129642               129642               170213FL     1400+00000+FL0000005031+0000005031+000000000+000000706+0000005737+0000000000+I40000005737+0000000000+Z
129642001129642108-003021     129642006003000343911MUG SUPER SIPPER 450ml 0000001000+00002630+00000+0001T   00002630+0000001029          1400 GU3210               2AZ
129642002129642079-000512     129642006001023635853CRAYONS WAX 12-COLOUR  0000001000+00001490+00000+0001T   00001490+0000001029          1400 GU3130               2AZ
129642003129642567-014132     129642006003000560028BOOK COLOURING 24 PAGE 0000001000+00000876+00000+0001T   00000876+0000001029          1400 GU3757               2AZ
129642004129642112-116038     129642006009681820246TCS CARRIER BAG MIDI   0000001000+00000035+00000+0001T   00000035+0000001029          1400 GU3090               2AZ
129643000129643               129643               170213FL     1400+00000+FL0000001307-0000001307-000000000+000000183-0000001490-0000000000+I20000000000+0000001490-Z
129643001129643001-999906     129643000000000999906STATIONERY(PHOTOCOPIES)0000001000-00001307+00000+0001T   00000000+0000001033          1400 GU39063IC            2 Z
129644000129644               129644               170213FL     1400+00000+FL0000021961+0000021961+000000000+000003076+0000025037+0000000000+I40000025037+0000000000+Z
129644001129644361-000698     129644006003000654031DOLL BABY 28cm SOFT    0000001000+00011402+00000+0001T   00011402+0000001036          1400 GU3725               2AZ
129644002129644361-000112     129644006003000660261DOLL RAG 30cm          0000001000+00005262+00000+0001T   00005262+0000001036          1400 GU3725               2AZ
129644003129644361-000113     129644006001023680204DOLL 30cm RAG          0000001000+00005262+00000+0001T   00005262+0000001036          1400 GU3725               2AZ
129644004129644112-116038     129644006009681820246TCS CARRIER BAG MIDI   0000001000+00000035+00000+0001T   00000035+0000001036          1400 GU3090               2AZ
129645000129645               129645               170213FL     1400+00000+FL0000005262+0000005262+000000000+000000737+0000005990+0000000009+I20000000000+0000005990+Z
129645001129645267-000903     129645006003000636013PUZZLE WOOD JIGSAW 3PGS0000001000+00005262+00000+0001T   00005262+0000001209          1400 GU3755               2AZ
129646000129646               129646               170213FL     1400+00000+FL0000003284+0000003284+000000000+000000462+0000003740+0000000006+I20000000000+0000003740+Z
129646001129646077-000302     129646008010410010195GIFT-BAG 18X23CM E/D   0000001000+00000876+00000+0001T   00000876+0000001212          1400 GU3112               2AZ
129646002129646018-000127     129646006001023380289MUG OCC STRAIGHT LOVE  0000001000+00001578+00000+0001T   00001753+0006471212          1400 GU3515               2AZ
129646003129646080-000133-A   129646006003000647019MINI VALENTINES CARD   0000001000+00000437+00000+0001T   00000437+0000001212          1400 GU3112               2AZ
129646004129646903-000183     129646006003000451043SWT LB HEART LOLLY     0000001000+00000393+00000+0001T   00000393+0000001212          1400 GU3150               2AZ
129647000129647               129647               170213FL     1400+00000+FL0000022658+0000022658+000000000+000003174+0000025832+0000000000+I40000025832+0000000000+Z
129647001129647262-000700     129647006003000013319DIE CAST 7PC FARM PLAY 0000001000+00007016+00000+0001T   00007016+0000001215          1400 GU3710               2AZ
129647002129647564-000012     129647006001023130075BUBBLE BOTTLE MAGIC    0000001000+00000700+00000+0001T   00000700+0000001215          1400 GU3131               2AZ
129647003129647903-000070     129647006001704001106SWT TOFFEE CREAMY 35g  0000001000+00000700+00000+0001T   00000700+0000001215          1400 GU3150               2AZ
129647004129647567-075700     129647006003000339389BOOK NOVEL 3-PACK ASSTD0000001000+00013157+00000+0001T   00013157+0000001215          1400 GU3757               2AZ
129647005129647903-000151     129647006009803374411SWT SML RND R/BOW LOLLY0000002000+00000525+00000+0001T   00000525+0000001215          1400 GU3150               2AZ
129647006129647112-116038     129647006009681820246TCS CARRIER BAG MIDI   0000001000+00000035+00000+0001T   00000035+0000001215          1400 GU3090               2AZ
129648000129648               129648               170213FL     1400+00000+FL0000004715+0000004715+000000000+000000661+0000005370+0000000006+I20000000000+0000005370+Z
129648001129648018-000127     129648006001023380289MUG OCC STRAIGHT LOVE  0000002000+00001578+00000+0001T   00001753+0006471226          1400 GU3515               2AZ
129648002129648304-001011     129648006001023806727FLWR ROSE RED W/BEAR   0000001000+00000613+00000+0001T   00000788+0006471226          1400 GU3510               2AZ
129648003129648077-000302     129648008010410010195GIFT-BAG 18X23CM E/D   0000001000+00000876+00000+0001T   00000876+0000001226          1400 GU3112               2AZ
129648004129648112-116038     129648006009681820246TCS CARRIER BAG MIDI   0000002000+00000035+00000+0001T   00000035+0000001226          1400 GU3090               2AZ
129649000129649               129649               170213FL     1400+00000+FL0000001752+0000001752+000000000+000000246+0000001990+0000000008+I20000000000+0000001990+Z
129649001129649077-000408     129649006003000145218G/BAG PP 15X21X7CM     0000002000+00000876+00000+0001T   00000876+0000001226          1400 GU3112               2AZ
129650000129650               129650               170213FL     1400+00000+FL0000003507+0000003507+000000000+000000491+0000003990+0000000008+I20000000000+0000003990+Z
129650001129650562-000520     129650006003000112777EDU BLOCKS WDN ALPHABET0000001000+00003507+00000+0001T   00003507+0000001227          1400 GU3755               2AZ
129651000129651               129651               170213FL     1400+00000+FL0000013266+0000013266+000000000+000001860+0000015126+0000000000+I40000015126+0000000000+Z
129651001129651567-011000     129651009780007865192BOOK CHILDREN'S READER 0000001000+00001314+00000+0001T   00001753+0008131229          1400 GU3757               2AZ
129651002129651368-000049     129651006003000536955PLUSH BEAR 15cm LOVE   0000001000+00004385+00000+0001T   00004385+0000001229          1400 GU3745               2AZ
129651003129651077-000452     129651006003000284986G/BAG METALLIC MED EMB 0000001000+00001490+00000+0001T   00001490+0000001229          1400 GU3112               2AZ
129651004129651903-000194     129651006009826020616SWT CHOC RP LOLLY 25G  0000004000+00001314+00000+0001T   00001314+0000001229          1400 GU3150               2AZ
129651005129651903-000183     129651006003000451043SWT LB HEART LOLLY     0000002000+00000393+00000+0001T   00000393+0000001229          1400 GU3150               2AZ
129651006129651112-116038     129651006009681820246TCS CARRIER BAG MIDI   0000001000+00000035+00000+0001T   00000035+0000001229          1400 GU3090               2AZ
129652000129652               129652               170213FL     1400+00000+FL0000007677+0000007677+000000000+000001076+0000008750+0000000003+I20000000000+0000008750+Z
129652001129652077-000299     129652006003000395576G/BAG 32x25cm LRG LOVE 0000001000+00001490+00000+0001T   00001490+0000001242          1400 GU3112               2AZ
129652002129652018-050000     129652006003000412679MUG OCC LOVE TWIN BEAR 0000001000+00006139+00000+0001T   00006139+0000001242          1400 GU3515               2AZ
129652003129652112-116069     129652006009681820277TCS CARRIER BAG JUMBO  0000001000+00000048+00000+0001T   00000048+0000001242          1400 GU3090               2AZ
129653000129653               129653               170213FL     1400+00000+FL0000002630+0000002630+000000000+000000369+0000002990+0000000009+I20000000000+0000002990+Z
129653001129653466-072725     129653006001023622532YO-YO PL               0000001000+00002630+00000+0001T   00002630+0000001246          1400 GU3785               2AZ
129654000129654               129654               170213FL     1400+00000+FL0000001753+0000001753+000000000+000000246+0000001990+0000000009+I20000000000+0000001990+Z
129654001129654078-000030     129654006003000151141YAMAYO SUPERGLUE 8g    0000001000+00001753+00000+0001T   00001753+0000001304          1400 GU3810               2AZ
129655000129655               129655               170213FL     1400+00000+FL0000010553+0000010553+000000000+000001481+0000012034+0000000000+I40000012034+0000000000+Z
129655001129655903-000215     129655006002099001214SWT GS MALLOW TWIST PAC0000001000+00001753+00000+0001T   00001753+0000001307          1400 GU3150               2AZ
129655002129655009-001308     129655006001023854636MELAMINE FLOWER BOWL   0000005000+00001753+00000+0001T   00001753+0000001307          1400 GU3210               2AZ
129655003129655112-116038     129655006009681820246TCS CARRIER BAG MIDI   0000001000+00000035+00000+0001T   00000035+0000001307          1400 GU3090               2AZ
129656000129656               129656               170213FL     1400+00000+FL0000001490+0000001490+000000000+000000209+0000001690+0000000009+I20000000000+0000001690+Z
129656001129656077-000299     129656006003000395576G/BAG 32x25cm LRG LOVE 0000001000+00001490+00000+0001T   00001490+0000001308          1400 GU3112               2AZ
129657000129657               129657               170213FL     1400+00000+FL0000015815+0000015815+000000000+000002219+0000018030+0000000004+I20000000000+0000018030+Z
129657001129657082-000388     129657006001023774385SPECT-CASE SPRING-CLOSE0000006000+00002630+00000+0001T   00002630+0000001310          1400 GU3160               2AZ
129657002129657112-116038     129657006009681820246TCS CARRIER BAG MIDI   0000001000+00000035+00000+0001T   00000035+0000001310          1400 GU3090               2AZ
129658000129658               129658               170213FL     1400+00000+FL0000004120+0000004120+000000000+000000577+0000004690+0000000007+I20000000000+0000004690+Z
129658001129658018-000136     129658006001023659026MUG OCC LOVE W/PLUSH   0000001000+00003507+00000+0001T   00003507+0000001311          1400 GU3515               2AZ
129658002129658304-001011     129658006001023806727FLWR ROSE RED W/BEAR   0000001000+00000613+00000+0001T   00000788+0006471311          1400 GU3510               2AZ
129659000129659               129659               170213FL     1400+00000+FL0000000525+0000000525+000000000+000000074+0000000590+0000000009+I20000000000+0000000590+Z
129659001129659027-000010-B   129659006009635020104SHOE-BRUSH BLACK       0000001000+00000525+00000+0001T   00000525+0000001316          1400 GU3212               2AZ
129660000129660               129660               170213FL     1400+00000+FL0000009642+0000009642+000000000+000001352+0000010990+0000000004+I20000000000+0000010990+Z
129660001129660304-001204     129660006001023737984FLOWER OCC. TEDDY/ROSES0000001000+00001402+00000+0001T   00001490+0006471318          1400 GU3510               2AZ
129660002129660080-000113     129660006003000237449CARD&ENVLPE - LOVE     0000001000+00001753+00000+0001T   00001753+0000001318          1400 GU3112               2AZ
129660003129660018-000136     129660006001023659026MUG OCC LOVE W/PLUSH   0000001000+00003507+00000+0001T   00003507+0000001318          1400 GU3515               2AZ
129660004129660077-000299     129660006003000395576G/BAG 32x25cm LRG LOVE 0000002000+00001490+00000+0001T   00001490+0000001318          1400 GU3112               2AZ
129661000129661               129661               170213FL     1400+00000+FL0000003944+0000003944+000000000+000000553+0000004490+0000000007+I20000000000+0000004490+Z
129661001129661018-000127     129661006001023380289MUG OCC STRAIGHT LOVE  0000001000+00001578+00000+0001T   00001753+0006471320          1400 GU3515               2AZ
129661002129661080-000113     129661006003000237449CARD&ENVLPE - LOVE     0000001000+00001753+00000+0001T   00001753+0000001320          1400 GU3112               2AZ
129661003129661304-001011     129661006001023806727FLWR ROSE RED W/BEAR   0000001000+00000613+00000+0001T   00000788+0006471320          1400 GU3510               2AZ
129662000129662               129662               170213FL     1400+00000+FL0000011450+0000011450+000000000+000001604+0000013054+0000000000+I40000013054+0000000000+Z
129662001129662040-000103     129662000694202201862C/HOLDER-SET 5PC W/TRAY0000001000+00011402+00000+0001T   00013157+0008191322          1400 GU3510               2AZ
129662002129662112-116069     129662006009681820277TCS CARRIER BAG JUMBO  0000001000+00000048+00000+0001T   00000048+0000001322          1400 GU3090               2AZ
129663000129663               129663               170213FL     1400+00000+FL0000023640-0000023640-000000000+000003310-0000026950-0000000000+I20000000000+0000026950-Z
129663001129663001-999906     129663000000000999906STATIONERY(PHOTOCOPIES)0000001000-00023640+00000+0001T   00000000+0000001323          1400 GU39063IC            2 Z
129664000129664               129664               170213FL     1400+00000+FL0000009984+0000009984+000000000+000001400+0000011380+0000000004+I20000000000+0000011380+Z
129664001129664006-000166-C   129664006003000516377BALLOONS LRG 6PC PINK  0000001000+00001314+00000+0001T   00001314+0000001333          1400 GU3131               2AZ
129664002129664006-000166-F   129664006003000516735BALLOONS LRG 6PC PURPLE0000001000+00001314+00000+0001T   00001314+0000001333          1400 GU3131               2AZ
129664003129664006-001000     129664006003000093779HELIUM BALLOON FILL    0000012000+00000613+00000+0001T   00000613+0000001333          1400 GU3131               2AZ
129665000129665               129665               170213FL     1400+00000+FL0000003462+0000003462+000000000+000000486+0000003940+0000000008+I20000000000+0000003940+Z
129665001129665103-000072     129665006001023618238BASKET RECT 25x16x6cm  0000001000+00003069+00000+0001T   00003069+0000001338          1400 GU3300               2AZ
129665002129665903-000183     129665006003000451043SWT LB HEART LOLLY     0000001000+00000393+00000+0001T   00000393+0000001338          1400 GU3150               2AZ
129666000129666               129666               170213FL     1400+00000+FL0000002630+0000002630+000000000+000000369+0000002990+0000000009+I20000000000+0000002990+Z
129666001129666567-011911     129666009780799375442BK EDU VOORSPRONG AFR  0000001000+00002630+00000+0001T   00002630+0000001339          1400 GU3757               2AZ
129667000129667               129667               170213FL     1400+00000+FL0000007016+0000007016+000000000+000000983+0000007999+0000000000+I40000007999+0000000000+Z
129667001129667174-000305     129667006003000105502TRAVEL NECK-PILLOW     0000001000+00007016+00000+0001T   00007016+0000001341          1400 GU3205               2AZ
129668000129668               129668               170213FL     1400+00000+FL0000005873+0000005873+000000000+000000823+0000006690+0000000006+I20000000000+0000006690+Z
129668001129668033-000600     129668006003000365098HAIR-BRUSH 23cm VENT   0000001000+00003069+00000+0001T   00003069+0000001341          1400 GU3200               2AZ
129668002129668046-000012     129668006904708013062BATTERIES AA  CARD-OF-40000001000+00001314+00000+0001T   00001314+0000001341          1400 GU3312               2AZ
129668003129668077-000299     129668006003000395576G/BAG 32x25cm LRG LOVE 0000001000+00001490+00000+0001T   00001490+0000001341          1400 GU3112               2AZ
129669000129669               129669               170213FL     1400+00000+FL0000011572+0000011572+000000000+000001623+0000013195+0000000000+I40000013195+0000000000+Z
129669001129669077-000302     129669008010410010195GIFT-BAG 18X23CM E/D   0000001000+00000876+00000+0001T   00000876+0000001345          1400 GU3112               2AZ
129669002129669304-001011     129669006001023806727FLWR ROSE RED W/BEAR   0000001000+00000613+00000+0001T   00000788+0006471345          1400 GU3510               2AZ
129669003129669301-085001     129669006003000297610ORN WATERBALL LOVE ASST0000001000+00004823+00000+0001T   00004823+0000001345          1400 GU3505               2AZ
129669004129669031-086219-B   129669006001023808875P/FRAME 10x15cm CURVED 0000002000+00002630+00000+0001T   00002630+0000001345          1400 GU3510               2AZ
129670000129670               129670               170213FL     1400+00000+FL0000003945+0000003945+000000000+000000553+0000004490+0000000008+I20000000000+0000004490+Z
129670001129670089-060027     129670006003000245871KEY-CHAIN HEART 6X6cm  0000001000+00003069+00000+0001T   00003069+0000001345          1400 GU3205               2AZ
129670002129670077-000302     129670008010410010195GIFT-BAG 18X23CM E/D   0000001000+00000876+00000+0001T   00000876+0000001345          1400 GU3112               2AZ
129671000129671               129671               170213FL     1400+00000+FL0000003507+0000003507+000000000+000000491+0000003990+0000000008+I20000000000+0000003990+Z
129671001129671012-000002     129671006003000331079MICRO PLATE-COVER 26X9 0000001000+00003507+00000+0001T   00003507+0000001346          1400 GU3300               2AZ
129672000129672               129672               170213FL     1400+00000+FL0000019501+0000019501+000000000+000002732+0000022230+0000000003+I20000000000+0000022230+Z
129672001129672301-085007     129672006003000673698ORN OCC. LOVE S/PLAQUE 0000001000+00007893+00000+0001T   00007893+0000001348          1400 GU3505               2AZ
129672002129672368-000152     129672006003000166886PLUSH BEAR 15cm        0000001000+00003946+00000+0001T   00005262+0008141348          1400 GU3745               2AZ
129672003129672304-001011     129672006001023806727FLWR ROSE RED W/BEAR   0000001000+00000613+00000+0001T   00000788+0006471348          1400 GU3510               2AZ
129672004129672018-005009     129672006001023725608MUG W/PLUSH-BEAR LOVE  0000001000+00003507+00000+0001T   00003507+0000001348          1400 GU3515               2AZ
129672005129672018-000130     129672006001023867537MUG OCC LOVE MINI+HEART0000001000+00003507+00000+0001T   00003507+0000001348          1400 GU3515               2AZ
129672006129672112-116038     129672006009681820246TCS CARRIER BAG MIDI   0000001000+00000035+00000+0001T   00000035+0000001348          1400 GU3090               2AZ
129673000129673               129673               170213FL     1400+00000+FL0000007190+0000007190+000000000+000001007+0000008190+0000000007+I20000000000+0000008190+Z
129673001129673150-000774     129673006005387000234UTILITY-BOX MEDIUM     0000002000+00000964+00000+0001T   00000964+0000001352          1400 GU3810               2AZ
129673002129673150-000773     129673006001023681065TACKLE-BOX 18-SECTION  0000001000+00005262+00000+0001T   00005262+0000001352          1400 GU3810               2AZ
129674000129674               129674               170213FL     1400+00000+FL0000003541+0000003541+000000000+000000497+0000004030+0000000008+I20000000000+0000004030+Z
129674001129674365-000001     129674006003000395262PLAY SET DOCTORS SET   0000002000+00001753+00000+0001T   00001753+0000001358          1400 GU3725               2AZ
129674002129674112-116038     129674006009681820246TCS CARRIER BAG MIDI   0000001000+00000035+00000+0001T   00000035+0000001358          1400 GU3090               2AZ
129675000129675               129675               170213FL     1400+00000+FL0000002146+0000002146+000000000+000000302+0000002448+0000000000+I40000002448+0000000000+Z
129675001129675365-000001     129675006003000395262PLAY SET DOCTORS SET   0000001000+00001753+00000+0001T   00001753+0000001400          1400 GU3725               2AZ
129675002129675903-000183     129675006003000451043SWT LB HEART LOLLY     0000001000+00000393+00000+0001T   00000393+0000001400          1400 GU3150               2AZ
129676000129676               129676               170213FL     1400+00000+FL0000014250+0000014250+000000000+000001997+0000016240+0000000007+I20000000000+0000016240+Z
129676001129676077-000380     129676006003000247585GIFT-BAG 33X45CM S/COL 0000001000+00002455+00000+0001T   00002455+0000001401          1400 GU3112               2AZ
129676002129676368-000637     129676006001023874092PLUSH BEAR SLEEPING LOV0000001000+00011402+00000+0001T   00012279+0006471401          1400 GU3745               2AZ
129676003129676903-000183     129676006003000451043SWT LB HEART LOLLY     0000001000+00000393+00000+0001T   00000393+0000001401          1400 GU3150               2AZ
129677000129677               129677               170213FL     1400+00000+FL0000012527+0000012527+000000000+000001755+0000014282+0000000000+I40000014282+0000000000+Z
129677001129677018-000127     129677006001023380289MUG OCC STRAIGHT LOVE  0000001000+00001578+00000+0001T   00001753+0006471407          1400 GU3515               2AZ
129677002129677112-116038     129677006009681820246TCS CARRIER BAG MIDI   0000001000+00000035+00000+0001T   00000035+0000001407          1400 GU3090               2AZ
129677003129677903-000183     129677006003000451043SWT LB HEART LOLLY     0000001000+00000393+00000+0001T   00000393+0000001407          1400 GU3150               2AZ
129677004129677567-011426     129677009780799372939BK REASER EK LEES SELF 0000003000+00003507+00000+0001T   00003507+0000001407          1400 GU3757               2AZ
129678000129678               129678               170213FL     1400+00000+FL0000003507+0000003507+000000000+000000491+0000003990+0000000008+I20000000000+0000003990+Z
129678001129678018-000136     129678006001023659026MUG OCC LOVE W/PLUSH   0000001000+00003507+00000+0001T   00003507+0000001413          1400 GU3515               2AZ
129679000129679               129679               170213FL     1400+00000+FL0000007890+0000007890+000000000+000001106+0000008990+0000000006+I20000000000+0000008990+Z
129679001129679200-000012     129679006003000399536BAG 50PCE 165x146mm    0000001000+00003507+00000+0001T   00003507+0000001413          1400 GU3214               2AZ
129679002129679200-000031-A   129679006003000598717DISPOSABLE ROLL FOIL   0000001000+00002630+00000+0001T   00002630+0000001413          1400 GU3214               2AZ
129679003129679077-000330     129679006001023745408GIFT-BAG 18X23CM WEDGE 0000001000+00001753+00000+0001T   00001753+0000001413          1400 GU3112               2AZ
129680000129680               129680               170213FL     1400+00000+FL0000004645+0000004645+000000000+000000651+0000005296+0000000000+I40000005296+0000000000+Z
129680001129680079-006500     129680006001023557186GLUE GLITTER 6/10 PCE  0000001000+00001753+00000+0001T   00001753+0000001415          1400 GU3130               2AZ
129680002129680566-000359     129680006003000582709STICKER BOOK LOVE SPARK0000001000+00002192+00000+0001T   00002192+0000001415          1400 GU3130               2AZ
129680003129680903-000070     129680006001704001106SWT TOFFEE CREAMY 35g  0000001000+00000700+00000+0001T   00000700+0000001415          1400 GU3150               2AZ
129681000129681               129681               170213FL     1400+00000+FL0000032394+0000032394+000000000+000004540+0000036934+0000000000+I40000036934+0000000000+Z
129681001129681027-009027     129681006003000235803BROOM FLAT 1.2m HANDLE 0000001000+00004385+00000+0001T   00004385+0000001419          1400 GU3212               2AZ
129681002129681133-003245     129681006003000419074IRON BRD COVER 122x38cm0000001000+00006139+00000+0001T   00006139+0000001419          1400 GU3212               2AZ
129681003129681104-000036     129681006003000501038BASKET W/HANGER HOOK   0000001000+00002192+00000+0001T   00002192+0000001419          1400 GU3210               2AZ
129681004129681108-009020-B   129681006005387000067SALAD SML W/LID ASSTD-C0000004000+00001314+00000+0001T   00001314+0000001419          1400 GU3210               2AZ
129681005129681159-002369     129681006001023999191TOOTHBRUSH HOLDER PL 3 0000002000+00002630+00000+0001T   00002630+0000001419          1400 GU3200               2AZ
129681006129681306-000012     129681006003000366330T/BRUSH SET 4PC ORAL   0000001000+00002630+00000+0001T   00002630+0000001419          1400 GU3200               2AZ
129681007129681159-000684     129681006001023776532BATH BODY-GLOVE 18cm   0000001000+00002630+00000+0001T   00002630+0000001419          1400 GU3200               2AZ
129681008129681150-004030-H   129681006001023435798BATH-PLUG RUBBER WHITE 0000002000+00000613+00000+0001T   00000613+0000001419          1400 GU3810               2AZ
129681009129681046-000012     129681006904708013062BATTERIES AA  CARD-OF-40000002000+00001314+00000+0001T   00001314+0000001419          1400 GU3312               2AZ
129681010129681112-116069     129681006009681820277TCS CARRIER BAG JUMBO  0000001000+00000048+00000+0001T   00000048+0000001419          1400 GU3090               2AZ
129682000129682               129682               170213FL     1400+00000+FL0000002192+0000002192+000000000+000000307+0000002490+0000000009+I20000000000+0000002490+Z
129682001129682251-000002     129682006003000093991TAPE D-SIDED 24x1000mm 0000001000+00002192+00000+0001T   00002192+0000001443          1400 GU3810               2AZ
129683000129683               129683               170213FL     1400+00000+FL0000002184-0000002184-000000000+000000306-0000002490-0000000000+I20000000000+0000002490-Z
129683001129683001-999906     129683000000000999906STATIONERY(PHOTOCOPIES)0000001000-00002184+00000+0001T   00000000+0000001444          1400 GU39063IC            2 Z
129684000129684               129684               170213FL     1400+00000+FL0000021960+0000021960+000000000+000003076+0000025036+0000000000+I40000025036+0000000000+Z
129684001129684368-000111     129684006001023780812PLUSH BEAR/DOG 29CM    0000001000+00012279+00000+0001T   00012279+0000001514          1400 GU3745               2AZ
129684002129684301-000013     129684006001023781604ORN SENTIMENT STONE 4-A0000001000+00006139+00000+0001T   00006139+0000001514          1400 GU3505               2AZ
129684003129684089-000018     129684006003000176724KEY CHAIN INSPIRATION  0000001000+00003507+00000+0001T   00003507+0000001514          1400 GU3205               2AZ
129684004129684112-116038     129684006009681820246TCS CARRIER BAG MIDI   0000001000+00000035+00000+0001T   00000035+0000001514          1400 GU3090               2AZ
129685000129685               129685               170213FL     1400+00000+FL0000001051+0000001051+000000000+000000148+0000001190+0000000009+I20000000000+0000001190+Z
129685001129685079-009702-D   129685008427973059354PAPER SIRIO A2 RED COL 0000001000+00001051+00000+0001T   00001051+0000001515          1400 GU3130               2AZ
129686000129686               129686               170213FL     1400+00000+FL0000003243+0000003243+000000000+000000455+0000003698+0000000000+I40000003698+0000000000+Z
129686001129686077-000010-C   129686006001023123879CREPE-PAPER RED        0000001000+00000788+00000+0001T   00000788+0000001517          1400 GU3112               2AZ
129686002129686077-000380     129686006003000247585GIFT-BAG 33X45CM S/COL 0000001000+00002455+00000+0001T   00002455+0000001517          1400 GU3112               2AZ
129687000129687               129687               170213FL     1400+00000+FL0000002452+0000002452+000000000+000000345+0000002797+0000000000+I40000002797+0000000000+Z
129687001129687080-000124     129687006003000297733CARD & ENV VALENTINES  0000001000+00001578+00000+0001T   00001578+0000001554          1400 GU3112               2AZ
129687002129687903-000885     129687008690997017147SWT L/BIRD CHOC BISCUIT0000002000+00000437+00000+0001T   00000437+0000001554          1400 GU3150               2AZ
129688000129688               129688               170213FL     1400+00000+FL0000005645+0000005645+000000000+000000792+0000006437+0000000000+I40000006437+0000000000+Z
129688001129688903-000090     129688006009826020821SWT GS CHOCO COINS 60g 0000001000+00002104+00000+0001T   00002104+0000001556          1400 GU3150               2AZ
129688002129688903-000610     129688006003000610518SWEET JUMBO BUBBLE GUM 0000001000+00001753+00000+0001T   00001753+0000001556          1400 GU3150               2AZ
129688003129688564-000025     129688006003000617104BUBBLE NOVELTY         0000001000+00001753+00000+0001T   00001753+0000001556          1400 GU3131               2AZ
129688004129688112-116038     129688006009681820246TCS CARRIER BAG MIDI   0000001000+00000035+00000+0001T   00000035+0000001556          1400 GU3090               2AZ
129689000129689               129689               170213FL     1400+00000+FL0000002934+0000002934+000000000+000000413+0000003340+0000000007+I20000000000+0000003340+Z
129689001129689089-000004     129689006003000137749KEY CHAIN MTL CHARMS   0000001000+00001753+00000+0001T   00001753+0000001557          1400 GU3205               2AZ
129689002129689077-000383     129689006003000247943GIFT-BAG 11X14CM S/COL 0000001000+00000788+00000+0001T   00000788+0000001557          1400 GU3112               2AZ
129689003129689903-000183     129689006003000451043SWT LB HEART LOLLY     0000001000+00000393+00000+0001T   00000393+0000001557          1400 GU3150               2AZ
129690000129690               129690               170213FL     1400+00000+FL0000008154+0000008154+000000000+000001142+0000009290+0000000006+I20000000000+0000009290+Z
129690001129690080-000124     129690006003000297733CARD & ENV VALENTINES  0000001000+00001578+00000+0001T   00001578+0000001557          1400 GU3112               2AZ
129690002129690072-000350     129690006003000304882PET CAT TOY PLUSH W/BEL0000001000+00003069+00000+0001T   00003069+0000001557          1400 GU3870               2AZ
129690003129690072-020278     129690006003000024100PET CAT LITTER PAN PL  0000001000+00003507+00000+0001T   00003507+0000001557          1400 GU3870               2AZ
129691000129691               129691               170213FL     1400+00000+FL0000005658+0000005658+000000000+000000793+0000006451+0000000000+I40000006451+0000000000+Z
129691001129691077-000304     129691006001023483232GIFT-BAG 25X32CM E/DAY 0000001000+00001490+00000+0001T   00001490+0000001600          1400 GU3112               2AZ
129691002129691018-000136     129691006001023659026MUG OCC LOVE W/PLUSH   0000001000+00003507+00000+0001T   00003507+0000001600          1400 GU3515               2AZ
129691003129691304-001011     129691006001023806727FLWR ROSE RED W/BEAR   0000001000+00000613+00000+0001T   00000788+0006471600          1400 GU3510               2AZ
129691004129691112-116069     129691006009681820277TCS CARRIER BAG JUMBO  0000001000+00000048+00000+0001T   00000048+0000001600          1400 GU3090               2AZ
129692000129692               129692               170213FL     1400+00000+FL0000004734+0000004734+000000000+000000663+0000005390+0000000007+I20000000000+0000005390+Z
129692001129692018-000136     129692006001023659026MUG OCC LOVE W/PLUSH   0000001000+00003507+00000+0001T   00003507+0000001626          1400 GU3515               2AZ
129692002129692077-000322     129692006001023677532GIFT-BAG 18X23CM E/D FL0000001000+00001227+00000+0001T   00001227+0000001626          1400 GU3112               2AZ
129693000129693               129693               170213FL     1400+00000+FL0000010261+0000010261+000000000+000001437+0000011698+0000000000+I40000011698+0000000000+Z
129693001129693001-091415     129693006003000329113W/GLS OCC. LOVE 2PC 2800000001000+00008771+00000+0001T   00009648+0006471634          1400 GU3515               2AZ
129693002129693077-000304     129693006001023483232GIFT-BAG 25X32CM E/DAY 0000001000+00001490+00000+0001T   00001490+0000001634          1400 GU3112               2AZ
129694000129694               129694               170213FL     1400+00000+FL0000002630-0000002630-000000000+000000369-0000000000+0000000000+ 00000000000+0000000000+Z
129694001129694046-000011-A   129694006003000438891BATTERIES SIZE:AA  4PCE0000001000-00002630+00000+0001T   00002630+000000              1400 GU33121IC            2 Z
129695000129695               129695               170213FL     1400+00000+FL0000005038+0000005038+000000000+000000708+0000005746+0000000000+I40000005746+0000000000+Z
129695001129695077-000452     129695006003000284986G/BAG METALLIC MED EMB 0000001000+00001490+00000+0001T   00001490+0000001637          1400 GU3112               2AZ
129695002129695046-000011-A   129695006003000438891BATTERIES SIZE:AA  4PCE0000001000+00002630+00000+0001T   00002630+0000001637          1400 GU3312               2AZ
129695003129695903-000155     129695006009803374435SWT LOLLY I LUV U HEART0000001000+00000525+00000+0001T   00000525+0000001637          1400 GU3150               2AZ
129695004129695903-000183     129695006003000451043SWT LB HEART LOLLY     0000001000+00000393+00000+0001T   00000393+0000001637          1400 GU3150               2AZ
129696000129696               129696               170213FL     1400+00000+FL0000001753+0000001753+000000000+000000246+0000001990+0000000009+I20000000000+0000001990+Z
129696001129696566-000865     129696006001023788412STICKER ASSTD          0000001000+00001753+00000+0001T   00001753+0000001637          1400 GU3130               2AZ
129697000129697               129697               170213FL     1400+00000+FL0000001753+0000001753+000000000+000000246+0000001990+0000000009+I20000000000+0000001990+Z
129697001129697362-019269     129697006001023752659HAIR ACCESS SET CARDED 0000001000+00001753+00000+0001T   00001753+0000001638          1400 GU3160               2AZ
129698000129698               129698               170213FL     1400+00000+FL0000009775+0000009775+000000000+000001371+0000011146+0000000000+I40000011146+0000000000+Z
129698001129698264-000922     129698000090159250012MAISTO CAR PULL-BACK   0000001000+00006139+00000+0001T   00007016+0008191639          1400 GU3710               2AZ
129698002129698077-000299     129698006003000395576G/BAG 32x25cm LRG LOVE 0000001000+00001490+00000+0001T   00001490+0000001639          1400 GU3112               2AZ
129698003129698077-000316     129698006001023609731GIFT-BAG 25X32CM MATT  0000001000+00001753+00000+0001T   00001753+0000001639          1400 GU3112               2AZ
129698004129698903-000183     129698006003000451043SWT LB HEART LOLLY     0000001000+00000393+00000+0001T   00000393+0000001639          1400 GU3150               2AZ
129699000129699               129699               170213FL     1400+00000+FL0000007749+0000007749+000000000+000001087+0000008836+0000000000+I40000008836+0000000000+Z
129699001129699262-000415     129699006003000013265DIE CAST TRANSPORTERS  0000002000+00002630+00000+0001T   00002630+0000001643          1400 GU3710               2AZ
129699002129699251-000041     129699006001023515889SEAL-TAPE BUFF 48mmx50m0000002000+00001227+00000+0001T   00001227+0000001643          1400 GU3810               2AZ
129699003129699112-116038     129699006009681820246TCS CARRIER BAG MIDI   0000001000+00000035+00000+0001T   00000035+0000001643          1400 GU3090               2AZ
129700000129700               129700               170213FL     1400+00000+FL0000003069+0000003069+000000000+000000430+0000003490+0000000009+I20000000000+0000003490+Z
129700001129700200-000168     129700006003000577026PICNIC PLATTERS 8-PACK 0000001000+00003069+00000+0001T   00003069+0000001643          1400 GU3214               2AZ
129701000129701               129701               170213FL     1400+00000+FL0000009679+0000009679+000000000+000001357+0000011030+0000000006+I20000000000+0000011030+Z
129701001129701030-000031-A   129701006003000457588PLAQUE W/WORDS ASSTD   0000001000+00004385+00000+0001T   00004823+0006471645          1400 GU3505               2AZ
129701002129701018-000170     129701006001023775528MUG OCC. LOVE 2PC MINI 0000001000+00002192+00000+0001T   00002192+0000001645          1400 GU3515               2AZ
129701003129701366-006103     129701006001023786944DRESS UP FACE PAINT SET0000001000+00002630+00000+0001T   00002630+0000001645          1400 GU3131               2AZ
129701004129701112-116038     129701006009681820246TCS CARRIER BAG MIDI   0000001000+00000035+00000+0001T   00000035+0000001645          1400 GU3090               2AZ
129701005129701903-000885     129701008690997017147SWT L/BIRD CHOC BISCUIT0000001000+00000437+00000+0001T   00000437+0000001645          1400 GU3150               2AZ
129702000129702               129702               170213FL     1400+00000+FL0000003050+0000003050+000000000+000000433+0000003483+0000000000+I40000003483+0000000000+Z
129702001129702903-000151     129702006009803374411SWT SML RND R/BOW LOLLY0000002000+00000525+00000+0001T   00000525+0000001647          1400 GU3150               2AZ
129702002129702903-000183     129702006003000451043SWT LB HEART LOLLY     0000005000+00000393+00000+0001T   00000393+0000001647          1400 GU3150               2AZ
129702003129702112-116038     129702006009681820246TCS CARRIER BAG MIDI   0000001000+00000035+00000+0001T   00000035+0000001647          1400 GU3090               2AZ
129703000129703               129703               170213FL     1400+00000+FL0000005820+0000005820+000000000+000000816+0000006636+0000000000+I40000006636+0000000000+Z
129703001129703031-000002-A   129703006003000247103P/FRAME LOVE 7.5X7.5CM 0000001000+00003507+00000+0001T   00003507+0000001651          1400 GU3510               2AZ
129703002129703903-000138     129703006002099004314SWT GS WINE GUMS 60G   0000001000+00000788+00000+0001T   00000788+0000001651          1400 GU3150               2AZ
129703003129703077-000452     129703006003000284986G/BAG METALLIC MED EMB 0000001000+00001490+00000+0001T   00001490+0000001651          1400 GU3112               2AZ
129703004129703112-116038     129703006009681820246TCS CARRIER BAG MIDI   0000001000+00000035+00000+0001T   00000035+0000001651          1400 GU3090               2AZ
129704000129704               129704               170213FL     1400+00000+FL0000002630+0000002630+000000000+000000369+0000002990+0000000009+I20000000000+0000002990+Z
129704001129704027-009025     129704006003962000747DUSTPAN-SET PL         0000001000+00002630+00000+0001T   00002630+0000001651          1400 GU3212               2AZ
129705000129705               129705               170213FL     1400+00000+FL0000021925+0000021925+000000000+000003071+0000024990+0000000006+I20000000000+0000024990+Z
129705001129705031-006542     129705006003000222698P/FRAME WDN.THICK 20X250000001000+00008771+00000+0001T   00008771+0000001656          1400 GU3510               2AZ
129705002129705028-000026     129705006001023810847COOLER-BAG+POCKET NYLON0000001000+00009648+00000+0001T   00009648+0000001656          1400 GU3305               2AZ
129705003129705077-000299-A   129705006003000670888GIFT-BAG PAPER JMB LOVE0000001000+00001753+00000+0001T   00001753+0000001656          1400 GU3112               2AZ
129705004129705903-000211     129705006002099001238SWT GS MALLOW ICE CREAM0000001000+00001753+00000+0001T   00001753+0000001656          1400 GU3150               2AZ
129706000129706               129706               170213FL     1400+00000+FL0000006434+0000006434+000000000+000000902+0000007336+0000000000+I40000007336+0000000000+Z
129706001129706018-005009     129706006001023725608MUG W/PLUSH-BEAR LOVE  0000001000+00003507+00000+0001T   00003507+0000001706          1400 GU3515               2AZ
129706002129706304-001204     129706006001023737984FLOWER OCC. TEDDY/ROSES0000001000+00001402+00000+0001T   00001490+0006471706          1400 GU3510               2AZ
129706003129706077-000452     129706006003000284986G/BAG METALLIC MED EMB 0000001000+00001490+00000+0001T   00001490+0000001706          1400 GU3112               2AZ
129706004129706112-116038     129706006009681820246TCS CARRIER BAG MIDI   0000001000+00000035+00000+0001T   00000035+0000001706          1400 GU3090               2AZ
129707000129707               129707               170213FL     1400+00000+FL0000004383+0000004383+000000000+000000614+0000004990+0000000007+I20000000000+0000004990+Z
129707001129707018-000136     129707006001023659026MUG OCC LOVE W/PLUSH   0000001000+00003507+00000+0001T   00003507+0000001708          1400 GU3515               2AZ
129707002129707077-000302     129707008010410010195GIFT-BAG 18X23CM E/D   0000001000+00000876+00000+0001T   00000876+0000001708          1400 GU3112               2AZ
129708000129708               129708               170213FL     1400+00000+FL0000005173+0000005173+000000000+000000725+0000000000+0000000000+ 00000000000+0000000000+Z
129708001129708031-000848     129708006001023851901P/FRAME COLLAGE 2ASSTD 0000001000+00004385+00000+0001T   00004385+000000              1400 GU35102IC            2 Z
129708002129708903-000200     129708006009826020234SWT CHOC RP CHOCO 23G  0000001000+00000788+00000+0001T   00000788+000000              1400 GU31502IC            2 Z
129709000129709               129709               170213FL     1400+00000+FL0000008331+0000008331+000000000+000001167+0000009490+0000000008+I20000000000+0000009490+Z
129709001129709001-000420     129709006003000591169BEER-MUG GLS JOKE G/BOX0000001000+00006139+00000+0001T   00006139+0000001717          1400 GU3515               2AZ
129709002129709077-000463     129709006003000321698G/BAG GLITTER MED20x28 0000001000+00002192+00000+0001T   00002192+0000001717          1400 GU3112               2AZ
129710000129710               129710               170213FL     1400+00000+FL0000006174+0000006174+000000000+000000865+0000007030+0000000009+I20000000000+0000007030+Z
129710001129710018-050000     129710006003000412679MUG OCC LOVE TWIN BEAR 0000001000+00006139+00000+0001T   00006139+0000001718          1400 GU3515               2AZ
129710002129710112-116038     129710006009681820246TCS CARRIER BAG MIDI   0000001000+00000035+00000+0001T   00000035+0000001718          1400 GU3090               2AZ
129711000129711               129711               170213FL     1400+00000+FL0000008849+0000008849+000000000+000001242+0000010090+0000000001+I20000000000+0000010090+Z
129711001129711077-000151     129711006008766114676GIFT-WRAP C/PHANE ASSTD0000001000+00000876+00000+0001T   00000876+0000001719          1400 GU3112               2AZ
129711002129711903-000843     129711008693029031067SWT GUMMY JELAXY 80G   0000001000+00000964+00000+0001T   00000964+0000001719          1400 GU3150               2AZ
129711003129711903-000151     129711006009803374411SWT SML RND R/BOW LOLLY0000002000+00000525+00000+0001T   00000525+0000001719          1400 GU3150               2AZ
129711004129711903-000094     129711006923431501622SWT GS CANDY NECKLACE  0000002000+00000437+00000+0001T   00000437+0000001719          1400 GU3150               2AZ
129711005129711031-000848     129711006001023851901P/FRAME COLLAGE 2ASSTD 0000001000+00004385+00000+0001T   00004385+0000001719          1400 GU3510               2AZ
129711006129711903-000159     129711006003000417629SWT LB SMALL DUMMIE    0000002000+00000350+00000+0001T   00000350+0000001719          1400 GU3150               2AZ
129712000129712               129712               170213FL     1400+00000+FL0000006173+0000006173+000000000+000000865+0000007030+0000000008+I20000000000+0000007030+Z
129712001129712903-003080     129712005907029004673SWT SNACK STIX CHOC 50g0000001000+00000876+00000+0001T   00000876+0000001725          1400 GU3150               2AZ
129712002129712018-019000     129712006003000557288MUG OCC. LOVE JUMBO    0000001000+00005262+00000+0001T   00005262+0000001725          1400 GU3515               2AZ
129712003129712112-116038     129712006009681820246TCS CARRIER BAG MIDI   0000001000+00000035+00000+0001T   00000035+0000001725          1400 GU3090               2AZ
129713000129713               129713               170213FL     1400+00000+FL0000000874+0000000874+000000000+000000124+0000000990+0000000008+I20000000000+0000000990+Z
129713001129713080-000133-A   129713006003000647019MINI VALENTINES CARD   0000002000+00000437+00000+0001T   00000437+0000001726          1400 GU3112               2AZ
129714000129714               129714               170213FL     1400+00000+FL0000000876+0000000876+000000000+000000123+0000000990+0000000009+I20000000000+0000000990+Z
129714001129714903-003080     129714005907029004673SWT SNACK STIX CHOC 50g0000001000+00000876+00000+0001T   00000876+0000001727          1400 GU3150               2AZ
129715000129715               129715               170213FL     1400+00000+FL0000000876+0000000876+000000000+000000123+0000000990+0000000009+I20000000000+0000000990+Z
129715001129715903-003080     129715005907029004673SWT SNACK STIX CHOC 50g0000001000+00000876+00000+0001T   00000876+0000001728          1400 GU3150               2AZ
129716000129716               129716               170213FL     1400+00000+FL0000001227+0000001227+000000000+000000172+0000001390+0000000009+I20000000000+0000001390+Z
129716001129716077-000245     129716006001023759214GIFT-RIBBON METALLICx2 0000001000+00001227+00000+0001T   00001227+0000001729          1400 GU3112               2AZ
M17021301                              IT          FLTO IT                                                                                           SLAVE 1:LAST TILL SLIP NO:111457                                                                SLAVE 2:LAST TILL SLIP NO:129716                                                                REGARDS                                         JACQUES
M17021302                              SHIEHAAM    FLTO SHIEHAAM                                                                                     BANKING                                                                                         SLAVE 1:CASH R3619.40  R1906.65                                                                 SLAVE 2:CASH R3957.60  R3119.76                                                                 REGARDS                                         JACQUES
M17021391                              CASH        FLSLAVE 2                       Z-REPORT No.   561TOTAL (Sales - Refunds)           7386.66       CASH TO BE BANKED                 3957.60       DEBIT CARDS                          0.00       CREDIT CARDS                      3119.76       Z-READING                         7077.36       AIRTIME DEBIT CARD SALES             0.00       AIRTIME CARD SALES                   0.00       OVERS/UNDERS                         0.00       AIRTIME CASH SALES                   0.00       GIFT CARDS                           0.00       GIFT CARD CASH SALES                 0.00       STATIONERY(PHOTOCOPIES)            309.30       T O T A L  CASH PAYOUTS            309.30                                                                                                                                                                                                                                                                                                      Z
M17021392                              CASH        FLABSENT                                                                                                                                                                                          ANNUAL LEAVE                                                                                                                                                                                    DAY OFF                                                                                                                                                                                         COMMENTS                                                                                                                                                                                                                                                                                                                                                                                       Z
Y17021300                                          FL00000000648220+000088
ZFL17021319383 SLAVE 2      SALES DATA                     NEXT INVOICE NO.  129717 0561
X FL Slave 2 First invoice 129624 170213 Last invoice 129716 170213 Next invoice 129717 Total number of records 000000343 clbackup completed 19:38:07
