505981000505981               505981               170213FO     1400+00000+FO0000029600+0000029600+000000000+000004147+0000033747+0000000000+I40000033747+0000000000+Z
505981001505981112-116069     505981006009681820277TCS CARRIER BAG JUMBO  0000001000+00000048+00000+0001T   00000048+0000000920          1400 OU5090               1BZ
505981002505981263-000802     505981006003000548002TRUCK FRIC INCL 2 RACER0000001000+00005262+00000+0001T   00005262+0000000920          1400 OU5710               1BZ
505981003505981204-000100     505981006003000621989MEMO HOLDER SPEECH 3PCE0000001000+00003069+00000+0001T   00003069+0000000920          1400 OU5300               1BZ
505981004505981072-020302     505981006001023858818PET-DOG STICK/RING 24cm0000001000+00002630+00000+0001T   00002630+0000000920          1400 OU5870               1BZ
505981005505981200-000092     505981006003000576739PICNIC PAPER PLATES 23c0000001000+00001227+00000+0001T   00001227+0000000920          1400 OU5214               1BZ
505981006505981562-001043     505981006003000478200NUMBERS&ALPHABET MAGNET0000001000+00006139+00000+0001T   00006139+0000000920          1400 OU5755               1BZ
505981007505981077-000315     505981006003000181186GIFT-BAG 20x28cm MATT  0000001000+00001578+00000+0001T   00001578+0000000920          1400 OU5112               1BZ
505981008505981072-020262     505981006003000305254PET DOG-CHEW TYRE LARGE0000001000+00004385+00000+0001T   00004385+0000000920          1400 OU5870               1BZ
505981009505981065-003642     505981006003000396405GUITAR ROCKER 2 TONE   0000001000+00005262+00000+0001T   00005262+0000000920          1400 OU5745               1BZ
505982000505982               505982               170213FO     1400+00000+FO0000008765+0000008765+000000000+000001230+0000009990+0000000005+I20000000000+0000009990+Z
505982001505982200-003024     505982006001023657299REFUSE BAGS 20PCE BLACK0000005000+00001753+00000+0001T   00001753+0000000921          1400 OU5214               1BZ
505983000505983               505983               170213FO     1400+00000+FO0000005960+0000005960+000000000+000000836+0000006790+0000000006+I20000000000+0000006790+Z
505983001505983251-000040     505983006001023515865SEALTAPE CLEAR 48mmx50m0000001000+00001227+00000+0001T   00001227+0000000925          1400 OU5810               1BZ
505983002505983466-000515     505983006001023477408BALLS TENNIS BAG-OF-3  0000001000+00002630+00000+0001T   00002630+0000000925          1400 OU5785               1BZ
505983003505983071-010481     505983006001023417220MAGNIFYING-GLASS 90mm-D0000001000+00001753+00000+0001T   00001753+0000000925          1400 OU5130               1BZ
505983004505983007-000104     505983006009685854865BK COVER BRWN KRFT ROLL0000001000+00000350+00000+0001T   00000350+0000000925          1400 OU5130               1BZ
505984000505984               505984               170213FO     1400+00000+FO0000022143+0000022143+000000000+000003105+0000025248+0000000000+I40000025248+0000000000+Z
505984001505984105-007410     505984006003000629671CONTAINER MINI 300ml   0000001000+00002630+00000+0001T   00003507+0008170929          1400 OU5210               1BZ
505984002505984105-007550     505984008696287302535STORAGE BOX CLEAR NICHE0000001000+00007016+00000+0001T   00007016+0000000929          1400 OU5210               1BZ
505984003505984104-000131     505984006003000676996BASKET/ORGANISER ROUND 0000001000+00002630+00000+0001T   00002630+0000000929          1400 OU5210               1BZ
505984004505984150-000770     505984006005387000128UTILITY BOX MEGA       0000001000+00003244+00000+0001T   00003244+0000000929          1400 OU5810               1BZ
505984005505984105-003028     505984006003000666928CONTAINER RECT 25x21cm 0000001000+00003069+00000+0001T   00003069+0000000929          1400 OU5210               1BZ
505984006505984200-003024     505984006001023657299REFUSE BAGS 20PCE BLACK0000002000+00001753+00000+0001T   00001753+0000000929          1400 OU5214               1BZ
505984007505984112-116069     505984006009681820277TCS CARRIER BAG JUMBO  0000001000+00000048+00000+0001T   00000048+0000000929          1400 OU5090               1BZ
505985000505985               505985               170213FO     1400+00000+FO0000002102+0000002102+000000000+000000296+0000002390+0000000008+I20000000000+0000002390+Z
505985001505985079-009702-A   505985008427973059408PAPER SIRIO A2 BLACK   0000002000+00001051+00000+0001T   00001051+0000000930          1400 OU5130               1BZ
505986000505986               505986               170213FO     1400+00000+FO0000006001+0000006001+000000000+000000845+0000006840+0000000006+I20000000000+0000006840+Z
505986001505986306-000024-A   505986006003000577309COTTON-WOOL-PADS 80PC  0000001000+00001753+00000+0001T   00001753+0000000938          1400 OU5200               1BZ
505986002505986112-116069     505986006009681820277TCS CARRIER BAG JUMBO  0000001000+00000048+00000+0001T   00000048+0000000938          1400 OU5090               1BZ
505986003505986903-000155     505986006009803374435SWT LOLLY I LUV U HEART0000008000+00000525+00000+0001T   00000525+0000000938          1400 OU5150               1BZ
505987000505987               505987               170213FO     1400+00000+FO0000007061+0000007061+000000000+000000991+0000008052+0000000000+I40000008052+0000000000+Z
505987001505987079-013032     505987006003000389209SET LETTERS 2 ASSTD    0000001000+00001753+00000+0001T   00001753+0000001001          1400 OU5130               1BZ
505987002505987007-000049     505987006003000274994OFFICE E/LOPE A4 PK 5  0000002000+00002630+00000+0001T   00002630+0000001001          1400 OU5130               1BZ
505987003505987112-116069     505987006009681820277TCS CARRIER BAG JUMBO  0000001000+00000048+00000+0001T   00000048+0000001001          1400 OU5090               1BZ
505988000505988               505988               170213FO     1400+00000+FO0000002630+0000002630+000000000+000000369+0000002990+0000000009+I20000000000+0000002990+Z
505988001505988034-078810     505988006001023856838DIAPER DISPOSE-BAGSx1000000001000+00002630+00000+0001T   00002630+0000001004          1400 OU5215               1BZ
505989000505989               505989               170213FO     1400+00000+FO0000006403-0000006403-000000000+000000897-0000007300-0000000000+I20000000000+0000007300-Z
505989001505989001-999910     505989000000000999910POSTAGE                0000001000-00006403+00000+0001T   00000000+0000001017          1400 OU59102IC            1 Z
505990000505990               505990               170213FO     1400+00000+FO0000001752+0000001752+000000000+000000246+0000001990+0000000008+I20000000000+0000001990+Z
505990001505990077-000151     505990006008766114676GIFT-WRAP C/PHANE ASSTD0000002000+00000876+00000+0001T   00000876+0000001020          1400 OU5112               1BZ
505991000505991               505991               170213FO     1400+00000+FO0000002630+0000002630+000000000+000000369+0000002990+0000000009+I20000000000+0000002990+Z
505991001505991077-000235     505991006003000160211GIFT-RIBBON ROLL METALC0000001000+00002630+00000+0001T   00002630+0000001020          1400 OU5112               1BZ
505992000505992               505992               170213FO     1400+00000+FO0000005297+0000005297+000000000+000000742+0000006030+0000000009+I20000000000+0000006030+Z
505992001505992301-002040     505992006001023722324ORN SEA BOAT/LIFERING  0000001000+00005262+00000+0001T   00005262+0000001027          1400 OU5505               1BZ
505992002505992112-116038     505992006009681820246TCS CARRIER BAG MIDI   0000001000+00000035+00000+0001T   00000035+0000001027          1400 OU5090               1BZ
505993000505993               505993               170213FO     1400+00000+FO0000005745+0000005745+000000000+000000806+0000006551+0000000000+I40000006551+0000000000+Z
505993001505993112-116069     505993006009681820277TCS CARRIER BAG JUMBO  0000001000+00000048+00000+0001T   00000048+0000001031          1400 OU5090               1BZ
505993002505993077-000150-D   505993006003000054343GIFT-WRAP CELLPHANE CLR0000001000+00000876+00000+0001T   00000876+0000001031          1400 OU5112               1BZ
505993003505993077-000151     505993006008766114676GIFT-WRAP C/PHANE ASSTD0000001000+00000876+00000+0001T   00000876+0000001031          1400 OU5112               1BZ
505993004505993103-000072     505993006001023618238BASKET RECT 25x16x6cm  0000001000+00003069+00000+0001T   00003069+0000001031          1400 OU5300               1BZ
505993005505993077-000011-D   505993006001023808554TISSUE-WRAP WHITE 10PCE0000001000+00000876+00000+0001T   00000876+0000001031          1400 OU5112               1BZ
505994000505994               505994               170213FO     1400+00000+FO0000007937+0000007937+000000000+000001113+0000009050+0000000000+I20000000000+0000009050+Z
505994001505994251-000001     505994006001023487681TAPE DBL-SIDE 18x1000mm0000001000+00001314+00000+0001T   00001314+0000001037          1400 OU5810               1BZ
505994002505994078-000026     505994006936198407090SUPERGLUE 3,0g GEL     0000001000+00001753+00000+0001T   00001753+0000001037          1400 OU5810               1BZ
505994003505994079-013102     505994006003000019601ART+CRAFT DIY PIPE-CLNR0000001000+00002192+00000+0001T   00002192+0000001037          1400 OU5130               1BZ
505994004505994200-000208     505994006003000293728BAKING ALUM FOIL 5PCE  0000001000+00002630+00000+0001T   00002630+0000001037          1400 OU5214               1BZ
505994005505994112-116069     505994006009681820277TCS CARRIER BAG JUMBO  0000001000+00000048+00000+0001T   00000048+0000001037          1400 OU5090               1BZ
505995000505995               505995               170213FO     1400+00000+FO0000000700+0000000700+000000000+000000098+0000000790+0000000008+I20000000000+0000000790+Z
505995001505995018-000177     505995006001023797513MUG MINI LOVE ASSTD    0000001000+00000700+00000+0001T   00000700+0000001038          1400 OU5515               1BZ
505996000505996               505996               170213FO     1400+00000+FO0000002100+0000002100+000000000+000000294+0000002390+0000000004+I20000000000+0000002390+Z
505996001505996018-000177     505996006001023797513MUG MINI LOVE ASSTD    0000003000+00000700+00000+0001T   00000700+0000001039          1400 OU5515               1BZ
505997000505997               505997               170213FO     1400+00000+FO0000002800+0000002800+000000000+000000392+0000003190+0000000002+I20000000000+0000003190+Z
505997001505997018-000177     505997006001023797513MUG MINI LOVE ASSTD    0000004000+00000700+00000+0001T   00000700+0000001045          1400 OU5515               1BZ
505998000505998               505998               170213FO     1400+00000+FO0000001753+0000001753+000000000+000000246+0000001990+0000000009+I20000000000+0000001990+Z
505998001505998566-000865     505998006001023788412STICKER ASSTD          0000001000+00001753+00000+0001T   00001753+0000001052          1400 OU5130               1BZ
505999000505999               505999               170213FO     1400+00000+FO0000000525+0000000525+000000000+000000074+0000000590+0000000009+I20000000000+0000000590+Z
505999001505999903-000155     505999006009803374435SWT LOLLY I LUV U HEART0000001000+00000525+00000+0001T   00000525+0000001052          1400 OU5150               1BZ
506000000506000               506000               170213FO     1400+00000+FO0000007892+0000007892+000000000+000001106+0000008990+0000000008+I20000000000+0000008990+Z
506000001506000056-065302     506000006001023759566CAR SUN-SHIELD ALM-FOIL0000001000+00002630+00000+0001T   00002630+0000001113          1400 OU5860               1BZ
506000002506000056-065300     506000006001023625854CAR SUNSHIELD ALUM FOIL0000001000+00005262+00000+0001L   00005262+0000001113          1400 OU5860               1BZ
506001000506001               506001               170213FO     1400+00000+FO0000003945+0000003945+000000000+000000553+0000004490+0000000008+I20000000000+0000004490+Z
506001001506001903-003051     506001008024431008703SWT CHOCO PARTY 25G    0000001000+00000876+00000+0001T   00000876+0000001138          1400 OU5150               1BZ
506001002506001089-000205     506001006003000485963KEY CHAIN LEATHER W/ZIP0000001000+00003069+00000+0001T   00003069+0000001138          1400 OU5205               1BZ
506002000506002               506002               170213FO     1400+00000+FO0000001402+0000001402+000000000+000000197+0000001590+0000000009+I20000000000+0000001590+Z
506002001506002046-000011     506002004897006172994BATTERIES SIZE:AA  2PCE0000001000+00001402+00000+0001T   00001402+0000001141          1400 OU5312               1BZ
506003000506003               506003               170213FO     1400+00000+FO0000008594+0000008594+000000000+000001204+0000009790+0000000008+I20000000000+0000009790+Z
506003001506003077-000303     506003006001023593757GIFT-BAG PAPER MED     0000001000+00001578+00000+0001T   00001578+0000001142          1400 OU5112               1BZ
506003002506003041-093000     506003006003000320882B/GIFT SET 4PC B/RANGE 0000001000+00007016+00000+0001T   00007016+0000001142          1400 OU5200               1BZ
506004000506004               506004               170213FO     1400+00000+FO0000000700+0000000700+000000000+000000098+0000000790+0000000008+I20000000000+0000000790+Z
506004001506004018-000177     506004006001023797513MUG MINI LOVE ASSTD    0000001000+00000700+00000+0001T   00000700+0000001143          1400 OU55152IC            1BZ
506005000506005               506005               170213FO     1400+00000+FO0000011926+0000011926+000000000+000001672+0000013590+0000000008+I20000000000+0000013590+Z
506005001506005079-000600     506005006003000160990ART-SHEETS FOAM ASSTD-C0000002000+00003507+00000+0001T   00003507+0000001145          1400 OU5130               1BZ
506005002506005071-000012     506005006001177101006CHALK COLOUR 12PCE     0000001000+00000481+00000+0001T   00000481+0000001145          1400 OU5130               1BZ
506005003506005071-001124     506005006001023802873MARKERS WHITEBOARD 3PCE0000001000+00002630+00000+0001T   00002630+0000001145          1400 OU5130               1BZ
506005004506005079-000275     506005006003000160488PAINT-BRUSHES 6PCE PRO 0000001000+00001753+00000+0001T   00001753+0000001145          1400 OU5130               1BZ
506005005506005112-116069     506005006009681820277TCS CARRIER BAG JUMBO  0000001000+00000048+00000+0001T   00000048+0000001145          1400 OU5090               1BZ
506006000506006               506006               170213FO     1400+00000+FO0000001314+0000001314+000000000+000000184+0000001498+0000000000+I40000001498+0000000000+Z
506006001506006077-000310     506006006001023608635GIFT-BAG 18X23CM GLOSS 0000001000+00001314+00000+0001T   00001314+0000001147          1400 OU5112               1BZ
506007000506007               506007               170213FO     1400+00000+FO0000003069+0000003069+000000000+000000430+0000003499+0000000000+I40000003499+0000000000+Z
506007001506007464-000107     506007000073854318089PLAY-CARDS 2nd (SINGLE)0000001000+00003069+00000+0001T   00003069+0000001200          1400 OU5785               1BZ
506008000506008               506008               170213FO     1400+00000+FO0000001753+0000001753+000000000+000000246+0000001990+0000000009+I20000000000+0000001990+Z
506008001506008077-000289     506008006001023901996GIFT BOX 20x25x11cm    0000001000+00001753+00000+0001T   00001753+0000001200          1400 OU5112               1BZ
506009000506009               506009               170213FO     1400+00000+FO0000002630+0000002630+000000000+000000369+0000002999+0000000000+I40000002999+0000000000+Z
506009001506009077-000115-B   506009006003000181025GIFT-WRAP PPR 700MMX2M 0000001000+00002630+00000+0001T   00002630+0000001305          1400 OU5112               1BZ
506010000506010               506010               170213FO     1400+00000+FO0000004383+0000004383+000000000+000000615+0000004990+0000000008+I20000000000+0000004990+Z
506010001506010077-000289     506010006001023901996GIFT BOX 20x25x11cm    0000001000+00001753+00000+0001T   00001753+0000001316          1400 OU5112               1BZ
506010002506010565-000040     506010006008766115635NOVELTY ICON BEANIE    0000001000+00002630+00000+0001T   00002630+0000001316          1400 OU5745               1BZ
506011000506011               506011               170213FO     1400+00000+FO0000001753+0000001753+000000000+000000246+0000001990+0000000009+I20000000000+0000001990+Z
506011001506011046-000014-A   506011004897006177708BATTERIES SIZE:AAA 8PCE0000001000+00001753+00000+0001T   00001753+0000001317          1400 OU5312               1BZ
506012000506012               506012               170213FO     1400+00000+FO0000002630+0000002630+000000000+000000369+0000002990+0000000009+I20000000000+0000002990+Z
506012001506012030-000007     506012006001023527325PLAQUE WDN B/BOARD ASST0000001000+00002630+00000+0001T   00002630+0000001325          1400 OU5505               1BZ
506013000506013               506013               170213FO     1400+00000+FO0000013593+0000013593+000000000+000001904+0000015490+0000000007+I20000000000+0000015490+Z
506013001506013079-006518     506013006003000647378ART+CRAFT FABRIC MARKER0000001000+00003069+00000+0001T   00003069+0000001326          1400 OU5130               1BZ
506013002506013105-007805     506013006002923018920STORAGE BOX CLEAR 9.5L 0000002000+00005262+00000+0001T   00005262+0000001326          1400 OU5210               1BZ
506014000506014               506014               170213FO     1400+00000+FO0000002276+0000002276+000000000+000000319+0000002590+0000000005+I20000000000+0000002590+Z
506014001506014903-000070     506014006001704001106SWT TOFFEE CREAMY 35g  0000002000+00000700+00000+0001T   00000700+0000001327          1400 OU5150               1BZ
506014002506014077-000314     506014006003000181148GIFT-BAG 11X14CM MATT  0000001000+00000876+00000+0001T   00000876+0000001327          1400 OU5112               1BZ
506015000506015               506015               170213FO     1400+00000+FO0000001753+0000001753+000000000+000000246+0000001990+0000000009+I20000000000+0000001990+Z
506015001506015077-000299-A   506015006003000670888GIFT-BAG PAPER JMB LOVE0000001000+00001753+00000+0001T   00001753+0000001330          1400 OU5112               1BZ
506016000506016               506016               170213FO     1400+00000+FO0000009371+0000009371+000000000+000001316+0000010680+0000000007+I20000000000+0000010680+Z
506016001506016368-000001     506016006003000097982Plush Bear 25cm        0000001000+00004385+00000+0001T   00004385+0000001346          1400 OU5745               1BZ
506016002506016006-000172-H   506016006003000610211BALLOONS METALLIC RED  0000003000+00000218+00000+0001T   00000218+0000001346          1400 OU5131               1BZ
506016003506016006-000170-F   506016006003000608669BALLOONS 1PC WHITE     0000003000+00000218+00000+0001T   00000218+0000001346          1400 OU5131               1BZ
506016004506016006-001000     506016006003000093779HELIUM BALLOON FILL    0000006000+00000613+00000+0001T   00000613+0000001346          1400 OU5131               1BZ
506017000506017               506017               170213FO     1400+00000+FO0000002192+0000002192+000000000+000000307+0000002490+0000000009+I20000000000+0000002490+Z
506017001506017071-000672     506017006003000138975STATIONERY CLIPS PAPER 0000001000+00002192+00000+0001T   00002192+0000001347          1400 OU5130               1BZ
506018000506018               506018               170213FO     1400+00000+FO0000003507+0000003507+000000000+000000491+0000003990+0000000008+I20000000000+0000003990+Z
506018001506018018-000136     506018006001023659026MUG OCC LOVE W/PLUSH   0000001000+00003507+00000+0001T   00003507+0000001348          1400 OU5515               1BZ
506019000506019               506019               170213FO     1400+00000+FO0000003507+0000003507+000000000+000000491+0000003998+0000000000+I40000003998+0000000000+Z
506019001506019028-002101     506019006002580009507CHAIR JUNIOR    ASSTD  0000001000+00003507+00000+0001T   00003507+0000001353          1400 OU5305               1BZ
506020000506020               506020               170213FO     1400+00000+FO0000003946+0000003946+000000000+000000553+0000004499+0000000000+I40000004499+0000000000+Z
506020001506020031-000874-A   506020006001023798800P/FRAME WDN P/BOX 10X150000001000+00003946+00000+0001T   00003946+0000001400          1400 OU5510               1BZ
506021000506021               506021               170213FO     1400+00000+FO0000012448+0000012448+000000000+000001746+0000014190+0000000004+I20000000000+0000014190+Z
506021001506021018-000130     506021006001023867537MUG OCC LOVE MINI+HEART0000001000+00003507+00000+0001T   00003507+0000001403          1400 OU5515               1BZ
506021002506021566-000359     506021006003000582709STICKER BOOK LOVE SPARK0000001000+00002192+00000+0001T   00002192+0000001403          1400 OU5130               1BZ
506021003506021018-000129     506021006001023403353MUG OCC. LOVE V-SHAPE  0000001000+00002630+00000+0001T   00002630+0000001403          1400 OU5515               1BZ
506021004506021080-000124     506021006003000297733CARD & ENV VALENTINES  0000001000+00001578+00000+0001T   00001578+0000001403          1400 OU5112               1BZ
506021005506021112-116069     506021006009681820277TCS CARRIER BAG JUMBO  0000001000+00000048+00000+0001T   00000048+0000001403          1400 OU5090               1BZ
506021006506021006-000172-H   506021006003000610211BALLOONS METALLIC RED  0000002000+00000218+00000+0001T   00000218+0000001403          1400 OU5131               1BZ
506021007506021006-000170-F   506021006003000608669BALLOONS 1PC WHITE     0000001000+00000218+00000+0001T   00000218+0000001403          1400 OU5131               1BZ
506021008506021006-001000     506021006003000093779HELIUM BALLOON FILL    0000003000+00000613+00000+0001T   00000613+0000001403          1400 OU5131               1BZ
506022000506022               506022               170213FO     1400+00000+FO0000004385+0000004385+000000000+000000614+0000004999+0000000000+I40000004999+0000000000+Z
506022001506022108-000500     506022006003000667161TUMBLER DOUBLE WALL    0000001000+00004385+00000+0001T   00004385+0000001408          1400 OU5210               1BZ
506023000506023               506023               170213FO     1400+00000+FO0000003069-0000003069-000000000+000000430-0000003500-0000000001+I20000000000+0000003500-Z
506023001506023001-999906     506023000000000999906STATIONERY(PHOTOCOPIES)0000001000-00003069+00000+0001T   00000000+0000001409          1400 OU59063IC            1 Z
506024000506024               506024               170213FO     1400+00000+FO0000003507+0000003507+000000000+000000491+0000003990+0000000008+I20000000000+0000003990+Z
506024001506024007-000291     506024006003000590131REMINDER NOTES REFILL  0000001000+00003507+00000+0001T   00003507+0000001412          1400 OU5130               1BZ
506025000506025               506025               170213FO     1400+00000+FO0000003946+0000003946+000000000+000000553+0000004490+0000000009+I20000000000+0000004490+Z
506025001506025036-000014     506025006001246500822LINT REMOVER 40x SHEET 0000001000+00003946+00000+0001T   00003946+0000001418          1400 OU5212               1BZ
506026000506026               506026               170213FO     1400+00000+FO0000001578+0000001578+000000000+000000221+0000001799+0000000000+I40000001799+0000000000+Z
506026001506026028-000799     506026006001023812186SKEWERS BAMBOO 100PCE  0000001000+00001578+00000+0001T   00001578+0000001423          1400 OU5305               1BZ
506027000506027               506027               170213FO     1400+00000+FO0000001227+0000001227+000000000+000000172+0000001390+0000000009+I20000000000+0000001390+Z
506027001506027087-000107     506027006001023684202RAZOR LADIES/GENTS 3-BL0000001000+00001227+00000+0001T   00001227+0000001424          1400 OU5200               1BZ
506028000506028               506028               170213FO     1400+00000+FO0000020387+0000020387+000000000+000002856+0000023240+0000000003+I20000000000+0000023240+Z
506028001506028077-000932     506028006003000409808G/WRAP 700mmx5m PATTERN0000002000+00003507+00000+0001T   00003507+0000001437          1400 OU5112               1BZ
506028002506028112-116069     506028006009681820277TCS CARRIER BAG JUMBO  0000001000+00000048+00000+0001T   00000048+0000001437          1400 OU5090               1BZ
506028003506028077-000932     506028006003000409808G/WRAP 700mmx5m PATTERN0000002000+00003507+00000+0001T   00003507+0000001437          1400 OU5112               1BZ
506028004506028077-000251     506028006003000639106GIFT-DECOR RIBBON      0000001000+00002630+00000+0001T   00002630+0000001437          1400 OU5112               1BZ
506028005506028077-000245     506028006001023759214GIFT-RIBBON METALLICx2 0000003000+00001227+00000+0001T   00001227+0000001437          1400 OU5112               1BZ
506029000506029               506029               170213FO     1400+00000+FO0000002278+0000002278+000000000+000000320+0000002590+0000000008+I20000000000+0000002590+Z
506029001506029304-001204     506029006001023737984FLOWER OCC. TEDDY/ROSES0000001000+00001402+00000+0001T   00001490+0006471438          1400 OU5510               1BZ
506029002506029077-000314     506029006003000181148GIFT-BAG 11X14CM MATT  0000001000+00000876+00000+0001T   00000876+0000001438          1400 OU5112               1BZ
506030000506030               506030               170213FO     1400+00000+FO0000003538+0000003538+000000000+000000498+0000004036+0000000000+I40000004036+0000000000+Z
506030001506030903-000011     506030006002099007315SWT MALLOW CHOC 15G    0000001000+00000437+00000+0001T   00000437+0000001443          1400 OU5150               1BZ
506030002506030903-002851     506030000000087108538MENTOS ROLL STRAWBERRY 0000001000+00001051+00000+0001T   00001051+0000001443          1400 OU5150               1BZ
506030003506030903-000012     506030006002099007308SWT MALLOW S/BERRY     0000001000+00000437+00000+0001T   00000437+0000001443          1400 OU5150               1BZ
506030004506030080-000124     506030006003000297733CARD & ENV VALENTINES  0000001000+00001578+00000+0001T   00001578+0000001443          1400 OU5112               1BZ
506030005506030112-116038     506030006009681820246TCS CARRIER BAG MIDI   0000001000+00000035+00000+0001T   00000035+0000001443          1400 OU5090               1BZ
506031000506031               506031               170213FO     1400+00000+FO0000012278+0000012278+000000000+000001719+0000013990+0000000007+I20000000000+0000013990+Z
506031001506031004-071204     506031006003000624904USB IN-CAR CHARGER 2.1A0000001000+00003507+00000+0001T   00003507+0000001447          1400 OU5310               1BZ
506031002506031004-071262     506031006003000234981COMPUTER MOUSE RUGBY 6 0000001000+00008771+00000+0001T   00008771+0000001447          1400 OU5310               1BZ
506032000506032               506032               170213FO     1400+00000+FO0000007625+0000007625+000000000+000001070+0000008690+0000000005+I20000000000+0000008690+Z
506032001506032903-000087     506032006001704000161SWT SPECKLED-EGGS 50G  0000001000+00001139+00000+0001T   00001139+0000001448          1400 OU5150               1BZ
506032002506032903-000220     506032006001704007368SWT JELLY BEANS 60G    0000001000+00000876+00000+0001T   00000876+0000001448          1400 OU5150               1BZ
506032003506032903-000095     506032006001704011495SWT SPECKLED-EGGS 100G 0000001000+00002104+00000+0001T   00002104+0000001448          1400 OU5150               1BZ
506032004506032133-000062     506032006001023822086FACE-CLOTH PLAIN ASSTD 0000002000+00001753+00000+0001T   00001753+0000001448          1400 OU5212               1BZ
506033000506033               506033               170213FO     1400+00000+FO0000005380+0000005380+000000000+000000755+0000006130+0000000005+I20000000000+0000006130+Z
506033001506033033-005930     506033006001023678423PINS STRAIGHT 20g  CARD0000001000+00000876+00000+0001T   00000876+0000001452          1400 OU5200               1BZ
506033002506033033-005931     506033006001023678447PINS ON-WHEEL PEARLIZED0000001000+00000876+00000+0001T   00000876+0000001452          1400 OU5200               1BZ
506033003506033033-008209     506033006001023678607MEASURING-TAPE 150cm   0000001000+00000613+00000+0001T   00000613+0000001452          1400 OU5200               1BZ
506033004506033033-005917     506033006001023678201SEAM-RIP+THIMBLE-SET   0000001000+00000788+00000+0001T   00000788+0000001452          1400 OU5200               1BZ
506033005506033033-006004     506033006001023703316SEWING-KIT IN-POUCH    0000001000+00002192+00000+0001T   00002192+0000001452          1400 OU5200               1BZ
506033006506033112-116038     506033006009681820246TCS CARRIER BAG MIDI   0000001000+00000035+00000+0001T   00000035+0000001452          1400 OU5090               1BZ
506034000506034               506034               170213FO     1400+00000+FO0000001753+0000001753+000000000+000000246+0000001999+0000000000+I40000001999+0000000000+Z
506034001506034566-002004     506034006001023672421STICKERS CRYSTAL SHAPES0000001000+00001753+00000+0001T   00001753+0000001510          1400 OU5130               1BZ
506035000506035               506035               170213FO     1400+00000+FO0000012279+0000012279+000000000+000001720+0000013990+0000000009+I20000000000+0000013990+Z
506035001506035368-000111     506035006001023780812PLUSH BEAR/DOG 29CM    0000001000+00012279+00000+0001T   00012279+0000001513          1400 OU5745               1BZ
506036000506036               506036               170213FO     1400+00000+FO0000003506+0000003506+000000000+000000492+0000003990+0000000008+I20000000000+0000003990+Z
506036001506036006-000108     506036006003000587995BALLOONS 6PC RED/WHT   0000002000+00001753+00000+0001T   00001753+0000001516          1400 OU5131               1BZ
506037000506037               506037               170213FO     1400+00000+FO0000018286+0000018286+000000000+000002563+0000020849+0000000000+I40000020849+0000000000+Z
506037001506037112-116069     506037006009681820277TCS CARRIER BAG JUMBO  0000001000+00000048+00000+0001T   00000048+0000001520          1400 OU5090               1BZ
506037002506037031-086302-C   506037006001023910332P/FRAME COLL. PL 3-HOLE0000001000+00008771+00000+0001T   00008771+0000001520          1400 OU5510               1BZ
506037003506037080-000127     506037006003000424351VALENTINES DAY 36x24CM 0000001000+00002192+00000+0001T   00002192+0000001520          1400 OU5112               1BZ
506037004506037036-000151     506037006001023810588COATHANGERS    PACK-10 0000001000+00002893+00000+0001T   00002893+0000001520          1400 OU5212               1BZ
506037005506037036-000615     506037006003000218769WASH-PEGS PL PCK-24    0000001000+00001753+00000+0001T   00001753+0000001520          1400 OU5212               1BZ
506037006506037039-001023     506037006003000466337CANDLE TEA-LITE METALIC0000001000+00001753+00000+0001T   00001753+0000001520          1400 OU5510               1BZ
506037007506037077-000011-C   506037006001023808523TISSUE 10xSHTS RED     0000001000+00000876+00000+0001T   00000876+0000001520          1400 OU5112               1BZ
506038000506038               506038               170213FO     1400+00000+FO0000004200+0000004200+000000000+000000588+0000004788+0000000000+I40000004788+0000000000+Z
506038001506038018-000177     506038006001023797513MUG MINI LOVE ASSTD    0000006000+00000700+00000+0001T   00000700+0000001526          1400 OU5515               1BZ
506039000506039               506039               170213FO     1400+00000+FO0000006171+0000006171+000000000+000000866+0000007030+0000000007+I20000000000+0000007030+Z
506039001506039016-006425     506039006001023998170S/JAR GLS CLIP W/RIBBON0000001000+00002630+00000+0001T   00002630+0000001527          1400 OU5300               1BZ
506039002506039019-000130     506039006003000456130PLANTER T/PLATE W/HNDL 0000002000+00001753+00000+0001T   00001753+0000001527          1400 OU5510               1BZ
506039003506039112-116038     506039006009681820246TCS CARRIER BAG MIDI   0000001000+00000035+00000+0001T   00000035+0000001527          1400 OU5090               1BZ
506040000506040               506040               170213FO     1400+00000+FO0000014819+0000014819+000000000+000002077+0000016890+0000000006+I20000000000+0000016890+Z
506040001506040079-009700-D   506040006003000545711PAPER SIRIO A4 RED COL.0000001000+00000306+00000+0001T   00000306+0000001531          1400 OU5130               1BZ
506040002506040079-009702-D   506040008427973059354PAPER SIRIO A2 RED COL 0000001000+00001051+00000+0001T   00001051+0000001531          1400 OU5130               1BZ
506040003506040112-116069     506040006009681820277TCS CARRIER BAG JUMBO  0000001000+00000048+00000+0001T   00000048+0000001531          1400 OU5090               1BZ
506040004506040301-085004     506040006003000420469ORN LOVE PLAQUE 21X10CM0000001000+00003507+00000+0001T   00003946+0006471531          1400 OU5505               1BZ
506040005506040071-001028     506040008887013700385MARKER WHT-RND YM-500  0000001000+00001578+00000+0001T   00001578+0000001531          1400 OU5130               1BZ
506040006506040006-000190     506040006003000685530BALLOONS LOVE 81x91cm  0000001000+00004385+00000+0001T   00004385+0000001531          1400 OU5131               1BZ
506040007506040077-000010-C   506040006001023123879CREPE-PAPER RED        0000001000+00000788+00000+0001T   00000788+0000001531          1400 OU5112               1BZ
506040008506040071-001028     506040008887013700385MARKER WHT-RND YM-500  0000002000+00001578+00000+0001T   00001578+0000001531          1400 OU5130               1BZ
506041000506041               506041               170213FO     1400+00000+FO0000003507+0000003507+000000000+000000491+0000003990+0000000008+I20000000000+0000003990+Z
506041001506041162-094833     506041006001492948331#TAG KIDS NK&WR SET    0000001000+00003507+00000+0001T   00003507+0000001611          1400 OU5160               1BZ
506042000506042               506042               170213FO     1400+00000+FO0000004242+0000004242+000000000+000000594+0000004836+0000000000+I40000004836+0000000000+Z
506042001506042018-005009     506042006001023725608MUG W/PLUSH-BEAR LOVE  0000001000+00003507+00000+0001T   00003507+0000001613          1400 OU5515               1BZ
506042002506042112-116038     506042006009681820246TCS CARRIER BAG MIDI   0000001000+00000035+00000+0001T   00000035+0000001613          1400 OU5090               1BZ
506042003506042018-000177     506042006001023797513MUG MINI LOVE ASSTD    0000001000+00000700+00000+0001T   00000700+0000001613          1400 OU5515               1BZ
506043000506043               506043               170213FO     1400+00000+FO0000005132+0000005132+000000000+000000720+0000005852+0000000000+I40000005852+0000000000+Z
506043001506043018-000127     506043006001023380289MUG OCC STRAIGHT LOVE  0000001000+00001578+00000+0001T   00001753+0006471638          1400 OU5515               1BZ
506043002506043903-000494     506043006001704009911SWT GUMMY TEENY TEDDIES0000001000+00000876+00000+0001T   00000876+0000001638          1400 OU5150               1BZ
506043003506043077-000115-B   506043006003000181025GIFT-WRAP PPR 700MMX2M 0000001000+00002630+00000+0001T   00002630+0000001638          1400 OU5112               1BZ
506043004506043112-116069     506043006009681820277TCS CARRIER BAG JUMBO  0000001000+00000048+00000+0001T   00000048+0000001638          1400 OU5090               1BZ
506044000506044               506044               170213FO     1400+00000+FO0000021094+0000021094+000000000+000002955+0000024040+0000000009+I20000000000+0000024040+Z
506044001506044112-116069     506044006009681820277TCS CARRIER BAG JUMBO  0000001000+00000048+00000+0001T   00000048+0000001640          1400 OU5090               1BZ
506044002506044368-000637     506044006001023874092PLUSH BEAR SLEEPING LOV0000001000+00011402+00000+0001T   00012279+0006471640          1400 OU5745               1BZ
506044003506044077-000270     506044006003000395453GIFT-BAG PPR JMB 33X45 0000001000+00002630+00000+0001T   00002630+0000001640          1400 OU5112               1BZ
506044004506044028-000031     506044006003000270897COOLER-BAG THERMAL 6PK 0000001000+00003507+00000+0001T   00003507+0000001640          1400 OU5305               1BZ
506044005506044018-000130     506044006001023867537MUG OCC LOVE MINI+HEART0000001000+00003507+00000+0001T   00003507+0000001640          1400 OU5515               1BZ
506045000506045               506045               170213FO     1400+00000+FO0000002454+0000002454+000000000+000000344+0000002790+0000000008+I20000000000+0000002790+Z
506045001506045080-000124     506045006003000297733CARD & ENV VALENTINES  0000001000+00001578+00000+0001T   00001578+0000001641          1400 OU5112               1BZ
506045002506045903-000220     506045006001704007368SWT JELLY BEANS 60G    0000001000+00000876+00000+0001T   00000876+0000001641          1400 OU5150               1BZ
506046000506046               506046               170213FO     1400+00000+FO0000003330+0000003330+000000000+000000467+0000003790+0000000007+I20000000000+0000003790+Z
506046001506046018-000177     506046006001023797513MUG MINI LOVE ASSTD    0000001000+00000700+00000+0001T   00000700+0000001642          1400 OU5515               1BZ
506046002506046018-000129     506046006001023403353MUG OCC. LOVE V-SHAPE  0000001000+00002630+00000+0001T   00002630+0000001642          1400 OU5515               1BZ
506047000506047               506047               170213FO     1400+00000+FO0000001753+0000001753+000000000+000000246+0000001990+0000000009+I20000000000+0000001990+Z
506047001506047038-001804     506047006001023766618DOILIES 27cm RND PKT-100000001000+00001753+00000+0001T   00001753+0000001642          1400 OU5300               1BZ
506048000506048               506048               170213FO     1400+00000+FO0000010960+0000010960+000000000+000001535+0000012490+0000000005+I20000000000+0000012490+Z
506048001506048563-000318-G   506048006003000404360SERVIETTES 33cm PINK   0000005000+00002192+00000+0001T   00002192+0000001645          1400 OU5214               1BZ
506049000506049               506049               170213FO     1400+00000+FO0000004203+0000004203+000000000+000000591+0000004790+0000000004+I20000000000+0000004790+Z
506049001506049077-000348     506049006001023483287GIFT-BOWS 4,5cm 8PCE   0000001000+00001578+00000+0001T   00001578+0000001646          1400 OU5112               1BZ
506049002506049903-000151     506049006009803374411SWT SML RND R/BOW LOLLY0000005000+00000525+00000+0001T   00000525+0000001646          1400 OU5150               1BZ
506050000506050               506050               170213FO     1400+00000+FO0000000876+0000000876+000000000+000000123+0000000990+0000000009+I20000000000+0000000990+Z
506050001506050567-014132     506050006003000560028BOOK COLOURING 24 PAGE 0000001000+00000876+00000+0001T   00000876+0000001647          1400 OU5757               1BZ
506051000506051               506051               170213FO     1400+00000+FO0000004242+0000004242+000000000+000000594+0000004830+0000000006+I20000000000+0000004830+Z
506051001506051159-003018     506051006003000506859BATHROOM SET 3PC CERAMI0000001000+00003507+00000+0001T   00004385+0008131650          1400 OU5200               1BZ
506051002506051018-000177     506051006001023797513MUG MINI LOVE ASSTD    0000001000+00000700+00000+0001T   00000700+0000001650          1400 OU5515               1BZ
506051003506051112-116038     506051006009681820246TCS CARRIER BAG MIDI   0000001000+00000035+00000+0001T   00000035+0000001650          1400 OU5090               1BZ
506052000506052               506052               170213FO     1400+00000+FO0000013811+0000013811+000000000+000001937+0000015748+0000000000+I40000015748+0000000000+Z
506052001506052112-116069     506052006009681820277TCS CARRIER BAG JUMBO  0000001000+00000048+00000+0001T   00000048+0000001652          1400 OU5090               1BZ
506052002506052077-000011     506052006003000542352PAPER RAFFIA ASSTD COL 0000001000+00001753+00000+0001T   00001753+0000001652          1400 OU5112               1BZ
506052003506052077-000245     506052006001023759214GIFT-RIBBON METALLICx2 0000001000+00001227+00000+0001T   00001227+0000001652          1400 OU5112               1BZ
506052004506052105-000750     506052006003000190270CONTAINERS 4xMINI 150ml0000001000+00001402+00000+0001T   00001402+0000001652          1400 OU5210               1BZ
506052005506052027-783000     506052006001023874641SCOURERS RAINBOW 5PCE  0000001000+00001753+00000+0001T   00001753+0000001652          1400 OU5212               1BZ
506052006506052200-000065     506052006001023323675DRINKING-STRAWS 38PCE  0000001000+00000613+00000+0001T   00000613+0000001652          1400 OU5214               1BZ
506052007506052077-000302     506052008010410010195GIFT-BAG 18X23CM E/D   0000001000+00000876+00000+0001T   00000876+0000001652          1400 OU5112               1BZ
506052008506052035-000001     506052006002596010566UMBRELLA LADIES W/MINI 0000001000+00006139+00000+0001T   00006139+0000001652          1400 OU5205               1BZ
506053000506053               506053               170213FO     1400+00000+FO0000003768+0000003768+000000000+000000528+0000004290+0000000006+I20000000000+0000004290+Z
506053001506053018-000177     506053006001023797513MUG MINI LOVE ASSTD    0000001000+00000700+00000+0001T   00000700+0000001653          1400 OU5515               1BZ
506053002506053903-000095     506053006001704011495SWT SPECKLED-EGGS 100G 0000001000+00002104+00000+0001T   00002104+0000001653          1400 OU5150               1BZ
506053003506053903-000843     506053008693029031067SWT GUMMY JELAXY 80G   0000001000+00000964+00000+0001T   00000964+0000001653          1400 OU5150               1BZ
506054000506054               506054               170213FO     1400+00000+FO0000014340+0000014340+000000000+000002010+0000016350+0000000000+I40000016350+0000000000+Z
506054001506054112-116069     506054006009681820277TCS CARRIER BAG JUMBO  0000001000+00000048+00000+0001T   00000048+0000001655          1400 OU5090               1BZ
506054002506054466-000515     506054006001023477408BALLS TENNIS BAG-OF-3  0000001000+00002630+00000+0001T   00002630+0000001655          1400 OU5785               1BZ
506054003506054031-000903-C   506054006003000457359P/FRAME PL CREAMY 20X250000001000+00007893+00000+0001T   00007893+0000001655          1400 OU5510               1BZ
506054004506054903-000120     506054006002099001665SWEET GS ZILLIONS 50g  0000001000+00000700+00000+0001T   00000700+0000001655          1400 OU5150               1BZ
506054005506054089-000184     506054006003000577323KEY CHAIN OWL POLY MINI0000001000+00003069+00000+0001T   00003069+0000001655          1400 OU5205               1BZ
506055000506055               506055               170213FO     1400+00000+FO0000011136+0000011136+000000000+000001560+0000012690+0000000006+I20000000000+0000012690+Z
506055001506055077-000305     506055006003000395422GIFT-BAG WINE 10X35CM  0000001000+00001490+00000+0001T   00001490+0000001657          1400 OU5112               1BZ
506055002506055368-000104     506055006001023751348PLUSH BEAR RUFFLED-LOOK0000001000+00006139+00000+0001T   00006139+0000001657          1400 OU5745               1BZ
506055003506055301-085004     506055006003000420469ORN LOVE PLAQUE 21X10CM0000001000+00003507+00000+0001T   00003946+0006471657          1400 OU5505               1BZ
506056000506056               506056               170213FO     1400+00000+FO0000001753+0000001753+000000000+000000246+0000001999+0000000000+I40000001999+0000000000+Z
506056001506056077-000382     506056006003000247820GIFT-BAG MED 18X23CM   0000001000+00001753+00000+0001T   00001753+0000001728          1400 OU5112               1BZ
506057000506057               506057               170213FO     1400+00000+FO0000002192+0000002192+000000000+000000307+0000002490+0000000009+I20000000000+0000002490+Z
506057001506057050-000363-Z   506057006001023475282PADLOCK IRON 32mm CARD 0000001000+00002192+00000+0001T   00002192+0000001729          1400 OU5855               1BZ
506058000506058               506058               170213FO     1400+00000+FO0000002364+0000002364+000000000+000000333+0000002690+0000000007+I20000000000+0000002690+Z
506058001506058077-000383     506058006003000247943GIFT-BAG 11X14CM S/COL 0000003000+00000788+00000+0001T   00000788+0000001730          1400 OU5112               1BZ
506059000506059               506059               170213FO     1400+00000+FO0000009646+0000009646+000000000+000001352+0000010990+0000000008+I20000000000+0000010990+Z
506059001506059077-000316     506059006001023609731GIFT-BAG 25X32CM MATT  0000001000+00001753+00000+0001T   00001753+0000001731          1400 OU5112               1BZ
506059002506059264-012328     506059000090159123286MAISTO DINKY 11cm      0000001000+00007893+00000+0001T   00007893+0000001731          1400 OU5710               1BZ
506060000506060               506060               170213FO     1400+00000+FO0000003993+0000003993+000000000+000000560+0000004553+0000000000+I40000004553+0000000000+Z
506060001506060105-001021     506060006003000667062CONTAINER MICRO/FREEZER0000001000+00001753+00000+0001T   00002630+0008161736          1400 OU5210               1BZ
506060002506060080-000127     506060006003000424351VALENTINES DAY 36x24CM 0000001000+00002192+00000+0001T   00002192+0000001736          1400 OU5112               1BZ
506060003506060112-116069     506060006009681820277TCS CARRIER BAG JUMBO  0000001000+00000048+00000+0001T   00000048+0000001736          1400 OU5090               1BZ
A17021300                                          14343249FOSLAVE 1                       OU52IC
B50600400                                          170213FO018-000177     11434570SLAVE 1     OU52IC0000002000+0000001000+0000000000000+
C50604300                                          170213FO006-000166-D   16152478SLAVE 1     OU52IC0000000000+0000000000+0010000001000+
M17021391                              CASH        FOSLAVE 1                       Z-REPORT No.   546TOTAL (Sales - Refunds)           5377.89       CASH TO BE BANKED                 3490.90       DEBIT CARDS                          0.00       CREDIT CARDS                      1778.99       Z-READING                         5269.89       AIRTIME DEBIT CARD SALES             0.00       AIRTIME CARD SALES                   0.00       OVERS/UNDERS                         0.00       AIRTIME CASH SALES                   0.00       GIFT CARDS                           0.00       GIFT CARD CASH SALES                 0.00       POSTAGE                             73.00       STATIONERY(PHOTOCOPIES)             34.99       ROUNDING                             0.01       T O T A L  CASH PAYOUTS            108.00                                                                                                                                                                                                      Z
M17021392                              CASH        FOABSENT                                                                                                                                                                                          ANNUAL LEAVE                                                                                                                                                                                    DAY OFF                                                                                                                                                                                         COMMENTS                                                                                                                                                                                                                                                                                                                                                                                       Z
Y17021300                                          FO00000000472024+000078
ZFO17021405523 SLAVE 1      SALES DATA                     NEXT INVOICE NO.  506061 0546
T094594027-008813                                          1702130907270000041ICSLAVE 1
F094801105-009017         1702110831510000042ICSLAVE 1
F094845018-000127         1702110833110000082ICSLAVE 1
F094845112-116069         1702110833110000012ICSLAVE 1
F094846007-000160         1702110833210000302ICSLAVE 1
F094846112-116038         1702110833210000012ICSLAVE 1
X FO Slave 1 First invoice 505981 170213 Last invoice 506060 170213 Next invoice 506061 Total number of records 000000288 clbackup completed 05:52:01
