220641000220641               220641               170213FP     1400+00000+FP0000001753+0000001753+000000000+000000246+0000001990+0000000009+I20000000000+0000001990+Z
220641001220641200-003026     220641006003000276448REFUSE BAGS 10PCE GREEN0000001000+00001753+00000+0001T   00001753+0000000833          1400 DG8214               1AZ
220642000220642               220642               170213FP     1400+00000+FP0000009516+0000009516+000000000+000001334+0000010850+0000000000+I40000010850+0000000000+Z
220642001220642077-000324     220642006001023677594GIFT-BAG 33X45CM E/D FL0000001000+00001753+00000+0001T   00001753+0000000921          1400 DG8112               1AZ
220642002220642112-116069     220642006009681820277TCS CARRIER BAG JUMBO  0000001000+00000048+00000+0001T   00000048+0000000921          1400 DG8090               1AZ
220642003220642493-059020     220642000078257590209BEACH-BALL 51cm GLOSSY 0000001000+00001578+00000+0001T   00001578+0000000921          1400 DG8787               1AZ
220642004220642077-000011-D   220642006001023808554TISSUE-WRAP WHITE 10PCE0000001000+00000876+00000+0001T   00000876+0000000921          1400 DG8112               1AZ
220642005220642493-059050     220642000078257590506BEACH-BALL 61cm LIVELY 0000001000+00002192+00000+0001T   00002192+0000000921          1400 DG8787               1AZ
220642006220642467-000009     220642006001023682017BEACH-SET 6PCE         0000001000+00003069+00000+0001T   00003069+0000000921          1400 DG8785               1AZ
220643000220643               220643               170213FP     1400+00000+FP0000002978+0000002978+000000000+000000419+0000003390+0000000007+I20000000000+0000003390+Z
220643001220643903-000200     220643006009826020234SWT CHOC RP CHOCO 23G  0000001000+00000788+00000+0001T   00000788+0000000933          1400 DG8150               1AZ
220643002220643080-000133-A   220643006003000647019MINI VALENTINES CARD   0000001000+00000437+00000+0001T   00000437+0000000933          1400 DG8112               1AZ
220643003220643080-000113     220643006003000237449CARD&ENVLPE - LOVE     0000001000+00001753+00000+0001T   00001753+0000000933          1400 DG8112               1AZ
220644000220644               220644               170213FP     1400+00000+FP0000001227+0000001227+000000000+000000172+0000001390+0000000009+I20000000000+0000001390+Z
220644001220644071-081091     220644006001151010287STAED/GENKEM ALL-STICK 0000001000+00001227+00000+0001T   00001227+0000000933          1400 DG8130               1AZ
220645000220645               220645               170213FP     1400+00000+FP0000002678+0000002678+000000000+000000376+0000003050+0000000004+I20000000000+0000003050+Z
220645001220645112-116069     220645006009681820277TCS CARRIER BAG JUMBO  0000001000+00000048+00000+0001T   00000048+0000000935          1400 DG8090               1AZ
220645002220645027-000231     220645006001023749598MOP-REFILL   WONDERGRIP0000001000+00002630+00000+0001T   00002630+0000000935          1400 DG8212               1AZ
220646000220646               220646               170213FP     1400+00000+FP0000001753+0000001753+000000000+000000246+0000001990+0000000009+I20000000000+0000001990+Z
220646001220646039-000318     220646006003000406159B/DAY CANDLES SMALL NO 0000001000+00001753+00000+0001T   00001753+0000000936          1400 DG8510               1AZ
220647000220647               220647               170213FP     1400+00000+FP0000011834+0000011834+000000000+000001660+0000013494+0000000000+I40000013494+0000000000+Z
220647001220647200-003024     220647006001023657299REFUSE BAGS 20PCE BLACK0000005000+00001753+00000+0001T   00001753+0000000938          1400 DG8214               1AZ
220647002220647106-000899     220647006003000653287WTR BOTTLE 2L W/HANDLE 0000001000+00003069+00000+0001T   00003507+0008190938          1400 DG8210               1AZ
220648000220648               220648               170213FP     1400+00000+FP0000008769+0000008769+000000000+000001229+0000009990+0000000008+I20000000000+0000009990+Z
220648001220648018-050000     220648006003000412679MUG OCC LOVE TWIN BEAR 0000001000+00006139+00000+0001T   00006139+0000000947          1400 DG8515               1AZ
220648002220648089-000145     220648006003000576616K/CHAIN LIGHT W/COMPASS0000001000+00002630+00000+0001T   00003069+0008120947          1400 DG8205               1AZ
220649000220649               220649               170213FP     1400+00000+FP0000000613+0000000613+000000000+000000086+0000000690+0000000009+I20000000000+0000000690+Z
220649001220649077-000311     220649006001023608666GIFT-BAG 11X14CM GLOSS 0000001000+00000613+00000+0001T   00000613+0000000956          1400 DG8112               1AZ
220650000220650               220650               170213FP     1400+00000+FP0000001140+0000001140+000000000+000000160+0000001300+0000000000+I20000000000+0000001300+Z
220650001220650077-000311     220650006001023608666GIFT-BAG 11X14CM GLOSS 0000001000-00000613+00000+0001T   00000613+0000001002          1400 DG81121IC            1 Z
220650002220650077-000297     220650006001023869814GIFT BOX OCCASIONS SQRE0000001000+00001753+00000+0001T   00001753+0000001002          1400 DG8112               1AZ
220651000220651               220651               170213FP     1400+00000+FP0000002630+0000002630+000000000+000000369+0000002990+0000000009+I20000000000+0000002990+Z
220651001220651033-001365     220651006001023802118HAIR CLIPS 200PC ASSTD 0000001000+00002630+00000+0001T   00002630+0000001008          1400 DG8200               1AZ
220652000220652               220652               170213FP     1400+00000+FP0000004385+0000004385+000000000+000000614+0000004990+0000000009+I20000000000+0000004990+Z
220652001220652369-001032     220652006001023796158BABY RATTLE SET 6PCE   0000001000+00004385+00000+0001T   00004385+0000001011          1400 DG8745               1AZ
220653000220653               220653               170213FP     1400+00000+FP0000014902+0000014902+000000000+000002091+0000016990+0000000003+I20000000000+0000016990+Z
220653001220653566-000865     220653006001023788412STICKER ASSTD          0000003000+00001753+00000+0001T   00001753+0000001014          1400 DG8130               1AZ
220653002220653079-000260     220653006001023886385PAINT TUBS WT BASE 4COL0000003000+00002630+00000+0001T   00002630+0000001014          1400 DG8130               1AZ
220653003220653079-003002     220653006003000447886A/TUBE 75ML RED        0000001000+00001753+00000+0001T   00001753+0000001014          1400 DG8130               1AZ
220654000220654               220654               170213FP     1400+00000+FP0000015392+0000015392+000000000+000002157+0000017540+0000000009+I20000000000+0000017540+Z
220654001220654361-000698     220654006003000654031DOLL BABY 28cm SOFT    0000001000+00011402+00000+0001T   00011402+0000001031          1400 DG8725               1AZ
220654002220654903-000221     220654006001704007382SWT EENY-MEENY-MOS 60G 0000003000+00000876+00000+0001T   00000876+0000001031          1400 DG8150               1AZ
220654003220654903-000194     220654006009826020616SWT CHOC RP LOLLY 25G  0000001000+00001314+00000+0001T   00001314+0000001031          1400 DG8150               1AZ
220654004220654112-116069     220654006009681820277TCS CARRIER BAG JUMBO  0000001000+00000048+00000+0001T   00000048+0000001031          1400 DG8090               1AZ
220655000220655               220655               170213FP     1400+00000+FP0000005032+0000005032+000000000+000000705+0000005730+0000000007+I20000000000+0000005730+Z
220655001220655018-000130     220655006001023867537MUG OCC LOVE MINI+HEART0000001000+00003507+00000+0001T   00003507+0000001052          1400 DG8515               1AZ
220655002220655077-000452     220655006003000284986G/BAG METALLIC MED EMB 0000001000+00001490+00000+0001T   00001490+0000001052          1400 DG8112               1AZ
220655003220655112-116038     220655006009681820246TCS CARRIER BAG MIDI   0000001000+00000035+00000+0001T   00000035+0000001052          1400 DG8090               1AZ
220656000220656               220656               170213FP     1400+00000+FP0000003542+0000003542+000000000+000000496+0000004030+0000000008+I20000000000+0000004030+Z
220656001220656018-000136     220656006001023659026MUG OCC LOVE W/PLUSH   0000001000+00003507+00000+0001T   00003507+0000001054          1400 DG8515               1AZ
220656002220656112-116038     220656006009681820246TCS CARRIER BAG MIDI   0000001000+00000035+00000+0001T   00000035+0000001054          1400 DG8090               1AZ
220657000220657               220657               170213FP     1400+00000+FP0000000700+0000000700+000000000+000000100+0000000800+0000000000+I20000000000+0000000800+Z
220657001220657112-116038     220657006009681820246TCS CARRIER BAG MIDI   0000020000+00000035+00000+0001T   00000035+0000001203          1400 DG8090               1AZ
220658000220658               220658               170213FP     1400+00000+FP0000013444+0000013444+000000000+000001894+0000015330+0000000008+I20000000000+0000015330+Z
220658001220658031-000878-E   220658006003000602599P/FRAME PHOTO BOOTH    0000017000+00000788+00000+0001T   00000788+0000001208          1400 DG8510               1AZ
220658002220658112-116069     220658006009681820277TCS CARRIER BAG JUMBO  0000001000+00000048+00000+0001T   00000048+0000001208          1400 DG8090               1AZ
220659000220659               220659               170213FP     1400+00000+FP0000007364+0000007364+000000000+000001032+0000008396+0000000000+I40000008396+0000000000+Z
220659001220659077-000310     220659006001023608635GIFT-BAG 18X23CM GLOSS 0000001000+00001314+00000+0001T   00001314+0000001213          1400 DG8112               1AZ
220659002220659018-019000     220659006003000557288MUG OCC. LOVE JUMBO    0000001000+00005262+00000+0001T   00005262+0000001213          1400 DG8515               1AZ
220659003220659903-000200     220659006009826020234SWT CHOC RP CHOCO 23G  0000001000+00000788+00000+0001T   00000788+0000001213          1400 DG8150               1AZ
220660000220660               220660               170213FP     1400+00000+FP0000005832+0000005832+000000000+000000817+0000006649+0000000000+I40000006649+0000000000+Z
220660001220660077-000303     220660006001023593757GIFT-BAG PAPER MED     0000002000+00001578+00000+0001T   00001578+0000001233          1400 DG8112               1AZ
220660002220660903-000194     220660006009826020616SWT CHOC RP LOLLY 25G  0000002000+00001314+00000+0001T   00001314+0000001233          1400 DG8150               1AZ
220660003220660112-116069     220660006009681820277TCS CARRIER BAG JUMBO  0000001000+00000048+00000+0001T   00000048+0000001233          1400 DG8090               1AZ
220661000220661               220661               170213FP     1400+00000+FP0000003507+0000003507+000000000+000000491+0000003998+0000000000+I40000003998+0000000000+Z
220661001220661018-000136     220661006001023659026MUG OCC LOVE W/PLUSH   0000001000+00003507+00000+0001T   00003507+0000001249          1400 DG8515               1AZ
220662000220662               220662               170213FP     1400+00000+FP0000018008+0000018008+000000000+000002525+0000020533+0000000000+I40000020533+0000000000+Z
220662001220662903-000155     220662006009803374435SWT LOLLY I LUV U HEART0000001000+00000525+00000+0001T   00000525+0000001252          1400 DG8150               1AZ
220662002220662112-116038     220662006009681820246TCS CARRIER BAG MIDI   0000001000+00000035+00000+0001T   00000035+0000001252          1400 DG8090               1AZ
220662003220662301-085007     220662006003000673698ORN OCC. LOVE S/PLAQUE 0000001000+00007893+00000+0001T   00007893+0000001252          1400 DG8505               1AZ
220662004220662089-060027     220662006003000245871KEY-CHAIN HEART 6X6cm  0000001000+00003069+00000+0001T   00003069+0000001252          1400 DG8205               1AZ
220662005220662204-000007     220662006003000427062M/HOLDER MAGN POLY LOVE0000001000+00002630+00000+0001T   00003507+0008131252          1400 DG8300               1AZ
220662006220662080-000113     220662006003000237449CARD&ENVLPE - LOVE     0000001000+00001753+00000+0001T   00001753+0000001252          1400 DG8112               1AZ
220662007220662077-000303     220662006001023593757GIFT-BAG PAPER MED     0000001000+00001578+00000+0001T   00001578+0000001252          1400 DG8112               1AZ
220662008220662903-000155     220662006009803374435SWT LOLLY I LUV U HEART0000001000+00000525+00000+0001T   00000525+0000001252          1400 DG8150               1AZ
220663000220663               220663               170213FP     1400+00000+FP0000023287+0000023287+000000000+000003262+0000026549+0000000000+I40000026549+0000000000+Z
220663001220663112-116069     220663006009681820277TCS CARRIER BAG JUMBO  0000001000+00000048+00000+0001T   00000048+0000001255          1400 DG8090               1AZ
220663002220663007-010501     220663006003000455157WIPE & CHALK 45X35CM   0000001000+00008771+00000+0001T   00008771+0000001255          1400 DG8130               1AZ
220663003220663018-000136     220663006001023659026MUG OCC LOVE W/PLUSH   0000001000+00003507+00000+0001T   00003507+0000001255          1400 DG8515               1AZ
220663004220663004-071192     220663006003000528813USB CABLE 1.0m         0000001000+00002630+00000+0001T   00002630+0000001255          1400 DG8310               1AZ
220663005220663056-005719     220663006001023820983CAR AIR-FRESHENER ASSTD0000001000+00002192+00000+0001T   00002192+0000001255          1400 DG8860               1AZ
220663006220663004-079102     220663006003000605033USB POWER BANK 1200MAH 0000001000+00006139+00000+0001T   00006139+0000001255          1400 DG8310               1AZ
220664000220664               220664               170213FP     1400+00000+FP0000001753+0000001753+000000000+000000246+0000001990+0000000009+I20000000000+0000001990+Z
220664001220664039-000114     220664006001023524058CANDLE T/LITE RED 3.5CM0000001000+00001753+00000+0001T   00001753+0000001257          1400 DG8510               1AZ
220665000220665               220665               170213FP     1400+00000+FP0000005960+0000005960+000000000+000000835+0000006795+0000000000+I40000006795+0000000000+Z
220665001220665089-000501     220665006003000622900KEY CHAIN LIGHT LASER  0000002000+00002192+00000+0001T   00002192+0000001312          1400 DG8205               1AZ
220665002220665464-000121     220665006003000640492PLAYING CARDS MINI     0000001000+00000700+00000+0001T   00000700+0000001312          1400 DG8785               1AZ
220665003220665903-000503     220665006001704006118SWT VAMPIRE FANGS 60G  0000001000+00000876+00000+0001T   00000876+0000001312          1400 DG8150               1AZ
220666000220666               220666               170213FP     1400+00000+FP0000000876+0000000876+000000000+000000123+0000000990+0000000009+I20000000000+0000000990+Z
220666001220666903-000221     220666006001704007382SWT EENY-MEENY-MOS 60G 0000001000+00000876+00000+0001T   00000876+0000001317          1400 DG8150               1AZ
220667000220667               220667               170213FP     1400+00000+FP0000006138+0000006138+000000000+000000860+0000006990+0000000008+I20000000000+0000006990+Z
220667001220667001-000390     220667006001023679741TUMBLER GLS 2400ml WHIS0000001000+00000876+00000+0001T   00000876+0000001322          1400 DG8515               1AZ
220667002220667263-000623     220667006001023905697VEHICLE HELICOPTER 30cm0000001000+00005262+00000+0001T   00005262+0000001322          1400 DG8710               1AZ
220668000220668               220668               170213FP     1400+00000+FP0000001753+0000001753+000000000+000000246+0000001990+0000000009+I20000000000+0000001990+Z
220668001220668079-000275     220668006003000160488PAINT-BRUSHES 6PCE PRO 0000001000+00001753+00000+0001T   00001753+0000001335          1400 DG8130               1AZ
220669000220669               220669               170213FP     1400+00000+FP0000001753+0000001753+000000000+000000246+0000001990+0000000009+I20000000000+0000001990+Z
220669001220669079-000275     220669006003000160488PAINT-BRUSHES 6PCE PRO 0000001000+00001753+00000+0001T   00001753+0000001341          1400 DG8130               1AZ
220670000220670               220670               170213FP     1400+00000+FP0000002450+0000002450+000000000+000000344+0000002790+0000000004+I20000000000+0000002790+Z
220670001220670018-000177     220670006001023797513MUG MINI LOVE ASSTD    0000002000+00000700+00000+0001T   00000700+0000001354          1400 DG8515               1AZ
220670002220670903-000155     220670006009803374435SWT LOLLY I LUV U HEART0000002000+00000525+00000+0001T   00000525+0000001354          1400 DG8150               1AZ
220671000220671               220671               170213FP     1400+00000+FP0000001489+0000001489+000000000+000000209+0000001690+0000000008+I20000000000+0000001690+Z
220671001220671088-000052     220671006001023760401T/FRESHENER CISTERN BLK0000001000+00000876+00000+0001T   00000876+0000001356          1400 DG8212               1AZ
220671002220671306-000021     220671006001023169433EARBUDS 100PCE IN BAG  0000001000+00000613+00000+0001T   00000613+0000001356          1400 DG8200               1AZ
220672000220672               220672               170213FP     1400+00000+FP0000048750+0000048750+000000000+000006830+0000055580+0000000000+I20000000000+0000055580+Z
220672001220672306-001660     220672006003000620579NAIL DRYING MACHINE    0000001000+00007016+00000+0001T   00007016+0000001403          1400 DG8200               1AZ
220672002220672028-000040     220672006003000453016PICNIC BAG W/ALU HNDLES0000001000+00016665+00000+0001T   00016665+0000001403          1400 DG8305               1AZ
220672003220672031-005853     220672006003000442416P/FRAME WDN TWIN HEARTS0000001000+00003507+00000+0001T   00003507+0000001403          1400 DG8510               1AZ
220672004220672018-000136     220672006001023659026MUG OCC LOVE W/PLUSH   0000001000+00003507+00000+0001T   00003507+0000001403          1400 DG8515               1AZ
220672005220672001-091415     220672006003000329113W/GLS OCC. LOVE 2PC 2800000001000+00008771+00000+0001T   00009648+0006471403          1400 DG8515               1AZ
220672006220672903-000194     220672006009826020616SWT CHOC RP LOLLY 25G  0000004000+00001314+00000+0001T   00001314+0000001403          1400 DG8150               1AZ
220672007220672903-000200     220672006009826020234SWT CHOC RP CHOCO 23G  0000004000+00000788+00000+0001T   00000788+0000001403          1400 DG8150               1AZ
220672008220672903-000897     220672008692806325207SWT CHOC DBL MINI ROLL 0000001000+00000876+00000+0001T   00000876+0000001403          1400 DG8150               1AZ
220673000220673               220673               170213FP     1400+00000+FP0000010519+0000010519+000000000+000001476+0000011990+0000000005+I20000000000+0000011990+Z
220673001220673105-007410     220673006003000629671CONTAINER MINI 300ml   0000002000+00002630+00000+0001T   00003507+0008171406          1400 DG8210               1AZ
220673002220673079-003009     220673006003000448722A/TUBE 75ML NATURAL    0000001000+00001753+00000+0001T   00001753+0000001406          1400 DG8130               1AZ
220673003220673200-000211     220673006003000671847BAKING-PANS ALUM-FOIL  0000002000+00001753+00000+0001T   00001753+0000001406          1400 DG8214               1AZ
220674000220674               220674               170213FP     1400+00000+FP0000007012+0000007012+000000000+000000984+0000007996+0000000000+I40000007996+0000000000+Z
220674001220674306-000001     220674006003000450152NAIL BRUSH SET 7/9/14cm0000001000+00002630+00000+0001T   00002630+0000001408          1400 DG8200               1AZ
220674002220674083-000295     220674006001023898562LIGHTER-GAS BUTANE 18ml0000001000+00000876+00000+0001T   00000876+0000001408          1400 DG8315               1AZ
220674003220674079-105601     220674006003000231171ART+CRAFT STAMP ASSTD  0000002000+00001753+00000+0001T   00001753+0000001408          1400 DG8130               1AZ
220675000220675               220675               170213FP     1400+00000+FP0000005255+0000005255+000000000+000000740+0000005990+0000000005+I20000000000+0000005990+Z
220675001220675039-000034     220675006003000287420C/TAPERED 25CM M/BLUE  0000005000+00001051+00000+0001T   00001051+0000001409          1400 DG8510               1AZ
220676000220676               220676               170213FP     1400+00000+FP0000020639+0000020639+000000000+000002895+0000023534+0000000000+I40000023534+0000000000+Z
220676001220676112-116069     220676006009681820277TCS CARRIER BAG JUMBO  0000001000+00000048+00000+0001T   00000048+0000001413          1400 DG8090               1AZ
220676002220676016-006425     220676006001023998170S/JAR GLS CLIP W/RIBBON0000003000+00002630+00000+0001T   00002630+0000001413          1400 DG8300               1AZ
220676003220676018-000177     220676006001023797513MUG MINI LOVE ASSTD    0000003000+00000700+00000+0001T   00000700+0000001413          1400 DG8515               1AZ
220676004220676903-000211     220676006002099001238SWT GS MALLOW ICE CREAM0000001000+00001753+00000+0001T   00001753+0000001413          1400 DG8150               1AZ
220676005220676903-000844     220676005010478432567SWT CANDY DL LUV HEARTS0000003000+00001314+00000+0001T   00001314+0000001413          1400 DG8150               1AZ
220676006220676903-000155     220676006009803374435SWT LOLLY I LUV U HEART0000003000+00000525+00000+0001T   00000525+0000001413          1400 DG8150               1AZ
220676007220676903-000111     220676006001704006378SWT LIQUORICE-TWISTS   0000001000+00001227+00000+0001T   00001227+0000001413          1400 DG8150               1AZ
220676008220676903-000090     220676006009826020821SWT GS CHOCO COINS 60g 0000001000+00002104+00000+0001T   00002104+0000001413          1400 DG8150               1AZ
220677000220677               220677               170213FP     1400+00000+FP0000004385+0000004385+000000000+000000614+0000004990+0000000009+I20000000000+0000004990+Z
220677001220677082-000120     220677006003000360727READING GLS STRENGTH:3 0000001000+00004385+00000+0001T   00004385+0000001416          1400 DG8160               1AZ
220678000220678               220678               170213FP     1400+00000+FP0000001578+0000001578+000000000+000000221+0000001790+0000000009+I20000000000+0000001790+Z
220678001220678018-000127     220678006001023380289MUG OCC STRAIGHT LOVE  0000001000+00001578+00000+0001T   00001753+0006471437          1400 DG8515               1AZ
220679000220679               220679               170213FP     1400+00000+FP0000006138+0000006138+000000000+000000860+0000006990+0000000008+I20000000000+0000006990+Z
220679001220679220-005003     220679006003000566150ELOFF TEASPOONS 4PC    0000001000+00001753+00000+0001T   00001753+0000001441          1400 DG8300               1AZ
220679002220679009-001506     220679006001023696090MELAMINE TRAY 39x29cm  0000001000+00004385+00000+0001T   00004385+0000001441          1400 DG8210               1AZ
220680000220680               220680               170213FP     1400+00000+FP0000002628+0000002628+000000000+000000368+0000002996+0000000000+I40000002996+0000000000+Z
220680001220680077-000310     220680006001023608635GIFT-BAG 18X23CM GLOSS 0000002000+00001314+00000+0001T   00001314+0000001444          1400 DG8112               1AZ
220681000220681               220681               170213FP     1400+00000+FP0000011402+0000011402+000000000+000001597+0000012999+0000000000+I40000012999+0000000000+Z
220681001220681104-000140     220681006002923019835WASTEPAPER BIN FLIP 24L0000001000+00011402+00000+0001T   00011402+0000001447          1400 DG8210               1AZ
220682000220682               220682               170213FP     1400+00000+FP0000003067+0000003067+000000000+000000430+0000003490+0000000007+I20000000000+0000003490+Z
220682001220682046-002013-PK6 220682004897006174851BATTERY BUTTON AG13 6PC0000001000+00001753+00000+0001T   00001753+0000001450          1400 DG8312               1AZ
220682002220682046-000012     220682006904708013062BATTERIES AA  CARD-OF-40000001000+00001314+00000+0001T   00001314+0000001450          1400 DG8312               1AZ
220683000220683               220683               170213FP     1400+00000+FP0000003506+0000003506+000000000+000000492+0000003990+0000000008+I20000000000+0000003990+Z
220683001220683084-006995     220683006003000092802NAIL CLIPPER 8cm TOE   0000001000+00001753+00000+0001T   00001753+0000001526          1400 DG8200               1AZ
220683002220683006-000120     220683006001023346889BALLOONS 10PC MIX COL  0000001000+00001753+00000+0001T   00001753+0000001526          1400 DG8131               1AZ
220684000220684               220684               170213FP     1400+00000+FP0000008769+0000008769+000000000+000001229+0000009990+0000000008+I20000000000+0000009990+Z
220684001220684077-000270     220684006003000395453GIFT-BAG PPR JMB 33X45 0000001000+00002630+00000+0001T   00002630+0000001528          1400 DG8112               1AZ
220684002220684018-050000     220684006003000412679MUG OCC LOVE TWIN BEAR 0000001000+00006139+00000+0001T   00006139+0000001528          1400 DG8515               1AZ
220685000220685               220685               170213FP     1400+00000+FP0000001753+0000001753+000000000+000000246+0000001990+0000000009+I20000000000+0000001990+Z
220685001220685301-085002     220685006003000420704ORN OCC. LOVE BELL ASST0000001000+00001753+00000+0001T   00002630+0008121528          1400 DG8505               1AZ
220686000220686               220686               170213FP     1400+00000+FP0000004997+0000004997+000000000+000000700+0000005697+0000000000+I40000005697+0000000000+Z
220686001220686105-001025-A   220686006009654960979CONTAINERS CLEAR 4PCE  0000001000+00001928+00000+0001T   00001928+0000001542          1400 DG8210               1AZ
220686002220686105-001025     220686006009654960771CONTAINERS CLEAR 4PCE  0000001000+00003069+00000+0001T   00003069+0000001542          1400 DG8210               1AZ
220687000220687               220687               170213FP     1400+00000+FP0000003507+0000003507+000000000+000000491+0000003998+0000000000+I40000003998+0000000000+Z
220687001220687089-000200     220687006003000485840KEY CHAIN POLY LOVE IS 0000001000+00003507+00000+0001T   00004385+0008121543          1400 DG8205               1AZ
220688000220688               220688               170213FP     1400+00000+FP0000005295+0000005295+000000000+000000742+0000006030+0000000007+I20000000000+0000006030+Z
220688001220688030-000039     220688006003000465873PLAQUE ORN SENTIMENT   0000001000+00003946+00000+0001T   00005262+0008121545          1400 DG8505               1AZ
220688002220688077-000312     220688006001023608697GIFT-BAG 10X35CM GLOSS 0000001000+00001314+00000+0001T   00001314+0000001545          1400 DG8112               1AZ
220688003220688112-116038     220688006009681820246TCS CARRIER BAG MIDI   0000001000+00000035+00000+0001T   00000035+0000001545          1400 DG8090               1AZ
220689000220689               220689               170213FP     1400+00000+FP0000004856+0000004856+000000000+000000680+0000005530+0000000006+I20000000000+0000005530+Z
220689001220689018-000136     220689006001023659026MUG OCC LOVE W/PLUSH   0000001000+00003507+00000+0001T   00003507+0000001547          1400 DG8515               1AZ
220689002220689077-000310     220689006001023608635GIFT-BAG 18X23CM GLOSS 0000001000+00001314+00000+0001T   00001314+0000001547          1400 DG8112               1AZ
220689003220689112-116038     220689006009681820246TCS CARRIER BAG MIDI   0000001000+00000035+00000+0001T   00000035+0000001547          1400 DG8090               1AZ
220690000220690               220690               170213FP     1400+00000+FP0000003104+0000003104+000000000+000000435+0000003530+0000000009+I20000000000+0000003530+Z
220690001220690079-000271     220690006003000160082PAINT-BRUSHES LRGE ART 0000001000+00003069+00000+0001T   00003069+0000001548          1400 DG8130               1AZ
220690002220690112-116038     220690006009681820246TCS CARRIER BAG MIDI   0000001000+00000035+00000+0001T   00000035+0000001548          1400 DG8090               1AZ
220691000220691               220691               170213FP     1400+00000+FP0000008594+0000008594+000000000+000001204+0000009790+0000000008+I20000000000+0000009790+Z
220691001220691306-001660     220691006003000620579NAIL DRYING MACHINE    0000001000+00007016+00000+0001T   00007016+0000001601          1400 DG8200               1AZ
220691002220691077-000303     220691006001023593757GIFT-BAG PAPER MED     0000001000+00001578+00000+0001T   00001578+0000001601          1400 DG8112               1AZ
220692000220692               220692               170213FP     1400+00000+FP0000019297+0000019297+000000000+000002702+0000021999+0000000000+I40000021999+0000000000+Z
220692001220692072-020243     220692006003000519583PET MAT QUILTED 80x58cm0000001000+00019297+00000+0001T   00019297+0000001604          1400 DG8870               1AZ
220693000220693               220693               170213FP     1400+00000+FP0000005699+0000005699+000000000+000000798+0000006490+0000000007+I20000000000+0000006490+Z
220693001220693018-000130     220693006001023867537MUG OCC LOVE MINI+HEART0000001000+00003507+00000+0001T   00003507+0000001605          1400 DG8515               1AZ
220693002220693080-000127     220693006003000424351VALENTINES DAY 36x24CM 0000001000+00002192+00000+0001T   00002192+0000001605          1400 DG8112               1AZ
220694000220694               220694               170213FP     1400+00000+FP0000001753+0000001753+000000000+000000246+0000001990+0000000009+I20000000000+0000001990+Z
220694001220694080-000111     220694006003000252695CARD&ENVELPE - MUSICAL 0000001000+00001753+00000+0001T   00001753+0000001611          1400 DG8112               1AZ
220695000220695               220695               170213FP     1400+00000+FP0000012059+0000012059+000000000+000001689+0000013740+0000000008+B00000000000+0000000000+Z
220695001220695031-000923     220695006001023669933P/FRAME BLK W/WORDS    0000001000+00003507+00000+0001T   00003507+000000              1400 DG8510               1AZ
220695002220695089-000018     220695006003000176724KEY CHAIN INSPIRATION  0000001000+00003507+00000+0001T   00003507+000000              1400 DG8205               1AZ
220695003220695018-005009     220695006001023725608MUG W/PLUSH-BEAR LOVE  0000001000+00003507+00000+0001T   00003507+000000              1400 DG8515               1AZ
220695004220695077-000299     220695006003000395576G/BAG 32x25cm LRG LOVE 0000001000+00001490+00000+0001T   00001490+000000              1400 DG8112               1AZ
220695005220695112-116069     220695006009681820277TCS CARRIER BAG JUMBO  0000001000+00000048+00000+0001T   00000048+000000              1400 DG8090               1AZ
220696000220696               220696               170213FP     1400+00000+FP0000002630+0000002630+000000000+000000369+0000002990+0000000009+I20000000000+0000002990+Z
220696001220696079-001002     220696006003000448715CANVAS A4 WOOD MOUNTED 0000001000+00002630+00000+0001T   00002630+0000001620          1400 DG8130               1AZ
220697000220697               220697               170213FP     1400+00000+FP0000001225+0000001225+000000000+000000173+0000001390+0000000008+I20000000000+0000001390+Z
220697001220697903-000200     220697006009826020234SWT CHOC RP CHOCO 23G  0000001000+00000788+00000+0001T   00000788+0000001621          1400 DG8150               1AZ
220697002220697080-000133-A   220697006003000647019MINI VALENTINES CARD   0000001000+00000437+00000+0001T   00000437+0000001621          1400 DG8112               1AZ
220698000220698               220698               170213FP     1400+00000+FP0000001314+0000001314+000000000+000000184+0000001490+0000000008+I20000000000+0000001490+Z
220698001220698077-000470     220698006003000330171G-BAG DESGN SML 11X14CM0000001000+00001314+00000+0001T   00001314+0000001622          1400 DG8112               1AZ
220699000220699               220699               170213FP     1400+00000+FP0000001578+0000001578+000000000+000000221+0000001790+0000000009+I20000000000+0000001790+Z
220699001220699077-000303     220699006001023593757GIFT-BAG PAPER MED     0000001000+00001578+00000+0001T   00001578+0000001626          1400 DG8112               1AZ
220700000220700               220700               170213FP     1400+00000+FP0000004821+0000004821+000000000+000000676+0000005490+0000000007+I20000000000+0000005490+Z
220700001220700018-000127     220700006001023380289MUG OCC STRAIGHT LOVE  0000001000+00001578+00000+0001T   00001753+0006471627          1400 DG8515               1AZ
220700002220700077-000270     220700006003000395453GIFT-BAG PPR JMB 33X45 0000001000+00002630+00000+0001T   00002630+0000001627          1400 DG8112               1AZ
220700003220700304-001011     220700006001023806727FLWR ROSE RED W/BEAR   0000001000+00000613+00000+0001T   00000788+0006471627          1400 DG8510               1AZ
220701000220701               220701               170213FP     1400+00000+FP0000003640+0000003640+000000000+000000511+0000004151+0000000000+I40000004151+0000000000+Z
220701001220701077-000457     220701006003000285662G/BAG METALLIC JMB SOL 0000001000+00001753+00000+0001T   00001753+0000001630          1400 DG8112               1AZ
220701002220701304-001011     220701006001023806727FLWR ROSE RED W/BEAR   0000003000+00000613+00000+0001T   00000788+0006471630          1400 DG8510               1AZ
220701003220701112-116069     220701006009681820277TCS CARRIER BAG JUMBO  0000001000+00000048+00000+0001T   00000048+0000001630          1400 DG8090               1AZ
220702000220702               220702               170213FP     1400+00000+FP0000000000+0000000000+000000000+000000000+0000000000+0000000000+ 00000000000+0000000000+Z
220703000220703               220703               170213FP     1400+00000+FP0000015373+0000015373+000000000+000002157+0000017530+0000000000+I20000000000+0000017530+Z
220703001220703304-001011     220703006001023806727FLWR ROSE RED W/BEAR   0000025000+00000613+00000+0001T   00000788+0006471640          1400 DG8510               1AZ
220703002220703112-116069     220703006009681820277TCS CARRIER BAG JUMBO  0000001000+00000048+00000+0001T   00000048+0000001640          1400 DG8090               1AZ
A17021300                                          07573340FPSLAVE 1                       DG81IC
A17021301                                          09053242FPSLAVE 1                       DG81IC
M17021301                              SHIEHAAM    FPHARRISMITH  FP                                  SLAVE    1                                      BANKABLE    R                                   CARDS       R 1806.34                           Z/READING   R 4620.84                                                                           SLAVE   2                                       BANKABLE    R 1752.10                           CARDS       R 1432.65                           Z/READING   R 3276.55                                                                           THANK YOU
M17021391                              CASH        FPSLAVE 1                       Z-REPORT No.   468TOTAL (Sales - Refunds)           4620.84       CASH TO BE BANKED                 2814.50       DEBIT CARDS                       1806.34       CREDIT CARDS                         0.00       Z-READING                         4620.84       AIRTIME DEBIT CARD SALES             0.00       AIRTIME CARD SALES                   0.00       OVERS/UNDERS                         0.00       AIRTIME CASH SALES                   0.00       GIFT CARDS                           0.00       GIFT CARD CASH SALES                 0.00       T O T A L  CASH PAYOUTS              0.00                                                                                                                                                                                                                                                                                                                                                      Z
M17021392                              CASH        FPABSENT                                                                                                                                                                                          ANNUAL LEAVE                                                                                                                                                                                    DAY OFF                                                                                                                                                                                         COMMENTS                                                                                                                                                                                                                                                                                                                                                                                       Z
Y17021300                                          FP00000000406155+000061
ZFP17021319383 SLAVE 1      SALES DATA                     NEXT INVOICE NO.  220704 0468
X FP Slave 1 First invoice 220641 170213 Last invoice 220703 170213 Next invoice 220704 Total number of records 000000213 clbackup completed 19:38:37
