230088000230088               230088               170213FP     1400+00000+FP0000004385+0000004385+000000000+000000614+0000004990+0000000009+I20000000000+0000004990+Z
230088001230088001-000175     230088006001023788108B/MUG GLS LOVE 380ML   0000001000+00004385+00000+0001T   00004385+0000000935          1400 PR1515               2AZ
230089000230089               230089               170213FP     1400+00000+FP0000000035+0000000035+000000000+000000005+0000000040+0000000000+I20000000000+0000000040+Z
230089001230089112-116038     230089006009681820246TCS CARRIER BAG MIDI   0000001000+00000035+00000+0001T   00000035+0000000936          1400 PR1090               2AZ
230090000230090               230090               170213FP     1400+00000+FP0000032754+0000032754+000000000+000004588+0000037342+0000000000+I40000037342+0000000000+Z
230090001230090075-001003     230090006003000622689HAT LADIES VISOR STYLE 0000001000+00004385+00000+0001T   00004385+0000001104          1400 PR1160               2AZ
230090002230090031-005853     230090006003000442416P/FRAME WDN TWIN HEARTS0000001000+00003507+00000+0001T   00003507+0000001104          1400 PR1510               2AZ
230090003230090108-003023     230090006003000665471TUMBLER W/STRAW 550ml  0000002000+00002630+00000+0001T   00002630+0000001104          1400 PR1210               2AZ
230090004230090001-091415     230090006003000329113W/GLS OCC. LOVE 2PC 2800000001000+00008771+00000+0001T   00009648+0006471104          1400 PR1515               2AZ
230090005230090106-000899     230090006003000653287WTR BOTTLE 2L W/HANDLE 0000001000+00003069+00000+0001T   00003507+0008191104          1400 PR1210               2AZ
230090006230090567-010900     230090006003000572311BOOK NON-FICTION ASSTD 0000002000+00003507+00000+0001T   00004385+0008131104          1400 PR1757               2AZ
230090007230090112-116069     230090006009681820277TCS CARRIER BAG JUMBO  0000001000+00000048+00000+0001T   00000048+0000001104          1400 PR1090               2AZ
230090008230090306-000023-A   230090006003000110148COTTON WOOL BALLS 50PCE0000001000+00000700+00000+0001T   00001314+0008171104          1400 PR1200               2AZ
230091000230091               230091               170213FP     1400+00000+FP0000008052-0000008052-000000000+000001128-0000009180-0000000000+I20000000000+0000009180-Z
230091001230091001-999906     230091000000000999906STATIONERY(PHOTOCOPIES)0000001000-00008052+00000+0001T   00000000+0000001108          1400 PR19061IC            2 Z
230092000230092               230092               170213FP     1400+00000+FP0000003028+0000003028+000000000+000000425+0000003450+0000000003+I20000000000+0000003450+Z
230092001230092077-000305     230092006003000395422GIFT-BAG WINE 10X35CM  0000002000+00001490+00000+0001T   00001490+0000001108          1400 PR1112               2AZ
230092002230092112-116069     230092006009681820277TCS CARRIER BAG JUMBO  0000001000+00000048+00000+0001T   00000048+0000001108          1400 PR1090               2AZ
230093000230093               230093               170213FP     1400+00000+FP0000016707+0000016707+000000000+000002340+0000019040+0000000007+I20000000000+0000019040+Z
230093001230093082-000115     230093006003000360604READING GLS STRNGHT:2.50000001000+00004385+00000+0001T   00004385+0000001109          1400 PR1160               2AZ
230093002230093150-012228-H   230093006001023416773DOOR-STOPPERS SET-OF-2 0000001000+00001753+00000+0001T   00001753+0000001109          1400 PR1810               2AZ
230093003230093159-000102     230093006001023552891SHOWER-CADDY 48cm      0000003000+00003507+00000+0001T   00003507+0000001109          1400 PR1200               2AZ
230093004230093112-116069     230093006009681820277TCS CARRIER BAG JUMBO  0000001000+00000048+00000+0001T   00000048+0000001109          1400 PR1090               2AZ
230094000230094               230094               170213FP     1400+00000+FP0000004384+0000004384+000000000+000000614+0000004990+0000000008+I20000000000+0000004990+Z
230094001230094024-091103     230094006003453014307BAKING-CUP MUFFIN 50PCE0000001000+00002192+00000+0001T   00002192+0000001110          1400 PR1300               2AZ
230094002230094024-091102     230094006003453000010BAKING-CUP PAPER 50PC  0000001000+00002192+00000+0001T   00002192+0000001110          1400 PR1300               2AZ
230095000230095               230095               170213FP     1400+00000+FP0000001402+0000001402+000000000+000000197+0000001590+0000000009+I20000000000+0000001590+Z
230095001230095105-001005     230095006001023858214CONTAINERS MINI 6PCE   0000001000+00001402+00000+0001T   00001402+0000001117          1400 PR1210               2AZ
230096000230096               230096               170213FP     1400+00000+FP0000000437+0000000437+000000000+000000062+0000000490+0000000009+I20000000000+0000000490+Z
230096001230096080-000133-A   230096006003000647019MINI VALENTINES CARD   0000001000+00000437+00000+0001T   00000437+0000001130          1400 PR1112               2AZ
230097000230097               230097               170213FP     1400+00000+FP0000002980+0000002980+000000000+000000418+0000003398+0000000000+I40000003398+0000000000+Z
230097001230097046-000004     230097006001023606525BATTERY 9VOLT H/POWER  0000002000+00001490+00000+0001T   00001490+0000001134          1400 PR1312               2AZ
230098000230098               230098               170213FP     1400+00000+FP0000001753+0000001753+000000000+000000246+0000001990+0000000009+I20000000000+0000001990+Z
230098001230098494-059230     230098000078257592302INTEX SWIN RING 51cm   0000001000+00001753+00000+0001T   00001753+0000001144          1400 PR1787               2AZ
230099000230099               230099               170213FP     1400+00000+FP0000009681+0000009681+000000000+000001356+0000011030+0000000007+I20000000000+0000011030+Z
230099001230099018-020000     230099006003000420940MUG OCCASIONS MOM 2PCE 0000001000+00006139+00000+0001T   00006139+0000001214          1400 PR1515               2AZ
230099002230099018-005009     230099006001023725608MUG W/PLUSH-BEAR LOVE  0000001000+00003507+00000+0001T   00003507+0000001214          1400 PR1515               2AZ
230099003230099112-116038     230099006009681820246TCS CARRIER BAG MIDI   0000001000+00000035+00000+0001T   00000035+0000001214          1400 PR1090               2AZ
230100000230100               230100               170213FP     1400+00000+FP0000006174+0000006174+000000000+000000865+0000007030+0000000009+I20000000000+0000007030+Z
230100001230100018-050000     230100006003000412679MUG OCC LOVE TWIN BEAR 0000001000+00006139+00000+0001T   00006139+0000001230          1400 PR1515               2AZ
230100002230100112-116038     230100006009681820246TCS CARRIER BAG MIDI   0000001000+00000035+00000+0001T   00000035+0000001230          1400 PR1090               2AZ
230101000230101               230101               170213FP     1400+00000+FP0000026354+0000026354+000000000+000003692+0000030040+0000000006+I20000000000+0000030040+Z
230101001230101105-001028     230101006003000675470LUNCH BOX W/CLIPS      0000002000+00003069+00000+0001T   00003069+0000001231          1400 PR1210               2AZ
230101002230101469-006602     230101006003000390328B/BLOCKS 26PC BACKPACK 0000001000+00005262+00000+0001T   00005262+0000001231          1400 PR1755               2AZ
230101003230101469-000800     230101006003000652280BUILDING BLOCKS 9PC    0000001000+00003507+00000+0001T   00003507+0000001231          1400 PR1755               2AZ
230101004230101263-000498     230101006003000473021TRUCK 20cm+TRAILER+CAR 0000001000+00003507+00000+0001T   00003507+0000001231          1400 PR1710               2AZ
230101005230101469-000012     230101006003000303335BUILDING BLOCKS RACERS 0000001000+00002630+00000+0001T   00002630+0000001231          1400 PR1755               2AZ
230101006230101469-000803     230101006003000652686BUILDING BLOCKS        0000001000+00005262+00000+0001T   00005262+0000001231          1400 PR1755               2AZ
230101007230101112-116069     230101006009681820277TCS CARRIER BAG JUMBO  0000001000+00000048+00000+0001T   00000048+0000001231          1400 PR1090               2AZ
230102000230102               230102               170213FP     1400+00000+FP0000019337+0000019337+000000000+000002709+0000022040+0000000006+I20000000000+0000022040+Z
230102001230102016-006517     230102006003000351626S/JAR GLS CHECK 650ML  0000008000+00002192+00000+0001T   00002192+0000001234          1400 PR1300               2AZ
230102002230102903-000211     230102006002099001238SWT GS MALLOW ICE CREAM0000001000+00001753+00000+0001T   00001753+0000001234          1400 PR1150               2AZ
230102003230102112-116069     230102006009681820277TCS CARRIER BAG JUMBO  0000001000+00000048+00000+0001T   00000048+0000001234          1400 PR1090               2AZ
230103000230103               230103               170213FP     1400+00000+FP0000001840+0000001840+000000000+000000258+0000002090+0000000008+I20000000000+0000002090+Z
230103001230103022-002109     230103006001023501745MUG 6cm DEC            0000001000+00001227+00000+0001T   00001227+0000001250          1400 PR1305               2AZ
230103002230103083-000055     230103006003000003853LIGHTER ELCTRNC REFILBL0000001000+00000613+00000+0001T   00000613+0000001250          1400 PR1315               2AZ
230104000230104               230104               170213FP     1400+00000+FP0000025216+0000025216+000000000+000003532+0000028748+0000000000+I40000028748+0000000000+Z
230104001230104004-071267     230104006001023907875LCD CLEANING KIT+CLOTH 0000001000+00003507+00000+0001T   00003507+0000001252          1400 PR1310               2AZ
230104002230104072-020290     230104006003000624010PET CAT TOY ACTIVITY   0000001000+00014034+00000+0001T   00014034+0000001252          1400 PR1870               2AZ
230104003230104306-000004     230104006003000622177THOOTH DENTAL SOFT TIP 0000001000+00003507+00000+0001T   00004385+0008171252          1400 PR1200               2AZ
230104004230104106-008105     230104006009654960566S/DRESSING BOTTLE 500ml0000001000+00001490+00000+0001T   00001490+0000001252          1400 PR1210               2AZ
230104005230104206-000450     230104006003000619863DRINKING JAR GLOBE     0000001000+00002630+00000+0001T   00002630+0000001252          1400 PR1321               2AZ
230104006230104112-116069     230104006009681820277TCS CARRIER BAG JUMBO  0000001000+00000048+00000+0001T   00000048+0000001252          1400 PR1090               2AZ
230105000230105               230105               170213FP     1400+00000+FP0000006083+0000006083+000000000+000000853+0000006936+0000000000+I40000006936+0000000000+Z
230105001230105006-000804     230105006003000574445STREAMERS 6-ROLLS 2.5cm0000001000+00001753+00000+0001T   00001753+0000001334          1400 PR1131               2AZ
230105002230105200-000065     230105006001023323675DRINKING-STRAWS 38PCE  0000001000+00000613+00000+0001T   00000613+0000001334          1400 PR1214               2AZ
230105003230105563-000318-J   230105006003000404728SERVIETTES 33cm YELLOW 0000001000+00002192+00000+0001T   00002192+0000001334          1400 PR1214               2AZ
230105004230105006-000094     230105006003000611089PARTY BANNER BBY SHOWER0000001000+00001490+00000+0001T   00001490+0000001334          1400 PR1131               2AZ
230105005230105112-116038     230105006009681820246TCS CARRIER BAG MIDI   0000001000+00000035+00000+0001T   00000035+0000001334          1400 PR1090               2AZ
230106000230106               230106               170213FP     1400+00000+FP0000004382+0000004382+000000000+000000615+0000004990+0000000007+I20000000000+0000004990+Z
230106001230106077-000239     230106006003000160419GIFT-RIBBON ROLL PEARL 0000002000+00001753+00000+0001T   00001753+0000001340          1400 PR1112               2AZ
230106002230106028-000797     230106006001023812124SKEWERS 15cm 100PCE    0000001000+00000876+00000+0001T   00000876+0000001340          1400 PR1305               2AZ
230107000230107               230107               170213FP     1400+00000+FP0000001753+0000001753+000000000+000000246+0000001990+0000000009+I20000000000+0000001990+Z
230107001230107079-000275     230107006003000160488PAINT-BRUSHES 6PCE PRO 0000001000+00001753+00000+0001T   00001753+0000001411          1400 PR1130               2AZ
230108000230108               230108               170213FP     1400+00000+FP0000002804+0000002804+000000000+000000394+0000000000+0000000000+ 00000000000+0000000000+Z
230108001230108304-001204     230108006001023737984FLOWER OCC. TEDDY/ROSES0000002000+00001402+00000+0001T   00001490+000647              1400 PR15101IC            2 Z
230109000230109               230109               170213FP     1400+00000+FP0000001226+0000001226+000000000+000000172+0000001390+0000000008+I20000000000+0000001390+Z
230109001230109304-001011     230109006001023806727FLWR ROSE RED W/BEAR   0000002000+00000613+00000+0001T   00000788+0006471416          1400 PR1510               2AZ
230110000230110               230110               170213FP     1400+00000+FP0000005260+0000005260+000000000+000000738+0000005990+0000000008+I20000000000+0000005990+Z
230110001230110403-000502-A   230110006003000467099M/BANK TIN 8x12.5cm    0000001000+00002630+00000+0001T   00002630+0000001430          1400 PR1510               2AZ
230110002230110071-003850     230110006001023893253PENCIL 5PCE RAINBOW WDN0000001000+00002630+00000+0001T   00002630+0000001430          1400 PR1130               2AZ
230111000230111               230111               170213FP     1400+00000+FP0000003507+0000003507+000000000+000000491+0000003998+0000000000+I40000003998+0000000000+Z
230111001230111007-000108     230111006009698062097BK COVER ADJUSTABLE A4 0000001000+00003507+00000+0001T   00003507+0000001441          1400 PR1130               2AZ
230112000230112               230112               170213FP     1400+00000+FP0000007677+0000007677+000000000+000001076+0000008750+0000000003+I20000000000+0000008750+Z
230112001230112077-000299     230112006003000395576G/BAG 32x25cm LRG LOVE 0000001000+00001490+00000+0001T   00001490+0000001504          1400 PR1112               2AZ
230112002230112018-050000     230112006003000412679MUG OCC LOVE TWIN BEAR 0000001000+00006139+00000+0001T   00006139+0000001504          1400 PR1515               2AZ
230112003230112112-116069     230112006009681820277TCS CARRIER BAG JUMBO  0000001000+00000048+00000+0001T   00000048+0000001504          1400 PR1090               2AZ
230113000230113               230113               170213FP     1400+00000+FP0000007060+0000007060+000000000+000000991+0000008050+0000000001+I20000000000+0000008050+Z
230113001230113077-000472     230113006003000330133G-BAG DESGNR LRG 25X32 0000002000+00001753+00000+0001T   00001753+0000001506          1400 PR1112               2AZ
230113002230113365-000001     230113006003000395262PLAY SET DOCTORS SET   0000002000+00001753+00000+0001T   00001753+0000001506          1400 PR1725               2AZ
230113003230113112-116069     230113006009681820277TCS CARRIER BAG JUMBO  0000001000+00000048+00000+0001T   00000048+0000001506          1400 PR1090               2AZ
230114000230114               230114               170213FP     1400+00000+FP0000001490+0000001490+000000000+000000209+0000001690+0000000009+I20000000000+0000001690+Z
230114001230114077-000299     230114006003000395576G/BAG 32x25cm LRG LOVE 0000001000+00001490+00000+0001T   00001490+0000001507          1400 PR1112               2AZ
230115000230115               230115               170213FP     1400+00000+FP0000004382+0000004382+000000000+000000615+0000004997+0000000000+I40000004997+0000000000+Z
230115001230115108-003023     230115006003000665471TUMBLER W/STRAW 550ml  0000001000+00002630+00000+0001T   00002630+0000001509          1400 PR1210               2AZ
230115002230115903-000520     230115006001704009898SWT GUMMY MINI SOUR 60g0000002000+00000876+00000+0001T   00000876+0000001509          1400 PR1150               2AZ
230116000230116               230116               170213FP     1400+00000+FP0000001753+0000001753+000000000+000000246+0000001990+0000000009+I20000000000+0000001990+Z
230116001230116079-000275     230116006003000160488PAINT-BRUSHES 6PCE PRO 0000001000+00001753+00000+0001T   00001753+0000001511          1400 PR1130               2AZ
230117000230117               230117               170213FP     1400+00000+FP0000013375+0000013375+000000000+000001874+0000015240+0000000009+I20000000000+0000015240+Z
230117001230117001-000175     230117006001023788108B/MUG GLS LOVE 380ML   0000001000+00004385+00000+0001T   00004385+0000001516          1400 PR1515               2AZ
230117002230117077-000303     230117006001023593757GIFT-BAG PAPER MED     0000001000+00001578+00000+0001T   00001578+0000001516          1400 PR1112               2AZ
230117003230117304-001011     230117006001023806727FLWR ROSE RED W/BEAR   0000002000+00000613+00000+0001T   00000788+0006471516          1400 PR1510               2AZ
230117004230117077-000455     230117006003000285389G/BAG METALLIC LRG SOL 0000001000+00001753+00000+0001T   00001753+0000001516          1400 PR1112               2AZ
230117005230117368-000001     230117006003000097982Plush Bear 25cm        0000001000+00004385+00000+0001T   00004385+0000001516          1400 PR1745               2AZ
230117006230117112-116069     230117006009681820277TCS CARRIER BAG JUMBO  0000001000+00000048+00000+0001T   00000048+0000001516          1400 PR1090               2AZ
230118000230118               230118               170213FP     1400+00000+FP0000000000+0000000000+000000000+000000000+0000000000+0000000000+ 00000000000+0000000000+Z
230119000230119               230119               170213FP     1400+00000+FP0000005260+0000005260+000000000+000000738+0000005990+0000000008+I20000000000+0000005990+Z
230119001230119079-000282     230119006001023493309PAINT TUBS POSTER 12COL0000002000+00002630+00000+0001T   00002630+0000001525          1400 PR1130               2AZ
230120000230120               230120               170213FP     1400+00000+FP0000001753+0000001753+000000000+000000246+0000001990+0000000009+I20000000000+0000001990+Z
230120001230120079-000275     230120006003000160488PAINT-BRUSHES 6PCE PRO 0000001000+00001753+00000+0001T   00001753+0000001535          1400 PR1130               2AZ
230121000230121               230121               170213FP     1400+00000+FP0000013593+0000013593+000000000+000001904+0000015497+0000000000+I40000015497+0000000000+Z
230121001230121368-000049     230121006003000536955PLUSH BEAR 15cm LOVE   0000001000+00004385+00000+0001T   00004385+0000001550          1400 PR1745               2AZ
230121002230121368-000175     230121006003000270316PLUSH BEAR 4 ASSTD 18CM0000001000+00006139+00000+0001T   00006139+0000001550          1400 PR1745               2AZ
230121003230121089-060027     230121006003000245871KEY-CHAIN HEART 6X6cm  0000001000+00003069+00000+0001T   00003069+0000001550          1400 PR1205               2AZ
230122000230122               230122               170213FP     1400+00000+FP0000001576+0000001576+000000000+000000222+0000001790+0000000008+I20000000000+0000001790+Z
230122001230122903-000200     230122006009826020234SWT CHOC RP CHOCO 23G  0000002000+00000788+00000+0001T   00000788+0000001551          1400 PR1150               2AZ
230123000230123               230123               170213FP     1400+00000+FP0000005251+0000005251+000000000+000000736+0000005987+0000000000+I40000005987+0000000000+Z
230123001230123903-002890     230123008935001721352MENTOS GUM PURE F/MINT 0000001000+00001051+00000+0001T   00001051+0000001631          1400 PR1150               2AZ
230123002230123018-000177     230123006001023797513MUG MINI LOVE ASSTD    0000006000+00000700+00000+0001T   00000700+0000001631          1400 PR1515               2AZ
230124000230124               230124               170213FP     1400+00000+FP0000002804+0000002804+000000000+000000394+0000003190+0000000008+I20000000000+0000003190+Z
230124001230124304-001204     230124006001023737984FLOWER OCC. TEDDY/ROSES0000002000+00001402+00000+0001T   00001490+0006471644          1400 PR1510               2AZ
230125000230125               230125               170213FP     1400+00000+FP0000000876+0000000876+000000000+000000123+0000000990+0000000009+I20000000000+0000000990+Z
230125001230125027-000239     230125006001246634152MOP SWIFTA REFILLS 12PC0000001000+00000876+00000+0001T   00000876+0000001645          1400 PR1212               2AZ
230126000230126               230126               170213FP     1400+00000+FP0000013157+0000013157+000000000+000001842+0000014999+0000000000+I40000014999+0000000000+Z
230126001230126567-075700     230126006003000339389BOOK NOVEL 3-PACK ASSTD0000001000+00013157+00000+0001T   00013157+0000001647          1400 PR1757               2AZ
230127000230127               230127               170213FP     1400+00000+FP0000002890+0000002890+000000000+000000405+0000003290+0000000005+I20000000000+0000003290+Z
230127001230127903-000120     230127006002099001665SWEET GS ZILLIONS 50g  0000001000+00000700+00000+0001T   00000700+0000001647          1400 PR1150               2AZ
230127002230127903-000520     230127006001704009898SWT GUMMY MINI SOUR 60g0000001000+00000876+00000+0001T   00000876+0000001647          1400 PR1150               2AZ
230127003230127903-000844     230127005010478432567SWT CANDY DL LUV HEARTS0000001000+00001314+00000+0001T   00001314+0000001647          1400 PR1150               2AZ
230128000230128               230128               170213FP     1400+00000+FP0000009238+0000009238+000000000+000001296+0000010534+0000000000+I40000010534+0000000000+Z
230128001230128903-000087     230128006001704000161SWT SPECKLED-EGGS 50G  0000001000+00001139+00000+0001T   00001139+0000001650          1400 PR1150               2AZ
230128002230128056-005748     230128006003000491797CAR AIR-FRESH HATS ASST0000001000+00002630+00000+0001T   00002630+0000001650          1400 PR1860               2AZ
230128003230128018-005009     230128006001023725608MUG W/PLUSH-BEAR LOVE  0000001000+00003507+00000+0001T   00003507+0000001650          1400 PR1515               2AZ
230128004230128071-005214     230128006003000152544CELLOTAPE SUPER REFILL 0000001000+00001490+00000+0001T   00001490+0000001650          1400 PR1130               2AZ
230128005230128112-116038     230128006009681820246TCS CARRIER BAG MIDI   0000001000+00000035+00000+0001T   00000035+0000001650          1400 PR1090               2AZ
230128006230128080-000133-A   230128006003000647019MINI VALENTINES CARD   0000001000+00000437+00000+0001T   00000437+0000001650          1400 PR1112               2AZ
230129000230129               230129               170213FP     1400+00000+FP0000000788+0000000788+000000000+000000111+0000000890+0000000009+I20000000000+0000000890+Z
230129001230129903-000200     230129006009826020234SWT CHOC RP CHOCO 23G  0000001000+00000788+00000+0001T   00000788+0000001650          1400 PR1150               2AZ
230130000230130               230130               170213FP     1400+00000+FP0000001578+0000001578+000000000+000000221+0000001790+0000000009+I20000000000+0000001790+Z
230130001230130077-000303     230130006001023593757GIFT-BAG PAPER MED     0000001000+00001578+00000+0001T   00001578+0000001652          1400 PR1112               2AZ
230131000230131               230131               170213FP     1400+00000+FP0000009497+0000009497+000000000+000001332+0000010829+0000000000+I40000010829+0000000000+Z
230131001230131903-000494     230131006001704009911SWT GUMMY TEENY TEDDIES0000002000+00000876+00000+0001T   00000876+0000001657          1400 PR1150               2AZ
230131002230131903-000095     230131006001704011495SWT SPECKLED-EGGS 100G 0000001000+00002104+00000+0001T   00002104+0000001657          1400 PR1150               2AZ
230131003230131903-000120     230131006002099001665SWEET GS ZILLIONS 50g  0000002000+00000700+00000+0001T   00000700+0000001657          1400 PR1150               2AZ
230131004230131903-000220     230131006001704007368SWT JELLY BEANS 60G    0000002000+00000876+00000+0001T   00000876+0000001657          1400 PR1150               2AZ
230131005230131903-000518     230131006001704012782SWT STRAWS S/BERRY 100g0000001000+00001227+00000+0001T   00001227+0000001657          1400 PR1150               2AZ
230131006230131903-000519     230131006001704012805SWT MS LIQ-O-GHETTI    0000001000+00001227+00000+0001T   00001227+0000001657          1400 PR1150               2AZ
230131007230131112-116038     230131006009681820246TCS CARRIER BAG MIDI   0000001000+00000035+00000+0001T   00000035+0000001657          1400 PR1090               2AZ
230132000230132               230132               170213FP     1400+00000+FP0000000700+0000000700+000000000+000000098+0000000790+0000000008+I20000000000+0000000790+Z
230132001230132018-000177     230132006001023797513MUG MINI LOVE ASSTD    0000001000+00000700+00000+0001T   00000700+0000001700          1400 PR1515               2AZ
230133000230133               230133               170213FP     1400+00000+FP0000004208+0000004208+000000000+000000590+0000004790+0000000008+I20000000000+0000004790+Z
230133001230133077-000303     230133006001023593757GIFT-BAG PAPER MED     0000001000+00001578+00000+0001T   00001578+0000001701          1400 PR1112               2AZ
230133002230133497-068672     230133000078257686728AIR-PILLOW 43x28cm     0000001000+00002630+00000+0001T   00002630+0000001701          1400 PR1787               2AZ
A17021300                                          08432465FPSLAVE 2                       PR11IC
A17021301                                          09051424FPSLAVE 2                       PR11IC
M17021391                              CASH        FPSLAVE 2                       Z-REPORT No.   529TOTAL (Sales - Refunds)           3276.55       CASH TO BE BANKED                 1752.10       DEBIT CARDS                       1432.65       CREDIT CARDS                         0.00       Z-READING                         3184.75       AIRTIME DEBIT CARD SALES             0.00       AIRTIME CARD SALES                   0.00       OVERS/UNDERS                         0.00       AIRTIME CASH SALES                   0.00       GIFT CARDS                           0.00       GIFT CARD CASH SALES                 0.00       STATIONERY(PHOTOCOPIES)             91.80       T O T A L  CASH PAYOUTS             91.80                                                                                                                                                                                                                                                                                                      Z
M17021392                              CASH        FPABSENT                                                                                                                                                                                          ANNUAL LEAVE                                                                                                                                                                                    DAY OFF                                                                                                                                                                                         COMMENTS                                                                                                                                                                                                                                                                                                                                                                                       Z
Y17021300                                          FP00000000287584+000043
ZFP17021319383 SLAVE 2      SALES DATA                     NEXT INVOICE NO.  230134 0529
X FP Slave 2 First invoice 230088 170213 Last invoice 230133 170213 Next invoice 230134 Total number of records 000000159 clbackup completed 19:38:39
