112413000112413               112413               170213FS     1400+00000+FS0000002454+0000002454+000000000+000000344+0000002790+0000000008+I20000000000+0000002790+Z
112413001112413007-000206     112413006009635830215X/PAD 80-SHEETS PUNCHED0000002000+00001227+00000+0001T   00001227+0000000901          1400 VR7130               1AZ
112414000112414               112414               170213FS     1400+00000+FS0000002630+0000002630+000000000+000000369+0000002999+0000000000+I40000002999+0000000000+Z
112414001112414004-071192     112414006003000528813USB CABLE 1.0m         0000001000+00002630+00000+0001T   00002630+0000000919          1400 VR7310               1AZ
112415000112415               112415               170213FS     1400+00000+FS0000001490+0000001490+000000000+000000209+0000001690+0000000009+I20000000000+0000001690+Z
112415001112415055-009258     112415006001023426215P/HOOK+PIN 2PNx7PCE H&H0000001000+00001490+00000+0001T   00001490+0000000954          1400 VR7810               1AZ
112416000112416               112416               170213FS     1400+00000+FS0000001227+0000001227+000000000+000000172+0000001399+0000000000+I40000001399+0000000000+Z
112416001112416206-000630     112416006003000631919SPECTACLE CLEANING BRUS0000001000+00001227+00000+0001T   00001227+0000001023          1400 VR7321               1AZ
112417000112417               112417               170213FS     1400+00000+FS0000005257+0000005257+000000000+000000739+0000005990+0000000006+I20000000000+0000005990+Z
112417001112417039-000024     112417006003000286300C/TAPERED 25CM M/WHITE 0000003000+00001051+00000+0001T   00001051+0000001026          1400 VR7510               1AZ
112417002112417903-000095     112417006001704011495SWT SPECKLED-EGGS 100G 0000001000+00002104+00000+0001T   00002104+0000001026          1400 VR7150               1AZ
112418000112418               112418               170213FS     1400+00000+FS0000005262+0000005262+000000000+000000737+0000005999+0000000000+I40000005999+0000000000+Z
112418001112418267-000250     112418006001023892386PUZZLE 500pc LANDSCAPE 0000001000+00005262+00000+0001T   00005262+0000001031          1400 VR7755               1AZ
112419000112419               112419               170213FS     1400+00000+FS0000002678+0000002678+000000000+000000376+0000003050+0000000004+I20000000000+0000003050+Z
112419001112419051-600655     112419006003000422067PLANTER W/TRAY 20x20x160000001000+00002630+00000+0001T   00002630+0000001033          1400 VR7820               1AZ
112419002112419112-116069     112419006009681820277TCS CARRIER BAG JUMBO  0000001000+00000048+00000+0001T   00000048+0000001033          1400 VR7090               1AZ
112420000112420               112420               170213FS     1400+00000+FS0000001753+0000001753+000000000+000000246+0000001990+0000000009+I20000000000+0000001990+Z
112420001112420077-000354     112420006003000139224GIFT-BAG 25X32CM H/MADE0000001000+00001753+00000+0001T   00001753+0000001034          1400 VR7112               1AZ
112421000112421               112421               170213FS     1400+00000+FS0000003857+0000003857+000000000+000000541+0000004390+0000000008+I20000000000+0000004390+Z
112421001112421206-000600     112421006003000631551TOILET PAPER SUDUKO    0000001000+00002630+00000+0001T   00002630+0000001040          1400 VR7321               1AZ
112421002112421206-000630     112421006003000631919SPECTACLE CLEANING BRUS0000001000+00001227+00000+0001T   00001227+0000001040          1400 VR7321               1AZ
112422000112422               112422               170213FS     1400+00000+FS0000008801+0000008801+000000000+000001235+0000010036+0000000000+I40000010036+0000000000+Z
112422001112422466-000515     112422006001023477408BALLS TENNIS BAG-OF-3  0000001000+00002630+00000+0001T   00002630+0000001048          1400 VR7785               1AZ
112422002112422083-000058     112422006003000400331LIGHTER JET CIGAR REFIL0000002000+00002630+00000+0001T   00002630+0000001048          1400 VR7315               1AZ
112422003112422083-000295     112422006001023898562LIGHTER-GAS BUTANE 18ml0000001000+00000876+00000+0001T   00000876+0000001048          1400 VR7315               1AZ
112422004112422112-116038     112422006009681820246TCS CARRIER BAG MIDI   0000001000+00000035+00000+0001T   00000035+0000001048          1400 VR7090               1AZ
112423000112423               112423               170213FS     1400+00000+FS0000003507+0000003507+000000000+000000491+0000003998+0000000000+I40000003998+0000000000+Z
112423001112423133-000017     112423006003000525171CLEANING-CLOTHS 5PCE   0000001000+00003507+00000+0001T   00003507+0000001053          1400 VR7212               1AZ
112424000112424               112424               170213FS     1400+00000+FS0000001753+0000001753+000000000+000000246+0000001990+0000000009+I20000000000+0000001990+Z
112424001112424007-000551     112424006001023848079NOTE-PAD SHOP-LIST ASST0000001000+00001753+00000+0001T   00001753+0000001123          1400 VR7130               1AZ
112425000112425               112425               170213FS     1400+00000+FS0000004935+0000004935+000000000+000000691+0000005626+0000000000+I40000005626+0000000000+Z
112425001112425018-000177     112425006001023797513MUG MINI LOVE ASSTD    0000007000+00000700+00000+0001T   00000700+0000001131          1400 VR7515               1AZ
112425002112425112-116038     112425006009681820246TCS CARRIER BAG MIDI   0000001000+00000035+00000+0001T   00000035+0000001131          1400 VR7090               1AZ
112426000112426               112426               170213FS     1400+00000+FS0000002630+0000002630+000000000+000000369+0000002990+0000000009+I20000000000+0000002990+Z
112426001112426463-000366     112426006001023789136SWIM W/NOODLE 150cm    0000001000+00002630+00000+0001T   00002630+0000001134          1400 VR7785               1AZ
112427000112427               112427               170213FS     1400+00000+FS0000001227+0000001227+000000000+000000172+0000001390+0000000009+I20000000000+0000001390+Z
112427001112427077-000245     112427006001023759214GIFT-RIBBON METALLICx2 0000001000+00001227+00000+0001T   00001227+0000001145          1400 VR7112               1AZ
112428000112428               112428               170213FS     1400+00000+FS0000002135+0000002135+000000000+000000299+0000002430+0000000004+I20000000000+0000002430+Z
112428001112428018-000177     112428006001023797513MUG MINI LOVE ASSTD    0000003000+00000700+00000+0001T   00000700+0000001147          1400 VR7515               1AZ
112428002112428112-116038     112428006009681820246TCS CARRIER BAG MIDI   0000001000+00000035+00000+0001T   00000035+0000001147          1400 VR7090               1AZ
112429000112429               112429               170213FS     1400+00000+FS0000000613+0000000613+000000000+000000086+0000000690+0000000009+I20000000000+0000000690+Z
112429001112429077-000311     112429006001023608666GIFT-BAG 11X14CM GLOSS 0000001000+00000613+00000+0001T   00000613+0000001150          1400 VR7112               1AZ
112430000112430               112430               170213FS     1400+00000+FS0000002489+0000002489+000000000+000000349+0000002830+0000000008+I20000000000+0000002830+Z
112430001112430018-000127     112430006001023380289MUG OCC STRAIGHT LOVE  0000001000+00001578+00000+0001T   00001753+0006471206          1400 VR7515               1AZ
112430002112430077-000151     112430006008766114676GIFT-WRAP C/PHANE ASSTD0000001000+00000876+00000+0001T   00000876+0000001206          1400 VR7112               1AZ
112430003112430112-116038     112430006009681820246TCS CARRIER BAG MIDI   0000001000+00000035+00000+0001T   00000035+0000001206          1400 VR7090               1AZ
112431000112431               112431               170213FS     1400+00000+FS0000008770+0000008770+000000000+000001228+0000009998+0000000000+I40000009998+0000000000+Z
112431001112431263-091238     112431006003000298471VEHICLE MILITARY TRUCK 0000001000+00004385+00000+0001T   00004385+0000001211          1400 VR7710               1AZ
112431002112431365-004002     112431006001023657992KITCHEN-SET ACCESSORIES0000001000+00004385+00000+0001T   00004385+0000001211          1400 VR7725               1AZ
112432000112432               112432               170213FS     1400+00000+FS0000004066+0000004066+000000000+000000571+0000004637+0000000000+I40000004637+0000000000+Z
112432001112432105-000750     112432006003000190270CONTAINERS 4xMINI 150ml0000001000+00001402+00000+0001T   00001402+0000001217          1400 VR7210               1AZ
112432002112432133-000012     112432006001023561084CLEANING-CLOTH GREEN   0000001000+00001753+00000+0001T   00001753+0000001217          1400 VR7212               1AZ
112432003112432078-000025     112432008887013700064SUPERGLUE 3g 1PCE CARD 0000001000+00000876+00000+0001T   00000876+0000001217          1400 VR7810               1AZ
112432004112432112-116038     112432006009681820246TCS CARRIER BAG MIDI   0000001000+00000035+00000+0001T   00000035+0000001217          1400 VR7090               1AZ
112433000112433               112433               170213FS     1400+00000+FS0000040439+0000040439+000000000+000005663+0000046102+0000000000+I40000046102+0000000000+Z
112433001112433012-000020     112433006003000442102M/WAVE STEAMER 2-TIER  0000001000+00008771+00000+0001T   00008771+0000001224          1400 VR7300               1AZ
112433002112433203-000006     112433006001023752789COASTER-SET 4PCE       0000001000+00007016+00000+0001T   00008771+0008191224          1400 VR7300               1AZ
112433003112433567-011344     112433006003000630714BK COLOURING THERAPY 640000002000+00003507+00000+0001T   00003507+0000001224          1400 VR7757               1AZ
112433004112433031-000924     112433006001023669964P/FRAME COLLAGE PL     0000002000+00008771+00000+0001T   00008771+0000001224          1400 VR7510               1AZ
112433005112433112-116069     112433006009681820277TCS CARRIER BAG JUMBO  0000002000+00000048+00000+0001T   00000048+0000001224          1400 VR7090               1AZ
112434000112434               112434               170213FS     1400+00000+FS0000006523+0000006523+000000000+000000914+0000007430+0000000007+I20000000000+0000007430+Z
112434001112434077-000322     112434006001023677532GIFT-BAG 18X23CM E/D FL0000001000+00001227+00000+0001T   00001227+0000001225          1400 VR7112               1AZ
112434002112434003-008018     112434006003000252336ORN SIGN FLOWER GARDEN 0000001000+00003069+00000+0001T   00003069+0000001225          1400 VR7505               1AZ
112434003112434046-000012-A   112434006003000208296BATTERIES H/POWER SZ:AA0000001000+00002192+00000+0001T   00002192+0000001225          1400 VR7312               1AZ
112434004112434112-116038     112434006009681820246TCS CARRIER BAG MIDI   0000001000+00000035+00000+0001T   00000035+0000001225          1400 VR7090               1AZ
112435000112435               112435               170213FS     1400+00000+FS0000013199+0000013199+000000000+000001851+0000015050+0000000000+I20000000000+0000015050+Z
112435001112435159-000800     112435006001023167972BATHMAT ANTI-SLIP      0000001000+00002630+00000+0001T   00002630+0000001238          1400 VR7200               1AZ
112435002112435072-020357     112435006001023748089PUPPY/CAT BOWL PL DBL  0000001000+00002630+00000+0001T   00002630+0000001238          1400 VR7870               1AZ
112435003112435079-001001     112435006003000448593CANVAS A3 WOOD MOUNTED 0000001000+00004385+00000+0001T   00004385+0000001238          1400 VR7130               1AZ
112435004112435079-003000     112435006003000448838A/TUBE 75ML WHITE      0000001000+00001753+00000+0001T   00001753+0000001238          1400 VR7130               1AZ
112435005112435079-000275     112435006003000160488PAINT-BRUSHES 6PCE PRO 0000001000+00001753+00000+0001T   00001753+0000001238          1400 VR7130               1AZ
112435006112435112-116069     112435006009681820277TCS CARRIER BAG JUMBO  0000001000+00000048+00000+0001T   00000048+0000001238          1400 VR7090               1AZ
112436000112436               112436               170213FS     1400+00000+FS0000015787+0000015787+000000000+000002211+0000017990+0000000008+I20000000000+0000017990+Z
112436001112436027-000207     112436006003000016570BROOM RUBBER BRISTLES  0000001000+00007016+00000+0001T   00007016+0000001241          1400 VR7212               1AZ
112436002112436027-000230     112436006001023606198MOP COMPLETE WONDERMOP 0000001000+00008771+00000+0001T   00008771+0000001241          1400 VR7212               1AZ
112437000112437               112437               170213FS     1400+00000+FS0000008503+0000008503+000000000+000001192+0000009695+0000000000+I40000009695+0000000000+Z
112437001112437077-000150-D   112437006003000054343GIFT-WRAP CELLPHANE CLR0000002000+00000876+00000+0001T   00000876+0000001242          1400 VR7112               1AZ
112437002112437304-001011     112437006001023806727FLWR ROSE RED W/BEAR   0000001000+00000613+00000+0001T   00000788+0006471242          1400 VR7510               1AZ
112437003112437077-000239     112437006003000160419GIFT-RIBBON ROLL PEARL 0000001000+00001753+00000+0001T   00001753+0000001242          1400 VR7112               1AZ
112437004112437103-000781     112437006003000637867BAMBOO BASKET ROUND 23c0000001000+00004385+00000+0001T   00004385+0000001242          1400 VR7300               1AZ
112438000112438               112438               170213FS     1400+00000+FS0000001578+0000001578+000000000+000000221+0000001790+0000000009+I20000000000+0000001790+Z
112438001112438560-000700     112438006001023865830GROWING ANIMALS ASSTD  0000001000+00001578+00000+0001T   00001578+0000001243          1400 VR7745               1AZ
112439000112439               112439               170213FS     1400+00000+FS0000005949+0000005949+000000000+000000835+0000006784+0000000000+I40000006784+0000000000+Z
112439001112439037-000006     112439006003000171996ASHTRAY PL TUB GIANT   0000001000+00002630+00000+0001T   00003069+0008191247          1400 VR7515               1AZ
112439002112439007-000167     112439006009685857347SPIRAL NOTES A7 72PG   0000002000+00000350+00000+0001T   00000350+0000001247          1400 VR7130               1AZ
112439003112439007-000234     112439006009685850638LABELS 24PK            0000001000+00000306+00000+0001T   00000306+0000001247          1400 VR7130               1AZ
112439004112439903-000087     112439006001704000161SWT SPECKLED-EGGS 50G  0000002000+00001139+00000+0001T   00001139+0000001247          1400 VR7150               1AZ
112439005112439112-116038     112439006009681820246TCS CARRIER BAG MIDI   0000001000+00000035+00000+0001T   00000035+0000001247          1400 VR7090               1AZ
112440000112440               112440               170213FS     1400+00000+FS0000005120+0000005120+000000000+000000717+0000005830+0000000007+I20000000000+0000005830+Z
112440001112440263-000177     112440006001023826824RACER PULL BACK        0000001000+00003507+00000+0001T   00003507+0000001248          1400 VR7710               1AZ
112440002112440077-000348     112440006001023483287GIFT-BOWS 4,5cm 8PCE   0000001000+00001578+00000+0001T   00001578+0000001248          1400 VR7112               1AZ
112440003112440112-116038     112440006009681820246TCS CARRIER BAG MIDI   0000001000+00000035+00000+0001T   00000035+0000001248          1400 VR7090               1AZ
112441000112441               112441               170213FS     1400+00000+FS0000003857+0000003857+000000000+000000541+0000004390+0000000008+I20000000000+0000004390+Z
112441001112441903-000095     112441006001704011495SWT SPECKLED-EGGS 100G 0000001000+00002104+00000+0001T   00002104+0000001249          1400 VR7150               1AZ
112441002112441071-002907     112441006003000588374PEN BALLPOINT REFILL   0000001000+00001753+00000+0001T   00001753+0000001249          1400 VR7130               1AZ
112442000112442               112442               170213FS     1400+00000+FS0000005734+0000005734+000000000+000000804+0000006530+0000000008+I20000000000+0000006530+Z
112442001112442106-001119     112442006003000449972WATER BOTTLE ALUM 750ml0000001000+00003946+00000+0001T   00005262+0008171300          1400 VR7210               1AZ
112442002112442106-001108     112442006003000467365WATER BOTTLE 580ml     0000001000+00001753+00000+0001T   00001753+0000001300          1400 VR7210               1AZ
112442003112442112-116038     112442006009681820246TCS CARRIER BAG MIDI   0000001000+00000035+00000+0001T   00000035+0000001300          1400 VR7090               1AZ
112443000112443               112443               170213FS     1400+00000+FS0000005296+0000005296+000000000+000000742+0000006030+0000000008+I20000000000+0000006030+Z
112443001112443031-000874-B   112443006001023798831P/FRAME WDN P/BOX 13X180000001000+00004385+00000+0001T   00004385+0000001301          1400 VR7510               1AZ
112443002112443903-000494     112443006001704009911SWT GUMMY TEENY TEDDIES0000001000+00000876+00000+0001T   00000876+0000001301          1400 VR7150               1AZ
112443003112443112-116038     112443006009681820246TCS CARRIER BAG MIDI   0000001000+00000035+00000+0001T   00000035+0000001301          1400 VR7090               1AZ
112444000112444               112444               170213FS     1400+00000+FS0000001490+0000001490+000000000+000000209+0000001690+0000000009+I20000000000+0000001690+Z
112444001112444002-021064     112444006001023822246TOOTHPICKS IN-HOLDER   0000001000+00001490+00000+0001T   00001490+0000001329          1400 VR7300               1AZ
112445000112445               112445               170213FS     1400+00000+FS0000004518+0000004518+000000000+000000633+0000005151+0000000000+I40000005151+0000000000+Z
112445001112445362-003007     112445006003000295401GIRL FASHION SUNGLASSES0000001000+00001578+00000+0001T   00001753+0008191356          1400 VR7160               1AZ
112445002112445080-000127     112445006003000424351VALENTINES DAY 36x24CM 0000001000+00002192+00000+0001T   00002192+0000001356          1400 VR7112               1AZ
112445003112445018-000177     112445006001023797513MUG MINI LOVE ASSTD    0000001000+00000700+00000+0001T   00000700+0000001356          1400 VR7515               1AZ
112445004112445112-116069     112445006009681820277TCS CARRIER BAG JUMBO  0000001000+00000048+00000+0001T   00000048+0000001356          1400 VR7090               1AZ
112446000112446               112446               170213FS     1400+00000+FS0000004734+0000004734+000000000+000000663+0000005397+0000000000+I40000005397+0000000000+Z
112446001112446560-000700     112446006001023865830GROWING ANIMALS ASSTD  0000003000+00001578+00000+0001T   00001578+0000001357          1400 VR7745               1AZ
112447000112447               112447               170213FS     1400+00000+FS0000003945+0000003945+000000000+000000553+0000004490+0000000008+I20000000000+0000004490+Z
112447001112447079-013102     112447006003000019601ART+CRAFT DIY PIPE-CLNR0000001000+00002192+00000+0001T   00002192+0000001357          1400 VR7130               1AZ
112447002112447903-000912     112447006009802868461SWT GUM TAPE HOT WHEELS0000001000+00001753+00000+0001T   00001753+0000001357          1400 VR7150               1AZ
112448000112448               112448               170213FS     1400+00000+FS0000003769+0000003769+000000000+000000529+0000004290+0000000008+I20000000000+0000004290+Z
112448001112448565-000001     112448006003000307951NOVELTY INSECT BALL    0000001000+00002630+00000+0001T   00002630+0000001523          1400 VR7745               1AZ
112448002112448046-000014     112448006001023725387BATTERIES SIZE:AAA 4PCE0000001000+00001139+00000+0001T   00001139+0000001523          1400 VR7312               1AZ
112449000112449               112449               170213FS     1400+00000+FS0000001753+0000001753+000000000+000000246+0000001990+0000000009+I20000000000+0000001990+Z
112449001112449039-001023     112449006003000466337CANDLE TEA-LITE METALIC0000001000+00001753+00000+0001T   00001753+0000001524          1400 VR7510               1AZ
112450000112450               112450               170213FS     1400+00000+FS0000009777+0000009777+000000000+000001372+0000011149+0000000000+I40000011149+0000000000+Z
112450001112450903-002853     112450000000087108019MENTOS ROLL MINT       0000001000+00001051+00000+0001T   00001051+0000001534          1400 VR7150               1AZ
112450002112450903-000095     112450006001704011495SWT SPECKLED-EGGS 100G 0000001000+00002104+00000+0001T   00002104+0000001534          1400 VR7150               1AZ
112450003112450080-000111     112450006003000252695CARD&ENVELPE - MUSICAL 0000001000+00001753+00000+0001T   00001753+0000001534          1400 VR7112               1AZ
112450004112450080-000106     112450006003000237098CARD&ENVLPE BDAY GIRL  0000001000+00001753+00000+0001T   00001753+0000001534          1400 VR7112               1AZ
112450005112450080-000127     112450006003000424351VALENTINES DAY 36x24CM 0000001000+00002192+00000+0001T   00002192+0000001534          1400 VR7112               1AZ
112450006112450903-000482     112450006001704001397SWT SOFT-MINTS 60G     0000001000+00000876+00000+0001T   00000876+0000001534          1400 VR7150               1AZ
112450007112450112-116069     112450006009681820277TCS CARRIER BAG JUMBO  0000001000+00000048+00000+0001T   00000048+0000001534          1400 VR7090               1AZ
112451000112451               112451               170213FS     1400+00000+FS0000005262+0000005262+000000000+000000737+0000005990+0000000009+I20000000000+0000005990+Z
112451001112451018-019000     112451006003000557288MUG OCC. LOVE JUMBO    0000001000+00005262+00000+0001T   00005262+0000001535          1400 VR7515               1AZ
112452000112452               112452               170213FS     1400+00000+FS0000012498+0000012498+000000000+000001752+0000014250+0000000000+I40000014250+0000000000+Z
112452001112452080-000127     112452006003000424351VALENTINES DAY 36x24CM 0000002000+00002192+00000+0001T   00002192+0000001541          1400 VR7112               1AZ
112452002112452304-001204     112452006001023737984FLOWER OCC. TEDDY/ROSES0000002000+00001402+00000+0001T   00001490+0006471541          1400 VR7510               1AZ
112452003112452018-019000     112452006003000557288MUG OCC. LOVE JUMBO    0000001000+00005262+00000+0001T   00005262+0000001541          1400 VR7515               1AZ
112452004112452112-116069     112452006009681820277TCS CARRIER BAG JUMBO  0000001000+00000048+00000+0001T   00000048+0000001541          1400 VR7090               1AZ
112453000112453               112453               170213FS     1400+00000+FS0000008768+0000008768+000000000+000001228+0000009996+0000000000+I40000009996+0000000000+Z
112453001112453563-000318-C   112453006003000403882SERVIETTES 33cm LIME   0000004000+00002192+00000+0001T   00002192+0000001544          1400 VR7214               1AZ
112454000112454               112454               170213FS     1400+00000+FS0000024462+0000024462+000000000+000003427+0000027880+0000000009+I20000000000+0000027880+Z
112454001112454024-091103     112454006003453014307BAKING-CUP MUFFIN 50PCE0000001000+00002192+00000+0001T   00002192+0000001550          1400 VR7300               1AZ
112454002112454024-000018     112454006001023610232CAKE-DEC S/S NOZZLE    0000001000+00003946+00000+0001T   00003946+0000001550          1400 VR7300               1AZ
112454003112454133-083230     112454006001023714305T/CLOTH 132x183cm OBLNG0000001000+00003507+00000+0001T   00003507+0000001550          1400 VR7212               1AZ
112454004112454301-085008     112454006003000673933ORN OCC.LOVE TINSEL HRT0000002000+00003069+00000+0001T   00003069+0000001550          1400 VR7505               1AZ
112454005112454006-000190     112454006003000685530BALLOONS LOVE 81x91cm  0000001000+00004385+00000+0001T   00004385+0000001550          1400 VR7131               1AZ
112454006112454006-000109-A   112454006003000645435BALLOONS HELIUM 2PC    0000001000+00001753+00000+0001T   00001753+0000001550          1400 VR7131               1AZ
112454007112454006-000166-D   112454006003000516490BALLOONS LRG 6PC RED   0000001000+00001314+00000+0001T   00001314+0000001550          1400 VR7131               1AZ
112454008112454077-000245     112454006001023759214GIFT-RIBBON METALLICx2 0000001000+00001227+00000+0001T   00001227+0000001550          1400 VR7112               1AZ
112455000112455               112455               170213FS     1400+00000+FS0000001227+0000001227+000000000+000000172+0000001390+0000000009+I20000000000+0000001390+Z
112455001112455251-000040     112455006001023515865SEALTAPE CLEAR 48mmx50m0000001000+00001227+00000+0001T   00001227+0000001551          1400 VR7810               1AZ
112456000112456               112456               170213FS     1400+00000+FS0000004385+0000004385+000000000+000000614+0000004999+0000000000+I40000004999+0000000000+Z
112456001112456162-097710     112456006001492977102#TAG NECKLACE 2PK      0000001000+00004385+00000+0001T   00004385+0000001552          1400 VR7160               1AZ
112457000112457               112457               170213FS     1400+00000+FS0000024504+0000024504+000000000+000003435+0000027939+0000000000+I40000027939+0000000000+Z
112457001112457564-000012     112457006001023130075BUBBLE BOTTLE MAGIC    0000001000+00000700+00000+0001T   00000700+0000001555          1400 VR7131               1AZ
112457002112457140-001007     112457006001023617163FLY-STICK STAND 260x36 0000001000+00003069+00000+0001T   00003069+0000001555          1400 VR7830               1AZ
112457003112457251-000041     112457006001023515889SEAL-TAPE BUFF 48mmx50m0000006000+00001227+00000+0001T   00001227+0000001555          1400 VR7810               1AZ
112457004112457140-006008     112457006001023803214FLY-SWATTERS   SET-OF-40000001000+00002630+00000+0001T   00002630+0000001555          1400 VR7830               1AZ
112457005112457088-000055     112457006003000623068TOILET FRESHENER CISTER0000001000+00001753+00000+0001T   00001753+0000001555          1400 VR7212               1AZ
112457006112457140-001004     112457006001023880932FLY-RIBBONS 4PCE PL    0000002000+00001490+00000+0001T   00001490+0000001555          1400 VR7830               1AZ
112457007112457056-065300     112457006001023625854CAR SUNSHIELD ALUM FOIL0000001000+00005262+00000+0001L   00005262+0000001555          1400 VR7860               1AZ
112457008112457112-116069     112457006009681820277TCS CARRIER BAG JUMBO  0000001000+00000048+00000+0001T   00000048+0000001555          1400 VR7090               1AZ
112457009112457018-000177     112457006001023797513MUG MINI LOVE ASSTD    0000001000+00000700+00000+0001T   00000700+0000001555          1400 VR7515               1AZ
112458000112458               112458               170213FS     1400+00000+FS0000002192+0000002192+000000000+000000307+0000002490+0000000009+I20000000000+0000002490+Z
112458001112458046-000012-A   112458006003000208296BATTERIES H/POWER SZ:AA0000001000+00002192+00000+0001T   00002192+0000001556          1400 VR7312               1AZ
112459000112459               112459               170213FS     1400+00000+FS0000007014+0000007014+000000000+000000983+0000007997+0000000000+I40000007997+0000000000+Z
112459001112459004-071264     112459006003000427420MOUSEPAD+COASTER DAD   0000001000+00004385+00000+0001T   00006139+0008191601          1400 VR7310               1AZ
112459002112459077-000358     112459006003000329977GIFT-BAG KIDS 25X32CM  0000001000+00001753+00000+0001T   00001753+0000001601          1400 VR7112               1AZ
112459003112459077-000011-C   112459006001023808523TISSUE 10xSHTS RED     0000001000+00000876+00000+0001T   00000876+0000001601          1400 VR7112               1AZ
112460000112460               112460               170213FS     1400+00000+FS0000002630+0000002630+000000000+000000369+0000002990+0000000009+I20000000000+0000002990+Z
112460001112460200-000022     112460006003000399291BAG SLIDE LOCK 15PC    0000001000+00002630+00000+0001T   00002630+0000001606          1400 VR7214               1AZ
112461000112461               112461               170213FS     1400+00000+FS0000007629+0000007629+000000000+000001069+0000008690+0000000008+I20000000000+0000008690+Z
112461001112461368-000265     112461006001023750914PLUSH BEAR 23CM ASSTD C0000001000+00006139+00000+0001T   00006139+0000001608          1400 VR7745               1AZ
112461002112461077-000452     112461006003000284986G/BAG METALLIC MED EMB 0000001000+00001490+00000+0001T   00001490+0000001608          1400 VR71122IC            1AZ
112462000112462               112462               170213FS     1400+00000+FS0000001752+0000001752+000000000+000000246+0000001990+0000000008+I20000000000+0000001990+Z
112462001112462007-000235     112462006003000134434LABELS RECTANGULAR 60pc0000002000+00000876+00000+0001T   00000876+0000001613          1400 VR7130               1AZ
112463000112463               112463               170213FS     1400+00000+FS0000003506+0000003506+000000000+000000491+0000003990+0000000007+I20000000000+0000003990+Z
112463001112463080-000127     112463006003000424351VALENTINES DAY 36x24CM 0000001000+00002192+00000+0001T   00002192+0000001614          1400 VR7112               1AZ
112463002112463006-000166-D   112463006003000516490BALLOONS LRG 6PC RED   0000001000+00001314+00000+0001T   00001314+0000001614          1400 VR7131               1AZ
112464000112464               112464               170213FS     1400+00000+FS0000001490+0000001490+000000000+000000209+0000001690+0000000009+I20000000000+0000001690+Z
112464001112464077-000452     112464006003000284986G/BAG METALLIC MED EMB 0000001000+00001490+00000+0001T   00001490+0000001616          1400 VR7112               1AZ
112465000112465               112465               170213FS     1400+00000+FS0000011269+0000011269+000000000+000001579+0000012848+0000000000+I40000012848+0000000000+Z
112465001112465080-000117     112465006003000236350CARD & ENVELOPE THANK U0000001000+00001753+00000+0001T   00001753+0000001623          1400 VR7112               1AZ
112465002112465112-116069     112465006009681820277TCS CARRIER BAG JUMBO  0000001000+00000048+00000+0001T   00000048+0000001623          1400 VR7090               1AZ
112465003112465018-000127     112465006001023380289MUG OCC STRAIGHT LOVE  0000006000+00001578+00000+0001T   00001753+0006471623          1400 VR7515               1AZ
112466000112466               112466               170213FS     1400+00000+FS0000004385+0000004385+000000000+000000614+0000004990+0000000009+I20000000000+0000004990+Z
112466001112466047-002040-H   112466006003000219117P/ADAPTOR 3x16A 3x5A   0000001000+00004385+00000+0001T   00004385+0000001624          1400 VR7880               1AZ
112467000112467               112467               170213FS     1400+00000+FS0000002630+0000002630+000000000+000000369+0000002990+0000000009+I20000000000+0000002990+Z
112467001112467368-000040     112467006003000671786PLUSH ICONS 7.5cm      0000001000+00002630+00000+0001T   00002630+0000001625          1400 VR7745               1AZ
112468000112468               112468               170213FS     1400+00000+FS0000005030+0000005030+000000000+000000706+0000005736+0000000000+I40000005736+0000000000+Z
112468001112468079-009700-A   112468006003000547746PAPER SIRIO A4 BLACK   0000001000+00000306+00000+0001T   00000306+0000001629          1400 VR7130               1AZ
112468002112468079-009700-D   112468006003000545711PAPER SIRIO A4 RED COL.0000001000+00000306+00000+0001T   00000306+0000001629          1400 VR7130               1AZ
112468003112468567-011497     112468000814625012795BK COLOURING 96P GHOUL 0000001000+00002630+00000+0001T   00002630+0000001629          1400 VR7757               1AZ
112468004112468079-013099     112468006003000081875ART+CRAFT EYES ASSTD   0000001000+00001753+00000+0001T   00001753+0000001629          1400 VR7130               1AZ
112468005112468112-116038     112468006009681820246TCS CARRIER BAG MIDI   0000001000+00000035+00000+0001T   00000035+0000001629          1400 VR7090               1AZ
112469000112469               112469               170213FS     1400+00000+FS0000001753+0000001753+000000000+000000246+0000001999+0000000000+I40000001999+0000000000+Z
112469001112469037-050016     112469006001023674128ASHTRAY 9CM RND CLUB   0000001000+00001753+00000+0001T   00001753+0000001638          1400 VR7515               1AZ
112470000112470               112470               170213FS     1400+00000+FS0000006137+0000006137+000000000+000000860+0000006990+0000000007+I20000000000+0000006990+Z
112470001112470261-003961     112470006003000550371GUN HAND COMBAT        0000001000+00003507+00000+0001T   00003507+0000001649          1400 VR7710               1AZ
112470002112470903-000591     112470006003000563616SWEET ANIMAL 24cm      0000001000+00002630+00000+0001T   00002630+0000001649          1400 VR7150               1AZ
112471000112471               112471               170213FS     1400+00000+FS0000008770+0000008770+000000000+000001228+0000009998+0000000000+I40000009998+0000000000+Z
112471001112471088-000107     112471006001023555823DIFFUSER SET FLOWER    0000002000+00004385+00000+0001T   00004385+0000001651          1400 VR7212               1AZ
112472000112472               112472               170213FS     1400+00000+FS0000003243+0000003243+000000000+000000455+0000003698+0000000000+I40000003698+0000000000+Z
112472001112472200-000065     112472006001023323675DRINKING-STRAWS 38PCE  0000001000+00000613+00000+0001T   00000613+0000001652          1400 VR7214               1AZ
112472002112472083-000058     112472006003000400331LIGHTER JET CIGAR REFIL0000001000+00002630+00000+0001T   00002630+0000001652          1400 VR7315               1AZ
112473000112473               112473               170213FS     1400+00000+FS0000004385+0000004385+000000000+000000614+0000004990+0000000009+I20000000000+0000004990+Z
112473001112473368-000151     112473006003000166725PLUSH BEAR 14cm        0000001000+00004385+00000+0001T   00004385+0000001656          1400 VR7745               1AZ
112474000112474               112474               170213FS     1400+00000+FS0000002630+0000002630+000000000+000000369+0000002990+0000000009+I20000000000+0000002990+Z
112474001112474077-000270     112474006003000395453GIFT-BAG PPR JMB 33X45 0000001000+00002630+00000+0001T   00002630+0000001656          1400 VR7112               1AZ
112475000112475               112475               170213FS     1400+00000+FS0000007061+0000007061+000000000+000000990+0000008051+0000000000+I40000008051+0000000000+Z
112475001112475079-009702-D   112475008427973059354PAPER SIRIO A2 RED COL 0000001000+00001051+00000+0001T   00001051+0000001659          1400 VR7130               1AZ
112475002112475018-019000     112475006003000557288MUG OCC. LOVE JUMBO    0000001000+00005262+00000+0001T   00005262+0000001659          1400 VR7515               1AZ
112475003112475112-116069     112475006009681820277TCS CARRIER BAG JUMBO  0000001000+00000048+00000+0001T   00000048+0000001659          1400 VR7090               1AZ
112475004112475903-000159     112475006003000417629SWT LB SMALL DUMMIE    0000002000+00000350+00000+0001T   00000350+0000001659          1400 VR7150               1AZ
112476000112476               112476               170213FS     1400+00000+FS0000007014+0000007014+000000000+000000982+0000007996+0000000000+I40000007996+0000000000+Z
112476001112476038-001800     112476006003000623303DOILIE PAPER HRT 24PC  0000002000+00003507+00000+0001T   00003507+0000001701          1400 VR7300               1AZ
112477000112477               112477               170213FS     1400+00000+FS0000009644+0000009644+000000000+000001352+0000010990+0000000006+I20000000000+0000010990+Z
112477001112477006-000111     112477006003000519385BALLOONS LARGE 12PCE   0000001000+00002630+00000+0001T   00002630+0000001703          1400 VR7131               1AZ
112477002112477006-000106     112477006003000471331WATERBOMBS 150PCE 6-COL0000001000+00005262+00000+0001T   00005262+0000001703          1400 VR7131               1AZ
112477003112477002-021057     112477006001023812032T/PICKS UMBRELLAS 10PCE0000002000+00000876+00000+0001T   00000876+0000001703          1400 VR7300               1AZ
112478000112478               112478               170213FS     1400+00000+FS0000007488+0000007488+000000000+000001049+0000008537+0000000000+I40000008537+0000000000+Z
112478001112478368-000175     112478006003000270316PLUSH BEAR 4 ASSTD 18CM0000001000+00006139+00000+0001T   00006139+0000001708          1400 VR7745               1AZ
112478002112478077-000312     112478006001023608697GIFT-BAG 10X35CM GLOSS 0000001000+00001314+00000+0001T   00001314+0000001708          1400 VR7112               1AZ
112478003112478112-116038     112478006009681820246TCS CARRIER BAG MIDI   0000001000+00000035+00000+0001T   00000035+0000001708          1400 VR7090               1AZ
112479000112479               112479               170213FS     1400+00000+FS0000003857+0000003857+000000000+000000541+0000004390+0000000008+I20000000000+0000004390+Z
112479001112479565-000889     112479006003000626953NOVELTY SPACE BALLOONS 0000001000+00001753+00000+0001T   00001753+0000001712          1400 VR7745               1AZ
112479002112479903-000095     112479006001704011495SWT SPECKLED-EGGS 100G 0000001000+00002104+00000+0001T   00002104+0000001712          1400 VR7150               1AZ
112480000112480               112480               170213FS     1400+00000+FS0000001753+0000001753+000000000+000000246+0000001990+0000000009+I20000000000+0000001990+Z
112480001112480077-000290     112480006001023902023GIFT BOX 26x32x13cm    0000001000+00001753+00000+0001T   00001753+0000001713          1400 VR7112               1AZ
112481000112481               112481               170213FS     1400+00000+FS0000008014+0000008014+000000000+000001123+0000009137+0000000000+I40000009137+0000000000+Z
112481001112481002-000652     112481006001023553188M/SPOON WDN 3PC H/HOUSE0000001000+00003069+00000+0001T   00003069+0000001725          1400 VR7300               1AZ
112481002112481059-011605     112481006001023384072LANTERN 24cm ASSTD-CLRS0000001000+00003946+00000+0001T   00005262+0008191725          1400 VR7305               1AZ
112481003112481028-000795     112481006001023812063SKEWERS 10cm 100PCE 3mm0000001000+00000964+00000+0001T   00000964+0000001725          1400 VR7305               1AZ
112481004112481112-116038     112481006009681820246TCS CARRIER BAG MIDI   0000001000+00000035+00000+0001T   00000035+0000001725          1400 VR7090               1AZ
112482000112482               112482               170213FS     1400+00000+FS0000007016+0000007016+000000000+000000983+0000007999+0000000000+I40000007999+0000000000+Z
112482001112482368-000023     112482006003000672264PLUSH BEAR 21.5cm      0000001000+00007016+00000+0001T   00007016+0000001726          1400 VR7745               1AZ
112483000112483               112483               170213FS     1400+00000+FS0000008768+0000008768+000000000+000001228+0000009990+0000000006+I20000000000+0000009990+Z
112483001112483077-000509     112483006003000082582GIFT-BAG SML 6PCE ORG P0000004000+00002192+00000+0001T   00002192+0000001732          1400 VR7112               1AZ
112484000112484               112484               170213FS     1400+00000+FS0000001753+0000001753+000000000+000000246+0000001990+0000000009+I20000000000+0000001990+Z
112484001112484077-000309     112484006001023608604GIFT-BAG 25X32CM GLOSS 0000001000+00001753+00000+0001T   00001753+0000001739          1400 VR7112               1AZ
112485000112485               112485               170213FS     1400+00000+FS0000006173+0000006173+000000000+000000865+0000007030+0000000008+I20000000000+0000007030+Z
112485001112485077-000382     112485006003000247820GIFT-BAG MED 18X23CM   0000001000+00001753+00000+0001T   00001753+0000001740          1400 VR7112               1AZ
112485002112485018-030000     112485006003000421060MUG OCCASIONS LOVE 2PCE0000001000+00004385+00000+0001T   00004385+0000001740          1400 VR7515               1AZ
112485003112485112-116038     112485006009681820246TCS CARRIER BAG MIDI   0000001000+00000035+00000+0001T   00000035+0000001740          1400 VR70903IC            1AZ
112486000112486               112486               170213FS     1400+00000+FS0000009240+0000009240+000000000+000001295+0000010530+0000000005+I20000000000+0000010530+Z
112486001112486251-000073     112486006003000452132PROTECTION-PADS BLK ADH0000001000+00001753+00000+0001T   00001753+0000001741          1400 VR7810               1AZ
112486002112486362-003005     112486006003000295166HAIR H/BAND SET 2PCE   0000001000+00002192+00000+0001T   00002192+0000001741          1400 VR7160               1AZ
112486003112486362-003003     112486006003000295616HAIR BAND SET 6PCE     0000001000+00001753+00000+0001T   00001753+0000001741          1400 VR7160               1AZ
112486004112486560-000102     112486006001023746979ANIMALS FARM IN-TUBE   0000001000+00003507+00000+0001T   00003507+0000001741          1400 VR7745               1AZ
112486005112486112-116038     112486006009681820246TCS CARRIER BAG MIDI   0000001000+00000035+00000+0001T   00000035+0000001741          1400 VR7090               1AZ
112487000112487               112487               170213FS     1400+00000+FS0000002192+0000002192+000000000+000000307+0000002490+0000000009+I20000000000+0000002490+Z
112487001112487018-000170     112487006001023775528MUG OCC. LOVE 2PC MINI 0000001000+00002192+00000+0001T   00002192+0000001744          1400 VR7515               1AZ
112488000112488               112488               170213FS     1400+00000+FS0000011138+0000011138+000000000+000001560+0000012698+0000000000+I40000012698+0000000000+Z
112488001112488077-000304     112488006001023483232GIFT-BAG 25X32CM E/DAY 0000001000+00001490+00000+0001T   00001490+0000001745          1400 VR7112               1AZ
112488002112488024-000108     112488006001023422101MUFFIN-PAN 6-CUP  9x4cm0000001000+00009648+00000+0001T   00009648+0000001745          1400 VR7300               1AZ
A17021300                                          08223717FSSLAVE 1                       Y252IC
A17021301                                          09520229FSSLAVE 1                       VR73IC
A17021302                                          10185757FSSLAVE 1                       VR73IC
B11246100                                          170213FS077-000452     16082353SLAVE 1     VR72IC0000002000+0000001000+0000000000000+
B11248500                                          170213FS112-116038     17395499SLAVE 1     VR73IC0000002000+0000001000+0000000000000+
C11245900                                          170213FS006-000190     16005281SLAVE 1     VR72IC0000000000+0000000000+0040000001000+
C11247900                                          170213FS018-000136     17113969SLAVE 1     VR71IC0000000000+0000000000+0010000001000+
C11247901                                          170213FS031-000923     17114248SLAVE 1     VR71IC0000000000+0000000000+0020000001000+
M17021301                              IT DEPT     FSFROM LANGENHOVEN PARK FS                                                                        LAST TILL TRANSACTION SLAVE 1 112488                                                            THANX
M17021391                              CASH        FSSLAVE 1                       Z-REPORT No.   533TOTAL (Sales - Refunds)           5220.18       CASH TO BE BANKED                 2391.70       DEBIT CARDS                          0.00       CREDIT CARDS                      2828.48       Z-READING                         5220.18       AIRTIME DEBIT CARD SALES             0.00       AIRTIME CARD SALES                   0.00       OVERS/UNDERS                         0.00       AIRTIME CASH SALES                   0.00       GIFT CARDS                           0.00       GIFT CARD CASH SALES                 0.00       T O T A L  CASH PAYOUTS              0.00                                                                                                                                                                                                                                                                                                                                                      Z
M17021392                              CASH        FSABSENT                                                                                                                                                                                          ANNUAL LEAVE                                                                                                                                                                                    DAY OFF                                                                                                                                                                                         COMMENTS                                                                                                                                                                                                                                                                                                                                                                                       Z
Y17021300                                          FS00000000458167+000076
ZFS17021319393 SLAVE 1      SALES DATA                     NEXT INVOICE NO.  112489 0533
X FS Slave 1 First invoice 112413 170213 Last invoice 112488 170213 Next invoice 112489 Total number of records 000000265 clbackup completed 19:39:14
