135750000135750               135750               170213FS     1400+00000+FS0000001227+0000001227+000000000+000000172+0000001390+0000000009+I20000000000+0000001390+Z
135750001135750002-000970     135750006001023770578FUNNELS 3PCE WHITE     0000001000+00001227+00000+0001T   00001227+0000000901          1400 WY2300               3AZ
135751000135751               135751               170213FS     1400+00000+FS0000001753+0000001753+000000000+000000246+0000001990+0000000009+I20000000000+0000001990+Z
135751001135751046-002032-PK2 135751004897006175063BATTERIES CR-2032  2PCE0000001000+00001753+00000+0001T   00001753+0000000919          1400 WY2312               3AZ
135752000135752               135752               170213FS     1400+00000+FS0000000876+0000000876+000000000+000000123+0000000990+0000000009+I20000000000+0000000990+Z
135752001135752077-000011-C   135752006001023808523TISSUE 10xSHTS RED     0000001000+00000876+00000+0001T   00000876+0000000937          1400 WY2112               3AZ
135753000135753               135753               170213FS     1400+00000+FS0000001753+0000001753+000000000+000000246+0000001990+0000000009+I20000000000+0000001990+Z
135753001135753077-000316     135753006001023609731GIFT-BAG 25X32CM MATT  0000001000+00001753+00000+0001T   00001753+0000000938          1400 WY2112               3AZ
135754000135754               135754               170213FS     1400+00000+FS0000016663+0000016663+000000000+000002334+0000018997+0000000000+I40000018997+0000000000+Z
135754001135754072-020297     135754006001023700919PET CAT SCRATCH PAD    0000001000+00004385+00000+0001T   00004385+0000000947          1400 WY2870               3AZ
135754002135754464-000122     135754006003000638987PLAYING CARDS POKER 2PK0000001000+00001753+00000+0001T   00001753+0000000947          1400 WY2785               3AZ
135754003135754024-000124     135754006001023466549N/STICK MINI S/FORM 2PC0000001000+00010525+00000+0001T   00010525+0000000947          1400 WY2300               3AZ
135755000135755               135755               170213FS     1400+00000+FS0000001139+0000001139+000000000+000000160+0000001290+0000000009+I20000000000+0000001290+Z
135755001135755903-000087     135755006001704000161SWT SPECKLED-EGGS 50G  0000001000+00001139+00000+0001T   00001139+0000001001          1400 WY2150               3AZ
135756000135756               135756               170213FS     1400+00000+FS0000016662+0000016662+000000000+000002335+0000018997+0000000000+I40000018997+0000000000+Z
135756001135756466-000598     135756006001023751522BALL RUGBY SIZE-2      0000001000+00006139+00000+0001T   00006139+0000001002          1400 WY2785               3AZ
135756002135756466-000607     135756006003000027620BALL VOLLEYBALL 19cm   0000001000+00007893+00000+0001T   00007893+0000001002          1400 WY2785               3AZ
135756003135756019-071603     135756006001023772039RIVER-STONES 1kg PEACH 0000001000+00002630+00000+0001T   00002630+0000001002          1400 WY2510               3AZ
135757000135757               135757               170213FS     1400+00000+FS0000012274+0000012274+000000000+000001721+0000013990+0000000005+I20000000000+0000013990+Z
135757001135757077-000924     135757006003000414055G/WRAP 700mmx2m WEDDING0000002000+00002192+00000+0001T   00002192+0000001010          1400 WY2112               3AZ
135757002135757077-000115-B   135757006003000181025GIFT-WRAP PPR 700MMX2M 0000003000+00002630+00000+0001T   00002630+0000001010          1400 WY2112               3AZ
135758000135758               135758               170213FS     1400+00000+FS0000002454+0000002454+000000000+000000344+0000002790+0000000008+I20000000000+0000002790+Z
135758001135758903-000518     135758006001704012782SWT STRAWS S/BERRY 100g0000001000+00001227+00000+0001T   00001227+0000001011          1400 WY2150               3AZ
135758002135758903-000517     135758006001704012768SWT STRAWS FIZZY CHERRY0000001000+00001227+00000+0001T   00001227+0000001011          1400 WY2150               3AZ
135759000135759               135759               170213FS     1400+00000+FS0000008975+0000008975+000000000+000001260+0000010235+0000000000+I40000010235+0000000000+Z
135759001135759105-000750     135759006003000190270CONTAINERS 4xMINI 150ml0000002000+00001402+00000+0001T   00001402+0000001013          1400 WY2210               3AZ
135759002135759079-000280     135759006003000160723PAINT READYMIX 6PCE    0000001000+00002630+00000+0001T   00002630+0000001013          1400 WY2130               3AZ
135759003135759304-001140     135759006003000679010FLOWER MINI MOSS 40G   0000001000+00001753+00000+0001T   00001753+0000001013          1400 WY2510               3AZ
135759004135759079-000275     135759006003000160488PAINT-BRUSHES 6PCE PRO 0000001000+00001753+00000+0001T   00001753+0000001013          1400 WY2130               3AZ
135759005135759112-116038     135759006009681820246TCS CARRIER BAG MIDI   0000001000+00000035+00000+0001T   00000035+0000001013          1400 WY2090               3AZ
135760000135760               135760               170213FS     1400+00000+FS0000002630+0000002630+000000000+000000369+0000002990+0000000009+I20000000000+0000002990+Z
135760001135760015-002000     135760006001023640314BOWL S/STEEL MIXING 16c0000001000+00002630+00000+0001T   00002630+0000001018          1400 WY2515               3AZ
135761000135761               135761               170213FS     1400+00000+FS0000002192+0000002192+000000000+000000307+0000002490+0000000009+I20000000000+0000002490+Z
135761001135761046-000012-A   135761006003000208296BATTERIES H/POWER SZ:AA0000001000+00002192+00000+0001T   00002192+0000001019          1400 WY2312               3AZ
135762000135762               135762               170213FS     1400+00000+FS0000001753+0000001753+000000000+000000246+0000001999+0000000000+I40000001999+0000000000+Z
135762001135762566-000865     135762006001023788412STICKER ASSTD          0000001000+00001753+00000+0001T   00001753+0000001108          1400 WY2130               3AZ
135763000135763               135763               170213FS     1400+00000+FS0000000613+0000000613+000000000+000000086+0000000690+0000000009+I20000000000+0000000690+Z
135763001135763200-000065     135763006001023323675DRINKING-STRAWS 38PCE  0000001000+00000613+00000+0001T   00000613+0000001108          1400 WY2214               3AZ
135764000135764               135764               170213FS     1400+00000+FS0000006139+0000006139+000000000+000000860+0000006990+0000000009+I20000000000+0000006990+Z
135764001135764082-000120-A   135764006001023755834R/GLASS  FRAME W/CASE  0000001000+00006139+00000+0001T   00006139+0000001109          1400 WY2160               3AZ
135765000135765               135765               170213FS     1400+00000+FS0000003366+0000003366+000000000+000000472+0000003830+0000000008+I20000000000+0000003830+Z
135765001135765080-000124     135765006003000297733CARD & ENV VALENTINES  0000001000+00001578+00000+0001T   00001578+0000001115          1400 WY2112               3AZ
135765002135765077-000316     135765006001023609731GIFT-BAG 25X32CM MATT  0000001000+00001753+00000+0001T   00001753+0000001115          1400 WY2112               3AZ
135765003135765112-116038     135765006009681820246TCS CARRIER BAG MIDI   0000001000+00000035+00000+0001T   00000035+0000001115          1400 WY2090               3AZ
135766000135766               135766               170213FS     1400+00000+FS0000021217+0000021217+000000000+000002973+0000024190+0000000000+I40000024190+0000000000+Z
135766001135766303-000750     135766006003000370818KEY-HOLDER BRASS ANTIQU0000001000+00006139+00000+0001T   00006139+0000001122          1400 WY2510               3AZ
135766002135766150-004028-H   135766006003000649976BATH-PLUG RUBBER BLACK 0000001000+00000613+00000+0001T   00000613+0000001122          1400 WY2810               3AZ
135766003135766055-009054     135766006001023471994CUP-HOOKS BRS 30mm H&H 0000001000+00001314+00000+0001T   00001314+0000001122          1400 WY2810               3AZ
135766004135766009-001451     135766006001023695970MELAMINE S/BOWL 15cm   0000002000+00001753+00000+0001T   00001753+0000001122          1400 WY2210               3AZ
135766005135766047-000508     135766006009636901983PLG EURODAPTOR 3x5A-2PN0000001000+00001753+00000+0001T   00001753+0000001122          1400 WY2880               3AZ
135766006135766002-000706     135766006001023111456SPATTER-PREVENTOR 28cm 0000001000+00004385+00000+0001T   00004385+0000001122          1400 WY2300               3AZ
135766007135766108-005010     135766006001023915016TRAY 45cmx31cm RECT    0000001000+00003507+00000+0001T   00003507+0000001122          1400 WY2210               3AZ
135767000135767               135767               170213FS     1400+00000+FS0000002455+0000002455+000000000+000000344+0000002799+0000000000+I40000002799+0000000000+Z
135767001135767077-000380     135767006003000247585GIFT-BAG 33X45CM S/COL 0000001000+00002455+00000+0001T   00002455+0000001124          1400 WY2112               3AZ
135768000135768               135768               170213FS     1400+00000+FS0000003713+0000003713+000000000+000000521+0000004234+0000000000+I40000004234+0000000000+Z
135768001135768039-000319-5   135768006003000442867B/CANDLES LRG NUMBER-5 0000001000+00000876+00000+0001T   00000876+0000001136          1400 WY2510               3AZ
135768002135768079-006494     135768006003000159864GLITTER GLUE 5PCE 11cm 0000001000+00001490+00000+0001T   00001490+0000001136          1400 WY2130               3AZ
135768003135768079-009700-D   135768006003000545711PAPER SIRIO A4 RED COL.0000002000+00000306+00000+0001T   00000306+0000001136          1400 WY2130               3AZ
135768004135768018-000177     135768006001023797513MUG MINI LOVE ASSTD    0000001000+00000700+00000+0001T   00000700+0000001136          1400 WY2515               3AZ
135768005135768112-116038     135768006009681820246TCS CARRIER BAG MIDI   0000001000+00000035+00000+0001T   00000035+0000001136          1400 WY2090               3AZ
135769000135769               135769               170213FS     1400+00000+FS0000001753+0000001753+000000000+000000246+0000001990+0000000009+I20000000000+0000001990+Z
135769001135769088-000108     135769006001023765536POTPOURRI-OIL 10ml ASST0000001000+00001753+00000+0001T   00001753+0000001137          1400 WY2212               3AZ
135770000135770               135770               170213FS     1400+00000+FS0000007014+0000007014+000000000+000000982+0000007996+0000000000+I40000007996+0000000000+Z
135770001135770036-000020     135770006001023666512LINT-REMOVER B/O SMALL 0000002000+00003507+00000+0001T   00003507+0000001158          1400 WY2212               3AZ
135771000135771               135771               170213FS     1400+00000+FS0000012279+0000012279+000000000+000001720+0000013990+0000000009+I20000000000+0000013990+Z
135771001135771019-000079     135771006001023775726VASE 30cm CRACK-DESIGN 0000001000+00012279+00000+0001T   00012279+0000001201          1400 WY2510               3AZ
135772000135772               135772               170213FS     1400+00000+FS0000006139+0000006139+000000000+000000860+0000006990+0000000009+I20000000000+0000006990+Z
135772001135772031-000860-C   135772006001023798237P/FRAME PL ANTIQUE-BLK 0000001000+00006139+00000+0001T   00006139+0000001206          1400 WY2510               3AZ
135773000135773               135773               170213FS     1400+00000+FS0000006447+0000006447+000000000+000000904+0000007351+0000000000+I40000007351+0000000000+Z
135773001135773159-000800     135773006001023167972BATHMAT ANTI-SLIP      0000001000+00002630+00000+0001T   00002630+0000001212          1400 WY2200               3AZ
135773002135773038-092233     135773006003000328925TABLE-MAT N/SLIP ASST  0000001000+00003069+00000+0001T   00003507+0008191212          1400 WY2300               3AZ
135773003135773903-000070     135773006001704001106SWT TOFFEE CREAMY 35g  0000001000+00000700+00000+0001T   00000700+0000001212          1400 WY2150               3AZ
135773004135773112-116069     135773006009681820277TCS CARRIER BAG JUMBO  0000001000+00000048+00000+0001T   00000048+0000001212          1400 WY2090               3AZ
135774000135774               135774               170213FS     1400+00000+FS0000015379+0000015379+000000000+000002154+0000017530+0000000003+I20000000000+0000017530+Z
135774001135774566-000068     135774006003000418046POP UP LOVE 2 ASSTD    0000005000+00002192+00000+0001T   00002192+0000001221          1400 WY2130               3AZ
135774002135774566-000359     135774006003000582709STICKER BOOK LOVE SPARK0000001000+00002192+00000+0001T   00002192+0000001221          1400 WY2130               3AZ
135774003135774566-000068     135774006003000418046POP UP LOVE 2 ASSTD    0000001000+00002192+00000+0001T   00002192+0000001221          1400 WY2130               3AZ
135774004135774112-116038     135774006009681820246TCS CARRIER BAG MIDI   0000001000+00000035+00000+0001T   00000035+0000001221          1400 WY2090               3AZ
135775000135775               135775               170213FS     1400+00000+FS0000004559+0000004559+000000000+000000639+0000005190+0000000008+I20000000000+0000005190+Z
135775001135775106-000899     135775006003000653287WTR BOTTLE 2L W/HANDLE 0000001000+00003069+00000+0001T   00003507+0008191222          1400 WY2210               3AZ
135775002135775077-000452     135775006003000284986G/BAG METALLIC MED EMB 0000001000+00001490+00000+0001T   00001490+0000001222          1400 WY2112               3AZ
135776000135776               135776               170213FS     1400+00000+FS0000010170+0000010170+000000000+000001424+0000011590+0000000004+I20000000000+0000011590+Z
135776001135776018-000130     135776006001023867537MUG OCC LOVE MINI+HEART0000002000+00003507+00000+0001T   00003507+0000001223          1400 WY2515               3AZ
135776002135776077-000315     135776006003000181186GIFT-BAG 20x28cm MATT  0000002000+00001578+00000+0001T   00001578+0000001223          1400 WY2112               3AZ
135777000135777               135777               170213FS     1400+00000+FS0000002630+0000002630+000000000+000000369+0000002990+0000000009+I20000000000+0000002990+Z
135777001135777034-078810     135777006001023856838DIAPER DISPOSE-BAGSx1000000001000+00002630+00000+0001T   00002630+0000001224          1400 WY2215               3AZ
135778000135778               135778               170213FS     1400+00000+FS0000018676+0000018676+000000000+000002617+0000021293+0000000000+I40000021293+0000000000+Z
135778001135778027-000235     135778006003000512287MOP CHENILLE DOUBL SIDE0000001000+00011402+00000+0001T   00011402+0000001229          1400 WY2212               3AZ
135778002135778071-009836     135778006001023591067BACK-TO-SCHOOL SET     0000001000+00001490+00000+0001T   00001490+0000001229          1400 WY2130               3AZ
135778003135778047-000012     135778006002521079279PLUG 1x16A+2x5A-2PIN   0000002000+00001753+00000+0001T   00001753+0000001229          1400 WY2880               3AZ
135778004135778080-000121     135778006003000237555CARD&ENVLPE-ANNIVERSARY0000001000+00000700+00000+0001T   00000876+0008151229          1400 WY2112               3AZ
135778005135778080-000124     135778006003000297733CARD & ENV VALENTINES  0000001000+00001578+00000+0001T   00001578+0000001229          1400 WY2112               3AZ
135779000135779               135779               170213FS     1400+00000+FS0000016619+0000016619+000000000+000002329+0000018940+0000000008+I20000000000+0000018940+Z
135779001135779304-001204     135779006001023737984FLOWER OCC. TEDDY/ROSES0000001000+00001402+00000+0001T   00001490+0006471234          1400 WY2510               3AZ
135779002135779368-000265     135779006001023750914PLUSH BEAR 23CM ASSTD C0000001000+00006139+00000+0001T   00006139+0000001234          1400 WY2745               3AZ
135779003135779018-000127     135779006001023380289MUG OCC STRAIGHT LOVE  0000001000+00001578+00000+0001T   00001753+0006471234          1400 WY2515               3AZ
135779004135779566-000359     135779006003000582709STICKER BOOK LOVE SPARK0000001000+00002192+00000+0001T   00002192+0000001234          1400 WY2130               3AZ
135779005135779031-005853     135779006003000442416P/FRAME WDN TWIN HEARTS0000001000+00003507+00000+0001T   00003507+0000001234          1400 WY2510               3AZ
135779006135779077-000455     135779006003000285389G/BAG METALLIC LRG SOL 0000001000+00001753+00000+0001T   00001753+0000001234          1400 WY2112               3AZ
135779008135779112-116069     135779006009681820277TCS CARRIER BAG JUMBO  0000001000+00000048+00000+0001T   00000048+0000001234          1400 WY2090               3AZ
135780000135780               135780               170213FS     1400+00000+FS0000003506+0000003506+000000000+000000492+0000003990+0000000008+I20000000000+0000003990+Z
135780001135780037-000004     135780006001023763679ASHTRAY PL TUB 8X11CM  0000002000+00001753+00000+0001T   00002192+0008191237          1400 WY2515               3AZ
135781000135781               135781               170213FS     1400+00000+FS0000009997+0000009997+000000000+000001401+0000011390+0000000008+I20000000000+0000011390+Z
135781001135781903-000057     135781006005929000173SWT GS NOVELTY GIANT AL0000001000+00002104+00000+0001T   00002104+0000001238          1400 WY2150               3AZ
135781002135781368-000157     135781006003000167401PLUSH RABBIT           0000001000+00007893+00000+0001T   00007893+0000001238          1400 WY2745               3AZ
135782000135782               135782               170213FS     1400+00000+FS0000009150+0000009150+000000000+000001283+0000010433+0000000000+I40000010433+0000000000+Z
135782001135782306-001001     135782006003000519804FIRSTAID PLASTER FABRIC0000001000+00002630+00000+0001T   00002630+0000001240          1400 WY2200               3AZ
135782002135782306-000023     135782006001023606976COTTON-WOOL-BALLS 50PCE0000001000+00000876+00000+0001T   00000876+0000001240          1400 WY2200               3AZ
135782003135782031-000002-A   135782006003000247103P/FRAME LOVE 7.5X7.5CM 0000001000+00003507+00000+0001T   00003507+0000001240          1400 WY2510               3AZ
135782004135782304-001011     135782006001023806727FLWR ROSE RED W/BEAR   0000002000+00000613+00000+0001T   00000788+0006471240          1400 WY2510               3AZ
135782005135782089-000192-A   135782006001023901774KEY-CHAIN ACRYLIC      0000001000+00000876+00000+0001T   00000876+0000001240          1400 WY2205               3AZ
135782006135782112-116038     135782006009681820246TCS CARRIER BAG MIDI   0000001000+00000035+00000+0001T   00000035+0000001240          1400 WY2090               3AZ
135783000135783               135783               170213FS     1400+00000+FS0000006401+0000006401+000000000+000000897+0000007298+0000000000+I40000007298+0000000000+Z
135783001135783077-000380     135783006003000247585GIFT-BAG 33X45CM S/COL 0000001000+00002455+00000+0001T   00002455+0000001242          1400 WY2112               3AZ
135783002135783024-000002     135783006001023741899S/BURNER-COVER SILV/BLK0000001000+00003946+00000+0001T   00004385+0008191242          1400 WY2300               3AZ
135784000135784               135784               170213FS     1400+00000+FS0000003851+0000003851+000000000+000000540+0000004391+0000000000+I40000004391+0000000000+Z
135784001135784018-000177     135784006001023797513MUG MINI LOVE ASSTD    0000004000+00000700+00000+0001T   00000700+0000001248          1400 WY2515               3AZ
135784002135784903-002890     135784008935001721352MENTOS GUM PURE F/MINT 0000001000+00001051+00000+0001T   00001051+0000001248          1400 WY2150               3AZ
135785000135785               135785               170213FS     1400+00000+FS0000002892+0000002892+000000000+000000406+0000003290+0000000008+I20000000000+0000003290+Z
135785001135785369-001137     135785006003000555062VINYL 5.7cm THEMED DUCK0000001000+00001753+00000+0001T   00001753+0000001248          1400 WY2745               3AZ
135785002135785903-000087     135785006001704000161SWT SPECKLED-EGGS 50G  0000001000+00001139+00000+0001T   00001139+0000001248          1400 WY2150               3AZ
135786000135786               135786               170213FS     1400+00000+FS0000003945+0000003945+000000000+000000553+0000004490+0000000008+I20000000000+0000004490+Z
135786001135786018-000170     135786006001023775528MUG OCC. LOVE 2PC MINI 0000001000+00002192+00000+0001T   00002192+0000001250          1400 WY2515               3AZ
135786002135786006-000324     135786006001023818393PARTY POPPER`S PCK-OF-60000001000+00001753+00000+0001T   00001753+0000001250          1400 WY2131               3AZ
135787000135787               135787               170213FS     1400+00000+FS0000000035+0000000035+000000000+000000005+0000000040+0000000000+I20000000000+0000000040+Z
135787001135787112-116038     135787006009681820246TCS CARRIER BAG MIDI   0000001000+00000035+00000+0001T   00000035+0000001251          1400 WY2090               3AZ
135788000135788               135788               170213FS     1400+00000+FS0000009058+0000009058+000000000+000001272+0000010330+0000000000+I20000000000+0000010330+Z
135788001135788041-007001-B   135788006003000636983H/GLOW LIQUID LAVENDER 0000001000+00002192+00000+0001T   00002192+0000001303          1400 WY2200               3AZ
135788002135788088-000018     135788006003000103331AIR FRESHENER 280 ml   0000001000+00003069+00000+0001T   00003069+0000001303          1400 WY2212               3AZ
135788003135788200-000092     135788006003000576739PICNIC PAPER PLATES 23c0000002000+00001227+00000+0001T   00001227+0000001303          1400 WY2214               3AZ
135788004135788112-116038     135788006009681820246TCS CARRIER BAG MIDI   0000001000+00000035+00000+0001T   00000035+0000001303          1400 WY2090               3AZ
135788005135788006-000172-H   135788006003000610211BALLOONS METALLIC RED  0000002000+00000218+00000+0001T   00000218+0000001303          1400 WY2131               3AZ
135788006135788006-000171-D   135788006003000609291BALLOONS 1PC ORANGE PRN0000002000+00000218+00000+0001T   00000218+0000001303          1400 WY2131               3AZ
135788007135788006-000173-C   135788006003000636518BALLOONS 1PC PINK      0000002000+00000218+00000+0001T   00000218+0000001303          1400 WY2131               3AZ
135789000135789               135789               170213FS     1400+00000+FS0000003507+0000003507+000000000+000000491+0000003998+0000000000+I40000003998+0000000000+Z
135789001135789567-011464     135789009781445442846BK FOOD EVERYDAY       0000001000+00003507+00000+0001T   00003507+0000001412          1400 WY2757               3AZ
135790000135790               135790               170213FS     1400+00000+FS0000001402+0000001402+000000000+000000197+0000001590+0000000009+I20000000000+0000001590+Z
135790001135790304-001204     135790006001023737984FLOWER OCC. TEDDY/ROSES0000001000+00001402+00000+0001T   00001490+0006471416          1400 WY2510               3AZ
135791000135791               135791               170213FS     1400+00000+FS0000003507+0000003507+000000000+000000491+0000003998+0000000000+I40000003998+0000000000+Z
135791001135791018-000136     135791006001023659026MUG OCC LOVE W/PLUSH   0000001000+00003507+00000+0001T   00003507+0000001417          1400 WY2515               3AZ
135792000135792               135792               170213FS     1400+00000+FS0000003507+0000003507+000000000+000000491+0000003990+0000000008+I20000000000+0000003990+Z
135792001135792018-005009     135792006001023725608MUG W/PLUSH-BEAR LOVE  0000001000+00003507+00000+0001T   00003507+0000001419          1400 WY2515               3AZ
135793000135793               135793               170213FS     1400+00000+FS0000012278+0000012278+000000000+000001720+0000013998+0000000000+I40000013998+0000000000+Z
135793001135793035-000002     135793006002596010542UMBRELLA LADIES PRINTED0000002000+00006139+00000+0001T   00006139+0000001423          1400 WY2205               3AZ
135794000135794               135794               170213FS     1400+00000+FS0000002100+0000002100+000000000+000000294+0000002390+0000000004+I20000000000+0000002390+Z
135794001135794018-000177     135794006001023797513MUG MINI LOVE ASSTD    0000003000+00000700+00000+0001T   00000700+0000001431          1400 WY2515               3AZ
135795000135795               135795               170213FS     1400+00000+FS0000003102+0000003102+000000000+000000435+0000003530+0000000007+I20000000000+0000003530+Z
135795001135795077-000470     135795006003000330171G-BAG DESGN SML 11X14CM0000001000+00001314+00000+0001T   00001314+0000001444          1400 WY2112               3AZ
135795002135795077-000011-Y   135795006001023809858TISSUE-WRAP GOLD 10PCE 0000001000+00001753+00000+0001T   00001753+0000001444          1400 WY2112               3AZ
135795003135795112-116038     135795006009681820246TCS CARRIER BAG MIDI   0000001000+00000035+00000+0001T   00000035+0000001444          1400 WY2090               3AZ
135796000135796               135796               170213FS     1400+00000+FS0000001753+0000001753+000000000+000000246+0000001990+0000000009+I20000000000+0000001990+Z
135796001135796080-000105     135796006003000236237CARD & ENVELOPE BDAY   0000001000+00001753+00000+0001T   00001753+0000001444          1400 WY2112               3AZ
135797000135797               135797               170213FS     1400+00000+FS0000000876+0000000876+000000000+000000123+0000000990+0000000009+I20000000000+0000000990+Z
135797001135797077-000151     135797006008766114676GIFT-WRAP C/PHANE ASSTD0000001000+00000876+00000+0001T   00000876+0000001445          1400 WY2112               3AZ
135798000135798               135798               170213FS     1400+00000+FS0000001314+0000001314+000000000+000000184+0000001490+0000000008+I20000000000+0000001490+Z
135798001135798018-000119     135798006003000336074MUG DAILY STRAIGHT     0000001000+00001314+00000+0001T   00001753+0008171455          1400 WY2515               3AZ
135799000135799               135799               170213FS     1400+00000+FS0000008802+0000008802+000000000+000001233+0000010035+0000000000+I40000010035+0000000000+Z
135799001135799077-000382     135799006003000247820GIFT-BAG MED 18X23CM   0000001000+00001753+00000+0001T   00001753+0000001501          1400 WY2112               3AZ
135799002135799031-005853     135799006003000442416P/FRAME WDN TWIN HEARTS0000002000+00003507+00000+0001T   00003507+0000001501          1400 WY2510               3AZ
135799003135799112-116038     135799006009681820246TCS CARRIER BAG MIDI   0000001000+00000035+00000+0001T   00000035+0000001501          1400 WY2090               3AZ
135800000135800               135800               170213FS     1400+00000+FS0000001490+0000001490+000000000+000000209+0000001690+0000000009+I20000000000+0000001690+Z
135800001135800565-004101     135800006003000548033BALL BOUNCING EGG      0000001000+00001490+00000+0001T   00001490+0000001502          1400 WY2745               3AZ
135801000135801               135801               170213FS     1400+00000+FS0000002663+0000002663+000000000+000000374+0000003030+0000000007+I20000000000+0000003030+Z
135801001135801077-000150-D   135801006003000054343GIFT-WRAP CELLPHANE CLR0000001000+00000876+00000+0001T   00000876+0000001503          1400 WY2112               3AZ
135801002135801039-000319-1   135801006003000442386B/CANDLES LRG NUMBER-1 0000001000+00000876+00000+0001T   00000876+0000001503          1400 WY2510               3AZ
135801003135801039-000319-2   135801006003000442508B/CANDLES LRG NUMBER-2 0000001000+00000876+00000+0001T   00000876+0000001503          1400 WY2510               3AZ
135801004135801112-116038     135801006009681820246TCS CARRIER BAG MIDI   0000001000+00000035+00000+0001T   00000035+0000001503          1400 WY2090               3AZ
135802000135802               135802               170213FS     1400+00000+FS0000006698+0000006698+000000000+000000938+0000007630+0000000006+I20000000000+0000007630+Z
135802001135802080-000124     135802006003000297733CARD & ENV VALENTINES  0000002000+00001578+00000+0001T   00001578+0000001504          1400 WY2112               3AZ
135802002135802301-085004     135802006003000420469ORN LOVE PLAQUE 21X10CM0000001000+00003507+00000+0001T   00003946+0006471504          1400 WY2505               3AZ
135802003135802112-116038     135802006009681820246TCS CARRIER BAG MIDI   0000001000+00000035+00000+0001T   00000035+0000001504          1400 WY2090               3AZ
135803000135803               135803               170213FS     1400+00000+FS0000001226+0000001226+000000000+000000172+0000001390+0000000008+I20000000000+0000001390+Z
135803001135803077-000311     135803006001023608666GIFT-BAG 11X14CM GLOSS 0000002000+00000613+00000+0001T   00000613+0000001505          1400 WY2112               3AZ
135804000135804               135804               170213FS     1400+00000+FS0000010521+0000010521+000000000+000001473+0000011990+0000000004+I20000000000+0000011990+Z
135804001135804104-000180     135804006001023765758CUTLERY-TRAY PL        0000003000+00003507+00000+0001T   00003507+0000001507          1400 WY2210               3AZ
135805000135805               135805               170213FS     1400+00000+FS0000012279+0000012279+000000000+000001720+0000013990+0000000009+I20000000000+0000013990+Z
135805001135805019-000079     135805006001023775726VASE 30cm CRACK-DESIGN 0000001000+00012279+00000+0001T   00012279+0000001512          1400 WY2510               3AZ
135806000135806               135806               170213FS     1400+00000+FS0000000700+0000000700+000000000+000000098+0000000790+0000000008+I20000000000+0000000790+Z
135806001135806018-000177     135806006001023797513MUG MINI LOVE ASSTD    0000001000+00000700+00000+0001T   00000700+0000001515          1400 WY2515               3AZ
135807000135807               135807               170213FS     1400+00000+FS0000014024+0000014024+000000000+000001968+0000015990+0000000002+I20000000000+0000015990+Z
135807001135807251-000071     135807006003000451890PROTECTION-PADS BLK ADH0000003000+00001753+00000+0001T   00001753+0000001518          1400 WY2810               3AZ
135807002135807251-000074     135807006003000452255PROTECTION-PADS BLK ADH0000005000+00001753+00000+0001T   00001753+0000001518          1400 WY2810               3AZ
135808000135808               135808               170213FS     1400+00000+FS0000006665+0000006665+000000000+000000934+0000007590+0000000009+I20000000000+0000007590+Z
135808001135808047-000006-H   135808006001023704054M/PLUG 3x16A+3x5A+CARD 0000001000+00006665+00000+0001T   00006665+0000001524          1400 WY2880               3AZ
135809000135809               135809               170213FS     1400+00000+FS0000008540+0000008540+000000000+000001199+0000009739+0000000000+I40000009739+0000000000+Z
135809001135809077-000315     135809006003000181186GIFT-BAG 20x28cm MATT  0000001000+00001578+00000+0001T   00001578+0000001528          1400 WY2112               3AZ
135809002135809903-000861     135809005010478430822SWT LOVE HEARTS SML    0000001000+00000876+00000+0001T   00000876+0000001528          1400 WY2150               3AZ
135809003135809903-002891     135809008935001721376MENTOS GUM WINTERGREEN 0000001000+00001051+00000+0001T   00001051+0000001528          1400 WY2150               3AZ
135809004135809903-000520     135809006001704009898SWT GUMMY MINI SOUR 60g0000001000+00000876+00000+0001T   00000876+0000001528          1400 WY2150               3AZ
135809005135809903-000494     135809006001704009911SWT GUMMY TEENY TEDDIES0000001000+00000876+00000+0001T   00000876+0000001528          1400 WY2150               3AZ
135809006135809903-004960     135809008410525221842SWT GUMMY STR/BERRY 50G0000001000+00000964+00000+0001T   00000964+0000001528          1400 WY2150               3AZ
135809007135809903-000482     135809006001704001397SWT SOFT-MINTS 60G     0000001000+00000876+00000+0001T   00000876+0000001528          1400 WY2150               3AZ
135809008135809903-000121     135809006002099001689SWT GS ZILLIONS SOURS  0000001000+00000700+00000+0001T   00000700+0000001528          1400 WY2150               3AZ
135809009135809079-009700-D   135809006003000545711PAPER SIRIO A4 RED COL.0000001000+00000306+00000+0001T   00000306+0000001528          1400 WY2130               3AZ
135809010135809080-000133     135809006003000535613CARD&ENV MINI ASTD DSGN0000001000+00000437+00000+0001T   00000437+0000001528          1400 WY2112               3AZ
135810000135810               135810               170213FS     1400+00000+FS0000003945+0000003945+000000000+000000553+0000004490+0000000008+I20000000000+0000004490+Z
135810001135810080-000109     135810006003000237203CARD&ENVLPE BDAY-BRIGHT0000001000+00001753+00000+0001T   00001753+0000001533          1400 WY2112               3AZ
135810002135810080-000127     135810006003000424351VALENTINES DAY 36x24CM 0000001000+00002192+00000+0001T   00002192+0000001533          1400 WY2112               3AZ
135811000135811               135811               170213FS     1400+00000+FS0000007927+0000007927+000000000+000001111+0000009038+0000000000+I40000009038+0000000000+Z
135811001135811368-000152     135811006003000166886PLUSH BEAR 15cm        0000002000+00003946+00000+0001T   00005262+0008141535          1400 WY2745               3AZ
135811002135811112-116038     135811006009681820246TCS CARRIER BAG MIDI   0000001000+00000035+00000+0001T   00000035+0000001535          1400 WY2090               3AZ
135812000135812               135812               170213FS     1400+00000+FS0000002980+0000002980+000000000+000000418+0000003398+0000000000+I40000003398+0000000000+Z
135812001135812077-000452     135812006003000284986G/BAG METALLIC MED EMB 0000002000+00001490+00000+0001T   00001490+0000001538          1400 WY2112               3AZ
135813000135813               135813               170213FS     1400+00000+FS0000001753+0000001753+000000000+000000246+0000001990+0000000009+I20000000000+0000001990+Z
135813001135813251-000006     135813006001023499158TAPE DBL-SIDED AUTO    0000001000+00001753+00000+0001T   00001753+0000001540          1400 WY2810               3AZ
135814000135814               135814               170213FS     1400+00000+FS0000002454+0000002454+000000000+000000344+0000002790+0000000008+I20000000000+0000002790+Z
135814001135814077-000245     135814006001023759214GIFT-RIBBON METALLICx2 0000002000+00001227+00000+0001T   00001227+0000001541          1400 WY2112               3AZ
135815000135815               135815               170213FS     1400+00000+FS0000004822+0000004822+000000000+000000676+0000005490+0000000008+I20000000000+0000005490+Z
135815001135815565-000040     135815006008766115635NOVELTY ICON BEANIE    0000001000+00002630+00000+0001T   00002630+0000001545          1400 WY2745               3AZ
135815002135815080-000127     135815006003000424351VALENTINES DAY 36x24CM 0000001000+00002192+00000+0001T   00002192+0000001545          1400 WY2112               3AZ
135816000135816               135816               170213FS     1400+00000+FS0000001314+0000001314+000000000+000000184+0000001490+0000000008+I20000000000+0000001490+Z
135816001135816077-000470     135816006003000330171G-BAG DESGN SML 11X14CM0000001000+00001314+00000+0001T   00001314+0000001549          1400 WY2112               3AZ
135817000135817               135817               170213FS     1400+00000+FS0000003069+0000003069+000000000+000000430+0000003499+0000000000+I40000003499+0000000000+Z
135817001135817016-006530     135817006003000618668S/JAR GLS COUNTER 2SIDE0000001000+00003069+00000+0001T   00003069+0000001551          1400 WY2300               3AZ
135818000135818               135818               170213FS     1400+00000+FS0000011533+0000011533+000000000+000001617+0000013150+0000000000+I40000013150+0000000000+Z
135818001135818079-011520     135818006003000160549ART+CRAFT SET SAND BOTL0000001000+00007016+00000+0001T   00007893+0008191554          1400 WY2130               3AZ
135818002135818366-002101     135818006003000617715DRESS UP MASK LIGHT UP 0000001000+00002630+00000+0001T   00002630+0000001554          1400 WY2131               3AZ
135818003135818565-000071     135818006003000643387NOVELTY WIND UP CHATTER0000001000+00001139+00000+0001T   00001139+0000001554          1400 WY2745               3AZ
135818004135818018-000177     135818006001023797513MUG MINI LOVE ASSTD    0000001000+00000700+00000+0001T   00000700+0000001554          1400 WY2515               3AZ
135818005135818112-116069     135818006009681820277TCS CARRIER BAG JUMBO  0000001000+00000048+00000+0001T   00000048+0000001554          1400 WY2090               3AZ
135819000135819               135819               170213FS     1400+00000+FS0000002185+0000002185+000000000+000000310+0000002490+0000000005+I20000000000+0000002490+Z
135819001135819903-000011     135819006002099007315SWT MALLOW CHOC 15G    0000005000+00000437+00000+0001T   00000437+0000001557          1400 WY2150               3AZ
135820000135820               135820               170213FS     1400+00000+FS0000001753+0000001753+000000000+000000246+0000001999+0000000000+I40000001999+0000000000+Z
135820001135820080-000112     135820006003000252749CARD&ENVLP BDAY-MUSICAL0000001000+00001753+00000+0001T   00001753+0000001600          1400 WY2112               3AZ
135821000135821               135821               170213FS     1400+00000+FS0000000437+0000000437+000000000+000000062+0000000490+0000000009+I20000000000+0000000490+Z
135821001135821080-000133     135821006003000535613CARD&ENV MINI ASTD DSGN0000001000+00000437+00000+0001T   00000437+0000001600          1400 WY2112               3AZ
135822000135822               135822               170213FS     1400+00000+FS0000004385+0000004385+000000000+000000614+0000004990+0000000009+I20000000000+0000004990+Z
135822001135822103-000082     135822006001023710857BAMBOO BASKET 21x17x8cm0000001000+00004385+00000+0001T   00004385+0000001601          1400 WY2300               3AZ
135823000135823               135823               170213FS     1400+00000+FS0000002274+0000002274+000000000+000000320+0000002590+0000000004+I20000000000+0000002590+Z
135823001135823903-000885     135823008690997017147SWT L/BIRD CHOC BISCUIT0000002000+00000437+00000+0001T   00000437+0000001602          1400 WY2150               3AZ
135823002135823018-000177     135823006001023797513MUG MINI LOVE ASSTD    0000002000+00000700+00000+0001T   00000700+0000001602          1400 WY2515               3AZ
135824000135824               135824               170213FS     1400+00000+FS0000007015+0000007015+000000000+000000983+0000007998+0000000000+I40000007998+0000000000+Z
135824001135824304-001115     135824006001023738240FLOWER-BUNCH CARNATIONS0000001000+00005262+00000+0001T   00005262+0000001615          1400 WY2510               3AZ
135824002135824077-000381     135824006003000247707GIFT-BAG 25X32CM S/COL 0000001000+00001753+00000+0001T   00001753+0000001615          1400 WY2112               3AZ
135825000135825               135825               170213FS     1400+00000+FS0000002630+0000002630+000000000+000000369+0000002999+0000000000+I40000002999+0000000000+Z
135825001135825077-000270     135825006003000395453GIFT-BAG PPR JMB 33X45 0000001000+00002630+00000+0001T   00002630+0000001617          1400 WY2112               3AZ
135826000135826               135826               170213FS     1400+00000+FS0000004769+0000004769+000000000+000000668+0000005430+0000000007+I20000000000+0000005430+Z
135826001135826018-000136     135826006001023659026MUG OCC LOVE W/PLUSH   0000001000+00003507+00000+0001T   00003507+0000001619          1400 WY2515               3AZ
135826002135826077-000322     135826006001023677532GIFT-BAG 18X23CM E/D FL0000001000+00001227+00000+0001T   00001227+0000001619          1400 WY2112               3AZ
135826003135826112-116038     135826006009681820246TCS CARRIER BAG MIDI   0000001000+00000035+00000+0001T   00000035+0000001619          1400 WY2090               3AZ
135827000135827               135827               170213FS     1400+00000+FS0000002630+0000002630+000000000+000000369+0000002999+0000000000+I40000002999+0000000000+Z
135827001135827037-000006     135827006003000171996ASHTRAY PL TUB GIANT   0000001000+00002630+00000+0001T   00003069+0008191622          1400 WY2515               3AZ
135828000135828               135828               170213FS     1400+00000+FS0000016662+0000016662+000000000+000002335+0000018990+0000000007+I20000000000+0000018990+Z
135828001135828077-000270     135828006003000395453GIFT-BAG PPR JMB 33X45 0000001000+00002630+00000+0001T   00002630+0000001624          1400 WY2112               3AZ
135828002135828368-000637     135828006001023874092PLUSH BEAR SLEEPING LOV0000001000+00011402+00000+0001T   00012279+0006471624          1400 WY2745               3AZ
135828003135828464-000110     135828006001023868824PLAYING-CARDS JUMBO    0000001000+00002630+00000+0001T   00002630+0000001624          1400 WY2785               3AZ
135829000135829               135829               170213FS     1400+00000+FS0000007013+0000007013+000000000+000000984+0000007990+0000000007+I20000000000+0000007990+Z
135829001135829080-008102     135829006003000080724CARD&ENV MINI 6PK FOIL 0000001000+00001753+00000+0001T   00001753+0000001625          1400 WY2112               3AZ
135829002135829019-000131     135829006003000456253PLANT. T/PLATE 10X12.5 0000002000+00002630+00000+0001T   00002630+0000001625          1400 WY2510               3AZ
135830000135830               135830               170213FS     1400+00000+FS0000015788+0000015788+000000000+000002211+0000017999+0000000000+I40000017999+0000000000+Z
135830001135830261-009943     135830006003000298822GUN WATER JUMBO        0000001000+00015788+00000+0001T   00015788+0000001629          1400 WY2710               3AZ
135831000135831               135831               170213FS     1400+00000+FS0000006047+0000006047+000000000+000000849+0000006896+0000000000+I40000006896+0000000000+Z
135831001135831077-000270     135831006003000395453GIFT-BAG PPR JMB 33X45 0000001000+00002630+00000+0001T   00002630+0000001632          1400 WY2112               3AZ
135831002135831304-001204     135831006001023737984FLOWER OCC. TEDDY/ROSES0000001000+00001402+00000+0001T   00001490+0006471632          1400 WY2510               3AZ
135831003135831077-000151     135831006008766114676GIFT-WRAP C/PHANE ASSTD0000001000+00000876+00000+0001T   00000876+0000001632          1400 WY21123IC            3AZ
135831004135831903-000087     135831006001704000161SWT SPECKLED-EGGS 50G  0000001000+00001139+00000+0001T   00001139+0000001632          1400 WY2150               3AZ
135832000135832               135832               170213FS     1400+00000+FS0000006887+0000006887+000000000+000000965+0000007850+0000000002+I20000000000+0000007850+Z
135832001135832029-000009     135832006001023809575BUCKET GALV  2L        0000001000+00004385+00000+0001T   00004385+0000001639          1400 WY2510               3AZ
135832002135832028-000799     135832006001023812186SKEWERS BAMBOO 100PCE  0000001000+00001578+00000+0001T   00001578+0000001639          1400 WY2305               3AZ
135832003135832077-000150-D   135832006003000054343GIFT-WRAP CELLPHANE CLR0000001000+00000876+00000+0001T   00000876+0000001639          1400 WY2112               3AZ
135832004135832112-116069     135832006009681820277TCS CARRIER BAG JUMBO  0000001000+00000048+00000+0001T   00000048+0000001639          1400 WY2090               3AZ
135833000135833               135833               170213FS     1400+00000+FS0000007889+0000007889+000000000+000001107+0000008996+0000000000+I40000008996+0000000000+Z
135833001135833077-000240     135833006003000326259G/RIBBON 4PC PEARLIZED 0000001000+00001753+00000+0001T   00001753+0000001645          1400 WY2112               3AZ
135833002135833077-000011-E   135833006001023808646TISSUE-WRAP PINK 10PCE 0000001000+00000876+00000+0001T   00000876+0000001645          1400 WY2112               3AZ
135833003135833024-091103-B   135833006003000422548CAKE BOX 6PC CUPCAKES  0000002000+00002630+00000+0001T   00002630+0000001645          1400 WY2300               3AZ
135834000135834               135834               170213FS     1400+00000+FS0000059550+0000059550+000000000+000008344+0000067894+0000000000+I40000067894+0000000000+Z
135834001135834006-000190     135834006003000685530BALLOONS LOVE 81x91cm  0000001000+00004385+00000+0001T   00004385+0000001651          1400 WY2131               3AZ
135834002135834006-001000     135834006003000093779HELIUM BALLOON FILL    0000002000+00000613+00000+0001T   00000613+0000001651          1400 WY2131               3AZ
135834003135834077-000270     135834006003000395453GIFT-BAG PPR JMB 33X45 0000001000+00002630+00000+0001T   00002630+0000001651          1400 WY2112               3AZ
135834004135834368-000113     135834006001023780874PLUSH BLINGED LOVE 30cm0000002000+00012279+00000+0001T   00012279+0000001651          1400 WY2745               3AZ
135834006135834301-085008     135834006003000673933ORN OCC.LOVE TINSEL HRT0000001000+00003069+00000+0001T   00003069+0000001651          1400 WY2505               3AZ
135834007135834030-004080     135834006003000657780PLAQUE WOODEN SIGN     0000001000+00010525+00000+0001T   00010525+0000001651          1400 WY2505               3AZ
135834008135834301-085004     135834006003000420469ORN LOVE PLAQUE 21X10CM0000001000+00003507+00000+0001T   00003946+0006471651          1400 WY2505               3AZ
135834009135834304-001204     135834006001023737984FLOWER OCC. TEDDY/ROSES0000001000+00001402+00000+0001T   00001490+0006471651          1400 WY2510               3AZ
135834010135834018-000170     135834006001023775528MUG OCC. LOVE 2PC MINI 0000001000+00002192+00000+0001T   00002192+0000001651          1400 WY2515               3AZ
135834011135834018-000177     135834006001023797513MUG MINI LOVE ASSTD    0000001000+00000700+00000+0001T   00000700+0000001651          1400 WY2515               3AZ
135834012135834018-000129     135834006001023403353MUG OCC. LOVE V-SHAPE  0000002000+00002630+00000+0001T   00002630+0000001651          1400 WY2515               3AZ
135834013135834112-116069     135834006009681820277TCS CARRIER BAG JUMBO  0000001000+00000048+00000+0001T   00000048+0000001651          1400 WY2090               3AZ
135834014135834112-116069     135834006009681820277TCS CARRIER BAG JUMBO  0000001000+00000048+00000+0001T   00000048+0000001651          1400 WY2090               3AZ
135835000135835               135835               170213FS     1400+00000+FS0000022145+0000022145+000000000+000003104+0000025249+0000000000+I40000025249+0000000000+Z
135835001135835366-007601     135835006003000655472DRESS UP MASK THEATRICA0000001000+00000876+00000+0001T   00000876+0000001657          1400 WY2131               3AZ
135835002135835301-085007     135835006003000673698ORN OCC. LOVE S/PLAQUE 0000001000+00007893+00000+0001T   00007893+0000001657          1400 WY2505               3AZ
135835003135835001-091415     135835006003000329113W/GLS OCC. LOVE 2PC 2800000001000+00008771+00000+0001T   00009648+0006471657          1400 WY2515               3AZ
135835004135835039-001023     135835006003000466337CANDLE TEA-LITE METALIC0000001000+00001753+00000+0001T   00001753+0000001657          1400 WY2510               3AZ
135835005135835040-000923     135835006001023587831CANDLE-HOLDER GLS 13.5 0000001000+00001753+00000+0001T   00001753+0000001657          1400 WY2510               3AZ
135835006135835039-000026     135835006001023551610C/TAPERED 25CM M/RED   0000001000+00001051+00000+0001T   00001051+0000001657          1400 WY2510               3AZ
135835007135835112-116069     135835006009681820277TCS CARRIER BAG JUMBO  0000001000+00000048+00000+0001T   00000048+0000001657          1400 WY2090               3AZ
135836000135836               135836               170213FS     1400+00000+FS0000005611+0000005611+000000000+000000786+0000006397+0000000000+I40000006397+0000000000+Z
135836001135836006-000190     135836006003000685530BALLOONS LOVE 81x91cm  0000001000+00004385+00000+0001T   00004385+0000001659          1400 WY2131               3AZ
135836002135836006-001000     135836006003000093779HELIUM BALLOON FILL    0000002000+00000613+00000+0001T   00000613+0000001659          1400 WY2131               3AZ
135837000135837               135837               170213FS     1400+00000+FS0000003542+0000003542+000000000+000000496+0000004030+0000000008+I20000000000+0000004030+Z
135837002135837301-085004     135837006003000420469ORN LOVE PLAQUE 21X10CM0000001000+00003507+00000+0001T   00003946+0006471700          1400 WY2505               3AZ
135837003135837112-116038     135837006009681820246TCS CARRIER BAG MIDI   0000001000+00000035+00000+0001T   00000035+0000001700          1400 WY2090               3AZ
135838000135838               135838               170213FS     1400+00000+FS0000011432+0000011432+000000000+000001603+0000013030+0000000005+I20000000000+0000013030+Z
135838001135838072-020320     135838006003000603343PET DOG TOY TUG-ROPE   0000001000+00002630+00000+0001T   00002630+0000001707          1400 WY2870               3AZ
135838002135838072-020310     135838006001023701015PET TOY MINI TENNIS BAL0000001000+00003507+00000+0001T   00003507+0000001707          1400 WY2870               3AZ
135838003135838072-020351     135838006001023598059DOG/CAT BOWL PL 16cm   0000002000+00002630+00000+0001T   00002630+0000001707          1400 WY2870               3AZ
135838004135838112-116038     135838006009681820246TCS CARRIER BAG MIDI   0000001000+00000035+00000+0001T   00000035+0000001707          1400 WY2090               3AZ
135839000135839               135839               170213FS     1400+00000+FS0000003101+0000003101+000000000+000000436+0000003537+0000000000+I40000003537+0000000000+Z
135839001135839077-000011-D   135839006001023808554TISSUE-WRAP WHITE 10PCE0000001000+00000876+00000+0001T   00000876+0000001711          1400 WY2112               3AZ
135839002135839077-000316     135839006001023609731GIFT-BAG 25X32CM MATT  0000001000+00001753+00000+0001T   00001753+0000001711          1400 WY2112               3AZ
135839003135839112-116038     135839006009681820246TCS CARRIER BAG MIDI   0000001000+00000035+00000+0001T   00000035+0000001711          1400 WY2090               3AZ
135839004135839080-000133     135839006003000535613CARD&ENV MINI ASTD DSGN0000001000+00000437+00000+0001T   00000437+0000001711          1400 WY2112               3AZ
135840000135840               135840               170213FS     1400+00000+FS0000000613+0000000613+000000000+000000086+0000000690+0000000009+I20000000000+0000000690+Z
135840001135840077-000321     135840006001023677501GIFT-BAG 11X14CM E/D FL0000001000+00000613+00000+0001T   00000613+0000001716          1400 WY2112               3AZ
135841000135841               135841               170213FS     1400+00000+FS0000024602+0000024602+000000000+000003446+0000028048+0000000000+I40000028048+0000000000+Z
135841001135841031-001002     135841006003000253142P/FRAME COLLAGE 68X35CM0000001000+00013157+00000+0001T   00013157+0000001720          1400 WY2510               3AZ
135841002135841002-000652     135841006001023553188M/SPOON WDN 3PC H/HOUSE0000001000+00003069+00000+0001T   00003069+0000001720          1400 WY2300               3AZ
135841003135841028-085275     135841006003000092611BBQ LIGHTER FLEXIBLE   0000001000+00003507+00000+0001T   00003507+0000001720          1400 WY2305               3AZ
135841004135841105-001180     135841006003000666522CONTAINER SET LITE 3PC 0000001000+00003069+00000+0001T   00003069+0000001720          1400 WY2210               3AZ
135841005135841077-000151     135841006008766114676GIFT-WRAP C/PHANE ASSTD0000002000+00000876+00000+0001T   00000876+0000001720          1400 WY2112               3AZ
135841006135841112-116069     135841006009681820277TCS CARRIER BAG JUMBO  0000001000+00000048+00000+0001T   00000048+0000001720          1400 WY2090               3AZ
135842000135842               135842               170213FS     1400+00000+FS0000009767+0000009767+000000000+000001369+0000011136+0000000000+I40000011136+0000000000+Z
135842001135842304-001204     135842006001023737984FLOWER OCC. TEDDY/ROSES0000001000+00001402+00000+0001T   00001490+0006471722          1400 WY2510               3AZ
135842002135842018-005009     135842006001023725608MUG W/PLUSH-BEAR LOVE  0000001000+00003507+00000+0001T   00003507+0000001722          1400 WY2515               3AZ
135842003135842301-085001     135842006003000297610ORN WATERBALL LOVE ASST0000001000+00004823+00000+0001T   00004823+0000001722          1400 WY2505               3AZ
135842004135842112-116038     135842006009681820246TCS CARRIER BAG MIDI   0000001000+00000035+00000+0001T   00000035+0000001722          1400 WY2090               3AZ
135843000135843               135843               170213FS     1400+00000+FS0000032571+0000032571+000000000+000004564+0000037135+0000000000+I40000037135+0000000000+Z
135843001135843018-000136     135843006001023659026MUG OCC LOVE W/PLUSH   0000001000+00003507+00000+0001T   00003507+0000001725          1400 WY2515               3AZ
135843002135843018-000130     135843006001023867537MUG OCC LOVE MINI+HEART0000001000+00003507+00000+0001T   00003507+0000001725          1400 WY2515               3AZ
135843003135843018-005009     135843006001023725608MUG W/PLUSH-BEAR LOVE  0000001000+00003507+00000+0001T   00003507+0000001725          1400 WY2515               3AZ
135843004135843018-000170     135843006001023775528MUG OCC. LOVE 2PC MINI 0000001000+00002192+00000+0001T   00002192+0000001725          1400 WY2515               3AZ
135843005135843018-000177     135843006001023797513MUG MINI LOVE ASSTD    0000001000+00000700+00000+0001T   00000700+0000001725          1400 WY2515               3AZ
135843006135843007-000657     135843006003000081905STATIONERY SET GIRL    0000002000+00005262+00000+0001T   00005262+0000001725          1400 WY2130               3AZ
135843007135843077-000302     135843008010410010195GIFT-BAG 18X23CM E/D   0000001000+00000876+00000+0001T   00000876+0000001725          1400 WY2112               3AZ
135843008135843077-000314     135843006003000181148GIFT-BAG 11X14CM MATT  0000001000+00000876+00000+0001T   00000876+0000001725          1400 WY2112               3AZ
135843009135843077-000302     135843008010410010195GIFT-BAG 18X23CM E/D   0000001000+00000876+00000+0001T   00000876+0000001725          1400 WY2112               3AZ
135843010135843077-000319     135843006001023609779GIFT-BAG 18X23CM BIRTHD0000002000+00001227+00000+0001T   00001227+0000001725          1400 WY2112               3AZ
135843011135843077-000302     135843008010410010195GIFT-BAG 18X23CM E/D   0000002000+00000876+00000+0001T   00000876+0000001725          1400 WY2112               3AZ
135843012135843077-000408     135843006003000145218G/BAG PP 15X21X7CM     0000001000+00000876+00000+0001T   00000876+0000001725          1400 WY2112               3AZ
135843013135843903-000809     135843006009680772232SWT CANDY FROOTEEZ 50g 0000001000+00000876+00000+0001T   00000876+0000001725          1400 WY2150               3AZ
135843014135843112-116069     135843006009681820277TCS CARRIER BAG JUMBO  0000001000+00000048+00000+0001T   00000048+0000001725          1400 WY2090               3AZ
135844000135844               135844               170213FS     1400+00000+FS0000001788+0000001788+000000000+000000251+0000002030+0000000009+I20000000000+0000002030+Z
135844001135844002-000746     135844006003000463305GRATER 3-ASSTD COLOURS 0000001000+00001753+00000+0001T   00001753+0000001727          1400 WY2300               3AZ
135844002135844112-116038     135844006009681820246TCS CARRIER BAG MIDI   0000001000+00000035+00000+0001T   00000035+0000001727          1400 WY2090               3AZ
135845000135845               135845               170213FS     1400+00000+FS0000010520+0000010520+000000000+000001476+0000011990+0000000006+I20000000000+0000011990+Z
135845001135845077-000270     135845006003000395453GIFT-BAG PPR JMB 33X45 0000004000+00002630+00000+0001T   00002630+0000001729          1400 WY2112               3AZ
135846000135846               135846               170213FS     1400+00000+FS0000004823+0000004823+000000000+000000676+0000005490+0000000009+I20000000000+0000005490+Z
135846001135846046-000012-VP  135846006003000537914BATTERIES H/P SIZE:AA  0000001000+00004823+00000+0001T   00004823+0000001736          1400 WY2312               3AZ
A17021300                                          09530961FSSLAVE 3                       WY23IC
A17021301                                          16532933FSSLAVE 3                       WY21IC
B13583100                                          170213FS077-000151     16312086SLAVE 3     WY23IC0000002000+0000001000+0000000000000+
C13577900                                          170213FS080-000127     12332268SLAVE 3     WY23IC0000000000+0000000000+0070000001000+
C13581600                                          170213FS080-000139     15474545SLAVE 3     WY21IC0000000000+0000000000+0010000001000+
C13583400                                          170213FS006-000190     16483013SLAVE 3     WY21IC0000000000+0000000000+0050000001000+
C13583700                                          170213FS039-809558     16595622SLAVE 3     WY21IC0000000000+0000000000+0010000001000+
M17021301                              IT DEPT     FSFROM LANGENHOVEN PARK FS                                                                        LAST TILL TRANSACTION SLAVE 3 135846                                                            THANX
M17021391                              CASH        FSSLAVE 3                       Z-REPORT No.   508TOTAL (Sales - Refunds)           7788.98       CASH TO BE BANKED                 3385.50       DEBIT CARDS                          0.00       CREDIT CARDS                      4403.48       Z-READING                         7788.98       AIRTIME DEBIT CARD SALES             0.00       AIRTIME CARD SALES                   0.00       OVERS/UNDERS                         0.00       AIRTIME CASH SALES                   0.00       GIFT CARDS                           0.00       GIFT CARD CASH SALES                 0.00       T O T A L  CASH PAYOUTS              0.00                                                                                                                                                                                                                                                                                                                                                      Z
M17021392                              CASH        FSABSENT                                                                                                                                                                                          ANNUAL LEAVE                                                                                                                                                                                    DAY OFF                                                                                                                                                                                         COMMENTS                                                                                                                                                                                                                                                                                                                                                                                       Z
Y17021300                                          FS00000000683534+000097
ZFS17021319393 SLAVE 3      SALES DATA                     NEXT INVOICE NO.  135847 0508
X FS Slave 3 First invoice 135750 170213 Last invoice 135846 170213 Next invoice 135847 Total number of records 000000351 clbackup completed 19:39:20
