101541000101541               101541               170213FT     1400+00000+FT0000000876+0000000876+000000000+000000123+0000000990+0000000009+I20000000000+0000000990+Z
101541001101541071-003000     101541006003000543229PEN BALL PEN 3PCE MULTI0000001000+00000876+00000+0001T   00000876+0000001026          1400 JW7130               1AZ
101542000101542               101542               170213FT     1400+00000+FT0000002366+0000002366+000000000+000000332+0000002690+0000000008+I20000000000+0000002690+Z
101542001101542903-000087     101542006001704000161SWT SPECKLED-EGGS 50G  0000001000+00001139+00000+0001T   00001139+0000001028          1400 JW7150               1AZ
101542002101542903-004951     101542006002580020328SWT MALLOW MINI M/SHAKE0000001000+00001227+00000+0001T   00001227+0000001028          1400 JW7150               1AZ
101543000101543               101543               170213FT     1400+00000+FT0000006786+0000006786+000000000+000000951+0000007737+0000000000+I40000007737+0000000000+Z
101543001101543368-000152     101543006003000166886PLUSH BEAR 15cm        0000001000+00003946+00000+0001T   00005262+0008141031          1400 JW7745               1AZ
101543002101543080-000139     101543006003000611690CARD & ENV MINI SET 6PC0000001000+00002192+00000+0001T   00002192+0000001031          1400 JW7112               1AZ
101543003101543077-000311     101543006001023608666GIFT-BAG 11X14CM GLOSS 0000001000+00000613+00000+0001T   00000613+0000001031          1400 JW7112               1AZ
101543004101543112-116038     101543006009681820246TCS CARRIER BAG MIDI   0000001000+00000035+00000+0001T   00000035+0000001031          1400 JW7090               1AZ
101544000101544               101544               170213FT     1400+00000+FT0000015348+0000015348+000000000+000002150+0000017498+0000000000+I40000017498+0000000000+Z
101544001101544140-092000     101544006001023819130MOSQ-NET 1250x250x65cm 0000001000+00014911+00000+0001T   00014911+0000001034          1400 JW7830               1AZ
101544002101544080-000133-A   101544006003000647019MINI VALENTINES CARD   0000001000+00000437+00000+0001T   00000437+0000001034          1400 JW7112               1AZ
101545000101545               101545               170213FT     1400+00000+FT0000003769+0000003769+000000000+000000528+0000004297+0000000000+I40000004297+0000000000+Z
101545001101545072-020311     101545006003000494132PET DOG TOY VINYL BALL 0000001000+00003069+00000+0001T   00003069+0000001052          1400 JW7870               1AZ
101545002101545903-000126     101545006002099003591SWT ZILLIONS MINT 50G  0000001000+00000700+00000+0001T   00000700+0000001052          1400 JW7150               1AZ
101546000101546               101546               170213FT     1400+00000+FT0000000876+0000000876+000000000+000000123+0000000990+0000000009+I20000000000+0000000990+Z
101546001101546903-000006     101546006923431571571SWEET GS SOUR BELT 50g 0000001000+00000876+00000+0001T   00000876+0000001127          1400 JW7150               1AZ
101547000101547               101547               170213FT     1400+00000+FT0000003506+0000003506+000000000+000000492+0000003990+0000000008+I20000000000+0000003990+Z
101547001101547903-000211     101547006002099001238SWT GS MALLOW ICE CREAM0000002000+00001753+00000+0001T   00001753+0000001127          1400 JW7150               1AZ
101548000101548               101548               170213FT     1400+00000+FT0000000035+0000000035+000000000+000000005+0000000040+0000000000+I20000000000+0000000040+Z
101548001101548112-116038     101548006009681820246TCS CARRIER BAG MIDI   0000001000+00000035+00000+0001T   00000035+0000001128          1400 JW7090               1AZ
101549000101549               101549               170213FT     1400+00000+FT0000002978+0000002978+000000000+000000418+0000003396+0000000000+I40000003396+0000000000+Z
101549001101549903-000087     101549006001704000161SWT SPECKLED-EGGS 50G  0000001000+00001139+00000+0001T   00001139+0000001305          1400 JW7150               1AZ
101549002101549018-000177     101549006001023797513MUG MINI LOVE ASSTD    0000001000+00000700+00000+0001T   00000700+0000001305          1400 JW7515               1AZ
101549003101549903-000087     101549006001704000161SWT SPECKLED-EGGS 50G  0000001000+00001139+00000+0001T   00001139+0000001305          1400 JW7150               1AZ
101550000101550               101550               170213FT     1400+00000+FT0000008375+0000008375+000000000+000001176+0000009550+0000000001+I20000000000+0000009550+Z
101550001101550079-000020     101550006003000590889PENCIL DOUBLE ENDED    0000001000+00002630+00000+0001T   00002630+0000001309          1400 JW7130               1AZ
101550002101550080-000133-A   101550006003000647019MINI VALENTINES CARD   0000001000+00000437+00000+0001T   00000437+0000001309          1400 JW7112               1AZ
101550003101550031-005821     101550006001023667786P/FRAME-GLS CLIP 21X30 0000002000+00002630+00000+0001T   00002630+0000001309          1400 JW7510               1AZ
101550004101550112-116069     101550006009681820277TCS CARRIER BAG JUMBO  0000001000+00000048+00000+0001T   00000048+0000001309          1400 JW7090               1AZ
101551000101551               101551               170213FT     1400+00000+FT0000004385+0000004385+000000000+000000614+0000004990+0000000009+I20000000000+0000004990+Z
101551001101551082-000105     101551006003000360369READING GLS STRNGHT:1.50000001000+00004385+00000+0001T   00004385+0000001311          1400 JW7160               1AZ
101552000101552               101552               170213FT     1400+00000+FT0000001538+0000001538+000000000+000000216+0000001750+0000000004+I20000000000+0000001750+Z
101552001101552077-000299     101552006003000395576G/BAG 32x25cm LRG LOVE 0000001000+00001490+00000+0001T   00001490+0000001313          1400 JW7112               1AZ
101552002101552112-116069     101552006009681820277TCS CARRIER BAG JUMBO  0000001000+00000048+00000+0001T   00000048+0000001313          1400 JW7090               1AZ
101553000101553               101553               170213FT     1400+00000+FT0000001753+0000001753+000000000+000000246+0000001990+0000000009+I20000000000+0000001990+Z
101553001101553491-059640     101553000078257596409INTEX:ARMBAND 3-6YRS   0000001000+00001753+00000+0001T   00001753+0000001314          1400 JW7787               1AZ
101554000101554               101554               170213FT     1400+00000+FT0000001753+0000001753+000000000+000000246+0000001990+0000000009+I20000000000+0000001990+Z
101554001101554200-003026     101554006003000276448REFUSE BAGS 10PCE GREEN0000001000+00001753+00000+0001T   00001753+0000001318          1400 JW7214               1AZ
101555000101555               101555               170213FT     1400+00000+FT0000001753-0000001753-000000000+000000246-0000002000-0000000001+I20000000000+0000002000-Z
101555001101555491-059640     101555000078257596409INTEX:ARMBAND 3-6YRS   0000001000-00001753+00000+0001T   00001753+0000001319          1400 JW77871IC            1 Z
101556000101556               101556               170213FT     1400+00000+FT0000000000+0000000000+000000000+000000000+0000000000+0000000000+I20000000000+0000000000+Z
101556001101556200-003026     101556006003000276448REFUSE BAGS 10PCE GREEN0000001000-00001753+00000+0001T   00001753+0000001321          1400 JW72141IC            1 Z
101556002101556200-003024     101556006001023657299REFUSE BAGS 20PCE BLACK0000001000+00001753+00000+0001T   00001753+0000001321          1400 JW7214               1 Z
101557000101557               101557               170213FT     1400+00000+FT0000019691+0000019691+000000000+000002758+0000022440+0000000009+I20000000000+0000022440+Z
101557001101557112-116069     101557006009681820277TCS CARRIER BAG JUMBO  0000001000+00000048+00000+0001T   00000048+0000001323          1400 JW7090               1AZ
101557002101557368-000049     101557006003000536955PLUSH BEAR 15cm LOVE   0000002000+00004385+00000+0001T   00004385+0000001323          1400 JW7745               1AZ
101557003101557368-000265     101557006001023750914PLUSH BEAR 23CM ASSTD C0000001000+00006139+00000+0001T   00006139+0000001323          1400 JW7745               1AZ
101557004101557077-000303     101557006001023593757GIFT-BAG PAPER MED     0000003000+00001578+00000+0001T   00001578+0000001323          1400 JW7112               1AZ
101558000101558               101558               170213FT     1400+00000+FT0000000876+0000000876+000000000+000000123+0000000990+0000000009+I20000000000+0000000990+Z
101558001101558077-000150-D   101558006003000054343GIFT-WRAP CELLPHANE CLR0000001000+00000876+00000+0001T   00000876+0000001327          1400 JW7112               1AZ
101559000101559               101559               170213FT     1400+00000+FT0000021974+0000021974+000000000+000003077+0000025050+0000000001+I20000000000+0000025050+Z
101559001101559112-116069     101559006009681820277TCS CARRIER BAG JUMBO  0000001000+00000048+00000+0001T   00000048+0000001331          1400 JW7090               1AZ
101559002101559368-000012     101559006003000610464PLUSH BEAR 30cm SITTING0000002000+00008771+00000+0001T   00008771+0000001331          1400 JW7745               1AZ
101559003101559028-085274     101559006001023641571BBQ LIGHTER         H&L0000002000+00002192+00000+0001T   00002192+0000001331          1400 JW7305               1AZ
101560000101560               101560               170213FT     1400+00000+FT0000002804+0000002804+000000000+000000394+0000003190+0000000008+I20000000000+0000003190+Z
101560001101560306-000024-A   101560006003000577309COTTON-WOOL-PADS 80PC  0000001000+00001753+00000+0001T   00001753+0000001339          1400 JW7200               1AZ
101560002101560033-000125     101560006009654960658COMBS GENTS MINI 2PC   0000001000+00001051+00000+0001T   00001051+0000001339          1400 JW7200               1AZ
101561000101561               101561               170213FT     1400+00000+FT0000008624+0000008624+000000000+000001209+0000009830+0000000003+I20000000000+0000009830+Z
101561001101561251-000041     101561006001023515889SEAL-TAPE BUFF 48mmx50m0000007000+00001227+00000+0001T   00001227+0000001345          1400 JW7810               1AZ
101561002101561112-116038     101561006009681820246TCS CARRIER BAG MIDI   0000001000+00000035+00000+0001T   00000035+0000001345          1400 JW7090               1AZ
101562000101562               101562               170213FT     1400+00000+FT0000003507+0000003507+000000000+000000491+0000003998+0000000000+I40000003998+0000000000+Z
101562001101562261-000001     101562006003000656080GUN HAND POTATO SHOOTER0000001000+00003507+00000+0001T   00003507+0000001354          1400 JW7710               1AZ
101563000101563               101563               170213FT     1400+00000+FT0000002891+0000002891+000000000+000000406+0000003290+0000000007+I20000000000+0000003290+Z
101563001101563080-000133-A   101563006003000647019MINI VALENTINES CARD   0000001000+00000437+00000+0001T   00000437+0000001355          1400 JW7112               1AZ
101563002101563077-000011-C   101563006001023808523TISSUE 10xSHTS RED     0000001000+00000876+00000+0001T   00000876+0000001355          1400 JW7112               1AZ
101563003101563077-000315     101563006003000181186GIFT-BAG 20x28cm MATT  0000001000+00001578+00000+0001T   00001578+0000001355          1400 JW7112               1AZ
101564000101564               101564               170213FT     1400+00000+FT0000001490+0000001490+000000000+000000209+0000001690+0000000009+I20000000000+0000001690+Z
101564001101564077-000299     101564006003000395576G/BAG 32x25cm LRG LOVE 0000001000+00001490+00000+0001T   00001490+0000001400          1400 JW7112               1AZ
101565000101565               101565               170213FT     1400+00000+FT0000014820+0000014820+000000000+000002077+0000016897+0000000000+I40000016897+0000000000+Z
101565001101565077-000010-U   101565006001023168863CREPE-PAPER CERISE-PINK0000001000+00000788+00000+0001T   00000788+0000001443          1400 JW7112               1AZ
101565002101565077-000457     101565006003000285662G/BAG METALLIC JMB SOL 0000001000+00001753+00000+0001T   00001753+0000001443          1400 JW7112               1AZ
101565003101565368-000113     101565006001023780874PLUSH BLINGED LOVE 30cm0000001000+00012279+00000+0001T   00012279+0000001443          1400 JW7745               1AZ
101566000101566               101566               170213FT     1400+00000+FT0000000437+0000000437+000000000+000000062+0000000490+0000000009+I20000000000+0000000490+Z
101566001101566080-000133-A   101566006003000647019MINI VALENTINES CARD   0000001000+00000437+00000+0001T   00000437+0000001504          1400 JW7112               1AZ
101567000101567               101567               170213FT     1400+00000+FT0000022413+0000022413+000000000+000003139+0000025552+0000000000+I40000025552+0000000000+Z
101567001101567065-005337     101567006001023619303KEYBOARD B/O 32-KEYS   0000001000+00013157+00000+0001T   00013157+0000001506          1400 JW7745               1AZ
101567002101567046-000012-A   101567006003000208296BATTERIES H/POWER SZ:AA0000001000+00002192+00000+0001T   00002192+0000001506          1400 JW7312               1AZ
101567003101567065-003639     101567006001023787620GUITAR ROCKER          0000001000+00007016+00000+0001T   00007016+0000001506          1400 JW7745               1AZ
101567004101567112-116069     101567006009681820277TCS CARRIER BAG JUMBO  0000001000+00000048+00000+0001T   00000048+0000001506          1400 JW7090               1AZ
101568000101568               101568               170213FT     1400+00000+FT0000007049+0000007049+000000000+000000987+0000008030+0000000006+I20000000000+0000008030+Z
101568001101568301-085004     101568006003000420469ORN LOVE PLAQUE 21X10CM0000001000+00003507+00000+0001T   00003946+0006471507          1400 JW7505               1AZ
101568002101568018-005009     101568006001023725608MUG W/PLUSH-BEAR LOVE  0000001000+00003507+00000+0001T   00003507+0000001507          1400 JW7515               1AZ
101568003101568112-116038     101568006009681820246TCS CARRIER BAG MIDI   0000001000+00000035+00000+0001T   00000035+0000001507          1400 JW7090               1AZ
101569000101569               101569               170213FT     1400+00000+FT0000001139+0000001139+000000000+000000160+0000001290+0000000009+I20000000000+0000001290+Z
101569001101569903-000087     101569006001704000161SWT SPECKLED-EGGS 50G  0000001000+00001139+00000+0001T   00001139+0000001508          1400 JW7150               1AZ
101570000101570               101570               170213FT     1400+00000+FT0000011402+0000011402+000000000+000001597+0000012990+0000000009+I20000000000+0000012990+Z
101570001101570586-010753     101570006001492107530WATCH LDS MTL ASSTD    0000001000+00011402+00000+0001T   00011402+0000001514          1400 JW7160               1AZ
101571000101571               101571               170213FT     1400+00000+FT0000004383+0000004383+000000000+000000614+0000004990+0000000007+I20000000000+0000004990+Z
101571001101571903-000520     101571006001704009898SWT GUMMY MINI SOUR 60g0000001000+00000876+00000+0001T   00000876+0000001514          1400 JW7150               1AZ
101571002101571301-085004     101571006003000420469ORN LOVE PLAQUE 21X10CM0000001000+00003507+00000+0001T   00003946+0006471514          1400 JW7505               1AZ
101572000101572               101572               170213FT     1400+00000+FT0000007800+0000007800+000000000+000001094+0000008894+0000000000+I40000008894+0000000000+Z
101572001101572903-005007     101572006002580020311SWT MALLOW BEAR M/SHAKE0000001000+00001314+00000+0001T   00001314+0000001516          1400 JW7150               1AZ
101572002101572264-000921     101572000090159150442MAISTO CAR 3" FRESH    0000003000+00001753+00000+0001T   00001753+0000001516          1400 JW7710               1AZ
101572003101572903-000510     101572006001704012621SWEET MS ZBDZ S/BERRY  0000001000+00001227+00000+0001T   00001227+0000001516          1400 JW7150               1AZ
101573000101573               101573               170213FT     1400+00000+FT0000011449+0000011449+000000000+000001604+0000013050+0000000003+I20000000000+0000013050+Z
101573001101573031-000924     101573006001023669964P/FRAME COLLAGE PL     0000001000+00008771+00000+0001T   00008771+0000001518          1400 JW7510               1AZ
101573002101573077-000270     101573006003000395453GIFT-BAG PPR JMB 33X45 0000001000+00002630+00000+0001T   00002630+0000001518          1400 JW7112               1AZ
101573003101573112-116069     101573006009681820277TCS CARRIER BAG JUMBO  0000001000+00000048+00000+0001T   00000048+0000001518          1400 JW7090               1AZ
101574000101574               101574               170213FT     1400+00000+FT0000001226+0000001226+000000000+000000172+0000001390+0000000008+I20000000000+0000001390+Z
101574001101574304-001011     101574006001023806727FLWR ROSE RED W/BEAR   0000002000+00000613+00000+0001T   00000788+0006471519          1400 JW7510               1AZ
101575000101575               101575               170213FT     1400+00000+FT0000000613+0000000613+000000000+000000086+0000000690+0000000009+I20000000000+0000000690+Z
101575001101575304-001011     101575006001023806727FLWR ROSE RED W/BEAR   0000001000+00000613+00000+0001T   00000788+0006471519          1400 JW7510               1AZ
101576000101576               101576               170213FT     1400+00000+FT0000002678+0000002678+000000000+000000376+0000003050+0000000004+I20000000000+0000003050+Z
101576001101576104-000031     101576006003000614950BASKET PL 27x18x12cm   0000001000+00002630+00000+0001T   00002630+0000001549          1400 JW7210               1AZ
101576002101576112-116069     101576006009681820277TCS CARRIER BAG JUMBO  0000001000+00000048+00000+0001T   00000048+0000001549          1400 JW7090               1AZ
101577000101577               101577               170213FT     1400+00000+FT0000001753+0000001753+000000000+000000246+0000001990+0000000009+I20000000000+0000001990+Z
101577001101577077-000382     101577006003000247820GIFT-BAG MED 18X23CM   0000001000+00001753+00000+0001T   00001753+0000001553          1400 JW7112               1AZ
101578000101578               101578               170213FT     1400+00000+FT0000000700+0000000700+000000000+000000098+0000000790+0000000008+I20000000000+0000000790+Z
101578001101578018-000177     101578006001023797513MUG MINI LOVE ASSTD    0000001000+00000700+00000+0001T   00000700+0000001555          1400 JW7515               1AZ
101579000101579               101579               170213FT     1400+00000+FT0000009253+0000009253+000000000+000001297+0000010550+0000000000+I20000000000+0000010550+Z
101579001101579077-000299     101579006003000395576G/BAG 32x25cm LRG LOVE 0000001000+00001490+00000+0001T   00001490+0000001557          1400 JW7112               1AZ
101579002101579565-000043     101579006003000109562NOVELTY BALL FUNNY FACE0000001000+00001753+00000+0001T   00001753+0000001557          1400 JW7745               1AZ
101579003101579007-000614     101579006001023768667DIARY W/LOCK+PEN LOVE  0000001000+00005262+00000+0001T   00005262+0000001557          1400 JW7130               1AZ
101579004101579007-000537     101579000651728791017NOTE-PAD RND SMILE-FACE0000001000+00000700+00000+0001T   00000700+0000001557          1400 JW7130               1AZ
101579005101579112-116069     101579006009681820277TCS CARRIER BAG JUMBO  0000001000+00000048+00000+0001T   00000048+0000001557          1400 JW7090               1AZ
101580000101580               101580               170213FT     1400+00000+FT0000005085+0000005085+000000000+000000712+0000005790+0000000007+I20000000000+0000005790+Z
101580001101580077-000303     101580006001023593757GIFT-BAG PAPER MED     0000001000+00001578+00000+0001T   00001578+0000001557          1400 JW7112               1AZ
101580002101580018-005009     101580006001023725608MUG W/PLUSH-BEAR LOVE  0000001000+00003507+00000+0001T   00003507+0000001557          1400 JW7515               1AZ
101581000101581               101581               170213FT     1400+00000+FT0000000035+0000000035+000000000+000000005+0000000040+0000000000+I20000000000+0000000040+Z
101581001101581112-116038     101581006009681820246TCS CARRIER BAG MIDI   0000001000+00000035+00000+0001T   00000035+0000001558          1400 JW7090               1AZ
101582000101582               101582               170213FT     1400+00000+FT0000009506+0000009506+000000000+000001332+0000010838+0000000000+I40000010838+0000000000+Z
101582001101582077-000303     101582006001023593757GIFT-BAG PAPER MED     0000001000+00001578+00000+0001T   00001578+0000001600          1400 JW7112               1AZ
101582002101582301-085007     101582006003000673698ORN OCC. LOVE S/PLAQUE 0000001000+00007893+00000+0001T   00007893+0000001600          1400 JW7505               1AZ
101582003101582112-116038     101582006009681820246TCS CARRIER BAG MIDI   0000001000+00000035+00000+0001T   00000035+0000001600          1400 JW7090               1AZ
101583000101583               101583               170213FT     1400+00000+FT0000017576+0000017576+000000000+000002462+0000020038+0000000000+I40000020038+0000000000+Z
101583001101583200-003024     101583006001023657299REFUSE BAGS 20PCE BLACK0000001000+00001753+00000+0001T   00001753+0000001623          1400 JW7214               1AZ
101583002101583586-010650     101583006001492106502WATCH LDS RND W/CHARM  0000001000+00015788+00000+0001T   00015788+0000001623          1400 JW7160               1AZ
101583003101583112-116038     101583006009681820246TCS CARRIER BAG MIDI   0000001000+00000035+00000+0001T   00000035+0000001623          1400 JW7090               1AZ
101584000101584               101584               170213FT     1400+00000+FT0000001801+0000001801+000000000+000000253+0000002050+0000000004+I20000000000+0000002050+Z
101584001101584077-000290     101584006001023902023GIFT BOX 26x32x13cm    0000001000+00001753+00000+0001T   00001753+0000001626          1400 JW7112               1AZ
101584002101584112-116069     101584006009681820277TCS CARRIER BAG JUMBO  0000001000+00000048+00000+0001T   00000048+0000001626          1400 JW7090               1AZ
101585000101585               101585               170213FT     1400+00000+FT0000000876+0000000876+000000000+000000123+0000000990+0000000009+I20000000000+0000000990+Z
101585001101585903-000861     101585005010478430822SWT LOVE HEARTS SML    0000001000+00000876+00000+0001T   00000876+0000001626          1400 JW7150               1AZ
101586000101586               101586               170213FT     1400+00000+FT0000001753+0000001753+000000000+000000246+0000001990+0000000009+I20000000000+0000001990+Z
101586001101586077-000290     101586006001023902023GIFT BOX 26x32x13cm    0000001000+00001753+00000+0001T   00001753+0000001631          1400 JW7112               1AZ
101587000101587               101587               170213FT     1400+00000+FT0000001753+0000001753+000000000+000000246+0000001990+0000000009+I20000000000+0000001990+Z
101587001101587077-000358     101587006003000329977GIFT-BAG KIDS 25X32CM  0000001000+00001753+00000+0001T   00001753+0000001637          1400 JW7112               1AZ
101588000101588               101588               170213FT     1400+00000+FT0000011396+0000011396+000000000+000001598+0000012994+0000000000+I40000012994+0000000000+Z
101588001101588077-000918     101588006003000413690G/WRAP 700mmx2m PATTERN0000001000+00002192+00000+0001T   00002192+0000001638          1400 JW7112               1AZ
101588002101588087-002000     101588006001023592620HAIR TRIMMER SET 4pc   0000001000+00003507+00000+0001T   00003507+0000001638          1400 JW7200               1AZ
101588003101588082-000340     101588006003000649037LENS CLOTH MOIST 30PC  0000001000+00002630+00000+0001T   00002630+0000001638          1400 JW7160               1AZ
101588004101588071-030014     101588006003000284085PEN NVLTY METALLIC 6PC 0000001000+00002630+00000+0001T   00002630+0000001638          1400 JW7130               1AZ
101588005101588080-000133-A   101588006003000647019MINI VALENTINES CARD   0000001000+00000437+00000+0001T   00000437+0000001638          1400 JW7112               1AZ
101589000101589               101589               170213FT     1400+00000+FT0000001753+0000001753+000000000+000000246+0000001990+0000000009+I20000000000+0000001990+Z
101589001101589142-000810     101589006003000429721GLOVES LATEX PRNT CUFFS0000001000+00001753+00000+0001T   00001753+0000001639          1400 JW7810               1AZ
101590000101590               101590               170213FT     1400+00000+FT0000000700+0000000700+000000000+000000098+0000000790+0000000008+I20000000000+0000000790+Z
101590001101590018-000177     101590006001023797513MUG MINI LOVE ASSTD    0000001000+00000700+00000+0001T   00000700+0000001639          1400 JW7515               1AZ
101591000101591               101591               170213FT     1400+00000+FT0000044073+0000044073+000000000+000006174+0000050247+0000000000+I40000050247+0000000000+Z
101591001101591112-116069     101591006009681820277TCS CARRIER BAG JUMBO  0000001000+00000048+00000+0001T   00000048+0000001643          1400 JW7090               1AZ
101591002101591031-006530     101591006001023995803P/FRAME COL BABY 2ASSTD0000001000+00002630+00000+0001T   00002630+0000001643          1400 JW7510               1AZ
101591003101591028-000035     101591006003000528424COOLER-BAG W/POCKET    0000001000+00014911+00000+0001T   00014911+0000001643          1400 JW7305               1AZ
101591004101591030-004010     101591006003000394487PLAQUE WDN SIGN 35X28CM0000001000+00013157+00000+0001T   00013157+0000001643          1400 JW7505               1AZ
101591005101591368-000012     101591006003000610464PLUSH BEAR 30cm SITTING0000001000+00008771+00000+0001T   00008771+0000001643          1400 JW7745               1AZ
101591006101591903-000087     101591006001704000161SWT SPECKLED-EGGS 50G  0000004000+00001139+00000+0001T   00001139+0000001643          1400 JW7150               1AZ
101592000101592               101592               170213FT     1400+00000+FT0000010816+0000010816+000000000+000001517+0000012330+0000000003+I20000000000+0000012330+Z
101592001101592903-000087     101592006001704000161SWT SPECKLED-EGGS 50G  0000001000+00001139+00000+0001T   00001139+0000001644          1400 JW7150               1AZ
101592002101592112-116038     101592006009681820246TCS CARRIER BAG MIDI   0000001000+00000035+00000+0001T   00000035+0000001644          1400 JW7090               1AZ
101592003101592262-000625     101592006003000119585CAR MDC JEEP & TRAILER 0000002000+00002630+00000+0001T   00002630+0000001644          1400 JW7710               1AZ
101592004101592083-000054     101592006001023729071LIGHTER REFILLABLE LED 0000002000+00001578+00000+0001T   00001578+0000001644          1400 JW7315               1AZ
101592005101592083-000055     101592006003000003853LIGHTER ELCTRNC REFILBL0000002000+00000613+00000+0001T   00000613+0000001644          1400 JW7315               1AZ
101593000101593               101593               170213FT     1400+00000+FT0000006576+0000006576+000000000+000000921+0000007490+0000000007+I20000000000+0000007490+Z
101593001101593077-000470     101593006003000330171G-BAG DESGN SML 11X14CM0000001000+00001314+00000+0001T   00001314+0000001645          1400 JW7112               1AZ
101593002101593301-085003     101593006003000420827ORN OCCASION LOVE KEY  0000001000+00005262+00000+0001T   00005262+0000001645          1400 JW7505               1AZ
101594000101594               101594               170213FT     1400+00000+FT0000003980+0000003980+000000000+000000558+0000004530+0000000008+I20000000000+0000004530+Z
101594001101594079-013032-B   101594006003000389445MIXED SHAPES           0000001000+00001753+00000+0001T   00001753+0000001702          1400 JW7130               1AZ
101594002101594007-000095     101594006003000530434ENVELOPES WHITE 20PK C60000001000+00002192+00000+0001T   00002192+0000001702          1400 JW7130               1AZ
101594003101594112-116038     101594006009681820246TCS CARRIER BAG MIDI   0000001000+00000035+00000+0001T   00000035+0000001702          1400 JW7090               1AZ
101595000101595               101595               170213FT     1400+00000+FT0000003506+0000003506+000000000+000000492+0000003990+0000000008+I20000000000+0000003990+Z
101595001101595077-000290     101595006001023902023GIFT BOX 26x32x13cm    0000002000+00001753+00000+0001T   00001753+0000001705          1400 JW7112               1AZ
101596000101596               101596               170213FT     1400+00000+FT0000000096+0000000096+000000000+000000014+0000000110+0000000000+I20000000000+0000000110+Z
101596001101596112-116069     101596006009681820277TCS CARRIER BAG JUMBO  0000002000+00000048+00000+0001T   00000048+0000001707          1400 JW7090               1AZ
101597000101597               101597               170213FT     1400+00000+FT0000001225+0000001225+000000000+000000173+0000001390+0000000008+I20000000000+0000001390+Z
101597001101597083-000049     101597004891035200024CIG-LIGHTER DISPOSABLE 0000001000+00000437+00000+0001T   00000437+0000001711          1400 JW7315               1AZ
101597002101597033-005991     101597006001023678546NEEDLES H/HOLD-REPAIR  0000001000+00000788+00000+0001T   00000788+0000001711          1400 JW7200               1AZ
101598000101598               101598               170213FT     1400+00000+FT0000006835+0000006835+000000000+000000959+0000007790+0000000004+I20000000000+0000007790+Z
101598001101598560-000700     101598006001023865830GROWING ANIMALS ASSTD  0000001000+00001578+00000+0001T   00001578+0000001712          1400 JW7745               1AZ
101598002101598903-002851     101598000000087108538MENTOS ROLL STRAWBERRY 0000001000+00001051+00000+0001T   00001051+0000001712          1400 JW7150               1AZ
101598003101598903-000918     101598006009802868522SWEET GUM TAPE H/KITTY 0000001000+00001753+00000+0001T   00001753+0000001712          1400 JW7150               1AZ
101598004101598564-000012     101598006001023130075BUBBLE BOTTLE MAGIC    0000001000+00000700+00000+0001T   00000700+0000001712          1400 JW7131               1AZ
101598005101598077-000382     101598006003000247820GIFT-BAG MED 18X23CM   0000001000+00001753+00000+0001T   00001753+0000001712          1400 JW7112               1AZ
101599000101599               101599               170213FT     1400+00000+FT0000000700+0000000700+000000000+000000098+0000000790+0000000008+I20000000000+0000000790+Z
101599001101599903-000071     101599006001704001120SWT TOFFEE LIQURICE 35g0000001000+00000700+00000+0001T   00000700+0000001727          1400 JW7150               1AZ
M17021301                              GLADWYN     FTSLAVE 1 LAST TILL SLIP NR:101599                                                                REGARDS                                                                                         WELKOM FT
M17021391                              CASH        FTSLAVE 1                       Z-REPORT No.   575TOTAL (Sales - Refunds)           3891.86       CASH TO BE BANKED                 2068.00       DEBIT CARDS                          0.00       CREDIT CARDS                      1823.86       Z-READING                         3891.86       AIRTIME DEBIT CARD SALES             0.00       AIRTIME CARD SALES                   0.00       OVERS/UNDERS                         0.00       AIRTIME CASH SALES                   0.00       GIFT CARDS                           0.00       GIFT CARD CASH SALES                 0.00       T O T A L  CASH PAYOUTS              0.00                                                                                                                                                                                                                                                                                                                                                      Z
M17021392                              CASH        FTABSENT                                                                                                                                                                                          ANNUAL LEAVE                                                                                                                                                                                    DAY OFF                                                                                                                                                                                         COMMENTS                                                                                                                                                                                                                                                                                                                                                                                       Z
Y17021300                                          FT00000000345110+000058
ZFT17021321063 SLAVE 1      SALES DATA                     NEXT INVOICE NO.  101600 0575
X FT Slave 1 First invoice 101541 170213 Last invoice 101599 170213 Next invoice 101600 Total number of records 000000189 clbackup completed 21:06:50
