M17021301                              GLADWYN     FTSLAVE 2 DID NOT TRADE                                                                           REGARDS                                                                                         WELKOM FT
M17021302                              SHIEHAAM    FTTO: SHIEHAAM                                                                                    SLAVE 1: CASH R2068.00 D/C R000.00 C/C R1823.86 Z-READING R3891.86 A/T R000.00                                                                  SLAVE 2 DID NOT TRADE                                                                           SLAVE 3: CASH R4311.80 D/C R000.00 C/C R1179.01 Z-READING R5490.81 A/T R000.00                                                                  SLAVE 4 DID NOT TRADE                                                                           REGARDS                                                                                         WELKOM FT
ZFT17021321063 SLAVE 2      SALES DATA                     NEXT INVOICE NO.  203234 0579
T094724496-056483                                          1702131323120000051ICSLAVE 2
T094724496-056508                                          1702131323120000061ICSLAVE 2
T094724496-057100                                          1702131323120000021ICSLAVE 2
T094724496-057105                                          1702131323120000061ICSLAVE 2
T094724496-058431                                          1702131323120000101ICSLAVE 2
T094724496-058446                                          1702131323120000111ICSLAVE 2
T094724496-058484                                          1702131323120000011ICSLAVE 2
T094724497-058329                                          1702131323120000051ICSLAVE 2
T094724497-066620                                          1702131323120000021ICSLAVE 2
T094724497-068614                                          1702131323120000011ICSLAVE 2
T094724497-068615                                          1702131323120000021ICSLAVE 2
X FT Slave 2 First invoice 000000 000000 Last invoice 000000 000000 Next invoice 203234 Total number of records 000000014 clbackup completed 21:06:52
