305993000305993               305993               170213FT     1400+00000+FT0000005259+0000005259+000000000+000000738+0000005990+0000000007+I20000000000+0000005990+Z
305993001305993071-002907     305993006003000588374PEN BALLPOINT REFILL   0000003000+00001753+00000+0001T   00001753+0000000907          1400 OM3130               3AZ
305994000305994               305994               170213FT     1400+00000+FT0000012327+0000012327+000000000+000001727+0000014050+0000000004+I20000000000+0000014050+Z
305994001305994368-000113     305994006001023780874PLUSH BLINGED LOVE 30cm0000001000+00012279+00000+0001T   00012279+0000000915          1400 OM3745               3AZ
305994002305994112-116069     305994006009681820277TCS CARRIER BAG JUMBO  0000001000+00000048+00000+0001T   00000048+0000000915          1400 OM3090               3AZ
305995000305995               305995               170213FT     1400+00000+FT0000010861+0000010861+000000000+000001526+0000012380+0000000007+I20000000000+0000012380+Z
305995001305995006-001000     305995006003000093779HELIUM BALLOON FILL    0000010000+00000613+00000+0001T   00000613+0000000933          1400 OM3131               3AZ
305995002305995079-009700-D   305995006003000545711PAPER SIRIO A4 RED COL.0000005000+00000306+00000+0001T   00000306+0000000933          1400 OM3130               3AZ
305995003305995079-009702-D   305995008427973059354PAPER SIRIO A2 RED COL 0000002000+00001051+00000+0001T   00001051+0000000933          1400 OM3130               3AZ
305995004305995112-116069     305995006009681820277TCS CARRIER BAG JUMBO  0000001000+00000048+00000+0001T   00000048+0000000933          1400 OM3090               3AZ
305995005305995079-009702-B   305995008427973059491PAPER SIRIO A2 WHITE   0000001000+00001051+00000+0001T   00001051+0000000933          1400 OM3130               3AZ
305996000305996               305996               170213FT     1400+00000+FT0000017539+0000017539+000000000+000002457+0000019996+0000000000+I40000019996+0000000000+Z
305996001305996368-000637     305996006001023874092PLUSH BEAR SLEEPING LOV0000001000+00011402+00000+0001T   00012279+0006470936          1400 OM3745               3AZ
305996002305996031-000002-A   305996006003000247103P/FRAME LOVE 7.5X7.5CM 0000001000+00003507+00000+0001T   00003507+0000000936          1400 OM3510               3AZ
305996003305996077-000270     305996006003000395453GIFT-BAG PPR JMB 33X45 0000001000+00002630+00000+0001T   00002630+0000000936          1400 OM3112               3AZ
305997000305997               305997               170213FT     1400+00000+FT0000012327+0000012327+000000000+000001727+0000014054+0000000000+I40000014054+0000000000+Z
305997001305997019-000079     305997006001023775726VASE 30cm CRACK-DESIGN 0000001000+00012279+00000+0001T   00012279+0000000938          1400 OM3510               3AZ
305997002305997112-116069     305997006009681820277TCS CARRIER BAG JUMBO  0000001000+00000048+00000+0001T   00000048+0000000938          1400 OM3090               3AZ
305998000305998               305998               170213FT     1400+00000+FT0000007923+0000007923+000000000+000001110+0000009030+0000000003+I20000000000+0000009030+Z
305998001305998006-000166-G   305998006003000607976BALLOONS HELIUM 6PC BLK0000002000+00001314+00000+0001T   00001314+0000000943          1400 OM3131               3AZ
305998002305998203-007000     305998006001023886040SHOT-GLASS DISPOSABLE  0000001000+00003507+00000+0001T   00003507+0000000943          1400 OM3300               3AZ
305998003305998038-001803     305998006001023766588DOILIES 17cm RND 18PC  0000001000+00001753+00000+0001T   00001753+0000000943          1400 OM3300               3AZ
305998004305998112-116038     305998006009681820246TCS CARRIER BAG MIDI   0000001000+00000035+00000+0001T   00000035+0000000943          1400 OM3090               3AZ
305999000305999               305999               170213FT     1400+00000+FT0000002189+0000002189+000000000+000000308+0000002490+0000000007+I20000000000+0000002490+Z
305999001305999566-001227     305999006001023707741STICKERS TEEN LASER    0000001000+00001139+00000+0001T   00001490+0008150955          1400 OM3130               3AZ
305999002305999903-000155     305999006009803374435SWT LOLLY I LUV U HEART0000002000+00000525+00000+0001T   00000525+0000000955          1400 OM3150               3AZ
306000000306000               306000               170213FT     1400+00000+FT0000004380+0000004380+000000000+000000615+0000004990+0000000005+I20000000000+0000004990+Z
306000001306000903-000861     306000005010478430822SWT LOVE HEARTS SML    0000005000+00000876+00000+0001T   00000876+0000000959          1400 OM3150               3AZ
306001000306001               306001               170213FT     1400+00000+FT0000002278+0000002278+000000000+000000320+0000002590+0000000008+I20000000000+0000002590+Z
306001001306001084-070001     306001006001023630018NAIL FILE 12cm         0000001000+00001490+00000+0001T   00001490+0000001000          1400 OM3200               3AZ
306001002306001033-005991     306001006001023678546NEEDLES H/HOLD-REPAIR  0000001000+00000788+00000+0001T   00000788+0000001000          1400 OM3200               3AZ
306002000306002               306002               170213FT     1400+00000+FT0000001752+0000001752+000000000+000000246+0000001990+0000000008+I20000000000+0000001990+Z
306002001306002039-000319-3   306002006003000442621B/CANDLES LRG NUMBER-3 0000001000+00000876+00000+0001T   00000876+0000001001          1400 OM3510               3AZ
306002002306002039-000319-1   306002006003000442386B/CANDLES LRG NUMBER-1 0000001000+00000876+00000+0001T   00000876+0000001001          1400 OM3510               3AZ
306003000306003               306003               170213FT     1400+00000+FT0000006136+0000006136+000000000+000000861+0000006997+0000000000+I40000006997+0000000000+Z
306003001306003566-001118     306003006003000682171STICKERS CELL PHONE    0000001000+00001753+00000+0001T   00001753+0000001004          1400 OM3130               3AZ
306003002306003079-013032-B   306003006003000389445MIXED SHAPES           0000001000+00001753+00000+0001T   00001753+0000001004          1400 OM3130               3AZ
306003003306003089-023424     306003006001023759740K/CHAIN W/BELT HOOK 28 0000001000+00002630+00000+0001T   00002630+0000001004          1400 OM3205               3AZ
306004000306004               306004               170213FT     1400+00000+FT0000004384+0000004384+000000000+000000614+0000004990+0000000008+I20000000000+0000004990+Z
306004001306004251-000002     306004006003000093991TAPE D-SIDED 24x1000mm 0000002000+00002192+00000+0001T   00002192+0000001014          1400 OM3810               3AZ
306005000306005               306005               170213FT     1400+00000+FT0000001226+0000001226+000000000+000000172+0000001390+0000000008+I20000000000+0000001390+Z
306005001306005006-001000     306005006003000093779HELIUM BALLOON FILL    0000002000+00000613+00000+0001T   00000613+0000001050          1400 OM3131               3AZ
306006000306006               306006               170213FT     1400+00000+FT0000018417+0000018417+000000000+000002579+0000020990+0000000006+I20000000000+0000020990+Z
306006001306006174-008023     306006006001023730695PONCHO 132x203cm TWIN-P0000001000+00003507+00000+0001T   00003507+0000001055          1400 OM3205               3AZ
306006002306006019-000050     306006006001023673749VASE GLS FOOTED WINE   0000001000+00013157+00000+0001T   00013157+0000001055          1400 OM3510               3AZ
306006003306006077-000116     306006006003000240777GIFT-WRAP 700mmx2m COL 0000001000+00001753+00000+0001T   00001753+0000001055          1400 OM3112               3AZ
306007000306007               306007               170213FT     1400+00000+FT0000002100+0000002100+000000000+000000294+0000002390+0000000004+I20000000000+0000002390+Z
306007001306007018-000177     306007006001023797513MUG MINI LOVE ASSTD    0000003000+00000700+00000+0001T   00000700+0000001103          1400 OM3515               3AZ
306008000306008               306008               170213FT     1400+00000+FT0000003330+0000003330+000000000+000000467+0000003790+0000000007+I20000000000+0000003790+Z
306008001306008082-026204     306008006001023816443R/GLASSES STRINGS 2PCE 0000001000+00000876+00000+0001T   00000876+0000001105          1400 OM3160               3AZ
306008002306008206-000630     306008006003000631919SPECTACLE CLEANING BRUS0000002000+00001227+00000+0001T   00001227+0000001105          1400 OM3321               3AZ
306009000306009               306009               170213FT     1400+00000+FT0000013537+0000013537+000000000+000001896+0000015430+0000000003+I20000000000+0000015430+Z
306009001306009368-000049     306009006003000536955PLUSH BEAR 15cm LOVE   0000001000+00004385+00000+0001T   00004385+0000001110          1400 OM3745               3AZ
306009002306009018-000177     306009006001023797513MUG MINI LOVE ASSTD    0000001000+00000700+00000+0001T   00000700+0000001110          1400 OM3515               3AZ
306009003306009077-000303     306009006001023593757GIFT-BAG PAPER MED     0000002000+00001578+00000+0001T   00001578+0000001110          1400 OM3112               3AZ
306009004306009903-000482     306009006001704001397SWT SOFT-MINTS 60G     0000001000+00000876+00000+0001T   00000876+0000001110          1400 OM3150               3AZ
306009005306009368-000049     306009006003000536955PLUSH BEAR 15cm LOVE   0000001000+00004385+00000+0001T   00004385+0000001110          1400 OM3745               3AZ
306009006306009112-116038     306009006009681820246TCS CARRIER BAG MIDI   0000001000+00000035+00000+0001T   00000035+0000001110          1400 OM3090               3AZ
306010000306010               306010               170213FT     1400+00000+FT0000003506+0000003506+000000000+000000492+0000003990+0000000008+I20000000000+0000003990+Z
306010001306010034-078820     306010006001023856807BABY-HANGERS 10PCE     0000002000+00001753+00000+0001T   00001753+0000001111          1400 OM3215               3AZ
306011000306011               306011               170213FT     1400+00000+FT0000000613+0000000613+000000000+000000086+0000000690+0000000009+I20000000000+0000000690+Z
306011001306011565-000044     306011006003000128280BARREL OF SLIME 100g   0000001000+00000613+00000+0001T   00000613+0000001135          1400 OM3745               3AZ
306012000306012               306012               170213FT     1400+00000+FT0000008765+0000008765+000000000+000001230+0000009990+0000000005+I20000000000+0000009990+Z
306012001306012151-000620     306012006001023653345WIRE-BRUSH-SET SML 3PCE0000002000+00001753+00000+0001T   00001753+0000001137          1400 OM3810               3AZ
306012002306012079-000275     306012006003000160488PAINT-BRUSHES 6PCE PRO 0000001000+00001753+00000+0001T   00001753+0000001137          1400 OM3130               3AZ
306012003306012146-000410     306012006003000304035ADAPTOR TAP 13mm+19mm  0000002000+00001753+00000+0001T   00001753+0000001137          1400 OM3820               3AZ
306013000306013               306013               170213FT     1400+00000+FT0000003067+0000003067+000000000+000000430+0000003490+0000000007+I20000000000+0000003490+Z
306013001306013200-003024     306013006001023657299REFUSE BAGS 20PCE BLACK0000001000+00001753+00000+0001T   00001753+0000001139          1400 OM3214               3AZ
306013002306013903-005000     306013006002580020007SWT CT MALLOW FISH 120g0000001000+00001314+00000+0001T   00001314+0000001139          1400 OM3150               3AZ
306014000306014               306014               170213FT     1400+00000+FT0000003540+0000003540+000000000+000000497+0000004037+0000000000+I40000004037+0000000000+Z
306014001306014040-000208     306014006003000673599C/HOLDER GLS COL. 5.5CM0000002000+00000876+00000+0001T   00000876+0000001143          1400 OM3510               3AZ
306014002306014039-000114     306014006001023524058CANDLE T/LITE RED 3.5CM0000001000+00001753+00000+0001T   00001753+0000001143          1400 OM3510               3AZ
306014003306014112-116038     306014006009681820246TCS CARRIER BAG MIDI   0000001000+00000035+00000+0001T   00000035+0000001143          1400 OM3090               3AZ
306015000306015               306015               170213FT     1400+00000+FT0000000876+0000000876+000000000+000000123+0000000990+0000000009+I20000000000+0000000990+Z
306015001306015084-070005     306015006001023627902NAIL FILES 6PCE H/GLOW 0000001000+00000876+00000+0001T   00000876+0000001145          1400 OM3200               3AZ
306016000306016               306016               170213FT     1400+00000+FT0000002455+0000002455+000000000+000000344+0000002790+0000000009+I20000000000+0000002790+Z
306016001306016077-000380     306016006003000247585GIFT-BAG 33X45CM S/COL 0000001000+00002455+00000+0001T   00002455+0000001149          1400 OM3112               3AZ
306017000306017               306017               170213FT     1400+00000+FT0000002192+0000002192+000000000+000000307+0000002490+0000000009+I20000000000+0000002490+Z
306017001306017007-000046     306017006009635831366DISPLAY-BOOK PL A4 30PG0000001000+00002192+00000+0001T   00002192+0000001151          1400 OM3130               3AZ
306018000306018               306018               170213FT     1400+00000+FT0000000035+0000000035+000000000+000000005+0000000040+0000000000+I20000000000+0000000040+Z
306018001306018112-116038     306018006009681820246TCS CARRIER BAG MIDI   0000001000+00000035+00000+0001T   00000035+0000001151          1400 OM3090               3AZ
306019000306019               306019               170213FT     1400+00000+FT0000013642+0000013642+000000000+000001911+0000015550+0000000003+I20000000000+0000015550+Z
306019001306019001-091415     306019006003000329113W/GLS OCC. LOVE 2PC 2800000001000+00008771+00000+0001T   00009648+0006471200          1400 OM3515               3AZ
306019002306019159-000647     306019006001023995551BRISTLE-BRUSH WDN HNDLE0000001000+00004823+00000+0001T   00004823+0000001200          1400 OM3200               3AZ
306019003306019112-116069     306019006009681820277TCS CARRIER BAG JUMBO  0000001000+00000048+00000+0001T   00000048+0000001200          1400 OM3090               3AZ
306020000306020               306020               170213FT     1400+00000+FT0000006139+0000006139+000000000+000000860+0000006999+0000000000+I40000006999+0000000000+Z
306020001306020035-000021     306020006002596020206UMBRELLA GENTS         0000001000+00006139+00000+0001T   00006139+0000001210          1400 OM3205               3AZ
306021000306021               306021               170213FT     1400+00000+FT0000002678+0000002678+000000000+000000376+0000003050+0000000004+I20000000000+0000003050+Z
306021001306021104-000031     306021006003000614950BASKET PL 27x18x12cm   0000001000+00002630+00000+0001T   00002630+0000001213          1400 OM3210               3AZ
306021002306021112-116069     306021006009681820277TCS CARRIER BAG JUMBO  0000001000+00000048+00000+0001T   00000048+0000001213          1400 OM3090               3AZ
306022000306022               306022               170213FT     1400+00000+FT0000001139+0000001139+000000000+000000160+0000001290+0000000009+I20000000000+0000001290+Z
306022001306022039-000322     306022006001023524157B/CANDLES W/HOLDERS 24 0000001000+00001139+00000+0001T   00001139+0000001213          1400 OM3510               3AZ
306023000306023               306023               170213FT     1400+00000+FT0000005291+0000005291+000000000+000000744+0000006030+0000000005+I20000000000+0000006030+Z
306023001306023112-116038     306023006009681820246TCS CARRIER BAG MIDI   0000001000+00000035+00000+0001T   00000035+0000001215          1400 OM3090               3AZ
306023002306023200-003024     306023006001023657299REFUSE BAGS 20PCE BLACK0000001000+00001753+00000+0001T   00001753+0000001215          1400 OM3214               3AZ
306023003306023007-010192     306023006009635830536BOOK H/COVER A5 192PAGE0000001000+00001139+00000+0001T   00001139+0000001215          1400 OM3130               3AZ
306023004306023071-081101-A   306023006003000326549GLUE-STICK 25g BLISTER 0000003000+00000788+00000+0001T   00000788+0000001215          1400 OM3130               3AZ
306024000306024               306024               170213FT     1400+00000+FT0000001753+0000001753+000000000+000000246+0000001990+0000000009+I20000000000+0000001990+Z
306024001306024080-000113     306024006003000237449CARD&ENVLPE - LOVE     0000001000+00001753+00000+0001T   00001753+0000001216          1400 OM3112               3AZ
306025000306025               306025               170213FT     1400+00000+FT0000000876+0000000876+000000000+000000123+0000000990+0000000009+I20000000000+0000000990+Z
306025001306025903-000220     306025006001704007368SWT JELLY BEANS 60G    0000001000+00000876+00000+0001T   00000876+0000001217          1400 OM3150               3AZ
306026000306026               306026               170213FT     1400+00000+FT0000000876+0000000876+000000000+000000123+0000000990+0000000009+I20000000000+0000000990+Z
306026001306026077-000150-D   306026006003000054343GIFT-WRAP CELLPHANE CLR0000001000+00000876+00000+0001T   00000876+0000001218          1400 OM3112               3AZ
306027000306027               306027               170213FT     1400+00000+FT0000003156+0000003156+000000000+000000442+0000003598+0000000000+I40000003598+0000000000+Z
306027001306027077-000303     306027006001023593757GIFT-BAG PAPER MED     0000001000+00001578+00000+0001T   00001578+0000001224          1400 OM3112               3AZ
306027002306027080-000124     306027006003000297733CARD & ENV VALENTINES  0000001000+00001578+00000+0001T   00001578+0000001224          1400 OM3112               3AZ
306028000306028               306028               170213FT     1400+00000+FT0000003454+0000003454+000000000+000000484+0000003930+0000000008+I20000000000+0000003930+Z
306028001306028566-000068     306028006003000418046POP UP LOVE 2 ASSTD    0000001000+00002192+00000+0001T   00002192+0000001231          1400 OM3130               3AZ
306028002306028206-000630     306028006003000631919SPECTACLE CLEANING BRUS0000001000+00001227+00000+0001T   00001227+0000001231          1400 OM3321               3AZ
306028003306028112-116038     306028006009681820246TCS CARRIER BAG MIDI   0000001000+00000035+00000+0001T   00000035+0000001231          1400 OM3090               3AZ
306029000306029               306029               170213FT     1400+00000+FT0000003541+0000003541+000000000+000000497+0000004030+0000000008+I20000000000+0000004030+Z
306029001306029903-003080     306029005907029004673SWT SNACK STIX CHOC 50g0000001000+00000876+00000+0001T   00000876+0000001235          1400 OM3150               3AZ
306029002306029142-000812     306029006003000165421GLOVES LATEX 10PCE-5PRS0000001000+00002630+00000+0001T   00002630+0000001235          1400 OM3810               3AZ
306029003306029112-116038     306029006009681820246TCS CARRIER BAG MIDI   0000001000+00000035+00000+0001T   00000035+0000001235          1400 OM3090               3AZ
306030000306030               306030               170213FT     1400+00000+FT0000004385+0000004385+000000000+000000614+0000004990+0000000009+I20000000000+0000004990+Z
306030001306030048-000700     306030006001023849731HEAD-LAMP 10xLED (3xAAA0000001000+00004385+00000+0001T   00004385+0000001238          1400 OM3305               3AZ
306031000306031               306031               170213FT     1400+00000+FT0000007925+0000007925+000000000+000001111+0000009030+0000000006+I20000000000+0000009030+Z
306031001306031306-001619     306031006003000571451INNER SOLES 2-PAIR     0000001000+00002630+00000+0001T   00002630+0000001239          1400 OM3200               3AZ
306031002306031004-071205     306031006003000073368USB 2.0 COMPUTER 4 HUB 0000001000+00003507+00000+0001T   00003507+0000001239          1400 OM3310               3AZ
306031003306031046-002013-PK6 306031004897006174851BATTERY BUTTON AG13 6PC0000001000+00001753+00000+0001T   00001753+0000001239          1400 OM3312               3AZ
306031004306031112-116038     306031006009681820246TCS CARRIER BAG MIDI   0000001000+00000035+00000+0001T   00000035+0000001239          1400 OM3090               3AZ
306032000306032               306032               170213FT     1400+00000+FT0000005260+0000005260+000000000+000000738+0000005990+0000000008+I20000000000+0000005990+Z
306032001306032565-000040     306032006008766115635NOVELTY ICON BEANIE    0000002000+00002630+00000+0001T   00002630+0000001244          1400 OM3745               3AZ
306033000306033               306033               170213FT     1400+00000+FT0000001051+0000001051+000000000+000000148+0000001190+0000000009+I20000000000+0000001190+Z
306033001306033079-009702-D   306033008427973059354PAPER SIRIO A2 RED COL 0000001000+00001051+00000+0001T   00001051+0000001246          1400 OM3130               3AZ
306034000306034               306034               170213FT     1400+00000+FT0000017148+0000017148+000000000+000002403+0000019551+0000000000+I40000019551+0000000000+Z
306034001306034031-007009     306034006003000467822P/FRAME WDN CERTIFICATE0000001000+00006139+00000+0001T   00006139+0000001248          1400 OM3510               3AZ
306034002306034019-000084     306034006001023797247VASE GLASS GEOMETRIC   0000001000+00006139+00000+0001T   00006139+0000001248          1400 OM3510               3AZ
306034003306034564-000035     306034006003000301836BUBBLE NOVELTY SWORD   0000001000+00001753+00000+0001T   00001753+0000001248          1400 OM3131               3AZ
306034004306034112-116069     306034006009681820277TCS CARRIER BAG JUMBO  0000001000+00000048+00000+0001T   00000048+0000001248          1400 OM3090               3AZ
306034005306034464-000107     306034000073854318089PLAY-CARDS 2nd (SINGLE)0000001000+00003069+00000+0001T   00003069+0000001248          1400 OM3785               3AZ
306035000306035               306035               170213FT     1400+00000+FT0000001314+0000001314+000000000+000000184+0000001490+0000000008+I20000000000+0000001490+Z
306035001306035046-000012     306035006904708013062BATTERIES AA  CARD-OF-40000001000+00001314+00000+0001T   00001314+0000001249          1400 OM3312               3AZ
306036000306036               306036               170213FT     1400+00000+FT0000001578+0000001578+000000000+000000221+0000001790+0000000009+I20000000000+0000001790+Z
306036001306036077-000303     306036006001023593757GIFT-BAG PAPER MED     0000001000+00001578+00000+0001T   00001578+0000001249          1400 OM3112               3AZ
306037000306037               306037               170213FT     1400+00000+FT0000004120+0000004120+000000000+000000578+0000004698+0000000000+I40000004698+0000000000+Z
306037001306037051-600706     306037006003000604197S/GARDEN LIGHT 35cm PL 0000001000+00002367+00000+0001T   00002630+0008191251          1400 OM3820               3AZ
306037002306037051-002407     306037006003000452491SPRAYER TRIGGER 550ml  0000001000+00001753+00000+0001T   00001753+0000001251          1400 OM3820               3AZ
306038000306038               306038               170213FT     1400+00000+FT0000002678+0000002678+000000000+000000376+0000003050+0000000004+I20000000000+0000003050+Z
306038001306038565-000041     306038006008766115642NOVELTY BALL ICON 5.5cm0000001000+00002630+00000+0001T   00002630+0000001254          1400 OM3745               3AZ
306038002306038112-116069     306038006009681820277TCS CARRIER BAG JUMBO  0000001000+00000048+00000+0001T   00000048+0000001254          1400 OM3090               3AZ
306039000306039               306039               170213FT     1400+00000+FT0000001796+0000001796+000000000+000000252+0000002048+0000000000+I40000002048+0000000000+Z
306039001306039369-001029     306039006001023795854BABY RATTLE/TEETHER ASS0000001000+00001578+00000+0001T   00001578+0000001259          1400 OM3745               3AZ
306039002306039006-000170-K   306039006003000609284BALLOONS 1PC PURPLE    0000001000+00000218+00000+0001T   00000218+0000001259          1400 OM3131               3AZ
306040000306040               306040               170213FT     1400+00000+FT0000005262+0000005262+000000000+000000737+0000005990+0000000009+I20000000000+0000005990+Z
306040001306040031-000903-B   306040006003000457236P/FRAME PL CREAMY 13X180000001000+00005262+00000+0001T   00005262+0000001409          1400 OM3510               3AZ
306041000306041               306041               170213FT     1400+00000+FT0000006139+0000006139+000000000+000000860+0000000000+0000000000+ 00000000000+0000000000+Z
306041001306041264-000922     306041000090159250012MAISTO CAR PULL-BACK   0000001000+00006139+00000+0001T   00007016+000819              1400 OM37102IC            3 Z
306042000306042               306042               170213FT     1400+00000+FT0000002665+0000002665+000000000+000000374+0000003030+0000000009+I20000000000+0000003030+Z
306042001306042079-013101     306042006001023863706CRAFT SET DIY PIPE-CLNR0000001000+00002630+00000+0001T   00002630+0000001419          1400 OM3130               3AZ
306042002306042112-116038     306042006009681820246TCS CARRIER BAG MIDI   0000001000+00000035+00000+0001T   00000035+0000001419          1400 OM3090               3AZ
306043000306043               306043               170213FT     1400+00000+FT0000006138+0000006138+000000000+000000860+0000006990+0000000008+I20000000000+0000006990+Z
306043001306043264-000925-351 306043006003000642205BURAGO 1:64 FERRARI    0000001000+00004385+00000+0001T   00006139+0008131421          1400 OM3710               3AZ
306043002306043071-008229     306043006003000216017PENCIL-BAG ASTD COL A5 0000001000+00001753+00000+0001T   00001753+0000001421          1400 OM3130               3AZ
306044000306044               306044               170213FT     1400+00000+FT0000004385+0000004385+000000000+000000614+0000004990+0000000009+I20000000000+0000004990+Z
306044001306044007-000653     306044006001023784469NOTE-BOOK SET+PEN+BAG  0000001000+00004385+00000+0001T   00004385+0000001426          1400 OM3130               3AZ
306045000306045               306045               170213FT     1400+00000+FT0000007190+0000007190+000000000+000001008+0000008198+0000000000+I40000008198+0000000000+Z
306045001306045035-000002     306045006002596010542UMBRELLA LADIES PRINTED0000001000+00006139+00000+0001T   00006139+0000001429          1400 OM3205               3AZ
306045002306045903-002891     306045008935001721376MENTOS GUM WINTERGREEN 0000001000+00001051+00000+0001T   00001051+0000001429          1400 OM3150               3AZ
306046000306046               306046               170213FT     1400+00000+FT0000005734+0000005734+000000000+000000803+0000006530+0000000007+I20000000000+0000006530+Z
306046001306046028-085274     306046006001023641571BBQ LIGHTER         H&L0000001000+00002192+00000+0001T   00002192+0000001431          1400 OM3305               3AZ
306046002306046004-071205     306046006003000073368USB 2.0 COMPUTER 4 HUB 0000001000+00003507+00000+0001T   00003507+0000001431          1400 OM3310               3AZ
306046003306046112-116038     306046006009681820246TCS CARRIER BAG MIDI   0000001000+00000035+00000+0001T   00000035+0000001431          1400 OM3090               3AZ
306047000306047               306047               170213FT     1400+00000+FT0000000876+0000000876+000000000+000000123+0000000990+0000000009+I20000000000+0000000990+Z
306047001306047007-000127     306047006009685853431BOOK H/COVER MEMO 144PG0000001000+00000876+00000+0001T   00000876+0000001433          1400 OM3130               3AZ
306048000306048               306048               170213FT     1400+00000+FT0000014908+0000014908+000000000+000002088+0000016990+0000000006+I20000000000+0000016990+Z
306048001306048077-000290     306048006001023902023GIFT BOX 26x32x13cm    0000001000+00001753+00000+0001T   00001753+0000001433          1400 OM3112               3AZ
306048002306048006-000190     306048006003000685530BALLOONS LOVE 81x91cm  0000003000+00004385+00000+0001T   00004385+0000001433          1400 OM3131               3AZ
306049000306049               306049               170213FT     1400+00000+FT0000001490+0000001490+000000000+000000209+0000001690+0000000009+I20000000000+0000001690+Z
306049001306049077-000299     306049006003000395576G/BAG 32x25cm LRG LOVE 0000001000+00001490+00000+0001T   00001490+0000001439          1400 OM3112               3AZ
306050000306050               306050               170213FT     1400+00000+FT0000000048+0000000048+000000000+000000007+0000000050+0000000005+I20000000000+0000000050+Z
306050001306050112-116069     306050006009681820277TCS CARRIER BAG JUMBO  0000001000+00000048+00000+0001T   00000048+0000001440          1400 OM3090               3AZ
306051000306051               306051               170213FT     1400+00000+FT0000004385+0000004385+000000000+000000614+0000004990+0000000009+I20000000000+0000004990+Z
306051001306051368-000001     306051006003000097982Plush Bear 25cm        0000001000+00004385+00000+0001T   00004385+0000001447          1400 OM3745               3AZ
306052000306052               306052               170213FT     1400+00000+FT0000000876+0000000876+000000000+000000123+0000000990+0000000009+I20000000000+0000000990+Z
306052001306052903-000503     306052006001704006118SWT VAMPIRE FANGS 60G  0000001000+00000876+00000+0001T   00000876+0000001451          1400 OM3150               3AZ
306053000306053               306053               170213FT     1400+00000+FT0000005295+0000005295+000000000+000000743+0000006030+0000000008+I20000000000+0000006030+Z
306053001306053039-081008     306053006008766081008CANDLES 9PCE SCENTED   0000002000+00002630+00000+0001T   00002630+0000001453          1400 OM3510               3AZ
306053002306053112-116038     306053006009681820246TCS CARRIER BAG MIDI   0000001000+00000035+00000+0001T   00000035+0000001453          1400 OM3090               3AZ
306054000306054               306054               170213FT     1400+00000+FT0000002192+0000002192+000000000+000000307+0000002490+0000000009+I20000000000+0000002490+Z
306054001306054080-000127     306054006003000424351VALENTINES DAY 36x24CM 0000001000+00002192+00000+0001T   00002192+0000001454          1400 OM3112               3AZ
306055000306055               306055               170213FT     1400+00000+FT0000002192+0000002192+000000000+000000307+0000002490+0000000009+I20000000000+0000002490+Z
306055001306055018-000170     306055006001023775528MUG OCC. LOVE 2PC MINI 0000001000+00002192+00000+0001T   00002192+0000001456          1400 OM3515               3AZ
306056000306056               306056               170213FT     1400+00000+FT0000011401+0000011401+000000000+000001597+0000012990+0000000008+I20000000000+0000012990+Z
306056001306056077-000270     306056006003000395453GIFT-BAG PPR JMB 33X45 0000001000+00002630+00000+0001T   00002630+0000001459          1400 OM3112               3AZ
306056002306056031-000924     306056006001023669964P/FRAME COLLAGE PL     0000001000+00008771+00000+0001T   00008771+0000001459          1400 OM3510               3AZ
306057000306057               306057               170213FT     1400+00000+FT0000005085+0000005085+000000000+000000712+0000005797+0000000000+I40000005797+0000000000+Z
306057001306057018-000136     306057006001023659026MUG OCC LOVE W/PLUSH   0000001000+00003507+00000+0001T   00003507+0000001503          1400 OM3515               3AZ
306057002306057077-000303     306057006001023593757GIFT-BAG PAPER MED     0000001000+00001578+00000+0001T   00001578+0000001503          1400 OM3112               3AZ
306058000306058               306058               170213FT     1400+00000+FT0000002893+0000002893+000000000+000000405+0000003298+0000000000+I40000003298+0000000000+Z
306058001306058077-000299     306058006003000395576G/BAG 32x25cm LRG LOVE 0000001000-00001490+00000+0001T   00001490+0000001507          1400 OM31122IC            3 Z
306058002306058077-000151     306058006008766114676GIFT-WRAP C/PHANE ASSTD0000001000+00000876+00000+0001T   00000876+0000001507          1400 OM3112               3AZ
306058003306058103-000037     306058006003000568277BASKET WOVEN RECT      0000001000+00003507+00000+0001T   00003507+0000001507          1400 OM3300               3AZ
306059000306059               306059               170213FT     1400+00000+FT0000008712+0000008712+000000000+000001222+0000009934+0000000000+I40000009934+0000000000+Z
306059001306059077-000305     306059006003000395422GIFT-BAG WINE 10X35CM  0000001000+00001490+00000+0001T   00001490+0000001514          1400 OM3112               3AZ
306059002306059903-000012     306059006002099007308SWT MALLOW S/BERRY     0000001000+00000437+00000+0001T   00000437+0000001514          1400 OM3150               3AZ
306059003306059112-116038     306059006009681820246TCS CARRIER BAG MIDI   0000001000+00000035+00000+0001T   00000035+0000001514          1400 OM3090               3AZ
306059004306059031-000002     306059006001023851338FRAME FRIENDS 7.5x7.5cm0000001000+00003507+00000+0001T   00003507+0000001514          1400 OM3510               3AZ
306059005306059077-000384     306059006003000275243G/BAG HOT STMP 18x23CM 0000001000+00001490+00000+0001T   00001490+0000001514          1400 OM3112               3AZ
306059006306059077-000297     306059006001023869814GIFT BOX OCCASIONS SQRE0000001000+00001753+00000+0001T   00001753+0000001514          1400 OM3112               3AZ
306060000306060               306060               170213FT     1400+00000+FT0000006184+0000006184+000000000+000000868+0000007050+0000000002+I20000000000+0000007050+Z
306060001306060018-000129     306060006001023403353MUG OCC. LOVE V-SHAPE  0000001000+00002630+00000+0001T   00002630+0000001523          1400 OM3515               3AZ
306060002306060077-000151     306060006008766114676GIFT-WRAP C/PHANE ASSTD0000001000+00000876+00000+0001T   00000876+0000001523          1400 OM3112               3AZ
306060003306060077-000270     306060006003000395453GIFT-BAG PPR JMB 33X45 0000001000+00002630+00000+0001T   00002630+0000001523          1400 OM3112               3AZ
306060004306060112-116069     306060006009681820277TCS CARRIER BAG JUMBO  0000001000+00000048+00000+0001T   00000048+0000001523          1400 OM3090               3AZ
306061000306061               306061               170213FT     1400+00000+FT0000003507+0000003507+000000000+000000491+0000003990+0000000008+I20000000000+0000003990+Z
306061001306061018-005009     306061006001023725608MUG W/PLUSH-BEAR LOVE  0000001000+00003507+00000+0001T   00003507+0000001528          1400 OM3515               3AZ
306062000306062               306062               170213FT     1400+00000+FT0000003331+0000003331+000000000+000000467+0000003790+0000000008+I20000000000+0000003790+Z
306062001306062077-000382     306062006003000247820GIFT-BAG MED 18X23CM   0000001000+00001753+00000+0001T   00001753+0000001531          1400 OM3112               3AZ
306062002306062018-000127     306062006001023380289MUG OCC STRAIGHT LOVE  0000001000+00001578+00000+0001T   00001753+0006471531          1400 OM3515               3AZ
306063000306063               306063               170213FT     1400+00000+FT0000003507+0000003507+000000000+000000491+0000003990+0000000008+I20000000000+0000003990+Z
306063001306063018-000136     306063006001023659026MUG OCC LOVE W/PLUSH   0000001000+00003507+00000+0001T   00003507+0000001537          1400 OM3515               3AZ
306064000306064               306064               170213FT     1400+00000+FT0000001753+0000001753+000000000+000000246+0000001990+0000000009+I20000000000+0000001990+Z
306064001306064077-000316     306064006001023609731GIFT-BAG 25X32CM MATT  0000001000+00001753+00000+0001T   00001753+0000001600          1400 OM3112               3AZ
306065000306065               306065               170213FT     1400+00000+FT0000007925+0000007925+000000000+000001111+0000009030+0000000006+I20000000000+0000009030+Z
306065001306065566-100009     306065006003000102914WED STIK EMBOSSED FOIL 0000001000+00002630+00000+0001T   00002630+0000001601          1400 OM3130               3AZ
306065002306065079-006496     306065006003000160105GLITTER SHAKERS        0000001000+00001753+00000+0001T   00001753+0000001601          1400 OM3130               3AZ
306065003306065007-000324     30606500600968585864125 SHEETS BRIGHTS MARLI0000001000+00003507+00000+0001T   00003507+0000001601          1400 OM3130               3AZ
306065004306065112-116038     306065006009681820246TCS CARRIER BAG MIDI   0000001000+00000035+00000+0001T   00000035+0000001601          1400 OM3090               3AZ
306066000306066               306066               170213FT     1400+00000+FT0000002630+0000002630+000000000+000000369+0000002990+0000000009+I20000000000+0000002990+Z
306066001306066159-000038     306066006003000393954HOOKS HANGER S/S 2PCE  0000001000+00002630+00000+0001T   00002630+0000001602          1400 OM3200               3AZ
306067000306067               306067               170213FT     1400+00000+FT0000001753+0000001753+000000000+000000246+0000001990+0000000009+I20000000000+0000001990+Z
306067001306067077-000116     306067006003000240777GIFT-WRAP 700mmx2m COL 0000001000+00001753+00000+0001T   00001753+0000001603          1400 OM3112               3AZ
306068000306068               306068               170213FT     1400+00000+FT0000000437+0000000437+000000000+000000062+0000000490+0000000009+I20000000000+0000000490+Z
306068001306068903-000012     306068006002099007308SWT MALLOW S/BERRY     0000001000+00000437+00000+0001T   00000437+0000001603          1400 OM3150               3AZ
306069000306069               306069               170213FT     1400+00000+FT0000007629+0000007629+000000000+000001069+0000008690+0000000008+I20000000000+0000008690+Z
306069001306069077-000299     306069006003000395576G/BAG 32x25cm LRG LOVE 0000001000+00001490+00000+0001T   00001490+0000001605          1400 OM3112               3AZ
306069002306069368-000265     306069006001023750914PLUSH BEAR 23CM ASSTD C0000001000+00006139+00000+0001T   00006139+0000001605          1400 OM3745               3AZ
306070000306070               306070               170213FT     1400+00000+FT0000003506+0000003506+000000000+000000492+0000003990+0000000008+I20000000000+0000003990+Z
306070001306070077-000456     306070006003000285549G/BAG METALLIC JMB EMB 0000001000+00002630+00000+0001T   00002630+0000001610          1400 OM3112               3AZ
306070002306070077-000011-D   306070006001023808554TISSUE-WRAP WHITE 10PCE0000001000+00000876+00000+0001T   00000876+0000001610          1400 OM3112               3AZ
306071000306071               306071               170213FT     1400+00000+FT0000005259+0000005259+000000000+000000738+0000005990+0000000007+I20000000000+0000005990+Z
306071001306071088-000084     306071006001023798060P/POURRI 120G ASSTD    0000003000+00001753+00000+0001T   00001753+0000001612          1400 OM3212               3AZ
306072000306072               306072               170213FT     1400+00000+FT0000003506+0000003506+000000000+000000492+0000003990+0000000008+I20000000000+0000003990+Z
306072001306072080-000116     306072006003000253555CARD&ENVELOPE-HANDMADE 0000001000+00001753+00000+0001T   00001753+0000001613          1400 OM3112               3AZ
306072002306072077-000299-A   306072006003000670888GIFT-BAG PAPER JMB LOVE0000001000+00001753+00000+0001T   00001753+0000001613          1400 OM3112               3AZ
306073000306073               306073               170213FT     1400+00000+FT0000003507+0000003507+000000000+000000491+0000003990+0000000008+I20000000000+0000003990+Z
306073001306073004-071203     306073006003000183555COMPUTOR LIGHT LED USB 0000001000+00003507+00000+0001T   00003507+0000001613          1400 OM3310               3AZ
306074000306074               306074               170213FT     1400+00000+FT0000002366+0000002366+000000000+000000332+0000002690+0000000008+I20000000000+0000002690+Z
306074001306074077-000303     306074006001023593757GIFT-BAG PAPER MED     0000001000+00001578+00000+0001T   00001578+0000001616          1400 OM3112               3AZ
306074002306074903-000138     306074006002099004314SWT GS WINE GUMS 60G   0000001000+00000788+00000+0001T   00000788+0000001616          1400 OM3150               3AZ
306075000306075               306075               170213FT     1400+00000+FT0000000035+0000000035+000000000+000000005+0000000040+0000000000+I20000000000+0000000040+Z
306075001306075112-116038     306075006009681820246TCS CARRIER BAG MIDI   0000001000+00000035+00000+0001T   00000035+0000001617          1400 OM3090               3AZ
306076000306076               306076               170213FT     1400+00000+FT0000005256+0000005256+000000000+000000739+0000005990+0000000005+I20000000000+0000005990+Z
306076001306076567-004959     306076009780636049208BOOK EDU SPF G2 AFRIK. 0000001000+00002192+00000+0001T   00002192+0000001621          1400 OM3757               3AZ
306076002306076071-008229     306076006003000216017PENCIL-BAG ASTD COL A5 0000001000+00001753+00000+0001T   00001753+0000001621          1400 OM3130               3AZ
306076003306076007-000203     306076006009685850409FILE DISPLAY FLDR ASSTD0000003000+00000437+00000+0001T   00000437+0000001621          1400 OM3130               3AZ
306077000306077               306077               170213FT     1400+00000+FT0000022585+0000022585+000000000+000003164+0000025740+0000000009+I20000000000+0000025740+Z
306077001306077077-000299     306077006003000395576G/BAG 32x25cm LRG LOVE 0000001000+00001490+00000+0001T   00001490+0000001628          1400 OM3112               3AZ
306077002306077301-085003     306077006003000420827ORN OCCASION LOVE KEY  0000002000+00005262+00000+0001T   00005262+0000001628          1400 OM3505               3AZ
306077003306077018-000170     306077006001023775528MUG OCC. LOVE 2PC MINI 0000002000+00002192+00000+0001T   00002192+0000001628          1400 OM3515               3AZ
306077004306077018-050000     306077006003000412679MUG OCC LOVE TWIN BEAR 0000001000+00006139+00000+0001T   00006139+0000001628          1400 OM3515               3AZ
306077005306077112-116069     306077006009681820277TCS CARRIER BAG JUMBO  0000001000+00000048+00000+0001T   00000048+0000001628          1400 OM3090               3AZ
306078000306078               306078               170213FT     1400+00000+FT0000002185+0000002185+000000000+000000310+0000002490+0000000005+I20000000000+0000002490+Z
306078001306078080-000133-A   306078006003000647019MINI VALENTINES CARD   0000005000+00000437+00000+0001T   00000437+0000001629          1400 OM3112               3AZ
306079000306079               306079               170213FT     1400+00000+FT0000001578+0000001578+000000000+000000221+0000001790+0000000009+I20000000000+0000001790+Z
306079001306079071-001005     306079006001023558169PENCIL-SHARPENER DOUBLE0000001000+00001578+00000+0001T   00001578+0000001648          1400 OM3130               3AZ
306080000306080               306080               170213FT     1400+00000+FT0000009241+0000009241+000000000+000001294+0000010530+0000000005+I20000000000+0000010530+Z
306080001306080024-000042     306080006002580009255M/CUP MINI 30ML H/HOUSE0000001000+00002192+00000+0001T   00002192+0000001651          1400 OM3300               3AZ
306080002306080089-000018     306080006003000176724KEY CHAIN INSPIRATION  0000001000+00003507+00000+0001T   00003507+0000001651          1400 OM3205               3AZ
306080003306080024-000072     306080006001023849502EGG-WHISK SET-OF-3     0000001000+00003507+00000+0001T   00003507+0000001651          1400 OM3300               3AZ
306080004306080112-116038     306080006009681820246TCS CARRIER BAG MIDI   0000001000+00000035+00000+0001T   00000035+0000001651          1400 OM3090               3AZ
306081000306081               306081               170213FT     1400+00000+FT0000001050+0000001050+000000000+000000148+0000001190+0000000008+I20000000000+0000001190+Z
306081001306081903-000077     306081006939873501687SWT GS MAGIC ROCK FRUIT0000002000+00000525+00000+0001T   00000525+0000001653          1400 OM3150               3AZ
306082000306082               306082               170213FT     1400+00000+FT0000004821+0000004821+000000000+000000675+0000005490+0000000006+I20000000000+0000005490+Z
306082001306082301-085004     306082006003000420469ORN LOVE PLAQUE 21X10CM0000001000+00003507+00000+0001T   00003946+0006471654          1400 OM3505               3AZ
306082002306082077-000310     306082006001023608635GIFT-BAG 18X23CM GLOSS 0000001000+00001314+00000+0001T   00001314+0000001654          1400 OM3112               3AZ
306083000306083               306083               170213FT     1400+00000+FT0000001490+0000001490+000000000+000000209+0000001690+0000000009+I20000000000+0000001690+Z
306083001306083077-000299     306083006003000395576G/BAG 32x25cm LRG LOVE 0000001000+00001490+00000+0001T   00001490+0000001656          1400 OM3112               3AZ
306084000306084               306084               170213FT     1400+00000+FT0000001362+0000001362+000000000+000000191+0000001550+0000000003+I20000000000+0000001550+Z
306084001306084077-000312     306084006001023608697GIFT-BAG 10X35CM GLOSS 0000001000+00001314+00000+0001T   00001314+0000001714          1400 OM3112               3AZ
306084002306084112-116069     306084006009681820277TCS CARRIER BAG JUMBO  0000001000+00000048+00000+0001T   00000048+0000001714          1400 OM3090               3AZ
306085000306085               306085               170213FT     1400+00000+FT0000002717+0000002717+000000000+000000381+0000003090+0000000008+I20000000000+0000003090+Z
306085001306085077-000299-A   306085006003000670888GIFT-BAG PAPER JMB LOVE0000001000+00001753+00000+0001T   00001753+0000001717          1400 OM3112               3AZ
306085002306085903-000843     306085008693029031067SWT GUMMY JELAXY 80G   0000001000+00000964+00000+0001T   00000964+0000001717          1400 OM3150               3AZ
306086000306086               306086               170213FT     1400+00000+FT0000000613+0000000613+000000000+000000086+0000000690+0000000009+I20000000000+0000000690+Z
306086001306086304-001011     306086006001023806727FLWR ROSE RED W/BEAR   0000001000+00000613+00000+0001T   00000788+0006471721          1400 OM3510               3AZ
306087000306087               306087               170213FT     1400+00000+FT0000000035+0000000035+000000000+000000005+0000000040+0000000000+I20000000000+0000000040+Z
306087001306087112-116038     306087006009681820246TCS CARRIER BAG MIDI   0000001000+00000035+00000+0001T   00000035+0000001722          1400 OM3090               3AZ
306088000306088               306088               170213FT     1400+00000+FT0000001578+0000001578+000000000+000000221+0000001790+0000000009+I20000000000+0000001790+Z
306088001306088018-000127     306088006001023380289MUG OCC STRAIGHT LOVE  0000001000+00001578+00000+0001T   00001753+0006471733          1400 OM3515               3AZ
306089000306089               306089               170213FT     1400+00000+FT0000003507+0000003507+000000000+000000491+0000003990+0000000008+I20000000000+0000003990+Z
306089001306089018-000136     306089006001023659026MUG OCC LOVE W/PLUSH   0000001000+00003507+00000+0001T   00003507+0000001733          1400 OM3515               3AZ
306090000306090               306090               170213FT     1400+00000+FT0000002366+0000002366+000000000+000000332+0000002690+0000000008+I20000000000+0000002690+Z
306090001306090077-000299     306090006003000395576G/BAG 32x25cm LRG LOVE 0000001000+00001490+00000+0001T   00001490+0000001734          1400 OM3112               3AZ
306090002306090903-000861     306090005010478430822SWT LOVE HEARTS SML    0000001000+00000876+00000+0001T   00000876+0000001734          1400 OM3150               3AZ
306091000306091               306091               170213FT     1400+00000+FT0000001578+0000001578+000000000+000000221+0000001790+0000000009+I20000000000+0000001790+Z
306091001306091077-000303     306091006001023593757GIFT-BAG PAPER MED     0000001000+00001578+00000+0001T   00001578+0000001734          1400 OM3112               3AZ
306092000306092               306092               170213FT     1400+00000+FT0000003681+0000003681+000000000+000000517+0000004190+0000000008+I20000000000+0000004190+Z
306092001306092007-000602     306092006003000541270BOOK COVER 2M SOLID COL0000001000+00002630+00000+0001T   00002630+0000001736          1400 OM3130               3AZ
306092002306092007-000119     306092006002324004126BOOK COVER PL          0000001000+00001051+00000+0001T   00001051+0000001736          1400 OM3130               3AZ
306093000306093               306093               170213FT     1400+00000+FT0000003855+0000003855+000000000+000000540+0000004390+0000000005+I20000000000+0000004390+Z
306093001306093006-000166-H   306093006003000608096BALLOONS HELIUM 6PC WHT0000002000+00001314+00000+0001T   00001314+0000001741          1400 OM3131               3AZ
306093002306093077-000245     306093006001023759214GIFT-RIBBON METALLICx2 0000001000+00001227+00000+0001T   00001227+0000001741          1400 OM3112               3AZ
306094000306094               306094               170213FT     1400+00000+FT0000004997+0000004997+000000000+000000700+0000005697+0000000000+I40000005697+0000000000+Z
306094001306094162-086945     306094006001492869452PASTEL DREAMCATCHER ER 0000001000+00003507+00000+0001T   00003507+0000001750          1400 OM3160               3AZ
306094002306094077-000299     306094006003000395576G/BAG 32x25cm LRG LOVE 0000001000+00001490+00000+0001T   00001490+0000001750          1400 OM3112               3AZ
306095000306095               306095               170213FT     1400+00000+FT0000002630+0000002630+000000000+000000369+0000002999+0000000000+I40000002999+0000000000+Z
306095001306095077-000270     306095006003000395453GIFT-BAG PPR JMB 33X45 0000001000+00002630+00000+0001T   00002630+0000001757          1400 OM3112               3AZ
306096000306096               306096               170213FT     1400+00000+FT0000001753+0000001753+000000000+000000246+0000001990+0000000009+I20000000000+0000001990+Z
306096001306096077-000289     306096006001023901996GIFT BOX 20x25x11cm    0000001000+00001753+00000+0001T   00001753+0000001800          1400 OM3112               3AZ
306097000306097               306097               170213FT     1400+00000+FT0000000048+0000000048+000000000+000000007+0000000050+0000000005+I20000000000+0000000050+Z
306097001306097112-116069     306097006009681820277TCS CARRIER BAG JUMBO  0000001000+00000048+00000+0001T   00000048+0000001801          1400 OM3090               3AZ
306098000306098               306098               170213FT     1400+00000+FT0000002366+0000002366+000000000+000000332+0000002690+0000000008+I20000000000+0000002690+Z
306098001306098077-000520     306098006001023908254GIFT-BAG 25X32CM       0000001000+00001753+00000+0001T   00001753+0000001802          1400 OM3112               3AZ
306098002306098304-001011     306098006001023806727FLWR ROSE RED W/BEAR   0000001000+00000613+00000+0001T   00000788+0006471802          1400 OM3510               3AZ
306099000306099               306099               170213FT     1400+00000+FT0000000876+0000000876+000000000+000000123+0000000990+0000000009+I20000000000+0000000990+Z
306099001306099903-000482     306099006001704001397SWT SOFT-MINTS 60G     0000001000+00000876+00000+0001T   00000876+0000001802          1400 OM3150               3AZ
306100000306100               306100               170213FT     1400+00000+FT0000007629+0000007629+000000000+000001069+0000008690+0000000008+I20000000000+0000008690+Z
306100001306100018-050000     306100006003000412679MUG OCC LOVE TWIN BEAR 0000001000+00006139+00000+0001T   00006139+0000001804          1400 OM3515               3AZ
306100002306100077-000299     306100006003000395576G/BAG 32x25cm LRG LOVE 0000001000+00001490+00000+0001T   00001490+0000001804          1400 OM3112               3AZ
306101000306101               306101               170213FT     1400+00000+FT0000002980+0000002980+000000000+000000418+0000003390+0000000008+I20000000000+0000003390+Z
306101001306101077-000299     306101006003000395576G/BAG 32x25cm LRG LOVE 0000001000+00001490+00000+0001T   00001490+0000001805          1400 OM3112               3AZ
306101002306101046-000010     306101004897006172987BATTERIES AAA ALKLN 2PC0000001000+00001490+00000+0001T   00001490+0000001805          1400 OM3312               3AZ
M17021301                              GLADWYN     FTTO GLADWYN                                                                                      SLAVE 3 LAST TILL SLIP NR : 306101                                                              REGARDS                                                                                         WELKOM FT
M17021391                              CASH        FTSLAVE 3                       Z-REPORT No.   578TOTAL (Sales - Refunds)           5490.81       CASH TO BE BANKED                 4311.80       DEBIT CARDS                          0.00       CREDIT CARDS                      1179.01       Z-READING                         5490.81       AIRTIME DEBIT CARD SALES             0.00       AIRTIME CARD SALES                   0.00       OVERS/UNDERS                         0.00       AIRTIME CASH SALES                   0.00       GIFT CARDS                           0.00       GIFT CARD CASH SALES                 0.00       T O T A L  CASH PAYOUTS              0.00                                                                                                                                                                                                                                                                                                                                                      Z
M17021392                              CASH        FTABSENT                                                                                                                                                                                          ANNUAL LEAVE                                                                                                                                                                                    DAY OFF                                                                                                                                                                                         COMMENTS                                                                                                                                                                                                                                                                                                                                                                                       Z
Y17021300                                          FT00000000483643+000108
ZFT17021321063 SLAVE 3      SALES DATA                     NEXT INVOICE NO.  306102 0578
X FT Slave 3 First invoice 305993 170213 Last invoice 306101 170213 Next invoice 306102 Total number of records 000000319 clbackup completed 21:06:55
