806603000806603               806603               170213FX     1400+00000+FX0000003507+0000003507+000000000+000000491+0000003990+0000000008+I20000000000+0000003990+Z
806603001806603002-001686     806603006003000441587JUICER PL WITH MEASURIN0000001000+00003507+00000+0001T   00003507+0000000856          1400 KU9300               1AZ
806604000806604               806604               170213FX     1400+00000+FX0000007051+0000007051+000000000+000000988+0000008030+0000000009+I20000000000+0000008030+Z
806604001806604041-092603     806604006003000115365BATH G/SET DAISY 4PC   0000001000+00007016+00000+0001T   00008771+0008140908          1400 KU9200               1AZ
806604002806604112-116038     806604006009681820246TCS CARRIER BAG MIDI   0000001000+00000035+00000+0001T   00000035+0000000908          1400 KU9090               1AZ
806605000806605               806605               170213FX     1400+00000+FX0000001575+0000001575+000000000+000000222+0000001790+0000000007+I20000000000+0000001790+Z
806605001806605903-000151     806605006009803374411SWT SML RND R/BOW LOLLY0000003000+00000525+00000+0001T   00000525+0000000919          1400 KU9150               1AZ
806606000806606               806606               170213FX     1400+00000+FX0000019118+0000019118+000000000+000002678+0000021796+0000000000+I40000021796+0000000000+Z
806606001806606566-000070     806606006003000283798STICKERS POP UP ASSTD  0000001000+00001753+00000+0001T   00001753+0000000935          1400 KU9130               1AZ
806606002806606018-000177     806606006001023797513MUG MINI LOVE ASSTD    0000001000+00000700+00000+0001T   00000700+0000000935          1400 KU9515               1AZ
806606003806606028-000040     806606006003000453016PICNIC BAG W/ALU HNDLES0000001000+00016665+00000+0001T   00016665+0000000935          1400 KU9305               1AZ
806607000806607               806607               170213FX     1400+00000+FX0000003542+0000003542+000000000+000000496+0000004030+0000000008+I20000000000+0000004030+Z
806607001806607018-000136     806607006001023659026MUG OCC LOVE W/PLUSH   0000001000+00003507+00000+0001T   00003507+0000000938          1400 KU9515               1AZ
806607002806607112-116038     806607006009681820246TCS CARRIER BAG MIDI   0000001000+00000035+00000+0001T   00000035+0000000938          1400 KU9090               1AZ
806608000806608               806608               170213FX     1400+00000+FX0000000964+0000000964+000000000+000000135+0000001090+0000000009+I20000000000+0000001090+Z
806608001806608039-000336     806608006001023169129B'DAY-CANDLES MAGIC 10P0000001000+00000964+00000+0001T   00000964+0000000953          1400 KU9510               1AZ
806609000806609               806609               170213FX     1400+00000+FX0000001753+0000001753+000000000+000000246+0000001990+0000000009+I20000000000+0000001990+Z
806609001806609006-000120     806609006001023346889BALLOONS 10PC MIX COL  0000001000+00001753+00000+0001T   00001753+0000000956          1400 KU9131               1AZ
806610000806610               806610               170213FX     1400+00000+FX0000012743+0000012743+000000000+000001788+0000014531+0000000000+I40000014531+0000000000+Z
806610001806610027-000081     806610006001023760371SCOURING PADS 10PCE    0000001000+00001139+00000+0001T   00001139+0000001001          1400 KU9212               1AZ
806610002806610046-000015     806610006001023680839BATTERIES SIZE:D   2PCE0000001000+00002367+00000+0001T   00002367+0000001001          1400 KU9312               1AZ
806610003806610046-000012     806610006904708013062BATTERIES AA  CARD-OF-40000001000+00001314+00000+0001T   00001314+0000001001          1400 KU9312               1AZ
806610004806610200-003024     806610006001023657299REFUSE BAGS 20PCE BLACK0000001000+00001753+00000+0001T   00001753+0000001001          1400 KU9214               1AZ
806610005806610903-000087     806610006001704000161SWT SPECKLED-EGGS 50G  0000001000+00001139+00000+0001T   00001139+0000001001          1400 KU9150               1AZ
806610006806610903-000482     806610006001704001397SWT SOFT-MINTS 60G     0000001000+00000876+00000+0001T   00000876+0000001001          1400 KU9150               1AZ
806610007806610368-000100     806610006001023474742PLUSH MD BEAR 12cm     0000001000+00002630+00000+0001T   00002630+0000001001          1400 KU9745               1AZ
806610008806610565-004101     806610006003000548033BALL BOUNCING EGG      0000001000+00001490+00000+0001T   00001490+0000001001          1400 KU9745               1AZ
806610009806610112-116038     806610006009681820246TCS CARRIER BAG MIDI   0000001000+00000035+00000+0001T   00000035+0000001001          1400 KU9090               1AZ
806611000806611               806611               170213FX     1400+00000+FX0000008026+0000008026+000000000+000001125+0000009150+0000000001+I20000000000+0000009150+Z
806611001806611077-000315     806611006003000181186GIFT-BAG 20x28cm MATT  0000002000+00001578+00000+0001T   00001578+0000001011          1400 KU9112               1AZ
806611002806611077-000472     806611006003000330133G-BAG DESGNR LRG 25X32 0000001000+00001753+00000+0001T   00001753+0000001011          1400 KU9112               1AZ
806611003806611077-000376     806611006003000444427GIFT-BAG 25X32CM 2PK   0000001000+00003069+00000+0001T   00003069+0000001011          1400 KU9112               1AZ
806611004806611112-116069     806611006009681820277TCS CARRIER BAG JUMBO  0000001000+00000048+00000+0001T   00000048+0000001011          1400 KU9090               1AZ
806612000806612               806612               170213FX     1400+00000+FX0000005875+0000005875+000000000+000000823+0000006698+0000000000+I40000006698+0000000000+Z
806612001806612368-000001     806612006003000097982Plush Bear 25cm        0000001000+00004385+00000+0001T   00004385+0000001057          1400 KU9745               1AZ
806612002806612077-000299     806612006003000395576G/BAG 32x25cm LRG LOVE 0000001000+00001490+00000+0001T   00001490+0000001057          1400 KU9112               1AZ
806613000806613               806613               170213FX     1400+00000+FX0000008818+0000008818+000000000+000001235+0000010050+0000000003+I20000000000+0000010050+Z
806613001806613368-000001     806613006003000097982Plush Bear 25cm        0000002000+00004385+00000+0001T   00004385+0000001100          1400 KU9745               1AZ
806613002806613112-116069     806613006009681820277TCS CARRIER BAG JUMBO  0000001000+00000048+00000+0001T   00000048+0000001100          1400 KU9090               1AZ
806614000806614               806614               170213FX     1400+00000+FX0000001753+0000001753+000000000+000000246+0000001990+0000000009+I20000000000+0000001990+Z
806614001806614019-071596     806614006001023733078PEBBLES GLS 250g ASSTD.0000001000+00001753+00000+0001T   00001753+0000001105          1400 KU9510               1AZ
806615000806615               806615               170213FX     1400+00000+FX0000028068+0000028068+000000000+000003930+0000031998+0000000000+I40000031998+0000000000+Z
806615001806615031-001000     806615006003000253210P/FRAME CERTIFICATE    0000002000+00014034+00000+0001T   00014034+0000001108          1400 KU9510               1AZ
806616000806616               806616               170213FX     1400+00000+FX0000001578+0000001578+000000000+000000221+0000001790+0000000009+I20000000000+0000001790+Z
806616001806616077-000315     806616006003000181186GIFT-BAG 20x28cm MATT  0000001000+00001578+00000+0001T   00001578+0000001108          1400 KU9112               1AZ
806617000806617               806617               170213FX     1400+00000+FX0000010819+0000010819+000000000+000001517+0000012330+0000000006+I20000000000+0000012330+Z
806617001806617263-000160     806617006001023690975MOTORBIKE FRIC QUAD    0000001000+00007016+00000+0001T   00007016+0000001110          1400 KU9710               1AZ
806617002806617262-000651     806617006001023754561DIE CAST SET 5PC RACER 0000001000+00002630+00000+0001T   00002630+0000001110          1400 KU9710               1AZ
806617003806617903-000216     806617006925925900966SWT MALLOW TWIST ERKO  0000001000+00000262+00000+0001T   00000262+0000001110          1400 KU9150               1AZ
806617004806617903-003050     806617008024431008239SWT CHOC CONE H/NUT 25G0000001000+00000876+00000+0001T   00000876+0000001110          1400 KU9150               1AZ
806617005806617112-116038     806617006009681820246TCS CARRIER BAG MIDI   0000001000+00000035+00000+0001T   00000035+0000001110          1400 KU9090               1AZ
806618000806618               806618               170213FX     1400+00000+FX0000002980+0000002980+000000000+000000418+0000003390+0000000008+I20000000000+0000003390+Z
806618001806618024-091100     806618006001023914224BAKING-CUPS PAPER 100PC0000001000+00001753+00000+0001T   00001753+0000001111          1400 KU9300               1AZ
806618002806618200-000092     806618006003000576739PICNIC PAPER PLATES 23c0000001000+00001227+00000+0001T   00001227+0000001111          1400 KU9214               1AZ
806619000806619               806619               170213FX     1400+00000+FX0000008582+0000008582+000000000+000001204+0000009780+0000000006+I20000000000+0000009780+Z
806619001806619006-001000     806619006003000093779HELIUM BALLOON FILL    0000014000+00000613+00000+0001T   00000613+0000001113          1400 KU9131               1AZ
806620000806620               806620               170213FX     1400+00000+FX0000001226-0000001226-000000000+000000172-0000001400-0000000002+I20000000000+0000001400-Z
806620001806620006-001000     806620006003000093779HELIUM BALLOON FILL    0000002000-00000613+00000+0001T   00000613+0000001114          1400 KU91311IC            1 Z
806621000806621               806621               170213FX     1400+00000+FX0000002630+0000002630+000000000+000000369+0000002999+0000000000+I40000002999+0000000000+Z
806621001806621108-003023     806621006003000665471TUMBLER W/STRAW 550ml  0000001000+00002630+00000+0001T   00002630+0000001119          1400 KU9210               1AZ
806622000806622               806622               170213FX     1400+00000+FX0000001753+0000001753+000000000+000000246+0000001990+0000000009+I20000000000+0000001990+Z
806622001806622903-000215     806622006002099001214SWT GS MALLOW TWIST PAC0000001000+00001753+00000+0001T   00001753+0000001120          1400 KU9150               1AZ
806623000806623               806623               170213FX     1400+00000+FX0000001578+0000001578+000000000+000000221+0000001790+0000000009+I20000000000+0000001790+Z
806623001806623566-001234     806623006003000217793STICKERS LASER ASSTD   0000001000+00001578+00000+0001T   00001578+0000001124          1400 KU9130               1AZ
806624000806624               806624               170213FX     1400+00000+FX0000006960+0000006960+000000000+000000976+0000007936+0000000000+I40000007936+0000000000+Z
806624001806624078-000026     806624006936198407090SUPERGLUE 3,0g GEL     0000001000+00001753+00000+0001T   00001753+0000001142          1400 KU9810               1AZ
806624002806624903-000095     806624006001704011495SWT SPECKLED-EGGS 100G 0000001000+00002104+00000+0001T   00002104+0000001142          1400 KU9150               1AZ
806624003806624903-000295     806624006001704002899SWT MS FRUITY RASCALS  0000001000+00000876+00000+0001T   00000876+0000001142          1400 KU9150               1AZ
806624004806624046-000012-A   806624006003000208296BATTERIES H/POWER SZ:AA0000001000+00002192+00000+0001T   00002192+0000001142          1400 KU9312               1AZ
806624005806624112-116038     806624006009681820246TCS CARRIER BAG MIDI   0000001000+00000035+00000+0001T   00000035+0000001142          1400 KU9090               1AZ
806625000806625               806625               170213FX     1400+00000+FX0000004556+0000004556+000000000+000000640+0000005190+0000000006+I20000000000+0000005190+Z
806625001806625077-000010-C   806625006001023123879CREPE-PAPER RED        0000002000+00000788+00000+0001T   00000788+0000001143          1400 KU9112               1AZ
806625002806625077-000299     806625006003000395576G/BAG 32x25cm LRG LOVE 0000002000+00001490+00000+0001T   00001490+0000001143          1400 KU9112               1AZ
806626000806626               806626               170213FX     1400+00000+FX0000012279+0000012279+000000000+000001720+0000013999+0000000000+I40000013999+0000000000+Z
806626001806626019-000079     806626006001023775726VASE 30cm CRACK-DESIGN 0000001000+00012279+00000+0001T   00012279+0000001147          1400 KU9510               1AZ
806627000806627               806627               170213FX     1400+00000+FX0000006139+0000006139+000000000+000000860+0000006990+0000000009+I20000000000+0000006990+Z
806627001806627027-000029     806627006003000439676FLOOR-BROOM 1.2m ASSTD 0000001000+00006139+00000+0001T   00006139+0000001149          1400 KU9212               1AZ
806628000806628               806628               170213FX     1400+00000+FX0000009645+0000009645+000000000+000001352+0000010990+0000000007+I20000000000+0000010990+Z
806628001806628046-000002     806628006001023585202BATTERIES SIZE:C   2PCE0000002000+00001753+00000+0001T   00001753+0000001149          1400 KU9312               1AZ
806628002806628082-000120-A   806628006001023755834R/GLASS  FRAME W/CASE  0000001000+00006139+00000+0001T   00006139+0000001149          1400 KU9160               1AZ
806629000806629               806629               170213FX     1400+00000+FX0000008765+0000008765+000000000+000001230+0000009990+0000000005+I20000000000+0000009990+Z
806629001806629200-003026     806629006003000276448REFUSE BAGS 10PCE GREEN0000005000+00001753+00000+0001T   00001753+0000001228          1400 KU9214               1AZ
806630000806630               806630               170213FX     1400+00000+FX0000000876+0000000876+000000000+000000123+0000000990+0000000009+I20000000000+0000000990+Z
806630001806630077-000011-C   806630006001023808523TISSUE 10xSHTS RED     0000001000+00000876+00000+0001T   00000876+0000001231          1400 KU9112               1AZ
806631000806631               806631               170213FX     1400+00000+FX0000003417+0000003417+000000000+000000480+0000003897+0000000000+I40000003897+0000000000+Z
806631001806631080-000133     806631006003000535613CARD&ENV MINI ASTD DSGN0000001000+00000437+00000+0001T   00000437+0000001235          1400 KU9112               1AZ
806631002806631077-000299     806631006003000395576G/BAG 32x25cm LRG LOVE 0000002000+00001490+00000+0001T   00001490+0000001235          1400 KU9112               1AZ
806632000806632               806632               170213FX     1400+00000+FX0000003506+0000003506+000000000+000000492+0000003990+0000000008+I20000000000+0000003990+Z
806632001806632077-000011-C   806632006001023808523TISSUE 10xSHTS RED     0000001000+00000876+00000+0001T   00000876+0000001236          1400 KU9112               1AZ
806632002806632031-000873-A   806632006003000675425P/FRAME WDN WHITE 10X150000001000+00002630+00000+0001T   00002630+0000001236          1400 KU9510               1AZ
806633000806633               806633               170213FX     1400+00000+FX0000003507+0000003507+000000000+000000491+0000003990+0000000008+I20000000000+0000003990+Z
806633001806633162-083427     806633006001492834276SS PASTEL MULTISTRAND  0000001000+00003507+00000+0001T   00003507+0000001238          1400 KU9160               1AZ
806634000806634               806634               170213FX     1400+00000+FX0000002980+0000002980+000000000+000000418+0000003398+0000000000+I40000003398+0000000000+Z
806634001806634077-000010-C   806634006001023123879CREPE-PAPER RED        0000001000+00000788+00000+0001T   00000788+0000001246          1400 KU9112               1AZ
806634002806634077-000309-A   806634006003000671007GIFT-BAG HOLOGRAM JMB  0000001000+00002192+00000+0001T   00002192+0000001246          1400 KU9112               1AZ
806635000806635               806635               170213FX     1400+00000+FX0000035325+0000035325+000000000+000004950+0000040275+0000000000+I40000040275+0000000000+Z
806635001806635018-000170     806635006001023775528MUG OCC. LOVE 2PC MINI 0000001000+00002192+00000+0001T   00002192+0000001316          1400 KU9515               1AZ
806635002806635903-003080     806635005907029004673SWT SNACK STIX CHOC 50g0000001000+00000876+00000+0001T   00000876+0000001316          1400 KU9150               1AZ
806635003806635903-000121     806635006002099001689SWT GS ZILLIONS SOURS  0000003000+00000700+00000+0001T   00000700+0000001316          1400 KU9150               1AZ
806635004806635103-000083     806635006003000638062BAMBOO BASKET 27x20x8cm0000001000+00005262+00000+0001T   00005262+0000001316          1400 KU9300               1AZ
806635005806635077-000348     806635006001023483287GIFT-BOWS 4,5cm 8PCE   0000001000+00001578+00000+0001T   00001578+0000001316          1400 KU9112               1AZ
806635006806635018-000177     806635006001023797513MUG MINI LOVE ASSTD    0000002000+00000700+00000+0001T   00000700+0000001316          1400 KU9515               1AZ
806635007806635903-000194     806635006009826020616SWT CHOC RP LOLLY 25G  0000001000+00001314+00000+0001T   00001314+0000001316          1400 KU9150               1AZ
806635008806635018-000129     806635006001023403353MUG OCC. LOVE V-SHAPE  0000001000+00002630+00000+0001T   00002630+0000001316          1400 KU9515               1AZ
806635010806635903-003080     806635005907029004673SWT SNACK STIX CHOC 50g0000002000+00000876+00000+0001T   00000876+0000001316          1400 KU9150               1AZ
806635011806635903-000123     806635006925925909280SWEET GS MINI MALLOWS  0000001000+00000876+00000+0001T   00000876+0000001316          1400 KU9150               1AZ
806635012806635903-000510     806635006001704012621SWEET MS ZBDZ S/BERRY  0000001000+00001227+00000+0001T   00001227+0000001316          1400 KU9150               1AZ
806635013806635903-000504     806635006001704012416SWT CHOC JELLY BEANS   0000001000+00001227+00000+0001T   00001227+0000001316          1400 KU9150               1AZ
806635014806635035-000030     806635006002596030229UMBRELLA GOLF 16-RIB   0000001000+00011402+00000+0001T   00011402+0000001316          1400 KU9205               1AZ
806635015806635077-000151     806635006008766114676GIFT-WRAP C/PHANE ASSTD0000001000+00000876+00000+0001T   00000876+0000001316          1400 KU9112               1AZ
806635017806635304-001502     806635006003000035533FLWR SATIN R/BUD 55CM  0000001000+00000613+00000+0001T   00000613+0000001316          1400 KU9510               1AZ
806636000806636               806636               170213FX     1400+00000+FX0000020241+0000020241+000000000+000002835+0000023076+0000000000+I40000023076+0000000000+Z
806636001806636019-071601     806636006001023771995RIVER-STONES 1kg WHITE 0000001000+00002630+00000+0001T   00002630+0000001320          1400 KU9510               1AZ
806636002806636019-000049     806636006001023673732V/GLASS FOOTED 17X25CM 0000001000+00017542+00000+0001T   00017542+0000001320          1400 KU9510               1AZ
806636003806636112-116053     806636006006438002399TCS CARRIER BAG 38L    0000001000+00000069+00000+0001T   00000069+0000001320          1400 KU9090               1AZ
806637000806637               806637               170213FX     1400+00000+FX0000009677+0000009677+000000000+000001355+0000011030+0000000002+I20000000000+0000011030+Z
806637001806637018-005009     806637006001023725608MUG W/PLUSH-BEAR LOVE  0000002000+00003507+00000+0001T   00003507+0000001327          1400 KU9515               1AZ
806637002806637077-000407     806637006003000145096G/BAG PP 19X26X8CM     0000002000+00001314+00000+0001T   00001314+0000001327          1400 KU9112               1AZ
806637003806637112-116038     806637006009681820246TCS CARRIER BAG MIDI   0000001000+00000035+00000+0001T   00000035+0000001327          1400 KU9090               1AZ
806638000806638               806638               170213FX     1400+00000+FX0000032411+0000032411+000000000+000004550+0000036961+0000000000+I40000036961+0000000000+Z
806638001806638035-000023     806638006001023898944UMBRELLA WITH PL COVER 0000001000+00007893+00000+0001T   00007893+0000001402          1400 KU9205               1AZ
806638002806638027-009030     806638006002814400100DUSTPAN PL             0000001000+00001402+00000+0001T   00001402+0000001402          1400 KU9212               1AZ
806638003806638051-600657     806638006003000422340PLANTER W/TRAY 20x20x160000002000+00005262+00000+0001T   00005262+0000001402          1400 KU9820               1AZ
806638004806638003-001001     806638006001023722553ORN GARDEN OWL 10.5cm  0000001000+00003069+00000+0001T   00003069+0000001402          1400 KU9505               1AZ
806638005806638566-001228     806638006003000284153STICKERS CRYSTAL ASSTD 0000001000+00001753+00000+0001T   00001753+0000001402          1400 KU9130               1AZ
806638006806638566-001234     806638006003000217793STICKERS LASER ASSTD   0000001000+00001578+00000+0001T   00001578+0000001402          1400 KU9130               1AZ
806638007806638204-000002     806638006003000575794MEMO HOLDER CRYSTAL RND0000001000+00001753+00000+0001T   00001753+0000001402          1400 KU9300               1AZ
806638008806638112-116053     806638006006438002399TCS CARRIER BAG 38L    0000001000+00000069+00000+0001T   00000069+0000001402          1400 KU9090               1AZ
806638009806638080-000133     806638006003000535613CARD&ENV MINI ASTD DSGN0000010000+00000437+00000+0001T   00000437+0000001402          1400 KU9112               1AZ
806639000806639               806639               170213FX     1400+00000+FX0000010346+0000010346+000000000+000001450+0000011790+0000000006+I20000000000+0000011790+Z
806639001806639071-005669     806639006003000153268STAPLER MINI W/STAPLES 0000001000+00002630+00000+0001T   00002630+0000001404          1400 KU9130               1AZ
806639002806639007-000167     806639006009685857347SPIRAL NOTES A7 72PG   0000001000+00000350+00000+0001T   00000350+0000001404          1400 KU9130               1AZ
806639003806639007-000160     806639006009685857286NOTE-BOOK A5 SHORTHAND 0000001000+00001227+00000+0001T   00001227+0000001404          1400 KU9130               1AZ
806639004806639035-000021     806639006002596020206UMBRELLA GENTS         0000001000+00006139+00000+0001T   00006139+0000001404          1400 KU9205               1AZ
806640000806640               806640               170213FX     1400+00000+FX0000010779+0000010779+000000000+000001512+0000012290+0000000001+I20000000000+0000012290+Z
806640001806640007-000209     806640006001023582102NOTE STICKY FILE MARKER0000001000+00001314+00000+0001T   00001314+0000001414          1400 KU9130               1AZ
806640002806640071-001002     806640006003000217540PENCIL-SHARPNER DOUBLE 0000001000+00001578+00000+0001T   00001578+0000001414          1400 KU9130               1AZ
806640003806640071-003000     806640006003000543229PEN BALL PEN 3PCE MULTI0000001000+00000876+00000+0001T   00000876+0000001414          1400 KU9130               1AZ
806640004806640071-009836     806640006001023591067BACK-TO-SCHOOL SET     0000001000+00001490+00000+0001T   00001490+0000001414          1400 KU9130               1AZ
806640005806640071-000307     806640006003000535118RULER FLEXI 30cm       0000001000+00001490+00000+0001T   00001490+0000001414          1400 KU9130               1AZ
806640006806640007-000302     806640006009635830000BOOK H/COVER A4 96-PAGE0000002000+00001139+00000+0001T   00001139+0000001414          1400 KU9130               1AZ
806640007806640071-008229     806640006003000216017PENCIL-BAG ASTD COL A5 0000001000+00001753+00000+0001T   00001753+0000001414          1400 KU9130               1AZ
806641000806641               806641               170213FX     1400+00000+FX0000011402+0000011402+000000000+000001597+0000012999+0000000000+I40000012999+0000000000+Z
806641001806641035-000030     806641006002596030229UMBRELLA GOLF 16-RIB   0000001000+00011402+00000+0001T   00011402+0000001419          1400 KU9205               1AZ
806642000806642               806642               170213FX     1400+00000+FX0000005553+0000005553+000000000+000000779+0000006330+0000000002+I20000000000+0000006330+Z
806642001806642903-000087     806642006001704000161SWT SPECKLED-EGGS 50G  0000001000+00001139+00000+0001T   00001139+0000001424          1400 KU9150               1AZ
806642002806642903-000155     806642006009803374435SWT LOLLY I LUV U HEART0000001000+00000525+00000+0001T   00000525+0000001424          1400 KU9150               1AZ
806642003806642903-000194     806642006009826020616SWT CHOC RP LOLLY 25G  0000002000+00001314+00000+0001T   00001314+0000001424          1400 KU9150               1AZ
806642004806642903-003080     806642005907029004673SWT SNACK STIX CHOC 50g0000001000+00000876+00000+0001T   00000876+0000001424          1400 KU9150               1AZ
806642005806642007-000104     806642006009685854865BK COVER BRWN KRFT ROLL0000001000+00000350+00000+0001T   00000350+0000001424          1400 KU9130               1AZ
806642006806642112-116038     806642006009681820246TCS CARRIER BAG MIDI   0000001000+00000035+00000+0001T   00000035+0000001424          1400 KU9090               1AZ
806643000806643               806643               170213FX     1400+00000+FX0000001927+0000001927+000000000+000000271+0000002198+0000000000+I40000002198+0000000000+Z
806643001806643006-000812     806643006001023902832HAT CONE WITH TINSEL   0000001000+00000876+00000+0001T   00000876+0000001432          1400 KU9131               1AZ
806643002806643079-009702-D   806643008427973059354PAPER SIRIO A2 RED COL 0000001000+00001051+00000+0001T   00001051+0000001432          1400 KU9130               1AZ
806644000806644               806644               170213FX     1400+00000+FX0000008765+0000008765+000000000+000001230+0000009990+0000000005+I20000000000+0000009990+Z
806644001806644104-000010     806644006001023507822BASKET 30x23cm RECT.   0000005000+00001753+00000+0001T   00001753+0000001433          1400 KU9210               1AZ
806645000806645               806645               170213FX     1400+00000+FX0000006422+0000006422+000000000+000000904+0000007320+0000000006+I20000000000+0000007320+Z
806645001806645903-000151     806645006009803374411SWT SML RND R/BOW LOLLY0000004000+00000525+00000+0001T   00000525+0000001435          1400 KU9150               1AZ
806645002806645903-000216     806645006925925900966SWT MALLOW TWIST ERKO  0000001000+00000262+00000+0001T   00000262+0000001435          1400 KU9150               1AZ
806645003806645007-000537     806645000651728791017NOTE-PAD RND SMILE-FACE0000002000+00000700+00000+0001T   00000700+0000001435          1400 KU9130               1AZ
806645004806645903-000670     806645006009803358008SWT SHERBET RED LIPS   0000004000+00000218+00000+0001T   00000218+0000001435          1400 KU9150               1AZ
806645005806645369-001137     806645006003000555062VINYL 5.7cm THEMED DUCK0000001000+00001753+00000+0001T   00001753+0000001435          1400 KU9745               1AZ
806645006806645112-116038     806645006009681820246TCS CARRIER BAG MIDI   0000001000+00000035+00000+0001T   00000035+0000001435          1400 KU9090               1AZ
806646000806646               806646               170213FX     1400+00000+FX0000014538+0000014538+000000000+000002038+0000016570+0000000006+I20000000000+0000016570+Z
806646001806646080-000133     806646006003000535613CARD&ENV MINI ASTD DSGN0000001000+00000437+00000+0001T   00000437+0000001449          1400 KU9112               1AZ
806646002806646002-000746     806646006003000463305GRATER 3-ASSTD COLOURS 0000001000+00001753+00000+0001T   00001753+0000001449          1400 KU9300               1AZ
806646003806646049-004579     806646006002868010027DOORMAT COIR  40X60cm  0000001000+00012279+00000+0001T   00012279+0000001449          1400 KU9510               1AZ
806646004806646112-116053     806646006006438002399TCS CARRIER BAG 38L    0000001000+00000069+00000+0001T   00000069+0000001449          1400 KU9090               1AZ
806647000806647               806647               170213FX     1400+00000+FX0000001226+0000001226+000000000+000000172+0000001398+0000000000+I40000001398+0000000000+Z
806647001806647006-001000     806647006003000093779HELIUM BALLOON FILL    0000002000+00000613+00000+0001T   00000613+0000001452          1400 KU9131               1AZ
806648000806648               806648               170213FX     1400+00000+FX0000029797+0000029797+000000000+000004175+0000033972+0000000000+I40000033972+0000000000+Z
806648001806648072-020244     806648000694202207840PET BED COTTON 90x70cm 0000001000+00017542+00000+0001T   00017542+0000001458          1400 KU9870               1AZ
806648002806648072-020295     806648006003000451609PET CAT TOY MOUSE W/ZIP0000001000+00002630+00000+0001T   00002630+0000001458          1400 KU9870               1AZ
806648003806648072-020352     806648006003000561667DOG/CAT BOWL PL 19cm   0000001000+00003069+00000+0001T   00003069+0000001458          1400 KU9870               1AZ
806648004806648072-020274     806648006001023858443LITTER-LINERS-BAGS 10PC0000001000+00002630+00000+0001T   00002630+0000001458          1400 KU9870               1AZ
806648005806648072-020276     806648006001023858474CAT LITTER-PAN PL      0000001000+00002630+00000+0001T   00002630+0000001458          1400 KU9870               1AZ
806648006806648903-000518     806648006001704012782SWT STRAWS S/BERRY 100g0000001000+00001227+00000+0001T   00001227+0000001458          1400 KU9150               1AZ
806648007806648112-116053     806648006006438002399TCS CARRIER BAG 38L    0000001000+00000069+00000+0001T   00000069+0000001458          1400 KU9090               1AZ
806649000806649               806649               170213FX     1400+00000+FX0000002454+0000002454+000000000+000000344+0000002790+0000000008+I20000000000+0000002790+Z
806649001806649903-000518     806649006001704012782SWT STRAWS S/BERRY 100g0000002000+00001227+00000+0001T   00001227+0000001546          1400 KU9150               1AZ
806650000806650               806650               170213FX     1400+00000+FX0000003507+0000003507+000000000+000000491+0000003998+0000000000+I40000003998+0000000000+Z
806650001806650018-005009     806650006001023725608MUG W/PLUSH-BEAR LOVE  0000001000+00003507+00000+0001T   00003507+0000001547          1400 KU9515               1AZ
806651000806651               806651               170213FX     1400+00000+FX0000004384+0000004384+000000000+000000614+0000004998+0000000000+I40000004998+0000000000+Z
806651001806651079-013102     806651006003000019601ART+CRAFT DIY PIPE-CLNR0000002000+00002192+00000+0001T   00002192+0000001549          1400 KU9130               1AZ
806652000806652               806652               170213FX     1400+00000+FX0000007923+0000007923+000000000+000001111+0000009030+0000000004+I20000000000+0000009030+Z
806652001806652077-000452     806652006003000284986G/BAG METALLIC MED EMB 0000002000+00001490+00000+0001T   00001490+0000001558          1400 KU9112               1AZ
806652002806652016-006515-A   806652006003000461707S/JAR GLS W/HANDLE 500 0000002000+00001578+00000+0001T   00001753+0008191558          1400 KU9300               1AZ
806652003806652903-000494     806652006001704009911SWT GUMMY TEENY TEDDIES0000002000+00000876+00000+0001T   00000876+0000001558          1400 KU9150               1AZ
806652004806652112-116038     806652006009681820246TCS CARRIER BAG MIDI   0000001000+00000035+00000+0001T   00000035+0000001558          1400 KU9090               1AZ
806653000806653               806653               170213FX     1400+00000+FX0000001753+0000001753+000000000+000000246+0000001990+0000000009+I20000000000+0000001990+Z
806653001806653006-000120     806653006001023346889BALLOONS 10PC MIX COL  0000001000+00001753+00000+0001T   00001753+0000001601          1400 KU9131               1AZ
806654000806654               806654               170213FX     1400+00000+FX0000003104+0000003104+000000000+000000435+0000003530+0000000009+I20000000000+0000003530+Z
806654001806654031-000864-A   806654006001023798350P/FRAME MAHOGANY 10X15 0000001000+00003069+00000+0001T   00003069+0000001603          1400 KU9510               1AZ
806654002806654112-116038     806654006009681820246TCS CARRIER BAG MIDI   0000001000+00000035+00000+0001T   00000035+0000001603          1400 KU9090               1AZ
806655000806655               806655               170213FX     1400+00000+FX0000012279+0000012279+000000000+000001720+0000013990+0000000009+I20000000000+0000013990+Z
806655001806655368-000111     806655006001023780812PLUSH BEAR/DOG 29CM    0000001000+00012279+00000+0001T   00012279+0000001609          1400 KU9745               1AZ
806656000806656               806656               170213FX     1400+00000+FX0000004067+0000004067+000000000+000000571+0000004638+0000000000+I40000004638+0000000000+Z
806656001806656206-000450     806656006003000619863DRINKING JAR GLOBE     0000001000+00002630+00000+0001T   00002630+0000001611          1400 KU9321               1AZ
806656002806656304-001204     806656006001023737984FLOWER OCC. TEDDY/ROSES0000001000+00001402+00000+0001T   00001490+0006471611          1400 KU9510               1AZ
806656003806656112-116038     806656006009681820246TCS CARRIER BAG MIDI   0000001000+00000035+00000+0001T   00000035+0000001611          1400 KU9090               1AZ
806657000806657               806657               170213FX     1400+00000+FX0000003152+0000003152+000000000+000000444+0000003590+0000000006+I20000000000+0000003590+Z
806657001806657077-000383     806657006003000247943GIFT-BAG 11X14CM S/COL 0000004000+00000788+00000+0001T   00000788+0000001612          1400 KU9112               1AZ
806658000806658               806658               170213FX     1400+00000+FX0000017528+0000017528+000000000+000002460+0000019988+0000000000+I40000019988+0000000000+Z
806658001806658018-000210     806658006003000580095MUG DAILY TEXTS 4-ASST 0000001000+00001753+00000+0001T   00001753+0000001615          1400 KU9515               1AZ
806658002806658018-000108     806658006001023380265MUG NOVELTY ICON ASST  0000001000+00001753+00000+0001T   00001753+0000001615          1400 KU9515               1AZ
806658003806658018-000210     806658006003000580095MUG DAILY TEXTS 4-ASST 0000005000+00001753+00000+0001T   00001753+0000001615          1400 KU9515               1AZ
806658004806658903-000618     806658006003000672370SWT LOLLY RAINBOW GIANT0000001000+00001753+00000+0001T   00001753+0000001615          1400 KU9150               1AZ
806658005806658903-003080     806658005907029004673SWT SNACK STIX CHOC 50g0000004000+00000876+00000+0001T   00000876+0000001615          1400 KU9150               1AZ
806659000806659               806659               170213FX     1400+00000+FX0000003507+0000003507+000000000+000000491+0000003990+0000000008+I20000000000+0000003990+Z
806659001806659076-000018     806659006001023777836TWINE NYLON 50g 4PCE   0000001000+00003507+00000+0001T   00003507+0000001616          1400 KU9810               1AZ
806660000806660               806660               170213FX     1400+00000+FX0000003542+0000003542+000000000+000000496+0000004038+0000000000+I40000004038+0000000000+Z
806660001806660018-000136     806660006001023659026MUG OCC LOVE W/PLUSH   0000001000+00003507+00000+0001T   00003507+0000001617          1400 KU9515               1AZ
806660002806660112-116038     806660006009681820246TCS CARRIER BAG MIDI   0000001000+00000035+00000+0001T   00000035+0000001617          1400 KU9090               1AZ
806661000806661               806661               170213FX     1400+00000+FX0000003506+0000003506+000000000+000000492+0000003998+0000000000+I40000003998+0000000000+Z
806661001806661080-000113     806661006003000237449CARD&ENVLPE - LOVE     0000001000+00001753+00000+0001T   00001753+0000001619          1400 KU9112               1AZ
806661002806661077-000351     806661006003000139033GIFT-BAG 18X23CM E/D P 0000001000+00001753+00000+0001T   00001753+0000001619          1400 KU9112               1AZ
806662000806662               806662               170213FX     1400+00000+FX0000015202+0000015202+000000000+000002129+0000017331+0000000000+I40000017331+0000000000+Z
806662001806662018-005009     806662006001023725608MUG W/PLUSH-BEAR LOVE  0000004000+00003507+00000+0001T   00003507+0000001621          1400 KU9515               1AZ
806662002806662903-000087     806662006001704000161SWT SPECKLED-EGGS 50G  0000001000+00001139+00000+0001T   00001139+0000001621          1400 KU9150               1AZ
806662003806662112-116038     806662006009681820246TCS CARRIER BAG MIDI   0000001000+00000035+00000+0001T   00000035+0000001621          1400 KU9090               1AZ
806663000806663               806663               170213FX     1400+00000+FX0000007890+0000007890+000000000+000001107+0000008997+0000000000+I40000008997+0000000000+Z
806663001806663016-006425     806663006001023998170S/JAR GLS CLIP W/RIBBON0000003000+00002630+00000+0001T   00002630+0000001623          1400 KU9300               1AZ
806664000806664               806664               170213FX     1400+00000+FX0000001578+0000001578+000000000+000000221+0000001790+0000000009+I20000000000+0000001790+Z
806664001806664077-000315     806664006003000181186GIFT-BAG 20x28cm MATT  0000001000+00001578+00000+0001T   00001578+0000001625          1400 KU9112               1AZ
806665000806665               806665               170213FX     1400+00000+FX0000011522+0000011522+000000000+000001614+0000013130+0000000006+I20000000000+0000013130+Z
806665001806665047-002041     806665006003000332229PLUG-ADAPTOR 2x16A 2x5A0000001000+00003157+00000+0001T   00003157+0000001628          1400 KU9880               1AZ
806665002806665046-000012     806665006904708013062BATTERIES AA  CARD-OF-40000001000+00001314+00000+0001T   00001314+0000001628          1400 KU9312               1AZ
806665003806665039-000624     806665006003000054923C/SET 4PC PILLARS 5X8CM0000001000+00007016+00000+0001T   00007016+0000001628          1400 KU9510               1AZ
806665004806665112-116038     806665006009681820246TCS CARRIER BAG MIDI   0000001000+00000035+00000+0001T   00000035+0000001628          1400 KU9090               1AZ
806666000806666               806666               170213FX     1400+00000+FX0000001753+0000001753+000000000+000000246+0000001990+0000000009+I20000000000+0000001990+Z
806666001806666040-000120     806666006001023772695C/HOLDER GLS LANTERN   0000001000+00001753+00000+0001T   00002630+0008171630          1400 KU9510               1AZ
806667000806667               806667               170213FX     1400+00000+FX0000004420+0000004420+000000000+000000619+0000005039+0000000000+I40000005039+0000000000+Z
806667001806667018-030000     806667006003000421060MUG OCCASIONS LOVE 2PCE0000001000+00004385+00000+0001T   00004385+0000001631          1400 KU9515               1AZ
806667002806667112-116038     806667006009681820246TCS CARRIER BAG MIDI   0000001000+00000035+00000+0001T   00000035+0000001631          1400 KU9090               1AZ
806668000806668               806668               170213FX     1400+00000+FX0000009467+0000009467+000000000+000001328+0000010795+0000000000+I40000010795+0000000000+Z
806668001806668016-006514     806668006003000295432S/JAR EMBOSSED 500ML   0000001000+00001753+00000+0001T   00001753+0000001633          1400 KU9300               1AZ
806668002806668002-000740     806668006001023763945GRATER 4-WAY WHITE     0000001000+00002192+00000+0001T   00002192+0000001633          1400 KU9300               1AZ
806668003806668002-000884     806668006001023769589CAN-OPENER BUTTERFLY   0000001000+00002630+00000+0001T   00002630+0000001633          1400 KU9300               1AZ
806668004806668002-000800     806668006001023770660PEELER MTL/PL WHITE    0000001000+00001139+00000+0001T   00001139+0000001633          1400 KU9300               1AZ
806668005806668016-009616     8066680060030004416932PC GLS SHAKERS 3-ASSTD0000001000+00001753+00000+0001T   00001753+0000001633          1400 KU9300               1AZ
806669000806669               806669               170213FX     1400+00000+FX0000006576+0000006576+000000000+000000921+0000007490+0000000007+I20000000000+0000007490+Z
806669001806669563-000318-G   806669006003000404360SERVIETTES 33cm PINK   0000003000+00002192+00000+0001T   00002192+0000001634          1400 KU9214               1AZ
806670000806670               806670               170213FX     1400+00000+FX0000013886+0000013886+000000000+000001945+0000015830+0000000001+I20000000000+0000015830+Z
806670001806670018-005009     806670006001023725608MUG W/PLUSH-BEAR LOVE  0000001000+00003507+00000+0001T   00003507+0000001635          1400 KU9515               1AZ
806670002806670018-019000     806670006003000557288MUG OCC. LOVE JUMBO    0000001000+00005262+00000+0001T   00005262+0000001635          1400 KU9515               1AZ
806670003806670077-000310     806670006001023608635GIFT-BAG 18X23CM GLOSS 0000001000+00001314+00000+0001T   00001314+0000001635          1400 KU9112               1AZ
806670004806670080-000124     806670006003000297733CARD & ENV VALENTINES  0000001000+00001578+00000+0001T   00001578+0000001635          1400 KU9112               1AZ
806670005806670077-000310     806670006001023608635GIFT-BAG 18X23CM GLOSS 0000001000+00001314+00000+0001T   00001314+0000001635          1400 KU9112               1AZ
806670006806670077-000011-C   806670006001023808523TISSUE 10xSHTS RED     0000001000+00000876+00000+0001T   00000876+0000001635          1400 KU9112               1AZ
806670007806670112-116038     806670006009681820246TCS CARRIER BAG MIDI   0000001000+00000035+00000+0001T   00000035+0000001635          1400 KU9090               1AZ
806671000806671               806671               170213FX     1400+00000+FX0000032599+0000032599+000000000+000004568+0000037160+0000000007+I20000000000+0000037160+Z
806671001806671301-000013     806671006001023781604ORN SENTIMENT STONE 4-A0000001000+00006139+00000+0001T   00006139+0000001640          1400 KU9505               1AZ
806671002806671077-000321     806671006001023677501GIFT-BAG 11X14CM E/D FL0000001000+00000613+00000+0001T   00000613+0000001640          1400 KU9112               1AZ
806671003806671077-000470     806671006003000330171G-BAG DESGN SML 11X14CM0000001000+00001314+00000+0001T   00001314+0000001640          1400 KU9112               1AZ
806671004806671301-000013     806671006001023781604ORN SENTIMENT STONE 4-A0000001000+00006139+00000+0001T   00006139+0000001640          1400 KU9505               1AZ
806671005806671565-000889     806671006003000626953NOVELTY SPACE BALLOONS 0000001000+00001753+00000+0001T   00001753+0000001640          1400 KU9745               1AZ
806671006806671018-050000     806671006003000412679MUG OCC LOVE TWIN BEAR 0000002000+00006139+00000+0001T   00006139+0000001640          1400 KU9515               1AZ
806671007806671077-000299     806671006003000395576G/BAG 32x25cm LRG LOVE 0000002000+00001490+00000+0001T   00001490+0000001640          1400 KU9112               1AZ
806671008806671112-116053     806671006006438002399TCS CARRIER BAG 38L    0000001000+00000069+00000+0001T   00000069+0000001640          1400 KU9090               1AZ
806671009806671089-000098     806671006003000677443KEY CHAIN OPENER ASSTD 0000001000+00001314+00000+0001T   00001314+0000001640          1400 KU9205               1AZ
806672000806672               806672               170213FX     1400+00000+FX0000000437+0000000437+000000000+000000062+0000000490+0000000009+I20000000000+0000000490+Z
806672001806672007-000193     806672006009635831731BK JOTTER A4 72-PG F/M 0000001000+00000437+00000+0001T   00000437+0000001642          1400 KU9130               1AZ
806673000806673               806673               170213FX     1400+00000+FX0000001578+0000001578+000000000+000000221+0000001790+0000000009+I20000000000+0000001790+Z
806673001806673018-000127     806673006001023380289MUG OCC STRAIGHT LOVE  0000001000+00001578+00000+0001T   00001753+0006471644          1400 KU9515               1AZ
806674000806674               806674               170213FX     1400+00000+FX0000000874+0000000874+000000000+000000124+0000000990+0000000008+I20000000000+0000000990+Z
806674001806674080-000133     806674006003000535613CARD&ENV MINI ASTD DSGN0000002000+00000437+00000+0001T   00000437+0000001646          1400 KU9112               1AZ
806675000806675               806675               170213FX     1400+00000+FX0000004734+0000004734+000000000+000000663+0000005397+0000000000+I40000005397+0000000000+Z
806675001806675080-000124     806675006003000297733CARD & ENV VALENTINES  0000003000+00001578+00000+0001T   00001578+0000001648          1400 KU9112               1AZ
806676000806676               806676               170213FX     1400+00000+FX0000007062+0000007062+000000000+000000989+0000008051+0000000000+I40000008051+0000000000+Z
806676001806676036-000160     806676006001023559562COATHANGERS 12PCE      0000002000+00003507+00000+0001T   00003507+0000001651          1400 KU9212               1AZ
806676002806676112-116069     806676006009681820277TCS CARRIER BAG JUMBO  0000001000+00000048+00000+0001T   00000048+0000001651          1400 KU9090               1AZ
806677000806677               806677               170213FX     1400+00000+FX0000018154+0000018154+000000000+000002543+0000020697+0000000000+I40000020697+0000000000+Z
806677001806677368-000637     806677006001023874092PLUSH BEAR SLEEPING LOV0000001000+00011402+00000+0001T   00012279+0006471653          1400 KU9745               1AZ
806677002806677077-000299     806677006003000395576G/BAG 32x25cm LRG LOVE 0000001000+00001490+00000+0001T   00001490+0000001653          1400 KU9112               1AZ
806677003806677031-006541     806677006001023695062P/FRAME COLLAGE PL ASST0000001000+00005262+00000+0001T   00005262+0000001653          1400 KU9510               1AZ
806678000806678               806678               170213FX     1400+00000+FX0000002454+0000002454+000000000+000000344+0000002790+0000000008+I20000000000+0000002790+Z
806678001806678077-000245     806678006001023759214GIFT-RIBBON METALLICx2 0000002000+00001227+00000+0001T   00001227+0000001654          1400 KU9112               1AZ
806679000806679               806679               170213FX     1400+00000+FX0000003542+0000003542+000000000+000000496+0000004030+0000000008+I20000000000+0000004030+Z
806679001806679018-000136     806679006001023659026MUG OCC LOVE W/PLUSH   0000001000+00003507+00000+0001T   00003507+0000001655          1400 KU9515               1AZ
806679002806679112-116038     806679006009681820246TCS CARRIER BAG MIDI   0000001000+00000035+00000+0001T   00000035+0000001655          1400 KU9090               1AZ
806680000806680               806680               170213FX     1400+00000+FX0000001226+0000001226+000000000+000000172+0000001390+0000000008+I20000000000+0000001390+Z
806680001806680006-001000     806680006003000093779HELIUM BALLOON FILL    0000002000+00000613+00000+0001T   00000613+0000001656          1400 KU9131               1AZ
806681000806681               806681               170213FX     1400+00000+FX0000005961+0000005961+000000000+000000836+0000006797+0000000000+I40000006797+0000000000+Z
806681001806681080-000124     806681006003000297733CARD & ENV VALENTINES  0000001000+00001578+00000+0001T   00001578+0000001659          1400 KU9112               1AZ
806681002806681031-000005     806681006001023479327P/FRAME GLS MOTHER     0000001000+00002630+00000+0001T   00003507+0008171659          1400 KU9510               1AZ
806681003806681077-000471     806681006003000330096G-BAG DESGN MED 18X23CM0000001000+00001753+00000+0001T   00001753+0000001659          1400 KU9112               1AZ
806682000806682               806682               170213FX     1400+00000+FX0000005049+0000005049+000000000+000000718+0000005767+0000000000+I40000005767+0000000000+Z
806682001806682903-000670     806682006009803358008SWT SHERBET RED LIPS   0000023000+00000218+00000+0001T   00000218+0000001716          1400 KU9150               1AZ
806682002806682112-116038     806682006009681820246TCS CARRIER BAG MIDI   0000001000+00000035+00000+0001T   00000035+0000001716          1400 KU9090               1AZ
806683000806683               806683               170213FX     1400+00000+FX0000007060+0000007060+000000000+000000991+0000008051+0000000000+I40000008051+0000000000+Z
806683001806683200-000211     806683006003000671847BAKING-PANS ALUM-FOIL  0000004000+00001753+00000+0001T   00001753+0000001722          1400 KU9214               1AZ
806683002806683112-116069     806683006009681820277TCS CARRIER BAG JUMBO  0000001000+00000048+00000+0001T   00000048+0000001722          1400 KU9090               1AZ
806684000806684               806684               170213FX     1400+00000+FX0000004385+0000004385+000000000+000000614+0000004990+0000000009+I20000000000+0000004990+Z
806684001806684029-000009     806684006001023809575BUCKET GALV  2L        0000001000+00004385+00000+0001T   00004385+0000001722          1400 KU9510               1AZ
806685000806685               806685               170213FX     1400+00000+FX0000024163+0000024163+000000000+000003385+0000027548+0000000000+I40000027548+0000000000+Z
806685001806685018-030000     806685006003000421060MUG OCCASIONS LOVE 2PCE0000002000+00004385+00000+0001T   00004385+0000001725          1400 KU9515               1AZ
806685002806685301-085001     806685006003000297610ORN WATERBALL LOVE ASST0000001000+00004823+00000+0001T   00004823+0000001725          1400 KU9505               1AZ
806685003806685563-000318-L   806685006003000407088SERVIETTES 33cm RED    0000002000+00002192+00000+0001T   00002192+0000001725          1400 KU9214               1AZ
806685004806685103-000072     806685006001023618238BASKET RECT 25x16x6cm  0000002000+00003069+00000+0001T   00003069+0000001725          1400 KU9300               1AZ
806685005806685112-116069     806685006009681820277TCS CARRIER BAG JUMBO  0000001000+00000048+00000+0001T   00000048+0000001725          1400 KU9090               1AZ
806686000806686               806686               170213FX     1400+00000+FX0000001490+0000001490+000000000+000000209+0000001690+0000000009+I20000000000+0000001690+Z
806686001806686077-000299     806686006003000395576G/BAG 32x25cm LRG LOVE 0000001000+00001490+00000+0001T   00001490+0000001726          1400 KU9112               1AZ
806687000806687               806687               170213FX     1400+00000+FX0000000700+0000000700+000000000+000000098+0000000790+0000000008+I20000000000+0000000790+Z
806687001806687018-000177     806687006001023797513MUG MINI LOVE ASSTD    0000001000+00000700+00000+0001T   00000700+0000001727          1400 KU9515               1AZ
806688000806688               806688               170213FX     1400+00000+FX0000004420+0000004420+000000000+000000619+0000005030+0000000009+I20000000000+0000005030+Z
806688001806688031-080508     806688006001023802415P/FRAME PL 22X11CM LOVE0000001000+00004385+00000+0001T   00004385+0000001728          1400 KU9510               1AZ
806688002806688112-116038     806688006009681820246TCS CARRIER BAG MIDI   0000001000+00000035+00000+0001T   00000035+0000001728          1400 KU9090               1AZ
806689000806689               806689               170213FX     1400+00000+FX0000003540+0000003540+000000000+000000497+0000004030+0000000007+I20000000000+0000004030+Z
806689001806689077-000011-C   806689006001023808523TISSUE 10xSHTS RED     0000001000+00000876+00000+0001T   00000876+0000001729          1400 KU9112               1AZ
806689002806689077-000381     806689006003000247707GIFT-BAG 25X32CM S/COL 0000001000+00001753+00000+0001T   00001753+0000001729          1400 KU9112               1AZ
806689003806689903-000521     806689006001704009652SWT GUMMY SOFT GUMS    0000001000+00000876+00000+0001T   00000876+0000001729          1400 KU9150               1AZ
806689004806689112-116038     806689006009681820246TCS CARRIER BAG MIDI   0000001000+00000035+00000+0001T   00000035+0000001729          1400 KU9090               1AZ
806690000806690               806690               170213FX     1400+00000+FX0000006401+0000006401+000000000+000000897+0000007298+0000000000+I40000007298+0000000000+Z
806690001806690077-000235     806690006003000160211GIFT-RIBBON ROLL METALC0000001000+00002630+00000+0001T   00002630+0000001731          1400 KU9112               1AZ
806690002806690105-000605     806690006005387000517STORAGE CONTAINRS 250ml0000001000+00003771+00000+0001T   00003771+0000001731          1400 KU9210               1AZ
806691000806691               806691               170213FX     1400+00000+FX0000001227+0000001227+000000000+000000172+0000001390+0000000009+I20000000000+0000001390+Z
806691001806691007-000206     806691006009635830215X/PAD 80-SHEETS PUNCHED0000001000+00001227+00000+0001T   00001227+0000001732          1400 KU9130               1AZ
806692000806692               806692               170213FX     1400+00000+FX0000001753+0000001753+000000000+000000246+0000001990+0000000009+I20000000000+0000001990+Z
806692001806692071-081112     806692006936198404945CORRECTION TAPE 10mx5mm0000001000+00001753+00000+0001T   00001753+0000001732          1400 KU9130               1AZ
806693000806693               806693               170213FX     1400+00000+FX0000011607+0000011607+000000000+000001628+0000013230+0000000005+I20000000000+0000013230+Z
806693001806693018-000055     806693006003000086498SOUP-MUG CER. SOLD COL.0000002000+00002630+00000+0001T   00002630+0000001749          1400 KU9515               1AZ
806693002806693903-000095     806693006001704011495SWT SPECKLED-EGGS 100G 0000003000+00002104+00000+0001T   00002104+0000001749          1400 KU9150               1AZ
806693004806693112-116038     806693006009681820246TCS CARRIER BAG MIDI   0000001000+00000035+00000+0001T   00000035+0000001749          1400 KU9090               1AZ
806694000806694               806694               170213FX     1400+00000+FX0000012178+0000012178+000000000+000001708+0000013886+0000000000+I40000013886+0000000000+Z
806694001806694903-000183     806694006003000451043SWT LB HEART LOLLY     0000001000+00000393+00000+0001T   00000393+0000001751          1400 KU9150               1AZ
806694002806694903-000090     806694006009826020821SWT GS CHOCO COINS 60g 0000001000+00002104+00000+0001T   00002104+0000001751          1400 KU9150               1AZ
806694003806694301-085007     806694006003000673698ORN OCC. LOVE S/PLAQUE 0000001000+00007893+00000+0001T   00007893+0000001751          1400 KU9505               1AZ
806694004806694077-000471     806694006003000330096G-BAG DESGN MED 18X23CM0000001000+00001753+00000+0001T   00001753+0000001751          1400 KU9112               1AZ
806694005806694112-116038     806694006009681820246TCS CARRIER BAG MIDI   0000001000+00000035+00000+0001T   00000035+0000001751          1400 KU9090               1AZ
806695000806695               806695               170213FX     1400+00000+FX0000010655+0000010655+000000000+000001494+0000012149+0000000000+I40000012149+0000000000+Z
806695001806695077-000299     806695006003000395576G/BAG 32x25cm LRG LOVE 0000001000+00001490+00000+0001T   00001490+0000001753          1400 KU9112               1AZ
806695002806695903-000518     806695006001704012782SWT STRAWS S/BERRY 100g0000001000+00001227+00000+0001T   00001227+0000001753          1400 KU9150               1AZ
806695003806695903-000211     806695006002099001238SWT GS MALLOW ICE CREAM0000001000+00001753+00000+0001T   00001753+0000001753          1400 KU9150               1AZ
806695004806695018-005009     806695006001023725608MUG W/PLUSH-BEAR LOVE  0000001000+00003507+00000+0001T   00003507+0000001753          1400 KU9515               1AZ
806695005806695112-116069     806695006009681820277TCS CARRIER BAG JUMBO  0000001000+00000048+00000+0001T   00000048+0000001753          1400 KU9090               1AZ
806695006806695019-000129     806695006003000456017T/PLATE W/SWING HANDLE 0000001000+00002630+00000+0001T   00002630+0000001753          1400 KU9510               1AZ
806696000806696               806696               170213FX     1400+00000+FX0000022324+0000022324+000000000+000003127+0000025451+0000000000+I40000025451+0000000000+Z
806696001806696903-000095     806696006001704011495SWT SPECKLED-EGGS 100G 0000001000+00002104+00000+0001T   00002104+0000001755          1400 KU9150               1AZ
806696002806696001-000415     806696006003000461370BEER-MUG GLASS DAD     0000001000+00004385+00000+0001T   00004385+0000001755          1400 KU9515               1AZ
806696003806696001-000410     806696006003000431175BEER-TUMBLER GLASS DAD 0000001000+00011402+00000+0001T   00011402+0000001755          1400 KU9515               1AZ
806696004806696368-000001     806696006003000097982Plush Bear 25cm        0000001000+00004385+00000+0001T   00004385+0000001755          1400 KU9745               1AZ
806696005806696112-116069     806696006009681820277TCS CARRIER BAG JUMBO  0000001000+00000048+00000+0001T   00000048+0000001755          1400 KU9090               1AZ
806697000806697               806697               170213FX     1400+00000+FX0000002104+0000002104+000000000+000000295+0000002390+0000000009+I20000000000+0000002390+Z
806697001806697903-000095     806697006001704011495SWT SPECKLED-EGGS 100G 0000001000+00002104+00000+0001T   00002104+0000001756          1400 KU9150               1AZ
806698000806698               806698               170213FX     1400+00000+FX0000005262+0000005262+000000000+000000737+0000005990+0000000009+I20000000000+0000005990+Z
806698001806698103-000083     806698006003000638062BAMBOO BASKET 27x20x8cm0000001000+00005262+00000+0001T   00005262+0000001757          1400 KU9300               1AZ
A17021300                                          08355586FXSLAVE 1                       KU91IC
C80663500                                          170213FX077-000115     13100170SLAVE 1     KU91IC0000000000+0000000000+0090000001000+
C80663501                                          170213FX304-001011     13104021SLAVE 1     KU91IC0000000000+0000000000+0160000001000+
C80669300                                          170213FX077-000357     17490696SLAVE 1     KU91IC0000000000+0000000000+0030000001000+
M17021301                              IT          FXATT:IT                                                                                          LAST TILL SLIP NO 806698                                                                        THANKS
M17021302                              SHIEHAAM    FXATT:SHIEHAAM                                                                                    SLAVE 01 Z READING R8415.73                     TOTAL CASH BANKING R3585.30                     DT CARDS R0.00                                  CT CARDS R4830.43
M17021391                              CASH        FXSLAVE 1                       Z-REPORT No.   539TOTAL (Sales - Refunds)           8415.73       CASH TO BE BANKED                 3585.30       DEBIT CARDS                          0.00       CREDIT CARDS                      4830.43       Z-READING                         8415.73       AIRTIME DEBIT CARD SALES             0.00       AIRTIME CARD SALES                   0.00       OVERS/UNDERS                         0.00       AIRTIME CASH SALES                   0.00       GIFT CARDS                           0.00       GIFT CARD CASH SALES                 0.00       T O T A L  CASH PAYOUTS              0.00                                                                                                                                                                                                                                                                                                                                                      Z
M17021392                              CASH        FXABSENT                                                                                                                                                                                          ANNUAL LEAVE                                                                                                                                                                                    DAY OFF                                                                                                                                                                                         COMMENTS                                                                                                                                                                                                                                                                                                                                                                                       Z
Y17021300                                          FX00000000739691+000095
ZFX17021321073 SLAVE 1      SALES DATA                     NEXT INVOICE NO.  806699 0539
F093163490-048257         1612280946510000031ICSLAVE 1
X FX Slave 1 First invoice 806603 170213 Last invoice 806698 170213 Next invoice 806699 Total number of records 000000357 clbackup completed 21:07:03
