905833000905833               905833               170213FX     1400+00000+FX0000007008+0000007008+000000000+000000986+0000007990+0000000004+I20000000000+0000007990+Z
905833001905833079-009702-B   905833008427973059491PAPER SIRIO A2 WHITE   0000005000+00001051+00000+0001T   00001051+0000000937          1400 YH5130               2BZ
905833002905833006-000120     905833006001023346889BALLOONS 10PC MIX COL  0000001000+00001753+00000+0001T   00001753+0000000937          1400 YH5131               2BZ
905834000905834               905834               170213FX     1400+00000+FX0000002102+0000002102+000000000+000000295+0000002390+0000000007+I20000000000+0000002390+Z
905834001905834566-000202     905834006003000443567STCKRS SPARKLE RIM ASST0000001000+00001314+00000+0001T   00001314+0000000946          1400 YH5130               2BZ
905834002905834566-000858     905834006001023760975STCKRS G/OUTLINE ASSTD 0000001000+00000788+00000+0001T   00000788+0000000946          1400 YH5130               2BZ
905835000905835               905835               170213FX     1400+00000+FX0000003503+0000003503+000000000+000000493+0000003990+0000000006+I20000000000+0000003990+Z
905835001905835903-000012     905835006002099007308SWT MALLOW S/BERRY     0000002000+00000437+00000+0001T   00000437+0000001006          1400 YH5150               2BZ
905835002905835566-000066     905835006003000283675STICKERS GLITTER 25PCS 0000001000+00001753+00000+0001T   00001753+0000001006          1400 YH5130               2BZ
905835003905835077-000011-D   905835006001023808554TISSUE-WRAP WHITE 10PCE0000001000+00000876+00000+0001T   00000876+0000001006          1400 YH5112               2BZ
905836000905836               905836               170213FX     1400+00000+FX0000005260+0000005260+000000000+000000737+0000005990+0000000007+I20000000000+0000005990+Z
905836001905836039-001023     905836006003000466337CANDLE TEA-LITE METALIC0000001000+00001753+00000+0001T   00001753+0000001007          1400 YH5510               2BZ
905836002905836018-005009     905836006001023725608MUG W/PLUSH-BEAR LOVE  0000001000+00003507+00000+0001T   00003507+0000001007          1400 YH5515               2BZ
905837000905837               905837               170213FX     1400+00000+FX0000001490+0000001490+000000000+000000209+0000001690+0000000009+I20000000000+0000001690+Z
905837001905837077-000299     905837006003000395576G/BAG 32x25cm LRG LOVE 0000001000+00001490+00000+0001T   00001490+0000001015          1400 YH5112               2BZ
905838000905838               905838               170213FX     1400+00000+FX0000003507+0000003507+000000000+000000491+0000003990+0000000008+I20000000000+0000003990+Z
905838001905838106-001110     905838006001023857880SPORTS-BOTTLES SET-OF-20000001000+00003507+00000+0001T   00003507+0000001016          1400 YH5210               2BZ
905839000905839               905839               170213FX     1400+00000+FX0000018185+0000018185+000000000+000002549+0000020734+0000000000+I40000020734+0000000000+Z
905839001905839159-080352     905839006916920733314HOOKS 3PCE             0000001000+00001490+00000+0001T   00001490+0000001021          1400 YH5200               2BZ
905839002905839563-000317-H   905839006001023776358SERVIETTE DOTS+STRIPES 0000001000+00002630+00000+0001T   00002630+0000001021          1400 YH5214               2BZ
905839003905839563-000317-F   905839006003000638314SERVIETTE 2PLY 33cm AST0000001000+00002630+00000+0001T   00002630+0000001021          1400 YH5214               2BZ
905839004905839563-000317-G   905839006001023776341SERVIETTES BRIGHT ASSTD0000001000+00002630+00000+0001T   00002630+0000001021          1400 YH5214               2BZ
905839005905839112-116038     905839006009681820246TCS CARRIER BAG MIDI   0000001000+00000035+00000+0001T   00000035+0000001021          1400 YH5090               2BZ
905839006905839024-000003     905839006001023462206S/BURNER COVERS ASSTD  0000002000+00004385+00000+0001T   00004385+0000001021          1400 YH5300               2BZ
905840000905840               905840               170213FX     1400+00000+FX0000010522+0000010522+000000000+000001475+0000011990+0000000007+I20000000000+0000011990+Z
905840001905840565-000043     905840006003000109562NOVELTY BALL FUNNY FACE0000002000+00001753+00000+0001T   00001753+0000001022          1400 YH5745               2BZ
905840002905840027-000207     905840006003000016570BROOM RUBBER BRISTLES  0000001000+00007016+00000+0001T   00007016+0000001022          1400 YH5212               2BZ
905841000905841               905841               170213FX     1400+00000+FX0000000918+0000000918+000000000+000000129+0000001040+0000000007+I20000000000+0000001040+Z
905841001905841079-009700-D   905841006003000545711PAPER SIRIO A4 RED COL.0000003000+00000306+00000+0001T   00000306+0000001030          1400 YH5130               2BZ
905842000905842               905842               170213FX     1400+00000+FX0000017395+0000017395+000000000+000002437+0000019830+0000000002+I20000000000+0000019830+Z
905842001905842162-092941     905842006001492929415#TAG KIDS BEADED WR&ER 0000001000+00003507+00000+0001T   00003507+0000001032          1400 YH5160               2BZ
905842002905842039-082106     905842006001023847348C/VOTIVE 8PC VANILLA   0000001000+00005262+00000+0001T   00005262+0000001032          1400 YH5510               2BZ
905842003905842040-000212     905842006003000112418C/HOLDER RND T-LITE 6CM0000002000+00001227+00000+0001T   00001227+0000001032          1400 YH5510               2BZ
905842004905842040-000208     905842006003000673599C/HOLDER GLS COL. 5.5CM0000002000+00000876+00000+0001T   00000876+0000001032          1400 YH5510               2BZ
905842005905842039-080944     905842006001023758897C/PILLAR RND WHT 12X7CM0000001000+00004385+00000+0001T   00004385+0000001032          1400 YH5510               2BZ
905842006905842112-116038     905842006009681820246TCS CARRIER BAG MIDI   0000001000+00000035+00000+0001T   00000035+0000001032          1400 YH5090               2BZ
905843000905843               905843               170213FX     1400+00000+FX0000002015+0000002015+000000000+000000283+0000002290+0000000008+I20000000000+0000002290+Z
905843001905843002-021040     905843006001023812216PARTY-PICKS 100PCE     0000001000+00000525+00000+0001T   00000525+0000001036          1400 YH5300               2BZ
905843002905843039-000108     905843006001023524034TEA-LITE CANDLES 8PCE  0000001000+00001490+00000+0001T   00001490+0000001036          1400 YH5510               2BZ
905844000905844               905844               170213FX     1400+00000+FX0000001094+0000001094+000000000+000000154+0000001240+0000000008+I20000000000+0000001240+Z
905844001905844565-000044     905844006003000128280BARREL OF SLIME 100g   0000001000+00000613+00000+0001T   00000613+0000001042          1400 YH5745               2BZ
905844002905844071-000012     905844006001177101006CHALK COLOUR 12PCE     0000001000+00000481+00000+0001T   00000481+0000001042          1400 YH5130               2BZ
905845000905845               905845               170213FX     1400+00000+FX0000002980+0000002980+000000000+000000418+0000003390+0000000008+I20000000000+0000003390+Z
905845001905845037-050016     905845006001023674128ASHTRAY 9CM RND CLUB   0000001000+00001753+00000+0001T   00001753+0000001045          1400 YH5515               2BZ
905845002905845027-000082     905845006001023760258SCOURERS ROUND   PACK-60000001000+00001227+00000+0001T   00001227+0000001045          1400 YH5212               2BZ
905846000905846               905846               170213FX     1400+00000+FX0000035115+0000035115+000000000+000004925+0000040040+0000000000+I40000040040+0000000000+Z
905846001905846140-006004     905846006001023628077FLY-SWATTER RUBBER     0000001000+00001139+00000+0001T   00001139+0000001100          1400 YH5830               2BZ
905846002905846027-783000     905846006001023874641SCOURERS RAINBOW 5PCE  0000001000+00001753+00000+0001T   00001753+0000001100          1400 YH5212               2BZ
905846003905846056-005719     905846006001023820983CAR AIR-FRESHENER ASSTD0000001000+00002192+00000+0001T   00002192+0000001100          1400 YH5860               2BZ
905846004905846002-000117     905846006001023110879EGG POACHERS 2PC       0000001000+00003069+00000+0001T   00003069+0000001100          1400 YH5300               2BZ
905846005905846056-005752     905846006003000491674CAR AIR-FRESH FISH ASST0000001000+00001753+00000+0001T   00001753+0000001100          1400 YH5860               2BZ
905846006905846220-005006     905846006003000566396ELOFF SODA SPOONS 4PC  0000001000+00002630+00000+0001T   00002630+0000001100          1400 YH5300               2BZ
905846007905846112-116069     905846006009681820277TCS CARRIER BAG JUMBO  0000001000+00000048+00000+0001T   00000048+0000001100          1400 YH5090               2BZ
905846008905846002-000094     905846006001023489753PIZZA-CUTTER           0000001000+00002630+00000+0001T   00002630+0000001100          1400 YH5300               2BZ
905846009905846200-000042     905846006001023868886BAG-SEALERS 10PCE      0000001000+00002630+00000+0001T   00002630+0000001100          1400 YH5214               2BZ
905846010905846563-000317-A   905846006001023776167SERVIETTES 20PK PATTERN0000001000+00002630+00000+0001T   00002630+0000001100          1400 YH5214               2BZ
905846011905846306-001001     905846006003000519804FIRSTAID PLASTER FABRIC0000001000+00002630+00000+0001T   00002630+0000001100          1400 YH5200               2BZ
905846012905846206-000120     905846006003000628308PEELER CARROT SHARPENER0000001000+00001753+00000+0001T   00001753+0000001100          1400 YH5321               2BZ
905846013905846089-000145     905846006003000576616K/CHAIN LIGHT W/COMPASS0000001000+00002630+00000+0001T   00003069+0008121100          1400 YH5205               2BZ
905846014905846039-000108     905846006001023524034TEA-LITE CANDLES 8PCE  0000001000+00001490+00000+0001T   00001490+0000001100          1400 YH5510               2BZ
905846015905846078-000025     905846008887013700064SUPERGLUE 3g 1PCE CARD 0000001000+00000876+00000+0001T   00000876+0000001100          1400 YH5810               2BZ
905846016905846003-008089     905846006003000244904O/GNOME POLY W/TOOLS   0000001000+00005262+00000+0001T   00005262+0000001100          1400 YH5505               2BZ
905847000905847               905847               170213FX     1400+00000+FX0000015254+0000015254+000000000+000002140+0000017394+0000000000+I40000017394+0000000000+Z
905847001905847006-006013     905847006001023735195PARTY-SPRAY STRING     0000002000+00002630+00000+0001T   00002630+0000001104          1400 YH5131               2BZ
905847002905847079-006495     905847006003000159987GLITTER SHAKERS 6PK    0000001000+00002630+00000+0001T   00002630+0000001104          1400 YH5130               2BZ
905847003905847079-011107     905847006001023537317ART+CRAFT SET          0000002000+00002367+00000+0001T   00002367+0000001104          1400 YH5130               2BZ
905847004905847006-006013     905847006001023735195PARTY-SPRAY STRING     0000001000+00002630+00000+0001T   00002630+0000001104          1400 YH5131               2BZ
905848000905848               905848               170213FX     1400+00000+FX0000006837+0000006837+000000000+000000958+0000007790+0000000005+I20000000000+0000007790+Z
905848001905848006-000190     905848006003000685530BALLOONS LOVE 81x91cm  0000001000+00004385+00000+0001T   00004385+0000001206          1400 YH5131               2BZ
905848003905848006-001000     905848006003000093779HELIUM BALLOON FILL    0000004000+00000613+00000+0001T   00000613+0000001206          1400 YH5131               2BZ
905849000905849               905849               170213FX     1400+00000+FX0000002978+0000002978+000000000+000000418+0000003396+0000000000+I40000003396+0000000000+Z
905849001905849077-000150-D   905849006003000054343GIFT-WRAP CELLPHANE CLR0000003000+00000876+00000+0001T   00000876+0000001208          1400 YH5112               2BZ
905849002905849007-000104     905849006009685854865BK COVER BRWN KRFT ROLL0000001000+00000350+00000+0001T   00000350+0000001208          1400 YH5130               2BZ
905850000905850               905850               170213FX     1400+00000+FX0000004385+0000004385+000000000+000000614+0000004990+0000000009+I20000000000+0000004990+Z
905850001905850006-000190     905850006003000685530BALLOONS LOVE 81x91cm  0000001000+00004385+00000+0001T   00004385+0000001209          1400 YH5131               2BZ
905851000905851               905851               170213FX     1400+00000+FX0000006218+0000006218+000000000+000000873+0000007090+0000000001+I20000000000+0000007090+Z
905851001905851903-000012     905851006002099007308SWT MALLOW S/BERRY     0000003000+00000437+00000+0001T   00000437+0000001210          1400 YH5150               2BZ
905851002905851018-000177     905851006001023797513MUG MINI LOVE ASSTD    0000002000+00000700+00000+0001T   00000700+0000001210          1400 YH5515               2BZ
905851003905851108-001216     905851006003000010882SALAD BOWL PL 4.9L     0000001000+00003507+00000+0001T   00003507+0000001210          1400 YH5210               2BZ
905852000905852               905852               170213FX     1400+00000+FX0000001490+0000001490+000000000+000000209+0000001699+0000000000+I40000001699+0000000000+Z
905852001905852071-005214     905852006003000152544CELLOTAPE SUPER REFILL 0000001000+00001490+00000+0001T   00001490+0000001212          1400 YH5130               2BZ
905853000905853               905853               170213FX     1400+00000+FX0000010587+0000010587+000000000+000001486+0000012070+0000000003+I20000000000+0000012070+Z
905853001905853200-003024     905853006001023657299REFUSE BAGS 20PCE BLACK0000006000+00001753+00000+0001T   00001753+0000001213          1400 YH5214               2BZ
905853002905853112-116053     905853006006438002399TCS CARRIER BAG 38L    0000001000+00000069+00000+0001T   00000069+0000001213          1400 YH5090               2BZ
905854000905854               905854               170213FX     1400+00000+FX0000010330+0000010330+000000000+000001447+0000011770+0000000007+I20000000000+0000011770+Z
905854001905854077-000299     905854006003000395576G/BAG 32x25cm LRG LOVE 0000001000+00001490+00000+0001T   00001490+0000001216          1400 YH5112               2BZ
905854002905854001-091415     905854006003000329113W/GLS OCC. LOVE 2PC 2800000001000+00008771+00000+0001T   00009648+0006471216          1400 YH5515               2BZ
905854003905854112-116053     905854006006438002399TCS CARRIER BAG 38L    0000001000+00000069+00000+0001T   00000069+0000001216          1400 YH5090               2BZ
905855000905855               905855               170213FX     1400+00000+FX0000003904+0000003904+000000000+000000548+0000004452+0000000000+I40000004452+0000000000+Z
905855001905855566-001234     905855006003000217793STICKERS LASER ASSTD   0000001000+00001578+00000+0001T   00001578+0000001219          1400 YH5130               2BZ
905855002905855077-000299     905855006003000395576G/BAG 32x25cm LRG LOVE 0000001000+00001490+00000+0001T   00001490+0000001219          1400 YH5112               2BZ
905855003905855077-000010-C   905855006001023123879CREPE-PAPER RED        0000001000+00000788+00000+0001T   00000788+0000001219          1400 YH5112               2BZ
905855004905855112-116069     905855006009681820277TCS CARRIER BAG JUMBO  0000001000+00000048+00000+0001T   00000048+0000001219          1400 YH5090               2BZ
905856000905856               905856               170213FX     1400+00000+FX0000001753+0000001753+000000000+000000246+0000001990+0000000009+I20000000000+0000001990+Z
905856001905856080-000113     905856006003000237449CARD&ENVLPE - LOVE     0000001000+00001753+00000+0001T   00001753+0000001220          1400 YH5112               2BZ
905857000905857               905857               170213FX     1400+00000+FX0000043733+0000043733+000000000+000006132+0000049865+0000000000+I40000049865+0000000000+Z
905857001905857019-000131     905857006003000456253PLANT. T/PLATE 10X12.5 0000001000+00002630+00000+0001T   00002630+0000001231          1400 YH5510               2BZ
905857002905857019-000126     905857006003000329571PLANTER GALV W/HANDLE  0000002000+00004823+00000+0001T   00004823+0000001231          1400 YH5510               2BZ
905857003905857368-000111     905857006001023780812PLUSH BEAR/DOG 29CM    0000001000+00012279+00000+0001T   00012279+0000001231          1400 YH5745               2BZ
905857004905857112-116053     905857006006438002399TCS CARRIER BAG 38L    0000001000+00000069+00000+0001T   00000069+0000001231          1400 YH5090               2BZ
905857005905857368-000637     905857006001023874092PLUSH BEAR SLEEPING LOV0000001000+00011402+00000+0001T   00012279+0006471231          1400 YH5745               2BZ
905857006905857903-000012     905857006002099007308SWT MALLOW S/BERRY     0000002000+00000437+00000+0001T   00000437+0000001231          1400 YH5150               2BZ
905857007905857028-000799     905857006001023812186SKEWERS BAMBOO 100PCE  0000001000+00001578+00000+0001T   00001578+0000001231          1400 YH5305               2BZ
905857008905857565-000040     905857006008766115635NOVELTY ICON BEANIE    0000001000+00002630+00000+0001T   00002630+0000001231          1400 YH5745               2BZ
905857009905857903-000624     905857006003000671793SWEET LOLLY BLU/BRRY   0000001000+00001753+00000+0001T   00001753+0000001231          1400 YH5150               2BZ
905857010905857903-000670     905857006009803358008SWT SHERBET RED LIPS   0000004000+00000218+00000+0001T   00000218+0000001231          1400 YH5150               2BZ
905858000905858               905858               170213FX     1400+00000+FX0000007889+0000007889+000000000+000001107+0000008990+0000000006+I20000000000+0000008990+Z
905858001905858077-000005-D   905858006003000414567PAPER TISSUE 50x70cm   0000001000+00001753+00000+0001T   00001753+0000001241          1400 YH5112               2BZ
905858002905858031-086301-B   905858006001023910219P/FRAME PL BRONZE 13X180000001000+00005262+00000+0001T   00005262+0000001241          1400 YH5510               2BZ
905858003905858083-000049     905858004891035200024CIG-LIGHTER DISPOSABLE 0000002000+00000437+00000+0001T   00000437+0000001241          1400 YH5315               2BZ
905859000905859               905859               170213FX     1400+00000+FX0000003507-0000003507-000000000+000000491-0000004000-0000000002+I20000000000+0000004000-Z
905859001905859162-083427     905859006001492834276SS PASTEL MULTISTRAND  0000001000-00003507+00000+0001T   00003507+0000001246          1400 YH51602IC            2 Z
905860000905860               905860               170213FX     1400+00000+FX0000013626+0000013626+000000000+000001909+0000015535+0000000000+I40000015535+0000000000+Z
905860001905860077-000381     905860006003000247707GIFT-BAG 25X32CM S/COL 0000001000+00001753+00000+0001T   00001753+0000001251          1400 YH5112               2BZ
905860002905860031-086303-A   905860006003000322206P/FRM CHAMPAGNE 10X15CM0000001000+00003069+00000+0001T   00003069+0000001251          1400 YH5510               2BZ
905860003905860031-086103     905860006001023900746P/FRAME GLS FILM 2HOLE 0000001000+00005262+00000+0001T   00005262+0000001251          1400 YH5510               2BZ
905860004905860112-116038     905860006009681820246TCS CARRIER BAG MIDI   0000001000+00000035+00000+0001T   00000035+0000001251          1400 YH5090               2BZ
905860005905860031-000860-A   905860006001023798176P/FRAME PL ANTIQUE-BLK 0000001000+00003507+00000+0001T   00003507+0000001251          1400 YH5510               2BZ
905861000905861               905861               170213FX     1400+00000+FX0000002192+0000002192+000000000+000000307+0000002490+0000000009+I20000000000+0000002490+Z
905861001905861024-091103     905861006003453014307BAKING-CUP MUFFIN 50PCE0000001000+00002192+00000+0001T   00002192+0000001304          1400 YH5300               2BZ
905862000905862               905862               170213FX     1400+00000+FX0000012278+0000012278+000000000+000001720+0000013998+0000000000+I40000013998+0000000000+Z
905862001905862174-008022     905862006001023555502RAINCOAT 132X203cm HOOD0000002000+00006139+00000+0001T   00006139+0000001312          1400 YH5205               2BZ
905863000905863               905863               170213FX     1400+00000+FX0000004207+0000004207+000000000+000000589+0000004790+0000000006+I20000000000+0000004790+Z
905863001905863089-000200     905863006003000485840KEY CHAIN POLY LOVE IS 0000001000+00003507+00000+0001T   00004385+0008121315          1400 YH5205               2BZ
905863002905863018-000177     905863006001023797513MUG MINI LOVE ASSTD    0000001000+00000700+00000+0001T   00000700+0000001315          1400 YH5515               2BZ
905864000905864               905864               170213FX     1400+00000+FX0000002629+0000002629+000000000+000000369+0000002990+0000000008+I20000000000+0000002990+Z
905864001905864566-001228     905864006003000284153STICKERS CRYSTAL ASSTD 0000001000+00001753+00000+0001T   00001753+0000001316          1400 YH5130               2BZ
905864002905864566-000996     905864000721129013176TATTOOS TEMP BE ME ASST0000001000+00000876+00000+0001T   00000876+0000001316          1400 YH5130               2BZ
905865000905865               905865               170213FX     1400+00000+FX0000007892+0000007892+000000000+000001106+0000008998+0000000000+I40000008998+0000000000+Z
905865001905865174-008021     905865006003000637973RAINCOAT PONCHO 102x1670000001000+00006139+00000+0001T   00006139+0000001320          1400 YH5205               2BZ
905865002905865075-000592     905865000678634480804B/PACK KIDS TKERBELL   0000001000+00001753+00000+0001T   00002630+0008121320          1400 YH5160               2BZ
905866000905866               905866               170213FX     1400+00000+FX0000002192+0000002192+000000000+000000307+0000002490+0000000009+I20000000000+0000002490+Z
905866001905866079-013102     905866006003000019601ART+CRAFT DIY PIPE-CLNR0000001000+00002192+00000+0001T   00002192+0000001322          1400 YH5130               2BZ
905867000905867               905867               170213FX     1400+00000+FX0000000700+0000000700+000000000+000000098+0000000790+0000000008+I20000000000+0000000790+Z
905867001905867018-000177     905867006001023797513MUG MINI LOVE ASSTD    0000001000+00000700+00000+0001T   00000700+0000001324          1400 YH5515               2BZ
905868000905868               905868               170213FX     1400+00000+FX0000001400+0000001400+000000000+000000196+0000001590+0000000006+I20000000000+0000001590+Z
905868001905868088-000103     905868006008766127102INCENSE 20PCE ASSTD    0000002000+00000700+00000+0001T   00000700+0000001326          1400 YH5212               2BZ
905869000905869               905869               170213FX     1400+00000+FX0000004385+0000004385+000000000+000000614+0000004990+0000000009+I20000000000+0000004990+Z
905869001905869108-000500     905869006003000667161TUMBLER DOUBLE WALL    0000001000+00004385+00000+0001T   00004385+0000001356          1400 YH5210               2BZ
905870000905870               905870               170213FX     1400+00000+FX0000002630+0000002630+000000000+000000369+0000002990+0000000009+I20000000000+0000002990+Z
905870001905870077-000235     905870006003000160211GIFT-RIBBON ROLL METALC0000001000+00002630+00000+0001T   00002630+0000001500          1400 YH5112               2BZ
905871000905871               905871               170213FX     1400+00000+FX0000005998+0000005998+000000000+000000840+0000006838+0000000000+I40000006838+0000000000+Z
905871001905871031-000848     905871006001023851901P/FRAME COLLAGE 2ASSTD 0000001000+00004385+00000+0001T   00004385+0000001502          1400 YH5510               2BZ
905871002905871077-000315     905871006003000181186GIFT-BAG 20x28cm MATT  0000001000+00001578+00000+0001T   00001578+0000001502          1400 YH5112               2BZ
905871003905871112-116038     905871006009681820246TCS CARRIER BAG MIDI   0000001000+00000035+00000+0001T   00000035+0000001502          1400 YH5090               2BZ
905872000905872               905872               170213FX     1400+00000+FX0000002192+0000002192+000000000+000000307+0000002490+0000000009+I20000000000+0000002490+Z
905872001905872007-000095     905872006003000530434ENVELOPES WHITE 20PK C60000001000+00002192+00000+0001T   00002192+0000001502          1400 YH5130               2BZ
905873000905873               905873               170213FX     1400+00000+FX0000002192+0000002192+000000000+000000307+0000002490+0000000009+I20000000000+0000002490+Z
905873001905873030-083576     905873006003000431236PLAQUE WDN GARDEN 12X8 0000001000+00002192+00000+0001T   00002192+0000001503          1400 YH5505               2BZ
905874000905874               905874               170213FX     1400+00000+FX0000000909+0000000909+000000000+000000129+0000001030+0000000008+I20000000000+0000001030+Z
905874001905874080-000133     905874006003000535613CARD&ENV MINI ASTD DSGN0000002000+00000437+00000+0001T   00000437+0000001509          1400 YH5112               2BZ
905874002905874112-116038     905874006009681820246TCS CARRIER BAG MIDI   0000001000+00000035+00000+0001T   00000035+0000001509          1400 YH5090               2BZ
905875000905875               905875               170213FX     1400+00000+FX0000001753+0000001753+000000000+000000246+0000001990+0000000009+I20000000000+0000001990+Z
905875001905875077-000289     905875006001023901996GIFT BOX 20x25x11cm    0000001000+00001753+00000+0001T   00001753+0000001509          1400 YH5112               2BZ
905876000905876               905876               170213FX     1400+00000+FX0000005262+0000005262+000000000+000000737+0000005990+0000000009+I20000000000+0000005990+Z
905876001905876019-000122     905876006001023809582PLANTER GALV 22cm ROUND0000001000+00005262+00000+0001T   00005262+0000001510          1400 YH5510               2BZ
905877000905877               905877               170213FX     1400+00000+FX0000000048+0000000048+000000000+000000007+0000000050+0000000005+I20000000000+0000000050+Z
905877001905877112-116069     905877006009681820277TCS CARRIER BAG JUMBO  0000001000+00000048+00000+0001T   00000048+0000001511          1400 YH5090               2BZ
905878000905878               905878               170213FX     1400+00000+FX0000003945+0000003945+000000000+000000553+0000004498+0000000000+I40000004498+0000000000+Z
905878001905878206-000100     905878006003000628063TONGS ICE COLD FINGERS 0000001000+00002192+00000+0001T   00002192+0000001513          1400 YH5321               2BZ
905878002905878206-000370     905878006003000631315STRAW P/DRINKING GLASS 0000001000+00001753+00000+0001T   00001753+0000001513          1400 YH5321               2BZ
905879000905879               905879               170213FX     1400+00000+FX0000009599+0000009599+000000000+000001347+0000010946+0000000000+I40000010946+0000000000+Z
905879001905879080-000113     905879006003000237449CARD&ENVLPE - LOVE     0000001000+00001753+00000+0001T   00001753+0000001524          1400 YH5112               2BZ
905879002905879077-000299     905879006003000395576G/BAG 32x25cm LRG LOVE 0000001000+00001490+00000+0001T   00001490+0000001524          1400 YH5112               2BZ
905879003905879006-001000     905879006003000093779HELIUM BALLOON FILL    0000006000+00000613+00000+0001T   00000613+0000001524          1400 YH5131               2BZ
905879004905879006-000111     905879006003000519385BALLOONS LARGE 12PCE   0000001000+00002630+00000+0001T   00002630+0000001524          1400 YH5131               2BZ
905879005905879112-116069     905879006009681820277TCS CARRIER BAG JUMBO  0000001000+00000048+00000+0001T   00000048+0000001524          1400 YH5090               2BZ
905880000905880               905880               170213FX     1400+00000+FX0000001490+0000001490+000000000+000000209+0000001699+0000000000+I40000001699+0000000000+Z
905880001905880077-000299     905880006003000395576G/BAG 32x25cm LRG LOVE 0000001000+00001490+00000+0001T   00001490+0000001525          1400 YH5112               2BZ
905881000905881               905881               170213FX     1400+00000+FX0000022432+0000022432+000000000+000003143+0000025575+0000000000+I40000025575+0000000000+Z
905881001905881018-050000     905881006003000412679MUG OCC LOVE TWIN BEAR 0000001000+00006139+00000+0001T   00006139+0000001528          1400 YH5515               2BZ
905881002905881368-000111     905881006001023780812PLUSH BEAR/DOG 29CM    0000001000+00012279+00000+0001T   00012279+0000001528          1400 YH5745               2BZ
905881003905881077-000299-A   905881006003000670888GIFT-BAG PAPER JMB LOVE0000001000+00001753+00000+0001T   00001753+0000001528          1400 YH5112               2BZ
905881004905881080-000127     905881006003000424351VALENTINES DAY 36x24CM 0000001000+00002192+00000+0001T   00002192+0000001528          1400 YH5112               2BZ
905881005905881112-116053     905881006006438002399TCS CARRIER BAG 38L    0000001000+00000069+00000+0001T   00000069+0000001528          1400 YH5090               2BZ
905882000905882               905882               170213FX     1400+00000+FX0000003993+0000003993+000000000+000000560+0000004550+0000000003+I20000000000+0000004550+Z
905882001905882301-085002     905882006003000420704ORN OCC. LOVE BELL ASST0000001000+00001753+00000+0001T   00002630+0008121531          1400 YH5505               2BZ
905882002905882206-000100     905882006003000628063TONGS ICE COLD FINGERS 0000001000+00002192+00000+0001T   00002192+0000001531          1400 YH5321               2BZ
905882003905882112-116069     905882006009681820277TCS CARRIER BAG JUMBO  0000001000+00000048+00000+0001T   00000048+0000001531          1400 YH5090               2BZ
905883000905883               905883               170213FX     1400+00000+FX0000001490+0000001490+000000000+000000209+0000001690+0000000009+I20000000000+0000001690+Z
905883001905883065-003699     905883006001023690883FLUTE RECORDER PL      0000001000+00001490+00000+0001T   00001490+0000001532          1400 YH5745               2BZ
905884000905884               905884               170213FX     1400+00000+FX0000015392+0000015392+000000000+000002156+0000017540+0000000008+I20000000000+0000017540+Z
905884001905884006-000166-D   905884006003000516490BALLOONS LRG 6PC RED   0000002000+00001314+00000+0001T   00001314+0000001533          1400 YH5131               2BZ
905884002905884006-000167-C   905884006003000516971BALLOONS PINK METALLIC 0000001000+00001314+00000+0001T   00001314+0000001533          1400 YH5131               2BZ
905884003905884368-000637     905884006001023874092PLUSH BEAR SLEEPING LOV0000001000+00011402+00000+0001T   00012279+0006471533          1400 YH5745               2BZ
905884004905884112-116069     905884006009681820277TCS CARRIER BAG JUMBO  0000001000+00000048+00000+0001T   00000048+0000001533          1400 YH5090               2BZ
905885000905885               905885               170213FX     1400+00000+FX0000006509+0000006509+000000000+000000916+0000007425+0000000000+I40000007425+0000000000+Z
905885001905885903-000518     905885006001704012782SWT STRAWS S/BERRY 100g0000002000+00001227+00000+0001T   00001227+0000001535          1400 YH5150               2BZ
905885002905885077-000011-D   905885006001023808554TISSUE-WRAP WHITE 10PCE0000001000+00000876+00000+0001T   00000876+0000001535          1400 YH5112               2BZ
905885003905885112-116038     905885006009681820246TCS CARRIER BAG MIDI   0000001000+00000035+00000+0001T   00000035+0000001535          1400 YH5090               2BZ
905885004905885903-000216     905885006925925900966SWT MALLOW TWIST ERKO  0000012000+00000262+00000+0001T   00000262+0000001535          1400 YH5150               2BZ
905886000905886               905886               170213FX     1400+00000+FX0000004417+0000004417+000000000+000000620+0000005030+0000000007+I20000000000+0000005030+Z
905886001905886903-003080     905886005907029004673SWT SNACK STIX CHOC 50g0000001000+00000876+00000+0001T   00000876+0000001537          1400 YH5150               2BZ
905886002905886301-085002     905886006003000420704ORN OCC. LOVE BELL ASST0000002000+00001753+00000+0001T   00002630+0008121537          1400 YH5505               2BZ
905886003905886112-116038     905886006009681820246TCS CARRIER BAG MIDI   0000001000+00000035+00000+0001T   00000035+0000001537          1400 YH5090               2BZ
905887000905887               905887               170213FX     1400+00000+FX0000003975+0000003975+000000000+000000560+0000004530+0000000005+I20000000000+0000004530+Z
905887001905887566-000068     905887006003000418046POP UP LOVE 2 ASSTD    0000001000+00002192+00000+0001T   00002192+0000001540          1400 YH5130               2BZ
905887002905887080-000133     905887006003000535613CARD&ENV MINI ASTD DSGN0000004000+00000437+00000+0001T   00000437+0000001540          1400 YH5112               2BZ
905887003905887112-116038     905887006009681820246TCS CARRIER BAG MIDI   0000001000+00000035+00000+0001T   00000035+0000001540          1400 YH5090               2BZ
905888000905888               905888               170213FX     1400+00000+FX0000007145+0000007145+000000000+000001003+0000008140+0000000008+I20000000000+0000008140+Z
905888001905888903-000120     905888006002099001665SWEET GS ZILLIONS 50g  0000001000+00000700+00000+0001T   00000700+0000001541          1400 YH5150               2BZ
905888002905888077-000011-C   905888006001023808523TISSUE 10xSHTS RED     0000001000+00000876+00000+0001T   00000876+0000001541          1400 YH5112               2BZ
905888003905888077-000452     905888006003000284986G/BAG METALLIC MED EMB 0000003000+00001490+00000+0001T   00001490+0000001541          1400 YH5112               2BZ
905888004905888903-002853     905888000000087108019MENTOS ROLL MINT       0000001000+00001051+00000+0001T   00001051+0000001541          1400 YH5150               2BZ
905888005905888112-116069     905888006009681820277TCS CARRIER BAG JUMBO  0000001000+00000048+00000+0001T   00000048+0000001541          1400 YH5090               2BZ
905889000905889               905889               170213FX     1400+00000+FX0000002192+0000002192+000000000+000000307+0000002490+0000000009+I20000000000+0000002490+Z
905889001905889050-000363-Z   905889006001023475282PADLOCK IRON 32mm CARD 0000001000+00002192+00000+0001T   00002192+0000001542          1400 YH5855               2BZ
905890000905890               905890               170213FX     1400+00000+FX0000014911+0000014911+000000000+000002088+0000016999+0000000000+I40000016999+0000000000+Z
905890001905890368-000004     905890006003000098378PLUSH UNICORN 30cm     0000001000+00014911+00000+0001T   00014911+0000001547          1400 YH5745               2BZ
905891000905891               905891               170213FX     1400+00000+FX0000001753+0000001753+000000000+000000246+0000001990+0000000009+I20000000000+0000001990+Z
905891001905891565-000043     905891006003000109562NOVELTY BALL FUNNY FACE0000001000+00001753+00000+0001T   00001753+0000001548          1400 YH5745               2BZ
905892000905892               905892               170213FX     1400+00000+FX0000006173+0000006173+000000000+000000865+0000007038+0000000000+I40000007038+0000000000+Z
905892001905892001-000175     905892006001023788108B/MUG GLS LOVE 380ML   0000001000+00004385+00000+0001T   00004385+0000001551          1400 YH5515               2BZ
905892002905892204-000001     905892006003000575558M/HOLD BOTTLE OPENER   0000001000+00001753+00000+0001T   00001753+0000001551          1400 YH5300               2BZ
905892003905892112-116038     905892006009681820246TCS CARRIER BAG MIDI   0000001000+00000035+00000+0001T   00000035+0000001551          1400 YH5090               2BZ
905893000905893               905893               170213FX     1400+00000+FX0000003507+0000003507+000000000+000000491+0000003990+0000000008+I20000000000+0000003990+Z
905893001905893018-000130     905893006001023867537MUG OCC LOVE MINI+HEART0000001000+00003507+00000+0001T   00003507+0000001553          1400 YH5515               2BZ
905894000905894               905894               170213FX     1400+00000+FX0000002278+0000002278+000000000+000000319+0000002590+0000000007+I20000000000+0000002590+Z
905894001905894565-000052     905894006003000615551NOVELTY PUTTY FARTS    0000001000+00001578+00000+0001T   00001578+0000001555          1400 YH5745               2BZ
905894002905894565-000256     905894006003000609826NOVELTY GLOW SLIME     0000001000+00000700+00000+0001T   00000700+0000001555          1400 YH5745               2BZ
905895000905895               905895               170213FX     1400+00000+FX0000001753+0000001753+000000000+000000246+0000001990+0000000009+I20000000000+0000001990+Z
905895001905895077-000301     905895008010410010188BAG LRG 25X32CM B/DAY  0000001000+00001753+00000+0001T   00001753+0000001555          1400 YH5112               2BZ
905896000905896               905896               170213FX     1400+00000+FX0000007893+0000007893+000000000+000001106+0000000000+0000000000+ 00000000000+0000000000+Z
905896001905896031-006544     905896006003000279401P/FRAME WDN DISTRESSED 0000001000+00007893+00000+0001T   00007893+000000              1400 YH55102IC            2 Z
905897000905897               905897               170213FX     1400+00000+FX0000001753+0000001753+000000000+000000246+0000001990+0000000009+I20000000000+0000001990+Z
905897001905897565-000043     905897006003000109562NOVELTY BALL FUNNY FACE0000001000+00001753+00000+0001T   00001753+0000001600          1400 YH5745               2BZ
905898000905898               905898               170213FX     1400+00000+FX0000003331+0000003331+000000000+000000467+0000003798+0000000000+I40000003798+0000000000+Z
905898001905898566-001228     905898006003000284153STICKERS CRYSTAL ASSTD 0000001000+00001753+00000+0001T   00001753+0000001602          1400 YH5130               2BZ
905898002905898077-000315     905898006003000181186GIFT-BAG 20x28cm MATT  0000001000+00001578+00000+0001T   00001578+0000001602          1400 YH5112               2BZ
905899000905899               905899               170213FX     1400+00000+FX0000003507+0000003507+000000000+000000491+0000003990+0000000008+I20000000000+0000003990+Z
905899001905899031-000872-B   905899006001023798749P/FRAME PL BRONZA 13X180000001000+00003507+00000+0001T   00003507+0000001604          1400 YH5510               2BZ
905900000905900               905900               170213FX     1400+00000+FX0000020170+0000020170+000000000+000002825+0000022995+0000000000+I40000022995+0000000000+Z
905900001905900301-085004     905900006003000420469ORN LOVE PLAQUE 21X10CM0000001000+00003507+00000+0001T   00003946+0006471607          1400 YH5505               2BZ
905900002905900301-085007     905900006003000673698ORN OCC. LOVE S/PLAQUE 0000001000+00007893+00000+0001T   00007893+0000001607          1400 YH5505               2BZ
905900003905900104-000053     905900006003000011193BASKET PL 25X32X6cm    0000001000+00004385+00000+0001T   00004385+0000001607          1400 YH5210               2BZ
905900004905900133-000088     905900006003000396627DISH CLOTHS ASSORTED   0000001000+00004385+00000+0001T   00004385+0000001607          1400 YH5212               2BZ
905901000905901               905901               170213FX     1400+00000+FX0000025919+0000025919+000000000+000003631+0000029550+0000000000+I40000029550+0000000000+Z
905901001905901018-000170     905901006001023775528MUG OCC. LOVE 2PC MINI 0000001000+00002192+00000+0001T   00002192+0000001626          1400 YH5515               2BZ
905901002905901306-001660     905901006003000620579NAIL DRYING MACHINE    0000001000+00007016+00000+0001T   00007016+0000001626          1400 YH5200               2BZ
905901003905901039-000798     905901006001023617774CANDLES TEALITE BOX-50 0000001000+00006139+00000+0001T   00006139+0000001626          1400 YH5510               2BZ
905901004905901007-000614     905901006001023768667DIARY W/LOCK+PEN LOVE  0000002000+00005262+00000+0001T   00005262+0000001626          1400 YH5130               2BZ
905901005905901112-116069     905901006009681820277TCS CARRIER BAG JUMBO  0000001000+00000048+00000+0001T   00000048+0000001626          1400 YH5090               2BZ
905902000905902               905902               170213FX     1400+00000+FX0000003330+0000003330+000000000+000000467+0000003790+0000000007+I20000000000+0000003790+Z
905902001905902039-000319-1   905902006003000442386B/CANDLES LRG NUMBER-1 0000001000+00000876+00000+0001T   00000876+0000001633          1400 YH5510               2BZ
905902002905902039-000319-2   905902006003000442508B/CANDLES LRG NUMBER-2 0000001000+00000876+00000+0001T   00000876+0000001633          1400 YH5510               2BZ
905902003905902366-002696     905902006003000456895DRESS UP HEADBAND FANCY0000001000+00001578+00000+0001T   00001578+0000001633          1400 YH5131               2BZ
905903000905903               905903               170213FX     1400+00000+FX0000001139+0000001139+000000000+000000160+0000001290+0000000009+I20000000000+0000001290+Z
905903002905903903-000087     905903006001704000161SWT SPECKLED-EGGS 50G  0000001000+00001139+00000+0001T   00001139+0000001634          1400 YH5150               2BZ
905904000905904               905904               170213FX     1400+00000+FX0000005029+0000005029+000000000+000000706+0000005730+0000000005+I20000000000+0000005730+Z
905904001905904077-000317     905904006001023609748GIFT-BAG 11X14CM E/D AN0000001000+00000613+00000+0001T   00000613+0000001636          1400 YH5112               2BZ
905904002905904077-000011-C   905904006001023808523TISSUE 10xSHTS RED     0000001000+00000876+00000+0001T   00000876+0000001636          1400 YH5112               2BZ
905904003905904077-000315     905904006003000181186GIFT-BAG 20x28cm MATT  0000001000+00001578+00000+0001T   00001578+0000001636          1400 YH5112               2BZ
905904004905904903-000892     905904008693029700420SWT NOVELTY CHOCO CREAM0000001000+00000788+00000+0001T   00000788+0000001636          1400 YH5150               2BZ
905904005905904903-000087     905904006001704000161SWT SPECKLED-EGGS 50G  0000001000+00001139+00000+0001T   00001139+0000001636          1400 YH5150               2BZ
905904006905904112-116038     905904006009681820246TCS CARRIER BAG MIDI   0000001000+00000035+00000+0001T   00000035+0000001636          1400 YH5090               2BZ
905905000905905               905905               170213FX     1400+00000+FX0000004646+0000004646+000000000+000000651+0000005290+0000000007+I20000000000+0000005290+Z
905905001905905018-005009     905905006001023725608MUG W/PLUSH-BEAR LOVE  0000001000+00003507+00000+0001T   00003507+0000001640          1400 YH5515               2BZ
905905002905905903-000709     905905006002099007070SWT QUENCHERS FRUIT    0000001000+00001139+00000+0001T   00001139+0000001640          1400 YH5150               2BZ
905906000905906               905906               170213FX     1400+00000+FX0000019324+0000019324+000000000+000002710+0000022034+0000000000+I40000022034+0000000000+Z
905906001905906206-000110     905906006003000628186CHOPSTICKS PLASTIC KIDS0000004000+00002630+00000+0001T   00002630+0000001644          1400 YH5321               2BZ
905906002905906368-000023     905906006003000672264PLUSH BEAR 21.5cm      0000001000+00007016+00000+0001T   00007016+0000001644          1400 YH5745               2BZ
905906003905906112-116038     905906006009681820246TCS CARRIER BAG MIDI   0000001000+00000035+00000+0001T   00000035+0000001644          1400 YH5090               2BZ
905906004905906077-000471     905906006003000330096G-BAG DESGN MED 18X23CM0000001000+00001753+00000+0001T   00001753+0000001644          1400 YH5112               2BZ
905907000905907               905907               170213FX     1400+00000+FX0000002102+0000002102+000000000+000000296+0000002390+0000000008+I20000000000+0000002390+Z
905907001905907039-000025     905907006003000286423CANDLE LONG 25CM DARK  0000002000+00001051+00000+0001T   00001051+0000001645          1400 YH5510               2BZ
905908000905908               905908               170213FX     1400+00000+FX0000003944+0000003944+000000000+000000553+0000004497+0000000000+I40000004497+0000000000+Z
905908001905908469-000012     905908006003000303335BUILDING BLOCKS RACERS 0000001000+00002630+00000+0001T   00002630+0000001647          1400 YH5755               2BZ
905908002905908077-000310     905908006001023608635GIFT-BAG 18X23CM GLOSS 0000001000+00001314+00000+0001T   00001314+0000001647          1400 YH5112               2BZ
905909000905909               905909               170213FX     1400+00000+FX0000003506+0000003506+000000000+000000492+0000003990+0000000008+I20000000000+0000003990+Z
905909001905909077-000011-E   905909006001023808646TISSUE-WRAP PINK 10PCE 0000001000+00000876+00000+0001T   00000876+0000001648          1400 YH5112               2BZ
905909002905909103-000461     905909006001023795229FLOWER BASKET 26cm-DIA 0000001000+00002630+00000+0001T   00002630+0000001648          1400 YH5300               2BZ
905910000905910               905910               170213FX     1400+00000+FX0000001565+0000001565+000000000+000000220+0000001785+0000000000+I40000001785+0000000000+Z
905910001905910079-009700-D   905910006003000545711PAPER SIRIO A4 RED COL.0000005000+00000306+00000+0001T   00000306+0000001700          1400 YH5130               2BZ
905910002905910112-116038     905910006009681820246TCS CARRIER BAG MIDI   0000001000+00000035+00000+0001T   00000035+0000001700          1400 YH5090               2BZ
905911000905911               905911               170213FX     1400+00000+FX0000003507+0000003507+000000000+000000491+0000003990+0000000008+I20000000000+0000003990+Z
905911001905911007-000325     905911006009698066514PAPER A4 160GSM 25SHTS 0000001000+00003507+00000+0001T   00003507+0000001701          1400 YH5130               2BZ
905912000905912               905912               170213FX     1400+00000+FX0000006921+0000006921+000000000+000000971+0000007890+0000000002+I20000000000+0000007890+Z
905912001905912006-001000     905912006003000093779HELIUM BALLOON FILL    0000007000+00000613+00000+0001T   00000613+0000001702          1400 YH5131               2BZ
905912002905912006-000111     905912006003000519385BALLOONS LARGE 12PCE   0000001000+00002630+00000+0001T   00002630+0000001702          1400 YH5131               2BZ
905913000905913               905913               170213FX     1400+00000+FX0000015788+0000015788+000000000+000002211+0000017990+0000000009+I20000000000+0000017990+Z
905913001905913365-064008     905913006003000655359PLAY-SET MY VET MINI   0000001000+00015788+00000+0001T   00015788+0000001703          1400 YH5725               2BZ
905914000905914               905914               170213FX     1400+00000+FX0000001357+0000001357+000000000+000000191+0000001540+0000000008+I20000000000+0000001540+Z
905914001905914079-009702-D   905914008427973059354PAPER SIRIO A2 RED COL 0000001000+00001051+00000+0001T   00001051+0000001704          1400 YH5130               2BZ
905914002905914079-009700-D   905914006003000545711PAPER SIRIO A4 RED COL.0000001000+00000306+00000+0001T   00000306+0000001704          1400 YH5130               2BZ
905915000905915               905915               170213FX     1400+00000+FX0000001753+0000001753+000000000+000000246+0000001999+0000000000+I40000001999+0000000000+Z
905915001905915077-000351     905915006003000139033GIFT-BAG 18X23CM E/D P 0000001000+00001753+00000+0001T   00001753+0000001707          1400 YH5112               2BZ
905916000905916               905916               170213FX     1400+00000+FX0000004604+0000004604+000000000+000000646+0000005250+0000000000+I40000005250+0000000000+Z
905916001905916077-000011-L   905916006001023808585P/TISSUE BRIGHT 10SHEET0000001000+00000876+00000+0001T   00000876+0000001709          1400 YH5112               2BZ
905916002905916077-000383     905916006003000247943GIFT-BAG 11X14CM S/COL 0000001000+00000788+00000+0001T   00000788+0000001709          1400 YH5112               2BZ
905916003905916077-000310     905916006001023608635GIFT-BAG 18X23CM GLOSS 0000001000+00001314+00000+0001T   00001314+0000001709          1400 YH5112               2BZ
905916004905916077-000315     905916006003000181186GIFT-BAG 20x28cm MATT  0000001000+00001578+00000+0001T   00001578+0000001709          1400 YH5112               2BZ
905916005905916112-116069     905916006009681820277TCS CARRIER BAG JUMBO  0000001000+00000048+00000+0001T   00000048+0000001709          1400 YH5090               2BZ
905917000905917               905917               170213FX     1400+00000+FX0000004821+0000004821+000000000+000000675+0000005496+0000000000+I40000005496+0000000000+Z
905917001905917018-005009     905917006001023725608MUG W/PLUSH-BEAR LOVE  0000001000+00003507+00000+0001T   00003507+0000001710          1400 YH5515               2BZ
905917002905917077-000310     905917006001023608635GIFT-BAG 18X23CM GLOSS 0000001000+00001314+00000+0001T   00001314+0000001710          1400 YH5112               2BZ
905918000905918               905918               170213FX     1400+00000+FX0000000035+0000000035+000000000+000000005+0000000040+0000000000+I20000000000+0000000040+Z
905918001905918112-116038     905918006009681820246TCS CARRIER BAG MIDI   0000001000+00000035+00000+0001T   00000035+0000001711          1400 YH5090               2BZ
905919000905919               905919               170213FX     1400+00000+FX0000001576+0000001576+000000000+000000222+0000001790+0000000008+I20000000000+0000001790+Z
905919001905919077-000383     905919006003000247943GIFT-BAG 11X14CM S/COL 0000002000+00000788+00000+0001T   00000788+0000001712          1400 YH5112               2BZ
905920000905920               905920               170213FX     1400+00000+FX0000004909+0000004909+000000000+000000688+0000005590+0000000007+I20000000000+0000005590+Z
905920001905920304-001204     905920006001023737984FLOWER OCC. TEDDY/ROSES0000001000+00001402+00000+0001T   00001490+0006471715          1400 YH5510               2BZ
905920002905920174-000303     905920006003000053605TRAVEL NECK WALLET     0000001000+00003507+00000+0001T   00003507+0000001715          1400 YH5205               2BZ
905921000905921               905921               170213FX     1400+00000+FX0000002364+0000002364+000000000+000000332+0000002690+0000000006+I20000000000+0000002690+Z
905921001905921304-001204     905921006001023737984FLOWER OCC. TEDDY/ROSES0000001000+00001402+00000+0001T   00001490+0006471715          1400 YH5510               2BZ
905921002905921903-000216     905921006925925900966SWT MALLOW TWIST ERKO  0000001000+00000262+00000+0001T   00000262+0000001715          1400 YH5150               2BZ
905921003905921018-000177     905921006001023797513MUG MINI LOVE ASSTD    0000001000+00000700+00000+0001T   00000700+0000001715          1400 YH5515               2BZ
905922000905922               905922               170213FX     1400+00000+FX0000003942+0000003942+000000000+000000553+0000004490+0000000005+I20000000000+0000004490+Z
905922001905922077-000151     905922006008766114676GIFT-WRAP C/PHANE ASSTD0000001000+00000876+00000+0001T   00000876+0000001716          1400 YH5112               2BZ
905922002905922077-000150-D   905922006003000054343GIFT-WRAP CELLPHANE CLR0000002000+00000876+00000+0001T   00000876+0000001716          1400 YH5112               2BZ
905922003905922108-001235     905922006003000462766SALAD BOWL PS 16cm-DIA 0000001000+00001314+00000+0001T   00001314+0000001716          1400 YH5210               2BZ
905923000905923               905923               170213FX     1400+00000+FX0000001752+0000001752+000000000+000000246+0000001990+0000000008+I20000000000+0000001990+Z
905923001905923077-000011-E   905923006001023808646TISSUE-WRAP PINK 10PCE 0000001000+00000876+00000+0001T   00000876+0000001717          1400 YH5112               2BZ
905923002905923077-000011-D   905923006001023808554TISSUE-WRAP WHITE 10PCE0000001000+00000876+00000+0001T   00000876+0000001717          1400 YH5112               2BZ
905924000905924               905924               170213FX     1400+00000+FX0000000876+0000000876+000000000+000000123+0000000990+0000000009+I20000000000+0000000990+Z
905924001905924077-000151     905924006008766114676GIFT-WRAP C/PHANE ASSTD0000001000+00000876+00000+0001T   00000876+0000001729          1400 YH5112               2BZ
905925000905925               905925               170213FX     1400+00000+FX0000001226+0000001226+000000000+000000172+0000001390+0000000008+I20000000000+0000001390+Z
905925001905925077-000317     905925006001023609748GIFT-BAG 11X14CM E/D AN0000001000+00000613+00000+0001T   00000613+0000001730          1400 YH5112               2BZ
905925002905925077-000321     905925006001023677501GIFT-BAG 11X14CM E/D FL0000001000+00000613+00000+0001T   00000613+0000001730          1400 YH5112               2BZ
905926000905926               905926               170213FX     1400+00000+FX0000003065+0000003065+000000000+000000431+0000003496+0000000000+I40000003496+0000000000+Z
905926001905926077-000302     905926008010410010195GIFT-BAG 18X23CM E/D   0000001000+00000876+00000+0001T   00000876+0000001732          1400 YH5112               2BZ
905926002905926077-000383     905926006003000247943GIFT-BAG 11X14CM S/COL 0000001000+00000788+00000+0001T   00000788+0000001732          1400 YH5112               2BZ
905926003905926077-000317     905926006001023609748GIFT-BAG 11X14CM E/D AN0000001000+00000613+00000+0001T   00000613+0000001732          1400 YH5112               2BZ
905926004905926077-000383     905926006003000247943GIFT-BAG 11X14CM S/COL 0000001000+00000788+00000+0001T   00000788+0000001732          1400 YH5112               2BZ
905927000905927               905927               170213FX     1400+00000+FX0000004558+0000004558+000000000+000000639+0000005190+0000000007+I20000000000+0000005190+Z
905927001905927077-000011-D   905927006001023808554TISSUE-WRAP WHITE 10PCE0000001000+00000876+00000+0001T   00000876+0000001734          1400 YH5112               2BZ
905927002905927077-000299     905927006003000395576G/BAG 32x25cm LRG LOVE 0000001000+00001490+00000+0001T   00001490+0000001734          1400 YH5112               2BZ
905927003905927080-000127     905927006003000424351VALENTINES DAY 36x24CM 0000001000+00002192+00000+0001T   00002192+0000001734          1400 YH5112               2BZ
905928000905928               905928               170213FX     1400+00000+FX0000001227+0000001227+000000000+000000172+0000001390+0000000009+I20000000000+0000001390+Z
905928001905928071-081091     905928006001151010287STAED/GENKEM ALL-STICK 0000001000+00001227+00000+0001T   00001227+0000001736          1400 YH5130               2BZ
905929000905929               905929               170213FX     1400+00000+FX0000002628+0000002628+000000000+000000368+0000002990+0000000006+I20000000000+0000002990+Z
905929001905929077-000470     905929006003000330171G-BAG DESGN SML 11X14CM0000001000+00001314+00000+0001T   00001314+0000001740          1400 YH5112               2BZ
905929002905929903-005002     905929006002580020021SWT MALLOW SNAKE 120g  0000001000+00001314+00000+0001T   00001314+0000001740          1400 YH5150               2BZ
905930000905930               905930               170213FX     1400+00000+FX0000001753+0000001753+000000000+000000246+0000001990+0000000009+I20000000000+0000001990+Z
905930001905930466-000103     905930000681070950312BALL 20cm ASSTD        0000001000+00001753+00000+0001T   00001753+0000001741          1400 YH5785               2BZ
905931000905931               905931               170213FX     1400+00000+FX0000010608+0000010608+000000000+000001486+0000012094+0000000000+I40000012094+0000000000+Z
905931001905931018-005009     905931006001023725608MUG W/PLUSH-BEAR LOVE  0000001000+00003507+00000+0001T   00003507+0000001743          1400 YH5515               2BZ
905931002905931077-000299     905931006003000395576G/BAG 32x25cm LRG LOVE 0000001000+00001490+00000+0001T   00001490+0000001743          1400 YH5112               2BZ
905931003905931006-000190     905931006003000685530BALLOONS LOVE 81x91cm  0000001000+00004385+00000+0001T   00004385+0000001743          1400 YH5131               2BZ
905931004905931006-001000     905931006003000093779HELIUM BALLOON FILL    0000002000+00000613+00000+0001T   00000613+0000001743          1400 YH5131               2BZ
905932000905932               905932               170213FX     1400+00000+FX0000014466+0000014466+000000000+000002026+0000016492+0000000000+I40000016492+0000000000+Z
905932001905932077-000310     905932006001023608635GIFT-BAG 18X23CM GLOSS 0000003000+00001314+00000+0001T   00001314+0000001745          1400 YH5112               2BZ
905932002905932368-000175     905932006003000270316PLUSH BEAR 4 ASSTD 18CM0000001000+00006139+00000+0001T   00006139+0000001745          1400 YH5745               2BZ
905932003905932368-000151     905932006003000166725PLUSH BEAR 14cm        0000001000+00004385+00000+0001T   00004385+0000001745          1400 YH5745               2BZ
905933000905933               905933               170213FX     1400+00000+FX0000000831+0000000831+000000000+000000117+0000000940+0000000008+I20000000000+0000000940+Z
905933002905933006-001000     905933006003000093779HELIUM BALLOON FILL    0000001000+00000613+00000+0001T   00000613+0000001746          1400 YH5131               2BZ
905933003905933006-000170-L   905933006003000637614BALLOONS 1PC ROYAL BLUE0000001000+00000218+00000+0001T   00000218+0000001746          1400 YH5131               2BZ
905934000905934               905934               170213FX     1400+00000+FX0000000000+0000000000+000000000+000000000+0000000000+0000000000+ 00000000000+0000000000+Z
905935000905935               905935               170213FX     1400+00000+FX0000024184+0000024184+000000000+000003396+0000027580+0000000000+I20000000000+0000027580+Z
905935001905935565-000889     905935006003000626953NOVELTY SPACE BALLOONS 0000001000+00001753+00000+0001T   00001753+0000001757          1400 YH5745               2BZ
905935002905935565-000052     905935006003000615551NOVELTY PUTTY FARTS    0000001000+00001578+00000+0001T   00001578+0000001757          1400 YH5745               2BZ
905935003905935112-116069     905935006009681820277TCS CARRIER BAG JUMBO  0000001000+00000048+00000+0001T   00000048+0000001757          1400 YH5090               2BZ
905935004905935079-003015     905935006003000634071PAINT ACRYLIC 75ml GOLD0000001000+00002630+00000+0001T   00002630+0000001757          1400 YH5130               2BZ
905935005905935079-003000     905935006003000448838A/TUBE 75ML WHITE      0000001000+00001753+00000+0001T   00001753+0000001757          1400 YH5130               2BZ
905935006905935079-003005     905935006003000448241A/TUBE 75ML BLUE       0000001000+00001753+00000+0001T   00001753+0000001757          1400 YH5130               2BZ
905935007905935079-003012     905935006003000447893A/TUBE 75ML VIOLET     0000001000+00001753+00000+0001T   00001753+0000001757          1400 YH5130               2BZ
905935008905935565-000888     905935006003000607846NOVELTY MESH BALL      0000001000+00001753+00000+0001T   00001753+0000001757          1400 YH5745               2BZ
905935009905935565-000892-A   905935006003000690725NOVELTY FUN BALL       0000001000+00001314+00000+0001T   00001753+0008141757          1400 YH5745               2BZ
905935010905935079-003002     905935006003000447886A/TUBE 75ML RED        0000001000+00001753+00000+0001T   00001753+0000001757          1400 YH5130               2BZ
905935011905935159-000678     905935006001023729750BATH-SPONGE 2-TONE OVAL0000001000+00002630+00000+0001T   00002630+0000001757          1400 YH5200               2BZ
905935012905935006-000166-E   905935006003000516612BALLOONS LRG 6PC GREEN 0000001000+00001314+00000+0001T   00001314+0000001757          1400 YH5131               2BZ
905935013905935006-000166-F   905935006003000516735BALLOONS LRG 6PC PURPLE0000001000+00001314+00000+0001T   00001314+0000001757          1400 YH5131               2BZ
905935014905935006-000170-K   905935006003000609284BALLOONS 1PC PURPLE    0000004000+00000218+00000+0001T   00000218+0000001757          1400 YH5131               2BZ
905935015905935006-000170-G   905935006003000608553BALLOONS 1PC YELLOW    0000005000+00000218+00000+0001T   00000218+0000001757          1400 YH5131               2BZ
905935016905935903-000520     905935006001704009898SWT GUMMY MINI SOUR 60g0000001000+00000876+00000+0001T   00000876+0000001757          1400 YH5150               2BZ
905936000905936               905936               170213FX     1400+00000+FX0000006570+0000006570+000000000+000000920+0000007490+0000000000+I20000000000+0000007490+Z
905936001905936077-000470     905936006003000330171G-BAG DESGN SML 11X14CM0000005000+00001314+00000+0001T   00001314+0000001758          1400 YH5112               2BZ
905937000905937               905937               170213FX     1400+00000+FX0000008768+0000008768+000000000+000001229+0000009990+0000000007+I20000000000+0000009990+Z
905937001905937368-000175     905937006003000270316PLUSH BEAR 4 ASSTD 18CM0000001000+00006139+00000+0001T   00006139+0000001801          1400 YH5745               2BZ
905937002905937077-000011-D   905937006001023808554TISSUE-WRAP WHITE 10PCE0000001000+00000876+00000+0001T   00000876+0000001801          1400 YH5112               2BZ
905937003905937077-000351     905937006003000139033GIFT-BAG 18X23CM E/D P 0000001000+00001753+00000+0001T   00001753+0000001801          1400 YH5112               2BZ
905938000905938               905938               170213FX     1400+00000+FX0000003507+0000003507+000000000+000000491+0000003990+0000000008+I20000000000+0000003990+Z
905938001905938018-005009     905938006001023725608MUG W/PLUSH-BEAR LOVE  0000001000+00003507+00000+0001T   00003507+0000001804          1400 YH5515               2BZ
A17021300                                          10291741FXSLAVE 2                       YH51IC
C90584800                                          170213FX006-000170-F   12060838SLAVE 2     YH52IC0000000000+0000000000+0020000001000+
C90590300                                          170213FX903-000095     16343795SLAVE 2     YH51IC0000000000+0000000000+0010000001000+
C90591400                                          170213FX079-009702-D   17042700SLAVE 2     YH51IC0000000000+0000000000+0030000001000+
C90593300                                          170213FX006-000170-K   17462797SLAVE 2     YH51IC0000000000+0000000000+0010000001000+
M17021301                              IT          FXATT:IT                                                                                          LAST TILL SLIP NO 905938                                                                        THANKS
M17021302                              SHIEHAAM    FXATT:SHIEHAAM                                                                                    SLAVE 02 Z READING R7352.05                     TOTAL CASH BANKING R3485.90                     DT CARDS R0.00                                  CT CARDS R3866.15
M17021391                              CASH        FXSLAVE 2                       Z-REPORT No.   542TOTAL (Sales - Refunds)           7352.05       CASH TO BE BANKED                 3485.90       DEBIT CARDS                          0.00       CREDIT CARDS                      3866.15       Z-READING                         7352.05       AIRTIME DEBIT CARD SALES             0.00       AIRTIME CARD SALES                   0.00       OVERS/UNDERS                         0.00       AIRTIME CASH SALES                   0.00       GIFT CARDS                           0.00       GIFT CARD CASH SALES                 0.00       T O T A L  CASH PAYOUTS              0.00                                                                                                                                                                                                                                                                                                                                                      Z
M17021392                              CASH        FXABSENT                                                                                                                                                                                          ANNUAL LEAVE                                                                                                                                                                                    DAY OFF                                                                                                                                                                                         COMMENTS                                                                                                                                                                                                                                                                                                                                                                                       Z
Y17021300                                          FX00000000648752+000103
ZFX17021321073 SLAVE 2      SALES DATA                     NEXT INVOICE NO.  905939 0542
F093163490-048257         1612280951260000031ICSLAVE 2
T094801105-009017                                          1702131139190000041ICSLAVE 2
F094847007-000166         1702131138420000251ICSLAVE 2
F094847112-116038         1702131138420000011ICSLAVE 2
F094848018-000127         1702131138490000161ICSLAVE 2
X FX Slave 2 First invoice 905833 170213 Last invoice 905938 170213 Next invoice 905939 Total number of records 000000388 clbackup completed 21:07:05
