103692000103692               103692               170213FY     1400+00000+FY0000000876+0000000876+000000000+000000123+0000000990+0000000009+I20000000000+0000000990+Z
103692001103692028-000797     103692006001023812124SKEWERS 15cm 100PCE    0000001000+00000876+00000+0001T   00000876+0000000853          1400 NM8305               1BZ
103693000103693               103693               170213FY     1400+00000+FY0000010570+0000010570+000000000+000001482+0000012052+0000000000+I40000012052+0000000000+Z
103693001103693112-116069     103693006009681820277TCS CARRIER BAG JUMBO  0000001000+00000048+00000+0001T   00000048+0000000931          1400 NM8090               1BZ
103693002103693264-000922     103693000090159250012MAISTO CAR PULL-BACK   0000001000+00006139+00000+0001T   00007016+0008190931          1400 NM8710               1BZ
103693003103693220-005003     103693006003000566150ELOFF TEASPOONS 4PC    0000001000+00001753+00000+0001T   00001753+0000000931          1400 NM8300               1BZ
103693004103693002-000717     103693006001023755184CHOPPING-MATS FLEX 2PCE0000001000+00002630+00000+0001T   00002630+0000000931          1400 NM8300               1BZ
103694000103694               103694               170213FY     1400+00000+FY0000000788+0000000788+000000000+000000111+0000000890+0000000009+I20000000000+0000000890+Z
103694001103694566-000858     103694006001023760975STCKRS G/OUTLINE ASSTD 0000001000+00000788+00000+0001T   00000788+0000000931          1400 NM8130               1BZ
103695000103695               103695               170213FY     1400+00000+FY0000015323+0000015323+000000000+000002154+0000017477+0000000000+I40000017477+0000000000+Z
103695001103695006-001000     103695006003000093779HELIUM BALLOON FILL    0000010000+00000613+00000+0001T   00000613+0000000948          1400 NM8131               1BZ
103695002103695006-000171-H   103695006003000609574BALLOONS 1PC RED PRINT 0000003000+00000218+00000+0001T   00000218+0000000948          1400 NM8131               1BZ
103695003103695006-000171-K   103695006003000609697BALLOONS 1PC PURPLE PRN0000003000+00000218+00000+0001T   00000218+0000000948          1400 NM8131               1BZ
103695004103695006-000170-K   103695006003000609284BALLOONS 1PC PURPLE    0000004000+00000218+00000+0001T   00000218+0000000948          1400 NM8131               1BZ
103695005103695039-001023     103695006003000466337CANDLE TEA-LITE METALIC0000001000+00001753+00000+0001T   00001753+0000000948          1400 NM8510               1BZ
103695006103695039-000337     103695006003000293513B'DAY-CANDLES MUSICAL  0000001000+00002630+00000+0001T   00002630+0000000948          1400 NM8510               1BZ
103695007103695567-075466     103695009780263250954BK NOVEL ROMANCE       0000001000+00002630+00000+0001T   00002630+0000000948          1400 NM8757               1BZ
103696000103696               103696               170213FY     1400+00000+FY0000003507+0000003507+000000000+000000491+0000003990+0000000008+I20000000000+0000003990+Z
103696001103696113-000001     103696006003000088690TRAVEL MUG 400ml S/S   0000001000+00003507+00000+0001T   00003507+0000001008          1400 NM8305               1BZ
103697000103697               103697               170213FY     1400+00000+FY0000005957+0000005957+000000000+000000838+0000006790+0000000005+I20000000000+0000006790+Z
103697001103697039-000026     103697006001023551610C/TAPERED 25CM M/RED   0000004000+00001051+00000+0001T   00001051+0000001033          1400 NM8510               1BZ
103697002103697039-001023     103697006003000466337CANDLE TEA-LITE METALIC0000001000+00001753+00000+0001T   00001753+0000001033          1400 NM8510               1BZ
103698000103698               103698               170213FY     1400+00000+FY0000001753+0000001753+000000000+000000246+0000001990+0000000009+I20000000000+0000001990+Z
103698001103698200-003026     103698006003000276448REFUSE BAGS 10PCE GREEN0000001000+00001753+00000+0001T   00001753+0000001107          1400 NM8214               1BZ
103699000103699               103699               170213FY     1400+00000+FY0000002630+0000002630+000000000+000000369+0000002990+0000000009+I20000000000+0000002990+Z
103699001103699019-071601     103699006001023771995RIVER-STONES 1kg WHITE 0000001000+00002630+00000+0001T   00002630+0000001149          1400 NM8510               1BZ
103700000103700               103700               170213FY     1400+00000+FY0000009240+0000009240+000000000+000001297+0000010530+0000000007+I20000000000+0000010530+Z
103700002103700018-005009     103700006001023725608MUG W/PLUSH-BEAR LOVE  0000001000+00003507+00000+0001T   00003507+0000001156          1400 NM8515               1BZ
103700003103700006-001000     103700006003000093779HELIUM BALLOON FILL    0000005000+00000613+00000+0001T   00000613+0000001156          1400 NM8131               1BZ
103700004103700006-000171-H   103700006003000609574BALLOONS 1PC RED PRINT 0000002000+00000218+00000+0001T   00000218+0000001156          1400 NM8131               1BZ
103700005103700006-000171-D   103700006003000609291BALLOONS 1PC ORANGE PRN0000001000+00000218+00000+0001T   00000218+0000001156          1400 NM8131               1BZ
103700006103700006-000171-C   103700006003000609178BALLOONS 1PC D/GRN PRNT0000001000+00000218+00000+0001T   00000218+0000001156          1400 NM8131               1BZ
103700007103700006-000171-E   103700006003000609406BALLOONS 1PC BLUE PRNT 0000001000+00000218+00000+0001T   00000218+0000001156          1400 NM8131               1BZ
103700008103700077-000303     103700006001023593757GIFT-BAG PAPER MED     0000001000+00001578+00000+0001T   00001578+0000001156          1400 NM8112               1BZ
103701000103701               103701               170213FY     1400+00000+FY0000003943+0000003943+000000000+000000553+0000004496+0000000000+I40000004496+0000000000+Z
103701001103701018-000177     103701006001023797513MUG MINI LOVE ASSTD    0000001000+00000700+00000+0001T   00000700+0000001204          1400 NM8515               1BZ
103701002103701007-000566     103701006003000640898NOVELTY PHONE NOTE-PAD 0000001000+00001490+00000+0001T   00001490+0000001204          1400 NM8130               1BZ
103701003103701565-000056     103701006003000643325NOVELTY FINGER BEAMS   0000001000+00001753+00000+0001T   00001753+0000001204          1400 NM8745               1BZ
103702000103702               103702               170213FY     1400+00000+FY0000001752+0000001752+000000000+000000246+0000001990+0000000008+I20000000000+0000001990+Z
103702001103702077-000151     103702006008766114676GIFT-WRAP C/PHANE ASSTD0000002000+00000876+00000+0001T   00000876+0000001209          1400 NM8112               1BZ
103703000103703               103703               170213FY     1400+00000+FY0000002278+0000002278+000000000+000000320+0000002590+0000000008+I20000000000+0000002590+Z
103703001103703304-001204     103703006001023737984FLOWER OCC. TEDDY/ROSES0000001000+00001402+00000+0001T   00001490+0006471211          1400 NM8510               1BZ
103703002103703903-003050     103703008024431008239SWT CHOC CONE H/NUT 25G0000001000+00000876+00000+0001T   00000876+0000001211          1400 NM8150               1BZ
103704000103704               103704               170213FY     1400+00000+FY0000002100+0000002100+000000000+000000296+0000002396+0000000000+I40000002396+0000000000+Z
103704001103704903-000155     103704006009803374435SWT LOLLY I LUV U HEART0000004000+00000525+00000+0001T   00000525+0000001213          1400 NM8150               1BZ
103705000103705               103705               170213FY     1400+00000+FY0000003506+0000003506+000000000+000000492+0000003990+0000000008+I20000000000+0000003990+Z
103705001103705077-000115     103705006001023834225WRAP METALLIC 700mmx1m 0000001000+00001753+00000+0001T   00001753+0000001258          1400 NM8112               1BZ
103705002103705039-001023     103705006003000466337CANDLE TEA-LITE METALIC0000001000+00001753+00000+0001T   00001753+0000001258          1400 NM8510               1BZ
103706000103706               103706               170213FY     1400+00000+FY0000008064+0000008064+000000000+000001131+0000009190+0000000005+I20000000000+0000009190+Z
103706001103706077-000303     103706006001023593757GIFT-BAG PAPER MED     0000002000+00001578+00000+0001T   00001578+0000001305          1400 NM8112               1BZ
103706002103706304-001204     103706006001023737984FLOWER OCC. TEDDY/ROSES0000001000+00001402+00000+0001T   00001490+0006471305          1400 NM8510               1BZ
103706003103706903-000080     103706006001704014052SWT TUBE RASCALS 125G  0000002000+00001753+00000+0001T   00001753+0000001305          1400 NM8150               1BZ
103707000103707               103707               170213FY     1400+00000+FY0000002227+0000002227+000000000+000000312+0000002530+0000000009+I20000000000+0000002530+Z
103707001103707301-085000     103707006003000674299 ORN OCC. LOVE HEARTS  0000001000+00002192+00000+0001T   00002192+0000001322          1400 NM8505               1BZ
103707002103707112-116038     103707006009681820246TCS CARRIER BAG MIDI   0000001000+00000035+00000+0001T   00000035+0000001322          1400 NM8090               1BZ
103708000103708               103708               170213FY     1400+00000+FY0000000788+0000000788+000000000+000000111+0000000890+0000000009+I20000000000+0000000890+Z
103708001103708077-000010-C   103708006001023123879CREPE-PAPER RED        0000001000+00000788+00000+0001T   00000788+0000001347          1400 NM8112               1BZ
103709000103709               103709               170213FY     1400+00000+FY0000003507+0000003507+000000000+000000491+0000003990+0000000008+I20000000000+0000003990+Z
103709001103709018-005009     103709006001023725608MUG W/PLUSH-BEAR LOVE  0000001000+00003507+00000+0001T   00003507+0000001355          1400 NM8515               1BZ
103710000103710               103710               170213FY     1400+00000+FY0000002630+0000002630+000000000+000000369+0000002990+0000000009+I20000000000+0000002990+Z
103710001103710018-000129     103710006001023403353MUG OCC. LOVE V-SHAPE  0000001000+00002630+00000+0001T   00002630+0000001421          1400 NM8515               1BZ
103711000103711               103711               170213FY     1400+00000+FY0000012103+0000012103+000000000+000001695+0000013798+0000000000+I40000013798+0000000000+Z
103711001103711030-004015     103711006003000467624PLAQUE WDN SIGN 30X20CM0000001000+00009648+00000+0001T   00009648+0000001423          1400 NM8505               1BZ
103711002103711077-000380     103711006003000247585GIFT-BAG 33X45CM S/COL 0000001000+00002455+00000+0001T   00002455+0000001423          1400 NM8112               1BZ
103712000103712               103712               170213FY     1400+00000+FY0000008769+0000008769+000000000+000001229+0000009998+0000000000+I40000009998+0000000000+Z
103712001103712018-050000     103712006003000412679MUG OCC LOVE TWIN BEAR 0000001000+00006139+00000+0001T   00006139+0000001428          1400 NM8515               1BZ
103712002103712077-000270     103712006003000395453GIFT-BAG PPR JMB 33X45 0000001000+00002630+00000+0001T   00002630+0000001428          1400 NM8112               1BZ
103713000103713               103713               170213FY     1400+00000+FY0000002192+0000002192+000000000+000000307+0000002490+0000000009+I20000000000+0000002490+Z
103713001103713080-000127     103713006003000424351VALENTINES DAY 36x24CM 0000001000+00002192+00000+0001T   00002192+0000001432          1400 NM8112               1BZ
103714000103714               103714               170213FY     1400+00000+FY0000005923+0000005923+000000000+000000830+0000006750+0000000003+I20000000000+0000006750+Z
103714001103714366-002800     103714006001023903075DRESSUP PIRATE EYEPATCH0000001000+00000613+00000+0001T   00000613+0000001435          1400 NM8131               1BZ
103714002103714366-001100     103714006003000031443DRESS UP HAT PIRATE    0000001000+00005262+00000+0001T   00005262+0000001435          1400 NM8131               1BZ
103714003103714112-116069     103714006009681820277TCS CARRIER BAG JUMBO  0000001000+00000048+00000+0001T   00000048+0000001435          1400 NM8090               1BZ
103715000103715               103715               170213FY     1400+00000+FY0000001490+0000001490+000000000+000000209+0000001690+0000000009+I20000000000+0000001690+Z
103715001103715140-001004     103715006001023880932FLY-RIBBONS 4PCE PL    0000001000+00001490+00000+0001T   00001490+0000001443          1400 NM8830               1BZ
103716000103716               103716               170213FY     1400+00000+FY0000002455+0000002455+000000000+000000344+0000002790+0000000009+I20000000000+0000002790+Z
103716001103716077-000380     103716006003000247585GIFT-BAG 33X45CM S/COL 0000001000+00002455+00000+0001T   00002455+0000001455          1400 NM8112               1BZ
103717000103717               103717               170213FY     1400+00000+FY0000000788+0000000788+000000000+000000111+0000000890+0000000009+I20000000000+0000000890+Z
103717001103717077-000010-C   103717006001023123879CREPE-PAPER RED        0000001000+00000788+00000+0001T   00000788+0000001500          1400 NM8112               1BZ
103718000103718               103718               170213FY     1400+00000+FY0000003979+0000003979+000000000+000000558+0000004537+0000000000+I40000004537+0000000000+Z
103718001103718108-003023     103718006003000665471TUMBLER W/STRAW 550ml  0000001000+00002630+00000+0001T   00002630+0000001502          1400 NM8210               1BZ
103718002103718046-000012     103718006904708013062BATTERIES AA  CARD-OF-40000001000+00001314+00000+0001T   00001314+0000001502          1400 NM8312               1BZ
103718003103718112-116038     103718006009681820246TCS CARRIER BAG MIDI   0000001000+00000035+00000+0001T   00000035+0000001502          1400 NM8090               1BZ
103719000103719               103719               170213FY     1400+00000+FY0000000918+0000000918+000000000+000000129+0000001040+0000000007+I20000000000+0000001040+Z
103719001103719306-000020     103719006001023743145POCKET-TISSUES 10PCE   0000003000+00000306+00000+0001T   00000306+0000001509          1400 NM8200               1BZ
103720000103720               103720               170213FY     1400+00000+FY0000001753+0000001753+000000000+000000246+0000001990+0000000009+I20000000000+0000001990+Z
103720001103720077-000472     103720006003000330133G-BAG DESGNR LRG 25X32 0000001000+00001753+00000+0001T   00001753+0000001510          1400 NM8112               1BZ
103721000103721               103721               170213FY     1400+00000+FY0000000613+0000000613+000000000+000000086+0000000690+0000000009+I20000000000+0000000690+Z
103721001103721304-001011     103721006001023806727FLWR ROSE RED W/BEAR   0000001000+00000613+00000+0001T   00000788+0006471515          1400 NM8510               1BZ
103722000103722               103722               170213FY     1400+00000+FY0000003506+0000003506+000000000+000000492+0000003998+0000000000+I40000003998+0000000000+Z
103722001103722200-003026     103722006003000276448REFUSE BAGS 10PCE GREEN0000002000+00001753+00000+0001T   00001753+0000001522          1400 NM8214               1BZ
103723000103723               103723               170213FY     1400+00000+FY0000001753+0000001753+000000000+000000246+0000001990+0000000009+I20000000000+0000001990+Z
103723001103723200-003026     103723006003000276448REFUSE BAGS 10PCE GREEN0000001000+00001753+00000+0001T   00001753+0000001548          1400 NM8214               1BZ
103724000103724               103724               170213FY     1400+00000+FY0000005297+0000005297+000000000+000000742+0000006030+0000000009+I20000000000+0000006030+Z
103724001103724016-006524     103724006003000579358S/JAR GLS 750ml ASSTD  0000001000+00005262+00000+0001T   00005262+0000001549          1400 NM8300               1BZ
103724002103724112-116038     103724006009681820246TCS CARRIER BAG MIDI   0000001000+00000035+00000+0001T   00000035+0000001549          1400 NM8090               1BZ
103725000103725               103725               170213FY     1400+00000+FY0000001753+0000001753+000000000+000000246+0000001990+0000000009+I20000000000+0000001990+Z
103725001103725089-000030     103725006003000575671K/CHAIN LOVE MTL ASSTD 0000001000+00001753+00000+0001T   00001753+0000001550          1400 NM8205               1BZ
103726000103726               103726               170213FY     1400+00000+FY0000006486+0000006486+000000000+000000910+0000007390+0000000006+I20000000000+0000007390+Z
103726001103726077-000305     103726006003000395422GIFT-BAG WINE 10X35CM  0000001000+00001490+00000+0001T   00001490+0000001551          1400 NM8112               1BZ
103726002103726089-000027     103726006003000254071KEY CHAIN MOM/DAD ASSTD0000001000+00001753+00000+0001T   00001753+0000001551          1400 NM8205               1BZ
103726003103726304-001011     103726006001023806727FLWR ROSE RED W/BEAR   0000001000+00000613+00000+0001T   00000788+0006471551          1400 NM8510               1BZ
103726004103726018-000129     103726006001023403353MUG OCC. LOVE V-SHAPE  0000001000+00002630+00000+0001T   00002630+0000001551          1400 NM8515               1BZ
103727000103727               103727               170213FY     1400+00000+FY0000000613+0000000613+000000000+000000086+0000000690+0000000009+I20000000000+0000000690+Z
103727001103727304-001011     103727006001023806727FLWR ROSE RED W/BEAR   0000001000+00000613+00000+0001T   00000788+0006471554          1400 NM8510               1BZ
103728000103728               103728               170213FY     1400+00000+FY0000017103+0000017103+000000000+000002395+0000019498+0000000000+I40000019498+0000000000+Z
103728001103728002-000684     103728006001023693778K/TOOL TURNER H/HOUSE  0000001000+00002192+00000+0001T   00002192+0000001607          1400 NM8300               1BZ
103728002103728203-005011     103728006003000539888DRINKING GAME GLASS    0000001000+00014911+00000+0001T   00014911+0000001607          1400 NM8300               1BZ
103729000103729               103729               170213FY     1400+00000+FY0000005259+0000005259+000000000+000000738+0000005990+0000000007+I20000000000+0000005990+Z
103729001103729077-000900     103729006003000410446G/WRAP 700mmx1m ANIMAL 0000002000+00001753+00000+0001T   00001753+0000001608          1400 NM8112               1BZ
103729002103729080-000111     103729006003000252695CARD&ENVELPE - MUSICAL 0000001000+00001753+00000+0001T   00001753+0000001608          1400 NM8112               1BZ
103730000103730               103730               170213FY     1400+00000+FY0000005610+0000005610+000000000+000000787+0000006390+0000000007+I20000000000+0000006390+Z
103730001103730077-000299     103730006003000395576G/BAG 32x25cm LRG LOVE 0000002000+00001490+00000+0001T   00001490+0000001610          1400 NM8112               1BZ
103730002103730007-000602     103730006003000541270BOOK COVER 2M SOLID COL0000001000+00002630+00000+0001T   00002630+0000001610          1400 NM8130               1BZ
103731000103731               103731               170213FY     1400+00000+FY0000001490+0000001490+000000000+000000209+0000001690+0000000009+I20000000000+0000001690+Z
103731001103731019-071610     103731006001023904560PEBBLES WATER GEMS 10g 0000001000+00001490+00000+0001T   00001490+0000001613          1400 NM8510               1BZ
103732000103732               103732               170213FY     1400+00000+FY0000002980+0000002980+000000000+000000418+0000003390+0000000008+I20000000000+0000003390+Z
103732001103732565-000990     103732006001023673510NOVELTY STICKY SLAPPER 0000002000+00001490+00000+0001T   00001490+0000001614          1400 NM8745               1BZ
103733000103733               103733               170213FY     1400+00000+FY0000007927+0000007927+000000000+000001110+0000009037+0000000000+I40000009037+0000000000+Z
103733001103733006-000190     103733006003000685530BALLOONS LOVE 81x91cm  0000001000+00004385+00000+0001T   00004385+0000001622          1400 NM8131               1BZ
103733002103733031-000923     103733006001023669933P/FRAME BLK W/WORDS    0000001000+00003507+00000+0001T   00003507+0000001622          1400 NM8510               1BZ
103733003103733112-116038     103733006009681820246TCS CARRIER BAG MIDI   0000001000+00000035+00000+0001T   00000035+0000001622          1400 NM8090               1BZ
103734000103734               103734               170213FY     1400+00000+FY0000002665+0000002665+000000000+000000374+0000003030+0000000009+I20000000000+0000003030+Z
103734001103734018-000129     103734006001023403353MUG OCC. LOVE V-SHAPE  0000001000+00002630+00000+0001T   00002630+0000001631          1400 NM8515               1BZ
103734002103734112-116038     103734006009681820246TCS CARRIER BAG MIDI   0000001000+00000035+00000+0001T   00000035+0000001631          1400 NM8090               1BZ
103735000103735               103735               170213FY     1400+00000+FY0000001490+0000001490+000000000+000000209+0000001690+0000000009+I20000000000+0000001690+Z
103735001103735077-000299     103735006003000395576G/BAG 32x25cm LRG LOVE 0000001000+00001490+00000+0001T   00001490+0000001640          1400 NM8112               1BZ
103736000103736               103736               170213FY     1400+00000+FY0000009768+0000009768+000000000+000001369+0000011130+0000000007+I20000000000+0000011130+Z
103736001103736304-001204     103736006001023737984FLOWER OCC. TEDDY/ROSES0000001000+00001402+00000+0001T   00001490+0006471642          1400 NM8510               1BZ
103736002103736112-116038     103736006009681820246TCS CARRIER BAG MIDI   0000001000+00000035+00000+0001T   00000035+0000001642          1400 NM8090               1BZ
103736003103736018-000170     103736006001023775528MUG OCC. LOVE 2PC MINI 0000001000+00002192+00000+0001T   00002192+0000001642          1400 NM8515               1BZ
103736004103736039-809558     103736006003000344376CANDLE PILLAR 12CM 4AST0000001000+00006139+00000+0001T   00006139+0000001642          1400 NM8510               1BZ
103737000103737               103737               170213FY     1400+00000+FY0000004384+0000004384+000000000+000000614+0000004990+0000000008+I20000000000+0000004990+Z
103737001103737206-000100     103737006003000628063TONGS ICE COLD FINGERS 0000002000+00002192+00000+0001T   00002192+0000001642          1400 NM8321               1BZ
103738000103738               103738               170213FY     1400+00000+FY0000002892+0000002892+000000000+000000406+0000003290+0000000008+I20000000000+0000003290+Z
103738001103738077-000299     103738006003000395576G/BAG 32x25cm LRG LOVE 0000001000+00001490+00000+0001T   00001490+0000001646          1400 NM8112               1BZ
103738002103738304-001204     103738006001023737984FLOWER OCC. TEDDY/ROSES0000001000+00001402+00000+0001T   00001490+0006471646          1400 NM8510               1BZ
103739000103739               103739               170213FY     1400+00000+FY0000005873+0000005873+000000000+000000823+0000006696+0000000000+I40000006696+0000000000+Z
103739001103739077-000311     103739006001023608666GIFT-BAG 11X14CM GLOSS 0000001000+00000613+00000+0001T   00000613+0000001654          1400 NM8112               1BZ
103739002103739301-006010     103739006001023861245ORN BEAR POLY W/JERSEY 0000002000+00002192+00000+0001T   00002192+0000001654          1400 NM8505               1BZ
103739003103739903-000503     103739006001704006118SWT VAMPIRE FANGS 60G  0000001000+00000876+00000+0001T   00000876+0000001654          1400 NM8150               1BZ
103740000103740               103740               170213FY     1400+00000+FY0000001227+0000001227+000000000+000000172+0000001390+0000000009+I20000000000+0000001390+Z
103740001103740077-000602     103740006003000395545GIFT-BAG MED 18X23CM   0000001000+00001227+00000+0001T   00001227+0000001654          1400 NM8112               1BZ
103741000103741               103741               170213FY     1400+00000+FY0000001753+0000001753+000000000+000000246+0000001990+0000000009+I20000000000+0000001990+Z
103741001103741077-000472     103741006003000330133G-BAG DESGNR LRG 25X32 0000001000+00001753+00000+0001T   00001753+0000001659          1400 NM8112               1BZ
103742000103742               103742               170213FY     1400+00000+FY0000001927+0000001927+000000000+000000271+0000002198+0000000000+I40000002198+0000000000+Z
103742001103742080-000133     103742006003000535613CARD&ENV MINI ASTD DSGN0000001000+00000437+00000+0001T   00000437+0000001701          1400 NM8112               1BZ
103742002103742031-000878-B   103742006001023799012P/FRAME 13x18cm PL-SLID0000001000+00001490+00000+0001T   00001490+0000001701          1400 NM8510               1BZ
103743000103743               103743               170213FY     1400+00000+FY0000000437+0000000437+000000000+000000062+0000000490+0000000009+I20000000000+0000000490+Z
103743001103743080-000133-A   103743006003000647019MINI VALENTINES CARD   0000001000+00000437+00000+0001T   00000437+0000001701          1400 NM8112               1BZ
103744000103744               103744               170213FY     1400+00000+FY0000001578+0000001578+000000000+000000221+0000001790+0000000009+I20000000000+0000001790+Z
103744001103744028-000799     103744006001023812186SKEWERS BAMBOO 100PCE  0000001000+00001578+00000+0001T   00001578+0000001702          1400 NM8305               1BZ
103745000103745               103745               170213FY     1400+00000+FY0000002101+0000002101+000000000+000000296+0000002390+0000000007+I20000000000+0000002390+Z
103745001103745903-000137     103745006002099004130SWEET GS JELLY BEAN 60G0000001000+00000788+00000+0001T   00000788+0000001704          1400 NM8150               1BZ
103745002103745089-000192-A   103745006001023901774KEY-CHAIN ACRYLIC      0000001000+00000876+00000+0001T   00000876+0000001704          1400 NM8205               1BZ
103745003103745080-000133     103745006003000535613CARD&ENV MINI ASTD DSGN0000001000+00000437+00000+0001T   00000437+0000001704          1400 NM8112               1BZ
103746000103746               103746               170213FY     1400+00000+FY0000001085+0000001085+000000000+000000153+0000001230+0000000008+I20000000000+0000001230+Z
103746001103746007-000120     103746006009635831830BOOK DRAWING A4 24-PAGE0000001000+00000525+00000+0001T   00000525+0000001708          1400 NM8130               1BZ
103746002103746007-000145     103746006009635833087BK EXERCISE 72PG A4    0000001000+00000525+00000+0001T   00000525+0000001708          1400 NM8130               1BZ
103746003103746112-116038     103746006009681820246TCS CARRIER BAG MIDI   0000001000+00000035+00000+0001T   00000035+0000001708          1400 NM8090               1BZ
103747000103747               103747               170213FY     1400+00000+FY0000001402+0000001402+000000000+000000197+0000001590+0000000009+I20000000000+0000001590+Z
103747001103747304-001204     103747006001023737984FLOWER OCC. TEDDY/ROSES0000001000+00001402+00000+0001T   00001490+0006471711          1400 NM8510               1BZ
103748000103748               103748               170213FY     1400+00000+FY0000004419+0000004419+000000000+000000619+0000005030+0000000008+I20000000000+0000005030+Z
103748001103748018-000170     103748006001023775528MUG OCC. LOVE 2PC MINI 0000002000+00002192+00000+0001T   00002192+0000001721          1400 NM8515               1BZ
103748002103748112-116038     103748006009681820246TCS CARRIER BAG MIDI   0000001000+00000035+00000+0001T   00000035+0000001721          1400 NM8090               1BZ
103749000103749               103749               170213FY     1400+00000+FY0000004420+0000004420+000000000+000000619+0000005039+0000000000+I40000005039+0000000000+Z
103749001103749001-000175     103749006001023788108B/MUG GLS LOVE 380ML   0000001000+00004385+00000+0001T   00004385+0000001724          1400 NM8515               1BZ
103749002103749112-116038     103749006009681820246TCS CARRIER BAG MIDI   0000001000+00000035+00000+0001T   00000035+0000001724          1400 NM8090               1BZ
103750000103750               103750               170213FY     1400+00000+FY0000012325+0000012325+000000000+000001726+0000014050+0000000001+I20000000000+0000014050+Z
103750001103750203-000107     103750006001023820358ICE-BUCKET T/PLATE DECO0000001000+00008771+00000+0001T   00008771+0000001725          1400 NM8300               1BZ
103750002103750301-087001     103750006003000427789ORN OCCASION DAD TROPHY0000001000+00002192+00000+0001T   00002192+0000001725          1400 NM8505               1BZ
103750003103750903-000923     103750008714786126428SWT TURTLE DUO SPRAY   0000001000+00001314+00000+0001T   00001753+0008191725          1400 NM8150               1BZ
103750004103750112-116069     103750006009681820277TCS CARRIER BAG JUMBO  0000001000+00000048+00000+0001T   00000048+0000001725          1400 NM8090               1BZ
103751000103751               103751               170213FY     1400+00000+FY0000001753+0000001753+000000000+000000246+0000001990+0000000009+I20000000000+0000001990+Z
103751001103751077-000455     103751006003000285389G/BAG METALLIC LRG SOL 0000001000+00001753+00000+0001T   00001753+0000001727          1400 NM8112               1BZ
103752000103752               103752               170213FY     1400+00000+FY0000016711+0000016711+000000000+000002341+0000019052+0000000000+I40000019052+0000000000+Z
103752001103752368-000001     103752006003000097982Plush Bear 25cm        0000001000+00004385+00000+0001T   00004385+0000001729          1400 NM8745               1BZ
103752002103752368-000175     103752006003000270316PLUSH BEAR 4 ASSTD 18CM0000002000+00006139+00000+0001T   00006139+0000001729          1400 NM8745               1BZ
103752003103752112-116069     103752006009681820277TCS CARRIER BAG JUMBO  0000001000+00000048+00000+0001T   00000048+0000001729          1400 NM8090               1BZ
103753000103753               103753               170213FY     1400+00000+FY0000019949+0000019949+000000000+000002797+0000022746+0000000000+I40000022746+0000000000+Z
103753001103753112-116069     103753006009681820277TCS CARRIER BAG JUMBO  0000001000+00000048+00000+0001T   00000048+0000001731          1400 NM8090               1BZ
103753002103753306-000020     103753006001023743145POCKET-TISSUES 10PCE   0000002000+00000306+00000+0001T   00000306+0000001731          1400 NM8200               1BZ
103753003103753301-085007     103753006003000673698ORN OCC. LOVE S/PLAQUE 0000001000+00007893+00000+0001T   00007893+0000001731          1400 NM8505               1BZ
103753004103753018-000129     103753006001023403353MUG OCC. LOVE V-SHAPE  0000001000+00002630+00000+0001T   00002630+0000001731          1400 NM8515               1BZ
103753005103753018-005009     103753006001023725608MUG W/PLUSH-BEAR LOVE  0000001000+00003507+00000+0001T   00003507+0000001731          1400 NM8515               1BZ
103753006103753077-000115     103753006001023834225WRAP METALLIC 700mmx1m 0000003000+00001753+00000+0001T   00001753+0000001731          1400 NM8112               1BZ
103754000103754               103754               170213FY     1400+00000+FY0000001753+0000001753+000000000+000000246+0000001990+0000000009+I20000000000+0000001990+Z
103754001103754006-000120     103754006001023346889BALLOONS 10PC MIX COL  0000001000+00001753+00000+0001T   00001753+0000001732          1400 NM8131               1BZ
103755000103755               103755               170213FY     1400+00000+FY0000008851+0000008851+000000000+000001242+0000010093+0000000000+I40000010093+0000000000+Z
103755001103755006-000120     103755006001023346889BALLOONS 10PC MIX COL  0000001000+00001753+00000+0001T   00001753+0000001735          1400 NM8131               1BZ
103755002103755089-000027     103755006003000254071KEY CHAIN MOM/DAD ASSTD0000001000+00001753+00000+0001T   00001753+0000001735          1400 NM8205               1BZ
103755003103755089-000030     103755006003000575671K/CHAIN LOVE MTL ASSTD 0000001000+00001753+00000+0001T   00001753+0000001735          1400 NM8205               1BZ
103755004103755089-000027     103755006003000254071KEY CHAIN MOM/DAD ASSTD0000001000+00001753+00000+0001T   00001753+0000001735          1400 NM8205               1BZ
103755005103755006-001000     103755006003000093779HELIUM BALLOON FILL    0000003000+00000613+00000+0001T   00000613+0000001735          1400 NM8131               1BZ
103756000103756               103756               170213FY     1400+00000+FY0000006624+0000006624+000000000+000000928+0000007550+0000000002+I20000000000+0000007550+Z
103756001103756089-060027     103756006003000245871KEY-CHAIN HEART 6X6cm  0000001000+00003069+00000+0001T   00003069+0000001736          1400 NM8205               1BZ
103756002103756018-005009     103756006001023725608MUG W/PLUSH-BEAR LOVE  0000001000+00003507+00000+0001T   00003507+0000001736          1400 NM8515               1BZ
103756003103756112-116069     103756006009681820277TCS CARRIER BAG JUMBO  0000001000+00000048+00000+0001T   00000048+0000001736          1400 NM8090               1BZ
103757000103757               103757               170213FY     1400+00000+FY0000014904+0000014904+000000000+000002090+0000016994+0000000000+I40000016994+0000000000+Z
103757001103757079-003015     103757006003000634071PAINT ACRYLIC 75ml GOLD0000001000+00002630+00000+0001T   00002630+0000001739          1400 NM8130               1BZ
103757002103757079-003009     103757006003000448722A/TUBE 75ML NATURAL    0000001000+00001753+00000+0001T   00001753+0000001739          1400 NM8130               1BZ
103757003103757079-130010     103757006003000496624ART+CRAFT FOAM DOLLS   0000001000+00004385+00000+0001T   00004385+0000001739          1400 NM8130               1BZ
103757004103757079-000300     103757006001023902245PAINTSET LEARN TO PAINT0000002000+00002630+00000+0001T   00002630+0000001739          1400 NM8130               1BZ
103757005103757903-000520     103757006001704009898SWT GUMMY MINI SOUR 60g0000001000+00000876+00000+0001T   00000876+0000001739          1400 NM8150               1BZ
103758000103758               103758               170213FY     1400+00000+FY0000001314+0000001314+000000000+000000184+0000001490+0000000008+I20000000000+0000001490+Z
103758001103758006-000166-H   103758006003000608096BALLOONS HELIUM 6PC WHT0000001000+00001314+00000+0001T   00001314+0000001739          1400 NM8131               1BZ
103759000103759               103759               170213FY     1400+00000+FY0000005083+0000005083+000000000+000000713+0000005790+0000000006+I20000000000+0000005790+Z
103759001103759077-000010-D   103759006001023123886CREPE-PAPER WHITE      0000001000+00000788+00000+0001T   00000788+0000001741          1400 NM8112               1BZ
103759002103759077-000010-C   103759006001023123879CREPE-PAPER RED        0000001000+00000788+00000+0001T   00000788+0000001741          1400 NM8112               1BZ
103759003103759083-000077     103759006003000092581LIGHTER LONG-REACH 18cm0000001000+00003507+00000+0001T   00003507+0000001741          1400 NM8315               1BZ
103760000103760               103760               170213FY     1400+00000+FY0000010568+0000010568+000000000+000001481+0000012040+0000000009+I20000000000+0000012040+Z
103760001103760133-000017     103760006003000525171CLEANING-CLOTHS 5PCE   0000002000+00003507+00000+0001T   00003507+0000001743          1400 NM8212               1BZ
103760002103760112-116069     103760006009681820277TCS CARRIER BAG JUMBO  0000001000+00000048+00000+0001T   00000048+0000001743          1400 NM8090               1BZ
103760003103760200-003024     103760006001023657299REFUSE BAGS 20PCE BLACK0000002000+00001753+00000+0001T   00001753+0000001743          1400 NM8214               1BZ
103761000103761               103761               170213FY     1400+00000+FY0000004857+0000004857+000000000+000000681+0000005530+0000000008+I20000000000+0000005530+Z
103761001103761079-013102     103761006003000019601ART+CRAFT DIY PIPE-CLNR0000001000+00002192+00000+0001T   00002192+0000001746          1400 NM8130               1BZ
103761002103761006-006018     103761006001023735256PARTY-SPRAY HAIR ASSORT0000001000+00002630+00000+0001T   00002630+0000001746          1400 NM8131               1BZ
103761003103761112-116038     103761006009681820246TCS CARRIER BAG MIDI   0000001000+00000035+00000+0001T   00000035+0000001746          1400 NM8090               1BZ
103762000103762               103762               170213FY     1400+00000+FY0000005818+0000005818+000000000+000000817+0000006635+0000000000+I40000006635+0000000000+Z
103762001103762304-001011     103762006001023806727FLWR ROSE RED W/BEAR   0000001000+00000613+00000+0001T   00000788+0006471748          1400 NM8510               1BZ
103762002103762200-003024     103762006001023657299REFUSE BAGS 20PCE BLACK0000001000+00001753+00000+0001T   00001753+0000001748          1400 NM8214               1BZ
103762003103762903-000709     103762006002099007070SWT QUENCHERS FRUIT    0000003000+00001139+00000+0001T   00001139+0000001748          1400 NM8150               1BZ
103762004103762112-116038     103762006009681820246TCS CARRIER BAG MIDI   0000001000+00000035+00000+0001T   00000035+0000001748          1400 NM8090               1BZ
103763000103763               103763               170213FY     1400+00000+FY0000005643+0000005643+000000000+000000792+0000006430+0000000005+I20000000000+0000006430+Z
103763001103763077-000245     103763006001023759214GIFT-RIBBON METALLICx2 0000001000+00001227+00000+0001T   00001227+0000001749          1400 NM8112               1BZ
103763002103763089-000220     103763006003000677368KEY CHAIN+PEN+KNIFE    0000001000+00003069+00000+0001T   00003069+0000001749          1400 NM8205               1BZ
103763003103763077-000150-D   103763006003000054343GIFT-WRAP CELLPHANE CLR0000001000+00000876+00000+0001T   00000876+0000001749          1400 NM8112               1BZ
103763004103763006-000173-A   103763006003000636235BALLOONS HELIUM 1PC BLK0000002000+00000218+00000+0001T   00000218+0000001749          1400 NM8131               1BZ
103763005103763112-116038     103763006009681820246TCS CARRIER BAG MIDI   0000001000+00000035+00000+0001T   00000035+0000001749          1400 NM8090               1BZ
103764000103764               103764               170213FY     1400+00000+FY0000003506+0000003506+000000000+000000492+0000003998+0000000000+I40000003998+0000000000+Z
103764001103764077-000467     103764006003000329991GIFT-BAG STAMP 18X23CM 0000001000+00001753+00000+0001T   00001753+0000001754          1400 NM8112               1BZ
103764002103764080-000111     103764006003000252695CARD&ENVELPE - MUSICAL 0000001000+00001753+00000+0001T   00001753+0000001754          1400 NM8112               1BZ
103765000103765               103765               170213FY     1400+00000+FY0000006576+0000006576+000000000+000000921+0000007490+0000000007+I20000000000+0000007490+Z
103765001103765077-000310     103765006001023608635GIFT-BAG 18X23CM GLOSS 0000001000+00001314+00000+0001T   00001314+0000001800          1400 NM8112               1BZ
103765002103765079-000336     103765006003000670758SUPER FINE MARKER PENS 0000001000+00005262+00000+0001T   00005262+0000001800          1400 NM8130               1BZ
103766000103766               103766               170213FY     1400+00000+FY0000002630+0000002630+000000000+000000369+0000002990+0000000009+I20000000000+0000002990+Z
103766001103766033-000001     103766006003000344321TINTING BOWL & BRUSHES 0000001000+00002630+00000+0001T   00002630+0000001800          1400 NM8200               1BZ
103767000103767               103767               170213FY     1400+00000+FY0000028980+0000028980+000000000+000004062+0000033042+0000000000+I40000033042+0000000000+Z
103767001103767304-001204     103767006001023737984FLOWER OCC. TEDDY/ROSES0000001000+00001402+00000+0001T   00001490+0006471804          1400 NM8510               1BZ
103767002103767301-086006     103767006003000498918ORN OCCASION LOVE 4ASTD0000001000+00005262+00000+0001T   00005262+0000001804          1400 NM8505               1BZ
103767003103767077-000310     103767006001023608635GIFT-BAG 18X23CM GLOSS 0000001000+00001314+00000+0001T   00001314+0000001804          1400 NM8112               1BZ
103767004103767077-000602     103767006003000395545GIFT-BAG MED 18X23CM   0000001000+00001227+00000+0001T   00001227+0000001804          1400 NM8112               1BZ
103767005103767301-085007     103767006003000673698ORN OCC. LOVE S/PLAQUE 0000001000+00007893+00000+0001T   00007893+0000001804          1400 NM8505               1BZ
103767006103767018-005009     103767006001023725608MUG W/PLUSH-BEAR LOVE  0000001000+00003507+00000+0001T   00003507+0000001804          1400 NM8515               1BZ
103767007103767077-000470     103767006003000330171G-BAG DESGN SML 11X14CM0000001000+00001314+00000+0001T   00001314+0000001804          1400 NM8112               1BZ
103767008103767369-001138-B   103767006003000564972BABY BATH ROYAL DUCKS  0000001000+00002630+00000+0001T   00002630+0000001804          1400 NM8745               1BZ
103767009103767018-000129     103767006001023403353MUG OCC. LOVE V-SHAPE  0000001000+00002630+00000+0001T   00002630+0000001804          1400 NM8515               1BZ
103767010103767077-000454     103767006003000285266G/BAG METALLIC LRG EMB 0000001000+00001753+00000+0001T   00001753+0000001804          1400 NM8112               1BZ
103767011103767112-116069     103767006009681820277TCS CARRIER BAG JUMBO  0000001000+00000048+00000+0001T   00000048+0000001804          1400 NM8090               1BZ
103768000103768               103768               170213FY     1400+00000+FY0000003945+0000003945+000000000+000000553+0000004490+0000000008+I20000000000+0000004490+Z
103768001103768077-000926     103768006003000414178G/WRAP 700mmx2m LOVE   0000001000+00002192+00000+0001T   00002192+0000001805          1400 NM8112               1BZ
103768002103768077-000900     103768006003000410446G/WRAP 700mmx1m ANIMAL 0000001000+00001753+00000+0001T   00001753+0000001805          1400 NM8112               1BZ
103769000103769               103769               170213FY     1400+00000+FY0000004254+0000004254+000000000+000000598+0000004852+0000000000+I40000004852+0000000000+Z
103769001103769304-001204     103769006001023737984FLOWER OCC. TEDDY/ROSES0000003000+00001402+00000+0001T   00001490+0006471807          1400 NM8510               1BZ
103769002103769112-116069     103769006009681820277TCS CARRIER BAG JUMBO  0000001000+00000048+00000+0001T   00000048+0000001807          1400 NM8090               1BZ
103770000103770               103770               170213FY     1400+00000+FY0000001753+0000001753+000000000+000000246+0000001990+0000000009+I20000000000+0000001990+Z
103770001103770006-000120     103770006001023346889BALLOONS 10PC MIX COL  0000001000+00001753+00000+0001T   00001753+0000001807          1400 NM8131               1BZ
A17021300                                          11033993FYSLAVE 1                       NM83IC
C10370000                                          170213FY006-000107     11563214SLAVE 1     NM81IC0000000000+0000000000+0010000001000+
M17021302                              SHIEHAAM    FYFROM FLEURDAL FY                                                                                LAST TRANSACTION SLAVE 1 103770                                                                 TOTAL BANKING 13/02/2017 R3488.90                                                               THANKS
M17021391                              CASH        FYSLAVE 1                       Z-REPORT No.   211TOTAL (Sales - Refunds)           4526.92       CASH TO BE BANKED                 2240.60       DEBIT CARDS                          0.00       CREDIT CARDS                      2286.32       Z-READING                         4526.92       AIRTIME DEBIT CARD SALES             0.00       AIRTIME CARD SALES                   0.00       OVERS/UNDERS                         0.00       AIRTIME CASH SALES                   0.00       GIFT CARDS                           0.00       GIFT CARD CASH SALES                 0.00       T O T A L  CASH PAYOUTS              0.00                                                                                                                                                                                                                                                                                                                                                      Z
M17021392                              CASH        FYABSENT                                                                                                                                                                                          ANNUAL LEAVE                                                                                                                                                                                    DAY OFF                                                                                                                                                                                         COMMENTS                                                                                                                                                                                                                                                                                                                                                                                       Z
Y17021300                                          FY00000000397417+000079
ZFY17021319403 SLAVE 1      SALES DATA                     NEXT INVOICE NO.  103771 0211
X FY Slave 1 First invoice 103692 170213 Last invoice 103770 170213 Next invoice 103771 Total number of records 000000264 clbackup completed 19:40:13
