204316000204316               204316               170213FY     1400+00000+FY0000001753+0000001753+000000000+000000246+0000001990+0000000009+I20000000000+0000001990+Z
204316001204316200-003024     204316006001023657299REFUSE BAGS 20PCE BLACK0000001000+00001753+00000+0001T   00001753+0000000907          1400 JH4214               2BZ
204317000204317               204317               170213FY     1400+00000+FY0000001753+0000001753+000000000+000000246+0000001990+0000000009+I20000000000+0000001990+Z
204317001204317007-000094     204317006003000659289ENVELOPES WHT 5PK C4   0000001000+00001753+00000+0001T   00001753+0000000910          1400 JH4130               2BZ
204318000204318               204318               170213FY     1400+00000+FY0000001226+0000001226+000000000+000000172+0000001390+0000000008+I20000000000+0000001390+Z
204318001204318304-001011     204318006001023806727FLWR ROSE RED W/BEAR   0000002000+00000613+00000+0001T   00000788+0006470914          1400 JH4510               2BZ
204319000204319               204319               170213FY     1400+00000+FY0000002192+0000002192+000000000+000000307+0000002499+0000000000+I40000002499+0000000000+Z
204319001204319080-000127     204319006003000424351VALENTINES DAY 36x24CM 0000001000+00002192+00000+0001T   00002192+0000000951          1400 JH4112               2BZ
204320000204320               204320               170213FY     1400+00000+FY0000003980+0000003980+000000000+000000558+0000004530+0000000008+I20000000000+0000004530+Z
204320001204320033-006004     204320006001023703316SEWING-KIT IN-POUCH    0000001000+00002192+00000+0001T   00002192+0000001000          1400 JH4200               2BZ
204320002204320306-000021-C   204320006003000567294EARBUDS 300PCE IN TUB  0000001000+00001753+00000+0001T   00001753+0000001000          1400 JH4200               2BZ
204320003204320112-116038     204320006009681820246TCS CARRIER BAG MIDI   0000001000+00000035+00000+0001T   00000035+0000001000          1400 JH4090               2BZ
204321000204321               204321               170213FY     1400+00000+FY0000008098+0000008098+000000000+000001137+0000009230+0000000005+I20000000000+0000009230+Z
204321001204321903-000155     204321006009803374435SWT LOLLY I LUV U HEART0000002000+00000525+00000+0001T   00000525+0000001006          1400 JH4150               2BZ
204321002204321071-003863     204321006003000145102PENCIL NOVELTY ERASER  0000001000+00002630+00000+0001T   00002630+0000001006          1400 JH4130               2BZ
204321003204321079-013101     204321006001023863706CRAFT SET DIY PIPE-CLNR0000001000+00002630+00000+0001T   00002630+0000001006          1400 JH4130               2BZ
204321004204321079-013099     204321006003000081875ART+CRAFT EYES ASSTD   0000001000+00001753+00000+0001T   00001753+0000001006          1400 JH4130               2BZ
204321005204321112-116038     204321006009681820246TCS CARRIER BAG MIDI   0000001000+00000035+00000+0001T   00000035+0000001006          1400 JH4090               2BZ
204322000204322               204322               170213FY     1400+00000+FY0000002454+0000002454+000000000+000000344+0000002790+0000000008+I20000000000+0000002790+Z
204322001204322077-000245     204322006001023759214GIFT-RIBBON METALLICx2 0000002000+00001227+00000+0001T   00001227+0000001006          1400 JH4112               2BZ
204323000204323               204323               170213FY     1400+00000+FY0000000437+0000000437+000000000+000000062+0000000490+0000000009+I20000000000+0000000490+Z
204323001204323083-000049     204323004891035200024CIG-LIGHTER DISPOSABLE 0000001000+00000437+00000+0001T   00000437+0000001013          1400 JH4315               2BZ
204324000204324               204324               170213FY     1400+00000+FY0000004383+0000004383+000000000+000000614+0000004990+0000000007+I20000000000+0000004990+Z
204324001204324050-000363-Z   204324006001023475282PADLOCK IRON 32mm CARD 0000001000+00002192+00000+0001T   00002192+0000001014          1400 JH4855               2BZ
204324002204324083-000054     204324006001023729071LIGHTER REFILLABLE LED 0000001000+00001578+00000+0001T   00001578+0000001014          1400 JH4315               2BZ
204324003204324047-000001-AA  204324006001023723529INS-TAPE WHITE 18mmx10m0000001000+00000613+00000+0001T   00000613+0000001014          1400 JH4880               2BZ
204325000204325               204325               170213FY     1400+00000+FY0000001050+0000001050+000000000+000000148+0000001190+0000000008+I20000000000+0000001190+Z
204325001204325903-000155     204325006009803374435SWT LOLLY I LUV U HEART0000002000+00000525+00000+0001T   00000525+0000001023          1400 JH4150               2BZ
204326000204326               204326               170213FY     1400+00000+FY0000001753+0000001753+000000000+000000246+0000001990+0000000009+I20000000000+0000001990+Z
204326001204326369-001138     204326006003000555185VINYL 8.5cm THEMED DUCK0000001000+00001753+00000+0001T   00002630+0008141039          1400 WS4745               2CZ
204327000204327               204327               170213FY     1400+00000+FY0000003897+0000003897+000000000+000000548+0000004440+0000000005+I20000000000+0000004440+Z
204327001204327077-000239     204327006003000160419GIFT-RIBBON ROLL PEARL 0000001000+00001753+00000+0001T   00001753+0000001051          1400 WS4112               2CZ
204327002204327077-000304     204327006001023483232GIFT-BAG 25X32CM E/DAY 0000001000+00001490+00000+0001T   00001490+0000001051          1400 WS4112               2CZ
204327003204327006-000171-A   204327006003000608935BALLOONS 1PC PINK PRNT 0000003000+00000218+00000+0001T   00000218+0000001051          1400 WS4131               2CZ
204328000204328               204328               170213FY     1400+00000+FY0000003507+0000003507+000000000+000000491+0000003998+0000000000+I40000003998+0000000000+Z
204328001204328162-093205     204328006001492932057#TAG KIDS BEST NK      0000001000+00003507+00000+0001T   00003507+0000001053          1400 WS4160               2CZ
204329000204329               204329               170213FY     1400+00000+FY0000000876+0000000876+000000000+000000123+0000000990+0000000009+I20000000000+0000000990+Z
204329001204329567-014132     204329006003000560028BOOK COLOURING 24 PAGE 0000001000+00000876+00000+0001T   00000876+0000001056          1400 WS4757               2CZ
204330000204330               204330               170213FY     1400+00000+FY0000005260+0000005260+000000000+000000737+0000005990+0000000007+I20000000000+0000005990+Z
204330001204330903-000615     204330006003000617456SWT JET PLANE J/B 5G   0000001000+00001753+00000+0001T   00001753+0000001154          1400 WS4150               2CZ
204330002204330567-010159     204330006003000484881BOOK TOP ASSTD CHILDREN0000001000+00003507+00000+0001T   00003507+0000001154          1400 WS4757               2CZ
204331000204331               204331               170213FY     1400+00000+FY0000003946+0000003946+000000000+000000553+0000004499+0000000000+I40000004499+0000000000+Z
204331001204331072-020256     204331006001023775993PET DOG TOY W/ROPE     0000001000+00003946+00000+0001T   00003946+0000001217          1400 WS4870               2CZ
204332000204332               204332               170213FY     1400+00000+FY0000013371+0000013371+000000000+000001876+0000015247+0000000000+I40000015247+0000000000+Z
204332001204332903-000155     204332006009803374435SWT LOLLY I LUV U HEART0000002000+00000525+00000+0001T   00000525+0000001224          1400 WS4150               2CZ
204332002204332104-000031     204332006003000614950BASKET PL 27x18x12cm   0000001000+00002630+00000+0001T   00002630+0000001224          1400 WS4210               2CZ
204332003204332030-000031-A   204332006003000457588PLAQUE W/WORDS ASSTD   0000001000+00004385+00000+0001T   00004823+0006471224          1400 WS4505               2CZ
204332004204332077-000151     204332006008766114676GIFT-WRAP C/PHANE ASSTD0000002000+00000876+00000+0001T   00000876+0000001224          1400 WS4112               2CZ
204332005204332077-000324     204332006001023677594GIFT-BAG 33X45CM E/D FL0000002000+00001753+00000+0001T   00001753+0000001224          1400 WS4112               2CZ
204332006204332112-116069     204332006003000535064TCS CARRIER BAG JUMBO  0000001000+00000048+00000+0001T   00000048+0000001224          1400 WS4090               2CZ
204333000204333               204333               170213FY     1400+00000+FY0000000876+0000000876+000000000+000000123+0000000990+0000000009+I20000000000+0000000990+Z
204333001204333077-000011-D   204333006001023808554TISSUE-WRAP WHITE 10PCE0000001000+00000876+00000+0001T   00000876+0000001233          1400 WS4112               2CZ
204334000204334               204334               170213FY     1400+00000+FY0000004208+0000004208+000000000+000000590+0000004798+0000000000+I40000004798+0000000000+Z
204334001204334077-000270     204334006003000395453GIFT-BAG PPR JMB 33X45 0000001000+00002630+00000+0001T   00002630+0000001235          1400 WS4112               2CZ
204334002204334077-000303     204334006001023593757GIFT-BAG PAPER MED     0000001000+00001578+00000+0001T   00001578+0000001235          1400 WS4112               2CZ
204335000204335               204335               170213FY     1400+00000+FY0000001753+0000001753+000000000+000000246+0000001990+0000000009+I20000000000+0000001990+Z
204335001204335007-000551     204335006001023848079NOTE-PAD SHOP-LIST ASST0000001000+00001753+00000+0001T   00001753+0000001240          1400 WS4130               2CZ
204336000204336               204336               170213FY     1400+00000+FY0000010085+0000010085+000000000+000001413+0000011490+0000000008+I20000000000+0000011490+Z
204336001204336032-000333     204336006003000220236MIRROR WALL 4PC SET    0000001000+00003946+00000+0001T   00003946+0000001241          1400 WS4510               2CZ
204336002204336566-000316     204336006003000521821STICKERS MIRRORS HOME  0000001000+00006139+00000+0001T   00006139+0000001241          1400 WS4130               2CZ
204337000204337               204337               170213FY     1400+00000+FY0000005697+0000005697+000000000+000000799+0000006490+0000000006+I20000000000+0000006490+Z
204337001204337077-000289     204337006001023901996GIFT BOX 20x25x11cm    0000001000+00001753+00000+0001T   00001753+0000001245          1400 WS4112               2CZ
204337002204337036-000606     204337006003000322213WASHING PEGS PACK 20   0000001000+00000876+00000+0001T   00001314+0008191245          1400 WS4212               2CZ
204337003204337566-000068     204337006003000418046POP UP LOVE 2 ASSTD    0000001000+00002192+00000+0001T   00002192+0000001245          1400 WS4130               2CZ
204337004204337036-000606     204337006003000322213WASHING PEGS PACK 20   0000001000+00000876+00000+0001T   00001314+0008191245          1400 WS4212               2CZ
204338000204338               204338               170213FY     1400+00000+FY0000006050+0000006050+000000000+000000848+0000006898+0000000000+I40000006898+0000000000+Z
204338001204338018-019000     204338006003000557288MUG OCC. LOVE JUMBO    0000001000+00005262+00000+0001T   00005262+0000001250          1400 WS4515               2CZ
204338002204338903-000200     204338006009826020234SWT CHOC RP CHOCO 23G  0000001000+00000788+00000+0001T   00000788+0000001250          1400 WS4150               2CZ
204339000204339               204339               170213FY     1400+00000+FY0000001753+0000001753+000000000+000000246+0000001999+0000000000+I40000001999+0000000000+Z
204339001204339077-000472     204339006003000330133G-BAG DESGNR LRG 25X32 0000001000+00001753+00000+0001T   00001753+0000001313          1400 WS4112               2CZ
204340000204340               204340               170213FY     1400+00000+FY0000002629+0000002629+000000000+000000369+0000002990+0000000008+I20000000000+0000002990+Z
204340001204340200-003024     204340006001023657299REFUSE BAGS 20PCE BLACK0000001000+00001753+00000+0001T   00001753+0000001313          1400 WS4214               2CZ
204340002204340077-000011-D   204340006001023808554TISSUE-WRAP WHITE 10PCE0000001000+00000876+00000+0001T   00000876+0000001313          1400 WS4112               2CZ
204341000204341               204341               170213FY     1400+00000+FY0000003069+0000003069+000000000+000000430+0000003490+0000000009+I20000000000+0000003490+Z
204341001204341072-020311     204341006003000494132PET DOG TOY VINYL BALL 0000001000+00003069+00000+0001T   00003069+0000001327          1400 WS4870               2CZ
204342000204342               204342               170213FY     1400+00000+FY0000001490+0000001490+000000000+000000209+0000001690+0000000009+I20000000000+0000001690+Z
204342001204342077-000299     204342006003000395576G/BAG 32x25cm LRG LOVE 0000001000+00001490+00000+0001T   00001490+0000001523          1400 WS4112               2CZ
204343000204343               204343               170213FY     1400+00000+FY0000000035+0000000035+000000000+000000005+0000000040+0000000000+I20000000000+0000000040+Z
204343001204343112-116038     204343006009681820246TCS CARRIER BAG MIDI   0000001000+00000035+00000+0001T   00000035+0000001523          1400 WS4090               2CZ
204344000204344               204344               170213FY     1400+00000+FY0000001752+0000001752+000000000+000000246+0000001990+0000000008+I20000000000+0000001990+Z
204344001204344002-021057     204344006001023812032T/PICKS UMBRELLAS 10PCE0000002000+00000876+00000+0001T   00000876+0000001534          1400 WS4300               2CZ
204345000204345               204345               170213FY     1400+00000+FY0000004997+0000004997+000000000+000000701+0000005690+0000000008+I20000000000+0000005690+Z
204345001204345200-003026     204345006003000276448REFUSE BAGS 10PCE GREEN0000001000+00001753+00000+0001T   00001753+0000001536          1400 WS4214               2CZ
204345002204345046-000400     204345006001023804983BATT ALKALINE 1.5Vx30PC0000001000+00003244+00000+0001T   00003244+0000001536          1400 WS4312               2CZ
204346000204346               204346               170213FY     1400+00000+FY0000001840+0000001840+000000000+000000258+0000002090+0000000008+I20000000000+0000002090+Z
204346001204346016-006505     204346006001023617576S/JAR GLS MINI CLIP    0000001000+00001490+00000+0001T   00001490+0000001539          1400 WS4300               2CZ
204346002204346903-000159     204346006003000417629SWT LB SMALL DUMMIE    0000001000+00000350+00000+0001T   00000350+0000001539          1400 WS4150               2CZ
204347000204347               204347               170213FY     1400+00000+FY0000010525+0000010525+000000000+000001474+0000011990+0000000009+I20000000000+0000011990+Z
204347001204347203-005002     204347006003000384006DRINK. GAME SHOOTERS   0000001000+00010525+00000+0001T   00010525+0000001544          1400 WS4300               2CZ
204348000204348               204348               170213FY     1400+00000+FY0000005084+0000005084+000000000+000000713+0000005790+0000000007+I20000000000+0000005790+Z
204348001204348089-000220     204348006003000677368KEY CHAIN+PEN+KNIFE    0000001000+00003069+00000+0001T   00003069+0000001545          1400 WS4205               2CZ
204348002204348077-000452     204348006003000284986G/BAG METALLIC MED EMB 0000001000+00001490+00000+0001T   00001490+0000001545          1400 WS4112               2CZ
204348003204348903-000151     204348006009803374411SWT SML RND R/BOW LOLLY0000001000+00000525+00000+0001T   00000525+0000001545          1400 WS4150               2CZ
204349000204349               204349               170213FY     1400+00000+FY0000005261+0000005261+000000000+000000737+0000005990+0000000008+I20000000000+0000005990+Z
204349001204349264-000916     204349000090159151012MAISTO BURNING KEY CARS0000001000+00004385+00000+0001T   00004385+0000001558          1400 WS4710               2CZ
204349002204349903-000220     204349006001704007368SWT JELLY BEANS 60G    0000001000+00000876+00000+0001T   00000876+0000001558          1400 WS4150               2CZ
204350000204350               204350               170213FY     1400+00000+FY0000005435+0000005435+000000000+000000762+0000006190+0000000007+I20000000000+0000006190+Z
204350001204350071-081110     204350006936198405454CORRECTION FLUID PEN   0000001000+00001490+00000+0001T   00001490+0000001603          1400 WS4130               2CZ
204350002204350079-006496     204350006003000160105GLITTER SHAKERS        0000001000+00001753+00000+0001T   00001753+0000001603          1400 WS4130               2CZ
204350003204350566-000991     204350000721129013121STICKERS GLOW-IN-DARK  0000001000+00002192+00000+0001T   00002192+0000001603          1400 WS4130               2CZ
204351000204351               204351               170213FY     1400+00000+FY0000000876+0000000876+000000000+000000123+0000000990+0000000009+I20000000000+0000000990+Z
204351001204351366-007601     204351006003000655472DRESS UP MASK THEATRICA0000001000+00000876+00000+0001T   00000876+0000001704          1400 WS4131               2CZ
204352000204352               204352               170213FY     1400+00000+FY0000003507+0000003507+000000000+000000491+0000003990+0000000008+I20000000000+0000003990+Z
204352001204352018-005009     204352006001023725608MUG W/PLUSH-BEAR LOVE  0000001000+00003507+00000+0001T   00003507+0000001705          1400 WS4515               2CZ
204353000204353               204353               170213FY     1400+00000+FY0000000613+0000000613+000000000+000000086+0000000690+0000000009+I20000000000+0000000690+Z
204353001204353077-000311     204353006001023608666GIFT-BAG 11X14CM GLOSS 0000001000+00000613+00000+0001T   00000613+0000001706          1400 WS4112               2CZ
204354000204354               204354               170213FY     1400+00000+FY0000001314+0000001314+000000000+000000184+0000001490+0000000008+I20000000000+0000001490+Z
204354001204354078-009100     204354006008741002349ALL-CLEAR GLUE 25ml CRD0000001000+00001314+00000+0001T   00001314+0000001711          1400 WS4810               2CZ
204355000204355               204355               170213FY     1400+00000+FY0000006139+0000006139+000000000+000000860+0000006999+0000000000+I40000006999+0000000000+Z
204355001204355039-000798     204355006001023617774CANDLES TEALITE BOX-50 0000001000+00006139+00000+0001T   00006139+0000001714          1400 WS4510               2CZ
204356000204356               204356               170213FY     1400+00000+FY0000006174+0000006174+000000000+000000865+0000007039+0000000000+I40000007039+0000000000+Z
204356001204356003-009203     204356006003000405848ORN STONE WELCOME 24CM 0000001000+00006139+00000+0001T   00006139+0000001716          1400 WS4505               2CZ
204356002204356112-116038     204356006003000534906TCS CARRIER BAG MIDI   0000001000+00000035+00000+0001T   00000035+0000001716          1400 WS4090               2CZ
204357000204357               204357               170213FY     1400+00000+FY0000008805+0000008805+000000000+000001233+0000010038+0000000000+I40000010038+0000000000+Z
204357001204357031-080508     204357006001023802415P/FRAME PL 22X11CM LOVE0000001000+00004385+00000+0001T   00004385+0000001732          1400 WS4510               2CZ
204357002204357018-030000     204357006003000421060MUG OCCASIONS LOVE 2PCE0000001000+00004385+00000+0001T   00004385+0000001732          1400 WS4515               2CZ
204357003204357112-116038     204357006003000534906TCS CARRIER BAG MIDI   0000001000+00000035+00000+0001T   00000035+0000001732          1400 WS4090               2CZ
204358000204358               204358               170213FY     1400+00000+FY0000013855+0000013855+000000000+000001941+0000015796+0000000000+I40000015796+0000000000+Z
204358001204358077-000315     204358006003000181186GIFT-BAG 20x28cm MATT  0000001000+00001578+00000+0001T   00001578+0000001740          1400 WS4112               2CZ
204358002204358018-050000     204358006003000412679MUG OCC LOVE TWIN BEAR 0000001000+00006139+00000+0001T   00006139+0000001740          1400 WS4515               2CZ
204358003204358077-000330     204358006001023745408GIFT-BAG 18X23CM WEDGE 0000001000+00001753+00000+0001T   00001753+0000001740          1400 WS4112               2CZ
204358004204358368-006004     204358006003000671076PLUSH DOLPHIN          0000001000+00004385+00000+0001T   00004385+0000001740          1400 WS4745               2CZ
204359000204359               204359               170213FY     1400+00000+FY0000002630+0000002630+000000000+000000369+0000002990+0000000009+I20000000000+0000002990+Z
204359001204359077-000270     204359006003000395453GIFT-BAG PPR JMB 33X45 0000001000+00002630+00000+0001T   00002630+0000001749          1400 WS4112               2CZ
204360000204360               204360               170213FY     1400+00000+FY0000002630+0000002630+000000000+000000369+0000002990+0000000009+I20000000000+0000002990+Z
204360001204360031-086219     204360006001023761729P/FRAME 9x13cm CURVED  0000001000+00002630+00000+0001T   00002630+0000001750          1400 WS4510               2CZ
204361000204361               204361               170213FY     1400+00000+FY0000000700+0000000700+000000000+000000098+0000000790+0000000008+I20000000000+0000000790+Z
204361001204361903-000121     204361006002099001689SWT GS ZILLIONS SOURS  0000001000+00000700+00000+0001T   00000700+0000001750          1400 WS4150               2CZ
A17021300                                          11042397FYSLAVE 2                       WS42IC
A17021301                                          11072963FYSLAVE 2                       WS43IC
A17021302                                          11232872FYSLAVE 2                       WS42IC
A17021303                                          11240800FYSLAVE 2                       WS42IC
A17021304                                          12542092FYSLAVE 2                       WS42IC
C20433300                                          170213FY077-000011-X   12333738SLAVE 2     WS42IC0000000000+0000000000+0010000001000+
M17021301                              IT DEPT     FYFROM FLEURDAL FY                                                                                LAST TRANSACTION SLAVE 2 204360                                                                                                                                                                 THANKS
M17021391                              CASH        FYSLAVE 2                       Z-REPORT No.   216TOTAL (Sales - Refunds)           2046.40       CASH TO BE BANKED                 1248.30       DEBIT CARDS                          0.00       CREDIT CARDS                       798.10       Z-READING                         2046.40       AIRTIME DEBIT CARD SALES             0.00       AIRTIME CARD SALES                   0.00       OVERS/UNDERS                         0.00       AIRTIME CASH SALES                   0.00       GIFT CARDS                           0.00       GIFT CARD CASH SALES                 0.00       T O T A L  CASH PAYOUTS              0.00                                                                                                                                                                                                                                                                                                                                                      Z
M17021392                              CASH        FYABSENT                                                                                                                                                                                          ANNUAL LEAVE                                                                                                                                                                                    DAY OFF                                                                                                                                                                                         COMMENTS                                                                                                                                                                                                                                                                                                                                                                                       Z
Y17021300                                          FY00000000179718+000046
ZFY17021319403 SLAVE 2      SALES DATA                     NEXT INVOICE NO.  204362 0216
L54277200324902-001-004       FY1702061510261ICWAYNE TAYLOR                                                                                                                                                                                                                                                                                                                                                                                                                                                                                                                                                                                                                                                                                                                                                                                                                                                                                                                                                                                         Z
L54277200324902-002-004       FY1702061510361ICWAYNE TAYLOR                                                                                                                                                                                                                                                                                                                                                                                                                                                                                                                                                                                                                                                                                                                                                                                                                                                                                                                                                                                         Z
L54277200324902-003-004       FY1702061512201ICWAYNE TAYLOR                                                                                                                                                                                                                                                                                                                                                                                                                                                                                                                                                                                                                                                                                                                                                                                                                                                                                                                                                                                         Z
L54277200324902-004-004       FY1702061512581ICWAYNE TAYLOR                                                                                                                                                                                                                                                                                                                                                                                                                                                                                                                                                                                                                                                                                                                                                                                                                                                                                                                                                                                         Z
L54343600347208-001-004       FY1702131144001ICWAYNE TAYLOR                                                                                                                                                                                                                                                                                                                                                                                                                                                                                                                                                                                                                                                                                                                                                                                                                                                                                                                                                                                         Z
L54343600347208-002-004       FY1702131141461ICWAYNE TAYLOR                                                                                                                                                                                                                                                                                                                                                                                                                                                                                                                                                                                                                                                                                                                                                                                                                                                                                                                                                                                         Z
L54343600347208-003-004       FY1702131139121ICWAYNE TAYLOR                                                                                                                                                                                                                                                                                                                                                                                                                                                                                                                                                                                                                                                                                                                                                                                                                                                                                                                                                                                         Z
L54343600347208-004-004       FY1702131136271ICWAYNE TAYLOR                                                                                                                                                                                                                                                                                                                                                                                                                                                                                                                                                                                                                                                                                                                                                                                                                                                                                                                                                                                         Z
L54360500348135-002-005       FY1702131144351ICWAYNE TAYLOR                                                                                                                                                                                                                                                                                                                                                                                                                                                                                                                                                                                                                                                                                                                                                                                                                                                                                                                                                                                         Z
L54360500348135-005-005       FY1702131138061ICWAYNE TAYLOR                                                                                                                                                                                                                                                                                                                                                                                                                                                                                                                                                                                                                                                                                                                                                                                                                                                                                                                                                                                         Z
L54701800325479-001-003       FY1702061508571ICWAYNE TAYLOR                                                                                                                                                                                                                                                                                                                                                                                                                                                                                                                                                                                                                                                                                                                                                                                                                                                                                                                                                                                         Z
L54701800325479-002-003       FY1702061507441ICWAYNE TAYLOR                                                                                                                                                                                                                                                                                                                                                                                                                                                                                                                                                                                                                                                                                                                                                                                                                                                                                                                                                                                         Z
L54701800325479-003-003       FY1702061513081ICWAYNE TAYLOR                                                                                                                                                                                                                                                                                                                                                                                                                                                                                                                                                                                                                                                                                                                                                                                                                                                                                                                                                                                         Z
L54703800326003-001-005       FY1702131138391ICWAYNE TAYLOR                                                                                                                                                                                                                                                                                                                                                                                                                                                                                                                                                                                                                                                                                                                                                                                                                                                                                                                                                                                         Z
L54703800326003-003-005       FY1702131142281ICWAYNE TAYLOR                                                                                                                                                                                                                                                                                                                                                                                                                                                                                                                                                                                                                                                                                                                                                                                                                                                                                                                                                                                         Z
L54703800326003-004-005       FY1702131138451ICWAYNE TAYLOR                                                                                                                                                                                                                                                                                                                                                                                                                                                                                                                                                                                                                                                                                                                                                                                                                                                                                                                                                                                         Z
L54703800326003-005-005       FY1702131143321ICWAYNE TAYLOR                                                                                                                                                                                                                                                                                                                                                                                                                                                                                                                                                                                                                                                                                                                                                                                                                                                                                                                                                                                         Z
L54703900326004-001-005       FY1702131139221ICWAYNE TAYLOR                                                                                                                                                                                                                                                                                                                                                                                                                                                                                                                                                                                                                                                                                                                                                                                                                                                                                                                                                                                         Z
L54703900326004-002-005       FY1702131137301ICWAYNE TAYLOR                                                                                                                                                                                                                                                                                                                                                                                                                                                                                                                                                                                                                                                                                                                                                                                                                                                                                                                                                                                         Z
L54703900326004-003-005       FY1702131136361ICWAYNE TAYLOR                                                                                                                                                                                                                                                                                                                                                                                                                                                                                                                                                                                                                                                                                                                                                                                                                                                                                                                                                                                         Z
L54703900326004-005-005       FY1702131142031ICWAYNE TAYLOR                                                                                                                                                                                                                                                                                                                                                                                                                                                                                                                                                                                                                                                                                                                                                                                                                                                                                                                                                                                         Z
L54704000326989-001-006       FY1702131141231ICWAYNE TAYLOR                                                                                                                                                                                                                                                                                                                                                                                                                                                                                                                                                                                                                                                                                                                                                                                                                                                                                                                                                                                         Z
L54704000326989-002-006       FY1702131141571ICWAYNE TAYLOR                                                                                                                                                                                                                                                                                                                                                                                                                                                                                                                                                                                                                                                                                                                                                                                                                                                                                                                                                                                         Z
L54704000326989-004-006       FY1702131137351ICWAYNE TAYLOR                                                                                                                                                                                                                                                                                                                                                                                                                                                                                                                                                                                                                                                                                                                                                                                                                                                                                                                                                                                         Z
L54704100326573-001-001       FY1702131139561ICWAYNE TAYLOR                                                                                                                                                                                                                                                                                                                                                                                                                                                                                                                                                                                                                                                                                                                                                                                                                                                                                                                                                                                         Z
L54778900325974-001-006       FY1702061505311ICWAYNE TAYLOR                                                                                                                                                                                                                                                                                                                                                                                                                                                                                                                                                                                                                                                                                                                                                                                                                                                                                                                                                                                         Z
L54778900325974-002-006       FY1702061507541ICWAYNE TAYLOR                                                                                                                                                                                                                                                                                                                                                                                                                                                                                                                                                                                                                                                                                                                                                                                                                                                                                                                                                                                         Z
L54778900325974-003-006       FY1702061513261ICWAYNE TAYLOR                                                                                                                                                                                                                                                                                                                                                                                                                                                                                                                                                                                                                                                                                                                                                                                                                                                                                                                                                                                         Z
L54778900325974-004-006       FY1702061505511ICWAYNE TAYLOR                                                                                                                                                                                                                                                                                                                                                                                                                                                                                                                                                                                                                                                                                                                                                                                                                                                                                                                                                                                         Z
L54778900325974-005-006       FY1702061507151ICWAYNE TAYLOR                                                                                                                                                                                                                                                                                                                                                                                                                                                                                                                                                                                                                                                                                                                                                                                                                                                                                                                                                                                         Z
L54778900325974-006-006       FY1702061505441ICWAYNE TAYLOR                                                                                                                                                                                                                                                                                                                                                                                                                                                                                                                                                                                                                                                                                                                                                                                                                                                                                                                                                                                         Z
L54800300349044-001-004       FY1702131138321ICWAYNE TAYLOR                                                                                                                                                                                                                                                                                                                                                                                                                                                                                                                                                                                                                                                                                                                                                                                                                                                                                                                                                                                         Z
L54800300349044-002-004       FY1702131142541ICWAYNE TAYLOR                                                                                                                                                                                                                                                                                                                                                                                                                                                                                                                                                                                                                                                                                                                                                                                                                                                                                                                                                                                         Z
L54800300349044-003-004       FY1702131144171ICWAYNE TAYLOR                                                                                                                                                                                                                                                                                                                                                                                                                                                                                                                                                                                                                                                                                                                                                                                                                                                                                                                                                                                         Z
L54800300349044-004-004       FY1702131142341ICWAYNE TAYLOR                                                                                                                                                                                                                                                                                                                                                                                                                                                                                                                                                                                                                                                                                                                                                                                                                                                                                                                                                                                         Z
L54851000325845-001-003       FY1702061508091ICWAYNE TAYLOR                                                                                                                                                                                                                                                                                                                                                                                                                                                                                                                                                                                                                                                                                                                                                                                                                                                                                                                                                                                         Z
L54851000325845-002-003       FY1702061508031ICWAYNE TAYLOR                                                                                                                                                                                                                                                                                                                                                                                                                                                                                                                                                                                                                                                                                                                                                                                                                                                                                                                                                                                         Z
L54851000325845-003-003       FY1702061505371ICWAYNE TAYLOR                                                                                                                                                                                                                                                                                                                                                                                                                                                                                                                                                                                                                                                                                                                                                                                                                                                                                                                                                                                         Z
L56663100331977-001-006       FY1702061512441ICWAYNE TAYLOR                                                                                                                                                                                                                                                                                                                                                                                                                                                                                                                                                                                                                                                                                                                                                                                                                                                                                                                                                                                         Z
L56663100331977-002-006       FY1702061509281ICWAYNE TAYLOR                                                                                                                                                                                                                                                                                                                                                                                                                                                                                                                                                                                                                                                                                                                                                                                                                                                                                                                                                                                         Z
L56663100331977-003-006       FY1702061514301ICWAYNE TAYLOR                                                                                                                                                                                                                                                                                                                                                                                                                                                                                                                                                                                                                                                                                                                                                                                                                                                                                                                                                                                         Z
L56663100331977-004-006       FY1702061512381ICWAYNE TAYLOR                                                                                                                                                                                                                                                                                                                                                                                                                                                                                                                                                                                                                                                                                                                                                                                                                                                                                                                                                                                         Z
L56663100331977-005-006       FY1702061514251ICWAYNE TAYLOR                                                                                                                                                                                                                                                                                                                                                                                                                                                                                                                                                                                                                                                                                                                                                                                                                                                                                                                                                                                         Z
L56663100331977-006-006       FY1702061509411ICWAYNE TAYLOR                                                                                                                                                                                                                                                                                                                                                                                                                                                                                                                                                                                                                                                                                                                                                                                                                                                                                                                                                                                         Z
L56680100330087-001-003       FY1702131142001ICWAYNE TAYLOR                                                                                                                                                                                                                                                                                                                                                                                                                                                                                                                                                                                                                                                                                                                                                                                                                                                                                                                                                                                         Z
L56680100330087-002-003       FY1702131144231ICWAYNE TAYLOR                                                                                                                                                                                                                                                                                                                                                                                                                                                                                                                                                                                                                                                                                                                                                                                                                                                                                                                                                                                         Z
L56707900337531-001-018       FY1702061512061ICWAYNE TAYLOR                                                                                                                                                                                                                                                                                                                                                                                                                                                                                                                                                                                                                                                                                                                                                                                                                                                                                                                                                                                         Z
L56707900337531-002-018       FY1702061510511ICWAYNE TAYLOR                                                                                                                                                                                                                                                                                                                                                                                                                                                                                                                                                                                                                                                                                                                                                                                                                                                                                                                                                                                         Z
L56707900337531-003-018       FY1702061507391ICWAYNE TAYLOR                                                                                                                                                                                                                                                                                                                                                                                                                                                                                                                                                                                                                                                                                                                                                                                                                                                                                                                                                                                         Z
L56707900337531-004-018       FY1702061510411ICWAYNE TAYLOR                                                                                                                                                                                                                                                                                                                                                                                                                                                                                                                                                                                                                                                                                                                                                                                                                                                                                                                                                                                         Z
L56707900337531-005-018       FY1702061509361ICWAYNE TAYLOR                                                                                                                                                                                                                                                                                                                                                                                                                                                                                                                                                                                                                                                                                                                                                                                                                                                                                                                                                                                         Z
L56707900337531-006-018       FY1702061510201ICWAYNE TAYLOR                                                                                                                                                                                                                                                                                                                                                                                                                                                                                                                                                                                                                                                                                                                                                                                                                                                                                                                                                                                         Z
L56707900337531-007-018       FY1702061510061ICWAYNE TAYLOR                                                                                                                                                                                                                                                                                                                                                                                                                                                                                                                                                                                                                                                                                                                                                                                                                                                                                                                                                                                         Z
L56707900337531-008-018       FY1702061509571ICWAYNE TAYLOR                                                                                                                                                                                                                                                                                                                                                                                                                                                                                                                                                                                                                                                                                                                                                                                                                                                                                                                                                                                         Z
L56707900337531-009-018       FY1702061509321ICWAYNE TAYLOR                                                                                                                                                                                                                                                                                                                                                                                                                                                                                                                                                                                                                                                                                                                                                                                                                                                                                                                                                                                         Z
L56707900337531-010-018       FY1702061509491ICWAYNE TAYLOR                                                                                                                                                                                                                                                                                                                                                                                                                                                                                                                                                                                                                                                                                                                                                                                                                                                                                                                                                                                         Z
L56707900337531-011-018       FY1702061512131ICWAYNE TAYLOR                                                                                                                                                                                                                                                                                                                                                                                                                                                                                                                                                                                                                                                                                                                                                                                                                                                                                                                                                                                         Z
L56707900337531-012-018       FY1702061507331ICWAYNE TAYLOR                                                                                                                                                                                                                                                                                                                                                                                                                                                                                                                                                                                                                                                                                                                                                                                                                                                                                                                                                                                         Z
L56707900337531-013-018       FY1702061510321ICWAYNE TAYLOR                                                                                                                                                                                                                                                                                                                                                                                                                                                                                                                                                                                                                                                                                                                                                                                                                                                                                                                                                                                         Z
L56707900337531-014-018       FY1702061507291ICWAYNE TAYLOR                                                                                                                                                                                                                                                                                                                                                                                                                                                                                                                                                                                                                                                                                                                                                                                                                                                                                                                                                                                         Z
L56707900337531-015-018       FY1702061511041ICWAYNE TAYLOR                                                                                                                                                                                                                                                                                                                                                                                                                                                                                                                                                                                                                                                                                                                                                                                                                                                                                                                                                                                         Z
L56707900337531-016-018       FY1702061508141ICWAYNE TAYLOR                                                                                                                                                                                                                                                                                                                                                                                                                                                                                                                                                                                                                                                                                                                                                                                                                                                                                                                                                                                         Z
L56707900337531-017-018       FY1702061509191ICWAYNE TAYLOR                                                                                                                                                                                                                                                                                                                                                                                                                                                                                                                                                                                                                                                                                                                                                                                                                                                                                                                                                                                         Z
L56707900337531-018-018       FY1702061513461ICWAYNE TAYLOR                                                                                                                                                                                                                                                                                                                                                                                                                                                                                                                                                                                                                                                                                                                                                                                                                                                                                                                                                                                         Z
L56708000331172-001-002       FY1702061512321ICWAYNE TAYLOR                                                                                                                                                                                                                                                                                                                                                                                                                                                                                                                                                                                                                                                                                                                                                                                                                                                                                                                                                                                         Z
L56708000331172-002-002       FY1702061514181ICWAYNE TAYLOR                                                                                                                                                                                                                                                                                                                                                                                                                                                                                                                                                                                                                                                                                                                                                                                                                                                                                                                                                                                         Z
L56709800328873-001-001       FY1702061511231ICWAYNE TAYLOR                                                                                                                                                                                                                                                                                                                                                                                                                                                                                                                                                                                                                                                                                                                                                                                                                                                                                                                                                                                         Z
L56725800331530-001-005       FY1702061507491ICWAYNE TAYLOR                                                                                                                                                                                                                                                                                                                                                                                                                                                                                                                                                                                                                                                                                                                                                                                                                                                                                                                                                                                         Z
L56725800331530-002-005       FY1702061509131ICWAYNE TAYLOR                                                                                                                                                                                                                                                                                                                                                                                                                                                                                                                                                                                                                                                                                                                                                                                                                                                                                                                                                                                         Z
L56725800331530-003-005       FY1702061511101ICWAYNE TAYLOR                                                                                                                                                                                                                                                                                                                                                                                                                                                                                                                                                                                                                                                                                                                                                                                                                                                                                                                                                                                         Z
L56725800331530-004-005       FY1702061508191ICWAYNE TAYLOR                                                                                                                                                                                                                                                                                                                                                                                                                                                                                                                                                                                                                                                                                                                                                                                                                                                                                                                                                                                         Z
L56725800331530-005-005       FY1702061511301ICWAYNE TAYLOR                                                                                                                                                                                                                                                                                                                                                                                                                                                                                                                                                                                                                                                                                                                                                                                                                                                                                                                                                                                         Z
L56726800329224-001-005       FY1702131138261ICWAYNE TAYLOR                                                                                                                                                                                                                                                                                                                                                                                                                                                                                                                                                                                                                                                                                                                                                                                                                                                                                                                                                                                         Z
L56726800329224-002-005       FY1702131143421ICWAYNE TAYLOR                                                                                                                                                                                                                                                                                                                                                                                                                                                                                                                                                                                                                                                                                                                                                                                                                                                                                                                                                                                         Z
