235687000235687               235687               170213G2     1400+00000+G20000004323+0000004323+000000000+000000616+0000004930+0000000009+I20000000000+0000004930+Z
235687001235687903-000183     235687006003000451043SWT LB HEART LOLLY     0000011000+00000393+00000+0001T   00000393+0000000901          1400 SB6150               1AZ
235688000235688               235688               170213G2     1400+00000+G20000004716+0000004716+000000000+000000672+0000005380+0000000008+I20000000000+0000005380+Z
235688001235688903-000183     235688006003000451043SWT LB HEART LOLLY     0000012000+00000393+00000+0001T   00000393+0000000903          1400 SB6150               1AZ
235689000235689               235689               170213G2     1400+00000+G20000009116+0000009116+000000000+000001277+0000010393+0000000000+I40000010393+0000000000+Z
235689001235689565-000044     235689006003000128280BARREL OF SLIME 100g   0000002000+00000613+00000+0001T   00000613+0000000905          1400 SB6745               1AZ
235689002235689562-000051     235689006003000308798EDU EXCAVATION KIT ASST0000002000+00003507+00000+0001T   00003507+0000000905          1400 SB6755               1AZ
235689003235689079-013014     235689006003000542796A&C MAKE YOUR OWN WAND 0000001000+00000876+00000+0001T   00001490+0008150905          1400 SB6130               1AZ
235690000235690               235690               170213G2     1400+00000+G20000019514+0000019514+000000000+000002734+0000022248+0000000000+I40000022248+0000000000+Z
235690001235690112-116069     235690006009681820277TCS CARRIER BAG JUMBO  0000001000+00000048+00000+0001T   00000048+0000000908          1400 SB6090               1AZ
235690002235690024-000201     235690006003000461820KIDDIES BAKING SET 4PC 0000001000+00003507+00000+0001T   00003507+0000000908          1400 SB6300               1AZ
235690003235690006-000789     235690006001023148612CROWN BOY              0000001000+00002192+00000+0001T   00002192+0000000908          1400 SB6131               1AZ
235690004235690024-000149     235690006003000407552N/STICK G/BREAD MAN    0000001000+00002630+00000+0001T   00003507+0008120908          1400 SB6300               1AZ
235690005235690018-019000     235690006003000557288MUG OCC. LOVE JUMBO    0000001000+00005262+00000+0001T   00005262+0000000908          1400 SB6515               1AZ
235690006235690104-000030     235690006001023803481BASKET PL 28x20x12cm   0000001000+00004385+00000+0001T   00004385+0000000908          1400 SB6210               1AZ
235690007235690006-000788     235690006001023990228CROWN HAPPY BIRTHDAY   0000001000+00001490+00000+0001T   00001490+0000000908          1400 SB6131               1AZ
235691000235691               235691               170213G2     1400+00000+G20000002892+0000002892+000000000+000000406+0000003298+0000000000+I40000003298+0000000000+Z
235691001235691159-000445     235691006001023669728SOAP-BOX PL OVAL       0000001000+00001139+00000+0001T   00001139+0000000929          1400 SB6200               1AZ
235691002235691306-000006     235691006001023776440DENTAL FLOSS PICKS 50PC0000001000+00001753+00000+0001T   00001753+0000000929          1400 SB6200               1AZ
235692000235692               235692               170213G2     1400+00000+G20000004734+0000004734+000000000+000000664+0000005390+0000000008+I20000000000+0000005390+Z
235692001235692108-001105-B   235692006005387000258MIXING-BOWL PLTNM/BLUE 0000002000+00002367+00000+0001T   00002367+0000000932          1400 SB6210               1AZ
235693000235693               235693               170213G2     1400+00000+G20000018114+0000018114+000000000+000002538+0000020650+0000000002+I20000000000+0000020650+Z
235693001235693112-116069     235693006009681820277TCS CARRIER BAG JUMBO  0000001000+00000048+00000+0001T   00000048+0000001002          1400 SB6090               1AZ
235693002235693018-019000     235693006003000557288MUG OCC. LOVE JUMBO    0000001000+00005262+00000+0001T   00005262+0000001002          1400 SB6515               1AZ
235693003235693368-000637     235693006001023874092PLUSH BEAR SLEEPING LOV0000001000+00011402+00000+0001T   00012279+0006471002          1400 SB6745               1AZ
235693004235693304-001204     235693006001023737984FLOWER OCC. TEDDY/ROSES0000001000+00001402+00000+0001T   00001490+0006471002          1400 SB6510               1AZ
235694000235694               235694               170213G2     1400+00000+G20000003507+0000003507+000000000+000000491+0000003990+0000000008+I20000000000+0000003990+Z
235694001235694071-003023     235694006001023836120BALLPENS 10PCE MINI GEL0000001000+00003507+00000+0001T   00003507+0000001005          1400 SB6130               1AZ
235695000235695               235695               170213G2     1400+00000+G20000001753+0000001753+000000000+000000246+0000001990+0000000009+I20000000000+0000001990+Z
235695001235695077-000354     235695006003000139224GIFT-BAG 25X32CM H/MADE0000001000+00001753+00000+0001T   00001753+0000001011          1400 SB6112               1AZ
235696000235696               235696               170213G2     1400+00000+G20000001752+0000001752+000000000+000000246+0000001990+0000000008+I20000000000+0000001990+Z
235696001235696039-000030     235696006003000286942CANDLE 25cm MTL-YELLOW 0000002000+00000876+00000+0001T   00000876+0000001017          1400 SB6510               1AZ
235697000235697               235697               170213G2     1400+00000+G20000007276+0000007276+000000000+000001020+0000008290+0000000006+I20000000000+0000008290+Z
235697001235697200-003024     235697006001023657299REFUSE BAGS 20PCE BLACK0000002000+00001753+00000+0001T   00001753+0000001017          1400 SB6214               1AZ
235697002235697080-000127     235697006003000424351VALENTINES DAY 36x24CM 0000001000+00002192+00000+0001T   00002192+0000001017          1400 SB6112               1AZ
235697003235697077-000303     235697006001023593757GIFT-BAG PAPER MED     0000001000+00001578+00000+0001T   00001578+0000001017          1400 SB6112               1AZ
235698000235698               235698               170213G2     1400+00000+G20000004908+0000004908+000000000+000000688+0000005590+0000000006+I20000000000+0000005590+Z
235698001235698033-000013     235698006001023567215PILL-REMINDER PL       0000004000+00001227+00000+0001T   00001227+0000001039          1400 SB6200               1AZ
235699000235699               235699               170213G2     1400+00000+G20000002630+0000002630+000000000+000000369+0000002990+0000000009+I20000000000+0000002990+Z
235699001235699124-002023     235699006003000367252BISCUIT TIN HEART SHAPE0000001000+00002630+00000+0001T   00003507+0008171040          1400 SB6300               1AZ
235700000235700               235700               170213G2     1400+00000+G20000001490+0000001490+000000000+000000209+0000001690+0000000009+I20000000000+0000001690+Z
235700001235700027-783002     235700006001023874658SCOURERS FOAM PACK OF 30000001000+00001490+00000+0001T   00001490+0000001050          1400 SB6212               1AZ
235701000235701               235701               170213G2     1400+00000+G20000002663+0000002663+000000000+000000374+0000003030+0000000007+I20000000000+0000003030+Z
235701001235701071-000677     235701006001023110282THUMB-TACKS            0000003000+00000876+00000+0001T   00000876+0000001058          1400 SB6130               1AZ
235701002235701112-116038     235701006009681820246TCS CARRIER BAG MIDI   0000001000+00000035+00000+0001T   00000035+0000001058          1400 SB6090               1AZ
235702000235702               235702               170213G2     1400+00000+G20000005260+0000005260+000000000+000000738+0000005990+0000000008+I20000000000+0000005990+Z
235702001235702007-000249     235702006003000590254GLUE DOTS 180x5mm      0000002000+00002630+00000+0001T   00002630+0000001110          1400 SB6130               1AZ
235703000235703               235703               170213G2     1400+00000+G20000003068+0000003068+000000000+000000430+0000003490+0000000008+I20000000000+0000003490+Z
235703001235703077-000299     235703006003000395576G/BAG 32x25cm LRG LOVE 0000001000+00001490+00000+0001T   00001490+0000001110          1400 SB6112               1AZ
235703002235703018-000127     235703006001023380289MUG OCC STRAIGHT LOVE  0000001000+00001578+00000+0001T   00001753+0006471110          1400 SB6515               1AZ
235704000235704               235704               170213G2     1400+00000+G20000003507+0000003507+000000000+000000491+0000003998+0000000000+I40000003998+0000000000+Z
235704001235704082-098792     235704006001492987927SUNGLASS KIDS BOYS     0000001000+00003507+00000+0001T   00003507+0000001112          1400 SB6160               1AZ
235705000235705               235705               170213G2     1400+00000+G20000000876+0000000876+000000000+000000123+0000000990+0000000009+I20000000000+0000000990+Z
235705001235705077-000151     235705006008766114676GIFT-WRAP C/PHANE ASSTD0000001000+00000876+00000+0001T   00000876+0000001112          1400 SB6112               1AZ
235706000235706               235706               170213G2     1400+00000+G20000010906+0000010906+000000000+000001528+0000012430+0000000004+I20000000000+0000012430+Z
235706001235706112-116038     235706006009681820246TCS CARRIER BAG MIDI   0000001000+00000035+00000+0001T   00000035+0000001114          1400 SB6090               1AZ
235706002235706200-003024     235706006001023657299REFUSE BAGS 20PCE BLACK0000001000+00001753+00000+0001T   00001753+0000001114          1400 SB6214               1AZ
235706003235706024-000118     235706006001023422316N/STICK C/PAN HEART    0000001000+00004385+00000+0001T   00004385+0000001114          1400 SB6300               1AZ
235706004235706031-000923     235706006001023669933P/FRAME BLK W/WORDS    0000001000+00003507+00000+0001T   00003507+0000001114          1400 SB6510               1AZ
235706005235706304-001011     235706006001023806727FLWR ROSE RED W/BEAR   0000002000+00000613+00000+0001T   00000788+0006471114          1400 SB6510               1AZ
235707000235707               235707               170213G2     1400+00000+G20000000657+0000000657+000000000+000000092+0000000740+0000000009+I20000000000+0000000740+Z
235707001235707566-001212     235707000721129014166STICKERS MICRO ASSTD   0000001000+00000657+00000+0001T   00000657+0000001120          1400 SB6130               1AZ
235708000235708               235708               170213G2     1400+00000+G20000019292+0000019292+000000000+000002703+0000021990+0000000005+I20000000000+0000021990+Z
235708001235708030-000010     235708006003000084395P/DOOR HANGER 2-ASSTD  0000001000+00001314+00000+0001T   00001490+0008181121          1400 SB6505               1AZ
235708002235708077-000270     235708006003000395453GIFT-BAG PPR JMB 33X45 0000001000+00002630+00000+0001T   00002630+0000001121          1400 SB6112               1AZ
235708003235708301-085008     235708006003000673933ORN OCC.LOVE TINSEL HRT0000001000+00003069+00000+0001T   00003069+0000001121          1400 SB6505               1AZ
235708004235708368-000113     235708006001023780874PLUSH BLINGED LOVE 30cm0000001000+00012279+00000+0001T   00012279+0000001121          1400 SB6745               1AZ
235709000235709               235709               170213G2     1400+00000+G20000003069+0000003069+000000000+000000430+0000003490+0000000009+I20000000000+0000003490+Z
235709001235709365-003056     235709006009635021453KIDDIES WOODEN BROOM   0000001000+00003069+00000+0001T   00003069+0000001121          1400 SB6725               1AZ
235710000235710               235710               170213G2     1400+00000+G20000008627+0000008627+000000000+000001208+0000009830+0000000005+I20000000000+0000009830+Z
235710001235710112-116038     235710006009681820246TCS CARRIER BAG MIDI   0000001000+00000035+00000+0001T   00000035+0000001124          1400 SB6090               1AZ
235710002235710018-000136     235710006001023659026MUG OCC LOVE W/PLUSH   0000002000+00003507+00000+0001T   00003507+0000001124          1400 SB6515               1AZ
235710003235710077-000303     235710006001023593757GIFT-BAG PAPER MED     0000001000+00001578+00000+0001T   00001578+0000001124          1400 SB6112               1AZ
235711000235711               235711               170213G2     1400+00000+G20000017526+0000017526+000000000+000002460+0000019980+0000000006+I20000000000+0000019980+Z
235711001235711001-000168     235711008992787110268TUMBLER 340ml ZOMBI    0000006000+00000876+00000+0001T   00000876+0000001156          1400 SB6515               1AZ
235711002235711001-000390     235711006001023679741TUMBLER GLS 2400ml WHIS0000002000+00000876+00000+0001T   00000876+0000001156          1400 SB6515               1AZ
235711003235711036-000063     235711006009654960436COATHANGERS VIRGIN 5PCE0000006000+00001753+00000+0001T   00001753+0000001156          1400 SB6212               1AZ
235712000235712               235712               170213G2     1400+00000+G20000006786+0000006786+000000000+000000951+0000007730+0000000007+I20000000000+0000007730+Z
235712001235712112-116038     235712006009681820246TCS CARRIER BAG MIDI   0000001000+00000035+00000+0001T   00000035+0000001157          1400 SB6090               1AZ
235712002235712361-000249     235712006001023793706DOLL 29cm FASION  ASSTD0000001000+00004385+00000+0001T   00005262+0008191157          1400 SB6725               1AZ
235712003235712006-000788     235712006001023990228CROWN HAPPY BIRTHDAY   0000001000+00001490+00000+0001T   00001490+0000001157          1400 SB6131               1AZ
235712004235712039-000319-1   235712006003000442386B/CANDLES LRG NUMBER-1 0000001000+00000876+00000+0001T   00000876+0000001157          1400 SB6510               1AZ
235713000235713               235713               170213G2     1400+00000+G20000004384+0000004384+000000000+000000614+0000004990+0000000008+I20000000000+0000004990+Z
235713001235713565-000080     235713006003000643424NOVELTY BENDY          0000002000+00002192+00000+0001T   00002192+0000001207          1400 SB6745               1AZ
235714000235714               235714               170213G2     1400+00000+G20000000612+0000000612+000000000+000000086+0000000690+0000000008+I20000000000+0000000690+Z
235714001235714079-009700-F   235714006003000545872PAPER SIRIO A4 TURQ COL0000002000+00000306+00000+0001T   00000306+0000001209          1400 SB6130               1AZ
235715000235715               235715               170213G2     1400+00000+G20000001578+0000001578+000000000+000000221+0000001790+0000000009+I20000000000+0000001790+Z
235715001235715018-000127     235715006001023380289MUG OCC STRAIGHT LOVE  0000001000+00001578+00000+0001T   00001753+0006471210          1400 SB6515               1AZ
235716000235716               235716               170213G2     1400+00000+G20000001179+0000001179+000000000+000000168+0000001340+0000000007+I20000000000+0000001340+Z
235716001235716903-000183     235716006003000451043SWT LB HEART LOLLY     0000003000+00000393+00000+0001T   00000393+0000001212          1400 SB6150               1AZ
235717000235717               235717               170213G2     1400+00000+G20000000035+0000000035+000000000+000000005+0000000040+0000000000+I20000000000+0000000040+Z
235717001235717112-116038     235717006009681820246TCS CARRIER BAG MIDI   0000001000+00000035+00000+0001T   00000035+0000001213          1400 SB6090               1AZ
235718000235718               235718               170213G2     1400+00000+G20000003507+0000003507+000000000+000000491+0000003990+0000000008+I20000000000+0000003990+Z
235718001235718028-002101     235718006002580009507CHAIR JUNIOR    ASSTD  0000001000+00003507+00000+0001T   00003507+0000001223          1400 SB6305               1AZ
235719000235719               235719               170213G2     1400+00000+G20000011402+0000011402+000000000+000001597+0000012999+0000000000+I40000012999+0000000000+Z
235719001235719368-000637     235719006001023874092PLUSH BEAR SLEEPING LOV0000001000+00011402+00000+0001T   00012279+0006471229          1400 SB6745               1AZ
235720000235720               235720               170213G2     1400+00000+G20000000700+0000000700+000000000+000000098+0000000790+0000000008+I20000000000+0000000790+Z
235720001235720018-000177     235720006001023797513MUG MINI LOVE ASSTD    0000001000+00000700+00000+0001T   00000700+0000001230          1400 SB6515               1AZ
235721000235721               235721               170213G2     1400+00000+G20000005260+0000005260+000000000+000000738+0000005990+0000000008+I20000000000+0000005990+Z
235721001235721106-001099     235721006003000653447WATER BOTTLE 650ml     0000001000+00002630+00000+0001T   00002630+0000001305          1400 SB6210               1AZ
235721002235721108-003023     235721006003000665471TUMBLER W/STRAW 550ml  0000001000+00002630+00000+0001T   00002630+0000001305          1400 SB6210               1AZ
235722000235722               235722               170213G2     1400+00000+G20000002365+0000002365+000000000+000000332+0000002690+0000000007+I20000000000+0000002690+Z
235722001235722039-000319-1   235722006003000442386B/CANDLES LRG NUMBER-1 0000001000+00000876+00000+0001T   00000876+0000001306          1400 SB6510               1AZ
235722002235722039-000319-5   235722006003000442867B/CANDLES LRG NUMBER-5 0000001000+00000876+00000+0001T   00000876+0000001306          1400 SB6510               1AZ
235722003235722306-000021     235722006001023169433EARBUDS 100PCE IN BAG  0000001000+00000613+00000+0001T   00000613+0000001306          1400 SB6200               1AZ
235723000235723               235723               170213G2     1400+00000+G20000001490+0000001490+000000000+000000209+0000001690+0000000009+I20000000000+0000001690+Z
235723001235723077-000299     235723006003000395576G/BAG 32x25cm LRG LOVE 0000001000+00001490+00000+0001T   00001490+0000001309          1400 SB6112               1AZ
235724000235724               235724               170213G2     1400+00000+G20000008769+0000008769+000000000+000001228+0000009997+0000000000+I40000009997+0000000000+Z
235724001235724077-000924     235724006003000414055G/WRAP 700mmx2m WEDDING0000002000+00002192+00000+0001T   00002192+0000001311          1400 SB6112               1AZ
235724002235724007-000892-17  235724006003000645756DIARY 2017 H/COVER     0000001000+00004385+00000+0001T   00004385+0000001311          1400 SB6130               1AZ
235725000235725               235725               170213G2     1400+00000+G20000016659+0000016659+000000000+000002335+0000018990+0000000004+I20000000000+0000018990+Z
235725001235725105-003025     235725006001023594662CONTAINER RECT 28x19cm 0000003000+00002630+00000+0001T   00002630+0000001409          1400 SB6210               1AZ
235725002235725104-000025     235725006001023780287BASKET PL 28x17x11cm   0000001000+00003507+00000+0001T   00003507+0000001409          1400 SB6210               1AZ
235725003235725104-000060     235725006003000632350BASKET PL 33x23x15cm   0000001000+00005262+00000+0001T   00005262+0000001409          1400 SB6210               1AZ
235726000235726               235726               170213G2     1400+00000+G20000031000+0000031000+000000000+000004342+0000035342+0000000000+I10000030002+0000005340+Z
235726001235726006-001000     235726006003000093779HELIUM BALLOON FILL    0000004000+00000613+00000+0001T   00000613+0000001415          1400 SB6131               1AZ
235726002235726006-000190     235726006003000685530BALLOONS LOVE 81x91cm  0000002000+00004385+00000+0001T   00004385+0000001415          1400 SB6131               1AZ
235726003235726077-000465     235726006003000681570GIFT-BAG MTLC GLIT LRG 0000001000+00003507+00000+0001T   00003507+0000001415          1400 SB6112               1AZ
235726004235726080-000127     235726006003000424351VALENTINES DAY 36x24CM 0000001000+00002192+00000+0001T   00002192+0000001415          1400 SB6112               1AZ
235726005235726301-085004     235726006003000420469ORN LOVE PLAQUE 21X10CM0000001000+00003507+00000+0001T   00003946+0006471415          1400 SB6505               1AZ
235726006235726368-000049     235726006003000536955PLUSH BEAR 15cm LOVE   0000001000+00004385+00000+0001T   00004385+0000001415          1400 SB6745               1AZ
235726007235726018-050000     235726006003000412679MUG OCC LOVE TWIN BEAR 0000001000+00006139+00000+0001T   00006139+0000001415          1400 SB6515               1AZ
235726008235726112-116069     235726006009681820277TCS CARRIER BAG JUMBO  0000001000+00000048+00000+0001T   00000048+0000001415          1400 SB6090               1AZ
235727000235727               235727               170213G2     1400+00000+G20000029376+0000029376+000000000+000004116+0000033492+0000000000+I40000033492+0000000000+Z
235727001235727080-000127     235727006003000424351VALENTINES DAY 36x24CM 0000001000+00002192+00000+0001T   00002192+0000001418          1400 SB6112               1AZ
235727002235727368-000111     235727006001023780812PLUSH BEAR/DOG 29CM    0000001000+00012279+00000+0001T   00012279+0000001418          1400 SB6745               1AZ
235727003235727301-000009     235727006001023781406ORN POLY MSG IN PVC BOX0000001000+00005262+00000+0001T   00005262+0000001418          1400 SB6505               1AZ
235727004235727162-093351     235727006001492933511#TAG PASTEL COTTON ER  0000001000+00002630+00000+0001T   00004385+0008161418          1400 SB6160               1AZ
235727005235727077-000465     235727006003000681570GIFT-BAG MTLC GLIT LRG 0000001000+00003507+00000+0001T   00003507+0000001418          1400 SB6112               1AZ
235727006235727200-003026     235727006003000276448REFUSE BAGS 10PCE GREEN0000002000+00001753+00000+0001T   00001753+0000001418          1400 SB6214               1AZ
235728000235728               235728               170213G2     1400+00000+G20000004243+0000004243+000000000+000000595+0000004838+0000000000+I40000004838+0000000000+Z
235728001235728018-000129     235728006001023403353MUG OCC. LOVE V-SHAPE  0000001000+00002630+00000+0001T   00002630+0000001421          1400 SB6515               1AZ
235728002235728077-000303     235728006001023593757GIFT-BAG PAPER MED     0000001000+00001578+00000+0001T   00001578+0000001421          1400 SB6112               1AZ
235728003235728112-116038     235728006009681820246TCS CARRIER BAG MIDI   0000001000+00000035+00000+0001T   00000035+0000001421          1400 SB6090               1AZ
235729000235729               235729               170213G2     1400+00000+G20000001578+0000001578+000000000+000000221+0000001790+0000000009+I20000000000+0000001790+Z
235729001235729080-000124     235729006003000297733CARD & ENV VALENTINES  0000001000+00001578+00000+0001T   00001578+0000001422          1400 SB6112               1AZ
235730000235730               235730               170213G2     1400+00000+G20000005699+0000005699+000000000+000000798+0000006490+0000000007+I20000000000+0000006490+Z
235730001235730004-071205     235730006003000073368USB 2.0 COMPUTER 4 HUB 0000001000+00003507+00000+0001T   00003507+0000001424          1400 SB6310               1AZ
235730002235730046-000012-A   235730006003000208296BATTERIES H/POWER SZ:AA0000001000+00002192+00000+0001T   00002192+0000001424          1400 SB6312               1AZ
235731000235731               235731               170213G2     1400+00000+G20000001333-0000001333-000000000+000000187-0000001520-0000000000+I20000000000+0000001520-Z
235731001235731001-999906     235731000000000999906STATIONERY(PHOTOCOPIES)0000001000-00001333+00000+0001T   00000000+0000001427          1400 SB69061IC            1 Z
235732000235732               235732               170213G2     1400+00000+G20000000876+0000000876+000000000+000000123+0000000990+0000000009+I20000000000+0000000990+Z
235732001235732077-000150-D   235732006003000054343GIFT-WRAP CELLPHANE CLR0000001000+00000876+00000+0001T   00000876+0000001428          1400 SB6112               1AZ
235733000235733               235733               170213G2     1400+00000+G20000006139+0000006139+000000000+000000860+0000006990+0000000009+I20000000000+0000006990+Z
235733001235733018-050000     235733006003000412679MUG OCC LOVE TWIN BEAR 0000001000+00006139+00000+0001T   00006139+0000001430          1400 SB6515               1AZ
235734000235734               235734               170213G2     1400+00000+G20000000788+0000000788+000000000+000000111+0000000890+0000000009+I20000000000+0000000890+Z
235734001235734903-000137     235734006002099004130SWEET GS JELLY BEAN 60G0000001000+00000788+00000+0001T   00000788+0000001438          1400 SB6150               1AZ
235735000235735               235735               170213G2     1400+00000+G20000002630+0000002630+000000000+000000369+0000002990+0000000009+I20000000000+0000002990+Z
235735001235735562-000010     235735006001023762528KID'S PLAY DOUGH       0000001000+00002630+00000+0001T   00002630+0000001440          1400 SB6755               1AZ
235736000235736               235736               170213G2     1400+00000+G20000001753+0000001753+000000000+000000246+0000001990+0000000009+I20000000000+0000001990+Z
235736001235736080-000111     235736006003000252695CARD&ENVELPE - MUSICAL 0000001000+00001753+00000+0001T   00001753+0000001440          1400 SB6112               1AZ
235737000235737               235737               170213G2     1400+00000+G20000002622-0000002622-000000000+000000368-0000002990-0000000000+I20000000000+0000002990-Z
235737001235737001-999902     235737000000000999902MAINTENANCE+REPAIR-EQP 0000001000-00002622+00000+0001T   00000000+0000001444          1400 SB69021IC            1 Z
235738000235738               235738               170213G2     1400+00000+G20000002630+0000002630+000000000+000000369+0000002990+0000000009+I20000000000+0000002990+Z
235738001235738004-071190     235738006003000528691USB CABLE EXT M/F 1.5m 0000001000+00002630+00000+0001T   00002630+0000001445          1400 SB6310               1AZ
235739000235739               235739               170213G2     1400+00000+G20000001219-0000001219-000000000+000000171-0000001390-0000000000+I20000000000+0000001390-Z
235739001235739001-999906     235739000000000999906STATIONERY(PHOTOCOPIES)0000001000-00001219+00000+0001T   00000000+0000001445          1400 SB69061IC            1 Z
235740000235740               235740               170213G2     1400+00000+G20000001227+0000001227+000000000+000000172+0000001390+0000000009+I20000000000+0000001390+Z
235740001235740071-000010     235740006003000589135PEN BANKNOTE TESTER    0000001000+00001227+00000+0001T   00001227+0000001446          1400 SB6130               1AZ
235741000235741               235741               170213G2     1400+00000+G20000003681+0000003681+000000000+000000516+0000004190+0000000007+I20000000000+0000004190+Z
235741001235741077-000245     235741006001023759214GIFT-RIBBON METALLICx2 0000003000+00001227+00000+0001T   00001227+0000001458          1400 1IC112               1AZ
235742000235742               235742               170213G2     1400+00000+G20000003675-0000003675-000000000+000000515-0000004190-0000000000+I20000000000+0000004190-Z
235742001235742001-999902     235742000000000999902MAINTENANCE+REPAIR-EQP 0000001000-00003675+00000+0001T   00000000+0000001458          1400 1IC9021IC            1 Z
235743000235743               235743               170213G2     1400+00000+G20000016528+0000016528+000000000+000002318+0000018846+0000000000+I40000018846+0000000000+Z
235743001235743112-116069     235743006009681820277TCS CARRIER BAG JUMBO  0000001000+00000048+00000+0001T   00000048+0000001512          1400 SB6090               1AZ
235743002235743366-000151     235743006003000601561DRESS UP WEDDING HEN   0000001000+00003507+00000+0001T   00003507+0000001512          1400 SB6131               1AZ
235743003235743050-000887-TS  235743006003000688210PADLOCK COMBO 35mm 8DIG0000001000+00004385+00000+0001T   00004385+0000001512          1400 SB6855               1AZ
235743004235743140-001004     235743006001023880932FLY-RIBBONS 4PCE PL    0000002000+00001490+00000+0001T   00001490+0000001512          1400 SB6830               1AZ
235743005235743304-001204     235743006001023737984FLOWER OCC. TEDDY/ROSES0000004000+00001402+00000+0001T   00001490+0006471512          1400 SB6510               1AZ
235744000235744               235744               170213G2     1400+00000+G20000001613+0000001613+000000000+000000226+0000001830+0000000009+I20000000000+0000001830+Z
235744001235744077-000303     235744006001023593757GIFT-BAG PAPER MED     0000001000+00001578+00000+0001T   00001578+0000001516          1400 SB6112               1AZ
235744002235744112-116038     235744006009681820246TCS CARRIER BAG MIDI   0000001000+00000035+00000+0001T   00000035+0000001516          1400 SB6090               1AZ
235745000235745               235745               170213G2     1400+00000+G20000003507+0000003507+000000000+000000491+0000003990+0000000008+I20000000000+0000003990+Z
235745001235745150-000776     235745006001023839756UTILITY/TOOL-BOX PL    0000001000+00003507+00000+0001T   00003507+0000001516          1400 SB6810               1AZ
235746000235746               235746               170213G2     1400+00000+G20000010085+0000010085+000000000+000001413+0000011498+0000000000+I40000011498+0000000000+Z
235746001235746031-007009     235746006003000467822P/FRAME WDN CERTIFICATE0000001000+00006139+00000+0001T   00006139+0000001518          1400 SB6510               1AZ
235746002235746024-000092     235746006003000426805MEASURING-SET 6PC      0000001000+00003946+00000+0001T   00003946+0000001518          1400 SB6300               1AZ
235747000235747               235747               170213G2     1400+00000+G20000008763+0000008763+000000000+000001230+0000000000+0000000000+ 00000000000+0000000000+Z
235747001235747903-000521     235747006001704009652SWT GUMMY SOFT GUMS    0000001000+00000876+00000+0001T   00000876+000000              1400 SB61501IC            1 Z
235747002235747077-000302     235747008010410010195GIFT-BAG 18X23CM E/D   0000003000+00000876+00000+0001T   00000876+000000              1400 SB61121IC            1 Z
235747003235747018-000205     235747006003000579976M/DAILY STRAIGHT SHAPE 0000001000+00001753+00000+0001T   00001753+000000              1400 SB65151IC            1 Z
235747004235747018-000200     235747006001023816573M/DAILY V-SHAPE PSYCH  0000001000+00001753+00000+0001T   00001753+000000              1400 SB65151IC            1 Z
235747005235747018-000205     235747006003000579976M/DAILY STRAIGHT SHAPE 0000001000+00001753+00000+0001T   00001753+000000              1400 SB65151IC            1 Z
235748000235748               235748               170213G2     1400+00000+G20000008010+0000008010+000000000+000001124+0000009130+0000000004+I20000000000+0000009130+Z
235748001235748112-116038     235748006009681820246TCS CARRIER BAG MIDI   0000001000+00000035+00000+0001T   00000035+0000001523          1400 SB6090               1AZ
235748002235748903-000081     235748006001704014076SWT F/PASTILLES 100G   0000001000+00001753+00000+0001T   00001753+0000001523          1400 SB6150               1AZ
235748003235748903-000095     235748006001704011495SWT SPECKLED-EGGS 100G 0000001000+00002104+00000+0001T   00002104+0000001523          1400 SB6150               1AZ
235748004235748903-004950     235748006002580020304SWT APRICOT SURPRISE   0000001000+00001314+00000+0001T   00001314+0000001523          1400 SB6150               1AZ
235748005235748071-081101-A   235748006003000326549GLUE-STICK 25g BLISTER 0000001000+00000788+00000+0001T   00000788+0000001523          1400 SB6130               1AZ
235748006235748567-010478     235748009780755489145STICKER BK 100 STICKERS0000001000+00002016+00000+0001T   00002016+0000001523          1400 SB6757               1AZ
235749000235749               235749               170213G2     1400+00000+G20000004208+0000004208+000000000+000000590+0000004790+0000000008+I20000000000+0000004790+Z
235749001235749080-000101     235749006003000236732CARD&ENVLPE FEMALE     0000001000+00001753+00000+0001T   00001753+0000001524          1400 SB6112               1AZ
235749002235749077-000380     235749006003000247585GIFT-BAG 33X45CM S/COL 0000001000+00002455+00000+0001T   00002455+0000001524          1400 SB6112               1AZ
235750000235750               235750               170213G2     1400+00000+G20000007890+0000007890+000000000+000001107+0000008990+0000000007+I20000000000+0000008990+Z
235750001235750077-000235     235750006003000160211GIFT-RIBBON ROLL METALC0000003000+00002630+00000+0001T   00002630+0000001525          1400 SB6112               1AZ
235751000235751               235751               170213G2     1400+00000+G20000007885-0000007885-000000000+000001104-0000008990-0000000001+I20000000000+0000008990-Z
235751001235751001-999902     235751000000000999902MAINTENANCE+REPAIR-EQP 0000001000-00007885+00000+0001T   00000000+0000001525          1400 SB69021IC            1 Z
235752000235752               235752               170213G2     1400+00000+G20000003507+0000003507+000000000+000000491+0000003990+0000000008+I20000000000+0000003990+Z
235752001235752301-085004     235752006003000420469ORN LOVE PLAQUE 21X10CM0000001000+00003507+00000+0001T   00003946+0006471529          1400 SB6505               1AZ
235753000235753               235753               170213G2     1400+00000+G20000004383+0000004383+000000000+000000614+0000004990+0000000007+I20000000000+0000004990+Z
235753001235753089-000192-A   235753006001023901774KEY-CHAIN ACRYLIC      0000001000+00000876+00000+0001T   00000876+0000001530          1400 SB6205               1AZ
235753002235753562-000020     235753006003000600861EDU PLAY DOUGH 60g 4PC 0000001000+00003507+00000+0001T   00003507+0000001530          1400 SB6755               1AZ
235754000235754               235754               170213G2     1400+00000+G20000003507+0000003507+000000000+000000491+0000003990+0000000008+I20000000000+0000003990+Z
235754001235754562-000011     235754006003000600984PLAY DOUGH NEON TUBE   0000001000+00003507+00000+0001T   00003507+0000001530          1400 SB6755               1AZ
235755000235755               235755               170213G2     1400+00000+G20000011401+0000011401+000000000+000001597+0000012990+0000000008+I20000000000+0000012990+Z
235755001235755368-000614     235755006001023705808PLUSH LOVE 30cm        0000001000+00008771+00000+0001T   00008771+0000001533          1400 SB6745               1AZ
235755002235755077-000270     235755006003000395453GIFT-BAG PPR JMB 33X45 0000001000+00002630+00000+0001T   00002630+0000001533          1400 SB6112               1AZ
235756000235756               235756               170213G2     1400+00000+G20000008771+0000008771+000000000+000001228+0000009990+0000000009+I20000000000+0000009990+Z
235756001235756368-000614     235756006001023705808PLUSH LOVE 30cm        0000001000+00008771+00000+0001T   00008771+0000001537          1400 SB6745               1AZ
235757000235757               235757               170213G2     1400+00000+G20000000876+0000000876+000000000+000000123+0000000990+0000000009+I20000000000+0000000990+Z
235757001235757566-000200     235757006003000384174STICKER PUFFY NEON     0000001000+00000876+00000+0001T   00000876+0000001541          1400 SB6130               1AZ
235758000235758               235758               170213G2     1400+00000+G20000005085+0000005085+000000000+000000712+0000005790+0000000007+I20000000000+0000005790+Z
235758001235758077-000303     235758006001023593757GIFT-BAG PAPER MED     0000001000+00001578+00000+0001T   00001578+0000001542          1400 SB6112               1AZ
235758002235758018-000136     235758006001023659026MUG OCC LOVE W/PLUSH   0000001000+00003507+00000+0001T   00003507+0000001542          1400 SB6515               1AZ
235759000235759               235759               170213G2     1400+00000+G20000001490+0000001490+000000000+000000209+0000001690+0000000009+I20000000000+0000001690+Z
235759001235759077-000299     235759006003000395576G/BAG 32x25cm LRG LOVE 0000001000+00001490+00000+0001T   00001490+0000001543          1400 SB6112               1AZ
235760000235760               235760               170213G2     1400+00000+G20000004383+0000004383+000000000+000000615+0000004998+0000000000+I40000004998+0000000000+Z
235760001235760159-000040     235760006001023767691HOOK-HANGER 4PC S/S    0000001000+00002630+00000+0001T   00002630+0000001544          1400 SB6200               1AZ
235760002235760159-000041     235760006001023767684HOOK-HANGER 2PCE S/S   0000001000+00001753+00000+0001T   00001753+0000001544          1400 SB6200               1AZ
235761000235761               235761               170213G2     1400+00000+G20000010080+0000010080+000000000+000001414+0000011494+0000000000+I40000011494+0000000000+Z
235761001235761006-000120     235761006001023346889BALLOONS 10PC MIX COL  0000001000+00001753+00000+0001T   00001753+0000001611          1400 SB6131               1AZ
235761002235761077-000011-R   235761006001023808462P/TISSUE DARK 10-SHEETS0000001000+00000876+00000+0001T   00000876+0000001611          1400 SB6112               1AZ
235761003235761077-000011-E   235761006001023808646TISSUE-WRAP PINK 10PCE 0000001000+00000876+00000+0001T   00000876+0000001611          1400 SB6112               1AZ
235761004235761077-000011-F   235761006001023808431TISSUE-WRAP BLUE/LILAC 0000001000+00000876+00000+0001T   00000876+0000001611          1400 SB6112               1AZ
235761005235761079-000271     235761006003000160082PAINT-BRUSHES LRGE ART 0000001000+00003069+00000+0001T   00003069+0000001611          1400 SB6130               1AZ
235761006235761006-000104     235761006001023990112BALLOONS 40PC AIR PUMP 0000001000+00002630+00000+0001T   00002630+0000001611          1400 SB6131               1AZ
235762000235762               235762               170213G2     1400+00000+G20000014032+0000014032+000000000+000001966+0000015990+0000000008+I20000000000+0000015990+Z
235762001235762368-000111     235762006001023780812PLUSH BEAR/DOG 29CM    0000001000+00012279+00000+0001T   00012279+0000001615          1400 SB6745               1AZ
235762002235762077-000299-A   235762006003000670888GIFT-BAG PAPER JMB LOVE0000001000+00001753+00000+0001T   00001753+0000001615          1400 SB6112               1AZ
235763000235763               235763               170213G2     1400+00000+G20000000876+0000000876+000000000+000000123+0000000990+0000000009+I20000000000+0000000990+Z
235763001235763077-000151     235763006008766114676GIFT-WRAP C/PHANE ASSTD0000001000+00000876+00000+0001T   00000876+0000001616          1400 SB6112               1AZ
235764000235764               235764               170213G2     1400+00000+G20000011137+0000011137+000000000+000001560+0000012697+0000000000+I40000012697+0000000000+Z
235764001235764019-000040     235764006001023673640VASE GLS 30CM CYLINDER 0000001000+00008771+00000+0001T   00008771+0000001618          1400 SB6510               1AZ
235764002235764089-000033     235764006003000621217KEY CHAIN MOM POLY ASST0000001000+00001753+00000+0001T   00002630+0008121618          1400 SB6205               1AZ
235764003235764077-000321     235764006001023677501GIFT-BAG 11X14CM E/D FL0000001000+00000613+00000+0001T   00000613+0000001618          1400 SB6112               1AZ
235765000235765               235765               170213G2     1400+00000+G20000005085+0000005085+000000000+000000712+0000005790+0000000007+I20000000000+0000005790+Z
235765001235765018-000136     235765006001023659026MUG OCC LOVE W/PLUSH   0000001000+00003507+00000+0001T   00003507+0000001619          1400 SB6515               1AZ
235765002235765077-000303     235765006001023593757GIFT-BAG PAPER MED     0000001000+00001578+00000+0001T   00001578+0000001619          1400 SB6112               1AZ
235766000235766               235766               170213G2     1400+00000+G20000008534+0000008534+000000000+000001199+0000009730+0000000003+I20000000000+0000009730+Z
235766001235766903-000215     235766006002099001214SWT GS MALLOW TWIST PAC0000001000+00001753+00000+0001T   00001753+0000001620          1400 SB6150               1AZ
235766002235766903-000087     235766006001704000161SWT SPECKLED-EGGS 50G  0000001000+00001139+00000+0001T   00001139+0000001620          1400 SB6150               1AZ
235766003235766903-000521     235766006001704009652SWT GUMMY SOFT GUMS    0000001000+00000876+00000+0001T   00000876+0000001620          1400 SB6150               1AZ
235766004235766903-000137     235766006002099004130SWEET GS JELLY BEAN 60G0000001000+00000788+00000+0001T   00000788+0000001620          1400 SB6150               1AZ
235766005235766903-000087     235766006001704000161SWT SPECKLED-EGGS 50G  0000001000+00001139+00000+0001T   00001139+0000001620          1400 SB6150               1AZ
235766006235766079-013032-B   235766006003000389445MIXED SHAPES           0000001000+00001753+00000+0001T   00001753+0000001620          1400 SB6130               1AZ
235766007235766112-116038     235766006009681820246TCS CARRIER BAG MIDI   0000001000+00000035+00000+0001T   00000035+0000001620          1400 SB6090               1AZ
235766008235766079-009702-D   235766006003000546671PAPER SIRIO A2 RED COL 0000001000+00001051+00000+0001T   00001051+0000001620          1400 SB6130               1AZ
235767000235767               235767               170213G2     1400+00000+G20000011401+0000011401+000000000+000001597+0000012990+0000000008+I20000000000+0000012990+Z
235767001235767368-000614     235767006001023705808PLUSH LOVE 30cm        0000001000+00008771+00000+0001T   00008771+0000001621          1400 SB6745               1AZ
235767002235767077-000270     235767006003000395453GIFT-BAG PPR JMB 33X45 0000001000+00002630+00000+0001T   00002630+0000001621          1400 SB6112               1AZ
235768000235768               235768               170213G2     1400+00000+G20000000876+0000000876+000000000+000000123+0000000990+0000000009+I20000000000+0000000990+Z
235768001235768077-000314     235768006003000181148GIFT-BAG 11X14CM MATT  0000001000+00000876+00000+0001T   00000876+0000001624          1400 SB6112               1AZ
235769000235769               235769               170213G2     1400+00000+G20000000788+0000000788+000000000+000000111+0000000890+0000000009+I20000000000+0000000890+Z
235769001235769077-000383     235769006003000247943GIFT-BAG 11X14CM S/COL 0000001000+00000788+00000+0001T   00000788+0000001624          1400 SB6112               1AZ
235770000235770               235770               170213G2     1400+00000+G20000012451+0000012451+000000000+000001744+0000014190+0000000005+I20000000000+0000014190+Z
235770001235770304-001116     235770006003000426164F/BUNCH ROSES 12-HEAD  0000002000+00005262+00000+0001T   00005262+0000001625          1400 SB6510               1AZ
235770002235770077-000245     235770006001023759214GIFT-RIBBON METALLICx2 0000001000+00001227+00000+0001T   00001227+0000001625          1400 SB6112               1AZ
235770003235770018-000177     235770006001023797513MUG MINI LOVE ASSTD    0000001000+00000700+00000+0001T   00000700+0000001625          1400 SB6515               1AZ
235771000235771               235771               170213G2     1400+00000+G20000001093+0000001093+000000000+000000154+0000001240+0000000007+I20000000000+0000001240+Z
235771001235771903-000183     235771006003000451043SWT LB HEART LOLLY     0000001000+00000393+00000+0001T   00000393+0000001627          1400 SB6150               1AZ
235771002235771018-000177     235771006001023797513MUG MINI LOVE ASSTD    0000001000+00000700+00000+0001T   00000700+0000001627          1400 SB6515               1AZ
235772000235772               235772               170213G2     1400+00000+G20000001753+0000001753+000000000+000000246+0000001990+0000000009+I20000000000+0000001990+Z
235772001235772039-001023     235772006003000466337CANDLE TEA-LITE METALIC0000001000+00001753+00000+0001T   00001753+0000001630          1400 SB6510               1AZ
235773000235773               235773               170213G2     1400+00000+G20000005085+0000005085+000000000+000000712+0000005790+0000000007+I20000000000+0000005790+Z
235773001235773018-000130     235773006001023867537MUG OCC LOVE MINI+HEART0000001000+00003507+00000+0001T   00003507+0000001631          1400 SB6515               1AZ
235773002235773077-000303     235773006001023593757GIFT-BAG PAPER MED     0000001000+00001578+00000+0001T   00001578+0000001631          1400 SB6112               1AZ
235774000235774               235774               170213G2     1400+00000+G20000001314+0000001314+000000000+000000184+0000001490+0000000008+I20000000000+0000001490+Z
235774001235774903-005001     235774006002580020014SWT CT MALLOW MICE 120g0000001000+00001314+00000+0001T   00001314+0000001648          1400 SB6150               1AZ
235775000235775               235775               170213G2     1400+00000+G20000003935+0000003935+000000000+000000552+0000004487+0000000000+I40000004487+0000000000+Z
235775001235775018-000136     235775006001023659026MUG OCC LOVE W/PLUSH   0000001000+00003507+00000+0001T   00003507+0000001650          1400 SB6515               1AZ
235775002235775903-000183     235775006003000451043SWT LB HEART LOLLY     0000001000+00000393+00000+0001T   00000393+0000001650          1400 SB6150               1AZ
235775003235775112-116038     235775006009681820246TCS CARRIER BAG MIDI   0000001000+00000035+00000+0001T   00000035+0000001650          1400 SB6090               1AZ
235776000235776               235776               170213G2     1400+00000+G20000016800+0000016800+000000000+000002352+0000019150+0000000002+I20000000000+0000019150+Z
235776001235776018-000177     235776006001023797513MUG MINI LOVE ASSTD    0000024000+00000700+00000+0001T   00000700+0000001651          1400 SB6515               1AZ
235777000235777               235777               170213G2     1400+00000+G20000013157+0000013157+000000000+000001842+0000014999+0000000000+I40000014999+0000000000+Z
235777001235777031-000009     235777006003000306381P/FRAME COLLAGE HEARTS 0000001000+00013157+00000+0001T   00013157+0000001655          1400 SB6510               1AZ
235778000235778               235778               170213G2     1400+00000+G20000006138+0000006138+000000000+000000860+0000006990+0000000008+I20000000000+0000006990+Z
235778001235778368-000049     235778006003000536955PLUSH BEAR 15cm LOVE   0000001000+00004385+00000+0001T   00004385+0000001655          1400 SB6745               1AZ
235778002235778077-000299-A   235778006003000670888GIFT-BAG PAPER JMB LOVE0000001000+00001753+00000+0001T   00001753+0000001655          1400 SB6112               1AZ
235779000235779               235779               170213G2     1400+00000+G20000006173+0000006173+000000000+000000865+0000007030+0000000008+I20000000000+0000007030+Z
235779001235779031-000001-A   235779006003000246908P/FRAME GLS LOVE 9X13cm0000001000+00004385+00000+0001T   00004385+0000001657          1400 SB6510               1AZ
235779002235779037-000004     235779006001023763679ASHTRAY PL TUB 8X11CM  0000001000+00001753+00000+0001T   00002192+0008191657          1400 SB6515               1AZ
235779003235779112-116038     235779006009681820246TCS CARRIER BAG MIDI   0000001000+00000035+00000+0001T   00000035+0000001657          1400 SB6090               1AZ
235780000235780               235780               170213G2     1400+00000+G20000002278+0000002278+000000000+000000320+0000002590+0000000008+I20000000000+0000002590+Z
235780001235780903-000087     235780006001704000161SWT SPECKLED-EGGS 50G  0000002000+00001139+00000+0001T   00001139+0000001707          1400 SB6150               1AZ
235781000235781               235781               170213G2     1400+00000+G20000007361+0000007361+000000000+000001031+0000008390+0000000002+I20000000000+0000008390+Z
235781001235781077-000322     235781006001023677532GIFT-BAG 18X23CM E/D FL0000001000+00001227+00000+0001T   00001227+0000001709          1400 SB6112               1AZ
235781002235781080-000124     235781006003000297733CARD & ENV VALENTINES  0000001000+00001578+00000+0001T   00001578+0000001709          1400 SB6112               1AZ
235781003235781077-000303     235781006001023593757GIFT-BAG PAPER MED     0000002000+00001578+00000+0001T   00001578+0000001709          1400 SB6112               1AZ
235781004235781018-000177     235781006001023797513MUG MINI LOVE ASSTD    0000002000+00000700+00000+0001T   00000700+0000001709          1400 SB6515               1AZ
235782000235782               235782               170213G2     1400+00000+G20000008770+0000008770+000000000+000001228+0000009998+0000000000+I40000009998+0000000000+Z
235782001235782018-030000     235782006003000421060MUG OCCASIONS LOVE 2PCE0000002000+00004385+00000+0001T   00004385+0000001715          1400 SB6515               1AZ
235783000235783               235783               170213G2     1400+00000+G20000004821+0000004821+000000000+000000675+0000005490+0000000006+I20000000000+0000005490+Z
235783001235783018-005009     235783006001023725608MUG W/PLUSH-BEAR LOVE  0000001000+00003507+00000+0001T   00003507+0000001718          1400 SB6515               1AZ
235783002235783077-000310     235783006001023608635GIFT-BAG 18X23CM GLOSS 0000001000+00001314+00000+0001T   00001314+0000001718          1400 SB6112               1AZ
235784000235784               235784               170213G2     1400+00000+G20000001840+0000001840+000000000+000000258+0000002090+0000000008+I20000000000+0000002090+Z
235784001235784903-000843     235784008693029031067SWT GUMMY JELAXY 80G   0000001000+00000964+00000+0001T   00000964+0000001719          1400 SB6150               1AZ
235784002235784089-000099     235784006003000677566KEY CHAIN MTL SPORT AST0000001000+00000876+00000+0001T   00000876+0000001719          1400 SB6205               1AZ
235785000235785               235785               170213G2     1400+00000+G20000001575+0000001575+000000000+000000222+0000001790+0000000007+I20000000000+0000001790+Z
235785001235785007-000120     235785006009698062714BOOK DRAWING A4 24-PAGE0000003000+00000525+00000+0001T   00000525+0000001720          1400 SB6130               1AZ
235786000235786               235786               170213G2     1400+00000+G20000002192+0000002192+000000000+000000307+0000002490+0000000009+I20000000000+0000002490+Z
235786001235786566-000359     235786006003000582709STICKER BOOK LOVE SPARK0000001000+00002192+00000+0001T   00002192+0000001720          1400 SB6130               1AZ
235787000235787               235787               170213G2     1400+00000+G20000002630+0000002630+000000000+000000369+0000002990+0000000009+I20000000000+0000002990+Z
235787001235787159-000020     235787006001023905543HAIR DRYING MICROFIBRE 0000001000+00002630+00000+0001T   00002630+0000001723          1400 SB6200               1AZ
235788000235788               235788               170213G2     1400+00000+G20000009683+0000009683+000000000+000001356+0000011030+0000000009+I20000000000+0000011030+Z
235788001235788009-002000     235788006003000593903MELAMINE DINNER SET    0000001000+00009648+00000+0001T   00014911+0008151725          1400 SB6210               1AZ
235788002235788112-116038     235788006009681820246TCS CARRIER BAG MIDI   0000001000+00000035+00000+0001T   00000035+0000001725          1400 SB6090               1AZ
235789000235789               235789               170213G2     1400+00000+G20000018283+0000018283+000000000+000002563+0000020846+0000000000+I40000020846+0000000000+Z
235789001235789079-009702-B   235789008427973059491PAPER SIRIO A2 WHITE   0000002000+00001051+00000+0001T   00001051+0000001731          1400 SB6130               1AZ
235789002235789112-116069     235789006009681820277TCS CARRIER BAG JUMBO  0000001000+00000048+00000+0001T   00000048+0000001731          1400 SB6090               1AZ
235789003235789077-000011-X   235789006001023809827TISSUE-WRAP SILVER 10PC0000001000+00001753+00000+0001T   00001753+0000001731          1400 SB6112               1AZ
235789004235789077-000315     235789006003000181186GIFT-BAG 20x28cm MATT  0000002000+00001578+00000+0001T   00001578+0000001731          1400 SB6112               1AZ
235789005235789030-000031-A   235789006003000457588PLAQUE W/WORDS ASSTD   0000001000+00004385+00000+0001T   00004823+0006471731          1400 SB6505               1AZ
235789006235789368-000049     235789006003000536955PLUSH BEAR 15cm LOVE   0000001000+00004385+00000+0001T   00004385+0000001731          1400 SB6745               1AZ
235789007235789089-000192-A   235789006001023901774KEY-CHAIN ACRYLIC      0000001000+00000876+00000+0001T   00000876+0000001731          1400 SB6205               1AZ
235789008235789018-000127     235789006001023380289MUG OCC STRAIGHT LOVE  0000001000+00001578+00000+0001T   00001753+0006471731          1400 SB6515               1AZ
235790000235790               235790               170213G2     1400+00000+G20000015114+0000015114+000000000+000002117+0000017231+0000000000+I40000017231+0000000000+Z
235790001235790112-116038     235790006009681820246TCS CARRIER BAG MIDI   0000001000+00000035+00000+0001T   00000035+0000001747          1400 SB6090               1AZ
235790002235790018-000177     235790006001023797513MUG MINI LOVE ASSTD    0000004000+00000700+00000+0001T   00000700+0000001747          1400 SB6515               1AZ
235790003235790368-000111     235790006001023780812PLUSH BEAR/DOG 29CM    0000001000+00012279+00000+0001T   00012279+0000001747          1400 SB6745               1AZ
235791000235791               235791               170213G2     1400+00000+G20000008591+0000008591+000000000+000001204+0000009790+0000000005+I20000000000+0000009790+Z
235791001235791072-020370     235791006003000024193PET FOOD SCOOP LARGE   0000001000+00001753+00000+0001T   00001753+0000001748          1400 SB6870               1AZ
235791002235791077-000303     235791006001023593757GIFT-BAG PAPER MED     0000001000+00001578+00000+0001T   00001578+0000001748          1400 SB6112               1AZ
235791003235791048-000751     235791006001023849779CAMPING-LANTERN B/O    0000001000+00003507+00000+0001T   00003507+0000001748          1400 SB6305               1AZ
235791004235791566-000362     235791006003000583065STICKER LETTER & NUMBER0000001000+00001753+00000+0001T   00001753+0000001748          1400 SB6130               1AZ
235792000235792               235792               170213G2     1400+00000+G20000004997+0000004997+000000000+000000700+0000005690+0000000007+I20000000000+0000005690+Z
235792001235792077-000384     235792006003000275243G/BAG HOT STMP 18x23CM 0000001000+00001490+00000+0001T   00001490+0000001749          1400 SB6112               1AZ
235792002235792018-005009     235792006001023725608MUG W/PLUSH-BEAR LOVE  0000001000+00003507+00000+0001T   00003507+0000001749          1400 SB6515               1AZ
A17021300                                          11021668G2SLAVE 1                       SB62IC
A17021301                                          11494147G2SLAVE 1                       SB62IC
A17021302                                          14251098G2SLAVE 1                       SB61IC
A17021303                                          15030427G2SLAVE 1                       SB62IC
A17021304                                          15500686G2SLAVE 1                       SB62IC
C23575600                                          170213G2368-000111     15370311SLAVE 1     SB61IC0000000000+0000000000+0010000001000+
C23579000                                          170213G2072-020370     17352595SLAVE 1     SB62IC0000000000+0000000000+0010000001000+
C23579001                                          170213G2077-000303     17353573SLAVE 1     SB62IC0000000000+0000000000+0020000001000+
C23579002                                          170213G2566-000362     17354402SLAVE 1     SB62IC0000000000+0000000000+0030000001000+
C23579003                                          170213G2048-000751     17355252SLAVE 1     SB62IC0000000000+0000000000+0040000001000+
M17021301                              IT          G2ATT                                                                                             LAST DOC SLAVE1 235792                                                                          SASOLBURG G2                                                                                    THANKS
M17021391                              CASH        G2SLAVE 1                       Z-REPORT No.   633TOTAL (Sales - Refunds)           7206.89       CASH TO BE BANKED                 4432.50       DEBIT CARDS                          0.00       CREDIT CARDS                      2583.59       Z-READING                         7016.09       AIRTIME DEBIT CARD SALES             0.00       AIRTIME CARD SALES                   0.00       OVERS/UNDERS                         0.00       AIRTIME CASH SALES                   0.00       GIFT CARDS                           0.00       GIFT CARD CASH SALES                 0.00       STATIONERY(PHOTOCOPIES)             29.10       MAINTENANCE+REPAIR-EQP             161.69       ROUNDING                             0.01       T O T A L  CASH PAYOUTS            190.80                                                                                                                                                                                                      Z
M17021392                              CASH        G2ABSENT                                                                                                                                                                                          ANNUAL LEAVE                                                                                                                                                                                    DAY OFF                                                                                                                                                                                         COMMENTS                                                                                                                                                                                                                                                                                                                                                                                       Z
Y17021300                                          G200000000632609+000100
ZG217021319403 SLAVE 1      SALES DATA                     NEXT INVOICE NO.  235793 0633
F093156490-048257         1702131306290000001ICSLAVE 1
F093157466-000802         1702131306360000001ICSLAVE 1
F093158065-005337         1702131306450000001ICSLAVE 1
F093158497-068614         1702131306450000001ICSLAVE 1
F094751031-001009         1702131306570000051ICSLAVE 1
F094751159-000800         1702131306570000061ICSLAVE 1
X G2 Slave 1 First invoice 235687 170213 Last invoice 235792 170213 Next invoice 235793 Total number of records 000000349 clbackup completed 19:40:18
