243374000243374               243374               170213G2     1400+00000+G20000010961+0000010961+000000000+000001535+0000012490+0000000006+I20000000000+0000012490+Z
243374001243374159-000643     243374006001023767028BACK-BRUSH ASSTD       0000001000+00003507+00000+0001T   00003507+0000000914          1400 NF6200               2AZ
243374002243374159-000887     243374006001023730817HOOKS PL SUCTION 9PCE  0000001000+00002192+00000+0001T   00002192+0000000914          1400 NF6200               2AZ
243374003243374159-000107     243374006001023640406SHOWER-CURTAIN 180cm   0000001000+00005262+00000+0001T   00006139+0008190914          1400 NF6200               2AZ
243375000243375               243375               170213G2     1400+00000+G20000005297+0000005297+000000000+000000742+0000006030+0000000009+I20000000000+0000006030+Z
243375001243375368-000171     243375006003000233250PLUSH BEAR 14cm        0000001000+00005262+00000+0001T   00005262+0000000920          1400 NF6745               2AZ
243375002243375112-116038     243375006009681820246TCS CARRIER BAG MIDI   0000001000+00000035+00000+0001T   00000035+0000000920          1400 NF6090               2AZ
243376000243376               243376               170213G2     1400+00000+G20000003153+0000003153+000000000+000000444+0000003590+0000000007+I20000000000+0000003590+Z
243376001243376079-009702-C   243376008427973059309PAPER SIRIO A2 VIOLET  0000003000+00001051+00000+0001T   00001051+0000000925          1400 NF6130               2AZ
243377000243377               243377               170213G2     1400+00000+G20000001753+0000001753+000000000+000000246+0000001990+0000000009+I20000000000+0000001990+Z
243377001243377079-013099     243377006003000081875ART+CRAFT EYES ASSTD   0000001000+00001753+00000+0001T   00001753+0000000929          1400 NF6130               2AZ
243378000243378               243378               170213G2     1400+00000+G20000008330+0000008330+000000000+000001167+0000009497+0000000000+I40000009497+0000000000+Z
243378001243378486-001018     243378006001023847447CLOCK ALARM RECTANGULAR0000001000+00007016+00000+0001T   00007016+0000000931          1400 NF6510               2AZ
243378002243378046-000012     243378006904708013062BATTERIES AA  CARD-OF-40000001000+00001314+00000+0001T   00001314+0000000931          1400 NF6312               2AZ
243379000243379               243379               170213G2     1400+00000+G20000006138+0000006138+000000000+000000860+0000006990+0000000008+I20000000000+0000006990+Z
243379001243379006-000190     243379006003000685530BALLOONS LOVE 81x91cm  0000001000+00004385+00000+0001T   00004385+0000000932          1400 NF6131               2AZ
243379002243379077-000472     243379006003000330133G-BAG DESGNR LRG 25X32 0000001000+00001753+00000+0001T   00001753+0000000932          1400 NF6112               2AZ
243380000243380               243380               170213G2     1400+00000+G20000004383+0000004383+000000000+000000615+0000004990+0000000008+I20000000000+0000004990+Z
243380001243380077-000005-B   243380006003000326617PAPER TISSUE PATTERN   0000001000+00002630+00000+0001T   00002630+0000000937          1400 NF6112               2AZ
243380002243380077-000316     243380006001023609731GIFT-BAG 25X32CM MATT  0000001000+00001753+00000+0001T   00001753+0000000937          1400 NF6112               2AZ
243381000243381               243381               170213G2     1400+00000+G20000008626+0000008626+000000000+000001209+0000009835+0000000000+I40000009835+0000000000+Z
243381001243381018-005009     243381006001023725608MUG W/PLUSH-BEAR LOVE  0000001000+00003507+00000+0001T   00003507+0000000938          1400 NF6515               2AZ
243381002243381088-000108     243381006001023765536POTPOURRI-OIL 10ml ASST0000002000+00001753+00000+0001T   00001753+0000000938          1400 NF6212               2AZ
243381003243381077-000303     243381006001023593757GIFT-BAG PAPER MED     0000001000+00001578+00000+0001T   00001578+0000000938          1400 NF6112               2AZ
243381004243381112-116038     243381006009681820246TCS CARRIER BAG MIDI   0000001000+00000035+00000+0001T   00000035+0000000938          1400 NF6090               2AZ
243382000243382               243382               170213G2     1400+00000+G20000004558+0000004558+000000000+000000639+0000005190+0000000007+I20000000000+0000005190+Z
243382001243382077-000926     243382006003000414178G/WRAP 700mmx2m LOVE   0000001000+00002192+00000+0001T   00002192+0000000946          1400 NF6112               2AZ
243382002243382077-000299     243382006003000395576G/BAG 32x25cm LRG LOVE 0000001000+00001490+00000+0001T   00001490+0000000946          1400 NF6112               2AZ
243382003243382071-005213     243382006001023690371CELLOTAPE 12mmx33m     0000001000+00000876+00000+0001T   00000876+0000000946          1400 NF6130               2AZ
243383000243383               243383               170213G2     1400+00000+G20000002630+0000002630+000000000+000000369+0000002999+0000000000+I40000002999+0000000000+Z
243383001243383050-000364-Z   243383006001023777133PADLOCK IRON 38mm CARD 0000001000+00002630+00000+0001T   00002630+0000000952          1400 NF6855               2AZ
243384000243384               243384               170213G2     1400+00000+G20000002980+0000002980+000000000+000000418+0000003398+0000000000+I40000003398+0000000000+Z
243384001243384033-000013     243384006001023567215PILL-REMINDER PL       0000001000+00001227+00000+0001T   00001227+0000001001          1400 NF6200               2AZ
243384002243384033-000119     243384006003000285563COMBS PL STYLING 3PC   0000001000+00001753+00000+0001T   00001753+0000001001          1400 NF6200               2AZ
243385000243385               243385               170213G2     1400+00000+G20000008978+0000008978+000000000+000001259+0000010230+0000000007+I20000000000+0000010230+Z
243385001243385159-000647     243385006001023995551BRISTLE-BRUSH WDN HNDLE0000001000+00004823+00000+0001T   00004823+0000001002          1400 NF6200               2AZ
243385002243385084-000895     243385006003000576968NAIL FILES 4PC INCL    0000001000+00002630+00000+0001T   00002630+0000001002          1400 NF6200               2AZ
243385003243385084-070001     243385006001023630018NAIL FILE 12cm         0000001000+00001490+00000+0001T   00001490+0000001002          1400 NF6200               2AZ
243385004243385112-116038     243385006009681820246TCS CARRIER BAG MIDI   0000001000+00000035+00000+0001T   00000035+0000001002          1400 NF6090               2AZ
243386000243386               243386               170213G2     1400+00000+G20000007310+0000007310+000000000+000001026+0000008330+0000000006+I20000000000+0000008330+Z
243386001243386174-000306     243386006003000667666TRAVEL TAG NAME/LUGGAGE0000003000+00001753+00000+0001T   00001753+0000001021          1400 NF6205               2AZ
243386002243386050-000362-Z   243386006001023475275PADLOCK IRON 25mm CARD 0000001000+00002016+00000+0001T   00002016+0000001021          1400 NF6855               2AZ
243386003243386112-116038     243386006009681820246TCS CARRIER BAG MIDI   0000001000+00000035+00000+0001T   00000035+0000001021          1400 NF6090               2AZ
243387000243387               243387               170213G2     1400+00000+G20000001578+0000001578+000000000+000000221+0000001790+0000000009+I20000000000+0000001790+Z
243387001243387080-000124     243387006003000297733CARD & ENV VALENTINES  0000001000+00001578+00000+0001T   00001578+0000001022          1400 NF6112               2AZ
243388000243388               243388               170213G2     1400+00000+G20000005029+0000005029+000000000+000000705+0000005730+0000000004+I20000000000+0000005730+Z
243388001243388159-000704     243388006001023868701BATH HAIR BAND 19x11cm 0000001000+00001753+00000+0001T   00002630+0008131027          1400 NF6200               2AZ
243388002243388304-001011     243388006001023806727FLWR ROSE RED W/BEAR   0000001000+00000613+00000+0001T   00000788+0006471027          1400 NF6510               2AZ
243388003243388903-000194     243388006009826020616SWT CHOC RP LOLLY 25G  0000002000+00001314+00000+0001T   00001314+0000001027          1400 NF6150               2AZ
243388004243388112-116038     243388006009681820246TCS CARRIER BAG MIDI   0000001000+00000035+00000+0001T   00000035+0000001027          1400 NF6090               2AZ
243389000243389               243389               170213G2     1400+00000+G20000001226+0000001226+000000000+000000172+0000001390+0000000008+I20000000000+0000001390+Z
243389001243389304-001011     243389006001023806727FLWR ROSE RED W/BEAR   0000002000+00000613+00000+0001T   00000788+0006471030          1400 NF6510               2AZ
243390000243390               243390               170213G2     1400+00000+G20000006137+0000006137+000000000+000000860+0000006990+0000000007+I20000000000+0000006990+Z
243390001243390261-000001     243390006003000656080GUN HAND POTATO SHOOTER0000001000+00003507+00000+0001T   00003507+0000001031          1400 NF6710               2AZ
243390002243390903-000599     243390006003000608119SWEET BALLOONPUMP 18cm 0000001000+00002630+00000+0001T   00002630+0000001031          1400 NF6150               2AZ
243391000243391               243391               170213G2     1400+00000+G20000006084+0000006084+000000000+000000853+0000006930+0000000007+I20000000000+0000006930+Z
243391001243391077-000245     243391006001023759214GIFT-RIBBON METALLICx2 0000001000+00001227+00000+0001T   00001227+0000001036          1400 NF6112               2AZ
243391002243391077-000235     243391006003000160211GIFT-RIBBON ROLL METALC0000001000+00002630+00000+0001T   00002630+0000001036          1400 NF6112               2AZ
243391003243391301-085000     243391006003000674299 ORN OCC. LOVE HEARTS  0000001000+00002192+00000+0001T   00002192+0000001036          1400 NF6505               2AZ
243391004243391112-116038     243391006009681820246TCS CARRIER BAG MIDI   0000001000+00000035+00000+0001T   00000035+0000001036          1400 NF6090               2AZ
243392000243392               243392               170213G2     1400+00000+G20000003060+0000003060+000000000+000000430+0000000000+0000000000+ 00000000000+0000000000+Z
243392001243392007-000123     243392006003000533879BOOK COVER 450mmx1.5m  0000010000+00000306+00000+0001T   00000306+000000              1400 NF61302IC            2 Z
243393000243393               243393               170213G2     1400+00000+G20000005690-0000005690-000000000+000000799-0000006490-0000000001+I20000000000+0000006490-Z
243393001243393007-000123     243393006003000533879BOOK COVER 450mmx1.5m  0000010000-00000306+00000+0001T   00000306+0000001040          1400 NF61302IC            2 Z
243393002243393466-000515     243393006001023477408BALLS TENNIS BAG-OF-3  0000001000-00002630+00000+0001T   00002630+0000001040          1400 NF67852IC            2 Z
243394000243394               243394               170213G2     1400+00000+G20000003331+0000003331+000000000+000000467+0000003790+0000000008+I20000000000+0000003790+Z
243394001243394080-000124     243394006003000297733CARD & ENV VALENTINES  0000001000+00001578+00000+0001T   00001578+0000001047          1400 NF6112               2AZ
243394002243394079-000012     243394006001023655332P/CRAYONS 12-COL LONG  0000001000+00001753+00000+0001T   00001753+0000001047          1400 NF6130               2AZ
243395000243395               243395               170213G2     1400+00000+G20000001753+0000001753+000000000+000000246+0000001999+0000000000+I40000001999+0000000000+Z
243395001243395077-000308     243395006001023595812GIFT-BAG 33X45CM E/DAY 0000001000+00001753+00000+0001T   00001753+0000001048          1400 NF6112               2AZ
243396000243396               243396               170213G2     1400+00000+G20000003767+0000003767+000000000+000000529+0000004290+0000000006+I20000000000+0000004290+Z
243396001243396077-000314     243396006003000181148GIFT-BAG 11X14CM MATT  0000002000+00000876+00000+0001T   00000876+0000001056          1400 NF6112               2AZ
243396002243396903-000483     243396006001704001410SWT LIQUOR SML SORT 60G0000001000+00000876+00000+0001T   00000876+0000001056          1400 NF6150               2AZ
243396003243396903-000087     243396006001704000161SWT SPECKLED-EGGS 50G  0000001000+00001139+00000+0001T   00001139+0000001056          1400 NF6150               2AZ
243397000243397               243397               170213G2     1400+00000+G20000024606+0000024606+000000000+000003446+0000028052+0000000000+I40000028052+0000000000+Z
243397001243397112-116069     243397006009681820277TCS CARRIER BAG JUMBO  0000001000+00000048+00000+0001T   00000048+0000001105          1400 NF6090               2AZ
243397002243397040-001013     243397006003000327966C/HOLDER SET 3PC W/TRAY0000001000+00014911+00000+0001T   00014911+0000001105          1400 NF6510               2AZ
243397003243397039-000500     243397006001023816450C/VOTIVE 8PC RAINBOW   0000001000+00005262+00000+0001T   00005262+0000001105          1400 NF6510               2AZ
243397004243397031-000001-A   243397006003000246908P/FRAME GLS LOVE 9X13cm0000001000+00004385+00000+0001T   00004385+0000001105          1400 NF6510               2AZ
243398000243398               243398               170213G2     1400+00000+G20000004382+0000004382+000000000+000000615+0000004990+0000000007+I20000000000+0000004990+Z
243398001243398200-003024     243398006001023657299REFUSE BAGS 20PCE BLACK0000001000+00001753+00000+0001T   00001753+0000001129          1400 NF6214               2AZ
243398002243398077-000011-R   243398006001023808462P/TISSUE DARK 10-SHEETS0000001000+00000876+00000+0001T   00000876+0000001129          1400 NF6112               2AZ
243398003243398077-000520     243398006001023908254GIFT-BAG 25X32CM       0000001000+00001753+00000+0001T   00001753+0000001129          1400 NF6112               2AZ
243399000243399               243399               170213G2     1400+00000+G20000006172+0000006172+000000000+000000865+0000007030+0000000007+I20000000000+0000007030+Z
243399001243399562-000020     243399006003000600861EDU PLAY DOUGH 60g 4PC 0000001000+00003507+00000+0001T   00003507+0000001136          1400 NF6755               2AZ
243399002243399079-008998     243399006003000339686ART+CRAFT  CANVAS      0000001000+00002630+00000+0001T   00002630+0000001136          1400 NF6130               2AZ
243399003243399112-116038     243399006009681820246TCS CARRIER BAG MIDI   0000001000+00000035+00000+0001T   00000035+0000001136          1400 NF6090               2AZ
243400000243400               243400               170213G2     1400+00000+G20000001753+0000001753+000000000+000000246+0000001990+0000000009+I20000000000+0000001990+Z
243400001243400566-000007     243400006001023761187S/BOOK SUPER VALUE     0000001000+00001753+00000+0001T   00001753+0000001138          1400 NF6130               2AZ
243401000243401               243401               170213G2     1400+00000+G20000008064+0000008064+000000000+000001130+0000009190+0000000004+I20000000000+0000009190+Z
243401001243401079-009702-D   243401008427973059354PAPER SIRIO A2 RED COL 0000001000+00001051+00000+0001T   00001051+0000001141          1400 NF6130               2AZ
243401002243401006-000166-H   243401006003000608096BALLOONS HELIUM 6PC WHT0000001000+00001314+00000+0001T   00001314+0000001141          1400 NF6131               2AZ
243401003243401006-000166-D   243401006003000516490BALLOONS LRG 6PC RED   0000001000+00001314+00000+0001T   00001314+0000001141          1400 NF6131               2AZ
243401004243401369-000042     243401006001023993854BABY BEAR RATTLE ASSTD 0000001000+00004385+00000+0001T   00004385+0000001141          1400 NF6745               2AZ
243402000243402               243402               170213G2     1400+00000+G20000014061+0000014061+000000000+000001971+0000016030+0000000002+I20000000000+0000016030+Z
243402001243402263-000415     243402006003000600571V/TOOLS PLASTIC ASSEMBL0000001000+00003507+00000+0001T   00003507+0000001143          1400 NF6710               2AZ
243402002243402112-116038     243402006009681820246TCS CARRIER BAG MIDI   0000001000+00000035+00000+0001T   00000035+0000001143          1400 NF6090               2AZ
243402003243402079-000512     243402006001023635853CRAYONS WAX 12-COLOUR  0000001000+00001490+00000+0001T   00001490+0000001143          1400 NF6130               2AZ
243402004243402033-001399     243402006001023905512HAIR-PINS 100PCE       0000001000+00001753+00000+0001T   00001753+0000001143          1400 NF6200               2AZ
243402005243402567-011308     243402006003000598472BOOK COLOURING COPY    0000001000+00002630+00000+0001T   00002630+0000001143          1400 NF6757               2AZ
243402006243402466-000020     243402006001023167941FRISBEE 25cm           0000001000+00002192+00000+0001T   00002192+0000001143          1400 NF6785               2AZ
243402007243402033-001403     243402006009654960504HAIR-CURLERS 4PC X-LRG 0000001000+00001227+00000+0001T   00001227+0000001143          1400 NF6200               2AZ
243402008243402033-001402     243402006009654960498HAIR-CURLERS 6PCE LRG  0000001000+00001227+00000+0001T   00001227+0000001143          1400 NF6200               2AZ
243403000243403               243403               170213G2     1400+00000+G20000004645+0000004645+000000000+000000652+0000005290+0000000007+I20000000000+0000005290+Z
243403001243403077-000240     243403006003000326259G/RIBBON 4PC PEARLIZED 0000001000+00001753+00000+0001T   00001753+0000001144          1400 NF6112               2AZ
243403002243403079-000012     243403006001023655332P/CRAYONS 12-COL LONG  0000001000+00001753+00000+0001T   00001753+0000001144          1400 NF6130               2AZ
243403003243403007-010192     243403006009635830536BOOK H/COVER A5 192PAGE0000001000+00001139+00000+0001T   00001139+0000001144          1400 NF6130               2AZ
243404000243404               243404               170213G2     1400+00000+G20000006138+0000006138+000000000+000000860+0000006990+0000000008+I20000000000+0000006990+Z
243404001243404084-078824     243404006003000385676NAIL FILES EMERY 24PC  0000001000+00001753+00000+0001T   00001753+0000001144          1400 NF6200               2AZ
243404002243404104-000030     243404006001023803481BASKET PL 28x20x12cm   0000001000+00004385+00000+0001T   00004385+0000001144          1400 NF6210               2AZ
243405000243405               243405               170213G2     1400+00000+G20000012273-0000012273-000000000+000001720-0000014000-0000000007+I20000000000+0000014000-Z
243405001243405033-001402     243405006009654960498HAIR-CURLERS 6PCE LRG  0000001000-00001227+00000+0001T   00001227+0000001149          1400 NF62002IC            2 Z
243405002243405033-001403     243405006009654960504HAIR-CURLERS 4PC X-LRG 0000001000-00001227+00000+0001T   00001227+0000001149          1400 NF62002IC            2 Z
243405003243405263-000415     243405006003000600571V/TOOLS PLASTIC ASSEMBL0000001000-00003507+00000+0001T   00003507+0000001149          1400 NF67102IC            2 Z
243405004243405079-000512     243405006001023635853CRAYONS WAX 12-COLOUR  0000001000-00001490+00000+0001T   00001490+0000001149          1400 NF61302IC            2 Z
243405005243405567-011308     243405006003000598472BOOK COLOURING COPY    0000001000-00002630+00000+0001T   00002630+0000001149          1400 NF67572IC            2 Z
243405006243405466-000020     243405006001023167941FRISBEE 25cm           0000001000-00002192+00000+0001T   00002192+0000001149          1400 NF67852IC            2 Z
243406000243406               243406               170213G2     1400+00000+G20000023672+0000023672+000000000+000003320+0000026990+0000000002+I20000000000+0000026990+Z
243406001243406304-003898     243406006001023712790S/FLOWER SPRAY 51CM ASS0000004000+00002630+00000+0001T   00002630+0000001151          1400 NF6510               2AZ
243406002243406304-001605     243406006001023842497FLWR LILY SPRAY 53CM   0000003000+00002630+00000+0001T   00002630+0000001151          1400 NF6510               2AZ
243406003243406304-001119     243406006001023804426FLOWER DAISY BUSH ASST 0000001000+00005262+00000+0001T   00005262+0000001151          1400 NF6510               2AZ
243407000243407               243407               170213G2     1400+00000+G20000006608+0000006608+000000000+000000926+0000007530+0000000004+I20000000000+0000007530+Z
243407001243407018-000136     243407006001023659026MUG OCC LOVE W/PLUSH   0000001000+00003507+00000+0001T   00003507+0000001157          1400 NF6515               2AZ
243407002243407077-000151     243407006008766114676GIFT-WRAP C/PHANE ASSTD0000002000+00000876+00000+0001T   00000876+0000001157          1400 NF6112               2AZ
243407003243407112-116038     243407006009681820246TCS CARRIER BAG MIDI   0000001000+00000035+00000+0001T   00000035+0000001157          1400 NF6090               2AZ
243407004243407903-000194     243407006009826020616SWT CHOC RP LOLLY 25G  0000001000+00001314+00000+0001T   00001314+0000001157          1400 NF6150               2AZ
243408000243408               243408               170213G2     1400+00000+G20000003329+0000003329+000000000+000000467+0000003790+0000000006+I20000000000+0000003790+Z
243408001243408071-005213     243408006001023690371CELLOTAPE 12mmx33m     0000001000+00000876+00000+0001T   00000876+0000001159          1400 NF6130               2AZ
243408002243408077-000902     243408006003000410569G/WRAP 700mmx1m BBY/KID0000001000+00001753+00000+0001T   00001753+0000001159          1400 NF6112               2AZ
243408003243408007-000537     243408000651728791017NOTE-PAD RND SMILE-FACE0000001000+00000700+00000+0001T   00000700+0000001159          1400 NF6130               2AZ
243409000243409               243409               170213G2     1400+00000+G20000002192+0000002192+000000000+000000307+0000002490+0000000009+I20000000000+0000002490+Z
243409001243409080-000127     243409006003000424351VALENTINES DAY 36x24CM 0000001000+00002192+00000+0001T   00002192+0000001200          1400 NF6112               2AZ
243410000243410               243410               170213G2     1400+00000+G20000002630+0000002630+000000000+000000369+0000002999+0000000000+I40000002999+0000000000+Z
243410001243410403-000509     243410006001023699664MONEY-BANK PL. PIGGY   0000001000+00002630+00000+0001T   00002630+0000001202          1400 NF6510               2AZ
243411000243411               243411               170213G2     1400+00000+G20000001753+0000001753+000000000+000000246+0000001990+0000000009+I20000000000+0000001990+Z
243411001243411200-003024     243411006001023657299REFUSE BAGS 20PCE BLACK0000001000+00001753+00000+0001T   00001753+0000001202          1400 NF6214               2AZ
243412000243412               243412               170213G2     1400+00000+G20000002365+0000002365+000000000+000000332+0000002690+0000000007+I20000000000+0000002690+Z
243412001243412304-001011     243412006001023806727FLWR ROSE RED W/BEAR   0000001000+00000613+00000+0001T   00000788+0006471204          1400 NF6510               2AZ
243412002243412077-000151     243412006008766114676GIFT-WRAP C/PHANE ASSTD0000001000+00000876+00000+0001T   00000876+0000001204          1400 NF6112               2AZ
243412003243412077-000302     243412008010410010195GIFT-BAG 18X23CM E/D   0000001000+00000876+00000+0001T   00000876+0000001204          1400 NF6112               2AZ
243413000243413               243413               170213G2     1400+00000+G20000004155+0000004155+000000000+000000582+0000004730+0000000007+I20000000000+0000004730+Z
243413001243413018-000136     243413006001023659026MUG OCC LOVE W/PLUSH   0000001000+00003507+00000+0001T   00003507+0000001236          1400 NF6515               2AZ
243413002243413304-001011     243413006001023806727FLWR ROSE RED W/BEAR   0000001000+00000613+00000+0001T   00000788+0006471236          1400 NF6510               2AZ
243413003243413112-116038     243413006009681820246TCS CARRIER BAG MIDI   0000001000+00000035+00000+0001T   00000035+0000001236          1400 NF6090               2AZ
243414000243414               243414               170213G2     1400+00000+G20000016690+0000016690+000000000+000002338+0000019028+0000000000+I40000019028+0000000000+Z
243414001243414112-116038     243414006009681820246TCS CARRIER BAG MIDI   0000001000+00000035+00000+0001T   00000035+0000001239          1400 NF6090               2AZ
243414002243414368-000049     243414006003000536955PLUSH BEAR 15cm LOVE   0000001000+00004385+00000+0001T   00004385+0000001239          1400 NF6745               2AZ
243414003243414304-001011     243414006001023806727FLWR ROSE RED W/BEAR   0000002000+00000613+00000+0001T   00000788+0006471239          1400 NF6510               2AZ
243414004243414903-000843     243414008693029031067SWT GUMMY JELAXY 80G   0000001000+00000964+00000+0001T   00000964+0000001239          1400 NF6150               2AZ
243414005243414903-000844     243414005010478432567SWT CANDY DL LUV HEARTS0000003000+00001314+00000+0001T   00001314+0000001239          1400 NF6150               2AZ
243414006243414083-000076     243414006001023847171LIGHTER LONG-REACH 28cm0000001000+00004385+00000+0001T   00004385+0000001239          1400 NF6315               2AZ
243414007243414077-000011     243414006003000542352PAPER RAFFIA ASSTD COL 0000001000+00001753+00000+0001T   00001753+0000001239          1400 NF6112               2AZ
243415000243415               243415               170213G2     1400+00000+G20000003506+0000003506+000000000+000000491+0000003990+0000000007+I20000000000+0000003990+Z
243415001243415080-000127     243415006003000424351VALENTINES DAY 36x24CM 0000001000+00002192+00000+0001T   00002192+0000001241          1400 NF6112               2AZ
243415002243415018-000119     243415006003000336074MUG DAILY STRAIGHT     0000001000+00001314+00000+0001T   00001753+0008171241          1400 NF6515               2AZ
243416000243416               243416               170213G2     1400+00000+G20000001226+0000001226+000000000+000000172+0000001390+0000000008+I20000000000+0000001390+Z
243416001243416083-000055     243416006003000003853LIGHTER ELCTRNC REFILBL0000002000+00000613+00000+0001T   00000613+0000001242          1400 NF6315               2AZ
243417000243417               243417               170213G2     1400+00000+G20000004385+0000004385+000000000+000000614+0000004990+0000000009+I20000000000+0000004990+Z
243417001243417082-000115     243417006003000360604READING GLS STRNGHT:2.50000001000+00004385+00000+0001T   00004385+0000001244          1400 NF6160               2AZ
243418000243418               243418               170213G2     1400+00000+G20000007189+0000007189+000000000+000001008+0000008197+0000000000+I40000008197+0000000000+Z
243418001243418077-000304     243418006001023483232GIFT-BAG 25X32CM E/DAY 0000001000+00001490+00000+0001T   00001490+0000001246          1400 NF6112               2AZ
243418002243418124-001000     243418006003000683734STORAGE TIN SEWING DESN0000001000+00003069+00000+0001T   00003069+0000001246          1400 NF6300               2AZ
243418003243418108-009000     243418006003000638673JELLY MOULD WITH LID PL0000001000+00002630+00000+0001T   00003507+0008171246          1400 NF6210               2AZ
243419000243419               243419               170213G2     1400+00000+G20000014294+0000014294+000000000+000002003+0000016297+0000000000+I40000016297+0000000000+Z
243419001243419301-085001     243419006003000297610ORN WATERBALL LOVE ASST0000001000+00004823+00000+0001T   00004823+0000001248          1400 NF6505               2AZ
243419002243419028-000799     243419006001023812186SKEWERS BAMBOO 100PCE  0000001000+00001578+00000+0001T   00001578+0000001248          1400 NF6305               2AZ
243419003243419301-085007     243419006003000673698ORN OCC. LOVE S/PLAQUE 0000001000+00007893+00000+0001T   00007893+0000001248          1400 NF6505               2AZ
243420000243420               243420               170213G2     1400+00000+G20000009681+0000009681+000000000+000001356+0000011030+0000000007+I20000000000+0000011030+Z
243420001243420019-000121     243420006001023809605PLANTER GALV 2PC WD-HND0000001000+00003946+00000+0001T   00003946+0000001249          1400 NF6510               2AZ
243420002243420031-000922     243420006003000095100P/FRAME BIRDCAGE 9X12CM0000001000+00005700+00000+0001T   00005700+0000001249          1400 NF6510               2AZ
243420003243420112-116038     243420006009681820246TCS CARRIER BAG MIDI   0000001000+00000035+00000+0001T   00000035+0000001249          1400 NF6090               2AZ
243421000243421               243421               170213G2     1400+00000+G20000000613+0000000613+000000000+000000086+0000000690+0000000009+I20000000000+0000000690+Z
243421001243421565-000044     243421006003000128280BARREL OF SLIME 100g   0000001000+00000613+00000+0001T   00000613+0000001249          1400 NF6745               2AZ
243422000243422               243422               170213G2     1400+00000+G20000003853+0000003853+000000000+000000540+0000004390+0000000003+I20000000000+0000004390+Z
243422001243422903-000120     243422006002099001665SWEET GS ZILLIONS 50g  0000002000+00000700+00000+0001T   00000700+0000001257          1400 NF6150               2AZ
243422002243422903-000121     243422006002099001689SWT GS ZILLIONS SOURS  0000001000+00000700+00000+0001T   00000700+0000001257          1400 NF6150               2AZ
243422003243422006-000118     243422006001023730725BALLOONS 6PC TWISTER   0000001000+00001753+00000+0001T   00001753+0000001257          1400 NF6131               2AZ
243423000243423               243423               170213G2     1400+00000+G20000003540+0000003540+000000000+000000497+0000004030+0000000007+I20000000000+0000004030+Z
243423001243423306-000024-A   243423006003000577309COTTON-WOOL-PADS 80PC  0000001000+00001753+00000+0001T   00001753+0000001258          1400 NF6200               2AZ
243423002243423007-000127     243423006009685853431BOOK H/COVER MEMO 144PG0000001000+00000876+00000+0001T   00000876+0000001258          1400 NF6130               2AZ
243423003243423084-070005     243423006001023627902NAIL FILES 6PCE H/GLOW 0000001000+00000876+00000+0001T   00000876+0000001258          1400 NF6200               2AZ
243423004243423112-116038     243423006009681820246TCS CARRIER BAG MIDI   0000001000+00000035+00000+0001T   00000035+0000001258          1400 NF6090               2AZ
243424000243424               243424               170213G2     1400+00000+G20000004383+0000004383+000000000+000000614+0000004997+0000000000+I40000004997+0000000000+Z
243424001243424562-000520     243424006003000112777EDU BLOCKS WDN ALPHABET0000001000+00003507+00000+0001T   00003507+0000001312          1400 NF6755               2AZ
243424002243424903-000521     243424006001704009652SWT GUMMY SOFT GUMS    0000001000+00000876+00000+0001T   00000876+0000001312          1400 NF6150               2AZ
243425000243425               243425               170213G2     1400+00000+G20000054786+0000054786+000000000+000007686+0000062470+0000000002+I20000000000+0000062470+Z
243425001243425077-000290     243425006001023902023GIFT BOX 26x32x13cm    0000002000+00001753+00000+0001T   00001753+0000001317          1400 NF6112               2AZ
243425002243425566-000359     243425006003000582709STICKER BOOK LOVE SPARK0000001000+00002192+00000+0001T   00002192+0000001317          1400 NF6130               2AZ
243425003243425304-001011     243425006001023806727FLWR ROSE RED W/BEAR   0000080000+00000613+00000+0001T   00000788+0006471317          1400 NF6510               2AZ
243425004243425112-116069     243425006009681820277TCS CARRIER BAG JUMBO  0000001000+00000048+00000+0001T   00000048+0000001317          1400 NF6090               2AZ
243426000243426               243426               170213G2     1400+00000+G20000007660+0000007660+000000000+000001074+0000008730+0000000004+I20000000000+0000008730+Z
243426001243426004-071280     243426006003000129959WRITABLE-CD SINGLE     0000001000+00001314+00000+0001T   00001314+0000001318          1400 NF6310               2AZ
243426002243426903-000481     243426006001704007481SWT MOO MILK-SHAKES 60G0000001000+00000876+00000+0001T   00000876+0000001318          1400 NF6150               2AZ
243426003243426306-000024-A   243426006003000577309COTTON-WOOL-PADS 80PC  0000001000+00001753+00000+0001T   00001753+0000001318          1400 NF6200               2AZ
243426004243426046-000012-A   243426006003000208296BATTERIES H/POWER SZ:AA0000001000+00002192+00000+0001T   00002192+0000001318          1400 NF6312               2AZ
243426005243426039-000108     243426006001023524034TEA-LITE CANDLES 8PCE  0000001000+00001490+00000+0001T   00001490+0000001318          1400 NF6510               2AZ
243426006243426112-116038     243426006009681820246TCS CARRIER BAG MIDI   0000001000+00000035+00000+0001T   00000035+0000001318          1400 NF6090               2AZ
243427000243427               243427               170213G2     1400+00000+G20000002630+0000002630+000000000+000000369+0000002990+0000000009+I20000000000+0000002990+Z
243427001243427031-000868-B   243427006001023798565P/FRAME PL BLCK 13X18CM0000001000+00002630+00000+0001T   00002630+0000001323          1400 NF6510               2AZ
243428000243428               243428               170213G2     1400+00000+G20000001788+0000001788+000000000+000000251+0000002039+0000000000+I40000002039+0000000000+Z
243428001243428016-009616     2434280060030004416932PC GLS SHAKERS 3-ASSTD0000001000+00001753+00000+0001T   00001753+0000001339          1400 NF6300               2AZ
243428002243428112-116038     243428006009681820246TCS CARRIER BAG MIDI   0000001000+00000035+00000+0001T   00000035+0000001339          1400 NF6090               2AZ
243429000243429               243429               170213G2     1400+00000+G20000015782+0000015782+000000000+000002211+0000017993+0000000000+I40000017993+0000000000+Z
243429001243429903-000844     243429005010478432567SWT CANDY DL LUV HEARTS0000002000+00001314+00000+0001T   00001314+0000001343          1400 NF6150               2AZ
243429002243429018-019000     243429006003000557288MUG OCC. LOVE JUMBO    0000002000+00005262+00000+0001T   00005262+0000001343          1400 NF6515               2AZ
243429003243429206-000620     243429006003000631797BACK SCRATCHER EXTEND  0000001000+00002630+00000+0001T   00002630+0000001343          1400 NF6321               2AZ
243430000243430               243430               170213G2     1400+00000+G20000004383+0000004383+000000000+000000614+0000004997+0000000000+I40000004997+0000000000+Z
243430001243430018-000136     243430006001023659026MUG OCC LOVE W/PLUSH   0000001000+00003507+00000+0001T   00003507+0000001347          1400 NF6515               2AZ
243430002243430903-003075     243430003800065783125SWT CHOC FAFL WAFER 52g0000001000+00000876+00000+0001T   00000876+0000001347          1400 NF6150               2AZ
243431000243431               243431               170213G2     1400+00000+G20000006079+0000006079+000000000+000000853+0000006930+0000000002+I20000000000+0000006930+Z
243431001243431903-000194     243431006009826020616SWT CHOC RP LOLLY 25G  0000002000+00001314+00000+0001T   00001314+0000001348          1400 NF6150               2AZ
243431002243431903-000155     243431006009803374435SWT LOLLY I LUV U HEART0000001000+00000525+00000+0001T   00000525+0000001348          1400 NF6150               2AZ
243431003243431903-000012     243431006002099007308SWT MALLOW S/BERRY     0000001000+00000437+00000+0001T   00000437+0000001348          1400 NF6150               2AZ
243431004243431903-000517     243431006001704012768SWT STRAWS FIZZY CHERRY0000002000+00001227+00000+0001T   00001227+0000001348          1400 NF6150               2AZ
243431005243431112-116038     243431006009681820246TCS CARRIER BAG MIDI   0000001000+00000035+00000+0001T   00000035+0000001348          1400 NF6090               2AZ
243432000243432               243432               170213G2     1400+00000+G20000001839+0000001839+000000000+000000258+0000002097+0000000000+I40000002097+0000000000+Z
243432001243432304-001011     243432006001023806727FLWR ROSE RED W/BEAR   0000003000+00000613+00000+0001T   00000788+0006471352          1400 NF6510               2AZ
243433000243433               243433               170213G2     1400+00000+G20000000035+0000000035+000000000+000000005+0000000040+0000000000+I20000000000+0000000040+Z
243433001243433112-116038     243433006009681820246TCS CARRIER BAG MIDI   0000001000+00000035+00000+0001T   00000035+0000001352          1400 NF6090               2AZ
243434000243434               243434               170213G2     1400+00000+G20000000393+0000000393+000000000+000000056+0000000440+0000000009+I20000000000+0000000440+Z
243434001243434903-000183     243434006003000451043SWT LB HEART LOLLY     0000001000+00000393+00000+0001T   00000393+0000001354          1400 NF6150               2AZ
243435000243435               243435               170213G2     1400+00000+G20000005699+0000005699+000000000+000000799+0000006490+0000000008+I20000000000+0000006490+Z
243435001243435301-085001     243435006003000297610ORN WATERBALL LOVE ASST0000001000+00004823+00000+0001T   00004823+0000001404          1400 NF6505               2AZ
243435002243435078-000025     243435008887013700064SUPERGLUE 3g 1PCE CARD 0000001000+00000876+00000+0001T   00000876+0000001404          1400 NF6810               2AZ
243436000243436               243436               170213G2     1400+00000+G20000006139+0000006139+000000000+000000860+0000006990+0000000009+I20000000000+0000006990+Z
243436001243436024-000195     243436006003000396498KIDDIES B/WARE ACC 2PC 0000001000+00006139+00000+0001T   00006139+0000001405          1400 NF6300               2AZ
243437000243437               243437               170213G2     1400+00000+G20000011268+0000011268+000000000+000001580+0000012848+0000000000+I40000012848+0000000000+Z
243437001243437112-116069     243437006009681820277TCS CARRIER BAG JUMBO  0000001000+00000048+00000+0001T   00000048+0000001408          1400 NF6090               2AZ
243437002243437018-000136     243437006001023659026MUG OCC LOVE W/PLUSH   0000002000+00003507+00000+0001T   00003507+0000001408          1400 NF6515               2AZ
243437003243437304-001204     243437006001023737984FLOWER OCC. TEDDY/ROSES0000003000+00001402+00000+0001T   00001490+0006471408          1400 NF6510               2AZ
243438000243438               243438               170213G2     1400+00000+G20000003507+0000003507+000000000+000000491+0000003990+0000000008+I20000000000+0000003990+Z
243438001243438018-000136     243438006001023659026MUG OCC LOVE W/PLUSH   0000001000+00003507+00000+0001T   00003507+0000001410          1400 NF6515               2AZ
243439000243439               243439               170213G2     1400+00000+G20000006139+0000006139+000000000+000000860+0000006990+0000000009+I20000000000+0000006990+Z
243439001243439018-050000     243439006003000412679MUG OCC LOVE TWIN BEAR 0000001000+00006139+00000+0001T   00006139+0000001411          1400 NF6515               2AZ
243440000243440               243440               170213G2     1400+00000+G20000005873+0000005873+000000000+000000824+0000006690+0000000007+I20000000000+0000006690+Z
243440001243440220-009104     243440006001023706843ROSE DESS-SPOONS 4PCE  0000001000+00002630+00000+0001T   00002630+0000001413          1400 NF6300               2AZ
243440002243440079-006494     243440006003000159864GLITTER GLUE 5PCE 11cm 0000001000+00001490+00000+0001T   00001490+0000001413          1400 NF6130               2AZ
243440003243440006-000120     243440006001023346889BALLOONS 10PC MIX COL  0000001000+00001753+00000+0001T   00001753+0000001413          1400 NF6131               2AZ
243441000243441               243441               170213G2     1400+00000+G20000001401+0000001401+000000000+000000197+0000001590+0000000008+I20000000000+0000001590+Z
243441001243441007-000120     243441006009698062714BOOK DRAWING A4 24-PAGE0000001000+00000525+00000+0001T   00000525+0000001422          1400 NF6130               2AZ
243441002243441007-000045     243441006009608640438DISPLAY-POCKETS A4 10PC0000001000+00000876+00000+0001T   00000876+0000001422          1400 NF6130               2AZ
243442000243442               243442               170213G2     1400+00000+G20000003070-0000003070-000000000+000000430-0000003500-0000000000+I20000000000+0000003500-Z
243442001243442001-999902     243442000000000999902MAINTENANCE+REPAIR-EQP 0000001000-00003070+00000+0001T   00000000+0000001424          1400 NF69022IC            2 Z
243443000243443               243443               170213G2     1400+00000+G20000001578+0000001578+000000000+000000221+0000001790+0000000009+I20000000000+0000001790+Z
243443001243443077-000315     243443006003000181186GIFT-BAG 20x28cm MATT  0000001000+00001578+00000+0001T   00001578+0000001425          1400 NF6112               2AZ
243444000243444               243444               170213G2     1400+00000+G20000015556+0000015556+000000000+000002179+0000017730+0000000005+I20000000000+0000017730+Z
243444001243444006-000190     243444006003000685530BALLOONS LOVE 81x91cm  0000001000+00004385+00000+0001T   00004385+0000001428          1400 NF6131               2AZ
243444002243444267-000054     243444006003000673223PUZZLE 4D MODEL PLANE  0000001000+00001753+00000+0001T   00001753+0000001428          1400 NF6755               2AZ
243444003243444024-000118     243444006001023422316N/STICK C/PAN HEART    0000001000+00004385+00000+0001T   00004385+0000001428          1400 NF6300               2AZ
243444004243444031-080508     243444006001023802415P/FRAME PL 22X11CM LOVE0000001000+00004385+00000+0001T   00004385+0000001428          1400 NF6510               2AZ
243444005243444112-116038     243444006009681820246TCS CARRIER BAG MIDI   0000001000+00000035+00000+0001T   00000035+0000001428          1400 NF6090               2AZ
243444006243444006-001000     243444006003000093779HELIUM BALLOON FILL    0000001000+00000613+00000+0001T   00000613+0000001428          1400 NF6131               2AZ
243445000243445               243445               170213G2     1400+00000+G20000002630+0000002630+000000000+000000369+0000002990+0000000009+I20000000000+0000002990+Z
243445001243445079-000280     243445006003000160723PAINT READYMIX 6PCE    0000001000+00002630+00000+0001T   00002630+0000001431          1400 NF6130               2AZ
243446000243446               243446               170213G2     1400+00000+G20000004997+0000004997+000000000+000000700+0000005690+0000000007+I20000000000+0000005690+Z
243446001243446301-085004     243446006003000420469ORN LOVE PLAQUE 21X10CM0000001000+00003507+00000+0001T   00003946+0006471432          1400 NF6505               2AZ
243446002243446077-000299     243446006003000395576G/BAG 32x25cm LRG LOVE 0000001000+00001490+00000+0001T   00001490+0000001432          1400 NF6112               2AZ
243447000243447               243447               170213G2     1400+00000+G20000006522+0000006522+000000000+000000914+0000007430+0000000006+I20000000000+0000007430+Z
243447001243447018-000136     243447006001023659026MUG OCC LOVE W/PLUSH   0000001000+00003507+00000+0001T   00003507+0000001434          1400 NF6515               2AZ
243447002243447077-000318     243447006001023609755GIFT-BAG 18X23CM E/D AN0000001000+00001227+00000+0001T   00001227+0000001434          1400 NF6112               2AZ
243447003243447080-000111     243447006003000252695CARD&ENVELPE - MUSICAL 0000001000+00001753+00000+0001T   00001753+0000001434          1400 NF6112               2AZ
243447004243447112-116038     243447006009681820246TCS CARRIER BAG MIDI   0000001000+00000035+00000+0001T   00000035+0000001434          1400 NF6090               2AZ
243448000243448               243448               170213G2     1400+00000+G20000001753+0000001753+000000000+000000246+0000001990+0000000009+I20000000000+0000001990+Z
243448001243448046-002025-PK2 243448004897006174868BATTERIES CR-2025  2PCE0000001000+00001753+00000+0001T   00001753+0000001434          1400 NF6312               2AZ
243449000243449               243449               170213G2     1400+00000+G20000016271+0000016271+000000000+000002279+0000018550+0000000000+I20000000000+0000018550+Z
243449001243449301-085004     243449006003000420469ORN LOVE PLAQUE 21X10CM0000001000+00003507+00000+0001T   00003946+0006471435          1400 NF6505               2AZ
243449002243449001-091415     243449006003000329113W/GLS OCC. LOVE 2PC 2800000001000+00008771+00000+0001T   00009648+0006471435          1400 NF6515               2AZ
243449003243449301-085000     243449006003000674299 ORN OCC. LOVE HEARTS  0000001000+00002192+00000+0001T   00002192+0000001435          1400 NF6505               2AZ
243449004243449077-000289     243449006001023901996GIFT BOX 20x25x11cm    0000001000+00001753+00000+0001T   00001753+0000001435          1400 NF6112               2AZ
243449005243449112-116069     243449006009681820277TCS CARRIER BAG JUMBO  0000001000+00000048+00000+0001T   00000048+0000001435          1400 NF6090               2AZ
243450000243450               243450               170213G2     1400+00000+G20000004904+0000004904+000000000+000000688+0000005590+0000000002+I20000000000+0000005590+Z
243450001243450006-001000     243450006003000093779HELIUM BALLOON FILL    0000008000+00000613+00000+0001T   00000613+0000001439          1400 NF6131               2AZ
243451000243451               243451               170213G2     1400+00000+G20000017543-0000017543-000000000+000002457-0000020000-0000000000+I20000000000+0000020000-Z
243451001243451001-999904     243451000000000999904PROMO/ADVERTISING      0000001000-00017543+00000+0001T   00000000+0000001441          1400 NF69041IC            2 Z
243452000243452               243452               170213G2     1400+00000+G20000000481+0000000481+000000000+000000068+0000000540+0000000009+I20000000000+0000000540+Z
243452001243452071-000012     243452006001177101006CHALK COLOUR 12PCE     0000001000+00000481+00000+0001T   00000481+0000001441          1400 NF6130               2AZ
243453000243453               243453               170213G2     1400+00000+G20000000876+0000000876+000000000+000000123+0000000990+0000000009+I20000000000+0000000990+Z
243453001243453077-000314     243453006003000181148GIFT-BAG 11X14CM MATT  0000001000+00000876+00000+0001T   00000876+0000001442          1400 NF6112               2AZ
243454000243454               243454               170213G2     1400+00000+G20000000613+0000000613+000000000+000000086+0000000690+0000000009+I20000000000+0000000690+Z
243454001243454077-000311     243454006001023608666GIFT-BAG 11X14CM GLOSS 0000001000+00000613+00000+0001T   00000613+0000001442          1400 NF6112               2AZ
243455000243455               243455               170213G2     1400+00000+G20000003681+0000003681+000000000+000000516+0000004190+0000000007+I20000000000+0000004190+Z
243455001243455903-002900     243455005996071650648QUICK MILK 5 CHOCO 5PC 0000001000+00001578+00000+0001T   00001578+0000001447          1400 NF6150               2AZ
243455002243455903-000843     243455008693029031067SWT GUMMY JELAXY 80G   0000001000+00000964+00000+0001T   00000964+0000001447          1400 NF6150               2AZ
243455003243455903-000087     243455006001704000161SWT SPECKLED-EGGS 50G  0000001000+00001139+00000+0001T   00001139+0000001447          1400 NF6150               2AZ
243456000243456               243456               170213G2     1400+00000+G20000001402+0000001402+000000000+000000197+0000001590+0000000009+I20000000000+0000001590+Z
243456001243456304-001204     243456006001023737984FLOWER OCC. TEDDY/ROSES0000001000+00001402+00000+0001T   00001490+0006471450          1400 NF6510               2AZ
243457000243457               243457               170213G2     1400+00000+G20000002630+0000002630+000000000+000000369+0000002990+0000000009+I20000000000+0000002990+Z
243457001243457077-000456     243457006003000285549G/BAG METALLIC JMB EMB 0000001000+00002630+00000+0001T   00002630+0000001455          1400 NF6112               2AZ
243458000243458               243458               170213G2     1400+00000+G20000001753+0000001753+000000000+000000246+0000001990+0000000009+I20000000000+0000001990+Z
243458001243458565-000083     243458006003000643622NOVELTY GROW SNOW      0000001000+00001753+00000+0001T   00001753+0000001457          1400 NF6745               2AZ
243459000243459               243459               170213G2     1400+00000+G20000004821+0000004821+000000000+000000675+0000005490+0000000006+I20000000000+0000005490+Z
243459001243459018-000136     243459006001023659026MUG OCC LOVE W/PLUSH   0000001000+00003507+00000+0001T   00003507+0000001457          1400 NF6515               2AZ
243459002243459903-000194     243459006009826020616SWT CHOC RP LOLLY 25G  0000001000+00001314+00000+0001T   00001314+0000001457          1400 NF6150               2AZ
243460000243460               243460               170213G2     1400+00000+G20000003507+0000003507+000000000+000000491+0000003990+0000000008+I20000000000+0000003990+Z
243460001243460018-000136     243460006001023659026MUG OCC LOVE W/PLUSH   0000001000+00003507+00000+0001T   00003507+0000001458          1400 NF6515               2AZ
243461000243461               243461               170213G2     1400+00000+G20000007014+0000007014+000000000+000000982+0000007990+0000000006+I20000000000+0000007990+Z
243461001243461018-000130     243461006001023867537MUG OCC LOVE MINI+HEART0000002000+00003507+00000+0001T   00003507+0000001458          1400 NF6515               2AZ
243462000243462               243462               170213G2     1400+00000+G20000004383+0000004383+000000000+000000615+0000004998+0000000000+I40000004998+0000000000+Z
243462001243462566-000007     243462006001023761187S/BOOK SUPER VALUE     0000001000+00001753+00000+0001T   00001753+0000001502          1400 NF6130               2AZ
243462002243462007-000718     243462006003000226672NOTE MAGNETIC WKLY PLNR0000001000+00002630+00000+0001T   00002630+0000001502          1400 NF6130               2AZ
243463000243463               243463               170213G2     1400+00000+G20000003066+0000003066+000000000+000000430+0000003496+0000000000+I40000003496+0000000000+Z
243463001243463903-000483     243463006001704001410SWT LIQUOR SML SORT 60G0000001000+00000876+00000+0001T   00000876+0000001503          1400 NF6150               2AZ
243463002243463566-000996     243463000721129013176TATTOOS TEMP BE ME ASST0000001000+00000876+00000+0001T   00000876+0000001503          1400 NF6130               2AZ
243463003243463903-000194     243463006009826020616SWT CHOC RP LOLLY 25G  0000001000+00001314+00000+0001T   00001314+0000001503          1400 NF6150               2AZ
243464000243464               243464               170213G2     1400+00000+G20000004998+0000004998+000000000+000000700+0000005690+0000000008+I20000000000+0000005690+Z
243464001243464006-000190     243464006003000685530BALLOONS LOVE 81x91cm  0000001000+00004385+00000+0001T   00004385+0000001509          1400 NF6131               2AZ
243464002243464006-001000     243464006003000093779HELIUM BALLOON FILL    0000001000+00000613+00000+0001T   00000613+0000001509          1400 NF6131               2AZ
243465000243465               243465               170213G2     1400+00000+G20000006427+0000006427+000000000+000000901+0000007320+0000000008+I20000000000+0000007320+Z
243465001243465112-116038     243465006009681820246TCS CARRIER BAG MIDI   0000001000+00000035+00000+0001T   00000035+0000001522          1400 1IC090               2AZ
243465002243465077-000245     243465006001023759214GIFT-RIBBON METALLICx2 0000001000+00001227+00000+0001T   00001227+0000001522          1400 1IC112               2AZ
243465003243465903-000194     243465006009826020616SWT CHOC RP LOLLY 25G  0000001000+00001314+00000+0001T   00001314+0000001522          1400 1IC150               2AZ
243465004243465022-002107     243465006002600025814MUG ENAMEL 8cm WHITE   0000001000+00001051+00000+0001T   00001051+0000001522          1400 1IC305               2AZ
243465005243465018-000177     243465006001023797513MUG MINI LOVE ASSTD    0000004000+00000700+00000+0001T   00000700+0000001522          1400 1IC515               2AZ
243466000243466               243466               170213G2     1400+00000+G20000004383+0000004383+000000000+000000615+0000004998+0000000000+I40000004998+0000000000+Z
243466001243466903-000610     243466006003000610518SWEET JUMBO BUBBLE GUM 0000001000+00001753+00000+0001T   00001753+0000001524          1400 NF6150               2AZ
243466002243466200-000042     243466006001023868886BAG-SEALERS 10PCE      0000001000+00002630+00000+0001T   00002630+0000001524          1400 NF6214               2AZ
243467000243467               243467               170213G2     1400+00000+G20000010525+0000010525+000000000+000001474+0000011990+0000000009+I20000000000+0000011990+Z
243467001243467079-001003     243467006003000588640ART+CRAFT PAINT CANVAS 0000001000+00010525+00000+0001T   00010525+0000001525          1400 NF6130               2AZ
243468000243468               243468               170213G2     1400+00000+G20000001490+0000001490+000000000+000000209+0000001690+0000000009+I20000000000+0000001690+Z
243468001243468077-000299     243468006003000395576G/BAG 32x25cm LRG LOVE 0000001000+00001490+00000+0001T   00001490+0000001525          1400 NF6112               2AZ
243469000243469               243469               170213G2     1400+00000+G20000026094+0000026094+000000000+000003655+0000029740+0000000009+I20000000000+0000029740+Z
243469001243469028-000026     243469006001023810847COOLER-BAG+POCKET NYLON0000001000+00009648+00000+0001T   00009648+0000001529          1400 NF6305               2AZ
243469002243469304-001011     243469006001023806727FLWR ROSE RED W/BEAR   0000001000+00000613+00000+0001T   00000788+0006471529          1400 NF6510               2AZ
243469003243469112-116069     243469006009681820277TCS CARRIER BAG JUMBO  0000001000+00000048+00000+0001T   00000048+0000001529          1400 NF6090               2AZ
243469004243469104-000505     243469006003000665952BASKET PL 3-DIVISION   0000001000+00005262+00000+0001T   00005262+0000001529          1400 NF6210               2AZ
243469005243469104-000095     243469006003000614714BASKET PL 23x15x12cm   0000001000+00003507+00000+0001T   00003507+0000001529          1400 NF6210               2AZ
243469006243469016-007000     243469006003000233625EGG BASKET HEN SHAPE   0000001000+00007016+00000+0001T   00007016+0000001529          1400 NF6300               2AZ
243470000243470               243470               170213G2     1400+00000+G20000006577+0000006577+000000000+000000921+0000007490+0000000008+I20000000000+0000007490+Z
243470001243470080-000127     243470006003000424351VALENTINES DAY 36x24CM 0000001000+00002192+00000+0001T   00002192+0000001530          1400 NF6112               2AZ
243470002243470018-030000     243470006003000421060MUG OCCASIONS LOVE 2PCE0000001000+00004385+00000+0001T   00004385+0000001530          1400 NF6515               2AZ
243471000243471               243471               170213G2     1400+00000+G20000011710+0000011710+000000000+000001640+0000013350+0000000000+I20000000000+0000013350+Z
243471001243471080-000127     243471006003000424351VALENTINES DAY 36x24CM 0000001000+00002192+00000+0001T   00002192+0000001530          1400 NF6112               2AZ
243471002243471368-000049     243471006003000536955PLUSH BEAR 15cm LOVE   0000001000+00004385+00000+0001T   00004385+0000001530          1400 NF6745               2AZ
243471003243471301-085004     243471006003000420469ORN LOVE PLAQUE 21X10CM0000001000+00003507+00000+0001T   00003946+0006471530          1400 NF6505               2AZ
243471004243471077-000303     243471006001023593757GIFT-BAG PAPER MED     0000001000+00001578+00000+0001T   00001578+0000001530          1400 NF6112               2AZ
243471005243471112-116069     243471006009681820277TCS CARRIER BAG JUMBO  0000001000+00000048+00000+0001T   00000048+0000001530          1400 NF6090               2AZ
243472000243472               243472               170213G2     1400+00000+G20000013769+0000013769+000000000+000001929+0000015690+0000000008+I20000000000+0000015690+Z
243472001243472368-000111     243472006001023780812PLUSH BEAR/DOG 29CM    0000001000+00012279+00000+0001T   00012279+0000001531          1400 NF6745               2AZ
243472002243472077-000299     243472006003000395576G/BAG 32x25cm LRG LOVE 0000001000+00001490+00000+0001T   00001490+0000001531          1400 NF6112               2AZ
243473000243473               243473               170213G2     1400+00000+G20000000048+0000000048+000000000+000000007+0000000050+0000000005+I20000000000+0000000050+Z
243473001243473112-116069     243473006009681820277TCS CARRIER BAG JUMBO  0000001000+00000048+00000+0001T   00000048+0000001532          1400 NF6090               2AZ
243474000243474               243474               170213G2     1400+00000+G20000000876+0000000876+000000000+000000123+0000000990+0000000009+I20000000000+0000000990+Z
243474001243474071-005213     243474006001023690371CELLOTAPE 12mmx33m     0000001000+00000876+00000+0001T   00000876+0000001533          1400 NF6130               2AZ
243475000243475               243475               170213G2     1400+00000+G20000009645+0000009645+000000000+000001351+0000010996+0000000000+I40000010996+0000000000+Z
243475001243475089-001021     243475006003000112319KEY CHAIN MINI BIBLE   0000001000+00001490+00000+0001T   00001490+0000001541          1400 NF6205               2AZ
243475002243475103-000235     243475006003000571314BASKET OVAL 36x22cm    0000001000+00004648+00000+0001T   00004648+0000001541          1400 NF6300               2AZ
243475003243475267-000233     243475006001023688576PUZZLE 48pc EDUCATIONAL0000001000+00003507+00000+0001T   00003507+0000001541          1400 NF6755               2AZ
243476000243476               243476               170213G2     1400+00000+G20000002890+0000002890+000000000+000000405+0000003290+0000000005+I20000000000+0000003290+Z
243476001243476089-001021     243476006003000112319KEY CHAIN MINI BIBLE   0000001000+00001490+00000+0001T   00001490+0000001542          1400 NF6205               2AZ
243476002243476018-000177     243476006001023797513MUG MINI LOVE ASSTD    0000002000+00000700+00000+0001T   00000700+0000001542          1400 NF6515               2AZ
243477000243477               243477               170213G2     1400+00000+G20000010083+0000010083+000000000+000001413+0000011496+0000000000+I40000011496+0000000000+Z
243477001243477206-000220     243477006003000631704EGG TIMER COLOUR-CHANGE0000001000+00002630+00000+0001T   00002630+0000001543          1400 NF6321               2AZ
243477002243477089-000098     243477006003000677443KEY CHAIN OPENER ASSTD 0000001000+00001314+00000+0001T   00001314+0000001543          1400 NF6205               2AZ
243477003243477039-000798     243477006001023617774CANDLES TEALITE BOX-50 0000001000+00006139+00000+0001T   00006139+0000001543          1400 NF6510               2AZ
243478000243478               243478               170213G2     1400+00000+G20000001578+0000001578+000000000+000000221+0000001790+0000000009+I20000000000+0000001790+Z
243478001243478077-000303     243478006001023593757GIFT-BAG PAPER MED     0000001000+00001578+00000+0001T   00001578+0000001544          1400 NF6112               2AZ
243479000243479               243479               170213G2     1400+00000+G20000002628+0000002628+000000000+000000368+0000002990+0000000006+I20000000000+0000002990+Z
243479001243479006-000166-D   243479006003000516490BALLOONS LRG 6PC RED   0000001000+00001314+00000+0001T   00001314+0000001545          1400 NF6131               2AZ
243479002243479006-000166-H   243479006003000608096BALLOONS HELIUM 6PC WHT0000001000+00001314+00000+0001T   00001314+0000001545          1400 NF6131               2AZ
243480000243480               243480               170213G2     1400+00000+G20000002892+0000002892+000000000+000000405+0000003290+0000000007+I20000000000+0000003290+Z
243480001243480006-000166-H   243480006003000608096BALLOONS HELIUM 6PC WHT0000001000+00001314+00000+0001T   00001314+0000001546          1400 NF6131               2AZ
243480002243480077-000303     243480006001023593757GIFT-BAG PAPER MED     0000001000+00001578+00000+0001T   00001578+0000001546          1400 NF6112               2AZ
243481000243481               243481               170213G2     1400+00000+G20000008400+0000008400+000000000+000001176+0000009570+0000000006+I20000000000+0000009570+Z
243481001243481018-000177     243481006001023797513MUG MINI LOVE ASSTD    0000012000+00000700+00000+0001T   00000700+0000001558          1400 NF6515               2AZ
243482000243482               243482               170213G2     1400+00000+G20000000035+0000000035+000000000+000000005+0000000040+0000000000+I20000000000+0000000040+Z
243482001243482112-116038     243482006009681820246TCS CARRIER BAG MIDI   0000001000+00000035+00000+0001T   00000035+0000001559          1400 NF6090               2AZ
243483000243483               243483               170213G2     1400+00000+G20000010079+0000010079+000000000+000001414+0000011490+0000000003+I20000000000+0000011490+Z
243483001243483077-000011-F   243483006001023808431TISSUE-WRAP BLUE/LILAC 0000001000+00000876+00000+0001T   00000876+0000001604          1400 NF6112               2AZ
243483002243483077-000011-X   243483006001023809827TISSUE-WRAP SILVER 10PC0000001000+00001753+00000+0001T   00001753+0000001604          1400 NF6112               2AZ
243483003243483019-071611     243483006003000513642PEBBLES W/GEM 10g CLEAR0000005000+00001490+00000+0001T   00001490+0000001604          1400 NF6510               2AZ
243484000243484               243484               170213G2     1400+00000+G20000005262+0000005262+000000000+000000737+0000005999+0000000000+I40000005999+0000000000+Z
243484001243484304-001116     243484006003000426164F/BUNCH ROSES 12-HEAD  0000001000+00005262+00000+0001T   00005262+0000001606          1400 NF6510               2AZ
243485000243485               243485               170213G2     1400+00000+G20000003155+0000003155+000000000+000000443+0000003590+0000000008+I20000000000+0000003590+Z
243485001243485304-001204     243485006001023737984FLOWER OCC. TEDDY/ROSES0000001000+00001402+00000+0001T   00001490+0006471607          1400 NF6510               2AZ
243485002243485077-000115     243485006001023834225WRAP METALLIC 700mmx1m 0000001000+00001753+00000+0001T   00001753+0000001607          1400 NF6112               2AZ
243486000243486               243486               170213G2     1400+00000+G20000003101+0000003101+000000000+000000435+0000003530+0000000006+I20000000000+0000003530+Z
243486001243486018-000119     243486006003000336074MUG DAILY STRAIGHT     0000001000+00001314+00000+0001T   00001753+0008171608          1400 NF6515               2AZ
243486002243486077-000150-D   243486006003000054343GIFT-WRAP CELLPHANE CLR0000002000+00000876+00000+0001T   00000876+0000001608          1400 NF6112               2AZ
243486003243486112-116038     243486006009681820246TCS CARRIER BAG MIDI   0000001000+00000035+00000+0001T   00000035+0000001608          1400 NF6090               2AZ
243487000243487               243487               170213G2     1400+00000+G20000003507+0000003507+000000000+000000491+0000003990+0000000008+I20000000000+0000003990+Z
243487001243487018-000136     243487006001023659026MUG OCC LOVE W/PLUSH   0000001000+00003507+00000+0001T   00003507+0000001609          1400 NF6515               2AZ
243488000243488               243488               170213G2     1400+00000+G20000003507+0000003507+000000000+000000491+0000003990+0000000008+I20000000000+0000003990+Z
243488001243488018-000136     243488006001023659026MUG OCC LOVE W/PLUSH   0000001000+00003507+00000+0001T   00003507+0000001609          1400 NF6515               2AZ
243489000243489               243489               170213G2     1400+00000+G20000001578+0000001578+000000000+000000221+0000001790+0000000009+I20000000000+0000001790+Z
243489001243489028-000799     243489006001023812186SKEWERS BAMBOO 100PCE  0000001000+00001578+00000+0001T   00001578+0000001610          1400 NF6305               2AZ
243490000243490               243490               170213G2     1400+00000+G20000004385+0000004385+000000000+000000614+0000004990+0000000009+I20000000000+0000004990+Z
243490001243490267-000182     243490006003000390274PUZZLE 24pc ASSTD      0000001000+00004385+00000+0001T   00004385+0000001610          1400 NF6755               2AZ
243491000243491               243491               170213G2     1400+00000+G20000008771-0000008771-000000000+000001228-0000010000-0000000001+I20000000000+0000010000-Z
243491001243491368-000614     243491006001023705808PLUSH LOVE 30cm        0000001000-00008771+00000+0001T   00008771+0000001613          1400 NF67452IC            2 Z
243492000243492               243492               170213G2     1400+00000+G20000007532+0000007532+000000000+000001056+0000008580+0000000008+I20000000000+0000008580+Z
243492001243492006-000167-C   243492006003000516971BALLOONS PINK METALLIC 0000001000+00001314+00000+0001T   00001314+0000001623          1400 NF6131               2AZ
243492002243492006-000166-H   243492006003000608096BALLOONS HELIUM 6PC WHT0000001000+00001314+00000+0001T   00001314+0000001623          1400 NF6131               2AZ
243492003243492006-001000     243492006003000093779HELIUM BALLOON FILL    0000008000+00000613+00000+0001T   00000613+0000001623          1400 NF6131               2AZ
243493000243493               243493               170213G2     1400+00000+G20000001226+0000001226+000000000+000000172+0000001390+0000000008+I20000000000+0000001390+Z
243493001243493006-001000     243493006003000093779HELIUM BALLOON FILL    0000002000+00000613+00000+0001T   00000613+0000001625          1400 NF6131               2AZ
243494000243494               243494               170213G2     1400+00000+G20000005262+0000005262+000000000+000000737+0000005999+0000000000+I40000005999+0000000000+Z
243494001243494082-007580     243494006003000698523SUNGLASS MENS DESIGNER 0000001000+00005262+00000+0001T   00005262+0000001627          1400 NF6160               2AZ
243495000243495               243495               170213G2     1400+00000+G20000001753+0000001753+000000000+000000246+0000001990+0000000009+I20000000000+0000001990+Z
243495001243495078-000480     243495006008741002332BOSTIK SHOE-REPAIR 25ml0000001000+00001753+00000+0001T   00001753+0000001629          1400 NF6810               2AZ
243496000243496               243496               170213G2     1400+00000+G20000005260+0000005260+000000000+000000738+0000005998+0000000000+I40000005998+0000000000+Z
243496001243496306-001622     243496006003000450091INNER SOLES 1-PAIR     0000001000+00002630+00000+0001T   00002630+0000001630          1400 NF6200               2AZ
243496002243496306-001619     243496006003000571451INNER SOLES 2-PAIR     0000001000+00002630+00000+0001T   00002630+0000001630          1400 NF6200               2AZ
243497000243497               243497               170213G2     1400+00000+G20000001753+0000001753+000000000+000000246+0000001990+0000000009+I20000000000+0000001990+Z
243497001243497079-000275     243497006003000160488PAINT-BRUSHES 6PCE PRO 0000001000+00001753+00000+0001T   00001753+0000001633          1400 NF6130               2AZ
243498000243498               243498               170213G2     1400+00000+G20000002192+0000002192+000000000+000000307+0000002499+0000000000+I40000002499+0000000000+Z
243498001243498080-000127     243498006003000424351VALENTINES DAY 36x24CM 0000001000+00002192+00000+0001T   00002192+0000001636          1400 NF6112               2AZ
243499000243499               243499               170213G2     1400+00000+G20000000876+0000000876+000000000+000000123+0000000990+0000000009+I20000000000+0000000990+Z
243499001243499306-000023     243499006001023606976COTTON-WOOL-BALLS 50PCE0000001000+00000876+00000+0001T   00000876+0000001636          1400 NF6200               2AZ
243500000243500               243500               170213G2     1400+00000+G20000028941+0000028941+000000000+000004054+0000032990+0000000005+I20000000000+0000032990+Z
243500001243500104-000025     243500006001023780287BASKET PL 28x17x11cm   0000001000+00003507+00000+0001T   00003507+0000001639          1400 NF62101IC            2AZ
243500002243500105-003025     243500006001023594662CONTAINER RECT 28x19cm 0000001000+00002630+00000+0001T   00002630+0000001639          1400 NF6210               2AZ
243500003243500105-009015     243500006002923000031STORAGE BOX 32L FROSTED0000002000+00011402+00000+0001T   00011402+0000001639          1400 NF6210               2AZ
243501000243501               243501               170213G2     1400+00000+G20000003243+0000003243+000000000+000000455+0000003690+0000000008+I20000000000+0000003690+Z
243501001243501077-000305     243501006003000395422GIFT-BAG WINE 10X35CM  0000001000+00001490+00000+0001T   00001490+0000001639          1400 NF6112               2AZ
243501002243501077-000472     243501006003000330133G-BAG DESGNR LRG 25X32 0000001000+00001753+00000+0001T   00001753+0000001639          1400 NF6112               2AZ
243502000243502               243502               170213G2     1400+00000+G20000018463+0000018463+000000000+000002587+0000021050+0000000000+I20000000000+0000021050+Z
243502001243502369-001023     243502006001023712288BATH ANIMALS SQUEAKY 6P0000001000+00007893+00000+0001T   00007893+0000001641          1400 NF6745               2AZ
243502002243502112-116069     243502006009681820277TCS CARRIER BAG JUMBO  0000001000+00000048+00000+0001T   00000048+0000001641          1400 NF6090               2AZ
243502003243502263-001000     243502006003000600212VEHICLE PICK UP SET    0000001000+00004385+00000+0001T   00004385+0000001641          1400 NF6710               2AZ
243502004243502263-000301     243502006003000297955Vehicle Leisure Truck  0000001000+00002630+00000+0001T   00002630+0000001641          1400 NF6710               2AZ
243502005243502369-001031     243502006001023796219BABY RATTLE SET 2PC    0000001000+00003507+00000+0001T   00003507+0000001641          1400 NF6745               2AZ
243503000243503               243503               170213G2     1400+00000+G20000000306+0000000306+000000000+000000043+0000000340+0000000009+I20000000000+0000000340+Z
243503001243503079-009700-C   243503006003000545636PAPER SIRIO A4 VIOLET  0000001000+00000306+00000+0001T   00000306+0000001641          1400 NF6130               2AZ
243504000243504               243504               170213G2     1400+00000+G20000009327+0000009327+000000000+000001306+0000010630+0000000003+I20000000000+0000010630+Z
243504001243504903-000120     243504006002099001665SWEET GS ZILLIONS 50g  0000002000+00000700+00000+0001T   00000700+0000001643          1400 NF6150               2AZ
243504002243504567-011433     243504009780600623236BOOK HAMLYN 20-MINUTE  0000001000+00003507+00000+0001T   00003507+0000001643          1400 NF6757               2AZ
243504003243504567-011514     243504009781472329936BK FOOD EVERYDAY PASTA 0000001000+00004385+00000+0001T   00004385+0000001643          1400 NF6757               2AZ
243504004243504112-116038     243504006009681820246TCS CARRIER BAG MIDI   0000001000+00000035+00000+0001T   00000035+0000001643          1400 NF6090               2AZ
243505000243505               243505               170213G2     1400+00000+G20000016776+0000016776+000000000+000002352+0000019120+0000000008+I20000000000+0000019120+Z
243505001243505077-000245     243505006001023759214GIFT-RIBBON METALLICx2 0000001000+00001227+00000+0001T   00001227+0000001654          1400 NF6112               2AZ
243505002243505368-000265     243505006001023750914PLUSH BEAR 23CM ASSTD C0000001000+00006139+00000+0001T   00006139+0000001654          1400 NF6745               2AZ
243505003243505903-000624     243505006003000671793SWEET LOLLY BLU/BRRY   0000001000+00001753+00000+0001T   00001753+0000001654          1400 NF6150               2AZ
243505004243505031-000878-A   243505006001023798985P/FRAME 10x15cm PL-SLID0000001000+00000876+00000+0001T   00000876+0000001654          1400 NF6510               2AZ
243505005243505077-000303     243505006001023593757GIFT-BAG PAPER MED     0000001000+00001578+00000+0001T   00001578+0000001654          1400 NF6112               2AZ
243505006243505077-000299     243505006003000395576G/BAG 32x25cm LRG LOVE 0000001000+00001490+00000+0001T   00001490+0000001654          1400 NF6112               2AZ
243505007243505006-001000     243505006003000093779HELIUM BALLOON FILL    0000006000+00000613+00000+0001T   00000613+0000001654          1400 NF6131               2AZ
243505008243505112-116038     243505006009681820246TCS CARRIER BAG MIDI   0000001000+00000035+00000+0001T   00000035+0000001654          1400 NF6090               2AZ
243506000243506               243506               170213G2     1400+00000+G20000003854+0000003854+000000000+000000540+0000004390+0000000004+I20000000000+0000004390+Z
243506001243506006-000167-F   243506006003000517411BALLOONS SILV METALLIC 0000001000+00001314+00000+0001T   00001314+0000001659          1400 NF6131               2AZ
243506002243506006-001000     243506006003000093779HELIUM BALLOON FILL    0000001000+00000613+00000+0001T   00000613+0000001659          1400 NF6131               2AZ
243506003243506006-000166-D   243506006003000516490BALLOONS LRG 6PC RED   0000001000+00001314+00000+0001T   00001314+0000001659          1400 NF6131               2AZ
243506004243506006-001000     243506006003000093779HELIUM BALLOON FILL    0000001000+00000613+00000+0001T   00000613+0000001659          1400 NF6131               2AZ
243507000243507               243507               170213G2     1400+00000+G20000002629+0000002629+000000000+000000369+0000002998+0000000000+I40000002998+0000000000+Z
243507001243507077-000011-X   243507006001023809827TISSUE-WRAP SILVER 10PC0000001000+00001753+00000+0001T   00001753+0000001704          1400 NF6112               2AZ
243507002243507077-000302     243507008010410010195GIFT-BAG 18X23CM E/D   0000001000+00000876+00000+0001T   00000876+0000001704          1400 NF6112               2AZ
A17021300                                          13434549G2SLAVE 2                       NF62IC
A17021301                                          13440865G2SLAVE 2                       NF62IC
A17021302                                          14460263G2SLAVE 2                       NF62IC
B24350000                                          170213G2104-000025     16383254SLAVE 2     NF61IC0000002000+0000001000+0000000000000+
C24339200                                          170213G2466-000515     10390577SLAVE 2     NF62IC0000000000+0000000000+0020000001000+
M17021301                              IT          G2ATT                                                                                             LAST DOC SLAVE2 243507                                                                          SASOLBURG G2                                                                                    THANKS
M17021391                              CASH        G2SLAVE 2                       Z-REPORT No.   632TOTAL (Sales - Refunds)           8612.69       CASH TO BE BANKED                 6310.20       DEBIT CARDS                          0.00       CREDIT CARDS                      2067.49       Z-READING                         8377.69       AIRTIME DEBIT CARD SALES             0.00       AIRTIME CARD SALES                   0.00       OVERS/UNDERS                         0.00       AIRTIME CASH SALES                   0.00       GIFT CARDS                           0.00       GIFT CARD CASH SALES                 0.00       MAINTENANCE+REPAIR-EQP              35.00       PROMO/ADVERTISING                  200.00       T O T A L  CASH PAYOUTS            235.00                                                                                                                                                                                                                                                      Z
M17021392                              CASH        G2ABSENT                                                                                                                                                                                          ANNUAL LEAVE                                                                                                                                                                                    DAY OFF                                                                                                                                                                                         COMMENTS                                                                                                                                                                                                                                                                                                                                                                                       Z
Y17021300                                          G200000000782741+000128
ZG217021319403 SLAVE 2      SALES DATA                     NEXT INVOICE NO.  243508 0632
F093156490-048257         1702131305090000001ICSLAVE 2
F093157466-000802         1702131305180000001ICSLAVE 2
F093158065-005337         1702131305300000001ICSLAVE 2
F093158497-068614         1702131305300000001ICSLAVE 2
F094751031-001009         1702131305360000051ICSLAVE 2
F094751159-000800         1702131305360000061ICSLAVE 2
X G2 Slave 2 First invoice 243374 170213 Last invoice 243507 170213 Next invoice 243508 Total number of records 000000461 clbackup completed 19:40:21
