140001000140001               140001               170213G4     1400+00000+G40000010962+0000010962+000000000+000001535+0000012490+0000000007+I20000000000+0000012490+Z
140001001140001251-000002     140001006003000093991TAPE D-SIDED 24x1000mm 0000001000+00002192+00000+0001T   00002192+0000001657          1400 EJ5810               1AZ
140001002140001031-005921     140001006001023667847P/FRAME PL PLAIN       0000002000+00004385+00000+0001T   00004385+0000001657          1400 EJ5510               1AZ
140002000140002               140002               170213G4     1400+00000+G40000014079+0000014079+000000000+000001972+0000016051+0000000000+I40000016051+0000000000+Z
140002001140002077-000472     140002006003000330133G-BAG DESGNR LRG 25X32 0000001000+00001753+00000+0001T   00001753+0000001701          1400 EJ5112               1AZ
140002002140002018-005009     140002006001023725608MUG W/PLUSH-BEAR LOVE  0000001000+00003507+00000+0001T   00003507+0000001701          1400 EJ5515               1AZ
140002003140002368-000614     140002006001023705808PLUSH LOVE 30cm        0000001000+00008771+00000+0001T   00008771+0000001701          1400 EJ5745               1AZ
140002004140002112-116069     140002006009681820277TCS CARRIER BAG JUMBO  0000001000+00000048+00000+0001T   00000048+0000001701          1400 EJ5090               1AZ
140003000140003               140003               170213G4     1400+00000+G40000001927+0000001927+000000000+000000271+0000002190+0000000008+I20000000000+0000002190+Z
140003001140003089-000192-A   140003006001023901774KEY-CHAIN ACRYLIC      0000001000+00000876+00000+0001T   00000876+0000001703          1400 EJ5205               1AZ
140003002140003903-002851     140003000000087108538MENTOS ROLL STRAWBERRY 0000001000+00001051+00000+0001T   00001051+0000001703          1400 EJ5150               1AZ
140004000140004               140004               170213G4     1400+00000+G40000016443+0000016443+000000000+000002305+0000018748+0000000000+I40000018748+0000000000+Z
140004001140004077-000455     140004006003000285389G/BAG METALLIC LRG SOL 0000001000+00001753+00000+0001T   00001753+0000001706          1400 EJ5112               1AZ
140004002140004077-000452     140004006003000284986G/BAG METALLIC MED EMB 0000001000+00001490+00000+0001T   00001490+0000001706          1400 EJ5112               1AZ
140004003140004018-005009     140004006001023725608MUG W/PLUSH-BEAR LOVE  0000001000+00003507+00000+0001T   00003507+0000001706          1400 EJ5515               1AZ
140004004140004304-000720     140004006001023843050F/BUNCH ROSE 6-HEAD AST0000002000+00002630+00000+0001T   00002630+0000001706          1400 EJ5510               1AZ
140004005140004019-000102     140004006003000280919VASE GLS BUD 18X6CM    0000001000+00004385+00000+0001T   00004385+0000001706          1400 EJ5510               1AZ
140004006140004112-116069     140004006009681820277TCS CARRIER BAG JUMBO  0000001000+00000048+00000+0001T   00000048+0000001706          1400 EJ5090               1AZ
140005000140005               140005               170213G4     1400+00000+G40000006137+0000006137+000000000+000000860+0000006990+0000000007+I20000000000+0000006990+Z
140005001140005018-005009     140005006001023725608MUG W/PLUSH-BEAR LOVE  0000001000+00003507+00000+0001T   00003507+0000001717          1400 EJ5515               1AZ
140005002140005077-000270     140005006003000395453GIFT-BAG PPR JMB 33X45 0000001000+00002630+00000+0001T   00002630+0000001717          1400 EJ5112               1AZ
140006000140006               140006               170213G4     1400+00000+G40000006139+0000006139+000000000+000000860+0000006990+0000000009+I20000000000+0000006990+Z
140006001140006261-003903     140006006001023827746GUN SET ARMY ASSTD     0000001000+00006139+00000+0001T   00006139+0000001718          1400 EJ5710               1AZ
140007000140007               140007               170213G4     1400+00000+G40000001753+0000001753+000000000+000000246+0000001990+0000000009+I20000000000+0000001990+Z
140007001140007046-000014-A   140007004897006177708BATTERIES SIZE:AAA 8PCE0000001000+00001753+00000+0001T   00001753+0000001726          1400 EJ5312               1AZ
140008000140008               140008               170213G4     1400+00000+G40000002240+0000002240+000000000+000000314+0000002550+0000000004+I20000000000+0000002550+Z
140008001140008006-000789     140008006001023148612CROWN BOY              0000001000+00002192+00000+0001T   00002192+0000001758          1400 EJ5131               1AZ
140008002140008112-116069     140008006009681820277TCS CARRIER BAG JUMBO  0000001000+00000048+00000+0001T   00000048+0000001758          1400 EJ5090               1AZ
149946000149946               149946               170213G4     1400+00000+G40000005470+0000005470+000000000+000000767+0000006230+0000000007+I20000000000+0000006230+Z
149946001149946079-000510     149946006001023509079CRAYONS WAX 12-COLOUR  0000002000+00002455+00000+0001T   00002455+0000001023          1400 EJ5130               1AZ
149946002149946007-000120     149946006009698062714BOOK DRAWING A4 24-PAGE0000001000+00000525+00000+0001T   00000525+0000001023          1400 EJ5130               1AZ
149946003149946112-116038     149946006009681820246TCS CARRIER BAG MIDI   0000001000+00000035+00000+0001T   00000035+0000001023          1400 EJ5090               1AZ
149947000149947               149947               170213G4     1400+00000+G40000020914+0000020914+000000000+000002931+0000023845+0000000000+I40000023845+0000000000+Z
149947001149947112-116069     149947006009681820277TCS CARRIER BAG JUMBO  0000001000+00000048+00000+0001T   00000048+0000001038          1400 EJ5090               1AZ
149947002149947903-000709     149947006002099007070SWT QUENCHERS FRUIT    0000001000+00001139+00000+0001T   00001139+0000001038          1400 EJ5150               1AZ
149947003149947486-000010     149947006001023544254WALL-CLOCK ROUND 25cm  0000001000+00006139+00000+0001T   00006139+0000001038          1400 EJ5510               1AZ
149947004149947200-003026     149947006003000276448REFUSE BAGS 10PCE GREEN0000002000+00001753+00000+0001T   00001753+0000001038          1400 EJ5214               1AZ
149947005149947077-000302     149947008010410010195GIFT-BAG 18X23CM E/D   0000001000+00000876+00000+0001T   00000876+0000001038          1400 EJ5112               1AZ
149947006149947200-000205     149947006008766127027BAKEPANS 36PCE (PIE)   0000002000+00003507+00000+0001T   00003507+0000001038          1400 EJ5214               1AZ
149947007149947206-000245     149947006003000680818BOTTLE CLEANER PLASTIC 0000001000+00002192+00000+0001T   00002192+0000001038          1400 EJ5321               1AZ
149948000149948               149948               170213G4     1400+00000+G40000002630+0000002630+000000000+000000369+0000002990+0000000009+I20000000000+0000002990+Z
149948001149948204-000017     149948006001023736437M/HOLDER ASSORTED 30PCE0000001000+00002630+00000+0001T   00002630+0000001046          1400 EJ5300               1AZ
149949000149949               149949               170213G4     1400+00000+G40000008771+0000008771+000000000+000001228+0000009990+0000000009+I20000000000+0000009990+Z
149949001149949039-000799     149949006001023692382CANDLES TEALITE 100PCE 0000001000+00008771+00000+0001T   00008771+0000001047          1400 EJ5510               1AZ
149950000149950               149950               170213G4     1400+00000+G40000005085+0000005085+000000000+000000712+0000005797+0000000000+I40000005797+0000000000+Z
149950001149950018-005009     149950006001023725608MUG W/PLUSH-BEAR LOVE  0000001000+00003507+00000+0001T   00003507+0000001054          1400 EJ5515               1AZ
149950002149950077-000303     149950006001023593757GIFT-BAG PAPER MED     0000001000+00001578+00000+0001T   00001578+0000001054          1400 EJ5112               1AZ
149951000149951               149951               170213G4     1400+00000+G40000004644+0000004644+000000000+000000652+0000005290+0000000006+I20000000000+0000005290+Z
149951001149951018-000127     149951006001023380289MUG OCC STRAIGHT LOVE  0000001000+00001578+00000+0001T   00001753+0006471055          1400 EJ5515               1AZ
149951002149951903-000200     149951006009826020234SWT CHOC RP CHOCO 23G  0000002000+00000788+00000+0001T   00000788+0000001055          1400 EJ5150               1AZ
149951003149951077-000452     149951006003000284986G/BAG METALLIC MED EMB 0000001000+00001490+00000+0001T   00001490+0000001055          1400 EJ5112               1AZ
149952000149952               149952               170213G4     1400+00000+G40000002015+0000002015+000000000+000000283+0000002290+0000000008+I20000000000+0000002290+Z
149952001149952077-000303     149952006001023593757GIFT-BAG PAPER MED     0000001000+00001578+00000+0001T   00001578+0000001058          1400 EJ5112               1AZ
149952002149952080-000133-A   149952006003000647019MINI VALENTINES CARD   0000001000+00000437+00000+0001T   00000437+0000001058          1400 EJ5112               1AZ
149953000149953               149953               170213G4     1400+00000+G40000002630+0000002630+000000000+000000369+0000002999+0000000000+I40000002999+0000000000+Z
149953001149953007-000049     149953006003000274994OFFICE E/LOPE A4 PK 5  0000001000+00002630+00000+0001T   00002630+0000001103          1400 EJ5130               1AZ
149954000149954               149954               170213G4     1400+00000+G40000007147+0000007147+000000000+000001002+0000008140+0000000009+I20000000000+0000008140+Z
149954001149954112-116069     149954006009681820277TCS CARRIER BAG JUMBO  0000001000+00000048+00000+0001T   00000048+0000001109          1400 EJ5090               1AZ
149954002149954903-000200     149954006009826020234SWT CHOC RP CHOCO 23G  0000001000+00000788+00000+0001T   00000788+0000001109          1400 EJ5150               1AZ
149954003149954018-000136     149954006001023659026MUG OCC LOVE W/PLUSH   0000001000+00003507+00000+0001T   00003507+0000001109          1400 EJ5515               1AZ
149954004149954304-001011     149954006001023806727FLWR ROSE RED W/BEAR   0000002000+00000613+00000+0001T   00000788+0006471109          1400 EJ5510               1AZ
149954005149954077-000303     149954006001023593757GIFT-BAG PAPER MED     0000001000+00001578+00000+0001T   00001578+0000001109          1400 EJ5112               1AZ
149955000149955               149955               170213G4     1400+00000+G40000000876+0000000876+000000000+000000123+0000000990+0000000009+I20000000000+0000000990+Z
149955001149955071-003003     149955006003000144525PEN BALL PEN 3PCE BLACK0000001000+00000876+00000+0001T   00000876+0000001113          1400 EJ5130               1AZ
149956000149956               149956               170213G4     1400+00000+G40000005733+0000005733+000000000+000000803+0000006530+0000000006+I20000000000+0000006530+Z
149956001149956077-000303     149956006001023593757GIFT-BAG PAPER MED     0000001000+00001578+00000+0001T   00001578+0000001118          1400 EJ5112               1AZ
149956002149956018-000136     149956006001023659026MUG OCC LOVE W/PLUSH   0000001000+00003507+00000+0001T   00003507+0000001118          1400 EJ5515               1AZ
149956003149956304-001011     149956006001023806727FLWR ROSE RED W/BEAR   0000001000+00000613+00000+0001T   00000788+0006471118          1400 EJ5510               1AZ
149956004149956112-116038     149956006009681820246TCS CARRIER BAG MIDI   0000001000+00000035+00000+0001T   00000035+0000001118          1400 EJ5090               1AZ
149957000149957               149957               170213G4     1400+00000+G40000013679+0000013679+000000000+000001918+0000015590+0000000007+I20000000000+0000015590+Z
149957001149957077-000316     149957006001023609731GIFT-BAG 25X32CM MATT  0000001000+00001753+00000+0001T   00001753+0000001120          1400 EJ5112               1AZ
149957002149957007-000196     149957006002324002375FILE LEVER ARCH A4     0000001000+00002630+00000+0001T   00002630+0000001120          1400 EJ5130               1AZ
149957003149957007-000325     149957006009698066514PAPER A4 160GSM 25SHTS 0000001000+00003507+00000+0001T   00003507+0000001120          1400 EJ5130               1AZ
149957004149957071-001102     149957006003000274598MARKER PERM MED 2PCE   0000001000+00001753+00000+0001T   00001753+0000001120          1400 EJ5130               1AZ
149957005149957071-081110     149957006936198405454CORRECTION FLUID PEN   0000001000+00001490+00000+0001T   00001490+0000001120          1400 EJ5130               1AZ
149957006149957007-000123     149957006003000533879BOOK COVER 450mmx1.5m  0000001000+00000306+00000+0001T   00000306+0000001120          1400 EJ5130               1AZ
149957007149957077-000924     149957006003000414055G/WRAP 700mmx2m WEDDING0000001000+00002192+00000+0001T   00002192+0000001120          1400 EJ5112               1AZ
149957008149957112-116069     149957006009681820277TCS CARRIER BAG JUMBO  0000001000+00000048+00000+0001T   00000048+0000001120          1400 EJ5090               1AZ
149958000149958               149958               170213G4     1400+00000+G40000001753+0000001753+000000000+000000246+0000001990+0000000009+I20000000000+0000001990+Z
149958001149958007-000192     149958006009635830062BOOK H/COVER A4 192PAGE0000001000+00001753+00000+0001T   00001753+0000001126          1400 EJ5130               1AZ
149959000149959               149959               170213G4     1400+00000+G40000000876+0000000876+000000000+000000123+0000000990+0000000009+I20000000000+0000000990+Z
149959001149959007-000045     149959006009608640438DISPLAY-POCKETS A4 10PC0000001000+00000876+00000+0001T   00000876+0000001133          1400 EJ5130               1AZ
149960000149960               149960               170213G4     1400+00000+G40000001929+0000001929+000000000+000000270+0000002190+0000000009+I20000000000+0000002190+Z
149960001149960018-000127     149960006001023380289MUG OCC STRAIGHT LOVE  0000001000-00001578+00000+0001T   00001753+0006471144          1400 EJ55151IC            1 Z
149960002149960018-005009     149960006001023725608MUG W/PLUSH-BEAR LOVE  0000001000+00003507+00000+0001T   00003507+0000001144          1400 EJ5515               1AZ
149961000149961               149961               170213G4     1400+00000+G40000008771+0000008771+000000000+000001228+0000009990+0000000009+I20000000000+0000009990+Z
149961001149961567-010162     149961006003000485123BOOK TOP ASSTD NOVELS  0000001000+00008771+00000+0001T   00008771+0000001148          1400 EJ5757               1AZ
149962000149962               149962               170213G4     1400+00000+G40000000613+0000000613+000000000+000000086+0000000690+0000000009+I20000000000+0000000690+Z
149962001149962304-001011     149962006001023806727FLWR ROSE RED W/BEAR   0000001000+00000613+00000+0001T   00000788+0006471154          1400 EJ5510               1AZ
149963000149963               149963               170213G4     1400+00000+G40000004120+0000004120+000000000+000000578+0000004698+0000000000+I40000004698+0000000000+Z
149963001149963006-000104     149963006001023990112BALLOONS 40PC AIR PUMP 0000001000+00002630+00000+0001T   00002630+0000001158          1400 EJ5131               1AZ
149963002149963006-000788     149963006001023990228CROWN HAPPY BIRTHDAY   0000001000+00001490+00000+0001T   00001490+0000001158          1400 EJ5131               1AZ
149964000149964               149964               170213G4     1400+00000+G40000007629+0000007629+000000000+000001069+0000008698+0000000000+I40000008698+0000000000+Z
149964001149964018-050000     149964006003000412679MUG OCC LOVE TWIN BEAR 0000001000+00006139+00000+0001T   00006139+0000001203          1400 EJ5515               1AZ
149964002149964077-000299     149964006003000395576G/BAG 32x25cm LRG LOVE 0000001000+00001490+00000+0001T   00001490+0000001203          1400 EJ5112               1AZ
149965000149965               149965               170213G4     1400+00000+G40000011619+0000011619+000000000+000001630+0000013249+0000000000+I40000013249+0000000000+Z
149965001149965112-116069     149965006009681820277TCS CARRIER BAG JUMBO  0000001000+00000048+00000+0001T   00000048+0000001208          1400 EJ5090               1AZ
149965002149965200-003026     149965006003000276448REFUSE BAGS 10PCE GREEN0000003000+00001753+00000+0001T   00001753+0000001208          1400 EJ5214               1AZ
149965003149965079-006500     149965006001023557186GLUE GLITTER 6/10 PCE  0000001000+00001753+00000+0001T   00001753+0000001208          1400 EJ5130               1AZ
149965004149965072-000012     149965006001023602510PET DOG/CAT BRUSH 23cm 0000001000+00003069+00000+0001T   00003069+0000001208          1400 EJ5870               1AZ
149965005149965306-000969     149965006003000559350FIRSTAID PLASTER 10PC  0000001000+00001490+00000+0001T   00001490+0000001208          1400 EJ5200               1AZ
149966000149966               149966               170213G4     1400+00000+G40000006174+0000006174+000000000+000000865+0000007030+0000000009+I20000000000+0000007030+Z
149966001149966017-000221     149966006003000238019P/ALBUM ADHESIVE 20PG  0000001000+00006139+00000+0001T   00006139+0000001222          1400 EJ5510               1AZ
149966002149966112-116038     149966006009681820246TCS CARRIER BAG MIDI   0000001000+00000035+00000+0001T   00000035+0000001222          1400 EJ5090               1AZ
149967000149967               149967               170213G4     1400+00000+G40000019808+0000019808+000000000+000002777+0000022585+0000000000+I40000022585+0000000000+Z
149967001149967088-000008     149967006003000623181AIR FRESHENER GEL ASSTD0000001000+00002630+00000+0001T   00002630+0000001237          1400 EJ5212               1AZ
149967002149967159-000684     149967006001023776532BATH BODY-GLOVE 18cm   0000001000+00002630+00000+0001T   00002630+0000001237          1400 EJ5200               1AZ
149967003149967004-079100     149967006003000604913USB POWER BANK 2400MAH 0000001000+00011402+00000+0001T   00012279+0008191237          1400 EJ5310               1AZ
149967004149967071-000012     149967006001177101006CHALK COLOUR 12PCE     0000001000+00000481+00000+0001T   00000481+0000001237          1400 EJ5130               1AZ
149967005149967007-010494     149967006003000500505BOARD BLACK WITH CHALK 0000001000+00002630+00000+0001T   00002630+0000001237          1400 EJ5130               1AZ
149967006149967112-116038     149967006009681820246TCS CARRIER BAG MIDI   0000001000+00000035+00000+0001T   00000035+0000001237          1400 EJ5090               1AZ
149968000149968               149968               170213G4     1400+00000+G40000005120+0000005120+000000000+000000717+0000005830+0000000007+I20000000000+0000005830+Z
149968001149968018-000136     149968006001023659026MUG OCC LOVE W/PLUSH   0000001000+00003507+00000+0001T   00003507+0000001241          1400 EJ5515               1AZ
149968002149968077-000303     149968006001023593757GIFT-BAG PAPER MED     0000001000+00001578+00000+0001T   00001578+0000001241          1400 EJ5112               1AZ
149968003149968112-116038     149968006009681820246TCS CARRIER BAG MIDI   0000001000+00000035+00000+0001T   00000035+0000001241          1400 EJ5090               1AZ
149969000149969               149969               170213G4     1400+00000+G40000003068+0000003068+000000000+000000430+0000003490+0000000008+I20000000000+0000003490+Z
149969001149969362-000301     149969006003000449637HAIR CLIP LRGE 4PC     0000001000+00000876+00000+0001T   00001314+0008181302          1400 EJ5160               1AZ
149969002149969046-000012-A   149969006003000208296BATTERIES H/POWER SZ:AA0000001000+00002192+00000+0001T   00002192+0000001302          1400 EJ5312               1AZ
149970000149970               149970               170213G4     1400+00000+G40000000613+0000000613+000000000+000000086+0000000690+0000000009+I20000000000+0000000690+Z
149970001149970304-001011     149970006001023806727FLWR ROSE RED W/BEAR   0000001000+00000613+00000+0001T   00000788+0006471303          1400 EJ5510               1AZ
149971000149971               149971               170213G4     1400+00000+G40000003277+0000003277+000000000+000000460+0000003737+0000000000+I40000003737+0000000000+Z
149971001149971077-000299     149971006003000395576G/BAG 32x25cm LRG LOVE 0000001000+00001490+00000+0001T   00001490+0000001318          1400 EJ5112               1AZ
149971002149971903-000699     149971006002099007018SWT CANDY FRUIT CHEWS  0000001000+00001139+00000+0001T   00001139+0000001318          1400 EJ5150               1AZ
149971003149971304-001011     149971006001023806727FLWR ROSE RED W/BEAR   0000001000+00000613+00000+0001T   00000788+0006471318          1400 EJ5510               1AZ
149971004149971112-116038     149971006009681820246TCS CARRIER BAG MIDI   0000001000+00000035+00000+0001T   00000035+0000001318          1400 EJ5090               1AZ
149972000149972               149972               170213G4     1400+00000+G40000021083+0000021083+000000000+000002953+0000024030+0000000006+I20000000000+0000024030+Z
149972001149972112-116038     149972006009681820246TCS CARRIER BAG MIDI   0000001000+00000035+00000+0001T   00000035+0000001324          1400 EJ5090               1AZ
149972002149972304-001169     149972006003000523894FLOWER FLOATING 28CM   0000004000+00005262+00000+0001T   00005262+0000001324          1400 EJ5510               1AZ
149973000149973               149973               170213G4     1400+00000+G40000023677+0000023677+000000000+000003317+0000026994+0000000000+I40000026994+0000000000+Z
149973001149973019-071598     149973006001023693228PEBBLES GLS 250g WHITE 0000001000+00001753+00000+0001T   00001753+0000001331          1400 EJ5510               1AZ
149973002149973019-071595     149973006001023756428PEBBLES 250g SKY-BLUE  0000001000+00001753+00000+0001T   00001753+0000001331          1400 EJ5510               1AZ
149973003149973019-000070     149973006003000297474VASE GLS CLEAR BOTTLE  0000002000+00004385+00000+0001T   00004385+0000001331          1400 EJ5510               1AZ
149973004149973304-001116     149973006003000426164F/BUNCH ROSES 12-HEAD  0000001000+00005262+00000+0001T   00005262+0000001331          1400 EJ5510               1AZ
149973005149973304-001124     149973006003000534289FLOWER BUNCH ROSE/MUM  0000001000+00006139+00000+0001T   00006139+0000001331          1400 EJ5510               1AZ
149974000149974               149974               170213G4     1400+00000+G40000006607+0000006607+000000000+000000928+0000007535+0000000000+I40000007535+0000000000+Z
149974001149974162-096646     149974006001492966465#TAG HOT DEALS KIDS HR 0000001000+00002630+00000+0001T   00002630+0000001333          1400 EJ5160               1AZ
149974002149974089-000192-A   149974006001023901774KEY-CHAIN ACRYLIC      0000001000+00000876+00000+0001T   00000876+0000001333          1400 EJ5205               1AZ
149974003149974077-000300     149974006001023483249GIFT BOX OCCASIONS HEXG0000001000+00002192+00000+0001T   00002192+0000001333          1400 EJ5112               1AZ
149974004149974080-000133-A   149974006003000647019MINI VALENTINES CARD   0000002000+00000437+00000+0001T   00000437+0000001333          1400 EJ5112               1AZ
149974005149974112-116038     149974006009681820246TCS CARRIER BAG MIDI   0000001000+00000035+00000+0001T   00000035+0000001333          1400 EJ5090               1AZ
149975000149975               149975               170213G4     1400+00000+G40000003507+0000003507+000000000+000000491+0000003990+0000000008+I20000000000+0000003990+Z
149975001149975028-002101     149975006002580009507CHAIR JUNIOR    ASSTD  0000001000+00003507+00000+0001T   00003507+0000001334          1400 EJ5305               1AZ
149976000149976               149976               170213G4     1400+00000+G40000008504+0000008504+000000000+000001191+0000009690+0000000005+I20000000000+0000009690+Z
149976001149976018-005009     149976006001023725608MUG W/PLUSH-BEAR LOVE  0000002000+00003507+00000+0001T   00003507+0000001337          1400 EJ5515               1AZ
149976002149976077-000299     149976006003000395576G/BAG 32x25cm LRG LOVE 0000001000+00001490+00000+0001T   00001490+0000001337          1400 EJ5112               1AZ
149977000149977               149977               170213G4     1400+00000+G40000007014+0000007014+000000000+000000982+0000007990+0000000006+I20000000000+0000007990+Z
149977001149977301-085004     149977006003000420469ORN LOVE PLAQUE 21X10CM0000001000+00003507+00000+0001T   00003946+0006471349          1400 EJ5505               1AZ
149977002149977089-000018     149977006003000176724KEY CHAIN INSPIRATION  0000001000+00003507+00000+0001T   00003507+0000001349          1400 EJ5205               1AZ
149978000149978               149978               170213G4     1400+00000+G40000002234+0000002234+000000000+000000314+0000002540+0000000008+I20000000000+0000002540+Z
149978001149978024-006874     149978006001023769978PASTRY-BRUSH SQ WHITE  0000001000+00001753+00000+0001T   00001753+0000001351          1400 EJ5300               1AZ
149978002149978071-000012     149978006001177101006CHALK COLOUR 12PCE     0000001000+00000481+00000+0001T   00000481+0000001351          1400 EJ5130               1AZ
149979000149979               149979               170213G4     1400+00000+G40000020237+0000020237+000000000+000002836+0000023070+0000000003+I20000000000+0000023070+Z
149979001149979039-080944     149979006001023758897C/PILLAR RND WHT 12X7CM0000003000+00004385+00000+0001T   00004385+0000001355          1400 EJ5510               1AZ
149979002149979039-001023     149979006003000466337CANDLE TEA-LITE METALIC0000003000+00001753+00000+0001T   00001753+0000001355          1400 EJ5510               1AZ
149979003149979077-000011     149979006003000542352PAPER RAFFIA ASSTD COL 0000001000+00001753+00000+0001T   00001753+0000001355          1400 EJ5112               1AZ
149979004149979112-116038     149979006009681820246TCS CARRIER BAG MIDI   0000002000+00000035+00000+0001T   00000035+0000001355          1400 EJ5090               1AZ
149980000149980               149980               170213G4     1400+00000+G40000001753+0000001753+000000000+000000246+0000001990+0000000009+I20000000000+0000001990+Z
149980001149980080-000103     149980006003000236961CARD&ENVLOPE BDAY-MALE 0000001000+00001753+00000+0001T   00001753+0000001357          1400 EJ5112               1AZ
149981000149981               149981               170213G4     1400+00000+G40000012306+0000012306+000000000+000001727+0000014033+0000000000+I40000014033+0000000000+Z
149981001149981112-116038     149981006009681820246TCS CARRIER BAG MIDI   0000001000+00000035+00000+0001T   00000035+0000001508          1400 EJ5090               1AZ
149981002149981019-071595     149981006001023756428PEBBLES 250g SKY-BLUE  0000006000+00001753+00000+0001T   00001753+0000001508          1400 EJ5510               1AZ
149981003149981306-000020-A   149981006001023873583TISSUES 100PCE 19x18cm 0000001000+00001753+00000+0001T   00001753+0000001508          1400 EJ5200               1AZ
149982000149982               149982               170213G4     1400+00000+G40000021971+0000021971+000000000+000003079+0000025050+0000000000+I40000025050+0000000000+Z
149982001149982158-003092     149982006003000621644PAPER TOWEL HOLDER CHR 0000001000+00005262+00000+0001T   00005262+0000001526          1400 EJ5300               1AZ
149982002149982024-000019     149982006001023822277HILLHOUSE ICING-SET    0000001000+00005262+00000+0001T   00005262+0000001526          1400 EJ5300               1AZ
149982003149982562-000070     149982006003000600748EDU PLAY DOUGH 50g 8pc 0000001000+00007016+00000+0001T   00007016+0000001526          1400 EJ5755               1AZ
149982004149982024-000083     149982006001023770943SIEVE FLOUR 20cm MTL-RI0000001000+00001753+00000+0001T   00001753+0000001526          1400 EJ5300               1AZ
149982005149982108-009000     149982006003000638673JELLY MOULD WITH LID PL0000001000+00002630+00000+0001T   00003507+0008171526          1400 EJ5210               1AZ
149982006149982112-116069     149982006009681820277TCS CARRIER BAG JUMBO  0000001000+00000048+00000+0001T   00000048+0000001526          1400 EJ5090               1AZ
149983000149983               149983               170213G4     1400+00000+G40000000613+0000000613+000000000+000000086+0000000690+0000000009+I20000000000+0000000690+Z
149983001149983304-001011     149983006001023806727FLWR ROSE RED W/BEAR   0000001000+00000613+00000+0001T   00000788+0006471535          1400 EJ5510               1AZ
149984000149984               149984               170213G4     1400+00000+G40000001314+0000001314+000000000+000000184+0000001490+0000000008+I20000000000+0000001490+Z
149984001149984496-059631     149984006941057402611REPAIR-PATCHES   CARDED0000001000+00001314+00000+0001T   00001314+0000001540          1400 EJ5787               1AZ
149985000149985               149985               170213G4     1400+00000+G40000005085+0000005085+000000000+000000712+0000005797+0000000000+I40000005797+0000000000+Z
149985001149985018-005009     149985006001023725608MUG W/PLUSH-BEAR LOVE  0000001000+00003507+00000+0001T   00003507+0000001546          1400 EJ5515               1AZ
149985002149985077-000303     149985006001023593757GIFT-BAG PAPER MED     0000001000+00001578+00000+0001T   00001578+0000001546          1400 EJ5112               1AZ
149986000149986               149986               170213G4     1400+00000+G40000000612+0000000612+000000000+000000086+0000000690+0000000008+I20000000000+0000000690+Z
149986001149986079-009700-D   149986006003000545711PAPER SIRIO A4 RED COL.0000002000+00000306+00000+0001T   00000306+0000001547          1400 EJ5130               1AZ
149987000149987               149987               170213G4     1400+00000+G40000004823+0000004823+000000000+000000676+0000005490+0000000009+I20000000000+0000005490+Z
149987001149987301-085001     149987006003000297610ORN WATERBALL LOVE ASST0000001000+00004823+00000+0001T   00004823+0000001550          1400 EJ5505               1AZ
149988000149988               149988               170213G4     1400+00000+G40000000613+0000000613+000000000+000000086+0000000690+0000000009+I20000000000+0000000690+Z
149988001149988304-001011     149988006001023806727FLWR ROSE RED W/BEAR   0000001000+00000613+00000+0001T   00000788+0006471559          1400 EJ5510               1AZ
149989000149989               149989               170213G4     1400+00000+G40000002366+0000002366+000000000+000000332+0000002690+0000000008+I20000000000+0000002690+Z
149989001149989304-001011     149989006001023806727FLWR ROSE RED W/BEAR   0000001000+00000613+00000+0001T   00000788+0006471600          1400 EJ5510               1AZ
149989002149989566-000037     149989006003000383948STICKER 3D GEL         0000001000+00001753+00000+0001T   00001753+0000001600          1400 EJ5130               1AZ
149990000149990               149990               170213G4     1400+00000+G40000008819+0000008819+000000000+000001235+0000010054+0000000000+I40000010054+0000000000+Z
149990001149990028-000027     149990006003000275816C/BAG+POCKET 27x18x23cm0000001000+00008771+00000+0001T   00008771+0000001610          1400 EJ5305               1AZ
149990002149990112-116069     149990006009681820277TCS CARRIER BAG JUMBO  0000001000+00000048+00000+0001T   00000048+0000001610          1400 EJ5090               1AZ
149991000149991               149991               170213G4     1400+00000+G40000006577+0000006577+000000000+000000921+0000007498+0000000000+I40000007498+0000000000+Z
149991001149991018-030000     149991006003000421060MUG OCCASIONS LOVE 2PCE0000001000+00004385+00000+0001T   00004385+0000001616          1400 EJ5515               1AZ
149991002149991080-000139     149991006003000611690CARD & ENV MINI SET 6PC0000001000+00002192+00000+0001T   00002192+0000001616          1400 EJ5112               1AZ
149992000149992               149992               170213G4     1400+00000+G40000003507+0000003507+000000000+000000491+0000003990+0000000008+I20000000000+0000003990+Z
149992001149992018-005009     149992006001023725608MUG W/PLUSH-BEAR LOVE  0000001000+00003507+00000+0001T   00003507+0000001617          1400 EJ5515               1AZ
149993000149993               149993               170213G4     1400+00000+G40000001578+0000001578+000000000+000000221+0000000000+0000000000+ 00000000000+0000000000+Z
149993001149993077-000303     149993006001023593757GIFT-BAG PAPER MED     0000001000+00001578+00000+0001T   00001578+000000              1400 EJ51121IC            1 Z
149994000149994               149994               170213G4     1400+00000+G40000017590+0000017590+000000000+000002463+0000020053+0000000000+I40000020053+0000000000+Z
149994001149994001-091415     149994006003000329113W/GLS OCC. LOVE 2PC 2800000001000+00008771+00000+0001T   00009648+0006471642          1400 EJ5515               1AZ
149994002149994031-086302-C   149994006001023910332P/FRAME COLL. PL 3-HOLE0000001000+00008771+00000+0001T   00008771+0000001642          1400 EJ5510               1AZ
149994003149994112-116069     149994006009681820277TCS CARRIER BAG JUMBO  0000001000+00000048+00000+0001T   00000048+0000001642          1400 EJ5090               1AZ
149995000149995               149995               170213G4     1400+00000+G40000001051+0000001051+000000000+000000148+0000001190+0000000009+I20000000000+0000001190+Z
149995001149995903-002850     149995000000087108262MENTOS ROLL FRUIT      0000001000+00001051+00000+0001T   00001051+0000001644          1400 EJ5150               1AZ
149996000149996               149996               170213G4     1400+00000+G40000001490+0000001490+000000000+000000209+0000001690+0000000009+I20000000000+0000001690+Z
149996001149996077-000342     149996006003000273942G/BAG PAPER LRG 25X32CM0000001000+00001490+00000+0001T   00001490+0000001644          1400 EJ5112               1AZ
149997000149997               149997               170213G4     1400+00000+G40000001753+0000001753+000000000+000000246+0000001990+0000000009+I20000000000+0000001990+Z
149997001149997077-000316     149997006001023609731GIFT-BAG 25X32CM MATT  0000001000+00001753+00000+0001T   00001753+0000001645          1400 EJ5112               1AZ
149998000149998               149998               170213G4     1400+00000+G40000004558+0000004558+000000000+000000639+0000005190+0000000007+I20000000000+0000005190+Z
149998001149998077-000299     149998006003000395576G/BAG 32x25cm LRG LOVE 0000001000+00001490+00000+0001T   00001490+0000001652          1400 EJ5112               1AZ
149998002149998071-005213     149998006001023690371CELLOTAPE 12mmx33m     0000001000+00000876+00000+0001T   00000876+0000001652          1400 EJ5130               1AZ
149998003149998077-000926     149998006003000414178G/WRAP 700mmx2m LOVE   0000001000+00002192+00000+0001T   00002192+0000001652          1400 EJ5112               1AZ
149999000149999               149999               170213G4     1400+00000+G40000032355+0000032355+000000000+000004534+0000036880+0000000009+I20000000000+0000036880+Z
149999001149999027-000194     149999006001246602472MOP COMPLETE           0000001000+00002279+00000+0001T   00002279+0000001656          1400 EJ5212               1AZ
149999002149999365-000027     149999006001023786852P/SET TEA-SET PL 9PCS  0000001000+00003946+00000+0001T   00003946+0000001656          1400 EJ5725               1AZ
149999003149999012-000024     149999006003000580897MICROWAVE HOT PLATE    0000001000+00004385+00000+0001T   00004385+0000001656          1400 EJ5300               1AZ
149999004149999016-006497     149999006003000120055S/JAR-SET 4PCE MINI    0000001000+00004385+00000+0001T   00004385+0000001656          1400 EJ5300               1AZ
149999005149999200-000025-A   149999006925406841054BAG ZIPPERSEAL 15PC    0000001000+00002192+00000+0001T   00002192+0000001656          1400 EJ5214               1AZ
149999006149999105-001077     149999006003000532872CONTAINER CLIP LOCK 1L 0000001000+00001753+00000+0001T   00002279+0008161656          1400 EJ5210               1AZ
149999007149999007-000657     149999006003000081905STATIONERY SET GIRL    0000001000+00005262+00000+0001T   00005262+0000001656          1400 EJ5130               1AZ
149999008149999159-000684     149999006001023776532BATH BODY-GLOVE 18cm   0000001000+00002630+00000+0001T   00002630+0000001656          1400 EJ5200               1AZ
149999009149999079-013099     149999006003000081875ART+CRAFT EYES ASSTD   0000001000+00001753+00000+0001T   00001753+0000001656          1400 EJ5130               1AZ
149999010149999079-013102     149999006003000019601ART+CRAFT DIY PIPE-CLNR0000001000+00002192+00000+0001T   00002192+0000001656          1400 EJ5130               1AZ
149999011149999071-001002     149999006003000217540PENCIL-SHARPNER DOUBLE 0000001000+00001578+00000+0001T   00001578+0000001656          1400 EJ5130               1AZ
M17021391                              CASH        G4SLAVE 1                       Z-REPORT No.   563TOTAL (Sales - Refunds)           4975.21       CASH TO BE BANKED                 2603.90       DEBIT CARDS                          0.00       CREDIT CARDS                      2374.21       Z-READING                         4975.21       AIRTIME DEBIT CARD SALES             0.00       AIRTIME CARD SALES                   0.00       OVERS/UNDERS                         2.90       AIRTIME CASH SALES                   0.00       GIFT CARDS                           0.00       GIFT CARD CASH SALES                 0.00       T O T A L  CASH PAYOUTS              0.00                                                                                                                                                                                                                                                                                                                                                      Z
M17021392                              CASH        G4ABSENT                                                                                                                                                                                          ANNUAL LEAVE                                                                                                                                                                                    DAY OFF                                                                                                                                                                                         COMMENTS                                                                                                                                                                                                                                                                                                                                                                                       Z
Y17021300                                          G400000000438241+000061
ZG417021321073 SLAVE 1      SALES DATA                     NEXT INVOICE NO.  140009 0563
X G4 Slave 1 First invoice 149946 170213 Last invoice 140008 170213 Next invoice 140009 Total number of records 000000225 clbackup completed 21:07:40
