151937000151937               151937               170213G4     1400+00000+G40000009078+0000009078+000000000+000001272+0000010350+0000000000+I20000000000+0000010350+Z
151937001151937018-000130     151937006001023867537MUG OCC LOVE MINI+HEART0000001000+00003507+00000+0001T   00003507+0000000836          1400 EM7515               2AZ
151937002151937018-000170     151937006001023775528MUG OCC. LOVE 2PC MINI 0000001000+00002192+00000+0001T   00002192+0000000836          1400 EM7515               2AZ
151937003151937077-000315     151937006003000181186GIFT-BAG 20x28cm MATT  0000001000+00001578+00000+0001T   00001578+0000000836          1400 EM7112               2AZ
151937004151937077-000455     151937006003000285389G/BAG METALLIC LRG SOL 0000001000+00001753+00000+0001T   00001753+0000000836          1400 EM7112               2AZ
151937005151937112-116069     151937006009681820277TCS CARRIER BAG JUMBO  0000001000+00000048+00000+0001T   00000048+0000000836          1400 EM7090               2AZ
151938000151938               151938               170213G4     1400+00000+G40000013641+0000013641+000000000+000001911+0000015550+0000000002+I20000000000+0000015550+Z
151938001151938112-116069     151938006009681820277TCS CARRIER BAG JUMBO  0000001000+00000048+00000+0001T   00000048+0000000908          1400 EM7090               2AZ
151938002151938496-059631     151938006941057402611REPAIR-PATCHES   CARDED0000001000+00001314+00000+0001T   00001314+0000000908          1400 EM7787               2AZ
151938003151938496-058426     151938000078257584260POOL CRYSTAL-BLU 147x330000001000+00012279+00000+0001T   00012279+0000000908          1400 EM7787               2AZ
151939000151939               151939               170213G4     1400+00000+G40000014076+0000014076+000000000+000001973+0000016040+0000000009+I20000000000+0000016040+Z
151939001151939071-005213     151939006001023690371CELLOTAPE 12mmx33m     0000002000+00000876+00000+0001T   00000876+0000000931          1400 EM7130               2AZ
151939002151939112-116069     151939006009681820277TCS CARRIER BAG JUMBO  0000001000+00000048+00000+0001T   00000048+0000000931          1400 EM7090               2AZ
151939003151939016-006513     151939006003000295739S/JAR GLS EMBOSS. 950ML0000004000+00003069+00000+0001T   00003069+0000000931          1400 EM7300               2AZ
151940000151940               151940               170213G4     1400+00000+G40000000613+0000000613+000000000+000000086+0000000690+0000000009+I20000000000+0000000690+Z
151940001151940077-000311     151940006001023608666GIFT-BAG 11X14CM GLOSS 0000001000+00000613+00000+0001T   00000613+0000000938          1400 EM7112               2AZ
151941000151941               151941               170213G4     1400+00000+G40000008771+0000008771+000000000+000001228+0000009990+0000000009+I20000000000+0000009990+Z
151941001151941019-000076     151941006001023757159V/GLASS 25CM C/DESIGN  0000001000+00008771+00000+0001T   00008771+0000000942          1400 EM7510               2AZ
151942000151942               151942               170213G4     1400+00000+G40000002454+0000002454+000000000+000000344+0000000000+0000000000+ 00000000000+0000000000+Z
151942001151942903-000517     151942006001704012768SWT STRAWS FIZZY CHERRY0000001000+00001227+00000+0001T   00001227+000000              1400 EM71501IC            2 Z
151942002151942903-000518     151942006001704012782SWT STRAWS S/BERRY 100g0000001000+00001227+00000+0001T   00001227+000000              1400 EM71501IC            2 Z
151943000151943               151943               170213G4     1400+00000+G40000001227+0000001227+000000000+000000172+0000001390+0000000009+I20000000000+0000001390+Z
151943001151943903-000518     151943006001704012782SWT STRAWS S/BERRY 100g0000001000+00001227+00000+0001T   00001227+0000001033          1400 EM7150               2AZ
151944000151944               151944               170213G4     1400+00000+G40000023288+0000023288+000000000+000003261+0000026540+0000000009+I20000000000+0000026540+Z
151944001151944040-001009     151944006003000581009C/HLDR-SET 3PC HOLDERS 0000001000+00008771+00000+0001T   00013157+0008171054          1400 EM7510               2AZ
151944002151944039-000635     151944006001023774521CANDLE VTV 4PC WHITE   0000001000+00002192+00000+0001T   00002192+0000001054          1400 EM7510               2AZ
151944003151944040-000216     151944006003000456444C/HOLDER GLS FLORAL    0000002000+00004385+00000+0001T   00004385+0000001054          1400 EM7510               2AZ
151944004151944039-080942     151944006001023669872C/PILLAR RND WHT 10X7CM0000001000+00003507+00000+0001T   00003507+0000001054          1400 EM7510               2AZ
151944005151944112-116069     151944006009681820277TCS CARRIER BAG JUMBO  0000001000+00000048+00000+0001T   00000048+0000001054          1400 EM7090               2AZ
151945000151945               151945               170213G4     1400+00000+G40000006834+0000006834+000000000+000000957+0000007790+0000000001+I20000000000+0000007790+Z
151945001151945903-000844     151945005010478432567SWT CANDY DL LUV HEARTS0000001000+00001314+00000+0001T   00001314+0000001055          1400 EM7150               2AZ
151945002151945903-000194     151945006009826020616SWT CHOC RP LOLLY 25G  0000002000+00001314+00000+0001T   00001314+0000001055          1400 EM7150               2AZ
151945003151945018-000127     151945006001023380289MUG OCC STRAIGHT LOVE  0000001000+00001578+00000+0001T   00001753+0006471055          1400 EM7515               2AZ
151945004151945077-000310     151945006001023608635GIFT-BAG 18X23CM GLOSS 0000001000+00001314+00000+0001T   00001314+0000001055          1400 EM7112               2AZ
151946000151946               151946               170213G4     1400+00000+G40000000876+0000000876+000000000+000000123+0000000990+0000000009+I20000000000+0000000990+Z
151946001151946306-000021-A   151946006001023891358EARBUDS COTTON 100PCE  0000001000+00000876+00000+0001T   00000876+0000001119          1400 EM7200               2AZ
151947000151947               151947               170213G4     1400+00000+G40000005260+0000005260+000000000+000000738+0000005990+0000000008+I20000000000+0000005990+Z
151947001151947466-000584     151947006001023628787SKIPPING-ROPE          0000001000+00002630+00000+0001T   00002630+0000001127          1400 EM7785               2AZ
151947002151947466-000515     151947006001023477408BALLS TENNIS BAG-OF-3  0000001000+00002630+00000+0001T   00002630+0000001127          1400 EM7785               2AZ
151948000151948               151948               170213G4     1400+00000+G40000018466+0000018466+000000000+000002587+0000021050+0000000003+I20000000000+0000021050+Z
151948001151948497-068614     151948000078257686148H/PUMP HIGH-O/PUT 36cm 0000001000+00006139+00000+0001T   00006139+0000001148          1400 EM7787               2AZ
151948002151948496-058426     151948000078257584260POOL CRYSTAL-BLU 147x330000001000+00012279+00000+0001T   00012279+0000001148          1400 EM7787               2AZ
151948003151948112-116069     151948006009681820277TCS CARRIER BAG JUMBO  0000001000+00000048+00000+0001T   00000048+0000001148          1400 EM7090               2AZ
151949000151949               151949               170213G4     1400+00000+G40000010869+0000010869+000000000+000001523+0000012392+0000000000+I40000012392+0000000000+Z
151949001151949903-000200     151949006009826020234SWT CHOC RP CHOCO 23G  0000001000+00000788+00000+0001T   00000788+0000001208          1400 EM7150               2AZ
151949002151949089-060027     151949006003000245871KEY-CHAIN HEART 6X6cm  0000001000+00003069+00000+0001T   00003069+0000001208          1400 EM7205               2AZ
151949003151949903-000194     151949006009826020616SWT CHOC RP LOLLY 25G  0000001000+00001314+00000+0001T   00001314+0000001208          1400 EM7150               2AZ
151949004151949018-005009     151949006001023725608MUG W/PLUSH-BEAR LOVE  0000001000+00003507+00000+0001T   00003507+0000001208          1400 EM7515               2AZ
151949005151949304-001011     151949006001023806727FLWR ROSE RED W/BEAR   0000001000+00000613+00000+0001T   00000788+0006471208          1400 EM7510               2AZ
151949006151949077-000303     151949006001023593757GIFT-BAG PAPER MED     0000001000+00001578+00000+0001T   00001578+0000001208          1400 EM7112               2AZ
151950000151950               151950               170213G4     1400+00000+G40000002630+0000002630+000000000+000000369+0000002990+0000000009+I20000000000+0000002990+Z
151950001151950466-000584     151950006001023628787SKIPPING-ROPE          0000001000+00002630+00000+0001T   00002630+0000001210          1400 EM7785               2AZ
151951000151951               151951               170213G4     1400+00000+G40000006139+0000006139+000000000+000000860+0000006990+0000000009+I20000000000+0000006990+Z
151951001151951018-050000     151951006003000412679MUG OCC LOVE TWIN BEAR 0000001000+00006139+00000+0001T   00006139+0000001213          1400 EM7515               2AZ
151952000151952               151952               170213G4     1400+00000+G40000001753+0000001753+000000000+000000246+0000001990+0000000009+I20000000000+0000001990+Z
151952001151952088-000084     151952006001023798060P/POURRI 120G ASSTD    0000001000+00001753+00000+0001T   00001753+0000001214          1400 EM7212               2AZ
151953000151953               151953               170213G4     1400+00000+G40000005698+0000005698+000000000+000000799+0000006490+0000000007+I20000000000+0000006490+Z
151953001151953006-000120     151953006001023346889BALLOONS 10PC MIX COL  0000002000+00001753+00000+0001T   00001753+0000001215          1400 EM7131               2AZ
151953002151953301-085000     151953006003000674299 ORN OCC. LOVE HEARTS  0000001000+00002192+00000+0001T   00002192+0000001215          1400 EM7505               2AZ
151954000151954               151954               170213G4     1400+00000+G40000014819+0000014819+000000000+000002076+0000016890+0000000005+I20000000000+0000016890+Z
151954001151954003-000916     151954006001023861009ORN B/FEEDER HANGING   0000001000+00007016+00000+0001T   00007016+0000001217          1400 EM7505               2AZ
151954002151954903-000194     151954006009826020616SWT CHOC RP LOLLY 25G  0000001000+00001314+00000+0001T   00001314+0000001217          1400 EM7150               2AZ
151954003151954301-086004     151954006001023860422ORN SENTIMENT PLAQ/FRAM0000001000+00005262+00000+0001T   00005262+0000001217          1400 EM7505               2AZ
151954004151954903-000499     151954006001704012492SWT CHOC MALLOWS 50g   0000001000+00001227+00000+0001T   00001227+0000001217          1400 EM7150               2AZ
151955000151955               151955               170213G4     1400+00000+G40000010963+0000010963+000000000+000001535+0000012490+0000000008+I20000000000+0000012490+Z
151955001151955203-005500     151955006001023914194B/POURER PL OPEN BAR   0000001000+00002192+00000+0001T   00002192+0000001225          1400 EM7300               2AZ
151955002151955158-008935     151955006003000621880TOILET ROLL HOLDER 66cm0000001000+00008771+00000+0001T   00008771+0000001225          1400 EM7300               2AZ
151956000151956               151956               170213G4     1400+00000+G40000002630+0000002630+000000000+000000369+0000002990+0000000009+I20000000000+0000002990+Z
151956001151956562-000010     151956006001023762528KID'S PLAY DOUGH       0000001000+00002630+00000+0001T   00002630+0000001226          1400 EM7755               2AZ
151957000151957               151957               170213G4     1400+00000+G40000000525-0000000525-000000000+000000074-0000000599-0000000000+I40000000599-0000000000+Z
151957001151957007-000145     151957006009635833087BK EXERCISE 72PG A4    0000001000-00000525+00000+0001T   00000525+0000001243          1400 EM71301IC            2 Z
151958000151958               151958               170213G4     1400+00000+G40000002100-0000002100-000000000+000000296-0000002400-0000000004+I20000000000+0000002400-Z
151958001151958007-000145     151958006009635833087BK EXERCISE 72PG A4    0000004000-00000525+00000+0001T   00000525+0000001244          1400 EM71301IC            2 Z
151959000151959               151959               170213G4     1400+00000+G40000002630+0000002630+000000000+000000369+0000002999+0000000000+I40000002999+0000000000+Z
151959001151959567-011902     151959006003000676040BK FOOD GOLDEN CLOUD   0000001000+00002630+00000+0001T   00002630+0000001246          1400 EM7757               2AZ
151960000151960               151960               170213G4     1400+00000+G40000002629+0000002629+000000000+000000369+0000002990+0000000008+I20000000000+0000002990+Z
151960001151960007-000235     151960006003000134434LABELS RECTANGULAR 60pc0000001000+00000876+00000+0001T   00000876+0000001247          1400 EM7130               2AZ
151960002151960007-000192     151960006009635830062BOOK H/COVER A4 192PAGE0000001000+00001753+00000+0001T   00001753+0000001247          1400 EM7130               2AZ
151961000151961               151961               170213G4     1400+00000+G40000001788+0000001788+000000000+000000251+0000002030+0000000009+I20000000000+0000002030+Z
151961001151961112-116038     151961006009681820246TCS CARRIER BAG MIDI   0000001000+00000035+00000+0001T   00000035+0000001248          1400 EM7090               2AZ
151961002151961051-002406     151961006003000139415SPRAY PL TRIGGER 700ml 0000001000+00001753+00000+0001T   00001753+0000001248          1400 EM7820               2AZ
151962000151962               151962               170213G4     1400+00000+G40000001962+0000001962+000000000+000000275+0000002230+0000000007+I20000000000+0000002230+Z
151962001151962077-000310     151962006001023608635GIFT-BAG 18X23CM GLOSS 0000001000+00001314+00000+0001T   00001314+0000001250          1400 EM7112               2AZ
151962002151962304-001011     151962006001023806727FLWR ROSE RED W/BEAR   0000001000+00000613+00000+0001T   00000788+0006471250          1400 EM7510               2AZ
151962003151962112-116038     151962006009681820246TCS CARRIER BAG MIDI   0000001000+00000035+00000+0001T   00000035+0000001250          1400 EM7090               2AZ
151963000151963               151963               170213G4     1400+00000+G40000019342+0000019342+000000000+000002709+0000022050+0000000001+I20000000000+0000022050+Z
151963001151963368-000181     151963006003000668052PLUSH BUNNY 27cm       0000001000+00011402+00000+0001T   00011402+0000001257          1400 EM7745               2AZ
151963002151963162-097719     151963006001492977195#TAG NECKLACE          0000001000+00004385+00000+0001T   00004385+0000001257          1400 EM7160               2AZ
151963003151963077-000465     151963006003000681570GIFT-BAG MTLC GLIT LRG 0000001000+00003507+00000+0001T   00003507+0000001257          1400 EM7112               2AZ
151963004151963112-116069     151963006009681820277TCS CARRIER BAG JUMBO  0000001000+00000048+00000+0001T   00000048+0000001257          1400 EM7090               2AZ
151964000151964               151964               170213G4     1400+00000+G40000007270+0000007270+000000000+000001019+0000008280+0000000009+I20000000000+0000008280+Z
151964001151964018-005009     151964006001023725608MUG W/PLUSH-BEAR LOVE  0000001000+00003507+00000+0001T   00003507+0000001312          1400 EM7515               2AZ
151964002151964903-000194     151964006009826020616SWT CHOC RP LOLLY 25G  0000001000+00001314+00000+0001T   00001314+0000001312          1400 EM7150               2AZ
151964003151964903-000200     151964006009826020234SWT CHOC RP CHOCO 23G  0000001000+00000788+00000+0001T   00000788+0000001312          1400 EM7150               2AZ
151964004151964077-000303     151964006001023593757GIFT-BAG PAPER MED     0000001000+00001578+00000+0001T   00001578+0000001312          1400 EM7112               2AZ
151964005151964112-116038     151964006009681820246TCS CARRIER BAG MIDI   0000001000+00000035+00000+0001T   00000035+0000001312          1400 EM7090               2AZ
151964006151964112-116069     151964006009681820277TCS CARRIER BAG JUMBO  0000001000+00000048+00000+0001T   00000048+0000001312          1400 EM7090               2AZ
151965000151965               151965               170213G4     1400+00000+G40000012215+0000012215+000000000+000001713+0000013920+0000000008+I20000000000+0000013920+Z
151965001151965903-000200     151965006009826020234SWT CHOC RP CHOCO 23G  0000002000+00000788+00000+0001T   00000788+0000001314          1400 EM7150               2AZ
151965002151965077-000303     151965006001023593757GIFT-BAG PAPER MED     0000001000+00001578+00000+0001T   00001578+0000001314          1400 EM7112               2AZ
151965003151965903-000194     151965006009826020616SWT CHOC RP LOLLY 25G  0000001000+00001314+00000+0001T   00001314+0000001314          1400 EM7150               2AZ
151965004151965018-000130     151965006001023867537MUG OCC LOVE MINI+HEART0000001000+00003507+00000+0001T   00003507+0000001314          1400 EM7515               2AZ
151965005151965903-000151     151965006009803374411SWT SML RND R/BOW LOLLY0000001000+00000525+00000+0001T   00000525+0000001314          1400 EM7150               2AZ
151965006151965903-000200     151965006009826020234SWT CHOC RP CHOCO 23G  0000001000+00000788+00000+0001T   00000788+0000001314          1400 EM7150               2AZ
151965007151965018-000170     151965006001023775528MUG OCC. LOVE 2PC MINI 0000001000+00002192+00000+0001T   00002192+0000001314          1400 EM7515               2AZ
151965008151965903-000120     151965006002099001665SWEET GS ZILLIONS 50g  0000001000+00000700+00000+0001T   00000700+0000001314          1400 EM7150               2AZ
151965009151965112-116038     151965006009681820246TCS CARRIER BAG MIDI   0000001000+00000035+00000+0001T   00000035+0000001314          1400 EM7090               2AZ
151966000151966               151966               170213G4     1400+00000+G40000012278+0000012278+000000000+000001720+0000013998+0000000000+I40000013998+0000000000+Z
151966001151966567-075497     151966009780799381658BK NOVEL ROMANCE AFR   0000001000+00006139+00000+0001T   00006139+0000001353          1400 EM7757               2AZ
151966002151966567-075497     151966009780799381672BK NOVEL ROMANCE AFR   0000001000+00006139+00000+0001T   00006139+0000001353          1400 EM7757               2AZ
151967000151967               151967               170213G4     1400+00000+G40000011402+0000011402+000000000+000001597+0000012999+0000000000+I40000012999+0000000000+Z
151967001151967586-098616     151967006001492986166WATCH TEEN CHARM HRT   0000001000+00011402+00000+0001T   00011402+0000001354          1400 EM7160               2AZ
151968000151968               151968               170213G4     1400+00000+G40000016712+0000016712+000000000+000002341+0000019050+0000000003+I20000000000+0000019050+Z
151968001151968368-000111     151968006001023780812PLUSH BEAR/DOG 29CM    0000001000+00012279+00000+0001T   00012279+0000001355          1400 EM7745               2AZ
151968002151968368-000001     151968006003000097982Plush Bear 25cm        0000001000+00004385+00000+0001T   00004385+0000001355          1400 EM7745               2AZ
151968003151968112-116069     151968006009681820277TCS CARRIER BAG JUMBO  0000001000+00000048+00000+0001T   00000048+0000001355          1400 EM7090               2AZ
151969000151969               151969               170213G4     1400+00000+G40000003542+0000003542+000000000+000000496+0000004030+0000000008+I20000000000+0000004030+Z
151969001151969018-000130     151969006001023867537MUG OCC LOVE MINI+HEART0000001000+00003507+00000+0001T   00003507+0000001356          1400 EM7515               2AZ
151969002151969112-116038     151969006009681820246TCS CARRIER BAG MIDI   0000001000+00000035+00000+0001T   00000035+0000001356          1400 EM7090               2AZ
151970000151970               151970               170213G4     1400+00000+G40000019730+0000019730+000000000+000002763+0000022490+0000000003+I20000000000+0000022490+Z
151970001151970072-020278     151970006003000024100PET CAT LITTER PAN PL  0000002000+00003507+00000+0001T   00003507+0000001404          1400 EM7870               2AZ
151970002151970047-000512-H   151970006001023657473EXT-CORD 3m DBL-J   H&H0000001000+00006578+00000+0001T   00006578+0000001404          1400 EM7880               2AZ
151970003151970024-000040     151970006001023332509MEASURING-JUG 2.00L    0000002000+00003069+00000+0001T   00003069+0000001404          1400 EM7300               2AZ
151971000151971               151971               170213G4     1400+00000+G40000001753+0000001753+000000000+000000246+0000001990+0000000009+I20000000000+0000001990+Z
151971001151971903-000612     151971006003000617449SWT TRUMPET 20cm       0000001000+00001753+00000+0001T   00001753+0000001406          1400 EM7150               2AZ
151972000151972               151972               170213G4     1400+00000+G40000001051+0000001051+000000000+000000148+0000001190+0000000009+I20000000000+0000001190+Z
151972001151972007-000119     151972006002324004126BOOK COVER PL          0000001000+00001051+00000+0001T   00001051+0000001500          1400 EM7130               2AZ
151973000151973               151973               170213G4     1400+00000+G40000018892+0000018892+000000000+000002653+0000021540+0000000005+I20000000000+0000021540+Z
151973001151973112-116069     151973006009681820277TCS CARRIER BAG JUMBO  0000001000+00000048+00000+0001T   00000048+0000001610          1400 EM7090               2AZ
151973002151973024-001248     151973006001023759146N/STICK CAKE-MOLD ROUND0000001000+00012279+00000+0001T   00012279+0000001610          1400 EM7300               2AZ
151973003151973903-000011     151973006002099007315SWT MALLOW CHOC 15G    0000005000+00000437+00000+0001T   00000437+0000001610          1400 EM7150               2AZ
151973004151973903-000012     151973006002099007308SWT MALLOW S/BERRY     0000002000+00000437+00000+0001T   00000437+0000001610          1400 EM7150               2AZ
151973005151973009-001700     151973006001023807618MUG 250ml SWIRL DESIGN 0000001000+00001753+00000+0001T   00001753+0000001610          1400 EM7210               2AZ
151973006151973009-001300     151973006003000135059MELAMINE MUG 250ml     0000001000+00001753+00000+0001T   00001753+0000001610          1400 EM7210               2AZ
151974000151974               151974               170213G4     1400+00000+G40000004647+0000004647+000000000+000000651+0000005290+0000000008+I20000000000+0000005290+Z
151974001151974200-000060     151974006001023625762STRAWS 18cm FLEX 200PCE0000001000+00002455+00000+0001T   00002455+0000001610          1400 EM7214               2AZ
151974002151974071-000672     151974006003000138975STATIONERY CLIPS PAPER 0000001000+00002192+00000+0001T   00002192+0000001610          1400 EM7130               2AZ
151975000151975               151975               170213G4     1400+00000+G40000005085+0000005085+000000000+000000712+0000005797+0000000000+I40000005797+0000000000+Z
151975001151975018-005009     151975006001023725608MUG W/PLUSH-BEAR LOVE  0000001000+00003507+00000+0001T   00003507+0000001612          1400 EM7515               2AZ
151975002151975077-000303     151975006001023593757GIFT-BAG PAPER MED     0000001000+00001578+00000+0001T   00001578+0000001612          1400 EM7112               2AZ
151976000151976               151976               170213G4     1400+00000+G40000003946+0000003946+000000000+000000553+0000004490+0000000009+I20000000000+0000004490+Z
151976001151976024-000002     151976006001023741899S/BURNER-COVER SILV/BLK0000001000+00003946+00000+0001T   00004385+0008191655          1400 EM7300               2AZ
151977000151977               151977               170213G4     1400+00000+G40000010958+0000010958+000000000+000001535+0000012490+0000000003+I20000000000+0000012490+Z
151977001151977018-005009     151977006001023725608MUG W/PLUSH-BEAR LOVE  0000001000+00003507+00000+0001T   00003507+0000001657          1400 EM7515               2AZ
151977002151977162-097718     151977006001492977188#TAG CHARM BRACELET    0000001000+00003507+00000+0001T   00003507+0000001657          1400 EM7160               2AZ
151977003151977162-089199     151977006001492891996SS KIDS BEADED N/WEAR  0000001000+00002630+00000+0001T   00002630+0000001657          1400 EM7160               2AZ
151977004151977077-000310     151977006001023608635GIFT-BAG 18X23CM GLOSS 0000001000+00001314+00000+0001T   00001314+0000001657          1400 EM7112               2AZ
151978000151978               151978               170213G4     1400+00000+G40000006139+0000006139+000000000+000000860+0000006990+0000000009+I20000000000+0000006990+Z
151978001151978004-079102     151978006003000605033USB POWER BANK 1200MAH 0000001000+00006139+00000+0001T   00006139+0000001722          1400 EM7310               2AZ
151979000151979               151979               170213G4     1400+00000+G40000007016+0000007016+000000000+000000983+0000007990+0000000009+I20000000000+0000007990+Z
151979001151979004-071215     151979006003000459360MOBILE SELFI STICK 80cm0000001000+00007016+00000+0001T   00007016+0000001725          1400 EM7310               2AZ
151980000151980               151980               170213G4     1400+00000+G40000001578+0000001578+000000000+000000221+0000001790+0000000009+I20000000000+0000001790+Z
151980001151980077-000303     151980006001023593757GIFT-BAG PAPER MED     0000001000+00001578+00000+0001T   00001578+0000001726          1400 EM7112               2AZ
151981000151981               151981               170213G4     1400+00000+G40000002630+0000002630+000000000+000000369+0000002999+0000000000+I40000002999+0000000000+Z
151981001151981567-075466     151981009780263920635BK NOVEL ROMANCE       0000001000+00002630+00000+0001T   00002630+0000001728          1400 EM7757               2AZ
151982000151982               151982               170213G4     1400+00000+G40000009764+0000009764+000000000+000001369+0000011133+0000000000+I40000011133+0000000000+Z
151982001151982903-000295     151982006001704002899SWT MS FRUITY RASCALS  0000001000+00000876+00000+0001T   00000876+0000001737          1400 EM7150               2AZ
151982002151982903-000504     151982006001704012416SWT CHOC JELLY BEANS   0000001000+00001227+00000+0001T   00001227+0000001737          1400 EM7150               2AZ
151982003151982903-000521     151982006001704009652SWT GUMMY SOFT GUMS    0000001000+00000876+00000+0001T   00000876+0000001737          1400 EM7150               2AZ
151982004151982903-000848     151982008692806080076SWT SNACK BISCUIT 70g  0000001000+00000613+00000+0001T   00000613+0000001737          1400 EM7150               2AZ
151982005151982903-003080     151982005907029004673SWT SNACK STIX CHOC 50g0000002000+00000876+00000+0001T   00000876+0000001737          1400 EM7150               2AZ
151982006151982018-030000     151982006003000421060MUG OCCASIONS LOVE 2PCE0000001000+00004385+00000+0001T   00004385+0000001737          1400 EM7515               2AZ
151982007151982112-116038     151982006009681820246TCS CARRIER BAG MIDI   0000001000+00000035+00000+0001T   00000035+0000001737          1400 EM7090               2AZ
151983000151983               151983               170213G4     1400+00000+G40000005346+0000005346+000000000+000000749+0000006090+0000000005+I20000000000+0000006090+Z
151983001151983301-085004     151983006003000420469ORN LOVE PLAQUE 21X10CM0000001000+00003507+00000+0001T   00003946+0006471738          1400 EM7505               2AZ
151983002151983304-001011     151983006001023806727FLWR ROSE RED W/BEAR   0000003000+00000613+00000+0001T   00000788+0006471738          1400 EM7510               2AZ
151984000151984               151984               170213G4     1400+00000+G40000003730+0000003730+000000000+000000523+0000004250+0000000003+I20000000000+0000004250+Z
151984001151984304-001011     151984006001023806727FLWR ROSE RED W/BEAR   0000001000+00000613+00000+0001T   00000788+0006471807          1400 EM7510               2AZ
151984002151984301-085008     151984006003000673933ORN OCC.LOVE TINSEL HRT0000001000+00003069+00000+0001T   00003069+0000001807          1400 EM7505               2AZ
151984003151984112-116069     151984006009681820277TCS CARRIER BAG JUMBO  0000001000+00000048+00000+0001T   00000048+0000001807          1400 EM7090               2AZ
151985000151985               151985               170213G4     1400+00000+G40000003069+0000003069+000000000+000000430+0000003490+0000000009+I20000000000+0000003490+Z
151985001151985106-000899     151985006003000653287WTR BOTTLE 2L W/HANDLE 0000001000+00003069+00000+0001T   00003507+0008191814          1400 EM7210               2AZ
M17021391                              CASH        G4SLAVE 2                       Z-REPORT No.   552TOTAL (Sales - Refunds)           4011.78       CASH TO BE BANKED                 3394.60       DEBIT CARDS                          0.00       CREDIT CARDS                       617.18       Z-READING                         4011.78       AIRTIME DEBIT CARD SALES             0.00       AIRTIME CARD SALES                   0.00       OVERS/UNDERS                         0.00       AIRTIME CASH SALES                   0.00       GIFT CARDS                           0.00       GIFT CARD CASH SALES                 0.00       T O T A L  CASH PAYOUTS              0.00                                                                                                                                                                                                                                                                                                                                                      Z
M17021392                              CASH        G4ABSENT                                                                                                                                                                                          ANNUAL LEAVE                                                                                                                                                                                    DAY OFF                                                                                                                                                                                         COMMENTS                                                                                                                                                                                                                                                                                                                                                                                       Z
Y17021300                                          G400000000354735+000046
ZG417021321073 SLAVE 2      SALES DATA                     NEXT INVOICE NO.  151986 0552
X G4 Slave 2 First invoice 151937 170213 Last invoice 151985 170213 Next invoice 151986 Total number of records 000000176 clbackup completed 21:07:53
