177861000177861               177861               170213G4     1400+00000+G40000232459+0000232459+000000000+000032573+0000265032+           I90000000000+0000000000+Z
177861001177861104-000037     177861006003000433162BASKET PL W/HOOKS      0000001000+00001753+00000+0001T032930990000                    1400 1IC2101ICV             Z
177861002177861562-006269     177861006001023658647BOARD EASY-WRITER+PEN  0000001000+00014911+00000+0001T032930990000                    1400 1IC7551ICV             Z
177861003177861012-000024     177861006003000580897MICROWAVE HOT PLATE    0000001000+00004385+00000+0001T032930990000                    1400 1IC3001ICV             Z
177861004177861368-000630     177861006001023831163PLUSH WORM ASSTD 40CM  0000002000+00012279+00000+0001T032930990000                    1400 1IC7451ICV             Z
177861005177861048-000835     177861006001023765178TORCH RUBBER 3LED LARGE0000001000+00004385+00000+0001T032930990000                    1400 1IC3051ICV             Z
177861006177861048-000826     177861006001023753045TORCH LED W/ZOOM SMALL 0000001000+00003507+00000+0001T032930990000                    1400 1IC3051ICV             Z
177861007177861369-001024     177861006001023756817BABY-RATTLE 2ASSTD DSGN0000001000+00005262+00000+0001T032930990000                    1400 1IC7451ICV             Z
177861008177861018-000129     177861006001023403353MUG OCC. LOVE V-SHAPE  0000001000+00002630+00000+0001T032930990000                    1400 1IC5151ICV             Z
177861009177861586-010751     177861006001492107516WATCH HOT DEAL ASST    0000001000+00007016+00000+0001T032930990000                    1400 1IC1601ICV             Z
177861010177861586-010656     177861006001492106564WATCH BOYS SPORT CANVAS0000001000+00008771+00000+0001T032930990000                    1400 1IC1601ICV             Z
177861011177861104-000010     177861006001023507822BASKET 30x23cm RECT.   0000002000+00001753+00000+0001T032930990000                    1400 1IC2101ICV             Z
177861012177861162-087855     177861006001492878553SS LARGE GOLD HOOP     0000001000+00000437+00000+0001T032930990000                    1400 1IC1601ICV             Z
177861013177861018-000200     177861006001023816573M/DAILY V-SHAPE PSYCH  0000001000+00001753+00000+0001T032930990000                    1400 1IC5151ICV             Z
177861014177861018-000200     177861006001023816573M/DAILY V-SHAPE PSYCH  0000001000+00001753+00000+0001T032930990000                    1400 1IC5151ICV             Z
177861015177861018-000022     177861006001023648082MUG N/BONE 320ML BARREL0000002000+00002630+00000+0001T032930990000                    1400 1IC5151ICV             Z
177861016177861018-000055     177861006003000086498SOUP-MUG CER. SOLD COL.0000001000+00002630+00000+0001T032930990000                    1400 1IC5151ICV             Z
177861017177861018-005035     177861006003000150700MUG NOVELTY CER 3-HNDLE0000001000+00003507+00000+0001T032930990000                    1400 1IC5151ICV             Z
177861018177861015-000110     177861006001023854889WHITEWARE MUG 350ML    0000007000+00002192+00000+0001T032930990000                    1400 1IC5151ICV             Z
177861019177861028-000031     177861006003000270897COOLER-BAG THERMAL 6PK 0000001000+00003507+00000+0001T032930990000                    1400 1IC3051ICV             Z
177861020177861019-000103     177861006003000280957VASE GLASS BUD 14CM ASS0000001000+00001753+00000+0001T032930990000                    1400 1IC5101ICV             Z
177861021177861046-000400     177861006001023804983BATT ALKALINE 1.5Vx30PC0000002000+00003244+00000+0001T032930990000                    1400 1IC3121ICV             Z
177861022177861266-000029     177861006003000022298FOAM ROCK ZOOMER W/LAUN0000001000+00007893+00000+0001T032930990000                    1400 1IC7101ICV             Z
177861023177861018-000200     177861006001023816573M/DAILY V-SHAPE PSYCH  0000001000+00001753+00000+0001T032930990000                    1400 1IC5151ICV             Z
177861024177861018-000129-A   177861006003000441396MUG CERAMIC JUMBO      0000001000+00005262+00000+0001T032930990000                    1400 1IC5151ICV             Z
177861025177861018-000022     177861006001023648082MUG N/BONE 320ML BARREL0000001000+00002630+00000+0001T032930990000                    1400 1IC5151ICV             Z
177861026177861018-017000     177861006003000541850MUG OCC. MOM JUMBO ASST0000001000+00005262+00000+0001T032930990000                    1400 1IC5151ICV             Z
177861027177861466-000607     177861006003000027620BALL VOLLEYBALL 19cm   0000001000+00007893+00000+0001T032930990000                    1400 1IC7851ICV             Z
177861028177861159-003605     177861006001023156242TOILET-BRUSH+STAND COLR0000001000+00004385+00000+0001T032930990000                    1400 1IC2001ICV             Z
177861029177861018-000215     177861006003000580217M/DAILY TULIP PORC LACE0000001000+00001753+00000+0001T032930990000                    1400 1IC5151ICV             Z
177861030177861018-000127     177861006001023380289MUG OCC STRAIGHT LOVE  0000001000+00001578+00000+0001T032930990000                    1400 1IC5151ICV             Z
177861031177861018-000200     177861006001023816573M/DAILY V-SHAPE PSYCH  0000001000+00001753+00000+0001T032930990000                    1400 1IC5151ICV             Z
177861032177861035-000001     177861006002596010566UMBRELLA LADIES W/MINI 0000001000+00006139+00000+0001T032930990000                    1400 1IC2051ICV             Z
177861033177861018-000205     177861006003000579976M/DAILY STRAIGHT SHAPE 0000001000+00001753+00000+0001T032930990000                    1400 1IC5151ICV             Z
177861034177861004-071202     177861006003000459025USB MULTIPLE CHARGER   0000001000+00005262+00000+0001T032930990000                    1400 1IC3101ICV             Z
177861035177861565-000049     177861006003000548156NOVELTY SLIME "BOOGERS"0000001000+00001490+00000+0001T032930990000                    1400 1IC7451ICV             Z
177861036177861003-000916     177861006001023861009ORN B/FEEDER HANGING   0000001000+00007016+00000+0001T032930990000                    1400 1IC5051ICV             Z
177861037177861040-000922     177861006001023587817CANDLE-HOLDER GLS 18cm 0000001000+00001753+00000+0001T032930990000                    1400 1IC5101ICV             Z
177861038177861051-600712     177861006003000604555S/GARDEN LIGHT CRYSTAL 0000001000+00007893+00000+0001T032930990000                    1400 1IC8201ICV             Z
177861039177861002-000047     177861006001023730107S/REST CER.28CM 2-ASSTD0000001000+00004385+00000+0001T032930990000                    1400 1IC3001ICV             Z
177861040177861204-000009     177861006003000577200MEMO HOLDER CUPCAKE    0000002000+00000876+00000+0001T032930990000                    1400 1IC3001ICV             Z
177861041177861018-000022     177861006001023648082MUG N/BONE 320ML BARREL0000001000+00002630+00000+0001T032930990000                    1400 1IC5151ICV             Z
177861042177861015-000110     177861006001023854889WHITEWARE MUG 350ML    0000001000+00002192+00000+0001T032930990000                    1400 1IC5151ICV             Z
177861043177861565-000734     177861006003000609987NOVELTY SAND W/MOULD   0000001000+00001753+00000+0001T032930990000                    1400 1IC7451ICV             Z
177861044177861113-000002     177861006003000451456TRAVEL MUG PL 350ml    0000001000+00003069+00000+0001T032930990000                    1400 1IC3051ICV             Z
177861045177861564-000035     177861006003000301836BUBBLE NOVELTY SWORD   0000001000+00001753+00000+0001T032930990000                    1400 1IC1311ICV             Z
177861046177861565-000001     177861006003000307951NOVELTY INSECT BALL    0000001000+00002630+00000+0001T032930990000                    1400 1IC7451ICV             Z
177861047177861015-000110     177861006001023854889WHITEWARE MUG 350ML    0000001000+00002192+00000+0001T032930990000                    1400 1IC5151ICV             Z
177861048177861162-096855     177861006001492968551#TAG KIDS EARING DROP  0000001000+00002630+00000+0001T032930990000                    1400 1IC1601ICV             Z
177861049177861003-000101     177861006001023438935ORN ANIMAL WELCOME 10CM0000001000+00003507+00000+0001T032930990000                    1400 1IC5051ICV             Z
177861050177861071-081110     177861006936198405454CORRECTION FLUID PEN   0000001000+00001490+00000+0001T032930990000                    1400 1IC1301ICV             Z
177861051177861301-000163     177861006001023716262ORN SENTIMENT P/FRAME  0000001000+00004385+00000+0001T032930990000                    1400 1IC5051ICV             Z
177861052177861261-003822     177861006003000655649GUN RIFLE "CORK" 4 cm  0000001000+00003507+00000+0001T032930990000                    1400 1IC7101ICV             Z
177862000177862               177862               170213G4     1400+00000+G40000003147+0000003147+000000000+000000446+0000003593+           I90000000000+0000000000+Z
177862001177862903-000155     177862006009803374435SWT LOLLY I LUV U HEART0000003000+00000525+00000+0001T032931040000                    1400 1IC1501ICV             Z
177862002177862903-000183     177862006003000451043SWT LB HEART LOLLY     0000004000+00000393+00000+0001T032931040000                    1400 1IC1501ICV             Z
177863000177863               177863               170213G4     1400+00000+G40000034356+0000034356+000000000+000004816+0000039172+           I90000000000+0000000000+Z
177863001177863903-000519     177863006001704012805SWT MS LIQ-O-GHETTI    0000009000+00001227+00000+0001T072931050000                    1400 1IC1501ICV             Z
177863002177863903-000518     177863006001704012782SWT STRAWS S/BERRY 100g0000015000+00001227+00000+0001T072931050000                    1400 1IC1501ICV             Z
177863003177863903-000517     177863006001704012768SWT STRAWS FIZZY CHERRY0000004000+00001227+00000+0001T072931050000                    1400 1IC1501ICV             Z
177864000177864               177864               170213G4     1400+00000+G40000010169+0000010169+000000000+000001426+0000011595+           I90000000000+0000000000+Z
177864001177864034-078800     177864006001023856555COOEY WET-WIPES 60PCE  0000003000+00001753+00000+0001T072931060000                    1400 1IC2151ICV             Z
177864002177864034-078805     177864006001023994097BABY W/WIPES 55PCE LACE0000002000+00002455+00000+0001T072931060000                    1400 1IC2151ICV             Z
M17021391                              CASH        G4SLAVE 4                       Z-REPORT No.   507TOTAL (Sales - Refunds)              0.00       CASH TO BE BANKED                    0.00       DEBIT CARDS                          0.00       CREDIT CARDS                         0.00       Z-READING                            0.00       AIRTIME DEBIT CARD SALES             0.00       AIRTIME CARD SALES                   0.00       OVERS/UNDERS                         0.00       AIRTIME CASH SALES                   0.00       GIFT CARDS                           0.00       GIFT CARD CASH SALES                 0.00       T O T A L  CASH PAYOUTS              0.00                                                                                                                                                                                                                                                                                                                                                      Z
M17021392                              CASH        G4ABSENT                                                                                                                                                                                          ANNUAL LEAVE                                                                                                                                                                                    DAY OFF                                                                                                                                                                                         COMMENTS                                                                                                                                                                                                                                                                                                                                                                                       Z
Y17021300                                          G400000000000000+000000
ZG417021321083 SLAVE 4      SALES DATA                     NEXT INVOICE NO.  177865 0507
X G4 Slave 4 First invoice 177861 170213 Last invoice 177864 170213 Next invoice 177865 Total number of records 000000067 clbackup completed 21:08:00
