703257000703257               703257               170213GA     1400+00000+GA0000003507+0000003507+000000000+000000491+0000003990+0000000008+I20000000000+0000003990+Z
703257001703257105-001000     703257006003000520275CONTAINER:CEREAL TO GO 0000001000+00003507+00000+0001T   00004823+0008160908          1400 HR6210               1AZ
703258000703258               703258               170213GA     1400+00000+GA0000001753+0000001753+000000000+000000246+0000001990+0000000009+I20000000000+0000001990+Z
703258001703258072-020359     703258006003000399758PET DOG/CAT BOWL SMALL 0000001000+00001753+00000+0001T   00001753+0000000922          1400 HR6870               1AZ
703259000703259               703259               170213GA     1400+00000+GA0000003585+0000003585+000000000+000000508+0000004093+0000000000+I40000004093+0000000000+Z
703259001703259077-000245     703259006001023759214GIFT-RIBBON METALLICx2 0000001000+00001227+00000+0001T   00001227+0000000933          1400 HR6112               1AZ
703259002703259903-000183     703259006003000451043SWT LB HEART LOLLY     0000006000+00000393+00000+0001T   00000393+0000000933          1400 HR6150               1AZ
703260000703260               703260               170213GA     1400+00000+GA0000002102+0000002102+000000000+000000296+0000002390+0000000008+I20000000000+0000002390+Z
703260001703260039-000020     703260006003000285785CANDLE BASIC 25CM GOLD 0000002000+00001051+00000+0001T   00001051+0000000949          1400 HR6510               1AZ
703261000703261               703261               170213GA     1400+00000+GA0000001753+0000001753+000000000+000000246+0000001990+0000000009+I20000000000+0000001990+Z
703261001703261077-000309     703261006001023608604GIFT-BAG 25X32CM GLOSS 0000001000+00001753+00000+0001T   00001753+0000001146          1400 HR6112               1AZ
703262000703262               703262               170213GA     1400+00000+GA0000004385+0000004385+000000000+000000614+0000004990+0000000009+I20000000000+0000004990+Z
703262001703262050-000887-TS  703262006003000688210PADLOCK COMBO 35mm 8DIG0000001000+00004385+00000+0001T   00004385+0000001151          1400 HR6855               1AZ
703263000703263               703263               170213GA     1400+00000+GA0000000035+0000000035+000000000+000000005+0000000040+0000000000+I20000000000+0000000040+Z
703263001703263112-116038     703263006003000534906TCS CARRIER BAG MIDI   0000001000+00000035+00000+0001T   00000035+0000001151          1400 HR6090               1AZ
703264000703264               703264               170213GA     1400+00000+GA0000001613+0000001613+000000000+000000226+0000001830+0000000009+I20000000000+0000001830+Z
703264001703264018-000127     703264006001023380289MUG OCC STRAIGHT LOVE  0000001000+00001578+00000+0001T   00001753+0006471204          1400 HR6515               1AZ
703264002703264112-116038     703264006003000534906TCS CARRIER BAG MIDI   0000001000+00000035+00000+0001T   00000035+0000001204          1400 HR6090               1AZ
703265000703265               703265               170213GA     1400+00000+GA0000001139+0000001139+000000000+000000160+0000001290+0000000009+I20000000000+0000001290+Z
703265001703265903-000087     703265006001704000161SWT SPECKLED-EGGS 50G  0000001000+00001139+00000+0001T   00001139+0000001206          1400 HR6150               1AZ
703266000703266               703266               170213GA     1400+00000+GA0000004547+0000004547+000000000+000000638+0000005185+0000000000+I40000005185+0000000000+Z
703266001703266031-000002-A   703266006003000247103P/FRAME LOVE 7.5X7.5CM 0000001000+00003507+00000+0001T   00003507+0000001208          1400 HR6510               1AZ
703266002703266079-009700-B   703266006003000547661PAPER SIRIO A4 WHITE   0000002000+00000306+00000+0001T   00000306+0000001208          1400 HR6130               1AZ
703266003703266903-000183     703266006003000451043SWT LB HEART LOLLY     0000001000+00000393+00000+0001T   00000393+0000001208          1400 HR6150               1AZ
703266004703266112-116038     703266006003000534906TCS CARRIER BAG MIDI   0000001000+00000035+00000+0001T   00000035+0000001208          1400 HR6090               1AZ
703267000703267               703267               170213GA     1400+00000+GA0000002839+0000002839+000000000+000000398+0000003237+0000000000+I40000003237+0000000000+Z
703267001703267079-013102     703267006003000019601ART+CRAFT DIY PIPE-CLNR0000001000+00002192+00000+0001T   00002192+0000001212          1400 HR6130               1AZ
703267002703267079-009700-D   703267006003000545711PAPER SIRIO A4 RED COL.0000002000+00000306+00000+0001T   00000306+0000001212          1400 HR6130               1AZ
703267003703267112-116038     703267006003000534906TCS CARRIER BAG MIDI   0000001000+00000035+00000+0001T   00000035+0000001212          1400 HR6090               1AZ
703268000703268               703268               170213GA     1400+00000+GA0000014952+0000014952+000000000+000002096+0000017040+0000000008+I20000000000+0000017040+Z
703268001703268112-116069     703268006003000535064TCS CARRIER BAG JUMBO  0000001000+00000048+00000+0001T   00000048+0000001213          1400 HR6090               1AZ
703268002703268077-000270     703268006003000395453GIFT-BAG PPR JMB 33X45 0000001000+00002630+00000+0001T   00002630+0000001213          1400 HR6112               1AZ
703268003703268206-000260     703268006003000632183ICE TRAY BUILDING BLOCK0000001000+00003507+00000+0001T   00003507+0000001213          1400 HR6321               1AZ
703268004703268089-000099     703268006003000677566KEY CHAIN MTL SPORT AST0000001000+00000876+00000+0001T   00000876+0000001213          1400 HR6205               1AZ
703268005703268089-000030     703268006003000575671K/CHAIN LOVE MTL ASSTD 0000001000+00001753+00000+0001T   00001753+0000001213          1400 HR6205               1AZ
703268006703268031-080508     703268006001023802415P/FRAME PL 22X11CM LOVE0000001000+00004385+00000+0001T   00004385+0000001213          1400 HR6510               1AZ
703268007703268903-000619     703268006003000672455SWT LOLLY STR/BRRY 140G0000001000+00001753+00000+0001T   00001753+0000001213          1400 HR6150               1AZ
703269000703269               703269               170213GA     1400+00000+GA0000002455+0000002455+000000000+000000344+0000002790+0000000009+I20000000000+0000002790+Z
703269001703269071-003858     703269006001023902276STATIONERY SET PENCIL  0000001000+00002455+00000+0001T   00002455+0000001226          1400 HR6130               1AZ
703270000703270               703270               170213GA     1400+00000+GA0000016266+0000016266+000000000+000002279+0000018545+0000000000+I40000018545+0000000000+Z
703270001703270112-116069     703270006003000535064TCS CARRIER BAG JUMBO  0000001000+00000048+00000+0001T   00000048+0000001228          1400 HR6090               1AZ
703270002703270024-091103-E   703270006003000596300CAKE BOX 2PC SQUARE    0000001000+00001753+00000+0001T   00001753+0000001228          1400 HR6300               1AZ
703270003703270024-091106     703270006003000443130C/STAND PAPER 3-TIER   0000002000+00003507+00000+0001T   00003507+0000001228          1400 HR6300               1AZ
703270004703270024-091103     703270006003453014307BAKING-CUP MUFFIN 50PCE0000002000+00002192+00000+0001T   00002192+0000001228          1400 HR6300               1AZ
703270005703270903-000844     703270005010478432567SWT CANDY DL LUV HEARTS0000001000+00001314+00000+0001T   00001314+0000001228          1400 HR6150               1AZ
703270006703270024-091100     703270006001023914224BAKING-CUPS PAPER 100PC0000001000+00001753+00000+0001T   00001753+0000001228          1400 HR6300               1AZ
703271000703271               703271               170213GA     1400+00000+GA0000011401+0000011401+000000000+000001597+0000012998+0000000000+I40000012998+0000000000+Z
703271001703271077-000270     703271006003000395453GIFT-BAG PPR JMB 33X45 0000001000+00002630+00000+0001T   00002630+0000001230          1400 HR6112               1AZ
703271002703271031-000924     703271006001023669964P/FRAME COLLAGE PL     0000001000+00008771+00000+0001T   00008771+0000001230          1400 HR6510               1AZ
703272000703272               703272               170213GA     1400+00000+GA0000007014+0000007014+000000000+000000982+0000007996+0000000000+I40000007996+0000000000+Z
703272001703272018-005009     703272006001023725608MUG W/PLUSH-BEAR LOVE  0000002000+00003507+00000+0001T   00003507+0000001233          1400 HR6515               1AZ
703273000703273               703273               170213GA     1400+00000+GA0000006135+0000006135+000000000+000000861+0000006996+0000000000+I40000006996+0000000000+Z
703273001703273251-000012     703273006001023597915TAPE DUCT GREY 48mmx5m 0000001000+00002630+00000+0001T   00002630+0000001235          1400 HR6810               1AZ
703273002703273080-000500     703273006001023846211CARD&ENV 6PK GLITTER   0000001000+00001753+00000+0001T   00001753+0000001235          1400 HR6112               1AZ
703273003703273903-000913     703273007501186882341SWT LOLLIPOP BARBIE    0000002000+00000876+00000+0001T   00000876+0000001235          1400 HR6150               1AZ
703274000703274               703274               170213GA     1400+00000+GA0000000437+0000000437+000000000+000000062+0000000490+0000000009+I20000000000+0000000490+Z
703274001703274080-000133     703274006003000535613CARD&ENV MINI ASTD DSGN0000001000+00000437+00000+0001T   00000437+0000001237          1400 HR6112               1AZ
703275000703275               703275               170213GA     1400+00000+GA0000019709+0000019709+000000000+000002763+0000022472+0000000000+I40000022472+0000000000+Z
703275001703275112-116053     703275006006438002399TCS CARRIER BAG 38L    0000001000+00000069+00000+0001T   00000069+0000001241          1400 HR6090               1AZ
703275002703275079-014152     703275006003000253074ART+CRAFT PK50 ASSTD   0000001000+00003069+00000+0001T   00003069+0000001241          1400 HR6130               1AZ
703275003703275007-000323     703275006009697791042PAPER A4 80GSM 100'S   0000001000+00006139+00000+0001T   00006139+0000001241          1400 HR6130               1AZ
703275004703275030-000031-A   703275006003000457588PLAQUE W/WORDS ASSTD   0000001000+00004385+00000+0001T   00004823+0006471241          1400 HR6505               1AZ
703275005703275079-130100     703275006003000542635A&C DIY COLOUR EYES 24P0000001000+00001490+00000+0001T   00001490+0000001241          1400 HR6130               1AZ
703275006703275903-002851     703275000000087108538MENTOS ROLL STRAWBERRY 0000001000+00001051+00000+0001T   00001051+0000001241          1400 HR6150               1AZ
703275007703275077-000289     703275006001023901996GIFT BOX 20x25x11cm    0000002000+00001753+00000+0001T   00001753+0000001241          1400 HR6112               1AZ
703276000703276               703276               170213GA     1400+00000+GA0000002665+0000002665+000000000+000000374+0000003030+0000000009+I20000000000+0000003030+Z
703276001703276018-000129     703276006001023403353MUG OCC. LOVE V-SHAPE  0000001000+00002630+00000+0001T   00002630+0000001241          1400 HR6515               1AZ
703276002703276112-116038     703276006003000534906TCS CARRIER BAG MIDI   0000001000+00000035+00000+0001T   00000035+0000001241          1400 HR6090               1AZ
703277000703277               703277               170213GA     1400+00000+GA0000009680+0000009680+000000000+000001356+0000011030+0000000006+I20000000000+0000011030+Z
703277001703277204-000008     703277006003000567652MEMO HLDR MOM POLY     0000001000+00004385+00000+0001T   00004385+0000001243          1400 HR6300               1AZ
703277002703277301-000827     703277006001023872692ORN FAIRY MINI IN-BAG  0000001000+00003946+00000+0001T   00003946+0000001243          1400 HR6505               1AZ
703277003703277112-116038     703277006003000534906TCS CARRIER BAG MIDI   0000001000+00000035+00000+0001T   00000035+0000001243          1400 HR6090               1AZ
703277004703277903-000194     703277006009826020616SWT CHOC RP LOLLY 25G  0000001000+00001314+00000+0001T   00001314+0000001243          1400 HR6150               1AZ
703278000703278               703278               170213GA     1400+00000+GA0000006576+0000006576+000000000+000000922+0000007490+0000000008+I20000000000+0000007490+Z
703278001703278077-000309     703278006001023608604GIFT-BAG 25X32CM GLOSS 0000001000+00001753+00000+0001T   00001753+0000001244          1400 HR6112               1AZ
703278002703278046-000012-VP  703278006003000537914BATTERIES H/P SIZE:AA  0000001000+00004823+00000+0001T   00004823+0000001244          1400 HR6312               1AZ
703279000703279               703279               170213GA     1400+00000+GA0000019717+0000019717+000000000+000002763+0000022480+0000000000+I40000022480+0000000000+Z
703279001703279903-000183     703279006003000451043SWT LB HEART LOLLY     0000001000+00000393+00000+0001T   00000393+0000001246          1400 HR6150               1AZ
703279002703279903-000151     703279006009803374411SWT SML RND R/BOW LOLLY0000002000+00000525+00000+0001T   00000525+0000001246          1400 HR6150               1AZ
703279003703279030-000031-A   703279006003000457588PLAQUE W/WORDS ASSTD   0000001000+00004385+00000+0001T   00004823+0006471246          1400 HR6505               1AZ
703279004703279301-085004     703279006003000420469ORN LOVE PLAQUE 21X10CM0000001000+00003507+00000+0001T   00003946+0006471246          1400 HR6505               1AZ
703279005703279030-004070     703279006003000674381P/WDN SIGN 12X20CM ASS 0000001000+00003507+00000+0001T   00003507+0000001246          1400 HR6505               1AZ
703279006703279077-000315     703279006003000181186GIFT-BAG 20x28cm MATT  0000001000+00001578+00000+0001T   00001578+0000001246          1400 HR6112               1AZ
703279007703279112-116038     703279006003000534906TCS CARRIER BAG MIDI   0000001000+00000035+00000+0001T   00000035+0000001246          1400 HR6090               1AZ
703279008703279085-007024     703279006001023870926P/KNIFE 15-FUNCTION RED0000001000+00005262+00000+0001T   00005262+0000001246          1400 HR6305               1AZ
703280000703280               703280               170213GA     1400+00000+GA0000000788+0000000788+000000000+000000111+0000000890+0000000009+I20000000000+0000000890+Z
703280001703280903-000200     703280006009826020234SWT CHOC RP CHOCO 23G  0000001000+00000788+00000+0001T   00000788+0000001247          1400 HR6150               1AZ
703281000703281               703281               170213GA     1400+00000+GA0000005426+0000005426+000000000+000000761+0000006187+0000000000+I40000006187+0000000000+Z
703281001703281368-000049     703281006003000536955PLUSH BEAR 15cm LOVE   0000001000+00004385+00000+0001T   00004385+0000001249          1400 HR6745               1AZ
703281002703281903-000183     703281006003000451043SWT LB HEART LOLLY     0000001000+00000393+00000+0001T   00000393+0000001249          1400 HR6150               1AZ
703281003703281077-000311     703281006001023608666GIFT-BAG 11X14CM GLOSS 0000001000+00000613+00000+0001T   00000613+0000001249          1400 HR6112               1AZ
703281004703281112-116038     703281006003000534906TCS CARRIER BAG MIDI   0000001000+00000035+00000+0001T   00000035+0000001249          1400 HR6090               1AZ
703282000703282               703282               170213GA     1400+00000+GA0000006923+0000006923+000000000+000000970+0000007890+0000000003+I20000000000+0000007890+Z
703282001703282030-000040     703282006003000396375PLAQUE WDN HANGING HRTS0000001000+00003069+00000+0001T   00003069+0000001250          1400 HR6505               1AZ
703282002703282077-000311     703282006001023608666GIFT-BAG 11X14CM GLOSS 0000002000+00000613+00000+0001T   00000613+0000001250          1400 HR6112               1AZ
703282003703282903-000844     703282005010478432567SWT CANDY DL LUV HEARTS0000002000+00001314+00000+0001T   00001314+0000001250          1400 HR6150               1AZ
703283000703283               703283               170213GA     1400+00000+GA0000028895+0000028895+000000000+000004051+0000032946+0000000000+I40000032946+0000000000+Z
703283001703283903-000183     703283006003000451043SWT LB HEART LOLLY     0000002000+00000393+00000+0001T   00000393+0000001253          1400 HR6150               1AZ
703283002703283077-000011-D   703283006001023808554TISSUE-WRAP WHITE 10PCE0000001000+00000876+00000+0001T   00000876+0000001253          1400 HR6112               1AZ
703283003703283077-000299-A   703283006003000670888GIFT-BAG PAPER JMB LOVE0000001000+00001753+00000+0001T   00001753+0000001253          1400 HR6112               1AZ
703283004703283112-116069     703283006003000535064TCS CARRIER BAG JUMBO  0000001000+00000048+00000+0001T   00000048+0000001253          1400 HR6090               1AZ
703283005703283001-091415     703283006003000329113W/GLS OCC. LOVE 2PC 2800000001000+00008771+00000+0001T   00009648+0006471253          1400 HR6515               1AZ
703283006703283089-060027     703283006003000245871KEY-CHAIN HEART 6X6cm  0000001000+00003069+00000+0001T   00003069+0000001253          1400 HR6205               1AZ
703283007703283301-085001     703283006003000297610ORN WATERBALL LOVE ASST0000001000+00004823+00000+0001T   00004823+0000001253          1400 HR6505               1AZ
703283008703283565-000043     703283006003000109562NOVELTY BALL FUNNY FACE0000001000+00001753+00000+0001T   00001753+0000001253          1400 HR6745               1AZ
703283009703283203-000006     703283006001023752789COASTER-SET 4PCE       0000001000+00007016+00000+0001T   00008771+0008191253          1400 HR6300               1AZ
703284000703284               703284               170213GA     1400+00000+GA0000003023+0000003023+000000000+000000425+0000003440+0000000008+I20000000000+0000003440+Z
703284001703284565-000040     703284006008766115635NOVELTY ICON BEANIE    0000001000+00002630+00000+0001T   00002630+0000001253          1400 HR6745               1AZ
703284002703284903-000183     703284006003000451043SWT LB HEART LOLLY     0000001000+00000393+00000+0001T   00000393+0000001253          1400 HR6150               1AZ
703285000703285               703285               170213GA     1400+00000+GA0000000876+0000000876+000000000+000000123+0000000999+0000000000+I40000000999+0000000000+Z
703285001703285077-000151     703285006008766114676GIFT-WRAP C/PHANE ASSTD0000001000+00000876+00000+0001T   00000876+0000001255          1400 HR6112               1AZ
703286000703286               703286               170213GA     1400+00000+GA0000018431+0000018431+000000000+000002581+0000021010+0000000002+I20000000000+0000021010+Z
703286001703286903-000844     703286005010478432567SWT CANDY DL LUV HEARTS0000014000+00001314+00000+0001T   00001314+0000001259          1400 HR6150               1AZ
703286002703286112-116038     703286006003000534906TCS CARRIER BAG MIDI   0000001000+00000035+00000+0001T   00000035+0000001259          1400 HR6090               1AZ
703287000703287               703287               170213GA     1400+00000+GA0000013140+0000013140+000000000+000001840+0000014980+0000000000+I20000000000+0000014980+Z
703287001703287903-000844     703287005010478432567SWT CANDY DL LUV HEARTS0000010000+00001314+00000+0001T   00001314+0000001301          1400 HR6150               1AZ
703288000703288               703288               170213GA     1400+00000+GA0000008796+0000008796+000000000+000001233+0000010020+0000000009+I20000000000+0000010020+Z
703288001703288903-000897     703288008692806325207SWT CHOC DBL MINI ROLL 0000002000+00000876+00000+0001T   00000876+0000001325          1400 HR6150               1AZ
703288002703288018-000177     703288006001023797513MUG MINI LOVE ASSTD    0000002000+00000700+00000+0001T   00000700+0000001325          1400 HR6515               1AZ
703288003703288018-000136     703288006001023659026MUG OCC LOVE W/PLUSH   0000001000+00003507+00000+0001T   00003507+0000001325          1400 HR6515               1AZ
703288004703288077-000311     703288006001023608666GIFT-BAG 11X14CM GLOSS 0000002000+00000613+00000+0001T   00000613+0000001325          1400 HR6112               1AZ
703288005703288077-000408     703288006003000145218G/BAG PP 15X21X7CM     0000001000+00000876+00000+0001T   00000876+0000001325          1400 HR6112               1AZ
703288006703288112-116038     703288006003000534906TCS CARRIER BAG MIDI   0000001000+00000035+00000+0001T   00000035+0000001325          1400 HR6090               1AZ
703289000703289               703289               170213GA     1400+00000+GA0000006577+0000006577+000000000+000000921+0000007490+0000000008+I20000000000+0000007490+Z
703289001703289080-000127     703289006003000424351VALENTINES DAY 36x24CM 0000001000+00002192+00000+0001T   00002192+0000001326          1400 HR6112               1AZ
703289002703289001-000175     703289006001023788108B/MUG GLS LOVE 380ML   0000001000+00004385+00000+0001T   00004385+0000001326          1400 HR6515               1AZ
703290000703290               703290               170213GA     1400+00000+GA0000003682+0000003682+000000000+000000516+0000004190+0000000008+I20000000000+0000004190+Z
703290001703290055-009254     703290006001023527073PICTURE-HOOK+PINS 5PCE 0000001000+00001490+00000+0001T   00001490+0000001337          1400 HR6810               1AZ
703290002703290031-000868-A   703290006001023798534P/FRAME PL BLCK 10X15CM0000001000+00002192+00000+0001T   00002192+0000001337          1400 HR6510               1AZ
703291000703291               703291               170213GA     1400+00000+GA0000004204+0000004204+000000000+000000592+0000004796+0000000000+I40000004796+0000000000+Z
703291001703291039-000026     703291006001023551610C/TAPERED 25CM M/RED   0000004000+00001051+00000+0001T   00001051+0000001339          1400 HR6510               1AZ
703292000703292               703292               170213GA     1400+00000+GA0000009642+0000009642+000000000+000001350+0000010990+0000000002+I20000000000+0000010990+Z
703292001703292018-005009     703292006001023725608MUG W/PLUSH-BEAR LOVE  0000001000+00003507+00000+0001T   00003507+0000001408          1400 HR6515               1AZ
703292002703292018-000136     703292006001023659026MUG OCC LOVE W/PLUSH   0000001000+00003507+00000+0001T   00003507+0000001408          1400 HR6515               1AZ
703292003703292903-000194     703292006009826020616SWT CHOC RP LOLLY 25G  0000002000+00001314+00000+0001T   00001314+0000001408          1400 HR6150               1AZ
703293000703293               703293               170213GA     1400+00000+GA0000001753+0000001753+000000000+000000246+0000001990+0000000009+I20000000000+0000001990+Z
703293001703293206-000120     703293006003000628308PEELER CARROT SHARPENER0000001000+00001753+00000+0001T   00001753+0000001422          1400 HR6321               1AZ
703294000703294               703294               170213GA     1400+00000+GA0000007014+0000007014+000000000+000000982+0000007990+0000000006+I20000000000+0000007990+Z
703294001703294018-005009     703294006001023725608MUG W/PLUSH-BEAR LOVE  0000002000+00003507+00000+0001T   00003507+0000001424          1400 HR6515               1AZ
703295000703295               703295               170213GA     1400+00000+GA0000006570+0000006570+000000000+000000920+0000007490+0000000000+I20000000000+0000007490+Z
703295001703295150-001234-1   703295005019190010015PLATE-HANGER P/C SIZE-10000005000+00001314+00000+0001T   00001314+0000001429          1400 HR6810               1AZ
703296000703296               703296               170213GA     1400+00000+GA0000002630+0000002630+000000000+000000369+0000002990+0000000009+I20000000000+0000002990+Z
703296001703296200-000040     703296006001023729620BAG SEALERS 5PC CLIPS  0000001000+00002630+00000+0001T   00002630+0000001430          1400 HR6214               1AZ
703297000703297               703297               170213GA     1400+00000+GA0000038103+0000038103+000000000+000005337+0000043440+0000000000+I40000043440+0000000000+Z
703297001703297065-003699     703297006001023690883FLUTE RECORDER PL      0000001000+00001490+00000+0001T   00001490+0000001433          1400 HR6745               1AZ
703297002703297112-116069     703297006003000535064TCS CARRIER BAG JUMBO  0000001000+00000048+00000+0001T   00000048+0000001433          1400 HR6090               1AZ
703297003703297464-000238     703297006001023644039GAME SNAKES+LADDERS    0000001000+00001314+00000+0001T   00001314+0000001433          1400 HR6785               1AZ
703297004703297077-000472     703297006003000330133G-BAG DESGNR LRG 25X32 0000001000+00001753+00000+0001T   00001753+0000001433          1400 HR6112               1AZ
703297005703297567-011523     703297006003000667031BK COLOURING THERAPY   0000001000+00003507+00000+0001T   00003507+0000001433          1400 HR6757               1AZ
703297006703297567-011344     703297006003000630714BK COLOURING THERAPY 640000001000+00003507+00000+0001T   00003507+0000001433          1400 HR6757               1AZ
703297007703297362-000306     703297006003000450039HAIR BAND SET 18PC     0000001000+00001490+00000+0001T   00001490+0000001433          1400 HR6160               1AZ
703297008703297079-000334     703297006003000670437THERAPY P/CRAYONS 18   0000002000+00005262+00000+0001T   00005262+0000001433          1400 HR6130               1AZ
703297009703297560-000190     703297006001023355973SNAKE COBRA 58cm       0000001000+00003507+00000+0001T   00003507+0000001433          1400 HR6745               1AZ
703297010703297368-000182     703297006003000667697PLUSH BEAR 26cm ASSTD  0000001000+00008771+00000+0001T   00008771+0000001433          1400 HR6745               1AZ
703297011703297018-000170     703297006001023775528MUG OCC. LOVE 2PC MINI 0000001000+00002192+00000+0001T   00002192+0000001433          1400 HR6515               1AZ
703298000703298               703298               170213GA     1400+00000+GA0000007926+0000007926+000000000+000001111+0000009037+0000000000+I40000009037+0000000000+Z
703298001703298491-059642     703298000078257596423INTEX ARMBAND 6-12YRS  0000001000+00001753+00000+0001T   00001753+0000001448          1400 HR6787               1AZ
703298002703298491-059640     703298000078257596409INTEX:ARMBAND 3-6YRS   0000001000+00001753+00000+0001T   00001753+0000001448          1400 HR6787               1AZ
703298003703298001-000175     703298006001023788108B/MUG GLS LOVE 380ML   0000001000+00004385+00000+0001T   00004385+0000001448          1400 HR6515               1AZ
703298004703298112-116038     703298006003000534906TCS CARRIER BAG MIDI   0000001000+00000035+00000+0001T   00000035+0000001448          1400 HR6090               1AZ
703299000703299               703299               170213GA     1400+00000+GA0000015820+0000015820+000000000+000002217+0000018030+0000000007+I20000000000+0000018030+Z
703299001703299047-000010-H   703299006001023879929M/PLUG 10-WAY-SURGE    0000001000+00012279+00000+0001T   00012279+0000001503          1400 HR6880               1AZ
703299002703299047-000508     703299006009636901983PLG EURODAPTOR 3x5A-2PN0000002000+00001753+00000+0001T   00001753+0000001503          1400 HR6880               1AZ
703299003703299112-116038     703299006003000534906TCS CARRIER BAG MIDI   0000001000+00000035+00000+0001T   00000035+0000001503          1400 HR6090               1AZ
703300000703300               703300               170213GA     1400+00000+GA0000001402+0000001402+000000000+000000197+0000001590+0000000009+I20000000000+0000001590+Z
703300001703300566-000303     703300006003000445592STCKRS FOIL SPARKLE ASS0000001000+00001402+00000+0001T   00001402+0000001505          1400 HR6130               1AZ
703301000703301               703301               170213GA     1400+00000+GA0000010524+0000010524+000000000+000001474+0000011990+0000000008+I20000000000+0000011990+Z
703301001703301490-044669     703301000078257446698INTEX BOB BAG 3-D      0000002000+00005262+00000+0001T   00005262+0000001510          1400 HR6787               1AZ
703302000703302               703302               170213GA     1400+00000+GA0000001613+0000001613+000000000+000000226+0000001830+0000000009+I20000000000+0000001830+Z
703302001703302077-000315     703302006003000181186GIFT-BAG 20x28cm MATT  0000001000+00001578+00000+0001T   00001578+0000001514          1400 HR6112               1AZ
703302002703302112-116038     703302006003000534906TCS CARRIER BAG MIDI   0000001000+00000035+00000+0001T   00000035+0000001514          1400 HR6090               1AZ
703303000703303               703303               170213GA     1400+00000+GA0000005260+0000005260+000000000+000000738+0000005998+0000000000+I40000005998+0000000000+Z
703303001703303563-000317-G   703303006001023776341SERVIETTES BRIGHT ASSTD0000002000+00002630+00000+0001T   00002630+0000001516          1400 HR6214               1AZ
703304000703304               703304               170213GA     1400+00000+GA0000002630+0000002630+000000000+000000369+0000002990+0000000009+I20000000000+0000002990+Z
703304001703304206-000620     703304006003000631797BACK SCRATCHER EXTEND  0000001000+00002630+00000+0001T   00002630+0000001516          1400 HR6321               1AZ
703305000703305               703305               170213GA     1400+00000+GA0000009501+0000009501+000000000+000001333+0000010834+0000000000+I40000010834+0000000000+Z
703305001703305112-116038     703305006003000534906TCS CARRIER BAG MIDI   0000001000+00000035+00000+0001T   00000035+0000001518          1400 HR6090               1AZ
703305002703305088-000084     703305006001023798060P/POURRI 120G ASSTD    0000002000+00001753+00000+0001T   00001753+0000001518          1400 HR6212               1AZ
703305003703305019-071611     703305006003000513642PEBBLES W/GEM 10g CLEAR0000004000+00001490+00000+0001T   00001490+0000001518          1400 HR6510               1AZ
703306000703306               703306               170213GA     1400+00000+GA0000010871+0000010871+000000000+000001524+0000012390+0000000005+I20000000000+0000012390+Z
703306001703306077-000009     703306006003000152377PAPER CREPE ALUM COL   0000001000+00003069+00000+0001T   00003069+0000001519          1400 HR6112               1AZ
703306002703306077-000011-Y   703306006001023809858TISSUE-WRAP GOLD 10PCE 0000001000+00001753+00000+0001T   00001753+0000001519          1400 HR6112               1AZ
703306003703306077-000011-X   703306006001023809827TISSUE-WRAP SILVER 10PC0000001000+00001753+00000+0001T   00001753+0000001519          1400 HR6112               1AZ
703306004703306077-000009     703306006003000152377PAPER CREPE ALUM COL   0000001000+00003069+00000+0001T   00003069+0000001519          1400 HR6112               1AZ
703306005703306077-000245     703306006001023759214GIFT-RIBBON METALLICx2 0000001000+00001227+00000+0001T   00001227+0000001519          1400 HR6112               1AZ
703307000703307               703307               170213GA     1400+00000+GA0000000876+0000000876+000000000+000000123+0000000990+0000000009+I20000000000+0000000990+Z
703307001703307077-000150-D   703307006003000054343GIFT-WRAP CELLPHANE CLR0000001000+00000876+00000+0001T   00000876+0000001522          1400 HR6112               1AZ
703308000703308               703308               170213GA     1400+00000+GA0000057536+0000057536+000000000+000008057+0000065593+0000000000+I40000065593+0000000000+Z
703308001703308033-005991     703308006001023678546NEEDLES H/HOLD-REPAIR  0000001000+00000788+00000+0001T   00000788+0000001532          1400 HR6200               1AZ
703308002703308033-005919     703308006003000154883SEWING THREAD 24cm ASST0000001000+00001490+00000+0001T   00001490+0000001532          1400 HR6200               1AZ
703308003703308204-000059     703308006001023528162MEMO HOLDER APPS 18PC  0000001000+00002630+00000+0001T   00002630+0000001532          1400 HR6300               1AZ
703308004703308007-010503     703308006003000455393WIPE & CHALK 90X60CM   0000002000+00026314+00000+0001T   00026314+0000001532          1400 HR6130               1AZ
703309000703309               703309               170213GA     1400+00000+GA0000004821+0000004821+000000000+000000675+0000005496+0000000000+I40000005496+0000000000+Z
703309001703309251-000001     703309006001023487681TAPE DBL-SIDE 18x1000mm0000001000+00001314+00000+0001T   00001314+0000001533          1400 HR6810               1AZ
703309002703309301-085004     703309006003000420469ORN LOVE PLAQUE 21X10CM0000001000+00003507+00000+0001T   00003946+0006471533          1400 HR6505               1AZ
703310000703310               703310               170213GA     1400+00000+GA0000009692+0000009692+000000000+000001358+0000011050+0000000000+I20000000000+0000011050+Z
703310001703310112-116069     703310006003000535064TCS CARRIER BAG JUMBO  0000001000+00000048+00000+0001T   00000048+0000001543          1400 HR6090               1AZ
703310002703310466-000400     703310006003000137497DART SET-OF-3          0000001000+00002630+00000+0001T   00002630+0000001543          1400 HR6785               1AZ
703310003703310150-000776     703310006001023839756UTILITY/TOOL-BOX PL    0000002000+00003507+00000+0001T   00003507+0000001543          1400 HR6810               1AZ
703311000703311               703311               170213GA     1400+00000+GA0000016724+0000016724+000000000+000002348+0000019072+0000000000+I40000019072+0000000000+Z
703311001703311112-116038     703311006003000534906TCS CARRIER BAG MIDI   0000001000+00000035+00000+0001T   00000035+0000001545          1400 HR6090               1AZ
703311002703311565-000043     703311006003000109562NOVELTY BALL FUNNY FACE0000006000+00001753+00000+0001T   00001753+0000001545          1400 HR6745               1AZ
703311003703311903-000844     703311005010478432567SWT CANDY DL LUV HEARTS0000003000+00001314+00000+0001T   00001314+0000001545          1400 HR6150               1AZ
703311004703311903-000151     703311006009803374411SWT SML RND R/BOW LOLLY0000003000+00000525+00000+0001T   00000525+0000001545          1400 HR6150               1AZ
703311005703311903-000670     703311006009803358008SWT SHERBET RED LIPS   0000003000+00000218+00000+0001T   00000218+0000001545          1400 HR6150               1AZ
703312000703312               703312               170213GA     1400+00000+GA0000003542+0000003542+000000000+000000496+0000004030+0000000008+I20000000000+0000004030+Z
703312001703312018-000136     703312006001023659026MUG OCC LOVE W/PLUSH   0000001000+00003507+00000+0001T   00003507+0000001547          1400 HR6515               1AZ
703312002703312112-116038     703312006003000534906TCS CARRIER BAG MIDI   0000001000+00000035+00000+0001T   00000035+0000001547          1400 HR6090               1AZ
703313000703313               703313               170213GA     1400+00000+GA0000010422+0000010422+000000000+000001463+0000011885+0000000000+I40000011885+0000000000+Z
703313001703313368-000049     703313006003000536955PLUSH BEAR 15cm LOVE   0000001000+00004385+00000+0001T   00004385+0000001550          1400 HR6745               1AZ
703313002703313112-116038     703313006003000534906TCS CARRIER BAG MIDI   0000001000+00000035+00000+0001T   00000035+0000001550          1400 HR6090               1AZ
703313003703313903-000183     703313006003000451043SWT LB HEART LOLLY     0000003000+00000393+00000+0001T   00000393+0000001550          1400 HR6150               1AZ
703313004703313301-085001     703313006003000297610ORN WATERBALL LOVE ASST0000001000+00004823+00000+0001T   00004823+0000001550          1400 HR6505               1AZ
703314000703314               703314               170213GA     1400+00000+GA0000004385+0000004385+000000000+000000614+0000004990+0000000009+I20000000000+0000004990+Z
703314001703314018-030000     703314006003000421060MUG OCCASIONS LOVE 2PCE0000001000+00004385+00000+0001T   00004385+0000001550          1400 HR6515               1AZ
703315000703315               703315               170213GA     1400+00000+GA0000006840+0000006840+000000000+000000958+0000007790+0000000008+I20000000000+0000007790+Z
703315001703315030-001122     703315006003000253487PLAQUE-WALL W/SAYING   0000001000+00005262+00000+0001T   00007016+0008121553          1400 HR6505               1AZ
703315002703315077-000315     703315006003000181186GIFT-BAG 20x28cm MATT  0000001000+00001578+00000+0001T   00001578+0000001553          1400 HR6112               1AZ
703316000703316               703316               170213GA     1400+00000+GA0000007016+0000007016+000000000+000000983+0000007990+0000000009+I20000000000+0000007990+Z
703316001703316031-007000     703316006003000462476P/FRAME WDN DIST.10X15 0000001000+00007016+00000+0001T   00007016+0000001554          1400 HR6510               1AZ
703317000703317               703317               170213GA     1400+00000+GA0000013157+0000013157+000000000+000001842+0000014990+0000000009+I20000000000+0000014990+Z
703317001703317467-096020     703317006001023679024BOOGIE-BOARD 66cm ASSTD0000001000+00013157+00000+0001T   00013157+0000001555          1400 HR6785               1AZ
703318000703318               703318               170213GA     1400+00000+GA0000008233+0000008233+000000000+000001154+0000009380+0000000007+I20000000000+0000009380+Z
703318001703318079-009700-B   703318006003000547661PAPER SIRIO A4 WHITE   0000001000+00000306+00000+0001T   00000306+0000001558          1400 HR6130               1AZ
703318002703318071-005213     703318006001023690371CELLOTAPE 12mmx33m     0000001000+00000876+00000+0001T   00000876+0000001558          1400 HR6130               1AZ
703318003703318469-000026     703318006001023878717B/BLOCKS 80PC CARS ASST0000001000+00007016+00000+0001T   00007016+0000001558          1400 HR6755               1AZ
703318004703318112-116038     703318006003000534906TCS CARRIER BAG MIDI   0000001000+00000035+00000+0001T   00000035+0000001558          1400 HR6090               1AZ
703319000703319               703319               170213GA     1400+00000+GA0000009957+0000009957+000000000+000001395+0000011350+0000000002+I20000000000+0000011350+Z
703319001703319077-000348     703319006001023483287GIFT-BOWS 4,5cm 8PCE   0000001000+00001578+00000+0001T   00001578+0000001600          1400 HR6112               1AZ
703319002703319080-000127     703319006003000424351VALENTINES DAY 36x24CM 0000001000+00002192+00000+0001T   00002192+0000001600          1400 HR6112               1AZ
703319003703319159-000095     703319006003000399178SHOWER-CADDY CHROME    0000001000+00006139+00000+0001T   00006139+0000001600          1400 HR6200               1AZ
703319004703319112-116069     703319006003000535064TCS CARRIER BAG JUMBO  0000001000+00000048+00000+0001T   00000048+0000001600          1400 HR6090               1AZ
703320000703320               703320               170213GA     1400+00000+GA0000003506+0000003506+000000000+000000492+0000003990+0000000008+I20000000000+0000003990+Z
703320001703320080-000101     703320006003000236732CARD&ENVLPE FEMALE     0000001000+00001753+00000+0001T   00001753+0000001602          1400 HR6112               1AZ
703320002703320080-000106     703320006003000237098CARD&ENVLPE BDAY GIRL  0000001000+00001753+00000+0001T   00001753+0000001602          1400 HR6112               1AZ
703321000703321               703321               170213GA     1400+00000+GA0000016934+0000016934+000000000+000002413+0000019340+0000000007+I20000000000+0000019340+Z
703321001703321112-116038     703321006009681820246TCS CARRIER BAG MIDI   0000001000+00000035+00000+0001T   00000035+0000001614          1400 HR6090               1AZ
703321002703321903-000183     703321006003000451043SWT LB HEART LOLLY     0000043000+00000393+00000+0001T   00000393+0000001614          1400 HR6150               1AZ
703322000703322               703322               170213GA     1400+00000+GA0000005259+0000005259+000000000+000000738+0000005990+0000000007+I20000000000+0000005990+Z
703322001703322079-013032     703322006003000389209SET LETTERS 2 ASSTD    0000002000+00001753+00000+0001T   00001753+0000001616          1400 HR6130               1AZ
703322002703322566-001501     703322006003000658398STICKER PAPER EMOTION  0000001000+00001753+00000+0001T   00001753+0000001616          1400 HR6130               1AZ
703323000703323               703323               170213GA     1400+00000+GA0000022870+0000022870+000000000+000003205+0000026075+0000000000+I40000026075+0000000000+Z
703323001703323560-000779     703323006001023492760ANIMAL FARM P/SET 45PC 0000001000+00015788+00000+0001T   00015788+0000001618          1400 HR6745               1AZ
703323002703323304-001140     703323006003000679010FLOWER MINI MOSS 40G   0000001000+00001753+00000+0001T   00001753+0000001618          1400 HR6510               1AZ
703323003703323079-013032-E   703323006003000389766ART+CRAFT COL/PAPER    0000002000+00002630+00000+0001T   00002630+0000001618          1400 HR6130               1AZ
703323004703323112-116053     703323006006438002399TCS CARRIER BAG 38L    0000001000+00000069+00000+0001T   00000069+0000001618          1400 HR6090               1AZ
703324000703324               703324               170213GA     1400+00000+GA0000001578+0000001578+000000000+000000221+0000001790+0000000009+I20000000000+0000001790+Z
703324001703324077-000303     703324006001023593757GIFT-BAG PAPER MED     0000001000+00001578+00000+0001T   00001578+0000001618          1400 HR6112               1AZ
703325000703325               703325               170213GA     1400+00000+GA0000007892+0000007892+000000000+000001106+0000008990+0000000008+I20000000000+0000008990+Z
703325001703325106-001119     703325006003000449972WATER BOTTLE ALUM 750ml0000002000+00003946+00000+0001T   00005262+0008171619          1400 HR6210               1AZ
703326000703326               703326               170213GA     1400+00000+GA0000003067+0000003067+000000000+000000430+0000003497+0000000000+I40000003497+0000000000+Z
703326001703326024-091100     703326006001023914224BAKING-CUPS PAPER 100PC0000001000+00001753+00000+0001T   00001753+0000001621          1400 HR6300               1AZ
703326002703326903-000844     703326005010478432567SWT CANDY DL LUV HEARTS0000001000+00001314+00000+0001T   00001314+0000001621          1400 HR6150               1AZ
703327000703327               703327               170213GA     1400+00000+GA0000007715+0000007715+000000000+000001081+0000008790+0000000006+I20000000000+0000008790+Z
703327001703327263-000003     703327006003000652358VEHICLE BIKE 9.5cm     0000001000+00003507+00000+0001T   00003507+0000001625          1400 HR6710               1AZ
703327002703327903-000087     703327006001704000161SWT SPECKLED-EGGS 50G  0000001000+00001139+00000+0001T   00001139+0000001625          1400 HR6150               1AZ
703327003703327089-060027     703327006003000245871KEY-CHAIN HEART 6X6cm  0000001000+00003069+00000+0001T   00003069+0000001625          1400 HR6205               1AZ
703328000703328               703328               170213GA     1400+00000+GA0000006139+0000006139+000000000+000000860+0000006999+0000000000+I40000006999+0000000000+Z
703328001703328039-000798     703328006001023617774CANDLES TEALITE BOX-50 0000001000+00006139+00000+0001T   00006139+0000001627          1400 HR6510               1AZ
703329000703329               703329               170213GA     1400+00000+GA0000000613+0000000613+000000000+000000086+0000000690+0000000009+I20000000000+0000000690+Z
703329001703329077-000311     703329006001023608666GIFT-BAG 11X14CM GLOSS 0000001000+00000613+00000+0001T   00000613+0000001630          1400 HR6112               1AZ
703330000703330               703330               170213GA     1400+00000+GA0000005291+0000005291+000000000+000000741+0000006030+0000000002+I20000000000+0000006030+Z
703330001703330006-000166-D   703330006003000516490BALLOONS LRG 6PC RED   0000002000+00001314+00000+0001T   00001314+0000001631          1400 HR6131               1AZ
703330002703330006-000166-H   703330006003000608096BALLOONS HELIUM 6PC WHT0000002000+00001314+00000+0001T   00001314+0000001631          1400 HR6131               1AZ
703330003703330112-116038     703330006003000534906TCS CARRIER BAG MIDI   0000001000+00000035+00000+0001T   00000035+0000001631          1400 HR6090               1AZ
703331000703331               703331               170213GA     1400+00000+GA0000007940+0000007940+000000000+000001113+0000009053+0000000000+I40000009053+0000000000+Z
703331001703331018-050000     703331006003000412679MUG OCC LOVE TWIN BEAR 0000001000+00006139+00000+0001T   00006139+0000001632          1400 HR6515               1AZ
703331002703331077-000289     703331006001023901996GIFT BOX 20x25x11cm    0000001000+00001753+00000+0001T   00001753+0000001632          1400 HR6112               1AZ
703331003703331112-116069     703331006003000535064TCS CARRIER BAG JUMBO  0000001000+00000048+00000+0001T   00000048+0000001632          1400 HR6090               1AZ
703332000703332               703332               170213GA     1400+00000+GA0000001753+0000001753+000000000+000000246+0000001999+0000000000+I40000001999+0000000000+Z
703332001703332077-000299-A   703332006003000670888GIFT-BAG PAPER JMB LOVE0000001000+00001753+00000+0001T   00001753+0000001649          1400 HR6112               1AZ
703333000703333               703333               170213GA     1400+00000+GA0000004381+0000004381+000000000+000000615+0000004990+0000000006+I20000000000+0000004990+Z
703333001703333080-000133     703333006003000535613CARD&ENV MINI ASTD DSGN0000002000+00000437+00000+0001T   00000437+0000001649          1400 HR6112               1AZ
703333002703333018-005009     703333006001023725608MUG W/PLUSH-BEAR LOVE  0000001000+00003507+00000+0001T   00003507+0000001649          1400 HR6515               1AZ
703334000703334               703334               170213GA     1400+00000+GA0000016487+0000016487+000000000+000002310+0000018797+0000000000+I40000018797+0000000000+Z
703334001703334368-000637     703334006001023874092PLUSH BEAR SLEEPING LOV0000001000+00011402+00000+0001T   00012279+0006471651          1400 HR6745               1AZ
703334002703334266-000607     703334006003000657339BOYS PLAYSET FOAM SET  0000001000+00002455+00000+0001T   00002455+0000001651          1400 HR6710               1AZ
703334003703334077-000270     703334006003000395453GIFT-BAG PPR JMB 33X45 0000001000+00002630+00000+0001T   00002630+0000001651          1400 HR6112               1AZ
703335000703335               703335               170213GA     1400+00000+GA0000010483+0000010483+000000000+000001469+0000011952+0000000000+I40000011952+0000000000+Z
703335001703335903-002853     703335000000087108019MENTOS ROLL MINT       0000001000+00001051+00000+0001T   00001051+0000001653          1400 HR6150               1AZ
703335002703335031-000924     703335006001023669964P/FRAME COLLAGE PL     0000001000+00008771+00000+0001T   00008771+0000001653          1400 HR6510               1AZ
703335003703335083-000055     703335006003000003853LIGHTER ELCTRNC REFILBL0000001000+00000613+00000+0001T   00000613+0000001653          1400 HR6315               1AZ
703335004703335112-116069     703335006003000535064TCS CARRIER BAG JUMBO  0000001000+00000048+00000+0001T   00000048+0000001653          1400 HR6090               1AZ
703336000703336               703336               170213GA     1400+00000+GA0000001839+0000001839+000000000+000000258+0000002090+0000000007+I20000000000+0000002090+Z
703336001703336007-000555     703336006001023848239MEMO-PAD MINI LOVE     0000003000+00000613+00000+0001T   00000613+0000001702          1400 HR6130               1AZ
703337000703337               703337               170213GA     1400+00000+GA0000005295+0000005295+000000000+000000743+0000006030+0000000008+I20000000000+0000006030+Z
703337001703337105-001039-C   703337006003000632718CONTAINER W/VENT 13x18 0000002000+00002630+00000+0001T   00003069+0008161704          1400 HR6210               1AZ
703337002703337112-116038     703337006003000534906TCS CARRIER BAG MIDI   0000001000+00000035+00000+0001T   00000035+0000001704          1400 HR6090               1AZ
703338000703338               703338               170213GA     1400+00000+GA0000002192+0000002192+000000000+000000307+0000002490+0000000009+I20000000000+0000002490+Z
703338001703338006-000789     703338006001023148612CROWN BOY              0000001000+00002192+00000+0001T   00002192+0000001706          1400 HR6131               1AZ
703339000703339               703339               170213GA     1400+00000+GA0000004296+0000004296+000000000+000000602+0000004898+0000000000+I40000004898+0000000000+Z
703339001703339903-000095     703339006001704011495SWT SPECKLED-EGGS 100G 0000001000+00002104+00000+0001T   00002104+0000001708          1400 HR6150               1AZ
703339002703339080-000127     703339006003000424351VALENTINES DAY 36x24CM 0000001000+00002192+00000+0001T   00002192+0000001708          1400 HR6112               1AZ
703340000703340               703340               170213GA     1400+00000+GA0000001490+0000001490+000000000+000000209+0000001690+0000000009+I20000000000+0000001690+Z
703340001703340033-005919     703340006003000154883SEWING THREAD 24cm ASST0000001000+00001490+00000+0001T   00001490+0000001721          1400 HR6200               1AZ
703341000703341               703341               170213GA     1400+00000+GA0000003069+0000003069+000000000+000000430+0000003499+0000000000+I40000003499+0000000000+Z
703341001703341464-000107     703341000073854318089PLAY-CARDS 2nd (SINGLE)0000001000+00003069+00000+0001T   00003069+0000001723          1400 HR6785               1AZ
703342000703342               703342               170213GA     1400+00000+GA0000023728+0000023728+000000000+000003324+0000027052+0000000000+I40000027052+0000000000+Z
703342001703342001-091415     703342006003000329113W/GLS OCC. LOVE 2PC 2800000001000+00008771+00000+0001T   00009648+0006471725          1400 HR6515               1AZ
703342002703342077-000270     703342006003000395453GIFT-BAG PPR JMB 33X45 0000001000+00002630+00000+0001T   00002630+0000001725          1400 HR6112               1AZ
703342003703342112-116069     703342006003000535064TCS CARRIER BAG JUMBO  0000001000+00000048+00000+0001T   00000048+0000001725          1400 HR6090               1AZ
703342004703342368-000111     703342006001023780812PLUSH BEAR/DOG 29CM    0000001000+00012279+00000+0001T   00012279+0000001725          1400 HR6745               1AZ
703343000703343               703343               170213GA     1400+00000+GA0000013203+0000013203+000000000+000001850+0000015053+0000000000+I40000015053+0000000000+Z
703343001703343112-116069     703343006003000535064TCS CARRIER BAG JUMBO  0000001000+00000048+00000+0001T   00000048+0000001731          1400 HR6090               1AZ
703343002703343040-000103     703343000694202201862C/HOLDER-SET 5PC W/TRAY0000001000+00011402+00000+0001T   00013157+0008191731          1400 HR6510               1AZ
703343004703343077-000906     703343006003000410804G/WRAP 700mmx1m BIRTHDA0000001000+00001753+00000+0001T   00001753+0000001731          1400 HR6112               1AZ
703344000703344               703344               170213GA     1400+00000+GA0000002629+0000002629+000000000+000000369+0000002990+0000000008+I20000000000+0000002990+Z
703344001703344039-001023     703344006003000466337CANDLE TEA-LITE METALIC0000001000+00001753+00000+0001T   00001753+0000001731          1400 HR6510               1AZ
703344002703344078-000025     703344008887013700064SUPERGLUE 3g 1PCE CARD 0000001000+00000876+00000+0001T   00000876+0000001731          1400 HR6810               1AZ
703345000703345               703345               170213GA     1400+00000+GA0000008770+0000008770+000000000+000001228+0000009990+0000000008+I20000000000+0000009990+Z
703345001703345105-008005     703345006002580009484STORAGE CONTAINER 7.5L 0000002000+00004385+00000+0001T   00004385+0000001732          1400 HR6210               1AZ
703346000703346               703346               170213GA     1400+00000+GA0000006139+0000006139+000000000+000000860+0000006990+0000000009+I20000000000+0000006990+Z
703346001703346018-005007     703346006003000515516MUG OCC. LOVE W/HEARTS 0000001000+00006139+00000+0001T   00006139+0000001736          1400 HR6515               1AZ
703347000703347               703347               170213GA     1400+00000+GA0000007016+0000007016+000000000+000000983+0000007990+0000000009+I20000000000+0000007990+Z
703347001703347050-000410-Z   703347006001023848581PADLOCK L/SHKL BRS 38mm0000001000+00007016+00000+0001T   00007016+0000001739          1400 HR6855               1AZ
A17021300                                          15233362GASLAVE 1                       HR62IC
A17021301                                          15272440GASLAVE 1                       HR62IC
C70334300                                          170213GA369-061024     17301458SLAVE 1     HR62IC0000000000+0000000000+0030000001000+
M17021391                              CASH        GASLAVE 1                       Z-REPORT No.   651TOTAL (Sales - Refunds)           8331.39       CASH TO BE BANKED                 3839.80       DEBIT CARDS                          0.00       CREDIT CARDS                      4491.59       Z-READING                         8331.39       AIRTIME DEBIT CARD SALES             0.00       AIRTIME CARD SALES                   0.00       OVERS/UNDERS                         0.00       AIRTIME CASH SALES                   0.00       GIFT CARDS                           0.00       GIFT CARD CASH SALES                 0.00       T O T A L  CASH PAYOUTS              0.00                                                                                                                                                                                                                                                                                                                                                      Z
M17021392                              CASH        GAABSENT                                                                                                                                                                                          ANNUAL LEAVE                                                                                                                                                                                    DAY OFF                                                                                                                                                                                         COMMENTS                                                                                                                                                                                                                                                                                                                                                                                       Z
Y17021300                                          GA00000000731060+000091
ZGA17021321073 SLAVE 1      SALES DATA                     NEXT INVOICE NO.  703348 0651
X GA Slave 1 First invoice 703257 170213 Last invoice 703347 170213 Next invoice 703348 Total number of records 000000322 clbackup completed 21:07:44
