710649000710649               710649               170213GA     1400+00000+GA0000000786+0000000786+000000000+000000112+0000000890+0000000008+I20000000000+0000000890+Z
710649001710649001-000001     710649006001023507266SHOT-GLASS 25ml        0000002000+00000393+00000+0001T   00000393+0000000933          1400 CT1515               2AZ
710650000710650               710650               170213GA     1400+00000+GA0000004331+0000004331+000000000+000000612+0000004943+0000000000+I40000004943+0000000000+Z
710650001710650903-000200     710650006009826020234SWT CHOC RP CHOCO 23G  0000004000+00000788+00000+0001T   00000788+0000000948          1400 CT11502IC            2AZ
710650002710650903-000183     710650006003000451043SWT LB HEART LOLLY     0000003000+00000393+00000+0001T   00000393+0000000948          1400 CT1150               2AZ
710651000710651               710651               170213GA     1400+00000+GA0000033829+0000033829+000000000+000004740+0000038569+0000000000+I40000038569+0000000000+Z
710651001710651112-116053     710651006006438002399TCS CARRIER BAG 38L    0000001000+00000069+00000+0001T   00000069+0000001009          1400 CT1090               2AZ
710651002710651564-009019     710651006001023498519BUBBLE TOY GUN         0000001000+00004385+00000+0001T   00004385+0000001009          1400 CT1131               2AZ
710651003710651065-003639     710651006001023787620GUITAR ROCKER          0000001000+00007016+00000+0001T   00007016+0000001009          1400 CT1745               2AZ
710651004710651065-003641     710651006003000396276DRUM CLICK SET         0000001000+00007016+00000+0001T   00007016+0000001009          1400 CT1745               2AZ
710651005710651006-000227     710651006003000328086PARTY BIRTHDAY BADGES  0000001000+00003069+00000+0001T   00003069+0000001009          1400 CT1131               2AZ
710651006710651366-001112-A   710651006003000450169DRESSUP ANIMALS 2-4YRS 0000001000+00005262+00000+0001T   00007016+0008181009          1400 CT1131               2AZ
710651007710651366-002681     710651006003000653744DRESS UP HAT FIRE CHIEF0000001000+00000876+00000+0001T   00000876+0000001009          1400 CT1131               2AZ
710651008710651006-000812     710651006001023902832HAT CONE WITH TINSEL   0000001000+00000876+00000+0001T   00000876+0000001009          1400 CT1131               2AZ
710651009710651565-000889     710651006003000626953NOVELTY SPACE BALLOONS 0000001000+00001753+00000+0001T   00001753+0000001009          1400 CT1745               2AZ
710651010710651077-000934     710651006003000409921G/WRAP 700mmx5m BIRTHDA0000001000+00003507+00000+0001T   00003507+0000001009          1400 CT1112               2AZ
710652000710652               710652               170213GA     1400+00000+GA0000001227+0000001227+000000000+000000172+0000001390+0000000009+I20000000000+0000001390+Z
710652001710652002-000970     710652006001023770578FUNNELS 3PCE WHITE     0000001000+00001227+00000+0001T   00001227+0000001015          1400 CT1300               2AZ
710653000710653               710653               170213GA     1400+00000+GA0000004208+0000004208+000000000+000000590+0000004790+0000000008+I20000000000+0000004790+Z
710653001710653018-000127     710653006001023380289MUG OCC STRAIGHT LOVE  0000001000+00001578+00000+0001T   00001753+0006471016          1400 CT1515               2AZ
710653002710653018-000129     710653006001023403353MUG OCC. LOVE V-SHAPE  0000001000+00002630+00000+0001T   00002630+0000001016          1400 CT1515               2AZ
710654000710654               710654               170213GA     1400+00000+GA0000000876+0000000876+000000000+000000123+0000000999+0000000000+I40000000999+0000000000+Z
710654001710654077-000314     710654006003000181148GIFT-BAG 11X14CM MATT  0000001000+00000876+00000+0001T   00000876+0000001024          1400 CT1112               2AZ
710655000710655               710655               170213GA     1400+00000+GA0000003506+0000003506+000000000+000000492+0000003990+0000000008+I20000000000+0000003990+Z
710655001710655077-000316     710655006001023609731GIFT-BAG 25X32CM MATT  0000001000+00001753+00000+0001T   00001753+0000001024          1400 CT1112               2AZ
710655002710655077-000309     710655006001023608604GIFT-BAG 25X32CM GLOSS 0000001000+00001753+00000+0001T   00001753+0000001024          1400 CT1112               2AZ
710656000710656               710656               170213GA     1400+00000+GA0000001314+0000001314+000000000+000000184+0000001490+0000000008+I20000000000+0000001490+Z
710656001710656077-000310     710656006001023608635GIFT-BAG 18X23CM GLOSS 0000001000+00001314+00000+0001T   00001314+0000001028          1400 CT1112               2AZ
710657000710657               710657               170213GA     1400+00000+GA0000004646+0000004646+000000000+000000651+0000005290+0000000007+I20000000000+0000005290+Z
710657001710657072-020310     710657006001023701015PET TOY MINI TENNIS BAL0000001000+00003507+00000+0001T   00003507+0000001029          1400 CT1870               2AZ
710657002710657466-000517     710657006001023752017BALL TENNIS RED CRICKET0000001000+00001139+00000+0001T   00001139+0000001029          1400 CT1785               2AZ
710658000710658               710658               170213GA     1400+00000+GA0000003542+0000003542+000000000+000000496+0000004030+0000000008+I20000000000+0000004030+Z
710658001710658018-000136     710658006001023659026MUG OCC LOVE W/PLUSH   0000001000+00003507+00000+0001T   00003507+0000001031          1400 CT1515               2AZ
710658002710658112-116038     710658006003000534906TCS CARRIER BAG MIDI   0000001000+00000035+00000+0001T   00000035+0000001031          1400 CT1090               2AZ
710659000710659               710659               170213GA     1400+00000+GA0000010961+0000010961+000000000+000001536+0000012497+0000000000+I40000012497+0000000000+Z
710659001710659018-050000     710659006003000412679MUG OCC LOVE TWIN BEAR 0000001000+00006139+00000+0001T   00006139+0000001042          1400 CT1515               2AZ
710659002710659080-000127     710659006003000424351VALENTINES DAY 36x24CM 0000001000+00002192+00000+0001T   00002192+0000001042          1400 CT1112               2AZ
710659003710659077-000270     710659006003000395453GIFT-BAG PPR JMB 33X45 0000001000+00002630+00000+0001T   00002630+0000001042          1400 CT1112               2AZ
710660000710660               710660               170213GA     1400+00000+GA0000010381+0000010381+000000000+000001455+0000011836+0000000000+I40000011836+0000000000+Z
710660001710660206-000430     710660006003000619627MUG COLOUR CHANGING    0000001000+00006139+00000+0001T   00006139+0000001047          1400 CT1321               2AZ
710660002710660077-000011-E   710660006001023808646TISSUE-WRAP PINK 10PCE 0000001000+00000876+00000+0001T   00000876+0000001047          1400 CT1112               2AZ
710660003710660077-000240     710660006003000326259G/RIBBON 4PC PEARLIZED 0000001000+00001753+00000+0001T   00001753+0000001047          1400 CT1112               2AZ
710660004710660112-116038     710660006003000534906TCS CARRIER BAG MIDI   0000001000+00000035+00000+0001T   00000035+0000001047          1400 CT1090               2AZ
710660005710660077-000315     710660006003000181186GIFT-BAG 20x28cm MATT  0000001000+00001578+00000+0001T   00001578+0000001047          1400 CT1112               2AZ
710661000710661               710661               170213GA     1400+00000+GA0000004646+0000004646+000000000+000000651+0000005290+0000000007+I20000000000+0000005290+Z
710661001710661084-000890     710661006003000092925NAIL BUFFER 9x3x1.3cm  0000001000+00001139+00000+0001T   00001578+0008161050          1400 CT1200               2AZ
710661002710661159-000643     710661006001023767028BACK-BRUSH ASSTD       0000001000+00003507+00000+0001T   00003507+0000001050          1400 CT1200               2AZ
710662000710662               710662               170213GA     1400+00000+GA0000003069+0000003069+000000000+000000430+0000003499+0000000000+I40000003499+0000000000+Z
710662001710662038-092233     710662006003000328925TABLE-MAT N/SLIP ASST  0000001000+00003069+00000+0001T   00003507+0008191100          1400 CT1300               2AZ
710663000710663               710663               170213GA     1400+00000+GA0000002630+0000002630+000000000+000000369+0000002990+0000000009+I20000000000+0000002990+Z
710663001710663033-001500     710663006003000575763BRA CLIPS 10-PACK      0000001000+00002630+00000+0001T   00002630+0000001103          1400 CT1200               2AZ
710664000710664               710664               170213GA     1400+00000+GA0000008801+0000008801+000000000+000001234+0000010030+0000000005+I20000000000+0000010030+Z
710664001710664077-000310     710664006001023608635GIFT-BAG 18X23CM GLOSS 0000001000+00001314+00000+0001T   00001314+0000001112          1400 CT1112               2AZ
710664002710664368-000100     710664006001023474742PLUSH MD BEAR 12cm     0000001000+00002630+00000+0001T   00002630+0000001112          1400 CT1745               2AZ
710664003710664080-000133-A   710664006003000647019MINI VALENTINES CARD   0000001000+00000437+00000+0001T   00000437+0000001112          1400 CT1112               2AZ
710664004710664030-000031-A   710664006003000457588PLAQUE W/WORDS ASSTD   0000001000+00004385+00000+0001T   00004823+0006471112          1400 CT1505               2AZ
710664005710664112-116038     710664006003000534906TCS CARRIER BAG MIDI   0000001000+00000035+00000+0001T   00000035+0000001112          1400 CT1090               2AZ
710665000710665               710665               170213GA     1400+00000+GA0000013625+0000013625+000000000+000001910+0000015530+0000000005+I20000000000+0000015530+Z
710665001710665077-000011-C   710665006001023808523TISSUE 10xSHTS RED     0000001000+00000876+00000+0001T   00000876+0000001118          1400 CT1112               2AZ
710665002710665301-000013     710665006001023781604ORN SENTIMENT STONE 4-A0000001000+00006139+00000+0001T   00006139+0000001118          1400 CT1505               2AZ
710665003710665103-000250     710665006003000571673BASKET WOVEN 29x23x6cm 0000001000+00004823+00000+0001T   00004823+0000001118          1400 CT1300               2AZ
710665004710665077-000151     710665006008766114676GIFT-WRAP C/PHANE ASSTD0000002000+00000876+00000+0001T   00000876+0000001118          1400 CT1112               2AZ
710665005710665112-116038     710665006003000534906TCS CARRIER BAG MIDI   0000001000+00000035+00000+0001T   00000035+0000001118          1400 CT1090               2AZ
710666000710666               710666               170213GA     1400+00000+GA0000004554+0000004554+000000000+000000641+0000005195+0000000000+I40000005195+0000000000+Z
710666001710666566-000359     710666006003000582709STICKER BOOK LOVE SPARK0000001000+00002192+00000+0001T   00002192+0000001120          1400 CT1130               2AZ
710666002710666903-000200     710666006009826020234SWT CHOC RP CHOCO 23G  0000002000+00000788+00000+0001T   00000788+0000001120          1400 CT1150               2AZ
710666003710666903-000183     710666006003000451043SWT LB HEART LOLLY     0000002000+00000393+00000+0001T   00000393+0000001120          1400 CT1150               2AZ
710667000710667               710667               170213GA     1400+00000+GA0000007629+0000007629+000000000+000001069+0000008690+0000000008+I20000000000+0000008690+Z
710667001710667006-000788     710667006001023990228CROWN HAPPY BIRTHDAY   0000001000+00001490+00000+0001T   00001490+0000001120          1400 CT1131               2AZ
710667002710667365-000071     710667006001023542366PLAY-SET CD PLAYER B/O 0000001000+00006139+00000+0001T   00006139+0000001120          1400 CT1725               2AZ
710668000710668               710668               170213GA     1400+00000+GA0000002100+0000002100+000000000+000000294+0000002390+0000000004+I20000000000+0000002390+Z
710668001710668564-000012     710668006001023130075BUBBLE BOTTLE MAGIC    0000003000+00000700+00000+0001T   00000700+0000001121          1400 CT1131               2AZ
710669000710669               710669               170213GA     1400+00000+GA0000010117+0000010117+000000000+000001418+0000011535+0000000000+I40000011535+0000000000+Z
710669001710669038-001805     710669006003000466405DOILIES PAPER 60PC 3ASS0000001000+00003069+00000+0001T   00003069+0000001123          1400 CT1300               2AZ
710669002710669016-009604     710669006001023519559SHAKERS 2PC COW-DESIGNS0000001000+00003507+00000+0001T   00003507+0000001123          1400 CT1300               2AZ
710669003710669037-000001     710669006001023490445ASHTRAY 14cm ASSTD     0000001000+00001753+00000+0001T   00001753+0000001123          1400 CT1515               2AZ
710669004710669037-050016     710669006001023674128ASHTRAY 9CM RND CLUB   0000001000+00001753+00000+0001T   00001753+0000001123          1400 CT1515               2AZ
710669005710669112-116038     710669006003000534906TCS CARRIER BAG MIDI   0000001000+00000035+00000+0001T   00000035+0000001123          1400 CT1090               2AZ
710670000710670               710670               170213GA     1400+00000+GA0000015344+0000015344+000000000+000002149+0000017490+0000000003+I20000000000+0000017490+Z
710670001710670018-000136     710670006001023659026MUG OCC LOVE W/PLUSH   0000002000+00003507+00000+0001T   00003507+0000001126          1400 CT1515               2AZ
710670002710670030-000031-A   710670006003000457588PLAQUE W/WORDS ASSTD   0000001000+00004385+00000+0001T   00004823+0006471126          1400 CT1505               2AZ
710670003710670077-000900     710670006003000410446G/WRAP 700mmx1m ANIMAL 0000001000+00001753+00000+0001T   00001753+0000001126          1400 CT1112               2AZ
710670004710670077-000926     710670006003000414178G/WRAP 700mmx2m LOVE   0000001000+00002192+00000+0001T   00002192+0000001126          1400 CT1112               2AZ
710671000710671               710671               170213GA     1400+00000+GA0000003506+0000003506+000000000+000000492+0000003998+0000000000+I40000003998+0000000000+Z
710671001710671080-000113     710671006003000237449CARD&ENVLPE - LOVE     0000002000+00001753+00000+0001T   00001753+0000001128          1400 CT1112               2AZ
710672000710672               710672               170213GA     1400+00000+GA0000001753+0000001753+000000000+000000246+0000001990+0000000009+I20000000000+0000001990+Z
710672001710672077-000299-A   710672006003000670888GIFT-BAG PAPER JMB LOVE0000001000+00001753+00000+0001T   00001753+0000001128          1400 CT1112               2AZ
710673000710673               710673               170213GA     1400+00000+GA0000006610+0000006610+000000000+000000927+0000007537+0000000000+I40000007537+0000000000+Z
710673001710673366-000302     710673006001023903013DRESSUP DEVIL/MOUSE    0000001000+00002192+00000+0001T   00002192+0000001140          1400 CT1131               2AZ
710673002710673047-000507     710673006001023684479PLUG-ADAPTOR EURO TWIN 0000001000+00001753+00000+0001T   00001753+0000001140          1400 CT1880               2AZ
710673003710673366-000300     710673006001023902955DRESSUP TIARA FEATHER  0000001000+00002630+00000+0001T   00002630+0000001140          1400 CT1131               2AZ
710673004710673112-116038     710673006003000534906TCS CARRIER BAG MIDI   0000001000+00000035+00000+0001T   00000035+0000001140          1400 CT1090               2AZ
710674000710674               710674               170213GA     1400+00000+GA0000007977+0000007977+000000000+000001119+0000009096+0000000000+I40000009096+0000000000+Z
710674001710674903-000200     710674006009826020234SWT CHOC RP CHOCO 23G  0000001000+00000788+00000+0001T   00000788+0000001229          1400 CT1150               2AZ
710674002710674089-000030     710674006003000575671K/CHAIN LOVE MTL ASSTD 0000001000+00001753+00000+0001T   00001753+0000001229          1400 CT1205               2AZ
710674003710674301-085001     710674006003000297610ORN WATERBALL LOVE ASST0000001000+00004823+00000+0001T   00004823+0000001229          1400 CT1505               2AZ
710674004710674077-000311     710674006001023608666GIFT-BAG 11X14CM GLOSS 0000001000+00000613+00000+0001T   00000613+0000001229          1400 CT1112               2AZ
710675000710675               710675               170213GA     1400+00000+GA0000002585+0000002585+000000000+000000363+0000002940+0000000008+I20000000000+0000002940+Z
710675001710675018-000170     710675006001023775528MUG OCC. LOVE 2PC MINI 0000001000+00002192+00000+0001T   00002192+0000001233          1400 CT1515               2AZ
710675002710675903-000183     710675006003000451043SWT LB HEART LOLLY     0000001000+00000393+00000+0001T   00000393+0000001233          1400 CT1150               2AZ
710676000710676               710676               170213GA     1400+00000+GA0000002181+0000002181+000000000+000000307+0000002480+0000000008+I20000000000+0000002480+Z
710676001710676565-000043     710676006003000109562NOVELTY BALL FUNNY FACE0000001000+00001753+00000+0001T   00001753+0000001234          1400 CT1745               2AZ
710676002710676903-000183     710676006003000451043SWT LB HEART LOLLY     0000001000+00000393+00000+0001T   00000393+0000001234          1400 CT1150               2AZ
710676003710676112-116038     710676006003000534906TCS CARRIER BAG MIDI   0000001000+00000035+00000+0001T   00000035+0000001234          1400 CT1090               2AZ
710677000710677               710677               170213GA     1400+00000+GA0000011696+0000011696+000000000+000001639+0000013330+0000000005+I20000000000+0000013330+Z
710677001710677903-000087     710677006001704000161SWT SPECKLED-EGGS 50G  0000001000+00001139+00000+0001T   00001139+0000001243          1400 CT1150               2AZ
710677002710677301-085004     710677006003000420469ORN LOVE PLAQUE 21X10CM0000001000+00003507+00000+0001T   00003946+0006471243          1400 CT1505               2AZ
710677003710677368-000053     710677006003000633449PLUSH BEAR 15.5cm MUM  0000001000+00005262+00000+0001T   00005262+0000001243          1400 CT1745               2AZ
710677004710677080-000113     710677006003000237449CARD&ENVLPE - LOVE     0000001000+00001753+00000+0001T   00001753+0000001243          1400 CT1112               2AZ
710677005710677112-116038     710677006003000534906TCS CARRIER BAG MIDI   0000001000+00000035+00000+0001T   00000035+0000001243          1400 CT1090               2AZ
710678000710678               710678               170213GA     1400+00000+GA0000006171+0000006171+000000000+000000866+0000007030+0000000007+I20000000000+0000007030+Z
710678001710678078-000030     710678006003000151141YAMAYO SUPERGLUE 8g    0000002000+00001753+00000+0001T   00001753+0000001249          1400 IA4810               2AZ
710678002710678050-000364-Z   710678006001023777133PADLOCK IRON 38mm CARD 0000001000+00002630+00000+0001T   00002630+0000001249          1400 IA4855               2AZ
710678003710678112-116038     710678006003000534906TCS CARRIER BAG MIDI   0000001000+00000035+00000+0001T   00000035+0000001249          1400 IA4090               2AZ
710679000710679               710679               170213GA     1400+00000+GA0000006401+0000006401+000000000+000000897+0000007290+0000000008+I20000000000+0000007290+Z
710679001710679903-000087     710679006001704000161SWT SPECKLED-EGGS 50G  0000001000+00001139+00000+0001T   00001139+0000001257          1400 IA4150               2AZ
710679002710679019-000127     710679006003000337316PLANTER GALV RND MED AS0000001000+00005262+00000+0001T   00005262+0000001257          1400 IA4510               2AZ
710680000710680               710680               170213GA     1400+00000+GA0000008844+0000008844+000000000+000001240+0000010084+0000000000+I40000010084+0000000000+Z
710680001710680077-000239     710680006003000160419GIFT-RIBBON ROLL PEARL 0000001000+00001753+00000+0001T   00001753+0000001300          1400 IA4112               2AZ
710680002710680903-000843     710680008693029031067SWT GUMMY JELAXY 80G   0000001000+00000964+00000+0001T   00000964+0000001300          1400 IA4150               2AZ
710680003710680030-000031-A   710680006003000457588PLAQUE W/WORDS ASSTD   0000001000+00004385+00000+0001T   00004823+0006471300          1400 IA4505               2AZ
710680004710680903-000844     710680005010478432567SWT CANDY DL LUV HEARTS0000001000+00001314+00000+0001T   00001314+0000001300          1400 IA4150               2AZ
710680005710680903-000183     710680006003000451043SWT LB HEART LOLLY     0000001000+00000393+00000+0001T   00000393+0000001300          1400 IA4150               2AZ
710680006710680112-116038     710680006003000534906TCS CARRIER BAG MIDI   0000001000+00000035+00000+0001T   00000035+0000001300          1400 IA4090               2AZ
710681000710681               710681               170213GA     1400+00000+GA0000001753+0000001753+000000000+000000246+0000001990+0000000009+I20000000000+0000001990+Z
710681001710681077-000011-X   710681006001023809827TISSUE-WRAP SILVER 10PC0000001000+00001753+00000+0001T   00001753+0000001302          1400 IA4112               2AZ
710682000710682               710682               170213GA     1400+00000+GA0000002665+0000002665+000000000+000000374+0000003039+0000000000+I40000003039+0000000000+Z
710682001710682018-000129     710682006001023403353MUG OCC. LOVE V-SHAPE  0000001000+00002630+00000+0001T   00002630+0000001310          1400 IA4515               2AZ
710682002710682112-116038     710682006003000534906TCS CARRIER BAG MIDI   0000001000+00000035+00000+0001T   00000035+0000001310          1400 IA4090               2AZ
710683000710683               710683               170213GA     1400+00000+GA0000022801+0000022801+000000000+000003194+0000025995+0000000000+I40000025995+0000000000+Z
710683001710683077-000290     710683006001023902023GIFT BOX 26x32x13cm    0000001000+00001753+00000+0001T   00001753+0000001313          1400 IA4112               2AZ
710683002710683001-091415     710683006003000329113W/GLS OCC. LOVE 2PC 2800000001000+00008771+00000+0001T   00009648+0006471313          1400 IA4515               2AZ
710683003710683018-050000     710683006003000412679MUG OCC LOVE TWIN BEAR 0000001000+00006139+00000+0001T   00006139+0000001313          1400 IA4515               2AZ
710683004710683001-000175     710683006001023788108B/MUG GLS LOVE 380ML   0000001000+00004385+00000+0001T   00004385+0000001313          1400 IA4515               2AZ
710683005710683089-000027     710683006003000254071KEY CHAIN MOM/DAD ASSTD0000001000+00001753+00000+0001T   00001753+0000001313          1400 IA4205               2AZ
710684000710684               710684               170213GA     1400+00000+GA0000010468+0000010468+000000000+000001467+0000011935+0000000000+I40000011935+0000000000+Z
710684001710684304-001114     710684006001023738219FLWR BUNCH ROSES/LILY  0000001000+00007893+00000+0001T   00007893+0000001315          1400 IA4510               2AZ
710684002710684077-000311     710684006001023608666GIFT-BAG 11X14CM GLOSS 0000002000+00000613+00000+0001T   00000613+0000001315          1400 IA4112               2AZ
710684003710684077-000310     710684006001023608635GIFT-BAG 18X23CM GLOSS 0000001000+00001314+00000+0001T   00001314+0000001315          1400 IA4112               2AZ
710684004710684112-116038     710684006003000534906TCS CARRIER BAG MIDI   0000001000+00000035+00000+0001T   00000035+0000001315          1400 IA4090               2AZ
710685000710685               710685               170213GA     1400+00000+GA0000007893-0000007893-000000000+000001106-0000008999-0000000000+I40000008999-0000000000+Z
710685001710685304-001114     710685006001023738219FLWR BUNCH ROSES/LILY  0000001000-00007893+00000+0001T   00007893+0000001318          1400 IA45102IC            2 Z
710686000710686               710686               170213GA     1400+00000+GA0000002366+0000002366+000000000+000000332+0000002698+0000000000+I40000002698+0000000000+Z
710686001710686077-000315     710686006003000181186GIFT-BAG 20x28cm MATT  0000001000+00001578+00000+0001T   00001578+0000001319          1400 IA4112               2AZ
710686002710686903-000200     710686006009826020234SWT CHOC RP CHOCO 23G  0000001000+00000788+00000+0001T   00000788+0000001319          1400 IA4150               2AZ
710687000710687               710687               170213GA     1400+00000+GA0000003506+0000003506+000000000+000000491+0000003990+0000000007+I20000000000+0000003990+Z
710687001710687903-005000     710687006002580020007SWT CT MALLOW FISH 120g0000001000+00001314+00000+0001T   00001314+0000001320          1400 IA4150               2AZ
710687002710687200-000067     710687006003000330683STRAWS DRINKING 100PC  0000001000+00002192+00000+0001T   00002192+0000001320          1400 IA4214               2AZ
710688000710688               710688               170213GA     1400+00000+GA0000008014+0000008014+000000000+000001131+0000009145+0000000000+I40000009145+0000000000+Z
710688001710688266-003012     710688006001023786128BOYS P/SET ARCHERY 4pc 0000001000+00002630+00000+0001T   00002630+0000001334          1400 IA4710               2AZ
710688002710688366-002695     710688006003000222766DRESS UP HAT ROUND GLIT0000001000+00002192+00000+0001T   00002192+0000001334          1400 IA4131               2AZ
710688003710688112-116069     710688006003000535064TCS CARRIER BAG JUMBO  0000001000+00000048+00000+0001T   00000048+0000001334          1400 IA4090               2AZ
710688004710688903-000183     710688006003000451043SWT LB HEART LOLLY     0000008000+00000393+00000+0001T   00000393+0000001334          1400 IA4150               2AZ
710689000710689               710689               170213GA     1400+00000+GA0000001753+0000001753+000000000+000000246+0000001990+0000000009+I20000000000+0000001990+Z
710689001710689080-000113     710689006003000237449CARD&ENVLPE - LOVE     0000001000+00001753+00000+0001T   00001753+0000001334          1400 IA4112               2AZ
710690000710690               710690               170213GA     1400+00000+GA0000001490+0000001490+000000000+000000209+0000001690+0000000009+I20000000000+0000001690+Z
710690001710690077-000304     710690006001023483232GIFT-BAG 25X32CM E/DAY 0000001000+00001490+00000+0001T   00001490+0000001342          1400 IA4112               2AZ
710691000710691               710691               170213GA     1400+00000+GA0000003945+0000003945+000000000+000000553+0000004490+0000000008+I20000000000+0000004490+Z
710691001710691080-000127     710691006003000424351VALENTINES DAY 36x24CM 0000001000+00002192+00000+0001T   00002192+0000001349          1400 IA4112               2AZ
710691002710691077-000309     710691006001023608604GIFT-BAG 25X32CM GLOSS 0000001000+00001753+00000+0001T   00001753+0000001349          1400 IA4112               2AZ
710692000710692               710692               170213GA     1400+00000+GA0000001753+0000001753+000000000+000000246+0000001990+0000000009+I20000000000+0000001990+Z
710692001710692077-000906     710692006003000410804G/WRAP 700mmx1m BIRTHDA0000001000+00001753+00000+0001T   00001753+0000001352          1400 CT1112               2AZ
710693000710693               710693               170213GA     1400+00000+GA0000005260+0000005260+000000000+000000738+0000005990+0000000008+I20000000000+0000005990+Z
710693001710693077-000270     710693006003000395453GIFT-BAG PPR JMB 33X45 0000002000+00002630+00000+0001T   00002630+0000001359          1400 CT1112               2AZ
710694000710694               710694               170213GA     1400+00000+GA0000009423+0000009423+000000000+000001321+0000010740+0000000004+I20000000000+0000010740+Z
710694001710694080-000127     710694006003000424351VALENTINES DAY 36x24CM 0000001000+00002192+00000+0001T   00002192+0000001402          1400 CT1112               2AZ
710694002710694040-000120     710694006001023772695C/HOLDER GLS LANTERN   0000001000+00001753+00000+0001T   00002630+0008171402          1400 CT1510               2AZ
710694003710694016-009000     710694006001023816085CERAMIC CREAMER COW    0000001000+00002630+00000+0001T   00002630+0000001402          1400 CT1300               2AZ
710694004710694018-000177     710694006001023797513MUG MINI LOVE ASSTD    0000003000+00000700+00000+0001T   00000700+0000001402          1400 CT1515               2AZ
710694005710694112-116069     710694006003000535064TCS CARRIER BAG JUMBO  0000001000+00000048+00000+0001T   00000048+0000001402          1400 CT1090               2AZ
710694006710694018-000177     710694006001023797513MUG MINI LOVE ASSTD    0000001000+00000700+00000+0001T   00000700+0000001402          1400 CT1515               2AZ
710695000710695               710695               170213GA     1400+00000+GA0000000876+0000000876+000000000+000000123+0000000990+0000000009+I20000000000+0000000990+Z
710695001710695027-078281     710695006001023767806SCOURERS BRS 8g  PACK-30000001000+00000876+00000+0001T   00000876+0000001403          1400 CT1212               2AZ
710696000710696               710696               170213GA     1400+00000+GA0000026304+0000026304+000000000+000003685+0000029989+0000000000+I10000025989+0000004000+Z
710696001710696027-000238     710696006001246634176MOP SWIFTA WITH WIPES  0000001000+00003507+00000+0001T   00003507+0000001409          1400 CT1212               2AZ
710696002710696027-000239     710696006001246634152MOP SWIFTA REFILLS 12PC0000001000+00000876+00000+0001T   00000876+0000001409          1400 CT1212               2AZ
710696003710696051-002402     710696006001023518347TRIGGER-SPRAYER  500ml 0000002000+00001753+00000+0001T   00001753+0000001409          1400 CT1820               2AZ
710696004710696567-010640     710696009780710522412BK ACTIVITY ASSTD      0000002000+00003507+00000+0001T   00004385+0008131409          1400 CT1757               2AZ
710696005710696027-000852     710696006003000431007MOP TWIST HANDLE 1.3M  0000001000+00008771+00000+0001T   00008771+0000001409          1400 CT1212               2AZ
710696006710696027-008813     710696006001023552334DUSTER RETRCTABLE 122cm0000001000+00002630+00000+0001T   00002630+0000001409          1400 CT1212               2AZ
710697000710697               710697               170213GA     1400+00000+GA0000002454+0000002454+000000000+000000344+0000002790+0000000008+I20000000000+0000002790+Z
710697001710697077-000245     710697006001023759214GIFT-RIBBON METALLICx2 0000002000+00001227+00000+0001T   00001227+0000001437          1400 CT1112               2AZ
710698000710698               710698               170213GA     1400+00000+GA0000016663+0000016663+000000000+000002334+0000018990+0000000007+I20000000000+0000018990+Z
710698001710698266-000605     710698006003000599363BOYS P/SET PARACHUTE   0000001000+00004385+00000+0001T   00004385+0000001437          1400 CT1710               2AZ
710698002710698206-000320     710698006003000632909BOTTLE STOPPER+MARKERS 0000001000+00005262+00000+0001T   00005262+0000001437          1400 CT1321               2AZ
710698003710698065-003639     710698006001023787620GUITAR ROCKER          0000001000+00007016+00000+0001T   00007016+0000001437          1400 CT1745               2AZ
710699000710699               710699               170213GA     1400+00000+GA0000013540+0000013540+000000000+000001897+0000015430+0000000007+I20000000000+0000015430+Z
710699001710699018-050000     710699006003000412679MUG OCC LOVE TWIN BEAR 0000001000+00006139+00000+0001T   00006139+0000001446          1400 CT1515               2AZ
710699002710699077-000318     710699006001023609755GIFT-BAG 18X23CM E/D AN0000001000+00001227+00000+0001T   00001227+0000001446          1400 CT1112               2AZ
710699003710699368-000701     710699006003000477432PLUSH DOG              0000001000+00006139+00000+0001T   00006139+0000001446          1400 CT1745               2AZ
710699004710699112-116038     710699006003000534906TCS CARRIER BAG MIDI   0000001000+00000035+00000+0001T   00000035+0000001446          1400 CT1090               2AZ
710700000710700               710700               170213GA     1400+00000+GA0000005435+0000005435+000000000+000000762+0000006197+0000000000+I40000006197+0000000000+Z
710700001710700306-001024     710700006001023901910FIRST AID COOL/WARM GEL0000001000+00002192+00000+0001T   00002192+0000001449          1400 CT1200               2AZ
710700002710700034-078833     710700006001023857491SIGN BABY-ON-BOARD     0000001000+00001490+00000+0001T   00001490+0000001449          1400 CT1215               2AZ
710700003710700206-000135     710700006003000680450T/BAG HLDR SILICONE    0000001000+00001753+00000+0001T   00001753+0000001449          1400 CT1321               2AZ
710701000710701               710701               170213GA     1400+00000+GA0000013810+0000013810+000000000+000001938+0000015740+0000000008+I20000000000+0000015740+Z
710701001710701206-000450     710701006003000619863DRINKING JAR GLOBE     0000003000+00002630+00000+0001T   00002630+0000001451          1400 CT1321               2AZ
710701002710701077-000239     710701006003000160419GIFT-RIBBON ROLL PEARL 0000001000+00001753+00000+0001T   00001753+0000001451          1400 CT1112               2AZ
710701003710701077-000245     710701006001023759214GIFT-RIBBON METALLICx2 0000001000+00001227+00000+0001T   00001227+0000001451          1400 CT1112               2AZ
710701004710701206-000530     710701006003000620821BIRTHDAY CANDLES 6PC   0000001000+00001139+00000+0001T   00001753+0008181451          1400 CT1321               2AZ
710701005710701566-001228     710701006003000284153STICKERS CRYSTAL ASSTD 0000001000+00001753+00000+0001T   00001753+0000001451          1400 CT1130               2AZ
710701006710701112-116069     710701006003000535064TCS CARRIER BAG JUMBO  0000001000+00000048+00000+0001T   00000048+0000001451          1400 CT1090               2AZ
710702000710702               710702               170213GA     1400+00000+GA0000005699+0000005699+000000000+000000798+0000006497+0000000000+I40000006497+0000000000+Z
710702001710702006-000789     710702006001023148612CROWN BOY              0000001000+00002192+00000+0001T   00002192+0000001525          1400 CT1131               2AZ
710702002710702366-000301     710702006003000421077DRESSUP TIARA & EARRING0000001000+00003507+00000+0001T   00003507+0000001525          1400 CT1131               2AZ
710703000710703               710703               170213GA     1400+00000+GA0000004470+0000004470+000000000+000000627+0000005097+0000000000+I40000005097+0000000000+Z
710703001710703079-000807     710703006003000670277ART+CRAFT WOODEN STICKS0000003000+00001490+00000+0001T   00001490+0000001527          1400 CT1130               2AZ
710704000710704               710704               170213GA     1400+00000+GA0000011785+0000011785+000000000+000001651+0000013436+0000000000+I40000013436+0000000000+Z
710704001710704018-000136     710704006001023659026MUG OCC LOVE W/PLUSH   0000001000+00003507+00000+0001T   00003507+0000001623          1400 CT1515               2AZ
710704002710704903-000095     710704006001704011495SWT SPECKLED-EGGS 100G 0000001000+00002104+00000+0001T   00002104+0000001623          1400 CT1150               2AZ
710704003710704018-050000     710704006003000412679MUG OCC LOVE TWIN BEAR 0000001000+00006139+00000+0001T   00006139+0000001623          1400 CT1515               2AZ
710704004710704112-116038     710704006003000534906TCS CARRIER BAG MIDI   0000001000+00000035+00000+0001T   00000035+0000001623          1400 CT1090               2AZ
710705000710705               710705               170213GA     1400+00000+GA0000006660+0000006660+000000000+000000934+0000007594+0000000000+I40000007594+0000000000+Z
710705001710705033-005930     710705006001023678423PINS STRAIGHT 20g  CARD0000002000+00000876+00000+0001T   00000876+0000001624          1400 CT1200               2AZ
710705002710705071-081091     710705006001151010287STAED/GENKEM ALL-STICK 0000004000+00001227+00000+0001T   00001227+0000001624          1400 CT1130               2AZ
710706000710706               710706               170213GA     1400+00000+GA0000005349+0000005349+000000000+000000749+0000006098+0000000000+I40000006098+0000000000+Z
710706001710706080-000127     710706006003000424351VALENTINES DAY 36x24CM 0000001000+00002192+00000+0001T   00002192+0000001626          1400 CT1112               2AZ
710706002710706047-002041     710706006002521079170PLUG-ADAPTOR 2x16A 2x5A0000001000+00003157+00000+0001T   00003157+0000001626          1400 CT1880               2AZ
710707000710707               710707               170213GA     1400+00000+GA0000005996+0000005996+000000000+000000840+0000006830+0000000006+I20000000000+0000006830+Z
710707001710707018-005009     710707006001023725608MUG W/PLUSH-BEAR LOVE  0000001000+00003507+00000+0001T   00003507+0000001655          1400 CT1515               2AZ
710707002710707077-000315     710707006003000181186GIFT-BAG 20x28cm MATT  0000001000+00001578+00000+0001T   00001578+0000001655          1400 CT1112               2AZ
710707003710707077-000011-D   710707006001023808554TISSUE-WRAP WHITE 10PCE0000001000+00000876+00000+0001T   00000876+0000001655          1400 CT1112               2AZ
710707004710707112-116038     710707006003000534906TCS CARRIER BAG MIDI   0000001000+00000035+00000+0001T   00000035+0000001655          1400 CT1090               2AZ
710708000710708               710708               170213GA     1400+00000+GA0000004383+0000004383+000000000+000000615+0000004990+0000000008+I20000000000+0000004990+Z
710708001710708567-075699     710708006003000428168BK NOVEL CATEGORY A    0000001000+00002630+00000+0001T   00003069+0008191659          1400 CT1757               2AZ
710708002710708077-000382     710708006003000247820GIFT-BAG MED 18X23CM   0000001000+00001753+00000+0001T   00001753+0000001659          1400 CT1112               2AZ
710709000710709               710709               170213GA     1400+00000+GA0000003507+0000003507+000000000+000000491+0000003990+0000000008+I20000000000+0000003990+Z
710709001710709301-085004     710709006003000420469ORN LOVE PLAQUE 21X10CM0000001000+00003507+00000+0001T   00003946+0006471701          1400 CT1505               2AZ
710710000710710               710710               170213GA     1400+00000+GA0000009505+0000009505+000000000+000001332+0000010837+0000000000+I40000010837+0000000000+Z
710710001710710077-000303     710710006001023593757GIFT-BAG PAPER MED     0000001000+00001578+00000+0001T   00001578+0000001703          1400 CT1112               2AZ
710710002710710080-000113     710710006003000237449CARD&ENVLPE - LOVE     0000001000+00001753+00000+0001T   00001753+0000001703          1400 CT1112               2AZ
710710003710710567-075470     710710009780007795352BK NOVEL CATEGORY B    0000001000+00006139+00000+0001T   00006139+0000001703          1400 CT1757               2AZ
710710004710710112-116038     710710006003000534906TCS CARRIER BAG MIDI   0000001000+00000035+00000+0001T   00000035+0000001703          1400 CT1090               2AZ
710711000710711               710711               170213GA     1400+00000+GA0000002804+0000002804+000000000+000000394+0000003190+0000000008+I20000000000+0000003190+Z
710711001710711463-000124     710711006001023678768SWIM-GOGGLES           0000001000+00001753+00000+0001T   00001753+0000001703          1400 CT1785               2AZ
710711002710711903-002850     710711000000087108262MENTOS ROLL FRUIT      0000001000+00001051+00000+0001T   00001051+0000001703          1400 CT1150               2AZ
710712000710712               710712               170213GA     1400+00000+GA0000011776+0000011776+000000000+000001654+0000013430+0000000000+I40000013430+0000000000+Z
710712001710712304-001142     710712006003000679256FLWR MINI SUCCULENT 7CM0000002000+00001490+00000+0001T   00001490+0000001707          1400 CT1510               2AZ
710712002710712304-001141     710712006003000679133FLOWER MINI SUCCULENT  0000007000+00001139+00000+0001T   00001139+0000001707          1400 CT1510               2AZ
710712003710712903-000200     710712006009826020234SWT CHOC RP CHOCO 23G  0000001000+00000788+00000+0001T   00000788+0000001707          1400 CT1150               2AZ
710712004710712112-116038     710712006003000534906TCS CARRIER BAG MIDI   0000001000+00000035+00000+0001T   00000035+0000001707          1400 CT1090               2AZ
710713000710713               710713               170213GA     1400+00000+GA0000007892+0000007892+000000000+000001106+0000008998+0000000000+I10000007998+0000001000+Z
710713001710713016-002010     710713006003000674480S/BOTTLE GLS W/CAP 1L  0000002000+00003946+00000+0001T   00003946+0000001711          1400 CT1300               2AZ
710714000710714               710714               170213GA     1400+00000+GA0000007892+0000007892+000000000+000001106+0000008998+0000000000+I40000008998+0000000000+Z
710714001710714079-000273     710714006003000160327PAINT BRUSHES THICK    0000001000+00002630+00000+0001T   00002630+0000001713          1400 CT1130               2AZ
710714002710714006-000345     710714006003000677726GLOW STICKS 50x19.5cm  0000001000+00005262+00000+0001T   00005262+0000001713          1400 CT1131               2AZ
710715000710715               710715               170213GA     1400+00000+GA0000005262+0000005262+000000000+000000737+0000005999+0000000000+I40000005999+0000000000+Z
710715001710715366-002195     710715006001023990549DRESS UP WINGS FEATHER 0000001000+00005262+00000+0001T   00005262+0000001715          1400 CT1131               2AZ
710716000710716               710716               170213GA     1400+00000+GA0000001139+0000001139+000000000+000000160+0000001290+0000000009+I20000000000+0000001290+Z
710716001710716903-000698     710716006002099007032SWT CANDY ECLAIRS 90g  0000001000+00001139+00000+0001T   00001139+0000001716          1400 CT1150               2AZ
710717000710717               710717               170213GA     1400+00000+GA0000007928+0000007928+000000000+000001111+0000009039+0000000000+I40000009039+0000000000+Z
710717001710717174-000308     710717006003000684939TRAVEL NECK-PILLOW FOAM0000001000+00007893+00000+0001T   00007893+0000001721          1400 CT1205               2AZ
710717002710717112-116038     710717006003000534906TCS CARRIER BAG MIDI   0000001000+00000035+00000+0001T   00000035+0000001721          1400 CT1090               2AZ
710718000710718               710718               170213GA     1400+00000+GA0000002192+0000002192+000000000+000000307+0000002490+0000000009+I20000000000+0000002490+Z
710718001710718018-000170     710718006001023775528MUG OCC. LOVE 2PC MINI 0000001000+00002192+00000+0001T   00002192+0000001722          1400 CT1515               2AZ
710719000710719               710719               170213GA     1400+00000+GA0000002678+0000002678+000000000+000000376+0000003050+0000000004+I20000000000+0000003050+Z
710719001710719077-000270     710719006003000395453GIFT-BAG PPR JMB 33X45 0000001000+00002630+00000+0001T   00002630+0000001723          1400 CT1112               2AZ
710719002710719112-116069     710719006003000535064TCS CARRIER BAG JUMBO  0000001000+00000048+00000+0001T   00000048+0000001723          1400 CT1090               2AZ
710720000710720               710720               170213GA     1400+00000+GA0000004383+0000004383+000000000+000000615+0000004990+0000000008+I20000000000+0000004990+Z
710720001710720077-000235     710720006003000160211GIFT-RIBBON ROLL METALC0000001000+00002630+00000+0001T   00002630+0000001734          1400 CT1112               2AZ
710720002710720079-003002     710720006003000447886A/TUBE 75ML RED        0000001000+00001753+00000+0001T   00001753+0000001734          1400 CT1130               2AZ
710721000710721               710721               170213GA     1400+00000+GA0000011448+0000011448+000000000+000001604+0000013050+0000000002+I20000000000+0000013050+Z
710721001710721077-000289     710721006001023901996GIFT BOX 20x25x11cm    0000001000+00001753+00000+0001T   00001753+0000001734          1400 CT1112               2AZ
710721002710721018-030000     710721006003000421060MUG OCCASIONS LOVE 2PCE0000001000+00004385+00000+0001T   00004385+0000001734          1400 CT1515               2AZ
710721003710721030-001122     710721006003000253487PLAQUE-WALL W/SAYING   0000001000+00005262+00000+0001T   00007016+0008121734          1400 CT1505               2AZ
710721004710721112-116069     710721006003000535064TCS CARRIER BAG JUMBO  0000001000+00000048+00000+0001T   00000048+0000001734          1400 CT1090               2AZ
710722000710722               710722               170213GA     1400+00000+GA0000005260+0000005260+000000000+000000737+0000005990+0000000007+I20000000000+0000005990+Z
710722001710722077-000289     710722006001023901996GIFT BOX 20x25x11cm    0000001000+00001753+00000+0001T   00001753+0000001735          1400 CT1112               2AZ
710722002710722031-000002-A   710722006003000247103P/FRAME LOVE 7.5X7.5CM 0000001000+00003507+00000+0001T   00003507+0000001735          1400 CT1510               2AZ
710723000710723               710723               170213GA     1400+00000+GA0000001753+0000001753+000000000+000000246+0000001990+0000000009+I20000000000+0000001990+Z
710723001710723080-000109     710723006003000237203CARD&ENVLPE BDAY-BRIGHT0000001000+00001753+00000+0001T   00001753+0000001743          1400 CT1112               2AZ
710724000710724               710724               170213GA     1400+00000+GA0000001051+0000001051+000000000+000000148+0000001190+0000000009+I20000000000+0000001190+Z
710724001710724079-009702-C   710724008427973059309PAPER SIRIO A2 VIOLET  0000001000+00001051+00000+0001T   00001051+0000001747          1400 CT1130               2AZ
710725000710725               710725               170213GA     1400+00000+GA0000004733+0000004733+000000000+000000664+0000005397+0000000000+I40000005397+0000000000+Z
710725001710725206-000630     710725006003000631919SPECTACLE CLEANING BRUS0000001000+00001227+00000+0001T   00001227+0000001753          1400 CT1321               2AZ
710725002710725565-000043     710725006003000109562NOVELTY BALL FUNNY FACE0000001000+00001753+00000+0001T   00001753+0000001753          1400 CT1745               2AZ
710725003710725077-000382     710725006003000247820GIFT-BAG MED 18X23CM   0000001000+00001753+00000+0001T   00001753+0000001753          1400 CT1112               2AZ
A17021300                                          13081460GASLAVE 2                       IA42IC
A17021301                                          14315274GASLAVE 2                       CT12IC
B71065000                                          170213GA903-000200     09465004SLAVE 2     CT12IC0000040000+0000004000+0000000000000+
B71065001                                          170213GA903-000183     09471989SLAVE 2     CT12IC0000040000+0000003000+0000000000000+
M17021391                              CASH        GASLAVE 2                       Z-REPORT No.   646TOTAL (Sales - Refunds)           5603.97       CASH TO BE BANKED                 2641.90       DEBIT CARDS                          0.00       CREDIT CARDS                      2962.07       Z-READING                         5603.97       AIRTIME DEBIT CARD SALES             0.00       AIRTIME CARD SALES                   0.00       OVERS/UNDERS                         0.00       AIRTIME CASH SALES                   0.00       GIFT CARDS                           0.00       GIFT CARD CASH SALES                 0.00       T O T A L  CASH PAYOUTS              0.00                                                                                                                                                                                                                                                                                                                                                      Z
M17021392                              CASH        GAABSENT                                                                                                                                                                                          ANNUAL LEAVE                                                                                                                                                                                    DAY OFF                                                                                                                                                                                         COMMENTS                                                                                                                                                                                                                                                                                                                                                                                       Z
Y17021300                                          GA00000000499670+000076
ZGA17021321073 SLAVE 2      SALES DATA                     NEXT INVOICE NO.  710726 0646
F092570079-000198         1701031339120000022ICSLAVE 2
X GA Slave 2 First invoice 710649 170213 Last invoice 710725 170213 Next invoice 710726 Total number of records 000000286 clbackup completed 21:07:46
