920815000920815               920815               170213GB     1400+00000+GB0000006306+0000006306+000000000+000000888+0000007190+0000000004+I20000000000+0000007190+Z
920815001920815079-009702-A   920815008427973059408PAPER SIRIO A2 BLACK   0000006000+00001051+00000+0001T   00001051+0000000905          1400 TX61301IC            1AZ
920816000920816               920816               170213GB     1400+00000+GB0000012278+0000012278+000000000+000001720+0000013990+0000000008+I20000000000+0000013990+Z
920816001920816567-075497     920816009780799381634BK NOVEL ROMANCE AFR   0000001000+00006139+00000+0001T   00006139+0000000941          1400 TX6757               1AZ
920816002920816567-075497     920816009780799381665BK NOVEL ROMANCE AFR   0000001000+00006139+00000+0001T   00006139+0000000941          1400 TX6757               1AZ
920817000920817               920817               170213GB     1400+00000+GB0000015391+0000015391+000000000+000002157+0000017548+0000000000+I40000017548+0000000000+Z
920817001920817112-116069     920817006009681820277TCS CARRIER BAG JUMBO  0000001000+00000048+00000+0001T   00000048+0000000944          1400 TX6090               1AZ
920817002920817048-000836     920817006001023765208TORCH RUBBER 3LED MED  0000001000+00004385+00000+0001T   00004385+0000000944          1400 TX6305               1AZ
920817003920817048-000826     920817006001023753045TORCH LED W/ZOOM SMALL 0000001000+00003507+00000+0001T   00003507+0000000944          1400 TX6305               1AZ
920817004920817046-000015     920817006001023680839BATTERIES SIZE:D   2PCE0000001000+00002367+00000+0001T   00002367+0000000944          1400 TX6312               1AZ
920817005920817046-000014     920817006001023725387BATTERIES SIZE:AAA 4PCE0000001000+00001139+00000+0001T   00001139+0000000944          1400 TX6312               1AZ
920817006920817306-000026     920817006003000207626COTTON WOOL ROLL 100G  0000001000+00002192+00000+0001T   00002192+0000000944          1400 TX6200               1AZ
920817007920817306-000024-A   920817006003000577309COTTON-WOOL-PADS 80PC  0000001000+00001753+00000+0001T   00001753+0000000944          1400 TX6200               1AZ
920818000920818               920818               170213GB     1400+00000+GB0000002630+0000002630+000000000+000000369+0000002990+0000000009+I20000000000+0000002990+Z
920818001920818262-000651     920818006001023754561DIE CAST SET 5PC RACER 0000001000+00002630+00000+0001T   00002630+0000001109          1400 TX6710               1AZ
920819000920819               920819               170213GB     1400+00000+GB0000008816+0000008816+000000000+000001236+0000010052+0000000000+I40000010052+0000000000+Z
920819001920819083-000050     920819006001023898593LIGHTERS DISPOSABLE    0000002000+00000876+00000+0001T   00000876+0000001114          1400 TX6315               1AZ
920819002920819306-001660     920819006003000620579NAIL DRYING MACHINE    0000001000+00007016+00000+0001T   00007016+0000001114          1400 TX6200               1AZ
920819003920819112-116069     920819006009681820277TCS CARRIER BAG JUMBO  0000001000+00000048+00000+0001T   00000048+0000001114          1400 TX6090               1AZ
920820000920820               920820               170213GB     1400+00000+GB0000000832+0000000832+000000000+000000117+0000000940+0000000009+I20000000000+0000000940+Z
920820001920820159-000150-B   920820006005387002009SOAP-BOX PL ASSORTED   0000001000+00000832+00000+0001T   00000832+0000001114          1400 TX6200               1AZ
920821000920821               920821               170213GB     1400+00000+GB0000012764+0000012764+000000000+000001789+0000014553+0000000000+I40000014553+0000000000+Z
920821001920821301-085007     920821006003000673698ORN OCC. LOVE S/PLAQUE 0000001000+00007893+00000+0001T   00007893+0000001119          1400 TX6505               1AZ
920821002920821301-085001     920821006003000297610ORN WATERBALL LOVE ASST0000001000+00004823+00000+0001T   00004823+0000001119          1400 TX6505               1AZ
920821003920821112-116069     920821006009681820277TCS CARRIER BAG JUMBO  0000001000+00000048+00000+0001T   00000048+0000001119          1400 TX6090               1AZ
920822000920822               920822               170213GB     1400+00000+GB0000015786+0000015786+000000000+000002211+0000017990+0000000007+I20000000000+0000017990+Z
920822001920822077-000270     920822006003000395453GIFT-BAG PPR JMB 33X45 0000001000+00002630+00000+0001T   00002630+0000001120          1400 TX6112               1AZ
920822002920822030-000031-A   920822006003000457588PLAQUE W/WORDS ASSTD   0000001000+00004385+00000+0001T   00004823+0006471120          1400 TX6505               1AZ
920822003920822031-000924     920822006001023669964P/FRAME COLLAGE PL     0000001000+00008771+00000+0001T   00008771+0000001120          1400 TX6510               1AZ
920823000920823               920823               170213GB     1400+00000+GB0000002192+0000002192+000000000+000000307+0000002490+0000000009+I20000000000+0000002490+Z
920823001920823566-000359     920823006003000582709STICKER BOOK LOVE SPARK0000001000+00002192+00000+0001T   00002192+0000001133          1400 TX6130               1AZ
920824000920824               920824               170213GB     1400+00000+GB0000003554+0000003554+000000000+000000499+0000004053+0000000000+I40000004053+0000000000+Z
920824001920824077-000290     920824006001023902023GIFT BOX 26x32x13cm    0000001000+00001753+00000+0001T   00001753+0000001141          1400 TX6112               1AZ
920824002920824016-006515     920824006003000295555S/JAR GLS EMBOSS. 250ML0000001000+00001753+00000+0001T   00001753+0000001141          1400 TX6300               1AZ
920824003920824112-116069     920824006009681820277TCS CARRIER BAG JUMBO  0000001000+00000048+00000+0001T   00000048+0000001141          1400 TX6090               1AZ
920825000920825               920825               170213GB     1400+00000+GB0000000613+0000000613+000000000+000000086+0000000690+0000000009+I20000000000+0000000690+Z
920825001920825083-000055     920825006003000003853LIGHTER ELCTRNC REFILBL0000001000+00000613+00000+0001T   00000613+0000001144          1400 TX6315               1AZ
920826000920826               920826               170213GB     1400+00000+GB0000006139+0000006139+000000000+000000860+0000006999+0000000000+I40000006999+0000000000+Z
920826001920826039-809558     920826006003000344376CANDLE PILLAR 12CM 4AST0000001000+00006139+00000+0001T   00006139+0000001147          1400 TX6510               1AZ
920827000920827               920827               170213GB     1400+00000+GB0000009645+0000009645+000000000+000001351+0000010996+0000000000+I40000010996+0000000000+Z
920827001920827077-000299-A   920827006003000670888GIFT-BAG PAPER JMB LOVE0000001000+00001753+00000+0001T   00001753+0000001149          1400 TX6112               1AZ
920827002920827030-000031-A   920827006003000457588PLAQUE W/WORDS ASSTD   0000001000+00004385+00000+0001T   00004823+0006471149          1400 TX6505               1AZ
920827003920827018-005009     920827006001023725608MUG W/PLUSH-BEAR LOVE  0000001000+00003507+00000+0001T   00003507+0000001149          1400 TX6515               1AZ
920828000920828               920828               170213GB     1400+00000+GB0000006185+0000006185+000000000+000000867+0000007050+0000000002+I20000000000+0000007050+Z
920828001920828112-116069     920828006009681820277TCS CARRIER BAG JUMBO  0000001000+00000048+00000+0001T   00000048+0000001201          1400 TX6090               1AZ
920828002920828082-026204     920828006001023816443R/GLASSES STRINGS 2PCE 0000001000+00000876+00000+0001T   00000876+0000001201          1400 TX6160               1AZ
920828003920828033-005931     920828006001023678447PINS ON-WHEEL PEARLIZED0000001000+00000876+00000+0001T   00000876+0000001201          1400 TX6200               1AZ
920828004920828029-000009     920828006001023809575BUCKET GALV  2L        0000001000+00004385+00000+0001T   00004385+0000001201          1400 TX6510               1AZ
920829000920829               920829               170213GB     1400+00000+GB0000004646+0000004646+000000000+000000652+0000005290+0000000008+I20000000000+0000005290+Z
920829001920829140-006008     920829006001023803214FLY-SWATTERS   SET-OF-40000001000+00002630+00000+0001T   00002630+0000001201          1400 TX6830               1AZ
920829002920829174-008025     920829006009654960399TRAVEL TUBS 4-PACK 30ml0000001000+00002016+00000+0001T   00002016+0000001201          1400 TX6205               1AZ
920830000920830               920830               170213GB     1400+00000+GB0000002104+0000002104+000000000+000000295+0000002399+0000000000+I40000002399+0000000000+Z
920830001920830903-000095     920830006001704011495SWT SPECKLED-EGGS 100G 0000001000+00002104+00000+0001T   00002104+0000001203          1400 TX6150               1AZ
920831000920831               920831               170213GB     1400+00000+GB0000008242+0000008242+000000000+000001155+0000009397+0000000000+I40000009397+0000000000+Z
920831001920831084-009410     920831006001023477651SCISSORS 21cm PL-HANDLE0000001000+00002630+00000+0001T   00002630+0000001206          1400 TX6200               1AZ
920831002920831002-000970     920831006001023770578FUNNELS 3PCE WHITE     0000001000+00001227+00000+0001T   00001227+0000001206          1400 TX6300               1AZ
920831003920831029-000009     920831006001023809575BUCKET GALV  2L        0000001000+00004385+00000+0001T   00004385+0000001206          1400 TX6510               1AZ
920832000920832               920832               170213GB     1400+00000+GB0000009690+0000009690+000000000+000001357+0000011040+0000000007+I20000000000+0000011040+Z
920832001920832046-000012     920832006904708013062BATTERIES AA  CARD-OF-40000002000+00001314+00000+0001T   00001314+0000001206          1400 TX6312               1AZ
920832002920832560-000300     920832006001023714879DINOSAURS 12PC         0000001000+00003507+00000+0001T   00003507+0000001206          1400 TX6745               1AZ
920832003920832466-001017     920832006003000590544CRICKET-BAT PL W/BALL  0000001000+00003507+00000+0001T   00003507+0000001206          1400 TX6785               1AZ
920832004920832112-116069     920832006009681820277TCS CARRIER BAG JUMBO  0000001000+00000048+00000+0001T   00000048+0000001206          1400 TX6090               1AZ
920833000920833               920833               170213GB     1400+00000+GB0000003504+0000003504+000000000+000000492+0000003990+0000000006+I20000000000+0000003990+Z
920833001920833036-000011     920833006003000675890LINT REMOVER REFILL    0000004000+00000876+00000+0001T   00000876+0000001213          1400 TX6212               1AZ
920834000920834               920834               170213GB     1400+00000+GB0000007016+0000007016+000000000+000000983+0000007990+0000000009+I20000000000+0000007990+Z
920834001920834065-003639     920834006001023787620GUITAR ROCKER          0000001000+00007016+00000+0001T   00007016+0000001214          1400 TX6745               1AZ
920835000920835               920835               170213GB     1400+00000+GB0000001314+0000001314+000000000+000000184+0000001490+0000000008+I20000000000+0000001490+Z
920835001920835903-000598     920835006003000607990SWEET CRAYON 15cm J/B  0000001000+00001314+00000+0001T   00001314+0000001216          1400 TX6150               1AZ
920836000920836               920836               170213GB     1400+00000+GB0000005873+0000005873+000000000+000000823+0000006690+0000000006+I20000000000+0000006690+Z
920836001920836018-000136     920836006001023659026MUG OCC LOVE W/PLUSH   0000001000+00003507+00000+0001T   00003507+0000001219          1400 TX6515               1AZ
920836002920836077-000303     920836006001023593757GIFT-BAG PAPER MED     0000001000+00001578+00000+0001T   00001578+0000001219          1400 TX6112               1AZ
920836003920836077-000010-D   920836006001023123886CREPE-PAPER WHITE      0000001000+00000788+00000+0001T   00000788+0000001219          1400 TX6112               1AZ
920837000920837               920837               170213GB     1400+00000+GB0000008819+0000008819+000000000+000001235+0000010050+0000000004+I20000000000+0000010050+Z
920837001920837567-010162     920837006003000485123BOOK TOP ASSTD NOVELS  0000001000+00008771+00000+0001T   00008771+0000001221          1400 TX6757               1AZ
920837002920837112-116069     920837006009681820277TCS CARRIER BAG JUMBO  0000001000+00000048+00000+0001T   00000048+0000001221          1400 TX6090               1AZ
920838000920838               920838               170213GB     1400+00000+GB0000012149+0000012149+000000000+000001702+0000013851+0000000000+I40000013851+0000000000+Z
920838001920838077-000348     920838006001023483287GIFT-BOWS 4,5cm 8PCE   0000001000+00001578+00000+0001T   00001578+0000001235          1400 TX6112               1AZ
920838002920838077-000150-D   920838006003000054343GIFT-WRAP CELLPHANE CLR0000002000+00000876+00000+0001T   00000876+0000001235          1400 TX6112               1AZ
920838003920838019-000087     920838006001023797223VASE GLASS FOOTED ASSTD0000001000+00008771+00000+0001T   00008771+0000001235          1400 TX6510               1AZ
920838004920838112-116069     920838006009681820277TCS CARRIER BAG JUMBO  0000001000+00000048+00000+0001T   00000048+0000001235          1400 TX6090               1AZ
920839000920839               920839               170213GB     1400+00000+GB0000001490+0000001490+000000000+000000209+0000001690+0000000009+I20000000000+0000001690+Z
920839001920839565-000600     920839006003000643721NOVELTY WINDOW WALKER  0000001000+00001490+00000+0001T   00001490+0000001236          1400 TX6745               1AZ
920840000920840               920840               170213GB     1400+00000+GB0000027600+0000027600+000000000+000003875+0000031470+0000000005+I20000000000+0000031470+Z
920840001920840304-001204     920840006001023737984FLOWER OCC. TEDDY/ROSES0000015000+00001402+00000+0001T   00001490+0006471239          1400 TX6510               1AZ
920840002920840077-000310     920840006001023608635GIFT-BAG 18X23CM GLOSS 0000005000+00001314+00000+0001T   00001314+0000001239          1400 TX6112               1AZ
920841000920841               920841               170213GB     1400+00000+GB0000006359+0000006359+000000000+000000891+0000007250+0000000000+I20000000000+0000007250+Z
920841001920841079-013032-F   920841006003000496266FOAM NUMBERS           0000001000+00002192+00000+0001T   00002192+0000001246          1400 TX6130               1AZ
920841002920841150-000776     920841006001023839756UTILITY/TOOL-BOX PL    0000001000+00003507+00000+0001T   00003507+0000001246          1400 TX6810               1AZ
920841003920841112-116069     920841006009681820277TCS CARRIER BAG JUMBO  0000001000+00000048+00000+0001T   00000048+0000001246          1400 TX6090               1AZ
920841004920841079-009700-B   920841006003000547661PAPER SIRIO A4 WHITE   0000001000+00000306+00000+0001T   00000306+0000001246          1400 TX6130               1AZ
920841005920841079-009700-D   920841006003000545711PAPER SIRIO A4 RED COL.0000001000+00000306+00000+0001T   00000306+0000001246          1400 TX6130               1AZ
920842000920842               920842               170213GB     1400+00000+GB0000000002-0000000002-000000000+000000000+0000000010-0000000008+I20000000000+0000000010-Z
920842001920842563-000318-L   920842006003000407088SERVIETTES 33cm RED    0000001000-00002192+00000+0001T   00002192+0000001257          1400 TX62142IC            1 Z
920842002920842077-000151     920842006008766114676GIFT-WRAP C/PHANE ASSTD0000001000+00000876+00000+0001T   00000876+0000001257          1400 TX6112               1 Z
920842003920842903-000194     920842006009826020616SWT CHOC RP LOLLY 25G  0000001000+00001314+00000+0001T   00001314+0000001257          1400 TX6150               1 Z
920843000920843               920843               170213GB     1400+00000+GB0000009430+0000009430+000000000+000001321+0000010750+0000000001+I20000000000+0000010750+Z
920843001920843112-116069     920843006009681820277TCS CARRIER BAG JUMBO  0000001000+00000048+00000+0001T   00000048+0000001311          1400 TX6090               1AZ
920843002920843027-078282     920843006001023767837SCOURER 25g SPIRAL-BALL0000001000+00000613+00000+0001T   00000613+0000001311          1400 TX6212               1AZ
920843003920843004-071206     920843006003000605156USB CABLE CHARGER      0000001000+00003507+00000+0001T   00003507+0000001311          1400 TX6310               1AZ
920843004920843056-065300     920843006001023625854CAR SUNSHIELD ALUM FOIL0000001000+00005262+00000+0001L   00005262+0000001311          1400 TX6860               1AZ
920844000920844               920844               170213GB     1400+00000+GB0000002678+0000002678+000000000+000000376+0000003050+0000000004+I20000000000+0000003050+Z
920844001920844031-000868-B   920844006001023798565P/FRAME PL BLCK 13X18CM0000001000+00002630+00000+0001T   00002630+0000001324          1400 TX6510               1AZ
920844002920844112-116069     920844006009681820277TCS CARRIER BAG JUMBO  0000001000+00000048+00000+0001T   00000048+0000001324          1400 TX6090               1AZ
920845000920845               920845               170213GB     1400+00000+GB0000005260+0000005260+000000000+000000738+0000005998+0000000000+I40000005998+0000000000+Z
920845001920845040-000170     920845006001023774613C/HOLDER GLASS CUP 6CM 0000002000+00002630+00000+0001T   00002630+0000001325          1400 TX6510               1AZ
920846000920846               920846               170213GB     1400+00000+GB0000000437+0000000437+000000000+000000062+0000000490+0000000009+I20000000000+0000000490+Z
920846001920846080-000133     920846006003000535613CARD&ENV MINI ASTD DSGN0000001000+00000437+00000+0001T   00000437+0000001329          1400 TX6112               1AZ
920847000920847               920847               170213GB     1400+00000+GB0000022848+0000022848+000000000+000003201+0000026040+0000000009+I20000000000+0000026040+Z
920847001920847112-116069     920847006009681820277TCS CARRIER BAG JUMBO  0000001000+00000048+00000+0001T   00000048+0000001331          1400 TX6090               1AZ
920847002920847039-000799     920847006001023692382CANDLES TEALITE 100PCE 0000002000+00008771+00000+0001T   00008771+0000001331          1400 TX6510               1AZ
920847003920847016-006514     920847006003000295432S/JAR EMBOSSED 500ML   0000002000+00001753+00000+0001T   00001753+0000001331          1400 TX6300               1AZ
920847004920847002-021057     920847006001023812032T/PICKS UMBRELLAS 10PCE0000002000+00000876+00000+0001T   00000876+0000001331          1400 TX6300               1AZ
920848000920848               920848               170213GB     1400+00000+GB0000011887+0000011887+000000000+000001665+0000013552+0000000000+I40000013552+0000000000+Z
920848001920848077-000303     920848006001023593757GIFT-BAG PAPER MED     0000001000+00001578+00000+0001T   00001578+0000001353          1400 TX6112               1AZ
920848002920848077-000299     920848006003000395576G/BAG 32x25cm LRG LOVE 0000001000+00001490+00000+0001T   00001490+0000001353          1400 TX6112               1AZ
920848003920848019-000040     920848006001023673640VASE GLS 30CM CYLINDER 0000001000+00008771+00000+0001T   00008771+0000001353          1400 TX6510               1AZ
920848004920848112-116069     920848006009681820277TCS CARRIER BAG JUMBO  0000001000+00000048+00000+0001T   00000048+0000001353          1400 TX6090               1AZ
920849000920849               920849               170213GB     1400+00000+GB0000003767+0000003767+000000000+000000528+0000004295+0000000000+I40000004295+0000000000+Z
920849001920849046-000012     920849006904708013062BATTERIES AA  CARD-OF-40000002000+00001314+00000+0001T   00001314+0000001354          1400 TX6312               1AZ
920849002920849046-000014     920849006001023725387BATTERIES SIZE:AAA 4PCE0000001000+00001139+00000+0001T   00001139+0000001354          1400 TX6312               1AZ
920850000920850               920850               170213GB     1400+00000+GB0000002677+0000002677+000000000+000000376+0000003050+0000000003+I20000000000+0000003050+Z
920850001920850112-116069     920850006009681820277TCS CARRIER BAG JUMBO  0000001000+00000048+00000+0001T   00000048+0000001420          1400 TX6090               1AZ
920850002920850077-000289     920850006001023901996GIFT BOX 20x25x11cm    0000001000+00001753+00000+0001T   00001753+0000001420          1400 TX6112               1AZ
920850003920850077-000011-D   920850006001023808554TISSUE-WRAP WHITE 10PCE0000001000+00000876+00000+0001T   00000876+0000001420          1400 TX6112               1AZ
920851000920851               920851               170213GB     1400+00000+GB0000002630+0000002630+000000000+000000369+0000002990+0000000009+I20000000000+0000002990+Z
920851001920851077-000270     920851006003000395453GIFT-BAG PPR JMB 33X45 0000001000+00002630+00000+0001T   00002630+0000001424          1400 TX6112               1AZ
920852000920852               920852               170213GB     1400+00000+GB0000007064+0000007064+000000000+000000990+0000008050+0000000004+I20000000000+0000008050+Z
920852001920852031-007000     920852006003000462476P/FRAME WDN DIST.10X15 0000001000+00007016+00000+0001T   00007016+0000001425          1400 TX6510               1AZ
920852002920852112-116069     920852006009681820277TCS CARRIER BAG JUMBO  0000001000+00000048+00000+0001T   00000048+0000001425          1400 TX6090               1AZ
920853000920853               920853               170213GB     1400+00000+GB0000000000+0000000000+000000000+000000000+0000000000+0000000000+I20000000000+0000000000+Z
920853001920853031-007000     920853006003000462476P/FRAME WDN DIST.10X15 0000001000-00007016+00000+0001T   00007016+0000001434          1400 TX65102IC            1 Z
920853002920853031-086219-C   920853006001023808905P/FRAME WDN A4 30X40CM 0000001000+00007016+00000+0001T   00007016+0000001434          1400 TX6510               1 Z
920854000920854               920854               170213GB     1400+00000+GB0000001753+0000001753+000000000+000000246+0000001990+0000000009+I20000000000+0000001990+Z
920854001920854077-000299-A   920854006003000670888GIFT-BAG PAPER JMB LOVE0000001000+00001753+00000+0001T   00001753+0000001438          1400 TX6112               1AZ
920855000920855               920855               170213GB     1400+00000+GB0000000876+0000000876+000000000+000000123+0000000990+0000000009+I20000000000+0000000990+Z
920855001920855071-005213     920855006001023690371CELLOTAPE 12mmx33m     0000001000+00000876+00000+0001T   00000876+0000001439          1400 TX6130               1AZ
920856000920856               920856               170213GB     1400+00000+GB0000006184+0000006184+000000000+000000868+0000007050+0000000002+I20000000000+0000007050+Z
920856001920856361-002000     920856006003000406012DOLL-FURNITURE ASSTD   0000001000-00004385+00000+0001T   00004385+0000001507          1400 TX67251IC            1AZ
920856002920856112-116069     920856006009681820277TCS CARRIER BAG JUMBO  0000001000-00000048+00000+0001T   00000048+0000001507          1400 TX60901IC            1AZ
920856003920856361-002000     920856006003000406012DOLL-FURNITURE ASSTD   0000001000+00004385+00000+0001T   00004385+0000001507          1400 TX6725               1AZ
920856004920856112-116069     920856006009681820277TCS CARRIER BAG JUMBO  0000002000+00000048+00000+0001T   00000048+0000001507          1400 TX6090               1AZ
920856005920856024-091100     920856006001023914224BAKING-CUPS PAPER 100PC0000001000+00001753+00000+0001T   00001753+0000001507          1400 TX6300               1AZ
920856006920856038-001804     920856006001023766618DOILIES 27cm RND PKT-100000001000+00001753+00000+0001T   00001753+0000001507          1400 TX6300               1AZ
920856007920856079-013101     920856006001023863706CRAFT SET DIY PIPE-CLNR0000001000+00002630+00000+0001T   00002630+0000001507          1400 TX6130               1AZ
920857000920857               920857               170213GB     1400+00000+GB0000008771+0000008771+000000000+000001228+0000009999+0000000000+I40000009999+0000000000+Z
920857001920857264-000927     920857000090159393009MAISTO MOTORBIKE 1:18  0000001000+00008771+00000+0001T   00008771+0000001530          1400 TX6710               1AZ
920858000920858               920858               170213GB     1400+00000+GB0000014204+0000014204+000000000+000001991+0000016195+0000000000+I40000016195+0000000000+Z
920858001920858077-000309     920858006001023608604GIFT-BAG 25X32CM GLOSS 0000001000+00001753+00000+0001T   00001753+0000001533          1400 TX6112               1AZ
920858002920858039-000108     920858006001023524034TEA-LITE CANDLES 8PCE  0000001000+00001490+00000+0001T   00001490+0000001533          1400 TX6510               1AZ
920858003920858018-050000     920858006003000412679MUG OCC LOVE TWIN BEAR 0000001000+00006139+00000+0001T   00006139+0000001533          1400 TX6515               1AZ
920858004920858018-000170     920858006001023775528MUG OCC. LOVE 2PC MINI 0000001000+00002192+00000+0001T   00002192+0000001533          1400 TX6515               1AZ
920858005920858304-000720     920858006001023843050F/BUNCH ROSE 6-HEAD AST0000001000+00002630+00000+0001T   00002630+0000001533          1400 TX6510               1AZ
920859000920859               920859               170213GB     1400+00000+GB0000009732+0000009732+000000000+000001366+0000011090+0000000008+I20000000000+0000011090+Z
920859001920859006-000214-A   920859006003000311057P/GIRL JNR INVITE 6PCE 0000002000+00001578+00000+0001T   00001578+0000001538          1400 TX6131               1AZ
920859002920859007-000119     920859006002324004126BOOK COVER PL          0000002000+00001051+00000+0001T   00001051+0000001538          1400 TX6130               1AZ
920859003920859071-005214     920859006003000152544CELLOTAPE SUPER REFILL 0000001000+00001490+00000+0001T   00001490+0000001538          1400 TX6130               1AZ
920859004920859007-000234     920859006009685850638LABELS 24PK            0000001000+00000306+00000+0001T   00000306+0000001538          1400 TX6130               1AZ
920859005920859112-116069     920859006009681820277TCS CARRIER BAG JUMBO  0000001000+00000048+00000+0001T   00000048+0000001538          1400 TX6090               1AZ
920859006920859071-005669     920859006003000153268STAPLER MINI W/STAPLES 0000001000+00002630+00000+0001T   00002630+0000001538          1400 TX6130               1AZ
920860000920860               920860               170213GB     1400+00000+GB0000002891+0000002891+000000000+000000406+0000003290+0000000007+I20000000000+0000003290+Z
920860001920860903-000221     920860006001704007382SWT EENY-MEENY-MOS 60G 0000001000+00000876+00000+0001T   00000876+0000001539          1400 TX6150               1AZ
920860002920860903-000481     920860006001704007481SWT MOO MILK-SHAKES 60G0000001000+00000876+00000+0001T   00000876+0000001539          1400 TX6150               1AZ
920860003920860903-000087     920860006001704000161SWT SPECKLED-EGGS 50G  0000001000+00001139+00000+0001T   00001139+0000001539          1400 TX6150               1AZ
920861000920861               920861               170213GB     1400+00000+GB0000006186+0000006186+000000000+000000867+0000007050+0000000003+I20000000000+0000007050+Z
920861001920861564-000010     920861006003000395477BUBBLE REFILL 1 LITRE  0000001000+00004385+00000+0001T   00004385+0000001540          1400 TX6131               1AZ
920861002920861006-000120     920861006001023346889BALLOONS 10PC MIX COL  0000001000+00001753+00000+0001T   00001753+0000001540          1400 TX6131               1AZ
920861003920861112-116069     920861006009681820277TCS CARRIER BAG JUMBO  0000001000+00000048+00000+0001T   00000048+0000001540          1400 TX6090               1AZ
920862000920862               920862               170213GB     1400+00000+GB0000003682+0000003682+000000000+000000516+0000004190+0000000008+I20000000000+0000004190+Z
920862001920862077-000299     920862006003000395576G/BAG 32x25cm LRG LOVE 0000001000+00001490+00000+0001T   00001490+0000001556          1400 TX6112               1AZ
920862002920862080-000127     920862006003000424351VALENTINES DAY 36x24CM 0000001000+00002192+00000+0001T   00002192+0000001556          1400 TX6112               1AZ
920863000920863               920863               170213GB     1400+00000+GB0000002678+0000002678+000000000+000000376+0000003050+0000000004+I20000000000+0000003050+Z
920863001920863027-009025     920863006003962000747DUSTPAN-SET PL         0000001000+00002630+00000+0001T   00002630+0000001558          1400 TX6212               1AZ
920863002920863112-116069     920863006009681820277TCS CARRIER BAG JUMBO  0000001000+00000048+00000+0001T   00000048+0000001558          1400 TX6090               1AZ
920864000920864               920864               170213GB     1400+00000+GB0000000613+0000000613+000000000+000000086+0000000690+0000000009+I20000000000+0000000690+Z
920864001920864007-000555     920864006001023848239MEMO-PAD MINI LOVE     0000001000+00000613+00000+0001T   00000613+0000001604          1400 TX6130               1AZ
920865000920865               920865               170213GB     1400+00000+GB0000003555+0000003555+000000000+000000498+0000004050+0000000003+I20000000000+0000004050+Z
920865001920865018-005009     920865006001023725608MUG W/PLUSH-BEAR LOVE  0000001000+00003507+00000+0001T   00003507+0000001607          1400 TX6515               1AZ
920865002920865112-116069     920865006009681820277TCS CARRIER BAG JUMBO  0000001000+00000048+00000+0001T   00000048+0000001607          1400 TX6090               1AZ
920866000920866               920866               170213GB     1400+00000+GB0000011306+0000011306+000000000+000001587+0000012890+0000000003+I20000000000+0000012890+Z
920866001920866112-116069     920866006009681820277TCS CARRIER BAG JUMBO  0000001000+00000048+00000+0001T   00000048+0000001613          1400 TX6090               1AZ
920866002920866466-006156     920866006003000537204GOLF-SET PUTTER W/BALL 0000001000+00003507+00000+0001T   00003507+0000001613          1400 TX6785               1AZ
920866003920866903-000670     920866006009803358008SWT SHERBET RED LIPS   0000001000+00000218+00000+0001T   00000218+0000001613          1400 TX6150               1AZ
920866004920866903-000077     920866006939873501687SWT GS MAGIC ROCK FRUIT0000001000+00000525+00000+0001T   00000525+0000001613          1400 TX6150               1AZ
920866005920866033-000124     920866006009654960597COMBS HANDLE + TAIL 2PC0000001000+00001051+00000+0001T   00001051+0000001613          1400 TX6200               1AZ
920866006920866903-000923     920866008714786126428SWT TURTLE DUO SPRAY   0000001000+00001314+00000+0001T   00001753+0008191613          1400 TX6150               1AZ
920866007920866565-000071     920866006003000643387NOVELTY WIND UP CHATTER0000001000+00001139+00000+0001T   00001139+0000001613          1400 TX6745               1AZ
920866008920866071-000325     920866006009635844090RULER PLASTIC 30cm     0000001000+00000437+00000+0001T   00000437+0000001613          1400 TX6130               1AZ
920866009920866566-000992     920866006001023600639STICKERS GLOW-IN-DARK  0000001000+00001314+00000+0001T   00001314+0000001613          1400 TX6130               1AZ
920866010920866105-001255     920866006003000573110CONTAINER FROSTED 1400m0000001000+00001753+00000+0001T   00001753+0000001613          1400 TX6210               1AZ
920867000920867               920867               170213GB     1400+00000+GB0000001490+0000001490+000000000+000000209+0000001690+0000000009+I20000000000+0000001690+Z
920867001920867002-021064     920867006001023822246TOOTHPICKS IN-HOLDER   0000001000+00001490+00000+0001T   00001490+0000001613          1400 TX6300               1AZ
920868000920868               920868               170213GB     1400+00000+GB0000001753+0000001753+000000000+000000246+0000001999+0000000000+I40000001999+0000000000+Z
920868001920868077-000289     920868006001023901996GIFT BOX 20x25x11cm    0000001000+00001753+00000+0001T   00001753+0000001615          1400 TX6112               1AZ
920869000920869               920869               170213GB     1400+00000+GB0000001753+0000001753+000000000+000000246+0000001990+0000000009+I20000000000+0000001990+Z
920869001920869077-000011-X   920869006001023809827TISSUE-WRAP SILVER 10PC0000001000+00001753+00000+0001T   00001753+0000001616          1400 TX6112               1AZ
920870000920870               920870               170213GB     1400+00000+GB0000003857+0000003857+000000000+000000541+0000004390+0000000008+I20000000000+0000004390+Z
920870001920870261-009920     920870006001023583451GUN PISTOL SQUIRTER    0000001000+00001227+00000+0001T   00001227+0000001616          1400 TX6710               1AZ
920870002920870492-055602     920870000078257556021SWIM-GOGGLES PLAY      0000001000+00002630+00000+0001T   00002630+0000001616          1400 TX6787               1AZ
920871000920871               920871               170213GB     1400+00000+GB0000011049+0000011049+000000000+000001548+0000012597+0000000000+I40000012597+0000000000+Z
920871001920871077-000299     920871006003000395576G/BAG 32x25cm LRG LOVE 0000001000+00001490+00000+0001T   00001490+0000001619          1400 TX6112               1AZ
920871002920871368-000614     920871006001023705808PLUSH LOVE 30cm        0000001000+00008771+00000+0001T   00008771+0000001619          1400 TX6745               1AZ
920871003920871077-000010-D   920871006001023123886CREPE-PAPER WHITE      0000001000+00000788+00000+0001T   00000788+0000001619          1400 TX6112               1AZ
920872000920872               920872               170213GB     1400+00000+GB0000020218+0000020218+000000000+000002833+0000023050+0000000001+I20000000000+0000023050+Z
920872001920872019-000076     920872006001023757159V/GLASS 25CM C/DESIGN  0000001000+00008771+00000+0001T   00008771+0000001621          1400 TX6510               1AZ
920872002920872304-001124     920872006003000534289FLOWER BUNCH ROSE/MUM  0000001000+00006139+00000+0001T   00006139+0000001621          1400 TX6510               1AZ
920872003920872304-000720     920872006001023843050F/BUNCH ROSE 6-HEAD AST0000002000+00002630+00000+0001T   00002630+0000001621          1400 TX6510               1AZ
920872004920872112-116069     920872006009681820277TCS CARRIER BAG JUMBO  0000001000+00000048+00000+0001T   00000048+0000001621          1400 TX6090               1AZ
920873000920873               920873               170213GB     1400+00000+GB0000004295+0000004295+000000000+000000603+0000004890+0000000008+I20000000000+0000004890+Z
920873001920873150-000770     920873006005387000128UTILITY BOX MEGA       0000001000+00003244+00000+0001T   00003244+0000001623          1400 TX6810               1AZ
920873002920873007-000119     920873006002324004126BOOK COVER PL          0000001000+00001051+00000+0001T   00001051+0000001623          1400 TX6130               1AZ
920874000920874               920874               170213GB     1400+00000+GB0000002190+0000002190+000000000+000000308+0000002490+0000000008+I20000000000+0000002490+Z
920874001920874080-000133     920874006003000535613CARD&ENV MINI ASTD DSGN0000001000+00000437+00000+0001T   00000437+0000001623          1400 TX6112               1AZ
920874002920874200-003024     920874006001023657299REFUSE BAGS 20PCE BLACK0000001000+00001753+00000+0001T   00001753+0000001623          1400 TX6214               1AZ
920875000920875               920875               170213GB     1400+00000+GB0000010309+0000010309+000000000+000001444+0000011753+0000000000+I40000011753+0000000000+Z
920875001920875077-000305     920875006003000395422GIFT-BAG WINE 10X35CM  0000001000+00001490+00000+0001T   00001490+0000001625          1400 TX6112               1AZ
920875002920875001-091415     920875006003000329113W/GLS OCC. LOVE 2PC 2800000001000+00008771+00000+0001T   00009648+0006471625          1400 TX6515               1AZ
920875003920875112-116069     920875006009681820277TCS CARRIER BAG JUMBO  0000001000+00000048+00000+0001T   00000048+0000001625          1400 TX6090               1AZ
920876000920876               920876               170213GB     1400+00000+GB0000001753+0000001753+000000000+000000246+0000001990+0000000009+I20000000000+0000001990+Z
920876001920876079-000275     920876006003000160488PAINT-BRUSHES 6PCE PRO 0000001000+00001753+00000+0001T   00001753+0000001627          1400 TX6130               1AZ
920877000920877               920877               170213GB     1400+00000+GB0000001578+0000001578+000000000+000000221+0000001790+0000000009+I20000000000+0000001790+Z
920877001920877077-000303     920877006001023593757GIFT-BAG PAPER MED     0000001000+00001578+00000+0001T   00001578+0000001628          1400 TX6112               1AZ
920878000920878               920878               170213GB     1400+00000+GB0000005262+0000005262+000000000+000000737+0000005990+0000000009+I20000000000+0000005990+Z
920878001920878018-019000     920878006003000557288MUG OCC. LOVE JUMBO    0000001000+00005262+00000+0001T   00005262+0000001643          1400 TX6515               1AZ
920879000920879               920879               170213GB     1400+00000+GB0000003507+0000003507+000000000+000000491+0000003990+0000000008+I20000000000+0000003990+Z
920879001920879007-000291     920879006003000590131REMINDER NOTES REFILL  0000001000+00003507+00000+0001T   00003507+0000001644          1400 TX6130               1AZ
920880000920880               920880               170213GB     1400+00000+GB0000002192+0000002192+000000000+000000307+0000002490+0000000009+I20000000000+0000002490+Z
920880001920880112-116069     920880006009681820277TCS CARRIER BAG JUMBO  0000001000+00000048+00000+0001T   00000048+0000001653          1400 TX6090               1AZ
920880002920880077-000311     920880006001023608666GIFT-BAG 11X14CM GLOSS 0000001000+00000613+00000+0001T   00000613+0000001653          1400 TX6112               1AZ
920880003920880018-000177     920880006001023797513MUG MINI LOVE ASSTD    0000001000+00000700+00000+0001T   00000700+0000001653          1400 TX6515               1AZ
920880004920880077-000311     920880006001023608666GIFT-BAG 11X14CM GLOSS 0000001000+00000613+00000+0001T   00000613+0000001653          1400 TX6112               1AZ
920880005920880368-000049     920880006003000536955PLUSH BEAR 15cm LOVE   0000001000+00004385+00000+0001T   00004385+0000001653          1400 TX6745               1AZ
920880006920880077-000311     920880006001023608666GIFT-BAG 11X14CM GLOSS 0000001000-00000613+00000+0001T   00000613+0000001653          1400 TX61122IC            1 Z
920880007920880018-000177     920880006001023797513MUG MINI LOVE ASSTD    0000001000-00000700+00000+0001T   00000700+0000001653          1400 TX65152IC            1 Z
920880008920880077-000311     920880006001023608666GIFT-BAG 11X14CM GLOSS 0000001000-00000613+00000+0001T   00000613+0000001653          1400 TX61122IC            1 Z
920880009920880368-000049     920880006003000536955PLUSH BEAR 15cm LOVE   0000001000-00004385+00000+0001T   00004385+0000001653          1400 TX67452IC            1 Z
920880010920880112-116069     920880006009681820277TCS CARRIER BAG JUMBO  0000001000-00000048+00000+0001T   00000048+0000001653          1400 TX60902IC            1 Z
920880011920880018-000170     920880006001023775528MUG OCC. LOVE 2PC MINI 0000001000+00002192+00000+0001T   00002192+0000001653          1400 TX6515               1AZ
920881000920881               920881               170213GB     1400+00000+GB0000005085+0000005085+000000000+000000712+0000005790+0000000007+I20000000000+0000005790+Z
920881001920881077-000303     920881006001023593757GIFT-BAG PAPER MED     0000001000+00001578+00000+0001T   00001578+0000001656          1400 TX6112               1AZ
920881002920881018-000136     920881006001023659026MUG OCC LOVE W/PLUSH   0000001000+00003507+00000+0001T   00003507+0000001656          1400 TX6515               1AZ
920882000920882               920882               170213GB     1400+00000+GB0000020301+0000020301+000000000+000002846+0000023147+0000000000+I40000023147+0000000000+Z
920882001920882112-116069     920882006009681820277TCS CARRIER BAG JUMBO  0000001000+00000048+00000+0001T   00000048+0000001702          1400 TX6090               1AZ
920882002920882077-000010-D   920882006001023123886CREPE-PAPER WHITE      0000001000+00000788+00000+0001T   00000788+0000001702          1400 TX6112               1AZ
920882003920882031-000868-B   920882006001023798565P/FRAME PL BLCK 13X18CM0000001000+00002630+00000+0001T   00002630+0000001702          1400 TX6510               1AZ
920882004920882079-000335     920882006003000670550THERAPY P/CRAYONS 30   0000001000+00007016+00000+0001T   00007016+0000001702          1400 TX6130               1AZ
920882005920882018-000177     920882006001023797513MUG MINI LOVE ASSTD    0000001000+00000700+00000+0001T   00000700+0000001702          1400 TX6515               1AZ
920882006920882077-000299     920882006003000395576G/BAG 32x25cm LRG LOVE 0000002000+00001490+00000+0001T   00001490+0000001702          1400 TX6112               1AZ
920882007920882018-050000     920882006003000412679MUG OCC LOVE TWIN BEAR 0000001000+00006139+00000+0001T   00006139+0000001702          1400 TX6515               1AZ
920883000920883               920883               170213GB     1400+00000+GB0000003417+0000003417+000000000+000000480+0000003890+0000000007+I20000000000+0000003890+Z
920883001920883903-000137     920883006002099004130SWEET GS JELLY BEAN 60G0000001000+00000788+00000+0001T   00000788+0000001702          1400 TX6150               1AZ
920883002920883903-000481     920883006001704007481SWT MOO MILK-SHAKES 60G0000001000+00000876+00000+0001T   00000876+0000001702          1400 TX6150               1AZ
920883003920883903-000215     920883006002099001214SWT GS MALLOW TWIST PAC0000001000+00001753+00000+0001T   00001753+0000001702          1400 TX6150               1AZ
920884000920884               920884               170213GB     1400+00000+GB0000001226+0000001226+000000000+000000172+0000001390+0000000008+I20000000000+0000001390+Z
920884001920884077-000311     920884006001023608666GIFT-BAG 11X14CM GLOSS 0000002000+00000613+00000+0001T   00000613+0000001703          1400 TX6112               1AZ
920885000920885               920885               170213GB     1400+00000+GB0000004822+0000004822+000000000+000000676+0000005490+0000000008+I20000000000+0000005490+Z
920885001920885006-000800     920885006001023902801HAT CABARET 14x18cm    0000001000+00001753+00000+0001T   00001753+0000001708          1400 TX6131               1AZ
920885002920885079-014152     920885006003000253074ART+CRAFT PK50 ASSTD   0000001000+00003069+00000+0001T   00003069+0000001708          1400 TX6130               1AZ
920886000920886               920886               170213GB     1400+00000+GB0000000876+0000000876+000000000+000000123+0000000999+0000000000+I40000000999+0000000000+Z
920886001920886077-000011-D   920886006001023808554TISSUE-WRAP WHITE 10PCE0000001000+00000876+00000+0001T   00000876+0000001714          1400 TX6112               1AZ
920887000920887               920887               170213GB     1400+00000+GB0000009604+0000009604+000000000+000001346+0000010950+0000000000+I40000010950+0000000000+Z
920887001920887112-116069     920887006009681820277TCS CARRIER BAG JUMBO  0000001000+00000048+00000+0001T   00000048+0000001717          1400 TX6090               1AZ
920887002920887133-000030     920887006001023755414KITCHEN-SWAB 30cm ASSTD0000001000+00001227+00000+0001T   00001227+0000001717          1400 TX6212               1AZ
920887003920887105-001032     920887000700371696634CONTAINER FOODSAVER 1.20000001000+00001753+00000+0001T   00001753+0000001717          1400 TX6210               1AZ
920887004920887159-003615     920887006001246045460TOILET-BRUSH W/STAND   0000001000+00003069+00000+0001T   00003069+0000001717          1400 TX6200               1AZ
920887005920887018-005009     920887006001023725608MUG W/PLUSH-BEAR LOVE  0000001000+00003507+00000+0001T   00003507+0000001717          1400 TX6515               1AZ
920888000920888               920888               170213GB     1400+00000+GB0000006400+0000006400+000000000+000000897+0000007297+0000000000+I40000007297+0000000000+Z
920888001920888080-000133     920888006003000535613CARD&ENV MINI ASTD DSGN0000001000+00000437+00000+0001T   00000437+0000001719          1400 TX6112               1AZ
920888002920888077-000303     920888006001023593757GIFT-BAG PAPER MED     0000001000+00001578+00000+0001T   00001578+0000001719          1400 TX6112               1AZ
920888003920888368-000049     920888006003000536955PLUSH BEAR 15cm LOVE   0000001000+00004385+00000+0001T   00004385+0000001719          1400 TX6745               1AZ
920889000920889               920889               170213GB     1400+00000+GB0000000700+0000000700+000000000+000000098+0000000790+0000000008+I20000000000+0000000790+Z
920889001920889018-000177     920889006001023797513MUG MINI LOVE ASSTD    0000001000+00000700+00000+0001T   00000700+0000001722          1400 TX6515               1AZ
920890000920890               920890               170213GB     1400+00000+GB0000001752+0000001752+000000000+000000246+0000001990+0000000008+I20000000000+0000001990+Z
920890001920890077-000314     920890006003000181148GIFT-BAG 11X14CM MATT  0000002000+00000876+00000+0001T   00000876+0000001723          1400 TX6112               1AZ
920891000920891               920891               170213GB     1400+00000+GB0000047141+0000047141+000000000+000006605+0000053740+0000000006+I20000000000+0000053740+Z
920891001920891112-116069     920891006009681820277TCS CARRIER BAG JUMBO  0000001000+00000048+00000+0001T   00000048+0000001725          1400 TX6090               1AZ
920891002920891004-071202     920891006003000459025USB MULTIPLE CHARGER   0000001000+00005262+00000+0001T   00005262+0000001725          1400 TX6310               1AZ
920891003920891203-000006     920891006001023752789COASTER-SET 4PCE       0000001000+00007016+00000+0001T   00008771+0008191725          1400 TX6300               1AZ
920891004920891368-000049     920891006003000536955PLUSH BEAR 15cm LOVE   0000001000+00004385+00000+0001T   00004385+0000001725          1400 TX6745               1AZ
920891005920891030-005000     920891006003000455874P/WDN SIGN 23X23CM 4-AS0000001000+00007893+00000+0001T   00007893+0000001725          1400 TX6505               1AZ
920891006920891016-006461     920891006003000397273S/JAR-SET GLS 7PC S/SET0000001000+00011402+00000+0001T   00011402+0000001725          1400 TX6300               1AZ
920891007920891077-000455     920891006003000285389G/BAG METALLIC LRG SOL 0000001000+00001753+00000+0001T   00001753+0000001725          1400 TX6112               1AZ
920891008920891566-001500     920891006003000658275STICKER PUFFY EMOTION  0000001000+00001753+00000+0001T   00001753+0000001725          1400 TX6130               1AZ
920891009920891039-000798     920891006001023617774CANDLES TEALITE BOX-50 0000001000+00006139+00000+0001T   00006139+0000001725          1400 TX6510               1AZ
920891010920891077-000299     920891006003000395576G/BAG 32x25cm LRG LOVE 0000001000+00001490+00000+0001T   00001490+0000001725          1400 TX6112               1AZ
920892000920892               920892               170213GB     1400+00000+GB0000000876+0000000876+000000000+000000123+0000000990+0000000009+I20000000000+0000000990+Z
920892001920892077-000011-R   920892006001023808462P/TISSUE DARK 10-SHEETS0000001000+00000876+00000+0001T   00000876+0000001727          1400 TX6112               1AZ
920893000920893               920893               170213GB     1400+00000+GB0000001753+0000001753+000000000+000000246+0000001990+0000000009+I20000000000+0000001990+Z
920893001920893077-000900     920893006003000410446G/WRAP 700mmx1m ANIMAL 0000001000+00001753+00000+0001T   00001753+0000001729          1400 TX6112               1AZ
920894000920894               920894               170213GB     1400+00000+GB0000001578+0000001578+000000000+000000221+0000001790+0000000009+I20000000000+0000001790+Z
920894001920894077-000303     920894006001023593757GIFT-BAG PAPER MED     0000001000+00001578+00000+0001T   00001578+0000001730          1400 TX6112               1AZ
920895000920895               920895               170213GB     1400+00000+GB0000008767+0000008767+000000000+000001229+0000009996+0000000000+I40000009996+0000000000+Z
920895001920895903-000897     920895008692806325207SWT CHOC DBL MINI ROLL 0000001000+00000876+00000+0001T   00000876+0000001735          1400 TX6150               1AZ
920895002920895162-010773     920895006001492107738#TAG LDS WRISTWEAR     0000001000+00004385+00000+0001T   00004385+0000001735          1400 TX6160               1AZ
920895003920895089-000192-A   920895006001023901774KEY-CHAIN ACRYLIC      0000001000+00000876+00000+0001T   00000876+0000001735          1400 TX6205               1AZ
920895004920895304-000720     920895006001023843050F/BUNCH ROSE 6-HEAD AST0000001000+00002630+00000+0001T   00002630+0000001735          1400 TX6510               1AZ
920896000920896               920896               170213GB     1400+00000+GB0000001226+0000001226+000000000+000000172+0000001390+0000000008+I20000000000+0000001390+Z
920896001920896304-001011     920896006001023806727FLWR ROSE RED W/BEAR   0000001000+00000613+00000+0001T   00000788+0006471735          1400 TX6510               1AZ
920896002920896007-000555     920896006001023848239MEMO-PAD MINI LOVE     0000001000+00000613+00000+0001T   00000613+0000001735          1400 TX6130               1AZ
920897000920897               920897               170213GB     1400+00000+GB0000000048+0000000048+000000000+000000007+0000000050+0000000005+I20000000000+0000000050+Z
920897001920897112-116069     920897006009681820277TCS CARRIER BAG JUMBO  0000001000+00000048+00000+0001T   00000048+0000001736          1400 TX6090               1AZ
920898000920898               920898               170213GB     1400+00000+GB0000001314+0000001314+000000000+000000184+0000001490+0000000008+I20000000000+0000001490+Z
920898001920898006-000167-C   920898006003000516971BALLOONS PINK METALLIC 0000001000+00001314+00000+0001T   00001314+0000001738          1400 TX6131               1AZ
920899000920899               920899               170213GB     1400+00000+GB0000000876+0000000876+000000000+000000123+0000000990+0000000009+I20000000000+0000000990+Z
920899001920899031-000878-A   920899006001023798985P/FRAME 10x15cm PL-SLID0000001000+00000876+00000+0001T   00000876+0000001741          1400 TX6510               1AZ
920900000920900               920900               170213GB     1400+00000+GB0000001489+0000001489+000000000+000000209+0000001698+0000000000+I40000001698+0000000000+Z
920900001920900089-000192-A   920900006001023901774KEY-CHAIN ACRYLIC      0000001000+00000876+00000+0001T   00000876+0000001743          1400 TX6205               1AZ
920900002920900077-000311     920900006001023608666GIFT-BAG 11X14CM GLOSS 0000001000+00000613+00000+0001T   00000613+0000001743          1400 TX6112               1AZ
920901000920901               920901               170213GB     1400+00000+GB0000001752+0000001752+000000000+000000246+0000001990+0000000008+I20000000000+0000001990+Z
920901001920901077-000011-L   920901006001023808585P/TISSUE BRIGHT 10SHEET0000001000+00000876+00000+0001T   00000876+0000001743          1400 TX6112               1AZ
920901002920901077-000011-R   920901006001023808462P/TISSUE DARK 10-SHEETS0000001000+00000876+00000+0001T   00000876+0000001743          1400 TX6112               1AZ
920902000920902               920902               170213GB     1400+00000+GB0000010479+0000010479+000000000+000001470+0000011940+0000000009+I20000000000+0000011940+Z
920902001920902077-000299     920902006003000395576G/BAG 32x25cm LRG LOVE 0000002000+00001490+00000+0001T   00001490+0000001745          1400 TX6112               1AZ
920902002920902077-000311     920902006001023608666GIFT-BAG 11X14CM GLOSS 0000001000+00000613+00000+0001T   00000613+0000001745          1400 TX6112               1AZ
920902003920902304-000720     920902006001023843050F/BUNCH ROSE 6-HEAD AST0000001000+00002630+00000+0001T   00002630+0000001745          1400 TX6510               1AZ
920902004920902080-000124     920902006003000297733CARD & ENV VALENTINES  0000001000+00001578+00000+0001T   00001578+0000001745          1400 TX6112               1AZ
920902005920902112-116069     920902006009681820277TCS CARRIER BAG JUMBO  0000001000+00000048+00000+0001T   00000048+0000001745          1400 TX6090               1AZ
920902006920902304-000720     920902006001023843050F/BUNCH ROSE 6-HEAD AST0000001000+00002630+00000+0001T   00002630+0000001745          1400 TX6510               1AZ
920903000920903               920903               170213GB     1400+00000+GB0000007939+0000007939+000000000+000001113+0000009052+0000000000+I40000009052+0000000000+Z
920903001920903112-116069     920903006009681820277TCS CARRIER BAG JUMBO  0000001000+00000048+00000+0001T   00000048+0000001750          1400 TX6090               1AZ
920903002920903018-000200     920903006001023816573M/DAILY V-SHAPE PSYCH  0000002000+00001753+00000+0001T   00001753+0000001750          1400 TX6515               1AZ
920903003920903105-001081     920903006009654960283CLIP LOCK 4L OBLONG    0000001000-00004648+00000+0001T   00004648+0000001750          1400 TX62101IC            1 Z
920903004920903105-001081     920903006009654960283CLIP LOCK 4L OBLONG    0000001000+00004648+00000+0001T   00004648+0000001750          1400 TX62101IC            1AZ
920903005920903105-007505     920903006003000487301STORAGE BOX CLEAR 2L   0000001000+00004385+00000+0001T   00004385+0000001750          1400 TX6210               1AZ
920904000920904               920904               170213GB     1400+00000+GB0000001753+0000001753+000000000+000000246+0000001990+0000000009+I20000000000+0000001990+Z
920904001920904078-000030     920904006003000151141YAMAYO SUPERGLUE 8g    0000001000+00001753+00000+0001T   00001753+0000001750          1400 TX6810               1AZ
920905000920905               920905               170213GB     1400+00000+GB0000001753+0000001753+000000000+000000246+0000001990+0000000009+I20000000000+0000001990+Z
920905001920905006-000120     920905006001023346889BALLOONS 10PC MIX COL  0000001000+00001753+00000+0001T   00001753+0000001751          1400 TX6131               1AZ
920906000920906               920906               170213GB     1400+00000+GB0000033591+0000033591+000000000+000004704+0000038295+0000000000+I40000038295+0000000000+Z
920906001920906365-003060     920906006001023831255CASH-REGISTER B/O PL   0000001000+00017542+00000+0001T   00017542+0000001752          1400 TX6725               1AZ
920906002920906903-000087     920906006001704000161SWT SPECKLED-EGGS 50G  0000001000+00001139+00000+0001T   00001139+0000001752          1400 TX6150               1AZ
920906003920906261-003341     920906006001023484925RIFLE MILITARY BAZOOKA 0000001000+00013157+00000+0001T   00013157+0000001752          1400 TX6710               1AZ
920906004920906903-000211     920906006002099001238SWT GS MALLOW ICE CREAM0000001000+00001753+00000+0001T   00001753+0000001752          1400 TX6150               1AZ
920907000920907               920907               170213GB     1400+00000+GB0000001753+0000001753+000000000+000000246+0000001999+0000000000+I40000001999+0000000000+Z
920907001920907080-008102     920907006003000080724CARD&ENV MINI 6PK FOIL 0000001000+00001753+00000+0001T   00001753+0000001755          1400 TX6112               1AZ
920908000920908               920908               170213GB     1400+00000+GB0000003067+0000003067+000000000+000000430+0000003490+0000000007+I20000000000+0000003490+Z
920908001920908046-000014-A   920908004897006177708BATTERIES SIZE:AAA 8PCE0000001000+00001753+00000+0001T   00001753+0000001757          1400 TX6312               1AZ
920908002920908046-000012     920908006904708013062BATTERIES AA  CARD-OF-40000001000+00001314+00000+0001T   00001314+0000001757          1400 TX6312               1AZ
920909000920909               920909               170213GB     1400+00000+GB0000001753+0000001753+000000000+000000246+0000001990+0000000009+I20000000000+0000001990+Z
920909001920909159-000636     920909006003000036035BATH PUMICE,BRUSH,FILE 0000001000+00001753+00000+0001T   00001753+0000001758          1400 TX6200               1AZ
920910000920910               920910               170213GB     1400+00000+GB0000007016+0000007016+000000000+000000983+0000007990+0000000009+I20000000000+0000007990+Z
920910001920910024-000111     920910006001023504197ROASTER NON-STICK OBLNG0000001000+00007016+00000+0001T   00007016+0000001802          1400 TX6300               1AZ
920911000920911               920911               170213GB     1400+00000+GB0000002541+0000002541+000000000+000000357+0000002890+0000000008+I20000000000+0000002890+Z
920911001920911077-000010-D   920911006001023123886CREPE-PAPER WHITE      0000001000+00000788+00000+0001T   00000788+0000001806          1400 TX6112               1AZ
920911002920911077-000299-A   920911006003000670888GIFT-BAG PAPER JMB LOVE0000001000+00001753+00000+0001T   00001753+0000001806          1400 TX6112               1AZ
920912000920912               920912               170213GB     1400+00000+GB0000000352-0000000352-000000000+000000049-0000000410-0000000009+I20000000000+0000000410-Z
920912001920912080-008102     920912006003000080724CARD&ENV MINI 6PK FOIL 0000001000-00001753+00000+0001T   00001753+0000001808          1400 TX61121IC            1 Z
920912002920912077-000321     920912006001023677501GIFT-BAG 11X14CM E/D FL0000001000+00000613+00000+0001T   00000613+0000001808          1400 TX6112               1 Z
920912003920912077-000010-U   920912006001023168863CREPE-PAPER CERISE-PINK0000001000+00000788+00000+0001T   00000788+0000001808          1400 TX6112               1 Z
A17021300                                          12075385GBSLAVE 1                       TX61IC
A17021301                                          13032510GBSLAVE 1                       TX61IC
B92081500                                          170213GB079-009702-A   09050865SLAVE 1     TX61IC0000012000+0000006000+0000000000000+
M17021301                              IT          GBATT IT                                          SLAVE 1 LAST TILL SLIP NO: 920912               GB                                              THANKS
M17021391                              CASH        GBSLAVE 1                       Z-REPORT No.   594TOTAL (Sales - Refunds)           6910.69       CASH TO BE BANKED                 4214.00       DEBIT CARDS                          0.00       CREDIT CARDS                      2696.69       Z-READING                         6910.69       AIRTIME DEBIT CARD SALES             0.00       AIRTIME CARD SALES                   0.00       OVERS/UNDERS                         0.00       AIRTIME CASH SALES                   0.00       GIFT CARDS                           0.00       GIFT CARD CASH SALES                 0.00       T O T A L  CASH PAYOUTS              0.00                                                                                                                                                                                                                                                                                                                                                      Z
M17021392                              CASH        GBABSENT                                                                                                                                                                                          ANNUAL LEAVE                                                                                                                                                                                    DAY OFF                                                                                                                                                                                         COMMENTS                                                                                                                                                                                                                                                                                                                                                                                       Z
Y17021300                                          GB00000000632947+000098
ZGB17021319403 SLAVE 1      SALES DATA                     NEXT INVOICE NO.  920913 0594
X GB Slave 1 First invoice 920815 170213 Last invoice 920912 170213 Next invoice 920913 Total number of records 000000356 clbackup completed 19:40:38
