930744000930744               930744               170213GB     1400+00000+GB0000002629+0000002629+000000000+000000369+0000002990+0000000008+I20000000000+0000002990+Z
930744001930744903-000080     930744006001704014052SWT TUBE RASCALS 125G  0000001000+00001753+00000+0001T   00001753+0000000948          1400 ER5150               2AZ
930744002930744903-000897     930744008692806325207SWT CHOC DBL MINI ROLL 0000001000+00000876+00000+0001T   00000876+0000000948          1400 ER5150               2AZ
930745000930745               930745               170213GB     1400+00000+GB0000002487+0000002487+000000000+000000349+0000002830+0000000006+I20000000000+0000002830+Z
930745001930745306-000021     930745006001023169433EARBUDS 100PCE IN BAG  0000004000+00000613+00000+0001T   00000613+0000001015          1400 ER5200               2AZ
930745002930745112-116038     930745006009681820246TCS CARRIER BAG MIDI   0000001000+00000035+00000+0001T   00000035+0000001015          1400 ER5090               2AZ
930746000930746               930746               170213GB     1400+00000+GB0000002630+0000002630+000000000+000000369+0000002990+0000000009+I20000000000+0000002990+Z
930746001930746566-000367     930746006003000645558STICKER WINDOW DECOR   0000001000+00002630+00000+0001T   00002630+0000001021          1400 ER5130               2AZ
930747000930747               930747               170213GB     1400+00000+GB0000008770+0000008770+000000000+000001228+0000009998+0000000000+I40000009998+0000000000+Z
930747001930747027-000030     930747006003000621750MOP COTTON HEAD 160g   0000001000+00004385+00000+0001T   00004385+0000001023          1400 ER5212               2AZ
930747002930747027-009027     930747006003000235803BROOM FLAT 1.2m HANDLE 0000001000+00004385+00000+0001T   00004385+0000001023          1400 ER5212               2AZ
930748000930748               930748               170213GB     1400+00000+GB0000001402+0000001402+000000000+000000197+0000001590+0000000009+I20000000000+0000001590+Z
930748001930748304-001204     930748006001023737984FLOWER OCC. TEDDY/ROSES0000001000+00001402+00000+0001T   00001490+0006471030          1400 ER5510               2AZ
930749000930749               930749               170213GB     1400+00000+GB0000016708+0000016708+000000000+000002342+0000019050+0000000000+I40000019050+0000000000+Z
930749001930749112-116069     930749006009681820277TCS CARRIER BAG JUMBO  0000001000+00000048+00000+0001T   00000048+0000001033          1400 ER5090               2AZ
930749002930749368-000637     930749006001023874092PLUSH BEAR SLEEPING LOV0000001000+00011402+00000+0001T   00012279+0006471033          1400 ER5745               2AZ
930749003930749566-000070     930749006003000283798STICKERS POP UP ASSTD  0000001000+00001753+00000+0001T   00001753+0000001033          1400 ER5130               2AZ
930749004930749036-000010     930749006003000675777LINT REMOVER STICKY    0000001000+00001753+00000+0001T   00001753+0000001033          1400 ER5212               2AZ
930749005930749036-000011     930749006003000675890LINT REMOVER REFILL    0000002000+00000876+00000+0001T   00000876+0000001033          1400 ER5212               2AZ
930750000930750               930750               170213GB     1400+00000+GB0000001788+0000001788+000000000+000000251+0000002039+0000000000+I40000002039+0000000000+Z
930750001930750903-000619     930750006003000672455SWT LOLLY STR/BRRY 140G0000001000+00001753+00000+0001T   00001753+0000001035          1400 ER5150               2AZ
930750002930750112-116038     930750006009681820246TCS CARRIER BAG MIDI   0000001000+00000035+00000+0001T   00000035+0000001035          1400 ER5090               2AZ
930751000930751               930751               170213GB     1400+00000+GB0000006224+0000006224+000000000+000000872+0000007096+0000000000+I40000007096+0000000000+Z
930751001930751007-010505     930751006003000670406BLACKBOARD VINYL       0000001000+00004385+00000+0001T   00004385+0000001041          1400 ER5130               2AZ
930751002930751089-000021     930751006009697230923KEY CHAIN ID           0000003000+00000613+00000+0001T   00000613+0000001041          1400 ER5205               2AZ
930752000930752               930752               170213GB     1400+00000+GB0000010129+0000010129+000000000+000001419+0000011548+0000000000+I40000011548+0000000000+Z
930752001930752039-080942     930752006001023669872C/PILLAR RND WHT 10X7CM0000002000+00003507+00000+0001T   00003507+0000001057          1400 ER5510               2AZ
930752002930752077-000310     930752006001023608635GIFT-BAG 18X23CM GLOSS 0000001000+00001314+00000+0001T   00001314+0000001057          1400 ER5112               2AZ
930752003930752077-000316     930752006001023609731GIFT-BAG 25X32CM MATT  0000001000+00001753+00000+0001T   00001753+0000001057          1400 ER5112               2AZ
930752004930752112-116069     930752006009681820277TCS CARRIER BAG JUMBO  0000001000+00000048+00000+0001T   00000048+0000001057          1400 ER5090               2AZ
930753000930753               930753               170213GB     1400+00000+GB0000040934+0000040934+000000000+000005744+0000046678+0000000000+I40000046678+0000000000+Z
930753001930753006-000172-B   930753006003000609819BALLOONS METALLIC L/GRN0000001000-00000218+00000+0001T   00000218+0000001114          1400 ER51312IC            2 Z
930753002930753006-000172-B   930753006003000609819BALLOONS METALLIC L/GRN0000001000+00000218+00000+0001T   00000218+0000001114          1400 ER51312IC            2AZ
930753003930753006-000172-H   930753006003000610211BALLOONS METALLIC RED  0000010000+00000218+00000+0001T   00000218+0000001114          1400 ER5131               2AZ
930753004930753006-000172-G   930753006003000610167BALLOONS METALLIC SILV 0000001000-00000218+00000+0001T   00000218+0000001114          1400 ER51312IC            2 Z
930753005930753006-000172-H   930753006003000610211BALLOONS METALLIC RED  0000001000+00000218+00000+0001T   00000218+0000001114          1400 ER5131               2AZ
930753006930753006-001000     930753006003000093779HELIUM BALLOON FILL    0000006000+00000613+00000+0001T   00000613+0000001114          1400 ER5131               2AZ
930753007930753112-116069     930753006009681820277TCS CARRIER BAG JUMBO  0000001000+00000048+00000+0001T   00000048+0000001114          1400 ER5090               2AZ
930753008930753563-000318-L   930753006003000407088SERVIETTES 33cm RED    0000002000+00002192+00000+0001T   00002192+0000001114          1400 ER5214               2AZ
930753009930753071-081104-A   930753006003000326662GLUE-STICK 8g CRD-OF-3 0000001000+00001227+00000+0001T   00001227+0000001114          1400 ER5130               2AZ
930753010930753006-000111     930753006003000519385BALLOONS LARGE 12PCE   0000001000+00002630+00000+0001T   00002630+0000001114          1400 ER5131               2AZ
930753011930753007-000209     930753006001023582102NOTE STICKY FILE MARKER0000001000+00001314+00000+0001T   00001314+0000001114          1400 ER5130               2AZ
930753012930753006-000803     930753006003000653676STREAMERS SET 3ROLLS   0000001000+00002630+00000+0001T   00002630+0000001114          1400 ER5131               2AZ
930753013930753006-000111     930753006003000519385BALLOONS LARGE 12PCE   0000001000+00002630+00000+0001T   00002630+0000001114          1400 ER5131               2AZ
930753014930753079-006498     930753006001023836151GLITTER SET 10PCE      0000001000+00003507+00000+0001T   00003507+0000001114          1400 ER5130               2AZ
930753015930753077-000235     930753006003000160211GIFT-RIBBON ROLL METALC0000001000+00002630+00000+0001T   00002630+0000001114          1400 ER5112               2AZ
930753016930753079-000590     930753006003000543236SKETCH PAD & PAINT SET 0000001000+00007016+00000+0001T   00007016+0000001114          1400 ER5130               2AZ
930753017930753071-081091     930753006001151010287STAED/GENKEM ALL-STICK 0000001000+00001227+00000+0001T   00001227+0000001114          1400 ER5130               2AZ
930753018930753079-009702-D   930753008427973059354PAPER SIRIO A2 RED COL 0000006000+00001051+00000+0001T   00001051+0000001114          1400 ER5130               2AZ
930753019930753079-009702-B   930753008427973059491PAPER SIRIO A2 WHITE   0000002000+00001051+00000+0001T   00001051+0000001114          1400 ER5130               2AZ
930753020930753006-000172-H   930753006003000610211BALLOONS METALLIC RED  0000010000-00000218+00000+0001T   00000218+0000001114          1400 ER51311IC            2 Z
930753021930753006-001000     930753006003000093779HELIUM BALLOON FILL    0000006000-00000613+00000+0001T   00000613+0000001114          1400 ER51311IC            2 Z
930753022930753006-000172-H   930753006003000610211BALLOONS METALLIC RED  0000001000+00000218+00000+0001T   00000218+0000001114          1400 ER5131               2AZ
930753023930753006-001000     930753006003000093779HELIUM BALLOON FILL    0000005000+00000613+00000+0001T   00000613+0000001114          1400 ER5131               2AZ
930754000930754               930754               170213GB     1400+00000+GB0000001753+0000001753+000000000+000000246+0000001990+0000000009+I20000000000+0000001990+Z
930754001930754200-003026     930754006003000276448REFUSE BAGS 10PCE GREEN0000001000+00001753+00000+0001T   00001753+0000001115          1400 ER5214               2AZ
930755000930755               930755               170213GB     1400+00000+GB0000001314+0000001314+000000000+000000184+0000001490+0000000008+I20000000000+0000001490+Z
930755001930755078-009100     930755006008741002349ALL-CLEAR GLUE 25ml CRD0000001000+00001314+00000+0001T   00001314+0000001116          1400 ER5810               2AZ
930756000930756               930756               170213GB     1400+00000+GB0000000035+0000000035+000000000+000000005+0000000040+0000000000+I20000000000+0000000040+Z
930756001930756112-116038     930756006009681820246TCS CARRIER BAG MIDI   0000001000+00000035+00000+0001T   00000035+0000001117          1400 ND1090               2AZ
930757000930757               930757               170213GB     1400+00000+GB0000003243+0000003243+000000000+000000455+0000003698+0000000000+I40000003698+0000000000+Z
930757001930757039-000108     930757006001023524034TEA-LITE CANDLES 8PCE  0000001000+00001490+00000+0001T   00001490+0000001119          1400 ND1510               2AZ
930757002930757006-000120     930757006001023346889BALLOONS 10PC MIX COL  0000001000+00001753+00000+0001T   00001753+0000001119          1400 ND1131               2AZ
930758000930758               930758               170213GB     1400+00000+GB0000028983+0000028983+000000000+000004062+0000033045+0000000000+I40000033045+0000000000+Z
930758001930758112-116069     930758006009681820277TCS CARRIER BAG JUMBO  0000001000+00000048+00000+0001T   00000048+0000001122          1400 ND1090               2AZ
930758002930758567-011343     930758006003000630592BK COLOURING THERAPY   0000001000+00003507+00000+0001T   00003507+0000001122          1400 ND1757               2AZ
930758003930758079-000335     930758006003000670550THERAPY P/CRAYONS 30   0000001000+00007016+00000+0001T   00007016+0000001122          1400 ND1130               2AZ
930758004930758072-020255     930758006003000451487PET DOG CHEW BONE PK-2 0000001000+00004385+00000+0001T   00004385+0000001122          1400 ND1870               2AZ
930758005930758072-020259     930758006001023602664DOG-CHEW BONE 10cm 2PCE0000001000+00003507+00000+0001T   00003507+0000001122          1400 ND1870               2AZ
930758006930758051-600672     930758006003000523658GARDEN-FENCE PL 60x28cm0000004000+00002630+00000+0001T   00002630+0000001122          1400 ND1820               2AZ
930759000930759               930759               170213GB     1400+00000+GB0000009729+0000009729+000000000+000001363+0000011092+0000000000+I40000011092+0000000000+Z
930759001930759105-001024-A   930759006009654960986CONTAINERS CLEAR 3PCE  0000003000+00001928+00000+0001T   00001928+0000001124          1400 ER5210               2AZ
930759002930759200-000220     930759006008766126976BAKEPANS 5PCE          0000001000+00002455+00000+0001T   00002455+0000001124          1400 ER5214               2AZ
930759003930759567-014133     930759006003000560103BOOK COLOURING 48 PAGE 0000001000+00001490+00000+0001T   00001490+0000001124          1400 ER5757               2AZ
930760000930760               930760               170213GB     1400+00000+GB0000012326+0000012326+000000000+000001726+0000014050+0000000002+I20000000000+0000014050+Z
930760001930760361-009958     930760006001023706324DOLLS MED WEDDING SET  0000001000+00008771+00000+0001T   00010525+0008191129          1400 ER5725               2AZ
930760002930760362-019282     930760006003000258079H/ACCESS 16PC BEAD HNDL0000001000+00003507+00000+0001T   00003507+0000001129          1400 ER5160               2AZ
930760003930760112-116069     930760006009681820277TCS CARRIER BAG JUMBO  0000001000+00000048+00000+0001T   00000048+0000001129          1400 ER5090               2AZ
930761000930761               930761               170213GB     1400+00000+GB0000014283+0000014283+000000000+000002004+0000016287+0000000000+I40000016287+0000000000+Z
930761001930761112-116038     930761006009681820246TCS CARRIER BAG MIDI   0000001000+00000035+00000+0001T   00000035+0000001133          1400 ER5090               2AZ
930761002930761112-116069     930761006009681820277TCS CARRIER BAG JUMBO  0000001000+00000048+00000+0001T   00000048+0000001133          1400 ER5090               2AZ
930761003930761306-000993     930761006003000560110FIRSTAID PLASTER 75PC  0000001000+00002630+00000+0001T   00002630+0000001133          1400 ER5200               2AZ
930761004930761566-000004     930761006003000062270STICKER BOOK ABC/BORDER0000001000+00002630+00000+0001T   00002630+0000001133          1400 ER5130               2AZ
930761005930761016-006510     930761006003000593330STORAGE-JAR 6PC 10ml   0000006000+00001490+00000+0001T   00001490+0000001133          1400 ER5300               2AZ
930762000930762               930762               170213GB     1400+00000+GB0000001753+0000001753+000000000+000000246+0000001990+0000000009+I20000000000+0000001990+Z
930762001930762012-000001     930762006003000331048MICRO PLATE-COVER 26X6 0000001000+00001753+00000+0001T   00002192+0008191133          1400 ER5300               2AZ
930763000930763               930763               170213GB     1400+00000+GB0000005923+0000005923+000000000+000000830+0000006750+0000000003+I20000000000+0000006750+Z
930763001930763036-000405     930763006001023630247CLOTHES DRYER PL 18-PEG0000001000+00004385+00000+0001T   00004385+0000001135          1400 ER5212               2AZ
930763002930763071-005214     930763006003000152544CELLOTAPE SUPER REFILL 0000001000+00001490+00000+0001T   00001490+0000001135          1400 ER5130               2AZ
930763003930763112-116069     930763006009681820277TCS CARRIER BAG JUMBO  0000001000+00000048+00000+0001T   00000048+0000001135          1400 ER5090               2AZ
930764000930764               930764               170213GB     1400+00000+GB0000011402+0000011402+000000000+000001597+0000012990+0000000009+I20000000000+0000012990+Z
930764001930764104-000140     930764006002923019835WASTEPAPER BIN FLIP 24L0000001000+00011402+00000+0001T   00011402+0000001135          1400 ER5210               2AZ
930765000930765               930765               170213GB     1400+00000+GB0000001139+0000001139+000000000+000000160+0000001290+0000000009+I20000000000+0000001290+Z
930765001930765903-000709     930765006002099007070SWT QUENCHERS FRUIT    0000001000+00001139+00000+0001T   00001139+0000001151          1400 ER5150               2AZ
930766000930766               930766               170213GB     1400+00000+GB0000004420+0000004420+000000000+000000619+0000005039+0000000000+I40000005039+0000000000+Z
930766001930766018-030000     930766006003000421060MUG OCCASIONS LOVE 2PCE0000001000+00004385+00000+0001T   00004385+0000001208          1400 ER5515               2AZ
930766002930766112-116038     930766006009681820246TCS CARRIER BAG MIDI   0000001000+00000035+00000+0001T   00000035+0000001208          1400 ER5090               2AZ
930767000930767               930767               170213GB     1400+00000+GB0000003067+0000003067+000000000+000000430+0000003490+0000000007+I20000000000+0000003490+Z
930767001930767133-000018     930767006003000583218SWAB MICROFIBRE 30x30cm0000001000+00001753+00000+0001T   00001753+0000001209          1400 ER5212               2AZ
930767002930767077-000310     930767006001023608635GIFT-BAG 18X23CM GLOSS 0000001000+00001314+00000+0001T   00001314+0000001209          1400 ER5112               2AZ
930768000930768               930768               170213GB     1400+00000+GB0000001753+0000001753+000000000+000000246+0000001990+0000000009+I20000000000+0000001990+Z
930768001930768077-000381     930768006003000247707GIFT-BAG 25X32CM S/COL 0000001000+00001753+00000+0001T   00001753+0000001210          1400 ER5112               2AZ
930769000930769               930769               170213GB     1400+00000+GB0000001051+0000001051+000000000+000000148+0000001190+0000000009+I20000000000+0000001190+Z
930769001930769903-002891     930769008935001721376MENTOS GUM WINTERGREEN 0000001000+00001051+00000+0001T   00001051+0000001211          1400 ER5150               2AZ
930770000930770               930770               170213GB     1400+00000+GB0000008816+0000008816+000000000+000001236+0000010052+0000000000+I40000010052+0000000000+Z
930770001930770031-007009     930770006003000467822P/FRAME WDN CERTIFICATE0000001000+00006139+00000+0001T   00006139+0000001221          1400 ER5510               2AZ
930770002930770077-000011-D   930770006001023808554TISSUE-WRAP WHITE 10PCE0000001000+00000876+00000+0001T   00000876+0000001221          1400 ER5112               2AZ
930770003930770077-000299-A   930770006003000670888GIFT-BAG PAPER JMB LOVE0000001000+00001753+00000+0001T   00001753+0000001221          1400 ER5112               2AZ
930770004930770112-116069     930770006009681820277TCS CARRIER BAG JUMBO  0000001000+00000048+00000+0001T   00000048+0000001221          1400 ER5090               2AZ
930771000930771               930771               170213GB     1400+00000+GB0000022413+0000022413+000000000+000003139+0000025552+0000000000+I40000025552+0000000000+Z
930771001930771203-005007     930771006003000288793DRINKING GAME TICTACTOE0000001000+00015788+00000+0001T   00015788+0000001228          1400 ER5300               2AZ
930771002930771077-000924     930771006003000414055G/WRAP 700mmx2m WEDDING0000001000+00002192+00000+0001T   00002192+0000001228          1400 ER5112               2AZ
930771003930771051-600671     930771006001023552730GARDEN-FENCE PL-CTD 5PC0000001000+00004385+00000+0001T   00004385+0000001228          1400 ER5820               2AZ
930771004930771112-116069     930771006009681820277TCS CARRIER BAG JUMBO  0000001000+00000048+00000+0001T   00000048+0000001228          1400 ER5090               2AZ
930772000930772               930772               170213GB     1400+00000+GB0000013372+0000013372+000000000+000001874+0000015240+0000000006+I20000000000+0000015240+Z
930772001930772112-116069     930772006009681820277TCS CARRIER BAG JUMBO  0000001000+00000048+00000+0001T   00000048+0000001232          1400 ER5090               2AZ
930772002930772903-000499     930772006001704012492SWT CHOC MALLOWS 50g   0000001000+00001227+00000+0001T   00001227+0000001232          1400 ER5150               2AZ
930772003930772903-000297     930772006001704002950SWT MS WILD BERRY 50G  0000001000+00000876+00000+0001T   00000876+0000001232          1400 ER5150               2AZ
930772004930772903-000295     930772006001704002899SWT MS FRUITY RASCALS  0000001000+00000876+00000+0001T   00000876+0000001232          1400 ER5150               2AZ
930772005930772903-000087     930772006001704000161SWT SPECKLED-EGGS 50G  0000001000+00001139+00000+0001T   00001139+0000001232          1400 ER5150               2AZ
930772006930772089-000018     930772006003000176724KEY CHAIN INSPIRATION  0000001000+00003507+00000+0001T   00003507+0000001232          1400 ER5205               2AZ
930772007930772301-085004     930772006003000420469ORN LOVE PLAQUE 21X10CM0000001000+00003507+00000+0001T   00003946+0006471232          1400 ER5505               2AZ
930772008930772563-000318-L   930772006003000407088SERVIETTES 33cm RED    0000001000+00002192+00000+0001T   00002192+0000001232          1400 ER5214               2AZ
930773000930773               930773               170213GB     1400+00000+GB0000002892+0000002892+000000000+000000406+0000003290+0000000008+I20000000000+0000003290+Z
930773001930773466-000517     930773006001023752017BALL TENNIS RED CRICKET0000001000+00001139+00000+0001T   00001139+0000001234          1400 ER5785               2AZ
930773002930773466-000583     930773006001023156617SKIPPING-ROPE 224cm    0000001000+00001753+00000+0001T   00001753+0000001234          1400 ER5785               2AZ
930774000930774               930774               170213GB     1400+00000+GB0000005262+0000005262+000000000+000000737+0000005999+0000000000+I40000005999+0000000000+Z
930774001930774024-000165-F   930774006003000674671N/STICK MUFFIN PAN     0000001000+00005262+00000+0001T   00005262+0000001237          1400 ER5300               2AZ
930775000930775               930775               170213GB     1400+00000+GB0000002192+0000002192+000000000+000000307+0000002490+0000000009+I20000000000+0000002490+Z
930775001930775024-000097     930775006001023770035MEASURING-SET 11PCE WHT0000001000+00002192+00000+0001T   00002192+0000001239          1400 ER5300               2AZ
930776000930776               930776               170213GB     1400+00000+GB0000001753+0000001753+000000000+000000246+0000001990+0000000009+I20000000000+0000001990+Z
930776001930776264-000921     930776000090159150442MAISTO CAR 3" FRESH    0000001000+00001753+00000+0001T   00001753+0000001243          1400 ER5710               2AZ
930777000930777               930777               170213GB     1400+00000+GB0000020826+0000020826+000000000+000002919+0000023740+0000000005+I20000000000+0000023740+Z
930777001930777463-000366     930777006001023789136SWIM W/NOODLE 150cm    0000001000+00002630+00000+0001T   00002630+0000001247          1400 ER5785               2AZ
930777002930777369-001032     930777006001023796158BABY RATTLE SET 6PCE   0000001000+00004385+00000+0001T   00004385+0000001247          1400 ER5745               2AZ
930777003930777466-000051     930777006001023800510WATER BOMB 4,5cm SET 6 0000001000+00003507+00000+0001T   00003507+0000001247          1400 ER5785               2AZ
930777004930777034-078833     930777006001023857491SIGN BABY-ON-BOARD     0000001000+00001490+00000+0001T   00001490+0000001247          1400 ER5215               2AZ
930777005930777369-001026     930777006001023795977BABY-RATTLE CATERPILLAR0000001000+00003507+00000+0001T   00003507+0000001247          1400 ER5745               2AZ
930777006930777034-078823     930777006001023856869FACE CLOTHS PACK-5     0000001000+00002630+00000+0001T   00002630+0000001247          1400 ER5215               2AZ
930777007930777263-000010     930777006003000551293VEHICLE ANIMAL WORLD 3p0000001000+00001753+00000+0001T   00001753+0000001247          1400 ER5710               2AZ
930777008930777071-005213     930777006001023690371CELLOTAPE 12mmx33m     0000001000+00000876+00000+0001T   00000876+0000001247          1400 ER5130               2AZ
930777009930777112-116069     930777006009681820277TCS CARRIER BAG JUMBO  0000001000+00000048+00000+0001T   00000048+0000001247          1400 ER5090               2AZ
930778000930778               930778               170213GB     1400+00000+GB0000002192+0000002192+000000000+000000307+0000002490+0000000009+I20000000000+0000002490+Z
930778001930778079-013102     930778006003000019601ART+CRAFT DIY PIPE-CLNR0000001000+00002192+00000+0001T   00002192+0000001248          1400 ER5130               2AZ
930779000930779               930779               170213GB     1400+00000+GB0000001227+0000001227+000000000+000000172+0000001390+0000000009+I20000000000+0000001390+Z
930779001930779071-081091     930779006001151010287STAED/GENKEM ALL-STICK 0000001000+00001227+00000+0001T   00001227+0000001251          1400 ER5130               2AZ
930780000930780               930780               170213GB     1400+00000+GB0000029163+0000029163+000000000+000004086+0000033240+0000000009+I20000000000+0000033240+Z
930780001930780112-116069     930780006009681820277TCS CARRIER BAG JUMBO  0000001000+00000048+00000+0001T   00000048+0000001253          1400 ER5090               2AZ
930780002930780368-000104     930780006001023751348PLUSH BEAR RUFFLED-LOOK0000001000+00006139+00000+0001T   00006139+0000001253          1400 ER5745               2AZ
930780003930780368-000111     930780006001023780812PLUSH BEAR/DOG 29CM    0000001000+00012279+00000+0001T   00012279+0000001253          1400 ER5745               2AZ
930780004930780368-000175     930780006003000270316PLUSH BEAR 4 ASSTD 18CM0000001000+00006139+00000+0001T   00006139+0000001253          1400 ER5745               2AZ
930780005930780077-000348     930780006001023483287GIFT-BOWS 4,5cm 8PCE   0000001000+00001578+00000+0001T   00001578+0000001253          1400 ER5112               2AZ
930780006930780077-000299     930780006003000395576G/BAG 32x25cm LRG LOVE 0000002000+00001490+00000+0001T   00001490+0000001253          1400 ER5112               2AZ
930781000930781               930781               170213GB     1400+00000+GB0000008885+0000008885+000000000+000001247+0000010132+0000000000+I40000010132+0000000000+Z
930781001930781112-116038     930781006009681820246TCS CARRIER BAG MIDI   0000001000+00000035+00000+0001T   00000035+0000001257          1400 ER5090               2AZ
930781002930781903-000520     930781006001704009898SWT GUMMY MINI SOUR 60g0000001000+00000876+00000+0001T   00000876+0000001257          1400 ER5150               2AZ
930781003930781903-000221     930781006001704007382SWT EENY-MEENY-MOS 60G 0000001000+00000876+00000+0001T   00000876+0000001257          1400 ER5150               2AZ
930781004930781903-000503     930781006001704006118SWT VAMPIRE FANGS 60G  0000001000+00000876+00000+0001T   00000876+0000001257          1400 ER5150               2AZ
930781005930781903-000499     930781006001704012492SWT CHOC MALLOWS 50g   0000001000+00001227+00000+0001T   00001227+0000001257          1400 ER5150               2AZ
930781006930781903-000138     930781006002099004314SWT GS WINE GUMS 60G   0000001000+00000788+00000+0001T   00000788+0000001257          1400 ER5150               2AZ
930781007930781077-000348     930781006001023483287GIFT-BOWS 4,5cm 8PCE   0000001000+00001578+00000+0001T   00001578+0000001257          1400 ER5112               2AZ
930781008930781077-000151     930781006008766114676GIFT-WRAP C/PHANE ASSTD0000001000+00000876+00000+0001T   00000876+0000001257          1400 ER5112               2AZ
930781009930781019-000130     930781006003000456130PLANTER T/PLATE W/HNDL 0000001000+00001753+00000+0001T   00001753+0000001257          1400 ER5510               2AZ
930782000930782               930782               170213GB     1400+00000+GB0000004385+0000004385+000000000+000000614+0000004990+0000000009+I20000000000+0000004990+Z
930782001930782082-000115     930782006003000360604READING GLS STRNGHT:2.50000001000+00004385+00000+0001T   00004385+0000001259          1400 ER5160               2AZ
930783000930783               930783               170213GB     1400+00000+GB0000001801+0000001801+000000000+000000253+0000002050+0000000004+I20000000000+0000002050+Z
930783001930783007-000050     930783006001023528285DISPLAY-ENVELOPE A4    0000001000+00001753+00000+0001T   00001753+0000001300          1400 ER5130               2AZ
930783002930783112-116069     930783006009681820277TCS CARRIER BAG JUMBO  0000001000+00000048+00000+0001T   00000048+0000001300          1400 ER5090               2AZ
930784000930784               930784               170213GB     1400+00000+GB0000002278+0000002278+000000000+000000319+0000002590+0000000007+I20000000000+0000002590+Z
930784001930784903-000843     930784008693029031067SWT GUMMY JELAXY 80G   0000001000+00000964+00000+0001T   00000964+0000001317          1400 ER5150               2AZ
930784002930784903-000194     930784006009826020616SWT CHOC RP LOLLY 25G  0000001000+00001314+00000+0001T   00001314+0000001317          1400 ER5150               2AZ
930785000930785               930785               170213GB     1400+00000+GB0000005044+0000005044+000000000+000000708+0000005752+0000000000+I40000005752+0000000000+Z
930785001930785077-000457     930785006003000285662G/BAG METALLIC JMB SOL 0000001000+00001753+00000+0001T   00001753+0000001335          1400 ER5112               2AZ
930785002930785039-000108     930785006001023524034TEA-LITE CANDLES 8PCE  0000001000+00001490+00000+0001T   00001490+0000001335          1400 ER5510               2AZ
930785003930785006-000093     930785006003000539932PARTY BANNER FLAGS ASST0000001000+00001753+00000+0001T   00001753+0000001335          1400 ER5131               2AZ
930785004930785112-116069     930785006009681820277TCS CARRIER BAG JUMBO  0000001000+00000048+00000+0001T   00000048+0000001335          1400 ER5090               2AZ
930786000930786               930786               170213GB     1400+00000+GB0000004294+0000004294+000000000+000000602+0000004890+0000000006+I20000000000+0000004890+Z
930786001930786903-000211     930786006002099001238SWT GS MALLOW ICE CREAM0000001000+00001753+00000+0001T   00001753+0000001336          1400 ER5150               2AZ
930786002930786496-069632     930786000078257596324REPAIR-KIT (GLUE/PATCH)0000001000+00001227+00000+0001T   00001227+0000001336          1400 ER5787               2AZ
930786003930786496-059631     930786000078257596317REPAIR-PATCHES   CARDED0000001000+00001314+00000+0001T   00001314+0000001336          1400 ER5787               2AZ
930787000930787               930787               170213GB     1400+00000+GB0000002629+0000002629+000000000+000000369+0000002990+0000000008+I20000000000+0000002990+Z
930787001930787039-001023     930787006003000466337CANDLE TEA-LITE METALIC0000001000+00001753+00000+0001T   00001753+0000001341          1400 ER5510               2AZ
930787002930787903-000123     930787006925925909280SWEET GS MINI MALLOWS  0000001000+00000876+00000+0001T   00000876+0000001341          1400 ER5150               2AZ
930788000930788               930788               170213GB     1400+00000+GB0000007765+0000007765+000000000+000001088+0000008853+0000000000+I40000008853+0000000000+Z
930788001930788077-000303     930788006001023593757GIFT-BAG PAPER MED     0000001000+00001578+00000+0001T   00001578+0000001352          1400 ER5112               2AZ
930788002930788368-000175     930788006003000270316PLUSH BEAR 4 ASSTD 18CM0000001000+00006139+00000+0001T   00006139+0000001352          1400 ER5745               2AZ
930788003930788112-116069     930788006009681820277TCS CARRIER BAG JUMBO  0000001000+00000048+00000+0001T   00000048+0000001352          1400 ER5090               2AZ
930789000930789               930789               170213GB     1400+00000+GB0000004208+0000004208+000000000+000000590+0000004790+0000000008+I20000000000+0000004790+Z
930789001930789077-000475     930789006003000640775GIFT-BAG DESIGNER MED  0000001000+00002630+00000+0001T   00002630+0000001353          1400 ER5112               2AZ
930789002930789077-000303     930789006001023593757GIFT-BAG PAPER MED     0000001000+00001578+00000+0001T   00001578+0000001353          1400 ER5112               2AZ
930790000930790               930790               170213GB     1400+00000+GB0000000876+0000000876+000000000+000000123+0000000990+0000000009+I20000000000+0000000990+Z
930790001930790903-000897     930790008692806325207SWT CHOC DBL MINI ROLL 0000001000+00000876+00000+0001T   00000876+0000001353          1400 ER5150               2AZ
930791000930791               930791               170213GB     1400+00000+GB0000003506+0000003506+000000000+000000492+0000003998+0000000000+I40000003998+0000000000+Z
930791001930791036-000063     930791006009654960436COATHANGERS VIRGIN 5PCE0000002000+00001753+00000+0001T   00001753+0000001355          1400 ER5212               2AZ
930792000930792               930792               170213GB     1400+00000+GB0000004385+0000004385+000000000+000000614+0000004990+0000000009+I20000000000+0000004990+Z
930792001930792004-071270     930792006001023802156CD-DISCS WRITABLE 10PCE0000001000+00004385+00000+0001T   00004385+0000001357          1400 ER5310               2AZ
930793000930793               930793               170213GB     1400+00000+GB0000005262+0000005262+000000000+000000737+0000005999+0000000000+I40000005999+0000000000+Z
930793001930793056-065300     930793006001023625854CAR SUNSHIELD ALUM FOIL0000001000+00005262+00000+0001L   00005262+0000001358          1400 ER5860               2AZ
930794000930794               930794               170213GB     1400+00000+GB0000000613+0000000613+000000000+000000086+0000000690+0000000009+I20000000000+0000000690+Z
930794001930794077-000311     930794006001023608666GIFT-BAG 11X14CM GLOSS 0000001000+00000613+00000+0001T   00000613+0000001403          1400 ER5112               2AZ
930795000930795               930795               170213GB     1400+00000+GB0000005310+0000005310+000000000+000000744+0000006050+0000000004+I20000000000+0000006050+Z
930795001930795031-086303-C   930795006003000322527P/FRM CHAMPAGNE 20X25CM0000001000+00005262+00000+0001T   00005262+0000001404          1400 ER5510               2AZ
930795002930795112-116069     930795006009681820277TCS CARRIER BAG JUMBO  0000001000+00000048+00000+0001T   00000048+0000001404          1400 ER5090               2AZ
930796000930796               930796               170213GB     1400+00000+GB0000005262+0000005262+000000000+000000737+0000005990+0000000009+I20000000000+0000005990+Z
930796001930796366-000125     930796006003000006786DRESSUP WINGS/WAND/BAND0000001000+00005262+00000+0001T   00005262+0000001405          1400 ER5131               2AZ
930797000930797               930797               170213GB     1400+00000+GB0000008806+0000008806+000000000+000001233+0000010030+0000000009+I20000000000+0000010030+Z
930797001930797001-091415     930797006003000329113W/GLS OCC. LOVE 2PC 2800000001000+00008771+00000+0001T   00009648+0006471408          1400 ER5515               2AZ
930797002930797112-116038     930797006009681820246TCS CARRIER BAG MIDI   0000001000+00000035+00000+0001T   00000035+0000001408          1400 ER5090               2AZ
930798000930798               930798               170213GB     1400+00000+GB0000004823+0000004823+000000000+000000676+0000005490+0000000009+I20000000000+0000005490+Z
930798001930798266-001020     930798006001023791689MASK & 2 SWORDS PL SET 0000001000+00004823+00000+0001T   00004823+0000001432          1400 ER5710               2AZ
930799000930799               930799               170213GB     1400+00000+GB0000014518+0000014518+000000000+000002034+0000016550+0000000002+I20000000000+0000016550+Z
930799001930799112-116069     930799006009681820277TCS CARRIER BAG JUMBO  0000001000+00000048+00000+0001T   00000048+0000001434          1400 ER5090               2AZ
930799002930799077-000270     930799006003000395453GIFT-BAG PPR JMB 33X45 0000001000+00002630+00000+0001T   00002630+0000001434          1400 ER5112               2AZ
930799003930799089-060027     930799006003000245871KEY-CHAIN HEART 6X6cm  0000001000+00003069+00000+0001T   00003069+0000001434          1400 ER5205               2AZ
930799004930799031-000924     930799006001023669964P/FRAME COLLAGE PL     0000001000+00008771+00000+0001T   00008771+0000001434          1400 ER5510               2AZ
930800000930800               930800               170213GB     1400+00000+GB0000001490+0000001490+000000000+000000209+0000001690+0000000009+I20000000000+0000001690+Z
930800001930800077-000299     930800006003000395576G/BAG 32x25cm LRG LOVE 0000001000+00001490+00000+0001T   00001490+0000001443          1400 ER5112               2AZ
930801000930801               930801               170213GB     1400+00000+GB0000002366+0000002366+000000000+000000332+0000002690+0000000008+I20000000000+0000002690+Z
930801001930801077-000011-R   930801006001023808462P/TISSUE DARK 10-SHEETS0000001000+00000876+00000+0001T   00000876+0000001443          1400 ER5112               2AZ
930801002930801077-000399     930801006003000139514GIFT BAG 18X23CM E/DAY 0000001000+00001490+00000+0001T   00001490+0000001443          1400 ER5112               2AZ
930802000930802               930802               170213GB     1400+00000+GB0000002630+0000002630+000000000+000000369+0000002990+0000000009+I20000000000+0000002990+Z
930802001930802140-006008     930802006001023803214FLY-SWATTERS   SET-OF-40000001000+00002630+00000+0001T   00002630+0000001500          1400 ER5830               2AZ
A17021300                                          15530513GBSLAVE 2                       ER51IC
M17021302                              IT          GBATT IT                                          SLAVE 2 LAST TILL SLIP NO:930802                GB                                              THANKS
M17021391                              CASH        GBSLAVE 2                       Z-REPORT No.   595TOTAL (Sales - Refunds)           4638.87       CASH TO BE BANKED                 2219.80       DEBIT CARDS                          0.00       CREDIT CARDS                      2419.07       Z-READING                         4638.87       AIRTIME DEBIT CARD SALES             0.00       AIRTIME CARD SALES                   0.00       OVERS/UNDERS                         0.00       AIRTIME CASH SALES                   0.00       GIFT CARDS                           0.00       GIFT CARD CASH SALES                 0.00       T O T A L  CASH PAYOUTS              0.00                                                                                                                                                                                                                                                                                                                                                      Z
M17021392                              CASH        GBABSENT                                                                                                                                                                                          ANNUAL LEAVE                                                                                                                                                                                    DAY OFF                                                                                                                                                                                         COMMENTS                                                                                                                                                                                                                                                                                                                                                                                       Z
Y17021300                                          GB00000000413413+000059
ZGB17021319403 SLAVE 2      SALES DATA                     NEXT INVOICE NO.  930803 0595
X GB Slave 2 First invoice 930744 170213 Last invoice 930802 170213 Next invoice 930803 Total number of records 000000228 clbackup completed 19:40:40
