910168000910168               910168               170213GE     1400+00000+GE0000001753+0000001753+000000000+000000246+0000001990+0000000009+I20000000000+0000001990+Z
910168001910168200-003024     910168006001023657299REFUSE BAGS 20PCE BLACK0000001000+00001753+00000+0001T   00001753+0000000904          1400 RY1214               2AZ
910169000910169               910169               170213GE     1400+00000+GE0000002102+0000002102+000000000+000000296+0000002390+0000000008+I20000000000+0000002390+Z
910169001910169903-002852     910169000000087108040MENTOS ROLL SPEARMINT  0000002000+00001051+00000+0001T   00001051+0000000910          1400 RY1150               2AZ
910170000910170               910170               170213GE     1400+00000+GE0000026347+0000026347+000000000+000003695+0000030040+0000000002+I20000000000+0000030040+Z
910170001910170012-000004     910170006003000331093MICRO STEAM-COOKER     0000001000+00007016+00000+0001T   00007016+0000000915          1400 RY1300               2AZ
910170002910170140-006004     910170006001023628077FLY-SWATTER RUBBER     0000001000+00001139+00000+0001T   00001139+0000000915          1400 RY1830               2AZ
910170003910170002-000746     910170006003000463305GRATER 3-ASSTD COLOURS 0000001000+00001753+00000+0001T   00001753+0000000915          1400 RY1300               2AZ
910170004910170036-000020     910170006001023666512LINT-REMOVER B/O SMALL 0000001000+00003507+00000+0001T   00003507+0000000915          1400 RY1212               2AZ
910170005910170306-000012     910170006003000366330T/BRUSH SET 4PC ORAL   0000001000+00002630+00000+0001T   00002630+0000000915          1400 RY1200               2AZ
910170006910170002-000805     910170006001023575982PEELER PL Y-SHAPE 3-ASS0000001000+00001753+00000+0001T   00001753+0000000915          1400 RY1300               2AZ
910170007910170012-000001     910170006003000331048MICRO PLATE-COVER 26X6 0000001000+00001753+00000+0001T   00002192+0008190915          1400 RY1300               2AZ
910170008910170020-000622     910170006001023629753PARING-KNIFE  8cm-BLADE0000001000+00001753+00000+0001T   00001753+0000000915          1400 RY1300               2AZ
910170009910170036-000605     910170006001023158611WASHING-PEGS WDN PCK-240000001000+00001490+00000+0001T   00001490+0000000915          1400 RY1212               2AZ
910170010910170133-000079     910170006003000277193KITCHEN SWAB 30x30CM   0000001000+00000876+00000+0001T   00000876+0000000915          1400 RY1212               2AZ
910170011910170036-000063     910170006009654960436COATHANGERS VIRGIN 5PCE0000001000+00001753+00000+0001T   00001753+0000000915          1400 RY1212               2AZ
910170012910170038-047245     910170006001023637444PLACE-MAT DESIGNS ASSTD0000001000+00000876+00000+0001T   00000876+0000000915          1400 RY1300               2AZ
910170013910170112-116069     910170006009681820277TCS CARRIER BAG JUMBO  0000001000+00000048+00000+0001T   00000048+0000000915          1400 RY1090               2AZ
910171000910171               910171               170213GE     1400+00000+GE0000001490+0000001490+000000000+000000209+0000001690+0000000009+I20000000000+0000001690+Z
910171001910171016-006516     910171006003000351503S/JAR GLS CHECK 150ML  0000001000+00001490+00000+0001T   00001490+0000000916          1400 RY1300               2AZ
910172000910172               910172               170213GE     1400+00000+GE0000000786+0000000786+000000000+000000112+0000000890+0000000008+I20000000000+0000000890+Z
910172001910172903-000183     910172006003000451043SWT LB HEART LOLLY     0000002000+00000393+00000+0001T   00000393+0000000949          1400 RY1150               2AZ
910173000910173               910173               170213GE     1400+00000+GE0000003500-0000003500-000000000+000000490-0000003990-0000000000+I20000000000+0000003990-Z
910173001910173001-999907     910173000000000999907CLEANING-MATERIALS     0000001000-00003500+00000+0001T   00000000+0000001019          1400 RY19071IC            2 Z
910174000910174               910174               170213GE     1400+00000+GE0000001090-0000000000+000000000+000000000+0000001090-0000000000+I20000000000+0000001090-Z
910174001910174001-999909     910174000000000999909STAFF-REFRESHMENTS     0000001000-00001090+00000+0001X   00000000+0000001020          0000 RY19091IC            2 Z
910175000910175               910175               170213GE     1400+00000+GE0000004385+0000004385+000000000+000000614+0000004990+0000000009+I20000000000+0000004990+Z
910175001910175020-000141     910175006001023629524STEAK-KNIVES P.P.CARD-60000001000+00004385+00000+0001T   00004385+0000001025          1400 RY1300               2AZ
910176000910176               910176               170213GE     1400+00000+GE0000003506+0000003506+000000000+000000492+0000003990+0000000008+I20000000000+0000003990+Z
910176001910176567-010740     910176009780710511041BOOK EDU. ASSTD CAT 3  0000002000+00001753+00000+0001T   00001753+0000001122          1400 RY1757               2AZ
910177000910177               910177               170213GE     1400+00000+GE0000002980+0000002980+000000000+000000418+0000003390+0000000008+I20000000000+0000003390+Z
910177001910177089-000141-H   910177006001023416568KEY-CHAINS 6PCE     H&H0000002000+00001490+00000+0001T   00001490+0000001122          1400 RY1205               2AZ
910178000910178               910178               170213GE     1400+00000+GE0000020999+0000020999+000000000+000002943+0000023942+0000000000+I40000023942+0000000000+Z
910178001910178301-085008     910178006003000673933ORN OCC.LOVE TINSEL HRT0000002000+00003069+00000+0001T   00003069+0000001126          1400 RY1505               2AZ
910178002910178903-000194     910178006009826020616SWT CHOC RP LOLLY 25G  0000001000+00001314+00000+0001T   00001314+0000001126          1400 RY1150               2AZ
910178003910178001-000175     910178006001023788108B/MUG GLS LOVE 380ML   0000001000+00004385+00000+0001T   00004385+0000001126          1400 RY1515               2AZ
910178004910178301-085000     910178006003000674299 ORN OCC. LOVE HEARTS  0000002000+00002192+00000+0001T   00002192+0000001126          1400 RY1505               2AZ
910178005910178039-000026     910178006001023551610C/TAPERED 25CM M/RED   0000002000+00001051+00000+0001T   00001051+0000001126          1400 RY1510               2AZ
910178006910178006-000167-E   910178006003000517213BALLOONS GOLD METALLIC 0000002000+00001314+00000+0001T   00001314+0000001126          1400 RY1131               2AZ
910178007910178112-116069     910178006009681820277TCS CARRIER BAG JUMBO  0000001000+00000048+00000+0001T   00000048+0000001126          1400 RY1090               2AZ
910179000910179               910179               170213GE     1400+00000+GE0000001753+0000001753+000000000+000000246+0000001990+0000000009+I20000000000+0000001990+Z
910179001910179007-000724     910179006003000225958NOTE MAGNETIC 60SHTS   0000001000+00001753+00000+0001T   00001753+0000001133          1400 RY1130               2AZ
910180000910180               910180               170213GE     1400+00000+GE0000008501+0000008501+000000000+000001191+0000009690+0000000002+I20000000000+0000009690+Z
910180001910180089-000200     910180006003000485840KEY CHAIN POLY LOVE IS 0000001000+00003507+00000+0001T   00004385+0008121134          1400 RY1205               2AZ
910180002910180077-000311     910180006001023608666GIFT-BAG 11X14CM GLOSS 0000001000+00000613+00000+0001T   00000613+0000001134          1400 RY1112               2AZ
910180003910180077-000470     910180006003000330171G-BAG DESGN SML 11X14CM0000002000+00001314+00000+0001T   00001314+0000001134          1400 RY1112               2AZ
910180004910180566-000036     910180006003000384051STICKERS MOTIVATION    0000001000+00001753+00000+0001T   00001753+0000001134          1400 RY1130               2AZ
910181000910181               910181               170213GE     1400+00000+GE0000000876+0000000876+000000000+000000123+0000000990+0000000009+I20000000000+0000000990+Z
910181001910181078-000025     910181008887013700064SUPERGLUE 3g 1PCE CARD 0000001000+00000876+00000+0001T   00000876+0000001135          1400 RY1810               2AZ
910182000910182               910182               170213GE     1400+00000+GE0000002192+0000002192+000000000+000000307+0000002499+0000000000+I40000002499+0000000000+Z
910182001910182200-000002     910182006925406821049BAG FLIP TOP 80PCE     0000001000+00002192+00000+0001T   00002192+0000001137          1400 RY1214               2AZ
910183000910183               910183               170213GE     1400+00000+GE0000012572+0000012572+000000000+000001762+0000014334+0000000000+I40000014334+0000000000+Z
910183001910183080-000114     910183006003000246472CARD&ENV LOVE-MUSICAL  0000001000+00001314+00000+0001T   00001753+0008151139          1400 RY1112               2AZ
910183002910183018-000138     910183006003000547104MUG NOVELTY CER. T-SHPE0000001000+00001753+00000+0001T   00002192+0008171139          1400 RY1515               2AZ
910183003910183003-008000     910183006003000378517ORN ANIMAL B/O SOUND   0000001000+00005262+00000+0001T   00006139+0008121139          1400 RY1505               2AZ
910183004910183003-008018     910183006003000252336ORN SIGN FLOWER GARDEN 0000001000+00003069+00000+0001T   00003069+0000001139          1400 RY1505               2AZ
910183005910183903-000087     910183006001704000161SWT SPECKLED-EGGS 50G  0000001000+00001139+00000+0001T   00001139+0000001139          1400 RY1150               2AZ
910183006910183112-116038     910183006009681820246TCS CARRIER BAG MIDI   0000001000+00000035+00000+0001T   00000035+0000001139          1400 RY1090               2AZ
910184000910184               910184               170213GE     1400+00000+GE0000002278+0000002278+000000000+000000320+0000002590+0000000008+I20000000000+0000002590+Z
910184001910184077-000010-D   910184006001023123886CREPE-PAPER WHITE      0000001000+00000788+00000+0001T   00000788+0000001140          1400 RY1112               2AZ
910184002910184077-000299     910184006003000395576G/BAG 32x25cm LRG LOVE 0000001000+00001490+00000+0001T   00001490+0000001140          1400 RY1112               2AZ
910185000910185               910185               170213GE     1400+00000+GE0000000048+0000000048+000000000+000000007+0000000050+0000000005+I20000000000+0000000050+Z
910185001910185112-116069     910185006009681820277TCS CARRIER BAG JUMBO  0000001000+00000048+00000+0001T   00000048+0000001141          1400 RY1090               2AZ
910186000910186               910186               170213GE     1400+00000+GE0000003506+0000003506+000000000+000000492+0000003990+0000000008+I20000000000+0000003990+Z
910186001910186200-003024     910186006001023657299REFUSE BAGS 20PCE BLACK0000001000+00001753+00000+0001T   00001753+0000001141          1400 RY1214               2AZ
910186002910186306-000021-C   910186006003000567294EARBUDS 300PCE IN TUB  0000001000+00001753+00000+0001T   00001753+0000001141          1400 RY1200               2AZ
910187000910187               910187               170213GE     1400+00000+GE0000010814+0000010814+000000000+000001516+0000012330+0000000000+I40000012330+0000000000+Z
910187001910187566-001108     910187000721129017341NAIL-JEWELLERY ASSTD   0000001000+00000876+00000+0001T   00000876+0000001143          1400 RY1130               2AZ
910187002910187079-000282     910187006001023493309PAINT TUBS POSTER 12COL0000001000+00002630+00000+0001T   00002630+0000001143          1400 RY1130               2AZ
910187003910187077-000311     910187006001023608666GIFT-BAG 11X14CM GLOSS 0000002000+00000613+00000+0001T   00000613+0000001143          1400 RY1112               2AZ
910187004910187007-000555     910187006001023848239MEMO-PAD MINI LOVE     0000002000+00000613+00000+0001T   00000613+0000001143          1400 RY1130               2AZ
910187005910187071-003866     910187006003000590018PENCIL NOVELTY RULER   0000001000+00001314+00000+0001T   00001314+0000001143          1400 RY1130               2AZ
910187006910187065-000053     910187006001023756879MUSICAL HAMMER         0000001000+00003507+00000+0001T   00003507+0000001143          1400 RY1745               2AZ
910187007910187112-116038     910187006009681820246TCS CARRIER BAG MIDI   0000001000+00000035+00000+0001T   00000035+0000001143          1400 RY1090               2AZ
910188000910188               910188               170213GE     1400+00000+GE0000006522+0000006522+000000000+000000915+0000007430+0000000007+I20000000000+0000007430+Z
910188001910188071-081091     910188006001151010287STAED/GENKEM ALL-STICK 0000001000+00001227+00000+0001T   00001227+0000001233          1400 RY1130               2AZ
910188002910188006-000191-9   910188006003000686735BALLOONS FOIL SILV NR 90000001000+00002630+00000+0001T   00002630+0000001233          1400 RY1131               2AZ
910188003910188006-000191-1   910188006003000685776BALLOONS FOIL SILV NR 10000001000+00002630+00000+0001T   00002630+0000001233          1400 RY1131               2AZ
910188004910188112-116038     910188006009681820246TCS CARRIER BAG MIDI   0000001000+00000035+00000+0001T   00000035+0000001233          1400 RY1090               2AZ
910189000910189               910189               170213GE     1400+00000+GE0000003327+0000003327+000000000+000000469+0000003790+0000000006+I20000000000+0000003790+Z
910189001910189903-000183     910189006003000451043SWT LB HEART LOLLY     0000002000+00000393+00000+0001T   00000393+0000001236          1400 RY1150               2AZ
910189002910189903-000200     910189006009826020234SWT CHOC RP CHOCO 23G  0000001000+00000788+00000+0001T   00000788+0000001236          1400 RY1150               2AZ
910189003910189080-000113     910189006003000237449CARD&ENVLPE - LOVE     0000001000+00001753+00000+0001T   00001753+0000001236          1400 RY1112               2AZ
910190000910190               910190               170213GE     1400+00000+GE0000008771+0000008771+000000000+000001228+0000009990+0000000009+I20000000000+0000009990+Z
910190001910190001-091415     910190006003000329113W/GLS OCC. LOVE 2PC 2800000001000+00008771+00000+0001T   00009648+0006471238          1400 RY1515               2AZ
910191000910191               910191               170213GE     1400+00000+GE0000007381+0000007381+000000000+000001046+0000008427+0000000000+I40000008427+0000000000+Z
910191001910191903-000183     910191006003000451043SWT LB HEART LOLLY     0000012000+00000393+00000+0001T   00000393+0000001242          1400 RY1150               2AZ
910191002910191112-116038     910191006009681820246TCS CARRIER BAG MIDI   0000001000+00000035+00000+0001T   00000035+0000001242          1400 RY1090               2AZ
910191003910191004-071192     910191006003000528813USB CABLE 1.0m         0000001000+00002630+00000+0001T   00002630+0000001242          1400 RY1310               2AZ
910192000910192               910192               170213GE     1400+00000+GE0000007927+0000007927+000000000+000001110+0000009030+0000000007+I20000000000+0000009030+Z
910192001910192001-000175     910192006001023788108B/MUG GLS LOVE 380ML   0000001000+00004385+00000+0001T   00004385+0000001244          1400 RY1515               2AZ
910192002910192018-005009     910192006001023725608MUG W/PLUSH-BEAR LOVE  0000001000+00003507+00000+0001T   00003507+0000001244          1400 RY1515               2AZ
910192003910192112-116038     910192006009681820246TCS CARRIER BAG MIDI   0000001000+00000035+00000+0001T   00000035+0000001244          1400 RY1090               2AZ
910193000910193               910193               170213GE     1400+00000+GE0000008771+0000008771+000000000+000001228+0000009990+0000000009+I20000000000+0000009990+Z
910193001910193361-000110     910193006001023837509RAG-DOLL 46cm RAG      0000001000+00008771+00000+0001T   00008771+0000001303          1400 RY1725               2AZ
910194000910194               910194               170213GE     1400+00000+GE0000005699+0000005699+000000000+000000799+0000006498+0000000000+I40000006498+0000000000+Z
910194001910194079-013098     910194006003000197040ART+CRAFT SET DIY      0000001000+00003069+00000+0001T   00003069+0000001305          1400 RY1130               2AZ
910194002910194006-006015     910194006001023882912PARTY SPRAY WHT SNOW   0000001000+00002630+00000+0001T   00002630+0000001305          1400 RY1131               2AZ
910195000910195               910195               170213GE     1400+00000+GE0000003542+0000003542+000000000+000000496+0000004038+0000000000+I40000004038+0000000000+Z
910195001910195018-005009     910195006001023725608MUG W/PLUSH-BEAR LOVE  0000001000+00003507+00000+0001T   00003507+0000001316          1400 RY1515               2AZ
910195002910195112-116038     910195006009681820246TCS CARRIER BAG MIDI   0000001000+00000035+00000+0001T   00000035+0000001316          1400 RY1090               2AZ
910196000910196               910196               170213GE     1400+00000+GE0000018897+0000018897+000000000+000002651+0000021540+0000000008+I20000000000+0000021540+Z
910196001910196304-001204     910196006001023737984FLOWER OCC. TEDDY/ROSES0000003000+00001402+00000+0001T   00001490+0006471323          1400 RY1510               2AZ
910196002910196903-000200     910196006009826020234SWT CHOC RP CHOCO 23G  0000003000+00000788+00000+0001T   00000788+0000001323          1400 RY1150               2AZ
910196003910196112-116069     910196006009681820277TCS CARRIER BAG JUMBO  0000001000+00000048+00000+0001T   00000048+0000001323          1400 RY1090               2AZ
910196004910196368-000111     910196006001023780812PLUSH BEAR/DOG 29CM    0000001000+00012279+00000+0001T   00012279+0000001323          1400 RY1745               2AZ
910197000910197               910197               170213GE     1400+00000+GE0000006729+0000006729+000000000+000000956+0000007685+0000000000+I40000007685+0000000000+Z
910197001910197077-000245     910197006001023759214GIFT-RIBBON METALLICx2 0000001000+00001227+00000+0001T   00001227+0000001325          1400 RY1112               2AZ
910197002910197903-000183     910197006003000451043SWT LB HEART LOLLY     0000014000+00000393+00000+0001T   00000393+0000001325          1400 RY1150               2AZ
910198000910198               910198               170213GE     1400+00000+GE0000002665+0000002665+000000000+000000374+0000003030+0000000009+I20000000000+0000003030+Z
910198001910198033-000001     910198006003000344321TINTING BOWL & BRUSHES 0000001000+00002630+00000+0001T   00002630+0000001326          1400 RY1200               2AZ
910198002910198112-116038     910198006009681820246TCS CARRIER BAG MIDI   0000001000+00000035+00000+0001T   00000035+0000001326          1400 RY1090               2AZ
910199000910199               910199               170213GE     1400+00000+GE0000024560+0000024560+000000000+000003439+0000027999+0000000000+I40000027999+0000000000+Z
910199001910199031-001006     910199006003000379064P/FRAME PL SET 10PC    0000001000+00024560+00000+0001T   00024560+0000001327          1400 RY1510               2AZ
910200000910200               910200               170213GE     1400+00000+GE0000007063+0000007063+000000000+000000990+0000008050+0000000003+I20000000000+0000008050+Z
910200001910200366-002195     910200006001023990549DRESS UP WINGS FEATHER 0000001000+00005262+00000+0001T   00005262+0000001337          1400 RY1131               2AZ
910200002910200566-000006     910200006001023671189STICKER-BOOK DRESS-UP  0000001000+00002630+00000+0001T   00002630+0000001337          1400 RY1130               2AZ
910200003910200006-000800     910200006001023902801HAT CABARET 14x18cm    0000001000+00001753+00000+0001T   00001753+0000001337          1400 RY1131               2AZ
910200004910200112-116069     910200006009681820277TCS CARRIER BAG JUMBO  0000001000+00000048+00000+0001T   00000048+0000001337          1400 RY1090               2AZ
910200005910200566-000006     910200006001023671189STICKER-BOOK DRESS-UP  0000001000-00002630+00000+0001T   00002630+0000001337          1400 RY11301IC            2 Z
910201000910201               910201               170213GE     1400+00000+GE0000009206+0000009206+000000000+000001289+0000010495+0000000000+I40000010495+0000000000+Z
910201001910201200-000020     910201006925406841030BAG ZIPPERSEAL 25PC    0000001000+00002192+00000+0001T   00002192+0000001339          1400 RY1214               2AZ
910201002910201004-071203     910201006003000183555COMPUTOR LIGHT LED USB 0000002000+00003507+00000+0001T   00003507+0000001339          1400 RY1310               2AZ
910202000910202               910202               170213GE     1400+00000+GE0000002629+0000002629+000000000+000000369+0000002998+0000000000+I40000002998+0000000000+Z
910202001910202077-000011-C   910202006001023808523TISSUE 10xSHTS RED     0000001000+00000876+00000+0001T   00000876+0000001340          1400 RY1112               2AZ
910202002910202566-001228     910202006003000284153STICKERS CRYSTAL ASSTD 0000001000+00001753+00000+0001T   00001753+0000001340          1400 RY1130               2AZ
910203000910203               910203               170213GE     1400+00000+GE0000005782+0000005782+000000000+000000813+0000006590+0000000005+I20000000000+0000006590+Z
910203001910203566-000006     910203006001023671189STICKER-BOOK DRESS-UP  0000001000+00002630+00000+0001T   00002630+0000001342          1400 RY1130               2AZ
910203002910203903-000200     910203006009826020234SWT CHOC RP CHOCO 23G  0000004000+00000788+00000+0001T   00000788+0000001342          1400 RY1150               2AZ
910204000910204               910204               170213GE     1400+00000+GE0000002190+0000002190+000000000+000000307+0000002490+0000000007+I20000000000+0000002490+Z
910204001910204903-000482     910204006001704001397SWT SOFT-MINTS 60G     0000001000+00000876+00000+0001T   00000876+0000001343          1400 RY1150               2AZ
910204002910204903-000194     910204006009826020616SWT CHOC RP LOLLY 25G  0000001000+00001314+00000+0001T   00001314+0000001343          1400 RY1150               2AZ
910205000910205               910205               170213GE     1400+00000+GE0000017058+0000017058+000000000+000002391+0000019449+0000000000+I40000019449+0000000000+Z
910205001910205039-809558     910205006003000344376CANDLE PILLAR 12CM 4AST0000002000+00006139+00000+0001T   00006139+0000001349          1400 RY1510               2AZ
910205002910205077-000011-C   910205006001023808523TISSUE 10xSHTS RED     0000001000+00000876+00000+0001T   00000876+0000001349          1400 RY1112               2AZ
910205003910205077-000299     910205006003000395576G/BAG 32x25cm LRG LOVE 0000002000+00001490+00000+0001T   00001490+0000001349          1400 RY1112               2AZ
910205004910205077-000011-D   910205006001023808554TISSUE-WRAP WHITE 10PCE0000001000+00000876+00000+0001T   00000876+0000001349          1400 RY1112               2AZ
910205005910205112-116069     910205006009681820277TCS CARRIER BAG JUMBO  0000001000+00000048+00000+0001T   00000048+0000001349          1400 RY1090               2AZ
910206000910206               910206               170213GE     1400+00000+GE0000005775+0000005775+000000000+000000810+0000006585+0000000000+I40000006585+0000000000+Z
910206001910206903-000087     910206006001704000161SWT SPECKLED-EGGS 50G  0000002000+00001139+00000+0001T   00001139+0000001351          1400 RY1150               2AZ
910206002910206018-000127     910206006001023380289MUG OCC STRAIGHT LOVE  0000002000+00001578+00000+0001T   00001753+0006471351          1400 RY1515               2AZ
910206003910206007-000123     910206006003000533879BOOK COVER 450mmx1.5m  0000001000+00000306+00000+0001T   00000306+0000001351          1400 RY1130               2AZ
910206004910206112-116038     910206006009681820246TCS CARRIER BAG MIDI   0000001000+00000035+00000+0001T   00000035+0000001351          1400 RY1090               2AZ
910207000910207               910207               170213GE     1400+00000+GE0000001752+0000001752+000000000+000000246+0000001990+0000000008+I20000000000+0000001990+Z
910207001910207007-000045     910207006009608640438DISPLAY-POCKETS A4 10PC0000002000+00000876+00000+0001T   00000876+0000001354          1400 RY1130               2AZ
910208000910208               910208               170213GE     1400+00000+GE0000009645+0000009645+000000000+000001352+0000010997+0000000000+I40000010997+0000000000+Z
910208001910208368-000049     910208006003000536955PLUSH BEAR 15cm LOVE   0000001000+00004385+00000+0001T   00004385+0000001400          1400 RY1745               2AZ
910208002910208050-000364-Z   910208006001023777133PADLOCK IRON 38mm CARD 0000002000+00002630+00000+0001T   00002630+0000001400          1400 RY1855               2AZ
910209000910209               910209               170213GE     1400+00000+GE0000003331+0000003331+000000000+000000467+0000003790+0000000008+I20000000000+0000003790+Z
910209001910209077-000455     910209006003000285389G/BAG METALLIC LRG SOL 0000001000+00001753+00000+0001T   00001753+0000001400          1400 RY1112               2AZ
910209002910209080-000124     910209006003000297733CARD & ENV VALENTINES  0000001000+00001578+00000+0001T   00001578+0000001400          1400 RY1112               2AZ
910210000910210               910210               170213GE     1400+00000+GE0000007538+0000007538+000000000+000001056+0000008590+0000000004+I20000000000+0000008590+Z
910210001910210206-000410     910210006003000619382SOUP LADLE SEAMONSTER  0000001000+00004385+00000+0001T   00004385+0000001403          1400 RY1321               2AZ
910210002910210903-000121     910210006002099001689SWT GS ZILLIONS SOURS  0000002000+00000700+00000+0001T   00000700+0000001403          1400 RY1150               2AZ
910210003910210077-000309     910210006001023608604GIFT-BAG 25X32CM GLOSS 0000001000+00001753+00000+0001T   00001753+0000001403          1400 RY1112               2AZ
910211000910211               910211               170213GE     1400+00000+GE0000010559+0000010559+000000000+000001479+0000012030+0000000008+I20000000000+0000012030+Z
910211001910211018-019000     910211006003000557288MUG OCC. LOVE JUMBO    0000002000+00005262+00000+0001T   00005262+0000001405          1400 RY1515               2AZ
910211002910211112-116038     910211006009681820246TCS CARRIER BAG MIDI   0000001000+00000035+00000+0001T   00000035+0000001405          1400 RY1090               2AZ
910212000910212               910212               170213GE     1400+00000+GE0000007629+0000007629+000000000+000001069+0000008698+0000000000+I40000008698+0000000000+Z
910212001910212466-001801     910212006001023343482BALLS TABLE-TENNIS BOX60000001000+00001490+00000+0001T   00001490+0000001409          1400 RY1785               2AZ
910212002910212566-000316     910212006003000521821STICKERS MIRRORS HOME  0000001000+00006139+00000+0001T   00006139+0000001409          1400 RY1130               2AZ
910213000910213               910213               170213GE     1400+00000+GE0000004418+0000004418+000000000+000000620+0000005030+0000000008+I20000000000+0000005030+Z
910213001910213078-000470     910213006007347000018SHOE-CEMENT 70ml-TIN   0000001000+00001753+00000+0001T   00001753+0000001413          1400 RY1810               2AZ
910213002910213007-000041     910213006003000120598INK & INK PAD          0000001000+00002630+00000+0001T   00002630+0000001413          1400 RY1130               2AZ
910213003910213112-116038     910213006009681820246TCS CARRIER BAG MIDI   0000001000+00000035+00000+0001T   00000035+0000001413          1400 RY1090               2AZ
910214000910214               910214               170213GE     1400+00000+GE0000002192+0000002192+000000000+000000307+0000002490+0000000009+I20000000000+0000002490+Z
910214001910214047-005126     910214006001023451255CABLETIES 100/150/200mm0000001000+00002192+00000+0001T   00002192+0000001413          1400 RY1880               2AZ
910215000910215               910215               170213GE     1400+00000+GE0000001753+0000001753+000000000+000000246+0000001990+0000000009+I20000000000+0000001990+Z
910215001910215006-000120     910215006001023346889BALLOONS 10PC MIX COL  0000001000+00001753+00000+0001T   00001753+0000001421          1400 RY1131               2AZ
910216000910216               910216               170213GE     1400+00000+GE0000018724+0000018724+000000000+000002624+0000021348+0000000000+I40000021348+0000000000+Z
910216001910216369-000813     910216006001023450340P/ALONG ANIMAL PHONE   0000001000+00005262+00000+0001T   00005262+0000001426          1400 RY1745               2AZ
910216002910216369-000225     910216006001023857132BABY EDU BATHTIME 5PC  0000001000+00002630+00000+0001T   00002630+0000001426          1400 RY1745               2AZ
910216003910216466-064838     910216006001023835031BALLS MASSAGE 8cm SET-30000001000+00001753+00000+0001T   00001753+0000001426          1400 RY1785               2AZ
910216004910216206-000320     910216006003000632909BOTTLE STOPPER+MARKERS 0000001000+00005262+00000+0001T   00005262+0000001426          1400 RY1321               2AZ
910216005910216564-000012     910216006001023130075BUBBLE BOTTLE MAGIC    0000001000+00000700+00000+0001T   00000700+0000001426          1400 RY1131               2AZ
910216006910216034-078835     910216006001023857521FEEDING-BOWLS 3PCE     0000001000+00003069+00000+0001T   00003069+0000001426          1400 RY1215               2AZ
910216007910216112-116069     910216006009681820277TCS CARRIER BAG JUMBO  0000001000+00000048+00000+0001T   00000048+0000001426          1400 RY1090               2AZ
910217000910217               910217               170213GE     1400+00000+GE0000005523+0000005523+000000000+000000774+0000006290+0000000007+I20000000000+0000006290+Z
910217001910217903-000710     910217006002099007056SWT REFRESHERS MINT    0000001000+00001139+00000+0001T   00001139+0000001427          1400 RY1150               2AZ
910217002910217072-020261     910217006003000305131PET DOG-CHEW TYRE SMALL0000002000+00002192+00000+0001T   00002192+0000001427          1400 RY1870               2AZ
910218000910218               910218               170213GE     1400+00000+GE0000000876+0000000876+000000000+000000123+0000000990+0000000009+I20000000000+0000000990+Z
910218001910218077-000151     910218006008766114676GIFT-WRAP C/PHANE ASSTD0000001000+00000876+00000+0001T   00000876+0000001428          1400 RY1112               2AZ
910219000910219               910219               170213GE     1400+00000+GE0000001578+0000001578+000000000+000000221+0000001790+0000000009+I20000000000+0000001790+Z
910219001910219018-000127     910219006001023380289MUG OCC STRAIGHT LOVE  0000001000+00001578+00000+0001T   00001753+0006471433          1400 RY1515               2AZ
910220000910220               910220               170213GE     1400+00000+GE0000006171+0000006171+000000000+000000866+0000007030+0000000007+I20000000000+0000007030+Z
910220001910220079-000282     910220006001023493309PAINT TUBS POSTER 12COL0000001000+00002630+00000+0001T   00002630+0000001438          1400 RY1130               2AZ
910220002910220200-003026     910220006003000276448REFUSE BAGS 10PCE GREEN0000002000+00001753+00000+0001T   00001753+0000001438          1400 RY1214               2AZ
910220003910220112-116038     910220006009681820246TCS CARRIER BAG MIDI   0000001000+00000035+00000+0001T   00000035+0000001438          1400 RY1090               2AZ
910221000910221               910221               170213GE     1400+00000+GE0000002628+0000002628+000000000+000000368+0000002990+0000000006+I20000000000+0000002990+Z
910221001910221006-000167-E   910221006003000517213BALLOONS GOLD METALLIC 0000001000+00001314+00000+0001T   00001314+0000001441          1400 RY1131               2AZ
910221002910221006-000167-C   910221006003000516971BALLOONS PINK METALLIC 0000001000+00001314+00000+0001T   00001314+0000001441          1400 RY1131               2AZ
910222000910222               910222               170213GE     1400+00000+GE0000000876+0000000876+000000000+000000123+0000000990+0000000009+I20000000000+0000000990+Z
910222001910222077-000314     910222006003000181148GIFT-BAG 11X14CM MATT  0000001000+00000876+00000+0001T   00000876+0000001441          1400 RY1112               2AZ
910223000910223               910223               170213GE     1400+00000+GE0000001753+0000001753+000000000+000000246+0000001990+0000000009+I20000000000+0000001990+Z
910223001910223024-091100     910223006001023914224BAKING-CUPS PAPER 100PC0000001000+00001753+00000+0001T   00001753+0000001442          1400 RY1300               2AZ
910224000910224               910224               170213GE     1400+00000+GE0000003069+0000003069+000000000+000000430+0000003499+0000000000+I40000003499+0000000000+Z
910224001910224072-020306     910224006003000024162PET DOG TENNIS BALL    0000001000+00003069+00000+0001T   00003069+0000001443          1400 RY1870               2AZ
910225000910225               910225               170213GE     1400+00000+GE0000012312+0000012312+000000000+000001725+0000014037+0000000000+I40000014037+0000000000+Z
910225001910225206-000150     910225006003000628667SLICER CUCUMBER        0000001000+00002192+00000+0001T   00002192+0000001449          1400 RY1321               2AZ
910225002910225206-000210     910225006003000631582TOOTHPICK HOLDER FLOWER0000001000+00003069+00000+0001T   00003069+0000001449          1400 RY1321               2AZ
910225003910225206-000330     910225006003000633029BEER MUG MAGIC 15cm    0000001000+00007016+00000+0001T   00007016+0000001449          1400 RY1321               2AZ
910225004910225112-116038     910225006009681820246TCS CARRIER BAG MIDI   0000001000+00000035+00000+0001T   00000035+0000001449          1400 RY1090               2AZ
910226000910226               910226               170213GE     1400+00000+GE0000002665+0000002665+000000000+000000374+0000003030+0000000009+I20000000000+0000003030+Z
910226001910226567-011509     910226000814625012832BK COLOURING 96P LITTLE0000001000+00002630+00000+0001T   00002630+0000001450          1400 RY1757               2AZ
910226002910226112-116038     910226006009681820246TCS CARRIER BAG MIDI   0000001000+00000035+00000+0001T   00000035+0000001450          1400 RY1090               2AZ
910227000910227               910227               170213GE     1400+00000+GE0000014605+0000014605+000000000+000002047+0000016650+0000000002+I20000000000+0000016650+Z
910227001910227077-000270     910227006003000395453GIFT-BAG PPR JMB 33X45 0000001000+00002630+00000+0001T   00002630+0000001452          1400 RY1112               2AZ
910227002910227368-000637     910227006001023874092PLUSH BEAR SLEEPING LOV0000001000+00011402+00000+0001T   00012279+0006471452          1400 RY1745               2AZ
910227003910227903-000155     910227006009803374435SWT LOLLY I LUV U HEART0000001000+00000525+00000+0001T   00000525+0000001452          1400 RY1150               2AZ
910227004910227112-116069     910227006009681820277TCS CARRIER BAG JUMBO  0000001000+00000048+00000+0001T   00000048+0000001452          1400 RY1090               2AZ
910228000910228               910228               170213GE     1400+00000+GE0000033802+0000033802+000000000+000004737+0000038539+0000000000+I40000038539+0000000000+Z
910228001910228077-000011-C   910228006001023808523TISSUE 10xSHTS RED     0000001000+00000876+00000+0001T   00000876+0000001453          1400 RY1112               2AZ
910228002910228079-014152     910228006003000253074ART+CRAFT PK50 ASSTD   0000004000+00003069+00000+0001T   00003069+0000001453          1400 RY1130               2AZ
910228003910228079-013099     910228006003000081875ART+CRAFT EYES ASSTD   0000004000+00001753+00000+0001T   00001753+0000001453          1400 RY1130               2AZ
910228004910228079-006493     910228006003000612086GLITTER GLUE 125g ASSTD0000003000+00002192+00000+0001T   00002192+0000001453          1400 RY1130               2AZ
910228005910228007-000324     91022800600968585864125 SHEETS BRIGHTS MARLI0000002000+00003507+00000+0001T   00003507+0000001453          1400 RY1130               2AZ
910228006910228112-116069     910228006009681820277TCS CARRIER BAG JUMBO  0000001000+00000048+00000+0001T   00000048+0000001453          1400 RY1090               2AZ
910229000910229               910229               170213GE     1400+00000+GE0000007109+0000007109+000000000+000001013+0000008120+0000000002+I20000000000+0000008120+Z
910229001910229903-000183     910229006003000451043SWT LB HEART LOLLY     0000018000+00000393+00000+0001T   00000393+0000001513          1400 RY1150               2AZ
910229002910229112-116038     910229006009681820246TCS CARRIER BAG MIDI   0000001000+00000035+00000+0001T   00000035+0000001513          1400 RY1090               2AZ
910230000910230               910230               170213GE     1400+00000+GE0000019114+0000019114+000000000+000002681+0000021790+0000000005+I20000000000+0000021790+Z
910230001910230301-085007     910230006003000673698ORN OCC. LOVE S/PLAQUE 0000001000+00007893+00000+0001T   00007893+0000001517          1400 RY1505               2AZ
910230002910230566-000068     910230006003000418046POP UP LOVE 2 ASSTD    0000001000+00002192+00000+0001T   00002192+0000001517          1400 RY1130               2AZ
910230003910230089-060027     910230006003000245871KEY-CHAIN HEART 6X6cm  0000001000+00003069+00000+0001T   00003069+0000001517          1400 RY1205               2AZ
910230004910230077-000305     910230006003000395422GIFT-BAG WINE 10X35CM  0000001000+00001490+00000+0001T   00001490+0000001517          1400 RY1112               2AZ
910230005910230077-000299     910230006003000395576G/BAG 32x25cm LRG LOVE 0000001000+00001490+00000+0001T   00001490+0000001517          1400 RY1112               2AZ
910230006910230903-000200     910230006009826020234SWT CHOC RP CHOCO 23G  0000001000+00000788+00000+0001T   00000788+0000001517          1400 RY1150               2AZ
910230007910230080-000133-A   910230006003000647019MINI VALENTINES CARD   0000001000+00000437+00000+0001T   00000437+0000001517          1400 RY1112               2AZ
910230008910230030-000010     910230006003000084395P/DOOR HANGER 2-ASSTD  0000001000+00001314+00000+0001T   00001490+0008181517          1400 RY1505               2AZ
910230009910230903-000183     910230006003000451043SWT LB HEART LOLLY     0000001000+00000393+00000+0001T   00000393+0000001517          1400 RY1150               2AZ
910230010910230112-116069     910230006009681820277TCS CARRIER BAG JUMBO  0000001000+00000048+00000+0001T   00000048+0000001517          1400 RY1090               2AZ
910231000910231               910231               170213GE     1400+00000+GE0000004855+0000004855+000000000+000000681+0000005530+0000000006+I20000000000+0000005530+Z
910231001910231565-000002     910231006003000308071NOVELTY GROWING ANIMALS0000001000+00001753+00000+0001T   00001753+0000001522          1400 RY1745               2AZ
910231002910231362-000307     910231006003000519750HAIR HEADBAND PRINTED  0000001000+00001314+00000+0001T   00001314+0000001522          1400 RY1160               2AZ
910231003910231065-003630     910231006001023647511MICROPHONE ECHO        0000001000+00001753+00000+0001T   00001753+0000001522          1400 RY1745               2AZ
910231004910231112-116038     910231006009681820246TCS CARRIER BAG MIDI   0000001000+00000035+00000+0001T   00000035+0000001522          1400 RY1090               2AZ
910232000910232               910232               170213GE     1400+00000+GE0000007714+0000007714+000000000+000001081+0000008790+0000000005+I20000000000+0000008790+Z
910232001910232080-000133-A   910232006003000647019MINI VALENTINES CARD   0000001000+00000437+00000+0001T   00000437+0000001523          1400 RY1112               2AZ
910232002910232566-000317     910232006003000524204STICKER TAPE 2PCS      0000001000+00003507+00000+0001T   00003507+0000001523          1400 RY1130               2AZ
910232003910232080-000124     910232006003000297733CARD & ENV VALENTINES  0000001000+00001578+00000+0001T   00001578+0000001523          1400 RY1112               2AZ
910232004910232566-000359     910232006003000582709STICKER BOOK LOVE SPARK0000001000+00002192+00000+0001T   00002192+0000001523          1400 RY1130               2AZ
910233000910233               910233               170213GE     1400+00000+GE0000003067+0000003067+000000000+000000430+0000003497+0000000000+I40000003497+0000000000+Z
910233001910233080-000114     910233006003000246472CARD&ENV LOVE-MUSICAL  0000001000+00001314+00000+0001T   00001753+0008151525          1400 RY1112               2AZ
910233002910233080-000101     910233006003000236732CARD&ENVLPE FEMALE     0000001000+00001753+00000+0001T   00001753+0000001525          1400 RY1112               2AZ
910234000910234               910234               170213GE     1400+00000+GE0000015259+0000015259+000000000+000002138+0000017390+0000000007+I20000000000+0000017390+Z
910234001910234077-000299     910234006003000395576G/BAG 32x25cm LRG LOVE 0000002000+00001490+00000+0001T   00001490+0000001526          1400 RY1112               2AZ
910234002910234368-000113     910234006001023780874PLUSH BLINGED LOVE 30cm0000001000+00012279+00000+0001T   00012279+0000001526          1400 RY1745               2AZ
910235000910235               910235               170213GE     1400+00000+GE0000004420+0000004420+000000000+000000619+0000005030+0000000009+I20000000000+0000005030+Z
910235001910235031-000848     910235006001023851901P/FRAME COLLAGE 2ASSTD 0000001000+00004385+00000+0001T   00004385+0000001527          1400 RY1510               2AZ
910235002910235112-116038     910235006009681820246TCS CARRIER BAG MIDI   0000001000+00000035+00000+0001T   00000035+0000001527          1400 RY1090               2AZ
910236000910236               910236               170213GE     1400+00000+GE0000005699+0000005699+000000000+000000798+0000006490+0000000007+I20000000000+0000006490+Z
910236001910236073-000519     910236006001023871763COSMETIC-BG CYLINDRICAL0000001000+00003507+00000+0001T   00003507+0000001527          1400 RY1200               2AZ
910236002910236041-007001-A   910236006003000636860H/GLOW LIQUID CHERY    0000001000+00002192+00000+0001T   00002192+0000001527          1400 RY1200               2AZ
910237000910237               910237               170213GE     1400+00000+GE0000001226+0000001226+000000000+000000172+0000001390+0000000008+I20000000000+0000001390+Z
910237001910237083-000055     910237006003000003853LIGHTER ELCTRNC REFILBL0000002000+00000613+00000+0001T   00000613+0000001528          1400 RY1315               2AZ
910238000910238               910238               170213GE     1400+00000+GE0000001578+0000001578+000000000+000000221+0000001790+0000000009+I20000000000+0000001790+Z
910238001910238018-000127     910238006001023380289MUG OCC STRAIGHT LOVE  0000001000+00001578+00000+0001T   00001753+0006471530          1400 RY1515               2AZ
910239000910239               910239               170213GE     1400+00000+GE0000001576+0000001576+000000000+000000222+0000001790+0000000008+I20000000000+0000001790+Z
910239001910239903-000200     910239006009826020234SWT CHOC RP CHOCO 23G  0000002000+00000788+00000+0001T   00000788+0000001531          1400 RY1150               2AZ
910240000910240               910240               170213GE     1400+00000+GE0000014025+0000014025+000000000+000001965+0000015990+0000000000+I40000015990+0000000000+Z
910240001910240903-000844     910240005010478432567SWT CANDY DL LUV HEARTS0000004000+00001314+00000+0001T   00001314+0000001535          1400 RY1150               2AZ
910240002910240200-000040     910240006001023729620BAG SEALERS 5PC CLIPS  0000001000+00002630+00000+0001T   00002630+0000001535          1400 RY1214               2AZ
910240003910240007-000323     910240006009697791042PAPER A4 80GSM 100'S   0000001000+00006139+00000+0001T   00006139+0000001535          1400 RY1130               2AZ
910241000910241               910241               170213GE     1400+00000+GE0000001753+0000001753+000000000+000000246+0000001990+0000000009+I20000000000+0000001990+Z
910241001910241200-003024     910241006001023657299REFUSE BAGS 20PCE BLACK0000001000+00001753+00000+0001T   00001753+0000001535          1400 RY1214               2AZ
910242000910242               910242               170213GE     1400+00000+GE0000015785+0000015785+000000000+000002212+0000017997+0000000000+I40000017997+0000000000+Z
910242001910242368-000111     910242006001023780812PLUSH BEAR/DOG 29CM    0000001000+00012279+00000+0001T   00012279+0000001537          1400 RY1745               2AZ
910242002910242077-000011-C   910242006001023808523TISSUE 10xSHTS RED     0000001000+00000876+00000+0001T   00000876+0000001537          1400 RY1112               2AZ
910242003910242077-000270     910242006003000395453GIFT-BAG PPR JMB 33X45 0000001000+00002630+00000+0001T   00002630+0000001537          1400 RY1112               2AZ
910243000910243               910243               170213GE     1400+00000+GE0000001753+0000001753+000000000+000000246+0000001990+0000000009+I20000000000+0000001990+Z
910243001910243077-000309     910243006001023608604GIFT-BAG 25X32CM GLOSS 0000001000+00001753+00000+0001T   00001753+0000001537          1400 RY1112               2AZ
910244000910244               910244               170213GE     1400+00000+GE0000001578+0000001578+000000000+000000221+0000001790+0000000009+I20000000000+0000001790+Z
910244001910244018-000127     910244006001023380289MUG OCC STRAIGHT LOVE  0000001000+00001578+00000+0001T   00001753+0006471538          1400 RY1515               2AZ
910245000910245               910245               170213GE     1400+00000+GE0000000350+0000000350+000000000+000000049+0000000390+0000000009+I20000000000+0000000390+Z
910245001910245903-000159     910245006003000417629SWT LB SMALL DUMMIE    0000001000+00000350+00000+0001T   00000350+0000001538          1400 RY1150               2AZ
910246000910246               910246               170213GE     1400+00000+GE0000001753+0000001753+000000000+000000246+0000001999+0000000000+I40000001999+0000000000+Z
910246001910246080-000116     910246006003000253555CARD&ENVELOPE-HANDMADE 0000001000+00001753+00000+0001T   00001753+0000001541          1400 RY1112               2AZ
910247000910247               910247               170213GE     1400+00000+GE0000004205+0000004205+000000000+000000590+0000004790+0000000005+I20000000000+0000004790+Z
910247001910247077-000310     910247006001023608635GIFT-BAG 18X23CM GLOSS 0000001000+00001314+00000+0001T   00001314+0000001543          1400 RY1112               2AZ
910247002910247018-000127     910247006001023380289MUG OCC STRAIGHT LOVE  0000001000+00001578+00000+0001T   00001753+0006471543          1400 RY1515               2AZ
910247003910247903-000200     910247006009826020234SWT CHOC RP CHOCO 23G  0000001000+00000788+00000+0001T   00000788+0000001543          1400 RY1150               2AZ
910247004910247903-000155     910247006009803374435SWT LOLLY I LUV U HEART0000001000+00000525+00000+0001T   00000525+0000001543          1400 RY1150               2AZ
910247005910247080-000114     910247006003000246472CARD&ENV LOVE-MUSICAL  0000001000+00001314+00000+0001T   00001753+0008151543          1400 RY1112               2AZ
910247006910247077-000310     910247006001023608635GIFT-BAG 18X23CM GLOSS 0000001000-00001314+00000+0001T   00001314+0000001543          1400 RY11121IC            2 Z
910248000910248               910248               170213GE     1400+00000+GE0000003542+0000003542+000000000+000000496+0000004030+0000000008+I20000000000+0000004030+Z
910248001910248018-000136     910248006001023659026MUG OCC LOVE W/PLUSH   0000001000+00003507+00000+0001T   00003507+0000001544          1400 RY1515               2AZ
910248002910248112-116038     910248006009681820246TCS CARRIER BAG MIDI   0000001000+00000035+00000+0001T   00000035+0000001544          1400 RY1090               2AZ
910249000910249               910249               170213GE     1400+00000+GE0000002628+0000002628+000000000+000000369+0000002990+0000000007+I20000000000+0000002990+Z
910249001910249077-000151     910249006008766114676GIFT-WRAP C/PHANE ASSTD0000003000+00000876+00000+0001T   00000876+0000001545          1400 RY1112               2AZ
910250000910250               910250               170213GE     1400+00000+GE0000011221+0000011221+000000000+000001574+0000012790+0000000005+I20000000000+0000012790+Z
910250001910250304-001204     910250006001023737984FLOWER OCC. TEDDY/ROSES0000003000+00001402+00000+0001T   00001490+0006471548          1400 RY1510               2AZ
910250002910250077-000309     910250006001023608604GIFT-BAG 25X32CM GLOSS 0000001000+00001753+00000+0001T   00001753+0000001548          1400 RY1112               2AZ
910250003910250018-019000     910250006003000557288MUG OCC. LOVE JUMBO    0000001000+00005262+00000+0001T   00005262+0000001548          1400 RY1515               2AZ
910251000910251               910251               170213GE     1400+00000+GE0000011884+0000011884+000000000+000001666+0000013550+0000000000+I20000000000+0000013550+Z
910251001910251565-000893     910251006003000643516NOVELTY FLASHING BALL  0000002000+00002630+00000+0001T   00002630+0000001551          1400 RY1745               2AZ
910251002910251036-000500     910251006003000663903BASKET WIRE 39x27x13cm 0000001000+00005262+00000+0001T   00005262+0000001551          1400 RY1212               2AZ
910251003910251112-116069     910251006009681820277TCS CARRIER BAG JUMBO  0000001000+00000048+00000+0001T   00000048+0000001551          1400 RY1090               2AZ
910251004910251903-005001     910251006002580020014SWT CT MALLOW MICE 120g0000001000+00001314+00000+0001T   00001314+0000001551          1400 RY1150               2AZ
910252000910252               910252               170213GE     1400+00000+GE0000004254+0000004254+000000000+000000598+0000004852+0000000000+I40000004852+0000000000+Z
910252001910252304-001204     910252006001023737984FLOWER OCC. TEDDY/ROSES0000003000+00001402+00000+0001T   00001490+0006471553          1400 RY1510               2AZ
910252002910252112-116069     910252006009681820277TCS CARRIER BAG JUMBO  0000001000+00000048+00000+0001T   00000048+0000001553          1400 RY1090               2AZ
910253000910253               910253               170213GE     1400+00000+GE0000001753+0000001753+000000000+000000246+0000001990+0000000009+I20000000000+0000001990+Z
910253001910253077-000904     910253006003000410682G/WRAP 700mmx1m PATTERN0000001000+00001753+00000+0001T   00001753+0000001553          1400 RY1112               2AZ
910254000910254               910254               170213GE     1400+00000+GE0000004857+0000004857+000000000+000000681+0000005530+0000000008+I20000000000+0000005530+Z
910254001910254030-000031-A   910254006003000457588PLAQUE W/WORDS ASSTD   0000001000+00004385+00000+0001T   00004823+0006471554          1400 RY1505               2AZ
910254002910254080-000133-A   910254006003000647019MINI VALENTINES CARD   0000001000+00000437+00000+0001T   00000437+0000001554          1400 RY1112               2AZ
910254003910254112-116038     910254006009681820246TCS CARRIER BAG MIDI   0000001000+00000035+00000+0001T   00000035+0000001554          1400 RY1090               2AZ
910255000910255               910255               170213GE     1400+00000+GE0000017542+0000017542+000000000+000002456+0000019990+0000000008+I20000000000+0000019990+Z
910255001910255030-004090     910255006003000674503P/WALL MDF 30X40CM     0000001000+00008771+00000+0001T   00008771+0000001557          1400 RY1505               2AZ
910255002910255030-005030     910255006003000674626P/WDN SIGN 16x40CM ASS 0000001000+00008771+00000+0001T   00008771+0000001557          1400 RY1505               2AZ
910256000910256               910256               170213GE     1400+00000+GE0000004385+0000004385+000000000+000000614+0000004990+0000000009+I20000000000+0000004990+Z
910256001910256368-000049     910256006003000536955PLUSH BEAR 15cm LOVE   0000001000+00004385+00000+0001T   00004385+0000001559          1400 RY1745               2AZ
910257000910257               910257               170213GE     1400+00000+GE0000001578+0000001578+000000000+000000221+0000001790+0000000009+I20000000000+0000001790+Z
910257001910257080-000124     910257006003000297733CARD & ENV VALENTINES  0000001000+00001578+00000+0001T   00001578+0000001600          1400 RY1112               2AZ
910258000910258               910258               170213GE     1400+00000+GE0000002665+0000002665+000000000+000000374+0000003030+0000000009+I20000000000+0000003030+Z
910258001910258018-000129     910258006001023403353MUG OCC. LOVE V-SHAPE  0000001000+00002630+00000+0001T   00002630+0000001608          1400 RY1515               2AZ
910258002910258112-116038     910258006009681820246TCS CARRIER BAG MIDI   0000001000+00000035+00000+0001T   00000035+0000001608          1400 RY1090               2AZ
910259000910259               910259               170213GE     1400+00000+GE0000006441+0000006441+000000000+000000905+0000007340+0000000006+I20000000000+0000007340+Z
910259001910259903-000183     910259006003000451043SWT LB HEART LOLLY     0000003000+00000393+00000+0001T   00000393+0000001609          1400 RY1150               2AZ
910259002910259301-085003     910259006003000420827ORN OCCASION LOVE KEY  0000001000+00005262+00000+0001T   00005262+0000001609          1400 RY1505               2AZ
910260000910260               910260               170213GE     1400+00000+GE0000004243+0000004243+000000000+000000595+0000004830+0000000008+I20000000000+0000004830+Z
910260001910260018-000127     910260006001023380289MUG OCC STRAIGHT LOVE  0000001000+00001578+00000+0001T   00001753+0006471610          1400 RY1515               2AZ
910260002910260304-000720     910260006001023843050F/BUNCH ROSE 6-HEAD AST0000001000+00002630+00000+0001T   00002630+0000001610          1400 RY1510               2AZ
910260003910260112-116038     910260006009681820246TCS CARRIER BAG MIDI   0000001000+00000035+00000+0001T   00000035+0000001610          1400 RY1090               2AZ
910261000910261               910261               170213GE     1400+00000+GE0000007745+0000007745+000000000+000001087+0000008830+0000000002+I20000000000+0000008830+Z
910261001910261077-000151     910261006008766114676GIFT-WRAP C/PHANE ASSTD0000006000+00000876+00000+0001T   00000876+0000001612          1400 RY1112               2AZ
910261002910261077-000245     910261006001023759214GIFT-RIBBON METALLICx2 0000002000+00001227+00000+0001T   00001227+0000001612          1400 RY1112               2AZ
910261003910261112-116038     910261006009681820246TCS CARRIER BAG MIDI   0000001000+00000035+00000+0001T   00000035+0000001612          1400 RY1090               2AZ
910262000910262               910262               170213GE     1400+00000+GE0000003507+0000003507+000000000+000000491+0000003990+0000000008+I20000000000+0000003990+Z
910262001910262018-000136     910262006001023659026MUG OCC LOVE W/PLUSH   0000001000+00003507+00000+0001T   00003507+0000001612          1400 RY1515               2AZ
910263000910263               910263               170213GE     1400+00000+GE0000003066+0000003066+000000000+000000431+0000003490+0000000007+I20000000000+0000003490+Z
910263001910263016-006509     910263006003000567355S/JAR GLS MINI LABEL   0000001000+00001753+00000+0001T   00002192+0008191613          1400 RY1300               2AZ
910263002910263077-000011-C   910263006001023808523TISSUE 10xSHTS RED     0000001000+00000876+00000+0001T   00000876+0000001613          1400 RY1112               2AZ
910263003910263080-000133-A   910263006003000647019MINI VALENTINES CARD   0000001000+00000437+00000+0001T   00000437+0000001613          1400 RY1112               2AZ
910264000910264               910264               170213GE     1400+00000+GE0000004381+0000004381+000000000+000000614+0000004990+0000000005+I20000000000+0000004990+Z
910264001910264030-000010     910264006003000084395P/DOOR HANGER 2-ASSTD  0000002000+00001314+00000+0001T   00001490+0008181613          1400 RY1505               2AZ
910264002910264080-000113     910264006003000237449CARD&ENVLPE - LOVE     0000001000+00001753+00000+0001T   00001753+0000001613          1400 RY1112               2AZ
910265000910265               910265               170213GE     1400+00000+GE0000003156+0000003156+000000000+000000442+0000003590+0000000008+I20000000000+0000003590+Z
910265001910265018-000127     910265006001023380289MUG OCC STRAIGHT LOVE  0000002000+00001578+00000+0001T   00001753+0006471616          1400 RY1515               2AZ
910266000910266               910266               170213GE     1400+00000+GE0000014032+0000014032+000000000+000001966+0000015990+0000000008+I20000000000+0000015990+Z
910266001910266077-000316     910266006001023609731GIFT-BAG 25X32CM MATT  0000001000+00001753+00000+0001T   00001753+0000001617          1400 RY1112               2AZ
910266002910266368-000111     910266006001023780812PLUSH BEAR/DOG 29CM    0000001000+00012279+00000+0001T   00012279+0000001617          1400 RY1745               2AZ
910267000910267               910267               170213GE     1400+00000+GE0000002630+0000002630+000000000+000000369+0000002990+0000000009+I20000000000+0000002990+Z
910267001910267084-009410     910267006001023477651SCISSORS 21cm PL-HANDLE0000001000+00002630+00000+0001T   00002630+0000001618          1400 RY1200               2AZ
910268000910268               910268               170213GE     1400+00000+GE0000008802+0000008802+000000000+000001234+0000010030+0000000006+I20000000000+0000010030+Z
910268001910268267-000200     910268006001023892379PUZZLE 24pc CARTOON    0000002000+00002192+00000+0001T   00002192+0000001619          1400 RY1755               2AZ
910268002910268079-000275     910268006003000160488PAINT-BRUSHES 6PCE PRO 0000001000+00001753+00000+0001T   00001753+0000001619          1400 RY1130               2AZ
910268003910268079-000260     910268006001023886385PAINT TUBS WT BASE 4COL0000001000+00002630+00000+0001T   00002630+0000001619          1400 RY1130               2AZ
910268004910268112-116038     910268006009681820246TCS CARRIER BAG MIDI   0000001000+00000035+00000+0001T   00000035+0000001619          1400 RY1090               2AZ
910269000910269               910269               170213GE     1400+00000+GE0000008331-0000008331-000000000+000001167-0000009500-0000000002+I20000000000+0000009500-Z
910269001910269024-000213     910269006001023458681COOKIE-CUTTER DONUT    0000001000-00006139+00000+0001T   00006139+0000001621          1400 RY13001IC            2 Z
910269002910269024-000042     910269006002580009255M/CUP MINI 30ML H/HOUSE0000001000-00002192+00000+0001T   00002192+0000001621          1400 RY13001IC            2 Z
910270000910270               910270               170213GE     1400+00000+GE0000003947-0000003947-000000000+000000553-0000004500-0000000000+I20000000000+0000004500-Z
910270001910270024-000213     910270006001023458681COOKIE-CUTTER DONUT    0000001000-00006139+00000+0001T   00006139+0000001621          1400 RY13001IC            2 Z
910270002910270024-000042     910270006002580009255M/CUP MINI 30ML H/HOUSE0000001000+00002192+00000+0001T   00002192+0000001621          1400 RY1300               2 Z
910271000910271               910271               170213GE     1400+00000+GE0000008331+0000008331+000000000+000001167+0000009490+0000000008+I20000000000+0000009490+Z
910271001910271024-000213     910271006001023458681COOKIE-CUTTER DONUT    0000001000+00006139+00000+0001T   00006139+0000001623          1400 RY1300               2AZ
910271002910271024-000042     910271006002580007916M/CUP MINI 30ML H/HOUSE0000001000+00002192+00000+0001T   00002192+0000001623          1400 RY1300               2AZ
910272000910272               910272               170213GE     1400+00000+GE0000017571+0000017571+000000000+000002463+0000020034+0000000000+I40000020034+0000000000+Z
910272001910272024-000069     910272006001023849571EGG-WHISK S/S 30cm     0000001000+00003069+00000+0001T   00003069+0000001625          1400 RY1300               2AZ
910272002910272024-000093-B   910272006003000430819MEASURING-SPOONS ASSTD 0000001000+00002630+00000+0001T   00002630+0000001625          1400 RY1300               2AZ
910272003910272024-000093-A   910272006003000430697MEASURING-CUPS ASSTD   0000001000+00004385+00000+0001T   00004385+0000001625          1400 RY1300               2AZ
910272004910272024-000042     910272006002580009255M/CUP MINI 30ML H/HOUSE0000001000+00002192+00000+0001T   00002192+0000001625          1400 RY1300               2AZ
910272005910272024-000066     910272006001023769947SPATULA SILICONE 25CM  0000001000+00002630+00000+0001T   00002630+0000001625          1400 RY1300               2AZ
910272006910272024-000007     910272006003000061846SPATULA LONG 32CM      0000001000+00002630+00000+0001T   00002630+0000001625          1400 RY1300               2AZ
910272007910272112-116038     910272006009681820246TCS CARRIER BAG MIDI   0000001000+00000035+00000+0001T   00000035+0000001625          1400 RY1090               2AZ
910273000910273               910273               170213GE     1400+00000+GE0000002751+0000002751+000000000+000000386+0000003137+0000000000+I40000003137+0000000000+Z
910273001910273304-001204     910273006001023737984FLOWER OCC. TEDDY/ROSES0000001000+00001402+00000+0001T   00001490+0006471627          1400 RY1510               2AZ
910273002910273903-000194     910273006009826020616SWT CHOC RP LOLLY 25G  0000001000+00001314+00000+0001T   00001314+0000001627          1400 RY1150               2AZ
910273003910273112-116038     910273006009681820246TCS CARRIER BAG MIDI   0000001000+00000035+00000+0001T   00000035+0000001627          1400 RY1090               2AZ
910274000910274               910274               170213GE     1400+00000+GE0000001402+0000001402+000000000+000000197+0000001590+0000000009+I20000000000+0000001590+Z
910274001910274304-001204     910274006001023737984FLOWER OCC. TEDDY/ROSES0000001000+00001402+00000+0001T   00001490+0006471628          1400 RY1510               2AZ
910275000910275               910275               170213GE     1400+00000+GE0000000035+0000000035+000000000+000000005+0000000040+0000000000+I20000000000+0000000040+Z
910275001910275112-116038     910275006009681820246TCS CARRIER BAG MIDI   0000001000+00000035+00000+0001T   00000035+0000001628          1400 RY1090               2AZ
910276000910276               910276               170213GE     1400+00000+GE0000004385+0000004385+000000000+000000614+0000004990+0000000009+I20000000000+0000004990+Z
910276001910276001-000175     910276006001023788108B/MUG GLS LOVE 380ML   0000001000+00004385+00000+0001T   00004385+0000001629          1400 RY1515               2AZ
910277000910277               910277               170213GE     1400+00000+GE0000007451+0000007451+000000000+000001044+0000008495+0000000000+I40000008495+0000000000+Z
910277001910277018-000136     910277006001023659026MUG OCC LOVE W/PLUSH   0000001000+00003507+00000+0001T   00003507+0000001630          1400 RY1515               2AZ
910277002910277565-000040     910277006008766115635NOVELTY ICON BEANIE    0000001000+00002630+00000+0001T   00002630+0000001630          1400 RY1745               2AZ
910277003910277903-000194     910277006009826020616SWT CHOC RP LOLLY 25G  0000001000+00001314+00000+0001T   00001314+0000001630          1400 RY1150               2AZ
910278000910278               910278               170213GE     1400+00000+GE0000000788+0000000788+000000000+000000111+0000000890+0000000009+I20000000000+0000000890+Z
910278001910278077-000010-D   910278006001023123886CREPE-PAPER WHITE      0000001000+00000788+00000+0001T   00000788+0000001638          1400 W12112               2AZ
910279000910279               910279               170213GE     1400+00000+GE0000001227+0000001227+000000000+000000172+0000001390+0000000009+I20000000000+0000001390+Z
910279001910279077-000245     910279006001023759214GIFT-RIBBON METALLICx2 0000001000+00001227+00000+0001T   00001227+0000001639          1400 W12112               2AZ
910280000910280               910280               170213GE     1400+00000+GE0000005262+0000005262+000000000+000000737+0000005990+0000000009+I20000000000+0000005990+Z
910280001910280301-086006     910280006003000498918ORN OCCASION LOVE 4ASTD0000001000+00005262+00000+0001T   00005262+0000001715          1400 W12505               2BZ
A17021300                                          09512063GESLAVE 2                       RY11IC
A17021301                                          16394634GESLAVE 2                       W121IC
M17021391                              CASH        GESLAVE 2                       Z-REPORT No.   653TOTAL (Sales - Refunds)           7848.48       CASH TO BE BANKED                 4593.70       DEBIT CARDS                          0.00       CREDIT CARDS                      3203.98       Z-READING                         7797.68       AIRTIME DEBIT CARD SALES             0.00       AIRTIME CARD SALES                   0.00       OVERS/UNDERS                         0.00       AIRTIME CASH SALES                   0.00       GIFT CARDS                           0.00       GIFT CARD CASH SALES                 0.00       CLEANING-MATERIALS                  39.90       STAFF-REFRESHMENTS                  10.90       T O T A L  CASH PAYOUTS             50.80                                                                                                                                                                                                                                                      Z
M17021392                              CASH        GEABSENT                                                                                                                                                                                          ANNUAL LEAVE                                                                                                                                                                                    DAY OFF                                                                                                                                                                                         COMMENTS                                                                                                                                                                                                                                                                                                                                                                                       Z
Y17021300                                          GE00000000707251+000110
ZGE17021319413 SLAVE 2      SALES DATA                     NEXT INVOICE NO.  910281 0654
X GE Slave 2 First invoice 910168 170213 Last invoice 910280 170213 Next invoice 910281 Total number of records 000000392 clbackup completed 19:41:12
