761390000761390               761390               170213GG     1400+00000+GG0000003542+0000003542+000000000+000000496+0000004030+0000000008+I20000000000+0000004030+Z
761390001761390018-005009     761390006001023725608MUG W/PLUSH-BEAR LOVE  0000001000+00003507+00000+0001T   00003507+0000000912          1400 JH4515               1DZ
761390002761390112-116038     761390006009681820246TCS CARRIER BAG MIDI   0000001000+00000035+00000+0001T   00000035+0000000912          1400 JH4090               1DZ
761391000761391               761391               170213GG     1400+00000+GG0000008765+0000008765+000000000+000001230+0000009995+0000000000+I40000009995+0000000000+Z
761391001761391079-003011     761391006003000448968A/TUBE 75ML ORANGE     0000001000+00001753+00000+0001T   00001753+0000000931          1400 JH4130               1DZ
761391002761391079-003004     761391006003000448128TUBE 75ML LIGHT GREEN  0000001000+00001753+00000+0001T   00001753+0000000931          1400 JH4130               1DZ
761391003761391079-003001     761391006003000448951A/TUBE 75ML BLACK      0000001000+00001753+00000+0001T   00001753+0000000931          1400 JH4130               1DZ
761391004761391079-003010     761391006003000448845A/TUBE 75ML YELLOW     0000001000+00001753+00000+0001T   00001753+0000000931          1400 JH4130               1DZ
761391005761391079-003012     761391006003000447893A/TUBE 75ML VIOLET     0000001000+00001753+00000+0001T   00001753+0000000931          1400 JH4130               1DZ
761392000761392               761392               170213GG     1400+00000+GG0000017749+0000017749+000000000+000002486+0000020230+0000000005+I20000000000+0000020230+Z
761392001761392082-000120     761392006003000360727READING GLS STRENGTH:3 0000002000+00004385+00000+0001T   00004385+0000000935          1400 JH4160               1DZ
761392002761392027-009027     761392006003000235803BROOM FLAT 1.2m HANDLE 0000001000+00004385+00000+0001T   00004385+0000000935          1400 JH4212               1DZ
761392003761392140-001004     761392006001023880932FLY-RIBBONS 4PCE PL    0000001000+00001490+00000+0001T   00001490+0000000935          1400 JH4830               1DZ
761392004761392140-001007     761392006001023617163FLY-STICK STAND 260x36 0000001000+00003069+00000+0001T   00003069+0000000935          1400 JH4830               1DZ
761392005761392112-116038     761392006009681820246TCS CARRIER BAG MIDI   0000001000+00000035+00000+0001T   00000035+0000000935          1400 JH4090               1DZ
761393000761393               761393               170213GG     1400+00000+GG0000003980+0000003980+000000000+000000558+0000004538+0000000000+I40000004538+0000000000+Z
761393001761393047-000508     761393006009636901983PLG EURODAPTOR 3x5A-2PN0000001000+00001753+00000+0001T   00001753+0000000937          1400 JH4880               1DZ
761393002761393071-000672     761393006003000138975STATIONERY CLIPS PAPER 0000001000+00002192+00000+0001T   00002192+0000000937          1400 JH4130               1DZ
761393003761393112-116038     761393006009681820246TCS CARRIER BAG MIDI   0000001000+00000035+00000+0001T   00000035+0000000937          1400 JH4090               1DZ
761394000761394               761394               170213GG     1400+00000+GG0000011437+0000011437+000000000+000001602+0000013030+0000000009+I20000000000+0000013030+Z
761394001761394368-000637     761394006001023874092PLUSH BEAR SLEEPING LOV0000001000+00011402+00000+0001T   00012279+0006470945          1400 JH4745               1DZ
761394002761394112-116038     761394006009681820246TCS CARRIER BAG MIDI   0000001000+00000035+00000+0001T   00000035+0000000945          1400 JH4090               1DZ
761395000761395               761395               170213GG     1400+00000+GG0000003507+0000003507+000000000+000000491+0000003990+0000000008+I20000000000+0000003990+Z
761395001761395566-000064     761395006001023689702STICKERS GLITTER BORDER0000001000+00003507+00000+0001T   00003507+0000000946          1400 JH4130               1DZ
761396000761396               761396               170213GG     1400+00000+GG0000002192+0000002192+000000000+000000307+0000002490+0000000009+I20000000000+0000002490+Z
761396001761396206-000245     761396006003000680818BOTTLE CLEANER PLASTIC 0000001000+00002192+00000+0001T   00002192+0000000951          1400 JH4321               1DZ
761397000761397               761397               170213GG     1400+00000+GG0000001753+0000001753+000000000+000000246+0000001990+0000000009+I20000000000+0000001990+Z
761397001761397077-000299-A   761397006003000670888GIFT-BAG PAPER JMB LOVE0000001000+00001753+00000+0001T   00001753+0000001026          1400 JH4112               1DZ
761398000761398               761398               170213GG     1400+00000+GG0000056626+0000056626+000000000+000007935+0000064561+0000000000+I40000064561+0000000000+Z
761398001761398112-116038     761398006009681820246TCS CARRIER BAG MIDI   0000001000+00000035+00000+0001T   00000035+0000001050          1400 JH4090               1DZ
761398002761398562-000200     761398006001023732941PUSH-IN TRANSPORT      0000001000+00003507+00000+0001T   00003507+0000001050          1400 JH4755               1DZ
761398003761398365-000002     761398006001023916532KITCHEN UTENSILS 11PCS 0000001000+00002630+00000+0001T   00002630+0000001050          1400 JH4725               1DZ
761398004761398466-002096     761398006001023800398CATCHBALL VELCRO W/BALL0000001000+00005262+00000+0001T   00005262+0000001050          1400 JH4785               1DZ
761398005761398562-000002     761398006001023491015COUNTING-FRAME 30x20cm 0000001000+00007016+00000+0001T   00007016+0000001050          1400 JH4755               1DZ
761398006761398466-000584     761398006001023628787SKIPPING-ROPE          0000002000+00002630+00000+0001T   00002630+0000001050          1400 JH4785               1DZ
761398007761398112-116038     761398006009681820246TCS CARRIER BAG MIDI   0000001000+00000035+00000+0001T   00000035+0000001050          1400 JH4090               1DZ
761398008761398263-000415     761398006003000600571V/TOOLS PLASTIC ASSEMBL0000001000+00003507+00000+0001T   00003507+0000001050          1400 JH4710               1DZ
761398009761398263-001003     761398006001023789846CARS RACING SET-OF-2   0000001000+00002630+00000+0001T   00002630+0000001050          1400 JH4710               1DZ
761398010761398262-000626     761398006003000510580CAR MDC JEEP W/TRAILER 0000001000+00005262+00000+0001T   00005262+0000001050          1400 JH4710               1DZ
761398011761398263-000114     761398006001023827609CARS P/BACK RACER  4PCE0000001000+00003069+00000+0001T   00003069+0000001050          1400 JH4710               1DZ
761398012761398266-008047     761398006001023792013COMBAT VEH&ACC IN B/PCK0000001000+00005262+00000+0001T   00005262+0000001050          1400 JH4710               1DZ
761398013761398562-004010     761398006003000225125EDU FLASH SUMS+DRY WIPE0000001000+00003507+00000+0001T   00003507+0000001050          1400 JH4755               1DZ
761398014761398262-000019     761398006003000644667DIE CAST SET FARM TRUCK0000001000+00004385+00000+0001T   00004385+0000001050          1400 JH4710               1DZ
761398015761398466-000200     761398006001023621665HULA-HOOP     ASSTD    0000003000+00001753+00000+0001T   00001753+0000001050          1400 JH4785               1DZ
761399000761399               761399               170213GG     1400+00000+GG0000003507+0000003507+000000000+000000491+0000003990+0000000008+I20000000000+0000003990+Z
761399001761399567-011487     761399006003000663613BK COLOURING 96P DORA  0000001000+00003507+00000+0001T   00003507+0000001051          1400 JH4757               1DZ
761400000761400               761400               170213GG     1400+00000+GG0000009119+0000009119+000000000+000001278+0000010397+0000000000+I40000010397+0000000000+Z
761400001761400036-000402     761400006003000572250CLOTHES DRYER WITH PEGS0000001000+00002630+00000+0001T   00002630+0000001057          1400 JH4212               1DZ
761400002761400174-000153     761400006003000060795STORAGE ORGANISER 3-DRW0000001000+00005262+00000+0001T   00005262+0000001057          1400 JH4205               1DZ
761400003761400903-000499     761400006001704012492SWT CHOC MALLOWS 50g   0000001000+00001227+00000+0001T   00001227+0000001057          1400 JH4150               1DZ
761401000761401               761401               170213GG     1400+00000+GG0000005203+0000005203+000000000+000000731+0000005934+0000000000+I40000005934+0000000000+Z
761401001761401112-116038     761401006009681820246TCS CARRIER BAG MIDI   0000001000+00000035+00000+0001T   00000035+0000001123          1400 JH4090               1DZ
761401002761401903-000201     761401006009826020371SWT CHOC HEART 30g     0000001000+00000788+00000+0001T   00000788+0000001123          1400 JH4150               1DZ
761401003761401903-000194     761401006009826020616SWT CHOC RP LOLLY 25G  0000001000+00001314+00000+0001T   00001314+0000001123          1400 JH4150               1DZ
761401004761401077-000314     761401006003000181148GIFT-BAG 11X14CM MATT  0000001000+00000876+00000+0001T   00000876+0000001123          1400 JH4112               1DZ
761401005761401080-000120     761401006003000236473CARD & ENVELOPE WEDDING0000001000+00001753+00000+0001T   00001753+0000001123          1400 JH4112               1DZ
761401006761401080-000133     761401006003000535613CARD&ENV MINI ASTD DSGN0000001000+00000437+00000+0001T   00000437+0000001123          1400 JH4112               1DZ
761402000761402               761402               170213GG     1400+00000+GG0000005260+0000005260+000000000+000000737+0000005997+0000000000+I40000005997+0000000000+Z
761402001761402080-000124     761402006003000297733CARD & ENV VALENTINES  0000001000+00001578+00000+0001T   00001578+0000001202          1400 JH4112               1DZ
761402002761402077-000303     761402006001023593757GIFT-BAG PAPER MED     0000001000+00001578+00000+0001T   00001578+0000001202          1400 JH4112               1DZ
761402003761402903-000095     761402006001704011495SWT SPECKLED-EGGS 100G 0000001000+00002104+00000+0001T   00002104+0000001202          1400 JH4150               1DZ
761403000761403               761403               170213GG     1400+00000+GG0000004383+0000004383+000000000+000000615+0000004990+0000000008+I20000000000+0000004990+Z
761403001761403105-001026     761403006001023803399CONTAINERS 3PCE        0000001000+00002630+00000+0001T   00002630+0000001203          1400 JH4210               1DZ
761403002761403033-001390     761403006003000667642HAIR PINS 4PC BUTTERFLY0000001000+00001753+00000+0001T   00001753+0000001203          1400 JH4200               1DZ
761404000761404               761404               170213GG     1400+00000+GG0000007016+0000007016+000000000+000000983+0000007990+0000000009+I20000000000+0000007990+Z
761404001761404079-001000     761404006003000448470CANVAS A2 WOOD MOUNTED 0000001000+00007016+00000+0001T   00007016+0000001205          1400 JH4130               1DZ
761405000761405               761405               170213GG     1400+00000+GG0000003506+0000003506+000000000+000000492+0000003990+0000000008+I20000000000+0000003990+Z
761405001761405080-000109     761405006003000237203CARD&ENVLPE BDAY-BRIGHT0000001000+00001753+00000+0001T   00001753+0000001236          1400 JH4112               1DZ
761405002761405077-000324     761405006001023677594GIFT-BAG 33X45CM E/D FL0000001000+00001753+00000+0001T   00001753+0000001236          1400 JH4112               1DZ
761406000761406               761406               170213GG     1400+00000+GG0000001753+0000001753+000000000+000000246+0000001990+0000000009+I20000000000+0000001990+Z
761406001761406077-000382     761406006003000247820GIFT-BAG MED 18X23CM   0000001000+00001753+00000+0001T   00001753+0000001237          1400 JH4112               1DZ
761407000761407               761407               170213GG     1400+00000+GG0000001753+0000001753+000000000+000000246+0000001990+0000000009+I20000000000+0000001990+Z
761407001761407077-000382     761407006003000247820GIFT-BAG MED 18X23CM   0000001000+00001753+00000+0001T   00001753+0000001237          1400 JH4112               1DZ
761408000761408               761408               170213GG     1400+00000+GG0000000613+0000000613+000000000+000000086+0000000690+0000000009+I20000000000+0000000690+Z
761408001761408083-000055     761408006003000003853LIGHTER ELCTRNC REFILBL0000001000+00000613+00000+0001T   00000613+0000001243          1400 JH4315               1DZ
761409000761409               761409               170213GG     1400+00000+GG0000003946+0000003946+000000000+000000553+0000004490+0000000009+I20000000000+0000004490+Z
761409001761409304-001606     761409006001023842527BRANCH DRIED WHEAT 75cm0000001000+00003946+00000+0001T   00003946+0000001306          1400 JH4510               1DZ
761410000761410               761410               170213GG     1400+00000+GG0000012279+0000012279+000000000+000001720+0000013990+0000000009+I20000000000+0000013990+Z
761410001761410133-092004     761410006003000008865TABLE CLOTH 130X160CM  0000001000+00012279+00000+0001T   00012279+0000001307          1400 JH4212               1DZ
761411000761411               761411               170213GG     1400+00000+GG0000006255+0000006255+000000000+000000877+0000007130+0000000002+I20000000000+0000007130+Z
761411001761411261-000121     761411006001023341600GUN-CAPS 8-SHOT CARD-9 0000003000+00000700+00000+0001T   00000700+0000001324          1400 JH4710               1DZ
761411002761411306-001125-A   761411006003000359127FIRSTAID SUPPORT KNEE  0000001000+00002630+00000+0001T   00002630+0000001324          1400 JH4200               1DZ
761411003761411027-783002     761411006001023874658SCOURERS FOAM PACK OF 30000001000+00001490+00000+0001T   00001490+0000001324          1400 JH4212               1DZ
761411004761411112-116038     761411006009681820246TCS CARRIER BAG MIDI   0000001000+00000035+00000+0001T   00000035+0000001324          1400 JH4090               1DZ
761412000761412               761412               170213GG     1400+00000+GG0000000613+0000000613+000000000+000000086+0000000690+0000000009+I20000000000+0000000690+Z
761412001761412304-001011     761412006001023806727FLWR ROSE RED W/BEAR   0000001000+00000613+00000+0001T   00000788+0006471343          1400 JH4510               1DZ
761413000761413               761413               170213GG     1400+00000+GG0000003507+0000003507+000000000+000000491+0000003990+0000000008+I20000000000+0000003990+Z
761413001761413103-000459     761413006003000630929FLOWER BASKET ASSORTED 0000001000+00003507+00000+0001T   00003507+0000001344          1400 JH4300               1DZ
761414000761414               761414               170213GG     1400+00000+GG0000014066+0000014066+000000000+000001971+0000016037+0000000000+I40000016037+0000000000+Z
761414001761414112-116038     761414006009681820246TCS CARRIER BAG MIDI   0000001000+00000035+00000+0001T   00000035+0000001345          1400 JH4090               1DZ
761414002761414565-000889     761414006003000626953NOVELTY SPACE BALLOONS 0000002000+00001753+00000+0001T   00001753+0000001345          1400 JH4745               1DZ
761414003761414464-000300     761414006003000298297GAME BALL 34x21x6cm    0000001000+00010525+00000+0001T   00010525+0000001345          1400 JH4785               1DZ
761415000761415               761415               170213GG     1400+00000+GG0000004208+0000004208+000000000+000000590+0000004790+0000000008+I20000000000+0000004790+Z
761415001761415369-001137-B   761415006003000626373BABY BATH VINYL DUCK   0000001000+00001578+00000+0001T   00001578+0000001347          1400 JH4745               1DZ
761415002761415369-001138-B   761415006003000564972BABY BATH ROYAL DUCKS  0000001000+00002630+00000+0001T   00002630+0000001347          1400 JH4745               1DZ
761416000761416               761416               170213GG     1400+00000+GG0000001753+0000001753+000000000+000000246+0000001990+0000000009+I20000000000+0000001990+Z
761416001761416903-000918     761416006009802868522SWEET GUM TAPE H/KITTY 0000001000+00001753+00000+0001T   00001753+0000001347          1400 JH4150               1DZ
761417000761417               761417               170213GG     1400+00000+GG0000010116+0000010116+000000000+000001419+0000011535+0000000000+I40000011535+0000000000+Z
761417001761417200-003024     761417006001023657299REFUSE BAGS 20PCE BLACK0000004000+00001753+00000+0001T   00001753+0000001410          1400 JH4214               1DZ
761417002761417031-000004     761417006003000200948P/FRAME PL BABY 2ASST  0000001000+00003069+00000+0001T   00003069+0000001410          1400 JH4510               1DZ
761417003761417112-116038     761417006009681820246TCS CARRIER BAG MIDI   0000001000+00000035+00000+0001T   00000035+0000001410          1400 JH4090               1DZ
761418000761418               761418               170213GG     1400+00000+GG0000010556+0000010556+000000000+000001478+0000012034+0000000000+I40000012034+0000000000+Z
761418001761418072-020264     761418006001023602565PET DOG CLEAN-UP BAGS  0000001000+00003507+00000+0001T   00003507+0000001412          1400 JH4870               1DZ
761418002761418072-020266     761418006003000400591PET PUPPY TRAINING PAD 0000002000+00003507+00000+0001T   00003507+0000001412          1400 JH4870               1DZ
761418003761418112-116038     761418006009681820246TCS CARRIER BAG MIDI   0000001000+00000035+00000+0001T   00000035+0000001412          1400 JH4090               1DZ
761419000761419               761419               170213GG     1400+00000+GG0000006611+0000006611+000000000+000000926+0000007530+0000000007+I20000000000+0000007530+Z
761419001761419200-000020     761419006925406841030BAG ZIPPERSEAL 25PC    0000003000+00002192+00000+0001T   00002192+0000001413          1400 JH4214               1DZ
761419002761419112-116038     761419006009681820246TCS CARRIER BAG MIDI   0000001000+00000035+00000+0001T   00000035+0000001413          1400 JH4090               1DZ
761420000761420               761420               170213GG     1400+00000+GG0000007049+0000007049+000000000+000000987+0000008030+0000000006+I20000000000+0000008030+Z
761420001761420018-005009     761420006001023725608MUG W/PLUSH-BEAR LOVE  0000002000+00003507+00000+0001T   00003507+0000001416          1400 JH4515               1DZ
761420002761420112-116038     761420006009681820246TCS CARRIER BAG MIDI   0000001000+00000035+00000+0001T   00000035+0000001416          1400 JH4090               1DZ
761421000761421               761421               170213GG     1400+00000+GG0000059315+0000059315+000000000+000008305+0000067620+0000000000+I20000000000+0000067620+Z
761421001761421112-116038     761421006009681820246TCS CARRIER BAG MIDI   0000001000+00000035+00000+0001T   00000035+0000001418          1400 JH4090               1DZ
761421002761421046-000014-VP  761421006003000537952BATTERIES H/P SIZE:AAA 0000008000+00004121+00000+0001T   00004121+0000001418          1400 JH4312               1DZ
761421003761421046-000011-VP  761421006003000537839BATTERIES SIZE:AA 12PCE0000004000+00006578+00000+0001T   00006578+0000001418          1400 JH4312               1DZ
761422000761422               761422               170213GG     1400+00000+GG0000008769+0000008769+000000000+000001228+0000009990+0000000007+I20000000000+0000009990+Z
761422001761422018-005009     761422006001023725608MUG W/PLUSH-BEAR LOVE  0000001000+00003507+00000+0001T   00003507+0000001419          1400 JH4515               1DZ
761422002761422301-085003     761422006003000420827ORN OCCASION LOVE KEY  0000001000+00005262+00000+0001T   00005262+0000001419          1400 JH4505               1DZ
761423000761423               761423               170213GG     1400+00000+GG0000003154+0000003154+000000000+000000443+0000003590+0000000007+I20000000000+0000003590+Z
761423001761423903-000709     761423006002099007070SWT QUENCHERS FRUIT    0000001000+00001139+00000+0001T   00001139+0000001421          1400 JH4150               1DZ
761423002761423903-000087     761423006001704000161SWT SPECKLED-EGGS 50G  0000001000+00001139+00000+0001T   00001139+0000001421          1400 JH4150               1DZ
761423003761423903-000861     761423005010478430822SWT LOVE HEARTS SML    0000001000+00000876+00000+0001T   00000876+0000001421          1400 JH4150               1DZ
761424000761424               761424               170213GG     1400+00000+GG0000002192+0000002192+000000000+000000307+0000002490+0000000009+I20000000000+0000002490+Z
761424001761424024-000097     761424006001023770035MEASURING-SET 11PCE WHT0000001000+00002192+00000+0001T   00002192+0000001428          1400 JH4300               1DZ
761425000761425               761425               170213GG     1400+00000+GG0000009646+0000009646+000000000+000001352+0000010990+0000000008+I20000000000+0000010990+Z
761425001761425301-085007     761425006003000673698ORN OCC. LOVE S/PLAQUE 0000001000+00007893+00000+0001T   00007893+0000001431          1400 JH4505               1DZ
761425002761425077-000382     761425006003000247820GIFT-BAG MED 18X23CM   0000001000+00001753+00000+0001T   00001753+0000001431          1400 JH4112               1DZ
761426000761426               761426               170213GG     1400+00000+GG0000005259+0000005259+000000000+000000737+0000005990+0000000006+I20000000000+0000005990+Z
761426001761426903-000897     761426008692806325207SWT CHOC DBL MINI ROLL 0000002000+00000876+00000+0001T   00000876+0000001440          1400 JH4150               1DZ
761426002761426301-085004     761426006003000420469ORN LOVE PLAQUE 21X10CM0000001000+00003507+00000+0001T   00003946+0006471440          1400 JH4505               1DZ
761427000761427               761427               170213GG     1400+00000+GG0000000035+0000000035+000000000+000000005+0000000040+0000000000+I20000000000+0000000040+Z
761427001761427112-116038     761427006009681820246TCS CARRIER BAG MIDI   0000001000+00000035+00000+0001T   00000035+0000001441          1400 JH4090               1DZ
761428000761428               761428               170213GG     1400+00000+GG0000005260+0000005260+000000000+000000737+0000005997+0000000000+I40000005997+0000000000+Z
761428001761428077-000289     761428006001023901996GIFT BOX 20x25x11cm    0000001000+00001753+00000+0001T   00001753+0000001444          1400 JH4112               1DZ
761428002761428028-002748     761428006001023500410BAR-B-Q FAN H&L        0000001000+00003507+00000+0001T   00003507+0000001444          1400 JH4305               1DZ
761429000761429               761429               170213GG     1400+00000+GG0000000613+0000000613+000000000+000000086+0000000690+0000000009+I20000000000+0000000690+Z
761429001761429077-000311     761429006001023608666GIFT-BAG 11X14CM GLOSS 0000001000+00000613+00000+0001T   00000613+0000001451          1400 JH4112               1DZ
761430000761430               761430               170213GG     1400+00000+GG0000000437+0000000437+000000000+000000062+0000000490+0000000009+I20000000000+0000000490+Z
761430001761430080-000133     761430006003000535613CARD&ENV MINI ASTD DSGN0000001000+00000437+00000+0001T   00000437+0000001452          1400 JH4112               1DZ
761431000761431               761431               170213GG     1400+00000+GG0000006174+0000006174+000000000+000000865+0000007030+0000000009+I20000000000+0000007030+Z
761431001761431018-050000     761431006003000412679MUG OCC LOVE TWIN BEAR 0000001000+00006139+00000+0001T   00006139+0000001454          1400 JH4515               1DZ
761431002761431112-116038     761431006009681820246TCS CARRIER BAG MIDI   0000001000+00000035+00000+0001T   00000035+0000001454          1400 JH4090               1DZ
761432000761432               761432               170213GG     1400+00000+GG0000000613+0000000613+000000000+000000086+0000000690+0000000009+I20000000000+0000000690+Z
761432001761432304-001011     761432006001023806727FLWR ROSE RED W/BEAR   0000001000+00000613+00000+0001T   00000788+0006471455          1400 JH4510               1DZ
761433000761433               761433               170213GG     1400+00000+GG0000003808+0000003808+000000000+000000535+0000004343+0000000000+I40000004343+0000000000+Z
761433001761433076-000017     761433006001811010022TWINE COTTON 50g-BALL  0000001000+00000876+00000+0001T   00000876+0000001500          1400 JH4810               1DZ
761433002761433077-000010-C   761433006001023123879CREPE-PAPER RED        0000001000+00000788+00000+0001T   00000788+0000001500          1400 JH4112               1DZ
761433003761433006-001000     761433006003000093779HELIUM BALLOON FILL    0000002000+00000613+00000+0001T   00000613+0000001500          1400 JH4131               1DZ
761433004761433079-009700-D   761433006003000545711PAPER SIRIO A4 RED COL.0000003000+00000306+00000+0001T   00000306+0000001500          1400 JH4130               1DZ
761434000761434               761434               170213GG     1400+00000+GG0000002278+0000002278+000000000+000000320+0000002590+0000000008+I20000000000+0000002590+Z
761434001761434903-000087     761434006001704000161SWT SPECKLED-EGGS 50G  0000001000+00001139+00000+0001T   00001139+0000001502          1400 JH4150               1DZ
761434002761434903-000709     761434006002099007070SWT QUENCHERS FRUIT    0000001000+00001139+00000+0001T   00001139+0000001502          1400 JH4150               1DZ
761435000761435               761435               170213GG     1400+00000+GG0000002192+0000002192+000000000+000000307+0000002490+0000000009+I20000000000+0000002490+Z
761435001761435018-000170     761435006001023775528MUG OCC. LOVE 2PC MINI 0000001000+00002192+00000+0001T   00002192+0000001516          1400 JH4515               1DZ
761436000761436               761436               170213GG     1400+00000+GG0000011778+0000011778+000000000+000001653+0000013431+0000000000+I40000013431+0000000000+Z
761436001761436006-000166-D   761436006003000516490BALLOONS LRG 6PC RED   0000001000+00001314+00000+0001T   00001314+0000001538          1400 JH4131               1DZ
761436002761436077-000115-B   761436006003000181025GIFT-WRAP PPR 700MMX2M 0000001000+00002630+00000+0001T   00002630+0000001538          1400 JH4112               1DZ
761436003761436304-001204     761436006001023737984FLOWER OCC. TEDDY/ROSES0000001000+00001402+00000+0001T   00001490+0006471538          1400 JH4510               1DZ
761436004761436077-000010-C   761436006001023123879CREPE-PAPER RED        0000001000+00000788+00000+0001T   00000788+0000001538          1400 JH4112               1DZ
761436005761436077-000351     761436006003000139033GIFT-BAG 18X23CM E/D P 0000001000+00001753+00000+0001T   00001753+0000001538          1400 JH4112               1DZ
761436006761436006-001000     761436006003000093779HELIUM BALLOON FILL    0000002000+00000613+00000+0001T   00000613+0000001538          1400 JH4131               1DZ
761436007761436006-006019     761436006001023908193PARTY-SPRAY GLITTER    0000001000+00002630+00000+0001T   00002630+0000001538          1400 JH4131               1DZ
761436008761436112-116038     761436006009681820246TCS CARRIER BAG MIDI   0000001000+00000035+00000+0001T   00000035+0000001538          1400 JH4090               1DZ
761437000761437               761437               170213GG     1400+00000+GG0000013594+0000013594+000000000+000001904+0000015498+0000000000+I40000015498+0000000000+Z
761437001761437368-000637     761437006001023874092PLUSH BEAR SLEEPING LOV0000001000+00011402+00000+0001T   00012279+0006471547          1400 JH4745               1DZ
761437002761437077-000309-A   761437006003000671007GIFT-BAG HOLOGRAM JMB  0000001000+00002192+00000+0001T   00002192+0000001547          1400 JH4112               1DZ
761438000761438               761438               170213GG     1400+00000+GG0000001139+0000001139+000000000+000000160+0000001290+0000000009+I20000000000+0000001290+Z
761438001761438903-000087     761438006001704000161SWT SPECKLED-EGGS 50G  0000001000+00001139+00000+0001T   00001139+0000001547          1400 JH4150               1DZ
761439000761439               761439               170213GG     1400+00000+GG0000020240+0000020240+000000000+000002836+0000023076+0000000000+I40000023076+0000000000+Z
761439001761439263-000504     761439006001023790590TRACTOR+TRAILER 30cm   0000001000+00005262+00000+0001T   00005262+0000001555          1400 JH4710               1DZ
761439002761439263-000800     761439006003000332281TRUCK PL CONSTRUCTION  0000001000+00011402+00000+0001T   00011402+0000001555          1400 JH4710               1DZ
761439003761439566-000028     761439006003000265541STICKER BK ASSTD 250PCE0000001000+00001753+00000+0001T   00001753+0000001555          1400 JH4130               1DZ
761439004761439566-000344     761439006001023994806STICKER ALBUM+STICKERS 0000001000+00001753+00000+0001T   00001753+0000001555          1400 JH4130               1DZ
761439005761439112-116038     761439006009681820246TCS CARRIER BAG MIDI   0000002000+00000035+00000+0001T   00000035+0000001555          1400 JH4090               1DZ
761440000761440               761440               170213GG     1400+00000+GG0000004385+0000004385+000000000+000000614+0000004990+0000000009+I20000000000+0000004990+Z
761440001761440301-086007     761440006003000426706ORN OCC DAD WDN LETTERS0000001000+00004385+00000+0001T   00004385+0000001556          1400 JH4505               1DZ
761441000761441               761441               170213GG     1400+00000+GG0000003366+0000003366+000000000+000000472+0000003838+0000000000+I40000003838+0000000000+Z
761441001761441903-000699     761441006002099007018SWT CANDY FRUIT CHEWS  0000001000+00001139+00000+0001T   00001139+0000001557          1400 JH4150               1DZ
761441002761441016-006517     761441006003000351626S/JAR GLS CHECK 650ML  0000001000+00002192+00000+0001T   00002192+0000001557          1400 JH4300               1DZ
761441003761441112-116038     761441006009681820246TCS CARRIER BAG MIDI   0000001000+00000035+00000+0001T   00000035+0000001557          1400 JH4090               1DZ
761442000761442               761442               170213GG     1400+00000+GG0000000788+0000000788+000000000+000000111+0000000890+0000000009+I20000000000+0000000890+Z
761442001761442077-000010-D   761442006001023123886CREPE-PAPER WHITE      0000001000+00000788+00000+0001T   00000788+0000001558          1400 JH4112               1DZ
761443000761443               761443               170213GG     1400+00000+GG0000001753+0000001753+000000000+000000246+0000001990+0000000009+I20000000000+0000001990+Z
761443001761443466-000103     761443006001023642134BALL 20cm ASSTD        0000001000+00001753+00000+0001T   00001753+0000001559          1400 JH4785               1DZ
761444000761444               761444               170213GG     1400+00000+GG0000005293+0000005293+000000000+000000742+0000006035+0000000000+I40000006035+0000000000+Z
761444001761444018-000136     761444006001023659026MUG OCC LOVE W/PLUSH   0000001000+00003507+00000+0001T   00003507+0000001617          1400 JH4515               1DZ
761444002761444903-002890     761444008935001721352MENTOS GUM PURE F/MINT 0000001000+00001051+00000+0001T   00001051+0000001617          1400 JH4150               1DZ
761444003761444903-000070     761444006001704001106SWT TOFFEE CREAMY 35g  0000001000+00000700+00000+0001T   00000700+0000001617          1400 JH4150               1DZ
761444004761444112-116038     761444006009681820246TCS CARRIER BAG MIDI   0000001000+00000035+00000+0001T   00000035+0000001617          1400 JH4090               1DZ
761445000761445               761445               170213GG     1400+00000+GG0000002192+0000002192+000000000+000000307+0000002490+0000000009+I20000000000+0000002490+Z
761445001761445077-000922     761445006003000413935G/WRAP 700mmx2m FLOWER 0000001000+00002192+00000+0001T   00002192+0000001617          1400 JH4112               1DZ
761446000761446               761446               170213GG     1400+00000+GG0000010260+0000010260+000000000+000001437+0000011690+0000000007+I20000000000+0000011690+Z
761446001761446368-000049     761446006003000536955PLUSH BEAR 15cm LOVE   0000001000+00004385+00000+0001T   00004385+0000001619          1400 JH4745               1DZ
761446002761446077-000299     761446006003000395576G/BAG 32x25cm LRG LOVE 0000001000+00001490+00000+0001T   00001490+0000001619          1400 JH4112               1DZ
761446003761446261-000912     761446006001023707437GUN PL SET OF 2+6 DARTS0000001000+00004385+00000+0001T   00004385+0000001619          1400 JH4710               1DZ
761447000761447               761447               170213GG     1400+00000+GG0000005296+0000005296+000000000+000000742+0000006030+0000000008+I20000000000+0000006030+Z
761447001761447080-000127     761447006003000424351VALENTINES DAY 36x24CM 0000001000+00002192+00000+0001T   00002192+0000001620          1400 JH4112               1DZ
761447002761447033-000003     761447006003000622429TINTING PROTECTIVE CAPE0000001000+00003069+00000+0001T   00003069+0000001620          1400 JH4200               1DZ
761447003761447112-116038     761447006009681820246TCS CARRIER BAG MIDI   0000001000+00000035+00000+0001T   00000035+0000001620          1400 JH4090               1DZ
761448000761448               761448               170213GG     1400+00000+GG0000001490+0000001490+000000000+000000209+0000001690+0000000009+I20000000000+0000001690+Z
761448001761448306-000969     761448006003000559350FIRSTAID PLASTER 10PC  0000001000+00001490+00000+0001T   00001490+0000001621          1400 JH4200               1DZ
761449000761449               761449               170213GG     1400+00000+GG0000010783+0000010783+000000000+000001511+0000012294+0000000000+I40000012294+0000000000+Z
761449001761449079-000344     761449006001023904010FELT-TIP PENS 12PCE    0000001000+00002630+00000+0001T   00002630+0000001625          1400 JH4130               1DZ
761449002761449079-104303     761449006003000186259SKETCH PAD A3   48 PAGE0000002000+00003507+00000+0001T   00003507+0000001625          1400 JH4130               1DZ
761449003761449565-000071     761449006003000643387NOVELTY WIND UP CHATTER0000001000+00001139+00000+0001T   00001139+0000001625          1400 JH4745               1DZ
761450000761450               761450               170213GG     1400+00000+GG0000004997+0000004997+000000000+000000700+0000005690+0000000007+I20000000000+0000005690+Z
761450001761450031-005853     761450006003000442416P/FRAME WDN TWIN HEARTS0000001000+00003507+00000+0001T   00003507+0000001629          1400 JH4510               1DZ
761450002761450077-000299     761450006003000395576G/BAG 32x25cm LRG LOVE 0000001000+00001490+00000+0001T   00001490+0000001629          1400 JH4112               1DZ
761451000761451               761451               170213GG     1400+00000+GG0000005262+0000005262+000000000+000000737+0000005999+0000000000+I40000005999+0000000000+Z
761451001761451562-000001     761451006009801541556MARLIN PLASTIC ABACUS  0000001000+00005262+00000+0001T   00005262+0000001631          1400 JH4755               1DZ
761452000761452               761452               170213GG     1400+00000+GG0000004419+0000004419+000000000+000000619+0000005030+0000000008+I20000000000+0000005030+Z
761452001761452016-006517     761452006003000351626S/JAR GLS CHECK 650ML  0000002000+00002192+00000+0001T   00002192+0000001632          1400 JH4300               1DZ
761452002761452112-116038     761452006009681820246TCS CARRIER BAG MIDI   0000001000+00000035+00000+0001T   00000035+0000001632          1400 JH4090               1DZ
761453000761453               761453               170213GG     1400+00000+GG0000005262+0000005262+000000000+000000737+0000005990+0000000009+I20000000000+0000005990+Z
761453001761453262-000626     761453006003000510580CAR MDC JEEP W/TRAILER 0000001000+00005262+00000+0001T   00005262+0000001633          1400 JH4710               1DZ
761454000761454               761454               170213GG     1400+00000+GG0000010555+0000010555+000000000+000001479+0000012030+0000000004+I20000000000+0000012030+Z
761454001761454467-000002     761454006001023354518BEACH-SET PL 2PCE      0000002000+00001753+00000+0001T   00001753+0000001635          1400 JH4785               1DZ
761454002761454104-000095     761454006003000614714BASKET PL 23x15x12cm   0000002000+00003507+00000+0001T   00003507+0000001635          1400 JH4210               1DZ
761454003761454112-116038     761454006009681820246TCS CARRIER BAG MIDI   0000001000+00000035+00000+0001T   00000035+0000001635          1400 JH4090               1DZ
761455000761455               761455               170213GG     1400+00000+GG0000004689+0000004689+000000000+000000658+0000005340+0000000007+I20000000000+0000005340+Z
761455001761455077-000290     761455006001023902023GIFT BOX 26x32x13cm    0000001000+00001753+00000+0001T   00001753+0000001636          1400 JH4112               1DZ
761455002761455079-009700-I   761455006003000546114PAPER SIRIO A4 LILAC   0000001000+00000306+00000+0001T   00000306+0000001636          1400 JH4130               1DZ
761455003761455016-006425     761455006001023998170S/JAR GLS CLIP W/RIBBON0000001000+00002630+00000+0001T   00002630+0000001636          1400 JH4300               1DZ
761456000761456               761456               170213GG     1400+00000+GG0000011166+0000011166+000000000+000001566+0000012732+0000000000+I40000012732+0000000000+Z
761456001761456006-000190     761456006003000685530BALLOONS LOVE 81x91cm  0000001000+00004385+00000+0001T   00004385+0000001700          1400 JH4131               1DZ
761456002761456903-000494     761456006001704009911SWT GUMMY TEENY TEDDIES0000004000+00000876+00000+0001T   00000876+0000001700          1400 JH4150               1DZ
761456003761456016-006518     761456006003000351749S/JAR GLS CHECK 350ML  0000001000+00001753+00000+0001T   00001753+0000001700          1400 JH4300               1DZ
761456004761456903-000494     761456006001704009911SWT GUMMY TEENY TEDDIES0000001000+00000876+00000+0001T   00000876+0000001700          1400 JH4150               1DZ
761456005761456006-001000     761456006003000093779HELIUM BALLOON FILL    0000001000+00000613+00000+0001T   00000613+0000001700          1400 JH4131               1DZ
761456006761456112-116038     761456006009681820246TCS CARRIER BAG MIDI   0000001000+00000035+00000+0001T   00000035+0000001700          1400 JH4090               1DZ
761457000761457               761457               170213GG     1400+00000+GG0000003944+0000003944+000000000+000000553+0000004490+0000000007+I20000000000+0000004490+Z
761457001761457012-000001-A   761457006003000697663MICROWAVES PLATE-COVER 0000001000+00001314+00000+0001T   00001314+0000001701          1400 JH4300               1DZ
761457002761457159-000040     761457006001023767691HOOK-HANGER 4PC S/S    0000001000+00002630+00000+0001T   00002630+0000001701          1400 JH4200               1DZ
761458000761458               761458               170213GG     1400+00000+GG0000005734+0000005734+000000000+000000803+0000006537+0000000000+I40000006537+0000000000+Z
761458001761458018-000170     761458006001023775528MUG OCC. LOVE 2PC MINI 0000001000+00002192+00000+0001T   00002192+0000001702          1400 JH4515               1DZ
761458002761458018-000136     761458006001023659026MUG OCC LOVE W/PLUSH   0000001000+00003507+00000+0001T   00003507+0000001702          1400 JH4515               1DZ
761458003761458112-116038     761458006009681820246TCS CARRIER BAG MIDI   0000001000+00000035+00000+0001T   00000035+0000001702          1400 JH4090               1DZ
761459000761459               761459               170213GG     1400+00000+GG0000004431+0000004431+000000000+000000621+0000005050+0000000002+I20000000000+0000005050+Z
761459001761459018-000136     761459006001023659026MUG OCC LOVE W/PLUSH   0000001000+00003507+00000+0001T   00003507+0000001703          1400 JH4515               1DZ
761459002761459077-000408     761459006003000145218G/BAG PP 15X21X7CM     0000001000+00000876+00000+0001T   00000876+0000001703          1400 JH4112               1DZ
761459003761459112-116069     761459006009681820277TCS CARRIER BAG JUMBO  0000001000+00000048+00000+0001T   00000048+0000001703          1400 JH4090               1DZ
761460000761460               761460               170213GG     1400+00000+GG0000008329+0000008329+000000000+000001167+0000009490+0000000006+I20000000000+0000009490+Z
761460001761460103-000474     761460006003000630363BAMBOO FLOWER BASKET   0000001000+00005262+00000+0001T   00005262+0000001704          1400 JH4300               1DZ
761460002761460903-005002     761460006002580020021SWT MALLOW SNAKE 120g  0000001000+00001314+00000+0001T   00001314+0000001704          1400 JH4150               1DZ
761460003761460366-002460     761460006003000166794S/FASION CROCHET 1.9m  0000001000+00001753+00000+0001T   00001753+0000001704          1400 JH4131               1DZ
761461000761461               761461               170213GG     1400+00000+GG0000001227+0000001227+000000000+000000172+0000001390+0000000009+I20000000000+0000001390+Z
761461001761461077-000245     761461006001023759214GIFT-RIBBON METALLICx2 0000001000+00001227+00000+0001T   00001227+0000001705          1400 JH4112               1DZ
761462000761462               761462               170213GG     1400+00000+GG0000002192+0000002192+000000000+000000307+0000002490+0000000009+I20000000000+0000002490+Z
761462001761462024-091102     761462006003453000010BAKING-CUP PAPER 50PC  0000001000+00002192+00000+0001T   00002192+0000001705          1400 JH4300               1DZ
761463000761463               761463               170213GG     1400+00000+GG0000011432+0000011432+000000000+000001602+0000013034+0000000000+I40000013034+0000000000+Z
761463001761463018-019000     761463006003000557288MUG OCC. LOVE JUMBO    0000001000+00005262+00000+0001T   00005262+0000001708          1400 JH4515               1DZ
761463002761463368-000100     761463006001023474742PLUSH MD BEAR 12cm     0000001000+00002630+00000+0001T   00002630+0000001708          1400 JH4745               1DZ
761463003761463080-000139     761463006003000611690CARD & ENV MINI SET 6PC0000001000+00002192+00000+0001T   00002192+0000001708          1400 JH4112               1DZ
761463004761463018-000177     761463006001023797513MUG MINI LOVE ASSTD    0000001000+00000700+00000+0001T   00000700+0000001708          1400 JH4515               1DZ
761463005761463077-000317     761463006001023609748GIFT-BAG 11X14CM E/D AN0000001000+00000613+00000+0001T   00000613+0000001708          1400 JH4112               1DZ
761463006761463112-116038     761463006009681820246TCS CARRIER BAG MIDI   0000001000+00000035+00000+0001T   00000035+0000001708          1400 JH4090               1DZ
761464000761464               761464               170213GG     1400+00000+GG0000003069+0000003069+000000000+000000430+0000003490+0000000009+I20000000000+0000003490+Z
761464001761464024-007001     761464006002580007688CAKE/BISCUIT-SERVER    0000001000+00003069+00000+0001T   00003069+0000001709          1400 JH4300               1DZ
761465000761465               761465               170213GG     1400+00000+GG0000006537+0000006537+000000000+000000916+0000007450+0000000003+I20000000000+0000007450+Z
761465001761465007-000614     761465006001023768667DIARY W/LOCK+PEN LOVE  0000001000+00005262+00000+0001T   00005262+0000001710          1400 JH4130               1DZ
761465002761465077-000322     761465006001023677532GIFT-BAG 18X23CM E/D FL0000001000+00001227+00000+0001T   00001227+0000001710          1400 JH4112               1DZ
761465003761465112-116069     761465006009681820277TCS CARRIER BAG JUMBO  0000001000+00000048+00000+0001T   00000048+0000001710          1400 JH4090               1DZ
761466000761466               761466               170213GG     1400+00000+GG0000000613+0000000613+000000000+000000086+0000000690+0000000009+I20000000000+0000000690+Z
761466001761466304-001011     761466006001023806727FLWR ROSE RED W/BEAR   0000001000+00000613+00000+0001T   00000788+0006471710          1400 JH4510               1DZ
761467000761467               761467               170213GG     1400+00000+GG0000007010+0000007010+000000000+000000985+0000007990+0000000005+I20000000000+0000007990+Z
761467001761467018-000129     761467006001023403353MUG OCC. LOVE V-SHAPE  0000002000+00002630+00000+0001T   00002630+0000001715          1400 JH4515               1DZ
761467002761467077-000011-C   761467006001023808523TISSUE 10xSHTS RED     0000001000+00000876+00000+0001T   00000876+0000001715          1400 JH4112               1DZ
761467003761467080-000133     761467006003000535613CARD&ENV MINI ASTD DSGN0000002000+00000437+00000+0001T   00000437+0000001715          1400 JH4112               1DZ
761468000761468               761468               170213GG     1400+00000+GG0000008766+0000008766+000000000+000001229+0000009995+0000000000+I40000009995+0000000000+Z
761468001761468903-000919     761468006009802868577SWEET NOVELTY LASER POP0000001000+00001753+00000+0001T   00001753+0000001717          1400 JH4150               1DZ
761468002761468466-064834     761468006008766064834BALL W/SPIKES 20cm     0000001000+00001753+00000+0001T   00001753+0000001717          1400 JH4785               1DZ
761468003761468036-000615     761468006003000218769WASH-PEGS PL PCK-24    0000001000+00001753+00000+0001T   00001753+0000001717          1400 JH4212               1DZ
761468004761468174-000314     761468006003000053575TRAVEL SEWING KIT      0000001000+00003507+00000+0001T   00003507+0000001717          1400 JH4205               1DZ
761469000761469               761469               170213GG     1400+00000+GG0000001578+0000001578+000000000+000000221+0000001799+0000000000+I40000001799+0000000000+Z
761469001761469080-000124     761469006003000297733CARD & ENV VALENTINES  0000001000+00001578+00000+0001T   00001578+0000001718          1400 JH4112               1DZ
761470000761470               761470               170213GG     1400+00000+GG0000003944+0000003944+000000000+000000553+0000004497+0000000000+I40000004497+0000000000+Z
761470001761470080-000133     761470006003000535613CARD&ENV MINI ASTD DSGN0000001000+00000437+00000+0001T   00000437+0000001720          1400 JH4112               1DZ
761470002761470103-000459     761470006003000630929FLOWER BASKET ASSORTED 0000001000+00003507+00000+0001T   00003507+0000001720          1400 JH4300               1DZ
761471000761471               761471               170213GG     1400+00000+GG0000000035+0000000035+000000000+000000005+0000000040+0000000000+I20000000000+0000000040+Z
761471001761471112-116038     761471006009681820246TCS CARRIER BAG MIDI   0000001000+00000035+00000+0001T   00000035+0000001721          1400 JH4090               1DZ
A17021300                                          09201182GGSLAVE 1                       JH43IC
A17021301                                          09584907GGSLAVE 1                       JH43IC
M17021301                              IT          GGATT:IT                                          LAST SLIP ON SLAVE 1                            761471                                          THANKS
M17021391                              CASH        GGSLAVE 1                       Z-REPORT No.   656TOTAL (Sales - Refunds)           6265.53       CASH TO BE BANKED                 3464.20       DEBIT CARDS                          0.00       CREDIT CARDS                      2801.33       Z-READING                         6265.53       AIRTIME DEBIT CARD SALES             0.00       AIRTIME CARD SALES                   0.00       OVERS/UNDERS                         0.00       AIRTIME CASH SALES                   0.00       GIFT CARDS                           0.00       GIFT CARD CASH SALES                 0.00       T O T A L  CASH PAYOUTS              0.00                                                                                                                                                                                                                                                                                                                                                      Z
M17021392                              CASH        GGABSENT                                                                                                                                                                                          ANNUAL LEAVE                                                                                                                                                                                    DAY OFF                                                                                                                                                                                         COMMENTS                                                                                                                                                                                                                                                                                                                                                                                       Z
Y17021300                                          GG00000000549916+000082
ZGG17021319413 SLAVE 1      SALES DATA                     NEXT INVOICE NO.  761472 0656
X GG Slave 1 First invoice 761390 170213 Last invoice 761471 170213 Next invoice 761472 Total number of records 000000287 clbackup completed 19:41:15
