774873000774873               774873               170213GG     1400+00000+GG0000001490+0000001490+000000000+000000209+0000001690+0000000009+I20000000000+0000001690+Z
774873001774873565-004101     774873006003000548033BALL BOUNCING EGG      0000001000+00001490+00000+0001T   00001490+0000000912          1400 HD2745               2AZ
774874000774874               774874               170213GG     1400+00000+GG0000027477+0000027477+000000000+000003850+0000031327+0000000000+I40000031327+0000000000+Z
774874001774874112-116038     774874006009681820246TCS CARRIER BAG MIDI   0000001000+00000035+00000+0001T   00000035+0000000923          1400 HD2090               2AZ
774874002774874903-005003     774874006002580020106SWT DINKY DUMMIES 5PK  0000004000+00001490+00000+0001T   00001490+0000000923          1400 HD2150               2AZ
774874003774874903-004950     774874006002580020304SWT APRICOT SURPRISE   0000001000+00001314+00000+0001T   00001314+0000000923          1400 HD2150               2AZ
774874004774874469-006551     774874006001023756190B/BLOCKS  38PC PLAYSET 0000001000+00005262+00000+0001T   00005262+0000000923          1400 HD2755               2AZ
774874005774874039-000319-1   774874006003000442386B/CANDLES LRG NUMBER-1 0000001000+00000876+00000+0001T   00000876+0000000923          1400 HD2510               2AZ
774874006774874065-000239     774874006001023400956DRUM "BUM BUM BAND"19cm0000001000+00003507+00000+0001T   00003507+0000000923          1400 HD2745               2AZ
774874007774874562-000205     774874006001023806987EDU TRAIN 37cm         0000001000+00007016+00000+0001T   00007016+0000000923          1400 HD2755               2AZ
774874008774874077-000934     774874006003000409921G/WRAP 700mmx5m BIRTHDA0000001000+00003507+00000+0001T   00003507+0000000923          1400 HD2112               2AZ
774875000774875               774875               170213GG     1400+00000+GG0000004625+0000004625+000000000+000000650+0000005270+0000000005+I20000000000+0000005270+Z
774875001774875079-009700-C   774875006003000545636PAPER SIRIO A4 VIOLET  0000005000+00000306+00000+0001T   00000306+0000000933          1400 HD2130               2AZ
774875002774875079-009700-D   774875006003000545711PAPER SIRIO A4 RED COL.0000010000+00000306+00000+0001T   00000306+0000000933          1400 HD2130               2AZ
774875003774875112-116038     774875006009681820246TCS CARRIER BAG MIDI   0000001000+00000035+00000+0001T   00000035+0000000933          1400 HD2090               2AZ
774876000774876               774876               170213GG     1400+00000+GG0000036927+0000036927+000000000+000005175+0000042102+0000000000+I40000042102+0000000000+Z
774876001774876112-116038     774876006009681820246TCS CARRIER BAG MIDI   0000001000+00000035+00000+0001T   00000035+0000001007          1400 HD2090               2AZ
774876002774876105-007400     774876006003000629435CONTAINER MINI 140ml   0000001000+00003507+00000+0001T   00003507+0000001007          1400 HD2210               2AZ
774876003774876105-007410     774876006003000629671CONTAINER MINI 300ml   0000001000+00002630+00000+0001T   00003507+0008171007          1400 HD2210               2AZ
774876004774876564-001028     774876006001023708663BUBBLE CELEBRATION 6ml 0000001000+00003069+00000+0001T   00003069+0000001007          1400 HD2131               2AZ
774876005774876007-000555     774876006001023848239MEMO-PAD MINI LOVE     0000005000+00000613+00000+0001T   00000613+0000001007          1400 HD2130               2AZ
774876006774876903-000120     774876006002099001665SWEET GS ZILLIONS 50g  0000001000+00000700+00000+0001T   00000700+0000001007          1400 HD2150               2AZ
774876007774876903-004960     774876008410525221842SWT GUMMY STR/BERRY 50G0000001000+00000964+00000+0001T   00000964+0000001007          1400 HD2150               2AZ
774876008774876903-000120     774876006002099001665SWEET GS ZILLIONS 50g  0000002000+00000700+00000+0001T   00000700+0000001007          1400 HD2150               2AZ
774876009774876903-004960     774876008410525221842SWT GUMMY STR/BERRY 50G0000001000+00000964+00000+0001T   00000964+0000001007          1400 HD2150               2AZ
774876010774876903-000518     774876006001704012782SWT STRAWS S/BERRY 100g0000002000+00001227+00000+0001T   00001227+0000001007          1400 HD2150               2AZ
774876011774876150-000775     774876006005387117345UTILITY-BOX LARGE      0000003000+00002367+00000+0001T   00002367+0000001007          1400 HD2810               2AZ
774876012774876903-000120     774876006002099001665SWEET GS ZILLIONS 50g  0000002000+00000700+00000+0001T   00000700+0000001007          1400 HD2150               2AZ
774876013774876903-000518     774876006001704012782SWT STRAWS S/BERRY 100g0000002000+00001227+00000+0001T   00001227+0000001007          1400 HD2150               2AZ
774876014774876903-004960     774876008410525221842SWT GUMMY STR/BERRY 50G0000002000+00000964+00000+0001T   00000964+0000001007          1400 HD2150               2AZ
774876015774876903-000844     774876005010478432567SWT CANDY DL LUV HEARTS0000004000+00001314+00000+0001T   00001314+0000001007          1400 HD2150               2AZ
774877000774877               774877               170213GG     1400+00000+GG0000000877-0000000877-000000000+000000123-0000001000-0000000000+I20000000000+0000001000-Z
774877001774877001-999902     774877000000000999902MAINTENANCE+REPAIR-EQP 0000001000-00000877+00000+0001T   00000000+0000001008          1400 HD29021IC            2 Z
774878000774878               774878               170213GG     1400+00000+GG0000006137+0000006137+000000000+000000860+0000006990+0000000007+I20000000000+0000006990+Z
774878001774878033-000652     774878006003000364282HAIR BRUSH 24cm ASSTD  0000001000+00003507+00000+0001T   00003507+0000001012          1400 HD2200               2AZ
774878002774878466-000584     774878006001023628787SKIPPING-ROPE          0000001000+00002630+00000+0001T   00002630+0000001012          1400 HD2785               2AZ
774879000774879               774879               170213GG     1400+00000+GG0000000876+0000000876+000000000+000000123+0000000990+0000000009+I20000000000+0000000990+Z
774879001774879006-000180     774879006003000610402BALLOONS BIRTHDAY ASSTD0000001000+00000876+00000+0001T   00000876+0000001015          1400 HD2131               2AZ
774879002774879903-000095     774879006001704011495SWT SPECKLED-EGGS 100G 0000001000-00002104+00000+0001T   00002104+0000001015          1400 HD21501IC            2 Z
774879003774879903-000095     774879006001704011495SWT SPECKLED-EGGS 100G 0000001000+00002104+00000+0001T   00002104+0000001015          1400 HD21501IC            2AZ
774880000774880               774880               170213GG     1400+00000+GG0000000613+0000000613+000000000+000000086+0000000690+0000000009+I20000000000+0000000690+Z
774880001774880006-001000     774880006003000093779HELIUM BALLOON FILL    0000001000+00000613+00000+0001T   00000613+0000001023          1400 HD2131               2AZ
774881000774881               774881               170213GG     1400+00000+GG0000005295+0000005295+000000000+000000742+0000006037+0000000000+I40000006037+0000000000+Z
774881001774881071-001008     774881006003000222780MAKER WHITEBOARD MAGNET0000001000+00003507+00000+0001T   00003507+0000001025          1400 HD2130               2AZ
774881002774881079-013114     774881006003000068418DIY FINGER PUPPETS FELT0000001000+00001753+00000+0001T   00001753+0000001025          1400 HD2130               2AZ
774881003774881112-116038     774881006009681820246TCS CARRIER BAG MIDI   0000001000+00000035+00000+0001T   00000035+0000001025          1400 HD2090               2AZ
774882000774882               774882               170213GG     1400+00000+GG0000003507+0000003507+000000000+000000491+0000003990+0000000008+I20000000000+0000003990+Z
774882001774882018-000136     774882006001023659026MUG OCC LOVE W/PLUSH   0000001000+00003507+00000+0001T   00003507+0000001027          1400 HD2515               2AZ
774883000774883               774883               170213GG     1400+00000+GG0000002630+0000002630+000000000+000000369+0000002999+0000000000+I40000002999+0000000000+Z
774883001774883105-001038     774883006003000615315CONTAINER W/VENT 1450ml0000001000+00002630+00000+0001T   00003507+0008161035          1400 HD2210               2AZ
774884000774884               774884               170213GG     1400+00000+GG0000005869+0000005869+000000000+000000823+0000006692+0000000000+I40000006692+0000000000+Z
774884001774884251-000041     774884006001023515889SEAL-TAPE BUFF 48mmx50m0000002000+00001227+00000+0001T   00001227+0000001040          1400 HD2810               2AZ
774884002774884903-000481     774884006001704007481SWT MOO MILK-SHAKES 60G0000001000+00000876+00000+0001T   00000876+0000001040          1400 HD2150               2AZ
774884003774884903-000087     774884006001704000161SWT SPECKLED-EGGS 50G  0000001000+00001139+00000+0001T   00001139+0000001040          1400 HD2150               2AZ
774884004774884903-000070     774884006001704001106SWT TOFFEE CREAMY 35g  0000002000+00000700+00000+0001T   00000700+0000001040          1400 HD2150               2AZ
774885000774885               774885               170213GG     1400+00000+GG0000004385+0000004385+000000000+000000614+0000004999+0000000000+I40000004999+0000000000+Z
774885001774885082-007587     774885006003000654338SUNGLASS DESIGNER ASST 0000001000+00004385+00000+0001T   00004385+0000001042          1400 HD2160               2AZ
774886000774886               774886               170213GG     1400+00000+GG0000001226+0000001226+000000000+000000172+0000001390+0000000008+I20000000000+0000001390+Z
774886001774886083-000055     774886006003000003853LIGHTER ELCTRNC REFILBL0000002000+00000613+00000+0001T   00000613+0000001042          1400 HD2315               2AZ
774887000774887               774887               170213GG     1400+00000+GG0000011817+0000011817+000000000+000001656+0000013473+0000000000+I40000013473+0000000000+Z
774887001774887903-000194     774887006009826020616SWT CHOC RP LOLLY 25G  0000003000+00001314+00000+0001T   00001314+0000001132          1400 HD2150               2AZ
774887002774887018-000177     774887006001023797513MUG MINI LOVE ASSTD    0000002000+00000700+00000+0001T   00000700+0000001132          1400 HD2515               2AZ
774887003774887077-000311     774887006001023608666GIFT-BAG 11X14CM GLOSS 0000002000+00000613+00000+0001T   00000613+0000001132          1400 HD2112               2AZ
774887004774887077-000408     774887006003000145218G/BAG PP 15X21X7CM     0000001000+00000876+00000+0001T   00000876+0000001132          1400 HD2112               2AZ
774887005774887301-085004     774887006003000420469ORN LOVE PLAQUE 21X10CM0000001000+00003507+00000+0001T   00003946+0006471132          1400 HD2505               2AZ
774887006774887112-116038     774887006009681820246TCS CARRIER BAG MIDI   0000001000+00000035+00000+0001T   00000035+0000001132          1400 HD2090               2AZ
774887007774887006-000172-H   774887006003000610211BALLOONS METALLIC RED  0000001000+00000218+00000+0001T   00000218+0000001132          1400 HD2131               2AZ
774887008774887006-001000     774887006003000093779HELIUM BALLOON FILL    0000001000+00000613+00000+0001T   00000613+0000001132          1400 HD2131               2AZ
774888000774888               774888               170213GG     1400+00000+GG0000008769+0000008769+000000000+000001229+0000009998+0000000000+I40000009998+0000000000+Z
774888001774888019-000125     774888006001023809629PLANTER GALV WATER CAN 0000001000+00006139+00000+0001T   00006139+0000001133          1400 HD2510               2AZ
774888002774888019-071603     774888006001023772039RIVER-STONES 1kg PEACH 0000001000+00002630+00000+0001T   00002630+0000001133          1400 HD2510               2AZ
774889000774889               774889               170213GG     1400+00000+GG0000003978+0000003978+000000000+000000558+0000004530+0000000006+I20000000000+0000004530+Z
774889001774889112-116038     774889006009681820246TCS CARRIER BAG MIDI   0000001000+00000035+00000+0001T   00000035+0000001135          1400 HD2090               2AZ
774889002774889076-000017     774889006001811010022TWINE COTTON 50g-BALL  0000001000+00000876+00000+0001T   00000876+0000001135          1400 HD2810               2AZ
774889003774889251-000001     774889006001023487681TAPE DBL-SIDE 18x1000mm0000001000+00001314+00000+0001T   00001314+0000001135          1400 HD2810               2AZ
774889004774889036-000610     774889006001023627230WASHING-PEGS PL PACK-240000001000+00001753+00000+0001T   00001753+0000001135          1400 HD2212               2AZ
774890000774890               774890               170213GG     1400+00000+GG0000000437+0000000437+000000000+000000062+0000000490+0000000009+I20000000000+0000000490+Z
774890001774890080-000133-A   774890006003000647019MINI VALENTINES CARD   0000001000+00000437+00000+0001T   00000437+0000001151          1400 HD2112               2AZ
774891000774891               774891               170213GG     1400+00000+GG0000003942+0000003942+000000000+000000552+0000004494+0000000000+I40000004494+0000000000+Z
774891001774891077-000310     774891006001023608635GIFT-BAG 18X23CM GLOSS 0000003000+00001314+00000+0001T   00001314+0000001208          1400 HD2112               2AZ
774892000774892               774892               170213GG     1400+00000+GG0000008766+0000008766+000000000+000001230+0000009996+0000000000+I40000009996+0000000000+Z
774892001774892566-000367     774892006003000645558STICKER WINDOW DECOR   0000001000+00002630+00000+0001T   00002630+0000001213          1400 HD2130               2AZ
774892002774892077-000270     774892006003000395453GIFT-BAG PPR JMB 33X45 0000001000+00002630+00000+0001T   00002630+0000001213          1400 HD2112               2AZ
774892003774892077-000299-A   774892006003000670888GIFT-BAG PAPER JMB LOVE0000001000+00001753+00000+0001T   00001753+0000001213          1400 HD2112               2AZ
774892004774892077-000358     774892006003000329977GIFT-BAG KIDS 25X32CM  0000001000+00001753+00000+0001T   00001753+0000001213          1400 HD2112               2AZ
774893000774893               774893               170213GG     1400+00000+GG0000028971+0000028971+000000000+000004060+0000033030+0000000001+I20000000000+0000033030+Z
774893001774893368-000637     774893006001023874092PLUSH BEAR SLEEPING LOV0000001000+00011402+00000+0001T   00012279+0006471218          1400 HD2745               2AZ
774893002774893077-000270     774893006003000395453GIFT-BAG PPR JMB 33X45 0000001000+00002630+00000+0001T   00002630+0000001218          1400 HD2112               2AZ
774893003774893206-000150     774893006003000628667SLICER CUCUMBER        0000001000+00002192+00000+0001T   00002192+0000001218          1400 HD2321               2AZ
774893004774893018-050000     774893006003000412679MUG OCC LOVE TWIN BEAR 0000001000+00006139+00000+0001T   00006139+0000001218          1400 HD2515               2AZ
774893005774893206-000620     774893006003000631797BACK SCRATCHER EXTEND  0000001000+00002630+00000+0001T   00002630+0000001218          1400 HD2321               2AZ
774893006774893206-000630     774893006003000631919SPECTACLE CLEANING BRUS0000001000+00001227+00000+0001T   00001227+0000001218          1400 HD2321               2AZ
774893007774893304-001011     774893006001023806727FLWR ROSE RED W/BEAR   0000002000+00000613+00000+0001T   00000788+0006471218          1400 HD2510               2AZ
774893008774893077-000299     774893006003000395576G/BAG 32x25cm LRG LOVE 0000001000+00001490+00000+0001T   00001490+0000001218          1400 HD2112               2AZ
774893009774893112-116038     774893006009681820246TCS CARRIER BAG MIDI   0000001000+00000035+00000+0001T   00000035+0000001218          1400 HD2090               2AZ
774894000774894               774894               170213GG     1400+00000+GG0000001490+0000001490+000000000+000000209+0000001690+0000000009+I20000000000+0000001690+Z
774894001774894071-081110     774894006936198405454CORRECTION FLUID PEN   0000001000+00001490+00000+0001T   00001490+0000001224          1400 HD2130               2AZ
774895000774895               774895               170213GG     1400+00000+GG0000001490+0000001490+000000000+000000209+0000001690+0000000009+I20000000000+0000001690+Z
774895001774895077-000299     774895006003000395576G/BAG 32x25cm LRG LOVE 0000001000+00001490+00000+0001T   00001490+0000001226          1400 HD2112               2AZ
774896000774896               774896               170213GG     1400+00000+GG0000007660+0000007660+000000000+000001075+0000008730+0000000005+I20000000000+0000008730+Z
774896001774896903-000194     774896006009826020616SWT CHOC RP LOLLY 25G  0000001000+00001314+00000+0001T   00001314+0000001231          1400 HD2150               2AZ
774896002774896903-002853     774896000000087108019MENTOS ROLL MINT       0000001000+00001051+00000+0001T   00001051+0000001231          1400 HD2150               2AZ
774896003774896018-000129     774896006001023403353MUG OCC. LOVE V-SHAPE  0000002000+00002630+00000+0001T   00002630+0000001231          1400 HD2515               2AZ
774896004774896112-116038     774896006009681820246TCS CARRIER BAG MIDI   0000001000+00000035+00000+0001T   00000035+0000001231          1400 HD2090               2AZ
774897000774897               774897               170213GG     1400+00000+GG0000003104+0000003104+000000000+000000435+0000003530+0000000009+I20000000000+0000003530+Z
774897001774897159-003615     774897006001246045460TOILET-BRUSH W/STAND   0000001000+00003069+00000+0001T   00003069+0000001233          1400 HD2200               2AZ
774897002774897112-116038     774897006009681820246TCS CARRIER BAG MIDI   0000001000+00000035+00000+0001T   00000035+0000001233          1400 HD2090               2AZ
774898000774898               774898               170213GG     1400+00000+GG0000004385+0000004385+000000000+000000614+0000004990+0000000009+I20000000000+0000004990+Z
774898001774898031-000874-B   774898006001023798831P/FRAME WDN P/BOX 13X180000001000+00004385+00000+0001T   00004385+0000001234          1400 HD2510               2AZ
774899000774899               774899               170213GG     1400+00000+GG0000013316+0000013316+000000000+000001865+0000015181+0000000000+I40000015181+0000000000+Z
774899001774899018-005009     774899006001023725608MUG W/PLUSH-BEAR LOVE  0000001000+00003507+00000+0001T   00003507+0000001237          1400 HD2515               2AZ
774899002774899018-000136     774899006001023659026MUG OCC LOVE W/PLUSH   0000001000+00003507+00000+0001T   00003507+0000001237          1400 HD2515               2AZ
774899003774899304-001011     774899006001023806727FLWR ROSE RED W/BEAR   0000002000+00000613+00000+0001T   00000788+0006471237          1400 HD2510               2AZ
774899004774899033-001364     774899006001023802088HAIR-CLIPS 65mm 24PCE  0000001000+00000876+00000+0001T   00000876+0000001237          1400 HD2200               2AZ
774899005774899018-000177     774899006001023797513MUG MINI LOVE ASSTD    0000006000+00000700+00000+0001T   00000700+0000001237          1400 HD2515               2AZ
774900000774900               774900               170213GG     1400+00000+GG0000005262+0000005262+000000000+000000737+0000005990+0000000009+I20000000000+0000005990+Z
774900001774900464-009011     774900006003000647675FISHING WITH TWO RODS  0000001000+00005262+00000+0001T   00005262+0000001237          1400 HD2785               2AZ
774901000774901               774901               170213GG     1400+00000+GG0000001753+0000001753+000000000+000000246+0000001990+0000000009+I20000000000+0000001990+Z
774901001774901077-000299-A   774901006003000670888GIFT-BAG PAPER JMB LOVE0000001000+00001753+00000+0001T   00001753+0000001245          1400 HD2112               2AZ
774902000774902               774902               170213GG     1400+00000+GG0000001753+0000001753+000000000+000000246+0000001990+0000000009+I20000000000+0000001990+Z
774902001774902077-000382     774902006003000247820GIFT-BAG MED 18X23CM   0000001000+00001753+00000+0001T   00001753+0000001246          1400 HD2112               2AZ
774903000774903               774903               170213GG     1400+00000+GG0000009908+0000009908+000000000+000001388+0000011296+0000000000+I40000011296+0000000000+Z
774903001774903903-000120     774903006002099001665SWEET GS ZILLIONS 50g  0000001000+00000700+00000+0001T   00000700+0000001247          1400 HD2150               2AZ
774903002774903306-001660     774903006003000620579NAIL DRYING MACHINE    0000001000+00007016+00000+0001T   00007016+0000001247          1400 HD2200               2AZ
774903003774903033-000782     774903006001023905482COSMETIC SPONGES 12PC  0000001000+00002192+00000+0001T   00002192+0000001247          1400 HD2200               2AZ
774904000774904               774904               170213GG     1400+00000+GG0000017540+0000017540+000000000+000002456+0000019996+0000000000+I40000019996+0000000000+Z
774904001774904174-000173     774904006001023905307STORAGE-BOX COLLAPSIBLE0000004000+00004385+00000+0001T   00004385+0000001248          1400 HD2205               2AZ
774905000774905               774905               170213GG     1400+00000+GG0000003506+0000003506+000000000+000000492+0000003998+0000000000+I40000003998+0000000000+Z
774905001774905080-000109     774905006003000237203CARD&ENVLPE BDAY-BRIGHT0000001000+00001753+00000+0001T   00001753+0000001249          1400 HD2112               2AZ
774905002774905077-000354     774905006003000139224GIFT-BAG 25X32CM H/MADE0000001000+00001753+00000+0001T   00001753+0000001249          1400 HD2112               2AZ
774906000774906               774906               170213GG     1400+00000+GG0000004384+0000004384+000000000+000000614+0000004990+0000000008+I20000000000+0000004990+Z
774906001774906301-085000     774906006003000674299 ORN OCC. LOVE HEARTS  0000002000+00002192+00000+0001T   00002192+0000001250          1400 HD2505               2AZ
774907000774907               774907               170213GG     1400+00000+GG0000002628+0000002628+000000000+000000368+0000002990+0000000006+I20000000000+0000002990+Z
774907001774907006-000167-C   774907006003000516971BALLOONS PINK METALLIC 0000001000+00001314+00000+0001T   00001314+0000001312          1400 HD2131               2AZ
774907002774907006-000166-H   774907006003000608096BALLOONS HELIUM 6PC WHT0000001000+00001314+00000+0001T   00001314+0000001312          1400 HD2131               2AZ
774908000774908               774908               170213GG     1400+00000+GG0000010552+0000010552+000000000+000001481+0000012030+0000000003+I20000000000+0000012030+Z
774908001774908039-000114     774908006001023524058CANDLE T/LITE RED 3.5CM0000001000+00001753+00000+0001T   00001753+0000001316          1400 HD2510               2AZ
774908002774908077-000010-C   774908006001023123879CREPE-PAPER RED        0000001000+00000788+00000+0001T   00000788+0000001316          1400 HD2112               2AZ
774908003774908079-003001     774908006003000448951A/TUBE 75ML BLACK      0000001000+00001753+00000+0001T   00001753+0000001316          1400 HD2130               2AZ
774908004774908301-085000     774908006003000674299 ORN OCC. LOVE HEARTS  0000001000+00002192+00000+0001T   00002192+0000001316          1400 HD2505               2AZ
774908005774908039-000108     774908006001023524034TEA-LITE CANDLES 8PCE  0000001000+00001490+00000+0001T   00001490+0000001316          1400 HD2510               2AZ
774908006774908079-000275     774908006003000160488PAINT-BRUSHES 6PCE PRO 0000001000+00001753+00000+0001T   00001753+0000001316          1400 HD2130               2AZ
774908007774908077-000010-C   774908006001023123879CREPE-PAPER RED        0000001000+00000788+00000+0001T   00000788+0000001316          1400 HD2112               2AZ
774908008774908112-116038     774908006009681820246TCS CARRIER BAG MIDI   0000001000+00000035+00000+0001T   00000035+0000001316          1400 HD2090               2AZ
774909000774909               774909               170213GG     1400+00000+GG0000016255+0000016255+000000000+000002277+0000018532+0000000000+I40000018532+0000000000+Z
774909001774909361-000112     774909006003000660261DOLL RAG 30cm          0000001000+00005262+00000+0001T   00005262+0000001319          1400 HD2725               2AZ
774909002774909361-000113     774909006001023680204DOLL 30cm RAG          0000001000+00005262+00000+0001T   00005262+0000001319          1400 HD2725               2AZ
774909003774909006-000166-H   774909006003000608096BALLOONS HELIUM 6PC WHT0000001000+00001314+00000+0001T   00001314+0000001319          1400 HD2131               2AZ
774909004774909006-000166-D   774909006003000516490BALLOONS LRG 6PC RED   0000001000+00001314+00000+0001T   00001314+0000001319          1400 HD2131               2AZ
774909005774909301-085000     774909006003000674299 ORN OCC. LOVE HEARTS  0000001000+00002192+00000+0001T   00002192+0000001319          1400 HD2505               2AZ
774909006774909077-000011-C   774909006001023808523TISSUE 10xSHTS RED     0000001000+00000876+00000+0001T   00000876+0000001319          1400 HD2112               2AZ
774909007774909112-116038     774909006009681820246TCS CARRIER BAG MIDI   0000001000+00000035+00000+0001T   00000035+0000001319          1400 HD2090               2AZ
774910000774910               774910               170213GG     1400+00000+GG0000002630+0000002630+000000000+000000369+0000002990+0000000009+I20000000000+0000002990+Z
774910001774910004-078989     774910006003000491292HEADPHONES W/SOFT PADS 0000001000+00002630+00000+0001T   00002630+0000001319          1400 HD2310               2AZ
774911000774911               774911               170213GG     1400+00000+GG0000004381+0000004381+000000000+000000615+0000004996+0000000000+I40000004996+0000000000+Z
774911001774911089-000018     774911006003000176724KEY CHAIN INSPIRATION  0000001000+00003507+00000+0001T   00003507+0000001323          1400 HD2205               2AZ
774911002774911077-000303     774911006001023593757GIFT-BAG PAPER MED     0000001000-00001578+00000+0001T   00001578+0000001323          1400 HD21121IC            2AZ
774911003774911080-000133-A   774911006003000647019MINI VALENTINES CARD   0000002000+00000437+00000+0001T   00000437+0000001323          1400 HD2112               2AZ
774911004774911077-000303     774911006001023593757GIFT-BAG PAPER MED     0000001000+00001578+00000+0001T   00001578+0000001323          1400 HD2112               2AZ
774912000774912               774912               170213GG     1400+00000+GG0000009647+0000009647+000000000+000001351+0000010998+0000000000+I40000010998+0000000000+Z
774912001774912263-000504     774912006001023790590TRACTOR+TRAILER 30cm   0000001000+00005262+00000+0001T   00005262+0000001324          1400 HD2710               2AZ
774912002774912263-091238     774912006003000298471VEHICLE MILITARY TRUCK 0000001000+00004385+00000+0001T   00004385+0000001324          1400 HD2710               2AZ
774913000774913               774913               170213GG     1400+00000+GG0000001314+0000001314+000000000+000000184+0000001490+0000000008+I20000000000+0000001490+Z
774913001774913077-000310     774913006001023608635GIFT-BAG 18X23CM GLOSS 0000001000+00001314+00000+0001T   00001314+0000001325          1400 HD2112               2AZ
774914000774914               774914               170213GG     1400+00000+GG0000001490+0000001490+000000000+000000209+0000001690+0000000009+I20000000000+0000001690+Z
774914001774914077-000299     774914006003000395576G/BAG 32x25cm LRG LOVE 0000001000+00001490+00000+0001T   00001490+0000001326          1400 HD2112               2AZ
774915000774915               774915               170213GG     1400+00000+GG0000002630+0000002630+000000000+000000369+0000002990+0000000009+I20000000000+0000002990+Z
774915001774915002-000016     774915006001023760173CAPPUCCINO-FROTHER B/O 0000001000+00002630+00000+0001T   00002630+0000001330          1400 HD2300               2AZ
774916000774916               774916               170213GG     1400+00000+GG0000002628+0000002628+000000000+000000368+0000002990+0000000006+I20000000000+0000002990+Z
774916001774916077-000310     774916006001023608635GIFT-BAG 18X23CM GLOSS 0000002000+00001314+00000+0001T   00001314+0000001332          1400 HD2112               2AZ
774917000774917               774917               170213GG     1400+00000+GG0000004385+0000004385+000000000+000000614+0000004990+0000000009+I20000000000+0000004990+Z
774917001774917030-000031-A   774917006003000457588PLAQUE W/WORDS ASSTD   0000001000+00004385+00000+0001T   00004823+0006471334          1400 HD2505               2AZ
774918000774918               774918               170213GG     1400+00000+GG0000002628+0000002628+000000000+000000368+0000002990+0000000006+I20000000000+0000002990+Z
774918001774918077-000310     774918006001023608635GIFT-BAG 18X23CM GLOSS 0000002000+00001314+00000+0001T   00001314+0000001353          1400 HD2112               2AZ
774919000774919               774919               170213GG     1400+00000+GG0000003068+0000003068+000000000+000000430+0000003490+0000000008+I20000000000+0000003490+Z
774919001774919903-000482     774919006001704001397SWT SOFT-MINTS 60G     0000001000+00000876+00000+0001T   00000876+0000001357          1400 HD2150               2AZ
774919002774919080-000127     774919006003000424351VALENTINES DAY 36x24CM 0000001000+00002192+00000+0001T   00002192+0000001357          1400 HD2112               2AZ
774920000774920               774920               170213GG     1400+00000+GG0000001753+0000001753+000000000+000000246+0000001990+0000000009+I20000000000+0000001990+Z
774920001774920362-000315     774920006003000096008HAIR HEADBAND FLOWERS  0000001000+00001753+00000+0001T   00001753+0000001404          1400 HD2160               2AZ
774921000774921               774921               170213GG     1400+00000+GG0000002664+0000002664+000000000+000000374+0000003030+0000000008+I20000000000+0000003030+Z
774921001774921080-000133-A   774921006003000647019MINI VALENTINES CARD   0000001000+00000437+00000+0001T   00000437+0000001433          1400 HD2112               2AZ
774921002774921016-006517     774921006003000351626S/JAR GLS CHECK 650ML  0000001000+00002192+00000+0001T   00002192+0000001433          1400 HD2300               2AZ
774921003774921112-116038     774921006009681820246TCS CARRIER BAG MIDI   0000001000+00000035+00000+0001T   00000035+0000001433          1400 HD2090               2AZ
774922000774922               774922               170213GG     1400+00000+GG0000013789+0000013789+000000000+000001935+0000015720+0000000004+I20000000000+0000015720+Z
774922001774922105-000750     774922006003000190270CONTAINERS 4xMINI 150ml0000003000+00001402+00000+0001T   00001402+0000001508          1400 HD2210               2AZ
774922002774922033-000782     774922006001023905482COSMETIC SPONGES 12PC  0000001000+00002192+00000+0001T   00002192+0000001508          1400 HD2200               2AZ
774922003774922018-000177     774922006001023797513MUG MINI LOVE ASSTD    0000004000+00000700+00000+0001T   00000700+0000001508          1400 HD2515               2AZ
774922004774922112-116038     774922006009681820246TCS CARRIER BAG MIDI   0000001000+00000035+00000+0001T   00000035+0000001508          1400 HD2090               2AZ
774922005774922903-000087     774922006001704000161SWT SPECKLED-EGGS 50G  0000004000+00001139+00000+0001T   00001139+0000001508          1400 HD2150               2AZ
774923000774923               774923               170213GG     1400+00000+GG0000009648+0000009648+000000000+000001351+0000010999+0000000000+I40000010999+0000000000+Z
774923001774923024-000107     774923006001023422071MUFFIN-PAN 12-CUP      0000001000+00009648+00000+0001T   00009648+0000001524          1400 HD2300               2AZ
774924000774924               774924               170213GG     1400+00000+GG0000002716+0000002716+000000000+000000381+0000003090+0000000007+I20000000000+0000003090+Z
774924001774924564-000012     774924006001023130075BUBBLE BOTTLE MAGIC    0000001000+00000700+00000+0001T   00000700+0000001527          1400 HD2131               2AZ
774924002774924903-000907     774924006009802868324SWEET LASER BARBIE     0000001000+00002016+00000+0001T   00002016+0000001527          1400 HD2150               2AZ
774925000774925               774925               170213GG     1400+00000+GG0000010961+0000010961+000000000+000001536+0000012490+0000000007+I20000000000+0000012490+Z
774925001774925030-004090     774925006003000674503P/WALL MDF 30X40CM     0000001000+00008771+00000+0001T   00008771+0000001528          1400 HD2505               2AZ
774925002774925080-000133-A   774925006003000647019MINI VALENTINES CARD   0000001000+00000437+00000+0001T   00000437+0000001528          1400 HD2112               2AZ
774925003774925301-085002     774925006003000420704ORN OCC. LOVE BELL ASST0000001000+00001753+00000+0001T   00002630+0008121528          1400 HD2505               2AZ
774926000774926               774926               170213GG     1400+00000+GG0000002190+0000002190+000000000+000000307+0000002490+0000000007+I20000000000+0000002490+Z
774926001774926018-000177     774926006001023797513MUG MINI LOVE ASSTD    0000001000+00000700+00000+0001T   00000700+0000001534          1400 HD2515               2AZ
774926002774926077-000304     774926006001023483232GIFT-BAG 25X32CM E/DAY 0000001000+00001490+00000+0001T   00001490+0000001534          1400 HD2112               2AZ
774927000774927               774927               170213GG     1400+00000+GG0000006138+0000006138+000000000+000000860+0000006990+0000000008+I20000000000+0000006990+Z
774927001774927079-013098     774927006003000197040ART+CRAFT SET DIY      0000002000+00003069+00000+0001T   00003069+0000001535          1400 HD2130               2AZ
774928000774928               774928               170213GG     1400+00000+GG0000001753+0000001753+000000000+000000246+0000001990+0000000009+I20000000000+0000001990+Z
774928001774928051-002407     774928006003000452491SPRAYER TRIGGER 550ml  0000001000+00001753+00000+0001T   00001753+0000001535          1400 HD2820               2AZ
774929000774929               774929               170213GG     1400+00000+GG0000008770+0000008770+000000000+000001228+0000009998+0000000000+I40000009998+0000000000+Z
774929001774929368-000049     774929006003000536955PLUSH BEAR 15cm LOVE   0000002000+00004385+00000+0001T   00004385+0000001537          1400 HD2745               2AZ
774930000774930               774930               170213GG     1400+00000+GG0000002629+0000002629+000000000+000000369+0000002990+0000000008+I20000000000+0000002990+Z
774930001774930077-000011-D   774930006001023808554TISSUE-WRAP WHITE 10PCE0000001000+00000876+00000+0001T   00000876+0000001537          1400 HD2112               2AZ
774930002774930077-000290     774930006001023902023GIFT BOX 26x32x13cm    0000001000+00001753+00000+0001T   00001753+0000001537          1400 HD2112               2AZ
774931000774931               774931               170213GG     1400+00000+GG0000008327+0000008327+000000000+000001167+0000009494+0000000000+I40000009494+0000000000+Z
774931001774931006-000109-A   774931006003000645435BALLOONS HELIUM 2PC    0000001000+00001753+00000+0001T   00001753+0000001539          1400 HD2131               2AZ
774931002774931006-000166-D   774931006003000516490BALLOONS LRG 6PC RED   0000001000+00001314+00000+0001T   00001314+0000001539          1400 HD2131               2AZ
774931003774931018-000136     774931006001023659026MUG OCC LOVE W/PLUSH   0000001000+00003507+00000+0001T   00003507+0000001539          1400 HD2515               2AZ
774931004774931903-000619     774931006003000672455SWT LOLLY STR/BRRY 140G0000001000+00001753+00000+0001T   00001753+0000001539          1400 HD2150               2AZ
774932000774932               774932               170213GG     1400+00000+GG0000054217+0000054217+000000000+000007598+0000061815+0000000000+I40000061815+0000000000+Z
774932001774932112-116038     774932006009681820246TCS CARRIER BAG MIDI   0000001000+00000035+00000+0001T   00000035+0000001545          1400 HD2090               2AZ
774932002774932903-000087     774932006001704000161SWT SPECKLED-EGGS 50G  0000001000+00001139+00000+0001T   00001139+0000001545          1400 HD2150               2AZ
774932003774932079-000358     774932006003000591046ART+CRAFT FELT-TIP PENS0000001000+00003069+00000+0001T   00003069+0000001545          1400 HD2130               2AZ
774932004774932007-000537     774932000651728791017NOTE-PAD RND SMILE-FACE0000001000+00000700+00000+0001T   00000700+0000001545          1400 HD2130               2AZ
774932005774932001-091415     774932006003000329113W/GLS OCC. LOVE 2PC 2800000001000+00008771+00000+0001T   00009648+0006471545          1400 HD2515               2AZ
774932006774932079-013032-G   774932006003000496389FOAM BUTTERFLIES       0000001000+00002192+00000+0001T   00002192+0000001545          1400 HD2130               2AZ
774932007774932566-000535     774932006003000284719STICKER SPARKLE EMBOSS 0000001000+00001753+00000+0001T   00001753+0000001545          1400 HD2130               2AZ
774932008774932566-000667     774932006003000658039STICKER FOIL EMBOSSED  0000001000+00002192+00000+0001T   00002192+0000001545          1400 HD2130               2AZ
774932009774932566-000308     774932006003000522521STICKER TAPE 3PCS      0000001000+00002630+00000+0001T   00002630+0000001545          1400 HD2130               2AZ
774932010774932079-013106     774932006003000081998ART+CRAFT PIPE-CLEANERS0000001000+00003069+00000+0001T   00003069+0000001545          1400 HD2130               2AZ
774932011774932079-013032-F   774932006003000496266FOAM NUMBERS           0000001000+00002192+00000+0001T   00002192+0000001545          1400 HD2130               2AZ
774932012774932079-130010     774932006003000496624ART+CRAFT FOAM DOLLS   0000001000+00004385+00000+0001T   00004385+0000001545          1400 HD2130               2AZ
774932013774932079-013032-A   774932006003000389322SEA WORLD STICKERS     0000001000+00001753+00000+0001T   00001753+0000001545          1400 HD2130               2AZ
774932014774932006-000166-D   774932006003000516490BALLOONS LRG 6PC RED   0000001000+00001314+00000+0001T   00001314+0000001545          1400 HD2131               2AZ
774932015774932566-000317     774932006003000524204STICKER TAPE 2PCS      0000001000+00003507+00000+0001T   00003507+0000001545          1400 HD2130               2AZ
774932016774932566-000308     774932006003000522521STICKER TAPE 3PCS      0000001000+00002630+00000+0001T   00002630+0000001545          1400 HD2130               2AZ
774932017774932079-013032-A   774932006003000389322SEA WORLD STICKERS     0000001000+00001753+00000+0001T   00001753+0000001545          1400 HD2130               2AZ
774932018774932079-013099     774932006003000081875ART+CRAFT EYES ASSTD   0000001000+00001753+00000+0001T   00001753+0000001545          1400 HD2130               2AZ
774932019774932566-000200     774932006003000384174STICKER PUFFY NEON     0000001000+00000876+00000+0001T   00000876+0000001545          1400 HD2130               2AZ
774932020774932565-000071     774932006003000643387NOVELTY WIND UP CHATTER0000001000+00001139+00000+0001T   00001139+0000001545          1400 HD2745               2AZ
774932021774932077-000299     774932006003000395576G/BAG 32x25cm LRG LOVE 0000002000+00001490+00000+0001T   00001490+0000001545          1400 HD2112               2AZ
774932022774932031-000870-A   774932006001023798626P/FRAME WOOD WHITE-PINE0000001000+00004385+00000+0001T   00004385+0000001545          1400 HD2510               2AZ
774933000774933               774933               170213GG     1400+00000+GG0000002366+0000002366+000000000+000000332+0000002698+0000000000+I40000002698+0000000000+Z
774933001774933306-000021     774933006001023169433EARBUDS 100PCE IN BAG  0000001000+00000613+00000+0001T   00000613+0000001551          1400 HD2200               2AZ
774933002774933084-000889     774933006003000293674NAIL FILE EMERY 18CM   0000001000+00001753+00000+0001T   00001753+0000001551          1400 HD2200               2AZ
774934000774934               774934               170213GG     1400+00000+GG0000026530+0000026530+000000000+000003720+0000030250+0000000000+I20000000000+0000030250+Z
774934001774934112-116038     774934006009681820246TCS CARRIER BAG MIDI   0000001000+00000035+00000+0001T   00000035+0000001555          1400 HD2090               2AZ
774934002774934077-000305     774934006003000395422GIFT-BAG WINE 10X35CM  0000002000+00001490+00000+0001T   00001490+0000001555          1400 HD2112               2AZ
774934003774934077-000010-C   774934006001023123879CREPE-PAPER RED        0000001000+00000788+00000+0001T   00000788+0000001555          1400 HD2112               2AZ
774934004774934077-000011-D   774934006001023808554TISSUE-WRAP WHITE 10PCE0000001000+00000876+00000+0001T   00000876+0000001555          1400 HD2112               2AZ
774934005774934077-000011-F   774934006001023808431TISSUE-WRAP BLUE/LILAC 0000001000+00000876+00000+0001T   00000876+0000001555          1400 HD2112               2AZ
774934006774934077-000011-D   774934006001023808554TISSUE-WRAP WHITE 10PCE0000001000+00000876+00000+0001T   00000876+0000001555          1400 HD2112               2AZ
774934007774934073-000158     774934006003000683352COSMETIC BAG 18x10x3   0000001000+00002192+00000+0001T   00002192+0000001555          1400 HD2200               2AZ
774934008774934077-000310     774934006001023608635GIFT-BAG 18X23CM GLOSS 0000001000+00001314+00000+0001T   00001314+0000001555          1400 HD2112               2AZ
774934009774934159-000043-H   774934006001023416629HOOKS ADHESIVE 3PCE SQR0000001000+00001139+00000+0001T   00001139+0000001555          1400 HD2200               2AZ
774934010774934027-001018     774934006003000622702BROOM COVER MICROFIBRE 0000001000+00002630+00000+0001T   00002630+0000001555          1400 HD2212               2AZ
774934011774934033-005931     774934006001023678447PINS ON-WHEEL PEARLIZED0000001000+00000876+00000+0001T   00000876+0000001555          1400 HD2200               2AZ
774934012774934002-003730     774934006001023761699STRAINER SKIMMER 16cm  0000001000+00001753+00000+0001T   00001753+0000001555          1400 HD2300               2AZ
774934013774934033-005931     774934006001023678447PINS ON-WHEEL PEARLIZED0000001000-00000876+00000+0001T   00000876+0000001555          1400 HD22001IC            2 Z
774934014774934033-006004     774934006001023703316SEWING-KIT IN-POUCH    0000001000+00002192+00000+0001T   00002192+0000001555          1400 HD2200               2AZ
774934015774934033-005931     774934006001023678447PINS ON-WHEEL PEARLIZED0000001000+00000876+00000+0001T   00000876+0000001555          1400 HD2200               2AZ
774934016774934018-000177     774934006001023797513MUG MINI LOVE ASSTD    0000007000+00000700+00000+0001T   00000700+0000001555          1400 HD2515               2AZ
774934017774934366-002681     774934006003000653744DRESS UP HAT FIRE CHIEF0000001000+00000876+00000+0001T   00000876+0000001555          1400 HD2131               2AZ
774934018774934077-000309-A   774934006003000671007GIFT-BAG HOLOGRAM JMB  0000001000+00002192+00000+0001T   00002192+0000001555          1400 HD2112               2AZ
774934019774934112-116038     774934006009681820246TCS CARRIER BAG MIDI   0000001000+00000035+00000+0001T   00000035+0000001555          1400 HD2090               2AZ
774935000774935               774935               170213GG     1400+00000+GG0000004812+0000004812+000000000+000000680+0000005492+0000000000+I40000005492+0000000000+Z
774935001774935080-000133     774935006003000535613CARD&ENV MINI ASTD DSGN0000003000+00000437+00000+0001T   00000437+0000001558          1400 HD2112               2AZ
774935002774935080-000133-A   774935006003000647019MINI VALENTINES CARD   0000004000+00000437+00000+0001T   00000437+0000001558          1400 HD2112               2AZ
774935003774935903-000082     774935006001704014892SWT MINI WINE GUMS 100G0000001000+00001753+00000+0001T   00001753+0000001558          1400 HD2150               2AZ
774936000774936               774936               170213GG     1400+00000+GG0000002192+0000002192+000000000+000000307+0000002490+0000000009+I20000000000+0000002490+Z
774936001774936566-000359     774936006003000582709STICKER BOOK LOVE SPARK0000001000+00002192+00000+0001T   00002192+0000001558          1400 HD2130               2AZ
774937000774937               774937               170213GG     1400+00000+GG0000008943+0000008943+000000000+000001253+0000010190+0000000006+I20000000000+0000010190+Z
774937001774937368-000049     774937006003000536955PLUSH BEAR 15cm LOVE   0000001000+00004385+00000+0001T   00004385+0000001605          1400 HD2745               2AZ
774937002774937077-000299-A   774937006003000670888GIFT-BAG PAPER JMB LOVE0000001000+00001753+00000+0001T   00001753+0000001605          1400 HD2112               2AZ
774937003774937080-000127     774937006003000424351VALENTINES DAY 36x24CM 0000001000+00002192+00000+0001T   00002192+0000001605          1400 HD2112               2AZ
774937004774937304-001011     774937006001023806727FLWR ROSE RED W/BEAR   0000001000+00000613+00000+0001T   00000788+0006471605          1400 HD2510               2AZ
774938000774938               774938               170213GG     1400+00000+GG0000029198+0000029198+000000000+000004090+0000033288+0000000000+I40000033288+0000000000+Z
774938001774938903-000120     774938006002099001665SWEET GS ZILLIONS 50g  0000001000+00000700+00000+0001T   00000700+0000001609          1400 HD2150               2AZ
774938002774938466-002096     774938006001023800398CATCHBALL VELCRO W/BALL0000001000+00005262+00000+0001T   00005262+0000001609          1400 HD2785               2AZ
774938003774938263-000415     774938006003000600571V/TOOLS PLASTIC ASSEMBL0000001000+00003507+00000+0001T   00003507+0000001609          1400 HD2710               2AZ
774938004774938263-000504     774938006001023790590TRACTOR+TRAILER 30cm   0000001000+00005262+00000+0001T   00005262+0000001609          1400 HD2710               2AZ
774938005774938088-000008     774938006003000623181AIR FRESHENER GEL ASSTD0000001000+00002630+00000+0001T   00002630+0000001609          1400 HD2212               2AZ
774938006774938263-000559     774938006003000671908VEHICLE TAPE 5m 4.8cm  0000001000+00003069+00000+0001T   00003069+0000001609          1400 HD2710               2AZ
774938007774938104-000033     774938006003000615070BASKET PL 30x20x11cm   0000004000+00002192+00000+0001T   00002192+0000001609          1400 HD2210               2AZ
774939000774939               774939               170213GG     1400+00000+GG0000015820+0000015820+000000000+000002217+0000018037+0000000000+I40000018037+0000000000+Z
774939001774939368-000113     774939006001023780874PLUSH BLINGED LOVE 30cm0000001000+00012279+00000+0001T   00012279+0000001614          1400 HD2745               2AZ
774939002774939112-116038     774939006009681820246TCS CARRIER BAG MIDI   0000001000+00000035+00000+0001T   00000035+0000001614          1400 HD2090               2AZ
774939003774939003-000250     774939006003000035045ORN DECOR NOVELTY GRASS0000001000+00001753+00000+0001T   00001753+0000001614          1400 HD2505               2AZ
774939004774939077-000382     774939006003000247820GIFT-BAG MED 18X23CM   0000001000+00001753+00000+0001T   00001753+0000001614          1400 HD2112               2AZ
774940000774940               774940               170213GG     1400+00000+GG0000015518+0000015518+000000000+000002176+0000017690+0000000004+I20000000000+0000017690+Z
774940001774940301-085003     774940006003000420827ORN OCCASION LOVE KEY  0000001000+00005262+00000+0001T   00005262+0000001615          1400 HD2505               2AZ
774940002774940077-000358     774940006003000329977GIFT-BAG KIDS 25X32CM  0000001000+00001753+00000+0001T   00001753+0000001615          1400 HD2112               2AZ
774940003774940080-000133-A   774940006003000647019MINI VALENTINES CARD   0000002000+00000437+00000+0001T   00000437+0000001615          1400 HD2112               2AZ
774940004774940077-000299     774940006003000395576G/BAG 32x25cm LRG LOVE 0000001000+00001490+00000+0001T   00001490+0000001615          1400 HD2112               2AZ
774940005774940018-050000     774940006003000412679MUG OCC LOVE TWIN BEAR 0000001000+00006139+00000+0001T   00006139+0000001615          1400 HD2515               2AZ
774941000774941               774941               170213GG     1400+00000+GG0000005258+0000005258+000000000+000000737+0000005990+0000000005+I20000000000+0000005990+Z
774941001774941018-000170     774941006001023775528MUG OCC. LOVE 2PC MINI 0000001000+00002192+00000+0001T   00002192+0000001628          1400 HD2515               2AZ
774941002774941903-000194     774941006009826020616SWT CHOC RP LOLLY 25G  0000001000+00001314+00000+0001T   00001314+0000001628          1400 HD2150               2AZ
774941003774941077-000314     774941006003000181148GIFT-BAG 11X14CM MATT  0000002000+00000876+00000+0001T   00000876+0000001628          1400 HD2112               2AZ
774942000774942               774942               170213GG     1400+00000+GG0000048032+0000048032+000000000+000006733+0000054765+0000000000+I40000054765+0000000000+Z
774942001774942027-009025     774942006003962000747DUSTPAN-SET PL         0000001000+00002630+00000+0001T   00002630+0000001641          1400 HD2212               2AZ
774942002774942012-000006     774942006003000118311MICRO PRESSURE COOKER  0000001000+00008771+00000+0001T   00008771+0000001641          1400 HD2300               2AZ
774942003774942051-002407     774942006003000452491SPRAYER TRIGGER 550ml  0000001000+00001753+00000+0001T   00001753+0000001641          1400 HD2820               2AZ
774942004774942039-000798     774942006001023617774CANDLES TEALITE BOX-50 0000001000+00006139+00000+0001T   00006139+0000001641          1400 HD2510               2AZ
774942005774942047-000504-H   774942006001023589958PLUG EURODAPTOR 2PIN HH0000003000+00001665+00000+0001T   00001665+0000001641          1400 HD2880               2AZ
774942006774942036-000402     774942006003000572250CLOTHES DRYER WITH PEGS0000001000+00002630+00000+0001T   00002630+0000001641          1400 HD2212               2AZ
774942007774942051-002401     774942006001023523570TRIGGER-SPRAYER   300ml0000001000+00001490+00000+0001T   00001490+0000001641          1400 HD2820               2AZ
774942008774942037-000004     774942006001023763679ASHTRAY PL TUB 8X11CM  0000001000+00001753+00000+0001T   00002192+0008191641          1400 HD2515               2AZ
774942009774942301-000827     774942006001023872692ORN FAIRY MINI IN-BAG  0000001000+00003946+00000+0001T   00003946+0000001641          1400 HD2505               2AZ
774942010774942301-085006     774942006001023502940ORN LOVE MSG TUBE W/HRT0000001000+00001753+00000+0001T   00001753+0000001641          1400 HD2505               2AZ
774942011774942040-000103     774942000694202201862C/HOLDER-SET 5PC W/TRAY0000001000+00011402+00000+0001T   00013157+0008191641          1400 HD2510               2AZ
774942012774942112-116038     774942006009681820246TCS CARRIER BAG MIDI   0000001000+00000035+00000+0001T   00000035+0000001641          1400 HD2090               2AZ
774942013774942018-000177     774942006001023797513MUG MINI LOVE ASSTD    0000001000+00000700+00000+0001T   00000700+0000001641          1400 HD2515               2AZ
774942014774942112-116038     774942006009681820246TCS CARRIER BAG MIDI   0000001000+00000035+00000+0001T   00000035+0000001641          1400 HD2090               2AZ
774943000774943               774943               170213GG     1400+00000+GG0000011435+0000011435+000000000+000001602+0000013037+0000000000+I40000013037+0000000000+Z
774943001774943903-000481     774943006001704007481SWT MOO MILK-SHAKES 60G0000001000+00000876+00000+0001T   00000876+0000001643          1400 HD2150               2AZ
774943002774943065-003636     774943006003000231997MICROPHONE SINGER      0000001000+00008771+00000+0001T   00008771+0000001643          1400 HD2745               2AZ
774943003774943306-000021-B   774943006003000366217COTTON EARBUDS BABY 55P0000001000+00001753+00000+0001T   00001753+0000001643          1400 HD2200               2AZ
774943004774943112-116038     774943006009681820246TCS CARRIER BAG MIDI   0000001000+00000035+00000+0001T   00000035+0000001643          1400 HD2090               2AZ
774944000774944               774944               170213GG     1400+00000+GG0000001578+0000001578+000000000+000000221+0000001790+0000000009+I20000000000+0000001790+Z
774944001774944077-000315     774944006003000181186GIFT-BAG 20x28cm MATT  0000001000+00001578+00000+0001T   00001578+0000001644          1400 HD2112               2AZ
774945000774945               774945               170213GG     1400+00000+GG0000000613+0000000613+000000000+000000086+0000000690+0000000009+I20000000000+0000000690+Z
774945001774945006-001000     774945006003000093779HELIUM BALLOON FILL    0000001000+00000613+00000+0001T   00000613+0000001647          1400 HD2131               2AZ
774946000774946               774946               170213GG     1400+00000+GG0000005084+0000005084+000000000+000000713+0000005790+0000000007+I20000000000+0000005790+Z
774946001774946304-001011     774946006001023806727FLWR ROSE RED W/BEAR   0000001000+00000613+00000+0001T   00000788+0006471650          1400 HD2510               2AZ
774946002774946903-000151     774946006009803374411SWT SML RND R/BOW LOLLY0000001000+00000525+00000+0001T   00000525+0000001650          1400 HD2150               2AZ
774946003774946082-098798     774946006001492987989SUNGLASS KIDS BOYS     0000001000+00003946+00000+0001T   00003946+0000001650          1400 HD2160               2AZ
774947000774947               774947               170213GG     1400+00000+GG0000005119+0000005119+000000000+000000718+0000005837+0000000000+I40000005837+0000000000+Z
774947001774947200-003024     774947006001023657299REFUSE BAGS 20PCE BLACK0000002000+00001753+00000+0001T   00001753+0000001652          1400 HD2214               2AZ
774947002774947080-000124     774947006003000297733CARD & ENV VALENTINES  0000001000+00001578+00000+0001T   00001578+0000001652          1400 HD2112               2AZ
774947003774947112-116038     774947006009681820246TCS CARRIER BAG MIDI   0000001000+00000035+00000+0001T   00000035+0000001652          1400 HD2090               2AZ
774948000774948               774948               170213GG     1400+00000+GG0000002227+0000002227+000000000+000000312+0000002530+0000000009+I20000000000+0000002530+Z
774948001774948007-000597     774948006009699511129MARLIN SLF ADHESIVE 2M 0000001000+00002192+00000+0001T   00002192+0000001653          1400 HD2130               2AZ
774948002774948112-116038     774948006009681820246TCS CARRIER BAG MIDI   0000001000+00000035+00000+0001T   00000035+0000001653          1400 HD2090               2AZ
774949000774949               774949               170213GG     1400+00000+GG0000004382+0000004382+000000000+000000615+0000004997+0000000000+I40000004997+0000000000+Z
774949001774949903-000123     774949006925925909280SWEET GS MINI MALLOWS  0000002000+00000876+00000+0001T   00000876+0000001721          1400 HD2150               2AZ
774949002774949564-000011     774949006001023865892BUBBLE REFILL 350ml    0000001000+00002630+00000+0001T   00002630+0000001721          1400 HD2131               2AZ
774950000774950               774950               170213GG     1400+00000+GG0000009289+0000009289+000000000+000001301+0000010590+0000000000+I40000010590+0000000000+Z
774950001774950018-000136     774950006001023659026MUG OCC LOVE W/PLUSH   0000001000+00003507+00000+0001T   00003507+0000001723          1400 HD2515               2AZ
774950002774950077-000315     774950006003000181186GIFT-BAG 20x28cm MATT  0000001000+00001578+00000+0001T   00001578+0000001723          1400 HD2112               2AZ
774950003774950564-000012     774950006001023130075BUBBLE BOTTLE MAGIC    0000001000+00000700+00000+0001T   00000700+0000001723          1400 HD2131               2AZ
774950004774950006-000166-G   774950006003000607976BALLOONS HELIUM 6PC BLK0000001000+00001314+00000+0001T   00001314+0000001723          1400 HD2131               2AZ
774950005774950006-000166-H   774950006003000608096BALLOONS HELIUM 6PC WHT0000001000+00001314+00000+0001T   00001314+0000001723          1400 HD2131               2AZ
774950006774950077-000011-D   774950006001023808554TISSUE-WRAP WHITE 10PCE0000001000+00000876+00000+0001T   00000876+0000001723          1400 HD2112               2AZ
774951000774951               774951               170213GG     1400+00000+GG0000008679+0000008679+000000000+000001218+0000009890+0000000007+I20000000000+0000009890+Z
774951001774951036-000151     774951006001023810588COATHANGERS    PACK-10 0000003000+00002893+00000+0001T   00002893+0000001724          1400 HD2212               2AZ
774952000774952               774952               170213GG     1400+00000+GG0000004820+0000004820+000000000+000000675+0000005490+0000000005+I20000000000+0000005490+Z
774952001774952046-000012     774952006904708013062BATTERIES AA  CARD-OF-40000001000+00001314+00000+0001T   00001314+0000001724          1400 HD2312               2AZ
774952002774952903-000194     774952006009826020616SWT CHOC RP LOLLY 25G  0000001000+00001314+00000+0001T   00001314+0000001724          1400 HD2150               2AZ
774952003774952018-000170     774952006001023775528MUG OCC. LOVE 2PC MINI 0000001000+00002192+00000+0001T   00002192+0000001724          1400 HD2515               2AZ
774953000774953               774953               170213GG     1400+00000+GG0000006138+0000006138+000000000+000000860+0000006990+0000000008+I20000000000+0000006990+Z
774953001774953018-030000     774953006003000421060MUG OCCASIONS LOVE 2PCE0000001000+00004385+00000+0001T   00004385+0000001725          1400 HD2515               2AZ
774953002774953077-000289     774953006001023901996GIFT BOX 20x25x11cm    0000001000+00001753+00000+0001T   00001753+0000001725          1400 HD2112               2AZ
774954000774954               774954               170213GG     1400+00000+GG0000000035+0000000035+000000000+000000005+0000000040+0000000000+I20000000000+0000000040+Z
774954001774954112-116038     774954006009681820246TCS CARRIER BAG MIDI   0000001000+00000035+00000+0001T   00000035+0000001727          1400 HD2090               2AZ
774955000774955               774955               170213GG     1400+00000+GG0000010523+0000010523+000000000+000001474+0000011997+0000000000+I40000011997+0000000000+Z
774955001774955261-003342     774955006001023484895GUN RIFLE ACTION-TEAM  0000001000+00004385+00000+0001T   00004385+0000001728          1400 HD2710               2AZ
774955002774955365-004002     774955006001023657992KITCHEN-SET ACCESSORIES0000001000+00004385+00000+0001T   00004385+0000001728          1400 HD2725               2AZ
774955003774955077-000299-A   774955006003000670888GIFT-BAG PAPER JMB LOVE0000001000+00001753+00000+0001T   00001753+0000001728          1400 HD2112               2AZ
774956000774956               774956               170213GG     1400+00000+GG0000001400+0000001400+000000000+000000196+0000001590+0000000006+I20000000000+0000001590+Z
774956001774956903-000120     774956006002099001665SWEET GS ZILLIONS 50g  0000001000+00000700+00000+0001T   00000700+0000001732          1400 HD2150               2AZ
774956002774956903-000070     774956006001704001106SWT TOFFEE CREAMY 35g  0000001000+00000700+00000+0001T   00000700+0000001732          1400 HD2150               2AZ
774957000774957               774957               170213GG     1400+00000+GG0000004385+0000004385+000000000+000000614+0000004999+0000000000+I40000004999+0000000000+Z
774957001774957361-000249     774957006001023793706DOLL 29cm FASION  ASSTD0000001000+00004385+00000+0001T   00005262+0008191734          1400 HD2725               2AZ
774958000774958               774958               170213GG     1400+00000+GG0000003506+0000003506+000000000+000000492+0000003990+0000000008+I20000000000+0000003990+Z
774958001774958467-000002     774958006001023354518BEACH-SET PL 2PCE      0000002000+00001753+00000+0001T   00001753+0000001734          1400 HD2785               2AZ
774959000774959               774959               170213GG     1400+00000+GG0000005262+0000005262+000000000+000000737+0000005990+0000000009+I20000000000+0000005990+Z
774959001774959103-000474     774959006003000630363BAMBOO FLOWER BASKET   0000001000+00005262+00000+0001T   00005262+0000001739          1400 HD2300               2AZ
774960000774960               774960               170213GG     1400+00000+GG0000008329+0000008329+000000000+000001168+0000009490+0000000007+I20000000000+0000009490+Z
774960001774960018-005007     774960006003000515516MUG OCC. LOVE W/HEARTS 0000001000+00006139+00000+0001T   00006139+0000001740          1400 HD2515               2AZ
774960002774960080-000133     774960006003000535613CARD&ENV MINI ASTD DSGN0000001000+00000437+00000+0001T   00000437+0000001740          1400 HD2112               2AZ
774960003774960077-000520     774960006001023908254GIFT-BAG 25X32CM       0000001000+00001753+00000+0001T   00001753+0000001740          1400 HD2112               2AZ
774961000774961               774961               170213GG     1400+00000+GG0000001314+0000001314+000000000+000000184+0000001490+0000000008+I20000000000+0000001490+Z
774961001774961077-000407     774961006003000145096G/BAG PP 19X26X8CM     0000001000+00001314+00000+0001T   00001314+0000001740          1400 HD2112               2AZ
774962000774962               774962               170213GG     1400+00000+GG0000001753+0000001753+000000000+000000246+0000001990+0000000009+I20000000000+0000001990+Z
774962001774962039-000114     774962006001023524058CANDLE T/LITE RED 3.5CM0000001000+00001753+00000+0001T   00001753+0000001744          1400 HD2510               2AZ
774963000774963               774963               170213GG     1400+00000+GG0000010468+0000010468+000000000+000001466+0000011934+0000000000+I40000011934+0000000000+Z
774963001774963077-000322     774963006001023677532GIFT-BAG 18X23CM E/D FL0000001000+00001227+00000+0001T   00001227+0000001747          1400 HD2112               2AZ
774963002774963018-000136     774963006001023659026MUG OCC LOVE W/PLUSH   0000001000+00003507+00000+0001T   00003507+0000001747          1400 HD2515               2AZ
774963003774963368-000049     774963006003000536955PLUSH BEAR 15cm LOVE   0000001000+00004385+00000+0001T   00004385+0000001747          1400 HD2745               2AZ
774963004774963077-000310     774963006001023608635GIFT-BAG 18X23CM GLOSS 0000001000+00001314+00000+0001T   00001314+0000001747          1400 HD2112               2AZ
774963005774963112-116038     774963006009681820246TCS CARRIER BAG MIDI   0000001000+00000035+00000+0001T   00000035+0000001747          1400 HD2090               2AZ
774964000774964               774964               170213GG     1400+00000+GG0000002630+0000002630+000000000+000000369+0000002999+0000000000+I40000002999+0000000000+Z
774964001774964018-000129     774964006001023403353MUG OCC. LOVE V-SHAPE  0000001000+00002630+00000+0001T   00002630+0000001748          1400 HD2515               2AZ
774965000774965               774965               170213GG     1400+00000+GG0000002630+0000002630+000000000+000000369+0000002990+0000000009+I20000000000+0000002990+Z
774965001774965567-011352     774965006003000638048BK STICKER SPOOKY ACTIV0000001000+00002630+00000+0001T   00003507+0008141750          1400 HD2757               2AZ
774966000774966               774966               170213GG     1400+00000+GG0000003507+0000003507+000000000+000000491+0000003990+0000000008+I20000000000+0000003990+Z
774966001774966018-005009     774966006001023725608MUG W/PLUSH-BEAR LOVE  0000001000+00003507+00000+0001T   00003507+0000001750          1400 HD2515               2AZ
774967000774967               774967               170213GG     1400+00000+GG0000005960+0000005960+000000000+000000835+0000006790+0000000005+I20000000000+0000006790+Z
774967001774967018-005009     774967006001023725608MUG W/PLUSH-BEAR LOVE  0000001000+00003507+00000+0001T   00003507+0000001750          1400 HD2515               2AZ
774967002774967903-000087     774967006001704000161SWT SPECKLED-EGGS 50G  0000001000+00001139+00000+0001T   00001139+0000001750          1400 HD2150               2AZ
774967003774967903-000194     774967006009826020616SWT CHOC RP LOLLY 25G  0000001000+00001314+00000+0001T   00001314+0000001750          1400 HD2150               2AZ
774968000774968               774968               170213GG     1400+00000+GG0000001400+0000001400+000000000+000000196+0000001590+0000000006+I20000000000+0000001590+Z
774968001774968018-000177     774968006001023797513MUG MINI LOVE ASSTD    0000002000+00000700+00000+0001T   00000700+0000001752          1400 HD2515               2AZ
774969000774969               774969               170213GG     1400+00000+GG0000016222+0000016222+000000000+000002273+0000018490+0000000005+I20000000000+0000018490+Z
774969001774969077-000299     774969006003000395576G/BAG 32x25cm LRG LOVE 0000001000+00001490+00000+0001T   00001490+0000001756          1400 HD2112               2AZ
774969002774969018-019000     774969006003000557288MUG OCC. LOVE JUMBO    0000001000+00005262+00000+0001T   00005262+0000001756          1400 HD2515               2AZ
774969003774969080-000124     774969006003000297733CARD & ENV VALENTINES  0000001000+00001578+00000+0001T   00001578+0000001756          1400 HD2112               2AZ
774969004774969075-000325     774969006003000285495WALLET CANVAS ASSTD    0000001000+00005262+00000+0001T   00005262+0000001756          1400 HD2160               2AZ
774969005774969089-023424     774969006001023759740K/CHAIN W/BELT HOOK 28 0000001000+00002630+00000+0001T   00002630+0000001756          1400 HD2205               2AZ
774970000774970               774970               170213GG     1400+00000+GG0000001578+0000001578+000000000+000000221+0000001790+0000000009+I20000000000+0000001790+Z
774970001774970080-000124     774970006003000297733CARD & ENV VALENTINES  0000001000+00001578+00000+0001T   00001578+0000001757          1400 HD2112               2AZ
774971000774971               774971               170213GG     1400+00000+GG0000003506+0000003506+000000000+000000492+0000003990+0000000008+I20000000000+0000003990+Z
774971001774971467-000002     774971006001023354518BEACH-SET PL 2PCE      0000002000+00001753+00000+0001T   00001753+0000001758          1400 HD2785               2AZ
774972000774972               774972               170213GG     1400+00000+GG0000001314+0000001314+000000000+000000184+0000001490+0000000008+I20000000000+0000001490+Z
774972001774972006-000167-C   774972006003000516971BALLOONS PINK METALLIC 0000001000+00001314+00000+0001T   00001314+0000001759          1400 HD2131               2AZ
774973000774973               774973               170213GG     1400+00000+GG0000003507+0000003507+000000000+000000491+0000003990+0000000008+I20000000000+0000003990+Z
774973001774973018-000136     774973006001023659026MUG OCC LOVE W/PLUSH   0000001000+00003507+00000+0001T   00003507+0000001803          1400 HD2515               2AZ
774974000774974               774974               170213GG     1400+00000+GG0000000035+0000000035+000000000+000000005+0000000040+0000000000+I20000000000+0000000040+Z
774974001774974112-116038     774974006009681820246TCS CARRIER BAG MIDI   0000001000+00000035+00000+0001T   00000035+0000001803          1400 HD2090               2AZ
774975000774975               774975               170213GG     1400+00000+GG0000022707+0000022707+000000000+000003180+0000025887+0000000000+I40000025887+0000000000+Z
774975001774975018-005009     774975006001023725608MUG W/PLUSH-BEAR LOVE  0000002000+00003507+00000+0001T   00003507+0000001805          1400 HD2515               2AZ
774975002774975018-000136     774975006001023659026MUG OCC LOVE W/PLUSH   0000002000+00003507+00000+0001T   00003507+0000001805          1400 HD2515               2AZ
774975003774975077-000299     774975006003000395576G/BAG 32x25cm LRG LOVE 0000002000+00001490+00000+0001T   00001490+0000001805          1400 HD2112               2AZ
774975004774975366-000301     774975006003000421077DRESSUP TIARA & EARRING0000001000+00003507+00000+0001T   00003507+0000001805          1400 HD2131               2AZ
774975005774975006-000789     774975006001023148612CROWN BOY              0000001000+00002192+00000+0001T   00002192+0000001805          1400 HD2131               2AZ
774976000774976               774976               170213GG     1400+00000+GG0000021639+0000021639+000000000+000003032+0000024671+0000000000+I40000024671+0000000000+Z
774976001774976159-000654     774976006003000294770BATH-SPONGE MESH PK3   0000001000+00002630+00000+0001T   00002630+0000001812          1400 HD2200               2AZ
774976002774976036-000151     774976006001023810588COATHANGERS    PACK-10 0000001000+00002893+00000+0001T   00002893+0000001812          1400 HD2212               2AZ
774976003774976159-000801     774976006001023999832BATHMAT 36x59cm ASST   0000001000+00005700+00000+0001T   00005700+0000001812          1400 HD2200               2AZ
774976004774976112-116038     774976006009681820246TCS CARRIER BAG MIDI   0000001000+00000035+00000+0001T   00000035+0000001812          1400 HD2090               2AZ
774976005774976018-000136     774976006001023659026MUG OCC LOVE W/PLUSH   0000001000+00003507+00000+0001T   00003507+0000001812          1400 HD2515               2AZ
774976006774976112-116038     774976006009681820246TCS CARRIER BAG MIDI   0000001000+00000035+00000+0001T   00000035+0000001812          1400 HD2090               2AZ
774976007774976024-000105     774976006001023902399L/PAN X-LRG 24x13x6cm  0000001000+00006139+00000+0001T   00006139+0000001812          1400 HD2300               2AZ
774976008774976018-000177     774976006001023797513MUG MINI LOVE ASSTD    0000001000+00000700+00000+0001T   00000700+0000001812          1400 HD2515               2AZ
774977000774977               774977               170213GG     1400+00000+GG0000013240+0000013240+000000000+000001855+0000015095+0000000000+I40000015095+0000000000+Z
774977001774977467-000020     774977006001023755896B/SET 21cm BUCKET+ACCES0000001000+00008771+00000+0001T   00008771+0000001815          1400 HD2785               2AZ
774977002774977018-000177     774977006001023797513MUG MINI LOVE ASSTD    0000001000+00000700+00000+0001T   00000700+0000001815          1400 HD2515               2AZ
774977003774977903-000599     774977006003000608119SWEET BALLOONPUMP 18cm 0000001000+00002630+00000+0001T   00002630+0000001815          1400 HD2150               2AZ
774977004774977565-000071     774977006003000643387NOVELTY WIND UP CHATTER0000001000+00001139+00000+0001T   00001139+0000001815          1400 HD2745               2AZ
A17021300                                          09200245GGSLAVE 2                       HD23IC
A17021301                                          09270876GGSLAVE 2                       HD23IC
A17021302                                          09583518GGSLAVE 2                       HD23IC
M17021391                              CASH        GGSLAVE 2                       Z-REPORT No.   652TOTAL (Sales - Refunds)           9093.23       CASH TO BE BANKED                 3525.80       DEBIT CARDS                          0.00       CREDIT CARDS                      5557.43       Z-READING                         9083.23       AIRTIME DEBIT CARD SALES             0.00       AIRTIME CARD SALES                   0.00       OVERS/UNDERS                         0.00       AIRTIME CASH SALES                   0.00       GIFT CARDS                           0.00       GIFT CARD CASH SALES                 0.00       MAINTENANCE+REPAIR-EQP              10.00       T O T A L  CASH PAYOUTS             10.00                                                                                                                                                                                                                                                                                                      Z
M17021392                              CASH        GGABSENT                                                                                                                                                                                          ANNUAL LEAVE                                                                                                                                                                                    DAY OFF                                                                                                                                                                                         COMMENTS                                                                                                                                                                                                                                                                                                                                                                                       Z
Y17021300                                          GG00000000802520+000104
ZGG17021319413 SLAVE 2      SALES DATA                     NEXT INVOICE NO.  774978 0652
F094727261-004007         1702040921150000082ICSLAVE 2
F094727366-002694         1702040921150000082ICSLAVE 2
X GG Slave 2 First invoice 774873 170213 Last invoice 774977 170213 Next invoice 774978 Total number of records 000000435 clbackup completed 19:41:17
