690161000690161               690161               170213GI     1400+00000+GI0000003507+0000003507+000000000+000000491+0000003990+0000000008+I20000000000+0000003990+Z
690161001690161018-005009     690161006001023725608MUG W/PLUSH-BEAR LOVE  0000001000+00003507+00000+0001T   00003507+0000001012          1400 JK6515               2AZ
690162000690162               690162               170213GI     1400+00000+GI0000001139+0000001139+000000000+000000160+0000001290+0000000009+I20000000000+0000001290+Z
690162001690162903-000087     690162006001704000161SWT SPECKLED-EGGS 50G  0000001000+00001139+00000+0001T   00001139+0000001012          1400 JK6150               2AZ
690163000690163               690163               170213GI     1400+00000+GI0000016255+0000016255+000000000+000002279+0000018534+0000000000+I40000018534+0000000000+Z
690163001690163159-000647     690163006001023995551BRISTLE-BRUSH WDN HNDLE0000001000+00004823+00000+0001T   00004823+0000001040          1400 JK6200               2AZ
690163002690163206-000220     690163006003000631704EGG TIMER COLOUR-CHANGE0000001000+00002630+00000+0001T   00002630+0000001040          1400 JK6321               2AZ
690163003690163206-000620     690163006003000631797BACK SCRATCHER EXTEND  0000001000+00002630+00000+0001T   00002630+0000001040          1400 JK6321               2AZ
690163004690163206-000245     690163006003000680818BOTTLE CLEANER PLASTIC 0000001000+00002192+00000+0001T   00002192+0000001040          1400 JK6321               2AZ
690163005690163050-000363-Z   690163006001023475282PADLOCK IRON 32mm CARD 0000001000+00002192+00000+0001T   00002192+0000001040          1400 JK6855               2AZ
690163006690163028-001015     690163006001023761439CUTLERY-SET 12PCE ASSTD0000001000+00001753+00000+0001T   00002630+0008191040          1400 JK6305               2AZ
690163007690163112-116038     690163006009681820246TCS CARRIER BAG MIDI   0000001000+00000035+00000+0001T   00000035+0000001040          1400 JK6090               2AZ
690164000690164               690164               170213GI     1400+00000+GI0000005610+0000005610+000000000+000000787+0000006390+0000000007+I20000000000+0000006390+Z
690164001690164077-000235     690164006003000160211GIFT-RIBBON ROLL METALC0000001000+00002630+00000+0001T   00002630+0000001051          1400 JK6112               2AZ
690164002690164077-000299     690164006003000395576G/BAG 32x25cm LRG LOVE 0000002000+00001490+00000+0001T   00001490+0000001051          1400 JK6112               2AZ
690165000690165               690165               170213GI     1400+00000+GI0000012924+0000012924+000000000+000001811+0000014730+0000000005+I20000000000+0000014730+Z
690165001690165002-000685     690165006001023693785K/TOOL P/MASHER H/HOUSE0000001000+00002192+00000+0001T   00002192+0000001054          1400 JK6300               2AZ
690165002690165133-000011     690165006001023905246CLOTH FIBRE 4-PACK BOX 0000001000+00004385+00000+0001T   00004385+0000001054          1400 JK6212               2AZ
690165003690165002-000740     690165006001023763945GRATER 4-WAY WHITE     0000001000+00002192+00000+0001T   00002192+0000001054          1400 JK6300               2AZ
690165004690165002-000884     690165006001023769589CAN-OPENER BUTTERFLY   0000001000+00002630+00000+0001T   00002630+0000001054          1400 JK6300               2AZ
690165005690165002-000802     690165006003000426515PEELER STAINLESS STEEL 0000001000+00001490+00000+0001T   00001490+0000001054          1400 JK6300               2AZ
690165006690165112-116038     690165006009681820246TCS CARRIER BAG MIDI   0000001000+00000035+00000+0001T   00000035+0000001054          1400 JK6090               2AZ
690166000690166               690166               170213GI     1400+00000+GI0000001578+0000001578+000000000+000000221+0000001790+0000000009+I20000000000+0000001790+Z
690166001690166024-000036     690166006001023477002MEASURING-JUG 500ml    0000001000+00001578+00000+0001T   00001578+0000001055          1400 JK6300               2AZ
690167000690167               690167               170213GI     1400+00000+GI0000006524+0000006524+000000000+000000914+0000007430+0000000008+I20000000000+0000007430+Z
690167001690167033-000013     690167006001023567215PILL-REMINDER PL       0000001000+00001227+00000+0001T   00001227+0000001109          1400 JK6200               2AZ
690167002690167112-116038     690167006009681820246TCS CARRIER BAG MIDI   0000001000+00000035+00000+0001T   00000035+0000001109          1400 JK6090               2AZ
690167003690167133-000046     690167006003000366446POT-HOLDER-SET 3PCE    0000001000+00005262+00000+0001T   00005262+0000001109          1400 JK6212               2AZ
690168000690168               690168               170213GI     1400+00000+GI0000007269+0000007269+000000000+000001020+0000008280+0000000009+I20000000000+0000008280+Z
690168001690168077-000311     690168006001023608666GIFT-BAG 11X14CM GLOSS 0000003000+00000613+00000+0001T   00000613+0000001111          1400 JK6112               2AZ
690168002690168077-000314     690168006003000181148GIFT-BAG 11X14CM MATT  0000002000+00000876+00000+0001T   00000876+0000001111          1400 JK6112               2AZ
690168003690168077-000311     690168006001023608666GIFT-BAG 11X14CM GLOSS 0000006000+00000613+00000+0001T   00000613+0000001111          1400 JK6112               2AZ
690169000690169               690169               170213GI     1400+00000+GI0000017146+0000017146+000000000+000002403+0000019549+0000000000+I40000019549+0000000000+Z
690169001690169200-000230     690169006008766126990BAKEPANS 5PC RND 23x3cm0000001000+00002630+00000+0001T   00002630+0000001118          1400 JK6214               2AZ
690169002690169200-000205     690169006008766127027BAKEPANS 36PCE (PIE)   0000001000+00003507+00000+0001T   00003507+0000001118          1400 JK6214               2AZ
690169003690169112-116069     690169006009681820277TCS CARRIER BAG JUMBO  0000001000+00000048+00000+0001T   00000048+0000001118          1400 JK6090               2AZ
690169004690169567-011424     690169006003000641468BK COLOURING THERAPY A40000001000+00006139+00000+0001T   00006139+0000001118          1400 JK6757               2AZ
690169005690169028-000796-A   690169006001023897152SKEWERS BAMBOO 100P 4mm0000001000+00001753+00000+0001T   00001753+0000001118          1400 JK6305               2AZ
690169006690169024-000040     690169006001023332509MEASURING-JUG 2.00L    0000001000+00003069+00000+0001T   00003069+0000001118          1400 JK6300               2AZ
690170000690170               690170               170213GI     1400+00000+GI0000048704+0000048704+000000000+000006826+0000055530+0000000000+I40000055530+0000000000+Z
690170001690170024-000116     690170006001023422286N/STICK C/PAN SQUARE   0000009000+00004823+00000+0001T   00004823+0000001125          1400 JK63001IC            2AZ
690170002690170112-116038     690170006009681820246TCS CARRIER BAG MIDI   0000001000+00000035+00000+0001T   00000035+0000001125          1400 JK6090               2AZ
690170003690170024-000165-D   690170006003000674435N/STICK SQUARE PAN     0000001000+00005262+00000+0001T   00005262+0000001125          1400 JK6300               2AZ
690171000690171               690171               170213GI     1400+00000+GI0000000876+0000000876+000000000+000000123+0000000990+0000000009+I20000000000+0000000990+Z
690171001690171903-000494     690171006001704009911SWT GUMMY TEENY TEDDIES0000001000+00000876+00000+0001T   00000876+0000001126          1400 JK6150               2AZ
690172000690172               690172               170213GI     1400+00000+GI0000004385+0000004385+000000000+000000614+0000004990+0000000009+I20000000000+0000004990+Z
690172001690172006-000190     690172006003000685530BALLOONS LOVE 81x91cm  0000001000+00004385+00000+0001T   00004385+0000001127          1400 JK6131               2AZ
690173000690173               690173               170213GI     1400+00000+GI0000005941+0000005941+000000000+000000838+0000006779+0000000000+I40000006779+0000000000+Z
690173001690173080-000133-A   690173006003000647019MINI VALENTINES CARD   0000001000+00000437+00000+0001T   00000437+0000001130          1400 JK6112               2AZ
690173002690173080-000133     690173006003000535613CARD&ENV MINI ASTD DSGN0000002000+00000437+00000+0001T   00000437+0000001130          1400 JK6112               2AZ
690173003690173903-000194     690173006009826020616SWT CHOC RP LOLLY 25G  0000002000+00001314+00000+0001T   00001314+0000001130          1400 JK6150               2AZ
690173004690173903-000200     690173006009826020234SWT CHOC RP CHOCO 23G  0000001000+00000788+00000+0001T   00000788+0000001130          1400 JK6150               2AZ
690173005690173903-000183     690173006003000451043SWT LB HEART LOLLY     0000003000+00000393+00000+0001T   00000393+0000001130          1400 JK6150               2AZ
690173006690173112-116038     690173006009681820246TCS CARRIER BAG MIDI   0000001000+00000035+00000+0001T   00000035+0000001130          1400 JK6090               2AZ
690174000690174               690174               170213GI     1400+00000+GI0000000876+0000000876+000000000+000000123+0000000999+0000000000+I40000000999+0000000000+Z
690174001690174077-000011-D   690174006001023808554TISSUE-WRAP WHITE 10PCE0000001000+00000876+00000+0001T   00000876+0000001132          1400 JK6112               2AZ
690175000690175               690175               170213GI     1400+00000+GI0000010523+0000010523+000000000+000001474+0000011997+0000000000+I40000011997+0000000000+Z
690175001690175079-000335     690175006003000670550THERAPY P/CRAYONS 30   0000001000+00007016+00000+0001T   00007016+0000001142          1400 JK6130               2AZ
690175002690175567-011344     690175006003000630714BK COLOURING THERAPY 640000001000+00003507+00000+0001T   00003507+0000001142          1400 JK6757               2AZ
690176000690176               690176               170213GI     1400+00000+GI0000068496+0000068496+000000000+000009597+0000078093+0000000000+I40000078093+0000000000+Z
690176001690176080-000127     690176006003000424351VALENTINES DAY 36x24CM 0000001000+00002192+00000+0001T   00002192+0000001153          1400 JK6112               2AZ
690176002690176112-116069     690176006009681820277TCS CARRIER BAG JUMBO  0000001000+00000048+00000+0001T   00000048+0000001153          1400 JK6090               2AZ
690176003690176200-000307     690176006003000439041OVEN BASKET MESH TRAY  0000002000+00002630+00000+0001T   00003507+0008171153          1400 JK6214               2AZ
690176004690176072-020320     690176006003000603343PET DOG TOY TUG-ROPE   0000001000+00002630+00000+0001T   00002630+0000001153          1400 JK6870               2AZ
690176005690176072-020311     690176006003000494132PET DOG TOY VINYL BALL 0000001000+00003069+00000+0001T   00003069+0000001153          1400 JK6870               2AZ
690176006690176019-071594     690176006003000505579PEBBLES GLS 250g RED   0000001000+00002630+00000+0001T   00002630+0000001153          1400 JK6510               2AZ
690176007690176072-020262     690176006003000305254PET DOG-CHEW TYRE LARGE0000001000+00004385+00000+0001T   00004385+0000001153          1400 JK6870               2AZ
690176008690176019-071595     690176006001023756428PEBBLES 250g SKY-BLUE  0000001000+00001753+00000+0001T   00001753+0000001153          1400 JK6510               2AZ
690176009690176019-071600     690176006001023771971RIVER-STONES 1kg MIXED 0000001000+00002630+00000+0001T   00002630+0000001153          1400 JK6510               2AZ
690176010690176019-071603     690176006001023772039RIVER-STONES 1kg PEACH 0000001000+00002630+00000+0001T   00002630+0000001153          1400 JK6510               2AZ
690176011690176030-004070     690176006003000674381P/WDN SIGN 12X20CM ASS 0000001000+00003507+00000+0001T   00003507+0000001153          1400 JK6505               2AZ
690176012690176112-116069     690176006009681820277TCS CARRIER BAG JUMBO  0000001000+00000048+00000+0001T   00000048+0000001153          1400 JK6090               2AZ
690176013690176496-058507     690176000078257585076INTEX POOL-GAME GOAL   0000001000+00021051+00000+0001T   00021051+0000001153          1400 JK6787               2AZ
690176014690176001-091415     690176006003000329113W/GLS OCC. LOVE 2PC 2800000001000+00008771+00000+0001T   00009648+0006471153          1400 JK6515               2AZ
690176015690176018-005009     690176006001023725608MUG W/PLUSH-BEAR LOVE  0000001000+00003507+00000+0001T   00003507+0000001153          1400 JK6515               2AZ
690176016690176463-000117     690176006003000677849SWIM-GOGGLES IN CASE   0000001000+00004385+00000+0001T   00004385+0000001153          1400 JK6785               2AZ
690177000690177               690177               170213GI     1400+00000+GI0000000174+0000000174+000000000+000000025+0000000190+0000000009+I20000000000+0000000190+Z
690177001690177007-000407     690177006009635831717BK JOTTER A5 48-PG F/M 0000001000+00000174+00000+0001T   00000174+0000001154          1400 JK6130               2AZ
690178000690178               690178               170213GI     1400+00000+GI0000003366+0000003366+000000000+000000472+0000003830+0000000008+I20000000000+0000003830+Z
690178001690178018-000127     690178006001023380289MUG OCC STRAIGHT LOVE  0000001000+00001578+00000+0001T   00001753+0006471159          1400 JK6515               2AZ
690178002690178031-005820     690178006001023667816P/FRAME-CLIP 15X20CM   0000001000+00001753+00000+0001T   00001753+0000001159          1400 JK6510               2AZ
690178003690178112-116038     690178006009681820246TCS CARRIER BAG MIDI   0000001000+00000035+00000+0001T   00000035+0000001159          1400 JK6090               2AZ
690179000690179               690179               170213GI     1400+00000+GI0000014687+0000014687+000000000+000002059+0000016740+0000000006+I20000000000+0000016740+Z
690179001690179368-000265     690179006001023750914PLUSH BEAR 23CM ASSTD C0000001000+00006139+00000+0001T   00006139+0000001200          1400 JK6745               2AZ
690179002690179304-001011     690179006001023806727FLWR ROSE RED W/BEAR   0000001000+00000613+00000+0001T   00000788+0006471200          1400 JK6510               2AZ
690179003690179077-000010-U   690179006001023168863CREPE-PAPER CERISE-PINK0000001000+00000788+00000+0001T   00000788+0000001200          1400 JK6112               2AZ
690179004690179903-000200     690179006009826020234SWT CHOC RP CHOCO 23G  0000001000+00000788+00000+0001T   00000788+0000001200          1400 JK6150               2AZ
690179005690179903-000194     690179006009826020616SWT CHOC RP LOLLY 25G  0000001000+00001314+00000+0001T   00001314+0000001200          1400 JK6150               2AZ
690179006690179077-000299     690179006003000395576G/BAG 32x25cm LRG LOVE 0000001000+00001490+00000+0001T   00001490+0000001200          1400 JK6112               2AZ
690179007690179018-005009     690179006001023725608MUG W/PLUSH-BEAR LOVE  0000001000+00003507+00000+0001T   00003507+0000001200          1400 JK6515               2AZ
690179008690179112-116069     690179006009681820277TCS CARRIER BAG JUMBO  0000001000+00000048+00000+0001T   00000048+0000001200          1400 JK6090               2AZ
690180000690180               690180               170213GI     1400+00000+GI0000008240+0000008240+000000000+000001155+0000009395+0000000000+I40000009395+0000000000+Z
690180001690180077-000303     690180006001023593757GIFT-BAG PAPER MED     0000002000+00001578+00000+0001T   00001578+0000001202          1400 JK6112               2AZ
690180002690180077-000351     690180006003000139033GIFT-BAG 18X23CM E/D P 0000002000+00001753+00000+0001T   00001753+0000001202          1400 JK6112               2AZ
690180003690180362-000302     690180006003000095469HAIR CLIP LRG GIRLS    0000001000+00001578+00000+0001T   00001578+0000001202          1400 JK6160               2AZ
690181000690181               690181               170213GI     1400+00000+GI0000003069+0000003069+000000000+000000430+0000003490+0000000009+I20000000000+0000003490+Z
690181001690181301-085008     690181006003000673933ORN OCC.LOVE TINSEL HRT0000001000+00003069+00000+0001T   00003069+0000001212          1400 JK6505               2AZ
690182000690182               690182               170213GI     1400+00000+GI0000011437+0000011437+000000000+000001602+0000013039+0000000000+I40000013039+0000000000+Z
690182001690182368-000181     690182006003000668052PLUSH BUNNY 27cm       0000001000+00011402+00000+0001T   00011402+0000001215          1400 JK6745               2AZ
690182002690182112-116038     690182006009681820246TCS CARRIER BAG MIDI   0000001000+00000035+00000+0001T   00000035+0000001215          1400 JK6090               2AZ
690183000690183               690183               170213GI     1400+00000+GI0000005639+0000005639+000000000+000000791+0000006430+0000000000+I20000000000+0000006430+Z
690183001690183112-116038     690183006009681820246TCS CARRIER BAG MIDI   0000001000+00000035+00000+0001T   00000035+0000001217          1400 JK6090               2AZ
690183002690183903-000194     690183006009826020616SWT CHOC RP LOLLY 25G  0000002000+00001314+00000+0001T   00001314+0000001217          1400 JK6150               2AZ
690183003690183018-000177     690183006001023797513MUG MINI LOVE ASSTD    0000002000+00000700+00000+0001T   00000700+0000001217          1400 JK6515               2AZ
690183004690183903-000200     690183006009826020234SWT CHOC RP CHOCO 23G  0000002000+00000788+00000+0001T   00000788+0000001217          1400 JK6150               2AZ
690184000690184               690184               170213GI     1400+00000+GI0000025481+0000025481+000000000+000003569+0000029050+0000000000+I20000000000+0000029050+Z
690184001690184112-116069     690184006009681820277TCS CARRIER BAG JUMBO  0000001000+00000048+00000+0001T   00000048+0000001228          1400 JK6090               2AZ
690184002690184560-000250     690184006001023831040ANIMALS STRETCHABLE    0000001000+00004385+00000+0001T   00004385+0000001228          1400 JK6745               2AZ
690184003690184266-005280     690184006003000656691BOYS PLAYSET SOLDIERS  0000001000+00003507+00000+0001T   00003507+0000001228          1400 JK6710               2AZ
690184004690184266-005279     690184006003000657094BOYS PLAYSET FIG 22 PC 0000001000+00005262+00000+0001T   00005262+0000001228          1400 JK6710               2AZ
690184005690184266-008057     690184006001023791597COMBAT VEHICLES+ACCESS 0000001000+00012279+00000+0001T   00012279+0000001228          1400 JK6710               2AZ
690185000690185               690185               170213GI     1400+00000+GI0000002665+0000002665+000000000+000000374+0000003030+0000000009+I20000000000+0000003030+Z
690185001690185051-006100     690185006003000267170GARDEN KID TOOLSET 3PCE0000001000+00002630+00000+0001T   00002630+0000001230          1400 JK6820               2AZ
690185002690185112-116038     690185006009681820246TCS CARRIER BAG MIDI   0000001000+00000035+00000+0001T   00000035+0000001230          1400 JK6090               2AZ
690186000690186               690186               170213GI     1400+00000+GI0000002102+0000002102+000000000+000000296+0000002390+0000000008+I20000000000+0000002390+Z
690186001690186903-002850     690186000000087108262MENTOS ROLL FRUIT      0000002000+00001051+00000+0001T   00001051+0000001230          1400 JK6150               2AZ
690187000690187               690187               170213GI     1400+00000+GI0000005262+0000005262+000000000+000000737+0000005990+0000000009+I20000000000+0000005990+Z
690187001690187490-044669     690187000078257446698INTEX BOB BAG 3-D      0000001000+00005262+00000+0001T   00005262+0000001233          1400 JK6787               2AZ
690188000690188               690188               170213GI     1400+00000+GI0000008592+0000008592+000000000+000001203+0000009790+0000000005+I20000000000+0000009790+Z
690188001690188018-005009     690188006001023725608MUG W/PLUSH-BEAR LOVE  0000002000+00003507+00000+0001T   00003507+0000001242          1400 JK6515               2AZ
690188002690188077-000303     690188006001023593757GIFT-BAG PAPER MED     0000001000+00001578+00000+0001T   00001578+0000001242          1400 JK6112               2AZ
690189000690189               690189               170213GI     1400+00000+GI0000008810+0000008810+000000000+000001237+0000010040+0000000007+I20000000000+0000010040+Z
690189001690189903-000482     690189006001704001397SWT SOFT-MINTS 60G     0000001000+00000876+00000+0001T   00000876+0000001247          1400 JK6150               2AZ
690189002690189078-000025     690189008887013700064SUPERGLUE 3g 1PCE CARD 0000001000+00000876+00000+0001T   00000876+0000001247          1400 JK6810               2AZ
690189003690189024-091102-B   690189006003000111725BAKING-CUP MUFFIN 40PCE0000001000+00002630+00000+0001T   00002630+0000001247          1400 JK6300               2AZ
690189004690189112-116069     690189006009681820277TCS CARRIER BAG JUMBO  0000001000+00000048+00000+0001T   00000048+0000001247          1400 JK6090               2AZ
690189005690189204-000019     690189006003000677474MEMO HOLDERS THERMOMETE0000005000+00000876+00000+0001T   00000876+0000001247          1400 JK6300               2AZ
690190000690190               690190               170213GI     1400+00000+GI0000013154+0000013154+000000000+000001843+0000014990+0000000007+I20000000000+0000014990+Z
690190001690190018-030000     690190006003000421060MUG OCCASIONS LOVE 2PCE0000001000+00004385+00000+0001T   00004385+0000001247          1400 JK6515               2AZ
690190002690190469-000026     690190006001023878717B/BLOCKS 80PC CARS ASST0000001000+00007016+00000+0001T   00007016+0000001247          1400 JK6755               2AZ
690190003690190077-000299-A   690190006003000670888GIFT-BAG PAPER JMB LOVE0000001000+00001753+00000+0001T   00001753+0000001247          1400 JK6112               2AZ
690191000690191               690191               170213GI     1400+00000+GI0000001313+0000001313+000000000+000000185+0000001490+0000000008+I20000000000+0000001490+Z
690191001690191077-000151     690191006008766114676GIFT-WRAP C/PHANE ASSTD0000001000+00000876+00000+0001T   00000876+0000001248          1400 JK6112               2AZ
690191002690191080-000133-A   690191006003000647019MINI VALENTINES CARD   0000001000+00000437+00000+0001T   00000437+0000001248          1400 JK6112               2AZ
690192000690192               690192               170213GI     1400+00000+GI0000007012+0000007012+000000000+000000984+0000007990+0000000006+I20000000000+0000007990+Z
690192001690192903-000612     690192006003000617449SWT TRUMPET 20cm       0000003000+00001753+00000+0001T   00001753+0000001250          1400 JK6150               2AZ
690192002690192065-006041     690192006001023712974TAMBOURINE 15cm P/BAND 0000001000+00001753+00000+0001T   00001753+0000001250          1400 JK6745               2AZ
690193000690193               690193               170213GI     1400+00000+GI0000008331+0000008331+000000000+000001167+0000009490+0000000008+I20000000000+0000009490+Z
690193001690193035-000001     690193006002596010566UMBRELLA LADIES W/MINI 0000001000+00006139+00000+0001T   00006139+0000001305          1400 JK6205               2AZ
690193002690193071-001346     690193006001023912985HIGHLIGHTERS 4PCE CARD 0000001000+00002192+00000+0001T   00002192+0000001305          1400 JK6130               2AZ
690194000690194               690194               170213GI     1400+00000+GI0000002630+0000002630+000000000+000000369+0000002990+0000000009+I20000000000+0000002990+Z
690194001690194466-000515     690194006001023477408BALLS TENNIS BAG-OF-3  0000001000+00002630+00000+0001T   00002630+0000001321          1400 JY7785               2AZ
690195000690195               690195               170213GI     1400+00000+GI0000010959+0000010959+000000000+000001536+0000012495+0000000000+I40000012495+0000000000+Z
690195001690195368-000265     690195006001023750914PLUSH BEAR 23CM ASSTD C0000001000+00006139+00000+0001T   00006139+0000001332          1400 JK6745               2AZ
690195002690195006-000167-C   690195006003000516971BALLOONS PINK METALLIC 0000001000+00001314+00000+0001T   00001314+0000001332          1400 JK6131               2AZ
690195003690195006-000804     690195006003000574445STREAMERS 6-ROLLS 2.5cm0000001000+00001753+00000+0001T   00001753+0000001332          1400 JK6131               2AZ
690195004690195301-085002     690195006003000420704ORN OCC. LOVE BELL ASST0000001000+00001753+00000+0001T   00002630+0008121332          1400 JK6505               2AZ
690196000690196               690196               170213GI     1400+00000+GI0000000876+0000000876+000000000+000000123+0000000990+0000000009+I20000000000+0000000990+Z
690196001690196903-000482     690196006001704001397SWT SOFT-MINTS 60G     0000001000+00000876+00000+0001T   00000876+0000001358          1400 JK6150               2AZ
690197000690197               690197               170213GI     1400+00000+GI0000006165+0000006165+000000000+000000865+0000007030+0000000000+I20000000000+0000007030+Z
690197001690197304-001011     690197006001023806727FLWR ROSE RED W/BEAR   0000010000+00000613+00000+0001T   00000788+0006471402          1400 JK6510               2AZ
690197002690197112-116038     690197006009681820246TCS CARRIER BAG MIDI   0000001000+00000035+00000+0001T   00000035+0000001402          1400 JK6090               2AZ
690198000690198               690198               170213GI     1400+00000+GI0000004997+0000004997+000000000+000000700+0000005690+0000000007+I20000000000+0000005690+Z
690198001690198031-000923     690198006001023669933P/FRAME BLK W/WORDS    0000001000+00003507+00000+0001T   00003507+0000001525          1400 JK6510               2AZ
690198002690198077-000299     690198006003000395576G/BAG 32x25cm LRG LOVE 0000001000+00001490+00000+0001T   00001490+0000001525          1400 JK6112               2AZ
690199000690199               690199               170213GI     1400+00000+GI0000001753+0000001753+000000000+000000246+0000001990+0000000009+I20000000000+0000001990+Z
690199001690199077-000289     690199006001023901996GIFT BOX 20x25x11cm    0000001000+00001753+00000+0001T   00001753+0000001528          1400 JK6112               2AZ
690200000690200               690200               170213GI     1400+00000+GI0000010203+0000010203+000000000+000001431+0000011630+0000000004+I20000000000+0000011630+Z
690200001690200903-000087     690200006001704000161SWT SPECKLED-EGGS 50G  0000001000+00001139+00000+0001T   00001139+0000001528          1400 JK6150               2AZ
690200002690200903-000521     690200006001704009652SWT GUMMY SOFT GUMS    0000001000+00000876+00000+0001T   00000876+0000001528          1400 JK6150               2AZ
690200003690200162-093212     690200006001492932125#TAG ER 6PK SET-BALL   0000001000+00004385+00000+0001T   00004385+0000001528          1400 JK6160               2AZ
690200004690200903-000123     690200006925925909280SWEET GS MINI MALLOWS  0000001000+00000876+00000+0001T   00000876+0000001528          1400 JK6150               2AZ
690200005690200903-000137     690200006002099004130SWEET GS JELLY BEAN 60G0000001000+00000788+00000+0001T   00000788+0000001528          1400 JK6150               2AZ
690200006690200903-000095     690200006001704011495SWT SPECKLED-EGGS 100G 0000001000+00002104+00000+0001T   00002104+0000001528          1400 JK6150               2AZ
690200007690200112-116038     690200006009681820246TCS CARRIER BAG MIDI   0000001000+00000035+00000+0001T   00000035+0000001528          1400 JK6090               2AZ
690201000690201               690201               170213GI     1400+00000+GI0000001752+0000001752+000000000+000000246+0000001990+0000000008+I20000000000+0000001990+Z
690201001690201903-000861     690201005010478430822SWT LOVE HEARTS SML    0000001000+00000876+00000+0001T   00000876+0000001552          1400 JK6150               2AZ
690201002690201903-003051     690201008024431008703SWT CHOCO PARTY 25G    0000001000+00000876+00000+0001T   00000876+0000001552          1400 JK6150               2AZ
690202000690202               690202               170213GI     1400+00000+GI0000003507+0000003507+000000000+000000491+0000003990+0000000008+I20000000000+0000003990+Z
690202001690202018-005009     690202006001023725608MUG W/PLUSH-BEAR LOVE  0000001000+00003507+00000+0001T   00003507+0000001644          1400 JK6515               2AZ
690203000690203               690203               170213GI     1400+00000+GI0000001314+0000001314+000000000+000000184+0000001490+0000000008+I20000000000+0000001490+Z
690203001690203077-000407     690203006003000145096G/BAG PP 19X26X8CM     0000001000+00001314+00000+0001T   00001314+0000001653          1400 JK6112               2AZ
690204000690204               690204               170213GI     1400+00000+GI0000004120+0000004120+000000000+000000577+0000004697+0000000000+I40000004697+0000000000+Z
690204001690204200-000065     690204006001023323675DRINKING-STRAWS 38PCE  0000001000+00000613+00000+0001T   00000613+0000001655          1400 JK6214               2AZ
690204002690204071-005667     690204006003000153060STAPLER SET MTL W/STPLS0000001000+00003507+00000+0001T   00003507+0000001655          1400 JK6130               2AZ
690205000690205               690205               170213GI     1400+00000+GI0000002192+0000002192+000000000+000000307+0000002490+0000000009+I20000000000+0000002490+Z
690205001690205046-000012-A   690205006003000208296BATTERIES H/POWER SZ:AA0000001000+00002192+00000+0001T   00002192+0000001655          1400 JK6312               2AZ
690206000690206               690206               170213GI     1400+00000+GI0000006837+0000006837+000000000+000000958+0000007790+0000000005+I20000000000+0000007790+Z
690206001690206368-000100     690206006001023474742PLUSH MD BEAR 12cm     0000001000+00002630+00000+0001T   00002630+0000001656          1400 JK6745               2AZ
690206002690206018-000177     690206006001023797513MUG MINI LOVE ASSTD    0000001000+00000700+00000+0001T   00000700+0000001656          1400 JK6515               2AZ
690206003690206018-005009     690206006001023725608MUG W/PLUSH-BEAR LOVE  0000001000+00003507+00000+0001T   00003507+0000001656          1400 JK6515               2AZ
690207000690207               690207               170213GI     1400+00000+GI0000002804+0000002804+000000000+000000394+0000003190+0000000008+I20000000000+0000003190+Z
690207001690207304-001204     690207006001023737984FLOWER OCC. TEDDY/ROSES0000002000+00001402+00000+0001T   00001490+0006471724          1400 JK6510               2AZ
690208000690208               690208               170213GI     1400+00000+GI0000001578+0000001578+000000000+000000221+0000001790+0000000009+I20000000000+0000001790+Z
690208001690208566-001234     690208006003000217793STICKERS LASER ASSTD   0000001000+00001578+00000+0001T   00001578+0000001727          1400 JK6130               2AZ
690209000690209               690209               170213GI     1400+00000+GI0000002630+0000002630+000000000+000000369+0000002990+0000000009+I20000000000+0000002990+Z
690209001690209077-000270     690209006003000395453GIFT-BAG PPR JMB 33X45 0000001000+00002630+00000+0001T   00002630+0000001730          1400 JK6112               2AZ
690210000690210               690210               170213GI     1400+00000+GI0000002138+0000002138+000000000+000000300+0000002430+0000000008+I20000000000+0000002430+Z
690210001690210903-000155     690210006009803374435SWT LOLLY I LUV U HEART0000001000+00000525+00000+0001T   00000525+0000001733          1400 JK6150               2AZ
690210002690210018-000127     690210006001023380289MUG OCC STRAIGHT LOVE  0000001000+00001578+00000+0001T   00001753+0006471733          1400 JK6515               2AZ
690210003690210112-116038     690210006009681820246TCS CARRIER BAG MIDI   0000001000+00000035+00000+0001T   00000035+0000001733          1400 JK6090               2AZ
690211000690211               690211               170213GI     1400+00000+GI0000008378+0000008378+000000000+000001174+0000009552+0000000000+I40000009552+0000000000+Z
690211001690211566-000352     690211006001023809261STICKERS LASER ASSTD   0000001000+00002192+00000+0001T   00002192+0000001753          1400 JK6130               2AZ
690211002690211027-009032     690211006001246775107DUSTPAN JUMBO          0000002000+00003069+00000+0001T   00003069+0000001753          1400 JK6212               2AZ
690211003690211112-116069     690211006009681820277TCS CARRIER BAG JUMBO  0000001000+00000048+00000+0001T   00000048+0000001753          1400 JK6090               2AZ
690212000690212               690212               170213GI     1400+00000+GI0000004823+0000004823+000000000+000000676+0000005490+0000000009+I20000000000+0000005490+Z
690212001690212301-085001     690212006003000297610ORN WATERBALL LOVE ASST0000001000+00004823+00000+0001T   00004823+0000001753          1400 JK6505               2AZ
690213000690213               690213               170213GI     1400+00000+GI0000004420+0000004420+000000000+000000619+0000005030+0000000009+I20000000000+0000005030+Z
690213001690213001-000175     690213006001023788108B/MUG GLS LOVE 380ML   0000001000+00004385+00000+0001T   00004385+0000001754          1400 JK6515               2AZ
690213002690213112-116038     690213006009681820246TCS CARRIER BAG MIDI   0000001000+00000035+00000+0001T   00000035+0000001754          1400 JK6090               2AZ
690214000690214               690214               170213GI     1400+00000+GI0000002630+0000002630+000000000+000000369+0000002999+0000000000+I40000002999+0000000000+Z
690214001690214033-000650     690214006003000572687HAIR BRUSH 22cm ROLLER 0000001000+00002630+00000+0001T   00002630+0000001755          1400 JK6200               2AZ
B69017000                                          170213GI024-000116     11235512SLAVE 2     JK61IC0000090000+0000009000+0000000000000+
M17021391                              CASH        GISLAVE 2                       Z-REPORT No.   575TOTAL (Sales - Refunds)           4874.58       CASH TO BE BANKED                 2438.00       DEBIT CARDS                          0.00       CREDIT CARDS                      2436.58       Z-READING                         4874.58       AIRTIME DEBIT CARD SALES             0.00       AIRTIME CARD SALES                   0.00       OVERS/UNDERS                         0.00       AIRTIME CASH SALES                   0.00       GIFT CARDS                           0.00       GIFT CARD CASH SALES                 0.00       T O T A L  CASH PAYOUTS              0.00                                                                                                                                                                                                                                                                                                                                                      Z
M17021392                              CASH        GIABSENT                                                                                                                                                                                          ANNUAL LEAVE                                                                                                                                                                                    DAY OFF                                                                                                                                                                                         COMMENTS                                                                                                                                                                                                                                                                                                                                                                                       Z
Y17021300                                          GI00000000427793+000054
ZGI17021321083 SLAVE 2      SALES DATA                     NEXT INVOICE NO.  690215 0575
F094189497-068614         1701181109450000001ICSLAVE 2
F094189497-068615         1701181109450000001ICSLAVE 2
X GI Slave 2 First invoice 690161 170213 Last invoice 690214 170213 Next invoice 690215 Total number of records 000000209 clbackup completed 21:08:10
