623316000623316               623316               170213GJ     1400+00000+GJ0000004385+0000004385+000000000+000000614+0000004999+0000000000+I40000004999+0000000000+Z
623316001623316368-000049     623316006003000536955PLUSH BEAR 15cm LOVE   0000001000+00004385+00000+0001T   00004385+0000000948          1400 DJ3745               1AZ
623317000623317               623317               170213GJ     1400+00000+GJ0000006223+0000006223+000000000+000000873+0000007090+0000000006+I20000000000+0000007090+Z
623317001623317077-000319     623317006001023609779GIFT-BAG 18X23CM BIRTHD0000001000+00001227+00000+0001T   00001227+0000000955          1400 DJ3112               1AZ
623317002623317065-006042     623317006001023712998MARACAS 2PCE CHA-CHA   0000001000+00001753+00000+0001T   00001753+0000000955          1400 DJ3745               1AZ
623317003623317065-003699     623317006001023690883FLUTE RECORDER PL      0000001000+00001490+00000+0001T   00001490+0000000955          1400 DJ3745               1AZ
623317004623317065-006041     623317006001023712974TAMBOURINE 15cm P/BAND 0000001000+00001753+00000+0001T   00001753+0000000955          1400 DJ3745               1AZ
623318000623318               623318               170213GJ     1400+00000+GJ0000004386+0000004386+000000000+000000614+0000005000+0000000000+I40000005000+0000000000+Z
623318001623318486-000010     623318006001023544254WALL-CLOCK ROUND 25cm  0000001000-00006139+00000+0001T   00006139+0000001145          1400 DJ35101IC            1 Z
623318002623318486-001017     623318006003000384501C/WALL QTZ PL RND 31cm 0000001000+00010525+00000+0001T   00010525+0000001145          1400 DJ3510               1AZ
623319000623319               623319               170213GJ     1400+00000+GJ0000009340+0000009340+000000000+000001310+0000010650+0000000000+I40000010650+0000000000+Z
623319001623319368-000049     623319006003000536955PLUSH BEAR 15cm LOVE   0000001000+00004385+00000+0001T   00004385+0000001152          1400 DJ3745               1AZ
623319002623319077-000011-L   623319006001023808585P/TISSUE BRIGHT 10SHEET0000001000+00000876+00000+0001T   00000876+0000001152          1400 DJ3112               1AZ
623319003623319903-000155     623319006009803374435SWT LOLLY I LUV U HEART0000001000+00000525+00000+0001T   00000525+0000001152          1400 DJ3150               1AZ
623319004623319077-000376     623319006003000444427GIFT-BAG 25X32CM 2PK   0000001000+00003069+00000+0001T   00003069+0000001152          1400 DJ3112               1AZ
623319005623319112-116069     623319006009681820277TCS CARRIER BAG JUMBO  0000001000+00000048+00000+0001T   00000048+0000001152          1400 DJ3090               1AZ
623319006623319080-000133-A   623319006003000647019MINI VALENTINES CARD   0000001000+00000437+00000+0001T   00000437+0000001152          1400 DJ3112               1AZ
623320000623320               623320               170213GJ     1400+00000+GJ0000000876+0000000876+000000000+000000123+0000000990+0000000009+I20000000000+0000000990+Z
623320001623320077-000408     623320006003000145218G/BAG PP 15X21X7CM     0000001000+00000876+00000+0001T   00000876+0000001153          1400 DJ3112               1AZ
623321000623321               623321               170213GJ     1400+00000+GJ0000014959+0000014959+000000000+000002095+0000017050+0000000004+I20000000000+0000017050+Z
623321001623321140-092000     623321006001023819130MOSQ-NET 1250x250x65cm 0000001000+00014911+00000+0001T   00014911+0000001227          1400 DJ3830               1AZ
623321002623321112-116069     623321006009681820277TCS CARRIER BAG JUMBO  0000001000+00000048+00000+0001T   00000048+0000001227          1400 DJ3090               1AZ
623322000623322               623322               170213GJ     1400+00000+GJ0000004557+0000004557+000000000+000000639+0000005190+0000000006+I20000000000+0000005190+Z
623322001623322006-000124     623322006003000625888BALLOONS 10PC MIX COL  0000001000+00001753+00000+0001T   00001753+0000001229          1400 DJ3131               1AZ
623322002623322006-000166-H   623322006003000608096BALLOONS HELIUM 6PC WHT0000001000+00001314+00000+0001T   00001314+0000001229          1400 DJ3131               1AZ
623322003623322006-000805     623322000013994092418STREAMERS 10-ROLLS     0000001000+00001490+00000+0001T   00001490+0000001229          1400 DJ3131               1AZ
623323000623323               623323               170213GJ     1400+00000+GJ0000006138+0000006138+000000000+000000860+0000006990+0000000008+I20000000000+0000006990+Z
623323001623323001-000175     623323006001023788108B/MUG GLS LOVE 380ML   0000001000+00004385+00000+0001T   00004385+0000001238          1400 DJ3515               1AZ
623323002623323037-000004     623323006001023763679ASHTRAY PL TUB 8X11CM  0000001000+00001753+00000+0001T   00002192+0008191238          1400 DJ3515               1AZ
623324000623324               623324               170213GJ     1400+00000+GJ0000000700+0000000700+000000000+000000098+0000000790+0000000008+I20000000000+0000000790+Z
623324001623324903-000070     623324006001704001106SWT TOFFEE CREAMY 35g  0000001000+00000700+00000+0001T   00000700+0000001251          1400 DJ3150               1AZ
623325000623325               623325               170213GJ     1400+00000+GJ0000007925+0000007925+000000000+000001112+0000009030+0000000007+I20000000000+0000009030+Z
623325001623325562-000010     623325006001023762528KID'S PLAY DOUGH       0000002000+00002630+00000+0001T   00002630+0000001254          1400 DJ3755               1AZ
623325002623325079-000280     623325006003000160723PAINT READYMIX 6PCE    0000001000+00002630+00000+0001T   00002630+0000001254          1400 DJ3130               1AZ
623325003623325112-116038     623325006009681820246TCS CARRIER BAG MIDI   0000001000+00000035+00000+0001T   00000035+0000001254          1400 DJ3090               1AZ
623326000623326               623326               170213GJ     1400+00000+GJ0000005700+0000005700+000000000+000000798+0000006498+0000000000+I40000006498+0000000000+Z
623326001623326046-002023-C   623326006001023698254BATTERIES ALKALN CARD-50000001000+00005700+00000+0001T   00005700+0000001258          1400 DJ3312               1AZ
623327000623327               623327               170213GJ     1400+00000+GJ0000004385+0000004385+000000000+000000614+0000004990+0000000009+I20000000000+0000004990+Z
623327001623327368-000049     623327006003000536955PLUSH BEAR 15cm LOVE   0000001000+00004385+00000+0001T   00004385+0000001258          1400 DJ3745               1AZ
623328000623328               623328               170213GJ     1400+00000+GJ0000005294+0000005294+000000000+000000743+0000006030+0000000007+I20000000000+0000006030+Z
623328001623328079-013032     623328006003000389209SET LETTERS 2 ASSTD    0000001000+00001753+00000+0001T   00001753+0000001259          1400 DJ3130               1AZ
623328002623328079-000275     623328006003000160488PAINT-BRUSHES 6PCE PRO 0000001000+00001753+00000+0001T   00001753+0000001259          1400 DJ3130               1AZ
623328003623328566-000070     623328006003000283798STICKERS POP UP ASSTD  0000001000+00001753+00000+0001T   00001753+0000001259          1400 DJ3130               1AZ
623328004623328112-116038     623328006009681820246TCS CARRIER BAG MIDI   0000001000+00000035+00000+0001T   00000035+0000001259          1400 DJ3090               1AZ
623329000623329               623329               170213GJ     1400+00000+GJ0000002629+0000002629+000000000+000000369+0000002990+0000000008+I20000000000+0000002990+Z
623329001623329077-000239     623329006003000160419GIFT-RIBBON ROLL PEARL 0000001000+00001753+00000+0001T   00001753+0000001313          1400 DJ3112               1AZ
623329002623329077-000011-C   623329006001023808523TISSUE 10xSHTS RED     0000001000+00000876+00000+0001T   00000876+0000001313          1400 DJ3112               1AZ
623330000623330               623330               170213GJ     1400+00000+GJ0000000876+0000000876+000000000+000000123+0000000990+0000000009+I20000000000+0000000990+Z
623330001623330077-000151     623330006008766114676GIFT-WRAP C/PHANE ASSTD0000001000+00000876+00000+0001T   00000876+0000001313          1400 DJ3112               1AZ
623331000623331               623331               170213GJ     1400+00000+GJ0000001578+0000001578+000000000+000000221+0000001790+0000000009+I20000000000+0000001790+Z
623331001623331018-000127     623331006001023380289MUG OCC STRAIGHT LOVE  0000001000+00001578+00000+0001T   00001753+0006471325          1400 DJ3515               1AZ
623332000623332               623332               170213GJ     1400+00000+GJ0000002192+0000002192+000000000+000000307+0000002499+0000000000+I40000002499+0000000000+Z
623332001623332031-000868-A   623332006001023798534P/FRAME PL BLCK 10X15CM0000001000+00002192+00000+0001T   00002192+0000001327          1400 DJ3510               1AZ
623333000623333               623333               170213GJ     1400+00000+GJ0000005833+0000005833+000000000+000000818+0000006650+0000000001+I20000000000+0000006650+Z
623333001623333018-000127     623333006001023380289MUG OCC STRAIGHT LOVE  0000001000+00001578+00000+0001T   00001753+0006471358          1400 DJ3515               1AZ
623333002623333077-000303     623333006001023593757GIFT-BAG PAPER MED     0000001000+00001578+00000+0001T   00001578+0000001358          1400 DJ3112               1AZ
623333003623333080-000127     623333006003000424351VALENTINES DAY 36x24CM 0000001000+00002192+00000+0001T   00002192+0000001358          1400 DJ3112               1AZ
623333004623333112-116069     623333006009681820277TCS CARRIER BAG JUMBO  0000001000+00000048+00000+0001T   00000048+0000001358          1400 DJ3090               1AZ
623333005623333080-000133-A   623333006003000647019MINI VALENTINES CARD   0000001000+00000437+00000+0001T   00000437+0000001358          1400 DJ3112               1AZ
623334000623334               623334               170213GJ     1400+00000+GJ0000000876+0000000876+000000000+000000123+0000000990+0000000009+I20000000000+0000000990+Z
623334001623334077-000011-D   623334006001023808554TISSUE-WRAP WHITE 10PCE0000001000+00000876+00000+0001T   00000876+0000001402          1400 DJ3112               1AZ
623335000623335               623335               170213GJ     1400+00000+GJ0000003542+0000003542+000000000+000000496+0000004030+0000000008+I20000000000+0000004030+Z
623335001623335031-000923     623335006001023669933P/FRAME BLK W/WORDS    0000001000+00003507+00000+0001T   00003507+0000001404          1400 DJ3510               1AZ
623335002623335112-116038     623335006009681820246TCS CARRIER BAG MIDI   0000001000+00000035+00000+0001T   00000035+0000001404          1400 DJ3090               1AZ
623336000623336               623336               170213GJ     1400+00000+GJ0000004120+0000004120+000000000+000000578+0000004690+0000000008+I20000000000+0000004690+Z
623336001623336077-000305     623336006003000395422GIFT-BAG WINE 10X35CM  0000001000+00001490+00000+0001T   00001490+0000001408          1400 DJ3112               1AZ
623336002623336018-000129     623336006001023403353MUG OCC. LOVE V-SHAPE  0000001000+00002630+00000+0001T   00002630+0000001408          1400 DJ3515               1AZ
623337000623337               623337               170213GJ     1400+00000+GJ0000008710+0000008710+000000000+000001222+0000009932+0000000000+I40000009932+0000000000+Z
623337001623337089-000192-A   623337006001023901774KEY-CHAIN ACRYLIC      0000001000+00000876+00000+0001T   00000876+0000001412          1400 DJ3205               1AZ
623337002623337088-000103     623337006008766127102INCENSE 20PCE ASSTD    0000001000+00000700+00000+0001T   00000700+0000001412          1400 DJ3212               1AZ
623337003623337018-005009     623337006001023725608MUG W/PLUSH-BEAR LOVE  0000001000+00003507+00000+0001T   00003507+0000001412          1400 DJ3515               1AZ
623337004623337112-116038     623337006009681820246TCS CARRIER BAG MIDI   0000001000+00000035+00000+0001T   00000035+0000001412          1400 DJ3090               1AZ
623337005623337080-000133-A   623337006003000647019MINI VALENTINES CARD   0000001000+00000437+00000+0001T   00000437+0000001412          1400 DJ3112               1AZ
623337006623337903-002890     623337008935001721352MENTOS GUM PURE F/MINT 0000001000+00001051+00000+0001T   00001051+0000001412          1400 DJ3150               1AZ
623337007623337903-000095     623337006001704011495SWT SPECKLED-EGGS 100G 0000001000+00002104+00000+0001T   00002104+0000001412          1400 DJ3150               1AZ
623338000623338               623338               170213GJ     1400+00000+GJ0000001753+0000001753+000000000+000000246+0000001990+0000000009+I20000000000+0000001990+Z
623338001623338077-000904     623338006003000410682G/WRAP 700mmx1m PATTERN0000001000+00001753+00000+0001T   00001753+0000001413          1400 DJ3112               1AZ
623339000623339               623339               170213GJ     1400+00000+GJ0000000876+0000000876+000000000+000000123+0000000990+0000000009+I20000000000+0000000990+Z
623339001623339566-000200     623339006003000384174STICKER PUFFY NEON     0000001000+00000876+00000+0001T   00000876+0000001414          1400 DJ3130               1AZ
623340000623340               623340               170213GJ     1400+00000+GJ0000000035+0000000035+000000000+000000005+0000000040+0000000000+I20000000000+0000000040+Z
623340001623340112-116038     623340006009681820246TCS CARRIER BAG MIDI   0000001000+00000035+00000+0001T   00000035+0000001414          1400 DJ3090               1AZ
623341000623341               623341               170213GJ     1400+00000+GJ0000007049+0000007049+000000000+000000987+0000008030+0000000006+I20000000000+0000008030+Z
623341001623341018-005009     623341006001023725608MUG W/PLUSH-BEAR LOVE  0000001000+00003507+00000+0001T   00003507+0000001423          1400 DJ3515               1AZ
623341002623341018-000130     623341006001023867537MUG OCC LOVE MINI+HEART0000001000+00003507+00000+0001T   00003507+0000001423          1400 DJ3515               1AZ
623341003623341112-116038     623341006009681820246TCS CARRIER BAG MIDI   0000001000+00000035+00000+0001T   00000035+0000001423          1400 DJ3090               1AZ
623342000623342               623342               170213GJ     1400+00000+GJ0000008771+0000008771+000000000+000001228+0000009990+0000000009+I20000000000+0000009990+Z
623342001623342072-020242     623342006003000053728PET BED COTTON TEXTILE 0000001000+00008771+00000+0001T   00008771+0000001423          1400 DJ3870               1AZ
623343000623343               623343               170213GJ     1400+00000+GJ0000005116+0000005116+000000000+000000719+0000005830+0000000005+I20000000000+0000005830+Z
623343001623343159-000150-B   623343006005387002009SOAP-BOX PL ASSORTED   0000004000+00000832+00000+0001T   00000832+0000001424          1400 DJ3200               1AZ
623343002623343206-000120     623343006003000628308PEELER CARROT SHARPENER0000001000+00001753+00000+0001T   00001753+0000001424          1400 DJ3321               1AZ
623343003623343112-116038     623343006009681820246TCS CARRIER BAG MIDI   0000001000+00000035+00000+0001T   00000035+0000001424          1400 DJ3090               1AZ
623344000623344               623344               170213GJ     1400+00000+GJ0000003244+0000003244+000000000+000000455+0000003690+0000000009+I20000000000+0000003690+Z
623344001623344046-000400     623344006001023804983BATT ALKALINE 1.5Vx30PC0000001000+00003244+00000+0001T   00003244+0000001425          1400 DJ3312               1AZ
623345000623345               623345               170213GJ     1400+00000+GJ0000001227+0000001227+000000000+000000172+0000001390+0000000009+I20000000000+0000001390+Z
623345001623345033-000013     623345006001023567215PILL-REMINDER PL       0000001000+00001227+00000+0001T   00001227+0000001426          1400 DJ3200               1AZ
623346000623346               623346               170213GJ     1400+00000+GJ0000003067+0000003067+000000000+000000430+0000003497+0000000000+I40000003497+0000000000+Z
623346001623346040-000213     623346006001023617736CANDLE-HOLDER DAISY    0000002000+00001227+00000+0001T   00001227+0000001427          1400 DJ3510               1AZ
623346002623346083-000055     623346006003000003853LIGHTER ELCTRNC REFILBL0000001000+00000613+00000+0001T   00000613+0000001427          1400 DJ3315               1AZ
623347000623347               623347               170213GJ     1400+00000+GJ0000007940+0000007940+000000000+000001113+0000009050+0000000003+I20000000000+0000009050+Z
623347001623347018-019000     623347006003000557288MUG OCC. LOVE JUMBO    0000001000+00005262+00000+0001T   00005262+0000001429          1400 DJ3515               1AZ
623347002623347077-000270     623347006003000395453GIFT-BAG PPR JMB 33X45 0000001000+00002630+00000+0001T   00002630+0000001429          1400 DJ3112               1AZ
623347003623347112-116069     623347006009681820277TCS CARRIER BAG JUMBO  0000001000+00000048+00000+0001T   00000048+0000001429          1400 DJ3090               1AZ
623348000623348               623348               170213GJ     1400+00000+GJ0000005786+0000005786+000000000+000000811+0000006597+0000000000+I40000006597+0000000000+Z
623348001623348077-000303     623348006001023593757GIFT-BAG PAPER MED     0000002000+00001578+00000+0001T   00001578+0000001431          1400 DJ3112               1AZ
623348002623348162-096646     623348006001492966465#TAG HOT DEALS KIDS HR 0000001000+00002630+00000+0001T   00002630+0000001431          1400 DJ3160               1AZ
623349000623349               623349               170213GJ     1400+00000+GJ0000001400+0000001400+000000000+000000196+0000001590+0000000006+I20000000000+0000001590+Z
623349001623349018-000177     623349006001023797513MUG MINI LOVE ASSTD    0000002000+00000700+00000+0001T   00000700+0000001431          1400 DJ3515               1AZ
623350000623350               623350               170213GJ     1400+00000+GJ0000001753+0000001753+000000000+000000246+0000001990+0000000009+I20000000000+0000001990+Z
623350001623350071-010481     623350006001023417220MAGNIFYING-GLASS 90mm-D0000001000+00001753+00000+0001T   00001753+0000001432          1400 DJ3130               1AZ
623351000623351               623351               170213GJ     1400+00000+GJ0000001753+0000001753+000000000+000000246+0000001990+0000000009+I20000000000+0000001990+Z
623351001623351079-000275     623351006003000160488PAINT-BRUSHES 6PCE PRO 0000001000+00001753+00000+0001T   00001753+0000001436          1400 DJ3130               1AZ
623352000623352               623352               170213GJ     1400+00000+GJ0000011435+0000011435+000000000+000001602+0000013037+0000000000+I40000013037+0000000000+Z
623352001623352159-003615     623352006001246045460TOILET-BRUSH W/STAND   0000002000+00003069+00000+0001T   00003069+0000001441          1400 DJ3200               1AZ
623352002623352133-000083     623352006003000450510DISH DRAINING MAT      0000001000+00005262+00000+0001T   00005262+0000001441          1400 DJ3212               1AZ
623352003623352112-116038     623352006009681820246TCS CARRIER BAG MIDI   0000001000+00000035+00000+0001T   00000035+0000001441          1400 DJ3090               1AZ
623353000623353               623353               170213GJ     1400+00000+GJ0000000613+0000000613+000000000+000000086+0000000690+0000000009+I20000000000+0000000690+Z
623353001623353083-000055     623353006003000003853LIGHTER ELCTRNC REFILBL0000001000+00000613+00000+0001T   00000613+0000001442          1400 DJ3315               1AZ
623354000623354               623354               170213GJ     1400+00000+GJ0000014080+0000014080+000000000+000001973+0000016053+0000000000+I40000016053+0000000000+Z
623354001623354077-000270     623354006003000395453GIFT-BAG PPR JMB 33X45 0000001000+00002630+00000+0001T   00002630+0000001445          1400 DJ3112               1AZ
623354002623354368-000637     623354006001023874092PLUSH BEAR SLEEPING LOV0000001000+00011402+00000+0001T   00012279+0006471445          1400 DJ3745               1AZ
623354003623354112-116069     623354006009681820277TCS CARRIER BAG JUMBO  0000001000+00000048+00000+0001T   00000048+0000001445          1400 DJ3090               1AZ
623355000623355               623355               170213GJ     1400+00000+GJ0000002190+0000002190+000000000+000000307+0000002490+0000000007+I20000000000+0000002490+Z
623355001623355006-000812     623355006001023902832HAT CONE WITH TINSEL   0000001000+00000876+00000+0001T   00000876+0000001452          1400 DJ3131               1AZ
623355002623355566-000451     623355006001023788443STICKERS GLITTER ASSTD 0000001000+00001314+00000+0001T   00001753+0008151452          1400 DJ3130               1AZ
623356000623356               623356               170213GJ     1400+00000+GJ0000002227+0000002227+000000000+000000312+0000002530+0000000009+I20000000000+0000002530+Z
623356001623356301-085000     623356006003000674299 ORN OCC. LOVE HEARTS  0000001000+00002192+00000+0001T   00002192+0000001500          1400 SI5505               1AZ
623356002623356112-116038     623356006009681820246TCS CARRIER BAG MIDI   0000001000+00000035+00000+0001T   00000035+0000001500          1400 SI5090               1AZ
623357000623357               623357               170213GJ     1400+00000+GJ0000007890+0000007890+000000000+000001107+0000008990+0000000007+I20000000000+0000008990+Z
623357001623357016-006710     623357006003000674725S/JAR GLS RHEA 425ml   0000003000+00002630+00000+0001T   00002630+0000001503          1400 SI5300               1AZ
623358000623358               623358               170213GJ     1400+00000+GJ0000003681+0000003681+000000000+000000516+0000004190+0000000007+I20000000000+0000004190+Z
623358001623358033-000013     623358006001023567215PILL-REMINDER PL       0000003000+00001227+00000+0001T   00001227+0000001503          1400 SI5200               1AZ
623359000623359               623359               170213GJ     1400+00000+GJ0000001613+0000001613+000000000+000000226+0000001830+0000000009+I20000000000+0000001830+Z
623359001623359018-000127     623359006001023380289MUG OCC STRAIGHT LOVE  0000001000+00001578+00000+0001T   00001753+0006471603          1400 DJ3515               1AZ
623359002623359112-116038     623359006009681820246TCS CARRIER BAG MIDI   0000001000+00000035+00000+0001T   00000035+0000001603          1400 DJ3090               1AZ
623360000623360               623360               170213GJ     1400+00000+GJ0000000613+0000000613+000000000+000000086+0000000690+0000000009+I20000000000+0000000690+Z
623360001623360077-000321     623360006001023677501GIFT-BAG 11X14CM E/D FL0000001000+00000613+00000+0001T   00000613+0000001605          1400 DJ3112               1AZ
623361000623361               623361               170213GJ     1400+00000+GJ0000003506+0000003506+000000000+000000492+0000003998+0000000000+I40000003998+0000000000+Z
623361001623361077-000011-C   623361006001023808523TISSUE 10xSHTS RED     0000001000+00000876+00000+0001T   00000876+0000001619          1400 DJ3112               1AZ
623361002623361079-013032-D   623361006003000389643RIBBONS                0000001000+00002630+00000+0001T   00002630+0000001619          1400 DJ3130               1AZ
623362000623362               623362               170213GJ     1400+00000+GJ0000005170+0000005170+000000000+000000724+0000005890+0000000004+I20000000000+0000005890+Z
623362002623362018-000127     623362006001023380289MUG OCC STRAIGHT LOVE  0000001000+00001578+00000+0001T   00001753+0006471626          1400 DJ3515               1AZ
623362003623362018-000177     623362006001023797513MUG MINI LOVE ASSTD    0000002000+00000700+00000+0001T   00000700+0000001626          1400 DJ3515               1AZ
623362004623362018-000170     623362006001023775528MUG OCC. LOVE 2PC MINI 0000001000+00002192+00000+0001T   00002192+0000001626          1400 DJ3515               1AZ
623363000623363               623363               170213GJ     1400+00000+GJ0000000613+0000000613+000000000+000000086+0000000690+0000000009+I20000000000+0000000690+Z
623363001623363083-000055     623363006003000003853LIGHTER ELCTRNC REFILBL0000001000+00000613+00000+0001T   00000613+0000001638          1400 DJ3315               1AZ
623364000623364               623364               170213GJ     1400+00000+GJ0000004420+0000004420+000000000+000000619+0000005030+0000000009+I20000000000+0000005030+Z
623364001623364001-000175     623364006001023788108B/MUG GLS LOVE 380ML   0000001000+00004385+00000+0001T   00004385+0000001642          1400 DJ3515               1AZ
623364002623364112-116038     623364006009681820246TCS CARRIER BAG MIDI   0000001000+00000035+00000+0001T   00000035+0000001642          1400 DJ3090               1AZ
623365000623365               623365               170213GJ     1400+00000+GJ0000000437+0000000437+000000000+000000062+0000000490+0000000009+I20000000000+0000000490+Z
623365001623365080-000133-A   623365006003000647019MINI VALENTINES CARD   0000001000+00000437+00000+0001T   00000437+0000001644          1400 DJ3112               1AZ
623366000623366               623366               170213GJ     1400+00000+GJ0000002980+0000002980+000000000+000000418+0000003398+0000000000+I40000003398+0000000000+Z
623366001623366016-006516     623366006003000351503S/JAR GLS CHECK 150ML  0000002000+00001490+00000+0001T   00001490+0000001648          1400 DJ3300               1AZ
623367000623367               623367               170213GJ     1400+00000+GJ0000006139+0000006139+000000000+000000860+0000006999+0000000000+I40000006999+0000000000+Z
623367001623367261-003821     623367006003000398713GUN HAND COWBOY PLAYSET0000001000+00006139+00000+0001T   00006139+0000001651          1400 DJ3710               1AZ
623368000623368               623368               170213GJ     1400+00000+GJ0000002630+0000002630+000000000+000000369+0000002999+0000000000+I40000002999+0000000000+Z
623368001623368071-001124     623368006001023802873MARKERS WHITEBOARD 3PCE0000001000+00002630+00000+0001T   00002630+0000001656          1400 DJ3130               1AZ
623369000623369               623369               170213GJ     1400+00000+GJ0000002629+0000002629+000000000+000000369+0000002990+0000000008+I20000000000+0000002990+Z
623369001623369079-006496     623369006003000160105GLITTER SHAKERS        0000001000+00001753+00000+0001T   00001753+0000001656          1400 DJ3130               1AZ
623369002623369077-000011-C   623369006001023808523TISSUE 10xSHTS RED     0000001000+00000876+00000+0001T   00000876+0000001656          1400 DJ3112               1AZ
623370000623370               623370               170213GJ     1400+00000+GJ0000002192+0000002192+000000000+000000307+0000002499+0000000000+I40000002499+0000000000+Z
623370001623370007-000095     623370006003000530434ENVELOPES WHITE 20PK C60000001000+00002192+00000+0001T   00002192+0000001701          1400 DJ3130               1AZ
623371000623371               623371               170213GJ     1400+00000+GJ0000005557+0000005557+000000000+000000780+0000006330+0000000007+I20000000000+0000006330+Z
623371001623371034-078841     623371006003000594023MELAMINE KIDS BOWL 17cm0000001000+00001753+00000+0001T   00001753+0000001702          1400 DJ3215               1AZ
623371002623371106-001107     623371006003000467242WATER BOTTLE 1L RUBBER 0000001000+00002630+00000+0001T   00002630+0000001702          1400 DJ3210               1AZ
623371003623371002-000801     623371006003000555994PEELER PL/MTL Y-SHAPE  0000001000+00001139+00000+0001T   00001139+0000001702          1400 DJ3300               1AZ
623371004623371112-116038     623371006009681820246TCS CARRIER BAG MIDI   0000001000+00000035+00000+0001T   00000035+0000001702          1400 DJ3090               1AZ
623372000623372               623372               170213GJ     1400+00000+GJ0000004344+0000004344+000000000+000000609+0000004950+0000000003+I20000000000+0000004950+Z
623372001623372903-000095     623372006001704011495SWT SPECKLED-EGGS 100G 0000001000+00002104+00000+0001T   00002104+0000001703          1400 DJ3150               1AZ
623372002623372077-000309-A   623372006003000671007GIFT-BAG HOLOGRAM JMB  0000001000+00002192+00000+0001T   00002192+0000001703          1400 DJ3112               1AZ
623372003623372112-116069     623372006009681820277TCS CARRIER BAG JUMBO  0000001000+00000048+00000+0001T   00000048+0000001703          1400 DJ3090               1AZ
623373000623373               623373               170213GJ     1400+00000+GJ0000004385+0000004385+000000000+000000614+0000004990+0000000009+I20000000000+0000004990+Z
623373001623373079-130010     623373006003000496624ART+CRAFT FOAM DOLLS   0000001000+00004385+00000+0001T   00004385+0000001704          1400 DJ3130               1AZ
623374000623374               623374               170213GJ     1400+00000+GJ0000031429+0000031429+000000000+000004403+0000035832+0000000000+I40000035832+0000000000+Z
623374001623374368-000175     623374006003000270316PLUSH BEAR 4 ASSTD 18CM0000001000+00006139+00000+0001T   00006139+0000001706          1400 DJ3745               1AZ
623374002623374368-000265     623374006001023750914PLUSH BEAR 23CM ASSTD C0000003000+00006139+00000+0001T   00006139+0000001706          1400 DJ3745               1AZ
623374003623374077-000351     623374006003000139033GIFT-BAG 18X23CM E/D P 0000001000+00001753+00000+0001T   00001753+0000001706          1400 DJ3112               1AZ
623374004623374077-000303     623374006001023593757GIFT-BAG PAPER MED     0000001000+00001578+00000+0001T   00001578+0000001706          1400 DJ3112               1AZ
623374005623374018-005009     623374006001023725608MUG W/PLUSH-BEAR LOVE  0000001000+00003507+00000+0001T   00003507+0000001706          1400 DJ3515               1AZ
623374006623374112-116038     623374006009681820246TCS CARRIER BAG MIDI   0000001000+00000035+00000+0001T   00000035+0000001706          1400 DJ3090               1AZ
623375000623375               623375               170213GJ     1400+00000+GJ0000001613+0000001613+000000000+000000226+0000001830+0000000009+I20000000000+0000001830+Z
623375001623375018-000127     623375006001023380289MUG OCC STRAIGHT LOVE  0000001000+00001578+00000+0001T   00001753+0006471708          1400 DJ3515               1AZ
623375002623375112-116038     623375006009681820246TCS CARRIER BAG MIDI   0000001000+00000035+00000+0001T   00000035+0000001708          1400 DJ3090               1AZ
623376000623376               623376               170213GJ     1400+00000+GJ0000049683+0000049683+000000000+000006959+0000056642+0000000000+I40000056642+0000000000+Z
623376001623376018-019000     623376006003000557288MUG OCC. LOVE JUMBO    0000001000+00005262+00000+0001T   00005262+0000001713          1400 DJ3515               1AZ
623376002623376018-000170     623376006001023775528MUG OCC. LOVE 2PC MINI 0000002000+00002192+00000+0001T   00002192+0000001713          1400 DJ3515               1AZ
623376003623376077-000011-Y   623376006001023809858TISSUE-WRAP GOLD 10PCE 0000001000+00001753+00000+0001T   00001753+0000001713          1400 DJ3112               1AZ
623376004623376077-000011-E   623376006001023808646TISSUE-WRAP PINK 10PCE 0000001000+00000876+00000+0001T   00000876+0000001713          1400 DJ3112               1AZ
623376005623376077-000303     623376006001023593757GIFT-BAG PAPER MED     0000002000+00001578+00000+0001T   00001578+0000001713          1400 DJ3112               1AZ
623376006623376567-011423     623376006003000641345BK COLOURING THERAPY A50000001000+00006139+00000+0001T   00006139+0000001713          1400 DJ3757               1AZ
623376007623376079-000335     623376006003000670550THERAPY P/CRAYONS 30   0000001000+00007016+00000+0001T   00007016+0000001713          1400 DJ3130               1AZ
623376008623376004-071205     623376006003000073368USB 2.0 COMPUTER 4 HUB 0000001000+00003507+00000+0001T   00003507+0000001713          1400 DJ3310               1AZ
623376009623376004-079110     623376006003000624089USB POWER ADAPTOR 4PORT0000001000+00017542+00000+0001T   00017542+0000001713          1400 DJ3310               1AZ
623376010623376112-116069     623376006009681820277TCS CARRIER BAG JUMBO  0000001000+00000048+00000+0001T   00000048+0000001713          1400 DJ3090               1AZ
623377000623377               623377               170213GJ     1400+00000+GJ0000001753+0000001753+000000000+000000246+0000001990+0000000009+I20000000000+0000001990+Z
623377001623377077-000290     623377006001023902023GIFT BOX 26x32x13cm    0000001000+00001753+00000+0001T   00001753+0000001715          1400 DJ3112               1AZ
623378000623378               623378               170213GJ     1400+00000+GJ0000005308+0000005308+000000000+000000744+0000006050+0000000002+I20000000000+0000006050+Z
623378001623378018-000136     623378006001023659026MUG OCC LOVE W/PLUSH   0000001000+00003507+00000+0001T   00003507+0000001716          1400 DJ3515               1AZ
623378002623378077-000290     623378006001023902023GIFT BOX 26x32x13cm    0000001000+00001753+00000+0001T   00001753+0000001716          1400 DJ3112               1AZ
623378003623378112-116069     623378006009681820277TCS CARRIER BAG JUMBO  0000001000+00000048+00000+0001T   00000048+0000001716          1400 DJ3090               1AZ
623379000623379               623379               170213GJ     1400+00000+GJ0000001753+0000001753+000000000+000000246+0000001990+0000000009+I20000000000+0000001990+Z
623379001623379077-000289     623379006001023901996GIFT BOX 20x25x11cm    0000001000+00001753+00000+0001T   00001753+0000001717          1400 DJ3112               1AZ
623380000623380               623380               170213GJ     1400+00000+GJ0000005260+0000005260+000000000+000000738+0000005990+0000000008+I20000000000+0000005990+Z
623380001623380018-000129     623380006001023403353MUG OCC. LOVE V-SHAPE  0000002000+00002630+00000+0001T   00002630+0000001724          1400 DJ3515               1AZ
623381000623381               623381               170213GJ     1400+00000+GJ0000000035+0000000035+000000000+000000005+0000000040+0000000000+I20000000000+0000000040+Z
623381001623381112-116038     623381006009681820246TCS CARRIER BAG MIDI   0000001000+00000035+00000+0001T   00000035+0000001725          1400 DJ3090               1AZ
623382000623382               623382               170213GJ     1400+00000+GJ0000011402+0000011402+000000000+000001597+0000012999+0000000000+I40000012999+0000000000+Z
623382001623382586-098616     623382006001492986166WATCH TEEN CHARM HRT   0000001000+00011402+00000+0001T   00011402+0000001726          1400 DJ3160               1AZ
623383000623383               623383               170213GJ     1400+00000+GJ0000002839+0000002839+000000000+000000399+0000003230+0000000008+I20000000000+0000003230+Z
623383001623383105-001005     623383006001023858214CONTAINERS MINI 6PCE   0000001000+00001402+00000+0001T   00001402+0000001727          1400 DJ3210               1AZ
623383002623383105-000750     623383006003000190270CONTAINERS 4xMINI 150ml0000001000+00001402+00000+0001T   00001402+0000001727          1400 DJ3210               1AZ
623383003623383112-116038     623383006009681820246TCS CARRIER BAG MIDI   0000001000+00000035+00000+0001T   00000035+0000001727          1400 DJ3090               1AZ
623384000623384               623384               170213GJ     1400+00000+GJ0000013205+0000013205+000000000+000001849+0000015054+0000000000+I40000015054+0000000000+Z
623384001623384263-000514     623384006003000391080TRUCK FRICTION 52CM    0000001000+00013157+00000+0001T   00013157+0000001729          1400 DJ3710               1AZ
623384002623384112-116069     623384006009681820277TCS CARRIER BAG JUMBO  0000001000+00000048+00000+0001T   00000048+0000001729          1400 DJ3090               1AZ
623385000623385               623385               170213GJ     1400+00000+GJ0000004120+0000004120+000000000+000000577+0000004690+0000000007+I20000000000+0000004690+Z
623385001623385018-000130     623385006001023867537MUG OCC LOVE MINI+HEART0000001000+00003507+00000+0001T   00003507+0000001730          1400 DJ3515               1AZ
623385002623385077-000311     623385006001023608666GIFT-BAG 11X14CM GLOSS 0000001000+00000613+00000+0001T   00000613+0000001730          1400 DJ3112               1AZ
623386000623386               623386               170213GJ     1400+00000+GJ0000000613+0000000613+000000000+000000086+0000000690+0000000009+I20000000000+0000000690+Z
623386001623386304-001011     623386006001023806727FLWR ROSE RED W/BEAR   0000001000+00000613+00000+0001T   00000788+0006471732          1400 DJ3510               1AZ
623387000623387               623387               170213GJ     1400+00000+GJ0000005696+0000005696+000000000+000000799+0000006495+0000000000+I40000006495+0000000000+Z
623387001623387039-000635     623387006001023774521CANDLE VTV 4PC WHITE   0000001000+00002192+00000+0001T   00002192+0000001736          1400 DJ3510               1AZ
623387002623387040-000212     623387006003000112418C/HOLDER RND T-LITE 6CM0000002000+00001227+00000+0001T   00001227+0000001736          1400 DJ3510               1AZ
623387003623387083-000055     623387006003000003853LIGHTER ELCTRNC REFILBL0000001000+00000613+00000+0001T   00000613+0000001736          1400 DJ3315               1AZ
623387004623387080-000133-A   623387006003000647019MINI VALENTINES CARD   0000001000+00000437+00000+0001T   00000437+0000001736          1400 DJ3112               1AZ
623388000623388               623388               170213GJ     1400+00000+GJ0000007657+0000007657+000000000+000001074+0000008731+0000000000+I40000008731+0000000000+Z
623388001623388018-000177     623388006001023797513MUG MINI LOVE ASSTD    0000002000+00000700+00000+0001T   00000700+0000001739          1400 DJ3515               1AZ
623388002623388079-000206     623388006003000639700PENCIL CRAYONS THERAPY 0000001000+00001753+00000+0001T   00001753+0000001739          1400 DJ3130               1AZ
623388003623388079-006494     623388006003000159864GLITTER GLUE 5PCE 11cm 0000001000+00001490+00000+0001T   00001490+0000001739          1400 DJ3130               1AZ
623388004623388071-008229     623388006003000216017PENCIL-BAG ASTD COL A5 0000001000+00001753+00000+0001T   00001753+0000001739          1400 DJ3130               1AZ
623388005623388112-116038     623388006009681820246TCS CARRIER BAG MIDI   0000001000+00000035+00000+0001T   00000035+0000001739          1400 DJ3090               1AZ
623388006623388077-000311     623388006001023608666GIFT-BAG 11X14CM GLOSS 0000002000+00000613+00000+0001T   00000613+0000001739          1400 DJ3112               1AZ
623389000623389               623389               170213GJ     1400+00000+GJ0000001929+0000001929+000000000+000000270+0000002190+0000000009+I20000000000+0000002190+Z
623389001623389018-000127     623389006001023380289MUG OCC STRAIGHT LOVE  0000001000-00001578+00000+0001T   00001753+0006471742          1400 DJ35151IC            1 Z
623389002623389018-005009     623389006001023725608MUG W/PLUSH-BEAR LOVE  0000001000+00003507+00000+0001T   00003507+0000001742          1400 DJ3515               1AZ
623390000623390               623390               170213GJ     1400+00000+GJ0000009942+0000009942+000000000+000001393+0000011335+0000000000+I40000011335+0000000000+Z
623390001623390018-000136     623390006001023659026MUG OCC LOVE W/PLUSH   0000001000+00003507+00000+0001T   00003507+0000001746          1400 DJ3515               1AZ
623390002623390006-000190     623390006003000685530BALLOONS LOVE 81x91cm  0000001000+00004385+00000+0001T   00004385+0000001746          1400 DJ3131               1AZ
623390003623390077-000303     623390006001023593757GIFT-BAG PAPER MED     0000001000+00001578+00000+0001T   00001578+0000001746          1400 DJ3112               1AZ
623390004623390112-116038     623390006009681820246TCS CARRIER BAG MIDI   0000001000+00000035+00000+0001T   00000035+0000001746          1400 DJ3090               1AZ
623390005623390080-000133-A   623390006003000647019MINI VALENTINES CARD   0000001000+00000437+00000+0001T   00000437+0000001746          1400 DJ3112               1AZ
623391000623391               623391               170213GJ     1400+00000+GJ0000048239+0000048239+000000000+000006757+0000054996+0000000000+I40000054996+0000000000+Z
623391001623391562-088357     623391006001023873392EVA CARPET 56x56x0.9cm 0000002000+00012279+00000+0001T   00012279+0000001749          1400 DJ3755               1AZ
623391002623391562-088355-A   623391006001023873262EVA MAT NUMBERS 10PC   0000001000+00007016+00000+0001T   00007016+0000001749          1400 DJ3755               1AZ
623391003623391562-088354     623391006001023735980EVA MAT 26PC 30x30cm   0000001000+00016665+00000+0001T   00016665+0000001749          1400 DJ3755               1AZ
623392000623392               623392               170213GJ     1400+00000+GJ0000007454+0000007454+000000000+000001044+0000008490+0000000008+I20000000000+0000008490+Z
623392001623392362-000304     623392006003000654635HAIR HEADBAND SOFT 2PCE0000001000+00002192+00000+0001T   00002192+0000001750          1400 DJ3160               1AZ
623392002623392366-000125     623392006003000006786DRESSUP WINGS/WAND/BAND0000001000+00005262+00000+0001T   00005262+0000001750          1400 DJ3131               1AZ
623393000623393               623393               170213GJ     1400+00000+GJ0000025913+0000025913+000000000+000003631+0000029544+0000000000+I40000029544+0000000000+Z
623393001623393076-000017     623393006001811010022TWINE COTTON 50g-BALL  0000001000+00000876+00000+0001T   00000876+0000001754          1400 DJ3810               1AZ
623393002623393108-005010     623393006001023915016TRAY 45cmx31cm RECT    0000001000+00003507+00000+0001T   00003507+0000001754          1400 DJ3210               1AZ
623393003623393562-000020     623393006003000600861EDU PLAY DOUGH 60g 4PC 0000001000+00003507+00000+0001T   00003507+0000001754          1400 DJ3755               1AZ
623393004623393306-000002     623393006003000365852NAIL BRUSHES 3PC ASTD  0000001000+00001753+00000+0001T   00001753+0000001754          1400 DJ3200               1AZ
623393005623393079-000335     623393006003000670550THERAPY P/CRAYONS 30   0000001000+00007016+00000+0001T   00007016+0000001754          1400 DJ3130               1AZ
623393006623393079-000201     623393006003000161430P/CRAYONS THERAPY 10PCE0000001000+00002630+00000+0001T   00002630+0000001754          1400 DJ3130               1AZ
623393007623393567-011344     623393006003000630714BK COLOURING THERAPY 640000001000+00003507+00000+0001T   00003507+0000001754          1400 DJ3757               1AZ
623393008623393365-003056     623393006009635021453KIDDIES WOODEN BROOM   0000001000+00003069+00000+0001T   00003069+0000001754          1400 DJ3725               1AZ
623393009623393112-116069     623393006009681820277TCS CARRIER BAG JUMBO  0000001000+00000048+00000+0001T   00000048+0000001754          1400 DJ3090               1AZ
A17021300                                          09525673GJSLAVE 1                       DJ31IC
A17021301                                          11093099GJSLAVE 1                       DJ32IC
C62336200                                          170213GJ304-001011     16221783SLAVE 1     DJ32IC0000000000+0000000000+0010000002000+
M17021391                              CASH        GJSLAVE 1                       Z-REPORT No.   629TOTAL (Sales - Refunds)           5470.83       CASH TO BE BANKED                 2168.00       DEBIT CARDS                          0.00       CREDIT CARDS                      3302.83       Z-READING                         5470.83       AIRTIME DEBIT CARD SALES             0.00       AIRTIME CARD SALES                   0.00       OVERS/UNDERS                         0.00       AIRTIME CASH SALES                   0.00       GIFT CARDS                           0.00       GIFT CARD CASH SALES                 0.00       T O T A L  CASH PAYOUTS              0.00                                                                                                                                                                                                                                                                                                                                                      Z
M17021392                              CASH        GJABSENT                                                                                                                                                                                          ANNUAL LEAVE                                                                                                                                                                                    DAY OFF                                                                                                                                                                                         COMMENTS          Z READING R5470.83                                                                                                                                                                                                                                                                                                                                                           Z
Y17021300                                          GJ00000000487898+000078
ZGJ17021321083 SLAVE 1      SALES DATA                     NEXT INVOICE NO.  623394 0629
T086509007-000890-16                                       1611151338340000052ICSLAVE 1
F093985496-028120         1701151018000000032ICSLAVE 1
X GJ Slave 1 First invoice 623316 170213 Last invoice 623393 170213 Next invoice 623394 Total number of records 000000266 clbackup completed 21:08:18
