630763000630763               630763               170213GJ     1400+00000+GJ0000004731+0000004731+000000000+000000664+0000005395+0000000000+I40000005395+0000000000+Z
630763001630763077-000150-D   630763006003000054343GIFT-WRAP CELLPHANE CLR0000004000+00000876+00000+0001T   00000876+0000000935          1400 SI5112               2AZ
630763002630763077-000245     630763006001023759214GIFT-RIBBON METALLICx2 0000001000+00001227+00000+0001T   00001227+0000000935          1400 SI5112               2AZ
630764000630764               630764               170213GJ     1400+00000+GJ0000002103+0000002103+000000000+000000295+0000002390+0000000008+I20000000000+0000002390+Z
630764001630764077-000302     630764008010410010195GIFT-BAG 18X23CM E/D   0000001000+00000876+00000+0001T   00000876+0000000937          1400 SI5112               2AZ
630764002630764903-004951     630764006002580020328SWT MALLOW MINI M/SHAKE0000001000+00001227+00000+0001T   00001227+0000000937          1400 SI5150               2AZ
630765000630765               630765               170213GJ     1400+00000+GJ0000001227+0000001227+000000000+000000172+0000001390+0000000009+I20000000000+0000001390+Z
630765001630765496-069632     630765000078257596324REPAIR-KIT (GLUE/PATCH)0000001000+00001227+00000+0001T   00001227+0000000937          1400 SI5787               2AZ
630766000630766               630766               170213GJ     1400+00000+GJ0000003153+0000003153+000000000+000000442+0000003590+0000000005+I20000000000+0000003590+Z
630766001630766200-003024     630766006001023657299REFUSE BAGS 20PCE BLACK0000001000+00001753+00000+0001T   00001753+0000000952          1400 SI5214               2AZ
630766002630766903-000070     630766006001704001106SWT TOFFEE CREAMY 35g  0000002000+00000700+00000+0001T   00000700+0000000952          1400 SI5150               2AZ
630767000630767               630767               170213GJ     1400+00000+GJ0000012658+0000012658+000000000+000001774+0000014430+0000000002+I20000000000+0000014430+Z
630767001630767200-003024     630767006001023657299REFUSE BAGS 20PCE BLACK0000001000+00001753+00000+0001T   00001753+0000000958          1400 SI5214               2AZ
630767002630767039-000319-8   630767006003000443222B/CANDLES LRG NUMBER-8 0000001000+00000876+00000+0001T   00000876+0000000958          1400 SI5510               2AZ
630767003630767018-005009     630767006001023725608MUG W/PLUSH-BEAR LOVE  0000001000+00003507+00000+0001T   00003507+0000000958          1400 SI5515               2AZ
630767004630767077-000452     630767006003000284986G/BAG METALLIC MED EMB 0000002000+00001490+00000+0001T   00001490+0000000958          1400 SI5112               2AZ
630767005630767112-116038     630767006009681820246TCS CARRIER BAG MIDI   0000001000+00000035+00000+0001T   00000035+0000000958          1400 SI5090               2AZ
630767006630767018-005009     630767006001023725608MUG W/PLUSH-BEAR LOVE  0000001000+00003507+00000+0001T   00003507+0000000958          1400 SI5515               2AZ
630768000630768               630768               170213GJ     1400+00000+GJ0000008771+0000008771+000000000+000001228+0000009999+0000000000+I40000009999+0000000000+Z
630768001630768496-059421     630768000078257594214POOL 122cm STARFISH    0000001000+00008771+00000+0001T   00008771+0000001002          1400 SI5787               2AZ
630769000630769               630769               170213GJ     1400+00000+GJ0000004383+0000004383+000000000+000000615+0000004990+0000000008+I20000000000+0000004990+Z
630769001630769003-000250     630769006003000035045ORN DECOR NOVELTY GRASS0000001000+00001753+00000+0001T   00001753+0000001012          1400 SI5505               2AZ
630769002630769051-005578     630769006001023534118GARDEN-WEEDER 275mm    0000001000+00002630+00000+0001T   00002630+0000001012          1400 SI5820               2AZ
630770000630770               630770               170213GJ     1400+00000+GJ0000010521+0000010521+000000000+000001473+0000011990+0000000004+I20000000000+0000011990+Z
630770001630770261-000035     630770006003000550258GUN 4PC POLICE SET     0000003000+00003507+00000+0001T   00003507+0000001012          1400 SI5710               2AZ
630771000630771               630771               170213GJ     1400+00000+GJ0000001578+0000001578+000000000+000000221+0000001790+0000000009+I20000000000+0000001790+Z
630771001630771077-000303     630771006001023593757GIFT-BAG PAPER MED     0000001000+00001578+00000+0001T   00001578+0000001013          1400 SI5112               2AZ
630772000630772               630772               170213GJ     1400+00000+GJ0000005699+0000005699+000000000+000000798+0000006497+0000000000+I40000006497+0000000000+Z
630772001630772072-020261     630772006003000305131PET DOG-CHEW TYRE SMALL0000001000+00002192+00000+0001T   00002192+0000001022          1400 SI5870               2AZ
630772002630772072-000010     630772006001023604392PET CAR SEAT COVER     0000001000+00003507+00000+0001T   00003507+0000001022          1400 SI5870               2AZ
630773000630773               630773               170213GJ     1400+00000+GJ0000033192+0000033192+000000000+000004652+0000037844+0000000000+I40000037844+0000000000+Z
630773001630773007-000128     630773006009635830475BOOK H/COVER A5 96-PAGE0000001000+00000700+00000+0001T   00000700+0000001025          1400 SI5130               2AZ
630773002630773200-000042     630773006001023868886BAG-SEALERS 10PCE      0000001000+00002630+00000+0001T   00002630+0000001025          1400 SI5214               2AZ
630773003630773047-000507     630773006001023684479PLUG-ADAPTOR EURO TWIN 0000002000+00001753+00000+0001T   00001753+0000001025          1400 SI5880               2AZ
630773004630773133-001218     630773006003000622443IRON REST SILICONE     0000002000+00004385+00000+0001T   00004385+0000001025          1400 SI5212               2AZ
630773005630773105-001038     630773006003000615315CONTAINER W/VENT 1450ml0000003000+00002630+00000+0001T   00003507+0008161025          1400 SI5210               2AZ
630773006630773105-007555     630773006003000485796STORAGE BOX CLEAR NICHE0000001000+00009648+00000+0001T   00009648+0000001025          1400 SI5210               2AZ
630773007630773112-116069     630773006009681820277TCS CARRIER BAG JUMBO  0000001000+00000048+00000+0001T   00000048+0000001025          1400 SI5090               2AZ
630774000630774               630774               170213GJ     1400+00000+GJ0000015609+0000015609+000000000+000002187+0000017790+0000000006+I20000000000+0000017790+Z
630774001630774567-075497     630774009780799371895BK NOVEL ROMANCE AFR   0000001000+00006139+00000+0001T   00006139+0000001026          1400 SI5757               2AZ
630774002630774567-075497     630774009780799371888BK NOVEL ROMANCE AFR   0000001000+00006139+00000+0001T   00006139+0000001026          1400 SI5757               2AZ
630774003630774077-000323     630774006001023677563G/BAG 25X32CM E/DAY FLO0000001000+00001578+00000+0001T   00001578+0000001026          1400 SI5112               2AZ
630774004630774077-000309     630774006001023608604GIFT-BAG 25X32CM GLOSS 0000001000+00001753+00000+0001T   00001753+0000001026          1400 SI5112               2AZ
630775000630775               630775               170213GJ     1400+00000+GJ0000006139+0000006139+000000000+000000860+0000006990+0000000009+I20000000000+0000006990+Z
630775001630775007-000890-17  630775006003000645671CALENDAR 2017 ASSTD    0000001000+00006139+00000+0001T   00006139+0000001027          1400 SI5130               2AZ
630776000630776               630776               170213GJ     1400+00000+GJ0000002630+0000002630+000000000+000000369+0000002999+0000000000+I40000002999+0000000000+Z
630776001630776077-000270     630776006003000395453GIFT-BAG PPR JMB 33X45 0000001000+00002630+00000+0001T   00002630+0000001029          1400 SI5112               2AZ
630777000630777               630777               170213GJ     1400+00000+GJ0000001051+0000001051+000000000+000000148+0000001190+0000000009+I20000000000+0000001190+Z
630777001630777903-002890     630777008935001721352MENTOS GUM PURE F/MINT 0000001000+00001051+00000+0001T   00001051+0000001030          1400 SI5150               2AZ
630778000630778               630778               170213GJ     1400+00000+GJ0000009691+0000009691+000000000+000001360+0000011050+0000000001+I20000000000+0000011050+Z
630778001630778012-000001     630778006003000331048MICRO PLATE-COVER 26X6 0000001000+00001753+00000+0001T   00002192+0008191031          1400 SI5300               2AZ
630778002630778105-001038     630778006003000615315CONTAINER W/VENT 1450ml0000003000+00002630+00000+0001T   00003507+0008161031          1400 SI5210               2AZ
630778003630778112-116069     630778006009681820277TCS CARRIER BAG JUMBO  0000001000+00000048+00000+0001T   00000048+0000001031          1400 SI5090               2AZ
630779000630779               630779               170213GJ     1400+00000+GJ0000019295+0000019295+000000000+000002703+0000021990+0000000008+I20000000000+0000021990+Z
630779001630779365-003115     630779006003000157525PLAY-SET IRON+BOARD+ACC0000001000+00016665+00000+0001T   00016665+0000001032          1400 SI5725               2AZ
630779002630779046-000011-A   630779006003000438891BATTERIES SIZE:AA  4PCE0000001000+00002630+00000+0001T   00002630+0000001032          1400 SI5312               2AZ
630780000630780               630780               170213GJ     1400+00000+GJ0000026314+0000026314+000000000+000003684+0000029998+0000000000+I40000029998+0000000000+Z
630780001630780007-010503     630780006003000455393WIPE & CHALK 90X60CM   0000001000+00026314+00000+0001T   00026314+0000001041          1400 DJ3130               2AZ
630781000630781               630781               170213GJ     1400+00000+GJ0000007014+0000007014+000000000+000000982+0000007996+0000000000+I40000007996+0000000000+Z
630781001630781031-000868-C   630781006001023798596P/FRAME PL BLCK 20X25CM0000002000+00003507+00000+0001T   00003507+0000001044          1400 SI5510               2AZ
630782000630782               630782               170213GJ     1400+00000+GJ0000008635+0000008635+000000000+000001212+0000009847+0000000000+I40000009847+0000000000+Z
630782001630782079-000206     630782006003000639700PENCIL CRAYONS THERAPY 0000001000+00001753+00000+0001T   00001753+0000001049          1400 SI5130               2AZ
630782002630782566-002000     630782000721129013206STICKERS CRYSTAL ASSTD 0000001000+00000700+00000+0001T   00000700+0000001049          1400 SI5130               2AZ
630782003630782567-011437     630782009781847508683BK COLOURING GIRLS     0000001000+00003507+00000+0001T   00003507+0000001049          1400 SI5757               2AZ
630782004630782903-002890     630782008935001721352MENTOS GUM PURE F/MINT 0000001000+00001051+00000+0001T   00001051+0000001049          1400 SI5150               2AZ
630782005630782903-000138     630782006002099004314SWT GS WINE GUMS 60G   0000002000+00000788+00000+0001T   00000788+0000001049          1400 SI5150               2AZ
630782006630782112-116069     630782006009681820277TCS CARRIER BAG JUMBO  0000001000+00000048+00000+0001T   00000048+0000001049          1400 SI5090               2AZ
630783000630783               630783               170213GJ     1400+00000+GJ0000003507+0000003507+000000000+000000491+0000003990+0000000008+I20000000000+0000003990+Z
630783001630783033-000652     630783006003000364282HAIR BRUSH 24cm ASSTD  0000001000+00003507+00000+0001T   00003507+0000001054          1400 DJ3200               2AZ
630784000630784               630784               170213GJ     1400+00000+GJ0000001490+0000001490+000000000+000000209+0000001690+0000000009+I20000000000+0000001690+Z
630784001630784464-000106     630784006001023171153PLAYING-CARDS (SINGLE) 0000001000+00001490+00000+0001T   00001490+0000001059          1400 SI5785               2AZ
630785000630785               630785               170213GJ     1400+00000+GJ0000015347+0000015347+000000000+000002150+0000017490+0000000007+I20000000000+0000017490+Z
630785001630785368-000637     630785006001023874092PLUSH BEAR SLEEPING LOV0000001000+00011402+00000+0001T   00012279+0006471112          1400 DJ3745               2AZ
630785002630785080-000122     630785006003000237678CARD & ENVLPE -GET WELL0000001000+00001753+00000+0001T   00001753+0000001112          1400 DJ3112               2AZ
630785003630785077-000309-A   630785006003000671007GIFT-BAG HOLOGRAM JMB  0000001000+00002192+00000+0001T   00002192+0000001112          1400 DJ3112               2AZ
630786000630786               630786               170213GJ     1400+00000+GJ0000005262+0000005262+000000000+000000737+0000005990+0000000009+I20000000000+0000005990+Z
630786001630786018-019000     630786006003000557288MUG OCC. LOVE JUMBO    0000001000+00005262+00000+0001T   00005262+0000001117          1400 SI5515               2AZ
630787000630787               630787               170213GJ     1400+00000+GJ0000001928+0000001928+000000000+000000270+0000002198+0000000000+I40000002198+0000000000+Z
630787001630787174-008032     630787006009654960603TRAVEL BOTTLES 50ml    0000001000+00001928+00000+0001T   00001928+0000001119          1400 SI5205               2AZ
630788000630788               630788               170213GJ     1400+00000+GJ0000013188+0000013188+000000000+000001848+0000015030+0000000006+I20000000000+0000015030+Z
630788001630788365-005267     630788006001023584366P/SET KITCHEN BAKING PL0000001000+00003507+00000+0001T   00003507+0000001125          1400 SI5725               2AZ
630788002630788466-000584     630788006001023628787SKIPPING-ROPE          0000001000+00002630+00000+0001T   00002630+0000001125          1400 SI5785               2AZ
630788003630788562-000070     630788006003000600748EDU PLAY DOUGH 50g 8pc 0000001000+00007016+00000+0001T   00007016+0000001125          1400 SI5755               2AZ
630788004630788112-116038     630788006009681820246TCS CARRIER BAG MIDI   0000001000+00000035+00000+0001T   00000035+0000001125          1400 SI5090               2AZ
630789000630789               630789               170213GJ     1400+00000+GJ0000003155+0000003155+000000000+000000443+0000003590+0000000008+I20000000000+0000003590+Z
630789001630789567-011497     630789000814625012795BK COLOURING 96P GHOUL 0000001000+00002630+00000+0001T   00002630+0000001126          1400 SI5757               2AZ
630789002630789007-000145     630789006009635833087BK EXERCISE 72PG A4    0000001000+00000525+00000+0001T   00000525+0000001126          1400 SI5130               2AZ
630790000630790               630790               170213GJ     1400+00000+GJ0000001578+0000001578+000000000+000000221+0000001790+0000000009+I20000000000+0000001790+Z
630790001630790018-000127     630790006001023380289MUG OCC STRAIGHT LOVE  0000001000+00001578+00000+0001T   00001753+0006471135          1400 DJ3515               2AZ
630791000630791               630791               170213GJ     1400+00000+GJ0000004420+0000004420+000000000+000000619+0000005039+0000000000+I40000005039+0000000000+Z
630791001630791031-000870-A   630791006001023798626P/FRAME WOOD WHITE-PINE0000001000+00004385+00000+0001T   00004385+0000001140          1400 SI5510               2AZ
630791002630791112-116038     630791006009681820246TCS CARRIER BAG MIDI   0000001000+00000035+00000+0001T   00000035+0000001140          1400 SI5090               2AZ
630792000630792               630792               170213GJ     1400+00000+GJ0000004385+0000004385+000000000+000000614+0000004990+0000000009+I20000000000+0000004990+Z
630792001630792159-000216     630792006001023195371SHOWER-CURTAIN 183cm   0000001000+00004385+00000+0001T   00004385+0000001141          1400 SI5200               2AZ
630793000630793               630793               170213GJ     1400+00000+GJ0000002628+0000002628+000000000+000000368+0000002990+0000000006+I20000000000+0000002990+Z
630793001630793903-000194     630793006009826020616SWT CHOC RP LOLLY 25G  0000002000+00001314+00000+0001T   00001314+0000001142          1400 SI5150               2AZ
630794000630794               630794               170213GJ     1400+00000+GJ0000007453+0000007453+000000000+000001044+0000008490+0000000007+I20000000000+0000008490+Z
630794001630794075-000412     630794006001023855299SHOPPER-BASKET PL      0000001000+00005700+00000+0001T   00005700+0000001142          1400 SI5160               2AZ
630794002630794162-083941     630794006001492839417SS HEADBANDS           0000001000+00001753+00000+0001T   00001753+0000001142          1400 SI5160               2AZ
630795000630795               630795               170213GJ     1400+00000+GJ0000015788+0000015788+000000000+000002211+0000017990+0000000009+I20000000000+0000017990+Z
630795001630795361-003370     630795006001023793676DOLL 29cm MOTHER+BABY  0000001000+00015788+00000+0001T   00015788+0000001147          1400 SI5725               2AZ
630796000630796               630796               170213GJ     1400+00000+GJ0000002227+0000002227+000000000+000000312+0000002530+0000000009+I20000000000+0000002530+Z
630796001630796563-000318-L   630796006003000407088SERVIETTES 33cm RED    0000001000+00002192+00000+0001T   00002192+0000001150          1400 SI5214               2AZ
630796002630796112-116038     630796006009681820246TCS CARRIER BAG MIDI   0000001000+00000035+00000+0001T   00000035+0000001150          1400 SI5090               2AZ
630797000630797               630797               170213GJ     1400+00000+GJ0000001578+0000001578+000000000+000000221+0000001790+0000000009+I20000000000+0000001790+Z
630797001630797077-000315     630797006003000181186GIFT-BAG 20x28cm MATT  0000001000+00001578+00000+0001T   00001578+0000001206          1400 SI5112               2AZ
630798000630798               630798               170213GJ     1400+00000+GJ0000000876+0000000876+000000000+000000123+0000000990+0000000009+I20000000000+0000000990+Z
630798001630798083-000295     630798006001023898562LIGHTER-GAS BUTANE 18ml0000001000+00000876+00000+0001T   00000876+0000001207          1400 SI5315               2AZ
630799000630799               630799               170213GJ     1400+00000+GJ0000008538+0000008538+000000000+000001198+0000009736+0000000000+I40000009736+0000000000+Z
630799001630799566-000308     630799006003000522521STICKER TAPE 3PCS      0000001000+00002630+00000+0001T   00002630+0000001211          1400 SI5130               2AZ
630799002630799566-100009     630799006003000102914WED STIK EMBOSSED FOIL 0000001000+00002630+00000+0001T   00002630+0000001211          1400 SI5130               2AZ
630799003630799079-013032-B   630799006003000389445MIXED SHAPES           0000001000+00001753+00000+0001T   00001753+0000001211          1400 SI5130               2AZ
630799004630799079-006494     630799006003000159864GLITTER GLUE 5PCE 11cm 0000001000+00001490+00000+0001T   00001490+0000001211          1400 SI5130               2AZ
630799005630799112-116038     630799006009681820246TCS CARRIER BAG MIDI   0000001000+00000035+00000+0001T   00000035+0000001211          1400 SI5090               2AZ
630800000630800               630800               170213GJ     1400+00000+GJ0000012278+0000012278+000000000+000001720+0000013990+0000000008+I20000000000+0000013990+Z
630800001630800567-075497     630800009780799371871BK NOVEL ROMANCE AFR   0000001000+00006139+00000+0001T   00006139+0000001221          1400 SI5757               2AZ
630800002630800567-075497     630800009780799371857BK NOVEL ROMANCE AFR   0000001000+00006139+00000+0001T   00006139+0000001221          1400 SI5757               2AZ
630801000630801               630801               170213GJ     1400+00000+GJ0000002628+0000002628+000000000+000000369+0000002990+0000000007+I20000000000+0000002990+Z
630801001630801903-000155     630801006009803374435SWT LOLLY I LUV U HEART0000002000+00000525+00000+0001T   00000525+0000001222          1400 SI5150               2AZ
630801002630801077-000303     630801006001023593757GIFT-BAG PAPER MED     0000001000+00001578+00000+0001T   00001578+0000001222          1400 SI5112               2AZ
630802000630802               630802               170213GJ     1400+00000+GJ0000000874+0000000874+000000000+000000124+0000000990+0000000008+I20000000000+0000000990+Z
630802001630802080-000133-A   630802006003000647019MINI VALENTINES CARD   0000002000+00000437+00000+0001T   00000437+0000001224          1400 DJ3112               2AZ
630803000630803               630803               170213GJ     1400+00000+GJ0000000964+0000000964+000000000+000000135+0000001090+0000000009+I20000000000+0000001090+Z
630803001630803903-000843     630803008693029031067SWT GUMMY JELAXY 80G   0000001000+00000964+00000+0001T   00000964+0000001225          1400 DJ3150               2AZ
630804000630804               630804               170213GJ     1400+00000+GJ0000007400+0000007400+000000000+000001037+0000008437+0000000000+I40000008437+0000000000+Z
630804001630804001-000175     630804006001023788108B/MUG GLS LOVE 380ML   0000001000+00004385+00000+0001T   00004385+0000001240          1400 SI5515               2AZ
630804002630804039-000108     630804006001023524034TEA-LITE CANDLES 8PCE  0000002000+00001490+00000+0001T   00001490+0000001240          1400 SI5510               2AZ
630804003630804112-116038     630804006009681820246TCS CARRIER BAG MIDI   0000001000+00000035+00000+0001T   00000035+0000001240          1400 SI5090               2AZ
630805000630805               630805               170213GJ     1400+00000+GJ0000000437+0000000437+000000000+000000062+0000000499+0000000000+I40000000499+0000000000+Z
630805001630805080-000133-A   630805006003000647019MINI VALENTINES CARD   0000001000+00000437+00000+0001T   00000437+0000001244          1400 SI5112               2AZ
630806000630806               630806               170213GJ     1400+00000+GJ0000001578+0000001578+000000000+000000221+0000001790+0000000009+I20000000000+0000001790+Z
630806001630806077-000303     630806006001023593757GIFT-BAG PAPER MED     0000001000+00001578+00000+0001T   00001578+0000001245          1400 SI5112               2AZ
630807000630807               630807               170213GJ     1400+00000+GJ0000000876+0000000876+000000000+000000123+0000000990+0000000009+I20000000000+0000000990+Z
630807001630807077-000314     630807006003000181148GIFT-BAG 11X14CM MATT  0000001000+00000876+00000+0001T   00000876+0000001343          1400 SI5112               2AZ
630808000630808               630808               170213GJ     1400+00000+GJ0000001490+0000001490+000000000+000000209+0000001690+0000000009+I20000000000+0000001690+Z
630808001630808077-000304     630808006001023483232GIFT-BAG 25X32CM E/DAY 0000001000+00001490+00000+0001T   00001490+0000001445          1400 SI5112               2AZ
630809000630809               630809               170213GJ     1400+00000+GJ0000002630+0000002630+000000000+000000369+0000002990+0000000009+I20000000000+0000002990+Z
630809001630809077-000270     630809006003000395453GIFT-BAG PPR JMB 33X45 0000001000+00002630+00000+0001T   00002630+0000001448          1400 SI5112               2AZ
630810000630810               630810               170213GJ     1400+00000+GJ0000007189+0000007189+000000000+000001008+0000008190+0000000007+I20000000000+0000008190+Z
630810001630810038-001805     630810006003000466405DOILIES PAPER 60PC 3ASS0000001000+00003069+00000+0001T   00003069+0000001449          1400 SI5300               2AZ
630810002630810903-002891     630810008935001721376MENTOS GUM WINTERGREEN 0000001000+00001051+00000+0001T   00001051+0000001449          1400 SI5150               2AZ
630810003630810038-001805     630810006003000466405DOILIES PAPER 60PC 3ASS0000001000+00003069+00000+0001T   00003069+0000001449          1400 SI5300               2AZ
630811000630811               630811               170213GJ     1400+00000+GJ0000005730+0000005730+000000000+000000804+0000006534+0000000000+I40000006534+0000000000+Z
630811001630811306-001622     630811006003000450091INNER SOLES 1-PAIR     0000001000+00002630+00000+0001T   00002630+0000001452          1400 SI5200               2AZ
630811002630811007-000555     630811006001023848239MEMO-PAD MINI LOVE     0000005000+00000613+00000+0001T   00000613+0000001452          1400 SI5130               2AZ
630811003630811112-116038     630811006009681820246TCS CARRIER BAG MIDI   0000001000+00000035+00000+0001T   00000035+0000001452          1400 SI5090               2AZ
630812000630812               630812               170213GJ     1400+00000+GJ0000001753+0000001753+000000000+000000246+0000001990+0000000009+I20000000000+0000001990+Z
630812001630812080-000117     630812006003000236350CARD & ENVELOPE THANK U0000001000+00001753+00000+0001T   00001753+0000001455          1400 SI5112               2AZ
630813000630813               630813               170213GJ     1400+00000+GJ0000001753+0000001753+000000000+000000246+0000001990+0000000009+I20000000000+0000001990+Z
630813001630813084-060100     630813006003000092710TWEEZERS SCISSORS 8CM  0000001000+00001753+00000+0001T   00001753+0000001505          1400 SI5200               2AZ
630814000630814               630814               170213GJ     1400+00000+GJ0000003506+0000003506+000000000+000000492+0000003990+0000000008+I20000000000+0000003990+Z
630814001630814036-000063     630814006009654960436COATHANGERS VIRGIN 5PCE0000002000+00001753+00000+0001T   00001753+0000001506          1400 SI5212               2AZ
630815000630815               630815               170213GJ     1400+00000+GJ0000002192+0000002192+000000000+000000307+0000002490+0000000009+I20000000000+0000002490+Z
630815001630815566-000031     630815006003000283910STICKER BK TEACHER STIC0000001000+00002192+00000+0001T   00002192+0000001517          1400 SI5130               2AZ
630816000630816               630816               170213GJ     1400+00000+GJ0000001402+0000001402+000000000+000000197+0000001590+0000000009+I20000000000+0000001590+Z
630816001630816304-001204     630816006001023737984FLOWER OCC. TEDDY/ROSES0000001000+00001402+00000+0001T   00001490+0006471518          1400 SI5510               2AZ
630817000630817               630817               170213GJ     1400+00000+GJ0000004433+0000004433+000000000+000000621+0000005050+0000000004+I20000000000+0000005050+Z
630817001630817036-000405     630817006001023630247CLOTHES DRYER PL 18-PEG0000001000+00004385+00000+0001T   00004385+0000001520          1400 SI5212               2AZ
630817002630817112-116069     630817006009681820277TCS CARRIER BAG JUMBO  0000001000+00000048+00000+0001T   00000048+0000001520          1400 SI5090               2AZ
630818000630818               630818               170213GJ     1400+00000+GJ0000001613+0000001613+000000000+000000226+0000001830+0000000009+I20000000000+0000001830+Z
630818001630818018-000127     630818006001023380289MUG OCC STRAIGHT LOVE  0000001000+00001578+00000+0001T   00001753+0006471521          1400 SI5515               2AZ
630818002630818112-116038     630818006009681820246TCS CARRIER BAG MIDI   0000001000+00000035+00000+0001T   00000035+0000001521          1400 SI5090               2AZ
630819000630819               630819               170213GJ     1400+00000+GJ0000005875+0000005875+000000000+000000823+0000006690+0000000008+I20000000000+0000006690+Z
630819001630819050-000887-TS  630819006003000688210PADLOCK COMBO 35mm 8DIG0000001000+00004385+00000+0001T   00004385+0000001522          1400 SI5855               2AZ
630819002630819007-000566     630819006003000640898NOVELTY PHONE NOTE-PAD 0000001000+00001490+00000+0001T   00001490+0000001522          1400 SI5130               2AZ
630820000630820               630820               170213GJ     1400+00000+GJ0000009679+0000009679+000000000+000001356+0000011030+0000000005+I20000000000+0000011030+Z
630820001630820079-000277     630820006003000160600PAINT-BRUSHES 15PCE    0000001000+00002630+00000+0001T   00002630+0000001524          1400 SI5130               2AZ
630820002630820079-011526     630820006003000408375GLITTER & SAND ART     0000002000+00003507+00000+0001T   00003507+0000001524          1400 SI5130               2AZ
630820003630820112-116038     630820006009681820246TCS CARRIER BAG MIDI   0000001000+00000035+00000+0001T   00000035+0000001524          1400 SI5090               2AZ
630821000630821               630821               170213GJ     1400+00000+GJ0000001753+0000001753+000000000+000000246+0000001999+0000000000+I40000001999+0000000000+Z
630821001630821088-000084     630821006001023798060P/POURRI 120G ASSTD    0000001000+00001753+00000+0001T   00001753+0000001528          1400 SI5212               2AZ
630822000630822               630822               170213GJ     1400+00000+GJ0000002192+0000002192+000000000+000000307+0000002490+0000000009+I20000000000+0000002490+Z
630822001630822566-000359     630822006003000582709STICKER BOOK LOVE SPARK0000001000+00002192+00000+0001T   00002192+0000001529          1400 SI5130               2AZ
630823000630823               630823               170213GJ     1400+00000+GJ0000001788+0000001788+000000000+000000251+0000002030+0000000009+I20000000000+0000002030+Z
630823001630823206-000120     630823006003000628308PEELER CARROT SHARPENER0000001000+00001753+00000+0001T   00001753+0000001530          1400 SI5321               2AZ
630823002630823112-116038     630823006009681820246TCS CARRIER BAG MIDI   0000001000+00000035+00000+0001T   00000035+0000001530          1400 SI5090               2AZ
630824000630824               630824               170213GJ     1400+00000+GJ0000007488+0000007488+000000000+000001049+0000008530+0000000007+I20000000000+0000008530+Z
630824001630824365-005267     630824006001023584366P/SET KITCHEN BAKING PL0000001000+00003507+00000+0001T   00003507+0000001534          1400 SI5725               2AZ
630824002630824002-000715     630824006001023806574CUTTING-BOARD 28x20cm  0000001000+00003946+00000+0001T   00003946+0000001534          1400 SI5300               2AZ
630824003630824112-116038     630824006009681820246TCS CARRIER BAG MIDI   0000001000+00000035+00000+0001T   00000035+0000001534          1400 SI5090               2AZ
630825000630825               630825               170213GJ     1400+00000+GJ0000005297+0000005297+000000000+000000742+0000006030+0000000009+I20000000000+0000006030+Z
630825001630825018-019000     630825006003000557288MUG OCC. LOVE JUMBO    0000001000+00005262+00000+0001T   00005262+0000001534          1400 SI5515               2AZ
630825002630825112-116038     630825006009681820246TCS CARRIER BAG MIDI   0000001000+00000035+00000+0001T   00000035+0000001534          1400 SI5090               2AZ
630826000630826               630826               170213GJ     1400+00000+GJ0000020656+0000020656+000000000+000002894+0000023550+0000000000+I40000023550+0000000000+Z
630826001630826018-050000     630826006003000412679MUG OCC LOVE TWIN BEAR 0000001000+00006139+00000+0001T   00006139+0000001543          1400 SI5515               2AZ
630826002630826080-000109     630826006003000237203CARD&ENVLPE BDAY-BRIGHT0000001000+00001753+00000+0001T   00001753+0000001543          1400 SI5112               2AZ
630826003630826006-000190     630826006003000685530BALLOONS LOVE 81x91cm  0000001000+00004385+00000+0001T   00004385+0000001543          1400 SI5131               2AZ
630826004630826082-096891     630826006001492968919SUNGLASS MENS MASK     0000001000+00006139+00000+0001T   00006139+0000001543          1400 SI5160               2AZ
630826005630826080-000127     630826006003000424351VALENTINES DAY 36x24CM 0000001000+00002192+00000+0001T   00002192+0000001543          1400 SI5112               2AZ
630826006630826112-116069     630826006009681820277TCS CARRIER BAG JUMBO  0000001000+00000048+00000+0001T   00000048+0000001543          1400 SI5090               2AZ
630827000630827               630827               170213GJ     1400+00000+GJ0000007892+0000007892+000000000+000001106+0000008998+0000000000+I40000008998+0000000000+Z
630827001630827366-006103     630827006001023786944DRESS UP FACE PAINT SET0000001000+00002630+00000+0001T   00002630+0000001547          1400 SI5131               2AZ
630827002630827466-000615     630827006003000535828BALL SOC MINI HOLOGRAM 0000001000+00005262+00000+0001T   00005262+0000001547          1400 SI5785               2AZ
630828000630828               630828               170213GJ     1400+00000+GJ0000000876+0000000876+000000000+000000123+0000000990+0000000009+I20000000000+0000000990+Z
630828001630828903-000483     630828006001704001410SWT LIQUOR SML SORT 60G0000001000+00000876+00000+0001T   00000876+0000001548          1400 SI5150               2AZ
630829000630829               630829               170213GJ     1400+00000+GJ0000011225+0000011225+000000000+000001572+0000012790+0000000007+I20000000000+0000012790+Z
630829001630829301-085003     630829006003000420827ORN OCCASION LOVE KEY  0000001000+00005262+00000+0001T   00005262+0000001549          1400 SI5505               2AZ
630829002630829080-000124     630829006003000297733CARD & ENV VALENTINES  0000001000+00001578+00000+0001T   00001578+0000001549          1400 SI5112               2AZ
630829003630829006-000190     630829006003000685530BALLOONS LOVE 81x91cm  0000001000+00004385+00000+0001T   00004385+0000001549          1400 SI5131               2AZ
630830000630830               630830               170213GJ     1400+00000+GJ0000001261+0000001261+000000000+000000177+0000001430+0000000008+I20000000000+0000001430+Z
630830001630830304-001011     630830006001023806727FLWR ROSE RED W/BEAR   0000002000+00000613+00000+0001T   00000788+0006471552          1400 SI5510               2AZ
630830002630830112-116038     630830006009681820246TCS CARRIER BAG MIDI   0000001000+00000035+00000+0001T   00000035+0000001552          1400 SI5090               2AZ
630831000630831               630831               170213GJ     1400+00000+GJ0000013060+0000013060+000000000+000001831+0000014890+0000000001+I20000000000+0000014890+Z
630831001630831077-000299     630831006003000395576G/BAG 32x25cm LRG LOVE 0000001000+00001490+00000+0001T   00001490+0000001553          1400 SI5112               2AZ
630831002630831018-050000     630831006003000412679MUG OCC LOVE TWIN BEAR 0000001000+00006139+00000+0001T   00006139+0000001553          1400 SI5515               2AZ
630831003630831080-000133-A   630831006003000647019MINI VALENTINES CARD   0000001000+00000437+00000+0001T   00000437+0000001553          1400 SI5112               2AZ
630831004630831018-000170     630831006001023775528MUG OCC. LOVE 2PC MINI 0000001000+00002192+00000+0001T   00002192+0000001553          1400 SI5515               2AZ
630831005630831018-000177     630831006001023797513MUG MINI LOVE ASSTD    0000001000+00000700+00000+0001T   00000700+0000001553          1400 SI5515               2AZ
630831006630831903-000200     630831006009826020234SWT CHOC RP CHOCO 23G  0000001000+00000788+00000+0001T   00000788+0000001553          1400 SI5150               2AZ
630831007630831903-000194     630831006009826020616SWT CHOC RP LOLLY 25G  0000001000+00001314+00000+0001T   00001314+0000001553          1400 SI5150               2AZ
630832000630832               630832               170213GJ     1400+00000+GJ0000010380+0000010380+000000000+000001455+0000011835+0000000000+I40000011835+0000000000+Z
630832001630832089-000184     630832006003000577323KEY CHAIN OWL POLY MINI0000001000+00003069+00000+0001T   00003069+0000001555          1400 SI5205               2AZ
630832002630832028-000488     630832006001023458926TABLE-CLAMPS 4PCE   H&L0000001000+00004385+00000+0001T   00004385+0000001555          1400 SI5305               2AZ
630832003630832077-000322     630832006001023677532GIFT-BAG 18X23CM E/D FL0000001000+00001227+00000+0001T   00001227+0000001555          1400 SI5112               2AZ
630832004630832903-000519     630832006001704012805SWT MS LIQ-O-GHETTI    0000001000+00001227+00000+0001T   00001227+0000001555          1400 SI5150               2AZ
630832005630832112-116038     630832006009681820246TCS CARRIER BAG MIDI   0000001000+00000035+00000+0001T   00000035+0000001555          1400 SI5090               2AZ
630832006630832080-000133     630832006003000535613CARD&ENV MINI ASTD DSGN0000001000+00000437+00000+0001T   00000437+0000001555          1400 SI5112               2AZ
630833000630833               630833               170213GJ     1400+00000+GJ0000009289+0000009289+000000000+000001302+0000010590+0000000001+I20000000000+0000010590+Z
630833001630833077-000303     630833006001023593757GIFT-BAG PAPER MED     0000001000+00001578+00000+0001T   00001578+0000001556          1400 SI5112               2AZ
630833002630833018-000130     630833006001023867537MUG OCC LOVE MINI+HEART0000001000+00003507+00000+0001T   00003507+0000001556          1400 SI5515               2AZ
630833003630833903-000155     630833006009803374435SWT LOLLY I LUV U HEART0000001000+00000525+00000+0001T   00000525+0000001556          1400 SI5150               2AZ
630833004630833903-000194     630833006009826020616SWT CHOC RP LOLLY 25G  0000002000+00001314+00000+0001T   00001314+0000001556          1400 SI5150               2AZ
630833005630833903-002850     630833000000087108262MENTOS ROLL FRUIT      0000001000+00001051+00000+0001T   00001051+0000001556          1400 SI5150               2AZ
630834000630834               630834               170213GJ     1400+00000+GJ0000008768+0000008768+000000000+000001229+0000009990+0000000007+I20000000000+0000009990+Z
630834001630834089-000192-A   630834006001023901774KEY-CHAIN ACRYLIC      0000001000+00000876+00000+0001T   00000876+0000001557          1400 SI5205               2AZ
630834002630834018-050000     630834006003000412679MUG OCC LOVE TWIN BEAR 0000001000+00006139+00000+0001T   00006139+0000001557          1400 SI5515               2AZ
630834003630834077-000316     630834006001023609731GIFT-BAG 25X32CM MATT  0000001000+00001753+00000+0001T   00001753+0000001557          1400 SI5112               2AZ
630835000630835               630835               170213GJ     1400+00000+GJ0000007488+0000007488+000000000+000001049+0000008530+0000000007+I20000000000+0000008530+Z
630835001630835174-000314     630835006003000053575TRAVEL SEWING KIT      0000001000+00003507+00000+0001T   00003507+0000001558          1400 SI5205               2AZ
630835002630835036-000014     630835006001246500822LINT REMOVER 40x SHEET 0000001000+00003946+00000+0001T   00003946+0000001558          1400 SI5212               2AZ
630835003630835112-116038     630835006009681820246TCS CARRIER BAG MIDI   0000001000+00000035+00000+0001T   00000035+0000001558          1400 SI5090               2AZ
630836000630836               630836               170213GJ     1400+00000+GJ0000001400+0000001400+000000000+000000196+0000001590+0000000006+I20000000000+0000001590+Z
630836001630836903-000070     630836006001704001106SWT TOFFEE CREAMY 35g  0000002000+00000700+00000+0001T   00000700+0000001558          1400 SI5150               2AZ
630837000630837               630837               170213GJ     1400+00000+GJ0000008819+0000008819+000000000+000001235+0000010054+0000000000+I40000010054+0000000000+Z
630837001630837019-000040     630837006001023673640VASE GLS 30CM CYLINDER 0000001000+00008771+00000+0001T   00008771+0000001600          1400 SI5510               2AZ
630837002630837112-116069     630837006009681820277TCS CARRIER BAG JUMBO  0000001000+00000048+00000+0001T   00000048+0000001600          1400 SI5090               2AZ
630838000630838               630838               170213GJ     1400+00000+GJ0000000437+0000000437+000000000+000000062+0000000490+0000000009+I20000000000+0000000490+Z
630838001630838080-000133-A   630838006003000647019MINI VALENTINES CARD   0000001000+00000437+00000+0001T   00000437+0000001600          1400 SI5112               2AZ
630839000630839               630839               170213GJ     1400+00000+GJ0000000437+0000000437+000000000+000000062+0000000490+0000000009+I20000000000+0000000490+Z
630839001630839080-000133-A   630839006003000647019MINI VALENTINES CARD   0000001000+00000437+00000+0001T   00000437+0000001602          1400 SI5112               2AZ
630840000630840               630840               170213GJ     1400+00000+GJ0000010130+0000010130+000000000+000001419+0000011540+0000000009+I20000000000+0000011540+Z
630840001630840263-000188     630840006001023790927CAR RACER 24cm         0000001000+00005262+00000+0001T   00005262+0000001622          1400 SI5710               2AZ
630840002630840304-001011     630840006001023806727FLWR ROSE RED W/BEAR   0000001000+00000613+00000+0001T   00000788+0006471622          1400 SI5510               2AZ
630840003630840261-000121     630840006001023341600GUN-CAPS 8-SHOT CARD-9 0000001000+00000700+00000+0001T   00000700+0000001622          1400 SI5710               2AZ
630840004630840261-000035     630840006003000550258GUN 4PC POLICE SET     0000001000+00003507+00000+0001T   00003507+0000001622          1400 SI5710               2AZ
630840005630840112-116069     630840006009681820277TCS CARRIER BAG JUMBO  0000001000+00000048+00000+0001T   00000048+0000001622          1400 SI5090               2AZ
630841000630841               630841               170213GJ     1400+00000+GJ0000038583+0000038583+000000000+000005407+0000043990+0000000000+I40000043990+0000000000+Z
630841001630841368-000111     630841006001023780812PLUSH BEAR/DOG 29CM    0000001000+00012279+00000+0001T   00012279+0000001627          1400 SI5745               2AZ
630841002630841077-000315     630841006003000181186GIFT-BAG 20x28cm MATT  0000001000+00001578+00000+0001T   00001578+0000001627          1400 SI5112               2AZ
630841003630841079-000260     630841006001023886385PAINT TUBS WT BASE 4COL0000001000+00002630+00000+0001T   00002630+0000001627          1400 SI5130               2AZ
630841004630841079-000275     630841006003000160488PAINT-BRUSHES 6PCE PRO 0000001000+00001753+00000+0001T   00001753+0000001627          1400 SI5130               2AZ
630841005630841077-000299-A   630841006003000670888GIFT-BAG PAPER JMB LOVE0000001000+00001753+00000+0001T   00001753+0000001627          1400 SI5112               2AZ
630841006630841368-000637     630841006001023874092PLUSH BEAR SLEEPING LOV0000001000+00011402+00000+0001T   00012279+0006471627          1400 SI5745               2AZ
630841007630841077-000270     630841006003000395453GIFT-BAG PPR JMB 33X45 0000001000+00002630+00000+0001T   00002630+0000001627          1400 SI5112               2AZ
630841008630841077-000299     630841006003000395576G/BAG 32x25cm LRG LOVE 0000001000+00001490+00000+0001T   00001490+0000001627          1400 SI5112               2AZ
630841009630841080-000127     630841006003000424351VALENTINES DAY 36x24CM 0000001000+00002192+00000+0001T   00002192+0000001627          1400 SI5112               2AZ
630841010630841077-000011-C   630841006001023808523TISSUE 10xSHTS RED     0000001000+00000876+00000+0001T   00000876+0000001627          1400 SI5112               2AZ
630842000630842               630842               170213GJ     1400+00000+GJ0000003331+0000003331+000000000+000000467+0000003798+0000000000+I40000003798+0000000000+Z
630842001630842077-000303     630842006001023593757GIFT-BAG PAPER MED     0000001000+00001578+00000+0001T   00001578+0000001629          1400 SI5112               2AZ
630842002630842077-000299-A   630842006003000670888GIFT-BAG PAPER JMB LOVE0000001000+00001753+00000+0001T   00001753+0000001629          1400 SI5112               2AZ
630843000630843               630843               170213GJ     1400+00000+GJ0000005295+0000005295+000000000+000000742+0000006030+0000000007+I20000000000+0000006030+Z
630843001630843567-011344     630843006003000630714BK COLOURING THERAPY 640000001000+00003507+00000+0001T   00003507+0000001630          1400 SI5757               2AZ
630843002630843080-000113     630843006003000237449CARD&ENVLPE - LOVE     0000001000+00001753+00000+0001T   00001753+0000001630          1400 SI5112               2AZ
630843003630843112-116038     630843006009681820246TCS CARRIER BAG MIDI   0000001000+00000035+00000+0001T   00000035+0000001630          1400 SI5090               2AZ
630844000630844               630844               170213GJ     1400+00000+GJ0000001927+0000001927+000000000+000000271+0000002190+0000000008+I20000000000+0000002190+Z
630844001630844002-021040     630844006001023812216PARTY-PICKS 100PCE     0000001000+00000525+00000+0001T   00000525+0000001639          1400 SI5300               2AZ
630844002630844027-009030     630844006002814400100DUSTPAN PL             0000001000+00001402+00000+0001T   00001402+0000001639          1400 SI5212               2AZ
630845000630845               630845               170213GJ     1400+00000+GJ0000020918+0000020918+000000000+000002932+0000023850+0000000000+I40000023850+0000000000+Z
630845001630845361-000599     630845006001023837530DOLL CRAWLING 20cm B/O 0000001000+00007893+00000+0001T   00007893+0000001643          1400 SI5725               2AZ
630845002630845079-000510     630845006001023509079CRAYONS WAX 12-COLOUR  0000001000+00002455+00000+0001T   00002455+0000001643          1400 SI5130               2AZ
630845003630845567-014134     630845006003000560189BOOK COLOURING 96 PAGE 0000001000+00002630+00000+0001T   00002630+0000001643          1400 SI5757               2AZ
630845004630845006-000124     630845006003000625888BALLOONS 10PC MIX COL  0000001000+00001753+00000+0001T   00001753+0000001643          1400 SI5131               2AZ
630845005630845018-050000     630845006003000412679MUG OCC LOVE TWIN BEAR 0000001000+00006139+00000+0001T   00006139+0000001643          1400 SI5515               2AZ
630845006630845112-116069     630845006009681820277TCS CARRIER BAG JUMBO  0000001000+00000048+00000+0001T   00000048+0000001643          1400 SI5090               2AZ
630846000630846               630846               170213GJ     1400+00000+GJ0000001490+0000001490+000000000+000000209+0000001690+0000000009+I20000000000+0000001690+Z
630846001630846077-000399     630846006003000139514GIFT BAG 18X23CM E/DAY 0000001000+00001490+00000+0001T   00001490+0000001644          1400 SI5112               2AZ
630847000630847               630847               170213GJ     1400+00000+GJ0000018898+0000018898+000000000+000002650+0000021548+0000000000+I40000021548+0000000000+Z
630847001630847079-013101     630847006001023863706CRAFT SET DIY PIPE-CLNR0000001000+00002630+00000+0001T   00002630+0000001647          1400 SI5130               2AZ
630847002630847079-000280     630847006003000160723PAINT READYMIX 6PCE    0000001000+00002630+00000+0001T   00002630+0000001647          1400 SI5130               2AZ
630847003630847079-013032-D   630847006003000389643RIBBONS                0000001000+00002630+00000+0001T   00002630+0000001647          1400 SI5130               2AZ
630847004630847002-000685     630847006001023693785K/TOOL P/MASHER H/HOUSE0000001000+00002192+00000+0001T   00002192+0000001647          1400 SI5300               2AZ
630847005630847133-000018     630847006003000583218SWAB MICROFIBRE 30x30cm0000001000+00001753+00000+0001T   00001753+0000001647          1400 SI5212               2AZ
630847006630847567-010161     630847009780000008516BOOK TOP ASSTD MILLS   0000001000+00005262+00000+0001T   00005262+0000001647          1400 SI5757               2AZ
630847007630847112-116069     630847006009681820277TCS CARRIER BAG JUMBO  0000001000+00000048+00000+0001T   00000048+0000001647          1400 SI5090               2AZ
630847008630847200-003024     630847006001023657299REFUSE BAGS 20PCE BLACK0000001000+00001753+00000+0001T   00001753+0000001647          1400 SI5214               2AZ
630848000630848               630848               170213GJ     1400+00000+GJ0000003156+0000003156+000000000+000000442+0000003598+0000000000+I40000003598+0000000000+Z
630848001630848018-000127     630848006001023380289MUG OCC STRAIGHT LOVE  0000002000+00001578+00000+0001T   00001753+0006471650          1400 SI5515               2AZ
630849000630849               630849               170213GJ     1400+00000+GJ0000001578+0000001578+000000000+000000221+0000001790+0000000009+I20000000000+0000001790+Z
630849001630849077-000303     630849006001023593757GIFT-BAG PAPER MED     0000001000+00001578+00000+0001T   00001578+0000001651          1400 SI5112               2AZ
630850000630850               630850               170213GJ     1400+00000+GJ0000002630+0000002630+000000000+000000369+0000002990+0000000009+I20000000000+0000002990+Z
630850001630850077-000388     630850006003000421671G/BAG 25X32CM VALUE PCK0000001000+00002630+00000+0001T   00002630+0000001653          1400 SI5112               2AZ
630851000630851               630851               170213GJ     1400+00000+GJ0000001575+0000001575+000000000+000000222+0000001790+0000000007+I20000000000+0000001790+Z
630851001630851903-000155     630851006009803374435SWT LOLLY I LUV U HEART0000003000+00000525+00000+0001T   00000525+0000001656          1400 SI5150               2AZ
630852000630852               630852               170213GJ     1400+00000+GJ0000001840+0000001840+000000000+000000258+0000002090+0000000008+I20000000000+0000002090+Z
630852001630852077-000302     630852008010410010195GIFT-BAG 18X23CM E/D   0000001000+00000876+00000+0001T   00000876+0000001657          1400 SI5112               2AZ
630852002630852903-000843     630852008693029031067SWT GUMMY JELAXY 80G   0000001000+00000964+00000+0001T   00000964+0000001657          1400 SI5150               2AZ
630853000630853               630853               170213GJ     1400+00000+GJ0000001314+0000001314+000000000+000000184+0000001490+0000000008+I20000000000+0000001490+Z
630853001630853077-000470     630853006003000330171G-BAG DESGN SML 11X14CM0000001000+00001314+00000+0001T   00001314+0000001706          1400 SI5112               2AZ
630854000630854               630854               170213GJ     1400+00000+GJ0000000876+0000000876+000000000+000000123+0000000999+0000000000+I40000000999+0000000000+Z
630854001630854366-007601     630854006003000655472DRESS UP MASK THEATRICA0000001000+00000876+00000+0001T   00000876+0000001710          1400 SI5131               2AZ
630855000630855               630855               170213GJ     1400+00000+GJ0000008769-0000008769-000000000+000001229-0000010000-0000000002+I20000000000+0000010000-Z
630855001630855079-000282     630855006001023493309PAINT TUBS POSTER 12COL0000001000-00002630+00000+0001T   00002630+0000001715          1400 SI51302IC            2 Z
630855002630855007-010500     630855006003000455034WIPE & CHALK 30X20CM   0000001000-00006139+00000+0001T   00006139+0000001715          1400 SI51302IC            2 Z
630856000630856               630856               170213GJ     1400+00000+GJ0000003507+0000003507+000000000+000000491+0000003990+0000000008+I20000000000+0000003990+Z
630856001630856018-000136     630856006001023659026MUG OCC LOVE W/PLUSH   0000001000+00003507+00000+0001T   00003507+0000001716          1400 SI5515               2AZ
630857000630857               630857               170213GJ     1400+00000+GJ0000001753+0000001753+000000000+000000246+0000001990+0000000009+I20000000000+0000001990+Z
630857001630857080-000111     630857006003000252695CARD&ENVELPE - MUSICAL 0000001000+00001753+00000+0001T   00001753+0000001717          1400 SI5112               2AZ
630858000630858               630858               170213GJ     1400+00000+GJ0000000048+0000000048+000000000+000000007+0000000050+0000000005+I20000000000+0000000050+Z
630858001630858112-116069     630858006009681820277TCS CARRIER BAG JUMBO  0000001000+00000048+00000+0001T   00000048+0000001719          1400 SI5090               2AZ
630859000630859               630859               170213GJ     1400+00000+GJ0000011518+0000011518+000000000+000001615+0000013133+0000000000+I40000013133+0000000000+Z
630859001630859304-001204     630859006001023737984FLOWER OCC. TEDDY/ROSES0000001000+00001402+00000+0001T   00001490+0006471722          1400 SI5510               2AZ
630859002630859080-000133-A   630859006003000647019MINI VALENTINES CARD   0000001000+00000437+00000+0001T   00000437+0000001722          1400 SI5112               2AZ
630859003630859162-096856     630859006001492968568#TAG KIDS NECKLACE     0000001000+00002630+00000+0001T   00002630+0000001722          1400 SI5160               2AZ
630859004630859301-085004     630859006003000420469ORN LOVE PLAQUE 21X10CM0000001000+00003507+00000+0001T   00003946+0006471722          1400 SI5505               2AZ
630859005630859018-000136     630859006001023659026MUG OCC LOVE W/PLUSH   0000001000+00003507+00000+0001T   00003507+0000001722          1400 SI5515               2AZ
630859006630859112-116038     630859006009681820246TCS CARRIER BAG MIDI   0000001000+00000035+00000+0001T   00000035+0000001722          1400 SI5090               2AZ
630860000630860               630860               170213GJ     1400+00000+GJ0000010291+0000010291+000000000+000001443+0000011730+0000000004+I20000000000+0000011730+Z
630860001630860077-000452     630860006003000284986G/BAG METALLIC MED EMB 0000001000+00001490+00000+0001T   00001490+0000001723          1400 SI5112               2AZ
630860002630860301-085004     630860006003000420469ORN LOVE PLAQUE 21X10CM0000001000+00003507+00000+0001T   00003946+0006471723          1400 SI5505               2AZ
630860003630860039-001023     630860006003000466337CANDLE TEA-LITE METALIC0000003000+00001753+00000+0001T   00001753+0000001723          1400 SI5510               2AZ
630860004630860112-116038     630860006009681820246TCS CARRIER BAG MIDI   0000001000+00000035+00000+0001T   00000035+0000001723          1400 SI5090               2AZ
630861000630861               630861               170213GJ     1400+00000+GJ0000001314+0000001314+000000000+000000184+0000001490+0000000008+I20000000000+0000001490+Z
630861001630861077-000310     630861006001023608635GIFT-BAG 18X23CM GLOSS 0000001000+00001314+00000+0001T   00001314+0000001723          1400 SI5112               2AZ
630862000630862               630862               170213GJ     1400+00000+GJ0000015817+0000015817+000000000+000002217+0000018034+0000000000+I40000018034+0000000000+Z
630862001630862079-013032-D   630862006003000389643RIBBONS                0000001000+00002630+00000+0001T   00002630+0000001725          1400 SI5130               2AZ
630862002630862162-095026     630862006001492950266#TAG KIDS NK&WR B/FLY  0000001000+00004385+00000+0001T   00004385+0000001725          1400 SI5160               2AZ
630862003630862162-093343     630862006001492933436#TAG KIDS PASTEL BEADED0000001000+00003507+00000+0001T   00003507+0000001725          1400 SI5160               2AZ
630862004630862162-097712     630862006001492977126#TAG KIDS 2PK HEART    0000001000+00002630+00000+0001T   00002630+0000001725          1400 SI5160               2AZ
630862005630862162-096646     630862006001492966465#TAG HOT DEALS KIDS HR 0000001000+00002630+00000+0001T   00002630+0000001725          1400 SI5160               2AZ
630862006630862112-116038     630862006009681820246TCS CARRIER BAG MIDI   0000001000+00000035+00000+0001T   00000035+0000001725          1400 SI5090               2AZ
630863000630863               630863               170213GJ     1400+00000+GJ0000006139+0000006139+000000000+000000860+0000006999+0000000000+I40000006999+0000000000+Z
630863001630863368-000175     630863006003000270316PLUSH BEAR 4 ASSTD 18CM0000001000+00006139+00000+0001T   00006139+0000001726          1400 SI5745               2AZ
630864000630864               630864               170213GJ     1400+00000+GJ0000001753+0000001753+000000000+000000246+0000001990+0000000009+I20000000000+0000001990+Z
630864001630864018-000215     630864006003000580217M/DAILY TULIP PORC LACE0000001000+00001753+00000+0001T   00001753+0000001740          1400 SI5515               2AZ
630865000630865               630865               170213GJ     1400+00000+GJ0000001753+0000001753+000000000+000000246+0000001990+0000000009+I20000000000+0000001990+Z
630865001630865079-000012     630865006001023655332P/CRAYONS 12-COL LONG  0000001000+00001753+00000+0001T   00001753+0000001741          1400 SI5130               2AZ
630866000630866               630866               170213GJ     1400+00000+GJ0000009600+0000009600+000000000+000001346+0000010940+0000000006+I20000000000+0000010940+Z
630866001630866162-097715     630866006001492977157#TAG NEW COLOUR E/PIERC0000001000+00001139+00000+0001T   00001139+0000001744          1400 SI5160               2AZ
630866002630866304-001011     630866006001023806727FLWR ROSE RED W/BEAR   0000001000+00000613+00000+0001T   00000788+0006471744          1400 SI5510               2AZ
630866003630866018-000130     630866006001023867537MUG OCC LOVE MINI+HEART0000001000+00003507+00000+0001T   00003507+0000001744          1400 SI5515               2AZ
630866004630866304-001011     630866006001023806727FLWR ROSE RED W/BEAR   0000001000+00000613+00000+0001T   00000788+0006471744          1400 SI5510               2AZ
630866005630866018-000177     630866006001023797513MUG MINI LOVE ASSTD    0000001000+00000700+00000+0001T   00000700+0000001744          1400 SI5515               2AZ
630866006630866077-000299     630866006003000395576G/BAG 32x25cm LRG LOVE 0000002000+00001490+00000+0001T   00001490+0000001744          1400 SI5112               2AZ
630866007630866112-116069     630866006009681820277TCS CARRIER BAG JUMBO  0000001000+00000048+00000+0001T   00000048+0000001744          1400 SI5090               2AZ
630867000630867               630867               170213GJ     1400+00000+GJ0000006172+0000006172+000000000+000000865+0000007037+0000000000+I40000007037+0000000000+Z
630867001630867006-000344     630867006003000653799GLOW STICKS 6x20cm     0000001000+00003507+00000+0001T   00003507+0000001749          1400 SI5131               2AZ
630867002630867366-002101     630867006003000617715DRESS UP MASK LIGHT UP 0000001000+00002630+00000+0001T   00002630+0000001749          1400 SI5131               2AZ
630867003630867112-116038     630867006009681820246TCS CARRIER BAG MIDI   0000001000+00000035+00000+0001T   00000035+0000001749          1400 SI5090               2AZ
630868000630868               630868               170213GJ     1400+00000+GJ0000003507+0000003507+000000000+000000491+0000003998+0000000000+I40000003998+0000000000+Z
630868001630868562-000020     630868006003000600861EDU PLAY DOUGH 60g 4PC 0000001000+00003507+00000+0001T   00003507+0000001751          1400 SI5755               2AZ
630869000630869               630869               170213GJ     1400+00000+GJ0000008769+0000008769+000000000+000001229+0000009998+0000000000+I40000009998+0000000000+Z
630869001630869564-000024     630869006003000140985BUBBLE W/PAN PLAY SET  0000001000+00002630+00000+0001T   00002630+0000001752          1400 SI5131               2AZ
630869002630869261-003821     630869006003000398713GUN HAND COWBOY PLAYSET0000001000+00006139+00000+0001T   00006139+0000001752          1400 SI5710               2AZ
630870000630870               630870               170213GJ     1400+00000+GJ0000001753+0000001753+000000000+000000246+0000001990+0000000009+I20000000000+0000001990+Z
630870001630870077-000299-A   630870006003000670888GIFT-BAG PAPER JMB LOVE0000001000+00001753+00000+0001T   00001753+0000001753          1400 SI5112               2AZ
630871000630871               630871               170213GJ     1400+00000+GJ0000002630+0000002630+000000000+000000369+0000002999+0000000000+I40000002999+0000000000+Z
630871001630871564-000011     630871006001023865892BUBBLE REFILL 350ml    0000001000+00002630+00000+0001T   00002630+0000001759          1400 SI5131               2AZ
630872000630872               630872               170213GJ     1400+00000+GJ0000003552+0000003552+000000000+000000499+0000004050+0000000001+I20000000000+0000004050+Z
630872001630872903-000138     630872006002099004314SWT GS WINE GUMS 60G   0000001000+00000788+00000+0001T   00000788+0000001800          1400 SI5150               2AZ
630872002630872266-001304     630872006001023560711MARBLES MILKY BAG OF 450000001000+00001227+00000+0001T   00001227+0000001800          1400 SI5710               2AZ
630872003630872304-001011     630872006001023806727FLWR ROSE RED W/BEAR   0000001000+00000613+00000+0001T   00000788+0006471800          1400 SI5510               2AZ
630872004630872077-000302     630872008010410010195GIFT-BAG 18X23CM E/D   0000001000+00000876+00000+0001T   00000876+0000001800          1400 SI5112               2AZ
630872005630872112-116069     630872006009681820277TCS CARRIER BAG JUMBO  0000001000+00000048+00000+0001T   00000048+0000001800          1400 SI5090               2AZ
A17021300                                          11065733GJSLAVE 2                       SI52IC
M17021391                              CASH        GJSLAVE 2                       Z-REPORT No.   630TOTAL (Sales - Refunds)           7623.85       CASH TO BE BANKED                 4029.50       DEBIT CARDS                          0.00       CREDIT CARDS                      3594.35       Z-READING                         7623.85       AIRTIME DEBIT CARD SALES             0.00       AIRTIME CARD SALES                   0.00       OVERS/UNDERS                         0.00       AIRTIME CASH SALES                   0.00       GIFT CARDS                           0.00       GIFT CARD CASH SALES                 0.00       T O T A L  CASH PAYOUTS              0.00                                                                                                                                                                                                                                                                                                                                                      Z
M17021392                              CASH        GJABSENT                                                                                                                                                                                          ANNUAL LEAVE                                                                                                                                                                                    DAY OFF                                                                                                                                                                                         COMMENTS          Z READING R7623.85                                                                                                                                                                                                                                                                                                                                                           Z
Y17021300                                          GJ00000000677945+000109
ZGJ17021321083 SLAVE 2      SALES DATA                     NEXT INVOICE NO.  630873 0630
T086509007-000890-16                                       1611151338550000052ICSLAVE 2
F093985496-028120         1701151017380000032ICSLAVE 2
X GJ Slave 2 First invoice 630763 170213 Last invoice 630872 170213 Next invoice 630873 Total number of records 000000370 clbackup completed 21:08:20
