753215000753215               753215               170213GK     1400+00000+GK0000010288+0000010288+000000000+000001444+0000011732+0000000000+I40000011732+0000000000+Z
753215001753215112-116038     753215006009681820246TCS CARRIER BAG MIDI   0000001000+00000035+00000+0001T   00000035+0000000908          1400 UG2090               2AZ
753215002753215200-000061     753215006003000506996STRAWS DRINKING CURLY  0000002000+00001490+00000+0001T   00001490+0000000908          1400 UG2214               2AZ
753215003753215562-088335     753215006003000425372EVA PUZZLE MAT MINI    0000001000+00001753+00000+0001T   00001753+0000000908          1400 UG2755               2AZ
753215004753215079-013032     753215006003000389209SET LETTERS 2 ASSTD    0000001000+00001753+00000+0001T   00001753+0000000908          1400 UG2130               2AZ
753215005753215079-013032-F   753215006003000496266FOAM NUMBERS           0000001000+00002192+00000+0001T   00002192+0000000908          1400 UG2130               2AZ
753215006753215903-000155     753215006009803374435SWT LOLLY I LUV U HEART0000003000+00000525+00000+0001T   00000525+0000000908          1400 UG2150               2AZ
753216000753216               753216               170213GK     1400+00000+GK0000010545+0000010545+000000000+000001485+0000012030+0000000000+I20000000000+0000012030+Z
753216001753216112-116038     753216006009681820246TCS CARRIER BAG MIDI   0000001000+00000035+00000+0001T   00000035+0000000909          1400 UG2090               2AZ
753216002753216039-000026     753216006001023551610C/TAPERED 25CM M/RED   0000010000+00001051+00000+0001T   00001051+0000000909          1400 UG2510               2AZ
753217000753217               753217               170213GK     1400+00000+GK0000006137+0000006137+000000000+000000860+0000006990+0000000007+I20000000000+0000006990+Z
753217001753217368-000049     753217006003000536955PLUSH BEAR 15cm LOVE   0000001000+00004385+00000+0001T   00004385+0000000910          1400 UG2745               2AZ
753217002753217903-000155     753217006009803374435SWT LOLLY I LUV U HEART0000001000+00000525+00000+0001T   00000525+0000000910          1400 UG2150               2AZ
753217003753217077-000245     753217006001023759214GIFT-RIBBON METALLICx2 0000001000+00001227+00000+0001T   00001227+0000000910          1400 UG2112               2AZ
753218000753218               753218               170213GK     1400+00000+GK0000005696+0000005696+000000000+000000799+0000006495+0000000000+I40000006495+0000000000+Z
753218001753218089-000501     753218006003000622900KEY CHAIN LIGHT LASER  0000001000+00002192+00000+0001T   00002192+0000000924          1400 1IC205               2AZ
753218002753218046-001225-PK2 753218004897006178361BATTERY LITHIUM CR-12250000004000+00000876+00000+0001T   00000876+0000000924          1400 1IC312               2AZ
753219000753219               753219               170213GK     1400+00000+GK0000003507+0000003507+000000000+000000491+0000003990+0000000008+I20000000000+0000003990+Z
753219001753219159-000643     753219006001023767028BACK-BRUSH ASSTD       0000001000+00003507+00000+0001T   00003507+0000000930          1400 UG2200               2AZ
753220000753220               753220               170213GK     1400+00000+GK0000020220+0000020220+000000000+000002832+0000023050+0000000002+I20000000000+0000023050+Z
753220001753220077-000456     753220006003000285549G/BAG METALLIC JMB EMB 0000001000+00002630+00000+0001T   00002630+0000000936          1400 UG2112               2AZ
753220002753220403-000032     753220006003000514731J/HOLDER HEART-SHAPE   0000001000+00017542+00000+0001T   00017542+0000000936          1400 UG2510               2AZ
753220003753220112-116069     753220006009681820277TCS CARRIER BAG JUMBO  0000001000+00000048+00000+0001T   00000048+0000000936          1400 UG2090               2AZ
753221000753221               753221               170213GK     1400+00000+GK0000009681+0000009681+000000000+000001357+0000011030+0000000008+I20000000000+0000011030+Z
753221001753221301-085007     753221006003000673698ORN OCC. LOVE S/PLAQUE 0000001000+00007893+00000+0001T   00007893+0000000938          1400 UG2505               2AZ
753221002753221077-000467     753221006003000329991GIFT-BAG STAMP 18X23CM 0000001000+00001753+00000+0001T   00001753+0000000938          1400 UG2112               2AZ
753221003753221112-116038     753221006009681820246TCS CARRIER BAG MIDI   0000001000+00000035+00000+0001T   00000035+0000000938          1400 UG2090               2AZ
753222000753222               753222               170213GK     1400+00000+GK0000021237+0000021237+000000000+000002980+0000024217+0000000000+I40000024217+0000000000+Z
753222001753222466-000106     753222006003000128112BALL PL 20CM BASKETBALL0000001000+00003507+00000+0001T   00003507+0000000943          1400 UG2785               2AZ
753222002753222079-009702-E   753222008427973059439PAPER SIRIO A2 BLUE    0000005000+00001051+00000+0001T   00001051+0000000943          1400 UG2130               2AZ
753222003753222566-000070     753222006003000283798STICKERS POP UP ASSTD  0000001000+00001753+00000+0001T   00001753+0000000943          1400 UG2130               2AZ
753222004753222566-002000     753222000721129013206STICKERS CRYSTAL ASSTD 0000009000+00000700+00000+0001T   00000700+0000000943          1400 UG2130               2AZ
753222005753222200-000010-A   753222006003000625079BAG ZIPPERSEAL 35PC    0000001000+00001314+00000+0001T   00001753+0008170943          1400 UG2214               2AZ
753222006753222079-009700-A   753222006003000547746PAPER SIRIO A4 BLACK   0000010000+00000306+00000+0001T   00000306+0000000943          1400 UG2130               2AZ
753222007753222112-116069     753222006009681820277TCS CARRIER BAG JUMBO  0000001000+00000048+00000+0001T   00000048+0000000943          1400 UG2090               2AZ
753223000753223               753223               170213GK     1400+00000+GK0000007397+0000007397+000000000+000001038+0000008430+0000000005+I20000000000+0000008430+Z
753223001753223112-116038     753223006009681820246TCS CARRIER BAG MIDI   0000001000+00000035+00000+0001T   00000035+0000000953          1400 2IC090               2AZ
753223002753223031-005821     753223006001023667786P/FRAME-GLS CLIP 21X30 0000001000+00002630+00000+0001T   00002630+0000000953          1400 2IC510               2AZ
753223003753223204-000300     753223006003000573141MEMO HOLDER SENTIMENT  0000001000+00001753+00000+0001T   00001753+0000000953          1400 2IC300               2AZ
753223004753223083-000055     753223006003000003853LIGHTER ELCTRNC REFILBL0000002000+00000613+00000+0001T   00000613+0000000953          1400 2IC315               2AZ
753223005753223088-000108     753223006001023765536POTPOURRI-OIL 10ml ASST0000001000+00001753+00000+0001T   00001753+0000000953          1400 2IC212               2AZ
753224000753224               753224               170213GK     1400+00000+GK0000008771+0000008771+000000000+000001228+0000009990+0000000009+I20000000000+0000009990+Z
753224001753224039-000799     753224006001023692382CANDLES TEALITE 100PCE 0000001000+00008771+00000+0001T   00008771+0000001320          1400 UG2510               2AZ
753225000753225               753225               170213GK     1400+00000+GK0000014910+0000014910+000000000+000002088+0000016998+0000000000+I40000016998+0000000000+Z
753225001753225467-096020     753225006001023679024BOOGIE-BOARD 66cm ASSTD0000001000+00013157+00000+0001T   00013157+0000001331          1400 UG2785               2CZ
753225002753225491-059640     753225000078257596409INTEX:ARMBAND 3-6YRS   0000001000+00001753+00000+0001T   00001753+0000001331          1400 UG2787               2CZ
753226000753226               753226               170213GK     1400+00000+GK0000005395+0000005395+000000000+000000757+0000006150+0000000002+I20000000000+0000006150+Z
753226001753226903-000155     753226006009803374435SWT LOLLY I LUV U HEART0000001000+00000525+00000+0001T   00000525+0000001428          1400 2IC150               2AZ
753226002753226077-000270     753226006003000395453GIFT-BAG PPR JMB 33X45 0000001000+00002630+00000+0001T   00002630+0000001428          1400 2IC112               2AZ
753226003753226080-000127     753226006003000424351VALENTINES DAY 36x24CM 0000001000+00002192+00000+0001T   00002192+0000001428          1400 2IC112               2AZ
753226004753226112-116069     753226006009681820277TCS CARRIER BAG JUMBO  0000001000+00000048+00000+0001T   00000048+0000001428          1400 2IC090               2AZ
753227000753227               753227               170213GK     1400+00000+GK0000002192+0000002192+000000000+000000307+0000002490+0000000009+I20000000000+0000002490+Z
753227001753227077-000509     753227006003000082582GIFT-BAG SML 6PCE ORG P0000001000+00002192+00000+0001T   00002192+0000001536          1400 UG2112               2AZ
753228000753228               753228               170213GK     1400+00000+GK0000001314+0000001314+000000000+000000184+0000001490+0000000008+I20000000000+0000001490+Z
753228001753228024-091103-C   753228006003000596546CAKE BOX 2PC HLDS-6-C/C0000001000+00001314+00000+0001T   00001753+0008121655          1400 UG2300               2AZ
753229000753229               753229               170213GK     1400+00000+GK0000001753+0000001753+000000000+000000246+0000001990+0000000009+I20000000000+0000001990+Z
753229001753229080-000116     753229006003000253555CARD&ENVELOPE-HANDMADE 0000001000+00001753+00000+0001T   00001753+0000001656          1400 UG2112               2AZ
753230000753230               753230               170213GK     1400+00000+GK0000009989+0000009989+000000000+000001400+0000011380+0000000009+I20000000000+0000011380+Z
753230001753230077-000290     753230006001023902023GIFT BOX 26x32x13cm    0000001000+00001753+00000+0001T   00001753+0000001729          1400 UG2112               2AZ
753230002753230006-000166-H   753230006003000608096BALLOONS HELIUM 6PC WHT0000001000+00001314+00000+0001T   00001314+0000001729          1400 UG2131               2AZ
753230003753230006-000166-G   753230006003000607976BALLOONS HELIUM 6PC BLK0000001000+00001314+00000+0001T   00001314+0000001729          1400 UG2131               2AZ
753230004753230077-000245     753230006001023759214GIFT-RIBBON METALLICx2 0000001000+00001227+00000+0001T   00001227+0000001729          1400 UG2112               2AZ
753230005753230304-001011     753230006001023806727FLWR ROSE RED W/BEAR   0000005000+00000613+00000+0001T   00000788+0006471729          1400 UG2510               2AZ
753230006753230077-000290     753230006001023902023GIFT BOX 26x32x13cm    0000001000-00001753+00000+0001T   00001753+0000001729          1400 UG21121IC            2 Z
753230007753230301-085008     753230006003000673933ORN OCC.LOVE TINSEL HRT0000001000+00003069+00000+0001T   00003069+0000001729          1400 UG2505               2AZ
753231000753231               753231               170213GK     1400+00000+GK0000003507+0000003507+000000000+000000491+0000003990+0000000008+I20000000000+0000003990+Z
753231001753231018-000136     753231006001023659026MUG OCC LOVE W/PLUSH   0000001000+00003507+00000+0001T   00003507+0000001730          1400 UG2515               2AZ
753232000753232               753232               170213GK     1400+00000+GK0000001402+0000001402+000000000+000000197+0000001590+0000000009+I20000000000+0000001590+Z
753232001753232304-001204     753232006001023737984FLOWER OCC. TEDDY/ROSES0000001000+00001402+00000+0001T   00001490+0006471757          1400 2IC510               2AZ
753233000753233               753233               170213GK     1400+00000+GK0000001578+0000001578+000000000+000000221+0000001799+0000000000+I40000001799+0000000000+Z
753233001753233077-000303     753233006001023593757GIFT-BAG PAPER MED     0000001000+00001578+00000+0001T   00001578+0000001801          1400 2IC112               2AZ
753234000753234               753234               170213GK     1400+00000+GK0000001753+0000001753+000000000+000000246+0000001990+0000000009+I20000000000+0000001990+Z
753234001753234024-000214     753234006001023587855COOKIE-CUTTERS PL 6PC  0000001000+00001753+00000+0001T   00001753+0000001803          1400 UG2300               2AZ
753235000753235               753235               170213GK     1400+00000+GK0000000035+0000000035+000000000+000000005+0000000040+0000000000+I20000000000+0000000040+Z
753235001753235112-116038     753235006009681820246TCS CARRIER BAG MIDI   0000001000+00000035+00000+0001T   00000035+0000001804          1400 1IC090               2AZ
A17021300                                          09515633GKSLAVE 2                       UG22IC
A17021301                                          10092290GKSLAVE 2                       UG21IC
M17021391                              CASH        GKSLAVE 2                       Z-REPORT No.   649TOTAL (Sales - Refunds)           1678.61       CASH TO BE BANKED                 1066.20       DEBIT CARDS                          0.00       CREDIT CARDS                       612.41       Z-READING                         1678.61       AIRTIME DEBIT CARD SALES             0.00       AIRTIME CARD SALES                   0.00       OVERS/UNDERS                         0.00       AIRTIME CASH SALES                   0.00       GIFT CARDS                           0.00       GIFT CARD CASH SALES                 0.00       T O T A L  CASH PAYOUTS              0.00                                                                                                                                                                                                                                                                                                                                                      Z
M17021392                              CASH        GKABSENT                                                                                                                                                                                          ANNUAL LEAVE                                                                                                                                                                                    DAY OFF                                                                                                                                                                                         COMMENTS          Z READING R1678.61                                                                                                                                                                                                                                                                                                                                                           Z
Y17021300                                          GK00000000149060+000021
ZGK17021319423 SLAVE 2      SALES DATA                     NEXT INVOICE NO.  753236 0649
X GK Slave 2 First invoice 753215 170213 Last invoice 753235 170213 Next invoice 753236 Total number of records 000000081 clbackup completed 19:42:17
