646614000646614               646614               170213GL     1400+00000+GL0000001314+0000001314+000000000+000000184+0000001490+0000000008+I20000000000+0000001490+Z
646614001646614077-000310     646614006001023608635GIFT-BAG 18X23CM GLOSS 0000001000+00001314+00000+0001T   00001314+0000000935          1400 HA3112               1CZ
646615000646615               646615               170213GL     1400+00000+GL0000003069+0000003069+000000000+000000430+0000003490+0000000009+I20000000000+0000003490+Z
646615001646615048-000823     646615006003000063611TORCH DYNAMO 2LED 10cm 0000001000+00003069+00000+0001T   00003069+0000001001          1400 HA3305               1CZ
646616000646616               646616               170213GL     1400+00000+GL0000003331+0000003331+000000000+000000467+0000003790+0000000008+I20000000000+0000003790+Z
646616001646616080-000113     646616006003000237449CARD&ENVLPE - LOVE     0000001000+00001753+00000+0001T   00001753+0000001021          1400 HA3112               1CZ
646616002646616077-000323     646616006001023677563G/BAG 25X32CM E/DAY FLO0000001000+00001578+00000+0001T   00001578+0000001021          1400 HA3112               1CZ
646617000646617               646617               170213GL     1400+00000+GL0000004471+0000004471+000000000+000000626+0000005090+0000000007+I20000000000+0000005090+Z
646617001646617083-000305     646617006440024423302CIG-LIGHTER-GAS   300ml0000001000+00003507+00000+0001T   00003507+0000001050          1400 HA3315               1CZ
646617002646617903-000843     646617008693029031067SWT GUMMY JELAXY 80G   0000001000+00000964+00000+0001T   00000964+0000001050          1400 HA3150               1CZ
646618000646618               646618               170213GL     1400+00000+GL0000007276+0000007276+000000000+000001020+0000008290+0000000006+I20000000000+0000008290+Z
646618001646618085-007038     646618006001024039896P/KNIFE 8cm-BLD PL/GRIP0000001000+00002630+00000+0001T   00002630+0000001052          1400 HA3305               1CZ
646618002646618562-000069     646618006003000652044EDU PLAY DOUGH SET     0000001000+00003507+00000+0001T   00003507+0000001052          1400 HA3755               1CZ
646618003646618903-000087     646618006001704000161SWT SPECKLED-EGGS 50G  0000001000+00001139+00000+0001T   00001139+0000001052          1400 HA3150               1CZ
646619000646619               646619               170213GL     1400+00000+GL0000010963+0000010963+000000000+000001535+0000012498+0000000000+I40000012498+0000000000+Z
646619001646619077-000309-A   646619006003000671007GIFT-BAG HOLOGRAM JMB  0000001000+00002192+00000+0001T   00002192+0000001129          1400 HA3112               1CZ
646619002646619031-000924     646619006001023669964P/FRAME COLLAGE PL     0000001000+00008771+00000+0001T   00008771+0000001129          1400 HA3510               1CZ
646620000646620               646620               170213GL     1400+00000+GL0000001753+0000001753+000000000+000000246+0000001990+0000000009+I20000000000+0000001990+Z
646620001646620046-000002     646620006001023585202BATTERIES SIZE:C   2PCE0000001000+00001753+00000+0001T   00001753+0000001129          1400 HA3312               1CZ
646621000646621               646621               170213GL     1400+00000+GL0000001139+0000001139+000000000+000000160+0000001290+0000000009+I20000000000+0000001290+Z
646621001646621903-000087     646621006001704000161SWT SPECKLED-EGGS 50G  0000001000+00001139+00000+0001T   00001139+0000001132          1400 HA3150               1CZ
646622000646622               646622               170213GL     1400+00000+GL0000008771+0000008771+000000000+000001228+0000009999+0000000000+I40000009999+0000000000+Z
646622001646622368-000665     646622006003000169016PLUSH BEAR 30cm        0000001000+00008771+00000+0001T   00008771+0000001158          1400 HA3745               1CZ
646623000646623               646623               170213GL     1400+00000+GL0000001753+0000001753+000000000+000000246+0000001990+0000000009+I20000000000+0000001990+Z
646623001646623051-002407     646623006003000452491SPRAYER TRIGGER 550ml  0000001000+00001753+00000+0001T   00001753+0000001158          1400 HA3820               1CZ
646624000646624               646624               170213GL     1400+00000+GL0000010261+0000010261+000000000+000001437+0000011690+0000000008+I20000000000+0000011690+Z
646624001646624368-000614     646624006001023705808PLUSH LOVE 30cm        0000001000+00008771+00000+0001T   00008771+0000001159          1400 HA3745               1CZ
646624002646624077-000299     646624006003000395576G/BAG 32x25cm LRG LOVE 0000001000+00001490+00000+0001T   00001490+0000001159          1400 HA3112               1CZ
646625000646625               646625               170213GL     1400+00000+GL0000023098+0000023098+000000000+000003237+0000026330+0000000005+I20000000000+0000026330+Z
646625001646625306-000021-D   646625006003000622108COTTON EARBUDS COSMETIC0000001000+00000876+00000+0001T   00001139+0008171204          1400 HA3200               1CZ
646625002646625403-000005     646625006001023801814JEWEL BOX PL W/DRAWER  0000003000+00007016+00000+0001T   00007016+0000001204          1400 HA3510               1CZ
646625003646625903-000087     646625006001704000161SWT SPECKLED-EGGS 50G  0000001000+00001139+00000+0001T   00001139+0000001204          1400 HA3150               1CZ
646625004646625112-116038     646625006009681820246TCS CARRIER BAG MIDI   0000001000+00000035+00000+0001T   00000035+0000001204          1400 HA3090               1CZ
646626000646626               646626               170213GL     1400+00000+GL0000003507+0000003507+000000000+000000491+0000003990+0000000008+I20000000000+0000003990+Z
646626001646626203-007000     646626006001023886040SHOT-GLASS DISPOSABLE  0000001000+00003507+00000+0001T   00003507+0000001205          1400 HA3300               1CZ
646627000646627               646627               170213GL     1400+00000+GL0000003507+0000003507+000000000+000000491+0000003990+0000000008+I20000000000+0000003990+Z
646627001646627466-000518     646627006003000027460BADMINTON SET          0000001000+00003507+00000+0001T   00003507+0000001205          1400 HA3785               1CZ
646628000646628               646628               170213GL     1400+00000+GL0000006174+0000006174+000000000+000000865+0000007030+0000000009+I20000000000+0000007030+Z
646628001646628007-000323     646628006009697791042PAPER A4 80GSM 100'S   0000001000+00006139+00000+0001T   00006139+0000001207          1400 HA3130               1CZ
646628002646628112-116038     646628006009681820246TCS CARRIER BAG MIDI   0000001000+00000035+00000+0001T   00000035+0000001207          1400 HA3090               1CZ
646629000646629               646629               170213GL     1400+00000+GL0000001753+0000001753+000000000+000000246+0000001990+0000000009+I20000000000+0000001990+Z
646629001646629007-000043     646629006009635831496DISPLAY-BOOK PL A4 20PG0000001000+00001753+00000+0001T   00001753+0000001220          1400 HA3130               1CZ
646630000646630               646630               170213GL     1400+00000+GL0000024626+0000024626+000000000+000003450+0000028070+0000000006+I20000000000+0000028070+Z
646630001646630265-000216     646630006001023681423CAR B/O RACING-SET 36PC0000001000+00021051+00000+0001T   00021051+0000001221          1400 HA3710               1CZ
646630002646630046-000002     646630006001023585202BATTERIES SIZE:C   2PCE0000002000+00001753+00000+0001T   00001753+0000001221          1400 HA3312               1CZ
646630003646630112-116053     646630006006438002399TCS CARRIER BAG 38L    0000001000+00000069+00000+0001T   00000069+0000001221          1400 HA3090               1CZ
646631000646631               646631               170213GL     1400+00000+GL0000001314+0000001314+000000000+000000184+0000001490+0000000008+I20000000000+0000001490+Z
646631001646631077-000310     646631006001023608635GIFT-BAG 18X23CM GLOSS 0000001000+00001314+00000+0001T   00001314+0000001222          1400 HA3112               1CZ
646632000646632               646632               170213GL     1400+00000+GL0000010261+0000010261+000000000+000001437+0000011690+0000000008+I20000000000+0000011690+Z
646632001646632368-000614     646632006001023705808PLUSH LOVE 30cm        0000001000+00008771+00000+0001T   00008771+0000001224          1400 HA3745               1CZ
646632002646632077-000299     646632006003000395576G/BAG 32x25cm LRG LOVE 0000001000+00001490+00000+0001T   00001490+0000001224          1400 HA3112               1CZ
646633000646633               646633               170213GL     1400+00000+GL0000008792+0000008792+000000000+000001236+0000010028+0000000000+I40000010028+0000000000+Z
646633001646633079-011234     646633006001023829139ART+CRAFT PAINTING ASST0000001000+00003507+00000+0001T   00003507+0000001233          1400 HA3130               1CZ
646633002646633903-000155     646633006009803374435SWT LOLLY I LUV U HEART0000010000+00000525+00000+0001T   00000525+0000001233          1400 HA3150               1CZ
646633003646633112-116038     646633006009681820246TCS CARRIER BAG MIDI   0000001000+00000035+00000+0001T   00000035+0000001233          1400 HA3090               1CZ
646634000646634               646634               170213GL     1400+00000+GL0000003115+0000003115+000000000+000000437+0000003552+0000000000+I40000003552+0000000000+Z
646634001646634077-000290     646634006001023902023GIFT BOX 26x32x13cm    0000001000+00001753+00000+0001T   00001753+0000001239          1400 HA3112               1CZ
646634002646634903-000194     646634006009826020616SWT CHOC RP LOLLY 25G  0000001000+00001314+00000+0001T   00001314+0000001239          1400 HA3150               1CZ
646634003646634112-116069     646634006009681820277TCS CARRIER BAG JUMBO  0000001000+00000048+00000+0001T   00000048+0000001239          1400 HA3090               1CZ
646635000646635               646635               170213GL     1400+00000+GL0000024076+0000024076+000000000+000003373+0000027449+0000000000+I40000027449+0000000000+Z
646635001646635001-091415     646635006003000329113W/GLS OCC. LOVE 2PC 2800000002000+00008771+00000+0001T   00009648+0006471245          1400 HA3515               1CZ
646635002646635039-000108     646635006001023524034TEA-LITE CANDLES 8PCE  0000002000+00001490+00000+0001T   00001490+0000001245          1400 HA3510               1CZ
646635003646635039-001023     646635006003000466337CANDLE TEA-LITE METALIC0000002000+00001753+00000+0001T   00001753+0000001245          1400 HA3510               1CZ
646635004646635112-116069     646635006009681820277TCS CARRIER BAG JUMBO  0000001000+00000048+00000+0001T   00000048+0000001245          1400 HA3090               1CZ
646636000646636               646636               170213GL     1400+00000+GL0000000872+0000000872+000000000+000000124+0000000990+0000000006+I20000000000+0000000990+Z
646636001646636006-000172-K   646636006003000610334BALLOONS METALLIC PURPL0000001000+00000218+00000+0001T   00000218+0000001248          1400 HA3131               1CZ
646636002646636006-000171-K   646636006003000609697BALLOONS 1PC PURPLE PRN0000001000+00000218+00000+0001T   00000218+0000001248          1400 HA3131               1CZ
646636003646636006-000171-A   646636006003000608935BALLOONS 1PC PINK PRNT 0000001000+00000218+00000+0001T   00000218+0000001248          1400 HA3131               1CZ
646636004646636006-000172-A   646636006003000609765BALLOONS METALLIC PINK 0000001000+00000218+00000+0001T   00000218+0000001248          1400 HA3131               1CZ
646637000646637               646637               170213GL     1400+00000+GL0000007099+0000007099+000000000+000000996+0000008095+0000000000+I40000008095+0000000000+Z
646637001646637903-000155     646637006009803374435SWT LOLLY I LUV U HEART0000001000+00000525+00000+0001T   00000525+0000001252          1400 HA3150               1CZ
646637002646637106-001099     646637006003000653447WATER BOTTLE 650ml     0000001000+00002630+00000+0001T   00002630+0000001252          1400 HA3210               1CZ
646637003646637080-000133-A   646637006003000647019MINI VALENTINES CARD   0000001000+00000437+00000+0001T   00000437+0000001252          1400 HA3112               1CZ
646637004646637301-085004     646637006003000420469ORN LOVE PLAQUE 21X10CM0000001000+00003507+00000+0001T   00003946+0006471252          1400 HA3505               1CZ
646638000646638               646638               170213GL     1400+00000+GL0000004067+0000004067+000000000+000000571+0000004630+0000000008+I20000000000+0000004630+Z
646638001646638046-000011     646638004897006172994BATTERIES SIZE:AA  2PCE0000001000+00001402+00000+0001T   00001402+0000001254          1400 HA3312               1CZ
646638002646638486-000001     646638006001023507969ALARM-CLOCK SQ ASS     0000001000+00002630+00000+0001T   00002630+0000001254          1400 HA3510               1CZ
646638003646638112-116038     646638006009681820246TCS CARRIER BAG MIDI   0000001000+00000035+00000+0001T   00000035+0000001254          1400 HA3090               1CZ
646639000646639               646639               170213GL     1400+00000+GL0000001525+0000001525+000000000+000000214+0000001730+0000000009+I20000000000+0000001730+Z
646639001646639028-000400     646639006001023421661PLATE-HOLDERS 4PCE     0000001000+00001490+00000+0001T   00001490+0000001400          1400 HA3305               1CZ
646639002646639112-116038     646639006009681820246TCS CARRIER BAG MIDI   0000001000+00000035+00000+0001T   00000035+0000001400          1400 HA3090               1CZ
646640000646640               646640               170213GL     1400+00000+GL0000003506+0000003506+000000000+000000492+0000003990+0000000008+I20000000000+0000003990+Z
646640001646640088-000084     646640006001023798060P/POURRI 120G ASSTD    0000001000+00001753+00000+0001T   00001753+0000001402          1400 HA3212               1CZ
646640002646640162-081665     646640006001492816654SS 18PK HAIR ELASTICS  0000001000+00001753+00000+0001T   00001753+0000001402          1400 HA3160               1CZ
646641000646641               646641               170213GL     1400+00000+GL0000009412+0000009412+000000000+000001319+0000010731+0000000000+I40000010731+0000000000+Z
646641001646641304-001011     646641006001023806727FLWR ROSE RED W/BEAR   0000003000+00000613+00000+0001T   00000788+0006471407          1400 HA3510               1CZ
646641002646641018-000130     646641006001023867537MUG OCC LOVE MINI+HEART0000001000+00003507+00000+0001T   00003507+0000001407          1400 HA3515               1CZ
646641003646641903-000194     646641006009826020616SWT CHOC RP LOLLY 25G  0000001000+00001314+00000+0001T   00001314+0000001407          1400 HA3150               1CZ
646641004646641018-000170     646641006001023775528MUG OCC. LOVE 2PC MINI 0000001000+00002192+00000+0001T   00002192+0000001407          1400 HA3515               1CZ
646641005646641903-000155     646641006009803374435SWT LOLLY I LUV U HEART0000001000+00000525+00000+0001T   00000525+0000001407          1400 HA3150               1CZ
646641006646641112-116038     646641006009681820246TCS CARRIER BAG MIDI   0000001000+00000035+00000+0001T   00000035+0000001407          1400 HA3090               1CZ
646642000646642               646642               170213GL     1400+00000+GL0000002366+0000002366+000000000+000000332+0000002690+0000000008+I20000000000+0000002690+Z
646642001646642077-000245     646642006001023759214GIFT-RIBBON METALLICx2 0000001000+00001227+00000+0001T   00001227+0000001407          1400 HA3112               1CZ
646642002646642903-000087     646642006001704000161SWT SPECKLED-EGGS 50G  0000001000+00001139+00000+0001T   00001139+0000001407          1400 HA3150               1CZ
646643000646643               646643               170213GL     1400+00000+GL0000009696+0000009696+000000000+000001358+0000011054+0000000000+I40000011054+0000000000+Z
646643001646643159-000090     646643006003000401246SHOWER-CADDY CHROME    0000001000+00009648+00000+0001T   00009648+0000001410          1400 HA3200               1CZ
646643002646643112-116069     646643006009681820277TCS CARRIER BAG JUMBO  0000001000+00000048+00000+0001T   00000048+0000001410          1400 HA3090               1CZ
646644000646644               646644               170213GL     1400+00000+GL0000000876+0000000876+000000000+000000123+0000000990+0000000009+I20000000000+0000000990+Z
646644001646644903-000897     646644008692806325207SWT CHOC DBL MINI ROLL 0000001000+00000876+00000+0001T   00000876+0000001411          1400 HA3150               1CZ
646645000646645               646645               170213GL     1400+00000+GL0000001753+0000001753+000000000+000000246+0000001990+0000000009+I20000000000+0000001990+Z
646645001646645200-003026     646645006003000276448REFUSE BAGS 10PCE GREEN0000001000+00001753+00000+0001T   00001753+0000001412          1400 HA3214               1CZ
646646000646646               646646               170213GL     1400+00000+GL0000001753+0000001753+000000000+000000246+0000001990+0000000009+I20000000000+0000001990+Z
646646001646646133-000381     646646006001023713674TABLE-CLOTH 132x178cm  0000001000+00001753+00000+0001T   00001753+0000001415          1400 HA3212               1CZ
646647000646647               646647               170213GL     1400+00000+GL0000002192+0000002192+000000000+000000307+0000002490+0000000009+I20000000000+0000002490+Z
646647001646647108-001002     646647006003000503810TUMBLER PL 4PC 400ml   0000001000+00002192+00000+0001T   00002192+0000001418          1400 HA3210               1CZ
646648000646648               646648               170213GL     1400+00000+GL0000008771+0000008771+000000000+000001228+0000009990+0000000009+I20000000000+0000009990+Z
646648001646648031-000924     646648006001023669964P/FRAME COLLAGE PL     0000001000+00008771+00000+0001T   00008771+0000001420          1400 HA3510               1CZ
646649000646649               646649               170213GL     1400+00000+GL0000011470+0000011470+000000000+000001607+0000013077+0000000000+I40000013077+0000000000+Z
646649001646649007-000602     646649006003000541270BOOK COVER 2M SOLID COL0000001000+00002630+00000+0001T   00002630+0000001423          1400 HA3130               1CZ
646649002646649368-000614     646649006001023705808PLUSH LOVE 30cm        0000001000+00008771+00000+0001T   00008771+0000001423          1400 HA3745               1CZ
646649003646649112-116053     646649006006438002399TCS CARRIER BAG 38L    0000001000+00000069+00000+0001T   00000069+0000001423          1400 HA3090               1CZ
646650000646650               646650               170213GL     1400+00000+GL0000006448+0000006448+000000000+000000904+0000007352+0000000000+I40000007352+0000000000+Z
646650001646650018-000136     646650006001023659026MUG OCC LOVE W/PLUSH   0000001000+00003507+00000+0001T   00003507+0000001426          1400 HA3515               1CZ
646650002646650036-000151     646650006001023810588COATHANGERS    PACK-10 0000001000+00002893+00000+0001T   00002893+0000001426          1400 HA3212               1CZ
646650003646650112-116069     646650006009681820277TCS CARRIER BAG JUMBO  0000001000+00000048+00000+0001T   00000048+0000001426          1400 HA3090               1CZ
646651000646651               646651               170213GL     1400+00000+GL0000000436+0000000436+000000000+000000062+0000000490+0000000008+I20000000000+0000000490+Z
646651001646651903-000670     646651006009803358008SWT SHERBET RED LIPS   0000002000+00000218+00000+0001T   00000218+0000001429          1400 HA3150               1AZ
646652000646652               646652               170213GL     1400+00000+GL0000003507+0000003507+000000000+000000491+0000003990+0000000008+I20000000000+0000003990+Z
646652001646652007-000542     646652006001023847874NOTE-BOOK H/C SKETCHPAD0000001000+00003507+00000+0001T   00003507+0000001432          1400 HA3130               1AZ
646653000646653               646653               170213GL     1400+00000+GL0000015126+0000015126+000000000+000002121+0000017247+0000000000+I40000017247+0000000000+Z
646653001646653077-000115-B   646653006003000181025GIFT-WRAP PPR 700MMX2M 0000002000+00002630+00000+0001T   00002630+0000001433          1400 HA3112               1CZ
646653002646653007-000597     646653006009699511129MARLIN SLF ADHESIVE 2M 0000003000+00002192+00000+0001T   00002192+0000001433          1400 HA3130               1CZ
646653003646653077-000011-L   646653006001023808585P/TISSUE BRIGHT 10SHEET0000001000+00000876+00000+0001T   00000876+0000001433          1400 HA3112               1CZ
646653004646653077-000311     646653006001023608666GIFT-BAG 11X14CM GLOSS 0000001000+00000613+00000+0001T   00000613+0000001433          1400 HA3112               1CZ
646653005646653077-000316     646653006001023609731GIFT-BAG 25X32CM MATT  0000001000+00001753+00000+0001T   00001753+0000001433          1400 HA3112               1CZ
646653006646653112-116069     646653006003000535064TCS CARRIER BAG JUMBO  0000001000+00000048+00000+0001T   00000048+0000001433          1400 HA3090               1CZ
646654000646654               646654               170213GL     1400+00000+GL0000002490+0000002490+000000000+000000349+0000002830+0000000009+I20000000000+0000002830+Z
646654001646654562-000009     646654000730589212029PLAY MODELLING CARDED  0000001000+00002455+00000+0001T   00002455+0000001434          1400 HA3755               1CZ
646654002646654112-116038     646654006009681820246TCS CARRIER BAG MIDI   0000001000+00000035+00000+0001T   00000035+0000001434          1400 HA3090               1CZ
646655000646655               646655               170213GL     1400+00000+GL0000004155+0000004155+000000000+000000582+0000004730+0000000007+I20000000000+0000004730+Z
646655001646655105-001000     646655006003000520275CONTAINER:CEREAL TO GO 0000001000+00003507+00000+0001T   00004823+0008161435          1400 HA3210               1CZ
646655002646655083-000055     646655006003000003853LIGHTER ELCTRNC REFILBL0000001000+00000613+00000+0001T   00000613+0000001435          1400 HA3315               1CZ
646655003646655112-116038     646655006009681820246TCS CARRIER BAG MIDI   0000001000+00000035+00000+0001T   00000035+0000001435          1400 HA3090               1CZ
646656000646656               646656               170213GL     1400+00000+GL0000000876+0000000876+000000000+000000123+0000000990+0000000009+I20000000000+0000000990+Z
646656001646656077-000314     646656006003000181148GIFT-BAG 11X14CM MATT  0000001000+00000876+00000+0001T   00000876+0000001435          1400 HA3112               1CZ
646657000646657               646657               170213GL     1400+00000+GL0000004383+0000004383+000000000+000000615+0000004990+0000000008+I20000000000+0000004990+Z
646657001646657079-000206     646657006003000639700PENCIL CRAYONS THERAPY 0000001000+00001753+00000+0001T   00001753+0000001436          1400 HA3130               1CZ
646657002646657567-014134     646657006003000560189BOOK COLOURING 96 PAGE 0000001000+00002630+00000+0001T   00002630+0000001436          1400 HA3757               1CZ
646658000646658               646658               170213GL     1400+00000+GL0000006875+0000006875+000000000+000000963+0000007830+0000000008+I20000000000+0000007830+Z
646658001646658018-019000     646658006003000557288MUG OCC. LOVE JUMBO    0000001000+00005262+00000+0001T   00005262+0000001438          1400 HA3515               1CZ
646658002646658077-000315     646658006003000181186GIFT-BAG 20x28cm MATT  0000001000+00001578+00000+0001T   00001578+0000001438          1400 HA3112               1CZ
646658003646658112-116038     646658006009681820246TCS CARRIER BAG MIDI   0000001000+00000035+00000+0001T   00000035+0000001438          1400 HA3090               1CZ
646659000646659               646659               170213GL     1400+00000+GL0000007014+0000007014+000000000+000000983+0000007990+0000000007+I20000000000+0000007990+Z
646659001646659563-000318-L   646659006003000407088SERVIETTES 33cm RED    0000001000+00002192+00000+0001T   00002192+0000001439          1400 HA3214               1CZ
646659002646659077-000005-B   646659006003000326617PAPER TISSUE PATTERN   0000001000+00002630+00000+0001T   00002630+0000001439          1400 HA3112               1CZ
646659003646659077-000309-A   646659006003000671007GIFT-BAG HOLOGRAM JMB  0000001000+00002192+00000+0001T   00002192+0000001439          1400 HA3112               1CZ
646660000646660               646660               170213GL     1400+00000+GL0000002665+0000002665+000000000+000000374+0000003030+0000000009+I20000000000+0000003030+Z
646660001646660018-000129     646660006001023403353MUG OCC. LOVE V-SHAPE  0000001000+00002630+00000+0001T   00002630+0000001441          1400 HA3515               1CZ
646660002646660112-116038     646660006009681820246TCS CARRIER BAG MIDI   0000001000+00000035+00000+0001T   00000035+0000001441          1400 HA3090               1CZ
646661000646661               646661               170213GL     1400+00000+GL0000011436+0000011436+000000000+000001602+0000013038+0000000000+I40000013038+0000000000+Z
646661001646661001-091415     646661006003000329113W/GLS OCC. LOVE 2PC 2800000001000+00008771+00000+0001T   00009648+0006471443          1400 HA3515               1CZ
646661002646661018-000129     646661006001023403353MUG OCC. LOVE V-SHAPE  0000001000+00002630+00000+0001T   00002630+0000001443          1400 HA3515               1CZ
646661003646661112-116038     646661006009681820246TCS CARRIER BAG MIDI   0000001000+00000035+00000+0001T   00000035+0000001443          1400 HA3090               1CZ
646662000646662               646662               170213GL     1400+00000+GL0000003767+0000003767+000000000+000000529+0000004296+0000000000+I40000004296+0000000000+Z
646662001646662080-000133-A   646662006003000647019MINI VALENTINES CARD   0000001000+00000437+00000+0001T   00000437+0000001445          1400 HA3112               1CZ
646662002646662077-000948     646662006003000542154G/WARP SHRINK BAG      0000001000+00000700+00000+0001T   00000876+0008151445          1400 HA3112               1CZ
646662003646662018-000129     646662006001023403353MUG OCC. LOVE V-SHAPE  0000001000+00002630+00000+0001T   00002630+0000001445          1400 HA3515               1CZ
646663000646663               646663               170213GL     1400+00000+GL0000001538+0000001538+000000000+000000216+0000001750+0000000004+I20000000000+0000001750+Z
646663001646663077-000299     646663006003000395576G/BAG 32x25cm LRG LOVE 0000001000+00001490+00000+0001T   00001490+0000001449          1400 HA3112               1CZ
646663002646663112-116069     646663006009681820277TCS CARRIER BAG JUMBO  0000001000+00000048+00000+0001T   00000048+0000001449          1400 HA3090               1CZ
646664000646664               646664               170213GL     1400+00000+GL0000002804+0000002804+000000000+000000393+0000003197+0000000000+I40000003197+0000000000+Z
646664001646664903-000194     646664006009826020616SWT CHOC RP LOLLY 25G  0000001000+00001314+00000+0001T   00001314+0000001451          1400 HA3150               1CZ
646664002646664077-000299     646664006003000395576G/BAG 32x25cm LRG LOVE 0000001000+00001490+00000+0001T   00001490+0000001451          1400 HA3112               1CZ
646665000646665               646665               170213GL     1400+00000+GL0000003069+0000003069+000000000+000000430+0000003499+0000000000+I40000003499+0000000000+Z
646665001646665016-006530     646665006003000618668S/JAR GLS COUNTER 2SIDE0000001000+00003069+00000+0001T   00003069+0000001452          1400 HA3300               1CZ
646666000646666               646666               170213GL     1400+00000+GL0000003015+0000003015+000000000+000000423+0000003438+0000000000+I40000003438+0000000000+Z
646666001646666077-000245     646666006001023759214GIFT-RIBBON METALLICx2 0000001000+00001227+00000+0001T   00001227+0000001454          1400 HA3112               1CZ
646666002646666077-000351     646666006003000139033GIFT-BAG 18X23CM E/D P 0000001000+00001753+00000+0001T   00001753+0000001454          1400 HA3112               1CZ
646666003646666112-116038     646666006009681820246TCS CARRIER BAG MIDI   0000001000+00000035+00000+0001T   00000035+0000001454          1400 HA3090               1CZ
646667000646667               646667               170213GL     1400+00000+GL0000003506+0000003506+000000000+000000492+0000003990+0000000008+I20000000000+0000003990+Z
646667001646667077-000330     646667006001023745408GIFT-BAG 18X23CM WEDGE 0000001000+00001753+00000+0001T   00001753+0000001455          1400 HA3112               1CZ
646667002646667077-000906     646667006003000410804G/WRAP 700mmx1m BIRTHDA0000001000+00001753+00000+0001T   00001753+0000001455          1400 HA3112               1CZ
646668000646668               646668               170213GL     1400+00000+GL0000015781+0000015781+000000000+000002213+0000017994+0000000000+I40000017994+0000000000+Z
646668001646668080-000113     646668006003000237449CARD&ENVLPE - LOVE     0000001000+00001753+00000+0001T   00001753+0000001458          1400 HA3112               1CZ
646668002646668019-000102     646668006003000280919VASE GLS BUD 18X6CM    0000001000+00004385+00000+0001T   00004385+0000001458          1400 HA3510               1CZ
646668003646668077-000316     646668006001023609731GIFT-BAG 25X32CM MATT  0000001000+00001753+00000+0001T   00001753+0000001458          1400 HA3112               1CZ
646668004646668304-000720     646668006001023843050F/BUNCH ROSE 6-HEAD AST0000003000+00002630+00000+0001T   00002630+0000001458          1400 HA3510               1CZ
646669000646669               646669               170213GL     1400+00000+GL0000002192+0000002192+000000000+000000307+0000002490+0000000009+I20000000000+0000002490+Z
646669001646669080-000127     646669006003000424351VALENTINES DAY 36x24CM 0000001000+00002192+00000+0001T   00002192+0000001459          1400 HA3112               1CZ
646670000646670               646670               170213GL     1400+00000+GL0000004557+0000004557+000000000+000000639+0000005190+0000000006+I20000000000+0000005190+Z
646670001646670263-000613     646670006003000241538CAR FLIP & SHOOT + 3CAR0000001000+00003507+00000+0001T   00003507+0000001459          1400 HA3710               1CZ
646670002646670903-000155     646670006009803374435SWT LOLLY I LUV U HEART0000002000+00000525+00000+0001T   00000525+0000001459          1400 HA3150               1CZ
646671000646671               646671               170213GL     1400+00000+GL0000001578+0000001578+000000000+000000221+0000001799+0000000000+I40000001799+0000000000+Z
646671001646671369-001029     646671006001023795854BABY RATTLE/TEETHER ASS0000001000+00001578+00000+0001T   00001578+0000001501          1400 HA3745               1CZ
646672000646672               646672               170213GL     1400+00000+GL0000017542+0000017542+000000000+000002456+0000019990+0000000008+I20000000000+0000019990+Z
646672001646672005-005403     646672000694202400074SOCKETSET MET 69PCE    0000001000+00017542+00000+0001T   00017542+0000001503          1400 HA3840               1CZ
646673000646673               646673               170213GL     1400+00000+GL0000013155+0000013155+000000000+000001843+0000014990+0000000008+I20000000000+0000014990+Z
646673001646673079-001003     646673006003000588640ART+CRAFT PAINT CANVAS 0000001000+00010525+00000+0001T   00010525+0000001537          1400 HA3130               1CZ
646673002646673046-000011-A   646673006003000438891BATTERIES SIZE:AA  4PCE0000001000+00002630+00000+0001T   00002630+0000001537          1400 HA3312               1CZ
646674000646674               646674               170213GL     1400+00000+GL0000002630+0000002630+000000000+000000369+0000002990+0000000009+I20000000000+0000002990+Z
646674001646674368-000040     646674006003000671786PLUSH ICONS 7.5cm      0000001000+00002630+00000+0001T   00002630+0000001548          1400 HA3745               1CZ
646675000646675               646675               170213GL     1400+00000+GL0000001753+0000001753+000000000+000000246+0000001999+0000000000+I40000001999+0000000000+Z
646675001646675077-000472     646675006003000330133G-BAG DESGNR LRG 25X32 0000001000+00001753+00000+0001T   00001753+0000001550          1400 HA3112               1CZ
646676000646676               646676               170213GL     1400+00000+GL0000002100+0000002100+000000000+000000294+0000002390+0000000004+I20000000000+0000002390+Z
646676001646676018-000177     646676006001023797513MUG MINI LOVE ASSTD    0000003000+00000700+00000+0001T   00000700+0000001551          1400 HA3515               1CZ
646677000646677               646677               170213GL     1400+00000+GL0000005170+0000005170+000000000+000000725+0000005890+0000000005+I20000000000+0000005890+Z
646677001646677251-000001     646677006001023487681TAPE DBL-SIDE 18x1000mm0000001000+00001314+00000+0001T   00001314+0000001553          1400 HA3810               1CZ
646677002646677251-000003     646677006003000266159TAPE D/S 18x300mm V/PCK0000001000+00002630+00000+0001T   00002630+0000001553          1400 HA3810               1CZ
646677003646677903-000848     646677008692806080076SWT SNACK BISCUIT 70g  0000001000+00000613+00000+0001T   00000613+0000001553          1400 HA3150               1CZ
646677004646677903-000849     646677008692806080083SWT SNACK BISCUIT 70g  0000001000+00000613+00000+0001T   00000613+0000001553          1400 HA3150               1CZ
646678000646678               646678               170213GL     1400+00000+GL0000003156+0000003156+000000000+000000442+0000003590+0000000008+I20000000000+0000003590+Z
646678001646678077-000315     646678006003000181186GIFT-BAG 20x28cm MATT  0000002000+00001578+00000+0001T   00001578+0000001553          1400 HA3112               1CZ
646679000646679               646679               170213GL     1400+00000+GL0000001050+0000001050+000000000+000000148+0000001190+0000000008+I20000000000+0000001190+Z
646679001646679903-000151     646679006009803374411SWT SML RND R/BOW LOLLY0000002000+00000525+00000+0001T   00000525+0000001554          1400 HA3150               1CZ
646680000646680               646680               170213GL     1400+00000+GL0000006605+0000006605+000000000+000000927+0000007530+0000000002+I20000000000+0000007530+Z
646680001646680903-000194     646680006009826020616SWT CHOC RP LOLLY 25G  0000002000+00001314+00000+0001T   00001314+0000001555          1400 HA3150               1CZ
646680002646680903-000200     646680006009826020234SWT CHOC RP CHOCO 23G  0000002000+00000788+00000+0001T   00000788+0000001555          1400 HA3150               1CZ
646680003646680466-000200     646680006001023621665HULA-HOOP     ASSTD    0000001000+00001753+00000+0001T   00001753+0000001555          1400 HA3785               1CZ
646680004646680304-001011     646680006001023806727FLWR ROSE RED W/BEAR   0000001000+00000613+00000+0001T   00000788+0006471555          1400 HA3510               1CZ
646680005646680112-116038     646680006009681820246TCS CARRIER BAG MIDI   0000001000+00000035+00000+0001T   00000035+0000001555          1400 HA3090               1CZ
646681000646681               646681               170213GL     1400+00000+GL0000006174+0000006174+000000000+000000865+0000007039+0000000000+I40000007039+0000000000+Z
646681001646681018-050000     646681006003000412679MUG OCC LOVE TWIN BEAR 0000001000+00006139+00000+0001T   00006139+0000001557          1400 HA3515               1CZ
646681002646681112-116038     646681006009681820246TCS CARRIER BAG MIDI   0000001000+00000035+00000+0001T   00000035+0000001557          1400 HA3090               1CZ
646682000646682               646682               170213GL     1400+00000+GL0000002629+0000002629+000000000+000000369+0000002990+0000000008+I20000000000+0000002990+Z
646682001646682077-000924     646682006003000414055G/WRAP 700mmx2m WEDDING0000001000+00002192+00000+0001T   00002192+0000001558          1400 HA3112               1CZ
646682002646682080-000133-A   646682006003000647019MINI VALENTINES CARD   0000001000+00000437+00000+0001T   00000437+0000001558          1400 HA3112               1CZ
646683000646683               646683               170213GL     1400+00000+GL0000001753+0000001753+000000000+000000246+0000001990+0000000009+I20000000000+0000001990+Z
646683001646683024-091100     646683006001023914224BAKING-CUPS PAPER 100PC0000001000+00001753+00000+0001T   00001753+0000001559          1400 HA3300               1CZ
646684000646684               646684               170213GL     1400+00000+GL0000002366+0000002366+000000000+000000332+0000002690+0000000008+I20000000000+0000002690+Z
646684001646684304-001011     646684006001023806727FLWR ROSE RED W/BEAR   0000001000+00000613+00000+0001T   00000788+0006471600          1400 HA3510               1CZ
646684002646684903-000619     646684006003000672455SWT LOLLY STR/BRRY 140G0000001000+00001753+00000+0001T   00001753+0000001600          1400 HA3150               1CZ
646685000646685               646685               170213GL     1400+00000+GL0000002665+0000002665+000000000+000000374+0000003030+0000000009+I20000000000+0000003030+Z
646685001646685304-000720     646685006001023843050F/BUNCH ROSE 6-HEAD AST0000001000+00002630+00000+0001T   00002630+0000001603          1400 HA3510               1CZ
646685002646685112-116038     646685006009681820246TCS CARRIER BAG MIDI   0000001000+00000035+00000+0001T   00000035+0000001603          1400 HA3090               1CZ
646686000646686               646686               170213GL     1400+00000+GL0000002665+0000002665+000000000+000000374+0000003030+0000000009+I20000000000+0000003030+Z
646686001646686263-000010     646686006003000551293VEHICLE ANIMAL WORLD 3p0000001000+00001753+00000+0001T   00001753+0000001607          1400 HA3710               1CZ
646686002646686112-116038     646686006009681820246TCS CARRIER BAG MIDI   0000001000+00000035+00000+0001T   00000035+0000001607          1400 HA3090               1CZ
646686003646686263-000010     646686006003000551293VEHICLE ANIMAL WORLD 3p0000001000-00001753+00000+0001T   00001753+0000001607          1400 HA37101IC            1 Z
646686004646686903-000592     646686006003000563777SWT CELLPHONE 12cm     0000001000+00002630+00000+0001T   00002630+0000001607          1400 HA3150               1CZ
646687000646687               646687               170213GL     1400+00000+GL0000001314+0000001314+000000000+000000184+0000001490+0000000008+I20000000000+0000001490+Z
646687001646687077-000310     646687006001023608635GIFT-BAG 18X23CM GLOSS 0000001000+00001314+00000+0001T   00001314+0000001608          1400 HA3112               1CZ
646688000646688               646688               170213GL     1400+00000+GL0000001578+0000001578+000000000+000000221+0000001790+0000000009+I20000000000+0000001790+Z
646688001646688077-000315     646688006003000181186GIFT-BAG 20x28cm MATT  0000001000+00001578+00000+0001T   00001578+0000001608          1400 HA3112               1CZ
646689000646689               646689               170213GL     1400+00000+GL0000002192+0000002192+000000000+000000307+0000002490+0000000009+I20000000000+0000002490+Z
646689001646689077-000309-A   646689006003000671007GIFT-BAG HOLOGRAM JMB  0000001000+00002192+00000+0001T   00002192+0000001609          1400 HA3112               1CZ
646690000646690               646690               170213GL     1400+00000+GL0000007628+0000007628+000000000+000001069+0000008697+0000000000+I40000008697+0000000000+Z
646690001646690365-000001     646690006003000395262PLAY SET DOCTORS SET   0000001000+00001753+00000+0001T   00001753+0000001618          1400 HA3725               1CZ
646690002646690565-000600     646690006003000643721NOVELTY WINDOW WALKER  0000001000+00001490+00000+0001T   00001490+0000001618          1400 HA3745               1CZ
646690003646690365-003053     646690006001023542250PLAY DOCTOR MEDICAL-CNT0000001000+00004385+00000+0001T   00004385+0000001618          1400 HA3725               1CZ
646691000646691               646691               170213GL     1400+00000+GL0000002716+0000002716+000000000+000000381+0000003090+0000000007+I20000000000+0000003090+Z
646691001646691077-000299     646691006003000395576G/BAG 32x25cm LRG LOVE 0000001000+00001490+00000+0001T   00001490+0000001619          1400 HA3112               1CZ
646691002646691304-001011     646691006001023806727FLWR ROSE RED W/BEAR   0000002000+00000613+00000+0001T   00000788+0006471619          1400 HA3510               1CZ
646692000646692               646692               170213GL     1400+00000+GL0000002628+0000002628+000000000+000000369+0000002990+0000000007+I20000000000+0000002990+Z
646692001646692077-000151     646692006008766114676GIFT-WRAP C/PHANE ASSTD0000003000+00000876+00000+0001T   00000876+0000001619          1400 HA3112               1CZ
646693000646693               646693               170213GL     1400+00000+GL0000004870+0000004870+000000000+000000683+0000005550+0000000003+I20000000000+0000005550+Z
646693001646693080-000127     646693006003000424351VALENTINES DAY 36x24CM 0000001000+00002192+00000+0001T   00002192+0000001620          1400 HA3112               1CZ
646693002646693108-003023     646693006003000665471TUMBLER W/STRAW 550ml  0000001000+00002630+00000+0001T   00002630+0000001620          1400 HA3210               1CZ
646693003646693112-116069     646693006009681820277TCS CARRIER BAG JUMBO  0000001000+00000048+00000+0001T   00000048+0000001620          1400 HA3090               1CZ
646694000646694               646694               170213GL     1400+00000+GL0000001490+0000001490+000000000+000000209+0000001690+0000000009+I20000000000+0000001690+Z
646694001646694077-000299     646694006003000395576G/BAG 32x25cm LRG LOVE 0000001000+00001490+00000+0001T   00001490+0000001621          1400 HA3112               1CZ
646695000646695               646695               170213GL     1400+00000+GL0000004821+0000004821+000000000+000000676+0000005490+0000000007+I20000000000+0000005490+Z
646695001646695084-000365     646695006001023731135MANICURE SET ASSORTED  0000001000+00002192+00000+0001T   00002192+0000001626          1400 HA3200               1CZ
646695002646695078-000026     646695006936198407090SUPERGLUE 3,0g GEL     0000001000+00001753+00000+0001T   00001753+0000001626          1400 HA3810               1CZ
646695003646695362-000104     646695006003000451159NAIL STICKERS 16PC     0000001000+00000876+00000+0001T   00001314+0008181626          1400 HA3160               1CZ
646696000646696               646696               170213GL     1400+00000+GL0000002454+0000002454+000000000+000000344+0000002790+0000000008+I20000000000+0000002790+Z
646696001646696077-000245     646696006001023759214GIFT-RIBBON METALLICx2 0000002000+00001227+00000+0001T   00001227+0000001629          1400 HA3112               1CZ
646697000646697               646697               170213GL     1400+00000+GL0000002454+0000002454+000000000+000000344+0000002790+0000000008+I20000000000+0000002790+Z
646697001646697251-000040     646697006001023515865SEALTAPE CLEAR 48mmx50m0000002000+00001227+00000+0001T   00001227+0000001700          1400 HA3810               1CZ
646698000646698               646698               170213GL     1400+00000+GL0000006873+0000006873+000000000+000000964+0000007837+0000000000+I40000007837+0000000000+Z
646698001646698162-093203     646698006001492932033#TAG CHOCOLATE CHAIN   0000001000+00002630+00000+0001T   00006139+0008161702          1400 HA3160               1CZ
646698002646698903-000090     646698006009826020821SWT GS CHOCO COINS 60g 0000002000+00002104+00000+0001T   00002104+0000001702          1400 HA3150               1CZ
646698003646698112-116038     646698006009681820246TCS CARRIER BAG MIDI   0000001000+00000035+00000+0001T   00000035+0000001702          1400 HA3090               1CZ
646699000646699               646699               170213GL     1400+00000+GL0000002980+0000002980+000000000+000000418+0000003390+0000000008+I20000000000+0000003390+Z
646699001646699088-000084     646699006001023798060P/POURRI 120G ASSTD    0000001000+00001753+00000+0001T   00001753+0000001702          1400 HA3212               1CZ
646699002646699077-000245     646699006001023759214GIFT-RIBBON METALLICx2 0000001000+00001227+00000+0001T   00001227+0000001702          1400 HA3112               1CZ
646700000646700               646700               170213GL     1400+00000+GL0000002630+0000002630+000000000+000000369+0000002990+0000000009+I20000000000+0000002990+Z
646700001646700562-000010     646700006001023762528KID'S PLAY DOUGH       0000001000+00002630+00000+0001T   00002630+0000001715          1400 HA3755               1CZ
646701000646701               646701               170213GL     1400+00000+GL0000001314+0000001314+000000000+000000184+0000001490+0000000008+I20000000000+0000001490+Z
646701001646701077-000470     646701006003000330171G-BAG DESGN SML 11X14CM0000001000+00001314+00000+0001T   00001314+0000001716          1400 HA3112               1CZ
646702000646702               646702               170213GL     1400+00000+GL0000006139+0000006139+000000000+000000860+0000006990+0000000009+I20000000000+0000006990+Z
646702001646702018-050000     646702006003000412679MUG OCC LOVE TWIN BEAR 0000001000+00006139+00000+0001T   00006139+0000001727          1400 HA3515               1CZ
646703000646703               646703               170213GL     1400+00000+GL0000006047+0000006047+000000000+000000847+0000006894+0000000000+I40000006894+0000000000+Z
646703001646703089-000200     646703006003000485840KEY CHAIN POLY LOVE IS 0000001000+00003507+00000+0001T   00004385+0008121729          1400 HA3205               1CZ
646703002646703903-000194     646703006009826020616SWT CHOC RP LOLLY 25G  0000001000+00001314+00000+0001T   00001314+0000001729          1400 HA3150               1CZ
646703003646703077-000311     646703006001023608666GIFT-BAG 11X14CM GLOSS 0000001000+00000613+00000+0001T   00000613+0000001729          1400 HA3112               1CZ
646703004646703903-000848     646703008692806080076SWT SNACK BISCUIT 70g  0000001000+00000613+00000+0001T   00000613+0000001729          1400 HA3150               1CZ
646704000646704               646704               170213GL     1400+00000+GL0000000876+0000000876+000000000+000000123+0000000990+0000000009+I20000000000+0000000990+Z
646704001646704089-000192-A   646704006001023901774KEY-CHAIN ACRYLIC      0000001000+00000876+00000+0001T   00000876+0000001729          1400 HA3205               1CZ
646705000646705               646705               170213GL     1400+00000+GL0000002630+0000002630+000000000+000000369+0000002990+0000000009+I20000000000+0000002990+Z
646705001646705079-013032-D   646705006003000389643RIBBONS                0000001000+00002630+00000+0001T   00002630+0000001730          1400 HA3130               1CZ
646706000646706               646706               170213GL     1400+00000+GL0000004385+0000004385+000000000+000000614+0000004990+0000000009+I20000000000+0000004990+Z
646706001646706006-000190     646706006003000685530BALLOONS LOVE 81x91cm  0000001000+00004385+00000+0001T   00004385+0000001737          1400 HA3131               1CZ
646707000646707               646707               170213GL     1400+00000+GL0000003507+0000003507+000000000+000000491+0000003990+0000000008+I20000000000+0000003990+Z
646707001646707018-005009     646707006001023725608MUG W/PLUSH-BEAR LOVE  0000001000+00003507+00000+0001T   00003507+0000001739          1400 HA3515               1CZ
646708000646708               646708               170213GL     1400+00000+GL0000001753+0000001753+000000000+000000246+0000001990+0000000009+I20000000000+0000001990+Z
646708001646708041-000301     646708006003000422708SKIN HAND CREAM 120ml  0000001000+00001753+00000+0001T   00001753+0000001740          1400 HA3200               1CZ
646709000646709               646709               170213GL     1400+00000+GL0000001227+0000001227+000000000+000000172+0000001390+0000000009+I20000000000+0000001390+Z
646709001646709077-000322     646709006001023677532GIFT-BAG 18X23CM E/D FL0000001000+00001227+00000+0001T   00001227+0000001741          1400 HA3112               1CZ
646710000646710               646710               170213GL     1400+00000+GL0000005260+0000005260+000000000+000000738+0000005998+0000000000+I40000005998+0000000000+Z
646710001646710077-000456     646710006003000285549G/BAG METALLIC JMB EMB 0000001000+00002630+00000+0001T   00002630+0000001742          1400 HA3112               1CZ
646710002646710077-000005-B   646710006003000326617PAPER TISSUE PATTERN   0000001000+00002630+00000+0001T   00002630+0000001742          1400 HA3112               1CZ
646711000646711               646711               170213GL     1400+00000+GL0000000035+0000000035+000000000+000000005+0000000040+0000000000+I20000000000+0000000040+Z
646711001646711112-116038     646711006009681820246TCS CARRIER BAG MIDI   0000001000+00000035+00000+0001T   00000035+0000001743          1400 HA3090               1CZ
646712000646712               646712               170213GL     1400+00000+GL0000002678+0000002678+000000000+000000376+0000003050+0000000004+I20000000000+0000003050+Z
646712001646712077-000456     646712006003000285549G/BAG METALLIC JMB EMB 0000001000+00002630+00000+0001T   00002630+0000001746          1400 HA3112               1CZ
646712002646712112-116069     646712006009681820277TCS CARRIER BAG JUMBO  0000001000+00000048+00000+0001T   00000048+0000001746          1400 HA3090               1CZ
646713000646713               646713               170213GL     1400+00000+GL0000000876+0000000876+000000000+000000123+0000000990+0000000009+I20000000000+0000000990+Z
646713001646713077-000011-C   646713006001023808523TISSUE 10xSHTS RED     0000001000+00000876+00000+0001T   00000876+0000001746          1400 HA3112               1CZ
646714000646714               646714               170213GL     1400+00000+GL0000007939+0000007939+000000000+000001113+0000009052+0000000000+I40000009052+0000000000+Z
646714001646714301-085000     646714006003000674299 ORN OCC. LOVE HEARTS  0000001000+00002192+00000+0001T   00002192+0000001749          1400 HA3505               1CZ
646714002646714077-000005-B   646714006003000326617PAPER TISSUE PATTERN   0000001000+00002630+00000+0001T   00002630+0000001749          1400 HA3112               1CZ
646714003646714301-085008     646714006003000673933ORN OCC.LOVE TINSEL HRT0000001000+00003069+00000+0001T   00003069+0000001749          1400 HA3505               1CZ
646714004646714112-116069     646714006009681820277TCS CARRIER BAG JUMBO  0000001000+00000048+00000+0001T   00000048+0000001749          1400 HA3090               1CZ
646715000646715               646715               170213GL     1400+00000+GL0000007100+0000007100+000000000+000000996+0000008096+0000000000+I40000008096+0000000000+Z
646715001646715077-000305     646715006003000395422GIFT-BAG WINE 10X35CM  0000003000+00001490+00000+0001T   00001490+0000001752          1400 HA3112               1CZ
646715002646715077-000270     646715006003000395453GIFT-BAG PPR JMB 33X45 0000001000+00002630+00000+0001T   00002630+0000001752          1400 HA3112               1CZ
646716000646716               646716               170213GL     1400+00000+GL0000000525+0000000525+000000000+000000074+0000000590+0000000009+I20000000000+0000000590+Z
646716001646716903-000155     646716006009803374435SWT LOLLY I LUV U HEART0000001000+00000525+00000+0001T   00000525+0000001752          1400 HA3150               1CZ
646717000646717               646717               170213GL     1400+00000+GL0000001139+0000001139+000000000+000000160+0000001290+0000000009+I20000000000+0000001290+Z
646717001646717903-000710     646717006002099007056SWT REFRESHERS MINT    0000001000+00001139+00000+0001T   00001139+0000001753          1400 HA3150               1CZ
646718000646718               646718               170213GL     1400+00000+GL0000000525+0000000525+000000000+000000074+0000000590+0000000009+I20000000000+0000000590+Z
646718001646718903-000155     646718006009803374435SWT LOLLY I LUV U HEART0000001000+00000525+00000+0001T   00000525+0000001754          1400 HA3150               1CZ
646719000646719               646719               170213GL     1400+00000+GL0000021093+0000021093+000000000+000002956+0000024040+0000000009+I20000000000+0000024040+Z
646719001646719019-000070     646719006003000297474VASE GLS CLEAR BOTTLE  0000002000+00004385+00000+0001T   00004385+0000001802          1400 HA3510               1CZ
646719002646719563-000317-A   646719006001023776167SERVIETTES 20PK PATTERN0000002000+00002630+00000+0001T   00002630+0000001802          1400 HA3214               1CZ
646719003646719039-082103     646719006001023845788CANDLE FLOATING 6PC    0000001000+00004385+00000+0001T   00004385+0000001802          1400 HA3510               1CZ
646719004646719019-071600     646719006001023771971RIVER-STONES 1kg MIXED 0000001000+00002630+00000+0001T   00002630+0000001802          1400 HA3510               1CZ
646719005646719112-116069     646719006009681820277TCS CARRIER BAG JUMBO  0000001000+00000048+00000+0001T   00000048+0000001802          1400 HA3090               1CZ
A17021300                                          10245986GLSLAVE 1                       HA32IC
A17021301                                          16043313GLSLAVE 1                       HA31IC
M17021391                              CASH        GLSLAVE 1                       Z-REPORT No.   654TOTAL (Sales - Refunds)           6036.55       CASH TO BE BANKED                 3697.00       DEBIT CARDS                          0.00       CREDIT CARDS                      2339.55       Z-READING                         6036.55       AIRTIME DEBIT CARD SALES             0.00       AIRTIME CARD SALES                   0.00       OVERS/UNDERS                         0.00       AIRTIME CASH SALES                   0.00       GIFT CARDS                           0.00       GIFT CARD CASH SALES                 0.00       T O T A L  CASH PAYOUTS              0.00                                                                                                                                                                                                                                                                                                                                                      Z
M17021392                              CASH        GLABSENT                                                                                                                                                                                          ANNUAL LEAVE                                                                                                                                                                                    DAY OFF                                                                                                                                                                                         COMMENTS          Z READING R6036.55                                                                                                                                                                                                                                                                                                                                                           Z
Y17021300                                          GL00000000531742+000106
ZGL17021319423 SLAVE 1      SALES DATA                     NEXT INVOICE NO.  646720 0654
X GL Slave 1 First invoice 646614 170213 Last invoice 646719 170213 Next invoice 646720 Total number of records 000000324 clbackup completed 19:42:34
