658610000658610               658610               170213GL     1400+00000+GL0000032058+0000032058+000000000+000004491+0000036549+0000000000+I40000036549+0000000000+Z
658610001658610112-116069     658610006009681820277TCS CARRIER BAG JUMBO  0000001000+00000048+00000+0001T   00000048+0000000920          1400 DK4090               2CZ
658610002658610051-600636     658610006003000400324PLANTER WALL MOUNT PL  0000002000+00004385+00000+0001T   00004385+0000000920          1400 DK4820               2CZ
658610003658610003-008018     658610006003000252336ORN SIGN FLOWER GARDEN 0000001000+00003069+00000+0001T   00003069+0000000920          1400 DK4505               2CZ
658610004658610003-009208     658610006003000461615O/WALL PLAQUE 19X13.5cm0000001000+00007893+00000+0001T   00007893+0000000920          1400 DK4505               2CZ
658610005658610003-009215     658610006003000662517ORN STONE INSPIRATIONAL0000001000+00007016+00000+0001T   00007016+0000000920          1400 DK4505               2CZ
658610006658610003-009210     658610006003000461851ORN W/STONE 16X14X16CM 0000001000+00005262+00000+0001T   00005262+0000000920          1400 DK4505               2CZ
658611000658611               658611               170213GL     1400+00000+GL0000000009-0000000009-000000000+000000002+0000000010-0000000003+I20000000000+0000000010-Z
658611001658611012-000020     658611006003000442102M/WAVE STEAMER 2-TIER  0000001000-00008771+00000+0001T   00008771+0000000922          1400 DK43001IC            2 Z
658611002658611071-001102     658611006003000274598MARKER PERM MED 2PCE   0000001000+00001753+00000+0001T   00001753+0000000922          1400 DK4130               2 Z
658611003658611071-001012     658611006001023474445MARKERS BLACK ROUND    0000001000+00000876+00000+0001T   00000876+0000000922          1400 DK4130               2 Z
658611004658611071-001015     658611006001023910387MARKERS PERMANENT 3PK  0000001000+00001753+00000+0001T   00001753+0000000922          1400 DK4130               2 Z
658611005658611071-001012     658611006001023474445MARKERS BLACK ROUND    0000002000+00000876+00000+0001T   00000876+0000000922          1400 DK4130               2 Z
658611006658611007-000235     658611006003000134434LABELS RECTANGULAR 60pc0000003000+00000876+00000+0001T   00000876+0000000922          1400 DK4130               2 Z
658612000658612               658612               170213GL     1400+00000+GL0000010572+0000010572+000000000+000001481+0000012053+0000000000+I40000012053+0000000000+Z
658612001658612562-000199     658612006001023732910PUSH-IN BOARD WDN ASSTD0000002000+00005262+00000+0001T   00005262+0000000924          1400 DK4755               2CZ
658612002658612112-116069     658612006009681820277TCS CARRIER BAG JUMBO  0000001000+00000048+00000+0001T   00000048+0000000924          1400 DK4090               2CZ
658613000658613               658613               170213GL     1400+00000+GL0000001490+0000001490+000000000+000000209+0000001690+0000000009+I20000000000+0000001690+Z
658613001658613077-000452     658613006003000284986G/BAG METALLIC MED EMB 0000001000+00001490+00000+0001T   00001490+0000000925          1400 DK4112               2CZ
658614000658614               658614               170213GL     1400+00000+GL0000008901+0000008901+000000000+000001247+0000010140+0000000008+I20000000000+0000010140+Z
658614001658614304-001011     658614006001023806727FLWR ROSE RED W/BEAR   0000003000+00000613+00000+0001T   00000788+0006470932          1400 DK4510               2CZ
658614002658614018-000136     658614006001023659026MUG OCC LOVE W/PLUSH   0000001000+00003507+00000+0001T   00003507+0000000932          1400 DK4515               2CZ
658614003658614301-085004     658614006003000420469ORN LOVE PLAQUE 21X10CM0000001000+00003507+00000+0001T   00003946+0006470932          1400 DK4505               2CZ
658614004658614112-116069     658614006009681820277TCS CARRIER BAG JUMBO  0000001000+00000048+00000+0001T   00000048+0000000932          1400 DK4090               2CZ
658615000658615               658615               170213GL     1400+00000+GL0000006079+0000006079+000000000+000000853+0000006930+0000000002+I20000000000+0000006930+Z
658615001658615304-001011     658615006001023806727FLWR ROSE RED W/BEAR   0000007000+00000613+00000+0001T   00000788+0006470937          1400 DK4510               2CZ
658615002658615006-000120     658615006001023346889BALLOONS 10PC MIX COL  0000001000+00001753+00000+0001T   00001753+0000000937          1400 DK4131               2CZ
658615003658615112-116038     658615006009681820246TCS CARRIER BAG MIDI   0000001000+00000035+00000+0001T   00000035+0000000937          1400 DK4090               2CZ
658616000658616               658616               170213GL     1400+00000+GL0000002630+0000002630+000000000+000000369+0000002990+0000000009+I20000000000+0000002990+Z
658616001658616106-001099     658616006003000653447WATER BOTTLE 650ml     0000001000+00002630+00000+0001T   00002630+0000001040          1400 DK4210               2CZ
658617000658617               658617               170213GL     1400+00000+GL0000015833+0000015833+000000000+000002218+0000018050+0000000001+I20000000000+0000018050+Z
658617001658617028-000031     658617006003000270897COOLER-BAG THERMAL 6PK 0000001000+00003507+00000+0001T   00003507+0000001040          1400 DK4305               2CZ
658617002658617028-000014     658617006001334001316ICE-BRICK SOLID MEDIUM 0000001000+00001753+00000+0001T   00001753+0000001040          1400 DK4305               2CZ
658617003658617486-001014     658617006001023847386WALL-CLOCK PL 30CM     0000001000+00010525+00000+0001T   00010525+0000001040          1400 DK4510               2CZ
658617004658617112-116069     658617006009681820277TCS CARRIER BAG JUMBO  0000001000+00000048+00000+0001T   00000048+0000001040          1400 DK4090               2CZ
658618000658618               658618               170213GL     1400+00000+GL0000010559+0000010559+000000000+000001479+0000012030+0000000008+I20000000000+0000012030+Z
658618001658618175-000803     658618000772078200421HOTWATER BOTTLE RUBBER 0000002000+00005262+00000+0001T   00005262+0000001042          1400 DK4520               2CZ
658618002658618112-116038     658618006009681820246TCS CARRIER BAG MIDI   0000001000+00000035+00000+0001T   00000035+0000001042          1400 DK4090               2CZ
658619000658619               658619               170213GL     1400+00000+GL0000006575+0000006575+000000000+000000922+0000007490+0000000007+I20000000000+0000007490+Z
658619001658619366-000256     658619006001023918406DRESS UP TIARA&EARRINGS0000001000+00003069+00000+0001T   00003069+0000001043          1400 DK4131               2CZ
658619002658619077-000239     658619006003000160419GIFT-RIBBON ROLL PEARL 0000002000+00001753+00000+0001T   00001753+0000001043          1400 DK4112               2CZ
658620000658620               658620               170213GL     1400+00000+GL0000009648+0000009648+000000000+000001351+0000010999+0000000000+I40000010999+0000000000+Z
658620001658620030-004015     658620006003000467624PLAQUE WDN SIGN 30X20CM0000001000+00009648+00000+0001T   00009648+0000001101          1400 DK4505               2CZ
658621000658621               658621               170213GL     1400+00000+GL0000003622+0000003622+000000000+000000512+0000004130+0000000004+I20000000000+0000004130+Z
658621001658621903-000200     658621006009826020234SWT CHOC RP CHOCO 23G  0000003000+00000788+00000+0001T   00000788+0000001103          1400 DK4150               2CZ
658621002658621903-000183     658621006003000451043SWT LB HEART LOLLY     0000002000+00000393+00000+0001T   00000393+0000001103          1400 DK4150               2CZ
658621003658621080-000133     658621006003000535613CARD&ENV MINI ASTD DSGN0000001000+00000437+00000+0001T   00000437+0000001103          1400 DK4112               2CZ
658621004658621112-116038     658621006009681820246TCS CARRIER BAG MIDI   0000001000+00000035+00000+0001T   00000035+0000001103          1400 DK4090               2CZ
658622000658622               658622               170213GL     1400+00000+GL0000008328+0000008328+000000000+000001166+0000009490+0000000004+I20000000000+0000009490+Z
658622001658622567-011350     658622009780709716693BK STICKER COLOUR DOT  0000001000+00003507+00000+0001T   00003507+0000001103          1400 DK4757               2CZ
658622002658622567-011436     658622009780857260611BK STICKER GIRLS ACTIVI0000001000+00003507+00000+0001T   00003507+0000001103          1400 DK4757               2CZ
658622003658622563-000317-B   658622006001023776174SERVIETTES PLN WHT PK400000001000+00001314+00000+0001T   00001314+0000001103          1400 DK4214               2CZ
658623000658623               658623               170213GL     1400+00000+GL0000007049+0000007049+000000000+000000987+0000008036+0000000000+I40000008036+0000000000+Z
658623001658623031-000923     658623006001023669933P/FRAME BLK W/WORDS    0000001000+00003507+00000+0001T   00003507+0000001106          1400 DK4510               2CZ
658623002658623567-011906     658623006003000676286BK PROMO CLEARANCE     0000001000+00003507+00000+0001T   00004385+0008141106          1400 DK4757               2CZ
658623003658623112-116038     658623006009681820246TCS CARRIER BAG MIDI   0000001000+00000035+00000+0001T   00000035+0000001106          1400 DK4090               2CZ
658624000658624               658624               170213GL     1400+00000+GL0000003750+0000003750+000000000+000000526+0000004270+0000000006+I20000000000+0000004270+Z
658624001658624304-001011     658624006001023806727FLWR ROSE RED W/BEAR   0000002000+00000613+00000+0001T   00000788+0006471108          1400 DK4510               2CZ
658624002658624077-000380     658624006003000247585GIFT-BAG 33X45CM S/COL 0000001000+00002455+00000+0001T   00002455+0000001108          1400 DK4112               2CZ
658624003658624112-116053     658624006006438002399TCS CARRIER BAG 38L    0000001000+00000069+00000+0001T   00000069+0000001108          1400 DK4090               2CZ
658625000658625               658625               170213GL     1400+00000+GL0000000876+0000000876+000000000+000000123+0000000990+0000000009+I20000000000+0000000990+Z
658625001658625077-000011-C   658625006001023808523TISSUE 10xSHTS RED     0000001000+00000876+00000+0001T   00000876+0000001108          1400 DK4112               2CZ
658626000658626               658626               170213GL     1400+00000+GL0000000788+0000000788+000000000+000000111+0000000890+0000000009+I20000000000+0000000890+Z
658626001658626077-000010-C   658626006001023123879CREPE-PAPER RED        0000001000+00000788+00000+0001T   00000788+0000001110          1400 DK4112               2CZ
658627000658627               658627               170213GL     1400+00000+GL0000001578+0000001578+000000000+000000221+0000001790+0000000009+I20000000000+0000001790+Z
658627001658627078-013424     658627006008741000338CONTACT-ADHESIVE 50ml  0000001000+00001578+00000+0001T   00001578+0000001116          1400 DK4810               2CZ
658628000658628               658628               170213GL     1400+00000+GL0000003555+0000003555+000000000+000000498+0000004050+0000000003+I20000000000+0000004050+Z
658628001658628112-116069     658628006009681820277TCS CARRIER BAG JUMBO  0000001000+00000048+00000+0001T   00000048+0000001118          1400 DK4090               2CZ
658628002658628466-000106     658628006003000128112BALL PL 20CM BASKETBALL0000001000+00003507+00000+0001T   00003507+0000001118          1400 DK4785               2CZ
658629000658629               658629               170213GL     1400+00000+GL0000000876+0000000876+000000000+000000123+0000000990+0000000009+I20000000000+0000000990+Z
658629001658629077-000314     658629006003000181148GIFT-BAG 11X14CM MATT  0000001000+00000876+00000+0001T   00000876+0000001120          1400 DK4112               2CZ
658630000658630               658630               170213GL     1400+00000+GL0000001314+0000001314+000000000+000000184+0000001490+0000000008+I20000000000+0000001490+Z
658630001658630077-000312     658630006001023608697GIFT-BAG 10X35CM GLOSS 0000001000+00001314+00000+0001T   00001314+0000001122          1400 DK4112               2CZ
658631000658631               658631               170213GL     1400+00000+GL0000023657+0000023657+000000000+000003315+0000026972+0000000000+I40000026972+0000000000+Z
658631001658631033-006004     658631006001023703316SEWING-KIT IN-POUCH    0000001000+00002192+00000+0001T   00002192+0000001131          1400 DK4200               2CZ
658631002658631033-005917     658631006001023678201SEAM-RIP+THIMBLE-SET   0000001000+00000788+00000+0001T   00000788+0000001131          1400 DK4200               2CZ
658631003658631080-000133-A   658631006003000647019MINI VALENTINES CARD   0000001000+00000437+00000+0001T   00000437+0000001131          1400 DK4112               2CZ
658631004658631018-000136     658631006001023659026MUG OCC LOVE W/PLUSH   0000001000+00003507+00000+0001T   00003507+0000001131          1400 DK4515               2CZ
658631005658631261-004004     658631006001023786067GUN SPACE BLASTER W/10 0000001000+00014911+00000+0001T   00014911+0000001131          1400 DK4710               2CZ
658631006658631112-116053     658631006006438002399TCS CARRIER BAG 38L    0000001000+00000069+00000+0001T   00000069+0000001131          1400 DK4090               2CZ
658631007658631077-000115     658631006001023834225WRAP METALLIC 700mmx1m 0000001000+00001753+00000+0001T   00001753+0000001131          1400 DK4112               2CZ
658632000658632               658632               170213GL     1400+00000+GL0000005070+0000005070+000000000+000000713+0000005780+0000000003+I20000000000+0000005780+Z
658632001658632006-000171-C   658632006003000609178BALLOONS 1PC D/GRN PRNT0000002000+00000218+00000+0001T   00000218+0000001134          1400 DK4131               2CZ
658632002658632006-000171-D   658632006003000609291BALLOONS 1PC ORANGE PRN0000001000+00000218+00000+0001T   00000218+0000001134          1400 DK4131               2CZ
658632003658632006-000171-K   658632006003000609697BALLOONS 1PC PURPLE PRN0000001000+00000218+00000+0001T   00000218+0000001134          1400 DK4131               2CZ
658632004658632039-000319-5   658632006003000442867B/CANDLES LRG NUMBER-5 0000001000+00000876+00000+0001T   00000876+0000001134          1400 DK4510               2CZ
658632005658632104-000052     658632006003000450787BASKET PL 23x8x13cm    0000001000+00002455+00000+0001T   00002455+0000001134          1400 DK4210               2CZ
658632006658632159-000150-B   658632006003000058440SOAP-BOX PL ASSORTED   0000001000+00000832+00000+0001T   00000832+0000001134          1400 DK4200               2CZ
658632007658632112-116038     658632006009681820246TCS CARRIER BAG MIDI   0000001000+00000035+00000+0001T   00000035+0000001134          1400 DK4090               2CZ
658633000658633               658633               170213GL     1400+00000+GL0000003068+0000003068+000000000+000000430+0000003490+0000000008+I20000000000+0000003490+Z
658633001658633077-000315     658633006003000181186GIFT-BAG 20x28cm MATT  0000001000+00001578+00000+0001T   00001578+0000001138          1400 DK4112               2CZ
658633002658633077-000299     658633006003000395576G/BAG 32x25cm LRG LOVE 0000001000+00001490+00000+0001T   00001490+0000001138          1400 DK4112               2CZ
658634000658634               658634               170213GL     1400+00000+GL0000012324+0000012324+000000000+000001727+0000014051+0000000000+I40000014051+0000000000+Z
658634001658634001-091415     658634006003000329113W/GLS OCC. LOVE 2PC 2800000001000+00008771+00000+0001T   00009648+0006471143          1400 DK4515               2CZ
658634002658634077-000150-D   658634006003000054343GIFT-WRAP CELLPHANE CLR0000002000+00000876+00000+0001T   00000876+0000001143          1400 DK4112               2CZ
658634003658634146-000432     658634006003000304752SPRAYER TWIST-NOZZLE   0000001000+00001753+00000+0001T   00001753+0000001143          1400 DK4820               2CZ
658634004658634112-116069     658634006009681820277TCS CARRIER BAG JUMBO  0000001000+00000048+00000+0001T   00000048+0000001143          1400 DK4090               2CZ
658635000658635               658635               170213GL     1400+00000+GL0000005262+0000005262+000000000+000000737+0000005990+0000000009+I20000000000+0000005990+Z
658635001658635368-000053     658635006003000633449PLUSH BEAR 15.5cm MUM  0000001000+00005262+00000+0001T   00005262+0000001145          1400 DK4745               2CZ
658636000658636               658636               170213GL     1400+00000+GL0000002192+0000002192+000000000+000000307+0000002490+0000000009+I20000000000+0000002490+Z
658636001658636251-000002     658636006003000093991TAPE D-SIDED 24x1000mm 0000001000+00002192+00000+0001T   00002192+0000001146          1400 DK4810               2CZ
658637000658637               658637               170213GL     1400+00000+GL0000006181+0000006181+000000000+000000868+0000007040+0000000009+I20000000000+0000007040+Z
658637001658637903-000087     658637006001704000161SWT SPECKLED-EGGS 50G  0000002000+00001139+00000+0001T   00001139+0000001311          1400 DK4150               2CZ
658637002658637903-000194     658637006009826020616SWT CHOC RP LOLLY 25G  0000001000+00001314+00000+0001T   00001314+0000001311          1400 DK4150               2CZ
658637003658637903-000200     658637006009826020234SWT CHOC RP CHOCO 23G  0000001000+00000788+00000+0001T   00000788+0000001311          1400 DK4150               2CZ
658637004658637077-000316     658637006001023609731GIFT-BAG 25X32CM MATT  0000001000+00001753+00000+0001T   00001753+0000001311          1400 DK4112               2CZ
658637005658637112-116069     658637006009681820277TCS CARRIER BAG JUMBO  0000001000+00000048+00000+0001T   00000048+0000001311          1400 DK4090               2CZ
658638000658638               658638               170213GL     1400+00000+GL0000005259+0000005259+000000000+000000738+0000005990+0000000007+I20000000000+0000005990+Z
658638001658638007-000723     658638006003000226078MEMO BOOK W/PEN 100SHTS0000003000+00001753+00000+0001T   00001753+0000001315          1400 DK4130               2CZ
658639000658639               658639               170213GL     1400+00000+GL0000006139+0000006139+000000000+000000860+0000006990+0000000009+I20000000000+0000006990+Z
658639001658639007-000323     658639006009697791042PAPER A4 80GSM 100'S   0000001000+00006139+00000+0001T   00006139+0000001317          1400 DK4130               2CZ
658640000658640               658640               170213GL     1400+00000+GL0000005822+0000005822+000000000+000000816+0000006638+0000000000+I40000006638+0000000000+Z
658640001658640039-082106     658640006001023847348C/VOTIVE 8PC VANILLA   0000001000+00005262+00000+0001T   00005262+0000001318          1400 DK4510               2CZ
658640002658640903-000155     658640006009803374435SWT LOLLY I LUV U HEART0000001000+00000525+00000+0001T   00000525+0000001318          1400 DK4150               2CZ
658640003658640112-116038     658640006009681820246TCS CARRIER BAG MIDI   0000001000+00000035+00000+0001T   00000035+0000001318          1400 DK4090               2CZ
658641000658641               658641               170213GL     1400+00000+GL0000021866+0000021866+000000000+000003071+0000024937+0000000000+I40000024937+0000000000+Z
658641001658641077-000299     658641006003000395576G/BAG 32x25cm LRG LOVE 0000001000+00001490+00000+0001T   00001490+0000001322          1400 DK4112               2CZ
658641002658641016-006509     658641006003000567355S/JAR GLS MINI LABEL   0000004000+00001753+00000+0001T   00002192+0008191322          1400 DK4300               2CZ
658641003658641077-000010-C   658641006001023123879CREPE-PAPER RED        0000001000+00000788+00000+0001T   00000788+0000001322          1400 DK4112               2CZ
658641004658641903-000095     658641006001704011495SWT SPECKLED-EGGS 100G 0000002000+00002104+00000+0001T   00002104+0000001322          1400 DK4150               2CZ
658641005658641903-000699     658641006002099007018SWT CANDY FRUIT CHEWS  0000002000+00001139+00000+0001T   00001139+0000001322          1400 DK4150               2CZ
658641006658641903-000137     658641006002099004130SWEET GS JELLY BEAN 60G0000003000+00000788+00000+0001T   00000788+0000001322          1400 DK4150               2CZ
658641007658641903-000521     658641006001704009652SWT GUMMY SOFT GUMS    0000003000+00000876+00000+0001T   00000876+0000001322          1400 DK4150               2CZ
658641008658641112-116069     658641006009681820277TCS CARRIER BAG JUMBO  0000001000+00000048+00000+0001T   00000048+0000001322          1400 DK4090               2CZ
658641009658641903-000155     658641006009803374435SWT LOLLY I LUV U HEART0000002000+00000525+00000+0001T   00000525+0000001322          1400 DK4150               2CZ
658642000658642               658642               170213GL     1400+00000+GL0000007674+0000007674+000000000+000001076+0000008750+0000000000+I20000000000+0000008750+Z
658642001658642567-014132     658642006003000560028BOOK COLOURING 24 PAGE 0000001000+00000876+00000+0001T   00000876+0000001324          1400 DK4757               2CZ
658642002658642079-000512     658642006001023635853CRAYONS WAX 12-COLOUR  0000001000+00001490+00000+0001T   00001490+0000001324          1400 DK4130               2CZ
658642003658642032-000313     658642006003000192076MIRROR POCKET PL ROUND 0000001000+00001753+00000+0001T   00001753+0000001324          1400 DK4510               2CZ
658642004658642012-000002     658642006003000331079MICRO PLATE-COVER 26X9 0000001000+00003507+00000+0001T   00003507+0000001324          1400 DK4300               2CZ
658642005658642112-116069     658642006009681820277TCS CARRIER BAG JUMBO  0000001000+00000048+00000+0001T   00000048+0000001324          1400 DK4090               2CZ
658643000658643               658643               170213GL     1400+00000+GL0000002104+0000002104+000000000+000000295+0000002390+0000000009+I20000000000+0000002390+Z
658643001658643903-000095     658643006001704011495SWT SPECKLED-EGGS 100G 0000001000+00002104+00000+0001T   00002104+0000001324          1400 DK4150               2CZ
658644000658644               658644               170213GL     1400+00000+GL0000000876+0000000876+000000000+000000123+0000000990+0000000009+I20000000000+0000000990+Z
658644001658644903-000481     658644006001704007481SWT MOO MILK-SHAKES 60G0000001000+00000876+00000+0001T   00000876+0000001325          1400 DK4150               2CZ
658645000658645               658645               170213GL     1400+00000+GL0000005606+0000005606+000000000+000000789+0000006390+0000000005+I20000000000+0000006390+Z
658645001658645047-000153     658645006001023596475SOCKET-PROTECTORS 4PCE 0000001000+00001402+00000+0001T   00001402+0000001339          1400 DK4880               2CZ
658645002658645079-009702-F   658645008427973059392PAPER SIRIO A2 GREEN   0000002000+00001051+00000+0001T   00001051+0000001339          1400 DK4130               2CZ
658645003658645079-009702-D   658645008427973059354PAPER SIRIO A2 RED COL 0000001000+00001051+00000+0001T   00001051+0000001339          1400 DK4130               2CZ
658645004658645079-009702-G   658645008427973060787PAPER SIRIO A2 FUSHIA  0000001000+00001051+00000+0001T   00001051+0000001339          1400 DK4130               2CZ
658646000658646               658646               170213GL     1400+00000+GL0000000069+0000000069+000000000+000000010+0000000070+0000000009+I20000000000+0000000070+Z
658646001658646112-116053     658646006006438002399TCS CARRIER BAG 38L    0000001000+00000069+00000+0001T   00000069+0000001340          1400 DK4090               2CZ
658647000658647               658647               170213GL     1400+00000+GL0000003069+0000003069+000000000+000000430+0000003490+0000000009+I20000000000+0000003490+Z
658647001658647002-003733     658647006001023849182STRAINER D/FRY 20CM    0000001000+00003069+00000+0001T   00003069+0000001342          1400 DK4300               2CZ
658648000658648               658648               170213GL     1400+00000+GL0000011901+0000011901+000000000+000001678+0000013570+0000000009+I20000000000+0000013570+Z
658648001658648080-000133-A   658648006003000647019MINI VALENTINES CARD   0000002000+00000437+00000+0001T   00000437+0000001354          1400 DK4112               2CZ
658648002658648080-000133     658648006003000535613CARD&ENV MINI ASTD DSGN0000011000+00000437+00000+0001T   00000437+0000001354          1400 DK4112               2CZ
658648003658648006-000166-D   658648006003000516490BALLOONS LRG 6PC RED   0000001000+00001314+00000+0001T   00001314+0000001354          1400 DK4131               2CZ
658648004658648006-000166-H   658648006003000608096BALLOONS HELIUM 6PC WHT0000001000+00001314+00000+0001T   00001314+0000001354          1400 DK4131               2CZ
658648005658648089-000192-A   658648006001023901774KEY-CHAIN ACRYLIC      0000001000+00000876+00000+0001T   00000876+0000001354          1400 DK4205               2CZ
658648006658648089-001021     658648006003000112319KEY CHAIN MINI BIBLE   0000001000+00001490+00000+0001T   00001490+0000001354          1400 DK4205               2CZ
658648007658648304-001011     658648006001023806727FLWR ROSE RED W/BEAR   0000002000+00000613+00000+0001T   00000788+0006471354          1400 DK4510               2CZ
658649000658649               658649               170213GL     1400+00000+GL0000000437+0000000437+000000000+000000062+0000000490+0000000009+I20000000000+0000000490+Z
658649001658649080-000133     658649006003000535613CARD&ENV MINI ASTD DSGN0000001000+00000437+00000+0001T   00000437+0000001355          1400 DK4112               2CZ
658650000658650               658650               170213GL     1400+00000+GL0000009205+0000009205+000000000+000001291+0000010490+0000000006+I20000000000+0000010490+Z
658650001658650002-000746     658650006003000463305GRATER 3-ASSTD COLOURS 0000001000+00001753+00000+0001T   00001753+0000001355          1400 DK4300               2CZ
658650002658650002-000684     658650006001023693778K/TOOL TURNER H/HOUSE  0000001000+00002192+00000+0001T   00002192+0000001355          1400 DK4300               2CZ
658650003658650220-009104     658650006001023706843ROSE DESS-SPOONS 4PCE  0000002000+00002630+00000+0001T   00002630+0000001355          1400 DK4300               2CZ
658651000658651               658651               170213GL     1400+00000+GL0000004382+0000004382+000000000+000000615+0000004990+0000000007+I20000000000+0000004990+Z
658651001658651200-003026     658651006003000276448REFUSE BAGS 10PCE GREEN0000002000+00001753+00000+0001T   00001753+0000001357          1400 DK4214               2CZ
658651002658651038-047246     658651006001023873750PLACEMAT 44x28cm KIDS  0000001000+00000876+00000+0001T   00000876+0000001357          1400 DK4300               2CZ
658652000658652               658652               170213GL     1400+00000+GL0000006838+0000006838+000000000+000000959+0000007790+0000000007+I20000000000+0000007790+Z
658652001658652079-000344     658652006001023904010FELT-TIP PENS 12PCE    0000001000+00002630+00000+0001T   00002630+0000001357          1400 DK4130               2CZ
658652002658652079-000510     658652006001023509079CRAYONS WAX 12-COLOUR  0000001000+00002455+00000+0001T   00002455+0000001357          1400 DK4130               2CZ
658652003658652071-010481     658652006001023417220MAGNIFYING-GLASS 90mm-D0000001000+00001753+00000+0001T   00001753+0000001357          1400 DK4130               2CZ
658653000658653               658653               170213GL     1400+00000+GL0000003239+0000003239+000000000+000000456+0000003695+0000000000+I40000003695+0000000000+Z
658653001658653903-000087     658653006001704000161SWT SPECKLED-EGGS 50G  0000001000+00001139+00000+0001T   00001139+0000001513          1400 DK4150               2CZ
658653002658653903-000151     658653006009803374411SWT SML RND R/BOW LOLLY0000003000+00000525+00000+0001T   00000525+0000001513          1400 DK4150               2CZ
658653003658653903-000155     658653006009803374435SWT LOLLY I LUV U HEART0000001000+00000525+00000+0001T   00000525+0000001513          1400 DK4150               2CZ
658654000658654               658654               170213GL     1400+00000+GL0000000525+0000000525+000000000+000000074+0000000590+0000000009+I20000000000+0000000590+Z
658654001658654903-000155     658654006009803374435SWT LOLLY I LUV U HEART0000001000+00000525+00000+0001T   00000525+0000001514          1400 DK41501IC            2CZ
658655000658655               658655               170213GL     1400+00000+GL0000005262+0000005262+000000000+000000737+0000005990+0000000009+I20000000000+0000005990+Z
658655001658655366-002195     658655006001023990549DRESS UP WINGS FEATHER 0000001000+00005262+00000+0001T   00005262+0000001517          1400 DK4131               2CZ
658656000658656               658656               170213GL     1400+00000+GL0000005910+0000005910+000000000+000000828+0000006730+0000000008+I20000000000+0000006730+Z
658656001658656304-001011     658656006001023806727FLWR ROSE RED W/BEAR   0000001000+00000613+00000+0001T   00000788+0006471517          1400 DK4510               2CZ
658656002658656366-002195     658656006001023990549DRESS UP WINGS FEATHER 0000001000+00005262+00000+0001T   00005262+0000001517          1400 DK4131               2CZ
658656003658656112-116038     658656006009681820246TCS CARRIER BAG MIDI   0000001000+00000035+00000+0001T   00000035+0000001517          1400 DK4090               2CZ
658657000658657               658657               170213GL     1400+00000+GL0000003974+0000003974+000000000+000000557+0000004530+0000000001+I20000000000+0000004530+Z
658657001658657304-001011     658657006001023806727FLWR ROSE RED W/BEAR   0000003000+00000613+00000+0001T   00000788+0006471520          1400 DK4510               2CZ
658657002658657018-000177     658657006001023797513MUG MINI LOVE ASSTD    0000003000+00000700+00000+0001T   00000700+0000001520          1400 DK4515               2CZ
658657003658657112-116038     658657006009681820246TCS CARRIER BAG MIDI   0000001000+00000035+00000+0001T   00000035+0000001520          1400 DK4090               2CZ
658658000658658               658658               170213GL     1400+00000+GL0000000876+0000000876+000000000+000000123+0000000990+0000000009+I20000000000+0000000990+Z
658658001658658089-000192-A   658658006001023901774KEY-CHAIN ACRYLIC      0000001000+00000876+00000+0001T   00000876+0000001523          1400 DK4205               2CZ
658659000658659               658659               170213GL     1400+00000+GL0000005470+0000005470+000000000+000000766+0000006230+0000000006+I20000000000+0000006230+Z
658659001658659106-001115     658659006009654960313WATER-BOTTLE PL 750ml  0000001000+00001928+00000+0001T   00001928+0000001525          1400 DK4210               2CZ
658659002658659369-001031     658659006001023796219BABY RATTLE SET 2PC    0000001000+00003507+00000+0001T   00003507+0000001525          1400 DK4745               2CZ
658659003658659112-116038     658659006009681820246TCS CARRIER BAG MIDI   0000001000+00000035+00000+0001T   00000035+0000001525          1400 DK4090               2CZ
658660000658660               658660               170213GL     1400+00000+GL0000005043+0000005043+000000000+000000707+0000005750+0000000000+I20000000000+0000005750+Z
658660001658660200-000092     658660006003000576739PICNIC PAPER PLATES 23c0000002000+00001227+00000+0001T   00001227+0000001526          1400 DK4214               2CZ
658660002658660200-000100     658660006001023764003CUPS 25PCE DISPOSABLE  0000001000+00001928+00000+0001T   00001928+0000001526          1400 DK4214               2CZ
658660003658660200-000130     658660006001023645067DESSERT-SPOONS 10PCE   0000001000+00000613+00000+0001T   00000613+0000001526          1400 DK4214               2CZ
658660004658660112-116069     658660006009681820277TCS CARRIER BAG JUMBO  0000001000+00000048+00000+0001T   00000048+0000001526          1400 DK4090               2CZ
658661000658661               658661               170213GL     1400+00000+GL0000001663+0000001663+000000000+000000234+0000001897+0000000000+I40000001897+0000000000+Z
658661001658661077-000311     658661006001023608666GIFT-BAG 11X14CM GLOSS 0000001000+00000613+00000+0001T   00000613+0000001527          1400 DK4112               2CZ
658661002658661903-000155     658661006009803374435SWT LOLLY I LUV U HEART0000002000+00000525+00000+0001T   00000525+0000001527          1400 DK4150               2CZ
658662000658662               658662               170213GL     1400+00000+GL0000002192+0000002192+000000000+000000307+0000002490+0000000009+I20000000000+0000002490+Z
658662001658662089-000501     658662006003000622900KEY CHAIN LIGHT LASER  0000001000+00002192+00000+0001T   00002192+0000001528          1400 DK4205               2CZ
658663000658663               658663               170213GL     1400+00000+GL0000001314+0000001314+000000000+000000184+0000001490+0000000008+I20000000000+0000001490+Z
658663001658663563-000317-B   658663006001023776174SERVIETTES PLN WHT PK400000001000+00001314+00000+0001T   00001314+0000001529          1400 DK4214               2CZ
658664000658664               658664               170213GL     1400+00000+GL0000003507+0000003507+000000000+000000491+0000003990+0000000008+I20000000000+0000003990+Z
658664001658664204-000003     658664006003000593583MEMO HOLDERS POLY 4ASST0000001000+00003507+00000+0001T   00003507+0000001530          1400 DK4300               2CZ
658665000658665               658665               170213GL     1400+00000+GL0000002630+0000002630+000000000+000000369+0000002990+0000000009+I20000000000+0000002990+Z
658665001658665368-000040     658665006003000671786PLUSH ICONS 7.5cm      0000001000+00002630+00000+0001T   00002630+0000001530          1400 DK4745               2CZ
658666000658666               658666               170213GL     1400+00000+GL0000002628+0000002628+000000000+000000368+0000002990+0000000006+I20000000000+0000002990+Z
658666001658666006-000166-H   658666006003000608096BALLOONS HELIUM 6PC WHT0000002000+00001314+00000+0001T   00001314+0000001533          1400 DK4131               2CZ
658667000658667               658667               170213GL     1400+00000+GL0000002630+0000002630+000000000+000000369+0000002990+0000000009+I20000000000+0000002990+Z
658667001658667007-000602     658667006003000541270BOOK COVER 2M SOLID COL0000001000+00002630+00000+0001T   00002630+0000001533          1400 DK4130               2CZ
658668000658668               658668               170213GL     1400+00000+GL0000008287+0000008287+000000000+000001163+0000009450+0000000000+I20000000000+0000009450+Z
658668001658668077-000322     658668006001023677532GIFT-BAG 18X23CM E/D FL0000001000+00001227+00000+0001T   00001227+0000001537          1400 DK4112               2CZ
658668002658668077-000309     658668006001023608604GIFT-BAG 25X32CM GLOSS 0000001000+00001753+00000+0001T   00001753+0000001537          1400 DK4112               2CZ
658668003658668077-000316     658668006001023609731GIFT-BAG 25X32CM MATT  0000003000+00001753+00000+0001T   00001753+0000001537          1400 DK4112               2CZ
658668004658668112-116069     658668006009681820277TCS CARRIER BAG JUMBO  0000001000+00000048+00000+0001T   00000048+0000001537          1400 DK4090               2CZ
658669000658669               658669               170213GL     1400+00000+GL0000008679+0000008679+000000000+000001217+0000009890+0000000006+I20000000000+0000009890+Z
658669001658669903-000138     658669006002099004314SWT GS WINE GUMS 60G   0000001000+00000788+00000+0001T   00000788+0000001609          1400 DK4150               2CZ
658669002658669080-000104     658669006003000236978CARD&ENVLP MALE AFR    0000002000+00001753+00000+0001T   00001753+0000001609          1400 DK4112               2CZ
658669003658669031-000851     658669006001023851994P/FRAME COL 4-H 31X17CM0000001000+00004385+00000+0001T   00004385+0000001609          1400 DK4510               2CZ
658670000658670               658670               170213GL     1400+00000+GL0000000876+0000000876+000000000+000000123+0000000990+0000000009+I20000000000+0000000990+Z
658670001658670564-000030     658670006001023897022BUBBLE NOVELTY BOTTLE  0000001000+00000876+00000+0001T   00000876+0000001609          1400 DK4131               2CZ
658671000658671               658671               170213GL     1400+00000+GL0000004385+0000004385+000000000+000000614+0000004990+0000000009+I20000000000+0000004990+Z
658671001658671031-000851     658671006001023851994P/FRAME COL 4-H 31X17CM0000001000+00004385+00000+0001T   00004385+0000001610          1400 DK4510               2CZ
658672000658672               658672               170213GL     1400+00000+GL0000004904+0000004904+000000000+000000689+0000005590+0000000003+I20000000000+0000005590+Z
658672001658672077-000456     658672006003000285549G/BAG METALLIC JMB EMB 0000001000+00002630+00000+0001T   00002630+0000001635          1400 DK4112               2CZ
658672002658672564-000012     658672006001023130075BUBBLE BOTTLE MAGIC    0000002000+00000700+00000+0001T   00000700+0000001635          1400 DK4131               2CZ
658672003658672080-000133     658672006003000535613CARD&ENV MINI ASTD DSGN0000002000+00000437+00000+0001T   00000437+0000001635          1400 DK4112               2CZ
658673000658673               658673               170213GL     1400+00000+GL0000003067+0000003067+000000000+000000431+0000003490+0000000008+I20000000000+0000003490+Z
658673001658673080-000133-A   658673006003000647019MINI VALENTINES CARD   0000001000+00000437+00000+0001T   00000437+0000001635          1400 DK4112               2CZ
658673002658673366-000292     658673006001023828958HEADBAND COL-FEATHERS  0000001000+00002630+00000+0001T   00002630+0000001635          1400 DK4131               2CZ
658674000658674               658674               170213GL     1400+00000+GL0000001314+0000001314+000000000+000000184+0000001490+0000000008+I20000000000+0000001490+Z
658674001658674251-000001     658674006001023487681TAPE DBL-SIDE 18x1000mm0000001000+00001314+00000+0001T   00001314+0000001636          1400 DK4810               2CZ
658675000658675               658675               170213GL     1400+00000+GL0000009645-0000009645-000000000+000001352-0000011000-0000000003+I20000000000+0000011000-Z
658675001658675082-007587     658675006003000654338SUNGLASS DESIGNER ASST 0000001000-00004385+00000+0001T   00004385+0000001702          1400 DK41601IC            2 Z
658675002658675368-000040     658675006003000671786PLUSH ICONS 7.5cm      0000001000-00002630+00000+0001T   00002630+0000001702          1400 DK47451IC            2 Z
658675003658675565-000040     658675006008766115635NOVELTY ICON BEANIE    0000001000-00002630+00000+0001T   00002630+0000001702          1400 DK47451IC            2 Z
658676000658676               658676               170213GL     1400+00000+GL0000000788+0000000788+000000000+000000111+0000000890+0000000009+I20000000000+0000000890+Z
658676001658676077-000010-C   658676006001023123879CREPE-PAPER RED        0000001000+00000788+00000+0001T   00000788+0000001703          1400 DK4112               2CZ
658676002658676903-000194     658676006009826020616SWT CHOC RP LOLLY 25G  0000001000-00001314+00000+0001T   00001314+0000001703          1400 DK41502IC            2 Z
658676003658676903-000194     658676006009826020616SWT CHOC RP LOLLY 25G  0000001000+00001314+00000+0001T   00001314+0000001703          1400 DK41502IC            2CZ
658677000658677               658677               170213GL     1400+00000+GL0000001753+0000001753+000000000+000000246+0000001990+0000000009+I20000000000+0000001990+Z
658677001658677077-000240     658677006003000326259G/RIBBON 4PC PEARLIZED 0000001000+00001753+00000+0001T   00001753+0000001703          1400 DK4112               2CZ
658678000658678               658678               170213GL     1400+00000+GL0000019361+0000019361+000000000+000002713+0000022070+0000000004+I20000000000+0000022070+Z
658678001658678263-000417     658678006003000598984VEHICLES MONSTER FRICT.0000002000+00007016+00000+0001T   00007016+0000001705          1400 DK4710               2CZ
658678002658678077-000472     658678006003000330133G-BAG DESGNR LRG 25X32 0000001000+00001753+00000+0001T   00001753+0000001705          1400 DK4112               2CZ
658678003658678018-000136     658678006001023659026MUG OCC LOVE W/PLUSH   0000001000+00003507+00000+0001T   00003507+0000001705          1400 DK4515               2CZ
658678004658678112-116053     658678006006438002399TCS CARRIER BAG 38L    0000001000+00000069+00000+0001T   00000069+0000001705          1400 DK4090               2CZ
658679000658679               658679               170213GL     1400+00000+GL0000005262+0000005262+000000000+000000737+0000005990+0000000009+I20000000000+0000005990+Z
658679001658679566-000320     658679006003000422890STICKERS R/DEC. NATURE 0000001000+00005262+00000+0001T   00005262+0000001710          1400 DK4130               2CZ
658680000658680               658680               170213GL     1400+00000+GL0000000613+0000000613+000000000+000000086+0000000690+0000000009+I20000000000+0000000690+Z
658680001658680304-001011     658680006001023806727FLWR ROSE RED W/BEAR   0000001000+00000613+00000+0001T   00000788+0006471712          1400 DK4510               2CZ
658681000658681               658681               170213GL     1400+00000+GL0000014251+0000014251+000000000+000001998+0000016249+0000000000+I40000016249+0000000000+Z
658681001658681077-000319     658681006001023609779GIFT-BAG 18X23CM BIRTHD0000001000+00001227+00000+0001T   00001227+0000001716          1400 DK4112               2CZ
658681002658681106-003115     658681006002689011357ICE CUBE-TRAYS 2PCE WHT0000001000+00001578+00000+0001T   00001578+0000001716          1400 DK4210               2CZ
658681003658681077-000304     658681006001023483232GIFT-BAG 25X32CM E/DAY 0000001000+00001490+00000+0001T   00001490+0000001716          1400 DK4112               2CZ
658681004658681006-000109-A   658681006003000645435BALLOONS HELIUM 2PC    0000001000+00001753+00000+0001T   00001753+0000001716          1400 DK4131               2CZ
658681005658681040-000226     658681006001023845405C/HLDR MTL STAND W/GLS 0000001000+00007016+00000+0001T   00007016+0000001716          1400 DK4510               2CZ
658681006658681112-116069     658681006009681820277TCS CARRIER BAG JUMBO  0000001000+00000048+00000+0001T   00000048+0000001716          1400 DK4090               2CZ
658681007658681903-000087     658681006001704000161SWT SPECKLED-EGGS 50G  0000001000+00001139+00000+0001T   00001139+0000001716          1400 DK4150               2CZ
658682000658682               658682               170213GL     1400+00000+GL0000002629+0000002629+000000000+000000369+0000002990+0000000008+I20000000000+0000002990+Z
658682001658682366-006102     658682006003000648474DRESSUP S/ADH FACE STIK0000001000+00001753+00000+0001T   00001753+0000001717          1400 DK4131               2CZ
658682002658682366-007601     658682006003000655472DRESS UP MASK THEATRICA0000001000+00000876+00000+0001T   00000876+0000001717          1400 DK4131               2CZ
658683000658683               658683               170213GL     1400+00000+GL0000005260+0000005260+000000000+000000738+0000005990+0000000008+I20000000000+0000005990+Z
658683001658683108-009000     658683006003000638673JELLY MOULD WITH LID PL0000001000+00002630+00000+0001T   00003507+0008171718          1400 DK4210               2CZ
658683002658683366-002101     658683006003000617715DRESS UP MASK LIGHT UP 0000001000+00002630+00000+0001T   00002630+0000001718          1400 DK4131               2CZ
658684000658684               658684               170213GL     1400+00000+GL0000002630+0000002630+000000000+000000369+0000002990+0000000009+I20000000000+0000002990+Z
658684001658684007-000602     658684006003000541270BOOK COVER 2M SOLID COL0000001000+00002630+00000+0001T   00002630+0000001718          1400 DK4130               2CZ
658685000658685               658685               170213GL     1400+00000+GL0000003067+0000003067+000000000+000000430+0000003490+0000000007+I20000000000+0000003490+Z
658685001658685006-000166-D   658685006003000516490BALLOONS LRG 6PC RED   0000001000+00001314+00000+0001T   00001314+0000001719          1400 DK4131               2CZ
658685002658685077-000240     658685006003000326259G/RIBBON 4PC PEARLIZED 0000001000+00001753+00000+0001T   00001753+0000001719          1400 DK4112               2CZ
658686000658686               658686               170213GL     1400+00000+GL0000011901+0000011901+000000000+000001671+0000013570+0000000002+I20000000000+0000013570+Z
658686001658686133-000002     658686006001926059749DISH CLOTH MICROFIBRE  0000001000+00002630+00000+0001T   00002630+0000001720          1400 DK4212               2CZ
658686002658686033-000106     658686006001023678027ELASTIC  6mmx3m  CARDED0000001000+00000876+00000+0001T   00000876+0000001720          1400 DK4200               2CZ
658686003658686036-000606     658686006003000322213WASHING PEGS PACK 20   0000002000+00000876+00000+0001T   00001314+0008191720          1400 DK4212               2CZ
658686004658686036-000151     658686006001023810588COATHANGERS    PACK-10 0000002000+00002893+00000+0001T   00002893+0000001720          1400 DK4212               2CZ
658686005658686033-005991     658686006001023678546NEEDLES H/HOLD-REPAIR  0000001000+00000788+00000+0001T   00000788+0000001720          1400 DK4200               2CZ
658686006658686112-116053     658686006006438002399TCS CARRIER BAG 38L    0000001000+00000069+00000+0001T   00000069+0000001720          1400 DK4090               2CZ
658687000658687               658687               170213GL     1400+00000+GL0000004823+0000004823+000000000+000000676+0000005490+0000000009+I20000000000+0000005490+Z
658687001658687301-085001     658687006003000297610ORN WATERBALL LOVE ASST0000001000+00004823+00000+0001T   00004823+0000001722          1400 DK4505               2CZ
658688000658688               658688               170213GL     1400+00000+GL0000004385+0000004385+000000000+000000614+0000004990+0000000009+I20000000000+0000004990+Z
658688001658688006-000190     658688006003000685530BALLOONS LOVE 81x91cm  0000001000+00004385+00000+0001T   00004385+0000001724          1400 DK4131               2CZ
658689000658689               658689               170213GL     1400+00000+GL0000002840+0000002840+000000000+000000398+0000003238+0000000000+I40000003238+0000000000+Z
658689001658689077-000311     658689006001023608666GIFT-BAG 11X14CM GLOSS 0000001000+00000613+00000+0001T   00000613+0000001726          1400 DK4112               2CZ
658689002658689018-000170     658689006001023775528MUG OCC. LOVE 2PC MINI 0000001000+00002192+00000+0001T   00002192+0000001726          1400 DK4515               2CZ
658689003658689112-116038     658689006009681820246TCS CARRIER BAG MIDI   0000001000+00000035+00000+0001T   00000035+0000001726          1400 DK4090               2CZ
658690000658690               658690               170213GL     1400+00000+GL0000003541+0000003541+000000000+000000497+0000004038+0000000000+I40000004038+0000000000+Z
658690001658690306-000024-A   658690006003000577309COTTON-WOOL-PADS 80PC  0000001000+00001753+00000+0001T   00001753+0000001728          1400 DK4200               2CZ
658690002658690200-003024     658690006001023657299REFUSE BAGS 20PCE BLACK0000001000+00001753+00000+0001T   00001753+0000001728          1400 DK4214               2CZ
658690003658690112-116038     658690006009681820246TCS CARRIER BAG MIDI   0000001000+00000035+00000+0001T   00000035+0000001728          1400 DK4090               2CZ
658691000658691               658691               170213GL     1400+00000+GL0000002628+0000002628+000000000+000000368+0000002990+0000000006+I20000000000+0000002990+Z
658691001658691030-000010     658691006003000084395P/DOOR HANGER 2-ASSTD  0000002000+00001314+00000+0001T   00001490+0008181728          1400 DK4505               2CZ
658692000658692               658692               170213GL     1400+00000+GL0000002630+0000002630+000000000+000000369+0000002999+0000000000+I40000002999+0000000000+Z
658692001658692365-008629     658692006001023494009PLAY C/PHONE B/O MUSIC 0000001000+00002630+00000+0001T   00002630+0000001729          1400 DK4725               2CZ
658693000658693               658693               170213GL     1400+00000+GL0000005087+0000005087+000000000+000000714+0000005801+0000000000+I40000005801+0000000000+Z
658693001658693079-009702-A   658693008427973059408PAPER SIRIO A2 BLACK   0000001000+00001051+00000+0001T   00001051+0000001732          1400 DK4130               2CZ
658693002658693071-000012     658693006001177101006CHALK COLOUR 12PCE     0000001000+00000481+00000+0001T   00000481+0000001732          1400 DK4130               2CZ
658693003658693079-011526     658693006003000408375GLITTER & SAND ART     0000001000+00003507+00000+0001T   00003507+0000001732          1400 DK4130               2CZ
658693004658693112-116069     658693006009681820277TCS CARRIER BAG JUMBO  0000001000+00000048+00000+0001T   00000048+0000001732          1400 DK4090               2CZ
658694000658694               658694               170213GL     1400+00000+GL0000001753+0000001753+000000000+000000246+0000001990+0000000009+I20000000000+0000001990+Z
658694001658694007-000094     658694006003000659289ENVELOPES WHT 5PK C4   0000001000+00001753+00000+0001T   00001753+0000001735          1400 DK4130               2CZ
658695000658695               658695               170213GL     1400+00000+GL0000001314+0000001314+000000000+000000184+0000001490+0000000008+I20000000000+0000001490+Z
658695001658695566-000992     658695006001023600639STICKERS GLOW-IN-DARK  0000001000+00001314+00000+0001T   00001314+0000001735          1400 DK4130               2CZ
658696000658696               658696               170213GL     1400+00000+GL0000019360+0000019360+000000000+000002712+0000022070+0000000002+I20000000000+0000022070+Z
658696001658696018-050000     658696006003000412679MUG OCC LOVE TWIN BEAR 0000001000+00006139+00000+0001T   00006139+0000001748          1400 DK4515               2CZ
658696002658696006-000190     658696006003000685530BALLOONS LOVE 81x91cm  0000001000+00004385+00000+0001T   00004385+0000001748          1400 DK4131               2CZ
658696003658696018-000136     658696006001023659026MUG OCC LOVE W/PLUSH   0000001000+00003507+00000+0001T   00003507+0000001748          1400 DK4515               2CZ
658696004658696077-000289     658696006001023901996GIFT BOX 20x25x11cm    0000001000+00001753+00000+0001T   00001753+0000001748          1400 DK4112               2CZ
658696005658696031-005853     658696006003000442416P/FRAME WDN TWIN HEARTS0000001000+00003507+00000+0001T   00003507+0000001748          1400 DK4510               2CZ
658696006658696112-116053     658696006006438002399TCS CARRIER BAG 38L    0000001000+00000069+00000+0001T   00000069+0000001748          1400 DK4090               2CZ
658697000658697               658697               170213GL     1400+00000+GL0000006050+0000006050+000000000+000000848+0000006890+0000000008+I20000000000+0000006890+Z
658697001658697077-000010-C   658697006001023123879CREPE-PAPER RED        0000001000+00000788+00000+0001T   00000788+0000001749          1400 DK4112               2CZ
658697002658697366-002195     658697006001023990549DRESS UP WINGS FEATHER 0000001000+00005262+00000+0001T   00005262+0000001749          1400 DK4131               2CZ
658698000658698               658698               170213GL     1400+00000+GL0000008819+0000008819+000000000+000001235+0000010054+0000000000+I40000010054+0000000000+Z
658698001658698368-000012     658698006003000610464PLUSH BEAR 30cm SITTING0000001000+00008771+00000+0001T   00008771+0000001750          1400 DK4745               2CZ
658698002658698112-116069     658698006009681820277TCS CARRIER BAG JUMBO  0000001000+00000048+00000+0001T   00000048+0000001750          1400 DK4090               2CZ
658699000658699               658699               170213GL     1400+00000+GL0000003507+0000003507+000000000+000000491+0000003990+0000000008+I20000000000+0000003990+Z
658699001658699018-005009     658699006001023725608MUG W/PLUSH-BEAR LOVE  0000001000+00003507+00000+0001T   00003507+0000001751          1400 DK4515               2CZ
658700000658700               658700               170213GL     1400+00000+GL0000000613+0000000613+000000000+000000086+0000000690+0000000009+I20000000000+0000000690+Z
658700001658700304-001011     658700006001023806727FLWR ROSE RED W/BEAR   0000001000+00000613+00000+0001T   00000788+0006471752          1400 DK4510               2CZ
658701000658701               658701               170213GL     1400+00000+GL0000020637+0000020637+000000000+000002890+0000023527+0000000000+I40000023527+0000000000+Z
658701001658701077-000299     658701006003000395576G/BAG 32x25cm LRG LOVE 0000001000+00001490+00000+0001T   00001490+0000001757          1400 DK4112               2CZ
658701002658701018-005009     658701006001023725608MUG W/PLUSH-BEAR LOVE  0000003000+00003507+00000+0001T   00003507+0000001757          1400 DK4515               2CZ
658701003658701077-000310     658701006001023608635GIFT-BAG 18X23CM GLOSS 0000002000+00001314+00000+0001T   00001314+0000001757          1400 DK4112               2CZ
658701004658701080-000124     658701006003000297733CARD & ENV VALENTINES  0000001000+00001578+00000+0001T   00001578+0000001757          1400 DK4112               2CZ
658701005658701112-116038     658701006009681820246TCS CARRIER BAG MIDI   0000001000+00000035+00000+0001T   00000035+0000001757          1400 DK4090               2CZ
658701006658701368-000049     658701006003000536955PLUSH BEAR 15cm LOVE   0000001000+00004385+00000+0001T   00004385+0000001757          1400 DK4745               2CZ
658702000658702               658702               170213GL     1400+00000+GL0000000876+0000000876+000000000+000000123+0000000990+0000000009+I20000000000+0000000990+Z
658702001658702018-000137     658702006001023659057MUG DAILY STACK FLORAL 0000001000+00000876+00000+0001T   00000876+0000001758          1400 DK4515               2CZ
658703000658703               658703               170213GL     1400+00000+GL0000014162+0000014162+000000000+000001985+0000016147+0000000000+I40000016147+0000000000+Z
658703001658703466-000200     658703006001023621665HULA-HOOP     ASSTD    0000001000+00001753+00000+0001T   00001753+0000001800          1400 DK4785               2CZ
658703002658703034-001487     658703006003000622405COOEY BABY FOOD CONTAIN0000001000+00002192+00000+0001T   00002192+0000001800          1400 DK4215               2CZ
658703003658703046-000012     658703006904708013062BATTERIES AA  CARD-OF-40000001000+00001314+00000+0001T   00001314+0000001800          1400 DK4312               2CZ
658703004658703564-000012     658703006001023130075BUBBLE BOTTLE MAGIC    0000001000+00000700+00000+0001T   00000700+0000001800          1400 DK4131               2CZ
658703005658703036-000151     658703006001023810588COATHANGERS    PACK-10 0000001000+00002893+00000+0001T   00002893+0000001800          1400 DK4212               2CZ
658703006658703466-002096     658703006001023800398CATCHBALL VELCRO W/BALL0000001000+00005262+00000+0001T   00005262+0000001800          1400 DK4785               2CZ
658703007658703112-116069     658703006009681820277TCS CARRIER BAG JUMBO  0000001000+00000048+00000+0001T   00000048+0000001800          1400 DK4090               2CZ
658704000658704               658704               170213GL     1400+00000+GL0000000613+0000000613+000000000+000000086+0000000690+0000000009+I20000000000+0000000690+Z
658704001658704304-001011     658704006001023806727FLWR ROSE RED W/BEAR   0000001000+00000613+00000+0001T   00000788+0006471801          1400 DK4510               2CZ
658705000658705               658705               170213GL     1400+00000+GL0000001575+0000001575+000000000+000000222+0000001790+0000000007+I20000000000+0000001790+Z
658705001658705903-000155     658705006009803374435SWT LOLLY I LUV U HEART0000003000+00000525+00000+0001T   00000525+0000001804          1400 DK4150               2CZ
A17021300                                          09353526GLSLAVE 2                       DK42IC
A17021301                                          10245620GLSLAVE 2                       DK42IC
B65865400                                          170213GL903-000155     15144258SLAVE 2     DK41IC0000006000+0000001000+0000000000000+
M17021391                              CASH        GLSLAVE 2                       Z-REPORT No.   647TOTAL (Sales - Refunds)           5998.20       CASH TO BE BANKED                 3719.40       DEBIT CARDS                          0.00       CREDIT CARDS                      2278.80       Z-READING                         5998.20       AIRTIME DEBIT CARD SALES             0.00       AIRTIME CARD SALES                   0.00       OVERS/UNDERS                         0.00       AIRTIME CASH SALES                   0.00       GIFT CARDS                           0.00       GIFT CARD CASH SALES                 0.00       T O T A L  CASH PAYOUTS              0.00                                                                                                                                                                                                                                                                                                                                                      Z
M17021392                              CASH        GLABSENT                                                                                                                                                                                          ANNUAL LEAVE                                                                                                                                                                                    DAY OFF                                                                                                                                                                                         COMMENTS          Z READING R5998.20                                                                                                                                                                                                                                                                                                                                                           Z
Y17021300                                          GL00000000546261+000095
ZGL17021319423 SLAVE 2      SALES DATA                     NEXT INVOICE NO.  658706 0647
X GL Slave 2 First invoice 658610 170213 Last invoice 658705 170213 Next invoice 658706 Total number of records 000000344 clbackup completed 19:42:39
