669140000669140               669140               170213GL     1400+00000+GL0000002190+0000002190+000000000+000000307+0000002490+0000000007+I20000000000+0000002490+Z
669140001669140007-000045     669140006009608640438DISPLAY-POCKETS A4 10PC0000001000+00000876+00000+0001T   00000876+0000000938          1400 DJ9130               3AZ
669140002669140007-000209     669140006001023582102NOTE STICKY FILE MARKER0000001000+00001314+00000+0001T   00001314+0000000938          1400 DJ9130               3AZ
669141000669141               669141               170213GL     1400+00000+GL0000001753+0000001753+000000000+000000246+0000001990+0000000009+I20000000000+0000001990+Z
669141001669141079-006500     669141006001023557186GLUE GLITTER 6/10 PCE  0000001000+00001753+00000+0001T   00001753+0000000939          1400 DJ9130               3AZ
669142000669142               669142               170213GL     1400+00000+GL0000001753+0000001753+000000000+000000246+0000001990+0000000009+I20000000000+0000001990+Z
669142001669142174-000010     669142006001023462381W/MACHINE-BAG 25x40cm  0000001000+00001753+00000+0001T   00001753+0000001006          1400 DJ9205               3AZ
669143000669143               669143               170213GL     1400+00000+GL0000007309+0000007309+000000000+000001024+0000008330+0000000003+I20000000000+0000008330+Z
669143001669143071-004202     669143006001023417176SCISSORS-SCHOOL PL/MTL 0000001000+00001139+00000+0001T   00001139+0000001016          1400 DJ9130               3AZ
669143002669143071-003866     669143006003000590018PENCIL NOVELTY RULER   0000001000+00001314+00000+0001T   00001314+0000001016          1400 DJ9130               3AZ
669143003669143071-008236     669143006003000406753PENCIL-BAG 21x9x6.5cm  0000001000+00003507+00000+0001T   00003507+0000001016          1400 DJ9130               3AZ
669143004669143007-000044     669143006009635831489DISPLAY-BOOK A4 10-PAGE0000001000+00001314+00000+0001T   00001314+0000001016          1400 DJ9130               3AZ
669143005669143112-116038     669143006009681820246TCS CARRIER BAG MIDI   0000001000+00000035+00000+0001T   00000035+0000001016          1400 DJ9090               3AZ
669144000669144               669144               170213GL     1400+00000+GL0000003068+0000003068+000000000+000000430+0000003490+0000000008+I20000000000+0000003490+Z
669144001669144039-000319-4   669144006003000442744B/CANDLES LRG NUMBER-4 0000001000+00000876+00000+0001T   00000876+0000001026          1400 DJ9510               3AZ
669144002669144366-000303     669144006003000110476DRESS UP WAND 35cm     0000001000+00002192+00000+0001T   00002192+0000001026          1400 DJ9131               3AZ
669145000669145               669145               170213GL     1400+00000+GL0000008771+0000008771+000000000+000001228+0000009990+0000000009+I20000000000+0000009990+Z
669145001669145085-007008     669145006001023870988P/TOOL 23in1 HAMMER-BIT0000001000+00008771+00000+0001T   00008771+0000001029          1400 DJ9305               3AZ
669146000669146               669146               170213GL     1400+00000+GL0000003069+0000003069+000000000+000000430+0000003490+0000000009+I20000000000+0000003490+Z
669146001669146071-008222     669146006003000418459P/BAG CANVAS ASSTD COL 0000001000+00003069+00000+0001T   00003069+0000001032          1400 DJ9130               3AZ
669147000669147               669147               170213GL     1400+00000+GL0000000700+0000000700+000000000+000000098+0000000790+0000000008+I20000000000+0000000790+Z
669147001669147564-000012     669147006001023130075BUBBLE BOTTLE MAGIC    0000001000+00000700+00000+0001T   00000700+0000001035          1400 DJ9131               3AZ
669148000669148               669148               170213GL     1400+00000+GL0000000613+0000000613+000000000+000000086+0000000690+0000000009+I20000000000+0000000690+Z
669148001669148077-000311     669148006001023608666GIFT-BAG 11X14CM GLOSS 0000001000+00000613+00000+0001T   00000613+0000001040          1400 DJ9112               3AZ
669149000669149               669149               170213GL     1400+00000+GL0000003507+0000003507+000000000+000000491+0000003990+0000000008+I20000000000+0000003990+Z
669149001669149155-001304     669149006001023606488TAPE STEEL 5mx19mm     0000001000+00003507+00000+0001T   00003507+0000001133          1400 DJ9840               3AZ
669150000669150               669150               170213GL     1400+00000+GL0000001753+0000001753+000000000+000000246+0000001990+0000000009+I20000000000+0000001990+Z
669150001669150036-000063     669150006009654960436COATHANGERS VIRGIN 5PCE0000001000+00001753+00000+0001T   00001753+0000001134          1400 DJ9212               3AZ
669151000669151               669151               170213GL     1400+00000+GL0000017233+0000017233+000000000+000002415+0000019648+0000000000+I40000019648+0000000000+Z
669151001669151466-000583     669151006001023156617SKIPPING-ROPE 224cm    0000001000+00001753+00000+0001T   00001753+0000001159          1400 DJ9785               3AZ
669151002669151028-002101     669151006002580009507CHAIR JUNIOR    ASSTD  0000002000+00003507+00000+0001T   00003507+0000001159          1400 DJ9305               3AZ
669151003669151562-006275     669151006001023836182EDU BOARD W/MARKER ASST0000001000+00007016+00000+0001T   00007016+0000001159          1400 DJ9755               3AZ
669151004669151112-116069     669151006009681820277TCS CARRIER BAG JUMBO  0000001000+00000048+00000+0001T   00000048+0000001159          1400 DJ9090               3AZ
669151005669151903-000925     669151006009706300296SWT NOVELTY SURPRISE   0000001000+00001402+00000+0001T   00001402+0000001159          1400 DJ9150               3AZ
669152000669152               669152               170213GL     1400+00000+GL0000011082+0000011082+000000000+000001553+0000012630+0000000005+I20000000000+0000012630+Z
669152001669152174-008034     669152006009654960610TRAVEL BOTTLES 150ml   0000001000+00001928+00000+0001T   00001928+0000001201          1400 DJ9205               3AZ
669152002669152903-000510     669152006001704012621SWEET MS ZBDZ S/BERRY  0000001000+00001227+00000+0001T   00001227+0000001201          1400 DJ9150               3AZ
669152003669152306-001660     669152006003000620579NAIL DRYING MACHINE    0000001000+00007016+00000+0001T   00007016+0000001201          1400 DJ9200               3AZ
669152004669152112-116038     669152006009681820246TCS CARRIER BAG MIDI   0000001000+00000035+00000+0001T   00000035+0000001201          1400 DJ9090               3AZ
669152005669152903-000897     669152008692806325207SWT CHOC DBL MINI ROLL 0000001000+00000876+00000+0001T   00000876+0000001201          1400 DJ9150               3AZ
669153000669153               669153               170213GL     1400+00000+GL0000010024+0000010024+000000000+000001407+0000011431+0000000000+I40000011431+0000000000+Z
669153001669153563-000317-B   669153006001023776174SERVIETTES PLN WHT PK400000001000+00001314+00000+0001T   00001314+0000001218          1400 DJ9214               3AZ
669153002669153304-001141     669153006003000679133FLOWER MINI SUCCULENT  0000002000+00001139+00000+0001T   00001139+0000001218          1400 DJ9510               3AZ
669153003669153304-001142     669153006003000679256FLWR MINI SUCCULENT 7CM0000001000+00001490+00000+0001T   00001490+0000001218          1400 DJ9510               3AZ
669153004669153304-001141     669153006003000679133FLOWER MINI SUCCULENT  0000001000+00001139+00000+0001T   00001139+0000001218          1400 DJ9510               3AZ
669153005669153304-001142     669153006003000679256FLWR MINI SUCCULENT 7CM0000001000+00001490+00000+0001T   00001490+0000001218          1400 DJ9510               3AZ
669153006669153304-001141     669153006003000679133FLOWER MINI SUCCULENT  0000002000+00001139+00000+0001T   00001139+0000001218          1400 DJ9510               3AZ
669153007669153112-116038     669153006009681820246TCS CARRIER BAG MIDI   0000001000+00000035+00000+0001T   00000035+0000001218          1400 DJ9090               3AZ
669154000669154               669154               170213GL     1400+00000+GL0000005262+0000005262+000000000+000000737+0000005990+0000000009+I20000000000+0000005990+Z
669154001669154368-000053     669154006003000633449PLUSH BEAR 15.5cm MUM  0000001000+00005262+00000+0001T   00005262+0000001247          1400 DJ9745               3AZ
669155000669155               669155               170213GL     1400+00000+GL0000001314+0000001314+000000000+000000184+0000001490+0000000008+I20000000000+0000001490+Z
669155001669155006-000166-D   669155006003000516490BALLOONS LRG 6PC RED   0000001000+00001314+00000+0001T   00001314+0000001250          1400 DJ9131               3AZ
669156000669156               669156               170213GL     1400+00000+GL0000013589+0000013589+000000000+000001905+0000015490+0000000004+I20000000000+0000015490+Z
669156001669156018-000025     669156006003000095056MUG S/WARE V-SHAPE CER.0000001000+00002630+00000+0001T   00002630+0000001307          1400 DJ9515               3AZ
669156002669156200-000060     669156006001023625762STRAWS 18cm FLEX 200PCE0000001000+00002455+00000+0001T   00002455+0000001307          1400 DJ9214               3AZ
669156003669156024-000212     669156006001023858030COOKIE-CUTTERS PL SMALL0000001000+00003069+00000+0001T   00003069+0000001307          1400 DJ9300               3AZ
669156004669156079-013102     669156006003000019601ART+CRAFT DIY PIPE-CLNR0000001000+00002192+00000+0001T   00002192+0000001307          1400 DJ9130               3AZ
669156005669156079-013032-J   669156006003000542710A&C DIY COLOUR P/FLOWER0000001000+00001753+00000+0001T   00001753+0000001307          1400 DJ9130               3AZ
669156006669156567-014133     669156006003000560103BOOK COLOURING 48 PAGE 0000001000+00001490+00000+0001T   00001490+0000001307          1400 DJ9757               3AZ
669157000669157               669157               170213GL     1400+00000+GL0000000613+0000000613+000000000+000000086+0000000690+0000000009+I20000000000+0000000690+Z
669157001669157083-000055     669157006003000003853LIGHTER ELCTRNC REFILBL0000001000+00000613+00000+0001T   00000613+0000001321          1400 DJ9315               3AZ
669158000669158               669158               170213GL     1400+00000+GL0000003506+0000003506+000000000+000000492+0000003990+0000000008+I20000000000+0000003990+Z
669158001669158080-000111     669158006003000252695CARD&ENVELPE - MUSICAL 0000002000+00001753+00000+0001T   00001753+0000001321          1400 DJ9112               3AZ
669159000669159               669159               170213GL     1400+00000+GL0000002363+0000002363+000000000+000000332+0000002690+0000000005+I20000000000+0000002690+Z
669159001669159903-000155     669159006009803374435SWT LOLLY I LUV U HEART0000002000+00000525+00000+0001T   00000525+0000001339          1400 DJ9150               3AZ
669159002669159018-000177     669159006001023797513MUG MINI LOVE ASSTD    0000001000+00000700+00000+0001T   00000700+0000001339          1400 DJ9515               3AZ
669159003669159077-000311     669159006001023608666GIFT-BAG 11X14CM GLOSS 0000001000+00000613+00000+0001T   00000613+0000001339          1400 DJ9112               3AZ
669160000669160               669160               170213GL     1400+00000+GL0000001314+0000001314+000000000+000000184+0000001490+0000000008+I20000000000+0000001490+Z
669160001669160903-000194     669160006009826020616SWT CHOC RP LOLLY 25G  0000001000+00001314+00000+0001T   00001314+0000001340          1400 DJ9150               3AZ
669161000669161               669161               170213GL     1400+00000+GL0000000876+0000000876+000000000+000000123+0000000990+0000000009+I20000000000+0000000990+Z
669161001669161071-003000     669161006003000543229PEN BALL PEN 3PCE MULTI0000001000+00000876+00000+0001T   00000876+0000001340          1400 DJ9130               3AZ
669162000669162               669162               170213GL     1400+00000+GL0000001788+0000001788+000000000+000000251+0000002030+0000000009+I20000000000+0000002030+Z
669162001669162007-000192     669162006009635830062BOOK H/COVER A4 192PAGE0000001000+00001753+00000+0001T   00001753+0000001340          1400 DJ9130               3AZ
669162002669162112-116038     669162006009681820246TCS CARRIER BAG MIDI   0000001000+00000035+00000+0001T   00000035+0000001340          1400 DJ9090               3AZ
669163000669163               669163               170213GL     1400+00000+GL0000001753+0000001753+000000000+000000246+0000001990+0000000009+I20000000000+0000001990+Z
669163001669163369-001034     669163006003000105632BABY RATTLE SINGLE ASST0000001000+00001753+00000+0001T   00001753+0000001350          1400 DJ9745               3AZ
669164000669164               669164               170213GL     1400+00000+GL0000002678+0000002678+000000000+000000376+0000003050+0000000004+I20000000000+0000003050+Z
669164001669164077-000270     669164006003000395453GIFT-BAG PPR JMB 33X45 0000001000+00002630+00000+0001T   00002630+0000001613          1400 DJ9112               3AZ
669164002669164112-116069     669164006009681820277TCS CARRIER BAG JUMBO  0000001000+00000048+00000+0001T   00000048+0000001613          1400 DJ9090               3AZ
669165000669165               669165               170213GL     1400+00000+GL0000001753+0000001753+000000000+000000246+0000001990+0000000009+I20000000000+0000001990+Z
669165001669165080-000113     669165006003000237449CARD&ENVLPE - LOVE     0000001000+00001753+00000+0001T   00001753+0000001614          1400 DJ9112               3AZ
669166000669166               669166               170213GL     1400+00000+GL0000024151+0000024151+000000000+000003384+0000027535+0000000000+I40000027535+0000000000+Z
669166001669166565-000040     669166006008766115635NOVELTY ICON BEANIE    0000001000+00002630+00000+0001T   00002630+0000001618          1400 DJ9745               3AZ
669166002669166082-007587     669166006003000654338SUNGLASS DESIGNER ASST 0000001000+00004385+00000+0001T   00004385+0000001618          1400 DJ9160               3AZ
669166003669166366-000256     669166006001023918406DRESS UP TIARA&EARRINGS0000001000+00003069+00000+0001T   00003069+0000001618          1400 DJ9131               3AZ
669166004669166368-000040     669166006003000671786PLUSH ICONS 7.5cm      0000001000+00002630+00000+0001T   00002630+0000001618          1400 DJ9745               3AZ
669166005669166112-116038     669166006009681820246TCS CARRIER BAG MIDI   0000001000+00000035+00000+0001T   00000035+0000001618          1400 DJ9090               3AZ
669166006669166586-012460     669166006001492124605WATCH LDS QUILTED BEIGE0000001000+00011402+00000+0001T   00011402+0000001618          1400 DJ9160               3AZ
669167000669167               669167               170213GL     1400+00000+GL0000008067+0000008067+000000000+000001130+0000009197+0000000000+I40000009197+0000000000+Z
669167001669167031-000001     669167006003000201068P/FRAME GLS MOM  9X13CM0000001000+00004385+00000+0001T   00004385+0000001620          1400 DJ9510               3AZ
669167002669167080-000127     669167006003000424351VALENTINES DAY 36x24CM 0000001000+00002192+00000+0001T   00002192+0000001620          1400 DJ9112               3AZ
669167003669167077-000299     669167006003000395576G/BAG 32x25cm LRG LOVE 0000001000+00001490+00000+0001T   00001490+0000001620          1400 DJ9112               3AZ
669168000669168               669168               170213GL     1400+00000+GL0000003507+0000003507+000000000+000000491+0000003990+0000000008+I20000000000+0000003990+Z
669168001669168018-005009     669168006001023725608MUG W/PLUSH-BEAR LOVE  0000001000+00003507+00000+0001T   00003507+0000001621          1400 DJ9515               3AZ
669169000669169               669169               170213GL     1400+00000+GL0000023566+0000023566+000000000+000003304+0000026870+0000000000+I20000000000+0000026870+Z
669169001669169112-116053     669169006006438002399TCS CARRIER BAG 38L    0000001000+00000069+00000+0001T   00000069+0000001627          1400 DJ9090               3AZ
669169002669169036-000402     669169006003000572250CLOTHES DRYER WITH PEGS0000001000+00002630+00000+0001T   00002630+0000001627          1400 DJ9212               3AZ
669169003669169036-000405     669169006001023630247CLOTHES DRYER PL 18-PEG0000001000+00004385+00000+0001T   00004385+0000001627          1400 DJ9212               3AZ
669169004669169133-000103     669169006003000060900PEG BAG ASSTD 29x29cm  0000001000+00002630+00000+0001T   00002630+0000001627          1400 DJ9212               3AZ
669169005669169036-000610     669169006001023627230WASHING-PEGS PL PACK-240000002000+00001753+00000+0001T   00001753+0000001627          1400 DJ9212               3AZ
669169006669169027-078343     669169006008766078343SCRUB-BRUSH IRON-SHAPE 0000001000+00001139+00000+0001T   00001578+0008191627          1400 DJ9212               3AZ
669169007669169002-000711     669169006003000442775C/BOARD WDN 24x33.5x1.60000001000+00007455+00000+0001T   00007455+0000001627          1400 DJ9300               3AZ
669169008669169038-047246     669169006001023873750PLACEMAT 44x28cm KIDS  0000002000+00000876+00000+0001T   00000876+0000001627          1400 DJ9300               3AZ
669170000669170               669170               170213GL     1400+00000+GL0000007955+0000007955+000000000+000001116+0000009071+0000000000+I40000009071+0000000000+Z
669170001669170036-000151     669170006001023810588COATHANGERS    PACK-10 0000002000+00002893+00000+0001T   00002893+0000001630          1400 DJ9212               3AZ
669170002669170112-116053     669170006006438002399TCS CARRIER BAG 38L    0000001000+00000069+00000+0001T   00000069+0000001630          1400 DJ9090               3AZ
669170003669170564-000012     669170006001023130075BUBBLE BOTTLE MAGIC    0000003000+00000700+00000+0001T   00000700+0000001630          1400 DJ9131               3AZ
669171000669171               669171               170213GL     1400+00000+GL0000007014+0000007014+000000000+000000982+0000007996+0000000000+I40000007996+0000000000+Z
669171001669171004-071205     669171006003000073368USB 2.0 COMPUTER 4 HUB 0000001000+00003507+00000+0001T   00003507+0000001635          1400 DJ9310               3AZ
669171002669171004-071204     669171006003000624904USB IN-CAR CHARGER 2.1A0000001000+00003507+00000+0001T   00003507+0000001635          1400 DJ9310               3AZ
669172000669172               669172               170213GL     1400+00000+GL0000002628+0000002628+000000000+000000368+0000002990+0000000006+I20000000000+0000002990+Z
669172001669172006-000166-H   669172006003000608096BALLOONS HELIUM 6PC WHT0000001000+00001314+00000+0001T   00001314+0000001636          1400 DJ9131               3AZ
669172002669172006-000166-D   669172006003000516490BALLOONS LRG 6PC RED   0000001000+00001314+00000+0001T   00001314+0000001636          1400 DJ9131               3AZ
669173000669173               669173               170213GL     1400+00000+GL0000001578+0000001578+000000000+000000221+0000001790+0000000009+I20000000000+0000001790+Z
669173001669173018-000127     669173006001023380289MUG OCC STRAIGHT LOVE  0000001000+00001578+00000+0001T   00001753+0006471638          1400 DJ9515               3AZ
669174000669174               669174               170213GL     1400+00000+GL0000001839+0000001839+000000000+000000258+0000002090+0000000007+I20000000000+0000002090+Z
669174001669174304-001011     669174006001023806727FLWR ROSE RED W/BEAR   0000003000+00000613+00000+0001T   00000788+0006471641          1400 DJ9510               3AZ
669175000669175               669175               170213GL     1400+00000+GL0000001139+0000001139+000000000+000000160+0000001290+0000000009+I20000000000+0000001290+Z
669175001669175039-000322     669175006001023524157B/CANDLES W/HOLDERS 24 0000001000+00001139+00000+0001T   00001139+0000001644          1400 DJ9510               3AZ
669176000669176               669176               170213GL     1400+00000+GL0000014950+0000014950+000000000+000002096+0000017046+0000000000+I40000017046+0000000000+Z
669176001669176080-000133-A   669176006003000647019MINI VALENTINES CARD   0000002000+00000437+00000+0001T   00000437+0000001647          1400 DJ9112               3AZ
669176002669176266-000634     669176006003000119554GLIDER BALLOON HELICO  0000001000+00001753+00000+0001T   00001753+0000001647          1400 DJ9710               3AZ
669176003669176566-000031     669176006003000283910STICKER BK TEACHER STIC0000003000+00002192+00000+0001T   00002192+0000001647          1400 DJ9130               3AZ
669176004669176065-006080     669176006003000466740WOODEN 2PC MARACAS 11cm0000001000+00003507+00000+0001T   00003507+0000001647          1400 DJ9745               3AZ
669176005669176077-000926     669176006003000414178G/WRAP 700mmx2m LOVE   0000001000+00002192+00000+0001T   00002192+0000001647          1400 DJ9112               3AZ
669176006669176112-116069     669176006009681820277TCS CARRIER BAG JUMBO  0000001000+00000048+00000+0001T   00000048+0000001647          1400 DJ9090               3AZ
669177000669177               669177               170213GL     1400+00000+GL0000001490+0000001490+000000000+000000209+0000001690+0000000009+I20000000000+0000001690+Z
669177001669177366-004050     669177006003000308330DRESS UP TEEN BADGES   0000001000+00001490+00000+0001T   00001490+0000001648          1400 DJ9131               3AZ
669178000669178               669178               170213GL     1400+00000+GL0000004939+0000004939+000000000+000000693+0000005630+0000000002+I20000000000+0000005630+Z
669178001669178304-001011     669178006001023806727FLWR ROSE RED W/BEAR   0000008000+00000613+00000+0001T   00000788+0006471649          1400 DJ9510               3AZ
669178002669178112-116038     669178006009681820246TCS CARRIER BAG MIDI   0000001000+00000035+00000+0001T   00000035+0000001649          1400 DJ9090               3AZ
669179000669179               669179               170213GL     1400+00000+GL0000001753+0000001753+000000000+000000246+0000001990+0000000009+I20000000000+0000001990+Z
669179001669179077-000472     669179006003000330133G-BAG DESGNR LRG 25X32 0000001000+00001753+00000+0001T   00001753+0000001650          1400 DJ9112               3AZ
669180000669180               669180               170213GL     1400+00000+GL0000001314+0000001314+000000000+000000184+0000001490+0000000008+I20000000000+0000001490+Z
669180001669180077-000310     669180006001023608635GIFT-BAG 18X23CM GLOSS 0000001000+00001314+00000+0001T   00001314+0000001651          1400 DJ9112               3AZ
669181000669181               669181               170213GL     1400+00000+GL0000005259+0000005259+000000000+000000737+0000005990+0000000006+I20000000000+0000005990+Z
669181001669181089-000192-A   669181006001023901774KEY-CHAIN ACRYLIC      0000002000+00000876+00000+0001T   00000876+0000001653          1400 DJ9205               3AZ
669181002669181031-000002-A   669181006003000247103P/FRAME LOVE 7.5X7.5CM 0000001000+00003507+00000+0001T   00003507+0000001653          1400 DJ9510               3AZ
669182000669182               669182               170213GL     1400+00000+GL0000001663+0000001663+000000000+000000233+0000001890+0000000006+I20000000000+0000001890+Z
669182001669182018-000177     669182006001023797513MUG MINI LOVE ASSTD    0000001000+00000700+00000+0001T   00000700+0000001655          1400 DJ9515               3AZ
669182002669182007-000167     669182006009685857347SPIRAL NOTES A7 72PG   0000001000+00000350+00000+0001T   00000350+0000001655          1400 DJ9130               3AZ
669182003669182077-000311     669182006001023608666GIFT-BAG 11X14CM GLOSS 0000001000+00000613+00000+0001T   00000613+0000001655          1400 DJ9112               3AZ
669183000669183               669183               170213GL     1400+00000+GL0000001662+0000001662+000000000+000000234+0000001890+0000000006+I20000000000+0000001890+Z
669183001669183080-000133-A   669183006003000647019MINI VALENTINES CARD   0000001000+00000437+00000+0001T   00000437+0000001657          1400 DJ9112               3AZ
669183002669183018-000177     669183006001023797513MUG MINI LOVE ASSTD    0000001000+00000700+00000+0001T   00000700+0000001657          1400 DJ9515               3AZ
669183003669183903-000155     669183006009803374435SWT LOLLY I LUV U HEART0000001000+00000525+00000+0001T   00000525+0000001657          1400 DJ9150               3AZ
669184000669184               669184               170213GL     1400+00000+GL0000003506+0000003506+000000000+000000492+0000003990+0000000008+I20000000000+0000003990+Z
669184001669184106-001099     669184006003000653447WATER BOTTLE 650ml     0000001000+00002630+00000+0001T   00002630+0000001659          1400 DJ9210               3AZ
669184002669184089-000192-A   669184006001023901774KEY-CHAIN ACRYLIC      0000001000+00000876+00000+0001T   00000876+0000001659          1400 DJ9205               3AZ
669185000669185               669185               170213GL     1400+00000+GL0000007664+0000007664+000000000+000001074+0000008730+0000000008+I20000000000+0000008730+Z
669185001669185018-050000     669185006003000412679MUG OCC LOVE TWIN BEAR 0000001000+00006139+00000+0001T   00006139+0000001700          1400 DJ9515               3AZ
669185002669185077-000299     669185006003000395576G/BAG 32x25cm LRG LOVE 0000001000+00001490+00000+0001T   00001490+0000001700          1400 DJ9112               3AZ
669185003669185112-116038     669185006009681820246TCS CARRIER BAG MIDI   0000001000+00000035+00000+0001T   00000035+0000001700          1400 DJ9090               3AZ
669186000669186               669186               170213GL     1400+00000+GL0000020021+0000020021+000000000+000002807+0000022828+0000000000+I40000022828+0000000000+Z
669186001669186903-000519     669186006001704012805SWT MS LIQ-O-GHETTI    0000001000+00001227+00000+0001T   00001227+0000001703          1400 DJ9150               3AZ
669186002669186077-000310     669186006001023608635GIFT-BAG 18X23CM GLOSS 0000001000+00001314+00000+0001T   00001314+0000001703          1400 DJ9112               3AZ
669186003669186080-000113     669186006003000237449CARD&ENVLPE - LOVE     0000001000+00001753+00000+0001T   00001753+0000001703          1400 DJ9112               3AZ
669186004669186046-000014-A   669186004897006177708BATTERIES SIZE:AAA 8PCE0000001000+00001753+00000+0001T   00001753+0000001703          1400 DJ9312               3AZ
669186005669186046-000012-A   669186006003000208296BATTERIES H/POWER SZ:AA0000001000+00002192+00000+0001T   00002192+0000001703          1400 DJ9312               3AZ
669186006669186018-005009     669186006001023725608MUG W/PLUSH-BEAR LOVE  0000001000+00003507+00000+0001T   00003507+0000001703          1400 DJ9515               3AZ
669186007669186003-008000     669186006003000378517ORN ANIMAL B/O SOUND   0000001000+00005262+00000+0001T   00006139+0008121703          1400 DJ9505               3AZ
669186008669186112-116038     669186006009681820246TCS CARRIER BAG MIDI   0000001000+00000035+00000+0001T   00000035+0000001703          1400 DJ9090               3AZ
669186009669186903-000841     669186009243178623706SWT CANDY TIPSEE FRUIT 0000001000+00000876+00000+0001T   00000876+0000001703          1400 DJ9150               3AZ
669186010669186903-002850     669186000000087108262MENTOS ROLL FRUIT      0000001000+00001051+00000+0001T   00001051+0000001703          1400 DJ9150               3AZ
669186011669186903-002853     669186000000087108019MENTOS ROLL MINT       0000001000+00001051+00000+0001T   00001051+0000001703          1400 DJ9150               3AZ
A17021300                                          08531464GLSLAVE 3                       1IC1IC
A17021301                                          09350608GLSLAVE 3                       DJ92IC
A17021302                                          09393855GLSLAVE 3                       DJ92IC
A17021303                                          13094773GLSLAVE 3                       DJ92IC
M17021391                              CASH        GLSLAVE 3                       Z-REPORT No.   592TOTAL (Sales - Refunds)           2908.02       CASH TO BE BANKED                 1660.50       DEBIT CARDS                          0.00       CREDIT CARDS                      1247.52       Z-READING                         2908.02       AIRTIME DEBIT CARD SALES             0.00       AIRTIME CARD SALES                   0.00       OVERS/UNDERS                         0.00       AIRTIME CASH SALES                   0.00       GIFT CARDS                           0.00       GIFT CARD CASH SALES                 0.00       T O T A L  CASH PAYOUTS              0.00                                                                                                                                                                                                                                                                                                                                                      Z
M17021392                              CASH        GLABSENT                                                                                                                                                                                          ANNUAL LEAVE                                                                                                                                                                                    DAY OFF                                                                                                                                                                                         COMMENTS          Z READING R2908.02                                                                                                                                                                                                                                                                                                                                                           Z
Y17021300                                          GL00000000255299+000047
ZGL17021319423 SLAVE 3      SALES DATA                     NEXT INVOICE NO.  669187 0592
X GL Slave 3 First invoice 669140 170213 Last invoice 669186 170213 Next invoice 669187 Total number of records 000000173 clbackup completed 19:42:41
