153276000153276               153276               170213GM     1400+00000+GM0000010568+0000010568+000000000+000001483+0000012051+0000000000+I40000012051+0000000000+Z
153276001153276040-000171     153276006001023774644C/HOLDER GLASS CUP ASST0000002000+00002630+00000+0001T   00002630+0000000914          1400 JK4510               2BZ
153276002153276051-006100     153276006003000267170GARDEN KID TOOLSET 3PCE0000001000+00002630+00000+0001T   00002630+0000000914          1400 JK4820               2BZ
153276003153276112-116069     153276006009681820277TCS CARRIER BAG JUMBO  0000001000+00000048+00000+0001T   00000048+0000000914          1400 JK4090               2BZ
153276004153276088-000082     153276006001023798008P/POURRI SACHETS 5x10ml0000001000+00002630+00000+0001T   00002630+0000000914          1400 JK4212               2BZ
153277000153277               153277               170213GM     1400+00000+GM0000000035+0000000035+000000000+000000005+0000000040+0000000000+I20000000000+0000000040+Z
153277001153277112-116038     153277006009681820246TCS CARRIER BAG MIDI   0000001000+00000035+00000+0001T   00000035+0000000914          1400 JK4090               2BZ
153278000153278               153278               170213GM     1400+00000+GM0000003507+0000003507+000000000+000000491+0000003998+0000000000+I40000003998+0000000000+Z
153278001153278071-005667     153278006003000153060STAPLER SET MTL W/STPLS0000001000+00003507+00000+0001T   00003507+0000000917          1400 JK4130               2BZ
153279000153279               153279               170213GM     1400+00000+GM0000010521+0000010521+000000000+000001474+0000011995+0000000000+I40000011995+0000000000+Z
153279001153279361-009103     153279006001023706607DOLL BOTTLES 10cm 2PCE 0000002000+00002192+00000+0001T   00002192+0000001125          1400 MA6725               2AZ
153279002153279079-000195     153279006003000161485P/CRAYONS RETRCTBLEx10 0000001000+00003507+00000+0001T   00003507+0000001125          1400 MA6130               2AZ
153279003153279567-011496     153279006003000664177BK COLOURING BY NUMBERS0000001000+00002630+00000+0001T   00002630+0000001125          1400 MA6757               2AZ
153280000153280               153280               170213GM     1400+00000+GM0000005262+0000005262+000000000+000000737+0000005990+0000000009+I20000000000+0000005990+Z
153280001153280562-063360     153280006003000652167EDU LEARN LETTERS WDN  0000001000+00005262+00000+0001T   00005262+0000001126          1400 MA6755               2AZ
153281000153281               153281               170213GM     1400+00000+GM0000010525+0000010525+000000000+000001474+0000011999+0000000000+I40000011999+0000000000+Z
153281001153281079-012217     153281006003000289202ART+CRAFT PAINT YOUR   0000001000+00010525+00000+0001T   00012279+0008191129          1400 MA6130               2AZ
153282000153282               153282               170213GM     1400+00000+GM0000001227+0000001227+000000000+000000172+0000001390+0000000009+I20000000000+0000001390+Z
153282001153282002-000970     153282006001023770578FUNNELS 3PCE WHITE     0000001000+00001227+00000+0001T   00001227+0000001139          1400 MA6300               2AZ
153283000153283               153283               170213GM     1400+00000+GM0000005524+0000005524+000000000+000000774+0000006290+0000000008+I20000000000+0000006290+Z
153283001153283368-000152     153283006003000166886PLUSH BEAR 15cm        0000001000+00003946+00000+0001T   00005262+0008141214          1400 MA6745               2AZ
153283002153283077-000303     153283006001023593757GIFT-BAG PAPER MED     0000001000+00001578+00000+0001T   00001578+0000001214          1400 MA6112               2AZ
153284000153284               153284               170213GM     1400+00000+GM0000007060+0000007060+000000000+000000991+0000008050+0000000001+I20000000000+0000008050+Z
153284001153284038-000205     153284006001926001205PLACE-MATS PVC ASSTD-C 0000004000+00001753+00000+0001T   00001753+0000001216          1400 MA6300               2AZ
153284002153284112-116069     153284006009681820277TCS CARRIER BAG JUMBO  0000001000+00000048+00000+0001T   00000048+0000001216          1400 MA6090               2AZ
153285000153285               153285               170213GM     1400+00000+GM0000007937+0000007937+000000000+000001113+0000009050+0000000000+I40000009050+0000000000+Z
153285001153285103-000090     153285006001023795786WOVEN HEART SHAPED     0000001000+00003507+00000+0001T   00003507+0000001227          1400 MA6300               2AZ
153285002153285903-003051     153285008024431008703SWT CHOCO PARTY 25G    0000001000+00000876+00000+0001T   00000876+0000001227          1400 MA6150               2AZ
153285003153285903-000011     153285006002099007315SWT MALLOW CHOC 15G    0000001000+00000437+00000+0001T   00000437+0000001227          1400 MA6150               2AZ
153285004153285077-000009     153285006003000152377PAPER CREPE ALUM COL   0000001000+00003069+00000+0001T   00003069+0000001227          1400 MA6112               2AZ
153285005153285112-116069     153285006009681820277TCS CARRIER BAG JUMBO  0000001000+00000048+00000+0001T   00000048+0000001227          1400 MA6090               2AZ
153286000153286               153286               170213GM     1400+00000+GM0000002192+0000002192+000000000+000000307+0000002490+0000000009+I20000000000+0000002490+Z
153286001153286080-000127     153286006003000424351VALENTINES DAY 36x24CM 0000001000+00002192+00000+0001T   00002192+0000001228          1400 MA6112               2AZ
153287000153287               153287               170213GM     1400+00000+GM0000005262+0000005262+000000000+000000737+0000005990+0000000009+I20000000000+0000005990+Z
153287001153287018-019000     153287006003000557288MUG OCC. LOVE JUMBO    0000001000+00005262+00000+0001T   00005262+0000001229          1400 MA6515               2AZ
153288000153288               153288               170213GM     1400+00000+GM0000002630+0000002630+000000000+000000369+0000002990+0000000009+I20000000000+0000002990+Z
153288001153288082-026205     153288006001023816528R/GLASSES STRINGS 2PCE 0000001000+00002630+00000+0001T   00002630+0000001230          1400 MA6160               2AZ
153289000153289               153289               170213GM     1400+00000+GM0000012937+0000012937+000000000+000001813+0000014750+0000000000+I40000014750+0000000000+Z
153289001153289112-116069     153289006009681820277TCS CARRIER BAG JUMBO  0000001000+00000048+00000+0001T   00000048+0000001232          1400 MA6090               2AZ
153289002153289301-085006     153289006001023502940ORN LOVE MSG TUBE W/HRT0000001000+00001753+00000+0001T   00001753+0000001232          1400 MA6505               2AZ
153289003153289079-000336     153289006003000670758SUPER FINE MARKER PENS 0000001000+00005262+00000+0001T   00005262+0000001232          1400 MA6130               2AZ
153289004153289031-000878-B   153289006001023799012P/FRAME 13x18cm PL-SLID0000001000+00001490+00000+0001T   00001490+0000001232          1400 MA6510               2AZ
153289005153289301-085000     153289006003000674299 ORN OCC. LOVE HEARTS  0000002000+00002192+00000+0001T   00002192+0000001232          1400 MA6505               2AZ
153290000153290               153290               170213GM     1400+00000+GM0000014911+0000014911+000000000+000002088+0000016990+0000000009+I20000000000+0000016990+Z
153290001153290072-020245     153290006001023617996PET BED FLEECE W/SIDES 0000001000+00014911+00000+0001T   00014911+0000001233          1400 MA6870               2AZ
153291000153291               153291               170213GM     1400+00000+GM0000053253+0000053253+000000000+000007458+0000060711+0000000000+I40000060711+0000000000+Z
153291001153291301-001127     153291006946859290169ORN FOUNTAIN CAS/W.FALL0000002000+00006139+00000+0001T   00006139+0000001303          1400 MA6505               2AZ
153291002153291301-001125     153291000694202803950ORN FOUNTAIN TOWER     0000001000+00017542+00000+0001T   00017542+0000001303          1400 MA6505               2AZ
153291003153291133-000017     153291006003000525171CLEANING-CLOTHS 5PCE   0000001000+00003507+00000+0001T   00003507+0000001303          1400 MA6212               2AZ
153291004153291019-000080     153291006001023775740VASE GLS FLORIST BALL  0000002000+00008771+00000+0001T   00008771+0000001303          1400 MA6510               2AZ
153291005153291046-000012-A   153291006003000208296BATTERIES H/POWER SZ:AA0000001000+00002192+00000+0001T   00002192+0000001303          1400 MA6312               2AZ
153291006153291112-116069     153291006009681820277TCS CARRIER BAG JUMBO  0000004000+00000048+00000+0001T   00000048+0000001303          1400 MA6090               2AZ
153292000153292               153292               170213GM     1400+00000+GM0000014251+0000014251+000000000+000001997+0000016248+0000000000+I40000016248+0000000000+Z
153292001153292301-086005     153292006001023856289ORN OCC MOM WDN LETTERS0000001000+00004385+00000+0001T   00004385+0000001308          1400 MA6505               2DZ
153292002153292018-005009     153292006001023725608MUG W/PLUSH-BEAR LOVE  0000001000+00003507+00000+0001T   00003507+0000001308          1400 MA6515               2DZ
153292003153292306-000021-A   153292006001023891358EARBUDS COTTON 100PCE  0000001000+00000876+00000+0001T   00000876+0000001308          1400 MA6200               2DZ
153292004153292306-000985     153292006003000559831FIRSTAID PLASTER 10PC  0000001000+00001490+00000+0001T   00001490+0000001308          1400 MA6200               2DZ
153292005153292018-000170     153292006001023775528MUG OCC. LOVE 2PC MINI 0000001000+00002192+00000+0001T   00002192+0000001308          1400 MA6515               2DZ
153292006153292080-000113     153292006003000237449CARD&ENVLPE - LOVE     0000001000+00001753+00000+0001T   00001753+0000001308          1400 MA6112               2DZ
153292007153292112-116069     153292006009681820277TCS CARRIER BAG JUMBO  0000001000+00000048+00000+0001T   00000048+0000001308          1400 MA6090               2DZ
153293000153293               153293               170213GM     1400+00000+GM0000006400+0000006400+000000000+000000896+0000007296+0000000000+I40000007296+0000000000+Z
153293001153293075-000412     153293006001023855299SHOPPER-BASKET PL      0000001000+00005700+00000+0001T   00005700+0000001319          1400 MA6160               2AZ
153293002153293564-000012     153293006001023130075BUBBLE BOTTLE MAGIC    0000001000+00000700+00000+0001T   00000700+0000001319          1400 MA6131               2AZ
153294000153294               153294               170213GM     1400+00000+GM0000012277+0000012277+000000000+000001720+0000013990+0000000007+I20000000000+0000013990+Z
153294001153294032-000136     153294006001023328182M/STANDING STAND. ROUND0000001000+00006139+00000+0001T   00006139+0000001322          1400 MA6510               2AZ
153294002153294306-000021-A   153294006001023891358EARBUDS COTTON 100PCE  0000001000+00000876+00000+0001T   00000876+0000001322          1400 MA6200               2AZ
153294003153294082-007580     153294006003000698523SUNGLASS MENS DESIGNER 0000001000+00005262+00000+0001T   00005262+0000001322          1400 MA6160               2AZ
153295000153295               153295               170213GM     1400+00000+GM0000007064+0000007064+000000000+000000990+0000008054+0000000000+I40000008054+0000000000+Z
153295001153295567-011451     153295009780745962726BK RELIGIOUS LHA BIBLE 0000001000+00007016+00000+0001T   00007016+0000001324          1400 MA6757               2AZ
153295002153295112-116069     153295006009681820277TCS CARRIER BAG JUMBO  0000001000+00000048+00000+0001T   00000048+0000001324          1400 MA6090               2AZ
153296000153296               153296               170213GM     1400+00000+GM0000006186+0000006186+000000000+000000867+0000007050+0000000003+I20000000000+0000007050+Z
153296001153296903-000909     153296006009802868317SWT YOYO LOONEY TUNES  0000001000+00001753+00000+0001T   00001753+0000001326          1400 MA6150               2AZ
153296002153296362-000107     153296006003000608799MAKE-UP GIRL BEAUTY-SET0000001000+00004385+00000+0001T   00004385+0000001326          1400 MA6160               2AZ
153296003153296112-116069     153296006009681820277TCS CARRIER BAG JUMBO  0000001000+00000048+00000+0001T   00000048+0000001326          1400 MA6090               2AZ
153297000153297               153297               170213GM     1400+00000+GM0000006139+0000006139+000000000+000000860+0000006999+0000000000+I40000006999+0000000000+Z
153297001153297368-000104     153297006001023751348PLUSH BEAR RUFFLED-LOOK0000001000+00006139+00000+0001T   00006139+0000001332          1400 MA6745               2AZ
153298000153298               153298               170213GM     1400+00000+GM0000001753+0000001753+000000000+000000246+0000001990+0000000009+I20000000000+0000001990+Z
153298001153298077-000239     153298006003000160419GIFT-RIBBON ROLL PEARL 0000001000+00001753+00000+0001T   00001753+0000001336          1400 MA6112               2AZ
153299000153299               153299               170213GM     1400+00000+GM0000006400-0000006400-000000000+000000896-0000007296-0000000000+I40000007296-0000000000+Z
153299001153299564-000012     153299006001023130075BUBBLE BOTTLE MAGIC    0000001000-00000700+00000+0001T   00000700+0000001339          1400 MA61311IC            2 Z
153299002153299075-000412     153299006001023855299SHOPPER-BASKET PL      0000001000-00005700+00000+0001T   00005700+0000001339          1400 MA61601IC            2 Z
153300000153300               153300               170213GM     1400+00000+GM0000006750+0000006750+000000000+000000947+0000007690+0000000007+I20000000000+0000007690+Z
153300001153300039-081008     153300006008766081008CANDLES 9PCE SCENTED   0000001000+00002630+00000+0001T   00002630+0000001342          1400 2IC510               2AZ
153300002153300039-000108     153300006001023524034TEA-LITE CANDLES 8PCE  0000001000+00001490+00000+0001T   00001490+0000001342          1400 2IC510               2AZ
153300003153300077-000251     153300006003000639106GIFT-DECOR RIBBON      0000001000+00002630+00000+0001T   00002630+0000001342          1400 2IC112               2AZ
153301000153301               153301               170213GM     1400+00000+GM0000006573+0000006573+000000000+000000921+0000007490+0000000004+I20000000000+0000007490+Z
153301001153301077-000311     153301006001023608666GIFT-BAG 11X14CM GLOSS 0000001000+00000613+00000+0001T   00000613+0000001344          1400 2IC112               2AZ
153301002153301018-000130     153301006001023867537MUG OCC LOVE MINI+HEART0000001000+00003507+00000+0001T   00003507+0000001344          1400 2IC515               2AZ
153301003153301903-000194     153301006009826020616SWT CHOC RP LOLLY 25G  0000001000+00001314+00000+0001T   00001314+0000001344          1400 2IC150               2AZ
153301004153301903-000087     153301006001704000161SWT SPECKLED-EGGS 50G  0000001000+00001139+00000+0001T   00001139+0000001344          1400 2IC150               2AZ
153302000153302               153302               170213GM     1400+00000+GM0000002630+0000002630+000000000+000000369+0000002990+0000000009+I20000000000+0000002990+Z
153302001153302077-000456     153302006003000285549G/BAG METALLIC JMB EMB 0000001000+00002630+00000+0001T   00002630+0000001345          1400 2IC112               2AZ
153303000153303               153303               170213GM     1400+00000+GM0000001753+0000001753+000000000+000000246+0000001990+0000000009+I20000000000+0000001990+Z
153303001153303174-000010     153303006001023462381W/MACHINE-BAG 25x40cm  0000001000+00001753+00000+0001T   00001753+0000001417          1400 MA6205               2AZ
153304000153304               153304               170213GM     1400+00000+GM0000025828+0000025828+000000000+000003620+0000029448+0000000000+I40000029448+0000000000+Z
153304001153304072-020353     153304006001023598097DOG/CAT-BOWL 17cm      0000001000+00001753+00000+0001T   00001753+0000001420          1400 MA6870               2AZ
153304002153304133-000018     153304006003000583218SWAB MICROFIBRE 30x30cm0000001000+00001753+00000+0001T   00001753+0000001420          1400 MA6212               2AZ
153304003153304088-000055     153304006003000623068TOILET FRESHENER CISTER0000001000+00001753+00000+0001T   00001753+0000001420          1400 MA6212               2AZ
153304004153304105-001032     153304000700371696634CONTAINER FOODSAVER 1.20000001000+00001753+00000+0001T   00001753+0000001420          1400 MA6210               2AZ
153304005153304027-000235     153304006003000512287MOP CHENILLE DOUBL SIDE0000001000+00011402+00000+0001T   00011402+0000001420          1400 MA6212               2AZ
153304006153304903-000518     153304006001704012782SWT STRAWS S/BERRY 100g0000001000+00001227+00000+0001T   00001227+0000001420          1400 MA6150               2AZ
153304007153304106-000901     153304006003000538058WATER BOTTLE 600ml     0000001000+00006139+00000+0001T   00006139+0000001420          1400 MA6210               2AZ
153304008153304112-116069     153304006009681820277TCS CARRIER BAG JUMBO  0000001000+00000048+00000+0001T   00000048+0000001420          1400 MA6090               2AZ
153305000153305               153305               170213GM     1400+00000+GM0000001050+0000001050+000000000+000000148+0000001190+0000000008+I20000000000+0000001190+Z
153305001153305903-000155     153305006009803374435SWT LOLLY I LUV U HEART0000002000+00000525+00000+0001T   00000525+0000001421          1400 MA6150               2AZ
153306000153306               153306               170213GM     1400+00000+GM0000001753+0000001753+000000000+000000246+0000001990+0000000009+I20000000000+0000001990+Z
153306001153306200-003024     153306006001023657299REFUSE BAGS 20PCE BLACK0000001000+00001753+00000+0001T   00001753+0000001421          1400 MA6214               2AZ
153307000153307               153307               170213GM     1400+00000+GM0000009908+0000009908+000000000+000001388+0000011290+0000000006+I20000000000+0000011290+Z
153307001153307007-010192     153307006009635830536BOOK H/COVER A5 192PAGE0000001000+00001139+00000+0001T   00001139+0000001425          1400 MA6130               2AZ
153307002153307071-009832     153307006003000152674STATIONERY SET 4PCE    0000001000+00005262+00000+0001T   00005262+0000001425          1400 MA6130               2AZ
153307003153307113-000001     153307006003000088690TRAVEL MUG 400ml S/S   0000001000+00003507+00000+0001T   00003507+0000001425          1400 MA6305               2AZ
153308000153308               153308               170213GM     1400+00000+GM0000001578+0000001578+000000000+000000221+0000001790+0000000009+I20000000000+0000001790+Z
153308001153308077-000303     153308006001023593757GIFT-BAG PAPER MED     0000001000+00001578+00000+0001T   00001578+0000001426          1400 MA6112               2AZ
153309000153309               153309               170213GM     1400+00000+GM0000006400+0000006400+000000000+000000896+0000007296+0000000000+I40000007296+0000000000+Z
153309001153309564-000012     153309006001023130075BUBBLE BOTTLE MAGIC    0000001000+00000700+00000+0001T   00000700+0000001428          1400 MA6131               2AZ
153309002153309075-000412     153309006001023855299SHOPPER-BASKET PL      0000001000+00005700+00000+0001T   00005700+0000001428          1400 MA6160               2AZ
153310000153310               153310               170213GM     1400+00000+GM0000004553+0000004553+000000000+000000638+0000005190+0000000001+I20000000000+0000005190+Z
153310001153310039-001023     153310006003000466337CANDLE TEA-LITE METALIC0000001000+00001753+00000+0001T   00001753+0000001429          1400 MA6510               2AZ
153310002153310018-000177     153310006001023797513MUG MINI LOVE ASSTD    0000004000+00000700+00000+0001T   00000700+0000001429          1400 MA6515               2AZ
153311000153311               153311               170213GM     1400+00000+GM0000004997+0000004997+000000000+000000700+0000005690+0000000007+I20000000000+0000005690+Z
153311001153311006-000102     153311006001023806819BALLOONS W/BOMBS 50PCE 0000001000+00001490+00000+0001T   00001490+0000001629          1400 MA6131               2AZ
153311002153311028-000918     153311006001023777232BBQ BSTN-BRUSHS 2PC H&L0000001000+00003507+00000+0001T   00003507+0000001629          1400 MA6305               2AZ
153312000153312               153312               170213GM     1400+00000+GM0000004431+0000004431+000000000+000000622+0000005050+0000000003+I20000000000+0000005050+Z
153312001153312466-000584     153312006001023628787SKIPPING-ROPE          0000001000+00002630+00000+0001T   00002630+0000001630          1400 MA6785               2AZ
153312002153312466-000103     153312000681070950312BALL 20cm ASSTD        0000001000+00001753+00000+0001T   00001753+0000001630          1400 MA6785               2AZ
153312003153312112-116069     153312006009681820277TCS CARRIER BAG JUMBO  0000001000+00000048+00000+0001T   00000048+0000001630          1400 MA6090               2AZ
153313000153313               153313               170213GM     1400+00000+GM0000003554+0000003554+000000000+000000499+0000004050+0000000003+I20000000000+0000004050+Z
153313001153313077-000150-D   153313006003000054343GIFT-WRAP CELLPHANE CLR0000001000+00000876+00000+0001T   00000876+0000001632          1400 MA6112               2AZ
153313002153313018-000129     153313006001023403353MUG OCC. LOVE V-SHAPE  0000001000+00002630+00000+0001T   00002630+0000001632          1400 MA6515               2AZ
153313003153313112-116069     153313006009681820277TCS CARRIER BAG JUMBO  0000001000+00000048+00000+0001T   00000048+0000001632          1400 MA6090               2AZ
153314000153314               153314               170213GM     1400+00000+GM0000003552+0000003552+000000000+000000499+0000004051+0000000000+I40000004051+0000000000+Z
153314001153314077-000302     153314008010410010195GIFT-BAG 18X23CM E/D   0000004000+00000876+00000+0001T   00000876+0000001658          1400 MA6112               2AZ
153314002153314112-116069     153314006009681820277TCS CARRIER BAG JUMBO  0000001000+00000048+00000+0001T   00000048+0000001658          1400 MA6090               2AZ
153315000153315               153315               170213GM     1400+00000+GM0000009206+0000009206+000000000+000001290+0000010490+0000000006+I20000000000+0000010490+Z
153315001153315077-000310     153315006001023608635GIFT-BAG 18X23CM GLOSS 0000001000+00001314+00000+0001T   00001314+0000001714          1400 MA6112               2AZ
153315002153315368-000265     153315006001023750914PLUSH BEAR 23CM ASSTD C0000001000+00006139+00000+0001T   00006139+0000001714          1400 MA6745               2AZ
153315003153315006-000120     153315006001023346889BALLOONS 10PC MIX COL  0000001000+00001753+00000+0001T   00001753+0000001714          1400 MA6131               2AZ
153316000153316               153316               170213GM     1400+00000+GM0000001753+0000001753+000000000+000000246+0000001990+0000000009+I20000000000+0000001990+Z
153316001153316077-000316     153316006001023609731GIFT-BAG 25X32CM MATT  0000001000+00001753+00000+0001T   00001753+0000001715          1400 MA6112               2AZ
153317000153317               153317               170213GM     1400+00000+GM0000000918+0000000918+000000000+000000129+0000001040+0000000007+I20000000000+0000001040+Z
153317001153317079-009700-H   153317006003000546039PAPER SIRIO A4 EARTH   0000003000+00000306+00000+0001T   00000306+0000001716          1400 MA6130               2AZ
153318000153318               153318               170213GM     1400+00000+GM0000011003+0000011003+000000000+000001542+0000012545+0000000000+I40000012545+0000000000+Z
153318001153318006-000180     153318006003000610402BALLOONS BIRTHDAY ASSTD0000001000+00000876+00000+0001T   00000876+0000001720          1400 MA6131               2AZ
153318002153318065-000053     153318006001023756879MUSICAL HAMMER         0000001000+00003507+00000+0001T   00003507+0000001720          1400 MA6745               2AZ
153318003153318563-000318-G   153318006003000404360SERVIETTES 33cm PINK   0000001000+00002192+00000+0001T   00002192+0000001720          1400 MA6214               2AZ
153318004153318039-000319-1   153318006003000442386B/CANDLES LRG NUMBER-1 0000002000+00000876+00000+0001T   00000876+0000001720          1400 MA6510               2AZ
153318005153318006-000166-C   153318006003000516377BALLOONS LRG 6PC PINK  0000002000+00001314+00000+0001T   00001314+0000001720          1400 MA6131               2AZ
153318006153318112-116069     153318006009681820277TCS CARRIER BAG JUMBO  0000001000+00000048+00000+0001T   00000048+0000001720          1400 MA6090               2AZ
153319000153319               153319               170213GM     1400+00000+GM0000010569+0000010569+000000000+000001481+0000012050+0000000000+I40000012050+0000000000+Z
153319001153319566-000036     153319006003000384051STICKERS MOTIVATION    0000001000+00001753+00000+0001T   00001753+0000001722          1400 MA6130               2AZ
153319002153319566-000031     153319006003000283910STICKER BK TEACHER STIC0000004000+00002192+00000+0001T   00002192+0000001722          1400 MA6130               2AZ
153319003153319112-116069     153319006009681820277TCS CARRIER BAG JUMBO  0000001000+00000048+00000+0001T   00000048+0000001722          1400 MA6090               2AZ
153320000153320               153320               170213GM     1400+00000+GM0000002500+0000002500+000000000+000000351+0000002850+0000000001+I20000000000+0000002850+Z
153320001153320304-001011     153320006001023806727FLWR ROSE RED W/BEAR   0000004000+00000613+00000+0001T   00000788+0006471723          1400 MA6510               2AZ
153320002153320112-116069     153320006009681820277TCS CARRIER BAG JUMBO  0000001000+00000048+00000+0001T   00000048+0000001723          1400 MA6090               2AZ
153321000153321               153321               170213GM     1400+00000+GM0000012327+0000012327+000000000+000001727+0000014050+0000000004+I20000000000+0000014050+Z
153321001153321368-000111     153321006001023780812PLUSH BEAR/DOG 29CM    0000001000+00012279+00000+0001T   00012279+0000001729          1400 MA6745               2AZ
153321002153321112-116069     153321006009681820277TCS CARRIER BAG JUMBO  0000001000+00000048+00000+0001T   00000048+0000001729          1400 MA6090               2AZ
153322000153322               153322               170213GM     1400+00000+GM0000002103+0000002103+000000000+000000295+0000002398+0000000000+I40000002398+0000000000+Z
153322001153322077-000011-C   153322006001023808523TISSUE 10xSHTS RED     0000001000+00000876+00000+0001T   00000876+0000001745          1400 MA6112               2AZ
153322002153322077-000318     153322006001023609755GIFT-BAG 18X23CM E/D AN0000001000+00001227+00000+0001T   00001227+0000001745          1400 MA6112               2AZ
M17021391                              CASH        GMSLAVE 2                       Z-REPORT No.   605TOTAL (Sales - Refunds)           3837.13       CASH TO BE BANKED                 1601.00       DEBIT CARDS                          0.00       CREDIT CARDS                      2236.43       Z-READING                         3837.13       AIRTIME DEBIT CARD SALES             0.00       AIRTIME CARD SALES                   0.00       OVERS/UNDERS                         0.30       AIRTIME CASH SALES                   0.00       GIFT CARDS                           0.00       GIFT CARD CASH SALES                 0.00       T O T A L  CASH PAYOUTS              0.00                                                                                                                                                                                                                                                                                                                                                      Z
M17021392                              CASH        GMABSENT                                                                                                                                                                                          ANNUAL LEAVE                                                                                                                                                                                    DAY OFF                                                                                                                                                                                         COMMENTS                                                                                                                                                                                                                                                                                                                                                                                       Z
Y17021300                                          GM00000000343110+000046
ZGM17021319423 SLAVE 2      SALES DATA                     NEXT INVOICE NO.  153323 0605
X GM Slave 2 First invoice 153276 170213 Last invoice 153322 170213 Next invoice 153323 Total number of records 000000165 clbackup completed 19:42:27
