160448000160448               160448               170213GM     1400+00000+GM0000004431+0000004431+000000000+000000622+0000005050+0000000003+I20000000000+0000005050+Z
160448001160448112-116069     160448006003000535064TCS CARRIER BAG JUMBO  0000001000+00000048+00000+0001T   00000048+0000000935          1400 G49090               3AZ
160448002160448006-000220-A   160448006001023890849PARTY TABLE-CLOTH GIRL 0000001000+00002630+00000+0001T   00002630+0000000935          1400 G49131               3AZ
160448003160448034-078800     160448006001023856555COOEY WET-WIPES 60PCE  0000001000+00001753+00000+0001T   00001753+0000000935          1400 G49215               3AZ
160449000160449               160449               170213GM     1400+00000+GM0000003554+0000003554+000000000+000000499+0000004050+0000000003+I20000000000+0000004050+Z
160449001160449562-000010     160449006001023762528KID'S PLAY DOUGH       0000001000+00002630+00000+0001T   00002630+0000000938          1400 G49755               3AZ
160449002160449105-001010     160449006002580007329LUNCH-BOX 1L  ASSTD    0000001000+00000876+00000+0001T   00000876+0000000938          1400 G49210               3AZ
160449003160449112-116069     160449006003000535064TCS CARRIER BAG JUMBO  0000001000+00000048+00000+0001T   00000048+0000000938          1400 G49090               3AZ
160450000160450               160450               170213GM     1400+00000+GM0000001753+0000001753+000000000+000000246+0000001990+0000000009+I20000000000+0000001990+Z
160450001160450464-000122     160450006003000638987PLAYING CARDS POKER 2PK0000001000+00001753+00000+0001T   00001753+0000000939          1400 G49785               3AZ
160451000160451               160451               170213GM     1400+00000+GM0000000911+0000000911+000000000+000000128+0000001030+0000000009+I20000000000+0000001030+Z
160451001160451112-116038     160451006003000534906TCS CARRIER BAG MIDI   0000001000+00000035+00000+0001T   00000035+0000000940          1400 G49090               3AZ
160451002160451903-000861     160451005010478430822SWT LOVE HEARTS SML    0000001000+00000876+00000+0001T   00000876+0000000940          1400 G49150               3AZ
160452000160452               160452               170213GM     1400+00000+GM0000003069+0000003069+000000000+000000430+0000003490+0000000009+I20000000000+0000003490+Z
160452001160452089-060027     160452006003000245871KEY-CHAIN HEART 6X6cm  0000001000+00003069+00000+0001T   00003069+0000000940          1400 G49205               3AZ
160453000160453               160453               170213GM     1400+00000+GM0000004385+0000004385+000000000+000000614+0000004990+0000000009+I20000000000+0000004990+Z
160453001160453159-003600     160453006001023606174TOILET-BRUSH W/STAND PL0000001000+00004385+00000+0001T   00004385+0000000941          1400 G49200               3AZ
160454000160454               160454               170213GM     1400+00000+GM0000004433+0000004433+000000000+000000621+0000005050+0000000004+I20000000000+0000005050+Z
160454001160454112-116069     160454006003000535064TCS CARRIER BAG JUMBO  0000001000+00000048+00000+0001T   00000048+0000000943          1400 G49090               3AZ
160454002160454104-000135     160454006001023846419WASTEBIN SWING-LID 28cm0000001000+00004385+00000+0001T   00004385+0000000943          1400 G49210               3AZ
160455000160455               160455               170213GM     1400+00000+GM0000003505+0000003505+000000000+000000492+0000003990+0000000007+I20000000000+0000003990+Z
160455001160455077-000150-D   160455006003000054343GIFT-WRAP CELLPHANE CLR0000002000+00000876+00000+0001T   00000876+0000000944          1400 G49112               3AZ
160455002160455077-000457     160455006003000285662G/BAG METALLIC JMB SOL 0000001000+00001753+00000+0001T   00001753+0000000944          1400 G49112               3AZ
160456000160456               160456               170213GM     1400+00000+GM0000001753+0000001753+000000000+000000246+0000001990+0000000009+I20000000000+0000001990+Z
160456001160456077-000457     160456006003000285662G/BAG METALLIC JMB SOL 0000001000+00001753+00000+0001T   00001753+0000000944          1400 G49112               3AZ
160457000160457               160457               170213GM     1400+00000+GM0000001578+0000001578+000000000+000000221+0000001790+0000000009+I20000000000+0000001790+Z
160457001160457080-000124     160457006003000297733CARD & ENV VALENTINES  0000001000+00001578+00000+0001T   00001578+0000000948          1400 G49112               3AZ
160458000160458               160458               170213GM     1400+00000+GM0000000788+0000000788+000000000+000000111+0000000890+0000000009+I20000000000+0000000890+Z
160458001160458077-000383     160458006003000247943GIFT-BAG 11X14CM S/COL 0000001000+00000788+00000+0001T   00000788+0000000949          1400 G49112               3AZ
160459000160459               160459               170213GM     1400+00000+GM0000008805+0000008805+000000000+000001233+0000010038+0000000000+I40000010038+0000000000+Z
160459001160459206-000410     160459006003000619382SOUP LADLE SEAMONSTER  0000001000+00004385+00000+0001T   00004385+0000001000          1400 G49321               3AZ
160459002160459206-000180     160459006003000631223TEA INFUSER TEAMAN     0000001000+00004385+00000+0001T   00004385+0000001000          1400 G49321               3AZ
160459003160459112-116038     160459006003000534906TCS CARRIER BAG MIDI   0000001000+00000035+00000+0001T   00000035+0000001000          1400 G49090               3AZ
160460000160460               160460               170213GM     1400+00000+GM0000005260+0000005260+000000000+000000738+0000005990+0000000008+I20000000000+0000005990+Z
160460001160460567-075466     160460006001023644572BK NOVEL ROMANCE       0000002000+00002630+00000+0001T   00002630+0000001005          1400 G49757               3AZ
160461000160461               160461               170213GM     1400+00000+GM0000006488+0000006488+000000000+000000910+0000007390+0000000008+I20000000000+0000007390+Z
160461001160461046-000400     160461006001023804983BATT ALKALINE 1.5Vx30PC0000002000+00003244+00000+0001T   00003244+0000001006          1400 G49312               3AZ
160462000160462               160462               170213GM     1400+00000+GM0000007409+0000007409+000000000+000001040+0000008449+0000000000+I40000008449+0000000000+Z
160462001160462077-000310     160462006001023608635GIFT-BAG 18X23CM GLOSS 0000001000+00001314+00000+0001T   00001314+0000001013          1400 G49112               3AZ
160462002160462083-000049     160462004891035200024CIG-LIGHTER DISPOSABLE 0000001000+00000437+00000+0001T   00000437+0000001013          1400 G49315               3AZ
160462003160462039-000635     160462006001023774521CANDLE VTV 4PC WHITE   0000001000+00002192+00000+0001T   00002192+0000001013          1400 G49510               3AZ
160462004160462077-000010-C   160462006001023123879CREPE-PAPER RED        0000001000+00000788+00000+0001T   00000788+0000001013          1400 G49112               3AZ
160462005160462006-000323-A   160462006001023739452CONFETTI SLVR/GLD 3PACK0000001000+00002630+00000+0001T   00002630+0000001013          1400 G49131               3AZ
160462006160462112-116069     160462006003000535064TCS CARRIER BAG JUMBO  0000001000+00000048+00000+0001T   00000048+0000001013          1400 G49090               3AZ
160463000160463               160463               170213GM     1400+00000+GM0000006798+0000006798+000000000+000000953+0000007751+0000000000+I40000007751+0000000000+Z
160463001160463112-116069     160463006003000535064TCS CARRIER BAG JUMBO  0000001000+00000048+00000+0001T   00000048+0000001015          1400 G49090               3AZ
160463002160463251-000031     160463006001023515827MASKING-TAPE 24mmx40m  0000001000+00001578+00000+0001T   00001578+0000001015          1400 G49810               3AZ
160463003160463033-001401     160463006009654960481HAIR-CURLERS 8PCE MED  0000001000+00001227+00000+0001T   00001227+0000001015          1400 G49200               3AZ
160463004160463204-083002     160463006008766083002M/HOLD BUTTERFLIES 4PCE0000001000+00001753+00000+0001T   00001753+0000001015          1400 G49300               3AZ
160463005160463158-008936     160463006001023653758PAPER-TOWEL-HOLDER FLWR0000001000+00002192+00000+0001T   00002192+0000001015          1400 G49300               3AZ
160464000160464               160464               170213GM     1400+00000+GM0000001840+0000001840+000000000+000000258+0000002090+0000000008+I20000000000+0000002090+Z
160464001160464077-000311     160464006001023608666GIFT-BAG 11X14CM GLOSS 0000001000+00000613+00000+0001T   00000613+0000001015          1400 G49112               3AZ
160464002160464077-000322     160464006001023677532GIFT-BAG 18X23CM E/D FL0000001000+00001227+00000+0001T   00001227+0000001015          1400 G49112               3AZ
160465000160465               160465               170213GM     1400+00000+GM0000010568+0000010568+000000000+000001483+0000012051+0000000000+I40000012051+0000000000+Z
160465001160465112-116069     160465006003000535064TCS CARRIER BAG JUMBO  0000001000+00000048+00000+0001T   00000048+0000001024          1400 G49090               3AZ
160465002160465031-005821     160465006001023667786P/FRAME-GLS CLIP 21X30 0000004000+00002630+00000+0001T   00002630+0000001024          1400 G49510               3AZ
160466000160466               160466               170213GM     1400+00000+GM0000001490+0000001490+000000000+000000209+0000001690+0000000009+I20000000000+0000001690+Z
160466001160466046-000010     160466004897006172987BATTERIES AAA ALKLN 2PC0000001000+00001490+00000+0001T   00001490+0000001025          1400 G49312               3AZ
160467000160467               160467               170213GM     1400+00000+GM0000002240+0000002240+000000000+000000314+0000002550+0000000004+I20000000000+0000002550+Z
160467001160467080-000127     160467006003000424351VALENTINES DAY 36x24CM 0000001000+00002192+00000+0001T   00002192+0000001028          1400 G49112               3AZ
160467002160467112-116069     160467006003000535064TCS CARRIER BAG JUMBO  0000001000+00000048+00000+0001T   00000048+0000001028          1400 G49090               3AZ
160468000160468               160468               170213GM     1400+00000+GM0000005259+0000005259+000000000+000000738+0000005990+0000000007+I20000000000+0000005990+Z
160468001160468264-000921     160468000090159150442MAISTO CAR 3" FRESH    0000003000+00001753+00000+0001T   00001753+0000001034          1400 G49710               3AZ
160469000160469               160469               170213GM     1400+00000+GM0000005817+0000005817+000000000+000000817+0000006630+0000000004+I20000000000+0000006630+Z
160469001160469112-116038     160469006003000534906TCS CARRIER BAG MIDI   0000001000+00000035+00000+0001T   00000035+0000001035          1400 G49090               3AZ
160469002160469105-000750     160469006003000190270CONTAINERS 4xMINI 150ml0000001000+00001402+00000+0001T   00001402+0000001035          1400 G49210               3AZ
160469003160469903-000861     160469005010478430822SWT LOVE HEARTS SML    0000005000+00000876+00000+0001T   00000876+0000001035          1400 G49150               3AZ
160470000160470               160470               170213GM     1400+00000+GM0000001753+0000001753+000000000+000000246+0000001990+0000000009+I20000000000+0000001990+Z
160470001160470464-000122     160470006003000638987PLAYING CARDS POKER 2PK0000001000+00001753+00000+0001T   00001753+0000001039          1400 G49785               3AZ
160471000160471               160471               170213GM     1400+00000+GM0000045794+0000045794+000000000+000006431+0000052225+0000000000+I40000052225+0000000000+Z
160471001160471112-116069     160471006003000535064TCS CARRIER BAG JUMBO  0000001000+00000048+00000+0001T   00000048+0000001049          1400 G49090               3AZ
160471002160471077-000299     160471006003000395576G/BAG 32x25cm LRG LOVE 0000001000+00001490+00000+0001T   00001490+0000001049          1400 G49112               3AZ
160471003160471077-000316     160471006001023609731GIFT-BAG 25X32CM MATT  0000001000+00001753+00000+0001T   00001753+0000001049          1400 G49112               3AZ
160471004160471566-000299     160471006003000682386STICKER LABEL C/BOARD  0000001000+00001753+00000+0001T   00001753+0000001049          1400 G49130               3AZ
160471005160471566-000951     160471006003000217670STICKERS 3 STYLES ASSTD0000001000+00002192+00000+0001T   00002192+0000001049          1400 G49130               3AZ
160471006160471565-000876     160471006003000305759NOVELTY FUNKY SUNGLASS 0000002000+00003507+00000+0001T   00003507+0000001049          1400 G49745               3AZ
160471007160471903-000594     160471006003000564057SWT SWORD 18cm J/BEAN  0000010000+00002630+00000+0001T   00002630+0000001049          1400 G49150               3AZ
160471008160471903-000011     160471006002099007315SWT MALLOW CHOC 15G    0000007000+00000437+00000+0001T   00000437+0000001049          1400 G49150               3AZ
160471009160471903-000012     160471006002099007308SWT MALLOW S/BERRY     0000005000+00000437+00000+0001T   00000437+0000001049          1400 G49150               3AZ
160472000160472               160472               170213GM     1400+00000+GM0000002665+0000002665+000000000+000000374+0000003030+0000000009+I20000000000+0000003030+Z
160472001160472018-000129     160472006001023403353MUG OCC. LOVE V-SHAPE  0000001000+00002630+00000+0001T   00002630+0000001051          1400 G49515               3AZ
160472002160472112-116038     160472006003000534906TCS CARRIER BAG MIDI   0000001000+00000035+00000+0001T   00000035+0000001051          1400 G49090               3AZ
160473000160473               160473               170213GM     1400+00000+GM0000006574+0000006574+000000000+000000921+0000007490+0000000005+I20000000000+0000007490+Z
160473001160473366-000400     160473006001023918468DRESS UP SHOES IN BOX  0000001000+00003507+00000+0001T   00003507+0000001104          1400 G49131               3AZ
160473002160473046-000012     160473006904708013062BATTERIES AA  CARD-OF-40000001000+00001314+00000+0001T   00001314+0000001104          1400 G49312               3AZ
160473003160473567-010685     160473000805219301708BK COLOURING ASSTD     0000001000+00001753+00000+0001T   00002630+0008131104          1400 G49757               3AZ
160474000160474               160474               170213GM     1400+00000+GM0000002980+0000002980+000000000+000000418+0000003390+0000000008+I20000000000+0000003390+Z
160474001160474077-000245     160474006001023759214GIFT-RIBBON METALLICx2 0000001000+00001227+00000+0001T   00001227+0000001105          1400 G49112               3AZ
160474002160474077-000240     160474006003000326259G/RIBBON 4PC PEARLIZED 0000001000+00001753+00000+0001T   00001753+0000001105          1400 G49112               3AZ
160475000160475               160475               170213GM     1400+00000+GM0000004433+0000004433+000000000+000000621+0000005054+0000000000+I40000005054+0000000000+Z
160475001160475028-000030     160475006001023810908COOLER-BAG 6PACK       0000001000+00004385+00000+0001T   00004385+0000001108          1400 G49305               3AZ
160475002160475112-116069     160475006003000535064TCS CARRIER BAG JUMBO  0000001000+00000048+00000+0001T   00000048+0000001108          1400 G49090               3AZ
160476000160476               160476               170213GM     1400+00000+GM0000012277+0000012277+000000000+000001720+0000013990+0000000007+I20000000000+0000013990+Z
160476001160476362-001103     160476006001023793515JWLRY GRL ASS 2PC ASSTD0000001000+00001753+00000+0001T   00001753+0000001115          1400 G49160               3AZ
160476002160476362-002430     160476006001023707314HAIR ACCESS SHINY PURSE0000001000+00004385+00000+0001T   00004385+0000001115          1400 G49160               3AZ
160476003160476263-000284     160476006001023789969CAR PL FRICTION 24cm   0000001000+00006139+00000+0001T   00006139+0000001115          1400 G49710               3AZ
160477000160477               160477               170213GM     1400+00000+GM0000001753+0000001753+000000000+000000246+0000001990+0000000009+I20000000000+0000001990+Z
160477001160477362-003003     160477006003000295616HAIR BAND SET 6PCE     0000001000+00001753+00000+0001T   00001753+0000001115          1400 G49160               3AZ
160478000160478               160478               170213GM     1400+00000+GM0000000876+0000000876+000000000+000000123+0000000990+0000000009+I20000000000+0000000990+Z
160478001160478078-000025     160478008887013700064SUPERGLUE 3g 1PCE CARD 0000001000+00000876+00000+0001T   00000876+0000001118          1400 G49810               3AZ
160479000160479               160479               170213GM     1400+00000+GM0000017573+0000017573+000000000+000002462+0000020030+0000000005+I20000000000+0000020030+Z
160479001160479039-809558     160479006003000344376CANDLE PILLAR 12CM 4AST0000001000+00006139+00000+0001T   00006139+0000001120          1400 G49510               3AZ
160479002160479301-085001     160479006003000297610ORN WATERBALL LOVE ASST0000001000+00004823+00000+0001T   00004823+0000001120          1400 G49505               3AZ
160479003160479018-000136     160479006001023659026MUG OCC LOVE W/PLUSH   0000001000+00003507+00000+0001T   00003507+0000001120          1400 G49515               3AZ
160479004160479030-000030-A   160479006003000249305PLAQUE GLASS LOVE      0000001000+00003069+00000+0001T   00003069+0000001120          1400 G49505               3AZ
160479005160479112-116038     160479006003000534906TCS CARRIER BAG MIDI   0000001000+00000035+00000+0001T   00000035+0000001120          1400 G49090               3AZ
160480000160480               160480               170213GM     1400+00000+GM0000000876+0000000876+000000000+000000123+0000000990+0000000009+I20000000000+0000000990+Z
160480001160480001-000167     160480006001023679659TUMBLER 340ml WILLY    0000001000+00000876+00000+0001T   00000876+0000001120          1400 G49515               3AZ
160481000160481               160481               170213GM     1400+00000+GM0000024950+0000024950+000000000+000003497+0000028447+0000000000+I40000028447+0000000000+Z
160481001160481112-116069     160481006003000535064TCS CARRIER BAG JUMBO  0000001000+00000048+00000+0001T   00000048+0000001123          1400 G49090               3AZ
160481002160481018-030000     160481006003000421060MUG OCCASIONS LOVE 2PCE0000002000+00004385+00000+0001T   00004385+0000001123          1400 G49515               3AZ
160481003160481040-000923     160481006001023587831CANDLE-HOLDER GLS 13.5 0000002000+00001753+00000+0001T   00001753+0000001123          1400 G49510               3AZ
160481004160481039-000026     160481006001023551610C/TAPERED 25CM M/RED   0000002000+00001051+00000+0001T   00001051+0000001123          1400 G49510               3AZ
160481005160481304-001116     160481006003000426164F/BUNCH ROSES 12-HEAD  0000002000+00005262+00000+0001T   00005262+0000001123          1400 G49510               3AZ
160482000160482               160482               170213GM     1400+00000+GM0000005262+0000005262+000000000+000000737+0000005999+0000000000+I40000005999+0000000000+Z
160482001160482266-002581     160482006001023905833PLAYSET SWORD,BOW&ARROW0000001000+00005262+00000+0001T   00005262+0000001125          1400 G49710               3AZ
160483000160483               160483               170213GM     1400+00000+GM0000010604+0000010604+000000000+000001487+0000012090+0000000001+I20000000000+0000012090+Z
160483001160483565-000889     160483006003000626953NOVELTY SPACE BALLOONS 0000001000+00001753+00000+0001T   00001753+0000001126          1400 G49745               3AZ
160483002160483018-000177     160483006001023797513MUG MINI LOVE ASSTD    0000001000+00000700+00000+0001T   00000700+0000001126          1400 G49515               3AZ
160483003160483033-000121     160483006009654960573COMBS FAMILY PACK-OF-2 0000001000+00001051+00000+0001T   00001051+0000001126          1400 G49200               3AZ
160483004160483565-000601     160483006003000643844NOVELTY FLIP BUG       0000001000+00001227+00000+0001T   00001227+0000001126          1400 G49745               3AZ
160483005160483033-005994     160483006001023789570SEWING-NEEDLES 16PCE   0000001000+00000613+00000+0001T   00000613+0000001126          1400 G49200               3AZ
160483006160483565-000080     160483006003000643424NOVELTY BENDY          0000002000+00002192+00000+0001T   00002192+0000001126          1400 G49745               3AZ
160483007160483033-010720     160483006001023678645SAFETY-PINS 50PCE SMALL0000001000+00000876+00000+0001T   00000876+0000001126          1400 G49200               3AZ
160484000160484               160484               170213GM     1400+00000+GM0000004385+0000004385+000000000+000000614+0000004990+0000000009+I20000000000+0000004990+Z
160484001160484082-000110     160484006003000360482READING GLS STRENGHT:2 0000001000+00004385+00000+0001T   00004385+0000001127          1400 G49160               3AZ
160485000160485               160485               170213GM     1400+00000+GM0000002192+0000002192+000000000+000000307+0000002490+0000000009+I20000000000+0000002490+Z
160485001160485566-000068     160485006003000418046POP UP LOVE 2 ASSTD    0000001000+00002192+00000+0001T   00002192+0000001129          1400 G49130               3AZ
160486000160486               160486               170213GM     1400+00000+GM0000001753+0000001753+000000000+000000246+0000001990+0000000009+I20000000000+0000001990+Z
160486001160486077-000299-A   160486006003000670888GIFT-BAG PAPER JMB LOVE0000001000+00001753+00000+0001T   00001753+0000001130          1400 G49112               3AZ
160487000160487               160487               170213GM     1400+00000+GM0000002716+0000002716+000000000+000000381+0000003097+0000000000+I40000003097+0000000000+Z
160487001160487304-001204     160487006001023737984FLOWER OCC. TEDDY/ROSES0000001000+00001402+00000+0001T   00001490+0006471131          1400 G49510               3AZ
160487002160487903-000194     160487006009826020616SWT CHOC RP LOLLY 25G  0000001000+00001314+00000+0001T   00001314+0000001131          1400 G49150               3AZ
160488000160488               160488               170213GM     1400+00000+GM0000006624+0000006624+000000000+000000929+0000007553+0000000000+I40000007553+0000000000+Z
160488001160488112-116069     160488006003000535064TCS CARRIER BAG JUMBO  0000001000+00000048+00000+0001T   00000048+0000001143          1400 G49090               3AZ
160488002160488304-000720     160488006001023843050F/BUNCH ROSE 6-HEAD AST0000001000+00002630+00000+0001T   00002630+0000001143          1400 G49510               3AZ
160488003160488031-000857     160488006001023852144P/FRAME PL BROWN 13X18 0000001000+00003946+00000+0001T   00003946+0000001143          1400 G49510               3AZ
160489000160489               160489               170213GM     1400+00000+GM0000013588+0000013588+000000000+000001905+0000015490+0000000003+I20000000000+0000015490+Z
160489001160489077-000452     160489006003000284986G/BAG METALLIC MED EMB 0000002000+00001490+00000+0001T   00001490+0000001146          1400 G49112               3AZ
160489002160489077-000315     160489006003000181186GIFT-BAG 20x28cm MATT  0000002000+00001578+00000+0001T   00001578+0000001146          1400 G49112               3AZ
160489003160489080-000127     160489006003000424351VALENTINES DAY 36x24CM 0000001000+00002192+00000+0001T   00002192+0000001146          1400 G49112               3AZ
160489004160489080-000137     160489006003000589159CARD & ENV GIANT FEMALE0000002000+00002630+00000+0001T   00002630+0000001146          1400 G49112               3AZ
160490000160490               160490               170213GM     1400+00000+GM0000009645+0000009645+000000000+000001351+0000010990+0000000006+I20000000000+0000010990+Z
160490001160490203-007000     160490006001023886040SHOT-GLASS DISPOSABLE  0000001000+00003507+00000+0001T   00003507+0000001149          1400 G49300               3AZ
160490002160490203-007003     160490006003000116331SHOT-GLASS DISPOSABLE  0000002000+00003069+00000+0001T   00003069+0000001149          1400 G49300               3AZ
160491000160491               160491               170213GM     1400+00000+GM0000008942+0000008942+000000000+000001254+0000010196+0000000000+I40000010196+0000000000+Z
160491001160491077-000299     160491006003000395576G/BAG 32x25cm LRG LOVE 0000001000+00001490+00000+0001T   00001490+0000001153          1400 G49112               3AZ
160491002160491301-085000     160491006003000674299 ORN OCC. LOVE HEARTS  0000001000+00002192+00000+0001T   00002192+0000001153          1400 G49505               3AZ
160491003160491567-010570     160491006002242057129BOOK READER AFR DISNEY 0000001000+00002630+00000+0001T   00002630+0000001153          1400 G49757               3AZ
160491004160491567-010569     160491006002242057136BOOK READER AFR DISNEY 0000001000+00002630+00000+0001T   00002630+0000001153          1400 G49757               3AZ
160492000160492               160492               170213GM     1400+00000+GM0000004851+0000004851+000000000+000000681+0000005530+0000000002+I20000000000+0000005530+Z
160492001160492077-000011-C   160492006001023808523TISSUE 10xSHTS RED     0000003000+00000876+00000+0001T   00000876+0000001154          1400 G49112               3AZ
160492002160492077-000010-C   160492006001023123879CREPE-PAPER RED        0000001000+00000788+00000+0001T   00000788+0000001154          1400 G49112               3AZ
160492003160492007-000166     160492006009685857316SPIRAL NOTES A6 100PG  0000002000+00000700+00000+0001T   00000700+0000001154          1400 G49130               3AZ
160492004160492112-116038     160492006003000534906TCS CARRIER BAG MIDI   0000001000+00000035+00000+0001T   00000035+0000001154          1400 G49090               3AZ
160493000160493               160493               170213GM     1400+00000+GM0000005044+0000005044+000000000+000000708+0000005750+0000000002+I20000000000+0000005750+Z
160493001160493903-004951     160493006002580020328SWT MALLOW MINI M/SHAKE0000001000+00001227+00000+0001T   00001227+0000001155          1400 G49150               3AZ
160493002160493903-000087     160493006001704000161SWT SPECKLED-EGGS 50G  0000001000+00001139+00000+0001T   00001139+0000001155          1400 G49150               3AZ
160493003160493088-000082     160493006001023798008P/POURRI SACHETS 5x10ml0000001000+00002630+00000+0001T   00002630+0000001155          1400 G49212               3AZ
160493004160493112-116069     160493006003000535064TCS CARRIER BAG JUMBO  0000001000+00000048+00000+0001T   00000048+0000001155          1400 G49090               3AZ
160494000160494               160494               170213GM     1400+00000+GM0000002630+0000002630+000000000+000000369+0000002990+0000000009+I20000000000+0000002990+Z
160494001160494027-008813     160494006001023552334DUSTER RETRCTABLE 122cm0000001000+00002630+00000+0001T   00002630+0000001156          1400 G49212               3AZ
160495000160495               160495               170213GM     1400+00000+GM0000016617+0000016617+000000000+000002327+0000018944+0000000000+I40000018944+0000000000+Z
160495001160495077-000303     160495006001023593757GIFT-BAG PAPER MED     0000001000+00001578+00000+0001T   00001578+0000001157          1400 G49112               3AZ
160495002160495077-000310     160495006001023608635GIFT-BAG 18X23CM GLOSS 0000001000+00001314+00000+0001T   00001314+0000001157          1400 G49112               3AZ
160495003160495077-000303     160495006001023593757GIFT-BAG PAPER MED     0000001000+00001578+00000+0001T   00001578+0000001157          1400 G49112               3AZ
160495004160495080-000124     160495006003000297733CARD & ENV VALENTINES  0000001000+00001578+00000+0001T   00001578+0000001157          1400 G49112               3AZ
160495005160495018-000136     160495006001023659026MUG OCC LOVE W/PLUSH   0000003000+00003507+00000+0001T   00003507+0000001157          1400 G49515               3AZ
160495006160495112-116069     160495006003000535064TCS CARRIER BAG JUMBO  0000001000+00000048+00000+0001T   00000048+0000001157          1400 G49090               3AZ
160496000160496               160496               170213GM     1400+00000+GM0000009239+0000009239+000000000+000001295+0000010534+0000000000+I40000010534+0000000000+Z
160496001160496365-000072     160496006003000012664PLAY-SET PL B/O MICROPH0000001000+00002630+00000+0001T   00003507+0008191200          1400 G49725               3AZ
160496002160496006-000120     160496006001023346889BALLOONS 10PC MIX COL  0000001000+00001753+00000+0001T   00001753+0000001200          1400 G49131               3AZ
160496003160496079-000195     160496006003000161485P/CRAYONS RETRCTBLEx10 0000001000+00003507+00000+0001T   00003507+0000001200          1400 G49130               3AZ
160496004160496046-000012     160496006904708013062BATTERIES AA  CARD-OF-40000001000+00001314+00000+0001T   00001314+0000001200          1400 G49312               3AZ
160496005160496112-116038     160496006003000534906TCS CARRIER BAG MIDI   0000001000+00000035+00000+0001T   00000035+0000001200          1400 G49090               3AZ
160497000160497               160497               170213GM     1400+00000+GM0000001753+0000001753+000000000+000000246+0000001999+0000000000+I40000001999+0000000000+Z
160497001160497077-000316     160497006001023609731GIFT-BAG 25X32CM MATT  0000001000+00001753+00000+0001T   00001753+0000001204          1400 G49112               3AZ
160498000160498               160498               170213GM     1400+00000+GM0000005310+0000005310+000000000+000000744+0000006054+0000000000+I40000006054+0000000000+Z
160498001160498003-009130     160498006003000673445ORN WELCOME STONE OVAL 0000001000+00005262+00000+0001T   00005262+0000001208          1400 G49505               3AZ
160498002160498112-116069     160498006003000535064TCS CARRIER BAG JUMBO  0000001000+00000048+00000+0001T   00000048+0000001208          1400 G49090               3AZ
160499000160499               160499               170213GM     1400+00000+GM0000001538+0000001538+000000000+000000216+0000001750+0000000004+I20000000000+0000001750+Z
160499001160499077-000305     160499006003000395422GIFT-BAG WINE 10X35CM  0000001000+00001490+00000+0001T   00001490+0000001232          1400 G49112               3AZ
160499002160499112-116069     160499006003000535064TCS CARRIER BAG JUMBO  0000001000+00000048+00000+0001T   00000048+0000001232          1400 G49090               3AZ
160500000160500               160500               170213GM     1400+00000+GM0000011183+0000011183+000000000+000001568+0000012750+0000000001+I20000000000+0000012750+Z
160500001160500039-081008     160500006008766081008CANDLES 9PCE SCENTED   0000001000+00002630+00000+0001T   00002630+0000001235          1400 G49510               3AZ
160500002160500039-000108     160500006001023524034TEA-LITE CANDLES 8PCE  0000001000+00001490+00000+0001T   00001490+0000001235          1400 G49510               3AZ
160500003160500039-001023     160500006003000466337CANDLE TEA-LITE METALIC0000001000+00001753+00000+0001T   00001753+0000001235          1400 G49510               3AZ
160500004160500039-082852     160500006008766082852C/SET 4PC MINI PILLARS 0000001000+00005262+00000+0001T   00005262+0000001235          1400 G49510               3AZ
160500005160500112-116069     160500006003000535064TCS CARRIER BAG JUMBO  0000001000+00000048+00000+0001T   00000048+0000001235          1400 G49090               3AZ
160501000160501               160501               170213GM     1400+00000+GM0000001139+0000001139+000000000+000000160+0000001290+0000000009+I20000000000+0000001290+Z
160501001160501140-006004     160501006001023628077FLY-SWATTER RUBBER     0000001000+00001139+00000+0001T   00001139+0000001236          1400 G49830               3AZ
160502000160502               160502               170213GM     1400+00000+GM0000002192+0000002192+000000000+000000307+0000002490+0000000009+I20000000000+0000002490+Z
160502001160502024-091102     160502006003453000010BAKING-CUP PAPER 50PC  0000001000+00002192+00000+0001T   00002192+0000001241          1400 G49300               3AZ
160503000160503               160503               170213GM     1400+00000+GM0000004385+0000004385+000000000+000000614+0000004990+0000000009+I20000000000+0000004990+Z
160503001160503006-000190     160503006003000685530BALLOONS LOVE 81x91cm  0000001000+00004385+00000+0001T   00004385+0000001243          1400 G49131               3AZ
160504000160504               160504               170213GM     1400+00000+GM0000006138+0000006138+000000000+000000860+0000006990+0000000008+I20000000000+0000006990+Z
160504001160504006-000190     160504006003000685530BALLOONS LOVE 81x91cm  0000001000+00004385+00000+0001T   00004385+0000001244          1400 G49131               3AZ
160504002160504031-005820     160504006001023667816P/FRAME-CLIP 15X20CM   0000001000+00001753+00000+0001T   00001753+0000001244          1400 G49510               3AZ
160505000160505               160505               170213GM     1400+00000+GM0000001314+0000001314+000000000+000000184+0000001490+0000000008+I20000000000+0000001490+Z
160505001160505046-000012     160505006904708013062BATTERIES AA  CARD-OF-40000001000+00001314+00000+0001T   00001314+0000001245          1400 G49312               3AZ
160506000160506               160506               170213GM     1400+00000+GM0000000876+0000000876+000000000+000000123+0000000990+0000000009+I20000000000+0000000990+Z
160506001160506039-000319-2   160506006003000442508B/CANDLES LRG NUMBER-2 0000001000+00000876+00000+0001T   00000876+0000001248          1400 G49510               3AZ
160507000160507               160507               170213GM     1400+00000+GM0000003067+0000003067+000000000+000000430+0000003490+0000000007+I20000000000+0000003490+Z
160507001160507046-000012     160507006904708013062BATTERIES AA  CARD-OF-40000001000+00001314+00000+0001T   00001314+0000001251          1400 G49312               3AZ
160507002160507200-003024     160507006001023657299REFUSE BAGS 20PCE BLACK0000001000+00001753+00000+0001T   00001753+0000001251          1400 G49214               3AZ
160508000160508               160508               170213GM     1400+00000+GM0000010551+0000010551+000000000+000001481+0000012032+0000000000+I40000012032+0000000000+Z
160508001160508301-085006     160508006001023502940ORN LOVE MSG TUBE W/HRT0000003000+00001753+00000+0001T   00001753+0000001256          1400 G49505               3AZ
160508002160508112-116038     160508006003000534906TCS CARRIER BAG MIDI   0000001000+00000035+00000+0001T   00000035+0000001256          1400 G49090               3AZ
160508003160508033-000106     160508006001023678027ELASTIC  6mmx3m  CARDED0000004000+00000876+00000+0001T   00000876+0000001256          1400 G49200               3AZ
160508004160508566-000056     160508006003000661381STICKER DRESS UP GIRL  0000001000+00001753+00000+0001T   00001753+0000001256          1400 G49130               3AZ
160509000160509               160509               170213GM     1400+00000+GM0000000876+0000000876+000000000+000000123+0000000990+0000000009+I20000000000+0000000990+Z
160509001160509077-000314     160509006003000181148GIFT-BAG 11X14CM MATT  0000001000+00000876+00000+0001T   00000876+0000001256          1400 G49112               3AZ
160510000160510               160510               170213GM     1400+00000+GM0000003069+0000003069+000000000+000000430+0000003499+0000000000+I40000003499+0000000000+Z
160510001160510464-000107     160510000073854318089PLAY-CARDS 2nd (SINGLE)0000001000+00003069+00000+0001T   00003069+0000001258          1400 G49785               3AZ
160511000160511               160511               170213GM     1400+00000+GM0000012063+0000012063+000000000+000001690+0000013750+0000000003+I20000000000+0000013750+Z
160511001160511562-058925     160511006003000599998EDU B/O TOY TABLET     0000001000+00011402+00000+0001T   00011402+0000001259          1400 G49755               3AZ
160511002160511306-000021     160511006001023169433EARBUDS 100PCE IN BAG  0000001000+00000613+00000+0001T   00000613+0000001259          1400 G49200               3AZ
160511003160511112-116069     160511006003000535064TCS CARRIER BAG JUMBO  0000001000+00000048+00000+0001T   00000048+0000001259          1400 G49090               3AZ
160512000160512               160512               170213GM     1400+00000+GM0000001753+0000001753+000000000+000000246+0000001990+0000000009+I20000000000+0000001990+Z
160512001160512006-000124     160512006003000625888BALLOONS 10PC MIX COL  0000001000+00001753+00000+0001T   00001753+0000001259          1400 G49131               3AZ
160513000160513               160513               170213GM     1400+00000+GM0000001753+0000001753+000000000+000000246+0000001990+0000000009+I20000000000+0000001990+Z
160513001160513046-000014-A   160513004897006177708BATTERIES SIZE:AAA 8PCE0000001000+00001753+00000+0001T   00001753+0000001301          1400 G49312               3AZ
160514000160514               160514               170213GM     1400+00000+GM0000002630+0000002630+000000000+000000369+0000002990+0000000009+I20000000000+0000002990+Z
160514001160514073-000157     160514006003000571734COSMETIC QUILTED BAG   0000001000+00002630+00000+0001T   00002630+0000001310          1400 G49200               3AZ
160515000160515               160515               170213GM     1400+00000+GM0000001788+0000001788+000000000+000000251+0000002030+0000000009+I20000000000+0000002030+Z
160515001160515012-000001     160515006003000331048MICRO PLATE-COVER 26X6 0000001000+00001753+00000+0001T   00002192+0008191311          1400 G49300               3AZ
160515002160515112-116038     160515006003000534906TCS CARRIER BAG MIDI   0000001000+00000035+00000+0001T   00000035+0000001311          1400 G49090               3AZ
160516000160516               160516               170213GM     1400+00000+GM0000004385+0000004385+000000000+000000614+0000004990+0000000009+I20000000000+0000004990+Z
160516001160516077-000466     160516006003000681693GIFT-BAG MTLC GLIT JMB 0000001000+00004385+00000+0001T   00004385+0000001359          1400 G49112               3AZ
160517000160517               160517               170213GM     1400+00000+GM0000009770+0000009770+000000000+000001373+0000011140+0000000003+I20000000000+0000011140+Z
160517001160517112-116069     160517006003000535064TCS CARRIER BAG JUMBO  0000001000+00000048+00000+0001T   00000048+0000001402          1400 G49090               3AZ
160517002160517006-000104     160517006001023990112BALLOONS 40PC AIR PUMP 0000001000+00002630+00000+0001T   00002630+0000001402          1400 G49131               3AZ
160517003160517563-000318-D   160517006003000404001SERVIETTES 33cm BLUE   0000001000+00002192+00000+0001T   00002192+0000001402          1400 G49214               3AZ
160517004160517077-000348     160517006001023483287GIFT-BOWS 4,5cm 8PCE   0000001000+00001578+00000+0001T   00001578+0000001402          1400 G49112               3AZ
160517005160517077-000315     160517006003000181186GIFT-BAG 20x28cm MATT  0000001000+00001578+00000+0001T   00001578+0000001402          1400 G49112               3AZ
160517006160517006-000173-D   160517006003000636631BALLOONS 1PC BLUE      0000002000+00000218+00000+0001T   00000218+0000001402          1400 G49131               3AZ
160517007160517006-000171-E   160517006003000609406BALLOONS 1PC BLUE PRNT 0000002000+00000218+00000+0001T   00000218+0000001402          1400 G49131               3AZ
160517008160517006-000170-K   160517006003000609284BALLOONS 1PC PURPLE    0000002000+00000218+00000+0001T   00000218+0000001402          1400 G49131               3AZ
160517009160517006-000171-H   160517006003000609574BALLOONS 1PC RED PRINT 0000001000+00000218+00000+0001T   00000218+0000001402          1400 G49131               3AZ
160517010160517006-000173-B   160517006003000636358BALLOONS HELIUM 1PC WHT0000001000+00000218+00000+0001T   00000218+0000001402          1400 G49131               3AZ
160518000160518               160518               170213GM     1400+00000+GM0000006139+0000006139+000000000+000000860+0000006990+0000000009+I20000000000+0000006990+Z
160518001160518466-001641     160518006001023835406TABLE-TENNIS-SET       0000001000+00006139+00000+0001T   00006139+0000001402          1400 G49785               3AZ
160519000160519               160519               170213GM     1400+00000+GM0000026357+0000026357+000000000+000003692+0000030040+0000000009+I20000000000+0000030040+Z
160519001160519077-000299-A   160519006003000670888GIFT-BAG PAPER JMB LOVE0000001000+00001753+00000+0001T   00001753+0000001410          1400 G49112               3AZ
160519002160519018-050000     160519006003000412679MUG OCC LOVE TWIN BEAR 0000001000+00006139+00000+0001T   00006139+0000001410          1400 G49515               3AZ
160519003160519046-002025-PK2 160519004897006174868BATTERIES CR-2025  2PCE0000001000+00001753+00000+0001T   00001753+0000001410          1400 G49312               3AZ
160519004160519031-000009     160519006003000306381P/FRAME COLLAGE HEARTS 0000001000+00013157+00000+0001T   00013157+0000001410          1400 G49510               3AZ
160519005160519046-000005     160519004897006174844BATTERY 9VOLT ALKALINE 0000001000+00003507+00000+0001T   00003507+0000001410          1400 G49312               3AZ
160519006160519112-116069     160519006003000535064TCS CARRIER BAG JUMBO  0000001000+00000048+00000+0001T   00000048+0000001410          1400 G49090               3AZ
160520000160520               160520               170213GM     1400+00000+GM0000003542+0000003542+000000000+000000496+0000004030+0000000008+I20000000000+0000004030+Z
160520001160520112-116038     160520006003000534906TCS CARRIER BAG MIDI   0000001000+00000035+00000+0001T   00000035+0000001415          1400 G49090               3AZ
160520002160520301-085004     160520006003000420469ORN LOVE PLAQUE 21X10CM0000001000+00003507+00000+0001T   00003946+0006471415          1400 G49505               3AZ
160521000160521               160521               170213GM     1400+00000+GM0000002628+0000002628+000000000+000000368+0000002996+0000000000+I40000002996+0000000000+Z
160521001160521077-000310     160521006001023608635GIFT-BAG 18X23CM GLOSS 0000002000+00001314+00000+0001T   00001314+0000001429          1400 G49112               3AZ
160522000160522               160522               170213GM     1400+00000+GM0000010981+0000010981+000000000+000001538+0000012519+0000000000+I40000012519+0000000000+Z
160522001160522112-116038     160522006003000534906TCS CARRIER BAG MIDI   0000001000+00000035+00000+0001T   00000035+0000001434          1400 G49090               3AZ
160522002160522368-000152     160522006003000166886PLUSH BEAR 15cm        0000001000+00003946+00000+0001T   00005262+0008141434          1400 G49745               3AZ
160522003160522018-000177     160522006001023797513MUG MINI LOVE ASSTD    0000010000+00000700+00000+0001T   00000700+0000001434          1400 G49515               3AZ
160523000160523               160523               170213GM     1400+00000+GM0000003291+0000003291+000000000+000000462+0000003750+0000000003+I20000000000+0000003750+Z
160523001160523112-116069     160523006003000535064TCS CARRIER BAG JUMBO  0000001000+00000048+00000+0001T   00000048+0000001435          1400 G49090               3AZ
160523002160523077-000304     160523006001023483232GIFT-BAG 25X32CM E/DAY 0000001000+00001490+00000+0001T   00001490+0000001435          1400 G49112               3AZ
160523003160523077-000316     160523006001023609731GIFT-BAG 25X32CM MATT  0000001000+00001753+00000+0001T   00001753+0000001435          1400 G49112               3AZ
160524000160524               160524               170213GM     1400+00000+GM0000001753+0000001753+000000000+000000246+0000001990+0000000009+I20000000000+0000001990+Z
160524001160524077-000472     160524006003000330133G-BAG DESGNR LRG 25X32 0000001000+00001753+00000+0001T   00001753+0000001438          1400 G49112               3AZ
160525000160525               160525               170213GM     1400+00000+GM0000003993+0000003993+000000000+000000560+0000004553+0000000000+I40000004553+0000000000+Z
160525001160525112-116069     160525006003000535064TCS CARRIER BAG JUMBO  0000001000+00000048+00000+0001T   00000048+0000001439          1400 G49090               3AZ
160525002160525077-000299-A   160525006003000670888GIFT-BAG PAPER JMB LOVE0000001000+00001753+00000+0001T   00001753+0000001439          1400 G49112               3AZ
160525003160525080-000127     160525006003000424351VALENTINES DAY 36x24CM 0000001000+00002192+00000+0001T   00002192+0000001439          1400 G49112               3AZ
160526000160526               160526               170213GM     1400+00000+GM0000020560+0000020560+000000000+000002881+0000023440+0000000001+I20000000000+0000023440+Z
160526001160526112-116069     160526006003000535064TCS CARRIER BAG JUMBO  0000001000+00000048+00000+0001T   00000048+0000001441          1400 G49090               3AZ
160526002160526006-000190     160526006003000685530BALLOONS LOVE 81x91cm  0000002000+00004385+00000+0001T   00004385+0000001441          1400 G49131               3AZ
160526003160526006-000166-D   160526006003000516490BALLOONS LRG 6PC RED   0000002000+00001314+00000+0001T   00001314+0000001441          1400 G49131               3AZ
160526004160526006-000166-H   160526006003000608096BALLOONS HELIUM 6PC WHT0000002000+00001314+00000+0001T   00001314+0000001441          1400 G49131               3AZ
160526005160526301-085000     160526006003000674299 ORN OCC. LOVE HEARTS  0000002000+00002192+00000+0001T   00002192+0000001441          1400 G49505               3AZ
160526006160526079-009702-D   160526008427973059354PAPER SIRIO A2 RED COL 0000001000+00001051+00000+0001T   00001051+0000001441          1400 G49130               3AZ
160526007160526079-009702-B   160526008427973059491PAPER SIRIO A2 WHITE   0000001000+00001051+00000+0001T   00001051+0000001441          1400 G49130               3AZ
160527000160527               160527               170213GM     1400+00000+GM0000001752+0000001752+000000000+000000246+0000001990+0000000008+I20000000000+0000001990+Z
160527001160527077-000150-D   160527006003000054343GIFT-WRAP CELLPHANE CLR0000002000+00000876+00000+0001T   00000876+0000001442          1400 G49112               3AZ
160528000160528               160528               170213GM     1400+00000+GM0000004155+0000004155+000000000+000000585+0000004740+0000000000+I20000000000+0000004740+Z
160528001160528006-000173-A   160528006003000636235BALLOONS HELIUM 1PC BLK0000002000+00000218+00000+0001T   00000218+0000001443          1400 G49131               3AZ
160528002160528006-000173-C   160528006003000636518BALLOONS 1PC PINK      0000003000+00000218+00000+0001T   00000218+0000001443          1400 G49131               3AZ
160528003160528006-001000     160528006003000093779HELIUM BALLOON FILL    0000005000+00000613+00000+0001T   00000613+0000001443          1400 G49131               3AZ
160529000160529               160529               170213GM     1400+00000+GM0000002630+0000002630+000000000+000000369+0000002999+0000000000+I40000002999+0000000000+Z
160529001160529077-000251     160529006003000639106GIFT-DECOR RIBBON      0000001000+00002630+00000+0001T   00002630+0000001446          1400 G49112               3AZ
160530000160530               160530               170213GM     1400+00000+GM0000012327+0000012327+000000000+000001727+0000014054+0000000000+I40000014054+0000000000+Z
160530001160530112-116069     160530006003000535064TCS CARRIER BAG JUMBO  0000001000+00000048+00000+0001T   00000048+0000001452          1400 G49090               3AZ
160530002160530368-000111     160530006001023780812PLUSH BEAR/DOG 29CM    0000001000+00012279+00000+0001T   00012279+0000001452          1400 G49745               3AZ
160531000160531               160531               170213GM     1400+00000+GM0000007309+0000007309+000000000+000001026+0000008335+0000000000+I40000008335+0000000000+Z
160531001160531112-116038     160531006003000534906TCS CARRIER BAG MIDI   0000001000+00000035+00000+0001T   00000035+0000001454          1400 G49090               3AZ
160531002160531566-000028     160531006003000265541STICKER BK ASSTD 250PCE0000001000+00001753+00000+0001T   00001753+0000001454          1400 G49130               3AZ
160531003160531566-000031     160531006003000283910STICKER BK TEACHER STIC0000001000+00002192+00000+0001T   00002192+0000001454          1400 G49130               3AZ
160531004160531566-000028     160531006003000265541STICKER BK ASSTD 250PCE0000001000+00001753+00000+0001T   00001753+0000001454          1400 G49130               3AZ
160531005160531566-000858     160531006001023760975STCKRS G/OUTLINE ASSTD 0000002000+00000788+00000+0001T   00000788+0000001454          1400 G49130               3AZ
160532000160532               160532               170213GM     1400+00000+GM0000010568+0000010568+000000000+000001481+0000012049+0000000000+I40000012049+0000000000+Z
160532001160532112-116069     160532006003000535064TCS CARRIER BAG JUMBO  0000001000+00000048+00000+0001T   00000048+0000001459          1400 G49090               3AZ
160532002160532077-000316     160532006001023609731GIFT-BAG 25X32CM MATT  0000001000+00001753+00000+0001T   00001753+0000001459          1400 G49112               3AZ
160532003160532077-000455     160532006003000285389G/BAG METALLIC LRG SOL 0000001000+00001753+00000+0001T   00001753+0000001459          1400 G49112               3AZ
160532004160532018-000136     160532006001023659026MUG OCC LOVE W/PLUSH   0000001000+00003507+00000+0001T   00003507+0000001459          1400 G49515               3AZ
160532005160532018-005009     160532006001023725608MUG W/PLUSH-BEAR LOVE  0000001000+00003507+00000+0001T   00003507+0000001459          1400 G49515               3AZ
160533000160533               160533               170213GM     1400+00000+GM0000005346+0000005346+000000000+000000749+0000006095+0000000000+I40000006095+0000000000+Z
160533001160533039-091783     160533006003000275434 CANDLE VOTIVE 4PC 50G 0000001000+00003507+00000+0001T   00003507+0000001504          1400 G49510               3AZ
160533002160533006-001000     160533006003000093779HELIUM BALLOON FILL    0000003000+00000613+00000+0001T   00000613+0000001504          1400 G49131               3AZ
160534000160534               160534               170213GM     1400+00000+GM0000005261+0000005261+000000000+000000737+0000005990+0000000008+I20000000000+0000005990+Z
160534001160534301-085000     160534006003000674299 ORN OCC. LOVE HEARTS  0000001000+00002192+00000+0001T   00002192+0000001505          1400 G49505               3AZ
160534002160534301-085008     160534006003000673933ORN OCC.LOVE TINSEL HRT0000001000+00003069+00000+0001T   00003069+0000001505          1400 G49505               3AZ
160535000160535               160535               170213GM     1400+00000+GM0000008803+0000008803+000000000+000001234+0000010030+0000000007+I20000000000+0000010030+Z
160535001160535368-000101     160535006003000449859PLUSH CAT 17cm KITTY   0000001000+00005262+00000+0001T   00005262+0000001506          1400 G49745               3AZ
160535002160535565-000889     160535006003000626953NOVELTY SPACE BALLOONS 0000001000+00001753+00000+0001T   00001753+0000001506          1400 G49745               3AZ
160535003160535089-000030     160535006003000575671K/CHAIN LOVE MTL ASSTD 0000001000+00001753+00000+0001T   00001753+0000001506          1400 G49205               3AZ
160535004160535112-116038     160535006003000534906TCS CARRIER BAG MIDI   0000001000+00000035+00000+0001T   00000035+0000001506          1400 G49090               3AZ
160536000160536               160536               170213GM     1400+00000+GM0000011450+0000011450+000000000+000001604+0000013054+0000000000+I40000013054+0000000000+Z
160536001160536368-000637     160536006001023874092PLUSH BEAR SLEEPING LOV0000001000+00011402+00000+0001T   00012279+0006471508          1400 G49745               3AZ
160536002160536112-116069     160536006003000535064TCS CARRIER BAG JUMBO  0000001000+00000048+00000+0001T   00000048+0000001508          1400 G49090               3AZ
160537000160537               160537               170213GM     1400+00000+GM0000001753+0000001753+000000000+000000246+0000001990+0000000009+I20000000000+0000001990+Z
160537001160537077-000301     160537008010410010188BAG LRG 25X32CM B/DAY  0000001000+00001753+00000+0001T   00001753+0000001509          1400 G49112               3AZ
160538000160538               160538               170213GM     1400+00000+GM0000003542+0000003542+000000000+000000496+0000004030+0000000008+I20000000000+0000004030+Z
160538001160538112-116038     160538006003000534906TCS CARRIER BAG MIDI   0000001000+00000035+00000+0001T   00000035+0000001513          1400 G49090               3AZ
160538002160538361-000664     160538006003000157402DOLL BIG EYE BEAUTY    0000001000+00003507+00000+0001T   00004385+0008191513          1400 G49725               3AZ
160539000160539               160539               170213GM     1400+00000+GM0000016609+0000016609+000000000+000002327+0000018930+0000000006+I20000000000+0000018930+Z
160539001160539039-000500     160539006001023816450C/VOTIVE 8PC RAINBOW   0000001000+00005262+00000+0001T   00005262+0000001514          1400 G49510               3AZ
160539002160539041-093000     160539006003000320882B/GIFT SET 4PC B/RANGE 0000001000+00007016+00000+0001T   00007016+0000001514          1400 G49200               3AZ
160539003160539018-000170     160539006001023775528MUG OCC. LOVE 2PC MINI 0000001000+00002192+00000+0001T   00002192+0000001514          1400 G49515               3AZ
160539004160539903-000090     160539006009826020821SWT GS CHOCO COINS 60g 0000001000+00002104+00000+0001T   00002104+0000001514          1400 G49150               3AZ
160539005160539112-116038     160539006003000534906TCS CARRIER BAG MIDI   0000001000+00000035+00000+0001T   00000035+0000001514          1400 G49090               3AZ
160540000160540               160540               170213GM     1400+00000+GM0000003067+0000003067+000000000+000000430+0000003497+0000000000+I40000003497+0000000000+Z
160540001160540089-000030     160540006003000575671K/CHAIN LOVE MTL ASSTD 0000001000+00001753+00000+0001T   00001753+0000001516          1400 G49205               3AZ
160540002160540077-000310     160540006001023608635GIFT-BAG 18X23CM GLOSS 0000001000+00001314+00000+0001T   00001314+0000001516          1400 G49112               3AZ
160541000160541               160541               170213GM     1400+00000+GM0000007848+0000007848+000000000+000001102+0000008950+0000000000+I40000008950+0000000000+Z
160541001160541112-116069     160541006003000535064TCS CARRIER BAG JUMBO  0000001000+00000048+00000+0001T   00000048+0000001518          1400 G49090               3AZ
160541002160541038-000205     160541006001926001205PLACE-MATS PVC ASSTD-C 0000002000+00001753+00000+0001T   00001753+0000001518          1400 G49300               3AZ
160541003160541038-001803     160541006001023766588DOILIES 17cm RND 18PC  0000001000+00001753+00000+0001T   00001753+0000001518          1400 G49300               3AZ
160541004160541077-000010-C   160541006001023123879CREPE-PAPER RED        0000001000+00000788+00000+0001T   00000788+0000001518          1400 G49112               3AZ
160541005160541108-004020     160541006003000667109PLATE PL 19cm DIA SET 20000001000+00001753+00000+0001T   00001753+0000001518          1400 G49210               3AZ
160542000160542               160542               170213GM     1400+00000+GM0000010522+0000010522+000000000+000001474+0000011990+0000000006+I20000000000+0000011990+Z
160542001160542039-081008     160542006008766081008CANDLES 9PCE SCENTED   0000001000+00002630+00000+0001T   00002630+0000001518          1400 G49510               3AZ
160542002160542567-011344     160542006003000630714BK COLOURING THERAPY 640000001000+00003507+00000+0001T   00003507+0000001518          1400 G49757               3AZ
160542003160542261-003901     160542006001023707451GUN SET PL POLICE+ACCES0000001000+00004385+00000+0001T   00004385+0000001518          1400 G49710               3AZ
160543000160543               160543               170213GM     1400+00000+GM0000007063+0000007063+000000000+000000990+0000008053+0000000000+I40000008053+0000000000+Z
160543001160543112-116069     160543006003000535064TCS CARRIER BAG JUMBO  0000001000+00000048+00000+0001T   00000048+0000001521          1400 G49090               3AZ
160543002160543159-003625     160543006001023902061TOILET-BRUSH W/STD 40cm0000001000+00005262+00000+0001T   00005262+0000001521          1400 G49200               3AZ
160543003160543027-001010     160543006001023171481FEATHER-DUSTER PL-HNDLE0000001000+00001753+00000+0001T   00001753+0000001521          1400 G49212               3AZ
160544000160544               160544               170213GM     1400+00000+GM0000001753+0000001753+000000000+000000246+0000001990+0000000009+I20000000000+0000001990+Z
160544001160544077-000299-A   160544006003000670888GIFT-BAG PAPER JMB LOVE0000001000+00001753+00000+0001T   00001753+0000001523          1400 G49112               3AZ
160545000160545               160545               170213GM     1400+00000+GM0000012327+0000012327+000000000+000001727+0000014054+0000000000+I40000014054+0000000000+Z
160545001160545112-116069     160545006003000535064TCS CARRIER BAG JUMBO  0000001000+00000048+00000+0001T   00000048+0000001531          1400 G49090               3AZ
160545002160545368-000111     160545006001023780812PLUSH BEAR/DOG 29CM    0000001000+00012279+00000+0001T   00012279+0000001531          1400 G49745               3AZ
160546000160546               160546               170213GM     1400+00000+GM0000003507+0000003507+000000000+000000491+0000003998+0000000000+I40000003998+0000000000+Z
160546001160546065-000053     160546006001023756879MUSICAL HAMMER         0000001000+00003507+00000+0001T   00003507+0000001535          1400 G49745               3AZ
160547000160547               160547               170213GM     1400+00000+GM0000006184+0000006184+000000000+000000867+0000007050+0000000001+I20000000000+0000007050+Z
160547001160547018-000136     160547006001023659026MUG OCC LOVE W/PLUSH   0000001000+00003507+00000+0001T   00003507+0000001537          1400 G49515               3AZ
160547002160547077-000309     160547006001023608604GIFT-BAG 25X32CM GLOSS 0000001000+00001753+00000+0001T   00001753+0000001537          1400 G49112               3AZ
160547003160547903-000503     160547006001704006118SWT VAMPIRE FANGS 60G  0000001000+00000876+00000+0001T   00000876+0000001537          1400 G49150               3AZ
160547004160547112-116069     160547006003000535064TCS CARRIER BAG JUMBO  0000001000+00000048+00000+0001T   00000048+0000001537          1400 G49090               3AZ
160548000160548               160548               170213GM     1400+00000+GM0000008331+0000008331+000000000+000001167+0000009498+0000000000+I40000009498+0000000000+Z
160548001160548077-000463     160548006003000321698G/BAG GLITTER MED20x28 0000001000+00002192+00000+0001T   00002192+0000001540          1400 G49112               3AZ
160548002160548018-050000     160548006003000412679MUG OCC LOVE TWIN BEAR 0000001000+00006139+00000+0001T   00006139+0000001540          1400 G49515               3AZ
160549000160549               160549               170213GM     1400+00000+GM0000001139+0000001139+000000000+000000160+0000001290+0000000009+I20000000000+0000001290+Z
160549001160549903-000698     160549006002099007032SWT CANDY ECLAIRS 90g  0000001000+00001139+00000+0001T   00001139+0000001540          1400 G49150               3AZ
160550000160550               160550               170213GM     1400+00000+GM0000001314+0000001314+000000000+000000184+0000001490+0000000008+I20000000000+0000001490+Z
160550001160550903-004950     160550006002580020304SWT APRICOT SURPRISE   0000001000+00001314+00000+0001T   00001314+0000001542          1400 G49150               3AZ
160551000160551               160551               170213GM     1400+00000+GM0000033850+0000033850+000000000+000004746+0000038590+0000000006+I20000000000+0000038590+Z
160551001160551077-000115     160551006001023834225WRAP METALLIC 700mmx1m 0000002000+00001753+00000+0001T   00001753+0000001546          1400 G49112               3AZ
160551002160551077-000151     160551006008766114676GIFT-WRAP C/PHANE ASSTD0000003000+00000876+00000+0001T   00000876+0000001546          1400 G49112               3AZ
160551003160551133-000086     160551006003000221929D/CLOTHS CTN 65g PK-3  0000001000+00007893+00000+0001T   00007893+0000001546          1400 G49212               3AZ
160551004160551077-000303     160551006001023593757GIFT-BAG PAPER MED     0000001000+00001578+00000+0001T   00001578+0000001546          1400 G49112               3AZ
160551005160551103-000089     160551006003000676330BASKET BASKET SQUARE   0000001000+00003069+00000+0001T   00003069+0000001546          1400 G49300               3AZ
160551006160551046-000012-A   160551006003000208296BATTERIES H/POWER SZ:AA0000001000+00002192+00000+0001T   00002192+0000001546          1400 G49312               3AZ
160551007160551103-000474     160551006003000630363BAMBOO FLOWER BASKET   0000002000+00005262+00000+0001T   00005262+0000001546          1400 G49300               3AZ
160551008160551077-000010-C   160551006001023123879CREPE-PAPER RED        0000003000+00000788+00000+0001T   00000788+0000001546          1400 G49112               3AZ
160551009160551112-116069     160551006003000535064TCS CARRIER BAG JUMBO  0000002000+00000048+00000+0001T   00000048+0000001546          1400 G49090               3AZ
160552000160552               160552               170213GM     1400+00000+GM0000000876+0000000876+000000000+000000123+0000000990+0000000009+I20000000000+0000000990+Z
160552001160552084-001598     160552006003000576609FOOT FILE PL 22cm      0000001000+00000876+00000+0001T   00000876+0000001547          1400 G49200               3AZ
160553000160553               160553               170213GM     1400+00000+GM0000009115+0000009115+000000000+000001278+0000010390+0000000003+I20000000000+0000010390+Z
160553001160553006-000190     160553006003000685530BALLOONS LOVE 81x91cm  0000001000+00004385+00000+0001T   00004385+0000001547          1400 G49131               3AZ
160553002160553006-000166-D   160553006003000516490BALLOONS LRG 6PC RED   0000001000+00001314+00000+0001T   00001314+0000001547          1400 G49131               3AZ
160553003160553006-000166-H   160553006003000608096BALLOONS HELIUM 6PC WHT0000001000+00001314+00000+0001T   00001314+0000001547          1400 G49131               3AZ
160553004160553079-009702-D   160553008427973059354PAPER SIRIO A2 RED COL 0000002000+00001051+00000+0001T   00001051+0000001547          1400 G49130               3AZ
160554000160554               160554               170213GM     1400+00000+GM0000007536+0000007536+000000000+000001057+0000008590+0000000003+I20000000000+0000008590+Z
160554001160554206-000450     160554006003000619863DRINKING JAR GLOBE     0000001000+00002630+00000+0001T   00002630+0000001548          1400 G49321               3AZ
160554002160554077-000381     160554006003000247707GIFT-BAG 25X32CM S/COL 0000001000+00001753+00000+0001T   00001753+0000001548          1400 G49112               3AZ
160554003160554903-005000     160554006002580020007SWT CT MALLOW FISH 120g0000001000+00001314+00000+0001T   00001314+0000001548          1400 G49150               3AZ
160554004160554903-000844     160554005010478432567SWT CANDY DL LUV HEARTS0000001000+00001314+00000+0001T   00001314+0000001548          1400 G49150               3AZ
160554005160554903-000077     160554006939873501687SWT GS MAGIC ROCK FRUIT0000001000+00000525+00000+0001T   00000525+0000001548          1400 G49150               3AZ
160555000160555               160555               170213GM     1400+00000+GM0000009688+0000009688+000000000+000001358+0000011046+0000000000+I40000011046+0000000000+Z
160555001160555077-000290     160555006001023902023GIFT BOX 26x32x13cm    0000001000+00001753+00000+0001T   00001753+0000001550          1400 G49112               3AZ
160555002160555112-116069     160555006003000535064TCS CARRIER BAG JUMBO  0000001000+00000048+00000+0001T   00000048+0000001550          1400 G49090               3AZ
160555003160555077-000316     160555006001023609731GIFT-BAG 25X32CM MATT  0000001000+00001753+00000+0001T   00001753+0000001550          1400 G49112               3AZ
160555004160555006-000167-F   160555006003000517411BALLOONS SILV METALLIC 0000001000+00001314+00000+0001T   00001314+0000001550          1400 G49131               3AZ
160555005160555006-000166-D   160555006003000516490BALLOONS LRG 6PC RED   0000001000+00001314+00000+0001T   00001314+0000001550          1400 G49131               3AZ
160555006160555903-000844     160555005010478432567SWT CANDY DL LUV HEARTS0000001000+00001314+00000+0001T   00001314+0000001550          1400 G49150               3AZ
160555007160555080-000127     160555006003000424351VALENTINES DAY 36x24CM 0000001000+00002192+00000+0001T   00002192+0000001550          1400 G49112               3AZ
160556000160556               160556               170213GM     1400+00000+GM0000003069+0000003069+000000000+000000430+0000003490+0000000009+I20000000000+0000003490+Z
160556001160556038-092233     160556006003000328925TABLE-MAT N/SLIP ASST  0000001000+00003069+00000+0001T   00003507+0008191550          1400 G49300               3AZ
160557000160557               160557               170213GM     1400+00000+GM0000005044+0000005044+000000000+000000708+0000005750+0000000002+I20000000000+0000005750+Z
160557001160557105-001005     160557006001023858214CONTAINERS MINI 6PCE   0000002000+00001402+00000+0001T   00001402+0000001551          1400 G49210               3AZ
160557002160557033-005907     160557006003000433506SHOE LACES 4-PAIR SET  0000001000+00002192+00000+0001T   00002192+0000001551          1400 G49200               3AZ
160557003160557112-116069     160557006003000535064TCS CARRIER BAG JUMBO  0000001000+00000048+00000+0001T   00000048+0000001551          1400 G49090               3AZ
160558000160558               160558               170213GM     1400+00000+GM0000008806+0000008806+000000000+000001233+0000010039+0000000000+I40000010039+0000000000+Z
160558001160558001-091415     160558006003000329113W/GLS OCC. LOVE 2PC 2800000001000+00008771+00000+0001T   00009648+0006471553          1400 G49515               3AZ
160558002160558112-116038     160558006003000534906TCS CARRIER BAG MIDI   0000001000+00000035+00000+0001T   00000035+0000001553          1400 G49090               3AZ
160559000160559               160559               170213GM     1400+00000+GM0000007014+0000007014+000000000+000000982+0000007990+0000000006+I20000000000+0000007990+Z
160559001160559048-000870     160559006003000525287LANTERN B/LIGHT MINI   0000002000+00003507+00000+0001T   00003507+0000001553          1400 G49305               3AZ
160560000160560               160560               170213GM     1400+00000+GM0000026358+0000026358+000000000+000003692+0000030050+0000000000+I20000000000+0000030050+Z
160560001160560006-000345     160560006003000677726GLOW STICKS 50x19.5cm  0000005000+00005262+00000+0001T   00005262+0000001555          1400 G49131               3AZ
160560002160560112-116069     160560006003000535064TCS CARRIER BAG JUMBO  0000001000+00000048+00000+0001T   00000048+0000001555          1400 G49090               3AZ
160561000160561               160561               170213GM     1400+00000+GM0000005259+0000005259+000000000+000000738+0000005997+0000000000+I40000005997+0000000000+Z
160561001160561264-000921     160561000090159150442MAISTO CAR 3" FRESH    0000003000+00001753+00000+0001T   00001753+0000001556          1400 G49710               3AZ
160562000160562               160562               170213GM     1400+00000+GM0000005260+0000005260+000000000+000000738+0000005998+0000000000+I40000005998+0000000000+Z
160562001160562466-000515     160562006001023477408BALLS TENNIS BAG-OF-3  0000002000+00002630+00000+0001T   00002630+0000001558          1400 G49785               3AZ
160563000160563               160563               170213GM     1400+00000+GM0000003507+0000003507+000000000+000000491+0000003990+0000000008+I20000000000+0000003990+Z
160563001160563203-007000     160563006001023886040SHOT-GLASS DISPOSABLE  0000001000+00003507+00000+0001T   00003507+0000001558          1400 G49300               3AZ
160564000160564               160564               170213GM     1400+00000+GM0000007939+0000007939+000000000+000001113+0000009050+0000000002+I20000000000+0000009050+Z
160564001160564077-000358     160564006003000329977GIFT-BAG KIDS 25X32CM  0000001000+00001753+00000+0001T   00001753+0000001559          1400 G49112               3AZ
160564002160564001-000175     160564006001023788108B/MUG GLS LOVE 380ML   0000001000+00004385+00000+0001T   00004385+0000001559          1400 G49515               3AZ
160564003160564080-000113     160564006003000237449CARD&ENVLPE - LOVE     0000001000+00001753+00000+0001T   00001753+0000001559          1400 G49112               3AZ
160564004160564112-116069     160564006003000535064TCS CARRIER BAG JUMBO  0000001000+00000048+00000+0001T   00000048+0000001559          1400 G49090               3AZ
160565000160565               160565               170213GM     1400+00000+GM0000008771+0000008771+000000000+000001228+0000009999+0000000000+I40000009999+0000000000+Z
160565001160565001-091415     160565006003000329113W/GLS OCC. LOVE 2PC 2800000001000+00008771+00000+0001T   00009648+0006471601          1400 G49515               3AZ
160566000160566               160566               170213GM     1400+00000+GM0000003507+0000003507+000000000+000000491+0000003990+0000000008+I20000000000+0000003990+Z
160566001160566031-000923     160566006001023669933P/FRAME BLK W/WORDS    0000001000+00003507+00000+0001T   00003507+0000001601          1400 G49510               3AZ
160567000160567               160567               170213GM     1400+00000+GM0000015828+0000015828+000000000+000002221+0000018049+0000000000+I40000018049+0000000000+Z
160567001160567112-116069     160567006003000535064TCS CARRIER BAG JUMBO  0000001000+00000048+00000+0001T   00000048+0000001603          1400 G49090               3AZ
160567002160567200-000114     160567006003000621545PICNIC CUPS PAPER 90ml 0000003000+00002630+00000+0001T   00002630+0000001603          1400 G49214               3AZ
160567003160567039-000100     16056700600300060614625CM WHITE CANDLE 6PC  0000003000+00002630+00000+0001T   00002630+0000001603          1400 G49510               3AZ
160568000160568               160568               170213GM     1400+00000+GM0000002192+0000002192+000000000+000000307+0000002499+0000000000+I40000002499+0000000000+Z
160568001160568015-000110     160568006001023854889WHITEWARE MUG 350ML    0000001000+00002192+00000+0001T   00002192+0000001604          1400 G49515               3AZ
160569000160569               160569               170213GM     1400+00000+GM0000001753+0000001753+000000000+000000246+0000001990+0000000009+I20000000000+0000001990+Z
160569001160569077-000472     160569006003000330133G-BAG DESGNR LRG 25X32 0000001000+00001753+00000+0001T   00001753+0000001604          1400 G49112               3AZ
160570000160570               160570               170213GM     1400+00000+GM0000012279+0000012279+000000000+000001720+0000013990+0000000009+I20000000000+0000013990+Z
160570001160570368-000111     160570006001023780812PLUSH BEAR/DOG 29CM    0000001000+00012279+00000+0001T   00012279+0000001605          1400 G49745               3AZ
160571000160571               160571               170213GM     1400+00000+GM0000001227+0000001227+000000000+000000172+0000001390+0000000009+I20000000000+0000001390+Z
160571001160571002-021042     160571006001023621801TOOTHPICKS 250PCE      0000001000+00001227+00000+0001T   00001227+0000001606          1400 G49300               3AZ
160572000160572               160572               170213GM     1400+00000+GM0000006487+0000006487+000000000+000000909+0000007390+0000000006+I20000000000+0000007390+Z
160572001160572018-000136     160572006001023659026MUG OCC LOVE W/PLUSH   0000001000+00003507+00000+0001T   00003507+0000001607          1400 G49515               3AZ
160572002160572077-000303     160572006001023593757GIFT-BAG PAPER MED     0000001000+00001578+00000+0001T   00001578+0000001607          1400 G49112               3AZ
160572003160572304-001204     160572006001023737984FLOWER OCC. TEDDY/ROSES0000001000+00001402+00000+0001T   00001490+0006471607          1400 G49510               3AZ
160573000160573               160573               170213GM     1400+00000+GM0000005259+0000005259+000000000+000000738+0000005997+0000000000+I40000005997+0000000000+Z
160573001160573077-000316     160573006001023609731GIFT-BAG 25X32CM MATT  0000003000+00001753+00000+0001T   00001753+0000001608          1400 G49112               3AZ
160574000160574               160574               170213GM     1400+00000+GM0000007100+0000007100+000000000+000000994+0000008094+0000000000+I40000008094+0000000000+Z
160574001160574564-000012     160574006001023130075BUBBLE BOTTLE MAGIC    0000002000+00000700+00000+0001T   00000700+0000001610          1400 G49131               3AZ
160574002160574075-000412     160574006001023855299SHOPPER-BASKET PL      0000001000+00005700+00000+0001T   00005700+0000001610          1400 G49160               3AZ
160575000160575               160575               170213GM     1400+00000+GM0000012009+0000012009+000000000+000001686+0000013690+0000000005+I20000000000+0000013690+Z
160575001160575112-116069     160575006003000535064TCS CARRIER BAG JUMBO  0000001000+00000048+00000+0001T   00000048+0000001611          1400 G49090               3AZ
160575002160575103-000459     160575006003000630929FLOWER BASKET ASSORTED 0000001000+00003507+00000+0001T   00003507+0000001611          1400 G49300               3AZ
160575003160575903-000137     160575006002099004130SWEET GS JELLY BEAN 60G0000001000+00000788+00000+0001T   00000788+0000001611          1400 G49150               3AZ
160575004160575903-000095     160575006001704011495SWT SPECKLED-EGGS 100G 0000001000+00002104+00000+0001T   00002104+0000001611          1400 G49150               3AZ
160575005160575903-000221     160575006001704007382SWT EENY-MEENY-MOS 60G 0000001000+00000876+00000+0001T   00000876+0000001611          1400 G49150               3AZ
160575006160575903-000520     160575006001704009898SWT GUMMY MINI SOUR 60g0000001000+00000876+00000+0001T   00000876+0000001611          1400 G49150               3AZ
160575007160575903-000011     160575006002099007315SWT MALLOW CHOC 15G    0000001000+00000437+00000+0001T   00000437+0000001611          1400 G49150               3AZ
160575008160575903-000909     160575006009802868317SWT YOYO LOONEY TUNES  0000001000+00001753+00000+0001T   00001753+0000001611          1400 G49150               3AZ
160575009160575903-000670     160575006009803358008SWT SHERBET RED LIPS   0000001000+00000218+00000+0001T   00000218+0000001611          1400 G49150               3AZ
160575010160575903-000925     160575006009706300296SWT NOVELTY SURPRISE   0000001000+00001402+00000+0001T   00001402+0000001611          1400 G49150               3AZ
160576000160576               160576               170213GM     1400+00000+GM0000003502+0000003502+000000000+000000493+0000003990+0000000005+I20000000000+0000003990+Z
160576001160576903-000670     160576006009803358008SWT SHERBET RED LIPS   0000004000+00000218+00000+0001T   00000218+0000001612          1400 G49150               3AZ
160576002160576306-001618     160576006003000571574INNER SOLES 2-PAIR KIDS0000001000+00002630+00000+0001T   00002630+0000001612          1400 G49200               3AZ
160577000160577               160577               170213GM     1400+00000+GM0000004424+0000004424+000000000+000000621+0000005045+0000000000+I40000005045+0000000000+Z
160577001160577077-000902     160577006003000410569G/WRAP 700mmx1m BBY/KID0000001000+00001753+00000+0001T   00001753+0000001615          1400 G49112               3AZ
160577002160577071-001102     160577006003000274598MARKER PERM MED 2PCE   0000001000+00001753+00000+0001T   00001753+0000001615          1400 G49130               3AZ
160577003160577079-009700-D   160577006003000545711PAPER SIRIO A4 RED COL.0000002000+00000306+00000+0001T   00000306+0000001615          1400 G49130               3AZ
160577004160577079-009700-B   160577006003000547661PAPER SIRIO A4 WHITE   0000001000+00000306+00000+0001T   00000306+0000001615          1400 G49130               3AZ
160578000160578               160578               170213GM     1400+00000+GM0000004769+0000004769+000000000+000000668+0000005437+0000000000+I40000005437+0000000000+Z
160578001160578301-085004     160578006003000420469ORN LOVE PLAQUE 21X10CM0000001000+00003507+00000+0001T   00003946+0006471619          1400 G49505               3AZ
160578002160578080-000501     160578006003000395668GREETING CARD DIY SET  0000001000+00001227+00000+0001T   00001227+0000001619          1400 G49112               3AZ
160578003160578112-116038     160578006003000534906TCS CARRIER BAG MIDI   0000001000+00000035+00000+0001T   00000035+0000001619          1400 G49090               3AZ
160579000160579               160579               170213GM     1400+00000+GM0000008365+0000008365+000000000+000001172+0000009530+0000000007+I20000000000+0000009530+Z
160579001160579112-116038     160579006003000534906TCS CARRIER BAG MIDI   0000001000+00000035+00000+0001T   00000035+0000001620          1400 G49090               3AZ
160579002160579301-085001     160579006003000297610ORN WATERBALL LOVE ASST0000001000+00004823+00000+0001T   00004823+0000001620          1400 G49505               3AZ
160579003160579018-000136     160579006001023659026MUG OCC LOVE W/PLUSH   0000001000+00003507+00000+0001T   00003507+0000001620          1400 G49515               3AZ
160580000160580               160580               170213GM     1400+00000+GM0000007063+0000007063+000000000+000000990+0000008050+0000000003+I20000000000+0000008050+Z
160580001160580112-116069     160580006003000535064TCS CARRIER BAG JUMBO  0000001000+00000048+00000+0001T   00000048+0000001621          1400 G49090               3AZ
160580002160580016-006501     160580006001023429285S/JAR GLS HERMETICO    0000001000+00005262+00000+0001T   00005262+0000001621          1400 G49300               3AZ
160580003160580077-000382     160580006003000247820GIFT-BAG MED 18X23CM   0000001000+00001753+00000+0001T   00001753+0000001621          1400 G49112               3AZ
160581000160581               160581               170213GM     1400+00000+GM0000003946+0000003946+000000000+000000553+0000004490+0000000009+I20000000000+0000004490+Z
160581001160581368-000152     160581006003000166886PLUSH BEAR 15cm        0000001000+00003946+00000+0001T   00005262+0008141624          1400 G49745               3AZ
160582000160582               160582               170213GM     1400+00000+GM0000003542+0000003542+000000000+000000496+0000004030+0000000008+I20000000000+0000004030+Z
160582001160582020-000209     160582006001023899989KNIFE-SET 8PC W/CUTTING0000001000+00003507+00000+0001T   00004385+0008121627          1400 G49300               3AZ
160582002160582112-116038     160582006003000534906TCS CARRIER BAG MIDI   0000001000+00000035+00000+0001T   00000035+0000001627          1400 G49090               3AZ
160583000160583               160583               170213GM     1400+00000+GM0000012582+0000012582+000000000+000001766+0000014340+0000000008+I20000000000+0000014340+Z
160583001160583018-000129     160583006001023403353MUG OCC. LOVE V-SHAPE  0000001000+00002630+00000+0001T   00002630+0000001628          1400 G49515               3AZ
160583002160583206-000310     160583006003000632787BOTTLE-STOPPER SILICONE0000001000+00002630+00000+0001T   00002630+0000001628          1400 G49321               3AZ
160583003160583077-000010-C   160583006001023123879CREPE-PAPER RED        0000001000+00000788+00000+0001T   00000788+0000001628          1400 G49112               3AZ
160583004160583077-000010-D   160583006001023123886CREPE-PAPER WHITE      0000001000+00000788+00000+0001T   00000788+0000001628          1400 G49112               3AZ
160583005160583206-000150     160583006003000628667SLICER CUCUMBER        0000001000+00002192+00000+0001T   00002192+0000001628          1400 G49321               3AZ
160583006160583206-000120     160583006003000628308PEELER CARROT SHARPENER0000001000+00001753+00000+0001T   00001753+0000001628          1400 G49321               3AZ
160583007160583206-000135     160583006003000680450T/BAG HLDR SILICONE    0000001000+00001753+00000+0001T   00001753+0000001628          1400 G49321               3AZ
160583008160583112-116069     160583006003000535064TCS CARRIER BAG JUMBO  0000001000+00000048+00000+0001T   00000048+0000001628          1400 G49090               3AZ
160584000160584               160584               170213GM     1400+00000+GM0000001490+0000001490+000000000+000000209+0000001690+0000000009+I20000000000+0000001690+Z
160584001160584306-000969     160584006003000559350FIRSTAID PLASTER 10PC  0000001000+00001490+00000+0001T   00001490+0000001629          1400 G49200               3AZ
160585000160585               160585               170213GM     1400+00000+GM0000004557+0000004557+000000000+000000640+0000005190+0000000007+I20000000000+0000005190+Z
160585001160585077-000299-A   160585006003000670888GIFT-BAG PAPER JMB LOVE0000001000+00001753+00000+0001T   00001753+0000001631          1400 G49112               3AZ
160585002160585304-001204     160585006001023737984FLOWER OCC. TEDDY/ROSES0000002000+00001402+00000+0001T   00001490+0006471631          1400 G49510               3AZ
160586000160586               160586               170213GM     1400+00000+GM0000001227+0000001227+000000000+000000172+0000001390+0000000009+I20000000000+0000001390+Z
160586001160586080-000501     160586006003000395668GREETING CARD DIY SET  0000001000+00001227+00000+0001T   00001227+0000001632          1400 G49112               3AZ
160587000160587               160587               170213GM     1400+00000+GM0000013198+0000013198+000000000+000001850+0000015040+0000000008+I20000000000+0000015040+Z
160587001160587112-116069     160587006003000535064TCS CARRIER BAG JUMBO  0000001000+00000048+00000+0001T   00000048+0000001635          1400 G49090               3AZ
160587002160587077-000011-E   160587006001023808646TISSUE-WRAP PINK 10PCE 0000001000+00000876+00000+0001T   00000876+0000001635          1400 G49112               3AZ
160587003160587018-030000     160587006003000421060MUG OCCASIONS LOVE 2PCE0000001000+00004385+00000+0001T   00004385+0000001635          1400 G49515               3AZ
160587004160587263-000506     160587006001023790231CAR SET 3PK CONSTRUCT  0000001000+00003507+00000+0001T   00003507+0000001635          1400 G49710               3AZ
160587005160587031-000878-A   160587006001023798985P/FRAME 10x15cm PL-SLID0000001000+00000876+00000+0001T   00000876+0000001635          1400 G49510               3AZ
160587006160587031-005820     160587006001023667816P/FRAME-CLIP 15X20CM   0000002000+00001753+00000+0001T   00001753+0000001635          1400 G49510               3AZ
160588000160588               160588               170213GM     1400+00000+GM0000000526+0000000526+000000000+000000074+0000000600+0000000000+I20000000000+0000000600+Z
160588001160588080-000501     160588006003000395668GREETING CARD DIY SET  0000001000-00001227+00000+0001T   00001227+0000001638          1400 G491121IC            3 Z
160588002160588080-000113     160588006003000237449CARD&ENVLPE - LOVE     0000001000+00001753+00000+0001T   00001753+0000001638          1400 G49112               3AZ
160589000160589               160589               170213GM     1400+00000+GM0000005262+0000005262+000000000+000000737+0000005999+0000000000+I40000005999+0000000000+Z
160589001160589366-000125     160589006003000006786DRESSUP WINGS/WAND/BAND0000001000+00005262+00000+0001T   00005262+0000001639          1400 G49131               3AZ
160590000160590               160590               170213GM     1400+00000+GM0000008819+0000008819+000000000+000001235+0000010054+0000000000+I40000010054+0000000000+Z
160590001160590112-116069     160590006003000535064TCS CARRIER BAG JUMBO  0000001000+00000048+00000+0001T   00000048+0000001640          1400 G49090               3AZ
160590002160590031-000924     160590006001023669964P/FRAME COLLAGE PL     0000001000+00008771+00000+0001T   00008771+0000001640          1400 G49510               3AZ
160591000160591               160591               170213GM     1400+00000+GM0000010255+0000010255+000000000+000001437+0000011692+0000000000+I40000011692+0000000000+Z
160591001160591077-000310     160591006001023608635GIFT-BAG 18X23CM GLOSS 0000001000+00001314+00000+0001T   00001314+0000001642          1400 G49112               3AZ
160591002160591566-000359     160591006003000582709STICKER BOOK LOVE SPARK0000001000+00002192+00000+0001T   00002192+0000001642          1400 G49130               3AZ
160591003160591079-013032-C   160591006003000389520POLY SHAPES            0000001000+00001578+00000+0001T   00001578+0000001642          1400 G49130               3AZ
160591004160591206-000100     160591006003000628063TONGS ICE COLD FINGERS 0000001000+00002192+00000+0001T   00002192+0000001642          1400 G49321               3AZ
160591005160591077-000455     160591006003000285389G/BAG METALLIC LRG SOL 0000001000+00001753+00000+0001T   00001753+0000001642          1400 G49112               3AZ
160591006160591565-000044     160591006003000128280BARREL OF SLIME 100g   0000002000+00000613+00000+0001T   00000613+0000001642          1400 G49745               3AZ
160592000160592               160592               170213GM     1400+00000+GM0000003331+0000003331+000000000+000000467+0000003790+0000000008+I20000000000+0000003790+Z
160592001160592566-000506     160592006001023671455TATTOO BODY STICKER    0000001000+00001578+00000+0001T   00001578+0000001642          1400 G49130               3AZ
160592002160592366-006104     160592006003000616930DRESS UP FACE PAINT    0000001000+00001753+00000+0001T   00001753+0000001642          1400 G49131               3AZ
160593000160593               160593               170213GM     1400+00000+GM0000002541+0000002541+000000000+000000356+0000002890+0000000007+I20000000000+0000002890+Z
160593001160593006-000166-D   160593006003000516490BALLOONS LRG 6PC RED   0000001000+00001314+00000+0001T   00001314+0000001642          1400 G49131               3AZ
160593002160593077-000245     160593006001023759214GIFT-RIBBON METALLICx2 0000001000+00001227+00000+0001T   00001227+0000001642          1400 G49112               3AZ
160594000160594               160594               170213GM     1400+00000+GM0000022852+0000022852+000000000+000003200+0000026052+0000000000+I40000026052+0000000000+Z
160594001160594112-116069     160594006003000535064TCS CARRIER BAG JUMBO  0000001000+00000048+00000+0001T   00000048+0000001644          1400 G49090               3AZ
160594002160594031-000924     160594006001023669964P/FRAME COLLAGE PL     0000002000+00008771+00000+0001T   00008771+0000001644          1400 G49510               3AZ
160594003160594031-006541     160594006001023695062P/FRAME COLLAGE PL ASST0000001000+00005262+00000+0001T   00005262+0000001644          1400 G49510               3AZ
160595000160595               160595               170213GM     1400+00000+GM0000001753+0000001753+000000000+000000246+0000001990+0000000009+I20000000000+0000001990+Z
160595001160595080-000113     160595006003000237449CARD&ENVLPE - LOVE     0000001000+00001753+00000+0001T   00001753+0000001644          1400 G49112               3AZ
160596000160596               160596               170213GM     1400+00000+GM0000001801+0000001801+000000000+000000253+0000002050+0000000004+I20000000000+0000002050+Z
160596001160596077-000316     160596006001023609731GIFT-BAG 25X32CM MATT  0000001000+00001753+00000+0001T   00001753+0000001646          1400 G49112               3AZ
160596002160596112-116069     160596006003000535064TCS CARRIER BAG JUMBO  0000001000+00000048+00000+0001T   00000048+0000001646          1400 G49090               3AZ
160597000160597               160597               170213GM     1400+00000+GM0000003507+0000003507+000000000+000000491+0000003990+0000000008+I20000000000+0000003990+Z
160597001160597366-002803     160597006003000531875DRESS UP POMPOM 2PC SET0000001000+00003507+00000+0001T   00003507+0000001647          1400 G49131               3AZ
160598000160598               160598               170213GM     1400+00000+GM0000008817+0000008817+000000000+000001235+0000010052+0000000000+I40000010052+0000000000+Z
160598001160598162-097718     160598006001492977188#TAG CHARM BRACELET    0000001000+00003507+00000+0001T   00003507+0000001649          1400 G49160               3AZ
160598002160598366-000125     160598006003000006786DRESSUP WINGS/WAND/BAND0000001000+00005262+00000+0001T   00005262+0000001649          1400 G49131               3AZ
160598003160598112-116069     160598006003000535064TCS CARRIER BAG JUMBO  0000001000+00000048+00000+0001T   00000048+0000001649          1400 G49090               3AZ
160599000160599               160599               170213GM     1400+00000+GM0000001490+0000001490+000000000+000000209+0000001699+0000000000+I40000001699+0000000000+Z
160599001160599106-008105     160599006009654960566S/DRESSING BOTTLE 500ml0000001000+00001490+00000+0001T   00001490+0000001650          1400 G49210               3AZ
160600000160600               160600               170213GM     1400+00000+GM0000002630+0000002630+000000000+000000369+0000002999+0000000000+I40000002999+0000000000+Z
160600001160600072-020312     160600006003000605330PET TOY PUP STARTER PCK0000001000+00002630+00000+0001T   00002630+0000001652          1400 G49870               3AZ
160601000160601               160601               170213GM     1400+00000+GM0000004857+0000004857+000000000+000000681+0000005538+0000000000+I40000005538+0000000000+Z
160601001160601031-006534     160601006001023995896P/FRAME AUTO 10x15cm   0000001000+00001753+00000+0001T   00001753+0000001654          1400 G49510               3AZ
160601002160601089-000220     160601006003000677368KEY CHAIN+PEN+KNIFE    0000001000+00003069+00000+0001T   00003069+0000001654          1400 G49205               3AZ
160601003160601112-116038     160601006003000534906TCS CARRIER BAG MIDI   0000001000+00000035+00000+0001T   00000035+0000001654          1400 G49090               3AZ
160602000160602               160602               170213GM     1400+00000+GM0000005700+0000005700+000000000+000000798+0000006490+0000000008+I20000000000+0000006490+Z
160602001160602075-000412     160602006001023855299SHOPPER-BASKET PL      0000001000+00005700+00000+0001T   00005700+0000001654          1400 G49160               3AZ
160603000160603               160603               170213GM     1400+00000+GM0000001530+0000001530+000000000+000000215+0000001740+0000000005+I20000000000+0000001740+Z
160603001160603079-009700-D   160603006003000545711PAPER SIRIO A4 RED COL.0000005000+00000306+00000+0001T   00000306+0000001655          1400 G49130               3AZ
160604000160604               160604               170213GM     1400+00000+GM0000001753-0000001753-000000000+000000246-0000002000-0000000001+I20000000000+0000002000-Z
160604001160604080-000113     160604006003000237449CARD&ENVLPE - LOVE     0000001000-00001753+00000+0001T   00001753+0000001657          1400 G491121IC            3 Z
160605000160605               160605               170213GM     1400+00000+GM0000002630+0000002630+000000000+000000369+0000002999+0000000000+I40000002999+0000000000+Z
160605001160605304-000720     160605006001023843050F/BUNCH ROSE 6-HEAD AST0000001000+00002630+00000+0001T   00002630+0000001704          1400 G49510               3AZ
160606000160606               160606               170213GM     1400+00000+GM0000012323+0000012323+000000000+000001728+0000014050+0000000001+I20000000000+0000014050+Z
160606001160606112-116069     160606006003000535064TCS CARRIER BAG JUMBO  0000001000+00000048+00000+0001T   00000048+0000001707          1400 G49090               3AZ
160606003160606466-000515     160606006001023477408BALLS TENNIS BAG-OF-3  0000001000+00002630+00000+0001T   00002630+0000001707          1400 G49785               3AZ
160606004160606072-020354     160606006001023649980DOG/CAT-BOWL LARGE     0000001000+00002630+00000+0001T   00002630+0000001707          1400 G49870               3AZ
160606005160606072-020309     160606006001023700995DOG-TOY DUMBELL F/BALL 0000001000+00002630+00000+0001T   00002630+0000001707          1400 G49870               3AZ
160606006160606072-020262     160606006003000305254PET DOG-CHEW TYRE LARGE0000001000+00004385+00000+0001T   00004385+0000001707          1400 G49870               3AZ
160607000160607               160607               170213GM     1400+00000+GM0000002192+0000002192+000000000+000000307+0000002490+0000000009+I20000000000+0000002490+Z
160607001160607018-000170     160607006001023775528MUG OCC. LOVE 2PC MINI 0000001000+00002192+00000+0001T   00002192+0000001709          1400 G49515               3AZ
160608000160608               160608               170213GM     1400+00000+GM0000005867+0000005867+000000000+000000824+0000006690+0000000001+I20000000000+0000006690+Z
160608001160608006-000120     160608006001023346889BALLOONS 10PC MIX COL  0000001000+00001753+00000+0001T   00001753+0000001712          1400 G49131               3AZ
160608002160608006-000172-G   160608006003000610167BALLOONS METALLIC SILV 0000002000+00000218+00000+0001T   00000218+0000001712          1400 G49131               3AZ
160608003160608006-001000     160608006003000093779HELIUM BALLOON FILL    0000006000+00000613+00000+0001T   00000613+0000001712          1400 G49131               3AZ
160609000160609               160609               170213GM     1400+00000+GM0000007014+0000007014+000000000+000000982+0000007996+0000000000+I40000007996+0000000000+Z
160609001160609082-098794     160609006001492987941SUNGLASS KIDS BOYS WRAP0000001000+00003507+00000+0001T   00003507+0000001721          1400 G49160               3AZ
160609002160609082-098791     160609006001492987910SUNGLASS KIDS BOYS     0000001000+00003507+00000+0001T   00003507+0000001721          1400 G49160               3AZ
160610000160610               160610               170213GM     1400+00000+GM0000001274+0000001274+000000000+000000179+0000001450+0000000003+I20000000000+0000001450+Z
160610001160610112-116069     160610006003000535064TCS CARRIER BAG JUMBO  0000001000+00000048+00000+0001T   00000048+0000001722          1400 G49090               3AZ
160610002160610304-001011     160610006001023806727FLWR ROSE RED W/BEAR   0000002000+00000613+00000+0001T   00000788+0006471722          1400 G49510               3AZ
160611000160611               160611               170213GM     1400+00000+GM0000007629+0000007629+000000000+000001069+0000008698+0000000000+I40000008698+0000000000+Z
160611001160611368-000104     160611006001023751348PLUSH BEAR RUFFLED-LOOK0000001000+00006139+00000+0001T   00006139+0000001724          1400 G49745               3AZ
160611002160611077-000304     160611006001023483232GIFT-BAG 25X32CM E/DAY 0000001000+00001490+00000+0001T   00001490+0000001724          1400 G49112               3AZ
160612000160612               160612               170213GM     1400+00000+GM0000032040+0000032040+000000000+000004489+0000036529+0000000000+I40000036529+0000000000+Z
160612001160612039-809558     160612006003000344376CANDLE PILLAR 12CM 4AST0000003000+00006139+00000+0001T   00006139+0000001730          1400 G49510               3AZ
160612002160612112-116038     160612006003000534906TCS CARRIER BAG MIDI   0000001000+00000035+00000+0001T   00000035+0000001730          1400 G49090               3AZ
160612003160612088-000103     160612006008766127102INCENSE 20PCE ASSTD    0000001000+00000700+00000+0001T   00000700+0000001730          1400 G49212               3AZ
160612004160612077-000380     160612006003000247585GIFT-BAG 33X45CM S/COL 0000001000+00002455+00000+0001T   00002455+0000001730          1400 G49112               3AZ
160612005160612368-000012     160612006003000610464PLUSH BEAR 30cm SITTING0000001000+00008771+00000+0001T   00008771+0000001730          1400 G49745               3AZ
160612006160612006-000173-C   160612006003000636518BALLOONS 1PC PINK      0000002000+00000218+00000+0001T   00000218+0000001730          1400 G49131               3AZ
160612007160612006-001000     160612006003000093779HELIUM BALLOON FILL    0000002000+00000613+00000+0001T   00000613+0000001730          1400 G49131               3AZ
160613000160613               160613               170213GM     1400+00000+GM0000011399+0000011399+000000000+000001597+0000012990+0000000006+I20000000000+0000012990+Z
160613001160613077-000299-A   160613006003000670888GIFT-BAG PAPER JMB LOVE0000001000+00001753+00000+0001T   00001753+0000001731          1400 G49112               3AZ
160613002160613018-005007     160613006003000515516MUG OCC. LOVE W/HEARTS 0000001000+00006139+00000+0001T   00006139+0000001731          1400 G49515               3AZ
160613003160613018-000136     160613006001023659026MUG OCC LOVE W/PLUSH   0000001000+00003507+00000+0001T   00003507+0000001731          1400 G49515               3AZ
160614000160614               160614               170213GM     1400+00000+GM0000001753+0000001753+000000000+000000246+0000001999+0000000000+I40000001999+0000000000+Z
160614001160614051-002407     160614006003000452491SPRAYER TRIGGER 550ml  0000001000+00001753+00000+0001T   00001753+0000001736          1400 G49820               3AZ
160615000160615               160615               170213GM     1400+00000+GM0000021532+0000021532+000000000+000003016+0000024548+0000000000+I40000024548+0000000000+Z
160615001160615077-000270     160615006003000395453GIFT-BAG PPR JMB 33X45 0000001000+00002630+00000+0001T   00002630+0000001740          1400 G49112               3AZ
160615002160615001-091415     160615006003000329113W/GLS OCC. LOVE 2PC 2800000001000+00008771+00000+0001T   00009648+0006471740          1400 G49515               3AZ
160615003160615031-005853     160615006003000442416P/FRAME WDN TWIN HEARTS0000001000+00003507+00000+0001T   00003507+0000001740          1400 G49510               3AZ
160615004160615566-000359     160615006003000582709STICKER BOOK LOVE SPARK0000001000+00002192+00000+0001T   00002192+0000001740          1400 G49130               3AZ
160615005160615080-000127     160615006003000424351VALENTINES DAY 36x24CM 0000002000+00002192+00000+0001T   00002192+0000001740          1400 G49112               3AZ
160615006160615112-116069     160615006003000535064TCS CARRIER BAG JUMBO  0000001000+00000048+00000+0001T   00000048+0000001740          1400 G49090               3AZ
160616000160616               160616               170213GM     1400+00000+GM0000008767+0000008767+000000000+000001229+0000009996+0000000000+I40000009996+0000000000+Z
160616001160616039-000673     160616006001023900500CANDLE WEDDING IN PVC  0000001000+00001314+00000+0001T   00001753+0008171741          1400 G49510               3AZ
160616002160616203-000006     160616006001023752789COASTER-SET 4PCE       0000001000+00007016+00000+0001T   00008771+0008191741          1400 G49300               3AZ
160616003160616080-000133-A   160616006003000647019MINI VALENTINES CARD   0000001000+00000437+00000+0001T   00000437+0000001741          1400 G49112               3AZ
