881098000881098               881098               170213GN     1400+00000+GN0000004385+0000004385+000000000+000000614+0000004990+0000000009+I20000000000+0000004990+Z
881098001881098082-000110     881098006003000360482READING GLS STRENGHT:2 0000001000+00004385+00000+0001T   00004385+0000000916          1400 UC6160               1AZ
881099000881099               881099               170213GN     1400+00000+GN0000000437+0000000437+000000000+000000062+0000000499+0000000000+I40000000499+0000000000+Z
881099001881099080-000133-A   881099006003000647019MINI VALENTINES CARD   0000001000+00000437+00000+0001T   00000437+0000001037          1400 UC6112               1AZ
881100000881100               881100               170213GN     1400+00000+GN0000002015+0000002015+000000000+000000283+0000002290+0000000008+I20000000000+0000002290+Z
881100001881100903-000087     881100006001704000161SWT SPECKLED-EGGS 50G  0000001000+00001139+00000+0001T   00001139+0000001039          1400 UC6150               1AZ
881100002881100903-000123     881100006925925909280SWEET GS MINI MALLOWS  0000001000+00000876+00000+0001T   00000876+0000001039          1400 UC6150               1AZ
881101000881101               881101               170213GN     1400+00000+GN0000000876+0000000876+000000000+000000123+0000000990+0000000009+I20000000000+0000000990+Z
881101001881101071-001019     881101006001023474513MARKER BLACK NAME-PEN  0000001000+00000876+00000+0001T   00000876+0000001049          1400 UC6130               1AZ
881102000881102               881102               170213GN     1400+00000+GN0000006186+0000006186+000000000+000000867+0000007050+0000000003+I20000000000+0000007050+Z
881102001881102024-007001     881102006002580007688CAKE/BISCUIT-SERVER    0000002000+00003069+00000+0001T   00003069+0000001050          1400 UC6300               1AZ
881102002881102112-116069     881102006009681820277TCS CARRIER BAG JUMBO  0000001000+00000048+00000+0001T   00000048+0000001050          1400 UC6090               1AZ
881103000881103               881103               170213GN     1400+00000+GN0000004996+0000004996+000000000+000000701+0000005690+0000000007+I20000000000+0000005690+Z
881103001881103565-000041     881103006008766115642NOVELTY BALL ICON 5.5cm0000001000+00002630+00000+0001T   00002630+0000001125          1400 UC6745               1AZ
881103002881103903-000123     881103006925925909280SWEET GS MINI MALLOWS  0000001000+00000876+00000+0001T   00000876+0000001125          1400 UC6150               1AZ
881103003881103077-000299     881103006003000395576G/BAG 32x25cm LRG LOVE 0000001000+00001490+00000+0001T   00001490+0000001125          1400 UC6112               1AZ
881104000881104               881104               170213GN     1400+00000+GN0000004206+0000004206+000000000+000000590+0000004790+0000000006+I20000000000+0000004790+Z
881104001881104077-000150-D   881104006003000054343GIFT-WRAP CELLPHANE CLR0000002000+00000876+00000+0001T   00000876+0000001146          1400 UC6112               1AZ
881104002881104077-000245     881104006001023759214GIFT-RIBBON METALLICx2 0000002000+00001227+00000+0001T   00001227+0000001146          1400 UC6112               1AZ
881105000881105               881105               170213GN     1400+00000+GN0000005085+0000005085+000000000+000000712+0000005797+0000000000+I40000005797+0000000000+Z
881105001881105301-085004     881105006003000420469ORN LOVE PLAQUE 21X10CM0000001000+00003507+00000+0001T   00003946+0006471149          1400 UC6505               1AZ
881105002881105080-000124     881105006003000297733CARD & ENV VALENTINES  0000001000+00001578+00000+0001T   00001578+0000001149          1400 UC6112               1AZ
881106000881106               881106               170213GN     1400+00000+GN0000002630+0000002630+000000000+000000369+0000002990+0000000009+I20000000000+0000002990+Z
881106001881106018-000129     881106006001023403353MUG OCC. LOVE V-SHAPE  0000001000+00002630+00000+0001T   00002630+0000001303          1400 UC6515               1AZ
881107000881107               881107               170213GN     1400+00000+GN0000005482+0000005482+000000000+000000769+0000006250+0000000001+I20000000000+0000006250+Z
881107001881107112-116069     881107006009681820277TCS CARRIER BAG JUMBO  0000001000+00000048+00000+0001T   00000048+0000001306          1400 UC6090               1AZ
881107002881107018-000136     881107006001023659026MUG OCC LOVE W/PLUSH   0000001000+00003507+00000+0001T   00003507+0000001306          1400 UC6515               1AZ
881107003881107903-000155     881107006009803374435SWT LOLLY I LUV U HEART0000001000+00000525+00000+0001T   00000525+0000001306          1400 UC6150               1AZ
881107004881107304-001204     881107006001023737984FLOWER OCC. TEDDY/ROSES0000001000+00001402+00000+0001T   00001490+0006471306          1400 UC6510               1AZ
881108000881108               881108               170213GN     1400+00000+GN0000000964+0000000964+000000000+000000135+0000001090+0000000009+I20000000000+0000001090+Z
881108001881108903-000843     881108008693029031067SWT GUMMY JELAXY 80G   0000001000+00000964+00000+0001T   00000964+0000001306          1400 UC6150               1AZ
881109000881109               881109               170213GN     1400+00000+GN0000002192+0000002192+000000000+000000307+0000002490+0000000009+I20000000000+0000002490+Z
881109001881109007-000095     881109006003000530434ENVELOPES WHITE 20PK C60000001000+00002192+00000+0001T   00002192+0000001307          1400 UC6130               1AZ
881110000881110               881110               170213GN     1400+00000+GN0000010819+0000010819+000000000+000001516+0000012330+0000000005+I20000000000+0000012330+Z
881110001881110112-116038     881110006009681820246TCS CARRIER BAG MIDI   0000001000+00000035+00000+0001T   00000035+0000001309          1400 UC6090               1AZ
881110002881110077-000303     881110006001023593757GIFT-BAG PAPER MED     0000001000+00001578+00000+0001T   00001578+0000001309          1400 UC6112               1AZ
881110003881110078-000030     881110006003000151141YAMAYO SUPERGLUE 8g    0000001000+00001753+00000+0001T   00001753+0000001309          1400 UC6810               1AZ
881110004881110903-000095     881110006001704011495SWT SPECKLED-EGGS 100G 0000001000+00002104+00000+0001T   00002104+0000001309          1400 UC6150               1AZ
881110005881110001-000175     881110006001023788108B/MUG GLS LOVE 380ML   0000001000+00004385+00000+0001T   00004385+0000001309          1400 UC6515               1AZ
881110006881110903-000843     881110008693029031067SWT GUMMY JELAXY 80G   0000001000+00000964+00000+0001T   00000964+0000001309          1400 UC6150               1AZ
881111000881111               881111               170213GN     1400+00000+GN0000010117+0000010117+000000000+000001418+0000011530+0000000005+I20000000000+0000011530+Z
881111001881111112-116038     881111006009681820246TCS CARRIER BAG MIDI   0000001000+00000035+00000+0001T   00000035+0000001317          1400 UC6090               1AZ
881111002881111366-006105     881111006003000617050DRESS UP FACE PAINT    0000001000+00003507+00000+0001T   00003507+0000001317          1400 UC6131               1AZ
881111003881111366-006102     881111006003000648474DRESSUP S/ADH FACE STIK0000001000+00001753+00000+0001T   00001753+0000001317          1400 UC6131               1AZ
881111004881111006-006018     881111006001023735256PARTY-SPRAY HAIR ASSORT0000001000+00002630+00000+0001T   00002630+0000001317          1400 UC6131               1AZ
881111005881111071-000404     881111006001023676696P/SHARPENER WORLD-GLOBE0000001000+00002192+00000+0001T   00002192+0000001317          1400 UC6130               1AZ
881112000881112               881112               170213GN     1400+00000+GN0000002496+0000002496+000000000+000000351+0000002840+0000000007+I20000000000+0000002840+Z
881112001881112159-000150-B   881112006005387002009SOAP-BOX PL ASSORTED   0000003000+00000832+00000+0001T   00000832+0000001340          1400 UC6200               1AZ
881113000881113               881113               170213GN     1400+00000+GN0000003419+0000003419+000000000+000000479+0000003890+0000000008+I20000000000+0000003890+Z
881113001881113903-000111     881113006001704006378SWT LIQUORICE-TWISTS   0000001000+00001227+00000+0001T   00001227+0000001345          1400 UC6150               1AZ
881113002881113080-000127     881113006003000424351VALENTINES DAY 36x24CM 0000001000+00002192+00000+0001T   00002192+0000001345          1400 UC6112               1AZ
881114000881114               881114               170213GN     1400+00000+GN0000012837+0000012837+000000000+000001798+0000014630+0000000005+I20000000000+0000014630+Z
881114001881114112-116038     881114006009681820246TCS CARRIER BAG MIDI   0000001000+00000035+00000+0001T   00000035+0000001403          1400 UC6090               1AZ
881114002881114077-000315     881114006003000181186GIFT-BAG 20x28cm MATT  0000001000+00001578+00000+0001T   00001578+0000001403          1400 UC6112               1AZ
881114003881114077-000303     881114006001023593757GIFT-BAG PAPER MED     0000001000+00001578+00000+0001T   00001578+0000001403          1400 UC6112               1AZ
881114004881114018-050000     881114006003000412679MUG OCC LOVE TWIN BEAR 0000001000+00006139+00000+0001T   00006139+0000001403          1400 UC6515               1AZ
881114005881114018-005009     881114006001023725608MUG W/PLUSH-BEAR LOVE  0000001000+00003507+00000+0001T   00003507+0000001403          1400 UC6515               1AZ
881115000881115               881115               170213GN     1400+00000+GN0000001578+0000001578+000000000+000000221+0000001790+0000000009+I20000000000+0000001790+Z
881115001881115018-000127     881115006001023380289MUG OCC STRAIGHT LOVE  0000001000+00001578+00000+0001T   00001753+0006471406          1400 UC6515               1AZ
881116000881116               881116               170213GN     1400+00000+GN0000001578+0000001578+000000000+000000221+0000001799+0000000000+I40000001799+0000000000+Z
881116001881116077-000315     881116006003000181186GIFT-BAG 20x28cm MATT  0000001000+00001578+00000+0001T   00001578+0000001408          1400 UC6112               1AZ
881117000881117               881117               170213GN     1400+00000+GN0000007451+0000007451+000000000+000001044+0000008490+0000000005+I20000000000+0000008490+Z
881117001881117903-000194     881117006009826020616SWT CHOC RP LOLLY 25G  0000001000+00001314+00000+0001T   00001314+0000001412          1400 UC6150               1AZ
881117002881117018-000130     881117006001023867537MUG OCC LOVE MINI+HEART0000001000+00003507+00000+0001T   00003507+0000001412          1400 UC6515               1AZ
881117003881117077-000475     881117006003000640775GIFT-BAG DESIGNER MED  0000001000+00002630+00000+0001T   00002630+0000001412          1400 UC6112               1AZ
881118000881118               881118               170213GN     1400+00000+GN0000004681+0000004681+000000000+000000656+0000005330+0000000007+I20000000000+0000005330+Z
881118001881118018-000130     881118006001023867537MUG OCC LOVE MINI+HEART0000001000+00003507+00000+0001T   00003507+0000001413          1400 UC6515               1AZ
881118002881118112-116038     881118006009681820246TCS CARRIER BAG MIDI   0000001000+00000035+00000+0001T   00000035+0000001413          1400 UC6090               1AZ
881118003881118903-000087     881118006001704000161SWT SPECKLED-EGGS 50G  0000001000+00001139+00000+0001T   00001139+0000001413          1400 UC6150               1AZ
881119000881119               881119               170213GN     1400+00000+GN0000003578+0000003578+000000000+000000505+0000004080+0000000003+I20000000000+0000004080+Z
881119001881119112-116038     881119006009681820246TCS CARRIER BAG MIDI   0000001000+00000035+00000+0001T   00000035+0000001415          1400 UC6090               1AZ
881119002881119903-000155     881119006009803374435SWT LOLLY I LUV U HEART0000002000+00000525+00000+0001T   00000525+0000001415          1400 UC6150               1AZ
881119003881119903-000194     881119006009826020616SWT CHOC RP LOLLY 25G  0000001000+00001314+00000+0001T   00001314+0000001415          1400 UC6150               1AZ
881119004881119903-000183     881119006003000451043SWT LB HEART LOLLY     0000003000+00000393+00000+0001T   00000393+0000001415          1400 UC6150               1AZ
881120000881120               881120               170213GN     1400+00000+GN0000001753+0000001753+000000000+000000246+0000001990+0000000009+I20000000000+0000001990+Z
881120001881120077-000289     881120006001023901996GIFT BOX 20x25x11cm    0000001000+00001753+00000+0001T   00001753+0000001427          1400 UC6112               1AZ
881121000881121               881121               170213GN     1400+00000+GN0000002192+0000002192+000000000+000000307+0000002490+0000000009+I20000000000+0000002490+Z
881121001881121080-000127     881121006003000424351VALENTINES DAY 36x24CM 0000001000+00002192+00000+0001T   00002192+0000001427          1400 UC6112               1AZ
881122000881122               881122               170213GN     1400+00000+GN0000004203+0000004203+000000000+000000592+0000004790+0000000005+I20000000000+0000004790+Z
881122001881122080-000133-A   881122006003000647019MINI VALENTINES CARD   0000003000+00000437+00000+0001T   00000437+0000001451          1400 UC6112               1AZ
881122002881122077-000382     881122006003000247820GIFT-BAG MED 18X23CM   0000001000+00001753+00000+0001T   00001753+0000001451          1400 UC6112               1AZ
881122003881122903-000087     881122006001704000161SWT SPECKLED-EGGS 50G  0000001000+00001139+00000+0001T   00001139+0000001451          1400 UC6150               1AZ
881123000881123               881123               170213GN     1400+00000+GN0000001753+0000001753+000000000+000000246+0000001990+0000000009+I20000000000+0000001990+Z
881123001881123077-000299-A   881123006003000670888GIFT-BAG PAPER JMB LOVE0000001000+00001753+00000+0001T   00001753+0000001502          1400 UC6112               1AZ
881124000881124               881124               170213GN     1400+00000+GN0000007015+0000007015+000000000+000000983+0000007990+0000000008+I20000000000+0000007990+Z
881124001881124368-000040     881124006003000671786PLUSH ICONS 7.5cm      0000001000+00002630+00000+0001T   00002630+0000001513          1400 UC6745               1AZ
881124002881124368-000049     881124006003000536955PLUSH BEAR 15cm LOVE   0000001000+00004385+00000+0001T   00004385+0000001513          1400 UC6745               1AZ
881125000881125               881125               170213GN     1400+00000+GN0000000437+0000000437+000000000+000000062+0000000490+0000000009+I20000000000+0000000490+Z
881125001881125080-000133-A   881125006003000647019MINI VALENTINES CARD   0000001000+00000437+00000+0001T   00000437+0000001517          1400 UC6112               1AZ
881126000881126               881126               170213GN     1400+00000+GN0000001753+0000001753+000000000+000000246+0000001990+0000000009+I20000000000+0000001990+Z
881126001881126071-081103     881126006003000197002GLUE STICKS LIQUID 3PCE0000001000+00001753+00000+0001T   00001753+0000001523          1400 UC6130               1AZ
881127000881127               881127               170213GN     1400+00000+GN0000017409+0000017409+000000000+000002440+0000019849+0000000000+I40000019849+0000000000+Z
881127001881127304-001204     881127006001023737984FLOWER OCC. TEDDY/ROSES0000001000+00001402+00000+0001T   00001490+0006471619          1400 UC6510               1AZ
881127002881127018-000170     881127006001023775528MUG OCC. LOVE 2PC MINI 0000001000+00002192+00000+0001T   00002192+0000001619          1400 UC6515               1AZ
881127003881127301-085003     881127006003000420827ORN OCCASION LOVE KEY  0000001000+00005262+00000+0001T   00005262+0000001619          1400 UC6505               1AZ
881127004881127077-000384     881127006003000275243G/BAG HOT STMP 18x23CM 0000001000+00001490+00000+0001T   00001490+0000001619          1400 UC6112               1AZ
881127005881127006-000190     881127006003000685530BALLOONS LOVE 81x91cm  0000001000+00004385+00000+0001T   00004385+0000001619          1400 UC6131               1AZ
881127006881127566-000367     881127006003000645558STICKER WINDOW DECOR   0000001000+00002630+00000+0001T   00002630+0000001619          1400 UC6130               1AZ
881127007881127112-116069     881127006009681820277TCS CARRIER BAG JUMBO  0000001000+00000048+00000+0001T   00000048+0000001619          1400 UC6090               1AZ
881128000881128               881128               170213GN     1400+00000+GN0000025083+0000025083+000000000+000003513+0000028590+0000000006+I20000000000+0000028590+Z
881128001881128304-001204     881128006001023737984FLOWER OCC. TEDDY/ROSES0000001000+00001402+00000+0001T   00001490+0006471624          1400 UC6510               1AZ
881128002881128586-010654     881128006001492106540WATCH MENS CLASSIC MTL 0000001000+00017542+00000+0001T   00017542+0000001624          1400 UC6160               1AZ
881128003881128018-050000     881128006003000412679MUG OCC LOVE TWIN BEAR 0000001000+00006139+00000+0001T   00006139+0000001624          1400 UC6515               1AZ
881129000881129               881129               170213GN     1400+00000+GN0000022573+0000022573+000000000+000003162+0000025735+0000000000+I40000025735+0000000000+Z
881129001881129112-116038     881129006009681820246TCS CARRIER BAG MIDI   0000001000+00000035+00000+0001T   00000035+0000001638          1400 UC6090               1AZ
881129002881129039-809558     881129006003000344376CANDLE PILLAR 12CM 4AST0000002000+00006139+00000+0001T   00006139+0000001638          1400 UC6510               1AZ
881129003881129077-000317     881129006001023609748GIFT-BAG 11X14CM E/D AN0000001000+00000613+00000+0001T   00000613+0000001638          1400 UC6112               1AZ
881129004881129301-000015     881129006001023479907ORN SENTIMENT STONE    0000001000+00004385+00000+0001T   00004385+0000001638          1400 UC6505               1AZ
881129005881129301-085003     881129006003000420827ORN OCCASION LOVE KEY  0000001000+00005262+00000+0001T   00005262+0000001638          1400 UC6505               1AZ
881130000881130               881130               170213GN     1400+00000+GN0000000876+0000000876+000000000+000000123+0000000990+0000000009+I20000000000+0000000990+Z
881130001881130077-000151     881130006008766114676GIFT-WRAP C/PHANE ASSTD0000001000+00000876+00000+0001T   00000876+0000001641          1400 UC6112               1AZ
881131000881131               881131               170213GN     1400+00000+GN0000007895+0000007895+000000000+000001125+0000009020+0000000000+I20000000000+0000009020+Z
881131001881131112-116038     881131006009681820246TCS CARRIER BAG MIDI   0000001000+00000035+00000+0001T   00000035+0000001644          1400 UC6090               1AZ
881131002881131903-000183     881131006003000451043SWT LB HEART LOLLY     0000020000+00000393+00000+0001T   00000393+0000001644          1400 UC6150               1AZ
881132000881132               881132               170213GN     1400+00000+GN0000004516+0000004516+000000000+000000635+0000005150+0000000001+I20000000000+0000005150+Z
881132001881132080-000127     881132006003000424351VALENTINES DAY 36x24CM 0000001000+00002192+00000+0001T   00002192+0000001654          1400 UC6112               1AZ
881132002881132077-000299     881132006003000395576G/BAG 32x25cm LRG LOVE 0000001000+00001490+00000+0001T   00001490+0000001654          1400 UC6112               1AZ
881132003881132112-116069     881132006009681820277TCS CARRIER BAG JUMBO  0000001000+00000048+00000+0001T   00000048+0000001654          1400 UC6090               1AZ
881132004881132903-000183     881132006003000451043SWT LB HEART LOLLY     0000002000+00000393+00000+0001T   00000393+0000001654          1400 UC6150               1AZ
881133000881133               881133               170213GN     1400+00000+GN0000000437+0000000437+000000000+000000062+0000000490+0000000009+I20000000000+0000000490+Z
881133001881133080-000133-A   881133006003000647019MINI VALENTINES CARD   0000001000+00000437+00000+0001T   00000437+0000001654          1400 UC6112               1AZ
881134000881134               881134               170213GN     1400+00000+GN0000014512+0000014512+000000000+000002036+0000016548+0000000000+I40000016548+0000000000+Z
881134001881134112-116069     881134006009681820277TCS CARRIER BAG JUMBO  0000001000+00000048+00000+0001T   00000048+0000001656          1400 UC6090               1AZ
881134002881134024-000002     881134006001023741899S/BURNER-COVER SILV/BLK0000001000+00003946+00000+0001T   00004385+0008191656          1400 UC6300               1AZ
881134003881134903-000215     881134006002099001214SWT GS MALLOW TWIST PAC0000001000+00001753+00000+0001T   00001753+0000001656          1400 UC6150               1AZ
881134004881134071-010481     881134006001023417220MAGNIFYING-GLASS 90mm-D0000004000+00001753+00000+0001T   00001753+0000001656          1400 UC6130               1AZ
881134005881134079-013032     881134006003000389209SET LETTERS 2 ASSTD    0000001000+00001753+00000+0001T   00001753+0000001656          1400 UC6130               1AZ
881135000881135               881135               170213GN     1400+00000+GN0000001839+0000001839+000000000+000000258+0000002090+0000000007+I20000000000+0000002090+Z
881135001881135903-000194     881135006009826020616SWT CHOC RP LOLLY 25G  0000001000+00001314+00000+0001T   00001314+0000001657          1400 UC6150               1AZ
881135002881135903-000155     881135006009803374435SWT LOLLY I LUV U HEART0000001000+00000525+00000+0001T   00000525+0000001657          1400 UC6150               1AZ
881136000881136               881136               170213GN     1400+00000+GN0000013276+0000013276+000000000+000001860+0000015136+0000000000+I40000015136+0000000000+Z
881136001881136368-000156     881136006003000167241PLUSH BUG 20cm ASST-COL0000001000+00007016+00000+0001T   00007016+0000001659          1400 UC6745               1AZ
881136002881136112-116038     881136006009681820246TCS CARRIER BAG MIDI   0000001000+00000035+00000+0001T   00000035+0000001659          1400 UC6090               1AZ
881136003881136263-001000     881136006003000600212VEHICLE PICK UP SET    0000001000+00004385+00000+0001T   00004385+0000001659          1400 UC6710               1AZ
881136004881136077-000314     881136006003000181148GIFT-BAG 11X14CM MATT  0000001000+00000876+00000+0001T   00000876+0000001659          1400 UC6112               1AZ
881136005881136903-000843     881136008693029031067SWT GUMMY JELAXY 80G   0000001000+00000964+00000+0001T   00000964+0000001659          1400 UC6150               1AZ
881137000881137               881137               170213GN     1400+00000+GN0000007048+0000007048+000000000+000000988+0000008030+0000000006+I20000000000+0000008030+Z
881137001881137078-009100     881137006008741002349ALL-CLEAR GLUE 25ml CRD0000001000+00001314+00000+0001T   00001314+0000001700          1400 UC6810               1AZ
881137002881137083-000058     881137006003000400331LIGHTER JET CIGAR REFIL0000001000+00002630+00000+0001T   00002630+0000001700          1400 UC6315               1AZ
881137003881137089-000005     881137006003000094806KEY CHAIN CARDS MTL    0000001000+00003069+00000+0001T   00003069+0000001700          1400 UC6205               1AZ
881137004881137112-116038     881137006009681820246TCS CARRIER BAG MIDI   0000001000+00000035+00000+0001T   00000035+0000001700          1400 UC6090               1AZ
881138000881138               881138               170213GN     1400+00000+GN0000007452+0000007452+000000000+000001044+0000008490+0000000006+I20000000000+0000008490+Z
881138001881138077-000926     881138006003000414178G/WRAP 700mmx2m LOVE   0000001000+00002192+00000+0001T   00002192+0000001711          1400 UC6112               1AZ
881138002881138080-000127     881138006003000424351VALENTINES DAY 36x24CM 0000002000+00002192+00000+0001T   00002192+0000001711          1400 UC6112               1AZ
881138003881138071-005213     881138006001023690371CELLOTAPE 12mmx33m     0000001000+00000876+00000+0001T   00000876+0000001711          1400 UC6130               1AZ
881139000881139               881139               170213GN     1400+00000+GN0000001490+0000001490+000000000+000000209+0000001690+0000000009+I20000000000+0000001690+Z
881139001881139077-000327     881139006001023677686GIFT-BAG 25X32CM E/D BA0000001000+00001490+00000+0001T   00001490+0000001713          1400 UC6112               1AZ
881140000881140               881140               170213GN     1400+00000+GN0000012852+0000012852+000000000+000001801+0000014650+0000000003+I20000000000+0000014650+Z
881140001881140368-000113     881140006001023780874PLUSH BLINGED LOVE 30cm0000001000+00012279+00000+0001T   00012279+0000001715          1400 UC6745               1AZ
881140002881140903-000155     881140006009803374435SWT LOLLY I LUV U HEART0000001000+00000525+00000+0001T   00000525+0000001715          1400 UC6150               1AZ
881140003881140112-116069     881140006009681820277TCS CARRIER BAG JUMBO  0000001000+00000048+00000+0001T   00000048+0000001715          1400 UC6090               1AZ
M17021391                              CASH        GNSLAVE 1                       Z-REPORT No.   608TOTAL (Sales - Refunds)           2898.13       CASH TO BE BANKED                 2044.50       DEBIT CARDS                          0.00       CREDIT CARDS                       853.63       Z-READING                         2898.13       AIRTIME DEBIT CARD SALES             0.00       AIRTIME CARD SALES                   0.00       OVERS/UNDERS                         0.00       AIRTIME CASH SALES                   0.00       GIFT CARDS                           0.00       GIFT CARD CASH SALES                 0.00       T O T A L  CASH PAYOUTS              0.00                                                                                                                                                                                                                                                                                                                                                      Z
M17021392                              CASH        GNABSENT                                                                                                                                                                                          ANNUAL LEAVE                                                                                                                                                                                    DAY OFF                                                                                                                                                                                         COMMENTS                                                                                                                                                                                                                                                                                                                                                                                       Z
Y17021300                                          GN00000000254372+000043
ZGN17021319423 SLAVE 1      SALES DATA                     NEXT INVOICE NO.  881141 0608
X GN Slave 1 First invoice 881098 170213 Last invoice 881140 170213 Next invoice 881141 Total number of records 000000155 clbackup completed 19:42:43
