897051000897051               897051               170213GN     1400+00000+GN0000009382+0000009382+000000000+000001315+0000010690+0000000007+I20000000000+0000010690+Z
897051001897051018-050000     897051006003000412679MUG OCC LOVE TWIN BEAR 0000001000+00006139+00000+0001T   00006139+0000000923          1400 K73515               2BZ
897051002897051077-000384     897051006003000275243G/BAG HOT STMP 18x23CM 0000001000+00001490+00000+0001T   00001490+0000000923          1400 K73112               2BZ
897051003897051077-000299-A   897051006003000670888GIFT-BAG PAPER JMB LOVE0000001000+00001753+00000+0001T   00001753+0000000923          1400 K73112               2BZ
897052000897052               897052               170213GN     1400+00000+GN0000004383+0000004383+000000000+000000615+0000004990+0000000008+I20000000000+0000004990+Z
897052001897052082-026205     897052006001023816528R/GLASSES STRINGS 2PCE 0000001000+00002630+00000+0001T   00002630+0000000924          1400 K73160               2BZ
897052002897052038-001804     897052006001023766618DOILIES 27cm RND PKT-100000001000+00001753+00000+0001T   00001753+0000000924          1400 K73300               2BZ
897053000897053               897053               170213GN     1400+00000+GN0000003408+0000003408+000000000+000000479+0000003880+0000000007+I20000000000+0000003880+Z
897053001897053903-000200     897053006009826020234SWT CHOC RP CHOCO 23G  0000001000+00000788+00000+0001T   00000788+0000001020          1400 K73150               2BZ
897053002897053080-000127     897053006003000424351VALENTINES DAY 36x24CM 0000001000+00002192+00000+0001T   00002192+0000001020          1400 K73112               2BZ
897053003897053903-000183     897053006003000451043SWT LB HEART LOLLY     0000001000+00000393+00000+0001T   00000393+0000001020          1400 K73150               2BZ
897053004897053112-116038     897053006009681820246TCS CARRIER BAG MIDI   0000001000+00000035+00000+0001T   00000035+0000001020          1400 K73090               2BZ
897054000897054               897054               170213GN     1400+00000+GN0000001753+0000001753+000000000+000000246+0000001990+0000000009+I20000000000+0000001990+Z
897054001897054080-000102     897054006003000236855CARD&ENVLP FEMALE AFR  0000001000+00001753+00000+0001T   00001753+0000001057          1400 K73112               2BZ
897055000897055               897055               170213GN     1400+00000+GN0000002488+0000002488+000000000+000000349+0000002830+0000000007+I20000000000+0000002830+Z
897055001897055903-000126     897055006002099003591SWT ZILLIONS MINT 50G  0000001000+00000700+00000+0001T   00000700+0000001107          1400 K73150               2BZ
897055002897055028-000016     897055006001334007004ICE-BRICK CLEAR    400g0000001000+00001753+00000+0001T   00001753+0000001107          1400 K73305               2BZ
897055003897055112-116038     897055006009681820246TCS CARRIER BAG MIDI   0000001000+00000035+00000+0001T   00000035+0000001107          1400 K73090               2BZ
897056000897056               897056               170213GN     1400+00000+GN0000004433+0000004433+000000000+000000621+0000005054+0000000000+I40000005054+0000000000+Z
897056001897056075-001003     897056006003000622689HAT LADIES VISOR STYLE 0000001000+00004385+00000+0001T   00004385+0000001121          1400 K73160               2BZ
897056002897056112-116069     897056006009681820277TCS CARRIER BAG JUMBO  0000001000+00000048+00000+0001T   00000048+0000001121          1400 K73090               2BZ
897057000897057               897057               170213GN     1400+00000+GN0000005420+0000005420+000000000+000000762+0000006182+0000000000+I40000006182+0000000000+Z
897057001897057903-000897     897057008692806325207SWT CHOC DBL MINI ROLL 0000001000+00000876+00000+0001T   00000876+0000001126          1400 K73150               2BZ
897057002897057083-000049     897057004891035200024CIG-LIGHTER DISPOSABLE 0000001000+00000437+00000+0001T   00000437+0000001126          1400 K73315               2BZ
897057003897057903-005000     897057006002580020007SWT CT MALLOW FISH 120g0000001000+00001314+00000+0001T   00001314+0000001126          1400 K73150               2BZ
897057004897057903-000200     897057006009826020234SWT CHOC RP CHOCO 23G  0000002000+00000788+00000+0001T   00000788+0000001126          1400 K73150               2BZ
897057005897057007-000234     897057006009685850638LABELS 24PK            0000001000+00000306+00000+0001T   00000306+0000001126          1400 K73130               2BZ
897057006897057903-000494     897057006001704009911SWT GUMMY TEENY TEDDIES0000001000+00000876+00000+0001T   00000876+0000001126          1400 K73150               2BZ
897057007897057112-116038     897057006009681820246TCS CARRIER BAG MIDI   0000001000+00000035+00000+0001T   00000035+0000001126          1400 K73090               2BZ
897058000897058               897058               170213GN     1400+00000+GN0000001576+0000001576+000000000+000000221+0000001790+0000000007+I20000000000+0000001790+Z
897058001897058071-003003     897058006003000144525PEN BALL PEN 3PCE BLACK0000001000+00000876+00000+0001T   00000876+0000001131          1400 K73130               2BZ
897058002897058007-000128     897058006009635830475BOOK H/COVER A5 96-PAGE0000001000+00000700+00000+0001T   00000700+0000001131          1400 K73130               2BZ
897059000897059               897059               170213GN     1400+00000+GN0000026090+0000026090+000000000+000003655+0000029740+0000000005+I20000000000+0000029740+Z
897059001897059140-092000     897059006001023819130MOSQ-NET 1250x250x65cm 0000001000+00014911+00000+0001T   00014911+0000001208          1400 K73830               2BZ
897059002897059039-000108     897059006001023524034TEA-LITE CANDLES 8PCE  0000001000+00001490+00000+0001T   00001490+0000001208          1400 K73510               2BZ
897059003897059039-001023     897059006003000466337CANDLE TEA-LITE METALIC0000001000+00001753+00000+0001T   00001753+0000001208          1400 K73510               2BZ
897059004897059031-000002-A   897059006003000247103P/FRAME LOVE 7.5X7.5CM 0000001000+00003507+00000+0001T   00003507+0000001208          1400 K73510               2BZ
897059005897059088-000084     897059006001023798060P/POURRI 120G ASSTD    0000001000+00001753+00000+0001T   00001753+0000001208          1400 K73212               2BZ
897059006897059006-000167-B   897059006003000516858BALLOONS BLUE METALLIC 0000001000+00001314+00000+0001T   00001314+0000001208          1400 K73131               2BZ
897059007897059006-000166-D   897059006003000516490BALLOONS LRG 6PC RED   0000001000+00001314+00000+0001T   00001314+0000001208          1400 K73131               2BZ
897059008897059112-116069     897059006009681820277TCS CARRIER BAG JUMBO  0000001000+00000048+00000+0001T   00000048+0000001208          1400 K73090               2BZ
897060000897060               897060               170213GN     1400+00000+GN0000027496+0000027496+000000000+000003852+0000031348+0000000000+I40000031348+0000000000+Z
897060001897060040-000103     897060000694202201862C/HOLDER-SET 5PC W/TRAY0000001000+00011402+00000+0001T   00013157+0008191218          1400 K73510               2BZ
897060002897060018-005009     897060006001023725608MUG W/PLUSH-BEAR LOVE  0000001000+00003507+00000+0001T   00003507+0000001218          1400 K73515               2BZ
897060003897060088-000084     897060006001023798060P/POURRI 120G ASSTD    0000001000+00001753+00000+0001T   00001753+0000001218          1400 K73212               2BZ
897060004897060077-000303     897060006001023593757GIFT-BAG PAPER MED     0000001000+00001578+00000+0001T   00001578+0000001218          1400 K73112               2BZ
897060005897060039-000799     897060006001023692382CANDLES TEALITE 100PCE 0000001000+00008771+00000+0001T   00008771+0000001218          1400 K73510               2BZ
897060006897060112-116069     897060006009681820277TCS CARRIER BAG JUMBO  0000001000+00000048+00000+0001T   00000048+0000001218          1400 K73090               2BZ
897060007897060080-000133-A   897060006003000647019MINI VALENTINES CARD   0000001000+00000437+00000+0001T   00000437+0000001218          1400 K73112               2BZ
897061000897061               897061               170213GN     1400+00000+GN0000001313+0000001313+000000000+000000185+0000001490+0000000008+I20000000000+0000001490+Z
897061001897061077-000011-C   897061006001023808523TISSUE 10xSHTS RED     0000001000+00000876+00000+0001T   00000876+0000001218          1400 K73112               2DZ
897061002897061080-000133-A   897061006003000647019MINI VALENTINES CARD   0000001000+00000437+00000+0001T   00000437+0000001218          1400 K73112               2DZ
897062000897062               897062               170213GN     1400+00000+GN0000005032+0000005032+000000000+000000705+0000005730+0000000007+I20000000000+0000005730+Z
897062001897062077-000384     897062006003000275243G/BAG HOT STMP 18x23CM 0000001000+00001490+00000+0001T   00001490+0000001221          1400 K73112               2BZ
897062002897062018-000136     897062006001023659026MUG OCC LOVE W/PLUSH   0000001000+00003507+00000+0001T   00003507+0000001221          1400 K73515               2BZ
897062003897062112-116038     897062006009681820246TCS CARRIER BAG MIDI   0000001000+00000035+00000+0001T   00000035+0000001221          1400 K73090               2BZ
897063000897063               897063               170213GN     1400+00000+GN0000001752+0000001752+000000000+000000246+0000001990+0000000008+I20000000000+0000001990+Z
897063001897063022-002108     897063006002600025159MUG 8cm PLAIN          0000002000+00000876+00000+0001T   00000876+0000001222          1400 K73305               2DZ
897064000897064               897064               170213GN     1400+00000+GN0000017538+0000017538+000000000+000002456+0000019990+0000000004+I20000000000+0000019990+Z
897064001897064018-000130     897064006001023867537MUG OCC LOVE MINI+HEART0000001000+00003507+00000+0001T   00003507+0000001225          1400 K73515               2BZ
897064002897064301-085004     897064006003000420469ORN LOVE PLAQUE 21X10CM0000001000+00003507+00000+0001T   00003946+0006471225          1400 K73505               2BZ
897064003897064301-085003     897064006003000420827ORN OCCASION LOVE KEY  0000002000+00005262+00000+0001T   00005262+0000001225          1400 K73505               2BZ
897065000897065               897065               170213GN     1400+00000+GN0000004385+0000004385+000000000+000000614+0000004999+0000000000+I40000004999+0000000000+Z
897065001897065001-000175     897065006001023788108B/MUG GLS LOVE 380ML   0000001000+00004385+00000+0001T   00004385+0000001235          1400 K73515               2BZ
897066000897066               897066               170213GN     1400+00000+GN0000008770+0000008770+000000000+000001228+0000009998+0000000000+I40000009998+0000000000+Z
897066001897066006-000190     897066006003000685530BALLOONS LOVE 81x91cm  0000001000+00004385+00000+0001T   00004385+0000001238          1400 K73131               2BZ
897066002897066162-099911     897066006001492999111#TAG KIDS NECKLACE SET 0000001000+00004385+00000+0001T   00004385+0000001238          1400 K73160               2BZ
897067000897067               897067               170213GN     1400+00000+GN0000015168+0000015168+000000000+000002127+0000017290+0000000005+I20000000000+0000017290+Z
897067001897067018-005009     897067006001023725608MUG W/PLUSH-BEAR LOVE  0000001000+00003507+00000+0001T   00003507+0000001240          1400 K73515               2BZ
897067002897067006-000118     897067006001023730725BALLOONS 6PC TWISTER   0000001000+00001753+00000+0001T   00001753+0000001240          1400 K73131               2BZ
897067003897067080-000127     897067006003000424351VALENTINES DAY 36x24CM 0000001000+00002192+00000+0001T   00002192+0000001240          1400 K73112               2BZ
897067004897067304-001204     897067006001023737984FLOWER OCC. TEDDY/ROSES0000001000+00001402+00000+0001T   00001490+0006471240          1400 K73510               2BZ
897067005897067903-000200     897067006009826020234SWT CHOC RP CHOCO 23G  0000001000+00000788+00000+0001T   00000788+0000001240          1400 K73150               2BZ
897067006897067077-000303     897067006001023593757GIFT-BAG PAPER MED     0000001000+00001578+00000+0001T   00001578+0000001240          1400 K73112               2BZ
897067007897067301-085004     897067006003000420469ORN LOVE PLAQUE 21X10CM0000001000+00003507+00000+0001T   00003946+0006471240          1400 K73505               2BZ
897067008897067903-000183     897067006003000451043SWT LB HEART LOLLY     0000001000+00000393+00000+0001T   00000393+0000001240          1400 K73150               2BZ
897067009897067112-116069     897067006009681820277TCS CARRIER BAG JUMBO  0000001000+00000048+00000+0001T   00000048+0000001240          1400 K73090               2BZ
897068000897068               897068               170213GN     1400+00000+GN0000000393+0000000393+000000000+000000056+0000000440+0000000009+I20000000000+0000000440+Z
897068001897068903-000183     897068006003000451043SWT LB HEART LOLLY     0000001000+00000393+00000+0001T   00000393+0000001240          1400 K73150               2BZ
897069000897069               897069               170213GN     1400+00000+GN0000015787+0000015787+000000000+000002211+0000017998+0000000000+I40000017998+0000000000+Z
897069001897069306-001660     897069006003000620579NAIL DRYING MACHINE    0000001000+00007016+00000+0001T   00007016+0000001248          1400 K73200               2BZ
897069002897069001-091415     897069006003000329113W/GLS OCC. LOVE 2PC 2800000001000+00008771+00000+0001T   00009648+0006471248          1400 K73515               2BZ
897070000897070               897070               170213GN     1400+00000+GN0000010994+0000010994+000000000+000001541+0000012530+0000000005+I20000000000+0000012530+Z
897070001897070079-006522     897070006001023149442ART+CRAFT GLUE ASSORTED0000001000+00001753+00000+0001T   00001753+0000001252          1400 K73130               2BZ
897070002897070079-014152     897070006003000253074ART+CRAFT PK50 ASSTD   0000001000+00003069+00000+0001T   00003069+0000001252          1400 K73130               2BZ
897070003897070079-013032-D   897070006003000389643RIBBONS                0000001000+00002630+00000+0001T   00002630+0000001252          1400 K73130               2BZ
897070004897070079-006498     897070006001023836151GLITTER SET 10PCE      0000001000+00003507+00000+0001T   00003507+0000001252          1400 K73130               2BZ
897070005897070112-116038     897070006009681820246TCS CARRIER BAG MIDI   0000001000+00000035+00000+0001T   00000035+0000001252          1400 K73090               2BZ
897071000897071               897071               170213GN     1400+00000+GN0000004909+0000004909+000000000+000000688+0000005590+0000000007+I20000000000+0000005590+Z
897071001897071018-000136     897071006001023659026MUG OCC LOVE W/PLUSH   0000001000+00003507+00000+0001T   00003507+0000001253          1400 K73515               2BZ
897071002897071304-001204     897071006001023737984FLOWER OCC. TEDDY/ROSES0000001000+00001402+00000+0001T   00001490+0006471253          1400 K73510               2BZ
897072000897072               897072               170213GN     1400+00000+GN0000001490+0000001490+000000000+000000209+0000001690+0000000009+I20000000000+0000001690+Z
897072001897072077-000304     897072006001023483232GIFT-BAG 25X32CM E/DAY 0000001000+00001490+00000+0001T   00001490+0000001259          1400 K73112               2BZ
897073000897073               897073               170213GN     1400+00000+GN0000006486+0000006486+000000000+000000910+0000007390+0000000006+I20000000000+0000007390+Z
897073001897073563-000318-L   897073006003000407088SERVIETTES 33cm RED    0000001000+00002192+00000+0001T   00002192+0000001303          1400 K73214               2BZ
897073002897073039-000108     897073006001023524034TEA-LITE CANDLES 8PCE  0000001000+00001490+00000+0001T   00001490+0000001303          1400 K73510               2BZ
897073003897073108-002020     897073006009654960245WINE GLS STYRENE 220ml 0000002000+00001402+00000+0001T   00001402+0000001303          1400 K73210               2BZ
897074000897074               897074               170213GN     1400+00000+GN0000001490+0000001490+000000000+000000209+0000001690+0000000009+I20000000000+0000001690+Z
897074001897074159-080352     897074006916920733314HOOKS 3PCE             0000001000+00001490+00000+0001T   00001490+0000001404          1400 K73200               2BZ
897075000897075               897075               170213GN     1400+00000+GN0000001489+0000001489+000000000+000000209+0000001690+0000000008+I20000000000+0000001690+Z
897075001897075077-000011-D   897075006001023808554TISSUE-WRAP WHITE 10PCE0000001000+00000876+00000+0001T   00000876+0000001407          1400 K73112               2BZ
897075002897075077-000311     897075006001023608666GIFT-BAG 11X14CM GLOSS 0000001000+00000613+00000+0001T   00000613+0000001407          1400 K73112               2BZ
897076000897076               897076               170213GN     1400+00000+GN0000014075+0000014075+000000000+000001974+0000016040+0000000009+I20000000000+0000016040+Z
897076001897076002-000650     897076006001023473578M/SPOON WDN 40cm H/HOUS0000001000+00002630+00000+0001T   00002630+0000001437          1400 K73300               2BZ
897076002897076072-020354     897076006001023649980DOG/CAT-BOWL LARGE     0000002000+00002630+00000+0001T   00002630+0000001437          1400 K73870               2BZ
897076003897076037-000006     897076006003000171996ASHTRAY PL TUB GIANT   0000001000+00002630+00000+0001T   00003069+0008191437          1400 K73515               2BZ
897076004897076034-091339     897076006003000568253BABY BIB 33x39cm 4ASSTD0000001000+00003507+00000+0001T   00003507+0000001437          1400 K73215               2BZ
897076005897076112-116069     897076006009681820277TCS CARRIER BAG JUMBO  0000001000+00000048+00000+0001T   00000048+0000001437          1400 K73090               2BZ
897077000897077               897077               170213GN     1400+00000+GN0000003944+0000003944+000000000+000000553+0000004497+0000000000+I40000004497+0000000000+Z
897077001897077077-000005-A   897077006003000326495TISSUE 10xSHT OCCASIONS0000001000+00002630+00000+0001T   00002630+0000001539          1400 K73112               2BZ
897077002897077077-000470     897077006003000330171G-BAG DESGN SML 11X14CM0000001000+00001314+00000+0001T   00001314+0000001539          1400 K73112               2BZ
897078000897078               897078               170213GN     1400+00000+GN0000003542+0000003542+000000000+000000496+0000004030+0000000008+I20000000000+0000004030+Z
897078001897078018-000136     897078006001023659026MUG OCC LOVE W/PLUSH   0000001000+00003507+00000+0001T   00003507+0000001540          1400 K73515               2BZ
897078002897078112-116038     897078006009681820246TCS CARRIER BAG MIDI   0000001000+00000035+00000+0001T   00000035+0000001540          1400 K73090               2BZ
897079000897079               897079               170213GN     1400+00000+GN0000008768+0000008768+000000000+000001229+0000009990+0000000007+I20000000000+0000009990+Z
897079001897079031-007000     897079006003000462476P/FRAME WDN DIST.10X15 0000001000+00007016+00000+0001T   00007016+0000001549          1400 K73510               2BZ
897079002897079077-000302     897079008010410010195GIFT-BAG 18X23CM E/D   0000001000+00000876+00000+0001T   00000876+0000001549          1400 K73112               2BZ
897079003897079077-000011-D   897079006001023808554TISSUE-WRAP WHITE 10PCE0000001000+00000876+00000+0001T   00000876+0000001549          1400 K73112               2BZ
897080000897080               897080               170213GN     1400+00000+GN0000003507+0000003507+000000000+000000491+0000003990+0000000008+I20000000000+0000003990+Z
897080001897080018-000136     897080006001023659026MUG OCC LOVE W/PLUSH   0000001000+00003507+00000+0001T   00003507+0000001552          1400 K73515               2BZ
897081000897081               897081               170213GN     1400+00000+GN0000010309+0000010309+000000000+000001444+0000011750+0000000003+I20000000000+0000011750+Z
897081001897081001-091415     897081006003000329113W/GLS OCC. LOVE 2PC 2800000001000+00008771+00000+0001T   00009648+0006471558          1400 K73515               2BZ
897081002897081077-000299     897081006003000395576G/BAG 32x25cm LRG LOVE 0000001000+00001490+00000+0001T   00001490+0000001558          1400 K73112               2BZ
897081003897081112-116069     897081006009681820277TCS CARRIER BAG JUMBO  0000001000+00000048+00000+0001T   00000048+0000001558          1400 K73090               2BZ
897082000897082               897082               170213GN     1400+00000+GN0000001578+0000001578+000000000+000000221+0000001790+0000000009+I20000000000+0000001790+Z
897082001897082077-000386     897082006003000275489G/BAG POP UP 18x23CM   0000001000+00001578+00000+0001T   00001578+0000001603          1400 K73112               2BZ
897083000897083               897083               170213GN     1400+00000+GN0000005469+0000005469+000000000+000000767+0000006230+0000000006+I20000000000+0000006230+Z
897083001897083304-001204     897083006001023737984FLOWER OCC. TEDDY/ROSES0000001000+00001402+00000+0001T   00001490+0006471611          1400 K73510               2BZ
897083002897083018-000130     897083006001023867537MUG OCC LOVE MINI+HEART0000001000+00003507+00000+0001T   00003507+0000001611          1400 K73515               2BZ
897083003897083903-000155     897083006009803374435SWT LOLLY I LUV U HEART0000001000+00000525+00000+0001T   00000525+0000001611          1400 K73150               2BZ
897083004897083112-116038     897083006009681820246TCS CARRIER BAG MIDI   0000001000+00000035+00000+0001T   00000035+0000001611          1400 K73090               2BZ
897084000897084               897084               170213GN     1400+00000+GN0000006009+0000006009+000000000+000000843+0000006852+0000000000+I40000006852+0000000000+Z
897084001897084105-001079     897084000700371655921CONTAINER 2.2L CLIP LOC0000001000+00002455+00000+0001T   00002455+0000001617          1400 K73210               2BZ
897084002897084466-008889     897084006001023835376WHISTLE SPORTS+STRING  0000001000+00001753+00000+0001T   00001753+0000001617          1400 K73785               2BZ
897084003897084041-000301     897084006003000422708SKIN HAND CREAM 120ml  0000001000+00001753+00000+0001T   00001753+0000001617          1400 K73200               2BZ
897084004897084112-116069     897084006009681820277TCS CARRIER BAG JUMBO  0000001000+00000048+00000+0001T   00000048+0000001617          1400 K73090               2BZ
M17021309                              ATT GLADWYN GNATT GLADWYN FROM NOTH PARK GN                   OUR LAST SLIPS FOR THE DAY                      SLAVE 1 881137                                  SLAVE 2 897084                                  THANK YOU                                       JOYCE                                           GN
M17021391                              CASH        GNSLAVE 2                       Z-REPORT No.   614TOTAL (Sales - Refunds)           2741.68       CASH TO BE BANKED                 1872.50       DEBIT CARDS                          0.00       CREDIT CARDS                       869.28       Z-READING                         2741.68       AIRTIME DEBIT CARD SALES             0.00       AIRTIME CARD SALES                   0.00       OVERS/UNDERS                         0.10       AIRTIME CASH SALES                   0.00       GIFT CARDS                           0.00       GIFT CARD CASH SALES                 0.00       T O T A L  CASH PAYOUTS              0.00                                                                                                                                                                                                                                                                                                                                                      Z
M17021392                              CASH        GNABSENT                                                                                                                                                                                          ANNUAL LEAVE                                                                                                                                                                                    DAY OFF                                                                                                                                                                                         COMMENTS                                                                                                                                                                                                                                                                                                                                                                                       Z
Y17021300                                          GN00007400240626+000034
ZGN17021319423 SLAVE 2      SALES DATA                     NEXT INVOICE NO.  897085 0614
X GN Slave 2 First invoice 897051 170213 Last invoice 897084 170213 Next invoice 897085 Total number of records 000000141 clbackup completed 19:42:45
