585361000585361               585361               170213GP     1400+00000+GP0000002630+0000002630+000000000+000000369+0000002990+0000000009+I20000000000+0000002990+Z
585361001585361077-000270     585361006003000395453GIFT-BAG PPR JMB 33X45 0000001000+00002630+00000+0001T   00002630+0000000938          1400 U57112               1AZ
585362000585362               585362               170213GP     1400+00000+GP0000010832+0000010832+000000000+000001519+0000012351+0000000000+I40000012351+0000000000+Z
585362001585362082-098797     585362006001492987972SUNGLASS KIDS BOYS MASK0000001000+00003946+00000+0001T   00003946+0000000946          1400 U57160               1AZ
585362002585362903-000057     585362006005929000173SWT GS NOVELTY GIANT AL0000002000+00002104+00000+0001T   00002104+0000000946          1400 U57150               1AZ
585362003585362072-020276     585362006001023858474CAT LITTER-PAN PL      0000001000+00002630+00000+0001T   00002630+0000000946          1400 U57870               1AZ
585362004585362112-116069     585362006003000535064TCS CARRIER BAG JUMBO  0000001000+00000048+00000+0001T   00000048+0000000946          1400 U57090               1AZ
585363000585363               585363               170213GP     1400+00000+GP0000004120+0000004120+000000000+000000578+0000004690+0000000008+I20000000000+0000004690+Z
585363001585363079-013101     585363006001023863706CRAFT SET DIY PIPE-CLNR0000001000+00002630+00000+0001T   00002630+0000000951          1400 U57130               1AZ
585363002585363028-000796     585363006001023812094SKEWERS 25cm 50PCE 4mm 0000001000+00001490+00000+0001T   00001490+0000000951          1400 U57305               1AZ
585364000585364               585364               170213GP     1400+00000+GP0000002103+0000002103+000000000+000000295+0000002390+0000000008+I20000000000+0000002390+Z
585364001585364077-000011-F   585364006001023808431TISSUE-WRAP BLUE/LILAC 0000001000+00000876+00000+0001T   00000876+0000000959          1400 U57112               1AZ
585364002585364077-000319     585364006001023609779GIFT-BAG 18X23CM BIRTHD0000001000+00001227+00000+0001T   00001227+0000000959          1400 U57112               1AZ
585365000585365               585365               170213GP     1400+00000+GP0000000876+0000000876+000000000+000000123+0000000990+0000000009+I20000000000+0000000990+Z
585365001585365046-001620-PK2 585365004897006178408BATTERY LITHIUM CR-16200000001000+00000876+00000+0001T   00000876+0000001003          1400 U57312               1AZ
585366000585366               585366               170213GP     1400+00000+GP0000008767+0000008767+000000000+000001229+0000009990+0000000006+I20000000000+0000009990+Z
585366001585366200-000012     585366006003000399536BAG 50PCE 165x146mm    0000001000+00003507+00000+0001T   00003507+0000001019          1400 U57214               1AZ
585366002585366369-001138-D   585366006003000097623BABY BATH VINYL THEMED 0000001000+00002630+00000+0001T   00002630+0000001019          1400 U57745               1AZ
585366003585366034-078823     585366006001023856869FACE CLOTHS PACK-5     0000001000+00002630+00000+0001T   00002630+0000001019          1400 U57215               1AZ
585367000585367               585367               170213GP     1400+00000+GP0000012327+0000012327+000000000+000001727+0000014050+0000000004+I20000000000+0000014050+Z
585367001585367368-000630     585367006001023831163PLUSH WORM ASSTD 40CM  0000001000+00012279+00000+0001T   00012279+0000001022          1400 U57745               1AZ
585367002585367112-116069     585367006003000535064TCS CARRIER BAG JUMBO  0000001000+00000048+00000+0001T   00000048+0000001022          1400 U57090               1AZ
585368000585368               585368               170213GP     1400+00000+GP0000002190+0000002190+000000000+000000307+0000002490+0000000007+I20000000000+0000002490+Z
585368001585368089-000098     585368006003000677443KEY CHAIN OPENER ASSTD 0000001000+00001314+00000+0001T   00001314+0000001028          1400 U57205               1AZ
585368002585368077-000150-D   585368006003000054343GIFT-WRAP CELLPHANE CLR0000001000+00000876+00000+0001T   00000876+0000001028          1400 U57112               1AZ
585369000585369               585369               170213GP     1400+00000+GP0000002717+0000002717+000000000+000000381+0000003090+0000000008+I20000000000+0000003090+Z
585369001585369027-000082     585369006001023760258SCOURERS ROUND   PACK-60000001000+00001227+00000+0001T   00001227+0000001031          1400 U57212               1AZ
585369002585369036-000605     585369006001023158611WASHING-PEGS WDN PCK-240000001000+00001490+00000+0001T   00001490+0000001031          1400 U57212               1AZ
585370000585370               585370               170213GP     1400+00000+GP0000004418+0000004418+000000000+000000620+0000005030+0000000008+I20000000000+0000005030+Z
585370001585370019-071596     585370006001023733078PEBBLES GLS 250g ASSTD.0000001000+00001753+00000+0001T   00001753+0000001031          1400 U57510               1AZ
585370002585370032-000235     585370006001023468444MIRROR HAND 13X15CM    0000001000+00002630+00000+0001T   00002630+0000001031          1400 U57510               1AZ
585370003585370112-116038     585370006003000534906TCS CARRIER BAG MIDI   0000001000+00000035+00000+0001T   00000035+0000001031          1400 U57090               1AZ
585371000585371               585371               170213GP     1400+00000+GP0000007672+0000007672+000000000+000001075+0000008747+0000000000+I40000008747+0000000000+Z
585371001585371304-001011     585371006001023806727FLWR ROSE RED W/BEAR   0000001000+00000613+00000+0001T   00000788+0006471035          1400 U57510               1AZ
585371002585371903-000897     585371008692806325207SWT CHOC DBL MINI ROLL 0000001000+00000876+00000+0001T   00000876+0000001035          1400 U57150               1AZ
585371003585371018-000136     585371006001023659026MUG OCC LOVE W/PLUSH   0000001000+00003507+00000+0001T   00003507+0000001035          1400 U57515               1AZ
585371004585371077-000310     585371006001023608635GIFT-BAG 18X23CM GLOSS 0000001000+00001314+00000+0001T   00001314+0000001035          1400 U57112               1AZ
585371005585371112-116069     585371006003000535064TCS CARRIER BAG JUMBO  0000001000+00000048+00000+0001T   00000048+0000001035          1400 U57090               1AZ
585371006585371903-000844     585371005010478432567SWT CANDY DL LUV HEARTS0000001000+00001314+00000+0001T   00001314+0000001035          1400 U57150               1AZ
585372000585372               585372               170213GP     1400+00000+GP0000038017+0000038017+000000000+000005326+0000043343+0000000000+I40000043343+0000000000+Z
585372001585372112-116069     585372006003000535064TCS CARRIER BAG JUMBO  0000001000+00000048+00000+0001T   00000048+0000001038          1400 U57090               1AZ
585372002585372077-000245     585372006001023759214GIFT-RIBBON METALLICx2 0000002000+00001227+00000+0001T   00001227+0000001038          1400 U57112               1AZ
585372003585372369-000267     585372006003000294763BABY FRICTION CAR ASSTD0000001000+00002630+00000+0001T   00002630+0000001038          1400 U57745               1AZ
585372004585372263-000415     585372006003000600571V/TOOLS PLASTIC ASSEMBL0000001000+00003507+00000+0001T   00003507+0000001038          1400 U57710               1AZ
585372005585372366-000900     585372006003000006960DRESS UP WINGS BUG     0000001000+00006139+00000+0001T   00006139+0000001038          1400 U57131               1AZ
585372006585372263-000180     585372006001023790712TRUCK PL TRANSPORTER   0000001000+00010525+00000+0001T   00010525+0000001038          1400 U57710               1AZ
585372007585372365-003053     585372006001023542250PLAY DOCTOR MEDICAL-CNT0000001000+00004385+00000+0001T   00004385+0000001038          1400 U57725               1AZ
585372008585372077-000309-A   585372006003000671007GIFT-BAG HOLOGRAM JMB  0000003000+00002192+00000+0001T   00002192+0000001038          1400 U57112               1AZ
585372009585372077-000455     585372006003000285389G/BAG METALLIC LRG SOL 0000001000+00001753+00000+0001T   00001753+0000001038          1400 U57112               1AZ
585373000585373               585373               170213GP     1400+00000+GP0000017275+0000017275+000000000+000002421+0000019696+0000000000+I40000019696+0000000000+Z
585373001585373903-002890     585373008935001721352MENTOS GUM PURE F/MINT 0000001000+00001051+00000+0001T   00001051+0000001041          1400 U57150               1AZ
585373002585373368-000113     585373006001023780874PLUSH BLINGED LOVE 30cm0000001000+00012279+00000+0001T   00012279+0000001041          1400 U57745               1AZ
585373003585373077-000299-A   585373006003000670888GIFT-BAG PAPER JMB LOVE0000001000+00001753+00000+0001T   00001753+0000001041          1400 U57112               1AZ
585373004585373369-001010     585373006001023864222BATH VINYL DUCK 4PC    0000001000+00002192+00000+0001T   00002192+0000001041          1400 U57745               1AZ
585374000585374               585374               170213GP     1400+00000+GP0000001753+0000001753+000000000+000000246+0000001990+0000000009+I20000000000+0000001990+Z
585374001585374007-000192     585374006009635830062BOOK H/COVER A4 192PAGE0000001000+00001753+00000+0001T   00001753+0000001042          1400 U57130               1AZ
585375000585375               585375               170213GP     1400+00000+GP0000000876+0000000876+000000000+000000123+0000000990+0000000009+I20000000000+0000000990+Z
585375001585375071-001019     585375006001023474513MARKER BLACK NAME-PEN  0000001000+00000876+00000+0001T   00000876+0000001043          1400 U57130               1AZ
585376000585376               585376               170213GP     1400+00000+GP0000009467+0000009467+000000000+000001327+0000010794+0000000000+I40000010794+0000000000+Z
585376001585376567-011436     585376009780857260611BK STICKER GIRLS ACTIVI0000001000+00003507+00000+0001T   00003507+0000001047          1400 U57757               1AZ
585376002585376903-003051     585376008024431008703SWT CHOCO PARTY 25G    0000001000+00000876+00000+0001T   00000876+0000001047          1400 U57150               1AZ
585376003585376903-003050     585376008024431008239SWT CHOC CONE H/NUT 25G0000001000+00000876+00000+0001T   00000876+0000001047          1400 U57150               1AZ
585376004585376006-000124     585376006003000625888BALLOONS 10PC MIX COL  0000001000+00001753+00000+0001T   00001753+0000001047          1400 U57131               1AZ
585376005585376006-000120     585376006001023346889BALLOONS 10PC MIX COL  0000001000+00001753+00000+0001T   00001753+0000001047          1400 U57131               1AZ
585376006585376079-000510     585376006001023509079CRAYONS WAX 12-COLOUR  0000001000+00002455+00000+0001T   00002455+0000001047          1400 U57130               1AZ
585376007585376006-000120     585376006001023346889BALLOONS 10PC MIX COL  0000001000-00001753+00000+0001T   00001753+0000001047          1400 U571311IC            1 Z
585377000585377               585377               170213GP     1400+00000+GP0000003945+0000003945+000000000+000000553+0000004498+0000000000+I40000004498+0000000000+Z
585377001585377560-000107     585377006003000547906DOMESTIC 3PC MINI PETS 0000001000+00001753+00000+0001T   00001753+0000001048          1400 U57745               1AZ
585377002585377033-000780     585377006001023752611COSMETIC-BRUSH-SET 7PCE0000001000+00002192+00000+0001T   00002192+0000001048          1400 U57200               1AZ
585378000585378               585378               170213GP     1400+00000+GP0000004384+0000004384+000000000+000000614+0000004990+0000000008+I20000000000+0000004990+Z
585378001585378566-000359     585378006003000582709STICKER BOOK LOVE SPARK0000002000+00002192+00000+0001T   00002192+0000001048          1400 U57130               1AZ
585379000585379               585379               170213GP     1400+00000+GP0000000035+0000000035+000000000+000000005+0000000040+0000000000+I20000000000+0000000040+Z
585379001585379112-116038     585379006003000534906TCS CARRIER BAG MIDI   0000001000+00000035+00000+0001T   00000035+0000001049          1400 U57090               1AZ
585380000585380               585380               170213GP     1400+00000+GP0000015827+0000015827+000000000+000002220+0000018047+0000000000+I40000018047+0000000000+Z
585380001585380077-000299-A   585380006003000670888GIFT-BAG PAPER JMB LOVE0000001000+00001753+00000+0001T   00001753+0000001052          1400 U57112               1AZ
585380002585380077-000270     585380006003000395453GIFT-BAG PPR JMB 33X45 0000001000+00002630+00000+0001T   00002630+0000001052          1400 U57112               1AZ
585380003585380077-000299-A   585380006003000670888GIFT-BAG PAPER JMB LOVE0000001000+00001753+00000+0001T   00001753+0000001052          1400 U57112               1AZ
585380004585380301-085008     585380006003000673933ORN OCC.LOVE TINSEL HRT0000001000+00003069+00000+0001T   00003069+0000001052          1400 U57505               1AZ
585380005585380007-000601     585380006003000541195BOOK COVER ADHESIVE 2M 0000001000+00002630+00000+0001T   00002630+0000001052          1400 U57130               1AZ
585380006585380077-000011-D   585380006001023808554TISSUE-WRAP WHITE 10PCE0000001000+00000876+00000+0001T   00000876+0000001052          1400 U57112               1AZ
585380007585380566-000359     585380006003000582709STICKER BOOK LOVE SPARK0000001000+00002192+00000+0001T   00002192+0000001052          1400 U57130               1AZ
585380008585380077-000011-C   585380006001023808523TISSUE 10xSHTS RED     0000001000+00000876+00000+0001T   00000876+0000001052          1400 U57112               1AZ
585380009585380112-116069     585380006003000535064TCS CARRIER BAG JUMBO  0000001000+00000048+00000+0001T   00000048+0000001052          1400 U57090               1AZ
585381000585381               585381               170213GP     1400+00000+GP0000003330+0000003330+000000000+000000467+0000003790+0000000007+I20000000000+0000003790+Z
585381001585381031-000873-A   585381006003000675425P/FRAME WDN WHITE 10X150000001000+00002630+00000+0001T   00002630+0000001059          1400 U57510               1AZ
585381002585381018-000177     585381006001023797513MUG MINI LOVE ASSTD    0000001000+00000700+00000+0001T   00000700+0000001059          1400 U57515               1AZ
585382000585382               585382               170213GP     1400+00000+GP0000001490+0000001490+000000000+000000209+0000001690+0000000009+I20000000000+0000001690+Z
585382001585382077-000299     585382006003000395576G/BAG 32x25cm LRG LOVE 0000001000+00001490+00000+0001T   00001490+0000001154          1400 U57112               1AZ
585383000585383               585383               170213GP     1400+00000+GP0000011216+0000011216+000000000+000001573+0000012780+0000000009+I20000000000+0000012780+Z
585383001585383077-000290     585383006001023902023GIFT BOX 26x32x13cm    0000001000+00001753+00000+0001T   00001753+0000001155          1400 U57112               1AZ
585383002585383030-000031-A   585383006003000457588PLAQUE W/WORDS ASSTD   0000001000+00004385+00000+0001T   00004823+0006471155          1400 U57505               1AZ
585383003585383080-000133-A   585383006003000647019MINI VALENTINES CARD   0000002000+00000437+00000+0001T   00000437+0000001155          1400 U57112               1AZ
585383004585383080-000124     585383006003000297733CARD & ENV VALENTINES  0000001000+00001578+00000+0001T   00001578+0000001155          1400 U57112               1AZ
585383005585383464-000121     585383006003000640492PLAYING CARDS MINI     0000002000+00000700+00000+0001T   00000700+0000001155          1400 U57785               1AZ
585383006585383077-000311     585383006001023608666GIFT-BAG 11X14CM GLOSS 0000002000+00000613+00000+0001T   00000613+0000001155          1400 U57112               1AZ
585384000585384               585384               170213GP     1400+00000+GP0000000262+0000000262+000000000+000000037+0000000290+0000000009+I20000000000+0000000290+Z
585384001585384007-000405     585384006009635830369EXERCISE-BOOK A5 72PAGE0000001000+00000262+00000+0001T   00000262+0000001212          1400 U57130               1AZ
585385000585385               585385               170213GP     1400+00000+GP0000002630+0000002630+000000000+000000369+0000002990+0000000009+I20000000000+0000002990+Z
585385001585385079-013032-D   585385006003000389643RIBBONS                0000001000+00002630+00000+0001T   00002630+0000001213          1400 U57130               1AZ
585386000585386               585386               170213GP     1400+00000+GP0000000788+0000000788+000000000+000000111+0000000890+0000000009+I20000000000+0000000890+Z
585386001585386903-000200     585386006009826020234SWT CHOC RP CHOCO 23G  0000001000+00000788+00000+0001T   00000788+0000001215          1400 U57150               1AZ
585387000585387               585387               170213GP     1400+00000+GP0000010572+0000010572+000000000+000001481+0000012050+0000000003+I20000000000+0000012050+Z
585387001585387159-000107     585387006001023640406SHOWER-CURTAIN 180cm   0000002000+00005262+00000+0001T   00006139+0008191234          1400 U57200               1AZ
585387002585387112-116069     585387006003000535064TCS CARRIER BAG JUMBO  0000001000+00000048+00000+0001T   00000048+0000001234          1400 U57090               1AZ
585388000585388               585388               170213GP     1400+00000+GP0000002630+0000002630+000000000+000000369+0000002999+0000000000+I40000002999+0000000000+Z
585388001585388077-000270     585388006003000395453GIFT-BAG PPR JMB 33X45 0000001000+00002630+00000+0001T   00002630+0000001235          1400 U57112               1AZ
585389000585389               585389               170213GP     1400+00000+GP0000003449+0000003449+000000000+000000485+0000003930+0000000004+I20000000000+0000003930+Z
585389001585389903-000155     585389006009803374435SWT LOLLY I LUV U HEART0000004000+00000525+00000+0001T   00000525+0000001335          1400 U57150               1AZ
585389002585389077-000470     585389006003000330171G-BAG DESGN SML 11X14CM0000001000+00001314+00000+0001T   00001314+0000001335          1400 U57112               1AZ
585389003585389112-116038     585389006003000534906TCS CARRIER BAG MIDI   0000001000+00000035+00000+0001T   00000035+0000001335          1400 U57090               1AZ
585390000585390               585390               170213GP     1400+00000+GP0000008975+0000008975+000000000+000001258+0000010233+0000000000+I40000010233+0000000000+Z
585390001585390903-000095     585390006001704011495SWT SPECKLED-EGGS 100G 0000001000+00002104+00000+0001T   00002104+0000001405          1400 U57150               1AZ
585390002585390903-000843     585390008693029031067SWT GUMMY JELAXY 80G   0000001000+00000964+00000+0001T   00000964+0000001405          1400 U57150               1AZ
585390003585390150-000770     585390006005387000128UTILITY BOX MEGA       0000001000+00003244+00000+0001T   00003244+0000001405          1400 U57810               1AZ
585390004585390903-000844     585390005010478432567SWT CANDY DL LUV HEARTS0000002000+00001314+00000+0001T   00001314+0000001405          1400 U57150               1AZ
585390005585390112-116038     585390006003000534906TCS CARRIER BAG MIDI   0000001000+00000035+00000+0001T   00000035+0000001405          1400 U57090               1AZ
585391000585391               585391               170213GP     1400+00000+GP0000007627+0000007627+000000000+000001069+0000008690+0000000006+I20000000000+0000008690+Z
585391001585391567-011902     585391006003000676040BK FOOD GOLDEN CLOUD   0000001000+00002630+00000+0001T   00002630+0000001458          1400 U57757               1AZ
585391002585391567-011906     585391006003000676286BK PROMO CLEARANCE     0000001000+00003507+00000+0001T   00004385+0008141458          1400 U57757               1AZ
585391003585391077-000299     585391006003000395576G/BAG 32x25cm LRG LOVE 0000001000+00001490+00000+0001T   00001490+0000001458          1400 U57112               1AZ
585392000585392               585392               170213GP     1400+00000+GP0000000035+0000000035+000000000+000000005+0000000040+0000000000+I20000000000+0000000040+Z
585392001585392112-116038     585392006003000534906TCS CARRIER BAG MIDI   0000001000+00000035+00000+0001T   00000035+0000001459          1400 U57090               1AZ
585393000585393               585393               170213GP     1400+00000+GP0000012676+0000012676+000000000+000001776+0000014452+0000000000+I40000014452+0000000000+Z
585393001585393077-000299-A   585393006003000670888GIFT-BAG PAPER JMB LOVE0000001000+00001753+00000+0001T   00001753+0000001502          1400 U57112               1AZ
585393002585393368-000614     585393006001023705808PLUSH LOVE 30cm        0000001000+00008771+00000+0001T   00008771+0000001502          1400 U57745               1AZ
585393003585393903-000090     585393006009826020821SWT GS CHOCO COINS 60g 0000001000+00002104+00000+0001T   00002104+0000001502          1400 U57150               1AZ
585393004585393112-116069     585393006003000535064TCS CARRIER BAG JUMBO  0000001000+00000048+00000+0001T   00000048+0000001502          1400 U57090               1AZ
585394000585394               585394               170213GP     1400+00000+GP0000004385+0000004385+000000000+000000614+0000004990+0000000009+I20000000000+0000004990+Z
585394001585394567-011901     585394006003000677610BK PROMO CLEARANCE     0000001000+00004385+00000+0001T   00006139+0008141503          1400 U57757               1AZ
585395000585395               585395               170213GP     1400+00000+GP0000001753+0000001753+000000000+000000246+0000001990+0000000009+I20000000000+0000001990+Z
585395001585395080-000111     585395006003000252695CARD&ENVELPE - MUSICAL 0000001000+00001753+00000+0001T   00001753+0000001509          1400 U57112               1AZ
585396000585396               585396               170213GP     1400+00000+GP0000007016+0000007016+000000000+000000983+0000007990+0000000009+I20000000000+0000007990+Z
585396001585396562-000070     585396006003000600748EDU PLAY DOUGH 50g 8pc 0000001000+00007016+00000+0001T   00007016+0000001515          1400 U57755               1AZ
585397000585397               585397               170213GP     1400+00000+GP0000001753+0000001753+000000000+000000246+0000001990+0000000009+I20000000000+0000001990+Z
585397001585397560-000703     585397006003000332403INSECTS 9PC ASSTD      0000001000+00001753+00000+0001T   00001753+0000001516          1400 U57745               1AZ
585398000585398               585398               170213GP     1400+00000+GP0000001402+0000001402+000000000+000000197+0000001590+0000000009+I20000000000+0000001590+Z
585398001585398304-001204     585398006001023737984FLOWER OCC. TEDDY/ROSES0000001000+00001402+00000+0001T   00001490+0006471519          1400 U57510               1AZ
585399000585399               585399               170213GP     1400+00000+GP0000026334+0000026334+000000000+000003695+0000030020+0000000009+I20000000000+0000030020+Z
585399001585399077-000245     585399006001023759214GIFT-RIBBON METALLICx2 0000010000+00001227+00000+0001T   00001227+0000001529          1400 U57112               1AZ
585399002585399077-000151     585399006008766114676GIFT-WRAP C/PHANE ASSTD0000016000+00000876+00000+0001T   00000876+0000001529          1400 U57112               1AZ
585399003585399112-116069     585399006003000535064TCS CARRIER BAG JUMBO  0000001000+00000048+00000+0001T   00000048+0000001529          1400 U57090               1AZ
585400000585400               585400               170213GP     1400+00000+GP0000004151+0000004151+000000000+000000583+0000004734+0000000000+I40000004734+0000000000+Z
585400001585400033-010721     585400006001023678669SAFETY-PINS 20PCE ASSTD0000001000+00000700+00000+0001T   00000700+0000001531          1400 U57200               1AZ
585400002585400033-000106     585400006001023678027ELASTIC  6mmx3m  CARDED0000003000+00000876+00000+0001T   00000876+0000001531          1400 U57200               1AZ
585400003585400033-005991     585400006001023678546NEEDLES H/HOLD-REPAIR  0000001000+00000788+00000+0001T   00000788+0000001531          1400 U57200               1AZ
585400004585400112-116038     585400006003000534906TCS CARRIER BAG MIDI   0000001000+00000035+00000+0001T   00000035+0000001531          1400 U57090               1AZ
585401000585401               585401               170213GP     1400+00000+GP0000002628+0000002628+000000000+000000369+0000002990+0000000007+I20000000000+0000002990+Z
585401001585401007-000127     585401006009685853431BOOK H/COVER MEMO 144PG0000003000+00000876+00000+0001T   00000876+0000001533          1400 U57130               1AZ
585402000585402               585402               170213GP     1400+00000+GP0000002630+0000002630+000000000+000000369+0000002990+0000000009+I20000000000+0000002990+Z
585402001585402368-000040     585402006003000671786PLUSH ICONS 7.5cm      0000001000+00002630+00000+0001T   00002630+0000001537          1400 U57745               1AZ
585403000585403               585403               170213GP     1400+00000+GP0000005260+0000005260+000000000+000000738+0000005990+0000000008+I20000000000+0000005990+Z
585403001585403031-000868-B   585403006001023798565P/FRAME PL BLCK 13X18CM0000002000+00002630+00000+0001T   00002630+0000001646          1400 U57510               1AZ
585404000585404               585404               170213GP     1400+00000+GP0000014337+0000014337+000000000+000002010+0000016340+0000000007+I20000000000+0000016340+Z
585404001585404034-079059     585404006003000007875COOEY SOOTHER SILICONE 0000001000+00003069+00000+0001T   00003069+0000001648          1400 U57215               1AZ
585404002585404072-020285     585404006003000451364PET CAT TOY BALLS PK-4 0000001000+00002630+00000+0001T   00002630+0000001648          1400 U57870               1AZ
585404003585404072-020300     585404006008632000430DOG-TOY TUG-A-BALL SML 0000001000+00002630+00000+0001T   00002630+0000001648          1400 U57870               1AZ
585404004585404112-116069     585404006003000535064TCS CARRIER BAG JUMBO  0000001000+00000048+00000+0001T   00000048+0000001648          1400 U57090               1AZ
585404005585404206-000260     585404006003000632183ICE TRAY BUILDING BLOCK0000001000+00003507+00000+0001T   00003507+0000001648          1400 U57321               1AZ
585404006585404206-000120     585404006003000628308PEELER CARROT SHARPENER0000001000+00001753+00000+0001T   00001753+0000001648          1400 U57321               1AZ
585404007585404464-000121     585404006003000640492PLAYING CARDS MINI     0000001000+00000700+00000+0001T   00000700+0000001648          1400 U57785               1AZ
585405000585405               585405               170213GP     1400+00000+GP0000005746+0000005746+000000000+000000806+0000006552+0000000000+I40000006552+0000000000+Z
585405001585405024-091103-E   585405006003000596300CAKE BOX 2PC SQUARE    0000001000+00001753+00000+0001T   00001753+0000001650          1400 U57300               1AZ
585405002585405080-000139     585405006003000611690CARD & ENV MINI SET 6PC0000001000+00002192+00000+0001T   00002192+0000001650          1400 U57112               1AZ
585405003585405024-091100     585405006001023914224BAKING-CUPS PAPER 100PC0000001000+00001753+00000+0001T   00001753+0000001650          1400 U57300               1AZ
585405004585405112-116069     585405006003000535064TCS CARRIER BAG JUMBO  0000001000+00000048+00000+0001T   00000048+0000001650          1400 U57090               1AZ
585406000585406               585406               170213GP     1400+00000+GP0000004385+0000004385+000000000+000000614+0000004999+0000000000+I40000004999+0000000000+Z
585406001585406159-003600     585406006001023606174TOILET-BRUSH W/STAND PL0000001000+00004385+00000+0001T   00004385+0000001651          1400 U57200               1AZ
585407000585407               585407               170213GP     1400+00000+GP0000002630+0000002630+000000000+000000369+0000002999+0000000000+I40000002999+0000000000+Z
585407001585407368-000040     585407006003000671786PLUSH ICONS 7.5cm      0000001000+00002630+00000+0001T   00002630+0000001654          1400 U57745               1AZ
585408000585408               585408               170213GP     1400+00000+GP0000003507+0000003507+000000000+000000491+0000003990+0000000008+I20000000000+0000003990+Z
585408001585408562-058911     585408006001023705778EDU MAGNETIC UPPER CASE0000001000+00003507+00000+0001T   00003507+0000001704          1400 U57755               1AZ
585409000585409               585409               170213GP     1400+00000+GP0000003542+0000003542+000000000+000000496+0000004030+0000000008+I20000000000+0000004030+Z
585409001585409018-000136     585409006001023659026MUG OCC LOVE W/PLUSH   0000001000+00003507+00000+0001T   00003507+0000001704          1400 U57515               1AZ
585409002585409112-116038     585409006003000534906TCS CARRIER BAG MIDI   0000001000+00000035+00000+0001T   00000035+0000001704          1400 U57090               1AZ
585410000585410               585410               170213GP     1400+00000+GP0000014944+0000014944+000000000+000002093+0000017030+0000000007+I20000000000+0000017030+Z
585410001585410586-098616     585410006001492986166WATCH TEEN CHARM HRT   0000001000+00011402+00000+0001T   00011402+0000001706          1400 U57160               1AZ
585410002585410018-000136     585410006001023659026MUG OCC LOVE W/PLUSH   0000001000+00003507+00000+0001T   00003507+0000001706          1400 U57515               1AZ
585410003585410112-116038     585410006003000534906TCS CARRIER BAG MIDI   0000001000+00000035+00000+0001T   00000035+0000001706          1400 U57090               1AZ
585411000585411               585411               170213GP     1400+00000+GP0000001753+0000001753+000000000+000000246+0000001990+0000000009+I20000000000+0000001990+Z
585411001585411077-000299-A   585411006003000670888GIFT-BAG PAPER JMB LOVE0000001000+00001753+00000+0001T   00001753+0000001708          1400 U57112               1AZ
585412000585412               585412               170213GP     1400+00000+GP0000004646+0000004646+000000000+000000651+0000005297+0000000000+I40000005297+0000000000+Z
585412001585412366-000400     585412006001023918468DRESS UP SHOES IN BOX  0000001000+00003507+00000+0001T   00003507+0000001710          1400 U57131               1AZ
585412002585412903-000087     585412006001704000161SWT SPECKLED-EGGS 50G  0000001000+00001139+00000+0001T   00001139+0000001710          1400 U57150               1AZ
585413000585413               585413               170213GP     1400+00000+GP0000012135+0000012135+000000000+000001701+0000013836+0000000000+I40000013836+0000000000+Z
585413001585413041-093000     585413006003000320882B/GIFT SET 4PC B/RANGE 0000001000+00007016+00000+0001T   00007016+0000001712          1400 U57200               1AZ
585413002585413903-000520     585413006001704009898SWT GUMMY MINI SOUR 60g0000001000+00000876+00000+0001T   00000876+0000001712          1400 U57150               1AZ
585413003585413903-000095     585413006001704011495SWT SPECKLED-EGGS 100G 0000002000+00002104+00000+0001T   00002104+0000001712          1400 U57150               1AZ
585413004585413112-116038     585413006003000534906TCS CARRIER BAG MIDI   0000001000+00000035+00000+0001T   00000035+0000001712          1400 U57090               1AZ
585414000585414               585414               170213GP     1400+00000+GP0000003069+0000003069+000000000+000000430+0000003490+0000000009+I20000000000+0000003490+Z
585414001585414301-085008     585414006003000673933ORN OCC.LOVE TINSEL HRT0000001000+00003069+00000+0001T   00003069+0000001713          1400 U57505               1AZ
585415000585415               585415               170213GP     1400+00000+GP0000000035+0000000035+000000000+000000005+0000000040+0000000000+I20000000000+0000000040+Z
585415001585415112-116038     585415006003000534906TCS CARRIER BAG MIDI   0000001000+00000035+00000+0001T   00000035+0000001714          1400 U57090               1AZ
585416000585416               585416               170213GP     1400+00000+GP0000006521+0000006521+000000000+000000915+0000007430+0000000006+I20000000000+0000007430+Z
585416001585416006-000111     585416006003000519385BALLOONS LARGE 12PCE   0000001000+00002630+00000+0001T   00002630+0000001716          1400 U57131               1AZ
585416002585416071-081101-A   585416006003000326549GLUE-STICK 25g BLISTER 0000001000+00000788+00000+0001T   00000788+0000001716          1400 U57130               1AZ
585416003585416007-000095     585416006003000530434ENVELOPES WHITE 20PK C60000001000+00002192+00000+0001T   00002192+0000001716          1400 U57130               1AZ
585416004585416903-000494     585416006001704009911SWT GUMMY TEENY TEDDIES0000001000+00000876+00000+0001T   00000876+0000001716          1400 U57150               1AZ
585416005585416112-116038     585416006003000534906TCS CARRIER BAG MIDI   0000001000+00000035+00000+0001T   00000035+0000001716          1400 U57090               1AZ
585417000585417               585417               170213GP     1400+00000+GP0000002630+0000002630+000000000+000000369+0000002990+0000000009+I20000000000+0000002990+Z
585417001585417077-000270     585417006003000395453GIFT-BAG PPR JMB 33X45 0000001000+00002630+00000+0001T   00002630+0000001717          1400 U57112               1AZ
585418000585418               585418               170213GP     1400+00000+GP0000003507+0000003507+000000000+000000491+0000003990+0000000008+I20000000000+0000003990+Z
585418001585418018-005009     585418006001023725608MUG W/PLUSH-BEAR LOVE  0000001000+00003507+00000+0001T   00003507+0000001719          1400 U57515               1AZ
585419000585419               585419               170213GP     1400+00000+GP0000001927+0000001927+000000000+000000270+0000002190+0000000007+I20000000000+0000002190+Z
585419001585419077-000311     585419006001023608666GIFT-BAG 11X14CM GLOSS 0000001000+00000613+00000+0001T   00000613+0000001721          1400 U57112               1AZ
585419002585419077-000310     585419006001023608635GIFT-BAG 18X23CM GLOSS 0000001000+00001314+00000+0001T   00001314+0000001721          1400 U57112               1AZ
585420000585420               585420               170213GP     1400+00000+GP0000012570+0000012570+000000000+000001763+0000014333+0000000000+I10000013433+0000000900+Z
585420001585420304-001011     585420006001023806727FLWR ROSE RED W/BEAR   0000001000+00000613+00000+0001T   00000788+0006471723          1400 U57510               1AZ
585420002585420018-000170     585420006001023775528MUG OCC. LOVE 2PC MINI 0000001000+00002192+00000+0001T   00002192+0000001723          1400 U57515               1AZ
585420003585420030-000031-A   585420006003000457588PLAQUE W/WORDS ASSTD   0000001000+00004385+00000+0001T   00004823+0006471723          1400 U57505               1AZ
585420004585420006-000120     585420006001023346889BALLOONS 10PC MIX COL  0000001000+00001753+00000+0001T   00001753+0000001723          1400 U57131               1AZ
585420005585420039-000026     585420006001023551610C/TAPERED 25CM M/RED   0000002000+00001051+00000+0001T   00001051+0000001723          1400 U57510               1AZ
585420006585420077-000299     585420006003000395576G/BAG 32x25cm LRG LOVE 0000001000+00001490+00000+0001T   00001490+0000001723          1400 U57112               1AZ
585420007585420112-116038     585420006003000534906TCS CARRIER BAG MIDI   0000001000+00000035+00000+0001T   00000035+0000001723          1400 U57090               1AZ
585421000585421               585421               170213GP     1400+00000+GP0000004432+0000004432+000000000+000000621+0000005053+0000000000+I40000005053+0000000000+Z
585421001585421080-000127     585421006003000424351VALENTINES DAY 36x24CM 0000001000+00002192+00000+0001T   00002192+0000001725          1400 U57112               1AZ
585421002585421018-000170     585421006001023775528MUG OCC. LOVE 2PC MINI 0000001000+00002192+00000+0001T   00002192+0000001725          1400 U57515               1AZ
585421003585421112-116069     585421006003000535064TCS CARRIER BAG JUMBO  0000001000+00000048+00000+0001T   00000048+0000001725          1400 U57090               1AZ
585422000585422               585422               170213GP     1400+00000+GP0000000437+0000000437+000000000+000000062+0000000490+0000000009+I20000000000+0000000490+Z
585422001585422080-000133-A   585422006003000647019MINI VALENTINES CARD   0000001000+00000437+00000+0001T   00000437+0000001725          1400 U57112               1AZ
585423000585423               585423               170213GP     1400+00000+GP0000000876+0000000876+000000000+000000123+0000000990+0000000009+I20000000000+0000000990+Z
585423001585423306-000023     585423006001023606976COTTON-WOOL-BALLS 50PCE0000001000+00000876+00000+0001T   00000876+0000001726          1400 U57200               1AZ
585424000585424               585424               170213GP     1400+00000+GP0000002630+0000002630+000000000+000000369+0000002999+0000000000+I40000002999+0000000000+Z
585424001585424077-000270     585424006003000395453GIFT-BAG PPR JMB 33X45 0000001000+00002630+00000+0001T   00002630+0000001726          1400 U57112               1AZ
585425000585425               585425               170213GP     1400+00000+GP0000003507+0000003507+000000000+000000491+0000003990+0000000008+I20000000000+0000003990+Z
585425001585425031-000844     585425006001023851789P/FRAME WDN WORDS 2ASS 0000001000+00003507+00000+0001T   00003507+0000001728          1400 U57510               1AZ
585426000585426               585426               170213GP     1400+00000+GP0000001489+0000001489+000000000+000000209+0000001690+0000000008+I20000000000+0000001690+Z
585426001585426077-000011-D   585426006001023808554TISSUE-WRAP WHITE 10PCE0000001000+00000876+00000+0001T   00000876+0000001729          1400 U57112               1AZ
585426002585426077-000311     585426006001023608666GIFT-BAG 11X14CM GLOSS 0000001000+00000613+00000+0001T   00000613+0000001729          1400 U57112               1AZ
585427000585427               585427               170213GP     1400+00000+GP0000008365+0000008365+000000000+000001172+0000009530+0000000007+I20000000000+0000009530+Z
585427001585427041-093000     585427006003000320882B/GIFT SET 4PC B/RANGE 0000001000+00007016+00000+0001T   00007016+0000001730          1400 U57200               1AZ
585427002585427077-000310     585427006001023608635GIFT-BAG 18X23CM GLOSS 0000001000+00001314+00000+0001T   00001314+0000001730          1400 U57112               1AZ
585427003585427112-116038     585427006003000534906TCS CARRIER BAG MIDI   0000001000+00000035+00000+0001T   00000035+0000001730          1400 U57090               1AZ
585428000585428               585428               170213GP     1400+00000+GP0000001490+0000001490+000000000+000000209+0000001690+0000000009+I20000000000+0000001690+Z
585428001585428077-000452     585428006003000284986G/BAG METALLIC MED EMB 0000001000+00001490+00000+0001T   00001490+0000001737          1400 U57112               1AZ
585429000585429               585429               170213GP     1400+00000+GP0000003506+0000003506+000000000+000000492+0000003990+0000000008+I20000000000+0000003990+Z
585429001585429566-000007     585429006001023761187S/BOOK SUPER VALUE     0000001000+00001753+00000+0001T   00001753+0000001738          1400 U57130               1AZ
585429002585429567-011010     585429009780799368390BOOK CHILDREN'S READER 0000001000+00001753+00000+0001T   00002630+0008131738          1400 U57757               1AZ
585430000585430               585430               170213GP     1400+00000+GP0000001753+0000001753+000000000+000000246+0000001990+0000000009+I20000000000+0000001990+Z
585430001585430071-003012     585430006001023802996PEN CLICK 10PK BLUE    0000001000+00001753+00000+0001T   00001753+0000001739          1400 U57130               1AZ
585431000585431               585431               170213GP     1400+00000+GP0000007015+0000007015+000000000+000000983+0000007990+0000000008+I20000000000+0000007990+Z
585431001585431031-080508     585431006001023802415P/FRAME PL 22X11CM LOVE0000001000+00004385+00000+0001T   00004385+0000001741          1400 U57510               1AZ
585431002585431077-000270     585431006003000395453GIFT-BAG PPR JMB 33X45 0000001000+00002630+00000+0001T   00002630+0000001741          1400 U57112               1AZ
585432000585432               585432               170213GP     1400+00000+GP0000001753+0000001753+000000000+000000246+0000001990+0000000009+I20000000000+0000001990+Z
585432001585432077-000289     585432006001023901996GIFT BOX 20x25x11cm    0000001000+00001753+00000+0001T   00001753+0000001748          1400 U57112               1AZ
585433000585433               585433               170213GP     1400+00000+GP0000007940+0000007940+000000000+000001112+0000009050+0000000002+I20000000000+0000009050+Z
585433001585433018-005009     585433006001023725608MUG W/PLUSH-BEAR LOVE  0000001000+00003507+00000+0001T   00003507+0000001749          1400 U57515               1AZ
585433002585433031-080508     585433006001023802415P/FRAME PL 22X11CM LOVE0000001000+00004385+00000+0001T   00004385+0000001749          1400 U57510               1AZ
585433003585433112-116069     585433006003000535064TCS CARRIER BAG JUMBO  0000001000+00000048+00000+0001T   00000048+0000001749          1400 U57090               1AZ
585434000585434               585434               170213GP     1400+00000+GP0000002192+0000002192+000000000+000000307+0000002490+0000000009+I20000000000+0000002490+Z
585434001585434080-000127     585434006003000424351VALENTINES DAY 36x24CM 0000001000+00002192+00000+0001T   00002192+0000001749          1400 U57112               1AZ
585435000585435               585435               170213GP     1400+00000+GP0000001753+0000001753+000000000+000000246+0000001990+0000000009+I20000000000+0000001990+Z
585435001585435006-000109-A   585435006003000645435BALLOONS HELIUM 2PC    0000001000+00001753+00000+0001T   00001753+0000001750          1400 U57131               1AZ
585436000585436               585436               170213GP     1400+00000+GP0000008771+0000008771+000000000+000001228+0000009990+0000000009+I20000000000+0000009990+Z
585436001585436006-000165     585436006001023758392BALLOONS LRG BAG-OF-1000000001000+00008771+00000+0001T   00008771+0000001750          1400 U57131               1AZ
A17021300                                          08522502GPSLAVE 1                       2IC2IC
A17021301                                          17074587GPSLAVE 1                       U571IC
M17021391                              CASH        GPSLAVE 1                       Z-REPORT No.   624TOTAL (Sales - Refunds)           4887.32       CASH TO BE BANKED                 2836.70       DEBIT CARDS                          0.00       CREDIT CARDS                      2050.62       Z-READING                         4887.32       AIRTIME DEBIT CARD SALES             0.00       AIRTIME CARD SALES                   0.00       OVERS/UNDERS                         0.00       AIRTIME CASH SALES                   0.00       GIFT CARDS                           0.00       GIFT CARD CASH SALES                 0.00       T O T A L  CASH PAYOUTS              0.00                                                                                                                                                                                                                                                                                                                                                      Z
M17021392                              CASH        GPABSENT                                                                                                                                                                                          ANNUAL LEAVE                                                                                                                                                                                    DAY OFF                                                                                                                                                                                         COMMENTS                                                                                                                                                                                                                                                                                                                                                                                       Z
Y17021300                                          GP00000000430769+000076
ZGP17021319423 SLAVE 1      SALES DATA                     NEXT INVOICE NO.  585437 0624
F094251006-000108         1701170902310000072ICSLAVE 1
F094251006-000166-G       1701170902310000022ICSLAVE 1
F094251006-000167-F       1701170902310000102ICSLAVE 1
F094251006-000172-G       1701170902310000202ICSLAVE 1
F094251006-000172-H       1701170902310000202ICSLAVE 1
F094251006-000172-J       1701170902310000202ICSLAVE 1
X GP Slave 1 First invoice 585361 170213 Last invoice 585436 170213 Next invoice 585437 Total number of records 000000266 clbackup completed 19:42:57
