570257000570257               570257               170213GP     1400+00000+GP0000001174+0000001174+000000000+000000165+0000001330+0000000009+I20000000000+0000001330+Z
570257001570257007-010192     570257006009635830536BOOK H/COVER A5 192PAGE0000001000+00001139+00000+0001T   00001139+0000000947          1400 SY8130               2AZ
570257002570257112-116038     570257006003000534906TCS CARRIER BAG MIDI   0000001000+00000035+00000+0001T   00000035+0000000947          1400 SY8090               2AZ
570258000570258               570258               170213GP     1400+00000+GP0000003331+0000003331+000000000+000000467+0000003790+0000000008+I20000000000+0000003790+Z
570258001570258903-000520     570258006001704009898SWT GUMMY MINI SOUR 60g0000001000+00000876+00000+0001T   00000876+0000000954          1400 SY8150               2AZ
570258002570258562-000009     570258000730589212029PLAY MODELLING CARDED  0000001000+00002455+00000+0001T   00002455+0000000954          1400 SY8755               2AZ
570259000570259               570259               170213GP     1400+00000+GP0000002278+0000002278+000000000+000000320+0000002590+0000000008+I20000000000+0000002590+Z
570259001570259077-000384     570259006003000275243G/BAG HOT STMP 18x23CM 0000001000+00001490+00000+0001T   00001490+0000001110          1400 SY8112               2AZ
570259002570259077-000010-D   570259006001023123886CREPE-PAPER WHITE      0000001000+00000788+00000+0001T   00000788+0000001110          1400 SY8112               2AZ
570260000570260               570260               170213GP     1400+00000+GP0000003992+0000003992+000000000+000000560+0000004550+0000000002+I20000000000+0000004550+Z
570260001570260077-000245     570260006001023759214GIFT-RIBBON METALLICx2 0000001000+00001227+00000+0001T   00001227+0000001112          1400 SY8112               2AZ
570260002570260206-000630     570260006003000631919SPECTACLE CLEANING BRUS0000001000+00001227+00000+0001T   00001227+0000001112          1400 SY8321               2AZ
570260003570260077-000305     570260006003000395422GIFT-BAG WINE 10X35CM  0000001000+00001490+00000+0001T   00001490+0000001112          1400 SY8112               2AZ
570260004570260112-116069     570260006003000535064TCS CARRIER BAG JUMBO  0000001000+00000048+00000+0001T   00000048+0000001112          1400 SY8090               2AZ
570261000570261               570261               170213GP     1400+00000+GP0000000613+0000000613+000000000+000000086+0000000690+0000000009+I20000000000+0000000690+Z
570261001570261150-004030-H   570261006001023435798BATH-PLUG RUBBER WHITE 0000001000+00000613+00000+0001T   00000613+0000001118          1400 SY8810               2AZ
570262000570262               570262               170213GP     1400+00000+GP0000004470+0000004470+000000000+000000627+0000005090+0000000007+I20000000000+0000005090+Z
570262001570262077-000305     570262006003000395422GIFT-BAG WINE 10X35CM  0000001000+00001490+00000+0001T   00001490+0000001123          1400 SY8112               2AZ
570262002570262077-000299     570262006003000395576G/BAG 32x25cm LRG LOVE 0000002000+00001490+00000+0001T   00001490+0000001123          1400 SY8112               2AZ
570263000570263               570263               170213GP     1400+00000+GP0000002630+0000002630+000000000+000000369+0000002999+0000000000+I40000002999+0000000000+Z
570263001570263220-005001     570263006003000565917ELOFF TABLE FORKS 4PC  0000001000+00002630+00000+0001T   00002630+0000001125          1400 SY8300               2AZ
570264000570264               570264               170213GP     1400+00000+GP0000003904+0000003904+000000000+000000548+0000004450+0000000002+I20000000000+0000004450+Z
570264001570264903-000510     570264006001704012621SWEET MS ZBDZ S/BERRY  0000001000+00001227+00000+0001T   00001227+0000001128          1400 SY8150               2AZ
570264002570264903-000861     570264005010478430822SWT LOVE HEARTS SML    0000001000+00000876+00000+0001T   00000876+0000001128          1400 SY8150               2AZ
570264003570264077-000381     570264006003000247707GIFT-BAG 25X32CM S/COL 0000001000+00001753+00000+0001T   00001753+0000001128          1400 SY8112               2AZ
570264004570264112-116069     570264006003000535064TCS CARRIER BAG JUMBO  0000001000+00000048+00000+0001T   00000048+0000001128          1400 SY8090               2AZ
570265000570265               570265               170213GP     1400+00000+GP0000003278+0000003278+000000000+000000460+0000003730+0000000008+I20000000000+0000003730+Z
570265001570265079-006494     570265006003000159864GLITTER GLUE 5PCE 11cm 0000001000+00001490+00000+0001T   00001490+0000001137          1400 SY8130               2AZ
570265002570265566-000344     570265006001023994806STICKER ALBUM+STICKERS 0000001000+00001753+00000+0001T   00001753+0000001137          1400 SY8130               2AZ
570265003570265112-116038     570265006003000534906TCS CARRIER BAG MIDI   0000001000+00000035+00000+0001T   00000035+0000001137          1400 SY8090               2AZ
570266000570266               570266               170213GP     1400+00000+GP0000000876+0000000876+000000000+000000123+0000000990+0000000009+I20000000000+0000000990+Z
570266001570266903-000503     570266006001704006118SWT VAMPIRE FANGS 60G  0000001000+00000876+00000+0001T   00000876+0000001138          1400 SY8150               2AZ
570267000570267               570267               170213GP     1400+00000+GP0000007325+0000007325+000000000+000001026+0000008351+0000000000+I40000008351+0000000000+Z
570267001570267903-000843     570267008693029031067SWT GUMMY JELAXY 80G   0000003000+00000964+00000+0001T   00000964+0000001145          1400 SY8150               2AZ
570267002570267072-020346     570267006003000453047PET DRY TOWEL M/FIBRE  0000001000+00004385+00000+0001T   00004385+0000001145          1400 SY8870               2AZ
570267003570267112-116069     570267006003000535064TCS CARRIER BAG JUMBO  0000001000+00000048+00000+0001T   00000048+0000001145          1400 SY8090               2AZ
570268000570268               570268               170213GP     1400+00000+GP0000002192+0000002192+000000000+000000307+0000002490+0000000009+I20000000000+0000002490+Z
570268001570268077-000918     570268006003000413690G/WRAP 700mmx2m PATTERN0000001000+00002192+00000+0001T   00002192+0000001146          1400 SY8112               2AZ
570269000570269               570269               170213GP     1400+00000+GP0000002192+0000002192+000000000+000000307+0000002490+0000000009+I20000000000+0000002490+Z
570269001570269018-000170     570269006001023775528MUG OCC. LOVE 2PC MINI 0000001000+00002192+00000+0001T   00002192+0000001200          1400 SY8515               2AZ
570270000570270               570270               170213GP     1400+00000+GP0000005262+0000005262+000000000+000000737+0000005990+0000000009+I20000000000+0000005990+Z
570270001570270267-001998     570270008711147355350PUZZLE 300pc FAIRY-TALE0000001000+00005262+00000+0001T   00005262+0000001205          1400 SY8755               2AZ
570271000570271               570271               170213GP     1400+00000+GP0000015307+0000015307+000000000+000002144+0000017451+0000000000+I40000017451+0000000000+Z
570271001570271469-003002     570271006001023878595BUILDING METAL VEHICLES0000001000+00008771+00000+0001T   00008771+0000001209          1400 SY8755               2AZ
570271002570271077-000311     570271006001023608666GIFT-BAG 11X14CM GLOSS 0000001000+00000613+00000+0001T   00000613+0000001209          1400 SY8112               2AZ
570271003570271077-000321     570271006001023677501GIFT-BAG 11X14CM E/D FL0000001000+00000613+00000+0001T   00000613+0000001209          1400 SY8112               2AZ
570271004570271301-000828     570271006003000243945ORN FAIRY CANDLE 20cm  0000001000+00005262+00000+0001T   00005262+0000001209          1400 SY8505               2AZ
570271005570271112-116069     570271006003000535064TCS CARRIER BAG JUMBO  0000001000+00000048+00000+0001T   00000048+0000001209          1400 SY8090               2AZ
570272000570272               570272               170213GP     1400+00000+GP0000012569+0000012569+000000000+000001760+0000014320+0000000009+I20000000000+0000014320+Z
570272001570272089-000006     570272006003000094929KEY CHAIN HAND-BAG MTL 0000002000+00003507+00000+0001T   00003507+0000001216          1400 SY8205               2AZ
570272002570272046-000012     570272006904708013062BATTERIES AA  CARD-OF-40000002000+00001314+00000+0001T   00001314+0000001216          1400 SY8312               2AZ
570272003570272089-000020     570272006001023562272K/CHAIN MINI SHOE CROC 0000001000+00001578+00000+0001T   00001578+0000001216          1400 SY8205               2AZ
570272004570272112-116038     570272006003000534906TCS CARRIER BAG MIDI   0000001000+00000035+00000+0001T   00000035+0000001216          1400 SY8090               2AZ
570272005570272089-000187     570272006003000594245KEY CHAIN PVC DUCK 3.5 0000001000+00001314+00000+0001T   00001314+0000001216          1400 SY8205               2AZ
570273000570273               570273               170213GP     1400+00000+GP0000023278+0000023278+000000000+000003264+0000026542+0000000000+I40000026542+0000000000+Z
570273001570273018-005009     570273006001023725608MUG W/PLUSH-BEAR LOVE  0000001000+00003507+00000+0001T   00003507+0000001225          1400 SY8515               2AZ
570273002570273903-000057     570273006005929000173SWT GS NOVELTY GIANT AL0000002000+00002104+00000+0001T   00002104+0000001225          1400 SY8150               2AZ
570273003570273903-000151     570273006009803374411SWT SML RND R/BOW LOLLY0000001000+00000525+00000+0001T   00000525+0000001225          1400 SY8150               2AZ
570273004570273903-000155     570273006009803374435SWT LOLLY I LUV U HEART0000001000+00000525+00000+0001T   00000525+0000001225          1400 SY8150               2AZ
570273005570273903-004963     570273008410525221873SWT GUMMY SOUR COLA 50g0000001000+00000964+00000+0001T   00000964+0000001225          1400 SY8150               2AZ
570273006570273903-000087     570273006001704000161SWT SPECKLED-EGGS 50G  0000001000+00001139+00000+0001T   00001139+0000001225          1400 SY8150               2AZ
570273007570273261-000940     570273006003000655960GUN MISSLE BLOWER 39cm 0000001000+00006139+00000+0001T   00006139+0000001225          1400 SY8710               2AZ
570273008570273077-000299     570273006003000395576G/BAG 32x25cm LRG LOVE 0000003000+00001490+00000+0001T   00001490+0000001225          1400 SY8112               2AZ
570273009570273566-000318     570273006003000524365STICKER LOCKER SET     0000001000+00001753+00000+0001T   00002630+0008151225          1400 SY8130               2AZ
570273010570273112-116069     570273006003000535064TCS CARRIER BAG JUMBO  0000001000+00000048+00000+0001T   00000048+0000001225          1400 SY8090               2AZ
570274000570274               570274               170213GP     1400+00000+GP0000004385+0000004385+000000000+000000614+0000004990+0000000009+I20000000000+0000004990+Z
570274001570274263-000193     570274006003000299126CAR TRACK PUSH & LOOP  0000001000+00004385+00000+0001T   00004385+0000001226          1400 SY8710               2AZ
570275000570275               570275               170213GP     1400+00000+GP0000000218+0000000218+000000000+000000031+0000000240+0000000009+I20000000000+0000000240+Z
570275001570275006-000172-A   570275006003000609765BALLOONS METALLIC PINK 0000001000+00000218+00000+0001T   00000218+0000001227          1400 SY8131               2AZ
570276000570276               570276               170213GP     1400+00000+GP0000012326+0000012326+000000000+000001727+0000014053+0000000000+I40000014053+0000000000+Z
570276001570276024-000195     570276006003000396498KIDDIES B/WARE ACC 2PC 0000002000+00006139+00000+0001T   00006139+0000001230          1400 SY8300               2AZ
570276002570276112-116069     570276006003000535064TCS CARRIER BAG JUMBO  0000001000+00000048+00000+0001T   00000048+0000001230          1400 SY8090               2AZ
570277000570277               570277               170213GP     1400+00000+GP0000004385+0000004385+000000000+000000614+0000004999+0000000000+I40000004999+0000000000+Z
570277001570277082-000105     570277006003000360369READING GLS STRNGHT:1.50000001000+00004385+00000+0001T   00004385+0000001234          1400 SY8160               2AZ
570278000570278               570278               170213GP     1400+00000+GP0000001753+0000001753+000000000+000000246+0000001990+0000000009+I20000000000+0000001990+Z
570278001570278903-000595     570278006003000564170SWT TOY WATER FLUTE    0000001000+00001753+00000+0001T   00001753+0000001234          1400 SY8150               2AZ
570279000570279               570279               170213GP     1400+00000+GP0000013204+0000013204+000000000+000001849+0000015050+0000000003+I20000000000+0000015050+Z
570279001570279031-080508     570279006001023802415P/FRAME PL 22X11CM LOVE0000001000+00004385+00000+0001T   00004385+0000001239          1400 SY8510               2AZ
570279002570279368-000614     570279006001023705808PLUSH LOVE 30cm        0000001000+00008771+00000+0001T   00008771+0000001239          1400 SY8745               2AZ
570279003570279112-116069     570279006003000535064TCS CARRIER BAG JUMBO  0000001000+00000048+00000+0001T   00000048+0000001239          1400 SY8090               2AZ
570280000570280               570280               170213GP     1400+00000+GP0000007014+0000007014+000000000+000000982+0000007990+0000000006+I20000000000+0000007990+Z
570280001570280031-000923     570280006001023669933P/FRAME BLK W/WORDS    0000002000+00003507+00000+0001T   00003507+0000001241          1400 SY8510               2AZ
570281000570281               570281               170213GP     1400+00000+GP0000001753+0000001753+000000000+000000246+0000001990+0000000009+I20000000000+0000001990+Z
570281001570281306-000024-A   570281006003000577309COTTON-WOOL-PADS 80PC  0000001000+00001753+00000+0001T   00001753+0000001250          1400 SY8200               2AZ
570282000570282               570282               170213GP     1400+00000+GP0000000700+0000000700+000000000+000000098+0000000790+0000000008+I20000000000+0000000790+Z
570282001570282007-000104     570282006009685854865BK COVER BRWN KRFT ROLL0000002000+00000350+00000+0001T   00000350+0000001255          1400 SY8130               2AZ
570283000570283               570283               170213GP     1400+00000+GP0000000700+0000000700+000000000+000000098+0000000790+0000000008+I20000000000+0000000790+Z
570283001570283362-004001     570283000613153010385PRINCESS ASSTD TRINKETS0000001000+00000700+00000+0001T   00000876+0008181258          1400 SY8160               2AZ
570284000570284               570284               170213GP     1400+00000+GP0000000437+0000000437+000000000+000000062+0000000490+0000000009+I20000000000+0000000490+Z
570284001570284080-000133-A   570284006003000647019MINI VALENTINES CARD   0000001000+00000437+00000+0001T   00000437+0000001259          1400 SY8112               2AZ
570284002570284077-000470     570284006003000330171G-BAG DESGN SML 11X14CM0000001000-00001314+00000+0001T   00001314+0000001259          1400 SY81122IC            2 Z
570284003570284077-000470     570284006003000330171G-BAG DESGN SML 11X14CM0000001000+00001314+00000+0001T   00001314+0000001259          1400 SY81122IC            2AZ
570285000570285               570285               170213GP     1400+00000+GP0000007662+0000007662+000000000+000001074+0000008730+0000000006+I20000000000+0000008730+Z
570285001570285079-006494     570285006003000159864GLITTER GLUE 5PCE 11cm 0000001000+00001490+00000+0001T   00001490+0000001300          1400 SY8130               2AZ
570285002570285079-000195     570285006003000161485P/CRAYONS RETRCTBLEx10 0000001000+00003507+00000+0001T   00003507+0000001300          1400 SY8130               2AZ
570285003570285071-001362     570285006003000589258HIGHLIGHTER 4 PACK     0000001000+00002630+00000+0001T   00002630+0000001300          1400 SY8130               2AZ
570285004570285112-116038     570285006003000534906TCS CARRIER BAG MIDI   0000001000+00000035+00000+0001T   00000035+0000001300          1400 SY8090               2AZ
570286000570286               570286               170213GP     1400+00000+GP0000003627+0000003627+000000000+000000510+0000004137+0000000000+I40000004137+0000000000+Z
570286001570286563-000318-L   570286006003000407088SERVIETTES 33cm RED    0000001000-00002192+00000+0001T   00002192+0000001306          1400 SY82142IC            2 Z
570286002570286563-000318-L   570286006003000407088SERVIETTES 33cm RED    0000001000+00002192+00000+0001T   00002192+0000001306          1400 SY82142IC            2AZ
570286003570286039-000024     570286006003000286300C/TAPERED 25CM M/WHITE 0000002000+00001051+00000+0001T   00001051+0000001306          1400 SY8510               2AZ
570286004570286039-000108     570286006001023524034TEA-LITE CANDLES 8PCE  0000001000+00001490+00000+0001T   00001490+0000001306          1400 SY8510               2AZ
570286005570286112-116038     570286006003000534906TCS CARRIER BAG MIDI   0000001000+00000035+00000+0001T   00000035+0000001306          1400 SY8090               2AZ
570287000570287               570287               170213GP     1400+00000+GP0000004869+0000004869+000000000+000000682+0000005550+0000000001+I20000000000+0000005550+Z
570287001570287018-000136     570287006001023659026MUG OCC LOVE W/PLUSH   0000001000+00003507+00000+0001T   00003507+0000001309          1400 SY8515               2AZ
570287002570287077-000310     570287006001023608635GIFT-BAG 18X23CM GLOSS 0000001000+00001314+00000+0001T   00001314+0000001309          1400 SY8112               2AZ
570287003570287112-116069     570287006003000535064TCS CARRIER BAG JUMBO  0000001000+00000048+00000+0001T   00000048+0000001309          1400 SY8090               2AZ
570288000570288               570288               170213GP     1400+00000+GP0000004822+0000004822+000000000+000000676+0000005490+0000000008+I20000000000+0000005490+Z
570288001570288031-080508     570288006001023802415P/FRAME PL 22X11CM LOVE0000001000+00004385+00000+0001T   00004385+0000001315          1400 SY8510               2AZ
570288002570288080-000133-A   570288006003000647019MINI VALENTINES CARD   0000001000+00000437+00000+0001T   00000437+0000001315          1400 SY8112               2AZ
570289000570289               570289               170213GP     1400+00000+GP0000004207+0000004207+000000000+000000590+0000004790+0000000007+I20000000000+0000004790+Z
570289001570289206-000630     570289006003000631919SPECTACLE CLEANING BRUS0000001000+00001227+00000+0001T   00001227+0000001326          1400 SY8321               2AZ
570289002570289903-000095     570289006001704011495SWT SPECKLED-EGGS 100G 0000001000+00002104+00000+0001T   00002104+0000001326          1400 SY8150               2AZ
570289003570289903-000221     570289006001704007382SWT EENY-MEENY-MOS 60G 0000001000+00000876+00000+0001T   00000876+0000001326          1400 SY8150               2AZ
570290000570290               570290               170213GP     1400+00000+GP0000001753+0000001753+000000000+000000246+0000001999+0000000000+I40000001999+0000000000+Z
570290001570290077-000290     570290006001023902023GIFT BOX 26x32x13cm    0000001000+00001753+00000+0001T   00001753+0000001335          1400 SY8112               2AZ
570291000570291               570291               170213GP     1400+00000+GP0000017588+0000017588+000000000+000002463+0000020051+0000000000+I40000020051+0000000000+Z
570291001570291036-000315     570291006003000512522C/HANGERS FLOCKED 3PC  0000004000+00004385+00000+0001T   00004385+0000001337          1400 SY8212               2AZ
570291002570291112-116069     570291006003000535064TCS CARRIER BAG JUMBO  0000001000+00000048+00000+0001T   00000048+0000001337          1400 SY8090               2AZ
570292000570292               570292               170213GP     1400+00000+GP0000003555+0000003555+000000000+000000498+0000004053+0000000000+I40000004053+0000000000+Z
570292001570292301-085004     570292006003000420469ORN LOVE PLAQUE 21X10CM0000001000+00003507+00000+0001T   00003946+0006471339          1400 SY8505               2AZ
570292002570292112-116069     570292006003000535064TCS CARRIER BAG JUMBO  0000001000+00000048+00000+0001T   00000048+0000001339          1400 SY8090               2AZ
570293000570293               570293               170213GP     1400+00000+GP0000007927+0000007927+000000000+000001110+0000009030+0000000007+I20000000000+0000009030+Z
570293001570293105-001246     570293006003000621194CONTAINER RECTANGULAR  0000001000+00003507+00000+0001T   00003507+0000001341          1400 SY8210               2AZ
570293002570293105-007505     570293006003000487301STORAGE BOX CLEAR 2L   0000001000+00004385+00000+0001T   00004385+0000001341          1400 SY8210               2AZ
570293003570293112-116038     570293006003000534906TCS CARRIER BAG MIDI   0000001000+00000035+00000+0001T   00000035+0000001341          1400 SY8090               2AZ
570294000570294               570294               170213GP     1400+00000+GP0000015830+0000015830+000000000+000002218+0000018048+0000000000+I40000018048+0000000000+Z
570294001570294077-000455     570294006003000285389G/BAG METALLIC LRG SOL 0000001000+00001753+00000+0001T   00001753+0000001343          1400 SY8112               2AZ
570294002570294077-000465     570294006003000681570GIFT-BAG MTLC GLIT LRG 0000001000+00003507+00000+0001T   00003507+0000001343          1400 SY8112               2AZ
570294003570294077-000011-E   570294006001023808646TISSUE-WRAP PINK 10PCE 0000001000+00000876+00000+0001T   00000876+0000001343          1400 SY8112               2AZ
570294004570294039-000798     570294006001023617774CANDLES TEALITE BOX-50 0000001000+00006139+00000+0001T   00006139+0000001343          1400 SY8510               2AZ
570294005570294112-116069     570294006003000535064TCS CARRIER BAG JUMBO  0000001000+00000048+00000+0001T   00000048+0000001343          1400 SY8090               2AZ
570294006570294103-000090     570294006001023795786WOVEN HEART SHAPED     0000001000+00003507+00000+0001T   00003507+0000001343          1400 SY8300               2AZ
570295000570295               570295               170213GP     1400+00000+GP0000005559+0000005559+000000000+000000779+0000006338+0000000000+I40000006338+0000000000+Z
570295001570295031-000874-A   570295006001023798800P/FRAME WDN P/BOX 10X150000001000+00003946+00000+0001T   00003946+0000001345          1400 SY8510               2AZ
570295002570295077-000315     570295006003000181186GIFT-BAG 20x28cm MATT  0000001000+00001578+00000+0001T   00001578+0000001345          1400 SY8112               2AZ
570295003570295112-116038     570295006003000534906TCS CARRIER BAG MIDI   0000001000+00000035+00000+0001T   00000035+0000001345          1400 SY8090               2AZ
570296000570296               570296               170213GP     1400+00000+GP0000004383+0000004383+000000000+000000615+0000004998+0000000000+I40000004998+0000000000+Z
570296001570296903-000614     570296006003000617333SWT PLIERS TWISTER 17cm0000001000+00001753+00000+0001T   00001753+0000001346          1400 SY8150               2AZ
570296002570296079-000514     570296009556341898321CRAYONS WAX 24-COLOUR  0000001000+00002630+00000+0001T   00002630+0000001346          1400 SY8130               2AZ
570297000570297               570297               170213GP     1400+00000+GP0000007891+0000007891+000000000+000001106+0000008990+0000000007+I20000000000+0000008990+Z
570297001570297082-007580     570297006003000698523SUNGLASS MENS DESIGNER 0000001000+00005262+00000+0001T   00005262+0000001349          1400 SY8160               2AZ
570297002570297027-056191     570297006916920933134DISH-BRUSH+HOOK RECT   0000001000+00001753+00000+0001T   00001753+0000001349          1400 SY8212               2AZ
570297003570297903-000123     570297006925925909280SWEET GS MINI MALLOWS  0000001000+00000876+00000+0001T   00000876+0000001349          1400 SY8150               2AZ
570298000570298               570298               170213GP     1400+00000+GP0000002630+0000002630+000000000+000000369+0000002990+0000000009+I20000000000+0000002990+Z
570298001570298018-000129     570298006001023403353MUG OCC. LOVE V-SHAPE  0000001000+00002630+00000+0001T   00002630+0000001355          1400 SY8515               2AZ
570299000570299               570299               170213GP     1400+00000+GP0000002455+0000002455+000000000+000000344+0000002799+0000000000+I40000002799+0000000000+Z
570299001570299562-000009     570299000730589212029PLAY MODELLING CARDED  0000001000+00002455+00000+0001T   00002455+0000001359          1400 SY8755               2AZ
570300000570300               570300               170213GP     1400+00000+GP0000003944+0000003944+000000000+000000553+0000004497+0000000000+I10000003497+0000001000+Z
570300001570300301-085004     570300006003000420469ORN LOVE PLAQUE 21X10CM0000001000+00003507+00000+0001T   00003946+0006471409          1400 SY8505               2AZ
570300002570300080-000133-A   570300006003000647019MINI VALENTINES CARD   0000001000+00000437+00000+0001T   00000437+0000001409          1400 SY8112               2AZ
570301000570301               570301               170213GP     1400+00000+GP0000003594+0000003594+000000000+000000504+0000004090+0000000008+I20000000000+0000004090+Z
570301001570301903-000095     570301006001704011495SWT SPECKLED-EGGS 100G 0000001000+00002104+00000+0001T   00002104+0000001420          1400 SY8150               2AZ
570301002570301565-004101     570301006003000548033BALL BOUNCING EGG      0000001000+00001490+00000+0001T   00001490+0000001420          1400 SY8745               2AZ
570302000570302               570302               170213GP     1400+00000+GP0000001227+0000001227+000000000+000000172+0000001390+0000000009+I20000000000+0000001390+Z
570302001570302077-000245     570302006001023759214GIFT-RIBBON METALLICx2 0000001000+00001227+00000+0001T   00001227+0000001430          1400 SY8112               2AZ
570303000570303               570303               170213GP     1400+00000+GP0000008285+0000008285+000000000+000001162+0000009447+0000000000+I40000009447+0000000000+Z
570303001570303031-000002-A   570303006003000247103P/FRAME LOVE 7.5X7.5CM 0000001000+00003507+00000+0001T   00003507+0000001439          1400 SY8510               2AZ
570303002570303039-000319-4   570303006003000442744B/CANDLES LRG NUMBER-4 0000001000+00000876+00000+0001T   00000876+0000001439          1400 SY8510               2AZ
570303003570303039-000319-3   570303006003000442621B/CANDLES LRG NUMBER-3 0000001000+00000876+00000+0001T   00000876+0000001439          1400 SY8510               2AZ
570303004570303007-000166     570303006009685857316SPIRAL NOTES A6 100PG  0000001000+00000700+00000+0001T   00000700+0000001439          1400 SY8130               2AZ
570303005570303078-000025     570303008887013700064SUPERGLUE 3g 1PCE CARD 0000001000+00000876+00000+0001T   00000876+0000001439          1400 SY8810               2AZ
570303006570303027-009030     570303006002814400100DUSTPAN PL             0000001000+00001402+00000+0001T   00001402+0000001439          1400 SY8212               2AZ
570303007570303112-116069     570303006003000535064TCS CARRIER BAG JUMBO  0000001000+00000048+00000+0001T   00000048+0000001439          1400 SY8090               2AZ
570304000570304               570304               170213GP     1400+00000+GP0000015130+0000015130+000000000+000002120+0000017250+0000000000+I20000000000+0000017250+Z
570304001570304301-085001     570304006003000297610ORN WATERBALL LOVE ASST0000001000+00004823+00000+0001T   00004823+0000001441          1400 SY8505               2AZ
570304002570304077-000311     570304006001023608666GIFT-BAG 11X14CM GLOSS 0000001000+00000613+00000+0001T   00000613+0000001441          1400 SY8112               2AZ
570304003570304018-000136     570304006001023659026MUG OCC LOVE W/PLUSH   0000001000+00003507+00000+0001T   00003507+0000001441          1400 SY8515               2AZ
570304004570304018-050000     570304006003000412679MUG OCC LOVE TWIN BEAR 0000001000+00006139+00000+0001T   00006139+0000001441          1400 SY8515               2AZ
570304005570304112-116069     570304006003000535064TCS CARRIER BAG JUMBO  0000001000+00000048+00000+0001T   00000048+0000001441          1400 SY8090               2AZ
570305000570305               570305               170213GP     1400+00000+GP0000007064+0000007064+000000000+000000990+0000008050+0000000004+I20000000000+0000008050+Z
570305001570305041-093000     570305006003000320882B/GIFT SET 4PC B/RANGE 0000001000+00007016+00000+0001T   00007016+0000001443          1400 SY8200               2AZ
570305002570305112-116069     570305006003000535064TCS CARRIER BAG JUMBO  0000001000+00000048+00000+0001T   00000048+0000001443          1400 SY8090               2AZ
570306000570306               570306               170213GP     1400+00000+GP0000020220+0000020220+000000000+000002832+0000023052+0000000000+I40000023052+0000000000+Z
570306001570306203-000120     570306006003000566976BAR ACC. SET 5PC       0000001000+00017542+00000+0001T   00017542+0000001445          1400 SY8300               2AZ
570306002570306077-000270     570306006003000395453GIFT-BAG PPR JMB 33X45 0000001000+00002630+00000+0001T   00002630+0000001445          1400 SY8112               2AZ
570306003570306112-116069     570306006003000535064TCS CARRIER BAG JUMBO  0000001000+00000048+00000+0001T   00000048+0000001445          1400 SY8090               2AZ
570307000570307               570307               170213GP     1400+00000+GP0000006752+0000006752+000000000+000000946+0000007690+0000000008+I20000000000+0000007690+Z
570307001570307083-000055     570307006003000003853LIGHTER ELCTRNC REFILBL0000001000+00000613+00000+0001T   00000613+0000001446          1400 SY8315               2AZ
570307002570307017-000221     570307006003000238019P/ALBUM ADHESIVE 20PG  0000001000+00006139+00000+0001T   00006139+0000001446          1400 SY8510               2AZ
570308000570308               570308               170213GP     1400+00000+GP0000003857+0000003857+000000000+000000541+0000004390+0000000008+I20000000000+0000004390+Z
570308001570308002-021042     570308006001023621801TOOTHPICKS 250PCE      0000001000+00001227+00000+0001T   00001227+0000001446          1400 SY8300               2AZ
570308002570308002-000884     570308006001023769589CAN-OPENER BUTTERFLY   0000001000+00002630+00000+0001T   00002630+0000001446          1400 SY8300               2AZ
570309000570309               570309               170213GP     1400+00000+GP0000006186+0000006186+000000000+000000867+0000007050+0000000003+I20000000000+0000007050+Z
570309001570309464-009011     570309006003000647675FISHING WITH TWO RODS  0000001000+00005262+00000+0001T   00005262+0000001448          1400 SY8785               2AZ
570309002570309039-000319-4   570309006003000442744B/CANDLES LRG NUMBER-4 0000001000+00000876+00000+0001T   00000876+0000001448          1400 SY8510               2AZ
570309003570309112-116069     570309006003000535064TCS CARRIER BAG JUMBO  0000001000+00000048+00000+0001T   00000048+0000001448          1400 SY8090               2AZ
570310000570310               570310               170213GP     1400+00000+GP0000000613+0000000613+000000000+000000086+0000000690+0000000009+I20000000000+0000000690+Z
570310001570310077-000311     570310006001023608666GIFT-BAG 11X14CM GLOSS 0000001000+00000613+00000+0001T   00000613+0000001549          1400 SY8112               2AZ
570311000570311               570311               170213GP     1400+00000+GP0000001753+0000001753+000000000+000000246+0000001990+0000000009+I20000000000+0000001990+Z
570311001570311077-000299-A   570311006003000670888GIFT-BAG PAPER JMB LOVE0000001000+00001753+00000+0001T   00001753+0000001552          1400 SY8112               2AZ
570312000570312               570312               170213GP     1400+00000+GP0000002062+0000002062+000000000+000000290+0000002350+0000000002+I20000000000+0000002350+Z
570312001570312079-009700-F   570312006003000545872PAPER SIRIO A4 TURQ COL0000001000+00000306+00000+0001T   00000306+0000001608          1400 SY8130               2AZ
570312002570312079-009700-D   570312006003000545711PAPER SIRIO A4 RED COL.0000001000+00000306+00000+0001T   00000306+0000001608          1400 SY8130               2AZ
570312003570312304-001204     570312006001023737984FLOWER OCC. TEDDY/ROSES0000001000+00001402+00000+0001T   00001490+0006471608          1400 SY8510               2AZ
570312004570312112-116069     570312006003000535064TCS CARRIER BAG JUMBO  0000001000+00000048+00000+0001T   00000048+0000001608          1400 SY8090               2AZ
570313000570313               570313               170213GP     1400+00000+GP0000007062+0000007062+000000000+000000990+0000008050+0000000002+I20000000000+0000008050+Z
570313001570313563-000318-L   570313006003000407088SERVIETTES 33cm RED    0000002000+00002192+00000+0001T   00002192+0000001617          1400 SY8214               2AZ
570313002570313563-000317-C   570313006001023776327SERVIETTES 20PK  FLOWER0000001000+00002630+00000+0001T   00002630+0000001617          1400 SY8214               2AZ
570313003570313112-116069     570313006003000535064TCS CARRIER BAG JUMBO  0000001000+00000048+00000+0001T   00000048+0000001617          1400 SY8090               2AZ
570314000570314               570314               170213GP     1400+00000+GP0000016551+0000016551+000000000+000002322+0000018870+0000000003+I20000000000+0000018870+Z
570314001570314304-001011     570314006001023806727FLWR ROSE RED W/BEAR   0000027000+00000613+00000+0001T   00000788+0006471618          1400 SY8510               2AZ
570315000570315               570315               170213GP     1400+00000+GP0000003507+0000003507+000000000+000000491+0000003998+0000000000+I40000003998+0000000000+Z
570315001570315018-005009     570315006001023725608MUG W/PLUSH-BEAR LOVE  0000001000+00003507+00000+0001T   00003507+0000001620          1400 SY8515               2AZ
570316000570316               570316               170213GP     1400+00000+GP0000002503+0000002503+000000000+000000351+0000002850+0000000004+I20000000000+0000002850+Z
570316001570316562-000009     570316000730589212029PLAY MODELLING CARDED  0000001000+00002455+00000+0001T   00002455+0000001623          1400 SY8755               2AZ
570316002570316112-116069     570316006003000535064TCS CARRIER BAG JUMBO  0000001000+00000048+00000+0001T   00000048+0000001623          1400 SY8090               2AZ
570317000570317               570317               170213GP     1400+00000+GP0000002628+0000002628+000000000+000000368+0000002990+0000000006+I20000000000+0000002990+Z
570317001570317006-000166-C   570317006003000516377BALLOONS LRG 6PC PINK  0000002000+00001314+00000+0001T   00001314+0000001626          1400 SY8131               2AZ
570318000570318               570318               170213GP     1400+00000+GP0000001314+0000001314+000000000+000000184+0000001490+0000000008+I20000000000+0000001490+Z
570318001570318077-000310     570318006001023608635GIFT-BAG 18X23CM GLOSS 0000001000+00001314+00000+0001T   00001314+0000001629          1400 SY8112               2AZ
570319000570319               570319               170213GP     1400+00000+GP0000020656+0000020656+000000000+000002893+0000023540+0000000009+I20000000000+0000023540+Z
570319001570319077-000309-A   570319006003000671007GIFT-BAG HOLOGRAM JMB  0000001000+00002192+00000+0001T   00002192+0000001630          1400 SY8112               2AZ
570319002570319368-000049     570319006003000536955PLUSH BEAR 15cm LOVE   0000002000+00004385+00000+0001T   00004385+0000001630          1400 SY8745               2AZ
570319003570319162-095020     570319006001492950204#TAG KIDS EARRINGS 3PCK0000001000+00003507+00000+0001T   00003507+0000001630          1400 SY8160               2AZ
570319004570319112-116069     570319006003000535064TCS CARRIER BAG JUMBO  0000001000+00000048+00000+0001T   00000048+0000001630          1400 SY8090               2AZ
570319005570319007-000890-17  570319006003000645671CALENDAR 2017 ASSTD    0000001000+00006139+00000+0001T   00006139+0000001630          1400 SY8130               2AZ
570320000570320               570320               170213GP     1400+00000+GP0000014079+0000014079+000000000+000001973+0000016052+0000000000+I40000016052+0000000000+Z
570320001570320368-000040     570320006003000671786PLUSH ICONS 7.5cm      0000001000+00002630+00000+0001T   00002630+0000001632          1400 SY8745               2AZ
570320002570320018-019000     570320006003000557288MUG OCC. LOVE JUMBO    0000001000+00005262+00000+0001T   00005262+0000001632          1400 SY8515               2AZ
570320003570320368-000175     570320006003000270316PLUSH BEAR 4 ASSTD 18CM0000001000+00006139+00000+0001T   00006139+0000001632          1400 SY8745               2AZ
570320004570320112-116069     570320006003000535064TCS CARRIER BAG JUMBO  0000001000+00000048+00000+0001T   00000048+0000001632          1400 SY8090               2AZ
570321000570321               570321               170213GP     1400+00000+GP0000003993+0000003993+000000000+000000560+0000004550+0000000003+I20000000000+0000004550+Z
570321001570321006-000789     570321006001023148612CROWN BOY              0000001000+00002192+00000+0001T   00002192+0000001633          1400 SY8131               2AZ
570321002570321366-007600     570321006001023902184MASK THEATRICAL GLITTER0000001000+00001753+00000+0001T   00001753+0000001633          1400 SY8131               2AZ
570321003570321112-116069     570321006003000535064TCS CARRIER BAG JUMBO  0000001000+00000048+00000+0001T   00000048+0000001633          1400 SY8090               2AZ
570322000570322               570322               170213GP     1400+00000+GP0000001490+0000001490+000000000+000000209+0000001690+0000000009+I20000000000+0000001690+Z
570322001570322077-000399     570322006003000139514GIFT BAG 18X23CM E/DAY 0000001000+00001490+00000+0001T   00001490+0000001634          1400 SY8112               2AZ
570323000570323               570323               170213GP     1400+00000+GP0000004782+0000004782+000000000+000000670+0000005450+0000000002+I20000000000+0000005450+Z
570323001570323903-000917     570323004897024123077SWT NOVELTY WATCH CANDY0000002000+00001578+00000+0001T   00001578+0000001636          1400 SY8150               2AZ
570323002570323077-000315     570323006003000181186GIFT-BAG 20x28cm MATT  0000001000+00001578+00000+0001T   00001578+0000001636          1400 SY8112               2AZ
570323003570323112-116069     570323006003000535064TCS CARRIER BAG JUMBO  0000001000+00000048+00000+0001T   00000048+0000001636          1400 SY8090               2AZ
570324000570324               570324               170213GP     1400+00000+GP0000159931+0000159931+000000000+000022413+0000182344+0000000000+I40000182344+0000000000+Z
570324001570324903-000615     570324006003000617456SWT JET PLANE J/B 5G   0000001000+00001753+00000+0001T   00001753+0000001654          1400 SY8150               2AZ
570324002570324077-000310     570324006001023608635GIFT-BAG 18X23CM GLOSS 0000001000+00001314+00000+0001T   00001314+0000001654          1400 SY8112               2AZ
570324003570324362-001061     570324006003000450848BEAD CRAFT BOX COLLECT.0000001000+00017542+00000+0001T   00017542+0000001654          1400 SY8160               2AZ
570324004570324903-000892     570324008693029700420SWT NOVELTY CHOCO CREAM0000001000+00000788+00000+0001T   00000788+0000001654          1400 SY8150               2AZ
570324005570324903-000673     570324006009803358237SWT SHERBET GRAPE 4PK  0000001000+00000876+00000+0001T   00000876+0000001654          1400 SY8150               2AZ
570324006570324903-000897     570324008692806325207SWT CHOC DBL MINI ROLL 0000001000+00000876+00000+0001T   00000876+0000001654          1400 SY8150               2AZ
570324007570324903-000077     570324006939873501687SWT GS MAGIC ROCK FRUIT0000001000+00000525+00000+0001T   00000525+0000001654          1400 SY8150               2AZ
570324008570324903-000898     570324006922516801503SWT POPPING CANDY      0000001000+00001139+00000+0001T   00001139+0000001654          1400 SY8150               2AZ
570324009570324903-003061     570324000660973182129SWT CANDY FRUIT SOUR   0000001000+00000744+00000+0001T   00000744+0000001654          1400 SY8150               2AZ
570324010570324112-116069     570324006003000535064TCS CARRIER BAG JUMBO  0000001000+00000048+00000+0001T   00000048+0000001654          1400 SY8090               2AZ
570324011570324368-000040     570324006003000671786PLUSH ICONS 7.5cm      0000001000+00002630+00000+0001T   00002630+0000001654          1400 SY8745               2AZ
570324012570324903-000011     570324006002099007315SWT MALLOW CHOC 15G    0000001000+00000437+00000+0001T   00000437+0000001654          1400 SY8150               2AZ
570324013570324903-003080     570324005907029004673SWT SNACK STIX CHOC 50g0000003000+00000876+00000+0001T   00000876+0000001654          1400 SY8150               2AZ
570324014570324560-000700     570324006001023865830GROWING ANIMALS ASSTD  0000001000+00001578+00000+0001T   00001578+0000001654          1400 SY8745               2AZ
570324015570324903-000674     570324006009803358220SWT SHERBET W/LOLLY 4PK0000001000+00001314+00000+0001T   00001314+0000001654          1400 SY8150               2AZ
570324016570324030-000010     570324006003000084395P/DOOR HANGER 2-ASSTD  0000001000+00001314+00000+0001T   00001490+0008181654          1400 SY8505               2AZ
570324017570324018-019000     570324006003000557288MUG OCC. LOVE JUMBO    0000001000+00005262+00000+0001T   00005262+0000001654          1400 SY8515               2AZ
570324018570324030-083576     570324006003000431236PLAQUE WDN GARDEN 12X8 0000001000+00002192+00000+0001T   00002192+0000001654          1400 SY8505               2AZ
570324019570324030-000007     570324006001023527325PLAQUE WDN B/BOARD ASST0000005000+00002630+00000+0001T   00002630+0000001654          1400 SY8505               2AZ
570324020570324030-083576     570324006003000431236PLAQUE WDN GARDEN 12X8 0000001000+00002192+00000+0001T   00002192+0000001654          1400 SY8505               2AZ
570324021570324158-000022     570324006003000568741PLATE STAND CHROME     0000001000+00004385+00000+0001T   00004385+0000001654          1400 SY8300               2AZ
570324022570324566-000031     570324006003000283910STICKER BK TEACHER STIC0000004000+00002192+00000+0001T   00002192+0000001654          1400 SY8130               2AZ
570324023570324566-000950     570324006003000216048STICKERS 3 STYLES 100PC0000001000+00002192+00000+0001T   00002192+0000001654          1400 SY8130               2AZ
570324024570324006-000852     570324006009645920395PARTY LUCKY-PCKT UNISEX0000001000+00003946+00000+0001T   00003946+0000001654          1400 SY8131               2AZ
570324025570324079-105802     570324006003000543250BAG COLOUR-MY-CLUTCHBAG0000001000+00006139+00000+0001T   00006139+0000001654          1400 SY8130               2AZ
570324026570324903-000011     570324006002099007315SWT MALLOW CHOC 15G    0000001000+00000437+00000+0001T   00000437+0000001654          1400 SY8150               2AZ
570324027570324903-000012     570324006002099007308SWT MALLOW S/BERRY     0000001000+00000437+00000+0001T   00000437+0000001654          1400 SY8150               2AZ
570324028570324903-000923     570324008714786126428SWT TURTLE DUO SPRAY   0000002000+00001314+00000+0001T   00001753+0008191654          1400 SY8150               2AZ
570324029570324006-000112     570324006003000657353BALLOON PUMPER         0000001000+00008771+00000+0001T   00008771+0000001654          1400 SY8131               2AZ
570324030570324041-092600     570324006003000114733B/GIFT SET DAISY NAILS 0000001000+00006139+00000+0001T   00006139+0000001654          1400 SY8200               2AZ
570324031570324567-011422     570324006003000641222BK COLOURING THERAPY   0000001000+00003507+00000+0001T   00003507+0000001654          1400 SY8757               2AZ
570324032570324031-006228     570324006003000142293P/FRAME+PLAQUE 10X15CM 0000001000+00003507+00000+0001T   00003507+0000001654          1400 SY8510               2AZ
570324033570324112-116069     570324006003000535064TCS CARRIER BAG JUMBO  0000001000+00000048+00000+0001T   00000048+0000001654          1400 SY8090               2AZ
570324034570324077-000316     570324006001023609731GIFT-BAG 25X32CM MATT  0000001000+00001753+00000+0001T   00001753+0000001654          1400 SY8112               2AZ
570324035570324077-000315     570324006003000181186GIFT-BAG 20x28cm MATT  0000001000+00001578+00000+0001T   00001578+0000001654          1400 SY8112               2AZ
570324036570324265-000311     570324006003000014156DRAGON B/O             0000001000+00015788+00000+0001T   00015788+0000001654          1400 SY8710               2AZ
570324037570324565-004101     570324006003000548033BALL BOUNCING EGG      0000001000+00001490+00000+0001T   00001490+0000001654          1400 SY8745               2AZ
570324038570324565-000070     570324006003000643691NOVELTY CREATURES 5cm  0000001000+00002016+00000+0001T   00002016+0000001654          1400 SY8745               2AZ
570324039570324266-000508     570324006001023837172FIG ROBOT SET OF 6 8cm 0000001000+00004385+00000+0001T   00004385+0000001654          1400 SY8710               2AZ
570324040570324562-059811     570324006003000158164EDU MAGNETIC NUMBERS   0000001000+00001753+00000+0001T   00001753+0000001654          1400 SY8755               2AZ
570324041570324562-058911     570324006001023705778EDU MAGNETIC UPPER CASE0000001000+00003507+00000+0001T   00003507+0000001654          1400 SY8755               2AZ
570324042570324263-000177     570324006001023826824RACER PULL BACK        0000001000+00003507+00000+0001T   00003507+0000001654          1400 SY8710               2AZ
570324043570324562-006274     570324006001023744432EDU SKETCH-BOARD       0000001000+00005262+00000+0001T   00005262+0000001654          1400 SY8755               2AZ
570324044570324368-006004     570324006003000671076PLUSH DOLPHIN          0000001000+00004385+00000+0001T   00004385+0000001654          1400 SY8745               2AZ
570324045570324077-000310     570324006001023608635GIFT-BAG 18X23CM GLOSS 0000003000+00001314+00000+0001T   00001314+0000001654          1400 SY8112               2AZ
570324046570324080-000133-A   570324006003000647019MINI VALENTINES CARD   0000003000+00000437+00000+0001T   00000437+0000001654          1400 SY8112               2AZ
570324047570324112-116069     570324006003000535064TCS CARRIER BAG JUMBO  0000001000+00000048+00000+0001T   00000048+0000001654          1400 SY8090               2AZ
570325000570325               570325               170213GP     1400+00000+GP0000003592+0000003592+000000000+000000504+0000004090+0000000006+I20000000000+0000004090+Z
570325001570325903-000499     570325006001704012492SWT CHOC MALLOWS 50g   0000001000+00001227+00000+0001T   00001227+0000001655          1400 SY8150               2AZ
570325002570325903-000897     570325008692806325207SWT CHOC DBL MINI ROLL 0000002000+00000876+00000+0001T   00000876+0000001655          1400 SY8150               2AZ
570325003570325903-000848     570325008692806080076SWT SNACK BISCUIT 70g  0000001000+00000613+00000+0001T   00000613+0000001655          1400 SY8150               2AZ
570326000570326               570326               170213GP     1400+00000+GP0000001753+0000001753+000000000+000000246+0000001990+0000000009+I20000000000+0000001990+Z
570326001570326077-000289     570326006001023901996GIFT BOX 20x25x11cm    0000001000+00001753+00000+0001T   00001753+0000001657          1400 SY8112               2AZ
570327000570327               570327               170213GP     1400+00000+GP0000003541+0000003541+000000000+000000497+0000004030+0000000008+I20000000000+0000004030+Z
570327001570327150-049046     570327006001023189196FORCE-CUP 100x225mm    0000001000+00001753+00000+0001T   00001753+0000001658          1400 SY8810               2AZ
570327002570327306-001130-A   570327006003000359271FIRSTAID SUPPORT ANKLE 0000001000+00001753+00000+0001T   00001753+0000001658          1400 SY8200               2AZ
570327003570327112-116038     570327006003000534906TCS CARRIER BAG MIDI   0000001000+00000035+00000+0001T   00000035+0000001658          1400 SY8090               2AZ
570328000570328               570328               170213GP     1400+00000+GP0000009149+0000009149+000000000+000001284+0000010433+0000000000+I40000010433+0000000000+Z
570328001570328079-013101     570328006001023863706CRAFT SET DIY PIPE-CLNR0000001000+00002630+00000+0001T   00002630+0000001701          1400 SY8130               2AZ
570328002570328079-013032-D   570328006003000389643RIBBONS                0000001000+00002630+00000+0001T   00002630+0000001701          1400 SY8130               2AZ
570328003570328077-000005-B   570328006003000326617PAPER TISSUE PATTERN   0000001000+00002630+00000+0001T   00002630+0000001701          1400 SY8112               2AZ
570328004570328079-009700-B   570328006003000547661PAPER SIRIO A4 WHITE   0000004000+00000306+00000+0001T   00000306+0000001701          1400 SY8130               2AZ
570328005570328112-116038     570328006003000534906TCS CARRIER BAG MIDI   0000001000+00000035+00000+0001T   00000035+0000001701          1400 SY8090               2AZ
A17021300                                          09391191GPSLAVE 2                       SY82IC
A17021301                                          11044212GPSLAVE 2                       SY82IC
M17021391                              CASH        GPSLAVE 2                       Z-REPORT No.   633TOTAL (Sales - Refunds)           6535.61       CASH TO BE BANKED                 2679.20       DEBIT CARDS                          0.00       CREDIT CARDS                      3856.41       Z-READING                         6535.61       AIRTIME DEBIT CARD SALES             0.00       AIRTIME CARD SALES                   0.00       OVERS/UNDERS                         0.00       AIRTIME CASH SALES                   0.00       GIFT CARDS                           0.00       GIFT CARD CASH SALES                 0.00       T O T A L  CASH PAYOUTS              0.00                                                                                                                                                                                                                                                                                                                                                      Z
M17021392                              CASH        GPABSENT                                                                                                                                                                                          ANNUAL LEAVE                                                                                                                                                                                    DAY OFF                                                                                                                                                                                         COMMENTS                                                                                                                                                                                                                                                                                                                                                                                       Z
Y17021300                                          GP00000000577028+000072
ZGP17021319433 SLAVE 2      SALES DATA                     NEXT INVOICE NO.  570329 0633
F094251006-000108         1701170903180000072ICSLAVE 2
F094251006-000166-G       1701170903180000022ICSLAVE 2
F094251006-000167-F       1701170903180000102ICSLAVE 2
F094251006-000172-G       1701170903180000202ICSLAVE 2
F094251006-000172-H       1701170903180000202ICSLAVE 2
F094251006-000172-J       1701170903180000202ICSLAVE 2
X GP Slave 2 First invoice 570257 170213 Last invoice 570328 170213 Next invoice 570329 Total number of records 000000308 clbackup completed 19:43:01
