ZGP17021319432 SLAVE 3      NO SALES DATA                  NEXT INVOICE NO.  595083 0161
F094251006-000108         1701200914290000072ICSLAVE 3
F094251006-000166-G       1701200914290000022ICSLAVE 3
F094251006-000167-F       1701200914290000102ICSLAVE 3
F094251006-000172-G       1701200914290000202ICSLAVE 3
F094251006-000172-H       1701200914290000202ICSLAVE 3
F094251006-000172-J       1701200914290000202ICSLAVE 3
X GP Slave 3 First invoice 000000 000000 Last invoice 000000 000000 Next invoice 595083 Total number of records 000000007 clbackup completed 19:43:03
