788762000788762               788762               170213GR     1400+00000+GR0000001490+0000001490+000000000+000000209+0000001690+0000000009+I20000000000+0000001690+Z
788762001788762565-004101     788762006003000548033BALL BOUNCING EGG      0000001000+00001490+00000+0001T   00001490+0000000929          1400 GE2745               1AZ
788763000788763               788763               170213GR     1400+00000+GR0000012326+0000012326+000000000+000001727+0000014053+0000000000+I40000014053+0000000000+Z
788763001788763368-000637     788763006001023874092PLUSH BEAR SLEEPING LOV0000001000+00011402+00000+0001T   00012279+0006470936          1400 GE2745               1AZ
788763002788763077-000011-D   788763006001023808554TISSUE-WRAP WHITE 10PCE0000001000+00000876+00000+0001T   00000876+0000000936          1400 GE2112               1AZ
788763003788763112-116069     788763006009681820277TCS CARRIER BAG JUMBO  0000001000+00000048+00000+0001T   00000048+0000000936          1400 GE2090               1AZ
788764000788764               788764               170213GR     1400+00000+GR0000001578+0000001578+000000000+000000221+0000001790+0000000009+I20000000000+0000001790+Z
788764001788764077-000303     788764006001023593757GIFT-BAG PAPER MED     0000001000+00001578+00000+0001T   00001578+0000000946          1400 GE2112               1AZ
788765000788765               788765               170213GR     1400+00000+GR0000004385+0000004385+000000000+000000614+0000004990+0000000009+I20000000000+0000004990+Z
788765001788765007-000892-17  788765006003000645756DIARY 2017 H/COVER     0000001000+00004385+00000+0001T   00004385+0000000948          1400 GE2130               1AZ
788766000788766               788766               170213GR     1400+00000+GR0000001490+0000001490+000000000+000000209+0000001699+0000000000+I40000001699+0000000000+Z
788766001788766065-003699     788766006001023690883FLUTE RECORDER PL      0000001000+00001490+00000+0001T   00001490+0000000954          1400 GE2745               1AZ
788767000788767               788767               170213GR     1400+00000+GR0000001226+0000001226+000000000+000000172+0000001390+0000000008+I20000000000+0000001390+Z
788767001788767083-000055     788767006003000003853LIGHTER ELCTRNC REFILBL0000002000+00000613+00000+0001T   00000613+0000001014          1400 GE2315               1AZ
788768000788768               788768               170213GR     1400+00000+GR0000005734+0000005734+000000000+000000804+0000006538+0000000000+I40000006538+0000000000+Z
788768001788768018-000129     788768006001023403353MUG OCC. LOVE V-SHAPE  0000001000+00002630+00000+0001T   00002630+0000001024          1400 GE2515               1AZ
788768002788768089-060027     788768006003000245871KEY-CHAIN HEART 6X6cm  0000001000+00003069+00000+0001T   00003069+0000001024          1400 GE2205               1AZ
788768003788768112-116038     788768006009681820246TCS CARRIER BAG MIDI   0000001000+00000035+00000+0001T   00000035+0000001024          1400 GE2090               1AZ
788769000788769               788769               170213GR     1400+00000+GR0000006085+0000006085+000000000+000000853+0000006938+0000000000+I40000006938+0000000000+Z
788769001788769018-019000     788769006003000557288MUG OCC. LOVE JUMBO    0000001000+00005262+00000+0001T   00005262+0000001031          1400 GE2515               1AZ
788769002788769903-000200     788769006009826020234SWT CHOC RP CHOCO 23G  0000001000+00000788+00000+0001T   00000788+0000001031          1400 GE2150               1AZ
788769003788769112-116038     788769006009681820246TCS CARRIER BAG MIDI   0000001000+00000035+00000+0001T   00000035+0000001031          1400 GE2090               1AZ
788770000788770               788770               170213GR     1400+00000+GR0000003015+0000003015+000000000+000000423+0000003438+0000000000+I40000003438+0000000000+Z
788770001788770071-001015     788770006001023910387MARKERS PERMANENT 3PK  0000001000+00001753+00000+0001T   00001753+0000001046          1400 GE2130               1AZ
788770002788770007-000206     788770006009635830215X/PAD 80-SHEETS PUNCHED0000001000+00001227+00000+0001T   00001227+0000001046          1400 GE2130               1AZ
788770003788770112-116038     788770006009681820246TCS CARRIER BAG MIDI   0000001000+00000035+00000+0001T   00000035+0000001046          1400 GE2090               1AZ
788771000788771               788771               170213GR     1400+00000+GR0000002278+0000002278+000000000+000000320+0000002598+0000000000+I40000002598+0000000000+Z
788771001788771903-000519     788771006001704012805SWT MS LIQ-O-GHETTI    0000001000+00001227+00000+0001T   00001227+0000001052          1400 GE2150               1AZ
788771002788771903-002891     788771008935001721376MENTOS GUM WINTERGREEN 0000001000+00001051+00000+0001T   00001051+0000001052          1400 GE2150               1AZ
788772000788772               788772               170213GR     1400+00000+GR0000007677+0000007677+000000000+000001076+0000008750+0000000003+I20000000000+0000008750+Z
788772001788772077-000299     788772006003000395576G/BAG 32x25cm LRG LOVE 0000001000+00001490+00000+0001T   00001490+0000001121          1400 GE2112               1AZ
788772002788772018-050000     788772006003000412679MUG OCC LOVE TWIN BEAR 0000001000+00006139+00000+0001T   00006139+0000001121          1400 GE2515               1AZ
788772003788772112-116069     788772006009681820277TCS CARRIER BAG JUMBO  0000001000+00000048+00000+0001T   00000048+0000001121          1400 GE2090               1AZ
788773000788773               788773               170213GR     1400+00000+GR0000000876+0000000876+000000000+000000123+0000000990+0000000009+I20000000000+0000000990+Z
788773001788773306-000021-A   788773006001023891358EARBUDS COTTON 100PCE  0000001000+00000876+00000+0001T   00000876+0000001126          1400 GE2200               1AZ
788774000788774               788774               170213GR     1400+00000+GR0000004909+0000004909+000000000+000000688+0000005590+0000000007+I20000000000+0000005590+Z
788774001788774369-001137     788774006003000555062VINYL 5.7cm THEMED DUCK0000001000+00001753+00000+0001T   00001753+0000001128          1400 GE2745               1AZ
788774002788774369-001137-B   788774006003000626373BABY BATH VINYL DUCK   0000002000+00001578+00000+0001T   00001578+0000001128          1400 GE2745               1AZ
788775000788775               788775               170213GR     1400+00000+GR0000000876+0000000876+000000000+000000123+0000000990+0000000009+I20000000000+0000000990+Z
788775001788775077-000011-D   788775006001023808554TISSUE-WRAP WHITE 10PCE0000001000+00000876+00000+0001T   00000876+0000001138          1400 GE2112               1AZ
788776000788776               788776               170213GR     1400+00000+GR0000004857+0000004857+000000000+000000681+0000005530+0000000008+I20000000000+0000005530+Z
788776001788776301-085000     788776006003000674299 ORN OCC. LOVE HEARTS  0000001000+00002192+00000+0001T   00002192+0000001141          1400 GE2505               1AZ
788776002788776003-009202     788776006003000405725ORN STONE FLOWERPOT    0000001000+00002630+00000+0001T   00002630+0000001141          1400 GE2505               1AZ
788776003788776112-116038     788776006009681820246TCS CARRIER BAG MIDI   0000001000+00000035+00000+0001T   00000035+0000001141          1400 GE2090               1AZ
788777000788777               788777               170213GR     1400+00000+GR0000035151+0000035151+000000000+000004924+0000040075+0000000000+I40000040075+0000000000+Z
788777001788777112-116053     788777006006438002399TCS CARRIER BAG 38L    0000001000+00000069+00000+0001T   00000069+0000001148          1400 GE2090               1AZ
788777002788777015-000220     788777006003000467785CAKE-STAND 3-TIER GLASS0000001000+00014911+00000+0001T   00014911+0000001148          1400 GE2515               1AZ
788777003788777486-002320     788777006003000290932W/CLOCK QTZ PL W/LIFE  0000001000+00011402+00000+0001T   00011402+0000001148          1400 GE2510               1AZ
788777004788777032-000864-A   788777006001023836403MIRROR WDN 20X25 W/FRME0000001000+00007016+00000+0001T   00007016+0000001148          1400 GE2510               1AZ
788777005788777089-000028     788777006003000622252K/CHAIN MTL RELIGIOUS  0000001000+00001753+00000+0001T   00001753+0000001148          1400 GE2205               1AZ
788778000788778               788778               170213GR     1400+00000+GR0000001314+0000001314+000000000+000000184+0000001498+0000000000+I40000001498+0000000000+Z
788778001788778046-000012     788778006904708013062BATTERIES AA  CARD-OF-40000001000+00001314+00000+0001T   00001314+0000001149          1400 GE2312               1AZ
788779000788779               788779               170213GR     1400+00000+GR0000006173+0000006173+000000000+000000865+0000007030+0000000008+I20000000000+0000007030+Z
788779001788779006-000190     788779006003000685530BALLOONS LOVE 81x91cm  0000001000+00004385+00000+0001T   00004385+0000001150          1400 GE2131               1AZ
788779002788779088-000084     788779006001023798060P/POURRI 120G ASSTD    0000001000+00001753+00000+0001T   00001753+0000001150          1400 GE2212               1AZ
788779003788779112-116038     788779006009681820246TCS CARRIER BAG MIDI   0000001000+00000035+00000+0001T   00000035+0000001150          1400 GE2090               1AZ
788780000788780               788780               170213GR     1400+00000+GR0000002715+0000002715+000000000+000000382+0000003090+0000000007+I20000000000+0000003090+Z
788780001788780903-000200     788780006009826020234SWT CHOC RP CHOCO 23G  0000001000+00000788+00000+0001T   00000788+0000001157          1400 GE2150               1AZ
788780002788780080-000133-A   788780006003000647019MINI VALENTINES CARD   0000001000+00000437+00000+0001T   00000437+0000001157          1400 GE2112               1AZ
788780003788780077-000299     788780006003000395576G/BAG 32x25cm LRG LOVE 0000001000+00001490+00000+0001T   00001490+0000001157          1400 GE2112               1AZ
788781000788781               788781               170213GR     1400+00000+GR0000001753+0000001753+000000000+000000246+0000001990+0000000009+I20000000000+0000001990+Z
788781001788781036-000063     788781006009654960436COATHANGERS VIRGIN 5PCE0000001000+00001753+00000+0001T   00001753+0000001157          1400 GE2212               1AZ
788782000788782               788782               170213GR     1400+00000+GR0000000350+0000000350+000000000+000000049+0000000390+0000000009+I20000000000+0000000390+Z
788782001788782007-000167     788782006009685857347SPIRAL NOTES A7 72PG   0000001000+00000350+00000+0001T   00000350+0000001158          1400 GE2130               1AZ
788783000788783               788783               170213GR     1400+00000+GR0000007940+0000007940+000000000+000001112+0000009050+0000000002+I20000000000+0000009050+Z
788783001788783159-003600     788783006001023606174TOILET-BRUSH W/STAND PL0000001000+00004385+00000+0001T   00004385+0000001201          1400 GE2200               1AZ
788783002788783150-000776     788783006001023839756UTILITY/TOOL-BOX PL    0000001000+00003507+00000+0001T   00003507+0000001201          1400 GE2810               1AZ
788783003788783112-116069     788783006009681820277TCS CARRIER BAG JUMBO  0000001000+00000048+00000+0001T   00000048+0000001201          1400 GE2090               1AZ
788784000788784               788784               170213GR     1400+00000+GR0000013377+0000013377+000000000+000001874+0000015250+0000000001+I20000000000+0000015250+Z
788784001788784001-000175     788784006001023788108B/MUG GLS LOVE 380ML   0000001000+00004385+00000+0001T   00004385+0000001215          1400 GE2515               1AZ
788784002788784018-019000     788784006003000557288MUG OCC. LOVE JUMBO    0000001000+00005262+00000+0001T   00005262+0000001215          1400 GE2515               1AZ
788784003788784080-000127     788784006003000424351VALENTINES DAY 36x24CM 0000001000+00002192+00000+0001T   00002192+0000001215          1400 GE2112               1AZ
788784004788784077-000299     788784006003000395576G/BAG 32x25cm LRG LOVE 0000001000+00001490+00000+0001T   00001490+0000001215          1400 GE2112               1AZ
788784005788784112-116069     788784006009681820277TCS CARRIER BAG JUMBO  0000001000+00000048+00000+0001T   00000048+0000001215          1400 GE2090               1AZ
788785000788785               788785               170213GR     1400+00000+GR0000010346+0000010346+000000000+000001449+0000011790+0000000005+I20000000000+0000011790+Z
788785001788785065-000239     788785006001023400956DRUM "BUM BUM BAND"19cm0000001000+00003507+00000+0001T   00003507+0000001224          1400 GE2745               1AZ
788785002788785564-000012     788785006001023130075BUBBLE BOTTLE MAGIC    0000001000+00000700+00000+0001T   00000700+0000001224          1400 GE2131               1AZ
788785003788785560-000021     788785006003000653195ANIMALS SNAKE          0000001000+00006139+00000+0001T   00006139+0000001224          1400 GE2745               1AZ
788786000788786               788786               170213GR     1400+00000+GR0000001752+0000001752+000000000+000000246+0000001990+0000000008+I20000000000+0000001990+Z
788786001788786078-000025     788786008887013700064SUPERGLUE 3g 1PCE CARD 0000002000+00000876+00000+0001T   00000876+0000001229          1400 GE2810               1AZ
788787000788787               788787               170213GR     1400+00000+GR0000019294+0000019294+000000000+000002702+0000021990+0000000006+I20000000000+0000021990+Z
788787001788787039-080942     788787006001023669872C/PILLAR RND WHT 10X7CM0000001000+00003507+00000+0001T   00003507+0000001232          1400 GE2510               1AZ
788787002788787039-080944     788787006001023758897C/PILLAR RND WHT 12X7CM0000001000+00004385+00000+0001T   00004385+0000001232          1400 GE2510               1AZ
788787003788787040-000503     788787006003000288632C/HOLDER FLOWER 27CM   0000001000+00011402+00000+0001T   00011402+0000001232          1400 GE2510               1AZ
788788000788788               788788               170213GR     1400+00000+GR0000000613+0000000613+000000000+000000086+0000000690+0000000009+I20000000000+0000000690+Z
788788001788788304-001011     788788006001023806727FLWR ROSE RED W/BEAR   0000001000+00000613+00000+0001T   00000788+0006471238          1400 GE2510               1AZ
788789000788789               788789               170213GR     1400+00000+GR0000002015+0000002015+000000000+000000283+0000002290+0000000008+I20000000000+0000002290+Z
788789001788789903-000087     788789006001704000161SWT SPECKLED-EGGS 50G  0000001000+00001139+00000+0001T   00001139+0000001238          1400 GE2150               1AZ
788789002788789903-000897     788789008692806325207SWT CHOC DBL MINI ROLL 0000001000+00000876+00000+0001T   00000876+0000001238          1400 GE2150               1AZ
788790000788790               788790               170213GR     1400+00000+GR0000003506+0000003506+000000000+000000492+0000003998+0000000000+I40000003998+0000000000+Z
788790001788790080-000100     788790006003000236114CARD & ENVELOPE BDAY   0000001000+00001753+00000+0001T   00001753+0000001240          1400 GE2112               1AZ
788790002788790080-000101     788790006003000236732CARD&ENVLPE FEMALE     0000001000+00001753+00000+0001T   00001753+0000001240          1400 GE2112               1AZ
788791000788791               788791               170213GR     1400+00000+GR0000164829+0000164829+000000000+000023077+0000187900+0000000006+I20000000000+0000187900+Z
788791001788791018-000136     788791006001023659026MUG OCC LOVE W/PLUSH   0000029000+00003507+00000+0001T   00003507+0000001247          1400 GE2515               1AZ
788791002788791018-005009     788791006001023725608MUG W/PLUSH-BEAR LOVE  0000018000+00003507+00000+0001T   00003507+0000001247          1400 GE2515               1AZ
788792000788792               788792               170213GR     1400+00000+GR0000005697+0000005697+000000000+000000799+0000006490+0000000006+I20000000000+0000006490+Z
788792001788792077-000299-A   788792006003000670888GIFT-BAG PAPER JMB LOVE0000001000+00001753+00000+0001T   00001753+0000001248          1400 GE2112               1AZ
788792002788792077-000299     788792006003000395576G/BAG 32x25cm LRG LOVE 0000001000+00001490+00000+0001T   00001490+0000001248          1400 GE2112               1AZ
788792003788792077-000303     788792006001023593757GIFT-BAG PAPER MED     0000001000+00001578+00000+0001T   00001578+0000001248          1400 GE2112               1AZ
788792004788792077-000011-C   788792006001023808523TISSUE 10xSHTS RED     0000001000+00000876+00000+0001T   00000876+0000001248          1400 GE2112               1AZ
788793000788793               788793               170213GR     1400+00000+GR0000001753+0000001753+000000000+000000246+0000001990+0000000009+I20000000000+0000001990+Z
788793001788793077-000299-A   788793006003000670888GIFT-BAG PAPER JMB LOVE0000001000+00001753+00000+0001T   00001753+0000001251          1400 GE2112               1AZ
788794000788794               788794               170213GR     1400+00000+GR0000005295+0000005295+000000000+000000743+0000006030+0000000008+I20000000000+0000006030+Z
788794001788794018-000129     788794006001023403353MUG OCC. LOVE V-SHAPE  0000002000+00002630+00000+0001T   00002630+0000001254          1400 GE2515               1AZ
788794002788794112-116038     788794006009681820246TCS CARRIER BAG MIDI   0000001000+00000035+00000+0001T   00000035+0000001254          1400 GE2090               1AZ
788795000788795               788795               170213GR     1400+00000+GR0000002364+0000002364+000000000+000000333+0000002690+0000000007+I20000000000+0000002690+Z
788795001788795077-000010-D   788795006001023123886CREPE-PAPER WHITE      0000003000+00000788+00000+0001T   00000788+0000001259          1400 GE2112               1AZ
788796000788796               788796               170213GR     1400+00000+GR0000016838+0000016838+000000000+000002358+0000019196+0000000000+I40000019196+0000000000+Z
788796001788796077-000926     788796006003000414178G/WRAP 700mmx2m LOVE   0000001000+00002192+00000+0001T   00002192+0000001303          1400 GE2112               1AZ
788796002788796031-000848     788796006001023851901P/FRAME COLLAGE 2ASSTD 0000001000+00004385+00000+0001T   00004385+0000001303          1400 GE2510               1AZ
788796003788796001-091415     788796006003000329113W/GLS OCC. LOVE 2PC 2800000001000+00008771+00000+0001T   00009648+0006471303          1400 GE2515               1AZ
788796004788796077-000299     788796006003000395576G/BAG 32x25cm LRG LOVE 0000001000+00001490+00000+0001T   00001490+0000001303          1400 GE2112               1AZ
788797000788797               788797               170213GR     1400+00000+GR0000002630+0000002630+000000000+000000369+0000002990+0000000009+I20000000000+0000002990+Z
788797001788797077-000349-B   788797006001023908315G/RIBBON 3ROLLS 12BOWS 0000001000+00002630+00000+0001T   00002630+0000001303          1400 GE2112               1AZ
788798000788798               788798               170213GR     1400+00000+GR0000000048+0000000048+000000000+000000007+0000000050+0000000005+I20000000000+0000000050+Z
788798001788798112-116069     788798006009681820277TCS CARRIER BAG JUMBO  0000001000+00000048+00000+0001T   00000048+0000001303          1400 GE2090               1AZ
788799000788799               788799               170213GR     1400+00000+GR0000001927+0000001927+000000000+000000270+0000002197+0000000000+I40000002197+0000000000+Z
788799001788799007-000160     788799006009685857286NOTE-BOOK A5 SHORTHAND 0000001000+00001227+00000+0001T   00001227+0000001306          1400 GE2130               1AZ
788799002788799007-000166     788799006009685857316SPIRAL NOTES A6 100PG  0000001000+00000700+00000+0001T   00000700+0000001306          1400 GE2130               1AZ
788800000788800               788800               170213GR     1400+00000+GR0000034698+0000034698+000000000+000004891+0000039580+0000000009+I20000000000+0000039580+Z
788800001788800903-000151     788800006009803374411SWT SML RND R/BOW LOLLY0000062000+00000525+00000+0001T   00000525+0000001311          1400 GE2150               1AZ
788800002788800903-000155     788800006009803374435SWT LOLLY I LUV U HEART0000004000+00000525+00000+0001T   00000525+0000001311          1400 GE2150               1AZ
788800003788800112-116069     788800006009681820277TCS CARRIER BAG JUMBO  0000001000+00000048+00000+0001T   00000048+0000001311          1400 GE2090               1AZ
788801000788801               788801               170213GR     1400+00000+GR0000001753+0000001753+000000000+000000246+0000001990+0000000009+I20000000000+0000001990+Z
788801001788801077-000382     788801006003000247820GIFT-BAG MED 18X23CM   0000001000+00001753+00000+0001T   00001753+0000001311          1400 GE2112               1AZ
788802000788802               788802               170213GR     1400+00000+GR0000001699+0000001699+000000000+000000239+0000001930+0000000008+I20000000000+0000001930+Z
788802001788802304-001011     788802006001023806727FLWR ROSE RED W/BEAR   0000001000+00000613+00000+0001T   00000788+0006471313          1400 GE2510               1AZ
788802002788802903-002850     788802000000087108262MENTOS ROLL FRUIT      0000001000+00001051+00000+0001T   00001051+0000001313          1400 GE2150               1AZ
788802003788802112-116038     788802006009681820246TCS CARRIER BAG MIDI   0000001000+00000035+00000+0001T   00000035+0000001313          1400 GE2090               1AZ
788803000788803               788803               170213GR     1400+00000+GR0000000348+0000000348+000000000+000000050+0000000390+0000000008+I20000000000+0000000390+Z
788803001788803007-000407     788803006009635831717BK JOTTER A5 48-PG F/M 0000002000+00000174+00000+0001T   00000174+0000001320          1400 GE2130               1AZ
788804000788804               788804               170213GR     1400+00000+GR0000002630+0000002630+000000000+000000369+0000002990+0000000009+I20000000000+0000002990+Z
788804001788804056-065302     788804006001023759566CAR SUN-SHIELD ALM-FOIL0000001000+00002630+00000+0001T   00002630+0000001320          1400 GE2860               1AZ
788805000788805               788805               170213GR     1400+00000+GR0000000613+0000000613+000000000+000000086+0000000690+0000000009+I20000000000+0000000690+Z
788805001788805304-001011     788805006001023806727FLWR ROSE RED W/BEAR   0000001000+00000613+00000+0001T   00000788+0006471324          1400 GE2510               1AZ
788806000788806               788806               170213GR     1400+00000+GR0000014032+0000014032+000000000+000001966+0000015998+0000000000+I40000015998+0000000000+Z
788806001788806040-000103     788806000694202201862C/HOLDER-SET 5PC W/TRAY0000001000+00011402+00000+0001T   00013157+0008191326          1400 GE2510               1AZ
788806002788806077-000270     788806006003000395453GIFT-BAG PPR JMB 33X45 0000001000+00002630+00000+0001T   00002630+0000001326          1400 GE2112               1AZ
788807000788807               788807               170213GR     1400+00000+GR0000001139+0000001139+000000000+000000160+0000001290+0000000009+I20000000000+0000001290+Z
788807001788807002-000801     788807006003000555994PEELER PL/MTL Y-SHAPE  0000001000+00001139+00000+0001T   00001139+0000001327          1400 GE2300               1AZ
788808000788808               788808               170213GR     1400+00000+GR0000002190+0000002190+000000000+000000308+0000002490+0000000008+I20000000000+0000002490+Z
788808001788808080-000103     788808006003000236961CARD&ENVLOPE BDAY-MALE 0000001000+00001753+00000+0001T   00001753+0000001328          1400 GE2112               1AZ
788808002788808080-000133-A   788808006003000647019MINI VALENTINES CARD   0000001000+00000437+00000+0001T   00000437+0000001328          1400 GE2112               1AZ
788809000788809               788809               170213GR     1400+00000+GR0000007016+0000007016+000000000+000000983+0000007999+0000000000+I40000007999+0000000000+Z
788809001788809562-000002     788809006001023491015COUNTING-FRAME 30x20cm 0000001000+00007016+00000+0001T   00007016+0000001330          1400 GE2755               1AZ
788810000788810               788810               170213GR     1400+00000+GR0000002278+0000002278+000000000+000000320+0000002598+0000000000+I40000002598+0000000000+Z
788810001788810903-002853     788810000000087108019MENTOS ROLL MINT       0000001000+00001051+00000+0001T   00001051+0000001331          1400 GE2150               1AZ
788810002788810007-000160     788810006009685857286NOTE-BOOK A5 SHORTHAND 0000001000+00001227+00000+0001T   00001227+0000001331          1400 GE2130               1AZ
788811000788811               788811               170213GR     1400+00000+GR0000002452+0000002452+000000000+000000344+0000002790+0000000006+I20000000000+0000002790+Z
788811001788811304-001011     788811006001023806727FLWR ROSE RED W/BEAR   0000004000+00000613+00000+0001T   00000788+0006471339          1400 GE2510               1AZ
788812000788812               788812               170213GR     1400+00000+GR0000001753+0000001753+000000000+000000246+0000001990+0000000009+I20000000000+0000001990+Z
788812001788812024-091100     788812006001023914224BAKING-CUPS PAPER 100PC0000001000+00001753+00000+0001T   00001753+0000001342          1400 GE2300               1AZ
788813000788813               788813               170213GR     1400+00000+GR0000024073+0000024073+000000000+000003373+0000027440+0000000006+I20000000000+0000027440+Z
788813001788813077-000303     788813006001023593757GIFT-BAG PAPER MED     0000002000+00001578+00000+0001T   00001578+0000001346          1400 GE2112               1AZ
788813002788813368-000049     788813006003000536955PLUSH BEAR 15cm LOVE   0000002000+00004385+00000+0001T   00004385+0000001346          1400 GE2745               1AZ
788813003788813018-030000     788813006003000421060MUG OCCASIONS LOVE 2PCE0000002000+00004385+00000+0001T   00004385+0000001346          1400 GE2515               1AZ
788813004788813112-116069     788813006009681820277TCS CARRIER BAG JUMBO  0000001000+00000048+00000+0001T   00000048+0000001346          1400 GE2090               1AZ
788813005788813903-000080     788813006001704014052SWT TUBE RASCALS 125G  0000001000+00001753+00000+0001T   00001753+0000001346          1400 GE2150               1AZ
788813006788813903-000200     788813006009826020234SWT CHOC RP CHOCO 23G  0000002000+00000788+00000+0001T   00000788+0000001346          1400 GE2150               1AZ
788814000788814               788814               170213GR     1400+00000+GR0000008939+0000008939+000000000+000001255+0000010194+0000000000+I40000010194+0000000000+Z
788814001788814103-000250     788814006003000571673BASKET WOVEN 29x23x6cm 0000001000+00004823+00000+0001T   00004823+0000001351          1400 GE2300               1AZ
788814002788814077-000150-D   788814006003000054343GIFT-WRAP CELLPHANE CLR0000002000+00000876+00000+0001T   00000876+0000001351          1400 GE2112               1AZ
788814003788814903-000200     788814006009826020234SWT CHOC RP CHOCO 23G  0000003000+00000788+00000+0001T   00000788+0000001351          1400 GE2150               1AZ
788815000788815               788815               170213GR     1400+00000+GR0000000048+0000000048+000000000+000000007+0000000050+0000000005+I20000000000+0000000050+Z
788815001788815112-116069     788815006009681820277TCS CARRIER BAG JUMBO  0000001000+00000048+00000+0001T   00000048+0000001352          1400 GE2090               1AZ
788816000788816               788816               170213GR     1400+00000+GR0000002100+0000002100+000000000+000000294+0000002390+0000000004+I20000000000+0000002390+Z
788816001788816018-000177     788816006001023797513MUG MINI LOVE ASSTD    0000003000+00000700+00000+0001T   00000700+0000001353          1400 GE2515               1AZ
788817000788817               788817               170213GR     1400+00000+GR0000009512+0000009512+000000000+000001335+0000010840+0000000007+I20000000000+0000010840+Z
788817001788817112-116069     788817006009681820277TCS CARRIER BAG JUMBO  0000001000+00000048+00000+0001T   00000048+0000001355          1400 GE2090               1AZ
788817002788817903-000673     788817006009803358237SWT SHERBET GRAPE 4PK  0000004000+00000876+00000+0001T   00000876+0000001355          1400 GE2150               1AZ
788817003788817903-005003     788817006002580020106SWT DINKY DUMMIES 5PK  0000004000+00001490+00000+0001T   00001490+0000001355          1400 GE2150               1AZ
788818000788818               788818               170213GR     1400+00000+GR0000005786+0000005786+000000000+000000811+0000006590+0000000007+I20000000000+0000006590+Z
788818001788818079-105603     788818006003000230907ART+CRAFT STAMP ROUND  0000002000+00001578+00000+0001T   00001578+0000001356          1400 GE2130               1AZ
788818002788818079-105611     788818006003000249596ART+CRAFT INK PAD 1CLR 0000001000+00002630+00000+0001T   00002630+0000001356          1400 GE2130               1AZ
788819000788819               788819               170213GR     1400+00000+GR0000005083+0000005083+000000000+000000712+0000005795+0000000000+I40000005795+0000000000+Z
788819001788819089-060027     788819006003000245871KEY-CHAIN HEART 6X6cm  0000001000+00003069+00000+0001T   00003069+0000001359          1400 GE2205               1AZ
788819002788819018-000177     788819006001023797513MUG MINI LOVE ASSTD    0000001000+00000700+00000+0001T   00000700+0000001359          1400 GE2515               1AZ
788819003788819903-000194     788819006009826020616SWT CHOC RP LOLLY 25G  0000001000+00001314+00000+0001T   00001314+0000001359          1400 GE2150               1AZ
788820000788820               788820               170213GR     1400+00000+GR0000000613+0000000613+000000000+000000086+0000000690+0000000009+I20000000000+0000000690+Z
788820001788820083-000055     788820006003000003853LIGHTER ELCTRNC REFILBL0000001000+00000613+00000+0001T   00000613+0000001403          1400 GE2315               1AZ
788821000788821               788821               170213GR     1400+00000+GR0000001753+0000001753+000000000+000000246+0000001990+0000000009+I20000000000+0000001990+Z
788821001788821200-000305     788821006003000622467FOOD OVEN ROASTING BAGS0000001000+00001753+00000+0001T   00002630+0008171408          1400 GE2214               1AZ
788822000788822               788822               170213GR     1400+00000+GR0000009899+0000009899+000000000+000001389+0000011288+0000000000+I40000011288+0000000000+Z
788822001788822903-000844     788822005010478432567SWT CANDY DL LUV HEARTS0000001000+00001314+00000+0001T   00001314+0000001410          1400 GE2150               1AZ
788822002788822018-000177     788822006001023797513MUG MINI LOVE ASSTD    0000002000+00000700+00000+0001T   00000700+0000001410          1400 GE2515               1AZ
788822003788822903-000155     788822006009803374435SWT LOLLY I LUV U HEART0000002000+00000525+00000+0001T   00000525+0000001410          1400 GE2150               1AZ
788822004788822565-000041     788822006008766115642NOVELTY BALL ICON 5.5cm0000001000+00002630+00000+0001T   00002630+0000001410          1400 GE2745               1AZ
788822005788822903-000843     788822008693029031067SWT GUMMY JELAXY 80G   0000001000+00000964+00000+0001T   00000964+0000001410          1400 GE2150               1AZ
788822006788822564-000015     788822006003000140862BUBBLE TEST TUBE       0000001000+00001753+00000+0001T   00001753+0000001410          1400 GE2131               1AZ
788822007788822903-000200     788822006009826020234SWT CHOC RP CHOCO 23G  0000001000+00000788+00000+0001T   00000788+0000001410          1400 GE2150               1AZ
788823000788823               788823               170213GR     1400+00000+GR0000007059+0000007059+000000000+000000991+0000008050+0000000000+I20000000000+0000008050+Z
788823001788823006-000804     788823006003000574445STREAMERS 6-ROLLS 2.5cm0000001000+00001753+00000+0001T   00001753+0000001422          1400 GE2131               1AZ
788823002788823039-000319-6   788823006003000442980B/CANDLES LRG NUMBER-6 0000001000+00000876+00000+0001T   00000876+0000001422          1400 GE2510               1AZ
788823003788823039-000319-1   788823006003000442386B/CANDLES LRG NUMBER-1 0000001000+00000876+00000+0001T   00000876+0000001422          1400 GE2510               1AZ
788823004788823366-000155     788823006003000602049DRESS UP WAISTCOAT     0000002000+00001753+00000+0001T   00002630+0008181422          1400 GE2131               1AZ
788823005788823112-116069     788823006009681820277TCS CARRIER BAG JUMBO  0000001000+00000048+00000+0001T   00000048+0000001422          1400 GE2090               1AZ
788824000788824               788824               170213GR     1400+00000+GR0000002665+0000002665+000000000+000000374+0000003030+0000000009+I20000000000+0000003030+Z
788824001788824018-000129     788824006001023403353MUG OCC. LOVE V-SHAPE  0000001000+00002630+00000+0001T   00002630+0000001427          1400 GE2515               1AZ
788824002788824112-116038     788824006009681820246TCS CARRIER BAG MIDI   0000001000+00000035+00000+0001T   00000035+0000001427          1400 GE2090               1AZ
788825000788825               788825               170213GR     1400+00000+GR0000004383+0000004383+000000000+000000615+0000004990+0000000008+I20000000000+0000004990+Z
788825001788825046-002013-PK6 788825004897006174851BATTERY BUTTON AG13 6PC0000001000+00001753+00000+0001T   00001753+0000001435          1400 GE2312               1AZ
788825002788825033-000008     788825006003000226818PILL REMINDER 28-COMPAR0000001000+00002630+00000+0001T   00002630+0000001435          1400 GE2200               1AZ
788826000788826               788826               170213GR     1400+00000+GR0000001753+0000001753+000000000+000000246+0000001999+0000000000+I40000001999+0000000000+Z
788826001788826071-001015     788826006001023910387MARKERS PERMANENT 3PK  0000001000+00001753+00000+0001T   00001753+0000001442          1400 GE2130               1AZ
788827000788827               788827               170213GR     1400+00000+GR0000009854+0000009854+000000000+000001381+0000011235+0000000000+I40000011235+0000000000+Z
788827001788827077-000311     788827006001023608666GIFT-BAG 11X14CM GLOSS 0000001000+00000613+00000+0001T   00000613+0000001445          1400 GE2112               1AZ
788827002788827071-030012     788827006003000283842PEN NVLTY GLITTER 6PC  0000001000+00002630+00000+0001T   00002630+0000001445          1400 GE2130               1AZ
788827003788827080-000139     788827006003000611690CARD & ENV MINI SET 6PC0000003000+00002192+00000+0001T   00002192+0000001445          1400 GE2112               1AZ
788827004788827112-116038     788827006009681820246TCS CARRIER BAG MIDI   0000001000+00000035+00000+0001T   00000035+0000001445          1400 GE2090               1AZ
788828000788828               788828               170213GR     1400+00000+GR0000006576+0000006576+000000000+000000922+0000007498+0000000000+I40000007498+0000000000+Z
788828001788828018-050000     788828006003000412679MUG OCC LOVE TWIN BEAR 0000001000+00006139+00000+0001T   00006139+0000001448          1400 GE2515               1AZ
788828002788828080-000133-A   788828006003000647019MINI VALENTINES CARD   0000001000+00000437+00000+0001T   00000437+0000001448          1400 GE2112               1AZ
788829000788829               788829               170213GR     1400+00000+GR0000007888+0000007888+000000000+000001106+0000008994+0000000000+I40000008994+0000000000+Z
788829001788829077-000311     788829006001023608666GIFT-BAG 11X14CM GLOSS 0000002000+00000613+00000+0001T   00000613+0000001458          1400 GE2112               1AZ
788829002788829301-085002     788829006003000420704ORN OCC. LOVE BELL ASST0000002000+00001753+00000+0001T   00002630+0008121458          1400 GE2505               1AZ
788829003788829077-000303     788829006001023593757GIFT-BAG PAPER MED     0000002000+00001578+00000+0001T   00001578+0000001458          1400 GE2112               1AZ
788830000788830               788830               170213GR     1400+00000+GR0000003506+0000003506+000000000+000000492+0000003998+0000000000+I40000003998+0000000000+Z
788830001788830039-000323     788830006001023524171BIRTHDAY-CANDLES 24PCE 0000001000+00000876+00000+0001T   00000876+0000001504          1400 GE2510               1AZ
788830002788830077-000270     788830006003000395453GIFT-BAG PPR JMB 33X45 0000001000+00002630+00000+0001T   00002630+0000001504          1400 GE2112               1AZ
788831000788831               788831               170213GR     1400+00000+GR0000001753+0000001753+000000000+000000246+0000001999+0000000000+I40000001999+0000000000+Z
788831001788831006-000120     788831006001023346889BALLOONS 10PC MIX COL  0000001000+00001753+00000+0001T   00001753+0000001508          1400 GE2131               1AZ
788832000788832               788832               170213GR     1400+00000+GR0000004432+0000004432+000000000+000000621+0000005053+0000000000+I40000005053+0000000000+Z
788832001788832080-000127     788832006003000424351VALENTINES DAY 36x24CM 0000002000+00002192+00000+0001T   00002192+0000001628          1400 GE2112               1AZ
788832002788832112-116069     788832006009681820277TCS CARRIER BAG JUMBO  0000001000+00000048+00000+0001T   00000048+0000001628          1400 GE2090               1AZ
788833000788833               788833               170213GR     1400+00000+GR0000003104+0000003104+000000000+000000435+0000003530+0000000009+I20000000000+0000003530+Z
788833001788833567-014135     788833006003000560264BOOK COLOURING 240P    0000001000+00003069+00000+0001T   00003507+0008191628          1400 GE2757               1AZ
788833002788833112-116038     788833006009681820246TCS CARRIER BAG MIDI   0000001000+00000035+00000+0001T   00000035+0000001628          1400 GE2090               1AZ
788834000788834               788834               170213GR     1400+00000+GR0000008727+0000008727+000000000+000001224+0000009951+0000000000+I40000009951+0000000000+Z
788834001788834304-001141     788834006003000679133FLOWER MINI SUCCULENT  0000001000+00001139+00000+0001T   00001139+0000001637          1400 GE2510               1AZ
788834002788834019-000020     788834006003000673612VASE GLS 22CM BAUBLE   0000001000+00005262+00000+0001T   00005262+0000001637          1400 GE2510               1AZ
788834003788834007-010192     788834006009635830536BOOK H/COVER A5 192PAGE0000002000+00001139+00000+0001T   00001139+0000001637          1400 GE2130               1AZ
788834004788834112-116069     788834006009681820277TCS CARRIER BAG JUMBO  0000001000+00000048+00000+0001T   00000048+0000001637          1400 GE2090               1AZ
788835000788835               788835               170213GR     1400+00000+GR0000017542+0000017542+000000000+000002456+0000019990+0000000008+I20000000000+0000019990+Z
788835001788835361-000693     788835006003000654277DOLL MED 28CM FASHION  0000001000+00017542+00000+0001T   00017542+0000001638          1400 GE2725               1AZ
788836000788836               788836               170213GR     1400+00000+GR0000004385+0000004385+000000000+000000614+0000004999+0000000000+I40000004999+0000000000+Z
788836001788836368-000001     788836006003000097982Plush Bear 25cm        0000001000+00004385+00000+0001T   00004385+0000001639          1400 GE2745               1AZ
788837000788837               788837               170213GR     1400+00000+GR0000004385+0000004385+000000000+000000614+0000004990+0000000009+I20000000000+0000004990+Z
788837001788837464-008011     788837006003000137091GAME COMPENDIUM 5-IN-1 0000001000+00004385+00000+0001T   00004385+0000001639          1400 GE2785               1AZ
788838000788838               788838               170213GR     1400+00000+GR0000013680+0000013680+000000000+000001916+0000015596+0000000000+I40000015596+0000000000+Z
788838001788838077-000309     788838006001023608604GIFT-BAG 25X32CM GLOSS 0000001000+00001753+00000+0001T   00001753+0000001645          1400 GE2112               1AZ
788838002788838368-000614     788838006001023705808PLUSH LOVE 30cm        0000001000+00008771+00000+0001T   00008771+0000001645          1400 GE2745               1AZ
788838003788838018-000127     788838006001023380289MUG OCC STRAIGHT LOVE  0000001000+00001578+00000+0001T   00001753+0006471645          1400 GE2515               1AZ
788838004788838080-000124     788838006003000297733CARD & ENV VALENTINES  0000001000+00001578+00000+0001T   00001578+0000001645          1400 GE2112               1AZ
788839000788839               788839               170213GR     1400+00000+GR0000000788+0000000788+000000000+000000111+0000000890+0000000009+I20000000000+0000000890+Z
788839001788839903-000200     788839006009826020234SWT CHOC RP CHOCO 23G  0000001000+00000788+00000+0001T   00000788+0000001646          1400 GE2150               1AZ
788840000788840               788840               170213GR     1400+00000+GR0000004117+0000004117+000000000+000000579+0000004690+0000000006+I20000000000+0000004690+Z
788840001788840088-000084     788840006001023798060P/POURRI 120G ASSTD    0000001000+00001753+00000+0001T   00001753+0000001652          1400 GE2212               1AZ
788840002788840903-000200     788840006009826020234SWT CHOC RP CHOCO 23G  0000003000+00000788+00000+0001T   00000788+0000001652          1400 GE2150               1AZ
788841000788841               788841               170213GR     1400+00000+GR0000003506+0000003506+000000000+000000492+0000003990+0000000008+I20000000000+0000003990+Z
788841001788841024-091100     788841006001023914224BAKING-CUPS PAPER 100PC0000002000+00001753+00000+0001T   00001753+0000001653          1400 GE2300               1AZ
788842000788842               788842               170213GR     1400+00000+GR0000001874+0000001874+000000000+000000263+0000002130+0000000007+I20000000000+0000002130+Z
788842001788842304-001011     788842006001023806727FLWR ROSE RED W/BEAR   0000002000+00000613+00000+0001T   00000788+0006471654          1400 GE2510               1AZ
788842002788842083-000055     788842006003000003853LIGHTER ELCTRNC REFILBL0000001000+00000613+00000+0001T   00000613+0000001654          1400 GE2315               1AZ
788842003788842112-116038     788842006009681820246TCS CARRIER BAG MIDI   0000001000+00000035+00000+0001T   00000035+0000001654          1400 GE2090               1AZ
788843000788843               788843               170213GR     1400+00000+GR0000001490+0000001490+000000000+000000209+0000001690+0000000009+I20000000000+0000001690+Z
788843001788843263-000413     788843006003000600458VEHICLE RACER PULL BACK0000001000+00001490+00000+0001T   00001490+0000001655          1400 GE2710               1AZ
788844000788844               788844               170213GR     1400+00000+GR0000003507+0000003507+000000000+000000491+0000003990+0000000008+I20000000000+0000003990+Z
788844001788844018-005009     788844006001023725608MUG W/PLUSH-BEAR LOVE  0000001000+00003507+00000+0001T   00003507+0000001656          1400 GE2515               1AZ
788845000788845               788845               170213GR     1400+00000+GR0000001050+0000001050+000000000+000000148+0000001190+0000000008+I20000000000+0000001190+Z
788845001788845080-000133-A   788845006003000647019MINI VALENTINES CARD   0000001000+00000437+00000+0001T   00000437+0000001658          1400 GE2112               1AZ
788845002788845304-001011     788845006001023806727FLWR ROSE RED W/BEAR   0000001000+00000613+00000+0001T   00000788+0006471658          1400 GE2510               1AZ
788846000788846               788846               170213GR     1400+00000+GR0000050214+0000050214+000000000+000007033+0000057240+0000000007+I20000000000+0000057240+Z
788846001788846077-000299     788846006003000395576G/BAG 32x25cm LRG LOVE 0000001000+00001490+00000+0001T   00001490+0000001706          1400 GE2112               1AZ
788846002788846077-000011-D   788846006001023808554TISSUE-WRAP WHITE 10PCE0000001000+00000876+00000+0001T   00000876+0000001706          1400 GE2112               1AZ
788846003788846073-000518     788846006003000283743COSMETIC BAG 2-DIV     0000001000+00008771+00000+0001T   00008771+0000001706          1400 GE2200               1AZ
788846004788846041-093000     788846006003000320882B/GIFT SET 4PC B/RANGE 0000001000+00007016+00000+0001T   00007016+0000001706          1400 GE2200               1AZ
788846005788846073-000527     788846006003000594122TOILETRY BAG MENS      0000001000+00006139+00000+0001T   00006139+0000001706          1400 GE2200               1AZ
788846006788846112-116069     788846006009681820277TCS CARRIER BAG JUMBO  0000001000+00000048+00000+0001T   00000048+0000001706          1400 GE2090               1AZ
788846007788846486-010000     788846006003000283248C/WALL QTZ PL ANTIQUE  0000001000+00024560+00000+0001T   00024560+0000001706          1400 GE2510               1AZ
788846008788846046-000012     788846006904708013062BATTERIES AA  CARD-OF-40000001000+00001314+00000+0001T   00001314+0000001706          1400 GE2312               1AZ
788847000788847               788847               170213GR     1400+00000+GR0000002665+0000002665+000000000+000000374+0000003030+0000000009+I20000000000+0000003030+Z
788847001788847027-009025     788847006003962000747DUSTPAN-SET PL         0000001000+00002630+00000+0001T   00002630+0000001708          1400 GE2212               1AZ
788847002788847112-116038     788847006009681820246TCS CARRIER BAG MIDI   0000001000+00000035+00000+0001T   00000035+0000001708          1400 GE2090               1AZ
788848000788848               788848               170213GR     1400+00000+GR0000009204+0000009204+000000000+000001290+0000010490+0000000004+I20000000000+0000010490+Z
788848001788848071-001002     788848006003000217540PENCIL-SHARPNER DOUBLE 0000001000+00001578+00000+0001T   00001578+0000001709          1400 GE2130               1AZ
788848002788848071-003011     788848006001023762825PEN STICKBALL X10 ASSTD0000001000+00001753+00000+0001T   00001753+0000001709          1400 GE2130               1AZ
788848003788848071-001346     788848006001023912985HIGHLIGHTERS 4PCE CARD 0000001000+00002192+00000+0001T   00002192+0000001709          1400 GE2130               1AZ
788848004788848007-000160     788848006009685857286NOTE-BOOK A5 SHORTHAND 0000003000+00001227+00000+0001T   00001227+0000001709          1400 GE2130               1AZ
788849000788849               788849               170213GR     1400+00000+GR0000004998+0000004998+000000000+000000700+0000005690+0000000008+I20000000000+0000005690+Z
788849001788849001-000175     788849006001023788108B/MUG GLS LOVE 380ML   0000001000+00004385+00000+0001T   00004385+0000001710          1400 GE2515               1AZ
788849002788849083-000055     788849006003000003853LIGHTER ELCTRNC REFILBL0000001000+00000613+00000+0001T   00000613+0000001710          1400 GE2315               1AZ
788850000788850               788850               170213GR     1400+00000+GR0000000700+0000000700+000000000+000000098+0000000790+0000000008+I20000000000+0000000790+Z
788850001788850018-000177     788850006001023797513MUG MINI LOVE ASSTD    0000001000+00000700+00000+0001T   00000700+0000001711          1400 GE2515               1AZ
788851000788851               788851               170213GR     1400+00000+GR0000003507+0000003507+000000000+000000491+0000003990+0000000008+I20000000000+0000003990+Z
788851001788851018-005009     788851006001023725608MUG W/PLUSH-BEAR LOVE  0000001000+00003507+00000+0001T   00003507+0000001713          1400 GE2515               1AZ
788852000788852               788852               170213GR     1400+00000+GR0000001401+0000001401+000000000+000000197+0000001598+0000000000+I40000001598+0000000000+Z
788852001788852304-001011     788852006001023806727FLWR ROSE RED W/BEAR   0000001000+00000613+00000+0001T   00000788+0006471716          1400 GE2510               1AZ
788852002788852903-000200     788852006009826020234SWT CHOC RP CHOCO 23G  0000001000+00000788+00000+0001T   00000788+0000001716          1400 GE2150               1AZ
788853000788853               788853               170213GR     1400+00000+GR0000001490+0000001490+000000000+000000209+0000001699+0000000000+I40000001699+0000000000+Z
788853001788853077-000304     788853006001023483232GIFT-BAG 25X32CM E/DAY 0000001000+00001490+00000+0001T   00001490+0000001718          1400 GE2112               1AZ
788854000788854               788854               170213GR     1400+00000+GR0000001227+0000001227+000000000+000000172+0000001390+0000000009+I20000000000+0000001390+Z
788854001788854903-000518     788854006001704012782SWT STRAWS S/BERRY 100g0000001000+00001227+00000+0001T   00001227+0000001719          1400 GE2150               1AZ
788855000788855               788855               170213GR     1400+00000+GR0000001753+0000001753+000000000+000000246+0000001990+0000000009+I20000000000+0000001990+Z
788855001788855079-000341     788855006920705495519FELT-TIP PENS 12PCE    0000001000+00001753+00000+0001T   00001753+0000001737          1400 GE2130               1AZ
788856000788856               788856               170213GR     1400+00000+GR0000005259+0000005259+000000000+000000738+0000005990+0000000007+I20000000000+0000005990+Z
788856001788856088-000084     788856006001023798060P/POURRI 120G ASSTD    0000001000+00001753+00000+0001T   00001753+0000001738          1400 GE2212               1AZ
788856002788856039-000114     788856006001023524058CANDLE T/LITE RED 3.5CM0000001000+00001753+00000+0001T   00001753+0000001738          1400 GE2510               1AZ
788856003788856006-000120     788856006001023346889BALLOONS 10PC MIX COL  0000001000+00001753+00000+0001T   00001753+0000001738          1400 GE2131               1AZ
788857000788857               788857               170213GR     1400+00000+GR0000000788+0000000788+000000000+000000111+0000000890+0000000009+I20000000000+0000000890+Z
788857001788857903-000200     788857006009826020234SWT CHOC RP CHOCO 23G  0000001000+00000788+00000+0001T   00000788+0000001738          1400 GE2150               1AZ
788858000788858               788858               170213GR     1400+00000+GR0000007412+0000007412+000000000+000001039+0000008451+0000000000+I40000008451+0000000000+Z
788858001788858077-000270     788858006003000395453GIFT-BAG PPR JMB 33X45 0000001000+00002630+00000+0001T   00002630+0000001751          1400 GE2112               1AZ
788858002788858077-000303     788858006001023593757GIFT-BAG PAPER MED     0000002000+00001578+00000+0001T   00001578+0000001751          1400 GE2112               1AZ
788858003788858018-000127     788858006001023380289MUG OCC STRAIGHT LOVE  0000001000+00001578+00000+0001T   00001753+0006471751          1400 GE2515               1AZ
788858004788858112-116069     788858006009681820277TCS CARRIER BAG JUMBO  0000001000+00000048+00000+0001T   00000048+0000001751          1400 GE2090               1AZ
788859000788859               788859               170213GR     1400+00000+GR0000003507+0000003507+000000000+000000491+0000003998+0000000000+I40000003998+0000000000+Z
788859001788859200-000111     788859006003000676668PICNIC CUPS DOME 300ml 0000001000+00003507+00000+0001T   00003507+0000001752          1400 GE2214               1AZ
A17021300                                          11161367GRSLAVE 1                       GE21IC
A17021301                                          13070041GRSLAVE 1                       GE22IC
A17021302                                          16100905GRSLAVE 1                       2IC2IC
C78884000                                          170213GR304-001204     16520397SLAVE 1     GE21IC0000000000+0000000000+0010000001000+
M17021391                              CASH        GRSLAVE 1                       Z-REPORT No.   650TOTAL (Sales - Refunds)           8193.28       CASH TO BE BANKED                 5761.70       DEBIT CARDS                          0.00       CREDIT CARDS                      2431.68       Z-READING                         8193.28       AIRTIME DEBIT CARD SALES             0.00       AIRTIME CARD SALES                   0.00       OVERS/UNDERS                         0.10       AIRTIME CASH SALES                   0.00       GIFT CARDS                           0.00       GIFT CARD CASH SALES                 0.00       T O T A L  CASH PAYOUTS              0.00                                                                                                                                                                                                                                                                                                                                                      Z
M17021392                              CASH        GRABSENT                                                                                                                                                                                          ANNUAL LEAVE                                                                                                                                                                                    DAY OFF                                                                                                                                                                                         COMMENTS          THANKS GR                                                                                                                                                                                                                                                                                                                                                                    Z
Y17021300                                          GR00000000719038+000098
ZGR17021319423 SLAVE 1      SALES DATA                     NEXT INVOICE NO.  788860 0650
X GR Slave 1 First invoice 788762 170213 Last invoice 788859 170213 Next invoice 788860 Total number of records 000000315 clbackup completed 19:42:56
