726036000726036               726036               170213GS     1400+00000+GS0000010572+0000010572+000000000+000001481+0000012050+0000000003+I20000000000+0000012050+Z
726036001726036368-000665     726036006003000169016PLUSH BEAR 30cm        0000001000+00008771+00000+0001T   00008771+0000000948          1400 CE1745               1AZ
726036002726036077-000290     726036006001023902023GIFT BOX 26x32x13cm    0000001000+00001753+00000+0001T   00001753+0000000948          1400 CE1112               1AZ
726036003726036112-116069     726036006009681820277TCS CARRIER BAG JUMBO  0000001000+00000048+00000+0001T   00000048+0000000948          1400 CE1090               1AZ
726037000726037               726037               170213GS     1400+00000+GS0000009985+0000009985+000000000+000001404+0000011380+0000000009+I20000000000+0000011380+Z
726037001726037903-000219     726037006925925911450SWT ERKO MALLOW CHOC   0000001000+00001753+00000+0001T   00001753+0000000950          1400 CE1150               1AZ
726037002726037903-000087     726037006001704000161SWT SPECKLED-EGGS 50G  0000003000+00001139+00000+0001T   00001139+0000000950          1400 CE1150               1AZ
726037003726037903-000897     726037008692806325207SWT CHOC DBL MINI ROLL 0000003000+00000876+00000+0001T   00000876+0000000950          1400 CE1150               1AZ
726037004726037903-000012     726037006002099007308SWT MALLOW S/BERRY     0000003000+00000437+00000+0001T   00000437+0000000950          1400 CE1150               1AZ
726037005726037903-000494     726037006001704009911SWT GUMMY TEENY TEDDIES0000001000+00000876+00000+0001T   00000876+0000000950          1400 CE1150               1AZ
726038000726038               726038               170213GS     1400+00000+GS0000001753+0000001753+000000000+000000246+0000001990+0000000009+I20000000000+0000001990+Z
726038001726038080-000111     726038006003000252695CARD&ENVELPE - MUSICAL 0000001000+00001753+00000+0001T   00001753+0000000953          1400 CE1112               1AZ
726039000726039               726039               170213GS     1400+00000+GS0000001314+0000001314+000000000+000000184+0000001490+0000000008+I20000000000+0000001490+Z
726039001726039107-004105     726039006002923010504BUCKET 9L OPEN         0000001000+00001314+00000+0001T   00001314+0000000955          1400 CE1210               1AZ
726040000726040               726040               170213GS     1400+00000+GS0000012234+0000012234+000000000+000001715+0000013949+0000000000+I40000013949+0000000000+Z
726040001726040112-116069     726040006009681820277TCS CARRIER BAG JUMBO  0000001000+00000048+00000+0001T   00000048+0000001008          1400 CE1090               1AZ
726040002726040018-050000     726040006003000412679MUG OCC LOVE TWIN BEAR 0000001000+00006139+00000+0001T   00006139+0000001008          1400 CE1515               1AZ
726040003726040080-000139     726040006003000611690CARD & ENV MINI SET 6PC0000001000+00002192+00000+0001T   00002192+0000001008          1400 CE1112               1AZ
726040004726040903-000087     726040006001704000161SWT SPECKLED-EGGS 50G  0000001000+00001139+00000+0001T   00001139+0000001008          1400 CE1150               1AZ
726040005726040903-000155     726040006009803374435SWT LOLLY I LUV U HEART0000001000+00000525+00000+0001T   00000525+0000001008          1400 CE1150               1AZ
726040006726040304-001011     726040006001023806727FLWR ROSE RED W/BEAR   0000001000+00000613+00000+0001T   00000788+0006471008          1400 CE1510               1AZ
726040007726040077-000303     726040006001023593757GIFT-BAG PAPER MED     0000001000+00001578+00000+0001T   00001578+0000001008          1400 CE1112               1AZ
726041000726041               726041               170213GS     1400+00000+GS0000003325+0000003325+000000000+000000468+0000003790+0000000003+I20000000000+0000003790+Z
726041001726041903-000155     726041006009803374435SWT LOLLY I LUV U HEART0000005000+00000525+00000+0001T   00000525+0000001008          1400 CE1150               1AZ
726041002726041464-000121     726041006003000640492PLAYING CARDS MINI     0000001000+00000700+00000+0001T   00000700+0000001008          1400 CE1785               1AZ
726042000726042               726042               170213GS     1400+00000+GS0000000700+0000000700+000000000+000000098+0000000790+0000000008+I20000000000+0000000790+Z
726042001726042007-000166     726042006009685857316SPIRAL NOTES A6 100PG  0000001000+00000700+00000+0001T   00000700+0000001009          1400 CE1130               1AZ
726043000726043               726043               170213GS     1400+00000+GS0000002454+0000002454+000000000+000000344+0000002798+0000000000+I40000002798+0000000000+Z
726043001726043903-000111     726043006001704006378SWT LIQUORICE-TWISTS   0000002000+00001227+00000+0001T   00001227+0000001010          1400 CE1150               1AZ
726044000726044               726044               170213GS     1400+00000+GS0000005963+0000005963+000000000+000000835+0000006790+0000000008+I20000000000+0000006790+Z
726044001726044018-030000     726044006003000421060MUG OCCASIONS LOVE 2PCE0000001000+00004385+00000+0001T   00004385+0000001020          1400 CE1515               1AZ
726044002726044077-000303     726044006001023593757GIFT-BAG PAPER MED     0000001000+00001578+00000+0001T   00001578+0000001020          1400 CE1112               1AZ
726045000726045               726045               170213GS     1400+00000+GS0000001314+0000001314+000000000+000000184+0000001490+0000000008+I20000000000+0000001490+Z
726045001726045077-000407     726045006003000145096G/BAG PP 19X26X8CM     0000001000+00001314+00000+0001T   00001314+0000001146          1400 CE1112               1AZ
726046000726046               726046               170213GS     1400+00000+GS0000001576+0000001576+000000000+000000222+0000001790+0000000008+I20000000000+0000001790+Z
726046001726046903-000200     726046006009826020234SWT CHOC RP CHOCO 23G  0000002000+00000788+00000+0001T   00000788+0000001148          1400 CE1150               1AZ
726047000726047               726047               170213GS     1400+00000+GS0000002628+0000002628+000000000+000000368+0000002990+0000000006+I20000000000+0000002990+Z
726047001726047006-000166-D   726047006003000516490BALLOONS LRG 6PC RED   0000001000+00001314+00000+0001T   00001314+0000001157          1400 CE1131               1AZ
726047002726047006-000166-H   726047006003000608096BALLOONS HELIUM 6PC WHT0000001000+00001314+00000+0001T   00001314+0000001157          1400 CE1131               1AZ
726048000726048               726048               170213GS     1400+00000+GS0000001753+0000001753+000000000+000000246+0000001990+0000000009+I20000000000+0000001990+Z
726048001726048077-000240     726048006003000326259G/RIBBON 4PC PEARLIZED 0000001000+00001753+00000+0001T   00001753+0000001200          1400 CE1112               1AZ
726049000726049               726049               170213GS     1400+00000+GS0000004385+0000004385+000000000+000000614+0000004990+0000000009+I20000000000+0000004990+Z
726049001726049082-007582     726049006003000465804SUNGLASSES EMPORIUM    0000001000+00004385+00000+0001T   00004385+0000001317          1400 CE1160               1AZ
726050000726050               726050               170213GS     1400+00000+GS0000002192+0000002192+000000000+000000307+0000002490+0000000009+I20000000000+0000002490+Z
726050001726050080-000127     726050006003000424351VALENTINES DAY 36x24CM 0000001000+00002192+00000+0001T   00002192+0000001318          1400 CE1112               1AZ
726051000726051               726051               170213GS     1400+00000+GS0000002192+0000002192+000000000+000000307+0000002490+0000000009+I20000000000+0000002490+Z
726051001726051041-007001-B   726051006003000636983H/GLOW LIQUID LAVENDER 0000001000+00002192+00000+0001T   00002192+0000001319          1400 CE1200               1AZ
726052000726052               726052               170213GS     1400+00000+GS0000026357+0000026357+000000000+000003693+0000030050+0000000000+I40000030050+0000000000+Z
726052001726052077-000270     726052006003000395453GIFT-BAG PPR JMB 33X45 0000001000+00002630+00000+0001T   00002630+0000001321          1400 CE1112               1AZ
726052002726052077-000328     726052006003000668939GIFT-BAG PAPER JMB     0000001000+00001753+00000+0001T   00001753+0000001321          1400 CE1112               1AZ
726052003726052369-000201     726052006003000636655BABY TOY PLAY/LEARN    0000001000+00008771+00000+0001T   00008771+0000001321          1400 CE1745               1AZ
726052004726052368-000637     726052006001023874092PLUSH BEAR SLEEPING LOV0000001000+00011402+00000+0001T   00012279+0006471321          1400 CE1745               1AZ
726052005726052006-000124     726052006003000625888BALLOONS 10PC MIX COL  0000001000+00001753+00000+0001T   00001753+0000001321          1400 CE1131               1AZ
726052006726052112-116069     726052006009681820277TCS CARRIER BAG JUMBO  0000001000+00000048+00000+0001T   00000048+0000001321          1400 CE1090               1AZ
726053000726053               726053               170213GS     1400+00000+GS0000003507+0000003507+000000000+000000491+0000003998+0000000000+I40000003998+0000000000+Z
726053001726053018-005009     726053006001023725608MUG W/PLUSH-BEAR LOVE  0000001000+00003507+00000+0001T   00003507+0000001327          1400 CE1515               1AZ
726054000726054               726054               170213GS     1400+00000+GS0000043395+0000043395+000000000+000006082+0000049477+0000000000+I10000049077+0000000400+Z
726054001726054079-011234     726054006001023829139ART+CRAFT PAINTING ASST0000001000+00003507+00000+0001T   00003507+0000001337          1400 CE1130               1AZ
726054002726054365-002999     726054006001023583734KITCHEN-SET W/ACCESS.  0000001000+00003507+00000+0001T   00003507+0000001337          1400 CE1725               1AZ
726054003726054567-014132     726054006003000560028BOOK COLOURING 24 PAGE 0000002000+00000876+00000+0001T   00000876+0000001337          1400 CE1757               1AZ
726054004726054267-000202     726054006003000339808PUZZLE 48pc DINOSAUR   0000001000+00003069+00000+0001T   00003069+0000001337          1400 CE1755               1AZ
726054005726054566-000056     726054006003000661381STICKER DRESS UP GIRL  0000001000+00001753+00000+0001T   00001753+0000001337          1400 CE1130               1AZ
726054006726054560-000116     726054006003000592111ANIMALS FUNNY ANIMALS  0000001000+00003507+00000+0001T   00003507+0000001337          1400 CE1745               1AZ
726054007726054565-000043     726054006003000109562NOVELTY BALL FUNNY FACE0000002000+00001753+00000+0001T   00001753+0000001337          1400 CE1745               1AZ
726054008726054562-000020     726054006003000600861EDU PLAY DOUGH 60g 4PC 0000001000+00003507+00000+0001T   00003507+0000001337          1400 CE1755               1AZ
726054009726054560-000108     726054006003000548262ANIMALS DINOSAUR+ACC   0000001000+00005262+00000+0001T   00005262+0000001337          1400 CE1745               1AZ
726054010726054267-006033     726054006003000513017ASST MINI TIN PUZZLE   0000001000+00003507+00000+0001T   00003507+0000001337          1400 CE1755               1AZ
726054011726054034-078842     726054006001023857378MELAMINE KIDDIES BOWL  0000002000+00001753+00000+0001T   00001753+0000001337          1400 CE1215               1AZ
726054012726054034-078841     726054006003000594023MELAMINE KIDS BOWL 17cm0000002000+00001753+00000+0001T   00001753+0000001337          1400 CE1215               1AZ
726054013726054034-078843     726054006003000594146MELAMINE KIDS TUMBLER  0000002000+00001753+00000+0001T   00001753+0000001337          1400 CE1215               1AZ
726055000726055               726055               170213GS     1400+00000+GS0000003507+0000003507+000000000+000000491+0000003990+0000000008+I20000000000+0000003990+Z
726055001726055162-093137     726055006001492931371#TAG Earring           0000001000+00003507+00000+0001T   00003507+0000001341          1400 CE1160               1AZ
726056000726056               726056               170213GS     1400+00000+GS0000004385+0000004385+000000000+000000614+0000004990+0000000009+I20000000000+0000004990+Z
726056001726056567-011479     726056009781472372109BK THREE LITTLE PIGS   0000001000+00004385+00000+0001T   00004385+0000001343          1400 CE1757               1AZ
726057000726057               726057               170213GS     1400+00000+GS0000000876+0000000876+000000000+000000123+0000000990+0000000009+I20000000000+0000000990+Z
726057001726057082-026204     726057006001023816443R/GLASSES STRINGS 2PCE 0000001000+00000876+00000+0001T   00000876+0000001345          1400 CE1160               1AZ
726058000726058               726058               170213GS     1400+00000+GS0000003945+0000003945+000000000+000000553+0000004498+0000000000+I40000004498+0000000000+Z
726058001726058903-000926     726058006914204004556SWT NOVELTY ST N/LACE  0000001000+00001753+00000+0001T   00001753+0000001347          1400 CE1150               1AZ
726058002726058018-000170     726058006001023775528MUG OCC. LOVE 2PC MINI 0000001000+00002192+00000+0001T   00002192+0000001347          1400 CE1515               1AZ
726059000726059               726059               170213GS     1400+00000+GS0000022057+0000022057+000000000+000003092+0000025140+0000000009+I20000000000+0000025140+Z
726059001726059077-000457     726059006003000285662G/BAG METALLIC JMB SOL 0000001000+00001753+00000+0001T   00001753+0000001352          1400 CE1112               1AZ
726059002726059368-000637     726059006001023874092PLUSH BEAR SLEEPING LOV0000001000+00011402+00000+0001T   00012279+0006471352          1400 CE1745               1AZ
726059003726059304-001204     726059006001023737984FLOWER OCC. TEDDY/ROSES0000001000+00001402+00000+0001T   00001490+0006471352          1400 CE1510               1AZ
726059004726059080-000127     726059006003000424351VALENTINES DAY 36x24CM 0000001000+00002192+00000+0001T   00002192+0000001352          1400 CE1112               1AZ
726059005726059368-000040     726059006003000671786PLUSH ICONS 7.5cm      0000002000+00002630+00000+0001T   00002630+0000001352          1400 CE1745               1AZ
726059006726059112-116069     726059006009681820277TCS CARRIER BAG JUMBO  0000001000+00000048+00000+0001T   00000048+0000001352          1400 CE1090               1AZ
726060000726060               726060               170213GS     1400+00000+GS0000010959+0000010959+000000000+000001537+0000012496+0000000000+I40000012496+0000000000+Z
726060001726060200-003024     726060006001023657299REFUSE BAGS 20PCE BLACK0000002000+00001753+00000+0001T   00001753+0000001357          1400 CE1214               1AZ
726060002726060080-000133-A   726060006003000647019MINI VALENTINES CARD   0000001000+00000437+00000+0001T   00000437+0000001357          1400 CE1112               1AZ
726060003726060174-000305     726060006003000105502TRAVEL NECK-PILLOW     0000001000+00007016+00000+0001T   00007016+0000001357          1400 CE1205               1AZ
726061000726061               726061               170213GS     1400+00000+GS0000001753+0000001753+000000000+000000246+0000001990+0000000009+I20000000000+0000001990+Z
726061001726061464-000114     726061006003000027057DICE 16MM CARD-OF-6    0000001000+00001753+00000+0001T   00001753+0000001403          1400 CE1785               1AZ
726062000726062               726062               170213GS     1400+00000+GS0000003156+0000003156+000000000+000000442+0000003590+0000000008+I20000000000+0000003590+Z
726062001726062077-000303     726062006001023593757GIFT-BAG PAPER MED     0000002000+00001578+00000+0001T   00001578+0000001505          1400 CE1112               1AZ
726063000726063               726063               170213GS     1400+00000+GS0000001753+0000001753+000000000+000000246+0000001990+0000000009+I20000000000+0000001990+Z
726063001726063080-000106     726063006003000237098CARD&ENVLPE BDAY GIRL  0000001000+00001753+00000+0001T   00001753+0000001508          1400 CE1112               1AZ
726064000726064               726064               170213GS     1400+00000+GS0000002839+0000002839+000000000+000000399+0000003230+0000000008+I20000000000+0000003230+Z
726064001726064304-001204     726064006001023737984FLOWER OCC. TEDDY/ROSES0000002000+00001402+00000+0001T   00001490+0006471511          1400 CE1510               1AZ
726064002726064112-116038     726064006009681820246TCS CARRIER BAG MIDI   0000001000+00000035+00000+0001T   00000035+0000001511          1400 CE1090               1AZ
726065000726065               726065               170213GS     1400+00000+GS0000009469+0000009469+000000000+000001327+0000010790+0000000006+I20000000000+0000010790+Z
726065001726065077-000309     726065006001023608604GIFT-BAG 25X32CM GLOSS 0000001000+00001753+00000+0001T   00001753+0000001516          1400 CE1112               1AZ
726065002726065018-000127     726065006001023380289MUG OCC STRAIGHT LOVE  0000001000+00001578+00000+0001T   00001753+0006471516          1400 CE1515               1AZ
726065003726065031-000001-A   726065006003000246908P/FRAME GLS LOVE 9X13cm0000001000+00004385+00000+0001T   00004385+0000001516          1400 CE1510               1AZ
726065004726065039-001023     726065006003000466337CANDLE TEA-LITE METALIC0000001000+00001753+00000+0001T   00001753+0000001516          1400 CE1510               1AZ
726066000726066               726066               170213GS     1400+00000+GS0000002630+0000002630+000000000+000000369+0000002990+0000000009+I20000000000+0000002990+Z
726066001726066006-000104     726066006001023990112BALLOONS 40PC AIR PUMP 0000001000+00002630+00000+0001T   00002630+0000001517          1400 CE1131               1AZ
726067000726067               726067               170213GS     1400+00000+GS0000004559+0000004559+000000000+000000639+0000005190+0000000008+I20000000000+0000005190+Z
726067001726067077-000299     726067006003000395576G/BAG 32x25cm LRG LOVE 0000001000+00001490+00000+0001T   00001490+0000001521          1400 CE1112               1AZ
726067002726067089-060027     726067006003000245871KEY-CHAIN HEART 6X6cm  0000001000+00003069+00000+0001T   00003069+0000001521          1400 CE1205               1AZ
726068000726068               726068               170213GS     1400+00000+GS0000002892+0000002892+000000000+000000406+0000003290+0000000008+I20000000000+0000003290+Z
726068001726068039-000322     726068006001023524157B/CANDLES W/HOLDERS 24 0000001000+00001139+00000+0001T   00001139+0000001523          1400 CE1510               1AZ
726068002726068006-000208-H   726068006003000412945PINK/BLUE PLATES 23cm  0000001000+00001753+00000+0001T   00001753+0000001523          1400 CE1131               1AZ
726069000726069               726069               170213GS     1400+00000+GS0000003507+0000003507+000000000+000000491+0000003990+0000000008+I20000000000+0000003990+Z
726069001726069016-006498-B   726069006001023774767S/JAR GLS/MTL POLKA-DOT0000001000+00003507+00000+0001T   00003507+0000001541          1400 CE1300               1AZ
726070000726070               726070               170213GS     1400+00000+GS0000006886+0000006886+000000000+000000965+0000007851+0000000000+I40000007851+0000000000+Z
726070001726070006-000800     726070006001023902801HAT CABARET 14x18cm    0000001000+00001753+00000+0001T   00001753+0000001543          1400 CE1131               1AZ
726070002726070567-011426     726070009780799373851BK REASER EK LEES SELF 0000001000+00003507+00000+0001T   00003507+0000001543          1400 CE1757               1AZ
726070003726070079-013032-C   726070006003000389520POLY SHAPES            0000001000+00001578+00000+0001T   00001578+0000001543          1400 CE1130               1AZ
726070004726070112-116069     726070006009681820277TCS CARRIER BAG JUMBO  0000001000+00000048+00000+0001T   00000048+0000001543          1400 CE1090               1AZ
726071000726071               726071               170213GS     1400+00000+GS0000001753+0000001753+000000000+000000246+0000001990+0000000009+I20000000000+0000001990+Z
726071001726071200-003024     726071006001023657299REFUSE BAGS 20PCE BLACK0000001000+00001753+00000+0001T   00001753+0000001548          1400 CE1214               1AZ
726072000726072               726072               170213GS     1400+00000+GS0000002628+0000002628+000000000+000000368+0000002990+0000000006+I20000000000+0000002990+Z
726072001726072006-000166-D   726072006003000516490BALLOONS LRG 6PC RED   0000002000+00001314+00000+0001T   00001314+0000001630          1400 CE1131               1AZ
726073000726073               726073               170213GS     1400+00000+GS0000003329+0000003329+000000000+000000468+0000003790+0000000007+I20000000000+0000003790+Z
726073001726073077-000245     726073006001023759214GIFT-RIBBON METALLICx2 0000001000+00001227+00000+0001T   00001227+0000001654          1400 CE1112               1AZ
726073002726073033-000124     726073006009654960597COMBS HANDLE + TAIL 2PC0000002000+00001051+00000+0001T   00001051+0000001654          1400 CE1200               1AZ
726074000726074               726074               170213GS     1400+00000+GS0000003507+0000003507+000000000+000000491+0000003998+0000000000+I40000003998+0000000000+Z
726074001726074301-085004     726074006003000420469ORN LOVE PLAQUE 21X10CM0000001000+00003507+00000+0001T   00003946+0006471657          1400 CE1505               1AZ
726075000726075               726075               170213GS     1400+00000+GS0000002454+0000002454+000000000+000000344+0000002790+0000000008+I20000000000+0000002790+Z
726075001726075077-000151     726075006008766114676GIFT-WRAP C/PHANE ASSTD0000001000+00000876+00000+0001T   00000876+0000001659          1400 CE1112               1AZ
726075002726075018-000127     726075006001023380289MUG OCC STRAIGHT LOVE  0000001000+00001578+00000+0001T   00001753+0006471659          1400 CE1515               1AZ
726076000726076               726076               170213GS     1400+00000+GS0000003507+0000003507+000000000+000000491+0000003998+0000000000+I40000003998+0000000000+Z
726076001726076018-005009     726076006001023725608MUG W/PLUSH-BEAR LOVE  0000001000+00003507+00000+0001T   00003507+0000001704          1400 CE1515               1AZ
726077000726077               726077               170213GS     1400+00000+GS0000001753+0000001753+000000000+000000246+0000001990+0000000009+I20000000000+0000001990+Z
726077001726077007-000230     726077006001023995315LABELS STICK-ON STARS  0000001000+00001753+00000+0001T   00001753+0000001709          1400 CE1130               1AZ
726078000726078               726078               170213GS     1400+00000+GS0000003541+0000003541+000000000+000000497+0000004038+0000000000+I40000004038+0000000000+Z
726078001726078016-006509     726078006003000567355S/JAR GLS MINI LABEL   0000002000+00001753+00000+0001T   00002192+0008191712          1400 CE1300               1AZ
726078002726078112-116038     726078006009681820246TCS CARRIER BAG MIDI   0000001000+00000035+00000+0001T   00000035+0000001712          1400 CE1090               1AZ
726079000726079               726079               170213GS     1400+00000+GS0000001578+0000001578+000000000+000000221+0000001790+0000000009+I20000000000+0000001790+Z
726079001726079077-000303     726079006001023593757GIFT-BAG PAPER MED     0000001000+00001578+00000+0001T   00001578+0000001712          1400 CE1112               1AZ
726080000726080               726080               170213GS     1400+00000+GS0000002664+0000002664+000000000+000000374+0000003030+0000000008+I20000000000+0000003030+Z
726080001726080080-000116     726080006003000253555CARD&ENVELOPE-HANDMADE 0000001000+00001753+00000+0001T   00001753+0000001713          1400 CE1112               1AZ
726080002726080903-000520     726080006001704009898SWT GUMMY MINI SOUR 60g0000001000+00000876+00000+0001T   00000876+0000001713          1400 CE1150               1AZ
726080003726080112-116038     726080006009681820246TCS CARRIER BAG MIDI   0000001000+00000035+00000+0001T   00000035+0000001713          1400 CE1090               1AZ
726081000726081               726081               170213GS     1400+00000+GS0000001787+0000001787+000000000+000000251+0000002030+0000000008+I20000000000+0000002030+Z
726081001726081089-000192-A   726081006001023901774KEY-CHAIN ACRYLIC      0000001000+00000876+00000+0001T   00000876+0000001714          1400 CE1205               1AZ
726081002726081036-000606     726081006003000322213WASHING PEGS PACK 20   0000001000+00000876+00000+0001T   00001314+0008191714          1400 CE1212               1AZ
726081003726081112-116038     726081006009681820246TCS CARRIER BAG MIDI   0000001000+00000035+00000+0001T   00000035+0000001714          1400 CE1090               1AZ
726082000726082               726082               170213GS     1400+00000+GS0000002630+0000002630+000000000+000000369+0000002999+0000000000+I40000002999+0000000000+Z
726082001726082018-000129     726082006001023403353MUG OCC. LOVE V-SHAPE  0000001000+00002630+00000+0001T   00002630+0000001715          1400 CE1515               1AZ
726083000726083               726083               170213GS     1400+00000+GS0000003507+0000003507+000000000+000000491+0000003990+0000000008+I20000000000+0000003990+Z
726083001726083018-005009     726083006001023725608MUG W/PLUSH-BEAR LOVE  0000001000+00003507+00000+0001T   00003507+0000001716          1400 CE1515               1AZ
726084000726084               726084               170213GS     1400+00000+GS0000004382+0000004382+000000000+000000615+0000004990+0000000007+I20000000000+0000004990+Z
726084001726084038-001803     726084006001023766588DOILIES 17cm RND 18PC  0000001000+00001753+00000+0001T   00001753+0000001719          1400 CE1300               1AZ
726084002726084563-000318-L   726084006003000407088SERVIETTES 33cm RED    0000001000+00002192+00000+0001T   00002192+0000001719          1400 CE1214               1AZ
726084003726084080-000133-A   726084006003000647019MINI VALENTINES CARD   0000001000+00000437+00000+0001T   00000437+0000001719          1400 CE1112               1AZ
726085000726085               726085               170213GS     1400+00000+GS0000003507+0000003507+000000000+000000491+0000003998+0000000000+I40000003998+0000000000+Z
726085001726085562-000011     726085006003000600984PLAY DOUGH NEON TUBE   0000001000+00003507+00000+0001T   00003507+0000001721          1400 CE1755               1AZ
726086000726086               726086               170213GS     1400+00000+GS0000004431+0000004431+000000000+000000621+0000005050+0000000002+I20000000000+0000005050+Z
726086001726086301-085008     726086006003000673933ORN OCC.LOVE TINSEL HRT0000001000+00003069+00000+0001T   00003069+0000001723          1400 CE1505               1AZ
726086002726086006-000166-D   726086006003000516490BALLOONS LRG 6PC RED   0000001000+00001314+00000+0001T   00001314+0000001723          1400 CE1131               1AZ
726086003726086112-116069     726086006009681820277TCS CARRIER BAG JUMBO  0000001000+00000048+00000+0001T   00000048+0000001723          1400 CE1090               1AZ
726087000726087               726087               170213GS     1400+00000+GS0000001490+0000001490+000000000+000000209+0000001690+0000000009+I20000000000+0000001690+Z
726087001726087306-000985     726087006003000559831FIRSTAID PLASTER 10PC  0000001000+00001490+00000+0001T   00001490+0000001724          1400 CE1200               1AZ
726088000726088               726088               170213GS     1400+00000+GS0000002192+0000002192+000000000+000000307+0000002490+0000000009+I20000000000+0000002490+Z
726088001726088366-000302     726088006001023903013DRESSUP DEVIL/MOUSE    0000001000+00002192+00000+0001T   00002192+0000001725          1400 CE1131               1AZ
726089000726089               726089               170213GS     1400+00000+GS0000007016+0000007016+000000000+000000983+0000007990+0000000009+I20000000000+0000007990+Z
726089001726089562-000002     726089006001023491015COUNTING-FRAME 30x20cm 0000001000+00007016+00000+0001T   00007016+0000001742          1400 CE1755               1AZ
726090000726090               726090               170213GS     1400+00000+GS0000003946+0000003946+000000000+000000553+0000004499+0000000000+I40000004499+0000000000+Z
726090001726090103-000473     726090006003000631087BAMBOO FLOWER BASKET   0000001000+00003946+00000+0001T   00003946+0000001744          1400 CE1300               1AZ
726091000726091               726091               170213GS     1400+00000+GS0000001578+0000001578+000000000+000000221+0000001790+0000000009+I20000000000+0000001790+Z
726091001726091077-000303     726091006001023593757GIFT-BAG PAPER MED     0000001000+00001578+00000+0001T   00001578+0000001747          1400 CE1112               1AZ
726092000726092               726092               170213GS     1400+00000+GS0000000876+0000000876+000000000+000000123+0000000990+0000000009+I20000000000+0000000990+Z
726092001726092903-000494     726092006001704009911SWT GUMMY TEENY TEDDIES0000001000+00000876+00000+0001T   00000876+0000001747          1400 CE1150               1AZ
726093000726093               726093               170213GS     1400+00000+GS0000007013+0000007013+000000000+000000984+0000007997+0000000000+I40000007997+0000000000+Z
726093001726093006-006018     726093006001023735256PARTY-SPRAY HAIR ASSORT0000002000+00002630+00000+0001T   00002630+0000001755          1400 CE1131               1AZ
726093002726093006-000118     726093006001023730725BALLOONS 6PC TWISTER   0000001000+00001753+00000+0001T   00001753+0000001755          1400 CE1131               1AZ
726094000726094               726094               170213GS     1400+00000+GS0000001613+0000001613+000000000+000000226+0000001839+0000000000+I40000001839+0000000000+Z
726094001726094018-000127     726094006001023380289MUG OCC STRAIGHT LOVE  0000001000+00001578+00000+0001T   00001753+0006471756          1400 CE1515               1AZ
726094002726094112-116038     726094006009681820246TCS CARRIER BAG MIDI   0000001000+00000035+00000+0001T   00000035+0000001756          1400 CE1090               1AZ
726095000726095               726095               170213GS     1400+00000+GS0000008627+0000008627+000000000+000001208+0000009830+0000000005+I20000000000+0000009830+Z
726095001726095018-005009     726095006001023725608MUG W/PLUSH-BEAR LOVE  0000001000+00003507+00000+0001T   00003507+0000001757          1400 CE1515               1AZ
726095002726095162-093138     726095006001492931388#TAG BROWN SHIMMER DROP0000001000+00003507+00000+0001T   00003507+0000001757          1400 CE1160               1AZ
726095003726095077-000303     726095006001023593757GIFT-BAG PAPER MED     0000001000+00001578+00000+0001T   00001578+0000001757          1400 CE1112               1AZ
726095004726095112-116038     726095006009681820246TCS CARRIER BAG MIDI   0000001000+00000035+00000+0001T   00000035+0000001757          1400 CE1090               1AZ
726096000726096               726096               170213GS     1400+00000+GS0000003104+0000003104+000000000+000000435+0000003530+0000000009+I20000000000+0000003530+Z
726096001726096038-092233     726096006003000328925TABLE-MAT N/SLIP ASST  0000001000+00003069+00000+0001T   00003507+0008191758          1400 CE1300               1AZ
726096002726096112-116038     726096006009681820246TCS CARRIER BAG MIDI   0000001000+00000035+00000+0001T   00000035+0000001758          1400 CE1090               1AZ
726097000726097               726097               170213GS     1400+00000+GS0000002804+0000002804+000000000+000000394+0000003198+0000000000+I40000003198+0000000000+Z
726097001726097304-001204     726097006001023737984FLOWER OCC. TEDDY/ROSES0000002000+00001402+00000+0001T   00001490+0006471800          1400 CE1510               1AZ
726098000726098               726098               170213GS     1400+00000+GS0000001314+0000001314+000000000+000000184+0000001490+0000000008+I20000000000+0000001490+Z
726098001726098018-000119     726098006003000336074MUG DAILY STRAIGHT     0000001000+00001314+00000+0001T   00001753+0008171800          1400 CE1515               1AZ
726099000726099               726099               170213GS     1400+00000+GS0000001314+0000001314+000000000+000000184+0000001490+0000000008+I20000000000+0000001490+Z
726099001726099077-000310     726099006001023608635GIFT-BAG 18X23CM GLOSS 0000001000+00001314+00000+0001T   00001314+0000001802          1400 CE1112               1AZ
A17021300                                          13415506GSSLAVE 1                       CE12IC
M17021301                              IT          GSSTEELDALE GS                                    726099                                          THANKS
M17021391                              CASH        GSSLAVE 1                       Z-REPORT No.   640TOTAL (Sales - Refunds)           3560.71       CASH TO BE BANKED                 1947.90       DEBIT CARDS                          0.00       CREDIT CARDS                      1612.81       Z-READING                         3560.71       AIRTIME DEBIT CARD SALES             0.00       AIRTIME CARD SALES                   0.00       OVERS/UNDERS                         0.00       AIRTIME CASH SALES                   0.00       GIFT CARDS                           0.00       GIFT CARD CASH SALES                 0.00       T O T A L  CASH PAYOUTS              0.00                                                                                                                                                                                                                                                                                                                                                      Z
M17021392                              CASH        GSABSENT                                                                                                                                                                                          ANNUAL LEAVE                                                                                                                                                                                    DAY OFF                                                                                                                                                                                         COMMENTS                                                                                                                                                                                                                                                                                                                                                                                       Z
Y17021300                                          GS00000000312617+000064
ZGS17021319433 SLAVE 1      SALES DATA                     NEXT INVOICE NO.  726100 0640
X GS Slave 1 First invoice 726036 170213 Last invoice 726099 170213 Next invoice 726100 Total number of records 000000200 clbackup completed 19:43:09
