738517000738517               738517               170213GS     1400+00000+GS0000001753+0000001753+000000000+000000246+0000001990+0000000009+I20000000000+0000001990+Z
738517001738517071-000006     738517006001023732613PENCIL REFILLABLE 6PK  0000001000+00001753+00000+0001T   00001753+0000000908          1400 J84130               2AZ
738518000738518               738518               170213GS     1400+00000+GS0000011841+0000011841+000000000+000001658+0000013490+0000000009+I20000000000+0000013490+Z
738518001738518047-002042-H   738518006003000625291P/ADPT 1x16A 2x5A 2xUSB0000001000+00011841+00000+0001T   00011841+0000000931          1400 J84880               2AZ
738519000738519               738519               170213GS     1400+00000+GS0000006874+0000006874+000000000+000000963+0000007830+0000000007+I20000000000+0000007830+Z
738519001738519018-050000     738519006003000412679MUG OCC LOVE TWIN BEAR 0000001000+00006139+00000+0001T   00006139+0000001048          1400 J84515               2AZ
738519002738519018-000177     738519006001023797513MUG MINI LOVE ASSTD    0000001000+00000700+00000+0001T   00000700+0000001048          1400 J84515               2AZ
738519003738519112-116038     738519006009681820246TCS CARRIER BAG MIDI   0000001000+00000035+00000+0001T   00000035+0000001048          1400 J84090               2AZ
738520000738520               738520               170213GS     1400+00000+GS0000001753+0000001753+000000000+000000246+0000001990+0000000009+I20000000000+0000001990+Z
738520001738520077-000239     738520006003000160419GIFT-RIBBON ROLL PEARL 0000001000+00001753+00000+0001T   00001753+0000001049          1400 J84112               2AZ
738521000738521               738521               170213GS     1400+00000+GS0000001752+0000001752+000000000+000000246+0000001990+0000000008+I20000000000+0000001990+Z
738521001738521077-000150-D   738521006003000054343GIFT-WRAP CELLPHANE CLR0000002000+00000876+00000+0001T   00000876+0000001049          1400 J84112               2AZ
738522000738522               738522               170213GS     1400+00000+GS0000000786+0000000786+000000000+000000111+0000000890+0000000007+I20000000000+0000000890+Z
738522001738522007-000405     738522006009635830369EXERCISE-BOOK A5 72PAGE0000003000+00000262+00000+0001T   00000262+0000001100          1400 J84130               2AZ
738523000738523               738523               170213GS     1400+00000+GS0000003818+0000003818+000000000+000000535+0000004350+0000000003+I20000000000+0000004350+Z
738523001738523112-116069     738523006009681820277TCS CARRIER BAG JUMBO  0000001000+00000048+00000+0001T   00000048+0000001102          1400 J84090               2AZ
738523002738523018-000127     738523006001023380289MUG OCC STRAIGHT LOVE  0000001000+00001578+00000+0001T   00001753+0006471102          1400 J84515               2AZ
738523003738523080-000127     738523006003000424351VALENTINES DAY 36x24CM 0000001000+00002192+00000+0001T   00002192+0000001102          1400 J84112               2AZ
738524000738524               738524               170213GS     1400+00000+GS0000002192+0000002192+000000000+000000307+0000002490+0000000009+I20000000000+0000002490+Z
738524001738524565-000015     738524006003000672035NOVELTY SLIME ANIMAL   0000001000+00002192+00000+0001T   00002192+0000001107          1400 J84745               2AZ
738525000738525               738525               170213GS     1400+00000+GS0000001753+0000001753+000000000+000000246+0000001990+0000000009+I20000000000+0000001990+Z
738525001738525080-000117     738525006003000236350CARD & ENVELOPE THANK U0000001000+00001753+00000+0001T   00001753+0000001107          1400 J84112               2AZ
738526000738526               738526               170213GS     1400+00000+GS0000002665+0000002665+000000000+000000374+0000003030+0000000009+I20000000000+0000003030+Z
738526001738526006-000200-B   738526006003000096046PARTY GIRL DESIGN 12PCE0000001000+00002630+00000+0001T   00002630+0000001111          1400 J84131               2AZ
738526002738526112-116038     738526006009681820246TCS CARRIER BAG MIDI   0000001000+00000035+00000+0001T   00000035+0000001111          1400 J84090               2AZ
738527000738527               738527               170213GS     1400+00000+GS0000002190+0000002190+000000000+000000308+0000002490+0000000008+I20000000000+0000002490+Z
738527001738527903-000012     738527006002099007308SWT MALLOW S/BERRY     0000001000+00000437+00000+0001T   00000437+0000001112          1400 J84150               2AZ
738527002738527077-000324     738527006001023677594GIFT-BAG 33X45CM E/D FL0000001000+00001753+00000+0001T   00001753+0000001112          1400 J84112               2AZ
738528000738528               738528               170213GS     1400+00000+GS0000006169+0000006169+000000000+000000864+0000007030+0000000003+I20000000000+0000007030+Z
738528001738528018-005009     738528006001023725608MUG W/PLUSH-BEAR LOVE  0000001000+00003507+00000+0001T   00003507+0000001116          1400 J84515               2AZ
738528002738528903-000070     738528006001704001106SWT TOFFEE CREAMY 35g  0000002000+00000700+00000+0001T   00000700+0000001116          1400 J84150               2AZ
738528003738528903-000111     738528006001704006378SWT LIQUORICE-TWISTS   0000001000+00001227+00000+0001T   00001227+0000001116          1400 J84150               2AZ
738528004738528112-116038     738528006009681820246TCS CARRIER BAG MIDI   0000001000+00000035+00000+0001T   00000035+0000001116          1400 J84090               2AZ
738529000738529               738529               170213GS     1400+00000+GS0000004418+0000004418+000000000+000000620+0000005030+0000000008+I20000000000+0000005030+Z
738529001738529366-006104     738529006003000616930DRESS UP FACE PAINT    0000001000+00001753+00000+0001T   00001753+0000001117          1400 J84131               2AZ
738529002738529006-006018-B   738529006003000008278PARTY-SPRAY HAIR NEON  0000001000+00002630+00000+0001T   00002630+0000001117          1400 J84131               2AZ
738529003738529112-116038     738529006009681820246TCS CARRIER BAG MIDI   0000001000+00000035+00000+0001T   00000035+0000001117          1400 J84090               2AZ
738530000738530               738530               170213GS     1400+00000+GS0000004385+0000004385+000000000+000000614+0000004990+0000000009+I20000000000+0000004990+Z
738530001738530261-008345     738530006003000599219GUN HAND LONG BARREL   0000001000+00004385+00000+0001T   00004385+0000001120          1400 J84710               2AZ
738531000738531               738531               170213GS     1400+00000+GS0000005700+0000005700+000000000+000000798+0000006490+0000000008+I20000000000+0000006490+Z
738531001738531159-000801     738531006001023999832BATHMAT 36x59cm ASST   0000001000+00005700+00000+0001T   00005700+0000001125          1400 J84200               2AZ
738532000738532               738532               170213GS     1400+00000+GS0000001753+0000001753+000000000+000000246+0000001990+0000000009+I20000000000+0000001990+Z
738532001738532080-000100     738532006003000236114CARD & ENVELOPE BDAY   0000001000+00001753+00000+0001T   00001753+0000001133          1400 J84112               2AZ
738533000738533               738533               170213GS     1400+00000+GS0000003507+0000003507+000000000+000000491+0000003990+0000000008+I20000000000+0000003990+Z
738533001738533018-005009     738533006001023725608MUG W/PLUSH-BEAR LOVE  0000001000+00003507+00000+0001T   00003507+0000001141          1400 J84515               2AZ
738534000738534               738534               170213GS     1400+00000+GS0000026656+0000026656+000000000+000003734+0000030390+0000000000+I20000000000+0000030390+Z
738534001738534018-000130     738534006001023867537MUG OCC LOVE MINI+HEART0000001000+00003507+00000+0001T   00003507+0000001148          1400 J84515               2AZ
738534002738534304-001204     738534006001023737984FLOWER OCC. TEDDY/ROSES0000001000+00001402+00000+0001T   00001490+0006471148          1400 J84510               2AZ
738534003738534301-085000     738534006003000674299 ORN OCC. LOVE HEARTS  0000001000+00002192+00000+0001T   00002192+0000001148          1400 J84505               2AZ
738534004738534368-000012     738534006003000610464PLUSH BEAR 30cm SITTING0000001000+00008771+00000+0001T   00008771+0000001148          1400 J84745               2AZ
738534005738534006-000108     738534006003000587995BALLOONS 6PC RED/WHT   0000002000+00001753+00000+0001T   00001753+0000001148          1400 J84131               2AZ
738534006738534018-000127     738534006001023380289MUG OCC STRAIGHT LOVE  0000001000+00001578+00000+0001T   00001753+0006471148          1400 J84515               2AZ
738534007738534104-000130     738534006001023846440WASTEPAPER-BASKET  25cm0000001000-00002192+00000+0001T   00002192+0000001148          1400 J842101IC            2 Z
738534008738534104-000130     738534006001023846440WASTEPAPER-BASKET  25cm0000001000+00002192+00000+0001T   00002192+0000001148          1400 J842101IC            2AZ
738534009738534075-000412     738534006001023855299SHOPPER-BASKET PL      0000001000+00005700+00000+0001T   00005700+0000001148          1400 J84160               2AZ
738535000738535               738535               170213GS     1400+00000+GS0000009679+0000009679+000000000+000001357+0000011036+0000000000+I40000011036+0000000000+Z
738535001738535903-000624     738535006003000671793SWEET LOLLY BLU/BRRY   0000002000+00001753+00000+0001T   00001753+0000001156          1400 J84150               2AZ
738535002738535089-060027     738535006003000245871KEY-CHAIN HEART 6X6cm  0000002000+00003069+00000+0001T   00003069+0000001156          1400 J84205               2AZ
738535003738535112-116038     738535006009681820246TCS CARRIER BAG MIDI   0000001000+00000035+00000+0001T   00000035+0000001156          1400 J84090               2AZ
738536000738536               738536               170213GS     1400+00000+GS0000002980+0000002980+000000000+000000418+0000003390+0000000008+I20000000000+0000003390+Z
738536001738536071-081091     738536006001151010287STAED/GENKEM ALL-STICK 0000001000+00001227+00000+0001T   00001227+0000001158          1400 J84130               2AZ
738536002738536204-083002     738536006008766083002M/HOLD BUTTERFLIES 4PCE0000001000+00001753+00000+0001T   00001753+0000001158          1400 J84300               2AZ
738537000738537               738537               170213GS     1400+00000+GS0000005032+0000005032+000000000+000000705+0000005730+0000000007+I20000000000+0000005730+Z
738537001738537112-116038     738537006009681820246TCS CARRIER BAG MIDI   0000001000+00000035+00000+0001T   00000035+0000001211          1400 J84090               2AZ
738537002738537018-005009     738537006001023725608MUG W/PLUSH-BEAR LOVE  0000001000+00003507+00000+0001T   00003507+0000001211          1400 J84515               2AZ
738537003738537077-000299     738537006003000395576G/BAG 32x25cm LRG LOVE 0000001000+00001490+00000+0001T   00001490+0000001211          1400 J84112               2AZ
738538000738538               738538               170213GS     1400+00000+GS0000009469+0000009469+000000000+000001327+0000010796+0000000000+I40000010796+0000000000+Z
738538001738538206-000150     738538006003000628667SLICER CUCUMBER        0000001000+00002192+00000+0001T   00002192+0000001214          1400 J84321               2AZ
738538002738538903-000087     738538006001704000161SWT SPECKLED-EGGS 50G  0000001000+00001139+00000+0001T   00001139+0000001214          1400 J84150               2AZ
738538003738538051-600657     738538006003000422340PLANTER W/TRAY 20x20x160000001000+00005262+00000+0001T   00005262+0000001214          1400 J84820               2AZ
738538004738538903-000520     738538006001704009898SWT GUMMY MINI SOUR 60g0000001000+00000876+00000+0001T   00000876+0000001214          1400 J84150               2AZ
738539000738539               738539               170213GS     1400+00000+GS0000010572+0000010572+000000000+000001481+0000012050+0000000003+I20000000000+0000012050+Z
738539001738539112-116069     738539006009681820277TCS CARRIER BAG JUMBO  0000001000+00000048+00000+0001T   00000048+0000001215          1400 J84090               2AZ
738539002738539159-000107     738539006001023640406SHOWER-CURTAIN 180cm   0000002000+00005262+00000+0001T   00006139+0008191215          1400 J84200               2AZ
738540000738540               738540               170213GS     1400+00000+GS0000002192+0000002192+000000000+000000307+0000002490+0000000009+I20000000000+0000002490+Z
738540001738540071-007064     738540006003000533794P/CASE S/LINE SPACE CAS0000001000+00002192+00000+0001T   00002192+0000001216          1400 J84130               2AZ
738541000738541               738541               170213GS     1400+00000+GS0000003507+0000003507+000000000+000000491+0000003990+0000000008+I20000000000+0000003990+Z
738541001738541301-085004     738541006003000420469ORN LOVE PLAQUE 21X10CM0000001000+00003507+00000+0001T   00003946+0006471218          1400 J84505               2AZ
738542000738542               738542               170213GS     1400+00000+GS0000001490+0000001490+000000000+000000209+0000001690+0000000009+I20000000000+0000001690+Z
738542001738542077-000384     738542006003000275243G/BAG HOT STMP 18x23CM 0000001000+00001490+00000+0001T   00001490+0000001219          1400 J84112               2AZ
738543000738543               738543               170213GS     1400+00000+GS0000001138+0000001138+000000000+000000160+0000001290+0000000008+I20000000000+0000001290+Z
738543001738543033-005994     738543006001023789570SEWING-NEEDLES 16PCE   0000001000+00000613+00000+0001T   00000613+0000001220          1400 J84200               2AZ
738543002738543007-000402     738543006009635830864EXERCISE-BOOK A4 72PGE 0000001000+00000525+00000+0001T   00000525+0000001220          1400 J84130               2AZ
738544000738544               738544               170213GS     1400+00000+GS0000004385+0000004385+000000000+000000614+0000004990+0000000009+I20000000000+0000004990+Z
738544001738544024-000078     738544006001023849168SIEVE FLOUR 16cm PL-RIM0000001000+00004385+00000+0001T   00004385+0000001232          1400 J84300               2AZ
738545000738545               738545               170213GS     1400+00000+GS0000001753+0000001753+000000000+000000246+0000001990+0000000009+I20000000000+0000001990+Z
738545001738545077-000289     738545006001023901996GIFT BOX 20x25x11cm    0000001000+00001753+00000+0001T   00001753+0000001237          1400 J84112               2AZ
738546000738546               738546               170213GS     1400+00000+GS0000006173+0000006173+000000000+000000865+0000007038+0000000000+I40000007038+0000000000+Z
738546001738546112-116038     738546006009681820246TCS CARRIER BAG MIDI   0000001000+00000035+00000+0001T   00000035+0000001244          1400 J84090               2AZ
738546002738546105-001075     738546006001023844873LUNCH BOX 17x11x7cm    0000002000+00003069+00000+0001T   00003069+0000001244          1400 J84210               2AZ
738547000738547               738547               170213GS     1400+00000+GS0000007325+0000007325+000000000+000001026+0000008350+0000000001+I20000000000+0000008350+Z
738547001738547112-116069     738547006009681820277TCS CARRIER BAG JUMBO  0000001000+00000048+00000+0001T   00000048+0000001246          1400 J84090               2AZ
738547002738547018-005009     738547006001023725608MUG W/PLUSH-BEAR LOVE  0000001000+00003507+00000+0001T   00003507+0000001246          1400 J84515               2AZ
738547003738547077-000303     738547006001023593757GIFT-BAG PAPER MED     0000001000+00001578+00000+0001T   00001578+0000001246          1400 J84112               2AZ
738547004738547080-000127     738547006003000424351VALENTINES DAY 36x24CM 0000001000+00002192+00000+0001T   00002192+0000001246          1400 J84112               2AZ
738548000738548               738548               170213GS     1400+00000+GS0000005732+0000005732+000000000+000000804+0000006530+0000000006+I20000000000+0000006530+Z
738548001738548903-000843     738548008693029031067SWT GUMMY JELAXY 80G   0000001000+00000964+00000+0001T   00000964+0000001250          1400 J84150               2AZ
738548002738548903-000155     738548006009803374435SWT LOLLY I LUV U HEART0000001000+00000525+00000+0001T   00000525+0000001250          1400 J84150               2AZ
738548003738548018-000129     738548006001023403353MUG OCC. LOVE V-SHAPE  0000001000+00002630+00000+0001T   00002630+0000001250          1400 J84515               2AZ
738548004738548077-000303     738548006001023593757GIFT-BAG PAPER MED     0000001000+00001578+00000+0001T   00001578+0000001250          1400 J84112               2AZ
738548005738548112-116038     738548006009681820246TCS CARRIER BAG MIDI   0000001000+00000035+00000+0001T   00000035+0000001250          1400 J84090               2AZ
738549000738549               738549               170213GS     1400+00000+GS0000002980+0000002980+000000000+000000418+0000003398+0000000000+I40000003398+0000000000+Z
738549001738549466-001801     738549006001023343482BALLS TABLE-TENNIS BOX60000001000+00001490+00000+0001T   00001490+0000001258          1400 J84785               2AZ
738549002738549079-006494     738549006003000159864GLITTER GLUE 5PCE 11cm 0000001000+00001490+00000+0001T   00001490+0000001258          1400 J84130               2AZ
738550000738550               738550               170213GS     1400+00000+GS0000001490+0000001490+000000000+000000209+0000001690+0000000009+I20000000000+0000001690+Z
738550001738550077-000299     738550006003000395576G/BAG 32x25cm LRG LOVE 0000001000+00001490+00000+0001T   00001490+0000001303          1400 J84112               2AZ
738551000738551               738551               170213GS     1400+00000+GS0000008379+0000008379+000000000+000001174+0000009550+0000000003+I20000000000+0000009550+Z
738551001738551018-050000     738551006003000412679MUG OCC LOVE TWIN BEAR 0000001000+00006139+00000+0001T   00006139+0000001308          1400 J84515               2AZ
738551002738551080-000127     738551006003000424351VALENTINES DAY 36x24CM 0000001000+00002192+00000+0001T   00002192+0000001308          1400 J84112               2AZ
738551003738551112-116069     738551006009681820277TCS CARRIER BAG JUMBO  0000001000+00000048+00000+0001T   00000048+0000001308          1400 J84090               2AZ
738552000738552               738552               170213GS     1400+00000+GS0000000874+0000000874+000000000+000000124+0000000990+0000000008+I20000000000+0000000990+Z
738552001738552080-000133-A   738552006003000647019MINI VALENTINES CARD   0000002000+00000437+00000+0001T   00000437+0000001309          1400 J84112               2AZ
738553000738553               738553               170213GS     1400+00000+GS0000009417+0000009417+000000000+000001319+0000010730+0000000006+I20000000000+0000010730+Z
738553001738553112-116038     738553006009681820246TCS CARRIER BAG MIDI   0000001000+00000035+00000+0001T   00000035+0000001310          1400 J84090               2AZ
738553002738553030-000031-A   738553006003000457588PLAQUE W/WORDS ASSTD   0000001000+00004385+00000+0001T   00004823+0006471310          1400 J84505               2AZ
738553003738553018-005009     738553006001023725608MUG W/PLUSH-BEAR LOVE  0000001000+00003507+00000+0001T   00003507+0000001310          1400 J84515               2AZ
738553004738553077-000342     738553006003000273942G/BAG PAPER LRG 25X32CM0000001000+00001490+00000+0001T   00001490+0000001310          1400 J84112               2AZ
738554000738554               738554               170213GS     1400+00000+GS0000000613+0000000613+000000000+000000086+0000000690+0000000009+I20000000000+0000000690+Z
738554001738554903-000848     738554008692806080076SWT SNACK BISCUIT 70g  0000001000+00000613+00000+0001T   00000613+0000001422          1400 J84150               2AZ
738555000738555               738555               170213GS     1400+00000+GS0000002192+0000002192+000000000+000000307+0000002490+0000000009+I20000000000+0000002490+Z
738555001738555566-000359     738555006003000582709STICKER BOOK LOVE SPARK0000001000+00002192+00000+0001T   00002192+0000001424          1400 J84130               2AZ
738556000738556               738556               170213GS     1400+00000+GS0000006140-0000006140-000000000+000000860-0000007000-0000000000+I20000000000+0000007000-Z
738556001738556001-999906     738556000000000999906STATIONERY(PHOTOCOPIES)0000001000-00006140+00000+0001T   00000000+0000001427          1400 J849061IC            2 Z
738557000738557               738557               170213GS     1400+00000+GS0000036786+0000036786+000000000+000005172+0000041958+0000000000+I40000041958+0000000000+Z
738557001738557007-000192     738557006009635830062BOOK H/COVER A4 192PAGE0000012000+00001753+00000+0001T   00001753+0000001441          1400 J84130               2AZ
738557002738557007-000402     738557006009635830864EXERCISE-BOOK A4 72PGE 0000030000+00000525+00000+0001T   00000525+0000001441          1400 J84130               2AZ
738558000738558               738558               170213GS     1400+00000+GS0000004734+0000004734+000000000+000000663+0000005397+0000000000+I40000005397+0000000000+Z
738558001738558071-081091     738558006001151010287STAED/GENKEM ALL-STICK 0000001000+00001227+00000+0001T   00001227+0000001445          1400 J84130               2AZ
738558002738558071-000701     738558006001023852830CLIPBOARD A4  23x30cm  0000001000+00003507+00000+0001T   00003507+0000001445          1400 J84130               2AZ
738559000738559               738559               170213GS     1400+00000+GS0000021925+0000021925+000000000+000003072+0000024990+0000000007+I20000000000+0000024990+Z
738559001738559301-085007     738559006003000673698ORN OCC. LOVE S/PLAQUE 0000001000+00007893+00000+0001T   00007893+0000001447          1400 J84505               2AZ
738559002738559368-000637     738559006001023874092PLUSH BEAR SLEEPING LOV0000001000+00011402+00000+0001T   00012279+0006471447          1400 J84745               2AZ
738559003738559077-000270     738559006003000395453GIFT-BAG PPR JMB 33X45 0000001000+00002630+00000+0001T   00002630+0000001447          1400 J84112               2AZ
738560000738560               738560               170213GS     1400+00000+GS0000008819+0000008819+000000000+000001235+0000010050+0000000004+I20000000000+0000010050+Z
738560001738560031-006227     738560006001024004627P/FRAME COLLAGE 50X28CM0000001000+00008771+00000+0001T   00008771+0000001449          1400 J84510               2AZ
738560002738560112-116069     738560006009681820277TCS CARRIER BAG JUMBO  0000001000+00000048+00000+0001T   00000048+0000001449          1400 J84090               2AZ
738561000738561               738561               170213GS     1400+00000+GS0000006139+0000006139+000000000+000000860+0000006999+0000000000+I40000006999+0000000000+Z
738561001738561024-000195     738561006003000396498KIDDIES B/WARE ACC 2PC 0000001000+00006139+00000+0001T   00006139+0000001452          1400 J84300               2AZ
738562000738562               738562               170213GS     1400+00000+GS0000002630+0000002630+000000000+000000369+0000002990+0000000009+I20000000000+0000002990+Z
738562001738562079-000254     738562006002923016407ART APRON ASSTD        0000001000+00002630+00000+0001T   00002630+0000001454          1400 J84130               2AZ
738563000738563               738563               170213GS     1400+00000+GS0000001753+0000001753+000000000+000000246+0000001990+0000000009+I20000000000+0000001990+Z
738563001738563106-007125     738563006003000057689MILK-SACHET-JUG 1,0L   0000001000+00001753+00000+0001T   00001753+0000001457          1400 J84210               2AZ
738564000738564               738564               170213GS     1400+00000+GS0000003542+0000003542+000000000+000000496+0000004030+0000000008+I20000000000+0000004030+Z
738564001738564018-005009     738564006001023725608MUG W/PLUSH-BEAR LOVE  0000001000+00003507+00000+0001T   00003507+0000001502          1400 J84515               2AZ
738564002738564112-116038     738564006009681820246TCS CARRIER BAG MIDI   0000001000+00000035+00000+0001T   00000035+0000001502          1400 J84090               2AZ
738565000738565               738565               170213GS     1400+00000+GS0000000876+0000000876+000000000+000000123+0000000990+0000000009+I20000000000+0000000990+Z
738565001738565071-003003     738565006003000144525PEN BALL PEN 3PCE BLACK0000001000+00000876+00000+0001T   00000876+0000001505          1400 J84130               2AZ
738566000738566               738566               170213GS     1400+00000+GS0000006136+0000006136+000000000+000000861+0000006990+0000000007+I20000000000+0000006990+Z
738566001738566368-000040     738566006003000671786PLUSH ICONS 7.5cm      0000001000+00002630+00000+0001T   00002630+0000001506          1400 J84745               2AZ
738566002738566565-000040     738566006008766115635NOVELTY ICON BEANIE    0000001000+00002630+00000+0001T   00002630+0000001506          1400 J84745               2AZ
738566003738566077-000408     738566006003000145218G/BAG PP 15X21X7CM     0000001000+00000876+00000+0001T   00000876+0000001506          1400 J84112               2AZ
738567000738567               738567               170213GS     1400+00000+GS0000007664+0000007664+000000000+000001074+0000008730+0000000008+I20000000000+0000008730+Z
738567001738567018-050000     738567006003000412679MUG OCC LOVE TWIN BEAR 0000001000+00006139+00000+0001T   00006139+0000001508          1400 J84515               2AZ
738567002738567077-000299     738567006003000395576G/BAG 32x25cm LRG LOVE 0000001000+00001490+00000+0001T   00001490+0000001508          1400 J84112               2AZ
738567003738567112-116038     738567006009681820246TCS CARRIER BAG MIDI   0000001000+00000035+00000+0001T   00000035+0000001508          1400 J84090               2AZ
738568000738568               738568               170213GS     1400+00000+GS0000001314+0000001314+000000000+000000184+0000001490+0000000008+I20000000000+0000001490+Z
738568001738568046-000012     738568006904708013062BATTERIES AA  CARD-OF-40000001000+00001314+00000+0001T   00001314+0000001509          1400 J84312               2AZ
738569000738569               738569               170213GS     1400+00000+GS0000001753+0000001753+000000000+000000246+0000001990+0000000009+I20000000000+0000001990+Z
738569001738569366-006104     738569006003000616930DRESS UP FACE PAINT    0000001000+00001753+00000+0001T   00001753+0000001513          1400 J84131               2AZ
738570000738570               738570               170213GS     1400+00000+GS0000001753+0000001753+000000000+000000246+0000001990+0000000009+I20000000000+0000001990+Z
738570001738570002-000883     738570006001023770394CAN-OPENER             0000001000+00001753+00000+0001T   00001753+0000001519          1400 J84300               2AZ
738571000738571               738571               170213GS     1400+00000+GS0000001525+0000001525+000000000+000000214+0000001730+0000000009+I20000000000+0000001730+Z
738571001738571077-000299     738571006003000395576G/BAG 32x25cm LRG LOVE 0000001000+00001490+00000+0001T   00001490+0000001531          1400 J84112               2AZ
738571002738571112-116038     738571006009681820246TCS CARRIER BAG MIDI   0000001000+00000035+00000+0001T   00000035+0000001531          1400 J84090               2AZ
738572000738572               738572               170213GS     1400+00000+GS0000006611+0000006611+000000000+000000926+0000007537+0000000000+I40000007537+0000000000+Z
738572001738572251-000001     738572006001023487681TAPE DBL-SIDE 18x1000mm0000001000+00001314+00000+0001T   00001314+0000001533          1400 J84810               2AZ
738572002738572082-000122-B   738572006003000403554R/GLASS STRENGTH:1.5   0000001000+00005262+00000+0001T   00005262+0000001533          1400 J84160               2AZ
738572003738572112-116038     738572006009681820246TCS CARRIER BAG MIDI   0000001000+00000035+00000+0001T   00000035+0000001533          1400 J84090               2AZ
738573000738573               738573               170213GS     1400+00000+GS0000000700+0000000700+000000000+000000098+0000000790+0000000008+I20000000000+0000000790+Z
738573001738573018-000177     738573006001023797513MUG MINI LOVE ASSTD    0000001000+00000700+00000+0001T   00000700+0000001534          1400 J84515               2AZ
738574000738574               738574               170213GS     1400+00000+GS0000013360+0000013360+000000000+000001873+0000015233+0000000000+I40000015233+0000000000+Z
738574001738574077-000384     738574006003000275243G/BAG HOT STMP 18x23CM 0000001000+00001490+00000+0001T   00001490+0000001539          1400 J84112               2AZ
738574002738574567-011343     738574006003000630592BK COLOURING THERAPY   0000001000+00003507+00000+0001T   00003507+0000001539          1400 J84757               2AZ
738574003738574079-000206     738574006003000639700PENCIL CRAYONS THERAPY 0000001000+00001753+00000+0001T   00001753+0000001539          1400 J84130               2AZ
738574004738574006-000227     738574006003000328086PARTY BIRTHDAY BADGES  0000001000+00003069+00000+0001T   00003069+0000001539          1400 J84131               2AZ
738574005738574080-000100     738574006003000236114CARD & ENVELOPE BDAY   0000001000+00001753+00000+0001T   00001753+0000001539          1400 J84112               2AZ
738574006738574006-000124     738574006003000625888BALLOONS 10PC MIX COL  0000001000+00001753+00000+0001T   00001753+0000001539          1400 J84131               2AZ
738574007738574112-116038     738574006009681820246TCS CARRIER BAG MIDI   0000001000+00000035+00000+0001T   00000035+0000001539          1400 J84090               2AZ
738575000738575               738575               170213GS     1400+00000+GS0000006884+0000006884+000000000+000000967+0000007851+0000000000+I40000007851+0000000000+Z
738575001738575077-000270     738575006003000395453GIFT-BAG PPR JMB 33X45 0000001000+00002630+00000+0001T   00002630+0000001542          1400 J84112               2AZ
738575002738575304-001204     738575006001023737984FLOWER OCC. TEDDY/ROSES0000003000+00001402+00000+0001T   00001490+0006471542          1400 J84510               2AZ
738575003738575112-116069     738575006009681820277TCS CARRIER BAG JUMBO  0000001000+00000048+00000+0001T   00000048+0000001542          1400 J84090               2AZ
738576000738576               738576               170213GS     1400+00000+GS0000001753+0000001753+000000000+000000246+0000001990+0000000009+I20000000000+0000001990+Z
738576001738576467-000002     738576006001023354518BEACH-SET PL 2PCE      0000001000+00001753+00000+0001T   00001753+0000001544          1400 J84785               2AZ
738577000738577               738577               170213GS     1400+00000+GS0000005297+0000005297+000000000+000000742+0000006030+0000000009+I20000000000+0000006030+Z
738577001738577041-000300     738577006003000421862EVERYDAY BATH SET 3pc  0000001000+00005262+00000+0001T   00005262+0000001556          1400 J84200               2AZ
738577002738577112-116038     738577006009681820246TCS CARRIER BAG MIDI   0000001000+00000035+00000+0001T   00000035+0000001556          1400 J84090               2AZ
738578000738578               738578               170213GS     1400+00000+GS0000008449+0000008449+000000000+000001184+0000009630+0000000003+I20000000000+0000009630+Z
738578001738578563-000317-G   738578006001023776341SERVIETTES BRIGHT ASSTD0000001000+00002630+00000+0001T   00002630+0000001559          1400 J84214               2AZ
738578002738578018-000177     738578006001023797513MUG MINI LOVE ASSTD    0000002000+00000700+00000+0001T   00000700+0000001559          1400 J84515               2AZ
738578003738578018-000170     738578006001023775528MUG OCC. LOVE 2PC MINI 0000002000+00002192+00000+0001T   00002192+0000001559          1400 J84515               2AZ
738578004738578112-116038     738578006009681820246TCS CARRIER BAG MIDI   0000001000+00000035+00000+0001T   00000035+0000001559          1400 J84090               2AZ
738579000738579               738579               170213GS     1400+00000+GS0000014728+0000014728+000000000+000002064+0000016792+0000000000+I40000016792+0000000000+Z
738579001738579077-000245     738579006001023759214GIFT-RIBBON METALLICx2 0000001000+00001227+00000+0001T   00001227+0000001601          1400 J84112               2AZ
738579002738579077-000240     738579006003000326259G/RIBBON 4PC PEARLIZED 0000001000+00001753+00000+0001T   00001753+0000001601          1400 J84112               2AZ
738579003738579566-000359     738579006003000582709STICKER BOOK LOVE SPARK0000001000+00002192+00000+0001T   00002192+0000001601          1400 J84130               2AZ
738579004738579301-085000     738579006003000674299 ORN OCC. LOVE HEARTS  0000003000+00002192+00000+0001T   00002192+0000001601          1400 J84505               2AZ
738579005738579071-081091     738579006001151010287STAED/GENKEM ALL-STICK 0000001000+00001227+00000+0001T   00001227+0000001601          1400 J84130               2AZ
738579006738579079-006500     738579006001023557186GLUE GLITTER 6/10 PCE  0000001000+00001753+00000+0001T   00001753+0000001601          1400 J84130               2AZ
738580000738580               738580               170213GS     1400+00000+GS0000003156+0000003156+000000000+000000442+0000003590+0000000008+I20000000000+0000003590+Z
738580001738580077-000303     738580006001023593757GIFT-BAG PAPER MED     0000002000+00001578+00000+0001T   00001578+0000001606          1400 J84112               2AZ
738581000738581               738581               170213GS     1400+00000+GS0000004385+0000004385+000000000+000000614+0000004990+0000000009+I20000000000+0000004990+Z
738581001738581031-000001-A   738581006003000246908P/FRAME GLS LOVE 9X13cm0000001000+00004385+00000+0001T   00004385+0000001606          1400 J84510               2AZ
738582000738582               738582               170213GS     1400+00000+GS0000001490+0000001490+000000000+000000209+0000001690+0000000009+I20000000000+0000001690+Z
738582001738582077-000299     738582006003000395576G/BAG 32x25cm LRG LOVE 0000001000+00001490+00000+0001T   00001490+0000001616          1400 J84112               2AZ
738583000738583               738583               170213GS     1400+00000+GS0000002366+0000002366+000000000+000000332+0000002690+0000000008+I20000000000+0000002690+Z
738583001738583089-000192-A   738583006001023901774KEY-CHAIN ACRYLIC      0000001000+00000876+00000+0001T   00000876+0000001618          1400 J84205               2AZ
738583002738583089-001021     738583006003000112319KEY CHAIN MINI BIBLE   0000001000+00001490+00000+0001T   00001490+0000001618          1400 J84205               2AZ
738584000738584               738584               170213GS     1400+00000+GS0000003156+0000003156+000000000+000000442+0000003598+0000000000+I40000003598+0000000000+Z
738584001738584077-000348     738584006001023483287GIFT-BOWS 4,5cm 8PCE   0000002000+00001578+00000+0001T   00001578+0000001619          1400 J84112               2AZ
738585000738585               738585               170213GS     1400+00000+GS0000001227+0000001227+000000000+000000172+0000001390+0000000009+I20000000000+0000001390+Z
738585001738585002-000970     738585006001023770578FUNNELS 3PCE WHITE     0000001000+00001227+00000+0001T   00001227+0000001620          1400 J84300               2AZ
738586000738586               738586               170213GS     1400+00000+GS0000004385+0000004385+000000000+000000614+0000004990+0000000009+I20000000000+0000004990+Z
738586001738586030-000031-A   738586006003000457588PLAQUE W/WORDS ASSTD   0000001000+00004385+00000+0001T   00004823+0006471624          1400 J84505               2AZ
738587000738587               738587               170213GS     1400+00000+GS0000005032+0000005032+000000000+000000705+0000005730+0000000007+I20000000000+0000005730+Z
738587001738587077-000299     738587006003000395576G/BAG 32x25cm LRG LOVE 0000001000+00001490+00000+0001T   00001490+0000001626          1400 J84112               2AZ
738587002738587301-085004     738587006003000420469ORN LOVE PLAQUE 21X10CM0000001000+00003507+00000+0001T   00003946+0006471626          1400 J84505               2AZ
738587003738587112-116038     738587006009681820246TCS CARRIER BAG MIDI   0000001000+00000035+00000+0001T   00000035+0000001626          1400 J84090               2AZ
738588000738588               738588               170213GS     1400+00000+GS0000004420+0000004420+000000000+000000619+0000005030+0000000009+I20000000000+0000005030+Z
738588001738588031-000001-A   738588006003000246908P/FRAME GLS LOVE 9X13cm0000001000+00004385+00000+0001T   00004385+0000001626          1400 J84510               2AZ
738588002738588112-116038     738588006009681820246TCS CARRIER BAG MIDI   0000001000+00000035+00000+0001T   00000035+0000001626          1400 J84090               2AZ
738589000738589               738589               170213GS     1400+00000+GS0000001490+0000001490+000000000+000000209+0000001690+0000000009+I20000000000+0000001690+Z
738589001738589077-000304     738589006001023483232GIFT-BAG 25X32CM E/DAY 0000001000+00001490+00000+0001T   00001490+0000001627          1400 J84112               2AZ
738590000738590               738590               170213GS     1400+00000+GS0000004420+0000004420+000000000+000000619+0000005030+0000000009+I20000000000+0000005030+Z
738590001738590031-000001-A   738590006003000246908P/FRAME GLS LOVE 9X13cm0000001000+00004385+00000+0001T   00004385+0000001628          1400 J84510               2AZ
738590002738590112-116038     738590006009681820246TCS CARRIER BAG MIDI   0000001000+00000035+00000+0001T   00000035+0000001628          1400 J84090               2AZ
738591000738591               738591               170213GS     1400+00000+GS0000002717+0000002717+000000000+000000381+0000003090+0000000008+I20000000000+0000003090+Z
738591001738591903-000087     738591006001704000161SWT SPECKLED-EGGS 50G  0000001000+00001139+00000+0001T   00001139+0000001628          1400 J84150               2AZ
738591002738591077-000303     738591006001023593757GIFT-BAG PAPER MED     0000001000+00001578+00000+0001T   00001578+0000001628          1400 J84112               2AZ
738592000738592               738592               170213GS     1400+00000+GS0000003506+0000003506+000000000+000000492+0000003990+0000000008+I20000000000+0000003990+Z
738592001738592046-002032-PK2 738592004897006175063BATTERIES CR-2032  2PCE0000002000+00001753+00000+0001T   00001753+0000001630          1400 J84312               2AZ
738593000738593               738593               170213GS     1400+00000+GS0000002630+0000002630+000000000+000000369+0000002990+0000000009+I20000000000+0000002990+Z
738593001738593031-086219-B   738593006001023808875P/FRAME 10x15cm CURVED 0000001000+00002630+00000+0001T   00002630+0000001635          1400 J84510               2AZ
738594000738594               738594               170213GS     1400+00000+GS0000002630+0000002630+000000000+000000369+0000002990+0000000009+I20000000000+0000002990+Z
738594001738594071-001362     738594006003000589258HIGHLIGHTER 4 PACK     0000001000+00002630+00000+0001T   00002630+0000001636          1400 J84130               2AZ
738595000738595               738595               170213GS     1400+00000+GS0000018976+0000018976+000000000+000002658+0000021630+0000000004+I20000000000+0000021630+Z
738595001738595077-000303     738595006001023593757GIFT-BAG PAPER MED     0000002000+00001578+00000+0001T   00001578+0000001642          1400 J84112               2AZ
738595002738595041-093000     738595006003000320882B/GIFT SET 4PC B/RANGE 0000001000+00007016+00000+0001T   00007016+0000001642          1400 J84200               2AZ
738595003738595018-019000     738595006003000557288MUG OCC. LOVE JUMBO    0000001000+00005262+00000+0001T   00005262+0000001642          1400 J84515               2AZ
738595004738595050-000263-Z   738595006001023777041PADLOCK BRS 32mm CARDED0000001000+00003507+00000+0001T   00003507+0000001642          1400 J84855               2AZ
738595005738595112-116038     738595006009681820246TCS CARRIER BAG MIDI   0000001000+00000035+00000+0001T   00000035+0000001642          1400 J84090               2AZ
738596000738596               738596               170213GS     1400+00000+GS0000003507+0000003507+000000000+000000491+0000003990+0000000008+I20000000000+0000003990+Z
738596001738596031-000002-A   738596006003000247103P/FRAME LOVE 7.5X7.5CM 0000001000+00003507+00000+0001T   00003507+0000001643          1400 J84510               2AZ
738597000738597               738597               170213GS     1400+00000+GS0000004431+0000004431+000000000+000000622+0000005053+0000000000+I40000005053+0000000000+Z
738597001738597004-000014     738597006003000257737CAMERA TRIPOD W/LEGS   0000001000+00002630+00000+0001T   00002630+0000001645          1400 J84310               2AZ
738597002738597077-000290     738597006001023902023GIFT BOX 26x32x13cm    0000001000+00001753+00000+0001T   00001753+0000001645          1400 J84112               2AZ
738597003738597112-116069     738597006009681820277TCS CARRIER BAG JUMBO  0000001000+00000048+00000+0001T   00000048+0000001645          1400 J84090               2AZ
738598000738598               738598               170213GS     1400+00000+GS0000013450+0000013450+000000000+000001885+0000015335+0000000000+I40000015335+0000000000+Z
738598001738598301-000070     738598006001023805225ORN ANGEL 4-ASSTD      0000001000+00008771+00000+0001T   00008771+0000001647          1400 J84505               2AZ
738598002738598077-000399     738598006003000139514GIFT BAG 18X23CM E/DAY 0000001000+00001490+00000+0001T   00001490+0000001647          1400 J84112               2AZ
738598003738598089-001021     738598006003000112319KEY CHAIN MINI BIBLE   0000001000+00001490+00000+0001T   00001490+0000001647          1400 J84205               2AZ
738598004738598080-000133     738598006003000535613CARD&ENV MINI ASTD DSGN0000001000+00000437+00000+0001T   00000437+0000001647          1400 J84112               2AZ
738598005738598903-000499     738598006001704012492SWT CHOC MALLOWS 50g   0000001000+00001227+00000+0001T   00001227+0000001647          1400 J84150               2AZ
738598006738598112-116038     738598006009681820246TCS CARRIER BAG MIDI   0000001000+00000035+00000+0001T   00000035+0000001647          1400 J84090               2AZ
738599000738599               738599               170213GS     1400+00000+GS0000002192+0000002192+000000000+000000307+0000002490+0000000009+I20000000000+0000002490+Z
738599001738599565-000015     738599006003000672035NOVELTY SLIME ANIMAL   0000001000+00002192+00000+0001T   00002192+0000001651          1400 J84745               2AZ
738600000738600               738600               170213GS     1400+00000+GS0000000437+0000000437+000000000+000000062+0000000490+0000000009+I20000000000+0000000490+Z
738600001738600080-000133     738600006003000535613CARD&ENV MINI ASTD DSGN0000001000+00000437+00000+0001T   00000437+0000001653          1400 J84112               2AZ
738601000738601               738601               170213GS     1400+00000+GS0000007049+0000007049+000000000+000000987+0000008036+0000000000+I40000008036+0000000000+Z
738601001738601018-005009     738601006001023725608MUG W/PLUSH-BEAR LOVE  0000001000+00003507+00000+0001T   00003507+0000001654          1400 J84515               2AZ
738601002738601004-071204     738601006003000624904USB IN-CAR CHARGER 2.1A0000001000+00003507+00000+0001T   00003507+0000001654          1400 J84310               2AZ
738601003738601112-116038     738601006009681820246TCS CARRIER BAG MIDI   0000001000+00000035+00000+0001T   00000035+0000001654          1400 J84090               2AZ
738602000738602               738602               170213GS     1400+00000+GS0000002192+0000002192+000000000+000000307+0000002490+0000000009+I20000000000+0000002490+Z
738602001738602016-006506     738602006003000456048S/JAR GLS COLOUR BUBBLE0000001000+00002192+00000+0001T   00002192+0000001655          1400 J84300               2AZ
738603000738603               738603               170213GS     1400+00000+GS0000006139+0000006139+000000000+000000860+0000006990+0000000009+I20000000000+0000006990+Z
738603001738603002-000097     738603006001023489784CAN-OPENER             0000001000+00006139+00000+0001T   00006139+0000001702          1400 J84300               2AZ
738604000738604               738604               170213GS     1400+00000+GS0000017149+0000017149+000000000+000002402+0000019551+0000000000+I40000019551+0000000000+Z
738604001738604077-000309-A   738604006003000671007GIFT-BAG HOLOGRAM JMB  0000001000+00002192+00000+0001T   00002192+0000001716          1400 J84112               2AZ
738604002738604368-000637     738604006001023874092PLUSH BEAR SLEEPING LOV0000001000+00011402+00000+0001T   00012279+0006471716          1400 J84745               2AZ
738604003738604018-005009     738604006001023725608MUG W/PLUSH-BEAR LOVE  0000001000+00003507+00000+0001T   00003507+0000001716          1400 J84515               2AZ
738604004738604112-116069     738604006009681820277TCS CARRIER BAG JUMBO  0000001000+00000048+00000+0001T   00000048+0000001716          1400 J84090               2AZ
738605000738605               738605               170213GS     1400+00000+GS0000003542+0000003542+000000000+000000496+0000004038+0000000000+I40000004038+0000000000+Z
738605001738605018-005009     738605006001023725608MUG W/PLUSH-BEAR LOVE  0000001000+00003507+00000+0001T   00003507+0000001723          1400 J84515               2AZ
738605002738605112-116038     738605006009681820246TCS CARRIER BAG MIDI   0000001000+00000035+00000+0001T   00000035+0000001723          1400 J84090               2AZ
738606000738606               738606               170213GS     1400+00000+GS0000003507+0000003507+000000000+000000491+0000003990+0000000008+I20000000000+0000003990+Z
738606001738606018-005009     738606006001023725608MUG W/PLUSH-BEAR LOVE  0000001000+00003507+00000+0001T   00003507+0000001723          1400 J84515               2AZ
738607000738607               738607               170213GS     1400+00000+GS0000003507+0000003507+000000000+000000491+0000003990+0000000008+I20000000000+0000003990+Z
738607001738607018-005009     738607006001023725608MUG W/PLUSH-BEAR LOVE  0000001000+00003507+00000+0001T   00003507+0000001730          1400 J84515               2AZ
738608000738608               738608               170213GS     1400+00000+GS0000002630+0000002630+000000000+000000369+0000002999+0000000000+I40000002999+0000000000+Z
738608001738608018-000129     738608006001023403353MUG OCC. LOVE V-SHAPE  0000001000+00002630+00000+0001T   00002630+0000001737          1400 J84515               2AZ
738609000738609               738609               170213GS     1400+00000+GS0000002367+0000002367+000000000+000000332+0000002690+0000000009+I20000000000+0000002690+Z
738609001738609046-000015     738609006001023680839BATTERIES SIZE:D   2PCE0000001000+00002367+00000+0001T   00002367+0000001741          1400 J84312               2AZ
A17021300                                          14044184GSSLAVE 2                       J842IC
A17021301                                          14145715GSSLAVE 2                       J841IC
A17021302                                          14272002GSSLAVE 2                       J841IC
M17021301                              IT          GSSTEELDALE GS                                    738609                                          THANKS
M17021391                              CASH        GSSLAVE 2                       Z-REPORT No.   640TOTAL (Sales - Refunds)           5587.45       CASH TO BE BANKED                 3591.00       DEBIT CARDS                          0.00       CREDIT CARDS                      1926.45       Z-READING                         5517.45       AIRTIME DEBIT CARD SALES             0.00       AIRTIME CARD SALES                   0.00       OVERS/UNDERS                         0.00       AIRTIME CASH SALES                   0.00       GIFT CARDS                           0.00       GIFT CARD CASH SALES                 0.00       STATIONERY(PHOTOCOPIES)             70.00       T O T A L  CASH PAYOUTS             70.00                                                                                                                                                                                                                                                                                                      Z
M17021392                              CASH        GSABSENT                                                                                                                                                                                          ANNUAL LEAVE                                                                                                                                                                                    DAY OFF                                                                                                                                                                                         COMMENTS                                                                                                                                                                                                                                                                                                                                                                                       Z
Y17021300                                          GS00000000492745+000092
ZGS17021319433 SLAVE 2      SALES DATA                     NEXT INVOICE NO.  738610 0640
X GS Slave 2 First invoice 738517 170213 Last invoice 738609 170213 Next invoice 738610 Total number of records 000000290 clbackup completed 19:43:11
