910992000910992               910992               170213GT     1400+00000+GT0000005260+0000005260+000000000+000000738+0000005998+0000000000+I40000005998+0000000000+Z
910992001910992031-005918     910992006003000580453P/FRAME PL PLAIN 10X15 0000001000+00002630+00000+0001T   00002630+0000001205          1400 KR2510               1AZ
910992002910992089-000100     910992006003000565665K/CHAIN PET LOVERS     0000001000+00002630+00000+0001T   00002630+0000001205          1400 KR2205               1AZ
910993000910993               910993               170213GT     1400+00000+GT0000012754+0000012754+000000000+000001791+0000014545+0000000000+I40000014545+0000000000+Z
910993001910993112-116069     910993006003000535064TCS CARRIER BAG JUMBO  0000001000+00000048+00000+0001T   00000048+0000001208          1400 KR2090               1AZ
910993002910993077-000299-A   910993006003000670888GIFT-BAG PAPER JMB LOVE0000001000+00001753+00000+0001T   00001753+0000001208          1400 KR2112               1AZ
910993003910993076-000018     910993006001023777836TWINE NYLON 50g 4PCE   0000001000+00003507+00000+0001T   00003507+0000001208          1400 KR2810               1AZ
910993004910993903-000090     910993006009826020821SWT GS CHOCO COINS 60g 0000001000+00002104+00000+0001T   00002104+0000001208          1400 KR2150               1AZ
910993005910993366-000300     910993006001023902955DRESSUP TIARA FEATHER  0000001000+00002630+00000+0001T   00002630+0000001208          1400 KR2131               1AZ
910993006910993903-000200     910993006009826020234SWT CHOC RP CHOCO 23G  0000002000+00000788+00000+0001T   00000788+0000001208          1400 KR2150               1AZ
910993007910993903-000183     910993006003000451043SWT LB HEART LOLLY     0000002000+00000393+00000+0001T   00000393+0000001208          1400 KR2150               1AZ
910993008910993903-000159     910993006003000417629SWT LB SMALL DUMMIE    0000001000+00000350+00000+0001T   00000350+0000001208          1400 KR2150               1AZ
910994000910994               910994               170213GT     1400+00000+GT0000002630+0000002630+000000000+000000369+0000002990+0000000009+I20000000000+0000002990+Z
910994001910994306-001622     910994006003000450091INNER SOLES 1-PAIR     0000001000+00002630+00000+0001T   00002630+0000001209          1400 KR2200               1AZ
910995000910995               910995               170213GT     1400+00000+GT0000021080+0000021080+000000000+000002953+0000024030+0000000003+I20000000000+0000024030+Z
910995001910995079-000206     910995006003000639700PENCIL CRAYONS THERAPY 0000001000+00001753+00000+0001T   00001753+0000001240          1400 KR2130               1AZ
910995002910995567-011344     910995006003000630714BK COLOURING THERAPY 640000002000+00003507+00000+0001T   00003507+0000001240          1400 KR2757               1AZ
910995003910995560-000229     910995006003000469468ANIMALS BIG EYES ASSTD 0000002000+00006139+00000+0001T   00006139+0000001240          1400 KR2745               1AZ
910995004910995112-116038     910995006003000534906TCS CARRIER BAG MIDI   0000001000+00000035+00000+0001T   00000035+0000001240          1400 KR2090               1AZ
910996000910996               910996               170213GT     1400+00000+GT0000003507+0000003507+000000000+000000491+0000003990+0000000008+I20000000000+0000003990+Z
910996001910996018-000130     910996006001023867537MUG OCC LOVE MINI+HEART0000001000+00003507+00000+0001T   00003507+0000001241          1400 KR2515               1CZ
910997000910997               910997               170213GT     1400+00000+GT0000006174+0000006174+000000000+000000865+0000007030+0000000009+I20000000000+0000007030+Z
910997001910997019-000051     910997006003000457304VASE GLS ASSORTED      0000001000+00006139+00000+0001T   00006139+0000001303          1400 KR2510               1AZ
910997002910997112-116038     910997006003000534906TCS CARRIER BAG MIDI   0000001000+00000035+00000+0001T   00000035+0000001303          1400 KR2090               1AZ
910998000910998               910998               170213GT     1400+00000+GT0000000874+0000000874+000000000+000000124+0000000998+0000000000+I40000000998+0000000000+Z
910998001910998080-000133-A   910998006003000647019MINI VALENTINES CARD   0000002000+00000437+00000+0001T   00000437+0000001324          1400 KR2112               1DZ
910999000910999               910999               170213GT     1400+00000+GT0000001227+0000001227+000000000+000000172+0000001390+0000000009+I20000000000+0000001390+Z
910999001910999071-081091     910999006001151010287STAED/GENKEM ALL-STICK 0000001000+00001227+00000+0001T   00001227+0000001430          1400 KR2130               1AZ
911000000911000               911000               170213GT     1400+00000+GT0000002630+0000002630+000000000+000000369+0000002990+0000000009+I20000000000+0000002990+Z
911000001911000056-065302     911000006001023759566CAR SUN-SHIELD ALM-FOIL0000001000+00002630+00000+0001T   00002630+0000001431          1400 KR2860               1AZ
911001000911001               911001               170213GT     1400+00000+GT0000001314+0000001314+000000000+000000184+0000001490+0000000008+I20000000000+0000001490+Z
911001001911001089-000098     911001006003000677443KEY CHAIN OPENER ASSTD 0000001000+00001314+00000+0001T   00001314+0000001441          1400 KR2205               1DZ
911002000911002               911002               170213GT     1400+00000+GT0000001753+0000001753+000000000+000000246+0000001990+0000000009+I20000000000+0000001990+Z
911002001911002362-003000     911002006003000295258GIRL HEART NOTEBOOK    0000001000+00001753+00000+0001T   00002630+0008191442          1400 KR2160               1DZ
911003000911003               911003               170213GT     1400+00000+GT0000017136+0000017136+000000000+000002401+0000019530+0000000007+I20000000000+0000019530+Z
911003001911003560-000245     911003006001023622716RUBBER ANIMALS 10PC ASS0000002000+00007016+00000+0001T   00007016+0000001447          1400 KR2745               1AZ
911003002911003038-092233     911003006003000328925TABLE-MAT N/SLIP ASST  0000001000+00003069+00000+0001T   00003507+0008191447          1400 KR2300               1AZ
911003003911003112-116038     911003006003000534906TCS CARRIER BAG MIDI   0000001000+00000035+00000+0001T   00000035+0000001447          1400 KR2090               1AZ
911004000911004               911004               170213GT     1400+00000+GT0000012278+0000012278+000000000+000001720+0000013990+0000000008+I20000000000+0000013990+Z
911004001911004560-000229     911004006003000469468ANIMALS BIG EYES ASSTD 0000002000+00006139+00000+0001T   00006139+0000001448          1400 KR2745               1AZ
911005000911005               911005               170213GT     1400+00000+GT0000001051+0000001051+000000000+000000148+0000001190+0000000009+I20000000000+0000001190+Z
911005001911005903-002890     911005008935001721352MENTOS GUM PURE F/MINT 0000001000+00001051+00000+0001T   00001051+0000001449          1400 KR2150               1AZ
911006000911006               911006               170213GT     1400+00000+GT0000003506+0000003506+000000000+000000492+0000003998+0000000000+I40000003998+0000000000+Z
911006001911006077-000011-Y   911006006001023809858TISSUE-WRAP GOLD 10PCE 0000001000+00001753+00000+0001T   00001753+0000001453          1400 KR2112               1AZ
911006002911006077-000309     911006006001023608604GIFT-BAG 25X32CM GLOSS 0000001000+00001753+00000+0001T   00001753+0000001453          1400 KR2112               1AZ
911007000911007               911007               170213GT     1400+00000+GT0000001314+0000001314+000000000+000000184+0000001490+0000000008+I20000000000+0000001490+Z
911007001911007006-000166-H   911007006003000608096BALLOONS HELIUM 6PC WHT0000001000+00001314+00000+0001T   00001314+0000001457          1400 KR2131               1AZ
911008000911008               911008               170213GT     1400+00000+GT0000000613+0000000613+000000000+000000086+0000000690+0000000009+I20000000000+0000000690+Z
911008001911008077-000311     911008006001023608666GIFT-BAG 11X14CM GLOSS 0000001000+00000613+00000+0001T   00000613+0000001458          1400 KR2112               1AZ
911009000911009               911009               170213GT     1400+00000+GT0000001753+0000001753+000000000+000000246+0000001990+0000000009+I20000000000+0000001990+Z
911009001911009306-000002     911009006003000365852NAIL BRUSHES 3PC ASTD  0000001000+00001753+00000+0001T   00001753+0000001458          1400 KR2200               1AZ
911010000911010               911010               170213GT     1400+00000+GT0000005260+0000005260+000000000+000000738+0000005998+0000000000+I40000005998+0000000000+Z
911010001911010077-000235     911010006003000160211GIFT-RIBBON ROLL METALC0000001000+00002630+00000+0001T   00002630+0000001615          1400 KR2112               1AZ
911010002911010077-000115-B   911010006003000181025GIFT-WRAP PPR 700MMX2M 0000001000+00002630+00000+0001T   00002630+0000001615          1400 KR2112               1AZ
911011000911011               911011               170213GT     1400+00000+GT0000005295+0000005295+000000000+000000743+0000006038+0000000000+I40000006038+0000000000+Z
911011001911011112-116038     911011006003000534906TCS CARRIER BAG MIDI   0000001000+00000035+00000+0001T   00000035+0000001628          1400 KR2090               1AZ
911011002911011006-006013     911011006001023735195PARTY-SPRAY STRING     0000002000+00002630+00000+0001T   00002630+0000001628          1400 KR2131               1AZ
911012000911012               911012               170213GT     1400+00000+GT0000005691+0000005691+000000000+000000798+0000006480+0000000009+I20000000000+0000006480+Z
911012001911012105-001078     911012006009654960931CONTAINER 1,1L CLIP LOC0000002000+00001928+00000+0001T   00001928+0000001630          1400 KR2210               1AZ
911012002911012112-116038     911012006003000534906TCS CARRIER BAG MIDI   0000001000+00000035+00000+0001T   00000035+0000001630          1400 KR2090               1AZ
911012003911012105-001010     911012006002580007329LUNCH-BOX 1L  ASSTD    0000002000+00000876+00000+0001T   00000876+0000001630          1400 KR2210               1AZ
911012004911012112-116069     911012006003000535064TCS CARRIER BAG JUMBO  0000001000+00000048+00000+0001T   00000048+0000001630          1400 KR2090               1AZ
911013000911013               911013               170213GT     1400+00000+GT0000007892+0000007892+000000000+000001106+0000008990+0000000008+I20000000000+0000008990+Z
911013001911013108-001005     911013006001023803276MUG SIPPER W/STRAW     0000001000+00001753+00000+0001T   00001753+0000001644          1400 KR2210               1CZ
911013002911013361-000431     911013006003000243518DOLL 15cm BENDABLE SET 0000001000+00006139+00000+0001T   00006139+0000001644          1400 KR2725               1CZ
911014000911014               911014               170213GT     1400+00000+GT0000003366+0000003366+000000000+000000472+0000003830+0000000008+I20000000000+0000003830+Z
911014001911014077-000011-X   911014006001023809827TISSUE-WRAP SILVER 10PC0000001000+00001753+00000+0001T   00001753+0000001651          1400 KR2112               1CZ
911014002911014077-000315     911014006003000181186GIFT-BAG 20x28cm MATT  0000001000+00001578+00000+0001T   00001578+0000001651          1400 KR2112               1CZ
911014003911014112-116038     911014006009681820246TCS CARRIER BAG MIDI   0000001000+00000035+00000+0001T   00000035+0000001651          1400 KR2090               1CZ
911015000911015               911015               170213GT     1400+00000+GT0000002665+0000002665+000000000+000000374+0000003030+0000000009+I20000000000+0000003030+Z
911015001911015031-005919     911015006003000580576P/FRAME PL PLAIN 13X18 0000001000+00002630+00000+0001T   00002630+0000001652          1400 KR2510               1CZ
911015002911015112-116038     911015006009681820246TCS CARRIER BAG MIDI   0000001000+00000035+00000+0001T   00000035+0000001652          1400 KR2090               1CZ
911016000911016               911016               170213GT     1400+00000+GT0000006575+0000006575+000000000+000000922+0000007490+0000000007+I20000000000+0000007490+Z
911016001911016251-000002     911016006003000093991TAPE D-SIDED 24x1000mm 0000001000+00002192+00000+0001T   00002192+0000001700          1400 KR2810               1AZ
911016002911016078-000030     911016006003000151141YAMAYO SUPERGLUE 8g    0000001000+00001753+00000+0001T   00001753+0000001700          1400 KR2810               1AZ
911016003911016075-000360     911016006003000267705PURSE 9x6cm B-FLY/ROSE 0000001000+00002630+00000+0001T   00002630+0000001700          1400 KR2160               1AZ
911017000911017               911017               170213GT     1400+00000+GT0000016359+0000016359+000000000+000002292+0000018651+0000000000+I40000018651+0000000000+Z
911017001911017077-000299-A   911017006003000670888GIFT-BAG PAPER JMB LOVE0000001000+00001753+00000+0001T   00001753+0000001714          1400 KR2112               1AZ
911017002911017077-000303     911017006001023593757GIFT-BAG PAPER MED     0000001000+00001578+00000+0001T   00001578+0000001714          1400 KR2112               1AZ
911017003911017368-000637     911017006001023874092PLUSH BEAR SLEEPING LOV0000001000+00011402+00000+0001T   00012279+0006471714          1400 KR2745               1AZ
911017004911017112-116069     911017006003000535064TCS CARRIER BAG JUMBO  0000001000+00000048+00000+0001T   00000048+0000001714          1400 KR2090               1AZ
911017005911017077-000303     911017006001023593757GIFT-BAG PAPER MED     0000001000+00001578+00000+0001T   00001578+0000001714          1400 KR2112               1AZ
911018000911018               911018               170213GT     1400+00000+GT0000007928+0000007928+000000000+000001111+0000009030+0000000009+I20000000000+0000009030+Z
911018001911018301-085007     911018006003000673698ORN OCC. LOVE S/PLAQUE 0000001000+00007893+00000+0001T   00007893+0000001718          1400 KR2505               1AZ
911018002911018112-116038     911018006003000534906TCS CARRIER BAG MIDI   0000001000+00000035+00000+0001T   00000035+0000001718          1400 KR2090               1AZ
911019000911019               911019               170213GT     1400+00000+GT0000009680+0000009680+000000000+000001356+0000011036+0000000000+I40000011036+0000000000+Z
911019001911019162-087876     911019006001492878768#TAG 2PK HEADBANDS     0000001000+00000876+00000+0001T   00001753+0008161721          1400 KR2160               1AZ
911019002911019565-000876     911019006003000305759NOVELTY FUNKY SUNGLASS 0000001000+00003507+00000+0001T   00003507+0000001721          1400 KR2745               1AZ
911019003911019366-002195     911019006001023990549DRESS UP WINGS FEATHER 0000001000+00005262+00000+0001T   00005262+0000001721          1400 KR2131               1AZ
911019004911019112-116038     911019006003000534906TCS CARRIER BAG MIDI   0000001000+00000035+00000+0001T   00000035+0000001721          1400 KR2090               1AZ
911020000911020               911020               170213GT     1400+00000+GT0000005698+0000005698+000000000+000000799+0000006497+0000000000+I40000006497+0000000000+Z
911020001911020001-000175     911020006001023788108B/MUG GLS LOVE 380ML   0000001000+00004385+00000+0001T   00004385+0000001730          1400 KR2515               1AZ
911020002911020080-000133-A   911020006003000647019MINI VALENTINES CARD   0000001000+00000437+00000+0001T   00000437+0000001730          1400 KR2112               1AZ
911020003911020077-000011-C   911020006001023808523TISSUE 10xSHTS RED     0000001000+00000876+00000+0001T   00000876+0000001730          1400 KR2112               1AZ
911021000911021               911021               170213GT     1400+00000+GT0000014120+0000014120+000000000+000001982+0000016102+0000000000+I40000016102+0000000000+Z
911021001911021077-000011-Y   911021006001023809858TISSUE-WRAP GOLD 10PCE 0000001000+00001753+00000+0001T   00001753+0000001733          1400 KR2112               1AZ
911021002911021112-116069     911021006003000535064TCS CARRIER BAG JUMBO  0000001000+00000048+00000+0001T   00000048+0000001733          1400 KR2090               1AZ
911021003911021077-000309     911021006001023608604GIFT-BAG 25X32CM GLOSS 0000002000+00001753+00000+0001T   00001753+0000001733          1400 KR2112               1AZ
911021004911021077-000472     911021006003000330133G-BAG DESGNR LRG 25X32 0000002000+00001753+00000+0001T   00001753+0000001733          1400 KR2112               1AZ
911021005911021077-000455     911021006003000285389G/BAG METALLIC LRG SOL 0000003000+00001753+00000+0001T   00001753+0000001733          1400 KR2112               1AZ
911021006911021112-116069     911021006003000535064TCS CARRIER BAG JUMBO  0000001000+00000048+00000+0001T   00000048+0000001733          1400 KR2090               1AZ
911022000911022               911022               170213GT     1400+00000+GT0000009243+0000009243+000000000+000001295+0000010530+0000000008+I20000000000+0000010530+Z
911022001911022001-000175     911022006001023788108B/MUG GLS LOVE 380ML   0000001000+00004385+00000+0001T   00004385+0000001734          1400 KR2515               1AZ
911022002911022301-085001     911022006003000297610ORN WATERBALL LOVE ASST0000001000+00004823+00000+0001T   00004823+0000001734          1400 KR2505               1AZ
911022003911022112-116038     911022006003000534906TCS CARRIER BAG MIDI   0000001000+00000035+00000+0001T   00000035+0000001734          1400 KR2090               1AZ
911023000911023               911023               170213GT     1400+00000+GT0000005310+0000005310+000000000+000000744+0000006050+0000000004+I20000000000+0000006050+Z
911023001911023103-000474     911023006003000630363BAMBOO FLOWER BASKET   0000001000+00005262+00000+0001T   00005262+0000001736          1400 KR2300               1AZ
911023002911023112-116069     911023006003000535064TCS CARRIER BAG JUMBO  0000001000+00000048+00000+0001T   00000048+0000001736          1400 KR2090               1AZ
911024000911024               911024               170213GT     1400+00000+GT0000002192+0000002192+000000000+000000307+0000002490+0000000009+I20000000000+0000002490+Z
911024001911024007-000217     911024006003000639656SELF STICK NOTE BOOK   0000001000+00002192+00000+0001T   00002192+0000001749          1400 KR2130               1AZ
911025000911025               911025               170213GT     1400+00000+GT0000010906+0000010906+000000000+000001529+0000012435+0000000000+I40000012435+0000000000+Z
911025001911025368-000265     911025006001023750914PLUSH BEAR 23CM ASSTD C0000001000+00006139+00000+0001T   00006139+0000001751          1400 KR2745               1AZ
911025002911025077-000303     911025006001023593757GIFT-BAG PAPER MED     0000001000+00001578+00000+0001T   00001578+0000001751          1400 KR2112               1AZ
911025003911025077-000011-C   911025006001023808523TISSUE 10xSHTS RED     0000001000+00000876+00000+0001T   00000876+0000001751          1400 KR2112               1AZ
911025004911025903-000155     911025006009803374435SWT LOLLY I LUV U HEART0000001000+00000525+00000+0001T   00000525+0000001751          1400 KR2150               1AZ
911025005911025039-000114     911025006001023524058CANDLE T/LITE RED 3.5CM0000001000+00001753+00000+0001T   00001753+0000001751          1400 KR2510               1AZ
911025006911025112-116038     911025006009681820246TCS CARRIER BAG MIDI   0000001000+00000035+00000+0001T   00000035+0000001751          1400 KR2090               1AZ
911026000911026               911026               170213GT     1400+00000+GT0000001753+0000001753+000000000+000000246+0000001999+0000000000+I40000001999+0000000000+Z
911026001911026077-000351     911026006003000139033GIFT-BAG 18X23CM E/D P 0000001000+00001753+00000+0001T   00001753+0000001758          1400 KR2112               1AZ
911027000911027               911027               170213GT     1400+00000+GT0000001490+0000001490+000000000+000000209+0000001690+0000000009+I20000000000+0000001690+Z
911027001911027077-000327     911027006001023677686GIFT-BAG 25X32CM E/D BA0000001000+00001490+00000+0001T   00001490+0000001758          1400 KR2112               1AZ
M17021391                              CASH        GTSLAVE 1                       Z-REPORT No.   266TOTAL (Sales - Refunds)           2486.85       CASH TO BE BANKED                 1443.90       DEBIT CARDS                          0.00       CREDIT CARDS                      1042.95       Z-READING                         2486.85       AIRTIME DEBIT CARD SALES             0.00       AIRTIME CARD SALES                   0.00       OVERS/UNDERS                         0.00       AIRTIME CASH SALES                   0.00       GIFT CARDS                           0.00       GIFT CARD CASH SALES                 0.00       T O T A L  CASH PAYOUTS              0.00                                                                                                                                                                                                                                                                                                                                                      Z
M17021392                              CASH        GTABSENT                                                                                                                                                                                          ANNUAL LEAVE                                                                                                                                                                                    DAY OFF                                                                                                                                                                                         COMMENTS                                                                                                                                                                                                                                                                                                                                                                                       Z
Y17021300                                          GT00000000218277+000036
ZGT17021319433 SLAVE 1      SALES DATA                     NEXT INVOICE NO.  911028 0266
T094581492-055602                                          1702131655520000011ICSLAVE 1
T094581492-055603                                          1702131655520000031ICSLAVE 1
T094581493-059065                                          1702131655520000051ICSLAVE 1
T094581495-059895                                          1702131655520000011ICSLAVE 1
X GT Slave 1 First invoice 910992 170213 Last invoice 911027 170213 Next invoice 911028 Total number of records 000000129 clbackup completed 19:43:43
