920215000920215               920215               170213GT     1400+00000+GT0000000000+0000000000+000000000+000000000+0000000000+0000000000+I20000000000+0000000000+Z
920215001920215361-000685     920215006003000397211DOLL BABY 25cm & ACCESS0000001000-00014911+00000+0001T   00014911+0000000904          1400 FT87252IC            2 Z
920215002920215361-000685     920215006003000397211DOLL BABY 25cm & ACCESS0000001000+00014911+00000+0001T   00014911+0000000904          1400 FT87252IC            2 Z
920216000920216               920216               170213GT     1400+00000+GT0000002103+0000002103+000000000+000000295+0000002390+0000000008+I20000000000+0000002390+Z
920216001920216306-000021-A   920216006001023891358EARBUDS COTTON 100PCE  0000001000+00000876+00000+0001T   00000876+0000000905          1400 FT8200               2AZ
920216002920216033-001401     920216006009654960481HAIR-CURLERS 8PCE MED  0000001000+00001227+00000+0001T   00001227+0000000905          1400 FT8200               2AZ
920217000920217               920217               170213GT     1400+00000+GT0000001753+0000001753+000000000+000000246+0000001999+0000000000+I40000001999+0000000000+Z
920217001920217007-000192     920217006009635830062BOOK H/COVER A4 192PAGE0000001000+00001753+00000+0001T   00001753+0000000934          1400 FT8130               2AZ
920218000920218               920218               170213GT     1400+00000+GT0000003506+0000003506+000000000+000000492+0000003998+0000000000+I40000003998+0000000000+Z
920218001920218080-000101     920218006003000236732CARD&ENVLPE FEMALE     0000001000+00001753+00000+0001T   00001753+0000000942          1400 FT8112               2AZ
920218002920218080-000111     920218006003000252695CARD&ENVELPE - MUSICAL 0000001000+00001753+00000+0001T   00001753+0000000942          1400 FT8112               2AZ
920219000920219               920219               170213GT     1400+00000+GT0000001753+0000001753+000000000+000000246+0000001990+0000000009+I20000000000+0000001990+Z
920219001920219071-003853     920219006001023715579PENCIL BASIC HB 12PCE  0000001000+00001753+00000+0001T   00001753+0000000947          1400 FT8130               2AZ
920220000920220               920220               170213GT     1400+00000+GT0000001753-0000001753-000000000+000000246-0000002000-0000000001+I20000000000+0000002000-Z
920220001920220071-003853     920220006001023715579PENCIL BASIC HB 12PCE  0000001000-00001753+00000+0001T   00001753+0000000956          1400 FT81301IC            2 Z
920221000920221               920221               170213GT     1400+00000+GT0000007015+0000007015+000000000+000000983+0000007998+0000000000+I40000007998+0000000000+Z
920221001920221077-000150-D   920221006003000054343GIFT-WRAP CELLPHANE CLR0000001000+00000876+00000+0001T   00000876+0000001001          1400 FT8112               2AZ
920221002920221002-000097     920221006001023489784CAN-OPENER             0000001000+00006139+00000+0001T   00006139+0000001001          1400 FT8300               2AZ
920222000920222               920222               170213GT     1400+00000+GT0000005262+0000005262+000000000+000000737+0000005990+0000000009+I20000000000+0000005990+Z
920222001920222567-010161     920222009780000008516BOOK TOP ASSTD MILLS   0000001000+00005262+00000+0001T   00005262+0000001013          1400 FT8757               2AZ
920223000920223               920223               170213GT     1400+00000+GT0000004206+0000004206+000000000+000000590+0000004790+0000000006+I20000000000+0000004790+Z
920223001920223039-000027     920223006003000286546C/TAPERED 25CM M/ORANGE0000002000+00000876+00000+0001T   00000876+0000001032          1400 FT8510               2AZ
920223002920223040-000213     920223006001023617736CANDLE-HOLDER DAISY    0000002000+00001227+00000+0001T   00001227+0000001032          1400 FT8510               2AZ
920224000920224               920224               170213GT     1400+00000+GT0000005346+0000005346+000000000+000000750+0000006090+0000000006+I20000000000+0000006090+Z
920224001920224306-000024-A   920224006003000577309COTTON-WOOL-PADS 80PC  0000001000+00001753+00000+0001T   00001753+0000001048          1400 FT8200               2AZ
920224002920224306-000021     920224006001023169433EARBUDS 100PCE IN BAG  0000001000+00000613+00000+0001T   00000613+0000001048          1400 FT8200               2AZ
920224003920224306-000007     920224006001023905093DENTAL FLOSS METHOL    0000001000+00001753+00000+0001T   00001753+0000001048          1400 FT8200               2AZ
920224004920224306-000510     920224006001024000469T/BRUSH ADULT CROSS    0000001000+00001227+00000+0001T   00001227+0000001048          1400 FT8200               2AZ
920225000920225               920225               170213GT     1400+00000+GT0000002630+0000002630+000000000+000000369+0000002999+0000000000+I40000002999+0000000000+Z
920225001920225077-000270     920225006003000395453GIFT-BAG PPR JMB 33X45 0000001000+00002630+00000+0001T   00002630+0000001056          1400 FT8112               2AZ
920226000920226               920226               170213GT     1400+00000+GT0000002980+0000002980+000000000+000000418+0000003390+0000000008+I20000000000+0000003390+Z
920226001920226565-004101     920226006003000548033BALL BOUNCING EGG      0000002000+00001490+00000+0001T   00001490+0000001058          1400 FT8745               2AZ
920227000920227               920227               170213GT     1400+00000+GT0000015303+0000015303+000000000+000002146+0000017440+0000000009+I20000000000+0000017440+Z
920227001920227080-000124     920227006003000297733CARD & ENV VALENTINES  0000001000+00001578+00000+0001T   00001578+0000001101          1400 FT8112               2AZ
920227002920227077-000005-B   920227006003000326617PAPER TISSUE PATTERN   0000001000+00002630+00000+0001T   00002630+0000001101          1400 FT8112               2AZ
920227003920227368-000104     920227006001023751348PLUSH BEAR RUFFLED-LOOK0000001000+00006139+00000+0001T   00006139+0000001101          1400 FT8745               2AZ
920227004920227903-000155     920227006009803374435SWT LOLLY I LUV U HEART0000001000+00000525+00000+0001T   00000525+0000001101          1400 FT8150               2AZ
920227005920227072-020366     920227006003000452927PET PLACE MAT ASSTD COL0000001000+00002630+00000+0001T   00002630+0000001101          1400 FT8870               2AZ
920227006920227903-000619     920227006003000672455SWT LOLLY STR/BRRY 140G0000001000+00001753+00000+0001T   00001753+0000001101          1400 FT8150               2AZ
920227007920227112-116069     920227006009681820277TCS CARRIER BAG JUMBO  0000001000+00000048+00000+0001T   00000048+0000001101          1400 FT8090               2AZ
920228000920228               920228               170213GT     1400+00000+GT0000003150+0000003150+000000000+000000444+0000003590+0000000004+I20000000000+0000003590+Z
920228001920228903-000155     920228006009803374435SWT LOLLY I LUV U HEART0000006000+00000525+00000+0001T   00000525+0000001102          1400 FT8150               2AZ
920229000920229               920229               170213GT     1400+00000+GT0000001748+0000001748+000000000+000000248+0000001990+0000000006+I20000000000+0000001990+Z
920229001920229080-000133-A   920229006003000647019MINI VALENTINES CARD   0000004000+00000437+00000+0001T   00000437+0000001104          1400 FT8112               2AZ
920230000920230               920230               170213GT     1400+00000+GT0000030743+0000030743+000000000+000004305+0000035040+0000000008+I20000000000+0000035040+Z
920230001920230112-116069     920230006009681820277TCS CARRIER BAG JUMBO  0000001000+00000048+00000+0001T   00000048+0000001113          1400 FT8090               2AZ
920230002920230031-005921     920230006001023667847P/FRAME PL PLAIN       0000007000+00004385+00000+0001T   00004385+0000001113          1400 FT8510               2AZ
920231000920231               920231               170213GT     1400+00000+GT0000016002+0000016002+000000000+000002243+0000018240+0000000005+I20000000000+0000018240+Z
920231001920231112-116069     920231006009681820277TCS CARRIER BAG JUMBO  0000001000+00000048+00000+0001T   00000048+0000001115          1400 FT8090               2AZ
920231002920231077-000452     920231006003000284986G/BAG METALLIC MED EMB 0000001000+00001490+00000+0001T   00001490+0000001115          1400 FT8112               2AZ
920231003920231072-020266     920231006003000400591PET PUPPY TRAINING PAD 0000001000+00003507+00000+0001T   00003507+0000001115          1400 FT8870               2AZ
920231004920231072-020355     920231006001023701053PET CAT-BOWL FISH-SHAPE0000001000+00001753+00000+0001T   00001753+0000001115          1400 FT8870               2AZ
920231005920231301-085004     920231006003000420469ORN LOVE PLAQUE 21X10CM0000001000+00003507+00000+0001T   00003946+0006471115          1400 FT8505               2AZ
920231006920231072-000327     920231006001023858504CAT-COLLAR+BELL        0000001000+00001753+00000+0001T   00001753+0000001115          1400 FT8870               2AZ
920231007920231018-000130     920231006001023867537MUG OCC LOVE MINI+HEART0000001000+00003507+00000+0001T   00003507+0000001115          1400 FT8515               2AZ
920231008920231080-000133     920231006003000535613CARD&ENV MINI ASTD DSGN0000001000+00000437+00000+0001T   00000437+0000001115          1400 FT8112               2AZ
920232000920232               920232               170213GT     1400+00000+GT0000003329+0000003329+000000000+000000468+0000003790+0000000007+I20000000000+0000003790+Z
920232001920232566-000037     920232006003000383948STICKER 3D GEL         0000001000+00001753+00000+0001T   00001753+0000001133          1400 FT8130               2AZ
920232002920232566-000858     920232006001023760975STCKRS G/OUTLINE ASSTD 0000002000+00000788+00000+0001T   00000788+0000001133          1400 FT8130               2AZ
920233000920233               920233               170213GT     1400+00000+GT0000002630+0000002630+000000000+000000369+0000002990+0000000009+I20000000000+0000002990+Z
920233001920233079-000280     920233006003000160723PAINT READYMIX 6PCE    0000001000+00002630+00000+0001T   00002630+0000001148          1400 FT8130               2AZ
920234000920234               920234               170213GT     1400+00000+GT0000017539+0000017539+000000000+000002457+0000019996+0000000000+I40000019996+0000000000+Z
920234001920234077-000011-C   920234006001023808523TISSUE 10xSHTS RED     0000001000+00000876+00000+0001T   00000876+0000001154          1400 FT8112               2AZ
920234002920234077-000299-A   920234006003000670888GIFT-BAG PAPER JMB LOVE0000002000+00001753+00000+0001T   00001753+0000001154          1400 FT8112               2AZ
920234003920234031-000009     920234006003000306381P/FRAME COLLAGE HEARTS 0000001000+00013157+00000+0001T   00013157+0000001154          1400 FT8510               2AZ
920235000920235               920235               170213GT     1400+00000+GT0000038634+0000038634+000000000+000005411+0000044045+0000000000+I40000044045+0000000000+Z
920235001920235112-116069     920235006009681820277TCS CARRIER BAG JUMBO  0000001000+00000048+00000+0001T   00000048+0000001221          1400 FT8090               2AZ
920235002920235105-001027     920235006003000364916LUNCH BOX W/CLIPS 2-DIV0000002000+00002192+00000+0001T   00002192+0000001221          1400 FT8210               2AZ
920235003920235566-000006     920235006001023671189STICKER-BOOK DRESS-UP  0000002000+00002630+00000+0001T   00002630+0000001221          1400 FT8130               2AZ
920235004920235200-000066     920235006003000365975STRAWS 12PCE W/UMBRELLA0000002000+00001314+00000+0001T   00001314+0000001221          1400 FT8214               2AZ
920235005920235007-010503     920235006003000455393WIPE & CHALK 90X60CM   0000001000+00026314+00000+0001T   00026314+0000001221          1400 FT8130               2AZ
920236000920236               920236               170213GT     1400+00000+GT0000008412+0000008412+000000000+000001179+0000009590+0000000001+I20000000000+0000009590+Z
920236001920236039-000108     920236006001023524034TEA-LITE CANDLES 8PCE  0000003000+00001490+00000+0001T   00001490+0000001222          1400 FT8510               2AZ
920236002920236006-000166-C   920236006003000516377BALLOONS LRG 6PC PINK  0000002000+00001314+00000+0001T   00001314+0000001222          1400 FT8131               2AZ
920236003920236006-000167-C   920236006003000516971BALLOONS PINK METALLIC 0000001000+00001314+00000+0001T   00001314+0000001222          1400 FT8131               2AZ
920237000920237               920237               170213GT     1400+00000+GT0000012324+0000012324+000000000+000001726+0000014050+0000000000+I40000014050+0000000000+Z
920237001920237105-007800     920237006002923018913STORAGE BOX CLEAR 5.5L 0000001000+00003507+00000+0001T   00003507+0000001231          1400 FT8210               2AZ
920237002920237567-010161     920237009780000008516BOOK TOP ASSTD MILLS   0000001000+00005262+00000+0001T   00005262+0000001231          1400 FT8757               2AZ
920237003920237133-000010-A   920237006001023997647CLEANING CLOTH ROLL 30 0000001000+00003507+00000+0001T   00003507+0000001231          1400 FT8212               2AZ
920237004920237112-116069     920237006009681820277TCS CARRIER BAG JUMBO  0000001000+00000048+00000+0001T   00000048+0000001231          1400 FT8090               2AZ
920238000920238               920238               170213GT     1400+00000+GT0000007049+0000007049+000000000+000000988+0000008030+0000000007+I20000000000+0000008030+Z
920238001920238562-000009     920238000730589212029PLAY MODELLING CARDED  0000002000+00002455+00000+0001T   00002455+0000001242          1400 FT8755               2AZ
920238002920238903-000095     920238006001704011495SWT SPECKLED-EGGS 100G 0000001000+00002104+00000+0001T   00002104+0000001242          1400 FT8150               2AZ
920238003920238112-116038     920238006009681820246TCS CARRIER BAG MIDI   0000001000+00000035+00000+0001T   00000035+0000001242          1400 FT8090               2AZ
920239000920239               920239               170213GT     1400+00000+GT0000002192+0000002192+000000000+000000307+0000002490+0000000009+I20000000000+0000002490+Z
920239001920239031-000878-C   920239006001023799043P/FRAME 20x25cm PL-SLID0000001000+00002192+00000+0001T   00002192+0000001250          1400 FT8510               2AZ
920240000920240               920240               170213GT     1400+00000+GT0000017057+0000017057+000000000+000002391+0000019448+0000000000+I40000019448+0000000000+Z
920240001920240105-007515     920240008696287301545STORAGE BOX CLEAR 6L   0000001000+00008771+00000+0001T   00008771+0000001254          1400 FT8210               2AZ
920240002920240200-003024     920240006001023657299REFUSE BAGS 20PCE BLACK0000001000+00001753+00000+0001T   00001753+0000001254          1400 FT8214               2AZ
920240003920240200-003026     920240006003000276448REFUSE BAGS 10PCE GREEN0000001000+00001753+00000+0001T   00001753+0000001254          1400 FT8214               2AZ
920240004920240077-000010-C   920240006001023123879CREPE-PAPER RED        0000001000+00000788+00000+0001T   00000788+0000001254          1400 FT8112               2AZ
920240005920240077-000270     920240006003000395453GIFT-BAG PPR JMB 33X45 0000001000+00002630+00000+0001T   00002630+0000001254          1400 FT8112               2AZ
920240006920240903-000844     920240005010478432567SWT CANDY DL LUV HEARTS0000001000+00001314+00000+0001T   00001314+0000001254          1400 FT8150               2AZ
920240007920240112-116069     920240006009681820277TCS CARRIER BAG JUMBO  0000001000+00000048+00000+0001T   00000048+0000001254          1400 FT8090               2AZ
920241000920241               920241               170213GT     1400+00000+GT0000003243+0000003243+000000000+000000455+0000003690+0000000008+I20000000000+0000003690+Z
920241001920241266-003012     920241006001023786128BOYS P/SET ARCHERY 4pc 0000001000+00002630+00000+0001T   00002630+0000001256          1400 FT8710               2AZ
920241002920241304-001011     920241006001023806727FLWR ROSE RED W/BEAR   0000001000+00000613+00000+0001T   00000788+0006471256          1400 FT8510               2AZ
920242000920242               920242               170213GT     1400+00000+GT0000001578+0000001578+000000000+000000221+0000001790+0000000009+I20000000000+0000001790+Z
920242001920242079-000289     920242006001023493217PAINT WTR COL CAKE 6COL0000001000+00001578+00000+0001T   00001578+0000001257          1400 FT8130               2AZ
920243000920243               920243               170213GT     1400+00000+GT0000000876+0000000876+000000000+000000123+0000000990+0000000009+I20000000000+0000000990+Z
920243001920243082-026204     920243006001023816443R/GLASSES STRINGS 2PCE 0000001000+00000876+00000+0001T   00000876+0000001303          1400 FT8160               2AZ
920244000920244               920244               170213GT     1400+00000+GT0000012760+0000012760+000000000+000001789+0000014540+0000000009+I20000000000+0000014540+Z
920244001920244112-116069     920244006009681820277TCS CARRIER BAG JUMBO  0000001000+00000048+00000+0001T   00000048+0000001324          1400 FT8090               2AZ
920244002920244104-000032     920244006003000099696BASKET PL 34x25x8cm    0000001000+00002630+00000+0001T   00002630+0000001324          1400 FT8210               2AZ
920244003920244036-000013     920244006001246500860LINT REMOVER REFILLS   0000001000+00003946+00000+0001T   00003946+0000001324          1400 FT8212               2AZ
920244004920244200-003024     920244006001023657299REFUSE BAGS 20PCE BLACK0000001000+00001753+00000+0001T   00001753+0000001324          1400 FT8214               2AZ
920244005920244036-000015     920244006003000430420LINT REMOVER+BRUSH 24cm0000001000+00003507+00000+0001T   00003507+0000001324          1400 FT8212               2AZ
920244006920244039-000027     920244006003000286546C/TAPERED 25CM M/ORANGE0000001000+00000876+00000+0001T   00000876+0000001324          1400 FT8510               2AZ
920245000920245               920245               170213GT     1400+00000+GT0000004822+0000004822+000000000+000000676+0000005490+0000000008+I20000000000+0000005490+Z
920245001920245006-000118     920245006001023730725BALLOONS 6PC TWISTER   0000001000+00001753+00000+0001T   00001753+0000001327          1400 FT8131               2AZ
920245002920245079-013106     920245006003000081998ART+CRAFT PIPE-CLEANERS0000001000+00003069+00000+0001T   00003069+0000001327          1400 FT8130               2AZ
920246000920246               920246               170213GT     1400+00000+GT0000003067+0000003067+000000000+000000430+0000003490+0000000007+I20000000000+0000003490+Z
920246001920246106-001108     920246006003000467365WATER BOTTLE 580ml     0000001000+00001753+00000+0001T   00001753+0000001332          1400 FT8210               2AZ
920246002920246034-000329     920246006001023564290BOTTLE-BRUSHES WHT 2PCE0000001000+00001314+00000+0001T   00001314+0000001332          1400 FT8215               2AZ
920247000920247               920247               170213GT     1400+00000+GT0000002489+0000002489+000000000+000000349+0000002838+0000000000+I40000002838+0000000000+Z
920247001920247018-000127     920247006001023380289MUG OCC STRAIGHT LOVE  0000001000+00001578+00000+0001T   00001753+0006471342          1400 FT8515               2AZ
920247002920247903-000483     920247006001704001410SWT LIQUOR SML SORT 60G0000001000+00000876+00000+0001T   00000876+0000001342          1400 FT8150               2AZ
920247003920247112-116038     920247006009681820246TCS CARRIER BAG MIDI   0000001000+00000035+00000+0001T   00000035+0000001342          1400 FT8090               2AZ
920248000920248               920248               170213GT     1400+00000+GT0000007938+0000007938+000000000+000001113+0000009050+0000000001+I20000000000+0000009050+Z
920248001920248200-003024     920248006001023657299REFUSE BAGS 20PCE BLACK0000001000+00001753+00000+0001T   00001753+0000001343          1400 FT8214               2AZ
920248002920248033-005931     920248006001023678447PINS ON-WHEEL PEARLIZED0000001000+00000876+00000+0001T   00000876+0000001343          1400 FT8200               2AZ
920248003920248033-006001     920248006001023135933SEWING-KIT TRAVELLING  0000001000+00000876+00000+0001T   00000876+0000001343          1400 FT8200               2AZ
920248004920248158-000022     920248006003000568741PLATE STAND CHROME     0000001000+00004385+00000+0001T   00004385+0000001343          1400 FT8300               2AZ
920248005920248112-116069     920248006009681820277TCS CARRIER BAG JUMBO  0000001000+00000048+00000+0001T   00000048+0000001343          1400 FT8090               2AZ
920249000920249               920249               170213GT     1400+00000+GT0000002629+0000002629+000000000+000000369+0000002990+0000000008+I20000000000+0000002990+Z
920249001920249200-003026     920249006003000276448REFUSE BAGS 10PCE GREEN0000001000+00001753+00000+0001T   00001753+0000001344          1400 FT8214               2AZ
920249002920249077-000011-C   920249006001023808523TISSUE 10xSHTS RED     0000001000+00000876+00000+0001T   00000876+0000001344          1400 FT8112               2AZ
920250000920250               920250               170213GT     1400+00000+GT0000003104+0000003104+000000000+000000435+0000003539+0000000000+I40000003539+0000000000+Z
920250001920250203-006005     920250006003000364671ICE BALL 18-PC IN PVC  0000001000+00003069+00000+0001T   00003069+0000001351          1400 FT8300               2AZ
920250002920250112-116038     920250006009681820246TCS CARRIER BAG MIDI   0000001000+00000035+00000+0001T   00000035+0000001351          1400 FT8090               2AZ
920251000920251               920251               170213GT     1400+00000+GT0000007411+0000007411+000000000+000001039+0000008450+0000000000+I40000008450+0000000000+Z
920251001920251112-116069     920251006009681820277TCS CARRIER BAG JUMBO  0000001000+00000048+00000+0001T   00000048+0000001353          1400 FT8090               2AZ
920251002920251077-000452     920251006003000284986G/BAG METALLIC MED EMB 0000001000+00001490+00000+0001T   00001490+0000001353          1400 FT8112               2AZ
920251003920251077-000010-C   920251006001023123879CREPE-PAPER RED        0000001000+00000788+00000+0001T   00000788+0000001353          1400 FT8112               2AZ
920251004920251031-005853     920251006003000442416P/FRAME WDN TWIN HEARTS0000001000+00003507+00000+0001T   00003507+0000001353          1400 FT8510               2AZ
920251005920251018-000127     920251006001023380289MUG OCC STRAIGHT LOVE  0000001000+00001578+00000+0001T   00001753+0006471353          1400 FT8515               2AZ
920252000920252               920252               170213GT     1400+00000+GT0000003069+0000003069+000000000+000000430+0000003490+0000000009+I20000000000+0000003490+Z
920252001920252206-000210     920252006003000631582TOOTHPICK HOLDER FLOWER0000001000+00003069+00000+0001T   00003069+0000001354          1400 FT8321               2AZ
920253000920253               920253               170213GT     1400+00000+GT0000002541+0000002541+000000000+000000357+0000002890+0000000008+I20000000000+0000002890+Z
920253001920253077-000381     920253006003000247707GIFT-BAG 25X32CM S/COL 0000001000+00001753+00000+0001T   00001753+0000001358          1400 FT8112               2AZ
920253002920253077-000010-C   920253006001023123879CREPE-PAPER RED        0000001000+00000788+00000+0001T   00000788+0000001358          1400 FT8112               2AZ
920254000920254               920254               170213GT     1400+00000+GT0000008890+0000008890+000000000+000001246+0000010130+0000000006+I20000000000+0000010130+Z
920254001920254065-001008     920254006001023673190XYLOPHONE 8-KEYS SHAPES0000001000+00004385+00000+0001T   00004385+0000001408          1400 FT8745               2AZ
920254002920254565-004101     920254006003000548033BALL BOUNCING EGG      0000003000+00001490+00000+0001T   00001490+0000001408          1400 FT8745               2AZ
920254003920254112-116038     920254006009681820246TCS CARRIER BAG MIDI   0000001000+00000035+00000+0001T   00000035+0000001408          1400 FT8090               2AZ
920255000920255               920255               170213GT     1400+00000+GT0000006345+0000006345+000000000+000000890+0000007230+0000000005+I20000000000+0000007230+Z
920255001920255077-000303     920255006001023593757GIFT-BAG PAPER MED     0000001000+00001578+00000+0001T   00001578+0000001417          1400 FT8112               2AZ
920255002920255018-000136     920255006001023659026MUG OCC LOVE W/PLUSH   0000001000+00003507+00000+0001T   00003507+0000001417          1400 FT8515               2AZ
920255003920255112-116038     920255006009681820246TCS CARRIER BAG MIDI   0000001000+00000035+00000+0001T   00000035+0000001417          1400 FT8090               2AZ
920255004920255080-000133-A   920255006003000647019MINI VALENTINES CARD   0000001000+00000437+00000+0001T   00000437+0000001417          1400 FT8112               2AZ
920255005920255018-000130     920255006001023867537MUG OCC LOVE MINI+HEART0000001000+00003507+00000+0001T   00003507+0000001417          1400 FT8515               2AZ
920255006920255018-000136     920255006001023659026MUG OCC LOVE W/PLUSH   0000001000-00003507+00000+0001T   00003507+0000001417          1400 FT85152IC            2 Z
920255007920255903-000201     920255006009826020371SWT CHOC HEART 30g     0000001000+00000788+00000+0001T   00000788+0000001417          1400 FT8150               2AZ
920256000920256               920256               170213GT     1400+00000+GT0000003015+0000003015+000000000+000000423+0000003430+0000000008+I20000000000+0000003430+Z
920256001920256200-000092     920256006003000576739PICNIC PAPER PLATES 23c0000001000+00001227+00000+0001T   00001227+0000001422          1400 FT8214               2AZ
920256002920256251-000070     920256006003000451777PROTECTION-PADS BLK ADH0000001000+00001753+00000+0001T   00001753+0000001422          1400 FT8810               2AZ
920256003920256112-116038     920256006009681820246TCS CARRIER BAG MIDI   0000001000+00000035+00000+0001T   00000035+0000001422          1400 FT8090               2AZ
920257000920257               920257               170213GT     1400+00000+GT0000013108+0000013108+000000000+000001839+0000014947+0000000000+I40000014947+0000000000+Z
920257001920257112-116069     920257006009681820277TCS CARRIER BAG JUMBO  0000001000+00000048+00000+0001T   00000048+0000001426          1400 FT8090               2AZ
920257002920257174-000170     920257006003000575978STORAGE BASKET NON-WOVE0000001000+00004385+00000+0001T   00004385+0000001426          1400 FT8205               2AZ
920257003920257105-001078     920257006009654960931CONTAINER 1,1L CLIP LOC0000001000+00001928+00000+0001T   00001928+0000001426          1400 FT8210               2AZ
920257004920257106-001100-B   920257006001023651693FRIDGE BOTTLE ASSORTED 0000001000+00001490+00000+0001T   00001490+0000001426          1400 FT8210               2AZ
920257005920257106-001125     920257006003000666270WATER BOTTLE 600ml     0000001000+00002630+00000+0001T   00002630+0000001426          1400 FT8210               2AZ
920257006920257018-000200     920257006001023816573M/DAILY V-SHAPE PSYCH  0000001000+00001753+00000+0001T   00001753+0000001426          1400 FT8515               2AZ
920257007920257080-000133-A   920257006003000647019MINI VALENTINES CARD   0000002000+00000437+00000+0001T   00000437+0000001426          1400 FT8112               2AZ
920258000920258               920258               170213GT     1400+00000+GT0000006139+0000006139+000000000+000000860+0000006999+0000000000+I40000006999+0000000000+Z
920258001920258368-000175     920258006003000270316PLUSH BEAR 4 ASSTD 18CM0000001000+00006139+00000+0001T   00006139+0000001430          1400 FT8745               2AZ
920259000920259               920259               170213GT     1400+00000+GT0000005295+0000005295+000000000+000000742+0000006030+0000000007+I20000000000+0000006030+Z
920259001920259562-000020     920259006003000600861EDU PLAY DOUGH 60g 4PC 0000001000+00003507+00000+0001T   00003507+0000001431          1400 FT8755               2AZ
920259002920259034-000713     920259006001023899507COOEY TUMBLER NON-SPILL0000001000+00001753+00000+0001T   00002630+0008151431          1400 FT8215               2AZ
920259003920259112-116038     920259006009681820246TCS CARRIER BAG MIDI   0000001000+00000035+00000+0001T   00000035+0000001431          1400 FT8090               2AZ
920260000920260               920260               170213GT     1400+00000+GT0000003507+0000003507+000000000+000000491+0000003990+0000000008+I20000000000+0000003990+Z
920260001920260018-005009     920260006001023725608MUG W/PLUSH-BEAR LOVE  0000001000+00003507+00000+0001T   00003507+0000001511          1400 FT8515               2AZ
920261000920261               920261               170213GT     1400+00000+GT0000003065+0000003065+000000000+000000430+0000003495+0000000000+I40000003495+0000000000+Z
920261001920261304-001011     920261006001023806727FLWR ROSE RED W/BEAR   0000005000+00000613+00000+0001T   00000788+0006471516          1400 FT8510               2AZ
920262000920262               920262               170213GT     1400+00000+GT0000001578+0000001578+000000000+000000221+0000001790+0000000009+I20000000000+0000001790+Z
920262001920262018-000127     920262006001023380289MUG OCC STRAIGHT LOVE  0000001000+00001578+00000+0001T   00001753+0006471527          1400 FT8515               2AZ
920263000920263               920263               170213GT     1400+00000+GT0000008806+0000008806+000000000+000001233+0000010030+0000000009+I20000000000+0000010030+Z
920263001920263031-000924     920263006001023669964P/FRAME COLLAGE PL     0000001000+00008771+00000+0001T   00008771+0000001541          1400 FT8510               2AZ
920263002920263112-116038     920263006009681820246TCS CARRIER BAG MIDI   0000001000+00000035+00000+0001T   00000035+0000001541          1400 FT8090               2AZ
920264000920264               920264               170213GT     1400+00000+GT0000001664+0000001664+000000000+000000234+0000001890+0000000008+I20000000000+0000001890+Z
920264001920264077-000010-C   920264006001023123879CREPE-PAPER RED        0000001000+00000788+00000+0001T   00000788+0000001548          1400 FT8112               2AZ
920264002920264077-000011-D   920264006001023808554TISSUE-WRAP WHITE 10PCE0000001000+00000876+00000+0001T   00000876+0000001548          1400 FT8112               2AZ
920265000920265               920265               170213GT     1400+00000+GT0000000876+0000000876+000000000+000000123+0000000999+0000000000+I40000000999+0000000000+Z
920265001920265903-000297     920265006001704002950SWT MS WILD BERRY 50G  0000001000+00000876+00000+0001T   00000876+0000001550          1400 FT8150               2AZ
920266000920266               920266               170213GT     1400+00000+GT0000008819+0000008819+000000000+000001235+0000010054+0000000000+I40000010054+0000000000+Z
920266001920266031-000924     920266006001023669964P/FRAME COLLAGE PL     0000001000+00008771+00000+0001T   00008771+0000001551          1400 FT8510               2AZ
920266002920266112-116069     920266006009681820277TCS CARRIER BAG JUMBO  0000001000+00000048+00000+0001T   00000048+0000001551          1400 FT8090               2AZ
920267000920267               920267               170213GT     1400+00000+GT0000006663+0000006663+000000000+000000933+0000007590+0000000006+I20000000000+0000007590+Z
920267001920267018-000136     920267006001023659026MUG OCC LOVE W/PLUSH   0000001000+00003507+00000+0001T   00003507+0000001602          1400 FT8515               2AZ
920267002920267080-000124     920267006003000297733CARD & ENV VALENTINES  0000001000+00001578+00000+0001T   00001578+0000001602          1400 FT8112               2AZ
920267003920267077-000303     920267006001023593757GIFT-BAG PAPER MED     0000001000+00001578+00000+0001T   00001578+0000001602          1400 FT8112               2AZ
920268000920268               920268               170213GT     1400+00000+GT0000010959+0000010959+000000000+000001536+0000012490+0000000005+I20000000000+0000012490+Z
920268001920268024-000002     920268006001023741899S/BURNER-COVER SILV/BLK0000001000+00003946+00000+0001T   00004385+0008191603          1400 FT8300               2AZ
920268002920268306-000006     920268006001023776440DENTAL FLOSS PICKS 50PC0000002000+00001753+00000+0001T   00001753+0000001603          1400 FT8200               2AZ
920268003920268071-005060     920268006003000152186CELLOTAPE 2PACK INVSBLE0000001000+00003507+00000+0001T   00003507+0000001603          1400 FT8130               2AZ
920269000920269               920269               170213GT     1400+00000+GT0000005297+0000005297+000000000+000000742+0000006039+0000000000+I40000006039+0000000000+Z
920269001920269263-000623     920269006001023905697VEHICLE HELICOPTER 30cm0000001000+00005262+00000+0001T   00005262+0000001606          1400 FT8710               2AZ
920269002920269112-116038     920269006009681820246TCS CARRIER BAG MIDI   0000001000+00000035+00000+0001T   00000035+0000001606          1400 FT8090               2AZ
920270000920270               920270               170213GT     1400+00000+GT0000011449+0000011449+000000000+000001604+0000013053+0000000000+I40000013053+0000000000+Z
920270001920270032-000334     920270006003000352395MIRROR HAND PL 23X31CM 0000001000+00004385+00000+0001T   00004385+0000001607          1400 FT8510               2CZ
920270002920270174-000305     920270006003000105502TRAVEL NECK-PILLOW     0000001000+00007016+00000+0001T   00007016+0000001607          1400 FT8205               2CZ
920270003920270112-116069     920270006009681820277TCS CARRIER BAG JUMBO  0000001000+00000048+00000+0001T   00000048+0000001607          1400 FT8090               2CZ
920271000920271               920271               170213GT     1400+00000+GT0000000700+0000000700+000000000+000000098+0000000790+0000000008+I20000000000+0000000790+Z
920271001920271564-000012     920271006001023130075BUBBLE BOTTLE MAGIC    0000001000+00000700+00000+0001T   00000700+0000001608          1400 FT8131               2CZ
920272000920272               920272               170213GT     1400+00000+GT0000013157+0000013157+000000000+000001842+0000014990+0000000009+I20000000000+0000014990+Z
920272001920272031-000009     920272006003000306381P/FRAME COLLAGE HEARTS 0000001000+00013157+00000+0001T   00013157+0000001614          1400 FT8510               2AZ
920273000920273               920273               170213GT     1400+00000+GT0000046258+0000046258+000000000+000006481+0000052739+0000000000+I40000052739+0000000000+Z
920273001920273112-116069     920273006009681820277TCS CARRIER BAG JUMBO  0000001000+00000048+00000+0001T   00000048+0000001628          1400 FT8090               2AZ
920273002920273002-220009     920273006003000567478FOODCOVER COLL. ROUND  0000002000+00005262+00000+0001T   00005262+0000001628          1400 FT8300               2AZ
920273003920273562-000212     920273006001023851567PUSH-IN BOARD NUMBERS  0000001000+00004385+00000+0001T   00004385+0000001628          1400 FT8755               2AZ
920273004920273562-000211     920273006001023851536PUSH-IN BOARD ALPHABET 0000001000+00005262+00000+0001T   00005262+0000001628          1400 FT8755               2AZ
920273005920273077-000309     920273006001023608604GIFT-BAG 25X32CM GLOSS 0000001000+00001753+00000+0001T   00001753+0000001628          1400 FT8112               2AZ
920273006920273077-000011-D   920273006001023808554TISSUE-WRAP WHITE 10PCE0000002000+00000876+00000+0001T   00000876+0000001628          1400 FT8112               2AZ
920273007920273077-000011-C   920273006001023808523TISSUE 10xSHTS RED     0000002000+00000876+00000+0001T   00000876+0000001628          1400 FT8112               2AZ
920273008920273077-000303     920273006001023593757GIFT-BAG PAPER MED     0000005000+00001578+00000+0001T   00001578+0000001628          1400 FT8112               2AZ
920273009920273077-000452     920273006003000284986G/BAG METALLIC MED EMB 0000001000+00001490+00000+0001T   00001490+0000001628          1400 FT8112               2AZ
920273010920273469-006603     920273006003000390441B/BLOCKS 86PC TROLY BAG0000001000+00011402+00000+0001T   00011402+0000001628          1400 FT8755               2AZ
920274000920274               920274               170213GT     1400+00000+GT0000001753+0000001753+000000000+000000246+0000001990+0000000009+I20000000000+0000001990+Z
920274001920274565-000891-A   920274006003000690886NOVELTY PRICKLY BALL   0000001000+00001753+00000+0001T   00001753+0000001628          1400 FT8745               2AZ
920275000920275               920275               170213GT     1400+00000+GT0000004645+0000004645+000000000+000000652+0000005297+0000000000+I40000005297+0000000000+Z
920275001920275077-000011-X   920275006001023809827TISSUE-WRAP SILVER 10PC0000001000+00001753+00000+0001T   00001753+0000001641          1400 FT8112               2AZ
920275002920275903-000087     920275006001704000161SWT SPECKLED-EGGS 50G  0000001000+00001139+00000+0001T   00001139+0000001641          1400 FT8150               2AZ
920275003920275077-000382     920275006003000247820GIFT-BAG MED 18X23CM   0000001000+00001753+00000+0001T   00001753+0000001641          1400 FT8112               2AZ
920276000920276               920276               170213GT     1400+00000+GT0000003068+0000003068+000000000+000000430+0000003498+0000000000+I40000003498+0000000000+Z
920276001920276903-000843     920276008693029031067SWT GUMMY JELAXY 80G   0000001000+00000964+00000+0001T   00000964+0000001643          1400 FT8150               2AZ
920276002920276903-000095     920276006001704011495SWT SPECKLED-EGGS 100G 0000001000+00002104+00000+0001T   00002104+0000001643          1400 FT8150               2AZ
920277000920277               920277               170213GT     1400+00000+GT0000006395+0000006395+000000000+000000898+0000007290+0000000003+I20000000000+0000007290+Z
920277001920277077-000408     920277006003000145218G/BAG PP 15X21X7CM     0000001000+00000876+00000+0001T   00000876+0000001644          1400 FT8112               2AZ
920277002920277903-000123     920277006925925909280SWEET GS MINI MALLOWS  0000001000+00000876+00000+0001T   00000876+0000001644          1400 FT8150               2AZ
920277003920277903-000843     920277008693029031067SWT GUMMY JELAXY 80G   0000001000+00000964+00000+0001T   00000964+0000001644          1400 FT8150               2AZ
920277004920277903-000137     920277006002099004130SWEET GS JELLY BEAN 60G0000001000+00000788+00000+0001T   00000788+0000001644          1400 FT8150               2AZ
920277005920277903-000087     920277006001704000161SWT SPECKLED-EGGS 50G  0000001000+00001139+00000+0001T   00001139+0000001644          1400 FT8150               2AZ
920277006920277903-000151     920277006009803374411SWT SML RND R/BOW LOLLY0000001000+00000525+00000+0001T   00000525+0000001644          1400 FT8150               2AZ
920277007920277903-000517     920277006001704012768SWT STRAWS FIZZY CHERRY0000001000+00001227+00000+0001T   00001227+0000001644          1400 FT8150               2AZ
920278000920278               920278               170213GT     1400+00000+GT0000005260+0000005260+000000000+000000738+0000005998+0000000000+I40000005998+0000000000+Z
920278001920278072-020304     920278006001023602497PET DOG-CHEW STRING    0000001000+00002630+00000+0001T   00002630+0000001656          1400 FT8870               2AZ
920278002920278083-000058     920278006003000400331LIGHTER JET CIGAR REFIL0000001000+00002630+00000+0001T   00002630+0000001656          1400 FT8315               2AZ
920279000920279               920279               170213GT     1400+00000+GT0000003946+0000003946+000000000+000000553+0000004499+0000000000+I40000004499+0000000000+Z
920279001920279031-000874-A   920279006001023798800P/FRAME WDN P/BOX 10X150000001000+00003946+00000+0001T   00003946+0000001658          1400 FT8510               2AZ
920280000920280               920280               170213GT     1400+00000+GT0000003946+0000003946+000000000+000000553+0000004499+0000000000+I40000004499+0000000000+Z
920280001920280031-000874-A   920280006001023798800P/FRAME WDN P/BOX 10X150000001000+00003946+00000+0001T   00003946+0000001659          1400 FT8510               2AZ
920281000920281               920281               170213GT     1400+00000+GT0000007893+0000007893+000000000+000001106+0000008990+0000000009+I20000000000+0000008990+Z
920281001920281082-000123     920281006003000646159READING GLASS TWIN MIX 0000001000+00007893+00000+0001T   00007893+0000001701          1400 FT8160               2AZ
920282000920282               920282               170213GT     1400+00000+GT0000001753+0000001753+000000000+000000246+0000001990+0000000009+I20000000000+0000001990+Z
920282001920282077-000472     920282006003000330133G-BAG DESGNR LRG 25X32 0000001000+00001753+00000+0001T   00001753+0000001711          1400 FT8112               2AZ
920283000920283               920283               170213GT     1400+00000+GT0000002630+0000002630+000000000+000000369+0000002990+0000000009+I20000000000+0000002990+Z
920283001920283567-075466     920283006003000643189BK NOVEL ROMANCE       0000001000+00002630+00000+0001T   00002630+0000001727          1400 FT8757               2CZ
920284000920284               920284               170213GT     1400+00000+GT0000009329+0000009329+000000000+000001308+0000010637+0000000000+I40000010637+0000000000+Z
920284001920284903-000151     920284006009803374411SWT SML RND R/BOW LOLLY0000001000+00000525+00000+0001T   00000525+0000001749          1400 FT8150               2CZ
920284002920284077-000351     920284006003000139033GIFT-BAG 18X23CM E/D P 0000001000+00001753+00000+0001T   00001753+0000001749          1400 FT8112               2CZ
920284003920284031-007000     920284006003000462476P/FRAME WDN DIST.10X15 0000001000+00007016+00000+0001T   00007016+0000001749          1400 FT8510               2CZ
920284004920284112-116038     920284006009681820246TCS CARRIER BAG MIDI   0000001000+00000035+00000+0001T   00000035+0000001749          1400 FT8090               2CZ
920285000920285               920285               170213GT     1400+00000+GT0000012313+0000012313+000000000+000001725+0000014038+0000000000+I40000014038+0000000000+Z
920285001920285368-000265     920285006001023750914PLUSH BEAR 23CM ASSTD C0000002000+00006139+00000+0001T   00006139+0000001751          1400 FT8745               2CZ
920285002920285112-116038     920285006009681820246TCS CARRIER BAG MIDI   0000001000+00000035+00000+0001T   00000035+0000001751          1400 FT8090               2CZ
M17021391                              CASH        GTSLAVE 2                       Z-REPORT No.   183TOTAL (Sales - Refunds)           5640.21       CASH TO BE BANKED                 2778.70       DEBIT CARDS                          0.00       CREDIT CARDS                      2861.51       Z-READING                         5640.21       AIRTIME DEBIT CARD SALES             0.00       AIRTIME CARD SALES                   0.00       OVERS/UNDERS                         0.00       AIRTIME CASH SALES                   0.00       GIFT CARDS                           0.00       GIFT CARD CASH SALES                 0.00       T O T A L  CASH PAYOUTS              0.00                                                                                                                                                                                                                                                                                                                                                      Z
M17021392                              CASH        GTABSENT                                                                                                                                                                                          ANNUAL LEAVE                                                                                                                                                                                    DAY OFF                                                                                                                                                                                         COMMENTS                                                                                                                                                                                                                                                                                                                                                                                       Z
Y17021300                                          GT00000000515132+000070
ZGT17021319433 SLAVE 2      SALES DATA                     NEXT INVOICE NO.  920286 0183
X GT Slave 2 First invoice 920215 170213 Last invoice 920285 170213 Next invoice 920286 Total number of records 000000260 clbackup completed 19:43:47
